00010010001000000000000000000000000000000000000000000000000000000000000000000000000000000000000000000          REGISTERED VOTERS - TOTAL                               REGISTERED VOTERS - TOTAL             Box 101                                                00 
00010010002000000000000000000000000000000000000000000000000000000000000000000000000000000000000000000          REGISTERED VOTERS - TOTAL                               REGISTERED VOTERS - TOTAL             Box 102                                                00 
00010010003000000000000000000000000000000000000000000000000000000000000000000000000000000000000000000          REGISTERED VOTERS - TOTAL                               REGISTERED VOTERS - TOTAL             Box 103                                                00 
00010010004000000000000000000000000000000000000000000000000000000000000000000000000000000000000000000          REGISTERED VOTERS - TOTAL                               REGISTERED VOTERS - TOTAL             Box 104                                                00 
00010010005000000000000000000000000000000000000000000000000000000000000000000000000000000000000000000          REGISTERED VOTERS - TOTAL                               REGISTERED VOTERS - TOTAL             Box 205                                                00 
00010010006000000000000000000000000000000000000000000000000000000000000000000000000000000000000000000          REGISTERED VOTERS - TOTAL                               REGISTERED VOTERS - TOTAL             Box 206                                                00 
00010010007000000000000000000000000000000000000000000000000000000000000000000000000000000000000000000          REGISTERED VOTERS - TOTAL                               REGISTERED VOTERS - TOTAL             Box 207                                                00 
00010010008000000000000000000000000000000000000000000000000000000000000000000000000000000000000000000          REGISTERED VOTERS - TOTAL                               REGISTERED VOTERS - TOTAL             Box 311                                                00 
00010010009000000000000000000000000000000000000000000000000000000000000000000000000000000000000000000          REGISTERED VOTERS - TOTAL                               REGISTERED VOTERS - TOTAL             Box 312                                                00 
00010010010000000000000000000000000000000000000000000000000000000000000000000000000000000000000000000          REGISTERED VOTERS - TOTAL                               REGISTERED VOTERS - TOTAL             Box 313                                                00 
00010010011000000000000000000000000000000000000000000000000000000000000000000000000000000000000000000          REGISTERED VOTERS - TOTAL                               REGISTERED VOTERS - TOTAL             Box 414                                                00 
00010010012000000000000000000000000000000000000000000000000000000000000000000000000000000000000000000          REGISTERED VOTERS - TOTAL                               REGISTERED VOTERS - TOTAL             Box 415                                                00 
00010010013000000000000000000000000000000000000000000000000000000000000000000000000000000000000000000          REGISTERED VOTERS - TOTAL                               REGISTERED VOTERS - TOTAL             Box 416                                                00 
00020010001002756000105002219000432000000000000000000000000000000000000000000000000000000000000000000          BALLOTS CAST - TOTAL                                    BALLOTS CAST - TOTAL                  Box 101                                                00 
00020010002001535000094001174000267000000000000000000000000000000000000000000000000000000000000000000          BALLOTS CAST - TOTAL                                    BALLOTS CAST - TOTAL                  Box 102                                                00 
00020010003001389000090001017000282000000000000000000000000000000000000000000000000000000000000000000          BALLOTS CAST - TOTAL                                    BALLOTS CAST - TOTAL                  Box 103                                                00 
00020010004000993000030000718000245000000000000000000000000000000000000000000000000000000000000000000          BALLOTS CAST - TOTAL                                    BALLOTS CAST - TOTAL                  Box 104                                                00 
00020010005002304000058001599000647000000000000000000000000000000000000000000000000000000000000000000          BALLOTS CAST - TOTAL                                    BALLOTS CAST - TOTAL                  Box 205                                                00 
00020010006001688000103001331000254000000000000000000000000000000000000000000000000000000000000000000          BALLOTS CAST - TOTAL                                    BALLOTS CAST - TOTAL                  Box 206                                                00 
00020010007002539000074002152000313000000000000000000000000000000000000000000000000000000000000000000          BALLOTS CAST - TOTAL                                    BALLOTS CAST - TOTAL                  Box 207                                                00 
00020010008002196000081001855000260000000000000000000000000000000000000000000000000000000000000000000          BALLOTS CAST - TOTAL                                    BALLOTS CAST - TOTAL                  Box 311                                                00 
00020010009002183000061001842000280000000000000000000000000000000000000000000000000000000000000000000          BALLOTS CAST - TOTAL                                    BALLOTS CAST - TOTAL                  Box 312                                                00 
00020010010003029000072002438000519000000000000000000000000000000000000000000000000000000000000000000          BALLOTS CAST - TOTAL                                    BALLOTS CAST - TOTAL                  Box 313                                                00 
00020010011002280000075001425000780000000000000000000000000000000000000000000000000000000000000000000          BALLOTS CAST - TOTAL                                    BALLOTS CAST - TOTAL                  Box 414                                                00 
00020010012002812000081002343000388000000000000000000000000000000000000000000000000000000000000000000          BALLOTS CAST - TOTAL                                    BALLOTS CAST - TOTAL                  Box 415                                                00 
00020010013001712000059001364000289000000000000000000000000000000000000000000000000000000000000000000          BALLOTS CAST - TOTAL                                    BALLOTS CAST - TOTAL                  Box 416                                                00 
00030010001000001000000000001000000000000000000000000000000000000000000000000000000000000000000000000          BALLOTS CAST - BLANK                                    BALLOTS CAST - BLANK                  Box 101                                                00 
00030010002000002000000000002000000000000000000000000000000000000000000000000000000000000000000000000          BALLOTS CAST - BLANK                                    BALLOTS CAST - BLANK                  Box 102                                                00 
00030010003000000000000000000000000000000000000000000000000000000000000000000000000000000000000000000          BALLOTS CAST - BLANK                                    BALLOTS CAST - BLANK                  Box 103                                                00 
00030010004000001000000000001000000000000000000000000000000000000000000000000000000000000000000000000          BALLOTS CAST - BLANK                                    BALLOTS CAST - BLANK                  Box 104                                                00 
00030010005000002000000000002000000000000000000000000000000000000000000000000000000000000000000000000          BALLOTS CAST - BLANK                                    BALLOTS CAST - BLANK                  Box 205                                                00 
00030010006000002000000000002000000000000000000000000000000000000000000000000000000000000000000000000          BALLOTS CAST - BLANK                                    BALLOTS CAST - BLANK                  Box 206                                                00 
00030010007000001000000000001000000000000000000000000000000000000000000000000000000000000000000000000          BALLOTS CAST - BLANK                                    BALLOTS CAST - BLANK                  Box 207                                                00 
00030010008000001000000000001000000000000000000000000000000000000000000000000000000000000000000000000          BALLOTS CAST - BLANK                                    BALLOTS CAST - BLANK                  Box 311                                                00 
00030010009000001000000000001000000000000000000000000000000000000000000000000000000000000000000000000          BALLOTS CAST - BLANK                                    BALLOTS CAST - BLANK                  Box 312                                                00 
00030010010000002000000000000000002000000000000000000000000000000000000000000000000000000000000000000          BALLOTS CAST - BLANK                                    BALLOTS CAST - BLANK                  Box 313                                                00 
00030010011000001000000000001000000000000000000000000000000000000000000000000000000000000000000000000          BALLOTS CAST - BLANK                                    BALLOTS CAST - BLANK                  Box 414                                                00 
00030010012000002000000000002000000000000000000000000000000000000000000000000000000000000000000000000          BALLOTS CAST - BLANK                                    BALLOTS CAST - BLANK                  Box 415                                                00 
00030010013000002000000000002000000000000000000000000000000000000000000000000000000000000000000000000          BALLOTS CAST - BLANK                                    BALLOTS CAST - BLANK                  Box 416                                                00 
00040010001001855000047001538000270000000000000000000000000000000000000000000000000000000000000000000REP       President/Vice President                                REP Donald J. Trump/JD Vance          Box 101                                                01 
00040010002000879000019000695000165000000000000000000000000000000000000000000000000000000000000000000REP       President/Vice President                                REP Donald J. Trump/JD Vance          Box 102                                                01 
00040010003000933000027000711000195000000000000000000000000000000000000000000000000000000000000000000REP       President/Vice President                                REP Donald J. Trump/JD Vance          Box 103                                                01 
00040010004000742000022000553000167000000000000000000000000000000000000000000000000000000000000000000REP       President/Vice President                                REP Donald J. Trump/JD Vance          Box 104                                                01 
00040010005001914000032001336000546000000000000000000000000000000000000000000000000000000000000000000REP       President/Vice President                                REP Donald J. Trump/JD Vance          Box 205                                                01 
00040010006001103000041000889000173000000000000000000000000000000000000000000000000000000000000000000REP       President/Vice President                                REP Donald J. Trump/JD Vance          Box 206                                                01 
00040010007001869000041001613000215000000000000000000000000000000000000000000000000000000000000000000REP       President/Vice President                                REP Donald J. Trump/JD Vance          Box 207                                                01 
00040010008001850000041001597000212000000000000000000000000000000000000000000000000000000000000000000REP       President/Vice President                                REP Donald J. Trump/JD Vance          Box 311                                                01 
00040010009001813000031001558000224000000000000000000000000000000000000000000000000000000000000000000REP       President/Vice President                                REP Donald J. Trump/JD Vance          Box 312                                                01 
00040010010002485000035002054000396000000000000000000000000000000000000000000000000000000000000000000REP       President/Vice President                                REP Donald J. Trump/JD Vance          Box 313                                                01 
00040010011001892000038001215000639000000000000000000000000000000000000000000000000000000000000000000REP       President/Vice President                                REP Donald J. Trump/JD Vance          Box 414                                                01 
00040010012002201000046001848000307000000000000000000000000000000000000000000000000000000000000000000REP       President/Vice President                                REP Donald J. Trump/JD Vance          Box 415                                                01 
00040010013001358000034001099000225000000000000000000000000000000000000000000000000000000000000000000REP       President/Vice President                                REP Donald J. Trump/JD Vance          Box 416                                                01 
00040020001000875000058000659000158000000000000000000000000000000000000000000000000000000000000000000DEM       President/Vice President                                DEM Kamala D. Harris/Tim Walz         Box 101                                                01 
00040020002000641000075000468000098000000000000000000000000000000000000000000000000000000000000000000DEM       President/Vice President                                DEM Kamala D. Harris/Tim Walz         Box 102                                                01 
00040020003000440000063000294000083000000000000000000000000000000000000000000000000000000000000000000DEM       President/Vice President                                DEM Kamala D. Harris/Tim Walz         Box 103                                                01 
00040020004000234000008000155000071000000000000000000000000000000000000000000000000000000000000000000DEM       President/Vice President                                DEM Kamala D. Harris/Tim Walz         Box 104                                                01 
00040020005000370000024000251000095000000000000000000000000000000000000000000000000000000000000000000DEM       President/Vice President                                DEM Kamala D. Harris/Tim Walz         Box 205                                                01 
00040020006000568000062000428000078000000000000000000000000000000000000000000000000000000000000000000DEM       President/Vice President                                DEM Kamala D. Harris/Tim Walz         Box 206                                                01 
00040020007000643000031000521000091000000000000000000000000000000000000000000000000000000000000000000DEM       President/Vice President                                DEM Kamala D. Harris/Tim Walz         Box 207                                                01 
00040020008000324000037000244000043000000000000000000000000000000000000000000000000000000000000000000DEM       President/Vice President                                DEM Kamala D. Harris/Tim Walz         Box 311                                                01 
00040020009000354000029000272000053000000000000000000000000000000000000000000000000000000000000000000DEM       President/Vice President                                DEM Kamala D. Harris/Tim Walz         Box 312                                                01 
00040020010000509000035000358000116000000000000000000000000000000000000000000000000000000000000000000DEM       President/Vice President                                DEM Kamala D. Harris/Tim Walz         Box 313                                                01 
00040020011000371000037000198000136000000000000000000000000000000000000000000000000000000000000000000DEM       President/Vice President                                DEM Kamala D. Harris/Tim Walz         Box 414                                                01 
00040020012000579000032000475000072000000000000000000000000000000000000000000000000000000000000000000DEM       President/Vice President                                DEM Kamala D. Harris/Tim Walz         Box 415                                                01 
00040020013000339000023000256000060000000000000000000000000000000000000000000000000000000000000000000DEM       President/Vice President                                DEM Kamala D. Harris/Tim Walz         Box 416                                                01 
00040030001000005000000000004000001000000000000000000000000000000000000000000000000000000000000000000LIB       President/Vice President                                LIB Chase Oliver/Mike ter Maat        Box 101                                                01 
00040030002000004000000000004000000000000000000000000000000000000000000000000000000000000000000000000LIB       President/Vice President                                LIB Chase Oliver/Mike ter Maat        Box 102                                                01 
00040030003000004000000000004000000000000000000000000000000000000000000000000000000000000000000000000LIB       President/Vice President                                LIB Chase Oliver/Mike ter Maat        Box 103                                                01 
00040030004000003000000000001000002000000000000000000000000000000000000000000000000000000000000000000LIB       President/Vice President                                LIB Chase Oliver/Mike ter Maat        Box 104                                                01 
00040030005000005000000000003000002000000000000000000000000000000000000000000000000000000000000000000LIB       President/Vice President                                LIB Chase Oliver/Mike ter Maat        Box 205                                                01 
00040030006000004000000000003000001000000000000000000000000000000000000000000000000000000000000000000LIB       President/Vice President                                LIB Chase Oliver/Mike ter Maat        Box 206                                                01 
00040030007000010000000000008000002000000000000000000000000000000000000000000000000000000000000000000LIB       President/Vice President                                LIB Chase Oliver/Mike ter Maat        Box 207                                                01 
00040030008000014000002000010000002000000000000000000000000000000000000000000000000000000000000000000LIB       President/Vice President                                LIB Chase Oliver/Mike ter Maat        Box 311                                                01 
00040030009000005000001000002000002000000000000000000000000000000000000000000000000000000000000000000LIB       President/Vice President                                LIB Chase Oliver/Mike ter Maat        Box 312                                                01 
00040030010000008000000000006000002000000000000000000000000000000000000000000000000000000000000000000LIB       President/Vice President                                LIB Chase Oliver/Mike ter Maat        Box 313                                                01 
00040030011000006000000000002000004000000000000000000000000000000000000000000000000000000000000000000LIB       President/Vice President                                LIB Chase Oliver/Mike ter Maat        Box 414                                                01 
00040030012000009000002000006000001000000000000000000000000000000000000000000000000000000000000000000LIB       President/Vice President                                LIB Chase Oliver/Mike ter Maat        Box 415                                                01 
00040030013000003000001000000000002000000000000000000000000000000000000000000000000000000000000000000LIB       President/Vice President                                LIB Chase Oliver/Mike ter Maat        Box 416                                                01 
00040040001000006000000000004000002000000000000000000000000000000000000000000000000000000000000000000GRN       President/Vice President                                GRN Jill Stein/Rudolph Ware           Box 101                                                01 
00040040002000001000000000001000000000000000000000000000000000000000000000000000000000000000000000000GRN       President/Vice President                                GRN Jill Stein/Rudolph Ware           Box 102                                                01 
00040040003000006000000000004000002000000000000000000000000000000000000000000000000000000000000000000GRN       President/Vice President                                GRN Jill Stein/Rudolph Ware           Box 103                                                01 
00040040004000001000000000001000000000000000000000000000000000000000000000000000000000000000000000000GRN       President/Vice President                                GRN Jill Stein/Rudolph Ware           Box 104                                                01 
00040040005000002000000000002000000000000000000000000000000000000000000000000000000000000000000000000GRN       President/Vice President                                GRN Jill Stein/Rudolph Ware           Box 205                                                01 
00040040006000005000000000004000001000000000000000000000000000000000000000000000000000000000000000000GRN       President/Vice President                                GRN Jill Stein/Rudolph Ware           Box 206                                                01 
00040040007000003000000000003000000000000000000000000000000000000000000000000000000000000000000000000GRN       President/Vice President                                GRN Jill Stein/Rudolph Ware           Box 207                                                01 
00040040008000002000000000001000001000000000000000000000000000000000000000000000000000000000000000000GRN       President/Vice President                                GRN Jill Stein/Rudolph Ware           Box 311                                                01 
00040040009000004000000000004000000000000000000000000000000000000000000000000000000000000000000000000GRN       President/Vice President                                GRN Jill Stein/Rudolph Ware           Box 312                                                01 
00040040010000009000001000006000002000000000000000000000000000000000000000000000000000000000000000000GRN       President/Vice President                                GRN Jill Stein/Rudolph Ware           Box 313                                                01 
00040040011000002000000000002000000000000000000000000000000000000000000000000000000000000000000000000GRN       President/Vice President                                GRN Jill Stein/Rudolph Ware           Box 414                                                01 
00040040012000005000000000003000002000000000000000000000000000000000000000000000000000000000000000000GRN       President/Vice President                                GRN Jill Stein/Rudolph Ware           Box 415                                                01 
00040040013000003000000000002000001000000000000000000000000000000000000000000000000000000000000000000GRN       President/Vice President                                GRN Jill Stein/Rudolph Ware           Box 416                                                01 
00040060001000004000000000004000000000000000000000000000000000000000000000000000000000000000000000000NON       President/Vice President                                Write-in                              Box 101                                                01 
00040060002000000000000000000000000000000000000000000000000000000000000000000000000000000000000000000NON       President/Vice President                                Write-in                              Box 102                                                01 
00040060003000003000000000002000001000000000000000000000000000000000000000000000000000000000000000000NON       President/Vice President                                Write-in                              Box 103                                                01 
00040060004000004000000000002000002000000000000000000000000000000000000000000000000000000000000000000NON       President/Vice President                                Write-in                              Box 104                                                01 
00040060005000003000000000001000002000000000000000000000000000000000000000000000000000000000000000000NON       President/Vice President                                Write-in                              Box 205                                                01 
00040060006000000000000000000000000000000000000000000000000000000000000000000000000000000000000000000NON       President/Vice President                                Write-in                              Box 206                                                01 
00040060007000006000002000001000003000000000000000000000000000000000000000000000000000000000000000000NON       President/Vice President                                Write-in                              Box 207                                                01 
00040060008000002000001000000000001000000000000000000000000000000000000000000000000000000000000000000NON       President/Vice President                                Write-in                              Box 311                                                01 
00040060009000003000000000002000001000000000000000000000000000000000000000000000000000000000000000000NON       President/Vice President                                Write-in                              Box 312                                                01 
00040060010000007000001000006000000000000000000000000000000000000000000000000000000000000000000000000NON       President/Vice President                                Write-in                              Box 313                                                01 
00040060011000004000000000004000000000000000000000000000000000000000000000000000000000000000000000000NON       President/Vice President                                Write-in                              Box 414                                                01 
00040060012000010000001000004000005000000000000000000000000000000000000000000000000000000000000000000NON       President/Vice President                                Write-in                              Box 415                                                01 
00040060013000004000001000003000000000000000000000000000000000000000000000000000000000000000000000000NON       President/Vice President                                Write-in                              Box 416                                                01 
00040070001000002000000000002000000000000000000000000000000000000000000000000000000000000000000000000          President/Vice President                                OVER VOTES                            Box 101                                                01 
00040070002000003000000000002000001000000000000000000000000000000000000000000000000000000000000000000          President/Vice President                                OVER VOTES                            Box 102                                                01 
00040070003000001000000000001000000000000000000000000000000000000000000000000000000000000000000000000          President/Vice President                                OVER VOTES                            Box 103                                                01 
00040070004000002000000000002000000000000000000000000000000000000000000000000000000000000000000000000          President/Vice President                                OVER VOTES                            Box 104                                                01 
00040070005000001000000000001000000000000000000000000000000000000000000000000000000000000000000000000          President/Vice President                                OVER VOTES                            Box 205                                                01 
00040070006000002000000000002000000000000000000000000000000000000000000000000000000000000000000000000          President/Vice President                                OVER VOTES                            Box 206                                                01 
00040070007000004000000000003000001000000000000000000000000000000000000000000000000000000000000000000          President/Vice President                                OVER VOTES                            Box 207                                                01 
00040070008000000000000000000000000000000000000000000000000000000000000000000000000000000000000000000          President/Vice President                                OVER VOTES                            Box 311                                                01 
00040070009000000000000000000000000000000000000000000000000000000000000000000000000000000000000000000          President/Vice President                                OVER VOTES                            Box 312                                                01 
00040070010000002000000000002000000000000000000000000000000000000000000000000000000000000000000000000          President/Vice President                                OVER VOTES                            Box 313                                                01 
00040070011000002000000000002000000000000000000000000000000000000000000000000000000000000000000000000          President/Vice President                                OVER VOTES                            Box 414                                                01 
00040070012000001000000000001000000000000000000000000000000000000000000000000000000000000000000000000          President/Vice President                                OVER VOTES                            Box 415                                                01 
00040070013000000000000000000000000000000000000000000000000000000000000000000000000000000000000000000          President/Vice President                                OVER VOTES                            Box 416                                                01 
00040080001000009000000000008000001000000000000000000000000000000000000000000000000000000000000000000          President/Vice President                                UNDER VOTES                           Box 101                                                01 
00040080002000007000000000004000003000000000000000000000000000000000000000000000000000000000000000000          President/Vice President                                UNDER VOTES                           Box 102                                                01 
00040080003000002000000000001000001000000000000000000000000000000000000000000000000000000000000000000          President/Vice President                                UNDER VOTES                           Box 103                                                01 
00040080004000007000000000004000003000000000000000000000000000000000000000000000000000000000000000000          President/Vice President                                UNDER VOTES                           Box 104                                                01 
00040080005000009000002000005000002000000000000000000000000000000000000000000000000000000000000000000          President/Vice President                                UNDER VOTES                           Box 205                                                01 
00040080006000006000000000005000001000000000000000000000000000000000000000000000000000000000000000000          President/Vice President                                UNDER VOTES                           Box 206                                                01 
00040080007000004000000000003000001000000000000000000000000000000000000000000000000000000000000000000          President/Vice President                                UNDER VOTES                           Box 207                                                01 
00040080008000004000000000003000001000000000000000000000000000000000000000000000000000000000000000000          President/Vice President                                UNDER VOTES                           Box 311                                                01 
00040080009000004000000000004000000000000000000000000000000000000000000000000000000000000000000000000          President/Vice President                                UNDER VOTES                           Box 312                                                01 
00040080010000009000000000006000003000000000000000000000000000000000000000000000000000000000000000000          President/Vice President                                UNDER VOTES                           Box 313                                                01 
00040080011000003000000000002000001000000000000000000000000000000000000000000000000000000000000000000          President/Vice President                                UNDER VOTES                           Box 414                                                01 
00040080012000007000000000006000001000000000000000000000000000000000000000000000000000000000000000000          President/Vice President                                UNDER VOTES                           Box 415                                                01 
00040080013000005000000000004000001000000000000000000000000000000000000000000000000000000000000000000          President/Vice President                                UNDER VOTES                           Box 416                                                01 
00050010001001743000046001451000246000000000000000000000000000000000000000000000000000000000000000000REP       US Senator                                              REP Ted Cruz                          Box 101                                                01 
00050010002000787000018000639000130000000000000000000000000000000000000000000000000000000000000000000REP       US Senator                                              REP Ted Cruz                          Box 102                                                01 
00050010003000858000022000664000172000000000000000000000000000000000000000000000000000000000000000000REP       US Senator                                              REP Ted Cruz                          Box 103                                                01 
00050010004000691000022000517000152000000000000000000000000000000000000000000000000000000000000000000REP       US Senator                                              REP Ted Cruz                          Box 104                                                01 
00050010005001834000030001291000513000000000000000000000000000000000000000000000000000000000000000000REP       US Senator                                              REP Ted Cruz                          Box 205                                                01 
00050010006001031000036000843000152000000000000000000000000000000000000000000000000000000000000000000REP       US Senator                                              REP Ted Cruz                          Box 206                                                01 
00050010007001760000043001522000195000000000000000000000000000000000000000000000000000000000000000000REP       US Senator                                              REP Ted Cruz                          Box 207                                                01 
00050010008001776000038001549000189000000000000000000000000000000000000000000000000000000000000000000REP       US Senator                                              REP Ted Cruz                          Box 311                                                01 
00050010009001740000031001501000208000000000000000000000000000000000000000000000000000000000000000000REP       US Senator                                              REP Ted Cruz                          Box 312                                                01 
00050010010002366000037001972000357000000000000000000000000000000000000000000000000000000000000000000REP       US Senator                                              REP Ted Cruz                          Box 313                                                01 
00050010011001785000034001164000587000000000000000000000000000000000000000000000000000000000000000000REP       US Senator                                              REP Ted Cruz                          Box 414                                                01 
00050010012002116000044001794000278000000000000000000000000000000000000000000000000000000000000000000REP       US Senator                                              REP Ted Cruz                          Box 415                                                01 
00050010013001296000034001064000198000000000000000000000000000000000000000000000000000000000000000000REP       US Senator                                              REP Ted Cruz                          Box 416                                                01 
00050020001000923000058000697000168000000000000000000000000000000000000000000000000000000000000000000DEM       US Senator                                              DEM Colin Allred                      Box 101                                                01 
00050020002000684000073000498000113000000000000000000000000000000000000000000000000000000000000000000DEM       US Senator                                              DEM Colin Allred                      Box 102                                                01 
00050020003000476000061000321000094000000000000000000000000000000000000000000000000000000000000000000DEM       US Senator                                              DEM Colin Allred                      Box 103                                                01 
00050020004000260000007000179000074000000000000000000000000000000000000000000000000000000000000000000DEM       US Senator                                              DEM Colin Allred                      Box 104                                                01 
00050020005000420000025000277000118000000000000000000000000000000000000000000000000000000000000000000DEM       US Senator                                              DEM Colin Allred                      Box 205                                                01 
00050020006000594000064000436000094000000000000000000000000000000000000000000000000000000000000000000DEM       US Senator                                              DEM Colin Allred                      Box 206                                                01 
00050020007000702000030000566000106000000000000000000000000000000000000000000000000000000000000000000DEM       US Senator                                              DEM Colin Allred                      Box 207                                                01 
00050020008000366000039000268000059000000000000000000000000000000000000000000000000000000000000000000DEM       US Senator                                              DEM Colin Allred                      Box 311                                                01 
00050020009000383000028000297000058000000000000000000000000000000000000000000000000000000000000000000DEM       US Senator                                              DEM Colin Allred                      Box 312                                                01 
00050020010000582000033000410000139000000000000000000000000000000000000000000000000000000000000000000DEM       US Senator                                              DEM Colin Allred                      Box 313                                                01 
00050020011000432000036000230000166000000000000000000000000000000000000000000000000000000000000000000DEM       US Senator                                              DEM Colin Allred                      Box 414                                                01 
00050020012000618000034000494000090000000000000000000000000000000000000000000000000000000000000000000DEM       US Senator                                              DEM Colin Allred                      Box 415                                                01 
00050020013000362000025000269000068000000000000000000000000000000000000000000000000000000000000000000DEM       US Senator                                              DEM Colin Allred                      Box 416                                                01 
00050030001000054000000000044000010000000000000000000000000000000000000000000000000000000000000000000LIB       US Senator                                              LIB Ted Brown                         Box 101                                                01 
00050030002000039000003000022000014000000000000000000000000000000000000000000000000000000000000000000LIB       US Senator                                              LIB Ted Brown                         Box 102                                                01 
00050030003000034000003000019000012000000000000000000000000000000000000000000000000000000000000000000LIB       US Senator                                              LIB Ted Brown                         Box 103                                                01 
00050030004000026000001000015000010000000000000000000000000000000000000000000000000000000000000000000LIB       US Senator                                              LIB Ted Brown                         Box 104                                                01 
00050030005000030000001000018000011000000000000000000000000000000000000000000000000000000000000000000LIB       US Senator                                              LIB Ted Brown                         Box 205                                                01 
00050030006000035000002000027000006000000000000000000000000000000000000000000000000000000000000000000LIB       US Senator                                              LIB Ted Brown                         Box 206                                                01 
00050030007000054000001000047000006000000000000000000000000000000000000000000000000000000000000000000LIB       US Senator                                              LIB Ted Brown                         Box 207                                                01 
00050030008000033000002000025000006000000000000000000000000000000000000000000000000000000000000000000LIB       US Senator                                              LIB Ted Brown                         Box 311                                                01 
00050030009000042000001000029000012000000000000000000000000000000000000000000000000000000000000000000LIB       US Senator                                              LIB Ted Brown                         Box 312                                                01 
00050030010000058000001000042000015000000000000000000000000000000000000000000000000000000000000000000LIB       US Senator                                              LIB Ted Brown                         Box 313                                                01 
00050030011000043000002000021000020000000000000000000000000000000000000000000000000000000000000000000LIB       US Senator                                              LIB Ted Brown                         Box 414                                                01 
00050030012000058000003000038000017000000000000000000000000000000000000000000000000000000000000000000LIB       US Senator                                              LIB Ted Brown                         Box 415                                                01 
00050030013000038000000000018000020000000000000000000000000000000000000000000000000000000000000000000LIB       US Senator                                              LIB Ted Brown                         Box 416                                                01 
00050050001000003000000000003000000000000000000000000000000000000000000000000000000000000000000000000NON       US Senator                                              Write-in                              Box 101                                                01 
00050050002000001000000000000000001000000000000000000000000000000000000000000000000000000000000000000NON       US Senator                                              Write-in                              Box 102                                                01 
00050050003000003000000000002000001000000000000000000000000000000000000000000000000000000000000000000NON       US Senator                                              Write-in                              Box 103                                                01 
00050050004000003000000000001000002000000000000000000000000000000000000000000000000000000000000000000NON       US Senator                                              Write-in                              Box 104                                                01 
00050050005000000000000000000000000000000000000000000000000000000000000000000000000000000000000000000NON       US Senator                                              Write-in                              Box 205                                                01 
00050050006000003000000000003000000000000000000000000000000000000000000000000000000000000000000000000NON       US Senator                                              Write-in                              Box 206                                                01 
00050050007000002000000000002000000000000000000000000000000000000000000000000000000000000000000000000NON       US Senator                                              Write-in                              Box 207                                                01 
00050050008000002000000000001000001000000000000000000000000000000000000000000000000000000000000000000NON       US Senator                                              Write-in                              Box 311                                                01 
00050050009000003000001000002000000000000000000000000000000000000000000000000000000000000000000000000NON       US Senator                                              Write-in                              Box 312                                                01 
00050050010000002000000000002000000000000000000000000000000000000000000000000000000000000000000000000NON       US Senator                                              Write-in                              Box 313                                                01 
00050050011000001000000000001000000000000000000000000000000000000000000000000000000000000000000000000NON       US Senator                                              Write-in                              Box 414                                                01 
00050050012000001000000000001000000000000000000000000000000000000000000000000000000000000000000000000NON       US Senator                                              Write-in                              Box 415                                                01 
00050050013000002000000000002000000000000000000000000000000000000000000000000000000000000000000000000NON       US Senator                                              Write-in                              Box 416                                                01 
00050060001000002000000000002000000000000000000000000000000000000000000000000000000000000000000000000          US Senator                                              OVER VOTES                            Box 101                                                01 
00050060002000003000000000002000001000000000000000000000000000000000000000000000000000000000000000000          US Senator                                              OVER VOTES                            Box 102                                                01 
00050060003000000000000000000000000000000000000000000000000000000000000000000000000000000000000000000          US Senator                                              OVER VOTES                            Box 103                                                01 
00050060004000002000000000002000000000000000000000000000000000000000000000000000000000000000000000000          US Senator                                              OVER VOTES                            Box 104                                                01 
00050060005000000000000000000000000000000000000000000000000000000000000000000000000000000000000000000          US Senator                                              OVER VOTES                            Box 205                                                01 
00050060006000002000000000002000000000000000000000000000000000000000000000000000000000000000000000000          US Senator                                              OVER VOTES                            Box 206                                                01 
00050060007000003000000000002000001000000000000000000000000000000000000000000000000000000000000000000          US Senator                                              OVER VOTES                            Box 207                                                01 
00050060008000000000000000000000000000000000000000000000000000000000000000000000000000000000000000000          US Senator                                              OVER VOTES                            Box 311                                                01 
00050060009000000000000000000000000000000000000000000000000000000000000000000000000000000000000000000          US Senator                                              OVER VOTES                            Box 312                                                01 
00050060010000002000000000002000000000000000000000000000000000000000000000000000000000000000000000000          US Senator                                              OVER VOTES                            Box 313                                                01 
00050060011000002000000000002000000000000000000000000000000000000000000000000000000000000000000000000          US Senator                                              OVER VOTES                            Box 414                                                01 
00050060012000001000000000001000000000000000000000000000000000000000000000000000000000000000000000000          US Senator                                              OVER VOTES                            Box 415                                                01 
00050060013000001000000000001000000000000000000000000000000000000000000000000000000000000000000000000          US Senator                                              OVER VOTES                            Box 416                                                01 
00050070001000031000001000022000008000000000000000000000000000000000000000000000000000000000000000000          US Senator                                              UNDER VOTES                           Box 101                                                01 
00050070002000021000000000013000008000000000000000000000000000000000000000000000000000000000000000000          US Senator                                              UNDER VOTES                           Box 102                                                01 
00050070003000018000004000011000003000000000000000000000000000000000000000000000000000000000000000000          US Senator                                              UNDER VOTES                           Box 103                                                01 
00050070004000011000000000004000007000000000000000000000000000000000000000000000000000000000000000000          US Senator                                              UNDER VOTES                           Box 104                                                01 
00050070005000020000002000013000005000000000000000000000000000000000000000000000000000000000000000000          US Senator                                              UNDER VOTES                           Box 205                                                01 
00050070006000023000001000020000002000000000000000000000000000000000000000000000000000000000000000000          US Senator                                              UNDER VOTES                           Box 206                                                01 
00050070007000018000000000013000005000000000000000000000000000000000000000000000000000000000000000000          US Senator                                              UNDER VOTES                           Box 207                                                01 
00050070008000019000002000012000005000000000000000000000000000000000000000000000000000000000000000000          US Senator                                              UNDER VOTES                           Box 311                                                01 
00050070009000015000000000013000002000000000000000000000000000000000000000000000000000000000000000000          US Senator                                              UNDER VOTES                           Box 312                                                01 
00050070010000019000001000010000008000000000000000000000000000000000000000000000000000000000000000000          US Senator                                              UNDER VOTES                           Box 313                                                01 
00050070011000017000003000007000007000000000000000000000000000000000000000000000000000000000000000000          US Senator                                              UNDER VOTES                           Box 414                                                01 
00050070012000018000000000015000003000000000000000000000000000000000000000000000000000000000000000000          US Senator                                              UNDER VOTES                           Box 415                                                01 
00050070013000013000000000010000003000000000000000000000000000000000000000000000000000000000000000000          US Senator                                              UNDER VOTES                           Box 416                                                01 
00060010001001878000049001553000276000000000000000000000000000000000000000000000000000000000000000000REPURE001 US Representative, Dist 15                              REP Monica De La Cruz                 Box 101                       District 15              01 
00060010002000835000018000668000149000000000000000000000000000000000000000000000000000000000000000000REPURE001 US Representative, Dist 15                              REP Monica De La Cruz                 Box 102                       District 15              01 
00060010003000909000029000686000194000000000000000000000000000000000000000000000000000000000000000000REPURE001 US Representative, Dist 15                              REP Monica De La Cruz                 Box 103                       District 15              01 
00060010004000735000022000545000168000000000000000000000000000000000000000000000000000000000000000000REPURE001 US Representative, Dist 15                              REP Monica De La Cruz                 Box 104                       District 15              01 
00060010005001901000031001332000538000000000000000000000000000000000000000000000000000000000000000000REPURE001 US Representative, Dist 15                              REP Monica De La Cruz                 Box 205                       District 15              01 
00060010006001078000039000874000165000000000000000000000000000000000000000000000000000000000000000000REPURE001 US Representative, Dist 15                              REP Monica De La Cruz                 Box 206                       District 15              01 
00060010007001852000043001587000222000000000000000000000000000000000000000000000000000000000000000000REPURE001 US Representative, Dist 15                              REP Monica De La Cruz                 Box 207                       District 15              01 
00060010008001861000044001601000216000000000000000000000000000000000000000000000000000000000000000000REPURE001 US Representative, Dist 15                              REP Monica De La Cruz                 Box 311                       District 15              01 
00060010009001816000028001563000225000000000000000000000000000000000000000000000000000000000000000000REPURE001 US Representative, Dist 15                              REP Monica De La Cruz                 Box 312                       District 15              01 
00060010010002472000035002050000387000000000000000000000000000000000000000000000000000000000000000000REPURE001 US Representative, Dist 15                              REP Monica De La Cruz                 Box 313                       District 15              01 
00060010011001890000036001208000646000000000000000000000000000000000000000000000000000000000000000000REPURE001 US Representative, Dist 15                              REP Monica De La Cruz                 Box 414                       District 15              01 
00060010012002202000049001846000307000000000000000000000000000000000000000000000000000000000000000000REPURE001 US Representative, Dist 15                              REP Monica De La Cruz                 Box 415                       District 15              01 
00060010013001357000037001098000222000000000000000000000000000000000000000000000000000000000000000000REPURE001 US Representative, Dist 15                              REP Monica De La Cruz                 Box 416                       District 15              01 
00060020001000822000055000622000145000000000000000000000000000000000000000000000000000000000000000000DEMURE001 US Representative, Dist 15                              DEM Michelle Vallejo                  Box 101                       District 15              01 
00060020002000653000075000467000111000000000000000000000000000000000000000000000000000000000000000000DEMURE001 US Representative, Dist 15                              DEM Michelle Vallejo                  Box 102                       District 15              01 
00060020003000431000058000291000082000000000000000000000000000000000000000000000000000000000000000000DEMURE001 US Representative, Dist 15                              DEM Michelle Vallejo                  Box 103                       District 15              01 
00060020004000225000008000151000066000000000000000000000000000000000000000000000000000000000000000000DEMURE001 US Representative, Dist 15                              DEM Michelle Vallejo                  Box 104                       District 15              01 
00060020005000346000024000228000094000000000000000000000000000000000000000000000000000000000000000000DEMURE001 US Representative, Dist 15                              DEM Michelle Vallejo                  Box 205                       District 15              01 
00060020006000557000060000410000087000000000000000000000000000000000000000000000000000000000000000000DEMURE001 US Representative, Dist 15                              DEM Michelle Vallejo                  Box 206                       District 15              01 
00060020007000623000029000511000083000000000000000000000000000000000000000000000000000000000000000000DEMURE001 US Representative, Dist 15                              DEM Michelle Vallejo                  Box 207                       District 15              01 
00060020008000289000032000218000039000000000000000000000000000000000000000000000000000000000000000000DEMURE001 US Representative, Dist 15                              DEM Michelle Vallejo                  Box 311                       District 15              01 
00060020009000329000031000246000052000000000000000000000000000000000000000000000000000000000000000000DEMURE001 US Representative, Dist 15                              DEM Michelle Vallejo                  Box 312                       District 15              01 
00060020010000493000036000341000116000000000000000000000000000000000000000000000000000000000000000000DEMURE001 US Representative, Dist 15                              DEM Michelle Vallejo                  Box 313                       District 15              01 
00060020011000343000037000187000119000000000000000000000000000000000000000000000000000000000000000000DEMURE001 US Representative, Dist 15                              DEM Michelle Vallejo                  Box 414                       District 15              01 
00060020012000556000032000453000071000000000000000000000000000000000000000000000000000000000000000000DEMURE001 US Representative, Dist 15                              DEM Michelle Vallejo                  Box 415                       District 15              01 
00060020013000309000021000233000055000000000000000000000000000000000000000000000000000000000000000000DEMURE001 US Representative, Dist 15                              DEM Michelle Vallejo                  Box 416                       District 15              01 
00060030001000000000000000000000000000000000000000000000000000000000000000000000000000000000000000000   URE001 US Representative, Dist 15                              OVER VOTES                            Box 101                       District 15              01 
00060030002000000000000000000000000000000000000000000000000000000000000000000000000000000000000000000   URE001 US Representative, Dist 15                              OVER VOTES                            Box 102                       District 15              01 
00060030003000000000000000000000000000000000000000000000000000000000000000000000000000000000000000000   URE001 US Representative, Dist 15                              OVER VOTES                            Box 103                       District 15              01 
00060030004000000000000000000000000000000000000000000000000000000000000000000000000000000000000000000   URE001 US Representative, Dist 15                              OVER VOTES                            Box 104                       District 15              01 
00060030005000000000000000000000000000000000000000000000000000000000000000000000000000000000000000000   URE001 US Representative, Dist 15                              OVER VOTES                            Box 205                       District 15              01 
00060030006000001000000000001000000000000000000000000000000000000000000000000000000000000000000000000   URE001 US Representative, Dist 15                              OVER VOTES                            Box 206                       District 15              01 
00060030007000000000000000000000000000000000000000000000000000000000000000000000000000000000000000000   URE001 US Representative, Dist 15                              OVER VOTES                            Box 207                       District 15              01 
00060030008000000000000000000000000000000000000000000000000000000000000000000000000000000000000000000   URE001 US Representative, Dist 15                              OVER VOTES                            Box 311                       District 15              01 
00060030009000000000000000000000000000000000000000000000000000000000000000000000000000000000000000000   URE001 US Representative, Dist 15                              OVER VOTES                            Box 312                       District 15              01 
00060030010000000000000000000000000000000000000000000000000000000000000000000000000000000000000000000   URE001 US Representative, Dist 15                              OVER VOTES                            Box 313                       District 15              01 
00060030011000000000000000000000000000000000000000000000000000000000000000000000000000000000000000000   URE001 US Representative, Dist 15                              OVER VOTES                            Box 414                       District 15              01 
00060030012000001000000000001000000000000000000000000000000000000000000000000000000000000000000000000   URE001 US Representative, Dist 15                              OVER VOTES                            Box 415                       District 15              01 
00060030013000000000000000000000000000000000000000000000000000000000000000000000000000000000000000000   URE001 US Representative, Dist 15                              OVER VOTES                            Box 416                       District 15              01 
00060040001000056000001000044000011000000000000000000000000000000000000000000000000000000000000000000   URE001 US Representative, Dist 15                              UNDER VOTES                           Box 101                       District 15              01 
00060040002000047000001000039000007000000000000000000000000000000000000000000000000000000000000000000   URE001 US Representative, Dist 15                              UNDER VOTES                           Box 102                       District 15              01 
00060040003000049000003000040000006000000000000000000000000000000000000000000000000000000000000000000   URE001 US Representative, Dist 15                              UNDER VOTES                           Box 103                       District 15              01 
00060040004000033000000000022000011000000000000000000000000000000000000000000000000000000000000000000   URE001 US Representative, Dist 15                              UNDER VOTES                           Box 104                       District 15              01 
00060040005000057000003000039000015000000000000000000000000000000000000000000000000000000000000000000   URE001 US Representative, Dist 15                              UNDER VOTES                           Box 205                       District 15              01 
00060040006000052000004000046000002000000000000000000000000000000000000000000000000000000000000000000   URE001 US Representative, Dist 15                              UNDER VOTES                           Box 206                       District 15              01 
00060040007000064000002000054000008000000000000000000000000000000000000000000000000000000000000000000   URE001 US Representative, Dist 15                              UNDER VOTES                           Box 207                       District 15              01 
00060040008000046000005000036000005000000000000000000000000000000000000000000000000000000000000000000   URE001 US Representative, Dist 15                              UNDER VOTES                           Box 311                       District 15              01 
00060040009000038000002000033000003000000000000000000000000000000000000000000000000000000000000000000   URE001 US Representative, Dist 15                              UNDER VOTES                           Box 312                       District 15              01 
00060040010000064000001000047000016000000000000000000000000000000000000000000000000000000000000000000   URE001 US Representative, Dist 15                              UNDER VOTES                           Box 313                       District 15              01 
00060040011000047000002000030000015000000000000000000000000000000000000000000000000000000000000000000   URE001 US Representative, Dist 15                              UNDER VOTES                           Box 414                       District 15              01 
00060040012000053000000000043000010000000000000000000000000000000000000000000000000000000000000000000   URE001 US Representative, Dist 15                              UNDER VOTES                           Box 415                       District 15              01 
00060040013000046000001000033000012000000000000000000000000000000000000000000000000000000000000000000   URE001 US Representative, Dist 15                              UNDER VOTES                           Box 416                       District 15              01 
00070010001001817000048001505000264000000000000000000000000000000000000000000000000000000000000000000REP       Railroad Commissioner                                   REP Christi Craddick                  Box 101                                                01 
00070010002000793000016000637000140000000000000000000000000000000000000000000000000000000000000000000REP       Railroad Commissioner                                   REP Christi Craddick                  Box 102                                                01 
00070010003000877000024000682000171000000000000000000000000000000000000000000000000000000000000000000REP       Railroad Commissioner                                   REP Christi Craddick                  Box 103                                                01 
00070010004000695000021000521000153000000000000000000000000000000000000000000000000000000000000000000REP       Railroad Commissioner                                   REP Christi Craddick                  Box 104                                                01 
00070010005001831000031001294000506000000000000000000000000000000000000000000000000000000000000000000REP       Railroad Commissioner                                   REP Christi Craddick                  Box 205                                                01 
00070010006001034000038000843000153000000000000000000000000000000000000000000000000000000000000000000REP       Railroad Commissioner                                   REP Christi Craddick                  Box 206                                                01 
00070010007001786000039001545000202000000000000000000000000000000000000000000000000000000000000000000REP       Railroad Commissioner                                   REP Christi Craddick                  Box 207                                                01 
00070010008001800000041001558000201000000000000000000000000000000000000000000000000000000000000000000REP       Railroad Commissioner                                   REP Christi Craddick                  Box 311                                                01 
00070010009001769000031001535000203000000000000000000000000000000000000000000000000000000000000000000REP       Railroad Commissioner                                   REP Christi Craddick                  Box 312                                                01 
00070010010002385000034001978000373000000000000000000000000000000000000000000000000000000000000000000REP       Railroad Commissioner                                   REP Christi Craddick                  Box 313                                                01 
00070010011001813000033001172000608000000000000000000000000000000000000000000000000000000000000000000REP       Railroad Commissioner                                   REP Christi Craddick                  Box 414                                                01 
00070010012002138000046001806000286000000000000000000000000000000000000000000000000000000000000000000REP       Railroad Commissioner                                   REP Christi Craddick                  Box 415                                                01 
00070010013001329000035001088000206000000000000000000000000000000000000000000000000000000000000000000REP       Railroad Commissioner                                   REP Christi Craddick                  Box 416                                                01 
00070020001000753000053000573000127000000000000000000000000000000000000000000000000000000000000000000DEM       Railroad Commissioner                                   DEM Katherine Culbert                 Box 101                                                01 
00070020002000590000074000428000088000000000000000000000000000000000000000000000000000000000000000000DEM       Railroad Commissioner                                   DEM Katherine Culbert                 Box 102                                                01 
00070020003000394000061000262000071000000000000000000000000000000000000000000000000000000000000000000DEM       Railroad Commissioner                                   DEM Katherine Culbert                 Box 103                                                01 
00070020004000205000008000142000055000000000000000000000000000000000000000000000000000000000000000000DEM       Railroad Commissioner                                   DEM Katherine Culbert                 Box 104                                                01 
00070020005000330000022000218000090000000000000000000000000000000000000000000000000000000000000000000DEM       Railroad Commissioner                                   DEM Katherine Culbert                 Box 205                                                01 
00070020006000511000056000380000075000000000000000000000000000000000000000000000000000000000000000000DEM       Railroad Commissioner                                   DEM Katherine Culbert                 Box 206                                                01 
00070020007000591000029000483000079000000000000000000000000000000000000000000000000000000000000000000DEM       Railroad Commissioner                                   DEM Katherine Culbert                 Box 207                                                01 
00070020008000260000032000198000030000000000000000000000000000000000000000000000000000000000000000000DEM       Railroad Commissioner                                   DEM Katherine Culbert                 Box 311                                                01 
00070020009000291000026000219000046000000000000000000000000000000000000000000000000000000000000000000DEM       Railroad Commissioner                                   DEM Katherine Culbert                 Box 312                                                01 
00070020010000439000033000314000092000000000000000000000000000000000000000000000000000000000000000000DEM       Railroad Commissioner                                   DEM Katherine Culbert                 Box 313                                                01 
00070020011000321000036000171000114000000000000000000000000000000000000000000000000000000000000000000DEM       Railroad Commissioner                                   DEM Katherine Culbert                 Box 414                                                01 
00070020012000503000027000415000061000000000000000000000000000000000000000000000000000000000000000000DEM       Railroad Commissioner                                   DEM Katherine Culbert                 Box 415                                                01 
00070020013000287000021000221000045000000000000000000000000000000000000000000000000000000000000000000DEM       Railroad Commissioner                                   DEM Katherine Culbert                 Box 416                                                01 
00070030001000070000000000057000013000000000000000000000000000000000000000000000000000000000000000000LIB       Railroad Commissioner                                   LIB Hawk Dunlap                       Box 101                                                01 
00070030002000041000000000035000006000000000000000000000000000000000000000000000000000000000000000000LIB       Railroad Commissioner                                   LIB Hawk Dunlap                       Box 102                                                01 
00070030003000039000002000025000012000000000000000000000000000000000000000000000000000000000000000000LIB       Railroad Commissioner                                   LIB Hawk Dunlap                       Box 103                                                01 
00070030004000036000001000021000014000000000000000000000000000000000000000000000000000000000000000000LIB       Railroad Commissioner                                   LIB Hawk Dunlap                       Box 104                                                01 
00070030005000042000002000025000015000000000000000000000000000000000000000000000000000000000000000000LIB       Railroad Commissioner                                   LIB Hawk Dunlap                       Box 205                                                01 
00070030006000028000001000021000006000000000000000000000000000000000000000000000000000000000000000000LIB       Railroad Commissioner                                   LIB Hawk Dunlap                       Box 206                                                01 
00070030007000060000002000051000007000000000000000000000000000000000000000000000000000000000000000000LIB       Railroad Commissioner                                   LIB Hawk Dunlap                       Box 207                                                01 
00070030008000058000002000046000010000000000000000000000000000000000000000000000000000000000000000000LIB       Railroad Commissioner                                   LIB Hawk Dunlap                       Box 311                                                01 
00070030009000053000000000035000018000000000000000000000000000000000000000000000000000000000000000000LIB       Railroad Commissioner                                   LIB Hawk Dunlap                       Box 312                                                01 
00070030010000076000001000061000014000000000000000000000000000000000000000000000000000000000000000000LIB       Railroad Commissioner                                   LIB Hawk Dunlap                       Box 313                                                01 
00070030011000058000000000039000019000000000000000000000000000000000000000000000000000000000000000000LIB       Railroad Commissioner                                   LIB Hawk Dunlap                       Box 414                                                01 
00070030012000080000004000055000021000000000000000000000000000000000000000000000000000000000000000000LIB       Railroad Commissioner                                   LIB Hawk Dunlap                       Box 415                                                01 
00070030013000039000001000020000018000000000000000000000000000000000000000000000000000000000000000000LIB       Railroad Commissioner                                   LIB Hawk Dunlap                       Box 416                                                01 
00070040001000047000000000033000014000000000000000000000000000000000000000000000000000000000000000000GRN       Railroad Commissioner                                   GRN Eddie Espinoza                    Box 101                                                01 
00070040002000038000002000022000014000000000000000000000000000000000000000000000000000000000000000000GRN       Railroad Commissioner                                   GRN Eddie Espinoza                    Box 102                                                01 
00070040003000037000000000025000012000000000000000000000000000000000000000000000000000000000000000000GRN       Railroad Commissioner                                   GRN Eddie Espinoza                    Box 103                                                01 
00070040004000013000000000010000003000000000000000000000000000000000000000000000000000000000000000000GRN       Railroad Commissioner                                   GRN Eddie Espinoza                    Box 104                                                01 
00070040005000018000000000010000008000000000000000000000000000000000000000000000000000000000000000000GRN       Railroad Commissioner                                   GRN Eddie Espinoza                    Box 205                                                01 
00070040006000037000000000024000013000000000000000000000000000000000000000000000000000000000000000000GRN       Railroad Commissioner                                   GRN Eddie Espinoza                    Box 206                                                01 
00070040007000043000002000030000011000000000000000000000000000000000000000000000000000000000000000000GRN       Railroad Commissioner                                   GRN Eddie Espinoza                    Box 207                                                01 
00070040008000019000001000011000007000000000000000000000000000000000000000000000000000000000000000000GRN       Railroad Commissioner                                   GRN Eddie Espinoza                    Box 311                                                01 
00070040009000018000002000014000002000000000000000000000000000000000000000000000000000000000000000000GRN       Railroad Commissioner                                   GRN Eddie Espinoza                    Box 312                                                01 
00070040010000043000002000025000016000000000000000000000000000000000000000000000000000000000000000000GRN       Railroad Commissioner                                   GRN Eddie Espinoza                    Box 313                                                01 
00070040011000031000000000015000016000000000000000000000000000000000000000000000000000000000000000000GRN       Railroad Commissioner                                   GRN Eddie Espinoza                    Box 414                                                01 
00070040012000024000001000020000003000000000000000000000000000000000000000000000000000000000000000000GRN       Railroad Commissioner                                   GRN Eddie Espinoza                    Box 415                                                01 
00070040013000017000000000011000006000000000000000000000000000000000000000000000000000000000000000000GRN       Railroad Commissioner                                   GRN Eddie Espinoza                    Box 416                                                01 
00070060001000003000000000003000000000000000000000000000000000000000000000000000000000000000000000000NON       Railroad Commissioner                                   Write-in                              Box 101                                                01 
00070060002000005000000000004000001000000000000000000000000000000000000000000000000000000000000000000NON       Railroad Commissioner                                   Write-in                              Box 102                                                01 
00070060003000001000000000001000000000000000000000000000000000000000000000000000000000000000000000000NON       Railroad Commissioner                                   Write-in                              Box 103                                                01 
00070060004000000000000000000000000000000000000000000000000000000000000000000000000000000000000000000NON       Railroad Commissioner                                   Write-in                              Box 104                                                01 
00070060005000003000000000003000000000000000000000000000000000000000000000000000000000000000000000000NON       Railroad Commissioner                                   Write-in                              Box 205                                                01 
00070060006000001000000000001000000000000000000000000000000000000000000000000000000000000000000000000NON       Railroad Commissioner                                   Write-in                              Box 206                                                01 
00070060007000005000000000002000003000000000000000000000000000000000000000000000000000000000000000000NON       Railroad Commissioner                                   Write-in                              Box 207                                                01 
00070060008000002000000000001000001000000000000000000000000000000000000000000000000000000000000000000NON       Railroad Commissioner                                   Write-in                              Box 311                                                01 
00070060009000000000000000000000000000000000000000000000000000000000000000000000000000000000000000000NON       Railroad Commissioner                                   Write-in                              Box 312                                                01 
00070060010000004000000000003000001000000000000000000000000000000000000000000000000000000000000000000NON       Railroad Commissioner                                   Write-in                              Box 313                                                01 
00070060011000001000000000001000000000000000000000000000000000000000000000000000000000000000000000000NON       Railroad Commissioner                                   Write-in                              Box 414                                                01 
00070060012000000000000000000000000000000000000000000000000000000000000000000000000000000000000000000NON       Railroad Commissioner                                   Write-in                              Box 415                                                01 
00070060013000002000000000001000001000000000000000000000000000000000000000000000000000000000000000000NON       Railroad Commissioner                                   Write-in                              Box 416                                                01 
00070070001000001000000000001000000000000000000000000000000000000000000000000000000000000000000000000          Railroad Commissioner                                   OVER VOTES                            Box 101                                                01 
00070070002000003000000000002000001000000000000000000000000000000000000000000000000000000000000000000          Railroad Commissioner                                   OVER VOTES                            Box 102                                                01 
00070070003000001000000000001000000000000000000000000000000000000000000000000000000000000000000000000          Railroad Commissioner                                   OVER VOTES                            Box 103                                                01 
00070070004000000000000000000000000000000000000000000000000000000000000000000000000000000000000000000          Railroad Commissioner                                   OVER VOTES                            Box 104                                                01 
00070070005000001000000000001000000000000000000000000000000000000000000000000000000000000000000000000          Railroad Commissioner                                   OVER VOTES                            Box 205                                                01 
00070070006000003000000000003000000000000000000000000000000000000000000000000000000000000000000000000          Railroad Commissioner                                   OVER VOTES                            Box 206                                                01 
00070070007000003000000000002000001000000000000000000000000000000000000000000000000000000000000000000          Railroad Commissioner                                   OVER VOTES                            Box 207                                                01 
00070070008000000000000000000000000000000000000000000000000000000000000000000000000000000000000000000          Railroad Commissioner                                   OVER VOTES                            Box 311                                                01 
00070070009000000000000000000000000000000000000000000000000000000000000000000000000000000000000000000          Railroad Commissioner                                   OVER VOTES                            Box 312                                                01 
00070070010000001000000000001000000000000000000000000000000000000000000000000000000000000000000000000          Railroad Commissioner                                   OVER VOTES                            Box 313                                                01 
00070070011000002000000000002000000000000000000000000000000000000000000000000000000000000000000000000          Railroad Commissioner                                   OVER VOTES                            Box 414                                                01 
00070070012000001000000000001000000000000000000000000000000000000000000000000000000000000000000000000          Railroad Commissioner                                   OVER VOTES                            Box 415                                                01 
00070070013000000000000000000000000000000000000000000000000000000000000000000000000000000000000000000          Railroad Commissioner                                   OVER VOTES                            Box 416                                                01 
00070080001000065000004000047000014000000000000000000000000000000000000000000000000000000000000000000          Railroad Commissioner                                   UNDER VOTES                           Box 101                                                01 
00070080002000065000002000046000017000000000000000000000000000000000000000000000000000000000000000000          Railroad Commissioner                                   UNDER VOTES                           Box 102                                                01 
00070080003000040000003000021000016000000000000000000000000000000000000000000000000000000000000000000          Railroad Commissioner                                   UNDER VOTES                           Box 103                                                01 
00070080004000044000000000024000020000000000000000000000000000000000000000000000000000000000000000000          Railroad Commissioner                                   UNDER VOTES                           Box 104                                                01 
00070080005000079000003000048000028000000000000000000000000000000000000000000000000000000000000000000          Railroad Commissioner                                   UNDER VOTES                           Box 205                                                01 
00070080006000074000008000059000007000000000000000000000000000000000000000000000000000000000000000000          Railroad Commissioner                                   UNDER VOTES                           Box 206                                                01 
00070080007000051000002000039000010000000000000000000000000000000000000000000000000000000000000000000          Railroad Commissioner                                   UNDER VOTES                           Box 207                                                01 
00070080008000057000005000041000011000000000000000000000000000000000000000000000000000000000000000000          Railroad Commissioner                                   UNDER VOTES                           Box 311                                                01 
00070080009000052000002000039000011000000000000000000000000000000000000000000000000000000000000000000          Railroad Commissioner                                   UNDER VOTES                           Box 312                                                01 
00070080010000081000002000056000023000000000000000000000000000000000000000000000000000000000000000000          Railroad Commissioner                                   UNDER VOTES                           Box 313                                                01 
00070080011000054000006000025000023000000000000000000000000000000000000000000000000000000000000000000          Railroad Commissioner                                   UNDER VOTES                           Box 414                                                01 
00070080012000066000003000046000017000000000000000000000000000000000000000000000000000000000000000000          Railroad Commissioner                                   UNDER VOTES                           Box 415                                                01 
00070080013000038000002000023000013000000000000000000000000000000000000000000000000000000000000000000          Railroad Commissioner                                   UNDER VOTES                           Box 416                                                01 
00080010001001868000048001548000272000000000000000000000000000000000000000000000000000000000000000000REP       Justice, Supreme Court, Pl 2                            REP Jimmy Blacklock                   Box 101                                                01 
00080010002000831000017000666000148000000000000000000000000000000000000000000000000000000000000000000REP       Justice, Supreme Court, Pl 2                            REP Jimmy Blacklock                   Box 102                                                01 
00080010003000923000025000708000190000000000000000000000000000000000000000000000000000000000000000000REP       Justice, Supreme Court, Pl 2                            REP Jimmy Blacklock                   Box 103                                                01 
00080010004000731000022000544000165000000000000000000000000000000000000000000000000000000000000000000REP       Justice, Supreme Court, Pl 2                            REP Jimmy Blacklock                   Box 104                                                01 
00080010005001867000030001319000518000000000000000000000000000000000000000000000000000000000000000000REP       Justice, Supreme Court, Pl 2                            REP Jimmy Blacklock                   Box 205                                                01 
00080010006001082000038000881000163000000000000000000000000000000000000000000000000000000000000000000REP       Justice, Supreme Court, Pl 2                            REP Jimmy Blacklock                   Box 206                                                01 
00080010007001857000042001596000219000000000000000000000000000000000000000000000000000000000000000000REP       Justice, Supreme Court, Pl 2                            REP Jimmy Blacklock                   Box 207                                                01 
00080010008001847000045001592000210000000000000000000000000000000000000000000000000000000000000000000REP       Justice, Supreme Court, Pl 2                            REP Jimmy Blacklock                   Box 311                                                01 
00080010009001816000029001566000221000000000000000000000000000000000000000000000000000000000000000000REP       Justice, Supreme Court, Pl 2                            REP Jimmy Blacklock                   Box 312                                                01 
00080010010002460000034002032000394000000000000000000000000000000000000000000000000000000000000000000REP       Justice, Supreme Court, Pl 2                            REP Jimmy Blacklock                   Box 313                                                01 
00080010011001870000034001210000626000000000000000000000000000000000000000000000000000000000000000000REP       Justice, Supreme Court, Pl 2                            REP Jimmy Blacklock                   Box 414                                                01 
00080010012002215000048001860000307000000000000000000000000000000000000000000000000000000000000000000REP       Justice, Supreme Court, Pl 2                            REP Jimmy Blacklock                   Box 415                                                01 
00080010013001363000037001106000220000000000000000000000000000000000000000000000000000000000000000000REP       Justice, Supreme Court, Pl 2                            REP Jimmy Blacklock                   Box 416                                                01 
00080020001000805000052000609000144000000000000000000000000000000000000000000000000000000000000000000DEM       Justice, Supreme Court, Pl 2                            DEM DaSean Jones                      Box 101                                                01 
00080020002000633000076000459000098000000000000000000000000000000000000000000000000000000000000000000DEM       Justice, Supreme Court, Pl 2                            DEM DaSean Jones                      Box 102                                                01 
00080020003000416000061000278000077000000000000000000000000000000000000000000000000000000000000000000DEM       Justice, Supreme Court, Pl 2                            DEM DaSean Jones                      Box 103                                                01 
00080020004000217000008000151000058000000000000000000000000000000000000000000000000000000000000000000DEM       Justice, Supreme Court, Pl 2                            DEM DaSean Jones                      Box 104                                                01 
00080020005000339000024000218000097000000000000000000000000000000000000000000000000000000000000000000DEM       Justice, Supreme Court, Pl 2                            DEM DaSean Jones                      Box 205                                                01 
00080020006000528000058000390000080000000000000000000000000000000000000000000000000000000000000000000DEM       Justice, Supreme Court, Pl 2                            DEM DaSean Jones                      Box 206                                                01 
00080020007000624000030000510000084000000000000000000000000000000000000000000000000000000000000000000DEM       Justice, Supreme Court, Pl 2                            DEM DaSean Jones                      Box 207                                                01 
00080020008000283000031000213000039000000000000000000000000000000000000000000000000000000000000000000DEM       Justice, Supreme Court, Pl 2                            DEM DaSean Jones                      Box 311                                                01 
00080020009000308000029000233000046000000000000000000000000000000000000000000000000000000000000000000DEM       Justice, Supreme Court, Pl 2                            DEM DaSean Jones                      Box 312                                                01 
00080020010000493000036000355000102000000000000000000000000000000000000000000000000000000000000000000DEM       Justice, Supreme Court, Pl 2                            DEM DaSean Jones                      Box 313                                                01 
00080020011000338000036000180000122000000000000000000000000000000000000000000000000000000000000000000DEM       Justice, Supreme Court, Pl 2                            DEM DaSean Jones                      Box 414                                                01 
00080020012000532000029000437000066000000000000000000000000000000000000000000000000000000000000000000DEM       Justice, Supreme Court, Pl 2                            DEM DaSean Jones                      Box 415                                                01 
00080020013000301000019000231000051000000000000000000000000000000000000000000000000000000000000000000DEM       Justice, Supreme Court, Pl 2                            DEM DaSean Jones                      Box 416                                                01 
