01010010001002449000000000000000000000000000000          REGISTERED VOTERS - TOTAL                               REGISTERED VOTERS - TOTAL             PRECINCT 1001                                          00 
01010010002002448000000000000000000000000000000          REGISTERED VOTERS - TOTAL                               REGISTERED VOTERS - TOTAL             PRECINCT 1002                                          00 
01010010003004959000000000000000000000000000000          REGISTERED VOTERS - TOTAL                               REGISTERED VOTERS - TOTAL             PRECINCT 1003                                          00 
01010010004002340000000000000000000000000000000          REGISTERED VOTERS - TOTAL                               REGISTERED VOTERS - TOTAL             PRECINCT 1004                                          00 
01010010005002664000000000000000000000000000000          REGISTERED VOTERS - TOTAL                               REGISTERED VOTERS - TOTAL             PRECINCT 2005                                          00 
01010010006001304000000000000000000000000000000          REGISTERED VOTERS - TOTAL                               REGISTERED VOTERS - TOTAL             PRECINCT 2006                                          00 
01010010007001851000000000000000000000000000000          REGISTERED VOTERS - TOTAL                               REGISTERED VOTERS - TOTAL             PRECINCT 2007                                          00 
01010010008000883000000000000000000000000000000          REGISTERED VOTERS - TOTAL                               REGISTERED VOTERS - TOTAL             PRECINCT 2008                                          00 
01010010009001207000000000000000000000000000000          REGISTERED VOTERS - TOTAL                               REGISTERED VOTERS - TOTAL             PRECINCT 2009                                          00 
01010010010001172000000000000000000000000000000          REGISTERED VOTERS - TOTAL                               REGISTERED VOTERS - TOTAL             PRECINCT 2010                                          00 
01010010011002173000000000000000000000000000000          REGISTERED VOTERS - TOTAL                               REGISTERED VOTERS - TOTAL             PRECINCT 2011                                          00 
01010010012000860000000000000000000000000000000          REGISTERED VOTERS - TOTAL                               REGISTERED VOTERS - TOTAL             PRECINCT 3012                                          00 
01010010013001369000000000000000000000000000000          REGISTERED VOTERS - TOTAL                               REGISTERED VOTERS - TOTAL             PRECINCT 3013                                          00 
01010010014002277000000000000000000000000000000          REGISTERED VOTERS - TOTAL                               REGISTERED VOTERS - TOTAL             PRECINCT 3014                                          00 
01010010015002275000000000000000000000000000000          REGISTERED VOTERS - TOTAL                               REGISTERED VOTERS - TOTAL             PRECINCT 3015                                          00 
01010010016002520000000000000000000000000000000          REGISTERED VOTERS - TOTAL                               REGISTERED VOTERS - TOTAL             PRECINCT 3016                                          00 
01010010017002450000000000000000000000000000000          REGISTERED VOTERS - TOTAL                               REGISTERED VOTERS - TOTAL             PRECINCT 4017                                          00 
01010010018000543000000000000000000000000000000          REGISTERED VOTERS - TOTAL                               REGISTERED VOTERS - TOTAL             PRECINCT 4018                                          00 
01010010019002260000000000000000000000000000000          REGISTERED VOTERS - TOTAL                               REGISTERED VOTERS - TOTAL             PRECINCT 4019                                          00 
01010010020003374000000000000000000000000000000          REGISTERED VOTERS - TOTAL                               REGISTERED VOTERS - TOTAL             PRECINCT 4020                                          00 
01010010021001171000000000000000000000000000000          REGISTERED VOTERS - TOTAL                               REGISTERED VOTERS - TOTAL             PRECINCT 4021                                          00 
01020010001001186000632000554000000000000000000          BALLOTS CAST - TOTAL                                    BALLOTS CAST - TOTAL                  PRECINCT 1001                                          00 
01020010002001048000688000358000002000000000000          BALLOTS CAST - TOTAL                                    BALLOTS CAST - TOTAL                  PRECINCT 1002                                          00 
01020010003002145001275000867000003000000000000          BALLOTS CAST - TOTAL                                    BALLOTS CAST - TOTAL                  PRECINCT 1003                                          00 
01020010004000643000311000332000000000000000000          BALLOTS CAST - TOTAL                                    BALLOTS CAST - TOTAL                  PRECINCT 1004                                          00 
01020010005001109000655000452000002000000000000          BALLOTS CAST - TOTAL                                    BALLOTS CAST - TOTAL                  PRECINCT 2005                                          00 
01020010006000553000252000301000000000000000000          BALLOTS CAST - TOTAL                                    BALLOTS CAST - TOTAL                  PRECINCT 2006                                          00 
01020010007000841000388000451000002000000000000          BALLOTS CAST - TOTAL                                    BALLOTS CAST - TOTAL                  PRECINCT 2007                                          00 
01020010008000410000246000164000000000000000000          BALLOTS CAST - TOTAL                                    BALLOTS CAST - TOTAL                  PRECINCT 2008                                          00 
01020010009000432000253000179000000000000000000          BALLOTS CAST - TOTAL                                    BALLOTS CAST - TOTAL                  PRECINCT 2009                                          00 
01020010010000450000175000275000000000000000000          BALLOTS CAST - TOTAL                                    BALLOTS CAST - TOTAL                  PRECINCT 2010                                          00 
01020010011000852000472000380000000000000000000          BALLOTS CAST - TOTAL                                    BALLOTS CAST - TOTAL                  PRECINCT 2011                                          00 
01020010012000380000191000187000002000000000000          BALLOTS CAST - TOTAL                                    BALLOTS CAST - TOTAL                  PRECINCT 3012                                          00 
01020010013000610000177000433000000000000000000          BALLOTS CAST - TOTAL                                    BALLOTS CAST - TOTAL                  PRECINCT 3013                                          00 
01020010014000729000347000381000001000000000000          BALLOTS CAST - TOTAL                                    BALLOTS CAST - TOTAL                  PRECINCT 3014                                          00 
01020010015000715000379000332000004000000000000          BALLOTS CAST - TOTAL                                    BALLOTS CAST - TOTAL                  PRECINCT 3015                                          00 
01020010016000979000490000488000001000000000000          BALLOTS CAST - TOTAL                                    BALLOTS CAST - TOTAL                  PRECINCT 3016                                          00 
01020010017000916000541000374000001000000000000          BALLOTS CAST - TOTAL                                    BALLOTS CAST - TOTAL                  PRECINCT 4017                                          00 
01020010018000289000147000141000001000000000000          BALLOTS CAST - TOTAL                                    BALLOTS CAST - TOTAL                  PRECINCT 4018                                          00 
01020010019000985000467000517000001000000000000          BALLOTS CAST - TOTAL                                    BALLOTS CAST - TOTAL                  PRECINCT 4019                                          00 
01020010020001295000823000470000002000000000000          BALLOTS CAST - TOTAL                                    BALLOTS CAST - TOTAL                  PRECINCT 4020                                          00 
01020010021000509000188000321000000000000000000          BALLOTS CAST - TOTAL                                    BALLOTS CAST - TOTAL                  PRECINCT 4021                                          00 
01030010001000306000142000164000000000000000000REP       Straight Party                                          Republican Party                      PRECINCT 1001                                          01 
01030010002000153000084000068000001000000000000REP       Straight Party                                          Republican Party                      PRECINCT 1002                                          01 
01030010003000593000357000235000001000000000000REP       Straight Party                                          Republican Party                      PRECINCT 1003                                          01 
01030010004000129000063000066000000000000000000REP       Straight Party                                          Republican Party                      PRECINCT 1004                                          01 
01030010005000293000174000118000001000000000000REP       Straight Party                                          Republican Party                      PRECINCT 2005                                          01 
01030010006000162000078000084000000000000000000REP       Straight Party                                          Republican Party                      PRECINCT 2006                                          01 
01030010007000260000123000135000002000000000000REP       Straight Party                                          Republican Party                      PRECINCT 2007                                          01 
01030010008000116000072000044000000000000000000REP       Straight Party                                          Republican Party                      PRECINCT 2008                                          01 
01030010009000113000063000050000000000000000000REP       Straight Party                                          Republican Party                      PRECINCT 2009                                          01 
01030010010000128000043000085000000000000000000REP       Straight Party                                          Republican Party                      PRECINCT 2010                                          01 
01030010011000187000104000083000000000000000000REP       Straight Party                                          Republican Party                      PRECINCT 2011                                          01 
01030010012000109000059000050000000000000000000REP       Straight Party                                          Republican Party                      PRECINCT 3012                                          01 
01030010013000133000037000096000000000000000000REP       Straight Party                                          Republican Party                      PRECINCT 3013                                          01 
01030010014000166000074000092000000000000000000REP       Straight Party                                          Republican Party                      PRECINCT 3014                                          01 
01030010015000147000083000064000000000000000000REP       Straight Party                                          Republican Party                      PRECINCT 3015                                          01 
01030010016000237000110000127000000000000000000REP       Straight Party                                          Republican Party                      PRECINCT 3016                                          01 
01030010017000185000106000079000000000000000000REP       Straight Party                                          Republican Party                      PRECINCT 4017                                          01 
01030010018000067000033000034000000000000000000REP       Straight Party                                          Republican Party                      PRECINCT 4018                                          01 
01030010019000219000111000108000000000000000000REP       Straight Party                                          Republican Party                      PRECINCT 4019                                          01 
01030010020000239000161000078000000000000000000REP       Straight Party                                          Republican Party                      PRECINCT 4020                                          01 
01030010021000100000030000070000000000000000000REP       Straight Party                                          Republican Party                      PRECINCT 4021                                          01 
01030020001000169000096000073000000000000000000DEM       Straight Party                                          Democratic Party                      PRECINCT 1001                                          01 
01030020002000232000171000060000001000000000000DEM       Straight Party                                          Democratic Party                      PRECINCT 1002                                          01 
01030020003000308000206000101000001000000000000DEM       Straight Party                                          Democratic Party                      PRECINCT 1003                                          01 
01030020004000126000077000049000000000000000000DEM       Straight Party                                          Democratic Party                      PRECINCT 1004                                          01 
01030020005000199000112000086000001000000000000DEM       Straight Party                                          Democratic Party                      PRECINCT 2005                                          01 
01030020006000080000036000044000000000000000000DEM       Straight Party                                          Democratic Party                      PRECINCT 2006                                          01 
01030020007000079000036000043000000000000000000DEM       Straight Party                                          Democratic Party                      PRECINCT 2007                                          01 
01030020008000040000025000015000000000000000000DEM       Straight Party                                          Democratic Party                      PRECINCT 2008                                          01 
01030020009000050000035000015000000000000000000DEM       Straight Party                                          Democratic Party                      PRECINCT 2009                                          01 
01030020010000035000018000017000000000000000000DEM       Straight Party                                          Democratic Party                      PRECINCT 2010                                          01 
01030020011000132000080000052000000000000000000DEM       Straight Party                                          Democratic Party                      PRECINCT 2011                                          01 
01030020012000031000013000016000002000000000000DEM       Straight Party                                          Democratic Party                      PRECINCT 3012                                          01 
01030020013000076000026000050000000000000000000DEM       Straight Party                                          Democratic Party                      PRECINCT 3013                                          01 
01030020014000133000074000058000001000000000000DEM       Straight Party                                          Democratic Party                      PRECINCT 3014                                          01 
01030020015000163000085000076000002000000000000DEM       Straight Party                                          Democratic Party                      PRECINCT 3015                                          01 
01030020016000151000094000057000000000000000000DEM       Straight Party                                          Democratic Party                      PRECINCT 3016                                          01 
01030020017000203000130000072000001000000000000DEM       Straight Party                                          Democratic Party                      PRECINCT 4017                                          01 
01030020018000029000016000013000000000000000000DEM       Straight Party                                          Democratic Party                      PRECINCT 4018                                          01 
01030020019000141000073000068000000000000000000DEM       Straight Party                                          Democratic Party                      PRECINCT 4019                                          01 
01030020020000330000198000131000001000000000000DEM       Straight Party                                          Democratic Party                      PRECINCT 4020                                          01 
01030020021000063000033000030000000000000000000DEM       Straight Party                                          Democratic Party                      PRECINCT 4021                                          01 
01030030001000008000005000003000000000000000000LIB       Straight Party                                          Libertarian Party                     PRECINCT 1001                                          01 
01030030002000007000005000002000000000000000000LIB       Straight Party                                          Libertarian Party                     PRECINCT 1002                                          01 
01030030003000011000002000009000000000000000000LIB       Straight Party                                          Libertarian Party                     PRECINCT 1003                                          01 
01030030004000005000002000003000000000000000000LIB       Straight Party                                          Libertarian Party                     PRECINCT 1004                                          01 
01030030005000003000002000001000000000000000000LIB       Straight Party                                          Libertarian Party                     PRECINCT 2005                                          01 
01030030006000002000001000001000000000000000000LIB       Straight Party                                          Libertarian Party                     PRECINCT 2006                                          01 
01030030007000006000002000004000000000000000000LIB       Straight Party                                          Libertarian Party                     PRECINCT 2007                                          01 
01030030008000004000003000001000000000000000000LIB       Straight Party                                          Libertarian Party                     PRECINCT 2008                                          01 
01030030009000001000001000000000000000000000000LIB       Straight Party                                          Libertarian Party                     PRECINCT 2009                                          01 
01030030010000002000000000002000000000000000000LIB       Straight Party                                          Libertarian Party                     PRECINCT 2010                                          01 
01030030011000001000001000000000000000000000000LIB       Straight Party                                          Libertarian Party                     PRECINCT 2011                                          01 
01030030012000002000000000002000000000000000000LIB       Straight Party                                          Libertarian Party                     PRECINCT 3012                                          01 
01030030013000002000001000001000000000000000000LIB       Straight Party                                          Libertarian Party                     PRECINCT 3013                                          01 
01030030014000003000000000003000000000000000000LIB       Straight Party                                          Libertarian Party                     PRECINCT 3014                                          01 
01030030015000008000005000003000000000000000000LIB       Straight Party                                          Libertarian Party                     PRECINCT 3015                                          01 
01030030016000005000000000005000000000000000000LIB       Straight Party                                          Libertarian Party                     PRECINCT 3016                                          01 
01030030017000003000000000003000000000000000000LIB       Straight Party                                          Libertarian Party                     PRECINCT 4017                                          01 
01030030018000003000001000002000000000000000000LIB       Straight Party                                          Libertarian Party                     PRECINCT 4018                                          01 
01030030019000006000000000006000000000000000000LIB       Straight Party                                          Libertarian Party                     PRECINCT 4019                                          01 
01030030020000007000005000002000000000000000000LIB       Straight Party                                          Libertarian Party                     PRECINCT 4020                                          01 
01030030021000002000000000002000000000000000000LIB       Straight Party                                          Libertarian Party                     PRECINCT 4021                                          01 
01030040001000001000000000001000000000000000000GRN       Straight Party                                          Green Party                           PRECINCT 1001                                          01 
01030040002000001000000000001000000000000000000GRN       Straight Party                                          Green Party                           PRECINCT 1002                                          01 
01030040003000001000000000001000000000000000000GRN       Straight Party                                          Green Party                           PRECINCT 1003                                          01 
01030040004000003000001000002000000000000000000GRN       Straight Party                                          Green Party                           PRECINCT 1004                                          01 
01030040005000001000001000000000000000000000000GRN       Straight Party                                          Green Party                           PRECINCT 2005                                          01 
01030040006000001000000000001000000000000000000GRN       Straight Party                                          Green Party                           PRECINCT 2006                                          01 
01030040007000001000000000001000000000000000000GRN       Straight Party                                          Green Party                           PRECINCT 2007                                          01 
01030040008000000000000000000000000000000000000GRN       Straight Party                                          Green Party                           PRECINCT 2008                                          01 
01030040009000000000000000000000000000000000000GRN       Straight Party                                          Green Party                           PRECINCT 2009                                          01 
01030040010000001000001000000000000000000000000GRN       Straight Party                                          Green Party                           PRECINCT 2010                                          01 
01030040011000000000000000000000000000000000000GRN       Straight Party                                          Green Party                           PRECINCT 2011                                          01 
01030040012000000000000000000000000000000000000GRN       Straight Party                                          Green Party                           PRECINCT 3012                                          01 
01030040013000000000000000000000000000000000000GRN       Straight Party                                          Green Party                           PRECINCT 3013                                          01 
01030040014000001000000000001000000000000000000GRN       Straight Party                                          Green Party                           PRECINCT 3014                                          01 
01030040015000000000000000000000000000000000000GRN       Straight Party                                          Green Party                           PRECINCT 3015                                          01 
01030040016000001000000000001000000000000000000GRN       Straight Party                                          Green Party                           PRECINCT 3016                                          01 
01030040017000001000001000000000000000000000000GRN       Straight Party                                          Green Party                           PRECINCT 4017                                          01 
01030040018000000000000000000000000000000000000GRN       Straight Party                                          Green Party                           PRECINCT 4018                                          01 
01030040019000004000002000002000000000000000000GRN       Straight Party                                          Green Party                           PRECINCT 4019                                          01 
01030040020000000000000000000000000000000000000GRN       Straight Party                                          Green Party                           PRECINCT 4020                                          01 
01030040021000001000000000001000000000000000000GRN       Straight Party                                          Green Party                           PRECINCT 4021                                          01 
01030050001000000000000000000000000000000000000          Straight Party                                          OVER VOTES                            PRECINCT 1001                                          01 
01030050002000000000000000000000000000000000000          Straight Party                                          OVER VOTES                            PRECINCT 1002                                          01 
01030050003000000000000000000000000000000000000          Straight Party                                          OVER VOTES                            PRECINCT 1003                                          01 
01030050004000000000000000000000000000000000000          Straight Party                                          OVER VOTES                            PRECINCT 1004                                          01 
01030050005000000000000000000000000000000000000          Straight Party                                          OVER VOTES                            PRECINCT 2005                                          01 
01030050006000000000000000000000000000000000000          Straight Party                                          OVER VOTES                            PRECINCT 2006                                          01 
01030050007000000000000000000000000000000000000          Straight Party                                          OVER VOTES                            PRECINCT 2007                                          01 
01030050008000000000000000000000000000000000000          Straight Party                                          OVER VOTES                            PRECINCT 2008                                          01 
01030050009000000000000000000000000000000000000          Straight Party                                          OVER VOTES                            PRECINCT 2009                                          01 
01030050010000000000000000000000000000000000000          Straight Party                                          OVER VOTES                            PRECINCT 2010                                          01 
01030050011000000000000000000000000000000000000          Straight Party                                          OVER VOTES                            PRECINCT 2011                                          01 
01030050012000000000000000000000000000000000000          Straight Party                                          OVER VOTES                            PRECINCT 3012                                          01 
01030050013000000000000000000000000000000000000          Straight Party                                          OVER VOTES                            PRECINCT 3013                                          01 
01030050014000000000000000000000000000000000000          Straight Party                                          OVER VOTES                            PRECINCT 3014                                          01 
01030050015000000000000000000000000000000000000          Straight Party                                          OVER VOTES                            PRECINCT 3015                                          01 
01030050016000000000000000000000000000000000000          Straight Party                                          OVER VOTES                            PRECINCT 3016                                          01 
01030050017000000000000000000000000000000000000          Straight Party                                          OVER VOTES                            PRECINCT 4017                                          01 
01030050018000000000000000000000000000000000000          Straight Party                                          OVER VOTES                            PRECINCT 4018                                          01 
01030050019000000000000000000000000000000000000          Straight Party                                          OVER VOTES                            PRECINCT 4019                                          01 
01030050020000000000000000000000000000000000000          Straight Party                                          OVER VOTES                            PRECINCT 4020                                          01 
01030050021000000000000000000000000000000000000          Straight Party                                          OVER VOTES                            PRECINCT 4021                                          01 
01030060001000702000389000313000000000000000000          Straight Party                                          UNDER VOTES                           PRECINCT 1001                                          01 
01030060002000655000428000227000000000000000000          Straight Party                                          UNDER VOTES                           PRECINCT 1002                                          01 
01030060003001230000708000521000001000000000000          Straight Party                                          UNDER VOTES                           PRECINCT 1003                                          01 
01030060004000380000168000212000000000000000000          Straight Party                                          UNDER VOTES                           PRECINCT 1004                                          01 
01030060005000613000366000247000000000000000000          Straight Party                                          UNDER VOTES                           PRECINCT 2005                                          01 
01030060006000308000137000171000000000000000000          Straight Party                                          UNDER VOTES                           PRECINCT 2006                                          01 
01030060007000495000227000268000000000000000000          Straight Party                                          UNDER VOTES                           PRECINCT 2007                                          01 
01030060008000250000146000104000000000000000000          Straight Party                                          UNDER VOTES                           PRECINCT 2008                                          01 
01030060009000268000154000114000000000000000000          Straight Party                                          UNDER VOTES                           PRECINCT 2009                                          01 
01030060010000284000113000171000000000000000000          Straight Party                                          UNDER VOTES                           PRECINCT 2010                                          01 
01030060011000531000286000245000000000000000000          Straight Party                                          UNDER VOTES                           PRECINCT 2011                                          01 
01030060012000238000119000119000000000000000000          Straight Party                                          UNDER VOTES                           PRECINCT 3012                                          01 
01030060013000399000113000286000000000000000000          Straight Party                                          UNDER VOTES                           PRECINCT 3013                                          01 
01030060014000426000199000227000000000000000000          Straight Party                                          UNDER VOTES                           PRECINCT 3014                                          01 
01030060015000397000206000189000002000000000000          Straight Party                                          UNDER VOTES                           PRECINCT 3015                                          01 
01030060016000585000286000298000001000000000000          Straight Party                                          UNDER VOTES                           PRECINCT 3016                                          01 
01030060017000524000304000220000000000000000000          Straight Party                                          UNDER VOTES                           PRECINCT 4017                                          01 
01030060018000190000097000092000001000000000000          Straight Party                                          UNDER VOTES                           PRECINCT 4018                                          01 
01030060019000615000281000333000001000000000000          Straight Party                                          UNDER VOTES                           PRECINCT 4019                                          01 
01030060020000719000459000259000001000000000000          Straight Party                                          UNDER VOTES                           PRECINCT 4020                                          01 
01030060021000343000125000218000000000000000000          Straight Party                                          UNDER VOTES                           PRECINCT 4021                                          01 
01040010001000737000385000352000000000000000000REP       United States Senator                                   John Cornyn                           PRECINCT 1001                                          01 
01040010002000506000317000188000001000000000000REP       United States Senator                                   John Cornyn                           PRECINCT 1002                                          01 
01040010003001326000765000559000002000000000000REP       United States Senator                                   John Cornyn                           PRECINCT 1003                                          01 
01040010004000339000157000182000000000000000000REP       United States Senator                                   John Cornyn                           PRECINCT 1004                                          01 
01040010005000654000392000261000001000000000000REP       United States Senator                                   John Cornyn                           PRECINCT 2005                                          01 
01040010006000346000149000197000000000000000000REP       United States Senator                                   John Cornyn                           PRECINCT 2006                                          01 
01040010007000598000276000320000002000000000000REP       United States Senator                                   John Cornyn                           PRECINCT 2007                                          01 
01040010008000272000157000115000000000000000000REP       United States Senator                                   John Cornyn                           PRECINCT 2008                                          01 
01040010009000266000151000115000000000000000000REP       United States Senator                                   John Cornyn                           PRECINCT 2009                                          01 
01040010010000313000108000205000000000000000000REP       United States Senator                                   John Cornyn                           PRECINCT 2010                                          01 
01040010011000498000269000229000000000000000000REP       United States Senator                                   John Cornyn                           PRECINCT 2011                                          01 
01040010012000272000145000127000000000000000000REP       United States Senator                                   John Cornyn                           PRECINCT 3012                                          01 
01040010013000374000102000272000000000000000000REP       United States Senator                                   John Cornyn                           PRECINCT 3013                                          01 
01040010014000415000191000224000000000000000000REP       United States Senator                                   John Cornyn                           PRECINCT 3014                                          01 
01040010015000372000204000167000001000000000000REP       United States Senator                                   John Cornyn                           PRECINCT 3015                                          01 
01040010016000581000278000303000000000000000000REP       United States Senator                                   John Cornyn                           PRECINCT 3016                                          01 
01040010017000470000267000203000000000000000000REP       United States Senator                                   John Cornyn                           PRECINCT 4017                                          01 
01040010018000193000101000091000001000000000000REP       United States Senator                                   John Cornyn                           PRECINCT 4018                                          01 
01040010019000547000256000290000001000000000000REP       United States Senator                                   John Cornyn                           PRECINCT 4019                                          01 
01040010020000645000423000222000000000000000000REP       United States Senator                                   John Cornyn                           PRECINCT 4020                                          01 
01040010021000303000098000205000000000000000000REP       United States Senator                                   John Cornyn                           PRECINCT 4021                                          01 
01040020001000354000196000158000000000000000000DEM       United States Senator                                   David M. Alameel                      PRECINCT 1001                                          01 
01040020002000445000319000125000001000000000000DEM       United States Senator                                   David M. Alameel                      PRECINCT 1002                                          01 
01040020003000673000431000241000001000000000000DEM       United States Senator                                   David M. Alameel                      PRECINCT 1003                                          01 
01040020004000227000121000106000000000000000000DEM       United States Senator                                   David M. Alameel                      PRECINCT 1004                                          01 
01040020005000388000225000162000001000000000000DEM       United States Senator                                   David M. Alameel                      PRECINCT 2005                                          01 
01040020006000149000080000069000000000000000000DEM       United States Senator                                   David M. Alameel                      PRECINCT 2006                                          01 
01040020007000174000085000089000000000000000000DEM       United States Senator                                   David M. Alameel                      PRECINCT 2007                                          01 
01040020008000106000065000041000000000000000000DEM       United States Senator                                   David M. Alameel                      PRECINCT 2008                                          01 
01040020009000129000085000044000000000000000000DEM       United States Senator                                   David M. Alameel                      PRECINCT 2009                                          01 
01040020010000089000052000037000000000000000000DEM       United States Senator                                   David M. Alameel                      PRECINCT 2010                                          01 
01040020011000283000164000119000000000000000000DEM       United States Senator                                   David M. Alameel                      PRECINCT 2011                                          01 
01040020012000077000036000039000002000000000000DEM       United States Senator                                   David M. Alameel                      PRECINCT 3012                                          01 
01040020013000176000067000109000000000000000000DEM       United States Senator                                   David M. Alameel                      PRECINCT 3013                                          01 
01040020014000259000136000122000001000000000000DEM       United States Senator                                   David M. Alameel                      PRECINCT 3014                                          01 
01040020015000294000151000140000003000000000000DEM       United States Senator                                   David M. Alameel                      PRECINCT 3015                                          01 
01040020016000309000178000130000001000000000000DEM       United States Senator                                   David M. Alameel                      PRECINCT 3016                                          01 
01040020017000372000241000130000001000000000000DEM       United States Senator                                   David M. Alameel                      PRECINCT 4017                                          01 
01040020018000068000034000034000000000000000000DEM       United States Senator                                   David M. Alameel                      PRECINCT 4018                                          01 
01040020019000339000169000170000000000000000000DEM       United States Senator                                   David M. Alameel                      PRECINCT 4019                                          01 
01040020020000520000327000192000001000000000000DEM       United States Senator                                   David M. Alameel                      PRECINCT 4020                                          01 
01040020021000149000068000081000000000000000000DEM       United States Senator                                   David M. Alameel                      PRECINCT 4021                                          01 
01040030001000059000031000028000000000000000000LIB       United States Senator                                   Rebecca Paddock                       PRECINCT 1001                                          01 
01040030002000046000021000025000000000000000000LIB       United States Senator                                   Rebecca Paddock                       PRECINCT 1002                                          01 
01040030003000083000039000044000000000000000000LIB       United States Senator                                   Rebecca Paddock                       PRECINCT 1003                                          01 
01040030004000049000019000030000000000000000000LIB       United States Senator                                   Rebecca Paddock                       PRECINCT 1004                                          01 
01040030005000032000015000017000000000000000000LIB       United States Senator                                   Rebecca Paddock                       PRECINCT 2005                                          01 
01040030006000042000016000026000000000000000000LIB       United States Senator                                   Rebecca Paddock                       PRECINCT 2006                                          01 
01040030007000045000019000026000000000000000000LIB       United States Senator                                   Rebecca Paddock                       PRECINCT 2007                                          01 
01040030008000019000013000006000000000000000000LIB       United States Senator                                   Rebecca Paddock                       PRECINCT 2008                                          01 
01040030009000022000010000012000000000000000000LIB       United States Senator                                   Rebecca Paddock                       PRECINCT 2009                                          01 
01040030010000035000008000027000000000000000000LIB       United States Senator                                   Rebecca Paddock                       PRECINCT 2010                                          01 
01040030011000049000033000016000000000000000000LIB       United States Senator                                   Rebecca Paddock                       PRECINCT 2011                                          01 
01040030012000019000007000012000000000000000000LIB       United States Senator                                   Rebecca Paddock                       PRECINCT 3012                                          01 
01040030013000032000003000029000000000000000000LIB       United States Senator                                   Rebecca Paddock                       PRECINCT 3013                                          01 
01040030014000041000014000027000000000000000000LIB       United States Senator                                   Rebecca Paddock                       PRECINCT 3014                                          01 
01040030015000032000014000018000000000000000000LIB       United States Senator                                   Rebecca Paddock                       PRECINCT 3015                                          01 
01040030016000058000023000035000000000000000000LIB       United States Senator                                   Rebecca Paddock                       PRECINCT 3016                                          01 
01040030017000037000013000024000000000000000000LIB       United States Senator                                   Rebecca Paddock                       PRECINCT 4017                                          01 
01040030018000015000006000009000000000000000000LIB       United States Senator                                   Rebecca Paddock                       PRECINCT 4018                                          01 
01040030019000068000027000041000000000000000000LIB       United States Senator                                   Rebecca Paddock                       PRECINCT 4019                                          01 
01040030020000080000044000036000000000000000000LIB       United States Senator                                   Rebecca Paddock                       PRECINCT 4020                                          01 
01040030021000038000015000023000000000000000000LIB       United States Senator                                   Rebecca Paddock                       PRECINCT 4021                                          01 
01040040001000017000006000011000000000000000000GRN       United States Senator                                   Emily "Spicybrown" Sanchez            PRECINCT 1001                                          01 
01040040002000020000010000010000000000000000000GRN       United States Senator                                   Emily "Spicybrown" Sanchez            PRECINCT 1002                                          01 
01040040003000025000013000012000000000000000000GRN       United States Senator                                   Emily "Spicybrown" Sanchez            PRECINCT 1003                                          01 
01040040004000018000008000010000000000000000000GRN       United States Senator                                   Emily "Spicybrown" Sanchez            PRECINCT 1004                                          01 
01040040005000016000009000007000000000000000000GRN       United States Senator                                   Emily "Spicybrown" Sanchez            PRECINCT 2005                                          01 
01040040006000007000004000003000000000000000000GRN       United States Senator                                   Emily "Spicybrown" Sanchez            PRECINCT 2006                                          01 
01040040007000013000004000009000000000000000000GRN       United States Senator                                   Emily "Spicybrown" Sanchez            PRECINCT 2007                                          01 
01040040008000003000003000000000000000000000000GRN       United States Senator                                   Emily "Spicybrown" Sanchez            PRECINCT 2008                                          01 
01040040009000007000004000003000000000000000000GRN       United States Senator                                   Emily "Spicybrown" Sanchez            PRECINCT 2009                                          01 
01040040010000006000004000002000000000000000000GRN       United States Senator                                   Emily "Spicybrown" Sanchez            PRECINCT 2010                                          01 
01040040011000011000002000009000000000000000000GRN       United States Senator                                   Emily "Spicybrown" Sanchez            PRECINCT 2011                                          01 
01040040012000003000001000002000000000000000000GRN       United States Senator                                   Emily "Spicybrown" Sanchez            PRECINCT 3012                                          01 
01040040013000008000000000008000000000000000000GRN       United States Senator                                   Emily "Spicybrown" Sanchez            PRECINCT 3013                                          01 
01040040014000006000001000005000000000000000000GRN       United States Senator                                   Emily "Spicybrown" Sanchez            PRECINCT 3014                                          01 
01040040015000007000004000003000000000000000000GRN       United States Senator                                   Emily "Spicybrown" Sanchez            PRECINCT 3015                                          01 
01040040016000018000007000011000000000000000000GRN       United States Senator                                   Emily "Spicybrown" Sanchez            PRECINCT 3016                                          01 
01040040017000016000008000008000000000000000000GRN       United States Senator                                   Emily "Spicybrown" Sanchez            PRECINCT 4017                                          01 
01040040018000005000002000003000000000000000000GRN       United States Senator                                   Emily "Spicybrown" Sanchez            PRECINCT 4018                                          01 
01040040019000017000007000010000000000000000000GRN       United States Senator                                   Emily "Spicybrown" Sanchez            PRECINCT 4019                                          01 
01040040020000019000008000010000001000000000000GRN       United States Senator                                   Emily "Spicybrown" Sanchez            PRECINCT 4020                                          01 
01040040021000012000004000008000000000000000000GRN       United States Senator                                   Emily "Spicybrown" Sanchez            PRECINCT 4021                                          01 
01040050001000001000001000000000000000000000000NON       United States Senator                                   WRITE-IN                              PRECINCT 1001                                          01 
01040050002000003000003000000000000000000000000NON       United States Senator                                   WRITE-IN                              PRECINCT 1002                                          01 
01040050003000000000000000000000000000000000000NON       United States Senator                                   WRITE-IN                              PRECINCT 1003                                          01 
01040050004000000000000000000000000000000000000NON       United States Senator                                   WRITE-IN                              PRECINCT 1004                                          01 
01040050005000000000000000000000000000000000000NON       United States Senator                                   WRITE-IN                              PRECINCT 2005                                          01 
01040050006000001000001000000000000000000000000NON       United States Senator                                   WRITE-IN                              PRECINCT 2006                                          01 
01040050007000000000000000000000000000000000000NON       United States Senator                                   WRITE-IN                              PRECINCT 2007                                          01 
01040050008000000000000000000000000000000000000NON       United States Senator                                   WRITE-IN                              PRECINCT 2008                                          01 
01040050009000000000000000000000000000000000000NON       United States Senator                                   WRITE-IN                              PRECINCT 2009                                          01 
01040050010000001000001000000000000000000000000NON       United States Senator                                   WRITE-IN                              PRECINCT 2010                                          01 
01040050011000000000000000000000000000000000000NON       United States Senator                                   WRITE-IN                              PRECINCT 2011                                          01 
01040050012000000000000000000000000000000000000NON       United States Senator                                   WRITE-IN                              PRECINCT 3012                                          01 
01040050013000000000000000000000000000000000000NON       United States Senator                                   WRITE-IN                              PRECINCT 3013                                          01 
01040050014000002000002000000000000000000000000NON       United States Senator                                   WRITE-IN                              PRECINCT 3014                                          01 
01040050015000000000000000000000000000000000000NON       United States Senator                                   WRITE-IN                              PRECINCT 3015                                          01 
01040050016000000000000000000000000000000000000NON       United States Senator                                   WRITE-IN                              PRECINCT 3016                                          01 
01040050017000002000002000000000000000000000000NON       United States Senator                                   WRITE-IN                              PRECINCT 4017                                          01 
01040050018000001000001000000000000000000000000NON       United States Senator                                   WRITE-IN                              PRECINCT 4018                                          01 
01040050019000000000000000000000000000000000000NON       United States Senator                                   WRITE-IN                              PRECINCT 4019                                          01 
01040050020000001000001000000000000000000000000NON       United States Senator                                   WRITE-IN                              PRECINCT 4020                                          01 
01040050021000001000000000001000000000000000000NON       United States Senator                                   WRITE-IN                              PRECINCT 4021                                          01 
01040060001000000000000000000000000000000000000          United States Senator                                   OVER VOTES                            PRECINCT 1001                                          01 
01040060002000000000000000000000000000000000000          United States Senator                                   OVER VOTES                            PRECINCT 1002                                          01 
01040060003000000000000000000000000000000000000          United States Senator                                   OVER VOTES                            PRECINCT 1003                                          01 
01040060004000000000000000000000000000000000000          United States Senator                                   OVER VOTES                            PRECINCT 1004                                          01 
01040060005000000000000000000000000000000000000          United States Senator                                   OVER VOTES                            PRECINCT 2005                                          01 
01040060006000000000000000000000000000000000000          United States Senator                                   OVER VOTES                            PRECINCT 2006                                          01 
01040060007000000000000000000000000000000000000          United States Senator                                   OVER VOTES                            PRECINCT 2007                                          01 
01040060008000000000000000000000000000000000000          United States Senator                                   OVER VOTES                            PRECINCT 2008                                          01 
01040060009000000000000000000000000000000000000          United States Senator                                   OVER VOTES                            PRECINCT 2009                                          01 
01040060010000000000000000000000000000000000000          United States Senator                                   OVER VOTES                            PRECINCT 2010                                          01 
01040060011000000000000000000000000000000000000          United States Senator                                   OVER VOTES                            PRECINCT 2011                                          01 
01040060012000000000000000000000000000000000000          United States Senator                                   OVER VOTES                            PRECINCT 3012                                          01 
01040060013000000000000000000000000000000000000          United States Senator                                   OVER VOTES                            PRECINCT 3013                                          01 
01040060014000000000000000000000000000000000000          United States Senator                                   OVER VOTES                            PRECINCT 3014                                          01 
01040060015000000000000000000000000000000000000          United States Senator                                   OVER VOTES                            PRECINCT 3015                                          01 
01040060016000000000000000000000000000000000000          United States Senator                                   OVER VOTES                            PRECINCT 3016                                          01 
01040060017000000000000000000000000000000000000          United States Senator                                   OVER VOTES                            PRECINCT 4017                                          01 
01040060018000000000000000000000000000000000000          United States Senator                                   OVER VOTES                            PRECINCT 4018                                          01 
01040060019000000000000000000000000000000000000          United States Senator                                   OVER VOTES                            PRECINCT 4019                                          01 
01040060020000000000000000000000000000000000000          United States Senator                                   OVER VOTES                            PRECINCT 4020                                          01 
01040060021000000000000000000000000000000000000          United States Senator                                   OVER VOTES                            PRECINCT 4021                                          01 
01040070001000018000013000005000000000000000000          United States Senator                                   UNDER VOTES                           PRECINCT 1001                                          01 
01040070002000028000018000010000000000000000000          United States Senator                                   UNDER VOTES                           PRECINCT 1002                                          01 
01040070003000037000026000011000000000000000000          United States Senator                                   UNDER VOTES                           PRECINCT 1003                                          01 
01040070004000008000004000004000000000000000000          United States Senator                                   UNDER VOTES                           PRECINCT 1004                                          01 
01040070005000019000014000005000000000000000000          United States Senator                                   UNDER VOTES                           PRECINCT 2005                                          01 
01040070006000007000001000006000000000000000000          United States Senator                                   UNDER VOTES                           PRECINCT 2006                                          01 
01040070007000011000004000007000000000000000000          United States Senator                                   UNDER VOTES                           PRECINCT 2007                                          01 
01040070008000010000008000002000000000000000000          United States Senator                                   UNDER VOTES                           PRECINCT 2008                                          01 
01040070009000008000003000005000000000000000000          United States Senator                                   UNDER VOTES                           PRECINCT 2009                                          01 
01040070010000006000002000004000000000000000000          United States Senator                                   UNDER VOTES                           PRECINCT 2010                                          01 
01040070011000011000004000007000000000000000000          United States Senator                                   UNDER VOTES                           PRECINCT 2011                                          01 
01040070012000009000002000007000000000000000000          United States Senator                                   UNDER VOTES                           PRECINCT 3012                                          01 
01040070013000020000005000015000000000000000000          United States Senator                                   UNDER VOTES                           PRECINCT 3013                                          01 
01040070014000006000003000003000000000000000000          United States Senator                                   UNDER VOTES                           PRECINCT 3014                                          01 
01040070015000010000006000004000000000000000000          United States Senator                                   UNDER VOTES                           PRECINCT 3015                                          01 
01040070016000013000004000009000000000000000000          United States Senator                                   UNDER VOTES                           PRECINCT 3016                                          01 
01040070017000018000009000009000000000000000000          United States Senator                                   UNDER VOTES                           PRECINCT 4017                                          01 
01040070018000007000003000004000000000000000000          United States Senator                                   UNDER VOTES                           PRECINCT 4018                                          01 
01040070019000014000008000006000000000000000000          United States Senator                                   UNDER VOTES                           PRECINCT 4019                                          01 
01040070020000030000020000010000000000000000000          United States Senator                                   UNDER VOTES                           PRECINCT 4020                                          01 
01040070021000006000003000003000000000000000000          United States Senator                                   UNDER VOTES                           PRECINCT 4021                                          01 
01050010001000742000399000343000000000000000000REPUSREP10United States Representative, Dist 10                   Michael McCaul                        PRECINCT 1001                                          01 
01050010002000511000313000197000001000000000000REPUSREP10United States Representative, Dist 10                   Michael McCaul                        PRECINCT 1002                                          01 
01050010004000356000171000185000000000000000000REPUSREP10United States Representative, Dist 10                   Michael McCaul                        PRECINCT 1004                                          01 
01050010005000653000388000264000001000000000000REPUSREP10United States Representative, Dist 10                   Michael McCaul                        PRECINCT 2005                                          01 
01050010006000355000155000200000000000000000000REPUSREP10United States Representative, Dist 10                   Michael McCaul                        PRECINCT 2006                                          01 
01050010009000261000149000112000000000000000000REPUSREP10United States Representative, Dist 10                   Michael McCaul                        PRECINCT 2009                                          01 
01050010010000323000110000213000000000000000000REPUSREP10United States Representative, Dist 10                   Michael McCaul                        PRECINCT 2010                                          01 
01050010011000516000283000233000000000000000000REPUSREP10United States Representative, Dist 10                   Michael McCaul                        PRECINCT 2011                                          01 
01050010017000481000280000201000000000000000000REPUSREP10United States Representative, Dist 10                   Michael McCaul                        PRECINCT 4017                                          01 
01050010019000577000273000303000001000000000000REPUSREP10United States Representative, Dist 10                   Michael McCaul                        PRECINCT 4019                                          01 
01050010020000691000445000246000000000000000000REPUSREP10United States Representative, Dist 10                   Michael McCaul                        PRECINCT 4020                                          01 
01050010021000322000106000216000000000000000000REPUSREP10United States Representative, Dist 10                   Michael McCaul                        PRECINCT 4021                                          01 
01050020001000346000184000162000000000000000000DEMUSREP10United States Representative, Dist 10                   Tawana Walter-Cadien                  PRECINCT 1001                                          01 
01050020002000456000325000130000001000000000000DEMUSREP10United States Representative, Dist 10                   Tawana Walter-Cadien                  PRECINCT 1002                                          01 
01050020004000237000119000118000000000000000000DEMUSREP10United States Representative, Dist 10                   Tawana Walter-Cadien                  PRECINCT 1004                                          01 
01050020005000394000231000162000001000000000000DEMUSREP10United States Representative, Dist 10                   Tawana Walter-Cadien                  PRECINCT 2005                                          01 
01050020006000159000086000073000000000000000000DEMUSREP10United States Representative, Dist 10                   Tawana Walter-Cadien                  PRECINCT 2006                                          01 
01050020009000140000093000047000000000000000000DEMUSREP10United States Representative, Dist 10                   Tawana Walter-Cadien                  PRECINCT 2009                                          01 
01050020010000094000057000037000000000000000000DEMUSREP10United States Representative, Dist 10                   Tawana Walter-Cadien                  PRECINCT 2010                                          01 
01050020011000278000159000119000000000000000000DEMUSREP10United States Representative, Dist 10                   Tawana Walter-Cadien                  PRECINCT 2011                                          01 
01050020017000375000233000141000001000000000000DEMUSREP10United States Representative, Dist 10                   Tawana Walter-Cadien                  PRECINCT 4017                                          01 
01050020019000332000171000161000000000000000000DEMUSREP10United States Representative, Dist 10                   Tawana Walter-Cadien                  PRECINCT 4019                                          01 
01050020020000514000321000191000002000000000000DEMUSREP10United States Representative, Dist 10                   Tawana Walter-Cadien                  PRECINCT 4020                                          01 
01050020021000147000069000078000000000000000000DEMUSREP10United States Representative, Dist 10                   Tawana Walter-Cadien                  PRECINCT 4021                                          01 
01050030001000063000025000038000000000000000000LIBUSREP10United States Representative, Dist 10                   Bill Kelsey                           PRECINCT 1001                                          01 
01050030002000047000025000022000000000000000000LIBUSREP10United States Representative, Dist 10                   Bill Kelsey                           PRECINCT 1002                                          01 
01050030004000039000015000024000000000000000000LIBUSREP10United States Representative, Dist 10                   Bill Kelsey                           PRECINCT 1004                                          01 
01050030005000037000019000018000000000000000000LIBUSREP10United States Representative, Dist 10                   Bill Kelsey                           PRECINCT 2005                                          01 
01050030006000031000007000024000000000000000000LIBUSREP10United States Representative, Dist 10                   Bill Kelsey                           PRECINCT 2006                                          01 
01050030009000019000005000014000000000000000000LIBUSREP10United States Representative, Dist 10                   Bill Kelsey                           PRECINCT 2009                                          01 
01050030010000028000006000022000000000000000000LIBUSREP10United States Representative, Dist 10                   Bill Kelsey                           PRECINCT 2010                                          01 
01050030011000043000023000020000000000000000000LIBUSREP10United States Representative, Dist 10                   Bill Kelsey                           PRECINCT 2011                                          01 
01050030017000037000014000023000000000000000000LIBUSREP10United States Representative, Dist 10                   Bill Kelsey                           PRECINCT 4017                                          01 
01050030019000061000016000045000000000000000000LIBUSREP10United States Representative, Dist 10                   Bill Kelsey                           PRECINCT 4019                                          01 
01050030020000060000034000026000000000000000000LIBUSREP10United States Representative, Dist 10                   Bill Kelsey                           PRECINCT 4020                                          01 
01050030021000034000012000022000000000000000000LIBUSREP10United States Representative, Dist 10                   Bill Kelsey                           PRECINCT 4021                                          01 
01050040001000000000000000000000000000000000000   USREP10United States Representative, Dist 10                   OVER VOTES                            PRECINCT 1001                                          01 
01050040002000000000000000000000000000000000000   USREP10United States Representative, Dist 10                   OVER VOTES                            PRECINCT 1002                                          01 
01050040004000000000000000000000000000000000000   USREP10United States Representative, Dist 10                   OVER VOTES                            PRECINCT 1004                                          01 
01050040005000000000000000000000000000000000000   USREP10United States Representative, Dist 10                   OVER VOTES                            PRECINCT 2005                                          01 
01050040006000000000000000000000000000000000000   USREP10United States Representative, Dist 10                   OVER VOTES                            PRECINCT 2006                                          01 
01050040009000000000000000000000000000000000000   USREP10United States Representative, Dist 10                   OVER VOTES                            PRECINCT 2009                                          01 
01050040010000000000000000000000000000000000000   USREP10United States Representative, Dist 10                   OVER VOTES                            PRECINCT 2010                                          01 
01050040011000000000000000000000000000000000000   USREP10United States Representative, Dist 10                   OVER VOTES                            PRECINCT 2011                                          01 
01050040017000000000000000000000000000000000000   USREP10United States Representative, Dist 10                   OVER VOTES                            PRECINCT 4017                                          01 
01050040019000000000000000000000000000000000000   USREP10United States Representative, Dist 10                   OVER VOTES                            PRECINCT 4019                                          01 
01050040020000000000000000000000000000000000000   USREP10United States Representative, Dist 10                   OVER VOTES                            PRECINCT 4020                                          01 
01050040021000000000000000000000000000000000000   USREP10United States Representative, Dist 10                   OVER VOTES                            PRECINCT 4021                                          01 
01050050001000035000024000011000000000000000000   USREP10United States Representative, Dist 10                   UNDER VOTES                           PRECINCT 1001                                          01 
01050050002000034000025000009000000000000000000   USREP10United States Representative, Dist 10                   UNDER VOTES                           PRECINCT 1002                                          01 
01050050004000009000004000005000000000000000000   USREP10United States Representative, Dist 10                   UNDER VOTES                           PRECINCT 1004                                          01 
01050050005000025000017000008000000000000000000   USREP10United States Representative, Dist 10                   UNDER VOTES                           PRECINCT 2005                                          01 
01050050006000007000003000004000000000000000000   USREP10United States Representative, Dist 10                   UNDER VOTES                           PRECINCT 2006                                          01 
01050050009000012000006000006000000000000000000   USREP10United States Representative, Dist 10                   UNDER VOTES                           PRECINCT 2009                                          01 
01050050010000005000002000003000000000000000000   USREP10United States Representative, Dist 10                   UNDER VOTES                           PRECINCT 2010                                          01 
01050050011000015000007000008000000000000000000   USREP10United States Representative, Dist 10                   UNDER VOTES                           PRECINCT 2011                                          01 
01050050017000022000013000009000000000000000000   USREP10United States Representative, Dist 10                   UNDER VOTES                           PRECINCT 4017                                          01 
01050050019000015000007000008000000000000000000   USREP10United States Representative, Dist 10                   UNDER VOTES                           PRECINCT 4019                                          01 
01050050020000030000023000007000000000000000000   USREP10United States Representative, Dist 10                   UNDER VOTES                           PRECINCT 4020                                          01 
01050050021000006000001000005000000000000000000   USREP10United States Representative, Dist 10                   UNDER VOTES                           PRECINCT 4021                                          01 
01060010018000172000094000078000000000000000000REPUSREP17United States Representative, Dist 17                   Bill Flores                           PRECINCT 4018                                          01 
01060020018000086000041000044000001000000000000DEMUSREP17United States Representative, Dist 17                   Nick Haynes                           PRECINCT 4018                                          01 
01060030018000021000009000012000000000000000000LIBUSREP17United States Representative, Dist 17                   Shawn Michael Hamilton                PRECINCT 4018                                          01 
01060040018000000000000000000000000000000000000   USREP17United States Representative, Dist 17                   OVER VOTES                            PRECINCT 4018                                          01 
01060050018000010000003000007000000000000000000   USREP17United States Representative, Dist 17                   UNDER VOTES                           PRECINCT 4018                                          01 
01070010003001260000726000532000002000000000000REPUSREP27United States Representative, Dist 27                   Blake Farenthold                      PRECINCT 1003                                          01 
01070010007000576000266000308000002000000000000REPUSREP27United States Representative, Dist 27                   Blake Farenthold                      PRECINCT 2007                                          01 
01070010008000257000149000108000000000000000000REPUSREP27United States Representative, Dist 27                   Blake Farenthold                      PRECINCT 2008                                          01 
01070010012000261000144000117000000000000000000REPUSREP27United States Representative, Dist 27                   Blake Farenthold                      PRECINCT 3012                                          01 
01070010013000365000102000263000000000000000000REPUSREP27United States Representative, Dist 27                   Blake Farenthold                      PRECINCT 3013                                          01 
01070010014000399000181000218000000000000000000REPUSREP27United States Representative, Dist 27                   Blake Farenthold                      PRECINCT 3014                                          01 
01070010015000349000199000149000001000000000000REPUSREP27United States Representative, Dist 27                   Blake Farenthold                      PRECINCT 3015                                          01 
01070010016000560000269000291000000000000000000REPUSREP27United States Representative, Dist 27                   Blake Farenthold                      PRECINCT 3016                                          01 
01070020003000734000463000270000001000000000000DEMUSREP27United States Representative, Dist 27                   Wesley Reed                           PRECINCT 1003                                          01 
01070020007000192000092000100000000000000000000DEMUSREP27United States Representative, Dist 27                   Wesley Reed                           PRECINCT 2007                                          01 
01070020008000124000078000046000000000000000000DEMUSREP27United States Representative, Dist 27                   Wesley Reed                           PRECINCT 2008                                          01 
01070020012000086000039000045000002000000000000DEMUSREP27United States Representative, Dist 27                   Wesley Reed                           PRECINCT 3012                                          01 
01070020013000186000065000121000000000000000000DEMUSREP27United States Representative, Dist 27                   Wesley Reed                           PRECINCT 3013                                          01 
01070020014000277000148000128000001000000000000DEMUSREP27United States Representative, Dist 27                   Wesley Reed                           PRECINCT 3014                                          01 
01070020015000316000159000154000003000000000000DEMUSREP27United States Representative, Dist 27                   Wesley Reed                           PRECINCT 3015                                          01 
01070020016000343000192000150000001000000000000DEMUSREP27United States Representative, Dist 27                   Wesley Reed                           PRECINCT 3016                                          01 
01070030003000097000050000047000000000000000000LIBUSREP27United States Representative, Dist 27                   Roxanne Simonson                      PRECINCT 1003                                          01 
01070030007000049000019000030000000000000000000LIBUSREP27United States Representative, Dist 27                   Roxanne Simonson                      PRECINCT 2007                                          01 
01070030008000017000009000008000000000000000000LIBUSREP27United States Representative, Dist 27                   Roxanne Simonson                      PRECINCT 2008                                          01 
01070030012000017000005000012000000000000000000LIBUSREP27United States Representative, Dist 27                   Roxanne Simonson                      PRECINCT 3012                                          01 
01070030013000032000006000026000000000000000000LIBUSREP27United States Representative, Dist 27                   Roxanne Simonson                      PRECINCT 3013                                          01 
01070030014000040000013000027000000000000000000LIBUSREP27United States Representative, Dist 27                   Roxanne Simonson                      PRECINCT 3014                                          01 
01070030015000039000014000025000000000000000000LIBUSREP27United States Representative, Dist 27                   Roxanne Simonson                      PRECINCT 3015                                          01 
01070030016000058000022000036000000000000000000LIBUSREP27United States Representative, Dist 27                   Roxanne Simonson                      PRECINCT 3016                                          01 
01070040003000000000000000000000000000000000000   USREP27United States Representative, Dist 27                   OVER VOTES                            PRECINCT 1003                                          01 
01070040007000000000000000000000000000000000000   USREP27United States Representative, Dist 27                   OVER VOTES                            PRECINCT 2007                                          01 
01070040008000000000000000000000000000000000000   USREP27United States Representative, Dist 27                   OVER VOTES                            PRECINCT 2008                                          01 
01070040012000000000000000000000000000000000000   USREP27United States Representative, Dist 27                   OVER VOTES                            PRECINCT 3012                                          01 
01070040013000000000000000000000000000000000000   USREP27United States Representative, Dist 27                   OVER VOTES                            PRECINCT 3013                                          01 
01070040014000000000000000000000000000000000000   USREP27United States Representative, Dist 27                   OVER VOTES                            PRECINCT 3014                                          01 
01070040015000000000000000000000000000000000000   USREP27United States Representative, Dist 27                   OVER VOTES                            PRECINCT 3015                                          01 
01070040016000000000000000000000000000000000000   USREP27United States Representative, Dist 27                   OVER VOTES                            PRECINCT 3016                                          01 
01070050003000053000035000018000000000000000000   USREP27United States Representative, Dist 27                   UNDER VOTES                           PRECINCT 1003                                          01 
01070050007000024000011000013000000000000000000   USREP27United States Representative, Dist 27                   UNDER VOTES                           PRECINCT 2007                                          01 
01070050008000012000010000002000000000000000000   USREP27United States Representative, Dist 27                   UNDER VOTES                           PRECINCT 2008                                          01 
01070050012000016000003000013000000000000000000   USREP27United States Representative, Dist 27                   UNDER VOTES                           PRECINCT 3012                                          01 
01070050013000027000004000023000000000000000000   USREP27United States Representative, Dist 27                   UNDER VOTES                           PRECINCT 3013                                          01 
01070050014000013000005000008000000000000000000   USREP27United States Representative, Dist 27                   UNDER VOTES                           PRECINCT 3014                                          01 
01070050015000011000007000004000000000000000000   USREP27United States Representative, Dist 27                   UNDER VOTES                           PRECINCT 3015                                          01 
01070050016000018000007000011000000000000000000   USREP27United States Representative, Dist 27                   UNDER VOTES                           PRECINCT 3016                                          01 
01080010001000713000378000335000000000000000000REP       Governor                                                Greg Abbott                           PRECINCT 1001                                          01 
01080010002000473000286000186000001000000000000REP       Governor                                                Greg Abbott                           PRECINCT 1002                                          01 
01080010003001275000741000532000002000000000000REP       Governor                                                Greg Abbott                           PRECINCT 1003                                          01 
01080010004000337000164000173000000000000000000REP       Governor                                                Greg Abbott                           PRECINCT 1004                                          01 
01080010005000620000368000251000001000000000000REP       Governor                                                Greg Abbott                           PRECINCT 2005                                          01 
01080010006000349000149000200000000000000000000REP       Governor                                                Greg Abbott                           PRECINCT 2006                                          01 
01080010007000601000274000325000002000000000000REP       Governor                                                Greg Abbott                           PRECINCT 2007                                          01 
01080010008000252000147000105000000000000000000REP       Governor                                                Greg Abbott                           PRECINCT 2008                                          01 
01080010009000256000143000113000000000000000000REP       Governor                                                Greg Abbott                           PRECINCT 2009                                          01 
01080010010000302000100000202000000000000000000REP       Governor                                                Greg Abbott                           PRECINCT 2010                                          01 
01080010011000493000272000221000000000000000000REP       Governor                                                Greg Abbott                           PRECINCT 2011                                          01 
01080010012000277000144000133000000000000000000REP       Governor                                                Greg Abbott                           PRECINCT 3012                                          01 
01080010013000399000103000296000000000000000000REP       Governor                                                Greg Abbott                           PRECINCT 3013                                          01 
01080010014000403000176000227000000000000000000REP       Governor                                                Greg Abbott                           PRECINCT 3014                                          01 
01080010015000362000202000159000001000000000000REP       Governor                                                Greg Abbott                           PRECINCT 3015                                          01 
01080010016000577000272000305000000000000000000REP       Governor                                                Greg Abbott                           PRECINCT 3016                                          01 
01080010017000444000255000189000000000000000000REP       Governor                                                Greg Abbott                           PRECINCT 4017                                          01 
01080010018000177000097000080000000000000000000REP       Governor                                                Greg Abbott                           PRECINCT 4018                                          01 
01080010019000554000259000294000001000000000000REP       Governor                                                Greg Abbott                           PRECINCT 4019                                          01 
01080010020000643000410000233000000000000000000REP       Governor                                                Greg Abbott                           PRECINCT 4020                                          01 
01080010021000296000094000202000000000000000000REP       Governor                                                Greg Abbott                           PRECINCT 4021                                          01 
01080020001000420000224000196000000000000000000DEM       Governor                                                Wendy R. Davis                        PRECINCT 1001                                          01 
01080020002000529000377000151000001000000000000DEM       Governor                                                Wendy R. Davis                        PRECINCT 1002                                          01 
01080020003000792000499000292000001000000000000DEM       Governor                                                Wendy R. Davis                        PRECINCT 1003                                          01 
01080020004000276000134000142000000000000000000DEM       Governor                                                Wendy R. Davis                        PRECINCT 1004                                          01 
01080020005000460000266000193000001000000000000DEM       Governor                                                Wendy R. Davis                        PRECINCT 2005                                          01 
01080020006000186000095000091000000000000000000DEM       Governor                                                Wendy R. Davis                        PRECINCT 2006                                          01 
01080020007000209000098000111000000000000000000DEM       Governor                                                Wendy R. Davis                        PRECINCT 2007                                          01 
01080020008000138000083000055000000000000000000DEM       Governor                                                Wendy R. Davis                        PRECINCT 2008                                          01 
01080020009000158000104000054000000000000000000DEM       Governor                                                Wendy R. Davis                        PRECINCT 2009                                          01 
01080020010000111000064000047000000000000000000DEM       Governor                                                Wendy R. Davis                        PRECINCT 2010                                          01 
01080020011000332000186000146000000000000000000DEM       Governor                                                Wendy R. Davis                        PRECINCT 2011                                          01 
01080020012000088000041000045000002000000000000DEM       Governor                                                Wendy R. Davis                        PRECINCT 3012                                          01 
01080020013000190000072000118000000000000000000DEM       Governor                                                Wendy R. Davis                        PRECINCT 3013                                          01 
01080020014000295000160000134000001000000000000DEM       Governor                                                Wendy R. Davis                        PRECINCT 3014                                          01 
01080020015000326000166000157000003000000000000DEM       Governor                                                Wendy R. Davis                        PRECINCT 3015                                          01 
01080020016000369000209000160000000000000000000DEM       Governor                                                Wendy R. Davis                        PRECINCT 3016                                          01 
01080020017000433000265000167000001000000000000DEM       Governor                                                Wendy R. Davis                        PRECINCT 4017                                          01 
01080020018000096000044000051000001000000000000DEM       Governor                                                Wendy R. Davis                        PRECINCT 4018                                          01 
01080020019000392000194000198000000000000000000DEM       Governor                                                Wendy R. Davis                        PRECINCT 4019                                          01 
01080020020000592000374000216000002000000000000DEM       Governor                                                Wendy R. Davis                        PRECINCT 4020                                          01 
01080020021000174000083000091000000000000000000DEM       Governor                                                Wendy R. Davis                        PRECINCT 4021                                          01 
01080030001000034000022000012000000000000000000LIB       Governor                                                Kathie Glass                          PRECINCT 1001                                          01 
01080030002000029000012000017000000000000000000LIB       Governor                                                Kathie Glass                          PRECINCT 1002                                          01 
01080030003000051000017000034000000000000000000LIB       Governor                                                Kathie Glass                          PRECINCT 1003                                          01 
01080030004000019000008000011000000000000000000LIB       Governor                                                Kathie Glass                          PRECINCT 1004                                          01 
01080030005000016000010000006000000000000000000LIB       Governor                                                Kathie Glass                          PRECINCT 2005                                          01 
01080030006000013000005000008000000000000000000LIB       Governor                                                Kathie Glass                          PRECINCT 2006                                          01 
01080030007000022000009000013000000000000000000LIB       Governor                                                Kathie Glass                          PRECINCT 2007                                          01 
01080030008000014000010000004000000000000000000LIB       Governor                                                Kathie Glass                          PRECINCT 2008                                          01 
01080030009000011000002000009000000000000000000LIB       Governor                                                Kathie Glass                          PRECINCT 2009                                          01 
01080030010000030000008000022000000000000000000LIB       Governor                                                Kathie Glass                          PRECINCT 2010                                          01 
01080030011000022000012000010000000000000000000LIB       Governor                                                Kathie Glass                          PRECINCT 2011                                          01 
