01010010001002334000000000000000000000000000000          REGISTERED VOTERS - TOTAL                               REGISTERED VOTERS - TOTAL             PRECINCT 1001                                          00 
01010010002002353000000000000000000000000000000          REGISTERED VOTERS - TOTAL                               REGISTERED VOTERS - TOTAL             PRECINCT 1002                                          00 
01010010003004751000000000000000000000000000000          REGISTERED VOTERS - TOTAL                               REGISTERED VOTERS - TOTAL             PRECINCT 1003                                          00 
01010010004002239000000000000000000000000000000          REGISTERED VOTERS - TOTAL                               REGISTERED VOTERS - TOTAL             PRECINCT 1004                                          00 
01010010005002566000000000000000000000000000000          REGISTERED VOTERS - TOTAL                               REGISTERED VOTERS - TOTAL             PRECINCT 2005                                          00 
01010010006001278000000000000000000000000000000          REGISTERED VOTERS - TOTAL                               REGISTERED VOTERS - TOTAL             PRECINCT 2006                                          00 
01010010007001844000000000000000000000000000000          REGISTERED VOTERS - TOTAL                               REGISTERED VOTERS - TOTAL             PRECINCT 2007                                          00 
01010010008000877000000000000000000000000000000          REGISTERED VOTERS - TOTAL                               REGISTERED VOTERS - TOTAL             PRECINCT 2008                                          00 
01010010009001174000000000000000000000000000000          REGISTERED VOTERS - TOTAL                               REGISTERED VOTERS - TOTAL             PRECINCT 2009                                          00 
01010010010001150000000000000000000000000000000          REGISTERED VOTERS - TOTAL                               REGISTERED VOTERS - TOTAL             PRECINCT 2010                                          00 
01010010011002095000000000000000000000000000000          REGISTERED VOTERS - TOTAL                               REGISTERED VOTERS - TOTAL             PRECINCT 2011                                          00 
01010010012000842000000000000000000000000000000          REGISTERED VOTERS - TOTAL                               REGISTERED VOTERS - TOTAL             PRECINCT 3012                                          00 
01010010013001342000000000000000000000000000000          REGISTERED VOTERS - TOTAL                               REGISTERED VOTERS - TOTAL             PRECINCT 3013                                          00 
01010010014002229000000000000000000000000000000          REGISTERED VOTERS - TOTAL                               REGISTERED VOTERS - TOTAL             PRECINCT 3014                                          00 
01010010015002182000000000000000000000000000000          REGISTERED VOTERS - TOTAL                               REGISTERED VOTERS - TOTAL             PRECINCT 3015                                          00 
01010010016002461000000000000000000000000000000          REGISTERED VOTERS - TOTAL                               REGISTERED VOTERS - TOTAL             PRECINCT 3016                                          00 
01010010017002402000000000000000000000000000000          REGISTERED VOTERS - TOTAL                               REGISTERED VOTERS - TOTAL             PRECINCT 4017                                          00 
01010010018000524000000000000000000000000000000          REGISTERED VOTERS - TOTAL                               REGISTERED VOTERS - TOTAL             PRECINCT 4018                                          00 
01010010019002210000000000000000000000000000000          REGISTERED VOTERS - TOTAL                               REGISTERED VOTERS - TOTAL             PRECINCT 4019                                          00 
01010010020003262000000000000000000000000000000          REGISTERED VOTERS - TOTAL                               REGISTERED VOTERS - TOTAL             PRECINCT 4020                                          00 
01010010021001138000000000000000000000000000000          REGISTERED VOTERS - TOTAL                               REGISTERED VOTERS - TOTAL             PRECINCT 4021                                          00 
01020010001000511000234000277000000000000000000          BALLOTS CAST - TOTAL                                    BALLOTS CAST - TOTAL                  PRECINCT 1001                                          00 
01020010002000464000145000319000000000000000000          BALLOTS CAST - TOTAL                                    BALLOTS CAST - TOTAL                  PRECINCT 1002                                          00 
01020010003000801000288000513000000000000000000          BALLOTS CAST - TOTAL                                    BALLOTS CAST - TOTAL                  PRECINCT 1003                                          00 
01020010004000246000095000151000000000000000000          BALLOTS CAST - TOTAL                                    BALLOTS CAST - TOTAL                  PRECINCT 1004                                          00 
01020010005000505000219000286000000000000000000          BALLOTS CAST - TOTAL                                    BALLOTS CAST - TOTAL                  PRECINCT 2005                                          00 
01020010006000213000114000099000000000000000000          BALLOTS CAST - TOTAL                                    BALLOTS CAST - TOTAL                  PRECINCT 2006                                          00 
01020010007000349000211000138000000000000000000          BALLOTS CAST - TOTAL                                    BALLOTS CAST - TOTAL                  PRECINCT 2007                                          00 
01020010008000156000061000095000000000000000000          BALLOTS CAST - TOTAL                                    BALLOTS CAST - TOTAL                  PRECINCT 2008                                          00 
01020010009000149000062000087000000000000000000          BALLOTS CAST - TOTAL                                    BALLOTS CAST - TOTAL                  PRECINCT 2009                                          00 
01020010010000170000118000052000000000000000000          BALLOTS CAST - TOTAL                                    BALLOTS CAST - TOTAL                  PRECINCT 2010                                          00 
01020010011000302000137000165000000000000000000          BALLOTS CAST - TOTAL                                    BALLOTS CAST - TOTAL                  PRECINCT 2011                                          00 
01020010012000145000074000071000000000000000000          BALLOTS CAST - TOTAL                                    BALLOTS CAST - TOTAL                  PRECINCT 3012                                          00 
01020010013000223000160000063000000000000000000          BALLOTS CAST - TOTAL                                    BALLOTS CAST - TOTAL                  PRECINCT 3013                                          00 
01020010014000222000115000107000000000000000000          BALLOTS CAST - TOTAL                                    BALLOTS CAST - TOTAL                  PRECINCT 3014                                          00 
01020010015000234000112000122000000000000000000          BALLOTS CAST - TOTAL                                    BALLOTS CAST - TOTAL                  PRECINCT 3015                                          00 
01020010016000319000157000162000000000000000000          BALLOTS CAST - TOTAL                                    BALLOTS CAST - TOTAL                  PRECINCT 3016                                          00 
01020010017000438000132000306000000000000000000          BALLOTS CAST - TOTAL                                    BALLOTS CAST - TOTAL                  PRECINCT 4017                                          00 
01020010018000123000042000081000000000000000000          BALLOTS CAST - TOTAL                                    BALLOTS CAST - TOTAL                  PRECINCT 4018                                          00 
01020010019000417000210000207000000000000000000          BALLOTS CAST - TOTAL                                    BALLOTS CAST - TOTAL                  PRECINCT 4019                                          00 
01020010020000605000219000386000000000000000000          BALLOTS CAST - TOTAL                                    BALLOTS CAST - TOTAL                  PRECINCT 4020                                          00 
01020010021000170000105000065000000000000000000          BALLOTS CAST - TOTAL                                    BALLOTS CAST - TOTAL                  PRECINCT 4021                                          00 
01030010001000404000183000221000000000000000000REP       BALLOTS CAST - REPUBLICAN PARTY                         BALLOTS CAST - REPUBLICAN PARTY       PRECINCT 1001                                          00 
01030010002000285000088000196000001000000000000REP       BALLOTS CAST - REPUBLICAN PARTY                         BALLOTS CAST - REPUBLICAN PARTY       PRECINCT 1002                                          00 
01030010003000607000224000383000000000000000000REP       BALLOTS CAST - REPUBLICAN PARTY                         BALLOTS CAST - REPUBLICAN PARTY       PRECINCT 1003                                          00 
01030010004000183000081000102000000000000000000REP       BALLOTS CAST - REPUBLICAN PARTY                         BALLOTS CAST - REPUBLICAN PARTY       PRECINCT 1004                                          00 
01030010005000353000145000207000001000000000000REP       BALLOTS CAST - REPUBLICAN PARTY                         BALLOTS CAST - REPUBLICAN PARTY       PRECINCT 2005                                          00 
01030010006000163000091000072000000000000000000REP       BALLOTS CAST - REPUBLICAN PARTY                         BALLOTS CAST - REPUBLICAN PARTY       PRECINCT 2006                                          00 
01030010007000288000170000118000000000000000000REP       BALLOTS CAST - REPUBLICAN PARTY                         BALLOTS CAST - REPUBLICAN PARTY       PRECINCT 2007                                          00 
01030010008000121000052000068000001000000000000REP       BALLOTS CAST - REPUBLICAN PARTY                         BALLOTS CAST - REPUBLICAN PARTY       PRECINCT 2008                                          00 
01030010009000113000048000065000000000000000000REP       BALLOTS CAST - REPUBLICAN PARTY                         BALLOTS CAST - REPUBLICAN PARTY       PRECINCT 2009                                          00 
01030010010000128000099000029000000000000000000REP       BALLOTS CAST - REPUBLICAN PARTY                         BALLOTS CAST - REPUBLICAN PARTY       PRECINCT 2010                                          00 
01030010011000217000105000112000000000000000000REP       BALLOTS CAST - REPUBLICAN PARTY                         BALLOTS CAST - REPUBLICAN PARTY       PRECINCT 2011                                          00 
01030010012000120000057000063000000000000000000REP       BALLOTS CAST - REPUBLICAN PARTY                         BALLOTS CAST - REPUBLICAN PARTY       PRECINCT 3012                                          00 
01030010013000161000117000044000000000000000000REP       BALLOTS CAST - REPUBLICAN PARTY                         BALLOTS CAST - REPUBLICAN PARTY       PRECINCT 3013                                          00 
01030010014000158000085000073000000000000000000REP       BALLOTS CAST - REPUBLICAN PARTY                         BALLOTS CAST - REPUBLICAN PARTY       PRECINCT 3014                                          00 
01030010015000149000073000076000000000000000000REP       BALLOTS CAST - REPUBLICAN PARTY                         BALLOTS CAST - REPUBLICAN PARTY       PRECINCT 3015                                          00 
01030010016000230000129000101000000000000000000REP       BALLOTS CAST - REPUBLICAN PARTY                         BALLOTS CAST - REPUBLICAN PARTY       PRECINCT 3016                                          00 
01030010017000317000105000212000000000000000000REP       BALLOTS CAST - REPUBLICAN PARTY                         BALLOTS CAST - REPUBLICAN PARTY       PRECINCT 4017                                          00 
01030010018000096000035000061000000000000000000REP       BALLOTS CAST - REPUBLICAN PARTY                         BALLOTS CAST - REPUBLICAN PARTY       PRECINCT 4018                                          00 
01030010019000305000140000165000000000000000000REP       BALLOTS CAST - REPUBLICAN PARTY                         BALLOTS CAST - REPUBLICAN PARTY       PRECINCT 4019                                          00 
01030010020000445000163000282000000000000000000REP       BALLOTS CAST - REPUBLICAN PARTY                         BALLOTS CAST - REPUBLICAN PARTY       PRECINCT 4020                                          00 
01030010021000125000082000043000000000000000000REP       BALLOTS CAST - REPUBLICAN PARTY                         BALLOTS CAST - REPUBLICAN PARTY       PRECINCT 4021                                          00 
01040010001000107000051000056000000000000000000DEM       BALLOTS CAST - DEMOCRATIC PARTY                         BALLOTS CAST - DEMOCRATIC PARTY       PRECINCT 1001                                          00 
01040010002000180000057000123000000000000000000DEM       BALLOTS CAST - DEMOCRATIC PARTY                         BALLOTS CAST - DEMOCRATIC PARTY       PRECINCT 1002                                          00 
01040010003000196000064000130000002000000000000DEM       BALLOTS CAST - DEMOCRATIC PARTY                         BALLOTS CAST - DEMOCRATIC PARTY       PRECINCT 1003                                          00 
01040010004000064000014000049000001000000000000DEM       BALLOTS CAST - DEMOCRATIC PARTY                         BALLOTS CAST - DEMOCRATIC PARTY       PRECINCT 1004                                          00 
01040010005000153000074000079000000000000000000DEM       BALLOTS CAST - DEMOCRATIC PARTY                         BALLOTS CAST - DEMOCRATIC PARTY       PRECINCT 2005                                          00 
01040010006000050000023000027000000000000000000DEM       BALLOTS CAST - DEMOCRATIC PARTY                         BALLOTS CAST - DEMOCRATIC PARTY       PRECINCT 2006                                          00 
01040010007000061000041000020000000000000000000DEM       BALLOTS CAST - DEMOCRATIC PARTY                         BALLOTS CAST - DEMOCRATIC PARTY       PRECINCT 2007                                          00 
01040010008000036000009000027000000000000000000DEM       BALLOTS CAST - DEMOCRATIC PARTY                         BALLOTS CAST - DEMOCRATIC PARTY       PRECINCT 2008                                          00 
01040010009000036000014000022000000000000000000DEM       BALLOTS CAST - DEMOCRATIC PARTY                         BALLOTS CAST - DEMOCRATIC PARTY       PRECINCT 2009                                          00 
01040010010000042000019000023000000000000000000DEM       BALLOTS CAST - DEMOCRATIC PARTY                         BALLOTS CAST - DEMOCRATIC PARTY       PRECINCT 2010                                          00 
01040010011000085000032000053000000000000000000DEM       BALLOTS CAST - DEMOCRATIC PARTY                         BALLOTS CAST - DEMOCRATIC PARTY       PRECINCT 2011                                          00 
01040010012000025000017000008000000000000000000DEM       BALLOTS CAST - DEMOCRATIC PARTY                         BALLOTS CAST - DEMOCRATIC PARTY       PRECINCT 3012                                          00 
01040010013000062000043000019000000000000000000DEM       BALLOTS CAST - DEMOCRATIC PARTY                         BALLOTS CAST - DEMOCRATIC PARTY       PRECINCT 3013                                          00 
01040010014000064000030000034000000000000000000DEM       BALLOTS CAST - DEMOCRATIC PARTY                         BALLOTS CAST - DEMOCRATIC PARTY       PRECINCT 3014                                          00 
01040010015000085000039000046000000000000000000DEM       BALLOTS CAST - DEMOCRATIC PARTY                         BALLOTS CAST - DEMOCRATIC PARTY       PRECINCT 3015                                          00 
01040010016000089000028000061000000000000000000DEM       BALLOTS CAST - DEMOCRATIC PARTY                         BALLOTS CAST - DEMOCRATIC PARTY       PRECINCT 3016                                          00 
01040010017000121000027000094000000000000000000DEM       BALLOTS CAST - DEMOCRATIC PARTY                         BALLOTS CAST - DEMOCRATIC PARTY       PRECINCT 4017                                          00 
01040010018000027000007000020000000000000000000DEM       BALLOTS CAST - DEMOCRATIC PARTY                         BALLOTS CAST - DEMOCRATIC PARTY       PRECINCT 4018                                          00 
01040010019000112000070000042000000000000000000DEM       BALLOTS CAST - DEMOCRATIC PARTY                         BALLOTS CAST - DEMOCRATIC PARTY       PRECINCT 4019                                          00 
01040010020000160000056000104000000000000000000DEM       BALLOTS CAST - DEMOCRATIC PARTY                         BALLOTS CAST - DEMOCRATIC PARTY       PRECINCT 4020                                          00 
01040010021000045000023000022000000000000000000DEM       BALLOTS CAST - DEMOCRATIC PARTY                         BALLOTS CAST - DEMOCRATIC PARTY       PRECINCT 4021                                          00 
01050010001000070000034000036000000000000000000REP       United States Senator                                   Steve Stockman                        PRECINCT 1001                                          01 
01050010002000050000026000024000000000000000000REP       United States Senator                                   Steve Stockman                        PRECINCT 1002                                          01 
01050010003000128000057000071000000000000000000REP       United States Senator                                   Steve Stockman                        PRECINCT 1003                                          01 
01050010004000050000027000023000000000000000000REP       United States Senator                                   Steve Stockman                        PRECINCT 1004                                          01 
01050010005000071000040000031000000000000000000REP       United States Senator                                   Steve Stockman                        PRECINCT 2005                                          01 
01050010006000051000027000024000000000000000000REP       United States Senator                                   Steve Stockman                        PRECINCT 2006                                          01 
01050010007000064000041000023000000000000000000REP       United States Senator                                   Steve Stockman                        PRECINCT 2007                                          01 
01050010008000025000012000013000000000000000000REP       United States Senator                                   Steve Stockman                        PRECINCT 2008                                          01 
01050010009000024000007000017000000000000000000REP       United States Senator                                   Steve Stockman                        PRECINCT 2009                                          01 
01050010010000028000025000003000000000000000000REP       United States Senator                                   Steve Stockman                        PRECINCT 2010                                          01 
01050010011000058000037000021000000000000000000REP       United States Senator                                   Steve Stockman                        PRECINCT 2011                                          01 
01050010012000029000016000013000000000000000000REP       United States Senator                                   Steve Stockman                        PRECINCT 3012                                          01 
01050010013000037000028000009000000000000000000REP       United States Senator                                   Steve Stockman                        PRECINCT 3013                                          01 
01050010014000038000024000014000000000000000000REP       United States Senator                                   Steve Stockman                        PRECINCT 3014                                          01 
01050010015000028000013000015000000000000000000REP       United States Senator                                   Steve Stockman                        PRECINCT 3015                                          01 
01050010016000063000044000019000000000000000000REP       United States Senator                                   Steve Stockman                        PRECINCT 3016                                          01 
01050010017000046000021000025000000000000000000REP       United States Senator                                   Steve Stockman                        PRECINCT 4017                                          01 
01050010018000020000004000016000000000000000000REP       United States Senator                                   Steve Stockman                        PRECINCT 4018                                          01 
01050010019000071000033000038000000000000000000REP       United States Senator                                   Steve Stockman                        PRECINCT 4019                                          01 
01050010020000087000046000041000000000000000000REP       United States Senator                                   Steve Stockman                        PRECINCT 4020                                          01 
01050010021000032000019000013000000000000000000REP       United States Senator                                   Steve Stockman                        PRECINCT 4021                                          01 
01050020001000204000092000112000000000000000000REP       United States Senator                                   John Cornyn                           PRECINCT 1001                                          01 
01050020002000148000040000107000001000000000000REP       United States Senator                                   John Cornyn                           PRECINCT 1002                                          01 
01050020003000350000107000243000000000000000000REP       United States Senator                                   John Cornyn                           PRECINCT 1003                                          01 
01050020004000080000025000055000000000000000000REP       United States Senator                                   John Cornyn                           PRECINCT 1004                                          01 
01050020005000208000079000129000000000000000000REP       United States Senator                                   John Cornyn                           PRECINCT 2005                                          01 
01050020006000075000043000032000000000000000000REP       United States Senator                                   John Cornyn                           PRECINCT 2006                                          01 
01050020007000167000093000074000000000000000000REP       United States Senator                                   John Cornyn                           PRECINCT 2007                                          01 
01050020008000070000028000041000001000000000000REP       United States Senator                                   John Cornyn                           PRECINCT 2008                                          01 
01050020009000056000027000029000000000000000000REP       United States Senator                                   John Cornyn                           PRECINCT 2009                                          01 
01050020010000062000048000014000000000000000000REP       United States Senator                                   John Cornyn                           PRECINCT 2010                                          01 
01050020011000095000036000059000000000000000000REP       United States Senator                                   John Cornyn                           PRECINCT 2011                                          01 
01050020012000063000027000036000000000000000000REP       United States Senator                                   John Cornyn                           PRECINCT 3012                                          01 
01050020013000087000061000026000000000000000000REP       United States Senator                                   John Cornyn                           PRECINCT 3013                                          01 
01050020014000087000045000042000000000000000000REP       United States Senator                                   John Cornyn                           PRECINCT 3014                                          01 
01050020015000082000039000043000000000000000000REP       United States Senator                                   John Cornyn                           PRECINCT 3015                                          01 
01050020016000111000057000054000000000000000000REP       United States Senator                                   John Cornyn                           PRECINCT 3016                                          01 
01050020017000168000060000108000000000000000000REP       United States Senator                                   John Cornyn                           PRECINCT 4017                                          01 
01050020018000065000027000038000000000000000000REP       United States Senator                                   John Cornyn                           PRECINCT 4018                                          01 
01050020019000124000054000070000000000000000000REP       United States Senator                                   John Cornyn                           PRECINCT 4019                                          01 
01050020020000201000066000135000000000000000000REP       United States Senator                                   John Cornyn                           PRECINCT 4020                                          01 
01050020021000065000043000022000000000000000000REP       United States Senator                                   John Cornyn                           PRECINCT 4021                                          01 
01050030001000004000002000002000000000000000000REP       United States Senator                                   Chris Mapp                            PRECINCT 1001                                          01 
01050030002000003000001000002000000000000000000REP       United States Senator                                   Chris Mapp                            PRECINCT 1002                                          01 
01050030003000005000003000002000000000000000000REP       United States Senator                                   Chris Mapp                            PRECINCT 1003                                          01 
01050030004000002000001000001000000000000000000REP       United States Senator                                   Chris Mapp                            PRECINCT 1004                                          01 
01050030005000002000001000001000000000000000000REP       United States Senator                                   Chris Mapp                            PRECINCT 2005                                          01 
01050030006000004000000000004000000000000000000REP       United States Senator                                   Chris Mapp                            PRECINCT 2006                                          01 
01050030007000002000001000001000000000000000000REP       United States Senator                                   Chris Mapp                            PRECINCT 2007                                          01 
01050030008000003000001000002000000000000000000REP       United States Senator                                   Chris Mapp                            PRECINCT 2008                                          01 
01050030009000001000000000001000000000000000000REP       United States Senator                                   Chris Mapp                            PRECINCT 2009                                          01 
01050030010000001000001000000000000000000000000REP       United States Senator                                   Chris Mapp                            PRECINCT 2010                                          01 
01050030011000005000004000001000000000000000000REP       United States Senator                                   Chris Mapp                            PRECINCT 2011                                          01 
01050030012000003000001000002000000000000000000REP       United States Senator                                   Chris Mapp                            PRECINCT 3012                                          01 
01050030013000003000002000001000000000000000000REP       United States Senator                                   Chris Mapp                            PRECINCT 3013                                          01 
01050030014000003000002000001000000000000000000REP       United States Senator                                   Chris Mapp                            PRECINCT 3014                                          01 
01050030015000002000001000001000000000000000000REP       United States Senator                                   Chris Mapp                            PRECINCT 3015                                          01 
01050030016000007000004000003000000000000000000REP       United States Senator                                   Chris Mapp                            PRECINCT 3016                                          01 
01050030017000006000001000005000000000000000000REP       United States Senator                                   Chris Mapp                            PRECINCT 4017                                          01 
01050030018000000000000000000000000000000000000REP       United States Senator                                   Chris Mapp                            PRECINCT 4018                                          01 
01050030019000005000001000004000000000000000000REP       United States Senator                                   Chris Mapp                            PRECINCT 4019                                          01 
01050030020000005000003000002000000000000000000REP       United States Senator                                   Chris Mapp                            PRECINCT 4020                                          01 
01050030021000001000001000000000000000000000000REP       United States Senator                                   Chris Mapp                            PRECINCT 4021                                          01 
01050040001000029000010000019000000000000000000REP       United States Senator                                   Linda Vega                            PRECINCT 1001                                          01 
01050040002000017000001000016000000000000000000REP       United States Senator                                   Linda Vega                            PRECINCT 1002                                          01 
01050040003000023000011000012000000000000000000REP       United States Senator                                   Linda Vega                            PRECINCT 1003                                          01 
01050040004000009000004000005000000000000000000REP       United States Senator                                   Linda Vega                            PRECINCT 1004                                          01 
01050040005000012000006000006000000000000000000REP       United States Senator                                   Linda Vega                            PRECINCT 2005                                          01 
01050040006000008000007000001000000000000000000REP       United States Senator                                   Linda Vega                            PRECINCT 2006                                          01 
01050040007000006000005000001000000000000000000REP       United States Senator                                   Linda Vega                            PRECINCT 2007                                          01 
01050040008000004000000000004000000000000000000REP       United States Senator                                   Linda Vega                            PRECINCT 2008                                          01 
01050040009000003000001000002000000000000000000REP       United States Senator                                   Linda Vega                            PRECINCT 2009                                          01 
01050040010000007000005000002000000000000000000REP       United States Senator                                   Linda Vega                            PRECINCT 2010                                          01 
01050040011000011000003000008000000000000000000REP       United States Senator                                   Linda Vega                            PRECINCT 2011                                          01 
01050040012000006000002000004000000000000000000REP       United States Senator                                   Linda Vega                            PRECINCT 3012                                          01 
01050040013000009000008000001000000000000000000REP       United States Senator                                   Linda Vega                            PRECINCT 3013                                          01 
01050040014000006000004000002000000000000000000REP       United States Senator                                   Linda Vega                            PRECINCT 3014                                          01 
01050040015000010000002000008000000000000000000REP       United States Senator                                   Linda Vega                            PRECINCT 3015                                          01 
01050040016000010000005000005000000000000000000REP       United States Senator                                   Linda Vega                            PRECINCT 3016                                          01 
01050040017000030000009000021000000000000000000REP       United States Senator                                   Linda Vega                            PRECINCT 4017                                          01 
01050040018000003000002000001000000000000000000REP       United States Senator                                   Linda Vega                            PRECINCT 4018                                          01 
01050040019000018000009000009000000000000000000REP       United States Senator                                   Linda Vega                            PRECINCT 4019                                          01 
01050040020000046000014000032000000000000000000REP       United States Senator                                   Linda Vega                            PRECINCT 4020                                          01 
01050040021000007000003000004000000000000000000REP       United States Senator                                   Linda Vega                            PRECINCT 4021                                          01 
01050050001000034000014000020000000000000000000REP       United States Senator                                   Dwayne Stovall                        PRECINCT 1001                                          01 
01050050002000020000007000013000000000000000000REP       United States Senator                                   Dwayne Stovall                        PRECINCT 1002                                          01 
01050050003000037000016000021000000000000000000REP       United States Senator                                   Dwayne Stovall                        PRECINCT 1003                                          01 
01050050004000023000015000008000000000000000000REP       United States Senator                                   Dwayne Stovall                        PRECINCT 1004                                          01 
01050050005000026000006000020000000000000000000REP       United States Senator                                   Dwayne Stovall                        PRECINCT 2005                                          01 
01050050006000017000007000010000000000000000000REP       United States Senator                                   Dwayne Stovall                        PRECINCT 2006                                          01 
01050050007000022000013000009000000000000000000REP       United States Senator                                   Dwayne Stovall                        PRECINCT 2007                                          01 
01050050008000005000003000002000000000000000000REP       United States Senator                                   Dwayne Stovall                        PRECINCT 2008                                          01 
01050050009000014000007000007000000000000000000REP       United States Senator                                   Dwayne Stovall                        PRECINCT 2009                                          01 
01050050010000015000013000002000000000000000000REP       United States Senator                                   Dwayne Stovall                        PRECINCT 2010                                          01 
01050050011000026000014000012000000000000000000REP       United States Senator                                   Dwayne Stovall                        PRECINCT 2011                                          01 
01050050012000008000003000005000000000000000000REP       United States Senator                                   Dwayne Stovall                        PRECINCT 3012                                          01 
01050050013000012000010000002000000000000000000REP       United States Senator                                   Dwayne Stovall                        PRECINCT 3013                                          01 
01050050014000010000006000004000000000000000000REP       United States Senator                                   Dwayne Stovall                        PRECINCT 3014                                          01 
01050050015000014000012000002000000000000000000REP       United States Senator                                   Dwayne Stovall                        PRECINCT 3015                                          01 
01050050016000016000009000007000000000000000000REP       United States Senator                                   Dwayne Stovall                        PRECINCT 3016                                          01 
01050050017000014000004000010000000000000000000REP       United States Senator                                   Dwayne Stovall                        PRECINCT 4017                                          01 
01050050018000000000000000000000000000000000000REP       United States Senator                                   Dwayne Stovall                        PRECINCT 4018                                          01 
01050050019000049000023000026000000000000000000REP       United States Senator                                   Dwayne Stovall                        PRECINCT 4019                                          01 
01050050020000023000006000017000000000000000000REP       United States Senator                                   Dwayne Stovall                        PRECINCT 4020                                          01 
01050050021000007000005000002000000000000000000REP       United States Senator                                   Dwayne Stovall                        PRECINCT 4021                                          01 
01050060001000005000002000003000000000000000000REP       United States Senator                                   Reid Reasor                           PRECINCT 1001                                          01 
01050060002000002000002000000000000000000000000REP       United States Senator                                   Reid Reasor                           PRECINCT 1002                                          01 
01050060003000005000001000004000000000000000000REP       United States Senator                                   Reid Reasor                           PRECINCT 1003                                          01 
01050060004000002000001000001000000000000000000REP       United States Senator                                   Reid Reasor                           PRECINCT 1004                                          01 
01050060005000002000000000002000000000000000000REP       United States Senator                                   Reid Reasor                           PRECINCT 2005                                          01 
01050060006000000000000000000000000000000000000REP       United States Senator                                   Reid Reasor                           PRECINCT 2006                                          01 
01050060007000004000003000001000000000000000000REP       United States Senator                                   Reid Reasor                           PRECINCT 2007                                          01 
01050060008000004000001000003000000000000000000REP       United States Senator                                   Reid Reasor                           PRECINCT 2008                                          01 
01050060009000001000000000001000000000000000000REP       United States Senator                                   Reid Reasor                           PRECINCT 2009                                          01 
01050060010000002000001000001000000000000000000REP       United States Senator                                   Reid Reasor                           PRECINCT 2010                                          01 
01050060011000005000004000001000000000000000000REP       United States Senator                                   Reid Reasor                           PRECINCT 2011                                          01 
01050060012000002000002000000000000000000000000REP       United States Senator                                   Reid Reasor                           PRECINCT 3012                                          01 
01050060013000001000000000001000000000000000000REP       United States Senator                                   Reid Reasor                           PRECINCT 3013                                          01 
01050060014000002000000000002000000000000000000REP       United States Senator                                   Reid Reasor                           PRECINCT 3014                                          01 
01050060015000003000000000003000000000000000000REP       United States Senator                                   Reid Reasor                           PRECINCT 3015                                          01 
01050060016000006000003000003000000000000000000REP       United States Senator                                   Reid Reasor                           PRECINCT 3016                                          01 
01050060017000004000001000003000000000000000000REP       United States Senator                                   Reid Reasor                           PRECINCT 4017                                          01 
01050060018000000000000000000000000000000000000REP       United States Senator                                   Reid Reasor                           PRECINCT 4018                                          01 
01050060019000004000003000001000000000000000000REP       United States Senator                                   Reid Reasor                           PRECINCT 4019                                          01 
01050060020000005000004000001000000000000000000REP       United States Senator                                   Reid Reasor                           PRECINCT 4020                                          01 
01050060021000002000002000000000000000000000000REP       United States Senator                                   Reid Reasor                           PRECINCT 4021                                          01 
01050070001000000000000000000000000000000000000REP       United States Senator                                   Curt Cleaver                          PRECINCT 1001                                          01 
01050070002000002000002000000000000000000000000REP       United States Senator                                   Curt Cleaver                          PRECINCT 1002                                          01 
01050070003000003000002000001000000000000000000REP       United States Senator                                   Curt Cleaver                          PRECINCT 1003                                          01 
01050070004000000000000000000000000000000000000REP       United States Senator                                   Curt Cleaver                          PRECINCT 1004                                          01 
01050070005000002000000000002000000000000000000REP       United States Senator                                   Curt Cleaver                          PRECINCT 2005                                          01 
01050070006000002000002000000000000000000000000REP       United States Senator                                   Curt Cleaver                          PRECINCT 2006                                          01 
01050070007000002000002000000000000000000000000REP       United States Senator                                   Curt Cleaver                          PRECINCT 2007                                          01 
01050070008000002000001000001000000000000000000REP       United States Senator                                   Curt Cleaver                          PRECINCT 2008                                          01 
01050070009000000000000000000000000000000000000REP       United States Senator                                   Curt Cleaver                          PRECINCT 2009                                          01 
01050070010000000000000000000000000000000000000REP       United States Senator                                   Curt Cleaver                          PRECINCT 2010                                          01 
01050070011000000000000000000000000000000000000REP       United States Senator                                   Curt Cleaver                          PRECINCT 2011                                          01 
01050070012000000000000000000000000000000000000REP       United States Senator                                   Curt Cleaver                          PRECINCT 3012                                          01 
01050070013000001000001000000000000000000000000REP       United States Senator                                   Curt Cleaver                          PRECINCT 3013                                          01 
01050070014000001000001000000000000000000000000REP       United States Senator                                   Curt Cleaver                          PRECINCT 3014                                          01 
01050070015000000000000000000000000000000000000REP       United States Senator                                   Curt Cleaver                          PRECINCT 3015                                          01 
01050070016000000000000000000000000000000000000REP       United States Senator                                   Curt Cleaver                          PRECINCT 3016                                          01 
01050070017000004000000000004000000000000000000REP       United States Senator                                   Curt Cleaver                          PRECINCT 4017                                          01 
01050070018000000000000000000000000000000000000REP       United States Senator                                   Curt Cleaver                          PRECINCT 4018                                          01 
01050070019000002000000000002000000000000000000REP       United States Senator                                   Curt Cleaver                          PRECINCT 4019                                          01 
01050070020000002000000000002000000000000000000REP       United States Senator                                   Curt Cleaver                          PRECINCT 4020                                          01 
01050070021000001000000000001000000000000000000REP       United States Senator                                   Curt Cleaver                          PRECINCT 4021                                          01 
01050080001000014000010000004000000000000000000REP       United States Senator                                   Ken Cope                              PRECINCT 1001                                          01 
01050080002000004000001000003000000000000000000REP       United States Senator                                   Ken Cope                              PRECINCT 1002                                          01 
01050080003000021000012000009000000000000000000REP       United States Senator                                   Ken Cope                              PRECINCT 1003                                          01 
01050080004000006000002000004000000000000000000REP       United States Senator                                   Ken Cope                              PRECINCT 1004                                          01 
01050080005000007000002000005000000000000000000REP       United States Senator                                   Ken Cope                              PRECINCT 2005                                          01 
01050080006000003000002000001000000000000000000REP       United States Senator                                   Ken Cope                              PRECINCT 2006                                          01 
01050080007000007000005000002000000000000000000REP       United States Senator                                   Ken Cope                              PRECINCT 2007                                          01 
01050080008000003000002000001000000000000000000REP       United States Senator                                   Ken Cope                              PRECINCT 2008                                          01 
01050080009000002000001000001000000000000000000REP       United States Senator                                   Ken Cope                              PRECINCT 2009                                          01 
01050080010000005000002000003000000000000000000REP       United States Senator                                   Ken Cope                              PRECINCT 2010                                          01 
01050080011000004000003000001000000000000000000REP       United States Senator                                   Ken Cope                              PRECINCT 2011                                          01 
01050080012000002000002000000000000000000000000REP       United States Senator                                   Ken Cope                              PRECINCT 3012                                          01 
01050080013000003000001000002000000000000000000REP       United States Senator                                   Ken Cope                              PRECINCT 3013                                          01 
01050080014000005000003000002000000000000000000REP       United States Senator                                   Ken Cope                              PRECINCT 3014                                          01 
01050080015000004000004000000000000000000000000REP       United States Senator                                   Ken Cope                              PRECINCT 3015                                          01 
01050080016000008000004000004000000000000000000REP       United States Senator                                   Ken Cope                              PRECINCT 3016                                          01 
01050080017000007000002000005000000000000000000REP       United States Senator                                   Ken Cope                              PRECINCT 4017                                          01 
01050080018000004000001000003000000000000000000REP       United States Senator                                   Ken Cope                              PRECINCT 4018                                          01 
01050080019000007000006000001000000000000000000REP       United States Senator                                   Ken Cope                              PRECINCT 4019                                          01 
01050080020000018000009000009000000000000000000REP       United States Senator                                   Ken Cope                              PRECINCT 4020                                          01 
01050080021000005000005000000000000000000000000REP       United States Senator                                   Ken Cope                              PRECINCT 4021                                          01 
01050090001000000000000000000000000000000000000REP       United States Senator                                   OVER VOTES                            PRECINCT 1001                                          01 
01050090002000000000000000000000000000000000000REP       United States Senator                                   OVER VOTES                            PRECINCT 1002                                          01 
01050090003000000000000000000000000000000000000REP       United States Senator                                   OVER VOTES                            PRECINCT 1003                                          01 
01050090004000000000000000000000000000000000000REP       United States Senator                                   OVER VOTES                            PRECINCT 1004                                          01 
01050090005000000000000000000000000000000000000REP       United States Senator                                   OVER VOTES                            PRECINCT 2005                                          01 
01050090006000000000000000000000000000000000000REP       United States Senator                                   OVER VOTES                            PRECINCT 2006                                          01 
01050090007000000000000000000000000000000000000REP       United States Senator                                   OVER VOTES                            PRECINCT 2007                                          01 
01050090008000000000000000000000000000000000000REP       United States Senator                                   OVER VOTES                            PRECINCT 2008                                          01 
01050090009000000000000000000000000000000000000REP       United States Senator                                   OVER VOTES                            PRECINCT 2009                                          01 
01050090010000001000001000000000000000000000000REP       United States Senator                                   OVER VOTES                            PRECINCT 2010                                          01 
01050090011000000000000000000000000000000000000REP       United States Senator                                   OVER VOTES                            PRECINCT 2011                                          01 
01050090012000000000000000000000000000000000000REP       United States Senator                                   OVER VOTES                            PRECINCT 3012                                          01 
01050090013000000000000000000000000000000000000REP       United States Senator                                   OVER VOTES                            PRECINCT 3013                                          01 
01050090014000000000000000000000000000000000000REP       United States Senator                                   OVER VOTES                            PRECINCT 3014                                          01 
01050090015000000000000000000000000000000000000REP       United States Senator                                   OVER VOTES                            PRECINCT 3015                                          01 
01050090016000000000000000000000000000000000000REP       United States Senator                                   OVER VOTES                            PRECINCT 3016                                          01 
01050090017000000000000000000000000000000000000REP       United States Senator                                   OVER VOTES                            PRECINCT 4017                                          01 
01050090018000000000000000000000000000000000000REP       United States Senator                                   OVER VOTES                            PRECINCT 4018                                          01 
01050090019000000000000000000000000000000000000REP       United States Senator                                   OVER VOTES                            PRECINCT 4019                                          01 
01050090020000000000000000000000000000000000000REP       United States Senator                                   OVER VOTES                            PRECINCT 4020                                          01 
01050090021000000000000000000000000000000000000REP       United States Senator                                   OVER VOTES                            PRECINCT 4021                                          01 
01050100001000044000019000025000000000000000000REP       United States Senator                                   UNDER VOTES                           PRECINCT 1001                                          01 
01050100002000039000008000031000000000000000000REP       United States Senator                                   UNDER VOTES                           PRECINCT 1002                                          01 
01050100003000035000015000020000000000000000000REP       United States Senator                                   UNDER VOTES                           PRECINCT 1003                                          01 
01050100004000011000006000005000000000000000000REP       United States Senator                                   UNDER VOTES                           PRECINCT 1004                                          01 
01050100005000023000011000011000001000000000000REP       United States Senator                                   UNDER VOTES                           PRECINCT 2005                                          01 
01050100006000003000003000000000000000000000000REP       United States Senator                                   UNDER VOTES                           PRECINCT 2006                                          01 
01050100007000014000007000007000000000000000000REP       United States Senator                                   UNDER VOTES                           PRECINCT 2007                                          01 
01050100008000005000004000001000000000000000000REP       United States Senator                                   UNDER VOTES                           PRECINCT 2008                                          01 
01050100009000012000005000007000000000000000000REP       United States Senator                                   UNDER VOTES                           PRECINCT 2009                                          01 
01050100010000007000003000004000000000000000000REP       United States Senator                                   UNDER VOTES                           PRECINCT 2010                                          01 
01050100011000013000004000009000000000000000000REP       United States Senator                                   UNDER VOTES                           PRECINCT 2011                                          01 
01050100012000007000004000003000000000000000000REP       United States Senator                                   UNDER VOTES                           PRECINCT 3012                                          01 
01050100013000008000006000002000000000000000000REP       United States Senator                                   UNDER VOTES                           PRECINCT 3013                                          01 
01050100014000006000000000006000000000000000000REP       United States Senator                                   UNDER VOTES                           PRECINCT 3014                                          01 
01050100015000006000002000004000000000000000000REP       United States Senator                                   UNDER VOTES                           PRECINCT 3015                                          01 
01050100016000009000003000006000000000000000000REP       United States Senator                                   UNDER VOTES                           PRECINCT 3016                                          01 
01050100017000038000007000031000000000000000000REP       United States Senator                                   UNDER VOTES                           PRECINCT 4017                                          01 
01050100018000004000001000003000000000000000000REP       United States Senator                                   UNDER VOTES                           PRECINCT 4018                                          01 
01050100019000025000011000014000000000000000000REP       United States Senator                                   UNDER VOTES                           PRECINCT 4019                                          01 
01050100020000058000015000043000000000000000000REP       United States Senator                                   UNDER VOTES                           PRECINCT 4020                                          01 
01050100021000005000004000001000000000000000000REP       United States Senator                                   UNDER VOTES                           PRECINCT 4021                                          01 
01060010001000262000124000138000000000000000000REP       United States Representative, Dist 10 US REP DISTRICT 10Michael McCaul                        PRECINCT 1001                                          01 
01060010002000165000058000107000000000000000000REP       United States Representative, Dist 10 US REP DISTRICT 10Michael McCaul                        PRECINCT 1002                                          01 
01060010004000129000056000073000000000000000000REP       United States Representative, Dist 10 US REP DISTRICT 10Michael McCaul                        PRECINCT 1004                                          01 
01060010005000245000097000148000000000000000000REP       United States Representative, Dist 10 US REP DISTRICT 10Michael McCaul                        PRECINCT 2005                                          01 
01060010006000122000068000054000000000000000000REP       United States Representative, Dist 10 US REP DISTRICT 10Michael McCaul                        PRECINCT 2006                                          01 
01060010009000077000036000041000000000000000000REP       United States Representative, Dist 10 US REP DISTRICT 10Michael McCaul                        PRECINCT 2009                                          01 
01060010010000098000082000016000000000000000000REP       United States Representative, Dist 10 US REP DISTRICT 10Michael McCaul                        PRECINCT 2010                                          01 
01060010011000142000073000069000000000000000000REP       United States Representative, Dist 10 US REP DISTRICT 10Michael McCaul                        PRECINCT 2011                                          01 
01060010017000209000071000138000000000000000000REP       United States Representative, Dist 10 US REP DISTRICT 10Michael McCaul                        PRECINCT 4017                                          01 
01060010019000222000096000126000000000000000000REP       United States Representative, Dist 10 US REP DISTRICT 10Michael McCaul                        PRECINCT 4019                                          01 
01060010020000307000113000194000000000000000000REP       United States Representative, Dist 10 US REP DISTRICT 10Michael McCaul                        PRECINCT 4020                                          01 
01060010021000092000060000032000000000000000000REP       United States Representative, Dist 10 US REP DISTRICT 10Michael McCaul                        PRECINCT 4021                                          01 
01060020001000000000000000000000000000000000000REP       United States Representative, Dist 10 US REP DISTRICT 10OVER VOTES                            PRECINCT 1001                                          01 
01060020002000000000000000000000000000000000000REP       United States Representative, Dist 10 US REP DISTRICT 10OVER VOTES                            PRECINCT 1002                                          01 
01060020004000000000000000000000000000000000000REP       United States Representative, Dist 10 US REP DISTRICT 10OVER VOTES                            PRECINCT 1004                                          01 
01060020005000000000000000000000000000000000000REP       United States Representative, Dist 10 US REP DISTRICT 10OVER VOTES                            PRECINCT 2005                                          01 
01060020006000000000000000000000000000000000000REP       United States Representative, Dist 10 US REP DISTRICT 10OVER VOTES                            PRECINCT 2006                                          01 
01060020009000000000000000000000000000000000000REP       United States Representative, Dist 10 US REP DISTRICT 10OVER VOTES                            PRECINCT 2009                                          01 
01060020010000000000000000000000000000000000000REP       United States Representative, Dist 10 US REP DISTRICT 10OVER VOTES                            PRECINCT 2010                                          01 
01060020011000000000000000000000000000000000000REP       United States Representative, Dist 10 US REP DISTRICT 10OVER VOTES                            PRECINCT 2011                                          01 
01060020017000000000000000000000000000000000000REP       United States Representative, Dist 10 US REP DISTRICT 10OVER VOTES                            PRECINCT 4017                                          01 
01060020019000000000000000000000000000000000000REP       United States Representative, Dist 10 US REP DISTRICT 10OVER VOTES                            PRECINCT 4019                                          01 
01060020020000000000000000000000000000000000000REP       United States Representative, Dist 10 US REP DISTRICT 10OVER VOTES                            PRECINCT 4020                                          01 
01060020021000000000000000000000000000000000000REP       United States Representative, Dist 10 US REP DISTRICT 10OVER VOTES                            PRECINCT 4021                                          01 
01060030001000142000059000083000000000000000000REP       United States Representative, Dist 10 US REP DISTRICT 10UNDER VOTES                           PRECINCT 1001                                          01 
01060030002000120000030000089000001000000000000REP       United States Representative, Dist 10 US REP DISTRICT 10UNDER VOTES                           PRECINCT 1002                                          01 
01060030004000054000025000029000000000000000000REP       United States Representative, Dist 10 US REP DISTRICT 10UNDER VOTES                           PRECINCT 1004                                          01 
01060030005000108000048000059000001000000000000REP       United States Representative, Dist 10 US REP DISTRICT 10UNDER VOTES                           PRECINCT 2005                                          01 
01060030006000041000023000018000000000000000000REP       United States Representative, Dist 10 US REP DISTRICT 10UNDER VOTES                           PRECINCT 2006                                          01 
01060030009000036000012000024000000000000000000REP       United States Representative, Dist 10 US REP DISTRICT 10UNDER VOTES                           PRECINCT 2009                                          01 
01060030010000030000017000013000000000000000000REP       United States Representative, Dist 10 US REP DISTRICT 10UNDER VOTES                           PRECINCT 2010                                          01 
01060030011000075000032000043000000000000000000REP       United States Representative, Dist 10 US REP DISTRICT 10UNDER VOTES                           PRECINCT 2011                                          01 
01060030017000108000034000074000000000000000000REP       United States Representative, Dist 10 US REP DISTRICT 10UNDER VOTES                           PRECINCT 4017                                          01 
01060030019000083000044000039000000000000000000REP       United States Representative, Dist 10 US REP DISTRICT 10UNDER VOTES                           PRECINCT 4019                                          01 
01060030020000138000050000088000000000000000000REP       United States Representative, Dist 10 US REP DISTRICT 10UNDER VOTES                           PRECINCT 4020                                          01 
01060030021000033000022000011000000000000000000REP       United States Representative, Dist 10 US REP DISTRICT 10UNDER VOTES                           PRECINCT 4021                                          01 
01070010018000064000024000040000000000000000000REP       United States Representative, Dist 17 US REP DISTRICT 17Bill Flores                           PRECINCT 4018                                          01 
01070020018000000000000000000000000000000000000REP       United States Representative, Dist 17 US REP DISTRICT 17OVER VOTES                            PRECINCT 4018                                          01 
01070030018000032000011000021000000000000000000REP       United States Representative, Dist 17 US REP DISTRICT 17UNDER VOTES                           PRECINCT 4018                                          01 
01080010003000397000144000253000000000000000000REP       United States Representative, Dist 27 US REP DISTRICT 27Blake Farenthold                      PRECINCT 1003                                          01 
01080010007000182000110000072000000000000000000REP       United States Representative, Dist 27 US REP DISTRICT 27Blake Farenthold                      PRECINCT 2007                                          01 
01080010008000080000031000048000001000000000000REP       United States Representative, Dist 27 US REP DISTRICT 27Blake Farenthold                      PRECINCT 2008                                          01 
01080010012000071000034000037000000000000000000REP       United States Representative, Dist 27 US REP DISTRICT 27Blake Farenthold                      PRECINCT 3012                                          01 
01080010013000097000069000028000000000000000000REP       United States Representative, Dist 27 US REP DISTRICT 27Blake Farenthold                      PRECINCT 3013                                          01 
01080010014000110000060000050000000000000000000REP       United States Representative, Dist 27 US REP DISTRICT 27Blake Farenthold                      PRECINCT 3014                                          01 
01080010015000100000046000054000000000000000000REP       United States Representative, Dist 27 US REP DISTRICT 27Blake Farenthold                      PRECINCT 3015                                          01 
01080010016000161000085000076000000000000000000REP       United States Representative, Dist 27 US REP DISTRICT 27Blake Farenthold                      PRECINCT 3016                                          01 
01080020003000000000000000000000000000000000000REP       United States Representative, Dist 27 US REP DISTRICT 27OVER VOTES                            PRECINCT 1003                                          01 
01080020007000000000000000000000000000000000000REP       United States Representative, Dist 27 US REP DISTRICT 27OVER VOTES                            PRECINCT 2007                                          01 
01080020008000000000000000000000000000000000000REP       United States Representative, Dist 27 US REP DISTRICT 27OVER VOTES                            PRECINCT 2008                                          01 
01080020012000000000000000000000000000000000000REP       United States Representative, Dist 27 US REP DISTRICT 27OVER VOTES                            PRECINCT 3012                                          01 
01080020013000000000000000000000000000000000000REP       United States Representative, Dist 27 US REP DISTRICT 27OVER VOTES                            PRECINCT 3013                                          01 
01080020014000000000000000000000000000000000000REP       United States Representative, Dist 27 US REP DISTRICT 27OVER VOTES                            PRECINCT 3014                                          01 
01080020015000000000000000000000000000000000000REP       United States Representative, Dist 27 US REP DISTRICT 27OVER VOTES                            PRECINCT 3015                                          01 
01080020016000000000000000000000000000000000000REP       United States Representative, Dist 27 US REP DISTRICT 27OVER VOTES                            PRECINCT 3016                                          01 
01080030003000210000080000130000000000000000000REP       United States Representative, Dist 27 US REP DISTRICT 27UNDER VOTES                           PRECINCT 1003                                          01 
01080030007000106000060000046000000000000000000REP       United States Representative, Dist 27 US REP DISTRICT 27UNDER VOTES                           PRECINCT 2007                                          01 
01080030008000041000021000020000000000000000000REP       United States Representative, Dist 27 US REP DISTRICT 27UNDER VOTES                           PRECINCT 2008                                          01 
01080030012000049000023000026000000000000000000REP       United States Representative, Dist 27 US REP DISTRICT 27UNDER VOTES                           PRECINCT 3012                                          01 
01080030013000064000048000016000000000000000000REP       United States Representative, Dist 27 US REP DISTRICT 27UNDER VOTES                           PRECINCT 3013                                          01 
01080030014000048000025000023000000000000000000REP       United States Representative, Dist 27 US REP DISTRICT 27UNDER VOTES                           PRECINCT 3014                                          01 
01080030015000049000027000022000000000000000000REP       United States Representative, Dist 27 US REP DISTRICT 27UNDER VOTES                           PRECINCT 3015                                          01 
01080030016000069000044000025000000000000000000REP       United States Representative, Dist 27 US REP DISTRICT 27UNDER VOTES                           PRECINCT 3016                                          01 
01090010001000014000003000011000000000000000000REP       Governor                                                Miriam Martinez                       PRECINCT 1001                                          01 
01090010002000015000005000010000000000000000000REP       Governor                                                Miriam Martinez                       PRECINCT 1002                                          01 
01090010003000017000004000013000000000000000000REP       Governor                                                Miriam Martinez                       PRECINCT 1003                                          01 
01090010004000004000001000003000000000000000000REP       Governor                                                Miriam Martinez                       PRECINCT 1004                                          01 
01090010005000012000005000007000000000000000000REP       Governor                                                Miriam Martinez                       PRECINCT 2005                                          01 
01090010006000003000003000000000000000000000000REP       Governor                                                Miriam Martinez                       PRECINCT 2006                                          01 
01090010007000005000003000002000000000000000000REP       Governor                                                Miriam Martinez                       PRECINCT 2007                                          01 
01090010008000001000001000000000000000000000000REP       Governor                                                Miriam Martinez                       PRECINCT 2008                                          01 
01090010009000002000001000001000000000000000000REP       Governor                                                Miriam Martinez                       PRECINCT 2009                                          01 
01090010010000004000002000002000000000000000000REP       Governor                                                Miriam Martinez                       PRECINCT 2010                                          01 
01090010011000006000002000004000000000000000000REP       Governor                                                Miriam Martinez                       PRECINCT 2011                                          01 
01090010012000001000001000000000000000000000000REP       Governor                                                Miriam Martinez                       PRECINCT 3012                                          01 
01090010013000002000002000000000000000000000000REP       Governor                                                Miriam Martinez                       PRECINCT 3013                                          01 
01090010014000004000003000001000000000000000000REP       Governor                                                Miriam Martinez                       PRECINCT 3014                                          01 
01090010015000005000004000001000000000000000000REP       Governor                                                Miriam Martinez                       PRECINCT 3015                                          01 
01090010016000004000001000003000000000000000000REP       Governor                                                Miriam Martinez                       PRECINCT 3016                                          01 
01090010017000022000006000016000000000000000000REP       Governor                                                Miriam Martinez                       PRECINCT 4017                                          01 
01090010018000005000004000001000000000000000000REP       Governor                                                Miriam Martinez                       PRECINCT 4018                                          01 
01090010019000009000004000005000000000000000000REP       Governor                                                Miriam Martinez                       PRECINCT 4019                                          01 
01090010020000035000010000025000000000000000000REP       Governor                                                Miriam Martinez                       PRECINCT 4020                                          01 
01090010021000003000002000001000000000000000000REP       Governor                                                Miriam Martinez                       PRECINCT 4021                                          01 
01090020001000039000011000028000000000000000000REP       Governor                                                Lisa Fritsch                          PRECINCT 1001                                          01 
01090020002000031000007000024000000000000000000REP       Governor                                                Lisa Fritsch                          PRECINCT 1002                                          01 
01090020003000049000020000029000000000000000000REP       Governor                                                Lisa Fritsch                          PRECINCT 1003                                          01 
01090020004000017000005000012000000000000000000REP       Governor                                                Lisa Fritsch                          PRECINCT 1004                                          01 
01090020005000018000006000012000000000000000000REP       Governor                                                Lisa Fritsch                          PRECINCT 2005                                          01 
01090020006000008000005000003000000000000000000REP       Governor                                                Lisa Fritsch                          PRECINCT 2006                                          01 
01090020007000019000013000006000000000000000000REP       Governor                                                Lisa Fritsch                          PRECINCT 2007                                          01 
01090020008000008000002000006000000000000000000REP       Governor                                                Lisa Fritsch                          PRECINCT 2008                                          01 
01090020009000013000008000005000000000000000000REP       Governor                                                Lisa Fritsch                          PRECINCT 2009                                          01 
01090020010000008000005000003000000000000000000REP       Governor                                                Lisa Fritsch                          PRECINCT 2010                                          01 
01090020011000025000008000017000000000000000000REP       Governor                                                Lisa Fritsch                          PRECINCT 2011                                          01 
01090020012000004000003000001000000000000000000REP       Governor                                                Lisa Fritsch                          PRECINCT 3012                                          01 
01090020013000012000011000001000000000000000000REP       Governor                                                Lisa Fritsch                          PRECINCT 3013                                          01 
01090020014000011000005000006000000000000000000REP       Governor                                                Lisa Fritsch                          PRECINCT 3014                                          01 
01090020015000011000005000006000000000000000000REP       Governor                                                Lisa Fritsch                          PRECINCT 3015                                          01 
01090020016000022000015000007000000000000000000REP       Governor                                                Lisa Fritsch                          PRECINCT 3016                                          01 
01090020017000020000009000011000000000000000000REP       Governor                                                Lisa Fritsch                          PRECINCT 4017                                          01 
01090020018000003000002000001000000000000000000REP       Governor                                                Lisa Fritsch                          PRECINCT 4018                                          01 
01090020019000028000017000011000000000000000000REP       Governor                                                Lisa Fritsch                          PRECINCT 4019                                          01 
01090020020000033000009000024000000000000000000REP       Governor                                                Lisa Fritsch                          PRECINCT 4020                                          01 
01090020021000013000008000005000000000000000000REP       Governor                                                Lisa Fritsch                          PRECINCT 4021                                          01 
01090030001000312000157000155000000000000000000REP       Governor                                                Greg Abbott                           PRECINCT 1001                                          01 
01090030002000203000066000136000001000000000000REP       Governor                                                Greg Abbott                           PRECINCT 1002                                          01 
01090030003000505000184000321000000000000000000REP       Governor                                                Greg Abbott                           PRECINCT 1003                                          01 
01090030004000151000071000080000000000000000000REP       Governor                                                Greg Abbott                           PRECINCT 1004                                          01 
01090030005000304000123000181000000000000000000REP       Governor                                                Greg Abbott                           PRECINCT 2005                                          01 
01090030006000143000077000066000000000000000000REP       Governor                                                Greg Abbott                           PRECINCT 2006                                          01 
01090030007000252000149000103000000000000000000REP       Governor                                                Greg Abbott                           PRECINCT 2007                                          01 
01090030008000105000045000059000001000000000000REP       Governor                                                Greg Abbott                           PRECINCT 2008                                          01 
01090030009000091000036000055000000000000000000REP       Governor                                                Greg Abbott                           PRECINCT 2009                                          01 
01090030010000112000089000023000000000000000000REP       Governor                                                Greg Abbott                           PRECINCT 2010                                          01 
01090030011000176000089000087000000000000000000REP       Governor                                                Greg Abbott                           PRECINCT 2011                                          01 
01090030012000111000051000060000000000000000000REP       Governor                                                Greg Abbott                           PRECINCT 3012                                          01 
01090030013000145000104000041000000000000000000REP       Governor                                                Greg Abbott                           PRECINCT 3013                                          01 
01090030014000135000074000061000000000000000000REP       Governor                                                Greg Abbott                           PRECINCT 3014                                          01 
01090030015000124000062000062000000000000000000REP       Governor                                                Greg Abbott                           PRECINCT 3015                                          01 
01090030016000196000109000087000000000000000000REP       Governor                                                Greg Abbott                           PRECINCT 3016                                          01 
01090030017000245000081000164000000000000000000REP       Governor                                                Greg Abbott                           PRECINCT 4017                                          01 
01090030018000083000027000056000000000000000000REP       Governor                                                Greg Abbott                           PRECINCT 4018                                          01 
01090030019000244000106000138000000000000000000REP       Governor                                                Greg Abbott                           PRECINCT 4019                                          01 
01090030020000323000129000194000000000000000000REP       Governor                                                Greg Abbott                           PRECINCT 4020                                          01 
01090030021000107000071000036000000000000000000REP       Governor                                                Greg Abbott                           PRECINCT 4021                                          01 
01090040001000011000004000007000000000000000000REP       Governor                                                SECEDE Kilgore                        PRECINCT 1001                                          01 
01090040002000003000002000001000000000000000000REP       Governor                                                SECEDE Kilgore                        PRECINCT 1002                                          01 
01090040003000011000007000004000000000000000000REP       Governor                                                SECEDE Kilgore                        PRECINCT 1003                                          01 
01090040004000007000001000006000000000000000000REP       Governor                                                SECEDE Kilgore                        PRECINCT 1004                                          01 
01090040005000001000001000000000000000000000000REP       Governor                                                SECEDE Kilgore                        PRECINCT 2005                                          01 
01090040006000002000001000001000000000000000000REP       Governor                                                SECEDE Kilgore                        PRECINCT 2006                                          01 
01090040007000001000001000000000000000000000000REP       Governor                                                SECEDE Kilgore                        PRECINCT 2007                                          01 
01090040008000004000002000002000000000000000000REP       Governor                                                SECEDE Kilgore                        PRECINCT 2008                                          01 
01090040009000002000001000001000000000000000000REP       Governor                                                SECEDE Kilgore                        PRECINCT 2009                                          01 
01090040010000001000001000000000000000000000000REP       Governor                                                SECEDE Kilgore                        PRECINCT 2010                                          01 
01090040011000007000005000002000000000000000000REP       Governor                                                SECEDE Kilgore                        PRECINCT 2011                                          01 
01090040012000001000001000000000000000000000000REP       Governor                                                SECEDE Kilgore                        PRECINCT 3012                                          01 
01090040013000000000000000000000000000000000000REP       Governor                                                SECEDE Kilgore                        PRECINCT 3013                                          01 
01090040014000005000003000002000000000000000000REP       Governor                                                SECEDE Kilgore                        PRECINCT 3014                                          01 
01090040015000005000001000004000000000000000000REP       Governor                                                SECEDE Kilgore                        PRECINCT 3015                                          01 
01090040016000004000002000002000000000000000000REP       Governor                                                SECEDE Kilgore                        PRECINCT 3016                                          01 
01090040017000001000000000001000000000000000000REP       Governor                                                SECEDE Kilgore                        PRECINCT 4017                                          01 
01090040018000003000001000002000000000000000000REP       Governor                                                SECEDE Kilgore                        PRECINCT 4018                                          01 
01090040019000004000003000001000000000000000000REP       Governor                                                SECEDE Kilgore                        PRECINCT 4019                                          01 
01090040020000006000003000003000000000000000000REP       Governor                                                SECEDE Kilgore                        PRECINCT 4020                                          01 
01090040021000002000001000001000000000000000000REP       Governor                                                SECEDE Kilgore                        PRECINCT 4021                                          01 
01090050001000000000000000000000000000000000000REP       Governor                                                OVER VOTES                            PRECINCT 1001                                          01 
01090050002000000000000000000000000000000000000REP       Governor                                                OVER VOTES                            PRECINCT 1002                                          01 
01090050003000000000000000000000000000000000000REP       Governor                                                OVER VOTES                            PRECINCT 1003                                          01 
01090050004000000000000000000000000000000000000REP       Governor                                                OVER VOTES                            PRECINCT 1004                                          01 
01090050005000000000000000000000000000000000000REP       Governor                                                OVER VOTES                            PRECINCT 2005                                          01 
01090050006000000000000000000000000000000000000REP       Governor                                                OVER VOTES                            PRECINCT 2006                                          01 
01090050007000000000000000000000000000000000000REP       Governor                                                OVER VOTES                            PRECINCT 2007                                          01 
01090050008000000000000000000000000000000000000REP       Governor                                                OVER VOTES                            PRECINCT 2008                                          01 
01090050009000000000000000000000000000000000000REP       Governor                                                OVER VOTES                            PRECINCT 2009                                          01 
01090050010000001000001000000000000000000000000REP       Governor                                                OVER VOTES                            PRECINCT 2010                                          01 
01090050011000000000000000000000000000000000000REP       Governor                                                OVER VOTES                            PRECINCT 2011                                          01 
01090050012000000000000000000000000000000000000REP       Governor                                                OVER VOTES                            PRECINCT 3012                                          01 
01090050013000000000000000000000000000000000000REP       Governor                                                OVER VOTES                            PRECINCT 3013                                          01 
01090050014000000000000000000000000000000000000REP       Governor                                                OVER VOTES                            PRECINCT 3014                                          01 
01090050015000000000000000000000000000000000000REP       Governor                                                OVER VOTES                            PRECINCT 3015                                          01 
01090050016000000000000000000000000000000000000REP       Governor                                                OVER VOTES                            PRECINCT 3016                                          01 
01090050017000000000000000000000000000000000000REP       Governor                                                OVER VOTES                            PRECINCT 4017                                          01 
01090050018000000000000000000000000000000000000REP       Governor                                                OVER VOTES                            PRECINCT 4018                                          01 
01090050019000000000000000000000000000000000000REP       Governor                                                OVER VOTES                            PRECINCT 4019                                          01 
01090050020000000000000000000000000000000000000REP       Governor                                                OVER VOTES                            PRECINCT 4020                                          01 
01090050021000000000000000000000000000000000000REP       Governor                                                OVER VOTES                            PRECINCT 4021                                          01 
01090060001000028000008000020000000000000000000REP       Governor                                                UNDER VOTES                           PRECINCT 1001                                          01 
01090060002000033000008000025000000000000000000REP       Governor                                                UNDER VOTES                           PRECINCT 1002                                          01 
01090060003000025000009000016000000000000000000REP       Governor                                                UNDER VOTES                           PRECINCT 1003                                          01 
01090060004000004000003000001000000000000000000REP       Governor                                                UNDER VOTES                           PRECINCT 1004                                          01 
01090060005000018000010000007000001000000000000REP       Governor                                                UNDER VOTES                           PRECINCT 2005                                          01 
01090060006000007000005000002000000000000000000REP       Governor                                                UNDER VOTES                           PRECINCT 2006                                          01 
01090060007000011000004000007000000000000000000REP       Governor                                                UNDER VOTES                           PRECINCT 2007                                          01 
01090060008000003000002000001000000000000000000REP       Governor                                                UNDER VOTES                           PRECINCT 2008                                          01 
01090060009000005000002000003000000000000000000REP       Governor                                                UNDER VOTES                           PRECINCT 2009                                          01 
01090060010000002000001000001000000000000000000REP       Governor                                                UNDER VOTES                           PRECINCT 2010                                          01 
01090060011000003000001000002000000000000000000REP       Governor                                                UNDER VOTES                           PRECINCT 2011                                          01 
