01040014050000214NONBCWISD BCWISD Director                                         Eugenia Snead                                                                                03 
01040014051000324NONBCWISD BCWISD Director                                         Eugenia Snead                                                                                03 
01040014107000245NONBCWISD BCWISD Director                                         Eugenia Snead                                                                                03 
01040014192000000NONBCWISD BCWISD Director                                         Eugenia Snead                                                                                03 
01040014195000000NONBCWISD BCWISD Director                                         Eugenia Snead                                                                                03 
01040024050000166NONBCWISD BCWISD Director                                         Fernando Richards, Jr.                                                                       03 
01040024051000264NONBCWISD BCWISD Director                                         Fernando Richards, Jr.                                                                       03 
01040024107000189NONBCWISD BCWISD Director                                         Fernando Richards, Jr.                                                                       03 
01040024192000000NONBCWISD BCWISD Director                                         Fernando Richards, Jr.                                                                       03 
01040024195000000NONBCWISD BCWISD Director                                         Fernando Richards, Jr.                                                                       03 
01040034050000219NONBCWISD BCWISD Director                                         Sue Alexander                                                                                03 
01040034051000337NONBCWISD BCWISD Director                                         Sue Alexander                                                                                03 
01040034107000255NONBCWISD BCWISD Director                                         Sue Alexander                                                                                03 
01040034192000000NONBCWISD BCWISD Director                                         Sue Alexander                                                                                03 
01040034195000000NONBCWISD BCWISD Director                                         Sue Alexander                                                                                03 
01040044050000197NONBCWISD BCWISD Director                                         Paul F. Greenwood                                                                            03 
01040044051000250NONBCWISD BCWISD Director                                         Paul F. Greenwood                                                                            03 
01040044107000132NONBCWISD BCWISD Director                                         Paul F. Greenwood                                                                            03 
01040044192000000NONBCWISD BCWISD Director                                         Paul F. Greenwood                                                                            03 
01040044195000000NONBCWISD BCWISD Director                                         Paul F. Greenwood                                                                            03 
01040054050000191NONBCWISD BCWISD Director                                         Melroy Brandt                                                                                03 
01040054051000244NONBCWISD BCWISD Director                                         Melroy Brandt                                                                                03 
01040054107000112NONBCWISD BCWISD Director                                         Melroy Brandt                                                                                03 
01040054192000000NONBCWISD BCWISD Director                                         Melroy Brandt                                                                                03 
01040054195000000NONBCWISD BCWISD Director                                         Melroy Brandt                                                                                03 
01040064050000248NONBCWISD BCWISD Director                                         John Fagin                                                                                   03 
01040064051000333NONBCWISD BCWISD Director                                         John Fagin                                                                                   03 
01040064107000157NONBCWISD BCWISD Director                                         John Fagin                                                                                   03 
01040064192000000NONBCWISD BCWISD Director                                         John Fagin                                                                                   03 
01040064195000000NONBCWISD BCWISD Director                                         John Fagin                                                                                   03 
01040074050000003   BCWISD BCWISD Director                                         OVER VOTES                                                                                   03 
01040074051000000   BCWISD BCWISD Director                                         OVER VOTES                                                                                   03 
01040074107000000   BCWISD BCWISD Director                                         OVER VOTES                                                                                   03 
01040074192000000   BCWISD BCWISD Director                                         OVER VOTES                                                                                   03 
01040074195000000   BCWISD BCWISD Director                                         OVER VOTES                                                                                   03 
01040084050000457   BCWISD BCWISD Director                                         UNDER VOTES                                                                                  03 
01040084051000705   BCWISD BCWISD Director                                         UNDER VOTES                                                                                  03 
01040084107000353   BCWISD BCWISD Director                                         UNDER VOTES                                                                                  03 
01040084192000000   BCWISD BCWISD Director                                         UNDER VOTES                                                                                  03 
01040084195000000   BCWISD BCWISD Director                                         UNDER VOTES                                                                                  03 
