01050014101000054NONESD0010Bexar Emergency Services District                       For                                                                                          01Y
01050014167000000NONESD0010Bexar Emergency Services District                       For                                                                                          01Y
01050024101000016NONESD0010Bexar Emergency Services District                       Against                                                                                      01Y
01050024167000000NONESD0010Bexar Emergency Services District                       Against                                                                                      01Y
01050034101000000   ESD0010Bexar Emergency Services District                       OVER VOTES                                                                                   01Y
01050034167000000   ESD0010Bexar Emergency Services District                       OVER VOTES                                                                                   01Y
01050044101000021   ESD0010Bexar Emergency Services District                       UNDER VOTES                                                                                  01Y
01050044167000000   ESD0010Bexar Emergency Services District                       UNDER VOTES                                                                                  01Y
01060014101000054NONESD0010Bexar Emergency Services District                       For                                                                                          01Y
01060014167000000NONESD0010Bexar Emergency Services District                       For                                                                                          01Y
01060024101000017NONESD0010Bexar Emergency Services District                       Against                                                                                      01Y
01060024167000000NONESD0010Bexar Emergency Services District                       Against                                                                                      01Y
01060034101000000   ESD0010Bexar Emergency Services District                       OVER VOTES                                                                                   01Y
01060034167000000   ESD0010Bexar Emergency Services District                       OVER VOTES                                                                                   01Y
01060044101000020   ESD0010Bexar Emergency Services District                       UNDER VOTES                                                                                  01Y
01060044167000000   ESD0010Bexar Emergency Services District                       UNDER VOTES                                                                                  01Y
01070014053000193NONESD0009Bexar Emergency Services District                       For                                                                                          01Y
01070014060000341NONESD0009Bexar Emergency Services District                       For                                                                                          01Y
01070014061000215NONESD0009Bexar Emergency Services District                       For                                                                                          01Y
01070014092000022NONESD0009Bexar Emergency Services District                       For                                                                                          01Y
01070014152000325NONESD0009Bexar Emergency Services District                       For                                                                                          01Y
01070024053000036NONESD0009Bexar Emergency Services District                       Against                                                                                      01Y
01070024060000018NONESD0009Bexar Emergency Services District                       Against                                                                                      01Y
01070024061000038NONESD0009Bexar Emergency Services District                       Against                                                                                      01Y
01070024092000002NONESD0009Bexar Emergency Services District                       Against                                                                                      01Y
01070024152000053NONESD0009Bexar Emergency Services District                       Against                                                                                      01Y
01070034053000000   ESD0009Bexar Emergency Services District                       OVER VOTES                                                                                   01Y
01070034060000000   ESD0009Bexar Emergency Services District                       OVER VOTES                                                                                   01Y
01070034061000000   ESD0009Bexar Emergency Services District                       OVER VOTES                                                                                   01Y
01070034092000000   ESD0009Bexar Emergency Services District                       OVER VOTES                                                                                   01Y
01070034152000000   ESD0009Bexar Emergency Services District                       OVER VOTES                                                                                   01Y
01070044053000033   ESD0009Bexar Emergency Services District                       UNDER VOTES                                                                                  01Y
01070044060000046   ESD0009Bexar Emergency Services District                       UNDER VOTES                                                                                  01Y
01070044061000026   ESD0009Bexar Emergency Services District                       UNDER VOTES                                                                                  01Y
01070044092000007   ESD0009Bexar Emergency Services District                       UNDER VOTES                                                                                  01Y
01070044152000035   ESD0009Bexar Emergency Services District                       UNDER VOTES                                                                                  01Y
01080014053000166NONESD0009Bexar Emergency Services District                       For                                                                                          01Y
01080014060000323NONESD0009Bexar Emergency Services District                       For                                                                                          01Y
01080014061000194NONESD0009Bexar Emergency Services District                       For                                                                                          01Y
01080014092000023NONESD0009Bexar Emergency Services District                       For                                                                                          01Y
01080014152000306NONESD0009Bexar Emergency Services District                       For                                                                                          01Y
01080024053000056NONESD0009Bexar Emergency Services District                       Against                                                                                      01Y
01080024060000040NONESD0009Bexar Emergency Services District                       Against                                                                                      01Y
01080024061000058NONESD0009Bexar Emergency Services District                       Against                                                                                      01Y
01080024092000003NONESD0009Bexar Emergency Services District                       Against                                                                                      01Y
01080024152000079NONESD0009Bexar Emergency Services District                       Against                                                                                      01Y
01080034053000000   ESD0009Bexar Emergency Services District                       OVER VOTES                                                                                   01Y
01080034060000000   ESD0009Bexar Emergency Services District                       OVER VOTES                                                                                   01Y
01080034061000000   ESD0009Bexar Emergency Services District                       OVER VOTES                                                                                   01Y
01080034092000000   ESD0009Bexar Emergency Services District                       OVER VOTES                                                                                   01Y
01080034152000000   ESD0009Bexar Emergency Services District                       OVER VOTES                                                                                   01Y
01080044053000040   ESD0009Bexar Emergency Services District                       UNDER VOTES                                                                                  01Y
01080044060000042   ESD0009Bexar Emergency Services District                       UNDER VOTES                                                                                  01Y
01080044061000027   ESD0009Bexar Emergency Services District                       UNDER VOTES                                                                                  01Y
01080044092000005   ESD0009Bexar Emergency Services District                       UNDER VOTES                                                                                  01Y
01080044152000028   ESD0009Bexar Emergency Services District                       UNDER VOTES                                                                                  01Y
