01040014050000277NONBCWISD BCWISD Director                                         Eugenia Snead                                                                                03 
01040014051000387NONBCWISD BCWISD Director                                         Eugenia Snead                                                                                03 
01040014107000312NONBCWISD BCWISD Director                                         Eugenia Snead                                                                                03 
01040014192000000NONBCWISD BCWISD Director                                         Eugenia Snead                                                                                03 
01040014195000000NONBCWISD BCWISD Director                                         Eugenia Snead                                                                                03 
01040024050000207NONBCWISD BCWISD Director                                         Fernando Richards, Jr.                                                                       03 
01040024051000313NONBCWISD BCWISD Director                                         Fernando Richards, Jr.                                                                       03 
01040024107000238NONBCWISD BCWISD Director                                         Fernando Richards, Jr.                                                                       03 
01040024192000000NONBCWISD BCWISD Director                                         Fernando Richards, Jr.                                                                       03 
01040024195000000NONBCWISD BCWISD Director                                         Fernando Richards, Jr.                                                                       03 
01040034050000279NONBCWISD BCWISD Director                                         Sue Alexander                                                                                03 
01040034051000414NONBCWISD BCWISD Director                                         Sue Alexander                                                                                03 
01040034107000315NONBCWISD BCWISD Director                                         Sue Alexander                                                                                03 
01040034192000000NONBCWISD BCWISD Director                                         Sue Alexander                                                                                03 
01040034195000000NONBCWISD BCWISD Director                                         Sue Alexander                                                                                03 
01040044050000238NONBCWISD BCWISD Director                                         Paul F. Greenwood                                                                            03 
01040044051000291NONBCWISD BCWISD Director                                         Paul F. Greenwood                                                                            03 
01040044107000152NONBCWISD BCWISD Director                                         Paul F. Greenwood                                                                            03 
01040044192000000NONBCWISD BCWISD Director                                         Paul F. Greenwood                                                                            03 
01040044195000000NONBCWISD BCWISD Director                                         Paul F. Greenwood                                                                            03 
01040054050000231NONBCWISD BCWISD Director                                         Melroy Brandt                                                                                03 
01040054051000289NONBCWISD BCWISD Director                                         Melroy Brandt                                                                                03 
01040054107000132NONBCWISD BCWISD Director                                         Melroy Brandt                                                                                03 
01040054192000000NONBCWISD BCWISD Director                                         Melroy Brandt                                                                                03 
01040054195000000NONBCWISD BCWISD Director                                         Melroy Brandt                                                                                03 
01040064050000306NONBCWISD BCWISD Director                                         John Fagin                                                                                   03 
01040064051000394NONBCWISD BCWISD Director                                         John Fagin                                                                                   03 
01040064107000186NONBCWISD BCWISD Director                                         John Fagin                                                                                   03 
01040064192000000NONBCWISD BCWISD Director                                         John Fagin                                                                                   03 
01040064195000000NONBCWISD BCWISD Director                                         John Fagin                                                                                   03 
01040074050000003   BCWISD BCWISD Director                                         OVER VOTES                                                                                   03 
01040074051000000   BCWISD BCWISD Director                                         OVER VOTES                                                                                   03 
01040074107000000   BCWISD BCWISD Director                                         OVER VOTES                                                                                   03 
01040074192000000   BCWISD BCWISD Director                                         OVER VOTES                                                                                   03 
01040074195000000   BCWISD BCWISD Director                                         OVER VOTES                                                                                   03 
01040084050000655   BCWISD BCWISD Director                                         UNDER VOTES                                                                                  03 
01040084051000885   BCWISD BCWISD Director                                         UNDER VOTES                                                                                  03 
01040084107000483   BCWISD BCWISD Director                                         UNDER VOTES                                                                                  03 
01040084192000000   BCWISD BCWISD Director                                         UNDER VOTES                                                                                  03 
01040084195000000   BCWISD BCWISD Director                                         UNDER VOTES                                                                                  03 
