01050014101000129NONESD0010Bexar Emergency Services District                       For                                                                                          01Y
01050014167000000NONESD0010Bexar Emergency Services District                       For                                                                                          01Y
01050024101000032NONESD0010Bexar Emergency Services District                       Against                                                                                      01Y
01050024167000000NONESD0010Bexar Emergency Services District                       Against                                                                                      01Y
01050034101000000   ESD0010Bexar Emergency Services District                       OVER VOTES                                                                                   01Y
01050034167000000   ESD0010Bexar Emergency Services District                       OVER VOTES                                                                                   01Y
01050044101000044   ESD0010Bexar Emergency Services District                       UNDER VOTES                                                                                  01Y
01050044167000000   ESD0010Bexar Emergency Services District                       UNDER VOTES                                                                                  01Y
01060014101000120NONESD0010Bexar Emergency Services District                       For                                                                                          01Y
01060014167000000NONESD0010Bexar Emergency Services District                       For                                                                                          01Y
01060024101000037NONESD0010Bexar Emergency Services District                       Against                                                                                      01Y
01060024167000000NONESD0010Bexar Emergency Services District                       Against                                                                                      01Y
01060034101000000   ESD0010Bexar Emergency Services District                       OVER VOTES                                                                                   01Y
01060034167000000   ESD0010Bexar Emergency Services District                       OVER VOTES                                                                                   01Y
01060044101000048   ESD0010Bexar Emergency Services District                       UNDER VOTES                                                                                  01Y
01060044167000000   ESD0010Bexar Emergency Services District                       UNDER VOTES                                                                                  01Y
01070014053000311NONESD0009Bexar Emergency Services District                       For                                                                                          01Y
01070014060000481NONESD0009Bexar Emergency Services District                       For                                                                                          01Y
01070014061000369NONESD0009Bexar Emergency Services District                       For                                                                                          01Y
01070014092000024NONESD0009Bexar Emergency Services District                       For                                                                                          01Y
01070014152000477NONESD0009Bexar Emergency Services District                       For                                                                                          01Y
01070024053000062NONESD0009Bexar Emergency Services District                       Against                                                                                      01Y
01070024060000028NONESD0009Bexar Emergency Services District                       Against                                                                                      01Y
01070024061000056NONESD0009Bexar Emergency Services District                       Against                                                                                      01Y
01070024092000002NONESD0009Bexar Emergency Services District                       Against                                                                                      01Y
01070024152000083NONESD0009Bexar Emergency Services District                       Against                                                                                      01Y
01070034053000000   ESD0009Bexar Emergency Services District                       OVER VOTES                                                                                   01Y
01070034060000000   ESD0009Bexar Emergency Services District                       OVER VOTES                                                                                   01Y
01070034061000000   ESD0009Bexar Emergency Services District                       OVER VOTES                                                                                   01Y
01070034092000000   ESD0009Bexar Emergency Services District                       OVER VOTES                                                                                   01Y
01070034152000000   ESD0009Bexar Emergency Services District                       OVER VOTES                                                                                   01Y
01070044053000054   ESD0009Bexar Emergency Services District                       UNDER VOTES                                                                                  01Y
01070044060000060   ESD0009Bexar Emergency Services District                       UNDER VOTES                                                                                  01Y
01070044061000040   ESD0009Bexar Emergency Services District                       UNDER VOTES                                                                                  01Y
01070044092000007   ESD0009Bexar Emergency Services District                       UNDER VOTES                                                                                  01Y
01070044152000046   ESD0009Bexar Emergency Services District                       UNDER VOTES                                                                                  01Y
01080014053000275NONESD0009Bexar Emergency Services District                       For                                                                                          01Y
01080014060000449NONESD0009Bexar Emergency Services District                       For                                                                                          01Y
01080014061000333NONESD0009Bexar Emergency Services District                       For                                                                                          01Y
01080014092000025NONESD0009Bexar Emergency Services District                       For                                                                                          01Y
01080014152000448NONESD0009Bexar Emergency Services District                       For                                                                                          01Y
01080024053000089NONESD0009Bexar Emergency Services District                       Against                                                                                      01Y
01080024060000065NONESD0009Bexar Emergency Services District                       Against                                                                                      01Y
01080024061000091NONESD0009Bexar Emergency Services District                       Against                                                                                      01Y
01080024092000003NONESD0009Bexar Emergency Services District                       Against                                                                                      01Y
01080024152000121NONESD0009Bexar Emergency Services District                       Against                                                                                      01Y
01080034053000000   ESD0009Bexar Emergency Services District                       OVER VOTES                                                                                   01Y
01080034060000000   ESD0009Bexar Emergency Services District                       OVER VOTES                                                                                   01Y
01080034061000000   ESD0009Bexar Emergency Services District                       OVER VOTES                                                                                   01Y
01080034092000000   ESD0009Bexar Emergency Services District                       OVER VOTES                                                                                   01Y
01080034152000000   ESD0009Bexar Emergency Services District                       OVER VOTES                                                                                   01Y
01080044053000063   ESD0009Bexar Emergency Services District                       UNDER VOTES                                                                                  01Y
01080044060000055   ESD0009Bexar Emergency Services District                       UNDER VOTES                                                                                  01Y
01080044061000041   ESD0009Bexar Emergency Services District                       UNDER VOTES                                                                                  01Y
01080044092000005   ESD0009Bexar Emergency Services District                       UNDER VOTES                                                                                  01Y
01080044152000037   ESD0009Bexar Emergency Services District                       UNDER VOTES                                                                                  01Y
