01010010001000167          REGISTERED VOTERS - TOTAL                               REGISTERED VOTERS - TOTAL             PRECINCT 1                                             00 
01010010002000286          REGISTERED VOTERS - TOTAL                               REGISTERED VOTERS - TOTAL             PRECINCT 2                                             00 
01010010003000279          REGISTERED VOTERS - TOTAL                               REGISTERED VOTERS - TOTAL             PRECINCT 3                                             00 
01010010004000310          REGISTERED VOTERS - TOTAL                               REGISTERED VOTERS - TOTAL             PRECINCT 4                                             00 
01010010005000091          REGISTERED VOTERS - TOTAL                               REGISTERED VOTERS - TOTAL             PRECINCT 6                                             00 
01020010001000046          BALLOTS CAST - TOTAL                                    BALLOTS CAST - TOTAL                  PRECINCT 1                                             00 
01020010002000077          BALLOTS CAST - TOTAL                                    BALLOTS CAST - TOTAL                  PRECINCT 2                                             00 
01020010003000116          BALLOTS CAST - TOTAL                                    BALLOTS CAST - TOTAL                  PRECINCT 3                                             00 
01020010004000143          BALLOTS CAST - TOTAL                                    BALLOTS CAST - TOTAL                  PRECINCT 4                                             00 
01020010005000020          BALLOTS CAST - TOTAL                                    BALLOTS CAST - TOTAL                  PRECINCT 6                                             00 
01030010001000043REP       BALLOTS CAST - REPUBLICAN PARTY                         BALLOTS CAST - REPUBLICAN PARTY       PRECINCT 1                                             00 
01030010002000064REP       BALLOTS CAST - REPUBLICAN PARTY                         BALLOTS CAST - REPUBLICAN PARTY       PRECINCT 2                                             00 
01030010003000115REP       BALLOTS CAST - REPUBLICAN PARTY                         BALLOTS CAST - REPUBLICAN PARTY       PRECINCT 3                                             00 
01030010004000136REP       BALLOTS CAST - REPUBLICAN PARTY                         BALLOTS CAST - REPUBLICAN PARTY       PRECINCT 4                                             00 
01030010005000018REP       BALLOTS CAST - REPUBLICAN PARTY                         BALLOTS CAST - REPUBLICAN PARTY       PRECINCT 6                                             00 
01040010001000003DEM       BALLOTS CAST - DEMOCRATIC PARTY                         BALLOTS CAST - DEMOCRATIC PARTY       PRECINCT 1                                             00 
01040010002000013DEM       BALLOTS CAST - DEMOCRATIC PARTY                         BALLOTS CAST - DEMOCRATIC PARTY       PRECINCT 2                                             00 
01040010003000001DEM       BALLOTS CAST - DEMOCRATIC PARTY                         BALLOTS CAST - DEMOCRATIC PARTY       PRECINCT 3                                             00 
01040010004000007DEM       BALLOTS CAST - DEMOCRATIC PARTY                         BALLOTS CAST - DEMOCRATIC PARTY       PRECINCT 4                                             00 
01040010005000002DEM       BALLOTS CAST - DEMOCRATIC PARTY                         BALLOTS CAST - DEMOCRATIC PARTY       PRECINCT 6                                             00 
01050010001000000REP       United States Senator                                   Curt Cleaver                          PRECINCT 1                                             01 
01050010002000005REP       United States Senator                                   Curt Cleaver                          PRECINCT 2                                             01 
01050010003000006REP       United States Senator                                   Curt Cleaver                          PRECINCT 3                                             01 
01050010004000004REP       United States Senator                                   Curt Cleaver                          PRECINCT 4                                             01 
01050010005000001REP       United States Senator                                   Curt Cleaver                          PRECINCT 6                                             01 
01050020001000027REP       United States Senator                                   John Cornyn                           PRECINCT 1                                             01 
01050020002000036REP       United States Senator                                   John Cornyn                           PRECINCT 2                                             01 
01050020003000055REP       United States Senator                                   John Cornyn                           PRECINCT 3                                             01 
01050020004000075REP       United States Senator                                   John Cornyn                           PRECINCT 4                                             01 
01050020005000011REP       United States Senator                                   John Cornyn                           PRECINCT 6                                             01 
01050030001000001REP       United States Senator                                   Steve Stockman                        PRECINCT 1                                             01 
01050030002000006REP       United States Senator                                   Steve Stockman                        PRECINCT 2                                             01 
01050030003000018REP       United States Senator                                   Steve Stockman                        PRECINCT 3                                             01 
01050030004000024REP       United States Senator                                   Steve Stockman                        PRECINCT 4                                             01 
01050030005000002REP       United States Senator                                   Steve Stockman                        PRECINCT 6                                             01 
01050040001000001REP       United States Senator                                   Chris Mapp                            PRECINCT 1                                             01 
01050040002000000REP       United States Senator                                   Chris Mapp                            PRECINCT 2                                             01 
01050040003000000REP       United States Senator                                   Chris Mapp                            PRECINCT 3                                             01 
01050040004000002REP       United States Senator                                   Chris Mapp                            PRECINCT 4                                             01 
01050040005000000REP       United States Senator                                   Chris Mapp                            PRECINCT 6                                             01 
01050050001000000REP       United States Senator                                   Linda Vega                            PRECINCT 1                                             01 
01050050002000001REP       United States Senator                                   Linda Vega                            PRECINCT 2                                             01 
01050050003000005REP       United States Senator                                   Linda Vega                            PRECINCT 3                                             01 
01050050004000002REP       United States Senator                                   Linda Vega                            PRECINCT 4                                             01 
01050050005000000REP       United States Senator                                   Linda Vega                            PRECINCT 6                                             01 
01050060001000003REP       United States Senator                                   Dwayne Stovall                        PRECINCT 1                                             01 
01050060002000004REP       United States Senator                                   Dwayne Stovall                        PRECINCT 2                                             01 
01050060003000007REP       United States Senator                                   Dwayne Stovall                        PRECINCT 3                                             01 
01050060004000011REP       United States Senator                                   Dwayne Stovall                        PRECINCT 4                                             01 
01050060005000003REP       United States Senator                                   Dwayne Stovall                        PRECINCT 6                                             01 
01050070001000000REP       United States Senator                                   Ken Cope                              PRECINCT 1                                             01 
01050070002000007REP       United States Senator                                   Ken Cope                              PRECINCT 2                                             01 
01050070003000008REP       United States Senator                                   Ken Cope                              PRECINCT 3                                             01 
01050070004000006REP       United States Senator                                   Ken Cope                              PRECINCT 4                                             01 
01050070005000000REP       United States Senator                                   Ken Cope                              PRECINCT 6                                             01 
01050080001000001REP       United States Senator                                   Reid Reasor                           PRECINCT 1                                             01 
01050080002000001REP       United States Senator                                   Reid Reasor                           PRECINCT 2                                             01 
01050080003000002REP       United States Senator                                   Reid Reasor                           PRECINCT 3                                             01 
01050080004000001REP       United States Senator                                   Reid Reasor                           PRECINCT 4                                             01 
01050080005000000REP       United States Senator                                   Reid Reasor                           PRECINCT 6                                             01 
01050090001000000REP       United States Senator                                   OVER VOTES                            PRECINCT 1                                             01 
01050090002000000REP       United States Senator                                   OVER VOTES                            PRECINCT 2                                             01 
01050090003000000REP       United States Senator                                   OVER VOTES                            PRECINCT 3                                             01 
01050090004000000REP       United States Senator                                   OVER VOTES                            PRECINCT 4                                             01 
01050090005000000REP       United States Senator                                   OVER VOTES                            PRECINCT 6                                             01 
01050100001000010REP       United States Senator                                   UNDER VOTES                           PRECINCT 1                                             01 
01050100002000004REP       United States Senator                                   UNDER VOTES                           PRECINCT 2                                             01 
01050100003000014REP       United States Senator                                   UNDER VOTES                           PRECINCT 3                                             01 
01050100004000011REP       United States Senator                                   UNDER VOTES                           PRECINCT 4                                             01 
01050100005000001REP       United States Senator                                   UNDER VOTES                           PRECINCT 6                                             01 
01060010001000005REP       United States Representative, Dist 13                   Pam Barlow                            PRECINCT 1                                             01 
01060010002000005REP       United States Representative, Dist 13                   Pam Barlow                            PRECINCT 2                                             01 
01060010003000019REP       United States Representative, Dist 13                   Pam Barlow                            PRECINCT 3                                             01 
01060010004000007REP       United States Representative, Dist 13                   Pam Barlow                            PRECINCT 4                                             01 
01060010005000003REP       United States Representative, Dist 13                   Pam Barlow                            PRECINCT 6                                             01 
01060020001000002REP       United States Representative, Dist 13                   Elaine Hays                           PRECINCT 1                                             01 
01060020002000007REP       United States Representative, Dist 13                   Elaine Hays                           PRECINCT 2                                             01 
01060020003000009REP       United States Representative, Dist 13                   Elaine Hays                           PRECINCT 3                                             01 
01060020004000015REP       United States Representative, Dist 13                   Elaine Hays                           PRECINCT 4                                             01 
01060020005000002REP       United States Representative, Dist 13                   Elaine Hays                           PRECINCT 6                                             01 
01060030001000031REP       United States Representative, Dist 13                   Mac Thornberry                        PRECINCT 1                                             01 
01060030002000049REP       United States Representative, Dist 13                   Mac Thornberry                        PRECINCT 2                                             01 
01060030003000081REP       United States Representative, Dist 13                   Mac Thornberry                        PRECINCT 3                                             01 
01060030004000110REP       United States Representative, Dist 13                   Mac Thornberry                        PRECINCT 4                                             01 
01060030005000011REP       United States Representative, Dist 13                   Mac Thornberry                        PRECINCT 6                                             01 
01060040001000000REP       United States Representative, Dist 13                   OVER VOTES                            PRECINCT 1                                             01 
01060040002000000REP       United States Representative, Dist 13                   OVER VOTES                            PRECINCT 2                                             01 
01060040003000000REP       United States Representative, Dist 13                   OVER VOTES                            PRECINCT 3                                             01 
01060040004000000REP       United States Representative, Dist 13                   OVER VOTES                            PRECINCT 4                                             01 
01060040005000000REP       United States Representative, Dist 13                   OVER VOTES                            PRECINCT 6                                             01 
01060050001000005REP       United States Representative, Dist 13                   UNDER VOTES                           PRECINCT 1                                             01 
01060050002000003REP       United States Representative, Dist 13                   UNDER VOTES                           PRECINCT 2                                             01 
01060050003000006REP       United States Representative, Dist 13                   UNDER VOTES                           PRECINCT 3                                             01 
01060050004000004REP       United States Representative, Dist 13                   UNDER VOTES                           PRECINCT 4                                             01 
01060050005000002REP       United States Representative, Dist 13                   UNDER VOTES                           PRECINCT 6                                             01 
01070010001000000REP       Governor                                                Miriam Martinez                       PRECINCT 1                                             01 
01070010002000001REP       Governor                                                Miriam Martinez                       PRECINCT 2                                             01 
01070010003000003REP       Governor                                                Miriam Martinez                       PRECINCT 3                                             01 
01070010004000000REP       Governor                                                Miriam Martinez                       PRECINCT 4                                             01 
01070010005000000REP       Governor                                                Miriam Martinez                       PRECINCT 6                                             01 
01070020001000036REP       Governor                                                Greg Abbott                           PRECINCT 1                                             01 
01070020002000055REP       Governor                                                Greg Abbott                           PRECINCT 2                                             01 
01070020003000096REP       Governor                                                Greg Abbott                           PRECINCT 3                                             01 
01070020004000111REP       Governor                                                Greg Abbott                           PRECINCT 4                                             01 
01070020005000012REP       Governor                                                Greg Abbott                           PRECINCT 6                                             01 
01070030001000001REP       Governor                                                SECEDE Kilgore                        PRECINCT 1                                             01 
01070030002000005REP       Governor                                                SECEDE Kilgore                        PRECINCT 2                                             01 
01070030003000003REP       Governor                                                SECEDE Kilgore                        PRECINCT 3                                             01 
01070030004000007REP       Governor                                                SECEDE Kilgore                        PRECINCT 4                                             01 
01070030005000001REP       Governor                                                SECEDE Kilgore                        PRECINCT 6                                             01 
01070040001000001REP       Governor                                                Lisa Fritsch                          PRECINCT 1                                             01 
01070040002000000REP       Governor                                                Lisa Fritsch                          PRECINCT 2                                             01 
01070040003000003REP       Governor                                                Lisa Fritsch                          PRECINCT 3                                             01 
01070040004000003REP       Governor                                                Lisa Fritsch                          PRECINCT 4                                             01 
01070040005000001REP       Governor                                                Lisa Fritsch                          PRECINCT 6                                             01 
01070050001000000REP       Governor                                                OVER VOTES                            PRECINCT 1                                             01 
01070050002000000REP       Governor                                                OVER VOTES                            PRECINCT 2                                             01 
01070050003000000REP       Governor                                                OVER VOTES                            PRECINCT 3                                             01 
01070050004000000REP       Governor                                                OVER VOTES                            PRECINCT 4                                             01 
01070050005000000REP       Governor                                                OVER VOTES                            PRECINCT 6                                             01 
01070060001000005REP       Governor                                                UNDER VOTES                           PRECINCT 1                                             01 
01070060002000003REP       Governor                                                UNDER VOTES                           PRECINCT 2                                             01 
01070060003000010REP       Governor                                                UNDER VOTES                           PRECINCT 3                                             01 
01070060004000015REP       Governor                                                UNDER VOTES                           PRECINCT 4                                             01 
01070060005000004REP       Governor                                                UNDER VOTES                           PRECINCT 6                                             01 
01080010001000003REP       Lieutenant Governor                                     Jerry Patterson                       PRECINCT 1                                             01 
01080010002000010REP       Lieutenant Governor                                     Jerry Patterson                       PRECINCT 2                                             01 
01080010003000009REP       Lieutenant Governor                                     Jerry Patterson                       PRECINCT 3                                             01 
01080010004000013REP       Lieutenant Governor                                     Jerry Patterson                       PRECINCT 4                                             01 
01080010005000002REP       Lieutenant Governor                                     Jerry Patterson                       PRECINCT 6                                             01 
01080020001000014REP       Lieutenant Governor                                     David Dewhurst                        PRECINCT 1                                             01 
01080020002000017REP       Lieutenant Governor                                     David Dewhurst                        PRECINCT 2                                             01 
01080020003000045REP       Lieutenant Governor                                     David Dewhurst                        PRECINCT 3                                             01 
01080020004000046REP       Lieutenant Governor                                     David Dewhurst                        PRECINCT 4                                             01 
01080020005000008REP       Lieutenant Governor                                     David Dewhurst                        PRECINCT 6                                             01 
01080030001000011REP       Lieutenant Governor                                     Dan Patrick                           PRECINCT 1                                             01 
01080030002000013REP       Lieutenant Governor                                     Dan Patrick                           PRECINCT 2                                             01 
01080030003000023REP       Lieutenant Governor                                     Dan Patrick                           PRECINCT 3                                             01 
01080030004000025REP       Lieutenant Governor                                     Dan Patrick                           PRECINCT 4                                             01 
01080030005000001REP       Lieutenant Governor                                     Dan Patrick                           PRECINCT 6                                             01 
01080040001000008REP       Lieutenant Governor                                     Todd Staples                          PRECINCT 1                                             01 
01080040002000019REP       Lieutenant Governor                                     Todd Staples                          PRECINCT 2                                             01 
01080040003000026REP       Lieutenant Governor                                     Todd Staples                          PRECINCT 3                                             01 
01080040004000043REP       Lieutenant Governor                                     Todd Staples                          PRECINCT 4                                             01 
01080040005000005REP       Lieutenant Governor                                     Todd Staples                          PRECINCT 6                                             01 
01080050001000000REP       Lieutenant Governor                                     OVER VOTES                            PRECINCT 1                                             01 
01080050002000000REP       Lieutenant Governor                                     OVER VOTES                            PRECINCT 2                                             01 
01080050003000000REP       Lieutenant Governor                                     OVER VOTES                            PRECINCT 3                                             01 
01080050004000000REP       Lieutenant Governor                                     OVER VOTES                            PRECINCT 4                                             01 
01080050005000000REP       Lieutenant Governor                                     OVER VOTES                            PRECINCT 6                                             01 
01080060001000007REP       Lieutenant Governor                                     UNDER VOTES                           PRECINCT 1                                             01 
01080060002000005REP       Lieutenant Governor                                     UNDER VOTES                           PRECINCT 2                                             01 
01080060003000012REP       Lieutenant Governor                                     UNDER VOTES                           PRECINCT 3                                             01 
01080060004000009REP       Lieutenant Governor                                     UNDER VOTES                           PRECINCT 4                                             01 
01080060005000002REP       Lieutenant Governor                                     UNDER VOTES                           PRECINCT 6                                             01 
01090010001000011REP       Attorney General                                        Ken Paxton                            PRECINCT 1                                             01 
01090010002000022REP       Attorney General                                        Ken Paxton                            PRECINCT 2                                             01 
01090010003000033REP       Attorney General                                        Ken Paxton                            PRECINCT 3                                             01 
01090010004000046REP       Attorney General                                        Ken Paxton                            PRECINCT 4                                             01 
01090010005000005REP       Attorney General                                        Ken Paxton                            PRECINCT 6                                             01 
01090020001000016REP       Attorney General                                        Barry Smitherman                      PRECINCT 1                                             01 
01090020002000014REP       Attorney General                                        Barry Smitherman                      PRECINCT 2                                             01 
01090020003000032REP       Attorney General                                        Barry Smitherman                      PRECINCT 3                                             01 
01090020004000033REP       Attorney General                                        Barry Smitherman                      PRECINCT 4                                             01 
01090020005000006REP       Attorney General                                        Barry Smitherman                      PRECINCT 6                                             01 
01090030001000006REP       Attorney General                                        Dan Branch                            PRECINCT 1                                             01 
01090030002000022REP       Attorney General                                        Dan Branch                            PRECINCT 2                                             01 
01090030003000035REP       Attorney General                                        Dan Branch                            PRECINCT 3                                             01 
01090030004000041REP       Attorney General                                        Dan Branch                            PRECINCT 4                                             01 
01090030005000005REP       Attorney General                                        Dan Branch                            PRECINCT 6                                             01 
01090040001000000REP       Attorney General                                        OVER VOTES                            PRECINCT 1                                             01 
01090040002000000REP       Attorney General                                        OVER VOTES                            PRECINCT 2                                             01 
01090040003000000REP       Attorney General                                        OVER VOTES                            PRECINCT 3                                             01 
01090040004000000REP       Attorney General                                        OVER VOTES                            PRECINCT 4                                             01 
01090040005000000REP       Attorney General                                        OVER VOTES                            PRECINCT 6                                             01 
01090050001000010REP       Attorney General                                        UNDER VOTES                           PRECINCT 1                                             01 
01090050002000006REP       Attorney General                                        UNDER VOTES                           PRECINCT 2                                             01 
01090050003000015REP       Attorney General                                        UNDER VOTES                           PRECINCT 3                                             01 
01090050004000016REP       Attorney General                                        UNDER VOTES                           PRECINCT 4                                             01 
01090050005000002REP       Attorney General                                        UNDER VOTES                           PRECINCT 6                                             01 
01100010001000001REP       Comptroller of Public Accounts                          Raul Torres                           PRECINCT 1                                             01 
01100010002000001REP       Comptroller of Public Accounts                          Raul Torres                           PRECINCT 2                                             01 
01100010003000007REP       Comptroller of Public Accounts                          Raul Torres                           PRECINCT 3                                             01 
01100010004000006REP       Comptroller of Public Accounts                          Raul Torres                           PRECINCT 4                                             01 
01100010005000000REP       Comptroller of Public Accounts                          Raul Torres                           PRECINCT 6                                             01 
01100020001000012REP       Comptroller of Public Accounts                          Harvey Hilderbran                     PRECINCT 1                                             01 
01100020002000014REP       Comptroller of Public Accounts                          Harvey Hilderbran                     PRECINCT 2                                             01 
01100020003000033REP       Comptroller of Public Accounts                          Harvey Hilderbran                     PRECINCT 3                                             01 
01100020004000048REP       Comptroller of Public Accounts                          Harvey Hilderbran                     PRECINCT 4                                             01 
01100020005000005REP       Comptroller of Public Accounts                          Harvey Hilderbran                     PRECINCT 6                                             01 
01100030001000003REP       Comptroller of Public Accounts                          Debra Medina                          PRECINCT 1                                             01 
01100030002000009REP       Comptroller of Public Accounts                          Debra Medina                          PRECINCT 2                                             01 
01100030003000013REP       Comptroller of Public Accounts                          Debra Medina                          PRECINCT 3                                             01 
01100030004000015REP       Comptroller of Public Accounts                          Debra Medina                          PRECINCT 4                                             01 
01100030005000005REP       Comptroller of Public Accounts                          Debra Medina                          PRECINCT 6                                             01 
01100040001000009REP       Comptroller of Public Accounts                          Glenn Hegar                           PRECINCT 1                                             01 
01100040002000030REP       Comptroller of Public Accounts                          Glenn Hegar                           PRECINCT 2                                             01 
01100040003000036REP       Comptroller of Public Accounts                          Glenn Hegar                           PRECINCT 3                                             01 
01100040004000041REP       Comptroller of Public Accounts                          Glenn Hegar                           PRECINCT 4                                             01 
01100040005000003REP       Comptroller of Public Accounts                          Glenn Hegar                           PRECINCT 6                                             01 
01100050001000000REP       Comptroller of Public Accounts                          OVER VOTES                            PRECINCT 1                                             01 
01100050002000000REP       Comptroller of Public Accounts                          OVER VOTES                            PRECINCT 2                                             01 
01100050003000000REP       Comptroller of Public Accounts                          OVER VOTES                            PRECINCT 3                                             01 
01100050004000000REP       Comptroller of Public Accounts                          OVER VOTES                            PRECINCT 4                                             01 
01100050005000000REP       Comptroller of Public Accounts                          OVER VOTES                            PRECINCT 6                                             01 
01100060001000018REP       Comptroller of Public Accounts                          UNDER VOTES                           PRECINCT 1                                             01 
01100060002000010REP       Comptroller of Public Accounts                          UNDER VOTES                           PRECINCT 2                                             01 
01100060003000026REP       Comptroller of Public Accounts                          UNDER VOTES                           PRECINCT 3                                             01 
01100060004000026REP       Comptroller of Public Accounts                          UNDER VOTES                           PRECINCT 4                                             01 
01100060005000005REP       Comptroller of Public Accounts                          UNDER VOTES                           PRECINCT 6                                             01 
01110010001000007REP       Commissioner of the General Land Office                 David Watts                           PRECINCT 1                                             01 
01110010002000018REP       Commissioner of the General Land Office                 David Watts                           PRECINCT 2                                             01 
01110010003000033REP       Commissioner of the General Land Office                 David Watts                           PRECINCT 3                                             01 
01110010004000037REP       Commissioner of the General Land Office                 David Watts                           PRECINCT 4                                             01 
01110010005000005REP       Commissioner of the General Land Office                 David Watts                           PRECINCT 6                                             01 
01110020001000020REP       Commissioner of the General Land Office                 George P. Bush                        PRECINCT 1                                             01 
01110020002000037REP       Commissioner of the General Land Office                 George P. Bush                        PRECINCT 2                                             01 
01110020003000064REP       Commissioner of the General Land Office                 George P. Bush                        PRECINCT 3                                             01 
01110020004000076REP       Commissioner of the General Land Office                 George P. Bush                        PRECINCT 4                                             01 
01110020005000009REP       Commissioner of the General Land Office                 George P. Bush                        PRECINCT 6                                             01 
01110030001000000REP       Commissioner of the General Land Office                 OVER VOTES                            PRECINCT 1                                             01 
01110030002000000REP       Commissioner of the General Land Office                 OVER VOTES                            PRECINCT 2                                             01 
01110030003000000REP       Commissioner of the General Land Office                 OVER VOTES                            PRECINCT 3                                             01 
01110030004000000REP       Commissioner of the General Land Office                 OVER VOTES                            PRECINCT 4                                             01 
01110030005000000REP       Commissioner of the General Land Office                 OVER VOTES                            PRECINCT 6                                             01 
01110040001000016REP       Commissioner of the General Land Office                 UNDER VOTES                           PRECINCT 1                                             01 
01110040002000009REP       Commissioner of the General Land Office                 UNDER VOTES                           PRECINCT 2                                             01 
01110040003000018REP       Commissioner of the General Land Office                 UNDER VOTES                           PRECINCT 3                                             01 
01110040004000023REP       Commissioner of the General Land Office                 UNDER VOTES                           PRECINCT 4                                             01 
01110040005000004REP       Commissioner of the General Land Office                 UNDER VOTES                           PRECINCT 6                                             01 
01120010001000010REP       Commissioner of Agriculture                             Tommy Merritt                         PRECINCT 1                                             01 
01120010002000019REP       Commissioner of Agriculture                             Tommy Merritt                         PRECINCT 2                                             01 
01120010003000034REP       Commissioner of Agriculture                             Tommy Merritt                         PRECINCT 3                                             01 
01120010004000032REP       Commissioner of Agriculture                             Tommy Merritt                         PRECINCT 4                                             01 
01120010005000008REP       Commissioner of Agriculture                             Tommy Merritt                         PRECINCT 6                                             01 
01120020001000003REP       Commissioner of Agriculture                             Joe Cotten                            PRECINCT 1                                             01 
01120020002000006REP       Commissioner of Agriculture                             Joe Cotten                            PRECINCT 2                                             01 
01120020003000016REP       Commissioner of Agriculture                             Joe Cotten                            PRECINCT 3                                             01 
01120020004000018REP       Commissioner of Agriculture                             Joe Cotten                            PRECINCT 4                                             01 
01120020005000003REP       Commissioner of Agriculture                             Joe Cotten                            PRECINCT 6                                             01 
01120030001000007REP       Commissioner of Agriculture                             Sid Miller                            PRECINCT 1                                             01 
01120030002000022REP       Commissioner of Agriculture                             Sid Miller                            PRECINCT 2                                             01 
01120030003000019REP       Commissioner of Agriculture                             Sid Miller                            PRECINCT 3                                             01 
01120030004000032REP       Commissioner of Agriculture                             Sid Miller                            PRECINCT 4                                             01 
01120030005000000REP       Commissioner of Agriculture                             Sid Miller                            PRECINCT 6                                             01 
01120040001000004REP       Commissioner of Agriculture                             J. Allen Carnes                       PRECINCT 1                                             01 
01120040002000005REP       Commissioner of Agriculture                             J. Allen Carnes                       PRECINCT 2                                             01 
01120040003000019REP       Commissioner of Agriculture                             J. Allen Carnes                       PRECINCT 3                                             01 
01120040004000021REP       Commissioner of Agriculture                             J. Allen Carnes                       PRECINCT 4                                             01 
01120040005000001REP       Commissioner of Agriculture                             J. Allen Carnes                       PRECINCT 6                                             01 
01120050001000002REP       Commissioner of Agriculture                             Eric Opiela                           PRECINCT 1                                             01 
01120050002000000REP       Commissioner of Agriculture                             Eric Opiela                           PRECINCT 2                                             01 
01120050003000005REP       Commissioner of Agriculture                             Eric Opiela                           PRECINCT 3                                             01 
01120050004000006REP       Commissioner of Agriculture                             Eric Opiela                           PRECINCT 4                                             01 
01120050005000000REP       Commissioner of Agriculture                             Eric Opiela                           PRECINCT 6                                             01 
01120060001000000REP       Commissioner of Agriculture                             OVER VOTES                            PRECINCT 1                                             01 
01120060002000000REP       Commissioner of Agriculture                             OVER VOTES                            PRECINCT 2                                             01 
01120060003000000REP       Commissioner of Agriculture                             OVER VOTES                            PRECINCT 3                                             01 
01120060004000000REP       Commissioner of Agriculture                             OVER VOTES                            PRECINCT 4                                             01 
01120060005000000REP       Commissioner of Agriculture                             OVER VOTES                            PRECINCT 6                                             01 
01120070001000017REP       Commissioner of Agriculture                             UNDER VOTES                           PRECINCT 1                                             01 
01120070002000012REP       Commissioner of Agriculture                             UNDER VOTES                           PRECINCT 2                                             01 
01120070003000022REP       Commissioner of Agriculture                             UNDER VOTES                           PRECINCT 3                                             01 
01120070004000027REP       Commissioner of Agriculture                             UNDER VOTES                           PRECINCT 4                                             01 
01120070005000006REP       Commissioner of Agriculture                             UNDER VOTES                           PRECINCT 6                                             01 
01130010001000001REP       Railroad Commissioner                                   Becky Berger                          PRECINCT 1                                             01 
01130010002000005REP       Railroad Commissioner                                   Becky Berger                          PRECINCT 2                                             01 
01130010003000019REP       Railroad Commissioner                                   Becky Berger                          PRECINCT 3                                             01 
01130010004000013REP       Railroad Commissioner                                   Becky Berger                          PRECINCT 4                                             01 
01130010005000005REP       Railroad Commissioner                                   Becky Berger                          PRECINCT 6                                             01 
01130020001000001REP       Railroad Commissioner                                   Malachi Boyuls                        PRECINCT 1                                             01 
01130020002000007REP       Railroad Commissioner                                   Malachi Boyuls                        PRECINCT 2                                             01 
01130020003000009REP       Railroad Commissioner                                   Malachi Boyuls                        PRECINCT 3                                             01 
01130020004000013REP       Railroad Commissioner                                   Malachi Boyuls                        PRECINCT 4                                             01 
01130020005000002REP       Railroad Commissioner                                   Malachi Boyuls                        PRECINCT 6                                             01 
01130030001000013REP       Railroad Commissioner                                   Wayne Christian                       PRECINCT 1                                             01 
01130030002000027REP       Railroad Commissioner                                   Wayne Christian                       PRECINCT 2                                             01 
01130030003000047REP       Railroad Commissioner                                   Wayne Christian                       PRECINCT 3                                             01 
01130030004000056REP       Railroad Commissioner                                   Wayne Christian                       PRECINCT 4                                             01 
01130030005000002REP       Railroad Commissioner                                   Wayne Christian                       PRECINCT 6                                             01 
01130040001000007REP       Railroad Commissioner                                   Ryan Sitton                           PRECINCT 1                                             01 
01130040002000012REP       Railroad Commissioner                                   Ryan Sitton                           PRECINCT 2                                             01 
01130040003000014REP       Railroad Commissioner                                   Ryan Sitton                           PRECINCT 3                                             01 
01130040004000018REP       Railroad Commissioner                                   Ryan Sitton                           PRECINCT 4                                             01 
01130040005000001REP       Railroad Commissioner                                   Ryan Sitton                           PRECINCT 6                                             01 
01130050001000000REP       Railroad Commissioner                                   OVER VOTES                            PRECINCT 1                                             01 
01130050002000000REP       Railroad Commissioner                                   OVER VOTES                            PRECINCT 2                                             01 
01130050003000000REP       Railroad Commissioner                                   OVER VOTES                            PRECINCT 3                                             01 
01130050004000000REP       Railroad Commissioner                                   OVER VOTES                            PRECINCT 4                                             01 
01130050005000000REP       Railroad Commissioner                                   OVER VOTES                            PRECINCT 6                                             01 
01130060001000021REP       Railroad Commissioner                                   UNDER VOTES                           PRECINCT 1                                             01 
01130060002000013REP       Railroad Commissioner                                   UNDER VOTES                           PRECINCT 2                                             01 
01130060003000026REP       Railroad Commissioner                                   UNDER VOTES                           PRECINCT 3                                             01 
01130060004000036REP       Railroad Commissioner                                   UNDER VOTES                           PRECINCT 4                                             01 
01130060005000008REP       Railroad Commissioner                                   UNDER VOTES                           PRECINCT 6                                             01 
01140010001000012REP       Chief Justice, Supreme Court                            Robert Talton                         PRECINCT 1                                             01 
01140010002000021REP       Chief Justice, Supreme Court                            Robert Talton                         PRECINCT 2                                             01 
01140010003000050REP       Chief Justice, Supreme Court                            Robert Talton                         PRECINCT 3                                             01 
01140010004000041REP       Chief Justice, Supreme Court                            Robert Talton                         PRECINCT 4                                             01 
01140010005000006REP       Chief Justice, Supreme Court                            Robert Talton                         PRECINCT 6                                             01 
01140020001000011REP       Chief Justice, Supreme Court                            Nathan Hecht                          PRECINCT 1                                             01 
01140020002000025REP       Chief Justice, Supreme Court                            Nathan Hecht                          PRECINCT 2                                             01 
01140020003000035REP       Chief Justice, Supreme Court                            Nathan Hecht                          PRECINCT 3                                             01 
01140020004000056REP       Chief Justice, Supreme Court                            Nathan Hecht                          PRECINCT 4                                             01 
01140020005000007REP       Chief Justice, Supreme Court                            Nathan Hecht                          PRECINCT 6                                             01 
01140030001000000REP       Chief Justice, Supreme Court                            OVER VOTES                            PRECINCT 1                                             01 
01140030002000000REP       Chief Justice, Supreme Court                            OVER VOTES                            PRECINCT 2                                             01 
01140030003000000REP       Chief Justice, Supreme Court                            OVER VOTES                            PRECINCT 3                                             01 
01140030004000000REP       Chief Justice, Supreme Court                            OVER VOTES                            PRECINCT 4                                             01 
01140030005000000REP       Chief Justice, Supreme Court                            OVER VOTES                            PRECINCT 6                                             01 
01140040001000020REP       Chief Justice, Supreme Court                            UNDER VOTES                           PRECINCT 1                                             01 
01140040002000018REP       Chief Justice, Supreme Court                            UNDER VOTES                           PRECINCT 2                                             01 
01140040003000030REP       Chief Justice, Supreme Court                            UNDER VOTES                           PRECINCT 3                                             01 
01140040004000039REP       Chief Justice, Supreme Court                            UNDER VOTES                           PRECINCT 4                                             01 
01140040005000005REP       Chief Justice, Supreme Court                            UNDER VOTES                           PRECINCT 6                                             01 
01150010001000007REP       Supreme Court, Place 6, Unexpired Term                  Joe Pool                              PRECINCT 1                                             01 
01150010002000012REP       Supreme Court, Place 6, Unexpired Term                  Joe Pool                              PRECINCT 2                                             01 
01150010003000029REP       Supreme Court, Place 6, Unexpired Term                  Joe Pool                              PRECINCT 3                                             01 
01150010004000021REP       Supreme Court, Place 6, Unexpired Term                  Joe Pool                              PRECINCT 4                                             01 
01150010005000006REP       Supreme Court, Place 6, Unexpired Term                  Joe Pool                              PRECINCT 6                                             01 
01150020001000013REP       Supreme Court, Place 6, Unexpired Term                  Jeff Brown                            PRECINCT 1                                             01 
01150020002000036REP       Supreme Court, Place 6, Unexpired Term                  Jeff Brown                            PRECINCT 2                                             01 
01150020003000055REP       Supreme Court, Place 6, Unexpired Term                  Jeff Brown                            PRECINCT 3                                             01 
01150020004000078REP       Supreme Court, Place 6, Unexpired Term                  Jeff Brown                            PRECINCT 4                                             01 
01150020005000005REP       Supreme Court, Place 6, Unexpired Term                  Jeff Brown                            PRECINCT 6                                             01 
01150030001000000REP       Supreme Court, Place 6, Unexpired Term                  OVER VOTES                            PRECINCT 1                                             01 
01150030002000000REP       Supreme Court, Place 6, Unexpired Term                  OVER VOTES                            PRECINCT 2                                             01 
01150030003000000REP       Supreme Court, Place 6, Unexpired Term                  OVER VOTES                            PRECINCT 3                                             01 
01150030004000000REP       Supreme Court, Place 6, Unexpired Term                  OVER VOTES                            PRECINCT 4                                             01 
01150030005000000REP       Supreme Court, Place 6, Unexpired Term                  OVER VOTES                            PRECINCT 6                                             01 
01150040001000023REP       Supreme Court, Place 6, Unexpired Term                  UNDER VOTES                           PRECINCT 1                                             01 
01150040002000016REP       Supreme Court, Place 6, Unexpired Term                  UNDER VOTES                           PRECINCT 2                                             01 
01150040003000031REP       Supreme Court, Place 6, Unexpired Term                  UNDER VOTES                           PRECINCT 3                                             01 
01150040004000037REP       Supreme Court, Place 6, Unexpired Term                  UNDER VOTES                           PRECINCT 4                                             01 
01150040005000007REP       Supreme Court, Place 6, Unexpired Term                  UNDER VOTES                           PRECINCT 6                                             01 
01160010001000021REP       Justice, Supreme Court, Place 7                         Jeff Boyd                             PRECINCT 1                                             01 
01160010002000045REP       Justice, Supreme Court, Place 7                         Jeff Boyd                             PRECINCT 2                                             01 
01160010003000072REP       Justice, Supreme Court, Place 7                         Jeff Boyd                             PRECINCT 3                                             01 
01160010004000086REP       Justice, Supreme Court, Place 7                         Jeff Boyd                             PRECINCT 4                                             01 
01160010005000011REP       Justice, Supreme Court, Place 7                         Jeff Boyd                             PRECINCT 6                                             01 
01160020001000000REP       Justice, Supreme Court, Place 7                         OVER VOTES                            PRECINCT 1                                             01 
01160020002000000REP       Justice, Supreme Court, Place 7                         OVER VOTES                            PRECINCT 2                                             01 
01160020003000000REP       Justice, Supreme Court, Place 7                         OVER VOTES                            PRECINCT 3                                             01 
01160020004000000REP       Justice, Supreme Court, Place 7                         OVER VOTES                            PRECINCT 4                                             01 
01160020005000000REP       Justice, Supreme Court, Place 7                         OVER VOTES                            PRECINCT 6                                             01 
01160030001000022REP       Justice, Supreme Court, Place 7                         UNDER VOTES                           PRECINCT 1                                             01 
01160030002000019REP       Justice, Supreme Court, Place 7                         UNDER VOTES                           PRECINCT 2                                             01 
01160030003000043REP       Justice, Supreme Court, Place 7                         UNDER VOTES                           PRECINCT 3                                             01 
01160030004000050REP       Justice, Supreme Court, Place 7                         UNDER VOTES                           PRECINCT 4                                             01 
01160030005000007REP       Justice, Supreme Court, Place 7                         UNDER VOTES                           PRECINCT 6                                             01 
01170010001000018REP       Justice, Supreme Court, Place 8                         Phil Johnson                          PRECINCT 1                                             01 
01170010002000034REP       Justice, Supreme Court, Place 8                         Phil Johnson                          PRECINCT 2                                             01 
01170010003000055REP       Justice, Supreme Court, Place 8                         Phil Johnson                          PRECINCT 3                                             01 
01170010004000072REP       Justice, Supreme Court, Place 8                         Phil Johnson                          PRECINCT 4                                             01 
01170010005000008REP       Justice, Supreme Court, Place 8                         Phil Johnson                          PRECINCT 6                                             01 
01170020001000004REP       Justice, Supreme Court, Place 8                         Sharon McCally                        PRECINCT 1                                             01 
01170020002000009REP       Justice, Supreme Court, Place 8                         Sharon McCally                        PRECINCT 2                                             01 
01170020003000025REP       Justice, Supreme Court, Place 8                         Sharon McCally                        PRECINCT 3                                             01 
01170020004000023REP       Justice, Supreme Court, Place 8                         Sharon McCally                        PRECINCT 4                                             01 
01170020005000002REP       Justice, Supreme Court, Place 8                         Sharon McCally                        PRECINCT 6                                             01 
01170030001000000REP       Justice, Supreme Court, Place 8                         OVER VOTES                            PRECINCT 1                                             01 
01170030002000000REP       Justice, Supreme Court, Place 8                         OVER VOTES                            PRECINCT 2                                             01 
01170030003000000REP       Justice, Supreme Court, Place 8                         OVER VOTES                            PRECINCT 3                                             01 
01170030004000000REP       Justice, Supreme Court, Place 8                         OVER VOTES                            PRECINCT 4                                             01 
01170030005000000REP       Justice, Supreme Court, Place 8                         OVER VOTES                            PRECINCT 6                                             01 
01170040001000021REP       Justice, Supreme Court, Place 8                         UNDER VOTES                           PRECINCT 1                                             01 
01170040002000021REP       Justice, Supreme Court, Place 8                         UNDER VOTES                           PRECINCT 2                                             01 
01170040003000035REP       Justice, Supreme Court, Place 8                         UNDER VOTES                           PRECINCT 3                                             01 
01170040004000041REP       Justice, Supreme Court, Place 8                         UNDER VOTES                           PRECINCT 4                                             01 
01170040005000008REP       Justice, Supreme Court, Place 8                         UNDER VOTES                           PRECINCT 6                                             01 
01180010001000019REP       Judge, Court of Criminal Appeals, Pl 3                  Bert Richardson                       PRECINCT 1                                             01 
01180010002000030REP       Judge, Court of Criminal Appeals, Pl 3                  Bert Richardson                       PRECINCT 2                                             01 
01180010003000051REP       Judge, Court of Criminal Appeals, Pl 3                  Bert Richardson                       PRECINCT 3                                             01 
01180010004000063REP       Judge, Court of Criminal Appeals, Pl 3                  Bert Richardson                       PRECINCT 4                                             01 
01180010005000004REP       Judge, Court of Criminal Appeals, Pl 3                  Bert Richardson                       PRECINCT 6                                             01 
01180020001000004REP       Judge, Court of Criminal Appeals, Pl 3                  Barbara Walther                       PRECINCT 1                                             01 
01180020002000013REP       Judge, Court of Criminal Appeals, Pl 3                  Barbara Walther                       PRECINCT 2                                             01 
01180020003000024REP       Judge, Court of Criminal Appeals, Pl 3                  Barbara Walther                       PRECINCT 3                                             01 
01180020004000029REP       Judge, Court of Criminal Appeals, Pl 3                  Barbara Walther                       PRECINCT 4                                             01 
01180020005000005REP       Judge, Court of Criminal Appeals, Pl 3                  Barbara Walther                       PRECINCT 6                                             01 
01180030001000000REP       Judge, Court of Criminal Appeals, Pl 3                  OVER VOTES                            PRECINCT 1                                             01 
01180030002000000REP       Judge, Court of Criminal Appeals, Pl 3                  OVER VOTES                            PRECINCT 2                                             01 
01180030003000000REP       Judge, Court of Criminal Appeals, Pl 3                  OVER VOTES                            PRECINCT 3                                             01 
01180030004000000REP       Judge, Court of Criminal Appeals, Pl 3                  OVER VOTES                            PRECINCT 4                                             01 
01180030005000000REP       Judge, Court of Criminal Appeals, Pl 3                  OVER VOTES                            PRECINCT 6                                             01 
01180040001000020REP       Judge, Court of Criminal Appeals, Pl 3                  UNDER VOTES                           PRECINCT 1                                             01 
01180040002000021REP       Judge, Court of Criminal Appeals, Pl 3                  UNDER VOTES                           PRECINCT 2                                             01 
01180040003000040REP       Judge, Court of Criminal Appeals, Pl 3                  UNDER VOTES                           PRECINCT 3                                             01 
01180040004000044REP       Judge, Court of Criminal Appeals, Pl 3                  UNDER VOTES                           PRECINCT 4                                             01 
01180040005000009REP       Judge, Court of Criminal Appeals, Pl 3                  UNDER VOTES                           PRECINCT 6                                             01 
01190010001000003REP       Judge, Court of Criminal Appeals, Pl 4                  Jani Jo Wood                          PRECINCT 1                                             01 
01190010002000004REP       Judge, Court of Criminal Appeals, Pl 4                  Jani Jo Wood                          PRECINCT 2                                             01 
01190010003000010REP       Judge, Court of Criminal Appeals, Pl 4                  Jani Jo Wood                          PRECINCT 3                                             01 
01190010004000011REP       Judge, Court of Criminal Appeals, Pl 4                  Jani Jo Wood                          PRECINCT 4                                             01 
01190010005000004REP       Judge, Court of Criminal Appeals, Pl 4                  Jani Jo Wood                          PRECINCT 6                                             01 
01190020001000015REP       Judge, Court of Criminal Appeals, Pl 4                  Kevin Patrick Yeary                   PRECINCT 1                                             01 
01190020002000026REP       Judge, Court of Criminal Appeals, Pl 4                  Kevin Patrick Yeary                   PRECINCT 2                                             01 
01190020003000042REP       Judge, Court of Criminal Appeals, Pl 4                  Kevin Patrick Yeary                   PRECINCT 3                                             01 
01190020004000063REP       Judge, Court of Criminal Appeals, Pl 4                  Kevin Patrick Yeary                   PRECINCT 4                                             01 
01190020005000003REP       Judge, Court of Criminal Appeals, Pl 4                  Kevin Patrick Yeary                   PRECINCT 6                                             01 
01190030001000005REP       Judge, Court of Criminal Appeals, Pl 4                  Richard Dean Davis                    PRECINCT 1                                             01 
01190030002000015REP       Judge, Court of Criminal Appeals, Pl 4                  Richard Dean Davis                    PRECINCT 2                                             01 
01190030003000024REP       Judge, Court of Criminal Appeals, Pl 4                  Richard Dean Davis                    PRECINCT 3                                             01 
01190030004000019REP       Judge, Court of Criminal Appeals, Pl 4                  Richard Dean Davis                    PRECINCT 4                                             01 
01190030005000002REP       Judge, Court of Criminal Appeals, Pl 4                  Richard Dean Davis                    PRECINCT 6                                             01 
01190040001000000REP       Judge, Court of Criminal Appeals, Pl 4                  OVER VOTES                            PRECINCT 1                                             01 
01190040002000000REP       Judge, Court of Criminal Appeals, Pl 4                  OVER VOTES                            PRECINCT 2                                             01 
01190040003000000REP       Judge, Court of Criminal Appeals, Pl 4                  OVER VOTES                            PRECINCT 3                                             01 
01190040004000000REP       Judge, Court of Criminal Appeals, Pl 4                  OVER VOTES                            PRECINCT 4                                             01 
01190040005000000REP       Judge, Court of Criminal Appeals, Pl 4                  OVER VOTES                            PRECINCT 6                                             01 
01190050001000020REP       Judge, Court of Criminal Appeals, Pl 4                  UNDER VOTES                           PRECINCT 1                                             01 
01190050002000019REP       Judge, Court of Criminal Appeals, Pl 4                  UNDER VOTES                           PRECINCT 2                                             01 
01190050003000039REP       Judge, Court of Criminal Appeals, Pl 4                  UNDER VOTES                           PRECINCT 3                                             01 
01190050004000043REP       Judge, Court of Criminal Appeals, Pl 4                  UNDER VOTES                           PRECINCT 4                                             01 
01190050005000009REP       Judge, Court of Criminal Appeals, Pl 4                  UNDER VOTES                           PRECINCT 6                                             01 
01200010001000009REP       Judge, Court of Criminal Appeals, Pl 9                  David Newell                          PRECINCT 1                                             01 
01200010002000020REP       Judge, Court of Criminal Appeals, Pl 9                  David Newell                          PRECINCT 2                                             01 
01200010003000037REP       Judge, Court of Criminal Appeals, Pl 9                  David Newell                          PRECINCT 3                                             01 
01200010004000052REP       Judge, Court of Criminal Appeals, Pl 9                  David Newell                          PRECINCT 4                                             01 
01200010005000007REP       Judge, Court of Criminal Appeals, Pl 9                  David Newell                          PRECINCT 6                                             01 
01200020001000013REP       Judge, Court of Criminal Appeals, Pl 9                  W.C. "Bud" Kirkendall                 PRECINCT 1                                             01 
01200020002000026REP       Judge, Court of Criminal Appeals, Pl 9                  W.C. "Bud" Kirkendall                 PRECINCT 2                                             01 
01200020003000039REP       Judge, Court of Criminal Appeals, Pl 9                  W.C. "Bud" Kirkendall                 PRECINCT 3                                             01 
01200020004000038REP       Judge, Court of Criminal Appeals, Pl 9                  W.C. "Bud" Kirkendall                 PRECINCT 4                                             01 
01200020005000000REP       Judge, Court of Criminal Appeals, Pl 9                  W.C. "Bud" Kirkendall                 PRECINCT 6                                             01 
01200030001000000REP       Judge, Court of Criminal Appeals, Pl 9                  OVER VOTES                            PRECINCT 1                                             01 
01200030002000000REP       Judge, Court of Criminal Appeals, Pl 9                  OVER VOTES                            PRECINCT 2                                             01 
01200030003000000REP       Judge, Court of Criminal Appeals, Pl 9                  OVER VOTES                            PRECINCT 3                                             01 
01200030004000000REP       Judge, Court of Criminal Appeals, Pl 9                  OVER VOTES                            PRECINCT 4                                             01 
01200030005000000REP       Judge, Court of Criminal Appeals, Pl 9                  OVER VOTES                            PRECINCT 6                                             01 
01200040001000021REP       Judge, Court of Criminal Appeals, Pl 9                  UNDER VOTES                           PRECINCT 1                                             01 
01200040002000018REP       Judge, Court of Criminal Appeals, Pl 9                  UNDER VOTES                           PRECINCT 2                                             01 
01200040003000039REP       Judge, Court of Criminal Appeals, Pl 9                  UNDER VOTES                           PRECINCT 3                                             01 
01200040004000046REP       Judge, Court of Criminal Appeals, Pl 9                  UNDER VOTES                           PRECINCT 4                                             01 
01200040005000011REP       Judge, Court of Criminal Appeals, Pl 9                  UNDER VOTES                           PRECINCT 6                                             01 
01210010001000016REP       State Senator, District 31                              Mike Canon                            PRECINCT 1                                             01 
01210010002000023REP       State Senator, District 31                              Mike Canon                            PRECINCT 2                                             01 
01210010003000057REP       State Senator, District 31                              Mike Canon                            PRECINCT 3                                             01 
01210010004000062REP       State Senator, District 31                              Mike Canon                            PRECINCT 4                                             01 
01210010005000004REP       State Senator, District 31                              Mike Canon                            PRECINCT 6                                             01 
01210020001000021REP       State Senator, District 31                              Kel Seliger                           PRECINCT 1                                             01 
01210020002000032REP       State Senator, District 31                              Kel Seliger                           PRECINCT 2                                             01 
01210020003000049REP       State Senator, District 31                              Kel Seliger                           PRECINCT 3                                             01 
01210020004000065REP       State Senator, District 31                              Kel Seliger                           PRECINCT 4                                             01 
01210020005000010REP       State Senator, District 31                              Kel Seliger                           PRECINCT 6                                             01 
01210030001000000REP       State Senator, District 31                              OVER VOTES                            PRECINCT 1                                             01 
01210030002000000REP       State Senator, District 31                              OVER VOTES                            PRECINCT 2                                             01 
01210030003000000REP       State Senator, District 31                              OVER VOTES                            PRECINCT 3                                             01 
01210030004000000REP       State Senator, District 31                              OVER VOTES                            PRECINCT 4                                             01 
01210030005000000REP       State Senator, District 31                              OVER VOTES                            PRECINCT 6                                             01 
01210040001000006REP       State Senator, District 31                              UNDER VOTES                           PRECINCT 1                                             01 
01210040002000009REP       State Senator, District 31                              UNDER VOTES                           PRECINCT 2                                             01 
01210040003000009REP       State Senator, District 31                              UNDER VOTES                           PRECINCT 3                                             01 
01210040004000009REP       State Senator, District 31                              UNDER VOTES                           PRECINCT 4                                             01 
01210040005000004REP       State Senator, District 31                              UNDER VOTES                           PRECINCT 6                                             01 
01220010001000023REP       State Representative, District 88                       Ken King                              PRECINCT 1                                             01 
01220010002000052REP       State Representative, District 88                       Ken King                              PRECINCT 2                                             01 
01220010003000084REP       State Representative, District 88                       Ken King                              PRECINCT 3                                             01 
01220010004000102REP       State Representative, District 88                       Ken King                              PRECINCT 4                                             01 
01220010005000010REP       State Representative, District 88                       Ken King                              PRECINCT 6                                             01 
01220020001000000REP       State Representative, District 88                       OVER VOTES                            PRECINCT 1                                             01 
01220020002000000REP       State Representative, District 88                       OVER VOTES                            PRECINCT 2                                             01 
01220020003000000REP       State Representative, District 88                       OVER VOTES                            PRECINCT 3                                             01 
01220020004000000REP       State Representative, District 88                       OVER VOTES                            PRECINCT 4                                             01 
01220020005000000REP       State Representative, District 88                       OVER VOTES                            PRECINCT 6                                             01 
01220030001000020REP       State Representative, District 88                       UNDER VOTES                           PRECINCT 1                                             01 
01220030002000012REP       State Representative, District 88                       UNDER VOTES                           PRECINCT 2                                             01 
01220030003000031REP       State Representative, District 88                       UNDER VOTES                           PRECINCT 3                                             01 
01220030004000034REP       State Representative, District 88                       UNDER VOTES                           PRECINCT 4                                             01 
01220030005000008REP       State Representative, District 88                       UNDER VOTES                           PRECINCT 6                                             01 
01230010001000017REP       Chief Justice, 7th Court of Appeals Dist                Brian Quinn                           PRECINCT 1                                             01 
01230010002000043REP       Chief Justice, 7th Court of Appeals Dist                Brian Quinn                           PRECINCT 2                                             01 
01230010003000070REP       Chief Justice, 7th Court of Appeals Dist                Brian Quinn                           PRECINCT 3                                             01 
01230010004000087REP       Chief Justice, 7th Court of Appeals Dist                Brian Quinn                           PRECINCT 4                                             01 
01230010005000008REP       Chief Justice, 7th Court of Appeals Dist                Brian Quinn                           PRECINCT 6                                             01 
01230020001000000REP       Chief Justice, 7th Court of Appeals Dist                OVER VOTES                            PRECINCT 1                                             01 
01230020002000000REP       Chief Justice, 7th Court of Appeals Dist                OVER VOTES                            PRECINCT 2                                             01 
01230020003000000REP       Chief Justice, 7th Court of Appeals Dist                OVER VOTES                            PRECINCT 3                                             01 
01230020004000000REP       Chief Justice, 7th Court of Appeals Dist                OVER VOTES                            PRECINCT 4                                             01 
01230020005000000REP       Chief Justice, 7th Court of Appeals Dist                OVER VOTES                            PRECINCT 6                                             01 
01230030001000026REP       Chief Justice, 7th Court of Appeals Dist                UNDER VOTES                           PRECINCT 1                                             01 
01230030002000021REP       Chief Justice, 7th Court of Appeals Dist                UNDER VOTES                           PRECINCT 2                                             01 
01230030003000045REP       Chief Justice, 7th Court of Appeals Dist                UNDER VOTES                           PRECINCT 3                                             01 
01230030004000049REP       Chief Justice, 7th Court of Appeals Dist                UNDER VOTES                           PRECINCT 4                                             01 
01230030005000010REP       Chief Justice, 7th Court of Appeals Dist                UNDER VOTES                           PRECINCT 6                                             01 
01240010001000032REP       District Judge, 110th Judicial District                 William P. Smith                      PRECINCT 1                                             01 
01240010002000052REP       District Judge, 110th Judicial District                 William P. Smith                      PRECINCT 2                                             01 
01240010003000087REP       District Judge, 110th Judicial District                 William P. Smith                      PRECINCT 3                                             01 
01240010004000114REP       District Judge, 110th Judicial District                 William P. Smith                      PRECINCT 4                                             01 
01240010005000010REP       District Judge, 110th Judicial District                 William P. Smith                      PRECINCT 6                                             01 
01240020001000000REP       District Judge, 110th Judicial District                 OVER VOTES                            PRECINCT 1                                             01 
01240020002000000REP       District Judge, 110th Judicial District                 OVER VOTES                            PRECINCT 2                                             01 
01240020003000000REP       District Judge, 110th Judicial District                 OVER VOTES                            PRECINCT 3                                             01 
01240020004000000REP       District Judge, 110th Judicial District                 OVER VOTES                            PRECINCT 4                                             01 
01240020005000000REP       District Judge, 110th Judicial District                 OVER VOTES                            PRECINCT 6                                             01 
01240030001000011REP       District Judge, 110th Judicial District                 UNDER VOTES                           PRECINCT 1                                             01 
01240030002000012REP       District Judge, 110th Judicial District                 UNDER VOTES                           PRECINCT 2                                             01 
01240030003000028REP       District Judge, 110th Judicial District                 UNDER VOTES                           PRECINCT 3                                             01 
01240030004000022REP       District Judge, 110th Judicial District                 UNDER VOTES                           PRECINCT 4                                             01 
01240030005000008REP       District Judge, 110th Judicial District                 UNDER VOTES                           PRECINCT 6                                             01 
01250010001000033REP       County Judge                                            Wayne Nance                           PRECINCT 1                                             01 
01250010002000058REP       County Judge                                            Wayne Nance                           PRECINCT 2                                             01 
01250010003000091REP       County Judge                                            Wayne Nance                           PRECINCT 3                                             01 
01250010004000115REP       County Judge                                            Wayne Nance                           PRECINCT 4                                             01 
01250010005000017REP       County Judge                                            Wayne Nance                           PRECINCT 6                                             01 
01250020001000000REP       County Judge                                            OVER VOTES                            PRECINCT 1                                             01 
01250020002000000REP       County Judge                                            OVER VOTES                            PRECINCT 2                                             01 
01250020003000000REP       County Judge                                            OVER VOTES                            PRECINCT 3                                             01 
01250020004000000REP       County Judge                                            OVER VOTES                            PRECINCT 4                                             01 
01250020005000000REP       County Judge                                            OVER VOTES                            PRECINCT 6                                             01 
01250030001000010REP       County Judge                                            UNDER VOTES                           PRECINCT 1                                             01 
01250030002000006REP       County Judge                                            UNDER VOTES                           PRECINCT 2                                             01 
01250030003000024REP       County Judge                                            UNDER VOTES                           PRECINCT 3                                             01 
01250030004000021REP       County Judge                                            UNDER VOTES                           PRECINCT 4                                             01 
01250030005000001REP       County Judge                                            UNDER VOTES                           PRECINCT 6                                             01 
01260010001000031REP       District and County Clerk                               Bena Hester                           PRECINCT 1                                             01 
01260010002000058REP       District and County Clerk                               Bena Hester                           PRECINCT 2                                             01 
01260010003000109REP       District and County Clerk                               Bena Hester                           PRECINCT 3                                             01 
01260010004000118REP       District and County Clerk                               Bena Hester                           PRECINCT 4                                             01 
01260010005000017REP       District and County Clerk                               Bena Hester                           PRECINCT 6                                             01 
01260020001000000REP       District and County Clerk                               OVER VOTES                            PRECINCT 1                                             01 
01260020002000000REP       District and County Clerk                               OVER VOTES                            PRECINCT 2                                             01 
01260020003000000REP       District and County Clerk                               OVER VOTES                            PRECINCT 3                                             01 
01260020004000000REP       District and County Clerk                               OVER VOTES                            PRECINCT 4                                             01 
01260020005000000REP       District and County Clerk                               OVER VOTES                            PRECINCT 6                                             01 
01260030001000012REP       District and County Clerk                               UNDER VOTES                           PRECINCT 1                                             01 
01260030002000006REP       District and County Clerk                               UNDER VOTES                           PRECINCT 2                                             01 
01260030003000006REP       District and County Clerk                               UNDER VOTES                           PRECINCT 3                                             01 
01260030004000018REP       District and County Clerk                               UNDER VOTES                           PRECINCT 4                                             01 
01260030005000001REP       District and County Clerk                               UNDER VOTES                           PRECINCT 6                                             01 
01270010001000034REP       County Treasurer                                        Mary Jo Brannon                       PRECINCT 1                                             01 
01270010002000057REP       County Treasurer                                        Mary Jo Brannon                       PRECINCT 2                                             01 
01270010003000109REP       County Treasurer                                        Mary Jo Brannon                       PRECINCT 3                                             01 
01270010004000121REP       County Treasurer                                        Mary Jo Brannon                       PRECINCT 4                                             01 
01270010005000018REP       County Treasurer                                        Mary Jo Brannon                       PRECINCT 6                                             01 
01270020001000000REP       County Treasurer                                        OVER VOTES                            PRECINCT 1                                             01 
01270020002000000REP       County Treasurer                                        OVER VOTES                            PRECINCT 2                                             01 
01270020003000000REP       County Treasurer                                        OVER VOTES                            PRECINCT 3                                             01 
01270020004000000REP       County Treasurer                                        OVER VOTES                            PRECINCT 4                                             01 
01270020005000000REP       County Treasurer                                        OVER VOTES                            PRECINCT 6                                             01 
01270030001000009REP       County Treasurer                                        UNDER VOTES                           PRECINCT 1                                             01 
01270030002000007REP       County Treasurer                                        UNDER VOTES                           PRECINCT 2                                             01 
01270030003000006REP       County Treasurer                                        UNDER VOTES                           PRECINCT 3                                             01 
01270030004000015REP       County Treasurer                                        UNDER VOTES                           PRECINCT 4                                             01 
01270030005000000REP       County Treasurer                                        UNDER VOTES                           PRECINCT 6                                             01 
01280010004000107REP       County Commissioner, Precinct No. 4                     John T. Burson                        PRECINCT 4                                             01 
01280020004000000REP       County Commissioner, Precinct No. 4                     OVER VOTES                            PRECINCT 4                                             01 
01280030004000029REP       County Commissioner, Precinct No. 4                     UNDER VOTES                           PRECINCT 4                                             01 
01290010001000027REP       Justice of the Peace, Precinct No. 1                    H. B. "Doc" Simpson                   PRECINCT 1                                             01 
01290010003000058REP       Justice of the Peace, Precinct No. 1                    H. B. "Doc" Simpson                   PRECINCT 3                                             01 
01290010004000078REP       Justice of the Peace, Precinct No. 1                    H. B. "Doc" Simpson                   PRECINCT 4                                             01 
01290020001000016REP       Justice of the Peace, Precinct No. 1                    Connie Smith                          PRECINCT 1                                             01 
