01010010001000170          REGISTERED VOTERS - TOTAL                               REGISTERED VOTERS - TOTAL             PRECINCT 1                                             00 
01010010002000285          REGISTERED VOTERS - TOTAL                               REGISTERED VOTERS - TOTAL             PRECINCT 2                                             00 
01010010003000273          REGISTERED VOTERS - TOTAL                               REGISTERED VOTERS - TOTAL             PRECINCT 3                                             00 
01010010004000311          REGISTERED VOTERS - TOTAL                               REGISTERED VOTERS - TOTAL             PRECINCT 4                                             00 
01010010005000094          REGISTERED VOTERS - TOTAL                               REGISTERED VOTERS - TOTAL             PRECINCT 6                                             00 
01020010001000069          BALLOTS CAST - TOTAL                                    BALLOTS CAST - TOTAL                  PRECINCT 1                                             00 
01020010002000134          BALLOTS CAST - TOTAL                                    BALLOTS CAST - TOTAL                  PRECINCT 2                                             00 
01020010003000129          BALLOTS CAST - TOTAL                                    BALLOTS CAST - TOTAL                  PRECINCT 3                                             00 
01020010004000166          BALLOTS CAST - TOTAL                                    BALLOTS CAST - TOTAL                  PRECINCT 4                                             00 
01020010005000029          BALLOTS CAST - TOTAL                                    BALLOTS CAST - TOTAL                  PRECINCT 6                                             00 
01030010001000025REP       Straight Party                                          REPUBLICAN PARTY                      PRECINCT 1                                             01 
01030010002000052REP       Straight Party                                          REPUBLICAN PARTY                      PRECINCT 2                                             01 
01030010003000043REP       Straight Party                                          REPUBLICAN PARTY                      PRECINCT 3                                             01 
01030010004000059REP       Straight Party                                          REPUBLICAN PARTY                      PRECINCT 4                                             01 
01030010005000013REP       Straight Party                                          REPUBLICAN PARTY                      PRECINCT 6                                             01 
01030020001000005DEM       Straight Party                                          DEMOCRATIC PARTY                      PRECINCT 1                                             01 
01030020002000015DEM       Straight Party                                          DEMOCRATIC PARTY                      PRECINCT 2                                             01 
01030020003000004DEM       Straight Party                                          DEMOCRATIC PARTY                      PRECINCT 3                                             01 
01030020004000009DEM       Straight Party                                          DEMOCRATIC PARTY                      PRECINCT 4                                             01 
01030020005000003DEM       Straight Party                                          DEMOCRATIC PARTY                      PRECINCT 6                                             01 
01030030001000000LIB       Straight Party                                          LIBERTARIAN PARTY                     PRECINCT 1                                             01 
01030030002000000LIB       Straight Party                                          LIBERTARIAN PARTY                     PRECINCT 2                                             01 
01030030003000000LIB       Straight Party                                          LIBERTARIAN PARTY                     PRECINCT 3                                             01 
01030030004000000LIB       Straight Party                                          LIBERTARIAN PARTY                     PRECINCT 4                                             01 
01030030005000000LIB       Straight Party                                          LIBERTARIAN PARTY                     PRECINCT 6                                             01 
01030040001000000GRN       Straight Party                                          GREEN PARTY                           PRECINCT 1                                             01 
01030040002000001GRN       Straight Party                                          GREEN PARTY                           PRECINCT 2                                             01 
01030040003000000GRN       Straight Party                                          GREEN PARTY                           PRECINCT 3                                             01 
01030040004000009GRN       Straight Party                                          GREEN PARTY                           PRECINCT 4                                             01 
01030040005000000GRN       Straight Party                                          GREEN PARTY                           PRECINCT 6                                             01 
01030050001000000          Straight Party                                          OVER VOTES                            PRECINCT 1                                             01 
01030050002000000          Straight Party                                          OVER VOTES                            PRECINCT 2                                             01 
01030050003000000          Straight Party                                          OVER VOTES                            PRECINCT 3                                             01 
01030050004000000          Straight Party                                          OVER VOTES                            PRECINCT 4                                             01 
01030050005000000          Straight Party                                          OVER VOTES                            PRECINCT 6                                             01 
01030060001000000          Straight Party                                          UNDER VOTES                           PRECINCT 1                                             01 
01030060002000000          Straight Party                                          UNDER VOTES                           PRECINCT 2                                             01 
01030060003000000          Straight Party                                          UNDER VOTES                           PRECINCT 3                                             01 
01030060004000000          Straight Party                                          UNDER VOTES                           PRECINCT 4                                             01 
01030060005000000          Straight Party                                          UNDER VOTES                           PRECINCT 6                                             01 
01040010001000051REP       United States Senator                                   John Cornyn                           PRECINCT 1                                             01 
01040010002000111REP       United States Senator                                   John Cornyn                           PRECINCT 2                                             01 
01040010003000106REP       United States Senator                                   John Cornyn                           PRECINCT 3                                             01 
01040010004000142REP       United States Senator                                   John Cornyn                           PRECINCT 4                                             01 
01040010005000022REP       United States Senator                                   John Cornyn                           PRECINCT 6                                             01 
01040020001000008DEM       United States Senator                                   David M. Alameel                      PRECINCT 1                                             01 
01040020002000018DEM       United States Senator                                   David M. Alameel                      PRECINCT 2                                             01 
01040020003000011DEM       United States Senator                                   David M. Alameel                      PRECINCT 3                                             01 
01040020004000018DEM       United States Senator                                   David M. Alameel                      PRECINCT 4                                             01 
01040020005000004DEM       United States Senator                                   David M. Alameel                      PRECINCT 6                                             01 
01040030001000002LIB       United States Senator                                   Rebecca Paddock                       PRECINCT 1                                             01 
01040030002000001LIB       United States Senator                                   Rebecca Paddock                       PRECINCT 2                                             01 
01040030003000002LIB       United States Senator                                   Rebecca Paddock                       PRECINCT 3                                             01 
01040030004000000LIB       United States Senator                                   Rebecca Paddock                       PRECINCT 4                                             01 
01040030005000001LIB       United States Senator                                   Rebecca Paddock                       PRECINCT 6                                             01 
01040040001000001GRN       United States Senator                                   Emily "Spicybrown" Sanchez            PRECINCT 1                                             01 
01040040002000001GRN       United States Senator                                   Emily "Spicybrown" Sanchez            PRECINCT 2                                             01 
01040040003000001GRN       United States Senator                                   Emily "Spicybrown" Sanchez            PRECINCT 3                                             01 
01040040004000001GRN       United States Senator                                   Emily "Spicybrown" Sanchez            PRECINCT 4                                             01 
01040040005000000GRN       United States Senator                                   Emily "Spicybrown" Sanchez            PRECINCT 6                                             01 
01040050001000000NON       United States Senator                                   WRITE-IN                              PRECINCT 1                                             01 
01040050002000000NON       United States Senator                                   WRITE-IN                              PRECINCT 2                                             01 
01040050003000000NON       United States Senator                                   WRITE-IN                              PRECINCT 3                                             01 
01040050004000000NON       United States Senator                                   WRITE-IN                              PRECINCT 4                                             01 
01040050005000000NON       United States Senator                                   WRITE-IN                              PRECINCT 6                                             01 
01040060001000000          United States Senator                                   OVER VOTES                            PRECINCT 1                                             01 
01040060002000000          United States Senator                                   OVER VOTES                            PRECINCT 2                                             01 
01040060003000000          United States Senator                                   OVER VOTES                            PRECINCT 3                                             01 
01040060004000000          United States Senator                                   OVER VOTES                            PRECINCT 4                                             01 
01040060005000000          United States Senator                                   OVER VOTES                            PRECINCT 6                                             01 
01040070001000000          United States Senator                                   UNDER VOTES                           PRECINCT 1                                             01 
01040070002000000          United States Senator                                   UNDER VOTES                           PRECINCT 2                                             01 
01040070003000000          United States Senator                                   UNDER VOTES                           PRECINCT 3                                             01 
01040070004000000          United States Senator                                   UNDER VOTES                           PRECINCT 4                                             01 
01040070005000000          United States Senator                                   UNDER VOTES                           PRECINCT 6                                             01 
01050010001000051REP       United States Representative, Dist 13                   Mac Thornberry                        PRECINCT 1                                             01 
01050010002000115REP       United States Representative, Dist 13                   Mac Thornberry                        PRECINCT 2                                             01 
01050010003000110REP       United States Representative, Dist 13                   Mac Thornberry                        PRECINCT 3                                             01 
01050010004000144REP       United States Representative, Dist 13                   Mac Thornberry                        PRECINCT 4                                             01 
01050010005000023REP       United States Representative, Dist 13                   Mac Thornberry                        PRECINCT 6                                             01 
01050020001000009DEM       United States Representative, Dist 13                   Mike Minter                           PRECINCT 1                                             01 
01050020002000016DEM       United States Representative, Dist 13                   Mike Minter                           PRECINCT 2                                             01 
01050020003000010DEM       United States Representative, Dist 13                   Mike Minter                           PRECINCT 3                                             01 
01050020004000019DEM       United States Representative, Dist 13                   Mike Minter                           PRECINCT 4                                             01 
01050020005000004DEM       United States Representative, Dist 13                   Mike Minter                           PRECINCT 6                                             01 
01050030001000002LIB       United States Representative, Dist 13                   Emily Pivoda                          PRECINCT 1                                             01 
01050030002000001LIB       United States Representative, Dist 13                   Emily Pivoda                          PRECINCT 2                                             01 
01050030003000001LIB       United States Representative, Dist 13                   Emily Pivoda                          PRECINCT 3                                             01 
01050030004000001LIB       United States Representative, Dist 13                   Emily Pivoda                          PRECINCT 4                                             01 
01050030005000000LIB       United States Representative, Dist 13                   Emily Pivoda                          PRECINCT 6                                             01 
01050040001000000GRN       United States Representative, Dist 13                   Don Cook                              PRECINCT 1                                             01 
01050040002000000GRN       United States Representative, Dist 13                   Don Cook                              PRECINCT 2                                             01 
01050040003000002GRN       United States Representative, Dist 13                   Don Cook                              PRECINCT 3                                             01 
01050040004000001GRN       United States Representative, Dist 13                   Don Cook                              PRECINCT 4                                             01 
01050040005000000GRN       United States Representative, Dist 13                   Don Cook                              PRECINCT 6                                             01 
01050050001000000          United States Representative, Dist 13                   OVER VOTES                            PRECINCT 1                                             01 
01050050002000000          United States Representative, Dist 13                   OVER VOTES                            PRECINCT 2                                             01 
01050050003000000          United States Representative, Dist 13                   OVER VOTES                            PRECINCT 3                                             01 
01050050004000000          United States Representative, Dist 13                   OVER VOTES                            PRECINCT 4                                             01 
01050050005000000          United States Representative, Dist 13                   OVER VOTES                            PRECINCT 6                                             01 
01050060001000000          United States Representative, Dist 13                   UNDER VOTES                           PRECINCT 1                                             01 
01050060002000000          United States Representative, Dist 13                   UNDER VOTES                           PRECINCT 2                                             01 
01050060003000000          United States Representative, Dist 13                   UNDER VOTES                           PRECINCT 3                                             01 
01050060004000000          United States Representative, Dist 13                   UNDER VOTES                           PRECINCT 4                                             01 
01050060005000000          United States Representative, Dist 13                   UNDER VOTES                           PRECINCT 6                                             01 
01060010001000051REP       Governor                                                Greg Abbott                           PRECINCT 1                                             01 
01060010002000106REP       Governor                                                Greg Abbott                           PRECINCT 2                                             01 
01060010003000106REP       Governor                                                Greg Abbott                           PRECINCT 3                                             01 
01060010004000144REP       Governor                                                Greg Abbott                           PRECINCT 4                                             01 
01060010005000024REP       Governor                                                Greg Abbott                           PRECINCT 6                                             01 
01060020001000013DEM       Governor                                                Wendy R. Davis                        PRECINCT 1                                             01 
01060020002000022DEM       Governor                                                Wendy R. Davis                        PRECINCT 2                                             01 
01060020003000016DEM       Governor                                                Wendy R. Davis                        PRECINCT 3                                             01 
01060020004000020DEM       Governor                                                Wendy R. Davis                        PRECINCT 4                                             01 
01060020005000004DEM       Governor                                                Wendy R. Davis                        PRECINCT 6                                             01 
01060030001000000LIB       Governor                                                Kathie Glass                          PRECINCT 1                                             01 
01060030002000000LIB       Governor                                                Kathie Glass                          PRECINCT 2                                             01 
01060030003000001LIB       Governor                                                Kathie Glass                          PRECINCT 3                                             01 
01060030004000000LIB       Governor                                                Kathie Glass                          PRECINCT 4                                             01 
01060030005000000LIB       Governor                                                Kathie Glass                          PRECINCT 6                                             01 
01060040001000000GRN       Governor                                                Brandon Parmer                        PRECINCT 1                                             01 
01060040002000003GRN       Governor                                                Brandon Parmer                        PRECINCT 2                                             01 
01060040003000000GRN       Governor                                                Brandon Parmer                        PRECINCT 3                                             01 
01060040004000000GRN       Governor                                                Brandon Parmer                        PRECINCT 4                                             01 
01060040005000000GRN       Governor                                                Brandon Parmer                        PRECINCT 6                                             01 
01060050001000000NON       Governor                                                WRITE-IN                              PRECINCT 1                                             01 
01060050002000000NON       Governor                                                WRITE-IN                              PRECINCT 2                                             01 
01060050003000000NON       Governor                                                WRITE-IN                              PRECINCT 3                                             01 
01060050004000000NON       Governor                                                WRITE-IN                              PRECINCT 4                                             01 
01060050005000000NON       Governor                                                WRITE-IN                              PRECINCT 6                                             01 
01060060001000000          Governor                                                OVER VOTES                            PRECINCT 1                                             01 
01060060002000000          Governor                                                OVER VOTES                            PRECINCT 2                                             01 
01060060003000000          Governor                                                OVER VOTES                            PRECINCT 3                                             01 
01060060004000000          Governor                                                OVER VOTES                            PRECINCT 4                                             01 
01060060005000000          Governor                                                OVER VOTES                            PRECINCT 6                                             01 
01060070001000000          Governor                                                UNDER VOTES                           PRECINCT 1                                             01 
01060070002000000          Governor                                                UNDER VOTES                           PRECINCT 2                                             01 
01060070003000000          Governor                                                UNDER VOTES                           PRECINCT 3                                             01 
01060070004000000          Governor                                                UNDER VOTES                           PRECINCT 4                                             01 
01060070005000000          Governor                                                UNDER VOTES                           PRECINCT 6                                             01 
01070010001000053REP       Lieutenant Governor                                     Dan Patrick                           PRECINCT 1                                             01 
01070010002000105REP       Lieutenant Governor                                     Dan Patrick                           PRECINCT 2                                             01 
01070010003000108REP       Lieutenant Governor                                     Dan Patrick                           PRECINCT 3                                             01 
01070010004000140REP       Lieutenant Governor                                     Dan Patrick                           PRECINCT 4                                             01 
01070010005000024REP       Lieutenant Governor                                     Dan Patrick                           PRECINCT 6                                             01 
01070020001000010DEM       Lieutenant Governor                                     Leticia Van de Putte                  PRECINCT 1                                             01 
01070020002000019DEM       Lieutenant Governor                                     Leticia Van de Putte                  PRECINCT 2                                             01 
01070020003000013DEM       Lieutenant Governor                                     Leticia Van de Putte                  PRECINCT 3                                             01 
01070020004000020DEM       Lieutenant Governor                                     Leticia Van de Putte                  PRECINCT 4                                             01 
01070020005000003DEM       Lieutenant Governor                                     Leticia Van de Putte                  PRECINCT 6                                             01 
01070030001000001LIB       Lieutenant Governor                                     Robert D. Butler                      PRECINCT 1                                             01 
01070030002000003LIB       Lieutenant Governor                                     Robert D. Butler                      PRECINCT 2                                             01 
01070030003000003LIB       Lieutenant Governor                                     Robert D. Butler                      PRECINCT 3                                             01 
01070030004000004LIB       Lieutenant Governor                                     Robert D. Butler                      PRECINCT 4                                             01 
01070030005000001LIB       Lieutenant Governor                                     Robert D. Butler                      PRECINCT 6                                             01 
01070040001000000GRN       Lieutenant Governor                                     Chandrakantha Courtney                PRECINCT 1                                             01 
01070040002000001GRN       Lieutenant Governor                                     Chandrakantha Courtney                PRECINCT 2                                             01 
01070040003000000GRN       Lieutenant Governor                                     Chandrakantha Courtney                PRECINCT 3                                             01 
01070040004000000GRN       Lieutenant Governor                                     Chandrakantha Courtney                PRECINCT 4                                             01 
01070040005000000GRN       Lieutenant Governor                                     Chandrakantha Courtney                PRECINCT 6                                             01 
01070050001000000          Lieutenant Governor                                     OVER VOTES                            PRECINCT 1                                             01 
01070050002000000          Lieutenant Governor                                     OVER VOTES                            PRECINCT 2                                             01 
01070050003000000          Lieutenant Governor                                     OVER VOTES                            PRECINCT 3                                             01 
01070050004000000          Lieutenant Governor                                     OVER VOTES                            PRECINCT 4                                             01 
01070050005000000          Lieutenant Governor                                     OVER VOTES                            PRECINCT 6                                             01 
01070060001000000          Lieutenant Governor                                     UNDER VOTES                           PRECINCT 1                                             01 
01070060002000000          Lieutenant Governor                                     UNDER VOTES                           PRECINCT 2                                             01 
01070060003000000          Lieutenant Governor                                     UNDER VOTES                           PRECINCT 3                                             01 
01070060004000000          Lieutenant Governor                                     UNDER VOTES                           PRECINCT 4                                             01 
01070060005000000          Lieutenant Governor                                     UNDER VOTES                           PRECINCT 6                                             01 
01080010001000051REP       Attorney General                                        Ken Paxton                            PRECINCT 1                                             01 
01080010002000105REP       Attorney General                                        Ken Paxton                            PRECINCT 2                                             01 
01080010003000106REP       Attorney General                                        Ken Paxton                            PRECINCT 3                                             01 
01080010004000137REP       Attorney General                                        Ken Paxton                            PRECINCT 4                                             01 
01080010005000019REP       Attorney General                                        Ken Paxton                            PRECINCT 6                                             01 
01080020001000009DEM       Attorney General                                        Sam Houston                           PRECINCT 1                                             01 
01080020002000022DEM       Attorney General                                        Sam Houston                           PRECINCT 2                                             01 
01080020003000015DEM       Attorney General                                        Sam Houston                           PRECINCT 3                                             01 
01080020004000023DEM       Attorney General                                        Sam Houston                           PRECINCT 4                                             01 
01080020005000007DEM       Attorney General                                        Sam Houston                           PRECINCT 6                                             01 
01080030001000001LIB       Attorney General                                        Jamie Balagia                         PRECINCT 1                                             01 
01080030002000000LIB       Attorney General                                        Jamie Balagia                         PRECINCT 2                                             01 
01080030003000001LIB       Attorney General                                        Jamie Balagia                         PRECINCT 3                                             01 
01080030004000000LIB       Attorney General                                        Jamie Balagia                         PRECINCT 4                                             01 
01080030005000000LIB       Attorney General                                        Jamie Balagia                         PRECINCT 6                                             01 
01080040001000000GRN       Attorney General                                        Jamar Osborne                         PRECINCT 1                                             01 
01080040002000002GRN       Attorney General                                        Jamar Osborne                         PRECINCT 2                                             01 
01080040003000000GRN       Attorney General                                        Jamar Osborne                         PRECINCT 3                                             01 
01080040004000000GRN       Attorney General                                        Jamar Osborne                         PRECINCT 4                                             01 
01080040005000000GRN       Attorney General                                        Jamar Osborne                         PRECINCT 6                                             01 
01080050001000000          Attorney General                                        OVER VOTES                            PRECINCT 1                                             01 
01080050002000000          Attorney General                                        OVER VOTES                            PRECINCT 2                                             01 
01080050003000000          Attorney General                                        OVER VOTES                            PRECINCT 3                                             01 
01080050004000000          Attorney General                                        OVER VOTES                            PRECINCT 4                                             01 
01080050005000000          Attorney General                                        OVER VOTES                            PRECINCT 6                                             01 
01080060001000000          Attorney General                                        UNDER VOTES                           PRECINCT 1                                             01 
01080060002000000          Attorney General                                        UNDER VOTES                           PRECINCT 2                                             01 
01080060003000000          Attorney General                                        UNDER VOTES                           PRECINCT 3                                             01 
01080060004000000          Attorney General                                        UNDER VOTES                           PRECINCT 4                                             01 
01080060005000000          Attorney General                                        UNDER VOTES                           PRECINCT 6                                             01 
01090010001000048REP       Comptroller of Public Accounts                          Glenn Hegar                           PRECINCT 1                                             01 
01090010002000100REP       Comptroller of Public Accounts                          Glenn Hegar                           PRECINCT 2                                             01 
01090010003000095REP       Comptroller of Public Accounts                          Glenn Hegar                           PRECINCT 3                                             01 
01090010004000136REP       Comptroller of Public Accounts                          Glenn Hegar                           PRECINCT 4                                             01 
01090010005000021REP       Comptroller of Public Accounts                          Glenn Hegar                           PRECINCT 6                                             01 
01090020001000009DEM       Comptroller of Public Accounts                          Mike Collier                          PRECINCT 1                                             01 
01090020002000025DEM       Comptroller of Public Accounts                          Mike Collier                          PRECINCT 2                                             01 
01090020003000020DEM       Comptroller of Public Accounts                          Mike Collier                          PRECINCT 3                                             01 
01090020004000023DEM       Comptroller of Public Accounts                          Mike Collier                          PRECINCT 4                                             01 
01090020005000003DEM       Comptroller of Public Accounts                          Mike Collier                          PRECINCT 6                                             01 
01090030001000002LIB       Comptroller of Public Accounts                          Ben Sanders                           PRECINCT 1                                             01 
01090030002000002LIB       Comptroller of Public Accounts                          Ben Sanders                           PRECINCT 2                                             01 
01090030003000005LIB       Comptroller of Public Accounts                          Ben Sanders                           PRECINCT 3                                             01 
01090030004000002LIB       Comptroller of Public Accounts                          Ben Sanders                           PRECINCT 4                                             01 
01090030005000001LIB       Comptroller of Public Accounts                          Ben Sanders                           PRECINCT 6                                             01 
01090040001000000GRN       Comptroller of Public Accounts                          Deb Shafto                            PRECINCT 1                                             01 
01090040002000001GRN       Comptroller of Public Accounts                          Deb Shafto                            PRECINCT 2                                             01 
01090040003000001GRN       Comptroller of Public Accounts                          Deb Shafto                            PRECINCT 3                                             01 
01090040004000000GRN       Comptroller of Public Accounts                          Deb Shafto                            PRECINCT 4                                             01 
01090040005000000GRN       Comptroller of Public Accounts                          Deb Shafto                            PRECINCT 6                                             01 
01090050001000000          Comptroller of Public Accounts                          OVER VOTES                            PRECINCT 1                                             01 
01090050002000000          Comptroller of Public Accounts                          OVER VOTES                            PRECINCT 2                                             01 
01090050003000000          Comptroller of Public Accounts                          OVER VOTES                            PRECINCT 3                                             01 
01090050004000000          Comptroller of Public Accounts                          OVER VOTES                            PRECINCT 4                                             01 
01090050005000000          Comptroller of Public Accounts                          OVER VOTES                            PRECINCT 6                                             01 
01090060001000000          Comptroller of Public Accounts                          UNDER VOTES                           PRECINCT 1                                             01 
01090060002000000          Comptroller of Public Accounts                          UNDER VOTES                           PRECINCT 2                                             01 
01090060003000000          Comptroller of Public Accounts                          UNDER VOTES                           PRECINCT 3                                             01 
01090060004000000          Comptroller of Public Accounts                          UNDER VOTES                           PRECINCT 4                                             01 
01090060005000000          Comptroller of Public Accounts                          UNDER VOTES                           PRECINCT 6                                             01 
01100010001000046REP       Commissioner of the General Land Office                 George P. Bush                        PRECINCT 1                                             01 
01100010002000108REP       Commissioner of the General Land Office                 George P. Bush                        PRECINCT 2                                             01 
01100010003000102REP       Commissioner of the General Land Office                 George P. Bush                        PRECINCT 3                                             01 
01100010004000139REP       Commissioner of the General Land Office                 George P. Bush                        PRECINCT 4                                             01 
01100010005000022REP       Commissioner of the General Land Office                 George P. Bush                        PRECINCT 6                                             01 
01100020001000012DEM       Commissioner of the General Land Office                 John Cook                             PRECINCT 1                                             01 
01100020002000022DEM       Commissioner of the General Land Office                 John Cook                             PRECINCT 2                                             01 
01100020003000016DEM       Commissioner of the General Land Office                 John Cook                             PRECINCT 3                                             01 
01100020004000024DEM       Commissioner of the General Land Office                 John Cook                             PRECINCT 4                                             01 
01100020005000004DEM       Commissioner of the General Land Office                 John Cook                             PRECINCT 6                                             01 
01100030001000001LIB       Commissioner of the General Land Office                 Justin Knight                         PRECINCT 1                                             01 
01100030002000000LIB       Commissioner of the General Land Office                 Justin Knight                         PRECINCT 2                                             01 
01100030003000003LIB       Commissioner of the General Land Office                 Justin Knight                         PRECINCT 3                                             01 
01100030004000001LIB       Commissioner of the General Land Office                 Justin Knight                         PRECINCT 4                                             01 
01100030005000001LIB       Commissioner of the General Land Office                 Justin Knight                         PRECINCT 6                                             01 
01100040001000000GRN       Commissioner of the General Land Office                 Valerie Alessi                        PRECINCT 1                                             01 
01100040002000001GRN       Commissioner of the General Land Office                 Valerie Alessi                        PRECINCT 2                                             01 
01100040003000000GRN       Commissioner of the General Land Office                 Valerie Alessi                        PRECINCT 3                                             01 
01100040004000000GRN       Commissioner of the General Land Office                 Valerie Alessi                        PRECINCT 4                                             01 
01100040005000000GRN       Commissioner of the General Land Office                 Valerie Alessi                        PRECINCT 6                                             01 
01100050001000000          Commissioner of the General Land Office                 OVER VOTES                            PRECINCT 1                                             01 
01100050002000000          Commissioner of the General Land Office                 OVER VOTES                            PRECINCT 2                                             01 
01100050003000000          Commissioner of the General Land Office                 OVER VOTES                            PRECINCT 3                                             01 
01100050004000000          Commissioner of the General Land Office                 OVER VOTES                            PRECINCT 4                                             01 
01100050005000000          Commissioner of the General Land Office                 OVER VOTES                            PRECINCT 6                                             01 
01100060001000000          Commissioner of the General Land Office                 UNDER VOTES                           PRECINCT 1                                             01 
01100060002000000          Commissioner of the General Land Office                 UNDER VOTES                           PRECINCT 2                                             01 
01100060003000000          Commissioner of the General Land Office                 UNDER VOTES                           PRECINCT 3                                             01 
01100060004000000          Commissioner of the General Land Office                 UNDER VOTES                           PRECINCT 4                                             01 
01100060005000000          Commissioner of the General Land Office                 UNDER VOTES                           PRECINCT 6                                             01 
01110010001000046REP       Commissioner of Agriculture                             Sid Miller                            PRECINCT 1                                             01 
01110010002000096REP       Commissioner of Agriculture                             Sid Miller                            PRECINCT 2                                             01 
01110010003000099REP       Commissioner of Agriculture                             Sid Miller                            PRECINCT 3                                             01 
01110010004000137REP       Commissioner of Agriculture                             Sid Miller                            PRECINCT 4                                             01 
01110010005000022REP       Commissioner of Agriculture                             Sid Miller                            PRECINCT 6                                             01 
01110020001000012DEM       Commissioner of Agriculture                             Jim Hogan                             PRECINCT 1                                             01 
01110020002000028DEM       Commissioner of Agriculture                             Jim Hogan                             PRECINCT 2                                             01 
01110020003000019DEM       Commissioner of Agriculture                             Jim Hogan                             PRECINCT 3                                             01 
01110020004000022DEM       Commissioner of Agriculture                             Jim Hogan                             PRECINCT 4                                             01 
01110020005000004DEM       Commissioner of Agriculture                             Jim Hogan                             PRECINCT 6                                             01 
01110030001000002LIB       Commissioner of Agriculture                             David (Rocky) Palmquist               PRECINCT 1                                             01 
01110030002000001LIB       Commissioner of Agriculture                             David (Rocky) Palmquist               PRECINCT 2                                             01 
01110030003000002LIB       Commissioner of Agriculture                             David (Rocky) Palmquist               PRECINCT 3                                             01 
01110030004000000LIB       Commissioner of Agriculture                             David (Rocky) Palmquist               PRECINCT 4                                             01 
01110030005000000LIB       Commissioner of Agriculture                             David (Rocky) Palmquist               PRECINCT 6                                             01 
01110040001000001GRN       Commissioner of Agriculture                             Kenneth Kendrick                      PRECINCT 1                                             01 
01110040002000003GRN       Commissioner of Agriculture                             Kenneth Kendrick                      PRECINCT 2                                             01 
01110040003000001GRN       Commissioner of Agriculture                             Kenneth Kendrick                      PRECINCT 3                                             01 
01110040004000001GRN       Commissioner of Agriculture                             Kenneth Kendrick                      PRECINCT 4                                             01 
01110040005000001GRN       Commissioner of Agriculture                             Kenneth Kendrick                      PRECINCT 6                                             01 
01110050001000000          Commissioner of Agriculture                             OVER VOTES                            PRECINCT 1                                             01 
01110050002000000          Commissioner of Agriculture                             OVER VOTES                            PRECINCT 2                                             01 
01110050003000000          Commissioner of Agriculture                             OVER VOTES                            PRECINCT 3                                             01 
01110050004000000          Commissioner of Agriculture                             OVER VOTES                            PRECINCT 4                                             01 
01110050005000000          Commissioner of Agriculture                             OVER VOTES                            PRECINCT 6                                             01 
01110060001000000          Commissioner of Agriculture                             UNDER VOTES                           PRECINCT 1                                             01 
01110060002000000          Commissioner of Agriculture                             UNDER VOTES                           PRECINCT 2                                             01 
01110060003000000          Commissioner of Agriculture                             UNDER VOTES                           PRECINCT 3                                             01 
01110060004000000          Commissioner of Agriculture                             UNDER VOTES                           PRECINCT 4                                             01 
01110060005000000          Commissioner of Agriculture                             UNDER VOTES                           PRECINCT 6                                             01 
01120010001000044REP       Railroad Commissioner                                   Ryan Sitton                           PRECINCT 1                                             01 
01120010002000100REP       Railroad Commissioner                                   Ryan Sitton                           PRECINCT 2                                             01 
01120010003000099REP       Railroad Commissioner                                   Ryan Sitton                           PRECINCT 3                                             01 
01120010004000132REP       Railroad Commissioner                                   Ryan Sitton                           PRECINCT 4                                             01 
01120010005000022REP       Railroad Commissioner                                   Ryan Sitton                           PRECINCT 6                                             01 
01120020001000011DEM       Railroad Commissioner                                   Steve Brown                           PRECINCT 1                                             01 
01120020002000024DEM       Railroad Commissioner                                   Steve Brown                           PRECINCT 2                                             01 
01120020003000020DEM       Railroad Commissioner                                   Steve Brown                           PRECINCT 3                                             01 
01120020004000026DEM       Railroad Commissioner                                   Steve Brown                           PRECINCT 4                                             01 
01120020005000003DEM       Railroad Commissioner                                   Steve Brown                           PRECINCT 6                                             01 
01120030001000005LIB       Railroad Commissioner                                   Mark A. Miller                        PRECINCT 1                                             01 
01120030002000002LIB       Railroad Commissioner                                   Mark A. Miller                        PRECINCT 2                                             01 
01120030003000001LIB       Railroad Commissioner                                   Mark A. Miller                        PRECINCT 3                                             01 
01120030004000002LIB       Railroad Commissioner                                   Mark A. Miller                        PRECINCT 4                                             01 
01120030005000002LIB       Railroad Commissioner                                   Mark A. Miller                        PRECINCT 6                                             01 
01120040001000000GRN       Railroad Commissioner                                   Martina Salinas                       PRECINCT 1                                             01 
01120040002000002GRN       Railroad Commissioner                                   Martina Salinas                       PRECINCT 2                                             01 
01120040003000001GRN       Railroad Commissioner                                   Martina Salinas                       PRECINCT 3                                             01 
01120040004000001GRN       Railroad Commissioner                                   Martina Salinas                       PRECINCT 4                                             01 
01120040005000000GRN       Railroad Commissioner                                   Martina Salinas                       PRECINCT 6                                             01 
01120050001000000          Railroad Commissioner                                   OVER VOTES                            PRECINCT 1                                             01 
01120050002000000          Railroad Commissioner                                   OVER VOTES                            PRECINCT 2                                             01 
01120050003000000          Railroad Commissioner                                   OVER VOTES                            PRECINCT 3                                             01 
01120050004000000          Railroad Commissioner                                   OVER VOTES                            PRECINCT 4                                             01 
01120050005000000          Railroad Commissioner                                   OVER VOTES                            PRECINCT 6                                             01 
01120060001000000          Railroad Commissioner                                   UNDER VOTES                           PRECINCT 1                                             01 
01120060002000000          Railroad Commissioner                                   UNDER VOTES                           PRECINCT 2                                             01 
01120060003000000          Railroad Commissioner                                   UNDER VOTES                           PRECINCT 3                                             01 
01120060004000000          Railroad Commissioner                                   UNDER VOTES                           PRECINCT 4                                             01 
01120060005000000          Railroad Commissioner                                   UNDER VOTES                           PRECINCT 6                                             01 
01130010001000047REP       Chief Justice, Supreme Court                            Nathan Hecht                          PRECINCT 1                                             01 
01130010002000099REP       Chief Justice, Supreme Court                            Nathan Hecht                          PRECINCT 2                                             01 
01130010003000096REP       Chief Justice, Supreme Court                            Nathan Hecht                          PRECINCT 3                                             01 
01130010004000132REP       Chief Justice, Supreme Court                            Nathan Hecht                          PRECINCT 4                                             01 
01130010005000020REP       Chief Justice, Supreme Court                            Nathan Hecht                          PRECINCT 6                                             01 
01130020001000008DEM       Chief Justice, Supreme Court                            William Moody                         PRECINCT 1                                             01 
01130020002000027DEM       Chief Justice, Supreme Court                            William Moody                         PRECINCT 2                                             01 
01130020003000020DEM       Chief Justice, Supreme Court                            William Moody                         PRECINCT 3                                             01 
01130020004000022DEM       Chief Justice, Supreme Court                            William Moody                         PRECINCT 4                                             01 
01130020005000005DEM       Chief Justice, Supreme Court                            William Moody                         PRECINCT 6                                             01 
01130030001000002LIB       Chief Justice, Supreme Court                            Tom Oxford                            PRECINCT 1                                             01 
01130030002000001LIB       Chief Justice, Supreme Court                            Tom Oxford                            PRECINCT 2                                             01 
01130030003000005LIB       Chief Justice, Supreme Court                            Tom Oxford                            PRECINCT 3                                             01 
01130030004000002LIB       Chief Justice, Supreme Court                            Tom Oxford                            PRECINCT 4                                             01 
01130030005000000LIB       Chief Justice, Supreme Court                            Tom Oxford                            PRECINCT 6                                             01 
01130040001000000          Chief Justice, Supreme Court                            OVER VOTES                            PRECINCT 1                                             01 
01130040002000000          Chief Justice, Supreme Court                            OVER VOTES                            PRECINCT 2                                             01 
01130040003000000          Chief Justice, Supreme Court                            OVER VOTES                            PRECINCT 3                                             01 
01130040004000000          Chief Justice, Supreme Court                            OVER VOTES                            PRECINCT 4                                             01 
01130040005000000          Chief Justice, Supreme Court                            OVER VOTES                            PRECINCT 6                                             01 
01130050001000000          Chief Justice, Supreme Court                            UNDER VOTES                           PRECINCT 1                                             01 
01130050002000000          Chief Justice, Supreme Court                            UNDER VOTES                           PRECINCT 2                                             01 
01130050003000000          Chief Justice, Supreme Court                            UNDER VOTES                           PRECINCT 3                                             01 
01130050004000000          Chief Justice, Supreme Court                            UNDER VOTES                           PRECINCT 4                                             01 
01130050005000000          Chief Justice, Supreme Court                            UNDER VOTES                           PRECINCT 6                                             01 
01140010001000048REP       Supreme Court, Place 6, Unexpired Term                  Jeff Brown                            PRECINCT 1                                             01 
01140010002000106REP       Supreme Court, Place 6, Unexpired Term                  Jeff Brown                            PRECINCT 2                                             01 
01140010003000101REP       Supreme Court, Place 6, Unexpired Term                  Jeff Brown                            PRECINCT 3                                             01 
01140010004000132REP       Supreme Court, Place 6, Unexpired Term                  Jeff Brown                            PRECINCT 4                                             01 
01140010005000021REP       Supreme Court, Place 6, Unexpired Term                  Jeff Brown                            PRECINCT 6                                             01 
01140020001000009DEM       Supreme Court, Place 6, Unexpired Term                  Lawrence Edward Meyers                PRECINCT 1                                             01 
01140020002000022DEM       Supreme Court, Place 6, Unexpired Term                  Lawrence Edward Meyers                PRECINCT 2                                             01 
01140020003000017DEM       Supreme Court, Place 6, Unexpired Term                  Lawrence Edward Meyers                PRECINCT 3                                             01 
01140020004000019DEM       Supreme Court, Place 6, Unexpired Term                  Lawrence Edward Meyers                PRECINCT 4                                             01 
01140020005000004DEM       Supreme Court, Place 6, Unexpired Term                  Lawrence Edward Meyers                PRECINCT 6                                             01 
01140030001000002LIB       Supreme Court, Place 6, Unexpired Term                  Mark Ash                              PRECINCT 1                                             01 
01140030002000000LIB       Supreme Court, Place 6, Unexpired Term                  Mark Ash                              PRECINCT 2                                             01 
01140030003000003LIB       Supreme Court, Place 6, Unexpired Term                  Mark Ash                              PRECINCT 3                                             01 
01140030004000003LIB       Supreme Court, Place 6, Unexpired Term                  Mark Ash                              PRECINCT 4                                             01 
01140030005000000LIB       Supreme Court, Place 6, Unexpired Term                  Mark Ash                              PRECINCT 6                                             01 
01140040001000000          Supreme Court, Place 6, Unexpired Term                  OVER VOTES                            PRECINCT 1                                             01 
01140040002000000          Supreme Court, Place 6, Unexpired Term                  OVER VOTES                            PRECINCT 2                                             01 
01140040003000000          Supreme Court, Place 6, Unexpired Term                  OVER VOTES                            PRECINCT 3                                             01 
01140040004000000          Supreme Court, Place 6, Unexpired Term                  OVER VOTES                            PRECINCT 4                                             01 
01140040005000000          Supreme Court, Place 6, Unexpired Term                  OVER VOTES                            PRECINCT 6                                             01 
01140050001000000          Supreme Court, Place 6, Unexpired Term                  UNDER VOTES                           PRECINCT 1                                             01 
01140050002000000          Supreme Court, Place 6, Unexpired Term                  UNDER VOTES                           PRECINCT 2                                             01 
01140050003000000          Supreme Court, Place 6, Unexpired Term                  UNDER VOTES                           PRECINCT 3                                             01 
01140050004000000          Supreme Court, Place 6, Unexpired Term                  UNDER VOTES                           PRECINCT 4                                             01 
01140050005000000          Supreme Court, Place 6, Unexpired Term                  UNDER VOTES                           PRECINCT 6                                             01 
01150010001000047REP       Justice, Supreme Court, Place 7                         Jeff Boyd                             PRECINCT 1                                             01 
01150010002000104REP       Justice, Supreme Court, Place 7                         Jeff Boyd                             PRECINCT 2                                             01 
01150010003000104REP       Justice, Supreme Court, Place 7                         Jeff Boyd                             PRECINCT 3                                             01 
01150010004000131REP       Justice, Supreme Court, Place 7                         Jeff Boyd                             PRECINCT 4                                             01 
01150010005000021REP       Justice, Supreme Court, Place 7                         Jeff Boyd                             PRECINCT 6                                             01 
01150020001000009DEM       Justice, Supreme Court, Place 7                         Gina Benavides                        PRECINCT 1                                             01 
01150020002000020DEM       Justice, Supreme Court, Place 7                         Gina Benavides                        PRECINCT 2                                             01 
01150020003000013DEM       Justice, Supreme Court, Place 7                         Gina Benavides                        PRECINCT 3                                             01 
01150020004000020DEM       Justice, Supreme Court, Place 7                         Gina Benavides                        PRECINCT 4                                             01 
01150020005000003DEM       Justice, Supreme Court, Place 7                         Gina Benavides                        PRECINCT 6                                             01 
01150030001000003LIB       Justice, Supreme Court, Place 7                         Don Fulton                            PRECINCT 1                                             01 
01150030002000001LIB       Justice, Supreme Court, Place 7                         Don Fulton                            PRECINCT 2                                             01 
01150030003000003LIB       Justice, Supreme Court, Place 7                         Don Fulton                            PRECINCT 3                                             01 
01150030004000003LIB       Justice, Supreme Court, Place 7                         Don Fulton                            PRECINCT 4                                             01 
01150030005000000LIB       Justice, Supreme Court, Place 7                         Don Fulton                            PRECINCT 6                                             01 
01150040001000000GRN       Justice, Supreme Court, Place 7                         Charles E. Waterbury                  PRECINCT 1                                             01 
01150040002000003GRN       Justice, Supreme Court, Place 7                         Charles E. Waterbury                  PRECINCT 2                                             01 
01150040003000001GRN       Justice, Supreme Court, Place 7                         Charles E. Waterbury                  PRECINCT 3                                             01 
01150040004000001GRN       Justice, Supreme Court, Place 7                         Charles E. Waterbury                  PRECINCT 4                                             01 
01150040005000001GRN       Justice, Supreme Court, Place 7                         Charles E. Waterbury                  PRECINCT 6                                             01 
01150050001000000          Justice, Supreme Court, Place 7                         OVER VOTES                            PRECINCT 1                                             01 
01150050002000000          Justice, Supreme Court, Place 7                         OVER VOTES                            PRECINCT 2                                             01 
01150050003000000          Justice, Supreme Court, Place 7                         OVER VOTES                            PRECINCT 3                                             01 
01150050004000000          Justice, Supreme Court, Place 7                         OVER VOTES                            PRECINCT 4                                             01 
01150050005000000          Justice, Supreme Court, Place 7                         OVER VOTES                            PRECINCT 6                                             01 
01150060001000000          Justice, Supreme Court, Place 7                         UNDER VOTES                           PRECINCT 1                                             01 
01150060002000000          Justice, Supreme Court, Place 7                         UNDER VOTES                           PRECINCT 2                                             01 
01150060003000000          Justice, Supreme Court, Place 7                         UNDER VOTES                           PRECINCT 3                                             01 
01150060004000000          Justice, Supreme Court, Place 7                         UNDER VOTES                           PRECINCT 4                                             01 
01150060005000000          Justice, Supreme Court, Place 7                         UNDER VOTES                           PRECINCT 6                                             01 
01160010001000047REP       Justice, Supreme Court, Place 8                         Phil Johnson                          PRECINCT 1                                             01 
01160010002000107REP       Justice, Supreme Court, Place 8                         Phil Johnson                          PRECINCT 2                                             01 
01160010003000105REP       Justice, Supreme Court, Place 8                         Phil Johnson                          PRECINCT 3                                             01 
01160010004000141REP       Justice, Supreme Court, Place 8                         Phil Johnson                          PRECINCT 4                                             01 
01160010005000022REP       Justice, Supreme Court, Place 8                         Phil Johnson                          PRECINCT 6                                             01 
01160020001000005LIB       Justice, Supreme Court, Place 8                         RS Roberto Koelsch                    PRECINCT 1                                             01 
01160020002000003LIB       Justice, Supreme Court, Place 8                         RS Roberto Koelsch                    PRECINCT 2                                             01 
01160020003000006LIB       Justice, Supreme Court, Place 8                         RS Roberto Koelsch                    PRECINCT 3                                             01 
01160020004000002LIB       Justice, Supreme Court, Place 8                         RS Roberto Koelsch                    PRECINCT 4                                             01 
01160020005000000LIB       Justice, Supreme Court, Place 8                         RS Roberto Koelsch                    PRECINCT 6                                             01 
01160030001000004GRN       Justice, Supreme Court, Place 8                         Jim Chisolm                           PRECINCT 1                                             01 
01160030002000006GRN       Justice, Supreme Court, Place 8                         Jim Chisolm                           PRECINCT 2                                             01 
01160030003000005GRN       Justice, Supreme Court, Place 8                         Jim Chisolm                           PRECINCT 3                                             01 
01160030004000005GRN       Justice, Supreme Court, Place 8                         Jim Chisolm                           PRECINCT 4                                             01 
01160030005000002GRN       Justice, Supreme Court, Place 8                         Jim Chisolm                           PRECINCT 6                                             01 
01160040001000000          Justice, Supreme Court, Place 8                         OVER VOTES                            PRECINCT 1                                             01 
01160040002000000          Justice, Supreme Court, Place 8                         OVER VOTES                            PRECINCT 2                                             01 
01160040003000000          Justice, Supreme Court, Place 8                         OVER VOTES                            PRECINCT 3                                             01 
01160040004000000          Justice, Supreme Court, Place 8                         OVER VOTES                            PRECINCT 4                                             01 
01160040005000000          Justice, Supreme Court, Place 8                         OVER VOTES                            PRECINCT 6                                             01 
01160050001000000          Justice, Supreme Court, Place 8                         UNDER VOTES                           PRECINCT 1                                             01 
01160050002000000          Justice, Supreme Court, Place 8                         UNDER VOTES                           PRECINCT 2                                             01 
01160050003000000          Justice, Supreme Court, Place 8                         UNDER VOTES                           PRECINCT 3                                             01 
01160050004000000          Justice, Supreme Court, Place 8                         UNDER VOTES                           PRECINCT 4                                             01 
01160050005000000          Justice, Supreme Court, Place 8                         UNDER VOTES                           PRECINCT 6                                             01 
01170010001000045REP       Judge, Court of Criminal Appeals, Pl 3                  Bert Richardson                       PRECINCT 1                                             01 
01170010002000100REP       Judge, Court of Criminal Appeals, Pl 3                  Bert Richardson                       PRECINCT 2                                             01 
01170010003000101REP       Judge, Court of Criminal Appeals, Pl 3                  Bert Richardson                       PRECINCT 3                                             01 
01170010004000131REP       Judge, Court of Criminal Appeals, Pl 3                  Bert Richardson                       PRECINCT 4                                             01 
01170010005000021REP       Judge, Court of Criminal Appeals, Pl 3                  Bert Richardson                       PRECINCT 6                                             01 
01170020001000008DEM       Judge, Court of Criminal Appeals, Pl 3                  John Granberg                         PRECINCT 1                                             01 
01170020002000025DEM       Judge, Court of Criminal Appeals, Pl 3                  John Granberg                         PRECINCT 2                                             01 
01170020003000015DEM       Judge, Court of Criminal Appeals, Pl 3                  John Granberg                         PRECINCT 3                                             01 
01170020004000020DEM       Judge, Court of Criminal Appeals, Pl 3                  John Granberg                         PRECINCT 4                                             01 
01170020005000004DEM       Judge, Court of Criminal Appeals, Pl 3                  John Granberg                         PRECINCT 6                                             01 
01170030001000003LIB       Judge, Court of Criminal Appeals, Pl 3                  Mark W. Bennett                       PRECINCT 1                                             01 
01170030002000002LIB       Judge, Court of Criminal Appeals, Pl 3                  Mark W. Bennett                       PRECINCT 2                                             01 
01170030003000005LIB       Judge, Court of Criminal Appeals, Pl 3                  Mark W. Bennett                       PRECINCT 3                                             01 
01170030004000004LIB       Judge, Court of Criminal Appeals, Pl 3                  Mark W. Bennett                       PRECINCT 4                                             01 
01170030005000000LIB       Judge, Court of Criminal Appeals, Pl 3                  Mark W. Bennett                       PRECINCT 6                                             01 
01170040001000000          Judge, Court of Criminal Appeals, Pl 3                  OVER VOTES                            PRECINCT 1                                             01 
01170040002000000          Judge, Court of Criminal Appeals, Pl 3                  OVER VOTES                            PRECINCT 2                                             01 
01170040003000000          Judge, Court of Criminal Appeals, Pl 3                  OVER VOTES                            PRECINCT 3                                             01 
01170040004000000          Judge, Court of Criminal Appeals, Pl 3                  OVER VOTES                            PRECINCT 4                                             01 
01170040005000000          Judge, Court of Criminal Appeals, Pl 3                  OVER VOTES                            PRECINCT 6                                             01 
01170050001000000          Judge, Court of Criminal Appeals, Pl 3                  UNDER VOTES                           PRECINCT 1                                             01 
01170050002000000          Judge, Court of Criminal Appeals, Pl 3                  UNDER VOTES                           PRECINCT 2                                             01 
01170050003000000          Judge, Court of Criminal Appeals, Pl 3                  UNDER VOTES                           PRECINCT 3                                             01 
01170050004000000          Judge, Court of Criminal Appeals, Pl 3                  UNDER VOTES                           PRECINCT 4                                             01 
01170050005000000          Judge, Court of Criminal Appeals, Pl 3                  UNDER VOTES                           PRECINCT 6                                             01 
01180010001000048REP       Judge, Court of Criminal Appeals, Pl 4                  Kevin Patrick Yeary                   PRECINCT 1                                             01 
01180010002000105REP       Judge, Court of Criminal Appeals, Pl 4                  Kevin Patrick Yeary                   PRECINCT 2                                             01 
01180010003000105REP       Judge, Court of Criminal Appeals, Pl 4                  Kevin Patrick Yeary                   PRECINCT 3                                             01 
01180010004000132REP       Judge, Court of Criminal Appeals, Pl 4                  Kevin Patrick Yeary                   PRECINCT 4                                             01 
01180010005000022REP       Judge, Court of Criminal Appeals, Pl 4                  Kevin Patrick Yeary                   PRECINCT 6                                             01 
01180020001000006LIB       Judge, Court of Criminal Appeals, Pl 4                  Quanah Parker                         PRECINCT 1                                             01 
01180020002000008LIB       Judge, Court of Criminal Appeals, Pl 4                  Quanah Parker                         PRECINCT 2                                             01 
01180020003000008LIB       Judge, Court of Criminal Appeals, Pl 4                  Quanah Parker                         PRECINCT 3                                             01 
01180020004000012LIB       Judge, Court of Criminal Appeals, Pl 4                  Quanah Parker                         PRECINCT 4                                             01 
01180020005000001LIB       Judge, Court of Criminal Appeals, Pl 4                  Quanah Parker                         PRECINCT 6                                             01 
01180030001000001GRN       Judge, Court of Criminal Appeals, Pl 4                  Judith Sanders-Castro                 PRECINCT 1                                             01 
01180030002000002GRN       Judge, Court of Criminal Appeals, Pl 4                  Judith Sanders-Castro                 PRECINCT 2                                             01 
01180030003000002GRN       Judge, Court of Criminal Appeals, Pl 4                  Judith Sanders-Castro                 PRECINCT 3                                             01 
01180030004000002GRN       Judge, Court of Criminal Appeals, Pl 4                  Judith Sanders-Castro                 PRECINCT 4                                             01 
01180030005000001GRN       Judge, Court of Criminal Appeals, Pl 4                  Judith Sanders-Castro                 PRECINCT 6                                             01 
01180040001000000          Judge, Court of Criminal Appeals, Pl 4                  OVER VOTES                            PRECINCT 1                                             01 
01180040002000000          Judge, Court of Criminal Appeals, Pl 4                  OVER VOTES                            PRECINCT 2                                             01 
01180040003000000          Judge, Court of Criminal Appeals, Pl 4                  OVER VOTES                            PRECINCT 3                                             01 
01180040004000000          Judge, Court of Criminal Appeals, Pl 4                  OVER VOTES                            PRECINCT 4                                             01 
01180040005000000          Judge, Court of Criminal Appeals, Pl 4                  OVER VOTES                            PRECINCT 6                                             01 
01180050001000000          Judge, Court of Criminal Appeals, Pl 4                  UNDER VOTES                           PRECINCT 1                                             01 
01180050002000000          Judge, Court of Criminal Appeals, Pl 4                  UNDER VOTES                           PRECINCT 2                                             01 
01180050003000000          Judge, Court of Criminal Appeals, Pl 4                  UNDER VOTES                           PRECINCT 3                                             01 
01180050004000000          Judge, Court of Criminal Appeals, Pl 4                  UNDER VOTES                           PRECINCT 4                                             01 
01180050005000000          Judge, Court of Criminal Appeals, Pl 4                  UNDER VOTES                           PRECINCT 6                                             01 
01190010001000047REP       Judge, Court of Criminal Appeals, Pl 9                  David Newell                          PRECINCT 1                                             01 
01190010002000109REP       Judge, Court of Criminal Appeals, Pl 9                  David Newell                          PRECINCT 2                                             01 
01190010003000102REP       Judge, Court of Criminal Appeals, Pl 9                  David Newell                          PRECINCT 3                                             01 
01190010004000132REP       Judge, Court of Criminal Appeals, Pl 9                  David Newell                          PRECINCT 4                                             01 
01190010005000022REP       Judge, Court of Criminal Appeals, Pl 9                  David Newell                          PRECINCT 6                                             01 
01190020001000007LIB       Judge, Court of Criminal Appeals, Pl 9                  William Bryan Strange, III            PRECINCT 1                                             01 
01190020002000006LIB       Judge, Court of Criminal Appeals, Pl 9                  William Bryan Strange, III            PRECINCT 2                                             01 
01190020003000012LIB       Judge, Court of Criminal Appeals, Pl 9                  William Bryan Strange, III            PRECINCT 3                                             01 
01190020004000011LIB       Judge, Court of Criminal Appeals, Pl 9                  William Bryan Strange, III            PRECINCT 4                                             01 
01190020005000002LIB       Judge, Court of Criminal Appeals, Pl 9                  William Bryan Strange, III            PRECINCT 6                                             01 
01190030001000002GRN       Judge, Court of Criminal Appeals, Pl 9                  George Joseph Altgelt                 PRECINCT 1                                             01 
01190030002000002GRN       Judge, Court of Criminal Appeals, Pl 9                  George Joseph Altgelt                 PRECINCT 2                                             01 
01190030003000001GRN       Judge, Court of Criminal Appeals, Pl 9                  George Joseph Altgelt                 PRECINCT 3                                             01 
01190030004000004GRN       Judge, Court of Criminal Appeals, Pl 9                  George Joseph Altgelt                 PRECINCT 4                                             01 
01190030005000001GRN       Judge, Court of Criminal Appeals, Pl 9                  George Joseph Altgelt                 PRECINCT 6                                             01 
01190040001000000          Judge, Court of Criminal Appeals, Pl 9                  OVER VOTES                            PRECINCT 1                                             01 
01190040002000000          Judge, Court of Criminal Appeals, Pl 9                  OVER VOTES                            PRECINCT 2                                             01 
01190040003000000          Judge, Court of Criminal Appeals, Pl 9                  OVER VOTES                            PRECINCT 3                                             01 
01190040004000000          Judge, Court of Criminal Appeals, Pl 9                  OVER VOTES                            PRECINCT 4                                             01 
01190040005000000          Judge, Court of Criminal Appeals, Pl 9                  OVER VOTES                            PRECINCT 6                                             01 
01190050001000000          Judge, Court of Criminal Appeals, Pl 9                  UNDER VOTES                           PRECINCT 1                                             01 
01190050002000000          Judge, Court of Criminal Appeals, Pl 9                  UNDER VOTES                           PRECINCT 2                                             01 
01190050003000000          Judge, Court of Criminal Appeals, Pl 9                  UNDER VOTES                           PRECINCT 3                                             01 
01190050004000000          Judge, Court of Criminal Appeals, Pl 9                  UNDER VOTES                           PRECINCT 4                                             01 
01190050005000000          Judge, Court of Criminal Appeals, Pl 9                  UNDER VOTES                           PRECINCT 6                                             01 
01200010001000051REP       State Senator, District 31                              Kel Seliger                           PRECINCT 1                                             01 
01200010002000110REP       State Senator, District 31                              Kel Seliger                           PRECINCT 2                                             01 
01200010003000104REP       State Senator, District 31                              Kel Seliger                           PRECINCT 3                                             01 
01200010004000140REP       State Senator, District 31                              Kel Seliger                           PRECINCT 4                                             01 
01200010005000025REP       State Senator, District 31                              Kel Seliger                           PRECINCT 6                                             01 
01200020001000006LIB       State Senator, District 31                              Steven Gibson                         PRECINCT 1                                             01 
01200020002000007LIB       State Senator, District 31                              Steven Gibson                         PRECINCT 2                                             01 
01200020003000011LIB       State Senator, District 31                              Steven Gibson                         PRECINCT 3                                             01 
01200020004000013LIB       State Senator, District 31                              Steven Gibson                         PRECINCT 4                                             01 
01200020005000003LIB       State Senator, District 31                              Steven Gibson                         PRECINCT 6                                             01 
01200030001000000          State Senator, District 31                              OVER VOTES                            PRECINCT 1                                             01 
01200030002000000          State Senator, District 31                              OVER VOTES                            PRECINCT 2                                             01 
01200030003000000          State Senator, District 31                              OVER VOTES                            PRECINCT 3                                             01 
01200030004000000          State Senator, District 31                              OVER VOTES                            PRECINCT 4                                             01 
01200030005000000          State Senator, District 31                              OVER VOTES                            PRECINCT 6                                             01 
01200040001000000          State Senator, District 31                              UNDER VOTES                           PRECINCT 1                                             01 
01200040002000000          State Senator, District 31                              UNDER VOTES                           PRECINCT 2                                             01 
01200040003000000          State Senator, District 31                              UNDER VOTES                           PRECINCT 3                                             01 
01200040004000000          State Senator, District 31                              UNDER VOTES                           PRECINCT 4                                             01 
01200040005000000          State Senator, District 31                              UNDER VOTES                           PRECINCT 6                                             01 
01210010001000053REP       State Representative, District 88                       Ken King                              PRECINCT 1                                             01 
01210010002000110REP       State Representative, District 88                       Ken King                              PRECINCT 2                                             01 
01210010003000111REP       State Representative, District 88                       Ken King                              PRECINCT 3                                             01 
01210010004000142REP       State Representative, District 88                       Ken King                              PRECINCT 4                                             01 
01210010005000022REP       State Representative, District 88                       Ken King                              PRECINCT 6                                             01 
01210020001000004LIB       State Representative, District 88                       Kerry McKennon                        PRECINCT 1                                             01 
01210020002000006LIB       State Representative, District 88                       Kerry McKennon                        PRECINCT 2                                             01 
01210020003000007LIB       State Representative, District 88                       Kerry McKennon                        PRECINCT 3                                             01 
01210020004000009LIB       State Representative, District 88                       Kerry McKennon                        PRECINCT 4                                             01 
01210020005000003LIB       State Representative, District 88                       Kerry McKennon                        PRECINCT 6                                             01 
01210030001000000          State Representative, District 88                       OVER VOTES                            PRECINCT 1                                             01 
01210030002000000          State Representative, District 88                       OVER VOTES                            PRECINCT 2                                             01 
01210030003000000          State Representative, District 88                       OVER VOTES                            PRECINCT 3                                             01 
01210030004000000          State Representative, District 88                       OVER VOTES                            PRECINCT 4                                             01 
01210030005000000          State Representative, District 88                       OVER VOTES                            PRECINCT 6                                             01 
01210040001000000          State Representative, District 88                       UNDER VOTES                           PRECINCT 1                                             01 
01210040002000000          State Representative, District 88                       UNDER VOTES                           PRECINCT 2                                             01 
01210040003000000          State Representative, District 88                       UNDER VOTES                           PRECINCT 3                                             01 
01210040004000000          State Representative, District 88                       UNDER VOTES                           PRECINCT 4                                             01 
01210040005000000          State Representative, District 88                       UNDER VOTES                           PRECINCT 6                                             01 
01220010001000050REP       Chief Justice, 7th Court of Appeals Dist                Brian Quinn                           PRECINCT 1                                             01 
01220010002000110REP       Chief Justice, 7th Court of Appeals Dist                Brian Quinn                           PRECINCT 2                                             01 
01220010003000102REP       Chief Justice, 7th Court of Appeals Dist                Brian Quinn                           PRECINCT 3                                             01 
01220010004000135REP       Chief Justice, 7th Court of Appeals Dist                Brian Quinn                           PRECINCT 4                                             01 
01220010005000024REP       Chief Justice, 7th Court of Appeals Dist                Brian Quinn                           PRECINCT 6                                             01 
01220020001000000          Chief Justice, 7th Court of Appeals Dist                OVER VOTES                            PRECINCT 1                                             01 
01220020002000000          Chief Justice, 7th Court of Appeals Dist                OVER VOTES                            PRECINCT 2                                             01 
01220020003000000          Chief Justice, 7th Court of Appeals Dist                OVER VOTES                            PRECINCT 3                                             01 
01220020004000000          Chief Justice, 7th Court of Appeals Dist                OVER VOTES                            PRECINCT 4                                             01 
01220020005000000          Chief Justice, 7th Court of Appeals Dist                OVER VOTES                            PRECINCT 6                                             01 
01220030001000000          Chief Justice, 7th Court of Appeals Dist                UNDER VOTES                           PRECINCT 1                                             01 
01220030002000000          Chief Justice, 7th Court of Appeals Dist                UNDER VOTES                           PRECINCT 2                                             01 
