01380010001000026DEM       United States Senator                                   David M. Alameel                      PRECINCT 101                                           01 
01380010002000004DEM       United States Senator                                   David M. Alameel                      PRECINCT 102                                           01 
01380010003000002DEM       United States Senator                                   David M. Alameel                      PRECINCT 103                                           01 
01380010004000026DEM       United States Senator                                   David M. Alameel                      PRECINCT 201                                           01 
01380010005000002DEM       United States Senator                                   David M. Alameel                      PRECINCT 202                                           01 
01380010006000006DEM       United States Senator                                   David M. Alameel                      PRECINCT 301                                           01 
01380010007000003DEM       United States Senator                                   David M. Alameel                      PRECINCT 302                                           01 
01380010008000000DEM       United States Senator                                   David M. Alameel                      PRECINCT 303                                           01 
01380010009000001DEM       United States Senator                                   David M. Alameel                      PRECINCT 304                                           01 
01380010010000011DEM       United States Senator                                   David M. Alameel                      PRECINCT 305                                           01 
01380010011000007DEM       United States Senator                                   David M. Alameel                      PRECINCT 401                                           01 
01380010012000029DEM       United States Senator                                   David M. Alameel                      PRECINCT 402                                           01 
01380020001000009DEM       United States Senator                                   Maxey Marie Scherr                    PRECINCT 101                                           01 
01380020002000001DEM       United States Senator                                   Maxey Marie Scherr                    PRECINCT 102                                           01 
01380020003000001DEM       United States Senator                                   Maxey Marie Scherr                    PRECINCT 103                                           01 
01380020004000009DEM       United States Senator                                   Maxey Marie Scherr                    PRECINCT 201                                           01 
01380020005000001DEM       United States Senator                                   Maxey Marie Scherr                    PRECINCT 202                                           01 
01380020006000006DEM       United States Senator                                   Maxey Marie Scherr                    PRECINCT 301                                           01 
01380020007000001DEM       United States Senator                                   Maxey Marie Scherr                    PRECINCT 302                                           01 
01380020008000003DEM       United States Senator                                   Maxey Marie Scherr                    PRECINCT 303                                           01 
01380020009000002DEM       United States Senator                                   Maxey Marie Scherr                    PRECINCT 304                                           01 
01380020010000003DEM       United States Senator                                   Maxey Marie Scherr                    PRECINCT 305                                           01 
01380020011000003DEM       United States Senator                                   Maxey Marie Scherr                    PRECINCT 401                                           01 
01380020012000003DEM       United States Senator                                   Maxey Marie Scherr                    PRECINCT 402                                           01 
01380030001000007DEM       United States Senator                                   Harry Kim                             PRECINCT 101                                           01 
01380030002000000DEM       United States Senator                                   Harry Kim                             PRECINCT 102                                           01 
01380030003000004DEM       United States Senator                                   Harry Kim                             PRECINCT 103                                           01 
01380030004000002DEM       United States Senator                                   Harry Kim                             PRECINCT 201                                           01 
01380030005000001DEM       United States Senator                                   Harry Kim                             PRECINCT 202                                           01 
01380030006000000DEM       United States Senator                                   Harry Kim                             PRECINCT 301                                           01 
01380030007000002DEM       United States Senator                                   Harry Kim                             PRECINCT 302                                           01 
01380030008000000DEM       United States Senator                                   Harry Kim                             PRECINCT 303                                           01 
01380030009000000DEM       United States Senator                                   Harry Kim                             PRECINCT 304                                           01 
01380030010000001DEM       United States Senator                                   Harry Kim                             PRECINCT 305                                           01 
01380030011000002DEM       United States Senator                                   Harry Kim                             PRECINCT 401                                           01 
01380030012000002DEM       United States Senator                                   Harry Kim                             PRECINCT 402                                           01 
01380040001000000DEM       United States Senator                                   Michael "Fjet" Fjetland               PRECINCT 101                                           01 
01380040002000000DEM       United States Senator                                   Michael "Fjet" Fjetland               PRECINCT 102                                           01 
01380040003000002DEM       United States Senator                                   Michael "Fjet" Fjetland               PRECINCT 103                                           01 
01380040004000000DEM       United States Senator                                   Michael "Fjet" Fjetland               PRECINCT 201                                           01 
01380040005000000DEM       United States Senator                                   Michael "Fjet" Fjetland               PRECINCT 202                                           01 
01380040006000001DEM       United States Senator                                   Michael "Fjet" Fjetland               PRECINCT 301                                           01 
01380040007000001DEM       United States Senator                                   Michael "Fjet" Fjetland               PRECINCT 302                                           01 
01380040008000000DEM       United States Senator                                   Michael "Fjet" Fjetland               PRECINCT 303                                           01 
01380040009000000DEM       United States Senator                                   Michael "Fjet" Fjetland               PRECINCT 304                                           01 
01380040010000001DEM       United States Senator                                   Michael "Fjet" Fjetland               PRECINCT 305                                           01 
01380040011000000DEM       United States Senator                                   Michael "Fjet" Fjetland               PRECINCT 401                                           01 
01380040012000001DEM       United States Senator                                   Michael "Fjet" Fjetland               PRECINCT 402                                           01 
01380050001000009DEM       United States Senator                                   Kesha Rogers                          PRECINCT 101                                           01 
01380050002000001DEM       United States Senator                                   Kesha Rogers                          PRECINCT 102                                           01 
01380050003000001DEM       United States Senator                                   Kesha Rogers                          PRECINCT 103                                           01 
01380050004000004DEM       United States Senator                                   Kesha Rogers                          PRECINCT 201                                           01 
01380050005000001DEM       United States Senator                                   Kesha Rogers                          PRECINCT 202                                           01 
01380050006000002DEM       United States Senator                                   Kesha Rogers                          PRECINCT 301                                           01 
01380050007000001DEM       United States Senator                                   Kesha Rogers                          PRECINCT 302                                           01 
01380050008000001DEM       United States Senator                                   Kesha Rogers                          PRECINCT 303                                           01 
01380050009000001DEM       United States Senator                                   Kesha Rogers                          PRECINCT 304                                           01 
01380050010000010DEM       United States Senator                                   Kesha Rogers                          PRECINCT 305                                           01 
01380050011000001DEM       United States Senator                                   Kesha Rogers                          PRECINCT 401                                           01 
01380050012000011DEM       United States Senator                                   Kesha Rogers                          PRECINCT 402                                           01 
01380060001000000DEM       United States Senator                                   OVER VOTES                            PRECINCT 101                                           01 
01380060002000000DEM       United States Senator                                   OVER VOTES                            PRECINCT 102                                           01 
01380060003000000DEM       United States Senator                                   OVER VOTES                            PRECINCT 103                                           01 
01380060004000000DEM       United States Senator                                   OVER VOTES                            PRECINCT 201                                           01 
01380060005000000DEM       United States Senator                                   OVER VOTES                            PRECINCT 202                                           01 
01380060006000000DEM       United States Senator                                   OVER VOTES                            PRECINCT 301                                           01 
01380060007000000DEM       United States Senator                                   OVER VOTES                            PRECINCT 302                                           01 
01380060008000000DEM       United States Senator                                   OVER VOTES                            PRECINCT 303                                           01 
01380060009000000DEM       United States Senator                                   OVER VOTES                            PRECINCT 304                                           01 
01380060010000000DEM       United States Senator                                   OVER VOTES                            PRECINCT 305                                           01 
01380060011000000DEM       United States Senator                                   OVER VOTES                            PRECINCT 401                                           01 
01380060012000000DEM       United States Senator                                   OVER VOTES                            PRECINCT 402                                           01 
01380070001000009DEM       United States Senator                                   UNDER VOTES                           PRECINCT 101                                           01 
01380070002000001DEM       United States Senator                                   UNDER VOTES                           PRECINCT 102                                           01 
01380070003000001DEM       United States Senator                                   UNDER VOTES                           PRECINCT 103                                           01 
01380070004000005DEM       United States Senator                                   UNDER VOTES                           PRECINCT 201                                           01 
01380070005000000DEM       United States Senator                                   UNDER VOTES                           PRECINCT 202                                           01 
01380070006000003DEM       United States Senator                                   UNDER VOTES                           PRECINCT 301                                           01 
01380070007000000DEM       United States Senator                                   UNDER VOTES                           PRECINCT 302                                           01 
01380070008000002DEM       United States Senator                                   UNDER VOTES                           PRECINCT 303                                           01 
01380070009000004DEM       United States Senator                                   UNDER VOTES                           PRECINCT 304                                           01 
01380070010000003DEM       United States Senator                                   UNDER VOTES                           PRECINCT 305                                           01 
01380070011000004DEM       United States Senator                                   UNDER VOTES                           PRECINCT 401                                           01 
01380070012000005DEM       United States Senator                                   UNDER VOTES                           PRECINCT 402                                           01 
01390010001000042DEM       United States Representative, Dist 10                   Tawana Walter-Cadien                  PRECINCT 101                                           01 
01390010002000004DEM       United States Representative, Dist 10                   Tawana Walter-Cadien                  PRECINCT 102                                           01 
01390010003000008DEM       United States Representative, Dist 10                   Tawana Walter-Cadien                  PRECINCT 103                                           01 
01390010004000027DEM       United States Representative, Dist 10                   Tawana Walter-Cadien                  PRECINCT 201                                           01 
01390010005000002DEM       United States Representative, Dist 10                   Tawana Walter-Cadien                  PRECINCT 202                                           01 
01390010006000013DEM       United States Representative, Dist 10                   Tawana Walter-Cadien                  PRECINCT 301                                           01 
01390010007000006DEM       United States Representative, Dist 10                   Tawana Walter-Cadien                  PRECINCT 302                                           01 
01390010008000002DEM       United States Representative, Dist 10                   Tawana Walter-Cadien                  PRECINCT 303                                           01 
01390010009000004DEM       United States Representative, Dist 10                   Tawana Walter-Cadien                  PRECINCT 304                                           01 
01390010010000020DEM       United States Representative, Dist 10                   Tawana Walter-Cadien                  PRECINCT 305                                           01 
01390010011000011DEM       United States Representative, Dist 10                   Tawana Walter-Cadien                  PRECINCT 401                                           01 
01390010012000029DEM       United States Representative, Dist 10                   Tawana Walter-Cadien                  PRECINCT 402                                           01 
01390020001000000DEM       United States Representative, Dist 10                   OVER VOTES                            PRECINCT 101                                           01 
01390020002000000DEM       United States Representative, Dist 10                   OVER VOTES                            PRECINCT 102                                           01 
01390020003000000DEM       United States Representative, Dist 10                   OVER VOTES                            PRECINCT 103                                           01 
01390020004000000DEM       United States Representative, Dist 10                   OVER VOTES                            PRECINCT 201                                           01 
01390020005000000DEM       United States Representative, Dist 10                   OVER VOTES                            PRECINCT 202                                           01 
01390020006000000DEM       United States Representative, Dist 10                   OVER VOTES                            PRECINCT 301                                           01 
01390020007000000DEM       United States Representative, Dist 10                   OVER VOTES                            PRECINCT 302                                           01 
01390020008000000DEM       United States Representative, Dist 10                   OVER VOTES                            PRECINCT 303                                           01 
01390020009000000DEM       United States Representative, Dist 10                   OVER VOTES                            PRECINCT 304                                           01 
01390020010000000DEM       United States Representative, Dist 10                   OVER VOTES                            PRECINCT 305                                           01 
01390020011000000DEM       United States Representative, Dist 10                   OVER VOTES                            PRECINCT 401                                           01 
01390020012000000DEM       United States Representative, Dist 10                   OVER VOTES                            PRECINCT 402                                           01 
01390030001000018DEM       United States Representative, Dist 10                   UNDER VOTES                           PRECINCT 101                                           01 
01390030002000003DEM       United States Representative, Dist 10                   UNDER VOTES                           PRECINCT 102                                           01 
01390030003000003DEM       United States Representative, Dist 10                   UNDER VOTES                           PRECINCT 103                                           01 
01390030004000019DEM       United States Representative, Dist 10                   UNDER VOTES                           PRECINCT 201                                           01 
01390030005000003DEM       United States Representative, Dist 10                   UNDER VOTES                           PRECINCT 202                                           01 
01390030006000005DEM       United States Representative, Dist 10                   UNDER VOTES                           PRECINCT 301                                           01 
01390030007000002DEM       United States Representative, Dist 10                   UNDER VOTES                           PRECINCT 302                                           01 
01390030008000004DEM       United States Representative, Dist 10                   UNDER VOTES                           PRECINCT 303                                           01 
01390030009000004DEM       United States Representative, Dist 10                   UNDER VOTES                           PRECINCT 304                                           01 
01390030010000009DEM       United States Representative, Dist 10                   UNDER VOTES                           PRECINCT 305                                           01 
01390030011000006DEM       United States Representative, Dist 10                   UNDER VOTES                           PRECINCT 401                                           01 
01390030012000022DEM       United States Representative, Dist 10                   UNDER VOTES                           PRECINCT 402                                           01 
01400010001000048DEM       Governor                                                Wendy R. Davis                        PRECINCT 101                                           01 
01400010002000006DEM       Governor                                                Wendy R. Davis                        PRECINCT 102                                           01 
01400010003000007DEM       Governor                                                Wendy R. Davis                        PRECINCT 103                                           01 
01400010004000037DEM       Governor                                                Wendy R. Davis                        PRECINCT 201                                           01 
01400010005000005DEM       Governor                                                Wendy R. Davis                        PRECINCT 202                                           01 
01400010006000015DEM       Governor                                                Wendy R. Davis                        PRECINCT 301                                           01 
01400010007000008DEM       Governor                                                Wendy R. Davis                        PRECINCT 302                                           01 
01400010008000002DEM       Governor                                                Wendy R. Davis                        PRECINCT 303                                           01 
01400010009000006DEM       Governor                                                Wendy R. Davis                        PRECINCT 304                                           01 
01400010010000022DEM       Governor                                                Wendy R. Davis                        PRECINCT 305                                           01 
01400010011000011DEM       Governor                                                Wendy R. Davis                        PRECINCT 401                                           01 
01400010012000033DEM       Governor                                                Wendy R. Davis                        PRECINCT 402                                           01 
01400020001000005DEM       Governor                                                Reynaldo "Ray" Madrigal               PRECINCT 101                                           01 
01400020002000000DEM       Governor                                                Reynaldo "Ray" Madrigal               PRECINCT 102                                           01 
01400020003000002DEM       Governor                                                Reynaldo "Ray" Madrigal               PRECINCT 103                                           01 
01400020004000005DEM       Governor                                                Reynaldo "Ray" Madrigal               PRECINCT 201                                           01 
01400020005000000DEM       Governor                                                Reynaldo "Ray" Madrigal               PRECINCT 202                                           01 
01400020006000000DEM       Governor                                                Reynaldo "Ray" Madrigal               PRECINCT 301                                           01 
01400020007000000DEM       Governor                                                Reynaldo "Ray" Madrigal               PRECINCT 302                                           01 
01400020008000002DEM       Governor                                                Reynaldo "Ray" Madrigal               PRECINCT 303                                           01 
01400020009000002DEM       Governor                                                Reynaldo "Ray" Madrigal               PRECINCT 304                                           01 
01400020010000004DEM       Governor                                                Reynaldo "Ray" Madrigal               PRECINCT 305                                           01 
01400020011000003DEM       Governor                                                Reynaldo "Ray" Madrigal               PRECINCT 401                                           01 
01400020012000013DEM       Governor                                                Reynaldo "Ray" Madrigal               PRECINCT 402                                           01 
01400030001000000DEM       Governor                                                OVER VOTES                            PRECINCT 101                                           01 
01400030002000000DEM       Governor                                                OVER VOTES                            PRECINCT 102                                           01 
01400030003000000DEM       Governor                                                OVER VOTES                            PRECINCT 103                                           01 
01400030004000000DEM       Governor                                                OVER VOTES                            PRECINCT 201                                           01 
01400030005000000DEM       Governor                                                OVER VOTES                            PRECINCT 202                                           01 
01400030006000000DEM       Governor                                                OVER VOTES                            PRECINCT 301                                           01 
01400030007000000DEM       Governor                                                OVER VOTES                            PRECINCT 302                                           01 
01400030008000000DEM       Governor                                                OVER VOTES                            PRECINCT 303                                           01 
01400030009000000DEM       Governor                                                OVER VOTES                            PRECINCT 304                                           01 
01400030010000000DEM       Governor                                                OVER VOTES                            PRECINCT 305                                           01 
01400030011000000DEM       Governor                                                OVER VOTES                            PRECINCT 401                                           01 
01400030012000000DEM       Governor                                                OVER VOTES                            PRECINCT 402                                           01 
01400040001000007DEM       Governor                                                UNDER VOTES                           PRECINCT 101                                           01 
01400040002000001DEM       Governor                                                UNDER VOTES                           PRECINCT 102                                           01 
01400040003000002DEM       Governor                                                UNDER VOTES                           PRECINCT 103                                           01 
01400040004000004DEM       Governor                                                UNDER VOTES                           PRECINCT 201                                           01 
01400040005000000DEM       Governor                                                UNDER VOTES                           PRECINCT 202                                           01 
01400040006000003DEM       Governor                                                UNDER VOTES                           PRECINCT 301                                           01 
01400040007000000DEM       Governor                                                UNDER VOTES                           PRECINCT 302                                           01 
01400040008000002DEM       Governor                                                UNDER VOTES                           PRECINCT 303                                           01 
01400040009000000DEM       Governor                                                UNDER VOTES                           PRECINCT 304                                           01 
01400040010000003DEM       Governor                                                UNDER VOTES                           PRECINCT 305                                           01 
01400040011000003DEM       Governor                                                UNDER VOTES                           PRECINCT 401                                           01 
01400040012000005DEM       Governor                                                UNDER VOTES                           PRECINCT 402                                           01 
01410010001000046DEM       Lieutenant Governor                                     Leticia Van de Putte                  PRECINCT 101                                           01 
01410010002000005DEM       Lieutenant Governor                                     Leticia Van de Putte                  PRECINCT 102                                           01 
01410010003000008DEM       Lieutenant Governor                                     Leticia Van de Putte                  PRECINCT 103                                           01 
01410010004000031DEM       Lieutenant Governor                                     Leticia Van de Putte                  PRECINCT 201                                           01 
01410010005000005DEM       Lieutenant Governor                                     Leticia Van de Putte                  PRECINCT 202                                           01 
01410010006000014DEM       Lieutenant Governor                                     Leticia Van de Putte                  PRECINCT 301                                           01 
01410010007000007DEM       Lieutenant Governor                                     Leticia Van de Putte                  PRECINCT 302                                           01 
01410010008000003DEM       Lieutenant Governor                                     Leticia Van de Putte                  PRECINCT 303                                           01 
01410010009000005DEM       Lieutenant Governor                                     Leticia Van de Putte                  PRECINCT 304                                           01 
01410010010000022DEM       Lieutenant Governor                                     Leticia Van de Putte                  PRECINCT 305                                           01 
01410010011000011DEM       Lieutenant Governor                                     Leticia Van de Putte                  PRECINCT 401                                           01 
01410010012000041DEM       Lieutenant Governor                                     Leticia Van de Putte                  PRECINCT 402                                           01 
01410020001000000DEM       Lieutenant Governor                                     OVER VOTES                            PRECINCT 101                                           01 
01410020002000000DEM       Lieutenant Governor                                     OVER VOTES                            PRECINCT 102                                           01 
01410020003000000DEM       Lieutenant Governor                                     OVER VOTES                            PRECINCT 103                                           01 
01410020004000000DEM       Lieutenant Governor                                     OVER VOTES                            PRECINCT 201                                           01 
01410020005000000DEM       Lieutenant Governor                                     OVER VOTES                            PRECINCT 202                                           01 
01410020006000000DEM       Lieutenant Governor                                     OVER VOTES                            PRECINCT 301                                           01 
01410020007000000DEM       Lieutenant Governor                                     OVER VOTES                            PRECINCT 302                                           01 
01410020008000000DEM       Lieutenant Governor                                     OVER VOTES                            PRECINCT 303                                           01 
01410020009000000DEM       Lieutenant Governor                                     OVER VOTES                            PRECINCT 304                                           01 
01410020010000000DEM       Lieutenant Governor                                     OVER VOTES                            PRECINCT 305                                           01 
01410020011000000DEM       Lieutenant Governor                                     OVER VOTES                            PRECINCT 401                                           01 
01410020012000000DEM       Lieutenant Governor                                     OVER VOTES                            PRECINCT 402                                           01 
01410030001000014DEM       Lieutenant Governor                                     UNDER VOTES                           PRECINCT 101                                           01 
01410030002000002DEM       Lieutenant Governor                                     UNDER VOTES                           PRECINCT 102                                           01 
01410030003000003DEM       Lieutenant Governor                                     UNDER VOTES                           PRECINCT 103                                           01 
01410030004000015DEM       Lieutenant Governor                                     UNDER VOTES                           PRECINCT 201                                           01 
01410030005000000DEM       Lieutenant Governor                                     UNDER VOTES                           PRECINCT 202                                           01 
01410030006000004DEM       Lieutenant Governor                                     UNDER VOTES                           PRECINCT 301                                           01 
01410030007000001DEM       Lieutenant Governor                                     UNDER VOTES                           PRECINCT 302                                           01 
01410030008000003DEM       Lieutenant Governor                                     UNDER VOTES                           PRECINCT 303                                           01 
01410030009000003DEM       Lieutenant Governor                                     UNDER VOTES                           PRECINCT 304                                           01 
01410030010000007DEM       Lieutenant Governor                                     UNDER VOTES                           PRECINCT 305                                           01 
01410030011000006DEM       Lieutenant Governor                                     UNDER VOTES                           PRECINCT 401                                           01 
01410030012000010DEM       Lieutenant Governor                                     UNDER VOTES                           PRECINCT 402                                           01 
01420010001000048DEM       Attorney General                                        Sam Houston                           PRECINCT 101                                           01 
01420010002000006DEM       Attorney General                                        Sam Houston                           PRECINCT 102                                           01 
01420010003000008DEM       Attorney General                                        Sam Houston                           PRECINCT 103                                           01 
01420010004000035DEM       Attorney General                                        Sam Houston                           PRECINCT 201                                           01 
01420010005000004DEM       Attorney General                                        Sam Houston                           PRECINCT 202                                           01 
01420010006000014DEM       Attorney General                                        Sam Houston                           PRECINCT 301                                           01 
01420010007000006DEM       Attorney General                                        Sam Houston                           PRECINCT 302                                           01 
01420010008000004DEM       Attorney General                                        Sam Houston                           PRECINCT 303                                           01 
01420010009000005DEM       Attorney General                                        Sam Houston                           PRECINCT 304                                           01 
01420010010000022DEM       Attorney General                                        Sam Houston                           PRECINCT 305                                           01 
01420010011000011DEM       Attorney General                                        Sam Houston                           PRECINCT 401                                           01 
01420010012000042DEM       Attorney General                                        Sam Houston                           PRECINCT 402                                           01 
01420020001000000DEM       Attorney General                                        OVER VOTES                            PRECINCT 101                                           01 
01420020002000000DEM       Attorney General                                        OVER VOTES                            PRECINCT 102                                           01 
01420020003000000DEM       Attorney General                                        OVER VOTES                            PRECINCT 103                                           01 
01420020004000000DEM       Attorney General                                        OVER VOTES                            PRECINCT 201                                           01 
01420020005000000DEM       Attorney General                                        OVER VOTES                            PRECINCT 202                                           01 
01420020006000000DEM       Attorney General                                        OVER VOTES                            PRECINCT 301                                           01 
01420020007000000DEM       Attorney General                                        OVER VOTES                            PRECINCT 302                                           01 
01420020008000000DEM       Attorney General                                        OVER VOTES                            PRECINCT 303                                           01 
01420020009000000DEM       Attorney General                                        OVER VOTES                            PRECINCT 304                                           01 
01420020010000000DEM       Attorney General                                        OVER VOTES                            PRECINCT 305                                           01 
01420020011000000DEM       Attorney General                                        OVER VOTES                            PRECINCT 401                                           01 
01420020012000000DEM       Attorney General                                        OVER VOTES                            PRECINCT 402                                           01 
01420030001000012DEM       Attorney General                                        UNDER VOTES                           PRECINCT 101                                           01 
01420030002000001DEM       Attorney General                                        UNDER VOTES                           PRECINCT 102                                           01 
01420030003000003DEM       Attorney General                                        UNDER VOTES                           PRECINCT 103                                           01 
01420030004000011DEM       Attorney General                                        UNDER VOTES                           PRECINCT 201                                           01 
01420030005000001DEM       Attorney General                                        UNDER VOTES                           PRECINCT 202                                           01 
01420030006000004DEM       Attorney General                                        UNDER VOTES                           PRECINCT 301                                           01 
01420030007000002DEM       Attorney General                                        UNDER VOTES                           PRECINCT 302                                           01 
01420030008000002DEM       Attorney General                                        UNDER VOTES                           PRECINCT 303                                           01 
01420030009000003DEM       Attorney General                                        UNDER VOTES                           PRECINCT 304                                           01 
01420030010000007DEM       Attorney General                                        UNDER VOTES                           PRECINCT 305                                           01 
01420030011000006DEM       Attorney General                                        UNDER VOTES                           PRECINCT 401                                           01 
01420030012000009DEM       Attorney General                                        UNDER VOTES                           PRECINCT 402                                           01 
01430010001000046DEM       Comptroller of Public Accounts                          Mike Collier                          PRECINCT 101                                           01 
01430010002000006DEM       Comptroller of Public Accounts                          Mike Collier                          PRECINCT 102                                           01 
01430010003000008DEM       Comptroller of Public Accounts                          Mike Collier                          PRECINCT 103                                           01 
01430010004000034DEM       Comptroller of Public Accounts                          Mike Collier                          PRECINCT 201                                           01 
01430010005000004DEM       Comptroller of Public Accounts                          Mike Collier                          PRECINCT 202                                           01 
01430010006000014DEM       Comptroller of Public Accounts                          Mike Collier                          PRECINCT 301                                           01 
01430010007000008DEM       Comptroller of Public Accounts                          Mike Collier                          PRECINCT 302                                           01 
01430010008000003DEM       Comptroller of Public Accounts                          Mike Collier                          PRECINCT 303                                           01 
01430010009000005DEM       Comptroller of Public Accounts                          Mike Collier                          PRECINCT 304                                           01 
01430010010000022DEM       Comptroller of Public Accounts                          Mike Collier                          PRECINCT 305                                           01 
01430010011000011DEM       Comptroller of Public Accounts                          Mike Collier                          PRECINCT 401                                           01 
01430010012000041DEM       Comptroller of Public Accounts                          Mike Collier                          PRECINCT 402                                           01 
01430020001000000DEM       Comptroller of Public Accounts                          OVER VOTES                            PRECINCT 101                                           01 
01430020002000000DEM       Comptroller of Public Accounts                          OVER VOTES                            PRECINCT 102                                           01 
01430020003000000DEM       Comptroller of Public Accounts                          OVER VOTES                            PRECINCT 103                                           01 
01430020004000000DEM       Comptroller of Public Accounts                          OVER VOTES                            PRECINCT 201                                           01 
01430020005000000DEM       Comptroller of Public Accounts                          OVER VOTES                            PRECINCT 202                                           01 
01430020006000000DEM       Comptroller of Public Accounts                          OVER VOTES                            PRECINCT 301                                           01 
01430020007000000DEM       Comptroller of Public Accounts                          OVER VOTES                            PRECINCT 302                                           01 
01430020008000000DEM       Comptroller of Public Accounts                          OVER VOTES                            PRECINCT 303                                           01 
01430020009000000DEM       Comptroller of Public Accounts                          OVER VOTES                            PRECINCT 304                                           01 
01430020010000000DEM       Comptroller of Public Accounts                          OVER VOTES                            PRECINCT 305                                           01 
01430020011000000DEM       Comptroller of Public Accounts                          OVER VOTES                            PRECINCT 401                                           01 
01430020012000000DEM       Comptroller of Public Accounts                          OVER VOTES                            PRECINCT 402                                           01 
01430030001000014DEM       Comptroller of Public Accounts                          UNDER VOTES                           PRECINCT 101                                           01 
01430030002000001DEM       Comptroller of Public Accounts                          UNDER VOTES                           PRECINCT 102                                           01 
01430030003000003DEM       Comptroller of Public Accounts                          UNDER VOTES                           PRECINCT 103                                           01 
01430030004000012DEM       Comptroller of Public Accounts                          UNDER VOTES                           PRECINCT 201                                           01 
01430030005000001DEM       Comptroller of Public Accounts                          UNDER VOTES                           PRECINCT 202                                           01 
01430030006000004DEM       Comptroller of Public Accounts                          UNDER VOTES                           PRECINCT 301                                           01 
01430030007000000DEM       Comptroller of Public Accounts                          UNDER VOTES                           PRECINCT 302                                           01 
01430030008000003DEM       Comptroller of Public Accounts                          UNDER VOTES                           PRECINCT 303                                           01 
01430030009000003DEM       Comptroller of Public Accounts                          UNDER VOTES                           PRECINCT 304                                           01 
01430030010000007DEM       Comptroller of Public Accounts                          UNDER VOTES                           PRECINCT 305                                           01 
01430030011000006DEM       Comptroller of Public Accounts                          UNDER VOTES                           PRECINCT 401                                           01 
01430030012000010DEM       Comptroller of Public Accounts                          UNDER VOTES                           PRECINCT 402                                           01 
01440010001000044DEM       Commissioner of the General Land Office                 John Cook                             PRECINCT 101                                           01 
01440010002000006DEM       Commissioner of the General Land Office                 John Cook                             PRECINCT 102                                           01 
01440010003000008DEM       Commissioner of the General Land Office                 John Cook                             PRECINCT 103                                           01 
01440010004000032DEM       Commissioner of the General Land Office                 John Cook                             PRECINCT 201                                           01 
01440010005000004DEM       Commissioner of the General Land Office                 John Cook                             PRECINCT 202                                           01 
01440010006000014DEM       Commissioner of the General Land Office                 John Cook                             PRECINCT 301                                           01 
01440010007000008DEM       Commissioner of the General Land Office                 John Cook                             PRECINCT 302                                           01 
01440010008000004DEM       Commissioner of the General Land Office                 John Cook                             PRECINCT 303                                           01 
01440010009000005DEM       Commissioner of the General Land Office                 John Cook                             PRECINCT 304                                           01 
01440010010000023DEM       Commissioner of the General Land Office                 John Cook                             PRECINCT 305                                           01 
01440010011000012DEM       Commissioner of the General Land Office                 John Cook                             PRECINCT 401                                           01 
01440010012000045DEM       Commissioner of the General Land Office                 John Cook                             PRECINCT 402                                           01 
01440020001000000DEM       Commissioner of the General Land Office                 OVER VOTES                            PRECINCT 101                                           01 
01440020002000000DEM       Commissioner of the General Land Office                 OVER VOTES                            PRECINCT 102                                           01 
01440020003000000DEM       Commissioner of the General Land Office                 OVER VOTES                            PRECINCT 103                                           01 
01440020004000000DEM       Commissioner of the General Land Office                 OVER VOTES                            PRECINCT 201                                           01 
01440020005000000DEM       Commissioner of the General Land Office                 OVER VOTES                            PRECINCT 202                                           01 
01440020006000000DEM       Commissioner of the General Land Office                 OVER VOTES                            PRECINCT 301                                           01 
01440020007000000DEM       Commissioner of the General Land Office                 OVER VOTES                            PRECINCT 302                                           01 
01440020008000000DEM       Commissioner of the General Land Office                 OVER VOTES                            PRECINCT 303                                           01 
01440020009000000DEM       Commissioner of the General Land Office                 OVER VOTES                            PRECINCT 304                                           01 
01440020010000000DEM       Commissioner of the General Land Office                 OVER VOTES                            PRECINCT 305                                           01 
01440020011000000DEM       Commissioner of the General Land Office                 OVER VOTES                            PRECINCT 401                                           01 
01440020012000000DEM       Commissioner of the General Land Office                 OVER VOTES                            PRECINCT 402                                           01 
01440030001000016DEM       Commissioner of the General Land Office                 UNDER VOTES                           PRECINCT 101                                           01 
01440030002000001DEM       Commissioner of the General Land Office                 UNDER VOTES                           PRECINCT 102                                           01 
01440030003000003DEM       Commissioner of the General Land Office                 UNDER VOTES                           PRECINCT 103                                           01 
01440030004000014DEM       Commissioner of the General Land Office                 UNDER VOTES                           PRECINCT 201                                           01 
01440030005000001DEM       Commissioner of the General Land Office                 UNDER VOTES                           PRECINCT 202                                           01 
01440030006000004DEM       Commissioner of the General Land Office                 UNDER VOTES                           PRECINCT 301                                           01 
01440030007000000DEM       Commissioner of the General Land Office                 UNDER VOTES                           PRECINCT 302                                           01 
01440030008000002DEM       Commissioner of the General Land Office                 UNDER VOTES                           PRECINCT 303                                           01 
01440030009000003DEM       Commissioner of the General Land Office                 UNDER VOTES                           PRECINCT 304                                           01 
01440030010000006DEM       Commissioner of the General Land Office                 UNDER VOTES                           PRECINCT 305                                           01 
01440030011000005DEM       Commissioner of the General Land Office                 UNDER VOTES                           PRECINCT 401                                           01 
01440030012000006DEM       Commissioner of the General Land Office                 UNDER VOTES                           PRECINCT 402                                           01 
01450010001000021DEM       Commissioner of Agriculture                             Richard "Kinky" Friedman              PRECINCT 101                                           01 
01450010002000004DEM       Commissioner of Agriculture                             Richard "Kinky" Friedman              PRECINCT 102                                           01 
01450010003000004DEM       Commissioner of Agriculture                             Richard "Kinky" Friedman              PRECINCT 103                                           01 
01450010004000012DEM       Commissioner of Agriculture                             Richard "Kinky" Friedman              PRECINCT 201                                           01 
01450010005000001DEM       Commissioner of Agriculture                             Richard "Kinky" Friedman              PRECINCT 202                                           01 
01450010006000006DEM       Commissioner of Agriculture                             Richard "Kinky" Friedman              PRECINCT 301                                           01 
01450010007000004DEM       Commissioner of Agriculture                             Richard "Kinky" Friedman              PRECINCT 302                                           01 
01450010008000001DEM       Commissioner of Agriculture                             Richard "Kinky" Friedman              PRECINCT 303                                           01 
01450010009000002DEM       Commissioner of Agriculture                             Richard "Kinky" Friedman              PRECINCT 304                                           01 
01450010010000012DEM       Commissioner of Agriculture                             Richard "Kinky" Friedman              PRECINCT 305                                           01 
01450010011000007DEM       Commissioner of Agriculture                             Richard "Kinky" Friedman              PRECINCT 401                                           01 
01450010012000014DEM       Commissioner of Agriculture                             Richard "Kinky" Friedman              PRECINCT 402                                           01 
01450020001000013DEM       Commissioner of Agriculture                             Hugh Asa Fitzsimons III               PRECINCT 101                                           01 
01450020002000000DEM       Commissioner of Agriculture                             Hugh Asa Fitzsimons III               PRECINCT 102                                           01 
01450020003000004DEM       Commissioner of Agriculture                             Hugh Asa Fitzsimons III               PRECINCT 103                                           01 
01450020004000011DEM       Commissioner of Agriculture                             Hugh Asa Fitzsimons III               PRECINCT 201                                           01 
01450020005000002DEM       Commissioner of Agriculture                             Hugh Asa Fitzsimons III               PRECINCT 202                                           01 
01450020006000000DEM       Commissioner of Agriculture                             Hugh Asa Fitzsimons III               PRECINCT 301                                           01 
01450020007000001DEM       Commissioner of Agriculture                             Hugh Asa Fitzsimons III               PRECINCT 302                                           01 
01450020008000002DEM       Commissioner of Agriculture                             Hugh Asa Fitzsimons III               PRECINCT 303                                           01 
01450020009000001DEM       Commissioner of Agriculture                             Hugh Asa Fitzsimons III               PRECINCT 304                                           01 
01450020010000005DEM       Commissioner of Agriculture                             Hugh Asa Fitzsimons III               PRECINCT 305                                           01 
01450020011000004DEM       Commissioner of Agriculture                             Hugh Asa Fitzsimons III               PRECINCT 401                                           01 
01450020012000009DEM       Commissioner of Agriculture                             Hugh Asa Fitzsimons III               PRECINCT 402                                           01 
01450030001000016DEM       Commissioner of Agriculture                             Jim Hogan                             PRECINCT 101                                           01 
01450030002000002DEM       Commissioner of Agriculture                             Jim Hogan                             PRECINCT 102                                           01 
01450030003000002DEM       Commissioner of Agriculture                             Jim Hogan                             PRECINCT 103                                           01 
01450030004000014DEM       Commissioner of Agriculture                             Jim Hogan                             PRECINCT 201                                           01 
01450030005000002DEM       Commissioner of Agriculture                             Jim Hogan                             PRECINCT 202                                           01 
01450030006000010DEM       Commissioner of Agriculture                             Jim Hogan                             PRECINCT 301                                           01 
01450030007000003DEM       Commissioner of Agriculture                             Jim Hogan                             PRECINCT 302                                           01 
01450030008000002DEM       Commissioner of Agriculture                             Jim Hogan                             PRECINCT 303                                           01 
01450030009000003DEM       Commissioner of Agriculture                             Jim Hogan                             PRECINCT 304                                           01 
01450030010000006DEM       Commissioner of Agriculture                             Jim Hogan                             PRECINCT 305                                           01 
01450030011000003DEM       Commissioner of Agriculture                             Jim Hogan                             PRECINCT 401                                           01 
01450030012000019DEM       Commissioner of Agriculture                             Jim Hogan                             PRECINCT 402                                           01 
01450040001000000DEM       Commissioner of Agriculture                             OVER VOTES                            PRECINCT 101                                           01 
01450040002000000DEM       Commissioner of Agriculture                             OVER VOTES                            PRECINCT 102                                           01 
01450040003000000DEM       Commissioner of Agriculture                             OVER VOTES                            PRECINCT 103                                           01 
01450040004000000DEM       Commissioner of Agriculture                             OVER VOTES                            PRECINCT 201                                           01 
01450040005000000DEM       Commissioner of Agriculture                             OVER VOTES                            PRECINCT 202                                           01 
01450040006000000DEM       Commissioner of Agriculture                             OVER VOTES                            PRECINCT 301                                           01 
01450040007000000DEM       Commissioner of Agriculture                             OVER VOTES                            PRECINCT 302                                           01 
01450040008000000DEM       Commissioner of Agriculture                             OVER VOTES                            PRECINCT 303                                           01 
01450040009000000DEM       Commissioner of Agriculture                             OVER VOTES                            PRECINCT 304                                           01 
01450040010000000DEM       Commissioner of Agriculture                             OVER VOTES                            PRECINCT 305                                           01 
01450040011000000DEM       Commissioner of Agriculture                             OVER VOTES                            PRECINCT 401                                           01 
01450040012000000DEM       Commissioner of Agriculture                             OVER VOTES                            PRECINCT 402                                           01 
01450050001000010DEM       Commissioner of Agriculture                             UNDER VOTES                           PRECINCT 101                                           01 
01450050002000001DEM       Commissioner of Agriculture                             UNDER VOTES                           PRECINCT 102                                           01 
01450050003000001DEM       Commissioner of Agriculture                             UNDER VOTES                           PRECINCT 103                                           01 
01450050004000009DEM       Commissioner of Agriculture                             UNDER VOTES                           PRECINCT 201                                           01 
01450050005000000DEM       Commissioner of Agriculture                             UNDER VOTES                           PRECINCT 202                                           01 
01450050006000002DEM       Commissioner of Agriculture                             UNDER VOTES                           PRECINCT 301                                           01 
01450050007000000DEM       Commissioner of Agriculture                             UNDER VOTES                           PRECINCT 302                                           01 
01450050008000001DEM       Commissioner of Agriculture                             UNDER VOTES                           PRECINCT 303                                           01 
01450050009000002DEM       Commissioner of Agriculture                             UNDER VOTES                           PRECINCT 304                                           01 
01450050010000006DEM       Commissioner of Agriculture                             UNDER VOTES                           PRECINCT 305                                           01 
01450050011000003DEM       Commissioner of Agriculture                             UNDER VOTES                           PRECINCT 401                                           01 
01450050012000009DEM       Commissioner of Agriculture                             UNDER VOTES                           PRECINCT 402                                           01 
01460010001000019DEM       Railroad Commissioner                                   Dale Henry                            PRECINCT 101                                           01 
01460010002000005DEM       Railroad Commissioner                                   Dale Henry                            PRECINCT 102                                           01 
01460010003000002DEM       Railroad Commissioner                                   Dale Henry                            PRECINCT 103                                           01 
01460010004000011DEM       Railroad Commissioner                                   Dale Henry                            PRECINCT 201                                           01 
01460010005000002DEM       Railroad Commissioner                                   Dale Henry                            PRECINCT 202                                           01 
01460010006000008DEM       Railroad Commissioner                                   Dale Henry                            PRECINCT 301                                           01 
01460010007000004DEM       Railroad Commissioner                                   Dale Henry                            PRECINCT 302                                           01 
01460010008000004DEM       Railroad Commissioner                                   Dale Henry                            PRECINCT 303                                           01 
01460010009000002DEM       Railroad Commissioner                                   Dale Henry                            PRECINCT 304                                           01 
01460010010000010DEM       Railroad Commissioner                                   Dale Henry                            PRECINCT 305                                           01 
01460010011000005DEM       Railroad Commissioner                                   Dale Henry                            PRECINCT 401                                           01 
01460010012000017DEM       Railroad Commissioner                                   Dale Henry                            PRECINCT 402                                           01 
01460020001000028DEM       Railroad Commissioner                                   Steve Brown                           PRECINCT 101                                           01 
01460020002000001DEM       Railroad Commissioner                                   Steve Brown                           PRECINCT 102                                           01 
01460020003000007DEM       Railroad Commissioner                                   Steve Brown                           PRECINCT 103                                           01 
01460020004000024DEM       Railroad Commissioner                                   Steve Brown                           PRECINCT 201                                           01 
01460020005000002DEM       Railroad Commissioner                                   Steve Brown                           PRECINCT 202                                           01 
01460020006000007DEM       Railroad Commissioner                                   Steve Brown                           PRECINCT 301                                           01 
01460020007000002DEM       Railroad Commissioner                                   Steve Brown                           PRECINCT 302                                           01 
01460020008000001DEM       Railroad Commissioner                                   Steve Brown                           PRECINCT 303                                           01 
01460020009000002DEM       Railroad Commissioner                                   Steve Brown                           PRECINCT 304                                           01 
01460020010000015DEM       Railroad Commissioner                                   Steve Brown                           PRECINCT 305                                           01 
01460020011000007DEM       Railroad Commissioner                                   Steve Brown                           PRECINCT 401                                           01 
01460020012000023DEM       Railroad Commissioner                                   Steve Brown                           PRECINCT 402                                           01 
01460030001000000DEM       Railroad Commissioner                                   OVER VOTES                            PRECINCT 101                                           01 
01460030002000000DEM       Railroad Commissioner                                   OVER VOTES                            PRECINCT 102                                           01 
01460030003000000DEM       Railroad Commissioner                                   OVER VOTES                            PRECINCT 103                                           01 
01460030004000000DEM       Railroad Commissioner                                   OVER VOTES                            PRECINCT 201                                           01 
01460030005000000DEM       Railroad Commissioner                                   OVER VOTES                            PRECINCT 202                                           01 
01460030006000000DEM       Railroad Commissioner                                   OVER VOTES                            PRECINCT 301                                           01 
01460030007000000DEM       Railroad Commissioner                                   OVER VOTES                            PRECINCT 302                                           01 
01460030008000000DEM       Railroad Commissioner                                   OVER VOTES                            PRECINCT 303                                           01 
01460030009000000DEM       Railroad Commissioner                                   OVER VOTES                            PRECINCT 304                                           01 
01460030010000000DEM       Railroad Commissioner                                   OVER VOTES                            PRECINCT 305                                           01 
01460030011000000DEM       Railroad Commissioner                                   OVER VOTES                            PRECINCT 401                                           01 
01460030012000000DEM       Railroad Commissioner                                   OVER VOTES                            PRECINCT 402                                           01 
01460040001000013DEM       Railroad Commissioner                                   UNDER VOTES                           PRECINCT 101                                           01 
01460040002000001DEM       Railroad Commissioner                                   UNDER VOTES                           PRECINCT 102                                           01 
01460040003000002DEM       Railroad Commissioner                                   UNDER VOTES                           PRECINCT 103                                           01 
01460040004000011DEM       Railroad Commissioner                                   UNDER VOTES                           PRECINCT 201                                           01 
01460040005000001DEM       Railroad Commissioner                                   UNDER VOTES                           PRECINCT 202                                           01 
01460040006000003DEM       Railroad Commissioner                                   UNDER VOTES                           PRECINCT 301                                           01 
01460040007000002DEM       Railroad Commissioner                                   UNDER VOTES                           PRECINCT 302                                           01 
01460040008000001DEM       Railroad Commissioner                                   UNDER VOTES                           PRECINCT 303                                           01 
01460040009000004DEM       Railroad Commissioner                                   UNDER VOTES                           PRECINCT 304                                           01 
01460040010000004DEM       Railroad Commissioner                                   UNDER VOTES                           PRECINCT 305                                           01 
01460040011000005DEM       Railroad Commissioner                                   UNDER VOTES                           PRECINCT 401                                           01 
01460040012000011DEM       Railroad Commissioner                                   UNDER VOTES                           PRECINCT 402                                           01 
01470010001000043DEM       Chief Justice, Supreme Court                            William Moody                         PRECINCT 101                                           01 
01470010002000006DEM       Chief Justice, Supreme Court                            William Moody                         PRECINCT 102                                           01 
01470010003000007DEM       Chief Justice, Supreme Court                            William Moody                         PRECINCT 103                                           01 
01470010004000032DEM       Chief Justice, Supreme Court                            William Moody                         PRECINCT 201                                           01 
01470010005000004DEM       Chief Justice, Supreme Court                            William Moody                         PRECINCT 202                                           01 
01470010006000013DEM       Chief Justice, Supreme Court                            William Moody                         PRECINCT 301                                           01 
01470010007000008DEM       Chief Justice, Supreme Court                            William Moody                         PRECINCT 302                                           01 
01470010008000004DEM       Chief Justice, Supreme Court                            William Moody                         PRECINCT 303                                           01 
01470010009000005DEM       Chief Justice, Supreme Court                            William Moody                         PRECINCT 304                                           01 
01470010010000021DEM       Chief Justice, Supreme Court                            William Moody                         PRECINCT 305                                           01 
01470010011000010DEM       Chief Justice, Supreme Court                            William Moody                         PRECINCT 401                                           01 
01470010012000037DEM       Chief Justice, Supreme Court                            William Moody                         PRECINCT 402                                           01 
01470020001000000DEM       Chief Justice, Supreme Court                            OVER VOTES                            PRECINCT 101                                           01 
01470020002000000DEM       Chief Justice, Supreme Court                            OVER VOTES                            PRECINCT 102                                           01 
01470020003000000DEM       Chief Justice, Supreme Court                            OVER VOTES                            PRECINCT 103                                           01 
01470020004000000DEM       Chief Justice, Supreme Court                            OVER VOTES                            PRECINCT 201                                           01 
01470020005000000DEM       Chief Justice, Supreme Court                            OVER VOTES                            PRECINCT 202                                           01 
01470020006000000DEM       Chief Justice, Supreme Court                            OVER VOTES                            PRECINCT 301                                           01 
01470020007000000DEM       Chief Justice, Supreme Court                            OVER VOTES                            PRECINCT 302                                           01 
01470020008000000DEM       Chief Justice, Supreme Court                            OVER VOTES                            PRECINCT 303                                           01 
01470020009000000DEM       Chief Justice, Supreme Court                            OVER VOTES                            PRECINCT 304                                           01 
01470020010000000DEM       Chief Justice, Supreme Court                            OVER VOTES                            PRECINCT 305                                           01 
01470020011000000DEM       Chief Justice, Supreme Court                            OVER VOTES                            PRECINCT 401                                           01 
01470020012000000DEM       Chief Justice, Supreme Court                            OVER VOTES                            PRECINCT 402                                           01 
01470030001000017DEM       Chief Justice, Supreme Court                            UNDER VOTES                           PRECINCT 101                                           01 
01470030002000001DEM       Chief Justice, Supreme Court                            UNDER VOTES                           PRECINCT 102                                           01 
01470030003000004DEM       Chief Justice, Supreme Court                            UNDER VOTES                           PRECINCT 103                                           01 
01470030004000014DEM       Chief Justice, Supreme Court                            UNDER VOTES                           PRECINCT 201                                           01 
01470030005000001DEM       Chief Justice, Supreme Court                            UNDER VOTES                           PRECINCT 202                                           01 
01470030006000005DEM       Chief Justice, Supreme Court                            UNDER VOTES                           PRECINCT 301                                           01 
01470030007000000DEM       Chief Justice, Supreme Court                            UNDER VOTES                           PRECINCT 302                                           01 
01470030008000002DEM       Chief Justice, Supreme Court                            UNDER VOTES                           PRECINCT 303                                           01 
01470030009000003DEM       Chief Justice, Supreme Court                            UNDER VOTES                           PRECINCT 304                                           01 
01470030010000008DEM       Chief Justice, Supreme Court                            UNDER VOTES                           PRECINCT 305                                           01 
01470030011000007DEM       Chief Justice, Supreme Court                            UNDER VOTES                           PRECINCT 401                                           01 
01470030012000014DEM       Chief Justice, Supreme Court                            UNDER VOTES                           PRECINCT 402                                           01 
01480010001000045DEM       Supreme Court, Place 6, Unexpired Term                  Lawrence Edward Meyers                PRECINCT 101                                           01 
01480010002000006DEM       Supreme Court, Place 6, Unexpired Term                  Lawrence Edward Meyers                PRECINCT 102                                           01 
01480010003000007DEM       Supreme Court, Place 6, Unexpired Term                  Lawrence Edward Meyers                PRECINCT 103                                           01 
01480010004000029DEM       Supreme Court, Place 6, Unexpired Term                  Lawrence Edward Meyers                PRECINCT 201                                           01 
01480010005000004DEM       Supreme Court, Place 6, Unexpired Term                  Lawrence Edward Meyers                PRECINCT 202                                           01 
01480010006000013DEM       Supreme Court, Place 6, Unexpired Term                  Lawrence Edward Meyers                PRECINCT 301                                           01 
01480010007000008DEM       Supreme Court, Place 6, Unexpired Term                  Lawrence Edward Meyers                PRECINCT 302                                           01 
01480010008000004DEM       Supreme Court, Place 6, Unexpired Term                  Lawrence Edward Meyers                PRECINCT 303                                           01 
01480010009000005DEM       Supreme Court, Place 6, Unexpired Term                  Lawrence Edward Meyers                PRECINCT 304                                           01 
01480010010000021DEM       Supreme Court, Place 6, Unexpired Term                  Lawrence Edward Meyers                PRECINCT 305                                           01 
01480010011000010DEM       Supreme Court, Place 6, Unexpired Term                  Lawrence Edward Meyers                PRECINCT 401                                           01 
01480010012000037DEM       Supreme Court, Place 6, Unexpired Term                  Lawrence Edward Meyers                PRECINCT 402                                           01 
01480020001000000DEM       Supreme Court, Place 6, Unexpired Term                  OVER VOTES                            PRECINCT 101                                           01 
01480020002000000DEM       Supreme Court, Place 6, Unexpired Term                  OVER VOTES                            PRECINCT 102                                           01 
01480020003000000DEM       Supreme Court, Place 6, Unexpired Term                  OVER VOTES                            PRECINCT 103                                           01 
01480020004000000DEM       Supreme Court, Place 6, Unexpired Term                  OVER VOTES                            PRECINCT 201                                           01 
01480020005000000DEM       Supreme Court, Place 6, Unexpired Term                  OVER VOTES                            PRECINCT 202                                           01 
01480020006000000DEM       Supreme Court, Place 6, Unexpired Term                  OVER VOTES                            PRECINCT 301                                           01 
01480020007000000DEM       Supreme Court, Place 6, Unexpired Term                  OVER VOTES                            PRECINCT 302                                           01 
01480020008000000DEM       Supreme Court, Place 6, Unexpired Term                  OVER VOTES                            PRECINCT 303                                           01 
01480020009000000DEM       Supreme Court, Place 6, Unexpired Term                  OVER VOTES                            PRECINCT 304                                           01 
01480020010000000DEM       Supreme Court, Place 6, Unexpired Term                  OVER VOTES                            PRECINCT 305                                           01 
01480020011000000DEM       Supreme Court, Place 6, Unexpired Term                  OVER VOTES                            PRECINCT 401                                           01 
01480020012000000DEM       Supreme Court, Place 6, Unexpired Term                  OVER VOTES                            PRECINCT 402                                           01 
01480030001000015DEM       Supreme Court, Place 6, Unexpired Term                  UNDER VOTES                           PRECINCT 101                                           01 
01480030002000001DEM       Supreme Court, Place 6, Unexpired Term                  UNDER VOTES                           PRECINCT 102                                           01 
01480030003000004DEM       Supreme Court, Place 6, Unexpired Term                  UNDER VOTES                           PRECINCT 103                                           01 
01480030004000017DEM       Supreme Court, Place 6, Unexpired Term                  UNDER VOTES                           PRECINCT 201                                           01 
01480030005000001DEM       Supreme Court, Place 6, Unexpired Term                  UNDER VOTES                           PRECINCT 202                                           01 
01480030006000005DEM       Supreme Court, Place 6, Unexpired Term                  UNDER VOTES                           PRECINCT 301                                           01 
01480030007000000DEM       Supreme Court, Place 6, Unexpired Term                  UNDER VOTES                           PRECINCT 302                                           01 
01480030008000002DEM       Supreme Court, Place 6, Unexpired Term                  UNDER VOTES                           PRECINCT 303                                           01 
01480030009000003DEM       Supreme Court, Place 6, Unexpired Term                  UNDER VOTES                           PRECINCT 304                                           01 
01480030010000008DEM       Supreme Court, Place 6, Unexpired Term                  UNDER VOTES                           PRECINCT 305                                           01 
01480030011000007DEM       Supreme Court, Place 6, Unexpired Term                  UNDER VOTES                           PRECINCT 401                                           01 
01480030012000014DEM       Supreme Court, Place 6, Unexpired Term                  UNDER VOTES                           PRECINCT 402                                           01 
01490010001000044DEM       Justice, Supreme Court, Place 7                         Gina Benavides                        PRECINCT 101                                           01 
01490010002000005DEM       Justice, Supreme Court, Place 7                         Gina Benavides                        PRECINCT 102                                           01 
01490010003000007DEM       Justice, Supreme Court, Place 7                         Gina Benavides                        PRECINCT 103                                           01 
01490010004000030DEM       Justice, Supreme Court, Place 7                         Gina Benavides                        PRECINCT 201                                           01 
01490010005000005DEM       Justice, Supreme Court, Place 7                         Gina Benavides                        PRECINCT 202                                           01 
01490010006000014DEM       Justice, Supreme Court, Place 7                         Gina Benavides                        PRECINCT 301                                           01 
01490010007000008DEM       Justice, Supreme Court, Place 7                         Gina Benavides                        PRECINCT 302                                           01 
01490010008000003DEM       Justice, Supreme Court, Place 7                         Gina Benavides                        PRECINCT 303                                           01 
01490010009000005DEM       Justice, Supreme Court, Place 7                         Gina Benavides                        PRECINCT 304                                           01 
01490010010000021DEM       Justice, Supreme Court, Place 7                         Gina Benavides                        PRECINCT 305                                           01 
01490010011000010DEM       Justice, Supreme Court, Place 7                         Gina Benavides                        PRECINCT 401                                           01 
01490010012000043DEM       Justice, Supreme Court, Place 7                         Gina Benavides                        PRECINCT 402                                           01 
01490020001000000DEM       Justice, Supreme Court, Place 7                         OVER VOTES                            PRECINCT 101                                           01 
01490020002000000DEM       Justice, Supreme Court, Place 7                         OVER VOTES                            PRECINCT 102                                           01 
01490020003000000DEM       Justice, Supreme Court, Place 7                         OVER VOTES                            PRECINCT 103                                           01 
01490020004000000DEM       Justice, Supreme Court, Place 7                         OVER VOTES                            PRECINCT 201                                           01 
01490020005000000DEM       Justice, Supreme Court, Place 7                         OVER VOTES                            PRECINCT 202                                           01 
01490020006000000DEM       Justice, Supreme Court, Place 7                         OVER VOTES                            PRECINCT 301                                           01 
01490020007000000DEM       Justice, Supreme Court, Place 7                         OVER VOTES                            PRECINCT 302                                           01 
01490020008000000DEM       Justice, Supreme Court, Place 7                         OVER VOTES                            PRECINCT 303                                           01 
01490020009000000DEM       Justice, Supreme Court, Place 7                         OVER VOTES                            PRECINCT 304                                           01 
01490020010000000DEM       Justice, Supreme Court, Place 7                         OVER VOTES                            PRECINCT 305                                           01 
01490020011000000DEM       Justice, Supreme Court, Place 7                         OVER VOTES                            PRECINCT 401                                           01 
01490020012000000DEM       Justice, Supreme Court, Place 7                         OVER VOTES                            PRECINCT 402                                           01 
01490030001000016DEM       Justice, Supreme Court, Place 7                         UNDER VOTES                           PRECINCT 101                                           01 
01490030002000002DEM       Justice, Supreme Court, Place 7                         UNDER VOTES                           PRECINCT 102                                           01 
01490030003000004DEM       Justice, Supreme Court, Place 7                         UNDER VOTES                           PRECINCT 103                                           01 
01490030004000016DEM       Justice, Supreme Court, Place 7                         UNDER VOTES                           PRECINCT 201                                           01 
01490030005000000DEM       Justice, Supreme Court, Place 7                         UNDER VOTES                           PRECINCT 202                                           01 
01490030006000004DEM       Justice, Supreme Court, Place 7                         UNDER VOTES                           PRECINCT 301                                           01 
01490030007000000DEM       Justice, Supreme Court, Place 7                         UNDER VOTES                           PRECINCT 302                                           01 
01490030008000003DEM       Justice, Supreme Court, Place 7                         UNDER VOTES                           PRECINCT 303                                           01 
01490030009000003DEM       Justice, Supreme Court, Place 7                         UNDER VOTES                           PRECINCT 304                                           01 
01490030010000008DEM       Justice, Supreme Court, Place 7                         UNDER VOTES                           PRECINCT 305                                           01 
01490030011000007DEM       Justice, Supreme Court, Place 7                         UNDER VOTES                           PRECINCT 401                                           01 
01490030012000008DEM       Justice, Supreme Court, Place 7                         UNDER VOTES                           PRECINCT 402                                           01 
01500010001000042DEM       Judge, Court of Criminal Appeals, Pl 3                  John Granberg                         PRECINCT 101                                           01 
01500010002000005DEM       Judge, Court of Criminal Appeals, Pl 3                  John Granberg                         PRECINCT 102                                           01 
01500010003000007DEM       Judge, Court of Criminal Appeals, Pl 3                  John Granberg                         PRECINCT 103                                           01 
01500010004000031DEM       Judge, Court of Criminal Appeals, Pl 3                  John Granberg                         PRECINCT 201                                           01 
01500010005000004DEM       Judge, Court of Criminal Appeals, Pl 3                  John Granberg                         PRECINCT 202                                           01 
01500010006000013DEM       Judge, Court of Criminal Appeals, Pl 3                  John Granberg                         PRECINCT 301                                           01 
01500010007000008DEM       Judge, Court of Criminal Appeals, Pl 3                  John Granberg                         PRECINCT 302                                           01 
01500010008000004DEM       Judge, Court of Criminal Appeals, Pl 3                  John Granberg                         PRECINCT 303                                           01 
01500010009000005DEM       Judge, Court of Criminal Appeals, Pl 3                  John Granberg                         PRECINCT 304                                           01 
01500010010000022DEM       Judge, Court of Criminal Appeals, Pl 3                  John Granberg                         PRECINCT 305                                           01 
01500010011000011DEM       Judge, Court of Criminal Appeals, Pl 3                  John Granberg                         PRECINCT 401                                           01 
01500010012000034DEM       Judge, Court of Criminal Appeals, Pl 3                  John Granberg                         PRECINCT 402                                           01 
01500020001000000DEM       Judge, Court of Criminal Appeals, Pl 3                  OVER VOTES                            PRECINCT 101                                           01 
01500020002000000DEM       Judge, Court of Criminal Appeals, Pl 3                  OVER VOTES                            PRECINCT 102                                           01 
01500020003000000DEM       Judge, Court of Criminal Appeals, Pl 3                  OVER VOTES                            PRECINCT 103                                           01 
01500020004000000DEM       Judge, Court of Criminal Appeals, Pl 3                  OVER VOTES                            PRECINCT 201                                           01 
01500020005000000DEM       Judge, Court of Criminal Appeals, Pl 3                  OVER VOTES                            PRECINCT 202                                           01 
01500020006000000DEM       Judge, Court of Criminal Appeals, Pl 3                  OVER VOTES                            PRECINCT 301                                           01 
01500020007000000DEM       Judge, Court of Criminal Appeals, Pl 3                  OVER VOTES                            PRECINCT 302                                           01 
01500020008000000DEM       Judge, Court of Criminal Appeals, Pl 3                  OVER VOTES                            PRECINCT 303                                           01 
01500020009000000DEM       Judge, Court of Criminal Appeals, Pl 3                  OVER VOTES                            PRECINCT 304                                           01 
01500020010000000DEM       Judge, Court of Criminal Appeals, Pl 3                  OVER VOTES                            PRECINCT 305                                           01 
01500020011000000DEM       Judge, Court of Criminal Appeals, Pl 3                  OVER VOTES                            PRECINCT 401                                           01 
01500020012000000DEM       Judge, Court of Criminal Appeals, Pl 3                  OVER VOTES                            PRECINCT 402                                           01 
