01010010001003714000000000000000000000000000000          REGISTERED VOTERS - TOTAL                               REGISTERED VOTERS - TOTAL             PRECINCT 101                                           00 
01010010002003169000000000000000000000000000000          REGISTERED VOTERS - TOTAL                               REGISTERED VOTERS - TOTAL             PRECINCT 102                                           00 
01010010003003025000000000000000000000000000000          REGISTERED VOTERS - TOTAL                               REGISTERED VOTERS - TOTAL             PRECINCT 103                                           00 
01010010004001880000000000000000000000000000000          REGISTERED VOTERS - TOTAL                               REGISTERED VOTERS - TOTAL             PRECINCT 104                                           00 
01010010005004954000000000000000000000000000000          REGISTERED VOTERS - TOTAL                               REGISTERED VOTERS - TOTAL             PRECINCT 105                                           00 
01010010006004893000000000000000000000000000000          REGISTERED VOTERS - TOTAL                               REGISTERED VOTERS - TOTAL             PRECINCT 106                                           00 
01010010007003626000000000000000000000000000000          REGISTERED VOTERS - TOTAL                               REGISTERED VOTERS - TOTAL             PRECINCT 201                                           00 
01010010008000909000000000000000000000000000000          REGISTERED VOTERS - TOTAL                               REGISTERED VOTERS - TOTAL             PRECINCT 202                                           00 
01010010009003525000000000000000000000000000000          REGISTERED VOTERS - TOTAL                               REGISTERED VOTERS - TOTAL             PRECINCT 203                                           00 
01010010010004796000000000000000000000000000000          REGISTERED VOTERS - TOTAL                               REGISTERED VOTERS - TOTAL             PRECINCT 204                                           00 
01010010011005577000000000000000000000000000000          REGISTERED VOTERS - TOTAL                               REGISTERED VOTERS - TOTAL             PRECINCT 205                                           00 
01010010012004072000000000000000000000000000000          REGISTERED VOTERS - TOTAL                               REGISTERED VOTERS - TOTAL             PRECINCT 206                                           00 
01010010013004175000000000000000000000000000000          REGISTERED VOTERS - TOTAL                               REGISTERED VOTERS - TOTAL             PRECINCT 301                                           00 
01010010014005049000000000000000000000000000000          REGISTERED VOTERS - TOTAL                               REGISTERED VOTERS - TOTAL             PRECINCT 302                                           00 
01010010015001053000000000000000000000000000000          REGISTERED VOTERS - TOTAL                               REGISTERED VOTERS - TOTAL             PRECINCT 303                                           00 
01010010016004520000000000000000000000000000000          REGISTERED VOTERS - TOTAL                               REGISTERED VOTERS - TOTAL             PRECINCT 304                                           00 
01010010017001468000000000000000000000000000000          REGISTERED VOTERS - TOTAL                               REGISTERED VOTERS - TOTAL             PRECINCT 305                                           00 
01010010018002045000000000000000000000000000000          REGISTERED VOTERS - TOTAL                               REGISTERED VOTERS - TOTAL             PRECINCT 401                                           00 
01010010019003917000000000000000000000000000000          REGISTERED VOTERS - TOTAL                               REGISTERED VOTERS - TOTAL             PRECINCT 402                                           00 
01010010020003680000000000000000000000000000000          REGISTERED VOTERS - TOTAL                               REGISTERED VOTERS - TOTAL             PRECINCT 403                                           00 
01010010021005468000000000000000000000000000000          REGISTERED VOTERS - TOTAL                               REGISTERED VOTERS - TOTAL             PRECINCT 404                                           00 
01010010022003265000000000000000000000000000000          REGISTERED VOTERS - TOTAL                               REGISTERED VOTERS - TOTAL             PRECINCT 405                                           00 
01010010023003507000000000000000000000000000000          REGISTERED VOTERS - TOTAL                               REGISTERED VOTERS - TOTAL             PRECINCT 406                                           00 
01020010001001664000639000829000196000000000000          BALLOTS CAST - TOTAL                                    BALLOTS CAST - TOTAL                  PRECINCT 101                                           00 
01020010002001439000482000847000109000001000000          BALLOTS CAST - TOTAL                                    BALLOTS CAST - TOTAL                  PRECINCT 102                                           00 
01020010003001553000679000768000106000000000000          BALLOTS CAST - TOTAL                                    BALLOTS CAST - TOTAL                  PRECINCT 103                                           00 
01020010004000916000282000547000087000000000000          BALLOTS CAST - TOTAL                                    BALLOTS CAST - TOTAL                  PRECINCT 104                                           00 
01020010005001977000820000917000240000000000000          BALLOTS CAST - TOTAL                                    BALLOTS CAST - TOTAL                  PRECINCT 105                                           00 
01020010006002362000814001357000191000000000000          BALLOTS CAST - TOTAL                                    BALLOTS CAST - TOTAL                  PRECINCT 106                                           00 
01020010007001302000675000497000126000004000000          BALLOTS CAST - TOTAL                                    BALLOTS CAST - TOTAL                  PRECINCT 201                                           00 
01020010008000349000152000149000048000000000000          BALLOTS CAST - TOTAL                                    BALLOTS CAST - TOTAL                  PRECINCT 202                                           00 
01020010009001807000769000877000161000000000000          BALLOTS CAST - TOTAL                                    BALLOTS CAST - TOTAL                  PRECINCT 203                                           00 
01020010010002220000831001170000219000000000000          BALLOTS CAST - TOTAL                                    BALLOTS CAST - TOTAL                  PRECINCT 204                                           00 
01020010011003016000958001847000211000000000000          BALLOTS CAST - TOTAL                                    BALLOTS CAST - TOTAL                  PRECINCT 205                                           00 
01020010012001908000797000977000134000000000000          BALLOTS CAST - TOTAL                                    BALLOTS CAST - TOTAL                  PRECINCT 206                                           00 
01020010013000811000413000284000114000000000000          BALLOTS CAST - TOTAL                                    BALLOTS CAST - TOTAL                  PRECINCT 301                                           00 
01020010014001758000782000798000178000000000000          BALLOTS CAST - TOTAL                                    BALLOTS CAST - TOTAL                  PRECINCT 302                                           00 
01020010015000280000151000097000032000000000000          BALLOTS CAST - TOTAL                                    BALLOTS CAST - TOTAL                  PRECINCT 303                                           00 
01020010016001087000512000443000127000005000000          BALLOTS CAST - TOTAL                                    BALLOTS CAST - TOTAL                  PRECINCT 304                                           00 
01020010017000409000212000163000033000001000000          BALLOTS CAST - TOTAL                                    BALLOTS CAST - TOTAL                  PRECINCT 305                                           00 
01020010018000951000360000465000126000000000000          BALLOTS CAST - TOTAL                                    BALLOTS CAST - TOTAL                  PRECINCT 401                                           00 
01020010019001866000732000924000210000000000000          BALLOTS CAST - TOTAL                                    BALLOTS CAST - TOTAL                  PRECINCT 402                                           00 
01020010020001868000726000971000171000000000000          BALLOTS CAST - TOTAL                                    BALLOTS CAST - TOTAL                  PRECINCT 403                                           00 
01020010021002655001152001294000206000003000000          BALLOTS CAST - TOTAL                                    BALLOTS CAST - TOTAL                  PRECINCT 404                                           00 
01020010022001239000523000585000131000000000000          BALLOTS CAST - TOTAL                                    BALLOTS CAST - TOTAL                  PRECINCT 405                                           00 
01020010023001495000653000621000219000002000000          BALLOTS CAST - TOTAL                                    BALLOTS CAST - TOTAL                  PRECINCT 406                                           00 
01030010001000691000255000355000081000000000000REP       STRAIGHT PARTY                                          REPUBLICAN PARTY                      PRECINCT 101                                           01 
01030010002000846000282000501000062000001000000REP       STRAIGHT PARTY                                          REPUBLICAN PARTY                      PRECINCT 102                                           01 
01030010003000790000336000397000057000000000000REP       STRAIGHT PARTY                                          REPUBLICAN PARTY                      PRECINCT 103                                           01 
01030010004000455000134000293000028000000000000REP       STRAIGHT PARTY                                          REPUBLICAN PARTY                      PRECINCT 104                                           01 
01030010005001007000418000484000105000000000000REP       STRAIGHT PARTY                                          REPUBLICAN PARTY                      PRECINCT 105                                           01 
01030010006001381000465000809000107000000000000REP       STRAIGHT PARTY                                          REPUBLICAN PARTY                      PRECINCT 106                                           01 
01030010007000602000315000213000070000004000000REP       STRAIGHT PARTY                                          REPUBLICAN PARTY                      PRECINCT 201                                           01 
01030010008000198000086000090000022000000000000REP       STRAIGHT PARTY                                          REPUBLICAN PARTY                      PRECINCT 202                                           01 
01030010009001036000481000460000095000000000000REP       STRAIGHT PARTY                                          REPUBLICAN PARTY                      PRECINCT 203                                           01 
01030010010001205000452000652000101000000000000REP       STRAIGHT PARTY                                          REPUBLICAN PARTY                      PRECINCT 204                                           01 
01030010011001628000488001033000107000000000000REP       STRAIGHT PARTY                                          REPUBLICAN PARTY                      PRECINCT 205                                           01 
01030010012001064000436000545000083000000000000REP       STRAIGHT PARTY                                          REPUBLICAN PARTY                      PRECINCT 206                                           01 
01030010013000267000143000097000027000000000000REP       STRAIGHT PARTY                                          REPUBLICAN PARTY                      PRECINCT 301                                           01 
01030010014000705000296000350000059000000000000REP       STRAIGHT PARTY                                          REPUBLICAN PARTY                      PRECINCT 302                                           01 
01030010015000072000036000026000010000000000000REP       STRAIGHT PARTY                                          REPUBLICAN PARTY                      PRECINCT 303                                           01 
01030010016000493000220000209000062000002000000REP       STRAIGHT PARTY                                          REPUBLICAN PARTY                      PRECINCT 304                                           01 
01030010017000183000096000076000010000001000000REP       STRAIGHT PARTY                                          REPUBLICAN PARTY                      PRECINCT 305                                           01 
01030010018000458000184000213000061000000000000REP       STRAIGHT PARTY                                          REPUBLICAN PARTY                      PRECINCT 401                                           01 
01030010019000951000371000475000105000000000000REP       STRAIGHT PARTY                                          REPUBLICAN PARTY                      PRECINCT 402                                           01 
01030010020001031000383000557000091000000000000REP       STRAIGHT PARTY                                          REPUBLICAN PARTY                      PRECINCT 403                                           01 
01030010021001488000703000681000102000002000000REP       STRAIGHT PARTY                                          REPUBLICAN PARTY                      PRECINCT 404                                           01 
01030010022000618000249000308000061000000000000REP       STRAIGHT PARTY                                          REPUBLICAN PARTY                      PRECINCT 405                                           01 
01030010023000721000320000295000105000001000000REP       STRAIGHT PARTY                                          REPUBLICAN PARTY                      PRECINCT 406                                           01 
01030020001000158000063000071000024000000000000DEM       STRAIGHT PARTY                                          DEMOCRATIC PARTY                      PRECINCT 101                                           01 
01030020002000100000034000053000013000000000000DEM       STRAIGHT PARTY                                          DEMOCRATIC PARTY                      PRECINCT 102                                           01 
01030020003000114000055000048000011000000000000DEM       STRAIGHT PARTY                                          DEMOCRATIC PARTY                      PRECINCT 103                                           01 
01030020004000092000028000049000015000000000000DEM       STRAIGHT PARTY                                          DEMOCRATIC PARTY                      PRECINCT 104                                           01 
01030020005000196000090000079000027000000000000DEM       STRAIGHT PARTY                                          DEMOCRATIC PARTY                      PRECINCT 105                                           01 
01030020006000148000052000081000015000000000000DEM       STRAIGHT PARTY                                          DEMOCRATIC PARTY                      PRECINCT 106                                           01 
01030020007000161000073000068000020000000000000DEM       STRAIGHT PARTY                                          DEMOCRATIC PARTY                      PRECINCT 201                                           01 
01030020008000047000019000022000006000000000000DEM       STRAIGHT PARTY                                          DEMOCRATIC PARTY                      PRECINCT 202                                           01 
01030020009000115000047000055000013000000000000DEM       STRAIGHT PARTY                                          DEMOCRATIC PARTY                      PRECINCT 203                                           01 
01030020010000154000065000064000025000000000000DEM       STRAIGHT PARTY                                          DEMOCRATIC PARTY                      PRECINCT 204                                           01 
01030020011000302000109000182000011000000000000DEM       STRAIGHT PARTY                                          DEMOCRATIC PARTY                      PRECINCT 205                                           01 
01030020012000117000049000052000016000000000000DEM       STRAIGHT PARTY                                          DEMOCRATIC PARTY                      PRECINCT 206                                           01 
01030020013000211000107000058000046000000000000DEM       STRAIGHT PARTY                                          DEMOCRATIC PARTY                      PRECINCT 301                                           01 
01030020014000265000119000110000036000000000000DEM       STRAIGHT PARTY                                          DEMOCRATIC PARTY                      PRECINCT 302                                           01 
01030020015000081000055000014000012000000000000DEM       STRAIGHT PARTY                                          DEMOCRATIC PARTY                      PRECINCT 303                                           01 
01030020016000167000090000054000022000001000000DEM       STRAIGHT PARTY                                          DEMOCRATIC PARTY                      PRECINCT 304                                           01 
01030020017000038000016000015000007000000000000DEM       STRAIGHT PARTY                                          DEMOCRATIC PARTY                      PRECINCT 305                                           01 
01030020018000100000034000043000023000000000000DEM       STRAIGHT PARTY                                          DEMOCRATIC PARTY                      PRECINCT 401                                           01 
01030020019000154000048000084000022000000000000DEM       STRAIGHT PARTY                                          DEMOCRATIC PARTY                      PRECINCT 402                                           01 
01030020020000147000057000075000015000000000000DEM       STRAIGHT PARTY                                          DEMOCRATIC PARTY                      PRECINCT 403                                           01 
01030020021000200000090000089000021000000000000DEM       STRAIGHT PARTY                                          DEMOCRATIC PARTY                      PRECINCT 404                                           01 
01030020022000149000064000064000021000000000000DEM       STRAIGHT PARTY                                          DEMOCRATIC PARTY                      PRECINCT 405                                           01 
01030020023000148000056000065000027000000000000DEM       STRAIGHT PARTY                                          DEMOCRATIC PARTY                      PRECINCT 406                                           01 
01030030001000007000004000003000000000000000000LIB       STRAIGHT PARTY                                          LIBERTARIAN PARTY                     PRECINCT 101                                           01 
01030030002000006000002000003000001000000000000LIB       STRAIGHT PARTY                                          LIBERTARIAN PARTY                     PRECINCT 102                                           01 
01030030003000004000002000001000001000000000000LIB       STRAIGHT PARTY                                          LIBERTARIAN PARTY                     PRECINCT 103                                           01 
01030030004000004000002000002000000000000000000LIB       STRAIGHT PARTY                                          LIBERTARIAN PARTY                     PRECINCT 104                                           01 
01030030005000011000004000007000000000000000000LIB       STRAIGHT PARTY                                          LIBERTARIAN PARTY                     PRECINCT 105                                           01 
01030030006000009000006000002000001000000000000LIB       STRAIGHT PARTY                                          LIBERTARIAN PARTY                     PRECINCT 106                                           01 
01030030007000007000005000002000000000000000000LIB       STRAIGHT PARTY                                          LIBERTARIAN PARTY                     PRECINCT 201                                           01 
01030030008000004000003000001000000000000000000LIB       STRAIGHT PARTY                                          LIBERTARIAN PARTY                     PRECINCT 202                                           01 
01030030009000007000005000002000000000000000000LIB       STRAIGHT PARTY                                          LIBERTARIAN PARTY                     PRECINCT 203                                           01 
01030030010000004000003000001000000000000000000LIB       STRAIGHT PARTY                                          LIBERTARIAN PARTY                     PRECINCT 204                                           01 
01030030011000005000005000000000000000000000000LIB       STRAIGHT PARTY                                          LIBERTARIAN PARTY                     PRECINCT 205                                           01 
01030030012000009000003000006000000000000000000LIB       STRAIGHT PARTY                                          LIBERTARIAN PARTY                     PRECINCT 206                                           01 
01030030013000006000005000001000000000000000000LIB       STRAIGHT PARTY                                          LIBERTARIAN PARTY                     PRECINCT 301                                           01 
01030030014000015000011000004000000000000000000LIB       STRAIGHT PARTY                                          LIBERTARIAN PARTY                     PRECINCT 302                                           01 
01030030015000001000001000000000000000000000000LIB       STRAIGHT PARTY                                          LIBERTARIAN PARTY                     PRECINCT 303                                           01 
01030030016000006000004000002000000000000000000LIB       STRAIGHT PARTY                                          LIBERTARIAN PARTY                     PRECINCT 304                                           01 
01030030017000002000001000001000000000000000000LIB       STRAIGHT PARTY                                          LIBERTARIAN PARTY                     PRECINCT 305                                           01 
01030030018000001000001000000000000000000000000LIB       STRAIGHT PARTY                                          LIBERTARIAN PARTY                     PRECINCT 401                                           01 
01030030019000009000006000002000001000000000000LIB       STRAIGHT PARTY                                          LIBERTARIAN PARTY                     PRECINCT 402                                           01 
01030030020000009000006000003000000000000000000LIB       STRAIGHT PARTY                                          LIBERTARIAN PARTY                     PRECINCT 403                                           01 
01030030021000015000012000002000001000000000000LIB       STRAIGHT PARTY                                          LIBERTARIAN PARTY                     PRECINCT 404                                           01 
01030030022000013000007000006000000000000000000LIB       STRAIGHT PARTY                                          LIBERTARIAN PARTY                     PRECINCT 405                                           01 
01030030023000003000003000000000000000000000000LIB       STRAIGHT PARTY                                          LIBERTARIAN PARTY                     PRECINCT 406                                           01 
01030040001000004000004000000000000000000000000GRN       STRAIGHT PARTY                                          GREEN PARTY                           PRECINCT 101                                           01 
01030040002000000000000000000000000000000000000GRN       STRAIGHT PARTY                                          GREEN PARTY                           PRECINCT 102                                           01 
01030040003000000000000000000000000000000000000GRN       STRAIGHT PARTY                                          GREEN PARTY                           PRECINCT 103                                           01 
01030040004000000000000000000000000000000000000GRN       STRAIGHT PARTY                                          GREEN PARTY                           PRECINCT 104                                           01 
01030040005000002000002000000000000000000000000GRN       STRAIGHT PARTY                                          GREEN PARTY                           PRECINCT 105                                           01 
01030040006000001000001000000000000000000000000GRN       STRAIGHT PARTY                                          GREEN PARTY                           PRECINCT 106                                           01 
01030040007000002000001000000000001000000000000GRN       STRAIGHT PARTY                                          GREEN PARTY                           PRECINCT 201                                           01 
01030040008000000000000000000000000000000000000GRN       STRAIGHT PARTY                                          GREEN PARTY                           PRECINCT 202                                           01 
01030040009000001000001000000000000000000000000GRN       STRAIGHT PARTY                                          GREEN PARTY                           PRECINCT 203                                           01 
01030040010000000000000000000000000000000000000GRN       STRAIGHT PARTY                                          GREEN PARTY                           PRECINCT 204                                           01 
01030040011000005000001000003000001000000000000GRN       STRAIGHT PARTY                                          GREEN PARTY                           PRECINCT 205                                           01 
01030040012000001000000000001000000000000000000GRN       STRAIGHT PARTY                                          GREEN PARTY                           PRECINCT 206                                           01 
01030040013000001000000000000000001000000000000GRN       STRAIGHT PARTY                                          GREEN PARTY                           PRECINCT 301                                           01 
01030040014000002000002000000000000000000000000GRN       STRAIGHT PARTY                                          GREEN PARTY                           PRECINCT 302                                           01 
01030040015000001000000000001000000000000000000GRN       STRAIGHT PARTY                                          GREEN PARTY                           PRECINCT 303                                           01 
01030040016000001000001000000000000000000000000GRN       STRAIGHT PARTY                                          GREEN PARTY                           PRECINCT 304                                           01 
01030040017000000000000000000000000000000000000GRN       STRAIGHT PARTY                                          GREEN PARTY                           PRECINCT 305                                           01 
01030040018000001000000000001000000000000000000GRN       STRAIGHT PARTY                                          GREEN PARTY                           PRECINCT 401                                           01 
01030040019000002000001000001000000000000000000GRN       STRAIGHT PARTY                                          GREEN PARTY                           PRECINCT 402                                           01 
01030040020000001000000000001000000000000000000GRN       STRAIGHT PARTY                                          GREEN PARTY                           PRECINCT 403                                           01 
01030040021000002000002000000000000000000000000GRN       STRAIGHT PARTY                                          GREEN PARTY                           PRECINCT 404                                           01 
01030040022000001000000000001000000000000000000GRN       STRAIGHT PARTY                                          GREEN PARTY                           PRECINCT 405                                           01 
01030040023000001000001000000000000000000000000GRN       STRAIGHT PARTY                                          GREEN PARTY                           PRECINCT 406                                           01 
01040010001001239000444000643000152000000000000REP       US Senator                                              John Cornyn                           PRECINCT 101                                           01 
01040010002001212000403000732000076000001000000REP       US Senator                                              John Cornyn                           PRECINCT 102                                           01 
01040010003001268000556000636000076000000000000REP       US Senator                                              John Cornyn                           PRECINCT 103                                           01 
01040010004000689000205000430000054000000000000REP       US Senator                                              John Cornyn                           PRECINCT 104                                           01 
01040010005001518000625000724000169000000000000REP       US Senator                                              John Cornyn                           PRECINCT 105                                           01 
01040010006001975000664001153000158000000000000REP       US Senator                                              John Cornyn                           PRECINCT 106                                           01 
01040010007000975000507000369000095000004000000REP       US Senator                                              John Cornyn                           PRECINCT 201                                           01 
01040010008000266000118000114000034000000000000REP       US Senator                                              John Cornyn                           PRECINCT 202                                           01 
01040010009001522000657000736000129000000000000REP       US Senator                                              John Cornyn                           PRECINCT 203                                           01 
01040010010001812000664000990000158000000000000REP       US Senator                                              John Cornyn                           PRECINCT 204                                           01 
01040010011002428000751001508000169000000000000REP       US Senator                                              John Cornyn                           PRECINCT 205                                           01 
01040010012001592000674000808000110000000000000REP       US Senator                                              John Cornyn                           PRECINCT 206                                           01 
01040010013000425000225000158000042000000000000REP       US Senator                                              John Cornyn                           PRECINCT 301                                           01 
01040010014001178000507000565000106000000000000REP       US Senator                                              John Cornyn                           PRECINCT 302                                           01 
01040010015000128000062000052000014000000000000REP       US Senator                                              John Cornyn                           PRECINCT 303                                           01 
01040010016000756000343000320000090000003000000REP       US Senator                                              John Cornyn                           PRECINCT 304                                           01 
01040010017000306000161000126000018000001000000REP       US Senator                                              John Cornyn                           PRECINCT 305                                           01 
01040010018000727000284000360000083000000000000REP       US Senator                                              John Cornyn                           PRECINCT 401                                           01 
01040010019001426000581000690000155000000000000REP       US Senator                                              John Cornyn                           PRECINCT 402                                           01 
01040010020001528000575000821000132000000000000REP       US Senator                                              John Cornyn                           PRECINCT 403                                           01 
01040010021002168000944001063000158000003000000REP       US Senator                                              John Cornyn                           PRECINCT 404                                           01 
01040010022000945000390000458000097000000000000REP       US Senator                                              John Cornyn                           PRECINCT 405                                           01 
01040010023001128000510000462000154000002000000REP       US Senator                                              John Cornyn                           PRECINCT 406                                           01 
01040020001000328000138000149000041000000000000DEM       US Senator                                              David M. Alameel                      PRECINCT 101                                           01 
01040020002000167000055000089000023000000000000DEM       US Senator                                              David M. Alameel                      PRECINCT 102                                           01 
01040020003000214000088000101000025000000000000DEM       US Senator                                              David M. Alameel                      PRECINCT 103                                           01 
01040020004000168000052000088000028000000000000DEM       US Senator                                              David M. Alameel                      PRECINCT 104                                           01 
01040020005000347000147000141000059000000000000DEM       US Senator                                              David M. Alameel                      PRECINCT 105                                           01 
01040020006000288000105000154000029000000000000DEM       US Senator                                              David M. Alameel                      PRECINCT 106                                           01 
01040020007000247000111000106000030000000000000DEM       US Senator                                              David M. Alameel                      PRECINCT 201                                           01 
01040020008000070000027000031000012000000000000DEM       US Senator                                              David M. Alameel                      PRECINCT 202                                           01 
01040020009000221000085000109000027000000000000DEM       US Senator                                              David M. Alameel                      PRECINCT 203                                           01 
01040020010000309000127000134000048000000000000DEM       US Senator                                              David M. Alameel                      PRECINCT 204                                           01 
01040020011000480000164000282000034000000000000DEM       US Senator                                              David M. Alameel                      PRECINCT 205                                           01 
01040020012000226000089000114000023000000000000DEM       US Senator                                              David M. Alameel                      PRECINCT 206                                           01 
01040020013000324000149000108000067000000000000DEM       US Senator                                              David M. Alameel                      PRECINCT 301                                           01 
01040020014000453000206000183000064000000000000DEM       US Senator                                              David M. Alameel                      PRECINCT 302                                           01 
01040020015000138000079000042000017000000000000DEM       US Senator                                              David M. Alameel                      PRECINCT 303                                           01 
01040020016000269000129000105000035000000000000DEM       US Senator                                              David M. Alameel                      PRECINCT 304                                           01 
01040020017000072000029000029000014000000000000DEM       US Senator                                              David M. Alameel                      PRECINCT 305                                           01 
01040020018000179000057000084000038000000000000DEM       US Senator                                              David M. Alameel                      PRECINCT 401                                           01 
01040020019000318000100000174000044000000000000DEM       US Senator                                              David M. Alameel                      PRECINCT 402                                           01 
01040020020000251000106000111000034000000000000DEM       US Senator                                              David M. Alameel                      PRECINCT 403                                           01 
01040020021000376000153000183000040000000000000DEM       US Senator                                              David M. Alameel                      PRECINCT 404                                           01 
01040020022000218000094000093000031000000000000DEM       US Senator                                              David M. Alameel                      PRECINCT 405                                           01 
01040020023000273000099000122000052000000000000DEM       US Senator                                              David M. Alameel                      PRECINCT 406                                           01 
01040030001000054000034000019000001000000000000LIB       US Senator                                              Rebecca Paddock                       PRECINCT 101                                           01 
01040030002000041000015000020000006000000000000LIB       US Senator                                              Rebecca Paddock                       PRECINCT 102                                           01 
01040030003000052000023000025000004000000000000LIB       US Senator                                              Rebecca Paddock                       PRECINCT 103                                           01 
01040030004000040000018000017000005000000000000LIB       US Senator                                              Rebecca Paddock                       PRECINCT 104                                           01 
01040030005000058000021000032000005000000000000LIB       US Senator                                              Rebecca Paddock                       PRECINCT 105                                           01 
01040030006000065000032000029000004000000000000LIB       US Senator                                              Rebecca Paddock                       PRECINCT 106                                           01 
01040030007000051000036000015000000000000000000LIB       US Senator                                              Rebecca Paddock                       PRECINCT 201                                           01 
01040030008000011000006000003000002000000000000LIB       US Senator                                              Rebecca Paddock                       PRECINCT 202                                           01 
01040030009000035000015000020000000000000000000LIB       US Senator                                              Rebecca Paddock                       PRECINCT 203                                           01 
01040030010000059000025000025000009000000000000LIB       US Senator                                              Rebecca Paddock                       PRECINCT 204                                           01 
01040030011000070000033000031000006000000000000LIB       US Senator                                              Rebecca Paddock                       PRECINCT 205                                           01 
01040030012000060000024000035000001000000000000LIB       US Senator                                              Rebecca Paddock                       PRECINCT 206                                           01 
01040030013000032000021000008000003000000000000LIB       US Senator                                              Rebecca Paddock                       PRECINCT 301                                           01 
01040030014000084000045000035000004000000000000LIB       US Senator                                              Rebecca Paddock                       PRECINCT 302                                           01 
01040030015000003000002000001000000000000000000LIB       US Senator                                              Rebecca Paddock                       PRECINCT 303                                           01 
01040030016000035000024000009000001000001000000LIB       US Senator                                              Rebecca Paddock                       PRECINCT 304                                           01 
01040030017000019000014000004000001000000000000LIB       US Senator                                              Rebecca Paddock                       PRECINCT 305                                           01 
01040030018000031000015000014000002000000000000LIB       US Senator                                              Rebecca Paddock                       PRECINCT 401                                           01 
01040030019000083000039000039000005000000000000LIB       US Senator                                              Rebecca Paddock                       PRECINCT 402                                           01 
01040030020000059000029000026000004000000000000LIB       US Senator                                              Rebecca Paddock                       PRECINCT 403                                           01 
01040030021000074000039000029000006000000000000LIB       US Senator                                              Rebecca Paddock                       PRECINCT 404                                           01 
01040030022000058000031000024000003000000000000LIB       US Senator                                              Rebecca Paddock                       PRECINCT 405                                           01 
01040030023000060000027000026000007000000000000LIB       US Senator                                              Rebecca Paddock                       PRECINCT 406                                           01 
01040040001000017000011000006000000000000000000GRN       US Senator                                              Emily "Spicybrown" Sanchez            PRECINCT 101                                           01 
01040040002000005000003000002000000000000000000GRN       US Senator                                              Emily "Spicybrown" Sanchez            PRECINCT 102                                           01 
01040040003000006000005000001000000000000000000GRN       US Senator                                              Emily "Spicybrown" Sanchez            PRECINCT 103                                           01 
01040040004000008000002000006000000000000000000GRN       US Senator                                              Emily "Spicybrown" Sanchez            PRECINCT 104                                           01 
01040040005000016000009000004000003000000000000GRN       US Senator                                              Emily "Spicybrown" Sanchez            PRECINCT 105                                           01 
01040040006000013000007000006000000000000000000GRN       US Senator                                              Emily "Spicybrown" Sanchez            PRECINCT 106                                           01 
01040040007000015000010000004000001000000000000GRN       US Senator                                              Emily "Spicybrown" Sanchez            PRECINCT 201                                           01 
01040040008000000000000000000000000000000000000GRN       US Senator                                              Emily "Spicybrown" Sanchez            PRECINCT 202                                           01 
01040040009000009000006000002000001000000000000GRN       US Senator                                              Emily "Spicybrown" Sanchez            PRECINCT 203                                           01 
01040040010000008000002000004000002000000000000GRN       US Senator                                              Emily "Spicybrown" Sanchez            PRECINCT 204                                           01 
01040040011000014000006000007000001000000000000GRN       US Senator                                              Emily "Spicybrown" Sanchez            PRECINCT 205                                           01 
01040040012000010000004000006000000000000000000GRN       US Senator                                              Emily "Spicybrown" Sanchez            PRECINCT 206                                           01 
01040040013000009000007000002000000000000000000GRN       US Senator                                              Emily "Spicybrown" Sanchez            PRECINCT 301                                           01 
01040040014000018000012000006000000000000000000GRN       US Senator                                              Emily "Spicybrown" Sanchez            PRECINCT 302                                           01 
01040040015000007000005000002000000000000000000GRN       US Senator                                              Emily "Spicybrown" Sanchez            PRECINCT 303                                           01 
01040040016000016000011000003000001000001000000GRN       US Senator                                              Emily "Spicybrown" Sanchez            PRECINCT 304                                           01 
01040040017000004000003000001000000000000000000GRN       US Senator                                              Emily "Spicybrown" Sanchez            PRECINCT 305                                           01 
01040040018000000000000000000000000000000000000GRN       US Senator                                              Emily "Spicybrown" Sanchez            PRECINCT 401                                           01 
01040040019000017000005000008000004000000000000GRN       US Senator                                              Emily "Spicybrown" Sanchez            PRECINCT 402                                           01 
01040040020000011000006000005000000000000000000GRN       US Senator                                              Emily "Spicybrown" Sanchez            PRECINCT 403                                           01 
01040040021000010000009000001000000000000000000GRN       US Senator                                              Emily "Spicybrown" Sanchez            PRECINCT 404                                           01 
01040040022000004000001000003000000000000000000GRN       US Senator                                              Emily "Spicybrown" Sanchez            PRECINCT 405                                           01 
01040040023000013000008000003000002000000000000GRN       US Senator                                              Emily "Spicybrown" Sanchez            PRECINCT 406                                           01 
01040050001000000000000000000000000000000000000NON       US Senator                                              WRITE-IN                              PRECINCT 101                                           01 
01040050002000000000000000000000000000000000000NON       US Senator                                              WRITE-IN                              PRECINCT 102                                           01 
01040050003000000000000000000000000000000000000NON       US Senator                                              WRITE-IN                              PRECINCT 103                                           01 
01040050004000000000000000000000000000000000000NON       US Senator                                              WRITE-IN                              PRECINCT 104                                           01 
01040050005000000000000000000000000000000000000NON       US Senator                                              WRITE-IN                              PRECINCT 105                                           01 
01040050006000002000001000001000000000000000000NON       US Senator                                              WRITE-IN                              PRECINCT 106                                           01 
01040050007000001000001000000000000000000000000NON       US Senator                                              WRITE-IN                              PRECINCT 201                                           01 
01040050008000000000000000000000000000000000000NON       US Senator                                              WRITE-IN                              PRECINCT 202                                           01 
01040050009000000000000000000000000000000000000NON       US Senator                                              WRITE-IN                              PRECINCT 203                                           01 
01040050010000000000000000000000000000000000000NON       US Senator                                              WRITE-IN                              PRECINCT 204                                           01 
01040050011000001000000000001000000000000000000NON       US Senator                                              WRITE-IN                              PRECINCT 205                                           01 
01040050012000000000000000000000000000000000000NON       US Senator                                              WRITE-IN                              PRECINCT 206                                           01 
01040050013000001000000000000000001000000000000NON       US Senator                                              WRITE-IN                              PRECINCT 301                                           01 
01040050014000000000000000000000000000000000000NON       US Senator                                              WRITE-IN                              PRECINCT 302                                           01 
01040050015000000000000000000000000000000000000NON       US Senator                                              WRITE-IN                              PRECINCT 303                                           01 
01040050016000000000000000000000000000000000000NON       US Senator                                              WRITE-IN                              PRECINCT 304                                           01 
01040050017000001000001000000000000000000000000NON       US Senator                                              WRITE-IN                              PRECINCT 305                                           01 
01040050018000001000001000000000000000000000000NON       US Senator                                              WRITE-IN                              PRECINCT 401                                           01 
01040050019000001000000000001000000000000000000NON       US Senator                                              WRITE-IN                              PRECINCT 402                                           01 
01040050020000001000000000001000000000000000000NON       US Senator                                              WRITE-IN                              PRECINCT 403                                           01 
01040050021000000000000000000000000000000000000NON       US Senator                                              WRITE-IN                              PRECINCT 404                                           01 
01040050022000000000000000000000000000000000000NON       US Senator                                              WRITE-IN                              PRECINCT 405                                           01 
01040050023000001000001000000000000000000000000NON       US Senator                                              WRITE-IN                              PRECINCT 406                                           01 
01050010001001272000461000662000149000000000000REPUREP21 US Representative, DIST 21                              Lamar Smith                           PRECINCT 101                                           01 
01050010002001227000406000734000086000001000000REPUREP21 US Representative, DIST 21                              Lamar Smith                           PRECINCT 102                                           01 
01050010003001311000568000661000082000000000000REPUREP21 US Representative, DIST 21                              Lamar Smith                           PRECINCT 103                                           01 
01050010004000699000212000433000054000000000000REPUREP21 US Representative, DIST 21                              Lamar Smith                           PRECINCT 104                                           01 
01050010005001554000644000743000167000000000000REPUREP21 US Representative, DIST 21                              Lamar Smith                           PRECINCT 105                                           01 
01050010006001984000676001161000147000000000000REPUREP21 US Representative, DIST 21                              Lamar Smith                           PRECINCT 106                                           01 
01050010009001530000663000738000129000000000000REPUREP21 US Representative, DIST 21                              Lamar Smith                           PRECINCT 203                                           01 
01050010010001821000672000992000157000000000000REPUREP21 US Representative, DIST 21                              Lamar Smith                           PRECINCT 204                                           01 
01050010011002492000783001546000163000000000000REPUREP21 US Representative, DIST 21                              Lamar Smith                           PRECINCT 205                                           01 
01050010012001601000674000820000107000000000000REPUREP21 US Representative, DIST 21                              Lamar Smith                           PRECINCT 206                                           01 
01050010017000320000168000134000017000001000000REPUREP21 US Representative, DIST 21                              Lamar Smith                           PRECINCT 305                                           01 
01050010018000742000283000373000086000000000000REPUREP21 US Representative, DIST 21                              Lamar Smith                           PRECINCT 401                                           01 
01050010019001458000590000708000160000000000000REPUREP21 US Representative, DIST 21                              Lamar Smith                           PRECINCT 402                                           01 
01050010020001542000580000829000133000000000000REPUREP21 US Representative, DIST 21                              Lamar Smith                           PRECINCT 403                                           01 
01050010021002220000970001086000161000003000000REPUREP21 US Representative, DIST 21                              Lamar Smith                           PRECINCT 404                                           01 
01050010022000938000397000449000092000000000000REPUREP21 US Representative, DIST 21                              Lamar Smith                           PRECINCT 405                                           01 
01050010023001166000522000480000162000002000000REPUREP21 US Representative, DIST 21                              Lamar Smith                           PRECINCT 406                                           01 
01050020001000157000080000061000016000000000000LIBUREP21 US Representative, DIST 21                              Ryan Shields                          PRECINCT 101                                           01 
01050020002000099000039000055000005000000000000LIBUREP21 US Representative, DIST 21                              Ryan Shields                          PRECINCT 102                                           01 
01050020003000119000061000050000008000000000000LIBUREP21 US Representative, DIST 21                              Ryan Shields                          PRECINCT 103                                           01 
01050020004000100000033000052000015000000000000LIBUREP21 US Representative, DIST 21                              Ryan Shields                          PRECINCT 104                                           01 
01050020005000175000078000070000027000000000000LIBUREP21 US Representative, DIST 21                              Ryan Shields                          PRECINCT 105                                           01 
01050020006000159000058000092000009000000000000LIBUREP21 US Representative, DIST 21                              Ryan Shields                          PRECINCT 106                                           01 
01050020009000118000047000062000009000000000000LIBUREP21 US Representative, DIST 21                              Ryan Shields                          PRECINCT 203                                           01 
01050020010000180000075000085000020000000000000LIBUREP21 US Representative, DIST 21                              Ryan Shields                          PRECINCT 204                                           01 
01050020011000209000080000120000009000000000000LIBUREP21 US Representative, DIST 21                              Ryan Shields                          PRECINCT 205                                           01 
01050020012000143000061000074000008000000000000LIBUREP21 US Representative, DIST 21                              Ryan Shields                          PRECINCT 206                                           01 
01050020017000036000023000011000002000000000000LIBUREP21 US Representative, DIST 21                              Ryan Shields                          PRECINCT 305                                           01 
01050020018000075000032000035000008000000000000LIBUREP21 US Representative, DIST 21                              Ryan Shields                          PRECINCT 401                                           01 
01050020019000183000075000093000015000000000000LIBUREP21 US Representative, DIST 21                              Ryan Shields                          PRECINCT 402                                           01 
01050020020000156000074000064000018000000000000LIBUREP21 US Representative, DIST 21                              Ryan Shields                          PRECINCT 403                                           01 
01050020021000181000080000089000012000000000000LIBUREP21 US Representative, DIST 21                              Ryan Shields                          PRECINCT 404                                           01 
01050020022000142000064000064000014000000000000LIBUREP21 US Representative, DIST 21                              Ryan Shields                          PRECINCT 405                                           01 
01050020023000130000061000054000015000000000000LIBUREP21 US Representative, DIST 21                              Ryan Shields                          PRECINCT 406                                           01 
01050030001000109000059000046000004000000000000GRNUREP21 US Representative, DIST 21                              Antonio Diaz                          PRECINCT 101                                           01 
01050030002000044000013000025000006000000000000GRNUREP21 US Representative, DIST 21                              Antonio Diaz                          PRECINCT 102                                           01 
01050030003000059000019000036000004000000000000GRNUREP21 US Representative, DIST 21                              Antonio Diaz                          PRECINCT 103                                           01 
01050030004000050000015000030000005000000000000GRNUREP21 US Representative, DIST 21                              Antonio Diaz                          PRECINCT 104                                           01 
01050030005000117000046000053000018000000000000GRNUREP21 US Representative, DIST 21                              Antonio Diaz                          PRECINCT 105                                           01 
01050030006000102000049000047000006000000000000GRNUREP21 US Representative, DIST 21                              Antonio Diaz                          PRECINCT 106                                           01 
01050030009000081000027000048000006000000000000GRNUREP21 US Representative, DIST 21                              Antonio Diaz                          PRECINCT 203                                           01 
01050030010000098000037000052000009000000000000GRNUREP21 US Representative, DIST 21                              Antonio Diaz                          PRECINCT 204                                           01 
01050030011000133000042000079000012000000000000GRNUREP21 US Representative, DIST 21                              Antonio Diaz                          PRECINCT 205                                           01 
01050030012000068000025000038000005000000000000GRNUREP21 US Representative, DIST 21                              Antonio Diaz                          PRECINCT 206                                           01 
01050030017000029000014000009000006000000000000GRNUREP21 US Representative, DIST 21                              Antonio Diaz                          PRECINCT 305                                           01 
01050030018000052000023000024000005000000000000GRNUREP21 US Representative, DIST 21                              Antonio Diaz                          PRECINCT 401                                           01 
01050030019000101000036000059000006000000000000GRNUREP21 US Representative, DIST 21                              Antonio Diaz                          PRECINCT 402                                           01 
01050030020000073000033000033000007000000000000GRNUREP21 US Representative, DIST 21                              Antonio Diaz                          PRECINCT 403                                           01 
01050030021000142000071000060000011000000000000GRNUREP21 US Representative, DIST 21                              Antonio Diaz                          PRECINCT 404                                           01 
01050030022000061000032000025000004000000000000GRNUREP21 US Representative, DIST 21                              Antonio Diaz                          PRECINCT 405                                           01 
01050030023000086000036000036000014000000000000GRNUREP21 US Representative, DIST 21                              Antonio Diaz                          PRECINCT 406                                           01 
01060010007000934000493000348000089000004000000REPUREP35 US Representative, DIST 35                              Susan Narvaiz                         PRECINCT 201                                           01 
01060010008000258000109000116000033000000000000REPUREP35 US Representative, DIST 35                              Susan Narvaiz                         PRECINCT 202                                           01 
01060010013000410000220000151000039000000000000REPUREP35 US Representative, DIST 35                              Susan Narvaiz                         PRECINCT 301                                           01 
01060010014001110000487000534000089000000000000REPUREP35 US Representative, DIST 35                              Susan Narvaiz                         PRECINCT 302                                           01 
01060010015000110000056000043000011000000000000REPUREP35 US Representative, DIST 35                              Susan Narvaiz                         PRECINCT 303                                           01 
01060010016000731000337000309000082000003000000REPUREP35 US Representative, DIST 35                              Susan Narvaiz                         PRECINCT 304                                           01 
01060020007000312000144000134000034000000000000DEMUREP35 US Representative, DIST 35                              Lloyd Doggett                         PRECINCT 201                                           01 
01060020008000077000033000032000012000000000000DEMUREP35 US Representative, DIST 35                              Lloyd Doggett                         PRECINCT 202                                           01 
01060020013000357000167000118000072000000000000DEMUREP35 US Representative, DIST 35                              Lloyd Doggett                         PRECINCT 301                                           01 
01060020014000550000245000230000075000000000000DEMUREP35 US Representative, DIST 35                              Lloyd Doggett                         PRECINCT 302                                           01 
01060020015000160000090000051000019000000000000DEMUREP35 US Representative, DIST 35                              Lloyd Doggett                         PRECINCT 303                                           01 
01060020016000317000152000122000042000001000000DEMUREP35 US Representative, DIST 35                              Lloyd Doggett                         PRECINCT 304                                           01 
01060030007000034000022000011000001000000000000LIBUREP35 US Representative, DIST 35                              Cory W. Bruner                        PRECINCT 201                                           01 
01060030008000010000008000001000001000000000000LIBUREP35 US Representative, DIST 35                              Cory W. Bruner                        PRECINCT 202                                           01 
01060030013000018000012000006000000000000000000LIBUREP35 US Representative, DIST 35                              Cory W. Bruner                        PRECINCT 301                                           01 
01060030014000058000033000025000000000000000000LIBUREP35 US Representative, DIST 35                              Cory W. Bruner                        PRECINCT 302                                           01 
01060030015000002000001000001000000000000000000LIBUREP35 US Representative, DIST 35                              Cory W. Bruner                        PRECINCT 303                                           01 
01060030016000024000014000007000002000001000000LIBUREP35 US Representative, DIST 35                              Cory W. Bruner                        PRECINCT 304                                           01 
01060040007000006000005000001000000000000000000GRNUREP35 US Representative, DIST 35                              kat swift                             PRECINCT 201                                           01 
01060040008000000000000000000000000000000000000GRNUREP35 US Representative, DIST 35                              kat swift                             PRECINCT 202                                           01 
01060040013000003000001000001000001000000000000GRNUREP35 US Representative, DIST 35                              kat swift                             PRECINCT 301                                           01 
01060040014000010000006000003000001000000000000GRNUREP35 US Representative, DIST 35                              kat swift                             PRECINCT 302                                           01 
01060040015000004000002000002000000000000000000GRNUREP35 US Representative, DIST 35                              kat swift                             PRECINCT 303                                           01 
01060040016000006000003000003000000000000000000GRNUREP35 US Representative, DIST 35                              kat swift                             PRECINCT 304                                           01 
01070010001001190000435000618000137000000000000REP       Governor                                                Greg Abbott                           PRECINCT 101                                           01 
01070010002001199000393000726000079000001000000REP       Governor                                                Greg Abbott                           PRECINCT 102                                           01 
01070010003001253000548000628000077000000000000REP       Governor                                                Greg Abbott                           PRECINCT 103                                           01 
01070010004000683000204000422000057000000000000REP       Governor                                                Greg Abbott                           PRECINCT 104                                           01 
01070010005001465000595000708000162000000000000REP       Governor                                                Greg Abbott                           PRECINCT 105                                           01 
01070010006001946000659001138000149000000000000REP       Governor                                                Greg Abbott                           PRECINCT 106                                           01 
01070010007000956000498000361000093000004000000REP       Governor                                                Greg Abbott                           PRECINCT 201                                           01 
01070010008000260000111000113000036000000000000REP       Governor                                                Greg Abbott                           PRECINCT 202                                           01 
01070010009001497000651000719000127000000000000REP       Governor                                                Greg Abbott                           PRECINCT 203                                           01 
01070010010001791000666000974000151000000000000REP       Governor                                                Greg Abbott                           PRECINCT 204                                           01 
01070010011002358000719001478000161000000000000REP       Governor                                                Greg Abbott                           PRECINCT 205                                           01 
01070010012001567000661000803000103000000000000REP       Governor                                                Greg Abbott                           PRECINCT 206                                           01 
01070010013000424000221000160000043000000000000REP       Governor                                                Greg Abbott                           PRECINCT 301                                           01 
01070010014001164000507000555000102000000000000REP       Governor                                                Greg Abbott                           PRECINCT 302                                           01 
01070010015000108000049000046000013000000000000REP       Governor                                                Greg Abbott                           PRECINCT 303                                           01 
01070010016000721000326000308000084000003000000REP       Governor                                                Greg Abbott                           PRECINCT 304                                           01 
01070010017000297000158000122000016000001000000REP       Governor                                                Greg Abbott                           PRECINCT 305                                           01 
01070010018000708000269000360000079000000000000REP       Governor                                                Greg Abbott                           PRECINCT 401                                           01 
01070010019001399000572000679000148000000000000REP       Governor                                                Greg Abbott                           PRECINCT 402                                           01 
01070010020001492000566000799000127000000000000REP       Governor                                                Greg Abbott                           PRECINCT 403                                           01 
01070010021002132000923001051000155000003000000REP       Governor                                                Greg Abbott                           PRECINCT 404                                           01 
01070010022000924000388000446000090000000000000REP       Governor                                                Greg Abbott                           PRECINCT 405                                           01 
01070010023001108000506000452000148000002000000REP       Governor                                                Greg Abbott                           PRECINCT 406                                           01 
01070020001000420000174000194000052000000000000DEM       Governor                                                Wendy R. Davis                        PRECINCT 101                                           01 
01070020002000214000078000110000026000000000000DEM       Governor                                                Wendy R. Davis                        PRECINCT 102                                           01 
01070020003000275000119000128000028000000000000DEM       Governor                                                Wendy R. Davis                        PRECINCT 103                                           01 
01070020004000206000067000110000029000000000000DEM       Governor                                                Wendy R. Davis                        PRECINCT 104                                           01 
01070020005000435000193000173000069000000000000DEM       Governor                                                Wendy R. Davis                        PRECINCT 105                                           01 
01070020006000375000135000202000038000000000000DEM       Governor                                                Wendy R. Davis                        PRECINCT 106                                           01 
01070020007000313000157000125000031000000000000DEM       Governor                                                Wendy R. Davis                        PRECINCT 201                                           01 
01070020008000082000035000035000012000000000000DEM       Governor                                                Wendy R. Davis                        PRECINCT 202                                           01 
01070020009000282000105000145000032000000000000DEM       Governor                                                Wendy R. Davis                        PRECINCT 203                                           01 
01070020010000385000151000173000061000000000000DEM       Governor                                                Wendy R. Davis                        PRECINCT 204                                           01 
01070020011000612000220000344000048000000000000DEM       Governor                                                Wendy R. Davis                        PRECINCT 205                                           01 
01070020012000297000118000149000030000000000000DEM       Governor                                                Wendy R. Davis                        PRECINCT 206                                           01 
01070020013000355000172000114000069000000000000DEM       Governor                                                Wendy R. Davis                        PRECINCT 301                                           01 
01070020014000536000241000223000072000000000000DEM       Governor                                                Wendy R. Davis                        PRECINCT 302                                           01 
01070020015000165000097000049000019000000000000DEM       Governor                                                Wendy R. Davis                        PRECINCT 303                                           01 
01070020016000331000163000126000041000001000000DEM       Governor                                                Wendy R. Davis                        PRECINCT 304                                           01 
01070020017000096000043000036000017000000000000DEM       Governor                                                Wendy R. Davis                        PRECINCT 305                                           01 
01070020018000212000075000093000044000000000000DEM       Governor                                                Wendy R. Davis                        PRECINCT 401                                           01 
01070020019000417000138000220000059000000000000DEM       Governor                                                Wendy R. Davis                        PRECINCT 402                                           01 
01070020020000331000137000153000041000000000000DEM       Governor                                                Wendy R. Davis                        PRECINCT 403                                           01 
01070020021000470000202000221000047000000000000DEM       Governor                                                Wendy R. Davis                        PRECINCT 404                                           01 
01070020022000267000115000112000040000000000000DEM       Governor                                                Wendy R. Davis                        PRECINCT 405                                           01 
01070020023000352000130000156000066000000000000DEM       Governor                                                Wendy R. Davis                        PRECINCT 406                                           01 
01070030001000035000017000013000005000000000000LIB       Governor                                                Kathie Glass                          PRECINCT 101                                           01 
01070030002000017000008000008000001000000000000LIB       Governor                                                Kathie Glass                          PRECINCT 102                                           01 
01070030003000015000007000007000001000000000000LIB       Governor                                                Kathie Glass                          PRECINCT 103                                           01 
01070030004000015000008000006000001000000000000LIB       Governor                                                Kathie Glass                          PRECINCT 104                                           01 
01070030005000041000012000025000004000000000000LIB       Governor                                                Kathie Glass                          PRECINCT 105                                           01 
01070030006000028000015000011000002000000000000LIB       Governor                                                Kathie Glass                          PRECINCT 106                                           01 
01070030007000021000012000009000000000000000000LIB       Governor                                                Kathie Glass                          PRECINCT 201                                           01 
01070030008000003000003000000000000000000000000LIB       Governor                                                Kathie Glass                          PRECINCT 202                                           01 
01070030009000019000010000009000000000000000000LIB       Governor                                                Kathie Glass                          PRECINCT 203                                           01 
01070030010000024000006000012000006000000000000LIB       Governor                                                Kathie Glass                          PRECINCT 204                                           01 
01070030011000025000012000012000001000000000000LIB       Governor                                                Kathie Glass                          PRECINCT 205                                           01 
01070030012000029000016000012000001000000000000LIB       Governor                                                Kathie Glass                          PRECINCT 206                                           01 
01070030013000017000009000008000000000000000000LIB       Governor                                                Kathie Glass                          PRECINCT 301                                           01 
01070030014000036000025000011000000000000000000LIB       Governor                                                Kathie Glass                          PRECINCT 302                                           01 
01070030015000005000003000002000000000000000000LIB       Governor                                                Kathie Glass                          PRECINCT 303                                           01 
01070030016000020000015000004000000000001000000LIB       Governor                                                Kathie Glass                          PRECINCT 304                                           01 
01070030017000011000010000001000000000000000000LIB       Governor                                                Kathie Glass                          PRECINCT 305                                           01 
01070030018000017000009000007000001000000000000LIB       Governor                                                Kathie Glass                          PRECINCT 401                                           01 
01070030019000029000014000013000002000000000000LIB       Governor                                                Kathie Glass                          PRECINCT 402                                           01 
01070030020000029000016000011000002000000000000LIB       Governor                                                Kathie Glass                          PRECINCT 403                                           01 
01070030021000032000016000014000002000000000000LIB       Governor                                                Kathie Glass                          PRECINCT 404                                           01 
01070030022000031000014000016000001000000000000LIB       Governor                                                Kathie Glass                          PRECINCT 405                                           01 
01070030023000021000012000007000002000000000000LIB       Governor                                                Kathie Glass                          PRECINCT 406                                           01 
01070040001000005000005000000000000000000000000GRN       Governor                                                Brandon Parmer                        PRECINCT 101                                           01 
01070040002000002000001000001000000000000000000GRN       Governor                                                Brandon Parmer                        PRECINCT 102                                           01 
01070040003000002000002000000000000000000000000GRN       Governor                                                Brandon Parmer                        PRECINCT 103                                           01 
01070040004000003000000000003000000000000000000GRN       Governor                                                Brandon Parmer                        PRECINCT 104                                           01 
01070040005000008000007000000000001000000000000GRN       Governor                                                Brandon Parmer                        PRECINCT 105                                           01 
01070040006000006000004000001000001000000000000GRN       Governor                                                Brandon Parmer                        PRECINCT 106                                           01 
01070040007000002000001000000000001000000000000GRN       Governor                                                Brandon Parmer                        PRECINCT 201                                           01 
01070040008000003000003000000000000000000000000GRN       Governor                                                Brandon Parmer                        PRECINCT 202                                           01 
01070040009000001000001000000000000000000000000GRN       Governor                                                Brandon Parmer                        PRECINCT 203                                           01 
01070040010000007000003000004000000000000000000GRN       Governor                                                Brandon Parmer                        PRECINCT 204                                           01 
01070040011000005000002000002000001000000000000GRN       Governor                                                Brandon Parmer                        PRECINCT 205                                           01 
01070040012000005000000000005000000000000000000GRN       Governor                                                Brandon Parmer                        PRECINCT 206                                           01 
01070040013000006000004000001000001000000000000GRN       Governor                                                Brandon Parmer                        PRECINCT 301                                           01 
01070040014000011000005000006000000000000000000GRN       Governor                                                Brandon Parmer                        PRECINCT 302                                           01 
01070040015000000000000000000000000000000000000GRN       Governor                                                Brandon Parmer                        PRECINCT 303                                           01 
01070040016000010000007000001000002000000000000GRN       Governor                                                Brandon Parmer                        PRECINCT 304                                           01 
01070040017000001000000000001000000000000000000GRN       Governor                                                Brandon Parmer                        PRECINCT 305                                           01 
01070040018000004000003000001000000000000000000GRN       Governor                                                Brandon Parmer                        PRECINCT 401                                           01 
01070040019000006000004000001000001000000000000GRN       Governor                                                Brandon Parmer                        PRECINCT 402                                           01 
01070040020000003000001000002000000000000000000GRN       Governor                                                Brandon Parmer                        PRECINCT 403                                           01 
01070040021000006000004000002000000000000000000GRN       Governor                                                Brandon Parmer                        PRECINCT 404                                           01 
01070040022000007000003000004000000000000000000GRN       Governor                                                Brandon Parmer                        PRECINCT 405                                           01 
01070040023000003000001000000000002000000000000GRN       Governor                                                Brandon Parmer                        PRECINCT 406                                           01 
01070050001000001000001000000000000000000000000NON       Governor                                                WRITE-IN                              PRECINCT 101                                           01 
01070050002000000000000000000000000000000000000NON       Governor                                                WRITE-IN                              PRECINCT 102                                           01 
01070050003000000000000000000000000000000000000NON       Governor                                                WRITE-IN                              PRECINCT 103                                           01 
01070050004000001000000000001000000000000000000NON       Governor                                                WRITE-IN                              PRECINCT 104                                           01 
01070050005000002000000000002000000000000000000NON       Governor                                                WRITE-IN                              PRECINCT 105                                           01 
01070050006000000000000000000000000000000000000NON       Governor                                                WRITE-IN                              PRECINCT 106                                           01 
01070050007000001000001000000000000000000000000NON       Governor                                                WRITE-IN                              PRECINCT 201                                           01 
01070050008000000000000000000000000000000000000NON       Governor                                                WRITE-IN                              PRECINCT 202                                           01 
01070050009000000000000000000000000000000000000NON       Governor                                                WRITE-IN                              PRECINCT 203                                           01 
01070050010000001000000000001000000000000000000NON       Governor                                                WRITE-IN                              PRECINCT 204                                           01 
01070050011000005000002000003000000000000000000NON       Governor                                                WRITE-IN                              PRECINCT 205                                           01 
01070050012000000000000000000000000000000000000NON       Governor                                                WRITE-IN                              PRECINCT 206                                           01 
01070050013000001000000000000000001000000000000NON       Governor                                                WRITE-IN                              PRECINCT 301                                           01 
01070050014000001000000000000000001000000000000NON       Governor                                                WRITE-IN                              PRECINCT 302                                           01 
01070050015000000000000000000000000000000000000NON       Governor                                                WRITE-IN                              PRECINCT 303                                           01 
01070050016000000000000000000000000000000000000NON       Governor                                                WRITE-IN                              PRECINCT 304                                           01 
01070050017000001000000000001000000000000000000NON       Governor                                                WRITE-IN                              PRECINCT 305                                           01 
01070050018000000000000000000000000000000000000NON       Governor                                                WRITE-IN                              PRECINCT 401                                           01 
01070050019000002000002000000000000000000000000NON       Governor                                                WRITE-IN                              PRECINCT 402                                           01 
01070050020000002000000000002000000000000000000NON       Governor                                                WRITE-IN                              PRECINCT 403                                           01 
01070050021000003000002000001000000000000000000NON       Governor                                                WRITE-IN                              PRECINCT 404                                           01 
01070050022000000000000000000000000000000000000NON       Governor                                                WRITE-IN                              PRECINCT 405                                           01 
01070050023000003000001000001000001000000000000NON       Governor                                                WRITE-IN                              PRECINCT 406                                           01 
01080010001001144000415000595000134000000000000REP       Lieutenant Governor                                     Dan Patrick                           PRECINCT 101                                           01 
01080010002001168000384000706000077000001000000REP       Lieutenant Governor                                     Dan Patrick                           PRECINCT 102                                           01 
01080010003001223000534000616000073000000000000REP       Lieutenant Governor                                     Dan Patrick                           PRECINCT 103                                           01 
01080010004000661000194000409000058000000000000REP       Lieutenant Governor                                     Dan Patrick                           PRECINCT 104                                           01 
01080010005001474000596000715000163000000000000REP       Lieutenant Governor                                     Dan Patrick                           PRECINCT 105                                           01 
01080010006001914000650001109000155000000000000REP       Lieutenant Governor                                     Dan Patrick                           PRECINCT 106                                           01 
01080010007000921000473000356000088000004000000REP       Lieutenant Governor                                     Dan Patrick                           PRECINCT 201                                           01 
01080010008000252000109000112000031000000000000REP       Lieutenant Governor                                     Dan Patrick                           PRECINCT 202                                           01 
01080010009001462000631000706000125000000000000REP       Lieutenant Governor                                     Dan Patrick                           PRECINCT 203                                           01 
01080010010001735000635000948000152000000000000REP       Lieutenant Governor                                     Dan Patrick                           PRECINCT 204                                           01 
01080010011002287000685001445000157000000000000REP       Lieutenant Governor                                     Dan Patrick                           PRECINCT 205                                           01 
01080010012001515000637000773000105000000000000REP       Lieutenant Governor                                     Dan Patrick                           PRECINCT 206                                           01 
01080010013000415000218000155000042000000000000REP       Lieutenant Governor                                     Dan Patrick                           PRECINCT 301                                           01 
01080010014001134000489000543000102000000000000REP       Lieutenant Governor                                     Dan Patrick                           PRECINCT 302                                           01 
01080010015000104000048000043000013000000000000REP       Lieutenant Governor                                     Dan Patrick                           PRECINCT 303                                           01 
01080010016000711000318000310000081000002000000REP       Lieutenant Governor                                     Dan Patrick                           PRECINCT 304                                           01 
01080010017000291000157000117000016000001000000REP       Lieutenant Governor                                     Dan Patrick                           PRECINCT 305                                           01 
01080010018000672000259000338000075000000000000REP       Lieutenant Governor                                     Dan Patrick                           PRECINCT 401                                           01 
01080010019001364000554000664000146000000000000REP       Lieutenant Governor                                     Dan Patrick                           PRECINCT 402                                           01 
01080010020001454000550000778000126000000000000REP       Lieutenant Governor                                     Dan Patrick                           PRECINCT 403                                           01 
01080010021002064000887001016000158000003000000REP       Lieutenant Governor                                     Dan Patrick                           PRECINCT 404                                           01 
01080010022000896000373000435000088000000000000REP       Lieutenant Governor                                     Dan Patrick                           PRECINCT 405                                           01 
01080010023001078000477000452000147000002000000REP       Lieutenant Governor                                     Dan Patrick                           PRECINCT 406                                           01 
01080020001000448000188000203000057000000000000DEM       Lieutenant Governor                                     Leticia Van de Putte                  PRECINCT 101                                           01 
01080020002000227000080000122000025000000000000DEM       Lieutenant Governor                                     Leticia Van de Putte                  PRECINCT 102                                           01 
01080020003000284000125000131000028000000000000DEM       Lieutenant Governor                                     Leticia Van de Putte                  PRECINCT 103                                           01 
01080020004000217000070000118000029000000000000DEM       Lieutenant Governor                                     Leticia Van de Putte                  PRECINCT 104                                           01 
01080020005000422000186000170000066000000000000DEM       Lieutenant Governor                                     Leticia Van de Putte                  PRECINCT 105                                           01 
01080020006000391000134000224000033000000000000DEM       Lieutenant Governor                                     Leticia Van de Putte                  PRECINCT 106                                           01 
01080020007000322000162000127000033000000000000DEM       Lieutenant Governor                                     Leticia Van de Putte                  PRECINCT 201                                           01 
