00940014059000150NONCTYCONVCity of Converse Council, Place 2                       Robert E. Raney                                                                              01 
00940014067000085NONCTYCONVCity of Converse Council, Place 2                       Robert E. Raney                                                                              01 
00940014114000004NONCTYCONVCity of Converse Council, Place 2                       Robert E. Raney                                                                              01 
00940014130000019NONCTYCONVCity of Converse Council, Place 2                       Robert E. Raney                                                                              01 
00940014132000245NONCTYCONVCity of Converse Council, Place 2                       Robert E. Raney                                                                              01 
00940014162000123NONCTYCONVCity of Converse Council, Place 2                       Robert E. Raney                                                                              01 
00940014187000000NONCTYCONVCity of Converse Council, Place 2                       Robert E. Raney                                                                              01 
00940014191000000NONCTYCONVCity of Converse Council, Place 2                       Robert E. Raney                                                                              01 
00940014196000000NONCTYCONVCity of Converse Council, Place 2                       Robert E. Raney                                                                              01 
00940014197000000NONCTYCONVCity of Converse Council, Place 2                       Robert E. Raney                                                                              01 
00940014201000002NONCTYCONVCity of Converse Council, Place 2                       Robert E. Raney                                                                              01 
00940024059000143NONCTYCONVCity of Converse Council, Place 2                       Renee Paschall                                                                               01 
00940024067000097NONCTYCONVCity of Converse Council, Place 2                       Renee Paschall                                                                               01 
00940024114000003NONCTYCONVCity of Converse Council, Place 2                       Renee Paschall                                                                               01 
00940024130000026NONCTYCONVCity of Converse Council, Place 2                       Renee Paschall                                                                               01 
00940024132000356NONCTYCONVCity of Converse Council, Place 2                       Renee Paschall                                                                               01 
00940024162000158NONCTYCONVCity of Converse Council, Place 2                       Renee Paschall                                                                               01 
00940024187000000NONCTYCONVCity of Converse Council, Place 2                       Renee Paschall                                                                               01 
00940024191000000NONCTYCONVCity of Converse Council, Place 2                       Renee Paschall                                                                               01 
00940024196000000NONCTYCONVCity of Converse Council, Place 2                       Renee Paschall                                                                               01 
00940024197000000NONCTYCONVCity of Converse Council, Place 2                       Renee Paschall                                                                               01 
00940024201000002NONCTYCONVCity of Converse Council, Place 2                       Renee Paschall                                                                               01 
00940034059000000   CTYCONVCity of Converse Council, Place 2                       OVER VOTES                                                                                   01 
00940034067000000   CTYCONVCity of Converse Council, Place 2                       OVER VOTES                                                                                   01 
00940034114000000   CTYCONVCity of Converse Council, Place 2                       OVER VOTES                                                                                   01 
00940034130000000   CTYCONVCity of Converse Council, Place 2                       OVER VOTES                                                                                   01 
00940034132000000   CTYCONVCity of Converse Council, Place 2                       OVER VOTES                                                                                   01 
00940034162000000   CTYCONVCity of Converse Council, Place 2                       OVER VOTES                                                                                   01 
00940034187000000   CTYCONVCity of Converse Council, Place 2                       OVER VOTES                                                                                   01 
00940034191000000   CTYCONVCity of Converse Council, Place 2                       OVER VOTES                                                                                   01 
00940034196000000   CTYCONVCity of Converse Council, Place 2                       OVER VOTES                                                                                   01 
00940034197000000   CTYCONVCity of Converse Council, Place 2                       OVER VOTES                                                                                   01 
00940034201000000   CTYCONVCity of Converse Council, Place 2                       OVER VOTES                                                                                   01 
00940044059000083   CTYCONVCity of Converse Council, Place 2                       UNDER VOTES                                                                                  01 
00940044067000043   CTYCONVCity of Converse Council, Place 2                       UNDER VOTES                                                                                  01 
00940044114000000   CTYCONVCity of Converse Council, Place 2                       UNDER VOTES                                                                                  01 
00940044130000017   CTYCONVCity of Converse Council, Place 2                       UNDER VOTES                                                                                  01 
00940044132000205   CTYCONVCity of Converse Council, Place 2                       UNDER VOTES                                                                                  01 
00940044162000089   CTYCONVCity of Converse Council, Place 2                       UNDER VOTES                                                                                  01 
00940044187000000   CTYCONVCity of Converse Council, Place 2                       UNDER VOTES                                                                                  01 
00940044191000000   CTYCONVCity of Converse Council, Place 2                       UNDER VOTES                                                                                  01 
00940044196000000   CTYCONVCity of Converse Council, Place 2                       UNDER VOTES                                                                                  01 
00940044197000000   CTYCONVCity of Converse Council, Place 2                       UNDER VOTES                                                                                  01 
00940044201000007   CTYCONVCity of Converse Council, Place 2                       UNDER VOTES                                                                                  01 
00950014059000045NONCTYCONVCity of Converse Council, Place 4                       Joseph A. Guastella                                                                          01 
00950014067000032NONCTYCONVCity of Converse Council, Place 4                       Joseph A. Guastella                                                                          01 
00950014114000001NONCTYCONVCity of Converse Council, Place 4                       Joseph A. Guastella                                                                          01 
00950014130000011NONCTYCONVCity of Converse Council, Place 4                       Joseph A. Guastella                                                                          01 
00950014132000086NONCTYCONVCity of Converse Council, Place 4                       Joseph A. Guastella                                                                          01 
00950014162000081NONCTYCONVCity of Converse Council, Place 4                       Joseph A. Guastella                                                                          01 
00950014187000000NONCTYCONVCity of Converse Council, Place 4                       Joseph A. Guastella                                                                          01 
00950014191000000NONCTYCONVCity of Converse Council, Place 4                       Joseph A. Guastella                                                                          01 
00950014196000000NONCTYCONVCity of Converse Council, Place 4                       Joseph A. Guastella                                                                          01 
00950014197000000NONCTYCONVCity of Converse Council, Place 4                       Joseph A. Guastella                                                                          01 
00950014201000002NONCTYCONVCity of Converse Council, Place 4                       Joseph A. Guastella                                                                          01 
00950024059000089NONCTYCONVCity of Converse Council, Place 4                       Ray Rodriguez                                                                                01 
00950024067000055NONCTYCONVCity of Converse Council, Place 4                       Ray Rodriguez                                                                                01 
00950024114000003NONCTYCONVCity of Converse Council, Place 4                       Ray Rodriguez                                                                                01 
00950024130000016NONCTYCONVCity of Converse Council, Place 4                       Ray Rodriguez                                                                                01 
00950024132000218NONCTYCONVCity of Converse Council, Place 4                       Ray Rodriguez                                                                                01 
00950024162000088NONCTYCONVCity of Converse Council, Place 4                       Ray Rodriguez                                                                                01 
00950024187000000NONCTYCONVCity of Converse Council, Place 4                       Ray Rodriguez                                                                                01 
00950024191000000NONCTYCONVCity of Converse Council, Place 4                       Ray Rodriguez                                                                                01 
00950024196000000NONCTYCONVCity of Converse Council, Place 4                       Ray Rodriguez                                                                                01 
00950024197000000NONCTYCONVCity of Converse Council, Place 4                       Ray Rodriguez                                                                                01 
00950024201000001NONCTYCONVCity of Converse Council, Place 4                       Ray Rodriguez                                                                                01 
00950034059000156NONCTYCONVCity of Converse Council, Place 4                       Jon Lindgren                                                                                 01 
00950034067000094NONCTYCONVCity of Converse Council, Place 4                       Jon Lindgren                                                                                 01 
00950034114000003NONCTYCONVCity of Converse Council, Place 4                       Jon Lindgren                                                                                 01 
00950034130000015NONCTYCONVCity of Converse Council, Place 4                       Jon Lindgren                                                                                 01 
00950034132000290NONCTYCONVCity of Converse Council, Place 4                       Jon Lindgren                                                                                 01 
00950034162000117NONCTYCONVCity of Converse Council, Place 4                       Jon Lindgren                                                                                 01 
00950034187000000NONCTYCONVCity of Converse Council, Place 4                       Jon Lindgren                                                                                 01 
00950034191000000NONCTYCONVCity of Converse Council, Place 4                       Jon Lindgren                                                                                 01 
00950034196000000NONCTYCONVCity of Converse Council, Place 4                       Jon Lindgren                                                                                 01 
00950034197000000NONCTYCONVCity of Converse Council, Place 4                       Jon Lindgren                                                                                 01 
00950034201000001NONCTYCONVCity of Converse Council, Place 4                       Jon Lindgren                                                                                 01 
00950044059000000   CTYCONVCity of Converse Council, Place 4                       OVER VOTES                                                                                   01 
00950044067000000   CTYCONVCity of Converse Council, Place 4                       OVER VOTES                                                                                   01 
00950044114000000   CTYCONVCity of Converse Council, Place 4                       OVER VOTES                                                                                   01 
00950044130000000   CTYCONVCity of Converse Council, Place 4                       OVER VOTES                                                                                   01 
00950044132000000   CTYCONVCity of Converse Council, Place 4                       OVER VOTES                                                                                   01 
00950044162000000   CTYCONVCity of Converse Council, Place 4                       OVER VOTES                                                                                   01 
00950044187000000   CTYCONVCity of Converse Council, Place 4                       OVER VOTES                                                                                   01 
00950044191000000   CTYCONVCity of Converse Council, Place 4                       OVER VOTES                                                                                   01 
00950044196000000   CTYCONVCity of Converse Council, Place 4                       OVER VOTES                                                                                   01 
00950044197000000   CTYCONVCity of Converse Council, Place 4                       OVER VOTES                                                                                   01 
00950044201000000   CTYCONVCity of Converse Council, Place 4                       OVER VOTES                                                                                   01 
00950054059000086   CTYCONVCity of Converse Council, Place 4                       UNDER VOTES                                                                                  01 
00950054067000044   CTYCONVCity of Converse Council, Place 4                       UNDER VOTES                                                                                  01 
00950054114000000   CTYCONVCity of Converse Council, Place 4                       UNDER VOTES                                                                                  01 
00950054130000020   CTYCONVCity of Converse Council, Place 4                       UNDER VOTES                                                                                  01 
00950054132000212   CTYCONVCity of Converse Council, Place 4                       UNDER VOTES                                                                                  01 
00950054162000084   CTYCONVCity of Converse Council, Place 4                       UNDER VOTES                                                                                  01 
00950054187000000   CTYCONVCity of Converse Council, Place 4                       UNDER VOTES                                                                                  01 
00950054191000000   CTYCONVCity of Converse Council, Place 4                       UNDER VOTES                                                                                  01 
00950054196000000   CTYCONVCity of Converse Council, Place 4                       UNDER VOTES                                                                                  01 
00950054197000000   CTYCONVCity of Converse Council, Place 4                       UNDER VOTES                                                                                  01 
00950054201000007   CTYCONVCity of Converse Council, Place 4                       UNDER VOTES                                                                                  01 
00960014059000092NONCTYCONVCity of Converse Council, Place 6                       John Shadron                                                                                 01 
00960014067000055NONCTYCONVCity of Converse Council, Place 6                       John Shadron                                                                                 01 
00960014114000000NONCTYCONVCity of Converse Council, Place 6                       John Shadron                                                                                 01 
00960014130000011NONCTYCONVCity of Converse Council, Place 6                       John Shadron                                                                                 01 
00960014132000149NONCTYCONVCity of Converse Council, Place 6                       John Shadron                                                                                 01 
00960014162000080NONCTYCONVCity of Converse Council, Place 6                       John Shadron                                                                                 01 
00960014187000000NONCTYCONVCity of Converse Council, Place 6                       John Shadron                                                                                 01 
00960014191000000NONCTYCONVCity of Converse Council, Place 6                       John Shadron                                                                                 01 
00960014196000000NONCTYCONVCity of Converse Council, Place 6                       John Shadron                                                                                 01 
00960014197000000NONCTYCONVCity of Converse Council, Place 6                       John Shadron                                                                                 01 
00960014201000001NONCTYCONVCity of Converse Council, Place 6                       John Shadron                                                                                 01 
00960024059000150NONCTYCONVCity of Converse Council, Place 6                       Steve Brown                                                                                  01 
00960024067000085NONCTYCONVCity of Converse Council, Place 6                       Steve Brown                                                                                  01 
00960024114000004NONCTYCONVCity of Converse Council, Place 6                       Steve Brown                                                                                  01 
00960024130000021NONCTYCONVCity of Converse Council, Place 6                       Steve Brown                                                                                  01 
00960024132000312NONCTYCONVCity of Converse Council, Place 6                       Steve Brown                                                                                  01 
00960024162000158NONCTYCONVCity of Converse Council, Place 6                       Steve Brown                                                                                  01 
00960024187000000NONCTYCONVCity of Converse Council, Place 6                       Steve Brown                                                                                  01 
00960024191000000NONCTYCONVCity of Converse Council, Place 6                       Steve Brown                                                                                  01 
00960024196000000NONCTYCONVCity of Converse Council, Place 6                       Steve Brown                                                                                  01 
00960024197000000NONCTYCONVCity of Converse Council, Place 6                       Steve Brown                                                                                  01 
00960024201000002NONCTYCONVCity of Converse Council, Place 6                       Steve Brown                                                                                  01 
00960034059000054NONCTYCONVCity of Converse Council, Place 6                       George Q. Reyes                                                                              01 
00960034067000042NONCTYCONVCity of Converse Council, Place 6                       George Q. Reyes                                                                              01 
00960034114000003NONCTYCONVCity of Converse Council, Place 6                       George Q. Reyes                                                                              01 
00960034130000014NONCTYCONVCity of Converse Council, Place 6                       George Q. Reyes                                                                              01 
00960034132000135NONCTYCONVCity of Converse Council, Place 6                       George Q. Reyes                                                                              01 
00960034162000053NONCTYCONVCity of Converse Council, Place 6                       George Q. Reyes                                                                              01 
00960034187000000NONCTYCONVCity of Converse Council, Place 6                       George Q. Reyes                                                                              01 
00960034191000000NONCTYCONVCity of Converse Council, Place 6                       George Q. Reyes                                                                              01 
00960034196000000NONCTYCONVCity of Converse Council, Place 6                       George Q. Reyes                                                                              01 
00960034197000000NONCTYCONVCity of Converse Council, Place 6                       George Q. Reyes                                                                              01 
00960034201000001NONCTYCONVCity of Converse Council, Place 6                       George Q. Reyes                                                                              01 
00960044059000000   CTYCONVCity of Converse Council, Place 6                       OVER VOTES                                                                                   01 
00960044067000000   CTYCONVCity of Converse Council, Place 6                       OVER VOTES                                                                                   01 
00960044114000000   CTYCONVCity of Converse Council, Place 6                       OVER VOTES                                                                                   01 
00960044130000000   CTYCONVCity of Converse Council, Place 6                       OVER VOTES                                                                                   01 
00960044132000000   CTYCONVCity of Converse Council, Place 6                       OVER VOTES                                                                                   01 
00960044162000000   CTYCONVCity of Converse Council, Place 6                       OVER VOTES                                                                                   01 
00960044187000000   CTYCONVCity of Converse Council, Place 6                       OVER VOTES                                                                                   01 
00960044191000000   CTYCONVCity of Converse Council, Place 6                       OVER VOTES                                                                                   01 
00960044196000000   CTYCONVCity of Converse Council, Place 6                       OVER VOTES                                                                                   01 
00960044197000000   CTYCONVCity of Converse Council, Place 6                       OVER VOTES                                                                                   01 
00960044201000000   CTYCONVCity of Converse Council, Place 6                       OVER VOTES                                                                                   01 
00960054059000080   CTYCONVCity of Converse Council, Place 6                       UNDER VOTES                                                                                  01 
00960054067000043   CTYCONVCity of Converse Council, Place 6                       UNDER VOTES                                                                                  01 
00960054114000000   CTYCONVCity of Converse Council, Place 6                       UNDER VOTES                                                                                  01 
00960054130000016   CTYCONVCity of Converse Council, Place 6                       UNDER VOTES                                                                                  01 
00960054132000210   CTYCONVCity of Converse Council, Place 6                       UNDER VOTES                                                                                  01 
00960054162000079   CTYCONVCity of Converse Council, Place 6                       UNDER VOTES                                                                                  01 
00960054187000000   CTYCONVCity of Converse Council, Place 6                       UNDER VOTES                                                                                  01 
00960054191000000   CTYCONVCity of Converse Council, Place 6                       UNDER VOTES                                                                                  01 
00960054196000000   CTYCONVCity of Converse Council, Place 6                       UNDER VOTES                                                                                  01 
00960054197000000   CTYCONVCity of Converse Council, Place 6                       UNDER VOTES                                                                                  01 
00960054201000007   CTYCONVCity of Converse Council, Place 6                       UNDER VOTES                                                                                  01 
