01040010001000253REP       United States Senator                                   John Cornyn                           Precinct 1                                             01 
01040010002000197REP       United States Senator                                   John Cornyn                           Precinct 2                                             01 
01040010003000081REP       United States Senator                                   John Cornyn                           Precinct 3                                             01 
01040010004000133REP       United States Senator                                   John Cornyn                           Precinct 4                                             01 
01040020001000025DEM       United States Senator                                   David M. Alameel                      Precinct 1                                             01 
01040020002000034DEM       United States Senator                                   David M. Alameel                      Precinct 2                                             01 
01040020003000044DEM       United States Senator                                   David M. Alameel                      Precinct 3                                             01 
01040020004000017DEM       United States Senator                                   David M. Alameel                      Precinct 4                                             01 
01040030001000009LIB       United States Senator                                   Rebecca Paddock                       Precinct 1                                             01 
01040030002000002LIB       United States Senator                                   Rebecca Paddock                       Precinct 2                                             01 
01040030003000004LIB       United States Senator                                   Rebecca Paddock                       Precinct 3                                             01 
01040030004000006LIB       United States Senator                                   Rebecca Paddock                       Precinct 4                                             01 
01040040001000003GRN       United States Senator                                   Emily "Spicybrown" Sanchez            Precinct 1                                             01 
01040040002000005GRN       United States Senator                                   Emily "Spicybrown" Sanchez            Precinct 2                                             01 
01040040003000004GRN       United States Senator                                   Emily "Spicybrown" Sanchez            Precinct 3                                             01 
01040040004000003GRN       United States Senator                                   Emily "Spicybrown" Sanchez            Precinct 4                                             01 
01040050001000001NON       United States Senator                                   WRITE-IN                              Precinct 1                                             01 
01040050002000000NON       United States Senator                                   WRITE-IN                              Precinct 2                                             01 
01040050003000001NON       United States Senator                                   WRITE-IN                              Precinct 3                                             01 
01040050004000000NON       United States Senator                                   WRITE-IN                              Precinct 4                                             01 
01040060001000000          United States Senator                                   OVER VOTES                            Precinct 1                                             01 
01040060002000000          United States Senator                                   OVER VOTES                            Precinct 2                                             01 
01040060003000000          United States Senator                                   OVER VOTES                            Precinct 3                                             01 
01040060004000000          United States Senator                                   OVER VOTES                            Precinct 4                                             01 
01040070001000014          United States Senator                                   UNDER VOTES                           Precinct 1                                             01 
01040070002000013          United States Senator                                   UNDER VOTES                           Precinct 2                                             01 
01040070003000015          United States Senator                                   UNDER VOTES                           Precinct 3                                             01 
01040070004000006          United States Senator                                   UNDER VOTES                           Precinct 4                                             01 
01050010001000238REP       United States Representative, Dist 23                   Will Hurd                             Precinct 1                                             01 
01050010002000171REP       United States Representative, Dist 23                   Will Hurd                             Precinct 2                                             01 
01050010003000071REP       United States Representative, Dist 23                   Will Hurd                             Precinct 3                                             01 
01050010004000124REP       United States Representative, Dist 23                   Will Hurd                             Precinct 4                                             01 
01050020001000056DEM       United States Representative, Dist 23                   Pete P. Gallego                       Precinct 1                                             01 
01050020002000061DEM       United States Representative, Dist 23                   Pete P. Gallego                       Precinct 2                                             01 
01050020003000063DEM       United States Representative, Dist 23                   Pete P. Gallego                       Precinct 3                                             01 
01050020004000031DEM       United States Representative, Dist 23                   Pete P. Gallego                       Precinct 4                                             01 
01050030001000001LIB       United States Representative, Dist 23                   Ruben Corvalan                        Precinct 1                                             01 
01050030002000003LIB       United States Representative, Dist 23                   Ruben Corvalan                        Precinct 2                                             01 
01050030003000003LIB       United States Representative, Dist 23                   Ruben Corvalan                        Precinct 3                                             01 
01050030004000004LIB       United States Representative, Dist 23                   Ruben Corvalan                        Precinct 4                                             01 
01050040001000000          United States Representative, Dist 23                   OVER VOTES                            Precinct 1                                             01 
01050040002000000          United States Representative, Dist 23                   OVER VOTES                            Precinct 2                                             01 
01050040003000000          United States Representative, Dist 23                   OVER VOTES                            Precinct 3                                             01 
01050040004000000          United States Representative, Dist 23                   OVER VOTES                            Precinct 4                                             01 
01050050001000010          United States Representative, Dist 23                   UNDER VOTES                           Precinct 1                                             01 
01050050002000016          United States Representative, Dist 23                   UNDER VOTES                           Precinct 2                                             01 
01050050003000012          United States Representative, Dist 23                   UNDER VOTES                           Precinct 3                                             01 
01050050004000006          United States Representative, Dist 23                   UNDER VOTES                           Precinct 4                                             01 
01060010001000277REP       Governor                                                Greg Abbott                           Precinct 1                                             01 
01060010002000208REP       Governor                                                Greg Abbott                           Precinct 2                                             01 
01060010003000089REP       Governor                                                Greg Abbott                           Precinct 3                                             01 
01060010004000139REP       Governor                                                Greg Abbott                           Precinct 4                                             01 
01060020001000025DEM       Governor                                                Wendy R. Davis                        Precinct 1                                             01 
01060020002000034DEM       Governor                                                Wendy R. Davis                        Precinct 2                                             01 
01060020003000047DEM       Governor                                                Wendy R. Davis                        Precinct 3                                             01 
01060020004000021DEM       Governor                                                Wendy R. Davis                        Precinct 4                                             01 
01060030001000001LIB       Governor                                                Kathie Glass                          Precinct 1                                             01 
01060030002000002LIB       Governor                                                Kathie Glass                          Precinct 2                                             01 
01060030003000001LIB       Governor                                                Kathie Glass                          Precinct 3                                             01 
01060030004000002LIB       Governor                                                Kathie Glass                          Precinct 4                                             01 
01060040001000000GRN       Governor                                                Brandon Parmer                        Precinct 1                                             01 
01060040002000002GRN       Governor                                                Brandon Parmer                        Precinct 2                                             01 
01060040003000001GRN       Governor                                                Brandon Parmer                        Precinct 3                                             01 
01060040004000000GRN       Governor                                                Brandon Parmer                        Precinct 4                                             01 
01060050001000000NON       Governor                                                WRITE-IN                              Precinct 1                                             01 
01060050002000000NON       Governor                                                WRITE-IN                              Precinct 2                                             01 
01060050003000002NON       Governor                                                WRITE-IN                              Precinct 3                                             01 
01060050004000000NON       Governor                                                WRITE-IN                              Precinct 4                                             01 
01060060001000000          Governor                                                OVER VOTES                            Precinct 1                                             01 
01060060002000000          Governor                                                OVER VOTES                            Precinct 2                                             01 
01060060003000000          Governor                                                OVER VOTES                            Precinct 3                                             01 
01060060004000000          Governor                                                OVER VOTES                            Precinct 4                                             01 
01060070001000002          Governor                                                UNDER VOTES                           Precinct 1                                             01 
01060070002000005          Governor                                                UNDER VOTES                           Precinct 2                                             01 
01060070003000009          Governor                                                UNDER VOTES                           Precinct 3                                             01 
01060070004000003          Governor                                                UNDER VOTES                           Precinct 4                                             01 
01070010001000264REP       Lieutenant Governor                                     Dan Patrick                           Precinct 1                                             01 
01070010002000194REP       Lieutenant Governor                                     Dan Patrick                           Precinct 2                                             01 
01070010003000081REP       Lieutenant Governor                                     Dan Patrick                           Precinct 3                                             01 
01070010004000134REP       Lieutenant Governor                                     Dan Patrick                           Precinct 4                                             01 
01070020001000025DEM       Lieutenant Governor                                     Leticia Van de Putte                  Precinct 1                                             01 
01070020002000035DEM       Lieutenant Governor                                     Leticia Van de Putte                  Precinct 2                                             01 
01070020003000046DEM       Lieutenant Governor                                     Leticia Van de Putte                  Precinct 3                                             01 
01070020004000021DEM       Lieutenant Governor                                     Leticia Van de Putte                  Precinct 4                                             01 
01070030001000004LIB       Lieutenant Governor                                     Robert D. Butler                      Precinct 1                                             01 
01070030002000008LIB       Lieutenant Governor                                     Robert D. Butler                      Precinct 2                                             01 
01070030003000008LIB       Lieutenant Governor                                     Robert D. Butler                      Precinct 3                                             01 
01070030004000006LIB       Lieutenant Governor                                     Robert D. Butler                      Precinct 4                                             01 
01070040001000001GRN       Lieutenant Governor                                     Chandrakantha Courtney                Precinct 1                                             01 
01070040002000001GRN       Lieutenant Governor                                     Chandrakantha Courtney                Precinct 2                                             01 
01070040003000000GRN       Lieutenant Governor                                     Chandrakantha Courtney                Precinct 3                                             01 
01070040004000000GRN       Lieutenant Governor                                     Chandrakantha Courtney                Precinct 4                                             01 
01070050001000000          Lieutenant Governor                                     OVER VOTES                            Precinct 1                                             01 
01070050002000000          Lieutenant Governor                                     OVER VOTES                            Precinct 2                                             01 
01070050003000000          Lieutenant Governor                                     OVER VOTES                            Precinct 3                                             01 
01070050004000000          Lieutenant Governor                                     OVER VOTES                            Precinct 4                                             01 
01070060001000011          Lieutenant Governor                                     UNDER VOTES                           Precinct 1                                             01 
01070060002000013          Lieutenant Governor                                     UNDER VOTES                           Precinct 2                                             01 
01070060003000014          Lieutenant Governor                                     UNDER VOTES                           Precinct 3                                             01 
01070060004000004          Lieutenant Governor                                     UNDER VOTES                           Precinct 4                                             01 
01080010001000255REP       Attorney General                                        Ken Paxton                            Precinct 1                                             01 
01080010002000184REP       Attorney General                                        Ken Paxton                            Precinct 2                                             01 
01080010003000077REP       Attorney General                                        Ken Paxton                            Precinct 3                                             01 
01080010004000134REP       Attorney General                                        Ken Paxton                            Precinct 4                                             01 
01080020001000033DEM       Attorney General                                        Sam Houston                           Precinct 1                                             01 
01080020002000048DEM       Attorney General                                        Sam Houston                           Precinct 2                                             01 
01080020003000053DEM       Attorney General                                        Sam Houston                           Precinct 3                                             01 
01080020004000019DEM       Attorney General                                        Sam Houston                           Precinct 4                                             01 
01080030001000005LIB       Attorney General                                        Jamie Balagia                         Precinct 1                                             01 
01080030002000006LIB       Attorney General                                        Jamie Balagia                         Precinct 2                                             01 
01080030003000006LIB       Attorney General                                        Jamie Balagia                         Precinct 3                                             01 
01080030004000006LIB       Attorney General                                        Jamie Balagia                         Precinct 4                                             01 
01080040001000001GRN       Attorney General                                        Jamar Osborne                         Precinct 1                                             01 
01080040002000002GRN       Attorney General                                        Jamar Osborne                         Precinct 2                                             01 
01080040003000000GRN       Attorney General                                        Jamar Osborne                         Precinct 3                                             01 
01080040004000000GRN       Attorney General                                        Jamar Osborne                         Precinct 4                                             01 
01080050001000000          Attorney General                                        OVER VOTES                            Precinct 1                                             01 
01080050002000000          Attorney General                                        OVER VOTES                            Precinct 2                                             01 
01080050003000000          Attorney General                                        OVER VOTES                            Precinct 3                                             01 
01080050004000000          Attorney General                                        OVER VOTES                            Precinct 4                                             01 
01080060001000011          Attorney General                                        UNDER VOTES                           Precinct 1                                             01 
01080060002000011          Attorney General                                        UNDER VOTES                           Precinct 2                                             01 
01080060003000013          Attorney General                                        UNDER VOTES                           Precinct 3                                             01 
01080060004000006          Attorney General                                        UNDER VOTES                           Precinct 4                                             01 
01090010001000246REP       Comptroller of Public Accounts                          Glenn Hegar                           Precinct 1                                             01 
01090010002000176REP       Comptroller of Public Accounts                          Glenn Hegar                           Precinct 2                                             01 
01090010003000071REP       Comptroller of Public Accounts                          Glenn Hegar                           Precinct 3                                             01 
01090010004000125REP       Comptroller of Public Accounts                          Glenn Hegar                           Precinct 4                                             01 
01090020001000036DEM       Comptroller of Public Accounts                          Mike Collier                          Precinct 1                                             01 
01090020002000047DEM       Comptroller of Public Accounts                          Mike Collier                          Precinct 2                                             01 
01090020003000053DEM       Comptroller of Public Accounts                          Mike Collier                          Precinct 3                                             01 
01090020004000024DEM       Comptroller of Public Accounts                          Mike Collier                          Precinct 4                                             01 
01090030001000009LIB       Comptroller of Public Accounts                          Ben Sanders                           Precinct 1                                             01 
01090030002000006LIB       Comptroller of Public Accounts                          Ben Sanders                           Precinct 2                                             01 
01090030003000008LIB       Comptroller of Public Accounts                          Ben Sanders                           Precinct 3                                             01 
01090030004000007LIB       Comptroller of Public Accounts                          Ben Sanders                           Precinct 4                                             01 
01090040001000001GRN       Comptroller of Public Accounts                          Deb Shafto                            Precinct 1                                             01 
01090040002000005GRN       Comptroller of Public Accounts                          Deb Shafto                            Precinct 2                                             01 
01090040003000000GRN       Comptroller of Public Accounts                          Deb Shafto                            Precinct 3                                             01 
01090040004000000GRN       Comptroller of Public Accounts                          Deb Shafto                            Precinct 4                                             01 
01090050001000000          Comptroller of Public Accounts                          OVER VOTES                            Precinct 1                                             01 
01090050002000000          Comptroller of Public Accounts                          OVER VOTES                            Precinct 2                                             01 
01090050003000000          Comptroller of Public Accounts                          OVER VOTES                            Precinct 3                                             01 
01090050004000000          Comptroller of Public Accounts                          OVER VOTES                            Precinct 4                                             01 
01090060001000013          Comptroller of Public Accounts                          UNDER VOTES                           Precinct 1                                             01 
01090060002000017          Comptroller of Public Accounts                          UNDER VOTES                           Precinct 2                                             01 
01090060003000017          Comptroller of Public Accounts                          UNDER VOTES                           Precinct 3                                             01 
01090060004000009          Comptroller of Public Accounts                          UNDER VOTES                           Precinct 4                                             01 
01100010001000253REP       Commissioner of the General Land Office                 George P. Bush                        Precinct 1                                             01 
01100010002000193REP       Commissioner of the General Land Office                 George P. Bush                        Precinct 2                                             01 
01100010003000083REP       Commissioner of the General Land Office                 George P. Bush                        Precinct 3                                             01 
01100010004000134REP       Commissioner of the General Land Office                 George P. Bush                        Precinct 4                                             01 
01100020001000027DEM       Commissioner of the General Land Office                 John Cook                             Precinct 1                                             01 
01100020002000038DEM       Commissioner of the General Land Office                 John Cook                             Precinct 2                                             01 
01100020003000046DEM       Commissioner of the General Land Office                 John Cook                             Precinct 3                                             01 
01100020004000020DEM       Commissioner of the General Land Office                 John Cook                             Precinct 4                                             01 
01100030001000014LIB       Commissioner of the General Land Office                 Justin Knight                         Precinct 1                                             01 
01100030002000007LIB       Commissioner of the General Land Office                 Justin Knight                         Precinct 2                                             01 
01100030003000005LIB       Commissioner of the General Land Office                 Justin Knight                         Precinct 3                                             01 
01100030004000005LIB       Commissioner of the General Land Office                 Justin Knight                         Precinct 4                                             01 
01100040001000002GRN       Commissioner of the General Land Office                 Valerie Alessi                        Precinct 1                                             01 
01100040002000001GRN       Commissioner of the General Land Office                 Valerie Alessi                        Precinct 2                                             01 
01100040003000002GRN       Commissioner of the General Land Office                 Valerie Alessi                        Precinct 3                                             01 
01100040004000000GRN       Commissioner of the General Land Office                 Valerie Alessi                        Precinct 4                                             01 
01100050001000000          Commissioner of the General Land Office                 OVER VOTES                            Precinct 1                                             01 
01100050002000000          Commissioner of the General Land Office                 OVER VOTES                            Precinct 2                                             01 
01100050003000000          Commissioner of the General Land Office                 OVER VOTES                            Precinct 3                                             01 
01100050004000000          Commissioner of the General Land Office                 OVER VOTES                            Precinct 4                                             01 
01100060001000009          Commissioner of the General Land Office                 UNDER VOTES                           Precinct 1                                             01 
01100060002000012          Commissioner of the General Land Office                 UNDER VOTES                           Precinct 2                                             01 
01100060003000013          Commissioner of the General Land Office                 UNDER VOTES                           Precinct 3                                             01 
01100060004000006          Commissioner of the General Land Office                 UNDER VOTES                           Precinct 4                                             01 
01110010001000241REP       Commissioner of Agriculture                             Sid Miller                            Precinct 1                                             01 
01110010002000181REP       Commissioner of Agriculture                             Sid Miller                            Precinct 2                                             01 
01110010003000069REP       Commissioner of Agriculture                             Sid Miller                            Precinct 3                                             01 
01110010004000125REP       Commissioner of Agriculture                             Sid Miller                            Precinct 4                                             01 
01110020001000039DEM       Commissioner of Agriculture                             Jim Hogan                             Precinct 1                                             01 
01110020002000045DEM       Commissioner of Agriculture                             Jim Hogan                             Precinct 2                                             01 
01110020003000055DEM       Commissioner of Agriculture                             Jim Hogan                             Precinct 3                                             01 
01110020004000023DEM       Commissioner of Agriculture                             Jim Hogan                             Precinct 4                                             01 
01110030001000007LIB       Commissioner of Agriculture                             David (Rocky) Palmquist               Precinct 1                                             01 
01110030002000008LIB       Commissioner of Agriculture                             David (Rocky) Palmquist               Precinct 2                                             01 
01110030003000007LIB       Commissioner of Agriculture                             David (Rocky) Palmquist               Precinct 3                                             01 
01110030004000006LIB       Commissioner of Agriculture                             David (Rocky) Palmquist               Precinct 4                                             01 
01110040001000002GRN       Commissioner of Agriculture                             Kenneth Kendrick                      Precinct 1                                             01 
01110040002000002GRN       Commissioner of Agriculture                             Kenneth Kendrick                      Precinct 2                                             01 
01110040003000001GRN       Commissioner of Agriculture                             Kenneth Kendrick                      Precinct 3                                             01 
01110040004000001GRN       Commissioner of Agriculture                             Kenneth Kendrick                      Precinct 4                                             01 
01110050001000000          Commissioner of Agriculture                             OVER VOTES                            Precinct 1                                             01 
01110050002000000          Commissioner of Agriculture                             OVER VOTES                            Precinct 2                                             01 
01110050003000000          Commissioner of Agriculture                             OVER VOTES                            Precinct 3                                             01 
01110050004000000          Commissioner of Agriculture                             OVER VOTES                            Precinct 4                                             01 
01110060001000016          Commissioner of Agriculture                             UNDER VOTES                           Precinct 1                                             01 
01110060002000015          Commissioner of Agriculture                             UNDER VOTES                           Precinct 2                                             01 
01110060003000017          Commissioner of Agriculture                             UNDER VOTES                           Precinct 3                                             01 
01110060004000010          Commissioner of Agriculture                             UNDER VOTES                           Precinct 4                                             01 
01120010001000241REP       Railroad Commissioner                                   Ryan Sitton                           Precinct 1                                             01 
01120010002000177REP       Railroad Commissioner                                   Ryan Sitton                           Precinct 2                                             01 
01120010003000066REP       Railroad Commissioner                                   Ryan Sitton                           Precinct 3                                             01 
01120010004000125REP       Railroad Commissioner                                   Ryan Sitton                           Precinct 4                                             01 
01120020001000033DEM       Railroad Commissioner                                   Steve Brown                           Precinct 1                                             01 
01120020002000039DEM       Railroad Commissioner                                   Steve Brown                           Precinct 2                                             01 
01120020003000054DEM       Railroad Commissioner                                   Steve Brown                           Precinct 3                                             01 
01120020004000021DEM       Railroad Commissioner                                   Steve Brown                           Precinct 4                                             01 
01120030001000009LIB       Railroad Commissioner                                   Mark A. Miller                        Precinct 1                                             01 
01120030002000013LIB       Railroad Commissioner                                   Mark A. Miller                        Precinct 2                                             01 
01120030003000006LIB       Railroad Commissioner                                   Mark A. Miller                        Precinct 3                                             01 
01120030004000006LIB       Railroad Commissioner                                   Mark A. Miller                        Precinct 4                                             01 
01120040001000007GRN       Railroad Commissioner                                   Martina Salinas                       Precinct 1                                             01 
01120040002000006GRN       Railroad Commissioner                                   Martina Salinas                       Precinct 2                                             01 
01120040003000007GRN       Railroad Commissioner                                   Martina Salinas                       Precinct 3                                             01 
01120040004000002GRN       Railroad Commissioner                                   Martina Salinas                       Precinct 4                                             01 
01120050001000000          Railroad Commissioner                                   OVER VOTES                            Precinct 1                                             01 
01120050002000000          Railroad Commissioner                                   OVER VOTES                            Precinct 2                                             01 
01120050003000000          Railroad Commissioner                                   OVER VOTES                            Precinct 3                                             01 
01120050004000000          Railroad Commissioner                                   OVER VOTES                            Precinct 4                                             01 
01120060001000015          Railroad Commissioner                                   UNDER VOTES                           Precinct 1                                             01 
01120060002000016          Railroad Commissioner                                   UNDER VOTES                           Precinct 2                                             01 
01120060003000016          Railroad Commissioner                                   UNDER VOTES                           Precinct 3                                             01 
01120060004000011          Railroad Commissioner                                   UNDER VOTES                           Precinct 4                                             01 
01130010001000247REP       Chief Justice, Supreme Court                            Nathan Hecht                          Precinct 1                                             01 
01130010002000171REP       Chief Justice, Supreme Court                            Nathan Hecht                          Precinct 2                                             01 
01130010003000072REP       Chief Justice, Supreme Court                            Nathan Hecht                          Precinct 3                                             01 
01130010004000126REP       Chief Justice, Supreme Court                            Nathan Hecht                          Precinct 4                                             01 
01130020001000034DEM       Chief Justice, Supreme Court                            William Moody                         Precinct 1                                             01 
01130020002000050DEM       Chief Justice, Supreme Court                            William Moody                         Precinct 2                                             01 
01130020003000057DEM       Chief Justice, Supreme Court                            William Moody                         Precinct 3                                             01 
01130020004000023DEM       Chief Justice, Supreme Court                            William Moody                         Precinct 4                                             01 
01130030001000008LIB       Chief Justice, Supreme Court                            Tom Oxford                            Precinct 1                                             01 
01130030002000011LIB       Chief Justice, Supreme Court                            Tom Oxford                            Precinct 2                                             01 
01130030003000004LIB       Chief Justice, Supreme Court                            Tom Oxford                            Precinct 3                                             01 
01130030004000005LIB       Chief Justice, Supreme Court                            Tom Oxford                            Precinct 4                                             01 
01130040001000000          Chief Justice, Supreme Court                            OVER VOTES                            Precinct 1                                             01 
01130040002000000          Chief Justice, Supreme Court                            OVER VOTES                            Precinct 2                                             01 
01130040003000000          Chief Justice, Supreme Court                            OVER VOTES                            Precinct 3                                             01 
01130040004000000          Chief Justice, Supreme Court                            OVER VOTES                            Precinct 4                                             01 
01130050001000016          Chief Justice, Supreme Court                            UNDER VOTES                           Precinct 1                                             01 
01130050002000019          Chief Justice, Supreme Court                            UNDER VOTES                           Precinct 2                                             01 
01130050003000016          Chief Justice, Supreme Court                            UNDER VOTES                           Precinct 3                                             01 
01130050004000011          Chief Justice, Supreme Court                            UNDER VOTES                           Precinct 4                                             01 
01140010001000252REP       Justice, Supreme Court, Place 6                         Jeff Brown                            Precinct 1                                             01 
01140010002000178REP       Justice, Supreme Court, Place 6                         Jeff Brown                            Precinct 2                                             01 
01140010003000077REP       Justice, Supreme Court, Place 6                         Jeff Brown                            Precinct 3                                             01 
01140010004000127REP       Justice, Supreme Court, Place 6                         Jeff Brown                            Precinct 4                                             01 
01140020001000033DEM       Justice, Supreme Court, Place 6                         Lawrence Edward Meyers                Precinct 1                                             01 
01140020002000042DEM       Justice, Supreme Court, Place 6                         Lawrence Edward Meyers                Precinct 2                                             01 
01140020003000048DEM       Justice, Supreme Court, Place 6                         Lawrence Edward Meyers                Precinct 3                                             01 
01140020004000020DEM       Justice, Supreme Court, Place 6                         Lawrence Edward Meyers                Precinct 4                                             01 
01140030001000005LIB       Justice, Supreme Court, Place 6                         Mark Ash                              Precinct 1                                             01 
01140030002000010LIB       Justice, Supreme Court, Place 6                         Mark Ash                              Precinct 2                                             01 
01140030003000008LIB       Justice, Supreme Court, Place 6                         Mark Ash                              Precinct 3                                             01 
01140030004000007LIB       Justice, Supreme Court, Place 6                         Mark Ash                              Precinct 4                                             01 
01140040001000000          Justice, Supreme Court, Place 6                         OVER VOTES                            Precinct 1                                             01 
01140040002000000          Justice, Supreme Court, Place 6                         OVER VOTES                            Precinct 2                                             01 
01140040003000000          Justice, Supreme Court, Place 6                         OVER VOTES                            Precinct 3                                             01 
01140040004000001          Justice, Supreme Court, Place 6                         OVER VOTES                            Precinct 4                                             01 
01140050001000015          Justice, Supreme Court, Place 6                         UNDER VOTES                           Precinct 1                                             01 
01140050002000021          Justice, Supreme Court, Place 6                         UNDER VOTES                           Precinct 2                                             01 
01140050003000016          Justice, Supreme Court, Place 6                         UNDER VOTES                           Precinct 3                                             01 
01140050004000011          Justice, Supreme Court, Place 6                         UNDER VOTES                           Precinct 4                                             01 
01150010001000254REP       Justice, Supreme Court, Place 7                         Jeff Boyd                             Precinct 1                                             01 
01150010002000179REP       Justice, Supreme Court, Place 7                         Jeff Boyd                             Precinct 2                                             01 
01150010003000073REP       Justice, Supreme Court, Place 7                         Jeff Boyd                             Precinct 3                                             01 
01150010004000126REP       Justice, Supreme Court, Place 7                         Jeff Boyd                             Precinct 4                                             01 
01150020001000028DEM       Justice, Supreme Court, Place 7                         Gina Benavides                        Precinct 1                                             01 
01150020002000043DEM       Justice, Supreme Court, Place 7                         Gina Benavides                        Precinct 2                                             01 
01150020003000053DEM       Justice, Supreme Court, Place 7                         Gina Benavides                        Precinct 3                                             01 
01150020004000021DEM       Justice, Supreme Court, Place 7                         Gina Benavides                        Precinct 4                                             01 
01150030001000008LIB       Justice, Supreme Court, Place 7                         Don Fulton                            Precinct 1                                             01 
01150030002000008LIB       Justice, Supreme Court, Place 7                         Don Fulton                            Precinct 2                                             01 
01150030003000006LIB       Justice, Supreme Court, Place 7                         Don Fulton                            Precinct 3                                             01 
01150030004000005LIB       Justice, Supreme Court, Place 7                         Don Fulton                            Precinct 4                                             01 
01150040001000002GRN       Justice, Supreme Court, Place 7                         Charles E. Waterbury                  Precinct 1                                             01 
01150040002000003GRN       Justice, Supreme Court, Place 7                         Charles E. Waterbury                  Precinct 2                                             01 
01150040003000004GRN       Justice, Supreme Court, Place 7                         Charles E. Waterbury                  Precinct 3                                             01 
01150040004000001GRN       Justice, Supreme Court, Place 7                         Charles E. Waterbury                  Precinct 4                                             01 
01150050001000000          Justice, Supreme Court, Place 7                         OVER VOTES                            Precinct 1                                             01 
01150050002000000          Justice, Supreme Court, Place 7                         OVER VOTES                            Precinct 2                                             01 
01150050003000000          Justice, Supreme Court, Place 7                         OVER VOTES                            Precinct 3                                             01 
01150050004000000          Justice, Supreme Court, Place 7                         OVER VOTES                            Precinct 4                                             01 
01150060001000013          Justice, Supreme Court, Place 7                         UNDER VOTES                           Precinct 1                                             01 
01150060002000018          Justice, Supreme Court, Place 7                         UNDER VOTES                           Precinct 2                                             01 
01150060003000013          Justice, Supreme Court, Place 7                         UNDER VOTES                           Precinct 3                                             01 
01150060004000012          Justice, Supreme Court, Place 7                         UNDER VOTES                           Precinct 4                                             01 
01160010001000263REP       Justice, Supreme Court, Place 8                         Phil Johnson                          Precinct 1                                             01 
01160010002000186REP       Justice, Supreme Court, Place 8                         Phil Johnson                          Precinct 2                                             01 
01160010003000080REP       Justice, Supreme Court, Place 8                         Phil Johnson                          Precinct 3                                             01 
01160010004000136REP       Justice, Supreme Court, Place 8                         Phil Johnson                          Precinct 4                                             01 
01160020001000009LIB       Justice, Supreme Court, Place 8                         RS Roberto Koelsch                    Precinct 1                                             01 
01160020002000010LIB       Justice, Supreme Court, Place 8                         RS Roberto Koelsch                    Precinct 2                                             01 
01160020003000015LIB       Justice, Supreme Court, Place 8                         RS Roberto Koelsch                    Precinct 3                                             01 
01160020004000004LIB       Justice, Supreme Court, Place 8                         RS Roberto Koelsch                    Precinct 4                                             01 
01160030001000005GRN       Justice, Supreme Court, Place 8                         Jim Chisolm                           Precinct 1                                             01 
01160030002000011GRN       Justice, Supreme Court, Place 8                         Jim Chisolm                           Precinct 2                                             01 
01160030003000011GRN       Justice, Supreme Court, Place 8                         Jim Chisolm                           Precinct 3                                             01 
01160030004000002GRN       Justice, Supreme Court, Place 8                         Jim Chisolm                           Precinct 4                                             01 
01160040001000000          Justice, Supreme Court, Place 8                         OVER VOTES                            Precinct 1                                             01 
01160040002000000          Justice, Supreme Court, Place 8                         OVER VOTES                            Precinct 2                                             01 
01160040003000000          Justice, Supreme Court, Place 8                         OVER VOTES                            Precinct 3                                             01 
01160040004000000          Justice, Supreme Court, Place 8                         OVER VOTES                            Precinct 4                                             01 
01160050001000028          Justice, Supreme Court, Place 8                         UNDER VOTES                           Precinct 1                                             01 
01160050002000044          Justice, Supreme Court, Place 8                         UNDER VOTES                           Precinct 2                                             01 
01160050003000043          Justice, Supreme Court, Place 8                         UNDER VOTES                           Precinct 3                                             01 
01160050004000023          Justice, Supreme Court, Place 8                         UNDER VOTES                           Precinct 4                                             01 
01170010001000249REP       Judge, Court of Criminal Appeals, Pl 3                  Bert Richardson                       Precinct 1                                             01 
01170010002000178REP       Judge, Court of Criminal Appeals, Pl 3                  Bert Richardson                       Precinct 2                                             01 
01170010003000073REP       Judge, Court of Criminal Appeals, Pl 3                  Bert Richardson                       Precinct 3                                             01 
01170010004000125REP       Judge, Court of Criminal Appeals, Pl 3                  Bert Richardson                       Precinct 4                                             01 
01170020001000032DEM       Judge, Court of Criminal Appeals, Pl 3                  John Granberg                         Precinct 1                                             01 
01170020002000045DEM       Judge, Court of Criminal Appeals, Pl 3                  John Granberg                         Precinct 2                                             01 
01170020003000051DEM       Judge, Court of Criminal Appeals, Pl 3                  John Granberg                         Precinct 3                                             01 
01170020004000022DEM       Judge, Court of Criminal Appeals, Pl 3                  John Granberg                         Precinct 4                                             01 
01170030001000009LIB       Judge, Court of Criminal Appeals, Pl 3                  Mark W. Bennett                       Precinct 1                                             01 
01170030002000009LIB       Judge, Court of Criminal Appeals, Pl 3                  Mark W. Bennett                       Precinct 2                                             01 
01170030003000009LIB       Judge, Court of Criminal Appeals, Pl 3                  Mark W. Bennett                       Precinct 3                                             01 
01170030004000006LIB       Judge, Court of Criminal Appeals, Pl 3                  Mark W. Bennett                       Precinct 4                                             01 
01170040001000000          Judge, Court of Criminal Appeals, Pl 3                  OVER VOTES                            Precinct 1                                             01 
01170040002000000          Judge, Court of Criminal Appeals, Pl 3                  OVER VOTES                            Precinct 2                                             01 
01170040003000000          Judge, Court of Criminal Appeals, Pl 3                  OVER VOTES                            Precinct 3                                             01 
01170040004000000          Judge, Court of Criminal Appeals, Pl 3                  OVER VOTES                            Precinct 4                                             01 
01170050001000015          Judge, Court of Criminal Appeals, Pl 3                  UNDER VOTES                           Precinct 1                                             01 
01170050002000019          Judge, Court of Criminal Appeals, Pl 3                  UNDER VOTES                           Precinct 2                                             01 
01170050003000016          Judge, Court of Criminal Appeals, Pl 3                  UNDER VOTES                           Precinct 3                                             01 
01170050004000012          Judge, Court of Criminal Appeals, Pl 3                  UNDER VOTES                           Precinct 4                                             01 
01180010001000255REP       Judge, Court of Criminal Appeals, Pl 4                  Kevin Patrick Yeary                   Precinct 1                                             01 
01180010002000180REP       Judge, Court of Criminal Appeals, Pl 4                  Kevin Patrick Yeary                   Precinct 2                                             01 
01180010003000077REP       Judge, Court of Criminal Appeals, Pl 4                  Kevin Patrick Yeary                   Precinct 3                                             01 
01180010004000134REP       Judge, Court of Criminal Appeals, Pl 4                  Kevin Patrick Yeary                   Precinct 4                                             01 
01180020001000016LIB       Judge, Court of Criminal Appeals, Pl 4                  Quanah Parker                         Precinct 1                                             01 
01180020002000018LIB       Judge, Court of Criminal Appeals, Pl 4                  Quanah Parker                         Precinct 2                                             01 
01180020003000018LIB       Judge, Court of Criminal Appeals, Pl 4                  Quanah Parker                         Precinct 3                                             01 
01180020004000005LIB       Judge, Court of Criminal Appeals, Pl 4                  Quanah Parker                         Precinct 4                                             01 
01180030001000006GRN       Judge, Court of Criminal Appeals, Pl 4                  Judith Sanders-Castro                 Precinct 1                                             01 
01180030002000013GRN       Judge, Court of Criminal Appeals, Pl 4                  Judith Sanders-Castro                 Precinct 2                                             01 
01180030003000013GRN       Judge, Court of Criminal Appeals, Pl 4                  Judith Sanders-Castro                 Precinct 3                                             01 
01180030004000005GRN       Judge, Court of Criminal Appeals, Pl 4                  Judith Sanders-Castro                 Precinct 4                                             01 
01180040001000000          Judge, Court of Criminal Appeals, Pl 4                  OVER VOTES                            Precinct 1                                             01 
01180040002000000          Judge, Court of Criminal Appeals, Pl 4                  OVER VOTES                            Precinct 2                                             01 
01180040003000000          Judge, Court of Criminal Appeals, Pl 4                  OVER VOTES                            Precinct 3                                             01 
01180040004000000          Judge, Court of Criminal Appeals, Pl 4                  OVER VOTES                            Precinct 4                                             01 
01180050001000028          Judge, Court of Criminal Appeals, Pl 4                  UNDER VOTES                           Precinct 1                                             01 
01180050002000040          Judge, Court of Criminal Appeals, Pl 4                  UNDER VOTES                           Precinct 2                                             01 
01180050003000041          Judge, Court of Criminal Appeals, Pl 4                  UNDER VOTES                           Precinct 3                                             01 
01180050004000021          Judge, Court of Criminal Appeals, Pl 4                  UNDER VOTES                           Precinct 4                                             01 
01190010001000260REP       Judge, Court of Criminal Appeals, Pl 9                  David Newell                          Precinct 1                                             01 
01190010002000184REP       Judge, Court of Criminal Appeals, Pl 9                  David Newell                          Precinct 2                                             01 
01190010003000081REP       Judge, Court of Criminal Appeals, Pl 9                  David Newell                          Precinct 3                                             01 
01190010004000136REP       Judge, Court of Criminal Appeals, Pl 9                  David Newell                          Precinct 4                                             01 
01190020001000010LIB       Judge, Court of Criminal Appeals, Pl 9                  William Bryan Strange, III            Precinct 1                                             01 
01190020002000014LIB       Judge, Court of Criminal Appeals, Pl 9                  William Bryan Strange, III            Precinct 2                                             01 
01190020003000018LIB       Judge, Court of Criminal Appeals, Pl 9                  William Bryan Strange, III            Precinct 3                                             01 
01190020004000003LIB       Judge, Court of Criminal Appeals, Pl 9                  William Bryan Strange, III            Precinct 4                                             01 
01190030001000003GRN       Judge, Court of Criminal Appeals, Pl 9                  George Joseph Altgelt                 Precinct 1                                             01 
01190030002000009GRN       Judge, Court of Criminal Appeals, Pl 9                  George Joseph Altgelt                 Precinct 2                                             01 
01190030003000007GRN       Judge, Court of Criminal Appeals, Pl 9                  George Joseph Altgelt                 Precinct 3                                             01 
01190030004000003GRN       Judge, Court of Criminal Appeals, Pl 9                  George Joseph Altgelt                 Precinct 4                                             01 
01190040001000000          Judge, Court of Criminal Appeals, Pl 9                  OVER VOTES                            Precinct 1                                             01 
01190040002000000          Judge, Court of Criminal Appeals, Pl 9                  OVER VOTES                            Precinct 2                                             01 
01190040003000000          Judge, Court of Criminal Appeals, Pl 9                  OVER VOTES                            Precinct 3                                             01 
01190040004000000          Judge, Court of Criminal Appeals, Pl 9                  OVER VOTES                            Precinct 4                                             01 
01190050001000032          Judge, Court of Criminal Appeals, Pl 9                  UNDER VOTES                           Precinct 1                                             01 
01190050002000044          Judge, Court of Criminal Appeals, Pl 9                  UNDER VOTES                           Precinct 2                                             01 
01190050003000043          Judge, Court of Criminal Appeals, Pl 9                  UNDER VOTES                           Precinct 3                                             01 
01190050004000023          Judge, Court of Criminal Appeals, Pl 9                  UNDER VOTES                           Precinct 4                                             01 
01200010001000274REP       State Representative, District 82                       Tom Craddick                          Precinct 1                                             01 
01200010002000206REP       State Representative, District 82                       Tom Craddick                          Precinct 2                                             01 
01200010003000101REP       State Representative, District 82                       Tom Craddick                          Precinct 3                                             01 
01200010004000142REP       State Representative, District 82                       Tom Craddick                          Precinct 4                                             01 
01200020001000000          State Representative, District 82                       OVER VOTES                            Precinct 1                                             01 
01200020002000000          State Representative, District 82                       OVER VOTES                            Precinct 2                                             01 
01200020003000000          State Representative, District 82                       OVER VOTES                            Precinct 3                                             01 
01200020004000000          State Representative, District 82                       OVER VOTES                            Precinct 4                                             01 
01200030001000031          State Representative, District 82                       UNDER VOTES                           Precinct 1                                             01 
01200030002000045          State Representative, District 82                       UNDER VOTES                           Precinct 2                                             01 
01200030003000048          State Representative, District 82                       UNDER VOTES                           Precinct 3                                             01 
01200030004000023          State Representative, District 82                       UNDER VOTES                           Precinct 4                                             01 
01210010001000097DEM       Chief Justice, 8th Court of Appeals Dist                Ann Crawford McClure                  Precinct 1                                             01 
01210010002000098DEM       Chief Justice, 8th Court of Appeals Dist                Ann Crawford McClure                  Precinct 2                                             01 
01210010003000077DEM       Chief Justice, 8th Court of Appeals Dist                Ann Crawford McClure                  Precinct 3                                             01 
01210010004000047DEM       Chief Justice, 8th Court of Appeals Dist                Ann Crawford McClure                  Precinct 4                                             01 
01210020001000000          Chief Justice, 8th Court of Appeals Dist                OVER VOTES                            Precinct 1                                             01 
01210020002000000          Chief Justice, 8th Court of Appeals Dist                OVER VOTES                            Precinct 2                                             01 
01210020003000000          Chief Justice, 8th Court of Appeals Dist                OVER VOTES                            Precinct 3                                             01 
01210020004000000          Chief Justice, 8th Court of Appeals Dist                OVER VOTES                            Precinct 4                                             01 
01210030001000208          Chief Justice, 8th Court of Appeals Dist                UNDER VOTES                           Precinct 1                                             01 
01210030002000153          Chief Justice, 8th Court of Appeals Dist                UNDER VOTES                           Precinct 2                                             01 
01210030003000072          Chief Justice, 8th Court of Appeals Dist                UNDER VOTES                           Precinct 3                                             01 
01210030004000118          Chief Justice, 8th Court of Appeals Dist                UNDER VOTES                           Precinct 4                                             01 
01220010001000254REP       District Judge, 109th Judicial District                 Martin B. Muncy                       Precinct 1                                             01 
01220010002000189REP       District Judge, 109th Judicial District                 Martin B. Muncy                       Precinct 2                                             01 
01220010003000091REP       District Judge, 109th Judicial District                 Martin B. Muncy                       Precinct 3                                             01 
01220010004000131REP       District Judge, 109th Judicial District                 Martin B. Muncy                       Precinct 4                                             01 
01220020001000000          District Judge, 109th Judicial District                 OVER VOTES                            Precinct 1                                             01 
01220020002000000          District Judge, 109th Judicial District                 OVER VOTES                            Precinct 2                                             01 
01220020003000000          District Judge, 109th Judicial District                 OVER VOTES                            Precinct 3                                             01 
01220020004000000          District Judge, 109th Judicial District                 OVER VOTES                            Precinct 4                                             01 
01220030001000051          District Judge, 109th Judicial District                 UNDER VOTES                           Precinct 1                                             01 
01220030002000062          District Judge, 109th Judicial District                 UNDER VOTES                           Precinct 2                                             01 
01220030003000058          District Judge, 109th Judicial District                 UNDER VOTES                           Precinct 3                                             01 
01220030004000034          District Judge, 109th Judicial District                 UNDER VOTES                           Precinct 4                                             01 
01300010001000207NON       Proposed Constitutional Amendment                       FOR (A FAVOR)                         Precinct 1                                             01Y
01300010002000168NON       Proposed Constitutional Amendment                       FOR (A FAVOR)                         Precinct 2                                             01Y
01300010003000100NON       Proposed Constitutional Amendment                       FOR (A FAVOR)                         Precinct 3                                             01Y
01300010004000108NON       Proposed Constitutional Amendment                       FOR (A FAVOR)                         Precinct 4                                             01Y
01300020001000061NON       Proposed Constitutional Amendment                       AGAINST (EN CONTRA)                   Precinct 1                                             01Y
01300020002000037NON       Proposed Constitutional Amendment                       AGAINST (EN CONTRA)                   Precinct 2                                             01Y
01300020003000020NON       Proposed Constitutional Amendment                       AGAINST (EN CONTRA)                   Precinct 3                                             01Y
01300020004000028NON       Proposed Constitutional Amendment                       AGAINST (EN CONTRA)                   Precinct 4                                             01Y
01300030001000000          Proposed Constitutional Amendment                       OVER VOTES                            Precinct 1                                             01Y
01300030002000000          Proposed Constitutional Amendment                       OVER VOTES                            Precinct 2                                             01Y
01300030003000000          Proposed Constitutional Amendment                       OVER VOTES                            Precinct 3                                             01Y
01300030004000000          Proposed Constitutional Amendment                       OVER VOTES                            Precinct 4                                             01Y
01300040001000037          Proposed Constitutional Amendment                       UNDER VOTES                           Precinct 1                                             01Y
01300040002000046          Proposed Constitutional Amendment                       UNDER VOTES                           Precinct 2                                             01Y
01300040003000029          Proposed Constitutional Amendment                       UNDER VOTES                           Precinct 3                                             01Y
01300040004000029          Proposed Constitutional Amendment                       UNDER VOTES                           Precinct 4                                             01Y
