01050010001000008REP       United States Senator                                   Ken Cope                              Precinct 1                                             01 
01050010002000020REP       United States Senator                                   Ken Cope                              Precinct 2                                             01 
01050010003000004REP       United States Senator                                   Ken Cope                              Precinct 3                                             01 
01050010004000006REP       United States Senator                                   Ken Cope                              Precinct 4                                             01 
01050020001000010REP       United States Senator                                   Linda Vega                            Precinct 1                                             01 
01050020002000005REP       United States Senator                                   Linda Vega                            Precinct 2                                             01 
01050020003000008REP       United States Senator                                   Linda Vega                            Precinct 3                                             01 
01050020004000014REP       United States Senator                                   Linda Vega                            Precinct 4                                             01 
01050030001000003REP       United States Senator                                   Reid Reasor                           Precinct 1                                             01 
01050030002000010REP       United States Senator                                   Reid Reasor                           Precinct 2                                             01 
01050030003000000REP       United States Senator                                   Reid Reasor                           Precinct 3                                             01 
01050030004000004REP       United States Senator                                   Reid Reasor                           Precinct 4                                             01 
01050040001000133REP       United States Senator                                   John Cornyn                           Precinct 1                                             01 
01050040002000076REP       United States Senator                                   John Cornyn                           Precinct 2                                             01 
01050040003000040REP       United States Senator                                   John Cornyn                           Precinct 3                                             01 
01050040004000061REP       United States Senator                                   John Cornyn                           Precinct 4                                             01 
01050050001000007REP       United States Senator                                   Chris Mapp                            Precinct 1                                             01 
01050050002000003REP       United States Senator                                   Chris Mapp                            Precinct 2                                             01 
01050050003000004REP       United States Senator                                   Chris Mapp                            Precinct 3                                             01 
01050050004000004REP       United States Senator                                   Chris Mapp                            Precinct 4                                             01 
01050060001000028REP       United States Senator                                   Steve Stockman                        Precinct 1                                             01 
01050060002000024REP       United States Senator                                   Steve Stockman                        Precinct 2                                             01 
01050060003000008REP       United States Senator                                   Steve Stockman                        Precinct 3                                             01 
01050060004000020REP       United States Senator                                   Steve Stockman                        Precinct 4                                             01 
01050070001000029REP       United States Senator                                   Dwayne Stovall                        Precinct 1                                             01 
01050070002000016REP       United States Senator                                   Dwayne Stovall                        Precinct 2                                             01 
01050070003000003REP       United States Senator                                   Dwayne Stovall                        Precinct 3                                             01 
01050070004000022REP       United States Senator                                   Dwayne Stovall                        Precinct 4                                             01 
01050080001000001REP       United States Senator                                   Curt Cleaver                          Precinct 1                                             01 
01050080002000003REP       United States Senator                                   Curt Cleaver                          Precinct 2                                             01 
01050080003000003REP       United States Senator                                   Curt Cleaver                          Precinct 3                                             01 
01050080004000004REP       United States Senator                                   Curt Cleaver                          Precinct 4                                             01 
01050090001000000REP       United States Senator                                   OVER VOTES                            Precinct 1                                             01 
01050090002000000REP       United States Senator                                   OVER VOTES                            Precinct 2                                             01 
01050090003000000REP       United States Senator                                   OVER VOTES                            Precinct 3                                             01 
01050090004000000REP       United States Senator                                   OVER VOTES                            Precinct 4                                             01 
01050100001000026REP       United States Senator                                   UNDER VOTES                           Precinct 1                                             01 
01050100002000020REP       United States Senator                                   UNDER VOTES                           Precinct 2                                             01 
01050100003000013REP       United States Senator                                   UNDER VOTES                           Precinct 3                                             01 
01050100004000019REP       United States Senator                                   UNDER VOTES                           Precinct 4                                             01 
01060010001000052REP       United States Representative, Dist 23                   Will Hurd                             Precinct 1                                             01 
01060010002000049REP       United States Representative, Dist 23                   Will Hurd                             Precinct 2                                             01 
01060010003000016REP       United States Representative, Dist 23                   Will Hurd                             Precinct 3                                             01 
01060010004000038REP       United States Representative, Dist 23                   Will Hurd                             Precinct 4                                             01 
01060020001000119REP       United States Representative, Dist 23                   Robert Lowry                          Precinct 1                                             01 
01060020002000071REP       United States Representative, Dist 23                   Robert Lowry                          Precinct 2                                             01 
01060020003000028REP       United States Representative, Dist 23                   Robert Lowry                          Precinct 3                                             01 
01060020004000066REP       United States Representative, Dist 23                   Robert Lowry                          Precinct 4                                             01 
01060030001000046REP       United States Representative, Dist 23                   Francisco "Quico" Canseco             Precinct 1                                             01 
01060030002000033REP       United States Representative, Dist 23                   Francisco "Quico" Canseco             Precinct 2                                             01 
01060030003000022REP       United States Representative, Dist 23                   Francisco "Quico" Canseco             Precinct 3                                             01 
01060030004000028REP       United States Representative, Dist 23                   Francisco "Quico" Canseco             Precinct 4                                             01 
01060040001000000REP       United States Representative, Dist 23                   OVER VOTES                            Precinct 1                                             01 
01060040002000000REP       United States Representative, Dist 23                   OVER VOTES                            Precinct 2                                             01 
01060040003000000REP       United States Representative, Dist 23                   OVER VOTES                            Precinct 3                                             01 
01060040004000000REP       United States Representative, Dist 23                   OVER VOTES                            Precinct 4                                             01 
01060050001000028REP       United States Representative, Dist 23                   UNDER VOTES                           Precinct 1                                             01 
01060050002000024REP       United States Representative, Dist 23                   UNDER VOTES                           Precinct 2                                             01 
01060050003000017REP       United States Representative, Dist 23                   UNDER VOTES                           Precinct 3                                             01 
01060050004000022REP       United States Representative, Dist 23                   UNDER VOTES                           Precinct 4                                             01 
01070010001000213REP       Governor                                                Greg Abbott                           Precinct 1                                             01 
01070010002000159REP       Governor                                                Greg Abbott                           Precinct 2                                             01 
01070010003000058REP       Governor                                                Greg Abbott                           Precinct 3                                             01 
01070010004000125REP       Governor                                                Greg Abbott                           Precinct 4                                             01 
01070020001000005REP       Governor                                                Lisa Fritsch                          Precinct 1                                             01 
01070020002000005REP       Governor                                                Lisa Fritsch                          Precinct 2                                             01 
01070020003000002REP       Governor                                                Lisa Fritsch                          Precinct 3                                             01 
01070020004000004REP       Governor                                                Lisa Fritsch                          Precinct 4                                             01 
01070030001000004REP       Governor                                                SECEDE Kilgore                        Precinct 1                                             01 
01070030002000002REP       Governor                                                SECEDE Kilgore                        Precinct 2                                             01 
01070030003000002REP       Governor                                                SECEDE Kilgore                        Precinct 3                                             01 
01070030004000004REP       Governor                                                SECEDE Kilgore                        Precinct 4                                             01 
01070040001000009REP       Governor                                                Miriam Martinez                       Precinct 1                                             01 
01070040002000003REP       Governor                                                Miriam Martinez                       Precinct 2                                             01 
01070040003000012REP       Governor                                                Miriam Martinez                       Precinct 3                                             01 
01070040004000012REP       Governor                                                Miriam Martinez                       Precinct 4                                             01 
01070050001000000REP       Governor                                                OVER VOTES                            Precinct 1                                             01 
01070050002000000REP       Governor                                                OVER VOTES                            Precinct 2                                             01 
01070050003000000REP       Governor                                                OVER VOTES                            Precinct 3                                             01 
01070050004000000REP       Governor                                                OVER VOTES                            Precinct 4                                             01 
01070060001000014REP       Governor                                                UNDER VOTES                           Precinct 1                                             01 
01070060002000008REP       Governor                                                UNDER VOTES                           Precinct 2                                             01 
01070060003000009REP       Governor                                                UNDER VOTES                           Precinct 3                                             01 
01070060004000009REP       Governor                                                UNDER VOTES                           Precinct 4                                             01 
01080010001000029REP       Lieutenant Governor                                     Jerry Patterson                       Precinct 1                                             01 
01080010002000023REP       Lieutenant Governor                                     Jerry Patterson                       Precinct 2                                             01 
01080010003000017REP       Lieutenant Governor                                     Jerry Patterson                       Precinct 3                                             01 
01080010004000019REP       Lieutenant Governor                                     Jerry Patterson                       Precinct 4                                             01 
01080020001000060REP       Lieutenant Governor                                     Todd Staples                          Precinct 1                                             01 
01080020002000031REP       Lieutenant Governor                                     Todd Staples                          Precinct 2                                             01 
01080020003000010REP       Lieutenant Governor                                     Todd Staples                          Precinct 3                                             01 
01080020004000025REP       Lieutenant Governor                                     Todd Staples                          Precinct 4                                             01 
01080030001000087REP       Lieutenant Governor                                     David Dewhurst                        Precinct 1                                             01 
01080030002000063REP       Lieutenant Governor                                     David Dewhurst                        Precinct 2                                             01 
01080030003000030REP       Lieutenant Governor                                     David Dewhurst                        Precinct 3                                             01 
01080030004000055REP       Lieutenant Governor                                     David Dewhurst                        Precinct 4                                             01 
01080040001000047REP       Lieutenant Governor                                     Dan Patrick                           Precinct 1                                             01 
01080040002000040REP       Lieutenant Governor                                     Dan Patrick                           Precinct 2                                             01 
01080040003000014REP       Lieutenant Governor                                     Dan Patrick                           Precinct 3                                             01 
01080040004000033REP       Lieutenant Governor                                     Dan Patrick                           Precinct 4                                             01 
01080050001000000REP       Lieutenant Governor                                     OVER VOTES                            Precinct 1                                             01 
01080050002000000REP       Lieutenant Governor                                     OVER VOTES                            Precinct 2                                             01 
01080050003000000REP       Lieutenant Governor                                     OVER VOTES                            Precinct 3                                             01 
01080050004000000REP       Lieutenant Governor                                     OVER VOTES                            Precinct 4                                             01 
01080060001000022REP       Lieutenant Governor                                     UNDER VOTES                           Precinct 1                                             01 
01080060002000020REP       Lieutenant Governor                                     UNDER VOTES                           Precinct 2                                             01 
01080060003000012REP       Lieutenant Governor                                     UNDER VOTES                           Precinct 3                                             01 
01080060004000022REP       Lieutenant Governor                                     UNDER VOTES                           Precinct 4                                             01 
01090010001000068REP       Attorney General                                        Barry Smitherman                      Precinct 1                                             01 
01090010002000044REP       Attorney General                                        Barry Smitherman                      Precinct 2                                             01 
01090010003000023REP       Attorney General                                        Barry Smitherman                      Precinct 3                                             01 
01090010004000039REP       Attorney General                                        Barry Smitherman                      Precinct 4                                             01 
01090020001000071REP       Attorney General                                        Ken Paxton                            Precinct 1                                             01 
01090020002000064REP       Attorney General                                        Ken Paxton                            Precinct 2                                             01 
01090020003000027REP       Attorney General                                        Ken Paxton                            Precinct 3                                             01 
01090020004000043REP       Attorney General                                        Ken Paxton                            Precinct 4                                             01 
01090030001000077REP       Attorney General                                        Dan Branch                            Precinct 1                                             01 
01090030002000048REP       Attorney General                                        Dan Branch                            Precinct 2                                             01 
01090030003000019REP       Attorney General                                        Dan Branch                            Precinct 3                                             01 
01090030004000045REP       Attorney General                                        Dan Branch                            Precinct 4                                             01 
01090040001000000REP       Attorney General                                        OVER VOTES                            Precinct 1                                             01 
01090040002000000REP       Attorney General                                        OVER VOTES                            Precinct 2                                             01 
01090040003000000REP       Attorney General                                        OVER VOTES                            Precinct 3                                             01 
01090040004000000REP       Attorney General                                        OVER VOTES                            Precinct 4                                             01 
01090050001000029REP       Attorney General                                        UNDER VOTES                           Precinct 1                                             01 
01090050002000021REP       Attorney General                                        UNDER VOTES                           Precinct 2                                             01 
01090050003000014REP       Attorney General                                        UNDER VOTES                           Precinct 3                                             01 
01090050004000027REP       Attorney General                                        UNDER VOTES                           Precinct 4                                             01 
01100010001000019REP       Comptroller of Public Accounts                          Raul Torres                           Precinct 1                                             01 
01100010002000013REP       Comptroller of Public Accounts                          Raul Torres                           Precinct 2                                             01 
01100010003000016REP       Comptroller of Public Accounts                          Raul Torres                           Precinct 3                                             01 
01100010004000017REP       Comptroller of Public Accounts                          Raul Torres                           Precinct 4                                             01 
01100020001000062REP       Comptroller of Public Accounts                          Harvey Hilderbran                     Precinct 1                                             01 
01100020002000049REP       Comptroller of Public Accounts                          Harvey Hilderbran                     Precinct 2                                             01 
01100020003000018REP       Comptroller of Public Accounts                          Harvey Hilderbran                     Precinct 3                                             01 
01100020004000033REP       Comptroller of Public Accounts                          Harvey Hilderbran                     Precinct 4                                             01 
01100030001000056REP       Comptroller of Public Accounts                          Debra Medina                          Precinct 1                                             01 
01100030002000042REP       Comptroller of Public Accounts                          Debra Medina                          Precinct 2                                             01 
01100030003000019REP       Comptroller of Public Accounts                          Debra Medina                          Precinct 3                                             01 
01100030004000046REP       Comptroller of Public Accounts                          Debra Medina                          Precinct 4                                             01 
01100040001000070REP       Comptroller of Public Accounts                          Glenn Hegar                           Precinct 1                                             01 
01100040002000032REP       Comptroller of Public Accounts                          Glenn Hegar                           Precinct 2                                             01 
01100040003000015REP       Comptroller of Public Accounts                          Glenn Hegar                           Precinct 3                                             01 
01100040004000032REP       Comptroller of Public Accounts                          Glenn Hegar                           Precinct 4                                             01 
01100050001000000REP       Comptroller of Public Accounts                          OVER VOTES                            Precinct 1                                             01 
01100050002000000REP       Comptroller of Public Accounts                          OVER VOTES                            Precinct 2                                             01 
01100050003000000REP       Comptroller of Public Accounts                          OVER VOTES                            Precinct 3                                             01 
01100050004000000REP       Comptroller of Public Accounts                          OVER VOTES                            Precinct 4                                             01 
01100060001000038REP       Comptroller of Public Accounts                          UNDER VOTES                           Precinct 1                                             01 
01100060002000041REP       Comptroller of Public Accounts                          UNDER VOTES                           Precinct 2                                             01 
01100060003000015REP       Comptroller of Public Accounts                          UNDER VOTES                           Precinct 3                                             01 
01100060004000026REP       Comptroller of Public Accounts                          UNDER VOTES                           Precinct 4                                             01 
01110010001000059REP       Commissioner of the General Land Office                 David Watts                           Precinct 1                                             01 
01110010002000042REP       Commissioner of the General Land Office                 David Watts                           Precinct 2                                             01 
01110010003000017REP       Commissioner of the General Land Office                 David Watts                           Precinct 3                                             01 
01110010004000037REP       Commissioner of the General Land Office                 David Watts                           Precinct 4                                             01 
01110020001000155REP       Commissioner of the General Land Office                 George P. Bush                        Precinct 1                                             01 
01110020002000116REP       Commissioner of the General Land Office                 George P. Bush                        Precinct 2                                             01 
01110020003000050REP       Commissioner of the General Land Office                 George P. Bush                        Precinct 3                                             01 
01110020004000096REP       Commissioner of the General Land Office                 George P. Bush                        Precinct 4                                             01 
01110030001000000REP       Commissioner of the General Land Office                 OVER VOTES                            Precinct 1                                             01 
01110030002000000REP       Commissioner of the General Land Office                 OVER VOTES                            Precinct 2                                             01 
01110030003000000REP       Commissioner of the General Land Office                 OVER VOTES                            Precinct 3                                             01 
01110030004000001REP       Commissioner of the General Land Office                 OVER VOTES                            Precinct 4                                             01 
01110040001000031REP       Commissioner of the General Land Office                 UNDER VOTES                           Precinct 1                                             01 
01110040002000019REP       Commissioner of the General Land Office                 UNDER VOTES                           Precinct 2                                             01 
01110040003000016REP       Commissioner of the General Land Office                 UNDER VOTES                           Precinct 3                                             01 
01110040004000020REP       Commissioner of the General Land Office                 UNDER VOTES                           Precinct 4                                             01 
01120010001000014REP       Commissioner of Agriculture                             Eric Opiela                           Precinct 1                                             01 
01120010002000012REP       Commissioner of Agriculture                             Eric Opiela                           Precinct 2                                             01 
01120010003000009REP       Commissioner of Agriculture                             Eric Opiela                           Precinct 3                                             01 
01120010004000008REP       Commissioner of Agriculture                             Eric Opiela                           Precinct 4                                             01 
01120020001000056REP       Commissioner of Agriculture                             Tommy Merritt                         Precinct 1                                             01 
01120020002000030REP       Commissioner of Agriculture                             Tommy Merritt                         Precinct 2                                             01 
01120020003000014REP       Commissioner of Agriculture                             Tommy Merritt                         Precinct 3                                             01 
01120020004000023REP       Commissioner of Agriculture                             Tommy Merritt                         Precinct 4                                             01 
01120030001000042REP       Commissioner of Agriculture                             Joe Cotten                            Precinct 1                                             01 
01120030002000036REP       Commissioner of Agriculture                             Joe Cotten                            Precinct 2                                             01 
01120030003000019REP       Commissioner of Agriculture                             Joe Cotten                            Precinct 3                                             01 
01120030004000030REP       Commissioner of Agriculture                             Joe Cotten                            Precinct 4                                             01 
01120040001000013REP       Commissioner of Agriculture                             J. Allen Carnes                       Precinct 1                                             01 
01120040002000014REP       Commissioner of Agriculture                             J. Allen Carnes                       Precinct 2                                             01 
01120040003000011REP       Commissioner of Agriculture                             J. Allen Carnes                       Precinct 3                                             01 
01120040004000016REP       Commissioner of Agriculture                             J. Allen Carnes                       Precinct 4                                             01 
01120050001000060REP       Commissioner of Agriculture                             Sid Miller                            Precinct 1                                             01 
01120050002000036REP       Commissioner of Agriculture                             Sid Miller                            Precinct 2                                             01 
01120050003000009REP       Commissioner of Agriculture                             Sid Miller                            Precinct 3                                             01 
01120050004000035REP       Commissioner of Agriculture                             Sid Miller                            Precinct 4                                             01 
01120060001000000REP       Commissioner of Agriculture                             OVER VOTES                            Precinct 1                                             01 
01120060002000000REP       Commissioner of Agriculture                             OVER VOTES                            Precinct 2                                             01 
01120060003000000REP       Commissioner of Agriculture                             OVER VOTES                            Precinct 3                                             01 
01120060004000000REP       Commissioner of Agriculture                             OVER VOTES                            Precinct 4                                             01 
01120070001000060REP       Commissioner of Agriculture                             UNDER VOTES                           Precinct 1                                             01 
01120070002000049REP       Commissioner of Agriculture                             UNDER VOTES                           Precinct 2                                             01 
01120070003000021REP       Commissioner of Agriculture                             UNDER VOTES                           Precinct 3                                             01 
01120070004000042REP       Commissioner of Agriculture                             UNDER VOTES                           Precinct 4                                             01 
01130010001000116REP       Railroad Commissioner                                   Wayne Christian                       Precinct 1                                             01 
01130010002000079REP       Railroad Commissioner                                   Wayne Christian                       Precinct 2                                             01 
01130010003000035REP       Railroad Commissioner                                   Wayne Christian                       Precinct 3                                             01 
01130010004000070REP       Railroad Commissioner                                   Wayne Christian                       Precinct 4                                             01 
01130020001000036REP       Railroad Commissioner                                   Becky Berger                          Precinct 1                                             01 
01130020002000023REP       Railroad Commissioner                                   Becky Berger                          Precinct 2                                             01 
01130020003000011REP       Railroad Commissioner                                   Becky Berger                          Precinct 3                                             01 
01130020004000027REP       Railroad Commissioner                                   Becky Berger                          Precinct 4                                             01 
01130030001000034REP       Railroad Commissioner                                   Ryan Sitton                           Precinct 1                                             01 
01130030002000025REP       Railroad Commissioner                                   Ryan Sitton                           Precinct 2                                             01 
01130030003000010REP       Railroad Commissioner                                   Ryan Sitton                           Precinct 3                                             01 
01130030004000019REP       Railroad Commissioner                                   Ryan Sitton                           Precinct 4                                             01 
01130040001000002REP       Railroad Commissioner                                   Malachi Boyuls                        Precinct 1                                             01 
01130040002000005REP       Railroad Commissioner                                   Malachi Boyuls                        Precinct 2                                             01 
01130040003000001REP       Railroad Commissioner                                   Malachi Boyuls                        Precinct 3                                             01 
01130040004000003REP       Railroad Commissioner                                   Malachi Boyuls                        Precinct 4                                             01 
01130050001000000REP       Railroad Commissioner                                   OVER VOTES                            Precinct 1                                             01 
01130050002000000REP       Railroad Commissioner                                   OVER VOTES                            Precinct 2                                             01 
01130050003000000REP       Railroad Commissioner                                   OVER VOTES                            Precinct 3                                             01 
01130050004000000REP       Railroad Commissioner                                   OVER VOTES                            Precinct 4                                             01 
01130060001000057REP       Railroad Commissioner                                   UNDER VOTES                           Precinct 1                                             01 
01130060002000045REP       Railroad Commissioner                                   UNDER VOTES                           Precinct 2                                             01 
01130060003000026REP       Railroad Commissioner                                   UNDER VOTES                           Precinct 3                                             01 
01130060004000035REP       Railroad Commissioner                                   UNDER VOTES                           Precinct 4                                             01 
01140010001000107REP       Chief Justice, Supreme Court                            Robert Talton                         Precinct 1                                             01 
01140010002000065REP       Chief Justice, Supreme Court                            Robert Talton                         Precinct 2                                             01 
01140010003000040REP       Chief Justice, Supreme Court                            Robert Talton                         Precinct 3                                             01 
01140010004000069REP       Chief Justice, Supreme Court                            Robert Talton                         Precinct 4                                             01 
01140020001000084REP       Chief Justice, Supreme Court                            Nathan Hecht                          Precinct 1                                             01 
01140020002000068REP       Chief Justice, Supreme Court                            Nathan Hecht                          Precinct 2                                             01 
01140020003000020REP       Chief Justice, Supreme Court                            Nathan Hecht                          Precinct 3                                             01 
01140020004000047REP       Chief Justice, Supreme Court                            Nathan Hecht                          Precinct 4                                             01 
01140030001000000REP       Chief Justice, Supreme Court                            OVER VOTES                            Precinct 1                                             01 
01140030002000000REP       Chief Justice, Supreme Court                            OVER VOTES                            Precinct 2                                             01 
01140030003000000REP       Chief Justice, Supreme Court                            OVER VOTES                            Precinct 3                                             01 
01140030004000000REP       Chief Justice, Supreme Court                            OVER VOTES                            Precinct 4                                             01 
01140040001000054REP       Chief Justice, Supreme Court                            UNDER VOTES                           Precinct 1                                             01 
01140040002000044REP       Chief Justice, Supreme Court                            UNDER VOTES                           Precinct 2                                             01 
01140040003000023REP       Chief Justice, Supreme Court                            UNDER VOTES                           Precinct 3                                             01 
01140040004000038REP       Chief Justice, Supreme Court                            UNDER VOTES                           Precinct 4                                             01 
01150010001000064REP       Justice, Supreme Court, Place 6                         Joe Pool                              Precinct 1                                             01 
01150010002000043REP       Justice, Supreme Court, Place 6                         Joe Pool                              Precinct 2                                             01 
01150010003000031REP       Justice, Supreme Court, Place 6                         Joe Pool                              Precinct 3                                             01 
01150010004000040REP       Justice, Supreme Court, Place 6                         Joe Pool                              Precinct 4                                             01 
01150020001000125REP       Justice, Supreme Court, Place 6                         Jeff Brown                            Precinct 1                                             01 
01150020002000092REP       Justice, Supreme Court, Place 6                         Jeff Brown                            Precinct 2                                             01 
01150020003000035REP       Justice, Supreme Court, Place 6                         Jeff Brown                            Precinct 3                                             01 
01150020004000077REP       Justice, Supreme Court, Place 6                         Jeff Brown                            Precinct 4                                             01 
01150030001000000REP       Justice, Supreme Court, Place 6                         OVER VOTES                            Precinct 1                                             01 
01150030002000000REP       Justice, Supreme Court, Place 6                         OVER VOTES                            Precinct 2                                             01 
01150030003000000REP       Justice, Supreme Court, Place 6                         OVER VOTES                            Precinct 3                                             01 
01150030004000000REP       Justice, Supreme Court, Place 6                         OVER VOTES                            Precinct 4                                             01 
01150040001000056REP       Justice, Supreme Court, Place 6                         UNDER VOTES                           Precinct 1                                             01 
01150040002000042REP       Justice, Supreme Court, Place 6                         UNDER VOTES                           Precinct 2                                             01 
01150040003000017REP       Justice, Supreme Court, Place 6                         UNDER VOTES                           Precinct 3                                             01 
01150040004000037REP       Justice, Supreme Court, Place 6                         UNDER VOTES                           Precinct 4                                             01 
01160010001000182REP       Justice, Supreme Court, Place 7                         Jeff Boyd                             Precinct 1                                             01 
01160010002000124REP       Justice, Supreme Court, Place 7                         Jeff Boyd                             Precinct 2                                             01 
01160010003000056REP       Justice, Supreme Court, Place 7                         Jeff Boyd                             Precinct 3                                             01 
01160010004000113REP       Justice, Supreme Court, Place 7                         Jeff Boyd                             Precinct 4                                             01 
01160020001000000REP       Justice, Supreme Court, Place 7                         OVER VOTES                            Precinct 1                                             01 
01160020002000000REP       Justice, Supreme Court, Place 7                         OVER VOTES                            Precinct 2                                             01 
01160020003000000REP       Justice, Supreme Court, Place 7                         OVER VOTES                            Precinct 3                                             01 
01160020004000000REP       Justice, Supreme Court, Place 7                         OVER VOTES                            Precinct 4                                             01 
01160030001000063REP       Justice, Supreme Court, Place 7                         UNDER VOTES                           Precinct 1                                             01 
01160030002000053REP       Justice, Supreme Court, Place 7                         UNDER VOTES                           Precinct 2                                             01 
01160030003000027REP       Justice, Supreme Court, Place 7                         UNDER VOTES                           Precinct 3                                             01 
01160030004000041REP       Justice, Supreme Court, Place 7                         UNDER VOTES                           Precinct 4                                             01 
01170010001000127REP       Justice, Supreme Court, Place 8                         Phil Johnson                          Precinct 1                                             01 
01170010002000091REP       Justice, Supreme Court, Place 8                         Phil Johnson                          Precinct 2                                             01 
01170010003000036REP       Justice, Supreme Court, Place 8                         Phil Johnson                          Precinct 3                                             01 
01170010004000070REP       Justice, Supreme Court, Place 8                         Phil Johnson                          Precinct 4                                             01 
01170020001000060REP       Justice, Supreme Court, Place 8                         Sharon McCally                        Precinct 1                                             01 
01170020002000042REP       Justice, Supreme Court, Place 8                         Sharon McCally                        Precinct 2                                             01 
01170020003000024REP       Justice, Supreme Court, Place 8                         Sharon McCally                        Precinct 3                                             01 
01170020004000050REP       Justice, Supreme Court, Place 8                         Sharon McCally                        Precinct 4                                             01 
01170030001000000REP       Justice, Supreme Court, Place 8                         OVER VOTES                            Precinct 1                                             01 
01170030002000000REP       Justice, Supreme Court, Place 8                         OVER VOTES                            Precinct 2                                             01 
01170030003000000REP       Justice, Supreme Court, Place 8                         OVER VOTES                            Precinct 3                                             01 
01170030004000000REP       Justice, Supreme Court, Place 8                         OVER VOTES                            Precinct 4                                             01 
01170040001000058REP       Justice, Supreme Court, Place 8                         UNDER VOTES                           Precinct 1                                             01 
01170040002000044REP       Justice, Supreme Court, Place 8                         UNDER VOTES                           Precinct 2                                             01 
01170040003000023REP       Justice, Supreme Court, Place 8                         UNDER VOTES                           Precinct 3                                             01 
01170040004000034REP       Justice, Supreme Court, Place 8                         UNDER VOTES                           Precinct 4                                             01 
01180010001000082REP       Judge, Court of Criminal Appeals, Pl 3                  Barbara Walther                       Precinct 1                                             01 
01180010002000052REP       Judge, Court of Criminal Appeals, Pl 3                  Barbara Walther                       Precinct 2                                             01 
01180010003000028REP       Judge, Court of Criminal Appeals, Pl 3                  Barbara Walther                       Precinct 3                                             01 
01180010004000045REP       Judge, Court of Criminal Appeals, Pl 3                  Barbara Walther                       Precinct 4                                             01 
01180020001000105REP       Judge, Court of Criminal Appeals, Pl 3                  Bert Richardson                       Precinct 1                                             01 
01180020002000074REP       Judge, Court of Criminal Appeals, Pl 3                  Bert Richardson                       Precinct 2                                             01 
01180020003000031REP       Judge, Court of Criminal Appeals, Pl 3                  Bert Richardson                       Precinct 3                                             01 
01180020004000072REP       Judge, Court of Criminal Appeals, Pl 3                  Bert Richardson                       Precinct 4                                             01 
01180030001000000REP       Judge, Court of Criminal Appeals, Pl 3                  OVER VOTES                            Precinct 1                                             01 
01180030002000000REP       Judge, Court of Criminal Appeals, Pl 3                  OVER VOTES                            Precinct 2                                             01 
01180030003000000REP       Judge, Court of Criminal Appeals, Pl 3                  OVER VOTES                            Precinct 3                                             01 
01180030004000000REP       Judge, Court of Criminal Appeals, Pl 3                  OVER VOTES                            Precinct 4                                             01 
01180040001000058REP       Judge, Court of Criminal Appeals, Pl 3                  UNDER VOTES                           Precinct 1                                             01 
01180040002000051REP       Judge, Court of Criminal Appeals, Pl 3                  UNDER VOTES                           Precinct 2                                             01 
01180040003000024REP       Judge, Court of Criminal Appeals, Pl 3                  UNDER VOTES                           Precinct 3                                             01 
01180040004000037REP       Judge, Court of Criminal Appeals, Pl 3                  UNDER VOTES                           Precinct 4                                             01 
01190010001000073REP       Judge, Court of Criminal Appeals, Pl 4                  Kevin Patrick Yeary                   Precinct 1                                             01 
01190010002000055REP       Judge, Court of Criminal Appeals, Pl 4                  Kevin Patrick Yeary                   Precinct 2                                             01 
01190010003000021REP       Judge, Court of Criminal Appeals, Pl 4                  Kevin Patrick Yeary                   Precinct 3                                             01 
01190010004000051REP       Judge, Court of Criminal Appeals, Pl 4                  Kevin Patrick Yeary                   Precinct 4                                             01 
01190020001000076REP       Judge, Court of Criminal Appeals, Pl 4                  Richard Dean Davis                    Precinct 1                                             01 
01190020002000059REP       Judge, Court of Criminal Appeals, Pl 4                  Richard Dean Davis                    Precinct 2                                             01 
01190020003000027REP       Judge, Court of Criminal Appeals, Pl 4                  Richard Dean Davis                    Precinct 3                                             01 
01190020004000044REP       Judge, Court of Criminal Appeals, Pl 4                  Richard Dean Davis                    Precinct 4                                             01 
01190030001000028REP       Judge, Court of Criminal Appeals, Pl 4                  Jani Jo Wood                          Precinct 1                                             01 
01190030002000016REP       Judge, Court of Criminal Appeals, Pl 4                  Jani Jo Wood                          Precinct 2                                             01 
01190030003000011REP       Judge, Court of Criminal Appeals, Pl 4                  Jani Jo Wood                          Precinct 3                                             01 
01190030004000020REP       Judge, Court of Criminal Appeals, Pl 4                  Jani Jo Wood                          Precinct 4                                             01 
01190040001000000REP       Judge, Court of Criminal Appeals, Pl 4                  OVER VOTES                            Precinct 1                                             01 
01190040002000000REP       Judge, Court of Criminal Appeals, Pl 4                  OVER VOTES                            Precinct 2                                             01 
01190040003000000REP       Judge, Court of Criminal Appeals, Pl 4                  OVER VOTES                            Precinct 3                                             01 
01190040004000000REP       Judge, Court of Criminal Appeals, Pl 4                  OVER VOTES                            Precinct 4                                             01 
01190050001000068REP       Judge, Court of Criminal Appeals, Pl 4                  UNDER VOTES                           Precinct 1                                             01 
01190050002000047REP       Judge, Court of Criminal Appeals, Pl 4                  UNDER VOTES                           Precinct 2                                             01 
01190050003000024REP       Judge, Court of Criminal Appeals, Pl 4                  UNDER VOTES                           Precinct 3                                             01 
01190050004000039REP       Judge, Court of Criminal Appeals, Pl 4                  UNDER VOTES                           Precinct 4                                             01 
01200010001000117REP       Judge, Court of Criminal Appeals, Pl 9                  W.C. "Bud" Kirkendall                 Precinct 1                                             01 
01200010002000086REP       Judge, Court of Criminal Appeals, Pl 9                  W.C. "Bud" Kirkendall                 Precinct 2                                             01 
01200010003000033REP       Judge, Court of Criminal Appeals, Pl 9                  W.C. "Bud" Kirkendall                 Precinct 3                                             01 
01200010004000082REP       Judge, Court of Criminal Appeals, Pl 9                  W.C. "Bud" Kirkendall                 Precinct 4                                             01 
01200020001000070REP       Judge, Court of Criminal Appeals, Pl 9                  David Newell                          Precinct 1                                             01 
01200020002000042REP       Judge, Court of Criminal Appeals, Pl 9                  David Newell                          Precinct 2                                             01 
01200020003000027REP       Judge, Court of Criminal Appeals, Pl 9                  David Newell                          Precinct 3                                             01 
01200020004000032REP       Judge, Court of Criminal Appeals, Pl 9                  David Newell                          Precinct 4                                             01 
01200030001000000REP       Judge, Court of Criminal Appeals, Pl 9                  OVER VOTES                            Precinct 1                                             01 
01200030002000000REP       Judge, Court of Criminal Appeals, Pl 9                  OVER VOTES                            Precinct 2                                             01 
01200030003000000REP       Judge, Court of Criminal Appeals, Pl 9                  OVER VOTES                            Precinct 3                                             01 
01200030004000000REP       Judge, Court of Criminal Appeals, Pl 9                  OVER VOTES                            Precinct 4                                             01 
01200040001000058REP       Judge, Court of Criminal Appeals, Pl 9                  UNDER VOTES                           Precinct 1                                             01 
01200040002000049REP       Judge, Court of Criminal Appeals, Pl 9                  UNDER VOTES                           Precinct 2                                             01 
01200040003000023REP       Judge, Court of Criminal Appeals, Pl 9                  UNDER VOTES                           Precinct 3                                             01 
01200040004000040REP       Judge, Court of Criminal Appeals, Pl 9                  UNDER VOTES                           Precinct 4                                             01 
01210010001000208REP       State Representative, District 82                       Tom Craddick                          Precinct 1                                             01 
01210010002000139REP       State Representative, District 82                       Tom Craddick                          Precinct 2                                             01 
01210010003000064REP       State Representative, District 82                       Tom Craddick                          Precinct 3                                             01 
01210010004000118REP       State Representative, District 82                       Tom Craddick                          Precinct 4                                             01 
01210020001000000REP       State Representative, District 82                       OVER VOTES                            Precinct 1                                             01 
01210020002000000REP       State Representative, District 82                       OVER VOTES                            Precinct 2                                             01 
01210020003000000REP       State Representative, District 82                       OVER VOTES                            Precinct 3                                             01 
01210020004000000REP       State Representative, District 82                       OVER VOTES                            Precinct 4                                             01 
01210030001000037REP       State Representative, District 82                       UNDER VOTES                           Precinct 1                                             01 
01210030002000038REP       State Representative, District 82                       UNDER VOTES                           Precinct 2                                             01 
01210030003000019REP       State Representative, District 82                       UNDER VOTES                           Precinct 3                                             01 
01210030004000036REP       State Representative, District 82                       UNDER VOTES                           Precinct 4                                             01 
01220010001000162REP       District Judge, 109th Judicial District                 Martin B. Muncy                       Precinct 1                                             01 
01220010002000116REP       District Judge, 109th Judicial District                 Martin B. Muncy                       Precinct 2                                             01 
01220010003000049REP       District Judge, 109th Judicial District                 Martin B. Muncy                       Precinct 3                                             01 
01220010004000092REP       District Judge, 109th Judicial District                 Martin B. Muncy                       Precinct 4                                             01 
01220020001000000REP       District Judge, 109th Judicial District                 OVER VOTES                            Precinct 1                                             01 
01220020002000000REP       District Judge, 109th Judicial District                 OVER VOTES                            Precinct 2                                             01 
01220020003000000REP       District Judge, 109th Judicial District                 OVER VOTES                            Precinct 3                                             01 
01220020004000000REP       District Judge, 109th Judicial District                 OVER VOTES                            Precinct 4                                             01 
01220030001000083REP       District Judge, 109th Judicial District                 UNDER VOTES                           Precinct 1                                             01 
01220030002000061REP       District Judge, 109th Judicial District                 UNDER VOTES                           Precinct 2                                             01 
01220030003000034REP       District Judge, 109th Judicial District                 UNDER VOTES                           Precinct 3                                             01 
01220030004000062REP       District Judge, 109th Judicial District                 UNDER VOTES                           Precinct 4                                             01 
01300010001000009DEM       United States Senator                                   David M. Alameel                      Precinct 1                                             01 
01300010002000004DEM       United States Senator                                   David M. Alameel                      Precinct 2                                             01 
01300010003000012DEM       United States Senator                                   David M. Alameel                      Precinct 3                                             01 
01300010004000006DEM       United States Senator                                   David M. Alameel                      Precinct 4                                             01 
01300020001000004DEM       United States Senator                                   Maxey Marie Scherr                    Precinct 1                                             01 
01300020002000002DEM       United States Senator                                   Maxey Marie Scherr                    Precinct 2                                             01 
01300020003000006DEM       United States Senator                                   Maxey Marie Scherr                    Precinct 3                                             01 
01300020004000002DEM       United States Senator                                   Maxey Marie Scherr                    Precinct 4                                             01 
01300030001000004DEM       United States Senator                                   Kesha Rogers                          Precinct 1                                             01 
01300030002000013DEM       United States Senator                                   Kesha Rogers                          Precinct 2                                             01 
01300030003000009DEM       United States Senator                                   Kesha Rogers                          Precinct 3                                             01 
01300030004000001DEM       United States Senator                                   Kesha Rogers                          Precinct 4                                             01 
01300040001000001DEM       United States Senator                                   Harry Kim                             Precinct 1                                             01 
01300040002000002DEM       United States Senator                                   Harry Kim                             Precinct 2                                             01 
01300040003000002DEM       United States Senator                                   Harry Kim                             Precinct 3                                             01 
01300040004000001DEM       United States Senator                                   Harry Kim                             Precinct 4                                             01 
01300050001000001DEM       United States Senator                                   Michael "Fjet" Fjetland               Precinct 1                                             01 
01300050002000004DEM       United States Senator                                   Michael "Fjet" Fjetland               Precinct 2                                             01 
01300050003000001DEM       United States Senator                                   Michael "Fjet" Fjetland               Precinct 3                                             01 
01300050004000000DEM       United States Senator                                   Michael "Fjet" Fjetland               Precinct 4                                             01 
01300060001000000DEM       United States Senator                                   OVER VOTES                            Precinct 1                                             01 
01300060002000000DEM       United States Senator                                   OVER VOTES                            Precinct 2                                             01 
01300060003000000DEM       United States Senator                                   OVER VOTES                            Precinct 3                                             01 
01300060004000000DEM       United States Senator                                   OVER VOTES                            Precinct 4                                             01 
01300070001000005DEM       United States Senator                                   UNDER VOTES                           Precinct 1                                             01 
01300070002000005DEM       United States Senator                                   UNDER VOTES                           Precinct 2                                             01 
01300070003000004DEM       United States Senator                                   UNDER VOTES                           Precinct 3                                             01 
01300070004000000DEM       United States Senator                                   UNDER VOTES                           Precinct 4                                             01 
01310010001000020DEM       United States Representative, Dist 23                   Pete P. Gallego                       Precinct 1                                             01 
01310010002000023DEM       United States Representative, Dist 23                   Pete P. Gallego                       Precinct 2                                             01 
01310010003000028DEM       United States Representative, Dist 23                   Pete P. Gallego                       Precinct 3                                             01 
01310010004000010DEM       United States Representative, Dist 23                   Pete P. Gallego                       Precinct 4                                             01 
01310020001000000DEM       United States Representative, Dist 23                   OVER VOTES                            Precinct 1                                             01 
01310020002000000DEM       United States Representative, Dist 23                   OVER VOTES                            Precinct 2                                             01 
01310020003000000DEM       United States Representative, Dist 23                   OVER VOTES                            Precinct 3                                             01 
01310020004000000DEM       United States Representative, Dist 23                   OVER VOTES                            Precinct 4                                             01 
01310030001000004DEM       United States Representative, Dist 23                   UNDER VOTES                           Precinct 1                                             01 
01310030002000007DEM       United States Representative, Dist 23                   UNDER VOTES                           Precinct 2                                             01 
01310030003000006DEM       United States Representative, Dist 23                   UNDER VOTES                           Precinct 3                                             01 
01310030004000000DEM       United States Representative, Dist 23                   UNDER VOTES                           Precinct 4                                             01 
01320010001000007DEM       Governor                                                Reynaldo "Ray" Madrigal               Precinct 1                                             01 
01320010002000011DEM       Governor                                                Reynaldo "Ray" Madrigal               Precinct 2                                             01 
01320010003000014DEM       Governor                                                Reynaldo "Ray" Madrigal               Precinct 3                                             01 
01320010004000002DEM       Governor                                                Reynaldo "Ray" Madrigal               Precinct 4                                             01 
01320020001000013DEM       Governor                                                Wendy R. Davis                        Precinct 1                                             01 
01320020002000013DEM       Governor                                                Wendy R. Davis                        Precinct 2                                             01 
01320020003000018DEM       Governor                                                Wendy R. Davis                        Precinct 3                                             01 
01320020004000006DEM       Governor                                                Wendy R. Davis                        Precinct 4                                             01 
01320030001000000DEM       Governor                                                OVER VOTES                            Precinct 1                                             01 
01320030002000000DEM       Governor                                                OVER VOTES                            Precinct 2                                             01 
01320030003000000DEM       Governor                                                OVER VOTES                            Precinct 3                                             01 
01320030004000000DEM       Governor                                                OVER VOTES                            Precinct 4                                             01 
01320040001000004DEM       Governor                                                UNDER VOTES                           Precinct 1                                             01 
01320040002000006DEM       Governor                                                UNDER VOTES                           Precinct 2                                             01 
01320040003000002DEM       Governor                                                UNDER VOTES                           Precinct 3                                             01 
01320040004000002DEM       Governor                                                UNDER VOTES                           Precinct 4                                             01 
01330010001000016DEM       Lieutenant Governor                                     Leticia Van de Putte                  Precinct 1                                             01 
01330010002000019DEM       Lieutenant Governor                                     Leticia Van de Putte                  Precinct 2                                             01 
01330010003000029DEM       Lieutenant Governor                                     Leticia Van de Putte                  Precinct 3                                             01 
01330010004000008DEM       Lieutenant Governor                                     Leticia Van de Putte                  Precinct 4                                             01 
01330020001000000DEM       Lieutenant Governor                                     OVER VOTES                            Precinct 1                                             01 
01330020002000000DEM       Lieutenant Governor                                     OVER VOTES                            Precinct 2                                             01 
01330020003000000DEM       Lieutenant Governor                                     OVER VOTES                            Precinct 3                                             01 
01330020004000000DEM       Lieutenant Governor                                     OVER VOTES                            Precinct 4                                             01 
01330030001000008DEM       Lieutenant Governor                                     UNDER VOTES                           Precinct 1                                             01 
01330030002000011DEM       Lieutenant Governor                                     UNDER VOTES                           Precinct 2                                             01 
01330030003000005DEM       Lieutenant Governor                                     UNDER VOTES                           Precinct 3                                             01 
01330030004000002DEM       Lieutenant Governor                                     UNDER VOTES                           Precinct 4                                             01 
01340010001000015DEM       Attorney General                                        Sam Houston                           Precinct 1                                             01 
01340010002000023DEM       Attorney General                                        Sam Houston                           Precinct 2                                             01 
01340010003000027DEM       Attorney General                                        Sam Houston                           Precinct 3                                             01 
01340010004000008DEM       Attorney General                                        Sam Houston                           Precinct 4                                             01 
01340020001000000DEM       Attorney General                                        OVER VOTES                            Precinct 1                                             01 
01340020002000000DEM       Attorney General                                        OVER VOTES                            Precinct 2                                             01 
01340020003000000DEM       Attorney General                                        OVER VOTES                            Precinct 3                                             01 
01340020004000000DEM       Attorney General                                        OVER VOTES                            Precinct 4                                             01 
01340030001000009DEM       Attorney General                                        UNDER VOTES                           Precinct 1                                             01 
01340030002000007DEM       Attorney General                                        UNDER VOTES                           Precinct 2                                             01 
01340030003000007DEM       Attorney General                                        UNDER VOTES                           Precinct 3                                             01 
01340030004000002DEM       Attorney General                                        UNDER VOTES                           Precinct 4                                             01 
01350010001000015DEM       Comptroller of Public Accounts                          Mike Collier                          Precinct 1                                             01 
01350010002000020DEM       Comptroller of Public Accounts                          Mike Collier                          Precinct 2                                             01 
01350010003000029DEM       Comptroller of Public Accounts                          Mike Collier                          Precinct 3                                             01 
01350010004000007DEM       Comptroller of Public Accounts                          Mike Collier                          Precinct 4                                             01 
01350020001000000DEM       Comptroller of Public Accounts                          OVER VOTES                            Precinct 1                                             01 
01350020002000000DEM       Comptroller of Public Accounts                          OVER VOTES                            Precinct 2                                             01 
01350020003000000DEM       Comptroller of Public Accounts                          OVER VOTES                            Precinct 3                                             01 
01350020004000000DEM       Comptroller of Public Accounts                          OVER VOTES                            Precinct 4                                             01 
01350030001000009DEM       Comptroller of Public Accounts                          UNDER VOTES                           Precinct 1                                             01 
01350030002000010DEM       Comptroller of Public Accounts                          UNDER VOTES                           Precinct 2                                             01 
01350030003000005DEM       Comptroller of Public Accounts                          UNDER VOTES                           Precinct 3                                             01 
01350030004000003DEM       Comptroller of Public Accounts                          UNDER VOTES                           Precinct 4                                             01 
01360010001000015DEM       Commissioner of the General Land Office                 John Cook                             Precinct 1                                             01 
01360010002000020DEM       Commissioner of the General Land Office                 John Cook                             Precinct 2                                             01 
01360010003000027DEM       Commissioner of the General Land Office                 John Cook                             Precinct 3                                             01 
01360010004000007DEM       Commissioner of the General Land Office                 John Cook                             Precinct 4                                             01 
01360020001000000DEM       Commissioner of the General Land Office                 OVER VOTES                            Precinct 1                                             01 
01360020002000000DEM       Commissioner of the General Land Office                 OVER VOTES                            Precinct 2                                             01 
01360020003000000DEM       Commissioner of the General Land Office                 OVER VOTES                            Precinct 3                                             01 
01360020004000000DEM       Commissioner of the General Land Office                 OVER VOTES                            Precinct 4                                             01 
01360030001000009DEM       Commissioner of the General Land Office                 UNDER VOTES                           Precinct 1                                             01 
01360030002000010DEM       Commissioner of the General Land Office                 UNDER VOTES                           Precinct 2                                             01 
01360030003000007DEM       Commissioner of the General Land Office                 UNDER VOTES                           Precinct 3                                             01 
01360030004000003DEM       Commissioner of the General Land Office                 UNDER VOTES                           Precinct 4                                             01 
01370010001000003DEM       Commissioner of Agriculture                             Hugh Asa Fitzsimons III               Precinct 1                                             01 
01370010002000001DEM       Commissioner of Agriculture                             Hugh Asa Fitzsimons III               Precinct 2                                             01 
01370010003000006DEM       Commissioner of Agriculture                             Hugh Asa Fitzsimons III               Precinct 3                                             01 
01370010004000000DEM       Commissioner of Agriculture                             Hugh Asa Fitzsimons III               Precinct 4                                             01 
01370020001000004DEM       Commissioner of Agriculture                             Richard "Kinky" Friedman              Precinct 1                                             01 
01370020002000012DEM       Commissioner of Agriculture                             Richard "Kinky" Friedman              Precinct 2                                             01 
01370020003000013DEM       Commissioner of Agriculture                             Richard "Kinky" Friedman              Precinct 3                                             01 
01370020004000008DEM       Commissioner of Agriculture                             Richard "Kinky" Friedman              Precinct 4                                             01 
01370030001000010DEM       Commissioner of Agriculture                             Jim Hogan                             Precinct 1                                             01 
01370030002000011DEM       Commissioner of Agriculture                             Jim Hogan                             Precinct 2                                             01 
01370030003000009DEM       Commissioner of Agriculture                             Jim Hogan                             Precinct 3                                             01 
01370030004000002DEM       Commissioner of Agriculture                             Jim Hogan                             Precinct 4                                             01 
01370040001000000DEM       Commissioner of Agriculture                             OVER VOTES                            Precinct 1                                             01 
01370040002000000DEM       Commissioner of Agriculture                             OVER VOTES                            Precinct 2                                             01 
01370040003000000DEM       Commissioner of Agriculture                             OVER VOTES                            Precinct 3                                             01 
01370040004000000DEM       Commissioner of Agriculture                             OVER VOTES                            Precinct 4                                             01 
01370050001000007DEM       Commissioner of Agriculture                             UNDER VOTES                           Precinct 1                                             01 
01370050002000006DEM       Commissioner of Agriculture                             UNDER VOTES                           Precinct 2                                             01 
01370050003000006DEM       Commissioner of Agriculture                             UNDER VOTES                           Precinct 3                                             01 
01370050004000000DEM       Commissioner of Agriculture                             UNDER VOTES                           Precinct 4                                             01 
01380010001000010DEM       Railroad Commissioner                                   Steve Brown                           Precinct 1                                             01 
01380010002000017DEM       Railroad Commissioner                                   Steve Brown                           Precinct 2                                             01 
01380010003000020DEM       Railroad Commissioner                                   Steve Brown                           Precinct 3                                             01 
01380010004000005DEM       Railroad Commissioner                                   Steve Brown                           Precinct 4                                             01 
01380020001000008DEM       Railroad Commissioner                                   Dale Henry                            Precinct 1                                             01 
01380020002000006DEM       Railroad Commissioner                                   Dale Henry                            Precinct 2                                             01 
01380020003000008DEM       Railroad Commissioner                                   Dale Henry                            Precinct 3                                             01 
01380020004000005DEM       Railroad Commissioner                                   Dale Henry                            Precinct 4                                             01 
01380030001000000DEM       Railroad Commissioner                                   OVER VOTES                            Precinct 1                                             01 
01380030002000000DEM       Railroad Commissioner                                   OVER VOTES                            Precinct 2                                             01 
01380030003000000DEM       Railroad Commissioner                                   OVER VOTES                            Precinct 3                                             01 
01380030004000000DEM       Railroad Commissioner                                   OVER VOTES                            Precinct 4                                             01 
01380040001000006DEM       Railroad Commissioner                                   UNDER VOTES                           Precinct 1                                             01 
01380040002000007DEM       Railroad Commissioner                                   UNDER VOTES                           Precinct 2                                             01 
01380040003000006DEM       Railroad Commissioner                                   UNDER VOTES                           Precinct 3                                             01 
01380040004000000DEM       Railroad Commissioner                                   UNDER VOTES                           Precinct 4                                             01 
01390010001000013DEM       Chief Justice, Supreme Court                            William Moody                         Precinct 1                                             01 
01390010002000025DEM       Chief Justice, Supreme Court                            William Moody                         Precinct 2                                             01 
01390010003000027DEM       Chief Justice, Supreme Court                            William Moody                         Precinct 3                                             01 
01390010004000007DEM       Chief Justice, Supreme Court                            William Moody                         Precinct 4                                             01 
01390020001000000DEM       Chief Justice, Supreme Court                            OVER VOTES                            Precinct 1                                             01 
01390020002000000DEM       Chief Justice, Supreme Court                            OVER VOTES                            Precinct 2                                             01 
01390020003000000DEM       Chief Justice, Supreme Court                            OVER VOTES                            Precinct 3                                             01 
01390020004000000DEM       Chief Justice, Supreme Court                            OVER VOTES                            Precinct 4                                             01 
01390030001000011DEM       Chief Justice, Supreme Court                            UNDER VOTES                           Precinct 1                                             01 
01390030002000005DEM       Chief Justice, Supreme Court                            UNDER VOTES                           Precinct 2                                             01 
01390030003000007DEM       Chief Justice, Supreme Court                            UNDER VOTES                           Precinct 3                                             01 
01390030004000003DEM       Chief Justice, Supreme Court                            UNDER VOTES                           Precinct 4                                             01 
01400010001000013DEM       Justice, Supreme Court, Place 6                         Lawrence Edward Meyers                Precinct 1                                             01 
01400010002000021DEM       Justice, Supreme Court, Place 6                         Lawrence Edward Meyers                Precinct 2                                             01 
01400010003000024DEM       Justice, Supreme Court, Place 6                         Lawrence Edward Meyers                Precinct 3                                             01 
01400010004000006DEM       Justice, Supreme Court, Place 6                         Lawrence Edward Meyers                Precinct 4                                             01 
01400020001000000DEM       Justice, Supreme Court, Place 6                         OVER VOTES                            Precinct 1                                             01 
01400020002000000DEM       Justice, Supreme Court, Place 6                         OVER VOTES                            Precinct 2                                             01 
01400020003000000DEM       Justice, Supreme Court, Place 6                         OVER VOTES                            Precinct 3                                             01 
01400020004000000DEM       Justice, Supreme Court, Place 6                         OVER VOTES                            Precinct 4                                             01 
01400030001000011DEM       Justice, Supreme Court, Place 6                         UNDER VOTES                           Precinct 1                                             01 
01400030002000009DEM       Justice, Supreme Court, Place 6                         UNDER VOTES                           Precinct 2                                             01 
01400030003000010DEM       Justice, Supreme Court, Place 6                         UNDER VOTES                           Precinct 3                                             01 
01400030004000004DEM       Justice, Supreme Court, Place 6                         UNDER VOTES                           Precinct 4                                             01 
01410010001000014DEM       Justice, Supreme Court, Place 7                         Gina Benavides                        Precinct 1                                             01 
01410010002000021DEM       Justice, Supreme Court, Place 7                         Gina Benavides                        Precinct 2                                             01 
01410010003000028DEM       Justice, Supreme Court, Place 7                         Gina Benavides                        Precinct 3                                             01 
01410010004000009DEM       Justice, Supreme Court, Place 7                         Gina Benavides                        Precinct 4                                             01 
01410020001000000DEM       Justice, Supreme Court, Place 7                         OVER VOTES                            Precinct 1                                             01 
01410020002000000DEM       Justice, Supreme Court, Place 7                         OVER VOTES                            Precinct 2                                             01 
01410020003000000DEM       Justice, Supreme Court, Place 7                         OVER VOTES                            Precinct 3                                             01 
01410020004000000DEM       Justice, Supreme Court, Place 7                         OVER VOTES                            Precinct 4                                             01 
01410030001000010DEM       Justice, Supreme Court, Place 7                         UNDER VOTES                           Precinct 1                                             01 
01410030002000009DEM       Justice, Supreme Court, Place 7                         UNDER VOTES                           Precinct 2                                             01 
01410030003000006DEM       Justice, Supreme Court, Place 7                         UNDER VOTES                           Precinct 3                                             01 
01410030004000001DEM       Justice, Supreme Court, Place 7                         UNDER VOTES                           Precinct 4                                             01 
01420010001000011DEM       Judge, Court of Criminal Appeals, Pl 3                  John Granberg                         Precinct 1                                             01 
01420010002000022DEM       Judge, Court of Criminal Appeals, Pl 3                  John Granberg                         Precinct 2                                             01 
01420010003000024DEM       Judge, Court of Criminal Appeals, Pl 3                  John Granberg                         Precinct 3                                             01 
01420010004000006DEM       Judge, Court of Criminal Appeals, Pl 3                  John Granberg                         Precinct 4                                             01 
01420020001000000DEM       Judge, Court of Criminal Appeals, Pl 3                  OVER VOTES                            Precinct 1                                             01 
01420020002000000DEM       Judge, Court of Criminal Appeals, Pl 3                  OVER VOTES                            Precinct 2                                             01 
01420020003000000DEM       Judge, Court of Criminal Appeals, Pl 3                  OVER VOTES                            Precinct 3                                             01 
01420020004000000DEM       Judge, Court of Criminal Appeals, Pl 3                  OVER VOTES                            Precinct 4                                             01 
01420030001000013DEM       Judge, Court of Criminal Appeals, Pl 3                  UNDER VOTES                           Precinct 1                                             01 
01420030002000008DEM       Judge, Court of Criminal Appeals, Pl 3                  UNDER VOTES                           Precinct 2                                             01 
01420030003000010DEM       Judge, Court of Criminal Appeals, Pl 3                  UNDER VOTES                           Precinct 3                                             01 
01420030004000004DEM       Judge, Court of Criminal Appeals, Pl 3                  UNDER VOTES                           Precinct 4                                             01 
01430010001000007DEM       Chief Justice, 8th Court of Appeals Dist                Mario Alberto Gonzalez                Precinct 1                                             01 
01430010002000007DEM       Chief Justice, 8th Court of Appeals Dist                Mario Alberto Gonzalez                Precinct 2                                             01 
01430010003000013DEM       Chief Justice, 8th Court of Appeals Dist                Mario Alberto Gonzalez                Precinct 3                                             01 
01430010004000002DEM       Chief Justice, 8th Court of Appeals Dist                Mario Alberto Gonzalez                Precinct 4                                             01 
01430020001000014DEM       Chief Justice, 8th Court of Appeals Dist                Ann Crawford McClure                  Precinct 1                                             01 
01430020002000017DEM       Chief Justice, 8th Court of Appeals Dist                Ann Crawford McClure                  Precinct 2                                             01 
01430020003000016DEM       Chief Justice, 8th Court of Appeals Dist                Ann Crawford McClure                  Precinct 3                                             01 
01430020004000007DEM       Chief Justice, 8th Court of Appeals Dist                Ann Crawford McClure                  Precinct 4                                             01 
