01010010001000000          REGISTERED VOTERS - TOTAL                               REGISTERED VOTERS - TOTAL             PRECINCT 1                                             00 
01010010002000000          REGISTERED VOTERS - TOTAL                               REGISTERED VOTERS - TOTAL             PRECINCT 2 & 8                                         00 
01010010003000000          REGISTERED VOTERS - TOTAL                               REGISTERED VOTERS - TOTAL             PRECINCT 3, 5, 6 & 9                                   00 
01010010004000000          REGISTERED VOTERS - TOTAL                               REGISTERED VOTERS - TOTAL             PRECINCT 4                                             00 
01010010005000000          REGISTERED VOTERS - TOTAL                               REGISTERED VOTERS - TOTAL             PRECINCT 7                                             00 
01020010001000065          BALLOTS CAST - TOTAL                                    BALLOTS CAST - TOTAL                  PRECINCT 1                                             00 
01020010002000166          BALLOTS CAST - TOTAL                                    BALLOTS CAST - TOTAL                  PRECINCT 2 & 8                                         00 
01020010003000143          BALLOTS CAST - TOTAL                                    BALLOTS CAST - TOTAL                  PRECINCT 3, 5, 6 & 9                                   00 
01020010004000009          BALLOTS CAST - TOTAL                                    BALLOTS CAST - TOTAL                  PRECINCT 4                                             00 
01020010005000074          BALLOTS CAST - TOTAL                                    BALLOTS CAST - TOTAL                  PRECINCT 7                                             00 
01030010001000001NON       United States Senator                                   Chris Mapp                            PRECINCT 1                                             01 
01030010002000009NON       United States Senator                                   Chris Mapp                            PRECINCT 2 & 8                                         01 
01030010003000002NON       United States Senator                                   Chris Mapp                            PRECINCT 3, 5, 6 & 9                                   01 
01030010004000000NON       United States Senator                                   Chris Mapp                            PRECINCT 4                                             01 
01030010005000003NON       United States Senator                                   Chris Mapp                            PRECINCT 7                                             01 
01030020001000002NON       United States Senator                                   Reid Reasor                           PRECINCT 1                                             01 
01030020002000001NON       United States Senator                                   Reid Reasor                           PRECINCT 2 & 8                                         01 
01030020003000005NON       United States Senator                                   Reid Reasor                           PRECINCT 3, 5, 6 & 9                                   01 
01030020004000000NON       United States Senator                                   Reid Reasor                           PRECINCT 4                                             01 
01030020005000001NON       United States Senator                                   Reid Reasor                           PRECINCT 7                                             01 
01030030001000002NON       United States Senator                                   Curt Cleaver                          PRECINCT 1                                             01 
01030030002000004NON       United States Senator                                   Curt Cleaver                          PRECINCT 2 & 8                                         01 
01030030003000002NON       United States Senator                                   Curt Cleaver                          PRECINCT 3, 5, 6 & 9                                   01 
01030030004000000NON       United States Senator                                   Curt Cleaver                          PRECINCT 4                                             01 
01030030005000001NON       United States Senator                                   Curt Cleaver                          PRECINCT 7                                             01 
01030040001000040NON       United States Senator                                   John Cornyn                           PRECINCT 1                                             01 
01030040002000088NON       United States Senator                                   John Cornyn                           PRECINCT 2 & 8                                         01 
01030040003000088NON       United States Senator                                   John Cornyn                           PRECINCT 3, 5, 6 & 9                                   01 
01030040004000008NON       United States Senator                                   John Cornyn                           PRECINCT 4                                             01 
01030040005000045NON       United States Senator                                   John Cornyn                           PRECINCT 7                                             01 
01030050001000000NON       United States Senator                                   Ken Cope                              PRECINCT 1                                             01 
01030050002000008NON       United States Senator                                   Ken Cope                              PRECINCT 2 & 8                                         01 
01030050003000004NON       United States Senator                                   Ken Cope                              PRECINCT 3, 5, 6 & 9                                   01 
01030050004000000NON       United States Senator                                   Ken Cope                              PRECINCT 4                                             01 
01030050005000006NON       United States Senator                                   Ken Cope                              PRECINCT 7                                             01 
01030060001000006NON       United States Senator                                   Steve Stockman                        PRECINCT 1                                             01 
01030060002000019NON       United States Senator                                   Steve Stockman                        PRECINCT 2 & 8                                         01 
01030060003000013NON       United States Senator                                   Steve Stockman                        PRECINCT 3, 5, 6 & 9                                   01 
01030060004000000NON       United States Senator                                   Steve Stockman                        PRECINCT 4                                             01 
01030060005000008NON       United States Senator                                   Steve Stockman                        PRECINCT 7                                             01 
01030070001000005NON       United States Senator                                   Linda Vega                            PRECINCT 1                                             01 
01030070002000008NON       United States Senator                                   Linda Vega                            PRECINCT 2 & 8                                         01 
01030070003000007NON       United States Senator                                   Linda Vega                            PRECINCT 3, 5, 6 & 9                                   01 
01030070004000000NON       United States Senator                                   Linda Vega                            PRECINCT 4                                             01 
01030070005000003NON       United States Senator                                   Linda Vega                            PRECINCT 7                                             01 
01030080001000006NON       United States Senator                                   Dwayne Stovall                        PRECINCT 1                                             01 
01030080002000015NON       United States Senator                                   Dwayne Stovall                        PRECINCT 2 & 8                                         01 
01030080003000015NON       United States Senator                                   Dwayne Stovall                        PRECINCT 3, 5, 6 & 9                                   01 
01030080004000001NON       United States Senator                                   Dwayne Stovall                        PRECINCT 4                                             01 
01030080005000006NON       United States Senator                                   Dwayne Stovall                        PRECINCT 7                                             01 
01040010001000018NON       United States Representative, Dist 13                   Elaine Hays                           PRECINCT 1                                             01 
01040010002000030NON       United States Representative, Dist 13                   Elaine Hays                           PRECINCT 2 & 8                                         01 
01040010003000029NON       United States Representative, Dist 13                   Elaine Hays                           PRECINCT 3, 5, 6 & 9                                   01 
01040010004000000NON       United States Representative, Dist 13                   Elaine Hays                           PRECINCT 4                                             01 
01040010005000010NON       United States Representative, Dist 13                   Elaine Hays                           PRECINCT 7                                             01 
01040020001000009NON       United States Representative, Dist 13                   Pam Barlow                            PRECINCT 1                                             01 
01040020002000025NON       United States Representative, Dist 13                   Pam Barlow                            PRECINCT 2 & 8                                         01 
01040020003000022NON       United States Representative, Dist 13                   Pam Barlow                            PRECINCT 3, 5, 6 & 9                                   01 
01040020004000002NON       United States Representative, Dist 13                   Pam Barlow                            PRECINCT 4                                             01 
01040020005000009NON       United States Representative, Dist 13                   Pam Barlow                            PRECINCT 7                                             01 
01040030001000038NON       United States Representative, Dist 13                   Mac Thornberry                        PRECINCT 1                                             01 
01040030002000104NON       United States Representative, Dist 13                   Mac Thornberry                        PRECINCT 2 & 8                                         01 
01040030003000091NON       United States Representative, Dist 13                   Mac Thornberry                        PRECINCT 3, 5, 6 & 9                                   01 
01040030004000007NON       United States Representative, Dist 13                   Mac Thornberry                        PRECINCT 4                                             01 
01040030005000053NON       United States Representative, Dist 13                   Mac Thornberry                        PRECINCT 7                                             01 
01050010001000005NON       Govenor                                                 Lisa Fritsch                          PRECINCT 1                                             01 
01050010002000010NON       Govenor                                                 Lisa Fritsch                          PRECINCT 2 & 8                                         01 
01050010003000010NON       Govenor                                                 Lisa Fritsch                          PRECINCT 3, 5, 6 & 9                                   01 
01050010004000000NON       Govenor                                                 Lisa Fritsch                          PRECINCT 4                                             01 
01050010005000005NON       Govenor                                                 Lisa Fritsch                          PRECINCT 7                                             01 
01050020001000054NON       Govenor                                                 Greg Abbott                           PRECINCT 1                                             01 
01050020002000134NON       Govenor                                                 Greg Abbott                           PRECINCT 2 & 8                                         01 
01050020003000118NON       Govenor                                                 Greg Abbott                           PRECINCT 3, 5, 6 & 9                                   01 
01050020004000009NON       Govenor                                                 Greg Abbott                           PRECINCT 4                                             01 
01050020005000062NON       Govenor                                                 Greg Abbott                           PRECINCT 7                                             01 
01050030001000002NON       Govenor                                                 SECEDE Kilgore                        PRECINCT 1                                             01 
01050030002000004NON       Govenor                                                 SECEDE Kilgore                        PRECINCT 2 & 8                                         01 
01050030003000004NON       Govenor                                                 SECEDE Kilgore                        PRECINCT 3, 5, 6 & 9                                   01 
01050030004000000NON       Govenor                                                 SECEDE Kilgore                        PRECINCT 4                                             01 
01050030005000002NON       Govenor                                                 SECEDE Kilgore                        PRECINCT 7                                             01 
01050040001000002NON       Govenor                                                 Miriam Martinez                       PRECINCT 1                                             01 
01050040002000004NON       Govenor                                                 Miriam Martinez                       PRECINCT 2 & 8                                         01 
01050040003000006NON       Govenor                                                 Miriam Martinez                       PRECINCT 3, 5, 6 & 9                                   01 
01050040004000000NON       Govenor                                                 Miriam Martinez                       PRECINCT 4                                             01 
01050040005000003NON       Govenor                                                 Miriam Martinez                       PRECINCT 7                                             01 
01060010001000016NON       Lieutenant Governor                                     Todd Staples                          PRECINCT 1                                             01 
01060010002000049NON       Lieutenant Governor                                     Todd Staples                          PRECINCT 2 & 8                                         01 
01060010003000043NON       Lieutenant Governor                                     Todd Staples                          PRECINCT 3, 5, 6 & 9                                   01 
01060010004000002NON       Lieutenant Governor                                     Todd Staples                          PRECINCT 4                                             01 
01060010005000028NON       Lieutenant Governor                                     Todd Staples                          PRECINCT 7                                             01 
01060020001000006NON       Lieutenant Governor                                     Jerry Patterson                       PRECINCT 1                                             01 
01060020002000021NON       Lieutenant Governor                                     Jerry Patterson                       PRECINCT 2 & 8                                         01 
01060020003000015NON       Lieutenant Governor                                     Jerry Patterson                       PRECINCT 3, 5, 6 & 9                                   01 
01060020004000001NON       Lieutenant Governor                                     Jerry Patterson                       PRECINCT 4                                             01 
01060020005000005NON       Lieutenant Governor                                     Jerry Patterson                       PRECINCT 7                                             01 
01060030001000025NON       Lieutenant Governor                                     Dan Patrick                           PRECINCT 1                                             01 
01060030002000042NON       Lieutenant Governor                                     Dan Patrick                           PRECINCT 2 & 8                                         01 
01060030003000044NON       Lieutenant Governor                                     Dan Patrick                           PRECINCT 3, 5, 6 & 9                                   01 
01060030004000004NON       Lieutenant Governor                                     Dan Patrick                           PRECINCT 4                                             01 
01060030005000019NON       Lieutenant Governor                                     Dan Patrick                           PRECINCT 7                                             01 
01060040001000018NON       Lieutenant Governor                                     David Dewhurst                        PRECINCT 1                                             01 
01060040002000044NON       Lieutenant Governor                                     David Dewhurst                        PRECINCT 2 & 8                                         01 
01060040003000038NON       Lieutenant Governor                                     David Dewhurst                        PRECINCT 3, 5, 6 & 9                                   01 
01060040004000002NON       Lieutenant Governor                                     David Dewhurst                        PRECINCT 4                                             01 
01060040005000020NON       Lieutenant Governor                                     David Dewhurst                        PRECINCT 7                                             01 
01070010001000015NON       Attorney General                                        Ken Paxton                            PRECINCT 1                                             01 
01070010002000057NON       Attorney General                                        Ken Paxton                            PRECINCT 2 & 8                                         01 
01070010003000055NON       Attorney General                                        Ken Paxton                            PRECINCT 3, 5, 6 & 9                                   01 
01070010004000003NON       Attorney General                                        Ken Paxton                            PRECINCT 4                                             01 
01070010005000028NON       Attorney General                                        Ken Paxton                            PRECINCT 7                                             01 
01070020001000020NON       Attorney General                                        Barry Smitherman                      PRECINCT 1                                             01 
01070020002000043NON       Attorney General                                        Barry Smitherman                      PRECINCT 2 & 8                                         01 
01070020003000034NON       Attorney General                                        Barry Smitherman                      PRECINCT 3, 5, 6 & 9                                   01 
01070020004000003NON       Attorney General                                        Barry Smitherman                      PRECINCT 4                                             01 
01070020005000019NON       Attorney General                                        Barry Smitherman                      PRECINCT 7                                             01 
01070030001000027NON       Attorney General                                        Dan Branch                            PRECINCT 1                                             01 
01070030002000050NON       Attorney General                                        Dan Branch                            PRECINCT 2 & 8                                         01 
01070030003000040NON       Attorney General                                        Dan Branch                            PRECINCT 3, 5, 6 & 9                                   01 
01070030004000003NON       Attorney General                                        Dan Branch                            PRECINCT 4                                             01 
01070030005000023NON       Attorney General                                        Dan Branch                            PRECINCT 7                                             01 
01080010001000010NON       Comptroller of Public Accounts                          Debra Medina                          PRECINCT 1                                             01 
01080010002000034NON       Comptroller of Public Accounts                          Debra Medina                          PRECINCT 2 & 8                                         01 
01080010003000028NON       Comptroller of Public Accounts                          Debra Medina                          PRECINCT 3, 5, 6 & 9                                   01 
01080010004000000NON       Comptroller of Public Accounts                          Debra Medina                          PRECINCT 4                                             01 
01080010005000013NON       Comptroller of Public Accounts                          Debra Medina                          PRECINCT 7                                             01 
01080020001000012NON       Comptroller of Public Accounts                          Harvey Hilderbran                     PRECINCT 1                                             01 
01080020002000049NON       Comptroller of Public Accounts                          Harvey Hilderbran                     PRECINCT 2 & 8                                         01 
01080020003000042NON       Comptroller of Public Accounts                          Harvey Hilderbran                     PRECINCT 3, 5, 6 & 9                                   01 
01080020004000004NON       Comptroller of Public Accounts                          Harvey Hilderbran                     PRECINCT 4                                             01 
01080020005000016NON       Comptroller of Public Accounts                          Harvey Hilderbran                     PRECINCT 7                                             01 
01080030001000003NON       Comptroller of Public Accounts                          Raul Torres                           PRECINCT 1                                             01 
01080030002000001NON       Comptroller of Public Accounts                          Raul Torres                           PRECINCT 2 & 8                                         01 
01080030003000010NON       Comptroller of Public Accounts                          Raul Torres                           PRECINCT 3, 5, 6 & 9                                   01 
01080030004000000NON       Comptroller of Public Accounts                          Raul Torres                           PRECINCT 4                                             01 
01080030005000003NON       Comptroller of Public Accounts                          Raul Torres                           PRECINCT 7                                             01 
01080040001000034NON       Comptroller of Public Accounts                          Glenn Hegar                           PRECINCT 1                                             01 
01080040002000059NON       Comptroller of Public Accounts                          Glenn Hegar                           PRECINCT 2 & 8                                         01 
01080040003000050NON       Comptroller of Public Accounts                          Glenn Hegar                           PRECINCT 3, 5, 6 & 9                                   01 
01080040004000005NON       Comptroller of Public Accounts                          Glenn Hegar                           PRECINCT 4                                             01 
01080040005000034NON       Comptroller of Public Accounts                          Glenn Hegar                           PRECINCT 7                                             01 
01090010001000016NON       Commissioner of the General Land Office                 David Watts                           PRECINCT 1                                             01 
01090010002000045NON       Commissioner of the General Land Office                 David Watts                           PRECINCT 2 & 8                                         01 
01090010003000037NON       Commissioner of the General Land Office                 David Watts                           PRECINCT 3, 5, 6 & 9                                   01 
01090010004000003NON       Commissioner of the General Land Office                 David Watts                           PRECINCT 4                                             01 
01090010005000020NON       Commissioner of the General Land Office                 David Watts                           PRECINCT 7                                             01 
01090020001000043NON       Commissioner of the General Land Office                 George P. Bush                        PRECINCT 1                                             01 
01090020002000102NON       Commissioner of the General Land Office                 George P. Bush                        PRECINCT 2 & 8                                         01 
01090020003000097NON       Commissioner of the General Land Office                 George P. Bush                        PRECINCT 3, 5, 6 & 9                                   01 
01090020004000005NON       Commissioner of the General Land Office                 George P. Bush                        PRECINCT 4                                             01 
01090020005000047NON       Commissioner of the General Land Office                 George P. Bush                        PRECINCT 7                                             01 
01100010001000005NON       Commissioner of Agriculture                             Joe Cotten                            PRECINCT 1                                             01 
01100010002000025NON       Commissioner of Agriculture                             Joe Cotten                            PRECINCT 2 & 8                                         01 
01100010003000024NON       Commissioner of Agriculture                             Joe Cotten                            PRECINCT 3, 5, 6 & 9                                   01 
01100010004000000NON       Commissioner of Agriculture                             Joe Cotten                            PRECINCT 4                                             01 
01100010005000013NON       Commissioner of Agriculture                             Joe Cotten                            PRECINCT 7                                             01 
01100020001000004NON       Commissioner of Agriculture                             Eric Opiela                           PRECINCT 1                                             01 
01100020002000006NON       Commissioner of Agriculture                             Eric Opiela                           PRECINCT 2 & 8                                         01 
01100020003000010NON       Commissioner of Agriculture                             Eric Opiela                           PRECINCT 3, 5, 6 & 9                                   01 
01100020004000000NON       Commissioner of Agriculture                             Eric Opiela                           PRECINCT 4                                             01 
01100020005000004NON       Commissioner of Agriculture                             Eric Opiela                           PRECINCT 7                                             01 
01100030001000006NON       Commissioner of Agriculture                             J. Allen Carnes                       PRECINCT 1                                             01 
01100030002000036NON       Commissioner of Agriculture                             J. Allen Carnes                       PRECINCT 2 & 8                                         01 
01100030003000032NON       Commissioner of Agriculture                             J. Allen Carnes                       PRECINCT 3, 5, 6 & 9                                   01 
01100030004000002NON       Commissioner of Agriculture                             J. Allen Carnes                       PRECINCT 4                                             01 
01100030005000013NON       Commissioner of Agriculture                             J. Allen Carnes                       PRECINCT 7                                             01 
01100040001000029NON       Commissioner of Agriculture                             Sid Miller                            PRECINCT 1                                             01 
01100040002000034NON       Commissioner of Agriculture                             Sid Miller                            PRECINCT 2 & 8                                         01 
01100040003000030NON       Commissioner of Agriculture                             Sid Miller                            PRECINCT 3, 5, 6 & 9                                   01 
01100040004000003NON       Commissioner of Agriculture                             Sid Miller                            PRECINCT 4                                             01 
01100040005000020NON       Commissioner of Agriculture                             Sid Miller                            PRECINCT 7                                             01 
01100050001000016NON       Commissioner of Agriculture                             Tommy Merritt                         PRECINCT 1                                             01 
01100050002000036NON       Commissioner of Agriculture                             Tommy Merritt                         PRECINCT 2 & 8                                         01 
01100050003000029NON       Commissioner of Agriculture                             Tommy Merritt                         PRECINCT 3, 5, 6 & 9                                   01 
01100050004000004NON       Commissioner of Agriculture                             Tommy Merritt                         PRECINCT 4                                             01 
01100050005000016NON       Commissioner of Agriculture                             Tommy Merritt                         PRECINCT 7                                             01 
01110010001000015NON       Railroad Commissioner                                   Malachi Boyuls                        PRECINCT 1                                             01 
01110010002000016NON       Railroad Commissioner                                   Malachi Boyuls                        PRECINCT 2 & 8                                         01 
01110010003000017NON       Railroad Commissioner                                   Malachi Boyuls                        PRECINCT 3, 5, 6 & 9                                   01 
01110010004000000NON       Railroad Commissioner                                   Malachi Boyuls                        PRECINCT 4                                             01 
01110010005000011NON       Railroad Commissioner                                   Malachi Boyuls                        PRECINCT 7                                             01 
01110020001000017NON       Railroad Commissioner                                   Ryan Sitton                           PRECINCT 1                                             01 
01110020002000030NON       Railroad Commissioner                                   Ryan Sitton                           PRECINCT 2 & 8                                         01 
01110020003000041NON       Railroad Commissioner                                   Ryan Sitton                           PRECINCT 3, 5, 6 & 9                                   01 
01110020004000002NON       Railroad Commissioner                                   Ryan Sitton                           PRECINCT 4                                             01 
01110020005000019NON       Railroad Commissioner                                   Ryan Sitton                           PRECINCT 7                                             01 
01110030001000018NON       Railroad Commissioner                                   Wayne Christian                       PRECINCT 1                                             01 
01110030002000071NON       Railroad Commissioner                                   Wayne Christian                       PRECINCT 2 & 8                                         01 
01110030003000048NON       Railroad Commissioner                                   Wayne Christian                       PRECINCT 3, 5, 6 & 9                                   01 
01110030004000006NON       Railroad Commissioner                                   Wayne Christian                       PRECINCT 4                                             01 
01110030005000027NON       Railroad Commissioner                                   Wayne Christian                       PRECINCT 7                                             01 
01110040001000009NON       Railroad Commissioner                                   Becky Berger                          PRECINCT 1                                             01 
01110040002000025NON       Railroad Commissioner                                   Becky Berger                          PRECINCT 2 & 8                                         01 
01110040003000021NON       Railroad Commissioner                                   Becky Berger                          PRECINCT 3, 5, 6 & 9                                   01 
01110040004000001NON       Railroad Commissioner                                   Becky Berger                          PRECINCT 4                                             01 
01110040005000010NON       Railroad Commissioner                                   Becky Berger                          PRECINCT 7                                             01 
01120010001000023NON       Chief Justice, Supreme Court                            Robert Talton                         PRECINCT 1                                             01 
01120010002000054NON       Chief Justice, Supreme Court                            Robert Talton                         PRECINCT 2 & 8                                         01 
01120010003000060NON       Chief Justice, Supreme Court                            Robert Talton                         PRECINCT 3, 5, 6 & 9                                   01 
01120010004000004NON       Chief Justice, Supreme Court                            Robert Talton                         PRECINCT 4                                             01 
01120010005000034NON       Chief Justice, Supreme Court                            Robert Talton                         PRECINCT 7                                             01 
01120020001000034NON       Chief Justice, Supreme Court                            Nathan Hecht                          PRECINCT 1                                             01 
01120020002000091NON       Chief Justice, Supreme Court                            Nathan Hecht                          PRECINCT 2 & 8                                         01 
01120020003000064NON       Chief Justice, Supreme Court                            Nathan Hecht                          PRECINCT 3, 5, 6 & 9                                   01 
01120020004000005NON       Chief Justice, Supreme Court                            Nathan Hecht                          PRECINCT 4                                             01 
01120020005000033NON       Chief Justice, Supreme Court                            Nathan Hecht                          PRECINCT 7                                             01 
01130010001000015NON       Justice, Supreme Court, Place 6                         Joe Pool                              PRECINCT 1                                             01 
01130010002000026NON       Justice, Supreme Court, Place 6                         Joe Pool                              PRECINCT 2 & 8                                         01 
01130010003000035NON       Justice, Supreme Court, Place 6                         Joe Pool                              PRECINCT 3, 5, 6 & 9                                   01 
01130010004000000NON       Justice, Supreme Court, Place 6                         Joe Pool                              PRECINCT 4                                             01 
01130010005000018NON       Justice, Supreme Court, Place 6                         Joe Pool                              PRECINCT 7                                             01 
01130020001000039NON       Justice, Supreme Court, Place 6                         Jeff Brown                            PRECINCT 1                                             01 
01130020002000112NON       Justice, Supreme Court, Place 6                         Jeff Brown                            PRECINCT 2 & 8                                         01 
01130020003000086NON       Justice, Supreme Court, Place 6                         Jeff Brown                            PRECINCT 3, 5, 6 & 9                                   01 
01130020004000008NON       Justice, Supreme Court, Place 6                         Jeff Brown                            PRECINCT 4                                             01 
01130020005000050NON       Justice, Supreme Court, Place 6                         Jeff Brown                            PRECINCT 7                                             01 
01140010001000042          Justice, Supreme Court, Place 7                         Jeff Boyd                             PRECINCT 1                                             01 
01140010002000124          Justice, Supreme Court, Place 7                         Jeff Boyd                             PRECINCT 2 & 8                                         01 
01140010003000113          Justice, Supreme Court, Place 7                         Jeff Boyd                             PRECINCT 3, 5, 6 & 9                                   01 
01140010004000006          Justice, Supreme Court, Place 7                         Jeff Boyd                             PRECINCT 4                                             01 
01140010005000060          Justice, Supreme Court, Place 7                         Jeff Boyd                             PRECINCT 7                                             01 
01150010001000034NON       Justice, Supreme Court, Place 8                         Phil Johnson                          PRECINCT 1                                             01 
01150010002000096NON       Justice, Supreme Court, Place 8                         Phil Johnson                          PRECINCT 2 & 8                                         01 
01150010003000079NON       Justice, Supreme Court, Place 8                         Phil Johnson                          PRECINCT 3, 5, 6 & 9                                   01 
01150010004000005NON       Justice, Supreme Court, Place 8                         Phil Johnson                          PRECINCT 4                                             01 
01150010005000041NON       Justice, Supreme Court, Place 8                         Phil Johnson                          PRECINCT 7                                             01 
01150020001000023NON       Justice, Supreme Court, Place 8                         Sharon McCally                        PRECINCT 1                                             01 
01150020002000046NON       Justice, Supreme Court, Place 8                         Sharon McCally                        PRECINCT 2 & 8                                         01 
01150020003000044NON       Justice, Supreme Court, Place 8                         Sharon McCally                        PRECINCT 3, 5, 6 & 9                                   01 
01150020004000002NON       Justice, Supreme Court, Place 8                         Sharon McCally                        PRECINCT 4                                             01 
01150020005000027NON       Justice, Supreme Court, Place 8                         Sharon McCally                        PRECINCT 7                                             01 
01160010001000014NON       Judge, Court of Criminal Appeals, Pl 3                  Barbara Walther                       PRECINCT 1                                             01 
01160010002000049NON       Judge, Court of Criminal Appeals, Pl 3                  Barbara Walther                       PRECINCT 2 & 8                                         01 
01160010003000047NON       Judge, Court of Criminal Appeals, Pl 3                  Barbara Walther                       PRECINCT 3, 5, 6 & 9                                   01 
01160010004000001NON       Judge, Court of Criminal Appeals, Pl 3                  Barbara Walther                       PRECINCT 4                                             01 
01160010005000029NON       Judge, Court of Criminal Appeals, Pl 3                  Barbara Walther                       PRECINCT 7                                             01 
01160020001000042NON       Judge, Court of Criminal Appeals, Pl 3                  Bert Richardson                       PRECINCT 1                                             01 
01160020002000083NON       Judge, Court of Criminal Appeals, Pl 3                  Bert Richardson                       PRECINCT 2 & 8                                         01 
01160020003000074NON       Judge, Court of Criminal Appeals, Pl 3                  Bert Richardson                       PRECINCT 3, 5, 6 & 9                                   01 
01160020004000007NON       Judge, Court of Criminal Appeals, Pl 3                  Bert Richardson                       PRECINCT 4                                             01 
01160020005000037NON       Judge, Court of Criminal Appeals, Pl 3                  Bert Richardson                       PRECINCT 7                                             01 
01170010001000033NON       Judge, Court of Criminal Appeals, Pl 4                  Kevin Patrick Yeary                   PRECINCT 1                                             01 
01170010002000068NON       Judge, Court of Criminal Appeals, Pl 4                  Kevin Patrick Yeary                   PRECINCT 2 & 8                                         01 
01170010003000057NON       Judge, Court of Criminal Appeals, Pl 4                  Kevin Patrick Yeary                   PRECINCT 3, 5, 6 & 9                                   01 
01170010004000002NON       Judge, Court of Criminal Appeals, Pl 4                  Kevin Patrick Yeary                   PRECINCT 4                                             01 
01170010005000027NON       Judge, Court of Criminal Appeals, Pl 4                  Kevin Patrick Yeary                   PRECINCT 7                                             01 
01170020001000009NON       Judge, Court of Criminal Appeals, Pl 4                  Jani Jo Wood                          PRECINCT 1                                             01 
01170020002000028NON       Judge, Court of Criminal Appeals, Pl 4                  Jani Jo Wood                          PRECINCT 2 & 8                                         01 
01170020003000030NON       Judge, Court of Criminal Appeals, Pl 4                  Jani Jo Wood                          PRECINCT 3, 5, 6 & 9                                   01 
01170020004000001NON       Judge, Court of Criminal Appeals, Pl 4                  Jani Jo Wood                          PRECINCT 4                                             01 
01170020005000019NON       Judge, Court of Criminal Appeals, Pl 4                  Jani Jo Wood                          PRECINCT 7                                             01 
01170030001000014NON       Judge, Court of Criminal Appeals, Pl 4                  Richard Dean Davis                    PRECINCT 1                                             01 
01170030002000038NON       Judge, Court of Criminal Appeals, Pl 4                  Richard Dean Davis                    PRECINCT 2 & 8                                         01 
01170030003000033NON       Judge, Court of Criminal Appeals, Pl 4                  Richard Dean Davis                    PRECINCT 3, 5, 6 & 9                                   01 
01170030004000005NON       Judge, Court of Criminal Appeals, Pl 4                  Richard Dean Davis                    PRECINCT 4                                             01 
01170030005000021NON       Judge, Court of Criminal Appeals, Pl 4                  Richard Dean Davis                    PRECINCT 7                                             01 
01180010001000027NON       Judge, Court of Criminal Appeals, Pl 9                  David Newell                          PRECINCT 1                                             01 
01180010002000068NON       Judge, Court of Criminal Appeals, Pl 9                  David Newell                          PRECINCT 2 & 8                                         01 
01180010003000057NON       Judge, Court of Criminal Appeals, Pl 9                  David Newell                          PRECINCT 3, 5, 6 & 9                                   01 
01180010004000002NON       Judge, Court of Criminal Appeals, Pl 9                  David Newell                          PRECINCT 4                                             01 
01180010005000043NON       Judge, Court of Criminal Appeals, Pl 9                  David Newell                          PRECINCT 7                                             01 
01180020001000029NON       Judge, Court of Criminal Appeals, Pl 9                  W.C. "Bud" Kirkendall                 PRECINCT 1                                             01 
01180020002000064NON       Judge, Court of Criminal Appeals, Pl 9                  W.C. "Bud" Kirkendall                 PRECINCT 2 & 8                                         01 
01180020003000068NON       Judge, Court of Criminal Appeals, Pl 9                  W.C. "Bud" Kirkendall                 PRECINCT 3, 5, 6 & 9                                   01 
01180020004000006NON       Judge, Court of Criminal Appeals, Pl 9                  W.C. "Bud" Kirkendall                 PRECINCT 4                                             01 
01180020005000023NON       Judge, Court of Criminal Appeals, Pl 9                  W.C. "Bud" Kirkendall                 PRECINCT 7                                             01 
01190010001000031NON       State Senator, District 31                              Mike Canon                            PRECINCT 1                                             01 
01190010002000063NON       State Senator, District 31                              Mike Canon                            PRECINCT 2 & 8                                         01 
01190010003000049NON       State Senator, District 31                              Mike Canon                            PRECINCT 3, 5, 6 & 9                                   01 
01190010004000003NON       State Senator, District 31                              Mike Canon                            PRECINCT 4                                             01 
01190010005000029NON       State Senator, District 31                              Mike Canon                            PRECINCT 7                                             01 
01190020001000032NON       State Senator, District 31                              Kel Seliger                           PRECINCT 1                                             01 
01190020002000093NON       State Senator, District 31                              Kel Seliger                           PRECINCT 2 & 8                                         01 
01190020003000090NON       State Senator, District 31                              Kel Seliger                           PRECINCT 3, 5, 6 & 9                                   01 
01190020004000006NON       State Senator, District 31                              Kel Seliger                           PRECINCT 4                                             01 
01190020005000043NON       State Senator, District 31                              Kel Seliger                           PRECINCT 7                                             01 
01200010001000044NON       State Representative, District 86                       John Smithee                          PRECINCT 1                                             01 
01200010002000134NON       State Representative, District 86                       John Smithee                          PRECINCT 2 & 8                                         01 
01200010003000121NON       State Representative, District 86                       John Smithee                          PRECINCT 3, 5, 6 & 9                                   01 
01200010004000007NON       State Representative, District 86                       John Smithee                          PRECINCT 4                                             01 
01200010005000062NON       State Representative, District 86                       John Smithee                          PRECINCT 7                                             01 
01210010001000039NON       Chief Justice, 7th Court of Appeals Dist                Brian Quinn                           PRECINCT 1                                             01 
01210010002000127NON       Chief Justice, 7th Court of Appeals Dist                Brian Quinn                           PRECINCT 2 & 8                                         01 
01210010003000114NON       Chief Justice, 7th Court of Appeals Dist                Brian Quinn                           PRECINCT 3, 5, 6 & 9                                   01 
01210010004000006NON       Chief Justice, 7th Court of Appeals Dist                Brian Quinn                           PRECINCT 4                                             01 
01210010005000061NON       Chief Justice, 7th Court of Appeals Dist                Brian Quinn                           PRECINCT 7                                             01 
01220010001000048NON       District Judge, 69th Judicial District                  Ron Enns                              PRECINCT 1                                             01 
01220010002000149NON       District Judge, 69th Judicial District                  Ron Enns                              PRECINCT 2 & 8                                         01 
01220010003000123NON       District Judge, 69th Judicial District                  Ron Enns                              PRECINCT 3, 5, 6 & 9                                   01 
01220010004000007NON       District Judge, 69th Judicial District                  Ron Enns                              PRECINCT 4                                             01 
01220010005000064NON       District Judge, 69th Judicial District                  Ron Enns                              PRECINCT 7                                             01 
01230010001000052NON       County Judge                                            Wes Ritchey                           PRECINCT 1                                             01 
01230010002000138NON       County Judge                                            Wes Ritchey                           PRECINCT 2 & 8                                         01 
01230010003000129NON       County Judge                                            Wes Ritchey                           PRECINCT 3, 5, 6 & 9                                   01 
01230010004000008NON       County Judge                                            Wes Ritchey                           PRECINCT 4                                             01 
01230010005000061NON       County Judge                                            Wes Ritchey                           PRECINCT 7                                             01 
01240010001000055NON       District and County Clerk                               Terri Banks                           PRECINCT 1                                             01 
01240010002000150NON       District and County Clerk                               Terri Banks                           PRECINCT 2 & 8                                         01 
01240010003000133NON       District and County Clerk                               Terri Banks                           PRECINCT 3, 5, 6 & 9                                   01 
01240010004000008NON       District and County Clerk                               Terri Banks                           PRECINCT 4                                             01 
01240010005000066NON       District and County Clerk                               Terri Banks                           PRECINCT 7                                             01 
01250010001000051NON       County Treasurer                                        Kenda McKay                           PRECINCT 1                                             01 
01250010002000141NON       County Treasurer                                        Kenda McKay                           PRECINCT 2 & 8                                         01 
01250010003000127NON       County Treasurer                                        Kenda McKay                           PRECINCT 3, 5, 6 & 9                                   01 
01250010004000008NON       County Treasurer                                        Kenda McKay                           PRECINCT 4                                             01 
01250010005000062NON       County Treasurer                                        Kenda McKay                           PRECINCT 7                                             01 
01260010002000139NONCCOM002County Commissioner, Precinct No. 2                     Corey Crabtree                        PRECINCT 2 & 8                                         01 
01270010004000008NONCCOM004County Commissioner, Precinct No. 4                     Floyd French                          PRECINCT 4                                             01 
01270010005000062NONCCOM004County Commissioner, Precinct No. 4                     Floyd French                          PRECINCT 7                                             01 
01280010001000050NON       Justice of the Peace                                    Rita Little                           PRECINCT 1                                             01 
01280010002000143NON       Justice of the Peace                                    Rita Little                           PRECINCT 2 & 8                                         01 
01280010003000127NON       Justice of the Peace                                    Rita Little                           PRECINCT 3, 5, 6 & 9                                   01 
01280010004000007NON       Justice of the Peace                                    Rita Little                           PRECINCT 4                                             01 
01280010005000063NON       Justice of the Peace                                    Rita Little                           PRECINCT 7                                             01 
01290010001000064NON       RELIGIOUS FREEDOM                                       YES                                   PRECINCT 1                                             01Y
01290010002000151NON       RELIGIOUS FREEDOM                                       YES                                   PRECINCT 2 & 8                                         01Y
01290010003000134NON       RELIGIOUS FREEDOM                                       YES                                   PRECINCT 3, 5, 6 & 9                                   01Y
01290010004000009NON       RELIGIOUS FREEDOM                                       YES                                   PRECINCT 4                                             01Y
01290010005000072NON       RELIGIOUS FREEDOM                                       YES                                   PRECINCT 7                                             01Y
01290020001000000NON       RELIGIOUS FREEDOM                                       NO                                    PRECINCT 1                                             01Y
01290020002000004NON       RELIGIOUS FREEDOM                                       NO                                    PRECINCT 2 & 8                                         01Y
01290020003000002NON       RELIGIOUS FREEDOM                                       NO                                    PRECINCT 3, 5, 6 & 9                                   01Y
01290020004000000NON       RELIGIOUS FREEDOM                                       NO                                    PRECINCT 4                                             01Y
01290020005000001NON       RELIGIOUS FREEDOM                                       NO                                    PRECINCT 7                                             01Y
01300010001000056NON       SECOND AMENDMENT                                        YES                                   PRECINCT 1                                             01Y
01300010002000138NON       SECOND AMENDMENT                                        YES                                   PRECINCT 2 & 8                                         01Y
01300010003000125NON       SECOND AMENDMENT                                        YES                                   PRECINCT 3, 5, 6 & 9                                   01Y
01300010004000008NON       SECOND AMENDMENT                                        YES                                   PRECINCT 4                                             01Y
01300010005000069NON       SECOND AMENDMENT                                        YES                                   PRECINCT 7                                             01Y
01300020001000006NON       SECOND AMENDMENT                                        NO                                    PRECINCT 1                                             01Y
01300020002000018NON       SECOND AMENDMENT                                        NO                                    PRECINCT 2 & 8                                         01Y
01300020003000007NON       SECOND AMENDMENT                                        NO                                    PRECINCT 3, 5, 6 & 9                                   01Y
01300020004000001NON       SECOND AMENDMENT                                        NO                                    PRECINCT 4                                             01Y
01300020005000003NON       SECOND AMENDMENT                                        NO                                    PRECINCT 7                                             01Y
01310010001000056NON       FRANCHISE TAX                                           YES                                   PRECINCT 1                                             01Y
01310010002000132NON       FRANCHISE TAX                                           YES                                   PRECINCT 2 & 8                                         01Y
01310010003000115NON       FRANCHISE TAX                                           YES                                   PRECINCT 3, 5, 6 & 9                                   01Y
01310010004000007NON       FRANCHISE TAX                                           YES                                   PRECINCT 4                                             01Y
01310010005000058NON       FRANCHISE TAX                                           YES                                   PRECINCT 7                                             01Y
01310020001000006NON       FRANCHISE TAX                                           NO                                    PRECINCT 1                                             01Y
01310020002000022NON       FRANCHISE TAX                                           NO                                    PRECINCT 2 & 8                                         01Y
01310020003000018NON       FRANCHISE TAX                                           NO                                    PRECINCT 3, 5, 6 & 9                                   01Y
01310020004000001NON       FRANCHISE TAX                                           NO                                    PRECINCT 4                                             01Y
01310020005000015NON       FRANCHISE TAX                                           NO                                    PRECINCT 7                                             01Y
01320010001000060NON       WELFARE REFORM                                          YES                                   PRECINCT 1                                             01Y
01320010002000154NON       WELFARE REFORM                                          YES                                   PRECINCT 2 & 8                                         01Y
01320010003000138NON       WELFARE REFORM                                          YES                                   PRECINCT 3, 5, 6 & 9                                   01Y
01320010004000008NON       WELFARE REFORM                                          YES                                   PRECINCT 4                                             01Y
01320010005000073NON       WELFARE REFORM                                          YES                                   PRECINCT 7                                             01Y
01320020001000002NON       WELFARE REFORM                                          NO                                    PRECINCT 1                                             01Y
01320020002000006NON       WELFARE REFORM                                          NO                                    PRECINCT 2 & 8                                         01Y
01320020003000003NON       WELFARE REFORM                                          NO                                    PRECINCT 3, 5, 6 & 9                                   01Y
01320020004000001NON       WELFARE REFORM                                          NO                                    PRECINCT 4                                             01Y
01320020005000000NON       WELFARE REFORM                                          NO                                    PRECINCT 7                                             01Y
01330010001000063NON       NO LAWMAKERS EXCEPTIONS                                 YES                                   PRECINCT 1                                             01Y
01330010002000159NON       NO LAWMAKERS EXCEPTIONS                                 YES                                   PRECINCT 2 & 8                                         01Y
01330010003000140NON       NO LAWMAKERS EXCEPTIONS                                 YES                                   PRECINCT 3, 5, 6 & 9                                   01Y
01330010004000009NON       NO LAWMAKERS EXCEPTIONS                                 YES                                   PRECINCT 4                                             01Y
01330010005000072NON       NO LAWMAKERS EXCEPTIONS                                 YES                                   PRECINCT 7                                             01Y
01330020001000000NON       NO LAWMAKERS EXCEPTIONS                                 NO                                    PRECINCT 1                                             01Y
01330020002000000NON       NO LAWMAKERS EXCEPTIONS                                 NO                                    PRECINCT 2 & 8                                         01Y
01330020003000001NON       NO LAWMAKERS EXCEPTIONS                                 NO                                    PRECINCT 3, 5, 6 & 9                                   01Y
01330020004000000NON       NO LAWMAKERS EXCEPTIONS                                 NO                                    PRECINCT 4                                             01Y
01330020005000001NON       NO LAWMAKERS EXCEPTIONS                                 NO                                    PRECINCT 7                                             01Y
01340010001000058NON       OBAMACARE                                               YES                                   PRECINCT 1                                             01Y
01340010002000151NON       OBAMACARE                                               YES                                   PRECINCT 2 & 8                                         01Y
01340010003000138NON       OBAMACARE                                               YES                                   PRECINCT 3, 5, 6 & 9                                   01Y
01340010004000009NON       OBAMACARE                                               YES                                   PRECINCT 4                                             01Y
01340010005000068NON       OBAMACARE                                               YES                                   PRECINCT 7                                             01Y
01340020001000005NON       OBAMACARE                                               NO                                    PRECINCT 1                                             01Y
01340020002000007NON       OBAMACARE                                               NO                                    PRECINCT 2 & 8                                         01Y
01340020003000003NON       OBAMACARE                                               NO                                    PRECINCT 3, 5, 6 & 9                                   01Y
01340020004000000NON       OBAMACARE                                               NO                                    PRECINCT 4                                             01Y
01340020005000006NON       OBAMACARE                                               NO                                    PRECINCT 7                                             01Y
