00850011013000030NONISDEDGEEdgewood ISD Position 1                                 Joe Guerra                                                                                   01 
00850011026000000NONISDEDGEEdgewood ISD Position 1                                 Joe Guerra                                                                                   01 
00850011027000009NONISDEDGEEdgewood ISD Position 1                                 Joe Guerra                                                                                   01 
00850011029000062NONISDEDGEEdgewood ISD Position 1                                 Joe Guerra                                                                                   01 
00850011030000003NONISDEDGEEdgewood ISD Position 1                                 Joe Guerra                                                                                   01 
00850011031000058NONISDEDGEEdgewood ISD Position 1                                 Joe Guerra                                                                                   01 
00850011032000066NONISDEDGEEdgewood ISD Position 1                                 Joe Guerra                                                                                   01 
00850011035000000NONISDEDGEEdgewood ISD Position 1                                 Joe Guerra                                                                                   01 
00850011088000030NONISDEDGEEdgewood ISD Position 1                                 Joe Guerra                                                                                   01 
00850011090000000NONISDEDGEEdgewood ISD Position 1                                 Joe Guerra                                                                                   01 
00850011096000001NONISDEDGEEdgewood ISD Position 1                                 Joe Guerra                                                                                   01 
00850012011000066NONISDEDGEEdgewood ISD Position 1                                 Joe Guerra                                                                                   01 
00850012012000039NONISDEDGEEdgewood ISD Position 1                                 Joe Guerra                                                                                   01 
00850012015000044NONISDEDGEEdgewood ISD Position 1                                 Joe Guerra                                                                                   01 
00850012016000035NONISDEDGEEdgewood ISD Position 1                                 Joe Guerra                                                                                   01 
00850012017000039NONISDEDGEEdgewood ISD Position 1                                 Joe Guerra                                                                                   01 
00850012019000045NONISDEDGEEdgewood ISD Position 1                                 Joe Guerra                                                                                   01 
00850012020000060NONISDEDGEEdgewood ISD Position 1                                 Joe Guerra                                                                                   01 
00850012021000083NONISDEDGEEdgewood ISD Position 1                                 Joe Guerra                                                                                   01 
00850012022000050NONISDEDGEEdgewood ISD Position 1                                 Joe Guerra                                                                                   01 
00850012030000015NONISDEDGEEdgewood ISD Position 1                                 Joe Guerra                                                                                   01 
00850012043000052NONISDEDGEEdgewood ISD Position 1                                 Joe Guerra                                                                                   01 
00850012074000016NONISDEDGEEdgewood ISD Position 1                                 Joe Guerra                                                                                   01 
00850012075000017NONISDEDGEEdgewood ISD Position 1                                 Joe Guerra                                                                                   01 
00850012089000001NONISDEDGEEdgewood ISD Position 1                                 Joe Guerra                                                                                   01 
00850012128000010NONISDEDGEEdgewood ISD Position 1                                 Joe Guerra                                                                                   01 
00850021013000069NONISDEDGEEdgewood ISD Position 1                                 Eddie Rodriguez                                                                              01 
00850021026000000NONISDEDGEEdgewood ISD Position 1                                 Eddie Rodriguez                                                                              01 
00850021027000020NONISDEDGEEdgewood ISD Position 1                                 Eddie Rodriguez                                                                              01 
00850021029000090NONISDEDGEEdgewood ISD Position 1                                 Eddie Rodriguez                                                                              01 
00850021030000003NONISDEDGEEdgewood ISD Position 1                                 Eddie Rodriguez                                                                              01 
00850021031000070NONISDEDGEEdgewood ISD Position 1                                 Eddie Rodriguez                                                                              01 
00850021032000095NONISDEDGEEdgewood ISD Position 1                                 Eddie Rodriguez                                                                              01 
00850021035000000NONISDEDGEEdgewood ISD Position 1                                 Eddie Rodriguez                                                                              01 
00850021088000043NONISDEDGEEdgewood ISD Position 1                                 Eddie Rodriguez                                                                              01 
00850021090000000NONISDEDGEEdgewood ISD Position 1                                 Eddie Rodriguez                                                                              01 
00850021096000002NONISDEDGEEdgewood ISD Position 1                                 Eddie Rodriguez                                                                              01 
00850022011000109NONISDEDGEEdgewood ISD Position 1                                 Eddie Rodriguez                                                                              01 
00850022012000063NONISDEDGEEdgewood ISD Position 1                                 Eddie Rodriguez                                                                              01 
00850022015000090NONISDEDGEEdgewood ISD Position 1                                 Eddie Rodriguez                                                                              01 
00850022016000033NONISDEDGEEdgewood ISD Position 1                                 Eddie Rodriguez                                                                              01 
00850022017000037NONISDEDGEEdgewood ISD Position 1                                 Eddie Rodriguez                                                                              01 
00850022019000050NONISDEDGEEdgewood ISD Position 1                                 Eddie Rodriguez                                                                              01 
00850022020000084NONISDEDGEEdgewood ISD Position 1                                 Eddie Rodriguez                                                                              01 
00850022021000120NONISDEDGEEdgewood ISD Position 1                                 Eddie Rodriguez                                                                              01 
00850022022000089NONISDEDGEEdgewood ISD Position 1                                 Eddie Rodriguez                                                                              01 
00850022030000019NONISDEDGEEdgewood ISD Position 1                                 Eddie Rodriguez                                                                              01 
00850022043000058NONISDEDGEEdgewood ISD Position 1                                 Eddie Rodriguez                                                                              01 
00850022074000058NONISDEDGEEdgewood ISD Position 1                                 Eddie Rodriguez                                                                              01 
00850022075000003NONISDEDGEEdgewood ISD Position 1                                 Eddie Rodriguez                                                                              01 
00850022089000008NONISDEDGEEdgewood ISD Position 1                                 Eddie Rodriguez                                                                              01 
00850022128000019NONISDEDGEEdgewood ISD Position 1                                 Eddie Rodriguez                                                                              01 
00850031013000000   ISDEDGEEdgewood ISD Position 1                                 OVER VOTES                                                                                   01 
00850031026000000   ISDEDGEEdgewood ISD Position 1                                 OVER VOTES                                                                                   01 
00850031027000000   ISDEDGEEdgewood ISD Position 1                                 OVER VOTES                                                                                   01 
00850031029000000   ISDEDGEEdgewood ISD Position 1                                 OVER VOTES                                                                                   01 
00850031030000000   ISDEDGEEdgewood ISD Position 1                                 OVER VOTES                                                                                   01 
00850031031000000   ISDEDGEEdgewood ISD Position 1                                 OVER VOTES                                                                                   01 
00850031032000000   ISDEDGEEdgewood ISD Position 1                                 OVER VOTES                                                                                   01 
00850031035000000   ISDEDGEEdgewood ISD Position 1                                 OVER VOTES                                                                                   01 
00850031088000000   ISDEDGEEdgewood ISD Position 1                                 OVER VOTES                                                                                   01 
00850031090000000   ISDEDGEEdgewood ISD Position 1                                 OVER VOTES                                                                                   01 
00850031096000000   ISDEDGEEdgewood ISD Position 1                                 OVER VOTES                                                                                   01 
00850032011000000   ISDEDGEEdgewood ISD Position 1                                 OVER VOTES                                                                                   01 
00850032012000000   ISDEDGEEdgewood ISD Position 1                                 OVER VOTES                                                                                   01 
00850032015000000   ISDEDGEEdgewood ISD Position 1                                 OVER VOTES                                                                                   01 
00850032016000000   ISDEDGEEdgewood ISD Position 1                                 OVER VOTES                                                                                   01 
00850032017000000   ISDEDGEEdgewood ISD Position 1                                 OVER VOTES                                                                                   01 
00850032019000000   ISDEDGEEdgewood ISD Position 1                                 OVER VOTES                                                                                   01 
00850032020000000   ISDEDGEEdgewood ISD Position 1                                 OVER VOTES                                                                                   01 
00850032021000000   ISDEDGEEdgewood ISD Position 1                                 OVER VOTES                                                                                   01 
00850032022000000   ISDEDGEEdgewood ISD Position 1                                 OVER VOTES                                                                                   01 
00850032030000000   ISDEDGEEdgewood ISD Position 1                                 OVER VOTES                                                                                   01 
00850032043000000   ISDEDGEEdgewood ISD Position 1                                 OVER VOTES                                                                                   01 
00850032074000000   ISDEDGEEdgewood ISD Position 1                                 OVER VOTES                                                                                   01 
00850032075000000   ISDEDGEEdgewood ISD Position 1                                 OVER VOTES                                                                                   01 
00850032089000000   ISDEDGEEdgewood ISD Position 1                                 OVER VOTES                                                                                   01 
00850032128000000   ISDEDGEEdgewood ISD Position 1                                 OVER VOTES                                                                                   01 
00850041013000035   ISDEDGEEdgewood ISD Position 1                                 UNDER VOTES                                                                                  01 
00850041026000000   ISDEDGEEdgewood ISD Position 1                                 UNDER VOTES                                                                                  01 
00850041027000011   ISDEDGEEdgewood ISD Position 1                                 UNDER VOTES                                                                                  01 
00850041029000048   ISDEDGEEdgewood ISD Position 1                                 UNDER VOTES                                                                                  01 
00850041030000006   ISDEDGEEdgewood ISD Position 1                                 UNDER VOTES                                                                                  01 
00850041031000043   ISDEDGEEdgewood ISD Position 1                                 UNDER VOTES                                                                                  01 
00850041032000045   ISDEDGEEdgewood ISD Position 1                                 UNDER VOTES                                                                                  01 
00850041035000000   ISDEDGEEdgewood ISD Position 1                                 UNDER VOTES                                                                                  01 
00850041088000042   ISDEDGEEdgewood ISD Position 1                                 UNDER VOTES                                                                                  01 
00850041090000001   ISDEDGEEdgewood ISD Position 1                                 UNDER VOTES                                                                                  01 
00850041096000001   ISDEDGEEdgewood ISD Position 1                                 UNDER VOTES                                                                                  01 
00850042011000100   ISDEDGEEdgewood ISD Position 1                                 UNDER VOTES                                                                                  01 
00850042012000049   ISDEDGEEdgewood ISD Position 1                                 UNDER VOTES                                                                                  01 
00850042015000046   ISDEDGEEdgewood ISD Position 1                                 UNDER VOTES                                                                                  01 
00850042016000038   ISDEDGEEdgewood ISD Position 1                                 UNDER VOTES                                                                                  01 
00850042017000035   ISDEDGEEdgewood ISD Position 1                                 UNDER VOTES                                                                                  01 
00850042019000039   ISDEDGEEdgewood ISD Position 1                                 UNDER VOTES                                                                                  01 
00850042020000097   ISDEDGEEdgewood ISD Position 1                                 UNDER VOTES                                                                                  01 
00850042021000078   ISDEDGEEdgewood ISD Position 1                                 UNDER VOTES                                                                                  01 
00850042022000067   ISDEDGEEdgewood ISD Position 1                                 UNDER VOTES                                                                                  01 
00850042030000018   ISDEDGEEdgewood ISD Position 1                                 UNDER VOTES                                                                                  01 
00850042043000040   ISDEDGEEdgewood ISD Position 1                                 UNDER VOTES                                                                                  01 
00850042074000029   ISDEDGEEdgewood ISD Position 1                                 UNDER VOTES                                                                                  01 
00850042075000015   ISDEDGEEdgewood ISD Position 1                                 UNDER VOTES                                                                                  01 
00850042089000015   ISDEDGEEdgewood ISD Position 1                                 UNDER VOTES                                                                                  01 
00850042128000015   ISDEDGEEdgewood ISD Position 1                                 UNDER VOTES                                                                                  01 
00860011013000051NONISDEDGEEdgewood ISD Position 2                                 John A. Morales                                                                              01 
00860011026000000NONISDEDGEEdgewood ISD Position 2                                 John A. Morales                                                                              01 
00860011027000018NONISDEDGEEdgewood ISD Position 2                                 John A. Morales                                                                              01 
00860011029000078NONISDEDGEEdgewood ISD Position 2                                 John A. Morales                                                                              01 
00860011030000004NONISDEDGEEdgewood ISD Position 2                                 John A. Morales                                                                              01 
00860011031000067NONISDEDGEEdgewood ISD Position 2                                 John A. Morales                                                                              01 
00860011032000068NONISDEDGEEdgewood ISD Position 2                                 John A. Morales                                                                              01 
00860011035000000NONISDEDGEEdgewood ISD Position 2                                 John A. Morales                                                                              01 
00860011088000031NONISDEDGEEdgewood ISD Position 2                                 John A. Morales                                                                              01 
00860011090000000NONISDEDGEEdgewood ISD Position 2                                 John A. Morales                                                                              01 
00860011096000001NONISDEDGEEdgewood ISD Position 2                                 John A. Morales                                                                              01 
00860012011000068NONISDEDGEEdgewood ISD Position 2                                 John A. Morales                                                                              01 
00860012012000048NONISDEDGEEdgewood ISD Position 2                                 John A. Morales                                                                              01 
00860012015000063NONISDEDGEEdgewood ISD Position 2                                 John A. Morales                                                                              01 
00860012016000030NONISDEDGEEdgewood ISD Position 2                                 John A. Morales                                                                              01 
00860012017000029NONISDEDGEEdgewood ISD Position 2                                 John A. Morales                                                                              01 
00860012019000042NONISDEDGEEdgewood ISD Position 2                                 John A. Morales                                                                              01 
00860012020000066NONISDEDGEEdgewood ISD Position 2                                 John A. Morales                                                                              01 
00860012021000108NONISDEDGEEdgewood ISD Position 2                                 John A. Morales                                                                              01 
00860012022000073NONISDEDGEEdgewood ISD Position 2                                 John A. Morales                                                                              01 
00860012030000020NONISDEDGEEdgewood ISD Position 2                                 John A. Morales                                                                              01 
00860012043000054NONISDEDGEEdgewood ISD Position 2                                 John A. Morales                                                                              01 
00860012074000031NONISDEDGEEdgewood ISD Position 2                                 John A. Morales                                                                              01 
00860012075000003NONISDEDGEEdgewood ISD Position 2                                 John A. Morales                                                                              01 
00860012089000004NONISDEDGEEdgewood ISD Position 2                                 John A. Morales                                                                              01 
00860012128000015NONISDEDGEEdgewood ISD Position 2                                 John A. Morales                                                                              01 
00860021013000028NONISDEDGEEdgewood ISD Position 2                                 Leslie A. Blake                                                                              01 
00860021026000000NONISDEDGEEdgewood ISD Position 2                                 Leslie A. Blake                                                                              01 
00860021027000007NONISDEDGEEdgewood ISD Position 2                                 Leslie A. Blake                                                                              01 
00860021029000032NONISDEDGEEdgewood ISD Position 2                                 Leslie A. Blake                                                                              01 
00860021030000003NONISDEDGEEdgewood ISD Position 2                                 Leslie A. Blake                                                                              01 
00860021031000023NONISDEDGEEdgewood ISD Position 2                                 Leslie A. Blake                                                                              01 
00860021032000046NONISDEDGEEdgewood ISD Position 2                                 Leslie A. Blake                                                                              01 
00860021035000000NONISDEDGEEdgewood ISD Position 2                                 Leslie A. Blake                                                                              01 
00860021088000021NONISDEDGEEdgewood ISD Position 2                                 Leslie A. Blake                                                                              01 
00860021090000000NONISDEDGEEdgewood ISD Position 2                                 Leslie A. Blake                                                                              01 
00860021096000000NONISDEDGEEdgewood ISD Position 2                                 Leslie A. Blake                                                                              01 
00860022011000047NONISDEDGEEdgewood ISD Position 2                                 Leslie A. Blake                                                                              01 
00860022012000023NONISDEDGEEdgewood ISD Position 2                                 Leslie A. Blake                                                                              01 
00860022015000027NONISDEDGEEdgewood ISD Position 2                                 Leslie A. Blake                                                                              01 
00860022016000017NONISDEDGEEdgewood ISD Position 2                                 Leslie A. Blake                                                                              01 
00860022017000024NONISDEDGEEdgewood ISD Position 2                                 Leslie A. Blake                                                                              01 
00860022019000018NONISDEDGEEdgewood ISD Position 2                                 Leslie A. Blake                                                                              01 
00860022020000047NONISDEDGEEdgewood ISD Position 2                                 Leslie A. Blake                                                                              01 
00860022021000047NONISDEDGEEdgewood ISD Position 2                                 Leslie A. Blake                                                                              01 
00860022022000036NONISDEDGEEdgewood ISD Position 2                                 Leslie A. Blake                                                                              01 
00860022030000003NONISDEDGEEdgewood ISD Position 2                                 Leslie A. Blake                                                                              01 
00860022043000031NONISDEDGEEdgewood ISD Position 2                                 Leslie A. Blake                                                                              01 
00860022074000014NONISDEDGEEdgewood ISD Position 2                                 Leslie A. Blake                                                                              01 
00860022075000010NONISDEDGEEdgewood ISD Position 2                                 Leslie A. Blake                                                                              01 
00860022089000003NONISDEDGEEdgewood ISD Position 2                                 Leslie A. Blake                                                                              01 
00860022128000012NONISDEDGEEdgewood ISD Position 2                                 Leslie A. Blake                                                                              01 
00860031013000022NONISDEDGEEdgewood ISD Position 2                                 Lorenzo Villarreal                                                                           01 
00860031026000000NONISDEDGEEdgewood ISD Position 2                                 Lorenzo Villarreal                                                                           01 
00860031027000003NONISDEDGEEdgewood ISD Position 2                                 Lorenzo Villarreal                                                                           01 
00860031029000031NONISDEDGEEdgewood ISD Position 2                                 Lorenzo Villarreal                                                                           01 
00860031030000000NONISDEDGEEdgewood ISD Position 2                                 Lorenzo Villarreal                                                                           01 
00860031031000030NONISDEDGEEdgewood ISD Position 2                                 Lorenzo Villarreal                                                                           01 
00860031032000041NONISDEDGEEdgewood ISD Position 2                                 Lorenzo Villarreal                                                                           01 
00860031035000000NONISDEDGEEdgewood ISD Position 2                                 Lorenzo Villarreal                                                                           01 
00860031088000021NONISDEDGEEdgewood ISD Position 2                                 Lorenzo Villarreal                                                                           01 
00860031090000000NONISDEDGEEdgewood ISD Position 2                                 Lorenzo Villarreal                                                                           01 
00860031096000002NONISDEDGEEdgewood ISD Position 2                                 Lorenzo Villarreal                                                                           01 
00860032011000055NONISDEDGEEdgewood ISD Position 2                                 Lorenzo Villarreal                                                                           01 
00860032012000029NONISDEDGEEdgewood ISD Position 2                                 Lorenzo Villarreal                                                                           01 
00860032015000041NONISDEDGEEdgewood ISD Position 2                                 Lorenzo Villarreal                                                                           01 
00860032016000017NONISDEDGEEdgewood ISD Position 2                                 Lorenzo Villarreal                                                                           01 
00860032017000020NONISDEDGEEdgewood ISD Position 2                                 Lorenzo Villarreal                                                                           01 
00860032019000030NONISDEDGEEdgewood ISD Position 2                                 Lorenzo Villarreal                                                                           01 
00860032020000032NONISDEDGEEdgewood ISD Position 2                                 Lorenzo Villarreal                                                                           01 
00860032021000043NONISDEDGEEdgewood ISD Position 2                                 Lorenzo Villarreal                                                                           01 
00860032022000040NONISDEDGEEdgewood ISD Position 2                                 Lorenzo Villarreal                                                                           01 
00860032030000008NONISDEDGEEdgewood ISD Position 2                                 Lorenzo Villarreal                                                                           01 
00860032043000026NONISDEDGEEdgewood ISD Position 2                                 Lorenzo Villarreal                                                                           01 
00860032074000024NONISDEDGEEdgewood ISD Position 2                                 Lorenzo Villarreal                                                                           01 
00860032075000005NONISDEDGEEdgewood ISD Position 2                                 Lorenzo Villarreal                                                                           01 
00860032089000005NONISDEDGEEdgewood ISD Position 2                                 Lorenzo Villarreal                                                                           01 
00860032128000005NONISDEDGEEdgewood ISD Position 2                                 Lorenzo Villarreal                                                                           01 
00860041013000000   ISDEDGEEdgewood ISD Position 2                                 OVER VOTES                                                                                   01 
00860041026000000   ISDEDGEEdgewood ISD Position 2                                 OVER VOTES                                                                                   01 
00860041027000000   ISDEDGEEdgewood ISD Position 2                                 OVER VOTES                                                                                   01 
00860041029000000   ISDEDGEEdgewood ISD Position 2                                 OVER VOTES                                                                                   01 
00860041030000000   ISDEDGEEdgewood ISD Position 2                                 OVER VOTES                                                                                   01 
00860041031000000   ISDEDGEEdgewood ISD Position 2                                 OVER VOTES                                                                                   01 
00860041032000000   ISDEDGEEdgewood ISD Position 2                                 OVER VOTES                                                                                   01 
00860041035000000   ISDEDGEEdgewood ISD Position 2                                 OVER VOTES                                                                                   01 
00860041088000000   ISDEDGEEdgewood ISD Position 2                                 OVER VOTES                                                                                   01 
00860041090000000   ISDEDGEEdgewood ISD Position 2                                 OVER VOTES                                                                                   01 
00860041096000000   ISDEDGEEdgewood ISD Position 2                                 OVER VOTES                                                                                   01 
00860042011000000   ISDEDGEEdgewood ISD Position 2                                 OVER VOTES                                                                                   01 
00860042012000000   ISDEDGEEdgewood ISD Position 2                                 OVER VOTES                                                                                   01 
00860042015000000   ISDEDGEEdgewood ISD Position 2                                 OVER VOTES                                                                                   01 
00860042016000000   ISDEDGEEdgewood ISD Position 2                                 OVER VOTES                                                                                   01 
00860042017000000   ISDEDGEEdgewood ISD Position 2                                 OVER VOTES                                                                                   01 
00860042019000000   ISDEDGEEdgewood ISD Position 2                                 OVER VOTES                                                                                   01 
00860042020000000   ISDEDGEEdgewood ISD Position 2                                 OVER VOTES                                                                                   01 
00860042021000000   ISDEDGEEdgewood ISD Position 2                                 OVER VOTES                                                                                   01 
00860042022000000   ISDEDGEEdgewood ISD Position 2                                 OVER VOTES                                                                                   01 
00860042030000000   ISDEDGEEdgewood ISD Position 2                                 OVER VOTES                                                                                   01 
00860042043000000   ISDEDGEEdgewood ISD Position 2                                 OVER VOTES                                                                                   01 
00860042074000000   ISDEDGEEdgewood ISD Position 2                                 OVER VOTES                                                                                   01 
00860042075000000   ISDEDGEEdgewood ISD Position 2                                 OVER VOTES                                                                                   01 
00860042089000000   ISDEDGEEdgewood ISD Position 2                                 OVER VOTES                                                                                   01 
00860042128000000   ISDEDGEEdgewood ISD Position 2                                 OVER VOTES                                                                                   01 
00860051013000033   ISDEDGEEdgewood ISD Position 2                                 UNDER VOTES                                                                                  01 
00860051026000000   ISDEDGEEdgewood ISD Position 2                                 UNDER VOTES                                                                                  01 
00860051027000012   ISDEDGEEdgewood ISD Position 2                                 UNDER VOTES                                                                                  01 
00860051029000059   ISDEDGEEdgewood ISD Position 2                                 UNDER VOTES                                                                                  01 
00860051030000005   ISDEDGEEdgewood ISD Position 2                                 UNDER VOTES                                                                                  01 
00860051031000051   ISDEDGEEdgewood ISD Position 2                                 UNDER VOTES                                                                                  01 
00860051032000051   ISDEDGEEdgewood ISD Position 2                                 UNDER VOTES                                                                                  01 
00860051035000000   ISDEDGEEdgewood ISD Position 2                                 UNDER VOTES                                                                                  01 
00860051088000042   ISDEDGEEdgewood ISD Position 2                                 UNDER VOTES                                                                                  01 
00860051090000001   ISDEDGEEdgewood ISD Position 2                                 UNDER VOTES                                                                                  01 
00860051096000001   ISDEDGEEdgewood ISD Position 2                                 UNDER VOTES                                                                                  01 
00860052011000105   ISDEDGEEdgewood ISD Position 2                                 UNDER VOTES                                                                                  01 
00860052012000051   ISDEDGEEdgewood ISD Position 2                                 UNDER VOTES                                                                                  01 
00860052015000049   ISDEDGEEdgewood ISD Position 2                                 UNDER VOTES                                                                                  01 
00860052016000042   ISDEDGEEdgewood ISD Position 2                                 UNDER VOTES                                                                                  01 
00860052017000038   ISDEDGEEdgewood ISD Position 2                                 UNDER VOTES                                                                                  01 
00860052019000044   ISDEDGEEdgewood ISD Position 2                                 UNDER VOTES                                                                                  01 
00860052020000096   ISDEDGEEdgewood ISD Position 2                                 UNDER VOTES                                                                                  01 
00860052021000083   ISDEDGEEdgewood ISD Position 2                                 UNDER VOTES                                                                                  01 
00860052022000057   ISDEDGEEdgewood ISD Position 2                                 UNDER VOTES                                                                                  01 
00860052030000021   ISDEDGEEdgewood ISD Position 2                                 UNDER VOTES                                                                                  01 
00860052043000039   ISDEDGEEdgewood ISD Position 2                                 UNDER VOTES                                                                                  01 
00860052074000034   ISDEDGEEdgewood ISD Position 2                                 UNDER VOTES                                                                                  01 
00860052075000017   ISDEDGEEdgewood ISD Position 2                                 UNDER VOTES                                                                                  01 
00860052089000012   ISDEDGEEdgewood ISD Position 2                                 UNDER VOTES                                                                                  01 
00860052128000012   ISDEDGEEdgewood ISD Position 2                                 UNDER VOTES                                                                                  01 
00870011013000006NONISDEDGEEdgewood ISD Position 3                                 Fred R. Mann                                                                                 01 
00870011026000000NONISDEDGEEdgewood ISD Position 3                                 Fred R. Mann                                                                                 01 
00870011027000003NONISDEDGEEdgewood ISD Position 3                                 Fred R. Mann                                                                                 01 
00870011029000008NONISDEDGEEdgewood ISD Position 3                                 Fred R. Mann                                                                                 01 
00870011030000001NONISDEDGEEdgewood ISD Position 3                                 Fred R. Mann                                                                                 01 
00870011031000011NONISDEDGEEdgewood ISD Position 3                                 Fred R. Mann                                                                                 01 
00870011032000010NONISDEDGEEdgewood ISD Position 3                                 Fred R. Mann                                                                                 01 
00870011035000000NONISDEDGEEdgewood ISD Position 3                                 Fred R. Mann                                                                                 01 
00870011088000004NONISDEDGEEdgewood ISD Position 3                                 Fred R. Mann                                                                                 01 
00870011090000000NONISDEDGEEdgewood ISD Position 3                                 Fred R. Mann                                                                                 01 
00870011096000001NONISDEDGEEdgewood ISD Position 3                                 Fred R. Mann                                                                                 01 
00870012011000011NONISDEDGEEdgewood ISD Position 3                                 Fred R. Mann                                                                                 01 
00870012012000012NONISDEDGEEdgewood ISD Position 3                                 Fred R. Mann                                                                                 01 
00870012015000017NONISDEDGEEdgewood ISD Position 3                                 Fred R. Mann                                                                                 01 
00870012016000008NONISDEDGEEdgewood ISD Position 3                                 Fred R. Mann                                                                                 01 
00870012017000007NONISDEDGEEdgewood ISD Position 3                                 Fred R. Mann                                                                                 01 
00870012019000010NONISDEDGEEdgewood ISD Position 3                                 Fred R. Mann                                                                                 01 
00870012020000011NONISDEDGEEdgewood ISD Position 3                                 Fred R. Mann                                                                                 01 
00870012021000025NONISDEDGEEdgewood ISD Position 3                                 Fred R. Mann                                                                                 01 
00870012022000010NONISDEDGEEdgewood ISD Position 3                                 Fred R. Mann                                                                                 01 
00870012030000001NONISDEDGEEdgewood ISD Position 3                                 Fred R. Mann                                                                                 01 
00870012043000010NONISDEDGEEdgewood ISD Position 3                                 Fred R. Mann                                                                                 01 
00870012074000010NONISDEDGEEdgewood ISD Position 3                                 Fred R. Mann                                                                                 01 
00870012075000000NONISDEDGEEdgewood ISD Position 3                                 Fred R. Mann                                                                                 01 
00870012089000001NONISDEDGEEdgewood ISD Position 3                                 Fred R. Mann                                                                                 01 
00870012128000002NONISDEDGEEdgewood ISD Position 3                                 Fred R. Mann                                                                                 01 
00870021013000028NONISDEDGEEdgewood ISD Position 3                                 Timothy W. Payne                                                                             01 
00870021026000000NONISDEDGEEdgewood ISD Position 3                                 Timothy W. Payne                                                                             01 
00870021027000014NONISDEDGEEdgewood ISD Position 3                                 Timothy W. Payne                                                                             01 
00870021029000048NONISDEDGEEdgewood ISD Position 3                                 Timothy W. Payne                                                                             01 
00870021030000006NONISDEDGEEdgewood ISD Position 3                                 Timothy W. Payne                                                                             01 
00870021031000040NONISDEDGEEdgewood ISD Position 3                                 Timothy W. Payne                                                                             01 
00870021032000035NONISDEDGEEdgewood ISD Position 3                                 Timothy W. Payne                                                                             01 
00870021035000000NONISDEDGEEdgewood ISD Position 3                                 Timothy W. Payne                                                                             01 
00870021088000018NONISDEDGEEdgewood ISD Position 3                                 Timothy W. Payne                                                                             01 
00870021090000000NONISDEDGEEdgewood ISD Position 3                                 Timothy W. Payne                                                                             01 
00870021096000000NONISDEDGEEdgewood ISD Position 3                                 Timothy W. Payne                                                                             01 
00870022011000033NONISDEDGEEdgewood ISD Position 3                                 Timothy W. Payne                                                                             01 
00870022012000028NONISDEDGEEdgewood ISD Position 3                                 Timothy W. Payne                                                                             01 
00870022015000047NONISDEDGEEdgewood ISD Position 3                                 Timothy W. Payne                                                                             01 
00870022016000013NONISDEDGEEdgewood ISD Position 3                                 Timothy W. Payne                                                                             01 
00870022017000015NONISDEDGEEdgewood ISD Position 3                                 Timothy W. Payne                                                                             01 
00870022019000020NONISDEDGEEdgewood ISD Position 3                                 Timothy W. Payne                                                                             01 
00870022020000085NONISDEDGEEdgewood ISD Position 3                                 Timothy W. Payne                                                                             01 
00870022021000057NONISDEDGEEdgewood ISD Position 3                                 Timothy W. Payne                                                                             01 
00870022022000038NONISDEDGEEdgewood ISD Position 3                                 Timothy W. Payne                                                                             01 
00870022030000008NONISDEDGEEdgewood ISD Position 3                                 Timothy W. Payne                                                                             01 
00870022043000036NONISDEDGEEdgewood ISD Position 3                                 Timothy W. Payne                                                                             01 
00870022074000019NONISDEDGEEdgewood ISD Position 3                                 Timothy W. Payne                                                                             01 
00870022075000000NONISDEDGEEdgewood ISD Position 3                                 Timothy W. Payne                                                                             01 
00870022089000004NONISDEDGEEdgewood ISD Position 3                                 Timothy W. Payne                                                                             01 
00870022128000007NONISDEDGEEdgewood ISD Position 3                                 Timothy W. Payne                                                                             01 
00870031013000064NONISDEDGEEdgewood ISD Position 3                                 Mary Lou Mendoza                                                                             01 
00870031026000000NONISDEDGEEdgewood ISD Position 3                                 Mary Lou Mendoza                                                                             01 
00870031027000012NONISDEDGEEdgewood ISD Position 3                                 Mary Lou Mendoza                                                                             01 
00870031029000090NONISDEDGEEdgewood ISD Position 3                                 Mary Lou Mendoza                                                                             01 
00870031030000001NONISDEDGEEdgewood ISD Position 3                                 Mary Lou Mendoza                                                                             01 
00870031031000073NONISDEDGEEdgewood ISD Position 3                                 Mary Lou Mendoza                                                                             01 
00870031032000119NONISDEDGEEdgewood ISD Position 3                                 Mary Lou Mendoza                                                                             01 
00870031035000000NONISDEDGEEdgewood ISD Position 3                                 Mary Lou Mendoza                                                                             01 
00870031088000057NONISDEDGEEdgewood ISD Position 3                                 Mary Lou Mendoza                                                                             01 
00870031090000000NONISDEDGEEdgewood ISD Position 3                                 Mary Lou Mendoza                                                                             01 
00870031096000002NONISDEDGEEdgewood ISD Position 3                                 Mary Lou Mendoza                                                                             01 
00870032011000133NONISDEDGEEdgewood ISD Position 3                                 Mary Lou Mendoza                                                                             01 
00870032012000069NONISDEDGEEdgewood ISD Position 3                                 Mary Lou Mendoza                                                                             01 
00870032015000071NONISDEDGEEdgewood ISD Position 3                                 Mary Lou Mendoza                                                                             01 
00870032016000044NONISDEDGEEdgewood ISD Position 3                                 Mary Lou Mendoza                                                                             01 
00870032017000060NONISDEDGEEdgewood ISD Position 3                                 Mary Lou Mendoza                                                                             01 
00870032019000065NONISDEDGEEdgewood ISD Position 3                                 Mary Lou Mendoza                                                                             01 
00870032020000076NONISDEDGEEdgewood ISD Position 3                                 Mary Lou Mendoza                                                                             01 
00870032021000131NONISDEDGEEdgewood ISD Position 3                                 Mary Lou Mendoza                                                                             01 
00870032022000110NONISDEDGEEdgewood ISD Position 3                                 Mary Lou Mendoza                                                                             01 
00870032030000023NONISDEDGEEdgewood ISD Position 3                                 Mary Lou Mendoza                                                                             01 
00870032043000067NONISDEDGEEdgewood ISD Position 3                                 Mary Lou Mendoza                                                                             01 
00870032074000042NONISDEDGEEdgewood ISD Position 3                                 Mary Lou Mendoza                                                                             01 
00870032075000022NONISDEDGEEdgewood ISD Position 3                                 Mary Lou Mendoza                                                                             01 
00870032089000009NONISDEDGEEdgewood ISD Position 3                                 Mary Lou Mendoza                                                                             01 
00870032128000022NONISDEDGEEdgewood ISD Position 3                                 Mary Lou Mendoza                                                                             01 
00870041013000000   ISDEDGEEdgewood ISD Position 3                                 OVER VOTES                                                                                   01 
00870041026000000   ISDEDGEEdgewood ISD Position 3                                 OVER VOTES                                                                                   01 
00870041027000000   ISDEDGEEdgewood ISD Position 3                                 OVER VOTES                                                                                   01 
00870041029000000   ISDEDGEEdgewood ISD Position 3                                 OVER VOTES                                                                                   01 
00870041030000000   ISDEDGEEdgewood ISD Position 3                                 OVER VOTES                                                                                   01 
00870041031000000   ISDEDGEEdgewood ISD Position 3                                 OVER VOTES                                                                                   01 
00870041032000000   ISDEDGEEdgewood ISD Position 3                                 OVER VOTES                                                                                   01 
00870041035000000   ISDEDGEEdgewood ISD Position 3                                 OVER VOTES                                                                                   01 
00870041088000000   ISDEDGEEdgewood ISD Position 3                                 OVER VOTES                                                                                   01 
00870041090000000   ISDEDGEEdgewood ISD Position 3                                 OVER VOTES                                                                                   01 
00870041096000000   ISDEDGEEdgewood ISD Position 3                                 OVER VOTES                                                                                   01 
00870042011000000   ISDEDGEEdgewood ISD Position 3                                 OVER VOTES                                                                                   01 
00870042012000000   ISDEDGEEdgewood ISD Position 3                                 OVER VOTES                                                                                   01 
00870042015000000   ISDEDGEEdgewood ISD Position 3                                 OVER VOTES                                                                                   01 
00870042016000000   ISDEDGEEdgewood ISD Position 3                                 OVER VOTES                                                                                   01 
00870042017000000   ISDEDGEEdgewood ISD Position 3                                 OVER VOTES                                                                                   01 
00870042019000000   ISDEDGEEdgewood ISD Position 3                                 OVER VOTES                                                                                   01 
00870042020000000   ISDEDGEEdgewood ISD Position 3                                 OVER VOTES                                                                                   01 
00870042021000000   ISDEDGEEdgewood ISD Position 3                                 OVER VOTES                                                                                   01 
00870042022000000   ISDEDGEEdgewood ISD Position 3                                 OVER VOTES                                                                                   01 
00870042030000000   ISDEDGEEdgewood ISD Position 3                                 OVER VOTES                                                                                   01 
00870042043000000   ISDEDGEEdgewood ISD Position 3                                 OVER VOTES                                                                                   01 
00870042074000000   ISDEDGEEdgewood ISD Position 3                                 OVER VOTES                                                                                   01 
00870042075000000   ISDEDGEEdgewood ISD Position 3                                 OVER VOTES                                                                                   01 
00870042089000000   ISDEDGEEdgewood ISD Position 3                                 OVER VOTES                                                                                   01 
00870042128000000   ISDEDGEEdgewood ISD Position 3                                 OVER VOTES                                                                                   01 
00870051013000036   ISDEDGEEdgewood ISD Position 3                                 UNDER VOTES                                                                                  01 
00870051026000000   ISDEDGEEdgewood ISD Position 3                                 UNDER VOTES                                                                                  01 
00870051027000011   ISDEDGEEdgewood ISD Position 3                                 UNDER VOTES                                                                                  01 
00870051029000054   ISDEDGEEdgewood ISD Position 3                                 UNDER VOTES                                                                                  01 
00870051030000004   ISDEDGEEdgewood ISD Position 3                                 UNDER VOTES                                                                                  01 
00870051031000047   ISDEDGEEdgewood ISD Position 3                                 UNDER VOTES                                                                                  01 
00870051032000042   ISDEDGEEdgewood ISD Position 3                                 UNDER VOTES                                                                                  01 
00870051035000000   ISDEDGEEdgewood ISD Position 3                                 UNDER VOTES                                                                                  01 
00870051088000036   ISDEDGEEdgewood ISD Position 3                                 UNDER VOTES                                                                                  01 
00870051090000001   ISDEDGEEdgewood ISD Position 3                                 UNDER VOTES                                                                                  01 
00870051096000001   ISDEDGEEdgewood ISD Position 3                                 UNDER VOTES                                                                                  01 
00870052011000098   ISDEDGEEdgewood ISD Position 3                                 UNDER VOTES                                                                                  01 
00870052012000042   ISDEDGEEdgewood ISD Position 3                                 UNDER VOTES                                                                                  01 
00870052015000045   ISDEDGEEdgewood ISD Position 3                                 UNDER VOTES                                                                                  01 
00870052016000041   ISDEDGEEdgewood ISD Position 3                                 UNDER VOTES                                                                                  01 
00870052017000029   ISDEDGEEdgewood ISD Position 3                                 UNDER VOTES                                                                                  01 
00870052019000039   ISDEDGEEdgewood ISD Position 3                                 UNDER VOTES                                                                                  01 
00870052020000069   ISDEDGEEdgewood ISD Position 3                                 UNDER VOTES                                                                                  01 
00870052021000068   ISDEDGEEdgewood ISD Position 3                                 UNDER VOTES                                                                                  01 
00870052022000048   ISDEDGEEdgewood ISD Position 3                                 UNDER VOTES                                                                                  01 
00870052030000020   ISDEDGEEdgewood ISD Position 3                                 UNDER VOTES                                                                                  01 
00870052043000037   ISDEDGEEdgewood ISD Position 3                                 UNDER VOTES                                                                                  01 
00870052074000032   ISDEDGEEdgewood ISD Position 3                                 UNDER VOTES                                                                                  01 
00870052075000013   ISDEDGEEdgewood ISD Position 3                                 UNDER VOTES                                                                                  01 
00870052089000010   ISDEDGEEdgewood ISD Position 3                                 UNDER VOTES                                                                                  01 
00870052128000013   ISDEDGEEdgewood ISD Position 3                                 UNDER VOTES                                                                                  01 
