00840011003000182NONEAA6   Edwards Aquifer Authority Director, District 6          Susan Kutscher Hughes                                                                        01 
00840011004000087NONEAA6   Edwards Aquifer Authority Director, District 6          Susan Kutscher Hughes                                                                        01 
00840011005000083NONEAA6   Edwards Aquifer Authority Director, District 6          Susan Kutscher Hughes                                                                        01 
00840011006000264NONEAA6   Edwards Aquifer Authority Director, District 6          Susan Kutscher Hughes                                                                        01 
00840011007000202NONEAA6   Edwards Aquifer Authority Director, District 6          Susan Kutscher Hughes                                                                        01 
00840011008000276NONEAA6   Edwards Aquifer Authority Director, District 6          Susan Kutscher Hughes                                                                        01 
00840011010000087NONEAA6   Edwards Aquifer Authority Director, District 6          Susan Kutscher Hughes                                                                        01 
00840011011000048NONEAA6   Edwards Aquifer Authority Director, District 6          Susan Kutscher Hughes                                                                        01 
00840011012000281NONEAA6   Edwards Aquifer Authority Director, District 6          Susan Kutscher Hughes                                                                        01 
00840011013000268NONEAA6   Edwards Aquifer Authority Director, District 6          Susan Kutscher Hughes                                                                        01 
00840011014000098NONEAA6   Edwards Aquifer Authority Director, District 6          Susan Kutscher Hughes                                                                        01 
00840011015000112NONEAA6   Edwards Aquifer Authority Director, District 6          Susan Kutscher Hughes                                                                        01 
00840011017000028NONEAA6   Edwards Aquifer Authority Director, District 6          Susan Kutscher Hughes                                                                        01 
00840011023000191NONEAA6   Edwards Aquifer Authority Director, District 6          Susan Kutscher Hughes                                                                        01 
00840011026000127NONEAA6   Edwards Aquifer Authority Director, District 6          Susan Kutscher Hughes                                                                        01 
00840011027000029NONEAA6   Edwards Aquifer Authority Director, District 6          Susan Kutscher Hughes                                                                        01 
00840011028000095NONEAA6   Edwards Aquifer Authority Director, District 6          Susan Kutscher Hughes                                                                        01 
00840011029000172NONEAA6   Edwards Aquifer Authority Director, District 6          Susan Kutscher Hughes                                                                        01 
00840011030000008NONEAA6   Edwards Aquifer Authority Director, District 6          Susan Kutscher Hughes                                                                        01 
00840011031000130NONEAA6   Edwards Aquifer Authority Director, District 6          Susan Kutscher Hughes                                                                        01 
00840011033000215NONEAA6   Edwards Aquifer Authority Director, District 6          Susan Kutscher Hughes                                                                        01 
00840011034000698NONEAA6   Edwards Aquifer Authority Director, District 6          Susan Kutscher Hughes                                                                        01 
00840011035000026NONEAA6   Edwards Aquifer Authority Director, District 6          Susan Kutscher Hughes                                                                        01 
00840011036000393NONEAA6   Edwards Aquifer Authority Director, District 6          Susan Kutscher Hughes                                                                        01 
00840011043000157NONEAA6   Edwards Aquifer Authority Director, District 6          Susan Kutscher Hughes                                                                        01 
00840011069000103NONEAA6   Edwards Aquifer Authority Director, District 6          Susan Kutscher Hughes                                                                        01 
00840011070000122NONEAA6   Edwards Aquifer Authority Director, District 6          Susan Kutscher Hughes                                                                        01 
00840011071000233NONEAA6   Edwards Aquifer Authority Director, District 6          Susan Kutscher Hughes                                                                        01 
00840011073000589NONEAA6   Edwards Aquifer Authority Director, District 6          Susan Kutscher Hughes                                                                        01 
00840011074000002NONEAA6   Edwards Aquifer Authority Director, District 6          Susan Kutscher Hughes                                                                        01 
00840011077000202NONEAA6   Edwards Aquifer Authority Director, District 6          Susan Kutscher Hughes                                                                        01 
00840011081000224NONEAA6   Edwards Aquifer Authority Director, District 6          Susan Kutscher Hughes                                                                        01 
00840011082000443NONEAA6   Edwards Aquifer Authority Director, District 6          Susan Kutscher Hughes                                                                        01 
00840011084000206NONEAA6   Edwards Aquifer Authority Director, District 6          Susan Kutscher Hughes                                                                        01 
00840011085000205NONEAA6   Edwards Aquifer Authority Director, District 6          Susan Kutscher Hughes                                                                        01 
00840011086000334NONEAA6   Edwards Aquifer Authority Director, District 6          Susan Kutscher Hughes                                                                        01 
00840011087000133NONEAA6   Edwards Aquifer Authority Director, District 6          Susan Kutscher Hughes                                                                        01 
00840011090000000NONEAA6   Edwards Aquifer Authority Director, District 6          Susan Kutscher Hughes                                                                        01 
00840011096000002NONEAA6   Edwards Aquifer Authority Director, District 6          Susan Kutscher Hughes                                                                        01 
00840011097000064NONEAA6   Edwards Aquifer Authority Director, District 6          Susan Kutscher Hughes                                                                        01 
00840011101000001NONEAA6   Edwards Aquifer Authority Director, District 6          Susan Kutscher Hughes                                                                        01 
00840011103000000NONEAA6   Edwards Aquifer Authority Director, District 6          Susan Kutscher Hughes                                                                        01 
00840011106000000NONEAA6   Edwards Aquifer Authority Director, District 6          Susan Kutscher Hughes                                                                        01 
00840011108000621NONEAA6   Edwards Aquifer Authority Director, District 6          Susan Kutscher Hughes                                                                        01 
00840011110000445NONEAA6   Edwards Aquifer Authority Director, District 6          Susan Kutscher Hughes                                                                        01 
00840011112000490NONEAA6   Edwards Aquifer Authority Director, District 6          Susan Kutscher Hughes                                                                        01 
00840011118000140NONEAA6   Edwards Aquifer Authority Director, District 6          Susan Kutscher Hughes                                                                        01 
00840011119000007NONEAA6   Edwards Aquifer Authority Director, District 6          Susan Kutscher Hughes                                                                        01 
00840011120000006NONEAA6   Edwards Aquifer Authority Director, District 6          Susan Kutscher Hughes                                                                        01 
00840011121000574NONEAA6   Edwards Aquifer Authority Director, District 6          Susan Kutscher Hughes                                                                        01 
00840011122001037NONEAA6   Edwards Aquifer Authority Director, District 6          Susan Kutscher Hughes                                                                        01 
00840011126000000NONEAA6   Edwards Aquifer Authority Director, District 6          Susan Kutscher Hughes                                                                        01 
00840011130000000NONEAA6   Edwards Aquifer Authority Director, District 6          Susan Kutscher Hughes                                                                        01 
00840011131000000NONEAA6   Edwards Aquifer Authority Director, District 6          Susan Kutscher Hughes                                                                        01 
00840011132000000NONEAA6   Edwards Aquifer Authority Director, District 6          Susan Kutscher Hughes                                                                        01 
00840011136000039NONEAA6   Edwards Aquifer Authority Director, District 6          Susan Kutscher Hughes                                                                        01 
00840011137000000NONEAA6   Edwards Aquifer Authority Director, District 6          Susan Kutscher Hughes                                                                        01 
00840012035000293NONEAA6   Edwards Aquifer Authority Director, District 6          Susan Kutscher Hughes                                                                        01 
00840012044000178NONEAA6   Edwards Aquifer Authority Director, District 6          Susan Kutscher Hughes                                                                        01 
00840012055000256NONEAA6   Edwards Aquifer Authority Director, District 6          Susan Kutscher Hughes                                                                        01 
00840012118000003NONEAA6   Edwards Aquifer Authority Director, District 6          Susan Kutscher Hughes                                                                        01 
00840012130000000NONEAA6   Edwards Aquifer Authority Director, District 6          Susan Kutscher Hughes                                                                        01 
00840014001000240NONEAA6   Edwards Aquifer Authority Director, District 6          Susan Kutscher Hughes                                                                        01 
00840014002000064NONEAA6   Edwards Aquifer Authority Director, District 6          Susan Kutscher Hughes                                                                        01 
00840014006000070NONEAA6   Edwards Aquifer Authority Director, District 6          Susan Kutscher Hughes                                                                        01 
00840014008000102NONEAA6   Edwards Aquifer Authority Director, District 6          Susan Kutscher Hughes                                                                        01 
00840014013000106NONEAA6   Edwards Aquifer Authority Director, District 6          Susan Kutscher Hughes                                                                        01 
00840014014000040NONEAA6   Edwards Aquifer Authority Director, District 6          Susan Kutscher Hughes                                                                        01 
00840014016000291NONEAA6   Edwards Aquifer Authority Director, District 6          Susan Kutscher Hughes                                                                        01 
00840014018000251NONEAA6   Edwards Aquifer Authority Director, District 6          Susan Kutscher Hughes                                                                        01 
00840014019000276NONEAA6   Edwards Aquifer Authority Director, District 6          Susan Kutscher Hughes                                                                        01 
00840014023000341NONEAA6   Edwards Aquifer Authority Director, District 6          Susan Kutscher Hughes                                                                        01 
00840014024000347NONEAA6   Edwards Aquifer Authority Director, District 6          Susan Kutscher Hughes                                                                        01 
00840014025000115NONEAA6   Edwards Aquifer Authority Director, District 6          Susan Kutscher Hughes                                                                        01 
00840014026000342NONEAA6   Edwards Aquifer Authority Director, District 6          Susan Kutscher Hughes                                                                        01 
00840014027000205NONEAA6   Edwards Aquifer Authority Director, District 6          Susan Kutscher Hughes                                                                        01 
00840014028000334NONEAA6   Edwards Aquifer Authority Director, District 6          Susan Kutscher Hughes                                                                        01 
00840014029000176NONEAA6   Edwards Aquifer Authority Director, District 6          Susan Kutscher Hughes                                                                        01 
00840014031000162NONEAA6   Edwards Aquifer Authority Director, District 6          Susan Kutscher Hughes                                                                        01 
00840014032000239NONEAA6   Edwards Aquifer Authority Director, District 6          Susan Kutscher Hughes                                                                        01 
00840014033000441NONEAA6   Edwards Aquifer Authority Director, District 6          Susan Kutscher Hughes                                                                        01 
00840014034000216NONEAA6   Edwards Aquifer Authority Director, District 6          Susan Kutscher Hughes                                                                        01 
00840014048000185NONEAA6   Edwards Aquifer Authority Director, District 6          Susan Kutscher Hughes                                                                        01 
00840014062000051NONEAA6   Edwards Aquifer Authority Director, District 6          Susan Kutscher Hughes                                                                        01 
00840014068000020NONEAA6   Edwards Aquifer Authority Director, District 6          Susan Kutscher Hughes                                                                        01 
00840014069000198NONEAA6   Edwards Aquifer Authority Director, District 6          Susan Kutscher Hughes                                                                        01 
00840014073000180NONEAA6   Edwards Aquifer Authority Director, District 6          Susan Kutscher Hughes                                                                        01 
00840014075000061NONEAA6   Edwards Aquifer Authority Director, District 6          Susan Kutscher Hughes                                                                        01 
00840014077000286NONEAA6   Edwards Aquifer Authority Director, District 6          Susan Kutscher Hughes                                                                        01 
00840014085000011NONEAA6   Edwards Aquifer Authority Director, District 6          Susan Kutscher Hughes                                                                        01 
00840014087000134NONEAA6   Edwards Aquifer Authority Director, District 6          Susan Kutscher Hughes                                                                        01 
00840014101000135NONEAA6   Edwards Aquifer Authority Director, District 6          Susan Kutscher Hughes                                                                        01 
00840014103000001NONEAA6   Edwards Aquifer Authority Director, District 6          Susan Kutscher Hughes                                                                        01 
00840014109000010NONEAA6   Edwards Aquifer Authority Director, District 6          Susan Kutscher Hughes                                                                        01 
00840014110000194NONEAA6   Edwards Aquifer Authority Director, District 6          Susan Kutscher Hughes                                                                        01 
00840014118000005NONEAA6   Edwards Aquifer Authority Director, District 6          Susan Kutscher Hughes                                                                        01 
00840014121000031NONEAA6   Edwards Aquifer Authority Director, District 6          Susan Kutscher Hughes                                                                        01 
00840014127000001NONEAA6   Edwards Aquifer Authority Director, District 6          Susan Kutscher Hughes                                                                        01 
00840014129000000NONEAA6   Edwards Aquifer Authority Director, District 6          Susan Kutscher Hughes                                                                        01 
00840014133000004NONEAA6   Edwards Aquifer Authority Director, District 6          Susan Kutscher Hughes                                                                        01 
00840014136000046NONEAA6   Edwards Aquifer Authority Director, District 6          Susan Kutscher Hughes                                                                        01 
00840014137000013NONEAA6   Edwards Aquifer Authority Director, District 6          Susan Kutscher Hughes                                                                        01 
00840014153000002NONEAA6   Edwards Aquifer Authority Director, District 6          Susan Kutscher Hughes                                                                        01 
00840014159000001NONEAA6   Edwards Aquifer Authority Director, District 6          Susan Kutscher Hughes                                                                        01 
00840014177000002NONEAA6   Edwards Aquifer Authority Director, District 6          Susan Kutscher Hughes                                                                        01 
00840014178000003NONEAA6   Edwards Aquifer Authority Director, District 6          Susan Kutscher Hughes                                                                        01 
00840014180000000NONEAA6   Edwards Aquifer Authority Director, District 6          Susan Kutscher Hughes                                                                        01 
00840014183000016NONEAA6   Edwards Aquifer Authority Director, District 6          Susan Kutscher Hughes                                                                        01 
00840014200000240NONEAA6   Edwards Aquifer Authority Director, District 6          Susan Kutscher Hughes                                                                        01 
00840014202000000NONEAA6   Edwards Aquifer Authority Director, District 6          Susan Kutscher Hughes                                                                        01 
00840014204000010NONEAA6   Edwards Aquifer Authority Director, District 6          Susan Kutscher Hughes                                                                        01 
00840014207000000NONEAA6   Edwards Aquifer Authority Director, District 6          Susan Kutscher Hughes                                                                        01 
00840014208000000NONEAA6   Edwards Aquifer Authority Director, District 6          Susan Kutscher Hughes                                                                        01 
00840014209000004NONEAA6   Edwards Aquifer Authority Director, District 6          Susan Kutscher Hughes                                                                        01 
00840014213000000NONEAA6   Edwards Aquifer Authority Director, District 6          Susan Kutscher Hughes                                                                        01 
00840014214000000NONEAA6   Edwards Aquifer Authority Director, District 6          Susan Kutscher Hughes                                                                        01 
00840014215000014NONEAA6   Edwards Aquifer Authority Director, District 6          Susan Kutscher Hughes                                                                        01 
00840021003000039NONEAA6   Edwards Aquifer Authority Director, District 6          Roderick O. Clarke                                                                           01 
00840021004000030NONEAA6   Edwards Aquifer Authority Director, District 6          Roderick O. Clarke                                                                           01 
00840021005000012NONEAA6   Edwards Aquifer Authority Director, District 6          Roderick O. Clarke                                                                           01 
00840021006000053NONEAA6   Edwards Aquifer Authority Director, District 6          Roderick O. Clarke                                                                           01 
00840021007000050NONEAA6   Edwards Aquifer Authority Director, District 6          Roderick O. Clarke                                                                           01 
00840021008000056NONEAA6   Edwards Aquifer Authority Director, District 6          Roderick O. Clarke                                                                           01 
00840021010000009NONEAA6   Edwards Aquifer Authority Director, District 6          Roderick O. Clarke                                                                           01 
00840021011000015NONEAA6   Edwards Aquifer Authority Director, District 6          Roderick O. Clarke                                                                           01 
00840021012000088NONEAA6   Edwards Aquifer Authority Director, District 6          Roderick O. Clarke                                                                           01 
00840021013000071NONEAA6   Edwards Aquifer Authority Director, District 6          Roderick O. Clarke                                                                           01 
00840021014000028NONEAA6   Edwards Aquifer Authority Director, District 6          Roderick O. Clarke                                                                           01 
00840021015000027NONEAA6   Edwards Aquifer Authority Director, District 6          Roderick O. Clarke                                                                           01 
00840021017000007NONEAA6   Edwards Aquifer Authority Director, District 6          Roderick O. Clarke                                                                           01 
00840021023000068NONEAA6   Edwards Aquifer Authority Director, District 6          Roderick O. Clarke                                                                           01 
00840021026000042NONEAA6   Edwards Aquifer Authority Director, District 6          Roderick O. Clarke                                                                           01 
00840021027000003NONEAA6   Edwards Aquifer Authority Director, District 6          Roderick O. Clarke                                                                           01 
00840021028000026NONEAA6   Edwards Aquifer Authority Director, District 6          Roderick O. Clarke                                                                           01 
00840021029000044NONEAA6   Edwards Aquifer Authority Director, District 6          Roderick O. Clarke                                                                           01 
00840021030000001NONEAA6   Edwards Aquifer Authority Director, District 6          Roderick O. Clarke                                                                           01 
00840021031000051NONEAA6   Edwards Aquifer Authority Director, District 6          Roderick O. Clarke                                                                           01 
00840021033000064NONEAA6   Edwards Aquifer Authority Director, District 6          Roderick O. Clarke                                                                           01 
00840021034000224NONEAA6   Edwards Aquifer Authority Director, District 6          Roderick O. Clarke                                                                           01 
00840021035000005NONEAA6   Edwards Aquifer Authority Director, District 6          Roderick O. Clarke                                                                           01 
00840021036000130NONEAA6   Edwards Aquifer Authority Director, District 6          Roderick O. Clarke                                                                           01 
00840021043000047NONEAA6   Edwards Aquifer Authority Director, District 6          Roderick O. Clarke                                                                           01 
00840021069000027NONEAA6   Edwards Aquifer Authority Director, District 6          Roderick O. Clarke                                                                           01 
00840021070000036NONEAA6   Edwards Aquifer Authority Director, District 6          Roderick O. Clarke                                                                           01 
00840021071000071NONEAA6   Edwards Aquifer Authority Director, District 6          Roderick O. Clarke                                                                           01 
00840021073000166NONEAA6   Edwards Aquifer Authority Director, District 6          Roderick O. Clarke                                                                           01 
00840021074000000NONEAA6   Edwards Aquifer Authority Director, District 6          Roderick O. Clarke                                                                           01 
00840021077000052NONEAA6   Edwards Aquifer Authority Director, District 6          Roderick O. Clarke                                                                           01 
00840021081000067NONEAA6   Edwards Aquifer Authority Director, District 6          Roderick O. Clarke                                                                           01 
00840021082000124NONEAA6   Edwards Aquifer Authority Director, District 6          Roderick O. Clarke                                                                           01 
00840021084000058NONEAA6   Edwards Aquifer Authority Director, District 6          Roderick O. Clarke                                                                           01 
00840021085000049NONEAA6   Edwards Aquifer Authority Director, District 6          Roderick O. Clarke                                                                           01 
00840021086000096NONEAA6   Edwards Aquifer Authority Director, District 6          Roderick O. Clarke                                                                           01 
00840021087000061NONEAA6   Edwards Aquifer Authority Director, District 6          Roderick O. Clarke                                                                           01 
00840021090000000NONEAA6   Edwards Aquifer Authority Director, District 6          Roderick O. Clarke                                                                           01 
00840021096000000NONEAA6   Edwards Aquifer Authority Director, District 6          Roderick O. Clarke                                                                           01 
00840021097000024NONEAA6   Edwards Aquifer Authority Director, District 6          Roderick O. Clarke                                                                           01 
00840021101000000NONEAA6   Edwards Aquifer Authority Director, District 6          Roderick O. Clarke                                                                           01 
00840021103000000NONEAA6   Edwards Aquifer Authority Director, District 6          Roderick O. Clarke                                                                           01 
00840021106000000NONEAA6   Edwards Aquifer Authority Director, District 6          Roderick O. Clarke                                                                           01 
00840021108000168NONEAA6   Edwards Aquifer Authority Director, District 6          Roderick O. Clarke                                                                           01 
00840021110000138NONEAA6   Edwards Aquifer Authority Director, District 6          Roderick O. Clarke                                                                           01 
00840021112000133NONEAA6   Edwards Aquifer Authority Director, District 6          Roderick O. Clarke                                                                           01 
00840021118000035NONEAA6   Edwards Aquifer Authority Director, District 6          Roderick O. Clarke                                                                           01 
00840021119000005NONEAA6   Edwards Aquifer Authority Director, District 6          Roderick O. Clarke                                                                           01 
00840021120000002NONEAA6   Edwards Aquifer Authority Director, District 6          Roderick O. Clarke                                                                           01 
00840021121000162NONEAA6   Edwards Aquifer Authority Director, District 6          Roderick O. Clarke                                                                           01 
00840021122000261NONEAA6   Edwards Aquifer Authority Director, District 6          Roderick O. Clarke                                                                           01 
00840021126000000NONEAA6   Edwards Aquifer Authority Director, District 6          Roderick O. Clarke                                                                           01 
00840021130000000NONEAA6   Edwards Aquifer Authority Director, District 6          Roderick O. Clarke                                                                           01 
00840021131000000NONEAA6   Edwards Aquifer Authority Director, District 6          Roderick O. Clarke                                                                           01 
00840021132000000NONEAA6   Edwards Aquifer Authority Director, District 6          Roderick O. Clarke                                                                           01 
00840021136000008NONEAA6   Edwards Aquifer Authority Director, District 6          Roderick O. Clarke                                                                           01 
00840021137000000NONEAA6   Edwards Aquifer Authority Director, District 6          Roderick O. Clarke                                                                           01 
00840022035000064NONEAA6   Edwards Aquifer Authority Director, District 6          Roderick O. Clarke                                                                           01 
00840022044000044NONEAA6   Edwards Aquifer Authority Director, District 6          Roderick O. Clarke                                                                           01 
00840022055000050NONEAA6   Edwards Aquifer Authority Director, District 6          Roderick O. Clarke                                                                           01 
00840022118000000NONEAA6   Edwards Aquifer Authority Director, District 6          Roderick O. Clarke                                                                           01 
00840022130000000NONEAA6   Edwards Aquifer Authority Director, District 6          Roderick O. Clarke                                                                           01 
00840024001000059NONEAA6   Edwards Aquifer Authority Director, District 6          Roderick O. Clarke                                                                           01 
00840024002000030NONEAA6   Edwards Aquifer Authority Director, District 6          Roderick O. Clarke                                                                           01 
00840024006000016NONEAA6   Edwards Aquifer Authority Director, District 6          Roderick O. Clarke                                                                           01 
00840024008000015NONEAA6   Edwards Aquifer Authority Director, District 6          Roderick O. Clarke                                                                           01 
00840024013000032NONEAA6   Edwards Aquifer Authority Director, District 6          Roderick O. Clarke                                                                           01 
00840024014000017NONEAA6   Edwards Aquifer Authority Director, District 6          Roderick O. Clarke                                                                           01 
00840024016000076NONEAA6   Edwards Aquifer Authority Director, District 6          Roderick O. Clarke                                                                           01 
00840024018000037NONEAA6   Edwards Aquifer Authority Director, District 6          Roderick O. Clarke                                                                           01 
00840024019000106NONEAA6   Edwards Aquifer Authority Director, District 6          Roderick O. Clarke                                                                           01 
00840024023000089NONEAA6   Edwards Aquifer Authority Director, District 6          Roderick O. Clarke                                                                           01 
00840024024000080NONEAA6   Edwards Aquifer Authority Director, District 6          Roderick O. Clarke                                                                           01 
00840024025000040NONEAA6   Edwards Aquifer Authority Director, District 6          Roderick O. Clarke                                                                           01 
00840024026000109NONEAA6   Edwards Aquifer Authority Director, District 6          Roderick O. Clarke                                                                           01 
00840024027000059NONEAA6   Edwards Aquifer Authority Director, District 6          Roderick O. Clarke                                                                           01 
00840024028000096NONEAA6   Edwards Aquifer Authority Director, District 6          Roderick O. Clarke                                                                           01 
00840024029000070NONEAA6   Edwards Aquifer Authority Director, District 6          Roderick O. Clarke                                                                           01 
00840024031000056NONEAA6   Edwards Aquifer Authority Director, District 6          Roderick O. Clarke                                                                           01 
00840024032000054NONEAA6   Edwards Aquifer Authority Director, District 6          Roderick O. Clarke                                                                           01 
00840024033000120NONEAA6   Edwards Aquifer Authority Director, District 6          Roderick O. Clarke                                                                           01 
00840024034000072NONEAA6   Edwards Aquifer Authority Director, District 6          Roderick O. Clarke                                                                           01 
00840024048000055NONEAA6   Edwards Aquifer Authority Director, District 6          Roderick O. Clarke                                                                           01 
00840024062000018NONEAA6   Edwards Aquifer Authority Director, District 6          Roderick O. Clarke                                                                           01 
00840024068000004NONEAA6   Edwards Aquifer Authority Director, District 6          Roderick O. Clarke                                                                           01 
00840024069000052NONEAA6   Edwards Aquifer Authority Director, District 6          Roderick O. Clarke                                                                           01 
00840024073000044NONEAA6   Edwards Aquifer Authority Director, District 6          Roderick O. Clarke                                                                           01 
00840024075000015NONEAA6   Edwards Aquifer Authority Director, District 6          Roderick O. Clarke                                                                           01 
00840024077000066NONEAA6   Edwards Aquifer Authority Director, District 6          Roderick O. Clarke                                                                           01 
00840024085000005NONEAA6   Edwards Aquifer Authority Director, District 6          Roderick O. Clarke                                                                           01 
00840024087000058NONEAA6   Edwards Aquifer Authority Director, District 6          Roderick O. Clarke                                                                           01 
00840024101000025NONEAA6   Edwards Aquifer Authority Director, District 6          Roderick O. Clarke                                                                           01 
00840024103000000NONEAA6   Edwards Aquifer Authority Director, District 6          Roderick O. Clarke                                                                           01 
00840024109000005NONEAA6   Edwards Aquifer Authority Director, District 6          Roderick O. Clarke                                                                           01 
00840024110000035NONEAA6   Edwards Aquifer Authority Director, District 6          Roderick O. Clarke                                                                           01 
00840024118000001NONEAA6   Edwards Aquifer Authority Director, District 6          Roderick O. Clarke                                                                           01 
00840024121000008NONEAA6   Edwards Aquifer Authority Director, District 6          Roderick O. Clarke                                                                           01 
00840024127000001NONEAA6   Edwards Aquifer Authority Director, District 6          Roderick O. Clarke                                                                           01 
00840024129000000NONEAA6   Edwards Aquifer Authority Director, District 6          Roderick O. Clarke                                                                           01 
00840024133000002NONEAA6   Edwards Aquifer Authority Director, District 6          Roderick O. Clarke                                                                           01 
00840024136000007NONEAA6   Edwards Aquifer Authority Director, District 6          Roderick O. Clarke                                                                           01 
00840024137000001NONEAA6   Edwards Aquifer Authority Director, District 6          Roderick O. Clarke                                                                           01 
00840024153000002NONEAA6   Edwards Aquifer Authority Director, District 6          Roderick O. Clarke                                                                           01 
00840024159000000NONEAA6   Edwards Aquifer Authority Director, District 6          Roderick O. Clarke                                                                           01 
00840024177000001NONEAA6   Edwards Aquifer Authority Director, District 6          Roderick O. Clarke                                                                           01 
00840024178000000NONEAA6   Edwards Aquifer Authority Director, District 6          Roderick O. Clarke                                                                           01 
00840024180000000NONEAA6   Edwards Aquifer Authority Director, District 6          Roderick O. Clarke                                                                           01 
00840024183000002NONEAA6   Edwards Aquifer Authority Director, District 6          Roderick O. Clarke                                                                           01 
00840024200000064NONEAA6   Edwards Aquifer Authority Director, District 6          Roderick O. Clarke                                                                           01 
00840024202000000NONEAA6   Edwards Aquifer Authority Director, District 6          Roderick O. Clarke                                                                           01 
00840024204000001NONEAA6   Edwards Aquifer Authority Director, District 6          Roderick O. Clarke                                                                           01 
00840024207000000NONEAA6   Edwards Aquifer Authority Director, District 6          Roderick O. Clarke                                                                           01 
00840024208000000NONEAA6   Edwards Aquifer Authority Director, District 6          Roderick O. Clarke                                                                           01 
00840024209000007NONEAA6   Edwards Aquifer Authority Director, District 6          Roderick O. Clarke                                                                           01 
00840024213000000NONEAA6   Edwards Aquifer Authority Director, District 6          Roderick O. Clarke                                                                           01 
00840024214000000NONEAA6   Edwards Aquifer Authority Director, District 6          Roderick O. Clarke                                                                           01 
00840024215000006NONEAA6   Edwards Aquifer Authority Director, District 6          Roderick O. Clarke                                                                           01 
00840031003000000   EAA6   Edwards Aquifer Authority Director, District 6          OVER VOTES                                                                                   01 
00840031004000000   EAA6   Edwards Aquifer Authority Director, District 6          OVER VOTES                                                                                   01 
00840031005000000   EAA6   Edwards Aquifer Authority Director, District 6          OVER VOTES                                                                                   01 
00840031006000000   EAA6   Edwards Aquifer Authority Director, District 6          OVER VOTES                                                                                   01 
00840031007000000   EAA6   Edwards Aquifer Authority Director, District 6          OVER VOTES                                                                                   01 
00840031008000000   EAA6   Edwards Aquifer Authority Director, District 6          OVER VOTES                                                                                   01 
00840031010000000   EAA6   Edwards Aquifer Authority Director, District 6          OVER VOTES                                                                                   01 
00840031011000000   EAA6   Edwards Aquifer Authority Director, District 6          OVER VOTES                                                                                   01 
00840031012000000   EAA6   Edwards Aquifer Authority Director, District 6          OVER VOTES                                                                                   01 
00840031013000000   EAA6   Edwards Aquifer Authority Director, District 6          OVER VOTES                                                                                   01 
00840031014000000   EAA6   Edwards Aquifer Authority Director, District 6          OVER VOTES                                                                                   01 
00840031015000000   EAA6   Edwards Aquifer Authority Director, District 6          OVER VOTES                                                                                   01 
00840031017000000   EAA6   Edwards Aquifer Authority Director, District 6          OVER VOTES                                                                                   01 
00840031023000000   EAA6   Edwards Aquifer Authority Director, District 6          OVER VOTES                                                                                   01 
00840031026000000   EAA6   Edwards Aquifer Authority Director, District 6          OVER VOTES                                                                                   01 
00840031027000000   EAA6   Edwards Aquifer Authority Director, District 6          OVER VOTES                                                                                   01 
00840031028000000   EAA6   Edwards Aquifer Authority Director, District 6          OVER VOTES                                                                                   01 
00840031029000000   EAA6   Edwards Aquifer Authority Director, District 6          OVER VOTES                                                                                   01 
00840031030000000   EAA6   Edwards Aquifer Authority Director, District 6          OVER VOTES                                                                                   01 
00840031031000000   EAA6   Edwards Aquifer Authority Director, District 6          OVER VOTES                                                                                   01 
00840031033000000   EAA6   Edwards Aquifer Authority Director, District 6          OVER VOTES                                                                                   01 
00840031034000000   EAA6   Edwards Aquifer Authority Director, District 6          OVER VOTES                                                                                   01 
00840031035000000   EAA6   Edwards Aquifer Authority Director, District 6          OVER VOTES                                                                                   01 
00840031036000001   EAA6   Edwards Aquifer Authority Director, District 6          OVER VOTES                                                                                   01 
00840031043000000   EAA6   Edwards Aquifer Authority Director, District 6          OVER VOTES                                                                                   01 
00840031069000000   EAA6   Edwards Aquifer Authority Director, District 6          OVER VOTES                                                                                   01 
00840031070000000   EAA6   Edwards Aquifer Authority Director, District 6          OVER VOTES                                                                                   01 
00840031071000000   EAA6   Edwards Aquifer Authority Director, District 6          OVER VOTES                                                                                   01 
00840031073000000   EAA6   Edwards Aquifer Authority Director, District 6          OVER VOTES                                                                                   01 
00840031074000000   EAA6   Edwards Aquifer Authority Director, District 6          OVER VOTES                                                                                   01 
00840031077000000   EAA6   Edwards Aquifer Authority Director, District 6          OVER VOTES                                                                                   01 
00840031081000000   EAA6   Edwards Aquifer Authority Director, District 6          OVER VOTES                                                                                   01 
00840031082000000   EAA6   Edwards Aquifer Authority Director, District 6          OVER VOTES                                                                                   01 
00840031084000000   EAA6   Edwards Aquifer Authority Director, District 6          OVER VOTES                                                                                   01 
00840031085000000   EAA6   Edwards Aquifer Authority Director, District 6          OVER VOTES                                                                                   01 
00840031086000000   EAA6   Edwards Aquifer Authority Director, District 6          OVER VOTES                                                                                   01 
00840031087000000   EAA6   Edwards Aquifer Authority Director, District 6          OVER VOTES                                                                                   01 
00840031090000000   EAA6   Edwards Aquifer Authority Director, District 6          OVER VOTES                                                                                   01 
00840031096000000   EAA6   Edwards Aquifer Authority Director, District 6          OVER VOTES                                                                                   01 
00840031097000000   EAA6   Edwards Aquifer Authority Director, District 6          OVER VOTES                                                                                   01 
00840031101000000   EAA6   Edwards Aquifer Authority Director, District 6          OVER VOTES                                                                                   01 
00840031103000000   EAA6   Edwards Aquifer Authority Director, District 6          OVER VOTES                                                                                   01 
00840031106000000   EAA6   Edwards Aquifer Authority Director, District 6          OVER VOTES                                                                                   01 
00840031108000000   EAA6   Edwards Aquifer Authority Director, District 6          OVER VOTES                                                                                   01 
00840031110000000   EAA6   Edwards Aquifer Authority Director, District 6          OVER VOTES                                                                                   01 
00840031112000000   EAA6   Edwards Aquifer Authority Director, District 6          OVER VOTES                                                                                   01 
00840031118000000   EAA6   Edwards Aquifer Authority Director, District 6          OVER VOTES                                                                                   01 
00840031119000000   EAA6   Edwards Aquifer Authority Director, District 6          OVER VOTES                                                                                   01 
00840031120000000   EAA6   Edwards Aquifer Authority Director, District 6          OVER VOTES                                                                                   01 
00840031121000000   EAA6   Edwards Aquifer Authority Director, District 6          OVER VOTES                                                                                   01 
00840031122000000   EAA6   Edwards Aquifer Authority Director, District 6          OVER VOTES                                                                                   01 
00840031126000000   EAA6   Edwards Aquifer Authority Director, District 6          OVER VOTES                                                                                   01 
00840031130000000   EAA6   Edwards Aquifer Authority Director, District 6          OVER VOTES                                                                                   01 
00840031131000000   EAA6   Edwards Aquifer Authority Director, District 6          OVER VOTES                                                                                   01 
00840031132000000   EAA6   Edwards Aquifer Authority Director, District 6          OVER VOTES                                                                                   01 
00840031136000000   EAA6   Edwards Aquifer Authority Director, District 6          OVER VOTES                                                                                   01 
00840031137000000   EAA6   Edwards Aquifer Authority Director, District 6          OVER VOTES                                                                                   01 
00840032035000000   EAA6   Edwards Aquifer Authority Director, District 6          OVER VOTES                                                                                   01 
00840032044000000   EAA6   Edwards Aquifer Authority Director, District 6          OVER VOTES                                                                                   01 
00840032055000000   EAA6   Edwards Aquifer Authority Director, District 6          OVER VOTES                                                                                   01 
00840032118000000   EAA6   Edwards Aquifer Authority Director, District 6          OVER VOTES                                                                                   01 
00840032130000000   EAA6   Edwards Aquifer Authority Director, District 6          OVER VOTES                                                                                   01 
00840034001000000   EAA6   Edwards Aquifer Authority Director, District 6          OVER VOTES                                                                                   01 
00840034002000000   EAA6   Edwards Aquifer Authority Director, District 6          OVER VOTES                                                                                   01 
00840034006000000   EAA6   Edwards Aquifer Authority Director, District 6          OVER VOTES                                                                                   01 
00840034008000000   EAA6   Edwards Aquifer Authority Director, District 6          OVER VOTES                                                                                   01 
00840034013000000   EAA6   Edwards Aquifer Authority Director, District 6          OVER VOTES                                                                                   01 
00840034014000000   EAA6   Edwards Aquifer Authority Director, District 6          OVER VOTES                                                                                   01 
00840034016000000   EAA6   Edwards Aquifer Authority Director, District 6          OVER VOTES                                                                                   01 
00840034018000000   EAA6   Edwards Aquifer Authority Director, District 6          OVER VOTES                                                                                   01 
00840034019000000   EAA6   Edwards Aquifer Authority Director, District 6          OVER VOTES                                                                                   01 
00840034023000000   EAA6   Edwards Aquifer Authority Director, District 6          OVER VOTES                                                                                   01 
00840034024000000   EAA6   Edwards Aquifer Authority Director, District 6          OVER VOTES                                                                                   01 
00840034025000000   EAA6   Edwards Aquifer Authority Director, District 6          OVER VOTES                                                                                   01 
00840034026000000   EAA6   Edwards Aquifer Authority Director, District 6          OVER VOTES                                                                                   01 
00840034027000000   EAA6   Edwards Aquifer Authority Director, District 6          OVER VOTES                                                                                   01 
00840034028000000   EAA6   Edwards Aquifer Authority Director, District 6          OVER VOTES                                                                                   01 
00840034029000000   EAA6   Edwards Aquifer Authority Director, District 6          OVER VOTES                                                                                   01 
00840034031000000   EAA6   Edwards Aquifer Authority Director, District 6          OVER VOTES                                                                                   01 
00840034032000000   EAA6   Edwards Aquifer Authority Director, District 6          OVER VOTES                                                                                   01 
00840034033000000   EAA6   Edwards Aquifer Authority Director, District 6          OVER VOTES                                                                                   01 
00840034034000000   EAA6   Edwards Aquifer Authority Director, District 6          OVER VOTES                                                                                   01 
00840034048000000   EAA6   Edwards Aquifer Authority Director, District 6          OVER VOTES                                                                                   01 
00840034062000000   EAA6   Edwards Aquifer Authority Director, District 6          OVER VOTES                                                                                   01 
00840034068000000   EAA6   Edwards Aquifer Authority Director, District 6          OVER VOTES                                                                                   01 
00840034069000000   EAA6   Edwards Aquifer Authority Director, District 6          OVER VOTES                                                                                   01 
00840034073000000   EAA6   Edwards Aquifer Authority Director, District 6          OVER VOTES                                                                                   01 
00840034075000000   EAA6   Edwards Aquifer Authority Director, District 6          OVER VOTES                                                                                   01 
00840034077000000   EAA6   Edwards Aquifer Authority Director, District 6          OVER VOTES                                                                                   01 
00840034085000000   EAA6   Edwards Aquifer Authority Director, District 6          OVER VOTES                                                                                   01 
00840034087000000   EAA6   Edwards Aquifer Authority Director, District 6          OVER VOTES                                                                                   01 
00840034101000000   EAA6   Edwards Aquifer Authority Director, District 6          OVER VOTES                                                                                   01 
00840034103000000   EAA6   Edwards Aquifer Authority Director, District 6          OVER VOTES                                                                                   01 
00840034109000000   EAA6   Edwards Aquifer Authority Director, District 6          OVER VOTES                                                                                   01 
00840034110000000   EAA6   Edwards Aquifer Authority Director, District 6          OVER VOTES                                                                                   01 
00840034118000000   EAA6   Edwards Aquifer Authority Director, District 6          OVER VOTES                                                                                   01 
00840034121000000   EAA6   Edwards Aquifer Authority Director, District 6          OVER VOTES                                                                                   01 
00840034127000000   EAA6   Edwards Aquifer Authority Director, District 6          OVER VOTES                                                                                   01 
00840034129000000   EAA6   Edwards Aquifer Authority Director, District 6          OVER VOTES                                                                                   01 
00840034133000000   EAA6   Edwards Aquifer Authority Director, District 6          OVER VOTES                                                                                   01 
00840034136000000   EAA6   Edwards Aquifer Authority Director, District 6          OVER VOTES                                                                                   01 
00840034137000000   EAA6   Edwards Aquifer Authority Director, District 6          OVER VOTES                                                                                   01 
00840034153000000   EAA6   Edwards Aquifer Authority Director, District 6          OVER VOTES                                                                                   01 
00840034159000000   EAA6   Edwards Aquifer Authority Director, District 6          OVER VOTES                                                                                   01 
00840034177000000   EAA6   Edwards Aquifer Authority Director, District 6          OVER VOTES                                                                                   01 
00840034178000000   EAA6   Edwards Aquifer Authority Director, District 6          OVER VOTES                                                                                   01 
00840034180000000   EAA6   Edwards Aquifer Authority Director, District 6          OVER VOTES                                                                                   01 
00840034183000000   EAA6   Edwards Aquifer Authority Director, District 6          OVER VOTES                                                                                   01 
00840034200000000   EAA6   Edwards Aquifer Authority Director, District 6          OVER VOTES                                                                                   01 
00840034202000000   EAA6   Edwards Aquifer Authority Director, District 6          OVER VOTES                                                                                   01 
00840034204000000   EAA6   Edwards Aquifer Authority Director, District 6          OVER VOTES                                                                                   01 
00840034207000000   EAA6   Edwards Aquifer Authority Director, District 6          OVER VOTES                                                                                   01 
00840034208000000   EAA6   Edwards Aquifer Authority Director, District 6          OVER VOTES                                                                                   01 
00840034209000000   EAA6   Edwards Aquifer Authority Director, District 6          OVER VOTES                                                                                   01 
00840034213000000   EAA6   Edwards Aquifer Authority Director, District 6          OVER VOTES                                                                                   01 
00840034214000000   EAA6   Edwards Aquifer Authority Director, District 6          OVER VOTES                                                                                   01 
00840034215000000   EAA6   Edwards Aquifer Authority Director, District 6          OVER VOTES                                                                                   01 
00840041003000169   EAA6   Edwards Aquifer Authority Director, District 6          UNDER VOTES                                                                                  01 
00840041004000083   EAA6   Edwards Aquifer Authority Director, District 6          UNDER VOTES                                                                                  01 
00840041005000077   EAA6   Edwards Aquifer Authority Director, District 6          UNDER VOTES                                                                                  01 
00840041006000190   EAA6   Edwards Aquifer Authority Director, District 6          UNDER VOTES                                                                                  01 
00840041007000143   EAA6   Edwards Aquifer Authority Director, District 6          UNDER VOTES                                                                                  01 
00840041008000212   EAA6   Edwards Aquifer Authority Director, District 6          UNDER VOTES                                                                                  01 
00840041010000047   EAA6   Edwards Aquifer Authority Director, District 6          UNDER VOTES                                                                                  01 
00840041011000044   EAA6   Edwards Aquifer Authority Director, District 6          UNDER VOTES                                                                                  01 
00840041012000226   EAA6   Edwards Aquifer Authority Director, District 6          UNDER VOTES                                                                                  01 
00840041013000246   EAA6   Edwards Aquifer Authority Director, District 6          UNDER VOTES                                                                                  01 
00840041014000118   EAA6   Edwards Aquifer Authority Director, District 6          UNDER VOTES                                                                                  01 
00840041015000111   EAA6   Edwards Aquifer Authority Director, District 6          UNDER VOTES                                                                                  01 
00840041017000022   EAA6   Edwards Aquifer Authority Director, District 6          UNDER VOTES                                                                                  01 
00840041023000230   EAA6   Edwards Aquifer Authority Director, District 6          UNDER VOTES                                                                                  01 
00840041026000133   EAA6   Edwards Aquifer Authority Director, District 6          UNDER VOTES                                                                                  01 
00840041027000023   EAA6   Edwards Aquifer Authority Director, District 6          UNDER VOTES                                                                                  01 
00840041028000107   EAA6   Edwards Aquifer Authority Director, District 6          UNDER VOTES                                                                                  01 
00840041029000139   EAA6   Edwards Aquifer Authority Director, District 6          UNDER VOTES                                                                                  01 
00840041030000007   EAA6   Edwards Aquifer Authority Director, District 6          UNDER VOTES                                                                                  01 
00840041031000110   EAA6   Edwards Aquifer Authority Director, District 6          UNDER VOTES                                                                                  01 
00840041033000132   EAA6   Edwards Aquifer Authority Director, District 6          UNDER VOTES                                                                                  01 
00840041034000514   EAA6   Edwards Aquifer Authority Director, District 6          UNDER VOTES                                                                                  01 
00840041035000021   EAA6   Edwards Aquifer Authority Director, District 6          UNDER VOTES                                                                                  01 
00840041036000336   EAA6   Edwards Aquifer Authority Director, District 6          UNDER VOTES                                                                                  01 
00840041043000126   EAA6   Edwards Aquifer Authority Director, District 6          UNDER VOTES                                                                                  01 
00840041069000074   EAA6   Edwards Aquifer Authority Director, District 6          UNDER VOTES                                                                                  01 
00840041070000081   EAA6   Edwards Aquifer Authority Director, District 6          UNDER VOTES                                                                                  01 
00840041071000171   EAA6   Edwards Aquifer Authority Director, District 6          UNDER VOTES                                                                                  01 
00840041073000465   EAA6   Edwards Aquifer Authority Director, District 6          UNDER VOTES                                                                                  01 
00840041074000002   EAA6   Edwards Aquifer Authority Director, District 6          UNDER VOTES                                                                                  01 
00840041077000177   EAA6   Edwards Aquifer Authority Director, District 6          UNDER VOTES                                                                                  01 
00840041081000260   EAA6   Edwards Aquifer Authority Director, District 6          UNDER VOTES                                                                                  01 
00840041082000320   EAA6   Edwards Aquifer Authority Director, District 6          UNDER VOTES                                                                                  01 
00840041084000174   EAA6   Edwards Aquifer Authority Director, District 6          UNDER VOTES                                                                                  01 
00840041085000150   EAA6   Edwards Aquifer Authority Director, District 6          UNDER VOTES                                                                                  01 
00840041086000262   EAA6   Edwards Aquifer Authority Director, District 6          UNDER VOTES                                                                                  01 
00840041087000131   EAA6   Edwards Aquifer Authority Director, District 6          UNDER VOTES                                                                                  01 
00840041090000001   EAA6   Edwards Aquifer Authority Director, District 6          UNDER VOTES                                                                                  01 
00840041096000002   EAA6   Edwards Aquifer Authority Director, District 6          UNDER VOTES                                                                                  01 
00840041097000085   EAA6   Edwards Aquifer Authority Director, District 6          UNDER VOTES                                                                                  01 
00840041101000000   EAA6   Edwards Aquifer Authority Director, District 6          UNDER VOTES                                                                                  01 
00840041103000000   EAA6   Edwards Aquifer Authority Director, District 6          UNDER VOTES                                                                                  01 
00840041106000000   EAA6   Edwards Aquifer Authority Director, District 6          UNDER VOTES                                                                                  01 
00840041108000452   EAA6   Edwards Aquifer Authority Director, District 6          UNDER VOTES                                                                                  01 
00840041110000349   EAA6   Edwards Aquifer Authority Director, District 6          UNDER VOTES                                                                                  01 
00840041112000355   EAA6   Edwards Aquifer Authority Director, District 6          UNDER VOTES                                                                                  01 
00840041118000105   EAA6   Edwards Aquifer Authority Director, District 6          UNDER VOTES                                                                                  01 
00840041119000008   EAA6   Edwards Aquifer Authority Director, District 6          UNDER VOTES                                                                                  01 
00840041120000012   EAA6   Edwards Aquifer Authority Director, District 6          UNDER VOTES                                                                                  01 
00840041121000439   EAA6   Edwards Aquifer Authority Director, District 6          UNDER VOTES                                                                                  01 
00840041122000768   EAA6   Edwards Aquifer Authority Director, District 6          UNDER VOTES                                                                                  01 
00840041126000000   EAA6   Edwards Aquifer Authority Director, District 6          UNDER VOTES                                                                                  01 
00840041130000000   EAA6   Edwards Aquifer Authority Director, District 6          UNDER VOTES                                                                                  01 
00840041131000000   EAA6   Edwards Aquifer Authority Director, District 6          UNDER VOTES                                                                                  01 
00840041132000002   EAA6   Edwards Aquifer Authority Director, District 6          UNDER VOTES                                                                                  01 
00840041136000017   EAA6   Edwards Aquifer Authority Director, District 6          UNDER VOTES                                                                                  01 
00840041137000000   EAA6   Edwards Aquifer Authority Director, District 6          UNDER VOTES                                                                                  01 
00840042035000210   EAA6   Edwards Aquifer Authority Director, District 6          UNDER VOTES                                                                                  01 
00840042044000159   EAA6   Edwards Aquifer Authority Director, District 6          UNDER VOTES                                                                                  01 
00840042055000285   EAA6   Edwards Aquifer Authority Director, District 6          UNDER VOTES                                                                                  01 
00840042118000001   EAA6   Edwards Aquifer Authority Director, District 6          UNDER VOTES                                                                                  01 
00840042130000000   EAA6   Edwards Aquifer Authority Director, District 6          UNDER VOTES                                                                                  01 
00840044001000216   EAA6   Edwards Aquifer Authority Director, District 6          UNDER VOTES                                                                                  01 
00840044002000069   EAA6   Edwards Aquifer Authority Director, District 6          UNDER VOTES                                                                                  01 
00840044006000061   EAA6   Edwards Aquifer Authority Director, District 6          UNDER VOTES                                                                                  01 
00840044008000119   EAA6   Edwards Aquifer Authority Director, District 6          UNDER VOTES                                                                                  01 
00840044013000079   EAA6   Edwards Aquifer Authority Director, District 6          UNDER VOTES                                                                                  01 
00840044014000032   EAA6   Edwards Aquifer Authority Director, District 6          UNDER VOTES                                                                                  01 
00840044016000211   EAA6   Edwards Aquifer Authority Director, District 6          UNDER VOTES                                                                                  01 
00840044018000159   EAA6   Edwards Aquifer Authority Director, District 6          UNDER VOTES                                                                                  01 
00840044019000197   EAA6   Edwards Aquifer Authority Director, District 6          UNDER VOTES                                                                                  01 
00840044023000224   EAA6   Edwards Aquifer Authority Director, District 6          UNDER VOTES                                                                                  01 
00840044024000249   EAA6   Edwards Aquifer Authority Director, District 6          UNDER VOTES                                                                                  01 
00840044025000117   EAA6   Edwards Aquifer Authority Director, District 6          UNDER VOTES                                                                                  01 
00840044026000279   EAA6   Edwards Aquifer Authority Director, District 6          UNDER VOTES                                                                                  01 
00840044027000169   EAA6   Edwards Aquifer Authority Director, District 6          UNDER VOTES                                                                                  01 
00840044028000283   EAA6   Edwards Aquifer Authority Director, District 6          UNDER VOTES                                                                                  01 
00840044029000210   EAA6   Edwards Aquifer Authority Director, District 6          UNDER VOTES                                                                                  01 
00840044031000125   EAA6   Edwards Aquifer Authority Director, District 6          UNDER VOTES                                                                                  01 
00840044032000157   EAA6   Edwards Aquifer Authority Director, District 6          UNDER VOTES                                                                                  01 
00840044033000303   EAA6   Edwards Aquifer Authority Director, District 6          UNDER VOTES                                                                                  01 
00840044034000228   EAA6   Edwards Aquifer Authority Director, District 6          UNDER VOTES                                                                                  01 
00840044048000173   EAA6   Edwards Aquifer Authority Director, District 6          UNDER VOTES                                                                                  01 
00840044062000049   EAA6   Edwards Aquifer Authority Director, District 6          UNDER VOTES                                                                                  01 
00840044068000015   EAA6   Edwards Aquifer Authority Director, District 6          UNDER VOTES                                                                                  01 
00840044069000158   EAA6   Edwards Aquifer Authority Director, District 6          UNDER VOTES                                                                                  01 
00840044073000147   EAA6   Edwards Aquifer Authority Director, District 6          UNDER VOTES                                                                                  01 
00840044075000062   EAA6   Edwards Aquifer Authority Director, District 6          UNDER VOTES                                                                                  01 
00840044077000177   EAA6   Edwards Aquifer Authority Director, District 6          UNDER VOTES                                                                                  01 
00840044085000012   EAA6   Edwards Aquifer Authority Director, District 6          UNDER VOTES                                                                                  01 
00840044087000101   EAA6   Edwards Aquifer Authority Director, District 6          UNDER VOTES                                                                                  01 
00840044101000120   EAA6   Edwards Aquifer Authority Director, District 6          UNDER VOTES                                                                                  01 
00840044103000001   EAA6   Edwards Aquifer Authority Director, District 6          UNDER VOTES                                                                                  01 
00840044109000010   EAA6   Edwards Aquifer Authority Director, District 6          UNDER VOTES                                                                                  01 
00840044110000121   EAA6   Edwards Aquifer Authority Director, District 6          UNDER VOTES                                                                                  01 
00840044118000010   EAA6   Edwards Aquifer Authority Director, District 6          UNDER VOTES                                                                                  01 
00840044121000017   EAA6   Edwards Aquifer Authority Director, District 6          UNDER VOTES                                                                                  01 
00840044127000002   EAA6   Edwards Aquifer Authority Director, District 6          UNDER VOTES                                                                                  01 
00840044129000000   EAA6   Edwards Aquifer Authority Director, District 6          UNDER VOTES                                                                                  01 
00840044133000003   EAA6   Edwards Aquifer Authority Director, District 6          UNDER VOTES                                                                                  01 
00840044136000025   EAA6   Edwards Aquifer Authority Director, District 6          UNDER VOTES                                                                                  01 
00840044137000017   EAA6   Edwards Aquifer Authority Director, District 6          UNDER VOTES                                                                                  01 
00840044153000001   EAA6   Edwards Aquifer Authority Director, District 6          UNDER VOTES                                                                                  01 
00840044159000004   EAA6   Edwards Aquifer Authority Director, District 6          UNDER VOTES                                                                                  01 
00840044177000004   EAA6   Edwards Aquifer Authority Director, District 6          UNDER VOTES                                                                                  01 
00840044178000000   EAA6   Edwards Aquifer Authority Director, District 6          UNDER VOTES                                                                                  01 
00840044180000000   EAA6   Edwards Aquifer Authority Director, District 6          UNDER VOTES                                                                                  01 
00840044183000015   EAA6   Edwards Aquifer Authority Director, District 6          UNDER VOTES                                                                                  01 
00840044200000131   EAA6   Edwards Aquifer Authority Director, District 6          UNDER VOTES                                                                                  01 
00840044202000000   EAA6   Edwards Aquifer Authority Director, District 6          UNDER VOTES                                                                                  01 
00840044204000008   EAA6   Edwards Aquifer Authority Director, District 6          UNDER VOTES                                                                                  01 
00840044207000000   EAA6   Edwards Aquifer Authority Director, District 6          UNDER VOTES                                                                                  01 
00840044208000000   EAA6   Edwards Aquifer Authority Director, District 6          UNDER VOTES                                                                                  01 
00840044209000007   EAA6   Edwards Aquifer Authority Director, District 6          UNDER VOTES                                                                                  01 
00840044213000000   EAA6   Edwards Aquifer Authority Director, District 6          UNDER VOTES                                                                                  01 
00840044214000000   EAA6   Edwards Aquifer Authority Director, District 6          UNDER VOTES                                                                                  01 
00840044215000010   EAA6   Edwards Aquifer Authority Director, District 6          UNDER VOTES                                                                                  01 
