00840011003000089NONEAA6   Edwards Aquifer Authority Director, District 6          Susan Kutscher Hughes                                                                        01 
00840011004000063NONEAA6   Edwards Aquifer Authority Director, District 6          Susan Kutscher Hughes                                                                        01 
00840011005000047NONEAA6   Edwards Aquifer Authority Director, District 6          Susan Kutscher Hughes                                                                        01 
00840011006000153NONEAA6   Edwards Aquifer Authority Director, District 6          Susan Kutscher Hughes                                                                        01 
00840011007000121NONEAA6   Edwards Aquifer Authority Director, District 6          Susan Kutscher Hughes                                                                        01 
00840011008000186NONEAA6   Edwards Aquifer Authority Director, District 6          Susan Kutscher Hughes                                                                        01 
00840011010000054NONEAA6   Edwards Aquifer Authority Director, District 6          Susan Kutscher Hughes                                                                        01 
00840011011000025NONEAA6   Edwards Aquifer Authority Director, District 6          Susan Kutscher Hughes                                                                        01 
00840011012000173NONEAA6   Edwards Aquifer Authority Director, District 6          Susan Kutscher Hughes                                                                        01 
00840011013000162NONEAA6   Edwards Aquifer Authority Director, District 6          Susan Kutscher Hughes                                                                        01 
00840011014000067NONEAA6   Edwards Aquifer Authority Director, District 6          Susan Kutscher Hughes                                                                        01 
00840011015000060NONEAA6   Edwards Aquifer Authority Director, District 6          Susan Kutscher Hughes                                                                        01 
00840011017000023NONEAA6   Edwards Aquifer Authority Director, District 6          Susan Kutscher Hughes                                                                        01 
00840011023000096NONEAA6   Edwards Aquifer Authority Director, District 6          Susan Kutscher Hughes                                                                        01 
00840011026000074NONEAA6   Edwards Aquifer Authority Director, District 6          Susan Kutscher Hughes                                                                        01 
00840011027000019NONEAA6   Edwards Aquifer Authority Director, District 6          Susan Kutscher Hughes                                                                        01 
00840011028000040NONEAA6   Edwards Aquifer Authority Director, District 6          Susan Kutscher Hughes                                                                        01 
00840011029000101NONEAA6   Edwards Aquifer Authority Director, District 6          Susan Kutscher Hughes                                                                        01 
00840011030000006NONEAA6   Edwards Aquifer Authority Director, District 6          Susan Kutscher Hughes                                                                        01 
00840011031000070NONEAA6   Edwards Aquifer Authority Director, District 6          Susan Kutscher Hughes                                                                        01 
00840011033000134NONEAA6   Edwards Aquifer Authority Director, District 6          Susan Kutscher Hughes                                                                        01 
00840011034000365NONEAA6   Edwards Aquifer Authority Director, District 6          Susan Kutscher Hughes                                                                        01 
00840011035000013NONEAA6   Edwards Aquifer Authority Director, District 6          Susan Kutscher Hughes                                                                        01 
00840011036000277NONEAA6   Edwards Aquifer Authority Director, District 6          Susan Kutscher Hughes                                                                        01 
00840011043000099NONEAA6   Edwards Aquifer Authority Director, District 6          Susan Kutscher Hughes                                                                        01 
00840011069000078NONEAA6   Edwards Aquifer Authority Director, District 6          Susan Kutscher Hughes                                                                        01 
00840011070000066NONEAA6   Edwards Aquifer Authority Director, District 6          Susan Kutscher Hughes                                                                        01 
00840011071000108NONEAA6   Edwards Aquifer Authority Director, District 6          Susan Kutscher Hughes                                                                        01 
00840011073000312NONEAA6   Edwards Aquifer Authority Director, District 6          Susan Kutscher Hughes                                                                        01 
00840011074000000NONEAA6   Edwards Aquifer Authority Director, District 6          Susan Kutscher Hughes                                                                        01 
00840011077000132NONEAA6   Edwards Aquifer Authority Director, District 6          Susan Kutscher Hughes                                                                        01 
00840011081000093NONEAA6   Edwards Aquifer Authority Director, District 6          Susan Kutscher Hughes                                                                        01 
00840011082000241NONEAA6   Edwards Aquifer Authority Director, District 6          Susan Kutscher Hughes                                                                        01 
00840011084000152NONEAA6   Edwards Aquifer Authority Director, District 6          Susan Kutscher Hughes                                                                        01 
00840011085000120NONEAA6   Edwards Aquifer Authority Director, District 6          Susan Kutscher Hughes                                                                        01 
00840011086000224NONEAA6   Edwards Aquifer Authority Director, District 6          Susan Kutscher Hughes                                                                        01 
00840011087000080NONEAA6   Edwards Aquifer Authority Director, District 6          Susan Kutscher Hughes                                                                        01 
00840011090000000NONEAA6   Edwards Aquifer Authority Director, District 6          Susan Kutscher Hughes                                                                        01 
00840011096000002NONEAA6   Edwards Aquifer Authority Director, District 6          Susan Kutscher Hughes                                                                        01 
00840011097000039NONEAA6   Edwards Aquifer Authority Director, District 6          Susan Kutscher Hughes                                                                        01 
00840011101000001NONEAA6   Edwards Aquifer Authority Director, District 6          Susan Kutscher Hughes                                                                        01 
00840011103000000NONEAA6   Edwards Aquifer Authority Director, District 6          Susan Kutscher Hughes                                                                        01 
00840011106000000NONEAA6   Edwards Aquifer Authority Director, District 6          Susan Kutscher Hughes                                                                        01 
00840011108000341NONEAA6   Edwards Aquifer Authority Director, District 6          Susan Kutscher Hughes                                                                        01 
00840011110000234NONEAA6   Edwards Aquifer Authority Director, District 6          Susan Kutscher Hughes                                                                        01 
00840011112000245NONEAA6   Edwards Aquifer Authority Director, District 6          Susan Kutscher Hughes                                                                        01 
00840011118000065NONEAA6   Edwards Aquifer Authority Director, District 6          Susan Kutscher Hughes                                                                        01 
00840011119000003NONEAA6   Edwards Aquifer Authority Director, District 6          Susan Kutscher Hughes                                                                        01 
00840011120000003NONEAA6   Edwards Aquifer Authority Director, District 6          Susan Kutscher Hughes                                                                        01 
00840011121000267NONEAA6   Edwards Aquifer Authority Director, District 6          Susan Kutscher Hughes                                                                        01 
00840011122000747NONEAA6   Edwards Aquifer Authority Director, District 6          Susan Kutscher Hughes                                                                        01 
00840011126000000NONEAA6   Edwards Aquifer Authority Director, District 6          Susan Kutscher Hughes                                                                        01 
00840011130000000NONEAA6   Edwards Aquifer Authority Director, District 6          Susan Kutscher Hughes                                                                        01 
00840011131000000NONEAA6   Edwards Aquifer Authority Director, District 6          Susan Kutscher Hughes                                                                        01 
00840011132000000NONEAA6   Edwards Aquifer Authority Director, District 6          Susan Kutscher Hughes                                                                        01 
00840011136000026NONEAA6   Edwards Aquifer Authority Director, District 6          Susan Kutscher Hughes                                                                        01 
00840011137000000NONEAA6   Edwards Aquifer Authority Director, District 6          Susan Kutscher Hughes                                                                        01 
00840012035000199NONEAA6   Edwards Aquifer Authority Director, District 6          Susan Kutscher Hughes                                                                        01 
00840012044000096NONEAA6   Edwards Aquifer Authority Director, District 6          Susan Kutscher Hughes                                                                        01 
00840012055000152NONEAA6   Edwards Aquifer Authority Director, District 6          Susan Kutscher Hughes                                                                        01 
00840012118000003NONEAA6   Edwards Aquifer Authority Director, District 6          Susan Kutscher Hughes                                                                        01 
00840012130000000NONEAA6   Edwards Aquifer Authority Director, District 6          Susan Kutscher Hughes                                                                        01 
00840014001000173NONEAA6   Edwards Aquifer Authority Director, District 6          Susan Kutscher Hughes                                                                        01 
00840014002000027NONEAA6   Edwards Aquifer Authority Director, District 6          Susan Kutscher Hughes                                                                        01 
00840014006000042NONEAA6   Edwards Aquifer Authority Director, District 6          Susan Kutscher Hughes                                                                        01 
00840014008000066NONEAA6   Edwards Aquifer Authority Director, District 6          Susan Kutscher Hughes                                                                        01 
00840014013000064NONEAA6   Edwards Aquifer Authority Director, District 6          Susan Kutscher Hughes                                                                        01 
00840014014000026NONEAA6   Edwards Aquifer Authority Director, District 6          Susan Kutscher Hughes                                                                        01 
00840014016000158NONEAA6   Edwards Aquifer Authority Director, District 6          Susan Kutscher Hughes                                                                        01 
00840014018000157NONEAA6   Edwards Aquifer Authority Director, District 6          Susan Kutscher Hughes                                                                        01 
00840014019000135NONEAA6   Edwards Aquifer Authority Director, District 6          Susan Kutscher Hughes                                                                        01 
00840014023000216NONEAA6   Edwards Aquifer Authority Director, District 6          Susan Kutscher Hughes                                                                        01 
00840014024000195NONEAA6   Edwards Aquifer Authority Director, District 6          Susan Kutscher Hughes                                                                        01 
00840014025000068NONEAA6   Edwards Aquifer Authority Director, District 6          Susan Kutscher Hughes                                                                        01 
00840014026000235NONEAA6   Edwards Aquifer Authority Director, District 6          Susan Kutscher Hughes                                                                        01 
00840014027000140NONEAA6   Edwards Aquifer Authority Director, District 6          Susan Kutscher Hughes                                                                        01 
00840014028000199NONEAA6   Edwards Aquifer Authority Director, District 6          Susan Kutscher Hughes                                                                        01 
00840014029000096NONEAA6   Edwards Aquifer Authority Director, District 6          Susan Kutscher Hughes                                                                        01 
00840014031000092NONEAA6   Edwards Aquifer Authority Director, District 6          Susan Kutscher Hughes                                                                        01 
00840014032000141NONEAA6   Edwards Aquifer Authority Director, District 6          Susan Kutscher Hughes                                                                        01 
00840014033000261NONEAA6   Edwards Aquifer Authority Director, District 6          Susan Kutscher Hughes                                                                        01 
00840014034000157NONEAA6   Edwards Aquifer Authority Director, District 6          Susan Kutscher Hughes                                                                        01 
00840014048000099NONEAA6   Edwards Aquifer Authority Director, District 6          Susan Kutscher Hughes                                                                        01 
00840014062000028NONEAA6   Edwards Aquifer Authority Director, District 6          Susan Kutscher Hughes                                                                        01 
00840014068000013NONEAA6   Edwards Aquifer Authority Director, District 6          Susan Kutscher Hughes                                                                        01 
00840014069000082NONEAA6   Edwards Aquifer Authority Director, District 6          Susan Kutscher Hughes                                                                        01 
00840014073000103NONEAA6   Edwards Aquifer Authority Director, District 6          Susan Kutscher Hughes                                                                        01 
00840014075000040NONEAA6   Edwards Aquifer Authority Director, District 6          Susan Kutscher Hughes                                                                        01 
00840014077000175NONEAA6   Edwards Aquifer Authority Director, District 6          Susan Kutscher Hughes                                                                        01 
00840014085000006NONEAA6   Edwards Aquifer Authority Director, District 6          Susan Kutscher Hughes                                                                        01 
00840014087000073NONEAA6   Edwards Aquifer Authority Director, District 6          Susan Kutscher Hughes                                                                        01 
00840014101000065NONEAA6   Edwards Aquifer Authority Director, District 6          Susan Kutscher Hughes                                                                        01 
00840014103000000NONEAA6   Edwards Aquifer Authority Director, District 6          Susan Kutscher Hughes                                                                        01 
00840014109000008NONEAA6   Edwards Aquifer Authority Director, District 6          Susan Kutscher Hughes                                                                        01 
00840014110000114NONEAA6   Edwards Aquifer Authority Director, District 6          Susan Kutscher Hughes                                                                        01 
00840014118000004NONEAA6   Edwards Aquifer Authority Director, District 6          Susan Kutscher Hughes                                                                        01 
00840014121000022NONEAA6   Edwards Aquifer Authority Director, District 6          Susan Kutscher Hughes                                                                        01 
00840014127000000NONEAA6   Edwards Aquifer Authority Director, District 6          Susan Kutscher Hughes                                                                        01 
00840014129000000NONEAA6   Edwards Aquifer Authority Director, District 6          Susan Kutscher Hughes                                                                        01 
00840014133000002NONEAA6   Edwards Aquifer Authority Director, District 6          Susan Kutscher Hughes                                                                        01 
00840014136000029NONEAA6   Edwards Aquifer Authority Director, District 6          Susan Kutscher Hughes                                                                        01 
00840014137000003NONEAA6   Edwards Aquifer Authority Director, District 6          Susan Kutscher Hughes                                                                        01 
00840014153000001NONEAA6   Edwards Aquifer Authority Director, District 6          Susan Kutscher Hughes                                                                        01 
00840014159000000NONEAA6   Edwards Aquifer Authority Director, District 6          Susan Kutscher Hughes                                                                        01 
00840014177000000NONEAA6   Edwards Aquifer Authority Director, District 6          Susan Kutscher Hughes                                                                        01 
00840014178000003NONEAA6   Edwards Aquifer Authority Director, District 6          Susan Kutscher Hughes                                                                        01 
00840014180000000NONEAA6   Edwards Aquifer Authority Director, District 6          Susan Kutscher Hughes                                                                        01 
00840014183000013NONEAA6   Edwards Aquifer Authority Director, District 6          Susan Kutscher Hughes                                                                        01 
00840014200000146NONEAA6   Edwards Aquifer Authority Director, District 6          Susan Kutscher Hughes                                                                        01 
00840014202000000NONEAA6   Edwards Aquifer Authority Director, District 6          Susan Kutscher Hughes                                                                        01 
00840014204000005NONEAA6   Edwards Aquifer Authority Director, District 6          Susan Kutscher Hughes                                                                        01 
00840014207000000NONEAA6   Edwards Aquifer Authority Director, District 6          Susan Kutscher Hughes                                                                        01 
00840014208000000NONEAA6   Edwards Aquifer Authority Director, District 6          Susan Kutscher Hughes                                                                        01 
00840014209000004NONEAA6   Edwards Aquifer Authority Director, District 6          Susan Kutscher Hughes                                                                        01 
00840014213000000NONEAA6   Edwards Aquifer Authority Director, District 6          Susan Kutscher Hughes                                                                        01 
00840014214000000NONEAA6   Edwards Aquifer Authority Director, District 6          Susan Kutscher Hughes                                                                        01 
00840014215000008NONEAA6   Edwards Aquifer Authority Director, District 6          Susan Kutscher Hughes                                                                        01 
00840021003000014NONEAA6   Edwards Aquifer Authority Director, District 6          Roderick O. Clarke                                                                           01 
00840021004000019NONEAA6   Edwards Aquifer Authority Director, District 6          Roderick O. Clarke                                                                           01 
00840021005000005NONEAA6   Edwards Aquifer Authority Director, District 6          Roderick O. Clarke                                                                           01 
00840021006000028NONEAA6   Edwards Aquifer Authority Director, District 6          Roderick O. Clarke                                                                           01 
00840021007000031NONEAA6   Edwards Aquifer Authority Director, District 6          Roderick O. Clarke                                                                           01 
00840021008000035NONEAA6   Edwards Aquifer Authority Director, District 6          Roderick O. Clarke                                                                           01 
00840021010000006NONEAA6   Edwards Aquifer Authority Director, District 6          Roderick O. Clarke                                                                           01 
00840021011000012NONEAA6   Edwards Aquifer Authority Director, District 6          Roderick O. Clarke                                                                           01 
00840021012000053NONEAA6   Edwards Aquifer Authority Director, District 6          Roderick O. Clarke                                                                           01 
00840021013000035NONEAA6   Edwards Aquifer Authority Director, District 6          Roderick O. Clarke                                                                           01 
00840021014000013NONEAA6   Edwards Aquifer Authority Director, District 6          Roderick O. Clarke                                                                           01 
00840021015000013NONEAA6   Edwards Aquifer Authority Director, District 6          Roderick O. Clarke                                                                           01 
00840021017000004NONEAA6   Edwards Aquifer Authority Director, District 6          Roderick O. Clarke                                                                           01 
00840021023000030NONEAA6   Edwards Aquifer Authority Director, District 6          Roderick O. Clarke                                                                           01 
00840021026000023NONEAA6   Edwards Aquifer Authority Director, District 6          Roderick O. Clarke                                                                           01 
00840021027000003NONEAA6   Edwards Aquifer Authority Director, District 6          Roderick O. Clarke                                                                           01 
00840021028000014NONEAA6   Edwards Aquifer Authority Director, District 6          Roderick O. Clarke                                                                           01 
00840021029000021NONEAA6   Edwards Aquifer Authority Director, District 6          Roderick O. Clarke                                                                           01 
00840021030000001NONEAA6   Edwards Aquifer Authority Director, District 6          Roderick O. Clarke                                                                           01 
00840021031000028NONEAA6   Edwards Aquifer Authority Director, District 6          Roderick O. Clarke                                                                           01 
00840021033000038NONEAA6   Edwards Aquifer Authority Director, District 6          Roderick O. Clarke                                                                           01 
00840021034000118NONEAA6   Edwards Aquifer Authority Director, District 6          Roderick O. Clarke                                                                           01 
00840021035000003NONEAA6   Edwards Aquifer Authority Director, District 6          Roderick O. Clarke                                                                           01 
00840021036000080NONEAA6   Edwards Aquifer Authority Director, District 6          Roderick O. Clarke                                                                           01 
00840021043000027NONEAA6   Edwards Aquifer Authority Director, District 6          Roderick O. Clarke                                                                           01 
00840021069000020NONEAA6   Edwards Aquifer Authority Director, District 6          Roderick O. Clarke                                                                           01 
00840021070000021NONEAA6   Edwards Aquifer Authority Director, District 6          Roderick O. Clarke                                                                           01 
00840021071000041NONEAA6   Edwards Aquifer Authority Director, District 6          Roderick O. Clarke                                                                           01 
00840021073000092NONEAA6   Edwards Aquifer Authority Director, District 6          Roderick O. Clarke                                                                           01 
00840021074000000NONEAA6   Edwards Aquifer Authority Director, District 6          Roderick O. Clarke                                                                           01 
00840021077000033NONEAA6   Edwards Aquifer Authority Director, District 6          Roderick O. Clarke                                                                           01 
00840021081000029NONEAA6   Edwards Aquifer Authority Director, District 6          Roderick O. Clarke                                                                           01 
00840021082000065NONEAA6   Edwards Aquifer Authority Director, District 6          Roderick O. Clarke                                                                           01 
00840021084000041NONEAA6   Edwards Aquifer Authority Director, District 6          Roderick O. Clarke                                                                           01 
00840021085000028NONEAA6   Edwards Aquifer Authority Director, District 6          Roderick O. Clarke                                                                           01 
00840021086000069NONEAA6   Edwards Aquifer Authority Director, District 6          Roderick O. Clarke                                                                           01 
00840021087000042NONEAA6   Edwards Aquifer Authority Director, District 6          Roderick O. Clarke                                                                           01 
00840021090000000NONEAA6   Edwards Aquifer Authority Director, District 6          Roderick O. Clarke                                                                           01 
00840021096000000NONEAA6   Edwards Aquifer Authority Director, District 6          Roderick O. Clarke                                                                           01 
00840021097000016NONEAA6   Edwards Aquifer Authority Director, District 6          Roderick O. Clarke                                                                           01 
00840021101000000NONEAA6   Edwards Aquifer Authority Director, District 6          Roderick O. Clarke                                                                           01 
00840021103000000NONEAA6   Edwards Aquifer Authority Director, District 6          Roderick O. Clarke                                                                           01 
00840021106000000NONEAA6   Edwards Aquifer Authority Director, District 6          Roderick O. Clarke                                                                           01 
00840021108000086NONEAA6   Edwards Aquifer Authority Director, District 6          Roderick O. Clarke                                                                           01 
00840021110000069NONEAA6   Edwards Aquifer Authority Director, District 6          Roderick O. Clarke                                                                           01 
00840021112000066NONEAA6   Edwards Aquifer Authority Director, District 6          Roderick O. Clarke                                                                           01 
00840021118000023NONEAA6   Edwards Aquifer Authority Director, District 6          Roderick O. Clarke                                                                           01 
00840021119000002NONEAA6   Edwards Aquifer Authority Director, District 6          Roderick O. Clarke                                                                           01 
00840021120000000NONEAA6   Edwards Aquifer Authority Director, District 6          Roderick O. Clarke                                                                           01 
00840021121000090NONEAA6   Edwards Aquifer Authority Director, District 6          Roderick O. Clarke                                                                           01 
00840021122000186NONEAA6   Edwards Aquifer Authority Director, District 6          Roderick O. Clarke                                                                           01 
00840021126000000NONEAA6   Edwards Aquifer Authority Director, District 6          Roderick O. Clarke                                                                           01 
00840021130000000NONEAA6   Edwards Aquifer Authority Director, District 6          Roderick O. Clarke                                                                           01 
00840021131000000NONEAA6   Edwards Aquifer Authority Director, District 6          Roderick O. Clarke                                                                           01 
00840021132000000NONEAA6   Edwards Aquifer Authority Director, District 6          Roderick O. Clarke                                                                           01 
00840021136000005NONEAA6   Edwards Aquifer Authority Director, District 6          Roderick O. Clarke                                                                           01 
00840021137000000NONEAA6   Edwards Aquifer Authority Director, District 6          Roderick O. Clarke                                                                           01 
00840022035000041NONEAA6   Edwards Aquifer Authority Director, District 6          Roderick O. Clarke                                                                           01 
00840022044000029NONEAA6   Edwards Aquifer Authority Director, District 6          Roderick O. Clarke                                                                           01 
00840022055000026NONEAA6   Edwards Aquifer Authority Director, District 6          Roderick O. Clarke                                                                           01 
00840022118000000NONEAA6   Edwards Aquifer Authority Director, District 6          Roderick O. Clarke                                                                           01 
00840022130000000NONEAA6   Edwards Aquifer Authority Director, District 6          Roderick O. Clarke                                                                           01 
00840024001000046NONEAA6   Edwards Aquifer Authority Director, District 6          Roderick O. Clarke                                                                           01 
00840024002000013NONEAA6   Edwards Aquifer Authority Director, District 6          Roderick O. Clarke                                                                           01 
00840024006000009NONEAA6   Edwards Aquifer Authority Director, District 6          Roderick O. Clarke                                                                           01 
00840024008000013NONEAA6   Edwards Aquifer Authority Director, District 6          Roderick O. Clarke                                                                           01 
00840024013000017NONEAA6   Edwards Aquifer Authority Director, District 6          Roderick O. Clarke                                                                           01 
00840024014000011NONEAA6   Edwards Aquifer Authority Director, District 6          Roderick O. Clarke                                                                           01 
00840024016000046NONEAA6   Edwards Aquifer Authority Director, District 6          Roderick O. Clarke                                                                           01 
00840024018000021NONEAA6   Edwards Aquifer Authority Director, District 6          Roderick O. Clarke                                                                           01 
00840024019000059NONEAA6   Edwards Aquifer Authority Director, District 6          Roderick O. Clarke                                                                           01 
00840024023000057NONEAA6   Edwards Aquifer Authority Director, District 6          Roderick O. Clarke                                                                           01 
00840024024000047NONEAA6   Edwards Aquifer Authority Director, District 6          Roderick O. Clarke                                                                           01 
00840024025000024NONEAA6   Edwards Aquifer Authority Director, District 6          Roderick O. Clarke                                                                           01 
00840024026000086NONEAA6   Edwards Aquifer Authority Director, District 6          Roderick O. Clarke                                                                           01 
00840024027000044NONEAA6   Edwards Aquifer Authority Director, District 6          Roderick O. Clarke                                                                           01 
00840024028000055NONEAA6   Edwards Aquifer Authority Director, District 6          Roderick O. Clarke                                                                           01 
00840024029000039NONEAA6   Edwards Aquifer Authority Director, District 6          Roderick O. Clarke                                                                           01 
00840024031000026NONEAA6   Edwards Aquifer Authority Director, District 6          Roderick O. Clarke                                                                           01 
00840024032000037NONEAA6   Edwards Aquifer Authority Director, District 6          Roderick O. Clarke                                                                           01 
00840024033000071NONEAA6   Edwards Aquifer Authority Director, District 6          Roderick O. Clarke                                                                           01 
00840024034000062NONEAA6   Edwards Aquifer Authority Director, District 6          Roderick O. Clarke                                                                           01 
00840024048000035NONEAA6   Edwards Aquifer Authority Director, District 6          Roderick O. Clarke                                                                           01 
00840024062000011NONEAA6   Edwards Aquifer Authority Director, District 6          Roderick O. Clarke                                                                           01 
00840024068000004NONEAA6   Edwards Aquifer Authority Director, District 6          Roderick O. Clarke                                                                           01 
00840024069000027NONEAA6   Edwards Aquifer Authority Director, District 6          Roderick O. Clarke                                                                           01 
00840024073000028NONEAA6   Edwards Aquifer Authority Director, District 6          Roderick O. Clarke                                                                           01 
00840024075000011NONEAA6   Edwards Aquifer Authority Director, District 6          Roderick O. Clarke                                                                           01 
00840024077000043NONEAA6   Edwards Aquifer Authority Director, District 6          Roderick O. Clarke                                                                           01 
00840024085000004NONEAA6   Edwards Aquifer Authority Director, District 6          Roderick O. Clarke                                                                           01 
00840024087000034NONEAA6   Edwards Aquifer Authority Director, District 6          Roderick O. Clarke                                                                           01 
00840024101000019NONEAA6   Edwards Aquifer Authority Director, District 6          Roderick O. Clarke                                                                           01 
00840024103000000NONEAA6   Edwards Aquifer Authority Director, District 6          Roderick O. Clarke                                                                           01 
00840024109000005NONEAA6   Edwards Aquifer Authority Director, District 6          Roderick O. Clarke                                                                           01 
00840024110000017NONEAA6   Edwards Aquifer Authority Director, District 6          Roderick O. Clarke                                                                           01 
00840024118000001NONEAA6   Edwards Aquifer Authority Director, District 6          Roderick O. Clarke                                                                           01 
00840024121000007NONEAA6   Edwards Aquifer Authority Director, District 6          Roderick O. Clarke                                                                           01 
00840024127000000NONEAA6   Edwards Aquifer Authority Director, District 6          Roderick O. Clarke                                                                           01 
00840024129000000NONEAA6   Edwards Aquifer Authority Director, District 6          Roderick O. Clarke                                                                           01 
00840024133000002NONEAA6   Edwards Aquifer Authority Director, District 6          Roderick O. Clarke                                                                           01 
00840024136000004NONEAA6   Edwards Aquifer Authority Director, District 6          Roderick O. Clarke                                                                           01 
00840024137000000NONEAA6   Edwards Aquifer Authority Director, District 6          Roderick O. Clarke                                                                           01 
00840024153000001NONEAA6   Edwards Aquifer Authority Director, District 6          Roderick O. Clarke                                                                           01 
00840024159000000NONEAA6   Edwards Aquifer Authority Director, District 6          Roderick O. Clarke                                                                           01 
00840024177000000NONEAA6   Edwards Aquifer Authority Director, District 6          Roderick O. Clarke                                                                           01 
00840024178000000NONEAA6   Edwards Aquifer Authority Director, District 6          Roderick O. Clarke                                                                           01 
00840024180000000NONEAA6   Edwards Aquifer Authority Director, District 6          Roderick O. Clarke                                                                           01 
00840024183000002NONEAA6   Edwards Aquifer Authority Director, District 6          Roderick O. Clarke                                                                           01 
00840024200000042NONEAA6   Edwards Aquifer Authority Director, District 6          Roderick O. Clarke                                                                           01 
00840024202000000NONEAA6   Edwards Aquifer Authority Director, District 6          Roderick O. Clarke                                                                           01 
00840024204000001NONEAA6   Edwards Aquifer Authority Director, District 6          Roderick O. Clarke                                                                           01 
00840024207000000NONEAA6   Edwards Aquifer Authority Director, District 6          Roderick O. Clarke                                                                           01 
00840024208000000NONEAA6   Edwards Aquifer Authority Director, District 6          Roderick O. Clarke                                                                           01 
00840024209000006NONEAA6   Edwards Aquifer Authority Director, District 6          Roderick O. Clarke                                                                           01 
00840024213000000NONEAA6   Edwards Aquifer Authority Director, District 6          Roderick O. Clarke                                                                           01 
00840024214000000NONEAA6   Edwards Aquifer Authority Director, District 6          Roderick O. Clarke                                                                           01 
00840024215000003NONEAA6   Edwards Aquifer Authority Director, District 6          Roderick O. Clarke                                                                           01 
00840031003000000   EAA6   Edwards Aquifer Authority Director, District 6          OVER VOTES                                                                                   01 
00840031004000000   EAA6   Edwards Aquifer Authority Director, District 6          OVER VOTES                                                                                   01 
00840031005000000   EAA6   Edwards Aquifer Authority Director, District 6          OVER VOTES                                                                                   01 
00840031006000000   EAA6   Edwards Aquifer Authority Director, District 6          OVER VOTES                                                                                   01 
00840031007000000   EAA6   Edwards Aquifer Authority Director, District 6          OVER VOTES                                                                                   01 
00840031008000000   EAA6   Edwards Aquifer Authority Director, District 6          OVER VOTES                                                                                   01 
00840031010000000   EAA6   Edwards Aquifer Authority Director, District 6          OVER VOTES                                                                                   01 
00840031011000000   EAA6   Edwards Aquifer Authority Director, District 6          OVER VOTES                                                                                   01 
00840031012000000   EAA6   Edwards Aquifer Authority Director, District 6          OVER VOTES                                                                                   01 
00840031013000000   EAA6   Edwards Aquifer Authority Director, District 6          OVER VOTES                                                                                   01 
00840031014000000   EAA6   Edwards Aquifer Authority Director, District 6          OVER VOTES                                                                                   01 
00840031015000000   EAA6   Edwards Aquifer Authority Director, District 6          OVER VOTES                                                                                   01 
00840031017000000   EAA6   Edwards Aquifer Authority Director, District 6          OVER VOTES                                                                                   01 
00840031023000000   EAA6   Edwards Aquifer Authority Director, District 6          OVER VOTES                                                                                   01 
00840031026000000   EAA6   Edwards Aquifer Authority Director, District 6          OVER VOTES                                                                                   01 
00840031027000000   EAA6   Edwards Aquifer Authority Director, District 6          OVER VOTES                                                                                   01 
00840031028000000   EAA6   Edwards Aquifer Authority Director, District 6          OVER VOTES                                                                                   01 
00840031029000000   EAA6   Edwards Aquifer Authority Director, District 6          OVER VOTES                                                                                   01 
00840031030000000   EAA6   Edwards Aquifer Authority Director, District 6          OVER VOTES                                                                                   01 
00840031031000000   EAA6   Edwards Aquifer Authority Director, District 6          OVER VOTES                                                                                   01 
00840031033000000   EAA6   Edwards Aquifer Authority Director, District 6          OVER VOTES                                                                                   01 
00840031034000000   EAA6   Edwards Aquifer Authority Director, District 6          OVER VOTES                                                                                   01 
00840031035000000   EAA6   Edwards Aquifer Authority Director, District 6          OVER VOTES                                                                                   01 
00840031036000001   EAA6   Edwards Aquifer Authority Director, District 6          OVER VOTES                                                                                   01 
00840031043000000   EAA6   Edwards Aquifer Authority Director, District 6          OVER VOTES                                                                                   01 
00840031069000000   EAA6   Edwards Aquifer Authority Director, District 6          OVER VOTES                                                                                   01 
00840031070000000   EAA6   Edwards Aquifer Authority Director, District 6          OVER VOTES                                                                                   01 
00840031071000000   EAA6   Edwards Aquifer Authority Director, District 6          OVER VOTES                                                                                   01 
00840031073000000   EAA6   Edwards Aquifer Authority Director, District 6          OVER VOTES                                                                                   01 
00840031074000000   EAA6   Edwards Aquifer Authority Director, District 6          OVER VOTES                                                                                   01 
00840031077000000   EAA6   Edwards Aquifer Authority Director, District 6          OVER VOTES                                                                                   01 
00840031081000000   EAA6   Edwards Aquifer Authority Director, District 6          OVER VOTES                                                                                   01 
00840031082000000   EAA6   Edwards Aquifer Authority Director, District 6          OVER VOTES                                                                                   01 
00840031084000000   EAA6   Edwards Aquifer Authority Director, District 6          OVER VOTES                                                                                   01 
00840031085000000   EAA6   Edwards Aquifer Authority Director, District 6          OVER VOTES                                                                                   01 
00840031086000000   EAA6   Edwards Aquifer Authority Director, District 6          OVER VOTES                                                                                   01 
00840031087000000   EAA6   Edwards Aquifer Authority Director, District 6          OVER VOTES                                                                                   01 
00840031090000000   EAA6   Edwards Aquifer Authority Director, District 6          OVER VOTES                                                                                   01 
00840031096000000   EAA6   Edwards Aquifer Authority Director, District 6          OVER VOTES                                                                                   01 
00840031097000000   EAA6   Edwards Aquifer Authority Director, District 6          OVER VOTES                                                                                   01 
00840031101000000   EAA6   Edwards Aquifer Authority Director, District 6          OVER VOTES                                                                                   01 
00840031103000000   EAA6   Edwards Aquifer Authority Director, District 6          OVER VOTES                                                                                   01 
00840031106000000   EAA6   Edwards Aquifer Authority Director, District 6          OVER VOTES                                                                                   01 
00840031108000000   EAA6   Edwards Aquifer Authority Director, District 6          OVER VOTES                                                                                   01 
00840031110000000   EAA6   Edwards Aquifer Authority Director, District 6          OVER VOTES                                                                                   01 
00840031112000000   EAA6   Edwards Aquifer Authority Director, District 6          OVER VOTES                                                                                   01 
00840031118000000   EAA6   Edwards Aquifer Authority Director, District 6          OVER VOTES                                                                                   01 
00840031119000000   EAA6   Edwards Aquifer Authority Director, District 6          OVER VOTES                                                                                   01 
00840031120000000   EAA6   Edwards Aquifer Authority Director, District 6          OVER VOTES                                                                                   01 
00840031121000000   EAA6   Edwards Aquifer Authority Director, District 6          OVER VOTES                                                                                   01 
00840031122000000   EAA6   Edwards Aquifer Authority Director, District 6          OVER VOTES                                                                                   01 
00840031126000000   EAA6   Edwards Aquifer Authority Director, District 6          OVER VOTES                                                                                   01 
00840031130000000   EAA6   Edwards Aquifer Authority Director, District 6          OVER VOTES                                                                                   01 
00840031131000000   EAA6   Edwards Aquifer Authority Director, District 6          OVER VOTES                                                                                   01 
00840031132000000   EAA6   Edwards Aquifer Authority Director, District 6          OVER VOTES                                                                                   01 
00840031136000000   EAA6   Edwards Aquifer Authority Director, District 6          OVER VOTES                                                                                   01 
00840031137000000   EAA6   Edwards Aquifer Authority Director, District 6          OVER VOTES                                                                                   01 
00840032035000000   EAA6   Edwards Aquifer Authority Director, District 6          OVER VOTES                                                                                   01 
00840032044000000   EAA6   Edwards Aquifer Authority Director, District 6          OVER VOTES                                                                                   01 
00840032055000000   EAA6   Edwards Aquifer Authority Director, District 6          OVER VOTES                                                                                   01 
00840032118000000   EAA6   Edwards Aquifer Authority Director, District 6          OVER VOTES                                                                                   01 
00840032130000000   EAA6   Edwards Aquifer Authority Director, District 6          OVER VOTES                                                                                   01 
00840034001000000   EAA6   Edwards Aquifer Authority Director, District 6          OVER VOTES                                                                                   01 
00840034002000000   EAA6   Edwards Aquifer Authority Director, District 6          OVER VOTES                                                                                   01 
00840034006000000   EAA6   Edwards Aquifer Authority Director, District 6          OVER VOTES                                                                                   01 
00840034008000000   EAA6   Edwards Aquifer Authority Director, District 6          OVER VOTES                                                                                   01 
00840034013000000   EAA6   Edwards Aquifer Authority Director, District 6          OVER VOTES                                                                                   01 
00840034014000000   EAA6   Edwards Aquifer Authority Director, District 6          OVER VOTES                                                                                   01 
00840034016000000   EAA6   Edwards Aquifer Authority Director, District 6          OVER VOTES                                                                                   01 
00840034018000000   EAA6   Edwards Aquifer Authority Director, District 6          OVER VOTES                                                                                   01 
00840034019000000   EAA6   Edwards Aquifer Authority Director, District 6          OVER VOTES                                                                                   01 
00840034023000000   EAA6   Edwards Aquifer Authority Director, District 6          OVER VOTES                                                                                   01 
00840034024000000   EAA6   Edwards Aquifer Authority Director, District 6          OVER VOTES                                                                                   01 
00840034025000000   EAA6   Edwards Aquifer Authority Director, District 6          OVER VOTES                                                                                   01 
00840034026000000   EAA6   Edwards Aquifer Authority Director, District 6          OVER VOTES                                                                                   01 
00840034027000000   EAA6   Edwards Aquifer Authority Director, District 6          OVER VOTES                                                                                   01 
00840034028000000   EAA6   Edwards Aquifer Authority Director, District 6          OVER VOTES                                                                                   01 
00840034029000000   EAA6   Edwards Aquifer Authority Director, District 6          OVER VOTES                                                                                   01 
00840034031000000   EAA6   Edwards Aquifer Authority Director, District 6          OVER VOTES                                                                                   01 
00840034032000000   EAA6   Edwards Aquifer Authority Director, District 6          OVER VOTES                                                                                   01 
00840034033000000   EAA6   Edwards Aquifer Authority Director, District 6          OVER VOTES                                                                                   01 
00840034034000000   EAA6   Edwards Aquifer Authority Director, District 6          OVER VOTES                                                                                   01 
00840034048000000   EAA6   Edwards Aquifer Authority Director, District 6          OVER VOTES                                                                                   01 
00840034062000000   EAA6   Edwards Aquifer Authority Director, District 6          OVER VOTES                                                                                   01 
00840034068000000   EAA6   Edwards Aquifer Authority Director, District 6          OVER VOTES                                                                                   01 
00840034069000000   EAA6   Edwards Aquifer Authority Director, District 6          OVER VOTES                                                                                   01 
00840034073000000   EAA6   Edwards Aquifer Authority Director, District 6          OVER VOTES                                                                                   01 
00840034075000000   EAA6   Edwards Aquifer Authority Director, District 6          OVER VOTES                                                                                   01 
00840034077000000   EAA6   Edwards Aquifer Authority Director, District 6          OVER VOTES                                                                                   01 
00840034085000000   EAA6   Edwards Aquifer Authority Director, District 6          OVER VOTES                                                                                   01 
00840034087000000   EAA6   Edwards Aquifer Authority Director, District 6          OVER VOTES                                                                                   01 
00840034101000000   EAA6   Edwards Aquifer Authority Director, District 6          OVER VOTES                                                                                   01 
00840034103000000   EAA6   Edwards Aquifer Authority Director, District 6          OVER VOTES                                                                                   01 
00840034109000000   EAA6   Edwards Aquifer Authority Director, District 6          OVER VOTES                                                                                   01 
00840034110000000   EAA6   Edwards Aquifer Authority Director, District 6          OVER VOTES                                                                                   01 
00840034118000000   EAA6   Edwards Aquifer Authority Director, District 6          OVER VOTES                                                                                   01 
00840034121000000   EAA6   Edwards Aquifer Authority Director, District 6          OVER VOTES                                                                                   01 
00840034127000000   EAA6   Edwards Aquifer Authority Director, District 6          OVER VOTES                                                                                   01 
00840034129000000   EAA6   Edwards Aquifer Authority Director, District 6          OVER VOTES                                                                                   01 
00840034133000000   EAA6   Edwards Aquifer Authority Director, District 6          OVER VOTES                                                                                   01 
00840034136000000   EAA6   Edwards Aquifer Authority Director, District 6          OVER VOTES                                                                                   01 
00840034137000000   EAA6   Edwards Aquifer Authority Director, District 6          OVER VOTES                                                                                   01 
00840034153000000   EAA6   Edwards Aquifer Authority Director, District 6          OVER VOTES                                                                                   01 
00840034159000000   EAA6   Edwards Aquifer Authority Director, District 6          OVER VOTES                                                                                   01 
00840034177000000   EAA6   Edwards Aquifer Authority Director, District 6          OVER VOTES                                                                                   01 
00840034178000000   EAA6   Edwards Aquifer Authority Director, District 6          OVER VOTES                                                                                   01 
00840034180000000   EAA6   Edwards Aquifer Authority Director, District 6          OVER VOTES                                                                                   01 
00840034183000000   EAA6   Edwards Aquifer Authority Director, District 6          OVER VOTES                                                                                   01 
00840034200000000   EAA6   Edwards Aquifer Authority Director, District 6          OVER VOTES                                                                                   01 
00840034202000000   EAA6   Edwards Aquifer Authority Director, District 6          OVER VOTES                                                                                   01 
00840034204000000   EAA6   Edwards Aquifer Authority Director, District 6          OVER VOTES                                                                                   01 
00840034207000000   EAA6   Edwards Aquifer Authority Director, District 6          OVER VOTES                                                                                   01 
00840034208000000   EAA6   Edwards Aquifer Authority Director, District 6          OVER VOTES                                                                                   01 
00840034209000000   EAA6   Edwards Aquifer Authority Director, District 6          OVER VOTES                                                                                   01 
00840034213000000   EAA6   Edwards Aquifer Authority Director, District 6          OVER VOTES                                                                                   01 
00840034214000000   EAA6   Edwards Aquifer Authority Director, District 6          OVER VOTES                                                                                   01 
00840034215000000   EAA6   Edwards Aquifer Authority Director, District 6          OVER VOTES                                                                                   01 
00840041003000084   EAA6   Edwards Aquifer Authority Director, District 6          UNDER VOTES                                                                                  01 
00840041004000041   EAA6   Edwards Aquifer Authority Director, District 6          UNDER VOTES                                                                                  01 
00840041005000046   EAA6   Edwards Aquifer Authority Director, District 6          UNDER VOTES                                                                                  01 
00840041006000100   EAA6   Edwards Aquifer Authority Director, District 6          UNDER VOTES                                                                                  01 
00840041007000087   EAA6   Edwards Aquifer Authority Director, District 6          UNDER VOTES                                                                                  01 
00840041008000128   EAA6   Edwards Aquifer Authority Director, District 6          UNDER VOTES                                                                                  01 
00840041010000040   EAA6   Edwards Aquifer Authority Director, District 6          UNDER VOTES                                                                                  01 
00840041011000023   EAA6   Edwards Aquifer Authority Director, District 6          UNDER VOTES                                                                                  01 
00840041012000136   EAA6   Edwards Aquifer Authority Director, District 6          UNDER VOTES                                                                                  01 
00840041013000140   EAA6   Edwards Aquifer Authority Director, District 6          UNDER VOTES                                                                                  01 
00840041014000067   EAA6   Edwards Aquifer Authority Director, District 6          UNDER VOTES                                                                                  01 
00840041015000078   EAA6   Edwards Aquifer Authority Director, District 6          UNDER VOTES                                                                                  01 
00840041017000017   EAA6   Edwards Aquifer Authority Director, District 6          UNDER VOTES                                                                                  01 
00840041023000118   EAA6   Edwards Aquifer Authority Director, District 6          UNDER VOTES                                                                                  01 
00840041026000081   EAA6   Edwards Aquifer Authority Director, District 6          UNDER VOTES                                                                                  01 
00840041027000018   EAA6   Edwards Aquifer Authority Director, District 6          UNDER VOTES                                                                                  01 
00840041028000058   EAA6   Edwards Aquifer Authority Director, District 6          UNDER VOTES                                                                                  01 
00840041029000092   EAA6   Edwards Aquifer Authority Director, District 6          UNDER VOTES                                                                                  01 
00840041030000006   EAA6   Edwards Aquifer Authority Director, District 6          UNDER VOTES                                                                                  01 
00840041031000073   EAA6   Edwards Aquifer Authority Director, District 6          UNDER VOTES                                                                                  01 
00840041033000081   EAA6   Edwards Aquifer Authority Director, District 6          UNDER VOTES                                                                                  01 
00840041034000278   EAA6   Edwards Aquifer Authority Director, District 6          UNDER VOTES                                                                                  01 
00840041035000012   EAA6   Edwards Aquifer Authority Director, District 6          UNDER VOTES                                                                                  01 
00840041036000221   EAA6   Edwards Aquifer Authority Director, District 6          UNDER VOTES                                                                                  01 
00840041043000086   EAA6   Edwards Aquifer Authority Director, District 6          UNDER VOTES                                                                                  01 
00840041069000055   EAA6   Edwards Aquifer Authority Director, District 6          UNDER VOTES                                                                                  01 
00840041070000049   EAA6   Edwards Aquifer Authority Director, District 6          UNDER VOTES                                                                                  01 
00840041071000087   EAA6   Edwards Aquifer Authority Director, District 6          UNDER VOTES                                                                                  01 
00840041073000240   EAA6   Edwards Aquifer Authority Director, District 6          UNDER VOTES                                                                                  01 
00840041074000002   EAA6   Edwards Aquifer Authority Director, District 6          UNDER VOTES                                                                                  01 
00840041077000118   EAA6   Edwards Aquifer Authority Director, District 6          UNDER VOTES                                                                                  01 
00840041081000096   EAA6   Edwards Aquifer Authority Director, District 6          UNDER VOTES                                                                                  01 
00840041082000158   EAA6   Edwards Aquifer Authority Director, District 6          UNDER VOTES                                                                                  01 
00840041084000130   EAA6   Edwards Aquifer Authority Director, District 6          UNDER VOTES                                                                                  01 
00840041085000096   EAA6   Edwards Aquifer Authority Director, District 6          UNDER VOTES                                                                                  01 
00840041086000174   EAA6   Edwards Aquifer Authority Director, District 6          UNDER VOTES                                                                                  01 
00840041087000076   EAA6   Edwards Aquifer Authority Director, District 6          UNDER VOTES                                                                                  01 
00840041090000001   EAA6   Edwards Aquifer Authority Director, District 6          UNDER VOTES                                                                                  01 
00840041096000002   EAA6   Edwards Aquifer Authority Director, District 6          UNDER VOTES                                                                                  01 
00840041097000049   EAA6   Edwards Aquifer Authority Director, District 6          UNDER VOTES                                                                                  01 
00840041101000000   EAA6   Edwards Aquifer Authority Director, District 6          UNDER VOTES                                                                                  01 
00840041103000000   EAA6   Edwards Aquifer Authority Director, District 6          UNDER VOTES                                                                                  01 
00840041106000000   EAA6   Edwards Aquifer Authority Director, District 6          UNDER VOTES                                                                                  01 
00840041108000241   EAA6   Edwards Aquifer Authority Director, District 6          UNDER VOTES                                                                                  01 
00840041110000179   EAA6   Edwards Aquifer Authority Director, District 6          UNDER VOTES                                                                                  01 
00840041112000177   EAA6   Edwards Aquifer Authority Director, District 6          UNDER VOTES                                                                                  01 
00840041118000051   EAA6   Edwards Aquifer Authority Director, District 6          UNDER VOTES                                                                                  01 
00840041119000005   EAA6   Edwards Aquifer Authority Director, District 6          UNDER VOTES                                                                                  01 
00840041120000005   EAA6   Edwards Aquifer Authority Director, District 6          UNDER VOTES                                                                                  01 
00840041121000241   EAA6   Edwards Aquifer Authority Director, District 6          UNDER VOTES                                                                                  01 
00840041122000575   EAA6   Edwards Aquifer Authority Director, District 6          UNDER VOTES                                                                                  01 
00840041126000000   EAA6   Edwards Aquifer Authority Director, District 6          UNDER VOTES                                                                                  01 
00840041130000000   EAA6   Edwards Aquifer Authority Director, District 6          UNDER VOTES                                                                                  01 
00840041131000000   EAA6   Edwards Aquifer Authority Director, District 6          UNDER VOTES                                                                                  01 
00840041132000002   EAA6   Edwards Aquifer Authority Director, District 6          UNDER VOTES                                                                                  01 
00840041136000014   EAA6   Edwards Aquifer Authority Director, District 6          UNDER VOTES                                                                                  01 
00840041137000000   EAA6   Edwards Aquifer Authority Director, District 6          UNDER VOTES                                                                                  01 
00840042035000132   EAA6   Edwards Aquifer Authority Director, District 6          UNDER VOTES                                                                                  01 
00840042044000089   EAA6   Edwards Aquifer Authority Director, District 6          UNDER VOTES                                                                                  01 
00840042055000148   EAA6   Edwards Aquifer Authority Director, District 6          UNDER VOTES                                                                                  01 
00840042118000001   EAA6   Edwards Aquifer Authority Director, District 6          UNDER VOTES                                                                                  01 
00840042130000000   EAA6   Edwards Aquifer Authority Director, District 6          UNDER VOTES                                                                                  01 
00840044001000154   EAA6   Edwards Aquifer Authority Director, District 6          UNDER VOTES                                                                                  01 
00840044002000032   EAA6   Edwards Aquifer Authority Director, District 6          UNDER VOTES                                                                                  01 
00840044006000044   EAA6   Edwards Aquifer Authority Director, District 6          UNDER VOTES                                                                                  01 
00840044008000089   EAA6   Edwards Aquifer Authority Director, District 6          UNDER VOTES                                                                                  01 
00840044013000049   EAA6   Edwards Aquifer Authority Director, District 6          UNDER VOTES                                                                                  01 
00840044014000018   EAA6   Edwards Aquifer Authority Director, District 6          UNDER VOTES                                                                                  01 
00840044016000116   EAA6   Edwards Aquifer Authority Director, District 6          UNDER VOTES                                                                                  01 
00840044018000106   EAA6   Edwards Aquifer Authority Director, District 6          UNDER VOTES                                                                                  01 
00840044019000110   EAA6   Edwards Aquifer Authority Director, District 6          UNDER VOTES                                                                                  01 
00840044023000143   EAA6   Edwards Aquifer Authority Director, District 6          UNDER VOTES                                                                                  01 
00840044024000175   EAA6   Edwards Aquifer Authority Director, District 6          UNDER VOTES                                                                                  01 
00840044025000077   EAA6   Edwards Aquifer Authority Director, District 6          UNDER VOTES                                                                                  01 
00840044026000195   EAA6   Edwards Aquifer Authority Director, District 6          UNDER VOTES                                                                                  01 
00840044027000114   EAA6   Edwards Aquifer Authority Director, District 6          UNDER VOTES                                                                                  01 
00840044028000179   EAA6   Edwards Aquifer Authority Director, District 6          UNDER VOTES                                                                                  01 
00840044029000122   EAA6   Edwards Aquifer Authority Director, District 6          UNDER VOTES                                                                                  01 
00840044031000082   EAA6   Edwards Aquifer Authority Director, District 6          UNDER VOTES                                                                                  01 
00840044032000108   EAA6   Edwards Aquifer Authority Director, District 6          UNDER VOTES                                                                                  01 
00840044033000204   EAA6   Edwards Aquifer Authority Director, District 6          UNDER VOTES                                                                                  01 
00840044034000163   EAA6   Edwards Aquifer Authority Director, District 6          UNDER VOTES                                                                                  01 
00840044048000111   EAA6   Edwards Aquifer Authority Director, District 6          UNDER VOTES                                                                                  01 
00840044062000032   EAA6   Edwards Aquifer Authority Director, District 6          UNDER VOTES                                                                                  01 
00840044068000008   EAA6   Edwards Aquifer Authority Director, District 6          UNDER VOTES                                                                                  01 
00840044069000082   EAA6   Edwards Aquifer Authority Director, District 6          UNDER VOTES                                                                                  01 
00840044073000079   EAA6   Edwards Aquifer Authority Director, District 6          UNDER VOTES                                                                                  01 
00840044075000031   EAA6   Edwards Aquifer Authority Director, District 6          UNDER VOTES                                                                                  01 
00840044077000115   EAA6   Edwards Aquifer Authority Director, District 6          UNDER VOTES                                                                                  01 
00840044085000007   EAA6   Edwards Aquifer Authority Director, District 6          UNDER VOTES                                                                                  01 
00840044087000062   EAA6   Edwards Aquifer Authority Director, District 6          UNDER VOTES                                                                                  01 
00840044101000053   EAA6   Edwards Aquifer Authority Director, District 6          UNDER VOTES                                                                                  01 
00840044103000000   EAA6   Edwards Aquifer Authority Director, District 6          UNDER VOTES                                                                                  01 
00840044109000007   EAA6   Edwards Aquifer Authority Director, District 6          UNDER VOTES                                                                                  01 
00840044110000062   EAA6   Edwards Aquifer Authority Director, District 6          UNDER VOTES                                                                                  01 
00840044118000003   EAA6   Edwards Aquifer Authority Director, District 6          UNDER VOTES                                                                                  01 
00840044121000012   EAA6   Edwards Aquifer Authority Director, District 6          UNDER VOTES                                                                                  01 
00840044127000002   EAA6   Edwards Aquifer Authority Director, District 6          UNDER VOTES                                                                                  01 
00840044129000000   EAA6   Edwards Aquifer Authority Director, District 6          UNDER VOTES                                                                                  01 
00840044133000003   EAA6   Edwards Aquifer Authority Director, District 6          UNDER VOTES                                                                                  01 
00840044136000013   EAA6   Edwards Aquifer Authority Director, District 6          UNDER VOTES                                                                                  01 
00840044137000008   EAA6   Edwards Aquifer Authority Director, District 6          UNDER VOTES                                                                                  01 
00840044153000001   EAA6   Edwards Aquifer Authority Director, District 6          UNDER VOTES                                                                                  01 
00840044159000003   EAA6   Edwards Aquifer Authority Director, District 6          UNDER VOTES                                                                                  01 
00840044177000003   EAA6   Edwards Aquifer Authority Director, District 6          UNDER VOTES                                                                                  01 
00840044178000000   EAA6   Edwards Aquifer Authority Director, District 6          UNDER VOTES                                                                                  01 
00840044180000000   EAA6   Edwards Aquifer Authority Director, District 6          UNDER VOTES                                                                                  01 
00840044183000009   EAA6   Edwards Aquifer Authority Director, District 6          UNDER VOTES                                                                                  01 
00840044200000085   EAA6   Edwards Aquifer Authority Director, District 6          UNDER VOTES                                                                                  01 
00840044202000000   EAA6   Edwards Aquifer Authority Director, District 6          UNDER VOTES                                                                                  01 
00840044204000005   EAA6   Edwards Aquifer Authority Director, District 6          UNDER VOTES                                                                                  01 
00840044207000000   EAA6   Edwards Aquifer Authority Director, District 6          UNDER VOTES                                                                                  01 
00840044208000000   EAA6   Edwards Aquifer Authority Director, District 6          UNDER VOTES                                                                                  01 
00840044209000006   EAA6   Edwards Aquifer Authority Director, District 6          UNDER VOTES                                                                                  01 
00840044213000000   EAA6   Edwards Aquifer Authority Director, District 6          UNDER VOTES                                                                                  01 
00840044214000000   EAA6   Edwards Aquifer Authority Director, District 6          UNDER VOTES                                                                                  01 
00840044215000006   EAA6   Edwards Aquifer Authority Director, District 6          UNDER VOTES                                                                                  01 
