01010010001000296000000000000000000000000000000          REGISTERED VOTERS - TOTAL                               REGISTERED VOTERS - TOTAL             PRECINCT 1                                             00 
01010010002000465000000000000000000000000000000          REGISTERED VOTERS - TOTAL                               REGISTERED VOTERS - TOTAL             PRECINCT 2                                             00 
01010010003000381000000000000000000000000000000          REGISTERED VOTERS - TOTAL                               REGISTERED VOTERS - TOTAL             PRECINCT 3                                             00 
01010010004000364000000000000000000000000000000          REGISTERED VOTERS - TOTAL                               REGISTERED VOTERS - TOTAL             PRECINCT 4                                             00 
01020010001000171000094000077000000000000000000          BALLOTS CAST - TOTAL                                    BALLOTS CAST - TOTAL                  PRECINCT 1                                             00 
01020010002000272000124000148000000000000000000          BALLOTS CAST - TOTAL                                    BALLOTS CAST - TOTAL                  PRECINCT 2                                             00 
01020010003000248000167000081000000000000000000          BALLOTS CAST - TOTAL                                    BALLOTS CAST - TOTAL                  PRECINCT 3                                             00 
01020010004000213000143000070000000000000000000          BALLOTS CAST - TOTAL                                    BALLOTS CAST - TOTAL                  PRECINCT 4                                             00 
01030010001000014000014000000000000000000000000REP       Straight Party                                          Republican Party                      PRECINCT 1                                             01 
01030010002000078000031000047000000000000000000REP       Straight Party                                          Republican Party                      PRECINCT 2                                             01 
01030010003000057000038000019000000000000000000REP       Straight Party                                          Republican Party                      PRECINCT 3                                             01 
01030010004000027000019000008000000000000000000REP       Straight Party                                          Republican Party                      PRECINCT 4                                             01 
01030020001000009000009000000000000000000000000DEM       Straight Party                                          Democratic Party                      PRECINCT 1                                             01 
01030020002000025000007000018000000000000000000DEM       Straight Party                                          Democratic Party                      PRECINCT 2                                             01 
01030020003000026000013000013000000000000000000DEM       Straight Party                                          Democratic Party                      PRECINCT 3                                             01 
01030020004000024000011000013000000000000000000DEM       Straight Party                                          Democratic Party                      PRECINCT 4                                             01 
01030030001000001000001000000000000000000000000LIB       Straight Party                                          Libertarian Party                     PRECINCT 1                                             01 
01030030002000002000001000001000000000000000000LIB       Straight Party                                          Libertarian Party                     PRECINCT 2                                             01 
01030030003000001000000000001000000000000000000LIB       Straight Party                                          Libertarian Party                     PRECINCT 3                                             01 
01030030004000001000000000001000000000000000000LIB       Straight Party                                          Libertarian Party                     PRECINCT 4                                             01 
01030040001000000000000000000000000000000000000GRN       Straight Party                                          Green Party                           PRECINCT 1                                             01 
01030040002000000000000000000000000000000000000GRN       Straight Party                                          Green Party                           PRECINCT 2                                             01 
01030040003000002000002000000000000000000000000GRN       Straight Party                                          Green Party                           PRECINCT 3                                             01 
01030040004000001000000000001000000000000000000GRN       Straight Party                                          Green Party                           PRECINCT 4                                             01 
01030050001000000000000000000000000000000000000          Straight Party                                          OVER VOTES                            PRECINCT 1                                             01 
01030050002000000000000000000000000000000000000          Straight Party                                          OVER VOTES                            PRECINCT 2                                             01 
01030050003000000000000000000000000000000000000          Straight Party                                          OVER VOTES                            PRECINCT 3                                             01 
01030050004000000000000000000000000000000000000          Straight Party                                          OVER VOTES                            PRECINCT 4                                             01 
01030060001000070000070000000000000000000000000          Straight Party                                          UNDER VOTES                           PRECINCT 1                                             01 
01030060002000140000085000055000000000000000000          Straight Party                                          UNDER VOTES                           PRECINCT 2                                             01 
01030060003000162000114000048000000000000000000          Straight Party                                          UNDER VOTES                           PRECINCT 3                                             01 
01030060004000160000113000047000000000000000000          Straight Party                                          UNDER VOTES                           PRECINCT 4                                             01 
01040010001000081000050000031000000000000000000REP       United States Senator                                   John Cornyn                           PRECINCT 1                                             01 
01040010002000192000091000101000000000000000000REP       United States Senator                                   John Cornyn                           PRECINCT 2                                             01 
01040010003000160000113000047000000000000000000REP       United States Senator                                   John Cornyn                           PRECINCT 3                                             01 
01040010004000090000068000022000000000000000000REP       United States Senator                                   John Cornyn                           PRECINCT 4                                             01 
01040020001000036000016000020000000000000000000DEM       United States Senator                                   David M. Alameel                      PRECINCT 1                                             01 
01040020002000035000010000025000000000000000000DEM       United States Senator                                   David M. Alameel                      PRECINCT 2                                             01 
01040020003000037000025000012000000000000000000DEM       United States Senator                                   David M. Alameel                      PRECINCT 3                                             01 
01040020004000046000030000016000000000000000000DEM       United States Senator                                   David M. Alameel                      PRECINCT 4                                             01 
01040030001000002000001000001000000000000000000LIB       United States Senator                                   Rebecca Paddock                       PRECINCT 1                                             01 
01040030002000011000004000007000000000000000000LIB       United States Senator                                   Rebecca Paddock                       PRECINCT 2                                             01 
01040030003000012000006000006000000000000000000LIB       United States Senator                                   Rebecca Paddock                       PRECINCT 3                                             01 
01040030004000007000004000003000000000000000000LIB       United States Senator                                   Rebecca Paddock                       PRECINCT 4                                             01 
01040040001000004000002000002000000000000000000GRN       United States Senator                                   Emily "Spicybrown" Sanchez            PRECINCT 1                                             01 
01040040002000005000002000003000000000000000000GRN       United States Senator                                   Emily "Spicybrown" Sanchez            PRECINCT 2                                             01 
01040040003000010000007000003000000000000000000GRN       United States Senator                                   Emily "Spicybrown" Sanchez            PRECINCT 3                                             01 
01040040004000002000001000001000000000000000000GRN       United States Senator                                   Emily "Spicybrown" Sanchez            PRECINCT 4                                             01 
01040050001000000000000000000000000000000000000NON       United States Senator                                   WRITE-IN                              PRECINCT 1                                             01 
01040050002000000000000000000000000000000000000NON       United States Senator                                   WRITE-IN                              PRECINCT 2                                             01 
01040050003000000000000000000000000000000000000NON       United States Senator                                   WRITE-IN                              PRECINCT 3                                             01 
01040050004000000000000000000000000000000000000NON       United States Senator                                   WRITE-IN                              PRECINCT 4                                             01 
01040060001000000000000000000000000000000000000          United States Senator                                   OVER VOTES                            PRECINCT 1                                             01 
01040060002000001000001000000000000000000000000          United States Senator                                   OVER VOTES                            PRECINCT 2                                             01 
01040060003000000000000000000000000000000000000          United States Senator                                   OVER VOTES                            PRECINCT 3                                             01 
01040060004000000000000000000000000000000000000          United States Senator                                   OVER VOTES                            PRECINCT 4                                             01 
01040070001000025000025000000000000000000000000          United States Senator                                   UNDER VOTES                           PRECINCT 1                                             01 
01040070002000023000016000007000000000000000000          United States Senator                                   UNDER VOTES                           PRECINCT 2                                             01 
01040070003000029000016000013000000000000000000          United States Senator                                   UNDER VOTES                           PRECINCT 3                                             01 
01040070004000068000040000028000000000000000000          United States Senator                                   UNDER VOTES                           PRECINCT 4                                             01 
01050010001000065000042000023000000000000000000REP       United States Representative, Dist 23                   Will Hurd                             PRECINCT 1                                             01 
01050010002000173000079000094000000000000000000REP       United States Representative, Dist 23                   Will Hurd                             PRECINCT 2                                             01 
01050010003000147000102000045000000000000000000REP       United States Representative, Dist 23                   Will Hurd                             PRECINCT 3                                             01 
01050010004000086000063000023000000000000000000REP       United States Representative, Dist 23                   Will Hurd                             PRECINCT 4                                             01 
01050020001000069000033000036000000000000000000DEM       United States Representative, Dist 23                   Pete P. Gallego                       PRECINCT 1                                             01 
01050020002000072000032000040000000000000000000DEM       United States Representative, Dist 23                   Pete P. Gallego                       PRECINCT 2                                             01 
01050020003000079000054000025000000000000000000DEM       United States Representative, Dist 23                   Pete P. Gallego                       PRECINCT 3                                             01 
01050020004000073000050000023000000000000000000DEM       United States Representative, Dist 23                   Pete P. Gallego                       PRECINCT 4                                             01 
01050030001000008000003000005000000000000000000LIB       United States Representative, Dist 23                   Ruben Corvalan                        PRECINCT 1                                             01 
01050030002000006000000000006000000000000000000LIB       United States Representative, Dist 23                   Ruben Corvalan                        PRECINCT 2                                             01 
01050030003000008000004000004000000000000000000LIB       United States Representative, Dist 23                   Ruben Corvalan                        PRECINCT 3                                             01 
01050030004000009000005000004000000000000000000LIB       United States Representative, Dist 23                   Ruben Corvalan                        PRECINCT 4                                             01 
01050040001000000000000000000000000000000000000          United States Representative, Dist 23                   OVER VOTES                            PRECINCT 1                                             01 
01050040002000000000000000000000000000000000000          United States Representative, Dist 23                   OVER VOTES                            PRECINCT 2                                             01 
01050040003000000000000000000000000000000000000          United States Representative, Dist 23                   OVER VOTES                            PRECINCT 3                                             01 
01050040004000000000000000000000000000000000000          United States Representative, Dist 23                   OVER VOTES                            PRECINCT 4                                             01 
01050050001000016000016000000000000000000000000          United States Representative, Dist 23                   UNDER VOTES                           PRECINCT 1                                             01 
01050050002000017000013000004000000000000000000          United States Representative, Dist 23                   UNDER VOTES                           PRECINCT 2                                             01 
01050050003000014000007000007000000000000000000          United States Representative, Dist 23                   UNDER VOTES                           PRECINCT 3                                             01 
01050050004000046000025000021000000000000000000          United States Representative, Dist 23                   UNDER VOTES                           PRECINCT 4                                             01 
01060010001000083000050000033000000000000000000REP       Governor                                                Greg Abbott                           PRECINCT 1                                             01 
01060010002000201000095000106000000000000000000REP       Governor                                                Greg Abbott                           PRECINCT 2                                             01 
01060010003000161000116000045000000000000000000REP       Governor                                                Greg Abbott                           PRECINCT 3                                             01 
01060010004000095000070000025000000000000000000REP       Governor                                                Greg Abbott                           PRECINCT 4                                             01 
01060020001000052000026000026000000000000000000DEM       Governor                                                Wendy R. Davis                        PRECINCT 1                                             01 
01060020002000051000014000037000000000000000000DEM       Governor                                                Wendy R. Davis                        PRECINCT 2                                             01 
01060020003000060000036000024000000000000000000DEM       Governor                                                Wendy R. Davis                        PRECINCT 3                                             01 
01060020004000059000039000020000000000000000000DEM       Governor                                                Wendy R. Davis                        PRECINCT 4                                             01 
01060030001000003000002000001000000000000000000LIB       Governor                                                Kathie Glass                          PRECINCT 1                                             01 
01060030002000002000000000002000000000000000000LIB       Governor                                                Kathie Glass                          PRECINCT 2                                             01 
01060030003000009000005000004000000000000000000LIB       Governor                                                Kathie Glass                          PRECINCT 3                                             01 
01060030004000004000001000003000000000000000000LIB       Governor                                                Kathie Glass                          PRECINCT 4                                             01 
01060040001000000000000000000000000000000000000GRN       Governor                                                Brandon Parmer                        PRECINCT 1                                             01 
01060040002000001000001000000000000000000000000GRN       Governor                                                Brandon Parmer                        PRECINCT 2                                             01 
01060040003000002000002000000000000000000000000GRN       Governor                                                Brandon Parmer                        PRECINCT 3                                             01 
01060040004000003000002000001000000000000000000GRN       Governor                                                Brandon Parmer                        PRECINCT 4                                             01 
01060050001000000000000000000000000000000000000NON       Governor                                                WRITE-IN                              PRECINCT 1                                             01 
01060050002000000000000000000000000000000000000NON       Governor                                                WRITE-IN                              PRECINCT 2                                             01 
01060050003000000000000000000000000000000000000NON       Governor                                                WRITE-IN                              PRECINCT 3                                             01 
01060050004000000000000000000000000000000000000NON       Governor                                                WRITE-IN                              PRECINCT 4                                             01 
01060060001000000000000000000000000000000000000          Governor                                                OVER VOTES                            PRECINCT 1                                             01 
01060060002000000000000000000000000000000000000          Governor                                                OVER VOTES                            PRECINCT 2                                             01 
01060060003000000000000000000000000000000000000          Governor                                                OVER VOTES                            PRECINCT 3                                             01 
01060060004000000000000000000000000000000000000          Governor                                                OVER VOTES                            PRECINCT 4                                             01 
01060070001000016000016000000000000000000000000          Governor                                                UNDER VOTES                           PRECINCT 1                                             01 
01060070002000015000014000001000000000000000000          Governor                                                UNDER VOTES                           PRECINCT 2                                             01 
01060070003000016000008000008000000000000000000          Governor                                                UNDER VOTES                           PRECINCT 3                                             01 
01060070004000053000031000022000000000000000000          Governor                                                UNDER VOTES                           PRECINCT 4                                             01 
01070010001000076000046000030000000000000000000REP       Lieutenant Governor                                     Dan Patrick                           PRECINCT 1                                             01 
01070010002000190000089000101000000000000000000REP       Lieutenant Governor                                     Dan Patrick                           PRECINCT 2                                             01 
01070010003000155000109000046000000000000000000REP       Lieutenant Governor                                     Dan Patrick                           PRECINCT 3                                             01 
01070010004000091000069000022000000000000000000REP       Lieutenant Governor                                     Dan Patrick                           PRECINCT 4                                             01 
01070020001000043000022000021000000000000000000DEM       Lieutenant Governor                                     Leticia Van de Putte                  PRECINCT 1                                             01 
01070020002000053000019000034000000000000000000DEM       Lieutenant Governor                                     Leticia Van de Putte                  PRECINCT 2                                             01 
01070020003000054000037000017000000000000000000DEM       Lieutenant Governor                                     Leticia Van de Putte                  PRECINCT 3                                             01 
01070020004000060000039000021000000000000000000DEM       Lieutenant Governor                                     Leticia Van de Putte                  PRECINCT 4                                             01 
01070030001000003000000000003000000000000000000LIB       Lieutenant Governor                                     Robert D. Butler                      PRECINCT 1                                             01 
01070030002000007000003000004000000000000000000LIB       Lieutenant Governor                                     Robert D. Butler                      PRECINCT 2                                             01 
01070030003000010000005000005000000000000000000LIB       Lieutenant Governor                                     Robert D. Butler                      PRECINCT 3                                             01 
01070030004000004000001000003000000000000000000LIB       Lieutenant Governor                                     Robert D. Butler                      PRECINCT 4                                             01 
01070040001000001000001000000000000000000000000GRN       Lieutenant Governor                                     Chandrakantha Courtney                PRECINCT 1                                             01 
01070040002000000000000000000000000000000000000GRN       Lieutenant Governor                                     Chandrakantha Courtney                PRECINCT 2                                             01 
01070040003000001000001000000000000000000000000GRN       Lieutenant Governor                                     Chandrakantha Courtney                PRECINCT 3                                             01 
01070040004000000000000000000000000000000000000GRN       Lieutenant Governor                                     Chandrakantha Courtney                PRECINCT 4                                             01 
01070050001000000000000000000000000000000000000          Lieutenant Governor                                     OVER VOTES                            PRECINCT 1                                             01 
01070050002000000000000000000000000000000000000          Lieutenant Governor                                     OVER VOTES                            PRECINCT 2                                             01 
01070050003000000000000000000000000000000000000          Lieutenant Governor                                     OVER VOTES                            PRECINCT 3                                             01 
01070050004000000000000000000000000000000000000          Lieutenant Governor                                     OVER VOTES                            PRECINCT 4                                             01 
01070060001000025000025000000000000000000000000          Lieutenant Governor                                     UNDER VOTES                           PRECINCT 1                                             01 
01070060002000017000013000004000000000000000000          Lieutenant Governor                                     UNDER VOTES                           PRECINCT 2                                             01 
01070060003000028000015000013000000000000000000          Lieutenant Governor                                     UNDER VOTES                           PRECINCT 3                                             01 
01070060004000058000034000024000000000000000000          Lieutenant Governor                                     UNDER VOTES                           PRECINCT 4                                             01 
01080010001000073000045000028000000000000000000REP       Attorney General                                        Ken Paxton                            PRECINCT 1                                             01 
01080010002000190000090000100000000000000000000REP       Attorney General                                        Ken Paxton                            PRECINCT 2                                             01 
01080010003000150000106000044000000000000000000REP       Attorney General                                        Ken Paxton                            PRECINCT 3                                             01 
01080010004000084000062000022000000000000000000REP       Attorney General                                        Ken Paxton                            PRECINCT 4                                             01 
01080020001000045000023000022000000000000000000DEM       Attorney General                                        Sam Houston                           PRECINCT 1                                             01 
01080020002000047000016000031000000000000000000DEM       Attorney General                                        Sam Houston                           PRECINCT 2                                             01 
01080020003000055000038000017000000000000000000DEM       Attorney General                                        Sam Houston                           PRECINCT 3                                             01 
01080020004000051000033000018000000000000000000DEM       Attorney General                                        Sam Houston                           PRECINCT 4                                             01 
01080030001000002000000000002000000000000000000LIB       Attorney General                                        Jamie Balagia                         PRECINCT 1                                             01 
01080030002000008000000000008000000000000000000LIB       Attorney General                                        Jamie Balagia                         PRECINCT 2                                             01 
01080030003000010000004000006000000000000000000LIB       Attorney General                                        Jamie Balagia                         PRECINCT 3                                             01 
01080030004000008000006000002000000000000000000LIB       Attorney General                                        Jamie Balagia                         PRECINCT 4                                             01 
01080040001000000000000000000000000000000000000GRN       Attorney General                                        Jamar Osborne                         PRECINCT 1                                             01 
01080040002000001000000000001000000000000000000GRN       Attorney General                                        Jamar Osborne                         PRECINCT 2                                             01 
01080040003000001000000000001000000000000000000GRN       Attorney General                                        Jamar Osborne                         PRECINCT 3                                             01 
01080040004000000000000000000000000000000000000GRN       Attorney General                                        Jamar Osborne                         PRECINCT 4                                             01 
01080050001000000000000000000000000000000000000          Attorney General                                        OVER VOTES                            PRECINCT 1                                             01 
01080050002000000000000000000000000000000000000          Attorney General                                        OVER VOTES                            PRECINCT 2                                             01 
01080050003000000000000000000000000000000000000          Attorney General                                        OVER VOTES                            PRECINCT 3                                             01 
01080050004000000000000000000000000000000000000          Attorney General                                        OVER VOTES                            PRECINCT 4                                             01 
01080060001000026000026000000000000000000000000          Attorney General                                        UNDER VOTES                           PRECINCT 1                                             01 
01080060002000022000018000004000000000000000000          Attorney General                                        UNDER VOTES                           PRECINCT 2                                             01 
01080060003000032000019000013000000000000000000          Attorney General                                        UNDER VOTES                           PRECINCT 3                                             01 
01080060004000071000042000029000000000000000000          Attorney General                                        UNDER VOTES                           PRECINCT 4                                             01 
01090010001000075000048000027000000000000000000REP       Comptroller of Public Accounts                          Glenn Hegar                           PRECINCT 1                                             01 
01090010002000179000081000098000000000000000000REP       Comptroller of Public Accounts                          Glenn Hegar                           PRECINCT 2                                             01 
01090010003000149000107000042000000000000000000REP       Comptroller of Public Accounts                          Glenn Hegar                           PRECINCT 3                                             01 
01090010004000084000064000020000000000000000000REP       Comptroller of Public Accounts                          Glenn Hegar                           PRECINCT 4                                             01 
01090020001000039000017000022000000000000000000DEM       Comptroller of Public Accounts                          Mike Collier                          PRECINCT 1                                             01 
01090020002000044000016000028000000000000000000DEM       Comptroller of Public Accounts                          Mike Collier                          PRECINCT 2                                             01 
01090020003000045000028000017000000000000000000DEM       Comptroller of Public Accounts                          Mike Collier                          PRECINCT 3                                             01 
01090020004000052000033000019000000000000000000DEM       Comptroller of Public Accounts                          Mike Collier                          PRECINCT 4                                             01 
01090030001000000000000000000000000000000000000LIB       Comptroller of Public Accounts                          Ben Sanders                           PRECINCT 1                                             01 
01090030002000010000003000007000000000000000000LIB       Comptroller of Public Accounts                          Ben Sanders                           PRECINCT 2                                             01 
01090030003000011000006000005000000000000000000LIB       Comptroller of Public Accounts                          Ben Sanders                           PRECINCT 3                                             01 
01090030004000005000002000003000000000000000000LIB       Comptroller of Public Accounts                          Ben Sanders                           PRECINCT 4                                             01 
01090040001000003000002000001000000000000000000GRN       Comptroller of Public Accounts                          Deb Shafto                            PRECINCT 1                                             01 
01090040002000001000001000000000000000000000000GRN       Comptroller of Public Accounts                          Deb Shafto                            PRECINCT 2                                             01 
01090040003000005000004000001000000000000000000GRN       Comptroller of Public Accounts                          Deb Shafto                            PRECINCT 3                                             01 
01090040004000002000001000001000000000000000000GRN       Comptroller of Public Accounts                          Deb Shafto                            PRECINCT 4                                             01 
01090050001000000000000000000000000000000000000          Comptroller of Public Accounts                          OVER VOTES                            PRECINCT 1                                             01 
01090050002000000000000000000000000000000000000          Comptroller of Public Accounts                          OVER VOTES                            PRECINCT 2                                             01 
01090050003000000000000000000000000000000000000          Comptroller of Public Accounts                          OVER VOTES                            PRECINCT 3                                             01 
01090050004000000000000000000000000000000000000          Comptroller of Public Accounts                          OVER VOTES                            PRECINCT 4                                             01 
01090060001000027000027000000000000000000000000          Comptroller of Public Accounts                          UNDER VOTES                           PRECINCT 1                                             01 
01090060002000031000023000008000000000000000000          Comptroller of Public Accounts                          UNDER VOTES                           PRECINCT 2                                             01 
01090060003000038000022000016000000000000000000          Comptroller of Public Accounts                          UNDER VOTES                           PRECINCT 3                                             01 
01090060004000071000043000028000000000000000000          Comptroller of Public Accounts                          UNDER VOTES                           PRECINCT 4                                             01 
01100010001000075000046000029000000000000000000REP       Commissioner of the General Land Office                 George P. Bush                        PRECINCT 1                                             01 
01100010002000194000090000104000000000000000000REP       Commissioner of the General Land Office                 George P. Bush                        PRECINCT 2                                             01 
01100010003000158000109000049000000000000000000REP       Commissioner of the General Land Office                 George P. Bush                        PRECINCT 3                                             01 
01100010004000084000063000021000000000000000000REP       Commissioner of the General Land Office                 George P. Bush                        PRECINCT 4                                             01 
01100020001000035000014000021000000000000000000DEM       Commissioner of the General Land Office                 John Cook                             PRECINCT 1                                             01 
01100020002000038000012000026000000000000000000DEM       Commissioner of the General Land Office                 John Cook                             PRECINCT 2                                             01 
01100020003000047000031000016000000000000000000DEM       Commissioner of the General Land Office                 John Cook                             PRECINCT 3                                             01 
01100020004000050000032000018000000000000000000DEM       Commissioner of the General Land Office                 John Cook                             PRECINCT 4                                             01 
01100030001000003000003000000000000000000000000LIB       Commissioner of the General Land Office                 Justin Knight                         PRECINCT 1                                             01 
01100030002000011000003000008000000000000000000LIB       Commissioner of the General Land Office                 Justin Knight                         PRECINCT 2                                             01 
01100030003000008000005000003000000000000000000LIB       Commissioner of the General Land Office                 Justin Knight                         PRECINCT 3                                             01 
01100030004000008000005000003000000000000000000LIB       Commissioner of the General Land Office                 Justin Knight                         PRECINCT 4                                             01 
01100040001000005000004000001000000000000000000GRN       Commissioner of the General Land Office                 Valerie Alessi                        PRECINCT 1                                             01 
01100040002000001000001000000000000000000000000GRN       Commissioner of the General Land Office                 Valerie Alessi                        PRECINCT 2                                             01 
01100040003000004000003000001000000000000000000GRN       Commissioner of the General Land Office                 Valerie Alessi                        PRECINCT 3                                             01 
01100040004000003000003000000000000000000000000GRN       Commissioner of the General Land Office                 Valerie Alessi                        PRECINCT 4                                             01 
01100050001000000000000000000000000000000000000          Commissioner of the General Land Office                 OVER VOTES                            PRECINCT 1                                             01 
01100050002000000000000000000000000000000000000          Commissioner of the General Land Office                 OVER VOTES                            PRECINCT 2                                             01 
01100050003000000000000000000000000000000000000          Commissioner of the General Land Office                 OVER VOTES                            PRECINCT 3                                             01 
01100050004000000000000000000000000000000000000          Commissioner of the General Land Office                 OVER VOTES                            PRECINCT 4                                             01 
01100060001000027000027000000000000000000000000          Commissioner of the General Land Office                 UNDER VOTES                           PRECINCT 1                                             01 
01100060002000024000018000006000000000000000000          Commissioner of the General Land Office                 UNDER VOTES                           PRECINCT 2                                             01 
01100060003000031000019000012000000000000000000          Commissioner of the General Land Office                 UNDER VOTES                           PRECINCT 3                                             01 
01100060004000069000040000029000000000000000000          Commissioner of the General Land Office                 UNDER VOTES                           PRECINCT 4                                             01 
01110010001000072000044000028000000000000000000REP       Commissioner of Agriculture                             Sid Miller                            PRECINCT 1                                             01 
01110010002000177000083000094000000000000000000REP       Commissioner of Agriculture                             Sid Miller                            PRECINCT 2                                             01 
01110010003000145000102000043000000000000000000REP       Commissioner of Agriculture                             Sid Miller                            PRECINCT 3                                             01 
01110010004000082000061000021000000000000000000REP       Commissioner of Agriculture                             Sid Miller                            PRECINCT 4                                             01 
01110020001000041000021000020000000000000000000DEM       Commissioner of Agriculture                             Jim Hogan                             PRECINCT 1                                             01 
01110020002000048000016000032000000000000000000DEM       Commissioner of Agriculture                             Jim Hogan                             PRECINCT 2                                             01 
01110020003000047000032000015000000000000000000DEM       Commissioner of Agriculture                             Jim Hogan                             PRECINCT 3                                             01 
01110020004000050000034000016000000000000000000DEM       Commissioner of Agriculture                             Jim Hogan                             PRECINCT 4                                             01 
01110030001000001000001000000000000000000000000LIB       Commissioner of Agriculture                             David (Rocky) Palmquist               PRECINCT 1                                             01 
01110030002000011000003000008000000000000000000LIB       Commissioner of Agriculture                             David (Rocky) Palmquist               PRECINCT 2                                             01 
01110030003000010000005000005000000000000000000LIB       Commissioner of Agriculture                             David (Rocky) Palmquist               PRECINCT 3                                             01 
01110030004000006000004000002000000000000000000LIB       Commissioner of Agriculture                             David (Rocky) Palmquist               PRECINCT 4                                             01 
01110040001000003000000000003000000000000000000GRN       Commissioner of Agriculture                             Kenneth Kendrick                      PRECINCT 1                                             01 
01110040002000001000000000001000000000000000000GRN       Commissioner of Agriculture                             Kenneth Kendrick                      PRECINCT 2                                             01 
01110040003000004000002000002000000000000000000GRN       Commissioner of Agriculture                             Kenneth Kendrick                      PRECINCT 3                                             01 
01110040004000004000001000003000000000000000000GRN       Commissioner of Agriculture                             Kenneth Kendrick                      PRECINCT 4                                             01 
01110050001000000000000000000000000000000000000          Commissioner of Agriculture                             OVER VOTES                            PRECINCT 1                                             01 
01110050002000000000000000000000000000000000000          Commissioner of Agriculture                             OVER VOTES                            PRECINCT 2                                             01 
01110050003000001000001000000000000000000000000          Commissioner of Agriculture                             OVER VOTES                            PRECINCT 3                                             01 
01110050004000000000000000000000000000000000000          Commissioner of Agriculture                             OVER VOTES                            PRECINCT 4                                             01 
01110060001000028000028000000000000000000000000          Commissioner of Agriculture                             UNDER VOTES                           PRECINCT 1                                             01 
01110060002000029000022000007000000000000000000          Commissioner of Agriculture                             UNDER VOTES                           PRECINCT 2                                             01 
01110060003000041000025000016000000000000000000          Commissioner of Agriculture                             UNDER VOTES                           PRECINCT 3                                             01 
01110060004000072000043000029000000000000000000          Commissioner of Agriculture                             UNDER VOTES                           PRECINCT 4                                             01 
01120010001000070000042000028000000000000000000REP       Railroad Commissioner                                   Ryan Sitton                           PRECINCT 1                                             01 
01120010002000173000080000093000000000000000000REP       Railroad Commissioner                                   Ryan Sitton                           PRECINCT 2                                             01 
01120010003000148000102000046000000000000000000REP       Railroad Commissioner                                   Ryan Sitton                           PRECINCT 3                                             01 
01120010004000082000064000018000000000000000000REP       Railroad Commissioner                                   Ryan Sitton                           PRECINCT 4                                             01 
01120020001000035000016000019000000000000000000DEM       Railroad Commissioner                                   Steve Brown                           PRECINCT 1                                             01 
01120020002000044000009000035000000000000000000DEM       Railroad Commissioner                                   Steve Brown                           PRECINCT 2                                             01 
01120020003000044000032000012000000000000000000DEM       Railroad Commissioner                                   Steve Brown                           PRECINCT 3                                             01 
01120020004000049000031000018000000000000000000DEM       Railroad Commissioner                                   Steve Brown                           PRECINCT 4                                             01 
01120030001000002000002000000000000000000000000LIB       Railroad Commissioner                                   Mark A. Miller                        PRECINCT 1                                             01 
01120030002000010000005000005000000000000000000LIB       Railroad Commissioner                                   Mark A. Miller                        PRECINCT 2                                             01 
01120030003000009000004000005000000000000000000LIB       Railroad Commissioner                                   Mark A. Miller                        PRECINCT 3                                             01 
01120030004000005000002000003000000000000000000LIB       Railroad Commissioner                                   Mark A. Miller                        PRECINCT 4                                             01 
01120040001000011000006000005000000000000000000GRN       Railroad Commissioner                                   Martina Salinas                       PRECINCT 1                                             01 
01120040002000008000005000003000000000000000000GRN       Railroad Commissioner                                   Martina Salinas                       PRECINCT 2                                             01 
01120040003000009000006000003000000000000000000GRN       Railroad Commissioner                                   Martina Salinas                       PRECINCT 3                                             01 
01120040004000013000008000005000000000000000000GRN       Railroad Commissioner                                   Martina Salinas                       PRECINCT 4                                             01 
01120050001000000000000000000000000000000000000          Railroad Commissioner                                   OVER VOTES                            PRECINCT 1                                             01 
01120050002000001000001000000000000000000000000          Railroad Commissioner                                   OVER VOTES                            PRECINCT 2                                             01 
01120050003000000000000000000000000000000000000          Railroad Commissioner                                   OVER VOTES                            PRECINCT 3                                             01 
01120050004000000000000000000000000000000000000          Railroad Commissioner                                   OVER VOTES                            PRECINCT 4                                             01 
01120060001000028000028000000000000000000000000          Railroad Commissioner                                   UNDER VOTES                           PRECINCT 1                                             01 
01120060002000031000024000007000000000000000000          Railroad Commissioner                                   UNDER VOTES                           PRECINCT 2                                             01 
01120060003000038000023000015000000000000000000          Railroad Commissioner                                   UNDER VOTES                           PRECINCT 3                                             01 
01120060004000065000038000027000000000000000000          Railroad Commissioner                                   UNDER VOTES                           PRECINCT 4                                             01 
01130010001000064000041000023000000000000000000REP       Chief Justice, Supreme Court                            Nathan Hecht                          PRECINCT 1                                             01 
01130010002000175000078000097000000000000000000REP       Chief Justice, Supreme Court                            Nathan Hecht                          PRECINCT 2                                             01 
01130010003000143000100000043000000000000000000REP       Chief Justice, Supreme Court                            Nathan Hecht                          PRECINCT 3                                             01 
01130010004000076000060000016000000000000000000REP       Chief Justice, Supreme Court                            Nathan Hecht                          PRECINCT 4                                             01 
01130020001000045000020000025000000000000000000DEM       Chief Justice, Supreme Court                            William Moody                         PRECINCT 1                                             01 
01130020002000050000018000032000000000000000000DEM       Chief Justice, Supreme Court                            William Moody                         PRECINCT 2                                             01 
01130020003000052000035000017000000000000000000DEM       Chief Justice, Supreme Court                            William Moody                         PRECINCT 3                                             01 
01130020004000062000040000022000000000000000000DEM       Chief Justice, Supreme Court                            William Moody                         PRECINCT 4                                             01 
01130030001000008000006000002000000000000000000LIB       Chief Justice, Supreme Court                            Tom Oxford                            PRECINCT 1                                             01 
01130030002000010000004000006000000000000000000LIB       Chief Justice, Supreme Court                            Tom Oxford                            PRECINCT 2                                             01 
01130030003000011000005000006000000000000000000LIB       Chief Justice, Supreme Court                            Tom Oxford                            PRECINCT 3                                             01 
01130030004000005000002000003000000000000000000LIB       Chief Justice, Supreme Court                            Tom Oxford                            PRECINCT 4                                             01 
01130040001000000000000000000000000000000000000          Chief Justice, Supreme Court                            OVER VOTES                            PRECINCT 1                                             01 
01130040002000000000000000000000000000000000000          Chief Justice, Supreme Court                            OVER VOTES                            PRECINCT 2                                             01 
01130040003000000000000000000000000000000000000          Chief Justice, Supreme Court                            OVER VOTES                            PRECINCT 3                                             01 
01130040004000000000000000000000000000000000000          Chief Justice, Supreme Court                            OVER VOTES                            PRECINCT 4                                             01 
01130050001000027000027000000000000000000000000          Chief Justice, Supreme Court                            UNDER VOTES                           PRECINCT 1                                             01 
01130050002000030000024000006000000000000000000          Chief Justice, Supreme Court                            UNDER VOTES                           PRECINCT 2                                             01 
01130050003000042000027000015000000000000000000          Chief Justice, Supreme Court                            UNDER VOTES                           PRECINCT 3                                             01 
01130050004000071000041000030000000000000000000          Chief Justice, Supreme Court                            UNDER VOTES                           PRECINCT 4                                             01 
01140010001000073000046000027000000000000000000REP       Supreme Court, Place 6, Unexpired Term                  Jeff Brown                            PRECINCT 1                                             01 
01140010002000179000081000098000000000000000000REP       Supreme Court, Place 6, Unexpired Term                  Jeff Brown                            PRECINCT 2                                             01 
01140010003000146000102000044000000000000000000REP       Supreme Court, Place 6, Unexpired Term                  Jeff Brown                            PRECINCT 3                                             01 
01140010004000079000061000018000000000000000000REP       Supreme Court, Place 6, Unexpired Term                  Jeff Brown                            PRECINCT 4                                             01 
01140020001000041000019000022000000000000000000DEM       Supreme Court, Place 6, Unexpired Term                  Lawrence Edward Meyers                PRECINCT 1                                             01 
01140020002000043000012000031000000000000000000DEM       Supreme Court, Place 6, Unexpired Term                  Lawrence Edward Meyers                PRECINCT 2                                             01 
01140020003000046000029000017000000000000000000DEM       Supreme Court, Place 6, Unexpired Term                  Lawrence Edward Meyers                PRECINCT 3                                             01 
01140020004000050000032000018000000000000000000DEM       Supreme Court, Place 6, Unexpired Term                  Lawrence Edward Meyers                PRECINCT 4                                             01 
01140030001000005000003000002000000000000000000LIB       Supreme Court, Place 6, Unexpired Term                  Mark Ash                              PRECINCT 1                                             01 
01140030002000011000007000004000000000000000000LIB       Supreme Court, Place 6, Unexpired Term                  Mark Ash                              PRECINCT 2                                             01 
01140030003000010000006000004000000000000000000LIB       Supreme Court, Place 6, Unexpired Term                  Mark Ash                              PRECINCT 3                                             01 
01140030004000005000003000002000000000000000000LIB       Supreme Court, Place 6, Unexpired Term                  Mark Ash                              PRECINCT 4                                             01 
01140040001000000000000000000000000000000000000          Supreme Court, Place 6, Unexpired Term                  OVER VOTES                            PRECINCT 1                                             01 
01140040002000000000000000000000000000000000000          Supreme Court, Place 6, Unexpired Term                  OVER VOTES                            PRECINCT 2                                             01 
01140040003000000000000000000000000000000000000          Supreme Court, Place 6, Unexpired Term                  OVER VOTES                            PRECINCT 3                                             01 
01140040004000000000000000000000000000000000000          Supreme Court, Place 6, Unexpired Term                  OVER VOTES                            PRECINCT 4                                             01 
01140050001000026000026000000000000000000000000          Supreme Court, Place 6, Unexpired Term                  UNDER VOTES                           PRECINCT 1                                             01 
01140050002000031000024000007000000000000000000          Supreme Court, Place 6, Unexpired Term                  UNDER VOTES                           PRECINCT 2                                             01 
01140050003000046000030000016000000000000000000          Supreme Court, Place 6, Unexpired Term                  UNDER VOTES                           PRECINCT 3                                             01 
01140050004000079000047000032000000000000000000          Supreme Court, Place 6, Unexpired Term                  UNDER VOTES                           PRECINCT 4                                             01 
01150010001000067000043000024000000000000000000REP       Justice, Supreme Court, Place 7                         Jeff Boyd                             PRECINCT 1                                             01 
01150010002000175000078000097000000000000000000REP       Justice, Supreme Court, Place 7                         Jeff Boyd                             PRECINCT 2                                             01 
01150010003000146000102000044000000000000000000REP       Justice, Supreme Court, Place 7                         Jeff Boyd                             PRECINCT 3                                             01 
01150010004000074000056000018000000000000000000REP       Justice, Supreme Court, Place 7                         Jeff Boyd                             PRECINCT 4                                             01 
01150020001000044000022000022000000000000000000DEM       Justice, Supreme Court, Place 7                         Gina Benavides                        PRECINCT 1                                             01 
01150020002000045000013000032000000000000000000DEM       Justice, Supreme Court, Place 7                         Gina Benavides                        PRECINCT 2                                             01 
01150020003000050000033000017000000000000000000DEM       Justice, Supreme Court, Place 7                         Gina Benavides                        PRECINCT 3                                             01 
01150020004000057000036000021000000000000000000DEM       Justice, Supreme Court, Place 7                         Gina Benavides                        PRECINCT 4                                             01 
01150030001000005000002000003000000000000000000LIB       Justice, Supreme Court, Place 7                         Don Fulton                            PRECINCT 1                                             01 
01150030002000011000006000005000000000000000000LIB       Justice, Supreme Court, Place 7                         Don Fulton                            PRECINCT 2                                             01 
01150030003000011000006000005000000000000000000LIB       Justice, Supreme Court, Place 7                         Don Fulton                            PRECINCT 3                                             01 
01150030004000004000003000001000000000000000000LIB       Justice, Supreme Court, Place 7                         Don Fulton                            PRECINCT 4                                             01 
01150040001000003000002000001000000000000000000GRN       Justice, Supreme Court, Place 7                         Charles E. Waterbury                  PRECINCT 1                                             01 
01150040002000002000002000000000000000000000000GRN       Justice, Supreme Court, Place 7                         Charles E. Waterbury                  PRECINCT 2                                             01 
01150040003000002000001000001000000000000000000GRN       Justice, Supreme Court, Place 7                         Charles E. Waterbury                  PRECINCT 3                                             01 
01150040004000003000002000001000000000000000000GRN       Justice, Supreme Court, Place 7                         Charles E. Waterbury                  PRECINCT 4                                             01 
01150050001000000000000000000000000000000000000          Justice, Supreme Court, Place 7                         OVER VOTES                            PRECINCT 1                                             01 
01150050002000000000000000000000000000000000000          Justice, Supreme Court, Place 7                         OVER VOTES                            PRECINCT 2                                             01 
01150050003000000000000000000000000000000000000          Justice, Supreme Court, Place 7                         OVER VOTES                            PRECINCT 3                                             01 
01150050004000000000000000000000000000000000000          Justice, Supreme Court, Place 7                         OVER VOTES                            PRECINCT 4                                             01 
01150060001000025000025000000000000000000000000          Justice, Supreme Court, Place 7                         UNDER VOTES                           PRECINCT 1                                             01 
01150060002000032000025000007000000000000000000          Justice, Supreme Court, Place 7                         UNDER VOTES                           PRECINCT 2                                             01 
01150060003000039000025000014000000000000000000          Justice, Supreme Court, Place 7                         UNDER VOTES                           PRECINCT 3                                             01 
01150060004000076000046000030000000000000000000          Justice, Supreme Court, Place 7                         UNDER VOTES                           PRECINCT 4                                             01 
01160010001000071000047000024000000000000000000REP       Justice, Supreme Court, Place 8                         Phil Johnson                          PRECINCT 1                                             01 
01160010002000186000087000099000000000000000000REP       Justice, Supreme Court, Place 8                         Phil Johnson                          PRECINCT 2                                             01 
01160010003000151000107000044000000000000000000REP       Justice, Supreme Court, Place 8                         Phil Johnson                          PRECINCT 3                                             01 
01160010004000085000063000022000000000000000000REP       Justice, Supreme Court, Place 8                         Phil Johnson                          PRECINCT 4                                             01 
01160020001000009000003000006000000000000000000LIB       Justice, Supreme Court, Place 8                         RS Roberto Koelsch                    PRECINCT 1                                             01 
01160020002000015000002000013000000000000000000LIB       Justice, Supreme Court, Place 8                         RS Roberto Koelsch                    PRECINCT 2                                             01 
01160020003000021000012000009000000000000000000LIB       Justice, Supreme Court, Place 8                         RS Roberto Koelsch                    PRECINCT 3                                             01 
01160020004000013000008000005000000000000000000LIB       Justice, Supreme Court, Place 8                         RS Roberto Koelsch                    PRECINCT 4                                             01 
01160030001000006000004000002000000000000000000GRN       Justice, Supreme Court, Place 8                         Jim Chisolm                           PRECINCT 1                                             01 
01160030002000006000003000003000000000000000000GRN       Justice, Supreme Court, Place 8                         Jim Chisolm                           PRECINCT 2                                             01 
01160030003000010000008000002000000000000000000GRN       Justice, Supreme Court, Place 8                         Jim Chisolm                           PRECINCT 3                                             01 
01160030004000005000005000000000000000000000000GRN       Justice, Supreme Court, Place 8                         Jim Chisolm                           PRECINCT 4                                             01 
01160040001000000000000000000000000000000000000          Justice, Supreme Court, Place 8                         OVER VOTES                            PRECINCT 1                                             01 
01160040002000000000000000000000000000000000000          Justice, Supreme Court, Place 8                         OVER VOTES                            PRECINCT 2                                             01 
01160040003000000000000000000000000000000000000          Justice, Supreme Court, Place 8                         OVER VOTES                            PRECINCT 3                                             01 
01160040004000000000000000000000000000000000000          Justice, Supreme Court, Place 8                         OVER VOTES                            PRECINCT 4                                             01 
01160050001000040000040000000000000000000000000          Justice, Supreme Court, Place 8                         UNDER VOTES                           PRECINCT 1                                             01 
01160050002000046000032000014000000000000000000          Justice, Supreme Court, Place 8                         UNDER VOTES                           PRECINCT 2                                             01 
01160050003000066000040000026000000000000000000          Justice, Supreme Court, Place 8                         UNDER VOTES                           PRECINCT 3                                             01 
01160050004000110000067000043000000000000000000          Justice, Supreme Court, Place 8                         UNDER VOTES                           PRECINCT 4                                             01 
01170010001000066000040000026000000000000000000REP       Judge, Court of Criminal Appeals, Pl 3                  Bert Richardson                       PRECINCT 1                                             01 
01170010002000170000076000094000000000000000000REP       Judge, Court of Criminal Appeals, Pl 3                  Bert Richardson                       PRECINCT 2                                             01 
01170010003000145000101000044000000000000000000REP       Judge, Court of Criminal Appeals, Pl 3                  Bert Richardson                       PRECINCT 3                                             01 
01170010004000076000060000016000000000000000000REP       Judge, Court of Criminal Appeals, Pl 3                  Bert Richardson                       PRECINCT 4                                             01 
01170020001000040000019000021000000000000000000DEM       Judge, Court of Criminal Appeals, Pl 3                  John Granberg                         PRECINCT 1                                             01 
01170020002000044000013000031000000000000000000DEM       Judge, Court of Criminal Appeals, Pl 3                  John Granberg                         PRECINCT 2                                             01 
01170020003000047000031000016000000000000000000DEM       Judge, Court of Criminal Appeals, Pl 3                  John Granberg                         PRECINCT 3                                             01 
01170020004000043000027000016000000000000000000DEM       Judge, Court of Criminal Appeals, Pl 3                  John Granberg                         PRECINCT 4                                             01 
01170030001000007000005000002000000000000000000LIB       Judge, Court of Criminal Appeals, Pl 3                  Mark W. Bennett                       PRECINCT 1                                             01 
01170030002000015000007000008000000000000000000LIB       Judge, Court of Criminal Appeals, Pl 3                  Mark W. Bennett                       PRECINCT 2                                             01 
01170030003000009000005000004000000000000000000LIB       Judge, Court of Criminal Appeals, Pl 3                  Mark W. Bennett                       PRECINCT 3                                             01 
01170030004000014000007000007000000000000000000LIB       Judge, Court of Criminal Appeals, Pl 3                  Mark W. Bennett                       PRECINCT 4                                             01 
01170040001000000000000000000000000000000000000          Judge, Court of Criminal Appeals, Pl 3                  OVER VOTES                            PRECINCT 1                                             01 
01170040002000000000000000000000000000000000000          Judge, Court of Criminal Appeals, Pl 3                  OVER VOTES                            PRECINCT 2                                             01 
01170040003000000000000000000000000000000000000          Judge, Court of Criminal Appeals, Pl 3                  OVER VOTES                            PRECINCT 3                                             01 
01170040004000000000000000000000000000000000000          Judge, Court of Criminal Appeals, Pl 3                  OVER VOTES                            PRECINCT 4                                             01 
01170050001000030000030000000000000000000000000          Judge, Court of Criminal Appeals, Pl 3                  UNDER VOTES                           PRECINCT 1                                             01 
01170050002000036000028000008000000000000000000          Judge, Court of Criminal Appeals, Pl 3                  UNDER VOTES                           PRECINCT 2                                             01 
01170050003000047000030000017000000000000000000          Judge, Court of Criminal Appeals, Pl 3                  UNDER VOTES                           PRECINCT 3                                             01 
01170050004000080000049000031000000000000000000          Judge, Court of Criminal Appeals, Pl 3                  UNDER VOTES                           PRECINCT 4                                             01 
01180010001000073000045000028000000000000000000REP       Judge, Court of Criminal Appeals, Pl 4                  Kevin Patrick Yeary                   PRECINCT 1                                             01 
01180010002000177000082000095000000000000000000REP       Judge, Court of Criminal Appeals, Pl 4                  Kevin Patrick Yeary                   PRECINCT 2                                             01 
01180010003000149000104000045000000000000000000REP       Judge, Court of Criminal Appeals, Pl 4                  Kevin Patrick Yeary                   PRECINCT 3                                             01 
01180010004000081000060000021000000000000000000REP       Judge, Court of Criminal Appeals, Pl 4                  Kevin Patrick Yeary                   PRECINCT 4                                             01 
01180020001000008000006000002000000000000000000LIB       Judge, Court of Criminal Appeals, Pl 4                  Quanah Parker                         PRECINCT 1                                             01 
01180020002000024000008000016000000000000000000LIB       Judge, Court of Criminal Appeals, Pl 4                  Quanah Parker                         PRECINCT 2                                             01 
01180020003000025000015000010000000000000000000LIB       Judge, Court of Criminal Appeals, Pl 4                  Quanah Parker                         PRECINCT 3                                             01 
01180020004000017000011000006000000000000000000LIB       Judge, Court of Criminal Appeals, Pl 4                  Quanah Parker                         PRECINCT 4                                             01 
01180030001000011000007000004000000000000000000GRN       Judge, Court of Criminal Appeals, Pl 4                  Judith Sanders-Castro                 PRECINCT 1                                             01 
01180030002000010000005000005000000000000000000GRN       Judge, Court of Criminal Appeals, Pl 4                  Judith Sanders-Castro                 PRECINCT 2                                             01 
01180030003000010000008000002000000000000000000GRN       Judge, Court of Criminal Appeals, Pl 4                  Judith Sanders-Castro                 PRECINCT 3                                             01 
01180030004000009000006000003000000000000000000GRN       Judge, Court of Criminal Appeals, Pl 4                  Judith Sanders-Castro                 PRECINCT 4                                             01 
01180040001000000000000000000000000000000000000          Judge, Court of Criminal Appeals, Pl 4                  OVER VOTES                            PRECINCT 1                                             01 
01180040002000000000000000000000000000000000000          Judge, Court of Criminal Appeals, Pl 4                  OVER VOTES                            PRECINCT 2                                             01 
01180040003000000000000000000000000000000000000          Judge, Court of Criminal Appeals, Pl 4                  OVER VOTES                            PRECINCT 3                                             01 
01180040004000000000000000000000000000000000000          Judge, Court of Criminal Appeals, Pl 4                  OVER VOTES                            PRECINCT 4                                             01 
01180050001000036000036000000000000000000000000          Judge, Court of Criminal Appeals, Pl 4                  UNDER VOTES                           PRECINCT 1                                             01 
01180050002000043000029000014000000000000000000          Judge, Court of Criminal Appeals, Pl 4                  UNDER VOTES                           PRECINCT 2                                             01 
01180050003000064000040000024000000000000000000          Judge, Court of Criminal Appeals, Pl 4                  UNDER VOTES                           PRECINCT 3                                             01 
01180050004000107000066000041000000000000000000          Judge, Court of Criminal Appeals, Pl 4                  UNDER VOTES                           PRECINCT 4                                             01 
01190010001000068000043000025000000000000000000REP       Judge, Court of Criminal Appeals, Pl 9                  David Newell                          PRECINCT 1                                             01 
01190010002000179000081000098000000000000000000REP       Judge, Court of Criminal Appeals, Pl 9                  David Newell                          PRECINCT 2                                             01 
01190010003000151000104000047000000000000000000REP       Judge, Court of Criminal Appeals, Pl 9                  David Newell                          PRECINCT 3                                             01 
01190010004000086000063000023000000000000000000REP       Judge, Court of Criminal Appeals, Pl 9                  David Newell                          PRECINCT 4                                             01 
01190020001000013000009000004000000000000000000LIB       Judge, Court of Criminal Appeals, Pl 9                  William Bryan Strange, III            PRECINCT 1                                             01 
01190020002000023000009000014000000000000000000LIB       Judge, Court of Criminal Appeals, Pl 9                  William Bryan Strange, III            PRECINCT 2                                             01 
01190020003000022000012000010000000000000000000LIB       Judge, Court of Criminal Appeals, Pl 9                  William Bryan Strange, III            PRECINCT 3                                             01 
01190020004000016000009000007000000000000000000LIB       Judge, Court of Criminal Appeals, Pl 9                  William Bryan Strange, III            PRECINCT 4                                             01 
01190030001000005000003000002000000000000000000GRN       Judge, Court of Criminal Appeals, Pl 9                  George Joseph Altgelt                 PRECINCT 1                                             01 
01190030002000005000003000002000000000000000000GRN       Judge, Court of Criminal Appeals, Pl 9                  George Joseph Altgelt                 PRECINCT 2                                             01 
01190030003000010000009000001000000000000000000GRN       Judge, Court of Criminal Appeals, Pl 9                  George Joseph Altgelt                 PRECINCT 3                                             01 
01190030004000005000004000001000000000000000000GRN       Judge, Court of Criminal Appeals, Pl 9                  George Joseph Altgelt                 PRECINCT 4                                             01 
01190040001000000000000000000000000000000000000          Judge, Court of Criminal Appeals, Pl 9                  OVER VOTES                            PRECINCT 1                                             01 
01190040002000000000000000000000000000000000000          Judge, Court of Criminal Appeals, Pl 9                  OVER VOTES                            PRECINCT 2                                             01 
01190040003000000000000000000000000000000000000          Judge, Court of Criminal Appeals, Pl 9                  OVER VOTES                            PRECINCT 3                                             01 
01190040004000000000000000000000000000000000000          Judge, Court of Criminal Appeals, Pl 9                  OVER VOTES                            PRECINCT 4                                             01 
01190050001000039000039000000000000000000000000          Judge, Court of Criminal Appeals, Pl 9                  UNDER VOTES                           PRECINCT 1                                             01 
01190050002000046000031000015000000000000000000          Judge, Court of Criminal Appeals, Pl 9                  UNDER VOTES                           PRECINCT 2                                             01 
01190050003000065000042000023000000000000000000          Judge, Court of Criminal Appeals, Pl 9                  UNDER VOTES                           PRECINCT 3                                             01 
01190050004000107000067000040000000000000000000          Judge, Court of Criminal Appeals, Pl 9                  UNDER VOTES                           PRECINCT 4                                             01 
01200010001000084000053000031000000000000000000REP       State Representative, District 53                       Andrew S. Murr                        PRECINCT 1                                             01 
01200010002000205000100000105000000000000000000REP       State Representative, District 53                       Andrew S. Murr                        PRECINCT 2                                             01 
01200010003000161000116000045000000000000000000REP       State Representative, District 53                       Andrew S. Murr                        PRECINCT 3                                             01 
01200010004000099000075000024000000000000000000REP       State Representative, District 53                       Andrew S. Murr                        PRECINCT 4                                             01 
01200020001000012000008000004000000000000000000LIB       State Representative, District 53                       Maxmimilian Martin                    PRECINCT 1                                             01 
01200020002000019000005000014000000000000000000LIB       State Representative, District 53                       Maxmimilian Martin                    PRECINCT 2                                             01 
01200020003000035000018000017000000000000000000LIB       State Representative, District 53                       Maxmimilian Martin                    PRECINCT 3                                             01 
01200020004000021000013000008000000000000000000LIB       State Representative, District 53                       Maxmimilian Martin                    PRECINCT 4                                             01 
01200030001000000000000000000000000000000000000          State Representative, District 53                       OVER VOTES                            PRECINCT 1                                             01 
01200030002000000000000000000000000000000000000          State Representative, District 53                       OVER VOTES                            PRECINCT 2                                             01 
01200030003000000000000000000000000000000000000          State Representative, District 53                       OVER VOTES                            PRECINCT 3                                             01 
01200030004000000000000000000000000000000000000          State Representative, District 53                       OVER VOTES                            PRECINCT 4                                             01 
01200040001000033000033000000000000000000000000          State Representative, District 53                       UNDER VOTES                           PRECINCT 1                                             01 
01200040002000032000019000013000000000000000000          State Representative, District 53                       UNDER VOTES                           PRECINCT 2                                             01 
01200040003000052000033000019000000000000000000          State Representative, District 53                       UNDER VOTES                           PRECINCT 3                                             01 
01200040004000093000055000038000000000000000000          State Representative, District 53                       UNDER VOTES                           PRECINCT 4                                             01 
01210010001000070000046000024000000000000000000REP       Chief Justice, 4th Court of Appeals Dist                Sandee Bryan Marion                   PRECINCT 1                                             01 
01210010002000183000086000097000000000000000000REP       Chief Justice, 4th Court of Appeals Dist                Sandee Bryan Marion                   PRECINCT 2                                             01 
01210010003000151000107000044000000000000000000REP       Chief Justice, 4th Court of Appeals Dist                Sandee Bryan Marion                   PRECINCT 3                                             01 
01210010004000083000063000020000000000000000000REP       Chief Justice, 4th Court of Appeals Dist                Sandee Bryan Marion                   PRECINCT 4                                             01 
01210020001000046000022000024000000000000000000DEM       Chief Justice, 4th Court of Appeals Dist                Irene Rios                            PRECINCT 1                                             01 
01210020002000051000015000036000000000000000000DEM       Chief Justice, 4th Court of Appeals Dist                Irene Rios                            PRECINCT 2                                             01 
01210020003000051000035000016000000000000000000DEM       Chief Justice, 4th Court of Appeals Dist                Irene Rios                            PRECINCT 3                                             01 
01210020004000060000037000023000000000000000000DEM       Chief Justice, 4th Court of Appeals Dist                Irene Rios                            PRECINCT 4                                             01 
01210030001000000000000000000000000000000000000          Chief Justice, 4th Court of Appeals Dist                OVER VOTES                            PRECINCT 1                                             01 
01210030002000000000000000000000000000000000000          Chief Justice, 4th Court of Appeals Dist                OVER VOTES                            PRECINCT 2                                             01 
01210030003000000000000000000000000000000000000          Chief Justice, 4th Court of Appeals Dist                OVER VOTES                            PRECINCT 3                                             01 
01210030004000000000000000000000000000000000000          Chief Justice, 4th Court of Appeals Dist                OVER VOTES                            PRECINCT 4                                             01 
01210040001000026000026000000000000000000000000          Chief Justice, 4th Court of Appeals Dist                UNDER VOTES                           PRECINCT 1                                             01 
01210040002000033000023000010000000000000000000          Chief Justice, 4th Court of Appeals Dist                UNDER VOTES                           PRECINCT 2                                             01 
01210040003000046000025000021000000000000000000          Chief Justice, 4th Court of Appeals Dist                UNDER VOTES                           PRECINCT 3                                             01 
01210040004000070000043000027000000000000000000          Chief Justice, 4th Court of Appeals Dist                UNDER VOTES                           PRECINCT 4                                             01 
01220010001000080000051000029000000000000000000REP       District Judge, 452nd Judicial District                 Robert R. "Rob" Hofmann               PRECINCT 1                                             01 
01220010002000196000092000104000000000000000000REP       District Judge, 452nd Judicial District                 Robert R. "Rob" Hofmann               PRECINCT 2                                             01 
01220010003000157000109000048000000000000000000REP       District Judge, 452nd Judicial District                 Robert R. "Rob" Hofmann               PRECINCT 3                                             01 
01220010004000093000066000027000000000000000000REP       District Judge, 452nd Judicial District                 Robert R. "Rob" Hofmann               PRECINCT 4                                             01 
01220020001000000000000000000000000000000000000          District Judge, 452nd Judicial District                 OVER VOTES                            PRECINCT 1                                             01 
01220020002000000000000000000000000000000000000          District Judge, 452nd Judicial District                 OVER VOTES                            PRECINCT 2                                             01 
01220020003000000000000000000000000000000000000          District Judge, 452nd Judicial District                 OVER VOTES                            PRECINCT 3                                             01 
01220020004000000000000000000000000000000000000          District Judge, 452nd Judicial District                 OVER VOTES                            PRECINCT 4                                             01 
01220030001000043000043000000000000000000000000          District Judge, 452nd Judicial District                 UNDER VOTES                           PRECINCT 1                                             01 
01220030002000054000032000022000000000000000000          District Judge, 452nd Judicial District                 UNDER VOTES                           PRECINCT 2                                             01 
01220030003000091000058000033000000000000000000          District Judge, 452nd Judicial District                 UNDER VOTES                           PRECINCT 3                                             01 
01220030004000121000077000044000000000000000000          District Judge, 452nd Judicial District                 UNDER VOTES                           PRECINCT 4                                             01 
01230010001000081000049000032000000000000000000REP       District Attorney, 452nd Judicial Dist                  Tonya Spaeth Ahlschwede               PRECINCT 1                                             01 
01230010002000193000083000110000000000000000000REP       District Attorney, 452nd Judicial Dist                  Tonya Spaeth Ahlschwede               PRECINCT 2                                             01 
01230010003000151000104000047000000000000000000REP       District Attorney, 452nd Judicial Dist                  Tonya Spaeth Ahlschwede               PRECINCT 3                                             01 
01230010004000100000078000022000000000000000000REP       District Attorney, 452nd Judicial Dist                  Tonya Spaeth Ahlschwede               PRECINCT 4                                             01 
01230020001000000000000000000000000000000000000          District Attorney, 452nd Judicial Dist                  OVER VOTES                            PRECINCT 1                                             01 
01230020002000000000000000000000000000000000000          District Attorney, 452nd Judicial Dist                  OVER VOTES                            PRECINCT 2                                             01 
01230020003000000000000000000000000000000000000          District Attorney, 452nd Judicial Dist                  OVER VOTES                            PRECINCT 3                                             01 
01230020004000000000000000000000000000000000000          District Attorney, 452nd Judicial Dist                  OVER VOTES                            PRECINCT 4                                             01 
01230030001000045000045000000000000000000000000          District Attorney, 452nd Judicial Dist                  UNDER VOTES                           PRECINCT 1                                             01 
01230030002000059000041000018000000000000000000          District Attorney, 452nd Judicial Dist                  UNDER VOTES                           PRECINCT 2                                             01 
01230030003000097000063000034000000000000000000          District Attorney, 452nd Judicial Dist                  UNDER VOTES                           PRECINCT 3                                             01 
01230030004000113000065000048000000000000000000          District Attorney, 452nd Judicial Dist                  UNDER VOTES                           PRECINCT 4                                             01 
01240010001000076000045000031000000000000000000REP       County Judge                                            Souli Asa Shanklin                    PRECINCT 1                                             01 
01240010002000164000073000091000000000000000000REP       County Judge                                            Souli Asa Shanklin                    PRECINCT 2                                             01 
01240010003000147000109000038000000000000000000REP       County Judge                                            Souli Asa Shanklin                    PRECINCT 3                                             01 
01240010004000091000065000026000000000000000000REP       County Judge                                            Souli Asa Shanklin                    PRECINCT 4                                             01 
01240020001000092000049000043000000000000000000DEM       County Judge                                            Ricky Martinez                        PRECINCT 1                                             01 
01240020002000098000045000053000000000000000000DEM       County Judge                                            Ricky Martinez                        PRECINCT 2                                             01 
01240020003000097000056000041000000000000000000DEM       County Judge                                            Ricky Martinez                        PRECINCT 3                                             01 
01240020004000120000075000045000000000000000000DEM       County Judge                                            Ricky Martinez                        PRECINCT 4                                             01 
01240030001000000000000000000000000000000000000          County Judge                                            OVER VOTES                            PRECINCT 1                                             01 
01240030002000000000000000000000000000000000000          County Judge                                            OVER VOTES                            PRECINCT 2                                             01 
01240030003000000000000000000000000000000000000          County Judge                                            OVER VOTES                            PRECINCT 3                                             01 
01240030004000000000000000000000000000000000000          County Judge                                            OVER VOTES                            PRECINCT 4                                             01 
01240040001000000000000000000000000000000000000          County Judge                                            UNDER VOTES                           PRECINCT 1                                             01 
01240040002000008000006000002000000000000000000          County Judge                                            UNDER VOTES                           PRECINCT 2                                             01 
01240040003000004000002000002000000000000000000          County Judge                                            UNDER VOTES                           PRECINCT 3                                             01 
01240040004000004000003000001000000000000000000          County Judge                                            UNDER VOTES                           PRECINCT 4                                             01 
01250010001000113000064000049000000000000000000REP       District and County Clerk                               Olga Lydia Reyes                      PRECINCT 1                                             01 
01250010002000209000096000113000000000000000000REP       District and County Clerk                               Olga Lydia Reyes                      PRECINCT 2                                             01 
01250010003000197000140000057000000000000000000REP       District and County Clerk                               Olga Lydia Reyes                      PRECINCT 3                                             01 
01250010004000141000101000040000000000000000000REP       District and County Clerk                               Olga Lydia Reyes                      PRECINCT 4                                             01 
01250020001000000000000000000000000000000000000          District and County Clerk                               OVER VOTES                            PRECINCT 1                                             01 
