01040010001000050DEM       BALLOTS CAST - DEMOCRATIC PARTY                         BALLOTS CAST - DEMOCRATIC PARTY       PRECINCT 101                                           00 
01040010002000037DEM       BALLOTS CAST - DEMOCRATIC PARTY                         BALLOTS CAST - DEMOCRATIC PARTY       PRECINCT 102                                           00 
01040010003000029DEM       BALLOTS CAST - DEMOCRATIC PARTY                         BALLOTS CAST - DEMOCRATIC PARTY       PRECINCT 103                                           00 
01040010004000035DEM       BALLOTS CAST - DEMOCRATIC PARTY                         BALLOTS CAST - DEMOCRATIC PARTY       PRECINCT 104                                           00 
01040010005000025DEM       BALLOTS CAST - DEMOCRATIC PARTY                         BALLOTS CAST - DEMOCRATIC PARTY       PRECINCT 105                                           00 
01040010006000030DEM       BALLOTS CAST - DEMOCRATIC PARTY                         BALLOTS CAST - DEMOCRATIC PARTY       PRECINCT 106                                           00 
01040010007000062DEM       BALLOTS CAST - DEMOCRATIC PARTY                         BALLOTS CAST - DEMOCRATIC PARTY       PRECINCT 107                                           00 
01040010008000048DEM       BALLOTS CAST - DEMOCRATIC PARTY                         BALLOTS CAST - DEMOCRATIC PARTY       PRECINCT 108                                           00 
01040010009000051DEM       BALLOTS CAST - DEMOCRATIC PARTY                         BALLOTS CAST - DEMOCRATIC PARTY       PRECINCT 109                                           00 
01040010010000110DEM       BALLOTS CAST - DEMOCRATIC PARTY                         BALLOTS CAST - DEMOCRATIC PARTY       PRECINCT 110                                           00 
01040010011000016DEM       BALLOTS CAST - DEMOCRATIC PARTY                         BALLOTS CAST - DEMOCRATIC PARTY       PRECINCT 111                                           00 
01040010012000028DEM       BALLOTS CAST - DEMOCRATIC PARTY                         BALLOTS CAST - DEMOCRATIC PARTY       PRECINCT 112                                           00 
01040010013000213DEM       BALLOTS CAST - DEMOCRATIC PARTY                         BALLOTS CAST - DEMOCRATIC PARTY       PRECINCT 113                                           00 
01040010014000047DEM       BALLOTS CAST - DEMOCRATIC PARTY                         BALLOTS CAST - DEMOCRATIC PARTY       PRECINCT 114                                           00 
01040010015000085DEM       BALLOTS CAST - DEMOCRATIC PARTY                         BALLOTS CAST - DEMOCRATIC PARTY       PRECINCT 115                                           00 
01040010016000047DEM       BALLOTS CAST - DEMOCRATIC PARTY                         BALLOTS CAST - DEMOCRATIC PARTY       PRECINCT 116                                           00 
01040010017000036DEM       BALLOTS CAST - DEMOCRATIC PARTY                         BALLOTS CAST - DEMOCRATIC PARTY       PRECINCT 117                                           00 
01040010018000068DEM       BALLOTS CAST - DEMOCRATIC PARTY                         BALLOTS CAST - DEMOCRATIC PARTY       PRECINCT 118                                           00 
01040010019000038DEM       BALLOTS CAST - DEMOCRATIC PARTY                         BALLOTS CAST - DEMOCRATIC PARTY       PRECINCT 119                                           00 
01040010020000007DEM       BALLOTS CAST - DEMOCRATIC PARTY                         BALLOTS CAST - DEMOCRATIC PARTY       PRECINCT 120                                           00 
01040010021000060DEM       BALLOTS CAST - DEMOCRATIC PARTY                         BALLOTS CAST - DEMOCRATIC PARTY       PRECINCT 121                                           00 
01040010022000031DEM       BALLOTS CAST - DEMOCRATIC PARTY                         BALLOTS CAST - DEMOCRATIC PARTY       PRECINCT 122                                           00 
01040010023000072DEM       BALLOTS CAST - DEMOCRATIC PARTY                         BALLOTS CAST - DEMOCRATIC PARTY       PRECINCT 123                                           00 
01040010024000074DEM       BALLOTS CAST - DEMOCRATIC PARTY                         BALLOTS CAST - DEMOCRATIC PARTY       PRECINCT 124                                           00 
01040010025000069DEM       BALLOTS CAST - DEMOCRATIC PARTY                         BALLOTS CAST - DEMOCRATIC PARTY       PRECINCT 125                                           00 
01040010026000015DEM       BALLOTS CAST - DEMOCRATIC PARTY                         BALLOTS CAST - DEMOCRATIC PARTY       PRECINCT 126                                           00 
01040010027000013DEM       BALLOTS CAST - DEMOCRATIC PARTY                         BALLOTS CAST - DEMOCRATIC PARTY       PRECINCT 127                                           00 
01040010028000009DEM       BALLOTS CAST - DEMOCRATIC PARTY                         BALLOTS CAST - DEMOCRATIC PARTY       PRECINCT 128                                           00 
01040010029000018DEM       BALLOTS CAST - DEMOCRATIC PARTY                         BALLOTS CAST - DEMOCRATIC PARTY       PRECINCT 129                                           00 
01040010030000038DEM       BALLOTS CAST - DEMOCRATIC PARTY                         BALLOTS CAST - DEMOCRATIC PARTY       PRECINCT 130                                           00 
01040010031000032DEM       BALLOTS CAST - DEMOCRATIC PARTY                         BALLOTS CAST - DEMOCRATIC PARTY       PRECINCT 131                                           00 
01040010032000011DEM       BALLOTS CAST - DEMOCRATIC PARTY                         BALLOTS CAST - DEMOCRATIC PARTY       PRECINCT 132                                           00 
01040010033000007DEM       BALLOTS CAST - DEMOCRATIC PARTY                         BALLOTS CAST - DEMOCRATIC PARTY       PRECINCT 133                                           00 
01040010034000007DEM       BALLOTS CAST - DEMOCRATIC PARTY                         BALLOTS CAST - DEMOCRATIC PARTY       PRECINCT 134                                           00 
01040010035000028DEM       BALLOTS CAST - DEMOCRATIC PARTY                         BALLOTS CAST - DEMOCRATIC PARTY       PRECINCT 135                                           00 
01040010036000008DEM       BALLOTS CAST - DEMOCRATIC PARTY                         BALLOTS CAST - DEMOCRATIC PARTY       PRECINCT 136                                           00 
01040010037000022DEM       BALLOTS CAST - DEMOCRATIC PARTY                         BALLOTS CAST - DEMOCRATIC PARTY       PRECINCT 137                                           00 
01040010038000025DEM       BALLOTS CAST - DEMOCRATIC PARTY                         BALLOTS CAST - DEMOCRATIC PARTY       PRECINCT 138                                           00 
01040010039000013DEM       BALLOTS CAST - DEMOCRATIC PARTY                         BALLOTS CAST - DEMOCRATIC PARTY       PRECINCT 139                                           00 
01040010040000058DEM       BALLOTS CAST - DEMOCRATIC PARTY                         BALLOTS CAST - DEMOCRATIC PARTY       PRECINCT 140                                           00 
01040010041000038DEM       BALLOTS CAST - DEMOCRATIC PARTY                         BALLOTS CAST - DEMOCRATIC PARTY       PRECINCT 141                                           00 
01040010042000039DEM       BALLOTS CAST - DEMOCRATIC PARTY                         BALLOTS CAST - DEMOCRATIC PARTY       PRECINCT 142                                           00 
01040010043000042DEM       BALLOTS CAST - DEMOCRATIC PARTY                         BALLOTS CAST - DEMOCRATIC PARTY       PRECINCT 143                                           00 
01040010044000079DEM       BALLOTS CAST - DEMOCRATIC PARTY                         BALLOTS CAST - DEMOCRATIC PARTY       PRECINCT 144                                           00 
01040010045000071DEM       BALLOTS CAST - DEMOCRATIC PARTY                         BALLOTS CAST - DEMOCRATIC PARTY       PRECINCT 145                                           00 
01040010046000054DEM       BALLOTS CAST - DEMOCRATIC PARTY                         BALLOTS CAST - DEMOCRATIC PARTY       PRECINCT 146                                           00 
01040010047000074DEM       BALLOTS CAST - DEMOCRATIC PARTY                         BALLOTS CAST - DEMOCRATIC PARTY       PRECINCT 147                                           00 
01040010048000051DEM       BALLOTS CAST - DEMOCRATIC PARTY                         BALLOTS CAST - DEMOCRATIC PARTY       PRECINCT 148                                           00 
01040010049000024DEM       BALLOTS CAST - DEMOCRATIC PARTY                         BALLOTS CAST - DEMOCRATIC PARTY       PRECINCT 149                                           00 
01050010001000008REP       United States Senator                                   Reid Reasor                           PRECINCT 101                                           01 
01050010002000023REP       United States Senator                                   Reid Reasor                           PRECINCT 102                                           01 
01050010003000008REP       United States Senator                                   Reid Reasor                           PRECINCT 103                                           01 
01050010004000005REP       United States Senator                                   Reid Reasor                           PRECINCT 104                                           01 
01050010005000020REP       United States Senator                                   Reid Reasor                           PRECINCT 105                                           01 
01050010006000015REP       United States Senator                                   Reid Reasor                           PRECINCT 106                                           01 
01050010007000022REP       United States Senator                                   Reid Reasor                           PRECINCT 107                                           01 
01050010008000017REP       United States Senator                                   Reid Reasor                           PRECINCT 108                                           01 
01050010009000009REP       United States Senator                                   Reid Reasor                           PRECINCT 109                                           01 
01050010010000012REP       United States Senator                                   Reid Reasor                           PRECINCT 110                                           01 
01050010011000011REP       United States Senator                                   Reid Reasor                           PRECINCT 111                                           01 
01050010012000011REP       United States Senator                                   Reid Reasor                           PRECINCT 112                                           01 
01050010013000002REP       United States Senator                                   Reid Reasor                           PRECINCT 113                                           01 
01050010014000005REP       United States Senator                                   Reid Reasor                           PRECINCT 114                                           01 
01050010015000012REP       United States Senator                                   Reid Reasor                           PRECINCT 115                                           01 
01050010016000018REP       United States Senator                                   Reid Reasor                           PRECINCT 116                                           01 
01050010017000010REP       United States Senator                                   Reid Reasor                           PRECINCT 117                                           01 
01050010018000012REP       United States Senator                                   Reid Reasor                           PRECINCT 118                                           01 
01050010019000003REP       United States Senator                                   Reid Reasor                           PRECINCT 119                                           01 
01050010020000001REP       United States Senator                                   Reid Reasor                           PRECINCT 120                                           01 
01050010021000011REP       United States Senator                                   Reid Reasor                           PRECINCT 121                                           01 
01050010022000005REP       United States Senator                                   Reid Reasor                           PRECINCT 122                                           01 
01050010023000000REP       United States Senator                                   Reid Reasor                           PRECINCT 123                                           01 
01050010024000002REP       United States Senator                                   Reid Reasor                           PRECINCT 124                                           01 
01050010025000015REP       United States Senator                                   Reid Reasor                           PRECINCT 125                                           01 
01050010026000003REP       United States Senator                                   Reid Reasor                           PRECINCT 126                                           01 
01050010027000000REP       United States Senator                                   Reid Reasor                           PRECINCT 127                                           01 
01050010028000000REP       United States Senator                                   Reid Reasor                           PRECINCT 128                                           01 
01050010029000012REP       United States Senator                                   Reid Reasor                           PRECINCT 129                                           01 
01050010030000002REP       United States Senator                                   Reid Reasor                           PRECINCT 130                                           01 
01050010031000014REP       United States Senator                                   Reid Reasor                           PRECINCT 131                                           01 
01050010032000003REP       United States Senator                                   Reid Reasor                           PRECINCT 132                                           01 
01050010033000001REP       United States Senator                                   Reid Reasor                           PRECINCT 133                                           01 
01050010034000006REP       United States Senator                                   Reid Reasor                           PRECINCT 134                                           01 
01050010035000013REP       United States Senator                                   Reid Reasor                           PRECINCT 135                                           01 
01050010036000005REP       United States Senator                                   Reid Reasor                           PRECINCT 136                                           01 
01050010037000010REP       United States Senator                                   Reid Reasor                           PRECINCT 137                                           01 
01050010038000007REP       United States Senator                                   Reid Reasor                           PRECINCT 138                                           01 
01050010039000004REP       United States Senator                                   Reid Reasor                           PRECINCT 139                                           01 
01050010040000015REP       United States Senator                                   Reid Reasor                           PRECINCT 140                                           01 
01050010041000008REP       United States Senator                                   Reid Reasor                           PRECINCT 141                                           01 
01050010042000006REP       United States Senator                                   Reid Reasor                           PRECINCT 142                                           01 
01050010043000015REP       United States Senator                                   Reid Reasor                           PRECINCT 143                                           01 
01050010044000006REP       United States Senator                                   Reid Reasor                           PRECINCT 144                                           01 
01050010045000009REP       United States Senator                                   Reid Reasor                           PRECINCT 145                                           01 
01050010046000006REP       United States Senator                                   Reid Reasor                           PRECINCT 146                                           01 
01050010047000013REP       United States Senator                                   Reid Reasor                           PRECINCT 147                                           01 
01050010048000007REP       United States Senator                                   Reid Reasor                           PRECINCT 148                                           01 
01050010049000007REP       United States Senator                                   Reid Reasor                           PRECINCT 149                                           01 
01050020001000024REP       United States Senator                                   Ken Cope                              PRECINCT 101                                           01 
01050020002000016REP       United States Senator                                   Ken Cope                              PRECINCT 102                                           01 
01050020003000021REP       United States Senator                                   Ken Cope                              PRECINCT 103                                           01 
01050020004000018REP       United States Senator                                   Ken Cope                              PRECINCT 104                                           01 
01050020005000029REP       United States Senator                                   Ken Cope                              PRECINCT 105                                           01 
01050020006000023REP       United States Senator                                   Ken Cope                              PRECINCT 106                                           01 
01050020007000021REP       United States Senator                                   Ken Cope                              PRECINCT 107                                           01 
01050020008000015REP       United States Senator                                   Ken Cope                              PRECINCT 108                                           01 
01050020009000016REP       United States Senator                                   Ken Cope                              PRECINCT 109                                           01 
01050020010000018REP       United States Senator                                   Ken Cope                              PRECINCT 110                                           01 
01050020011000011REP       United States Senator                                   Ken Cope                              PRECINCT 111                                           01 
01050020012000011REP       United States Senator                                   Ken Cope                              PRECINCT 112                                           01 
01050020013000002REP       United States Senator                                   Ken Cope                              PRECINCT 113                                           01 
01050020014000009REP       United States Senator                                   Ken Cope                              PRECINCT 114                                           01 
01050020015000007REP       United States Senator                                   Ken Cope                              PRECINCT 115                                           01 
01050020016000008REP       United States Senator                                   Ken Cope                              PRECINCT 116                                           01 
01050020017000013REP       United States Senator                                   Ken Cope                              PRECINCT 117                                           01 
01050020018000013REP       United States Senator                                   Ken Cope                              PRECINCT 118                                           01 
01050020019000010REP       United States Senator                                   Ken Cope                              PRECINCT 119                                           01 
01050020020000004REP       United States Senator                                   Ken Cope                              PRECINCT 120                                           01 
01050020021000021REP       United States Senator                                   Ken Cope                              PRECINCT 121                                           01 
01050020022000008REP       United States Senator                                   Ken Cope                              PRECINCT 122                                           01 
01050020023000001REP       United States Senator                                   Ken Cope                              PRECINCT 123                                           01 
01050020024000007REP       United States Senator                                   Ken Cope                              PRECINCT 124                                           01 
01050020025000027REP       United States Senator                                   Ken Cope                              PRECINCT 125                                           01 
01050020026000001REP       United States Senator                                   Ken Cope                              PRECINCT 126                                           01 
01050020027000002REP       United States Senator                                   Ken Cope                              PRECINCT 127                                           01 
01050020028000000REP       United States Senator                                   Ken Cope                              PRECINCT 128                                           01 
01050020029000003REP       United States Senator                                   Ken Cope                              PRECINCT 129                                           01 
01050020030000001REP       United States Senator                                   Ken Cope                              PRECINCT 130                                           01 
01050020031000012REP       United States Senator                                   Ken Cope                              PRECINCT 131                                           01 
01050020032000008REP       United States Senator                                   Ken Cope                              PRECINCT 132                                           01 
01050020033000000REP       United States Senator                                   Ken Cope                              PRECINCT 133                                           01 
01050020034000004REP       United States Senator                                   Ken Cope                              PRECINCT 134                                           01 
01050020035000020REP       United States Senator                                   Ken Cope                              PRECINCT 135                                           01 
01050020036000004REP       United States Senator                                   Ken Cope                              PRECINCT 136                                           01 
01050020037000006REP       United States Senator                                   Ken Cope                              PRECINCT 137                                           01 
01050020038000004REP       United States Senator                                   Ken Cope                              PRECINCT 138                                           01 
01050020039000003REP       United States Senator                                   Ken Cope                              PRECINCT 139                                           01 
01050020040000012REP       United States Senator                                   Ken Cope                              PRECINCT 140                                           01 
01050020041000019REP       United States Senator                                   Ken Cope                              PRECINCT 141                                           01 
01050020042000012REP       United States Senator                                   Ken Cope                              PRECINCT 142                                           01 
01050020043000024REP       United States Senator                                   Ken Cope                              PRECINCT 143                                           01 
01050020044000004REP       United States Senator                                   Ken Cope                              PRECINCT 144                                           01 
01050020045000011REP       United States Senator                                   Ken Cope                              PRECINCT 145                                           01 
01050020046000009REP       United States Senator                                   Ken Cope                              PRECINCT 146                                           01 
01050020047000032REP       United States Senator                                   Ken Cope                              PRECINCT 147                                           01 
01050020048000014REP       United States Senator                                   Ken Cope                              PRECINCT 148                                           01 
01050020049000008REP       United States Senator                                   Ken Cope                              PRECINCT 149                                           01 
01050030001000015REP       United States Senator                                   Linda Vega                            PRECINCT 101                                           01 
01050030002000018REP       United States Senator                                   Linda Vega                            PRECINCT 102                                           01 
01050030003000017REP       United States Senator                                   Linda Vega                            PRECINCT 103                                           01 
01050030004000016REP       United States Senator                                   Linda Vega                            PRECINCT 104                                           01 
01050030005000016REP       United States Senator                                   Linda Vega                            PRECINCT 105                                           01 
01050030006000016REP       United States Senator                                   Linda Vega                            PRECINCT 106                                           01 
01050030007000009REP       United States Senator                                   Linda Vega                            PRECINCT 107                                           01 
01050030008000012REP       United States Senator                                   Linda Vega                            PRECINCT 108                                           01 
01050030009000010REP       United States Senator                                   Linda Vega                            PRECINCT 109                                           01 
01050030010000023REP       United States Senator                                   Linda Vega                            PRECINCT 110                                           01 
01050030011000008REP       United States Senator                                   Linda Vega                            PRECINCT 111                                           01 
01050030012000016REP       United States Senator                                   Linda Vega                            PRECINCT 112                                           01 
01050030013000004REP       United States Senator                                   Linda Vega                            PRECINCT 113                                           01 
01050030014000011REP       United States Senator                                   Linda Vega                            PRECINCT 114                                           01 
01050030015000010REP       United States Senator                                   Linda Vega                            PRECINCT 115                                           01 
01050030016000018REP       United States Senator                                   Linda Vega                            PRECINCT 116                                           01 
01050030017000016REP       United States Senator                                   Linda Vega                            PRECINCT 117                                           01 
01050030018000024REP       United States Senator                                   Linda Vega                            PRECINCT 118                                           01 
01050030019000010REP       United States Senator                                   Linda Vega                            PRECINCT 119                                           01 
01050030020000006REP       United States Senator                                   Linda Vega                            PRECINCT 120                                           01 
01050030021000022REP       United States Senator                                   Linda Vega                            PRECINCT 121                                           01 
01050030022000006REP       United States Senator                                   Linda Vega                            PRECINCT 122                                           01 
01050030023000002REP       United States Senator                                   Linda Vega                            PRECINCT 123                                           01 
01050030024000004REP       United States Senator                                   Linda Vega                            PRECINCT 124                                           01 
01050030025000021REP       United States Senator                                   Linda Vega                            PRECINCT 125                                           01 
01050030026000007REP       United States Senator                                   Linda Vega                            PRECINCT 126                                           01 
01050030027000001REP       United States Senator                                   Linda Vega                            PRECINCT 127                                           01 
01050030028000000REP       United States Senator                                   Linda Vega                            PRECINCT 128                                           01 
01050030029000008REP       United States Senator                                   Linda Vega                            PRECINCT 129                                           01 
01050030030000001REP       United States Senator                                   Linda Vega                            PRECINCT 130                                           01 
01050030031000008REP       United States Senator                                   Linda Vega                            PRECINCT 131                                           01 
01050030032000002REP       United States Senator                                   Linda Vega                            PRECINCT 132                                           01 
01050030033000002REP       United States Senator                                   Linda Vega                            PRECINCT 133                                           01 
01050030034000004REP       United States Senator                                   Linda Vega                            PRECINCT 134                                           01 
01050030035000030REP       United States Senator                                   Linda Vega                            PRECINCT 135                                           01 
01050030036000004REP       United States Senator                                   Linda Vega                            PRECINCT 136                                           01 
01050030037000002REP       United States Senator                                   Linda Vega                            PRECINCT 137                                           01 
01050030038000009REP       United States Senator                                   Linda Vega                            PRECINCT 138                                           01 
01050030039000012REP       United States Senator                                   Linda Vega                            PRECINCT 139                                           01 
01050030040000018REP       United States Senator                                   Linda Vega                            PRECINCT 140                                           01 
01050030041000015REP       United States Senator                                   Linda Vega                            PRECINCT 141                                           01 
01050030042000015REP       United States Senator                                   Linda Vega                            PRECINCT 142                                           01 
01050030043000005REP       United States Senator                                   Linda Vega                            PRECINCT 143                                           01 
01050030044000012REP       United States Senator                                   Linda Vega                            PRECINCT 144                                           01 
01050030045000012REP       United States Senator                                   Linda Vega                            PRECINCT 145                                           01 
01050030046000005REP       United States Senator                                   Linda Vega                            PRECINCT 146                                           01 
01050030047000024REP       United States Senator                                   Linda Vega                            PRECINCT 147                                           01 
01050030048000006REP       United States Senator                                   Linda Vega                            PRECINCT 148                                           01 
01050030049000006REP       United States Senator                                   Linda Vega                            PRECINCT 149                                           01 
01050040001000059REP       United States Senator                                   Steve Stockman                        PRECINCT 101                                           01 
01050040002000064REP       United States Senator                                   Steve Stockman                        PRECINCT 102                                           01 
01050040003000057REP       United States Senator                                   Steve Stockman                        PRECINCT 103                                           01 
01050040004000067REP       United States Senator                                   Steve Stockman                        PRECINCT 104                                           01 
01050040005000099REP       United States Senator                                   Steve Stockman                        PRECINCT 105                                           01 
01050040006000078REP       United States Senator                                   Steve Stockman                        PRECINCT 106                                           01 
01050040007000090REP       United States Senator                                   Steve Stockman                        PRECINCT 107                                           01 
01050040008000092REP       United States Senator                                   Steve Stockman                        PRECINCT 108                                           01 
01050040009000079REP       United States Senator                                   Steve Stockman                        PRECINCT 109                                           01 
01050040010000093REP       United States Senator                                   Steve Stockman                        PRECINCT 110                                           01 
01050040011000057REP       United States Senator                                   Steve Stockman                        PRECINCT 111                                           01 
01050040012000045REP       United States Senator                                   Steve Stockman                        PRECINCT 112                                           01 
01050040013000002REP       United States Senator                                   Steve Stockman                        PRECINCT 113                                           01 
01050040014000029REP       United States Senator                                   Steve Stockman                        PRECINCT 114                                           01 
01050040015000044REP       United States Senator                                   Steve Stockman                        PRECINCT 115                                           01 
01050040016000051REP       United States Senator                                   Steve Stockman                        PRECINCT 116                                           01 
01050040017000059REP       United States Senator                                   Steve Stockman                        PRECINCT 117                                           01 
01050040018000055REP       United States Senator                                   Steve Stockman                        PRECINCT 118                                           01 
01050040019000031REP       United States Senator                                   Steve Stockman                        PRECINCT 119                                           01 
01050040020000012REP       United States Senator                                   Steve Stockman                        PRECINCT 120                                           01 
01050040021000047REP       United States Senator                                   Steve Stockman                        PRECINCT 121                                           01 
01050040022000033REP       United States Senator                                   Steve Stockman                        PRECINCT 122                                           01 
01050040023000002REP       United States Senator                                   Steve Stockman                        PRECINCT 123                                           01 
01050040024000005REP       United States Senator                                   Steve Stockman                        PRECINCT 124                                           01 
01050040025000082REP       United States Senator                                   Steve Stockman                        PRECINCT 125                                           01 
01050040026000006REP       United States Senator                                   Steve Stockman                        PRECINCT 126                                           01 
01050040027000013REP       United States Senator                                   Steve Stockman                        PRECINCT 127                                           01 
01050040028000004REP       United States Senator                                   Steve Stockman                        PRECINCT 128                                           01 
01050040029000013REP       United States Senator                                   Steve Stockman                        PRECINCT 129                                           01 
01050040030000013REP       United States Senator                                   Steve Stockman                        PRECINCT 130                                           01 
01050040031000048REP       United States Senator                                   Steve Stockman                        PRECINCT 131                                           01 
01050040032000023REP       United States Senator                                   Steve Stockman                        PRECINCT 132                                           01 
01050040033000019REP       United States Senator                                   Steve Stockman                        PRECINCT 133                                           01 
01050040034000015REP       United States Senator                                   Steve Stockman                        PRECINCT 134                                           01 
01050040035000097REP       United States Senator                                   Steve Stockman                        PRECINCT 135                                           01 
01050040036000014REP       United States Senator                                   Steve Stockman                        PRECINCT 136                                           01 
01050040037000039REP       United States Senator                                   Steve Stockman                        PRECINCT 137                                           01 
01050040038000053REP       United States Senator                                   Steve Stockman                        PRECINCT 138                                           01 
01050040039000033REP       United States Senator                                   Steve Stockman                        PRECINCT 139                                           01 
01050040040000081REP       United States Senator                                   Steve Stockman                        PRECINCT 140                                           01 
01050040041000054REP       United States Senator                                   Steve Stockman                        PRECINCT 141                                           01 
01050040042000056REP       United States Senator                                   Steve Stockman                        PRECINCT 142                                           01 
01050040043000057REP       United States Senator                                   Steve Stockman                        PRECINCT 143                                           01 
01050040044000031REP       United States Senator                                   Steve Stockman                        PRECINCT 144                                           01 
01050040045000032REP       United States Senator                                   Steve Stockman                        PRECINCT 145                                           01 
01050040046000051REP       United States Senator                                   Steve Stockman                        PRECINCT 146                                           01 
01050040047000075REP       United States Senator                                   Steve Stockman                        PRECINCT 147                                           01 
01050040048000039REP       United States Senator                                   Steve Stockman                        PRECINCT 148                                           01 
01050040049000024REP       United States Senator                                   Steve Stockman                        PRECINCT 149                                           01 
01050050001000204REP       United States Senator                                   John Cornyn                           PRECINCT 101                                           01 
01050050002000258REP       United States Senator                                   John Cornyn                           PRECINCT 102                                           01 
01050050003000227REP       United States Senator                                   John Cornyn                           PRECINCT 103                                           01 
01050050004000204REP       United States Senator                                   John Cornyn                           PRECINCT 104                                           01 
01050050005000345REP       United States Senator                                   John Cornyn                           PRECINCT 105                                           01 
01050050006000268REP       United States Senator                                   John Cornyn                           PRECINCT 106                                           01 
01050050007000255REP       United States Senator                                   John Cornyn                           PRECINCT 107                                           01 
01050050008000206REP       United States Senator                                   John Cornyn                           PRECINCT 108                                           01 
01050050009000254REP       United States Senator                                   John Cornyn                           PRECINCT 109                                           01 
01050050010000223REP       United States Senator                                   John Cornyn                           PRECINCT 110                                           01 
01050050011000188REP       United States Senator                                   John Cornyn                           PRECINCT 111                                           01 
01050050012000160REP       United States Senator                                   John Cornyn                           PRECINCT 112                                           01 
01050050013000011REP       United States Senator                                   John Cornyn                           PRECINCT 113                                           01 
01050050014000146REP       United States Senator                                   John Cornyn                           PRECINCT 114                                           01 
01050050015000086REP       United States Senator                                   John Cornyn                           PRECINCT 115                                           01 
01050050016000195REP       United States Senator                                   John Cornyn                           PRECINCT 116                                           01 
01050050017000271REP       United States Senator                                   John Cornyn                           PRECINCT 117                                           01 
01050050018000386REP       United States Senator                                   John Cornyn                           PRECINCT 118                                           01 
01050050019000160REP       United States Senator                                   John Cornyn                           PRECINCT 119                                           01 
01050050020000055REP       United States Senator                                   John Cornyn                           PRECINCT 120                                           01 
01050050021000249REP       United States Senator                                   John Cornyn                           PRECINCT 121                                           01 
01050050022000161REP       United States Senator                                   John Cornyn                           PRECINCT 122                                           01 
01050050023000004REP       United States Senator                                   John Cornyn                           PRECINCT 123                                           01 
01050050024000033REP       United States Senator                                   John Cornyn                           PRECINCT 124                                           01 
01050050025000309REP       United States Senator                                   John Cornyn                           PRECINCT 125                                           01 
01050050026000079REP       United States Senator                                   John Cornyn                           PRECINCT 126                                           01 
01050050027000042REP       United States Senator                                   John Cornyn                           PRECINCT 127                                           01 
01050050028000003REP       United States Senator                                   John Cornyn                           PRECINCT 128                                           01 
01050050029000060REP       United States Senator                                   John Cornyn                           PRECINCT 129                                           01 
01050050030000041REP       United States Senator                                   John Cornyn                           PRECINCT 130                                           01 
01050050031000115REP       United States Senator                                   John Cornyn                           PRECINCT 131                                           01 
01050050032000045REP       United States Senator                                   John Cornyn                           PRECINCT 132                                           01 
01050050033000033REP       United States Senator                                   John Cornyn                           PRECINCT 133                                           01 
01050050034000071REP       United States Senator                                   John Cornyn                           PRECINCT 134                                           01 
01050050035000302REP       United States Senator                                   John Cornyn                           PRECINCT 135                                           01 
01050050036000049REP       United States Senator                                   John Cornyn                           PRECINCT 136                                           01 
01050050037000126REP       United States Senator                                   John Cornyn                           PRECINCT 137                                           01 
01050050038000097REP       United States Senator                                   John Cornyn                           PRECINCT 138                                           01 
01050050039000174REP       United States Senator                                   John Cornyn                           PRECINCT 139                                           01 
01050050040000326REP       United States Senator                                   John Cornyn                           PRECINCT 140                                           01 
01050050041000138REP       United States Senator                                   John Cornyn                           PRECINCT 141                                           01 
01050050042000162REP       United States Senator                                   John Cornyn                           PRECINCT 142                                           01 
01050050043000246REP       United States Senator                                   John Cornyn                           PRECINCT 143                                           01 
01050050044000070REP       United States Senator                                   John Cornyn                           PRECINCT 144                                           01 
01050050045000154REP       United States Senator                                   John Cornyn                           PRECINCT 145                                           01 
01050050046000140REP       United States Senator                                   John Cornyn                           PRECINCT 146                                           01 
01050050047000234REP       United States Senator                                   John Cornyn                           PRECINCT 147                                           01 
01050050048000120REP       United States Senator                                   John Cornyn                           PRECINCT 148                                           01 
01050050049000061REP       United States Senator                                   John Cornyn                           PRECINCT 149                                           01 
01050060001000042REP       United States Senator                                   Dwayne Stovall                        PRECINCT 101                                           01 
01050060002000048REP       United States Senator                                   Dwayne Stovall                        PRECINCT 102                                           01 
01050060003000039REP       United States Senator                                   Dwayne Stovall                        PRECINCT 103                                           01 
01050060004000045REP       United States Senator                                   Dwayne Stovall                        PRECINCT 104                                           01 
01050060005000049REP       United States Senator                                   Dwayne Stovall                        PRECINCT 105                                           01 
01050060006000072REP       United States Senator                                   Dwayne Stovall                        PRECINCT 106                                           01 
01050060007000062REP       United States Senator                                   Dwayne Stovall                        PRECINCT 107                                           01 
01050060008000055REP       United States Senator                                   Dwayne Stovall                        PRECINCT 108                                           01 
01050060009000038REP       United States Senator                                   Dwayne Stovall                        PRECINCT 109                                           01 
01050060010000078REP       United States Senator                                   Dwayne Stovall                        PRECINCT 110                                           01 
01050060011000031REP       United States Senator                                   Dwayne Stovall                        PRECINCT 111                                           01 
01050060012000047REP       United States Senator                                   Dwayne Stovall                        PRECINCT 112                                           01 
01050060013000001REP       United States Senator                                   Dwayne Stovall                        PRECINCT 113                                           01 
01050060014000007REP       United States Senator                                   Dwayne Stovall                        PRECINCT 114                                           01 
01050060015000018REP       United States Senator                                   Dwayne Stovall                        PRECINCT 115                                           01 
01050060016000017REP       United States Senator                                   Dwayne Stovall                        PRECINCT 116                                           01 
01050060017000017REP       United States Senator                                   Dwayne Stovall                        PRECINCT 117                                           01 
01050060018000023REP       United States Senator                                   Dwayne Stovall                        PRECINCT 118                                           01 
01050060019000019REP       United States Senator                                   Dwayne Stovall                        PRECINCT 119                                           01 
01050060020000006REP       United States Senator                                   Dwayne Stovall                        PRECINCT 120                                           01 
01050060021000027REP       United States Senator                                   Dwayne Stovall                        PRECINCT 121                                           01 
01050060022000016REP       United States Senator                                   Dwayne Stovall                        PRECINCT 122                                           01 
01050060023000000REP       United States Senator                                   Dwayne Stovall                        PRECINCT 123                                           01 
01050060024000005REP       United States Senator                                   Dwayne Stovall                        PRECINCT 124                                           01 
01050060025000037REP       United States Senator                                   Dwayne Stovall                        PRECINCT 125                                           01 
01050060026000003REP       United States Senator                                   Dwayne Stovall                        PRECINCT 126                                           01 
01050060027000006REP       United States Senator                                   Dwayne Stovall                        PRECINCT 127                                           01 
01050060028000001REP       United States Senator                                   Dwayne Stovall                        PRECINCT 128                                           01 
01050060029000019REP       United States Senator                                   Dwayne Stovall                        PRECINCT 129                                           01 
01050060030000004REP       United States Senator                                   Dwayne Stovall                        PRECINCT 130                                           01 
01050060031000035REP       United States Senator                                   Dwayne Stovall                        PRECINCT 131                                           01 
01050060032000012REP       United States Senator                                   Dwayne Stovall                        PRECINCT 132                                           01 
01050060033000005REP       United States Senator                                   Dwayne Stovall                        PRECINCT 133                                           01 
01050060034000018REP       United States Senator                                   Dwayne Stovall                        PRECINCT 134                                           01 
01050060035000056REP       United States Senator                                   Dwayne Stovall                        PRECINCT 135                                           01 
01050060036000011REP       United States Senator                                   Dwayne Stovall                        PRECINCT 136                                           01 
01050060037000015REP       United States Senator                                   Dwayne Stovall                        PRECINCT 137                                           01 
01050060038000014REP       United States Senator                                   Dwayne Stovall                        PRECINCT 138                                           01 
01050060039000015REP       United States Senator                                   Dwayne Stovall                        PRECINCT 139                                           01 
01050060040000037REP       United States Senator                                   Dwayne Stovall                        PRECINCT 140                                           01 
01050060041000030REP       United States Senator                                   Dwayne Stovall                        PRECINCT 141                                           01 
01050060042000027REP       United States Senator                                   Dwayne Stovall                        PRECINCT 142                                           01 
01050060043000064REP       United States Senator                                   Dwayne Stovall                        PRECINCT 143                                           01 
01050060044000022REP       United States Senator                                   Dwayne Stovall                        PRECINCT 144                                           01 
01050060045000045REP       United States Senator                                   Dwayne Stovall                        PRECINCT 145                                           01 
01050060046000039REP       United States Senator                                   Dwayne Stovall                        PRECINCT 146                                           01 
01050060047000049REP       United States Senator                                   Dwayne Stovall                        PRECINCT 147                                           01 
01050060048000014REP       United States Senator                                   Dwayne Stovall                        PRECINCT 148                                           01 
01050060049000012REP       United States Senator                                   Dwayne Stovall                        PRECINCT 149                                           01 
01050070001000010REP       United States Senator                                   Chris Mapp                            PRECINCT 101                                           01 
01050070002000004REP       United States Senator                                   Chris Mapp                            PRECINCT 102                                           01 
01050070003000007REP       United States Senator                                   Chris Mapp                            PRECINCT 103                                           01 
01050070004000004REP       United States Senator                                   Chris Mapp                            PRECINCT 104                                           01 
01050070005000007REP       United States Senator                                   Chris Mapp                            PRECINCT 105                                           01 
01050070006000005REP       United States Senator                                   Chris Mapp                            PRECINCT 106                                           01 
01050070007000005REP       United States Senator                                   Chris Mapp                            PRECINCT 107                                           01 
01050070008000006REP       United States Senator                                   Chris Mapp                            PRECINCT 108                                           01 
01050070009000003REP       United States Senator                                   Chris Mapp                            PRECINCT 109                                           01 
01050070010000002REP       United States Senator                                   Chris Mapp                            PRECINCT 110                                           01 
01050070011000003REP       United States Senator                                   Chris Mapp                            PRECINCT 111                                           01 
01050070012000002REP       United States Senator                                   Chris Mapp                            PRECINCT 112                                           01 
01050070013000001REP       United States Senator                                   Chris Mapp                            PRECINCT 113                                           01 
01050070014000002REP       United States Senator                                   Chris Mapp                            PRECINCT 114                                           01 
01050070015000006REP       United States Senator                                   Chris Mapp                            PRECINCT 115                                           01 
01050070016000007REP       United States Senator                                   Chris Mapp                            PRECINCT 116                                           01 
01050070017000002REP       United States Senator                                   Chris Mapp                            PRECINCT 117                                           01 
01050070018000004REP       United States Senator                                   Chris Mapp                            PRECINCT 118                                           01 
01050070019000001REP       United States Senator                                   Chris Mapp                            PRECINCT 119                                           01 
01050070020000000REP       United States Senator                                   Chris Mapp                            PRECINCT 120                                           01 
01050070021000001REP       United States Senator                                   Chris Mapp                            PRECINCT 121                                           01 
01050070022000002REP       United States Senator                                   Chris Mapp                            PRECINCT 122                                           01 
01050070023000002REP       United States Senator                                   Chris Mapp                            PRECINCT 123                                           01 
01050070024000000REP       United States Senator                                   Chris Mapp                            PRECINCT 124                                           01 
01050070025000003REP       United States Senator                                   Chris Mapp                            PRECINCT 125                                           01 
01050070026000000REP       United States Senator                                   Chris Mapp                            PRECINCT 126                                           01 
01050070027000002REP       United States Senator                                   Chris Mapp                            PRECINCT 127                                           01 
01050070028000000REP       United States Senator                                   Chris Mapp                            PRECINCT 128                                           01 
01050070029000002REP       United States Senator                                   Chris Mapp                            PRECINCT 129                                           01 
01050070030000001REP       United States Senator                                   Chris Mapp                            PRECINCT 130                                           01 
01050070031000004REP       United States Senator                                   Chris Mapp                            PRECINCT 131                                           01 
01050070032000000REP       United States Senator                                   Chris Mapp                            PRECINCT 132                                           01 
01050070033000001REP       United States Senator                                   Chris Mapp                            PRECINCT 133                                           01 
01050070034000000REP       United States Senator                                   Chris Mapp                            PRECINCT 134                                           01 
01050070035000009REP       United States Senator                                   Chris Mapp                            PRECINCT 135                                           01 
01050070036000001REP       United States Senator                                   Chris Mapp                            PRECINCT 136                                           01 
01050070037000001REP       United States Senator                                   Chris Mapp                            PRECINCT 137                                           01 
01050070038000001REP       United States Senator                                   Chris Mapp                            PRECINCT 138                                           01 
01050070039000002REP       United States Senator                                   Chris Mapp                            PRECINCT 139                                           01 
01050070040000004REP       United States Senator                                   Chris Mapp                            PRECINCT 140                                           01 
01050070041000005REP       United States Senator                                   Chris Mapp                            PRECINCT 141                                           01 
01050070042000003REP       United States Senator                                   Chris Mapp                            PRECINCT 142                                           01 
01050070043000009REP       United States Senator                                   Chris Mapp                            PRECINCT 143                                           01 
01050070044000001REP       United States Senator                                   Chris Mapp                            PRECINCT 144                                           01 
01050070045000001REP       United States Senator                                   Chris Mapp                            PRECINCT 145                                           01 
01050070046000007REP       United States Senator                                   Chris Mapp                            PRECINCT 146                                           01 
01050070047000005REP       United States Senator                                   Chris Mapp                            PRECINCT 147                                           01 
01050070048000003REP       United States Senator                                   Chris Mapp                            PRECINCT 148                                           01 
01050070049000000REP       United States Senator                                   Chris Mapp                            PRECINCT 149                                           01 
01050080001000004REP       United States Senator                                   Curt Cleaver                          PRECINCT 101                                           01 
01050080002000004REP       United States Senator                                   Curt Cleaver                          PRECINCT 102                                           01 
01050080003000003REP       United States Senator                                   Curt Cleaver                          PRECINCT 103                                           01 
01050080004000002REP       United States Senator                                   Curt Cleaver                          PRECINCT 104                                           01 
01050080005000003REP       United States Senator                                   Curt Cleaver                          PRECINCT 105                                           01 
01050080006000004REP       United States Senator                                   Curt Cleaver                          PRECINCT 106                                           01 
01050080007000009REP       United States Senator                                   Curt Cleaver                          PRECINCT 107                                           01 
01050080008000007REP       United States Senator                                   Curt Cleaver                          PRECINCT 108                                           01 
01050080009000003REP       United States Senator                                   Curt Cleaver                          PRECINCT 109                                           01 
01050080010000004REP       United States Senator                                   Curt Cleaver                          PRECINCT 110                                           01 
01050080011000001REP       United States Senator                                   Curt Cleaver                          PRECINCT 111                                           01 
01050080012000003REP       United States Senator                                   Curt Cleaver                          PRECINCT 112                                           01 
01050080013000000REP       United States Senator                                   Curt Cleaver                          PRECINCT 113                                           01 
01050080014000001REP       United States Senator                                   Curt Cleaver                          PRECINCT 114                                           01 
01050080015000000REP       United States Senator                                   Curt Cleaver                          PRECINCT 115                                           01 
01050080016000008REP       United States Senator                                   Curt Cleaver                          PRECINCT 116                                           01 
01050080017000007REP       United States Senator                                   Curt Cleaver                          PRECINCT 117                                           01 
01050080018000005REP       United States Senator                                   Curt Cleaver                          PRECINCT 118                                           01 
01050080019000002REP       United States Senator                                   Curt Cleaver                          PRECINCT 119                                           01 
01050080020000001REP       United States Senator                                   Curt Cleaver                          PRECINCT 120                                           01 
01050080021000004REP       United States Senator                                   Curt Cleaver                          PRECINCT 121                                           01 
01050080022000002REP       United States Senator                                   Curt Cleaver                          PRECINCT 122                                           01 
01050080023000000REP       United States Senator                                   Curt Cleaver                          PRECINCT 123                                           01 
01050080024000001REP       United States Senator                                   Curt Cleaver                          PRECINCT 124                                           01 
01050080025000001REP       United States Senator                                   Curt Cleaver                          PRECINCT 125                                           01 
01050080026000000REP       United States Senator                                   Curt Cleaver                          PRECINCT 126                                           01 
01050080027000002REP       United States Senator                                   Curt Cleaver                          PRECINCT 127                                           01 
01050080028000000REP       United States Senator                                   Curt Cleaver                          PRECINCT 128                                           01 
01050080029000003REP       United States Senator                                   Curt Cleaver                          PRECINCT 129                                           01 
01050080030000001REP       United States Senator                                   Curt Cleaver                          PRECINCT 130                                           01 
01050080031000005REP       United States Senator                                   Curt Cleaver                          PRECINCT 131                                           01 
01050080032000001REP       United States Senator                                   Curt Cleaver                          PRECINCT 132                                           01 
01050080033000004REP       United States Senator                                   Curt Cleaver                          PRECINCT 133                                           01 
01050080034000003REP       United States Senator                                   Curt Cleaver                          PRECINCT 134                                           01 
01050080035000012REP       United States Senator                                   Curt Cleaver                          PRECINCT 135                                           01 
01050080036000001REP       United States Senator                                   Curt Cleaver                          PRECINCT 136                                           01 
01050080037000001REP       United States Senator                                   Curt Cleaver                          PRECINCT 137                                           01 
01050080038000004REP       United States Senator                                   Curt Cleaver                          PRECINCT 138                                           01 
01050080039000001REP       United States Senator                                   Curt Cleaver                          PRECINCT 139                                           01 
01050080040000008REP       United States Senator                                   Curt Cleaver                          PRECINCT 140                                           01 
01050080041000003REP       United States Senator                                   Curt Cleaver                          PRECINCT 141                                           01 
01050080042000002REP       United States Senator                                   Curt Cleaver                          PRECINCT 142                                           01 
01050080043000006REP       United States Senator                                   Curt Cleaver                          PRECINCT 143                                           01 
01050080044000006REP       United States Senator                                   Curt Cleaver                          PRECINCT 144                                           01 
01050080045000001REP       United States Senator                                   Curt Cleaver                          PRECINCT 145                                           01 
01050080046000004REP       United States Senator                                   Curt Cleaver                          PRECINCT 146                                           01 
01050080047000010REP       United States Senator                                   Curt Cleaver                          PRECINCT 147                                           01 
01050080048000003REP       United States Senator                                   Curt Cleaver                          PRECINCT 148                                           01 
01050080049000004REP       United States Senator                                   Curt Cleaver                          PRECINCT 149                                           01 
01060010001000238REP       United States Representative, District 6                Joe Barton                            PRECINCT 101                                           01 
01060010002000328REP       United States Representative, District 6                Joe Barton                            PRECINCT 102                                           01 
01060010003000257REP       United States Representative, District 6                Joe Barton                            PRECINCT 103                                           01 
01060010004000244REP       United States Representative, District 6                Joe Barton                            PRECINCT 104                                           01 
01060010005000401REP       United States Representative, District 6                Joe Barton                            PRECINCT 105                                           01 
01060010006000338REP       United States Representative, District 6                Joe Barton                            PRECINCT 106                                           01 
01060010007000285REP       United States Representative, District 6                Joe Barton                            PRECINCT 107                                           01 
01060010008000293REP       United States Representative, District 6                Joe Barton                            PRECINCT 108                                           01 
01060010009000297REP       United States Representative, District 6                Joe Barton                            PRECINCT 109                                           01 
01060010010000292REP       United States Representative, District 6                Joe Barton                            PRECINCT 110                                           01 
01060010011000219REP       United States Representative, District 6                Joe Barton                            PRECINCT 111                                           01 
01060010012000174REP       United States Representative, District 6                Joe Barton                            PRECINCT 112                                           01 
01060010013000016REP       United States Representative, District 6                Joe Barton                            PRECINCT 113                                           01 
01060010014000137REP       United States Representative, District 6                Joe Barton                            PRECINCT 114                                           01 
01060010015000122REP       United States Representative, District 6                Joe Barton                            PRECINCT 115                                           01 
01060010016000231REP       United States Representative, District 6                Joe Barton                            PRECINCT 116                                           01 
01060010017000291REP       United States Representative, District 6                Joe Barton                            PRECINCT 117                                           01 
01060010018000367REP       United States Representative, District 6                Joe Barton                            PRECINCT 118                                           01 
01060010019000183REP       United States Representative, District 6                Joe Barton                            PRECINCT 119                                           01 
01060010020000053REP       United States Representative, District 6                Joe Barton                            PRECINCT 120                                           01 
01060010021000261REP       United States Representative, District 6                Joe Barton                            PRECINCT 121                                           01 
01060010022000149REP       United States Representative, District 6                Joe Barton                            PRECINCT 122                                           01 
01060010023000008REP       United States Representative, District 6                Joe Barton                            PRECINCT 123                                           01 
01060010024000042REP       United States Representative, District 6                Joe Barton                            PRECINCT 124                                           01 
01060010025000327REP       United States Representative, District 6                Joe Barton                            PRECINCT 125                                           01 
01060010026000069REP       United States Representative, District 6                Joe Barton                            PRECINCT 126                                           01 
01060010027000044REP       United States Representative, District 6                Joe Barton                            PRECINCT 127                                           01 
01060010028000002REP       United States Representative, District 6                Joe Barton                            PRECINCT 128                                           01 
01060010029000079REP       United States Representative, District 6                Joe Barton                            PRECINCT 129                                           01 
01060010030000053REP       United States Representative, District 6                Joe Barton                            PRECINCT 130                                           01 
01060010031000152REP       United States Representative, District 6                Joe Barton                            PRECINCT 131                                           01 
01060010032000064REP       United States Representative, District 6                Joe Barton                            PRECINCT 132                                           01 
01060010033000042REP       United States Representative, District 6                Joe Barton                            PRECINCT 133                                           01 
01060010034000074REP       United States Representative, District 6                Joe Barton                            PRECINCT 134                                           01 
01060010035000389REP       United States Representative, District 6                Joe Barton                            PRECINCT 135                                           01 
01060010036000053REP       United States Representative, District 6                Joe Barton                            PRECINCT 136                                           01 
01060010037000147REP       United States Representative, District 6                Joe Barton                            PRECINCT 137                                           01 
01060010038000112REP       United States Representative, District 6                Joe Barton                            PRECINCT 138                                           01 
01060010039000183REP       United States Representative, District 6                Joe Barton                            PRECINCT 139                                           01 
01060010040000357REP       United States Representative, District 6                Joe Barton                            PRECINCT 140                                           01 
01060010041000188REP       United States Representative, District 6                Joe Barton                            PRECINCT 141                                           01 
01060010042000192REP       United States Representative, District 6                Joe Barton                            PRECINCT 142                                           01 
01060010043000294REP       United States Representative, District 6                Joe Barton                            PRECINCT 143                                           01 
01060010044000111REP       United States Representative, District 6                Joe Barton                            PRECINCT 144                                           01 
01060010045000172REP       United States Representative, District 6                Joe Barton                            PRECINCT 145                                           01 
01060010046000173REP       United States Representative, District 6                Joe Barton                            PRECINCT 146                                           01 
01060010047000301REP       United States Representative, District 6                Joe Barton                            PRECINCT 147                                           01 
01060010048000144REP       United States Representative, District 6                Joe Barton                            PRECINCT 148                                           01 
01060010049000083REP       United States Representative, District 6                Joe Barton                            PRECINCT 149                                           01 
01060020001000128REP       United States Representative, District 6                Frank C. Kuchar                       PRECINCT 101                                           01 
01060020002000117REP       United States Representative, District 6                Frank C. Kuchar                       PRECINCT 102                                           01 
01060020003000118REP       United States Representative, District 6                Frank C. Kuchar                       PRECINCT 103                                           01 
01060020004000115REP       United States Representative, District 6                Frank C. Kuchar                       PRECINCT 104                                           01 
01060020005000169REP       United States Representative, District 6                Frank C. Kuchar                       PRECINCT 105                                           01 
01060020006000152REP       United States Representative, District 6                Frank C. Kuchar                       PRECINCT 106                                           01 
01060020007000189REP       United States Representative, District 6                Frank C. Kuchar                       PRECINCT 107                                           01 
01060020008000120REP       United States Representative, District 6                Frank C. Kuchar                       PRECINCT 108                                           01 
01060020009000112REP       United States Representative, District 6                Frank C. Kuchar                       PRECINCT 109                                           01 
01060020010000166REP       United States Representative, District 6                Frank C. Kuchar                       PRECINCT 110                                           01 
01060020011000100REP       United States Representative, District 6                Frank C. Kuchar                       PRECINCT 111                                           01 
01060020012000121REP       United States Representative, District 6                Frank C. Kuchar                       PRECINCT 112                                           01 
01060020013000005REP       United States Representative, District 6                Frank C. Kuchar                       PRECINCT 113                                           01 
01060020014000073REP       United States Representative, District 6                Frank C. Kuchar                       PRECINCT 114                                           01 
01060020015000064REP       United States Representative, District 6                Frank C. Kuchar                       PRECINCT 115                                           01 
01060020016000101REP       United States Representative, District 6                Frank C. Kuchar                       PRECINCT 116                                           01 
01060020017000109REP       United States Representative, District 6                Frank C. Kuchar                       PRECINCT 117                                           01 
01060020018000164REP       United States Representative, District 6                Frank C. Kuchar                       PRECINCT 118                                           01 
01060020019000063REP       United States Representative, District 6                Frank C. Kuchar                       PRECINCT 119                                           01 
01060020020000035REP       United States Representative, District 6                Frank C. Kuchar                       PRECINCT 120                                           01 
01060020021000138REP       United States Representative, District 6                Frank C. Kuchar                       PRECINCT 121                                           01 
01060020022000088REP       United States Representative, District 6                Frank C. Kuchar                       PRECINCT 122                                           01 
01060020023000003REP       United States Representative, District 6                Frank C. Kuchar                       PRECINCT 123                                           01 
01060020024000016REP       United States Representative, District 6                Frank C. Kuchar                       PRECINCT 124                                           01 
01060020025000181REP       United States Representative, District 6                Frank C. Kuchar                       PRECINCT 125                                           01 
01060020026000032REP       United States Representative, District 6                Frank C. Kuchar                       PRECINCT 126                                           01 
01060020027000026REP       United States Representative, District 6                Frank C. Kuchar                       PRECINCT 127                                           01 
01060020028000006REP       United States Representative, District 6                Frank C. Kuchar                       PRECINCT 128                                           01 
01060020029000043REP       United States Representative, District 6                Frank C. Kuchar                       PRECINCT 129                                           01 
01060020030000013REP       United States Representative, District 6                Frank C. Kuchar                       PRECINCT 130                                           01 
01060020031000085REP       United States Representative, District 6                Frank C. Kuchar                       PRECINCT 131                                           01 
01060020032000032REP       United States Representative, District 6                Frank C. Kuchar                       PRECINCT 132                                           01 
01060020033000028REP       United States Representative, District 6                Frank C. Kuchar                       PRECINCT 133                                           01 
01060020034000047REP       United States Representative, District 6                Frank C. Kuchar                       PRECINCT 134                                           01 
01060020035000167REP       United States Representative, District 6                Frank C. Kuchar                       PRECINCT 135                                           01 
01060020036000035REP       United States Representative, District 6                Frank C. Kuchar                       PRECINCT 136                                           01 
01060020037000057REP       United States Representative, District 6                Frank C. Kuchar                       PRECINCT 137                                           01 
01060020038000076REP       United States Representative, District 6                Frank C. Kuchar                       PRECINCT 138                                           01 
01060020039000070REP       United States Representative, District 6                Frank C. Kuchar                       PRECINCT 139                                           01 
01060020040000153REP       United States Representative, District 6                Frank C. Kuchar                       PRECINCT 140                                           01 
01060020041000095REP       United States Representative, District 6                Frank C. Kuchar                       PRECINCT 141                                           01 
01060020042000090REP       United States Representative, District 6                Frank C. Kuchar                       PRECINCT 142                                           01 
01060020043000146REP       United States Representative, District 6                Frank C. Kuchar                       PRECINCT 143                                           01 
01060020044000036REP       United States Representative, District 6                Frank C. Kuchar                       PRECINCT 144                                           01 
01060020045000095REP       United States Representative, District 6                Frank C. Kuchar                       PRECINCT 145                                           01 
01060020046000089REP       United States Representative, District 6                Frank C. Kuchar                       PRECINCT 146                                           01 
01060020047000136REP       United States Representative, District 6                Frank C. Kuchar                       PRECINCT 147                                           01 
01060020048000058REP       United States Representative, District 6                Frank C. Kuchar                       PRECINCT 148                                           01 
01060020049000039REP       United States Representative, District 6                Frank C. Kuchar                       PRECINCT 149                                           01 
01070010001000019REP       Governor                                                Lisa Fritsch                          PRECINCT 101                                           01 
01070010002000025REP       Governor                                                Lisa Fritsch                          PRECINCT 102                                           01 
01070010003000018REP       Governor                                                Lisa Fritsch                          PRECINCT 103                                           01 
01070010004000018REP       Governor                                                Lisa Fritsch                          PRECINCT 104                                           01 
01070010005000025REP       Governor                                                Lisa Fritsch                          PRECINCT 105                                           01 
01070010006000016REP       Governor                                                Lisa Fritsch                          PRECINCT 106                                           01 
01070010007000014REP       Governor                                                Lisa Fritsch                          PRECINCT 107                                           01 
01070010008000018REP       Governor                                                Lisa Fritsch                          PRECINCT 108                                           01 
01070010009000018REP       Governor                                                Lisa Fritsch                          PRECINCT 109                                           01 
01070010010000026REP       Governor                                                Lisa Fritsch                          PRECINCT 110                                           01 
01070010011000015REP       Governor                                                Lisa Fritsch                          PRECINCT 111                                           01 
01070010012000017REP       Governor                                                Lisa Fritsch                          PRECINCT 112                                           01 
01070010013000002REP       Governor                                                Lisa Fritsch                          PRECINCT 113                                           01 
