01150013017000307NONCTYFAIRCity of Fair Oaks Ranch Bond Election                   For                                                                                          01Y
01150013034000758NONCTYFAIRCity of Fair Oaks Ranch Bond Election                   For                                                                                          01Y
01150023017000159NONCTYFAIRCity of Fair Oaks Ranch Bond Election                   Against                                                                                      01Y
01150023034000401NONCTYFAIRCity of Fair Oaks Ranch Bond Election                   Against                                                                                      01Y
01150033017000000   CTYFAIRCity of Fair Oaks Ranch Bond Election                   OVER VOTES                                                                                   01Y
01150033034000000   CTYFAIRCity of Fair Oaks Ranch Bond Election                   OVER VOTES                                                                                   01Y
01150043017000019   CTYFAIRCity of Fair Oaks Ranch Bond Election                   UNDER VOTES                                                                                  01Y
01150043034000035   CTYFAIRCity of Fair Oaks Ranch Bond Election                   UNDER VOTES                                                                                  01Y
