01150013017000453NONCTYFAIRCity of Fair Oaks Ranch Bond Election                   For                                                                                          01Y
01150013034000987NONCTYFAIRCity of Fair Oaks Ranch Bond Election                   For                                                                                          01Y
01150023017000224NONCTYFAIRCity of Fair Oaks Ranch Bond Election                   Against                                                                                      01Y
01150023034000539NONCTYFAIRCity of Fair Oaks Ranch Bond Election                   Against                                                                                      01Y
01150033017000000   CTYFAIRCity of Fair Oaks Ranch Bond Election                   OVER VOTES                                                                                   01Y
01150033034000000   CTYFAIRCity of Fair Oaks Ranch Bond Election                   OVER VOTES                                                                                   01Y
01150043017000023   CTYFAIRCity of Fair Oaks Ranch Bond Election                   UNDER VOTES                                                                                  01Y
01150043034000049   CTYFAIRCity of Fair Oaks Ranch Bond Election                   UNDER VOTES                                                                                  01Y
