01010010001000864000000000000000000000000000000          REGISTERED VOTERS - TOTAL                               REGISTERED VOTERS - TOTAL             1 East La Grange                                       00 
01010010002002117000000000000000000000000000000          REGISTERED VOTERS - TOTAL                               REGISTERED VOTERS - TOTAL             1 North La Grange                                      00 
01010010003000726000000000000000000000000000000          REGISTERED VOTERS - TOTAL                               REGISTERED VOTERS - TOTAL             1 West La Grange                                       00 
01010010004000177000000000000000000000000000000          REGISTERED VOTERS - TOTAL                               REGISTERED VOTERS - TOTAL             2 Rutersville                                          00 
01010010005000359000000000000000000000000000000          REGISTERED VOTERS - TOTAL                               REGISTERED VOTERS - TOTAL             3 Ellinger                                             00 
01010010006000708000000000000000000000000000000          REGISTERED VOTERS - TOTAL                               REGISTERED VOTERS - TOTAL             4 Fayetteville                                         00 
01010010007000233000000000000000000000000000000          REGISTERED VOTERS - TOTAL                               REGISTERED VOTERS - TOTAL             5 Willow Springs                                       00 
01010010008000448000000000000000000000000000000          REGISTERED VOTERS - TOTAL                               REGISTERED VOTERS - TOTAL             6 Warrenton                                            00 
01010010009000504000000000000000000000000000000          REGISTERED VOTERS - TOTAL                               REGISTERED VOTERS - TOTAL             7 Round Top                                            00 
01010010010000383000000000000000000000000000000          REGISTERED VOTERS - TOTAL                               REGISTERED VOTERS - TOTAL             8 Carmine                                              00 
01010010011000247000000000000000000000000000000          REGISTERED VOTERS - TOTAL                               REGISTERED VOTERS - TOTAL             9 Nechanitz                                            00 
01010010012000548000000000000000000000000000000          REGISTERED VOTERS - TOTAL                               REGISTERED VOTERS - TOTAL             10 Warda                                               00 
01010010013000395000000000000000000000000000000          REGISTERED VOTERS - TOTAL                               REGISTERED VOTERS - TOTAL             11 Winchester                                          00 
01010010014000393000000000000000000000000000000          REGISTERED VOTERS - TOTAL                               REGISTERED VOTERS - TOTAL             12 Plum                                                00 
01010010015000612000000000000000000000000000000          REGISTERED VOTERS - TOTAL                               REGISTERED VOTERS - TOTAL             13 West Point                                          00 
01010010016000196000000000000000000000000000000          REGISTERED VOTERS - TOTAL                               REGISTERED VOTERS - TOTAL             14 Muldoon                                             00 
01010010017000324000000000000000000000000000000          REGISTERED VOTERS - TOTAL                               REGISTERED VOTERS - TOTAL             15 Cistern                                             00 
01010010018001415000000000000000000000000000000          REGISTERED VOTERS - TOTAL                               REGISTERED VOTERS - TOTAL             16 Flatonia                                            00 
01010010019000411000000000000000000000000000000          REGISTERED VOTERS - TOTAL                               REGISTERED VOTERS - TOTAL             17 Praha                                               00 
01010010020000675000000000000000000000000000000          REGISTERED VOTERS - TOTAL                               REGISTERED VOTERS - TOTAL             20 Hostyn                                              00 
01010010021000227000000000000000000000000000000          REGISTERED VOTERS - TOTAL                               REGISTERED VOTERS - TOTAL             21 Swiss Alp                                           00 
01010010022000165000000000000000000000000000000          REGISTERED VOTERS - TOTAL                               REGISTERED VOTERS - TOTAL             22 Ammannsville                                        00 
01010010023000218000000000000000000000000000000          REGISTERED VOTERS - TOTAL                               REGISTERED VOTERS - TOTAL             23 Holman                                              00 
01010010024000244000000000000000000000000000000          REGISTERED VOTERS - TOTAL                               REGISTERED VOTERS - TOTAL             24 Dubina                                              00 
01010010025002493000000000000000000000000000000          REGISTERED VOTERS - TOTAL                               REGISTERED VOTERS - TOTAL             25 Schulenburg                                         00 
01010010026000513000000000000000000000000000000          REGISTERED VOTERS - TOTAL                               REGISTERED VOTERS - TOTAL             26 Mullins Prairie                                     00 
01020010001000253000158000095000000000000000000          BALLOTS CAST - TOTAL                                    BALLOTS CAST - TOTAL                  1 East La Grange                                       00 
01020010002000532000299000233000000000000000000          BALLOTS CAST - TOTAL                                    BALLOTS CAST - TOTAL                  1 North La Grange                                      00 
01020010003000212000125000087000000000000000000          BALLOTS CAST - TOTAL                                    BALLOTS CAST - TOTAL                  1 West La Grange                                       00 
01020010004000065000049000016000000000000000000          BALLOTS CAST - TOTAL                                    BALLOTS CAST - TOTAL                  2 Rutersville                                          00 
01020010005000115000083000032000000000000000000          BALLOTS CAST - TOTAL                                    BALLOTS CAST - TOTAL                  3 Ellinger                                             00 
01020010006000208000176000032000000000000000000          BALLOTS CAST - TOTAL                                    BALLOTS CAST - TOTAL                  4 Fayetteville                                         00 
01020010007000082000062000020000000000000000000          BALLOTS CAST - TOTAL                                    BALLOTS CAST - TOTAL                  5 Willow Springs                                       00 
01020010008000147000106000041000000000000000000          BALLOTS CAST - TOTAL                                    BALLOTS CAST - TOTAL                  6 Warrenton                                            00 
01020010009000176000138000038000000000000000000          BALLOTS CAST - TOTAL                                    BALLOTS CAST - TOTAL                  7 Round Top                                            00 
01020010010000105000091000014000000000000000000          BALLOTS CAST - TOTAL                                    BALLOTS CAST - TOTAL                  8 Carmine                                              00 
01020010011000086000068000018000000000000000000          BALLOTS CAST - TOTAL                                    BALLOTS CAST - TOTAL                  9 Nechanitz                                            00 
01020010012000165000099000066000000000000000000          BALLOTS CAST - TOTAL                                    BALLOTS CAST - TOTAL                  10 Warda                                               00 
01020010013000127000090000037000000000000000000          BALLOTS CAST - TOTAL                                    BALLOTS CAST - TOTAL                  11 Winchester                                          00 
01020010014000101000065000036000000000000000000          BALLOTS CAST - TOTAL                                    BALLOTS CAST - TOTAL                  12 Plum                                                00 
01020010015000126000065000061000000000000000000          BALLOTS CAST - TOTAL                                    BALLOTS CAST - TOTAL                  13 West Point                                          00 
01020010016000083000047000036000000000000000000          BALLOTS CAST - TOTAL                                    BALLOTS CAST - TOTAL                  14 Muldoon                                             00 
01020010017000099000061000038000000000000000000          BALLOTS CAST - TOTAL                                    BALLOTS CAST - TOTAL                  15 Cistern                                             00 
01020010018000466000383000083000000000000000000          BALLOTS CAST - TOTAL                                    BALLOTS CAST - TOTAL                  16 Flatonia                                            00 
01020010019000155000132000023000000000000000000          BALLOTS CAST - TOTAL                                    BALLOTS CAST - TOTAL                  17 Praha                                               00 
01020010020000241000132000109000000000000000000          BALLOTS CAST - TOTAL                                    BALLOTS CAST - TOTAL                  20 Hostyn                                              00 
01020010021000087000049000038000000000000000000          BALLOTS CAST - TOTAL                                    BALLOTS CAST - TOTAL                  21 Swiss Alp                                           00 
01020010022000070000060000010000000000000000000          BALLOTS CAST - TOTAL                                    BALLOTS CAST - TOTAL                  22 Ammannsville                                        00 
01020010023000075000061000014000000000000000000          BALLOTS CAST - TOTAL                                    BALLOTS CAST - TOTAL                  23 Holman                                              00 
01020010024000100000087000013000000000000000000          BALLOTS CAST - TOTAL                                    BALLOTS CAST - TOTAL                  24 Dubina                                              00 
01020010025000581000477000104000000000000000000          BALLOTS CAST - TOTAL                                    BALLOTS CAST - TOTAL                  25 Schulenburg                                         00 
01020010026000163000087000076000000000000000000          BALLOTS CAST - TOTAL                                    BALLOTS CAST - TOTAL                  26 Mullins Prairie                                     00 
01030010001000237000149000088000000000000000000REP       BALLOTS CAST - REPUBLICAN PARTY                         BALLOTS CAST - REPUBLICAN PARTY       1 East La Grange                                       00 
01030010002000475000267000208000000000000000000REP       BALLOTS CAST - REPUBLICAN PARTY                         BALLOTS CAST - REPUBLICAN PARTY       1 North La Grange                                      00 
01030010003000196000115000081000000000000000000REP       BALLOTS CAST - REPUBLICAN PARTY                         BALLOTS CAST - REPUBLICAN PARTY       1 West La Grange                                       00 
01030010004000060000044000016000000000000000000REP       BALLOTS CAST - REPUBLICAN PARTY                         BALLOTS CAST - REPUBLICAN PARTY       2 Rutersville                                          00 
01030010005000103000073000030000000000000000000REP       BALLOTS CAST - REPUBLICAN PARTY                         BALLOTS CAST - REPUBLICAN PARTY       3 Ellinger                                             00 
01030010006000189000158000031000000000000000000REP       BALLOTS CAST - REPUBLICAN PARTY                         BALLOTS CAST - REPUBLICAN PARTY       4 Fayetteville                                         00 
01030010007000074000056000018000000000000000000REP       BALLOTS CAST - REPUBLICAN PARTY                         BALLOTS CAST - REPUBLICAN PARTY       5 Willow Springs                                       00 
01030010008000132000095000037000000000000000000REP       BALLOTS CAST - REPUBLICAN PARTY                         BALLOTS CAST - REPUBLICAN PARTY       6 Warrenton                                            00 
01030010009000168000134000034000000000000000000REP       BALLOTS CAST - REPUBLICAN PARTY                         BALLOTS CAST - REPUBLICAN PARTY       7 Round Top                                            00 
01030010010000098000085000013000000000000000000REP       BALLOTS CAST - REPUBLICAN PARTY                         BALLOTS CAST - REPUBLICAN PARTY       8 Carmine                                              00 
01030010011000080000063000017000000000000000000REP       BALLOTS CAST - REPUBLICAN PARTY                         BALLOTS CAST - REPUBLICAN PARTY       9 Nechanitz                                            00 
01030010012000155000094000061000000000000000000REP       BALLOTS CAST - REPUBLICAN PARTY                         BALLOTS CAST - REPUBLICAN PARTY       10 Warda                                               00 
01030010013000111000077000034000000000000000000REP       BALLOTS CAST - REPUBLICAN PARTY                         BALLOTS CAST - REPUBLICAN PARTY       11 Winchester                                          00 
01030010014000081000052000029000000000000000000REP       BALLOTS CAST - REPUBLICAN PARTY                         BALLOTS CAST - REPUBLICAN PARTY       12 Plum                                                00 
01030010015000113000059000054000000000000000000REP       BALLOTS CAST - REPUBLICAN PARTY                         BALLOTS CAST - REPUBLICAN PARTY       13 West Point                                          00 
01030010016000082000047000035000000000000000000REP       BALLOTS CAST - REPUBLICAN PARTY                         BALLOTS CAST - REPUBLICAN PARTY       14 Muldoon                                             00 
01030010017000089000053000036000000000000000000REP       BALLOTS CAST - REPUBLICAN PARTY                         BALLOTS CAST - REPUBLICAN PARTY       15 Cistern                                             00 
01030010018000445000364000081000000000000000000REP       BALLOTS CAST - REPUBLICAN PARTY                         BALLOTS CAST - REPUBLICAN PARTY       16 Flatonia                                            00 
01030010019000151000128000023000000000000000000REP       BALLOTS CAST - REPUBLICAN PARTY                         BALLOTS CAST - REPUBLICAN PARTY       17 Praha                                               00 
01030010020000226000122000104000000000000000000REP       BALLOTS CAST - REPUBLICAN PARTY                         BALLOTS CAST - REPUBLICAN PARTY       20 Hostyn                                              00 
01030010021000081000043000038000000000000000000REP       BALLOTS CAST - REPUBLICAN PARTY                         BALLOTS CAST - REPUBLICAN PARTY       21 Swiss Alp                                           00 
01030010022000067000057000010000000000000000000REP       BALLOTS CAST - REPUBLICAN PARTY                         BALLOTS CAST - REPUBLICAN PARTY       22 Ammannsville                                        00 
01030010023000063000051000012000000000000000000REP       BALLOTS CAST - REPUBLICAN PARTY                         BALLOTS CAST - REPUBLICAN PARTY       23 Holman                                              00 
01030010024000093000080000013000000000000000000REP       BALLOTS CAST - REPUBLICAN PARTY                         BALLOTS CAST - REPUBLICAN PARTY       24 Dubina                                              00 
01030010025000535000439000096000000000000000000REP       BALLOTS CAST - REPUBLICAN PARTY                         BALLOTS CAST - REPUBLICAN PARTY       25 Schulenburg                                         00 
01030010026000152000084000068000000000000000000REP       BALLOTS CAST - REPUBLICAN PARTY                         BALLOTS CAST - REPUBLICAN PARTY       26 Mullins Prairie                                     00 
01040010001000016000009000007000000000000000000DEM       BALLOTS CAST - DEMOCRATIC PARTY                         BALLOTS CAST - DEMOCRATIC PARTY       1 East La Grange                                       00 
01040010002000057000032000025000000000000000000DEM       BALLOTS CAST - DEMOCRATIC PARTY                         BALLOTS CAST - DEMOCRATIC PARTY       1 North La Grange                                      00 
01040010003000016000010000006000000000000000000DEM       BALLOTS CAST - DEMOCRATIC PARTY                         BALLOTS CAST - DEMOCRATIC PARTY       1 West La Grange                                       00 
01040010004000005000005000000000000000000000000DEM       BALLOTS CAST - DEMOCRATIC PARTY                         BALLOTS CAST - DEMOCRATIC PARTY       2 Rutersville                                          00 
01040010005000012000010000002000000000000000000DEM       BALLOTS CAST - DEMOCRATIC PARTY                         BALLOTS CAST - DEMOCRATIC PARTY       3 Ellinger                                             00 
01040010006000019000018000001000000000000000000DEM       BALLOTS CAST - DEMOCRATIC PARTY                         BALLOTS CAST - DEMOCRATIC PARTY       4 Fayetteville                                         00 
01040010007000008000006000002000000000000000000DEM       BALLOTS CAST - DEMOCRATIC PARTY                         BALLOTS CAST - DEMOCRATIC PARTY       5 Willow Springs                                       00 
01040010008000015000011000004000000000000000000DEM       BALLOTS CAST - DEMOCRATIC PARTY                         BALLOTS CAST - DEMOCRATIC PARTY       6 Warrenton                                            00 
01040010009000008000004000004000000000000000000DEM       BALLOTS CAST - DEMOCRATIC PARTY                         BALLOTS CAST - DEMOCRATIC PARTY       7 Round Top                                            00 
01040010010000007000006000001000000000000000000DEM       BALLOTS CAST - DEMOCRATIC PARTY                         BALLOTS CAST - DEMOCRATIC PARTY       8 Carmine                                              00 
01040010011000006000005000001000000000000000000DEM       BALLOTS CAST - DEMOCRATIC PARTY                         BALLOTS CAST - DEMOCRATIC PARTY       9 Nechanitz                                            00 
01040010012000010000005000005000000000000000000DEM       BALLOTS CAST - DEMOCRATIC PARTY                         BALLOTS CAST - DEMOCRATIC PARTY       10 Warda                                               00 
01040010013000016000013000003000000000000000000DEM       BALLOTS CAST - DEMOCRATIC PARTY                         BALLOTS CAST - DEMOCRATIC PARTY       11 Winchester                                          00 
01040010014000020000013000007000000000000000000DEM       BALLOTS CAST - DEMOCRATIC PARTY                         BALLOTS CAST - DEMOCRATIC PARTY       12 Plum                                                00 
01040010015000013000006000007000000000000000000DEM       BALLOTS CAST - DEMOCRATIC PARTY                         BALLOTS CAST - DEMOCRATIC PARTY       13 West Point                                          00 
01040010016000001000000000001000000000000000000DEM       BALLOTS CAST - DEMOCRATIC PARTY                         BALLOTS CAST - DEMOCRATIC PARTY       14 Muldoon                                             00 
01040010017000010000008000002000000000000000000DEM       BALLOTS CAST - DEMOCRATIC PARTY                         BALLOTS CAST - DEMOCRATIC PARTY       15 Cistern                                             00 
01040010018000021000019000002000000000000000000DEM       BALLOTS CAST - DEMOCRATIC PARTY                         BALLOTS CAST - DEMOCRATIC PARTY       16 Flatonia                                            00 
01040010019000004000004000000000000000000000000DEM       BALLOTS CAST - DEMOCRATIC PARTY                         BALLOTS CAST - DEMOCRATIC PARTY       17 Praha                                               00 
01040010020000015000010000005000000000000000000DEM       BALLOTS CAST - DEMOCRATIC PARTY                         BALLOTS CAST - DEMOCRATIC PARTY       20 Hostyn                                              00 
01040010021000006000006000000000000000000000000DEM       BALLOTS CAST - DEMOCRATIC PARTY                         BALLOTS CAST - DEMOCRATIC PARTY       21 Swiss Alp                                           00 
01040010022000003000003000000000000000000000000DEM       BALLOTS CAST - DEMOCRATIC PARTY                         BALLOTS CAST - DEMOCRATIC PARTY       22 Ammannsville                                        00 
01040010023000012000010000002000000000000000000DEM       BALLOTS CAST - DEMOCRATIC PARTY                         BALLOTS CAST - DEMOCRATIC PARTY       23 Holman                                              00 
01040010024000007000007000000000000000000000000DEM       BALLOTS CAST - DEMOCRATIC PARTY                         BALLOTS CAST - DEMOCRATIC PARTY       24 Dubina                                              00 
01040010025000046000038000008000000000000000000DEM       BALLOTS CAST - DEMOCRATIC PARTY                         BALLOTS CAST - DEMOCRATIC PARTY       25 Schulenburg                                         00 
01040010026000011000003000008000000000000000000DEM       BALLOTS CAST - DEMOCRATIC PARTY                         BALLOTS CAST - DEMOCRATIC PARTY       26 Mullins Prairie                                     00 
01050010001000016000008000008000000000000000000REP       United States Senator                                   Linda Vega                            1 East La Grange                                       01 
01050010002000021000015000006000000000000000000REP       United States Senator                                   Linda Vega                            1 North La Grange                                      01 
01050010003000010000007000003000000000000000000REP       United States Senator                                   Linda Vega                            1 West La Grange                                       01 
01050010004000004000003000001000000000000000000REP       United States Senator                                   Linda Vega                            2 Rutersville                                          01 
01050010005000002000000000002000000000000000000REP       United States Senator                                   Linda Vega                            3 Ellinger                                             01 
01050010006000008000006000002000000000000000000REP       United States Senator                                   Linda Vega                            4 Fayetteville                                         01 
01050010007000001000000000001000000000000000000REP       United States Senator                                   Linda Vega                            5 Willow Springs                                       01 
01050010008000004000004000000000000000000000000REP       United States Senator                                   Linda Vega                            6 Warrenton                                            01 
01050010009000002000002000000000000000000000000REP       United States Senator                                   Linda Vega                            7 Round Top                                            01 
01050010010000002000002000000000000000000000000REP       United States Senator                                   Linda Vega                            8 Carmine                                              01 
01050010011000003000002000001000000000000000000REP       United States Senator                                   Linda Vega                            9 Nechanitz                                            01 
01050010012000005000003000002000000000000000000REP       United States Senator                                   Linda Vega                            10 Warda                                               01 
01050010013000002000002000000000000000000000000REP       United States Senator                                   Linda Vega                            11 Winchester                                          01 
01050010014000002000001000001000000000000000000REP       United States Senator                                   Linda Vega                            12 Plum                                                01 
01050010015000006000005000001000000000000000000REP       United States Senator                                   Linda Vega                            13 West Point                                          01 
01050010016000001000001000000000000000000000000REP       United States Senator                                   Linda Vega                            14 Muldoon                                             01 
01050010017000003000003000000000000000000000000REP       United States Senator                                   Linda Vega                            15 Cistern                                             01 
01050010018000033000028000005000000000000000000REP       United States Senator                                   Linda Vega                            16 Flatonia                                            01 
01050010019000007000007000000000000000000000000REP       United States Senator                                   Linda Vega                            17 Praha                                               01 
01050010020000008000006000002000000000000000000REP       United States Senator                                   Linda Vega                            20 Hostyn                                              01 
01050010021000002000000000002000000000000000000REP       United States Senator                                   Linda Vega                            21 Swiss Alp                                           01 
01050010022000000000000000000000000000000000000REP       United States Senator                                   Linda Vega                            22 Ammannsville                                        01 
01050010023000001000000000001000000000000000000REP       United States Senator                                   Linda Vega                            23 Holman                                              01 
01050010024000004000004000000000000000000000000REP       United States Senator                                   Linda Vega                            24 Dubina                                              01 
01050010025000020000017000003000000000000000000REP       United States Senator                                   Linda Vega                            25 Schulenburg                                         01 
01050010026000004000004000000000000000000000000REP       United States Senator                                   Linda Vega                            26 Mullins Prairie                                     01 
01050020001000013000008000005000000000000000000REP       United States Senator                                   Dwayne Stovall                        1 East La Grange                                       01 
01050020002000021000012000009000000000000000000REP       United States Senator                                   Dwayne Stovall                        1 North La Grange                                      01 
01050020003000008000005000003000000000000000000REP       United States Senator                                   Dwayne Stovall                        1 West La Grange                                       01 
01050020004000003000001000002000000000000000000REP       United States Senator                                   Dwayne Stovall                        2 Rutersville                                          01 
01050020005000009000007000002000000000000000000REP       United States Senator                                   Dwayne Stovall                        3 Ellinger                                             01 
01050020006000010000010000000000000000000000000REP       United States Senator                                   Dwayne Stovall                        4 Fayetteville                                         01 
01050020007000003000003000000000000000000000000REP       United States Senator                                   Dwayne Stovall                        5 Willow Springs                                       01 
01050020008000009000005000004000000000000000000REP       United States Senator                                   Dwayne Stovall                        6 Warrenton                                            01 
01050020009000014000013000001000000000000000000REP       United States Senator                                   Dwayne Stovall                        7 Round Top                                            01 
01050020010000010000007000003000000000000000000REP       United States Senator                                   Dwayne Stovall                        8 Carmine                                              01 
01050020011000003000002000001000000000000000000REP       United States Senator                                   Dwayne Stovall                        9 Nechanitz                                            01 
01050020012000005000002000003000000000000000000REP       United States Senator                                   Dwayne Stovall                        10 Warda                                               01 
01050020013000009000008000001000000000000000000REP       United States Senator                                   Dwayne Stovall                        11 Winchester                                          01 
01050020014000006000004000002000000000000000000REP       United States Senator                                   Dwayne Stovall                        12 Plum                                                01 
01050020015000015000005000010000000000000000000REP       United States Senator                                   Dwayne Stovall                        13 West Point                                          01 
01050020016000003000000000003000000000000000000REP       United States Senator                                   Dwayne Stovall                        14 Muldoon                                             01 
01050020017000011000005000006000000000000000000REP       United States Senator                                   Dwayne Stovall                        15 Cistern                                             01 
01050020018000025000020000005000000000000000000REP       United States Senator                                   Dwayne Stovall                        16 Flatonia                                            01 
01050020019000006000006000000000000000000000000REP       United States Senator                                   Dwayne Stovall                        17 Praha                                               01 
01050020020000008000006000002000000000000000000REP       United States Senator                                   Dwayne Stovall                        20 Hostyn                                              01 
01050020021000004000002000002000000000000000000REP       United States Senator                                   Dwayne Stovall                        21 Swiss Alp                                           01 
01050020022000003000003000000000000000000000000REP       United States Senator                                   Dwayne Stovall                        22 Ammannsville                                        01 
01050020023000007000004000003000000000000000000REP       United States Senator                                   Dwayne Stovall                        23 Holman                                              01 
01050020024000006000006000000000000000000000000REP       United States Senator                                   Dwayne Stovall                        24 Dubina                                              01 
01050020025000037000025000012000000000000000000REP       United States Senator                                   Dwayne Stovall                        25 Schulenburg                                         01 
01050020026000012000001000011000000000000000000REP       United States Senator                                   Dwayne Stovall                        26 Mullins Prairie                                     01 
01050030001000003000001000002000000000000000000REP       United States Senator                                   Ken Cope                              1 East La Grange                                       01 
01050030002000002000002000000000000000000000000REP       United States Senator                                   Ken Cope                              1 North La Grange                                      01 
01050030003000007000004000003000000000000000000REP       United States Senator                                   Ken Cope                              1 West La Grange                                       01 
01050030004000003000003000000000000000000000000REP       United States Senator                                   Ken Cope                              2 Rutersville                                          01 
01050030005000001000001000000000000000000000000REP       United States Senator                                   Ken Cope                              3 Ellinger                                             01 
01050030006000001000001000000000000000000000000REP       United States Senator                                   Ken Cope                              4 Fayetteville                                         01 
01050030007000002000002000000000000000000000000REP       United States Senator                                   Ken Cope                              5 Willow Springs                                       01 
01050030008000001000001000000000000000000000000REP       United States Senator                                   Ken Cope                              6 Warrenton                                            01 
01050030009000000000000000000000000000000000000REP       United States Senator                                   Ken Cope                              7 Round Top                                            01 
01050030010000000000000000000000000000000000000REP       United States Senator                                   Ken Cope                              8 Carmine                                              01 
01050030011000000000000000000000000000000000000REP       United States Senator                                   Ken Cope                              9 Nechanitz                                            01 
01050030012000003000002000001000000000000000000REP       United States Senator                                   Ken Cope                              10 Warda                                               01 
01050030013000003000002000001000000000000000000REP       United States Senator                                   Ken Cope                              11 Winchester                                          01 
01050030014000002000001000001000000000000000000REP       United States Senator                                   Ken Cope                              12 Plum                                                01 
01050030015000002000001000001000000000000000000REP       United States Senator                                   Ken Cope                              13 West Point                                          01 
01050030016000001000000000001000000000000000000REP       United States Senator                                   Ken Cope                              14 Muldoon                                             01 
01050030017000001000001000000000000000000000000REP       United States Senator                                   Ken Cope                              15 Cistern                                             01 
01050030018000006000005000001000000000000000000REP       United States Senator                                   Ken Cope                              16 Flatonia                                            01 
01050030019000004000003000001000000000000000000REP       United States Senator                                   Ken Cope                              17 Praha                                               01 
01050030020000004000003000001000000000000000000REP       United States Senator                                   Ken Cope                              20 Hostyn                                              01 
01050030021000002000001000001000000000000000000REP       United States Senator                                   Ken Cope                              21 Swiss Alp                                           01 
01050030022000002000002000000000000000000000000REP       United States Senator                                   Ken Cope                              22 Ammannsville                                        01 
01050030023000000000000000000000000000000000000REP       United States Senator                                   Ken Cope                              23 Holman                                              01 
01050030024000001000001000000000000000000000000REP       United States Senator                                   Ken Cope                              24 Dubina                                              01 
01050030025000005000004000001000000000000000000REP       United States Senator                                   Ken Cope                              25 Schulenburg                                         01 
01050030026000004000003000001000000000000000000REP       United States Senator                                   Ken Cope                              26 Mullins Prairie                                     01 
01050040001000001000000000001000000000000000000REP       United States Senator                                   Reid Reasor                           1 East La Grange                                       01 
01050040002000007000004000003000000000000000000REP       United States Senator                                   Reid Reasor                           1 North La Grange                                      01 
01050040003000001000001000000000000000000000000REP       United States Senator                                   Reid Reasor                           1 West La Grange                                       01 
01050040004000001000001000000000000000000000000REP       United States Senator                                   Reid Reasor                           2 Rutersville                                          01 
01050040005000003000003000000000000000000000000REP       United States Senator                                   Reid Reasor                           3 Ellinger                                             01 
01050040006000004000002000002000000000000000000REP       United States Senator                                   Reid Reasor                           4 Fayetteville                                         01 
01050040007000001000001000000000000000000000000REP       United States Senator                                   Reid Reasor                           5 Willow Springs                                       01 
01050040008000001000001000000000000000000000000REP       United States Senator                                   Reid Reasor                           6 Warrenton                                            01 
01050040009000004000004000000000000000000000000REP       United States Senator                                   Reid Reasor                           7 Round Top                                            01 
01050040010000004000004000000000000000000000000REP       United States Senator                                   Reid Reasor                           8 Carmine                                              01 
01050040011000001000001000000000000000000000000REP       United States Senator                                   Reid Reasor                           9 Nechanitz                                            01 
01050040012000002000000000002000000000000000000REP       United States Senator                                   Reid Reasor                           10 Warda                                               01 
01050040013000000000000000000000000000000000000REP       United States Senator                                   Reid Reasor                           11 Winchester                                          01 
01050040014000002000002000000000000000000000000REP       United States Senator                                   Reid Reasor                           12 Plum                                                01 
01050040015000002000002000000000000000000000000REP       United States Senator                                   Reid Reasor                           13 West Point                                          01 
01050040016000002000001000001000000000000000000REP       United States Senator                                   Reid Reasor                           14 Muldoon                                             01 
01050040017000001000001000000000000000000000000REP       United States Senator                                   Reid Reasor                           15 Cistern                                             01 
01050040018000003000003000000000000000000000000REP       United States Senator                                   Reid Reasor                           16 Flatonia                                            01 
01050040019000000000000000000000000000000000000REP       United States Senator                                   Reid Reasor                           17 Praha                                               01 
01050040020000005000002000003000000000000000000REP       United States Senator                                   Reid Reasor                           20 Hostyn                                              01 
01050040021000002000001000001000000000000000000REP       United States Senator                                   Reid Reasor                           21 Swiss Alp                                           01 
01050040022000000000000000000000000000000000000REP       United States Senator                                   Reid Reasor                           22 Ammannsville                                        01 
01050040023000000000000000000000000000000000000REP       United States Senator                                   Reid Reasor                           23 Holman                                              01 
01050040024000001000001000000000000000000000000REP       United States Senator                                   Reid Reasor                           24 Dubina                                              01 
01050040025000002000002000000000000000000000000REP       United States Senator                                   Reid Reasor                           25 Schulenburg                                         01 
01050040026000000000000000000000000000000000000REP       United States Senator                                   Reid Reasor                           26 Mullins Prairie                                     01 
01050050001000049000027000022000000000000000000REP       United States Senator                                   Steve Stockman                        1 East La Grange                                       01 
01050050002000092000058000034000000000000000000REP       United States Senator                                   Steve Stockman                        1 North La Grange                                      01 
01050050003000032000014000018000000000000000000REP       United States Senator                                   Steve Stockman                        1 West La Grange                                       01 
01050050004000009000007000002000000000000000000REP       United States Senator                                   Steve Stockman                        2 Rutersville                                          01 
01050050005000019000016000003000000000000000000REP       United States Senator                                   Steve Stockman                        3 Ellinger                                             01 
01050050006000042000034000008000000000000000000REP       United States Senator                                   Steve Stockman                        4 Fayetteville                                         01 
01050050007000014000010000004000000000000000000REP       United States Senator                                   Steve Stockman                        5 Willow Springs                                       01 
01050050008000026000019000007000000000000000000REP       United States Senator                                   Steve Stockman                        6 Warrenton                                            01 
01050050009000024000015000009000000000000000000REP       United States Senator                                   Steve Stockman                        7 Round Top                                            01 
01050050010000015000013000002000000000000000000REP       United States Senator                                   Steve Stockman                        8 Carmine                                              01 
01050050011000017000012000005000000000000000000REP       United States Senator                                   Steve Stockman                        9 Nechanitz                                            01 
01050050012000027000017000010000000000000000000REP       United States Senator                                   Steve Stockman                        10 Warda                                               01 
01050050013000019000014000005000000000000000000REP       United States Senator                                   Steve Stockman                        11 Winchester                                          01 
01050050014000021000007000014000000000000000000REP       United States Senator                                   Steve Stockman                        12 Plum                                                01 
01050050015000023000014000009000000000000000000REP       United States Senator                                   Steve Stockman                        13 West Point                                          01 
01050050016000011000006000005000000000000000000REP       United States Senator                                   Steve Stockman                        14 Muldoon                                             01 
01050050017000019000013000006000000000000000000REP       United States Senator                                   Steve Stockman                        15 Cistern                                             01 
01050050018000081000065000016000000000000000000REP       United States Senator                                   Steve Stockman                        16 Flatonia                                            01 
01050050019000027000020000007000000000000000000REP       United States Senator                                   Steve Stockman                        17 Praha                                               01 
01050050020000034000015000019000000000000000000REP       United States Senator                                   Steve Stockman                        20 Hostyn                                              01 
01050050021000012000005000007000000000000000000REP       United States Senator                                   Steve Stockman                        21 Swiss Alp                                           01 
01050050022000007000006000001000000000000000000REP       United States Senator                                   Steve Stockman                        22 Ammannsville                                        01 
01050050023000009000008000001000000000000000000REP       United States Senator                                   Steve Stockman                        23 Holman                                              01 
01050050024000027000023000004000000000000000000REP       United States Senator                                   Steve Stockman                        24 Dubina                                              01 
01050050025000107000089000018000000000000000000REP       United States Senator                                   Steve Stockman                        25 Schulenburg                                         01 
01050050026000034000016000018000000000000000000REP       United States Senator                                   Steve Stockman                        26 Mullins Prairie                                     01 
01050060001000139000094000045000000000000000000REP       United States Senator                                   John Cornyn                           1 East La Grange                                       01 
01050060002000279000147000132000000000000000000REP       United States Senator                                   John Cornyn                           1 North La Grange                                      01 
01050060003000121000075000046000000000000000000REP       United States Senator                                   John Cornyn                           1 West La Grange                                       01 
01050060004000032000023000009000000000000000000REP       United States Senator                                   John Cornyn                           2 Rutersville                                          01 
01050060005000061000039000022000000000000000000REP       United States Senator                                   John Cornyn                           3 Ellinger                                             01 
01050060006000105000089000016000000000000000000REP       United States Senator                                   John Cornyn                           4 Fayetteville                                         01 
01050060007000045000033000012000000000000000000REP       United States Senator                                   John Cornyn                           5 Willow Springs                                       01 
01050060008000075000053000022000000000000000000REP       United States Senator                                   John Cornyn                           6 Warrenton                                            01 
01050060009000107000084000023000000000000000000REP       United States Senator                                   John Cornyn                           7 Round Top                                            01 
01050060010000060000053000007000000000000000000REP       United States Senator                                   John Cornyn                           8 Carmine                                              01 
01050060011000042000033000009000000000000000000REP       United States Senator                                   John Cornyn                           9 Nechanitz                                            01 
01050060012000097000058000039000000000000000000REP       United States Senator                                   John Cornyn                           10 Warda                                               01 
01050060013000065000041000024000000000000000000REP       United States Senator                                   John Cornyn                           11 Winchester                                          01 
01050060014000044000034000010000000000000000000REP       United States Senator                                   John Cornyn                           12 Plum                                                01 
01050060015000060000027000033000000000000000000REP       United States Senator                                   John Cornyn                           13 West Point                                          01 
01050060016000060000036000024000000000000000000REP       United States Senator                                   John Cornyn                           14 Muldoon                                             01 
01050060017000046000022000024000000000000000000REP       United States Senator                                   John Cornyn                           15 Cistern                                             01 
01050060018000240000190000050000000000000000000REP       United States Senator                                   John Cornyn                           16 Flatonia                                            01 
01050060019000089000076000013000000000000000000REP       United States Senator                                   John Cornyn                           17 Praha                                               01 
01050060020000136000076000060000000000000000000REP       United States Senator                                   John Cornyn                           20 Hostyn                                              01 
01050060021000051000031000020000000000000000000REP       United States Senator                                   John Cornyn                           21 Swiss Alp                                           01 
01050060022000046000037000009000000000000000000REP       United States Senator                                   John Cornyn                           22 Ammannsville                                        01 
01050060023000039000032000007000000000000000000REP       United States Senator                                   John Cornyn                           23 Holman                                              01 
01050060024000043000034000009000000000000000000REP       United States Senator                                   John Cornyn                           24 Dubina                                              01 
01050060025000325000268000057000000000000000000REP       United States Senator                                   John Cornyn                           25 Schulenburg                                         01 
01050060026000082000050000032000000000000000000REP       United States Senator                                   John Cornyn                           26 Mullins Prairie                                     01 
01050070001000001000001000000000000000000000000REP       United States Senator                                   Curt Cleaver                          1 East La Grange                                       01 
01050070002000003000003000000000000000000000000REP       United States Senator                                   Curt Cleaver                          1 North La Grange                                      01 
01050070003000000000000000000000000000000000000REP       United States Senator                                   Curt Cleaver                          1 West La Grange                                       01 
01050070004000000000000000000000000000000000000REP       United States Senator                                   Curt Cleaver                          2 Rutersville                                          01 
01050070005000000000000000000000000000000000000REP       United States Senator                                   Curt Cleaver                          3 Ellinger                                             01 
01050070006000002000002000000000000000000000000REP       United States Senator                                   Curt Cleaver                          4 Fayetteville                                         01 
01050070007000001000001000000000000000000000000REP       United States Senator                                   Curt Cleaver                          5 Willow Springs                                       01 
01050070008000001000001000000000000000000000000REP       United States Senator                                   Curt Cleaver                          6 Warrenton                                            01 
01050070009000000000000000000000000000000000000REP       United States Senator                                   Curt Cleaver                          7 Round Top                                            01 
01050070010000000000000000000000000000000000000REP       United States Senator                                   Curt Cleaver                          8 Carmine                                              01 
01050070011000000000000000000000000000000000000REP       United States Senator                                   Curt Cleaver                          9 Nechanitz                                            01 
01050070012000001000001000000000000000000000000REP       United States Senator                                   Curt Cleaver                          10 Warda                                               01 
01050070013000002000001000001000000000000000000REP       United States Senator                                   Curt Cleaver                          11 Winchester                                          01 
01050070014000000000000000000000000000000000000REP       United States Senator                                   Curt Cleaver                          12 Plum                                                01 
01050070015000000000000000000000000000000000000REP       United States Senator                                   Curt Cleaver                          13 West Point                                          01 
01050070016000000000000000000000000000000000000REP       United States Senator                                   Curt Cleaver                          14 Muldoon                                             01 
01050070017000001000001000000000000000000000000REP       United States Senator                                   Curt Cleaver                          15 Cistern                                             01 
01050070018000001000001000000000000000000000000REP       United States Senator                                   Curt Cleaver                          16 Flatonia                                            01 
01050070019000000000000000000000000000000000000REP       United States Senator                                   Curt Cleaver                          17 Praha                                               01 
01050070020000002000001000001000000000000000000REP       United States Senator                                   Curt Cleaver                          20 Hostyn                                              01 
01050070021000000000000000000000000000000000000REP       United States Senator                                   Curt Cleaver                          21 Swiss Alp                                           01 
01050070022000002000002000000000000000000000000REP       United States Senator                                   Curt Cleaver                          22 Ammannsville                                        01 
01050070023000000000000000000000000000000000000REP       United States Senator                                   Curt Cleaver                          23 Holman                                              01 
01050070024000000000000000000000000000000000000REP       United States Senator                                   Curt Cleaver                          24 Dubina                                              01 
01050070025000001000001000000000000000000000000REP       United States Senator                                   Curt Cleaver                          25 Schulenburg                                         01 
01050070026000000000000000000000000000000000000REP       United States Senator                                   Curt Cleaver                          26 Mullins Prairie                                     01 
01050080001000003000002000001000000000000000000REP       United States Senator                                   Chris Mapp                            1 East La Grange                                       01 
01050080002000007000004000003000000000000000000REP       United States Senator                                   Chris Mapp                            1 North La Grange                                      01 
01050080003000009000005000004000000000000000000REP       United States Senator                                   Chris Mapp                            1 West La Grange                                       01 
01050080004000003000003000000000000000000000000REP       United States Senator                                   Chris Mapp                            2 Rutersville                                          01 
01050080005000000000000000000000000000000000000REP       United States Senator                                   Chris Mapp                            3 Ellinger                                             01 
01050080006000004000003000001000000000000000000REP       United States Senator                                   Chris Mapp                            4 Fayetteville                                         01 
01050080007000002000002000000000000000000000000REP       United States Senator                                   Chris Mapp                            5 Willow Springs                                       01 
01050080008000005000004000001000000000000000000REP       United States Senator                                   Chris Mapp                            6 Warrenton                                            01 
01050080009000001000001000000000000000000000000REP       United States Senator                                   Chris Mapp                            7 Round Top                                            01 
01050080010000002000002000000000000000000000000REP       United States Senator                                   Chris Mapp                            8 Carmine                                              01 
01050080011000002000001000001000000000000000000REP       United States Senator                                   Chris Mapp                            9 Nechanitz                                            01 
01050080012000000000000000000000000000000000000REP       United States Senator                                   Chris Mapp                            10 Warda                                               01 
01050080013000001000001000000000000000000000000REP       United States Senator                                   Chris Mapp                            11 Winchester                                          01 
01050080014000001000001000000000000000000000000REP       United States Senator                                   Chris Mapp                            12 Plum                                                01 
01050080015000003000003000000000000000000000000REP       United States Senator                                   Chris Mapp                            13 West Point                                          01 
01050080016000000000000000000000000000000000000REP       United States Senator                                   Chris Mapp                            14 Muldoon                                             01 
01050080017000000000000000000000000000000000000REP       United States Senator                                   Chris Mapp                            15 Cistern                                             01 
01050080018000006000004000002000000000000000000REP       United States Senator                                   Chris Mapp                            16 Flatonia                                            01 
01050080019000003000002000001000000000000000000REP       United States Senator                                   Chris Mapp                            17 Praha                                               01 
01050080020000003000002000001000000000000000000REP       United States Senator                                   Chris Mapp                            20 Hostyn                                              01 
01050080021000001000000000001000000000000000000REP       United States Senator                                   Chris Mapp                            21 Swiss Alp                                           01 
01050080022000001000001000000000000000000000000REP       United States Senator                                   Chris Mapp                            22 Ammannsville                                        01 
01050080023000003000003000000000000000000000000REP       United States Senator                                   Chris Mapp                            23 Holman                                              01 
01050080024000003000003000000000000000000000000REP       United States Senator                                   Chris Mapp                            24 Dubina                                              01 
01050080025000009000006000003000000000000000000REP       United States Senator                                   Chris Mapp                            25 Schulenburg                                         01 
01050080026000001000001000000000000000000000000REP       United States Senator                                   Chris Mapp                            26 Mullins Prairie                                     01 
01060010001000149000093000056000000000000000000REP       United States Representative, Dist. 10                  Michael McCaul                        1 East La Grange                                       01 
01060010002000314000175000139000000000000000000REP       United States Representative, Dist. 10                  Michael McCaul                        1 North La Grange                                      01 
01060010003000136000086000050000000000000000000REP       United States Representative, Dist. 10                  Michael McCaul                        1 West La Grange                                       01 
01060010004000035000029000006000000000000000000REP       United States Representative, Dist. 10                  Michael McCaul                        2 Rutersville                                          01 
01060010005000068000042000026000000000000000000REP       United States Representative, Dist. 10                  Michael McCaul                        3 Ellinger                                             01 
01060010006000122000100000022000000000000000000REP       United States Representative, Dist. 10                  Michael McCaul                        4 Fayetteville                                         01 
01060010007000041000031000010000000000000000000REP       United States Representative, Dist. 10                  Michael McCaul                        5 Willow Springs                                       01 
01060010008000078000055000023000000000000000000REP       United States Representative, Dist. 10                  Michael McCaul                        6 Warrenton                                            01 
01060010009000113000089000024000000000000000000REP       United States Representative, Dist. 10                  Michael McCaul                        7 Round Top                                            01 
01060010010000065000055000010000000000000000000REP       United States Representative, Dist. 10                  Michael McCaul                        8 Carmine                                              01 
01060010011000039000029000010000000000000000000REP       United States Representative, Dist. 10                  Michael McCaul                        9 Nechanitz                                            01 
01060010012000100000056000044000000000000000000REP       United States Representative, Dist. 10                  Michael McCaul                        10 Warda                                               01 
01060010013000070000048000022000000000000000000REP       United States Representative, Dist. 10                  Michael McCaul                        11 Winchester                                          01 
01060010014000047000032000015000000000000000000REP       United States Representative, Dist. 10                  Michael McCaul                        12 Plum                                                01 
01060010015000067000032000035000000000000000000REP       United States Representative, Dist. 10                  Michael McCaul                        13 West Point                                          01 
01060010016000054000032000022000000000000000000REP       United States Representative, Dist. 10                  Michael McCaul                        14 Muldoon                                             01 
01060010017000050000021000029000000000000000000REP       United States Representative, Dist. 10                  Michael McCaul                        15 Cistern                                             01 
01060010018000254000193000061000000000000000000REP       United States Representative, Dist. 10                  Michael McCaul                        16 Flatonia                                            01 
01060010019000086000067000019000000000000000000REP       United States Representative, Dist. 10                  Michael McCaul                        17 Praha                                               01 
01060010020000137000082000055000000000000000000REP       United States Representative, Dist. 10                  Michael McCaul                        20 Hostyn                                              01 
01060010021000046000028000018000000000000000000REP       United States Representative, Dist. 10                  Michael McCaul                        21 Swiss Alp                                           01 
01060010022000039000034000005000000000000000000REP       United States Representative, Dist. 10                  Michael McCaul                        22 Ammannsville                                        01 
01060010023000038000033000005000000000000000000REP       United States Representative, Dist. 10                  Michael McCaul                        23 Holman                                              01 
01060010024000058000050000008000000000000000000REP       United States Representative, Dist. 10                  Michael McCaul                        24 Dubina                                              01 
01060010025000322000260000062000000000000000000REP       United States Representative, Dist. 10                  Michael McCaul                        25 Schulenburg                                         01 
01060010026000106000053000053000000000000000000REP       United States Representative, Dist. 10                  Michael McCaul                        26 Mullins Prairie                                     01 
01070010001000013000008000005000000000000000000REP       Governor                                                Lisa Fritsch                          1 East La Grange                                       01 
01070010002000037000026000011000000000000000000REP       Governor                                                Lisa Fritsch                          1 North La Grange                                      01 
01070010003000009000008000001000000000000000000REP       Governor                                                Lisa Fritsch                          1 West La Grange                                       01 
01070010004000008000006000002000000000000000000REP       Governor                                                Lisa Fritsch                          2 Rutersville                                          01 
01070010005000007000004000003000000000000000000REP       Governor                                                Lisa Fritsch                          3 Ellinger                                             01 
01070010006000008000007000001000000000000000000REP       Governor                                                Lisa Fritsch                          4 Fayetteville                                         01 
01070010007000004000003000001000000000000000000REP       Governor                                                Lisa Fritsch                          5 Willow Springs                                       01 
01070010008000006000005000001000000000000000000REP       Governor                                                Lisa Fritsch                          6 Warrenton                                            01 
01070010009000007000004000003000000000000000000REP       Governor                                                Lisa Fritsch                          7 Round Top                                            01 
01070010010000001000001000000000000000000000000REP       Governor                                                Lisa Fritsch                          8 Carmine                                              01 
01070010011000007000004000003000000000000000000REP       Governor                                                Lisa Fritsch                          9 Nechanitz                                            01 
01070010012000013000010000003000000000000000000REP       Governor                                                Lisa Fritsch                          10 Warda                                               01 
01070010013000007000007000000000000000000000000REP       Governor                                                Lisa Fritsch                          11 Winchester                                          01 
01070010014000003000002000001000000000000000000REP       Governor                                                Lisa Fritsch                          12 Plum                                                01 
01070010015000011000011000000000000000000000000REP       Governor                                                Lisa Fritsch                          13 West Point                                          01 
01070010016000001000000000001000000000000000000REP       Governor                                                Lisa Fritsch                          14 Muldoon                                             01 
01070010017000001000001000000000000000000000000REP       Governor                                                Lisa Fritsch                          15 Cistern                                             01 
01070010018000037000031000006000000000000000000REP       Governor                                                Lisa Fritsch                          16 Flatonia                                            01 
01070010019000009000009000000000000000000000000REP       Governor                                                Lisa Fritsch                          17 Praha                                               01 
01070010020000013000011000002000000000000000000REP       Governor                                                Lisa Fritsch                          20 Hostyn                                              01 
01070010021000005000003000002000000000000000000REP       Governor                                                Lisa Fritsch                          21 Swiss Alp                                           01 
01070010022000002000002000000000000000000000000REP       Governor                                                Lisa Fritsch                          22 Ammannsville                                        01 
01070010023000003000003000000000000000000000000REP       Governor                                                Lisa Fritsch                          23 Holman                                              01 
01070010024000007000007000000000000000000000000REP       Governor                                                Lisa Fritsch                          24 Dubina                                              01 
01070010025000028000025000003000000000000000000REP       Governor                                                Lisa Fritsch                          25 Schulenburg                                         01 
01070010026000013000010000003000000000000000000REP       Governor                                                Lisa Fritsch                          26 Mullins Prairie                                     01 
01070020001000003000002000001000000000000000000REP       Governor                                                SECEDE Kilgore                        1 East La Grange                                       01 
01070020002000003000001000002000000000000000000REP       Governor                                                SECEDE Kilgore                        1 North La Grange                                      01 
01070020003000002000001000001000000000000000000REP       Governor                                                SECEDE Kilgore                        1 West La Grange                                       01 
01070020004000000000000000000000000000000000000REP       Governor                                                SECEDE Kilgore                        2 Rutersville                                          01 
01070020005000000000000000000000000000000000000REP       Governor                                                SECEDE Kilgore                        3 Ellinger                                             01 
01070020006000004000003000001000000000000000000REP       Governor                                                SECEDE Kilgore                        4 Fayetteville                                         01 
01070020007000001000001000000000000000000000000REP       Governor                                                SECEDE Kilgore                        5 Willow Springs                                       01 
01070020008000001000001000000000000000000000000REP       Governor                                                SECEDE Kilgore                        6 Warrenton                                            01 
01070020009000001000001000000000000000000000000REP       Governor                                                SECEDE Kilgore                        7 Round Top                                            01 
01070020010000002000002000000000000000000000000REP       Governor                                                SECEDE Kilgore                        8 Carmine                                              01 
01070020011000002000002000000000000000000000000REP       Governor                                                SECEDE Kilgore                        9 Nechanitz                                            01 
01070020012000001000001000000000000000000000000REP       Governor                                                SECEDE Kilgore                        10 Warda                                               01 
01070020013000001000001000000000000000000000000REP       Governor                                                SECEDE Kilgore                        11 Winchester                                          01 
01070020014000002000001000001000000000000000000REP       Governor                                                SECEDE Kilgore                        12 Plum                                                01 
01070020015000001000001000000000000000000000000REP       Governor                                                SECEDE Kilgore                        13 West Point                                          01 
01070020016000000000000000000000000000000000000REP       Governor                                                SECEDE Kilgore                        14 Muldoon                                             01 
01070020017000002000002000000000000000000000000REP       Governor                                                SECEDE Kilgore                        15 Cistern                                             01 
01070020018000007000004000003000000000000000000REP       Governor                                                SECEDE Kilgore                        16 Flatonia                                            01 
01070020019000000000000000000000000000000000000REP       Governor                                                SECEDE Kilgore                        17 Praha                                               01 
01070020020000003000003000000000000000000000000REP       Governor                                                SECEDE Kilgore                        20 Hostyn                                              01 
01070020021000000000000000000000000000000000000REP       Governor                                                SECEDE Kilgore                        21 Swiss Alp                                           01 
01070020022000002000002000000000000000000000000REP       Governor                                                SECEDE Kilgore                        22 Ammannsville                                        01 
01070020023000002000002000000000000000000000000REP       Governor                                                SECEDE Kilgore                        23 Holman                                              01 
01070020024000003000003000000000000000000000000REP       Governor                                                SECEDE Kilgore                        24 Dubina                                              01 
01070020025000007000004000003000000000000000000REP       Governor                                                SECEDE Kilgore                        25 Schulenburg                                         01 
01070020026000000000000000000000000000000000000REP       Governor                                                SECEDE Kilgore                        26 Mullins Prairie                                     01 
01070030001000004000001000003000000000000000000REP       Governor                                                Miriam Martinez                       1 East La Grange                                       01 
01070030002000006000002000004000000000000000000REP       Governor                                                Miriam Martinez                       1 North La Grange                                      01 
01070030003000004000001000003000000000000000000REP       Governor                                                Miriam Martinez                       1 West La Grange                                       01 
01070030004000002000002000000000000000000000000REP       Governor                                                Miriam Martinez                       2 Rutersville                                          01 
01070030005000000000000000000000000000000000000REP       Governor                                                Miriam Martinez                       3 Ellinger                                             01 
01070030006000004000003000001000000000000000000REP       Governor                                                Miriam Martinez                       4 Fayetteville                                         01 
01070030007000000000000000000000000000000000000REP       Governor                                                Miriam Martinez                       5 Willow Springs                                       01 
01070030008000000000000000000000000000000000000REP       Governor                                                Miriam Martinez                       6 Warrenton                                            01 
01070030009000005000003000002000000000000000000REP       Governor                                                Miriam Martinez                       7 Round Top                                            01 
01070030010000000000000000000000000000000000000REP       Governor                                                Miriam Martinez                       8 Carmine                                              01 
01070030011000000000000000000000000000000000000REP       Governor                                                Miriam Martinez                       9 Nechanitz                                            01 
01070030012000000000000000000000000000000000000REP       Governor                                                Miriam Martinez                       10 Warda                                               01 
01070030013000000000000000000000000000000000000REP       Governor                                                Miriam Martinez                       11 Winchester                                          01 
01070030014000001000001000000000000000000000000REP       Governor                                                Miriam Martinez                       12 Plum                                                01 
01070030015000002000002000000000000000000000000REP       Governor                                                Miriam Martinez                       13 West Point                                          01 
01070030016000000000000000000000000000000000000REP       Governor                                                Miriam Martinez                       14 Muldoon                                             01 
01070030017000000000000000000000000000000000000REP       Governor                                                Miriam Martinez                       15 Cistern                                             01 
01070030018000014000011000003000000000000000000REP       Governor                                                Miriam Martinez                       16 Flatonia                                            01 
01070030019000001000001000000000000000000000000REP       Governor                                                Miriam Martinez                       17 Praha                                               01 
01070030020000002000001000001000000000000000000REP       Governor                                                Miriam Martinez                       20 Hostyn                                              01 
01070030021000001000000000001000000000000000000REP       Governor                                                Miriam Martinez                       21 Swiss Alp                                           01 
01070030022000001000000000001000000000000000000REP       Governor                                                Miriam Martinez                       22 Ammannsville                                        01 
01070030023000001000000000001000000000000000000REP       Governor                                                Miriam Martinez                       23 Holman                                              01 
01070030024000000000000000000000000000000000000REP       Governor                                                Miriam Martinez                       24 Dubina                                              01 
01070030025000015000011000004000000000000000000REP       Governor                                                Miriam Martinez                       25 Schulenburg                                         01 
01070030026000001000001000000000000000000000000REP       Governor                                                Miriam Martinez                       26 Mullins Prairie                                     01 
01070040001000209000133000076000000000000000000REP       Governor                                                Greg Abbott                           1 East La Grange                                       01 
01070040002000404000223000181000000000000000000REP       Governor                                                Greg Abbott                           1 North La Grange                                      01 
01070040003000173000099000074000000000000000000REP       Governor                                                Greg Abbott                           1 West La Grange                                       01 
01070040004000045000033000012000000000000000000REP       Governor                                                Greg Abbott                           2 Rutersville                                          01 
01070040005000095000068000027000000000000000000REP       Governor                                                Greg Abbott                           3 Ellinger                                             01 
01070040006000167000140000027000000000000000000REP       Governor                                                Greg Abbott                           4 Fayetteville                                         01 
01070040007000066000050000016000000000000000000REP       Governor                                                Greg Abbott                           5 Willow Springs                                       01 
01070040008000117000084000033000000000000000000REP       Governor                                                Greg Abbott                           6 Warrenton                                            01 
01070040009000145000116000029000000000000000000REP       Governor                                                Greg Abbott                           7 Round Top                                            01 
01070040010000087000075000012000000000000000000REP       Governor                                                Greg Abbott                           8 Carmine                                              01 
01070040011000065000051000014000000000000000000REP       Governor                                                Greg Abbott                           9 Nechanitz                                            01 
01070040012000131000076000055000000000000000000REP       Governor                                                Greg Abbott                           10 Warda                                               01 
01070040013000100000067000033000000000000000000REP       Governor                                                Greg Abbott                           11 Winchester                                          01 
01070040014000074000047000027000000000000000000REP       Governor                                                Greg Abbott                           12 Plum                                                01 
01070040015000098000045000053000000000000000000REP       Governor                                                Greg Abbott                           13 West Point                                          01 
01070040016000078000044000034000000000000000000REP       Governor                                                Greg Abbott                           14 Muldoon                                             01 
01070040017000081000046000035000000000000000000REP       Governor                                                Greg Abbott                           15 Cistern                                             01 
01070040018000345000278000067000000000000000000REP       Governor                                                Greg Abbott                           16 Flatonia                                            01 
01070040019000127000106000021000000000000000000REP       Governor                                                Greg Abbott                           17 Praha                                               01 
01070040020000191000102000089000000000000000000REP       Governor                                                Greg Abbott                           20 Hostyn                                              01 
01070040021000070000037000033000000000000000000REP       Governor                                                Greg Abbott                           21 Swiss Alp                                           01 
01070040022000055000047000008000000000000000000REP       Governor                                                Greg Abbott                           22 Ammannsville                                        01 
01070040023000053000042000011000000000000000000REP       Governor                                                Greg Abbott                           23 Holman                                              01 
01070040024000075000062000013000000000000000000REP       Governor                                                Greg Abbott                           24 Dubina                                              01 
01070040025000455000373000082000000000000000000REP       Governor                                                Greg Abbott                           25 Schulenburg                                         01 
01070040026000134000069000065000000000000000000REP       Governor                                                Greg Abbott                           26 Mullins Prairie                                     01 
01080010001000061000030000031000000000000000000REP       Lieutenant Governor                                     Dan Patrick                           1 East La Grange                                       01 
01080010002000110000066000044000000000000000000REP       Lieutenant Governor                                     Dan Patrick                           1 North La Grange                                      01 
01080010003000041000022000019000000000000000000REP       Lieutenant Governor                                     Dan Patrick                           1 West La Grange                                       01 
01080010004000013000011000002000000000000000000REP       Lieutenant Governor                                     Dan Patrick                           2 Rutersville                                          01 
01080010005000028000020000008000000000000000000REP       Lieutenant Governor                                     Dan Patrick                           3 Ellinger                                             01 
01080010006000064000051000013000000000000000000REP       Lieutenant Governor                                     Dan Patrick                           4 Fayetteville                                         01 
01080010007000026000018000008000000000000000000REP       Lieutenant Governor                                     Dan Patrick                           5 Willow Springs                                       01 
01080010008000040000028000012000000000000000000REP       Lieutenant Governor                                     Dan Patrick                           6 Warrenton                                            01 
01080010009000054000037000017000000000000000000REP       Lieutenant Governor                                     Dan Patrick                           7 Round Top                                            01 
01080010010000024000021000003000000000000000000REP       Lieutenant Governor                                     Dan Patrick                           8 Carmine                                              01 
01080010011000011000007000004000000000000000000REP       Lieutenant Governor                                     Dan Patrick                           9 Nechanitz                                            01 
01080010012000036000015000021000000000000000000REP       Lieutenant Governor                                     Dan Patrick                           10 Warda                                               01 
01080010013000032000020000012000000000000000000REP       Lieutenant Governor                                     Dan Patrick                           11 Winchester                                          01 
01080010014000027000016000011000000000000000000REP       Lieutenant Governor                                     Dan Patrick                           12 Plum                                                01 
01080010015000029000016000013000000000000000000REP       Lieutenant Governor                                     Dan Patrick                           13 West Point                                          01 
01080010016000017000008000009000000000000000000REP       Lieutenant Governor                                     Dan Patrick                           14 Muldoon                                             01 
01080010017000035000017000018000000000000000000REP       Lieutenant Governor                                     Dan Patrick                           15 Cistern                                             01 
01080010018000098000072000026000000000000000000REP       Lieutenant Governor                                     Dan Patrick                           16 Flatonia                                            01 
01080010019000033000024000009000000000000000000REP       Lieutenant Governor                                     Dan Patrick                           17 Praha                                               01 
01080010020000063000027000036000000000000000000REP       Lieutenant Governor                                     Dan Patrick                           20 Hostyn                                              01 
01080010021000018000013000005000000000000000000REP       Lieutenant Governor                                     Dan Patrick                           21 Swiss Alp                                           01 
01080010022000017000014000003000000000000000000REP       Lieutenant Governor                                     Dan Patrick                           22 Ammannsville                                        01 
01080010023000029000024000005000000000000000000REP       Lieutenant Governor                                     Dan Patrick                           23 Holman                                              01 
01080010024000029000025000004000000000000000000REP       Lieutenant Governor                                     Dan Patrick                           24 Dubina                                              01 
01080010025000139000105000034000000000000000000REP       Lieutenant Governor                                     Dan Patrick                           25 Schulenburg                                         01 
01080010026000057000025000032000000000000000000REP       Lieutenant Governor                                     Dan Patrick                           26 Mullins Prairie                                     01 
01080020001000105000078000027000000000000000000REP       Lieutenant Governor                                     David Dewhurst                        1 East La Grange                                       01 
01080020002000214000120000094000000000000000000REP       Lieutenant Governor                                     David Dewhurst                        1 North La Grange                                      01 
01080020003000090000056000034000000000000000000REP       Lieutenant Governor                                     David Dewhurst                        1 West La Grange                                       01 
01080020004000021000018000003000000000000000000REP       Lieutenant Governor                                     David Dewhurst                        2 Rutersville                                          01 
01080020005000045000037000008000000000000000000REP       Lieutenant Governor                                     David Dewhurst                        3 Ellinger                                             01 
