01030014071000006NONSUDGRN Green Valley SUD Director                               Donnovan Jackson                                                                             03 
01030014126000000NONSUDGRN Green Valley SUD Director                               Donnovan Jackson                                                                             03 
01030014136000003NONSUDGRN Green Valley SUD Director                               Donnovan Jackson                                                                             03 
01030014137000003NONSUDGRN Green Valley SUD Director                               Donnovan Jackson                                                                             03 
01030014151000018NONSUDGRN Green Valley SUD Director                               Donnovan Jackson                                                                             03 
01030024071000004NONSUDGRN Green Valley SUD Director                               T.G. Benson                                                                                  03 
01030024126000000NONSUDGRN Green Valley SUD Director                               T.G. Benson                                                                                  03 
01030024136000001NONSUDGRN Green Valley SUD Director                               T.G. Benson                                                                                  03 
01030024137000003NONSUDGRN Green Valley SUD Director                               T.G. Benson                                                                                  03 
01030024151000017NONSUDGRN Green Valley SUD Director                               T.G. Benson                                                                                  03 
01030034071000013NONSUDGRN Green Valley SUD Director                               Jackie Nolte                                                                                 03 
01030034126000000NONSUDGRN Green Valley SUD Director                               Jackie Nolte                                                                                 03 
01030034136000001NONSUDGRN Green Valley SUD Director                               Jackie Nolte                                                                                 03 
01030034137000003NONSUDGRN Green Valley SUD Director                               Jackie Nolte                                                                                 03 
01030034151000050NONSUDGRN Green Valley SUD Director                               Jackie Nolte                                                                                 03 
01030044071000007NONSUDGRN Green Valley SUD Director                               Tim Bird                                                                                     03 
01030044126000000NONSUDGRN Green Valley SUD Director                               Tim Bird                                                                                     03 
01030044136000002NONSUDGRN Green Valley SUD Director                               Tim Bird                                                                                     03 
01030044137000003NONSUDGRN Green Valley SUD Director                               Tim Bird                                                                                     03 
01030044151000025NONSUDGRN Green Valley SUD Director                               Tim Bird                                                                                     03 
01030054071000003NONSUDGRN Green Valley SUD Director                               James Robinson                                                                               03 
01030054126000000NONSUDGRN Green Valley SUD Director                               James Robinson                                                                               03 
01030054136000001NONSUDGRN Green Valley SUD Director                               James Robinson                                                                               03 
01030054137000002NONSUDGRN Green Valley SUD Director                               James Robinson                                                                               03 
01030054151000019NONSUDGRN Green Valley SUD Director                               James Robinson                                                                               03 
01030064071000015NONSUDGRN Green Valley SUD Director                               Christina Miller                                                                             03 
01030064126000000NONSUDGRN Green Valley SUD Director                               Christina Miller                                                                             03 
01030064136000000NONSUDGRN Green Valley SUD Director                               Christina Miller                                                                             03 
01030064137000002NONSUDGRN Green Valley SUD Director                               Christina Miller                                                                             03 
01030064151000037NONSUDGRN Green Valley SUD Director                               Christina Miller                                                                             03 
01030074071000003NONSUDGRN Green Valley SUD Director                               Jim Folbre                                                                                   03 
01030074126000000NONSUDGRN Green Valley SUD Director                               Jim Folbre                                                                                   03 
01030074136000001NONSUDGRN Green Valley SUD Director                               Jim Folbre                                                                                   03 
01030074137000000NONSUDGRN Green Valley SUD Director                               Jim Folbre                                                                                   03 
01030074151000014NONSUDGRN Green Valley SUD Director                               Jim Folbre                                                                                   03 
01030084071000000   SUDGRN Green Valley SUD Director                               OVER VOTES                                                                                   03 
01030084126000000   SUDGRN Green Valley SUD Director                               OVER VOTES                                                                                   03 
01030084136000000   SUDGRN Green Valley SUD Director                               OVER VOTES                                                                                   03 
01030084137000000   SUDGRN Green Valley SUD Director                               OVER VOTES                                                                                   03 
01030084151000000   SUDGRN Green Valley SUD Director                               OVER VOTES                                                                                   03 
01030094071000102   SUDGRN Green Valley SUD Director                               UNDER VOTES                                                                                  03 
01030094126000000   SUDGRN Green Valley SUD Director                               UNDER VOTES                                                                                  03 
01030094136000012   SUDGRN Green Valley SUD Director                               UNDER VOTES                                                                                  03 
01030094137000017   SUDGRN Green Valley SUD Director                               UNDER VOTES                                                                                  03 
01030094151000294   SUDGRN Green Valley SUD Director                               UNDER VOTES                                                                                  03 
