01030014071000003NONSUDGRN Green Valley SUD Director                               Donnovan Jackson                                                                             03 
01030014126000000NONSUDGRN Green Valley SUD Director                               Donnovan Jackson                                                                             03 
01030014136000001NONSUDGRN Green Valley SUD Director                               Donnovan Jackson                                                                             03 
01030014137000000NONSUDGRN Green Valley SUD Director                               Donnovan Jackson                                                                             03 
01030014151000008NONSUDGRN Green Valley SUD Director                               Donnovan Jackson                                                                             03 
01030024071000002NONSUDGRN Green Valley SUD Director                               T.G. Benson                                                                                  03 
01030024126000000NONSUDGRN Green Valley SUD Director                               T.G. Benson                                                                                  03 
01030024136000000NONSUDGRN Green Valley SUD Director                               T.G. Benson                                                                                  03 
01030024137000001NONSUDGRN Green Valley SUD Director                               T.G. Benson                                                                                  03 
01030024151000006NONSUDGRN Green Valley SUD Director                               T.G. Benson                                                                                  03 
01030034071000003NONSUDGRN Green Valley SUD Director                               Jackie Nolte                                                                                 03 
01030034126000000NONSUDGRN Green Valley SUD Director                               Jackie Nolte                                                                                 03 
01030034136000000NONSUDGRN Green Valley SUD Director                               Jackie Nolte                                                                                 03 
01030034137000000NONSUDGRN Green Valley SUD Director                               Jackie Nolte                                                                                 03 
01030034151000018NONSUDGRN Green Valley SUD Director                               Jackie Nolte                                                                                 03 
01030044071000000NONSUDGRN Green Valley SUD Director                               Tim Bird                                                                                     03 
01030044126000000NONSUDGRN Green Valley SUD Director                               Tim Bird                                                                                     03 
01030044136000002NONSUDGRN Green Valley SUD Director                               Tim Bird                                                                                     03 
01030044137000001NONSUDGRN Green Valley SUD Director                               Tim Bird                                                                                     03 
01030044151000009NONSUDGRN Green Valley SUD Director                               Tim Bird                                                                                     03 
01030054071000000NONSUDGRN Green Valley SUD Director                               James Robinson                                                                               03 
01030054126000000NONSUDGRN Green Valley SUD Director                               James Robinson                                                                               03 
01030054136000001NONSUDGRN Green Valley SUD Director                               James Robinson                                                                               03 
01030054137000000NONSUDGRN Green Valley SUD Director                               James Robinson                                                                               03 
01030054151000009NONSUDGRN Green Valley SUD Director                               James Robinson                                                                               03 
01030064071000005NONSUDGRN Green Valley SUD Director                               Christina Miller                                                                             03 
01030064126000000NONSUDGRN Green Valley SUD Director                               Christina Miller                                                                             03 
01030064136000000NONSUDGRN Green Valley SUD Director                               Christina Miller                                                                             03 
01030064137000001NONSUDGRN Green Valley SUD Director                               Christina Miller                                                                             03 
01030064151000013NONSUDGRN Green Valley SUD Director                               Christina Miller                                                                             03 
01030074071000002NONSUDGRN Green Valley SUD Director                               Jim Folbre                                                                                   03 
01030074126000000NONSUDGRN Green Valley SUD Director                               Jim Folbre                                                                                   03 
01030074136000001NONSUDGRN Green Valley SUD Director                               Jim Folbre                                                                                   03 
01030074137000000NONSUDGRN Green Valley SUD Director                               Jim Folbre                                                                                   03 
01030074151000006NONSUDGRN Green Valley SUD Director                               Jim Folbre                                                                                   03 
01030084071000000   SUDGRN Green Valley SUD Director                               OVER VOTES                                                                                   03 
01030084126000000   SUDGRN Green Valley SUD Director                               OVER VOTES                                                                                   03 
01030084136000000   SUDGRN Green Valley SUD Director                               OVER VOTES                                                                                   03 
01030084137000000   SUDGRN Green Valley SUD Director                               OVER VOTES                                                                                   03 
01030084151000000   SUDGRN Green Valley SUD Director                               OVER VOTES                                                                                   03 
01030094071000054   SUDGRN Green Valley SUD Director                               UNDER VOTES                                                                                  03 
01030094126000000   SUDGRN Green Valley SUD Director                               UNDER VOTES                                                                                  03 
01030094136000001   SUDGRN Green Valley SUD Director                               UNDER VOTES                                                                                  03 
01030094137000009   SUDGRN Green Valley SUD Director                               UNDER VOTES                                                                                  03 
01030094151000141   SUDGRN Green Valley SUD Director                               UNDER VOTES                                                                                  03 
