01010010028000482000000000000000000000000000000          REGISTERED VOTERS - TOTAL                               REGISTERED VOTERS - TOTAL             PCT028                                                 00 
01010010029001607000000000000000000000000000000          REGISTERED VOTERS - TOTAL                               REGISTERED VOTERS - TOTAL             PCT029                                                 00 
01010010030001117000000000000000000000000000000          REGISTERED VOTERS - TOTAL                               REGISTERED VOTERS - TOTAL             PCT030                                                 00 
01010010031001135000000000000000000000000000000          REGISTERED VOTERS - TOTAL                               REGISTERED VOTERS - TOTAL             PCT031                                                 00 
01010010080000236000000000000000000000000000000          REGISTERED VOTERS - TOTAL                               REGISTERED VOTERS - TOTAL             PCT080                                                 00 
01010010091000484000000000000000000000000000000          REGISTERED VOTERS - TOTAL                               REGISTERED VOTERS - TOTAL             PCT091                                                 00 
01010010092000714000000000000000000000000000000          REGISTERED VOTERS - TOTAL                               REGISTERED VOTERS - TOTAL             PCT092                                                 00 
01010010108000509000000000000000000000000000000          REGISTERED VOTERS - TOTAL                               REGISTERED VOTERS - TOTAL             PCT108                                                 00 
01020010028000158000007000077000000000074000000          BALLOTS CAST - TOTAL                                    BALLOTS CAST - TOTAL                  PCT028                                                 00 
01020010029000670000012000371000000000286000001          BALLOTS CAST - TOTAL                                    BALLOTS CAST - TOTAL                  PCT029                                                 00 
01020010030000496000019000317000000000159000001          BALLOTS CAST - TOTAL                                    BALLOTS CAST - TOTAL                  PCT030                                                 00 
01020010031000479000007000235000000000237000000          BALLOTS CAST - TOTAL                                    BALLOTS CAST - TOTAL                  PCT031                                                 00 
01020010080000107000004000061000000000042000000          BALLOTS CAST - TOTAL                                    BALLOTS CAST - TOTAL                  PCT080                                                 00 
01020010091000231000006000151000000000074000000          BALLOTS CAST - TOTAL                                    BALLOTS CAST - TOTAL                  PCT091                                                 00 
01020010092000267000004000186000000000077000000          BALLOTS CAST - TOTAL                                    BALLOTS CAST - TOTAL                  PCT092                                                 00 
01020010101000000000000000000000000000000000000          BALLOTS CAST - TOTAL                                    BALLOTS CAST - TOTAL                  PCT101                                                 00 
01020010108000212000009000145000000000058000000          BALLOTS CAST - TOTAL                                    BALLOTS CAST - TOTAL                  PCT108                                                 00 
01030010028000053000001000032000000000020000000NONSHAMSHIHFISD School Board Trustee, Position 5                  Bobby Mott                            PCT028                                                 01 
01030010029000423000007000234000000000182000000NONSHAMSHIHFISD School Board Trustee, Position 5                  Bobby Mott                            PCT029                                                 01 
01030010030000260000007000165000000000087000001NONSHAMSHIHFISD School Board Trustee, Position 5                  Bobby Mott                            PCT030                                                 01 
01030010031000192000003000090000000000099000000NONSHAMSHIHFISD School Board Trustee, Position 5                  Bobby Mott                            PCT031                                                 01 
01030010080000044000001000025000000000018000000NONSHAMSHIHFISD School Board Trustee, Position 5                  Bobby Mott                            PCT080                                                 01 
01030010091000100000005000060000000000035000000NONSHAMSHIHFISD School Board Trustee, Position 5                  Bobby Mott                            PCT091                                                 01 
01030010092000098000000000068000000000030000000NONSHAMSHIHFISD School Board Trustee, Position 5                  Bobby Mott                            PCT092                                                 01 
01030010101000000000000000000000000000000000000NONSHAMSHIHFISD School Board Trustee, Position 5                  Bobby Mott                            PCT101                                                 01 
01030010108000108000005000068000000000035000000NONSHAMSHIHFISD School Board Trustee, Position 5                  Bobby Mott                            PCT108                                                 01 
01030020028000085000005000029000000000051000000NONSHAMSHIHFISD School Board Trustee, Position 5                  Tony Payton                           PCT028                                                 01 
01030020029000175000004000101000000000069000001NONSHAMSHIHFISD School Board Trustee, Position 5                  Tony Payton                           PCT029                                                 01 
01030020030000169000007000105000000000057000000NONSHAMSHIHFISD School Board Trustee, Position 5                  Tony Payton                           PCT030                                                 01 
01030020031000210000004000109000000000097000000NONSHAMSHIHFISD School Board Trustee, Position 5                  Tony Payton                           PCT031                                                 01 
01030020080000040000000000027000000000013000000NONSHAMSHIHFISD School Board Trustee, Position 5                  Tony Payton                           PCT080                                                 01 
01030020091000093000001000060000000000032000000NONSHAMSHIHFISD School Board Trustee, Position 5                  Tony Payton                           PCT091                                                 01 
01030020092000130000004000097000000000029000000NONSHAMSHIHFISD School Board Trustee, Position 5                  Tony Payton                           PCT092                                                 01 
01030020101000000000000000000000000000000000000NONSHAMSHIHFISD School Board Trustee, Position 5                  Tony Payton                           PCT101                                                 01 
01030020108000078000003000060000000000015000000NONSHAMSHIHFISD School Board Trustee, Position 5                  Tony Payton                           PCT108                                                 01 
01030030028000000000000000000000000000000000000   SHAMSHIHFISD School Board Trustee, Position 5                  OVER VOTES                            PCT028                                                 01 
01030030029000000000000000000000000000000000000   SHAMSHIHFISD School Board Trustee, Position 5                  OVER VOTES                            PCT029                                                 01 
01030030030000000000000000000000000000000000000   SHAMSHIHFISD School Board Trustee, Position 5                  OVER VOTES                            PCT030                                                 01 
01030030031000000000000000000000000000000000000   SHAMSHIHFISD School Board Trustee, Position 5                  OVER VOTES                            PCT031                                                 01 
01030030080000000000000000000000000000000000000   SHAMSHIHFISD School Board Trustee, Position 5                  OVER VOTES                            PCT080                                                 01 
01030030091000000000000000000000000000000000000   SHAMSHIHFISD School Board Trustee, Position 5                  OVER VOTES                            PCT091                                                 01 
01030030092000000000000000000000000000000000000   SHAMSHIHFISD School Board Trustee, Position 5                  OVER VOTES                            PCT092                                                 01 
01030030101000000000000000000000000000000000000   SHAMSHIHFISD School Board Trustee, Position 5                  OVER VOTES                            PCT101                                                 01 
01030030108000000000000000000000000000000000000   SHAMSHIHFISD School Board Trustee, Position 5                  OVER VOTES                            PCT108                                                 01 
01030040028000020000001000016000000000003000000   SHAMSHIHFISD School Board Trustee, Position 5                  UNDER VOTES                           PCT028                                                 01 
01030040029000072000001000036000000000035000000   SHAMSHIHFISD School Board Trustee, Position 5                  UNDER VOTES                           PCT029                                                 01 
01030040030000067000005000047000000000015000000   SHAMSHIHFISD School Board Trustee, Position 5                  UNDER VOTES                           PCT030                                                 01 
01030040031000077000000000036000000000041000000   SHAMSHIHFISD School Board Trustee, Position 5                  UNDER VOTES                           PCT031                                                 01 
01030040080000023000003000009000000000011000000   SHAMSHIHFISD School Board Trustee, Position 5                  UNDER VOTES                           PCT080                                                 01 
01030040091000038000000000031000000000007000000   SHAMSHIHFISD School Board Trustee, Position 5                  UNDER VOTES                           PCT091                                                 01 
01030040092000039000000000021000000000018000000   SHAMSHIHFISD School Board Trustee, Position 5                  UNDER VOTES                           PCT092                                                 01 
01030040101000000000000000000000000000000000000   SHAMSHIHFISD School Board Trustee, Position 5                  UNDER VOTES                           PCT101                                                 01 
01030040108000026000001000017000000000008000000   SHAMSHIHFISD School Board Trustee, Position 5                  UNDER VOTES                           PCT108                                                 01 
01040010028000094000004000039000000000051000000NONSHAMSHIHFISD School Board Trustee, Position 6                  David Gilmore                         PCT028                                                 01 
01040010029000434000009000240000000000184000001NONSHAMSHIHFISD School Board Trustee, Position 6                  David Gilmore                         PCT029                                                 01 
01040010030000290000007000192000000000090000001NONSHAMSHIHFISD School Board Trustee, Position 6                  David Gilmore                         PCT030                                                 01 
01040010031000236000003000124000000000109000000NONSHAMSHIHFISD School Board Trustee, Position 6                  David Gilmore                         PCT031                                                 01 
01040010080000055000001000031000000000023000000NONSHAMSHIHFISD School Board Trustee, Position 6                  David Gilmore                         PCT080                                                 01 
01040010091000123000003000079000000000041000000NONSHAMSHIHFISD School Board Trustee, Position 6                  David Gilmore                         PCT091                                                 01 
01040010092000139000003000103000000000033000000NONSHAMSHIHFISD School Board Trustee, Position 6                  David Gilmore                         PCT092                                                 01 
01040010101000000000000000000000000000000000000NONSHAMSHIHFISD School Board Trustee, Position 6                  David Gilmore                         PCT101                                                 01 
01040010108000131000004000093000000000034000000NONSHAMSHIHFISD School Board Trustee, Position 6                  David Gilmore                         PCT108                                                 01 
01040020028000040000002000023000000000015000000NONSHAMSHIHFISD School Board Trustee, Position 6                  Danny Doucet                          PCT028                                                 01 
01040020029000158000002000086000000000070000000NONSHAMSHIHFISD School Board Trustee, Position 6                  Danny Doucet                          PCT029                                                 01 
01040020030000136000007000078000000000051000000NONSHAMSHIHFISD School Board Trustee, Position 6                  Danny Doucet                          PCT030                                                 01 
01040020031000152000004000067000000000081000000NONSHAMSHIHFISD School Board Trustee, Position 6                  Danny Doucet                          PCT031                                                 01 
01040020080000027000000000020000000000007000000NONSHAMSHIHFISD School Board Trustee, Position 6                  Danny Doucet                          PCT080                                                 01 
01040020091000066000002000043000000000021000000NONSHAMSHIHFISD School Board Trustee, Position 6                  Danny Doucet                          PCT091                                                 01 
01040020092000077000001000052000000000024000000NONSHAMSHIHFISD School Board Trustee, Position 6                  Danny Doucet                          PCT092                                                 01 
01040020101000000000000000000000000000000000000NONSHAMSHIHFISD School Board Trustee, Position 6                  Danny Doucet                          PCT101                                                 01 
01040020108000050000004000029000000000017000000NONSHAMSHIHFISD School Board Trustee, Position 6                  Danny Doucet                          PCT108                                                 01 
01040030028000000000000000000000000000000000000   SHAMSHIHFISD School Board Trustee, Position 6                  OVER VOTES                            PCT028                                                 01 
01040030029000000000000000000000000000000000000   SHAMSHIHFISD School Board Trustee, Position 6                  OVER VOTES                            PCT029                                                 01 
01040030030000000000000000000000000000000000000   SHAMSHIHFISD School Board Trustee, Position 6                  OVER VOTES                            PCT030                                                 01 
01040030031000000000000000000000000000000000000   SHAMSHIHFISD School Board Trustee, Position 6                  OVER VOTES                            PCT031                                                 01 
01040030080000000000000000000000000000000000000   SHAMSHIHFISD School Board Trustee, Position 6                  OVER VOTES                            PCT080                                                 01 
01040030091000000000000000000000000000000000000   SHAMSHIHFISD School Board Trustee, Position 6                  OVER VOTES                            PCT091                                                 01 
01040030092000000000000000000000000000000000000   SHAMSHIHFISD School Board Trustee, Position 6                  OVER VOTES                            PCT092                                                 01 
01040030101000000000000000000000000000000000000   SHAMSHIHFISD School Board Trustee, Position 6                  OVER VOTES                            PCT101                                                 01 
01040030108000000000000000000000000000000000000   SHAMSHIHFISD School Board Trustee, Position 6                  OVER VOTES                            PCT108                                                 01 
01040040028000024000001000015000000000008000000   SHAMSHIHFISD School Board Trustee, Position 6                  UNDER VOTES                           PCT028                                                 01 
01040040029000078000001000045000000000032000000   SHAMSHIHFISD School Board Trustee, Position 6                  UNDER VOTES                           PCT029                                                 01 
01040040030000070000005000047000000000018000000   SHAMSHIHFISD School Board Trustee, Position 6                  UNDER VOTES                           PCT030                                                 01 
01040040031000091000000000044000000000047000000   SHAMSHIHFISD School Board Trustee, Position 6                  UNDER VOTES                           PCT031                                                 01 
01040040080000025000003000010000000000012000000   SHAMSHIHFISD School Board Trustee, Position 6                  UNDER VOTES                           PCT080                                                 01 
01040040091000042000001000029000000000012000000   SHAMSHIHFISD School Board Trustee, Position 6                  UNDER VOTES                           PCT091                                                 01 
01040040092000051000000000031000000000020000000   SHAMSHIHFISD School Board Trustee, Position 6                  UNDER VOTES                           PCT092                                                 01 
01040040101000000000000000000000000000000000000   SHAMSHIHFISD School Board Trustee, Position 6                  UNDER VOTES                           PCT101                                                 01 
01040040108000031000001000023000000000007000000   SHAMSHIHFISD School Board Trustee, Position 6                  UNDER VOTES                           PCT108                                                 01 
01050010028000047000002000036000000000009000000NONSHAMSHIHFISD School Board Trustee, Position 7                  Harvey Schneiter                      PCT028                                                 01 
01050010029000274000009000149000000000115000001NONSHAMSHIHFISD School Board Trustee, Position 7                  Harvey Schneiter                      PCT029                                                 01 
01050010030000204000007000122000000000075000000NONSHAMSHIHFISD School Board Trustee, Position 7                  Harvey Schneiter                      PCT030                                                 01 
01050010031000196000000000096000000000100000000NONSHAMSHIHFISD School Board Trustee, Position 7                  Harvey Schneiter                      PCT031                                                 01 
01050010080000049000002000032000000000015000000NONSHAMSHIHFISD School Board Trustee, Position 7                  Harvey Schneiter                      PCT080                                                 01 
01050010091000099000002000063000000000034000000NONSHAMSHIHFISD School Board Trustee, Position 7                  Harvey Schneiter                      PCT091                                                 01 
01050010092000130000001000089000000000040000000NONSHAMSHIHFISD School Board Trustee, Position 7                  Harvey Schneiter                      PCT092                                                 01 
01050010101000000000000000000000000000000000000NONSHAMSHIHFISD School Board Trustee, Position 7                  Harvey Schneiter                      PCT101                                                 01 
01050010108000102000004000073000000000025000000NONSHAMSHIHFISD School Board Trustee, Position 7                  Harvey Schneiter                      PCT108                                                 01 
01050020028000097000004000034000000000059000000NONSHAMSHIHFISD School Board Trustee, Position 7                  Chad Blanchard                        PCT028                                                 01 
01050020029000362000003000204000000000155000000NONSHAMSHIHFISD School Board Trustee, Position 7                  Chad Blanchard                        PCT029                                                 01 
01050020030000264000011000177000000000075000001NONSHAMSHIHFISD School Board Trustee, Position 7                  Chad Blanchard                        PCT030                                                 01 
01050020031000236000007000115000000000114000000NONSHAMSHIHFISD School Board Trustee, Position 7                  Chad Blanchard                        PCT031                                                 01 
01050020080000048000000000025000000000023000000NONSHAMSHIHFISD School Board Trustee, Position 7                  Chad Blanchard                        PCT080                                                 01 
01050020091000113000003000074000000000036000000NONSHAMSHIHFISD School Board Trustee, Position 7                  Chad Blanchard                        PCT091                                                 01 
01050020092000121000003000088000000000030000000NONSHAMSHIHFISD School Board Trustee, Position 7                  Chad Blanchard                        PCT092                                                 01 
01050020101000000000000000000000000000000000000NONSHAMSHIHFISD School Board Trustee, Position 7                  Chad Blanchard                        PCT101                                                 01 
01050020108000103000004000068000000000031000000NONSHAMSHIHFISD School Board Trustee, Position 7                  Chad Blanchard                        PCT108                                                 01 
01050030028000000000000000000000000000000000000   SHAMSHIHFISD School Board Trustee, Position 7                  OVER VOTES                            PCT028                                                 01 
01050030029000000000000000000000000000000000000   SHAMSHIHFISD School Board Trustee, Position 7                  OVER VOTES                            PCT029                                                 01 
01050030030000000000000000000000000000000000000   SHAMSHIHFISD School Board Trustee, Position 7                  OVER VOTES                            PCT030                                                 01 
01050030031000000000000000000000000000000000000   SHAMSHIHFISD School Board Trustee, Position 7                  OVER VOTES                            PCT031                                                 01 
01050030080000000000000000000000000000000000000   SHAMSHIHFISD School Board Trustee, Position 7                  OVER VOTES                            PCT080                                                 01 
01050030091000000000000000000000000000000000000   SHAMSHIHFISD School Board Trustee, Position 7                  OVER VOTES                            PCT091                                                 01 
01050030092000000000000000000000000000000000000   SHAMSHIHFISD School Board Trustee, Position 7                  OVER VOTES                            PCT092                                                 01 
01050030101000000000000000000000000000000000000   SHAMSHIHFISD School Board Trustee, Position 7                  OVER VOTES                            PCT101                                                 01 
01050030108000000000000000000000000000000000000   SHAMSHIHFISD School Board Trustee, Position 7                  OVER VOTES                            PCT108                                                 01 
01050040028000014000001000007000000000006000000   SHAMSHIHFISD School Board Trustee, Position 7                  UNDER VOTES                           PCT028                                                 01 
01050040029000034000000000018000000000016000000   SHAMSHIHFISD School Board Trustee, Position 7                  UNDER VOTES                           PCT029                                                 01 
01050040030000028000001000018000000000009000000   SHAMSHIHFISD School Board Trustee, Position 7                  UNDER VOTES                           PCT030                                                 01 
01050040031000047000000000024000000000023000000   SHAMSHIHFISD School Board Trustee, Position 7                  UNDER VOTES                           PCT031                                                 01 
01050040080000010000002000004000000000004000000   SHAMSHIHFISD School Board Trustee, Position 7                  UNDER VOTES                           PCT080                                                 01 
01050040091000019000001000014000000000004000000   SHAMSHIHFISD School Board Trustee, Position 7                  UNDER VOTES                           PCT091                                                 01 
01050040092000016000000000009000000000007000000   SHAMSHIHFISD School Board Trustee, Position 7                  UNDER VOTES                           PCT092                                                 01 
01050040101000000000000000000000000000000000000   SHAMSHIHFISD School Board Trustee, Position 7                  UNDER VOTES                           PCT101                                                 01 
01050040108000007000001000004000000000002000000   SHAMSHIHFISD School Board Trustee, Position 7                  UNDER VOTES                           PCT108                                                 01 
01060010028000103000005000059000000000039000000NONSHAMSHIPROPOSITION                                             FOR                                   PCT028                                                 01Y
01060010029000506000010000289000000000206000001NONSHAMSHIPROPOSITION                                             FOR                                   PCT029                                                 01Y
01060010030000360000015000227000000000118000000NONSHAMSHIPROPOSITION                                             FOR                                   PCT030                                                 01Y
01060010031000364000003000193000000000168000000NONSHAMSHIPROPOSITION                                             FOR                                   PCT031                                                 01Y
01060010080000081000004000044000000000033000000NONSHAMSHIPROPOSITION                                             FOR                                   PCT080                                                 01Y
01060010091000172000003000119000000000050000000NONSHAMSHIPROPOSITION                                             FOR                                   PCT091                                                 01Y
01060010092000206000002000149000000000055000000NONSHAMSHIPROPOSITION                                             FOR                                   PCT092                                                 01Y
01060010101000000000000000000000000000000000000NONSHAMSHIPROPOSITION                                             FOR                                   PCT101                                                 01Y
01060010108000173000009000117000000000047000000NONSHAMSHIPROPOSITION                                             FOR                                   PCT108                                                 01Y
01060020028000044000002000014000000000028000000NONSHAMSHIPROPOSITION                                             AGAINST                               PCT028                                                 01Y
01060020029000154000000000075000000000079000000NONSHAMSHIPROPOSITION                                             AGAINST                               PCT029                                                 01Y
01060020030000128000004000083000000000040000001NONSHAMSHIPROPOSITION                                             AGAINST                               PCT030                                                 01Y
01060020031000111000004000041000000000066000000NONSHAMSHIPROPOSITION                                             AGAINST                               PCT031                                                 01Y
01060020080000026000000000017000000000009000000NONSHAMSHIPROPOSITION                                             AGAINST                               PCT080                                                 01Y
01060020091000056000002000031000000000023000000NONSHAMSHIPROPOSITION                                             AGAINST                               PCT091                                                 01Y
01060020092000061000002000037000000000022000000NONSHAMSHIPROPOSITION                                             AGAINST                               PCT092                                                 01Y
01060020101000000000000000000000000000000000000NONSHAMSHIPROPOSITION                                             AGAINST                               PCT101                                                 01Y
01060020108000034000000000024000000000010000000NONSHAMSHIPROPOSITION                                             AGAINST                               PCT108                                                 01Y
01060030028000000000000000000000000000000000000   SHAMSHIPROPOSITION                                             OVER VOTES                            PCT028                                                 01Y
01060030029000000000000000000000000000000000000   SHAMSHIPROPOSITION                                             OVER VOTES                            PCT029                                                 01Y
01060030030000000000000000000000000000000000000   SHAMSHIPROPOSITION                                             OVER VOTES                            PCT030                                                 01Y
01060030031000000000000000000000000000000000000   SHAMSHIPROPOSITION                                             OVER VOTES                            PCT031                                                 01Y
01060030080000000000000000000000000000000000000   SHAMSHIPROPOSITION                                             OVER VOTES                            PCT080                                                 01Y
01060030091000000000000000000000000000000000000   SHAMSHIPROPOSITION                                             OVER VOTES                            PCT091                                                 01Y
01060030092000000000000000000000000000000000000   SHAMSHIPROPOSITION                                             OVER VOTES                            PCT092                                                 01Y
01060030101000000000000000000000000000000000000   SHAMSHIPROPOSITION                                             OVER VOTES                            PCT101                                                 01Y
01060030108000000000000000000000000000000000000   SHAMSHIPROPOSITION                                             OVER VOTES                            PCT108                                                 01Y
01060040028000011000000000004000000000007000000   SHAMSHIPROPOSITION                                             UNDER VOTES                           PCT028                                                 01Y
01060040029000010000002000007000000000001000000   SHAMSHIPROPOSITION                                             UNDER VOTES                           PCT029                                                 01Y
01060040030000008000000000007000000000001000000   SHAMSHIPROPOSITION                                             UNDER VOTES                           PCT030                                                 01Y
01060040031000004000000000001000000000003000000   SHAMSHIPROPOSITION                                             UNDER VOTES                           PCT031                                                 01Y
01060040080000000000000000000000000000000000000   SHAMSHIPROPOSITION                                             UNDER VOTES                           PCT080                                                 01Y
01060040091000003000001000001000000000001000000   SHAMSHIPROPOSITION                                             UNDER VOTES                           PCT091                                                 01Y
01060040092000000000000000000000000000000000000   SHAMSHIPROPOSITION                                             UNDER VOTES                           PCT092                                                 01Y
01060040101000000000000000000000000000000000000   SHAMSHIPROPOSITION                                             UNDER VOTES                           PCT101                                                 01Y
01060040108000005000000000004000000000001000000   SHAMSHIPROPOSITION                                             UNDER VOTES                           PCT108                                                 01Y
