01010010001000000000000000000000000000000000000          REGISTERED VOTERS - TOTAL                               REGISTERED VOTERS - TOTAL             PRECINCT 101                                           00 
01010010002000000000000000000000000000000000000          REGISTERED VOTERS - TOTAL                               REGISTERED VOTERS - TOTAL             PRECINCT 102                                           00 
01010010003000000000000000000000000000000000000          REGISTERED VOTERS - TOTAL                               REGISTERED VOTERS - TOTAL             PRECINCT 201                                           00 
01010010004000000000000000000000000000000000000          REGISTERED VOTERS - TOTAL                               REGISTERED VOTERS - TOTAL             PRECINCT 202                                           00 
01010010005000000000000000000000000000000000000          REGISTERED VOTERS - TOTAL                               REGISTERED VOTERS - TOTAL             PRECINCT 301                                           00 
01010010006000000000000000000000000000000000000          REGISTERED VOTERS - TOTAL                               REGISTERED VOTERS - TOTAL             PRECINCT 401                                           00 
01020010001000137000034000103000000000000000000          BALLOTS CAST - TOTAL                                    BALLOTS CAST - TOTAL                  PRECINCT 101                                           00 
01020010002000071000028000043000000000000000000          BALLOTS CAST - TOTAL                                    BALLOTS CAST - TOTAL                  PRECINCT 102                                           00 
01020010003000104000034000070000000000000000000          BALLOTS CAST - TOTAL                                    BALLOTS CAST - TOTAL                  PRECINCT 201                                           00 
01020010004000184000076000108000000000000000000          BALLOTS CAST - TOTAL                                    BALLOTS CAST - TOTAL                  PRECINCT 202                                           00 
01020010005000337000139000198000000000000000000          BALLOTS CAST - TOTAL                                    BALLOTS CAST - TOTAL                  PRECINCT 301                                           00 
01020010006000281000122000159000000000000000000          BALLOTS CAST - TOTAL                                    BALLOTS CAST - TOTAL                  PRECINCT 401                                           00 
01030010001000081000016000065000000000000000000REP       STRAIGHT PARTY                                          REPUBLICAN PARTY                      PRECINCT 101                                           01 
01030010002000036000011000025000000000000000000REP       STRAIGHT PARTY                                          REPUBLICAN PARTY                      PRECINCT 102                                           01 
01030010003000060000017000043000000000000000000REP       STRAIGHT PARTY                                          REPUBLICAN PARTY                      PRECINCT 201                                           01 
01030010004000095000036000059000000000000000000REP       STRAIGHT PARTY                                          REPUBLICAN PARTY                      PRECINCT 202                                           01 
01030010005000169000075000094000000000000000000REP       STRAIGHT PARTY                                          REPUBLICAN PARTY                      PRECINCT 301                                           01 
01030010006000132000063000069000000000000000000REP       STRAIGHT PARTY                                          REPUBLICAN PARTY                      PRECINCT 401                                           01 
01030020001000005000001000004000000000000000000DEM       STRAIGHT PARTY                                          DEMOCRATIC PARTY                      PRECINCT 101                                           01 
01030020002000001000000000001000000000000000000DEM       STRAIGHT PARTY                                          DEMOCRATIC PARTY                      PRECINCT 102                                           01 
01030020003000003000000000003000000000000000000DEM       STRAIGHT PARTY                                          DEMOCRATIC PARTY                      PRECINCT 201                                           01 
01030020004000001000001000000000000000000000000DEM       STRAIGHT PARTY                                          DEMOCRATIC PARTY                      PRECINCT 202                                           01 
01030020005000008000004000004000000000000000000DEM       STRAIGHT PARTY                                          DEMOCRATIC PARTY                      PRECINCT 301                                           01 
01030020006000007000002000005000000000000000000DEM       STRAIGHT PARTY                                          DEMOCRATIC PARTY                      PRECINCT 401                                           01 
01030030001000000000000000000000000000000000000LIB       STRAIGHT PARTY                                          LIBERTARIAN PARTY                     PRECINCT 101                                           01 
01030030002000001000000000001000000000000000000LIB       STRAIGHT PARTY                                          LIBERTARIAN PARTY                     PRECINCT 102                                           01 
01030030003000000000000000000000000000000000000LIB       STRAIGHT PARTY                                          LIBERTARIAN PARTY                     PRECINCT 201                                           01 
01030030004000001000000000001000000000000000000LIB       STRAIGHT PARTY                                          LIBERTARIAN PARTY                     PRECINCT 202                                           01 
01030030005000000000000000000000000000000000000LIB       STRAIGHT PARTY                                          LIBERTARIAN PARTY                     PRECINCT 301                                           01 
01030030006000001000000000001000000000000000000LIB       STRAIGHT PARTY                                          LIBERTARIAN PARTY                     PRECINCT 401                                           01 
01030040001000000000000000000000000000000000000GRN       STRAIGHT PARTY                                          GREEN PARTY                           PRECINCT 101                                           01 
01030040002000000000000000000000000000000000000GRN       STRAIGHT PARTY                                          GREEN PARTY                           PRECINCT 102                                           01 
01030040003000001000000000001000000000000000000GRN       STRAIGHT PARTY                                          GREEN PARTY                           PRECINCT 201                                           01 
01030040004000000000000000000000000000000000000GRN       STRAIGHT PARTY                                          GREEN PARTY                           PRECINCT 202                                           01 
01030040005000000000000000000000000000000000000GRN       STRAIGHT PARTY                                          GREEN PARTY                           PRECINCT 301                                           01 
01030040006000000000000000000000000000000000000GRN       STRAIGHT PARTY                                          GREEN PARTY                           PRECINCT 401                                           01 
01030050001000000000000000000000000000000000000          STRAIGHT PARTY                                          OVER VOTES                            PRECINCT 101                                           01 
01030050002000000000000000000000000000000000000          STRAIGHT PARTY                                          OVER VOTES                            PRECINCT 102                                           01 
01030050003000000000000000000000000000000000000          STRAIGHT PARTY                                          OVER VOTES                            PRECINCT 201                                           01 
01030050004000000000000000000000000000000000000          STRAIGHT PARTY                                          OVER VOTES                            PRECINCT 202                                           01 
01030050005000000000000000000000000000000000000          STRAIGHT PARTY                                          OVER VOTES                            PRECINCT 301                                           01 
01030050006000000000000000000000000000000000000          STRAIGHT PARTY                                          OVER VOTES                            PRECINCT 401                                           01 
01030060001000051000017000034000000000000000000          STRAIGHT PARTY                                          UNDER VOTES                           PRECINCT 101                                           01 
01030060002000033000017000016000000000000000000          STRAIGHT PARTY                                          UNDER VOTES                           PRECINCT 102                                           01 
01030060003000040000017000023000000000000000000          STRAIGHT PARTY                                          UNDER VOTES                           PRECINCT 201                                           01 
01030060004000087000039000048000000000000000000          STRAIGHT PARTY                                          UNDER VOTES                           PRECINCT 202                                           01 
01030060005000160000060000100000000000000000000          STRAIGHT PARTY                                          UNDER VOTES                           PRECINCT 301                                           01 
01030060006000141000057000084000000000000000000          STRAIGHT PARTY                                          UNDER VOTES                           PRECINCT 401                                           01 
01040010001000123000028000095000000000000000000REP       United States Senator                                   John Cornyn                           PRECINCT 101                                           01 
01040010002000066000028000038000000000000000000REP       United States Senator                                   John Cornyn                           PRECINCT 102                                           01 
01040010003000092000032000060000000000000000000REP       United States Senator                                   John Cornyn                           PRECINCT 201                                           01 
01040010004000171000070000101000000000000000000REP       United States Senator                                   John Cornyn                           PRECINCT 202                                           01 
01040010005000311000130000181000000000000000000REP       United States Senator                                   John Cornyn                           PRECINCT 301                                           01 
01040010006000241000104000137000000000000000000REP       United States Senator                                   John Cornyn                           PRECINCT 401                                           01 
01040020001000012000005000007000000000000000000DEM       United States Senator                                   David M. Alameel                      PRECINCT 101                                           01 
01040020002000005000000000005000000000000000000DEM       United States Senator                                   David M. Alameel                      PRECINCT 102                                           01 
01040020003000005000002000003000000000000000000DEM       United States Senator                                   David M. Alameel                      PRECINCT 201                                           01 
01040020004000008000003000005000000000000000000DEM       United States Senator                                   David M. Alameel                      PRECINCT 202                                           01 
01040020005000017000006000011000000000000000000DEM       United States Senator                                   David M. Alameel                      PRECINCT 301                                           01 
01040020006000028000012000016000000000000000000DEM       United States Senator                                   David M. Alameel                      PRECINCT 401                                           01 
01040030001000002000001000001000000000000000000LIB       United States Senator                                   Rebecca Paddock                       PRECINCT 101                                           01 
01040030002000000000000000000000000000000000000LIB       United States Senator                                   Rebecca Paddock                       PRECINCT 102                                           01 
01040030003000003000000000003000000000000000000LIB       United States Senator                                   Rebecca Paddock                       PRECINCT 201                                           01 
01040030004000005000003000002000000000000000000LIB       United States Senator                                   Rebecca Paddock                       PRECINCT 202                                           01 
01040030005000004000000000004000000000000000000LIB       United States Senator                                   Rebecca Paddock                       PRECINCT 301                                           01 
01040030006000010000004000006000000000000000000LIB       United States Senator                                   Rebecca Paddock                       PRECINCT 401                                           01 
01040040001000000000000000000000000000000000000GRN       United States Senator                                   Emily "Spicybrown" Sanchez            PRECINCT 101                                           01 
01040040002000000000000000000000000000000000000GRN       United States Senator                                   Emily "Spicybrown" Sanchez            PRECINCT 102                                           01 
01040040003000001000000000001000000000000000000GRN       United States Senator                                   Emily "Spicybrown" Sanchez            PRECINCT 201                                           01 
01040040004000000000000000000000000000000000000GRN       United States Senator                                   Emily "Spicybrown" Sanchez            PRECINCT 202                                           01 
01040040005000000000000000000000000000000000000GRN       United States Senator                                   Emily "Spicybrown" Sanchez            PRECINCT 301                                           01 
01040040006000001000001000000000000000000000000GRN       United States Senator                                   Emily "Spicybrown" Sanchez            PRECINCT 401                                           01 
01040050001000000000000000000000000000000000000NON       United States Senator                                   WRITE-IN                              PRECINCT 101                                           01 
01040050002000000000000000000000000000000000000NON       United States Senator                                   WRITE-IN                              PRECINCT 102                                           01 
01040050003000000000000000000000000000000000000NON       United States Senator                                   WRITE-IN                              PRECINCT 201                                           01 
01040050004000000000000000000000000000000000000NON       United States Senator                                   WRITE-IN                              PRECINCT 202                                           01 
01040050005000000000000000000000000000000000000NON       United States Senator                                   WRITE-IN                              PRECINCT 301                                           01 
01040050006000000000000000000000000000000000000NON       United States Senator                                   WRITE-IN                              PRECINCT 401                                           01 
01040060001000000000000000000000000000000000000          United States Senator                                   OVER VOTES                            PRECINCT 101                                           01 
01040060002000000000000000000000000000000000000          United States Senator                                   OVER VOTES                            PRECINCT 102                                           01 
01040060003000000000000000000000000000000000000          United States Senator                                   OVER VOTES                            PRECINCT 201                                           01 
01040060004000000000000000000000000000000000000          United States Senator                                   OVER VOTES                            PRECINCT 202                                           01 
01040060005000000000000000000000000000000000000          United States Senator                                   OVER VOTES                            PRECINCT 301                                           01 
01040060006000000000000000000000000000000000000          United States Senator                                   OVER VOTES                            PRECINCT 401                                           01 
01040070001000000000000000000000000000000000000          United States Senator                                   UNDER VOTES                           PRECINCT 101                                           01 
01040070002000000000000000000000000000000000000          United States Senator                                   UNDER VOTES                           PRECINCT 102                                           01 
01040070003000003000000000003000000000000000000          United States Senator                                   UNDER VOTES                           PRECINCT 201                                           01 
01040070004000000000000000000000000000000000000          United States Senator                                   UNDER VOTES                           PRECINCT 202                                           01 
01040070005000005000003000002000000000000000000          United States Senator                                   UNDER VOTES                           PRECINCT 301                                           01 
01040070006000001000001000000000000000000000000          United States Senator                                   UNDER VOTES                           PRECINCT 401                                           01 
01050010001000123000027000096000000000000000000REP       US Representative, District 13                          Mac Thornberry                        PRECINCT 101                                           01 
01050010002000065000027000038000000000000000000REP       US Representative, District 13                          Mac Thornberry                        PRECINCT 102                                           01 
01050010003000092000031000061000000000000000000REP       US Representative, District 13                          Mac Thornberry                        PRECINCT 201                                           01 
01050010004000170000068000102000000000000000000REP       US Representative, District 13                          Mac Thornberry                        PRECINCT 202                                           01 
01050010005000310000130000180000000000000000000REP       US Representative, District 13                          Mac Thornberry                        PRECINCT 301                                           01 
01050010006000239000103000136000000000000000000REP       US Representative, District 13                          Mac Thornberry                        PRECINCT 401                                           01 
01050020001000012000005000007000000000000000000DEM       US Representative, District 13                          Mike Minter                           PRECINCT 101                                           01 
01050020002000005000000000005000000000000000000DEM       US Representative, District 13                          Mike Minter                           PRECINCT 102                                           01 
01050020003000008000003000005000000000000000000DEM       US Representative, District 13                          Mike Minter                           PRECINCT 201                                           01 
01050020004000008000004000004000000000000000000DEM       US Representative, District 13                          Mike Minter                           PRECINCT 202                                           01 
01050020005000023000008000015000000000000000000DEM       US Representative, District 13                          Mike Minter                           PRECINCT 301                                           01 
01050020006000032000015000017000000000000000000DEM       US Representative, District 13                          Mike Minter                           PRECINCT 401                                           01 
01050030001000001000001000000000000000000000000LIB       US Representative, District 13                          Emily Pivoda                          PRECINCT 101                                           01 
01050030002000001000001000000000000000000000000LIB       US Representative, District 13                          Emily Pivoda                          PRECINCT 102                                           01 
01050030003000001000000000001000000000000000000LIB       US Representative, District 13                          Emily Pivoda                          PRECINCT 201                                           01 
01050030004000005000003000002000000000000000000LIB       US Representative, District 13                          Emily Pivoda                          PRECINCT 202                                           01 
01050030005000001000000000001000000000000000000LIB       US Representative, District 13                          Emily Pivoda                          PRECINCT 301                                           01 
01050030006000008000003000005000000000000000000LIB       US Representative, District 13                          Emily Pivoda                          PRECINCT 401                                           01 
01050040001000001000001000000000000000000000000GRN       US Representative, District 13                          Don Cook                              PRECINCT 101                                           01 
01050040002000000000000000000000000000000000000GRN       US Representative, District 13                          Don Cook                              PRECINCT 102                                           01 
01050040003000001000000000001000000000000000000GRN       US Representative, District 13                          Don Cook                              PRECINCT 201                                           01 
01050040004000000000000000000000000000000000000GRN       US Representative, District 13                          Don Cook                              PRECINCT 202                                           01 
01050040005000001000000000001000000000000000000GRN       US Representative, District 13                          Don Cook                              PRECINCT 301                                           01 
01050040006000001000000000001000000000000000000GRN       US Representative, District 13                          Don Cook                              PRECINCT 401                                           01 
01050050001000000000000000000000000000000000000          US Representative, District 13                          OVER VOTES                            PRECINCT 101                                           01 
01050050002000000000000000000000000000000000000          US Representative, District 13                          OVER VOTES                            PRECINCT 102                                           01 
01050050003000000000000000000000000000000000000          US Representative, District 13                          OVER VOTES                            PRECINCT 201                                           01 
01050050004000000000000000000000000000000000000          US Representative, District 13                          OVER VOTES                            PRECINCT 202                                           01 
01050050005000000000000000000000000000000000000          US Representative, District 13                          OVER VOTES                            PRECINCT 301                                           01 
01050050006000000000000000000000000000000000000          US Representative, District 13                          OVER VOTES                            PRECINCT 401                                           01 
01050060001000000000000000000000000000000000000          US Representative, District 13                          UNDER VOTES                           PRECINCT 101                                           01 
01050060002000000000000000000000000000000000000          US Representative, District 13                          UNDER VOTES                           PRECINCT 102                                           01 
01050060003000002000000000002000000000000000000          US Representative, District 13                          UNDER VOTES                           PRECINCT 201                                           01 
01050060004000001000001000000000000000000000000          US Representative, District 13                          UNDER VOTES                           PRECINCT 202                                           01 
01050060005000002000001000001000000000000000000          US Representative, District 13                          UNDER VOTES                           PRECINCT 301                                           01 
01050060006000001000001000000000000000000000000          US Representative, District 13                          UNDER VOTES                           PRECINCT 401                                           01 
01060010001000123000028000095000000000000000000REP       Govenor                                                 Greg Abbott                           PRECINCT 101                                           01 
01060010002000066000028000038000000000000000000REP       Govenor                                                 Greg Abbott                           PRECINCT 102                                           01 
01060010003000092000031000061000000000000000000REP       Govenor                                                 Greg Abbott                           PRECINCT 201                                           01 
01060010004000172000073000099000000000000000000REP       Govenor                                                 Greg Abbott                           PRECINCT 202                                           01 
01060010005000309000130000179000000000000000000REP       Govenor                                                 Greg Abbott                           PRECINCT 301                                           01 
01060010006000244000105000139000000000000000000REP       Govenor                                                 Greg Abbott                           PRECINCT 401                                           01 
01060020001000013000005000008000000000000000000DEM       Govenor                                                 Wendy R. Davis                        PRECINCT 101                                           01 
01060020002000005000000000005000000000000000000DEM       Govenor                                                 Wendy R. Davis                        PRECINCT 102                                           01 
01060020003000009000003000006000000000000000000DEM       Govenor                                                 Wendy R. Davis                        PRECINCT 201                                           01 
01060020004000008000003000005000000000000000000DEM       Govenor                                                 Wendy R. Davis                        PRECINCT 202                                           01 
01060020005000022000007000015000000000000000000DEM       Govenor                                                 Wendy R. Davis                        PRECINCT 301                                           01 
01060020006000030000013000017000000000000000000DEM       Govenor                                                 Wendy R. Davis                        PRECINCT 401                                           01 
01060030001000000000000000000000000000000000000LIB       Govenor                                                 Kathie Glass                          PRECINCT 101                                           01 
01060030002000000000000000000000000000000000000LIB       Govenor                                                 Kathie Glass                          PRECINCT 102                                           01 
01060030003000001000000000001000000000000000000LIB       Govenor                                                 Kathie Glass                          PRECINCT 201                                           01 
01060030004000003000000000003000000000000000000LIB       Govenor                                                 Kathie Glass                          PRECINCT 202                                           01 
01060030005000002000000000002000000000000000000LIB       Govenor                                                 Kathie Glass                          PRECINCT 301                                           01 
01060030006000006000003000003000000000000000000LIB       Govenor                                                 Kathie Glass                          PRECINCT 401                                           01 
01060040001000001000001000000000000000000000000GRN       Govenor                                                 Brandon Parmer                        PRECINCT 101                                           01 
01060040002000000000000000000000000000000000000GRN       Govenor                                                 Brandon Parmer                        PRECINCT 102                                           01 
01060040003000000000000000000000000000000000000GRN       Govenor                                                 Brandon Parmer                        PRECINCT 201                                           01 
01060040004000000000000000000000000000000000000GRN       Govenor                                                 Brandon Parmer                        PRECINCT 202                                           01 
01060040005000001000000000001000000000000000000GRN       Govenor                                                 Brandon Parmer                        PRECINCT 301                                           01 
01060040006000001000001000000000000000000000000GRN       Govenor                                                 Brandon Parmer                        PRECINCT 401                                           01 
01060050001000000000000000000000000000000000000NON       Govenor                                                 WRITE-IN                              PRECINCT 101                                           01 
01060050002000000000000000000000000000000000000NON       Govenor                                                 WRITE-IN                              PRECINCT 102                                           01 
01060050003000000000000000000000000000000000000NON       Govenor                                                 WRITE-IN                              PRECINCT 201                                           01 
01060050004000000000000000000000000000000000000NON       Govenor                                                 WRITE-IN                              PRECINCT 202                                           01 
01060050005000000000000000000000000000000000000NON       Govenor                                                 WRITE-IN                              PRECINCT 301                                           01 
01060050006000000000000000000000000000000000000NON       Govenor                                                 WRITE-IN                              PRECINCT 401                                           01 
01060060001000000000000000000000000000000000000          Govenor                                                 OVER VOTES                            PRECINCT 101                                           01 
01060060002000000000000000000000000000000000000          Govenor                                                 OVER VOTES                            PRECINCT 102                                           01 
01060060003000000000000000000000000000000000000          Govenor                                                 OVER VOTES                            PRECINCT 201                                           01 
01060060004000000000000000000000000000000000000          Govenor                                                 OVER VOTES                            PRECINCT 202                                           01 
01060060005000000000000000000000000000000000000          Govenor                                                 OVER VOTES                            PRECINCT 301                                           01 
01060060006000000000000000000000000000000000000          Govenor                                                 OVER VOTES                            PRECINCT 401                                           01 
01060070001000000000000000000000000000000000000          Govenor                                                 UNDER VOTES                           PRECINCT 101                                           01 
01060070002000000000000000000000000000000000000          Govenor                                                 UNDER VOTES                           PRECINCT 102                                           01 
01060070003000002000000000002000000000000000000          Govenor                                                 UNDER VOTES                           PRECINCT 201                                           01 
01060070004000001000000000001000000000000000000          Govenor                                                 UNDER VOTES                           PRECINCT 202                                           01 
01060070005000003000002000001000000000000000000          Govenor                                                 UNDER VOTES                           PRECINCT 301                                           01 
01060070006000000000000000000000000000000000000          Govenor                                                 UNDER VOTES                           PRECINCT 401                                           01 
01070010001000126000029000097000000000000000000REP       Lieutenant Governor                                     Dan Patrick                           PRECINCT 101                                           01 
01070010002000066000028000038000000000000000000REP       Lieutenant Governor                                     Dan Patrick                           PRECINCT 102                                           01 
01070010003000089000030000059000000000000000000REP       Lieutenant Governor                                     Dan Patrick                           PRECINCT 201                                           01 
01070010004000172000073000099000000000000000000REP       Lieutenant Governor                                     Dan Patrick                           PRECINCT 202                                           01 
01070010005000305000126000179000000000000000000REP       Lieutenant Governor                                     Dan Patrick                           PRECINCT 301                                           01 
01070010006000246000106000140000000000000000000REP       Lieutenant Governor                                     Dan Patrick                           PRECINCT 401                                           01 
01070020001000009000004000005000000000000000000DEM       Lieutenant Governor                                     Leticia Van de Putte                  PRECINCT 101                                           01 
01070020002000005000000000005000000000000000000DEM       Lieutenant Governor                                     Leticia Van de Putte                  PRECINCT 102                                           01 
01070020003000011000004000007000000000000000000DEM       Lieutenant Governor                                     Leticia Van de Putte                  PRECINCT 201                                           01 
01070020004000005000002000003000000000000000000DEM       Lieutenant Governor                                     Leticia Van de Putte                  PRECINCT 202                                           01 
01070020005000023000009000014000000000000000000DEM       Lieutenant Governor                                     Leticia Van de Putte                  PRECINCT 301                                           01 
01070020006000022000010000012000000000000000000DEM       Lieutenant Governor                                     Leticia Van de Putte                  PRECINCT 401                                           01 
01070030001000002000001000001000000000000000000LIB       Lieutenant Governor                                     Robert D. Butler                      PRECINCT 101                                           01 
01070030002000000000000000000000000000000000000LIB       Lieutenant Governor                                     Robert D. Butler                      PRECINCT 102                                           01 
01070030003000001000000000001000000000000000000LIB       Lieutenant Governor                                     Robert D. Butler                      PRECINCT 201                                           01 
01070030004000004000000000004000000000000000000LIB       Lieutenant Governor                                     Robert D. Butler                      PRECINCT 202                                           01 
01070030005000005000002000003000000000000000000LIB       Lieutenant Governor                                     Robert D. Butler                      PRECINCT 301                                           01 
01070030006000011000006000005000000000000000000LIB       Lieutenant Governor                                     Robert D. Butler                      PRECINCT 401                                           01 
01070040001000000000000000000000000000000000000GRN       Lieutenant Governor                                     Chandrakantha Courtney                PRECINCT 101                                           01 
01070040002000000000000000000000000000000000000GRN       Lieutenant Governor                                     Chandrakantha Courtney                PRECINCT 102                                           01 
01070040003000001000000000001000000000000000000GRN       Lieutenant Governor                                     Chandrakantha Courtney                PRECINCT 201                                           01 
01070040004000001000000000001000000000000000000GRN       Lieutenant Governor                                     Chandrakantha Courtney                PRECINCT 202                                           01 
01070040005000000000000000000000000000000000000GRN       Lieutenant Governor                                     Chandrakantha Courtney                PRECINCT 301                                           01 
01070040006000000000000000000000000000000000000GRN       Lieutenant Governor                                     Chandrakantha Courtney                PRECINCT 401                                           01 
01070050001000000000000000000000000000000000000          Lieutenant Governor                                     OVER VOTES                            PRECINCT 101                                           01 
01070050002000000000000000000000000000000000000          Lieutenant Governor                                     OVER VOTES                            PRECINCT 102                                           01 
01070050003000000000000000000000000000000000000          Lieutenant Governor                                     OVER VOTES                            PRECINCT 201                                           01 
01070050004000000000000000000000000000000000000          Lieutenant Governor                                     OVER VOTES                            PRECINCT 202                                           01 
01070050005000000000000000000000000000000000000          Lieutenant Governor                                     OVER VOTES                            PRECINCT 301                                           01 
01070050006000000000000000000000000000000000000          Lieutenant Governor                                     OVER VOTES                            PRECINCT 401                                           01 
01070060001000000000000000000000000000000000000          Lieutenant Governor                                     UNDER VOTES                           PRECINCT 101                                           01 
01070060002000000000000000000000000000000000000          Lieutenant Governor                                     UNDER VOTES                           PRECINCT 102                                           01 
01070060003000002000000000002000000000000000000          Lieutenant Governor                                     UNDER VOTES                           PRECINCT 201                                           01 
01070060004000002000001000001000000000000000000          Lieutenant Governor                                     UNDER VOTES                           PRECINCT 202                                           01 
01070060005000004000002000002000000000000000000          Lieutenant Governor                                     UNDER VOTES                           PRECINCT 301                                           01 
01070060006000002000000000002000000000000000000          Lieutenant Governor                                     UNDER VOTES                           PRECINCT 401                                           01 
01080010001000120000027000093000000000000000000REP       Attorney General                                        Ken Paxton                            PRECINCT 101                                           01 
01080010002000067000028000039000000000000000000REP       Attorney General                                        Ken Paxton                            PRECINCT 102                                           01 
01080010003000093000033000060000000000000000000REP       Attorney General                                        Ken Paxton                            PRECINCT 201                                           01 
01080010004000167000071000096000000000000000000REP       Attorney General                                        Ken Paxton                            PRECINCT 202                                           01 
01080010005000310000130000180000000000000000000REP       Attorney General                                        Ken Paxton                            PRECINCT 301                                           01 
01080010006000239000106000133000000000000000000REP       Attorney General                                        Ken Paxton                            PRECINCT 401                                           01 
01080020001000015000006000009000000000000000000DEM       Attorney General                                        Sam Houston                           PRECINCT 101                                           01 
01080020002000004000000000004000000000000000000DEM       Attorney General                                        Sam Houston                           PRECINCT 102                                           01 
01080020003000007000001000006000000000000000000DEM       Attorney General                                        Sam Houston                           PRECINCT 201                                           01 
01080020004000011000002000009000000000000000000DEM       Attorney General                                        Sam Houston                           PRECINCT 202                                           01 
01080020005000023000007000016000000000000000000DEM       Attorney General                                        Sam Houston                           PRECINCT 301                                           01 
01080020006000032000013000019000000000000000000DEM       Attorney General                                        Sam Houston                           PRECINCT 401                                           01 
01080030001000002000001000001000000000000000000LIB       Attorney General                                        Jamie Balagia                         PRECINCT 101                                           01 
01080030002000000000000000000000000000000000000LIB       Attorney General                                        Jamie Balagia                         PRECINCT 102                                           01 
01080030003000000000000000000000000000000000000LIB       Attorney General                                        Jamie Balagia                         PRECINCT 201                                           01 
01080030004000003000001000002000000000000000000LIB       Attorney General                                        Jamie Balagia                         PRECINCT 202                                           01 
01080030005000000000000000000000000000000000000LIB       Attorney General                                        Jamie Balagia                         PRECINCT 301                                           01 
01080030006000007000002000005000000000000000000LIB       Attorney General                                        Jamie Balagia                         PRECINCT 401                                           01 
01080040001000000000000000000000000000000000000GRN       Attorney General                                        Jamar Osborne                         PRECINCT 101                                           01 
01080040002000000000000000000000000000000000000GRN       Attorney General                                        Jamar Osborne                         PRECINCT 102                                           01 
01080040003000001000000000001000000000000000000GRN       Attorney General                                        Jamar Osborne                         PRECINCT 201                                           01 
01080040004000001000001000000000000000000000000GRN       Attorney General                                        Jamar Osborne                         PRECINCT 202                                           01 
01080040005000000000000000000000000000000000000GRN       Attorney General                                        Jamar Osborne                         PRECINCT 301                                           01 
01080040006000001000000000001000000000000000000GRN       Attorney General                                        Jamar Osborne                         PRECINCT 401                                           01 
01080050001000000000000000000000000000000000000          Attorney General                                        OVER VOTES                            PRECINCT 101                                           01 
01080050002000000000000000000000000000000000000          Attorney General                                        OVER VOTES                            PRECINCT 102                                           01 
01080050003000000000000000000000000000000000000          Attorney General                                        OVER VOTES                            PRECINCT 201                                           01 
01080050004000000000000000000000000000000000000          Attorney General                                        OVER VOTES                            PRECINCT 202                                           01 
01080050005000000000000000000000000000000000000          Attorney General                                        OVER VOTES                            PRECINCT 301                                           01 
01080050006000000000000000000000000000000000000          Attorney General                                        OVER VOTES                            PRECINCT 401                                           01 
01080060001000000000000000000000000000000000000          Attorney General                                        UNDER VOTES                           PRECINCT 101                                           01 
01080060002000000000000000000000000000000000000          Attorney General                                        UNDER VOTES                           PRECINCT 102                                           01 
01080060003000003000000000003000000000000000000          Attorney General                                        UNDER VOTES                           PRECINCT 201                                           01 
01080060004000002000001000001000000000000000000          Attorney General                                        UNDER VOTES                           PRECINCT 202                                           01 
01080060005000004000002000002000000000000000000          Attorney General                                        UNDER VOTES                           PRECINCT 301                                           01 
01080060006000002000001000001000000000000000000          Attorney General                                        UNDER VOTES                           PRECINCT 401                                           01 
01090010001000119000027000092000000000000000000REP       Comptroller of Public Accounts                          Glenn Hegar                           PRECINCT 101                                           01 
01090010002000064000026000038000000000000000000REP       Comptroller of Public Accounts                          Glenn Hegar                           PRECINCT 102                                           01 
01090010003000091000032000059000000000000000000REP       Comptroller of Public Accounts                          Glenn Hegar                           PRECINCT 201                                           01 
01090010004000160000067000093000000000000000000REP       Comptroller of Public Accounts                          Glenn Hegar                           PRECINCT 202                                           01 
01090010005000295000124000171000000000000000000REP       Comptroller of Public Accounts                          Glenn Hegar                           PRECINCT 301                                           01 
01090010006000232000104000128000000000000000000REP       Comptroller of Public Accounts                          Glenn Hegar                           PRECINCT 401                                           01 
01090020001000015000005000010000000000000000000DEM       Comptroller of Public Accounts                          Mike Collier                          PRECINCT 101                                           01 
01090020002000005000000000005000000000000000000DEM       Comptroller of Public Accounts                          Mike Collier                          PRECINCT 102                                           01 
01090020003000009000002000007000000000000000000DEM       Comptroller of Public Accounts                          Mike Collier                          PRECINCT 201                                           01 
01090020004000012000003000009000000000000000000DEM       Comptroller of Public Accounts                          Mike Collier                          PRECINCT 202                                           01 
01090020005000022000009000013000000000000000000DEM       Comptroller of Public Accounts                          Mike Collier                          PRECINCT 301                                           01 
01090020006000032000012000020000000000000000000DEM       Comptroller of Public Accounts                          Mike Collier                          PRECINCT 401                                           01 
01090030001000002000001000001000000000000000000LIB       Comptroller of Public Accounts                          Ben Sanders                           PRECINCT 101                                           01 
01090030002000000000000000000000000000000000000LIB       Comptroller of Public Accounts                          Ben Sanders                           PRECINCT 102                                           01 
01090030003000000000000000000000000000000000000LIB       Comptroller of Public Accounts                          Ben Sanders                           PRECINCT 201                                           01 
01090030004000006000003000003000000000000000000LIB       Comptroller of Public Accounts                          Ben Sanders                           PRECINCT 202                                           01 
01090030005000006000001000005000000000000000000LIB       Comptroller of Public Accounts                          Ben Sanders                           PRECINCT 301                                           01 
01090030006000011000003000008000000000000000000LIB       Comptroller of Public Accounts                          Ben Sanders                           PRECINCT 401                                           01 
01090040001000001000001000000000000000000000000GRN       Comptroller of Public Accounts                          Deb Shafto                            PRECINCT 101                                           01 
01090040002000000000000000000000000000000000000GRN       Comptroller of Public Accounts                          Deb Shafto                            PRECINCT 102                                           01 
01090040003000001000000000001000000000000000000GRN       Comptroller of Public Accounts                          Deb Shafto                            PRECINCT 201                                           01 
01090040004000000000000000000000000000000000000GRN       Comptroller of Public Accounts                          Deb Shafto                            PRECINCT 202                                           01 
01090040005000002000000000002000000000000000000GRN       Comptroller of Public Accounts                          Deb Shafto                            PRECINCT 301                                           01 
01090040006000000000000000000000000000000000000GRN       Comptroller of Public Accounts                          Deb Shafto                            PRECINCT 401                                           01 
01090050001000000000000000000000000000000000000          Comptroller of Public Accounts                          OVER VOTES                            PRECINCT 101                                           01 
01090050002000000000000000000000000000000000000          Comptroller of Public Accounts                          OVER VOTES                            PRECINCT 102                                           01 
01090050003000000000000000000000000000000000000          Comptroller of Public Accounts                          OVER VOTES                            PRECINCT 201                                           01 
01090050004000000000000000000000000000000000000          Comptroller of Public Accounts                          OVER VOTES                            PRECINCT 202                                           01 
01090050005000000000000000000000000000000000000          Comptroller of Public Accounts                          OVER VOTES                            PRECINCT 301                                           01 
01090050006000000000000000000000000000000000000          Comptroller of Public Accounts                          OVER VOTES                            PRECINCT 401                                           01 
01090060001000000000000000000000000000000000000          Comptroller of Public Accounts                          UNDER VOTES                           PRECINCT 101                                           01 
01090060002000002000002000000000000000000000000          Comptroller of Public Accounts                          UNDER VOTES                           PRECINCT 102                                           01 
01090060003000003000000000003000000000000000000          Comptroller of Public Accounts                          UNDER VOTES                           PRECINCT 201                                           01 
01090060004000006000003000003000000000000000000          Comptroller of Public Accounts                          UNDER VOTES                           PRECINCT 202                                           01 
01090060005000012000005000007000000000000000000          Comptroller of Public Accounts                          UNDER VOTES                           PRECINCT 301                                           01 
01090060006000006000003000003000000000000000000          Comptroller of Public Accounts                          UNDER VOTES                           PRECINCT 401                                           01 
01100010001000120000026000094000000000000000000REP       Commissioner of the General Land Office                 George P. Bush                        PRECINCT 101                                           01 
01100010002000064000026000038000000000000000000REP       Commissioner of the General Land Office                 George P. Bush                        PRECINCT 102                                           01 
01100010003000089000030000059000000000000000000REP       Commissioner of the General Land Office                 George P. Bush                        PRECINCT 201                                           01 
01100010004000164000067000097000000000000000000REP       Commissioner of the General Land Office                 George P. Bush                        PRECINCT 202                                           01 
01100010005000304000127000177000000000000000000REP       Commissioner of the General Land Office                 George P. Bush                        PRECINCT 301                                           01 
01100010006000232000101000131000000000000000000REP       Commissioner of the General Land Office                 George P. Bush                        PRECINCT 401                                           01 
01100020001000013000006000007000000000000000000DEM       Commissioner of the General Land Office                 John Cook                             PRECINCT 101                                           01 
01100020002000005000001000004000000000000000000DEM       Commissioner of the General Land Office                 John Cook                             PRECINCT 102                                           01 
01100020003000012000004000008000000000000000000DEM       Commissioner of the General Land Office                 John Cook                             PRECINCT 201                                           01 
01100020004000011000003000008000000000000000000DEM       Commissioner of the General Land Office                 John Cook                             PRECINCT 202                                           01 
01100020005000015000006000009000000000000000000DEM       Commissioner of the General Land Office                 John Cook                             PRECINCT 301                                           01 
01100020006000035000016000019000000000000000000DEM       Commissioner of the General Land Office                 John Cook                             PRECINCT 401                                           01 
01100030001000004000002000002000000000000000000LIB       Commissioner of the General Land Office                 Justin Knight                         PRECINCT 101                                           01 
01100030002000001000000000001000000000000000000LIB       Commissioner of the General Land Office                 Justin Knight                         PRECINCT 102                                           01 
01100030003000001000000000001000000000000000000LIB       Commissioner of the General Land Office                 Justin Knight                         PRECINCT 201                                           01 
01100030004000004000002000002000000000000000000LIB       Commissioner of the General Land Office                 Justin Knight                         PRECINCT 202                                           01 
01100030005000008000001000007000000000000000000LIB       Commissioner of the General Land Office                 Justin Knight                         PRECINCT 301                                           01 
01100030006000010000004000006000000000000000000LIB       Commissioner of the General Land Office                 Justin Knight                         PRECINCT 401                                           01 
01100040001000000000000000000000000000000000000GRN       Commissioner of the General Land Office                 Valerie Alessi                        PRECINCT 101                                           01 
01100040002000001000001000000000000000000000000GRN       Commissioner of the General Land Office                 Valerie Alessi                        PRECINCT 102                                           01 
01100040003000001000000000001000000000000000000GRN       Commissioner of the General Land Office                 Valerie Alessi                        PRECINCT 201                                           01 
01100040004000001000001000000000000000000000000GRN       Commissioner of the General Land Office                 Valerie Alessi                        PRECINCT 202                                           01 
01100040005000002000000000002000000000000000000GRN       Commissioner of the General Land Office                 Valerie Alessi                        PRECINCT 301                                           01 
01100040006000001000000000001000000000000000000GRN       Commissioner of the General Land Office                 Valerie Alessi                        PRECINCT 401                                           01 
01100050001000000000000000000000000000000000000          Commissioner of the General Land Office                 OVER VOTES                            PRECINCT 101                                           01 
01100050002000000000000000000000000000000000000          Commissioner of the General Land Office                 OVER VOTES                            PRECINCT 102                                           01 
01100050003000000000000000000000000000000000000          Commissioner of the General Land Office                 OVER VOTES                            PRECINCT 201                                           01 
01100050004000000000000000000000000000000000000          Commissioner of the General Land Office                 OVER VOTES                            PRECINCT 202                                           01 
01100050005000000000000000000000000000000000000          Commissioner of the General Land Office                 OVER VOTES                            PRECINCT 301                                           01 
01100050006000000000000000000000000000000000000          Commissioner of the General Land Office                 OVER VOTES                            PRECINCT 401                                           01 
01100060001000000000000000000000000000000000000          Commissioner of the General Land Office                 UNDER VOTES                           PRECINCT 101                                           01 
01100060002000000000000000000000000000000000000          Commissioner of the General Land Office                 UNDER VOTES                           PRECINCT 102                                           01 
01100060003000001000000000001000000000000000000          Commissioner of the General Land Office                 UNDER VOTES                           PRECINCT 201                                           01 
01100060004000004000003000001000000000000000000          Commissioner of the General Land Office                 UNDER VOTES                           PRECINCT 202                                           01 
01100060005000008000005000003000000000000000000          Commissioner of the General Land Office                 UNDER VOTES                           PRECINCT 301                                           01 
01100060006000003000001000002000000000000000000          Commissioner of the General Land Office                 UNDER VOTES                           PRECINCT 401                                           01 
01110010001000123000028000095000000000000000000REP       Commissioner of Agriculture                             Sid Miller                            PRECINCT 101                                           01 
01110010002000064000026000038000000000000000000REP       Commissioner of Agriculture                             Sid Miller                            PRECINCT 102                                           01 
01110010003000088000030000058000000000000000000REP       Commissioner of Agriculture                             Sid Miller                            PRECINCT 201                                           01 
01110010004000156000067000089000000000000000000REP       Commissioner of Agriculture                             Sid Miller                            PRECINCT 202                                           01 
01110010005000293000121000172000000000000000000REP       Commissioner of Agriculture                             Sid Miller                            PRECINCT 301                                           01 
01110010006000233000100000133000000000000000000REP       Commissioner of Agriculture                             Sid Miller                            PRECINCT 401                                           01 
01110020001000010000005000005000000000000000000DEM       Commissioner of Agriculture                             Jim Hogan                             PRECINCT 101                                           01 
01110020002000006000001000005000000000000000000DEM       Commissioner of Agriculture                             Jim Hogan                             PRECINCT 102                                           01 
01110020003000010000004000006000000000000000000DEM       Commissioner of Agriculture                             Jim Hogan                             PRECINCT 201                                           01 
01110020004000016000004000012000000000000000000DEM       Commissioner of Agriculture                             Jim Hogan                             PRECINCT 202                                           01 
01110020005000026000011000015000000000000000000DEM       Commissioner of Agriculture                             Jim Hogan                             PRECINCT 301                                           01 
01110020006000034000016000018000000000000000000DEM       Commissioner of Agriculture                             Jim Hogan                             PRECINCT 401                                           01 
01110030001000002000001000001000000000000000000LIB       Commissioner of Agriculture                             David (Rocky) Palmquist               PRECINCT 101                                           01 
01110030002000000000000000000000000000000000000LIB       Commissioner of Agriculture                             David (Rocky) Palmquist               PRECINCT 102                                           01 
01110030003000003000000000003000000000000000000LIB       Commissioner of Agriculture                             David (Rocky) Palmquist               PRECINCT 201                                           01 
01110030004000005000002000003000000000000000000LIB       Commissioner of Agriculture                             David (Rocky) Palmquist               PRECINCT 202                                           01 
01110030005000006000002000004000000000000000000LIB       Commissioner of Agriculture                             David (Rocky) Palmquist               PRECINCT 301                                           01 
01110030006000006000003000003000000000000000000LIB       Commissioner of Agriculture                             David (Rocky) Palmquist               PRECINCT 401                                           01 
01110040001000001000000000001000000000000000000GRN       Commissioner of Agriculture                             Kenneth Kendrick                      PRECINCT 101                                           01 
01110040002000000000000000000000000000000000000GRN       Commissioner of Agriculture                             Kenneth Kendrick                      PRECINCT 102                                           01 
01110040003000001000000000001000000000000000000GRN       Commissioner of Agriculture                             Kenneth Kendrick                      PRECINCT 201                                           01 
01110040004000003000001000002000000000000000000GRN       Commissioner of Agriculture                             Kenneth Kendrick                      PRECINCT 202                                           01 
01110040005000001000000000001000000000000000000GRN       Commissioner of Agriculture                             Kenneth Kendrick                      PRECINCT 301                                           01 
01110040006000002000000000002000000000000000000GRN       Commissioner of Agriculture                             Kenneth Kendrick                      PRECINCT 401                                           01 
01110050001000000000000000000000000000000000000          Commissioner of Agriculture                             OVER VOTES                            PRECINCT 101                                           01 
01110050002000000000000000000000000000000000000          Commissioner of Agriculture                             OVER VOTES                            PRECINCT 102                                           01 
01110050003000000000000000000000000000000000000          Commissioner of Agriculture                             OVER VOTES                            PRECINCT 201                                           01 
01110050004000000000000000000000000000000000000          Commissioner of Agriculture                             OVER VOTES                            PRECINCT 202                                           01 
01110050005000000000000000000000000000000000000          Commissioner of Agriculture                             OVER VOTES                            PRECINCT 301                                           01 
01110050006000000000000000000000000000000000000          Commissioner of Agriculture                             OVER VOTES                            PRECINCT 401                                           01 
01110060001000001000000000001000000000000000000          Commissioner of Agriculture                             UNDER VOTES                           PRECINCT 101                                           01 
01110060002000001000001000000000000000000000000          Commissioner of Agriculture                             UNDER VOTES                           PRECINCT 102                                           01 
01110060003000002000000000002000000000000000000          Commissioner of Agriculture                             UNDER VOTES                           PRECINCT 201                                           01 
01110060004000004000002000002000000000000000000          Commissioner of Agriculture                             UNDER VOTES                           PRECINCT 202                                           01 
01110060005000011000005000006000000000000000000          Commissioner of Agriculture                             UNDER VOTES                           PRECINCT 301                                           01 
01110060006000006000003000003000000000000000000          Commissioner of Agriculture                             UNDER VOTES                           PRECINCT 401                                           01 
01120010001000113000025000088000000000000000000REP       Railroad Commissioner                                   Ryan Sitton                           PRECINCT 101                                           01 
01120010002000062000024000038000000000000000000REP       Railroad Commissioner                                   Ryan Sitton                           PRECINCT 102                                           01 
01120010003000088000031000057000000000000000000REP       Railroad Commissioner                                   Ryan Sitton                           PRECINCT 201                                           01 
01120010004000159000068000091000000000000000000REP       Railroad Commissioner                                   Ryan Sitton                           PRECINCT 202                                           01 
01120010005000297000123000174000000000000000000REP       Railroad Commissioner                                   Ryan Sitton                           PRECINCT 301                                           01 
01120010006000226000097000129000000000000000000REP       Railroad Commissioner                                   Ryan Sitton                           PRECINCT 401                                           01 
01120020001000014000006000008000000000000000000DEM       Railroad Commissioner                                   Steve Brown                           PRECINCT 101                                           01 
01120020002000006000002000004000000000000000000DEM       Railroad Commissioner                                   Steve Brown                           PRECINCT 102                                           01 
01120020003000009000003000006000000000000000000DEM       Railroad Commissioner                                   Steve Brown                           PRECINCT 201                                           01 
01120020004000014000002000012000000000000000000DEM       Railroad Commissioner                                   Steve Brown                           PRECINCT 202                                           01 
01120020005000019000007000012000000000000000000DEM       Railroad Commissioner                                   Steve Brown                           PRECINCT 301                                           01 
01120020006000030000014000016000000000000000000DEM       Railroad Commissioner                                   Steve Brown                           PRECINCT 401                                           01 
01120030001000004000003000001000000000000000000LIB       Railroad Commissioner                                   Mark A. Miller                        PRECINCT 101                                           01 
01120030002000003000002000001000000000000000000LIB       Railroad Commissioner                                   Mark A. Miller                        PRECINCT 102                                           01 
01120030003000003000000000003000000000000000000LIB       Railroad Commissioner                                   Mark A. Miller                        PRECINCT 201                                           01 
01120030004000005000002000003000000000000000000LIB       Railroad Commissioner                                   Mark A. Miller                        PRECINCT 202                                           01 
01120030005000009000004000005000000000000000000LIB       Railroad Commissioner                                   Mark A. Miller                        PRECINCT 301                                           01 
01120030006000015000005000010000000000000000000LIB       Railroad Commissioner                                   Mark A. Miller                        PRECINCT 401                                           01 
01120040001000001000000000001000000000000000000GRN       Railroad Commissioner                                   Martina Salinas                       PRECINCT 101                                           01 
01120040002000000000000000000000000000000000000GRN       Railroad Commissioner                                   Martina Salinas                       PRECINCT 102                                           01 
01120040003000001000000000001000000000000000000GRN       Railroad Commissioner                                   Martina Salinas                       PRECINCT 201                                           01 
01120040004000001000001000000000000000000000000GRN       Railroad Commissioner                                   Martina Salinas                       PRECINCT 202                                           01 
01120040005000000000000000000000000000000000000GRN       Railroad Commissioner                                   Martina Salinas                       PRECINCT 301                                           01 
01120040006000001000001000000000000000000000000GRN       Railroad Commissioner                                   Martina Salinas                       PRECINCT 401                                           01 
01120050001000001000000000001000000000000000000          Railroad Commissioner                                   OVER VOTES                            PRECINCT 101                                           01 
01120050002000000000000000000000000000000000000          Railroad Commissioner                                   OVER VOTES                            PRECINCT 102                                           01 
01120050003000000000000000000000000000000000000          Railroad Commissioner                                   OVER VOTES                            PRECINCT 201                                           01 
01120050004000000000000000000000000000000000000          Railroad Commissioner                                   OVER VOTES                            PRECINCT 202                                           01 
01120050005000000000000000000000000000000000000          Railroad Commissioner                                   OVER VOTES                            PRECINCT 301                                           01 
01120050006000000000000000000000000000000000000          Railroad Commissioner                                   OVER VOTES                            PRECINCT 401                                           01 
01120060001000004000000000004000000000000000000          Railroad Commissioner                                   UNDER VOTES                           PRECINCT 101                                           01 
01120060002000000000000000000000000000000000000          Railroad Commissioner                                   UNDER VOTES                           PRECINCT 102                                           01 
01120060003000003000000000003000000000000000000          Railroad Commissioner                                   UNDER VOTES                           PRECINCT 201                                           01 
01120060004000005000003000002000000000000000000          Railroad Commissioner                                   UNDER VOTES                           PRECINCT 202                                           01 
01120060005000012000005000007000000000000000000          Railroad Commissioner                                   UNDER VOTES                           PRECINCT 301                                           01 
01120060006000009000005000004000000000000000000          Railroad Commissioner                                   UNDER VOTES                           PRECINCT 401                                           01 
01130010001000116000027000089000000000000000000REP       Chief Justice, Supreme Court                            Nathan Hecht                          PRECINCT 101                                           01 
01130010002000063000026000037000000000000000000REP       Chief Justice, Supreme Court                            Nathan Hecht                          PRECINCT 102                                           01 
01130010003000091000032000059000000000000000000REP       Chief Justice, Supreme Court                            Nathan Hecht                          PRECINCT 201                                           01 
01130010004000162000065000097000000000000000000REP       Chief Justice, Supreme Court                            Nathan Hecht                          PRECINCT 202                                           01 
01130010005000297000124000173000000000000000000REP       Chief Justice, Supreme Court                            Nathan Hecht                          PRECINCT 301                                           01 
01130010006000233000101000132000000000000000000REP       Chief Justice, Supreme Court                            Nathan Hecht                          PRECINCT 401                                           01 
01130020001000012000004000008000000000000000000DEM       Chief Justice, Supreme Court                            William Moody                         PRECINCT 101                                           01 
01130020002000005000000000005000000000000000000DEM       Chief Justice, Supreme Court                            William Moody                         PRECINCT 102                                           01 
01130020003000008000002000006000000000000000000DEM       Chief Justice, Supreme Court                            William Moody                         PRECINCT 201                                           01 
01130020004000010000004000006000000000000000000DEM       Chief Justice, Supreme Court                            William Moody                         PRECINCT 202                                           01 
01130020005000022000006000016000000000000000000DEM       Chief Justice, Supreme Court                            William Moody                         PRECINCT 301                                           01 
01130020006000028000013000015000000000000000000DEM       Chief Justice, Supreme Court                            William Moody                         PRECINCT 401                                           01 
01130030001000004000002000002000000000000000000LIB       Chief Justice, Supreme Court                            Tom Oxford                            PRECINCT 101                                           01 
01130030002000002000001000001000000000000000000LIB       Chief Justice, Supreme Court                            Tom Oxford                            PRECINCT 102                                           01 
01130030003000003000000000003000000000000000000LIB       Chief Justice, Supreme Court                            Tom Oxford                            PRECINCT 201                                           01 
01130030004000004000002000002000000000000000000LIB       Chief Justice, Supreme Court                            Tom Oxford                            PRECINCT 202                                           01 
01130030005000006000002000004000000000000000000LIB       Chief Justice, Supreme Court                            Tom Oxford                            PRECINCT 301                                           01 
01130030006000012000004000008000000000000000000LIB       Chief Justice, Supreme Court                            Tom Oxford                            PRECINCT 401                                           01 
01130040001000000000000000000000000000000000000          Chief Justice, Supreme Court                            OVER VOTES                            PRECINCT 101                                           01 
01130040002000000000000000000000000000000000000          Chief Justice, Supreme Court                            OVER VOTES                            PRECINCT 102                                           01 
01130040003000000000000000000000000000000000000          Chief Justice, Supreme Court                            OVER VOTES                            PRECINCT 201                                           01 
01130040004000000000000000000000000000000000000          Chief Justice, Supreme Court                            OVER VOTES                            PRECINCT 202                                           01 
01130040005000000000000000000000000000000000000          Chief Justice, Supreme Court                            OVER VOTES                            PRECINCT 301                                           01 
01130040006000000000000000000000000000000000000          Chief Justice, Supreme Court                            OVER VOTES                            PRECINCT 401                                           01 
01130050001000005000001000004000000000000000000          Chief Justice, Supreme Court                            UNDER VOTES                           PRECINCT 101                                           01 
01130050002000001000001000000000000000000000000          Chief Justice, Supreme Court                            UNDER VOTES                           PRECINCT 102                                           01 
01130050003000002000000000002000000000000000000          Chief Justice, Supreme Court                            UNDER VOTES                           PRECINCT 201                                           01 
01130050004000008000005000003000000000000000000          Chief Justice, Supreme Court                            UNDER VOTES                           PRECINCT 202                                           01 
01130050005000012000007000005000000000000000000          Chief Justice, Supreme Court                            UNDER VOTES                           PRECINCT 301                                           01 
01130050006000008000004000004000000000000000000          Chief Justice, Supreme Court                            UNDER VOTES                           PRECINCT 401                                           01 
01140010001000119000028000091000000000000000000REP       Justice, Supreme Court, Place 6                         Jeff Brown                            PRECINCT 101                                           01 
01140010002000062000027000035000000000000000000REP       Justice, Supreme Court, Place 6                         Jeff Brown                            PRECINCT 102                                           01 
01140010003000091000032000059000000000000000000REP       Justice, Supreme Court, Place 6                         Jeff Brown                            PRECINCT 201                                           01 
01140010004000161000067000094000000000000000000REP       Justice, Supreme Court, Place 6                         Jeff Brown                            PRECINCT 202                                           01 
01140010005000304000126000178000000000000000000REP       Justice, Supreme Court, Place 6                         Jeff Brown                            PRECINCT 301                                           01 
01140010006000235000101000134000000000000000000REP       Justice, Supreme Court, Place 6                         Jeff Brown                            PRECINCT 401                                           01 
01140020001000012000004000008000000000000000000DEM       Justice, Supreme Court, Place 6                         Lawrence Edward Meyers                PRECINCT 101                                           01 
01140020002000005000000000005000000000000000000DEM       Justice, Supreme Court, Place 6                         Lawrence Edward Meyers                PRECINCT 102                                           01 
01140020003000008000002000006000000000000000000DEM       Justice, Supreme Court, Place 6                         Lawrence Edward Meyers                PRECINCT 201                                           01 
01140020004000009000002000007000000000000000000DEM       Justice, Supreme Court, Place 6                         Lawrence Edward Meyers                PRECINCT 202                                           01 
01140020005000014000005000009000000000000000000DEM       Justice, Supreme Court, Place 6                         Lawrence Edward Meyers                PRECINCT 301                                           01 
01140020006000028000014000014000000000000000000DEM       Justice, Supreme Court, Place 6                         Lawrence Edward Meyers                PRECINCT 401                                           01 
01140030001000002000001000001000000000000000000LIB       Justice, Supreme Court, Place 6                         Mark Ash                              PRECINCT 101                                           01 
01140030002000003000000000003000000000000000000LIB       Justice, Supreme Court, Place 6                         Mark Ash                              PRECINCT 102                                           01 
01140030003000002000000000002000000000000000000LIB       Justice, Supreme Court, Place 6                         Mark Ash                              PRECINCT 201                                           01 
01140030004000006000002000004000000000000000000LIB       Justice, Supreme Court, Place 6                         Mark Ash                              PRECINCT 202                                           01 
01140030005000006000001000005000000000000000000LIB       Justice, Supreme Court, Place 6                         Mark Ash                              PRECINCT 301                                           01 
01140030006000009000002000007000000000000000000LIB       Justice, Supreme Court, Place 6                         Mark Ash                              PRECINCT 401                                           01 
01140040001000000000000000000000000000000000000          Justice, Supreme Court, Place 6                         OVER VOTES                            PRECINCT 101                                           01 
01140040002000000000000000000000000000000000000          Justice, Supreme Court, Place 6                         OVER VOTES                            PRECINCT 102                                           01 
01140040003000000000000000000000000000000000000          Justice, Supreme Court, Place 6                         OVER VOTES                            PRECINCT 201                                           01 
01140040004000000000000000000000000000000000000          Justice, Supreme Court, Place 6                         OVER VOTES                            PRECINCT 202                                           01 
01140040005000000000000000000000000000000000000          Justice, Supreme Court, Place 6                         OVER VOTES                            PRECINCT 301                                           01 
01140040006000000000000000000000000000000000000          Justice, Supreme Court, Place 6                         OVER VOTES                            PRECINCT 401                                           01 
01140050001000004000001000003000000000000000000          Justice, Supreme Court, Place 6                         UNDER VOTES                           PRECINCT 101                                           01 
01140050002000001000001000000000000000000000000          Justice, Supreme Court, Place 6                         UNDER VOTES                           PRECINCT 102                                           01 
01140050003000003000000000003000000000000000000          Justice, Supreme Court, Place 6                         UNDER VOTES                           PRECINCT 201                                           01 
01140050004000008000005000003000000000000000000          Justice, Supreme Court, Place 6                         UNDER VOTES                           PRECINCT 202                                           01 
01140050005000013000007000006000000000000000000          Justice, Supreme Court, Place 6                         UNDER VOTES                           PRECINCT 301                                           01 
01140050006000009000005000004000000000000000000          Justice, Supreme Court, Place 6                         UNDER VOTES                           PRECINCT 401                                           01 
01150010001000118000028000090000000000000000000REP       Justice, Supreme Court, Place 7                         Jeff Boyd                             PRECINCT 101                                           01 
01150010002000063000026000037000000000000000000REP       Justice, Supreme Court, Place 7                         Jeff Boyd                             PRECINCT 102                                           01 
01150010003000091000030000061000000000000000000REP       Justice, Supreme Court, Place 7                         Jeff Boyd                             PRECINCT 201                                           01 
01150010004000161000065000096000000000000000000REP       Justice, Supreme Court, Place 7                         Jeff Boyd                             PRECINCT 202                                           01 
01150010005000299000124000175000000000000000000REP       Justice, Supreme Court, Place 7                         Jeff Boyd                             PRECINCT 301                                           01 
01150010006000229000101000128000000000000000000REP       Justice, Supreme Court, Place 7                         Jeff Boyd                             PRECINCT 401                                           01 
01150020001000010000003000007000000000000000000DEM       Justice, Supreme Court, Place 7                         Gina Benavides                        PRECINCT 101                                           01 
01150020002000005000000000005000000000000000000DEM       Justice, Supreme Court, Place 7                         Gina Benavides                        PRECINCT 102                                           01 
01150020003000008000003000005000000000000000000DEM       Justice, Supreme Court, Place 7                         Gina Benavides                        PRECINCT 201                                           01 
01150020004000009000003000006000000000000000000DEM       Justice, Supreme Court, Place 7                         Gina Benavides                        PRECINCT 202                                           01 
01150020005000015000005000010000000000000000000DEM       Justice, Supreme Court, Place 7                         Gina Benavides                        PRECINCT 301                                           01 
01150020006000032000013000019000000000000000000DEM       Justice, Supreme Court, Place 7                         Gina Benavides                        PRECINCT 401                                           01 
01150030001000005000002000003000000000000000000LIB       Justice, Supreme Court, Place 7                         Don Fulton                            PRECINCT 101                                           01 
01150030002000002000001000001000000000000000000LIB       Justice, Supreme Court, Place 7                         Don Fulton                            PRECINCT 102                                           01 
01150030003000002000001000001000000000000000000LIB       Justice, Supreme Court, Place 7                         Don Fulton                            PRECINCT 201                                           01 
01150030004000005000002000003000000000000000000LIB       Justice, Supreme Court, Place 7                         Don Fulton                            PRECINCT 202                                           01 
01150030005000007000002000005000000000000000000LIB       Justice, Supreme Court, Place 7                         Don Fulton                            PRECINCT 301                                           01 
01150030006000010000002000008000000000000000000LIB       Justice, Supreme Court, Place 7                         Don Fulton                            PRECINCT 401                                           01 
01150040001000000000000000000000000000000000000GRN       Justice, Supreme Court, Place 7                         Charles E. Waterbury                  PRECINCT 101                                           01 
01150040002000000000000000000000000000000000000GRN       Justice, Supreme Court, Place 7                         Charles E. Waterbury                  PRECINCT 102                                           01 
01150040003000000000000000000000000000000000000GRN       Justice, Supreme Court, Place 7                         Charles E. Waterbury                  PRECINCT 201                                           01 
01150040004000001000001000000000000000000000000GRN       Justice, Supreme Court, Place 7                         Charles E. Waterbury                  PRECINCT 202                                           01 
01150040005000003000001000002000000000000000000GRN       Justice, Supreme Court, Place 7                         Charles E. Waterbury                  PRECINCT 301                                           01 
01150040006000000000000000000000000000000000000GRN       Justice, Supreme Court, Place 7                         Charles E. Waterbury                  PRECINCT 401                                           01 
01150050001000000000000000000000000000000000000          Justice, Supreme Court, Place 7                         OVER VOTES                            PRECINCT 101                                           01 
01150050002000000000000000000000000000000000000          Justice, Supreme Court, Place 7                         OVER VOTES                            PRECINCT 102                                           01 
01150050003000000000000000000000000000000000000          Justice, Supreme Court, Place 7                         OVER VOTES                            PRECINCT 201                                           01 
01150050004000000000000000000000000000000000000          Justice, Supreme Court, Place 7                         OVER VOTES                            PRECINCT 202                                           01 
01150050005000000000000000000000000000000000000          Justice, Supreme Court, Place 7                         OVER VOTES                            PRECINCT 301                                           01 
