01030010001000102REP       BALLOTS CAST - REPUBLICAN PARTY                         BALLOTS CAST - REPUBLICAN PARTY       PRECINCT 101                                           00 
01030010002000097REP       BALLOTS CAST - REPUBLICAN PARTY                         BALLOTS CAST - REPUBLICAN PARTY       PRECINCT 201                                           00 
01030010003000010REP       BALLOTS CAST - REPUBLICAN PARTY                         BALLOTS CAST - REPUBLICAN PARTY       PRECINCT 202                                           00 
01030010004000140REP       BALLOTS CAST - REPUBLICAN PARTY                         BALLOTS CAST - REPUBLICAN PARTY       PRECINCT 301                                           00 
01030010005000023REP       BALLOTS CAST - REPUBLICAN PARTY                         BALLOTS CAST - REPUBLICAN PARTY       PRECINCT 302                                           00 
01030010006000040REP       BALLOTS CAST - REPUBLICAN PARTY                         BALLOTS CAST - REPUBLICAN PARTY       PRECINCT 303                                           00 
01030010007000136REP       BALLOTS CAST - REPUBLICAN PARTY                         BALLOTS CAST - REPUBLICAN PARTY       PRECINCT 401                                           00 
01030010008000057REP       BALLOTS CAST - REPUBLICAN PARTY                         BALLOTS CAST - REPUBLICAN PARTY       PRECINCT 402                                           00 
01050010001000013REP       United States Senator                                   Steve Stockman                        PRECINCT 101                                           01 
01050010002000011REP       United States Senator                                   Steve Stockman                        PRECINCT 201                                           01 
01050010003000004REP       United States Senator                                   Steve Stockman                        PRECINCT 202                                           01 
01050010004000014REP       United States Senator                                   Steve Stockman                        PRECINCT 301                                           01 
01050010005000005REP       United States Senator                                   Steve Stockman                        PRECINCT 302                                           01 
01050010006000005REP       United States Senator                                   Steve Stockman                        PRECINCT 303                                           01 
01050010007000014REP       United States Senator                                   Steve Stockman                        PRECINCT 401                                           01 
01050010008000004REP       United States Senator                                   Steve Stockman                        PRECINCT 402                                           01 
01050020001000005REP       United States Senator                                   Linda Vega                            PRECINCT 101                                           01 
01050020002000003REP       United States Senator                                   Linda Vega                            PRECINCT 201                                           01 
01050020003000000REP       United States Senator                                   Linda Vega                            PRECINCT 202                                           01 
01050020004000003REP       United States Senator                                   Linda Vega                            PRECINCT 301                                           01 
01050020005000003REP       United States Senator                                   Linda Vega                            PRECINCT 302                                           01 
01050020006000000REP       United States Senator                                   Linda Vega                            PRECINCT 303                                           01 
01050020007000010REP       United States Senator                                   Linda Vega                            PRECINCT 401                                           01 
01050020008000003REP       United States Senator                                   Linda Vega                            PRECINCT 402                                           01 
01050030001000004REP       United States Senator                                   Curt Cleaver                          PRECINCT 101                                           01 
01050030002000001REP       United States Senator                                   Curt Cleaver                          PRECINCT 201                                           01 
01050030003000000REP       United States Senator                                   Curt Cleaver                          PRECINCT 202                                           01 
01050030004000002REP       United States Senator                                   Curt Cleaver                          PRECINCT 301                                           01 
01050030005000000REP       United States Senator                                   Curt Cleaver                          PRECINCT 302                                           01 
01050030006000000REP       United States Senator                                   Curt Cleaver                          PRECINCT 303                                           01 
01050030007000000REP       United States Senator                                   Curt Cleaver                          PRECINCT 401                                           01 
01050030008000000REP       United States Senator                                   Curt Cleaver                          PRECINCT 402                                           01 
01050040001000004REP       United States Senator                                   Dwayne Stovall                        PRECINCT 101                                           01 
01050040002000002REP       United States Senator                                   Dwayne Stovall                        PRECINCT 201                                           01 
01050040003000001REP       United States Senator                                   Dwayne Stovall                        PRECINCT 202                                           01 
01050040004000004REP       United States Senator                                   Dwayne Stovall                        PRECINCT 301                                           01 
01050040005000000REP       United States Senator                                   Dwayne Stovall                        PRECINCT 302                                           01 
01050040006000007REP       United States Senator                                   Dwayne Stovall                        PRECINCT 303                                           01 
01050040007000002REP       United States Senator                                   Dwayne Stovall                        PRECINCT 401                                           01 
01050040008000001REP       United States Senator                                   Dwayne Stovall                        PRECINCT 402                                           01 
01050050001000000REP       United States Senator                                   Chris Mapp                            PRECINCT 101                                           01 
01050050002000000REP       United States Senator                                   Chris Mapp                            PRECINCT 201                                           01 
01050050003000000REP       United States Senator                                   Chris Mapp                            PRECINCT 202                                           01 
01050050004000000REP       United States Senator                                   Chris Mapp                            PRECINCT 301                                           01 
01050050005000000REP       United States Senator                                   Chris Mapp                            PRECINCT 302                                           01 
01050050006000001REP       United States Senator                                   Chris Mapp                            PRECINCT 303                                           01 
01050050007000000REP       United States Senator                                   Chris Mapp                            PRECINCT 401                                           01 
01050050008000000REP       United States Senator                                   Chris Mapp                            PRECINCT 402                                           01 
01050060001000008REP       United States Senator                                   Ken Cope                              PRECINCT 101                                           01 
01050060002000005REP       United States Senator                                   Ken Cope                              PRECINCT 201                                           01 
01050060003000000REP       United States Senator                                   Ken Cope                              PRECINCT 202                                           01 
01050060004000010REP       United States Senator                                   Ken Cope                              PRECINCT 301                                           01 
01050060005000002REP       United States Senator                                   Ken Cope                              PRECINCT 302                                           01 
01050060006000000REP       United States Senator                                   Ken Cope                              PRECINCT 303                                           01 
01050060007000007REP       United States Senator                                   Ken Cope                              PRECINCT 401                                           01 
01050060008000004REP       United States Senator                                   Ken Cope                              PRECINCT 402                                           01 
01050070001000000REP       United States Senator                                   Reid Reasor                           PRECINCT 101                                           01 
01050070002000001REP       United States Senator                                   Reid Reasor                           PRECINCT 201                                           01 
01050070003000000REP       United States Senator                                   Reid Reasor                           PRECINCT 202                                           01 
01050070004000001REP       United States Senator                                   Reid Reasor                           PRECINCT 301                                           01 
01050070005000000REP       United States Senator                                   Reid Reasor                           PRECINCT 302                                           01 
01050070006000000REP       United States Senator                                   Reid Reasor                           PRECINCT 303                                           01 
01050070007000004REP       United States Senator                                   Reid Reasor                           PRECINCT 401                                           01 
01050070008000001REP       United States Senator                                   Reid Reasor                           PRECINCT 402                                           01 
01050080001000060REP       United States Senator                                   John Cornyn                           PRECINCT 101                                           01 
01050080002000056REP       United States Senator                                   John Cornyn                           PRECINCT 201                                           01 
01050080003000005REP       United States Senator                                   John Cornyn                           PRECINCT 202                                           01 
01050080004000093REP       United States Senator                                   John Cornyn                           PRECINCT 301                                           01 
01050080005000013REP       United States Senator                                   John Cornyn                           PRECINCT 302                                           01 
01050080006000026REP       United States Senator                                   John Cornyn                           PRECINCT 303                                           01 
01050080007000078REP       United States Senator                                   John Cornyn                           PRECINCT 401                                           01 
01050080008000035REP       United States Senator                                   John Cornyn                           PRECINCT 402                                           01 
01060010001000020REP       United States Representative, Dist 13                   Elaine Hays                           PRECINCT 101                                           01 
01060010002000016REP       United States Representative, Dist 13                   Elaine Hays                           PRECINCT 201                                           01 
01060010003000002REP       United States Representative, Dist 13                   Elaine Hays                           PRECINCT 202                                           01 
01060010004000037REP       United States Representative, Dist 13                   Elaine Hays                           PRECINCT 301                                           01 
01060010005000011REP       United States Representative, Dist 13                   Elaine Hays                           PRECINCT 302                                           01 
01060010006000007REP       United States Representative, Dist 13                   Elaine Hays                           PRECINCT 303                                           01 
01060010007000032REP       United States Representative, Dist 13                   Elaine Hays                           PRECINCT 401                                           01 
01060010008000008REP       United States Representative, Dist 13                   Elaine Hays                           PRECINCT 402                                           01 
01060020001000071REP       United States Representative, Dist 13                   Mac Thornberry                        PRECINCT 101                                           01 
01060020002000065REP       United States Representative, Dist 13                   Mac Thornberry                        PRECINCT 201                                           01 
01060020003000005REP       United States Representative, Dist 13                   Mac Thornberry                        PRECINCT 202                                           01 
01060020004000092REP       United States Representative, Dist 13                   Mac Thornberry                        PRECINCT 301                                           01 
01060020005000010REP       United States Representative, Dist 13                   Mac Thornberry                        PRECINCT 302                                           01 
01060020006000029REP       United States Representative, Dist 13                   Mac Thornberry                        PRECINCT 303                                           01 
01060020007000086REP       United States Representative, Dist 13                   Mac Thornberry                        PRECINCT 401                                           01 
01060020008000042REP       United States Representative, Dist 13                   Mac Thornberry                        PRECINCT 402                                           01 
01060030001000008REP       United States Representative, Dist 13                   Pam Barlow                            PRECINCT 101                                           01 
01060030002000010REP       United States Representative, Dist 13                   Pam Barlow                            PRECINCT 201                                           01 
01060030003000003REP       United States Representative, Dist 13                   Pam Barlow                            PRECINCT 202                                           01 
01060030004000008REP       United States Representative, Dist 13                   Pam Barlow                            PRECINCT 301                                           01 
01060030005000002REP       United States Representative, Dist 13                   Pam Barlow                            PRECINCT 302                                           01 
01060030006000004REP       United States Representative, Dist 13                   Pam Barlow                            PRECINCT 303                                           01 
01060030007000007REP       United States Representative, Dist 13                   Pam Barlow                            PRECINCT 401                                           01 
01060030008000005REP       United States Representative, Dist 13                   Pam Barlow                            PRECINCT 402                                           01 
01070010001000004REP       Govenor                                                 SECEDE Kilgore                        PRECINCT 101                                           01 
01070010002000001REP       Govenor                                                 SECEDE Kilgore                        PRECINCT 201                                           01 
01070010003000000REP       Govenor                                                 SECEDE Kilgore                        PRECINCT 202                                           01 
01070010004000001REP       Govenor                                                 SECEDE Kilgore                        PRECINCT 301                                           01 
01070010005000000REP       Govenor                                                 SECEDE Kilgore                        PRECINCT 302                                           01 
01070010006000000REP       Govenor                                                 SECEDE Kilgore                        PRECINCT 303                                           01 
01070010007000005REP       Govenor                                                 SECEDE Kilgore                        PRECINCT 401                                           01 
01070010008000000REP       Govenor                                                 SECEDE Kilgore                        PRECINCT 402                                           01 
01070020001000085REP       Govenor                                                 Greg Abbott                           PRECINCT 101                                           01 
01070020002000073REP       Govenor                                                 Greg Abbott                           PRECINCT 201                                           01 
01070020003000008REP       Govenor                                                 Greg Abbott                           PRECINCT 202                                           01 
01070020004000128REP       Govenor                                                 Greg Abbott                           PRECINCT 301                                           01 
01070020005000021REP       Govenor                                                 Greg Abbott                           PRECINCT 302                                           01 
01070020006000037REP       Govenor                                                 Greg Abbott                           PRECINCT 303                                           01 
01070020007000102REP       Govenor                                                 Greg Abbott                           PRECINCT 401                                           01 
01070020008000050REP       Govenor                                                 Greg Abbott                           PRECINCT 402                                           01 
01070030001000004REP       Govenor                                                 Lisa Fritsch                          PRECINCT 101                                           01 
01070030002000003REP       Govenor                                                 Lisa Fritsch                          PRECINCT 201                                           01 
01070030003000001REP       Govenor                                                 Lisa Fritsch                          PRECINCT 202                                           01 
01070030004000004REP       Govenor                                                 Lisa Fritsch                          PRECINCT 301                                           01 
01070030005000002REP       Govenor                                                 Lisa Fritsch                          PRECINCT 302                                           01 
01070030006000001REP       Govenor                                                 Lisa Fritsch                          PRECINCT 303                                           01 
01070030007000006REP       Govenor                                                 Lisa Fritsch                          PRECINCT 401                                           01 
01070030008000001REP       Govenor                                                 Lisa Fritsch                          PRECINCT 402                                           01 
01070040001000003REP       Govenor                                                 Miriam Martinez                       PRECINCT 101                                           01 
01070040002000001REP       Govenor                                                 Miriam Martinez                       PRECINCT 201                                           01 
01070040003000000REP       Govenor                                                 Miriam Martinez                       PRECINCT 202                                           01 
01070040004000001REP       Govenor                                                 Miriam Martinez                       PRECINCT 301                                           01 
01070040005000000REP       Govenor                                                 Miriam Martinez                       PRECINCT 302                                           01 
01070040006000000REP       Govenor                                                 Miriam Martinez                       PRECINCT 303                                           01 
01070040007000006REP       Govenor                                                 Miriam Martinez                       PRECINCT 401                                           01 
01070040008000000REP       Govenor                                                 Miriam Martinez                       PRECINCT 402                                           01 
01080010001000029REP       Lieutenant Governor                                     Todd Staples                          PRECINCT 101                                           01 
01080010002000018REP       Lieutenant Governor                                     Todd Staples                          PRECINCT 201                                           01 
01080010003000003REP       Lieutenant Governor                                     Todd Staples                          PRECINCT 202                                           01 
01080010004000025REP       Lieutenant Governor                                     Todd Staples                          PRECINCT 301                                           01 
01080010005000003REP       Lieutenant Governor                                     Todd Staples                          PRECINCT 302                                           01 
01080010006000004REP       Lieutenant Governor                                     Todd Staples                          PRECINCT 303                                           01 
01080010007000030REP       Lieutenant Governor                                     Todd Staples                          PRECINCT 401                                           01 
01080010008000015REP       Lieutenant Governor                                     Todd Staples                          PRECINCT 402                                           01 
01080020001000011REP       Lieutenant Governor                                     Jerry Patterson                       PRECINCT 101                                           01 
01080020002000009REP       Lieutenant Governor                                     Jerry Patterson                       PRECINCT 201                                           01 
01080020003000001REP       Lieutenant Governor                                     Jerry Patterson                       PRECINCT 202                                           01 
01080020004000024REP       Lieutenant Governor                                     Jerry Patterson                       PRECINCT 301                                           01 
01080020005000007REP       Lieutenant Governor                                     Jerry Patterson                       PRECINCT 302                                           01 
01080020006000002REP       Lieutenant Governor                                     Jerry Patterson                       PRECINCT 303                                           01 
01080020007000010REP       Lieutenant Governor                                     Jerry Patterson                       PRECINCT 401                                           01 
01080020008000006REP       Lieutenant Governor                                     Jerry Patterson                       PRECINCT 402                                           01 
01080030001000034REP       Lieutenant Governor                                     David Dewhurst                        PRECINCT 101                                           01 
01080030002000037REP       Lieutenant Governor                                     David Dewhurst                        PRECINCT 201                                           01 
01080030003000001REP       Lieutenant Governor                                     David Dewhurst                        PRECINCT 202                                           01 
01080030004000058REP       Lieutenant Governor                                     David Dewhurst                        PRECINCT 301                                           01 
01080030005000007REP       Lieutenant Governor                                     David Dewhurst                        PRECINCT 302                                           01 
01080030006000016REP       Lieutenant Governor                                     David Dewhurst                        PRECINCT 303                                           01 
01080030007000064REP       Lieutenant Governor                                     David Dewhurst                        PRECINCT 401                                           01 
01080030008000021REP       Lieutenant Governor                                     David Dewhurst                        PRECINCT 402                                           01 
01080040001000020REP       Lieutenant Governor                                     Dan Patrick                           PRECINCT 101                                           01 
01080040002000020REP       Lieutenant Governor                                     Dan Patrick                           PRECINCT 201                                           01 
01080040003000003REP       Lieutenant Governor                                     Dan Patrick                           PRECINCT 202                                           01 
01080040004000026REP       Lieutenant Governor                                     Dan Patrick                           PRECINCT 301                                           01 
01080040005000006REP       Lieutenant Governor                                     Dan Patrick                           PRECINCT 302                                           01 
01080040006000018REP       Lieutenant Governor                                     Dan Patrick                           PRECINCT 303                                           01 
01080040007000018REP       Lieutenant Governor                                     Dan Patrick                           PRECINCT 401                                           01 
01080040008000006REP       Lieutenant Governor                                     Dan Patrick                           PRECINCT 402                                           01 
01090010001000016REP       Attorney General                                        Barry Smitherman                      PRECINCT 101                                           01 
01090010002000014REP       Attorney General                                        Barry Smitherman                      PRECINCT 201                                           01 
01090010003000000REP       Attorney General                                        Barry Smitherman                      PRECINCT 202                                           01 
01090010004000031REP       Attorney General                                        Barry Smitherman                      PRECINCT 301                                           01 
01090010005000006REP       Attorney General                                        Barry Smitherman                      PRECINCT 302                                           01 
01090010006000012REP       Attorney General                                        Barry Smitherman                      PRECINCT 303                                           01 
01090010007000030REP       Attorney General                                        Barry Smitherman                      PRECINCT 401                                           01 
01090010008000015REP       Attorney General                                        Barry Smitherman                      PRECINCT 402                                           01 
01090020001000044REP       Attorney General                                        Dan Branch                            PRECINCT 101                                           01 
01090020002000043REP       Attorney General                                        Dan Branch                            PRECINCT 201                                           01 
01090020003000003REP       Attorney General                                        Dan Branch                            PRECINCT 202                                           01 
01090020004000054REP       Attorney General                                        Dan Branch                            PRECINCT 301                                           01 
01090020005000004REP       Attorney General                                        Dan Branch                            PRECINCT 302                                           01 
01090020006000013REP       Attorney General                                        Dan Branch                            PRECINCT 303                                           01 
01090020007000033REP       Attorney General                                        Dan Branch                            PRECINCT 401                                           01 
01090020008000020REP       Attorney General                                        Dan Branch                            PRECINCT 402                                           01 
01090030001000028REP       Attorney General                                        Ken Paxton                            PRECINCT 101                                           01 
01090030002000020REP       Attorney General                                        Ken Paxton                            PRECINCT 201                                           01 
01090030003000005REP       Attorney General                                        Ken Paxton                            PRECINCT 202                                           01 
01090030004000042REP       Attorney General                                        Ken Paxton                            PRECINCT 301                                           01 
01090030005000007REP       Attorney General                                        Ken Paxton                            PRECINCT 302                                           01 
01090030006000013REP       Attorney General                                        Ken Paxton                            PRECINCT 303                                           01 
01090030007000044REP       Attorney General                                        Ken Paxton                            PRECINCT 401                                           01 
01090030008000011REP       Attorney General                                        Ken Paxton                            PRECINCT 402                                           01 
01100010001000002REP       Comptroller of Public Accounts                          Raul Torres                           PRECINCT 101                                           01 
01100010002000005REP       Comptroller of Public Accounts                          Raul Torres                           PRECINCT 201                                           01 
01100010003000000REP       Comptroller of Public Accounts                          Raul Torres                           PRECINCT 202                                           01 
01100010004000006REP       Comptroller of Public Accounts                          Raul Torres                           PRECINCT 301                                           01 
01100010005000001REP       Comptroller of Public Accounts                          Raul Torres                           PRECINCT 302                                           01 
01100010006000003REP       Comptroller of Public Accounts                          Raul Torres                           PRECINCT 303                                           01 
01100010007000009REP       Comptroller of Public Accounts                          Raul Torres                           PRECINCT 401                                           01 
01100010008000003REP       Comptroller of Public Accounts                          Raul Torres                           PRECINCT 402                                           01 
01100020001000033REP       Comptroller of Public Accounts                          Harvey Hilderbran                     PRECINCT 101                                           01 
01100020002000030REP       Comptroller of Public Accounts                          Harvey Hilderbran                     PRECINCT 201                                           01 
01100020003000002REP       Comptroller of Public Accounts                          Harvey Hilderbran                     PRECINCT 202                                           01 
01100020004000046REP       Comptroller of Public Accounts                          Harvey Hilderbran                     PRECINCT 301                                           01 
01100020005000009REP       Comptroller of Public Accounts                          Harvey Hilderbran                     PRECINCT 302                                           01 
01100020006000011REP       Comptroller of Public Accounts                          Harvey Hilderbran                     PRECINCT 303                                           01 
01100020007000029REP       Comptroller of Public Accounts                          Harvey Hilderbran                     PRECINCT 401                                           01 
01100020008000016REP       Comptroller of Public Accounts                          Harvey Hilderbran                     PRECINCT 402                                           01 
01100030001000034REP       Comptroller of Public Accounts                          Glenn Hegar                           PRECINCT 101                                           01 
01100030002000023REP       Comptroller of Public Accounts                          Glenn Hegar                           PRECINCT 201                                           01 
01100030003000005REP       Comptroller of Public Accounts                          Glenn Hegar                           PRECINCT 202                                           01 
01100030004000045REP       Comptroller of Public Accounts                          Glenn Hegar                           PRECINCT 301                                           01 
01100030005000006REP       Comptroller of Public Accounts                          Glenn Hegar                           PRECINCT 302                                           01 
01100030006000017REP       Comptroller of Public Accounts                          Glenn Hegar                           PRECINCT 303                                           01 
01100030007000051REP       Comptroller of Public Accounts                          Glenn Hegar                           PRECINCT 401                                           01 
01100030008000009REP       Comptroller of Public Accounts                          Glenn Hegar                           PRECINCT 402                                           01 
01100040001000012REP       Comptroller of Public Accounts                          Debra Medina                          PRECINCT 101                                           01 
01100040002000011REP       Comptroller of Public Accounts                          Debra Medina                          PRECINCT 201                                           01 
01100040003000001REP       Comptroller of Public Accounts                          Debra Medina                          PRECINCT 202                                           01 
01100040004000019REP       Comptroller of Public Accounts                          Debra Medina                          PRECINCT 301                                           01 
01100040005000003REP       Comptroller of Public Accounts                          Debra Medina                          PRECINCT 302                                           01 
01100040006000007REP       Comptroller of Public Accounts                          Debra Medina                          PRECINCT 303                                           01 
01100040007000014REP       Comptroller of Public Accounts                          Debra Medina                          PRECINCT 401                                           01 
01100040008000010REP       Comptroller of Public Accounts                          Debra Medina                          PRECINCT 402                                           01 
01110010001000062REP       Commissioner of the General Land Office                 George P. Bush                        PRECINCT 101                                           01 
01110010002000057REP       Commissioner of the General Land Office                 George P. Bush                        PRECINCT 201                                           01 
01110010003000006REP       Commissioner of the General Land Office                 George P. Bush                        PRECINCT 202                                           01 
01110010004000096REP       Commissioner of the General Land Office                 George P. Bush                        PRECINCT 301                                           01 
01110010005000014REP       Commissioner of the General Land Office                 George P. Bush                        PRECINCT 302                                           01 
01110010006000035REP       Commissioner of the General Land Office                 George P. Bush                        PRECINCT 303                                           01 
01110010007000080REP       Commissioner of the General Land Office                 George P. Bush                        PRECINCT 401                                           01 
01110010008000033REP       Commissioner of the General Land Office                 George P. Bush                        PRECINCT 402                                           01 
01110020001000023REP       Commissioner of the General Land Office                 David Watts                           PRECINCT 101                                           01 
01110020002000015REP       Commissioner of the General Land Office                 David Watts                           PRECINCT 201                                           01 
01110020003000003REP       Commissioner of the General Land Office                 David Watts                           PRECINCT 202                                           01 
01110020004000029REP       Commissioner of the General Land Office                 David Watts                           PRECINCT 301                                           01 
01110020005000006REP       Commissioner of the General Land Office                 David Watts                           PRECINCT 302                                           01 
01110020006000004REP       Commissioner of the General Land Office                 David Watts                           PRECINCT 303                                           01 
01110020007000024REP       Commissioner of the General Land Office                 David Watts                           PRECINCT 401                                           01 
01110020008000010REP       Commissioner of the General Land Office                 David Watts                           PRECINCT 402                                           01 
01120010001000019REP       Commissioner of Agriculture                             Sid Miller                            PRECINCT 101                                           01 
01120010002000011REP       Commissioner of Agriculture                             Sid Miller                            PRECINCT 201                                           01 
01120010003000004REP       Commissioner of Agriculture                             Sid Miller                            PRECINCT 202                                           01 
01120010004000034REP       Commissioner of Agriculture                             Sid Miller                            PRECINCT 301                                           01 
01120010005000009REP       Commissioner of Agriculture                             Sid Miller                            PRECINCT 302                                           01 
01120010006000016REP       Commissioner of Agriculture                             Sid Miller                            PRECINCT 303                                           01 
01120010007000034REP       Commissioner of Agriculture                             Sid Miller                            PRECINCT 401                                           01 
01120010008000012REP       Commissioner of Agriculture                             Sid Miller                            PRECINCT 402                                           01 
01120020001000021REP       Commissioner of Agriculture                             Tommy Merritt                         PRECINCT 101                                           01 
01120020002000029REP       Commissioner of Agriculture                             Tommy Merritt                         PRECINCT 201                                           01 
01120020003000003REP       Commissioner of Agriculture                             Tommy Merritt                         PRECINCT 202                                           01 
01120020004000030REP       Commissioner of Agriculture                             Tommy Merritt                         PRECINCT 301                                           01 
01120020005000003REP       Commissioner of Agriculture                             Tommy Merritt                         PRECINCT 302                                           01 
01120020006000011REP       Commissioner of Agriculture                             Tommy Merritt                         PRECINCT 303                                           01 
01120020007000025REP       Commissioner of Agriculture                             Tommy Merritt                         PRECINCT 401                                           01 
01120020008000012REP       Commissioner of Agriculture                             Tommy Merritt                         PRECINCT 402                                           01 
01120030001000010REP       Commissioner of Agriculture                             J. Allen Carnes                       PRECINCT 101                                           01 
01120030002000011REP       Commissioner of Agriculture                             J. Allen Carnes                       PRECINCT 201                                           01 
01120030003000000REP       Commissioner of Agriculture                             J. Allen Carnes                       PRECINCT 202                                           01 
01120030004000016REP       Commissioner of Agriculture                             J. Allen Carnes                       PRECINCT 301                                           01 
01120030005000003REP       Commissioner of Agriculture                             J. Allen Carnes                       PRECINCT 302                                           01 
01120030006000008REP       Commissioner of Agriculture                             J. Allen Carnes                       PRECINCT 303                                           01 
01120030007000012REP       Commissioner of Agriculture                             J. Allen Carnes                       PRECINCT 401                                           01 
01120030008000009REP       Commissioner of Agriculture                             J. Allen Carnes                       PRECINCT 402                                           01 
01120040001000011REP       Commissioner of Agriculture                             Joe Cotten                            PRECINCT 101                                           01 
01120040002000007REP       Commissioner of Agriculture                             Joe Cotten                            PRECINCT 201                                           01 
01120040003000000REP       Commissioner of Agriculture                             Joe Cotten                            PRECINCT 202                                           01 
01120040004000023REP       Commissioner of Agriculture                             Joe Cotten                            PRECINCT 301                                           01 
01120040005000002REP       Commissioner of Agriculture                             Joe Cotten                            PRECINCT 302                                           01 
01120040006000003REP       Commissioner of Agriculture                             Joe Cotten                            PRECINCT 303                                           01 
01120040007000016REP       Commissioner of Agriculture                             Joe Cotten                            PRECINCT 401                                           01 
01120040008000003REP       Commissioner of Agriculture                             Joe Cotten                            PRECINCT 402                                           01 
01120050001000010REP       Commissioner of Agriculture                             Eric Opiela                           PRECINCT 101                                           01 
01120050002000004REP       Commissioner of Agriculture                             Eric Opiela                           PRECINCT 201                                           01 
01120050003000001REP       Commissioner of Agriculture                             Eric Opiela                           PRECINCT 202                                           01 
01120050004000008REP       Commissioner of Agriculture                             Eric Opiela                           PRECINCT 301                                           01 
01120050005000000REP       Commissioner of Agriculture                             Eric Opiela                           PRECINCT 302                                           01 
01120050006000000REP       Commissioner of Agriculture                             Eric Opiela                           PRECINCT 303                                           01 
01120050007000010REP       Commissioner of Agriculture                             Eric Opiela                           PRECINCT 401                                           01 
01120050008000001REP       Commissioner of Agriculture                             Eric Opiela                           PRECINCT 402                                           01 
01130010001000033REP       Railroad Commissioner                                   Wayne Christian                       PRECINCT 101                                           01 
01130010002000028REP       Railroad Commissioner                                   Wayne Christian                       PRECINCT 201                                           01 
01130010003000002REP       Railroad Commissioner                                   Wayne Christian                       PRECINCT 202                                           01 
01130010004000052REP       Railroad Commissioner                                   Wayne Christian                       PRECINCT 301                                           01 
01130010005000009REP       Railroad Commissioner                                   Wayne Christian                       PRECINCT 302                                           01 
01130010006000015REP       Railroad Commissioner                                   Wayne Christian                       PRECINCT 303                                           01 
01130010007000050REP       Railroad Commissioner                                   Wayne Christian                       PRECINCT 401                                           01 
01130010008000015REP       Railroad Commissioner                                   Wayne Christian                       PRECINCT 402                                           01 
01130020001000017REP       Railroad Commissioner                                   Becky Berger                          PRECINCT 101                                           01 
01130020002000007REP       Railroad Commissioner                                   Becky Berger                          PRECINCT 201                                           01 
01130020003000004REP       Railroad Commissioner                                   Becky Berger                          PRECINCT 202                                           01 
01130020004000015REP       Railroad Commissioner                                   Becky Berger                          PRECINCT 301                                           01 
01130020005000002REP       Railroad Commissioner                                   Becky Berger                          PRECINCT 302                                           01 
01130020006000003REP       Railroad Commissioner                                   Becky Berger                          PRECINCT 303                                           01 
01130020007000019REP       Railroad Commissioner                                   Becky Berger                          PRECINCT 401                                           01 
01130020008000007REP       Railroad Commissioner                                   Becky Berger                          PRECINCT 402                                           01 
01130030001000014REP       Railroad Commissioner                                   Ryan Sitton                           PRECINCT 101                                           01 
01130030002000009REP       Railroad Commissioner                                   Ryan Sitton                           PRECINCT 201                                           01 
01130030003000002REP       Railroad Commissioner                                   Ryan Sitton                           PRECINCT 202                                           01 
01130030004000020REP       Railroad Commissioner                                   Ryan Sitton                           PRECINCT 301                                           01 
01130030005000003REP       Railroad Commissioner                                   Ryan Sitton                           PRECINCT 302                                           01 
01130030006000012REP       Railroad Commissioner                                   Ryan Sitton                           PRECINCT 303                                           01 
01130030007000021REP       Railroad Commissioner                                   Ryan Sitton                           PRECINCT 401                                           01 
01130030008000007REP       Railroad Commissioner                                   Ryan Sitton                           PRECINCT 402                                           01 
01130040001000011REP       Railroad Commissioner                                   Malachi Boyuls                        PRECINCT 101                                           01 
01130040002000014REP       Railroad Commissioner                                   Malachi Boyuls                        PRECINCT 201                                           01 
01130040003000000REP       Railroad Commissioner                                   Malachi Boyuls                        PRECINCT 202                                           01 
01130040004000019REP       Railroad Commissioner                                   Malachi Boyuls                        PRECINCT 301                                           01 
01130040005000001REP       Railroad Commissioner                                   Malachi Boyuls                        PRECINCT 302                                           01 
01130040006000008REP       Railroad Commissioner                                   Malachi Boyuls                        PRECINCT 303                                           01 
01130040007000006REP       Railroad Commissioner                                   Malachi Boyuls                        PRECINCT 401                                           01 
01130040008000007REP       Railroad Commissioner                                   Malachi Boyuls                        PRECINCT 402                                           01 
01140010001000049REP       Chief Justice, Supreme Court                            Nathan Hecht                          PRECINCT 101                                           01 
01140010002000037REP       Chief Justice, Supreme Court                            Nathan Hecht                          PRECINCT 201                                           01 
01140010003000003REP       Chief Justice, Supreme Court                            Nathan Hecht                          PRECINCT 202                                           01 
01140010004000074REP       Chief Justice, Supreme Court                            Nathan Hecht                          PRECINCT 301                                           01 
01140010005000013REP       Chief Justice, Supreme Court                            Nathan Hecht                          PRECINCT 302                                           01 
01140010006000020REP       Chief Justice, Supreme Court                            Nathan Hecht                          PRECINCT 303                                           01 
01140010007000054REP       Chief Justice, Supreme Court                            Nathan Hecht                          PRECINCT 401                                           01 
01140010008000019REP       Chief Justice, Supreme Court                            Nathan Hecht                          PRECINCT 402                                           01 
01140020001000022REP       Chief Justice, Supreme Court                            Robert Talton                         PRECINCT 101                                           01 
01140020002000022REP       Chief Justice, Supreme Court                            Robert Talton                         PRECINCT 201                                           01 
01140020003000004REP       Chief Justice, Supreme Court                            Robert Talton                         PRECINCT 202                                           01 
01140020004000038REP       Chief Justice, Supreme Court                            Robert Talton                         PRECINCT 301                                           01 
01140020005000005REP       Chief Justice, Supreme Court                            Robert Talton                         PRECINCT 302                                           01 
01140020006000016REP       Chief Justice, Supreme Court                            Robert Talton                         PRECINCT 303                                           01 
01140020007000040REP       Chief Justice, Supreme Court                            Robert Talton                         PRECINCT 401                                           01 
01140020008000014REP       Chief Justice, Supreme Court                            Robert Talton                         PRECINCT 402                                           01 
01150010001000020REP       Supreme Court, Place 6, Unexpired Term                  Joe Pool                              PRECINCT 101                                           01 
01150010002000023REP       Supreme Court, Place 6, Unexpired Term                  Joe Pool                              PRECINCT 201                                           01 
01150010003000001REP       Supreme Court, Place 6, Unexpired Term                  Joe Pool                              PRECINCT 202                                           01 
01150010004000028REP       Supreme Court, Place 6, Unexpired Term                  Joe Pool                              PRECINCT 301                                           01 
01150010005000002REP       Supreme Court, Place 6, Unexpired Term                  Joe Pool                              PRECINCT 302                                           01 
01150010006000009REP       Supreme Court, Place 6, Unexpired Term                  Joe Pool                              PRECINCT 303                                           01 
01150010007000026REP       Supreme Court, Place 6, Unexpired Term                  Joe Pool                              PRECINCT 401                                           01 
01150010008000015REP       Supreme Court, Place 6, Unexpired Term                  Joe Pool                              PRECINCT 402                                           01 
01150020001000050REP       Supreme Court, Place 6, Unexpired Term                  Jeff Brown                            PRECINCT 101                                           01 
01150020002000032REP       Supreme Court, Place 6, Unexpired Term                  Jeff Brown                            PRECINCT 201                                           01 
01150020003000007REP       Supreme Court, Place 6, Unexpired Term                  Jeff Brown                            PRECINCT 202                                           01 
01150020004000074REP       Supreme Court, Place 6, Unexpired Term                  Jeff Brown                            PRECINCT 301                                           01 
01150020005000014REP       Supreme Court, Place 6, Unexpired Term                  Jeff Brown                            PRECINCT 302                                           01 
01150020006000025REP       Supreme Court, Place 6, Unexpired Term                  Jeff Brown                            PRECINCT 303                                           01 
01150020007000068REP       Supreme Court, Place 6, Unexpired Term                  Jeff Brown                            PRECINCT 401                                           01 
01150020008000015REP       Supreme Court, Place 6, Unexpired Term                  Jeff Brown                            PRECINCT 402                                           01 
01160010001000061REP       Justice, Supreme Court, Place 7                         Jeff Boyd                             PRECINCT 101                                           01 
01160010002000048REP       Justice, Supreme Court, Place 7                         Jeff Boyd                             PRECINCT 201                                           01 
01160010003000008REP       Justice, Supreme Court, Place 7                         Jeff Boyd                             PRECINCT 202                                           01 
01160010004000090REP       Justice, Supreme Court, Place 7                         Jeff Boyd                             PRECINCT 301                                           01 
01160010005000011REP       Justice, Supreme Court, Place 7                         Jeff Boyd                             PRECINCT 302                                           01 
01160010006000030REP       Justice, Supreme Court, Place 7                         Jeff Boyd                             PRECINCT 303                                           01 
01160010007000078REP       Justice, Supreme Court, Place 7                         Jeff Boyd                             PRECINCT 401                                           01 
01160010008000028REP       Justice, Supreme Court, Place 7                         Jeff Boyd                             PRECINCT 402                                           01 
01170010001000028REP       Justice, Supreme Court, Place 8                         Sharon McCally                        PRECINCT 101                                           01 
01170010002000024REP       Justice, Supreme Court, Place 8                         Sharon McCally                        PRECINCT 201                                           01 
01170010003000005REP       Justice, Supreme Court, Place 8                         Sharon McCally                        PRECINCT 202                                           01 
01170010004000051REP       Justice, Supreme Court, Place 8                         Sharon McCally                        PRECINCT 301                                           01 
01170010005000004REP       Justice, Supreme Court, Place 8                         Sharon McCally                        PRECINCT 302                                           01 
01170010006000011REP       Justice, Supreme Court, Place 8                         Sharon McCally                        PRECINCT 303                                           01 
01170010007000029REP       Justice, Supreme Court, Place 8                         Sharon McCally                        PRECINCT 401                                           01 
01170010008000013REP       Justice, Supreme Court, Place 8                         Sharon McCally                        PRECINCT 402                                           01 
01170020001000042REP       Justice, Supreme Court, Place 8                         Phil Johnson                          PRECINCT 101                                           01 
01170020002000033REP       Justice, Supreme Court, Place 8                         Phil Johnson                          PRECINCT 201                                           01 
01170020003000003REP       Justice, Supreme Court, Place 8                         Phil Johnson                          PRECINCT 202                                           01 
01170020004000058REP       Justice, Supreme Court, Place 8                         Phil Johnson                          PRECINCT 301                                           01 
01170020005000011REP       Justice, Supreme Court, Place 8                         Phil Johnson                          PRECINCT 302                                           01 
01170020006000024REP       Justice, Supreme Court, Place 8                         Phil Johnson                          PRECINCT 303                                           01 
01170020007000061REP       Justice, Supreme Court, Place 8                         Phil Johnson                          PRECINCT 401                                           01 
01170020008000019REP       Justice, Supreme Court, Place 8                         Phil Johnson                          PRECINCT 402                                           01 
01180010001000045REP       Judge, Court of Criminal Appeals, Pl 3                  Bert Richardson                       PRECINCT 101                                           01 
01180010002000037REP       Judge, Court of Criminal Appeals, Pl 3                  Bert Richardson                       PRECINCT 201                                           01 
01180010003000004REP       Judge, Court of Criminal Appeals, Pl 3                  Bert Richardson                       PRECINCT 202                                           01 
01180010004000062REP       Judge, Court of Criminal Appeals, Pl 3                  Bert Richardson                       PRECINCT 301                                           01 
01180010005000007REP       Judge, Court of Criminal Appeals, Pl 3                  Bert Richardson                       PRECINCT 302                                           01 
01180010006000028REP       Judge, Court of Criminal Appeals, Pl 3                  Bert Richardson                       PRECINCT 303                                           01 
01180010007000063REP       Judge, Court of Criminal Appeals, Pl 3                  Bert Richardson                       PRECINCT 401                                           01 
01180010008000020REP       Judge, Court of Criminal Appeals, Pl 3                  Bert Richardson                       PRECINCT 402                                           01 
01180020001000022REP       Judge, Court of Criminal Appeals, Pl 3                  Barbara Walther                       PRECINCT 101                                           01 
01180020002000019REP       Judge, Court of Criminal Appeals, Pl 3                  Barbara Walther                       PRECINCT 201                                           01 
01180020003000004REP       Judge, Court of Criminal Appeals, Pl 3                  Barbara Walther                       PRECINCT 202                                           01 
01180020004000033REP       Judge, Court of Criminal Appeals, Pl 3                  Barbara Walther                       PRECINCT 301                                           01 
01180020005000007REP       Judge, Court of Criminal Appeals, Pl 3                  Barbara Walther                       PRECINCT 302                                           01 
01180020006000003REP       Judge, Court of Criminal Appeals, Pl 3                  Barbara Walther                       PRECINCT 303                                           01 
01180020007000028REP       Judge, Court of Criminal Appeals, Pl 3                  Barbara Walther                       PRECINCT 401                                           01 
01180020008000009REP       Judge, Court of Criminal Appeals, Pl 3                  Barbara Walther                       PRECINCT 402                                           01 
01190010001000027REP       Judge, Court of Criminal Appeals, Pl 4                  Kevin Patrick Yeary                   PRECINCT 101                                           01 
01190010002000022REP       Judge, Court of Criminal Appeals, Pl 4                  Kevin Patrick Yeary                   PRECINCT 201                                           01 
01190010003000005REP       Judge, Court of Criminal Appeals, Pl 4                  Kevin Patrick Yeary                   PRECINCT 202                                           01 
01190010004000044REP       Judge, Court of Criminal Appeals, Pl 4                  Kevin Patrick Yeary                   PRECINCT 301                                           01 
01190010005000009REP       Judge, Court of Criminal Appeals, Pl 4                  Kevin Patrick Yeary                   PRECINCT 302                                           01 
01190010006000023REP       Judge, Court of Criminal Appeals, Pl 4                  Kevin Patrick Yeary                   PRECINCT 303                                           01 
01190010007000040REP       Judge, Court of Criminal Appeals, Pl 4                  Kevin Patrick Yeary                   PRECINCT 401                                           01 
01190010008000011REP       Judge, Court of Criminal Appeals, Pl 4                  Kevin Patrick Yeary                   PRECINCT 402                                           01 
01190020001000024REP       Judge, Court of Criminal Appeals, Pl 4                  Richard Dean Davis                    PRECINCT 101                                           01 
01190020002000017REP       Judge, Court of Criminal Appeals, Pl 4                  Richard Dean Davis                    PRECINCT 201                                           01 
01190020003000002REP       Judge, Court of Criminal Appeals, Pl 4                  Richard Dean Davis                    PRECINCT 202                                           01 
01190020004000035REP       Judge, Court of Criminal Appeals, Pl 4                  Richard Dean Davis                    PRECINCT 301                                           01 
01190020005000003REP       Judge, Court of Criminal Appeals, Pl 4                  Richard Dean Davis                    PRECINCT 302                                           01 
01190020006000010REP       Judge, Court of Criminal Appeals, Pl 4                  Richard Dean Davis                    PRECINCT 303                                           01 
01190020007000036REP       Judge, Court of Criminal Appeals, Pl 4                  Richard Dean Davis                    PRECINCT 401                                           01 
01190020008000012REP       Judge, Court of Criminal Appeals, Pl 4                  Richard Dean Davis                    PRECINCT 402                                           01 
01190030001000013REP       Judge, Court of Criminal Appeals, Pl 4                  Jani Jo Wood                          PRECINCT 101                                           01 
01190030002000013REP       Judge, Court of Criminal Appeals, Pl 4                  Jani Jo Wood                          PRECINCT 201                                           01 
01190030003000001REP       Judge, Court of Criminal Appeals, Pl 4                  Jani Jo Wood                          PRECINCT 202                                           01 
01190030004000018REP       Judge, Court of Criminal Appeals, Pl 4                  Jani Jo Wood                          PRECINCT 301                                           01 
01190030005000002REP       Judge, Court of Criminal Appeals, Pl 4                  Jani Jo Wood                          PRECINCT 302                                           01 
01190030006000001REP       Judge, Court of Criminal Appeals, Pl 4                  Jani Jo Wood                          PRECINCT 303                                           01 
01190030007000014REP       Judge, Court of Criminal Appeals, Pl 4                  Jani Jo Wood                          PRECINCT 401                                           01 
01190030008000002REP       Judge, Court of Criminal Appeals, Pl 4                  Jani Jo Wood                          PRECINCT 402                                           01 
01200010001000035REP       Judge, Court of Criminal Appeals, Pl 9                  W.C. "Bud" Kirkendall                 PRECINCT 101                                           01 
01200010002000035REP       Judge, Court of Criminal Appeals, Pl 9                  W.C. "Bud" Kirkendall                 PRECINCT 201                                           01 
01200010003000003REP       Judge, Court of Criminal Appeals, Pl 9                  W.C. "Bud" Kirkendall                 PRECINCT 202                                           01 
01200010004000047REP       Judge, Court of Criminal Appeals, Pl 9                  W.C. "Bud" Kirkendall                 PRECINCT 301                                           01 
01200010005000008REP       Judge, Court of Criminal Appeals, Pl 9                  W.C. "Bud" Kirkendall                 PRECINCT 302                                           01 
01200010006000019REP       Judge, Court of Criminal Appeals, Pl 9                  W.C. "Bud" Kirkendall                 PRECINCT 303                                           01 
01200010007000055REP       Judge, Court of Criminal Appeals, Pl 9                  W.C. "Bud" Kirkendall                 PRECINCT 401                                           01 
01200010008000017REP       Judge, Court of Criminal Appeals, Pl 9                  W.C. "Bud" Kirkendall                 PRECINCT 402                                           01 
01200020001000028REP       Judge, Court of Criminal Appeals, Pl 9                  David Newell                          PRECINCT 101                                           01 
01200020002000026REP       Judge, Court of Criminal Appeals, Pl 9                  David Newell                          PRECINCT 201                                           01 
01200020003000005REP       Judge, Court of Criminal Appeals, Pl 9                  David Newell                          PRECINCT 202                                           01 
01200020004000049REP       Judge, Court of Criminal Appeals, Pl 9                  David Newell                          PRECINCT 301                                           01 
01200020005000008REP       Judge, Court of Criminal Appeals, Pl 9                  David Newell                          PRECINCT 302                                           01 
01200020006000016REP       Judge, Court of Criminal Appeals, Pl 9                  David Newell                          PRECINCT 303                                           01 
01200020007000038REP       Judge, Court of Criminal Appeals, Pl 9                  David Newell                          PRECINCT 401                                           01 
01200020008000014REP       Judge, Court of Criminal Appeals, Pl 9                  David Newell                          PRECINCT 402                                           01 
01210010001000037REP       State Senator, District 31                              Mike Canon                            PRECINCT 101                                           01 
01210010002000028REP       State Senator, District 31                              Mike Canon                            PRECINCT 201                                           01 
01210010003000003REP       State Senator, District 31                              Mike Canon                            PRECINCT 202                                           01 
01210010004000056REP       State Senator, District 31                              Mike Canon                            PRECINCT 301                                           01 
01210010005000016REP       State Senator, District 31                              Mike Canon                            PRECINCT 302                                           01 
01210010006000017REP       State Senator, District 31                              Mike Canon                            PRECINCT 303                                           01 
01210010007000045REP       State Senator, District 31                              Mike Canon                            PRECINCT 401                                           01 
01210010008000016REP       State Senator, District 31                              Mike Canon                            PRECINCT 402                                           01 
01210020001000061REP       State Senator, District 31                              Kel Seliger                           PRECINCT 101                                           01 
01210020002000061REP       State Senator, District 31                              Kel Seliger                           PRECINCT 201                                           01 
01210020003000007REP       State Senator, District 31                              Kel Seliger                           PRECINCT 202                                           01 
01210020004000079REP       State Senator, District 31                              Kel Seliger                           PRECINCT 301                                           01 
01210020005000006REP       State Senator, District 31                              Kel Seliger                           PRECINCT 302                                           01 
01210020006000021REP       State Senator, District 31                              Kel Seliger                           PRECINCT 303                                           01 
01210020007000084REP       State Senator, District 31                              Kel Seliger                           PRECINCT 401                                           01 
01210020008000037REP       State Senator, District 31                              Kel Seliger                           PRECINCT 402                                           01 
01450010001000094REP       RELIGIOUS FREEDOM                                       YES                                   PRECINCT 101                                           01Y
01450010002000091REP       RELIGIOUS FREEDOM                                       YES                                   PRECINCT 201                                           01Y
01450010003000010REP       RELIGIOUS FREEDOM                                       YES                                   PRECINCT 202                                           01Y
01450010004000131REP       RELIGIOUS FREEDOM                                       YES                                   PRECINCT 301                                           01Y
01450010005000021REP       RELIGIOUS FREEDOM                                       YES                                   PRECINCT 302                                           01Y
01450010006000040REP       RELIGIOUS FREEDOM                                       YES                                   PRECINCT 303                                           01Y
01450010007000127REP       RELIGIOUS FREEDOM                                       YES                                   PRECINCT 401                                           01Y
01450010008000050REP       RELIGIOUS FREEDOM                                       YES                                   PRECINCT 402                                           01Y
01450020001000006REP       RELIGIOUS FREEDOM                                       NO                                    PRECINCT 101                                           01Y
01450020002000002REP       RELIGIOUS FREEDOM                                       NO                                    PRECINCT 201                                           01Y
01450020003000000REP       RELIGIOUS FREEDOM                                       NO                                    PRECINCT 202                                           01Y
01450020004000003REP       RELIGIOUS FREEDOM                                       NO                                    PRECINCT 301                                           01Y
01450020005000001REP       RELIGIOUS FREEDOM                                       NO                                    PRECINCT 302                                           01Y
01450020006000000REP       RELIGIOUS FREEDOM                                       NO                                    PRECINCT 303                                           01Y
01450020007000001REP       RELIGIOUS FREEDOM                                       NO                                    PRECINCT 401                                           01Y
01450020008000001REP       RELIGIOUS FREEDOM                                       NO                                    PRECINCT 402                                           01Y
01460010001000083REP       SECOND AMENDMENT                                        YES                                   PRECINCT 101                                           01Y
01460010002000075REP       SECOND AMENDMENT                                        YES                                   PRECINCT 201                                           01Y
01460010003000010REP       SECOND AMENDMENT                                        YES                                   PRECINCT 202                                           01Y
01460010004000119REP       SECOND AMENDMENT                                        YES                                   PRECINCT 301                                           01Y
01460010005000016REP       SECOND AMENDMENT                                        YES                                   PRECINCT 302                                           01Y
01460010006000037REP       SECOND AMENDMENT                                        YES                                   PRECINCT 303                                           01Y
01460010007000116REP       SECOND AMENDMENT                                        YES                                   PRECINCT 401                                           01Y
01460010008000045REP       SECOND AMENDMENT                                        YES                                   PRECINCT 402                                           01Y
01460020001000017REP       SECOND AMENDMENT                                        NO                                    PRECINCT 101                                           01Y
01460020002000011REP       SECOND AMENDMENT                                        NO                                    PRECINCT 201                                           01Y
01460020003000000REP       SECOND AMENDMENT                                        NO                                    PRECINCT 202                                           01Y
01460020004000015REP       SECOND AMENDMENT                                        NO                                    PRECINCT 301                                           01Y
01460020005000006REP       SECOND AMENDMENT                                        NO                                    PRECINCT 302                                           01Y
01460020006000003REP       SECOND AMENDMENT                                        NO                                    PRECINCT 303                                           01Y
01460020007000011REP       SECOND AMENDMENT                                        NO                                    PRECINCT 401                                           01Y
01460020008000006REP       SECOND AMENDMENT                                        NO                                    PRECINCT 402                                           01Y
01470010001000080REP       FRANCHISE TAX                                           YES                                   PRECINCT 101                                           01Y
01470010002000072REP       FRANCHISE TAX                                           YES                                   PRECINCT 201                                           01Y
01470010003000010REP       FRANCHISE TAX                                           YES                                   PRECINCT 202                                           01Y
01470010004000098REP       FRANCHISE TAX                                           YES                                   PRECINCT 301                                           01Y
01470010005000017REP       FRANCHISE TAX                                           YES                                   PRECINCT 302                                           01Y
01470010006000034REP       FRANCHISE TAX                                           YES                                   PRECINCT 303                                           01Y
01470010007000106REP       FRANCHISE TAX                                           YES                                   PRECINCT 401                                           01Y
01470010008000041REP       FRANCHISE TAX                                           YES                                   PRECINCT 402                                           01Y
01470020001000015REP       FRANCHISE TAX                                           NO                                    PRECINCT 101                                           01Y
01470020002000011REP       FRANCHISE TAX                                           NO                                    PRECINCT 201                                           01Y
01470020003000000REP       FRANCHISE TAX                                           NO                                    PRECINCT 202                                           01Y
01470020004000025REP       FRANCHISE TAX                                           NO                                    PRECINCT 301                                           01Y
01470020005000003REP       FRANCHISE TAX                                           NO                                    PRECINCT 302                                           01Y
01470020006000004REP       FRANCHISE TAX                                           NO                                    PRECINCT 303                                           01Y
01470020007000019REP       FRANCHISE TAX                                           NO                                    PRECINCT 401                                           01Y
01470020008000005REP       FRANCHISE TAX                                           NO                                    PRECINCT 402                                           01Y
01480010001000098REP       WELFARE REFORM                                          YES                                   PRECINCT 101                                           01Y
01480010002000087REP       WELFARE REFORM                                          YES                                   PRECINCT 201                                           01Y
01480010003000010REP       WELFARE REFORM                                          YES                                   PRECINCT 202                                           01Y
01480010004000129REP       WELFARE REFORM                                          YES                                   PRECINCT 301                                           01Y
01480010005000022REP       WELFARE REFORM                                          YES                                   PRECINCT 302                                           01Y
01480010006000040REP       WELFARE REFORM                                          YES                                   PRECINCT 303                                           01Y
01480010007000128REP       WELFARE REFORM                                          YES                                   PRECINCT 401                                           01Y
01480010008000055REP       WELFARE REFORM                                          YES                                   PRECINCT 402                                           01Y
01480020001000003REP       WELFARE REFORM                                          NO                                    PRECINCT 101                                           01Y
01480020002000003REP       WELFARE REFORM                                          NO                                    PRECINCT 201                                           01Y
01480020003000000REP       WELFARE REFORM                                          NO                                    PRECINCT 202                                           01Y
01480020004000006REP       WELFARE REFORM                                          NO                                    PRECINCT 301                                           01Y
01480020005000000REP       WELFARE REFORM                                          NO                                    PRECINCT 302                                           01Y
01480020006000000REP       WELFARE REFORM                                          NO                                    PRECINCT 303                                           01Y
01480020007000003REP       WELFARE REFORM                                          NO                                    PRECINCT 401                                           01Y
01480020008000001REP       WELFARE REFORM                                          NO                                    PRECINCT 402                                           01Y
01490010001000100REP       NO LAWMAKER EXCEPTIONS                                  YES                                   PRECINCT 101                                           01Y
01490010002000089REP       NO LAWMAKER EXCEPTIONS                                  YES                                   PRECINCT 201                                           01Y
01490010003000010REP       NO LAWMAKER EXCEPTIONS                                  YES                                   PRECINCT 202                                           01Y
01490010004000134REP       NO LAWMAKER EXCEPTIONS                                  YES                                   PRECINCT 301                                           01Y
01490010005000023REP       NO LAWMAKER EXCEPTIONS                                  YES                                   PRECINCT 302                                           01Y
01490010006000040REP       NO LAWMAKER EXCEPTIONS                                  YES                                   PRECINCT 303                                           01Y
01490010007000130REP       NO LAWMAKER EXCEPTIONS                                  YES                                   PRECINCT 401                                           01Y
01490010008000053REP       NO LAWMAKER EXCEPTIONS                                  YES                                   PRECINCT 402                                           01Y
01490020001000001REP       NO LAWMAKER EXCEPTIONS                                  NO                                    PRECINCT 101                                           01Y
01490020002000001REP       NO LAWMAKER EXCEPTIONS                                  NO                                    PRECINCT 201                                           01Y
01490020003000000REP       NO LAWMAKER EXCEPTIONS                                  NO                                    PRECINCT 202                                           01Y
01490020004000002REP       NO LAWMAKER EXCEPTIONS                                  NO                                    PRECINCT 301                                           01Y
01490020005000000REP       NO LAWMAKER EXCEPTIONS                                  NO                                    PRECINCT 302                                           01Y
01490020006000000REP       NO LAWMAKER EXCEPTIONS                                  NO                                    PRECINCT 303                                           01Y
01490020007000001REP       NO LAWMAKER EXCEPTIONS                                  NO                                    PRECINCT 401                                           01Y
01490020008000001REP       NO LAWMAKER EXCEPTIONS                                  NO                                    PRECINCT 402                                           01Y
01500010001000092REP       OBAMACARE                                               YES                                   PRECINCT 101                                           01Y
01500010002000089REP       OBAMACARE                                               YES                                   PRECINCT 201                                           01Y
01500010003000010REP       OBAMACARE                                               YES                                   PRECINCT 202                                           01Y
01500010004000130REP       OBAMACARE                                               YES                                   PRECINCT 301                                           01Y
01500010005000022REP       OBAMACARE                                               YES                                   PRECINCT 302                                           01Y
01500010006000038REP       OBAMACARE                                               YES                                   PRECINCT 303                                           01Y
01500010007000124REP       OBAMACARE                                               YES                                   PRECINCT 401                                           01Y
01500010008000049REP       OBAMACARE                                               YES                                   PRECINCT 402                                           01Y
01500020001000008REP       OBAMACARE                                               NO                                    PRECINCT 101                                           01Y
01500020002000005REP       OBAMACARE                                               NO                                    PRECINCT 201                                           01Y
01500020003000000REP       OBAMACARE                                               NO                                    PRECINCT 202                                           01Y
01500020004000005REP       OBAMACARE                                               NO                                    PRECINCT 301                                           01Y
01500020005000000REP       OBAMACARE                                               NO                                    PRECINCT 302                                           01Y
01500020006000001REP       OBAMACARE                                               NO                                    PRECINCT 303                                           01Y
01500020007000007REP       OBAMACARE                                               NO                                    PRECINCT 401                                           01Y
01500020008000007REP       OBAMACARE                                               NO                                    PRECINCT 402                                           01Y
