01040010001000124REP       United States Senator                                   John Cornyn                           PRECINCT 101                                           01 
01040010002000135REP       United States Senator                                   John Cornyn                           PRECINCT 201                                           01 
01040010003000013REP       United States Senator                                   John Cornyn                           PRECINCT 202                                           01 
01040010004000185REP       United States Senator                                   John Cornyn                           PRECINCT 301                                           01 
01040010005000028REP       United States Senator                                   John Cornyn                           PRECINCT 302                                           01 
01040010006000050REP       United States Senator                                   John Cornyn                           PRECINCT 303                                           01 
01040010007000136REP       United States Senator                                   John Cornyn                           PRECINCT 401                                           01 
01040010008000046REP       United States Senator                                   John Cornyn                           PRECINCT 402                                           01 
01040020001000023DEM       United States Senator                                   David M. Alameel                      PRECINCT 101                                           01 
01040020002000013DEM       United States Senator                                   David M. Alameel                      PRECINCT 201                                           01 
01040020003000001DEM       United States Senator                                   David M. Alameel                      PRECINCT 202                                           01 
01040020004000012DEM       United States Senator                                   David M. Alameel                      PRECINCT 301                                           01 
01040020005000000DEM       United States Senator                                   David M. Alameel                      PRECINCT 302                                           01 
01040020006000006DEM       United States Senator                                   David M. Alameel                      PRECINCT 303                                           01 
01040020007000008DEM       United States Senator                                   David M. Alameel                      PRECINCT 401                                           01 
01040020008000007DEM       United States Senator                                   David M. Alameel                      PRECINCT 402                                           01 
01040030001000005LIB       United States Senator                                   Rebecca Paddock                       PRECINCT 101                                           01 
01040030002000006LIB       United States Senator                                   Rebecca Paddock                       PRECINCT 201                                           01 
01040030003000000LIB       United States Senator                                   Rebecca Paddock                       PRECINCT 202                                           01 
01040030004000006LIB       United States Senator                                   Rebecca Paddock                       PRECINCT 301                                           01 
01040030005000001LIB       United States Senator                                   Rebecca Paddock                       PRECINCT 302                                           01 
01040030006000001LIB       United States Senator                                   Rebecca Paddock                       PRECINCT 303                                           01 
01040030007000004LIB       United States Senator                                   Rebecca Paddock                       PRECINCT 401                                           01 
01040030008000001LIB       United States Senator                                   Rebecca Paddock                       PRECINCT 402                                           01 
01040040001000001GRN       United States Senator                                   Emily "Spicybrown" Sanchez            PRECINCT 101                                           01 
01040040002000004GRN       United States Senator                                   Emily "Spicybrown" Sanchez            PRECINCT 201                                           01 
01040040003000000GRN       United States Senator                                   Emily "Spicybrown" Sanchez            PRECINCT 202                                           01 
01040040004000000GRN       United States Senator                                   Emily "Spicybrown" Sanchez            PRECINCT 301                                           01 
01040040005000000GRN       United States Senator                                   Emily "Spicybrown" Sanchez            PRECINCT 302                                           01 
01040040006000000GRN       United States Senator                                   Emily "Spicybrown" Sanchez            PRECINCT 303                                           01 
01040040007000003GRN       United States Senator                                   Emily "Spicybrown" Sanchez            PRECINCT 401                                           01 
01040040008000003GRN       United States Senator                                   Emily "Spicybrown" Sanchez            PRECINCT 402                                           01 
01040050001000000NON       United States Senator                                   WRITE-IN                              PRECINCT 101                                           01 
01040050002000000NON       United States Senator                                   WRITE-IN                              PRECINCT 201                                           01 
01040050003000000NON       United States Senator                                   WRITE-IN                              PRECINCT 202                                           01 
01040050004000000NON       United States Senator                                   WRITE-IN                              PRECINCT 301                                           01 
01040050005000000NON       United States Senator                                   WRITE-IN                              PRECINCT 302                                           01 
01040050006000000NON       United States Senator                                   WRITE-IN                              PRECINCT 303                                           01 
01040050007000000NON       United States Senator                                   WRITE-IN                              PRECINCT 401                                           01 
01040050008000000NON       United States Senator                                   WRITE-IN                              PRECINCT 402                                           01 
01040060001000000          United States Senator                                   OVER VOTES                            PRECINCT 101                                           01 
01040060002000000          United States Senator                                   OVER VOTES                            PRECINCT 201                                           01 
01040060003000000          United States Senator                                   OVER VOTES                            PRECINCT 202                                           01 
01040060004000000          United States Senator                                   OVER VOTES                            PRECINCT 301                                           01 
01040060005000000          United States Senator                                   OVER VOTES                            PRECINCT 302                                           01 
01040060006000000          United States Senator                                   OVER VOTES                            PRECINCT 303                                           01 
01040060007000000          United States Senator                                   OVER VOTES                            PRECINCT 401                                           01 
01040060008000000          United States Senator                                   OVER VOTES                            PRECINCT 402                                           01 
01040070001000004          United States Senator                                   UNDER VOTES                           PRECINCT 101                                           01 
01040070002000005          United States Senator                                   UNDER VOTES                           PRECINCT 201                                           01 
01040070003000000          United States Senator                                   UNDER VOTES                           PRECINCT 202                                           01 
01040070004000001          United States Senator                                   UNDER VOTES                           PRECINCT 301                                           01 
01040070005000000          United States Senator                                   UNDER VOTES                           PRECINCT 302                                           01 
01040070006000003          United States Senator                                   UNDER VOTES                           PRECINCT 303                                           01 
01040070007000000          United States Senator                                   UNDER VOTES                           PRECINCT 401                                           01 
01040070008000001          United States Senator                                   UNDER VOTES                           PRECINCT 402                                           01 
01050010001000126REP       United States Representative, Dist 13                   Mac Thornberry                        PRECINCT 101                                           01 
01050010002000138REP       United States Representative, Dist 13                   Mac Thornberry                        PRECINCT 201                                           01 
01050010003000013REP       United States Representative, Dist 13                   Mac Thornberry                        PRECINCT 202                                           01 
01050010004000186REP       United States Representative, Dist 13                   Mac Thornberry                        PRECINCT 301                                           01 
01050010005000028REP       United States Representative, Dist 13                   Mac Thornberry                        PRECINCT 302                                           01 
01050010006000052REP       United States Representative, Dist 13                   Mac Thornberry                        PRECINCT 303                                           01 
01050010007000138REP       United States Representative, Dist 13                   Mac Thornberry                        PRECINCT 401                                           01 
01050010008000050REP       United States Representative, Dist 13                   Mac Thornberry                        PRECINCT 402                                           01 
01050020001000021DEM       United States Representative, Dist 13                   Mike Minter                           PRECINCT 101                                           01 
01050020002000012DEM       United States Representative, Dist 13                   Mike Minter                           PRECINCT 201                                           01 
01050020003000001DEM       United States Representative, Dist 13                   Mike Minter                           PRECINCT 202                                           01 
01050020004000012DEM       United States Representative, Dist 13                   Mike Minter                           PRECINCT 301                                           01 
01050020005000000DEM       United States Representative, Dist 13                   Mike Minter                           PRECINCT 302                                           01 
01050020006000006DEM       United States Representative, Dist 13                   Mike Minter                           PRECINCT 303                                           01 
01050020007000007DEM       United States Representative, Dist 13                   Mike Minter                           PRECINCT 401                                           01 
01050020008000004DEM       United States Representative, Dist 13                   Mike Minter                           PRECINCT 402                                           01 
01050030001000005LIB       United States Representative, Dist 13                   Emily Pivoda                          PRECINCT 101                                           01 
01050030002000007LIB       United States Representative, Dist 13                   Emily Pivoda                          PRECINCT 201                                           01 
01050030003000000LIB       United States Representative, Dist 13                   Emily Pivoda                          PRECINCT 202                                           01 
01050030004000003LIB       United States Representative, Dist 13                   Emily Pivoda                          PRECINCT 301                                           01 
01050030005000001LIB       United States Representative, Dist 13                   Emily Pivoda                          PRECINCT 302                                           01 
01050030006000000LIB       United States Representative, Dist 13                   Emily Pivoda                          PRECINCT 303                                           01 
01050030007000006LIB       United States Representative, Dist 13                   Emily Pivoda                          PRECINCT 401                                           01 
01050030008000001LIB       United States Representative, Dist 13                   Emily Pivoda                          PRECINCT 402                                           01 
01050040001000001GRN       United States Representative, Dist 13                   Don Cook                              PRECINCT 101                                           01 
01050040002000001GRN       United States Representative, Dist 13                   Don Cook                              PRECINCT 201                                           01 
01050040003000000GRN       United States Representative, Dist 13                   Don Cook                              PRECINCT 202                                           01 
01050040004000001GRN       United States Representative, Dist 13                   Don Cook                              PRECINCT 301                                           01 
01050040005000000GRN       United States Representative, Dist 13                   Don Cook                              PRECINCT 302                                           01 
01050040006000000GRN       United States Representative, Dist 13                   Don Cook                              PRECINCT 303                                           01 
01050040007000000GRN       United States Representative, Dist 13                   Don Cook                              PRECINCT 401                                           01 
01050040008000003GRN       United States Representative, Dist 13                   Don Cook                              PRECINCT 402                                           01 
01050050001000000          United States Representative, Dist 13                   OVER VOTES                            PRECINCT 101                                           01 
01050050002000000          United States Representative, Dist 13                   OVER VOTES                            PRECINCT 201                                           01 
01050050003000000          United States Representative, Dist 13                   OVER VOTES                            PRECINCT 202                                           01 
01050050004000000          United States Representative, Dist 13                   OVER VOTES                            PRECINCT 301                                           01 
01050050005000000          United States Representative, Dist 13                   OVER VOTES                            PRECINCT 302                                           01 
01050050006000000          United States Representative, Dist 13                   OVER VOTES                            PRECINCT 303                                           01 
01050050007000000          United States Representative, Dist 13                   OVER VOTES                            PRECINCT 401                                           01 
01050050008000000          United States Representative, Dist 13                   OVER VOTES                            PRECINCT 402                                           01 
01050060001000004          United States Representative, Dist 13                   UNDER VOTES                           PRECINCT 101                                           01 
01050060002000005          United States Representative, Dist 13                   UNDER VOTES                           PRECINCT 201                                           01 
01050060003000000          United States Representative, Dist 13                   UNDER VOTES                           PRECINCT 202                                           01 
01050060004000002          United States Representative, Dist 13                   UNDER VOTES                           PRECINCT 301                                           01 
01050060005000000          United States Representative, Dist 13                   UNDER VOTES                           PRECINCT 302                                           01 
01050060006000002          United States Representative, Dist 13                   UNDER VOTES                           PRECINCT 303                                           01 
01050060007000000          United States Representative, Dist 13                   UNDER VOTES                           PRECINCT 401                                           01 
01050060008000000          United States Representative, Dist 13                   UNDER VOTES                           PRECINCT 402                                           01 
01060010001000123REP       Govenor                                                 Greg Abbott                           PRECINCT 101                                           01 
01060010002000134REP       Govenor                                                 Greg Abbott                           PRECINCT 201                                           01 
01060010003000013REP       Govenor                                                 Greg Abbott                           PRECINCT 202                                           01 
01060010004000185REP       Govenor                                                 Greg Abbott                           PRECINCT 301                                           01 
01060010005000028REP       Govenor                                                 Greg Abbott                           PRECINCT 302                                           01 
01060010006000051REP       Govenor                                                 Greg Abbott                           PRECINCT 303                                           01 
01060010007000134REP       Govenor                                                 Greg Abbott                           PRECINCT 401                                           01 
01060010008000047REP       Govenor                                                 Greg Abbott                           PRECINCT 402                                           01 
01060020001000028DEM       Govenor                                                 Wendy R. Davis                        PRECINCT 101                                           01 
01060020002000024DEM       Govenor                                                 Wendy R. Davis                        PRECINCT 201                                           01 
01060020003000001DEM       Govenor                                                 Wendy R. Davis                        PRECINCT 202                                           01 
01060020004000017DEM       Govenor                                                 Wendy R. Davis                        PRECINCT 301                                           01 
01060020005000000DEM       Govenor                                                 Wendy R. Davis                        PRECINCT 302                                           01 
01060020006000008DEM       Govenor                                                 Wendy R. Davis                        PRECINCT 303                                           01 
01060020007000013DEM       Govenor                                                 Wendy R. Davis                        PRECINCT 401                                           01 
01060020008000009DEM       Govenor                                                 Wendy R. Davis                        PRECINCT 402                                           01 
01060030001000002LIB       Govenor                                                 Kathie Glass                          PRECINCT 101                                           01 
01060030002000002LIB       Govenor                                                 Kathie Glass                          PRECINCT 201                                           01 
01060030003000000LIB       Govenor                                                 Kathie Glass                          PRECINCT 202                                           01 
01060030004000002LIB       Govenor                                                 Kathie Glass                          PRECINCT 301                                           01 
01060030005000001LIB       Govenor                                                 Kathie Glass                          PRECINCT 302                                           01 
01060030006000000LIB       Govenor                                                 Kathie Glass                          PRECINCT 303                                           01 
01060030007000003LIB       Govenor                                                 Kathie Glass                          PRECINCT 401                                           01 
01060030008000000LIB       Govenor                                                 Kathie Glass                          PRECINCT 402                                           01 
01060040001000002GRN       Govenor                                                 Brandon Parmer                        PRECINCT 101                                           01 
01060040002000000GRN       Govenor                                                 Brandon Parmer                        PRECINCT 201                                           01 
01060040003000000GRN       Govenor                                                 Brandon Parmer                        PRECINCT 202                                           01 
01060040004000000GRN       Govenor                                                 Brandon Parmer                        PRECINCT 301                                           01 
01060040005000000GRN       Govenor                                                 Brandon Parmer                        PRECINCT 302                                           01 
01060040006000000GRN       Govenor                                                 Brandon Parmer                        PRECINCT 303                                           01 
01060040007000001GRN       Govenor                                                 Brandon Parmer                        PRECINCT 401                                           01 
01060040008000002GRN       Govenor                                                 Brandon Parmer                        PRECINCT 402                                           01 
01060050001000000NON       Govenor                                                 WRITE-IN                              PRECINCT 101                                           01 
01060050002000000NON       Govenor                                                 WRITE-IN                              PRECINCT 201                                           01 
01060050003000000NON       Govenor                                                 WRITE-IN                              PRECINCT 202                                           01 
01060050004000000NON       Govenor                                                 WRITE-IN                              PRECINCT 301                                           01 
01060050005000000NON       Govenor                                                 WRITE-IN                              PRECINCT 302                                           01 
01060050006000000NON       Govenor                                                 WRITE-IN                              PRECINCT 303                                           01 
01060050007000000NON       Govenor                                                 WRITE-IN                              PRECINCT 401                                           01 
01060050008000000NON       Govenor                                                 WRITE-IN                              PRECINCT 402                                           01 
01060060001000000          Govenor                                                 OVER VOTES                            PRECINCT 101                                           01 
01060060002000001          Govenor                                                 OVER VOTES                            PRECINCT 201                                           01 
01060060003000000          Govenor                                                 OVER VOTES                            PRECINCT 202                                           01 
01060060004000000          Govenor                                                 OVER VOTES                            PRECINCT 301                                           01 
01060060005000000          Govenor                                                 OVER VOTES                            PRECINCT 302                                           01 
01060060006000000          Govenor                                                 OVER VOTES                            PRECINCT 303                                           01 
01060060007000000          Govenor                                                 OVER VOTES                            PRECINCT 401                                           01 
01060060008000000          Govenor                                                 OVER VOTES                            PRECINCT 402                                           01 
01060070001000002          Govenor                                                 UNDER VOTES                           PRECINCT 101                                           01 
01060070002000002          Govenor                                                 UNDER VOTES                           PRECINCT 201                                           01 
01060070003000000          Govenor                                                 UNDER VOTES                           PRECINCT 202                                           01 
01060070004000000          Govenor                                                 UNDER VOTES                           PRECINCT 301                                           01 
01060070005000000          Govenor                                                 UNDER VOTES                           PRECINCT 302                                           01 
01060070006000001          Govenor                                                 UNDER VOTES                           PRECINCT 303                                           01 
01060070007000000          Govenor                                                 UNDER VOTES                           PRECINCT 401                                           01 
01060070008000000          Govenor                                                 UNDER VOTES                           PRECINCT 402                                           01 
01070010001000116REP       Lieutenant Governor                                     Dan Patrick                           PRECINCT 101                                           01 
01070010002000132REP       Lieutenant Governor                                     Dan Patrick                           PRECINCT 201                                           01 
01070010003000013REP       Lieutenant Governor                                     Dan Patrick                           PRECINCT 202                                           01 
01070010004000184REP       Lieutenant Governor                                     Dan Patrick                           PRECINCT 301                                           01 
01070010005000027REP       Lieutenant Governor                                     Dan Patrick                           PRECINCT 302                                           01 
01070010006000053REP       Lieutenant Governor                                     Dan Patrick                           PRECINCT 303                                           01 
01070010007000134REP       Lieutenant Governor                                     Dan Patrick                           PRECINCT 401                                           01 
01070010008000049REP       Lieutenant Governor                                     Dan Patrick                           PRECINCT 402                                           01 
01070020001000029DEM       Lieutenant Governor                                     Leticia Van de Putte                  PRECINCT 101                                           01 
01070020002000021DEM       Lieutenant Governor                                     Leticia Van de Putte                  PRECINCT 201                                           01 
01070020003000001DEM       Lieutenant Governor                                     Leticia Van de Putte                  PRECINCT 202                                           01 
01070020004000014DEM       Lieutenant Governor                                     Leticia Van de Putte                  PRECINCT 301                                           01 
01070020005000001DEM       Lieutenant Governor                                     Leticia Van de Putte                  PRECINCT 302                                           01 
01070020006000006DEM       Lieutenant Governor                                     Leticia Van de Putte                  PRECINCT 303                                           01 
01070020007000010DEM       Lieutenant Governor                                     Leticia Van de Putte                  PRECINCT 401                                           01 
01070020008000006DEM       Lieutenant Governor                                     Leticia Van de Putte                  PRECINCT 402                                           01 
01070030001000005LIB       Lieutenant Governor                                     Robert D. Butler                      PRECINCT 101                                           01 
01070030002000005LIB       Lieutenant Governor                                     Robert D. Butler                      PRECINCT 201                                           01 
01070030003000000LIB       Lieutenant Governor                                     Robert D. Butler                      PRECINCT 202                                           01 
01070030004000004LIB       Lieutenant Governor                                     Robert D. Butler                      PRECINCT 301                                           01 
01070030005000001LIB       Lieutenant Governor                                     Robert D. Butler                      PRECINCT 302                                           01 
01070030006000000LIB       Lieutenant Governor                                     Robert D. Butler                      PRECINCT 303                                           01 
01070030007000004LIB       Lieutenant Governor                                     Robert D. Butler                      PRECINCT 401                                           01 
01070030008000000LIB       Lieutenant Governor                                     Robert D. Butler                      PRECINCT 402                                           01 
01070040001000001GRN       Lieutenant Governor                                     Chandrakantha Courtney                PRECINCT 101                                           01 
01070040002000000GRN       Lieutenant Governor                                     Chandrakantha Courtney                PRECINCT 201                                           01 
01070040003000000GRN       Lieutenant Governor                                     Chandrakantha Courtney                PRECINCT 202                                           01 
01070040004000000GRN       Lieutenant Governor                                     Chandrakantha Courtney                PRECINCT 301                                           01 
01070040005000000GRN       Lieutenant Governor                                     Chandrakantha Courtney                PRECINCT 302                                           01 
01070040006000000GRN       Lieutenant Governor                                     Chandrakantha Courtney                PRECINCT 303                                           01 
01070040007000002GRN       Lieutenant Governor                                     Chandrakantha Courtney                PRECINCT 401                                           01 
01070040008000002GRN       Lieutenant Governor                                     Chandrakantha Courtney                PRECINCT 402                                           01 
01070050001000000          Lieutenant Governor                                     OVER VOTES                            PRECINCT 101                                           01 
01070050002000001          Lieutenant Governor                                     OVER VOTES                            PRECINCT 201                                           01 
01070050003000000          Lieutenant Governor                                     OVER VOTES                            PRECINCT 202                                           01 
01070050004000000          Lieutenant Governor                                     OVER VOTES                            PRECINCT 301                                           01 
01070050005000000          Lieutenant Governor                                     OVER VOTES                            PRECINCT 302                                           01 
01070050006000000          Lieutenant Governor                                     OVER VOTES                            PRECINCT 303                                           01 
01070050007000000          Lieutenant Governor                                     OVER VOTES                            PRECINCT 401                                           01 
01070050008000000          Lieutenant Governor                                     OVER VOTES                            PRECINCT 402                                           01 
01070060001000006          Lieutenant Governor                                     UNDER VOTES                           PRECINCT 101                                           01 
01070060002000004          Lieutenant Governor                                     UNDER VOTES                           PRECINCT 201                                           01 
01070060003000000          Lieutenant Governor                                     UNDER VOTES                           PRECINCT 202                                           01 
01070060004000002          Lieutenant Governor                                     UNDER VOTES                           PRECINCT 301                                           01 
01070060005000000          Lieutenant Governor                                     UNDER VOTES                           PRECINCT 302                                           01 
01070060006000001          Lieutenant Governor                                     UNDER VOTES                           PRECINCT 303                                           01 
01070060007000001          Lieutenant Governor                                     UNDER VOTES                           PRECINCT 401                                           01 
01070060008000001          Lieutenant Governor                                     UNDER VOTES                           PRECINCT 402                                           01 
01080010001000119REP       Attorney General                                        Ken Paxton                            PRECINCT 101                                           01 
01080010002000132REP       Attorney General                                        Ken Paxton                            PRECINCT 201                                           01 
01080010003000011REP       Attorney General                                        Ken Paxton                            PRECINCT 202                                           01 
01080010004000173REP       Attorney General                                        Ken Paxton                            PRECINCT 301                                           01 
01080010005000028REP       Attorney General                                        Ken Paxton                            PRECINCT 302                                           01 
01080010006000051REP       Attorney General                                        Ken Paxton                            PRECINCT 303                                           01 
01080010007000130REP       Attorney General                                        Ken Paxton                            PRECINCT 401                                           01 
01080010008000047REP       Attorney General                                        Ken Paxton                            PRECINCT 402                                           01 
01080020001000027DEM       Attorney General                                        Sam Houston                           PRECINCT 101                                           01 
01080020002000016DEM       Attorney General                                        Sam Houston                           PRECINCT 201                                           01 
01080020003000003DEM       Attorney General                                        Sam Houston                           PRECINCT 202                                           01 
01080020004000019DEM       Attorney General                                        Sam Houston                           PRECINCT 301                                           01 
01080020005000000DEM       Attorney General                                        Sam Houston                           PRECINCT 302                                           01 
01080020006000008DEM       Attorney General                                        Sam Houston                           PRECINCT 303                                           01 
01080020007000012DEM       Attorney General                                        Sam Houston                           PRECINCT 401                                           01 
01080020008000006DEM       Attorney General                                        Sam Houston                           PRECINCT 402                                           01 
01080030001000005LIB       Attorney General                                        Jamie Balagia                         PRECINCT 101                                           01 
01080030002000007LIB       Attorney General                                        Jamie Balagia                         PRECINCT 201                                           01 
01080030003000000LIB       Attorney General                                        Jamie Balagia                         PRECINCT 202                                           01 
01080030004000006LIB       Attorney General                                        Jamie Balagia                         PRECINCT 301                                           01 
01080030005000000LIB       Attorney General                                        Jamie Balagia                         PRECINCT 302                                           01 
01080030006000000LIB       Attorney General                                        Jamie Balagia                         PRECINCT 303                                           01 
01080030007000005LIB       Attorney General                                        Jamie Balagia                         PRECINCT 401                                           01 
01080030008000002LIB       Attorney General                                        Jamie Balagia                         PRECINCT 402                                           01 
01080040001000001GRN       Attorney General                                        Jamar Osborne                         PRECINCT 101                                           01 
01080040002000001GRN       Attorney General                                        Jamar Osborne                         PRECINCT 201                                           01 
01080040003000000GRN       Attorney General                                        Jamar Osborne                         PRECINCT 202                                           01 
01080040004000000GRN       Attorney General                                        Jamar Osborne                         PRECINCT 301                                           01 
01080040005000000GRN       Attorney General                                        Jamar Osborne                         PRECINCT 302                                           01 
01080040006000000GRN       Attorney General                                        Jamar Osborne                         PRECINCT 303                                           01 
01080040007000001GRN       Attorney General                                        Jamar Osborne                         PRECINCT 401                                           01 
01080040008000002GRN       Attorney General                                        Jamar Osborne                         PRECINCT 402                                           01 
01080050001000000          Attorney General                                        OVER VOTES                            PRECINCT 101                                           01 
01080050002000001          Attorney General                                        OVER VOTES                            PRECINCT 201                                           01 
01080050003000000          Attorney General                                        OVER VOTES                            PRECINCT 202                                           01 
01080050004000000          Attorney General                                        OVER VOTES                            PRECINCT 301                                           01 
01080050005000000          Attorney General                                        OVER VOTES                            PRECINCT 302                                           01 
01080050006000000          Attorney General                                        OVER VOTES                            PRECINCT 303                                           01 
01080050007000000          Attorney General                                        OVER VOTES                            PRECINCT 401                                           01 
01080050008000000          Attorney General                                        OVER VOTES                            PRECINCT 402                                           01 
01080060001000005          Attorney General                                        UNDER VOTES                           PRECINCT 101                                           01 
01080060002000006          Attorney General                                        UNDER VOTES                           PRECINCT 201                                           01 
01080060003000000          Attorney General                                        UNDER VOTES                           PRECINCT 202                                           01 
01080060004000006          Attorney General                                        UNDER VOTES                           PRECINCT 301                                           01 
01080060005000001          Attorney General                                        UNDER VOTES                           PRECINCT 302                                           01 
01080060006000001          Attorney General                                        UNDER VOTES                           PRECINCT 303                                           01 
01080060007000003          Attorney General                                        UNDER VOTES                           PRECINCT 401                                           01 
01080060008000001          Attorney General                                        UNDER VOTES                           PRECINCT 402                                           01 
01090010001000120REP       Comptroller of Public Accounts                          Glenn Hegar                           PRECINCT 101                                           01 
01090010002000127REP       Comptroller of Public Accounts                          Glenn Hegar                           PRECINCT 201                                           01 
01090010003000012REP       Comptroller of Public Accounts                          Glenn Hegar                           PRECINCT 202                                           01 
01090010004000173REP       Comptroller of Public Accounts                          Glenn Hegar                           PRECINCT 301                                           01 
01090010005000027REP       Comptroller of Public Accounts                          Glenn Hegar                           PRECINCT 302                                           01 
01090010006000049REP       Comptroller of Public Accounts                          Glenn Hegar                           PRECINCT 303                                           01 
01090010007000130REP       Comptroller of Public Accounts                          Glenn Hegar                           PRECINCT 401                                           01 
01090010008000043REP       Comptroller of Public Accounts                          Glenn Hegar                           PRECINCT 402                                           01 
01090020001000022DEM       Comptroller of Public Accounts                          Mike Collier                          PRECINCT 101                                           01 
01090020002000015DEM       Comptroller of Public Accounts                          Mike Collier                          PRECINCT 201                                           01 
01090020003000001DEM       Comptroller of Public Accounts                          Mike Collier                          PRECINCT 202                                           01 
01090020004000013DEM       Comptroller of Public Accounts                          Mike Collier                          PRECINCT 301                                           01 
01090020005000000DEM       Comptroller of Public Accounts                          Mike Collier                          PRECINCT 302                                           01 
01090020006000009DEM       Comptroller of Public Accounts                          Mike Collier                          PRECINCT 303                                           01 
01090020007000009DEM       Comptroller of Public Accounts                          Mike Collier                          PRECINCT 401                                           01 
01090020008000006DEM       Comptroller of Public Accounts                          Mike Collier                          PRECINCT 402                                           01 
01090030001000005LIB       Comptroller of Public Accounts                          Ben Sanders                           PRECINCT 101                                           01 
01090030002000006LIB       Comptroller of Public Accounts                          Ben Sanders                           PRECINCT 201                                           01 
01090030003000000LIB       Comptroller of Public Accounts                          Ben Sanders                           PRECINCT 202                                           01 
01090030004000005LIB       Comptroller of Public Accounts                          Ben Sanders                           PRECINCT 301                                           01 
01090030005000001LIB       Comptroller of Public Accounts                          Ben Sanders                           PRECINCT 302                                           01 
01090030006000000LIB       Comptroller of Public Accounts                          Ben Sanders                           PRECINCT 303                                           01 
01090030007000006LIB       Comptroller of Public Accounts                          Ben Sanders                           PRECINCT 401                                           01 
01090030008000001LIB       Comptroller of Public Accounts                          Ben Sanders                           PRECINCT 402                                           01 
01090040001000002GRN       Comptroller of Public Accounts                          Deb Shafto                            PRECINCT 101                                           01 
01090040002000000GRN       Comptroller of Public Accounts                          Deb Shafto                            PRECINCT 201                                           01 
01090040003000000GRN       Comptroller of Public Accounts                          Deb Shafto                            PRECINCT 202                                           01 
01090040004000000GRN       Comptroller of Public Accounts                          Deb Shafto                            PRECINCT 301                                           01 
01090040005000000GRN       Comptroller of Public Accounts                          Deb Shafto                            PRECINCT 302                                           01 
01090040006000000GRN       Comptroller of Public Accounts                          Deb Shafto                            PRECINCT 303                                           01 
01090040007000001GRN       Comptroller of Public Accounts                          Deb Shafto                            PRECINCT 401                                           01 
01090040008000004GRN       Comptroller of Public Accounts                          Deb Shafto                            PRECINCT 402                                           01 
01090050001000000          Comptroller of Public Accounts                          OVER VOTES                            PRECINCT 101                                           01 
01090050002000000          Comptroller of Public Accounts                          OVER VOTES                            PRECINCT 201                                           01 
01090050003000000          Comptroller of Public Accounts                          OVER VOTES                            PRECINCT 202                                           01 
01090050004000000          Comptroller of Public Accounts                          OVER VOTES                            PRECINCT 301                                           01 
01090050005000000          Comptroller of Public Accounts                          OVER VOTES                            PRECINCT 302                                           01 
01090050006000000          Comptroller of Public Accounts                          OVER VOTES                            PRECINCT 303                                           01 
01090050007000000          Comptroller of Public Accounts                          OVER VOTES                            PRECINCT 401                                           01 
01090050008000000          Comptroller of Public Accounts                          OVER VOTES                            PRECINCT 402                                           01 
01090060001000008          Comptroller of Public Accounts                          UNDER VOTES                           PRECINCT 101                                           01 
01090060002000015          Comptroller of Public Accounts                          UNDER VOTES                           PRECINCT 201                                           01 
01090060003000001          Comptroller of Public Accounts                          UNDER VOTES                           PRECINCT 202                                           01 
01090060004000013          Comptroller of Public Accounts                          UNDER VOTES                           PRECINCT 301                                           01 
01090060005000001          Comptroller of Public Accounts                          UNDER VOTES                           PRECINCT 302                                           01 
01090060006000002          Comptroller of Public Accounts                          UNDER VOTES                           PRECINCT 303                                           01 
01090060007000005          Comptroller of Public Accounts                          UNDER VOTES                           PRECINCT 401                                           01 
01090060008000004          Comptroller of Public Accounts                          UNDER VOTES                           PRECINCT 402                                           01 
01100010001000122REP       Commissioner of the General Land Office                 George P. Bush                        PRECINCT 101                                           01 
01100010002000132REP       Commissioner of the General Land Office                 George P. Bush                        PRECINCT 201                                           01 
01100010003000011REP       Commissioner of the General Land Office                 George P. Bush                        PRECINCT 202                                           01 
01100010004000179REP       Commissioner of the General Land Office                 George P. Bush                        PRECINCT 301                                           01 
01100010005000029REP       Commissioner of the General Land Office                 George P. Bush                        PRECINCT 302                                           01 
01100010006000050REP       Commissioner of the General Land Office                 George P. Bush                        PRECINCT 303                                           01 
01100010007000131REP       Commissioner of the General Land Office                 George P. Bush                        PRECINCT 401                                           01 
01100010008000047REP       Commissioner of the General Land Office                 George P. Bush                        PRECINCT 402                                           01 
01100020001000020DEM       Commissioner of the General Land Office                 John Cook                             PRECINCT 101                                           01 
01100020002000014DEM       Commissioner of the General Land Office                 John Cook                             PRECINCT 201                                           01 
01100020003000003DEM       Commissioner of the General Land Office                 John Cook                             PRECINCT 202                                           01 
01100020004000012DEM       Commissioner of the General Land Office                 John Cook                             PRECINCT 301                                           01 
01100020005000000DEM       Commissioner of the General Land Office                 John Cook                             PRECINCT 302                                           01 
01100020006000008DEM       Commissioner of the General Land Office                 John Cook                             PRECINCT 303                                           01 
01100020007000009DEM       Commissioner of the General Land Office                 John Cook                             PRECINCT 401                                           01 
01100020008000006DEM       Commissioner of the General Land Office                 John Cook                             PRECINCT 402                                           01 
01100030001000005LIB       Commissioner of the General Land Office                 Justin Knight                         PRECINCT 101                                           01 
01100030002000003LIB       Commissioner of the General Land Office                 Justin Knight                         PRECINCT 201                                           01 
01100030003000000LIB       Commissioner of the General Land Office                 Justin Knight                         PRECINCT 202                                           01 
01100030004000008LIB       Commissioner of the General Land Office                 Justin Knight                         PRECINCT 301                                           01 
01100030005000000LIB       Commissioner of the General Land Office                 Justin Knight                         PRECINCT 302                                           01 
01100030006000000LIB       Commissioner of the General Land Office                 Justin Knight                         PRECINCT 303                                           01 
01100030007000005LIB       Commissioner of the General Land Office                 Justin Knight                         PRECINCT 401                                           01 
01100030008000000LIB       Commissioner of the General Land Office                 Justin Knight                         PRECINCT 402                                           01 
01100040001000002GRN       Commissioner of the General Land Office                 Valerie Alessi                        PRECINCT 101                                           01 
01100040002000003GRN       Commissioner of the General Land Office                 Valerie Alessi                        PRECINCT 201                                           01 
01100040003000000GRN       Commissioner of the General Land Office                 Valerie Alessi                        PRECINCT 202                                           01 
01100040004000000GRN       Commissioner of the General Land Office                 Valerie Alessi                        PRECINCT 301                                           01 
01100040005000000GRN       Commissioner of the General Land Office                 Valerie Alessi                        PRECINCT 302                                           01 
01100040006000001GRN       Commissioner of the General Land Office                 Valerie Alessi                        PRECINCT 303                                           01 
01100040007000003GRN       Commissioner of the General Land Office                 Valerie Alessi                        PRECINCT 401                                           01 
01100040008000003GRN       Commissioner of the General Land Office                 Valerie Alessi                        PRECINCT 402                                           01 
01100050001000000          Commissioner of the General Land Office                 OVER VOTES                            PRECINCT 101                                           01 
01100050002000000          Commissioner of the General Land Office                 OVER VOTES                            PRECINCT 201                                           01 
01100050003000000          Commissioner of the General Land Office                 OVER VOTES                            PRECINCT 202                                           01 
01100050004000000          Commissioner of the General Land Office                 OVER VOTES                            PRECINCT 301                                           01 
01100050005000000          Commissioner of the General Land Office                 OVER VOTES                            PRECINCT 302                                           01 
01100050006000000          Commissioner of the General Land Office                 OVER VOTES                            PRECINCT 303                                           01 
01100050007000000          Commissioner of the General Land Office                 OVER VOTES                            PRECINCT 401                                           01 
01100050008000000          Commissioner of the General Land Office                 OVER VOTES                            PRECINCT 402                                           01 
01100060001000008          Commissioner of the General Land Office                 UNDER VOTES                           PRECINCT 101                                           01 
01100060002000011          Commissioner of the General Land Office                 UNDER VOTES                           PRECINCT 201                                           01 
01100060003000000          Commissioner of the General Land Office                 UNDER VOTES                           PRECINCT 202                                           01 
01100060004000005          Commissioner of the General Land Office                 UNDER VOTES                           PRECINCT 301                                           01 
01100060005000000          Commissioner of the General Land Office                 UNDER VOTES                           PRECINCT 302                                           01 
01100060006000001          Commissioner of the General Land Office                 UNDER VOTES                           PRECINCT 303                                           01 
01100060007000003          Commissioner of the General Land Office                 UNDER VOTES                           PRECINCT 401                                           01 
01100060008000002          Commissioner of the General Land Office                 UNDER VOTES                           PRECINCT 402                                           01 
01110010001000111REP       Commissioner of Agriculture                             Sid Miller                            PRECINCT 101                                           01 
01110010002000126REP       Commissioner of Agriculture                             Sid Miller                            PRECINCT 201                                           01 
01110010003000011REP       Commissioner of Agriculture                             Sid Miller                            PRECINCT 202                                           01 
01110010004000173REP       Commissioner of Agriculture                             Sid Miller                            PRECINCT 301                                           01 
01110010005000027REP       Commissioner of Agriculture                             Sid Miller                            PRECINCT 302                                           01 
01110010006000048REP       Commissioner of Agriculture                             Sid Miller                            PRECINCT 303                                           01 
01110010007000129REP       Commissioner of Agriculture                             Sid Miller                            PRECINCT 401                                           01 
01110010008000045REP       Commissioner of Agriculture                             Sid Miller                            PRECINCT 402                                           01 
01110020001000024DEM       Commissioner of Agriculture                             Jim Hogan                             PRECINCT 101                                           01 
01110020002000018DEM       Commissioner of Agriculture                             Jim Hogan                             PRECINCT 201                                           01 
01110020003000002DEM       Commissioner of Agriculture                             Jim Hogan                             PRECINCT 202                                           01 
01110020004000013DEM       Commissioner of Agriculture                             Jim Hogan                             PRECINCT 301                                           01 
01110020005000000DEM       Commissioner of Agriculture                             Jim Hogan                             PRECINCT 302                                           01 
01110020006000009DEM       Commissioner of Agriculture                             Jim Hogan                             PRECINCT 303                                           01 
01110020007000010DEM       Commissioner of Agriculture                             Jim Hogan                             PRECINCT 401                                           01 
01110020008000007DEM       Commissioner of Agriculture                             Jim Hogan                             PRECINCT 402                                           01 
01110030001000006LIB       Commissioner of Agriculture                             David (Rocky) Palmquist               PRECINCT 101                                           01 
01110030002000003LIB       Commissioner of Agriculture                             David (Rocky) Palmquist               PRECINCT 201                                           01 
01110030003000000LIB       Commissioner of Agriculture                             David (Rocky) Palmquist               PRECINCT 202                                           01 
01110030004000006LIB       Commissioner of Agriculture                             David (Rocky) Palmquist               PRECINCT 301                                           01 
01110030005000001LIB       Commissioner of Agriculture                             David (Rocky) Palmquist               PRECINCT 302                                           01 
01110030006000000LIB       Commissioner of Agriculture                             David (Rocky) Palmquist               PRECINCT 303                                           01 
01110030007000004LIB       Commissioner of Agriculture                             David (Rocky) Palmquist               PRECINCT 401                                           01 
01110030008000000LIB       Commissioner of Agriculture                             David (Rocky) Palmquist               PRECINCT 402                                           01 
01110040001000004GRN       Commissioner of Agriculture                             Kenneth Kendrick                      PRECINCT 101                                           01 
01110040002000002GRN       Commissioner of Agriculture                             Kenneth Kendrick                      PRECINCT 201                                           01 
01110040003000000GRN       Commissioner of Agriculture                             Kenneth Kendrick                      PRECINCT 202                                           01 
01110040004000000GRN       Commissioner of Agriculture                             Kenneth Kendrick                      PRECINCT 301                                           01 
01110040005000000GRN       Commissioner of Agriculture                             Kenneth Kendrick                      PRECINCT 302                                           01 
01110040006000001GRN       Commissioner of Agriculture                             Kenneth Kendrick                      PRECINCT 303                                           01 
01110040007000003GRN       Commissioner of Agriculture                             Kenneth Kendrick                      PRECINCT 401                                           01 
01110040008000003GRN       Commissioner of Agriculture                             Kenneth Kendrick                      PRECINCT 402                                           01 
01110050001000000          Commissioner of Agriculture                             OVER VOTES                            PRECINCT 101                                           01 
01110050002000000          Commissioner of Agriculture                             OVER VOTES                            PRECINCT 201                                           01 
01110050003000000          Commissioner of Agriculture                             OVER VOTES                            PRECINCT 202                                           01 
01110050004000000          Commissioner of Agriculture                             OVER VOTES                            PRECINCT 301                                           01 
01110050005000000          Commissioner of Agriculture                             OVER VOTES                            PRECINCT 302                                           01 
01110050006000000          Commissioner of Agriculture                             OVER VOTES                            PRECINCT 303                                           01 
01110050007000000          Commissioner of Agriculture                             OVER VOTES                            PRECINCT 401                                           01 
01110050008000000          Commissioner of Agriculture                             OVER VOTES                            PRECINCT 402                                           01 
01110060001000012          Commissioner of Agriculture                             UNDER VOTES                           PRECINCT 101                                           01 
01110060002000014          Commissioner of Agriculture                             UNDER VOTES                           PRECINCT 201                                           01 
01110060003000001          Commissioner of Agriculture                             UNDER VOTES                           PRECINCT 202                                           01 
01110060004000012          Commissioner of Agriculture                             UNDER VOTES                           PRECINCT 301                                           01 
01110060005000001          Commissioner of Agriculture                             UNDER VOTES                           PRECINCT 302                                           01 
01110060006000002          Commissioner of Agriculture                             UNDER VOTES                           PRECINCT 303                                           01 
01110060007000005          Commissioner of Agriculture                             UNDER VOTES                           PRECINCT 401                                           01 
01110060008000003          Commissioner of Agriculture                             UNDER VOTES                           PRECINCT 402                                           01 
01120010001000115REP       Railroad Commissioner                                   Ryan Sitton                           PRECINCT 101                                           01 
01120010002000125REP       Railroad Commissioner                                   Ryan Sitton                           PRECINCT 201                                           01 
01120010003000011REP       Railroad Commissioner                                   Ryan Sitton                           PRECINCT 202                                           01 
01120010004000175REP       Railroad Commissioner                                   Ryan Sitton                           PRECINCT 301                                           01 
01120010005000026REP       Railroad Commissioner                                   Ryan Sitton                           PRECINCT 302                                           01 
01120010006000050REP       Railroad Commissioner                                   Ryan Sitton                           PRECINCT 303                                           01 
01120010007000129REP       Railroad Commissioner                                   Ryan Sitton                           PRECINCT 401                                           01 
01120010008000044REP       Railroad Commissioner                                   Ryan Sitton                           PRECINCT 402                                           01 
01120020001000023DEM       Railroad Commissioner                                   Steve Brown                           PRECINCT 101                                           01 
01120020002000015DEM       Railroad Commissioner                                   Steve Brown                           PRECINCT 201                                           01 
01120020003000001DEM       Railroad Commissioner                                   Steve Brown                           PRECINCT 202                                           01 
01120020004000012DEM       Railroad Commissioner                                   Steve Brown                           PRECINCT 301                                           01 
01120020005000000DEM       Railroad Commissioner                                   Steve Brown                           PRECINCT 302                                           01 
01120020006000008DEM       Railroad Commissioner                                   Steve Brown                           PRECINCT 303                                           01 
01120020007000006DEM       Railroad Commissioner                                   Steve Brown                           PRECINCT 401                                           01 
01120020008000008DEM       Railroad Commissioner                                   Steve Brown                           PRECINCT 402                                           01 
01120030001000007LIB       Railroad Commissioner                                   Mark A. Miller                        PRECINCT 101                                           01 
01120030002000003LIB       Railroad Commissioner                                   Mark A. Miller                        PRECINCT 201                                           01 
01120030003000000LIB       Railroad Commissioner                                   Mark A. Miller                        PRECINCT 202                                           01 
01120030004000004LIB       Railroad Commissioner                                   Mark A. Miller                        PRECINCT 301                                           01 
01120030005000002LIB       Railroad Commissioner                                   Mark A. Miller                        PRECINCT 302                                           01 
01120030006000000LIB       Railroad Commissioner                                   Mark A. Miller                        PRECINCT 303                                           01 
01120030007000007LIB       Railroad Commissioner                                   Mark A. Miller                        PRECINCT 401                                           01 
01120030008000000LIB       Railroad Commissioner                                   Mark A. Miller                        PRECINCT 402                                           01 
01120040001000002GRN       Railroad Commissioner                                   Martina Salinas                       PRECINCT 101                                           01 
01120040002000005GRN       Railroad Commissioner                                   Martina Salinas                       PRECINCT 201                                           01 
01120040003000000GRN       Railroad Commissioner                                   Martina Salinas                       PRECINCT 202                                           01 
01120040004000002GRN       Railroad Commissioner                                   Martina Salinas                       PRECINCT 301                                           01 
01120040005000000GRN       Railroad Commissioner                                   Martina Salinas                       PRECINCT 302                                           01 
01120040006000001GRN       Railroad Commissioner                                   Martina Salinas                       PRECINCT 303                                           01 
01120040007000004GRN       Railroad Commissioner                                   Martina Salinas                       PRECINCT 401                                           01 
01120040008000003GRN       Railroad Commissioner                                   Martina Salinas                       PRECINCT 402                                           01 
01120050001000000          Railroad Commissioner                                   OVER VOTES                            PRECINCT 101                                           01 
01120050002000000          Railroad Commissioner                                   OVER VOTES                            PRECINCT 201                                           01 
01120050003000000          Railroad Commissioner                                   OVER VOTES                            PRECINCT 202                                           01 
01120050004000000          Railroad Commissioner                                   OVER VOTES                            PRECINCT 301                                           01 
01120050005000000          Railroad Commissioner                                   OVER VOTES                            PRECINCT 302                                           01 
01120050006000000          Railroad Commissioner                                   OVER VOTES                            PRECINCT 303                                           01 
01120050007000000          Railroad Commissioner                                   OVER VOTES                            PRECINCT 401                                           01 
01120050008000000          Railroad Commissioner                                   OVER VOTES                            PRECINCT 402                                           01 
01120060001000010          Railroad Commissioner                                   UNDER VOTES                           PRECINCT 101                                           01 
01120060002000015          Railroad Commissioner                                   UNDER VOTES                           PRECINCT 201                                           01 
01120060003000002          Railroad Commissioner                                   UNDER VOTES                           PRECINCT 202                                           01 
01120060004000011          Railroad Commissioner                                   UNDER VOTES                           PRECINCT 301                                           01 
01120060005000001          Railroad Commissioner                                   UNDER VOTES                           PRECINCT 302                                           01 
01120060006000001          Railroad Commissioner                                   UNDER VOTES                           PRECINCT 303                                           01 
01120060007000005          Railroad Commissioner                                   UNDER VOTES                           PRECINCT 401                                           01 
01120060008000003          Railroad Commissioner                                   UNDER VOTES                           PRECINCT 402                                           01 
01130010001000110REP       Chief Justice, Supreme Court                            Nathan Hecht                          PRECINCT 101                                           01 
01130010002000126REP       Chief Justice, Supreme Court                            Nathan Hecht                          PRECINCT 201                                           01 
01130010003000011REP       Chief Justice, Supreme Court                            Nathan Hecht                          PRECINCT 202                                           01 
01130010004000172REP       Chief Justice, Supreme Court                            Nathan Hecht                          PRECINCT 301                                           01 
01130010005000028REP       Chief Justice, Supreme Court                            Nathan Hecht                          PRECINCT 302                                           01 
01130010006000051REP       Chief Justice, Supreme Court                            Nathan Hecht                          PRECINCT 303                                           01 
01130010007000132REP       Chief Justice, Supreme Court                            Nathan Hecht                          PRECINCT 401                                           01 
01130010008000043REP       Chief Justice, Supreme Court                            Nathan Hecht                          PRECINCT 402                                           01 
01130020001000026DEM       Chief Justice, Supreme Court                            William Moody                         PRECINCT 101                                           01 
01130020002000014DEM       Chief Justice, Supreme Court                            William Moody                         PRECINCT 201                                           01 
01130020003000001DEM       Chief Justice, Supreme Court                            William Moody                         PRECINCT 202                                           01 
01130020004000011DEM       Chief Justice, Supreme Court                            William Moody                         PRECINCT 301                                           01 
01130020005000000DEM       Chief Justice, Supreme Court                            William Moody                         PRECINCT 302                                           01 
01130020006000008DEM       Chief Justice, Supreme Court                            William Moody                         PRECINCT 303                                           01 
01130020007000008DEM       Chief Justice, Supreme Court                            William Moody                         PRECINCT 401                                           01 
01130020008000006DEM       Chief Justice, Supreme Court                            William Moody                         PRECINCT 402                                           01 
01130030001000007LIB       Chief Justice, Supreme Court                            Tom Oxford                            PRECINCT 101                                           01 
01130030002000009LIB       Chief Justice, Supreme Court                            Tom Oxford                            PRECINCT 201                                           01 
01130030003000000LIB       Chief Justice, Supreme Court                            Tom Oxford                            PRECINCT 202                                           01 
01130030004000006LIB       Chief Justice, Supreme Court                            Tom Oxford                            PRECINCT 301                                           01 
01130030005000000LIB       Chief Justice, Supreme Court                            Tom Oxford                            PRECINCT 302                                           01 
01130030006000000LIB       Chief Justice, Supreme Court                            Tom Oxford                            PRECINCT 303                                           01 
01130030007000005LIB       Chief Justice, Supreme Court                            Tom Oxford                            PRECINCT 401                                           01 
01130030008000003LIB       Chief Justice, Supreme Court                            Tom Oxford                            PRECINCT 402                                           01 
01130040001000001          Chief Justice, Supreme Court                            OVER VOTES                            PRECINCT 101                                           01 
01130040002000000          Chief Justice, Supreme Court                            OVER VOTES                            PRECINCT 201                                           01 
01130040003000000          Chief Justice, Supreme Court                            OVER VOTES                            PRECINCT 202                                           01 
01130040004000000          Chief Justice, Supreme Court                            OVER VOTES                            PRECINCT 301                                           01 
01130040005000000          Chief Justice, Supreme Court                            OVER VOTES                            PRECINCT 302                                           01 
01130040006000000          Chief Justice, Supreme Court                            OVER VOTES                            PRECINCT 303                                           01 
01130040007000000          Chief Justice, Supreme Court                            OVER VOTES                            PRECINCT 401                                           01 
01130040008000000          Chief Justice, Supreme Court                            OVER VOTES                            PRECINCT 402                                           01 
01130050001000013          Chief Justice, Supreme Court                            UNDER VOTES                           PRECINCT 101                                           01 
01130050002000014          Chief Justice, Supreme Court                            UNDER VOTES                           PRECINCT 201                                           01 
01130050003000002          Chief Justice, Supreme Court                            UNDER VOTES                           PRECINCT 202                                           01 
01130050004000015          Chief Justice, Supreme Court                            UNDER VOTES                           PRECINCT 301                                           01 
01130050005000001          Chief Justice, Supreme Court                            UNDER VOTES                           PRECINCT 302                                           01 
01130050006000001          Chief Justice, Supreme Court                            UNDER VOTES                           PRECINCT 303                                           01 
01130050007000006          Chief Justice, Supreme Court                            UNDER VOTES                           PRECINCT 401                                           01 
01130050008000006          Chief Justice, Supreme Court                            UNDER VOTES                           PRECINCT 402                                           01 
01140010001000115REP       Supreme Court, Place 6, Unexpired Term                  Jeff Brown                            PRECINCT 101                                           01 
01140010002000125REP       Supreme Court, Place 6, Unexpired Term                  Jeff Brown                            PRECINCT 201                                           01 
01140010003000011REP       Supreme Court, Place 6, Unexpired Term                  Jeff Brown                            PRECINCT 202                                           01 
01140010004000172REP       Supreme Court, Place 6, Unexpired Term                  Jeff Brown                            PRECINCT 301                                           01 
01140010005000026REP       Supreme Court, Place 6, Unexpired Term                  Jeff Brown                            PRECINCT 302                                           01 
01140010006000050REP       Supreme Court, Place 6, Unexpired Term                  Jeff Brown                            PRECINCT 303                                           01 
01140010007000133REP       Supreme Court, Place 6, Unexpired Term                  Jeff Brown                            PRECINCT 401                                           01 
01140010008000045REP       Supreme Court, Place 6, Unexpired Term                  Jeff Brown                            PRECINCT 402                                           01 
01140020001000023DEM       Supreme Court, Place 6, Unexpired Term                  Lawrence Edward Meyers                PRECINCT 101                                           01 
01140020002000013DEM       Supreme Court, Place 6, Unexpired Term                  Lawrence Edward Meyers                PRECINCT 201                                           01 
01140020003000001DEM       Supreme Court, Place 6, Unexpired Term                  Lawrence Edward Meyers                PRECINCT 202                                           01 
01140020004000010DEM       Supreme Court, Place 6, Unexpired Term                  Lawrence Edward Meyers                PRECINCT 301                                           01 
01140020005000000DEM       Supreme Court, Place 6, Unexpired Term                  Lawrence Edward Meyers                PRECINCT 302                                           01 
01140020006000008DEM       Supreme Court, Place 6, Unexpired Term                  Lawrence Edward Meyers                PRECINCT 303                                           01 
01140020007000007DEM       Supreme Court, Place 6, Unexpired Term                  Lawrence Edward Meyers                PRECINCT 401                                           01 
01140020008000005DEM       Supreme Court, Place 6, Unexpired Term                  Lawrence Edward Meyers                PRECINCT 402                                           01 
01140030001000005LIB       Supreme Court, Place 6, Unexpired Term                  Mark Ash                              PRECINCT 101                                           01 
01140030002000008LIB       Supreme Court, Place 6, Unexpired Term                  Mark Ash                              PRECINCT 201                                           01 
01140030003000000LIB       Supreme Court, Place 6, Unexpired Term                  Mark Ash                              PRECINCT 202                                           01 
01140030004000005LIB       Supreme Court, Place 6, Unexpired Term                  Mark Ash                              PRECINCT 301                                           01 
01140030005000001LIB       Supreme Court, Place 6, Unexpired Term                  Mark Ash                              PRECINCT 302                                           01 
01140030006000001LIB       Supreme Court, Place 6, Unexpired Term                  Mark Ash                              PRECINCT 303                                           01 
01140030007000005LIB       Supreme Court, Place 6, Unexpired Term                  Mark Ash                              PRECINCT 401                                           01 
01140030008000003LIB       Supreme Court, Place 6, Unexpired Term                  Mark Ash                              PRECINCT 402                                           01 
01140040001000000          Supreme Court, Place 6, Unexpired Term                  OVER VOTES                            PRECINCT 101                                           01 
01140040002000000          Supreme Court, Place 6, Unexpired Term                  OVER VOTES                            PRECINCT 201                                           01 
01140040003000000          Supreme Court, Place 6, Unexpired Term                  OVER VOTES                            PRECINCT 202                                           01 
01140040004000000          Supreme Court, Place 6, Unexpired Term                  OVER VOTES                            PRECINCT 301                                           01 
01140040005000000          Supreme Court, Place 6, Unexpired Term                  OVER VOTES                            PRECINCT 302                                           01 
01140040006000000          Supreme Court, Place 6, Unexpired Term                  OVER VOTES                            PRECINCT 303                                           01 
01140040007000000          Supreme Court, Place 6, Unexpired Term                  OVER VOTES                            PRECINCT 401                                           01 
01140040008000000          Supreme Court, Place 6, Unexpired Term                  OVER VOTES                            PRECINCT 402                                           01 
01140050001000014          Supreme Court, Place 6, Unexpired Term                  UNDER VOTES                           PRECINCT 101                                           01 
01140050002000017          Supreme Court, Place 6, Unexpired Term                  UNDER VOTES                           PRECINCT 201                                           01 
01140050003000002          Supreme Court, Place 6, Unexpired Term                  UNDER VOTES                           PRECINCT 202                                           01 
01140050004000017          Supreme Court, Place 6, Unexpired Term                  UNDER VOTES                           PRECINCT 301                                           01 
01140050005000002          Supreme Court, Place 6, Unexpired Term                  UNDER VOTES                           PRECINCT 302                                           01 
01140050006000001          Supreme Court, Place 6, Unexpired Term                  UNDER VOTES                           PRECINCT 303                                           01 
01140050007000006          Supreme Court, Place 6, Unexpired Term                  UNDER VOTES                           PRECINCT 401                                           01 
01140050008000005          Supreme Court, Place 6, Unexpired Term                  UNDER VOTES                           PRECINCT 402                                           01 
01150010001000113REP       Justice, Supreme Court, Place 7                         Jeff Boyd                             PRECINCT 101                                           01 
01150010002000127REP       Justice, Supreme Court, Place 7                         Jeff Boyd                             PRECINCT 201                                           01 
01150010003000011REP       Justice, Supreme Court, Place 7                         Jeff Boyd                             PRECINCT 202                                           01 
01150010004000170REP       Justice, Supreme Court, Place 7                         Jeff Boyd                             PRECINCT 301                                           01 
01150010005000027REP       Justice, Supreme Court, Place 7                         Jeff Boyd                             PRECINCT 302                                           01 
01150010006000052REP       Justice, Supreme Court, Place 7                         Jeff Boyd                             PRECINCT 303                                           01 
01150010007000131REP       Justice, Supreme Court, Place 7                         Jeff Boyd                             PRECINCT 401                                           01 
01150010008000045REP       Justice, Supreme Court, Place 7                         Jeff Boyd                             PRECINCT 402                                           01 
01150020001000024DEM       Justice, Supreme Court, Place 7                         Gina Benavides                        PRECINCT 101                                           01 
01150020002000015DEM       Justice, Supreme Court, Place 7                         Gina Benavides                        PRECINCT 201                                           01 
01150020003000001DEM       Justice, Supreme Court, Place 7                         Gina Benavides                        PRECINCT 202                                           01 
01150020004000010DEM       Justice, Supreme Court, Place 7                         Gina Benavides                        PRECINCT 301                                           01 
01150020005000000DEM       Justice, Supreme Court, Place 7                         Gina Benavides                        PRECINCT 302                                           01 
01150020006000007DEM       Justice, Supreme Court, Place 7                         Gina Benavides                        PRECINCT 303                                           01 
01150020007000010DEM       Justice, Supreme Court, Place 7                         Gina Benavides                        PRECINCT 401                                           01 
01150020008000004DEM       Justice, Supreme Court, Place 7                         Gina Benavides                        PRECINCT 402                                           01 
01150030001000004LIB       Justice, Supreme Court, Place 7                         Don Fulton                            PRECINCT 101                                           01 
01150030002000003LIB       Justice, Supreme Court, Place 7                         Don Fulton                            PRECINCT 201                                           01 
01150030003000000LIB       Justice, Supreme Court, Place 7                         Don Fulton                            PRECINCT 202                                           01 
01150030004000007LIB       Justice, Supreme Court, Place 7                         Don Fulton                            PRECINCT 301                                           01 
01150030005000000LIB       Justice, Supreme Court, Place 7                         Don Fulton                            PRECINCT 302                                           01 
01150030006000000LIB       Justice, Supreme Court, Place 7                         Don Fulton                            PRECINCT 303                                           01 
01150030007000004LIB       Justice, Supreme Court, Place 7                         Don Fulton                            PRECINCT 401                                           01 
01150030008000001LIB       Justice, Supreme Court, Place 7                         Don Fulton                            PRECINCT 402                                           01 
