01040010001000028DEM       BALLOTS CAST - DEMOCRATIC PARTY                         BALLOTS CAST - DEMOCRATIC PARTY       PRECINCT 101                                           00 
01040010002000008DEM       BALLOTS CAST - DEMOCRATIC PARTY                         BALLOTS CAST - DEMOCRATIC PARTY       PRECINCT 102                                           00 
01040010003000017DEM       BALLOTS CAST - DEMOCRATIC PARTY                         BALLOTS CAST - DEMOCRATIC PARTY       PRECINCT 103                                           00 
01040010004000015DEM       BALLOTS CAST - DEMOCRATIC PARTY                         BALLOTS CAST - DEMOCRATIC PARTY       PRECINCT 201                                           00 
01040010005000004DEM       BALLOTS CAST - DEMOCRATIC PARTY                         BALLOTS CAST - DEMOCRATIC PARTY       PRECINCT 202                                           00 
01040010006000002DEM       BALLOTS CAST - DEMOCRATIC PARTY                         BALLOTS CAST - DEMOCRATIC PARTY       PRECINCT 203                                           00 
01040010007000002DEM       BALLOTS CAST - DEMOCRATIC PARTY                         BALLOTS CAST - DEMOCRATIC PARTY       PRECINCT 301                                           00 
01040010008000011DEM       BALLOTS CAST - DEMOCRATIC PARTY                         BALLOTS CAST - DEMOCRATIC PARTY       PRECINCT 302                                           00 
01040010009000013DEM       BALLOTS CAST - DEMOCRATIC PARTY                         BALLOTS CAST - DEMOCRATIC PARTY       PRECINCT 303                                           00 
01040010010000013DEM       BALLOTS CAST - DEMOCRATIC PARTY                         BALLOTS CAST - DEMOCRATIC PARTY       PRECINCT 401                                           00 
01040010011000036DEM       BALLOTS CAST - DEMOCRATIC PARTY                         BALLOTS CAST - DEMOCRATIC PARTY       PRECINCT 402                                           00 
01320010001000006DEM       US Senator JONES COUNTYWIDE                             Harry Kim                             PRECINCT 101                                           01 
01320010002000002DEM       US Senator JONES COUNTYWIDE                             Harry Kim                             PRECINCT 102                                           01 
01320010003000001DEM       US Senator JONES COUNTYWIDE                             Harry Kim                             PRECINCT 103                                           01 
01320010004000002DEM       US Senator JONES COUNTYWIDE                             Harry Kim                             PRECINCT 201                                           01 
01320010005000000DEM       US Senator JONES COUNTYWIDE                             Harry Kim                             PRECINCT 202                                           01 
01320010006000000DEM       US Senator JONES COUNTYWIDE                             Harry Kim                             PRECINCT 203                                           01 
01320010007000000DEM       US Senator JONES COUNTYWIDE                             Harry Kim                             PRECINCT 301                                           01 
01320010008000000DEM       US Senator JONES COUNTYWIDE                             Harry Kim                             PRECINCT 302                                           01 
01320010009000001DEM       US Senator JONES COUNTYWIDE                             Harry Kim                             PRECINCT 303                                           01 
01320010010000001DEM       US Senator JONES COUNTYWIDE                             Harry Kim                             PRECINCT 401                                           01 
01320010011000004DEM       US Senator JONES COUNTYWIDE                             Harry Kim                             PRECINCT 402                                           01 
01320020001000004DEM       US Senator JONES COUNTYWIDE                             Maxey Marie Scherr                    PRECINCT 101                                           01 
01320020002000002DEM       US Senator JONES COUNTYWIDE                             Maxey Marie Scherr                    PRECINCT 102                                           01 
01320020003000006DEM       US Senator JONES COUNTYWIDE                             Maxey Marie Scherr                    PRECINCT 103                                           01 
01320020004000002DEM       US Senator JONES COUNTYWIDE                             Maxey Marie Scherr                    PRECINCT 201                                           01 
01320020005000000DEM       US Senator JONES COUNTYWIDE                             Maxey Marie Scherr                    PRECINCT 202                                           01 
01320020006000001DEM       US Senator JONES COUNTYWIDE                             Maxey Marie Scherr                    PRECINCT 203                                           01 
01320020007000000DEM       US Senator JONES COUNTYWIDE                             Maxey Marie Scherr                    PRECINCT 301                                           01 
01320020008000005DEM       US Senator JONES COUNTYWIDE                             Maxey Marie Scherr                    PRECINCT 302                                           01 
01320020009000002DEM       US Senator JONES COUNTYWIDE                             Maxey Marie Scherr                    PRECINCT 303                                           01 
01320020010000002DEM       US Senator JONES COUNTYWIDE                             Maxey Marie Scherr                    PRECINCT 401                                           01 
01320020011000009DEM       US Senator JONES COUNTYWIDE                             Maxey Marie Scherr                    PRECINCT 402                                           01 
01320030001000000DEM       US Senator JONES COUNTYWIDE                             Michael "Fjet" Fjetland               PRECINCT 101                                           01 
01320030002000001DEM       US Senator JONES COUNTYWIDE                             Michael "Fjet" Fjetland               PRECINCT 102                                           01 
01320030003000001DEM       US Senator JONES COUNTYWIDE                             Michael "Fjet" Fjetland               PRECINCT 103                                           01 
01320030004000000DEM       US Senator JONES COUNTYWIDE                             Michael "Fjet" Fjetland               PRECINCT 201                                           01 
01320030005000000DEM       US Senator JONES COUNTYWIDE                             Michael "Fjet" Fjetland               PRECINCT 202                                           01 
01320030006000000DEM       US Senator JONES COUNTYWIDE                             Michael "Fjet" Fjetland               PRECINCT 203                                           01 
01320030007000000DEM       US Senator JONES COUNTYWIDE                             Michael "Fjet" Fjetland               PRECINCT 301                                           01 
01320030008000000DEM       US Senator JONES COUNTYWIDE                             Michael "Fjet" Fjetland               PRECINCT 302                                           01 
01320030009000002DEM       US Senator JONES COUNTYWIDE                             Michael "Fjet" Fjetland               PRECINCT 303                                           01 
01320030010000001DEM       US Senator JONES COUNTYWIDE                             Michael "Fjet" Fjetland               PRECINCT 401                                           01 
01320030011000002DEM       US Senator JONES COUNTYWIDE                             Michael "Fjet" Fjetland               PRECINCT 402                                           01 
01320040001000007DEM       US Senator JONES COUNTYWIDE                             David M. Alameel                      PRECINCT 101                                           01 
01320040002000001DEM       US Senator JONES COUNTYWIDE                             David M. Alameel                      PRECINCT 102                                           01 
01320040003000003DEM       US Senator JONES COUNTYWIDE                             David M. Alameel                      PRECINCT 103                                           01 
01320040004000003DEM       US Senator JONES COUNTYWIDE                             David M. Alameel                      PRECINCT 201                                           01 
01320040005000004DEM       US Senator JONES COUNTYWIDE                             David M. Alameel                      PRECINCT 202                                           01 
01320040006000000DEM       US Senator JONES COUNTYWIDE                             David M. Alameel                      PRECINCT 203                                           01 
01320040007000002DEM       US Senator JONES COUNTYWIDE                             David M. Alameel                      PRECINCT 301                                           01 
01320040008000001DEM       US Senator JONES COUNTYWIDE                             David M. Alameel                      PRECINCT 302                                           01 
01320040009000003DEM       US Senator JONES COUNTYWIDE                             David M. Alameel                      PRECINCT 303                                           01 
01320040010000006DEM       US Senator JONES COUNTYWIDE                             David M. Alameel                      PRECINCT 401                                           01 
01320040011000011DEM       US Senator JONES COUNTYWIDE                             David M. Alameel                      PRECINCT 402                                           01 
01320050001000006DEM       US Senator JONES COUNTYWIDE                             Kesha Rogers                          PRECINCT 101                                           01 
01320050002000000DEM       US Senator JONES COUNTYWIDE                             Kesha Rogers                          PRECINCT 102                                           01 
01320050003000004DEM       US Senator JONES COUNTYWIDE                             Kesha Rogers                          PRECINCT 103                                           01 
01320050004000007DEM       US Senator JONES COUNTYWIDE                             Kesha Rogers                          PRECINCT 201                                           01 
01320050005000000DEM       US Senator JONES COUNTYWIDE                             Kesha Rogers                          PRECINCT 202                                           01 
01320050006000000DEM       US Senator JONES COUNTYWIDE                             Kesha Rogers                          PRECINCT 203                                           01 
01320050007000000DEM       US Senator JONES COUNTYWIDE                             Kesha Rogers                          PRECINCT 301                                           01 
01320050008000005DEM       US Senator JONES COUNTYWIDE                             Kesha Rogers                          PRECINCT 302                                           01 
01320050009000004DEM       US Senator JONES COUNTYWIDE                             Kesha Rogers                          PRECINCT 303                                           01 
01320050010000003DEM       US Senator JONES COUNTYWIDE                             Kesha Rogers                          PRECINCT 401                                           01 
01320050011000007DEM       US Senator JONES COUNTYWIDE                             Kesha Rogers                          PRECINCT 402                                           01 
01320060001000000DEM       US Senator JONES COUNTYWIDE                             OVER VOTES                            PRECINCT 101                                           01 
01320060002000000DEM       US Senator JONES COUNTYWIDE                             OVER VOTES                            PRECINCT 102                                           01 
01320060003000000DEM       US Senator JONES COUNTYWIDE                             OVER VOTES                            PRECINCT 103                                           01 
01320060004000000DEM       US Senator JONES COUNTYWIDE                             OVER VOTES                            PRECINCT 201                                           01 
01320060005000000DEM       US Senator JONES COUNTYWIDE                             OVER VOTES                            PRECINCT 202                                           01 
01320060006000000DEM       US Senator JONES COUNTYWIDE                             OVER VOTES                            PRECINCT 203                                           01 
01320060007000000DEM       US Senator JONES COUNTYWIDE                             OVER VOTES                            PRECINCT 301                                           01 
01320060008000000DEM       US Senator JONES COUNTYWIDE                             OVER VOTES                            PRECINCT 302                                           01 
01320060009000000DEM       US Senator JONES COUNTYWIDE                             OVER VOTES                            PRECINCT 303                                           01 
01320060010000000DEM       US Senator JONES COUNTYWIDE                             OVER VOTES                            PRECINCT 401                                           01 
01320060011000000DEM       US Senator JONES COUNTYWIDE                             OVER VOTES                            PRECINCT 402                                           01 
01320070001000005DEM       US Senator JONES COUNTYWIDE                             UNDER VOTES                           PRECINCT 101                                           01 
01320070002000002DEM       US Senator JONES COUNTYWIDE                             UNDER VOTES                           PRECINCT 102                                           01 
01320070003000002DEM       US Senator JONES COUNTYWIDE                             UNDER VOTES                           PRECINCT 103                                           01 
01320070004000001DEM       US Senator JONES COUNTYWIDE                             UNDER VOTES                           PRECINCT 201                                           01 
01320070005000000DEM       US Senator JONES COUNTYWIDE                             UNDER VOTES                           PRECINCT 202                                           01 
01320070006000001DEM       US Senator JONES COUNTYWIDE                             UNDER VOTES                           PRECINCT 203                                           01 
01320070007000000DEM       US Senator JONES COUNTYWIDE                             UNDER VOTES                           PRECINCT 301                                           01 
01320070008000000DEM       US Senator JONES COUNTYWIDE                             UNDER VOTES                           PRECINCT 302                                           01 
01320070009000001DEM       US Senator JONES COUNTYWIDE                             UNDER VOTES                           PRECINCT 303                                           01 
01320070010000000DEM       US Senator JONES COUNTYWIDE                             UNDER VOTES                           PRECINCT 401                                           01 
01320070011000003DEM       US Senator JONES COUNTYWIDE                             UNDER VOTES                           PRECINCT 402                                           01 
01330010001000017DEM       US Representative, DIST 19 JONES COUNTYWIDE             Neal Marchbanks                       PRECINCT 101                                           01 
01330010002000006DEM       US Representative, DIST 19 JONES COUNTYWIDE             Neal Marchbanks                       PRECINCT 102                                           01 
01330010003000014DEM       US Representative, DIST 19 JONES COUNTYWIDE             Neal Marchbanks                       PRECINCT 103                                           01 
01330010004000011DEM       US Representative, DIST 19 JONES COUNTYWIDE             Neal Marchbanks                       PRECINCT 201                                           01 
01330010005000004DEM       US Representative, DIST 19 JONES COUNTYWIDE             Neal Marchbanks                       PRECINCT 202                                           01 
01330010006000001DEM       US Representative, DIST 19 JONES COUNTYWIDE             Neal Marchbanks                       PRECINCT 203                                           01 
01330010007000002DEM       US Representative, DIST 19 JONES COUNTYWIDE             Neal Marchbanks                       PRECINCT 301                                           01 
01330010008000010DEM       US Representative, DIST 19 JONES COUNTYWIDE             Neal Marchbanks                       PRECINCT 302                                           01 
01330010009000012DEM       US Representative, DIST 19 JONES COUNTYWIDE             Neal Marchbanks                       PRECINCT 303                                           01 
01330010010000013DEM       US Representative, DIST 19 JONES COUNTYWIDE             Neal Marchbanks                       PRECINCT 401                                           01 
01330010011000028DEM       US Representative, DIST 19 JONES COUNTYWIDE             Neal Marchbanks                       PRECINCT 402                                           01 
01330020001000000DEM       US Representative, DIST 19 JONES COUNTYWIDE             OVER VOTES                            PRECINCT 101                                           01 
01330020002000000DEM       US Representative, DIST 19 JONES COUNTYWIDE             OVER VOTES                            PRECINCT 102                                           01 
01330020003000000DEM       US Representative, DIST 19 JONES COUNTYWIDE             OVER VOTES                            PRECINCT 103                                           01 
01330020004000000DEM       US Representative, DIST 19 JONES COUNTYWIDE             OVER VOTES                            PRECINCT 201                                           01 
01330020005000000DEM       US Representative, DIST 19 JONES COUNTYWIDE             OVER VOTES                            PRECINCT 202                                           01 
01330020006000000DEM       US Representative, DIST 19 JONES COUNTYWIDE             OVER VOTES                            PRECINCT 203                                           01 
01330020007000000DEM       US Representative, DIST 19 JONES COUNTYWIDE             OVER VOTES                            PRECINCT 301                                           01 
01330020008000000DEM       US Representative, DIST 19 JONES COUNTYWIDE             OVER VOTES                            PRECINCT 302                                           01 
01330020009000000DEM       US Representative, DIST 19 JONES COUNTYWIDE             OVER VOTES                            PRECINCT 303                                           01 
01330020010000000DEM       US Representative, DIST 19 JONES COUNTYWIDE             OVER VOTES                            PRECINCT 401                                           01 
01330020011000000DEM       US Representative, DIST 19 JONES COUNTYWIDE             OVER VOTES                            PRECINCT 402                                           01 
01330030001000011DEM       US Representative, DIST 19 JONES COUNTYWIDE             UNDER VOTES                           PRECINCT 101                                           01 
01330030002000002DEM       US Representative, DIST 19 JONES COUNTYWIDE             UNDER VOTES                           PRECINCT 102                                           01 
01330030003000003DEM       US Representative, DIST 19 JONES COUNTYWIDE             UNDER VOTES                           PRECINCT 103                                           01 
01330030004000004DEM       US Representative, DIST 19 JONES COUNTYWIDE             UNDER VOTES                           PRECINCT 201                                           01 
01330030005000000DEM       US Representative, DIST 19 JONES COUNTYWIDE             UNDER VOTES                           PRECINCT 202                                           01 
01330030006000001DEM       US Representative, DIST 19 JONES COUNTYWIDE             UNDER VOTES                           PRECINCT 203                                           01 
01330030007000000DEM       US Representative, DIST 19 JONES COUNTYWIDE             UNDER VOTES                           PRECINCT 301                                           01 
01330030008000001DEM       US Representative, DIST 19 JONES COUNTYWIDE             UNDER VOTES                           PRECINCT 302                                           01 
01330030009000001DEM       US Representative, DIST 19 JONES COUNTYWIDE             UNDER VOTES                           PRECINCT 303                                           01 
01330030010000000DEM       US Representative, DIST 19 JONES COUNTYWIDE             UNDER VOTES                           PRECINCT 401                                           01 
01330030011000008DEM       US Representative, DIST 19 JONES COUNTYWIDE             UNDER VOTES                           PRECINCT 402                                           01 
01340010001000022DEM       Governor JONES COUNTYWIDE                               Wendy R. Davis                        PRECINCT 101                                           01 
01340010002000005DEM       Governor JONES COUNTYWIDE                               Wendy R. Davis                        PRECINCT 102                                           01 
01340010003000012DEM       Governor JONES COUNTYWIDE                               Wendy R. Davis                        PRECINCT 103                                           01 
01340010004000014DEM       Governor JONES COUNTYWIDE                               Wendy R. Davis                        PRECINCT 201                                           01 
01340010005000004DEM       Governor JONES COUNTYWIDE                               Wendy R. Davis                        PRECINCT 202                                           01 
01340010006000001DEM       Governor JONES COUNTYWIDE                               Wendy R. Davis                        PRECINCT 203                                           01 
01340010007000002DEM       Governor JONES COUNTYWIDE                               Wendy R. Davis                        PRECINCT 301                                           01 
01340010008000010DEM       Governor JONES COUNTYWIDE                               Wendy R. Davis                        PRECINCT 302                                           01 
01340010009000010DEM       Governor JONES COUNTYWIDE                               Wendy R. Davis                        PRECINCT 303                                           01 
01340010010000012DEM       Governor JONES COUNTYWIDE                               Wendy R. Davis                        PRECINCT 401                                           01 
01340010011000026DEM       Governor JONES COUNTYWIDE                               Wendy R. Davis                        PRECINCT 402                                           01 
01340020001000003DEM       Governor JONES COUNTYWIDE                               Reynaldo "Ray" Madrigal               PRECINCT 101                                           01 
01340020002000001DEM       Governor JONES COUNTYWIDE                               Reynaldo "Ray" Madrigal               PRECINCT 102                                           01 
01340020003000003DEM       Governor JONES COUNTYWIDE                               Reynaldo "Ray" Madrigal               PRECINCT 103                                           01 
01340020004000000DEM       Governor JONES COUNTYWIDE                               Reynaldo "Ray" Madrigal               PRECINCT 201                                           01 
01340020005000000DEM       Governor JONES COUNTYWIDE                               Reynaldo "Ray" Madrigal               PRECINCT 202                                           01 
01340020006000000DEM       Governor JONES COUNTYWIDE                               Reynaldo "Ray" Madrigal               PRECINCT 203                                           01 
01340020007000000DEM       Governor JONES COUNTYWIDE                               Reynaldo "Ray" Madrigal               PRECINCT 301                                           01 
01340020008000001DEM       Governor JONES COUNTYWIDE                               Reynaldo "Ray" Madrigal               PRECINCT 302                                           01 
01340020009000002DEM       Governor JONES COUNTYWIDE                               Reynaldo "Ray" Madrigal               PRECINCT 303                                           01 
01340020010000001DEM       Governor JONES COUNTYWIDE                               Reynaldo "Ray" Madrigal               PRECINCT 401                                           01 
01340020011000008DEM       Governor JONES COUNTYWIDE                               Reynaldo "Ray" Madrigal               PRECINCT 402                                           01 
01340030001000000DEM       Governor JONES COUNTYWIDE                               OVER VOTES                            PRECINCT 101                                           01 
01340030002000000DEM       Governor JONES COUNTYWIDE                               OVER VOTES                            PRECINCT 102                                           01 
01340030003000000DEM       Governor JONES COUNTYWIDE                               OVER VOTES                            PRECINCT 103                                           01 
01340030004000000DEM       Governor JONES COUNTYWIDE                               OVER VOTES                            PRECINCT 201                                           01 
01340030005000000DEM       Governor JONES COUNTYWIDE                               OVER VOTES                            PRECINCT 202                                           01 
01340030006000000DEM       Governor JONES COUNTYWIDE                               OVER VOTES                            PRECINCT 203                                           01 
01340030007000000DEM       Governor JONES COUNTYWIDE                               OVER VOTES                            PRECINCT 301                                           01 
01340030008000000DEM       Governor JONES COUNTYWIDE                               OVER VOTES                            PRECINCT 302                                           01 
01340030009000000DEM       Governor JONES COUNTYWIDE                               OVER VOTES                            PRECINCT 303                                           01 
01340030010000000DEM       Governor JONES COUNTYWIDE                               OVER VOTES                            PRECINCT 401                                           01 
01340030011000000DEM       Governor JONES COUNTYWIDE                               OVER VOTES                            PRECINCT 402                                           01 
01340040001000003DEM       Governor JONES COUNTYWIDE                               UNDER VOTES                           PRECINCT 101                                           01 
01340040002000002DEM       Governor JONES COUNTYWIDE                               UNDER VOTES                           PRECINCT 102                                           01 
01340040003000002DEM       Governor JONES COUNTYWIDE                               UNDER VOTES                           PRECINCT 103                                           01 
01340040004000001DEM       Governor JONES COUNTYWIDE                               UNDER VOTES                           PRECINCT 201                                           01 
01340040005000000DEM       Governor JONES COUNTYWIDE                               UNDER VOTES                           PRECINCT 202                                           01 
01340040006000001DEM       Governor JONES COUNTYWIDE                               UNDER VOTES                           PRECINCT 203                                           01 
01340040007000000DEM       Governor JONES COUNTYWIDE                               UNDER VOTES                           PRECINCT 301                                           01 
01340040008000000DEM       Governor JONES COUNTYWIDE                               UNDER VOTES                           PRECINCT 302                                           01 
01340040009000001DEM       Governor JONES COUNTYWIDE                               UNDER VOTES                           PRECINCT 303                                           01 
01340040010000000DEM       Governor JONES COUNTYWIDE                               UNDER VOTES                           PRECINCT 401                                           01 
01340040011000002DEM       Governor JONES COUNTYWIDE                               UNDER VOTES                           PRECINCT 402                                           01 
01350010001000018DEM       Lieutenant Governor JONES COUNTYWIDE                    Leticia Van de Putte                  PRECINCT 101                                           01 
01350010002000006DEM       Lieutenant Governor JONES COUNTYWIDE                    Leticia Van de Putte                  PRECINCT 102                                           01 
01350010003000012DEM       Lieutenant Governor JONES COUNTYWIDE                    Leticia Van de Putte                  PRECINCT 103                                           01 
01350010004000014DEM       Lieutenant Governor JONES COUNTYWIDE                    Leticia Van de Putte                  PRECINCT 201                                           01 
01350010005000003DEM       Lieutenant Governor JONES COUNTYWIDE                    Leticia Van de Putte                  PRECINCT 202                                           01 
01350010006000001DEM       Lieutenant Governor JONES COUNTYWIDE                    Leticia Van de Putte                  PRECINCT 203                                           01 
01350010007000002DEM       Lieutenant Governor JONES COUNTYWIDE                    Leticia Van de Putte                  PRECINCT 301                                           01 
01350010008000010DEM       Lieutenant Governor JONES COUNTYWIDE                    Leticia Van de Putte                  PRECINCT 302                                           01 
01350010009000011DEM       Lieutenant Governor JONES COUNTYWIDE                    Leticia Van de Putte                  PRECINCT 303                                           01 
01350010010000013DEM       Lieutenant Governor JONES COUNTYWIDE                    Leticia Van de Putte                  PRECINCT 401                                           01 
01350010011000031DEM       Lieutenant Governor JONES COUNTYWIDE                    Leticia Van de Putte                  PRECINCT 402                                           01 
01350020001000000DEM       Lieutenant Governor JONES COUNTYWIDE                    OVER VOTES                            PRECINCT 101                                           01 
01350020002000000DEM       Lieutenant Governor JONES COUNTYWIDE                    OVER VOTES                            PRECINCT 102                                           01 
01350020003000000DEM       Lieutenant Governor JONES COUNTYWIDE                    OVER VOTES                            PRECINCT 103                                           01 
01350020004000000DEM       Lieutenant Governor JONES COUNTYWIDE                    OVER VOTES                            PRECINCT 201                                           01 
01350020005000000DEM       Lieutenant Governor JONES COUNTYWIDE                    OVER VOTES                            PRECINCT 202                                           01 
01350020006000000DEM       Lieutenant Governor JONES COUNTYWIDE                    OVER VOTES                            PRECINCT 203                                           01 
01350020007000000DEM       Lieutenant Governor JONES COUNTYWIDE                    OVER VOTES                            PRECINCT 301                                           01 
01350020008000000DEM       Lieutenant Governor JONES COUNTYWIDE                    OVER VOTES                            PRECINCT 302                                           01 
01350020009000000DEM       Lieutenant Governor JONES COUNTYWIDE                    OVER VOTES                            PRECINCT 303                                           01 
01350020010000000DEM       Lieutenant Governor JONES COUNTYWIDE                    OVER VOTES                            PRECINCT 401                                           01 
01350020011000000DEM       Lieutenant Governor JONES COUNTYWIDE                    OVER VOTES                            PRECINCT 402                                           01 
01350030001000010DEM       Lieutenant Governor JONES COUNTYWIDE                    UNDER VOTES                           PRECINCT 101                                           01 
01350030002000002DEM       Lieutenant Governor JONES COUNTYWIDE                    UNDER VOTES                           PRECINCT 102                                           01 
01350030003000005DEM       Lieutenant Governor JONES COUNTYWIDE                    UNDER VOTES                           PRECINCT 103                                           01 
01350030004000001DEM       Lieutenant Governor JONES COUNTYWIDE                    UNDER VOTES                           PRECINCT 201                                           01 
01350030005000001DEM       Lieutenant Governor JONES COUNTYWIDE                    UNDER VOTES                           PRECINCT 202                                           01 
01350030006000001DEM       Lieutenant Governor JONES COUNTYWIDE                    UNDER VOTES                           PRECINCT 203                                           01 
01350030007000000DEM       Lieutenant Governor JONES COUNTYWIDE                    UNDER VOTES                           PRECINCT 301                                           01 
01350030008000001DEM       Lieutenant Governor JONES COUNTYWIDE                    UNDER VOTES                           PRECINCT 302                                           01 
01350030009000002DEM       Lieutenant Governor JONES COUNTYWIDE                    UNDER VOTES                           PRECINCT 303                                           01 
01350030010000000DEM       Lieutenant Governor JONES COUNTYWIDE                    UNDER VOTES                           PRECINCT 401                                           01 
01350030011000005DEM       Lieutenant Governor JONES COUNTYWIDE                    UNDER VOTES                           PRECINCT 402                                           01 
01360010001000024DEM       Attorney General JONES COUNTYWIDE                       Sam Houston                           PRECINCT 101                                           01 
01360010002000005DEM       Attorney General JONES COUNTYWIDE                       Sam Houston                           PRECINCT 102                                           01 
01360010003000014DEM       Attorney General JONES COUNTYWIDE                       Sam Houston                           PRECINCT 103                                           01 
01360010004000014DEM       Attorney General JONES COUNTYWIDE                       Sam Houston                           PRECINCT 201                                           01 
01360010005000003DEM       Attorney General JONES COUNTYWIDE                       Sam Houston                           PRECINCT 202                                           01 
01360010006000002DEM       Attorney General JONES COUNTYWIDE                       Sam Houston                           PRECINCT 203                                           01 
01360010007000002DEM       Attorney General JONES COUNTYWIDE                       Sam Houston                           PRECINCT 301                                           01 
01360010008000009DEM       Attorney General JONES COUNTYWIDE                       Sam Houston                           PRECINCT 302                                           01 
01360010009000011DEM       Attorney General JONES COUNTYWIDE                       Sam Houston                           PRECINCT 303                                           01 
01360010010000013DEM       Attorney General JONES COUNTYWIDE                       Sam Houston                           PRECINCT 401                                           01 
01360010011000029DEM       Attorney General JONES COUNTYWIDE                       Sam Houston                           PRECINCT 402                                           01 
01360020001000000DEM       Attorney General JONES COUNTYWIDE                       OVER VOTES                            PRECINCT 101                                           01 
01360020002000000DEM       Attorney General JONES COUNTYWIDE                       OVER VOTES                            PRECINCT 102                                           01 
01360020003000000DEM       Attorney General JONES COUNTYWIDE                       OVER VOTES                            PRECINCT 103                                           01 
01360020004000000DEM       Attorney General JONES COUNTYWIDE                       OVER VOTES                            PRECINCT 201                                           01 
01360020005000000DEM       Attorney General JONES COUNTYWIDE                       OVER VOTES                            PRECINCT 202                                           01 
01360020006000000DEM       Attorney General JONES COUNTYWIDE                       OVER VOTES                            PRECINCT 203                                           01 
01360020007000000DEM       Attorney General JONES COUNTYWIDE                       OVER VOTES                            PRECINCT 301                                           01 
01360020008000000DEM       Attorney General JONES COUNTYWIDE                       OVER VOTES                            PRECINCT 302                                           01 
01360020009000000DEM       Attorney General JONES COUNTYWIDE                       OVER VOTES                            PRECINCT 303                                           01 
01360020010000000DEM       Attorney General JONES COUNTYWIDE                       OVER VOTES                            PRECINCT 401                                           01 
01360020011000000DEM       Attorney General JONES COUNTYWIDE                       OVER VOTES                            PRECINCT 402                                           01 
01360030001000004DEM       Attorney General JONES COUNTYWIDE                       UNDER VOTES                           PRECINCT 101                                           01 
01360030002000003DEM       Attorney General JONES COUNTYWIDE                       UNDER VOTES                           PRECINCT 102                                           01 
01360030003000003DEM       Attorney General JONES COUNTYWIDE                       UNDER VOTES                           PRECINCT 103                                           01 
01360030004000001DEM       Attorney General JONES COUNTYWIDE                       UNDER VOTES                           PRECINCT 201                                           01 
01360030005000001DEM       Attorney General JONES COUNTYWIDE                       UNDER VOTES                           PRECINCT 202                                           01 
01360030006000000DEM       Attorney General JONES COUNTYWIDE                       UNDER VOTES                           PRECINCT 203                                           01 
01360030007000000DEM       Attorney General JONES COUNTYWIDE                       UNDER VOTES                           PRECINCT 301                                           01 
01360030008000002DEM       Attorney General JONES COUNTYWIDE                       UNDER VOTES                           PRECINCT 302                                           01 
01360030009000002DEM       Attorney General JONES COUNTYWIDE                       UNDER VOTES                           PRECINCT 303                                           01 
01360030010000000DEM       Attorney General JONES COUNTYWIDE                       UNDER VOTES                           PRECINCT 401                                           01 
01360030011000007DEM       Attorney General JONES COUNTYWIDE                       UNDER VOTES                           PRECINCT 402                                           01 
01370010001000020DEM       Comptroller of Public Accounts JONES COUNTYWIDE         Mike Collier                          PRECINCT 101                                           01 
01370010002000005DEM       Comptroller of Public Accounts JONES COUNTYWIDE         Mike Collier                          PRECINCT 102                                           01 
01370010003000015DEM       Comptroller of Public Accounts JONES COUNTYWIDE         Mike Collier                          PRECINCT 103                                           01 
01370010004000014DEM       Comptroller of Public Accounts JONES COUNTYWIDE         Mike Collier                          PRECINCT 201                                           01 
01370010005000004DEM       Comptroller of Public Accounts JONES COUNTYWIDE         Mike Collier                          PRECINCT 202                                           01 
01370010006000002DEM       Comptroller of Public Accounts JONES COUNTYWIDE         Mike Collier                          PRECINCT 203                                           01 
01370010007000002DEM       Comptroller of Public Accounts JONES COUNTYWIDE         Mike Collier                          PRECINCT 301                                           01 
01370010008000010DEM       Comptroller of Public Accounts JONES COUNTYWIDE         Mike Collier                          PRECINCT 302                                           01 
01370010009000012DEM       Comptroller of Public Accounts JONES COUNTYWIDE         Mike Collier                          PRECINCT 303                                           01 
01370010010000012DEM       Comptroller of Public Accounts JONES COUNTYWIDE         Mike Collier                          PRECINCT 401                                           01 
01370010011000029DEM       Comptroller of Public Accounts JONES COUNTYWIDE         Mike Collier                          PRECINCT 402                                           01 
01370020001000000DEM       Comptroller of Public Accounts JONES COUNTYWIDE         OVER VOTES                            PRECINCT 101                                           01 
01370020002000000DEM       Comptroller of Public Accounts JONES COUNTYWIDE         OVER VOTES                            PRECINCT 102                                           01 
01370020003000000DEM       Comptroller of Public Accounts JONES COUNTYWIDE         OVER VOTES                            PRECINCT 103                                           01 
01370020004000000DEM       Comptroller of Public Accounts JONES COUNTYWIDE         OVER VOTES                            PRECINCT 201                                           01 
01370020005000000DEM       Comptroller of Public Accounts JONES COUNTYWIDE         OVER VOTES                            PRECINCT 202                                           01 
01370020006000000DEM       Comptroller of Public Accounts JONES COUNTYWIDE         OVER VOTES                            PRECINCT 203                                           01 
01370020007000000DEM       Comptroller of Public Accounts JONES COUNTYWIDE         OVER VOTES                            PRECINCT 301                                           01 
01370020008000000DEM       Comptroller of Public Accounts JONES COUNTYWIDE         OVER VOTES                            PRECINCT 302                                           01 
01370020009000000DEM       Comptroller of Public Accounts JONES COUNTYWIDE         OVER VOTES                            PRECINCT 303                                           01 
01370020010000000DEM       Comptroller of Public Accounts JONES COUNTYWIDE         OVER VOTES                            PRECINCT 401                                           01 
01370020011000000DEM       Comptroller of Public Accounts JONES COUNTYWIDE         OVER VOTES                            PRECINCT 402                                           01 
01370030001000008DEM       Comptroller of Public Accounts JONES COUNTYWIDE         UNDER VOTES                           PRECINCT 101                                           01 
01370030002000003DEM       Comptroller of Public Accounts JONES COUNTYWIDE         UNDER VOTES                           PRECINCT 102                                           01 
01370030003000002DEM       Comptroller of Public Accounts JONES COUNTYWIDE         UNDER VOTES                           PRECINCT 103                                           01 
01370030004000001DEM       Comptroller of Public Accounts JONES COUNTYWIDE         UNDER VOTES                           PRECINCT 201                                           01 
01370030005000000DEM       Comptroller of Public Accounts JONES COUNTYWIDE         UNDER VOTES                           PRECINCT 202                                           01 
01370030006000000DEM       Comptroller of Public Accounts JONES COUNTYWIDE         UNDER VOTES                           PRECINCT 203                                           01 
01370030007000000DEM       Comptroller of Public Accounts JONES COUNTYWIDE         UNDER VOTES                           PRECINCT 301                                           01 
01370030008000001DEM       Comptroller of Public Accounts JONES COUNTYWIDE         UNDER VOTES                           PRECINCT 302                                           01 
01370030009000001DEM       Comptroller of Public Accounts JONES COUNTYWIDE         UNDER VOTES                           PRECINCT 303                                           01 
01370030010000001DEM       Comptroller of Public Accounts JONES COUNTYWIDE         UNDER VOTES                           PRECINCT 401                                           01 
01370030011000007DEM       Comptroller of Public Accounts JONES COUNTYWIDE         UNDER VOTES                           PRECINCT 402                                           01 
01380010001000020DEM       Commissioner of the General Land Office JONES COUNTYWIDEJohn Cook                             PRECINCT 101                                           01 
01380010002000005DEM       Commissioner of the General Land Office JONES COUNTYWIDEJohn Cook                             PRECINCT 102                                           01 
01380010003000016DEM       Commissioner of the General Land Office JONES COUNTYWIDEJohn Cook                             PRECINCT 103                                           01 
01380010004000013DEM       Commissioner of the General Land Office JONES COUNTYWIDEJohn Cook                             PRECINCT 201                                           01 
01380010005000004DEM       Commissioner of the General Land Office JONES COUNTYWIDEJohn Cook                             PRECINCT 202                                           01 
01380010006000002DEM       Commissioner of the General Land Office JONES COUNTYWIDEJohn Cook                             PRECINCT 203                                           01 
01380010007000002DEM       Commissioner of the General Land Office JONES COUNTYWIDEJohn Cook                             PRECINCT 301                                           01 
01380010008000008DEM       Commissioner of the General Land Office JONES COUNTYWIDEJohn Cook                             PRECINCT 302                                           01 
01380010009000011DEM       Commissioner of the General Land Office JONES COUNTYWIDEJohn Cook                             PRECINCT 303                                           01 
01380010010000013DEM       Commissioner of the General Land Office JONES COUNTYWIDEJohn Cook                             PRECINCT 401                                           01 
01380010011000029DEM       Commissioner of the General Land Office JONES COUNTYWIDEJohn Cook                             PRECINCT 402                                           01 
01380020001000000DEM       Commissioner of the General Land Office JONES COUNTYWIDEOVER VOTES                            PRECINCT 101                                           01 
01380020002000000DEM       Commissioner of the General Land Office JONES COUNTYWIDEOVER VOTES                            PRECINCT 102                                           01 
01380020003000000DEM       Commissioner of the General Land Office JONES COUNTYWIDEOVER VOTES                            PRECINCT 103                                           01 
01380020004000000DEM       Commissioner of the General Land Office JONES COUNTYWIDEOVER VOTES                            PRECINCT 201                                           01 
01380020005000000DEM       Commissioner of the General Land Office JONES COUNTYWIDEOVER VOTES                            PRECINCT 202                                           01 
01380020006000000DEM       Commissioner of the General Land Office JONES COUNTYWIDEOVER VOTES                            PRECINCT 203                                           01 
01380020007000000DEM       Commissioner of the General Land Office JONES COUNTYWIDEOVER VOTES                            PRECINCT 301                                           01 
01380020008000000DEM       Commissioner of the General Land Office JONES COUNTYWIDEOVER VOTES                            PRECINCT 302                                           01 
01380020009000000DEM       Commissioner of the General Land Office JONES COUNTYWIDEOVER VOTES                            PRECINCT 303                                           01 
01380020010000000DEM       Commissioner of the General Land Office JONES COUNTYWIDEOVER VOTES                            PRECINCT 401                                           01 
01380020011000000DEM       Commissioner of the General Land Office JONES COUNTYWIDEOVER VOTES                            PRECINCT 402                                           01 
01380030001000008DEM       Commissioner of the General Land Office JONES COUNTYWIDEUNDER VOTES                           PRECINCT 101                                           01 
01380030002000003DEM       Commissioner of the General Land Office JONES COUNTYWIDEUNDER VOTES                           PRECINCT 102                                           01 
01380030003000001DEM       Commissioner of the General Land Office JONES COUNTYWIDEUNDER VOTES                           PRECINCT 103                                           01 
01380030004000002DEM       Commissioner of the General Land Office JONES COUNTYWIDEUNDER VOTES                           PRECINCT 201                                           01 
01380030005000000DEM       Commissioner of the General Land Office JONES COUNTYWIDEUNDER VOTES                           PRECINCT 202                                           01 
01380030006000000DEM       Commissioner of the General Land Office JONES COUNTYWIDEUNDER VOTES                           PRECINCT 203                                           01 
01380030007000000DEM       Commissioner of the General Land Office JONES COUNTYWIDEUNDER VOTES                           PRECINCT 301                                           01 
01380030008000003DEM       Commissioner of the General Land Office JONES COUNTYWIDEUNDER VOTES                           PRECINCT 302                                           01 
01380030009000002DEM       Commissioner of the General Land Office JONES COUNTYWIDEUNDER VOTES                           PRECINCT 303                                           01 
01380030010000000DEM       Commissioner of the General Land Office JONES COUNTYWIDEUNDER VOTES                           PRECINCT 401                                           01 
01380030011000007DEM       Commissioner of the General Land Office JONES COUNTYWIDEUNDER VOTES                           PRECINCT 402                                           01 
01390010001000015DEM       Commissioner of Agriculture JONES COUNTYWIDE            Jim Hogan                             PRECINCT 101                                           01 
01390010002000001DEM       Commissioner of Agriculture JONES COUNTYWIDE            Jim Hogan                             PRECINCT 102                                           01 
01390010003000007DEM       Commissioner of Agriculture JONES COUNTYWIDE            Jim Hogan                             PRECINCT 103                                           01 
01390010004000006DEM       Commissioner of Agriculture JONES COUNTYWIDE            Jim Hogan                             PRECINCT 201                                           01 
01390010005000002DEM       Commissioner of Agriculture JONES COUNTYWIDE            Jim Hogan                             PRECINCT 202                                           01 
01390010006000001DEM       Commissioner of Agriculture JONES COUNTYWIDE            Jim Hogan                             PRECINCT 203                                           01 
01390010007000000DEM       Commissioner of Agriculture JONES COUNTYWIDE            Jim Hogan                             PRECINCT 301                                           01 
01390010008000006DEM       Commissioner of Agriculture JONES COUNTYWIDE            Jim Hogan                             PRECINCT 302                                           01 
01390010009000006DEM       Commissioner of Agriculture JONES COUNTYWIDE            Jim Hogan                             PRECINCT 303                                           01 
01390010010000010DEM       Commissioner of Agriculture JONES COUNTYWIDE            Jim Hogan                             PRECINCT 401                                           01 
01390010011000017DEM       Commissioner of Agriculture JONES COUNTYWIDE            Jim Hogan                             PRECINCT 402                                           01 
01390020001000003DEM       Commissioner of Agriculture JONES COUNTYWIDE            Hugh Asa Fitzsimons III               PRECINCT 101                                           01 
01390020002000001DEM       Commissioner of Agriculture JONES COUNTYWIDE            Hugh Asa Fitzsimons III               PRECINCT 102                                           01 
01390020003000000DEM       Commissioner of Agriculture JONES COUNTYWIDE            Hugh Asa Fitzsimons III               PRECINCT 103                                           01 
01390020004000001DEM       Commissioner of Agriculture JONES COUNTYWIDE            Hugh Asa Fitzsimons III               PRECINCT 201                                           01 
01390020005000001DEM       Commissioner of Agriculture JONES COUNTYWIDE            Hugh Asa Fitzsimons III               PRECINCT 202                                           01 
01390020006000001DEM       Commissioner of Agriculture JONES COUNTYWIDE            Hugh Asa Fitzsimons III               PRECINCT 203                                           01 
01390020007000000DEM       Commissioner of Agriculture JONES COUNTYWIDE            Hugh Asa Fitzsimons III               PRECINCT 301                                           01 
01390020008000001DEM       Commissioner of Agriculture JONES COUNTYWIDE            Hugh Asa Fitzsimons III               PRECINCT 302                                           01 
01390020009000002DEM       Commissioner of Agriculture JONES COUNTYWIDE            Hugh Asa Fitzsimons III               PRECINCT 303                                           01 
01390020010000001DEM       Commissioner of Agriculture JONES COUNTYWIDE            Hugh Asa Fitzsimons III               PRECINCT 401                                           01 
01390020011000007DEM       Commissioner of Agriculture JONES COUNTYWIDE            Hugh Asa Fitzsimons III               PRECINCT 402                                           01 
01390030001000006DEM       Commissioner of Agriculture JONES COUNTYWIDE            Richard "Kinky" Friedman              PRECINCT 101                                           01 
01390030002000003DEM       Commissioner of Agriculture JONES COUNTYWIDE            Richard "Kinky" Friedman              PRECINCT 102                                           01 
01390030003000008DEM       Commissioner of Agriculture JONES COUNTYWIDE            Richard "Kinky" Friedman              PRECINCT 103                                           01 
01390030004000007DEM       Commissioner of Agriculture JONES COUNTYWIDE            Richard "Kinky" Friedman              PRECINCT 201                                           01 
01390030005000001DEM       Commissioner of Agriculture JONES COUNTYWIDE            Richard "Kinky" Friedman              PRECINCT 202                                           01 
01390030006000000DEM       Commissioner of Agriculture JONES COUNTYWIDE            Richard "Kinky" Friedman              PRECINCT 203                                           01 
01390030007000002DEM       Commissioner of Agriculture JONES COUNTYWIDE            Richard "Kinky" Friedman              PRECINCT 301                                           01 
01390030008000004DEM       Commissioner of Agriculture JONES COUNTYWIDE            Richard "Kinky" Friedman              PRECINCT 302                                           01 
01390030009000004DEM       Commissioner of Agriculture JONES COUNTYWIDE            Richard "Kinky" Friedman              PRECINCT 303                                           01 
01390030010000002DEM       Commissioner of Agriculture JONES COUNTYWIDE            Richard "Kinky" Friedman              PRECINCT 401                                           01 
01390030011000009DEM       Commissioner of Agriculture JONES COUNTYWIDE            Richard "Kinky" Friedman              PRECINCT 402                                           01 
01390040001000000DEM       Commissioner of Agriculture JONES COUNTYWIDE            OVER VOTES                            PRECINCT 101                                           01 
01390040002000000DEM       Commissioner of Agriculture JONES COUNTYWIDE            OVER VOTES                            PRECINCT 102                                           01 
01390040003000000DEM       Commissioner of Agriculture JONES COUNTYWIDE            OVER VOTES                            PRECINCT 103                                           01 
01390040004000000DEM       Commissioner of Agriculture JONES COUNTYWIDE            OVER VOTES                            PRECINCT 201                                           01 
01390040005000000DEM       Commissioner of Agriculture JONES COUNTYWIDE            OVER VOTES                            PRECINCT 202                                           01 
01390040006000000DEM       Commissioner of Agriculture JONES COUNTYWIDE            OVER VOTES                            PRECINCT 203                                           01 
01390040007000000DEM       Commissioner of Agriculture JONES COUNTYWIDE            OVER VOTES                            PRECINCT 301                                           01 
01390040008000000DEM       Commissioner of Agriculture JONES COUNTYWIDE            OVER VOTES                            PRECINCT 302                                           01 
01390040009000000DEM       Commissioner of Agriculture JONES COUNTYWIDE            OVER VOTES                            PRECINCT 303                                           01 
01390040010000000DEM       Commissioner of Agriculture JONES COUNTYWIDE            OVER VOTES                            PRECINCT 401                                           01 
01390040011000000DEM       Commissioner of Agriculture JONES COUNTYWIDE            OVER VOTES                            PRECINCT 402                                           01 
01390050001000004DEM       Commissioner of Agriculture JONES COUNTYWIDE            UNDER VOTES                           PRECINCT 101                                           01 
01390050002000003DEM       Commissioner of Agriculture JONES COUNTYWIDE            UNDER VOTES                           PRECINCT 102                                           01 
01390050003000002DEM       Commissioner of Agriculture JONES COUNTYWIDE            UNDER VOTES                           PRECINCT 103                                           01 
01390050004000001DEM       Commissioner of Agriculture JONES COUNTYWIDE            UNDER VOTES                           PRECINCT 201                                           01 
01390050005000000DEM       Commissioner of Agriculture JONES COUNTYWIDE            UNDER VOTES                           PRECINCT 202                                           01 
01390050006000000DEM       Commissioner of Agriculture JONES COUNTYWIDE            UNDER VOTES                           PRECINCT 203                                           01 
01390050007000000DEM       Commissioner of Agriculture JONES COUNTYWIDE            UNDER VOTES                           PRECINCT 301                                           01 
01390050008000000DEM       Commissioner of Agriculture JONES COUNTYWIDE            UNDER VOTES                           PRECINCT 302                                           01 
01390050009000001DEM       Commissioner of Agriculture JONES COUNTYWIDE            UNDER VOTES                           PRECINCT 303                                           01 
01390050010000000DEM       Commissioner of Agriculture JONES COUNTYWIDE            UNDER VOTES                           PRECINCT 401                                           01 
01390050011000003DEM       Commissioner of Agriculture JONES COUNTYWIDE            UNDER VOTES                           PRECINCT 402                                           01 
01400010001000009DEM       Railroad Commissioner JONES COUNTYWIDE                  Dale Henry                            PRECINCT 101                                           01 
01400010002000002DEM       Railroad Commissioner JONES COUNTYWIDE                  Dale Henry                            PRECINCT 102                                           01 
01400010003000004DEM       Railroad Commissioner JONES COUNTYWIDE                  Dale Henry                            PRECINCT 103                                           01 
01400010004000004DEM       Railroad Commissioner JONES COUNTYWIDE                  Dale Henry                            PRECINCT 201                                           01 
01400010005000000DEM       Railroad Commissioner JONES COUNTYWIDE                  Dale Henry                            PRECINCT 202                                           01 
01400010006000000DEM       Railroad Commissioner JONES COUNTYWIDE                  Dale Henry                            PRECINCT 203                                           01 
01400010007000002DEM       Railroad Commissioner JONES COUNTYWIDE                  Dale Henry                            PRECINCT 301                                           01 
01400010008000005DEM       Railroad Commissioner JONES COUNTYWIDE                  Dale Henry                            PRECINCT 302                                           01 
01400010009000006DEM       Railroad Commissioner JONES COUNTYWIDE                  Dale Henry                            PRECINCT 303                                           01 
01400010010000004DEM       Railroad Commissioner JONES COUNTYWIDE                  Dale Henry                            PRECINCT 401                                           01 
01400010011000010DEM       Railroad Commissioner JONES COUNTYWIDE                  Dale Henry                            PRECINCT 402                                           01 
01400020001000015DEM       Railroad Commissioner JONES COUNTYWIDE                  Steve Brown                           PRECINCT 101                                           01 
01400020002000003DEM       Railroad Commissioner JONES COUNTYWIDE                  Steve Brown                           PRECINCT 102                                           01 
01400020003000011DEM       Railroad Commissioner JONES COUNTYWIDE                  Steve Brown                           PRECINCT 103                                           01 
01400020004000011DEM       Railroad Commissioner JONES COUNTYWIDE                  Steve Brown                           PRECINCT 201                                           01 
01400020005000004DEM       Railroad Commissioner JONES COUNTYWIDE                  Steve Brown                           PRECINCT 202                                           01 
01400020006000002DEM       Railroad Commissioner JONES COUNTYWIDE                  Steve Brown                           PRECINCT 203                                           01 
01400020007000000DEM       Railroad Commissioner JONES COUNTYWIDE                  Steve Brown                           PRECINCT 301                                           01 
01400020008000006DEM       Railroad Commissioner JONES COUNTYWIDE                  Steve Brown                           PRECINCT 302                                           01 
01400020009000005DEM       Railroad Commissioner JONES COUNTYWIDE                  Steve Brown                           PRECINCT 303                                           01 
01400020010000009DEM       Railroad Commissioner JONES COUNTYWIDE                  Steve Brown                           PRECINCT 401                                           01 
01400020011000021DEM       Railroad Commissioner JONES COUNTYWIDE                  Steve Brown                           PRECINCT 402                                           01 
01400030001000000DEM       Railroad Commissioner JONES COUNTYWIDE                  OVER VOTES                            PRECINCT 101                                           01 
01400030002000000DEM       Railroad Commissioner JONES COUNTYWIDE                  OVER VOTES                            PRECINCT 102                                           01 
01400030003000000DEM       Railroad Commissioner JONES COUNTYWIDE                  OVER VOTES                            PRECINCT 103                                           01 
01400030004000000DEM       Railroad Commissioner JONES COUNTYWIDE                  OVER VOTES                            PRECINCT 201                                           01 
01400030005000000DEM       Railroad Commissioner JONES COUNTYWIDE                  OVER VOTES                            PRECINCT 202                                           01 
01400030006000000DEM       Railroad Commissioner JONES COUNTYWIDE                  OVER VOTES                            PRECINCT 203                                           01 
01400030007000000DEM       Railroad Commissioner JONES COUNTYWIDE                  OVER VOTES                            PRECINCT 301                                           01 
01400030008000000DEM       Railroad Commissioner JONES COUNTYWIDE                  OVER VOTES                            PRECINCT 302                                           01 
01400030009000000DEM       Railroad Commissioner JONES COUNTYWIDE                  OVER VOTES                            PRECINCT 303                                           01 
01400030010000000DEM       Railroad Commissioner JONES COUNTYWIDE                  OVER VOTES                            PRECINCT 401                                           01 
01400030011000000DEM       Railroad Commissioner JONES COUNTYWIDE                  OVER VOTES                            PRECINCT 402                                           01 
01400040001000004DEM       Railroad Commissioner JONES COUNTYWIDE                  UNDER VOTES                           PRECINCT 101                                           01 
01400040002000003DEM       Railroad Commissioner JONES COUNTYWIDE                  UNDER VOTES                           PRECINCT 102                                           01 
01400040003000002DEM       Railroad Commissioner JONES COUNTYWIDE                  UNDER VOTES                           PRECINCT 103                                           01 
01400040004000000DEM       Railroad Commissioner JONES COUNTYWIDE                  UNDER VOTES                           PRECINCT 201                                           01 
01400040005000000DEM       Railroad Commissioner JONES COUNTYWIDE                  UNDER VOTES                           PRECINCT 202                                           01 
01400040006000000DEM       Railroad Commissioner JONES COUNTYWIDE                  UNDER VOTES                           PRECINCT 203                                           01 
01400040007000000DEM       Railroad Commissioner JONES COUNTYWIDE                  UNDER VOTES                           PRECINCT 301                                           01 
01400040008000000DEM       Railroad Commissioner JONES COUNTYWIDE                  UNDER VOTES                           PRECINCT 302                                           01 
01400040009000002DEM       Railroad Commissioner JONES COUNTYWIDE                  UNDER VOTES                           PRECINCT 303                                           01 
01400040010000000DEM       Railroad Commissioner JONES COUNTYWIDE                  UNDER VOTES                           PRECINCT 401                                           01 
01400040011000005DEM       Railroad Commissioner JONES COUNTYWIDE                  UNDER VOTES                           PRECINCT 402                                           01 
01410010001000019DEM       Chief Justice, Supreme Court JONES COUNTYWIDE           William Moody                         PRECINCT 101                                           01 
01410010002000005DEM       Chief Justice, Supreme Court JONES COUNTYWIDE           William Moody                         PRECINCT 102                                           01 
01410010003000015DEM       Chief Justice, Supreme Court JONES COUNTYWIDE           William Moody                         PRECINCT 103                                           01 
01410010004000012DEM       Chief Justice, Supreme Court JONES COUNTYWIDE           William Moody                         PRECINCT 201                                           01 
01410010005000004DEM       Chief Justice, Supreme Court JONES COUNTYWIDE           William Moody                         PRECINCT 202                                           01 
01410010006000002DEM       Chief Justice, Supreme Court JONES COUNTYWIDE           William Moody                         PRECINCT 203                                           01 
01410010007000002DEM       Chief Justice, Supreme Court JONES COUNTYWIDE           William Moody                         PRECINCT 301                                           01 
01410010008000010DEM       Chief Justice, Supreme Court JONES COUNTYWIDE           William Moody                         PRECINCT 302                                           01 
01410010009000012DEM       Chief Justice, Supreme Court JONES COUNTYWIDE           William Moody                         PRECINCT 303                                           01 
01410010010000013DEM       Chief Justice, Supreme Court JONES COUNTYWIDE           William Moody                         PRECINCT 401                                           01 
01410010011000028DEM       Chief Justice, Supreme Court JONES COUNTYWIDE           William Moody                         PRECINCT 402                                           01 
01410020001000000DEM       Chief Justice, Supreme Court JONES COUNTYWIDE           OVER VOTES                            PRECINCT 101                                           01 
01410020002000000DEM       Chief Justice, Supreme Court JONES COUNTYWIDE           OVER VOTES                            PRECINCT 102                                           01 
01410020003000000DEM       Chief Justice, Supreme Court JONES COUNTYWIDE           OVER VOTES                            PRECINCT 103                                           01 
01410020004000000DEM       Chief Justice, Supreme Court JONES COUNTYWIDE           OVER VOTES                            PRECINCT 201                                           01 
01410020005000000DEM       Chief Justice, Supreme Court JONES COUNTYWIDE           OVER VOTES                            PRECINCT 202                                           01 
01410020006000000DEM       Chief Justice, Supreme Court JONES COUNTYWIDE           OVER VOTES                            PRECINCT 203                                           01 
01410020007000000DEM       Chief Justice, Supreme Court JONES COUNTYWIDE           OVER VOTES                            PRECINCT 301                                           01 
01410020008000000DEM       Chief Justice, Supreme Court JONES COUNTYWIDE           OVER VOTES                            PRECINCT 302                                           01 
01410020009000000DEM       Chief Justice, Supreme Court JONES COUNTYWIDE           OVER VOTES                            PRECINCT 303                                           01 
01410020010000000DEM       Chief Justice, Supreme Court JONES COUNTYWIDE           OVER VOTES                            PRECINCT 401                                           01 
01410020011000000DEM       Chief Justice, Supreme Court JONES COUNTYWIDE           OVER VOTES                            PRECINCT 402                                           01 
01410030001000009DEM       Chief Justice, Supreme Court JONES COUNTYWIDE           UNDER VOTES                           PRECINCT 101                                           01 
01410030002000003DEM       Chief Justice, Supreme Court JONES COUNTYWIDE           UNDER VOTES                           PRECINCT 102                                           01 
01410030003000002DEM       Chief Justice, Supreme Court JONES COUNTYWIDE           UNDER VOTES                           PRECINCT 103                                           01 
01410030004000003DEM       Chief Justice, Supreme Court JONES COUNTYWIDE           UNDER VOTES                           PRECINCT 201                                           01 
01410030005000000DEM       Chief Justice, Supreme Court JONES COUNTYWIDE           UNDER VOTES                           PRECINCT 202                                           01 
01410030006000000DEM       Chief Justice, Supreme Court JONES COUNTYWIDE           UNDER VOTES                           PRECINCT 203                                           01 
01410030007000000DEM       Chief Justice, Supreme Court JONES COUNTYWIDE           UNDER VOTES                           PRECINCT 301                                           01 
01410030008000001DEM       Chief Justice, Supreme Court JONES COUNTYWIDE           UNDER VOTES                           PRECINCT 302                                           01 
01410030009000001DEM       Chief Justice, Supreme Court JONES COUNTYWIDE           UNDER VOTES                           PRECINCT 303                                           01 
01410030010000000DEM       Chief Justice, Supreme Court JONES COUNTYWIDE           UNDER VOTES                           PRECINCT 401                                           01 
01410030011000008DEM       Chief Justice, Supreme Court JONES COUNTYWIDE           UNDER VOTES                           PRECINCT 402                                           01 
01420010001000018DEM       Justice, Supreme Court, PL 6, Unexpired JONES COUNTYWIDELawrence Edward Meyers                PRECINCT 101                                           01 
01420010002000005DEM       Justice, Supreme Court, PL 6, Unexpired JONES COUNTYWIDELawrence Edward Meyers                PRECINCT 102                                           01 
01420010003000015DEM       Justice, Supreme Court, PL 6, Unexpired JONES COUNTYWIDELawrence Edward Meyers                PRECINCT 103                                           01 
01420010004000012DEM       Justice, Supreme Court, PL 6, Unexpired JONES COUNTYWIDELawrence Edward Meyers                PRECINCT 201                                           01 
01420010005000004DEM       Justice, Supreme Court, PL 6, Unexpired JONES COUNTYWIDELawrence Edward Meyers                PRECINCT 202                                           01 
01420010006000002DEM       Justice, Supreme Court, PL 6, Unexpired JONES COUNTYWIDELawrence Edward Meyers                PRECINCT 203                                           01 
01420010007000002DEM       Justice, Supreme Court, PL 6, Unexpired JONES COUNTYWIDELawrence Edward Meyers                PRECINCT 301                                           01 
01420010008000010DEM       Justice, Supreme Court, PL 6, Unexpired JONES COUNTYWIDELawrence Edward Meyers                PRECINCT 302                                           01 
01420010009000011DEM       Justice, Supreme Court, PL 6, Unexpired JONES COUNTYWIDELawrence Edward Meyers                PRECINCT 303                                           01 
01420010010000012DEM       Justice, Supreme Court, PL 6, Unexpired JONES COUNTYWIDELawrence Edward Meyers                PRECINCT 401                                           01 
01420010011000029DEM       Justice, Supreme Court, PL 6, Unexpired JONES COUNTYWIDELawrence Edward Meyers                PRECINCT 402                                           01 
01420020001000000DEM       Justice, Supreme Court, PL 6, Unexpired JONES COUNTYWIDEOVER VOTES                            PRECINCT 101                                           01 
01420020002000000DEM       Justice, Supreme Court, PL 6, Unexpired JONES COUNTYWIDEOVER VOTES                            PRECINCT 102                                           01 
01420020003000000DEM       Justice, Supreme Court, PL 6, Unexpired JONES COUNTYWIDEOVER VOTES                            PRECINCT 103                                           01 
01420020004000000DEM       Justice, Supreme Court, PL 6, Unexpired JONES COUNTYWIDEOVER VOTES                            PRECINCT 201                                           01 
01420020005000000DEM       Justice, Supreme Court, PL 6, Unexpired JONES COUNTYWIDEOVER VOTES                            PRECINCT 202                                           01 
01420020006000000DEM       Justice, Supreme Court, PL 6, Unexpired JONES COUNTYWIDEOVER VOTES                            PRECINCT 203                                           01 
01420020007000000DEM       Justice, Supreme Court, PL 6, Unexpired JONES COUNTYWIDEOVER VOTES                            PRECINCT 301                                           01 
01420020008000000DEM       Justice, Supreme Court, PL 6, Unexpired JONES COUNTYWIDEOVER VOTES                            PRECINCT 302                                           01 
01420020009000000DEM       Justice, Supreme Court, PL 6, Unexpired JONES COUNTYWIDEOVER VOTES                            PRECINCT 303                                           01 
01420020010000000DEM       Justice, Supreme Court, PL 6, Unexpired JONES COUNTYWIDEOVER VOTES                            PRECINCT 401                                           01 
01420020011000000DEM       Justice, Supreme Court, PL 6, Unexpired JONES COUNTYWIDEOVER VOTES                            PRECINCT 402                                           01 
01420030001000010DEM       Justice, Supreme Court, PL 6, Unexpired JONES COUNTYWIDEUNDER VOTES                           PRECINCT 101                                           01 
01420030002000003DEM       Justice, Supreme Court, PL 6, Unexpired JONES COUNTYWIDEUNDER VOTES                           PRECINCT 102                                           01 
01420030003000002DEM       Justice, Supreme Court, PL 6, Unexpired JONES COUNTYWIDEUNDER VOTES                           PRECINCT 103                                           01 
01420030004000003DEM       Justice, Supreme Court, PL 6, Unexpired JONES COUNTYWIDEUNDER VOTES                           PRECINCT 201                                           01 
01420030005000000DEM       Justice, Supreme Court, PL 6, Unexpired JONES COUNTYWIDEUNDER VOTES                           PRECINCT 202                                           01 
01420030006000000DEM       Justice, Supreme Court, PL 6, Unexpired JONES COUNTYWIDEUNDER VOTES                           PRECINCT 203                                           01 
01420030007000000DEM       Justice, Supreme Court, PL 6, Unexpired JONES COUNTYWIDEUNDER VOTES                           PRECINCT 301                                           01 
01420030008000001DEM       Justice, Supreme Court, PL 6, Unexpired JONES COUNTYWIDEUNDER VOTES                           PRECINCT 302                                           01 
01420030009000002DEM       Justice, Supreme Court, PL 6, Unexpired JONES COUNTYWIDEUNDER VOTES                           PRECINCT 303                                           01 
01420030010000001DEM       Justice, Supreme Court, PL 6, Unexpired JONES COUNTYWIDEUNDER VOTES                           PRECINCT 401                                           01 
01420030011000007DEM       Justice, Supreme Court, PL 6, Unexpired JONES COUNTYWIDEUNDER VOTES                           PRECINCT 402                                           01 
01430010001000021DEM       Justice, Supreme Court, P7 JONES COUNTYWIDE             Gina Benavides                        PRECINCT 101                                           01 
01430010002000006DEM       Justice, Supreme Court, P7 JONES COUNTYWIDE             Gina Benavides                        PRECINCT 102                                           01 
01430010003000014DEM       Justice, Supreme Court, P7 JONES COUNTYWIDE             Gina Benavides                        PRECINCT 103                                           01 
01430010004000012DEM       Justice, Supreme Court, P7 JONES COUNTYWIDE             Gina Benavides                        PRECINCT 201                                           01 
01430010005000004DEM       Justice, Supreme Court, P7 JONES COUNTYWIDE             Gina Benavides                        PRECINCT 202                                           01 
01430010006000002DEM       Justice, Supreme Court, P7 JONES COUNTYWIDE             Gina Benavides                        PRECINCT 203                                           01 
01430010007000002DEM       Justice, Supreme Court, P7 JONES COUNTYWIDE             Gina Benavides                        PRECINCT 301                                           01 
01430010008000010DEM       Justice, Supreme Court, P7 JONES COUNTYWIDE             Gina Benavides                        PRECINCT 302                                           01 
01430010009000012DEM       Justice, Supreme Court, P7 JONES COUNTYWIDE             Gina Benavides                        PRECINCT 303                                           01 
01430010010000013DEM       Justice, Supreme Court, P7 JONES COUNTYWIDE             Gina Benavides                        PRECINCT 401                                           01 
01430010011000028DEM       Justice, Supreme Court, P7 JONES COUNTYWIDE             Gina Benavides                        PRECINCT 402                                           01 
01430020001000000DEM       Justice, Supreme Court, P7 JONES COUNTYWIDE             OVER VOTES                            PRECINCT 101                                           01 
01430020002000000DEM       Justice, Supreme Court, P7 JONES COUNTYWIDE             OVER VOTES                            PRECINCT 102                                           01 
01430020003000000DEM       Justice, Supreme Court, P7 JONES COUNTYWIDE             OVER VOTES                            PRECINCT 103                                           01 
01430020004000000DEM       Justice, Supreme Court, P7 JONES COUNTYWIDE             OVER VOTES                            PRECINCT 201                                           01 
01430020005000000DEM       Justice, Supreme Court, P7 JONES COUNTYWIDE             OVER VOTES                            PRECINCT 202                                           01 
01430020006000000DEM       Justice, Supreme Court, P7 JONES COUNTYWIDE             OVER VOTES                            PRECINCT 203                                           01 
01430020007000000DEM       Justice, Supreme Court, P7 JONES COUNTYWIDE             OVER VOTES                            PRECINCT 301                                           01 
01430020008000000DEM       Justice, Supreme Court, P7 JONES COUNTYWIDE             OVER VOTES                            PRECINCT 302                                           01 
01430020009000000DEM       Justice, Supreme Court, P7 JONES COUNTYWIDE             OVER VOTES                            PRECINCT 303                                           01 
01430020010000000DEM       Justice, Supreme Court, P7 JONES COUNTYWIDE             OVER VOTES                            PRECINCT 401                                           01 
01430020011000000DEM       Justice, Supreme Court, P7 JONES COUNTYWIDE             OVER VOTES                            PRECINCT 402                                           01 
01430030001000007DEM       Justice, Supreme Court, P7 JONES COUNTYWIDE             UNDER VOTES                           PRECINCT 101                                           01 
01430030002000002DEM       Justice, Supreme Court, P7 JONES COUNTYWIDE             UNDER VOTES                           PRECINCT 102                                           01 
01430030003000003DEM       Justice, Supreme Court, P7 JONES COUNTYWIDE             UNDER VOTES                           PRECINCT 103                                           01 
01430030004000003DEM       Justice, Supreme Court, P7 JONES COUNTYWIDE             UNDER VOTES                           PRECINCT 201                                           01 
01430030005000000DEM       Justice, Supreme Court, P7 JONES COUNTYWIDE             UNDER VOTES                           PRECINCT 202                                           01 
01430030006000000DEM       Justice, Supreme Court, P7 JONES COUNTYWIDE             UNDER VOTES                           PRECINCT 203                                           01 
01430030007000000DEM       Justice, Supreme Court, P7 JONES COUNTYWIDE             UNDER VOTES                           PRECINCT 301                                           01 
01430030008000001DEM       Justice, Supreme Court, P7 JONES COUNTYWIDE             UNDER VOTES                           PRECINCT 302                                           01 
01430030009000001DEM       Justice, Supreme Court, P7 JONES COUNTYWIDE             UNDER VOTES                           PRECINCT 303                                           01 
01430030010000000DEM       Justice, Supreme Court, P7 JONES COUNTYWIDE             UNDER VOTES                           PRECINCT 401                                           01 
01430030011000008DEM       Justice, Supreme Court, P7 JONES COUNTYWIDE             UNDER VOTES                           PRECINCT 402                                           01 
01440010001000019DEM       Judge, CT of Criminal Appeals, P3 JONES COUNTYWIDE      John Granberg                         PRECINCT 101                                           01 
01440010002000006DEM       Judge, CT of Criminal Appeals, P3 JONES COUNTYWIDE      John Granberg                         PRECINCT 102                                           01 
01440010003000014DEM       Judge, CT of Criminal Appeals, P3 JONES COUNTYWIDE      John Granberg                         PRECINCT 103                                           01 
01440010004000012DEM       Judge, CT of Criminal Appeals, P3 JONES COUNTYWIDE      John Granberg                         PRECINCT 201                                           01 
01440010005000004DEM       Judge, CT of Criminal Appeals, P3 JONES COUNTYWIDE      John Granberg                         PRECINCT 202                                           01 
01440010006000002DEM       Judge, CT of Criminal Appeals, P3 JONES COUNTYWIDE      John Granberg                         PRECINCT 203                                           01 
01440010007000002DEM       Judge, CT of Criminal Appeals, P3 JONES COUNTYWIDE      John Granberg                         PRECINCT 301                                           01 
01440010008000010DEM       Judge, CT of Criminal Appeals, P3 JONES COUNTYWIDE      John Granberg                         PRECINCT 302                                           01 
01440010009000012DEM       Judge, CT of Criminal Appeals, P3 JONES COUNTYWIDE      John Granberg                         PRECINCT 303                                           01 
01440010010000013DEM       Judge, CT of Criminal Appeals, P3 JONES COUNTYWIDE      John Granberg                         PRECINCT 401                                           01 
01440010011000029DEM       Judge, CT of Criminal Appeals, P3 JONES COUNTYWIDE      John Granberg                         PRECINCT 402                                           01 
01440020001000000DEM       Judge, CT of Criminal Appeals, P3 JONES COUNTYWIDE      OVER VOTES                            PRECINCT 101                                           01 
01440020002000000DEM       Judge, CT of Criminal Appeals, P3 JONES COUNTYWIDE      OVER VOTES                            PRECINCT 102                                           01 
01440020003000000DEM       Judge, CT of Criminal Appeals, P3 JONES COUNTYWIDE      OVER VOTES                            PRECINCT 103                                           01 
01440020004000000DEM       Judge, CT of Criminal Appeals, P3 JONES COUNTYWIDE      OVER VOTES                            PRECINCT 201                                           01 
01440020005000000DEM       Judge, CT of Criminal Appeals, P3 JONES COUNTYWIDE      OVER VOTES                            PRECINCT 202                                           01 
01440020006000000DEM       Judge, CT of Criminal Appeals, P3 JONES COUNTYWIDE      OVER VOTES                            PRECINCT 203                                           01 
01440020007000000DEM       Judge, CT of Criminal Appeals, P3 JONES COUNTYWIDE      OVER VOTES                            PRECINCT 301                                           01 
01440020008000000DEM       Judge, CT of Criminal Appeals, P3 JONES COUNTYWIDE      OVER VOTES                            PRECINCT 302                                           01 
01440020009000000DEM       Judge, CT of Criminal Appeals, P3 JONES COUNTYWIDE      OVER VOTES                            PRECINCT 303                                           01 
01440020010000000DEM       Judge, CT of Criminal Appeals, P3 JONES COUNTYWIDE      OVER VOTES                            PRECINCT 401                                           01 
01440020011000000DEM       Judge, CT of Criminal Appeals, P3 JONES COUNTYWIDE      OVER VOTES                            PRECINCT 402                                           01 
01440030001000009DEM       Judge, CT of Criminal Appeals, P3 JONES COUNTYWIDE      UNDER VOTES                           PRECINCT 101                                           01 
01440030002000002DEM       Judge, CT of Criminal Appeals, P3 JONES COUNTYWIDE      UNDER VOTES                           PRECINCT 102                                           01 
01440030003000003DEM       Judge, CT of Criminal Appeals, P3 JONES COUNTYWIDE      UNDER VOTES                           PRECINCT 103                                           01 
01440030004000003DEM       Judge, CT of Criminal Appeals, P3 JONES COUNTYWIDE      UNDER VOTES                           PRECINCT 201                                           01 
01440030005000000DEM       Judge, CT of Criminal Appeals, P3 JONES COUNTYWIDE      UNDER VOTES                           PRECINCT 202                                           01 
01440030006000000DEM       Judge, CT of Criminal Appeals, P3 JONES COUNTYWIDE      UNDER VOTES                           PRECINCT 203                                           01 
01440030007000000DEM       Judge, CT of Criminal Appeals, P3 JONES COUNTYWIDE      UNDER VOTES                           PRECINCT 301                                           01 
01440030008000001DEM       Judge, CT of Criminal Appeals, P3 JONES COUNTYWIDE      UNDER VOTES                           PRECINCT 302                                           01 
01440030009000001DEM       Judge, CT of Criminal Appeals, P3 JONES COUNTYWIDE      UNDER VOTES                           PRECINCT 303                                           01 
01440030010000000DEM       Judge, CT of Criminal Appeals, P3 JONES COUNTYWIDE      UNDER VOTES                           PRECINCT 401                                           01 
01440030011000007DEM       Judge, CT of Criminal Appeals, P3 JONES COUNTYWIDE      UNDER VOTES                           PRECINCT 402                                           01 
01450010001000022DEM       District Judge, 259th Judicial District JONES COUNTYWIDEBrooks Hagler                         PRECINCT 101                                           01 
01450010002000008DEM       District Judge, 259th Judicial District JONES COUNTYWIDEBrooks Hagler                         PRECINCT 102                                           01 
01450010003000017DEM       District Judge, 259th Judicial District JONES COUNTYWIDEBrooks Hagler                         PRECINCT 103                                           01 
01450010004000014DEM       District Judge, 259th Judicial District JONES COUNTYWIDEBrooks Hagler                         PRECINCT 201                                           01 
01450010005000004DEM       District Judge, 259th Judicial District JONES COUNTYWIDEBrooks Hagler                         PRECINCT 202                                           01 
01450010006000002DEM       District Judge, 259th Judicial District JONES COUNTYWIDEBrooks Hagler                         PRECINCT 203                                           01 
01450010007000002DEM       District Judge, 259th Judicial District JONES COUNTYWIDEBrooks Hagler                         PRECINCT 301                                           01 
01450010008000010DEM       District Judge, 259th Judicial District JONES COUNTYWIDEBrooks Hagler                         PRECINCT 302                                           01 
01450010009000011DEM       District Judge, 259th Judicial District JONES COUNTYWIDEBrooks Hagler                         PRECINCT 303                                           01 
01450010010000012DEM       District Judge, 259th Judicial District JONES COUNTYWIDEBrooks Hagler                         PRECINCT 401                                           01 
01450010011000030DEM       District Judge, 259th Judicial District JONES COUNTYWIDEBrooks Hagler                         PRECINCT 402                                           01 
01450020001000000DEM       District Judge, 259th Judicial District JONES COUNTYWIDEOVER VOTES                            PRECINCT 101                                           01 
01450020002000000DEM       District Judge, 259th Judicial District JONES COUNTYWIDEOVER VOTES                            PRECINCT 102                                           01 
01450020003000000DEM       District Judge, 259th Judicial District JONES COUNTYWIDEOVER VOTES                            PRECINCT 103                                           01 
01450020004000000DEM       District Judge, 259th Judicial District JONES COUNTYWIDEOVER VOTES                            PRECINCT 201                                           01 
01450020005000000DEM       District Judge, 259th Judicial District JONES COUNTYWIDEOVER VOTES                            PRECINCT 202                                           01 
01450020006000000DEM       District Judge, 259th Judicial District JONES COUNTYWIDEOVER VOTES                            PRECINCT 203                                           01 
01450020007000000DEM       District Judge, 259th Judicial District JONES COUNTYWIDEOVER VOTES                            PRECINCT 301                                           01 
01450020008000000DEM       District Judge, 259th Judicial District JONES COUNTYWIDEOVER VOTES                            PRECINCT 302                                           01 
01450020009000000DEM       District Judge, 259th Judicial District JONES COUNTYWIDEOVER VOTES                            PRECINCT 303                                           01 
01450020010000000DEM       District Judge, 259th Judicial District JONES COUNTYWIDEOVER VOTES                            PRECINCT 401                                           01 
01450020011000000DEM       District Judge, 259th Judicial District JONES COUNTYWIDEOVER VOTES                            PRECINCT 402                                           01 
01450030001000006DEM       District Judge, 259th Judicial District JONES COUNTYWIDEUNDER VOTES                           PRECINCT 101                                           01 
01450030002000000DEM       District Judge, 259th Judicial District JONES COUNTYWIDEUNDER VOTES                           PRECINCT 102                                           01 
