01010010001000000          REGISTERED VOTERS - TOTAL                               REGISTERED VOTERS - TOTAL             PRECINCT 101                                           00 
01010010002000000          REGISTERED VOTERS - TOTAL                               REGISTERED VOTERS - TOTAL             PRECINCT 102                                           00 
01010010003000000          REGISTERED VOTERS - TOTAL                               REGISTERED VOTERS - TOTAL             PRECINCT 103                                           00 
01010010004000000          REGISTERED VOTERS - TOTAL                               REGISTERED VOTERS - TOTAL             PRECINCT 201                                           00 
01010010005000000          REGISTERED VOTERS - TOTAL                               REGISTERED VOTERS - TOTAL             PRECINCT 202                                           00 
01010010006000000          REGISTERED VOTERS - TOTAL                               REGISTERED VOTERS - TOTAL             PRECINCT 203                                           00 
01010010007000000          REGISTERED VOTERS - TOTAL                               REGISTERED VOTERS - TOTAL             PRECINCT 301                                           00 
01010010008000000          REGISTERED VOTERS - TOTAL                               REGISTERED VOTERS - TOTAL             PRECINCT 302                                           00 
01010010009000000          REGISTERED VOTERS - TOTAL                               REGISTERED VOTERS - TOTAL             PRECINCT 303                                           00 
01010010010000000          REGISTERED VOTERS - TOTAL                               REGISTERED VOTERS - TOTAL             PRECINCT 401                                           00 
01010010011000000          REGISTERED VOTERS - TOTAL                               REGISTERED VOTERS - TOTAL             PRECINCT 402                                           00 
01020010001000410          BALLOTS CAST - TOTAL                                    BALLOTS CAST - TOTAL                  PRECINCT 101                                           00 
01020010002000053          BALLOTS CAST - TOTAL                                    BALLOTS CAST - TOTAL                  PRECINCT 102                                           00 
01020010003000160          BALLOTS CAST - TOTAL                                    BALLOTS CAST - TOTAL                  PRECINCT 103                                           00 
01020010004000650          BALLOTS CAST - TOTAL                                    BALLOTS CAST - TOTAL                  PRECINCT 201                                           00 
01020010005000114          BALLOTS CAST - TOTAL                                    BALLOTS CAST - TOTAL                  PRECINCT 202                                           00 
01020010006000105          BALLOTS CAST - TOTAL                                    BALLOTS CAST - TOTAL                  PRECINCT 203                                           00 
01020010007000082          BALLOTS CAST - TOTAL                                    BALLOTS CAST - TOTAL                  PRECINCT 301                                           00 
01020010008000322          BALLOTS CAST - TOTAL                                    BALLOTS CAST - TOTAL                  PRECINCT 302                                           00 
01020010009000476          BALLOTS CAST - TOTAL                                    BALLOTS CAST - TOTAL                  PRECINCT 303                                           00 
01020010010000499          BALLOTS CAST - TOTAL                                    BALLOTS CAST - TOTAL                  PRECINCT 401                                           00 
01020010011000508          BALLOTS CAST - TOTAL                                    BALLOTS CAST - TOTAL                  PRECINCT 402                                           00 
01030010001000195REP       STRAIGHT PARTY                                          REPUBLICAN PARTY                      PRECINCT 101                                           01 
01030010002000016REP       STRAIGHT PARTY                                          REPUBLICAN PARTY                      PRECINCT 102                                           01 
01030010003000047REP       STRAIGHT PARTY                                          REPUBLICAN PARTY                      PRECINCT 103                                           01 
01030010004000159REP       STRAIGHT PARTY                                          REPUBLICAN PARTY                      PRECINCT 201                                           01 
01030010005000033REP       STRAIGHT PARTY                                          REPUBLICAN PARTY                      PRECINCT 202                                           01 
01030010006000037REP       STRAIGHT PARTY                                          REPUBLICAN PARTY                      PRECINCT 203                                           01 
01030010007000030REP       STRAIGHT PARTY                                          REPUBLICAN PARTY                      PRECINCT 301                                           01 
01030010008000173REP       STRAIGHT PARTY                                          REPUBLICAN PARTY                      PRECINCT 302                                           01 
01030010009000228REP       STRAIGHT PARTY                                          REPUBLICAN PARTY                      PRECINCT 303                                           01 
01030010010000268REP       STRAIGHT PARTY                                          REPUBLICAN PARTY                      PRECINCT 401                                           01 
01030010011000162REP       STRAIGHT PARTY                                          REPUBLICAN PARTY                      PRECINCT 402                                           01 
01030020001000046DEM       STRAIGHT PARTY                                          DEMOCRATIC PARTY                      PRECINCT 101                                           01 
01030020002000018DEM       STRAIGHT PARTY                                          DEMOCRATIC PARTY                      PRECINCT 102                                           01 
01030020003000031DEM       STRAIGHT PARTY                                          DEMOCRATIC PARTY                      PRECINCT 103                                           01 
01030020004000058DEM       STRAIGHT PARTY                                          DEMOCRATIC PARTY                      PRECINCT 201                                           01 
01030020005000013DEM       STRAIGHT PARTY                                          DEMOCRATIC PARTY                      PRECINCT 202                                           01 
01030020006000008DEM       STRAIGHT PARTY                                          DEMOCRATIC PARTY                      PRECINCT 203                                           01 
01030020007000002DEM       STRAIGHT PARTY                                          DEMOCRATIC PARTY                      PRECINCT 301                                           01 
01030020008000016DEM       STRAIGHT PARTY                                          DEMOCRATIC PARTY                      PRECINCT 302                                           01 
01030020009000029DEM       STRAIGHT PARTY                                          DEMOCRATIC PARTY                      PRECINCT 303                                           01 
01030020010000016DEM       STRAIGHT PARTY                                          DEMOCRATIC PARTY                      PRECINCT 401                                           01 
01030020011000039DEM       STRAIGHT PARTY                                          DEMOCRATIC PARTY                      PRECINCT 402                                           01 
01030030001000000LIB       STRAIGHT PARTY                                          LIBERTARIAN PARTY                     PRECINCT 101                                           01 
01030030002000000LIB       STRAIGHT PARTY                                          LIBERTARIAN PARTY                     PRECINCT 102                                           01 
01030030003000002LIB       STRAIGHT PARTY                                          LIBERTARIAN PARTY                     PRECINCT 103                                           01 
01030030004000002LIB       STRAIGHT PARTY                                          LIBERTARIAN PARTY                     PRECINCT 201                                           01 
01030030005000001LIB       STRAIGHT PARTY                                          LIBERTARIAN PARTY                     PRECINCT 202                                           01 
01030030006000001LIB       STRAIGHT PARTY                                          LIBERTARIAN PARTY                     PRECINCT 203                                           01 
01030030007000000LIB       STRAIGHT PARTY                                          LIBERTARIAN PARTY                     PRECINCT 301                                           01 
01030030008000000LIB       STRAIGHT PARTY                                          LIBERTARIAN PARTY                     PRECINCT 302                                           01 
01030030009000004LIB       STRAIGHT PARTY                                          LIBERTARIAN PARTY                     PRECINCT 303                                           01 
01030030010000001LIB       STRAIGHT PARTY                                          LIBERTARIAN PARTY                     PRECINCT 401                                           01 
01030030011000001LIB       STRAIGHT PARTY                                          LIBERTARIAN PARTY                     PRECINCT 402                                           01 
01030040001000001GRN       STRAIGHT PARTY                                          GREEN PARTY                           PRECINCT 101                                           01 
01030040002000000GRN       STRAIGHT PARTY                                          GREEN PARTY                           PRECINCT 102                                           01 
01030040003000000GRN       STRAIGHT PARTY                                          GREEN PARTY                           PRECINCT 103                                           01 
01030040004000002GRN       STRAIGHT PARTY                                          GREEN PARTY                           PRECINCT 201                                           01 
01030040005000000GRN       STRAIGHT PARTY                                          GREEN PARTY                           PRECINCT 202                                           01 
01030040006000000GRN       STRAIGHT PARTY                                          GREEN PARTY                           PRECINCT 203                                           01 
01030040007000000GRN       STRAIGHT PARTY                                          GREEN PARTY                           PRECINCT 301                                           01 
01030040008000001GRN       STRAIGHT PARTY                                          GREEN PARTY                           PRECINCT 302                                           01 
01030040009000000GRN       STRAIGHT PARTY                                          GREEN PARTY                           PRECINCT 303                                           01 
01030040010000001GRN       STRAIGHT PARTY                                          GREEN PARTY                           PRECINCT 401                                           01 
01030040011000002GRN       STRAIGHT PARTY                                          GREEN PARTY                           PRECINCT 402                                           01 
01030050001000000          STRAIGHT PARTY                                          OVER VOTES                            PRECINCT 101                                           01 
01030050002000000          STRAIGHT PARTY                                          OVER VOTES                            PRECINCT 102                                           01 
01030050003000000          STRAIGHT PARTY                                          OVER VOTES                            PRECINCT 103                                           01 
01030050004000000          STRAIGHT PARTY                                          OVER VOTES                            PRECINCT 201                                           01 
01030050005000000          STRAIGHT PARTY                                          OVER VOTES                            PRECINCT 202                                           01 
01030050006000000          STRAIGHT PARTY                                          OVER VOTES                            PRECINCT 203                                           01 
01030050007000000          STRAIGHT PARTY                                          OVER VOTES                            PRECINCT 301                                           01 
01030050008000000          STRAIGHT PARTY                                          OVER VOTES                            PRECINCT 302                                           01 
01030050009000000          STRAIGHT PARTY                                          OVER VOTES                            PRECINCT 303                                           01 
01030050010000000          STRAIGHT PARTY                                          OVER VOTES                            PRECINCT 401                                           01 
01030050011000000          STRAIGHT PARTY                                          OVER VOTES                            PRECINCT 402                                           01 
01030060001000168          STRAIGHT PARTY                                          UNDER VOTES                           PRECINCT 101                                           01 
01030060002000019          STRAIGHT PARTY                                          UNDER VOTES                           PRECINCT 102                                           01 
01030060003000080          STRAIGHT PARTY                                          UNDER VOTES                           PRECINCT 103                                           01 
01030060004000429          STRAIGHT PARTY                                          UNDER VOTES                           PRECINCT 201                                           01 
01030060005000067          STRAIGHT PARTY                                          UNDER VOTES                           PRECINCT 202                                           01 
01030060006000059          STRAIGHT PARTY                                          UNDER VOTES                           PRECINCT 203                                           01 
01030060007000050          STRAIGHT PARTY                                          UNDER VOTES                           PRECINCT 301                                           01 
01030060008000132          STRAIGHT PARTY                                          UNDER VOTES                           PRECINCT 302                                           01 
01030060009000215          STRAIGHT PARTY                                          UNDER VOTES                           PRECINCT 303                                           01 
01030060010000213          STRAIGHT PARTY                                          UNDER VOTES                           PRECINCT 401                                           01 
01030060011000304          STRAIGHT PARTY                                          UNDER VOTES                           PRECINCT 402                                           01 
01040010001000326REP       US Senator                                              John Cornyn                           PRECINCT 101                                           01 
01040010002000028REP       US Senator                                              John Cornyn                           PRECINCT 102                                           01 
01040010003000099REP       US Senator                                              John Cornyn                           PRECINCT 103                                           01 
01040010004000464REP       US Senator                                              John Cornyn                           PRECINCT 201                                           01 
01040010005000077REP       US Senator                                              John Cornyn                           PRECINCT 202                                           01 
01040010006000085REP       US Senator                                              John Cornyn                           PRECINCT 203                                           01 
01040010007000067REP       US Senator                                              John Cornyn                           PRECINCT 301                                           01 
01040010008000279REP       US Senator                                              John Cornyn                           PRECINCT 302                                           01 
01040010009000396REP       US Senator                                              John Cornyn                           PRECINCT 303                                           01 
01040010010000441REP       US Senator                                              John Cornyn                           PRECINCT 401                                           01 
01040010011000382REP       US Senator                                              John Cornyn                           PRECINCT 402                                           01 
01040020001000066DEM       US Senator                                              David M. Alameel                      PRECINCT 101                                           01 
01040020002000023DEM       US Senator                                              David M. Alameel                      PRECINCT 102                                           01 
01040020003000048DEM       US Senator                                              David M. Alameel                      PRECINCT 103                                           01 
01040020004000129DEM       US Senator                                              David M. Alameel                      PRECINCT 201                                           01 
01040020005000019DEM       US Senator                                              David M. Alameel                      PRECINCT 202                                           01 
01040020006000013DEM       US Senator                                              David M. Alameel                      PRECINCT 203                                           01 
01040020007000011DEM       US Senator                                              David M. Alameel                      PRECINCT 301                                           01 
01040020008000025DEM       US Senator                                              David M. Alameel                      PRECINCT 302                                           01 
01040020009000044DEM       US Senator                                              David M. Alameel                      PRECINCT 303                                           01 
01040020010000033DEM       US Senator                                              David M. Alameel                      PRECINCT 401                                           01 
01040020011000080DEM       US Senator                                              David M. Alameel                      PRECINCT 402                                           01 
01040030001000007LIB       US Senator                                              Rebecca Paddock                       PRECINCT 101                                           01 
01040030002000001LIB       US Senator                                              Rebecca Paddock                       PRECINCT 102                                           01 
01040030003000006LIB       US Senator                                              Rebecca Paddock                       PRECINCT 103                                           01 
01040030004000021LIB       US Senator                                              Rebecca Paddock                       PRECINCT 201                                           01 
01040030005000007LIB       US Senator                                              Rebecca Paddock                       PRECINCT 202                                           01 
01040030006000003LIB       US Senator                                              Rebecca Paddock                       PRECINCT 203                                           01 
01040030007000002LIB       US Senator                                              Rebecca Paddock                       PRECINCT 301                                           01 
01040030008000011LIB       US Senator                                              Rebecca Paddock                       PRECINCT 302                                           01 
01040030009000021LIB       US Senator                                              Rebecca Paddock                       PRECINCT 303                                           01 
01040030010000016LIB       US Senator                                              Rebecca Paddock                       PRECINCT 401                                           01 
01040030011000017LIB       US Senator                                              Rebecca Paddock                       PRECINCT 402                                           01 
01040040001000003GRN       US Senator                                              Emily "Spicybrown" Sanchez            PRECINCT 101                                           01 
01040040002000001GRN       US Senator                                              Emily "Spicybrown" Sanchez            PRECINCT 102                                           01 
01040040003000002GRN       US Senator                                              Emily "Spicybrown" Sanchez            PRECINCT 103                                           01 
01040040004000003GRN       US Senator                                              Emily "Spicybrown" Sanchez            PRECINCT 201                                           01 
01040040005000000GRN       US Senator                                              Emily "Spicybrown" Sanchez            PRECINCT 202                                           01 
01040040006000001GRN       US Senator                                              Emily "Spicybrown" Sanchez            PRECINCT 203                                           01 
01040040007000000GRN       US Senator                                              Emily "Spicybrown" Sanchez            PRECINCT 301                                           01 
01040040008000000GRN       US Senator                                              Emily "Spicybrown" Sanchez            PRECINCT 302                                           01 
01040040009000002GRN       US Senator                                              Emily "Spicybrown" Sanchez            PRECINCT 303                                           01 
01040040010000000GRN       US Senator                                              Emily "Spicybrown" Sanchez            PRECINCT 401                                           01 
01040040011000011GRN       US Senator                                              Emily "Spicybrown" Sanchez            PRECINCT 402                                           01 
01040050001000000NON       US Senator                                              WRITE-IN                              PRECINCT 101                                           01 
01040050002000000NON       US Senator                                              WRITE-IN                              PRECINCT 102                                           01 
01040050003000000NON       US Senator                                              WRITE-IN                              PRECINCT 103                                           01 
01040050004000000NON       US Senator                                              WRITE-IN                              PRECINCT 201                                           01 
01040050005000000NON       US Senator                                              WRITE-IN                              PRECINCT 202                                           01 
01040050006000000NON       US Senator                                              WRITE-IN                              PRECINCT 203                                           01 
01040050007000000NON       US Senator                                              WRITE-IN                              PRECINCT 301                                           01 
01040050008000000NON       US Senator                                              WRITE-IN                              PRECINCT 302                                           01 
01040050009000001NON       US Senator                                              WRITE-IN                              PRECINCT 303                                           01 
01040050010000000NON       US Senator                                              WRITE-IN                              PRECINCT 401                                           01 
01040050011000000NON       US Senator                                              WRITE-IN                              PRECINCT 402                                           01 
01040060001000000          US Senator                                              OVER VOTES                            PRECINCT 101                                           01 
01040060002000000          US Senator                                              OVER VOTES                            PRECINCT 102                                           01 
01040060003000000          US Senator                                              OVER VOTES                            PRECINCT 103                                           01 
01040060004000000          US Senator                                              OVER VOTES                            PRECINCT 201                                           01 
01040060005000000          US Senator                                              OVER VOTES                            PRECINCT 202                                           01 
01040060006000000          US Senator                                              OVER VOTES                            PRECINCT 203                                           01 
01040060007000000          US Senator                                              OVER VOTES                            PRECINCT 301                                           01 
01040060008000000          US Senator                                              OVER VOTES                            PRECINCT 302                                           01 
01040060009000000          US Senator                                              OVER VOTES                            PRECINCT 303                                           01 
01040060010000000          US Senator                                              OVER VOTES                            PRECINCT 401                                           01 
01040060011000000          US Senator                                              OVER VOTES                            PRECINCT 402                                           01 
01040070001000008          US Senator                                              UNDER VOTES                           PRECINCT 101                                           01 
01040070002000000          US Senator                                              UNDER VOTES                           PRECINCT 102                                           01 
01040070003000005          US Senator                                              UNDER VOTES                           PRECINCT 103                                           01 
01040070004000033          US Senator                                              UNDER VOTES                           PRECINCT 201                                           01 
01040070005000011          US Senator                                              UNDER VOTES                           PRECINCT 202                                           01 
01040070006000003          US Senator                                              UNDER VOTES                           PRECINCT 203                                           01 
01040070007000002          US Senator                                              UNDER VOTES                           PRECINCT 301                                           01 
01040070008000007          US Senator                                              UNDER VOTES                           PRECINCT 302                                           01 
01040070009000012          US Senator                                              UNDER VOTES                           PRECINCT 303                                           01 
01040070010000009          US Senator                                              UNDER VOTES                           PRECINCT 401                                           01 
01040070011000018          US Senator                                              UNDER VOTES                           PRECINCT 402                                           01 
01050010001000324REP       US Representative, DIST 19                              Randy Neugebauer                      PRECINCT 101                                           01 
01050010002000026REP       US Representative, DIST 19                              Randy Neugebauer                      PRECINCT 102                                           01 
01050010003000103REP       US Representative, DIST 19                              Randy Neugebauer                      PRECINCT 103                                           01 
01050010004000428REP       US Representative, DIST 19                              Randy Neugebauer                      PRECINCT 201                                           01 
01050010005000067REP       US Representative, DIST 19                              Randy Neugebauer                      PRECINCT 202                                           01 
01050010006000081REP       US Representative, DIST 19                              Randy Neugebauer                      PRECINCT 203                                           01 
01050010007000067REP       US Representative, DIST 19                              Randy Neugebauer                      PRECINCT 301                                           01 
01050010008000274REP       US Representative, DIST 19                              Randy Neugebauer                      PRECINCT 302                                           01 
01050010009000381REP       US Representative, DIST 19                              Randy Neugebauer                      PRECINCT 303                                           01 
01050010010000411REP       US Representative, DIST 19                              Randy Neugebauer                      PRECINCT 401                                           01 
01050010011000373REP       US Representative, DIST 19                              Randy Neugebauer                      PRECINCT 402                                           01 
01050020001000069DEM       US Representative, DIST 19                              Neal Marchbanks                       PRECINCT 101                                           01 
01050020002000026DEM       US Representative, DIST 19                              Neal Marchbanks                       PRECINCT 102                                           01 
01050020003000048DEM       US Representative, DIST 19                              Neal Marchbanks                       PRECINCT 103                                           01 
01050020004000152DEM       US Representative, DIST 19                              Neal Marchbanks                       PRECINCT 201                                           01 
01050020005000029DEM       US Representative, DIST 19                              Neal Marchbanks                       PRECINCT 202                                           01 
01050020006000017DEM       US Representative, DIST 19                              Neal Marchbanks                       PRECINCT 203                                           01 
01050020007000013DEM       US Representative, DIST 19                              Neal Marchbanks                       PRECINCT 301                                           01 
01050020008000026DEM       US Representative, DIST 19                              Neal Marchbanks                       PRECINCT 302                                           01 
01050020009000048DEM       US Representative, DIST 19                              Neal Marchbanks                       PRECINCT 303                                           01 
01050020010000042DEM       US Representative, DIST 19                              Neal Marchbanks                       PRECINCT 401                                           01 
01050020011000092DEM       US Representative, DIST 19                              Neal Marchbanks                       PRECINCT 402                                           01 
01050030001000008LIB       US Representative, DIST 19                              Richard (Chip) Peterson               PRECINCT 101                                           01 
01050030002000001LIB       US Representative, DIST 19                              Richard (Chip) Peterson               PRECINCT 102                                           01 
01050030003000004LIB       US Representative, DIST 19                              Richard (Chip) Peterson               PRECINCT 103                                           01 
01050030004000040LIB       US Representative, DIST 19                              Richard (Chip) Peterson               PRECINCT 201                                           01 
01050030005000011LIB       US Representative, DIST 19                              Richard (Chip) Peterson               PRECINCT 202                                           01 
01050030006000007LIB       US Representative, DIST 19                              Richard (Chip) Peterson               PRECINCT 203                                           01 
01050030007000001LIB       US Representative, DIST 19                              Richard (Chip) Peterson               PRECINCT 301                                           01 
01050030008000015LIB       US Representative, DIST 19                              Richard (Chip) Peterson               PRECINCT 302                                           01 
01050030009000037LIB       US Representative, DIST 19                              Richard (Chip) Peterson               PRECINCT 303                                           01 
01050030010000037LIB       US Representative, DIST 19                              Richard (Chip) Peterson               PRECINCT 401                                           01 
01050030011000029LIB       US Representative, DIST 19                              Richard (Chip) Peterson               PRECINCT 402                                           01 
01050040001000002NON       US Representative, DIST 19                              WRITE-IN                              PRECINCT 101                                           01 
01050040002000000NON       US Representative, DIST 19                              WRITE-IN                              PRECINCT 102                                           01 
01050040003000000NON       US Representative, DIST 19                              WRITE-IN                              PRECINCT 103                                           01 
01050040004000002NON       US Representative, DIST 19                              WRITE-IN                              PRECINCT 201                                           01 
01050040005000001NON       US Representative, DIST 19                              WRITE-IN                              PRECINCT 202                                           01 
01050040006000000NON       US Representative, DIST 19                              WRITE-IN                              PRECINCT 203                                           01 
01050040007000000NON       US Representative, DIST 19                              WRITE-IN                              PRECINCT 301                                           01 
01050040008000002NON       US Representative, DIST 19                              WRITE-IN                              PRECINCT 302                                           01 
01050040009000000NON       US Representative, DIST 19                              WRITE-IN                              PRECINCT 303                                           01 
01050040010000002NON       US Representative, DIST 19                              WRITE-IN                              PRECINCT 401                                           01 
01050040011000000NON       US Representative, DIST 19                              WRITE-IN                              PRECINCT 402                                           01 
01050050001000000          US Representative, DIST 19                              OVER VOTES                            PRECINCT 101                                           01 
01050050002000000          US Representative, DIST 19                              OVER VOTES                            PRECINCT 102                                           01 
01050050003000000          US Representative, DIST 19                              OVER VOTES                            PRECINCT 103                                           01 
01050050004000000          US Representative, DIST 19                              OVER VOTES                            PRECINCT 201                                           01 
01050050005000000          US Representative, DIST 19                              OVER VOTES                            PRECINCT 202                                           01 
01050050006000000          US Representative, DIST 19                              OVER VOTES                            PRECINCT 203                                           01 
01050050007000000          US Representative, DIST 19                              OVER VOTES                            PRECINCT 301                                           01 
01050050008000000          US Representative, DIST 19                              OVER VOTES                            PRECINCT 302                                           01 
01050050009000000          US Representative, DIST 19                              OVER VOTES                            PRECINCT 303                                           01 
01050050010000000          US Representative, DIST 19                              OVER VOTES                            PRECINCT 401                                           01 
01050050011000000          US Representative, DIST 19                              OVER VOTES                            PRECINCT 402                                           01 
01050060001000007          US Representative, DIST 19                              UNDER VOTES                           PRECINCT 101                                           01 
01050060002000000          US Representative, DIST 19                              UNDER VOTES                           PRECINCT 102                                           01 
01050060003000005          US Representative, DIST 19                              UNDER VOTES                           PRECINCT 103                                           01 
01050060004000028          US Representative, DIST 19                              UNDER VOTES                           PRECINCT 201                                           01 
01050060005000006          US Representative, DIST 19                              UNDER VOTES                           PRECINCT 202                                           01 
01050060006000000          US Representative, DIST 19                              UNDER VOTES                           PRECINCT 203                                           01 
01050060007000001          US Representative, DIST 19                              UNDER VOTES                           PRECINCT 301                                           01 
01050060008000005          US Representative, DIST 19                              UNDER VOTES                           PRECINCT 302                                           01 
01050060009000010          US Representative, DIST 19                              UNDER VOTES                           PRECINCT 303                                           01 
01050060010000007          US Representative, DIST 19                              UNDER VOTES                           PRECINCT 401                                           01 
01050060011000014          US Representative, DIST 19                              UNDER VOTES                           PRECINCT 402                                           01 
01060010001000332REP       Governor                                                Greg Abbott                           PRECINCT 101                                           01 
01060010002000030REP       Governor                                                Greg Abbott                           PRECINCT 102                                           01 
01060010003000108REP       Governor                                                Greg Abbott                           PRECINCT 103                                           01 
01060010004000486REP       Governor                                                Greg Abbott                           PRECINCT 201                                           01 
01060010005000086REP       Governor                                                Greg Abbott                           PRECINCT 202                                           01 
01060010006000090REP       Governor                                                Greg Abbott                           PRECINCT 203                                           01 
01060010007000068REP       Governor                                                Greg Abbott                           PRECINCT 301                                           01 
01060010008000290REP       Governor                                                Greg Abbott                           PRECINCT 302                                           01 
01060010009000414REP       Governor                                                Greg Abbott                           PRECINCT 303                                           01 
01060010010000448REP       Governor                                                Greg Abbott                           PRECINCT 401                                           01 
01060010011000393REP       Governor                                                Greg Abbott                           PRECINCT 402                                           01 
01060020001000068DEM       Governor                                                Wendy R. Davis                        PRECINCT 101                                           01 
01060020002000022DEM       Governor                                                Wendy R. Davis                        PRECINCT 102                                           01 
01060020003000047DEM       Governor                                                Wendy R. Davis                        PRECINCT 103                                           01 
01060020004000138DEM       Governor                                                Wendy R. Davis                        PRECINCT 201                                           01 
01060020005000021DEM       Governor                                                Wendy R. Davis                        PRECINCT 202                                           01 
01060020006000012DEM       Governor                                                Wendy R. Davis                        PRECINCT 203                                           01 
01060020007000011DEM       Governor                                                Wendy R. Davis                        PRECINCT 301                                           01 
01060020008000025DEM       Governor                                                Wendy R. Davis                        PRECINCT 302                                           01 
01060020009000051DEM       Governor                                                Wendy R. Davis                        PRECINCT 303                                           01 
01060020010000041DEM       Governor                                                Wendy R. Davis                        PRECINCT 401                                           01 
01060020011000098DEM       Governor                                                Wendy R. Davis                        PRECINCT 402                                           01 
01060030001000003LIB       Governor                                                Kathie Glass                          PRECINCT 101                                           01 
01060030002000000LIB       Governor                                                Kathie Glass                          PRECINCT 102                                           01 
01060030003000005LIB       Governor                                                Kathie Glass                          PRECINCT 103                                           01 
01060030004000008LIB       Governor                                                Kathie Glass                          PRECINCT 201                                           01 
01060030005000003LIB       Governor                                                Kathie Glass                          PRECINCT 202                                           01 
01060030006000001LIB       Governor                                                Kathie Glass                          PRECINCT 203                                           01 
01060030007000002LIB       Governor                                                Kathie Glass                          PRECINCT 301                                           01 
01060030008000003LIB       Governor                                                Kathie Glass                          PRECINCT 302                                           01 
01060030009000004LIB       Governor                                                Kathie Glass                          PRECINCT 303                                           01 
01060030010000008LIB       Governor                                                Kathie Glass                          PRECINCT 401                                           01 
01060030011000005LIB       Governor                                                Kathie Glass                          PRECINCT 402                                           01 
01060040001000004GRN       Governor                                                Brandon Parmer                        PRECINCT 101                                           01 
01060040002000001GRN       Governor                                                Brandon Parmer                        PRECINCT 102                                           01 
01060040003000000GRN       Governor                                                Brandon Parmer                        PRECINCT 103                                           01 
01060040004000002GRN       Governor                                                Brandon Parmer                        PRECINCT 201                                           01 
01060040005000000GRN       Governor                                                Brandon Parmer                        PRECINCT 202                                           01 
01060040006000001GRN       Governor                                                Brandon Parmer                        PRECINCT 203                                           01 
01060040007000000GRN       Governor                                                Brandon Parmer                        PRECINCT 301                                           01 
01060040008000001GRN       Governor                                                Brandon Parmer                        PRECINCT 302                                           01 
01060040009000004GRN       Governor                                                Brandon Parmer                        PRECINCT 303                                           01 
01060040010000000GRN       Governor                                                Brandon Parmer                        PRECINCT 401                                           01 
01060040011000003GRN       Governor                                                Brandon Parmer                        PRECINCT 402                                           01 
01060050001000000NON       Governor                                                WRITE-IN                              PRECINCT 101                                           01 
01060050002000000NON       Governor                                                WRITE-IN                              PRECINCT 102                                           01 
01060050003000000NON       Governor                                                WRITE-IN                              PRECINCT 103                                           01 
01060050004000002NON       Governor                                                WRITE-IN                              PRECINCT 201                                           01 
01060050005000001NON       Governor                                                WRITE-IN                              PRECINCT 202                                           01 
01060050006000000NON       Governor                                                WRITE-IN                              PRECINCT 203                                           01 
01060050007000000NON       Governor                                                WRITE-IN                              PRECINCT 301                                           01 
01060050008000001NON       Governor                                                WRITE-IN                              PRECINCT 302                                           01 
01060050009000000NON       Governor                                                WRITE-IN                              PRECINCT 303                                           01 
01060050010000000NON       Governor                                                WRITE-IN                              PRECINCT 401                                           01 
01060050011000000NON       Governor                                                WRITE-IN                              PRECINCT 402                                           01 
01060060001000000          Governor                                                OVER VOTES                            PRECINCT 101                                           01 
01060060002000000          Governor                                                OVER VOTES                            PRECINCT 102                                           01 
01060060003000000          Governor                                                OVER VOTES                            PRECINCT 103                                           01 
01060060004000000          Governor                                                OVER VOTES                            PRECINCT 201                                           01 
01060060005000000          Governor                                                OVER VOTES                            PRECINCT 202                                           01 
01060060006000000          Governor                                                OVER VOTES                            PRECINCT 203                                           01 
01060060007000000          Governor                                                OVER VOTES                            PRECINCT 301                                           01 
01060060008000000          Governor                                                OVER VOTES                            PRECINCT 302                                           01 
01060060009000000          Governor                                                OVER VOTES                            PRECINCT 303                                           01 
01060060010000000          Governor                                                OVER VOTES                            PRECINCT 401                                           01 
01060060011000000          Governor                                                OVER VOTES                            PRECINCT 402                                           01 
01060070001000003          Governor                                                UNDER VOTES                           PRECINCT 101                                           01 
01060070002000000          Governor                                                UNDER VOTES                           PRECINCT 102                                           01 
01060070003000000          Governor                                                UNDER VOTES                           PRECINCT 103                                           01 
01060070004000014          Governor                                                UNDER VOTES                           PRECINCT 201                                           01 
01060070005000003          Governor                                                UNDER VOTES                           PRECINCT 202                                           01 
01060070006000001          Governor                                                UNDER VOTES                           PRECINCT 203                                           01 
01060070007000001          Governor                                                UNDER VOTES                           PRECINCT 301                                           01 
01060070008000002          Governor                                                UNDER VOTES                           PRECINCT 302                                           01 
01060070009000003          Governor                                                UNDER VOTES                           PRECINCT 303                                           01 
01060070010000002          Governor                                                UNDER VOTES                           PRECINCT 401                                           01 
01060070011000009          Governor                                                UNDER VOTES                           PRECINCT 402                                           01 
01070010001000326REP       Lieutenant Governor                                     Dan Patrick                           PRECINCT 101                                           01 
01070010002000027REP       Lieutenant Governor                                     Dan Patrick                           PRECINCT 102                                           01 
01070010003000105REP       Lieutenant Governor                                     Dan Patrick                           PRECINCT 103                                           01 
01070010004000458REP       Lieutenant Governor                                     Dan Patrick                           PRECINCT 201                                           01 
01070010005000081REP       Lieutenant Governor                                     Dan Patrick                           PRECINCT 202                                           01 
01070010006000087REP       Lieutenant Governor                                     Dan Patrick                           PRECINCT 203                                           01 
01070010007000066REP       Lieutenant Governor                                     Dan Patrick                           PRECINCT 301                                           01 
01070010008000287REP       Lieutenant Governor                                     Dan Patrick                           PRECINCT 302                                           01 
01070010009000392REP       Lieutenant Governor                                     Dan Patrick                           PRECINCT 303                                           01 
01070010010000439REP       Lieutenant Governor                                     Dan Patrick                           PRECINCT 401                                           01 
01070010011000383REP       Lieutenant Governor                                     Dan Patrick                           PRECINCT 402                                           01 
01070020001000073DEM       Lieutenant Governor                                     Leticia Van de Putte                  PRECINCT 101                                           01 
01070020002000025DEM       Lieutenant Governor                                     Leticia Van de Putte                  PRECINCT 102                                           01 
01070020003000048DEM       Lieutenant Governor                                     Leticia Van de Putte                  PRECINCT 103                                           01 
01070020004000145DEM       Lieutenant Governor                                     Leticia Van de Putte                  PRECINCT 201                                           01 
01070020005000022DEM       Lieutenant Governor                                     Leticia Van de Putte                  PRECINCT 202                                           01 
01070020006000015DEM       Lieutenant Governor                                     Leticia Van de Putte                  PRECINCT 203                                           01 
01070020007000012DEM       Lieutenant Governor                                     Leticia Van de Putte                  PRECINCT 301                                           01 
01070020008000022DEM       Lieutenant Governor                                     Leticia Van de Putte                  PRECINCT 302                                           01 
01070020009000059DEM       Lieutenant Governor                                     Leticia Van de Putte                  PRECINCT 303                                           01 
01070020010000042DEM       Lieutenant Governor                                     Leticia Van de Putte                  PRECINCT 401                                           01 
01070020011000093DEM       Lieutenant Governor                                     Leticia Van de Putte                  PRECINCT 402                                           01 
01070030001000004LIB       Lieutenant Governor                                     Robert D. Butler                      PRECINCT 101                                           01 
01070030002000001LIB       Lieutenant Governor                                     Robert D. Butler                      PRECINCT 102                                           01 
01070030003000005LIB       Lieutenant Governor                                     Robert D. Butler                      PRECINCT 103                                           01 
01070030004000017LIB       Lieutenant Governor                                     Robert D. Butler                      PRECINCT 201                                           01 
01070030005000005LIB       Lieutenant Governor                                     Robert D. Butler                      PRECINCT 202                                           01 
01070030006000002LIB       Lieutenant Governor                                     Robert D. Butler                      PRECINCT 203                                           01 
01070030007000003LIB       Lieutenant Governor                                     Robert D. Butler                      PRECINCT 301                                           01 
01070030008000007LIB       Lieutenant Governor                                     Robert D. Butler                      PRECINCT 302                                           01 
01070030009000014LIB       Lieutenant Governor                                     Robert D. Butler                      PRECINCT 303                                           01 
01070030010000011LIB       Lieutenant Governor                                     Robert D. Butler                      PRECINCT 401                                           01 
01070030011000016LIB       Lieutenant Governor                                     Robert D. Butler                      PRECINCT 402                                           01 
01070040001000001GRN       Lieutenant Governor                                     Chandrakantha Courtney                PRECINCT 101                                           01 
01070040002000000GRN       Lieutenant Governor                                     Chandrakantha Courtney                PRECINCT 102                                           01 
01070040003000000GRN       Lieutenant Governor                                     Chandrakantha Courtney                PRECINCT 103                                           01 
01070040004000004GRN       Lieutenant Governor                                     Chandrakantha Courtney                PRECINCT 201                                           01 
01070040005000000GRN       Lieutenant Governor                                     Chandrakantha Courtney                PRECINCT 202                                           01 
01070040006000000GRN       Lieutenant Governor                                     Chandrakantha Courtney                PRECINCT 203                                           01 
01070040007000000GRN       Lieutenant Governor                                     Chandrakantha Courtney                PRECINCT 301                                           01 
01070040008000001GRN       Lieutenant Governor                                     Chandrakantha Courtney                PRECINCT 302                                           01 
01070040009000003GRN       Lieutenant Governor                                     Chandrakantha Courtney                PRECINCT 303                                           01 
01070040010000000GRN       Lieutenant Governor                                     Chandrakantha Courtney                PRECINCT 401                                           01 
01070040011000003GRN       Lieutenant Governor                                     Chandrakantha Courtney                PRECINCT 402                                           01 
01070050001000000          Lieutenant Governor                                     OVER VOTES                            PRECINCT 101                                           01 
01070050002000000          Lieutenant Governor                                     OVER VOTES                            PRECINCT 102                                           01 
01070050003000000          Lieutenant Governor                                     OVER VOTES                            PRECINCT 103                                           01 
01070050004000000          Lieutenant Governor                                     OVER VOTES                            PRECINCT 201                                           01 
01070050005000000          Lieutenant Governor                                     OVER VOTES                            PRECINCT 202                                           01 
01070050006000000          Lieutenant Governor                                     OVER VOTES                            PRECINCT 203                                           01 
01070050007000000          Lieutenant Governor                                     OVER VOTES                            PRECINCT 301                                           01 
01070050008000000          Lieutenant Governor                                     OVER VOTES                            PRECINCT 302                                           01 
01070050009000000          Lieutenant Governor                                     OVER VOTES                            PRECINCT 303                                           01 
01070050010000000          Lieutenant Governor                                     OVER VOTES                            PRECINCT 401                                           01 
01070050011000000          Lieutenant Governor                                     OVER VOTES                            PRECINCT 402                                           01 
01070060001000006          Lieutenant Governor                                     UNDER VOTES                           PRECINCT 101                                           01 
01070060002000000          Lieutenant Governor                                     UNDER VOTES                           PRECINCT 102                                           01 
01070060003000002          Lieutenant Governor                                     UNDER VOTES                           PRECINCT 103                                           01 
01070060004000026          Lieutenant Governor                                     UNDER VOTES                           PRECINCT 201                                           01 
01070060005000006          Lieutenant Governor                                     UNDER VOTES                           PRECINCT 202                                           01 
01070060006000001          Lieutenant Governor                                     UNDER VOTES                           PRECINCT 203                                           01 
01070060007000001          Lieutenant Governor                                     UNDER VOTES                           PRECINCT 301                                           01 
01070060008000005          Lieutenant Governor                                     UNDER VOTES                           PRECINCT 302                                           01 
01070060009000008          Lieutenant Governor                                     UNDER VOTES                           PRECINCT 303                                           01 
01070060010000007          Lieutenant Governor                                     UNDER VOTES                           PRECINCT 401                                           01 
01070060011000013          Lieutenant Governor                                     UNDER VOTES                           PRECINCT 402                                           01 
01080010001000320REP       Attorney General                                        Ken Paxton                            PRECINCT 101                                           01 
01080010002000025REP       Attorney General                                        Ken Paxton                            PRECINCT 102                                           01 
01080010003000096REP       Attorney General                                        Ken Paxton                            PRECINCT 103                                           01 
01080010004000430REP       Attorney General                                        Ken Paxton                            PRECINCT 201                                           01 
01080010005000072REP       Attorney General                                        Ken Paxton                            PRECINCT 202                                           01 
01080010006000083REP       Attorney General                                        Ken Paxton                            PRECINCT 203                                           01 
01080010007000063REP       Attorney General                                        Ken Paxton                            PRECINCT 301                                           01 
01080010008000281REP       Attorney General                                        Ken Paxton                            PRECINCT 302                                           01 
01080010009000391REP       Attorney General                                        Ken Paxton                            PRECINCT 303                                           01 
01080010010000428REP       Attorney General                                        Ken Paxton                            PRECINCT 401                                           01 
01080010011000361REP       Attorney General                                        Ken Paxton                            PRECINCT 402                                           01 
01080020001000080DEM       Attorney General                                        Sam Houston                           PRECINCT 101                                           01 
01080020002000026DEM       Attorney General                                        Sam Houston                           PRECINCT 102                                           01 
01080020003000053DEM       Attorney General                                        Sam Houston                           PRECINCT 103                                           01 
01080020004000166DEM       Attorney General                                        Sam Houston                           PRECINCT 201                                           01 
01080020005000028DEM       Attorney General                                        Sam Houston                           PRECINCT 202                                           01 
01080020006000018DEM       Attorney General                                        Sam Houston                           PRECINCT 203                                           01 
01080020007000014DEM       Attorney General                                        Sam Houston                           PRECINCT 301                                           01 
01080020008000030DEM       Attorney General                                        Sam Houston                           PRECINCT 302                                           01 
01080020009000063DEM       Attorney General                                        Sam Houston                           PRECINCT 303                                           01 
01080020010000048DEM       Attorney General                                        Sam Houston                           PRECINCT 401                                           01 
01080020011000117DEM       Attorney General                                        Sam Houston                           PRECINCT 402                                           01 
01080030001000002LIB       Attorney General                                        Jamie Balagia                         PRECINCT 101                                           01 
01080030002000001LIB       Attorney General                                        Jamie Balagia                         PRECINCT 102                                           01 
01080030003000005LIB       Attorney General                                        Jamie Balagia                         PRECINCT 103                                           01 
01080030004000012LIB       Attorney General                                        Jamie Balagia                         PRECINCT 201                                           01 
01080030005000006LIB       Attorney General                                        Jamie Balagia                         PRECINCT 202                                           01 
01080030006000002LIB       Attorney General                                        Jamie Balagia                         PRECINCT 203                                           01 
01080030007000004LIB       Attorney General                                        Jamie Balagia                         PRECINCT 301                                           01 
01080030008000005LIB       Attorney General                                        Jamie Balagia                         PRECINCT 302                                           01 
01080030009000011LIB       Attorney General                                        Jamie Balagia                         PRECINCT 303                                           01 
01080030010000011LIB       Attorney General                                        Jamie Balagia                         PRECINCT 401                                           01 
01080030011000008LIB       Attorney General                                        Jamie Balagia                         PRECINCT 402                                           01 
01080040001000002GRN       Attorney General                                        Jamar Osborne                         PRECINCT 101                                           01 
01080040002000000GRN       Attorney General                                        Jamar Osborne                         PRECINCT 102                                           01 
01080040003000001GRN       Attorney General                                        Jamar Osborne                         PRECINCT 103                                           01 
01080040004000001GRN       Attorney General                                        Jamar Osborne                         PRECINCT 201                                           01 
01080040005000000GRN       Attorney General                                        Jamar Osborne                         PRECINCT 202                                           01 
01080040006000001GRN       Attorney General                                        Jamar Osborne                         PRECINCT 203                                           01 
01080040007000000GRN       Attorney General                                        Jamar Osborne                         PRECINCT 301                                           01 
01080040008000001GRN       Attorney General                                        Jamar Osborne                         PRECINCT 302                                           01 
01080040009000001GRN       Attorney General                                        Jamar Osborne                         PRECINCT 303                                           01 
01080040010000002GRN       Attorney General                                        Jamar Osborne                         PRECINCT 401                                           01 
01080040011000007GRN       Attorney General                                        Jamar Osborne                         PRECINCT 402                                           01 
01080050001000000          Attorney General                                        OVER VOTES                            PRECINCT 101                                           01 
01080050002000000          Attorney General                                        OVER VOTES                            PRECINCT 102                                           01 
01080050003000000          Attorney General                                        OVER VOTES                            PRECINCT 103                                           01 
01080050004000000          Attorney General                                        OVER VOTES                            PRECINCT 201                                           01 
01080050005000000          Attorney General                                        OVER VOTES                            PRECINCT 202                                           01 
01080050006000000          Attorney General                                        OVER VOTES                            PRECINCT 203                                           01 
01080050007000000          Attorney General                                        OVER VOTES                            PRECINCT 301                                           01 
01080050008000000          Attorney General                                        OVER VOTES                            PRECINCT 302                                           01 
01080050009000000          Attorney General                                        OVER VOTES                            PRECINCT 303                                           01 
01080050010000000          Attorney General                                        OVER VOTES                            PRECINCT 401                                           01 
01080050011000000          Attorney General                                        OVER VOTES                            PRECINCT 402                                           01 
01080060001000006          Attorney General                                        UNDER VOTES                           PRECINCT 101                                           01 
01080060002000001          Attorney General                                        UNDER VOTES                           PRECINCT 102                                           01 
01080060003000005          Attorney General                                        UNDER VOTES                           PRECINCT 103                                           01 
01080060004000041          Attorney General                                        UNDER VOTES                           PRECINCT 201                                           01 
01080060005000008          Attorney General                                        UNDER VOTES                           PRECINCT 202                                           01 
01080060006000001          Attorney General                                        UNDER VOTES                           PRECINCT 203                                           01 
01080060007000001          Attorney General                                        UNDER VOTES                           PRECINCT 301                                           01 
01080060008000005          Attorney General                                        UNDER VOTES                           PRECINCT 302                                           01 
01080060009000010          Attorney General                                        UNDER VOTES                           PRECINCT 303                                           01 
01080060010000010          Attorney General                                        UNDER VOTES                           PRECINCT 401                                           01 
01080060011000015          Attorney General                                        UNDER VOTES                           PRECINCT 402                                           01 
01090010001000319REP       Comptroller of Public Accounts                          Glenn Hegar                           PRECINCT 101                                           01 
01090010002000028REP       Comptroller of Public Accounts                          Glenn Hegar                           PRECINCT 102                                           01 
01090010003000097REP       Comptroller of Public Accounts                          Glenn Hegar                           PRECINCT 103                                           01 
01090010004000430REP       Comptroller of Public Accounts                          Glenn Hegar                           PRECINCT 201                                           01 
01090010005000073REP       Comptroller of Public Accounts                          Glenn Hegar                           PRECINCT 202                                           01 
01090010006000080REP       Comptroller of Public Accounts                          Glenn Hegar                           PRECINCT 203                                           01 
01090010007000065REP       Comptroller of Public Accounts                          Glenn Hegar                           PRECINCT 301                                           01 
01090010008000274REP       Comptroller of Public Accounts                          Glenn Hegar                           PRECINCT 302                                           01 
01090010009000378REP       Comptroller of Public Accounts                          Glenn Hegar                           PRECINCT 303                                           01 
01090010010000420REP       Comptroller of Public Accounts                          Glenn Hegar                           PRECINCT 401                                           01 
01090010011000354REP       Comptroller of Public Accounts                          Glenn Hegar                           PRECINCT 402                                           01 
01090020001000081DEM       Comptroller of Public Accounts                          Mike Collier                          PRECINCT 101                                           01 
01090020002000022DEM       Comptroller of Public Accounts                          Mike Collier                          PRECINCT 102                                           01 
01090020003000052DEM       Comptroller of Public Accounts                          Mike Collier                          PRECINCT 103                                           01 
01090020004000152DEM       Comptroller of Public Accounts                          Mike Collier                          PRECINCT 201                                           01 
01090020005000026DEM       Comptroller of Public Accounts                          Mike Collier                          PRECINCT 202                                           01 
01090020006000022DEM       Comptroller of Public Accounts                          Mike Collier                          PRECINCT 203                                           01 
01090020007000011DEM       Comptroller of Public Accounts                          Mike Collier                          PRECINCT 301                                           01 
01090020008000024DEM       Comptroller of Public Accounts                          Mike Collier                          PRECINCT 302                                           01 
01090020009000061DEM       Comptroller of Public Accounts                          Mike Collier                          PRECINCT 303                                           01 
01090020010000051DEM       Comptroller of Public Accounts                          Mike Collier                          PRECINCT 401                                           01 
01090020011000109DEM       Comptroller of Public Accounts                          Mike Collier                          PRECINCT 402                                           01 
01090030001000003LIB       Comptroller of Public Accounts                          Ben Sanders                           PRECINCT 101                                           01 
01090030002000002LIB       Comptroller of Public Accounts                          Ben Sanders                           PRECINCT 102                                           01 
01090030003000006LIB       Comptroller of Public Accounts                          Ben Sanders                           PRECINCT 103                                           01 
01090030004000018LIB       Comptroller of Public Accounts                          Ben Sanders                           PRECINCT 201                                           01 
01090030005000006LIB       Comptroller of Public Accounts                          Ben Sanders                           PRECINCT 202                                           01 
01090030006000001LIB       Comptroller of Public Accounts                          Ben Sanders                           PRECINCT 203                                           01 
01090030007000005LIB       Comptroller of Public Accounts                          Ben Sanders                           PRECINCT 301                                           01 
01090030008000014LIB       Comptroller of Public Accounts                          Ben Sanders                           PRECINCT 302                                           01 
01090030009000023LIB       Comptroller of Public Accounts                          Ben Sanders                           PRECINCT 303                                           01 
01090030010000016LIB       Comptroller of Public Accounts                          Ben Sanders                           PRECINCT 401                                           01 
01090030011000017LIB       Comptroller of Public Accounts                          Ben Sanders                           PRECINCT 402                                           01 
01090040001000001GRN       Comptroller of Public Accounts                          Deb Shafto                            PRECINCT 101                                           01 
01090040002000001GRN       Comptroller of Public Accounts                          Deb Shafto                            PRECINCT 102                                           01 
01090040003000000GRN       Comptroller of Public Accounts                          Deb Shafto                            PRECINCT 103                                           01 
01090040004000002GRN       Comptroller of Public Accounts                          Deb Shafto                            PRECINCT 201                                           01 
01090040005000000GRN       Comptroller of Public Accounts                          Deb Shafto                            PRECINCT 202                                           01 
01090040006000000GRN       Comptroller of Public Accounts                          Deb Shafto                            PRECINCT 203                                           01 
01090040007000000GRN       Comptroller of Public Accounts                          Deb Shafto                            PRECINCT 301                                           01 
01090040008000001GRN       Comptroller of Public Accounts                          Deb Shafto                            PRECINCT 302                                           01 
01090040009000004GRN       Comptroller of Public Accounts                          Deb Shafto                            PRECINCT 303                                           01 
01090040010000002GRN       Comptroller of Public Accounts                          Deb Shafto                            PRECINCT 401                                           01 
01090040011000004GRN       Comptroller of Public Accounts                          Deb Shafto                            PRECINCT 402                                           01 
01090050001000000          Comptroller of Public Accounts                          OVER VOTES                            PRECINCT 101                                           01 
01090050002000000          Comptroller of Public Accounts                          OVER VOTES                            PRECINCT 102                                           01 
01090050003000000          Comptroller of Public Accounts                          OVER VOTES                            PRECINCT 103                                           01 
01090050004000000          Comptroller of Public Accounts                          OVER VOTES                            PRECINCT 201                                           01 
01090050005000000          Comptroller of Public Accounts                          OVER VOTES                            PRECINCT 202                                           01 
01090050006000000          Comptroller of Public Accounts                          OVER VOTES                            PRECINCT 203                                           01 
01090050007000000          Comptroller of Public Accounts                          OVER VOTES                            PRECINCT 301                                           01 
01090050008000000          Comptroller of Public Accounts                          OVER VOTES                            PRECINCT 302                                           01 
01090050009000000          Comptroller of Public Accounts                          OVER VOTES                            PRECINCT 303                                           01 
01090050010000000          Comptroller of Public Accounts                          OVER VOTES                            PRECINCT 401                                           01 
01090050011000000          Comptroller of Public Accounts                          OVER VOTES                            PRECINCT 402                                           01 
01090060001000006          Comptroller of Public Accounts                          UNDER VOTES                           PRECINCT 101                                           01 
01090060002000000          Comptroller of Public Accounts                          UNDER VOTES                           PRECINCT 102                                           01 
01090060003000005          Comptroller of Public Accounts                          UNDER VOTES                           PRECINCT 103                                           01 
01090060004000048          Comptroller of Public Accounts                          UNDER VOTES                           PRECINCT 201                                           01 
01090060005000009          Comptroller of Public Accounts                          UNDER VOTES                           PRECINCT 202                                           01 
01090060006000002          Comptroller of Public Accounts                          UNDER VOTES                           PRECINCT 203                                           01 
01090060007000001          Comptroller of Public Accounts                          UNDER VOTES                           PRECINCT 301                                           01 
01090060008000009          Comptroller of Public Accounts                          UNDER VOTES                           PRECINCT 302                                           01 
01090060009000010          Comptroller of Public Accounts                          UNDER VOTES                           PRECINCT 303                                           01 
01090060010000010          Comptroller of Public Accounts                          UNDER VOTES                           PRECINCT 401                                           01 
01090060011000024          Comptroller of Public Accounts                          UNDER VOTES                           PRECINCT 402                                           01 
01100010001000329REP       Commissioner of the General Land Office                 George P. Bush                        PRECINCT 101                                           01 
01100010002000028REP       Commissioner of the General Land Office                 George P. Bush                        PRECINCT 102                                           01 
01100010003000093REP       Commissioner of the General Land Office                 George P. Bush                        PRECINCT 103                                           01 
01100010004000469REP       Commissioner of the General Land Office                 George P. Bush                        PRECINCT 201                                           01 
01100010005000077REP       Commissioner of the General Land Office                 George P. Bush                        PRECINCT 202                                           01 
01100010006000080REP       Commissioner of the General Land Office                 George P. Bush                        PRECINCT 203                                           01 
01100010007000065REP       Commissioner of the General Land Office                 George P. Bush                        PRECINCT 301                                           01 
01100010008000272REP       Commissioner of the General Land Office                 George P. Bush                        PRECINCT 302                                           01 
01100010009000379REP       Commissioner of the General Land Office                 George P. Bush                        PRECINCT 303                                           01 
01100010010000419REP       Commissioner of the General Land Office                 George P. Bush                        PRECINCT 401                                           01 
01100010011000370REP       Commissioner of the General Land Office                 George P. Bush                        PRECINCT 402                                           01 
01100020001000070DEM       Commissioner of the General Land Office                 John Cook                             PRECINCT 101                                           01 
01100020002000024DEM       Commissioner of the General Land Office                 John Cook                             PRECINCT 102                                           01 
01100020003000054DEM       Commissioner of the General Land Office                 John Cook                             PRECINCT 103                                           01 
01100020004000137DEM       Commissioner of the General Land Office                 John Cook                             PRECINCT 201                                           01 
01100020005000025DEM       Commissioner of the General Land Office                 John Cook                             PRECINCT 202                                           01 
01100020006000021DEM       Commissioner of the General Land Office                 John Cook                             PRECINCT 203                                           01 
01100020007000010DEM       Commissioner of the General Land Office                 John Cook                             PRECINCT 301                                           01 
01100020008000030DEM       Commissioner of the General Land Office                 John Cook                             PRECINCT 302                                           01 
01100020009000057DEM       Commissioner of the General Land Office                 John Cook                             PRECINCT 303                                           01 
01100020010000047DEM       Commissioner of the General Land Office                 John Cook                             PRECINCT 401                                           01 
01100020011000102DEM       Commissioner of the General Land Office                 John Cook                             PRECINCT 402                                           01 
01100030001000003LIB       Commissioner of the General Land Office                 Justin Knight                         PRECINCT 101                                           01 
01100030002000001LIB       Commissioner of the General Land Office                 Justin Knight                         PRECINCT 102                                           01 
01100030003000004LIB       Commissioner of the General Land Office                 Justin Knight                         PRECINCT 103                                           01 
01100030004000016LIB       Commissioner of the General Land Office                 Justin Knight                         PRECINCT 201                                           01 
01100030005000006LIB       Commissioner of the General Land Office                 Justin Knight                         PRECINCT 202                                           01 
01100030006000003LIB       Commissioner of the General Land Office                 Justin Knight                         PRECINCT 203                                           01 
01100030007000003LIB       Commissioner of the General Land Office                 Justin Knight                         PRECINCT 301                                           01 
01100030008000011LIB       Commissioner of the General Land Office                 Justin Knight                         PRECINCT 302                                           01 
01100030009000026LIB       Commissioner of the General Land Office                 Justin Knight                         PRECINCT 303                                           01 
01100030010000023LIB       Commissioner of the General Land Office                 Justin Knight                         PRECINCT 401                                           01 
01100030011000017LIB       Commissioner of the General Land Office                 Justin Knight                         PRECINCT 402                                           01 
01100040001000002GRN       Commissioner of the General Land Office                 Valerie Alessi                        PRECINCT 101                                           01 
01100040002000000GRN       Commissioner of the General Land Office                 Valerie Alessi                        PRECINCT 102                                           01 
01100040003000002GRN       Commissioner of the General Land Office                 Valerie Alessi                        PRECINCT 103                                           01 
01100040004000001GRN       Commissioner of the General Land Office                 Valerie Alessi                        PRECINCT 201                                           01 
01100040005000001GRN       Commissioner of the General Land Office                 Valerie Alessi                        PRECINCT 202                                           01 
01100040006000000GRN       Commissioner of the General Land Office                 Valerie Alessi                        PRECINCT 203                                           01 
01100040007000001GRN       Commissioner of the General Land Office                 Valerie Alessi                        PRECINCT 301                                           01 
01100040008000002GRN       Commissioner of the General Land Office                 Valerie Alessi                        PRECINCT 302                                           01 
01100040009000005GRN       Commissioner of the General Land Office                 Valerie Alessi                        PRECINCT 303                                           01 
01100040010000004GRN       Commissioner of the General Land Office                 Valerie Alessi                        PRECINCT 401                                           01 
01100040011000004GRN       Commissioner of the General Land Office                 Valerie Alessi                        PRECINCT 402                                           01 
01100050001000000          Commissioner of the General Land Office                 OVER VOTES                            PRECINCT 101                                           01 
01100050002000000          Commissioner of the General Land Office                 OVER VOTES                            PRECINCT 102                                           01 
