01010010001000176          REGISTERED VOTERS - TOTAL                               REGISTERED VOTERS - TOTAL             PRECINCT 1011                                          00 
01010010002001366          REGISTERED VOTERS - TOTAL                               REGISTERED VOTERS - TOTAL             PRECINCT 1013                                          00 
01010010003000655          REGISTERED VOTERS - TOTAL                               REGISTERED VOTERS - TOTAL             PRECINCT 1014                                          00 
01010010004002724          REGISTERED VOTERS - TOTAL                               REGISTERED VOTERS - TOTAL             PRECINCT 1110                                          00 
01010010005001473          REGISTERED VOTERS - TOTAL                               REGISTERED VOTERS - TOTAL             PRECINCT 1115                                          00 
01010010006000001          REGISTERED VOTERS - TOTAL                               REGISTERED VOTERS - TOTAL             PRECINCT 1130                                          00 
01010010007000004          REGISTERED VOTERS - TOTAL                               REGISTERED VOTERS - TOTAL             PRECINCT 1140                                          00 
01010010008000001          REGISTERED VOTERS - TOTAL                               REGISTERED VOTERS - TOTAL             PRECINCT 1150                                          00 
01010010009000005          REGISTERED VOTERS - TOTAL                               REGISTERED VOTERS - TOTAL             PRECINCT 1170                                          00 
01010010010000002          REGISTERED VOTERS - TOTAL                               REGISTERED VOTERS - TOTAL             PRECINCT 1180                                          00 
01010010011000037          REGISTERED VOTERS - TOTAL                               REGISTERED VOTERS - TOTAL             PRECINCT 1190                                          00 
01010010012000001          REGISTERED VOTERS - TOTAL                               REGISTERED VOTERS - TOTAL             PRECINCT 1200                                          00 
01010010013001891          REGISTERED VOTERS - TOTAL                               REGISTERED VOTERS - TOTAL             PRECINCT 2020                                          00 
01010010014002693          REGISTERED VOTERS - TOTAL                               REGISTERED VOTERS - TOTAL             PRECINCT 2080                                          00 
01010010015001407          REGISTERED VOTERS - TOTAL                               REGISTERED VOTERS - TOTAL             PRECINCT 2082                                          00 
01010010016000177          REGISTERED VOTERS - TOTAL                               REGISTERED VOTERS - TOTAL             PRECINCT 2084                                          00 
01010010017000136          REGISTERED VOTERS - TOTAL                               REGISTERED VOTERS - TOTAL             PRECINCT 2085                                          00 
01010010018001521          REGISTERED VOTERS - TOTAL                               REGISTERED VOTERS - TOTAL             PRECINCT 2120                                          00 
01010010019000072          REGISTERED VOTERS - TOTAL                               REGISTERED VOTERS - TOTAL             PRECINCT 2210                                          00 
01010010020002203          REGISTERED VOTERS - TOTAL                               REGISTERED VOTERS - TOTAL             PRECINCT 3030                                          00 
01010010021001261          REGISTERED VOTERS - TOTAL                               REGISTERED VOTERS - TOTAL             PRECINCT 3040                                          00 
01010010022001214          REGISTERED VOTERS - TOTAL                               REGISTERED VOTERS - TOTAL             PRECINCT 3041                                          00 
01010010023000499          REGISTERED VOTERS - TOTAL                               REGISTERED VOTERS - TOTAL             PRECINCT 3042                                          00 
01010010024000655          REGISTERED VOTERS - TOTAL                               REGISTERED VOTERS - TOTAL             PRECINCT 3044                                          00 
01010010025000543          REGISTERED VOTERS - TOTAL                               REGISTERED VOTERS - TOTAL             PRECINCT 3060                                          00 
01010010026000012          REGISTERED VOTERS - TOTAL                               REGISTERED VOTERS - TOTAL             PRECINCT 3220                                          00 
01010010027002541          REGISTERED VOTERS - TOTAL                               REGISTERED VOTERS - TOTAL             PRECINCT 4050                                          00 
01010010028000325          REGISTERED VOTERS - TOTAL                               REGISTERED VOTERS - TOTAL             PRECINCT 4070                                          00 
01010010029002498          REGISTERED VOTERS - TOTAL                               REGISTERED VOTERS - TOTAL             PRECINCT 4100                                          00 
01010010030000229          REGISTERED VOTERS - TOTAL                               REGISTERED VOTERS - TOTAL             PRECINCT 4101                                          00 
01010010031000337          REGISTERED VOTERS - TOTAL                               REGISTERED VOTERS - TOTAL             PRECINCT 4103                                          00 
01010010032000002          REGISTERED VOTERS - TOTAL                               REGISTERED VOTERS - TOTAL             PRECINCT 4230                                          00 
01010010033000008          REGISTERED VOTERS - TOTAL                               REGISTERED VOTERS - TOTAL             PRECINCT 4240                                          00 
01010010034000052          REGISTERED VOTERS - TOTAL                               REGISTERED VOTERS - TOTAL             PRECINCT 4250                                          00 
01020010001000080          BALLOTS CAST - TOTAL                                    BALLOTS CAST - TOTAL                  PRECINCT 1011                                          00 
01020010002000485          BALLOTS CAST - TOTAL                                    BALLOTS CAST - TOTAL                  PRECINCT 1013                                          00 
01020010003000256          BALLOTS CAST - TOTAL                                    BALLOTS CAST - TOTAL                  PRECINCT 1014                                          00 
01020010004001182          BALLOTS CAST - TOTAL                                    BALLOTS CAST - TOTAL                  PRECINCT 1110                                          00 
01020010005000655          BALLOTS CAST - TOTAL                                    BALLOTS CAST - TOTAL                  PRECINCT 1115                                          00 
01020010006000000          BALLOTS CAST - TOTAL                                    BALLOTS CAST - TOTAL                  PRECINCT 1130                                          00 
01020010007000000          BALLOTS CAST - TOTAL                                    BALLOTS CAST - TOTAL                  PRECINCT 1140                                          00 
01020010008000000          BALLOTS CAST - TOTAL                                    BALLOTS CAST - TOTAL                  PRECINCT 1150                                          00 
01020010009000000          BALLOTS CAST - TOTAL                                    BALLOTS CAST - TOTAL                  PRECINCT 1170                                          00 
01020010010000001          BALLOTS CAST - TOTAL                                    BALLOTS CAST - TOTAL                  PRECINCT 1180                                          00 
01020010011000015          BALLOTS CAST - TOTAL                                    BALLOTS CAST - TOTAL                  PRECINCT 1190                                          00 
01020010012000001          BALLOTS CAST - TOTAL                                    BALLOTS CAST - TOTAL                  PRECINCT 1200                                          00 
01020010013001002          BALLOTS CAST - TOTAL                                    BALLOTS CAST - TOTAL                  PRECINCT 2020                                          00 
01020010014001323          BALLOTS CAST - TOTAL                                    BALLOTS CAST - TOTAL                  PRECINCT 2080                                          00 
01020010015000552          BALLOTS CAST - TOTAL                                    BALLOTS CAST - TOTAL                  PRECINCT 2082                                          00 
01020010016000043          BALLOTS CAST - TOTAL                                    BALLOTS CAST - TOTAL                  PRECINCT 2084                                          00 
01020010017000052          BALLOTS CAST - TOTAL                                    BALLOTS CAST - TOTAL                  PRECINCT 2085                                          00 
01020010018000819          BALLOTS CAST - TOTAL                                    BALLOTS CAST - TOTAL                  PRECINCT 2120                                          00 
01020010019000034          BALLOTS CAST - TOTAL                                    BALLOTS CAST - TOTAL                  PRECINCT 2210                                          00 
01020010020001027          BALLOTS CAST - TOTAL                                    BALLOTS CAST - TOTAL                  PRECINCT 3030                                          00 
01020010021000513          BALLOTS CAST - TOTAL                                    BALLOTS CAST - TOTAL                  PRECINCT 3040                                          00 
01020010022000543          BALLOTS CAST - TOTAL                                    BALLOTS CAST - TOTAL                  PRECINCT 3041                                          00 
01020010023000215          BALLOTS CAST - TOTAL                                    BALLOTS CAST - TOTAL                  PRECINCT 3042                                          00 
01020010024000223          BALLOTS CAST - TOTAL                                    BALLOTS CAST - TOTAL                  PRECINCT 3044                                          00 
01020010025000269          BALLOTS CAST - TOTAL                                    BALLOTS CAST - TOTAL                  PRECINCT 3060                                          00 
01020010026000004          BALLOTS CAST - TOTAL                                    BALLOTS CAST - TOTAL                  PRECINCT 3220                                          00 
01020010027001048          BALLOTS CAST - TOTAL                                    BALLOTS CAST - TOTAL                  PRECINCT 4050                                          00 
01020010028000158          BALLOTS CAST - TOTAL                                    BALLOTS CAST - TOTAL                  PRECINCT 4070                                          00 
01020010029001214          BALLOTS CAST - TOTAL                                    BALLOTS CAST - TOTAL                  PRECINCT 4100                                          00 
01020010030000097          BALLOTS CAST - TOTAL                                    BALLOTS CAST - TOTAL                  PRECINCT 4101                                          00 
01020010031000102          BALLOTS CAST - TOTAL                                    BALLOTS CAST - TOTAL                  PRECINCT 4103                                          00 
01020010032000002          BALLOTS CAST - TOTAL                                    BALLOTS CAST - TOTAL                  PRECINCT 4230                                          00 
01020010033000004          BALLOTS CAST - TOTAL                                    BALLOTS CAST - TOTAL                  PRECINCT 4240                                          00 
01020010034000026          BALLOTS CAST - TOTAL                                    BALLOTS CAST - TOTAL                  PRECINCT 4250                                          00 
01030010001000036REP       STRAIGHT PARTY                                          REPUBLICAN PARTY                      PRECINCT 1011                                          01 
01030010002000230REP       STRAIGHT PARTY                                          REPUBLICAN PARTY                      PRECINCT 1013                                          01 
01030010003000107REP       STRAIGHT PARTY                                          REPUBLICAN PARTY                      PRECINCT 1014                                          01 
01030010004000594REP       STRAIGHT PARTY                                          REPUBLICAN PARTY                      PRECINCT 1110                                          01 
01030010005000357REP       STRAIGHT PARTY                                          REPUBLICAN PARTY                      PRECINCT 1115                                          01 
01030010006000000REP       STRAIGHT PARTY                                          REPUBLICAN PARTY                      PRECINCT 1130                                          01 
01030010007000000REP       STRAIGHT PARTY                                          REPUBLICAN PARTY                      PRECINCT 1140                                          01 
01030010008000000REP       STRAIGHT PARTY                                          REPUBLICAN PARTY                      PRECINCT 1150                                          01 
01030010009000000REP       STRAIGHT PARTY                                          REPUBLICAN PARTY                      PRECINCT 1170                                          01 
01030010010000000REP       STRAIGHT PARTY                                          REPUBLICAN PARTY                      PRECINCT 1180                                          01 
01030010011000005REP       STRAIGHT PARTY                                          REPUBLICAN PARTY                      PRECINCT 1190                                          01 
01030010012000000REP       STRAIGHT PARTY                                          REPUBLICAN PARTY                      PRECINCT 1200                                          01 
01030010013000541REP       STRAIGHT PARTY                                          REPUBLICAN PARTY                      PRECINCT 2020                                          01 
01030010014000676REP       STRAIGHT PARTY                                          REPUBLICAN PARTY                      PRECINCT 2080                                          01 
01030010015000290REP       STRAIGHT PARTY                                          REPUBLICAN PARTY                      PRECINCT 2082                                          01 
01030010016000024REP       STRAIGHT PARTY                                          REPUBLICAN PARTY                      PRECINCT 2084                                          01 
01030010017000026REP       STRAIGHT PARTY                                          REPUBLICAN PARTY                      PRECINCT 2085                                          01 
01030010018000429REP       STRAIGHT PARTY                                          REPUBLICAN PARTY                      PRECINCT 2120                                          01 
01030010019000016REP       STRAIGHT PARTY                                          REPUBLICAN PARTY                      PRECINCT 2210                                          01 
01030010020000516REP       STRAIGHT PARTY                                          REPUBLICAN PARTY                      PRECINCT 3030                                          01 
01030010021000272REP       STRAIGHT PARTY                                          REPUBLICAN PARTY                      PRECINCT 3040                                          01 
01030010022000291REP       STRAIGHT PARTY                                          REPUBLICAN PARTY                      PRECINCT 3041                                          01 
01030010023000113REP       STRAIGHT PARTY                                          REPUBLICAN PARTY                      PRECINCT 3042                                          01 
01030010024000099REP       STRAIGHT PARTY                                          REPUBLICAN PARTY                      PRECINCT 3044                                          01 
01030010025000141REP       STRAIGHT PARTY                                          REPUBLICAN PARTY                      PRECINCT 3060                                          01 
01030010026000003REP       STRAIGHT PARTY                                          REPUBLICAN PARTY                      PRECINCT 3220                                          01 
01030010027000459REP       STRAIGHT PARTY                                          REPUBLICAN PARTY                      PRECINCT 4050                                          01 
01030010028000079REP       STRAIGHT PARTY                                          REPUBLICAN PARTY                      PRECINCT 4070                                          01 
01030010029000585REP       STRAIGHT PARTY                                          REPUBLICAN PARTY                      PRECINCT 4100                                          01 
01030010030000044REP       STRAIGHT PARTY                                          REPUBLICAN PARTY                      PRECINCT 4101                                          01 
01030010031000052REP       STRAIGHT PARTY                                          REPUBLICAN PARTY                      PRECINCT 4103                                          01 
01030010032000001REP       STRAIGHT PARTY                                          REPUBLICAN PARTY                      PRECINCT 4230                                          01 
01030010033000001REP       STRAIGHT PARTY                                          REPUBLICAN PARTY                      PRECINCT 4240                                          01 
01030010034000013REP       STRAIGHT PARTY                                          REPUBLICAN PARTY                      PRECINCT 4250                                          01 
01030020001000003DEM       STRAIGHT PARTY                                          DEMOCRATIC PARTY                      PRECINCT 1011                                          01 
01030020002000048DEM       STRAIGHT PARTY                                          DEMOCRATIC PARTY                      PRECINCT 1013                                          01 
01030020003000036DEM       STRAIGHT PARTY                                          DEMOCRATIC PARTY                      PRECINCT 1014                                          01 
01030020004000053DEM       STRAIGHT PARTY                                          DEMOCRATIC PARTY                      PRECINCT 1110                                          01 
01030020005000042DEM       STRAIGHT PARTY                                          DEMOCRATIC PARTY                      PRECINCT 1115                                          01 
01030020006000000DEM       STRAIGHT PARTY                                          DEMOCRATIC PARTY                      PRECINCT 1130                                          01 
01030020007000000DEM       STRAIGHT PARTY                                          DEMOCRATIC PARTY                      PRECINCT 1140                                          01 
01030020008000000DEM       STRAIGHT PARTY                                          DEMOCRATIC PARTY                      PRECINCT 1150                                          01 
01030020009000000DEM       STRAIGHT PARTY                                          DEMOCRATIC PARTY                      PRECINCT 1170                                          01 
01030020010000000DEM       STRAIGHT PARTY                                          DEMOCRATIC PARTY                      PRECINCT 1180                                          01 
01030020011000003DEM       STRAIGHT PARTY                                          DEMOCRATIC PARTY                      PRECINCT 1190                                          01 
01030020012000000DEM       STRAIGHT PARTY                                          DEMOCRATIC PARTY                      PRECINCT 1200                                          01 
01030020013000043DEM       STRAIGHT PARTY                                          DEMOCRATIC PARTY                      PRECINCT 2020                                          01 
01030020014000066DEM       STRAIGHT PARTY                                          DEMOCRATIC PARTY                      PRECINCT 2080                                          01 
01030020015000037DEM       STRAIGHT PARTY                                          DEMOCRATIC PARTY                      PRECINCT 2082                                          01 
01030020016000001DEM       STRAIGHT PARTY                                          DEMOCRATIC PARTY                      PRECINCT 2084                                          01 
01030020017000004DEM       STRAIGHT PARTY                                          DEMOCRATIC PARTY                      PRECINCT 2085                                          01 
01030020018000045DEM       STRAIGHT PARTY                                          DEMOCRATIC PARTY                      PRECINCT 2120                                          01 
01030020019000003DEM       STRAIGHT PARTY                                          DEMOCRATIC PARTY                      PRECINCT 2210                                          01 
01030020020000037DEM       STRAIGHT PARTY                                          DEMOCRATIC PARTY                      PRECINCT 3030                                          01 
01030020021000032DEM       STRAIGHT PARTY                                          DEMOCRATIC PARTY                      PRECINCT 3040                                          01 
01030020022000024DEM       STRAIGHT PARTY                                          DEMOCRATIC PARTY                      PRECINCT 3041                                          01 
01030020023000016DEM       STRAIGHT PARTY                                          DEMOCRATIC PARTY                      PRECINCT 3042                                          01 
01030020024000025DEM       STRAIGHT PARTY                                          DEMOCRATIC PARTY                      PRECINCT 3044                                          01 
01030020025000014DEM       STRAIGHT PARTY                                          DEMOCRATIC PARTY                      PRECINCT 3060                                          01 
01030020026000000DEM       STRAIGHT PARTY                                          DEMOCRATIC PARTY                      PRECINCT 3220                                          01 
01030020027000062DEM       STRAIGHT PARTY                                          DEMOCRATIC PARTY                      PRECINCT 4050                                          01 
01030020028000012DEM       STRAIGHT PARTY                                          DEMOCRATIC PARTY                      PRECINCT 4070                                          01 
01030020029000074DEM       STRAIGHT PARTY                                          DEMOCRATIC PARTY                      PRECINCT 4100                                          01 
01030020030000007DEM       STRAIGHT PARTY                                          DEMOCRATIC PARTY                      PRECINCT 4101                                          01 
01030020031000011DEM       STRAIGHT PARTY                                          DEMOCRATIC PARTY                      PRECINCT 4103                                          01 
01030020032000000DEM       STRAIGHT PARTY                                          DEMOCRATIC PARTY                      PRECINCT 4230                                          01 
01030020033000000DEM       STRAIGHT PARTY                                          DEMOCRATIC PARTY                      PRECINCT 4240                                          01 
01030020034000001DEM       STRAIGHT PARTY                                          DEMOCRATIC PARTY                      PRECINCT 4250                                          01 
01030030001000001LIB       STRAIGHT PARTY                                          LIBERTARIAN PARTY                     PRECINCT 1011                                          01 
01030030002000000LIB       STRAIGHT PARTY                                          LIBERTARIAN PARTY                     PRECINCT 1013                                          01 
01030030003000005LIB       STRAIGHT PARTY                                          LIBERTARIAN PARTY                     PRECINCT 1014                                          01 
01030030004000007LIB       STRAIGHT PARTY                                          LIBERTARIAN PARTY                     PRECINCT 1110                                          01 
01030030005000003LIB       STRAIGHT PARTY                                          LIBERTARIAN PARTY                     PRECINCT 1115                                          01 
01030030006000000LIB       STRAIGHT PARTY                                          LIBERTARIAN PARTY                     PRECINCT 1130                                          01 
01030030007000000LIB       STRAIGHT PARTY                                          LIBERTARIAN PARTY                     PRECINCT 1140                                          01 
01030030008000000LIB       STRAIGHT PARTY                                          LIBERTARIAN PARTY                     PRECINCT 1150                                          01 
01030030009000000LIB       STRAIGHT PARTY                                          LIBERTARIAN PARTY                     PRECINCT 1170                                          01 
01030030010000000LIB       STRAIGHT PARTY                                          LIBERTARIAN PARTY                     PRECINCT 1180                                          01 
01030030011000000LIB       STRAIGHT PARTY                                          LIBERTARIAN PARTY                     PRECINCT 1190                                          01 
01030030012000000LIB       STRAIGHT PARTY                                          LIBERTARIAN PARTY                     PRECINCT 1200                                          01 
01030030013000004LIB       STRAIGHT PARTY                                          LIBERTARIAN PARTY                     PRECINCT 2020                                          01 
01030030014000006LIB       STRAIGHT PARTY                                          LIBERTARIAN PARTY                     PRECINCT 2080                                          01 
01030030015000004LIB       STRAIGHT PARTY                                          LIBERTARIAN PARTY                     PRECINCT 2082                                          01 
01030030016000000LIB       STRAIGHT PARTY                                          LIBERTARIAN PARTY                     PRECINCT 2084                                          01 
01030030017000000LIB       STRAIGHT PARTY                                          LIBERTARIAN PARTY                     PRECINCT 2085                                          01 
01030030018000003LIB       STRAIGHT PARTY                                          LIBERTARIAN PARTY                     PRECINCT 2120                                          01 
01030030019000001LIB       STRAIGHT PARTY                                          LIBERTARIAN PARTY                     PRECINCT 2210                                          01 
01030030020000000LIB       STRAIGHT PARTY                                          LIBERTARIAN PARTY                     PRECINCT 3030                                          01 
01030030021000002LIB       STRAIGHT PARTY                                          LIBERTARIAN PARTY                     PRECINCT 3040                                          01 
01030030022000000LIB       STRAIGHT PARTY                                          LIBERTARIAN PARTY                     PRECINCT 3041                                          01 
01030030023000000LIB       STRAIGHT PARTY                                          LIBERTARIAN PARTY                     PRECINCT 3042                                          01 
01030030024000002LIB       STRAIGHT PARTY                                          LIBERTARIAN PARTY                     PRECINCT 3044                                          01 
01030030025000000LIB       STRAIGHT PARTY                                          LIBERTARIAN PARTY                     PRECINCT 3060                                          01 
01030030026000000LIB       STRAIGHT PARTY                                          LIBERTARIAN PARTY                     PRECINCT 3220                                          01 
01030030027000004LIB       STRAIGHT PARTY                                          LIBERTARIAN PARTY                     PRECINCT 4050                                          01 
01030030028000000LIB       STRAIGHT PARTY                                          LIBERTARIAN PARTY                     PRECINCT 4070                                          01 
01030030029000005LIB       STRAIGHT PARTY                                          LIBERTARIAN PARTY                     PRECINCT 4100                                          01 
01030030030000000LIB       STRAIGHT PARTY                                          LIBERTARIAN PARTY                     PRECINCT 4101                                          01 
01030030031000001LIB       STRAIGHT PARTY                                          LIBERTARIAN PARTY                     PRECINCT 4103                                          01 
01030030032000000LIB       STRAIGHT PARTY                                          LIBERTARIAN PARTY                     PRECINCT 4230                                          01 
01030030033000000LIB       STRAIGHT PARTY                                          LIBERTARIAN PARTY                     PRECINCT 4240                                          01 
01030030034000000LIB       STRAIGHT PARTY                                          LIBERTARIAN PARTY                     PRECINCT 4250                                          01 
01030040001000000GRN       STRAIGHT PARTY                                          GREEN PARTY                           PRECINCT 1011                                          01 
01030040002000000GRN       STRAIGHT PARTY                                          GREEN PARTY                           PRECINCT 1013                                          01 
01030040003000000GRN       STRAIGHT PARTY                                          GREEN PARTY                           PRECINCT 1014                                          01 
01030040004000002GRN       STRAIGHT PARTY                                          GREEN PARTY                           PRECINCT 1110                                          01 
01030040005000000GRN       STRAIGHT PARTY                                          GREEN PARTY                           PRECINCT 1115                                          01 
01030040006000000GRN       STRAIGHT PARTY                                          GREEN PARTY                           PRECINCT 1130                                          01 
01030040007000000GRN       STRAIGHT PARTY                                          GREEN PARTY                           PRECINCT 1140                                          01 
01030040008000000GRN       STRAIGHT PARTY                                          GREEN PARTY                           PRECINCT 1150                                          01 
01030040009000000GRN       STRAIGHT PARTY                                          GREEN PARTY                           PRECINCT 1170                                          01 
01030040010000000GRN       STRAIGHT PARTY                                          GREEN PARTY                           PRECINCT 1180                                          01 
01030040011000000GRN       STRAIGHT PARTY                                          GREEN PARTY                           PRECINCT 1190                                          01 
01030040012000000GRN       STRAIGHT PARTY                                          GREEN PARTY                           PRECINCT 1200                                          01 
01030040013000001GRN       STRAIGHT PARTY                                          GREEN PARTY                           PRECINCT 2020                                          01 
01030040014000000GRN       STRAIGHT PARTY                                          GREEN PARTY                           PRECINCT 2080                                          01 
01030040015000001GRN       STRAIGHT PARTY                                          GREEN PARTY                           PRECINCT 2082                                          01 
01030040016000000GRN       STRAIGHT PARTY                                          GREEN PARTY                           PRECINCT 2084                                          01 
01030040017000000GRN       STRAIGHT PARTY                                          GREEN PARTY                           PRECINCT 2085                                          01 
01030040018000001GRN       STRAIGHT PARTY                                          GREEN PARTY                           PRECINCT 2120                                          01 
01030040019000000GRN       STRAIGHT PARTY                                          GREEN PARTY                           PRECINCT 2210                                          01 
01030040020000000GRN       STRAIGHT PARTY                                          GREEN PARTY                           PRECINCT 3030                                          01 
01030040021000000GRN       STRAIGHT PARTY                                          GREEN PARTY                           PRECINCT 3040                                          01 
01030040022000001GRN       STRAIGHT PARTY                                          GREEN PARTY                           PRECINCT 3041                                          01 
01030040023000000GRN       STRAIGHT PARTY                                          GREEN PARTY                           PRECINCT 3042                                          01 
01030040024000001GRN       STRAIGHT PARTY                                          GREEN PARTY                           PRECINCT 3044                                          01 
01030040025000000GRN       STRAIGHT PARTY                                          GREEN PARTY                           PRECINCT 3060                                          01 
01030040026000000GRN       STRAIGHT PARTY                                          GREEN PARTY                           PRECINCT 3220                                          01 
01030040027000003GRN       STRAIGHT PARTY                                          GREEN PARTY                           PRECINCT 4050                                          01 
01030040028000000GRN       STRAIGHT PARTY                                          GREEN PARTY                           PRECINCT 4070                                          01 
01030040029000000GRN       STRAIGHT PARTY                                          GREEN PARTY                           PRECINCT 4100                                          01 
01030040030000000GRN       STRAIGHT PARTY                                          GREEN PARTY                           PRECINCT 4101                                          01 
01030040031000000GRN       STRAIGHT PARTY                                          GREEN PARTY                           PRECINCT 4103                                          01 
01030040032000000GRN       STRAIGHT PARTY                                          GREEN PARTY                           PRECINCT 4230                                          01 
01030040033000000GRN       STRAIGHT PARTY                                          GREEN PARTY                           PRECINCT 4240                                          01 
01030040034000000GRN       STRAIGHT PARTY                                          GREEN PARTY                           PRECINCT 4250                                          01 
01030050001000000          STRAIGHT PARTY                                          OVER VOTES                            PRECINCT 1011                                          01 
01030050002000000          STRAIGHT PARTY                                          OVER VOTES                            PRECINCT 1013                                          01 
01030050003000000          STRAIGHT PARTY                                          OVER VOTES                            PRECINCT 1014                                          01 
01030050004000000          STRAIGHT PARTY                                          OVER VOTES                            PRECINCT 1110                                          01 
01030050005000000          STRAIGHT PARTY                                          OVER VOTES                            PRECINCT 1115                                          01 
01030050006000000          STRAIGHT PARTY                                          OVER VOTES                            PRECINCT 1130                                          01 
01030050007000000          STRAIGHT PARTY                                          OVER VOTES                            PRECINCT 1140                                          01 
01030050008000000          STRAIGHT PARTY                                          OVER VOTES                            PRECINCT 1150                                          01 
01030050009000000          STRAIGHT PARTY                                          OVER VOTES                            PRECINCT 1170                                          01 
01030050010000000          STRAIGHT PARTY                                          OVER VOTES                            PRECINCT 1180                                          01 
01030050011000000          STRAIGHT PARTY                                          OVER VOTES                            PRECINCT 1190                                          01 
01030050012000000          STRAIGHT PARTY                                          OVER VOTES                            PRECINCT 1200                                          01 
01030050013000000          STRAIGHT PARTY                                          OVER VOTES                            PRECINCT 2020                                          01 
01030050014000000          STRAIGHT PARTY                                          OVER VOTES                            PRECINCT 2080                                          01 
01030050015000000          STRAIGHT PARTY                                          OVER VOTES                            PRECINCT 2082                                          01 
01030050016000000          STRAIGHT PARTY                                          OVER VOTES                            PRECINCT 2084                                          01 
01030050017000000          STRAIGHT PARTY                                          OVER VOTES                            PRECINCT 2085                                          01 
01030050018000000          STRAIGHT PARTY                                          OVER VOTES                            PRECINCT 2120                                          01 
01030050019000000          STRAIGHT PARTY                                          OVER VOTES                            PRECINCT 2210                                          01 
01030050020000000          STRAIGHT PARTY                                          OVER VOTES                            PRECINCT 3030                                          01 
01030050021000000          STRAIGHT PARTY                                          OVER VOTES                            PRECINCT 3040                                          01 
01030050022000000          STRAIGHT PARTY                                          OVER VOTES                            PRECINCT 3041                                          01 
01030050023000000          STRAIGHT PARTY                                          OVER VOTES                            PRECINCT 3042                                          01 
01030050024000000          STRAIGHT PARTY                                          OVER VOTES                            PRECINCT 3044                                          01 
01030050025000000          STRAIGHT PARTY                                          OVER VOTES                            PRECINCT 3060                                          01 
01030050026000000          STRAIGHT PARTY                                          OVER VOTES                            PRECINCT 3220                                          01 
01030050027000000          STRAIGHT PARTY                                          OVER VOTES                            PRECINCT 4050                                          01 
01030050028000000          STRAIGHT PARTY                                          OVER VOTES                            PRECINCT 4070                                          01 
01030050029000000          STRAIGHT PARTY                                          OVER VOTES                            PRECINCT 4100                                          01 
01030050030000000          STRAIGHT PARTY                                          OVER VOTES                            PRECINCT 4101                                          01 
01030050031000000          STRAIGHT PARTY                                          OVER VOTES                            PRECINCT 4103                                          01 
01030050032000000          STRAIGHT PARTY                                          OVER VOTES                            PRECINCT 4230                                          01 
01030050033000000          STRAIGHT PARTY                                          OVER VOTES                            PRECINCT 4240                                          01 
01030050034000000          STRAIGHT PARTY                                          OVER VOTES                            PRECINCT 4250                                          01 
01030060001000040          STRAIGHT PARTY                                          UNDER VOTES                           PRECINCT 1011                                          01 
01030060002000207          STRAIGHT PARTY                                          UNDER VOTES                           PRECINCT 1013                                          01 
01030060003000108          STRAIGHT PARTY                                          UNDER VOTES                           PRECINCT 1014                                          01 
01030060004000526          STRAIGHT PARTY                                          UNDER VOTES                           PRECINCT 1110                                          01 
01030060005000253          STRAIGHT PARTY                                          UNDER VOTES                           PRECINCT 1115                                          01 
01030060006000000          STRAIGHT PARTY                                          UNDER VOTES                           PRECINCT 1130                                          01 
01030060007000000          STRAIGHT PARTY                                          UNDER VOTES                           PRECINCT 1140                                          01 
01030060008000000          STRAIGHT PARTY                                          UNDER VOTES                           PRECINCT 1150                                          01 
01030060009000000          STRAIGHT PARTY                                          UNDER VOTES                           PRECINCT 1170                                          01 
01030060010000001          STRAIGHT PARTY                                          UNDER VOTES                           PRECINCT 1180                                          01 
01030060011000007          STRAIGHT PARTY                                          UNDER VOTES                           PRECINCT 1190                                          01 
01030060012000001          STRAIGHT PARTY                                          UNDER VOTES                           PRECINCT 1200                                          01 
01030060013000413          STRAIGHT PARTY                                          UNDER VOTES                           PRECINCT 2020                                          01 
01030060014000575          STRAIGHT PARTY                                          UNDER VOTES                           PRECINCT 2080                                          01 
01030060015000220          STRAIGHT PARTY                                          UNDER VOTES                           PRECINCT 2082                                          01 
01030060016000018          STRAIGHT PARTY                                          UNDER VOTES                           PRECINCT 2084                                          01 
01030060017000022          STRAIGHT PARTY                                          UNDER VOTES                           PRECINCT 2085                                          01 
01030060018000341          STRAIGHT PARTY                                          UNDER VOTES                           PRECINCT 2120                                          01 
01030060019000014          STRAIGHT PARTY                                          UNDER VOTES                           PRECINCT 2210                                          01 
01030060020000474          STRAIGHT PARTY                                          UNDER VOTES                           PRECINCT 3030                                          01 
01030060021000207          STRAIGHT PARTY                                          UNDER VOTES                           PRECINCT 3040                                          01 
01030060022000227          STRAIGHT PARTY                                          UNDER VOTES                           PRECINCT 3041                                          01 
01030060023000086          STRAIGHT PARTY                                          UNDER VOTES                           PRECINCT 3042                                          01 
01030060024000096          STRAIGHT PARTY                                          UNDER VOTES                           PRECINCT 3044                                          01 
01030060025000114          STRAIGHT PARTY                                          UNDER VOTES                           PRECINCT 3060                                          01 
01030060026000001          STRAIGHT PARTY                                          UNDER VOTES                           PRECINCT 3220                                          01 
01030060027000520          STRAIGHT PARTY                                          UNDER VOTES                           PRECINCT 4050                                          01 
01030060028000067          STRAIGHT PARTY                                          UNDER VOTES                           PRECINCT 4070                                          01 
01030060029000550          STRAIGHT PARTY                                          UNDER VOTES                           PRECINCT 4100                                          01 
01030060030000046          STRAIGHT PARTY                                          UNDER VOTES                           PRECINCT 4101                                          01 
01030060031000038          STRAIGHT PARTY                                          UNDER VOTES                           PRECINCT 4103                                          01 
01030060032000001          STRAIGHT PARTY                                          UNDER VOTES                           PRECINCT 4230                                          01 
01030060033000003          STRAIGHT PARTY                                          UNDER VOTES                           PRECINCT 4240                                          01 
01030060034000012          STRAIGHT PARTY                                          UNDER VOTES                           PRECINCT 4250                                          01 
01040010001000069REP       United States Senator                                   John Cornyn                           PRECINCT 1011                                          01 
01040010002000374REP       United States Senator                                   John Cornyn                           PRECINCT 1013                                          01 
01040010003000186REP       United States Senator                                   John Cornyn                           PRECINCT 1014                                          01 
01040010004000960REP       United States Senator                                   John Cornyn                           PRECINCT 1110                                          01 
01040010005000545REP       United States Senator                                   John Cornyn                           PRECINCT 1115                                          01 
01040010006000000REP       United States Senator                                   John Cornyn                           PRECINCT 1130                                          01 
01040010007000000REP       United States Senator                                   John Cornyn                           PRECINCT 1140                                          01 
01040010008000000REP       United States Senator                                   John Cornyn                           PRECINCT 1150                                          01 
01040010009000000REP       United States Senator                                   John Cornyn                           PRECINCT 1170                                          01 
01040010010000000REP       United States Senator                                   John Cornyn                           PRECINCT 1180                                          01 
01040010011000011REP       United States Senator                                   John Cornyn                           PRECINCT 1190                                          01 
01040010012000001REP       United States Senator                                   John Cornyn                           PRECINCT 1200                                          01 
01040010013000880REP       United States Senator                                   John Cornyn                           PRECINCT 2020                                          01 
01040010014001141REP       United States Senator                                   John Cornyn                           PRECINCT 2080                                          01 
01040010015000453REP       United States Senator                                   John Cornyn                           PRECINCT 2082                                          01 
01040010016000032REP       United States Senator                                   John Cornyn                           PRECINCT 2084                                          01 
01040010017000036REP       United States Senator                                   John Cornyn                           PRECINCT 2085                                          01 
01040010018000686REP       United States Senator                                   John Cornyn                           PRECINCT 2120                                          01 
01040010019000022REP       United States Senator                                   John Cornyn                           PRECINCT 2210                                          01 
01040010020000872REP       United States Senator                                   John Cornyn                           PRECINCT 3030                                          01 
01040010021000429REP       United States Senator                                   John Cornyn                           PRECINCT 3040                                          01 
01040010022000470REP       United States Senator                                   John Cornyn                           PRECINCT 3041                                          01 
01040010023000173REP       United States Senator                                   John Cornyn                           PRECINCT 3042                                          01 
01040010024000165REP       United States Senator                                   John Cornyn                           PRECINCT 3044                                          01 
01040010025000223REP       United States Senator                                   John Cornyn                           PRECINCT 3060                                          01 
01040010026000004REP       United States Senator                                   John Cornyn                           PRECINCT 3220                                          01 
01040010027000829REP       United States Senator                                   John Cornyn                           PRECINCT 4050                                          01 
01040010028000132REP       United States Senator                                   John Cornyn                           PRECINCT 4070                                          01 
01040010029000984REP       United States Senator                                   John Cornyn                           PRECINCT 4100                                          01 
01040010030000075REP       United States Senator                                   John Cornyn                           PRECINCT 4101                                          01 
01040010031000074REP       United States Senator                                   John Cornyn                           PRECINCT 4103                                          01 
01040010032000002REP       United States Senator                                   John Cornyn                           PRECINCT 4230                                          01 
01040010033000004REP       United States Senator                                   John Cornyn                           PRECINCT 4240                                          01 
01040010034000022REP       United States Senator                                   John Cornyn                           PRECINCT 4250                                          01 
01040020001000009DEM       United States Senator                                   David M. Alameel                      PRECINCT 1011                                          01 
01040020002000084DEM       United States Senator                                   David M. Alameel                      PRECINCT 1013                                          01 
01040020003000056DEM       United States Senator                                   David M. Alameel                      PRECINCT 1014                                          01 
01040020004000136DEM       United States Senator                                   David M. Alameel                      PRECINCT 1110                                          01 
01040020005000082DEM       United States Senator                                   David M. Alameel                      PRECINCT 1115                                          01 
01040020006000000DEM       United States Senator                                   David M. Alameel                      PRECINCT 1130                                          01 
01040020007000000DEM       United States Senator                                   David M. Alameel                      PRECINCT 1140                                          01 
01040020008000000DEM       United States Senator                                   David M. Alameel                      PRECINCT 1150                                          01 
01040020009000000DEM       United States Senator                                   David M. Alameel                      PRECINCT 1170                                          01 
01040020010000001DEM       United States Senator                                   David M. Alameel                      PRECINCT 1180                                          01 
01040020011000004DEM       United States Senator                                   David M. Alameel                      PRECINCT 1190                                          01 
01040020012000000DEM       United States Senator                                   David M. Alameel                      PRECINCT 1200                                          01 
01040020013000097DEM       United States Senator                                   David M. Alameel                      PRECINCT 2020                                          01 
01040020014000133DEM       United States Senator                                   David M. Alameel                      PRECINCT 2080                                          01 
01040020015000073DEM       United States Senator                                   David M. Alameel                      PRECINCT 2082                                          01 
01040020016000006DEM       United States Senator                                   David M. Alameel                      PRECINCT 2084                                          01 
01040020017000012DEM       United States Senator                                   David M. Alameel                      PRECINCT 2085                                          01 
01040020018000099DEM       United States Senator                                   David M. Alameel                      PRECINCT 2120                                          01 
01040020019000006DEM       United States Senator                                   David M. Alameel                      PRECINCT 2210                                          01 
01040020020000089DEM       United States Senator                                   David M. Alameel                      PRECINCT 3030                                          01 
01040020021000056DEM       United States Senator                                   David M. Alameel                      PRECINCT 3040                                          01 
01040020022000051DEM       United States Senator                                   David M. Alameel                      PRECINCT 3041                                          01 
01040020023000034DEM       United States Senator                                   David M. Alameel                      PRECINCT 3042                                          01 
01040020024000049DEM       United States Senator                                   David M. Alameel                      PRECINCT 3044                                          01 
01040020025000032DEM       United States Senator                                   David M. Alameel                      PRECINCT 3060                                          01 
01040020026000000DEM       United States Senator                                   David M. Alameel                      PRECINCT 3220                                          01 
01040020027000148DEM       United States Senator                                   David M. Alameel                      PRECINCT 4050                                          01 
01040020028000018DEM       United States Senator                                   David M. Alameel                      PRECINCT 4070                                          01 
01040020029000161DEM       United States Senator                                   David M. Alameel                      PRECINCT 4100                                          01 
01040020030000019DEM       United States Senator                                   David M. Alameel                      PRECINCT 4101                                          01 
01040020031000019DEM       United States Senator                                   David M. Alameel                      PRECINCT 4103                                          01 
01040020032000000DEM       United States Senator                                   David M. Alameel                      PRECINCT 4230                                          01 
01040020033000000DEM       United States Senator                                   David M. Alameel                      PRECINCT 4240                                          01 
01040020034000003DEM       United States Senator                                   David M. Alameel                      PRECINCT 4250                                          01 
01040030001000002LIB       United States Senator                                   Rebecca Paddock                       PRECINCT 1011                                          01 
01040030002000016LIB       United States Senator                                   Rebecca Paddock                       PRECINCT 1013                                          01 
01040030003000012LIB       United States Senator                                   Rebecca Paddock                       PRECINCT 1014                                          01 
01040030004000050LIB       United States Senator                                   Rebecca Paddock                       PRECINCT 1110                                          01 
01040030005000017LIB       United States Senator                                   Rebecca Paddock                       PRECINCT 1115                                          01 
01040030006000000LIB       United States Senator                                   Rebecca Paddock                       PRECINCT 1130                                          01 
01040030007000000LIB       United States Senator                                   Rebecca Paddock                       PRECINCT 1140                                          01 
01040030008000000LIB       United States Senator                                   Rebecca Paddock                       PRECINCT 1150                                          01 
01040030009000000LIB       United States Senator                                   Rebecca Paddock                       PRECINCT 1170                                          01 
01040030010000000LIB       United States Senator                                   Rebecca Paddock                       PRECINCT 1180                                          01 
01040030011000000LIB       United States Senator                                   Rebecca Paddock                       PRECINCT 1190                                          01 
01040030012000000LIB       United States Senator                                   Rebecca Paddock                       PRECINCT 1200                                          01 
01040030013000010LIB       United States Senator                                   Rebecca Paddock                       PRECINCT 2020                                          01 
01040030014000029LIB       United States Senator                                   Rebecca Paddock                       PRECINCT 2080                                          01 
01040030015000017LIB       United States Senator                                   Rebecca Paddock                       PRECINCT 2082                                          01 
01040030016000002LIB       United States Senator                                   Rebecca Paddock                       PRECINCT 2084                                          01 
01040030017000003LIB       United States Senator                                   Rebecca Paddock                       PRECINCT 2085                                          01 
01040030018000012LIB       United States Senator                                   Rebecca Paddock                       PRECINCT 2120                                          01 
01040030019000006LIB       United States Senator                                   Rebecca Paddock                       PRECINCT 2210                                          01 
01040030020000043LIB       United States Senator                                   Rebecca Paddock                       PRECINCT 3030                                          01 
01040030021000021LIB       United States Senator                                   Rebecca Paddock                       PRECINCT 3040                                          01 
01040030022000009LIB       United States Senator                                   Rebecca Paddock                       PRECINCT 3041                                          01 
01040030023000003LIB       United States Senator                                   Rebecca Paddock                       PRECINCT 3042                                          01 
01040030024000006LIB       United States Senator                                   Rebecca Paddock                       PRECINCT 3044                                          01 
01040030025000007LIB       United States Senator                                   Rebecca Paddock                       PRECINCT 3060                                          01 
01040030026000000LIB       United States Senator                                   Rebecca Paddock                       PRECINCT 3220                                          01 
01040030027000039LIB       United States Senator                                   Rebecca Paddock                       PRECINCT 4050                                          01 
01040030028000003LIB       United States Senator                                   Rebecca Paddock                       PRECINCT 4070                                          01 
01040030029000041LIB       United States Senator                                   Rebecca Paddock                       PRECINCT 4100                                          01 
01040030030000001LIB       United States Senator                                   Rebecca Paddock                       PRECINCT 4101                                          01 
01040030031000006LIB       United States Senator                                   Rebecca Paddock                       PRECINCT 4103                                          01 
01040030032000000LIB       United States Senator                                   Rebecca Paddock                       PRECINCT 4230                                          01 
01040030033000000LIB       United States Senator                                   Rebecca Paddock                       PRECINCT 4240                                          01 
01040030034000000LIB       United States Senator                                   Rebecca Paddock                       PRECINCT 4250                                          01 
01040040001000000GRN       United States Senator                                   Emily "Spicybrown" Sanchez            PRECINCT 1011                                          01 
01040040002000001GRN       United States Senator                                   Emily "Spicybrown" Sanchez            PRECINCT 1013                                          01 
01040040003000000GRN       United States Senator                                   Emily "Spicybrown" Sanchez            PRECINCT 1014                                          01 
01040040004000013GRN       United States Senator                                   Emily "Spicybrown" Sanchez            PRECINCT 1110                                          01 
01040040005000004GRN       United States Senator                                   Emily "Spicybrown" Sanchez            PRECINCT 1115                                          01 
01040040006000000GRN       United States Senator                                   Emily "Spicybrown" Sanchez            PRECINCT 1130                                          01 
01040040007000000GRN       United States Senator                                   Emily "Spicybrown" Sanchez            PRECINCT 1140                                          01 
01040040008000000GRN       United States Senator                                   Emily "Spicybrown" Sanchez            PRECINCT 1150                                          01 
01040040009000000GRN       United States Senator                                   Emily "Spicybrown" Sanchez            PRECINCT 1170                                          01 
01040040010000000GRN       United States Senator                                   Emily "Spicybrown" Sanchez            PRECINCT 1180                                          01 
01040040011000000GRN       United States Senator                                   Emily "Spicybrown" Sanchez            PRECINCT 1190                                          01 
01040040012000000GRN       United States Senator                                   Emily "Spicybrown" Sanchez            PRECINCT 1200                                          01 
01040040013000003GRN       United States Senator                                   Emily "Spicybrown" Sanchez            PRECINCT 2020                                          01 
01040040014000004GRN       United States Senator                                   Emily "Spicybrown" Sanchez            PRECINCT 2080                                          01 
01040040015000003GRN       United States Senator                                   Emily "Spicybrown" Sanchez            PRECINCT 2082                                          01 
01040040016000000GRN       United States Senator                                   Emily "Spicybrown" Sanchez            PRECINCT 2084                                          01 
01040040017000001GRN       United States Senator                                   Emily "Spicybrown" Sanchez            PRECINCT 2085                                          01 
01040040018000005GRN       United States Senator                                   Emily "Spicybrown" Sanchez            PRECINCT 2120                                          01 
01040040019000000GRN       United States Senator                                   Emily "Spicybrown" Sanchez            PRECINCT 2210                                          01 
01040040020000005GRN       United States Senator                                   Emily "Spicybrown" Sanchez            PRECINCT 3030                                          01 
01040040021000000GRN       United States Senator                                   Emily "Spicybrown" Sanchez            PRECINCT 3040                                          01 
01040040022000002GRN       United States Senator                                   Emily "Spicybrown" Sanchez            PRECINCT 3041                                          01 
01040040023000000GRN       United States Senator                                   Emily "Spicybrown" Sanchez            PRECINCT 3042                                          01 
01040040024000002GRN       United States Senator                                   Emily "Spicybrown" Sanchez            PRECINCT 3044                                          01 
01040040025000003GRN       United States Senator                                   Emily "Spicybrown" Sanchez            PRECINCT 3060                                          01 
01040040026000000GRN       United States Senator                                   Emily "Spicybrown" Sanchez            PRECINCT 3220                                          01 
01040040027000013GRN       United States Senator                                   Emily "Spicybrown" Sanchez            PRECINCT 4050                                          01 
01040040028000003GRN       United States Senator                                   Emily "Spicybrown" Sanchez            PRECINCT 4070                                          01 
01040040029000005GRN       United States Senator                                   Emily "Spicybrown" Sanchez            PRECINCT 4100                                          01 
01040040030000000GRN       United States Senator                                   Emily "Spicybrown" Sanchez            PRECINCT 4101                                          01 
01040040031000002GRN       United States Senator                                   Emily "Spicybrown" Sanchez            PRECINCT 4103                                          01 
01040040032000000GRN       United States Senator                                   Emily "Spicybrown" Sanchez            PRECINCT 4230                                          01 
01040040033000000GRN       United States Senator                                   Emily "Spicybrown" Sanchez            PRECINCT 4240                                          01 
01040040034000000GRN       United States Senator                                   Emily "Spicybrown" Sanchez            PRECINCT 4250                                          01 
01040050001000000NON       United States Senator                                   WRITE-IN                              PRECINCT 1011                                          01 
01040050002000000NON       United States Senator                                   WRITE-IN                              PRECINCT 1013                                          01 
01040050003000000NON       United States Senator                                   WRITE-IN                              PRECINCT 1014                                          01 
01040050004000000NON       United States Senator                                   WRITE-IN                              PRECINCT 1110                                          01 
01040050005000000NON       United States Senator                                   WRITE-IN                              PRECINCT 1115                                          01 
01040050006000000NON       United States Senator                                   WRITE-IN                              PRECINCT 1130                                          01 
01040050007000000NON       United States Senator                                   WRITE-IN                              PRECINCT 1140                                          01 
01040050008000000NON       United States Senator                                   WRITE-IN                              PRECINCT 1150                                          01 
01040050009000000NON       United States Senator                                   WRITE-IN                              PRECINCT 1170                                          01 
01040050010000000NON       United States Senator                                   WRITE-IN                              PRECINCT 1180                                          01 
01040050011000000NON       United States Senator                                   WRITE-IN                              PRECINCT 1190                                          01 
01040050012000000NON       United States Senator                                   WRITE-IN                              PRECINCT 1200                                          01 
01040050013000000NON       United States Senator                                   WRITE-IN                              PRECINCT 2020                                          01 
01040050014000000NON       United States Senator                                   WRITE-IN                              PRECINCT 2080                                          01 
01040050015000000NON       United States Senator                                   WRITE-IN                              PRECINCT 2082                                          01 
01040050016000000NON       United States Senator                                   WRITE-IN                              PRECINCT 2084                                          01 
01040050017000000NON       United States Senator                                   WRITE-IN                              PRECINCT 2085                                          01 
01040050018000000NON       United States Senator                                   WRITE-IN                              PRECINCT 2120                                          01 
01040050019000000NON       United States Senator                                   WRITE-IN                              PRECINCT 2210                                          01 
01040050020000000NON       United States Senator                                   WRITE-IN                              PRECINCT 3030                                          01 
01040050021000000NON       United States Senator                                   WRITE-IN                              PRECINCT 3040                                          01 
01040050022000000NON       United States Senator                                   WRITE-IN                              PRECINCT 3041                                          01 
01040050023000000NON       United States Senator                                   WRITE-IN                              PRECINCT 3042                                          01 
01040050024000000NON       United States Senator                                   WRITE-IN                              PRECINCT 3044                                          01 
01040050025000000NON       United States Senator                                   WRITE-IN                              PRECINCT 3060                                          01 
01040050026000000NON       United States Senator                                   WRITE-IN                              PRECINCT 3220                                          01 
01040050027000000NON       United States Senator                                   WRITE-IN                              PRECINCT 4050                                          01 
01040050028000000NON       United States Senator                                   WRITE-IN                              PRECINCT 4070                                          01 
01040050029000000NON       United States Senator                                   WRITE-IN                              PRECINCT 4100                                          01 
01040050030000000NON       United States Senator                                   WRITE-IN                              PRECINCT 4101                                          01 
01040050031000000NON       United States Senator                                   WRITE-IN                              PRECINCT 4103                                          01 
01040050032000000NON       United States Senator                                   WRITE-IN                              PRECINCT 4230                                          01 
01040050033000000NON       United States Senator                                   WRITE-IN                              PRECINCT 4240                                          01 
01040050034000000NON       United States Senator                                   WRITE-IN                              PRECINCT 4250                                          01 
01040060001000000          United States Senator                                   OVER VOTES                            PRECINCT 1011                                          01 
01040060002000000          United States Senator                                   OVER VOTES                            PRECINCT 1013                                          01 
01040060003000000          United States Senator                                   OVER VOTES                            PRECINCT 1014                                          01 
01040060004000000          United States Senator                                   OVER VOTES                            PRECINCT 1110                                          01 
01040060005000000          United States Senator                                   OVER VOTES                            PRECINCT 1115                                          01 
01040060006000000          United States Senator                                   OVER VOTES                            PRECINCT 1130                                          01 
01040060007000000          United States Senator                                   OVER VOTES                            PRECINCT 1140                                          01 
01040060008000000          United States Senator                                   OVER VOTES                            PRECINCT 1150                                          01 
01040060009000000          United States Senator                                   OVER VOTES                            PRECINCT 1170                                          01 
01040060010000000          United States Senator                                   OVER VOTES                            PRECINCT 1180                                          01 
01040060011000000          United States Senator                                   OVER VOTES                            PRECINCT 1190                                          01 
01040060012000000          United States Senator                                   OVER VOTES                            PRECINCT 1200                                          01 
01040060013000000          United States Senator                                   OVER VOTES                            PRECINCT 2020                                          01 
01040060014000000          United States Senator                                   OVER VOTES                            PRECINCT 2080                                          01 
01040060015000000          United States Senator                                   OVER VOTES                            PRECINCT 2082                                          01 
01040060016000000          United States Senator                                   OVER VOTES                            PRECINCT 2084                                          01 
01040060017000000          United States Senator                                   OVER VOTES                            PRECINCT 2085                                          01 
01040060018000000          United States Senator                                   OVER VOTES                            PRECINCT 2120                                          01 
01040060019000000          United States Senator                                   OVER VOTES                            PRECINCT 2210                                          01 
01040060020000000          United States Senator                                   OVER VOTES                            PRECINCT 3030                                          01 
01040060021000000          United States Senator                                   OVER VOTES                            PRECINCT 3040                                          01 
01040060022000000          United States Senator                                   OVER VOTES                            PRECINCT 3041                                          01 
01040060023000000          United States Senator                                   OVER VOTES                            PRECINCT 3042                                          01 
01040060024000000          United States Senator                                   OVER VOTES                            PRECINCT 3044                                          01 
01040060025000000          United States Senator                                   OVER VOTES                            PRECINCT 3060                                          01 
01040060026000000          United States Senator                                   OVER VOTES                            PRECINCT 3220                                          01 
01040060027000000          United States Senator                                   OVER VOTES                            PRECINCT 4050                                          01 
01040060028000000          United States Senator                                   OVER VOTES                            PRECINCT 4070                                          01 
01040060029000000          United States Senator                                   OVER VOTES                            PRECINCT 4100                                          01 
01040060030000000          United States Senator                                   OVER VOTES                            PRECINCT 4101                                          01 
01040060031000000          United States Senator                                   OVER VOTES                            PRECINCT 4103                                          01 
01040060032000000          United States Senator                                   OVER VOTES                            PRECINCT 4230                                          01 
01040060033000000          United States Senator                                   OVER VOTES                            PRECINCT 4240                                          01 
01040060034000000          United States Senator                                   OVER VOTES                            PRECINCT 4250                                          01 
01040070001000000          United States Senator                                   UNDER VOTES                           PRECINCT 1011                                          01 
01040070002000010          United States Senator                                   UNDER VOTES                           PRECINCT 1013                                          01 
01040070003000002          United States Senator                                   UNDER VOTES                           PRECINCT 1014                                          01 
01040070004000023          United States Senator                                   UNDER VOTES                           PRECINCT 1110                                          01 
01040070005000007          United States Senator                                   UNDER VOTES                           PRECINCT 1115                                          01 
01040070006000000          United States Senator                                   UNDER VOTES                           PRECINCT 1130                                          01 
01040070007000000          United States Senator                                   UNDER VOTES                           PRECINCT 1140                                          01 
01040070008000000          United States Senator                                   UNDER VOTES                           PRECINCT 1150                                          01 
01040070009000000          United States Senator                                   UNDER VOTES                           PRECINCT 1170                                          01 
01040070010000000          United States Senator                                   UNDER VOTES                           PRECINCT 1180                                          01 
01040070011000000          United States Senator                                   UNDER VOTES                           PRECINCT 1190                                          01 
01040070012000000          United States Senator                                   UNDER VOTES                           PRECINCT 1200                                          01 
01040070013000012          United States Senator                                   UNDER VOTES                           PRECINCT 2020                                          01 
01040070014000016          United States Senator                                   UNDER VOTES                           PRECINCT 2080                                          01 
01040070015000006          United States Senator                                   UNDER VOTES                           PRECINCT 2082                                          01 
01040070016000003          United States Senator                                   UNDER VOTES                           PRECINCT 2084                                          01 
01040070017000000          United States Senator                                   UNDER VOTES                           PRECINCT 2085                                          01 
01040070018000017          United States Senator                                   UNDER VOTES                           PRECINCT 2120                                          01 
01040070019000000          United States Senator                                   UNDER VOTES                           PRECINCT 2210                                          01 
01040070020000018          United States Senator                                   UNDER VOTES                           PRECINCT 3030                                          01 
01040070021000007          United States Senator                                   UNDER VOTES                           PRECINCT 3040                                          01 
01040070022000011          United States Senator                                   UNDER VOTES                           PRECINCT 3041                                          01 
01040070023000005          United States Senator                                   UNDER VOTES                           PRECINCT 3042                                          01 
01040070024000001          United States Senator                                   UNDER VOTES                           PRECINCT 3044                                          01 
01040070025000004          United States Senator                                   UNDER VOTES                           PRECINCT 3060                                          01 
01040070026000000          United States Senator                                   UNDER VOTES                           PRECINCT 3220                                          01 
01040070027000019          United States Senator                                   UNDER VOTES                           PRECINCT 4050                                          01 
01040070028000002          United States Senator                                   UNDER VOTES                           PRECINCT 4070                                          01 
01040070029000023          United States Senator                                   UNDER VOTES                           PRECINCT 4100                                          01 
01040070030000002          United States Senator                                   UNDER VOTES                           PRECINCT 4101                                          01 
01040070031000001          United States Senator                                   UNDER VOTES                           PRECINCT 4103                                          01 
01040070032000000          United States Senator                                   UNDER VOTES                           PRECINCT 4230                                          01 
01040070033000000          United States Senator                                   UNDER VOTES                           PRECINCT 4240                                          01 
01040070034000001          United States Senator                                   UNDER VOTES                           PRECINCT 4250                                          01 
01050010001000066REP       US Representative, District 21                          Lamar Smith                           PRECINCT 1011                                          01 
01050010002000381REP       US Representative, District 21                          Lamar Smith                           PRECINCT 1013                                          01 
01050010003000181REP       US Representative, District 21                          Lamar Smith                           PRECINCT 1014                                          01 
01050010004000972REP       US Representative, District 21                          Lamar Smith                           PRECINCT 1110                                          01 
01050010005000547REP       US Representative, District 21                          Lamar Smith                           PRECINCT 1115                                          01 
01050010006000000REP       US Representative, District 21                          Lamar Smith                           PRECINCT 1130                                          01 
01050010007000000REP       US Representative, District 21                          Lamar Smith                           PRECINCT 1140                                          01 
01050010008000000REP       US Representative, District 21                          Lamar Smith                           PRECINCT 1150                                          01 
01050010009000000REP       US Representative, District 21                          Lamar Smith                           PRECINCT 1170                                          01 
01050010010000000REP       US Representative, District 21                          Lamar Smith                           PRECINCT 1180                                          01 
01050010011000009REP       US Representative, District 21                          Lamar Smith                           PRECINCT 1190                                          01 
01050010012000001REP       US Representative, District 21                          Lamar Smith                           PRECINCT 1200                                          01 
01050010013000869REP       US Representative, District 21                          Lamar Smith                           PRECINCT 2020                                          01 
01050010014001148REP       US Representative, District 21                          Lamar Smith                           PRECINCT 2080                                          01 
01050010015000458REP       US Representative, District 21                          Lamar Smith                           PRECINCT 2082                                          01 
01050010016000033REP       US Representative, District 21                          Lamar Smith                           PRECINCT 2084                                          01 
01050010017000041REP       US Representative, District 21                          Lamar Smith                           PRECINCT 2085                                          01 
01050010018000692REP       US Representative, District 21                          Lamar Smith                           PRECINCT 2120                                          01 
01050010019000026REP       US Representative, District 21                          Lamar Smith                           PRECINCT 2210                                          01 
01050010020000862REP       US Representative, District 21                          Lamar Smith                           PRECINCT 3030                                          01 
01050010021000425REP       US Representative, District 21                          Lamar Smith                           PRECINCT 3040                                          01 
01050010022000468REP       US Representative, District 21                          Lamar Smith                           PRECINCT 3041                                          01 
01050010023000172REP       US Representative, District 21                          Lamar Smith                           PRECINCT 3042                                          01 
01050010024000163REP       US Representative, District 21                          Lamar Smith                           PRECINCT 3044                                          01 
01050010025000224REP       US Representative, District 21                          Lamar Smith                           PRECINCT 3060                                          01 
01050010026000004REP       US Representative, District 21                          Lamar Smith                           PRECINCT 3220                                          01 
01050010027000836REP       US Representative, District 21                          Lamar Smith                           PRECINCT 4050                                          01 
01050010028000132REP       US Representative, District 21                          Lamar Smith                           PRECINCT 4070                                          01 
01050010029000991REP       US Representative, District 21                          Lamar Smith                           PRECINCT 4100                                          01 
01050010030000076REP       US Representative, District 21                          Lamar Smith                           PRECINCT 4101                                          01 
01050010031000079REP       US Representative, District 21                          Lamar Smith                           PRECINCT 4103                                          01 
01050010032000002REP       US Representative, District 21                          Lamar Smith                           PRECINCT 4230                                          01 
01050010033000003REP       US Representative, District 21                          Lamar Smith                           PRECINCT 4240                                          01 
01050010034000024REP       US Representative, District 21                          Lamar Smith                           PRECINCT 4250                                          01 
01050020001000004LIB       US Representative, District 21                          Ryan Shields                          PRECINCT 1011                                          01 
01050020002000040LIB       US Representative, District 21                          Ryan Shields                          PRECINCT 1013                                          01 
01050020003000026LIB       US Representative, District 21                          Ryan Shields                          PRECINCT 1014                                          01 
01050020004000087LIB       US Representative, District 21                          Ryan Shields                          PRECINCT 1110                                          01 
01050020005000038LIB       US Representative, District 21                          Ryan Shields                          PRECINCT 1115                                          01 
01050020006000000LIB       US Representative, District 21                          Ryan Shields                          PRECINCT 1130                                          01 
01050020007000000LIB       US Representative, District 21                          Ryan Shields                          PRECINCT 1140                                          01 
01050020008000000LIB       US Representative, District 21                          Ryan Shields                          PRECINCT 1150                                          01 
