01090014064000259NONCTYKIRBCity of Kirby Crime Prevention Election                 For                                                                                          01Y
01090014080000172NONCTYKIRBCity of Kirby Crime Prevention Election                 For                                                                                          01Y
01090014145000000NONCTYKIRBCity of Kirby Crime Prevention Election                 For                                                                                          01Y
01090014146000002NONCTYKIRBCity of Kirby Crime Prevention Election                 For                                                                                          01Y
01090014182000000NONCTYKIRBCity of Kirby Crime Prevention Election                 For                                                                                          01Y
01090024064000108NONCTYKIRBCity of Kirby Crime Prevention Election                 Against                                                                                      01Y
01090024080000071NONCTYKIRBCity of Kirby Crime Prevention Election                 Against                                                                                      01Y
01090024145000001NONCTYKIRBCity of Kirby Crime Prevention Election                 Against                                                                                      01Y
01090024146000001NONCTYKIRBCity of Kirby Crime Prevention Election                 Against                                                                                      01Y
01090024182000000NONCTYKIRBCity of Kirby Crime Prevention Election                 Against                                                                                      01Y
01090034064000000   CTYKIRBCity of Kirby Crime Prevention Election                 OVER VOTES                                                                                   01Y
01090034080000000   CTYKIRBCity of Kirby Crime Prevention Election                 OVER VOTES                                                                                   01Y
01090034145000000   CTYKIRBCity of Kirby Crime Prevention Election                 OVER VOTES                                                                                   01Y
01090034146000000   CTYKIRBCity of Kirby Crime Prevention Election                 OVER VOTES                                                                                   01Y
01090034182000000   CTYKIRBCity of Kirby Crime Prevention Election                 OVER VOTES                                                                                   01Y
01090044064000024   CTYKIRBCity of Kirby Crime Prevention Election                 UNDER VOTES                                                                                  01Y
01090044080000018   CTYKIRBCity of Kirby Crime Prevention Election                 UNDER VOTES                                                                                  01Y
01090044145000000   CTYKIRBCity of Kirby Crime Prevention Election                 UNDER VOTES                                                                                  01Y
01090044146000000   CTYKIRBCity of Kirby Crime Prevention Election                 UNDER VOTES                                                                                  01Y
01090044182000000   CTYKIRBCity of Kirby Crime Prevention Election                 UNDER VOTES                                                                                  01Y
