01090014064000500NONCTYKIRBCity of Kirby Crime Prevention Election                 For                                                                                          01Y
01090014080000346NONCTYKIRBCity of Kirby Crime Prevention Election                 For                                                                                          01Y
01090014145000001NONCTYKIRBCity of Kirby Crime Prevention Election                 For                                                                                          01Y
01090014146000004NONCTYKIRBCity of Kirby Crime Prevention Election                 For                                                                                          01Y
01090014182000000NONCTYKIRBCity of Kirby Crime Prevention Election                 For                                                                                          01Y
01090024064000225NONCTYKIRBCity of Kirby Crime Prevention Election                 Against                                                                                      01Y
01090024080000169NONCTYKIRBCity of Kirby Crime Prevention Election                 Against                                                                                      01Y
01090024145000001NONCTYKIRBCity of Kirby Crime Prevention Election                 Against                                                                                      01Y
01090024146000003NONCTYKIRBCity of Kirby Crime Prevention Election                 Against                                                                                      01Y
01090024182000000NONCTYKIRBCity of Kirby Crime Prevention Election                 Against                                                                                      01Y
01090034064000000   CTYKIRBCity of Kirby Crime Prevention Election                 OVER VOTES                                                                                   01Y
01090034080000000   CTYKIRBCity of Kirby Crime Prevention Election                 OVER VOTES                                                                                   01Y
01090034145000000   CTYKIRBCity of Kirby Crime Prevention Election                 OVER VOTES                                                                                   01Y
01090034146000000   CTYKIRBCity of Kirby Crime Prevention Election                 OVER VOTES                                                                                   01Y
01090034182000000   CTYKIRBCity of Kirby Crime Prevention Election                 OVER VOTES                                                                                   01Y
01090044064000042   CTYKIRBCity of Kirby Crime Prevention Election                 UNDER VOTES                                                                                  01Y
01090044080000027   CTYKIRBCity of Kirby Crime Prevention Election                 UNDER VOTES                                                                                  01Y
01090044145000000   CTYKIRBCity of Kirby Crime Prevention Election                 UNDER VOTES                                                                                  01Y
01090044146000000   CTYKIRBCity of Kirby Crime Prevention Election                 UNDER VOTES                                                                                  01Y
01090044182000000   CTYKIRBCity of Kirby Crime Prevention Election                 UNDER VOTES                                                                                  01Y
