01010010001000922000000000000000000000000000000          REGISTERED VOTERS - TOTAL                               REGISTERED VOTERS - TOTAL             PRECINCT 1A3B                                          00 
01010010002001619000000000000000000000000000000          REGISTERED VOTERS - TOTAL                               REGISTERED VOTERS - TOTAL             PRECINCT 1A5A                                          00 
01010010003000171000000000000000000000000000000          REGISTERED VOTERS - TOTAL                               REGISTERED VOTERS - TOTAL             PRECINCT 1B                                            00 
01010010004000271000000000000000000000000000000          REGISTERED VOTERS - TOTAL                               REGISTERED VOTERS - TOTAL             PRECINCT 1C                                            00 
01010010005000564000000000000000000000000000000          REGISTERED VOTERS - TOTAL                               REGISTERED VOTERS - TOTAL             PRECINCT 1D                                            00 
01010010006000646000000000000000000000000000000          REGISTERED VOTERS - TOTAL                               REGISTERED VOTERS - TOTAL             PRECINCT 1E                                            00 
01010010007000949000000000000000000000000000000          REGISTERED VOTERS - TOTAL                               REGISTERED VOTERS - TOTAL             PRECINCT 1E7C                                          00 
01010010008000745000000000000000000000000000000          REGISTERED VOTERS - TOTAL                               REGISTERED VOTERS - TOTAL             PRECINCT 1F                                            00 
01010010009000514000000000000000000000000000000          REGISTERED VOTERS - TOTAL                               REGISTERED VOTERS - TOTAL             PRECINCT 1G                                            00 
01010010010000462000000000000000000000000000000          REGISTERED VOTERS - TOTAL                               REGISTERED VOTERS - TOTAL             PRECINCT 1H                                            00 
01010010011000118000000000000000000000000000000          REGISTERED VOTERS - TOTAL                               REGISTERED VOTERS - TOTAL             PRECINCT 1I                                            00 
01010010012001267000000000000000000000000000000          REGISTERED VOTERS - TOTAL                               REGISTERED VOTERS - TOTAL             PRECINCT 2A1A                                          00 
01010010013001584000000000000000000000000000000          REGISTERED VOTERS - TOTAL                               REGISTERED VOTERS - TOTAL             PRECINCT 2B2A                                          00 
01010010014001556000000000000000000000000000000          REGISTERED VOTERS - TOTAL                               REGISTERED VOTERS - TOTAL             PRECINCT 2C3A                                          00 
01010010015000632000000000000000000000000000000          REGISTERED VOTERS - TOTAL                               REGISTERED VOTERS - TOTAL             PRECINCT 2D                                            00 
01010010016000522000000000000000000000000000000          REGISTERED VOTERS - TOTAL                               REGISTERED VOTERS - TOTAL             PRECINCT 2E                                            00 
01010010017000173000000000000000000000000000000          REGISTERED VOTERS - TOTAL                               REGISTERED VOTERS - TOTAL             PRECINCT 2F                                            00 
01010010018000522000000000000000000000000000000          REGISTERED VOTERS - TOTAL                               REGISTERED VOTERS - TOTAL             PRECINCT 2G                                            00 
01010010020002696000000000000000000000000000000          REGISTERED VOTERS - TOTAL                               REGISTERED VOTERS - TOTAL             PRECINCT 3C7G                                          00 
01010010021000709000000000000000000000000000000          REGISTERED VOTERS - TOTAL                               REGISTERED VOTERS - TOTAL             PRECINCT 3D                                            00 
01010010022001014000000000000000000000000000000          REGISTERED VOTERS - TOTAL                               REGISTERED VOTERS - TOTAL             PRECINCT 3E                                            00 
01010010023000441000000000000000000000000000000          REGISTERED VOTERS - TOTAL                               REGISTERED VOTERS - TOTAL             PRECINCT 3F                                            00 
01010010024000527000000000000000000000000000000          REGISTERED VOTERS - TOTAL                               REGISTERED VOTERS - TOTAL             PRECINCT 3G                                            00 
01010010025000728000000000000000000000000000000          REGISTERED VOTERS - TOTAL                               REGISTERED VOTERS - TOTAL             PRECINCT 3H3C                                          00 
01010010026001126000000000000000000000000000000          REGISTERED VOTERS - TOTAL                               REGISTERED VOTERS - TOTAL             PRECINCT 3I                                            00 
01010010027001329000000000000000000000000000000          REGISTERED VOTERS - TOTAL                               REGISTERED VOTERS - TOTAL             PRECINCT 4A6E                                          00 
01010010028001573000000000000000000000000000000          REGISTERED VOTERS - TOTAL                               REGISTERED VOTERS - TOTAL             PRECINCT 4B                                            00 
01010010029000307000000000000000000000000000000          REGISTERED VOTERS - TOTAL                               REGISTERED VOTERS - TOTAL             PRECINCT 4C                                            00 
01010010030001289000000000000000000000000000000          REGISTERED VOTERS - TOTAL                               REGISTERED VOTERS - TOTAL             PRECINCT 4D                                            00 
01010010031000593000000000000000000000000000000          REGISTERED VOTERS - TOTAL                               REGISTERED VOTERS - TOTAL             PRECINCT 4E                                            00 
01010010032001568000000000000000000000000000000          REGISTERED VOTERS - TOTAL                               REGISTERED VOTERS - TOTAL             PRECINCT 4F                                            00 
01010010033001561000000000000000000000000000000          REGISTERED VOTERS - TOTAL                               REGISTERED VOTERS - TOTAL             PRECINCT 4G                                            00 
01020010001000147000085000021000041000000000000          BALLOTS CAST - TOTAL                                    BALLOTS CAST - TOTAL                  PRECINCT 1A3B                                          00 
01020010002000192000118000013000061000000000000          BALLOTS CAST - TOTAL                                    BALLOTS CAST - TOTAL                  PRECINCT 1A5A                                          00 
01020010003000057000012000005000040000000000000          BALLOTS CAST - TOTAL                                    BALLOTS CAST - TOTAL                  PRECINCT 1B                                            00 
01020010004000085000040000009000036000000000000          BALLOTS CAST - TOTAL                                    BALLOTS CAST - TOTAL                  PRECINCT 1C                                            00 
01020010005000139000069000007000062000001000000          BALLOTS CAST - TOTAL                                    BALLOTS CAST - TOTAL                  PRECINCT 1D                                            00 
01020010006000153000050000003000100000000000000          BALLOTS CAST - TOTAL                                    BALLOTS CAST - TOTAL                  PRECINCT 1E                                            00 
01020010007000320000171000026000123000000000000          BALLOTS CAST - TOTAL                                    BALLOTS CAST - TOTAL                  PRECINCT 1E7C                                          00 
01020010008000175000074000006000095000000000000          BALLOTS CAST - TOTAL                                    BALLOTS CAST - TOTAL                  PRECINCT 1F                                            00 
01020010009000087000020000011000055000001000000          BALLOTS CAST - TOTAL                                    BALLOTS CAST - TOTAL                  PRECINCT 1G                                            00 
01020010010000124000043000010000071000000000000          BALLOTS CAST - TOTAL                                    BALLOTS CAST - TOTAL                  PRECINCT 1H                                            00 
01020010011000029000004000001000024000000000000          BALLOTS CAST - TOTAL                                    BALLOTS CAST - TOTAL                  PRECINCT 1I                                            00 
01020010012000116000057000011000047000001000000          BALLOTS CAST - TOTAL                                    BALLOTS CAST - TOTAL                  PRECINCT 2A1A                                          00 
01020010013000106000060000003000043000000000000          BALLOTS CAST - TOTAL                                    BALLOTS CAST - TOTAL                  PRECINCT 2B2A                                          00 
01020010014000241000105000023000112000001000000          BALLOTS CAST - TOTAL                                    BALLOTS CAST - TOTAL                  PRECINCT 2C3A                                          00 
01020010015000181000037000009000135000000000000          BALLOTS CAST - TOTAL                                    BALLOTS CAST - TOTAL                  PRECINCT 2D                                            00 
01020010016000184000076000006000102000000000000          BALLOTS CAST - TOTAL                                    BALLOTS CAST - TOTAL                  PRECINCT 2E                                            00 
01020010017000048000009000004000035000000000000          BALLOTS CAST - TOTAL                                    BALLOTS CAST - TOTAL                  PRECINCT 2F                                            00 
01020010018000155000076000010000069000000000000          BALLOTS CAST - TOTAL                                    BALLOTS CAST - TOTAL                  PRECINCT 2G                                            00 
01020010020000710000389000070000250000001000000          BALLOTS CAST - TOTAL                                    BALLOTS CAST - TOTAL                  PRECINCT 3C7G                                          00 
01020010021000148000052000016000080000000000000          BALLOTS CAST - TOTAL                                    BALLOTS CAST - TOTAL                  PRECINCT 3D                                            00 
01020010022000295000107000017000171000000000000          BALLOTS CAST - TOTAL                                    BALLOTS CAST - TOTAL                  PRECINCT 3E                                            00 
01020010023000129000047000007000075000000000000          BALLOTS CAST - TOTAL                                    BALLOTS CAST - TOTAL                  PRECINCT 3F                                            00 
01020010024000161000069000012000080000000000000          BALLOTS CAST - TOTAL                                    BALLOTS CAST - TOTAL                  PRECINCT 3G                                            00 
01020010025000124000060000010000052000002000000          BALLOTS CAST - TOTAL                                    BALLOTS CAST - TOTAL                  PRECINCT 3H3C                                          00 
01020010026000272000145000040000087000000000000          BALLOTS CAST - TOTAL                                    BALLOTS CAST - TOTAL                  PRECINCT 3I                                            00 
01020010027000383000213000044000126000000000000          BALLOTS CAST - TOTAL                                    BALLOTS CAST - TOTAL                  PRECINCT 4A6E                                          00 
01020010028000364000122000034000208000000000000          BALLOTS CAST - TOTAL                                    BALLOTS CAST - TOTAL                  PRECINCT 4B                                            00 
01020010029000073000026000003000044000000000000          BALLOTS CAST - TOTAL                                    BALLOTS CAST - TOTAL                  PRECINCT 4C                                            00 
01020010030000329000088000021000220000000000000          BALLOTS CAST - TOTAL                                    BALLOTS CAST - TOTAL                  PRECINCT 4D                                            00 
01020010031000139000042000009000088000000000000          BALLOTS CAST - TOTAL                                    BALLOTS CAST - TOTAL                  PRECINCT 4E                                            00 
01020010032000393000216000028000148000001000000          BALLOTS CAST - TOTAL                                    BALLOTS CAST - TOTAL                  PRECINCT 4F                                            00 
01020010033000471000244000027000200000000000000          BALLOTS CAST - TOTAL                                    BALLOTS CAST - TOTAL                  PRECINCT 4G                                            00 
01030010001000124000072000020000032000000000000REP       BALLOTS CAST - REPUBLICAN PARTY                         BALLOTS CAST - REPUBLICAN PARTY       PRECINCT 1A3B                                          00 
01030010002000154000096000012000046000000000000REP       BALLOTS CAST - REPUBLICAN PARTY                         BALLOTS CAST - REPUBLICAN PARTY       PRECINCT 1A5A                                          00 
01030010003000054000009000005000040000000000000REP       BALLOTS CAST - REPUBLICAN PARTY                         BALLOTS CAST - REPUBLICAN PARTY       PRECINCT 1B                                            00 
01030010004000085000040000009000036000000000000REP       BALLOTS CAST - REPUBLICAN PARTY                         BALLOTS CAST - REPUBLICAN PARTY       PRECINCT 1C                                            00 
01030010005000136000067000007000061000001000000REP       BALLOTS CAST - REPUBLICAN PARTY                         BALLOTS CAST - REPUBLICAN PARTY       PRECINCT 1D                                            00 
01030010006000139000046000003000090000000000000REP       BALLOTS CAST - REPUBLICAN PARTY                         BALLOTS CAST - REPUBLICAN PARTY       PRECINCT 1E                                            00 
01030010007000288000157000026000105000000000000REP       BALLOTS CAST - REPUBLICAN PARTY                         BALLOTS CAST - REPUBLICAN PARTY       PRECINCT 1E7C                                          00 
01030010008000164000073000006000085000000000000REP       BALLOTS CAST - REPUBLICAN PARTY                         BALLOTS CAST - REPUBLICAN PARTY       PRECINCT 1F                                            00 
01030010009000081000018000011000051000001000000REP       BALLOTS CAST - REPUBLICAN PARTY                         BALLOTS CAST - REPUBLICAN PARTY       PRECINCT 1G                                            00 
01030010010000119000039000010000070000000000000REP       BALLOTS CAST - REPUBLICAN PARTY                         BALLOTS CAST - REPUBLICAN PARTY       PRECINCT 1H                                            00 
01030010011000028000004000001000023000000000000REP       BALLOTS CAST - REPUBLICAN PARTY                         BALLOTS CAST - REPUBLICAN PARTY       PRECINCT 1I                                            00 
01030010012000064000034000007000022000001000000REP       BALLOTS CAST - REPUBLICAN PARTY                         BALLOTS CAST - REPUBLICAN PARTY       PRECINCT 2A1A                                          00 
01030010013000068000038000002000028000000000000REP       BALLOTS CAST - REPUBLICAN PARTY                         BALLOTS CAST - REPUBLICAN PARTY       PRECINCT 2B2A                                          00 
01030010014000200000096000020000083000001000000REP       BALLOTS CAST - REPUBLICAN PARTY                         BALLOTS CAST - REPUBLICAN PARTY       PRECINCT 2C3A                                          00 
01030010015000150000035000006000109000000000000REP       BALLOTS CAST - REPUBLICAN PARTY                         BALLOTS CAST - REPUBLICAN PARTY       PRECINCT 2D                                            00 
01030010016000168000069000006000093000000000000REP       BALLOTS CAST - REPUBLICAN PARTY                         BALLOTS CAST - REPUBLICAN PARTY       PRECINCT 2E                                            00 
01030010017000043000009000004000030000000000000REP       BALLOTS CAST - REPUBLICAN PARTY                         BALLOTS CAST - REPUBLICAN PARTY       PRECINCT 2F                                            00 
01030010018000138000072000010000056000000000000REP       BALLOTS CAST - REPUBLICAN PARTY                         BALLOTS CAST - REPUBLICAN PARTY       PRECINCT 2G                                            00 
01030010020000644000349000069000225000001000000REP       BALLOTS CAST - REPUBLICAN PARTY                         BALLOTS CAST - REPUBLICAN PARTY       PRECINCT 3C7G                                          00 
01030010021000141000049000016000076000000000000REP       BALLOTS CAST - REPUBLICAN PARTY                         BALLOTS CAST - REPUBLICAN PARTY       PRECINCT 3D                                            00 
01030010022000281000100000017000164000000000000REP       BALLOTS CAST - REPUBLICAN PARTY                         BALLOTS CAST - REPUBLICAN PARTY       PRECINCT 3E                                            00 
01030010023000122000044000007000071000000000000REP       BALLOTS CAST - REPUBLICAN PARTY                         BALLOTS CAST - REPUBLICAN PARTY       PRECINCT 3F                                            00 
01030010024000151000063000012000076000000000000REP       BALLOTS CAST - REPUBLICAN PARTY                         BALLOTS CAST - REPUBLICAN PARTY       PRECINCT 3G                                            00 
01030010025000108000056000009000041000002000000REP       BALLOTS CAST - REPUBLICAN PARTY                         BALLOTS CAST - REPUBLICAN PARTY       PRECINCT 3H3C                                          00 
01030010026000260000138000040000082000000000000REP       BALLOTS CAST - REPUBLICAN PARTY                         BALLOTS CAST - REPUBLICAN PARTY       PRECINCT 3I                                            00 
01030010027000360000193000043000124000000000000REP       BALLOTS CAST - REPUBLICAN PARTY                         BALLOTS CAST - REPUBLICAN PARTY       PRECINCT 4A6E                                          00 
01030010028000324000112000032000180000000000000REP       BALLOTS CAST - REPUBLICAN PARTY                         BALLOTS CAST - REPUBLICAN PARTY       PRECINCT 4B                                            00 
01030010029000066000025000003000038000000000000REP       BALLOTS CAST - REPUBLICAN PARTY                         BALLOTS CAST - REPUBLICAN PARTY       PRECINCT 4C                                            00 
01030010030000309000085000021000203000000000000REP       BALLOTS CAST - REPUBLICAN PARTY                         BALLOTS CAST - REPUBLICAN PARTY       PRECINCT 4D                                            00 
01030010031000127000040000009000078000000000000REP       BALLOTS CAST - REPUBLICAN PARTY                         BALLOTS CAST - REPUBLICAN PARTY       PRECINCT 4E                                            00 
01030010032000367000203000026000137000001000000REP       BALLOTS CAST - REPUBLICAN PARTY                         BALLOTS CAST - REPUBLICAN PARTY       PRECINCT 4F                                            00 
01030010033000444000234000025000185000000000000REP       BALLOTS CAST - REPUBLICAN PARTY                         BALLOTS CAST - REPUBLICAN PARTY       PRECINCT 4G                                            00 
01040010001000023000013000001000009000000000000DEM       BALLOTS CAST - DEMOCRATIC PARTY                         BALLOTS CAST - DEMOCRATIC PARTY       PRECINCT 1A3B                                          00 
01040010002000038000022000001000015000000000000DEM       BALLOTS CAST - DEMOCRATIC PARTY                         BALLOTS CAST - DEMOCRATIC PARTY       PRECINCT 1A5A                                          00 
01040010003000003000003000000000000000000000000DEM       BALLOTS CAST - DEMOCRATIC PARTY                         BALLOTS CAST - DEMOCRATIC PARTY       PRECINCT 1B                                            00 
01040010004000000000000000000000000000000000000DEM       BALLOTS CAST - DEMOCRATIC PARTY                         BALLOTS CAST - DEMOCRATIC PARTY       PRECINCT 1C                                            00 
01040010005000003000002000000000001000000000000DEM       BALLOTS CAST - DEMOCRATIC PARTY                         BALLOTS CAST - DEMOCRATIC PARTY       PRECINCT 1D                                            00 
01040010006000014000004000000000010000000000000DEM       BALLOTS CAST - DEMOCRATIC PARTY                         BALLOTS CAST - DEMOCRATIC PARTY       PRECINCT 1E                                            00 
01040010007000032000014000000000018000000000000DEM       BALLOTS CAST - DEMOCRATIC PARTY                         BALLOTS CAST - DEMOCRATIC PARTY       PRECINCT 1E7C                                          00 
01040010008000011000001000000000010000000000000DEM       BALLOTS CAST - DEMOCRATIC PARTY                         BALLOTS CAST - DEMOCRATIC PARTY       PRECINCT 1F                                            00 
01040010009000006000002000000000004000000000000DEM       BALLOTS CAST - DEMOCRATIC PARTY                         BALLOTS CAST - DEMOCRATIC PARTY       PRECINCT 1G                                            00 
01040010010000005000004000000000001000000000000DEM       BALLOTS CAST - DEMOCRATIC PARTY                         BALLOTS CAST - DEMOCRATIC PARTY       PRECINCT 1H                                            00 
01040010011000001000000000000000001000000000000DEM       BALLOTS CAST - DEMOCRATIC PARTY                         BALLOTS CAST - DEMOCRATIC PARTY       PRECINCT 1I                                            00 
01040010012000052000023000004000025000000000000DEM       BALLOTS CAST - DEMOCRATIC PARTY                         BALLOTS CAST - DEMOCRATIC PARTY       PRECINCT 2A1A                                          00 
01040010013000038000022000001000015000000000000DEM       BALLOTS CAST - DEMOCRATIC PARTY                         BALLOTS CAST - DEMOCRATIC PARTY       PRECINCT 2B2A                                          00 
01040010014000041000009000003000029000000000000DEM       BALLOTS CAST - DEMOCRATIC PARTY                         BALLOTS CAST - DEMOCRATIC PARTY       PRECINCT 2C3A                                          00 
01040010015000031000002000003000026000000000000DEM       BALLOTS CAST - DEMOCRATIC PARTY                         BALLOTS CAST - DEMOCRATIC PARTY       PRECINCT 2D                                            00 
01040010016000016000007000000000009000000000000DEM       BALLOTS CAST - DEMOCRATIC PARTY                         BALLOTS CAST - DEMOCRATIC PARTY       PRECINCT 2E                                            00 
01040010017000005000000000000000005000000000000DEM       BALLOTS CAST - DEMOCRATIC PARTY                         BALLOTS CAST - DEMOCRATIC PARTY       PRECINCT 2F                                            00 
01040010018000017000004000000000013000000000000DEM       BALLOTS CAST - DEMOCRATIC PARTY                         BALLOTS CAST - DEMOCRATIC PARTY       PRECINCT 2G                                            00 
01040010020000066000040000001000025000000000000DEM       BALLOTS CAST - DEMOCRATIC PARTY                         BALLOTS CAST - DEMOCRATIC PARTY       PRECINCT 3C7G                                          00 
01040010021000007000003000000000004000000000000DEM       BALLOTS CAST - DEMOCRATIC PARTY                         BALLOTS CAST - DEMOCRATIC PARTY       PRECINCT 3D                                            00 
01040010022000014000007000000000007000000000000DEM       BALLOTS CAST - DEMOCRATIC PARTY                         BALLOTS CAST - DEMOCRATIC PARTY       PRECINCT 3E                                            00 
01040010023000007000003000000000004000000000000DEM       BALLOTS CAST - DEMOCRATIC PARTY                         BALLOTS CAST - DEMOCRATIC PARTY       PRECINCT 3F                                            00 
01040010024000010000006000000000004000000000000DEM       BALLOTS CAST - DEMOCRATIC PARTY                         BALLOTS CAST - DEMOCRATIC PARTY       PRECINCT 3G                                            00 
01040010025000016000004000001000011000000000000DEM       BALLOTS CAST - DEMOCRATIC PARTY                         BALLOTS CAST - DEMOCRATIC PARTY       PRECINCT 3H3C                                          00 
01040010026000012000007000000000005000000000000DEM       BALLOTS CAST - DEMOCRATIC PARTY                         BALLOTS CAST - DEMOCRATIC PARTY       PRECINCT 3I                                            00 
01040010027000023000020000001000002000000000000DEM       BALLOTS CAST - DEMOCRATIC PARTY                         BALLOTS CAST - DEMOCRATIC PARTY       PRECINCT 4A6E                                          00 
01040010028000040000010000002000028000000000000DEM       BALLOTS CAST - DEMOCRATIC PARTY                         BALLOTS CAST - DEMOCRATIC PARTY       PRECINCT 4B                                            00 
01040010029000007000001000000000006000000000000DEM       BALLOTS CAST - DEMOCRATIC PARTY                         BALLOTS CAST - DEMOCRATIC PARTY       PRECINCT 4C                                            00 
01040010030000020000003000000000017000000000000DEM       BALLOTS CAST - DEMOCRATIC PARTY                         BALLOTS CAST - DEMOCRATIC PARTY       PRECINCT 4D                                            00 
01040010031000012000002000000000010000000000000DEM       BALLOTS CAST - DEMOCRATIC PARTY                         BALLOTS CAST - DEMOCRATIC PARTY       PRECINCT 4E                                            00 
01040010032000026000013000002000011000000000000DEM       BALLOTS CAST - DEMOCRATIC PARTY                         BALLOTS CAST - DEMOCRATIC PARTY       PRECINCT 4F                                            00 
01040010033000027000010000002000015000000000000DEM       BALLOTS CAST - DEMOCRATIC PARTY                         BALLOTS CAST - DEMOCRATIC PARTY       PRECINCT 4G                                            00 
01050010001000005000002000002000001000000000000REP       United States Senator LIMITED COUNTYWIDE                Curt Cleaver                          PRECINCT 1A3B                                          01 
01050010002000007000004000000000003000000000000REP       United States Senator LIMITED COUNTYWIDE                Curt Cleaver                          PRECINCT 1A5A                                          01 
01050010003000001000000000000000001000000000000REP       United States Senator LIMITED COUNTYWIDE                Curt Cleaver                          PRECINCT 1B                                            01 
01050010004000003000000000002000001000000000000REP       United States Senator LIMITED COUNTYWIDE                Curt Cleaver                          PRECINCT 1C                                            01 
01050010005000003000001000000000002000000000000REP       United States Senator LIMITED COUNTYWIDE                Curt Cleaver                          PRECINCT 1D                                            01 
01050010006000003000001000000000002000000000000REP       United States Senator LIMITED COUNTYWIDE                Curt Cleaver                          PRECINCT 1E                                            01 
01050010007000004000001000000000003000000000000REP       United States Senator LIMITED COUNTYWIDE                Curt Cleaver                          PRECINCT 1E7C                                          01 
01050010008000002000001000000000001000000000000REP       United States Senator LIMITED COUNTYWIDE                Curt Cleaver                          PRECINCT 1F                                            01 
01050010009000003000000000000000003000000000000REP       United States Senator LIMITED COUNTYWIDE                Curt Cleaver                          PRECINCT 1G                                            01 
01050010010000005000001000000000004000000000000REP       United States Senator LIMITED COUNTYWIDE                Curt Cleaver                          PRECINCT 1H                                            01 
01050010011000002000000000000000002000000000000REP       United States Senator LIMITED COUNTYWIDE                Curt Cleaver                          PRECINCT 1I                                            01 
01050010012000003000002000000000001000000000000REP       United States Senator LIMITED COUNTYWIDE                Curt Cleaver                          PRECINCT 2A1A                                          01 
01050010013000001000001000000000000000000000000REP       United States Senator LIMITED COUNTYWIDE                Curt Cleaver                          PRECINCT 2B2A                                          01 
01050010014000008000004000000000003000001000000REP       United States Senator LIMITED COUNTYWIDE                Curt Cleaver                          PRECINCT 2C3A                                          01 
01050010015000005000000000000000005000000000000REP       United States Senator LIMITED COUNTYWIDE                Curt Cleaver                          PRECINCT 2D                                            01 
01050010016000004000003000000000001000000000000REP       United States Senator LIMITED COUNTYWIDE                Curt Cleaver                          PRECINCT 2E                                            01 
01050010017000002000001000000000001000000000000REP       United States Senator LIMITED COUNTYWIDE                Curt Cleaver                          PRECINCT 2F                                            01 
01050010018000001000001000000000000000000000000REP       United States Senator LIMITED COUNTYWIDE                Curt Cleaver                          PRECINCT 2G                                            01 
01050010020000016000008000002000006000000000000REP       United States Senator LIMITED COUNTYWIDE                Curt Cleaver                          PRECINCT 3C7G                                          01 
01050010021000004000002000001000001000000000000REP       United States Senator LIMITED COUNTYWIDE                Curt Cleaver                          PRECINCT 3D                                            01 
01050010022000014000005000000000009000000000000REP       United States Senator LIMITED COUNTYWIDE                Curt Cleaver                          PRECINCT 3E                                            01 
01050010023000004000003000000000001000000000000REP       United States Senator LIMITED COUNTYWIDE                Curt Cleaver                          PRECINCT 3F                                            01 
01050010024000006000003000000000003000000000000REP       United States Senator LIMITED COUNTYWIDE                Curt Cleaver                          PRECINCT 3G                                            01 
01050010025000002000001000000000001000000000000REP       United States Senator LIMITED COUNTYWIDE                Curt Cleaver                          PRECINCT 3H3C                                          01 
01050010026000008000004000000000004000000000000REP       United States Senator LIMITED COUNTYWIDE                Curt Cleaver                          PRECINCT 3I                                            01 
01050010027000013000010000001000002000000000000REP       United States Senator LIMITED COUNTYWIDE                Curt Cleaver                          PRECINCT 4A6E                                          01 
01050010028000008000000000002000006000000000000REP       United States Senator LIMITED COUNTYWIDE                Curt Cleaver                          PRECINCT 4B                                            01 
01050010029000000000000000000000000000000000000REP       United States Senator LIMITED COUNTYWIDE                Curt Cleaver                          PRECINCT 4C                                            01 
01050010030000006000001000000000005000000000000REP       United States Senator LIMITED COUNTYWIDE                Curt Cleaver                          PRECINCT 4D                                            01 
01050010031000003000000000000000003000000000000REP       United States Senator LIMITED COUNTYWIDE                Curt Cleaver                          PRECINCT 4E                                            01 
01050010032000011000005000001000005000000000000REP       United States Senator LIMITED COUNTYWIDE                Curt Cleaver                          PRECINCT 4F                                            01 
01050010033000013000008000002000003000000000000REP       United States Senator LIMITED COUNTYWIDE                Curt Cleaver                          PRECINCT 4G                                            01 
01050020001000073000041000012000020000000000000REP       United States Senator LIMITED COUNTYWIDE                John Cornyn                           PRECINCT 1A3B                                          01 
01050020002000089000055000006000028000000000000REP       United States Senator LIMITED COUNTYWIDE                John Cornyn                           PRECINCT 1A5A                                          01 
01050020003000030000005000005000020000000000000REP       United States Senator LIMITED COUNTYWIDE                John Cornyn                           PRECINCT 1B                                            01 
01050020004000046000024000006000016000000000000REP       United States Senator LIMITED COUNTYWIDE                John Cornyn                           PRECINCT 1C                                            01 
01050020005000081000039000005000036000001000000REP       United States Senator LIMITED COUNTYWIDE                John Cornyn                           PRECINCT 1D                                            01 
01050020006000073000027000003000043000000000000REP       United States Senator LIMITED COUNTYWIDE                John Cornyn                           PRECINCT 1E                                            01 
01050020007000209000113000020000076000000000000REP       United States Senator LIMITED COUNTYWIDE                John Cornyn                           PRECINCT 1E7C                                          01 
01050020008000106000054000004000048000000000000REP       United States Senator LIMITED COUNTYWIDE                John Cornyn                           PRECINCT 1F                                            01 
01050020009000048000012000007000028000001000000REP       United States Senator LIMITED COUNTYWIDE                John Cornyn                           PRECINCT 1G                                            01 
01050020010000057000019000006000032000000000000REP       United States Senator LIMITED COUNTYWIDE                John Cornyn                           PRECINCT 1H                                            01 
01050020011000015000003000001000011000000000000REP       United States Senator LIMITED COUNTYWIDE                John Cornyn                           PRECINCT 1I                                            01 
01050020012000036000018000005000013000000000000REP       United States Senator LIMITED COUNTYWIDE                John Cornyn                           PRECINCT 2A1A                                          01 
01050020013000031000015000001000015000000000000REP       United States Senator LIMITED COUNTYWIDE                John Cornyn                           PRECINCT 2B2A                                          01 
01050020014000109000050000016000043000000000000REP       United States Senator LIMITED COUNTYWIDE                John Cornyn                           PRECINCT 2C3A                                          01 
01050020015000066000021000006000039000000000000REP       United States Senator LIMITED COUNTYWIDE                John Cornyn                           PRECINCT 2D                                            01 
01050020016000091000042000005000044000000000000REP       United States Senator LIMITED COUNTYWIDE                John Cornyn                           PRECINCT 2E                                            01 
01050020017000022000006000002000014000000000000REP       United States Senator LIMITED COUNTYWIDE                John Cornyn                           PRECINCT 2F                                            01 
01050020018000074000032000010000032000000000000REP       United States Senator LIMITED COUNTYWIDE                John Cornyn                           PRECINCT 2G                                            01 
01050020020000449000238000056000155000000000000REP       United States Senator LIMITED COUNTYWIDE                John Cornyn                           PRECINCT 3C7G                                          01 
01050020021000097000035000015000047000000000000REP       United States Senator LIMITED COUNTYWIDE                John Cornyn                           PRECINCT 3D                                            01 
01050020022000130000048000014000068000000000000REP       United States Senator LIMITED COUNTYWIDE                John Cornyn                           PRECINCT 3E                                            01 
01050020023000065000023000007000035000000000000REP       United States Senator LIMITED COUNTYWIDE                John Cornyn                           PRECINCT 3F                                            01 
01050020024000096000036000011000049000000000000REP       United States Senator LIMITED COUNTYWIDE                John Cornyn                           PRECINCT 3G                                            01 
01050020025000070000042000007000019000002000000REP       United States Senator LIMITED COUNTYWIDE                John Cornyn                           PRECINCT 3H3C                                          01 
01050020026000131000074000020000037000000000000REP       United States Senator LIMITED COUNTYWIDE                John Cornyn                           PRECINCT 3I                                            01 
01050020027000229000122000027000080000000000000REP       United States Senator LIMITED COUNTYWIDE                John Cornyn                           PRECINCT 4A6E                                          01 
01050020028000206000070000027000109000000000000REP       United States Senator LIMITED COUNTYWIDE                John Cornyn                           PRECINCT 4B                                            01 
01050020029000039000011000003000025000000000000REP       United States Senator LIMITED COUNTYWIDE                John Cornyn                           PRECINCT 4C                                            01 
01050020030000167000054000018000095000000000000REP       United States Senator LIMITED COUNTYWIDE                John Cornyn                           PRECINCT 4D                                            01 
01050020031000068000021000008000039000000000000REP       United States Senator LIMITED COUNTYWIDE                John Cornyn                           PRECINCT 4E                                            01 
01050020032000217000130000021000066000000000000REP       United States Senator LIMITED COUNTYWIDE                John Cornyn                           PRECINCT 4F                                            01 
01050020033000271000146000016000109000000000000REP       United States Senator LIMITED COUNTYWIDE                John Cornyn                           PRECINCT 4G                                            01 
01050030001000006000004000000000002000000000000REP       United States Senator LIMITED COUNTYWIDE                Dwayne Stovall                        PRECINCT 1A3B                                          01 
01050030002000012000009000000000003000000000000REP       United States Senator LIMITED COUNTYWIDE                Dwayne Stovall                        PRECINCT 1A5A                                          01 
01050030003000006000001000000000005000000000000REP       United States Senator LIMITED COUNTYWIDE                Dwayne Stovall                        PRECINCT 1B                                            01 
01050030004000009000004000001000004000000000000REP       United States Senator LIMITED COUNTYWIDE                Dwayne Stovall                        PRECINCT 1C                                            01 
01050030005000014000008000000000006000000000000REP       United States Senator LIMITED COUNTYWIDE                Dwayne Stovall                        PRECINCT 1D                                            01 
01050030006000009000004000000000005000000000000REP       United States Senator LIMITED COUNTYWIDE                Dwayne Stovall                        PRECINCT 1E                                            01 
01050030007000020000008000001000011000000000000REP       United States Senator LIMITED COUNTYWIDE                Dwayne Stovall                        PRECINCT 1E7C                                          01 
01050030008000012000005000000000007000000000000REP       United States Senator LIMITED COUNTYWIDE                Dwayne Stovall                        PRECINCT 1F                                            01 
01050030009000005000002000001000002000000000000REP       United States Senator LIMITED COUNTYWIDE                Dwayne Stovall                        PRECINCT 1G                                            01 
01050030010000012000002000002000008000000000000REP       United States Senator LIMITED COUNTYWIDE                Dwayne Stovall                        PRECINCT 1H                                            01 
01050030011000001000000000000000001000000000000REP       United States Senator LIMITED COUNTYWIDE                Dwayne Stovall                        PRECINCT 1I                                            01 
01050030012000000000000000000000000000000000000REP       United States Senator LIMITED COUNTYWIDE                Dwayne Stovall                        PRECINCT 2A1A                                          01 
01050030013000003000002000000000001000000000000REP       United States Senator LIMITED COUNTYWIDE                Dwayne Stovall                        PRECINCT 2B2A                                          01 
01050030014000014000007000000000007000000000000REP       United States Senator LIMITED COUNTYWIDE                Dwayne Stovall                        PRECINCT 2C3A                                          01 
01050030015000014000004000000000010000000000000REP       United States Senator LIMITED COUNTYWIDE                Dwayne Stovall                        PRECINCT 2D                                            01 
01050030016000017000005000000000012000000000000REP       United States Senator LIMITED COUNTYWIDE                Dwayne Stovall                        PRECINCT 2E                                            01 
01050030017000002000000000000000002000000000000REP       United States Senator LIMITED COUNTYWIDE                Dwayne Stovall                        PRECINCT 2F                                            01 
01050030018000013000010000000000003000000000000REP       United States Senator LIMITED COUNTYWIDE                Dwayne Stovall                        PRECINCT 2G                                            01 
01050030020000024000013000000000011000000000000REP       United States Senator LIMITED COUNTYWIDE                Dwayne Stovall                        PRECINCT 3C7G                                          01 
01050030021000011000003000000000008000000000000REP       United States Senator LIMITED COUNTYWIDE                Dwayne Stovall                        PRECINCT 3D                                            01 
01050030022000028000007000000000021000000000000REP       United States Senator LIMITED COUNTYWIDE                Dwayne Stovall                        PRECINCT 3E                                            01 
01050030023000014000006000000000008000000000000REP       United States Senator LIMITED COUNTYWIDE                Dwayne Stovall                        PRECINCT 3F                                            01 
01050030024000009000006000000000003000000000000REP       United States Senator LIMITED COUNTYWIDE                Dwayne Stovall                        PRECINCT 3G                                            01 
01050030025000004000003000000000001000000000000REP       United States Senator LIMITED COUNTYWIDE                Dwayne Stovall                        PRECINCT 3H3C                                          01 
01050030026000023000005000006000012000000000000REP       United States Senator LIMITED COUNTYWIDE                Dwayne Stovall                        PRECINCT 3I                                            01 
01050030027000026000011000001000014000000000000REP       United States Senator LIMITED COUNTYWIDE                Dwayne Stovall                        PRECINCT 4A6E                                          01 
01050030028000021000004000000000017000000000000REP       United States Senator LIMITED COUNTYWIDE                Dwayne Stovall                        PRECINCT 4B                                            01 
01050030029000009000003000000000006000000000000REP       United States Senator LIMITED COUNTYWIDE                Dwayne Stovall                        PRECINCT 4C                                            01 
01050030030000031000009000000000022000000000000REP       United States Senator LIMITED COUNTYWIDE                Dwayne Stovall                        PRECINCT 4D                                            01 
01050030031000011000003000001000007000000000000REP       United States Senator LIMITED COUNTYWIDE                Dwayne Stovall                        PRECINCT 4E                                            01 
01050030032000023000008000000000015000000000000REP       United States Senator LIMITED COUNTYWIDE                Dwayne Stovall                        PRECINCT 4F                                            01 
01050030033000037000012000000000025000000000000REP       United States Senator LIMITED COUNTYWIDE                Dwayne Stovall                        PRECINCT 4G                                            01 
01050040001000002000002000000000000000000000000REP       United States Senator LIMITED COUNTYWIDE                Reid Reasor                           PRECINCT 1A3B                                          01 
01050040002000003000001000002000000000000000000REP       United States Senator LIMITED COUNTYWIDE                Reid Reasor                           PRECINCT 1A5A                                          01 
01050040003000002000001000000000001000000000000REP       United States Senator LIMITED COUNTYWIDE                Reid Reasor                           PRECINCT 1B                                            01 
01050040004000004000003000000000001000000000000REP       United States Senator LIMITED COUNTYWIDE                Reid Reasor                           PRECINCT 1C                                            01 
01050040005000001000001000000000000000000000000REP       United States Senator LIMITED COUNTYWIDE                Reid Reasor                           PRECINCT 1D                                            01 
01050040006000006000002000000000004000000000000REP       United States Senator LIMITED COUNTYWIDE                Reid Reasor                           PRECINCT 1E                                            01 
01050040007000003000003000000000000000000000000REP       United States Senator LIMITED COUNTYWIDE                Reid Reasor                           PRECINCT 1E7C                                          01 
01050040008000003000000000000000003000000000000REP       United States Senator LIMITED COUNTYWIDE                Reid Reasor                           PRECINCT 1F                                            01 
01050040009000002000000000001000001000000000000REP       United States Senator LIMITED COUNTYWIDE                Reid Reasor                           PRECINCT 1G                                            01 
01050040010000002000002000000000000000000000000REP       United States Senator LIMITED COUNTYWIDE                Reid Reasor                           PRECINCT 1H                                            01 
01050040011000000000000000000000000000000000000REP       United States Senator LIMITED COUNTYWIDE                Reid Reasor                           PRECINCT 1I                                            01 
01050040012000001000000000000000001000000000000REP       United States Senator LIMITED COUNTYWIDE                Reid Reasor                           PRECINCT 2A1A                                          01 
01050040013000003000001000000000002000000000000REP       United States Senator LIMITED COUNTYWIDE                Reid Reasor                           PRECINCT 2B2A                                          01 
01050040014000002000001000000000001000000000000REP       United States Senator LIMITED COUNTYWIDE                Reid Reasor                           PRECINCT 2C3A                                          01 
01050040015000000000000000000000000000000000000REP       United States Senator LIMITED COUNTYWIDE                Reid Reasor                           PRECINCT 2D                                            01 
01050040016000002000000000000000002000000000000REP       United States Senator LIMITED COUNTYWIDE                Reid Reasor                           PRECINCT 2E                                            01 
01050040017000001000000000000000001000000000000REP       United States Senator LIMITED COUNTYWIDE                Reid Reasor                           PRECINCT 2F                                            01 
01050040018000007000005000000000002000000000000REP       United States Senator LIMITED COUNTYWIDE                Reid Reasor                           PRECINCT 2G                                            01 
01050040020000009000002000000000007000000000000REP       United States Senator LIMITED COUNTYWIDE                Reid Reasor                           PRECINCT 3C7G                                          01 
01050040021000001000000000000000001000000000000REP       United States Senator LIMITED COUNTYWIDE                Reid Reasor                           PRECINCT 3D                                            01 
01050040022000005000001000000000004000000000000REP       United States Senator LIMITED COUNTYWIDE                Reid Reasor                           PRECINCT 3E                                            01 
01050040023000005000001000000000004000000000000REP       United States Senator LIMITED COUNTYWIDE                Reid Reasor                           PRECINCT 3F                                            01 
01050040024000001000001000000000000000000000000REP       United States Senator LIMITED COUNTYWIDE                Reid Reasor                           PRECINCT 3G                                            01 
01050040025000000000000000000000000000000000000REP       United States Senator LIMITED COUNTYWIDE                Reid Reasor                           PRECINCT 3H3C                                          01 
01050040026000008000003000000000005000000000000REP       United States Senator LIMITED COUNTYWIDE                Reid Reasor                           PRECINCT 3I                                            01 
01050040027000005000001000000000004000000000000REP       United States Senator LIMITED COUNTYWIDE                Reid Reasor                           PRECINCT 4A6E                                          01 
01050040028000008000000000001000007000000000000REP       United States Senator LIMITED COUNTYWIDE                Reid Reasor                           PRECINCT 4B                                            01 
01050040029000002000001000000000001000000000000REP       United States Senator LIMITED COUNTYWIDE                Reid Reasor                           PRECINCT 4C                                            01 
01050040030000002000000000000000002000000000000REP       United States Senator LIMITED COUNTYWIDE                Reid Reasor                           PRECINCT 4D                                            01 
01050040031000002000002000000000000000000000000REP       United States Senator LIMITED COUNTYWIDE                Reid Reasor                           PRECINCT 4E                                            01 
01050040032000006000005000000000000000001000000REP       United States Senator LIMITED COUNTYWIDE                Reid Reasor                           PRECINCT 4F                                            01 
01050040033000009000007000000000002000000000000REP       United States Senator LIMITED COUNTYWIDE                Reid Reasor                           PRECINCT 4G                                            01 
01050050001000003000003000000000000000000000000REP       United States Senator LIMITED COUNTYWIDE                Ken Cope                              PRECINCT 1A3B                                          01 
01050050002000005000002000000000003000000000000REP       United States Senator LIMITED COUNTYWIDE                Ken Cope                              PRECINCT 1A5A                                          01 
01050050003000002000000000000000002000000000000REP       United States Senator LIMITED COUNTYWIDE                Ken Cope                              PRECINCT 1B                                            01 
01050050004000003000001000000000002000000000000REP       United States Senator LIMITED COUNTYWIDE                Ken Cope                              PRECINCT 1C                                            01 
01050050005000006000004000000000002000000000000REP       United States Senator LIMITED COUNTYWIDE                Ken Cope                              PRECINCT 1D                                            01 
01050050006000005000000000000000005000000000000REP       United States Senator LIMITED COUNTYWIDE                Ken Cope                              PRECINCT 1E                                            01 
01050050007000003000002000000000001000000000000REP       United States Senator LIMITED COUNTYWIDE                Ken Cope                              PRECINCT 1E7C                                          01 
01050050008000009000001000002000006000000000000REP       United States Senator LIMITED COUNTYWIDE                Ken Cope                              PRECINCT 1F                                            01 
01050050009000001000000000000000001000000000000REP       United States Senator LIMITED COUNTYWIDE                Ken Cope                              PRECINCT 1G                                            01 
01050050010000010000002000000000008000000000000REP       United States Senator LIMITED COUNTYWIDE                Ken Cope                              PRECINCT 1H                                            01 
01050050011000000000000000000000000000000000000REP       United States Senator LIMITED COUNTYWIDE                Ken Cope                              PRECINCT 1I                                            01 
01050050012000003000003000000000000000000000000REP       United States Senator LIMITED COUNTYWIDE                Ken Cope                              PRECINCT 2A1A                                          01 
01050050013000005000002000001000002000000000000REP       United States Senator LIMITED COUNTYWIDE                Ken Cope                              PRECINCT 2B2A                                          01 
01050050014000009000005000000000004000000000000REP       United States Senator LIMITED COUNTYWIDE                Ken Cope                              PRECINCT 2C3A                                          01 
01050050015000007000001000000000006000000000000REP       United States Senator LIMITED COUNTYWIDE                Ken Cope                              PRECINCT 2D                                            01 
01050050016000004000000000000000004000000000000REP       United States Senator LIMITED COUNTYWIDE                Ken Cope                              PRECINCT 2E                                            01 
01050050017000006000000000000000006000000000000REP       United States Senator LIMITED COUNTYWIDE                Ken Cope                              PRECINCT 2F                                            01 
01050050018000003000003000000000000000000000000REP       United States Senator LIMITED COUNTYWIDE                Ken Cope                              PRECINCT 2G                                            01 
01050050020000015000012000001000002000000000000REP       United States Senator LIMITED COUNTYWIDE                Ken Cope                              PRECINCT 3C7G                                          01 
01050050021000003000000000000000003000000000000REP       United States Senator LIMITED COUNTYWIDE                Ken Cope                              PRECINCT 3D                                            01 
01050050022000017000003000001000013000000000000REP       United States Senator LIMITED COUNTYWIDE                Ken Cope                              PRECINCT 3E                                            01 
01050050023000003000001000000000002000000000000REP       United States Senator LIMITED COUNTYWIDE                Ken Cope                              PRECINCT 3F                                            01 
01050050024000004000002000000000002000000000000REP       United States Senator LIMITED COUNTYWIDE                Ken Cope                              PRECINCT 3G                                            01 
01050050025000001000001000000000000000000000000REP       United States Senator LIMITED COUNTYWIDE                Ken Cope                              PRECINCT 3H3C                                          01 
01050050026000005000004000000000001000000000000REP       United States Senator LIMITED COUNTYWIDE                Ken Cope                              PRECINCT 3I                                            01 
01050050027000011000003000003000005000000000000REP       United States Senator LIMITED COUNTYWIDE                Ken Cope                              PRECINCT 4A6E                                          01 
01050050028000010000007000000000003000000000000REP       United States Senator LIMITED COUNTYWIDE                Ken Cope                              PRECINCT 4B                                            01 
01050050029000003000003000000000000000000000000REP       United States Senator LIMITED COUNTYWIDE                Ken Cope                              PRECINCT 4C                                            01 
01050050030000014000005000002000007000000000000REP       United States Senator LIMITED COUNTYWIDE                Ken Cope                              PRECINCT 4D                                            01 
01050050031000005000002000000000003000000000000REP       United States Senator LIMITED COUNTYWIDE                Ken Cope                              PRECINCT 4E                                            01 
01050050032000011000005000001000005000000000000REP       United States Senator LIMITED COUNTYWIDE                Ken Cope                              PRECINCT 4F                                            01 
01050050033000016000009000002000005000000000000REP       United States Senator LIMITED COUNTYWIDE                Ken Cope                              PRECINCT 4G                                            01 
01050060001000007000004000002000001000000000000REP       United States Senator LIMITED COUNTYWIDE                Linda Vega                            PRECINCT 1A3B                                          01 
01050060002000008000007000000000001000000000000REP       United States Senator LIMITED COUNTYWIDE                Linda Vega                            PRECINCT 1A5A                                          01 
01050060003000002000001000000000001000000000000REP       United States Senator LIMITED COUNTYWIDE                Linda Vega                            PRECINCT 1B                                            01 
01050060004000004000001000000000003000000000000REP       United States Senator LIMITED COUNTYWIDE                Linda Vega                            PRECINCT 1C                                            01 
01050060005000000000000000000000000000000000000REP       United States Senator LIMITED COUNTYWIDE                Linda Vega                            PRECINCT 1D                                            01 
01050060006000004000002000000000002000000000000REP       United States Senator LIMITED COUNTYWIDE                Linda Vega                            PRECINCT 1E                                            01 
01050060007000011000006000001000004000000000000REP       United States Senator LIMITED COUNTYWIDE                Linda Vega                            PRECINCT 1E7C                                          01 
01050060008000003000001000000000002000000000000REP       United States Senator LIMITED COUNTYWIDE                Linda Vega                            PRECINCT 1F                                            01 
01050060009000001000000000000000001000000000000REP       United States Senator LIMITED COUNTYWIDE                Linda Vega                            PRECINCT 1G                                            01 
01050060010000005000002000000000003000000000000REP       United States Senator LIMITED COUNTYWIDE                Linda Vega                            PRECINCT 1H                                            01 
01050060011000000000000000000000000000000000000REP       United States Senator LIMITED COUNTYWIDE                Linda Vega                            PRECINCT 1I                                            01 
01050060012000003000002000000000001000000000000REP       United States Senator LIMITED COUNTYWIDE                Linda Vega                            PRECINCT 2A1A                                          01 
01050060013000007000007000000000000000000000000REP       United States Senator LIMITED COUNTYWIDE                Linda Vega                            PRECINCT 2B2A                                          01 
01050060014000011000009000000000002000000000000REP       United States Senator LIMITED COUNTYWIDE                Linda Vega                            PRECINCT 2C3A                                          01 
01050060015000011000000000000000011000000000000REP       United States Senator LIMITED COUNTYWIDE                Linda Vega                            PRECINCT 2D                                            01 
01050060016000006000000000000000006000000000000REP       United States Senator LIMITED COUNTYWIDE                Linda Vega                            PRECINCT 2E                                            01 
01050060017000001000000000000000001000000000000REP       United States Senator LIMITED COUNTYWIDE                Linda Vega                            PRECINCT 2F                                            01 
01050060018000006000000000000000006000000000000REP       United States Senator LIMITED COUNTYWIDE                Linda Vega                            PRECINCT 2G                                            01 
01050060020000019000012000000000007000000000000REP       United States Senator LIMITED COUNTYWIDE                Linda Vega                            PRECINCT 3C7G                                          01 
01050060021000006000004000000000002000000000000REP       United States Senator LIMITED COUNTYWIDE                Linda Vega                            PRECINCT 3D                                            01 
01050060022000005000003000000000002000000000000REP       United States Senator LIMITED COUNTYWIDE                Linda Vega                            PRECINCT 3E                                            01 
01050060023000004000003000000000001000000000000REP       United States Senator LIMITED COUNTYWIDE                Linda Vega                            PRECINCT 3F                                            01 
01050060024000004000001000000000003000000000000REP       United States Senator LIMITED COUNTYWIDE                Linda Vega                            PRECINCT 3G                                            01 
01050060025000006000002000001000003000000000000REP       United States Senator LIMITED COUNTYWIDE                Linda Vega                            PRECINCT 3H3C                                          01 
01050060026000011000005000004000002000000000000REP       United States Senator LIMITED COUNTYWIDE                Linda Vega                            PRECINCT 3I                                            01 
01050060027000016000010000001000005000000000000REP       United States Senator LIMITED COUNTYWIDE                Linda Vega                            PRECINCT 4A6E                                          01 
01050060028000008000004000001000003000000000000REP       United States Senator LIMITED COUNTYWIDE                Linda Vega                            PRECINCT 4B                                            01 
01050060029000002000002000000000000000000000000REP       United States Senator LIMITED COUNTYWIDE                Linda Vega                            PRECINCT 4C                                            01 
01050060030000006000002000000000004000000000000REP       United States Senator LIMITED COUNTYWIDE                Linda Vega                            PRECINCT 4D                                            01 
01050060031000002000000000000000002000000000000REP       United States Senator LIMITED COUNTYWIDE                Linda Vega                            PRECINCT 4E                                            01 
01050060032000009000008000001000000000000000000REP       United States Senator LIMITED COUNTYWIDE                Linda Vega                            PRECINCT 4F                                            01 
01050060033000004000001000001000002000000000000REP       United States Senator LIMITED COUNTYWIDE                Linda Vega                            PRECINCT 4G                                            01 
01050070001000016000010000001000005000000000000REP       United States Senator LIMITED COUNTYWIDE                Steve Stockman                        PRECINCT 1A3B                                          01 
01050070002000009000004000001000004000000000000REP       United States Senator LIMITED COUNTYWIDE                Steve Stockman                        PRECINCT 1A5A                                          01 
01050070003000008000001000000000007000000000000REP       United States Senator LIMITED COUNTYWIDE                Steve Stockman                        PRECINCT 1B                                            01 
01050070004000006000003000000000003000000000000REP       United States Senator LIMITED COUNTYWIDE                Steve Stockman                        PRECINCT 1C                                            01 
01050070005000014000008000000000006000000000000REP       United States Senator LIMITED COUNTYWIDE                Steve Stockman                        PRECINCT 1D                                            01 
01050070006000020000005000000000015000000000000REP       United States Senator LIMITED COUNTYWIDE                Steve Stockman                        PRECINCT 1E                                            01 
01050070007000018000012000002000004000000000000REP       United States Senator LIMITED COUNTYWIDE                Steve Stockman                        PRECINCT 1E7C                                          01 
01050070008000019000006000000000013000000000000REP       United States Senator LIMITED COUNTYWIDE                Steve Stockman                        PRECINCT 1F                                            01 
01050070009000013000001000000000012000000000000REP       United States Senator LIMITED COUNTYWIDE                Steve Stockman                        PRECINCT 1G                                            01 
01050070010000017000007000000000010000000000000REP       United States Senator LIMITED COUNTYWIDE                Steve Stockman                        PRECINCT 1H                                            01 
01050070011000001000000000000000001000000000000REP       United States Senator LIMITED COUNTYWIDE                Steve Stockman                        PRECINCT 1I                                            01 
01050070012000005000001000001000003000000000000REP       United States Senator LIMITED COUNTYWIDE                Steve Stockman                        PRECINCT 2A1A                                          01 
01050070013000011000004000000000007000000000000REP       United States Senator LIMITED COUNTYWIDE                Steve Stockman                        PRECINCT 2B2A                                          01 
01050070014000031000012000003000016000000000000REP       United States Senator LIMITED COUNTYWIDE                Steve Stockman                        PRECINCT 2C3A                                          01 
01050070015000012000001000000000011000000000000REP       United States Senator LIMITED COUNTYWIDE                Steve Stockman                        PRECINCT 2D                                            01 
01050070016000018000008000000000010000000000000REP       United States Senator LIMITED COUNTYWIDE                Steve Stockman                        PRECINCT 2E                                            01 
01050070017000003000000000000000003000000000000REP       United States Senator LIMITED COUNTYWIDE                Steve Stockman                        PRECINCT 2F                                            01 
01050070018000012000011000000000001000000000000REP       United States Senator LIMITED COUNTYWIDE                Steve Stockman                        PRECINCT 2G                                            01 
01050070020000043000022000007000014000000000000REP       United States Senator LIMITED COUNTYWIDE                Steve Stockman                        PRECINCT 3C7G                                          01 
01050070021000010000003000000000007000000000000REP       United States Senator LIMITED COUNTYWIDE                Steve Stockman                        PRECINCT 3D                                            01 
01050070022000040000013000001000026000000000000REP       United States Senator LIMITED COUNTYWIDE                Steve Stockman                        PRECINCT 3E                                            01 
01050070023000016000003000000000013000000000000REP       United States Senator LIMITED COUNTYWIDE                Steve Stockman                        PRECINCT 3F                                            01 
01050070024000014000004000001000009000000000000REP       United States Senator LIMITED COUNTYWIDE                Steve Stockman                        PRECINCT 3G                                            01 
01050070025000014000003000000000011000000000000REP       United States Senator LIMITED COUNTYWIDE                Steve Stockman                        PRECINCT 3H3C                                          01 
01050070026000045000026000006000013000000000000REP       United States Senator LIMITED COUNTYWIDE                Steve Stockman                        PRECINCT 3I                                            01 
01050070027000035000018000008000009000000000000REP       United States Senator LIMITED COUNTYWIDE                Steve Stockman                        PRECINCT 4A6E                                          01 
01050070028000044000019000000000025000000000000REP       United States Senator LIMITED COUNTYWIDE                Steve Stockman                        PRECINCT 4B                                            01 
01050070029000005000002000000000003000000000000REP       United States Senator LIMITED COUNTYWIDE                Steve Stockman                        PRECINCT 4C                                            01 
01050070030000046000008000000000038000000000000REP       United States Senator LIMITED COUNTYWIDE                Steve Stockman                        PRECINCT 4D                                            01 
01050070031000014000005000000000009000000000000REP       United States Senator LIMITED COUNTYWIDE                Steve Stockman                        PRECINCT 4E                                            01 
01050070032000049000025000002000022000000000000REP       United States Senator LIMITED COUNTYWIDE                Steve Stockman                        PRECINCT 4F                                            01 
01050070033000041000021000003000017000000000000REP       United States Senator LIMITED COUNTYWIDE                Steve Stockman                        PRECINCT 4G                                            01 
01050080001000000000000000000000000000000000000REP       United States Senator LIMITED COUNTYWIDE                Chris Mapp                            PRECINCT 1A3B                                          01 
01050080002000005000004000000000001000000000000REP       United States Senator LIMITED COUNTYWIDE                Chris Mapp                            PRECINCT 1A5A                                          01 
01050080003000000000000000000000000000000000000REP       United States Senator LIMITED COUNTYWIDE                Chris Mapp                            PRECINCT 1B                                            01 
01050080004000002000001000000000001000000000000REP       United States Senator LIMITED COUNTYWIDE                Chris Mapp                            PRECINCT 1C                                            01 
01050080005000000000000000000000000000000000000REP       United States Senator LIMITED COUNTYWIDE                Chris Mapp                            PRECINCT 1D                                            01 
01050080006000000000000000000000000000000000000REP       United States Senator LIMITED COUNTYWIDE                Chris Mapp                            PRECINCT 1E                                            01 
01050080007000003000002000000000001000000000000REP       United States Senator LIMITED COUNTYWIDE                Chris Mapp                            PRECINCT 1E7C                                          01 
01050080008000003000000000000000003000000000000REP       United States Senator LIMITED COUNTYWIDE                Chris Mapp                            PRECINCT 1F                                            01 
01050080009000000000000000000000000000000000000REP       United States Senator LIMITED COUNTYWIDE                Chris Mapp                            PRECINCT 1G                                            01 
01050080010000001000000000001000000000000000000REP       United States Senator LIMITED COUNTYWIDE                Chris Mapp                            PRECINCT 1H                                            01 
01050080011000000000000000000000000000000000000REP       United States Senator LIMITED COUNTYWIDE                Chris Mapp                            PRECINCT 1I                                            01 
01050080012000003000003000000000000000000000000REP       United States Senator LIMITED COUNTYWIDE                Chris Mapp                            PRECINCT 2A1A                                          01 
01050080013000000000000000000000000000000000000REP       United States Senator LIMITED COUNTYWIDE                Chris Mapp                            PRECINCT 2B2A                                          01 
01050080014000001000000000000000001000000000000REP       United States Senator LIMITED COUNTYWIDE                Chris Mapp                            PRECINCT 2C3A                                          01 
01050080015000001000000000000000001000000000000REP       United States Senator LIMITED COUNTYWIDE                Chris Mapp                            PRECINCT 2D                                            01 
01050080016000002000002000000000000000000000000REP       United States Senator LIMITED COUNTYWIDE                Chris Mapp                            PRECINCT 2E                                            01 
01050080017000000000000000000000000000000000000REP       United States Senator LIMITED COUNTYWIDE                Chris Mapp                            PRECINCT 2F                                            01 
01050080018000001000000000000000001000000000000REP       United States Senator LIMITED COUNTYWIDE                Chris Mapp                            PRECINCT 2G                                            01 
01050080020000009000005000001000003000000000000REP       United States Senator LIMITED COUNTYWIDE                Chris Mapp                            PRECINCT 3C7G                                          01 
01050080021000000000000000000000000000000000000REP       United States Senator LIMITED COUNTYWIDE                Chris Mapp                            PRECINCT 3D                                            01 
01050080022000003000000000000000003000000000000REP       United States Senator LIMITED COUNTYWIDE                Chris Mapp                            PRECINCT 3E                                            01 
01050080023000000000000000000000000000000000000REP       United States Senator LIMITED COUNTYWIDE                Chris Mapp                            PRECINCT 3F                                            01 
01050080024000002000001000000000001000000000000REP       United States Senator LIMITED COUNTYWIDE                Chris Mapp                            PRECINCT 3G                                            01 
01050080025000001000000000001000000000000000000REP       United States Senator LIMITED COUNTYWIDE                Chris Mapp                            PRECINCT 3H3C                                          01 
01050080026000002000002000000000000000000000000REP       United States Senator LIMITED COUNTYWIDE                Chris Mapp                            PRECINCT 3I                                            01 
01050080027000002000002000000000000000000000000REP       United States Senator LIMITED COUNTYWIDE                Chris Mapp                            PRECINCT 4A6E                                          01 
01050080028000002000001000000000001000000000000REP       United States Senator LIMITED COUNTYWIDE                Chris Mapp                            PRECINCT 4B                                            01 
01050080029000001000001000000000000000000000000REP       United States Senator LIMITED COUNTYWIDE                Chris Mapp                            PRECINCT 4C                                            01 
01050080030000003000001000000000002000000000000REP       United States Senator LIMITED COUNTYWIDE                Chris Mapp                            PRECINCT 4D                                            01 
01050080031000000000000000000000000000000000000REP       United States Senator LIMITED COUNTYWIDE                Chris Mapp                            PRECINCT 4E                                            01 
01050080032000002000001000000000001000000000000REP       United States Senator LIMITED COUNTYWIDE                Chris Mapp                            PRECINCT 4F                                            01 
01050080033000004000002000000000002000000000000REP       United States Senator LIMITED COUNTYWIDE                Chris Mapp                            PRECINCT 4G                                            01 
01050090001000000000000000000000000000000000000REP       United States Senator LIMITED COUNTYWIDE                OVER VOTES                            PRECINCT 1A3B                                          01 
01050090002000000000000000000000000000000000000REP       United States Senator LIMITED COUNTYWIDE                OVER VOTES                            PRECINCT 1A5A                                          01 
01050090003000000000000000000000000000000000000REP       United States Senator LIMITED COUNTYWIDE                OVER VOTES                            PRECINCT 1B                                            01 
01050090004000000000000000000000000000000000000REP       United States Senator LIMITED COUNTYWIDE                OVER VOTES                            PRECINCT 1C                                            01 
01050090005000000000000000000000000000000000000REP       United States Senator LIMITED COUNTYWIDE                OVER VOTES                            PRECINCT 1D                                            01 
01050090006000000000000000000000000000000000000REP       United States Senator LIMITED COUNTYWIDE                OVER VOTES                            PRECINCT 1E                                            01 
01050090007000000000000000000000000000000000000REP       United States Senator LIMITED COUNTYWIDE                OVER VOTES                            PRECINCT 1E7C                                          01 
01050090008000000000000000000000000000000000000REP       United States Senator LIMITED COUNTYWIDE                OVER VOTES                            PRECINCT 1F                                            01 
01050090009000000000000000000000000000000000000REP       United States Senator LIMITED COUNTYWIDE                OVER VOTES                            PRECINCT 1G                                            01 
01050090010000000000000000000000000000000000000REP       United States Senator LIMITED COUNTYWIDE                OVER VOTES                            PRECINCT 1H                                            01 
01050090011000000000000000000000000000000000000REP       United States Senator LIMITED COUNTYWIDE                OVER VOTES                            PRECINCT 1I                                            01 
01050090012000000000000000000000000000000000000REP       United States Senator LIMITED COUNTYWIDE                OVER VOTES                            PRECINCT 2A1A                                          01 
01050090013000000000000000000000000000000000000REP       United States Senator LIMITED COUNTYWIDE                OVER VOTES                            PRECINCT 2B2A                                          01 
01050090014000000000000000000000000000000000000REP       United States Senator LIMITED COUNTYWIDE                OVER VOTES                            PRECINCT 2C3A                                          01 
01050090015000000000000000000000000000000000000REP       United States Senator LIMITED COUNTYWIDE                OVER VOTES                            PRECINCT 2D                                            01 
01050090016000000000000000000000000000000000000REP       United States Senator LIMITED COUNTYWIDE                OVER VOTES                            PRECINCT 2E                                            01 
01050090017000000000000000000000000000000000000REP       United States Senator LIMITED COUNTYWIDE                OVER VOTES                            PRECINCT 2F                                            01 
01050090018000000000000000000000000000000000000REP       United States Senator LIMITED COUNTYWIDE                OVER VOTES                            PRECINCT 2G                                            01 
01050090020000001000000000000000001000000000000REP       United States Senator LIMITED COUNTYWIDE                OVER VOTES                            PRECINCT 3C7G                                          01 
01050090021000000000000000000000000000000000000REP       United States Senator LIMITED COUNTYWIDE                OVER VOTES                            PRECINCT 3D                                            01 
01050090022000000000000000000000000000000000000REP       United States Senator LIMITED COUNTYWIDE                OVER VOTES                            PRECINCT 3E                                            01 
01050090023000000000000000000000000000000000000REP       United States Senator LIMITED COUNTYWIDE                OVER VOTES                            PRECINCT 3F                                            01 
01050090024000001000000000000000001000000000000REP       United States Senator LIMITED COUNTYWIDE                OVER VOTES                            PRECINCT 3G                                            01 
01050090025000000000000000000000000000000000000REP       United States Senator LIMITED COUNTYWIDE                OVER VOTES                            PRECINCT 3H3C                                          01 
01050090026000001000000000000000001000000000000REP       United States Senator LIMITED COUNTYWIDE                OVER VOTES                            PRECINCT 3I                                            01 
01050090027000000000000000000000000000000000000REP       United States Senator LIMITED COUNTYWIDE                OVER VOTES                            PRECINCT 4A6E                                          01 
01050090028000000000000000000000000000000000000REP       United States Senator LIMITED COUNTYWIDE                OVER VOTES                            PRECINCT 4B                                            01 
01050090029000000000000000000000000000000000000REP       United States Senator LIMITED COUNTYWIDE                OVER VOTES                            PRECINCT 4C                                            01 
01050090030000000000000000000000000000000000000REP       United States Senator LIMITED COUNTYWIDE                OVER VOTES                            PRECINCT 4D                                            01 
01050090031000000000000000000000000000000000000REP       United States Senator LIMITED COUNTYWIDE                OVER VOTES                            PRECINCT 4E                                            01 
01050090032000000000000000000000000000000000000REP       United States Senator LIMITED COUNTYWIDE                OVER VOTES                            PRECINCT 4F                                            01 
01050090033000000000000000000000000000000000000REP       United States Senator LIMITED COUNTYWIDE                OVER VOTES                            PRECINCT 4G                                            01 
01050100001000012000006000003000003000000000000REP       United States Senator LIMITED COUNTYWIDE                UNDER VOTES                           PRECINCT 1A3B                                          01 
01050100002000016000010000003000003000000000000REP       United States Senator LIMITED COUNTYWIDE                UNDER VOTES                           PRECINCT 1A5A                                          01 
01050100003000003000000000000000003000000000000REP       United States Senator LIMITED COUNTYWIDE                UNDER VOTES                           PRECINCT 1B                                            01 
01050100004000008000003000000000005000000000000REP       United States Senator LIMITED COUNTYWIDE                UNDER VOTES                           PRECINCT 1C                                            01 
01050100005000017000006000002000009000000000000REP       United States Senator LIMITED COUNTYWIDE                UNDER VOTES                           PRECINCT 1D                                            01 
01050100006000019000005000000000014000000000000REP       United States Senator LIMITED COUNTYWIDE                UNDER VOTES                           PRECINCT 1E                                            01 
01050100007000017000010000002000005000000000000REP       United States Senator LIMITED COUNTYWIDE                UNDER VOTES                           PRECINCT 1E7C                                          01 
01050100008000007000005000000000002000000000000REP       United States Senator LIMITED COUNTYWIDE                UNDER VOTES                           PRECINCT 1F                                            01 
01050100009000008000003000002000003000000000000REP       United States Senator LIMITED COUNTYWIDE                UNDER VOTES                           PRECINCT 1G                                            01 
01050100010000010000004000001000005000000000000REP       United States Senator LIMITED COUNTYWIDE                UNDER VOTES                           PRECINCT 1H                                            01 
01050100011000009000001000000000008000000000000REP       United States Senator LIMITED COUNTYWIDE                UNDER VOTES                           PRECINCT 1I                                            01 
01050100012000010000005000001000003000001000000REP       United States Senator LIMITED COUNTYWIDE                UNDER VOTES                           PRECINCT 2A1A                                          01 
01050100013000007000006000000000001000000000000REP       United States Senator LIMITED COUNTYWIDE                UNDER VOTES                           PRECINCT 2B2A                                          01 
01050100014000015000008000001000006000000000000REP       United States Senator LIMITED COUNTYWIDE                UNDER VOTES                           PRECINCT 2C3A                                          01 
01050100015000034000008000000000026000000000000REP       United States Senator LIMITED COUNTYWIDE                UNDER VOTES                           PRECINCT 2D                                            01 
01050100016000024000009000001000014000000000000REP       United States Senator LIMITED COUNTYWIDE                UNDER VOTES                           PRECINCT 2E                                            01 
01050100017000006000002000002000002000000000000REP       United States Senator LIMITED COUNTYWIDE                UNDER VOTES                           PRECINCT 2F                                            01 
01050100018000021000010000000000011000000000000REP       United States Senator LIMITED COUNTYWIDE                UNDER VOTES                           PRECINCT 2G                                            01 
01050100020000059000037000002000019000001000000REP       United States Senator LIMITED COUNTYWIDE                UNDER VOTES                           PRECINCT 3C7G                                          01 
01050100021000009000002000000000007000000000000REP       United States Senator LIMITED COUNTYWIDE                UNDER VOTES                           PRECINCT 3D                                            01 
01050100022000039000020000001000018000000000000REP       United States Senator LIMITED COUNTYWIDE                UNDER VOTES                           PRECINCT 3E                                            01 
01050100023000011000004000000000007000000000000REP       United States Senator LIMITED COUNTYWIDE                UNDER VOTES                           PRECINCT 3F                                            01 
01050100024000014000009000000000005000000000000REP       United States Senator LIMITED COUNTYWIDE                UNDER VOTES                           PRECINCT 3G                                            01 
01050100025000010000004000000000006000000000000REP       United States Senator LIMITED COUNTYWIDE                UNDER VOTES                           PRECINCT 3H3C                                          01 
01050100026000026000015000004000007000000000000REP       United States Senator LIMITED COUNTYWIDE                UNDER VOTES                           PRECINCT 3I                                            01 
01050100027000018000016000002000000000000000000REP       United States Senator LIMITED COUNTYWIDE                UNDER VOTES                           PRECINCT 4A6E                                          01 
01050100028000017000007000001000009000000000000REP       United States Senator LIMITED COUNTYWIDE                UNDER VOTES                           PRECINCT 4B                                            01 
01050100029000005000002000000000003000000000000REP       United States Senator LIMITED COUNTYWIDE                UNDER VOTES                           PRECINCT 4C                                            01 
01050100030000034000005000001000028000000000000REP       United States Senator LIMITED COUNTYWIDE                UNDER VOTES                           PRECINCT 4D                                            01 
01050100031000022000007000000000015000000000000REP       United States Senator LIMITED COUNTYWIDE                UNDER VOTES                           PRECINCT 4E                                            01 
01050100032000039000016000000000023000000000000REP       United States Senator LIMITED COUNTYWIDE                UNDER VOTES                           PRECINCT 4F                                            01 
01050100033000049000028000001000020000000000000REP       United States Senator LIMITED COUNTYWIDE                UNDER VOTES                           PRECINCT 4G                                            01 
01060010001000027000020000000000007000000000000REP       United States Representative, District 4                John Ratcliffe                        PRECINCT 1A3B                                          01 
01060010002000038000021000003000014000000000000REP       United States Representative, District 4                John Ratcliffe                        PRECINCT 1A5A                                          01 
01060010003000015000003000000000012000000000000REP       United States Representative, District 4                John Ratcliffe                        PRECINCT 1B                                            01 
01060010004000026000011000002000013000000000000REP       United States Representative, District 4                John Ratcliffe                        PRECINCT 1C                                            01 
01060010005000037000022000001000013000001000000REP       United States Representative, District 4                John Ratcliffe                        PRECINCT 1D                                            01 
01060010006000035000013000000000022000000000000REP       United States Representative, District 4                John Ratcliffe                        PRECINCT 1E                                            01 
01060010007000072000042000008000022000000000000REP       United States Representative, District 4                John Ratcliffe                        PRECINCT 1E7C                                          01 
01060010008000027000012000001000014000000000000REP       United States Representative, District 4                John Ratcliffe                        PRECINCT 1F                                            01 
01060010009000023000004000004000015000000000000REP       United States Representative, District 4                John Ratcliffe                        PRECINCT 1G                                            01 
01060010010000023000010000000000013000000000000REP       United States Representative, District 4                John Ratcliffe                        PRECINCT 1H                                            01 
01060010011000006000000000000000006000000000000REP       United States Representative, District 4                John Ratcliffe                        PRECINCT 1I                                            01 
01060010012000015000007000002000006000000000000REP       United States Representative, District 4                John Ratcliffe                        PRECINCT 2A1A                                          01 
01060010013000017000008000000000009000000000000REP       United States Representative, District 4                John Ratcliffe                        PRECINCT 2B2A                                          01 
01060010014000056000028000004000024000000000000REP       United States Representative, District 4                John Ratcliffe                        PRECINCT 2C3A                                          01 
01060010015000039000008000002000029000000000000REP       United States Representative, District 4                John Ratcliffe                        PRECINCT 2D                                            01 
01060010016000045000019000000000026000000000000REP       United States Representative, District 4                John Ratcliffe                        PRECINCT 2E                                            01 
01060010017000009000000000000000009000000000000REP       United States Representative, District 4                John Ratcliffe                        PRECINCT 2F                                            01 
01060010018000029000018000000000011000000000000REP       United States Representative, District 4                John Ratcliffe                        PRECINCT 2G                                            01 
01060010020000172000097000016000059000000000000REP       United States Representative, District 4                John Ratcliffe                        PRECINCT 3C7G                                          01 
01060010021000032000010000001000021000000000000REP       United States Representative, District 4                John Ratcliffe                        PRECINCT 3D                                            01 
01060010022000067000028000005000034000000000000REP       United States Representative, District 4                John Ratcliffe                        PRECINCT 3E                                            01 
01060010023000030000015000002000013000000000000REP       United States Representative, District 4                John Ratcliffe                        PRECINCT 3F                                            01 
01060010024000028000013000002000013000000000000REP       United States Representative, District 4                John Ratcliffe                        PRECINCT 3G                                            01 
01060010025000025000014000002000007000002000000REP       United States Representative, District 4                John Ratcliffe                        PRECINCT 3H3C                                          01 
01060010026000072000040000009000023000000000000REP       United States Representative, District 4                John Ratcliffe                        PRECINCT 3I                                            01 
