01010010001000957000000000000000000000000000000          REGISTERED VOTERS - TOTAL                               REGISTERED VOTERS - TOTAL             PRECINCT 1A3B                                          00 
01010010002001700000000000000000000000000000000          REGISTERED VOTERS - TOTAL                               REGISTERED VOTERS - TOTAL             PRECINCT 1A5A                                          00 
01010010003000184000000000000000000000000000000          REGISTERED VOTERS - TOTAL                               REGISTERED VOTERS - TOTAL             PRECINCT 1B                                            00 
01010010004000271000000000000000000000000000000          REGISTERED VOTERS - TOTAL                               REGISTERED VOTERS - TOTAL             PRECINCT 1C                                            00 
01010010005000565000000000000000000000000000000          REGISTERED VOTERS - TOTAL                               REGISTERED VOTERS - TOTAL             PRECINCT 1D                                            00 
01010010006000664000000000000000000000000000000          REGISTERED VOTERS - TOTAL                               REGISTERED VOTERS - TOTAL             PRECINCT 1E                                            00 
01010010007000966000000000000000000000000000000          REGISTERED VOTERS - TOTAL                               REGISTERED VOTERS - TOTAL             PRECINCT 1E7C                                          00 
01010010008000751000000000000000000000000000000          REGISTERED VOTERS - TOTAL                               REGISTERED VOTERS - TOTAL             PRECINCT 1F                                            00 
01010010009000520000000000000000000000000000000          REGISTERED VOTERS - TOTAL                               REGISTERED VOTERS - TOTAL             PRECINCT 1G                                            00 
01010010010000478000000000000000000000000000000          REGISTERED VOTERS - TOTAL                               REGISTERED VOTERS - TOTAL             PRECINCT 1H                                            00 
01010010011000138000000000000000000000000000000          REGISTERED VOTERS - TOTAL                               REGISTERED VOTERS - TOTAL             PRECINCT 1I                                            00 
01010010012001324000000000000000000000000000000          REGISTERED VOTERS - TOTAL                               REGISTERED VOTERS - TOTAL             PRECINCT 2A1A                                          00 
01010010013001709000000000000000000000000000000          REGISTERED VOTERS - TOTAL                               REGISTERED VOTERS - TOTAL             PRECINCT 2B2A                                          00 
01010010014001630000000000000000000000000000000          REGISTERED VOTERS - TOTAL                               REGISTERED VOTERS - TOTAL             PRECINCT 2C3A                                          00 
01010010015000648000000000000000000000000000000          REGISTERED VOTERS - TOTAL                               REGISTERED VOTERS - TOTAL             PRECINCT 2D                                            00 
01010010016000535000000000000000000000000000000          REGISTERED VOTERS - TOTAL                               REGISTERED VOTERS - TOTAL             PRECINCT 2E                                            00 
01010010017000182000000000000000000000000000000          REGISTERED VOTERS - TOTAL                               REGISTERED VOTERS - TOTAL             PRECINCT 2F                                            00 
01010010018000559000000000000000000000000000000          REGISTERED VOTERS - TOTAL                               REGISTERED VOTERS - TOTAL             PRECINCT 2G                                            00 
01010010020002815000000000000000000000000000000          REGISTERED VOTERS - TOTAL                               REGISTERED VOTERS - TOTAL             PRECINCT 3C7G                                          00 
01010010021000725000000000000000000000000000000          REGISTERED VOTERS - TOTAL                               REGISTERED VOTERS - TOTAL             PRECINCT 3D                                            00 
01010010022001027000000000000000000000000000000          REGISTERED VOTERS - TOTAL                               REGISTERED VOTERS - TOTAL             PRECINCT 3E                                            00 
01010010023000435000000000000000000000000000000          REGISTERED VOTERS - TOTAL                               REGISTERED VOTERS - TOTAL             PRECINCT 3F                                            00 
01010010024000532000000000000000000000000000000          REGISTERED VOTERS - TOTAL                               REGISTERED VOTERS - TOTAL             PRECINCT 3G                                            00 
01010010025000773000000000000000000000000000000          REGISTERED VOTERS - TOTAL                               REGISTERED VOTERS - TOTAL             PRECINCT 3H3C                                          00 
01010010026001154000000000000000000000000000000          REGISTERED VOTERS - TOTAL                               REGISTERED VOTERS - TOTAL             PRECINCT 3I                                            00 
01010010027001348000000000000000000000000000000          REGISTERED VOTERS - TOTAL                               REGISTERED VOTERS - TOTAL             PRECINCT 4A6E                                          00 
01010010028001606000000000000000000000000000000          REGISTERED VOTERS - TOTAL                               REGISTERED VOTERS - TOTAL             PRECINCT 4B                                            00 
01010010029000311000000000000000000000000000000          REGISTERED VOTERS - TOTAL                               REGISTERED VOTERS - TOTAL             PRECINCT 4C                                            00 
01010010030001345000000000000000000000000000000          REGISTERED VOTERS - TOTAL                               REGISTERED VOTERS - TOTAL             PRECINCT 4D                                            00 
01010010031000607000000000000000000000000000000          REGISTERED VOTERS - TOTAL                               REGISTERED VOTERS - TOTAL             PRECINCT 4E                                            00 
01010010032001616000000000000000000000000000000          REGISTERED VOTERS - TOTAL                               REGISTERED VOTERS - TOTAL             PRECINCT 4F                                            00 
01010010033001616000000000000000000000000000000          REGISTERED VOTERS - TOTAL                               REGISTERED VOTERS - TOTAL             PRECINCT 4G                                            00 
01020010001000288000157000042000089000000000000          BALLOTS CAST - TOTAL                                    BALLOTS CAST - TOTAL                  PRECINCT 1A3B                                          00 
01020010002000394000199000058000137000000000000          BALLOTS CAST - TOTAL                                    BALLOTS CAST - TOTAL                  PRECINCT 1A5A                                          00 
01020010003000106000026000012000068000000000000          BALLOTS CAST - TOTAL                                    BALLOTS CAST - TOTAL                  PRECINCT 1B                                            00 
01020010004000124000047000012000065000000000000          BALLOTS CAST - TOTAL                                    BALLOTS CAST - TOTAL                  PRECINCT 1C                                            00 
01020010005000216000084000015000116000001000000          BALLOTS CAST - TOTAL                                    BALLOTS CAST - TOTAL                  PRECINCT 1D                                            00 
01020010006000274000072000009000193000000000000          BALLOTS CAST - TOTAL                                    BALLOTS CAST - TOTAL                  PRECINCT 1E                                            00 
01020010007000458000237000063000157000001000000          BALLOTS CAST - TOTAL                                    BALLOTS CAST - TOTAL                  PRECINCT 1E7C                                          00 
01020010008000289000100000020000169000000000000          BALLOTS CAST - TOTAL                                    BALLOTS CAST - TOTAL                  PRECINCT 1F                                            00 
01020010009000201000046000019000136000000000000          BALLOTS CAST - TOTAL                                    BALLOTS CAST - TOTAL                  PRECINCT 1G                                            00 
01020010010000194000061000010000123000000000000          BALLOTS CAST - TOTAL                                    BALLOTS CAST - TOTAL                  PRECINCT 1H                                            00 
01020010011000056000005000003000048000000000000          BALLOTS CAST - TOTAL                                    BALLOTS CAST - TOTAL                  PRECINCT 1I                                            00 
01020010012000363000157000034000171000001000000          BALLOTS CAST - TOTAL                                    BALLOTS CAST - TOTAL                  PRECINCT 2A1A                                          00 
01020010013000307000142000021000144000000000000          BALLOTS CAST - TOTAL                                    BALLOTS CAST - TOTAL                  PRECINCT 2B2A                                          00 
01020010014000455000179000063000211000002000000          BALLOTS CAST - TOTAL                                    BALLOTS CAST - TOTAL                  PRECINCT 2C3A                                          00 
01020010015000264000066000017000181000000000000          BALLOTS CAST - TOTAL                                    BALLOTS CAST - TOTAL                  PRECINCT 2D                                            00 
01020010016000226000076000016000133000001000000          BALLOTS CAST - TOTAL                                    BALLOTS CAST - TOTAL                  PRECINCT 2E                                            00 
01020010017000069000011000005000053000000000000          BALLOTS CAST - TOTAL                                    BALLOTS CAST - TOTAL                  PRECINCT 2F                                            00 
01020010018000224000084000015000124000001000000          BALLOTS CAST - TOTAL                                    BALLOTS CAST - TOTAL                  PRECINCT 2G                                            00 
01020010020001081000549000152000380000000000000          BALLOTS CAST - TOTAL                                    BALLOTS CAST - TOTAL                  PRECINCT 3C7G                                          00 
01020010021000278000079000026000172000001000000          BALLOTS CAST - TOTAL                                    BALLOTS CAST - TOTAL                  PRECINCT 3D                                            00 
01020010022000528000192000026000310000000000000          BALLOTS CAST - TOTAL                                    BALLOTS CAST - TOTAL                  PRECINCT 3E                                            00 
01020010023000204000069000010000125000000000000          BALLOTS CAST - TOTAL                                    BALLOTS CAST - TOTAL                  PRECINCT 3F                                            00 
01020010024000241000104000015000122000000000000          BALLOTS CAST - TOTAL                                    BALLOTS CAST - TOTAL                  PRECINCT 3G                                            00 
01020010025000225000102000045000074000004000000          BALLOTS CAST - TOTAL                                    BALLOTS CAST - TOTAL                  PRECINCT 3H3C                                          00 
01020010026000490000266000057000167000000000000          BALLOTS CAST - TOTAL                                    BALLOTS CAST - TOTAL                  PRECINCT 3I                                            00 
01020010027000627000324000093000210000000000000          BALLOTS CAST - TOTAL                                    BALLOTS CAST - TOTAL                  PRECINCT 4A6E                                          00 
01020010028000621000197000062000361000001000000          BALLOTS CAST - TOTAL                                    BALLOTS CAST - TOTAL                  PRECINCT 4B                                            00 
01020010029000125000030000005000090000000000000          BALLOTS CAST - TOTAL                                    BALLOTS CAST - TOTAL                  PRECINCT 4C                                            00 
01020010030000492000148000030000313000001000000          BALLOTS CAST - TOTAL                                    BALLOTS CAST - TOTAL                  PRECINCT 4D                                            00 
01020010031000238000057000015000165000001000000          BALLOTS CAST - TOTAL                                    BALLOTS CAST - TOTAL                  PRECINCT 4E                                            00 
01020010032000622000293000054000275000000000000          BALLOTS CAST - TOTAL                                    BALLOTS CAST - TOTAL                  PRECINCT 4F                                            00 
01020010033000742000375000049000317000001000000          BALLOTS CAST - TOTAL                                    BALLOTS CAST - TOTAL                  PRECINCT 4G                                            00 
01030010001000087000051000016000020000000000000REP       Straight Party                                          Republican Party                      PRECINCT 1A3B                                          01 
01030010002000086000042000012000032000000000000REP       Straight Party                                          Republican Party                      PRECINCT 1A5A                                          01 
01030010003000028000003000004000021000000000000REP       Straight Party                                          Republican Party                      PRECINCT 1B                                            01 
01030010004000047000017000005000025000000000000REP       Straight Party                                          Republican Party                      PRECINCT 1C                                            01 
01030010005000079000030000004000045000000000000REP       Straight Party                                          Republican Party                      PRECINCT 1D                                            01 
01030010006000085000021000005000059000000000000REP       Straight Party                                          Republican Party                      PRECINCT 1E                                            01 
01030010007000135000063000014000058000000000000REP       Straight Party                                          Republican Party                      PRECINCT 1E7C                                          01 
01030010008000102000038000008000056000000000000REP       Straight Party                                          Republican Party                      PRECINCT 1F                                            01 
01030010009000058000013000000000045000000000000REP       Straight Party                                          Republican Party                      PRECINCT 1G                                            01 
01030010010000062000017000002000043000000000000REP       Straight Party                                          Republican Party                      PRECINCT 1H                                            01 
01030010011000021000004000002000015000000000000REP       Straight Party                                          Republican Party                      PRECINCT 1I                                            01 
01030010012000040000022000002000016000000000000REP       Straight Party                                          Republican Party                      PRECINCT 2A1A                                          01 
01030010013000033000017000002000014000000000000REP       Straight Party                                          Republican Party                      PRECINCT 2B2A                                          01 
01030010014000099000042000012000044000001000000REP       Straight Party                                          Republican Party                      PRECINCT 2C3A                                          01 
01030010015000058000019000005000034000000000000REP       Straight Party                                          Republican Party                      PRECINCT 2D                                            01 
01030010016000055000016000003000036000000000000REP       Straight Party                                          Republican Party                      PRECINCT 2E                                            01 
01030010017000028000010000002000016000000000000REP       Straight Party                                          Republican Party                      PRECINCT 2F                                            01 
01030010018000063000023000002000038000000000000REP       Straight Party                                          Republican Party                      PRECINCT 2G                                            01 
01030010020000267000102000060000105000000000000REP       Straight Party                                          Republican Party                      PRECINCT 3C7G                                          01 
01030010021000109000024000015000070000000000000REP       Straight Party                                          Republican Party                      PRECINCT 3D                                            01 
01030010022000194000062000007000125000000000000REP       Straight Party                                          Republican Party                      PRECINCT 3E                                            01 
01030010023000062000022000004000036000000000000REP       Straight Party                                          Republican Party                      PRECINCT 3F                                            01 
01030010024000077000031000008000038000000000000REP       Straight Party                                          Republican Party                      PRECINCT 3G                                            01 
01030010025000068000035000010000020000003000000REP       Straight Party                                          Republican Party                      PRECINCT 3H3C                                          01 
01030010026000188000086000025000077000000000000REP       Straight Party                                          Republican Party                      PRECINCT 3I                                            01 
01030010027000181000079000040000062000000000000REP       Straight Party                                          Republican Party                      PRECINCT 4A6E                                          01 
01030010028000240000068000031000141000000000000REP       Straight Party                                          Republican Party                      PRECINCT 4B                                            01 
01030010029000044000010000002000032000000000000REP       Straight Party                                          Republican Party                      PRECINCT 4C                                            01 
01030010030000190000040000020000129000001000000REP       Straight Party                                          Republican Party                      PRECINCT 4D                                            01 
01030010031000081000018000007000056000000000000REP       Straight Party                                          Republican Party                      PRECINCT 4E                                            01 
01030010032000229000089000027000113000000000000REP       Straight Party                                          Republican Party                      PRECINCT 4F                                            01 
01030010033000213000093000015000105000000000000REP       Straight Party                                          Republican Party                      PRECINCT 4G                                            01 
01030020001000050000021000005000024000000000000DEM       Straight Party                                          Democratic Party                      PRECINCT 1A3B                                          01 
01030020002000086000039000018000029000000000000DEM       Straight Party                                          Democratic Party                      PRECINCT 1A5A                                          01 
01030020003000006000001000001000004000000000000DEM       Straight Party                                          Democratic Party                      PRECINCT 1B                                            01 
01030020004000008000006000000000002000000000000DEM       Straight Party                                          Democratic Party                      PRECINCT 1C                                            01 
01030020005000017000007000000000010000000000000DEM       Straight Party                                          Democratic Party                      PRECINCT 1D                                            01 
01030020006000026000007000000000019000000000000DEM       Straight Party                                          Democratic Party                      PRECINCT 1E                                            01 
01030020007000045000014000016000014000001000000DEM       Straight Party                                          Democratic Party                      PRECINCT 1E7C                                          01 
01030020008000008000004000000000004000000000000DEM       Straight Party                                          Democratic Party                      PRECINCT 1F                                            01 
01030020009000018000004000003000011000000000000DEM       Straight Party                                          Democratic Party                      PRECINCT 1G                                            01 
01030020010000021000009000000000012000000000000DEM       Straight Party                                          Democratic Party                      PRECINCT 1H                                            01 
01030020011000001000000000000000001000000000000DEM       Straight Party                                          Democratic Party                      PRECINCT 1I                                            01 
01030020012000214000078000015000120000001000000DEM       Straight Party                                          Democratic Party                      PRECINCT 2A1A                                          01 
01030020013000164000067000013000084000000000000DEM       Straight Party                                          Democratic Party                      PRECINCT 2B2A                                          01 
01030020014000128000047000013000068000000000000DEM       Straight Party                                          Democratic Party                      PRECINCT 2C3A                                          01 
01030020015000030000010000004000016000000000000DEM       Straight Party                                          Democratic Party                      PRECINCT 2D                                            01 
01030020016000017000003000003000011000000000000DEM       Straight Party                                          Democratic Party                      PRECINCT 2E                                            01 
01030020017000009000000000001000008000000000000DEM       Straight Party                                          Democratic Party                      PRECINCT 2F                                            01 
01030020018000035000009000002000023000001000000DEM       Straight Party                                          Democratic Party                      PRECINCT 2G                                            01 
01030020020000143000071000012000060000000000000DEM       Straight Party                                          Democratic Party                      PRECINCT 3C7G                                          01 
01030020021000019000007000004000008000000000000DEM       Straight Party                                          Democratic Party                      PRECINCT 3D                                            01 
01030020022000015000006000000000009000000000000DEM       Straight Party                                          Democratic Party                      PRECINCT 3E                                            01 
01030020023000018000007000000000011000000000000DEM       Straight Party                                          Democratic Party                      PRECINCT 3F                                            01 
01030020024000015000011000000000004000000000000DEM       Straight Party                                          Democratic Party                      PRECINCT 3G                                            01 
01030020025000033000004000015000014000000000000DEM       Straight Party                                          Democratic Party                      PRECINCT 3H3C                                          01 
01030020026000024000012000003000009000000000000DEM       Straight Party                                          Democratic Party                      PRECINCT 3I                                            01 
01030020027000047000028000001000018000000000000DEM       Straight Party                                          Democratic Party                      PRECINCT 4A6E                                          01 
01030020028000042000011000005000026000000000000DEM       Straight Party                                          Democratic Party                      PRECINCT 4B                                            01 
01030020029000014000001000000000013000000000000DEM       Straight Party                                          Democratic Party                      PRECINCT 4C                                            01 
01030020030000019000003000003000013000000000000DEM       Straight Party                                          Democratic Party                      PRECINCT 4D                                            01 
01030020031000014000000000002000012000000000000DEM       Straight Party                                          Democratic Party                      PRECINCT 4E                                            01 
01030020032000041000012000008000021000000000000DEM       Straight Party                                          Democratic Party                      PRECINCT 4F                                            01 
01030020033000029000013000004000012000000000000DEM       Straight Party                                          Democratic Party                      PRECINCT 4G                                            01 
01030030001000004000002000000000002000000000000LIB       Straight Party                                          Libertarian Party                     PRECINCT 1A3B                                          01 
01030030002000005000000000001000004000000000000LIB       Straight Party                                          Libertarian Party                     PRECINCT 1A5A                                          01 
01030030003000000000000000000000000000000000000LIB       Straight Party                                          Libertarian Party                     PRECINCT 1B                                            01 
01030030004000000000000000000000000000000000000LIB       Straight Party                                          Libertarian Party                     PRECINCT 1C                                            01 
01030030005000000000000000000000000000000000000LIB       Straight Party                                          Libertarian Party                     PRECINCT 1D                                            01 
01030030006000002000000000000000002000000000000LIB       Straight Party                                          Libertarian Party                     PRECINCT 1E                                            01 
01030030007000002000000000000000002000000000000LIB       Straight Party                                          Libertarian Party                     PRECINCT 1E7C                                          01 
01030030008000002000000000001000001000000000000LIB       Straight Party                                          Libertarian Party                     PRECINCT 1F                                            01 
01030030009000003000001000000000002000000000000LIB       Straight Party                                          Libertarian Party                     PRECINCT 1G                                            01 
01030030010000001000000000000000001000000000000LIB       Straight Party                                          Libertarian Party                     PRECINCT 1H                                            01 
01030030011000001000000000000000001000000000000LIB       Straight Party                                          Libertarian Party                     PRECINCT 1I                                            01 
01030030012000001000001000000000000000000000000LIB       Straight Party                                          Libertarian Party                     PRECINCT 2A1A                                          01 
01030030013000006000000000000000006000000000000LIB       Straight Party                                          Libertarian Party                     PRECINCT 2B2A                                          01 
01030030014000001000001000000000000000000000000LIB       Straight Party                                          Libertarian Party                     PRECINCT 2C3A                                          01 
01030030015000000000000000000000000000000000000LIB       Straight Party                                          Libertarian Party                     PRECINCT 2D                                            01 
01030030016000001000000000000000001000000000000LIB       Straight Party                                          Libertarian Party                     PRECINCT 2E                                            01 
01030030017000000000000000000000000000000000000LIB       Straight Party                                          Libertarian Party                     PRECINCT 2F                                            01 
01030030018000004000001000000000003000000000000LIB       Straight Party                                          Libertarian Party                     PRECINCT 2G                                            01 
01030030020000004000002000001000001000000000000LIB       Straight Party                                          Libertarian Party                     PRECINCT 3C7G                                          01 
01030030021000000000000000000000000000000000000LIB       Straight Party                                          Libertarian Party                     PRECINCT 3D                                            01 
01030030022000001000001000000000000000000000000LIB       Straight Party                                          Libertarian Party                     PRECINCT 3E                                            01 
01030030023000000000000000000000000000000000000LIB       Straight Party                                          Libertarian Party                     PRECINCT 3F                                            01 
01030030024000000000000000000000000000000000000LIB       Straight Party                                          Libertarian Party                     PRECINCT 3G                                            01 
01030030025000001000000000000000001000000000000LIB       Straight Party                                          Libertarian Party                     PRECINCT 3H3C                                          01 
01030030026000002000002000000000000000000000000LIB       Straight Party                                          Libertarian Party                     PRECINCT 3I                                            01 
01030030027000003000001000000000002000000000000LIB       Straight Party                                          Libertarian Party                     PRECINCT 4A6E                                          01 
01030030028000001000000000000000001000000000000LIB       Straight Party                                          Libertarian Party                     PRECINCT 4B                                            01 
01030030029000001000000000000000001000000000000LIB       Straight Party                                          Libertarian Party                     PRECINCT 4C                                            01 
01030030030000002000001000000000001000000000000LIB       Straight Party                                          Libertarian Party                     PRECINCT 4D                                            01 
01030030031000002000001000000000001000000000000LIB       Straight Party                                          Libertarian Party                     PRECINCT 4E                                            01 
01030030032000001000000000000000001000000000000LIB       Straight Party                                          Libertarian Party                     PRECINCT 4F                                            01 
01030030033000002000000000000000002000000000000LIB       Straight Party                                          Libertarian Party                     PRECINCT 4G                                            01 
01030040001000000000000000000000000000000000000GRN       Straight Party                                          Green Party                           PRECINCT 1A3B                                          01 
01030040002000000000000000000000000000000000000GRN       Straight Party                                          Green Party                           PRECINCT 1A5A                                          01 
01030040003000000000000000000000000000000000000GRN       Straight Party                                          Green Party                           PRECINCT 1B                                            01 
01030040004000000000000000000000000000000000000GRN       Straight Party                                          Green Party                           PRECINCT 1C                                            01 
01030040005000000000000000000000000000000000000GRN       Straight Party                                          Green Party                           PRECINCT 1D                                            01 
01030040006000002000000000000000002000000000000GRN       Straight Party                                          Green Party                           PRECINCT 1E                                            01 
01030040007000000000000000000000000000000000000GRN       Straight Party                                          Green Party                           PRECINCT 1E7C                                          01 
01030040008000000000000000000000000000000000000GRN       Straight Party                                          Green Party                           PRECINCT 1F                                            01 
01030040009000000000000000000000000000000000000GRN       Straight Party                                          Green Party                           PRECINCT 1G                                            01 
01030040010000000000000000000000000000000000000GRN       Straight Party                                          Green Party                           PRECINCT 1H                                            01 
01030040011000000000000000000000000000000000000GRN       Straight Party                                          Green Party                           PRECINCT 1I                                            01 
01030040012000000000000000000000000000000000000GRN       Straight Party                                          Green Party                           PRECINCT 2A1A                                          01 
01030040013000001000000000000000001000000000000GRN       Straight Party                                          Green Party                           PRECINCT 2B2A                                          01 
01030040014000001000001000000000000000000000000GRN       Straight Party                                          Green Party                           PRECINCT 2C3A                                          01 
01030040015000000000000000000000000000000000000GRN       Straight Party                                          Green Party                           PRECINCT 2D                                            01 
01030040016000000000000000000000000000000000000GRN       Straight Party                                          Green Party                           PRECINCT 2E                                            01 
01030040017000000000000000000000000000000000000GRN       Straight Party                                          Green Party                           PRECINCT 2F                                            01 
01030040018000000000000000000000000000000000000GRN       Straight Party                                          Green Party                           PRECINCT 2G                                            01 
01030040020000001000001000000000000000000000000GRN       Straight Party                                          Green Party                           PRECINCT 3C7G                                          01 
01030040021000000000000000000000000000000000000GRN       Straight Party                                          Green Party                           PRECINCT 3D                                            01 
01030040022000000000000000000000000000000000000GRN       Straight Party                                          Green Party                           PRECINCT 3E                                            01 
01030040023000000000000000000000000000000000000GRN       Straight Party                                          Green Party                           PRECINCT 3F                                            01 
01030040024000000000000000000000000000000000000GRN       Straight Party                                          Green Party                           PRECINCT 3G                                            01 
01030040025000000000000000000000000000000000000GRN       Straight Party                                          Green Party                           PRECINCT 3H3C                                          01 
01030040026000000000000000000000000000000000000GRN       Straight Party                                          Green Party                           PRECINCT 3I                                            01 
01030040027000000000000000000000000000000000000GRN       Straight Party                                          Green Party                           PRECINCT 4A6E                                          01 
01030040028000001000001000000000000000000000000GRN       Straight Party                                          Green Party                           PRECINCT 4B                                            01 
01030040029000000000000000000000000000000000000GRN       Straight Party                                          Green Party                           PRECINCT 4C                                            01 
01030040030000000000000000000000000000000000000GRN       Straight Party                                          Green Party                           PRECINCT 4D                                            01 
01030040031000000000000000000000000000000000000GRN       Straight Party                                          Green Party                           PRECINCT 4E                                            01 
01030040032000000000000000000000000000000000000GRN       Straight Party                                          Green Party                           PRECINCT 4F                                            01 
01030040033000000000000000000000000000000000000GRN       Straight Party                                          Green Party                           PRECINCT 4G                                            01 
01030050001000000000000000000000000000000000000          Straight Party                                          OVER VOTES                            PRECINCT 1A3B                                          01 
01030050002000001000001000000000000000000000000          Straight Party                                          OVER VOTES                            PRECINCT 1A5A                                          01 
01030050003000000000000000000000000000000000000          Straight Party                                          OVER VOTES                            PRECINCT 1B                                            01 
01030050004000002000002000000000000000000000000          Straight Party                                          OVER VOTES                            PRECINCT 1C                                            01 
01030050005000000000000000000000000000000000000          Straight Party                                          OVER VOTES                            PRECINCT 1D                                            01 
01030050006000000000000000000000000000000000000          Straight Party                                          OVER VOTES                            PRECINCT 1E                                            01 
01030050007000000000000000000000000000000000000          Straight Party                                          OVER VOTES                            PRECINCT 1E7C                                          01 
01030050008000000000000000000000000000000000000          Straight Party                                          OVER VOTES                            PRECINCT 1F                                            01 
01030050009000000000000000000000000000000000000          Straight Party                                          OVER VOTES                            PRECINCT 1G                                            01 
01030050010000000000000000000000000000000000000          Straight Party                                          OVER VOTES                            PRECINCT 1H                                            01 
01030050011000000000000000000000000000000000000          Straight Party                                          OVER VOTES                            PRECINCT 1I                                            01 
01030050012000000000000000000000000000000000000          Straight Party                                          OVER VOTES                            PRECINCT 2A1A                                          01 
01030050013000002000002000000000000000000000000          Straight Party                                          OVER VOTES                            PRECINCT 2B2A                                          01 
01030050014000000000000000000000000000000000000          Straight Party                                          OVER VOTES                            PRECINCT 2C3A                                          01 
01030050015000000000000000000000000000000000000          Straight Party                                          OVER VOTES                            PRECINCT 2D                                            01 
01030050016000001000001000000000000000000000000          Straight Party                                          OVER VOTES                            PRECINCT 2E                                            01 
01030050017000000000000000000000000000000000000          Straight Party                                          OVER VOTES                            PRECINCT 2F                                            01 
01030050018000000000000000000000000000000000000          Straight Party                                          OVER VOTES                            PRECINCT 2G                                            01 
01030050020000001000000000000000001000000000000          Straight Party                                          OVER VOTES                            PRECINCT 3C7G                                          01 
01030050021000000000000000000000000000000000000          Straight Party                                          OVER VOTES                            PRECINCT 3D                                            01 
01030050022000000000000000000000000000000000000          Straight Party                                          OVER VOTES                            PRECINCT 3E                                            01 
01030050023000000000000000000000000000000000000          Straight Party                                          OVER VOTES                            PRECINCT 3F                                            01 
01030050024000000000000000000000000000000000000          Straight Party                                          OVER VOTES                            PRECINCT 3G                                            01 
01030050025000000000000000000000000000000000000          Straight Party                                          OVER VOTES                            PRECINCT 3H3C                                          01 
01030050026000000000000000000000000000000000000          Straight Party                                          OVER VOTES                            PRECINCT 3I                                            01 
01030050027000000000000000000000000000000000000          Straight Party                                          OVER VOTES                            PRECINCT 4A6E                                          01 
01030050028000001000001000000000000000000000000          Straight Party                                          OVER VOTES                            PRECINCT 4B                                            01 
01030050029000000000000000000000000000000000000          Straight Party                                          OVER VOTES                            PRECINCT 4C                                            01 
01030050030000001000001000000000000000000000000          Straight Party                                          OVER VOTES                            PRECINCT 4D                                            01 
01030050031000000000000000000000000000000000000          Straight Party                                          OVER VOTES                            PRECINCT 4E                                            01 
01030050032000000000000000000000000000000000000          Straight Party                                          OVER VOTES                            PRECINCT 4F                                            01 
01030050033000002000002000000000000000000000000          Straight Party                                          OVER VOTES                            PRECINCT 4G                                            01 
01030060001000147000083000021000043000000000000          Straight Party                                          UNDER VOTES                           PRECINCT 1A3B                                          01 
01030060002000216000117000027000072000000000000          Straight Party                                          UNDER VOTES                           PRECINCT 1A5A                                          01 
01030060003000072000022000007000043000000000000          Straight Party                                          UNDER VOTES                           PRECINCT 1B                                            01 
01030060004000067000022000007000038000000000000          Straight Party                                          UNDER VOTES                           PRECINCT 1C                                            01 
01030060005000120000047000011000061000001000000          Straight Party                                          UNDER VOTES                           PRECINCT 1D                                            01 
01030060006000159000044000004000111000000000000          Straight Party                                          UNDER VOTES                           PRECINCT 1E                                            01 
01030060007000276000160000033000083000000000000          Straight Party                                          UNDER VOTES                           PRECINCT 1E7C                                          01 
01030060008000177000058000011000108000000000000          Straight Party                                          UNDER VOTES                           PRECINCT 1F                                            01 
01030060009000122000028000016000078000000000000          Straight Party                                          UNDER VOTES                           PRECINCT 1G                                            01 
01030060010000110000035000008000067000000000000          Straight Party                                          UNDER VOTES                           PRECINCT 1H                                            01 
01030060011000033000001000001000031000000000000          Straight Party                                          UNDER VOTES                           PRECINCT 1I                                            01 
01030060012000108000056000017000035000000000000          Straight Party                                          UNDER VOTES                           PRECINCT 2A1A                                          01 
01030060013000101000056000006000039000000000000          Straight Party                                          UNDER VOTES                           PRECINCT 2B2A                                          01 
01030060014000226000088000038000099000001000000          Straight Party                                          UNDER VOTES                           PRECINCT 2C3A                                          01 
01030060015000176000037000008000131000000000000          Straight Party                                          UNDER VOTES                           PRECINCT 2D                                            01 
01030060016000152000056000010000085000001000000          Straight Party                                          UNDER VOTES                           PRECINCT 2E                                            01 
01030060017000032000001000002000029000000000000          Straight Party                                          UNDER VOTES                           PRECINCT 2F                                            01 
01030060018000122000051000011000060000000000000          Straight Party                                          UNDER VOTES                           PRECINCT 2G                                            01 
01030060020000665000373000079000213000000000000          Straight Party                                          UNDER VOTES                           PRECINCT 3C7G                                          01 
01030060021000150000048000007000094000001000000          Straight Party                                          UNDER VOTES                           PRECINCT 3D                                            01 
01030060022000318000123000019000176000000000000          Straight Party                                          UNDER VOTES                           PRECINCT 3E                                            01 
01030060023000124000040000006000078000000000000          Straight Party                                          UNDER VOTES                           PRECINCT 3F                                            01 
01030060024000149000062000007000080000000000000          Straight Party                                          UNDER VOTES                           PRECINCT 3G                                            01 
01030060025000123000063000020000039000001000000          Straight Party                                          UNDER VOTES                           PRECINCT 3H3C                                          01 
01030060026000276000166000029000081000000000000          Straight Party                                          UNDER VOTES                           PRECINCT 3I                                            01 
01030060027000396000216000052000128000000000000          Straight Party                                          UNDER VOTES                           PRECINCT 4A6E                                          01 
01030060028000336000116000026000193000001000000          Straight Party                                          UNDER VOTES                           PRECINCT 4B                                            01 
01030060029000066000019000003000044000000000000          Straight Party                                          UNDER VOTES                           PRECINCT 4C                                            01 
01030060030000280000103000007000170000000000000          Straight Party                                          UNDER VOTES                           PRECINCT 4D                                            01 
01030060031000141000038000006000096000001000000          Straight Party                                          UNDER VOTES                           PRECINCT 4E                                            01 
01030060032000351000192000019000140000000000000          Straight Party                                          UNDER VOTES                           PRECINCT 4F                                            01 
01030060033000496000267000030000198000001000000          Straight Party                                          UNDER VOTES                           PRECINCT 4G                                            01 
01040010001000189000108000031000050000000000000REP       United States Senator                                   John Cornyn                           PRECINCT 1A3B                                          01 
01040010002000225000121000030000074000000000000REP       United States Senator                                   John Cornyn                           PRECINCT 1A5A                                          01 
01040010003000084000018000009000057000000000000REP       United States Senator                                   John Cornyn                           PRECINCT 1B                                            01 
01040010004000107000041000012000054000000000000REP       United States Senator                                   John Cornyn                           PRECINCT 1C                                            01 
01040010005000179000071000010000097000001000000REP       United States Senator                                   John Cornyn                           PRECINCT 1D                                            01 
01040010006000201000058000007000136000000000000REP       United States Senator                                   John Cornyn                           PRECINCT 1E                                            01 
01040010007000343000183000038000122000000000000REP       United States Senator                                   John Cornyn                           PRECINCT 1E7C                                          01 
01040010008000242000087000012000143000000000000REP       United States Senator                                   John Cornyn                           PRECINCT 1F                                            01 
01040010009000152000033000013000106000000000000REP       United States Senator                                   John Cornyn                           PRECINCT 1G                                            01 
01040010010000148000042000007000099000000000000REP       United States Senator                                   John Cornyn                           PRECINCT 1H                                            01 
01040010011000045000004000003000038000000000000REP       United States Senator                                   John Cornyn                           PRECINCT 1I                                            01 
01040010012000084000048000009000027000000000000REP       United States Senator                                   John Cornyn                           PRECINCT 2A1A                                          01 
01040010013000085000046000003000036000000000000REP       United States Senator                                   John Cornyn                           PRECINCT 2B2A                                          01 
01040010014000247000100000042000104000001000000REP       United States Senator                                   John Cornyn                           PRECINCT 2C3A                                          01 
01040010015000171000040000009000122000000000000REP       United States Senator                                   John Cornyn                           PRECINCT 2D                                            01 
01040010016000172000061000013000097000001000000REP       United States Senator                                   John Cornyn                           PRECINCT 2E                                            01 
01040010017000055000011000003000041000000000000REP       United States Senator                                   John Cornyn                           PRECINCT 2F                                            01 
01040010018000151000057000011000083000000000000REP       United States Senator                                   John Cornyn                           PRECINCT 2G                                            01 
01040010020000775000389000124000262000000000000REP       United States Senator                                   John Cornyn                           PRECINCT 3C7G                                          01 
01040010021000227000064000021000141000001000000REP       United States Senator                                   John Cornyn                           PRECINCT 3D                                            01 
01040010022000441000162000023000256000000000000REP       United States Senator                                   John Cornyn                           PRECINCT 3E                                            01 
01040010023000153000050000010000093000000000000REP       United States Senator                                   John Cornyn                           PRECINCT 3F                                            01 
01040010024000195000077000013000105000000000000REP       United States Senator                                   John Cornyn                           PRECINCT 3G                                            01 
01040010025000161000082000027000048000004000000REP       United States Senator                                   John Cornyn                           PRECINCT 3H3C                                          01 
01040010026000417000227000048000142000000000000REP       United States Senator                                   John Cornyn                           PRECINCT 3I                                            01 
01040010027000476000248000078000150000000000000REP       United States Senator                                   John Cornyn                           PRECINCT 4A6E                                          01 
01040010028000492000164000048000280000000000000REP       United States Senator                                   John Cornyn                           PRECINCT 4B                                            01 
01040010029000100000024000005000071000000000000REP       United States Senator                                   John Cornyn                           PRECINCT 4C                                            01 
01040010030000418000123000026000268000001000000REP       United States Senator                                   John Cornyn                           PRECINCT 4D                                            01 
01040010031000187000047000013000126000001000000REP       United States Senator                                   John Cornyn                           PRECINCT 4E                                            01 
01040010032000511000251000042000218000000000000REP       United States Senator                                   John Cornyn                           PRECINCT 4F                                            01 
01040010033000629000316000042000270000001000000REP       United States Senator                                   John Cornyn                           PRECINCT 4G                                            01 
01040020001000082000040000010000032000000000000DEM       United States Senator                                   David M. Alameel                      PRECINCT 1A3B                                          01 
01040020002000131000063000024000044000000000000DEM       United States Senator                                   David M. Alameel                      PRECINCT 1A5A                                          01 
01040020003000013000004000003000006000000000000DEM       United States Senator                                   David M. Alameel                      PRECINCT 1B                                            01 
01040020004000010000006000000000004000000000000DEM       United States Senator                                   David M. Alameel                      PRECINCT 1C                                            01 
01040020005000028000010000004000014000000000000DEM       United States Senator                                   David M. Alameel                      PRECINCT 1D                                            01 
01040020006000052000009000002000041000000000000DEM       United States Senator                                   David M. Alameel                      PRECINCT 1E                                            01 
01040020007000087000041000022000023000001000000DEM       United States Senator                                   David M. Alameel                      PRECINCT 1E7C                                          01 
01040020008000030000009000003000018000000000000DEM       United States Senator                                   David M. Alameel                      PRECINCT 1F                                            01 
01040020009000035000006000004000025000000000000DEM       United States Senator                                   David M. Alameel                      PRECINCT 1G                                            01 
01040020010000033000015000000000018000000000000DEM       United States Senator                                   David M. Alameel                      PRECINCT 1H                                            01 
01040020011000005000001000000000004000000000000DEM       United States Senator                                   David M. Alameel                      PRECINCT 1I                                            01 
01040020012000266000103000022000140000001000000DEM       United States Senator                                   David M. Alameel                      PRECINCT 2A1A                                          01 
01040020013000208000091000018000099000000000000DEM       United States Senator                                   David M. Alameel                      PRECINCT 2B2A                                          01 
01040020014000177000062000020000095000000000000DEM       United States Senator                                   David M. Alameel                      PRECINCT 2C3A                                          01 
01040020015000055000015000007000033000000000000DEM       United States Senator                                   David M. Alameel                      PRECINCT 2D                                            01 
01040020016000037000011000003000023000000000000DEM       United States Senator                                   David M. Alameel                      PRECINCT 2E                                            01 
01040020017000012000000000001000011000000000000DEM       United States Senator                                   David M. Alameel                      PRECINCT 2F                                            01 
01040020018000056000020000004000031000001000000DEM       United States Senator                                   David M. Alameel                      PRECINCT 2G                                            01 
01040020020000250000129000026000095000000000000DEM       United States Senator                                   David M. Alameel                      PRECINCT 3C7G                                          01 
01040020021000042000012000005000025000000000000DEM       United States Senator                                   David M. Alameel                      PRECINCT 3D                                            01 
01040020022000053000016000001000036000000000000DEM       United States Senator                                   David M. Alameel                      PRECINCT 3E                                            01 
01040020023000040000015000000000025000000000000DEM       United States Senator                                   David M. Alameel                      PRECINCT 3F                                            01 
01040020024000029000016000001000012000000000000DEM       United States Senator                                   David M. Alameel                      PRECINCT 3G                                            01 
01040020025000049000012000016000021000000000000DEM       United States Senator                                   David M. Alameel                      PRECINCT 3H3C                                          01 
01040020026000045000022000005000018000000000000DEM       United States Senator                                   David M. Alameel                      PRECINCT 3I                                            01 
01040020027000113000057000011000045000000000000DEM       United States Senator                                   David M. Alameel                      PRECINCT 4A6E                                          01 
01040020028000094000027000012000055000000000000DEM       United States Senator                                   David M. Alameel                      PRECINCT 4B                                            01 
01040020029000019000003000000000016000000000000DEM       United States Senator                                   David M. Alameel                      PRECINCT 4C                                            01 
01040020030000039000011000003000025000000000000DEM       United States Senator                                   David M. Alameel                      PRECINCT 4D                                            01 
01040020031000032000004000002000026000000000000DEM       United States Senator                                   David M. Alameel                      PRECINCT 4E                                            01 
01040020032000082000027000009000046000000000000DEM       United States Senator                                   David M. Alameel                      PRECINCT 4F                                            01 
01040020033000070000039000006000025000000000000DEM       United States Senator                                   David M. Alameel                      PRECINCT 4G                                            01 
01040030001000010000004000001000005000000000000LIB       United States Senator                                   Rebecca Paddock                       PRECINCT 1A3B                                          01 
01040030002000021000008000002000011000000000000LIB       United States Senator                                   Rebecca Paddock                       PRECINCT 1A5A                                          01 
01040030003000005000003000000000002000000000000LIB       United States Senator                                   Rebecca Paddock                       PRECINCT 1B                                            01 
01040030004000003000000000000000003000000000000LIB       United States Senator                                   Rebecca Paddock                       PRECINCT 1C                                            01 
01040030005000006000002000001000003000000000000LIB       United States Senator                                   Rebecca Paddock                       PRECINCT 1D                                            01 
01040030006000010000001000000000009000000000000LIB       United States Senator                                   Rebecca Paddock                       PRECINCT 1E                                            01 
01040030007000012000006000001000005000000000000LIB       United States Senator                                   Rebecca Paddock                       PRECINCT 1E7C                                          01 
01040030008000012000003000005000004000000000000LIB       United States Senator                                   Rebecca Paddock                       PRECINCT 1F                                            01 
01040030009000005000002000001000002000000000000LIB       United States Senator                                   Rebecca Paddock                       PRECINCT 1G                                            01 
01040030010000003000001000001000001000000000000LIB       United States Senator                                   Rebecca Paddock                       PRECINCT 1H                                            01 
01040030011000000000000000000000000000000000000LIB       United States Senator                                   Rebecca Paddock                       PRECINCT 1I                                            01 
01040030012000003000001000002000000000000000000LIB       United States Senator                                   Rebecca Paddock                       PRECINCT 2A1A                                          01 
01040030013000007000002000000000005000000000000LIB       United States Senator                                   Rebecca Paddock                       PRECINCT 2B2A                                          01 
01040030014000015000009000001000005000000000000LIB       United States Senator                                   Rebecca Paddock                       PRECINCT 2C3A                                          01 
01040030015000011000004000000000007000000000000LIB       United States Senator                                   Rebecca Paddock                       PRECINCT 2D                                            01 
01040030016000002000000000000000002000000000000LIB       United States Senator                                   Rebecca Paddock                       PRECINCT 2E                                            01 
01040030017000000000000000000000000000000000000LIB       United States Senator                                   Rebecca Paddock                       PRECINCT 2F                                            01 
01040030018000008000002000000000006000000000000LIB       United States Senator                                   Rebecca Paddock                       PRECINCT 2G                                            01 
01040030020000020000010000000000010000000000000LIB       United States Senator                                   Rebecca Paddock                       PRECINCT 3C7G                                          01 
01040030021000005000002000000000003000000000000LIB       United States Senator                                   Rebecca Paddock                       PRECINCT 3D                                            01 
01040030022000014000007000000000007000000000000LIB       United States Senator                                   Rebecca Paddock                       PRECINCT 3E                                            01 
01040030023000001000001000000000000000000000000LIB       United States Senator                                   Rebecca Paddock                       PRECINCT 3F                                            01 
01040030024000006000004000001000001000000000000LIB       United States Senator                                   Rebecca Paddock                       PRECINCT 3G                                            01 
01040030025000004000001000000000003000000000000LIB       United States Senator                                   Rebecca Paddock                       PRECINCT 3H3C                                          01 
01040030026000015000007000003000005000000000000LIB       United States Senator                                   Rebecca Paddock                       PRECINCT 3I                                            01 
01040030027000014000007000003000004000000000000LIB       United States Senator                                   Rebecca Paddock                       PRECINCT 4A6E                                          01 
01040030028000014000003000001000009000001000000LIB       United States Senator                                   Rebecca Paddock                       PRECINCT 4B                                            01 
01040030029000001000000000000000001000000000000LIB       United States Senator                                   Rebecca Paddock                       PRECINCT 4C                                            01 
01040030030000019000008000001000010000000000000LIB       United States Senator                                   Rebecca Paddock                       PRECINCT 4D                                            01 
01040030031000008000003000000000005000000000000LIB       United States Senator                                   Rebecca Paddock                       PRECINCT 4E                                            01 
01040030032000012000005000002000005000000000000LIB       United States Senator                                   Rebecca Paddock                       PRECINCT 4F                                            01 
01040030033000018000009000000000009000000000000LIB       United States Senator                                   Rebecca Paddock                       PRECINCT 4G                                            01 
01040040001000001000001000000000000000000000000GRN       United States Senator                                   Emily "Spicybrown" Sanchez            PRECINCT 1A3B                                          01 
01040040002000005000000000001000004000000000000GRN       United States Senator                                   Emily "Spicybrown" Sanchez            PRECINCT 1A5A                                          01 
01040040003000000000000000000000000000000000000GRN       United States Senator                                   Emily "Spicybrown" Sanchez            PRECINCT 1B                                            01 
01040040004000000000000000000000000000000000000GRN       United States Senator                                   Emily "Spicybrown" Sanchez            PRECINCT 1C                                            01 
01040040005000001000000000000000001000000000000GRN       United States Senator                                   Emily "Spicybrown" Sanchez            PRECINCT 1D                                            01 
01040040006000002000000000000000002000000000000GRN       United States Senator                                   Emily "Spicybrown" Sanchez            PRECINCT 1E                                            01 
01040040007000002000001000000000001000000000000GRN       United States Senator                                   Emily "Spicybrown" Sanchez            PRECINCT 1E7C                                          01 
01040040008000001000000000000000001000000000000GRN       United States Senator                                   Emily "Spicybrown" Sanchez            PRECINCT 1F                                            01 
01040040009000000000000000000000000000000000000GRN       United States Senator                                   Emily "Spicybrown" Sanchez            PRECINCT 1G                                            01 
01040040010000002000002000000000000000000000000GRN       United States Senator                                   Emily "Spicybrown" Sanchez            PRECINCT 1H                                            01 
01040040011000000000000000000000000000000000000GRN       United States Senator                                   Emily "Spicybrown" Sanchez            PRECINCT 1I                                            01 
01040040012000002000002000000000000000000000000GRN       United States Senator                                   Emily "Spicybrown" Sanchez            PRECINCT 2A1A                                          01 
01040040013000005000002000000000003000000000000GRN       United States Senator                                   Emily "Spicybrown" Sanchez            PRECINCT 2B2A                                          01 
01040040014000001000001000000000000000000000000GRN       United States Senator                                   Emily "Spicybrown" Sanchez            PRECINCT 2C3A                                          01 
01040040015000004000002000000000002000000000000GRN       United States Senator                                   Emily "Spicybrown" Sanchez            PRECINCT 2D                                            01 
01040040016000002000001000000000001000000000000GRN       United States Senator                                   Emily "Spicybrown" Sanchez            PRECINCT 2E                                            01 
01040040017000000000000000000000000000000000000GRN       United States Senator                                   Emily "Spicybrown" Sanchez            PRECINCT 2F                                            01 
01040040018000000000000000000000000000000000000GRN       United States Senator                                   Emily "Spicybrown" Sanchez            PRECINCT 2G                                            01 
01040040020000005000005000000000000000000000000GRN       United States Senator                                   Emily "Spicybrown" Sanchez            PRECINCT 3C7G                                          01 
01040040021000001000001000000000000000000000000GRN       United States Senator                                   Emily "Spicybrown" Sanchez            PRECINCT 3D                                            01 
01040040022000002000000000000000002000000000000GRN       United States Senator                                   Emily "Spicybrown" Sanchez            PRECINCT 3E                                            01 
01040040023000000000000000000000000000000000000GRN       United States Senator                                   Emily "Spicybrown" Sanchez            PRECINCT 3F                                            01 
01040040024000001000001000000000000000000000000GRN       United States Senator                                   Emily "Spicybrown" Sanchez            PRECINCT 3G                                            01 
01040040025000002000001000001000000000000000000GRN       United States Senator                                   Emily "Spicybrown" Sanchez            PRECINCT 3H3C                                          01 
01040040026000001000001000000000000000000000000GRN       United States Senator                                   Emily "Spicybrown" Sanchez            PRECINCT 3I                                            01 
01040040027000003000002000000000001000000000000GRN       United States Senator                                   Emily "Spicybrown" Sanchez            PRECINCT 4A6E                                          01 
01040040028000003000001000000000002000000000000GRN       United States Senator                                   Emily "Spicybrown" Sanchez            PRECINCT 4B                                            01 
01040040029000001000000000000000001000000000000GRN       United States Senator                                   Emily "Spicybrown" Sanchez            PRECINCT 4C                                            01 
01040040030000008000002000000000006000000000000GRN       United States Senator                                   Emily "Spicybrown" Sanchez            PRECINCT 4D                                            01 
01040040031000001000001000000000000000000000000GRN       United States Senator                                   Emily "Spicybrown" Sanchez            PRECINCT 4E                                            01 
01040040032000003000002000000000001000000000000GRN       United States Senator                                   Emily "Spicybrown" Sanchez            PRECINCT 4F                                            01 
01040040033000001000001000000000000000000000000GRN       United States Senator                                   Emily "Spicybrown" Sanchez            PRECINCT 4G                                            01 
01040050001000000000000000000000000000000000000NON       United States Senator                                   WRITE-IN                              PRECINCT 1A3B                                          01 
01040050002000000000000000000000000000000000000NON       United States Senator                                   WRITE-IN                              PRECINCT 1A5A                                          01 
01040050003000000000000000000000000000000000000NON       United States Senator                                   WRITE-IN                              PRECINCT 1B                                            01 
01040050004000000000000000000000000000000000000NON       United States Senator                                   WRITE-IN                              PRECINCT 1C                                            01 
01040050005000000000000000000000000000000000000NON       United States Senator                                   WRITE-IN                              PRECINCT 1D                                            01 
01040050006000000000000000000000000000000000000NON       United States Senator                                   WRITE-IN                              PRECINCT 1E                                            01 
01040050007000000000000000000000000000000000000NON       United States Senator                                   WRITE-IN                              PRECINCT 1E7C                                          01 
01040050008000000000000000000000000000000000000NON       United States Senator                                   WRITE-IN                              PRECINCT 1F                                            01 
01040050009000000000000000000000000000000000000NON       United States Senator                                   WRITE-IN                              PRECINCT 1G                                            01 
01040050010000000000000000000000000000000000000NON       United States Senator                                   WRITE-IN                              PRECINCT 1H                                            01 
01040050011000000000000000000000000000000000000NON       United States Senator                                   WRITE-IN                              PRECINCT 1I                                            01 
01040050012000000000000000000000000000000000000NON       United States Senator                                   WRITE-IN                              PRECINCT 2A1A                                          01 
01040050013000000000000000000000000000000000000NON       United States Senator                                   WRITE-IN                              PRECINCT 2B2A                                          01 
01040050014000000000000000000000000000000000000NON       United States Senator                                   WRITE-IN                              PRECINCT 2C3A                                          01 
01040050015000000000000000000000000000000000000NON       United States Senator                                   WRITE-IN                              PRECINCT 2D                                            01 
01040050016000000000000000000000000000000000000NON       United States Senator                                   WRITE-IN                              PRECINCT 2E                                            01 
01040050017000000000000000000000000000000000000NON       United States Senator                                   WRITE-IN                              PRECINCT 2F                                            01 
01040050018000000000000000000000000000000000000NON       United States Senator                                   WRITE-IN                              PRECINCT 2G                                            01 
01040050020000000000000000000000000000000000000NON       United States Senator                                   WRITE-IN                              PRECINCT 3C7G                                          01 
01040050021000000000000000000000000000000000000NON       United States Senator                                   WRITE-IN                              PRECINCT 3D                                            01 
01040050022000000000000000000000000000000000000NON       United States Senator                                   WRITE-IN                              PRECINCT 3E                                            01 
01040050023000000000000000000000000000000000000NON       United States Senator                                   WRITE-IN                              PRECINCT 3F                                            01 
01040050024000000000000000000000000000000000000NON       United States Senator                                   WRITE-IN                              PRECINCT 3G                                            01 
01040050025000000000000000000000000000000000000NON       United States Senator                                   WRITE-IN                              PRECINCT 3H3C                                          01 
01040050026000000000000000000000000000000000000NON       United States Senator                                   WRITE-IN                              PRECINCT 3I                                            01 
01040050027000000000000000000000000000000000000NON       United States Senator                                   WRITE-IN                              PRECINCT 4A6E                                          01 
01040050028000000000000000000000000000000000000NON       United States Senator                                   WRITE-IN                              PRECINCT 4B                                            01 
01040050029000000000000000000000000000000000000NON       United States Senator                                   WRITE-IN                              PRECINCT 4C                                            01 
01040050030000000000000000000000000000000000000NON       United States Senator                                   WRITE-IN                              PRECINCT 4D                                            01 
01040050031000000000000000000000000000000000000NON       United States Senator                                   WRITE-IN                              PRECINCT 4E                                            01 
01040050032000000000000000000000000000000000000NON       United States Senator                                   WRITE-IN                              PRECINCT 4F                                            01 
01040050033000000000000000000000000000000000000NON       United States Senator                                   WRITE-IN                              PRECINCT 4G                                            01 
01040060001000000000000000000000000000000000000          United States Senator                                   OVER VOTES                            PRECINCT 1A3B                                          01 
01040060002000000000000000000000000000000000000          United States Senator                                   OVER VOTES                            PRECINCT 1A5A                                          01 
01040060003000000000000000000000000000000000000          United States Senator                                   OVER VOTES                            PRECINCT 1B                                            01 
01040060004000000000000000000000000000000000000          United States Senator                                   OVER VOTES                            PRECINCT 1C                                            01 
01040060005000000000000000000000000000000000000          United States Senator                                   OVER VOTES                            PRECINCT 1D                                            01 
01040060006000000000000000000000000000000000000          United States Senator                                   OVER VOTES                            PRECINCT 1E                                            01 
01040060007000000000000000000000000000000000000          United States Senator                                   OVER VOTES                            PRECINCT 1E7C                                          01 
01040060008000000000000000000000000000000000000          United States Senator                                   OVER VOTES                            PRECINCT 1F                                            01 
01040060009000000000000000000000000000000000000          United States Senator                                   OVER VOTES                            PRECINCT 1G                                            01 
01040060010000000000000000000000000000000000000          United States Senator                                   OVER VOTES                            PRECINCT 1H                                            01 
01040060011000000000000000000000000000000000000          United States Senator                                   OVER VOTES                            PRECINCT 1I                                            01 
01040060012000000000000000000000000000000000000          United States Senator                                   OVER VOTES                            PRECINCT 2A1A                                          01 
01040060013000000000000000000000000000000000000          United States Senator                                   OVER VOTES                            PRECINCT 2B2A                                          01 
01040060014000000000000000000000000000000000000          United States Senator                                   OVER VOTES                            PRECINCT 2C3A                                          01 
01040060015000000000000000000000000000000000000          United States Senator                                   OVER VOTES                            PRECINCT 2D                                            01 
01040060016000000000000000000000000000000000000          United States Senator                                   OVER VOTES                            PRECINCT 2E                                            01 
01040060017000000000000000000000000000000000000          United States Senator                                   OVER VOTES                            PRECINCT 2F                                            01 
01040060018000000000000000000000000000000000000          United States Senator                                   OVER VOTES                            PRECINCT 2G                                            01 
01040060020000000000000000000000000000000000000          United States Senator                                   OVER VOTES                            PRECINCT 3C7G                                          01 
01040060021000000000000000000000000000000000000          United States Senator                                   OVER VOTES                            PRECINCT 3D                                            01 
01040060022000000000000000000000000000000000000          United States Senator                                   OVER VOTES                            PRECINCT 3E                                            01 
01040060023000000000000000000000000000000000000          United States Senator                                   OVER VOTES                            PRECINCT 3F                                            01 
01040060024000000000000000000000000000000000000          United States Senator                                   OVER VOTES                            PRECINCT 3G                                            01 
01040060025000000000000000000000000000000000000          United States Senator                                   OVER VOTES                            PRECINCT 3H3C                                          01 
01040060026000000000000000000000000000000000000          United States Senator                                   OVER VOTES                            PRECINCT 3I                                            01 
01040060027000000000000000000000000000000000000          United States Senator                                   OVER VOTES                            PRECINCT 4A6E                                          01 
01040060028000001000000000000000001000000000000          United States Senator                                   OVER VOTES                            PRECINCT 4B                                            01 
01040060029000000000000000000000000000000000000          United States Senator                                   OVER VOTES                            PRECINCT 4C                                            01 
01040060030000000000000000000000000000000000000          United States Senator                                   OVER VOTES                            PRECINCT 4D                                            01 
01040060031000000000000000000000000000000000000          United States Senator                                   OVER VOTES                            PRECINCT 4E                                            01 
01040060032000000000000000000000000000000000000          United States Senator                                   OVER VOTES                            PRECINCT 4F                                            01 
01040060033000000000000000000000000000000000000          United States Senator                                   OVER VOTES                            PRECINCT 4G                                            01 
01040070001000005000003000000000002000000000000          United States Senator                                   UNDER VOTES                           PRECINCT 1A3B                                          01 
01040070002000011000007000001000003000000000000          United States Senator                                   UNDER VOTES                           PRECINCT 1A5A                                          01 
01040070003000004000001000000000003000000000000          United States Senator                                   UNDER VOTES                           PRECINCT 1B                                            01 
01040070004000004000000000000000004000000000000          United States Senator                                   UNDER VOTES                           PRECINCT 1C                                            01 
01040070005000002000001000000000001000000000000          United States Senator                                   UNDER VOTES                           PRECINCT 1D                                            01 
01040070006000009000004000000000005000000000000          United States Senator                                   UNDER VOTES                           PRECINCT 1E                                            01 
01040070007000014000006000002000006000000000000          United States Senator                                   UNDER VOTES                           PRECINCT 1E7C                                          01 
01040070008000004000001000000000003000000000000          United States Senator                                   UNDER VOTES                           PRECINCT 1F                                            01 
01040070009000009000005000001000003000000000000          United States Senator                                   UNDER VOTES                           PRECINCT 1G                                            01 
01040070010000008000001000002000005000000000000          United States Senator                                   UNDER VOTES                           PRECINCT 1H                                            01 
01040070011000006000000000000000006000000000000          United States Senator                                   UNDER VOTES                           PRECINCT 1I                                            01 
01040070012000007000002000001000004000000000000          United States Senator                                   UNDER VOTES                           PRECINCT 2A1A                                          01 
01040070013000002000001000000000001000000000000          United States Senator                                   UNDER VOTES                           PRECINCT 2B2A                                          01 
01040070014000015000007000000000007000001000000          United States Senator                                   UNDER VOTES                           PRECINCT 2C3A                                          01 
01040070015000023000005000001000017000000000000          United States Senator                                   UNDER VOTES                           PRECINCT 2D                                            01 
01040070016000013000003000000000010000000000000          United States Senator                                   UNDER VOTES                           PRECINCT 2E                                            01 
01040070017000002000000000001000001000000000000          United States Senator                                   UNDER VOTES                           PRECINCT 2F                                            01 
01040070018000009000005000000000004000000000000          United States Senator                                   UNDER VOTES                           PRECINCT 2G                                            01 
01040070020000028000015000002000011000000000000          United States Senator                                   UNDER VOTES                           PRECINCT 3C7G                                          01 
01040070021000003000000000000000003000000000000          United States Senator                                   UNDER VOTES                           PRECINCT 3D                                            01 
01040070022000017000007000002000008000000000000          United States Senator                                   UNDER VOTES                           PRECINCT 3E                                            01 
01040070023000009000002000000000007000000000000          United States Senator                                   UNDER VOTES                           PRECINCT 3F                                            01 
01040070024000010000006000000000004000000000000          United States Senator                                   UNDER VOTES                           PRECINCT 3G                                            01 
01040070025000007000005000000000002000000000000          United States Senator                                   UNDER VOTES                           PRECINCT 3H3C                                          01 
01040070026000012000009000001000002000000000000          United States Senator                                   UNDER VOTES                           PRECINCT 3I                                            01 
