01010010001001072000000000000000000000000000000          REGISTERED VOTERS - TOTAL                               REGISTERED VOTERS - TOTAL             1 - Olton Community Cente                              00 
01010010002000909000000000000000000000000000000          REGISTERED VOTERS - TOTAL                               REGISTERED VOTERS - TOTAL             2 - Littlefield Junior Hi                              00 
01010010003000781000000000000000000000000000000          REGISTERED VOTERS - TOTAL                               REGISTERED VOTERS - TOTAL             3 -Earth Community Ctr                                 00 
01010010004000080000000000000000000000000000000          REGISTERED VOTERS - TOTAL                               REGISTERED VOTERS - TOTAL             4 - Sudan Coop Gin                                     00 
01010010005000460000000000000000000000000000000          REGISTERED VOTERS - TOTAL                               REGISTERED VOTERS - TOTAL             5 - Olton Elementary                                   00 
01010010006000386000000000000000000000000000000          REGISTERED VOTERS - TOTAL                               REGISTERED VOTERS - TOTAL             6 - Littlefield TX DOT                                 00 
01010010007002307000000000000000000000000000000          REGISTERED VOTERS - TOTAL                               REGISTERED VOTERS - TOTAL             7 & 8 - Lamb County CH                                 00 
01010010008000903000000000000000000000000000000          REGISTERED VOTERS - TOTAL                               REGISTERED VOTERS - TOTAL             9 - Lamb County Electric                               00 
01010010009000429000000000000000000000000000000          REGISTERED VOTERS - TOTAL                               REGISTERED VOTERS - TOTAL             10 - Amherst City Hall                                 00 
01010010010000651000000000000000000000000000000          REGISTERED VOTERS - TOTAL                               REGISTERED VOTERS - TOTAL             11 - Sudan Community Ctr                               00 
01010010011000193000000000000000000000000000000          REGISTERED VOTERS - TOTAL                               REGISTERED VOTERS - TOTAL             12 - Springlake 1st Bapti                              00 
01020010001000146000013000006000127000000000000          BALLOTS CAST - TOTAL                                    BALLOTS CAST - TOTAL                  1 - Olton Community Cente                              00 
01020010002000040000020000000000020000000000000          BALLOTS CAST - TOTAL                                    BALLOTS CAST - TOTAL                  2 - Littlefield Junior Hi                              00 
01020010003000314000042000013000259000000000000          BALLOTS CAST - TOTAL                                    BALLOTS CAST - TOTAL                  3 -Earth Community Ctr                                 00 
01020010004000023000007000002000014000000000000          BALLOTS CAST - TOTAL                                    BALLOTS CAST - TOTAL                  4 - Sudan Coop Gin                                     00 
01020010005000087000003000001000083000000000000          BALLOTS CAST - TOTAL                                    BALLOTS CAST - TOTAL                  5 - Olton Elementary                                   00 
01020010006000072000033000008000031000000000000          BALLOTS CAST - TOTAL                                    BALLOTS CAST - TOTAL                  6 - Littlefield TX DOT                                 00 
01020010007000323000130000019000174000000000000          BALLOTS CAST - TOTAL                                    BALLOTS CAST - TOTAL                  7 & 8 - Lamb County CH                                 00 
01020010008000142000070000009000063000000000000          BALLOTS CAST - TOTAL                                    BALLOTS CAST - TOTAL                  9 - Lamb County Electric                               00 
01020010009000141000015000005000121000000000000          BALLOTS CAST - TOTAL                                    BALLOTS CAST - TOTAL                  10 - Amherst City Hall                                 00 
01020010010000182000020000007000155000000000000          BALLOTS CAST - TOTAL                                    BALLOTS CAST - TOTAL                  11 - Sudan Community Ctr                               00 
01020010011000090000012000001000077000000000000          BALLOTS CAST - TOTAL                                    BALLOTS CAST - TOTAL                  12 - Springlake 1st Bapti                              00 
01030010001000133000013000006000114000000000000REP       BALLOTS CAST - REPUBLICAN PARTY                         BALLOTS CAST - REPUBLICAN PARTY       1 - Olton Community Cente                              00 
01030010002000028000015000000000013000000000000REP       BALLOTS CAST - REPUBLICAN PARTY                         BALLOTS CAST - REPUBLICAN PARTY       2 - Littlefield Junior Hi                              00 
01030010003000310000042000013000255000000000000REP       BALLOTS CAST - REPUBLICAN PARTY                         BALLOTS CAST - REPUBLICAN PARTY       3 -Earth Community Ctr                                 00 
01030010004000020000007000002000011000000000000REP       BALLOTS CAST - REPUBLICAN PARTY                         BALLOTS CAST - REPUBLICAN PARTY       4 - Sudan Coop Gin                                     00 
01030010005000084000003000001000080000000000000REP       BALLOTS CAST - REPUBLICAN PARTY                         BALLOTS CAST - REPUBLICAN PARTY       5 - Olton Elementary                                   00 
01030010006000064000029000008000027000000000000REP       BALLOTS CAST - REPUBLICAN PARTY                         BALLOTS CAST - REPUBLICAN PARTY       6 - Littlefield TX DOT                                 00 
01030010007000297000123000019000155000000000000REP       BALLOTS CAST - REPUBLICAN PARTY                         BALLOTS CAST - REPUBLICAN PARTY       7 & 8 - Lamb County CH                                 00 
01030010008000131000063000009000059000000000000REP       BALLOTS CAST - REPUBLICAN PARTY                         BALLOTS CAST - REPUBLICAN PARTY       9 - Lamb County Electric                               00 
01030010009000133000014000005000114000000000000REP       BALLOTS CAST - REPUBLICAN PARTY                         BALLOTS CAST - REPUBLICAN PARTY       10 - Amherst City Hall                                 00 
01030010010000175000020000007000148000000000000REP       BALLOTS CAST - REPUBLICAN PARTY                         BALLOTS CAST - REPUBLICAN PARTY       11 - Sudan Community Ctr                               00 
01030010011000088000010000001000077000000000000REP       BALLOTS CAST - REPUBLICAN PARTY                         BALLOTS CAST - REPUBLICAN PARTY       12 - Springlake 1st Bapti                              00 
01040010001000013000000000000000013000000000000DEM       BALLOTS CAST - DEMOCRATIC PARTY                         BALLOTS CAST - DEMOCRATIC PARTY       1 - Olton Community Cente                              00 
01040010002000012000005000000000007000000000000DEM       BALLOTS CAST - DEMOCRATIC PARTY                         BALLOTS CAST - DEMOCRATIC PARTY       2 - Littlefield Junior Hi                              00 
01040010003000004000000000000000004000000000000DEM       BALLOTS CAST - DEMOCRATIC PARTY                         BALLOTS CAST - DEMOCRATIC PARTY       3 -Earth Community Ctr                                 00 
01040010004000003000000000000000003000000000000DEM       BALLOTS CAST - DEMOCRATIC PARTY                         BALLOTS CAST - DEMOCRATIC PARTY       4 - Sudan Coop Gin                                     00 
01040010005000003000000000000000003000000000000DEM       BALLOTS CAST - DEMOCRATIC PARTY                         BALLOTS CAST - DEMOCRATIC PARTY       5 - Olton Elementary                                   00 
01040010006000008000004000000000004000000000000DEM       BALLOTS CAST - DEMOCRATIC PARTY                         BALLOTS CAST - DEMOCRATIC PARTY       6 - Littlefield TX DOT                                 00 
01040010007000026000007000000000019000000000000DEM       BALLOTS CAST - DEMOCRATIC PARTY                         BALLOTS CAST - DEMOCRATIC PARTY       7 & 8 - Lamb County CH                                 00 
01040010008000011000007000000000004000000000000DEM       BALLOTS CAST - DEMOCRATIC PARTY                         BALLOTS CAST - DEMOCRATIC PARTY       9 - Lamb County Electric                               00 
01040010009000008000001000000000007000000000000DEM       BALLOTS CAST - DEMOCRATIC PARTY                         BALLOTS CAST - DEMOCRATIC PARTY       10 - Amherst City Hall                                 00 
01040010010000007000000000000000007000000000000DEM       BALLOTS CAST - DEMOCRATIC PARTY                         BALLOTS CAST - DEMOCRATIC PARTY       11 - Sudan Community Ctr                               00 
01040010011000002000002000000000000000000000000DEM       BALLOTS CAST - DEMOCRATIC PARTY                         BALLOTS CAST - DEMOCRATIC PARTY       12 - Springlake 1st Bapti                              00 
01050010001000013000000000000000013000000000000REP       United States Senator                                   Steve Stockman                        1 - Olton Community Cente                              01 
01050010002000008000003000000000005000000000000REP       United States Senator                                   Steve Stockman                        2 - Littlefield Junior Hi                              01 
01050010003000037000007000002000028000000000000REP       United States Senator                                   Steve Stockman                        3 -Earth Community Ctr                                 01 
01050010004000002000000000000000002000000000000REP       United States Senator                                   Steve Stockman                        4 - Sudan Coop Gin                                     01 
01050010005000013000001000000000012000000000000REP       United States Senator                                   Steve Stockman                        5 - Olton Elementary                                   01 
01050010006000008000004000001000003000000000000REP       United States Senator                                   Steve Stockman                        6 - Littlefield TX DOT                                 01 
01050010007000043000011000001000031000000000000REP       United States Senator                                   Steve Stockman                        7 & 8 - Lamb County CH                                 01 
01050010008000023000015000000000008000000000000REP       United States Senator                                   Steve Stockman                        9 - Lamb County Electric                               01 
01050010009000021000002000000000019000000000000REP       United States Senator                                   Steve Stockman                        10 - Amherst City Hall                                 01 
01050010010000026000005000002000019000000000000REP       United States Senator                                   Steve Stockman                        11 - Sudan Community Ctr                               01 
01050010011000009000001000000000008000000000000REP       United States Senator                                   Steve Stockman                        12 - Springlake 1st Bapti                              01 
01050020001000000000000000000000000000000000000REP       United States Senator                                   Curt Cleaver                          1 - Olton Community Cente                              01 
01050020002000000000000000000000000000000000000REP       United States Senator                                   Curt Cleaver                          2 - Littlefield Junior Hi                              01 
01050020003000007000000000000000007000000000000REP       United States Senator                                   Curt Cleaver                          3 -Earth Community Ctr                                 01 
01050020004000000000000000000000000000000000000REP       United States Senator                                   Curt Cleaver                          4 - Sudan Coop Gin                                     01 
01050020005000000000000000000000000000000000000REP       United States Senator                                   Curt Cleaver                          5 - Olton Elementary                                   01 
01050020006000001000001000000000000000000000000REP       United States Senator                                   Curt Cleaver                          6 - Littlefield TX DOT                                 01 
01050020007000002000000000000000002000000000000REP       United States Senator                                   Curt Cleaver                          7 & 8 - Lamb County CH                                 01 
01050020008000001000000000000000001000000000000REP       United States Senator                                   Curt Cleaver                          9 - Lamb County Electric                               01 
01050020009000001000000000000000001000000000000REP       United States Senator                                   Curt Cleaver                          10 - Amherst City Hall                                 01 
01050020010000002000000000000000002000000000000REP       United States Senator                                   Curt Cleaver                          11 - Sudan Community Ctr                               01 
01050020011000000000000000000000000000000000000REP       United States Senator                                   Curt Cleaver                          12 - Springlake 1st Bapti                              01 
01050030001000001000000000000000001000000000000REP       United States Senator                                   Chris Mapp                            1 - Olton Community Cente                              01 
01050030002000000000000000000000000000000000000REP       United States Senator                                   Chris Mapp                            2 - Littlefield Junior Hi                              01 
01050030003000003000000000000000003000000000000REP       United States Senator                                   Chris Mapp                            3 -Earth Community Ctr                                 01 
01050030004000001000000000000000001000000000000REP       United States Senator                                   Chris Mapp                            4 - Sudan Coop Gin                                     01 
01050030005000001000000000000000001000000000000REP       United States Senator                                   Chris Mapp                            5 - Olton Elementary                                   01 
01050030006000001000000000000000001000000000000REP       United States Senator                                   Chris Mapp                            6 - Littlefield TX DOT                                 01 
01050030007000003000000000000000003000000000000REP       United States Senator                                   Chris Mapp                            7 & 8 - Lamb County CH                                 01 
01050030008000001000001000000000000000000000000REP       United States Senator                                   Chris Mapp                            9 - Lamb County Electric                               01 
01050030009000001000000000000000001000000000000REP       United States Senator                                   Chris Mapp                            10 - Amherst City Hall                                 01 
01050030010000002000000000000000002000000000000REP       United States Senator                                   Chris Mapp                            11 - Sudan Community Ctr                               01 
01050030011000002000000000000000002000000000000REP       United States Senator                                   Chris Mapp                            12 - Springlake 1st Bapti                              01 
01050040001000002000000000000000002000000000000REP       United States Senator                                   Reid Reasor                           1 - Olton Community Cente                              01 
01050040002000001000001000000000000000000000000REP       United States Senator                                   Reid Reasor                           2 - Littlefield Junior Hi                              01 
01050040003000007000000000001000006000000000000REP       United States Senator                                   Reid Reasor                           3 -Earth Community Ctr                                 01 
01050040004000000000000000000000000000000000000REP       United States Senator                                   Reid Reasor                           4 - Sudan Coop Gin                                     01 
01050040005000000000000000000000000000000000000REP       United States Senator                                   Reid Reasor                           5 - Olton Elementary                                   01 
01050040006000000000000000000000000000000000000REP       United States Senator                                   Reid Reasor                           6 - Littlefield TX DOT                                 01 
01050040007000004000001000001000002000000000000REP       United States Senator                                   Reid Reasor                           7 & 8 - Lamb County CH                                 01 
01050040008000002000001000001000000000000000000REP       United States Senator                                   Reid Reasor                           9 - Lamb County Electric                               01 
01050040009000003000000000000000003000000000000REP       United States Senator                                   Reid Reasor                           10 - Amherst City Hall                                 01 
01050040010000002000000000000000002000000000000REP       United States Senator                                   Reid Reasor                           11 - Sudan Community Ctr                               01 
01050040011000000000000000000000000000000000000REP       United States Senator                                   Reid Reasor                           12 - Springlake 1st Bapti                              01 
01050050001000012000002000000000010000000000000REP       United States Senator                                   Ken Cope                              1 - Olton Community Cente                              01 
01050050002000001000001000000000000000000000000REP       United States Senator                                   Ken Cope                              2 - Littlefield Junior Hi                              01 
01050050003000011000000000000000011000000000000REP       United States Senator                                   Ken Cope                              3 -Earth Community Ctr                                 01 
01050050004000004000002000002000000000000000000REP       United States Senator                                   Ken Cope                              4 - Sudan Coop Gin                                     01 
01050050005000003000000000000000003000000000000REP       United States Senator                                   Ken Cope                              5 - Olton Elementary                                   01 
01050050006000003000001000000000002000000000000REP       United States Senator                                   Ken Cope                              6 - Littlefield TX DOT                                 01 
01050050007000015000005000001000009000000000000REP       United States Senator                                   Ken Cope                              7 & 8 - Lamb County CH                                 01 
01050050008000005000002000000000003000000000000REP       United States Senator                                   Ken Cope                              9 - Lamb County Electric                               01 
01050050009000003000000000000000003000000000000REP       United States Senator                                   Ken Cope                              10 - Amherst City Hall                                 01 
01050050010000003000000000000000003000000000000REP       United States Senator                                   Ken Cope                              11 - Sudan Community Ctr                               01 
01050050011000011000000000000000011000000000000REP       United States Senator                                   Ken Cope                              12 - Springlake 1st Bapti                              01 
01050060001000075000009000005000061000000000000REP       United States Senator                                   John Cornyn                           1 - Olton Community Cente                              01 
01050060002000012000007000000000005000000000000REP       United States Senator                                   John Cornyn                           2 - Littlefield Junior Hi                              01 
01050060003000142000026000010000106000000000000REP       United States Senator                                   John Cornyn                           3 -Earth Community Ctr                                 01 
01050060004000008000003000000000005000000000000REP       United States Senator                                   John Cornyn                           4 - Sudan Coop Gin                                     01 
01050060005000048000002000001000045000000000000REP       United States Senator                                   John Cornyn                           5 - Olton Elementary                                   01 
01050060006000040000016000007000017000000000000REP       United States Senator                                   John Cornyn                           6 - Littlefield TX DOT                                 01 
01050060007000179000087000015000077000000000000REP       United States Senator                                   John Cornyn                           7 & 8 - Lamb County CH                                 01 
01050060008000083000037000008000038000000000000REP       United States Senator                                   John Cornyn                           9 - Lamb County Electric                               01 
01050060009000080000011000005000064000000000000REP       United States Senator                                   John Cornyn                           10 - Amherst City Hall                                 01 
01050060010000110000011000005000094000000000000REP       United States Senator                                   John Cornyn                           11 - Sudan Community Ctr                               01 
01050060011000049000008000001000040000000000000REP       United States Senator                                   John Cornyn                           12 - Springlake 1st Bapti                              01 
01050070001000009000001000000000008000000000000REP       United States Senator                                   Linda Vega                            1 - Olton Community Cente                              01 
01050070002000005000003000000000002000000000000REP       United States Senator                                   Linda Vega                            2 - Littlefield Junior Hi                              01 
01050070003000023000001000000000022000000000000REP       United States Senator                                   Linda Vega                            3 -Earth Community Ctr                                 01 
01050070004000001000001000000000000000000000000REP       United States Senator                                   Linda Vega                            4 - Sudan Coop Gin                                     01 
01050070005000005000000000000000005000000000000REP       United States Senator                                   Linda Vega                            5 - Olton Elementary                                   01 
01050070006000008000005000000000003000000000000REP       United States Senator                                   Linda Vega                            6 - Littlefield TX DOT                                 01 
01050070007000010000004000001000005000000000000REP       United States Senator                                   Linda Vega                            7 & 8 - Lamb County CH                                 01 
01050070008000004000002000000000002000000000000REP       United States Senator                                   Linda Vega                            9 - Lamb County Electric                               01 
01050070009000004000000000000000004000000000000REP       United States Senator                                   Linda Vega                            10 - Amherst City Hall                                 01 
01050070010000002000001000000000001000000000000REP       United States Senator                                   Linda Vega                            11 - Sudan Community Ctr                               01 
01050070011000005000000000000000005000000000000REP       United States Senator                                   Linda Vega                            12 - Springlake 1st Bapti                              01 
01050080001000015000000000001000014000000000000REP       United States Senator                                   Dwayne Stovall                        1 - Olton Community Cente                              01 
01050080002000000000000000000000000000000000000REP       United States Senator                                   Dwayne Stovall                        2 - Littlefield Junior Hi                              01 
01050080003000021000001000000000020000000000000REP       United States Senator                                   Dwayne Stovall                        3 -Earth Community Ctr                                 01 
01050080004000002000000000000000002000000000000REP       United States Senator                                   Dwayne Stovall                        4 - Sudan Coop Gin                                     01 
01050080005000007000000000000000007000000000000REP       United States Senator                                   Dwayne Stovall                        5 - Olton Elementary                                   01 
01050080006000001000000000000000001000000000000REP       United States Senator                                   Dwayne Stovall                        6 - Littlefield TX DOT                                 01 
01050080007000025000011000000000014000000000000REP       United States Senator                                   Dwayne Stovall                        7 & 8 - Lamb County CH                                 01 
01050080008000003000001000000000002000000000000REP       United States Senator                                   Dwayne Stovall                        9 - Lamb County Electric                               01 
01050080009000006000000000000000006000000000000REP       United States Senator                                   Dwayne Stovall                        10 - Amherst City Hall                                 01 
01050080010000009000001000000000008000000000000REP       United States Senator                                   Dwayne Stovall                        11 - Sudan Community Ctr                               01 
01050080011000005000001000000000004000000000000REP       United States Senator                                   Dwayne Stovall                        12 - Springlake 1st Bapti                              01 
01050090001000000000000000000000000000000000000REP       United States Senator                                   OVER VOTES                            1 - Olton Community Cente                              01 
01050090002000000000000000000000000000000000000REP       United States Senator                                   OVER VOTES                            2 - Littlefield Junior Hi                              01 
01050090003000003000000000000000003000000000000REP       United States Senator                                   OVER VOTES                            3 -Earth Community Ctr                                 01 
01050090004000000000000000000000000000000000000REP       United States Senator                                   OVER VOTES                            4 - Sudan Coop Gin                                     01 
01050090005000000000000000000000000000000000000REP       United States Senator                                   OVER VOTES                            5 - Olton Elementary                                   01 
01050090006000000000000000000000000000000000000REP       United States Senator                                   OVER VOTES                            6 - Littlefield TX DOT                                 01 
01050090007000000000000000000000000000000000000REP       United States Senator                                   OVER VOTES                            7 & 8 - Lamb County CH                                 01 
01050090008000000000000000000000000000000000000REP       United States Senator                                   OVER VOTES                            9 - Lamb County Electric                               01 
01050090009000000000000000000000000000000000000REP       United States Senator                                   OVER VOTES                            10 - Amherst City Hall                                 01 
01050090010000000000000000000000000000000000000REP       United States Senator                                   OVER VOTES                            11 - Sudan Community Ctr                               01 
01050090011000000000000000000000000000000000000REP       United States Senator                                   OVER VOTES                            12 - Springlake 1st Bapti                              01 
01050100001000006000001000000000005000000000000REP       United States Senator                                   UNDER VOTES                           1 - Olton Community Cente                              01 
01050100002000001000000000000000001000000000000REP       United States Senator                                   UNDER VOTES                           2 - Littlefield Junior Hi                              01 
01050100003000055000007000000000048000000000000REP       United States Senator                                   UNDER VOTES                           3 -Earth Community Ctr                                 01 
01050100004000002000001000000000001000000000000REP       United States Senator                                   UNDER VOTES                           4 - Sudan Coop Gin                                     01 
01050100005000007000000000000000007000000000000REP       United States Senator                                   UNDER VOTES                           5 - Olton Elementary                                   01 
01050100006000002000002000000000000000000000000REP       United States Senator                                   UNDER VOTES                           6 - Littlefield TX DOT                                 01 
01050100007000016000004000000000012000000000000REP       United States Senator                                   UNDER VOTES                           7 & 8 - Lamb County CH                                 01 
01050100008000009000004000000000005000000000000REP       United States Senator                                   UNDER VOTES                           9 - Lamb County Electric                               01 
01050100009000013000001000000000012000000000000REP       United States Senator                                   UNDER VOTES                           10 - Amherst City Hall                                 01 
01050100010000019000002000000000017000000000000REP       United States Senator                                   UNDER VOTES                           11 - Sudan Community Ctr                               01 
01050100011000007000000000000000007000000000000REP       United States Senator                                   UNDER VOTES                           12 - Springlake 1st Bapti                              01 
01060010001000091000010000005000076000000000000REP       US Representative, District 19                          Randy Neugebauer                      1 - Olton Community Cente                              01 
01060010002000021000011000000000010000000000000REP       US Representative, District 19                          Randy Neugebauer                      2 - Littlefield Junior Hi                              01 
01060010003000215000030000013000172000000000000REP       US Representative, District 19                          Randy Neugebauer                      3 -Earth Community Ctr                                 01 
01060010004000015000005000002000008000000000000REP       US Representative, District 19                          Randy Neugebauer                      4 - Sudan Coop Gin                                     01 
01060010005000063000003000001000059000000000000REP       US Representative, District 19                          Randy Neugebauer                      5 - Olton Elementary                                   01 
01060010006000047000022000008000017000000000000REP       US Representative, District 19                          Randy Neugebauer                      6 - Littlefield TX DOT                                 01 
01060010007000205000087000015000103000000000000REP       US Representative, District 19                          Randy Neugebauer                      7 & 8 - Lamb County CH                                 01 
01060010008000104000049000009000046000000000000REP       US Representative, District 19                          Randy Neugebauer                      9 - Lamb County Electric                               01 
01060010009000103000012000005000086000000000000REP       US Representative, District 19                          Randy Neugebauer                      10 - Amherst City Hall                                 01 
01060010010000135000019000007000109000000000000REP       US Representative, District 19                          Randy Neugebauer                      11 - Sudan Community Ctr                               01 
01060010011000063000009000001000053000000000000REP       US Representative, District 19                          Randy Neugebauer                      12 - Springlake 1st Bapti                              01 
01060020001000025000002000000000023000000000000REP       US Representative, District 19                          Donald R.May                          1 - Olton Community Cente                              01 
01060020002000004000001000000000003000000000000REP       US Representative, District 19                          Donald R.May                          2 - Littlefield Junior Hi                              01 
01060020003000037000007000000000030000000000000REP       US Representative, District 19                          Donald R.May                          3 -Earth Community Ctr                                 01 
01060020004000004000002000000000002000000000000REP       US Representative, District 19                          Donald R.May                          4 - Sudan Coop Gin                                     01 
01060020005000010000000000000000010000000000000REP       US Representative, District 19                          Donald R.May                          5 - Olton Elementary                                   01 
01060020006000009000003000000000006000000000000REP       US Representative, District 19                          Donald R.May                          6 - Littlefield TX DOT                                 01 
01060020007000060000025000001000034000000000000REP       US Representative, District 19                          Donald R.May                          7 & 8 - Lamb County CH                                 01 
01060020008000015000007000000000008000000000000REP       US Representative, District 19                          Donald R.May                          9 - Lamb County Electric                               01 
01060020009000012000002000000000010000000000000REP       US Representative, District 19                          Donald R.May                          10 - Amherst City Hall                                 01 
01060020010000019000001000000000018000000000000REP       US Representative, District 19                          Donald R.May                          11 - Sudan Community Ctr                               01 
01060020011000013000000000000000013000000000000REP       US Representative, District 19                          Donald R.May                          12 - Springlake 1st Bapti                              01 
01060030001000016000001000001000014000000000000REP       US Representative, District 19                          Chris Winn                            1 - Olton Community Cente                              01 
01060030002000003000003000000000000000000000000REP       US Representative, District 19                          Chris Winn                            2 - Littlefield Junior Hi                              01 
01060030003000020000002000000000018000000000000REP       US Representative, District 19                          Chris Winn                            3 -Earth Community Ctr                                 01 
01060030004000001000000000000000001000000000000REP       US Representative, District 19                          Chris Winn                            4 - Sudan Coop Gin                                     01 
01060030005000008000000000000000008000000000000REP       US Representative, District 19                          Chris Winn                            5 - Olton Elementary                                   01 
01060030006000007000003000000000004000000000000REP       US Representative, District 19                          Chris Winn                            6 - Littlefield TX DOT                                 01 
01060030007000027000009000002000016000000000000REP       US Representative, District 19                          Chris Winn                            7 & 8 - Lamb County CH                                 01 
01060030008000010000006000000000004000000000000REP       US Representative, District 19                          Chris Winn                            9 - Lamb County Electric                               01 
01060030009000013000000000000000013000000000000REP       US Representative, District 19                          Chris Winn                            10 - Amherst City Hall                                 01 
01060030010000010000000000000000010000000000000REP       US Representative, District 19                          Chris Winn                            11 - Sudan Community Ctr                               01 
01060030011000009000001000000000008000000000000REP       US Representative, District 19                          Chris Winn                            12 - Springlake 1st Bapti                              01 
01060040001000000000000000000000000000000000000REP       US Representative, District 19                          OVER VOTES                            1 - Olton Community Cente                              01 
01060040002000000000000000000000000000000000000REP       US Representative, District 19                          OVER VOTES                            2 - Littlefield Junior Hi                              01 
01060040003000000000000000000000000000000000000REP       US Representative, District 19                          OVER VOTES                            3 -Earth Community Ctr                                 01 
01060040004000000000000000000000000000000000000REP       US Representative, District 19                          OVER VOTES                            4 - Sudan Coop Gin                                     01 
01060040005000000000000000000000000000000000000REP       US Representative, District 19                          OVER VOTES                            5 - Olton Elementary                                   01 
01060040006000000000000000000000000000000000000REP       US Representative, District 19                          OVER VOTES                            6 - Littlefield TX DOT                                 01 
01060040007000000000000000000000000000000000000REP       US Representative, District 19                          OVER VOTES                            7 & 8 - Lamb County CH                                 01 
01060040008000000000000000000000000000000000000REP       US Representative, District 19                          OVER VOTES                            9 - Lamb County Electric                               01 
01060040009000000000000000000000000000000000000REP       US Representative, District 19                          OVER VOTES                            10 - Amherst City Hall                                 01 
01060040010000000000000000000000000000000000000REP       US Representative, District 19                          OVER VOTES                            11 - Sudan Community Ctr                               01 
01060040011000000000000000000000000000000000000REP       US Representative, District 19                          OVER VOTES                            12 - Springlake 1st Bapti                              01 
01060050001000001000000000000000001000000000000REP       US Representative, District 19                          UNDER VOTES                           1 - Olton Community Cente                              01 
01060050002000000000000000000000000000000000000REP       US Representative, District 19                          UNDER VOTES                           2 - Littlefield Junior Hi                              01 
01060050003000037000003000000000034000000000000REP       US Representative, District 19                          UNDER VOTES                           3 -Earth Community Ctr                                 01 
01060050004000000000000000000000000000000000000REP       US Representative, District 19                          UNDER VOTES                           4 - Sudan Coop Gin                                     01 
01060050005000003000000000000000003000000000000REP       US Representative, District 19                          UNDER VOTES                           5 - Olton Elementary                                   01 
01060050006000001000001000000000000000000000000REP       US Representative, District 19                          UNDER VOTES                           6 - Littlefield TX DOT                                 01 
01060050007000005000002000001000002000000000000REP       US Representative, District 19                          UNDER VOTES                           7 & 8 - Lamb County CH                                 01 
01060050008000002000001000000000001000000000000REP       US Representative, District 19                          UNDER VOTES                           9 - Lamb County Electric                               01 
01060050009000005000000000000000005000000000000REP       US Representative, District 19                          UNDER VOTES                           10 - Amherst City Hall                                 01 
01060050010000011000000000000000011000000000000REP       US Representative, District 19                          UNDER VOTES                           11 - Sudan Community Ctr                               01 
01060050011000003000000000000000003000000000000REP       US Representative, District 19                          UNDER VOTES                           12 - Springlake 1st Bapti                              01 
01070010001000001000000000000000001000000000000REP       Governor                                                SECEDE Kilgore                        1 - Olton Community Cente                              01 
01070010002000000000000000000000000000000000000REP       Governor                                                SECEDE Kilgore                        2 - Littlefield Junior Hi                              01 
01070010003000008000000000001000007000000000000REP       Governor                                                SECEDE Kilgore                        3 -Earth Community Ctr                                 01 
01070010004000000000000000000000000000000000000REP       Governor                                                SECEDE Kilgore                        4 - Sudan Coop Gin                                     01 
01070010005000001000000000000000001000000000000REP       Governor                                                SECEDE Kilgore                        5 - Olton Elementary                                   01 
01070010006000003000002000000000001000000000000REP       Governor                                                SECEDE Kilgore                        6 - Littlefield TX DOT                                 01 
01070010007000002000000000000000002000000000000REP       Governor                                                SECEDE Kilgore                        7 & 8 - Lamb County CH                                 01 
01070010008000002000001000000000001000000000000REP       Governor                                                SECEDE Kilgore                        9 - Lamb County Electric                               01 
01070010009000003000000000000000003000000000000REP       Governor                                                SECEDE Kilgore                        10 - Amherst City Hall                                 01 
01070010010000003000001000001000001000000000000REP       Governor                                                SECEDE Kilgore                        11 - Sudan Community Ctr                               01 
01070010011000002000001000000000001000000000000REP       Governor                                                SECEDE Kilgore                        12 - Springlake 1st Bapti                              01 
01070020001000007000001000000000006000000000000REP       Governor                                                Lisa Fritsch                          1 - Olton Community Cente                              01 
01070020002000001000000000000000001000000000000REP       Governor                                                Lisa Fritsch                          2 - Littlefield Junior Hi                              01 
01070020003000017000002000000000015000000000000REP       Governor                                                Lisa Fritsch                          3 -Earth Community Ctr                                 01 
01070020004000001000000000000000001000000000000REP       Governor                                                Lisa Fritsch                          4 - Sudan Coop Gin                                     01 
01070020005000001000000000000000001000000000000REP       Governor                                                Lisa Fritsch                          5 - Olton Elementary                                   01 
01070020006000003000000000000000003000000000000REP       Governor                                                Lisa Fritsch                          6 - Littlefield TX DOT                                 01 
01070020007000015000006000001000008000000000000REP       Governor                                                Lisa Fritsch                          7 & 8 - Lamb County CH                                 01 
01070020008000001000000000000000001000000000000REP       Governor                                                Lisa Fritsch                          9 - Lamb County Electric                               01 
01070020009000007000000000000000007000000000000REP       Governor                                                Lisa Fritsch                          10 - Amherst City Hall                                 01 
01070020010000005000000000000000005000000000000REP       Governor                                                Lisa Fritsch                          11 - Sudan Community Ctr                               01 
01070020011000004000001000000000003000000000000REP       Governor                                                Lisa Fritsch                          12 - Springlake 1st Bapti                              01 
01070030001000114000012000005000097000000000000REP       Governor                                                Greg Abbott                           1 - Olton Community Cente                              01 
01070030002000023000012000000000011000000000000REP       Governor                                                Greg Abbott                           2 - Littlefield Junior Hi                              01 
01070030003000220000037000012000171000000000000REP       Governor                                                Greg Abbott                           3 -Earth Community Ctr                                 01 
01070030004000019000007000002000010000000000000REP       Governor                                                Greg Abbott                           4 - Sudan Coop Gin                                     01 
01070030005000074000003000001000070000000000000REP       Governor                                                Greg Abbott                           5 - Olton Elementary                                   01 
01070030006000050000020000008000022000000000000REP       Governor                                                Greg Abbott                           6 - Littlefield TX DOT                                 01 
01070030007000271000112000018000141000000000000REP       Governor                                                Greg Abbott                           7 & 8 - Lamb County CH                                 01 
01070030008000121000057000009000055000000000000REP       Governor                                                Greg Abbott                           9 - Lamb County Electric                               01 
01070030009000111000012000005000094000000000000REP       Governor                                                Greg Abbott                           10 - Amherst City Hall                                 01 
01070030010000157000019000006000132000000000000REP       Governor                                                Greg Abbott                           11 - Sudan Community Ctr                               01 
01070030011000076000008000001000067000000000000REP       Governor                                                Greg Abbott                           12 - Springlake 1st Bapti                              01 
01070040001000007000000000001000006000000000000REP       Governor                                                Miriam Martinez                       1 - Olton Community Cente                              01 
01070040002000004000003000000000001000000000000REP       Governor                                                Miriam Martinez                       2 - Littlefield Junior Hi                              01 
01070040003000026000000000000000026000000000000REP       Governor                                                Miriam Martinez                       3 -Earth Community Ctr                                 01 
01070040004000000000000000000000000000000000000REP       Governor                                                Miriam Martinez                       4 - Sudan Coop Gin                                     01 
01070040005000004000000000000000004000000000000REP       Governor                                                Miriam Martinez                       5 - Olton Elementary                                   01 
01070040006000005000004000000000001000000000000REP       Governor                                                Miriam Martinez                       6 - Littlefield TX DOT                                 01 
01070040007000005000001000000000004000000000000REP       Governor                                                Miriam Martinez                       7 & 8 - Lamb County CH                                 01 
01070040008000004000003000000000001000000000000REP       Governor                                                Miriam Martinez                       9 - Lamb County Electric                               01 
01070040009000002000000000000000002000000000000REP       Governor                                                Miriam Martinez                       10 - Amherst City Hall                                 01 
01070040010000001000000000000000001000000000000REP       Governor                                                Miriam Martinez                       11 - Sudan Community Ctr                               01 
01070040011000001000000000000000001000000000000REP       Governor                                                Miriam Martinez                       12 - Springlake 1st Bapti                              01 
01070050001000001000000000000000001000000000000REP       Governor                                                OVER VOTES                            1 - Olton Community Cente                              01 
01070050002000000000000000000000000000000000000REP       Governor                                                OVER VOTES                            2 - Littlefield Junior Hi                              01 
01070050003000001000000000000000001000000000000REP       Governor                                                OVER VOTES                            3 -Earth Community Ctr                                 01 
01070050004000000000000000000000000000000000000REP       Governor                                                OVER VOTES                            4 - Sudan Coop Gin                                     01 
01070050005000000000000000000000000000000000000REP       Governor                                                OVER VOTES                            5 - Olton Elementary                                   01 
01070050006000000000000000000000000000000000000REP       Governor                                                OVER VOTES                            6 - Littlefield TX DOT                                 01 
01070050007000000000000000000000000000000000000REP       Governor                                                OVER VOTES                            7 & 8 - Lamb County CH                                 01 
01070050008000000000000000000000000000000000000REP       Governor                                                OVER VOTES                            9 - Lamb County Electric                               01 
01070050009000000000000000000000000000000000000REP       Governor                                                OVER VOTES                            10 - Amherst City Hall                                 01 
01070050010000000000000000000000000000000000000REP       Governor                                                OVER VOTES                            11 - Sudan Community Ctr                               01 
01070050011000000000000000000000000000000000000REP       Governor                                                OVER VOTES                            12 - Springlake 1st Bapti                              01 
01070060001000003000000000000000003000000000000REP       Governor                                                UNDER VOTES                           1 - Olton Community Cente                              01 
01070060002000000000000000000000000000000000000REP       Governor                                                UNDER VOTES                           2 - Littlefield Junior Hi                              01 
01070060003000037000003000000000034000000000000REP       Governor                                                UNDER VOTES                           3 -Earth Community Ctr                                 01 
01070060004000000000000000000000000000000000000REP       Governor                                                UNDER VOTES                           4 - Sudan Coop Gin                                     01 
01070060005000004000000000000000004000000000000REP       Governor                                                UNDER VOTES                           5 - Olton Elementary                                   01 
01070060006000003000003000000000000000000000000REP       Governor                                                UNDER VOTES                           6 - Littlefield TX DOT                                 01 
01070060007000004000004000000000000000000000000REP       Governor                                                UNDER VOTES                           7 & 8 - Lamb County CH                                 01 
01070060008000003000002000000000001000000000000REP       Governor                                                UNDER VOTES                           9 - Lamb County Electric                               01 
01070060009000009000002000000000007000000000000REP       Governor                                                UNDER VOTES                           10 - Amherst City Hall                                 01 
01070060010000008000000000000000008000000000000REP       Governor                                                UNDER VOTES                           11 - Sudan Community Ctr                               01 
01070060011000005000000000000000005000000000000REP       Governor                                                UNDER VOTES                           12 - Springlake 1st Bapti                              01 
01080010001000046000003000002000041000000000000REP       Lieutenant Governor                                     David Dewhurst                        1 - Olton Community Cente                              01 
01080010002000011000005000000000006000000000000REP       Lieutenant Governor                                     David Dewhurst                        2 - Littlefield Junior Hi                              01 
01080010003000107000011000007000089000000000000REP       Lieutenant Governor                                     David Dewhurst                        3 -Earth Community Ctr                                 01 
01080010004000004000003000001000000000000000000REP       Lieutenant Governor                                     David Dewhurst                        4 - Sudan Coop Gin                                     01 
01080010005000028000002000000000026000000000000REP       Lieutenant Governor                                     David Dewhurst                        5 - Olton Elementary                                   01 
01080010006000030000013000004000013000000000000REP       Lieutenant Governor                                     David Dewhurst                        6 - Littlefield TX DOT                                 01 
01080010007000108000041000009000058000000000000REP       Lieutenant Governor                                     David Dewhurst                        7 & 8 - Lamb County CH                                 01 
01080010008000065000023000007000035000000000000REP       Lieutenant Governor                                     David Dewhurst                        9 - Lamb County Electric                               01 
01080010009000053000006000003000044000000000000REP       Lieutenant Governor                                     David Dewhurst                        10 - Amherst City Hall                                 01 
01080010010000073000011000003000059000000000000REP       Lieutenant Governor                                     David Dewhurst                        11 - Sudan Community Ctr                               01 
01080010011000031000004000000000027000000000000REP       Lieutenant Governor                                     David Dewhurst                        12 - Springlake 1st Bapti                              01 
01080020001000042000004000000000038000000000000REP       Lieutenant Governor                                     Todd Staples                          1 - Olton Community Cente                              01 
01080020002000008000006000000000002000000000000REP       Lieutenant Governor                                     Todd Staples                          2 - Littlefield Junior Hi                              01 
01080020003000093000016000003000074000000000000REP       Lieutenant Governor                                     Todd Staples                          3 -Earth Community Ctr                                 01 
01080020004000009000002000000000007000000000000REP       Lieutenant Governor                                     Todd Staples                          4 - Sudan Coop Gin                                     01 
01080020005000036000001000000000035000000000000REP       Lieutenant Governor                                     Todd Staples                          5 - Olton Elementary                                   01 
01080020006000013000006000003000004000000000000REP       Lieutenant Governor                                     Todd Staples                          6 - Littlefield TX DOT                                 01 
01080020007000079000029000002000048000000000000REP       Lieutenant Governor                                     Todd Staples                          7 & 8 - Lamb County CH                                 01 
01080020008000038000020000002000016000000000000REP       Lieutenant Governor                                     Todd Staples                          9 - Lamb County Electric                               01 
01080020009000042000004000001000037000000000000REP       Lieutenant Governor                                     Todd Staples                          10 - Amherst City Hall                                 01 
01080020010000051000001000000000050000000000000REP       Lieutenant Governor                                     Todd Staples                          11 - Sudan Community Ctr                               01 
01080020011000024000004000000000020000000000000REP       Lieutenant Governor                                     Todd Staples                          12 - Springlake 1st Bapti                              01 
01080030001000036000006000003000027000000000000REP       Lieutenant Governor                                     Dan Patrick                           1 - Olton Community Cente                              01 
01080030002000005000003000000000002000000000000REP       Lieutenant Governor                                     Dan Patrick                           2 - Littlefield Junior Hi                              01 
01080030003000051000010000002000039000000000000REP       Lieutenant Governor                                     Dan Patrick                           3 -Earth Community Ctr                                 01 
01080030004000005000002000001000002000000000000REP       Lieutenant Governor                                     Dan Patrick                           4 - Sudan Coop Gin                                     01 
01080030005000011000000000001000010000000000000REP       Lieutenant Governor                                     Dan Patrick                           5 - Olton Elementary                                   01 
01080030006000017000008000001000008000000000000REP       Lieutenant Governor                                     Dan Patrick                           6 - Littlefield TX DOT                                 01 
01080030007000078000036000005000037000000000000REP       Lieutenant Governor                                     Dan Patrick                           7 & 8 - Lamb County CH                                 01 
01080030008000019000014000000000005000000000000REP       Lieutenant Governor                                     Dan Patrick                           9 - Lamb County Electric                               01 
01080030009000021000001000001000019000000000000REP       Lieutenant Governor                                     Dan Patrick                           10 - Amherst City Hall                                 01 
01080030010000035000006000004000025000000000000REP       Lieutenant Governor                                     Dan Patrick                           11 - Sudan Community Ctr                               01 
01080030011000026000002000001000023000000000000REP       Lieutenant Governor                                     Dan Patrick                           12 - Springlake 1st Bapti                              01 
01080040001000006000000000001000005000000000000REP       Lieutenant Governor                                     Jerry Patterson                       1 - Olton Community Cente                              01 
01080040002000003000001000000000002000000000000REP       Lieutenant Governor                                     Jerry Patterson                       2 - Littlefield Junior Hi                              01 
01080040003000017000002000001000014000000000000REP       Lieutenant Governor                                     Jerry Patterson                       3 -Earth Community Ctr                                 01 
01080040004000002000000000000000002000000000000REP       Lieutenant Governor                                     Jerry Patterson                       4 - Sudan Coop Gin                                     01 
01080040005000003000000000000000003000000000000REP       Lieutenant Governor                                     Jerry Patterson                       5 - Olton Elementary                                   01 
01080040006000003000001000000000002000000000000REP       Lieutenant Governor                                     Jerry Patterson                       6 - Littlefield TX DOT                                 01 
01080040007000025000014000002000009000000000000REP       Lieutenant Governor                                     Jerry Patterson                       7 & 8 - Lamb County CH                                 01 
01080040008000006000005000000000001000000000000REP       Lieutenant Governor                                     Jerry Patterson                       9 - Lamb County Electric                               01 
01080040009000007000001000000000006000000000000REP       Lieutenant Governor                                     Jerry Patterson                       10 - Amherst City Hall                                 01 
01080040010000003000001000000000002000000000000REP       Lieutenant Governor                                     Jerry Patterson                       11 - Sudan Community Ctr                               01 
01080040011000004000000000000000004000000000000REP       Lieutenant Governor                                     Jerry Patterson                       12 - Springlake 1st Bapti                              01 
01080050001000000000000000000000000000000000000REP       Lieutenant Governor                                     OVER VOTES                            1 - Olton Community Cente                              01 
01080050002000000000000000000000000000000000000REP       Lieutenant Governor                                     OVER VOTES                            2 - Littlefield Junior Hi                              01 
01080050003000000000000000000000000000000000000REP       Lieutenant Governor                                     OVER VOTES                            3 -Earth Community Ctr                                 01 
01080050004000000000000000000000000000000000000REP       Lieutenant Governor                                     OVER VOTES                            4 - Sudan Coop Gin                                     01 
01080050005000000000000000000000000000000000000REP       Lieutenant Governor                                     OVER VOTES                            5 - Olton Elementary                                   01 
01080050006000000000000000000000000000000000000REP       Lieutenant Governor                                     OVER VOTES                            6 - Littlefield TX DOT                                 01 
01080050007000001000000000001000000000000000000REP       Lieutenant Governor                                     OVER VOTES                            7 & 8 - Lamb County CH                                 01 
01080050008000000000000000000000000000000000000REP       Lieutenant Governor                                     OVER VOTES                            9 - Lamb County Electric                               01 
01080050009000000000000000000000000000000000000REP       Lieutenant Governor                                     OVER VOTES                            10 - Amherst City Hall                                 01 
01080050010000000000000000000000000000000000000REP       Lieutenant Governor                                     OVER VOTES                            11 - Sudan Community Ctr                               01 
01080050011000000000000000000000000000000000000REP       Lieutenant Governor                                     OVER VOTES                            12 - Springlake 1st Bapti                              01 
01080060001000003000000000000000003000000000000REP       Lieutenant Governor                                     UNDER VOTES                           1 - Olton Community Cente                              01 
01080060002000001000000000000000001000000000000REP       Lieutenant Governor                                     UNDER VOTES                           2 - Littlefield Junior Hi                              01 
01080060003000041000003000000000038000000000000REP       Lieutenant Governor                                     UNDER VOTES                           3 -Earth Community Ctr                                 01 
01080060004000000000000000000000000000000000000REP       Lieutenant Governor                                     UNDER VOTES                           4 - Sudan Coop Gin                                     01 
01080060005000006000000000000000006000000000000REP       Lieutenant Governor                                     UNDER VOTES                           5 - Olton Elementary                                   01 
01080060006000001000001000000000000000000000000REP       Lieutenant Governor                                     UNDER VOTES                           6 - Littlefield TX DOT                                 01 
01080060007000006000003000000000003000000000000REP       Lieutenant Governor                                     UNDER VOTES                           7 & 8 - Lamb County CH                                 01 
01080060008000003000001000000000002000000000000REP       Lieutenant Governor                                     UNDER VOTES                           9 - Lamb County Electric                               01 
01080060009000009000002000000000007000000000000REP       Lieutenant Governor                                     UNDER VOTES                           10 - Amherst City Hall                                 01 
01080060010000013000001000000000012000000000000REP       Lieutenant Governor                                     UNDER VOTES                           11 - Sudan Community Ctr                               01 
01080060011000003000000000000000003000000000000REP       Lieutenant Governor                                     UNDER VOTES                           12 - Springlake 1st Bapti                              01 
01090010001000038000001000003000034000000000000REP       Attorney General                                        Dan Branch                            1 - Olton Community Cente                              01 
01090010002000013000008000000000005000000000000REP       Attorney General                                        Dan Branch                            2 - Littlefield Junior Hi                              01 
01090010003000103000013000010000080000000000000REP       Attorney General                                        Dan Branch                            3 -Earth Community Ctr                                 01 
01090010004000007000001000001000005000000000000REP       Attorney General                                        Dan Branch                            4 - Sudan Coop Gin                                     01 
01090010005000026000002000000000024000000000000REP       Attorney General                                        Dan Branch                            5 - Olton Elementary                                   01 
01090010006000037000016000005000016000000000000REP       Attorney General                                        Dan Branch                            6 - Littlefield TX DOT                                 01 
01090010007000108000045000004000059000000000000REP       Attorney General                                        Dan Branch                            7 & 8 - Lamb County CH                                 01 
01090010008000054000027000004000023000000000000REP       Attorney General                                        Dan Branch                            9 - Lamb County Electric                               01 
01090010009000058000004000002000052000000000000REP       Attorney General                                        Dan Branch                            10 - Amherst City Hall                                 01 
01090010010000071000008000003000060000000000000REP       Attorney General                                        Dan Branch                            11 - Sudan Community Ctr                               01 
01090010011000018000001000000000017000000000000REP       Attorney General                                        Dan Branch                            12 - Springlake 1st Bapti                              01 
01090020001000061000005000000000056000000000000REP       Attorney General                                        Ken Paxton                            1 - Olton Community Cente                              01 
01090020002000007000002000000000005000000000000REP       Attorney General                                        Ken Paxton                            2 - Littlefield Junior Hi                              01 
01090020003000095000012000000000083000000000000REP       Attorney General                                        Ken Paxton                            3 -Earth Community Ctr                                 01 
01090020004000008000003000001000004000000000000REP       Attorney General                                        Ken Paxton                            4 - Sudan Coop Gin                                     01 
01090020005000037000001000000000036000000000000REP       Attorney General                                        Ken Paxton                            5 - Olton Elementary                                   01 
01090020006000012000002000001000009000000000000REP       Attorney General                                        Ken Paxton                            6 - Littlefield TX DOT                                 01 
01090020007000096000039000004000053000000000000REP       Attorney General                                        Ken Paxton                            7 & 8 - Lamb County CH                                 01 
01090020008000045000019000003000023000000000000REP       Attorney General                                        Ken Paxton                            9 - Lamb County Electric                               01 
01090020009000037000003000000000034000000000000REP       Attorney General                                        Ken Paxton                            10 - Amherst City Hall                                 01 
01090020010000032000002000000000030000000000000REP       Attorney General                                        Ken Paxton                            11 - Sudan Community Ctr                               01 
01090020011000044000004000000000040000000000000REP       Attorney General                                        Ken Paxton                            12 - Springlake 1st Bapti                              01 
01090030001000029000006000003000020000000000000REP       Attorney General                                        Barry Smitherman                      1 - Olton Community Cente                              01 
01090030002000006000004000000000002000000000000REP       Attorney General                                        Barry Smitherman                      2 - Littlefield Junior Hi                              01 
01090030003000048000009000003000036000000000000REP       Attorney General                                        Barry Smitherman                      3 -Earth Community Ctr                                 01 
01090030004000004000002000000000002000000000000REP       Attorney General                                        Barry Smitherman                      4 - Sudan Coop Gin                                     01 
01090030005000014000000000001000013000000000000REP       Attorney General                                        Barry Smitherman                      5 - Olton Elementary                                   01 
01090030006000012000008000002000002000000000000REP       Attorney General                                        Barry Smitherman                      6 - Littlefield TX DOT                                 01 
01090030007000079000036000010000033000000000000REP       Attorney General                                        Barry Smitherman                      7 & 8 - Lamb County CH                                 01 
01090030008000021000012000001000008000000000000REP       Attorney General                                        Barry Smitherman                      9 - Lamb County Electric                               01 
01090030009000022000005000001000016000000000000REP       Attorney General                                        Barry Smitherman                      10 - Amherst City Hall                                 01 
01090030010000043000006000004000033000000000000REP       Attorney General                                        Barry Smitherman                      11 - Sudan Community Ctr                               01 
01090030011000021000003000001000017000000000000REP       Attorney General                                        Barry Smitherman                      12 - Springlake 1st Bapti                              01 
01090040001000000000000000000000000000000000000REP       Attorney General                                        OVER VOTES                            1 - Olton Community Cente                              01 
01090040002000000000000000000000000000000000000REP       Attorney General                                        OVER VOTES                            2 - Littlefield Junior Hi                              01 
01090040003000000000000000000000000000000000000REP       Attorney General                                        OVER VOTES                            3 -Earth Community Ctr                                 01 
01090040004000000000000000000000000000000000000REP       Attorney General                                        OVER VOTES                            4 - Sudan Coop Gin                                     01 
01090040005000000000000000000000000000000000000REP       Attorney General                                        OVER VOTES                            5 - Olton Elementary                                   01 
01090040006000000000000000000000000000000000000REP       Attorney General                                        OVER VOTES                            6 - Littlefield TX DOT                                 01 
01090040007000001000000000001000000000000000000REP       Attorney General                                        OVER VOTES                            7 & 8 - Lamb County CH                                 01 
01090040008000000000000000000000000000000000000REP       Attorney General                                        OVER VOTES                            9 - Lamb County Electric                               01 
01090040009000000000000000000000000000000000000REP       Attorney General                                        OVER VOTES                            10 - Amherst City Hall                                 01 
01090040010000000000000000000000000000000000000REP       Attorney General                                        OVER VOTES                            11 - Sudan Community Ctr                               01 
01090040011000000000000000000000000000000000000REP       Attorney General                                        OVER VOTES                            12 - Springlake 1st Bapti                              01 
01090050001000005000001000000000004000000000000REP       Attorney General                                        UNDER VOTES                           1 - Olton Community Cente                              01 
01090050002000002000001000000000001000000000000REP       Attorney General                                        UNDER VOTES                           2 - Littlefield Junior Hi                              01 
01090050003000062000008000000000054000000000000REP       Attorney General                                        UNDER VOTES                           3 -Earth Community Ctr                                 01 
01090050004000001000001000000000000000000000000REP       Attorney General                                        UNDER VOTES                           4 - Sudan Coop Gin                                     01 
01090050005000007000000000000000007000000000000REP       Attorney General                                        UNDER VOTES                           5 - Olton Elementary                                   01 
01090050006000003000003000000000000000000000000REP       Attorney General                                        UNDER VOTES                           6 - Littlefield TX DOT                                 01 
01090050007000013000003000000000010000000000000REP       Attorney General                                        UNDER VOTES                           7 & 8 - Lamb County CH                                 01 
01090050008000011000005000001000005000000000000REP       Attorney General                                        UNDER VOTES                           9 - Lamb County Electric                               01 
01090050009000015000002000002000011000000000000REP       Attorney General                                        UNDER VOTES                           10 - Amherst City Hall                                 01 
01090050010000028000004000000000024000000000000REP       Attorney General                                        UNDER VOTES                           11 - Sudan Community Ctr                               01 
01090050011000005000002000000000003000000000000REP       Attorney General                                        UNDER VOTES                           12 - Springlake 1st Bapti                              01 
01100010001000046000004000004000038000000000000REP       Comptroller of Public Accounts                          Harvey Hilderbran                     1 - Olton Community Cente                              01 
01100010002000007000005000000000002000000000000REP       Comptroller of Public Accounts                          Harvey Hilderbran                     2 - Littlefield Junior Hi                              01 
01100010003000081000018000007000056000000000000REP       Comptroller of Public Accounts                          Harvey Hilderbran                     3 -Earth Community Ctr                                 01 
01100010004000008000002000000000006000000000000REP       Comptroller of Public Accounts                          Harvey Hilderbran                     4 - Sudan Coop Gin                                     01 
01100010005000023000002000001000020000000000000REP       Comptroller of Public Accounts                          Harvey Hilderbran                     5 - Olton Elementary                                   01 
01100010006000023000009000002000012000000000000REP       Comptroller of Public Accounts                          Harvey Hilderbran                     6 - Littlefield TX DOT                                 01 
01100010007000101000048000008000045000000000000REP       Comptroller of Public Accounts                          Harvey Hilderbran                     7 & 8 - Lamb County CH                                 01 
01100010008000051000027000004000020000000000000REP       Comptroller of Public Accounts                          Harvey Hilderbran                     9 - Lamb County Electric                               01 
01100010009000054000004000001000049000000000000REP       Comptroller of Public Accounts                          Harvey Hilderbran                     10 - Amherst City Hall                                 01 
01100010010000076000010000006000060000000000000REP       Comptroller of Public Accounts                          Harvey Hilderbran                     11 - Sudan Community Ctr                               01 
01100010011000023000002000001000020000000000000REP       Comptroller of Public Accounts                          Harvey Hilderbran                     12 - Springlake 1st Bapti                              01 
01100020001000021000003000002000016000000000000REP       Comptroller of Public Accounts                          Debra Medina                          1 - Olton Community Cente                              01 
01100020002000005000003000000000002000000000000REP       Comptroller of Public Accounts                          Debra Medina                          2 - Littlefield Junior Hi                              01 
01100020003000063000003000001000059000000000000REP       Comptroller of Public Accounts                          Debra Medina                          3 -Earth Community Ctr                                 01 
01100020004000002000002000000000000000000000000REP       Comptroller of Public Accounts                          Debra Medina                          4 - Sudan Coop Gin                                     01 
01100020005000008000000000000000008000000000000REP       Comptroller of Public Accounts                          Debra Medina                          5 - Olton Elementary                                   01 
01100020006000011000006000002000003000000000000REP       Comptroller of Public Accounts                          Debra Medina                          6 - Littlefield TX DOT                                 01 
01100020007000026000009000001000016000000000000REP       Comptroller of Public Accounts                          Debra Medina                          7 & 8 - Lamb County CH                                 01 
01100020008000020000006000001000013000000000000REP       Comptroller of Public Accounts                          Debra Medina                          9 - Lamb County Electric                               01 
01100020009000009000000000000000009000000000000REP       Comptroller of Public Accounts                          Debra Medina                          10 - Amherst City Hall                                 01 
01100020010000011000002000000000009000000000000REP       Comptroller of Public Accounts                          Debra Medina                          11 - Sudan Community Ctr                               01 
01100020011000008000000000000000008000000000000REP       Comptroller of Public Accounts                          Debra Medina                          12 - Springlake 1st Bapti                              01 
01100030001000048000005000000000043000000000000REP       Comptroller of Public Accounts                          Glenn Hegar                           1 - Olton Community Cente                              01 
01100030002000007000004000000000003000000000000REP       Comptroller of Public Accounts                          Glenn Hegar                           2 - Littlefield Junior Hi                              01 
01100030003000085000012000004000069000000000000REP       Comptroller of Public Accounts                          Glenn Hegar                           3 -Earth Community Ctr                                 01 
01100030004000008000002000002000004000000000000REP       Comptroller of Public Accounts                          Glenn Hegar                           4 - Sudan Coop Gin                                     01 
01100030005000039000001000000000038000000000000REP       Comptroller of Public Accounts                          Glenn Hegar                           5 - Olton Elementary                                   01 
01100030006000022000008000004000010000000000000REP       Comptroller of Public Accounts                          Glenn Hegar                           6 - Littlefield TX DOT                                 01 
01100030007000124000051000004000069000000000000REP       Comptroller of Public Accounts                          Glenn Hegar                           7 & 8 - Lamb County CH                                 01 
01100030008000043000021000003000019000000000000REP       Comptroller of Public Accounts                          Glenn Hegar                           9 - Lamb County Electric                               01 
01100030009000041000005000002000034000000000000REP       Comptroller of Public Accounts                          Glenn Hegar                           10 - Amherst City Hall                                 01 
01100030010000040000002000000000038000000000000REP       Comptroller of Public Accounts                          Glenn Hegar                           11 - Sudan Community Ctr                               01 
01100030011000038000005000000000033000000000000REP       Comptroller of Public Accounts                          Glenn Hegar                           12 - Springlake 1st Bapti                              01 
01100040001000004000000000000000004000000000000REP       Comptroller of Public Accounts                          Raul Torres                           1 - Olton Community Cente                              01 
01100040002000003000001000000000002000000000000REP       Comptroller of Public Accounts                          Raul Torres                           2 - Littlefield Junior Hi                              01 
01100040003000014000000000000000014000000000000REP       Comptroller of Public Accounts                          Raul Torres                           3 -Earth Community Ctr                                 01 
01100040004000000000000000000000000000000000000REP       Comptroller of Public Accounts                          Raul Torres                           4 - Sudan Coop Gin                                     01 
01100040005000003000000000000000003000000000000REP       Comptroller of Public Accounts                          Raul Torres                           5 - Olton Elementary                                   01 
01100040006000001000000000000000001000000000000REP       Comptroller of Public Accounts                          Raul Torres                           6 - Littlefield TX DOT                                 01 
01100040007000007000001000002000004000000000000REP       Comptroller of Public Accounts                          Raul Torres                           7 & 8 - Lamb County CH                                 01 
01100040008000003000003000000000000000000000000REP       Comptroller of Public Accounts                          Raul Torres                           9 - Lamb County Electric                               01 
01100040009000002000000000000000002000000000000REP       Comptroller of Public Accounts                          Raul Torres                           10 - Amherst City Hall                                 01 
01100040010000003000000000000000003000000000000REP       Comptroller of Public Accounts                          Raul Torres                           11 - Sudan Community Ctr                               01 
01100040011000002000000000000000002000000000000REP       Comptroller of Public Accounts                          Raul Torres                           12 - Springlake 1st Bapti                              01 
01100050001000000000000000000000000000000000000REP       Comptroller of Public Accounts                          OVER VOTES                            1 - Olton Community Cente                              01 
01100050002000000000000000000000000000000000000REP       Comptroller of Public Accounts                          OVER VOTES                            2 - Littlefield Junior Hi                              01 
01100050003000000000000000000000000000000000000REP       Comptroller of Public Accounts                          OVER VOTES                            3 -Earth Community Ctr                                 01 
01100050004000000000000000000000000000000000000REP       Comptroller of Public Accounts                          OVER VOTES                            4 - Sudan Coop Gin                                     01 
01100050005000000000000000000000000000000000000REP       Comptroller of Public Accounts                          OVER VOTES                            5 - Olton Elementary                                   01 
01100050006000000000000000000000000000000000000REP       Comptroller of Public Accounts                          OVER VOTES                            6 - Littlefield TX DOT                                 01 
01100050007000001000000000001000000000000000000REP       Comptroller of Public Accounts                          OVER VOTES                            7 & 8 - Lamb County CH                                 01 
01100050008000000000000000000000000000000000000REP       Comptroller of Public Accounts                          OVER VOTES                            9 - Lamb County Electric                               01 
01100050009000000000000000000000000000000000000REP       Comptroller of Public Accounts                          OVER VOTES                            10 - Amherst City Hall                                 01 
01100050010000000000000000000000000000000000000REP       Comptroller of Public Accounts                          OVER VOTES                            11 - Sudan Community Ctr                               01 
01100050011000000000000000000000000000000000000REP       Comptroller of Public Accounts                          OVER VOTES                            12 - Springlake 1st Bapti                              01 
01100060001000014000001000000000013000000000000REP       Comptroller of Public Accounts                          UNDER VOTES                           1 - Olton Community Cente                              01 
01100060002000006000002000000000004000000000000REP       Comptroller of Public Accounts                          UNDER VOTES                           2 - Littlefield Junior Hi                              01 
01100060003000066000009000001000056000000000000REP       Comptroller of Public Accounts                          UNDER VOTES                           3 -Earth Community Ctr                                 01 
01100060004000002000001000000000001000000000000REP       Comptroller of Public Accounts                          UNDER VOTES                           4 - Sudan Coop Gin                                     01 
01100060005000011000000000000000011000000000000REP       Comptroller of Public Accounts                          UNDER VOTES                           5 - Olton Elementary                                   01 
01100060006000007000006000000000001000000000000REP       Comptroller of Public Accounts                          UNDER VOTES                           6 - Littlefield TX DOT                                 01 
01100060007000037000014000003000020000000000000REP       Comptroller of Public Accounts                          UNDER VOTES                           7 & 8 - Lamb County CH                                 01 
01100060008000014000006000001000007000000000000REP       Comptroller of Public Accounts                          UNDER VOTES                           9 - Lamb County Electric                               01 
01100060009000026000005000002000019000000000000REP       Comptroller of Public Accounts                          UNDER VOTES                           10 - Amherst City Hall                                 01 
01100060010000045000006000001000038000000000000REP       Comptroller of Public Accounts                          UNDER VOTES                           11 - Sudan Community Ctr                               01 
01100060011000017000003000000000014000000000000REP       Comptroller of Public Accounts                          UNDER VOTES                           12 - Springlake 1st Bapti                              01 
01110010001000086000008000006000072000000000000REP       Commissioner of the General Land Office                 George P. Bush                        1 - Olton Community Cente                              01 
01110010002000022000013000000000009000000000000REP       Commissioner of the General Land Office                 George P. Bush                        2 - Littlefield Junior Hi                              01 
01110010003000193000029000013000151000000000000REP       Commissioner of the General Land Office                 George P. Bush                        3 -Earth Community Ctr                                 01 
01110010004000012000005000000000007000000000000REP       Commissioner of the General Land Office                 George P. Bush                        4 - Sudan Coop Gin                                     01 
01110010005000062000000000001000061000000000000REP       Commissioner of the General Land Office                 George P. Bush                        5 - Olton Elementary                                   01 
01110010006000046000019000008000019000000000000REP       Commissioner of the General Land Office                 George P. Bush                        6 - Littlefield TX DOT                                 01 
01110010007000208000086000016000106000000000000REP       Commissioner of the General Land Office                 George P. Bush                        7 & 8 - Lamb County CH                                 01 
01110010008000091000043000007000041000000000000REP       Commissioner of the General Land Office                 George P. Bush                        9 - Lamb County Electric                               01 
01110010009000076000007000003000066000000000000REP       Commissioner of the General Land Office                 George P. Bush                        10 - Amherst City Hall                                 01 
01110010010000119000015000007000097000000000000REP       Commissioner of the General Land Office                 George P. Bush                        11 - Sudan Community Ctr                               01 
01110010011000060000008000001000051000000000000REP       Commissioner of the General Land Office                 George P. Bush                        12 - Springlake 1st Bapti                              01 
