01350010001000017NONCITY02 LAREDO Mayor                                            Guadalupe (Lupe) Botello              PCT 401                                                01 
01350010002000008NONCITY02 LAREDO Mayor                                            Guadalupe (Lupe) Botello              PCT 402                                                01 
01350010003000003NONCITY02 LAREDO Mayor                                            Guadalupe (Lupe) Botello              PCT 403                                                01 
01350010004000016NONCITY02 LAREDO Mayor                                            Guadalupe (Lupe) Botello              PCT 404                                                01 
01350010005000013NONCITY02 LAREDO Mayor                                            Guadalupe (Lupe) Botello              PCT 405                                                01 
01350010006000006NONCITY02 LAREDO Mayor                                            Guadalupe (Lupe) Botello              PCT 406                                                01 
01350010007000007NONCITY02 LAREDO Mayor                                            Guadalupe (Lupe) Botello              PCT 407                                                01 
01350010008000008NONCITY02 LAREDO Mayor                                            Guadalupe (Lupe) Botello              PCT 308                                                01 
01350010009000027NONCITY02 LAREDO Mayor                                            Guadalupe (Lupe) Botello              PCT 309                                                01 
01350010010000006NONCITY02 LAREDO Mayor                                            Guadalupe (Lupe) Botello              PCT 310                                                01 
01350010011000011NONCITY02 LAREDO Mayor                                            Guadalupe (Lupe) Botello              PCT 311                                                01 
01350010012000016NONCITY02 LAREDO Mayor                                            Guadalupe (Lupe) Botello              PCT 312                                                01 
01350010013000010NONCITY02 LAREDO Mayor                                            Guadalupe (Lupe) Botello              PCT 413                                                01 
01350010014000011NONCITY02 LAREDO Mayor                                            Guadalupe (Lupe) Botello              PCT 414                                                01 
01350010015000011NONCITY02 LAREDO Mayor                                            Guadalupe (Lupe) Botello              PCT 215                                                01 
01350010016000008NONCITY02 LAREDO Mayor                                            Guadalupe (Lupe) Botello              PCT 416                                                01 
01350010017000004NONCITY02 LAREDO Mayor                                            Guadalupe (Lupe) Botello              PCT 417                                                01 
01350010018000017NONCITY02 LAREDO Mayor                                            Guadalupe (Lupe) Botello              PCT 218                                                01 
01350010019000017NONCITY02 LAREDO Mayor                                            Guadalupe (Lupe) Botello              PCT 219                                                01 
01350010020000005NONCITY02 LAREDO Mayor                                            Guadalupe (Lupe) Botello              PCT 220                                                01 
01350010021000016NONCITY02 LAREDO Mayor                                            Guadalupe (Lupe) Botello              PCT 221                                                01 
01350010022000004NONCITY02 LAREDO Mayor                                            Guadalupe (Lupe) Botello              PCT 122                                                01 
01350010023000006NONCITY02 LAREDO Mayor                                            Guadalupe (Lupe) Botello              PCT 423                                                01 
01350010024000011NONCITY02 LAREDO Mayor                                            Guadalupe (Lupe) Botello              PCT 124                                                01 
01350010025000007NONCITY02 LAREDO Mayor                                            Guadalupe (Lupe) Botello              PCT 125                                                01 
01350010026000008NONCITY02 LAREDO Mayor                                            Guadalupe (Lupe) Botello              PCT 226                                                01 
01350010027000028NONCITY02 LAREDO Mayor                                            Guadalupe (Lupe) Botello              PCT 227                                                01 
01350010028000001NONCITY02 LAREDO Mayor                                            Guadalupe (Lupe) Botello              PCT 128                                                01 
01350010029000009NONCITY02 LAREDO Mayor                                            Guadalupe (Lupe) Botello              PCT 129                                                01 
01350010030000023NONCITY02 LAREDO Mayor                                            Guadalupe (Lupe) Botello              PCT 130                                                01 
01350010031000031NONCITY02 LAREDO Mayor                                            Guadalupe (Lupe) Botello              PCT 231                                                01 
01350010032000021NONCITY02 LAREDO Mayor                                            Guadalupe (Lupe) Botello              PCT 132                                                01 
01350010033000039NONCITY02 LAREDO Mayor                                            Guadalupe (Lupe) Botello              PCT 133                                                01 
01350010039000037NONCITY02 LAREDO Mayor                                            Guadalupe (Lupe) Botello              PCT 239                                                01 
01350010040000019NONCITY02 LAREDO Mayor                                            Guadalupe (Lupe) Botello              PCT 340                                                01 
01350010041000018NONCITY02 LAREDO Mayor                                            Guadalupe (Lupe) Botello              PCT 341                                                01 
01350010042000022NONCITY02 LAREDO Mayor                                            Guadalupe (Lupe) Botello              PCT 342                                                01 
01350010043000050NONCITY02 LAREDO Mayor                                            Guadalupe (Lupe) Botello              PCT 343                                                01 
01350010044000063NONCITY02 LAREDO Mayor                                            Guadalupe (Lupe) Botello              PCT 344                                                01 
01350010045000031NONCITY02 LAREDO Mayor                                            Guadalupe (Lupe) Botello              PCT 345                                                01 
01350010046000042NONCITY02 LAREDO Mayor                                            Guadalupe (Lupe) Botello              PCT 446                                                01 
01350010047000019NONCITY02 LAREDO Mayor                                            Guadalupe (Lupe) Botello              PCT 447                                                01 
01350010048000001NONCITY02 LAREDO Mayor                                            Guadalupe (Lupe) Botello              PCT 448                                                01 
01350010049000013NONCITY02 LAREDO Mayor                                            Guadalupe (Lupe) Botello              PCT 349                                                01 
01350010051000007NONCITY02 LAREDO Mayor                                            Guadalupe (Lupe) Botello              PCT 351                                                01 
01350010052000020NONCITY02 LAREDO Mayor                                            Guadalupe (Lupe) Botello              PCT 252                                                01 
01350010053000002NONCITY02 LAREDO Mayor                                            Guadalupe (Lupe) Botello              PCT 453                                                01 
01350010054000004NONCITY02 LAREDO Mayor                                            Guadalupe (Lupe) Botello              PCT 154                                                01 
01350010055000018NONCITY02 LAREDO Mayor                                            Guadalupe (Lupe) Botello              PCT 255                                                01 
01350010056000046NONCITY02 LAREDO Mayor                                            Guadalupe (Lupe) Botello              PCT 356                                                01 
01350010058000039NONCITY02 LAREDO Mayor                                            Guadalupe (Lupe) Botello              PCT 458                                                01 
01350010059000048NONCITY02 LAREDO Mayor                                            Guadalupe (Lupe) Botello              PCT 359                                                01 
01350010060000007NONCITY02 LAREDO Mayor                                            Guadalupe (Lupe) Botello              PCT 360                                                01 
01350010061000014NONCITY02 LAREDO Mayor                                            Guadalupe (Lupe) Botello              PCT 361                                                01 
01350010062000003NONCITY02 LAREDO Mayor                                            Guadalupe (Lupe) Botello              PCT 362                                                01 
01350010063000009NONCITY02 LAREDO Mayor                                            Guadalupe (Lupe) Botello              PCT 363                                                01 
01350010064000006NONCITY02 LAREDO Mayor                                            Guadalupe (Lupe) Botello              PCT 164                                                01 
01350010065000018NONCITY02 LAREDO Mayor                                            Guadalupe (Lupe) Botello              PCT 465                                                01 
01350010066000016NONCITY02 LAREDO Mayor                                            Guadalupe (Lupe) Botello              PCT 266                                                01 
01350010067000006NONCITY02 LAREDO Mayor                                            Guadalupe (Lupe) Botello              PCT 267                                                01 
01350010068000000NONCITY02 LAREDO Mayor                                            Guadalupe (Lupe) Botello              PCT 268                                                01 
01350020001000008NONCITY02 LAREDO Mayor                                            Rolando S. Herrera                    PCT 401                                                01 
01350020002000002NONCITY02 LAREDO Mayor                                            Rolando S. Herrera                    PCT 402                                                01 
01350020003000002NONCITY02 LAREDO Mayor                                            Rolando S. Herrera                    PCT 403                                                01 
01350020004000008NONCITY02 LAREDO Mayor                                            Rolando S. Herrera                    PCT 404                                                01 
01350020005000005NONCITY02 LAREDO Mayor                                            Rolando S. Herrera                    PCT 405                                                01 
01350020006000002NONCITY02 LAREDO Mayor                                            Rolando S. Herrera                    PCT 406                                                01 
01350020007000003NONCITY02 LAREDO Mayor                                            Rolando S. Herrera                    PCT 407                                                01 
01350020008000002NONCITY02 LAREDO Mayor                                            Rolando S. Herrera                    PCT 308                                                01 
01350020009000004NONCITY02 LAREDO Mayor                                            Rolando S. Herrera                    PCT 309                                                01 
01350020010000002NONCITY02 LAREDO Mayor                                            Rolando S. Herrera                    PCT 310                                                01 
01350020011000007NONCITY02 LAREDO Mayor                                            Rolando S. Herrera                    PCT 311                                                01 
01350020012000004NONCITY02 LAREDO Mayor                                            Rolando S. Herrera                    PCT 312                                                01 
01350020013000009NONCITY02 LAREDO Mayor                                            Rolando S. Herrera                    PCT 413                                                01 
01350020014000003NONCITY02 LAREDO Mayor                                            Rolando S. Herrera                    PCT 414                                                01 
01350020015000005NONCITY02 LAREDO Mayor                                            Rolando S. Herrera                    PCT 215                                                01 
01350020016000005NONCITY02 LAREDO Mayor                                            Rolando S. Herrera                    PCT 416                                                01 
01350020017000002NONCITY02 LAREDO Mayor                                            Rolando S. Herrera                    PCT 417                                                01 
01350020018000005NONCITY02 LAREDO Mayor                                            Rolando S. Herrera                    PCT 218                                                01 
01350020019000002NONCITY02 LAREDO Mayor                                            Rolando S. Herrera                    PCT 219                                                01 
01350020020000002NONCITY02 LAREDO Mayor                                            Rolando S. Herrera                    PCT 220                                                01 
01350020021000004NONCITY02 LAREDO Mayor                                            Rolando S. Herrera                    PCT 221                                                01 
01350020022000000NONCITY02 LAREDO Mayor                                            Rolando S. Herrera                    PCT 122                                                01 
01350020023000005NONCITY02 LAREDO Mayor                                            Rolando S. Herrera                    PCT 423                                                01 
01350020024000012NONCITY02 LAREDO Mayor                                            Rolando S. Herrera                    PCT 124                                                01 
01350020025000000NONCITY02 LAREDO Mayor                                            Rolando S. Herrera                    PCT 125                                                01 
01350020026000003NONCITY02 LAREDO Mayor                                            Rolando S. Herrera                    PCT 226                                                01 
01350020027000004NONCITY02 LAREDO Mayor                                            Rolando S. Herrera                    PCT 227                                                01 
01350020028000005NONCITY02 LAREDO Mayor                                            Rolando S. Herrera                    PCT 128                                                01 
01350020029000009NONCITY02 LAREDO Mayor                                            Rolando S. Herrera                    PCT 129                                                01 
01350020030000012NONCITY02 LAREDO Mayor                                            Rolando S. Herrera                    PCT 130                                                01 
01350020031000009NONCITY02 LAREDO Mayor                                            Rolando S. Herrera                    PCT 231                                                01 
01350020032000008NONCITY02 LAREDO Mayor                                            Rolando S. Herrera                    PCT 132                                                01 
01350020033000017NONCITY02 LAREDO Mayor                                            Rolando S. Herrera                    PCT 133                                                01 
01350020039000005NONCITY02 LAREDO Mayor                                            Rolando S. Herrera                    PCT 239                                                01 
01350020040000006NONCITY02 LAREDO Mayor                                            Rolando S. Herrera                    PCT 340                                                01 
01350020041000003NONCITY02 LAREDO Mayor                                            Rolando S. Herrera                    PCT 341                                                01 
01350020042000004NONCITY02 LAREDO Mayor                                            Rolando S. Herrera                    PCT 342                                                01 
01350020043000002NONCITY02 LAREDO Mayor                                            Rolando S. Herrera                    PCT 343                                                01 
01350020044000002NONCITY02 LAREDO Mayor                                            Rolando S. Herrera                    PCT 344                                                01 
01350020045000003NONCITY02 LAREDO Mayor                                            Rolando S. Herrera                    PCT 345                                                01 
01350020046000007NONCITY02 LAREDO Mayor                                            Rolando S. Herrera                    PCT 446                                                01 
01350020047000002NONCITY02 LAREDO Mayor                                            Rolando S. Herrera                    PCT 447                                                01 
01350020048000000NONCITY02 LAREDO Mayor                                            Rolando S. Herrera                    PCT 448                                                01 
01350020049000002NONCITY02 LAREDO Mayor                                            Rolando S. Herrera                    PCT 349                                                01 
01350020051000002NONCITY02 LAREDO Mayor                                            Rolando S. Herrera                    PCT 351                                                01 
01350020052000005NONCITY02 LAREDO Mayor                                            Rolando S. Herrera                    PCT 252                                                01 
01350020053000001NONCITY02 LAREDO Mayor                                            Rolando S. Herrera                    PCT 453                                                01 
01350020054000002NONCITY02 LAREDO Mayor                                            Rolando S. Herrera                    PCT 154                                                01 
01350020055000000NONCITY02 LAREDO Mayor                                            Rolando S. Herrera                    PCT 255                                                01 
01350020056000005NONCITY02 LAREDO Mayor                                            Rolando S. Herrera                    PCT 356                                                01 
01350020058000009NONCITY02 LAREDO Mayor                                            Rolando S. Herrera                    PCT 458                                                01 
01350020059000006NONCITY02 LAREDO Mayor                                            Rolando S. Herrera                    PCT 359                                                01 
01350020060000001NONCITY02 LAREDO Mayor                                            Rolando S. Herrera                    PCT 360                                                01 
01350020061000001NONCITY02 LAREDO Mayor                                            Rolando S. Herrera                    PCT 361                                                01 
01350020062000001NONCITY02 LAREDO Mayor                                            Rolando S. Herrera                    PCT 362                                                01 
01350020063000002NONCITY02 LAREDO Mayor                                            Rolando S. Herrera                    PCT 363                                                01 
01350020064000002NONCITY02 LAREDO Mayor                                            Rolando S. Herrera                    PCT 164                                                01 
01350020065000002NONCITY02 LAREDO Mayor                                            Rolando S. Herrera                    PCT 465                                                01 
01350020066000002NONCITY02 LAREDO Mayor                                            Rolando S. Herrera                    PCT 266                                                01 
01350020067000005NONCITY02 LAREDO Mayor                                            Rolando S. Herrera                    PCT 267                                                01 
01350020068000000NONCITY02 LAREDO Mayor                                            Rolando S. Herrera                    PCT 268                                                01 
01350030001000003NONCITY02 LAREDO Mayor                                            Jose S. Dorantes Jr.                  PCT 401                                                01 
01350030002000001NONCITY02 LAREDO Mayor                                            Jose S. Dorantes Jr.                  PCT 402                                                01 
01350030003000001NONCITY02 LAREDO Mayor                                            Jose S. Dorantes Jr.                  PCT 403                                                01 
01350030004000006NONCITY02 LAREDO Mayor                                            Jose S. Dorantes Jr.                  PCT 404                                                01 
01350030005000004NONCITY02 LAREDO Mayor                                            Jose S. Dorantes Jr.                  PCT 405                                                01 
01350030006000002NONCITY02 LAREDO Mayor                                            Jose S. Dorantes Jr.                  PCT 406                                                01 
01350030007000000NONCITY02 LAREDO Mayor                                            Jose S. Dorantes Jr.                  PCT 407                                                01 
01350030008000000NONCITY02 LAREDO Mayor                                            Jose S. Dorantes Jr.                  PCT 308                                                01 
01350030009000001NONCITY02 LAREDO Mayor                                            Jose S. Dorantes Jr.                  PCT 309                                                01 
01350030010000002NONCITY02 LAREDO Mayor                                            Jose S. Dorantes Jr.                  PCT 310                                                01 
01350030011000002NONCITY02 LAREDO Mayor                                            Jose S. Dorantes Jr.                  PCT 311                                                01 
01350030012000001NONCITY02 LAREDO Mayor                                            Jose S. Dorantes Jr.                  PCT 312                                                01 
01350030013000004NONCITY02 LAREDO Mayor                                            Jose S. Dorantes Jr.                  PCT 413                                                01 
01350030014000002NONCITY02 LAREDO Mayor                                            Jose S. Dorantes Jr.                  PCT 414                                                01 
01350030015000000NONCITY02 LAREDO Mayor                                            Jose S. Dorantes Jr.                  PCT 215                                                01 
01350030016000002NONCITY02 LAREDO Mayor                                            Jose S. Dorantes Jr.                  PCT 416                                                01 
01350030017000000NONCITY02 LAREDO Mayor                                            Jose S. Dorantes Jr.                  PCT 417                                                01 
01350030018000001NONCITY02 LAREDO Mayor                                            Jose S. Dorantes Jr.                  PCT 218                                                01 
01350030019000000NONCITY02 LAREDO Mayor                                            Jose S. Dorantes Jr.                  PCT 219                                                01 
01350030020000001NONCITY02 LAREDO Mayor                                            Jose S. Dorantes Jr.                  PCT 220                                                01 
01350030021000002NONCITY02 LAREDO Mayor                                            Jose S. Dorantes Jr.                  PCT 221                                                01 
01350030022000001NONCITY02 LAREDO Mayor                                            Jose S. Dorantes Jr.                  PCT 122                                                01 
01350030023000000NONCITY02 LAREDO Mayor                                            Jose S. Dorantes Jr.                  PCT 423                                                01 
01350030024000000NONCITY02 LAREDO Mayor                                            Jose S. Dorantes Jr.                  PCT 124                                                01 
01350030025000000NONCITY02 LAREDO Mayor                                            Jose S. Dorantes Jr.                  PCT 125                                                01 
01350030026000000NONCITY02 LAREDO Mayor                                            Jose S. Dorantes Jr.                  PCT 226                                                01 
01350030027000008NONCITY02 LAREDO Mayor                                            Jose S. Dorantes Jr.                  PCT 227                                                01 
01350030028000002NONCITY02 LAREDO Mayor                                            Jose S. Dorantes Jr.                  PCT 128                                                01 
01350030029000004NONCITY02 LAREDO Mayor                                            Jose S. Dorantes Jr.                  PCT 129                                                01 
01350030030000003NONCITY02 LAREDO Mayor                                            Jose S. Dorantes Jr.                  PCT 130                                                01 
01350030031000006NONCITY02 LAREDO Mayor                                            Jose S. Dorantes Jr.                  PCT 231                                                01 
01350030032000004NONCITY02 LAREDO Mayor                                            Jose S. Dorantes Jr.                  PCT 132                                                01 
01350030033000006NONCITY02 LAREDO Mayor                                            Jose S. Dorantes Jr.                  PCT 133                                                01 
01350030039000004NONCITY02 LAREDO Mayor                                            Jose S. Dorantes Jr.                  PCT 239                                                01 
01350030040000002NONCITY02 LAREDO Mayor                                            Jose S. Dorantes Jr.                  PCT 340                                                01 
01350030041000002NONCITY02 LAREDO Mayor                                            Jose S. Dorantes Jr.                  PCT 341                                                01 
01350030042000001NONCITY02 LAREDO Mayor                                            Jose S. Dorantes Jr.                  PCT 342                                                01 
01350030043000000NONCITY02 LAREDO Mayor                                            Jose S. Dorantes Jr.                  PCT 343                                                01 
01350030044000006NONCITY02 LAREDO Mayor                                            Jose S. Dorantes Jr.                  PCT 344                                                01 
01350030045000001NONCITY02 LAREDO Mayor                                            Jose S. Dorantes Jr.                  PCT 345                                                01 
01350030046000001NONCITY02 LAREDO Mayor                                            Jose S. Dorantes Jr.                  PCT 446                                                01 
01350030047000001NONCITY02 LAREDO Mayor                                            Jose S. Dorantes Jr.                  PCT 447                                                01 
01350030048000000NONCITY02 LAREDO Mayor                                            Jose S. Dorantes Jr.                  PCT 448                                                01 
01350030049000001NONCITY02 LAREDO Mayor                                            Jose S. Dorantes Jr.                  PCT 349                                                01 
01350030051000000NONCITY02 LAREDO Mayor                                            Jose S. Dorantes Jr.                  PCT 351                                                01 
01350030052000005NONCITY02 LAREDO Mayor                                            Jose S. Dorantes Jr.                  PCT 252                                                01 
01350030053000000NONCITY02 LAREDO Mayor                                            Jose S. Dorantes Jr.                  PCT 453                                                01 
01350030054000004NONCITY02 LAREDO Mayor                                            Jose S. Dorantes Jr.                  PCT 154                                                01 
01350030055000000NONCITY02 LAREDO Mayor                                            Jose S. Dorantes Jr.                  PCT 255                                                01 
01350030056000002NONCITY02 LAREDO Mayor                                            Jose S. Dorantes Jr.                  PCT 356                                                01 
01350030058000003NONCITY02 LAREDO Mayor                                            Jose S. Dorantes Jr.                  PCT 458                                                01 
01350030059000001NONCITY02 LAREDO Mayor                                            Jose S. Dorantes Jr.                  PCT 359                                                01 
01350030060000001NONCITY02 LAREDO Mayor                                            Jose S. Dorantes Jr.                  PCT 360                                                01 
01350030061000001NONCITY02 LAREDO Mayor                                            Jose S. Dorantes Jr.                  PCT 361                                                01 
01350030062000000NONCITY02 LAREDO Mayor                                            Jose S. Dorantes Jr.                  PCT 362                                                01 
01350030063000000NONCITY02 LAREDO Mayor                                            Jose S. Dorantes Jr.                  PCT 363                                                01 
01350030064000000NONCITY02 LAREDO Mayor                                            Jose S. Dorantes Jr.                  PCT 164                                                01 
01350030065000005NONCITY02 LAREDO Mayor                                            Jose S. Dorantes Jr.                  PCT 465                                                01 
01350030066000000NONCITY02 LAREDO Mayor                                            Jose S. Dorantes Jr.                  PCT 266                                                01 
01350030067000002NONCITY02 LAREDO Mayor                                            Jose S. Dorantes Jr.                  PCT 267                                                01 
01350030068000000NONCITY02 LAREDO Mayor                                            Jose S. Dorantes Jr.                  PCT 268                                                01 
01350040001000128NONCITY02 LAREDO Mayor                                            Pete Saenz                            PCT 401                                                01 
01350040002000147NONCITY02 LAREDO Mayor                                            Pete Saenz                            PCT 402                                                01 
01350040003000103NONCITY02 LAREDO Mayor                                            Pete Saenz                            PCT 403                                                01 
01350040004000132NONCITY02 LAREDO Mayor                                            Pete Saenz                            PCT 404                                                01 
01350040005000135NONCITY02 LAREDO Mayor                                            Pete Saenz                            PCT 405                                                01 
01350040006000095NONCITY02 LAREDO Mayor                                            Pete Saenz                            PCT 406                                                01 
01350040007000041NONCITY02 LAREDO Mayor                                            Pete Saenz                            PCT 407                                                01 
01350040008000147NONCITY02 LAREDO Mayor                                            Pete Saenz                            PCT 308                                                01 
01350040009000518NONCITY02 LAREDO Mayor                                            Pete Saenz                            PCT 309                                                01 
01350040010000051NONCITY02 LAREDO Mayor                                            Pete Saenz                            PCT 310                                                01 
01350040011000192NONCITY02 LAREDO Mayor                                            Pete Saenz                            PCT 311                                                01 
01350040012000100NONCITY02 LAREDO Mayor                                            Pete Saenz                            PCT 312                                                01 
01350040013000168NONCITY02 LAREDO Mayor                                            Pete Saenz                            PCT 413                                                01 
01350040014000118NONCITY02 LAREDO Mayor                                            Pete Saenz                            PCT 414                                                01 
01350040015000209NONCITY02 LAREDO Mayor                                            Pete Saenz                            PCT 215                                                01 
01350040016000087NONCITY02 LAREDO Mayor                                            Pete Saenz                            PCT 416                                                01 
01350040017000092NONCITY02 LAREDO Mayor                                            Pete Saenz                            PCT 417                                                01 
01350040018000254NONCITY02 LAREDO Mayor                                            Pete Saenz                            PCT 218                                                01 
01350040019000240NONCITY02 LAREDO Mayor                                            Pete Saenz                            PCT 219                                                01 
01350040020000101NONCITY02 LAREDO Mayor                                            Pete Saenz                            PCT 220                                                01 
01350040021000301NONCITY02 LAREDO Mayor                                            Pete Saenz                            PCT 221                                                01 
01350040022000103NONCITY02 LAREDO Mayor                                            Pete Saenz                            PCT 122                                                01 
01350040023000127NONCITY02 LAREDO Mayor                                            Pete Saenz                            PCT 423                                                01 
01350040024000216NONCITY02 LAREDO Mayor                                            Pete Saenz                            PCT 124                                                01 
01350040025000087NONCITY02 LAREDO Mayor                                            Pete Saenz                            PCT 125                                                01 
01350040026000081NONCITY02 LAREDO Mayor                                            Pete Saenz                            PCT 226                                                01 
01350040027000246NONCITY02 LAREDO Mayor                                            Pete Saenz                            PCT 227                                                01 
01350040028000084NONCITY02 LAREDO Mayor                                            Pete Saenz                            PCT 128                                                01 
01350040029000252NONCITY02 LAREDO Mayor                                            Pete Saenz                            PCT 129                                                01 
01350040030000509NONCITY02 LAREDO Mayor                                            Pete Saenz                            PCT 130                                                01 
01350040031000446NONCITY02 LAREDO Mayor                                            Pete Saenz                            PCT 231                                                01 
01350040032000252NONCITY02 LAREDO Mayor                                            Pete Saenz                            PCT 132                                                01 
01350040033000327NONCITY02 LAREDO Mayor                                            Pete Saenz                            PCT 133                                                01 
01350040039000556NONCITY02 LAREDO Mayor                                            Pete Saenz                            PCT 239                                                01 
01350040040000537NONCITY02 LAREDO Mayor                                            Pete Saenz                            PCT 340                                                01 
01350040041000335NONCITY02 LAREDO Mayor                                            Pete Saenz                            PCT 341                                                01 
01350040042000267NONCITY02 LAREDO Mayor                                            Pete Saenz                            PCT 342                                                01 
01350040043000447NONCITY02 LAREDO Mayor                                            Pete Saenz                            PCT 343                                                01 
01350040044001053NONCITY02 LAREDO Mayor                                            Pete Saenz                            PCT 344                                                01 
01350040045000274NONCITY02 LAREDO Mayor                                            Pete Saenz                            PCT 345                                                01 
01350040046000320NONCITY02 LAREDO Mayor                                            Pete Saenz                            PCT 446                                                01 
01350040047000220NONCITY02 LAREDO Mayor                                            Pete Saenz                            PCT 447                                                01 
01350040048000015NONCITY02 LAREDO Mayor                                            Pete Saenz                            PCT 448                                                01 
01350040049000165NONCITY02 LAREDO Mayor                                            Pete Saenz                            PCT 349                                                01 
01350040051000051NONCITY02 LAREDO Mayor                                            Pete Saenz                            PCT 351                                                01 
01350040052000228NONCITY02 LAREDO Mayor                                            Pete Saenz                            PCT 252                                                01 
01350040053000042NONCITY02 LAREDO Mayor                                            Pete Saenz                            PCT 453                                                01 
01350040054000044NONCITY02 LAREDO Mayor                                            Pete Saenz                            PCT 154                                                01 
01350040055000254NONCITY02 LAREDO Mayor                                            Pete Saenz                            PCT 255                                                01 
01350040056000502NONCITY02 LAREDO Mayor                                            Pete Saenz                            PCT 356                                                01 
01350040058000237NONCITY02 LAREDO Mayor                                            Pete Saenz                            PCT 458                                                01 
01350040059000461NONCITY02 LAREDO Mayor                                            Pete Saenz                            PCT 359                                                01 
01350040060000055NONCITY02 LAREDO Mayor                                            Pete Saenz                            PCT 360                                                01 
01350040061000185NONCITY02 LAREDO Mayor                                            Pete Saenz                            PCT 361                                                01 
01350040062000032NONCITY02 LAREDO Mayor                                            Pete Saenz                            PCT 362                                                01 
01350040063000089NONCITY02 LAREDO Mayor                                            Pete Saenz                            PCT 363                                                01 
01350040064000109NONCITY02 LAREDO Mayor                                            Pete Saenz                            PCT 164                                                01 
01350040065000048NONCITY02 LAREDO Mayor                                            Pete Saenz                            PCT 465                                                01 
01350040066000089NONCITY02 LAREDO Mayor                                            Pete Saenz                            PCT 266                                                01 
01350040067000122NONCITY02 LAREDO Mayor                                            Pete Saenz                            PCT 267                                                01 
01350040068000005NONCITY02 LAREDO Mayor                                            Pete Saenz                            PCT 268                                                01 
01350050001000001NONCITY02 LAREDO Mayor                                            James Joel Newland                    PCT 401                                                01 
01350050002000003NONCITY02 LAREDO Mayor                                            James Joel Newland                    PCT 402                                                01 
01350050003000001NONCITY02 LAREDO Mayor                                            James Joel Newland                    PCT 403                                                01 
01350050004000005NONCITY02 LAREDO Mayor                                            James Joel Newland                    PCT 404                                                01 
01350050005000001NONCITY02 LAREDO Mayor                                            James Joel Newland                    PCT 405                                                01 
01350050006000000NONCITY02 LAREDO Mayor                                            James Joel Newland                    PCT 406                                                01 
01350050007000003NONCITY02 LAREDO Mayor                                            James Joel Newland                    PCT 407                                                01 
01350050008000001NONCITY02 LAREDO Mayor                                            James Joel Newland                    PCT 308                                                01 
01350050009000007NONCITY02 LAREDO Mayor                                            James Joel Newland                    PCT 309                                                01 
01350050010000001NONCITY02 LAREDO Mayor                                            James Joel Newland                    PCT 310                                                01 
01350050011000001NONCITY02 LAREDO Mayor                                            James Joel Newland                    PCT 311                                                01 
01350050012000002NONCITY02 LAREDO Mayor                                            James Joel Newland                    PCT 312                                                01 
01350050013000007NONCITY02 LAREDO Mayor                                            James Joel Newland                    PCT 413                                                01 
01350050014000001NONCITY02 LAREDO Mayor                                            James Joel Newland                    PCT 414                                                01 
01350050015000005NONCITY02 LAREDO Mayor                                            James Joel Newland                    PCT 215                                                01 
01350050016000008NONCITY02 LAREDO Mayor                                            James Joel Newland                    PCT 416                                                01 
01350050017000001NONCITY02 LAREDO Mayor                                            James Joel Newland                    PCT 417                                                01 
01350050018000005NONCITY02 LAREDO Mayor                                            James Joel Newland                    PCT 218                                                01 
01350050019000002NONCITY02 LAREDO Mayor                                            James Joel Newland                    PCT 219                                                01 
01350050020000002NONCITY02 LAREDO Mayor                                            James Joel Newland                    PCT 220                                                01 
01350050021000002NONCITY02 LAREDO Mayor                                            James Joel Newland                    PCT 221                                                01 
01350050022000001NONCITY02 LAREDO Mayor                                            James Joel Newland                    PCT 122                                                01 
01350050023000002NONCITY02 LAREDO Mayor                                            James Joel Newland                    PCT 423                                                01 
01350050024000002NONCITY02 LAREDO Mayor                                            James Joel Newland                    PCT 124                                                01 
01350050025000002NONCITY02 LAREDO Mayor                                            James Joel Newland                    PCT 125                                                01 
01350050026000001NONCITY02 LAREDO Mayor                                            James Joel Newland                    PCT 226                                                01 
01350050027000007NONCITY02 LAREDO Mayor                                            James Joel Newland                    PCT 227                                                01 
01350050028000004NONCITY02 LAREDO Mayor                                            James Joel Newland                    PCT 128                                                01 
01350050029000003NONCITY02 LAREDO Mayor                                            James Joel Newland                    PCT 129                                                01 
01350050030000008NONCITY02 LAREDO Mayor                                            James Joel Newland                    PCT 130                                                01 
01350050031000009NONCITY02 LAREDO Mayor                                            James Joel Newland                    PCT 231                                                01 
01350050032000005NONCITY02 LAREDO Mayor                                            James Joel Newland                    PCT 132                                                01 
01350050033000012NONCITY02 LAREDO Mayor                                            James Joel Newland                    PCT 133                                                01 
01350050039000008NONCITY02 LAREDO Mayor                                            James Joel Newland                    PCT 239                                                01 
01350050040000004NONCITY02 LAREDO Mayor                                            James Joel Newland                    PCT 340                                                01 
01350050041000003NONCITY02 LAREDO Mayor                                            James Joel Newland                    PCT 341                                                01 
01350050042000003NONCITY02 LAREDO Mayor                                            James Joel Newland                    PCT 342                                                01 
01350050043000009NONCITY02 LAREDO Mayor                                            James Joel Newland                    PCT 343                                                01 
01350050044000012NONCITY02 LAREDO Mayor                                            James Joel Newland                    PCT 344                                                01 
01350050045000005NONCITY02 LAREDO Mayor                                            James Joel Newland                    PCT 345                                                01 
01350050046000010NONCITY02 LAREDO Mayor                                            James Joel Newland                    PCT 446                                                01 
01350050047000014NONCITY02 LAREDO Mayor                                            James Joel Newland                    PCT 447                                                01 
01350050048000000NONCITY02 LAREDO Mayor                                            James Joel Newland                    PCT 448                                                01 
01350050049000004NONCITY02 LAREDO Mayor                                            James Joel Newland                    PCT 349                                                01 
01350050051000001NONCITY02 LAREDO Mayor                                            James Joel Newland                    PCT 351                                                01 
01350050052000004NONCITY02 LAREDO Mayor                                            James Joel Newland                    PCT 252                                                01 
01350050053000002NONCITY02 LAREDO Mayor                                            James Joel Newland                    PCT 453                                                01 
01350050054000002NONCITY02 LAREDO Mayor                                            James Joel Newland                    PCT 154                                                01 
01350050055000004NONCITY02 LAREDO Mayor                                            James Joel Newland                    PCT 255                                                01 
01350050056000018NONCITY02 LAREDO Mayor                                            James Joel Newland                    PCT 356                                                01 
01350050058000010NONCITY02 LAREDO Mayor                                            James Joel Newland                    PCT 458                                                01 
01350050059000009NONCITY02 LAREDO Mayor                                            James Joel Newland                    PCT 359                                                01 
01350050060000002NONCITY02 LAREDO Mayor                                            James Joel Newland                    PCT 360                                                01 
01350050061000003NONCITY02 LAREDO Mayor                                            James Joel Newland                    PCT 361                                                01 
01350050062000004NONCITY02 LAREDO Mayor                                            James Joel Newland                    PCT 362                                                01 
01350050063000001NONCITY02 LAREDO Mayor                                            James Joel Newland                    PCT 363                                                01 
01350050064000001NONCITY02 LAREDO Mayor                                            James Joel Newland                    PCT 164                                                01 
01350050065000001NONCITY02 LAREDO Mayor                                            James Joel Newland                    PCT 465                                                01 
01350050066000003NONCITY02 LAREDO Mayor                                            James Joel Newland                    PCT 266                                                01 
01350050067000006NONCITY02 LAREDO Mayor                                            James Joel Newland                    PCT 267                                                01 
01350050068000000NONCITY02 LAREDO Mayor                                            James Joel Newland                    PCT 268                                                01 
01350060001000113NONCITY02 LAREDO Mayor                                            Cindy Liendo                          PCT 401                                                01 
01350060002000086NONCITY02 LAREDO Mayor                                            Cindy Liendo                          PCT 402                                                01 
01350060003000075NONCITY02 LAREDO Mayor                                            Cindy Liendo                          PCT 403                                                01 
01350060004000125NONCITY02 LAREDO Mayor                                            Cindy Liendo                          PCT 404                                                01 
01350060005000102NONCITY02 LAREDO Mayor                                            Cindy Liendo                          PCT 405                                                01 
01350060006000069NONCITY02 LAREDO Mayor                                            Cindy Liendo                          PCT 406                                                01 
01350060007000026NONCITY02 LAREDO Mayor                                            Cindy Liendo                          PCT 407                                                01 
01350060008000035NONCITY02 LAREDO Mayor                                            Cindy Liendo                          PCT 308                                                01 
01350060009000124NONCITY02 LAREDO Mayor                                            Cindy Liendo                          PCT 309                                                01 
01350060010000020NONCITY02 LAREDO Mayor                                            Cindy Liendo                          PCT 310                                                01 
01350060011000088NONCITY02 LAREDO Mayor                                            Cindy Liendo                          PCT 311                                                01 
01350060012000062NONCITY02 LAREDO Mayor                                            Cindy Liendo                          PCT 312                                                01 
01350060013000111NONCITY02 LAREDO Mayor                                            Cindy Liendo                          PCT 413                                                01 
01350060014000074NONCITY02 LAREDO Mayor                                            Cindy Liendo                          PCT 414                                                01 
01350060015000066NONCITY02 LAREDO Mayor                                            Cindy Liendo                          PCT 215                                                01 
01350060016000068NONCITY02 LAREDO Mayor                                            Cindy Liendo                          PCT 416                                                01 
01350060017000014NONCITY02 LAREDO Mayor                                            Cindy Liendo                          PCT 417                                                01 
01350060018000089NONCITY02 LAREDO Mayor                                            Cindy Liendo                          PCT 218                                                01 
01350060019000061NONCITY02 LAREDO Mayor                                            Cindy Liendo                          PCT 219                                                01 
01350060020000038NONCITY02 LAREDO Mayor                                            Cindy Liendo                          PCT 220                                                01 
01350060021000049NONCITY02 LAREDO Mayor                                            Cindy Liendo                          PCT 221                                                01 
01350060022000021NONCITY02 LAREDO Mayor                                            Cindy Liendo                          PCT 122                                                01 
01350060023000032NONCITY02 LAREDO Mayor                                            Cindy Liendo                          PCT 423                                                01 
01350060024000078NONCITY02 LAREDO Mayor                                            Cindy Liendo                          PCT 124                                                01 
01350060025000028NONCITY02 LAREDO Mayor                                            Cindy Liendo                          PCT 125                                                01 
01350060026000040NONCITY02 LAREDO Mayor                                            Cindy Liendo                          PCT 226                                                01 
01350060027000099NONCITY02 LAREDO Mayor                                            Cindy Liendo                          PCT 227                                                01 
01350060028000019NONCITY02 LAREDO Mayor                                            Cindy Liendo                          PCT 128                                                01 
01350060029000090NONCITY02 LAREDO Mayor                                            Cindy Liendo                          PCT 129                                                01 
01350060030000127NONCITY02 LAREDO Mayor                                            Cindy Liendo                          PCT 130                                                01 
01350060031000192NONCITY02 LAREDO Mayor                                            Cindy Liendo                          PCT 231                                                01 
01350060032000163NONCITY02 LAREDO Mayor                                            Cindy Liendo                          PCT 132                                                01 
01350060033000210NONCITY02 LAREDO Mayor                                            Cindy Liendo                          PCT 133                                                01 
01350060039000177NONCITY02 LAREDO Mayor                                            Cindy Liendo                          PCT 239                                                01 
01350060040000082NONCITY02 LAREDO Mayor                                            Cindy Liendo                          PCT 340                                                01 
01350060041000039NONCITY02 LAREDO Mayor                                            Cindy Liendo                          PCT 341                                                01 
01350060042000082NONCITY02 LAREDO Mayor                                            Cindy Liendo                          PCT 342                                                01 
01350060043000079NONCITY02 LAREDO Mayor                                            Cindy Liendo                          PCT 343                                                01 
01350060044000134NONCITY02 LAREDO Mayor                                            Cindy Liendo                          PCT 344                                                01 
01350060045000069NONCITY02 LAREDO Mayor                                            Cindy Liendo                          PCT 345                                                01 
01350060046000163NONCITY02 LAREDO Mayor                                            Cindy Liendo                          PCT 446                                                01 
01350060047000091NONCITY02 LAREDO Mayor                                            Cindy Liendo                          PCT 447                                                01 
01350060048000003NONCITY02 LAREDO Mayor                                            Cindy Liendo                          PCT 448                                                01 
01350060049000055NONCITY02 LAREDO Mayor                                            Cindy Liendo                          PCT 349                                                01 
01350060051000017NONCITY02 LAREDO Mayor                                            Cindy Liendo                          PCT 351                                                01 
01350060052000100NONCITY02 LAREDO Mayor                                            Cindy Liendo                          PCT 252                                                01 
01350060053000064NONCITY02 LAREDO Mayor                                            Cindy Liendo                          PCT 453                                                01 
01350060054000029NONCITY02 LAREDO Mayor                                            Cindy Liendo                          PCT 154                                                01 
01350060055000092NONCITY02 LAREDO Mayor                                            Cindy Liendo                          PCT 255                                                01 
01350060056000129NONCITY02 LAREDO Mayor                                            Cindy Liendo                          PCT 356                                                01 
01350060058000123NONCITY02 LAREDO Mayor                                            Cindy Liendo                          PCT 458                                                01 
01350060059000130NONCITY02 LAREDO Mayor                                            Cindy Liendo                          PCT 359                                                01 
01350060060000025NONCITY02 LAREDO Mayor                                            Cindy Liendo                          PCT 360                                                01 
01350060061000042NONCITY02 LAREDO Mayor                                            Cindy Liendo                          PCT 361                                                01 
01350060062000031NONCITY02 LAREDO Mayor                                            Cindy Liendo                          PCT 362                                                01 
01350060063000047NONCITY02 LAREDO Mayor                                            Cindy Liendo                          PCT 363                                                01 
01350060064000033NONCITY02 LAREDO Mayor                                            Cindy Liendo                          PCT 164                                                01 
01350060065000043NONCITY02 LAREDO Mayor                                            Cindy Liendo                          PCT 465                                                01 
01350060066000053NONCITY02 LAREDO Mayor                                            Cindy Liendo                          PCT 266                                                01 
01350060067000060NONCITY02 LAREDO Mayor                                            Cindy Liendo                          PCT 267                                                01 
01350060068000001NONCITY02 LAREDO Mayor                                            Cindy Liendo                          PCT 268                                                01 
01350070001000061NONCITY02 LAREDO Mayor                                            Jerry Garza                           PCT 401                                                01 
01350070002000068NONCITY02 LAREDO Mayor                                            Jerry Garza                           PCT 402                                                01 
01350070003000041NONCITY02 LAREDO Mayor                                            Jerry Garza                           PCT 403                                                01 
01350070004000062NONCITY02 LAREDO Mayor                                            Jerry Garza                           PCT 404                                                01 
01350070005000068NONCITY02 LAREDO Mayor                                            Jerry Garza                           PCT 405                                                01 
01350070006000043NONCITY02 LAREDO Mayor                                            Jerry Garza                           PCT 406                                                01 
01350070007000018NONCITY02 LAREDO Mayor                                            Jerry Garza                           PCT 407                                                01 
01350070008000086NONCITY02 LAREDO Mayor                                            Jerry Garza                           PCT 308                                                01 
01350070009000197NONCITY02 LAREDO Mayor                                            Jerry Garza                           PCT 309                                                01 
01350070010000023NONCITY02 LAREDO Mayor                                            Jerry Garza                           PCT 310                                                01 
01350070011000085NONCITY02 LAREDO Mayor                                            Jerry Garza                           PCT 311                                                01 
01350070012000047NONCITY02 LAREDO Mayor                                            Jerry Garza                           PCT 312                                                01 
01350070013000085NONCITY02 LAREDO Mayor                                            Jerry Garza                           PCT 413                                                01 
01350070014000038NONCITY02 LAREDO Mayor                                            Jerry Garza                           PCT 414                                                01 
01350070015000065NONCITY02 LAREDO Mayor                                            Jerry Garza                           PCT 215                                                01 
01350070016000031NONCITY02 LAREDO Mayor                                            Jerry Garza                           PCT 416                                                01 
01350070017000018NONCITY02 LAREDO Mayor                                            Jerry Garza                           PCT 417                                                01 
01350070018000101NONCITY02 LAREDO Mayor                                            Jerry Garza                           PCT 218                                                01 
01350070019000084NONCITY02 LAREDO Mayor                                            Jerry Garza                           PCT 219                                                01 
01350070020000058NONCITY02 LAREDO Mayor                                            Jerry Garza                           PCT 220                                                01 
01350070021000062NONCITY02 LAREDO Mayor                                            Jerry Garza                           PCT 221                                                01 
01350070022000021NONCITY02 LAREDO Mayor                                            Jerry Garza                           PCT 122                                                01 
01350070023000056NONCITY02 LAREDO Mayor                                            Jerry Garza                           PCT 423                                                01 
01350070024000083NONCITY02 LAREDO Mayor                                            Jerry Garza                           PCT 124                                                01 
01350070025000031NONCITY02 LAREDO Mayor                                            Jerry Garza                           PCT 125                                                01 
01350070026000040NONCITY02 LAREDO Mayor                                            Jerry Garza                           PCT 226                                                01 
01350070027000104NONCITY02 LAREDO Mayor                                            Jerry Garza                           PCT 227                                                01 
01350070028000017NONCITY02 LAREDO Mayor                                            Jerry Garza                           PCT 128                                                01 
01350070029000071NONCITY02 LAREDO Mayor                                            Jerry Garza                           PCT 129                                                01 
01350070030000112NONCITY02 LAREDO Mayor                                            Jerry Garza                           PCT 130                                                01 
01350070031000176NONCITY02 LAREDO Mayor                                            Jerry Garza                           PCT 231                                                01 
01350070032000098NONCITY02 LAREDO Mayor                                            Jerry Garza                           PCT 132                                                01 
01350070033000126NONCITY02 LAREDO Mayor                                            Jerry Garza                           PCT 133                                                01 
01350070039000240NONCITY02 LAREDO Mayor                                            Jerry Garza                           PCT 239                                                01 
01350070040000151NONCITY02 LAREDO Mayor                                            Jerry Garza                           PCT 340                                                01 
01350070041000081NONCITY02 LAREDO Mayor                                            Jerry Garza                           PCT 341                                                01 
01350070042000119NONCITY02 LAREDO Mayor                                            Jerry Garza                           PCT 342                                                01 
01350070043000200NONCITY02 LAREDO Mayor                                            Jerry Garza                           PCT 343                                                01 
01350070044000253NONCITY02 LAREDO Mayor                                            Jerry Garza                           PCT 344                                                01 
01350070045000102NONCITY02 LAREDO Mayor                                            Jerry Garza                           PCT 345                                                01 
01350070046000176NONCITY02 LAREDO Mayor                                            Jerry Garza                           PCT 446                                                01 
01350070047000103NONCITY02 LAREDO Mayor                                            Jerry Garza                           PCT 447                                                01 
01350070048000008NONCITY02 LAREDO Mayor                                            Jerry Garza                           PCT 448                                                01 
01350070049000076NONCITY02 LAREDO Mayor                                            Jerry Garza                           PCT 349                                                01 
01350070051000021NONCITY02 LAREDO Mayor                                            Jerry Garza                           PCT 351                                                01 
01350070052000092NONCITY02 LAREDO Mayor                                            Jerry Garza                           PCT 252                                                01 
01350070053000014NONCITY02 LAREDO Mayor                                            Jerry Garza                           PCT 453                                                01 
01350070054000019NONCITY02 LAREDO Mayor                                            Jerry Garza                           PCT 154                                                01 
01350070055000088NONCITY02 LAREDO Mayor                                            Jerry Garza                           PCT 255                                                01 
01350070056000217NONCITY02 LAREDO Mayor                                            Jerry Garza                           PCT 356                                                01 
01350070058000095NONCITY02 LAREDO Mayor                                            Jerry Garza                           PCT 458                                                01 
01350070059000181NONCITY02 LAREDO Mayor                                            Jerry Garza                           PCT 359                                                01 
01350070060000028NONCITY02 LAREDO Mayor                                            Jerry Garza                           PCT 360                                                01 
01350070061000081NONCITY02 LAREDO Mayor                                            Jerry Garza                           PCT 361                                                01 
01350070062000026NONCITY02 LAREDO Mayor                                            Jerry Garza                           PCT 362                                                01 
01350070063000055NONCITY02 LAREDO Mayor                                            Jerry Garza                           PCT 363                                                01 
01350070064000050NONCITY02 LAREDO Mayor                                            Jerry Garza                           PCT 164                                                01 
01350070065000043NONCITY02 LAREDO Mayor                                            Jerry Garza                           PCT 465                                                01 
01350070066000057NONCITY02 LAREDO Mayor                                            Jerry Garza                           PCT 266                                                01 
01350070067000071NONCITY02 LAREDO Mayor                                            Jerry Garza                           PCT 267                                                01 
01350070068000001NONCITY02 LAREDO Mayor                                            Jerry Garza                           PCT 268                                                01 
01350080001000006NONCITY02 LAREDO Mayor                                            WRITE-IN                              PCT 401                                                01 
01350080002000000NONCITY02 LAREDO Mayor                                            WRITE-IN                              PCT 402                                                01 
01350080003000000NONCITY02 LAREDO Mayor                                            WRITE-IN                              PCT 403                                                01 
01350080004000003NONCITY02 LAREDO Mayor                                            WRITE-IN                              PCT 404                                                01 
01350080005000002NONCITY02 LAREDO Mayor                                            WRITE-IN                              PCT 405                                                01 
01350080006000001NONCITY02 LAREDO Mayor                                            WRITE-IN                              PCT 406                                                01 
01350080007000000NONCITY02 LAREDO Mayor                                            WRITE-IN                              PCT 407                                                01 
01350080008000000NONCITY02 LAREDO Mayor                                            WRITE-IN                              PCT 308                                                01 
01350080009000000NONCITY02 LAREDO Mayor                                            WRITE-IN                              PCT 309                                                01 
01350080010000000NONCITY02 LAREDO Mayor                                            WRITE-IN                              PCT 310                                                01 
01350080011000001NONCITY02 LAREDO Mayor                                            WRITE-IN                              PCT 311                                                01 
01350080012000000NONCITY02 LAREDO Mayor                                            WRITE-IN                              PCT 312                                                01 
01350080013000002NONCITY02 LAREDO Mayor                                            WRITE-IN                              PCT 413                                                01 
01350080014000001NONCITY02 LAREDO Mayor                                            WRITE-IN                              PCT 414                                                01 
01350080015000001NONCITY02 LAREDO Mayor                                            WRITE-IN                              PCT 215                                                01 
01350080016000000NONCITY02 LAREDO Mayor                                            WRITE-IN                              PCT 416                                                01 
01350080017000001NONCITY02 LAREDO Mayor                                            WRITE-IN                              PCT 417                                                01 
01350080018000003NONCITY02 LAREDO Mayor                                            WRITE-IN                              PCT 218                                                01 
01350080019000001NONCITY02 LAREDO Mayor                                            WRITE-IN                              PCT 219                                                01 
01350080020000000NONCITY02 LAREDO Mayor                                            WRITE-IN                              PCT 220                                                01 
01350080021000002NONCITY02 LAREDO Mayor                                            WRITE-IN                              PCT 221                                                01 
01350080022000002NONCITY02 LAREDO Mayor                                            WRITE-IN                              PCT 122                                                01 
01350080023000001NONCITY02 LAREDO Mayor                                            WRITE-IN                              PCT 423                                                01 
01350080024000002NONCITY02 LAREDO Mayor                                            WRITE-IN                              PCT 124                                                01 
01350080025000001NONCITY02 LAREDO Mayor                                            WRITE-IN                              PCT 125                                                01 
01350080026000000NONCITY02 LAREDO Mayor                                            WRITE-IN                              PCT 226                                                01 
01350080027000002NONCITY02 LAREDO Mayor                                            WRITE-IN                              PCT 227                                                01 
01350080028000000NONCITY02 LAREDO Mayor                                            WRITE-IN                              PCT 128                                                01 
01350080029000005NONCITY02 LAREDO Mayor                                            WRITE-IN                              PCT 129                                                01 
01350080030000001NONCITY02 LAREDO Mayor                                            WRITE-IN                              PCT 130                                                01 
01350080031000002NONCITY02 LAREDO Mayor                                            WRITE-IN                              PCT 231                                                01 
01350080032000002NONCITY02 LAREDO Mayor                                            WRITE-IN                              PCT 132                                                01 
01350080033000002NONCITY02 LAREDO Mayor                                            WRITE-IN                              PCT 133                                                01 
01350080039000001NONCITY02 LAREDO Mayor                                            WRITE-IN                              PCT 239                                                01 
01350080040000001NONCITY02 LAREDO Mayor                                            WRITE-IN                              PCT 340                                                01 
01350080041000000NONCITY02 LAREDO Mayor                                            WRITE-IN                              PCT 341                                                01 
01350080042000000NONCITY02 LAREDO Mayor                                            WRITE-IN                              PCT 342                                                01 
01350080043000000NONCITY02 LAREDO Mayor                                            WRITE-IN                              PCT 343                                                01 
01350080044000005NONCITY02 LAREDO Mayor                                            WRITE-IN                              PCT 344                                                01 
01350080045000003NONCITY02 LAREDO Mayor                                            WRITE-IN                              PCT 345                                                01 
01350080046000003NONCITY02 LAREDO Mayor                                            WRITE-IN                              PCT 446                                                01 
01350080047000003NONCITY02 LAREDO Mayor                                            WRITE-IN                              PCT 447                                                01 
01350080048000000NONCITY02 LAREDO Mayor                                            WRITE-IN                              PCT 448                                                01 
01350080049000004NONCITY02 LAREDO Mayor                                            WRITE-IN                              PCT 349                                                01 
01350080051000001NONCITY02 LAREDO Mayor                                            WRITE-IN                              PCT 351                                                01 
01350080052000000NONCITY02 LAREDO Mayor                                            WRITE-IN                              PCT 252                                                01 
01350080053000002NONCITY02 LAREDO Mayor                                            WRITE-IN                              PCT 453                                                01 
01350080054000001NONCITY02 LAREDO Mayor                                            WRITE-IN                              PCT 154                                                01 
01350080055000003NONCITY02 LAREDO Mayor                                            WRITE-IN                              PCT 255                                                01 
01350080056000009NONCITY02 LAREDO Mayor                                            WRITE-IN                              PCT 356                                                01 
01350080058000001NONCITY02 LAREDO Mayor                                            WRITE-IN                              PCT 458                                                01 
01350080059000003NONCITY02 LAREDO Mayor                                            WRITE-IN                              PCT 359                                                01 
01350080060000001NONCITY02 LAREDO Mayor                                            WRITE-IN                              PCT 360                                                01 
01350080061000002NONCITY02 LAREDO Mayor                                            WRITE-IN                              PCT 361                                                01 
01350080062000000NONCITY02 LAREDO Mayor                                            WRITE-IN                              PCT 362                                                01 
01350080063000002NONCITY02 LAREDO Mayor                                            WRITE-IN                              PCT 363                                                01 
01350080064000000NONCITY02 LAREDO Mayor                                            WRITE-IN                              PCT 164                                                01 
01350080065000000NONCITY02 LAREDO Mayor                                            WRITE-IN                              PCT 465                                                01 
01350080066000001NONCITY02 LAREDO Mayor                                            WRITE-IN                              PCT 266                                                01 
01350080067000001NONCITY02 LAREDO Mayor                                            WRITE-IN                              PCT 267                                                01 
01350080068000000NONCITY02 LAREDO Mayor                                            WRITE-IN                              PCT 268                                                01 
01350090001000003   CITY02 LAREDO Mayor                                            OVER VOTES                            PCT 401                                                01 
01350090002000002   CITY02 LAREDO Mayor                                            OVER VOTES                            PCT 402                                                01 
01350090003000001   CITY02 LAREDO Mayor                                            OVER VOTES                            PCT 403                                                01 
01350090004000002   CITY02 LAREDO Mayor                                            OVER VOTES                            PCT 404                                                01 
01350090005000002   CITY02 LAREDO Mayor                                            OVER VOTES                            PCT 405                                                01 
01350090006000000   CITY02 LAREDO Mayor                                            OVER VOTES                            PCT 406                                                01 
01350090007000000   CITY02 LAREDO Mayor                                            OVER VOTES                            PCT 407                                                01 
01350090008000000   CITY02 LAREDO Mayor                                            OVER VOTES                            PCT 308                                                01 
01350090009000000   CITY02 LAREDO Mayor                                            OVER VOTES                            PCT 309                                                01 
01350090010000000   CITY02 LAREDO Mayor                                            OVER VOTES                            PCT 310                                                01 
01350090011000000   CITY02 LAREDO Mayor                                            OVER VOTES                            PCT 311                                                01 
01350090012000000   CITY02 LAREDO Mayor                                            OVER VOTES                            PCT 312                                                01 
01350090013000003   CITY02 LAREDO Mayor                                            OVER VOTES                            PCT 413                                                01 
01350090014000001   CITY02 LAREDO Mayor                                            OVER VOTES                            PCT 414                                                01 
01350090015000001   CITY02 LAREDO Mayor                                            OVER VOTES                            PCT 215                                                01 
01350090016000001   CITY02 LAREDO Mayor                                            OVER VOTES                            PCT 416                                                01 
01350090017000000   CITY02 LAREDO Mayor                                            OVER VOTES                            PCT 417                                                01 
01350090018000001   CITY02 LAREDO Mayor                                            OVER VOTES                            PCT 218                                                01 
01350090019000000   CITY02 LAREDO Mayor                                            OVER VOTES                            PCT 219                                                01 
01350090020000002   CITY02 LAREDO Mayor                                            OVER VOTES                            PCT 220                                                01 
01350090021000000   CITY02 LAREDO Mayor                                            OVER VOTES                            PCT 221                                                01 
01350090022000001   CITY02 LAREDO Mayor                                            OVER VOTES                            PCT 122                                                01 
01350090023000001   CITY02 LAREDO Mayor                                            OVER VOTES                            PCT 423                                                01 
01350090024000001   CITY02 LAREDO Mayor                                            OVER VOTES                            PCT 124                                                01 
01350090025000000   CITY02 LAREDO Mayor                                            OVER VOTES                            PCT 125                                                01 
01350090026000001   CITY02 LAREDO Mayor                                            OVER VOTES                            PCT 226                                                01 
01350090027000000   CITY02 LAREDO Mayor                                            OVER VOTES                            PCT 227                                                01 
01350090028000000   CITY02 LAREDO Mayor                                            OVER VOTES                            PCT 128                                                01 
01350090029000001   CITY02 LAREDO Mayor                                            OVER VOTES                            PCT 129                                                01 
01350090030000003   CITY02 LAREDO Mayor                                            OVER VOTES                            PCT 130                                                01 
01350090031000000   CITY02 LAREDO Mayor                                            OVER VOTES                            PCT 231                                                01 
01350090032000002   CITY02 LAREDO Mayor                                            OVER VOTES                            PCT 132                                                01 
01350090033000002   CITY02 LAREDO Mayor                                            OVER VOTES                            PCT 133                                                01 
01350090039000000   CITY02 LAREDO Mayor                                            OVER VOTES                            PCT 239                                                01 
01350090040000001   CITY02 LAREDO Mayor                                            OVER VOTES                            PCT 340                                                01 
01350090041000000   CITY02 LAREDO Mayor                                            OVER VOTES                            PCT 341                                                01 
01350090042000000   CITY02 LAREDO Mayor                                            OVER VOTES                            PCT 342                                                01 
01350090043000003   CITY02 LAREDO Mayor                                            OVER VOTES                            PCT 343                                                01 
01350090044000000   CITY02 LAREDO Mayor                                            OVER VOTES                            PCT 344                                                01 
01350090045000000   CITY02 LAREDO Mayor                                            OVER VOTES                            PCT 345                                                01 
01350090046000001   CITY02 LAREDO Mayor                                            OVER VOTES                            PCT 446                                                01 
01350090047000001   CITY02 LAREDO Mayor                                            OVER VOTES                            PCT 447                                                01 
01350090048000000   CITY02 LAREDO Mayor                                            OVER VOTES                            PCT 448                                                01 
01350090049000000   CITY02 LAREDO Mayor                                            OVER VOTES                            PCT 349                                                01 
01350090051000000   CITY02 LAREDO Mayor                                            OVER VOTES                            PCT 351                                                01 
01350090052000001   CITY02 LAREDO Mayor                                            OVER VOTES                            PCT 252                                                01 
01350090053000000   CITY02 LAREDO Mayor                                            OVER VOTES                            PCT 453                                                01 
01350090054000001   CITY02 LAREDO Mayor                                            OVER VOTES                            PCT 154                                                01 
01350090055000000   CITY02 LAREDO Mayor                                            OVER VOTES                            PCT 255                                                01 
01350090056000000   CITY02 LAREDO Mayor                                            OVER VOTES                            PCT 356                                                01 
01350090058000000   CITY02 LAREDO Mayor                                            OVER VOTES                            PCT 458                                                01 
01350090059000001   CITY02 LAREDO Mayor                                            OVER VOTES                            PCT 359                                                01 
01350090060000000   CITY02 LAREDO Mayor                                            OVER VOTES                            PCT 360                                                01 
01350090061000000   CITY02 LAREDO Mayor                                            OVER VOTES                            PCT 361                                                01 
01350090062000001   CITY02 LAREDO Mayor                                            OVER VOTES                            PCT 362                                                01 
01350090063000001   CITY02 LAREDO Mayor                                            OVER VOTES                            PCT 363                                                01 
01350090064000000   CITY02 LAREDO Mayor                                            OVER VOTES                            PCT 164                                                01 
01350090065000000   CITY02 LAREDO Mayor                                            OVER VOTES                            PCT 465                                                01 
01350090066000001   CITY02 LAREDO Mayor                                            OVER VOTES                            PCT 266                                                01 
01350090067000001   CITY02 LAREDO Mayor                                            OVER VOTES                            PCT 267                                                01 
01350090068000000   CITY02 LAREDO Mayor                                            OVER VOTES                            PCT 268                                                01 
01350100001000036   CITY02 LAREDO Mayor                                            UNDER VOTES                           PCT 401                                                01 
01350100002000012   CITY02 LAREDO Mayor                                            UNDER VOTES                           PCT 402                                                01 
01350100003000011   CITY02 LAREDO Mayor                                            UNDER VOTES                           PCT 403                                                01 
