01010010001001005000000000000000000000000000000          REGISTERED VOTERS - TOTAL                               REGISTERED VOTERS - TOTAL             Precinct 1                                             00 
01010010002001435000000000000000000000000000000          REGISTERED VOTERS - TOTAL                               REGISTERED VOTERS - TOTAL             Precinct 2                                             00 
01010010003000217000000000000000000000000000000          REGISTERED VOTERS - TOTAL                               REGISTERED VOTERS - TOTAL             Precinct 7                                             00 
01010010004000697000000000000000000000000000000          REGISTERED VOTERS - TOTAL                               REGISTERED VOTERS - TOTAL             Precinct 8                                             00 
01010010005001291000000000000000000000000000000          REGISTERED VOTERS - TOTAL                               REGISTERED VOTERS - TOTAL             Precinct 9                                             00 
01010010006000302000000000000000000000000000000          REGISTERED VOTERS - TOTAL                               REGISTERED VOTERS - TOTAL             Precinct 11                                            00 
01010010007000340000000000000000000000000000000          REGISTERED VOTERS - TOTAL                               REGISTERED VOTERS - TOTAL             Precinct 12                                            00 
01010010008000172000000000000000000000000000000          REGISTERED VOTERS - TOTAL                               REGISTERED VOTERS - TOTAL             Precinct 15                                            00 
01010010009000438000000000000000000000000000000          REGISTERED VOTERS - TOTAL                               REGISTERED VOTERS - TOTAL             Precinct 16                                            00 
01010010010000263000000000000000000000000000000          REGISTERED VOTERS - TOTAL                               REGISTERED VOTERS - TOTAL             Precinct 17                                            00 
01010010011000359000000000000000000000000000000          REGISTERED VOTERS - TOTAL                               REGISTERED VOTERS - TOTAL             Precinct 19                                            00 
01010010012000112000000000000000000000000000000          REGISTERED VOTERS - TOTAL                               REGISTERED VOTERS - TOTAL             Precinct 20                                            00 
01010010013001332000000000000000000000000000000          REGISTERED VOTERS - TOTAL                               REGISTERED VOTERS - TOTAL             Precinct 23                                            00 
01010010014000369000000000000000000000000000000          REGISTERED VOTERS - TOTAL                               REGISTERED VOTERS - TOTAL             Precinct 26                                            00 
01010010015000198000000000000000000000000000000          REGISTERED VOTERS - TOTAL                               REGISTERED VOTERS - TOTAL             Precinct 27                                            00 
01010010016001201000000000000000000000000000000          REGISTERED VOTERS - TOTAL                               REGISTERED VOTERS - TOTAL             Precinct 29                                            00 
01010010017001741000000000000000000000000000000          REGISTERED VOTERS - TOTAL                               REGISTERED VOTERS - TOTAL             Precinct 30                                            00 
01010010018001097000000000000000000000000000000          REGISTERED VOTERS - TOTAL                               REGISTERED VOTERS - TOTAL             Precinct 31                                            00 
01010010019000335000000000000000000000000000000          REGISTERED VOTERS - TOTAL                               REGISTERED VOTERS - TOTAL             Precinct 32                                            00 
01020010001000182000047000022000059000054000000          BALLOTS CAST - TOTAL                                    BALLOTS CAST - TOTAL                  Precinct 1                                             00 
01020010002000223000059000033000080000051000000          BALLOTS CAST - TOTAL                                    BALLOTS CAST - TOTAL                  Precinct 2                                             00 
01020010003000048000004000017000014000013000000          BALLOTS CAST - TOTAL                                    BALLOTS CAST - TOTAL                  Precinct 7                                             00 
01020010004000155000024000017000073000041000000          BALLOTS CAST - TOTAL                                    BALLOTS CAST - TOTAL                  Precinct 8                                             00 
01020010005000171000016000016000088000051000000          BALLOTS CAST - TOTAL                                    BALLOTS CAST - TOTAL                  Precinct 9                                             00 
01020010006000073000010000006000023000034000000          BALLOTS CAST - TOTAL                                    BALLOTS CAST - TOTAL                  Precinct 11                                            00 
01020010007000067000011000008000036000012000000          BALLOTS CAST - TOTAL                                    BALLOTS CAST - TOTAL                  Precinct 12                                            00 
01020010008000038000003000005000014000016000000          BALLOTS CAST - TOTAL                                    BALLOTS CAST - TOTAL                  Precinct 15                                            00 
01020010009000119000015000006000069000029000000          BALLOTS CAST - TOTAL                                    BALLOTS CAST - TOTAL                  Precinct 16                                            00 
01020010010000112000013000013000061000025000000          BALLOTS CAST - TOTAL                                    BALLOTS CAST - TOTAL                  Precinct 17                                            00 
01020010011000061000011000011000031000008000000          BALLOTS CAST - TOTAL                                    BALLOTS CAST - TOTAL                  Precinct 19                                            00 
01020010012000028000006000000000015000007000000          BALLOTS CAST - TOTAL                                    BALLOTS CAST - TOTAL                  Precinct 20                                            00 
01020010013000188000020000010000106000052000000          BALLOTS CAST - TOTAL                                    BALLOTS CAST - TOTAL                  Precinct 23                                            00 
01020010014000039000007000004000017000011000000          BALLOTS CAST - TOTAL                                    BALLOTS CAST - TOTAL                  Precinct 26                                            00 
01020010015000048000012000009000020000007000000          BALLOTS CAST - TOTAL                                    BALLOTS CAST - TOTAL                  Precinct 27                                            00 
01020010016000182000036000011000077000058000000          BALLOTS CAST - TOTAL                                    BALLOTS CAST - TOTAL                  Precinct 29                                            00 
01020010017000433000054000024000270000085000000          BALLOTS CAST - TOTAL                                    BALLOTS CAST - TOTAL                  Precinct 30                                            00 
01020010018000238000077000048000077000036000000          BALLOTS CAST - TOTAL                                    BALLOTS CAST - TOTAL                  Precinct 31                                            00 
01020010019000063000006000005000027000025000000          BALLOTS CAST - TOTAL                                    BALLOTS CAST - TOTAL                  Precinct 32                                            00 
01030010001000167000045000020000054000048000000REP       BALLOTS CAST - REPUBLICAN PARTY                         BALLOTS CAST - REPUBLICAN PARTY       Precinct 1                                             00 
01030010002000199000055000028000066000050000000REP       BALLOTS CAST - REPUBLICAN PARTY                         BALLOTS CAST - REPUBLICAN PARTY       Precinct 2                                             00 
01030010003000043000004000017000012000010000000REP       BALLOTS CAST - REPUBLICAN PARTY                         BALLOTS CAST - REPUBLICAN PARTY       Precinct 7                                             00 
01030010004000138000021000016000065000036000000REP       BALLOTS CAST - REPUBLICAN PARTY                         BALLOTS CAST - REPUBLICAN PARTY       Precinct 8                                             00 
01030010005000154000013000014000082000045000000REP       BALLOTS CAST - REPUBLICAN PARTY                         BALLOTS CAST - REPUBLICAN PARTY       Precinct 9                                             00 
01030010006000060000010000005000016000029000000REP       BALLOTS CAST - REPUBLICAN PARTY                         BALLOTS CAST - REPUBLICAN PARTY       Precinct 11                                            00 
01030010007000047000009000007000021000010000000REP       BALLOTS CAST - REPUBLICAN PARTY                         BALLOTS CAST - REPUBLICAN PARTY       Precinct 12                                            00 
01030010008000032000003000004000011000014000000REP       BALLOTS CAST - REPUBLICAN PARTY                         BALLOTS CAST - REPUBLICAN PARTY       Precinct 15                                            00 
01030010009000116000015000006000066000029000000REP       BALLOTS CAST - REPUBLICAN PARTY                         BALLOTS CAST - REPUBLICAN PARTY       Precinct 16                                            00 
01030010010000108000013000010000060000025000000REP       BALLOTS CAST - REPUBLICAN PARTY                         BALLOTS CAST - REPUBLICAN PARTY       Precinct 17                                            00 
01030010011000055000011000010000026000008000000REP       BALLOTS CAST - REPUBLICAN PARTY                         BALLOTS CAST - REPUBLICAN PARTY       Precinct 19                                            00 
01030010012000020000004000000000011000005000000REP       BALLOTS CAST - REPUBLICAN PARTY                         BALLOTS CAST - REPUBLICAN PARTY       Precinct 20                                            00 
01030010013000174000020000009000095000050000000REP       BALLOTS CAST - REPUBLICAN PARTY                         BALLOTS CAST - REPUBLICAN PARTY       Precinct 23                                            00 
01030010014000032000006000004000014000008000000REP       BALLOTS CAST - REPUBLICAN PARTY                         BALLOTS CAST - REPUBLICAN PARTY       Precinct 26                                            00 
01030010015000046000012000009000018000007000000REP       BALLOTS CAST - REPUBLICAN PARTY                         BALLOTS CAST - REPUBLICAN PARTY       Precinct 27                                            00 
01030010016000152000035000009000062000046000000REP       BALLOTS CAST - REPUBLICAN PARTY                         BALLOTS CAST - REPUBLICAN PARTY       Precinct 29                                            00 
01030010017000398000048000024000247000079000000REP       BALLOTS CAST - REPUBLICAN PARTY                         BALLOTS CAST - REPUBLICAN PARTY       Precinct 30                                            00 
01030010018000210000070000044000065000031000000REP       BALLOTS CAST - REPUBLICAN PARTY                         BALLOTS CAST - REPUBLICAN PARTY       Precinct 31                                            00 
01030010019000063000006000005000027000025000000REP       BALLOTS CAST - REPUBLICAN PARTY                         BALLOTS CAST - REPUBLICAN PARTY       Precinct 32                                            00 
01040010001000015000002000002000005000006000000DEM       BALLOTS CAST - DEMOCRATIC PARTY                         BALLOTS CAST - DEMOCRATIC PARTY       Precinct 1                                             00 
01040010002000024000004000005000014000001000000DEM       BALLOTS CAST - DEMOCRATIC PARTY                         BALLOTS CAST - DEMOCRATIC PARTY       Precinct 2                                             00 
01040010003000005000000000000000002000003000000DEM       BALLOTS CAST - DEMOCRATIC PARTY                         BALLOTS CAST - DEMOCRATIC PARTY       Precinct 7                                             00 
01040010004000017000003000001000008000005000000DEM       BALLOTS CAST - DEMOCRATIC PARTY                         BALLOTS CAST - DEMOCRATIC PARTY       Precinct 8                                             00 
01040010005000017000003000002000006000006000000DEM       BALLOTS CAST - DEMOCRATIC PARTY                         BALLOTS CAST - DEMOCRATIC PARTY       Precinct 9                                             00 
01040010006000013000000000001000007000005000000DEM       BALLOTS CAST - DEMOCRATIC PARTY                         BALLOTS CAST - DEMOCRATIC PARTY       Precinct 11                                            00 
01040010007000020000002000001000015000002000000DEM       BALLOTS CAST - DEMOCRATIC PARTY                         BALLOTS CAST - DEMOCRATIC PARTY       Precinct 12                                            00 
01040010008000006000000000001000003000002000000DEM       BALLOTS CAST - DEMOCRATIC PARTY                         BALLOTS CAST - DEMOCRATIC PARTY       Precinct 15                                            00 
01040010009000003000000000000000003000000000000DEM       BALLOTS CAST - DEMOCRATIC PARTY                         BALLOTS CAST - DEMOCRATIC PARTY       Precinct 16                                            00 
01040010010000004000000000003000001000000000000DEM       BALLOTS CAST - DEMOCRATIC PARTY                         BALLOTS CAST - DEMOCRATIC PARTY       Precinct 17                                            00 
01040010011000006000000000001000005000000000000DEM       BALLOTS CAST - DEMOCRATIC PARTY                         BALLOTS CAST - DEMOCRATIC PARTY       Precinct 19                                            00 
01040010012000008000002000000000004000002000000DEM       BALLOTS CAST - DEMOCRATIC PARTY                         BALLOTS CAST - DEMOCRATIC PARTY       Precinct 20                                            00 
01040010013000014000000000001000011000002000000DEM       BALLOTS CAST - DEMOCRATIC PARTY                         BALLOTS CAST - DEMOCRATIC PARTY       Precinct 23                                            00 
01040010014000007000001000000000003000003000000DEM       BALLOTS CAST - DEMOCRATIC PARTY                         BALLOTS CAST - DEMOCRATIC PARTY       Precinct 26                                            00 
01040010015000002000000000000000002000000000000DEM       BALLOTS CAST - DEMOCRATIC PARTY                         BALLOTS CAST - DEMOCRATIC PARTY       Precinct 27                                            00 
01040010016000030000001000002000015000012000000DEM       BALLOTS CAST - DEMOCRATIC PARTY                         BALLOTS CAST - DEMOCRATIC PARTY       Precinct 29                                            00 
01040010017000035000006000000000023000006000000DEM       BALLOTS CAST - DEMOCRATIC PARTY                         BALLOTS CAST - DEMOCRATIC PARTY       Precinct 30                                            00 
01040010018000028000007000004000012000005000000DEM       BALLOTS CAST - DEMOCRATIC PARTY                         BALLOTS CAST - DEMOCRATIC PARTY       Precinct 31                                            00 
01040010019000000000000000000000000000000000000DEM       BALLOTS CAST - DEMOCRATIC PARTY                         BALLOTS CAST - DEMOCRATIC PARTY       Precinct 32                                            00 
01050010001000010000001000002000005000002000000REP       United States Senator LAVACA COUNTYWIDE                 Chris Mapp                            Precinct 1                                             01 
01050010002000004000000000002000001000001000000REP       United States Senator LAVACA COUNTYWIDE                 Chris Mapp                            Precinct 2                                             01 
01050010003000001000000000000000001000000000000REP       United States Senator LAVACA COUNTYWIDE                 Chris Mapp                            Precinct 7                                             01 
01050010004000004000000000001000001000002000000REP       United States Senator LAVACA COUNTYWIDE                 Chris Mapp                            Precinct 8                                             01 
01050010005000003000000000000000002000001000000REP       United States Senator LAVACA COUNTYWIDE                 Chris Mapp                            Precinct 9                                             01 
01050010006000003000000000000000001000002000000REP       United States Senator LAVACA COUNTYWIDE                 Chris Mapp                            Precinct 11                                            01 
01050010007000000000000000000000000000000000000REP       United States Senator LAVACA COUNTYWIDE                 Chris Mapp                            Precinct 12                                            01 
01050010008000000000000000000000000000000000000REP       United States Senator LAVACA COUNTYWIDE                 Chris Mapp                            Precinct 15                                            01 
01050010009000008000001000000000005000002000000REP       United States Senator LAVACA COUNTYWIDE                 Chris Mapp                            Precinct 16                                            01 
01050010010000008000002000000000005000001000000REP       United States Senator LAVACA COUNTYWIDE                 Chris Mapp                            Precinct 17                                            01 
01050010011000004000000000000000002000002000000REP       United States Senator LAVACA COUNTYWIDE                 Chris Mapp                            Precinct 19                                            01 
01050010012000003000000000000000001000002000000REP       United States Senator LAVACA COUNTYWIDE                 Chris Mapp                            Precinct 20                                            01 
01050010013000009000001000001000002000005000000REP       United States Senator LAVACA COUNTYWIDE                 Chris Mapp                            Precinct 23                                            01 
01050010014000000000000000000000000000000000000REP       United States Senator LAVACA COUNTYWIDE                 Chris Mapp                            Precinct 26                                            01 
01050010015000000000000000000000000000000000000REP       United States Senator LAVACA COUNTYWIDE                 Chris Mapp                            Precinct 27                                            01 
01050010016000004000000000000000003000001000000REP       United States Senator LAVACA COUNTYWIDE                 Chris Mapp                            Precinct 29                                            01 
01050010017000016000001000000000012000003000000REP       United States Senator LAVACA COUNTYWIDE                 Chris Mapp                            Precinct 30                                            01 
01050010018000007000002000003000001000001000000REP       United States Senator LAVACA COUNTYWIDE                 Chris Mapp                            Precinct 31                                            01 
01050010019000000000000000000000000000000000000REP       United States Senator LAVACA COUNTYWIDE                 Chris Mapp                            Precinct 32                                            01 
01050020001000004000000000000000001000003000000REP       United States Senator LAVACA COUNTYWIDE                 Reid Reasor                           Precinct 1                                             01 
01050020002000002000000000000000001000001000000REP       United States Senator LAVACA COUNTYWIDE                 Reid Reasor                           Precinct 2                                             01 
01050020003000001000000000001000000000000000000REP       United States Senator LAVACA COUNTYWIDE                 Reid Reasor                           Precinct 7                                             01 
01050020004000000000000000000000000000000000000REP       United States Senator LAVACA COUNTYWIDE                 Reid Reasor                           Precinct 8                                             01 
01050020005000001000000000001000000000000000000REP       United States Senator LAVACA COUNTYWIDE                 Reid Reasor                           Precinct 9                                             01 
01050020006000002000001000000000000000001000000REP       United States Senator LAVACA COUNTYWIDE                 Reid Reasor                           Precinct 11                                            01 
01050020007000001000000000001000000000000000000REP       United States Senator LAVACA COUNTYWIDE                 Reid Reasor                           Precinct 12                                            01 
01050020008000000000000000000000000000000000000REP       United States Senator LAVACA COUNTYWIDE                 Reid Reasor                           Precinct 15                                            01 
01050020009000002000000000000000001000001000000REP       United States Senator LAVACA COUNTYWIDE                 Reid Reasor                           Precinct 16                                            01 
01050020010000001000000000000000001000000000000REP       United States Senator LAVACA COUNTYWIDE                 Reid Reasor                           Precinct 17                                            01 
01050020011000001000000000000000001000000000000REP       United States Senator LAVACA COUNTYWIDE                 Reid Reasor                           Precinct 19                                            01 
01050020012000001000001000000000000000000000000REP       United States Senator LAVACA COUNTYWIDE                 Reid Reasor                           Precinct 20                                            01 
01050020013000003000000000000000002000001000000REP       United States Senator LAVACA COUNTYWIDE                 Reid Reasor                           Precinct 23                                            01 
01050020014000001000000000001000000000000000000REP       United States Senator LAVACA COUNTYWIDE                 Reid Reasor                           Precinct 26                                            01 
01050020015000001000000000000000001000000000000REP       United States Senator LAVACA COUNTYWIDE                 Reid Reasor                           Precinct 27                                            01 
01050020016000001000000000000000000000001000000REP       United States Senator LAVACA COUNTYWIDE                 Reid Reasor                           Precinct 29                                            01 
01050020017000007000000000000000005000002000000REP       United States Senator LAVACA COUNTYWIDE                 Reid Reasor                           Precinct 30                                            01 
01050020018000003000001000001000000000001000000REP       United States Senator LAVACA COUNTYWIDE                 Reid Reasor                           Precinct 31                                            01 
01050020019000005000000000000000002000003000000REP       United States Senator LAVACA COUNTYWIDE                 Reid Reasor                           Precinct 32                                            01 
01050030001000000000000000000000000000000000000REP       United States Senator LAVACA COUNTYWIDE                 Curt Cleaver                          Precinct 1                                             01 
01050030002000000000000000000000000000000000000REP       United States Senator LAVACA COUNTYWIDE                 Curt Cleaver                          Precinct 2                                             01 
01050030003000000000000000000000000000000000000REP       United States Senator LAVACA COUNTYWIDE                 Curt Cleaver                          Precinct 7                                             01 
01050030004000001000000000000000000000001000000REP       United States Senator LAVACA COUNTYWIDE                 Curt Cleaver                          Precinct 8                                             01 
01050030005000001000000000000000001000000000000REP       United States Senator LAVACA COUNTYWIDE                 Curt Cleaver                          Precinct 9                                             01 
01050030006000000000000000000000000000000000000REP       United States Senator LAVACA COUNTYWIDE                 Curt Cleaver                          Precinct 11                                            01 
01050030007000001000000000000000001000000000000REP       United States Senator LAVACA COUNTYWIDE                 Curt Cleaver                          Precinct 12                                            01 
01050030008000000000000000000000000000000000000REP       United States Senator LAVACA COUNTYWIDE                 Curt Cleaver                          Precinct 15                                            01 
01050030009000000000000000000000000000000000000REP       United States Senator LAVACA COUNTYWIDE                 Curt Cleaver                          Precinct 16                                            01 
01050030010000001000000000000000001000000000000REP       United States Senator LAVACA COUNTYWIDE                 Curt Cleaver                          Precinct 17                                            01 
01050030011000000000000000000000000000000000000REP       United States Senator LAVACA COUNTYWIDE                 Curt Cleaver                          Precinct 19                                            01 
01050030012000000000000000000000000000000000000REP       United States Senator LAVACA COUNTYWIDE                 Curt Cleaver                          Precinct 20                                            01 
01050030013000002000000000000000002000000000000REP       United States Senator LAVACA COUNTYWIDE                 Curt Cleaver                          Precinct 23                                            01 
01050030014000000000000000000000000000000000000REP       United States Senator LAVACA COUNTYWIDE                 Curt Cleaver                          Precinct 26                                            01 
01050030015000002000000000000000001000001000000REP       United States Senator LAVACA COUNTYWIDE                 Curt Cleaver                          Precinct 27                                            01 
01050030016000003000000000000000001000002000000REP       United States Senator LAVACA COUNTYWIDE                 Curt Cleaver                          Precinct 29                                            01 
01050030017000002000000000000000002000000000000REP       United States Senator LAVACA COUNTYWIDE                 Curt Cleaver                          Precinct 30                                            01 
01050030018000000000000000000000000000000000000REP       United States Senator LAVACA COUNTYWIDE                 Curt Cleaver                          Precinct 31                                            01 
01050030019000000000000000000000000000000000000REP       United States Senator LAVACA COUNTYWIDE                 Curt Cleaver                          Precinct 32                                            01 
01050040001000005000002000001000002000000000000REP       United States Senator LAVACA COUNTYWIDE                 Ken Cope                              Precinct 1                                             01 
01050040002000005000002000001000001000001000000REP       United States Senator LAVACA COUNTYWIDE                 Ken Cope                              Precinct 2                                             01 
01050040003000000000000000000000000000000000000REP       United States Senator LAVACA COUNTYWIDE                 Ken Cope                              Precinct 7                                             01 
01050040004000003000001000001000001000000000000REP       United States Senator LAVACA COUNTYWIDE                 Ken Cope                              Precinct 8                                             01 
01050040005000001000000000000000001000000000000REP       United States Senator LAVACA COUNTYWIDE                 Ken Cope                              Precinct 9                                             01 
01050040006000000000000000000000000000000000000REP       United States Senator LAVACA COUNTYWIDE                 Ken Cope                              Precinct 11                                            01 
01050040007000000000000000000000000000000000000REP       United States Senator LAVACA COUNTYWIDE                 Ken Cope                              Precinct 12                                            01 
01050040008000002000000000000000001000001000000REP       United States Senator LAVACA COUNTYWIDE                 Ken Cope                              Precinct 15                                            01 
01050040009000002000000000000000002000000000000REP       United States Senator LAVACA COUNTYWIDE                 Ken Cope                              Precinct 16                                            01 
01050040010000002000000000000000002000000000000REP       United States Senator LAVACA COUNTYWIDE                 Ken Cope                              Precinct 17                                            01 
01050040011000002000001000001000000000000000000REP       United States Senator LAVACA COUNTYWIDE                 Ken Cope                              Precinct 19                                            01 
01050040012000002000000000000000002000000000000REP       United States Senator LAVACA COUNTYWIDE                 Ken Cope                              Precinct 20                                            01 
01050040013000002000000000000000002000000000000REP       United States Senator LAVACA COUNTYWIDE                 Ken Cope                              Precinct 23                                            01 
01050040014000000000000000000000000000000000000REP       United States Senator LAVACA COUNTYWIDE                 Ken Cope                              Precinct 26                                            01 
01050040015000000000000000000000000000000000000REP       United States Senator LAVACA COUNTYWIDE                 Ken Cope                              Precinct 27                                            01 
01050040016000006000001000000000003000002000000REP       United States Senator LAVACA COUNTYWIDE                 Ken Cope                              Precinct 29                                            01 
01050040017000013000004000001000007000001000000REP       United States Senator LAVACA COUNTYWIDE                 Ken Cope                              Precinct 30                                            01 
01050040018000003000001000001000000000001000000REP       United States Senator LAVACA COUNTYWIDE                 Ken Cope                              Precinct 31                                            01 
01050040019000002000000000000000002000000000000REP       United States Senator LAVACA COUNTYWIDE                 Ken Cope                              Precinct 32                                            01 
01050050001000002000001000000000000000001000000REP       United States Senator LAVACA COUNTYWIDE                 Linda Vega                            Precinct 1                                             01 
01050050002000001000000000000000000000001000000REP       United States Senator LAVACA COUNTYWIDE                 Linda Vega                            Precinct 2                                             01 
01050050003000001000000000000000001000000000000REP       United States Senator LAVACA COUNTYWIDE                 Linda Vega                            Precinct 7                                             01 
01050050004000004000000000001000003000000000000REP       United States Senator LAVACA COUNTYWIDE                 Linda Vega                            Precinct 8                                             01 
01050050005000003000000000000000001000002000000REP       United States Senator LAVACA COUNTYWIDE                 Linda Vega                            Precinct 9                                             01 
01050050006000000000000000000000000000000000000REP       United States Senator LAVACA COUNTYWIDE                 Linda Vega                            Precinct 11                                            01 
01050050007000000000000000000000000000000000000REP       United States Senator LAVACA COUNTYWIDE                 Linda Vega                            Precinct 12                                            01 
01050050008000000000000000000000000000000000000REP       United States Senator LAVACA COUNTYWIDE                 Linda Vega                            Precinct 15                                            01 
01050050009000005000000000002000003000000000000REP       United States Senator LAVACA COUNTYWIDE                 Linda Vega                            Precinct 16                                            01 
01050050010000003000000000000000001000002000000REP       United States Senator LAVACA COUNTYWIDE                 Linda Vega                            Precinct 17                                            01 
01050050011000002000000000000000002000000000000REP       United States Senator LAVACA COUNTYWIDE                 Linda Vega                            Precinct 19                                            01 
01050050012000000000000000000000000000000000000REP       United States Senator LAVACA COUNTYWIDE                 Linda Vega                            Precinct 20                                            01 
01050050013000003000000000002000000000001000000REP       United States Senator LAVACA COUNTYWIDE                 Linda Vega                            Precinct 23                                            01 
01050050014000001000000000000000001000000000000REP       United States Senator LAVACA COUNTYWIDE                 Linda Vega                            Precinct 26                                            01 
01050050015000001000000000000000001000000000000REP       United States Senator LAVACA COUNTYWIDE                 Linda Vega                            Precinct 27                                            01 
01050050016000007000001000000000001000005000000REP       United States Senator LAVACA COUNTYWIDE                 Linda Vega                            Precinct 29                                            01 
01050050017000015000000000003000010000002000000REP       United States Senator LAVACA COUNTYWIDE                 Linda Vega                            Precinct 30                                            01 
01050050018000004000000000000000003000001000000REP       United States Senator LAVACA COUNTYWIDE                 Linda Vega                            Precinct 31                                            01 
01050050019000000000000000000000000000000000000REP       United States Senator LAVACA COUNTYWIDE                 Linda Vega                            Precinct 32                                            01 
01050060001000027000009000004000006000008000000REP       United States Senator LAVACA COUNTYWIDE                 Dwayne Stovall                        Precinct 1                                             01 
01050060002000026000006000006000007000007000000REP       United States Senator LAVACA COUNTYWIDE                 Dwayne Stovall                        Precinct 2                                             01 
01050060003000004000001000000000001000002000000REP       United States Senator LAVACA COUNTYWIDE                 Dwayne Stovall                        Precinct 7                                             01 
01050060004000017000000000001000011000005000000REP       United States Senator LAVACA COUNTYWIDE                 Dwayne Stovall                        Precinct 8                                             01 
01050060005000027000001000004000017000005000000REP       United States Senator LAVACA COUNTYWIDE                 Dwayne Stovall                        Precinct 9                                             01 
01050060006000017000000000002000004000011000000REP       United States Senator LAVACA COUNTYWIDE                 Dwayne Stovall                        Precinct 11                                            01 
01050060007000013000003000002000003000005000000REP       United States Senator LAVACA COUNTYWIDE                 Dwayne Stovall                        Precinct 12                                            01 
01050060008000017000001000001000007000008000000REP       United States Senator LAVACA COUNTYWIDE                 Dwayne Stovall                        Precinct 15                                            01 
01050060009000006000001000000000002000003000000REP       United States Senator LAVACA COUNTYWIDE                 Dwayne Stovall                        Precinct 16                                            01 
01050060010000015000002000001000005000007000000REP       United States Senator LAVACA COUNTYWIDE                 Dwayne Stovall                        Precinct 17                                            01 
01050060011000011000003000001000006000001000000REP       United States Senator LAVACA COUNTYWIDE                 Dwayne Stovall                        Precinct 19                                            01 
01050060012000002000000000000000002000000000000REP       United States Senator LAVACA COUNTYWIDE                 Dwayne Stovall                        Precinct 20                                            01 
01050060013000011000001000001000006000003000000REP       United States Senator LAVACA COUNTYWIDE                 Dwayne Stovall                        Precinct 23                                            01 
01050060014000003000000000001000002000000000000REP       United States Senator LAVACA COUNTYWIDE                 Dwayne Stovall                        Precinct 26                                            01 
01050060015000010000004000001000005000000000000REP       United States Senator LAVACA COUNTYWIDE                 Dwayne Stovall                        Precinct 27                                            01 
01050060016000030000005000003000014000008000000REP       United States Senator LAVACA COUNTYWIDE                 Dwayne Stovall                        Precinct 29                                            01 
01050060017000036000003000002000021000010000000REP       United States Senator LAVACA COUNTYWIDE                 Dwayne Stovall                        Precinct 30                                            01 
01050060018000027000007000001000013000006000000REP       United States Senator LAVACA COUNTYWIDE                 Dwayne Stovall                        Precinct 31                                            01 
01050060019000009000003000001000004000001000000REP       United States Senator LAVACA COUNTYWIDE                 Dwayne Stovall                        Precinct 32                                            01 
01050070001000067000017000007000021000022000000REP       United States Senator LAVACA COUNTYWIDE                 John Cornyn                           Precinct 1                                             01 
01050070002000111000037000012000042000020000000REP       United States Senator LAVACA COUNTYWIDE                 John Cornyn                           Precinct 2                                             01 
01050070003000022000001000011000004000006000000REP       United States Senator LAVACA COUNTYWIDE                 John Cornyn                           Precinct 7                                             01 
01050070004000062000013000006000028000015000000REP       United States Senator LAVACA COUNTYWIDE                 John Cornyn                           Precinct 8                                             01 
01050070005000071000011000007000033000020000000REP       United States Senator LAVACA COUNTYWIDE                 John Cornyn                           Precinct 9                                             01 
01050070006000030000006000002000009000013000000REP       United States Senator LAVACA COUNTYWIDE                 John Cornyn                           Precinct 11                                            01 
01050070007000023000004000004000011000004000000REP       United States Senator LAVACA COUNTYWIDE                 John Cornyn                           Precinct 12                                            01 
01050070008000007000001000002000003000001000000REP       United States Senator LAVACA COUNTYWIDE                 John Cornyn                           Precinct 15                                            01 
01050070009000044000008000003000020000013000000REP       United States Senator LAVACA COUNTYWIDE                 John Cornyn                           Precinct 16                                            01 
01050070010000048000006000008000023000011000000REP       United States Senator LAVACA COUNTYWIDE                 John Cornyn                           Precinct 17                                            01 
01050070011000016000005000006000004000001000000REP       United States Senator LAVACA COUNTYWIDE                 John Cornyn                           Precinct 19                                            01 
01050070012000006000002000000000004000000000000REP       United States Senator LAVACA COUNTYWIDE                 John Cornyn                           Precinct 20                                            01 
01050070013000096000015000002000053000026000000REP       United States Senator LAVACA COUNTYWIDE                 John Cornyn                           Precinct 23                                            01 
01050070014000019000005000002000009000003000000REP       United States Senator LAVACA COUNTYWIDE                 John Cornyn                           Precinct 26                                            01 
01050070015000017000004000006000003000004000000REP       United States Senator LAVACA COUNTYWIDE                 John Cornyn                           Precinct 27                                            01 
01050070016000082000027000004000030000021000000REP       United States Senator LAVACA COUNTYWIDE                 John Cornyn                           Precinct 29                                            01 
01050070017000225000032000014000132000047000000REP       United States Senator LAVACA COUNTYWIDE                 John Cornyn                           Precinct 30                                            01 
01050070018000120000042000031000031000016000000REP       United States Senator LAVACA COUNTYWIDE                 John Cornyn                           Precinct 31                                            01 
01050070019000038000003000004000015000016000000REP       United States Senator LAVACA COUNTYWIDE                 John Cornyn                           Precinct 32                                            01 
01050080001000041000011000005000015000010000000REP       United States Senator LAVACA COUNTYWIDE                 Steve Stockman                        Precinct 1                                             01 
01050080002000042000007000007000012000016000000REP       United States Senator LAVACA COUNTYWIDE                 Steve Stockman                        Precinct 2                                             01 
01050080003000014000002000005000005000002000000REP       United States Senator LAVACA COUNTYWIDE                 Steve Stockman                        Precinct 7                                             01 
01050080004000046000006000006000021000013000000REP       United States Senator LAVACA COUNTYWIDE                 Steve Stockman                        Precinct 8                                             01 
01050080005000043000001000002000023000017000000REP       United States Senator LAVACA COUNTYWIDE                 Steve Stockman                        Precinct 9                                             01 
01050080006000007000003000001000001000002000000REP       United States Senator LAVACA COUNTYWIDE                 Steve Stockman                        Precinct 11                                            01 
01050080007000009000002000000000006000001000000REP       United States Senator LAVACA COUNTYWIDE                 Steve Stockman                        Precinct 12                                            01 
01050080008000005000000000001000000000004000000REP       United States Senator LAVACA COUNTYWIDE                 Steve Stockman                        Precinct 15                                            01 
01050080009000031000005000001000018000007000000REP       United States Senator LAVACA COUNTYWIDE                 Steve Stockman                        Precinct 16                                            01 
01050080010000018000000000000000015000003000000REP       United States Senator LAVACA COUNTYWIDE                 Steve Stockman                        Precinct 17                                            01 
01050080011000019000002000002000011000004000000REP       United States Senator LAVACA COUNTYWIDE                 Steve Stockman                        Precinct 19                                            01 
01050080012000006000001000000000002000003000000REP       United States Senator LAVACA COUNTYWIDE                 Steve Stockman                        Precinct 20                                            01 
01050080013000042000002000003000024000013000000REP       United States Senator LAVACA COUNTYWIDE                 Steve Stockman                        Precinct 23                                            01 
01050080014000007000001000000000002000004000000REP       United States Senator LAVACA COUNTYWIDE                 Steve Stockman                        Precinct 26                                            01 
01050080015000014000003000002000007000002000000REP       United States Senator LAVACA COUNTYWIDE                 Steve Stockman                        Precinct 27                                            01 
01050080016000016000001000000000009000006000000REP       United States Senator LAVACA COUNTYWIDE                 Steve Stockman                        Precinct 29                                            01 
01050080017000048000007000002000032000007000000REP       United States Senator LAVACA COUNTYWIDE                 Steve Stockman                        Precinct 30                                            01 
01050080018000038000014000006000015000003000000REP       United States Senator LAVACA COUNTYWIDE                 Steve Stockman                        Precinct 31                                            01 
01050080019000009000000000000000004000005000000REP       United States Senator LAVACA COUNTYWIDE                 Steve Stockman                        Precinct 32                                            01 
01050090001000000000000000000000000000000000000REP       United States Senator LAVACA COUNTYWIDE                 OVER VOTES                            Precinct 1                                             01 
01050090002000000000000000000000000000000000000REP       United States Senator LAVACA COUNTYWIDE                 OVER VOTES                            Precinct 2                                             01 
01050090003000000000000000000000000000000000000REP       United States Senator LAVACA COUNTYWIDE                 OVER VOTES                            Precinct 7                                             01 
01050090004000000000000000000000000000000000000REP       United States Senator LAVACA COUNTYWIDE                 OVER VOTES                            Precinct 8                                             01 
01050090005000000000000000000000000000000000000REP       United States Senator LAVACA COUNTYWIDE                 OVER VOTES                            Precinct 9                                             01 
01050090006000000000000000000000000000000000000REP       United States Senator LAVACA COUNTYWIDE                 OVER VOTES                            Precinct 11                                            01 
01050090007000000000000000000000000000000000000REP       United States Senator LAVACA COUNTYWIDE                 OVER VOTES                            Precinct 12                                            01 
01050090008000000000000000000000000000000000000REP       United States Senator LAVACA COUNTYWIDE                 OVER VOTES                            Precinct 15                                            01 
01050090009000000000000000000000000000000000000REP       United States Senator LAVACA COUNTYWIDE                 OVER VOTES                            Precinct 16                                            01 
01050090010000000000000000000000000000000000000REP       United States Senator LAVACA COUNTYWIDE                 OVER VOTES                            Precinct 17                                            01 
01050090011000000000000000000000000000000000000REP       United States Senator LAVACA COUNTYWIDE                 OVER VOTES                            Precinct 19                                            01 
01050090012000000000000000000000000000000000000REP       United States Senator LAVACA COUNTYWIDE                 OVER VOTES                            Precinct 20                                            01 
01050090013000000000000000000000000000000000000REP       United States Senator LAVACA COUNTYWIDE                 OVER VOTES                            Precinct 23                                            01 
01050090014000000000000000000000000000000000000REP       United States Senator LAVACA COUNTYWIDE                 OVER VOTES                            Precinct 26                                            01 
01050090015000000000000000000000000000000000000REP       United States Senator LAVACA COUNTYWIDE                 OVER VOTES                            Precinct 27                                            01 
01050090016000000000000000000000000000000000000REP       United States Senator LAVACA COUNTYWIDE                 OVER VOTES                            Precinct 29                                            01 
01050090017000000000000000000000000000000000000REP       United States Senator LAVACA COUNTYWIDE                 OVER VOTES                            Precinct 30                                            01 
01050090018000000000000000000000000000000000000REP       United States Senator LAVACA COUNTYWIDE                 OVER VOTES                            Precinct 31                                            01 
01050090019000000000000000000000000000000000000REP       United States Senator LAVACA COUNTYWIDE                 OVER VOTES                            Precinct 32                                            01 
01050100001000011000004000001000004000002000000REP       United States Senator LAVACA COUNTYWIDE                 UNDER VOTES                           Precinct 1                                             01 
01050100002000008000003000000000002000003000000REP       United States Senator LAVACA COUNTYWIDE                 UNDER VOTES                           Precinct 2                                             01 
01050100003000000000000000000000000000000000000REP       United States Senator LAVACA COUNTYWIDE                 UNDER VOTES                           Precinct 7                                             01 
01050100004000001000001000000000000000000000000REP       United States Senator LAVACA COUNTYWIDE                 UNDER VOTES                           Precinct 8                                             01 
01050100005000004000000000000000004000000000000REP       United States Senator LAVACA COUNTYWIDE                 UNDER VOTES                           Precinct 9                                             01 
01050100006000001000000000000000001000000000000REP       United States Senator LAVACA COUNTYWIDE                 UNDER VOTES                           Precinct 11                                            01 
01050100007000000000000000000000000000000000000REP       United States Senator LAVACA COUNTYWIDE                 UNDER VOTES                           Precinct 12                                            01 
01050100008000001000001000000000000000000000000REP       United States Senator LAVACA COUNTYWIDE                 UNDER VOTES                           Precinct 15                                            01 
01050100009000018000000000000000015000003000000REP       United States Senator LAVACA COUNTYWIDE                 UNDER VOTES                           Precinct 16                                            01 
01050100010000012000003000001000007000001000000REP       United States Senator LAVACA COUNTYWIDE                 UNDER VOTES                           Precinct 17                                            01 
01050100011000000000000000000000000000000000000REP       United States Senator LAVACA COUNTYWIDE                 UNDER VOTES                           Precinct 19                                            01 
01050100012000000000000000000000000000000000000REP       United States Senator LAVACA COUNTYWIDE                 UNDER VOTES                           Precinct 20                                            01 
01050100013000006000001000000000004000001000000REP       United States Senator LAVACA COUNTYWIDE                 UNDER VOTES                           Precinct 23                                            01 
01050100014000001000000000000000000000001000000REP       United States Senator LAVACA COUNTYWIDE                 UNDER VOTES                           Precinct 26                                            01 
01050100015000001000001000000000000000000000000REP       United States Senator LAVACA COUNTYWIDE                 UNDER VOTES                           Precinct 27                                            01 
01050100016000003000000000002000001000000000000REP       United States Senator LAVACA COUNTYWIDE                 UNDER VOTES                           Precinct 29                                            01 
01050100017000036000001000002000026000007000000REP       United States Senator LAVACA COUNTYWIDE                 UNDER VOTES                           Precinct 30                                            01 
01050100018000008000003000001000002000002000000REP       United States Senator LAVACA COUNTYWIDE                 UNDER VOTES                           Precinct 31                                            01 
01050100019000000000000000000000000000000000000REP       United States Senator LAVACA COUNTYWIDE                 UNDER VOTES                           Precinct 32                                            01 
01060010001000134000042000017000035000040000000REP       US Representative, District 27 LAVACA COUNTYWIDE        Blake Farenthold                      Precinct 1                                             01 
01060010002000147000043000019000044000041000000REP       US Representative, District 27 LAVACA COUNTYWIDE        Blake Farenthold                      Precinct 2                                             01 
01060010003000033000003000014000008000008000000REP       US Representative, District 27 LAVACA COUNTYWIDE        Blake Farenthold                      Precinct 7                                             01 
01060010004000098000017000014000044000023000000REP       US Representative, District 27 LAVACA COUNTYWIDE        Blake Farenthold                      Precinct 8                                             01 
01060010005000120000012000011000063000034000000REP       US Representative, District 27 LAVACA COUNTYWIDE        Blake Farenthold                      Precinct 9                                             01 
01060010006000049000007000004000011000027000000REP       US Representative, District 27 LAVACA COUNTYWIDE        Blake Farenthold                      Precinct 11                                            01 
01060010007000032000006000005000013000008000000REP       US Representative, District 27 LAVACA COUNTYWIDE        Blake Farenthold                      Precinct 12                                            01 
01060010008000023000002000003000007000011000000REP       US Representative, District 27 LAVACA COUNTYWIDE        Blake Farenthold                      Precinct 15                                            01 
01060010009000075000010000005000037000023000000REP       US Representative, District 27 LAVACA COUNTYWIDE        Blake Farenthold                      Precinct 16                                            01 
01060010010000071000009000007000038000017000000REP       US Representative, District 27 LAVACA COUNTYWIDE        Blake Farenthold                      Precinct 17                                            01 
01060010011000042000007000009000018000008000000REP       US Representative, District 27 LAVACA COUNTYWIDE        Blake Farenthold                      Precinct 19                                            01 
01060010012000016000004000000000007000005000000REP       US Representative, District 27 LAVACA COUNTYWIDE        Blake Farenthold                      Precinct 20                                            01 
01060010013000125000017000008000063000037000000REP       US Representative, District 27 LAVACA COUNTYWIDE        Blake Farenthold                      Precinct 23                                            01 
01060010014000024000005000002000011000006000000REP       US Representative, District 27 LAVACA COUNTYWIDE        Blake Farenthold                      Precinct 26                                            01 
01060010015000034000007000009000012000006000000REP       US Representative, District 27 LAVACA COUNTYWIDE        Blake Farenthold                      Precinct 27                                            01 
01060010016000119000028000006000047000038000000REP       US Representative, District 27 LAVACA COUNTYWIDE        Blake Farenthold                      Precinct 29                                            01 
01060010017000268000034000018000152000064000000REP       US Representative, District 27 LAVACA COUNTYWIDE        Blake Farenthold                      Precinct 30                                            01 
01060010018000157000051000033000049000024000000REP       US Representative, District 27 LAVACA COUNTYWIDE        Blake Farenthold                      Precinct 31                                            01 
01060010019000050000004000003000023000020000000REP       US Representative, District 27 LAVACA COUNTYWIDE        Blake Farenthold                      Precinct 32                                            01 
01060020001000000000000000000000000000000000000REP       US Representative, District 27 LAVACA COUNTYWIDE        OVER VOTES                            Precinct 1                                             01 
01060020002000000000000000000000000000000000000REP       US Representative, District 27 LAVACA COUNTYWIDE        OVER VOTES                            Precinct 2                                             01 
01060020003000000000000000000000000000000000000REP       US Representative, District 27 LAVACA COUNTYWIDE        OVER VOTES                            Precinct 7                                             01 
01060020004000000000000000000000000000000000000REP       US Representative, District 27 LAVACA COUNTYWIDE        OVER VOTES                            Precinct 8                                             01 
01060020005000000000000000000000000000000000000REP       US Representative, District 27 LAVACA COUNTYWIDE        OVER VOTES                            Precinct 9                                             01 
01060020006000000000000000000000000000000000000REP       US Representative, District 27 LAVACA COUNTYWIDE        OVER VOTES                            Precinct 11                                            01 
01060020007000000000000000000000000000000000000REP       US Representative, District 27 LAVACA COUNTYWIDE        OVER VOTES                            Precinct 12                                            01 
01060020008000000000000000000000000000000000000REP       US Representative, District 27 LAVACA COUNTYWIDE        OVER VOTES                            Precinct 15                                            01 
01060020009000000000000000000000000000000000000REP       US Representative, District 27 LAVACA COUNTYWIDE        OVER VOTES                            Precinct 16                                            01 
01060020010000000000000000000000000000000000000REP       US Representative, District 27 LAVACA COUNTYWIDE        OVER VOTES                            Precinct 17                                            01 
01060020011000000000000000000000000000000000000REP       US Representative, District 27 LAVACA COUNTYWIDE        OVER VOTES                            Precinct 19                                            01 
01060020012000000000000000000000000000000000000REP       US Representative, District 27 LAVACA COUNTYWIDE        OVER VOTES                            Precinct 20                                            01 
01060020013000000000000000000000000000000000000REP       US Representative, District 27 LAVACA COUNTYWIDE        OVER VOTES                            Precinct 23                                            01 
01060020014000000000000000000000000000000000000REP       US Representative, District 27 LAVACA COUNTYWIDE        OVER VOTES                            Precinct 26                                            01 
01060020015000000000000000000000000000000000000REP       US Representative, District 27 LAVACA COUNTYWIDE        OVER VOTES                            Precinct 27                                            01 
01060020016000000000000000000000000000000000000REP       US Representative, District 27 LAVACA COUNTYWIDE        OVER VOTES                            Precinct 29                                            01 
01060020017000000000000000000000000000000000000REP       US Representative, District 27 LAVACA COUNTYWIDE        OVER VOTES                            Precinct 30                                            01 
01060020018000000000000000000000000000000000000REP       US Representative, District 27 LAVACA COUNTYWIDE        OVER VOTES                            Precinct 31                                            01 
01060020019000000000000000000000000000000000000REP       US Representative, District 27 LAVACA COUNTYWIDE        OVER VOTES                            Precinct 32                                            01 
01060030001000033000003000003000019000008000000REP       US Representative, District 27 LAVACA COUNTYWIDE        UNDER VOTES                           Precinct 1                                             01 
01060030002000052000012000009000022000009000000REP       US Representative, District 27 LAVACA COUNTYWIDE        UNDER VOTES                           Precinct 2                                             01 
01060030003000010000001000003000004000002000000REP       US Representative, District 27 LAVACA COUNTYWIDE        UNDER VOTES                           Precinct 7                                             01 
01060030004000040000004000002000021000013000000REP       US Representative, District 27 LAVACA COUNTYWIDE        UNDER VOTES                           Precinct 8                                             01 
01060030005000034000001000003000019000011000000REP       US Representative, District 27 LAVACA COUNTYWIDE        UNDER VOTES                           Precinct 9                                             01 
01060030006000011000003000001000005000002000000REP       US Representative, District 27 LAVACA COUNTYWIDE        UNDER VOTES                           Precinct 11                                            01 
01060030007000015000003000002000008000002000000REP       US Representative, District 27 LAVACA COUNTYWIDE        UNDER VOTES                           Precinct 12                                            01 
01060030008000009000001000001000004000003000000REP       US Representative, District 27 LAVACA COUNTYWIDE        UNDER VOTES                           Precinct 15                                            01 
01060030009000041000005000001000029000006000000REP       US Representative, District 27 LAVACA COUNTYWIDE        UNDER VOTES                           Precinct 16                                            01 
01060030010000037000004000003000022000008000000REP       US Representative, District 27 LAVACA COUNTYWIDE        UNDER VOTES                           Precinct 17                                            01 
01060030011000013000004000001000008000000000000REP       US Representative, District 27 LAVACA COUNTYWIDE        UNDER VOTES                           Precinct 19                                            01 
01060030012000004000000000000000004000000000000REP       US Representative, District 27 LAVACA COUNTYWIDE        UNDER VOTES                           Precinct 20                                            01 
01060030013000049000003000001000032000013000000REP       US Representative, District 27 LAVACA COUNTYWIDE        UNDER VOTES                           Precinct 23                                            01 
01060030014000008000001000002000003000002000000REP       US Representative, District 27 LAVACA COUNTYWIDE        UNDER VOTES                           Precinct 26                                            01 
01060030015000012000005000000000006000001000000REP       US Representative, District 27 LAVACA COUNTYWIDE        UNDER VOTES                           Precinct 27                                            01 
01060030016000033000007000003000015000008000000REP       US Representative, District 27 LAVACA COUNTYWIDE        UNDER VOTES                           Precinct 29                                            01 
01060030017000130000014000006000095000015000000REP       US Representative, District 27 LAVACA COUNTYWIDE        UNDER VOTES                           Precinct 30                                            01 
01060030018000053000019000011000016000007000000REP       US Representative, District 27 LAVACA COUNTYWIDE        UNDER VOTES                           Precinct 31                                            01 
01060030019000013000002000002000004000005000000REP       US Representative, District 27 LAVACA COUNTYWIDE        UNDER VOTES                           Precinct 32                                            01 
01070010001000155000042000019000050000044000000REP       Governor LAVACA COUNTYWIDE                              Greg Abbott                           Precinct 1                                             01 
01070010002000185000052000026000061000046000000REP       Governor LAVACA COUNTYWIDE                              Greg Abbott                           Precinct 2                                             01 
01070010003000040000004000015000011000010000000REP       Governor LAVACA COUNTYWIDE                              Greg Abbott                           Precinct 7                                             01 
01070010004000122000019000014000055000034000000REP       Governor LAVACA COUNTYWIDE                              Greg Abbott                           Precinct 8                                             01 
01070010005000141000013000013000076000039000000REP       Governor LAVACA COUNTYWIDE                              Greg Abbott                           Precinct 9                                             01 
01070010006000057000010000005000015000027000000REP       Governor LAVACA COUNTYWIDE                              Greg Abbott                           Precinct 11                                            01 
01070010007000046000008000007000021000010000000REP       Governor LAVACA COUNTYWIDE                              Greg Abbott                           Precinct 12                                            01 
01070010008000027000003000004000008000012000000REP       Governor LAVACA COUNTYWIDE                              Greg Abbott                           Precinct 15                                            01 
01070010009000100000015000004000056000025000000REP       Governor LAVACA COUNTYWIDE                              Greg Abbott                           Precinct 16                                            01 
01070010010000087000012000010000046000019000000REP       Governor LAVACA COUNTYWIDE                              Greg Abbott                           Precinct 17                                            01 
01070010011000052000010000010000024000008000000REP       Governor LAVACA COUNTYWIDE                              Greg Abbott                           Precinct 19                                            01 
01070010012000017000003000000000009000005000000REP       Governor LAVACA COUNTYWIDE                              Greg Abbott                           Precinct 20                                            01 
01070010013000154000019000009000083000043000000REP       Governor LAVACA COUNTYWIDE                              Greg Abbott                           Precinct 23                                            01 
01070010014000031000006000004000014000007000000REP       Governor LAVACA COUNTYWIDE                              Greg Abbott                           Precinct 26                                            01 
01070010015000044000012000009000016000007000000REP       Governor LAVACA COUNTYWIDE                              Greg Abbott                           Precinct 27                                            01 
01070010016000143000034000009000057000043000000REP       Governor LAVACA COUNTYWIDE                              Greg Abbott                           Precinct 29                                            01 
01070010017000336000042000021000202000071000000REP       Governor LAVACA COUNTYWIDE                              Greg Abbott                           Precinct 30                                            01 
01070010018000197000065000042000061000029000000REP       Governor LAVACA COUNTYWIDE                              Greg Abbott                           Precinct 31                                            01 
01070010019000059000006000005000023000025000000REP       Governor LAVACA COUNTYWIDE                              Greg Abbott                           Precinct 32                                            01 
01070020001000008000002000000000002000004000000REP       Governor LAVACA COUNTYWIDE                              SECEDE Kilgore                        Precinct 1                                             01 
01070020002000004000002000001000001000000000000REP       Governor LAVACA COUNTYWIDE                              SECEDE Kilgore                        Precinct 2                                             01 
01070020003000000000000000000000000000000000000REP       Governor LAVACA COUNTYWIDE                              SECEDE Kilgore                        Precinct 7                                             01 
01070020004000002000000000000000002000000000000REP       Governor LAVACA COUNTYWIDE                              SECEDE Kilgore                        Precinct 8                                             01 
01070020005000003000000000000000002000001000000REP       Governor LAVACA COUNTYWIDE                              SECEDE Kilgore                        Precinct 9                                             01 
01070020006000000000000000000000000000000000000REP       Governor LAVACA COUNTYWIDE                              SECEDE Kilgore                        Precinct 11                                            01 
01070020007000000000000000000000000000000000000REP       Governor LAVACA COUNTYWIDE                              SECEDE Kilgore                        Precinct 12                                            01 
01070020008000000000000000000000000000000000000REP       Governor LAVACA COUNTYWIDE                              SECEDE Kilgore                        Precinct 15                                            01 
01070020009000000000000000000000000000000000000REP       Governor LAVACA COUNTYWIDE                              SECEDE Kilgore                        Precinct 16                                            01 
01070020010000003000000000000000003000000000000REP       Governor LAVACA COUNTYWIDE                              SECEDE Kilgore                        Precinct 17                                            01 
01070020011000000000000000000000000000000000000REP       Governor LAVACA COUNTYWIDE                              SECEDE Kilgore                        Precinct 19                                            01 
01070020012000002000001000000000001000000000000REP       Governor LAVACA COUNTYWIDE                              SECEDE Kilgore                        Precinct 20                                            01 
01070020013000002000000000000000000000002000000REP       Governor LAVACA COUNTYWIDE                              SECEDE Kilgore                        Precinct 23                                            01 
01070020014000000000000000000000000000000000000REP       Governor LAVACA COUNTYWIDE                              SECEDE Kilgore                        Precinct 26                                            01 
01070020015000001000000000000000001000000000000REP       Governor LAVACA COUNTYWIDE                              SECEDE Kilgore                        Precinct 27                                            01 
01070020016000003000000000000000003000000000000REP       Governor LAVACA COUNTYWIDE                              SECEDE Kilgore                        Precinct 29                                            01 
01070020017000005000002000000000002000001000000REP       Governor LAVACA COUNTYWIDE                              SECEDE Kilgore                        Precinct 30                                            01 
01070020018000001000000000000000001000000000000REP       Governor LAVACA COUNTYWIDE                              SECEDE Kilgore                        Precinct 31                                            01 
01070020019000000000000000000000000000000000000REP       Governor LAVACA COUNTYWIDE                              SECEDE Kilgore                        Precinct 32                                            01 
01070030001000003000000000001000002000000000000REP       Governor LAVACA COUNTYWIDE                              Lisa Fritsch                          Precinct 1                                             01 
01070030002000003000000000001000001000001000000REP       Governor LAVACA COUNTYWIDE                              Lisa Fritsch                          Precinct 2                                             01 
01070030003000003000000000002000001000000000000REP       Governor LAVACA COUNTYWIDE                              Lisa Fritsch                          Precinct 7                                             01 
01070030004000010000001000001000006000002000000REP       Governor LAVACA COUNTYWIDE                              Lisa Fritsch                          Precinct 8                                             01 
01070030005000002000000000001000001000000000000REP       Governor LAVACA COUNTYWIDE                              Lisa Fritsch                          Precinct 9                                             01 
01070030006000002000000000000000000000002000000REP       Governor LAVACA COUNTYWIDE                              Lisa Fritsch                          Precinct 11                                            01 
01070030007000001000001000000000000000000000000REP       Governor LAVACA COUNTYWIDE                              Lisa Fritsch                          Precinct 12                                            01 
01070030008000005000000000000000003000002000000REP       Governor LAVACA COUNTYWIDE                              Lisa Fritsch                          Precinct 15                                            01 
01070030009000003000000000002000001000000000000REP       Governor LAVACA COUNTYWIDE                              Lisa Fritsch                          Precinct 16                                            01 
01070030010000004000000000000000003000001000000REP       Governor LAVACA COUNTYWIDE                              Lisa Fritsch                          Precinct 17                                            01 
01070030011000003000001000000000002000000000000REP       Governor LAVACA COUNTYWIDE                              Lisa Fritsch                          Precinct 19                                            01 
01070030012000001000000000000000001000000000000REP       Governor LAVACA COUNTYWIDE                              Lisa Fritsch                          Precinct 20                                            01 
01070030013000006000000000000000005000001000000REP       Governor LAVACA COUNTYWIDE                              Lisa Fritsch                          Precinct 23                                            01 
01070030014000000000000000000000000000000000000REP       Governor LAVACA COUNTYWIDE                              Lisa Fritsch                          Precinct 26                                            01 
01070030015000000000000000000000000000000000000REP       Governor LAVACA COUNTYWIDE                              Lisa Fritsch                          Precinct 27                                            01 
01070030016000004000001000000000000000003000000REP       Governor LAVACA COUNTYWIDE                              Lisa Fritsch                          Precinct 29                                            01 
01070030017000018000002000000000013000003000000REP       Governor LAVACA COUNTYWIDE                              Lisa Fritsch                          Precinct 30                                            01 
01070030018000004000002000001000000000001000000REP       Governor LAVACA COUNTYWIDE                              Lisa Fritsch                          Precinct 31                                            01 
01070030019000004000000000000000004000000000000REP       Governor LAVACA COUNTYWIDE                              Lisa Fritsch                          Precinct 32                                            01 
01070040001000000000000000000000000000000000000REP       Governor LAVACA COUNTYWIDE                              Miriam Martinez                       Precinct 1                                             01 
01070040002000001000000000000000000000001000000REP       Governor LAVACA COUNTYWIDE                              Miriam Martinez                       Precinct 2                                             01 
01070040003000000000000000000000000000000000000REP       Governor LAVACA COUNTYWIDE                              Miriam Martinez                       Precinct 7                                             01 
01070040004000001000000000000000001000000000000REP       Governor LAVACA COUNTYWIDE                              Miriam Martinez                       Precinct 8                                             01 
01070040005000003000000000000000001000002000000REP       Governor LAVACA COUNTYWIDE                              Miriam Martinez                       Precinct 9                                             01 
01070040006000001000000000000000001000000000000REP       Governor LAVACA COUNTYWIDE                              Miriam Martinez                       Precinct 11                                            01 
01070040007000000000000000000000000000000000000REP       Governor LAVACA COUNTYWIDE                              Miriam Martinez                       Precinct 12                                            01 
01070040008000000000000000000000000000000000000REP       Governor LAVACA COUNTYWIDE                              Miriam Martinez                       Precinct 15                                            01 
01070040009000002000000000000000000000002000000REP       Governor LAVACA COUNTYWIDE                              Miriam Martinez                       Precinct 16                                            01 
01070040010000004000000000000000002000002000000REP       Governor LAVACA COUNTYWIDE                              Miriam Martinez                       Precinct 17                                            01 
01070040011000000000000000000000000000000000000REP       Governor LAVACA COUNTYWIDE                              Miriam Martinez                       Precinct 19                                            01 
01070040012000000000000000000000000000000000000REP       Governor LAVACA COUNTYWIDE                              Miriam Martinez                       Precinct 20                                            01 
01070040013000003000001000000000001000001000000REP       Governor LAVACA COUNTYWIDE                              Miriam Martinez                       Precinct 23                                            01 
01070040014000001000000000000000000000001000000REP       Governor LAVACA COUNTYWIDE                              Miriam Martinez                       Precinct 26                                            01 
01070040015000001000000000000000001000000000000REP       Governor LAVACA COUNTYWIDE                              Miriam Martinez                       Precinct 27                                            01 
01070040016000000000000000000000000000000000000REP       Governor LAVACA COUNTYWIDE                              Miriam Martinez                       Precinct 29                                            01 
01070040017000007000000000002000005000000000000REP       Governor LAVACA COUNTYWIDE                              Miriam Martinez                       Precinct 30                                            01 
01070040018000003000000000001000001000001000000REP       Governor LAVACA COUNTYWIDE                              Miriam Martinez                       Precinct 31                                            01 
01070040019000000000000000000000000000000000000REP       Governor LAVACA COUNTYWIDE                              Miriam Martinez                       Precinct 32                                            01 
01070050001000000000000000000000000000000000000REP       Governor LAVACA COUNTYWIDE                              OVER VOTES                            Precinct 1                                             01 
01070050002000000000000000000000000000000000000REP       Governor LAVACA COUNTYWIDE                              OVER VOTES                            Precinct 2                                             01 
01070050003000000000000000000000000000000000000REP       Governor LAVACA COUNTYWIDE                              OVER VOTES                            Precinct 7                                             01 
01070050004000000000000000000000000000000000000REP       Governor LAVACA COUNTYWIDE                              OVER VOTES                            Precinct 8                                             01 
01070050005000000000000000000000000000000000000REP       Governor LAVACA COUNTYWIDE                              OVER VOTES                            Precinct 9                                             01 
01070050006000000000000000000000000000000000000REP       Governor LAVACA COUNTYWIDE                              OVER VOTES                            Precinct 11                                            01 
01070050007000000000000000000000000000000000000REP       Governor LAVACA COUNTYWIDE                              OVER VOTES                            Precinct 12                                            01 
01070050008000000000000000000000000000000000000REP       Governor LAVACA COUNTYWIDE                              OVER VOTES                            Precinct 15                                            01 
01070050009000000000000000000000000000000000000REP       Governor LAVACA COUNTYWIDE                              OVER VOTES                            Precinct 16                                            01 
01070050010000000000000000000000000000000000000REP       Governor LAVACA COUNTYWIDE                              OVER VOTES                            Precinct 17                                            01 
01070050011000000000000000000000000000000000000REP       Governor LAVACA COUNTYWIDE                              OVER VOTES                            Precinct 19                                            01 
01070050012000000000000000000000000000000000000REP       Governor LAVACA COUNTYWIDE                              OVER VOTES                            Precinct 20                                            01 
01070050013000000000000000000000000000000000000REP       Governor LAVACA COUNTYWIDE                              OVER VOTES                            Precinct 23                                            01 
01070050014000000000000000000000000000000000000REP       Governor LAVACA COUNTYWIDE                              OVER VOTES                            Precinct 26                                            01 
01070050015000000000000000000000000000000000000REP       Governor LAVACA COUNTYWIDE                              OVER VOTES                            Precinct 27                                            01 
01070050016000000000000000000000000000000000000REP       Governor LAVACA COUNTYWIDE                              OVER VOTES                            Precinct 29                                            01 
01070050017000000000000000000000000000000000000REP       Governor LAVACA COUNTYWIDE                              OVER VOTES                            Precinct 30                                            01 
01070050018000000000000000000000000000000000000REP       Governor LAVACA COUNTYWIDE                              OVER VOTES                            Precinct 31                                            01 
01070050019000000000000000000000000000000000000REP       Governor LAVACA COUNTYWIDE                              OVER VOTES                            Precinct 32                                            01 
01070060001000001000001000000000000000000000000REP       Governor LAVACA COUNTYWIDE                              UNDER VOTES                           Precinct 1                                             01 
01070060002000006000001000000000003000002000000REP       Governor LAVACA COUNTYWIDE                              UNDER VOTES                           Precinct 2                                             01 
01070060003000000000000000000000000000000000000REP       Governor LAVACA COUNTYWIDE                              UNDER VOTES                           Precinct 7                                             01 
01070060004000003000001000001000001000000000000REP       Governor LAVACA COUNTYWIDE                              UNDER VOTES                           Precinct 8                                             01 
01070060005000005000000000000000002000003000000REP       Governor LAVACA COUNTYWIDE                              UNDER VOTES                           Precinct 9                                             01 
01070060006000000000000000000000000000000000000REP       Governor LAVACA COUNTYWIDE                              UNDER VOTES                           Precinct 11                                            01 
01070060007000000000000000000000000000000000000REP       Governor LAVACA COUNTYWIDE                              UNDER VOTES                           Precinct 12                                            01 
01070060008000000000000000000000000000000000000REP       Governor LAVACA COUNTYWIDE                              UNDER VOTES                           Precinct 15                                            01 
01070060009000011000000000000000009000002000000REP       Governor LAVACA COUNTYWIDE                              UNDER VOTES                           Precinct 16                                            01 
01070060010000010000001000000000006000003000000REP       Governor LAVACA COUNTYWIDE                              UNDER VOTES                           Precinct 17                                            01 
01070060011000000000000000000000000000000000000REP       Governor LAVACA COUNTYWIDE                              UNDER VOTES                           Precinct 19                                            01 
01070060012000000000000000000000000000000000000REP       Governor LAVACA COUNTYWIDE                              UNDER VOTES                           Precinct 20                                            01 
01070060013000009000000000000000006000003000000REP       Governor LAVACA COUNTYWIDE                              UNDER VOTES                           Precinct 23                                            01 
01070060014000000000000000000000000000000000000REP       Governor LAVACA COUNTYWIDE                              UNDER VOTES                           Precinct 26                                            01 
01070060015000000000000000000000000000000000000REP       Governor LAVACA COUNTYWIDE                              UNDER VOTES                           Precinct 27                                            01 
01070060016000002000000000000000002000000000000REP       Governor LAVACA COUNTYWIDE                              UNDER VOTES                           Precinct 29                                            01 
01070060017000032000002000001000025000004000000REP       Governor LAVACA COUNTYWIDE                              UNDER VOTES                           Precinct 30                                            01 
01070060018000005000003000000000002000000000000REP       Governor LAVACA COUNTYWIDE                              UNDER VOTES                           Precinct 31                                            01 
01070060019000000000000000000000000000000000000REP       Governor LAVACA COUNTYWIDE                              UNDER VOTES                           Precinct 32                                            01 
01080010001000034000011000007000009000007000000REP       Lieutenant Governor LAVACA COUNTYWIDE                   Jerry Patterson                       Precinct 1                                             01 
01080010002000031000008000007000003000013000000REP       Lieutenant Governor LAVACA COUNTYWIDE                   Jerry Patterson                       Precinct 2                                             01 
01080010003000010000001000006000003000000000000REP       Lieutenant Governor LAVACA COUNTYWIDE                   Jerry Patterson                       Precinct 7                                             01 
01080010004000023000003000003000011000006000000REP       Lieutenant Governor LAVACA COUNTYWIDE                   Jerry Patterson                       Precinct 8                                             01 
01080010005000028000000000001000018000009000000REP       Lieutenant Governor LAVACA COUNTYWIDE                   Jerry Patterson                       Precinct 9                                             01 
01080010006000006000002000000000001000003000000REP       Lieutenant Governor LAVACA COUNTYWIDE                   Jerry Patterson                       Precinct 11                                            01 
01080010007000004000001000000000001000002000000REP       Lieutenant Governor LAVACA COUNTYWIDE                   Jerry Patterson                       Precinct 12                                            01 
01080010008000016000001000004000007000004000000REP       Lieutenant Governor LAVACA COUNTYWIDE                   Jerry Patterson                       Precinct 15                                            01 
01080010009000014000003000000000006000005000000REP       Lieutenant Governor LAVACA COUNTYWIDE                   Jerry Patterson                       Precinct 16                                            01 
01080010010000028000006000001000014000007000000REP       Lieutenant Governor LAVACA COUNTYWIDE                   Jerry Patterson                       Precinct 17                                            01 
01080010011000018000003000004000009000002000000REP       Lieutenant Governor LAVACA COUNTYWIDE                   Jerry Patterson                       Precinct 19                                            01 
01080010012000005000002000000000002000001000000REP       Lieutenant Governor LAVACA COUNTYWIDE                   Jerry Patterson                       Precinct 20                                            01 
01080010013000036000003000001000021000011000000REP       Lieutenant Governor LAVACA COUNTYWIDE                   Jerry Patterson                       Precinct 23                                            01 
01080010014000001000000000000000001000000000000REP       Lieutenant Governor LAVACA COUNTYWIDE                   Jerry Patterson                       Precinct 26                                            01 
01080010015000008000003000001000004000000000000REP       Lieutenant Governor LAVACA COUNTYWIDE                   Jerry Patterson                       Precinct 27                                            01 
01080010016000023000004000002000008000009000000REP       Lieutenant Governor LAVACA COUNTYWIDE                   Jerry Patterson                       Precinct 29                                            01 
01080010017000043000004000002000030000007000000REP       Lieutenant Governor LAVACA COUNTYWIDE                   Jerry Patterson                       Precinct 30                                            01 
01080010018000043000017000008000013000005000000REP       Lieutenant Governor LAVACA COUNTYWIDE                   Jerry Patterson                       Precinct 31                                            01 
01080010019000009000001000001000004000003000000REP       Lieutenant Governor LAVACA COUNTYWIDE                   Jerry Patterson                       Precinct 32                                            01 
01080020001000057000014000006000021000016000000REP       Lieutenant Governor LAVACA COUNTYWIDE                   Dan Patrick                           Precinct 1                                             01 
01080020002000089000028000008000036000017000000REP       Lieutenant Governor LAVACA COUNTYWIDE                   Dan Patrick                           Precinct 2                                             01 
01080020003000019000003000007000004000005000000REP       Lieutenant Governor LAVACA COUNTYWIDE                   Dan Patrick                           Precinct 7                                             01 
01080020004000057000011000010000024000012000000REP       Lieutenant Governor LAVACA COUNTYWIDE                   Dan Patrick                           Precinct 8                                             01 
01080020005000051000006000007000025000013000000REP       Lieutenant Governor LAVACA COUNTYWIDE                   Dan Patrick                           Precinct 9                                             01 
01080020006000024000004000004000006000010000000REP       Lieutenant Governor LAVACA COUNTYWIDE                   Dan Patrick                           Precinct 11                                            01 
01080020007000025000008000002000009000006000000REP       Lieutenant Governor LAVACA COUNTYWIDE                   Dan Patrick                           Precinct 12                                            01 
01080020008000004000001000000000001000002000000REP       Lieutenant Governor LAVACA COUNTYWIDE                   Dan Patrick                           Precinct 15                                            01 
01080020009000040000007000006000020000007000000REP       Lieutenant Governor LAVACA COUNTYWIDE                   Dan Patrick                           Precinct 16                                            01 
01080020010000031000003000003000017000008000000REP       Lieutenant Governor LAVACA COUNTYWIDE                   Dan Patrick                           Precinct 17                                            01 
01080020011000023000005000003000013000002000000REP       Lieutenant Governor LAVACA COUNTYWIDE                   Dan Patrick                           Precinct 19                                            01 
01080020012000007000000000000000006000001000000REP       Lieutenant Governor LAVACA COUNTYWIDE                   Dan Patrick                           Precinct 20                                            01 
01080020013000054000008000000000033000013000000REP       Lieutenant Governor LAVACA COUNTYWIDE                   Dan Patrick                           Precinct 23                                            01 
01080020014000012000003000001000005000003000000REP       Lieutenant Governor LAVACA COUNTYWIDE                   Dan Patrick                           Precinct 26                                            01 
01080020015000011000003000003000004000001000000REP       Lieutenant Governor LAVACA COUNTYWIDE                   Dan Patrick                           Precinct 27                                            01 
01080020016000063000016000003000030000014000000REP       Lieutenant Governor LAVACA COUNTYWIDE                   Dan Patrick                           Precinct 29                                            01 
01080020017000101000017000012000054000018000000REP       Lieutenant Governor LAVACA COUNTYWIDE                   Dan Patrick                           Precinct 30                                            01 
