01010010001001012000000000000000000000000000000          REGISTERED VOTERS - TOTAL                               REGISTERED VOTERS - TOTAL             Precinct 1                                             00 
01010010002001445000000000000000000000000000000          REGISTERED VOTERS - TOTAL                               REGISTERED VOTERS - TOTAL             Precinct 2                                             00 
01010010003000222000000000000000000000000000000          REGISTERED VOTERS - TOTAL                               REGISTERED VOTERS - TOTAL             Precinct 7                                             00 
01010010004000700000000000000000000000000000000          REGISTERED VOTERS - TOTAL                               REGISTERED VOTERS - TOTAL             Precinct 8                                             00 
01010010005001298000000000000000000000000000000          REGISTERED VOTERS - TOTAL                               REGISTERED VOTERS - TOTAL             Precinct 9                                             00 
01010010006000311000000000000000000000000000000          REGISTERED VOTERS - TOTAL                               REGISTERED VOTERS - TOTAL             Precinct 11                                            00 
01010010007000341000000000000000000000000000000          REGISTERED VOTERS - TOTAL                               REGISTERED VOTERS - TOTAL             Precinct 12                                            00 
01010010008000174000000000000000000000000000000          REGISTERED VOTERS - TOTAL                               REGISTERED VOTERS - TOTAL             Precinct 15                                            00 
01010010009000452000000000000000000000000000000          REGISTERED VOTERS - TOTAL                               REGISTERED VOTERS - TOTAL             Precinct 16                                            00 
01010010010000271000000000000000000000000000000          REGISTERED VOTERS - TOTAL                               REGISTERED VOTERS - TOTAL             Precinct 17                                            00 
01010010011000367000000000000000000000000000000          REGISTERED VOTERS - TOTAL                               REGISTERED VOTERS - TOTAL             Precinct 19                                            00 
01010010012000122000000000000000000000000000000          REGISTERED VOTERS - TOTAL                               REGISTERED VOTERS - TOTAL             Precinct 20                                            00 
01010010013001332000000000000000000000000000000          REGISTERED VOTERS - TOTAL                               REGISTERED VOTERS - TOTAL             Precinct 23                                            00 
01010010014000379000000000000000000000000000000          REGISTERED VOTERS - TOTAL                               REGISTERED VOTERS - TOTAL             Precinct 26                                            00 
01010010015000204000000000000000000000000000000          REGISTERED VOTERS - TOTAL                               REGISTERED VOTERS - TOTAL             Precinct 27                                            00 
01010010016001217000000000000000000000000000000          REGISTERED VOTERS - TOTAL                               REGISTERED VOTERS - TOTAL             Precinct 29                                            00 
01010010017001804000000000000000000000000000000          REGISTERED VOTERS - TOTAL                               REGISTERED VOTERS - TOTAL             Precinct 30                                            00 
01010010018001129000000000000000000000000000000          REGISTERED VOTERS - TOTAL                               REGISTERED VOTERS - TOTAL             Precinct 31                                            00 
01010010019000347000000000000000000000000000000          REGISTERED VOTERS - TOTAL                               REGISTERED VOTERS - TOTAL             Precinct 32                                            00 
01020010001000430000128000096000120000086000000          BALLOTS CAST - TOTAL                                    BALLOTS CAST - TOTAL                  Precinct 1                                             00 
01020010002000542000164000107000169000102000000          BALLOTS CAST - TOTAL                                    BALLOTS CAST - TOTAL                  Precinct 2                                             00 
01020010003000101000013000046000026000016000000          BALLOTS CAST - TOTAL                                    BALLOTS CAST - TOTAL                  Precinct 7                                             00 
01020010004000316000058000058000117000083000000          BALLOTS CAST - TOTAL                                    BALLOTS CAST - TOTAL                  Precinct 8                                             00 
01020010005000452000074000036000191000151000000          BALLOTS CAST - TOTAL                                    BALLOTS CAST - TOTAL                  Precinct 9                                             00 
01020010006000118000023000010000045000040000000          BALLOTS CAST - TOTAL                                    BALLOTS CAST - TOTAL                  Precinct 11                                            00 
01020010007000132000035000018000050000029000000          BALLOTS CAST - TOTAL                                    BALLOTS CAST - TOTAL                  Precinct 12                                            00 
01020010008000083000015000013000028000027000000          BALLOTS CAST - TOTAL                                    BALLOTS CAST - TOTAL                  Precinct 15                                            00 
01020010009000194000033000026000082000053000000          BALLOTS CAST - TOTAL                                    BALLOTS CAST - TOTAL                  Precinct 16                                            00 
01020010010000148000031000027000055000035000000          BALLOTS CAST - TOTAL                                    BALLOTS CAST - TOTAL                  Precinct 17                                            00 
01020010011000146000042000049000036000019000000          BALLOTS CAST - TOTAL                                    BALLOTS CAST - TOTAL                  Precinct 19                                            00 
01020010012000060000024000016000012000008000000          BALLOTS CAST - TOTAL                                    BALLOTS CAST - TOTAL                  Precinct 20                                            00 
01020010013000502000084000045000261000112000000          BALLOTS CAST - TOTAL                                    BALLOTS CAST - TOTAL                  Precinct 23                                            00 
01020010014000062000009000004000019000030000000          BALLOTS CAST - TOTAL                                    BALLOTS CAST - TOTAL                  Precinct 26                                            00 
01020010015000098000019000022000030000027000000          BALLOTS CAST - TOTAL                                    BALLOTS CAST - TOTAL                  Precinct 27                                            00 
01020010016000444000083000046000192000123000000          BALLOTS CAST - TOTAL                                    BALLOTS CAST - TOTAL                  Precinct 29                                            00 
01020010017000609000093000053000341000122000000          BALLOTS CAST - TOTAL                                    BALLOTS CAST - TOTAL                  Precinct 30                                            00 
01020010018000497000166000118000099000114000000          BALLOTS CAST - TOTAL                                    BALLOTS CAST - TOTAL                  Precinct 31                                            00 
01020010019000126000018000012000050000046000000          BALLOTS CAST - TOTAL                                    BALLOTS CAST - TOTAL                  Precinct 32                                            00 
01030010001000196000049000046000058000043000000REP       STRAIGHT PARTY                                          REPUBLICAN PARTY                      Precinct 1                                             01 
01030010002000217000066000041000061000049000000REP       STRAIGHT PARTY                                          REPUBLICAN PARTY                      Precinct 2                                             01 
01030010003000049000005000023000012000009000000REP       STRAIGHT PARTY                                          REPUBLICAN PARTY                      Precinct 7                                             01 
01030010004000173000033000030000064000046000000REP       STRAIGHT PARTY                                          REPUBLICAN PARTY                      Precinct 8                                             01 
01030010005000232000046000019000090000077000000REP       STRAIGHT PARTY                                          REPUBLICAN PARTY                      Precinct 9                                             01 
01030010006000050000012000004000021000013000000REP       STRAIGHT PARTY                                          REPUBLICAN PARTY                      Precinct 11                                            01 
01030010007000047000013000005000010000019000000REP       STRAIGHT PARTY                                          REPUBLICAN PARTY                      Precinct 12                                            01 
01030010008000023000002000002000009000010000000REP       STRAIGHT PARTY                                          REPUBLICAN PARTY                      Precinct 15                                            01 
01030010009000117000023000019000044000031000000REP       STRAIGHT PARTY                                          REPUBLICAN PARTY                      Precinct 16                                            01 
01030010010000075000017000016000025000017000000REP       STRAIGHT PARTY                                          REPUBLICAN PARTY                      Precinct 17                                            01 
01030010011000080000024000030000015000011000000REP       STRAIGHT PARTY                                          REPUBLICAN PARTY                      Precinct 19                                            01 
01030010012000026000011000009000003000003000000REP       STRAIGHT PARTY                                          REPUBLICAN PARTY                      Precinct 20                                            01 
01030010013000239000047000024000109000059000000REP       STRAIGHT PARTY                                          REPUBLICAN PARTY                      Precinct 23                                            01 
01030010014000032000003000000000009000020000000REP       STRAIGHT PARTY                                          REPUBLICAN PARTY                      Precinct 26                                            01 
01030010015000057000011000011000021000014000000REP       STRAIGHT PARTY                                          REPUBLICAN PARTY                      Precinct 27                                            01 
01030010016000189000039000031000073000046000000REP       STRAIGHT PARTY                                          REPUBLICAN PARTY                      Precinct 29                                            01 
01030010017000307000051000035000156000065000000REP       STRAIGHT PARTY                                          REPUBLICAN PARTY                      Precinct 30                                            01 
01030010018000217000080000052000043000042000000REP       STRAIGHT PARTY                                          REPUBLICAN PARTY                      Precinct 31                                            01 
01030010019000077000016000005000029000027000000REP       STRAIGHT PARTY                                          REPUBLICAN PARTY                      Precinct 32                                            01 
01030020001000027000014000005000004000004000000DEM       STRAIGHT PARTY                                          DEMOCRATIC PARTY                      Precinct 1                                             01 
01030020002000048000021000004000015000008000000DEM       STRAIGHT PARTY                                          DEMOCRATIC PARTY                      Precinct 2                                             01 
01030020003000009000003000001000004000001000000DEM       STRAIGHT PARTY                                          DEMOCRATIC PARTY                      Precinct 7                                             01 
01030020004000023000005000000000013000005000000DEM       STRAIGHT PARTY                                          DEMOCRATIC PARTY                      Precinct 8                                             01 
01030020005000035000008000004000015000008000000DEM       STRAIGHT PARTY                                          DEMOCRATIC PARTY                      Precinct 9                                             01 
01030020006000011000003000000000003000005000000DEM       STRAIGHT PARTY                                          DEMOCRATIC PARTY                      Precinct 11                                            01 
01030020007000013000005000000000008000000000000DEM       STRAIGHT PARTY                                          DEMOCRATIC PARTY                      Precinct 12                                            01 
01030020008000008000004000001000002000001000000DEM       STRAIGHT PARTY                                          DEMOCRATIC PARTY                      Precinct 15                                            01 
01030020009000007000002000000000003000002000000DEM       STRAIGHT PARTY                                          DEMOCRATIC PARTY                      Precinct 16                                            01 
01030020010000007000003000000000000000004000000DEM       STRAIGHT PARTY                                          DEMOCRATIC PARTY                      Precinct 17                                            01 
01030020011000002000000000000000001000001000000DEM       STRAIGHT PARTY                                          DEMOCRATIC PARTY                      Precinct 19                                            01 
01030020012000009000004000003000002000000000000DEM       STRAIGHT PARTY                                          DEMOCRATIC PARTY                      Precinct 20                                            01 
01030020013000039000007000002000024000006000000DEM       STRAIGHT PARTY                                          DEMOCRATIC PARTY                      Precinct 23                                            01 
01030020014000010000000000003000002000005000000DEM       STRAIGHT PARTY                                          DEMOCRATIC PARTY                      Precinct 26                                            01 
01030020015000006000001000002000002000001000000DEM       STRAIGHT PARTY                                          DEMOCRATIC PARTY                      Precinct 27                                            01 
01030020016000035000013000001000017000004000000DEM       STRAIGHT PARTY                                          DEMOCRATIC PARTY                      Precinct 29                                            01 
01030020017000047000009000003000029000006000000DEM       STRAIGHT PARTY                                          DEMOCRATIC PARTY                      Precinct 30                                            01 
01030020018000029000010000004000008000007000000DEM       STRAIGHT PARTY                                          DEMOCRATIC PARTY                      Precinct 31                                            01 
01030020019000006000000000000000004000002000000DEM       STRAIGHT PARTY                                          DEMOCRATIC PARTY                      Precinct 32                                            01 
01030030001000002000002000000000000000000000000LIB       STRAIGHT PARTY                                          LIBERTARIAN PARTY                     Precinct 1                                             01 
01030030002000002000001000000000001000000000000LIB       STRAIGHT PARTY                                          LIBERTARIAN PARTY                     Precinct 2                                             01 
01030030003000000000000000000000000000000000000LIB       STRAIGHT PARTY                                          LIBERTARIAN PARTY                     Precinct 7                                             01 
01030030004000000000000000000000000000000000000LIB       STRAIGHT PARTY                                          LIBERTARIAN PARTY                     Precinct 8                                             01 
01030030005000000000000000000000000000000000000LIB       STRAIGHT PARTY                                          LIBERTARIAN PARTY                     Precinct 9                                             01 
01030030006000000000000000000000000000000000000LIB       STRAIGHT PARTY                                          LIBERTARIAN PARTY                     Precinct 11                                            01 
01030030007000000000000000000000000000000000000LIB       STRAIGHT PARTY                                          LIBERTARIAN PARTY                     Precinct 12                                            01 
01030030008000000000000000000000000000000000000LIB       STRAIGHT PARTY                                          LIBERTARIAN PARTY                     Precinct 15                                            01 
01030030009000001000000000000000000000001000000LIB       STRAIGHT PARTY                                          LIBERTARIAN PARTY                     Precinct 16                                            01 
01030030010000000000000000000000000000000000000LIB       STRAIGHT PARTY                                          LIBERTARIAN PARTY                     Precinct 17                                            01 
01030030011000000000000000000000000000000000000LIB       STRAIGHT PARTY                                          LIBERTARIAN PARTY                     Precinct 19                                            01 
01030030012000000000000000000000000000000000000LIB       STRAIGHT PARTY                                          LIBERTARIAN PARTY                     Precinct 20                                            01 
01030030013000001000000000000000001000000000000LIB       STRAIGHT PARTY                                          LIBERTARIAN PARTY                     Precinct 23                                            01 
01030030014000000000000000000000000000000000000LIB       STRAIGHT PARTY                                          LIBERTARIAN PARTY                     Precinct 26                                            01 
01030030015000000000000000000000000000000000000LIB       STRAIGHT PARTY                                          LIBERTARIAN PARTY                     Precinct 27                                            01 
01030030016000000000000000000000000000000000000LIB       STRAIGHT PARTY                                          LIBERTARIAN PARTY                     Precinct 29                                            01 
01030030017000000000000000000000000000000000000LIB       STRAIGHT PARTY                                          LIBERTARIAN PARTY                     Precinct 30                                            01 
01030030018000001000000000000000000000001000000LIB       STRAIGHT PARTY                                          LIBERTARIAN PARTY                     Precinct 31                                            01 
01030030019000000000000000000000000000000000000LIB       STRAIGHT PARTY                                          LIBERTARIAN PARTY                     Precinct 32                                            01 
01030040001000000000000000000000000000000000000GRN       STRAIGHT PARTY                                          GREEN PARTY                           Precinct 1                                             01 
01030040002000001000000000000000001000000000000GRN       STRAIGHT PARTY                                          GREEN PARTY                           Precinct 2                                             01 
01030040003000000000000000000000000000000000000GRN       STRAIGHT PARTY                                          GREEN PARTY                           Precinct 7                                             01 
01030040004000000000000000000000000000000000000GRN       STRAIGHT PARTY                                          GREEN PARTY                           Precinct 8                                             01 
01030040005000001000000000000000000000001000000GRN       STRAIGHT PARTY                                          GREEN PARTY                           Precinct 9                                             01 
01030040006000000000000000000000000000000000000GRN       STRAIGHT PARTY                                          GREEN PARTY                           Precinct 11                                            01 
01030040007000000000000000000000000000000000000GRN       STRAIGHT PARTY                                          GREEN PARTY                           Precinct 12                                            01 
01030040008000000000000000000000000000000000000GRN       STRAIGHT PARTY                                          GREEN PARTY                           Precinct 15                                            01 
01030040009000000000000000000000000000000000000GRN       STRAIGHT PARTY                                          GREEN PARTY                           Precinct 16                                            01 
01030040010000000000000000000000000000000000000GRN       STRAIGHT PARTY                                          GREEN PARTY                           Precinct 17                                            01 
01030040011000000000000000000000000000000000000GRN       STRAIGHT PARTY                                          GREEN PARTY                           Precinct 19                                            01 
01030040012000000000000000000000000000000000000GRN       STRAIGHT PARTY                                          GREEN PARTY                           Precinct 20                                            01 
01030040013000000000000000000000000000000000000GRN       STRAIGHT PARTY                                          GREEN PARTY                           Precinct 23                                            01 
01030040014000000000000000000000000000000000000GRN       STRAIGHT PARTY                                          GREEN PARTY                           Precinct 26                                            01 
01030040015000000000000000000000000000000000000GRN       STRAIGHT PARTY                                          GREEN PARTY                           Precinct 27                                            01 
01030040016000000000000000000000000000000000000GRN       STRAIGHT PARTY                                          GREEN PARTY                           Precinct 29                                            01 
01030040017000000000000000000000000000000000000GRN       STRAIGHT PARTY                                          GREEN PARTY                           Precinct 30                                            01 
01030040018000000000000000000000000000000000000GRN       STRAIGHT PARTY                                          GREEN PARTY                           Precinct 31                                            01 
01030040019000000000000000000000000000000000000GRN       STRAIGHT PARTY                                          GREEN PARTY                           Precinct 32                                            01 
01030050001000000000000000000000000000000000000          STRAIGHT PARTY                                          OVER VOTES                            Precinct 1                                             01 
01030050002000000000000000000000000000000000000          STRAIGHT PARTY                                          OVER VOTES                            Precinct 2                                             01 
01030050003000000000000000000000000000000000000          STRAIGHT PARTY                                          OVER VOTES                            Precinct 7                                             01 
01030050004000000000000000000000000000000000000          STRAIGHT PARTY                                          OVER VOTES                            Precinct 8                                             01 
01030050005000000000000000000000000000000000000          STRAIGHT PARTY                                          OVER VOTES                            Precinct 9                                             01 
01030050006000000000000000000000000000000000000          STRAIGHT PARTY                                          OVER VOTES                            Precinct 11                                            01 
01030050007000000000000000000000000000000000000          STRAIGHT PARTY                                          OVER VOTES                            Precinct 12                                            01 
01030050008000000000000000000000000000000000000          STRAIGHT PARTY                                          OVER VOTES                            Precinct 15                                            01 
01030050009000000000000000000000000000000000000          STRAIGHT PARTY                                          OVER VOTES                            Precinct 16                                            01 
01030050010000000000000000000000000000000000000          STRAIGHT PARTY                                          OVER VOTES                            Precinct 17                                            01 
01030050011000000000000000000000000000000000000          STRAIGHT PARTY                                          OVER VOTES                            Precinct 19                                            01 
01030050012000000000000000000000000000000000000          STRAIGHT PARTY                                          OVER VOTES                            Precinct 20                                            01 
01030050013000001000001000000000000000000000000          STRAIGHT PARTY                                          OVER VOTES                            Precinct 23                                            01 
01030050014000000000000000000000000000000000000          STRAIGHT PARTY                                          OVER VOTES                            Precinct 26                                            01 
01030050015000000000000000000000000000000000000          STRAIGHT PARTY                                          OVER VOTES                            Precinct 27                                            01 
01030050016000000000000000000000000000000000000          STRAIGHT PARTY                                          OVER VOTES                            Precinct 29                                            01 
01030050017000000000000000000000000000000000000          STRAIGHT PARTY                                          OVER VOTES                            Precinct 30                                            01 
01030050018000000000000000000000000000000000000          STRAIGHT PARTY                                          OVER VOTES                            Precinct 31                                            01 
01030050019000000000000000000000000000000000000          STRAIGHT PARTY                                          OVER VOTES                            Precinct 32                                            01 
01030060001000205000063000045000058000039000000          STRAIGHT PARTY                                          UNDER VOTES                           Precinct 1                                             01 
01030060002000274000076000062000091000045000000          STRAIGHT PARTY                                          UNDER VOTES                           Precinct 2                                             01 
01030060003000042000005000022000009000006000000          STRAIGHT PARTY                                          UNDER VOTES                           Precinct 7                                             01 
01030060004000120000020000028000040000032000000          STRAIGHT PARTY                                          UNDER VOTES                           Precinct 8                                             01 
01030060005000184000020000013000086000065000000          STRAIGHT PARTY                                          UNDER VOTES                           Precinct 9                                             01 
01030060006000057000008000006000021000022000000          STRAIGHT PARTY                                          UNDER VOTES                           Precinct 11                                            01 
01030060007000072000017000013000032000010000000          STRAIGHT PARTY                                          UNDER VOTES                           Precinct 12                                            01 
01030060008000052000009000010000017000016000000          STRAIGHT PARTY                                          UNDER VOTES                           Precinct 15                                            01 
01030060009000069000008000007000035000019000000          STRAIGHT PARTY                                          UNDER VOTES                           Precinct 16                                            01 
01030060010000066000011000011000030000014000000          STRAIGHT PARTY                                          UNDER VOTES                           Precinct 17                                            01 
01030060011000064000018000019000020000007000000          STRAIGHT PARTY                                          UNDER VOTES                           Precinct 19                                            01 
01030060012000025000009000004000007000005000000          STRAIGHT PARTY                                          UNDER VOTES                           Precinct 20                                            01 
01030060013000222000029000019000127000047000000          STRAIGHT PARTY                                          UNDER VOTES                           Precinct 23                                            01 
01030060014000020000006000001000008000005000000          STRAIGHT PARTY                                          UNDER VOTES                           Precinct 26                                            01 
01030060015000035000007000009000007000012000000          STRAIGHT PARTY                                          UNDER VOTES                           Precinct 27                                            01 
01030060016000220000031000014000102000073000000          STRAIGHT PARTY                                          UNDER VOTES                           Precinct 29                                            01 
01030060017000255000033000015000156000051000000          STRAIGHT PARTY                                          UNDER VOTES                           Precinct 30                                            01 
01030060018000249000076000062000047000064000000          STRAIGHT PARTY                                          UNDER VOTES                           Precinct 31                                            01 
01030060019000043000002000007000017000017000000          STRAIGHT PARTY                                          UNDER VOTES                           Precinct 32                                            01 
01040010001000375000099000089000106000081000000REP       United States Senator                                   John Cornyn                           Precinct 1                                             01 
01040010002000429000123000089000128000089000000REP       United States Senator                                   John Cornyn                           Precinct 2                                             01 
01040010003000083000008000041000022000012000000REP       United States Senator                                   John Cornyn                           Precinct 7                                             01 
01040010004000272000049000053000096000074000000REP       United States Senator                                   John Cornyn                           Precinct 8                                             01 
01040010005000387000065000027000162000133000000REP       United States Senator                                   John Cornyn                           Precinct 9                                             01 
01040010006000093000016000009000037000031000000REP       United States Senator                                   John Cornyn                           Precinct 11                                            01 
01040010007000109000026000016000038000029000000REP       United States Senator                                   John Cornyn                           Precinct 12                                            01 
01040010008000059000008000008000021000022000000REP       United States Senator                                   John Cornyn                           Precinct 15                                            01 
01040010009000168000030000023000069000046000000REP       United States Senator                                   John Cornyn                           Precinct 16                                            01 
01040010010000130000027000025000048000030000000REP       United States Senator                                   John Cornyn                           Precinct 17                                            01 
01040010011000131000037000046000031000017000000REP       United States Senator                                   John Cornyn                           Precinct 19                                            01 
01040010012000038000016000012000005000005000000REP       United States Senator                                   John Cornyn                           Precinct 20                                            01 
01040010013000421000070000043000210000098000000REP       United States Senator                                   John Cornyn                           Precinct 23                                            01 
01040010014000046000008000001000014000023000000REP       United States Senator                                   John Cornyn                           Precinct 26                                            01 
01040010015000083000017000017000027000022000000REP       United States Senator                                   John Cornyn                           Precinct 27                                            01 
01040010016000368000065000041000157000105000000REP       United States Senator                                   John Cornyn                           Precinct 29                                            01 
01040010017000515000078000049000282000106000000REP       United States Senator                                   John Cornyn                           Precinct 30                                            01 
01040010018000419000145000102000082000090000000REP       United States Senator                                   John Cornyn                           Precinct 31                                            01 
01040010019000116000018000012000043000043000000REP       United States Senator                                   John Cornyn                           Precinct 32                                            01 
01040020001000036000019000005000008000004000000DEM       United States Senator                                   David M. Alameel                      Precinct 1                                             01 
01040020002000080000032000010000028000010000000DEM       United States Senator                                   David M. Alameel                      Precinct 2                                             01 
01040020003000012000004000003000004000001000000DEM       United States Senator                                   David M. Alameel                      Precinct 7                                             01 
01040020004000031000007000003000015000006000000DEM       United States Senator                                   David M. Alameel                      Precinct 8                                             01 
01040020005000053000009000007000024000013000000DEM       United States Senator                                   David M. Alameel                      Precinct 9                                             01 
01040020006000014000004000000000005000005000000DEM       United States Senator                                   David M. Alameel                      Precinct 11                                            01 
01040020007000016000007000000000009000000000000DEM       United States Senator                                   David M. Alameel                      Precinct 12                                            01 
01040020008000017000006000003000004000004000000DEM       United States Senator                                   David M. Alameel                      Precinct 15                                            01 
01040020009000018000002000003000008000005000000DEM       United States Senator                                   David M. Alameel                      Precinct 16                                            01 
01040020010000012000003000001000003000005000000DEM       United States Senator                                   David M. Alameel                      Precinct 17                                            01 
01040020011000006000002000001000002000001000000DEM       United States Senator                                   David M. Alameel                      Precinct 19                                            01 
01040020012000018000008000003000006000001000000DEM       United States Senator                                   David M. Alameel                      Precinct 20                                            01 
01040020013000063000011000002000040000010000000DEM       United States Senator                                   David M. Alameel                      Precinct 23                                            01 
01040020014000015000001000003000005000006000000DEM       United States Senator                                   David M. Alameel                      Precinct 26                                            01 
01040020015000008000001000003000002000002000000DEM       United States Senator                                   David M. Alameel                      Precinct 27                                            01 
01040020016000058000017000002000027000012000000DEM       United States Senator                                   David M. Alameel                      Precinct 29                                            01 
01040020017000070000015000004000043000008000000DEM       United States Senator                                   David M. Alameel                      Precinct 30                                            01 
01040020018000061000017000011000015000018000000DEM       United States Senator                                   David M. Alameel                      Precinct 31                                            01 
01040020019000007000000000000000005000002000000DEM       United States Senator                                   David M. Alameel                      Precinct 32                                            01 
01040030001000008000006000000000002000000000000LIB       United States Senator                                   Rebecca Paddock                       Precinct 1                                             01 
01040030002000010000004000003000001000002000000LIB       United States Senator                                   Rebecca Paddock                       Precinct 2                                             01 
01040030003000001000000000000000000000001000000LIB       United States Senator                                   Rebecca Paddock                       Precinct 7                                             01 
01040030004000006000001000000000002000003000000LIB       United States Senator                                   Rebecca Paddock                       Precinct 8                                             01 
01040030005000006000000000001000003000002000000LIB       United States Senator                                   Rebecca Paddock                       Precinct 9                                             01 
01040030006000001000000000000000000000001000000LIB       United States Senator                                   Rebecca Paddock                       Precinct 11                                            01 
01040030007000004000001000001000002000000000000LIB       United States Senator                                   Rebecca Paddock                       Precinct 12                                            01 
01040030008000003000001000002000000000000000000LIB       United States Senator                                   Rebecca Paddock                       Precinct 15                                            01 
01040030009000006000001000000000003000002000000LIB       United States Senator                                   Rebecca Paddock                       Precinct 16                                            01 
01040030010000002000001000000000001000000000000LIB       United States Senator                                   Rebecca Paddock                       Precinct 17                                            01 
01040030011000006000003000000000002000001000000LIB       United States Senator                                   Rebecca Paddock                       Precinct 19                                            01 
01040030012000004000000000001000001000002000000LIB       United States Senator                                   Rebecca Paddock                       Precinct 20                                            01 
01040030013000009000000000000000006000003000000LIB       United States Senator                                   Rebecca Paddock                       Precinct 23                                            01 
01040030014000001000000000000000000000001000000LIB       United States Senator                                   Rebecca Paddock                       Precinct 26                                            01 
01040030015000003000000000001000001000001000000LIB       United States Senator                                   Rebecca Paddock                       Precinct 27                                            01 
01040030016000011000001000003000004000003000000LIB       United States Senator                                   Rebecca Paddock                       Precinct 29                                            01 
01040030017000009000000000000000006000003000000LIB       United States Senator                                   Rebecca Paddock                       Precinct 30                                            01 
01040030018000009000002000002000001000004000000LIB       United States Senator                                   Rebecca Paddock                       Precinct 31                                            01 
01040030019000000000000000000000000000000000000LIB       United States Senator                                   Rebecca Paddock                       Precinct 32                                            01 
01040040001000001000001000000000000000000000000GRN       United States Senator                                   Emily "Spicybrown" Sanchez            Precinct 1                                             01 
01040040002000003000002000000000001000000000000GRN       United States Senator                                   Emily "Spicybrown" Sanchez            Precinct 2                                             01 
01040040003000000000000000000000000000000000000GRN       United States Senator                                   Emily "Spicybrown" Sanchez            Precinct 7                                             01 
01040040004000003000001000000000002000000000000GRN       United States Senator                                   Emily "Spicybrown" Sanchez            Precinct 8                                             01 
01040040005000001000000000000000000000001000000GRN       United States Senator                                   Emily "Spicybrown" Sanchez            Precinct 9                                             01 
01040040006000001000000000000000001000000000000GRN       United States Senator                                   Emily "Spicybrown" Sanchez            Precinct 11                                            01 
01040040007000001000000000001000000000000000000GRN       United States Senator                                   Emily "Spicybrown" Sanchez            Precinct 12                                            01 
01040040008000000000000000000000000000000000000GRN       United States Senator                                   Emily "Spicybrown" Sanchez            Precinct 15                                            01 
01040040009000000000000000000000000000000000000GRN       United States Senator                                   Emily "Spicybrown" Sanchez            Precinct 16                                            01 
01040040010000002000000000000000002000000000000GRN       United States Senator                                   Emily "Spicybrown" Sanchez            Precinct 17                                            01 
01040040011000000000000000000000000000000000000GRN       United States Senator                                   Emily "Spicybrown" Sanchez            Precinct 19                                            01 
01040040012000000000000000000000000000000000000GRN       United States Senator                                   Emily "Spicybrown" Sanchez            Precinct 20                                            01 
01040040013000003000001000000000002000000000000GRN       United States Senator                                   Emily "Spicybrown" Sanchez            Precinct 23                                            01 
01040040014000000000000000000000000000000000000GRN       United States Senator                                   Emily "Spicybrown" Sanchez            Precinct 26                                            01 
01040040015000000000000000000000000000000000000GRN       United States Senator                                   Emily "Spicybrown" Sanchez            Precinct 27                                            01 
01040040016000000000000000000000000000000000000GRN       United States Senator                                   Emily "Spicybrown" Sanchez            Precinct 29                                            01 
01040040017000002000000000000000002000000000000GRN       United States Senator                                   Emily "Spicybrown" Sanchez            Precinct 30                                            01 
01040040018000001000000000000000000000001000000GRN       United States Senator                                   Emily "Spicybrown" Sanchez            Precinct 31                                            01 
01040040019000002000000000000000002000000000000GRN       United States Senator                                   Emily "Spicybrown" Sanchez            Precinct 32                                            01 
01040050001000000000000000000000000000000000000NON       United States Senator                                   WRITE-IN                              Precinct 1                                             01 
01040050002000000000000000000000000000000000000NON       United States Senator                                   WRITE-IN                              Precinct 2                                             01 
01040050003000000000000000000000000000000000000NON       United States Senator                                   WRITE-IN                              Precinct 7                                             01 
01040050004000000000000000000000000000000000000NON       United States Senator                                   WRITE-IN                              Precinct 8                                             01 
01040050005000000000000000000000000000000000000NON       United States Senator                                   WRITE-IN                              Precinct 9                                             01 
01040050006000000000000000000000000000000000000NON       United States Senator                                   WRITE-IN                              Precinct 11                                            01 
01040050007000000000000000000000000000000000000NON       United States Senator                                   WRITE-IN                              Precinct 12                                            01 
01040050008000000000000000000000000000000000000NON       United States Senator                                   WRITE-IN                              Precinct 15                                            01 
01040050009000000000000000000000000000000000000NON       United States Senator                                   WRITE-IN                              Precinct 16                                            01 
01040050010000000000000000000000000000000000000NON       United States Senator                                   WRITE-IN                              Precinct 17                                            01 
01040050011000000000000000000000000000000000000NON       United States Senator                                   WRITE-IN                              Precinct 19                                            01 
01040050012000000000000000000000000000000000000NON       United States Senator                                   WRITE-IN                              Precinct 20                                            01 
01040050013000000000000000000000000000000000000NON       United States Senator                                   WRITE-IN                              Precinct 23                                            01 
01040050014000000000000000000000000000000000000NON       United States Senator                                   WRITE-IN                              Precinct 26                                            01 
01040050015000000000000000000000000000000000000NON       United States Senator                                   WRITE-IN                              Precinct 27                                            01 
01040050016000000000000000000000000000000000000NON       United States Senator                                   WRITE-IN                              Precinct 29                                            01 
01040050017000000000000000000000000000000000000NON       United States Senator                                   WRITE-IN                              Precinct 30                                            01 
01040050018000000000000000000000000000000000000NON       United States Senator                                   WRITE-IN                              Precinct 31                                            01 
01040050019000000000000000000000000000000000000NON       United States Senator                                   WRITE-IN                              Precinct 32                                            01 
01040060001000000000000000000000000000000000000          United States Senator                                   OVER VOTES                            Precinct 1                                             01 
01040060002000001000000000000000001000000000000          United States Senator                                   OVER VOTES                            Precinct 2                                             01 
01040060003000000000000000000000000000000000000          United States Senator                                   OVER VOTES                            Precinct 7                                             01 
01040060004000001000000000000000001000000000000          United States Senator                                   OVER VOTES                            Precinct 8                                             01 
01040060005000000000000000000000000000000000000          United States Senator                                   OVER VOTES                            Precinct 9                                             01 
01040060006000000000000000000000000000000000000          United States Senator                                   OVER VOTES                            Precinct 11                                            01 
01040060007000000000000000000000000000000000000          United States Senator                                   OVER VOTES                            Precinct 12                                            01 
01040060008000000000000000000000000000000000000          United States Senator                                   OVER VOTES                            Precinct 15                                            01 
01040060009000000000000000000000000000000000000          United States Senator                                   OVER VOTES                            Precinct 16                                            01 
01040060010000000000000000000000000000000000000          United States Senator                                   OVER VOTES                            Precinct 17                                            01 
01040060011000000000000000000000000000000000000          United States Senator                                   OVER VOTES                            Precinct 19                                            01 
01040060012000000000000000000000000000000000000          United States Senator                                   OVER VOTES                            Precinct 20                                            01 
01040060013000000000000000000000000000000000000          United States Senator                                   OVER VOTES                            Precinct 23                                            01 
01040060014000000000000000000000000000000000000          United States Senator                                   OVER VOTES                            Precinct 26                                            01 
01040060015000000000000000000000000000000000000          United States Senator                                   OVER VOTES                            Precinct 27                                            01 
01040060016000000000000000000000000000000000000          United States Senator                                   OVER VOTES                            Precinct 29                                            01 
01040060017000000000000000000000000000000000000          United States Senator                                   OVER VOTES                            Precinct 30                                            01 
01040060018000000000000000000000000000000000000          United States Senator                                   OVER VOTES                            Precinct 31                                            01 
01040060019000000000000000000000000000000000000          United States Senator                                   OVER VOTES                            Precinct 32                                            01 
01040070001000009000002000002000004000001000000          United States Senator                                   UNDER VOTES                           Precinct 1                                             01 
01040070002000019000003000005000010000001000000          United States Senator                                   UNDER VOTES                           Precinct 2                                             01 
01040070003000005000001000002000000000002000000          United States Senator                                   UNDER VOTES                           Precinct 7                                             01 
01040070004000003000000000002000001000000000000          United States Senator                                   UNDER VOTES                           Precinct 8                                             01 
01040070005000005000000000001000002000002000000          United States Senator                                   UNDER VOTES                           Precinct 9                                             01 
01040070006000009000003000001000002000003000000          United States Senator                                   UNDER VOTES                           Precinct 11                                            01 
01040070007000002000001000000000001000000000000          United States Senator                                   UNDER VOTES                           Precinct 12                                            01 
01040070008000004000000000000000003000001000000          United States Senator                                   UNDER VOTES                           Precinct 15                                            01 
01040070009000002000000000000000002000000000000          United States Senator                                   UNDER VOTES                           Precinct 16                                            01 
01040070010000002000000000001000001000000000000          United States Senator                                   UNDER VOTES                           Precinct 17                                            01 
01040070011000003000000000002000001000000000000          United States Senator                                   UNDER VOTES                           Precinct 19                                            01 
01040070012000000000000000000000000000000000000          United States Senator                                   UNDER VOTES                           Precinct 20                                            01 
01040070013000006000002000000000003000001000000          United States Senator                                   UNDER VOTES                           Precinct 23                                            01 
01040070014000000000000000000000000000000000000          United States Senator                                   UNDER VOTES                           Precinct 26                                            01 
01040070015000004000001000001000000000002000000          United States Senator                                   UNDER VOTES                           Precinct 27                                            01 
01040070016000007000000000000000004000003000000          United States Senator                                   UNDER VOTES                           Precinct 29                                            01 
01040070017000013000000000000000008000005000000          United States Senator                                   UNDER VOTES                           Precinct 30                                            01 
01040070018000007000002000003000001000001000000          United States Senator                                   UNDER VOTES                           Precinct 31                                            01 
01040070019000001000000000000000000000001000000          United States Senator                                   UNDER VOTES                           Precinct 32                                            01 
01050010001000368000101000084000106000077000000REP       US Representative, District 27                          Blake Farenthold                      Precinct 1                                             01 
01050010002000426000125000087000127000087000000REP       US Representative, District 27                          Blake Farenthold                      Precinct 2                                             01 
01050010003000081000008000041000019000013000000REP       US Representative, District 27                          Blake Farenthold                      Precinct 7                                             01 
01050010004000268000047000054000093000074000000REP       US Representative, District 27                          Blake Farenthold                      Precinct 8                                             01 
01050010005000374000063000029000153000129000000REP       US Representative, District 27                          Blake Farenthold                      Precinct 9                                             01 
01050010006000092000017000009000035000031000000REP       US Representative, District 27                          Blake Farenthold                      Precinct 11                                            01 
01050010007000103000023000017000035000028000000REP       US Representative, District 27                          Blake Farenthold                      Precinct 12                                            01 
01050010008000056000007000008000019000022000000REP       US Representative, District 27                          Blake Farenthold                      Precinct 15                                            01 
01050010009000169000031000023000071000044000000REP       US Representative, District 27                          Blake Farenthold                      Precinct 16                                            01 
01050010010000133000027000025000052000029000000REP       US Representative, District 27                          Blake Farenthold                      Precinct 17                                            01 
01050010011000129000039000043000029000018000000REP       US Representative, District 27                          Blake Farenthold                      Precinct 19                                            01 
01050010012000040000016000012000006000006000000REP       US Representative, District 27                          Blake Farenthold                      Precinct 20                                            01 
01050010013000407000068000041000205000093000000REP       US Representative, District 27                          Blake Farenthold                      Precinct 23                                            01 
01050010014000044000006000001000013000024000000REP       US Representative, District 27                          Blake Farenthold                      Precinct 26                                            01 
01050010015000085000017000017000027000024000000REP       US Representative, District 27                          Blake Farenthold                      Precinct 27                                            01 
01050010016000359000064000043000149000103000000REP       US Representative, District 27                          Blake Farenthold                      Precinct 29                                            01 
01050010017000509000072000049000284000104000000REP       US Representative, District 27                          Blake Farenthold                      Precinct 30                                            01 
01050010018000416000142000101000085000088000000REP       US Representative, District 27                          Blake Farenthold                      Precinct 31                                            01 
01050010019000115000018000012000043000042000000REP       US Representative, District 27                          Blake Farenthold                      Precinct 32                                            01 
01050020001000045000020000008000008000009000000DEM       US Representative, District 27                          Wesley Reed                           Precinct 1                                             01 
01050020002000089000031000014000031000013000000DEM       US Representative, District 27                          Wesley Reed                           Precinct 2                                             01 
01050020003000017000004000004000007000002000000DEM       US Representative, District 27                          Wesley Reed                           Precinct 7                                             01 
01050020004000036000008000002000019000007000000DEM       US Representative, District 27                          Wesley Reed                           Precinct 8                                             01 
01050020005000069000010000006000035000018000000DEM       US Representative, District 27                          Wesley Reed                           Precinct 9                                             01 
01050020006000017000004000001000006000006000000DEM       US Representative, District 27                          Wesley Reed                           Precinct 11                                            01 
01050020007000021000009000000000012000000000000DEM       US Representative, District 27                          Wesley Reed                           Precinct 12                                            01 
01050020008000022000007000003000007000005000000DEM       US Representative, District 27                          Wesley Reed                           Precinct 15                                            01 
01050020009000019000002000003000007000007000000DEM       US Representative, District 27                          Wesley Reed                           Precinct 16                                            01 
01050020010000013000003000002000003000005000000DEM       US Representative, District 27                          Wesley Reed                           Precinct 17                                            01 
01050020011000011000002000004000004000001000000DEM       US Representative, District 27                          Wesley Reed                           Precinct 19                                            01 
01050020012000018000007000003000006000002000000DEM       US Representative, District 27                          Wesley Reed                           Precinct 20                                            01 
01050020013000078000014000004000046000014000000DEM       US Representative, District 27                          Wesley Reed                           Precinct 23                                            01 
01050020014000015000002000003000004000006000000DEM       US Representative, District 27                          Wesley Reed                           Precinct 26                                            01 
01050020015000008000001000003000003000001000000DEM       US Representative, District 27                          Wesley Reed                           Precinct 27                                            01 
01050020016000073000018000002000038000015000000DEM       US Representative, District 27                          Wesley Reed                           Precinct 29                                            01 
01050020017000083000018000004000047000014000000DEM       US Representative, District 27                          Wesley Reed                           Precinct 30                                            01 
01050020018000064000016000011000014000023000000DEM       US Representative, District 27                          Wesley Reed                           Precinct 31                                            01 
01050020019000008000000000000000005000003000000DEM       US Representative, District 27                          Wesley Reed                           Precinct 32                                            01 
01050030001000004000003000000000001000000000000LIB       US Representative, District 27                          Roxanne Simonson                      Precinct 1                                             01 
01050030002000007000002000002000002000001000000LIB       US Representative, District 27                          Roxanne Simonson                      Precinct 2                                             01 
01050030003000001000001000000000000000000000000LIB       US Representative, District 27                          Roxanne Simonson                      Precinct 7                                             01 
01050030004000005000001000001000001000002000000LIB       US Representative, District 27                          Roxanne Simonson                      Precinct 8                                             01 
01050030005000004000001000000000002000001000000LIB       US Representative, District 27                          Roxanne Simonson                      Precinct 9                                             01 
01050030006000001000000000000000001000000000000LIB       US Representative, District 27                          Roxanne Simonson                      Precinct 11                                            01 
01050030007000005000002000001000002000000000000LIB       US Representative, District 27                          Roxanne Simonson                      Precinct 12                                            01 
01050030008000003000001000002000000000000000000LIB       US Representative, District 27                          Roxanne Simonson                      Precinct 15                                            01 
01050030009000003000000000000000002000001000000LIB       US Representative, District 27                          Roxanne Simonson                      Precinct 16                                            01 
01050030010000001000001000000000000000000000000LIB       US Representative, District 27                          Roxanne Simonson                      Precinct 17                                            01 
01050030011000003000000000001000002000000000000LIB       US Representative, District 27                          Roxanne Simonson                      Precinct 19                                            01 
01050030012000001000000000001000000000000000000LIB       US Representative, District 27                          Roxanne Simonson                      Precinct 20                                            01 
01050030013000008000000000000000003000005000000LIB       US Representative, District 27                          Roxanne Simonson                      Precinct 23                                            01 
01050030014000001000000000000000001000000000000LIB       US Representative, District 27                          Roxanne Simonson                      Precinct 26                                            01 
01050030015000000000000000000000000000000000000LIB       US Representative, District 27                          Roxanne Simonson                      Precinct 27                                            01 
01050030016000007000001000001000002000003000000LIB       US Representative, District 27                          Roxanne Simonson                      Precinct 29                                            01 
01050030017000007000001000000000005000001000000LIB       US Representative, District 27                          Roxanne Simonson                      Precinct 30                                            01 
01050030018000006000002000002000000000002000000LIB       US Representative, District 27                          Roxanne Simonson                      Precinct 31                                            01 
01050030019000001000000000000000001000000000000LIB       US Representative, District 27                          Roxanne Simonson                      Precinct 32                                            01 
01050040001000000000000000000000000000000000000          US Representative, District 27                          OVER VOTES                            Precinct 1                                             01 
01050040002000001000000000000000001000000000000          US Representative, District 27                          OVER VOTES                            Precinct 2                                             01 
01050040003000000000000000000000000000000000000          US Representative, District 27                          OVER VOTES                            Precinct 7                                             01 
01050040004000000000000000000000000000000000000          US Representative, District 27                          OVER VOTES                            Precinct 8                                             01 
01050040005000000000000000000000000000000000000          US Representative, District 27                          OVER VOTES                            Precinct 9                                             01 
01050040006000000000000000000000000000000000000          US Representative, District 27                          OVER VOTES                            Precinct 11                                            01 
01050040007000000000000000000000000000000000000          US Representative, District 27                          OVER VOTES                            Precinct 12                                            01 
01050040008000000000000000000000000000000000000          US Representative, District 27                          OVER VOTES                            Precinct 15                                            01 
01050040009000000000000000000000000000000000000          US Representative, District 27                          OVER VOTES                            Precinct 16                                            01 
01050040010000000000000000000000000000000000000          US Representative, District 27                          OVER VOTES                            Precinct 17                                            01 
01050040011000000000000000000000000000000000000          US Representative, District 27                          OVER VOTES                            Precinct 19                                            01 
01050040012000001000001000000000000000000000000          US Representative, District 27                          OVER VOTES                            Precinct 20                                            01 
01050040013000000000000000000000000000000000000          US Representative, District 27                          OVER VOTES                            Precinct 23                                            01 
01050040014000000000000000000000000000000000000          US Representative, District 27                          OVER VOTES                            Precinct 26                                            01 
01050040015000000000000000000000000000000000000          US Representative, District 27                          OVER VOTES                            Precinct 27                                            01 
01050040016000000000000000000000000000000000000          US Representative, District 27                          OVER VOTES                            Precinct 29                                            01 
01050040017000000000000000000000000000000000000          US Representative, District 27                          OVER VOTES                            Precinct 30                                            01 
01050040018000000000000000000000000000000000000          US Representative, District 27                          OVER VOTES                            Precinct 31                                            01 
01050040019000000000000000000000000000000000000          US Representative, District 27                          OVER VOTES                            Precinct 32                                            01 
01050050001000013000004000004000005000000000000          US Representative, District 27                          UNDER VOTES                           Precinct 1                                             01 
01050050002000019000006000004000008000001000000          US Representative, District 27                          UNDER VOTES                           Precinct 2                                             01 
01050050003000002000000000001000000000001000000          US Representative, District 27                          UNDER VOTES                           Precinct 7                                             01 
01050050004000007000002000001000004000000000000          US Representative, District 27                          UNDER VOTES                           Precinct 8                                             01 
01050050005000005000000000001000001000003000000          US Representative, District 27                          UNDER VOTES                           Precinct 9                                             01 
01050050006000008000002000000000003000003000000          US Representative, District 27                          UNDER VOTES                           Precinct 11                                            01 
01050050007000003000001000000000001000001000000          US Representative, District 27                          UNDER VOTES                           Precinct 12                                            01 
01050050008000002000000000000000002000000000000          US Representative, District 27                          UNDER VOTES                           Precinct 15                                            01 
01050050009000003000000000000000002000001000000          US Representative, District 27                          UNDER VOTES                           Precinct 16                                            01 
01050050010000001000000000000000000000001000000          US Representative, District 27                          UNDER VOTES                           Precinct 17                                            01 
01050050011000003000001000001000001000000000000          US Representative, District 27                          UNDER VOTES                           Precinct 19                                            01 
01050050012000000000000000000000000000000000000          US Representative, District 27                          UNDER VOTES                           Precinct 20                                            01 
01050050013000009000002000000000007000000000000          US Representative, District 27                          UNDER VOTES                           Precinct 23                                            01 
01050050014000002000001000000000001000000000000          US Representative, District 27                          UNDER VOTES                           Precinct 26                                            01 
01050050015000005000001000002000000000002000000          US Representative, District 27                          UNDER VOTES                           Precinct 27                                            01 
01050050016000005000000000000000003000002000000          US Representative, District 27                          UNDER VOTES                           Precinct 29                                            01 
01050050017000010000002000000000005000003000000          US Representative, District 27                          UNDER VOTES                           Precinct 30                                            01 
01050050018000011000006000004000000000001000000          US Representative, District 27                          UNDER VOTES                           Precinct 31                                            01 
01050050019000002000000000000000001000001000000          US Representative, District 27                          UNDER VOTES                           Precinct 32                                            01 
01060010001000369000101000085000109000074000000REP       Governor                                                Greg Abbott                           Precinct 1                                             01 
01060010002000430000124000087000128000091000000REP       Governor                                                Greg Abbott                           Precinct 2                                             01 
01060010003000081000008000041000020000012000000REP       Governor                                                Greg Abbott                           Precinct 7                                             01 
01060010004000272000049000054000095000074000000REP       Governor                                                Greg Abbott                           Precinct 8                                             01 
01060010005000372000064000029000154000125000000REP       Governor                                                Greg Abbott                           Precinct 9                                             01 
01060010006000097000019000009000037000032000000REP       Governor                                                Greg Abbott                           Precinct 11                                            01 
01060010007000110000026000016000039000029000000REP       Governor                                                Greg Abbott                           Precinct 12                                            01 
01060010008000057000008000008000020000021000000REP       Governor                                                Greg Abbott                           Precinct 15                                            01 
01060010009000167000031000022000072000042000000REP       Governor                                                Greg Abbott                           Precinct 16                                            01 
01060010010000131000027000025000050000029000000REP       Governor                                                Greg Abbott                           Precinct 17                                            01 
01060010011000132000039000043000032000018000000REP       Governor                                                Greg Abbott                           Precinct 19                                            01 
01060010012000038000016000012000005000005000000REP       Governor                                                Greg Abbott                           Precinct 20                                            01 
01060010013000404000065000043000201000095000000REP       Governor                                                Greg Abbott                           Precinct 23                                            01 
01060010014000044000007000000000016000021000000REP       Governor                                                Greg Abbott                           Precinct 26                                            01 
01060010015000087000018000018000028000023000000REP       Governor                                                Greg Abbott                           Precinct 27                                            01 
01060010016000347000062000041000146000098000000REP       Governor                                                Greg Abbott                           Precinct 29                                            01 
01060010017000509000073000047000283000106000000REP       Governor                                                Greg Abbott                           Precinct 30                                            01 
01060010018000421000142000102000086000091000000REP       Governor                                                Greg Abbott                           Precinct 31                                            01 
01060010019000112000018000011000041000042000000REP       Governor                                                Greg Abbott                           Precinct 32                                            01 
01060020001000050000021000008000010000011000000DEM       Governor                                                Wendy R. Davis                        Precinct 1                                             01 
01060020002000102000034000018000039000011000000DEM       Governor                                                Wendy R. Davis                        Precinct 2                                             01 
01060020003000020000005000005000006000004000000DEM       Governor                                                Wendy R. Davis                        Precinct 7                                             01 
01060020004000039000009000002000020000008000000DEM       Governor                                                Wendy R. Davis                        Precinct 8                                             01 
01060020005000073000010000007000035000021000000DEM       Governor                                                Wendy R. Davis                        Precinct 9                                             01 
01060020006000018000004000001000006000007000000DEM       Governor                                                Wendy R. Davis                        Precinct 11                                            01 
01060020007000020000009000001000010000000000000DEM       Governor                                                Wendy R. Davis                        Precinct 12                                            01 
01060020008000022000007000002000008000005000000DEM       Governor                                                Wendy R. Davis                        Precinct 15                                            01 
01060020009000023000002000004000008000009000000DEM       Governor                                                Wendy R. Davis                        Precinct 16                                            01 
01060020010000015000003000002000004000006000000DEM       Governor                                                Wendy R. Davis                        Precinct 17                                            01 
01060020011000013000003000006000003000001000000DEM       Governor                                                Wendy R. Davis                        Precinct 19                                            01 
01060020012000020000008000004000006000002000000DEM       Governor                                                Wendy R. Davis                        Precinct 20                                            01 
01060020013000090000016000002000055000017000000DEM       Governor                                                Wendy R. Davis                        Precinct 23                                            01 
01060020014000016000001000004000003000008000000DEM       Governor                                                Wendy R. Davis                        Precinct 26                                            01 
01060020015000009000001000004000002000002000000DEM       Governor                                                Wendy R. Davis                        Precinct 27                                            01 
01060020016000087000020000004000040000023000000DEM       Governor                                                Wendy R. Davis                        Precinct 29                                            01 
01060020017000090000018000004000054000014000000DEM       Governor                                                Wendy R. Davis                        Precinct 30                                            01 
01060020018000065000020000014000011000020000000DEM       Governor                                                Wendy R. Davis                        Precinct 31                                            01 
01060020019000012000000000000000009000003000000DEM       Governor                                                Wendy R. Davis                        Precinct 32                                            01 
01060030001000006000005000000000001000000000000LIB       Governor                                                Kathie Glass                          Precinct 1                                             01 
01060030002000002000001000001000000000000000000LIB       Governor                                                Kathie Glass                          Precinct 2                                             01 
01060030003000000000000000000000000000000000000LIB       Governor                                                Kathie Glass                          Precinct 7                                             01 
01060030004000003000000000002000001000000000000LIB       Governor                                                Kathie Glass                          Precinct 8                                             01 
01060030005000005000000000000000002000003000000LIB       Governor                                                Kathie Glass                          Precinct 9                                             01 
01060030006000000000000000000000000000000000000LIB       Governor                                                Kathie Glass                          Precinct 11                                            01 
01060030007000002000000000001000001000000000000LIB       Governor                                                Kathie Glass                          Precinct 12                                            01 
01060030008000001000000000001000000000000000000LIB       Governor                                                Kathie Glass                          Precinct 15                                            01 
01060030009000001000000000000000000000001000000LIB       Governor                                                Kathie Glass                          Precinct 16                                            01 
01060030010000001000001000000000000000000000000LIB       Governor                                                Kathie Glass                          Precinct 17                                            01 
01060030011000000000000000000000000000000000000LIB       Governor                                                Kathie Glass                          Precinct 19                                            01 
01060030012000000000000000000000000000000000000LIB       Governor                                                Kathie Glass                          Precinct 20                                            01 
01060030013000003000001000000000002000000000000LIB       Governor                                                Kathie Glass                          Precinct 23                                            01 
01060030014000002000001000000000000000001000000LIB       Governor                                                Kathie Glass                          Precinct 26                                            01 
01060030015000000000000000000000000000000000000LIB       Governor                                                Kathie Glass                          Precinct 27                                            01 
01060030016000006000001000001000003000001000000LIB       Governor                                                Kathie Glass                          Precinct 29                                            01 
01060030017000005000001000001000002000001000000LIB       Governor                                                Kathie Glass                          Precinct 30                                            01 
01060030018000004000001000000000001000002000000LIB       Governor                                                Kathie Glass                          Precinct 31                                            01 
01060030019000002000000000001000000000001000000LIB       Governor                                                Kathie Glass                          Precinct 32                                            01 
01060040001000001000000000001000000000000000000GRN       Governor                                                Brandon Parmer                        Precinct 1                                             01 
01060040002000001000001000000000000000000000000GRN       Governor                                                Brandon Parmer                        Precinct 2                                             01 
01060040003000000000000000000000000000000000000GRN       Governor                                                Brandon Parmer                        Precinct 7                                             01 
01060040004000000000000000000000000000000000000GRN       Governor                                                Brandon Parmer                        Precinct 8                                             01 
01060040005000001000000000000000000000001000000GRN       Governor                                                Brandon Parmer                        Precinct 9                                             01 
01060040006000001000000000000000001000000000000GRN       Governor                                                Brandon Parmer                        Precinct 11                                            01 
01060040007000000000000000000000000000000000000GRN       Governor                                                Brandon Parmer                        Precinct 12                                            01 
01060040008000001000000000000000000000001000000GRN       Governor                                                Brandon Parmer                        Precinct 15                                            01 
01060040009000000000000000000000000000000000000GRN       Governor                                                Brandon Parmer                        Precinct 16                                            01 
01060040010000001000000000000000001000000000000GRN       Governor                                                Brandon Parmer                        Precinct 17                                            01 
01060040011000000000000000000000000000000000000GRN       Governor                                                Brandon Parmer                        Precinct 19                                            01 
01060040012000002000000000000000001000001000000GRN       Governor                                                Brandon Parmer                        Precinct 20                                            01 
01060040013000002000000000000000002000000000000GRN       Governor                                                Brandon Parmer                        Precinct 23                                            01 
01060040014000000000000000000000000000000000000GRN       Governor                                                Brandon Parmer                        Precinct 26                                            01 
01060040015000000000000000000000000000000000000GRN       Governor                                                Brandon Parmer                        Precinct 27                                            01 
01060040016000002000000000000000001000001000000GRN       Governor                                                Brandon Parmer                        Precinct 29                                            01 
01060040017000002000000000000000002000000000000GRN       Governor                                                Brandon Parmer                        Precinct 30                                            01 
01060040018000002000001000001000000000000000000GRN       Governor                                                Brandon Parmer                        Precinct 31                                            01 
01060040019000000000000000000000000000000000000GRN       Governor                                                Brandon Parmer                        Precinct 32                                            01 
01060050001000000000000000000000000000000000000NON       Governor                                                WRITE-IN                              Precinct 1                                             01 
01060050002000001000001000000000000000000000000NON       Governor                                                WRITE-IN                              Precinct 2                                             01 
01060050003000000000000000000000000000000000000NON       Governor                                                WRITE-IN                              Precinct 7                                             01 
01060050004000000000000000000000000000000000000NON       Governor                                                WRITE-IN                              Precinct 8                                             01 
01060050005000000000000000000000000000000000000NON       Governor                                                WRITE-IN                              Precinct 9                                             01 
01060050006000000000000000000000000000000000000NON       Governor                                                WRITE-IN                              Precinct 11                                            01 
01060050007000000000000000000000000000000000000NON       Governor                                                WRITE-IN                              Precinct 12                                            01 
01060050008000001000000000001000000000000000000NON       Governor                                                WRITE-IN                              Precinct 15                                            01 
01060050009000000000000000000000000000000000000NON       Governor                                                WRITE-IN                              Precinct 16                                            01 
01060050010000000000000000000000000000000000000NON       Governor                                                WRITE-IN                              Precinct 17                                            01 
01060050011000000000000000000000000000000000000NON       Governor                                                WRITE-IN                              Precinct 19                                            01 
01060050012000000000000000000000000000000000000NON       Governor                                                WRITE-IN                              Precinct 20                                            01 
01060050013000001000001000000000000000000000000NON       Governor                                                WRITE-IN                              Precinct 23                                            01 
01060050014000000000000000000000000000000000000NON       Governor                                                WRITE-IN                              Precinct 26                                            01 
01060050015000000000000000000000000000000000000NON       Governor                                                WRITE-IN                              Precinct 27                                            01 
01060050016000000000000000000000000000000000000NON       Governor                                                WRITE-IN                              Precinct 29                                            01 
01060050017000000000000000000000000000000000000NON       Governor                                                WRITE-IN                              Precinct 30                                            01 
