01010010015000000000000000000000000000000000000          REGISTERED VOTERS - TOTAL                               REGISTERED VOTERS - TOTAL             Lone Star College System                               00 
01020010015000086000004000031000051000000000000          BALLOTS CAST - TOTAL                                    BALLOTS CAST - TOTAL                  Lone Star College System                               00 
01460010015000040000002000018000020000000000000NONLSCS   LONE STAR COLLEGE SYSTEM                                FOR                                   Lone Star College System                               01Y
01460020015000046000002000013000031000000000000NONLSCS   LONE STAR COLLEGE SYSTEM                                AGAINST                               Lone Star College System                               01Y
01460030015000000000000000000000000000000000000   LSCS   LONE STAR COLLEGE SYSTEM                                OVER VOTES                            Lone Star College System                               01Y
01460040015000000000000000000000000000000000000   LSCS   LONE STAR COLLEGE SYSTEM                                UNDER VOTES                           Lone Star College System                               01Y
