01010010001000000          REGISTERED VOTERS - TOTAL                               REGISTERED VOTERS - TOTAL             PRECINCT 1A                                            00 
01010010002000000          REGISTERED VOTERS - TOTAL                               REGISTERED VOTERS - TOTAL             PRECINCT 1B                                            00 
01010010003000000          REGISTERED VOTERS - TOTAL                               REGISTERED VOTERS - TOTAL             PRECINCT 1C                                            00 
01010010004000000          REGISTERED VOTERS - TOTAL                               REGISTERED VOTERS - TOTAL             PRECINCT 1D                                            00 
01010010005000000          REGISTERED VOTERS - TOTAL                               REGISTERED VOTERS - TOTAL             PRECINCT 1E                                            00 
01010010006000000          REGISTERED VOTERS - TOTAL                               REGISTERED VOTERS - TOTAL             PRECINCT 1F                                            00 
01010010007000000          REGISTERED VOTERS - TOTAL                               REGISTERED VOTERS - TOTAL             PRECINCT 2                                             00 
01010010008000000          REGISTERED VOTERS - TOTAL                               REGISTERED VOTERS - TOTAL             PRECINCT 3A                                            00 
01010010009000000          REGISTERED VOTERS - TOTAL                               REGISTERED VOTERS - TOTAL             PRECINCT 3B                                            00 
01010010010000000          REGISTERED VOTERS - TOTAL                               REGISTERED VOTERS - TOTAL             PRECINCT 4                                             00 
01010010011000000          REGISTERED VOTERS - TOTAL                               REGISTERED VOTERS - TOTAL             PRECINCT 5                                             00 
01010010012000000          REGISTERED VOTERS - TOTAL                               REGISTERED VOTERS - TOTAL             PRECINCT 6                                             00 
01010010013000000          REGISTERED VOTERS - TOTAL                               REGISTERED VOTERS - TOTAL             PRECINCT 7                                             00 
01010010014000000          REGISTERED VOTERS - TOTAL                               REGISTERED VOTERS - TOTAL             PRECINCT 8                                             00 
01010010015000000          REGISTERED VOTERS - TOTAL                               REGISTERED VOTERS - TOTAL             PRECINCT 9                                             00 
01010010016000000          REGISTERED VOTERS - TOTAL                               REGISTERED VOTERS - TOTAL             PRECINCT 10                                            00 
01010010017000000          REGISTERED VOTERS - TOTAL                               REGISTERED VOTERS - TOTAL             PRECINCT 12                                            00 
01010010018000000          REGISTERED VOTERS - TOTAL                               REGISTERED VOTERS - TOTAL             PRECINCT 13                                            00 
01020010001000931          BALLOTS CAST - TOTAL                                    BALLOTS CAST - TOTAL                  PRECINCT 1A                                            00 
01020010002001083          BALLOTS CAST - TOTAL                                    BALLOTS CAST - TOTAL                  PRECINCT 1B                                            00 
01020010003000327          BALLOTS CAST - TOTAL                                    BALLOTS CAST - TOTAL                  PRECINCT 1C                                            00 
01020010004000322          BALLOTS CAST - TOTAL                                    BALLOTS CAST - TOTAL                  PRECINCT 1D                                            00 
01020010005000406          BALLOTS CAST - TOTAL                                    BALLOTS CAST - TOTAL                  PRECINCT 1E                                            00 
01020010006000220          BALLOTS CAST - TOTAL                                    BALLOTS CAST - TOTAL                  PRECINCT 1F                                            00 
01020010007000360          BALLOTS CAST - TOTAL                                    BALLOTS CAST - TOTAL                  PRECINCT 2                                             00 
01020010008000513          BALLOTS CAST - TOTAL                                    BALLOTS CAST - TOTAL                  PRECINCT 3A                                            00 
01020010009000262          BALLOTS CAST - TOTAL                                    BALLOTS CAST - TOTAL                  PRECINCT 3B                                            00 
01020010010000429          BALLOTS CAST - TOTAL                                    BALLOTS CAST - TOTAL                  PRECINCT 4                                             00 
01020010011000797          BALLOTS CAST - TOTAL                                    BALLOTS CAST - TOTAL                  PRECINCT 5                                             00 
01020010012000537          BALLOTS CAST - TOTAL                                    BALLOTS CAST - TOTAL                  PRECINCT 6                                             00 
01020010013000071          BALLOTS CAST - TOTAL                                    BALLOTS CAST - TOTAL                  PRECINCT 7                                             00 
01020010014000279          BALLOTS CAST - TOTAL                                    BALLOTS CAST - TOTAL                  PRECINCT 8                                             00 
01020010015000065          BALLOTS CAST - TOTAL                                    BALLOTS CAST - TOTAL                  PRECINCT 9                                             00 
01020010016000140          BALLOTS CAST - TOTAL                                    BALLOTS CAST - TOTAL                  PRECINCT 10                                            00 
01020010017000091          BALLOTS CAST - TOTAL                                    BALLOTS CAST - TOTAL                  PRECINCT 12                                            00 
01020010018000199          BALLOTS CAST - TOTAL                                    BALLOTS CAST - TOTAL                  PRECINCT 13                                            00 
01030010001000368REP       Straight Party                                          Republican Party                      PRECINCT 1A                                            01 
01030010002000379REP       Straight Party                                          Republican Party                      PRECINCT 1B                                            01 
01030010003000057REP       Straight Party                                          Republican Party                      PRECINCT 1C                                            01 
01030010004000100REP       Straight Party                                          Republican Party                      PRECINCT 1D                                            01 
01030010005000133REP       Straight Party                                          Republican Party                      PRECINCT 1E                                            01 
01030010006000078REP       Straight Party                                          Republican Party                      PRECINCT 1F                                            01 
01030010007000135REP       Straight Party                                          Republican Party                      PRECINCT 2                                             01 
01030010008000178REP       Straight Party                                          Republican Party                      PRECINCT 3A                                            01 
01030010009000120REP       Straight Party                                          Republican Party                      PRECINCT 3B                                            01 
01030010010000196REP       Straight Party                                          Republican Party                      PRECINCT 4                                             01 
01030010011000265REP       Straight Party                                          Republican Party                      PRECINCT 5                                             01 
01030010012000234REP       Straight Party                                          Republican Party                      PRECINCT 6                                             01 
01030010013000028REP       Straight Party                                          Republican Party                      PRECINCT 7                                             01 
01030010014000099REP       Straight Party                                          Republican Party                      PRECINCT 8                                             01 
01030010015000026REP       Straight Party                                          Republican Party                      PRECINCT 9                                             01 
01030010016000067REP       Straight Party                                          Republican Party                      PRECINCT 10                                            01 
01030010017000035REP       Straight Party                                          Republican Party                      PRECINCT 12                                            01 
01030010018000044REP       Straight Party                                          Republican Party                      PRECINCT 13                                            01 
01030020001000080DEM       Straight Party                                          Democratic Party                      PRECINCT 1A                                            01 
01030020002000120DEM       Straight Party                                          Democratic Party                      PRECINCT 1B                                            01 
01030020003000166DEM       Straight Party                                          Democratic Party                      PRECINCT 1C                                            01 
01030020004000099DEM       Straight Party                                          Democratic Party                      PRECINCT 1D                                            01 
01030020005000122DEM       Straight Party                                          Democratic Party                      PRECINCT 1E                                            01 
01030020006000041DEM       Straight Party                                          Democratic Party                      PRECINCT 1F                                            01 
01030020007000030DEM       Straight Party                                          Democratic Party                      PRECINCT 2                                             01 
01030020008000098DEM       Straight Party                                          Democratic Party                      PRECINCT 3A                                            01 
01030020009000018DEM       Straight Party                                          Democratic Party                      PRECINCT 3B                                            01 
01030020010000033DEM       Straight Party                                          Democratic Party                      PRECINCT 4                                             01 
01030020011000138DEM       Straight Party                                          Democratic Party                      PRECINCT 5                                             01 
01030020012000091DEM       Straight Party                                          Democratic Party                      PRECINCT 6                                             01 
01030020013000006DEM       Straight Party                                          Democratic Party                      PRECINCT 7                                             01 
01030020014000030DEM       Straight Party                                          Democratic Party                      PRECINCT 8                                             01 
01030020015000021DEM       Straight Party                                          Democratic Party                      PRECINCT 9                                             01 
01030020016000008DEM       Straight Party                                          Democratic Party                      PRECINCT 10                                            01 
01030020017000006DEM       Straight Party                                          Democratic Party                      PRECINCT 12                                            01 
01030020018000063DEM       Straight Party                                          Democratic Party                      PRECINCT 13                                            01 
01030030001000008LIB       Straight Party                                          Libertarian Party                     PRECINCT 1A                                            01 
01030030002000006LIB       Straight Party                                          Libertarian Party                     PRECINCT 1B                                            01 
01030030003000000LIB       Straight Party                                          Libertarian Party                     PRECINCT 1C                                            01 
01030030004000000LIB       Straight Party                                          Libertarian Party                     PRECINCT 1D                                            01 
01030030005000000LIB       Straight Party                                          Libertarian Party                     PRECINCT 1E                                            01 
01030030006000001LIB       Straight Party                                          Libertarian Party                     PRECINCT 1F                                            01 
01030030007000000LIB       Straight Party                                          Libertarian Party                     PRECINCT 2                                             01 
01030030008000003LIB       Straight Party                                          Libertarian Party                     PRECINCT 3A                                            01 
01030030009000001LIB       Straight Party                                          Libertarian Party                     PRECINCT 3B                                            01 
01030030010000003LIB       Straight Party                                          Libertarian Party                     PRECINCT 4                                             01 
01030030011000007LIB       Straight Party                                          Libertarian Party                     PRECINCT 5                                             01 
01030030012000001LIB       Straight Party                                          Libertarian Party                     PRECINCT 6                                             01 
01030030013000000LIB       Straight Party                                          Libertarian Party                     PRECINCT 7                                             01 
01030030014000000LIB       Straight Party                                          Libertarian Party                     PRECINCT 8                                             01 
01030030015000000LIB       Straight Party                                          Libertarian Party                     PRECINCT 9                                             01 
01030030016000001LIB       Straight Party                                          Libertarian Party                     PRECINCT 10                                            01 
01030030017000001LIB       Straight Party                                          Libertarian Party                     PRECINCT 12                                            01 
01030030018000001LIB       Straight Party                                          Libertarian Party                     PRECINCT 13                                            01 
01030040001000001GRN       Straight Party                                          Green Party                           PRECINCT 1A                                            01 
01030040002000000GRN       Straight Party                                          Green Party                           PRECINCT 1B                                            01 
01030040003000001GRN       Straight Party                                          Green Party                           PRECINCT 1C                                            01 
01030040004000002GRN       Straight Party                                          Green Party                           PRECINCT 1D                                            01 
01030040005000000GRN       Straight Party                                          Green Party                           PRECINCT 1E                                            01 
01030040006000000GRN       Straight Party                                          Green Party                           PRECINCT 1F                                            01 
01030040007000000GRN       Straight Party                                          Green Party                           PRECINCT 2                                             01 
01030040008000002GRN       Straight Party                                          Green Party                           PRECINCT 3A                                            01 
01030040009000000GRN       Straight Party                                          Green Party                           PRECINCT 3B                                            01 
01030040010000000GRN       Straight Party                                          Green Party                           PRECINCT 4                                             01 
01030040011000000GRN       Straight Party                                          Green Party                           PRECINCT 5                                             01 
01030040012000001GRN       Straight Party                                          Green Party                           PRECINCT 6                                             01 
01030040013000000GRN       Straight Party                                          Green Party                           PRECINCT 7                                             01 
01030040014000000GRN       Straight Party                                          Green Party                           PRECINCT 8                                             01 
01030040015000000GRN       Straight Party                                          Green Party                           PRECINCT 9                                             01 
01030040016000000GRN       Straight Party                                          Green Party                           PRECINCT 10                                            01 
01030040017000000GRN       Straight Party                                          Green Party                           PRECINCT 12                                            01 
01030040018000000GRN       Straight Party                                          Green Party                           PRECINCT 13                                            01 
01030050001000000          Straight Party                                          OVER VOTES                            PRECINCT 1A                                            01 
01030050002000000          Straight Party                                          OVER VOTES                            PRECINCT 1B                                            01 
01030050003000000          Straight Party                                          OVER VOTES                            PRECINCT 1C                                            01 
01030050004000000          Straight Party                                          OVER VOTES                            PRECINCT 1D                                            01 
01030050005000000          Straight Party                                          OVER VOTES                            PRECINCT 1E                                            01 
01030050006000000          Straight Party                                          OVER VOTES                            PRECINCT 1F                                            01 
01030050007000000          Straight Party                                          OVER VOTES                            PRECINCT 2                                             01 
01030050008000000          Straight Party                                          OVER VOTES                            PRECINCT 3A                                            01 
01030050009000000          Straight Party                                          OVER VOTES                            PRECINCT 3B                                            01 
01030050010000000          Straight Party                                          OVER VOTES                            PRECINCT 4                                             01 
01030050011000000          Straight Party                                          OVER VOTES                            PRECINCT 5                                             01 
01030050012000000          Straight Party                                          OVER VOTES                            PRECINCT 6                                             01 
01030050013000000          Straight Party                                          OVER VOTES                            PRECINCT 7                                             01 
01030050014000000          Straight Party                                          OVER VOTES                            PRECINCT 8                                             01 
01030050015000000          Straight Party                                          OVER VOTES                            PRECINCT 9                                             01 
01030050016000000          Straight Party                                          OVER VOTES                            PRECINCT 10                                            01 
01030050017000000          Straight Party                                          OVER VOTES                            PRECINCT 12                                            01 
01030050018000000          Straight Party                                          OVER VOTES                            PRECINCT 13                                            01 
01030060001000473          Straight Party                                          UNDER VOTES                           PRECINCT 1A                                            01 
01030060002000578          Straight Party                                          UNDER VOTES                           PRECINCT 1B                                            01 
01030060003000103          Straight Party                                          UNDER VOTES                           PRECINCT 1C                                            01 
01030060004000121          Straight Party                                          UNDER VOTES                           PRECINCT 1D                                            01 
01030060005000151          Straight Party                                          UNDER VOTES                           PRECINCT 1E                                            01 
01030060006000100          Straight Party                                          UNDER VOTES                           PRECINCT 1F                                            01 
01030060007000195          Straight Party                                          UNDER VOTES                           PRECINCT 2                                             01 
01030060008000232          Straight Party                                          UNDER VOTES                           PRECINCT 3A                                            01 
01030060009000123          Straight Party                                          UNDER VOTES                           PRECINCT 3B                                            01 
01030060010000197          Straight Party                                          UNDER VOTES                           PRECINCT 4                                             01 
01030060011000386          Straight Party                                          UNDER VOTES                           PRECINCT 5                                             01 
01030060012000204          Straight Party                                          UNDER VOTES                           PRECINCT 6                                             01 
01030060013000037          Straight Party                                          UNDER VOTES                           PRECINCT 7                                             01 
01030060014000148          Straight Party                                          UNDER VOTES                           PRECINCT 8                                             01 
01030060015000018          Straight Party                                          UNDER VOTES                           PRECINCT 9                                             01 
01030060016000064          Straight Party                                          UNDER VOTES                           PRECINCT 10                                            01 
01030060017000049          Straight Party                                          UNDER VOTES                           PRECINCT 12                                            01 
01030060018000090          Straight Party                                          UNDER VOTES                           PRECINCT 13                                            01 
01040010001000750REP       United States Senator                                   John Cornyn                           PRECINCT 1A                                            01 
01040010002000785REP       United States Senator                                   John Cornyn                           PRECINCT 1B                                            01 
01040010003000107REP       United States Senator                                   John Cornyn                           PRECINCT 1C                                            01 
01040010004000178REP       United States Senator                                   John Cornyn                           PRECINCT 1D                                            01 
01040010005000228REP       United States Senator                                   John Cornyn                           PRECINCT 1E                                            01 
01040010006000145REP       United States Senator                                   John Cornyn                           PRECINCT 1F                                            01 
01040010007000274REP       United States Senator                                   John Cornyn                           PRECINCT 2                                             01 
01040010008000317REP       United States Senator                                   John Cornyn                           PRECINCT 3A                                            01 
01040010009000207REP       United States Senator                                   John Cornyn                           PRECINCT 3B                                            01 
01040010010000325REP       United States Senator                                   John Cornyn                           PRECINCT 4                                             01 
01040010011000530REP       United States Senator                                   John Cornyn                           PRECINCT 5                                             01 
01040010012000371REP       United States Senator                                   John Cornyn                           PRECINCT 6                                             01 
01040010013000059REP       United States Senator                                   John Cornyn                           PRECINCT 7                                             01 
01040010014000216REP       United States Senator                                   John Cornyn                           PRECINCT 8                                             01 
01040010015000037REP       United States Senator                                   John Cornyn                           PRECINCT 9                                             01 
01040010016000116REP       United States Senator                                   John Cornyn                           PRECINCT 10                                            01 
01040010017000068REP       United States Senator                                   John Cornyn                           PRECINCT 12                                            01 
01040010018000107REP       United States Senator                                   John Cornyn                           PRECINCT 13                                            01 
01040020001000132DEM       United States Senator                                   David M. Alameel                      PRECINCT 1A                                            01 
01040020002000239DEM       United States Senator                                   David M. Alameel                      PRECINCT 1B                                            01 
01040020003000206DEM       United States Senator                                   David M. Alameel                      PRECINCT 1C                                            01 
01040020004000127DEM       United States Senator                                   David M. Alameel                      PRECINCT 1D                                            01 
01040020005000157DEM       United States Senator                                   David M. Alameel                      PRECINCT 1E                                            01 
01040020006000060DEM       United States Senator                                   David M. Alameel                      PRECINCT 1F                                            01 
01040020007000065DEM       United States Senator                                   David M. Alameel                      PRECINCT 2                                             01 
01040020008000155DEM       United States Senator                                   David M. Alameel                      PRECINCT 3A                                            01 
01040020009000038DEM       United States Senator                                   David M. Alameel                      PRECINCT 3B                                            01 
01040020010000074DEM       United States Senator                                   David M. Alameel                      PRECINCT 4                                             01 
01040020011000213DEM       United States Senator                                   David M. Alameel                      PRECINCT 5                                             01 
01040020012000133DEM       United States Senator                                   David M. Alameel                      PRECINCT 6                                             01 
01040020013000008DEM       United States Senator                                   David M. Alameel                      PRECINCT 7                                             01 
01040020014000047DEM       United States Senator                                   David M. Alameel                      PRECINCT 8                                             01 
01040020015000022DEM       United States Senator                                   David M. Alameel                      PRECINCT 9                                             01 
01040020016000018DEM       United States Senator                                   David M. Alameel                      PRECINCT 10                                            01 
01040020017000015DEM       United States Senator                                   David M. Alameel                      PRECINCT 12                                            01 
01040020018000084DEM       United States Senator                                   David M. Alameel                      PRECINCT 13                                            01 
01040030001000032LIB       United States Senator                                   Rebecca Paddock                       PRECINCT 1A                                            01 
01040030002000031LIB       United States Senator                                   Rebecca Paddock                       PRECINCT 1B                                            01 
01040030003000002LIB       United States Senator                                   Rebecca Paddock                       PRECINCT 1C                                            01 
01040030004000008LIB       United States Senator                                   Rebecca Paddock                       PRECINCT 1D                                            01 
01040030005000008LIB       United States Senator                                   Rebecca Paddock                       PRECINCT 1E                                            01 
01040030006000004LIB       United States Senator                                   Rebecca Paddock                       PRECINCT 1F                                            01 
01040030007000013LIB       United States Senator                                   Rebecca Paddock                       PRECINCT 2                                             01 
01040030008000019LIB       United States Senator                                   Rebecca Paddock                       PRECINCT 3A                                            01 
01040030009000008LIB       United States Senator                                   Rebecca Paddock                       PRECINCT 3B                                            01 
01040030010000015LIB       United States Senator                                   Rebecca Paddock                       PRECINCT 4                                             01 
01040030011000022LIB       United States Senator                                   Rebecca Paddock                       PRECINCT 5                                             01 
01040030012000017LIB       United States Senator                                   Rebecca Paddock                       PRECINCT 6                                             01 
01040030013000003LIB       United States Senator                                   Rebecca Paddock                       PRECINCT 7                                             01 
01040030014000007LIB       United States Senator                                   Rebecca Paddock                       PRECINCT 8                                             01 
01040030015000001LIB       United States Senator                                   Rebecca Paddock                       PRECINCT 9                                             01 
01040030016000003LIB       United States Senator                                   Rebecca Paddock                       PRECINCT 10                                            01 
01040030017000003LIB       United States Senator                                   Rebecca Paddock                       PRECINCT 12                                            01 
01040030018000004LIB       United States Senator                                   Rebecca Paddock                       PRECINCT 13                                            01 
01040040001000010GRN       United States Senator                                   Emily "Spicybrown" Sanchez            PRECINCT 1A                                            01 
01040040002000012GRN       United States Senator                                   Emily "Spicybrown" Sanchez            PRECINCT 1B                                            01 
01040040003000002GRN       United States Senator                                   Emily "Spicybrown" Sanchez            PRECINCT 1C                                            01 
01040040004000004GRN       United States Senator                                   Emily "Spicybrown" Sanchez            PRECINCT 1D                                            01 
01040040005000003GRN       United States Senator                                   Emily "Spicybrown" Sanchez            PRECINCT 1E                                            01 
01040040006000007GRN       United States Senator                                   Emily "Spicybrown" Sanchez            PRECINCT 1F                                            01 
01040040007000002GRN       United States Senator                                   Emily "Spicybrown" Sanchez            PRECINCT 2                                             01 
01040040008000012GRN       United States Senator                                   Emily "Spicybrown" Sanchez            PRECINCT 3A                                            01 
01040040009000001GRN       United States Senator                                   Emily "Spicybrown" Sanchez            PRECINCT 3B                                            01 
01040040010000003GRN       United States Senator                                   Emily "Spicybrown" Sanchez            PRECINCT 4                                             01 
01040040011000009GRN       United States Senator                                   Emily "Spicybrown" Sanchez            PRECINCT 5                                             01 
01040040012000002GRN       United States Senator                                   Emily "Spicybrown" Sanchez            PRECINCT 6                                             01 
01040040013000000GRN       United States Senator                                   Emily "Spicybrown" Sanchez            PRECINCT 7                                             01 
01040040014000002GRN       United States Senator                                   Emily "Spicybrown" Sanchez            PRECINCT 8                                             01 
01040040015000002GRN       United States Senator                                   Emily "Spicybrown" Sanchez            PRECINCT 9                                             01 
01040040016000001GRN       United States Senator                                   Emily "Spicybrown" Sanchez            PRECINCT 10                                            01 
01040040017000003GRN       United States Senator                                   Emily "Spicybrown" Sanchez            PRECINCT 12                                            01 
01040040018000000GRN       United States Senator                                   Emily "Spicybrown" Sanchez            PRECINCT 13                                            01 
01040050001000000NON       United States Senator                                   WRITE-IN                              PRECINCT 1A                                            01 
01040050002000000NON       United States Senator                                   WRITE-IN                              PRECINCT 1B                                            01 
01040050003000000NON       United States Senator                                   WRITE-IN                              PRECINCT 1C                                            01 
01040050004000001NON       United States Senator                                   WRITE-IN                              PRECINCT 1D                                            01 
01040050005000003NON       United States Senator                                   WRITE-IN                              PRECINCT 1E                                            01 
01040050006000000NON       United States Senator                                   WRITE-IN                              PRECINCT 1F                                            01 
01040050007000000NON       United States Senator                                   WRITE-IN                              PRECINCT 2                                             01 
01040050008000000NON       United States Senator                                   WRITE-IN                              PRECINCT 3A                                            01 
01040050009000000NON       United States Senator                                   WRITE-IN                              PRECINCT 3B                                            01 
01040050010000000NON       United States Senator                                   WRITE-IN                              PRECINCT 4                                             01 
01040050011000002NON       United States Senator                                   WRITE-IN                              PRECINCT 5                                             01 
01040050012000001NON       United States Senator                                   WRITE-IN                              PRECINCT 6                                             01 
01040050013000000NON       United States Senator                                   WRITE-IN                              PRECINCT 7                                             01 
01040050014000000NON       United States Senator                                   WRITE-IN                              PRECINCT 8                                             01 
01040050015000000NON       United States Senator                                   WRITE-IN                              PRECINCT 9                                             01 
01040050016000000NON       United States Senator                                   WRITE-IN                              PRECINCT 10                                            01 
01040050017000000NON       United States Senator                                   WRITE-IN                              PRECINCT 12                                            01 
01040050018000000NON       United States Senator                                   WRITE-IN                              PRECINCT 13                                            01 
01040060001000000          United States Senator                                   OVER VOTES                            PRECINCT 1A                                            01 
01040060002000000          United States Senator                                   OVER VOTES                            PRECINCT 1B                                            01 
01040060003000000          United States Senator                                   OVER VOTES                            PRECINCT 1C                                            01 
01040060004000000          United States Senator                                   OVER VOTES                            PRECINCT 1D                                            01 
01040060005000000          United States Senator                                   OVER VOTES                            PRECINCT 1E                                            01 
01040060006000000          United States Senator                                   OVER VOTES                            PRECINCT 1F                                            01 
01040060007000000          United States Senator                                   OVER VOTES                            PRECINCT 2                                             01 
01040060008000000          United States Senator                                   OVER VOTES                            PRECINCT 3A                                            01 
01040060009000000          United States Senator                                   OVER VOTES                            PRECINCT 3B                                            01 
01040060010000000          United States Senator                                   OVER VOTES                            PRECINCT 4                                             01 
01040060011000000          United States Senator                                   OVER VOTES                            PRECINCT 5                                             01 
01040060012000000          United States Senator                                   OVER VOTES                            PRECINCT 6                                             01 
01040060013000000          United States Senator                                   OVER VOTES                            PRECINCT 7                                             01 
01040060014000000          United States Senator                                   OVER VOTES                            PRECINCT 8                                             01 
01040060015000000          United States Senator                                   OVER VOTES                            PRECINCT 9                                             01 
01040060016000000          United States Senator                                   OVER VOTES                            PRECINCT 10                                            01 
01040060017000000          United States Senator                                   OVER VOTES                            PRECINCT 12                                            01 
01040060018000000          United States Senator                                   OVER VOTES                            PRECINCT 13                                            01 
01040070001000007          United States Senator                                   UNDER VOTES                           PRECINCT 1A                                            01 
01040070002000016          United States Senator                                   UNDER VOTES                           PRECINCT 1B                                            01 
01040070003000010          United States Senator                                   UNDER VOTES                           PRECINCT 1C                                            01 
01040070004000004          United States Senator                                   UNDER VOTES                           PRECINCT 1D                                            01 
01040070005000007          United States Senator                                   UNDER VOTES                           PRECINCT 1E                                            01 
01040070006000004          United States Senator                                   UNDER VOTES                           PRECINCT 1F                                            01 
01040070007000006          United States Senator                                   UNDER VOTES                           PRECINCT 2                                             01 
01040070008000010          United States Senator                                   UNDER VOTES                           PRECINCT 3A                                            01 
01040070009000008          United States Senator                                   UNDER VOTES                           PRECINCT 3B                                            01 
01040070010000012          United States Senator                                   UNDER VOTES                           PRECINCT 4                                             01 
01040070011000021          United States Senator                                   UNDER VOTES                           PRECINCT 5                                             01 
01040070012000012          United States Senator                                   UNDER VOTES                           PRECINCT 6                                             01 
01040070013000001          United States Senator                                   UNDER VOTES                           PRECINCT 7                                             01 
01040070014000007          United States Senator                                   UNDER VOTES                           PRECINCT 8                                             01 
01040070015000003          United States Senator                                   UNDER VOTES                           PRECINCT 9                                             01 
01040070016000002          United States Senator                                   UNDER VOTES                           PRECINCT 10                                            01 
01040070017000002          United States Senator                                   UNDER VOTES                           PRECINCT 12                                            01 
01040070018000004          United States Senator                                   UNDER VOTES                           PRECINCT 13                                            01 
01050010001000738REP       United States Representative, Dist 27                   Blake Farenthold                      PRECINCT 1A                                            01 
01050010002000765REP       United States Representative, Dist 27                   Blake Farenthold                      PRECINCT 1B                                            01 
01050010003000107REP       United States Representative, Dist 27                   Blake Farenthold                      PRECINCT 1C                                            01 
01050010004000173REP       United States Representative, Dist 27                   Blake Farenthold                      PRECINCT 1D                                            01 
01050010005000228REP       United States Representative, Dist 27                   Blake Farenthold                      PRECINCT 1E                                            01 
01050010006000144REP       United States Representative, Dist 27                   Blake Farenthold                      PRECINCT 1F                                            01 
01050010007000261REP       United States Representative, Dist 27                   Blake Farenthold                      PRECINCT 2                                             01 
01050010008000306REP       United States Representative, Dist 27                   Blake Farenthold                      PRECINCT 3A                                            01 
01050010009000206REP       United States Representative, Dist 27                   Blake Farenthold                      PRECINCT 3B                                            01 
01050010010000329REP       United States Representative, Dist 27                   Blake Farenthold                      PRECINCT 4                                             01 
01050010011000510REP       United States Representative, Dist 27                   Blake Farenthold                      PRECINCT 5                                             01 
01050010012000368REP       United States Representative, Dist 27                   Blake Farenthold                      PRECINCT 6                                             01 
01050010013000056REP       United States Representative, Dist 27                   Blake Farenthold                      PRECINCT 7                                             01 
01050010014000207REP       United States Representative, Dist 27                   Blake Farenthold                      PRECINCT 8                                             01 
01050010015000040REP       United States Representative, Dist 27                   Blake Farenthold                      PRECINCT 9                                             01 
01050010016000112REP       United States Representative, Dist 27                   Blake Farenthold                      PRECINCT 10                                            01 
01050010017000070REP       United States Representative, Dist 27                   Blake Farenthold                      PRECINCT 12                                            01 
01050010018000102REP       United States Representative, Dist 27                   Blake Farenthold                      PRECINCT 13                                            01 
01050020001000151DEM       United States Representative, Dist 27                   Wesley Reed                           PRECINCT 1A                                            01 
01050020002000273DEM       United States Representative, Dist 27                   Wesley Reed                           PRECINCT 1B                                            01 
01050020003000210DEM       United States Representative, Dist 27                   Wesley Reed                           PRECINCT 1C                                            01 
01050020004000136DEM       United States Representative, Dist 27                   Wesley Reed                           PRECINCT 1D                                            01 
01050020005000166DEM       United States Representative, Dist 27                   Wesley Reed                           PRECINCT 1E                                            01 
01050020006000072DEM       United States Representative, Dist 27                   Wesley Reed                           PRECINCT 1F                                            01 
01050020007000087DEM       United States Representative, Dist 27                   Wesley Reed                           PRECINCT 2                                             01 
01050020008000179DEM       United States Representative, Dist 27                   Wesley Reed                           PRECINCT 3A                                            01 
01050020009000047DEM       United States Representative, Dist 27                   Wesley Reed                           PRECINCT 3B                                            01 
01050020010000076DEM       United States Representative, Dist 27                   Wesley Reed                           PRECINCT 4                                             01 
01050020011000240DEM       United States Representative, Dist 27                   Wesley Reed                           PRECINCT 5                                             01 
01050020012000135DEM       United States Representative, Dist 27                   Wesley Reed                           PRECINCT 6                                             01 
01050020013000011DEM       United States Representative, Dist 27                   Wesley Reed                           PRECINCT 7                                             01 
01050020014000056DEM       United States Representative, Dist 27                   Wesley Reed                           PRECINCT 8                                             01 
01050020015000023DEM       United States Representative, Dist 27                   Wesley Reed                           PRECINCT 9                                             01 
01050020016000020DEM       United States Representative, Dist 27                   Wesley Reed                           PRECINCT 10                                            01 
01050020017000016DEM       United States Representative, Dist 27                   Wesley Reed                           PRECINCT 12                                            01 
01050020018000089DEM       United States Representative, Dist 27                   Wesley Reed                           PRECINCT 13                                            01 
01050030001000028LIB       United States Representative, Dist 27                   Roxanne Simonson                      PRECINCT 1A                                            01 
01050030002000022LIB       United States Representative, Dist 27                   Roxanne Simonson                      PRECINCT 1B                                            01 
01050030003000001LIB       United States Representative, Dist 27                   Roxanne Simonson                      PRECINCT 1C                                            01 
01050030004000009LIB       United States Representative, Dist 27                   Roxanne Simonson                      PRECINCT 1D                                            01 
01050030005000006LIB       United States Representative, Dist 27                   Roxanne Simonson                      PRECINCT 1E                                            01 
01050030006000002LIB       United States Representative, Dist 27                   Roxanne Simonson                      PRECINCT 1F                                            01 
01050030007000006LIB       United States Representative, Dist 27                   Roxanne Simonson                      PRECINCT 2                                             01 
01050030008000013LIB       United States Representative, Dist 27                   Roxanne Simonson                      PRECINCT 3A                                            01 
01050030009000004LIB       United States Representative, Dist 27                   Roxanne Simonson                      PRECINCT 3B                                            01 
01050030010000012LIB       United States Representative, Dist 27                   Roxanne Simonson                      PRECINCT 4                                             01 
01050030011000019LIB       United States Representative, Dist 27                   Roxanne Simonson                      PRECINCT 5                                             01 
01050030012000015LIB       United States Representative, Dist 27                   Roxanne Simonson                      PRECINCT 6                                             01 
01050030013000003LIB       United States Representative, Dist 27                   Roxanne Simonson                      PRECINCT 7                                             01 
01050030014000004LIB       United States Representative, Dist 27                   Roxanne Simonson                      PRECINCT 8                                             01 
01050030015000001LIB       United States Representative, Dist 27                   Roxanne Simonson                      PRECINCT 9                                             01 
01050030016000004LIB       United States Representative, Dist 27                   Roxanne Simonson                      PRECINCT 10                                            01 
01050030017000005LIB       United States Representative, Dist 27                   Roxanne Simonson                      PRECINCT 12                                            01 
01050030018000002LIB       United States Representative, Dist 27                   Roxanne Simonson                      PRECINCT 13                                            01 
01050040001000000          United States Representative, Dist 27                   OVER VOTES                            PRECINCT 1A                                            01 
01050040002000000          United States Representative, Dist 27                   OVER VOTES                            PRECINCT 1B                                            01 
01050040003000000          United States Representative, Dist 27                   OVER VOTES                            PRECINCT 1C                                            01 
01050040004000000          United States Representative, Dist 27                   OVER VOTES                            PRECINCT 1D                                            01 
01050040005000000          United States Representative, Dist 27                   OVER VOTES                            PRECINCT 1E                                            01 
01050040006000000          United States Representative, Dist 27                   OVER VOTES                            PRECINCT 1F                                            01 
01050040007000000          United States Representative, Dist 27                   OVER VOTES                            PRECINCT 2                                             01 
01050040008000000          United States Representative, Dist 27                   OVER VOTES                            PRECINCT 3A                                            01 
01050040009000000          United States Representative, Dist 27                   OVER VOTES                            PRECINCT 3B                                            01 
01050040010000000          United States Representative, Dist 27                   OVER VOTES                            PRECINCT 4                                             01 
01050040011000000          United States Representative, Dist 27                   OVER VOTES                            PRECINCT 5                                             01 
01050040012000000          United States Representative, Dist 27                   OVER VOTES                            PRECINCT 6                                             01 
01050040013000000          United States Representative, Dist 27                   OVER VOTES                            PRECINCT 7                                             01 
01050040014000000          United States Representative, Dist 27                   OVER VOTES                            PRECINCT 8                                             01 
01050040015000000          United States Representative, Dist 27                   OVER VOTES                            PRECINCT 9                                             01 
01050040016000000          United States Representative, Dist 27                   OVER VOTES                            PRECINCT 10                                            01 
01050040017000000          United States Representative, Dist 27                   OVER VOTES                            PRECINCT 12                                            01 
01050040018000000          United States Representative, Dist 27                   OVER VOTES                            PRECINCT 13                                            01 
01050050001000014          United States Representative, Dist 27                   UNDER VOTES                           PRECINCT 1A                                            01 
01050050002000023          United States Representative, Dist 27                   UNDER VOTES                           PRECINCT 1B                                            01 
01050050003000009          United States Representative, Dist 27                   UNDER VOTES                           PRECINCT 1C                                            01 
01050050004000004          United States Representative, Dist 27                   UNDER VOTES                           PRECINCT 1D                                            01 
01050050005000006          United States Representative, Dist 27                   UNDER VOTES                           PRECINCT 1E                                            01 
01050050006000002          United States Representative, Dist 27                   UNDER VOTES                           PRECINCT 1F                                            01 
01050050007000006          United States Representative, Dist 27                   UNDER VOTES                           PRECINCT 2                                             01 
01050050008000015          United States Representative, Dist 27                   UNDER VOTES                           PRECINCT 3A                                            01 
01050050009000005          United States Representative, Dist 27                   UNDER VOTES                           PRECINCT 3B                                            01 
01050050010000012          United States Representative, Dist 27                   UNDER VOTES                           PRECINCT 4                                             01 
01050050011000028          United States Representative, Dist 27                   UNDER VOTES                           PRECINCT 5                                             01 
01050050012000018          United States Representative, Dist 27                   UNDER VOTES                           PRECINCT 6                                             01 
01050050013000001          United States Representative, Dist 27                   UNDER VOTES                           PRECINCT 7                                             01 
01050050014000012          United States Representative, Dist 27                   UNDER VOTES                           PRECINCT 8                                             01 
01050050015000001          United States Representative, Dist 27                   UNDER VOTES                           PRECINCT 9                                             01 
01050050016000004          United States Representative, Dist 27                   UNDER VOTES                           PRECINCT 10                                            01 
01050050017000000          United States Representative, Dist 27                   UNDER VOTES                           PRECINCT 12                                            01 
01050050018000006          United States Representative, Dist 27                   UNDER VOTES                           PRECINCT 13                                            01 
01060010001000712REP       Governor                                                Greg Abbott                           PRECINCT 1A                                            01 
01060010002000764REP       Governor                                                Greg Abbott                           PRECINCT 1B                                            01 
01060010003000105REP       Governor                                                Greg Abbott                           PRECINCT 1C                                            01 
01060010004000166REP       Governor                                                Greg Abbott                           PRECINCT 1D                                            01 
01060010005000224REP       Governor                                                Greg Abbott                           PRECINCT 1E                                            01 
01060010006000136REP       Governor                                                Greg Abbott                           PRECINCT 1F                                            01 
01060010007000253REP       Governor                                                Greg Abbott                           PRECINCT 2                                             01 
01060010008000312REP       Governor                                                Greg Abbott                           PRECINCT 3A                                            01 
01060010009000199REP       Governor                                                Greg Abbott                           PRECINCT 3B                                            01 
01060010010000328REP       Governor                                                Greg Abbott                           PRECINCT 4                                             01 
01060010011000529REP       Governor                                                Greg Abbott                           PRECINCT 5                                             01 
01060010012000371REP       Governor                                                Greg Abbott                           PRECINCT 6                                             01 
01060010013000060REP       Governor                                                Greg Abbott                           PRECINCT 7                                             01 
01060010014000209REP       Governor                                                Greg Abbott                           PRECINCT 8                                             01 
01060010015000039REP       Governor                                                Greg Abbott                           PRECINCT 9                                             01 
01060010016000111REP       Governor                                                Greg Abbott                           PRECINCT 10                                            01 
01060010017000064REP       Governor                                                Greg Abbott                           PRECINCT 12                                            01 
01060010018000109REP       Governor                                                Greg Abbott                           PRECINCT 13                                            01 
01060020001000188DEM       Governor                                                Wendy R. Davis                        PRECINCT 1A                                            01 
01060020002000297DEM       Governor                                                Wendy R. Davis                        PRECINCT 1B                                            01 
01060020003000215DEM       Governor                                                Wendy R. Davis                        PRECINCT 1C                                            01 
01060020004000145DEM       Governor                                                Wendy R. Davis                        PRECINCT 1D                                            01 
01060020005000172DEM       Governor                                                Wendy R. Davis                        PRECINCT 1E                                            01 
01060020006000075DEM       Governor                                                Wendy R. Davis                        PRECINCT 1F                                            01 
01060020007000095DEM       Governor                                                Wendy R. Davis                        PRECINCT 2                                             01 
01060020008000181DEM       Governor                                                Wendy R. Davis                        PRECINCT 3A                                            01 
01060020009000048DEM       Governor                                                Wendy R. Davis                        PRECINCT 3B                                            01 
01060020010000085DEM       Governor                                                Wendy R. Davis                        PRECINCT 4                                             01 
01060020011000242DEM       Governor                                                Wendy R. Davis                        PRECINCT 5                                             01 
01060020012000147DEM       Governor                                                Wendy R. Davis                        PRECINCT 6                                             01 
01060020013000009DEM       Governor                                                Wendy R. Davis                        PRECINCT 7                                             01 
01060020014000063DEM       Governor                                                Wendy R. Davis                        PRECINCT 8                                             01 
01060020015000025DEM       Governor                                                Wendy R. Davis                        PRECINCT 9                                             01 
01060020016000023DEM       Governor                                                Wendy R. Davis                        PRECINCT 10                                            01 
01060020017000022DEM       Governor                                                Wendy R. Davis                        PRECINCT 12                                            01 
01060020018000083DEM       Governor                                                Wendy R. Davis                        PRECINCT 13                                            01 
01060030001000020LIB       Governor                                                Kathie Glass                          PRECINCT 1A                                            01 
01060030002000014LIB       Governor                                                Kathie Glass                          PRECINCT 1B                                            01 
01060030003000001LIB       Governor                                                Kathie Glass                          PRECINCT 1C                                            01 
01060030004000006LIB       Governor                                                Kathie Glass                          PRECINCT 1D                                            01 
01060030005000003LIB       Governor                                                Kathie Glass                          PRECINCT 1E                                            01 
01060030006000008LIB       Governor                                                Kathie Glass                          PRECINCT 1F                                            01 
01060030007000004LIB       Governor                                                Kathie Glass                          PRECINCT 2                                             01 
01060030008000008LIB       Governor                                                Kathie Glass                          PRECINCT 3A                                            01 
01060030009000008LIB       Governor                                                Kathie Glass                          PRECINCT 3B                                            01 
01060030010000010LIB       Governor                                                Kathie Glass                          PRECINCT 4                                             01 
01060030011000013LIB       Governor                                                Kathie Glass                          PRECINCT 5                                             01 
01060030012000010LIB       Governor                                                Kathie Glass                          PRECINCT 6                                             01 
01060030013000001LIB       Governor                                                Kathie Glass                          PRECINCT 7                                             01 
01060030014000000LIB       Governor                                                Kathie Glass                          PRECINCT 8                                             01 
01060030015000000LIB       Governor                                                Kathie Glass                          PRECINCT 9                                             01 
01060030016000003LIB       Governor                                                Kathie Glass                          PRECINCT 10                                            01 
01060030017000005LIB       Governor                                                Kathie Glass                          PRECINCT 12                                            01 
01060030018000002LIB       Governor                                                Kathie Glass                          PRECINCT 13                                            01 
01060040001000003GRN       Governor                                                Brandon Parmer                        PRECINCT 1A                                            01 
01060040002000004GRN       Governor                                                Brandon Parmer                        PRECINCT 1B                                            01 
01060040003000001GRN       Governor                                                Brandon Parmer                        PRECINCT 1C                                            01 
01060040004000001GRN       Governor                                                Brandon Parmer                        PRECINCT 1D                                            01 
01060040005000001GRN       Governor                                                Brandon Parmer                        PRECINCT 1E                                            01 
01060040006000001GRN       Governor                                                Brandon Parmer                        PRECINCT 1F                                            01 
01060040007000003GRN       Governor                                                Brandon Parmer                        PRECINCT 2                                             01 
01060040008000005GRN       Governor                                                Brandon Parmer                        PRECINCT 3A                                            01 
01060040009000003GRN       Governor                                                Brandon Parmer                        PRECINCT 3B                                            01 
01060040010000002GRN       Governor                                                Brandon Parmer                        PRECINCT 4                                             01 
01060040011000001GRN       Governor                                                Brandon Parmer                        PRECINCT 5                                             01 
01060040012000002GRN       Governor                                                Brandon Parmer                        PRECINCT 6                                             01 
01060040013000000GRN       Governor                                                Brandon Parmer                        PRECINCT 7                                             01 
01060040014000001GRN       Governor                                                Brandon Parmer                        PRECINCT 8                                             01 
01060040015000000GRN       Governor                                                Brandon Parmer                        PRECINCT 9                                             01 
01060040016000001GRN       Governor                                                Brandon Parmer                        PRECINCT 10                                            01 
01060040017000000GRN       Governor                                                Brandon Parmer                        PRECINCT 12                                            01 
01060040018000000GRN       Governor                                                Brandon Parmer                        PRECINCT 13                                            01 
01060050001000000NON       Governor                                                WRITE-IN                              PRECINCT 1A                                            01 
01060050002000000NON       Governor                                                WRITE-IN                              PRECINCT 1B                                            01 
01060050003000000NON       Governor                                                WRITE-IN                              PRECINCT 1C                                            01 
01060050004000000NON       Governor                                                WRITE-IN                              PRECINCT 1D                                            01 
01060050005000002NON       Governor                                                WRITE-IN                              PRECINCT 1E                                            01 
01060050006000000NON       Governor                                                WRITE-IN                              PRECINCT 1F                                            01 
01060050007000002NON       Governor                                                WRITE-IN                              PRECINCT 2                                             01 
01060050008000000NON       Governor                                                WRITE-IN                              PRECINCT 3A                                            01 
01060050009000000NON       Governor                                                WRITE-IN                              PRECINCT 3B                                            01 
01060050010000000NON       Governor                                                WRITE-IN                              PRECINCT 4                                             01 
01060050011000002NON       Governor                                                WRITE-IN                              PRECINCT 5                                             01 
01060050012000000NON       Governor                                                WRITE-IN                              PRECINCT 6                                             01 
01060050013000000NON       Governor                                                WRITE-IN                              PRECINCT 7                                             01 
01060050014000000NON       Governor                                                WRITE-IN                              PRECINCT 8                                             01 
01060050015000000NON       Governor                                                WRITE-IN                              PRECINCT 9                                             01 
01060050016000001NON       Governor                                                WRITE-IN                              PRECINCT 10                                            01 
01060050017000000NON       Governor                                                WRITE-IN                              PRECINCT 12                                            01 
01060050018000000NON       Governor                                                WRITE-IN                              PRECINCT 13                                            01 
01060060001000000          Governor                                                OVER VOTES                            PRECINCT 1A                                            01 
01060060002000000          Governor                                                OVER VOTES                            PRECINCT 1B                                            01 
01060060003000000          Governor                                                OVER VOTES                            PRECINCT 1C                                            01 
01060060004000000          Governor                                                OVER VOTES                            PRECINCT 1D                                            01 
01060060005000000          Governor                                                OVER VOTES                            PRECINCT 1E                                            01 
01060060006000000          Governor                                                OVER VOTES                            PRECINCT 1F                                            01 
01060060007000000          Governor                                                OVER VOTES                            PRECINCT 2                                             01 
01060060008000000          Governor                                                OVER VOTES                            PRECINCT 3A                                            01 
01060060009000000          Governor                                                OVER VOTES                            PRECINCT 3B                                            01 
01060060010000000          Governor                                                OVER VOTES                            PRECINCT 4                                             01 
01060060011000000          Governor                                                OVER VOTES                            PRECINCT 5                                             01 
01060060012000000          Governor                                                OVER VOTES                            PRECINCT 6                                             01 
01060060013000000          Governor                                                OVER VOTES                            PRECINCT 7                                             01 
01060060014000000          Governor                                                OVER VOTES                            PRECINCT 8                                             01 
01060060015000000          Governor                                                OVER VOTES                            PRECINCT 9                                             01 
01060060016000000          Governor                                                OVER VOTES                            PRECINCT 10                                            01 
01060060017000000          Governor                                                OVER VOTES                            PRECINCT 12                                            01 
01060060018000000          Governor                                                OVER VOTES                            PRECINCT 13                                            01 
01060070001000008          Governor                                                UNDER VOTES                           PRECINCT 1A                                            01 
01060070002000004          Governor                                                UNDER VOTES                           PRECINCT 1B                                            01 
01060070003000005          Governor                                                UNDER VOTES                           PRECINCT 1C                                            01 
01060070004000004          Governor                                                UNDER VOTES                           PRECINCT 1D                                            01 
01060070005000004          Governor                                                UNDER VOTES                           PRECINCT 1E                                            01 
01060070006000000          Governor                                                UNDER VOTES                           PRECINCT 1F                                            01 
01060070007000003          Governor                                                UNDER VOTES                           PRECINCT 2                                             01 
01060070008000007          Governor                                                UNDER VOTES                           PRECINCT 3A                                            01 
01060070009000004          Governor                                                UNDER VOTES                           PRECINCT 3B                                            01 
01060070010000004          Governor                                                UNDER VOTES                           PRECINCT 4                                             01 
01060070011000010          Governor                                                UNDER VOTES                           PRECINCT 5                                             01 
01060070012000006          Governor                                                UNDER VOTES                           PRECINCT 6                                             01 
01060070013000001          Governor                                                UNDER VOTES                           PRECINCT 7                                             01 
01060070014000006          Governor                                                UNDER VOTES                           PRECINCT 8                                             01 
01060070015000001          Governor                                                UNDER VOTES                           PRECINCT 9                                             01 
01060070016000001          Governor                                                UNDER VOTES                           PRECINCT 10                                            01 
01060070017000000          Governor                                                UNDER VOTES                           PRECINCT 12                                            01 
01060070018000005          Governor                                                UNDER VOTES                           PRECINCT 13                                            01 
01070010001000709REP       Lieutenant Governor                                     Dan Patrick                           PRECINCT 1A                                            01 
01070010002000762REP       Lieutenant Governor                                     Dan Patrick                           PRECINCT 1B                                            01 
01070010003000100REP       Lieutenant Governor                                     Dan Patrick                           PRECINCT 1C                                            01 
01070010004000165REP       Lieutenant Governor                                     Dan Patrick                           PRECINCT 1D                                            01 
01070010005000223REP       Lieutenant Governor                                     Dan Patrick                           PRECINCT 1E                                            01 
01070010006000137REP       Lieutenant Governor                                     Dan Patrick                           PRECINCT 1F                                            01 
01070010007000255REP       Lieutenant Governor                                     Dan Patrick                           PRECINCT 2                                             01 
01070010008000307REP       Lieutenant Governor                                     Dan Patrick                           PRECINCT 3A                                            01 
01070010009000191REP       Lieutenant Governor                                     Dan Patrick                           PRECINCT 3B                                            01 
01070010010000321REP       Lieutenant Governor                                     Dan Patrick                           PRECINCT 4                                             01 
01070010011000520REP       Lieutenant Governor                                     Dan Patrick                           PRECINCT 5                                             01 
01070010012000367REP       Lieutenant Governor                                     Dan Patrick                           PRECINCT 6                                             01 
01070010013000060REP       Lieutenant Governor                                     Dan Patrick                           PRECINCT 7                                             01 
01070010014000206REP       Lieutenant Governor                                     Dan Patrick                           PRECINCT 8                                             01 
01070010015000040REP       Lieutenant Governor                                     Dan Patrick                           PRECINCT 9                                             01 
01070010016000116REP       Lieutenant Governor                                     Dan Patrick                           PRECINCT 10                                            01 
01070010017000070REP       Lieutenant Governor                                     Dan Patrick                           PRECINCT 12                                            01 
01070010018000105REP       Lieutenant Governor                                     Dan Patrick                           PRECINCT 13                                            01 
01070020001000176DEM       Lieutenant Governor                                     Leticia Van de Putte                  PRECINCT 1A                                            01 
01070020002000271DEM       Lieutenant Governor                                     Leticia Van de Putte                  PRECINCT 1B                                            01 
01070020003000213DEM       Lieutenant Governor                                     Leticia Van de Putte                  PRECINCT 1C                                            01 
01070020004000146DEM       Lieutenant Governor                                     Leticia Van de Putte                  PRECINCT 1D                                            01 
01070020005000170DEM       Lieutenant Governor                                     Leticia Van de Putte                  PRECINCT 1E                                            01 
01070020006000076DEM       Lieutenant Governor                                     Leticia Van de Putte                  PRECINCT 1F                                            01 
01070020007000089DEM       Lieutenant Governor                                     Leticia Van de Putte                  PRECINCT 2                                             01 
01070020008000186DEM       Lieutenant Governor                                     Leticia Van de Putte                  PRECINCT 3A                                            01 
01070020009000046DEM       Lieutenant Governor                                     Leticia Van de Putte                  PRECINCT 3B                                            01 
01070020010000086DEM       Lieutenant Governor                                     Leticia Van de Putte                  PRECINCT 4                                             01 
01070020011000231DEM       Lieutenant Governor                                     Leticia Van de Putte                  PRECINCT 5                                             01 
01070020012000144DEM       Lieutenant Governor                                     Leticia Van de Putte                  PRECINCT 6                                             01 
01070020013000009DEM       Lieutenant Governor                                     Leticia Van de Putte                  PRECINCT 7                                             01 
01070020014000060DEM       Lieutenant Governor                                     Leticia Van de Putte                  PRECINCT 8                                             01 
01070020015000024DEM       Lieutenant Governor                                     Leticia Van de Putte                  PRECINCT 9                                             01 
01070020016000017DEM       Lieutenant Governor                                     Leticia Van de Putte                  PRECINCT 10                                            01 
01070020017000016DEM       Lieutenant Governor                                     Leticia Van de Putte                  PRECINCT 12                                            01 
01070020018000085DEM       Lieutenant Governor                                     Leticia Van de Putte                  PRECINCT 13                                            01 
01070030001000031LIB       Lieutenant Governor                                     Robert D. Butler                      PRECINCT 1A                                            01 
01070030002000035LIB       Lieutenant Governor                                     Robert D. Butler                      PRECINCT 1B                                            01 
01070030003000002LIB       Lieutenant Governor                                     Robert D. Butler                      PRECINCT 1C                                            01 
01070030004000006LIB       Lieutenant Governor                                     Robert D. Butler                      PRECINCT 1D                                            01 
01070030005000009LIB       Lieutenant Governor                                     Robert D. Butler                      PRECINCT 1E                                            01 
01070030006000005LIB       Lieutenant Governor                                     Robert D. Butler                      PRECINCT 1F                                            01 
01070030007000013LIB       Lieutenant Governor                                     Robert D. Butler                      PRECINCT 2                                             01 
01070030008000010LIB       Lieutenant Governor                                     Robert D. Butler                      PRECINCT 3A                                            01 
01070030009000015LIB       Lieutenant Governor                                     Robert D. Butler                      PRECINCT 3B                                            01 
01070030010000012LIB       Lieutenant Governor                                     Robert D. Butler                      PRECINCT 4                                             01 
01070030011000024LIB       Lieutenant Governor                                     Robert D. Butler                      PRECINCT 5                                             01 
01070030012000014LIB       Lieutenant Governor                                     Robert D. Butler                      PRECINCT 6                                             01 
01070030013000002LIB       Lieutenant Governor                                     Robert D. Butler                      PRECINCT 7                                             01 
01070030014000008LIB       Lieutenant Governor                                     Robert D. Butler                      PRECINCT 8                                             01 
01070030015000000LIB       Lieutenant Governor                                     Robert D. Butler                      PRECINCT 9                                             01 
01070030016000003LIB       Lieutenant Governor                                     Robert D. Butler                      PRECINCT 10                                            01 
01070030017000004LIB       Lieutenant Governor                                     Robert D. Butler                      PRECINCT 12                                            01 
01070030018000004LIB       Lieutenant Governor                                     Robert D. Butler                      PRECINCT 13                                            01 
01070040001000003GRN       Lieutenant Governor                                     Chandrakantha Courtney                PRECINCT 1A                                            01 
01070040002000006GRN       Lieutenant Governor                                     Chandrakantha Courtney                PRECINCT 1B                                            01 
01070040003000002GRN       Lieutenant Governor                                     Chandrakantha Courtney                PRECINCT 1C                                            01 
01070040004000002GRN       Lieutenant Governor                                     Chandrakantha Courtney                PRECINCT 1D                                            01 
01070040005000001GRN       Lieutenant Governor                                     Chandrakantha Courtney                PRECINCT 1E                                            01 
01070040006000001GRN       Lieutenant Governor                                     Chandrakantha Courtney                PRECINCT 1F                                            01 
01070040007000000GRN       Lieutenant Governor                                     Chandrakantha Courtney                PRECINCT 2                                             01 
01070040008000002GRN       Lieutenant Governor                                     Chandrakantha Courtney                PRECINCT 3A                                            01 
01070040009000001GRN       Lieutenant Governor                                     Chandrakantha Courtney                PRECINCT 3B                                            01 
01070040010000002GRN       Lieutenant Governor                                     Chandrakantha Courtney                PRECINCT 4                                             01 
01070040011000002GRN       Lieutenant Governor                                     Chandrakantha Courtney                PRECINCT 5                                             01 
01070040012000003GRN       Lieutenant Governor                                     Chandrakantha Courtney                PRECINCT 6                                             01 
