01010010001000646000000000000000000000000000000          REGISTERED VOTERS - TOTAL                               REGISTERED VOTERS - TOTAL             PCT 101                                                00 
01010010002001970000000000000000000000000000000          REGISTERED VOTERS - TOTAL                               REGISTERED VOTERS - TOTAL             PCT 102                                                00 
01010010003002620000000000000000000000000000000          REGISTERED VOTERS - TOTAL                               REGISTERED VOTERS - TOTAL             PCT 103                                                00 
01010010004000889000000000000000000000000000000          REGISTERED VOTERS - TOTAL                               REGISTERED VOTERS - TOTAL             PCT 104                                                00 
01010010005001688000000000000000000000000000000          REGISTERED VOTERS - TOTAL                               REGISTERED VOTERS - TOTAL             PCT 105                                                00 
01010010006003097000000000000000000000000000000          REGISTERED VOTERS - TOTAL                               REGISTERED VOTERS - TOTAL             PCT 106                                                00 
01010010007002748000000000000000000000000000000          REGISTERED VOTERS - TOTAL                               REGISTERED VOTERS - TOTAL             PCT 107                                                00 
01010010008000554000000000000000000000000000000          REGISTERED VOTERS - TOTAL                               REGISTERED VOTERS - TOTAL             PCT 108                                                00 
01010010009000476000000000000000000000000000000          REGISTERED VOTERS - TOTAL                               REGISTERED VOTERS - TOTAL             PCT 108A                                               00 
01010010010000777000000000000000000000000000000          REGISTERED VOTERS - TOTAL                               REGISTERED VOTERS - TOTAL             PCT 109                                                00 
01010010011002366000000000000000000000000000000          REGISTERED VOTERS - TOTAL                               REGISTERED VOTERS - TOTAL             PCT 110                                                00 
01010010012002203000000000000000000000000000000          REGISTERED VOTERS - TOTAL                               REGISTERED VOTERS - TOTAL             PCT 201                                                00 
01010010013004239000000000000000000000000000000          REGISTERED VOTERS - TOTAL                               REGISTERED VOTERS - TOTAL             PCT 202                                                00 
01010010014000608000000000000000000000000000000          REGISTERED VOTERS - TOTAL                               REGISTERED VOTERS - TOTAL             PCT 203                                                00 
01010010015002569000000000000000000000000000000          REGISTERED VOTERS - TOTAL                               REGISTERED VOTERS - TOTAL             PCT 204                                                00 
01010010016000982000000000000000000000000000000          REGISTERED VOTERS - TOTAL                               REGISTERED VOTERS - TOTAL             PCT 205                                                00 
01010010017001703000000000000000000000000000000          REGISTERED VOTERS - TOTAL                               REGISTERED VOTERS - TOTAL             PCT 206                                                00 
01010010018002774000000000000000000000000000000          REGISTERED VOTERS - TOTAL                               REGISTERED VOTERS - TOTAL             PCT 207                                                00 
01010010019000883000000000000000000000000000000          REGISTERED VOTERS - TOTAL                               REGISTERED VOTERS - TOTAL             PCT 208                                                00 
01010010020001512000000000000000000000000000000          REGISTERED VOTERS - TOTAL                               REGISTERED VOTERS - TOTAL             PCT 210                                                00 
01010010021000835000000000000000000000000000000          REGISTERED VOTERS - TOTAL                               REGISTERED VOTERS - TOTAL             PCT 211                                                00 
01010010022001592000000000000000000000000000000          REGISTERED VOTERS - TOTAL                               REGISTERED VOTERS - TOTAL             PCT 212                                                00 
01010010023002863000000000000000000000000000000          REGISTERED VOTERS - TOTAL                               REGISTERED VOTERS - TOTAL             PCT 302                                                00 
01010010024000339000000000000000000000000000000          REGISTERED VOTERS - TOTAL                               REGISTERED VOTERS - TOTAL             PCT 303                                                00 
01010010025001490000000000000000000000000000000          REGISTERED VOTERS - TOTAL                               REGISTERED VOTERS - TOTAL             PCT 304                                                00 
01010010026001013000000000000000000000000000000          REGISTERED VOTERS - TOTAL                               REGISTERED VOTERS - TOTAL             PCT 305                                                00 
01010010027002154000000000000000000000000000000          REGISTERED VOTERS - TOTAL                               REGISTERED VOTERS - TOTAL             PCT 306                                                00 
01010010028001097000000000000000000000000000000          REGISTERED VOTERS - TOTAL                               REGISTERED VOTERS - TOTAL             PCT 307                                                00 
01010010029000251000000000000000000000000000000          REGISTERED VOTERS - TOTAL                               REGISTERED VOTERS - TOTAL             PCT 307A                                               00 
01010010030003480000000000000000000000000000000          REGISTERED VOTERS - TOTAL                               REGISTERED VOTERS - TOTAL             PCT 308                                                00 
01010010031000416000000000000000000000000000000          REGISTERED VOTERS - TOTAL                               REGISTERED VOTERS - TOTAL             PCT 309                                                00 
01010010032000031000000000000000000000000000000          REGISTERED VOTERS - TOTAL                               REGISTERED VOTERS - TOTAL             PCT 309A                                               00 
01010010033000296000000000000000000000000000000          REGISTERED VOTERS - TOTAL                               REGISTERED VOTERS - TOTAL             PCT 310                                                00 
01010010034000753000000000000000000000000000000          REGISTERED VOTERS - TOTAL                               REGISTERED VOTERS - TOTAL             PCT 401                                                00 
01010010035000280000000000000000000000000000000          REGISTERED VOTERS - TOTAL                               REGISTERED VOTERS - TOTAL             PCT 402                                                00 
01010010036000809000000000000000000000000000000          REGISTERED VOTERS - TOTAL                               REGISTERED VOTERS - TOTAL             PCT 402A                                               00 
01010010037003224000000000000000000000000000000          REGISTERED VOTERS - TOTAL                               REGISTERED VOTERS - TOTAL             PCT 403                                                00 
01010010038002540000000000000000000000000000000          REGISTERED VOTERS - TOTAL                               REGISTERED VOTERS - TOTAL             PCT 404                                                00 
01010010039002609000000000000000000000000000000          REGISTERED VOTERS - TOTAL                               REGISTERED VOTERS - TOTAL             PCT 405                                                00 
01010010040001473000000000000000000000000000000          REGISTERED VOTERS - TOTAL                               REGISTERED VOTERS - TOTAL             PCT 406                                                00 
01010010041002989000000000000000000000000000000          REGISTERED VOTERS - TOTAL                               REGISTERED VOTERS - TOTAL             PCT 407                                                00 
01010010042001707000000000000000000000000000000          REGISTERED VOTERS - TOTAL                               REGISTERED VOTERS - TOTAL             PCT 408                                                00 
01010010043001943000000000000000000000000000000          REGISTERED VOTERS - TOTAL                               REGISTERED VOTERS - TOTAL             PCT 409                                                00 
01010010044000685000000000000000000000000000000          REGISTERED VOTERS - TOTAL                               REGISTERED VOTERS - TOTAL             PCT 410                                                00 
01010010045003376000000000000000000000000000000          REGISTERED VOTERS - TOTAL                               REGISTERED VOTERS - TOTAL             PCT 411                                                00 
01020010001000078000044000034000000000000000000          BALLOTS CAST - TOTAL                                    BALLOTS CAST - TOTAL                  PCT 101                                                00 
01020010002000263000151000112000000000000000000          BALLOTS CAST - TOTAL                                    BALLOTS CAST - TOTAL                  PCT 102                                                00 
01020010003000447000270000177000000000000000000          BALLOTS CAST - TOTAL                                    BALLOTS CAST - TOTAL                  PCT 103                                                00 
01020010004000072000040000032000000000000000000          BALLOTS CAST - TOTAL                                    BALLOTS CAST - TOTAL                  PCT 104                                                00 
01020010005000203000118000085000000000000000000          BALLOTS CAST - TOTAL                                    BALLOTS CAST - TOTAL                  PCT 105                                                00 
01020010006000399000218000181000000000000000000          BALLOTS CAST - TOTAL                                    BALLOTS CAST - TOTAL                  PCT 106                                                00 
01020010007000601000379000222000000000000000000          BALLOTS CAST - TOTAL                                    BALLOTS CAST - TOTAL                  PCT 107                                                00 
01020010008000073000050000023000000000000000000          BALLOTS CAST - TOTAL                                    BALLOTS CAST - TOTAL                  PCT 108                                                00 
01020010009000058000028000030000000000000000000          BALLOTS CAST - TOTAL                                    BALLOTS CAST - TOTAL                  PCT 108A                                               00 
01020010010000074000046000028000000000000000000          BALLOTS CAST - TOTAL                                    BALLOTS CAST - TOTAL                  PCT 109                                                00 
01020010011000583000333000250000000000000000000          BALLOTS CAST - TOTAL                                    BALLOTS CAST - TOTAL                  PCT 110                                                00 
01020010012000369000199000170000000000000000000          BALLOTS CAST - TOTAL                                    BALLOTS CAST - TOTAL                  PCT 201                                                00 
01020010013000735000304000431000000000000000000          BALLOTS CAST - TOTAL                                    BALLOTS CAST - TOTAL                  PCT 202                                                00 
01020010014000113000054000059000000000000000000          BALLOTS CAST - TOTAL                                    BALLOTS CAST - TOTAL                  PCT 203                                                00 
01020010015000745000489000256000000000000000000          BALLOTS CAST - TOTAL                                    BALLOTS CAST - TOTAL                  PCT 204                                                00 
01020010016000361000197000164000000000000000000          BALLOTS CAST - TOTAL                                    BALLOTS CAST - TOTAL                  PCT 205                                                00 
01020010017000548000324000224000000000000000000          BALLOTS CAST - TOTAL                                    BALLOTS CAST - TOTAL                  PCT 206                                                00 
01020010018000880000599000281000000000000000000          BALLOTS CAST - TOTAL                                    BALLOTS CAST - TOTAL                  PCT 207                                                00 
01020010019000143000087000056000000000000000000          BALLOTS CAST - TOTAL                                    BALLOTS CAST - TOTAL                  PCT 208                                                00 
01020010020000298000190000108000000000000000000          BALLOTS CAST - TOTAL                                    BALLOTS CAST - TOTAL                  PCT 210                                                00 
01020010021000195000105000090000000000000000000          BALLOTS CAST - TOTAL                                    BALLOTS CAST - TOTAL                  PCT 211                                                00 
01020010022000322000189000133000000000000000000          BALLOTS CAST - TOTAL                                    BALLOTS CAST - TOTAL                  PCT 212                                                00 
01020010023000370000213000157000000000000000000          BALLOTS CAST - TOTAL                                    BALLOTS CAST - TOTAL                  PCT 302                                                00 
01020010024000024000015000009000000000000000000          BALLOTS CAST - TOTAL                                    BALLOTS CAST - TOTAL                  PCT 303                                                00 
01020010025000077000036000041000000000000000000          BALLOTS CAST - TOTAL                                    BALLOTS CAST - TOTAL                  PCT 304                                                00 
01020010026000082000040000042000000000000000000          BALLOTS CAST - TOTAL                                    BALLOTS CAST - TOTAL                  PCT 305                                                00 
01020010027000175000095000080000000000000000000          BALLOTS CAST - TOTAL                                    BALLOTS CAST - TOTAL                  PCT 306                                                00 
01020010028000239000123000116000000000000000000          BALLOTS CAST - TOTAL                                    BALLOTS CAST - TOTAL                  PCT 307                                                00 
01020010029000040000018000022000000000000000000          BALLOTS CAST - TOTAL                                    BALLOTS CAST - TOTAL                  PCT 307A                                               00 
01020010030000396000214000182000000000000000000          BALLOTS CAST - TOTAL                                    BALLOTS CAST - TOTAL                  PCT 308                                                00 
01020010031000031000016000015000000000000000000          BALLOTS CAST - TOTAL                                    BALLOTS CAST - TOTAL                  PCT 309                                                00 
01020010032000006000002000004000000000000000000          BALLOTS CAST - TOTAL                                    BALLOTS CAST - TOTAL                  PCT 309A                                               00 
01020010033000035000018000017000000000000000000          BALLOTS CAST - TOTAL                                    BALLOTS CAST - TOTAL                  PCT 310                                                00 
01020010034000132000057000075000000000000000000          BALLOTS CAST - TOTAL                                    BALLOTS CAST - TOTAL                  PCT 401                                                00 
01020010035000072000030000042000000000000000000          BALLOTS CAST - TOTAL                                    BALLOTS CAST - TOTAL                  PCT 402                                                00 
01020010036000190000112000078000000000000000000          BALLOTS CAST - TOTAL                                    BALLOTS CAST - TOTAL                  PCT 402A                                               00 
01020010037000826000516000310000000000000000000          BALLOTS CAST - TOTAL                                    BALLOTS CAST - TOTAL                  PCT 403                                                00 
01020010038000662000397000265000000000000000000          BALLOTS CAST - TOTAL                                    BALLOTS CAST - TOTAL                  PCT 404                                                00 
01020010039000622000377000245000000000000000000          BALLOTS CAST - TOTAL                                    BALLOTS CAST - TOTAL                  PCT 405                                                00 
01020010040000277000081000196000000000000000000          BALLOTS CAST - TOTAL                                    BALLOTS CAST - TOTAL                  PCT 406                                                00 
01020010041000354000173000181000000000000000000          BALLOTS CAST - TOTAL                                    BALLOTS CAST - TOTAL                  PCT 407                                                00 
01020010042000465000267000198000000000000000000          BALLOTS CAST - TOTAL                                    BALLOTS CAST - TOTAL                  PCT 408                                                00 
01020010043000378000219000159000000000000000000          BALLOTS CAST - TOTAL                                    BALLOTS CAST - TOTAL                  PCT 409                                                00 
01020010044000148000082000066000000000000000000          BALLOTS CAST - TOTAL                                    BALLOTS CAST - TOTAL                  PCT 410                                                00 
01020010045000885000508000377000000000000000000          BALLOTS CAST - TOTAL                                    BALLOTS CAST - TOTAL                  PCT 411                                                00 
01030010001000074000042000032000000000000000000REP       BALLOTS CAST - REPUBLICAN PARTY                         BALLOTS CAST - REPUBLICAN PARTY       PCT 101                                                00 
01030010002000249000147000102000000000000000000REP       BALLOTS CAST - REPUBLICAN PARTY                         BALLOTS CAST - REPUBLICAN PARTY       PCT 102                                                00 
01030010003000417000257000160000000000000000000REP       BALLOTS CAST - REPUBLICAN PARTY                         BALLOTS CAST - REPUBLICAN PARTY       PCT 103                                                00 
01030010004000065000036000029000000000000000000REP       BALLOTS CAST - REPUBLICAN PARTY                         BALLOTS CAST - REPUBLICAN PARTY       PCT 104                                                00 
01030010005000182000110000072000000000000000000REP       BALLOTS CAST - REPUBLICAN PARTY                         BALLOTS CAST - REPUBLICAN PARTY       PCT 105                                                00 
01030010006000357000199000158000000000000000000REP       BALLOTS CAST - REPUBLICAN PARTY                         BALLOTS CAST - REPUBLICAN PARTY       PCT 106                                                00 
01030010007000571000364000207000000000000000000REP       BALLOTS CAST - REPUBLICAN PARTY                         BALLOTS CAST - REPUBLICAN PARTY       PCT 107                                                00 
01030010008000071000049000022000000000000000000REP       BALLOTS CAST - REPUBLICAN PARTY                         BALLOTS CAST - REPUBLICAN PARTY       PCT 108                                                00 
01030010009000057000027000030000000000000000000REP       BALLOTS CAST - REPUBLICAN PARTY                         BALLOTS CAST - REPUBLICAN PARTY       PCT 108A                                               00 
01030010010000068000041000027000000000000000000REP       BALLOTS CAST - REPUBLICAN PARTY                         BALLOTS CAST - REPUBLICAN PARTY       PCT 109                                                00 
01030010011000572000325000247000000000000000000REP       BALLOTS CAST - REPUBLICAN PARTY                         BALLOTS CAST - REPUBLICAN PARTY       PCT 110                                                00 
01030010012000357000192000165000000000000000000REP       BALLOTS CAST - REPUBLICAN PARTY                         BALLOTS CAST - REPUBLICAN PARTY       PCT 201                                                00 
01030010013000708000291000417000000000000000000REP       BALLOTS CAST - REPUBLICAN PARTY                         BALLOTS CAST - REPUBLICAN PARTY       PCT 202                                                00 
01030010014000107000051000056000000000000000000REP       BALLOTS CAST - REPUBLICAN PARTY                         BALLOTS CAST - REPUBLICAN PARTY       PCT 203                                                00 
01030010015000721000474000247000000000000000000REP       BALLOTS CAST - REPUBLICAN PARTY                         BALLOTS CAST - REPUBLICAN PARTY       PCT 204                                                00 
01030010016000350000189000161000000000000000000REP       BALLOTS CAST - REPUBLICAN PARTY                         BALLOTS CAST - REPUBLICAN PARTY       PCT 205                                                00 
01030010017000537000320000217000000000000000000REP       BALLOTS CAST - REPUBLICAN PARTY                         BALLOTS CAST - REPUBLICAN PARTY       PCT 206                                                00 
01030010018000832000567000265000000000000000000REP       BALLOTS CAST - REPUBLICAN PARTY                         BALLOTS CAST - REPUBLICAN PARTY       PCT 207                                                00 
01030010019000122000076000046000000000000000000REP       BALLOTS CAST - REPUBLICAN PARTY                         BALLOTS CAST - REPUBLICAN PARTY       PCT 208                                                00 
01030010020000289000186000103000000000000000000REP       BALLOTS CAST - REPUBLICAN PARTY                         BALLOTS CAST - REPUBLICAN PARTY       PCT 210                                                00 
01030010021000187000100000087000000000000000000REP       BALLOTS CAST - REPUBLICAN PARTY                         BALLOTS CAST - REPUBLICAN PARTY       PCT 211                                                00 
01030010022000304000181000123000000000000000000REP       BALLOTS CAST - REPUBLICAN PARTY                         BALLOTS CAST - REPUBLICAN PARTY       PCT 212                                                00 
01030010023000330000185000145000000000000000000REP       BALLOTS CAST - REPUBLICAN PARTY                         BALLOTS CAST - REPUBLICAN PARTY       PCT 302                                                00 
01030010024000020000012000008000000000000000000REP       BALLOTS CAST - REPUBLICAN PARTY                         BALLOTS CAST - REPUBLICAN PARTY       PCT 303                                                00 
01030010025000055000026000029000000000000000000REP       BALLOTS CAST - REPUBLICAN PARTY                         BALLOTS CAST - REPUBLICAN PARTY       PCT 304                                                00 
01030010026000022000007000015000000000000000000REP       BALLOTS CAST - REPUBLICAN PARTY                         BALLOTS CAST - REPUBLICAN PARTY       PCT 305                                                00 
01030010027000084000052000032000000000000000000REP       BALLOTS CAST - REPUBLICAN PARTY                         BALLOTS CAST - REPUBLICAN PARTY       PCT 306                                                00 
01030010028000218000113000105000000000000000000REP       BALLOTS CAST - REPUBLICAN PARTY                         BALLOTS CAST - REPUBLICAN PARTY       PCT 307                                                00 
01030010029000036000017000019000000000000000000REP       BALLOTS CAST - REPUBLICAN PARTY                         BALLOTS CAST - REPUBLICAN PARTY       PCT 307A                                               00 
01030010030000174000105000069000000000000000000REP       BALLOTS CAST - REPUBLICAN PARTY                         BALLOTS CAST - REPUBLICAN PARTY       PCT 308                                                00 
01030010031000026000014000012000000000000000000REP       BALLOTS CAST - REPUBLICAN PARTY                         BALLOTS CAST - REPUBLICAN PARTY       PCT 309                                                00 
01030010032000006000002000004000000000000000000REP       BALLOTS CAST - REPUBLICAN PARTY                         BALLOTS CAST - REPUBLICAN PARTY       PCT 309A                                               00 
01030010033000028000013000015000000000000000000REP       BALLOTS CAST - REPUBLICAN PARTY                         BALLOTS CAST - REPUBLICAN PARTY       PCT 310                                                00 
01030010034000125000052000073000000000000000000REP       BALLOTS CAST - REPUBLICAN PARTY                         BALLOTS CAST - REPUBLICAN PARTY       PCT 401                                                00 
01030010035000071000030000041000000000000000000REP       BALLOTS CAST - REPUBLICAN PARTY                         BALLOTS CAST - REPUBLICAN PARTY       PCT 402                                                00 
01030010036000178000107000071000000000000000000REP       BALLOTS CAST - REPUBLICAN PARTY                         BALLOTS CAST - REPUBLICAN PARTY       PCT 402A                                               00 
01030010037000788000493000295000000000000000000REP       BALLOTS CAST - REPUBLICAN PARTY                         BALLOTS CAST - REPUBLICAN PARTY       PCT 403                                                00 
01030010038000635000386000249000000000000000000REP       BALLOTS CAST - REPUBLICAN PARTY                         BALLOTS CAST - REPUBLICAN PARTY       PCT 404                                                00 
01030010039000594000365000229000000000000000000REP       BALLOTS CAST - REPUBLICAN PARTY                         BALLOTS CAST - REPUBLICAN PARTY       PCT 405                                                00 
01030010040000272000080000192000000000000000000REP       BALLOTS CAST - REPUBLICAN PARTY                         BALLOTS CAST - REPUBLICAN PARTY       PCT 406                                                00 
01030010041000334000165000169000000000000000000REP       BALLOTS CAST - REPUBLICAN PARTY                         BALLOTS CAST - REPUBLICAN PARTY       PCT 407                                                00 
01030010042000455000262000193000000000000000000REP       BALLOTS CAST - REPUBLICAN PARTY                         BALLOTS CAST - REPUBLICAN PARTY       PCT 408                                                00 
01030010043000367000214000153000000000000000000REP       BALLOTS CAST - REPUBLICAN PARTY                         BALLOTS CAST - REPUBLICAN PARTY       PCT 409                                                00 
01030010044000147000081000066000000000000000000REP       BALLOTS CAST - REPUBLICAN PARTY                         BALLOTS CAST - REPUBLICAN PARTY       PCT 410                                                00 
01030010045000858000491000367000000000000000000REP       BALLOTS CAST - REPUBLICAN PARTY                         BALLOTS CAST - REPUBLICAN PARTY       PCT 411                                                00 
01040010001000004000002000002000000000000000000DEM       BALLOTS CAST - DEMOCRATIC PARTY                         BALLOTS CAST - DEMOCRATIC PARTY       PCT 101                                                00 
01040010002000014000004000010000000000000000000DEM       BALLOTS CAST - DEMOCRATIC PARTY                         BALLOTS CAST - DEMOCRATIC PARTY       PCT 102                                                00 
01040010003000030000013000017000000000000000000DEM       BALLOTS CAST - DEMOCRATIC PARTY                         BALLOTS CAST - DEMOCRATIC PARTY       PCT 103                                                00 
01040010004000007000004000003000000000000000000DEM       BALLOTS CAST - DEMOCRATIC PARTY                         BALLOTS CAST - DEMOCRATIC PARTY       PCT 104                                                00 
01040010005000021000008000013000000000000000000DEM       BALLOTS CAST - DEMOCRATIC PARTY                         BALLOTS CAST - DEMOCRATIC PARTY       PCT 105                                                00 
01040010006000042000019000023000000000000000000DEM       BALLOTS CAST - DEMOCRATIC PARTY                         BALLOTS CAST - DEMOCRATIC PARTY       PCT 106                                                00 
01040010007000030000015000015000000000000000000DEM       BALLOTS CAST - DEMOCRATIC PARTY                         BALLOTS CAST - DEMOCRATIC PARTY       PCT 107                                                00 
01040010008000002000001000001000000000000000000DEM       BALLOTS CAST - DEMOCRATIC PARTY                         BALLOTS CAST - DEMOCRATIC PARTY       PCT 108                                                00 
01040010009000001000001000000000000000000000000DEM       BALLOTS CAST - DEMOCRATIC PARTY                         BALLOTS CAST - DEMOCRATIC PARTY       PCT 108A                                               00 
01040010010000006000005000001000000000000000000DEM       BALLOTS CAST - DEMOCRATIC PARTY                         BALLOTS CAST - DEMOCRATIC PARTY       PCT 109                                                00 
01040010011000011000008000003000000000000000000DEM       BALLOTS CAST - DEMOCRATIC PARTY                         BALLOTS CAST - DEMOCRATIC PARTY       PCT 110                                                00 
01040010012000012000007000005000000000000000000DEM       BALLOTS CAST - DEMOCRATIC PARTY                         BALLOTS CAST - DEMOCRATIC PARTY       PCT 201                                                00 
01040010013000027000013000014000000000000000000DEM       BALLOTS CAST - DEMOCRATIC PARTY                         BALLOTS CAST - DEMOCRATIC PARTY       PCT 202                                                00 
01040010014000006000003000003000000000000000000DEM       BALLOTS CAST - DEMOCRATIC PARTY                         BALLOTS CAST - DEMOCRATIC PARTY       PCT 203                                                00 
01040010015000024000015000009000000000000000000DEM       BALLOTS CAST - DEMOCRATIC PARTY                         BALLOTS CAST - DEMOCRATIC PARTY       PCT 204                                                00 
01040010016000011000008000003000000000000000000DEM       BALLOTS CAST - DEMOCRATIC PARTY                         BALLOTS CAST - DEMOCRATIC PARTY       PCT 205                                                00 
01040010017000011000004000007000000000000000000DEM       BALLOTS CAST - DEMOCRATIC PARTY                         BALLOTS CAST - DEMOCRATIC PARTY       PCT 206                                                00 
01040010018000048000032000016000000000000000000DEM       BALLOTS CAST - DEMOCRATIC PARTY                         BALLOTS CAST - DEMOCRATIC PARTY       PCT 207                                                00 
01040010019000021000011000010000000000000000000DEM       BALLOTS CAST - DEMOCRATIC PARTY                         BALLOTS CAST - DEMOCRATIC PARTY       PCT 208                                                00 
01040010020000009000004000005000000000000000000DEM       BALLOTS CAST - DEMOCRATIC PARTY                         BALLOTS CAST - DEMOCRATIC PARTY       PCT 210                                                00 
01040010021000008000005000003000000000000000000DEM       BALLOTS CAST - DEMOCRATIC PARTY                         BALLOTS CAST - DEMOCRATIC PARTY       PCT 211                                                00 
01040010022000018000008000010000000000000000000DEM       BALLOTS CAST - DEMOCRATIC PARTY                         BALLOTS CAST - DEMOCRATIC PARTY       PCT 212                                                00 
01040010023000040000028000012000000000000000000DEM       BALLOTS CAST - DEMOCRATIC PARTY                         BALLOTS CAST - DEMOCRATIC PARTY       PCT 302                                                00 
01040010024000004000003000001000000000000000000DEM       BALLOTS CAST - DEMOCRATIC PARTY                         BALLOTS CAST - DEMOCRATIC PARTY       PCT 303                                                00 
01040010025000022000010000012000000000000000000DEM       BALLOTS CAST - DEMOCRATIC PARTY                         BALLOTS CAST - DEMOCRATIC PARTY       PCT 304                                                00 
01040010026000060000033000027000000000000000000DEM       BALLOTS CAST - DEMOCRATIC PARTY                         BALLOTS CAST - DEMOCRATIC PARTY       PCT 305                                                00 
01040010027000091000043000048000000000000000000DEM       BALLOTS CAST - DEMOCRATIC PARTY                         BALLOTS CAST - DEMOCRATIC PARTY       PCT 306                                                00 
01040010028000021000010000011000000000000000000DEM       BALLOTS CAST - DEMOCRATIC PARTY                         BALLOTS CAST - DEMOCRATIC PARTY       PCT 307                                                00 
01040010029000004000001000003000000000000000000DEM       BALLOTS CAST - DEMOCRATIC PARTY                         BALLOTS CAST - DEMOCRATIC PARTY       PCT 307A                                               00 
01040010030000222000109000113000000000000000000DEM       BALLOTS CAST - DEMOCRATIC PARTY                         BALLOTS CAST - DEMOCRATIC PARTY       PCT 308                                                00 
01040010031000005000002000003000000000000000000DEM       BALLOTS CAST - DEMOCRATIC PARTY                         BALLOTS CAST - DEMOCRATIC PARTY       PCT 309                                                00 
01040010032000000000000000000000000000000000000DEM       BALLOTS CAST - DEMOCRATIC PARTY                         BALLOTS CAST - DEMOCRATIC PARTY       PCT 309A                                               00 
01040010033000007000005000002000000000000000000DEM       BALLOTS CAST - DEMOCRATIC PARTY                         BALLOTS CAST - DEMOCRATIC PARTY       PCT 310                                                00 
01040010034000007000005000002000000000000000000DEM       BALLOTS CAST - DEMOCRATIC PARTY                         BALLOTS CAST - DEMOCRATIC PARTY       PCT 401                                                00 
01040010035000001000000000001000000000000000000DEM       BALLOTS CAST - DEMOCRATIC PARTY                         BALLOTS CAST - DEMOCRATIC PARTY       PCT 402                                                00 
01040010036000012000005000007000000000000000000DEM       BALLOTS CAST - DEMOCRATIC PARTY                         BALLOTS CAST - DEMOCRATIC PARTY       PCT 402A                                               00 
01040010037000038000023000015000000000000000000DEM       BALLOTS CAST - DEMOCRATIC PARTY                         BALLOTS CAST - DEMOCRATIC PARTY       PCT 403                                                00 
01040010038000027000011000016000000000000000000DEM       BALLOTS CAST - DEMOCRATIC PARTY                         BALLOTS CAST - DEMOCRATIC PARTY       PCT 404                                                00 
01040010039000028000012000016000000000000000000DEM       BALLOTS CAST - DEMOCRATIC PARTY                         BALLOTS CAST - DEMOCRATIC PARTY       PCT 405                                                00 
01040010040000005000001000004000000000000000000DEM       BALLOTS CAST - DEMOCRATIC PARTY                         BALLOTS CAST - DEMOCRATIC PARTY       PCT 406                                                00 
01040010041000020000008000012000000000000000000DEM       BALLOTS CAST - DEMOCRATIC PARTY                         BALLOTS CAST - DEMOCRATIC PARTY       PCT 407                                                00 
01040010042000010000005000005000000000000000000DEM       BALLOTS CAST - DEMOCRATIC PARTY                         BALLOTS CAST - DEMOCRATIC PARTY       PCT 408                                                00 
01040010043000011000005000006000000000000000000DEM       BALLOTS CAST - DEMOCRATIC PARTY                         BALLOTS CAST - DEMOCRATIC PARTY       PCT 409                                                00 
01040010044000001000001000000000000000000000000DEM       BALLOTS CAST - DEMOCRATIC PARTY                         BALLOTS CAST - DEMOCRATIC PARTY       PCT 410                                                00 
01040010045000027000017000010000000000000000000DEM       BALLOTS CAST - DEMOCRATIC PARTY                         BALLOTS CAST - DEMOCRATIC PARTY       PCT 411                                                00 
01050010001000036000020000016000000000000000000REP       US Senator                                              John Cornyn                           PCT 101                                                01 
01050010002000142000084000058000000000000000000REP       US Senator                                              John Cornyn                           PCT 102                                                01 
01050010003000262000159000103000000000000000000REP       US Senator                                              John Cornyn                           PCT 103                                                01 
01050010004000039000023000016000000000000000000REP       US Senator                                              John Cornyn                           PCT 104                                                01 
01050010005000105000065000040000000000000000000REP       US Senator                                              John Cornyn                           PCT 105                                                01 
01050010006000204000123000081000000000000000000REP       US Senator                                              John Cornyn                           PCT 106                                                01 
01050010007000375000248000127000000000000000000REP       US Senator                                              John Cornyn                           PCT 107                                                01 
01050010008000041000025000016000000000000000000REP       US Senator                                              John Cornyn                           PCT 108                                                01 
01050010009000026000015000011000000000000000000REP       US Senator                                              John Cornyn                           PCT 108A                                               01 
01050010010000044000025000019000000000000000000REP       US Senator                                              John Cornyn                           PCT 109                                                01 
01050010011000361000214000147000000000000000000REP       US Senator                                              John Cornyn                           PCT 110                                                01 
01050010012000208000125000083000000000000000000REP       US Senator                                              John Cornyn                           PCT 201                                                01 
01050010013000394000185000209000000000000000000REP       US Senator                                              John Cornyn                           PCT 202                                                01 
01050010014000068000032000036000000000000000000REP       US Senator                                              John Cornyn                           PCT 203                                                01 
01050010015000478000317000161000000000000000000REP       US Senator                                              John Cornyn                           PCT 204                                                01 
01050010016000238000124000114000000000000000000REP       US Senator                                              John Cornyn                           PCT 205                                                01 
01050010017000368000223000145000000000000000000REP       US Senator                                              John Cornyn                           PCT 206                                                01 
01050010018000571000393000178000000000000000000REP       US Senator                                              John Cornyn                           PCT 207                                                01 
01050010019000072000048000024000000000000000000REP       US Senator                                              John Cornyn                           PCT 208                                                01 
01050010020000178000119000059000000000000000000REP       US Senator                                              John Cornyn                           PCT 210                                                01 
01050010021000119000062000057000000000000000000REP       US Senator                                              John Cornyn                           PCT 211                                                01 
01050010022000195000126000069000000000000000000REP       US Senator                                              John Cornyn                           PCT 212                                                01 
01050010023000174000093000081000000000000000000REP       US Senator                                              John Cornyn                           PCT 302                                                01 
01050010024000006000005000001000000000000000000REP       US Senator                                              John Cornyn                           PCT 303                                                01 
01050010025000023000014000009000000000000000000REP       US Senator                                              John Cornyn                           PCT 304                                                01 
01050010026000008000004000004000000000000000000REP       US Senator                                              John Cornyn                           PCT 305                                                01 
01050010027000043000026000017000000000000000000REP       US Senator                                              John Cornyn                           PCT 306                                                01 
01050010028000137000078000059000000000000000000REP       US Senator                                              John Cornyn                           PCT 307                                                01 
01050010029000017000010000007000000000000000000REP       US Senator                                              John Cornyn                           PCT 307A                                               01 
01050010030000097000064000033000000000000000000REP       US Senator                                              John Cornyn                           PCT 308                                                01 
01050010031000010000006000004000000000000000000REP       US Senator                                              John Cornyn                           PCT 309                                                01 
01050010032000003000002000001000000000000000000REP       US Senator                                              John Cornyn                           PCT 309A                                               01 
01050010033000009000006000003000000000000000000REP       US Senator                                              John Cornyn                           PCT 310                                                01 
01050010034000072000034000038000000000000000000REP       US Senator                                              John Cornyn                           PCT 401                                                01 
01050010035000044000023000021000000000000000000REP       US Senator                                              John Cornyn                           PCT 402                                                01 
01050010036000127000071000056000000000000000000REP       US Senator                                              John Cornyn                           PCT 402A                                               01 
01050010037000541000350000191000000000000000000REP       US Senator                                              John Cornyn                           PCT 403                                                01 
01050010038000408000247000161000000000000000000REP       US Senator                                              John Cornyn                           PCT 404                                                01 
01050010039000398000249000149000000000000000000REP       US Senator                                              John Cornyn                           PCT 405                                                01 
01050010040000184000054000130000000000000000000REP       US Senator                                              John Cornyn                           PCT 406                                                01 
01050010041000217000106000111000000000000000000REP       US Senator                                              John Cornyn                           PCT 407                                                01 
01050010042000320000179000141000000000000000000REP       US Senator                                              John Cornyn                           PCT 408                                                01 
01050010043000217000126000091000000000000000000REP       US Senator                                              John Cornyn                           PCT 409                                                01 
01050010044000085000046000039000000000000000000REP       US Senator                                              John Cornyn                           PCT 410                                                01 
01050010045000576000329000247000000000000000000REP       US Senator                                              John Cornyn                           PCT 411                                                01 
01050020001000007000002000005000000000000000000REP       US Senator                                              Dwayne Stovall                        PCT 101                                                01 
01050020002000022000011000011000000000000000000REP       US Senator                                              Dwayne Stovall                        PCT 102                                                01 
01050020003000029000016000013000000000000000000REP       US Senator                                              Dwayne Stovall                        PCT 103                                                01 
01050020004000007000001000006000000000000000000REP       US Senator                                              Dwayne Stovall                        PCT 104                                                01 
01050020005000010000007000003000000000000000000REP       US Senator                                              Dwayne Stovall                        PCT 105                                                01 
01050020006000037000017000020000000000000000000REP       US Senator                                              Dwayne Stovall                        PCT 106                                                01 
01050020007000037000023000014000000000000000000REP       US Senator                                              Dwayne Stovall                        PCT 107                                                01 
01050020008000006000004000002000000000000000000REP       US Senator                                              Dwayne Stovall                        PCT 108                                                01 
01050020009000010000005000005000000000000000000REP       US Senator                                              Dwayne Stovall                        PCT 108A                                               01 
01050020010000006000004000002000000000000000000REP       US Senator                                              Dwayne Stovall                        PCT 109                                                01 
01050020011000036000016000020000000000000000000REP       US Senator                                              Dwayne Stovall                        PCT 110                                                01 
01050020012000036000020000016000000000000000000REP       US Senator                                              Dwayne Stovall                        PCT 201                                                01 
01050020013000083000028000055000000000000000000REP       US Senator                                              Dwayne Stovall                        PCT 202                                                01 
01050020014000009000004000005000000000000000000REP       US Senator                                              Dwayne Stovall                        PCT 203                                                01 
01050020015000054000026000028000000000000000000REP       US Senator                                              Dwayne Stovall                        PCT 204                                                01 
01050020016000021000010000011000000000000000000REP       US Senator                                              Dwayne Stovall                        PCT 205                                                01 
01050020017000038000016000022000000000000000000REP       US Senator                                              Dwayne Stovall                        PCT 206                                                01 
01050020018000055000037000018000000000000000000REP       US Senator                                              Dwayne Stovall                        PCT 207                                                01 
01050020019000013000008000005000000000000000000REP       US Senator                                              Dwayne Stovall                        PCT 208                                                01 
01050020020000031000020000011000000000000000000REP       US Senator                                              Dwayne Stovall                        PCT 210                                                01 
01050020021000018000009000009000000000000000000REP       US Senator                                              Dwayne Stovall                        PCT 211                                                01 
01050020022000030000013000017000000000000000000REP       US Senator                                              Dwayne Stovall                        PCT 212                                                01 
01050020023000033000014000019000000000000000000REP       US Senator                                              Dwayne Stovall                        PCT 302                                                01 
01050020024000003000003000000000000000000000000REP       US Senator                                              Dwayne Stovall                        PCT 303                                                01 
01050020025000003000000000003000000000000000000REP       US Senator                                              Dwayne Stovall                        PCT 304                                                01 
01050020026000001000000000001000000000000000000REP       US Senator                                              Dwayne Stovall                        PCT 305                                                01 
01050020027000003000001000002000000000000000000REP       US Senator                                              Dwayne Stovall                        PCT 306                                                01 
01050020028000015000005000010000000000000000000REP       US Senator                                              Dwayne Stovall                        PCT 307                                                01 
01050020029000004000000000004000000000000000000REP       US Senator                                              Dwayne Stovall                        PCT 307A                                               01 
01050020030000008000002000006000000000000000000REP       US Senator                                              Dwayne Stovall                        PCT 308                                                01 
01050020031000001000000000001000000000000000000REP       US Senator                                              Dwayne Stovall                        PCT 309                                                01 
01050020032000003000000000003000000000000000000REP       US Senator                                              Dwayne Stovall                        PCT 309A                                               01 
01050020033000005000001000004000000000000000000REP       US Senator                                              Dwayne Stovall                        PCT 310                                                01 
01050020034000018000003000015000000000000000000REP       US Senator                                              Dwayne Stovall                        PCT 401                                                01 
01050020035000005000000000005000000000000000000REP       US Senator                                              Dwayne Stovall                        PCT 402                                                01 
01050020036000009000006000003000000000000000000REP       US Senator                                              Dwayne Stovall                        PCT 402A                                               01 
01050020037000061000037000024000000000000000000REP       US Senator                                              Dwayne Stovall                        PCT 403                                                01 
01050020038000042000017000025000000000000000000REP       US Senator                                              Dwayne Stovall                        PCT 404                                                01 
01050020039000035000019000016000000000000000000REP       US Senator                                              Dwayne Stovall                        PCT 405                                                01 
01050020040000028000007000021000000000000000000REP       US Senator                                              Dwayne Stovall                        PCT 406                                                01 
01050020041000026000011000015000000000000000000REP       US Senator                                              Dwayne Stovall                        PCT 407                                                01 
01050020042000032000018000014000000000000000000REP       US Senator                                              Dwayne Stovall                        PCT 408                                                01 
01050020043000030000017000013000000000000000000REP       US Senator                                              Dwayne Stovall                        PCT 409                                                01 
01050020044000013000008000005000000000000000000REP       US Senator                                              Dwayne Stovall                        PCT 410                                                01 
01050020045000059000026000033000000000000000000REP       US Senator                                              Dwayne Stovall                        PCT 411                                                01 
01050030001000020000013000007000000000000000000REP       US Senator                                              Steve Stockman                        PCT 101                                                01 
01050030002000034000019000015000000000000000000REP       US Senator                                              Steve Stockman                        PCT 102                                                01 
01050030003000057000038000019000000000000000000REP       US Senator                                              Steve Stockman                        PCT 103                                                01 
01050030004000010000005000005000000000000000000REP       US Senator                                              Steve Stockman                        PCT 104                                                01 
01050030005000028000017000011000000000000000000REP       US Senator                                              Steve Stockman                        PCT 105                                                01 
01050030006000052000021000031000000000000000000REP       US Senator                                              Steve Stockman                        PCT 106                                                01 
01050030007000082000044000038000000000000000000REP       US Senator                                              Steve Stockman                        PCT 107                                                01 
01050030008000011000010000001000000000000000000REP       US Senator                                              Steve Stockman                        PCT 108                                                01 
01050030009000010000004000006000000000000000000REP       US Senator                                              Steve Stockman                        PCT 108A                                               01 
01050030010000006000003000003000000000000000000REP       US Senator                                              Steve Stockman                        PCT 109                                                01 
01050030011000099000050000049000000000000000000REP       US Senator                                              Steve Stockman                        PCT 110                                                01 
01050030012000064000026000038000000000000000000REP       US Senator                                              Steve Stockman                        PCT 201                                                01 
01050030013000124000043000081000000000000000000REP       US Senator                                              Steve Stockman                        PCT 202                                                01 
01050030014000016000008000008000000000000000000REP       US Senator                                              Steve Stockman                        PCT 203                                                01 
01050030015000094000064000030000000000000000000REP       US Senator                                              Steve Stockman                        PCT 204                                                01 
01050030016000041000023000018000000000000000000REP       US Senator                                              Steve Stockman                        PCT 205                                                01 
01050030017000065000034000031000000000000000000REP       US Senator                                              Steve Stockman                        PCT 206                                                01 
01050030018000100000068000032000000000000000000REP       US Senator                                              Steve Stockman                        PCT 207                                                01 
01050030019000013000007000006000000000000000000REP       US Senator                                              Steve Stockman                        PCT 208                                                01 
01050030020000036000022000014000000000000000000REP       US Senator                                              Steve Stockman                        PCT 210                                                01 
01050030021000021000012000009000000000000000000REP       US Senator                                              Steve Stockman                        PCT 211                                                01 
01050030022000038000018000020000000000000000000REP       US Senator                                              Steve Stockman                        PCT 212                                                01 
01050030023000060000041000019000000000000000000REP       US Senator                                              Steve Stockman                        PCT 302                                                01 
01050030024000005000001000004000000000000000000REP       US Senator                                              Steve Stockman                        PCT 303                                                01 
01050030025000002000001000001000000000000000000REP       US Senator                                              Steve Stockman                        PCT 304                                                01 
01050030026000004000002000002000000000000000000REP       US Senator                                              Steve Stockman                        PCT 305                                                01 
01050030027000004000002000002000000000000000000REP       US Senator                                              Steve Stockman                        PCT 306                                                01 
01050030028000033000017000016000000000000000000REP       US Senator                                              Steve Stockman                        PCT 307                                                01 
01050030029000007000003000004000000000000000000REP       US Senator                                              Steve Stockman                        PCT 307A                                               01 
01050030030000010000003000007000000000000000000REP       US Senator                                              Steve Stockman                        PCT 308                                                01 
01050030031000004000002000002000000000000000000REP       US Senator                                              Steve Stockman                        PCT 309                                                01 
01050030032000000000000000000000000000000000000REP       US Senator                                              Steve Stockman                        PCT 309A                                               01 
01050030033000006000002000004000000000000000000REP       US Senator                                              Steve Stockman                        PCT 310                                                01 
01050030034000020000007000013000000000000000000REP       US Senator                                              Steve Stockman                        PCT 401                                                01 
01050030035000011000001000010000000000000000000REP       US Senator                                              Steve Stockman                        PCT 402                                                01 
01050030036000019000012000007000000000000000000REP       US Senator                                              Steve Stockman                        PCT 402A                                               01 
01050030037000076000040000036000000000000000000REP       US Senator                                              Steve Stockman                        PCT 403                                                01 
01050030038000088000052000036000000000000000000REP       US Senator                                              Steve Stockman                        PCT 404                                                01 
01050030039000086000049000037000000000000000000REP       US Senator                                              Steve Stockman                        PCT 405                                                01 
01050030040000032000008000024000000000000000000REP       US Senator                                              Steve Stockman                        PCT 406                                                01 
01050030041000045000028000017000000000000000000REP       US Senator                                              Steve Stockman                        PCT 407                                                01 
01050030042000053000030000023000000000000000000REP       US Senator                                              Steve Stockman                        PCT 408                                                01 
01050030043000060000035000025000000000000000000REP       US Senator                                              Steve Stockman                        PCT 409                                                01 
01050030044000022000015000007000000000000000000REP       US Senator                                              Steve Stockman                        PCT 410                                                01 
01050030045000101000062000039000000000000000000REP       US Senator                                              Steve Stockman                        PCT 411                                                01 
01050040001000000000000000000000000000000000000REP       US Senator                                              Curt Cleaver                          PCT 101                                                01 
01050040002000002000000000002000000000000000000REP       US Senator                                              Curt Cleaver                          PCT 102                                                01 
01050040003000002000002000000000000000000000000REP       US Senator                                              Curt Cleaver                          PCT 103                                                01 
01050040004000001000001000000000000000000000000REP       US Senator                                              Curt Cleaver                          PCT 104                                                01 
01050040005000002000001000001000000000000000000REP       US Senator                                              Curt Cleaver                          PCT 105                                                01 
01050040006000001000000000001000000000000000000REP       US Senator                                              Curt Cleaver                          PCT 106                                                01 
01050040007000002000002000000000000000000000000REP       US Senator                                              Curt Cleaver                          PCT 107                                                01 
01050040008000001000001000000000000000000000000REP       US Senator                                              Curt Cleaver                          PCT 108                                                01 
01050040009000001000000000001000000000000000000REP       US Senator                                              Curt Cleaver                          PCT 108A                                               01 
01050040010000001000001000000000000000000000000REP       US Senator                                              Curt Cleaver                          PCT 109                                                01 
01050040011000002000001000001000000000000000000REP       US Senator                                              Curt Cleaver                          PCT 110                                                01 
01050040012000000000000000000000000000000000000REP       US Senator                                              Curt Cleaver                          PCT 201                                                01 
01050040013000006000001000005000000000000000000REP       US Senator                                              Curt Cleaver                          PCT 202                                                01 
01050040014000000000000000000000000000000000000REP       US Senator                                              Curt Cleaver                          PCT 203                                                01 
01050040015000003000003000000000000000000000000REP       US Senator                                              Curt Cleaver                          PCT 204                                                01 
01050040016000000000000000000000000000000000000REP       US Senator                                              Curt Cleaver                          PCT 205                                                01 
01050040017000002000001000001000000000000000000REP       US Senator                                              Curt Cleaver                          PCT 206                                                01 
01050040018000002000000000002000000000000000000REP       US Senator                                              Curt Cleaver                          PCT 207                                                01 
01050040019000001000000000001000000000000000000REP       US Senator                                              Curt Cleaver                          PCT 208                                                01 
01050040020000002000001000001000000000000000000REP       US Senator                                              Curt Cleaver                          PCT 210                                                01 
01050040021000000000000000000000000000000000000REP       US Senator                                              Curt Cleaver                          PCT 211                                                01 
01050040022000000000000000000000000000000000000REP       US Senator                                              Curt Cleaver                          PCT 212                                                01 
01050040023000001000000000001000000000000000000REP       US Senator                                              Curt Cleaver                          PCT 302                                                01 
01050040024000001000000000001000000000000000000REP       US Senator                                              Curt Cleaver                          PCT 303                                                01 
01050040025000000000000000000000000000000000000REP       US Senator                                              Curt Cleaver                          PCT 304                                                01 
01050040026000002000000000002000000000000000000REP       US Senator                                              Curt Cleaver                          PCT 305                                                01 
01050040027000000000000000000000000000000000000REP       US Senator                                              Curt Cleaver                          PCT 306                                                01 
01050040028000003000001000002000000000000000000REP       US Senator                                              Curt Cleaver                          PCT 307                                                01 
01050040029000000000000000000000000000000000000REP       US Senator                                              Curt Cleaver                          PCT 307A                                               01 
01050040030000001000000000001000000000000000000REP       US Senator                                              Curt Cleaver                          PCT 308                                                01 
01050040031000003000001000002000000000000000000REP       US Senator                                              Curt Cleaver                          PCT 309                                                01 
01050040032000000000000000000000000000000000000REP       US Senator                                              Curt Cleaver                          PCT 309A                                               01 
01050040033000001000001000000000000000000000000REP       US Senator                                              Curt Cleaver                          PCT 310                                                01 
01050040034000001000001000000000000000000000000REP       US Senator                                              Curt Cleaver                          PCT 401                                                01 
01050040035000000000000000000000000000000000000REP       US Senator                                              Curt Cleaver                          PCT 402                                                01 
01050040036000001000000000001000000000000000000REP       US Senator                                              Curt Cleaver                          PCT 402A                                               01 
01050040037000003000000000003000000000000000000REP       US Senator                                              Curt Cleaver                          PCT 403                                                01 
01050040038000004000002000002000000000000000000REP       US Senator                                              Curt Cleaver                          PCT 404                                                01 
01050040039000003000001000002000000000000000000REP       US Senator                                              Curt Cleaver                          PCT 405                                                01 
01050040040000002000000000002000000000000000000REP       US Senator                                              Curt Cleaver                          PCT 406                                                01 
01050040041000000000000000000000000000000000000REP       US Senator                                              Curt Cleaver                          PCT 407                                                01 
01050040042000001000001000000000000000000000000REP       US Senator                                              Curt Cleaver                          PCT 408                                                01 
01050040043000003000002000001000000000000000000REP       US Senator                                              Curt Cleaver                          PCT 409                                                01 
01050040044000002000002000000000000000000000000REP       US Senator                                              Curt Cleaver                          PCT 410                                                01 
01050040045000005000002000003000000000000000000REP       US Senator                                              Curt Cleaver                          PCT 411                                                01 
01050050001000002000001000001000000000000000000REP       US Senator                                              Ken Cope                              PCT 101                                                01 
01050050002000017000012000005000000000000000000REP       US Senator                                              Ken Cope                              PCT 102                                                01 
01050050003000021000014000007000000000000000000REP       US Senator                                              Ken Cope                              PCT 103                                                01 
01050050004000001000001000000000000000000000000REP       US Senator                                              Ken Cope                              PCT 104                                                01 
01050050005000008000004000004000000000000000000REP       US Senator                                              Ken Cope                              PCT 105                                                01 
01050050006000014000010000004000000000000000000REP       US Senator                                              Ken Cope                              PCT 106                                                01 
01050050007000023000014000009000000000000000000REP       US Senator                                              Ken Cope                              PCT 107                                                01 
01050050008000001000001000000000000000000000000REP       US Senator                                              Ken Cope                              PCT 108                                                01 
01050050009000006000000000006000000000000000000REP       US Senator                                              Ken Cope                              PCT 108A                                               01 
01050050010000001000000000001000000000000000000REP       US Senator                                              Ken Cope                              PCT 109                                                01 
01050050011000025000016000009000000000000000000REP       US Senator                                              Ken Cope                              PCT 110                                                01 
01050050012000017000008000009000000000000000000REP       US Senator                                              Ken Cope                              PCT 201                                                01 
01050050013000044000014000030000000000000000000REP       US Senator                                              Ken Cope                              PCT 202                                                01 
01050050014000003000000000003000000000000000000REP       US Senator                                              Ken Cope                              PCT 203                                                01 
01050050015000025000019000006000000000000000000REP       US Senator                                              Ken Cope                              PCT 204                                                01 
01050050016000011000006000005000000000000000000REP       US Senator                                              Ken Cope                              PCT 205                                                01 
01050050017000021000019000002000000000000000000REP       US Senator                                              Ken Cope                              PCT 206                                                01 
01050050018000017000010000007000000000000000000REP       US Senator                                              Ken Cope                              PCT 207                                                01 
01050050019000002000002000000000000000000000000REP       US Senator                                              Ken Cope                              PCT 208                                                01 
01050050020000016000008000008000000000000000000REP       US Senator                                              Ken Cope                              PCT 210                                                01 
01050050021000010000004000006000000000000000000REP       US Senator                                              Ken Cope                              PCT 211                                                01 
01050050022000006000002000004000000000000000000REP       US Senator                                              Ken Cope                              PCT 212                                                01 
01050050023000016000009000007000000000000000000REP       US Senator                                              Ken Cope                              PCT 302                                                01 
01050050024000000000000000000000000000000000000REP       US Senator                                              Ken Cope                              PCT 303                                                01 
01050050025000003000001000002000000000000000000REP       US Senator                                              Ken Cope                              PCT 304                                                01 
01050050026000000000000000000000000000000000000REP       US Senator                                              Ken Cope                              PCT 305                                                01 
01050050027000003000003000000000000000000000000REP       US Senator                                              Ken Cope                              PCT 306                                                01 
01050050028000002000000000002000000000000000000REP       US Senator                                              Ken Cope                              PCT 307                                                01 
01050050029000001000001000000000000000000000000REP       US Senator                                              Ken Cope                              PCT 307A                                               01 
01050050030000001000001000000000000000000000000REP       US Senator                                              Ken Cope                              PCT 308                                                01 
01050050031000001000000000001000000000000000000REP       US Senator                                              Ken Cope                              PCT 309                                                01 
01050050032000000000000000000000000000000000000REP       US Senator                                              Ken Cope                              PCT 309A                                               01 
01050050033000002000000000002000000000000000000REP       US Senator                                              Ken Cope                              PCT 310                                                01 
01050050034000004000001000003000000000000000000REP       US Senator                                              Ken Cope                              PCT 401                                                01 
01050050035000001000001000000000000000000000000REP       US Senator                                              Ken Cope                              PCT 402                                                01 
01050050036000005000004000001000000000000000000REP       US Senator                                              Ken Cope                              PCT 402A                                               01 
01050050037000034000022000012000000000000000000REP       US Senator                                              Ken Cope                              PCT 403                                                01 
01050050038000032000025000007000000000000000000REP       US Senator                                              Ken Cope                              PCT 404                                                01 
01050050039000019000010000009000000000000000000REP       US Senator                                              Ken Cope                              PCT 405                                                01 
01050050040000004000000000004000000000000000000REP       US Senator                                              Ken Cope                              PCT 406                                                01 
01050050041000013000004000009000000000000000000REP       US Senator                                              Ken Cope                              PCT 407                                                01 
01050050042000019000016000003000000000000000000REP       US Senator                                              Ken Cope                              PCT 408                                                01 
01050050043000016000008000008000000000000000000REP       US Senator                                              Ken Cope                              PCT 409                                                01 
01050050044000015000007000008000000000000000000REP       US Senator                                              Ken Cope                              PCT 410                                                01 
01050050045000031000023000008000000000000000000REP       US Senator                                              Ken Cope                              PCT 411                                                01 
01050060001000002000000000002000000000000000000REP       US Senator                                              Chris Mapp                            PCT 101                                                01 
01050060002000003000002000001000000000000000000REP       US Senator                                              Chris Mapp                            PCT 102                                                01 
01050060003000005000003000002000000000000000000REP       US Senator                                              Chris Mapp                            PCT 103                                                01 
01050060004000000000000000000000000000000000000REP       US Senator                                              Chris Mapp                            PCT 104                                                01 
01050060005000000000000000000000000000000000000REP       US Senator                                              Chris Mapp                            PCT 105                                                01 
01050060006000004000004000000000000000000000000REP       US Senator                                              Chris Mapp                            PCT 106                                                01 
01050060007000001000000000001000000000000000000REP       US Senator                                              Chris Mapp                            PCT 107                                                01 
01050060008000002000002000000000000000000000000REP       US Senator                                              Chris Mapp                            PCT 108                                                01 
01050060009000000000000000000000000000000000000REP       US Senator                                              Chris Mapp                            PCT 108A                                               01 
01050060010000000000000000000000000000000000000REP       US Senator                                              Chris Mapp                            PCT 109                                                01 
01050060011000006000004000002000000000000000000REP       US Senator                                              Chris Mapp                            PCT 110                                                01 
01050060012000001000001000000000000000000000000REP       US Senator                                              Chris Mapp                            PCT 201                                                01 
01050060013000009000004000005000000000000000000REP       US Senator                                              Chris Mapp                            PCT 202                                                01 
01050060014000001000000000001000000000000000000REP       US Senator                                              Chris Mapp                            PCT 203                                                01 
01050060015000003000002000001000000000000000000REP       US Senator                                              Chris Mapp                            PCT 204                                                01 
01050060016000006000005000001000000000000000000REP       US Senator                                              Chris Mapp                            PCT 205                                                01 
01050060017000006000005000001000000000000000000REP       US Senator                                              Chris Mapp                            PCT 206                                                01 
01050060018000004000001000003000000000000000000REP       US Senator                                              Chris Mapp                            PCT 207                                                01 
01050060019000000000000000000000000000000000000REP       US Senator                                              Chris Mapp                            PCT 208                                                01 
01050060020000000000000000000000000000000000000REP       US Senator                                              Chris Mapp                            PCT 210                                                01 
01050060021000000000000000000000000000000000000REP       US Senator                                              Chris Mapp                            PCT 211                                                01 
01050060022000000000000000000000000000000000000REP       US Senator                                              Chris Mapp                            PCT 212                                                01 
01050060023000005000004000001000000000000000000REP       US Senator                                              Chris Mapp                            PCT 302                                                01 
01050060024000001000001000000000000000000000000REP       US Senator                                              Chris Mapp                            PCT 303                                                01 
01050060025000001000000000001000000000000000000REP       US Senator                                              Chris Mapp                            PCT 304                                                01 
01050060026000000000000000000000000000000000000REP       US Senator                                              Chris Mapp                            PCT 305                                                01 
01050060027000000000000000000000000000000000000REP       US Senator                                              Chris Mapp                            PCT 306                                                01 
01050060028000006000003000003000000000000000000REP       US Senator                                              Chris Mapp                            PCT 307                                                01 
01050060029000000000000000000000000000000000000REP       US Senator                                              Chris Mapp                            PCT 307A                                               01 
01050060030000004000003000001000000000000000000REP       US Senator                                              Chris Mapp                            PCT 308                                                01 
01050060031000000000000000000000000000000000000REP       US Senator                                              Chris Mapp                            PCT 309                                                01 
01050060032000000000000000000000000000000000000REP       US Senator                                              Chris Mapp                            PCT 309A                                               01 
01050060033000000000000000000000000000000000000REP       US Senator                                              Chris Mapp                            PCT 310                                                01 
01050060034000003000000000003000000000000000000REP       US Senator                                              Chris Mapp                            PCT 401                                                01 
01050060035000001000001000000000000000000000000REP       US Senator                                              Chris Mapp                            PCT 402                                                01 
01050060036000002000002000000000000000000000000REP       US Senator                                              Chris Mapp                            PCT 402A                                               01 
01050060037000006000004000002000000000000000000REP       US Senator                                              Chris Mapp                            PCT 403                                                01 
01050060038000007000002000005000000000000000000REP       US Senator                                              Chris Mapp                            PCT 404                                                01 
01050060039000007000006000001000000000000000000REP       US Senator                                              Chris Mapp                            PCT 405                                                01 
01050060040000002000001000001000000000000000000REP       US Senator                                              Chris Mapp                            PCT 406                                                01 
01050060041000001000001000000000000000000000000REP       US Senator                                              Chris Mapp                            PCT 407                                                01 
01050060042000006000002000004000000000000000000REP       US Senator                                              Chris Mapp                            PCT 408                                                01 
01050060043000007000002000005000000000000000000REP       US Senator                                              Chris Mapp                            PCT 409                                                01 
01050060044000001000000000001000000000000000000REP       US Senator                                              Chris Mapp                            PCT 410                                                01 
01050060045000004000001000003000000000000000000REP       US Senator                                              Chris Mapp                            PCT 411                                                01 
01050070001000004000004000000000000000000000000REP       US Senator                                              Linda Vega                            PCT 101                                                01 
01050070002000012000008000004000000000000000000REP       US Senator                                              Linda Vega                            PCT 102                                                01 
01050070003000013000008000005000000000000000000REP       US Senator                                              Linda Vega                            PCT 103                                                01 
01050070004000002000002000000000000000000000000REP       US Senator                                              Linda Vega                            PCT 104                                                01 
01050070005000016000009000007000000000000000000REP       US Senator                                              Linda Vega                            PCT 105                                                01 
01050070006000020000011000009000000000000000000REP       US Senator                                              Linda Vega                            PCT 106                                                01 
01050070007000015000009000006000000000000000000REP       US Senator                                              Linda Vega                            PCT 107                                                01 
01050070008000001000001000000000000000000000000REP       US Senator                                              Linda Vega                            PCT 108                                                01 
01050070009000002000002000000000000000000000000REP       US Senator                                              Linda Vega                            PCT 108A                                               01 
01050070010000004000004000000000000000000000000REP       US Senator                                              Linda Vega                            PCT 109                                                01 
01050070011000006000002000004000000000000000000REP       US Senator                                              Linda Vega                            PCT 110                                                01 
01050070012000011000002000009000000000000000000REP       US Senator                                              Linda Vega                            PCT 201                                                01 
01050070013000012000006000006000000000000000000REP       US Senator                                              Linda Vega                            PCT 202                                                01 
01050070014000002000000000002000000000000000000REP       US Senator                                              Linda Vega                            PCT 203                                                01 
01050070015000019000016000003000000000000000000REP       US Senator                                              Linda Vega                            PCT 204                                                01 
01050070016000008000007000001000000000000000000REP       US Senator                                              Linda Vega                            PCT 205                                                01 
01050070017000008000004000004000000000000000000REP       US Senator                                              Linda Vega                            PCT 206                                                01 
01050070018000024000016000008000000000000000000REP       US Senator                                              Linda Vega                            PCT 207                                                01 
01050070019000004000003000001000000000000000000REP       US Senator                                              Linda Vega                            PCT 208                                                01 
01050070020000007000003000004000000000000000000REP       US Senator                                              Linda Vega                            PCT 210                                                01 
01050070021000003000003000000000000000000000000REP       US Senator                                              Linda Vega                            PCT 211                                                01 
01050070022000008000006000002000000000000000000REP       US Senator                                              Linda Vega                            PCT 212                                                01 
01050070023000018000012000006000000000000000000REP       US Senator                                              Linda Vega                            PCT 302                                                01 
