01010010001001145000000000000000000000000000000          REGISTERED VOTERS - TOTAL                               REGISTERED VOTERS - TOTAL             PRECINCT 1                                             00 
01010010002000279000000000000000000000000000000          REGISTERED VOTERS - TOTAL                               REGISTERED VOTERS - TOTAL             PRECINCT 2                                             00 
01010010003000782000000000000000000000000000000          REGISTERED VOTERS - TOTAL                               REGISTERED VOTERS - TOTAL             PRECINCT 025                                           00 
01010010004001151000000000000000000000000000000          REGISTERED VOTERS - TOTAL                               REGISTERED VOTERS - TOTAL             PRECINCT 3                                             00 
01010010005000704000000000000000000000000000000          REGISTERED VOTERS - TOTAL                               REGISTERED VOTERS - TOTAL             PRECINCT 4                                             00 
01010010006000506000000000000000000000000000000          REGISTERED VOTERS - TOTAL                               REGISTERED VOTERS - TOTAL             PRECINCT 046                                           00 
01020010001000334000168000166000000000000000000          BALLOTS CAST - TOTAL                                    BALLOTS CAST - TOTAL                  PRECINCT 1                                             00 
01020010002000091000019000072000000000000000000          BALLOTS CAST - TOTAL                                    BALLOTS CAST - TOTAL                  PRECINCT 2                                             00 
01020010003000161000090000071000000000000000000          BALLOTS CAST - TOTAL                                    BALLOTS CAST - TOTAL                  PRECINCT 025                                           00 
01020010004000269000133000136000000000000000000          BALLOTS CAST - TOTAL                                    BALLOTS CAST - TOTAL                  PRECINCT 3                                             00 
01020010005000206000070000136000000000000000000          BALLOTS CAST - TOTAL                                    BALLOTS CAST - TOTAL                  PRECINCT 4                                             00 
01020010006000172000081000091000000000000000000          BALLOTS CAST - TOTAL                                    BALLOTS CAST - TOTAL                  PRECINCT 046                                           00 
01030010001000118000061000057000000000000000000REP       Straight Party                                          Republican Party                      PRECINCT 1                                             01 
01030010002000055000013000042000000000000000000REP       Straight Party                                          Republican Party                      PRECINCT 2                                             01 
01030010003000056000036000020000000000000000000REP       Straight Party                                          Republican Party                      PRECINCT 025                                           01 
01030010004000117000053000064000000000000000000REP       Straight Party                                          Republican Party                      PRECINCT 3                                             01 
01030010005000063000023000040000000000000000000REP       Straight Party                                          Republican Party                      PRECINCT 4                                             01 
01030010006000047000024000023000000000000000000REP       Straight Party                                          Republican Party                      PRECINCT 046                                           01 
01030020001000030000016000014000000000000000000DEM       Straight Party                                          Democratic Party                      PRECINCT 1                                             01 
01030020002000000000000000000000000000000000000DEM       Straight Party                                          Democratic Party                      PRECINCT 2                                             01 
01030020003000018000008000010000000000000000000DEM       Straight Party                                          Democratic Party                      PRECINCT 025                                           01 
01030020004000025000011000014000000000000000000DEM       Straight Party                                          Democratic Party                      PRECINCT 3                                             01 
01030020005000018000007000011000000000000000000DEM       Straight Party                                          Democratic Party                      PRECINCT 4                                             01 
01030020006000010000006000004000000000000000000DEM       Straight Party                                          Democratic Party                      PRECINCT 046                                           01 
01030030001000001000000000001000000000000000000LIB       Straight Party                                          Libertarian Party                     PRECINCT 1                                             01 
01030030002000000000000000000000000000000000000LIB       Straight Party                                          Libertarian Party                     PRECINCT 2                                             01 
01030030003000001000000000001000000000000000000LIB       Straight Party                                          Libertarian Party                     PRECINCT 025                                           01 
01030030004000001000001000000000000000000000000LIB       Straight Party                                          Libertarian Party                     PRECINCT 3                                             01 
01030030005000000000000000000000000000000000000LIB       Straight Party                                          Libertarian Party                     PRECINCT 4                                             01 
01030030006000000000000000000000000000000000000LIB       Straight Party                                          Libertarian Party                     PRECINCT 046                                           01 
01030040001000000000000000000000000000000000000GRN       Straight Party                                          Green Party                           PRECINCT 1                                             01 
01030040002000000000000000000000000000000000000GRN       Straight Party                                          Green Party                           PRECINCT 2                                             01 
01030040003000000000000000000000000000000000000GRN       Straight Party                                          Green Party                           PRECINCT 025                                           01 
01030040004000000000000000000000000000000000000GRN       Straight Party                                          Green Party                           PRECINCT 3                                             01 
01030040005000000000000000000000000000000000000GRN       Straight Party                                          Green Party                           PRECINCT 4                                             01 
01030040006000000000000000000000000000000000000GRN       Straight Party                                          Green Party                           PRECINCT 046                                           01 
01030050001000000000000000000000000000000000000          Straight Party                                          OVER VOTES                            PRECINCT 1                                             01 
01030050002000000000000000000000000000000000000          Straight Party                                          OVER VOTES                            PRECINCT 2                                             01 
01030050003000000000000000000000000000000000000          Straight Party                                          OVER VOTES                            PRECINCT 025                                           01 
01030050004000000000000000000000000000000000000          Straight Party                                          OVER VOTES                            PRECINCT 3                                             01 
01030050005000000000000000000000000000000000000          Straight Party                                          OVER VOTES                            PRECINCT 4                                             01 
01030050006000000000000000000000000000000000000          Straight Party                                          OVER VOTES                            PRECINCT 046                                           01 
01030060001000185000091000094000000000000000000          Straight Party                                          UNDER VOTES                           PRECINCT 1                                             01 
01030060002000036000006000030000000000000000000          Straight Party                                          UNDER VOTES                           PRECINCT 2                                             01 
01030060003000086000046000040000000000000000000          Straight Party                                          UNDER VOTES                           PRECINCT 025                                           01 
01030060004000126000068000058000000000000000000          Straight Party                                          UNDER VOTES                           PRECINCT 3                                             01 
01030060005000125000040000085000000000000000000          Straight Party                                          UNDER VOTES                           PRECINCT 4                                             01 
01030060006000115000051000064000000000000000000          Straight Party                                          UNDER VOTES                           PRECINCT 046                                           01 
01040010001000265000131000134000000000000000000REP       United States Senator                                   John Cornyn                           PRECINCT 1                                             01 
01040010002000089000019000070000000000000000000REP       United States Senator                                   John Cornyn                           PRECINCT 2                                             01 
01040010003000119000072000047000000000000000000REP       United States Senator                                   John Cornyn                           PRECINCT 025                                           01 
01040010004000210000102000108000000000000000000REP       United States Senator                                   John Cornyn                           PRECINCT 3                                             01 
01040010005000150000050000100000000000000000000REP       United States Senator                                   John Cornyn                           PRECINCT 4                                             01 
01040010006000131000056000075000000000000000000REP       United States Senator                                   John Cornyn                           PRECINCT 046                                           01 
01040020001000040000022000018000000000000000000DEM       United States Senator                                   David M. Alameel                      PRECINCT 1                                             01 
01040020002000001000000000001000000000000000000DEM       United States Senator                                   David M. Alameel                      PRECINCT 2                                             01 
01040020003000027000012000015000000000000000000DEM       United States Senator                                   David M. Alameel                      PRECINCT 025                                           01 
01040020004000044000022000022000000000000000000DEM       United States Senator                                   David M. Alameel                      PRECINCT 3                                             01 
01040020005000031000010000021000000000000000000DEM       United States Senator                                   David M. Alameel                      PRECINCT 4                                             01 
01040020006000023000013000010000000000000000000DEM       United States Senator                                   David M. Alameel                      PRECINCT 046                                           01 
01040030001000007000004000003000000000000000000LIB       United States Senator                                   Rebecca Paddock                       PRECINCT 1                                             01 
01040030002000000000000000000000000000000000000LIB       United States Senator                                   Rebecca Paddock                       PRECINCT 2                                             01 
01040030003000003000002000001000000000000000000LIB       United States Senator                                   Rebecca Paddock                       PRECINCT 025                                           01 
01040030004000008000006000002000000000000000000LIB       United States Senator                                   Rebecca Paddock                       PRECINCT 3                                             01 
01040030005000008000003000005000000000000000000LIB       United States Senator                                   Rebecca Paddock                       PRECINCT 4                                             01 
01040030006000004000002000002000000000000000000LIB       United States Senator                                   Rebecca Paddock                       PRECINCT 046                                           01 
01040040001000007000002000005000000000000000000GRN       United States Senator                                   Emily "Spicybrown" Sanchez            PRECINCT 1                                             01 
01040040002000000000000000000000000000000000000GRN       United States Senator                                   Emily "Spicybrown" Sanchez            PRECINCT 2                                             01 
01040040003000005000002000003000000000000000000GRN       United States Senator                                   Emily "Spicybrown" Sanchez            PRECINCT 025                                           01 
01040040004000002000001000001000000000000000000GRN       United States Senator                                   Emily "Spicybrown" Sanchez            PRECINCT 3                                             01 
01040040005000003000002000001000000000000000000GRN       United States Senator                                   Emily "Spicybrown" Sanchez            PRECINCT 4                                             01 
01040040006000001000000000001000000000000000000GRN       United States Senator                                   Emily "Spicybrown" Sanchez            PRECINCT 046                                           01 
01040050001000000000000000000000000000000000000NON       United States Senator                                   WRITE-IN                              PRECINCT 1                                             01 
01040050002000000000000000000000000000000000000NON       United States Senator                                   WRITE-IN                              PRECINCT 2                                             01 
01040050003000000000000000000000000000000000000NON       United States Senator                                   WRITE-IN                              PRECINCT 025                                           01 
01040050004000000000000000000000000000000000000NON       United States Senator                                   WRITE-IN                              PRECINCT 3                                             01 
01040050005000000000000000000000000000000000000NON       United States Senator                                   WRITE-IN                              PRECINCT 4                                             01 
01040050006000000000000000000000000000000000000NON       United States Senator                                   WRITE-IN                              PRECINCT 046                                           01 
01040060001000000000000000000000000000000000000          United States Senator                                   OVER VOTES                            PRECINCT 1                                             01 
01040060002000000000000000000000000000000000000          United States Senator                                   OVER VOTES                            PRECINCT 2                                             01 
01040060003000000000000000000000000000000000000          United States Senator                                   OVER VOTES                            PRECINCT 025                                           01 
01040060004000000000000000000000000000000000000          United States Senator                                   OVER VOTES                            PRECINCT 3                                             01 
01040060005000001000000000001000000000000000000          United States Senator                                   OVER VOTES                            PRECINCT 4                                             01 
01040060006000000000000000000000000000000000000          United States Senator                                   OVER VOTES                            PRECINCT 046                                           01 
01040070001000015000009000006000000000000000000          United States Senator                                   UNDER VOTES                           PRECINCT 1                                             01 
01040070002000001000000000001000000000000000000          United States Senator                                   UNDER VOTES                           PRECINCT 2                                             01 
01040070003000007000002000005000000000000000000          United States Senator                                   UNDER VOTES                           PRECINCT 025                                           01 
01040070004000005000002000003000000000000000000          United States Senator                                   UNDER VOTES                           PRECINCT 3                                             01 
01040070005000013000005000008000000000000000000          United States Senator                                   UNDER VOTES                           PRECINCT 4                                             01 
01040070006000013000010000003000000000000000000          United States Senator                                   UNDER VOTES                           PRECINCT 046                                           01 
01050010001000285000140000145000000000000000000REP       United States Representative, Dist 11                   Mike Conaway                          PRECINCT 1                                             01 
01050010002000090000018000072000000000000000000REP       United States Representative, Dist 11                   Mike Conaway                          PRECINCT 2                                             01 
01050010003000127000074000053000000000000000000REP       United States Representative, Dist 11                   Mike Conaway                          PRECINCT 025                                           01 
01050010004000221000106000115000000000000000000REP       United States Representative, Dist 11                   Mike Conaway                          PRECINCT 3                                             01 
01050010005000169000054000115000000000000000000REP       United States Representative, Dist 11                   Mike Conaway                          PRECINCT 4                                             01 
01050010006000143000063000080000000000000000000REP       United States Representative, Dist 11                   Mike Conaway                          PRECINCT 046                                           01 
01050020001000025000011000014000000000000000000LIB       United States Representative, Dist 11                   Ryan T. Lange                         PRECINCT 1                                             01 
01050020002000001000001000000000000000000000000LIB       United States Representative, Dist 11                   Ryan T. Lange                         PRECINCT 2                                             01 
01050020003000019000009000010000000000000000000LIB       United States Representative, Dist 11                   Ryan T. Lange                         PRECINCT 025                                           01 
01050020004000022000017000005000000000000000000LIB       United States Representative, Dist 11                   Ryan T. Lange                         PRECINCT 3                                             01 
01050020005000016000005000011000000000000000000LIB       United States Representative, Dist 11                   Ryan T. Lange                         PRECINCT 4                                             01 
01050020006000008000005000003000000000000000000LIB       United States Representative, Dist 11                   Ryan T. Lange                         PRECINCT 046                                           01 
01050030001000000000000000000000000000000000000          United States Representative, Dist 11                   OVER VOTES                            PRECINCT 1                                             01 
01050030002000000000000000000000000000000000000          United States Representative, Dist 11                   OVER VOTES                            PRECINCT 2                                             01 
01050030003000000000000000000000000000000000000          United States Representative, Dist 11                   OVER VOTES                            PRECINCT 025                                           01 
01050030004000000000000000000000000000000000000          United States Representative, Dist 11                   OVER VOTES                            PRECINCT 3                                             01 
01050030005000000000000000000000000000000000000          United States Representative, Dist 11                   OVER VOTES                            PRECINCT 4                                             01 
01050030006000000000000000000000000000000000000          United States Representative, Dist 11                   OVER VOTES                            PRECINCT 046                                           01 
01050040001000024000017000007000000000000000000          United States Representative, Dist 11                   UNDER VOTES                           PRECINCT 1                                             01 
01050040002000000000000000000000000000000000000          United States Representative, Dist 11                   UNDER VOTES                           PRECINCT 2                                             01 
01050040003000015000007000008000000000000000000          United States Representative, Dist 11                   UNDER VOTES                           PRECINCT 025                                           01 
01050040004000026000010000016000000000000000000          United States Representative, Dist 11                   UNDER VOTES                           PRECINCT 3                                             01 
01050040005000021000011000010000000000000000000          United States Representative, Dist 11                   UNDER VOTES                           PRECINCT 4                                             01 
01050040006000021000013000008000000000000000000          United States Representative, Dist 11                   UNDER VOTES                           PRECINCT 046                                           01 
01060010001000276000136000140000000000000000000REP       Governor                                                Greg Abbott                           PRECINCT 1                                             01 
01060010002000090000019000071000000000000000000REP       Governor                                                Greg Abbott                           PRECINCT 2                                             01 
01060010003000129000076000053000000000000000000REP       Governor                                                Greg Abbott                           PRECINCT 025                                           01 
01060010004000216000107000109000000000000000000REP       Governor                                                Greg Abbott                           PRECINCT 3                                             01 
01060010005000169000055000114000000000000000000REP       Governor                                                Greg Abbott                           PRECINCT 4                                             01 
01060010006000140000064000076000000000000000000REP       Governor                                                Greg Abbott                           PRECINCT 046                                           01 
01060020001000048000025000023000000000000000000DEM       Governor                                                Wendy R. Davis                        PRECINCT 1                                             01 
01060020002000001000000000001000000000000000000DEM       Governor                                                Wendy R. Davis                        PRECINCT 2                                             01 
01060020003000029000011000018000000000000000000DEM       Governor                                                Wendy R. Davis                        PRECINCT 025                                           01 
01060020004000045000022000023000000000000000000DEM       Governor                                                Wendy R. Davis                        PRECINCT 3                                             01 
01060020005000030000011000019000000000000000000DEM       Governor                                                Wendy R. Davis                        PRECINCT 4                                             01 
01060020006000023000012000011000000000000000000DEM       Governor                                                Wendy R. Davis                        PRECINCT 046                                           01 
01060030001000003000001000002000000000000000000LIB       Governor                                                Kathie Glass                          PRECINCT 1                                             01 
01060030002000000000000000000000000000000000000LIB       Governor                                                Kathie Glass                          PRECINCT 2                                             01 
01060030003000001000001000000000000000000000000LIB       Governor                                                Kathie Glass                          PRECINCT 025                                           01 
01060030004000003000003000000000000000000000000LIB       Governor                                                Kathie Glass                          PRECINCT 3                                             01 
01060030005000001000001000000000000000000000000LIB       Governor                                                Kathie Glass                          PRECINCT 4                                             01 
01060030006000001000000000001000000000000000000LIB       Governor                                                Kathie Glass                          PRECINCT 046                                           01 
01060040001000001000001000000000000000000000000GRN       Governor                                                Brandon Parmer                        PRECINCT 1                                             01 
01060040002000000000000000000000000000000000000GRN       Governor                                                Brandon Parmer                        PRECINCT 2                                             01 
01060040003000000000000000000000000000000000000GRN       Governor                                                Brandon Parmer                        PRECINCT 025                                           01 
01060040004000002000001000001000000000000000000GRN       Governor                                                Brandon Parmer                        PRECINCT 3                                             01 
01060040005000002000002000000000000000000000000GRN       Governor                                                Brandon Parmer                        PRECINCT 4                                             01 
01060040006000000000000000000000000000000000000GRN       Governor                                                Brandon Parmer                        PRECINCT 046                                           01 
01060050001000001000000000001000000000000000000NON       Governor                                                WRITE-IN                              PRECINCT 1                                             01 
01060050002000000000000000000000000000000000000NON       Governor                                                WRITE-IN                              PRECINCT 2                                             01 
01060050003000000000000000000000000000000000000NON       Governor                                                WRITE-IN                              PRECINCT 025                                           01 
01060050004000000000000000000000000000000000000NON       Governor                                                WRITE-IN                              PRECINCT 3                                             01 
01060050005000000000000000000000000000000000000NON       Governor                                                WRITE-IN                              PRECINCT 4                                             01 
01060050006000000000000000000000000000000000000NON       Governor                                                WRITE-IN                              PRECINCT 046                                           01 
01060060001000000000000000000000000000000000000          Governor                                                OVER VOTES                            PRECINCT 1                                             01 
01060060002000000000000000000000000000000000000          Governor                                                OVER VOTES                            PRECINCT 2                                             01 
01060060003000000000000000000000000000000000000          Governor                                                OVER VOTES                            PRECINCT 025                                           01 
01060060004000000000000000000000000000000000000          Governor                                                OVER VOTES                            PRECINCT 3                                             01 
01060060005000000000000000000000000000000000000          Governor                                                OVER VOTES                            PRECINCT 4                                             01 
01060060006000000000000000000000000000000000000          Governor                                                OVER VOTES                            PRECINCT 046                                           01 
01060070001000005000005000000000000000000000000          Governor                                                UNDER VOTES                           PRECINCT 1                                             01 
01060070002000000000000000000000000000000000000          Governor                                                UNDER VOTES                           PRECINCT 2                                             01 
01060070003000002000002000000000000000000000000          Governor                                                UNDER VOTES                           PRECINCT 025                                           01 
01060070004000003000000000003000000000000000000          Governor                                                UNDER VOTES                           PRECINCT 3                                             01 
01060070005000004000001000003000000000000000000          Governor                                                UNDER VOTES                           PRECINCT 4                                             01 
01060070006000008000005000003000000000000000000          Governor                                                UNDER VOTES                           PRECINCT 046                                           01 
01070010001000265000134000131000000000000000000REP       Lieutenant Governor                                     Dan Patrick                           PRECINCT 1                                             01 
01070010002000090000019000071000000000000000000REP       Lieutenant Governor                                     Dan Patrick                           PRECINCT 2                                             01 
01070010003000115000071000044000000000000000000REP       Lieutenant Governor                                     Dan Patrick                           PRECINCT 025                                           01 
01070010004000211000102000109000000000000000000REP       Lieutenant Governor                                     Dan Patrick                           PRECINCT 3                                             01 
01070010005000156000054000102000000000000000000REP       Lieutenant Governor                                     Dan Patrick                           PRECINCT 4                                             01 
01070010006000127000059000068000000000000000000REP       Lieutenant Governor                                     Dan Patrick                           PRECINCT 046                                           01 
01070020001000047000024000023000000000000000000DEM       Lieutenant Governor                                     Leticia Van de Putte                  PRECINCT 1                                             01 
01070020002000001000000000001000000000000000000DEM       Lieutenant Governor                                     Leticia Van de Putte                  PRECINCT 2                                             01 
01070020003000037000016000021000000000000000000DEM       Lieutenant Governor                                     Leticia Van de Putte                  PRECINCT 025                                           01 
01070020004000043000021000022000000000000000000DEM       Lieutenant Governor                                     Leticia Van de Putte                  PRECINCT 3                                             01 
01070020005000034000010000024000000000000000000DEM       Lieutenant Governor                                     Leticia Van de Putte                  PRECINCT 4                                             01 
01070020006000026000013000013000000000000000000DEM       Lieutenant Governor                                     Leticia Van de Putte                  PRECINCT 046                                           01 
01070030001000009000001000008000000000000000000LIB       Lieutenant Governor                                     Robert D. Butler                      PRECINCT 1                                             01 
01070030002000000000000000000000000000000000000LIB       Lieutenant Governor                                     Robert D. Butler                      PRECINCT 2                                             01 
01070030003000002000001000001000000000000000000LIB       Lieutenant Governor                                     Robert D. Butler                      PRECINCT 025                                           01 
01070030004000006000005000001000000000000000000LIB       Lieutenant Governor                                     Robert D. Butler                      PRECINCT 3                                             01 
01070030005000005000002000003000000000000000000LIB       Lieutenant Governor                                     Robert D. Butler                      PRECINCT 4                                             01 
01070030006000005000001000004000000000000000000LIB       Lieutenant Governor                                     Robert D. Butler                      PRECINCT 046                                           01 
01070040001000002000002000000000000000000000000GRN       Lieutenant Governor                                     Chandrakantha Courtney                PRECINCT 1                                             01 
01070040002000000000000000000000000000000000000GRN       Lieutenant Governor                                     Chandrakantha Courtney                PRECINCT 2                                             01 
01070040003000000000000000000000000000000000000GRN       Lieutenant Governor                                     Chandrakantha Courtney                PRECINCT 025                                           01 
01070040004000004000003000001000000000000000000GRN       Lieutenant Governor                                     Chandrakantha Courtney                PRECINCT 3                                             01 
01070040005000002000001000001000000000000000000GRN       Lieutenant Governor                                     Chandrakantha Courtney                PRECINCT 4                                             01 
01070040006000000000000000000000000000000000000GRN       Lieutenant Governor                                     Chandrakantha Courtney                PRECINCT 046                                           01 
01070050001000001000000000001000000000000000000          Lieutenant Governor                                     OVER VOTES                            PRECINCT 1                                             01 
01070050002000000000000000000000000000000000000          Lieutenant Governor                                     OVER VOTES                            PRECINCT 2                                             01 
01070050003000000000000000000000000000000000000          Lieutenant Governor                                     OVER VOTES                            PRECINCT 025                                           01 
01070050004000000000000000000000000000000000000          Lieutenant Governor                                     OVER VOTES                            PRECINCT 3                                             01 
01070050005000000000000000000000000000000000000          Lieutenant Governor                                     OVER VOTES                            PRECINCT 4                                             01 
01070050006000000000000000000000000000000000000          Lieutenant Governor                                     OVER VOTES                            PRECINCT 046                                           01 
01070060001000010000007000003000000000000000000          Lieutenant Governor                                     UNDER VOTES                           PRECINCT 1                                             01 
01070060002000000000000000000000000000000000000          Lieutenant Governor                                     UNDER VOTES                           PRECINCT 2                                             01 
01070060003000007000002000005000000000000000000          Lieutenant Governor                                     UNDER VOTES                           PRECINCT 025                                           01 
01070060004000005000002000003000000000000000000          Lieutenant Governor                                     UNDER VOTES                           PRECINCT 3                                             01 
01070060005000009000003000006000000000000000000          Lieutenant Governor                                     UNDER VOTES                           PRECINCT 4                                             01 
01070060006000014000008000006000000000000000000          Lieutenant Governor                                     UNDER VOTES                           PRECINCT 046                                           01 
01080010001000190000097000093000000000000000000REP       Attorney General                                        Ken Paxton                            PRECINCT 1                                             01 
01080010002000079000016000063000000000000000000REP       Attorney General                                        Ken Paxton                            PRECINCT 2                                             01 
01080010003000083000046000037000000000000000000REP       Attorney General                                        Ken Paxton                            PRECINCT 025                                           01 
01080010004000174000080000094000000000000000000REP       Attorney General                                        Ken Paxton                            PRECINCT 3                                             01 
01080010005000119000038000081000000000000000000REP       Attorney General                                        Ken Paxton                            PRECINCT 4                                             01 
01080010006000084000040000044000000000000000000REP       Attorney General                                        Ken Paxton                            PRECINCT 046                                           01 
01080020001000134000065000069000000000000000000DEM       Attorney General                                        Sam Houston                           PRECINCT 1                                             01 
01080020002000012000003000009000000000000000000DEM       Attorney General                                        Sam Houston                           PRECINCT 2                                             01 
01080020003000071000038000033000000000000000000DEM       Attorney General                                        Sam Houston                           PRECINCT 025                                           01 
01080020004000088000049000039000000000000000000DEM       Attorney General                                        Sam Houston                           PRECINCT 3                                             01 
01080020005000072000027000045000000000000000000DEM       Attorney General                                        Sam Houston                           PRECINCT 4                                             01 
01080020006000077000036000041000000000000000000DEM       Attorney General                                        Sam Houston                           PRECINCT 046                                           01 
01080030001000005000001000004000000000000000000LIB       Attorney General                                        Jamie Balagia                         PRECINCT 1                                             01 
01080030002000000000000000000000000000000000000LIB       Attorney General                                        Jamie Balagia                         PRECINCT 2                                             01 
01080030003000004000004000000000000000000000000LIB       Attorney General                                        Jamie Balagia                         PRECINCT 025                                           01 
01080030004000003000003000000000000000000000000LIB       Attorney General                                        Jamie Balagia                         PRECINCT 3                                             01 
01080030005000007000002000005000000000000000000LIB       Attorney General                                        Jamie Balagia                         PRECINCT 4                                             01 
01080030006000000000000000000000000000000000000LIB       Attorney General                                        Jamie Balagia                         PRECINCT 046                                           01 
01080040001000000000000000000000000000000000000GRN       Attorney General                                        Jamar Osborne                         PRECINCT 1                                             01 
01080040002000000000000000000000000000000000000GRN       Attorney General                                        Jamar Osborne                         PRECINCT 2                                             01 
01080040003000000000000000000000000000000000000GRN       Attorney General                                        Jamar Osborne                         PRECINCT 025                                           01 
01080040004000001000001000000000000000000000000GRN       Attorney General                                        Jamar Osborne                         PRECINCT 3                                             01 
01080040005000001000001000000000000000000000000GRN       Attorney General                                        Jamar Osborne                         PRECINCT 4                                             01 
01080040006000001000000000001000000000000000000GRN       Attorney General                                        Jamar Osborne                         PRECINCT 046                                           01 
01080050001000000000000000000000000000000000000          Attorney General                                        OVER VOTES                            PRECINCT 1                                             01 
01080050002000000000000000000000000000000000000          Attorney General                                        OVER VOTES                            PRECINCT 2                                             01 
01080050003000000000000000000000000000000000000          Attorney General                                        OVER VOTES                            PRECINCT 025                                           01 
01080050004000000000000000000000000000000000000          Attorney General                                        OVER VOTES                            PRECINCT 3                                             01 
01080050005000000000000000000000000000000000000          Attorney General                                        OVER VOTES                            PRECINCT 4                                             01 
01080050006000000000000000000000000000000000000          Attorney General                                        OVER VOTES                            PRECINCT 046                                           01 
01080060001000005000005000000000000000000000000          Attorney General                                        UNDER VOTES                           PRECINCT 1                                             01 
01080060002000000000000000000000000000000000000          Attorney General                                        UNDER VOTES                           PRECINCT 2                                             01 
01080060003000003000002000001000000000000000000          Attorney General                                        UNDER VOTES                           PRECINCT 025                                           01 
01080060004000003000000000003000000000000000000          Attorney General                                        UNDER VOTES                           PRECINCT 3                                             01 
01080060005000007000002000005000000000000000000          Attorney General                                        UNDER VOTES                           PRECINCT 4                                             01 
01080060006000010000005000005000000000000000000          Attorney General                                        UNDER VOTES                           PRECINCT 046                                           01 
01090010001000243000123000120000000000000000000REP       Comptroller of Public Accounts                          Glenn Hegar                           PRECINCT 1                                             01 
01090010002000087000019000068000000000000000000REP       Comptroller of Public Accounts                          Glenn Hegar                           PRECINCT 2                                             01 
01090010003000104000060000044000000000000000000REP       Comptroller of Public Accounts                          Glenn Hegar                           PRECINCT 025                                           01 
01090010004000195000096000099000000000000000000REP       Comptroller of Public Accounts                          Glenn Hegar                           PRECINCT 3                                             01 
01090010005000139000046000093000000000000000000REP       Comptroller of Public Accounts                          Glenn Hegar                           PRECINCT 4                                             01 
01090010006000114000053000061000000000000000000REP       Comptroller of Public Accounts                          Glenn Hegar                           PRECINCT 046                                           01 
01090020001000062000029000033000000000000000000DEM       Comptroller of Public Accounts                          Mike Collier                          PRECINCT 1                                             01 
01090020002000003000000000003000000000000000000DEM       Comptroller of Public Accounts                          Mike Collier                          PRECINCT 2                                             01 
01090020003000041000021000020000000000000000000DEM       Comptroller of Public Accounts                          Mike Collier                          PRECINCT 025                                           01 
01090020004000059000028000031000000000000000000DEM       Comptroller of Public Accounts                          Mike Collier                          PRECINCT 3                                             01 
01090020005000044000015000029000000000000000000DEM       Comptroller of Public Accounts                          Mike Collier                          PRECINCT 4                                             01 
01090020006000034000017000017000000000000000000DEM       Comptroller of Public Accounts                          Mike Collier                          PRECINCT 046                                           01 
01090030001000009000004000005000000000000000000LIB       Comptroller of Public Accounts                          Ben Sanders                           PRECINCT 1                                             01 
01090030002000000000000000000000000000000000000LIB       Comptroller of Public Accounts                          Ben Sanders                           PRECINCT 2                                             01 
01090030003000002000002000000000000000000000000LIB       Comptroller of Public Accounts                          Ben Sanders                           PRECINCT 025                                           01 
01090030004000006000005000001000000000000000000LIB       Comptroller of Public Accounts                          Ben Sanders                           PRECINCT 3                                             01 
01090030005000004000002000002000000000000000000LIB       Comptroller of Public Accounts                          Ben Sanders                           PRECINCT 4                                             01 
01090030006000002000001000001000000000000000000LIB       Comptroller of Public Accounts                          Ben Sanders                           PRECINCT 046                                           01 
01090040001000004000002000002000000000000000000GRN       Comptroller of Public Accounts                          Deb Shafto                            PRECINCT 1                                             01 
01090040002000000000000000000000000000000000000GRN       Comptroller of Public Accounts                          Deb Shafto                            PRECINCT 2                                             01 
01090040003000001000001000000000000000000000000GRN       Comptroller of Public Accounts                          Deb Shafto                            PRECINCT 025                                           01 
01090040004000002000002000000000000000000000000GRN       Comptroller of Public Accounts                          Deb Shafto                            PRECINCT 3                                             01 
01090040005000001000001000000000000000000000000GRN       Comptroller of Public Accounts                          Deb Shafto                            PRECINCT 4                                             01 
01090040006000000000000000000000000000000000000GRN       Comptroller of Public Accounts                          Deb Shafto                            PRECINCT 046                                           01 
01090050001000000000000000000000000000000000000          Comptroller of Public Accounts                          OVER VOTES                            PRECINCT 1                                             01 
01090050002000000000000000000000000000000000000          Comptroller of Public Accounts                          OVER VOTES                            PRECINCT 2                                             01 
01090050003000000000000000000000000000000000000          Comptroller of Public Accounts                          OVER VOTES                            PRECINCT 025                                           01 
01090050004000000000000000000000000000000000000          Comptroller of Public Accounts                          OVER VOTES                            PRECINCT 3                                             01 
01090050005000000000000000000000000000000000000          Comptroller of Public Accounts                          OVER VOTES                            PRECINCT 4                                             01 
01090050006000000000000000000000000000000000000          Comptroller of Public Accounts                          OVER VOTES                            PRECINCT 046                                           01 
01090060001000016000010000006000000000000000000          Comptroller of Public Accounts                          UNDER VOTES                           PRECINCT 1                                             01 
01090060002000001000000000001000000000000000000          Comptroller of Public Accounts                          UNDER VOTES                           PRECINCT 2                                             01 
01090060003000013000006000007000000000000000000          Comptroller of Public Accounts                          UNDER VOTES                           PRECINCT 025                                           01 
01090060004000007000002000005000000000000000000          Comptroller of Public Accounts                          UNDER VOTES                           PRECINCT 3                                             01 
01090060005000018000006000012000000000000000000          Comptroller of Public Accounts                          UNDER VOTES                           PRECINCT 4                                             01 
01090060006000022000010000012000000000000000000          Comptroller of Public Accounts                          UNDER VOTES                           PRECINCT 046                                           01 
01100010001000263000133000130000000000000000000REP       Commissioner of the General Land Office                 George P. Bush                        PRECINCT 1                                             01 
01100010002000087000019000068000000000000000000REP       Commissioner of the General Land Office                 George P. Bush                        PRECINCT 2                                             01 
01100010003000113000068000045000000000000000000REP       Commissioner of the General Land Office                 George P. Bush                        PRECINCT 025                                           01 
01100010004000201000095000106000000000000000000REP       Commissioner of the General Land Office                 George P. Bush                        PRECINCT 3                                             01 
01100010005000142000045000097000000000000000000REP       Commissioner of the General Land Office                 George P. Bush                        PRECINCT 4                                             01 
01100010006000122000050000072000000000000000000REP       Commissioner of the General Land Office                 George P. Bush                        PRECINCT 046                                           01 
01100020001000053000026000027000000000000000000DEM       Commissioner of the General Land Office                 John Cook                             PRECINCT 1                                             01 
01100020002000002000000000002000000000000000000DEM       Commissioner of the General Land Office                 John Cook                             PRECINCT 2                                             01 
01100020003000033000015000018000000000000000000DEM       Commissioner of the General Land Office                 John Cook                             PRECINCT 025                                           01 
01100020004000047000026000021000000000000000000DEM       Commissioner of the General Land Office                 John Cook                             PRECINCT 3                                             01 
01100020005000044000015000029000000000000000000DEM       Commissioner of the General Land Office                 John Cook                             PRECINCT 4                                             01 
01100020006000031000018000013000000000000000000DEM       Commissioner of the General Land Office                 John Cook                             PRECINCT 046                                           01 
01100030001000009000002000007000000000000000000LIB       Commissioner of the General Land Office                 Justin Knight                         PRECINCT 1                                             01 
01100030002000002000000000002000000000000000000LIB       Commissioner of the General Land Office                 Justin Knight                         PRECINCT 2                                             01 
01100030003000005000003000002000000000000000000LIB       Commissioner of the General Land Office                 Justin Knight                         PRECINCT 025                                           01 
01100030004000010000006000004000000000000000000LIB       Commissioner of the General Land Office                 Justin Knight                         PRECINCT 3                                             01 
01100030005000006000004000002000000000000000000LIB       Commissioner of the General Land Office                 Justin Knight                         PRECINCT 4                                             01 
01100030006000006000004000002000000000000000000LIB       Commissioner of the General Land Office                 Justin Knight                         PRECINCT 046                                           01 
01100040001000002000001000001000000000000000000GRN       Commissioner of the General Land Office                 Valerie Alessi                        PRECINCT 1                                             01 
01100040002000000000000000000000000000000000000GRN       Commissioner of the General Land Office                 Valerie Alessi                        PRECINCT 2                                             01 
01100040003000000000000000000000000000000000000GRN       Commissioner of the General Land Office                 Valerie Alessi                        PRECINCT 025                                           01 
01100040004000003000003000000000000000000000000GRN       Commissioner of the General Land Office                 Valerie Alessi                        PRECINCT 3                                             01 
01100040005000001000001000000000000000000000000GRN       Commissioner of the General Land Office                 Valerie Alessi                        PRECINCT 4                                             01 
01100040006000000000000000000000000000000000000GRN       Commissioner of the General Land Office                 Valerie Alessi                        PRECINCT 046                                           01 
01100050001000000000000000000000000000000000000          Commissioner of the General Land Office                 OVER VOTES                            PRECINCT 1                                             01 
01100050002000000000000000000000000000000000000          Commissioner of the General Land Office                 OVER VOTES                            PRECINCT 2                                             01 
01100050003000000000000000000000000000000000000          Commissioner of the General Land Office                 OVER VOTES                            PRECINCT 025                                           01 
01100050004000000000000000000000000000000000000          Commissioner of the General Land Office                 OVER VOTES                            PRECINCT 3                                             01 
01100050005000000000000000000000000000000000000          Commissioner of the General Land Office                 OVER VOTES                            PRECINCT 4                                             01 
01100050006000000000000000000000000000000000000          Commissioner of the General Land Office                 OVER VOTES                            PRECINCT 046                                           01 
01100060001000007000006000001000000000000000000          Commissioner of the General Land Office                 UNDER VOTES                           PRECINCT 1                                             01 
01100060002000000000000000000000000000000000000          Commissioner of the General Land Office                 UNDER VOTES                           PRECINCT 2                                             01 
01100060003000010000004000006000000000000000000          Commissioner of the General Land Office                 UNDER VOTES                           PRECINCT 025                                           01 
01100060004000008000003000005000000000000000000          Commissioner of the General Land Office                 UNDER VOTES                           PRECINCT 3                                             01 
01100060005000013000005000008000000000000000000          Commissioner of the General Land Office                 UNDER VOTES                           PRECINCT 4                                             01 
01100060006000013000009000004000000000000000000          Commissioner of the General Land Office                 UNDER VOTES                           PRECINCT 046                                           01 
01110010001000245000124000121000000000000000000REP       Commissioner of Agriculture                             Sid Miller                            PRECINCT 1                                             01 
01110010002000087000019000068000000000000000000REP       Commissioner of Agriculture                             Sid Miller                            PRECINCT 2                                             01 
01110010003000103000063000040000000000000000000REP       Commissioner of Agriculture                             Sid Miller                            PRECINCT 025                                           01 
01110010004000196000094000102000000000000000000REP       Commissioner of Agriculture                             Sid Miller                            PRECINCT 3                                             01 
01110010005000136000048000088000000000000000000REP       Commissioner of Agriculture                             Sid Miller                            PRECINCT 4                                             01 
01110010006000122000057000065000000000000000000REP       Commissioner of Agriculture                             Sid Miller                            PRECINCT 046                                           01 
01110020001000061000029000032000000000000000000DEM       Commissioner of Agriculture                             Jim Hogan                             PRECINCT 1                                             01 
01110020002000003000000000003000000000000000000DEM       Commissioner of Agriculture                             Jim Hogan                             PRECINCT 2                                             01 
01110020003000039000018000021000000000000000000DEM       Commissioner of Agriculture                             Jim Hogan                             PRECINCT 025                                           01 
01110020004000061000033000028000000000000000000DEM       Commissioner of Agriculture                             Jim Hogan                             PRECINCT 3                                             01 
01110020005000045000013000032000000000000000000DEM       Commissioner of Agriculture                             Jim Hogan                             PRECINCT 4                                             01 
01110020006000031000014000017000000000000000000DEM       Commissioner of Agriculture                             Jim Hogan                             PRECINCT 046                                           01 
01110030001000007000002000005000000000000000000LIB       Commissioner of Agriculture                             David (Rocky) Palmquist               PRECINCT 1                                             01 
01110030002000001000000000001000000000000000000LIB       Commissioner of Agriculture                             David (Rocky) Palmquist               PRECINCT 2                                             01 
01110030003000004000003000001000000000000000000LIB       Commissioner of Agriculture                             David (Rocky) Palmquist               PRECINCT 025                                           01 
01110030004000004000003000001000000000000000000LIB       Commissioner of Agriculture                             David (Rocky) Palmquist               PRECINCT 3                                             01 
01110030005000004000001000003000000000000000000LIB       Commissioner of Agriculture                             David (Rocky) Palmquist               PRECINCT 4                                             01 
01110030006000001000001000000000000000000000000LIB       Commissioner of Agriculture                             David (Rocky) Palmquist               PRECINCT 046                                           01 
01110040001000003000002000001000000000000000000GRN       Commissioner of Agriculture                             Kenneth Kendrick                      PRECINCT 1                                             01 
01110040002000000000000000000000000000000000000GRN       Commissioner of Agriculture                             Kenneth Kendrick                      PRECINCT 2                                             01 
01110040003000003000002000001000000000000000000GRN       Commissioner of Agriculture                             Kenneth Kendrick                      PRECINCT 025                                           01 
01110040004000002000001000001000000000000000000GRN       Commissioner of Agriculture                             Kenneth Kendrick                      PRECINCT 3                                             01 
01110040005000005000004000001000000000000000000GRN       Commissioner of Agriculture                             Kenneth Kendrick                      PRECINCT 4                                             01 
01110040006000002000000000002000000000000000000GRN       Commissioner of Agriculture                             Kenneth Kendrick                      PRECINCT 046                                           01 
01110050001000000000000000000000000000000000000          Commissioner of Agriculture                             OVER VOTES                            PRECINCT 1                                             01 
01110050002000000000000000000000000000000000000          Commissioner of Agriculture                             OVER VOTES                            PRECINCT 2                                             01 
01110050003000000000000000000000000000000000000          Commissioner of Agriculture                             OVER VOTES                            PRECINCT 025                                           01 
01110050004000000000000000000000000000000000000          Commissioner of Agriculture                             OVER VOTES                            PRECINCT 3                                             01 
01110050005000000000000000000000000000000000000          Commissioner of Agriculture                             OVER VOTES                            PRECINCT 4                                             01 
01110050006000000000000000000000000000000000000          Commissioner of Agriculture                             OVER VOTES                            PRECINCT 046                                           01 
01110060001000018000011000007000000000000000000          Commissioner of Agriculture                             UNDER VOTES                           PRECINCT 1                                             01 
01110060002000000000000000000000000000000000000          Commissioner of Agriculture                             UNDER VOTES                           PRECINCT 2                                             01 
01110060003000012000004000008000000000000000000          Commissioner of Agriculture                             UNDER VOTES                           PRECINCT 025                                           01 
01110060004000006000002000004000000000000000000          Commissioner of Agriculture                             UNDER VOTES                           PRECINCT 3                                             01 
01110060005000016000004000012000000000000000000          Commissioner of Agriculture                             UNDER VOTES                           PRECINCT 4                                             01 
01110060006000016000009000007000000000000000000          Commissioner of Agriculture                             UNDER VOTES                           PRECINCT 046                                           01 
01120010001000238000118000120000000000000000000REP       Railroad Commissioner                                   Ryan Sitton                           PRECINCT 1                                             01 
01120010002000085000017000068000000000000000000REP       Railroad Commissioner                                   Ryan Sitton                           PRECINCT 2                                             01 
01120010003000104000064000040000000000000000000REP       Railroad Commissioner                                   Ryan Sitton                           PRECINCT 025                                           01 
01120010004000201000100000101000000000000000000REP       Railroad Commissioner                                   Ryan Sitton                           PRECINCT 3                                             01 
01120010005000131000044000087000000000000000000REP       Railroad Commissioner                                   Ryan Sitton                           PRECINCT 4                                             01 
01120010006000118000057000061000000000000000000REP       Railroad Commissioner                                   Ryan Sitton                           PRECINCT 046                                           01 
01120020001000056000031000025000000000000000000DEM       Railroad Commissioner                                   Steve Brown                           PRECINCT 1                                             01 
01120020002000005000001000004000000000000000000DEM       Railroad Commissioner                                   Steve Brown                           PRECINCT 2                                             01 
01120020003000037000016000021000000000000000000DEM       Railroad Commissioner                                   Steve Brown                           PRECINCT 025                                           01 
01120020004000049000024000025000000000000000000DEM       Railroad Commissioner                                   Steve Brown                           PRECINCT 3                                             01 
01120020005000046000014000032000000000000000000DEM       Railroad Commissioner                                   Steve Brown                           PRECINCT 4                                             01 
01120020006000028000013000015000000000000000000DEM       Railroad Commissioner                                   Steve Brown                           PRECINCT 046                                           01 
01120030001000011000004000007000000000000000000LIB       Railroad Commissioner                                   Mark A. Miller                        PRECINCT 1                                             01 
01120030002000001000001000000000000000000000000LIB       Railroad Commissioner                                   Mark A. Miller                        PRECINCT 2                                             01 
01120030003000007000004000003000000000000000000LIB       Railroad Commissioner                                   Mark A. Miller                        PRECINCT 025                                           01 
01120030004000009000006000003000000000000000000LIB       Railroad Commissioner                                   Mark A. Miller                        PRECINCT 3                                             01 
01120030005000006000004000002000000000000000000LIB       Railroad Commissioner                                   Mark A. Miller                        PRECINCT 4                                             01 
01120030006000003000001000002000000000000000000LIB       Railroad Commissioner                                   Mark A. Miller                        PRECINCT 046                                           01 
01120040001000012000004000008000000000000000000GRN       Railroad Commissioner                                   Martina Salinas                       PRECINCT 1                                             01 
01120040002000000000000000000000000000000000000GRN       Railroad Commissioner                                   Martina Salinas                       PRECINCT 2                                             01 
01120040003000005000003000002000000000000000000GRN       Railroad Commissioner                                   Martina Salinas                       PRECINCT 025                                           01 
01120040004000001000000000001000000000000000000GRN       Railroad Commissioner                                   Martina Salinas                       PRECINCT 3                                             01 
01120040005000003000003000000000000000000000000GRN       Railroad Commissioner                                   Martina Salinas                       PRECINCT 4                                             01 
01120040006000005000001000004000000000000000000GRN       Railroad Commissioner                                   Martina Salinas                       PRECINCT 046                                           01 
01120050001000000000000000000000000000000000000          Railroad Commissioner                                   OVER VOTES                            PRECINCT 1                                             01 
01120050002000000000000000000000000000000000000          Railroad Commissioner                                   OVER VOTES                            PRECINCT 2                                             01 
01120050003000000000000000000000000000000000000          Railroad Commissioner                                   OVER VOTES                            PRECINCT 025                                           01 
01120050004000000000000000000000000000000000000          Railroad Commissioner                                   OVER VOTES                            PRECINCT 3                                             01 
01120050005000000000000000000000000000000000000          Railroad Commissioner                                   OVER VOTES                            PRECINCT 4                                             01 
01120050006000000000000000000000000000000000000          Railroad Commissioner                                   OVER VOTES                            PRECINCT 046                                           01 
01120060001000017000011000006000000000000000000          Railroad Commissioner                                   UNDER VOTES                           PRECINCT 1                                             01 
01120060002000000000000000000000000000000000000          Railroad Commissioner                                   UNDER VOTES                           PRECINCT 2                                             01 
01120060003000008000003000005000000000000000000          Railroad Commissioner                                   UNDER VOTES                           PRECINCT 025                                           01 
01120060004000009000003000006000000000000000000          Railroad Commissioner                                   UNDER VOTES                           PRECINCT 3                                             01 
01120060005000020000005000015000000000000000000          Railroad Commissioner                                   UNDER VOTES                           PRECINCT 4                                             01 
01120060006000018000009000009000000000000000000          Railroad Commissioner                                   UNDER VOTES                           PRECINCT 046                                           01 
01130010001000245000122000123000000000000000000REP       Chief Justice, Supreme Court                            Nathan Hecht                          PRECINCT 1                                             01 
01130010002000085000019000066000000000000000000REP       Chief Justice, Supreme Court                            Nathan Hecht                          PRECINCT 2                                             01 
01130010003000109000065000044000000000000000000REP       Chief Justice, Supreme Court                            Nathan Hecht                          PRECINCT 025                                           01 
01130010004000198000094000104000000000000000000REP       Chief Justice, Supreme Court                            Nathan Hecht                          PRECINCT 3                                             01 
01130010005000138000045000093000000000000000000REP       Chief Justice, Supreme Court                            Nathan Hecht                          PRECINCT 4                                             01 
01130010006000118000054000064000000000000000000REP       Chief Justice, Supreme Court                            Nathan Hecht                          PRECINCT 046                                           01 
01130020001000065000034000031000000000000000000DEM       Chief Justice, Supreme Court                            William Moody                         PRECINCT 1                                             01 
01130020002000003000000000003000000000000000000DEM       Chief Justice, Supreme Court                            William Moody                         PRECINCT 2                                             01 
01130020003000037000019000018000000000000000000DEM       Chief Justice, Supreme Court                            William Moody                         PRECINCT 025                                           01 
01130020004000057000029000028000000000000000000DEM       Chief Justice, Supreme Court                            William Moody                         PRECINCT 3                                             01 
01130020005000041000016000025000000000000000000DEM       Chief Justice, Supreme Court                            William Moody                         PRECINCT 4                                             01 
01130020006000033000016000017000000000000000000DEM       Chief Justice, Supreme Court                            William Moody                         PRECINCT 046                                           01 
01130030001000011000005000006000000000000000000LIB       Chief Justice, Supreme Court                            Tom Oxford                            PRECINCT 1                                             01 
01130030002000002000000000002000000000000000000LIB       Chief Justice, Supreme Court                            Tom Oxford                            PRECINCT 2                                             01 
01130030003000004000003000001000000000000000000LIB       Chief Justice, Supreme Court                            Tom Oxford                            PRECINCT 025                                           01 
01130030004000008000006000002000000000000000000LIB       Chief Justice, Supreme Court                            Tom Oxford                            PRECINCT 3                                             01 
01130030005000009000004000005000000000000000000LIB       Chief Justice, Supreme Court                            Tom Oxford                            PRECINCT 4                                             01 
01130030006000002000001000001000000000000000000LIB       Chief Justice, Supreme Court                            Tom Oxford                            PRECINCT 046                                           01 
01130040001000000000000000000000000000000000000          Chief Justice, Supreme Court                            OVER VOTES                            PRECINCT 1                                             01 
01130040002000000000000000000000000000000000000          Chief Justice, Supreme Court                            OVER VOTES                            PRECINCT 2                                             01 
01130040003000000000000000000000000000000000000          Chief Justice, Supreme Court                            OVER VOTES                            PRECINCT 025                                           01 
01130040004000000000000000000000000000000000000          Chief Justice, Supreme Court                            OVER VOTES                            PRECINCT 3                                             01 
01130040005000000000000000000000000000000000000          Chief Justice, Supreme Court                            OVER VOTES                            PRECINCT 4                                             01 
01130040006000000000000000000000000000000000000          Chief Justice, Supreme Court                            OVER VOTES                            PRECINCT 046                                           01 
01130050001000013000007000006000000000000000000          Chief Justice, Supreme Court                            UNDER VOTES                           PRECINCT 1                                             01 
01130050002000001000000000001000000000000000000          Chief Justice, Supreme Court                            UNDER VOTES                           PRECINCT 2                                             01 
01130050003000011000003000008000000000000000000          Chief Justice, Supreme Court                            UNDER VOTES                           PRECINCT 025                                           01 
01130050004000006000004000002000000000000000000          Chief Justice, Supreme Court                            UNDER VOTES                           PRECINCT 3                                             01 
01130050005000018000005000013000000000000000000          Chief Justice, Supreme Court                            UNDER VOTES                           PRECINCT 4                                             01 
01130050006000019000010000009000000000000000000          Chief Justice, Supreme Court                            UNDER VOTES                           PRECINCT 046                                           01 
01140010001000253000129000124000000000000000000REP       Supreme Court, Place 6, Unexpired Term                  Jeff Brown                            PRECINCT 1                                             01 
01140010002000087000019000068000000000000000000REP       Supreme Court, Place 6, Unexpired Term                  Jeff Brown                            PRECINCT 2                                             01 
01140010003000110000066000044000000000000000000REP       Supreme Court, Place 6, Unexpired Term                  Jeff Brown                            PRECINCT 025                                           01 
01140010004000206000101000105000000000000000000REP       Supreme Court, Place 6, Unexpired Term                  Jeff Brown                            PRECINCT 3                                             01 
01140010005000138000048000090000000000000000000REP       Supreme Court, Place 6, Unexpired Term                  Jeff Brown                            PRECINCT 4                                             01 
01140010006000120000056000064000000000000000000REP       Supreme Court, Place 6, Unexpired Term                  Jeff Brown                            PRECINCT 046                                           01 
01140020001000055000026000029000000000000000000DEM       Supreme Court, Place 6, Unexpired Term                  Lawrence Edward Meyers                PRECINCT 1                                             01 
01140020002000002000000000002000000000000000000DEM       Supreme Court, Place 6, Unexpired Term                  Lawrence Edward Meyers                PRECINCT 2                                             01 
01140020003000035000017000018000000000000000000DEM       Supreme Court, Place 6, Unexpired Term                  Lawrence Edward Meyers                PRECINCT 025                                           01 
01140020004000047000024000023000000000000000000DEM       Supreme Court, Place 6, Unexpired Term                  Lawrence Edward Meyers                PRECINCT 3                                             01 
01140020005000042000014000028000000000000000000DEM       Supreme Court, Place 6, Unexpired Term                  Lawrence Edward Meyers                PRECINCT 4                                             01 
01140020006000029000013000016000000000000000000DEM       Supreme Court, Place 6, Unexpired Term                  Lawrence Edward Meyers                PRECINCT 046                                           01 
01140030001000010000005000005000000000000000000LIB       Supreme Court, Place 6, Unexpired Term                  Mark Ash                              PRECINCT 1                                             01 
01140030002000001000000000001000000000000000000LIB       Supreme Court, Place 6, Unexpired Term                  Mark Ash                              PRECINCT 2                                             01 
01140030003000004000003000001000000000000000000LIB       Supreme Court, Place 6, Unexpired Term                  Mark Ash                              PRECINCT 025                                           01 
01140030004000007000004000003000000000000000000LIB       Supreme Court, Place 6, Unexpired Term                  Mark Ash                              PRECINCT 3                                             01 
01140030005000005000003000002000000000000000000LIB       Supreme Court, Place 6, Unexpired Term                  Mark Ash                              PRECINCT 4                                             01 
01140030006000002000001000001000000000000000000LIB       Supreme Court, Place 6, Unexpired Term                  Mark Ash                              PRECINCT 046                                           01 
01140040001000000000000000000000000000000000000          Supreme Court, Place 6, Unexpired Term                  OVER VOTES                            PRECINCT 1                                             01 
01140040002000000000000000000000000000000000000          Supreme Court, Place 6, Unexpired Term                  OVER VOTES                            PRECINCT 2                                             01 
01140040003000000000000000000000000000000000000          Supreme Court, Place 6, Unexpired Term                  OVER VOTES                            PRECINCT 025                                           01 
01140040004000000000000000000000000000000000000          Supreme Court, Place 6, Unexpired Term                  OVER VOTES                            PRECINCT 3                                             01 
01140040005000000000000000000000000000000000000          Supreme Court, Place 6, Unexpired Term                  OVER VOTES                            PRECINCT 4                                             01 
01140040006000000000000000000000000000000000000          Supreme Court, Place 6, Unexpired Term                  OVER VOTES                            PRECINCT 046                                           01 
01140050001000016000008000008000000000000000000          Supreme Court, Place 6, Unexpired Term                  UNDER VOTES                           PRECINCT 1                                             01 
01140050002000001000000000001000000000000000000          Supreme Court, Place 6, Unexpired Term                  UNDER VOTES                           PRECINCT 2                                             01 
01140050003000012000004000008000000000000000000          Supreme Court, Place 6, Unexpired Term                  UNDER VOTES                           PRECINCT 025                                           01 
01140050004000009000004000005000000000000000000          Supreme Court, Place 6, Unexpired Term                  UNDER VOTES                           PRECINCT 3                                             01 
01140050005000021000005000016000000000000000000          Supreme Court, Place 6, Unexpired Term                  UNDER VOTES                           PRECINCT 4                                             01 
01140050006000021000011000010000000000000000000          Supreme Court, Place 6, Unexpired Term                  UNDER VOTES                           PRECINCT 046                                           01 
01150010001000243000123000120000000000000000000REP       Justice, Supreme Court, Place 7                         Jeff Boyd                             PRECINCT 1                                             01 
01150010002000085000019000066000000000000000000REP       Justice, Supreme Court, Place 7                         Jeff Boyd                             PRECINCT 2                                             01 
01150010003000112000070000042000000000000000000REP       Justice, Supreme Court, Place 7                         Jeff Boyd                             PRECINCT 025                                           01 
01150010004000203000098000105000000000000000000REP       Justice, Supreme Court, Place 7                         Jeff Boyd                             PRECINCT 3                                             01 
01150010005000133000047000086000000000000000000REP       Justice, Supreme Court, Place 7                         Jeff Boyd                             PRECINCT 4                                             01 
01150010006000114000051000063000000000000000000REP       Justice, Supreme Court, Place 7                         Jeff Boyd                             PRECINCT 046                                           01 
01150020001000061000033000028000000000000000000DEM       Justice, Supreme Court, Place 7                         Gina Benavides                        PRECINCT 1                                             01 
01150020002000003000000000003000000000000000000DEM       Justice, Supreme Court, Place 7                         Gina Benavides                        PRECINCT 2                                             01 
01150020003000032000012000020000000000000000000DEM       Justice, Supreme Court, Place 7                         Gina Benavides                        PRECINCT 025                                           01 
01150020004000050000024000026000000000000000000DEM       Justice, Supreme Court, Place 7                         Gina Benavides                        PRECINCT 3                                             01 
01150020005000045000013000032000000000000000000DEM       Justice, Supreme Court, Place 7                         Gina Benavides                        PRECINCT 4                                             01 
01150020006000025000015000010000000000000000000DEM       Justice, Supreme Court, Place 7                         Gina Benavides                        PRECINCT 046                                           01 
01150030001000006000002000004000000000000000000LIB       Justice, Supreme Court, Place 7                         Don Fulton                            PRECINCT 1                                             01 
01150030002000001000000000001000000000000000000LIB       Justice, Supreme Court, Place 7                         Don Fulton                            PRECINCT 2                                             01 
01150030003000005000005000000000000000000000000LIB       Justice, Supreme Court, Place 7                         Don Fulton                            PRECINCT 025                                           01 
01150030004000006000005000001000000000000000000LIB       Justice, Supreme Court, Place 7                         Don Fulton                            PRECINCT 3                                             01 
01150030005000005000003000002000000000000000000LIB       Justice, Supreme Court, Place 7                         Don Fulton                            PRECINCT 4                                             01 
01150030006000005000001000004000000000000000000LIB       Justice, Supreme Court, Place 7                         Don Fulton                            PRECINCT 046                                           01 
01150040001000006000002000004000000000000000000GRN       Justice, Supreme Court, Place 7                         Charles E. Waterbury                  PRECINCT 1                                             01 
01150040002000001000000000001000000000000000000GRN       Justice, Supreme Court, Place 7                         Charles E. Waterbury                  PRECINCT 2                                             01 
01150040003000002000000000002000000000000000000GRN       Justice, Supreme Court, Place 7                         Charles E. Waterbury                  PRECINCT 025                                           01 
01150040004000002000002000000000000000000000000GRN       Justice, Supreme Court, Place 7                         Charles E. Waterbury                  PRECINCT 3                                             01 
01150040005000001000001000000000000000000000000GRN       Justice, Supreme Court, Place 7                         Charles E. Waterbury                  PRECINCT 4                                             01 
01150040006000001000001000000000000000000000000GRN       Justice, Supreme Court, Place 7                         Charles E. Waterbury                  PRECINCT 046                                           01 
01150050001000000000000000000000000000000000000          Justice, Supreme Court, Place 7                         OVER VOTES                            PRECINCT 1                                             01 
01150050002000000000000000000000000000000000000          Justice, Supreme Court, Place 7                         OVER VOTES                            PRECINCT 2                                             01 
01150050003000000000000000000000000000000000000          Justice, Supreme Court, Place 7                         OVER VOTES                            PRECINCT 025                                           01 
01150050004000000000000000000000000000000000000          Justice, Supreme Court, Place 7                         OVER VOTES                            PRECINCT 3                                             01 
01150050005000000000000000000000000000000000000          Justice, Supreme Court, Place 7                         OVER VOTES                            PRECINCT 4                                             01 
01150050006000000000000000000000000000000000000          Justice, Supreme Court, Place 7                         OVER VOTES                            PRECINCT 046                                           01 
01150060001000018000008000010000000000000000000          Justice, Supreme Court, Place 7                         UNDER VOTES                           PRECINCT 1                                             01 
01150060002000001000000000001000000000000000000          Justice, Supreme Court, Place 7                         UNDER VOTES                           PRECINCT 2                                             01 
01150060003000010000003000007000000000000000000          Justice, Supreme Court, Place 7                         UNDER VOTES                           PRECINCT 025                                           01 
01150060004000008000004000004000000000000000000          Justice, Supreme Court, Place 7                         UNDER VOTES                           PRECINCT 3                                             01 
01150060005000022000006000016000000000000000000          Justice, Supreme Court, Place 7                         UNDER VOTES                           PRECINCT 4                                             01 
01150060006000027000013000014000000000000000000          Justice, Supreme Court, Place 7                         UNDER VOTES                           PRECINCT 046                                           01 
01160010001000257000130000127000000000000000000REP       Justice, Supreme Court, Place 8                         Phil Johnson                          PRECINCT 1                                             01 
01160010002000087000018000069000000000000000000REP       Justice, Supreme Court, Place 8                         Phil Johnson                          PRECINCT 2                                             01 
01160010003000122000076000046000000000000000000REP       Justice, Supreme Court, Place 8                         Phil Johnson                          PRECINCT 025                                           01 
01160010004000218000107000111000000000000000000REP       Justice, Supreme Court, Place 8                         Phil Johnson                          PRECINCT 3                                             01 
01160010005000149000048000101000000000000000000REP       Justice, Supreme Court, Place 8                         Phil Johnson                          PRECINCT 4                                             01 
