01010010001001107          REGISTERED VOTERS - TOTAL                               REGISTERED VOTERS - TOTAL             PRECINCT 1                                             00 
01010010002000272          REGISTERED VOTERS - TOTAL                               REGISTERED VOTERS - TOTAL             PRECINCT 2                                             00 
01010010003000766          REGISTERED VOTERS - TOTAL                               REGISTERED VOTERS - TOTAL             PRECINCT 025                                           00 
01010010004001137          REGISTERED VOTERS - TOTAL                               REGISTERED VOTERS - TOTAL             PRECINCT 3                                             00 
01010010005000687          REGISTERED VOTERS - TOTAL                               REGISTERED VOTERS - TOTAL             PRECINCT 4                                             00 
01010010006000483          REGISTERED VOTERS - TOTAL                               REGISTERED VOTERS - TOTAL             PRECINCT 046                                           00 
01020010001000255          BALLOTS CAST - TOTAL                                    BALLOTS CAST - TOTAL                  PRECINCT 1                                             00 
01020010002000046          BALLOTS CAST - TOTAL                                    BALLOTS CAST - TOTAL                  PRECINCT 2                                             00 
01020010003000127          BALLOTS CAST - TOTAL                                    BALLOTS CAST - TOTAL                  PRECINCT 025                                           00 
01020010004000199          BALLOTS CAST - TOTAL                                    BALLOTS CAST - TOTAL                  PRECINCT 3                                             00 
01020010005000131          BALLOTS CAST - TOTAL                                    BALLOTS CAST - TOTAL                  PRECINCT 4                                             00 
01020010006000156          BALLOTS CAST - TOTAL                                    BALLOTS CAST - TOTAL                  PRECINCT 046                                           00 
01030010001000235REP       BALLOTS CAST - REPUBLICAN PARTY                         BALLOTS CAST - REPUBLICAN PARTY       PRECINCT 1                                             00 
01030010002000046REP       BALLOTS CAST - REPUBLICAN PARTY                         BALLOTS CAST - REPUBLICAN PARTY       PRECINCT 2                                             00 
01030010003000106REP       BALLOTS CAST - REPUBLICAN PARTY                         BALLOTS CAST - REPUBLICAN PARTY       PRECINCT 025                                           00 
01030010004000171REP       BALLOTS CAST - REPUBLICAN PARTY                         BALLOTS CAST - REPUBLICAN PARTY       PRECINCT 3                                             00 
01030010005000103REP       BALLOTS CAST - REPUBLICAN PARTY                         BALLOTS CAST - REPUBLICAN PARTY       PRECINCT 4                                             00 
01030010006000140REP       BALLOTS CAST - REPUBLICAN PARTY                         BALLOTS CAST - REPUBLICAN PARTY       PRECINCT 046                                           00 
01040010001000020DEM       BALLOTS CAST - DEMOCRATIC PARTY                         BALLOTS CAST - DEMOCRATIC PARTY       PRECINCT 1                                             00 
01040010002000000DEM       BALLOTS CAST - DEMOCRATIC PARTY                         BALLOTS CAST - DEMOCRATIC PARTY       PRECINCT 2                                             00 
01040010003000021DEM       BALLOTS CAST - DEMOCRATIC PARTY                         BALLOTS CAST - DEMOCRATIC PARTY       PRECINCT 025                                           00 
01040010004000028DEM       BALLOTS CAST - DEMOCRATIC PARTY                         BALLOTS CAST - DEMOCRATIC PARTY       PRECINCT 3                                             00 
01040010005000028DEM       BALLOTS CAST - DEMOCRATIC PARTY                         BALLOTS CAST - DEMOCRATIC PARTY       PRECINCT 4                                             00 
01040010006000016DEM       BALLOTS CAST - DEMOCRATIC PARTY                         BALLOTS CAST - DEMOCRATIC PARTY       PRECINCT 046                                           00 
01050010001000041REP       United States Senator                                   Steve Stockman                        PRECINCT 1                                             01 
01050010002000011REP       United States Senator                                   Steve Stockman                        PRECINCT 2                                             01 
01050010003000014REP       United States Senator                                   Steve Stockman                        PRECINCT 025                                           01 
01050010004000031REP       United States Senator                                   Steve Stockman                        PRECINCT 3                                             01 
01050010005000019REP       United States Senator                                   Steve Stockman                        PRECINCT 4                                             01 
01050010006000016REP       United States Senator                                   Steve Stockman                        PRECINCT 046                                           01 
01050020001000003REP       United States Senator                                   Curt Cleaver                          PRECINCT 1                                             01 
01050020002000002REP       United States Senator                                   Curt Cleaver                          PRECINCT 2                                             01 
01050020003000001REP       United States Senator                                   Curt Cleaver                          PRECINCT 025                                           01 
01050020004000001REP       United States Senator                                   Curt Cleaver                          PRECINCT 3                                             01 
01050020005000001REP       United States Senator                                   Curt Cleaver                          PRECINCT 4                                             01 
01050020006000003REP       United States Senator                                   Curt Cleaver                          PRECINCT 046                                           01 
01050030001000002REP       United States Senator                                   Chris Mapp                            PRECINCT 1                                             01 
01050030002000001REP       United States Senator                                   Chris Mapp                            PRECINCT 2                                             01 
01050030003000000REP       United States Senator                                   Chris Mapp                            PRECINCT 025                                           01 
01050030004000007REP       United States Senator                                   Chris Mapp                            PRECINCT 3                                             01 
01050030005000000REP       United States Senator                                   Chris Mapp                            PRECINCT 4                                             01 
01050030006000003REP       United States Senator                                   Chris Mapp                            PRECINCT 046                                           01 
01050040001000003REP       United States Senator                                   Reid Reasor                           PRECINCT 1                                             01 
01050040002000000REP       United States Senator                                   Reid Reasor                           PRECINCT 2                                             01 
01050040003000000REP       United States Senator                                   Reid Reasor                           PRECINCT 025                                           01 
01050040004000004REP       United States Senator                                   Reid Reasor                           PRECINCT 3                                             01 
01050040005000001REP       United States Senator                                   Reid Reasor                           PRECINCT 4                                             01 
01050040006000001REP       United States Senator                                   Reid Reasor                           PRECINCT 046                                           01 
01050050001000120REP       United States Senator                                   John Cornyn                           PRECINCT 1                                             01 
01050050002000022REP       United States Senator                                   John Cornyn                           PRECINCT 2                                             01 
01050050003000055REP       United States Senator                                   John Cornyn                           PRECINCT 025                                           01 
01050050004000072REP       United States Senator                                   John Cornyn                           PRECINCT 3                                             01 
01050050005000048REP       United States Senator                                   John Cornyn                           PRECINCT 4                                             01 
01050050006000069REP       United States Senator                                   John Cornyn                           PRECINCT 046                                           01 
01050060001000006REP       United States Senator                                   Ken Cope                              PRECINCT 1                                             01 
01050060002000001REP       United States Senator                                   Ken Cope                              PRECINCT 2                                             01 
01050060003000002REP       United States Senator                                   Ken Cope                              PRECINCT 025                                           01 
01050060004000003REP       United States Senator                                   Ken Cope                              PRECINCT 3                                             01 
01050060005000002REP       United States Senator                                   Ken Cope                              PRECINCT 4                                             01 
01050060006000002REP       United States Senator                                   Ken Cope                              PRECINCT 046                                           01 
01050070001000010REP       United States Senator                                   Linda Vega                            PRECINCT 1                                             01 
01050070002000000REP       United States Senator                                   Linda Vega                            PRECINCT 2                                             01 
01050070003000005REP       United States Senator                                   Linda Vega                            PRECINCT 025                                           01 
01050070004000008REP       United States Senator                                   Linda Vega                            PRECINCT 3                                             01 
01050070005000005REP       United States Senator                                   Linda Vega                            PRECINCT 4                                             01 
01050070006000005REP       United States Senator                                   Linda Vega                            PRECINCT 046                                           01 
01050080001000019REP       United States Senator                                   Dwayne Stovall                        PRECINCT 1                                             01 
01050080002000008REP       United States Senator                                   Dwayne Stovall                        PRECINCT 2                                             01 
01050080003000010REP       United States Senator                                   Dwayne Stovall                        PRECINCT 025                                           01 
01050080004000020REP       United States Senator                                   Dwayne Stovall                        PRECINCT 3                                             01 
01050080005000018REP       United States Senator                                   Dwayne Stovall                        PRECINCT 4                                             01 
01050080006000014REP       United States Senator                                   Dwayne Stovall                        PRECINCT 046                                           01 
01050090001000000REP       United States Senator                                   OVER VOTES                            PRECINCT 1                                             01 
01050090002000000REP       United States Senator                                   OVER VOTES                            PRECINCT 2                                             01 
01050090003000000REP       United States Senator                                   OVER VOTES                            PRECINCT 025                                           01 
01050090004000000REP       United States Senator                                   OVER VOTES                            PRECINCT 3                                             01 
01050090005000000REP       United States Senator                                   OVER VOTES                            PRECINCT 4                                             01 
01050090006000000REP       United States Senator                                   OVER VOTES                            PRECINCT 046                                           01 
01050100001000031REP       United States Senator                                   UNDER VOTES                           PRECINCT 1                                             01 
01050100002000001REP       United States Senator                                   UNDER VOTES                           PRECINCT 2                                             01 
01050100003000019REP       United States Senator                                   UNDER VOTES                           PRECINCT 025                                           01 
01050100004000025REP       United States Senator                                   UNDER VOTES                           PRECINCT 3                                             01 
01050100005000009REP       United States Senator                                   UNDER VOTES                           PRECINCT 4                                             01 
01050100006000027REP       United States Senator                                   UNDER VOTES                           PRECINCT 046                                           01 
01060010001000048REP       United States Representative, Dist 11                   Wade Brown                            PRECINCT 1                                             01 
01060010002000015REP       United States Representative, Dist 11                   Wade Brown                            PRECINCT 2                                             01 
01060010003000024REP       United States Representative, Dist 11                   Wade Brown                            PRECINCT 025                                           01 
01060010004000045REP       United States Representative, Dist 11                   Wade Brown                            PRECINCT 3                                             01 
01060010005000026REP       United States Representative, Dist 11                   Wade Brown                            PRECINCT 4                                             01 
01060010006000017REP       United States Representative, Dist 11                   Wade Brown                            PRECINCT 046                                           01 
01060020001000161REP       United States Representative, Dist 11                   Mike Conaway                          PRECINCT 1                                             01 
01060020002000030REP       United States Representative, Dist 11                   Mike Conaway                          PRECINCT 2                                             01 
01060020003000071REP       United States Representative, Dist 11                   Mike Conaway                          PRECINCT 025                                           01 
01060020004000109REP       United States Representative, Dist 11                   Mike Conaway                          PRECINCT 3                                             01 
01060020005000069REP       United States Representative, Dist 11                   Mike Conaway                          PRECINCT 4                                             01 
01060020006000107REP       United States Representative, Dist 11                   Mike Conaway                          PRECINCT 046                                           01 
01060030001000000REP       United States Representative, Dist 11                   OVER VOTES                            PRECINCT 1                                             01 
01060030002000000REP       United States Representative, Dist 11                   OVER VOTES                            PRECINCT 2                                             01 
01060030003000000REP       United States Representative, Dist 11                   OVER VOTES                            PRECINCT 025                                           01 
01060030004000000REP       United States Representative, Dist 11                   OVER VOTES                            PRECINCT 3                                             01 
01060030005000000REP       United States Representative, Dist 11                   OVER VOTES                            PRECINCT 4                                             01 
01060030006000000REP       United States Representative, Dist 11                   OVER VOTES                            PRECINCT 046                                           01 
01060040001000026REP       United States Representative, Dist 11                   UNDER VOTES                           PRECINCT 1                                             01 
01060040002000001REP       United States Representative, Dist 11                   UNDER VOTES                           PRECINCT 2                                             01 
01060040003000011REP       United States Representative, Dist 11                   UNDER VOTES                           PRECINCT 025                                           01 
01060040004000017REP       United States Representative, Dist 11                   UNDER VOTES                           PRECINCT 3                                             01 
01060040005000008REP       United States Representative, Dist 11                   UNDER VOTES                           PRECINCT 4                                             01 
01060040006000016REP       United States Representative, Dist 11                   UNDER VOTES                           PRECINCT 046                                           01 
01070010001000014REP       Governor                                                Lisa Fritsch                          PRECINCT 1                                             01 
01070010002000000REP       Governor                                                Lisa Fritsch                          PRECINCT 2                                             01 
01070010003000004REP       Governor                                                Lisa Fritsch                          PRECINCT 025                                           01 
01070010004000013REP       Governor                                                Lisa Fritsch                          PRECINCT 3                                             01 
01070010005000004REP       Governor                                                Lisa Fritsch                          PRECINCT 4                                             01 
01070010006000005REP       Governor                                                Lisa Fritsch                          PRECINCT 046                                           01 
01070020001000190REP       Governor                                                Greg Abbott                           PRECINCT 1                                             01 
01070020002000045REP       Governor                                                Greg Abbott                           PRECINCT 2                                             01 
01070020003000092REP       Governor                                                Greg Abbott                           PRECINCT 025                                           01 
01070020004000135REP       Governor                                                Greg Abbott                           PRECINCT 3                                             01 
01070020005000088REP       Governor                                                Greg Abbott                           PRECINCT 4                                             01 
01070020006000106REP       Governor                                                Greg Abbott                           PRECINCT 046                                           01 
01070030001000006REP       Governor                                                SECEDE Kilgore                        PRECINCT 1                                             01 
01070030002000001REP       Governor                                                SECEDE Kilgore                        PRECINCT 2                                             01 
01070030003000000REP       Governor                                                SECEDE Kilgore                        PRECINCT 025                                           01 
01070030004000003REP       Governor                                                SECEDE Kilgore                        PRECINCT 3                                             01 
01070030005000000REP       Governor                                                SECEDE Kilgore                        PRECINCT 4                                             01 
01070030006000001REP       Governor                                                SECEDE Kilgore                        PRECINCT 046                                           01 
01070040001000007REP       Governor                                                Miriam Martinez                       PRECINCT 1                                             01 
01070040002000000REP       Governor                                                Miriam Martinez                       PRECINCT 2                                             01 
01070040003000003REP       Governor                                                Miriam Martinez                       PRECINCT 025                                           01 
01070040004000002REP       Governor                                                Miriam Martinez                       PRECINCT 3                                             01 
01070040005000003REP       Governor                                                Miriam Martinez                       PRECINCT 4                                             01 
01070040006000007REP       Governor                                                Miriam Martinez                       PRECINCT 046                                           01 
01070050001000000REP       Governor                                                OVER VOTES                            PRECINCT 1                                             01 
01070050002000000REP       Governor                                                OVER VOTES                            PRECINCT 2                                             01 
01070050003000000REP       Governor                                                OVER VOTES                            PRECINCT 025                                           01 
01070050004000000REP       Governor                                                OVER VOTES                            PRECINCT 3                                             01 
01070050005000000REP       Governor                                                OVER VOTES                            PRECINCT 4                                             01 
01070050006000000REP       Governor                                                OVER VOTES                            PRECINCT 046                                           01 
01070060001000018REP       Governor                                                UNDER VOTES                           PRECINCT 1                                             01 
01070060002000000REP       Governor                                                UNDER VOTES                           PRECINCT 2                                             01 
01070060003000007REP       Governor                                                UNDER VOTES                           PRECINCT 025                                           01 
01070060004000018REP       Governor                                                UNDER VOTES                           PRECINCT 3                                             01 
01070060005000008REP       Governor                                                UNDER VOTES                           PRECINCT 4                                             01 
01070060006000021REP       Governor                                                UNDER VOTES                           PRECINCT 046                                           01 
01080010001000125REP       Lieutenant Governor                                     David Dewhurst                        PRECINCT 1                                             01 
01080010002000020REP       Lieutenant Governor                                     David Dewhurst                        PRECINCT 2                                             01 
01080010003000064REP       Lieutenant Governor                                     David Dewhurst                        PRECINCT 025                                           01 
01080010004000067REP       Lieutenant Governor                                     David Dewhurst                        PRECINCT 3                                             01 
01080010005000049REP       Lieutenant Governor                                     David Dewhurst                        PRECINCT 4                                             01 
01080010006000074REP       Lieutenant Governor                                     David Dewhurst                        PRECINCT 046                                           01 
01080020001000050REP       Lieutenant Governor                                     Dan Patrick                           PRECINCT 1                                             01 
01080020002000012REP       Lieutenant Governor                                     Dan Patrick                           PRECINCT 2                                             01 
01080020003000020REP       Lieutenant Governor                                     Dan Patrick                           PRECINCT 025                                           01 
01080020004000042REP       Lieutenant Governor                                     Dan Patrick                           PRECINCT 3                                             01 
01080020005000016REP       Lieutenant Governor                                     Dan Patrick                           PRECINCT 4                                             01 
01080020006000024REP       Lieutenant Governor                                     Dan Patrick                           PRECINCT 046                                           01 
01080030001000020REP       Lieutenant Governor                                     Todd Staples                          PRECINCT 1                                             01 
01080030002000002REP       Lieutenant Governor                                     Todd Staples                          PRECINCT 2                                             01 
01080030003000005REP       Lieutenant Governor                                     Todd Staples                          PRECINCT 025                                           01 
01080030004000024REP       Lieutenant Governor                                     Todd Staples                          PRECINCT 3                                             01 
01080030005000017REP       Lieutenant Governor                                     Todd Staples                          PRECINCT 4                                             01 
01080030006000015REP       Lieutenant Governor                                     Todd Staples                          PRECINCT 046                                           01 
01080040001000016REP       Lieutenant Governor                                     Jerry Patterson                       PRECINCT 1                                             01 
01080040002000011REP       Lieutenant Governor                                     Jerry Patterson                       PRECINCT 2                                             01 
01080040003000006REP       Lieutenant Governor                                     Jerry Patterson                       PRECINCT 025                                           01 
01080040004000020REP       Lieutenant Governor                                     Jerry Patterson                       PRECINCT 3                                             01 
01080040005000011REP       Lieutenant Governor                                     Jerry Patterson                       PRECINCT 4                                             01 
01080040006000010REP       Lieutenant Governor                                     Jerry Patterson                       PRECINCT 046                                           01 
01080050001000000REP       Lieutenant Governor                                     OVER VOTES                            PRECINCT 1                                             01 
01080050002000000REP       Lieutenant Governor                                     OVER VOTES                            PRECINCT 2                                             01 
01080050003000000REP       Lieutenant Governor                                     OVER VOTES                            PRECINCT 025                                           01 
01080050004000000REP       Lieutenant Governor                                     OVER VOTES                            PRECINCT 3                                             01 
01080050005000000REP       Lieutenant Governor                                     OVER VOTES                            PRECINCT 4                                             01 
01080050006000000REP       Lieutenant Governor                                     OVER VOTES                            PRECINCT 046                                           01 
01080060001000024REP       Lieutenant Governor                                     UNDER VOTES                           PRECINCT 1                                             01 
01080060002000001REP       Lieutenant Governor                                     UNDER VOTES                           PRECINCT 2                                             01 
01080060003000011REP       Lieutenant Governor                                     UNDER VOTES                           PRECINCT 025                                           01 
01080060004000018REP       Lieutenant Governor                                     UNDER VOTES                           PRECINCT 3                                             01 
01080060005000010REP       Lieutenant Governor                                     UNDER VOTES                           PRECINCT 4                                             01 
01080060006000017REP       Lieutenant Governor                                     UNDER VOTES                           PRECINCT 046                                           01 
01090010001000042REP       Attorney General                                        Barry Smitherman                      PRECINCT 1                                             01 
01090010002000008REP       Attorney General                                        Barry Smitherman                      PRECINCT 2                                             01 
01090010003000021REP       Attorney General                                        Barry Smitherman                      PRECINCT 025                                           01 
01090010004000033REP       Attorney General                                        Barry Smitherman                      PRECINCT 3                                             01 
01090010005000015REP       Attorney General                                        Barry Smitherman                      PRECINCT 4                                             01 
01090010006000025REP       Attorney General                                        Barry Smitherman                      PRECINCT 046                                           01 
01090020001000069REP       Attorney General                                        Ken Paxton                            PRECINCT 1                                             01 
01090020002000022REP       Attorney General                                        Ken Paxton                            PRECINCT 2                                             01 
01090020003000028REP       Attorney General                                        Ken Paxton                            PRECINCT 025                                           01 
01090020004000059REP       Attorney General                                        Ken Paxton                            PRECINCT 3                                             01 
01090020005000039REP       Attorney General                                        Ken Paxton                            PRECINCT 4                                             01 
01090020006000028REP       Attorney General                                        Ken Paxton                            PRECINCT 046                                           01 
01090030001000083REP       Attorney General                                        Dan Branch                            PRECINCT 1                                             01 
01090030002000016REP       Attorney General                                        Dan Branch                            PRECINCT 2                                             01 
01090030003000042REP       Attorney General                                        Dan Branch                            PRECINCT 025                                           01 
01090030004000057REP       Attorney General                                        Dan Branch                            PRECINCT 3                                             01 
01090030005000039REP       Attorney General                                        Dan Branch                            PRECINCT 4                                             01 
01090030006000056REP       Attorney General                                        Dan Branch                            PRECINCT 046                                           01 
01090040001000000REP       Attorney General                                        OVER VOTES                            PRECINCT 1                                             01 
01090040002000000REP       Attorney General                                        OVER VOTES                            PRECINCT 2                                             01 
01090040003000000REP       Attorney General                                        OVER VOTES                            PRECINCT 025                                           01 
01090040004000000REP       Attorney General                                        OVER VOTES                            PRECINCT 3                                             01 
01090040005000000REP       Attorney General                                        OVER VOTES                            PRECINCT 4                                             01 
01090040006000000REP       Attorney General                                        OVER VOTES                            PRECINCT 046                                           01 
01090050001000041REP       Attorney General                                        UNDER VOTES                           PRECINCT 1                                             01 
01090050002000000REP       Attorney General                                        UNDER VOTES                           PRECINCT 2                                             01 
01090050003000015REP       Attorney General                                        UNDER VOTES                           PRECINCT 025                                           01 
01090050004000022REP       Attorney General                                        UNDER VOTES                           PRECINCT 3                                             01 
01090050005000010REP       Attorney General                                        UNDER VOTES                           PRECINCT 4                                             01 
01090050006000031REP       Attorney General                                        UNDER VOTES                           PRECINCT 046                                           01 
01100010001000084REP       Comptroller of Public Accounts                          Glenn Hegar                           PRECINCT 1                                             01 
01100010002000019REP       Comptroller of Public Accounts                          Glenn Hegar                           PRECINCT 2                                             01 
01100010003000030REP       Comptroller of Public Accounts                          Glenn Hegar                           PRECINCT 025                                           01 
01100010004000065REP       Comptroller of Public Accounts                          Glenn Hegar                           PRECINCT 3                                             01 
01100010005000038REP       Comptroller of Public Accounts                          Glenn Hegar                           PRECINCT 4                                             01 
01100010006000040REP       Comptroller of Public Accounts                          Glenn Hegar                           PRECINCT 046                                           01 
01100020001000050REP       Comptroller of Public Accounts                          Harvey Hilderbran                     PRECINCT 1                                             01 
01100020002000015REP       Comptroller of Public Accounts                          Harvey Hilderbran                     PRECINCT 2                                             01 
01100020003000032REP       Comptroller of Public Accounts                          Harvey Hilderbran                     PRECINCT 025                                           01 
01100020004000043REP       Comptroller of Public Accounts                          Harvey Hilderbran                     PRECINCT 3                                             01 
01100020005000021REP       Comptroller of Public Accounts                          Harvey Hilderbran                     PRECINCT 4                                             01 
01100020006000033REP       Comptroller of Public Accounts                          Harvey Hilderbran                     PRECINCT 046                                           01 
01100030001000009REP       Comptroller of Public Accounts                          Raul Torres                           PRECINCT 1                                             01 
01100030002000001REP       Comptroller of Public Accounts                          Raul Torres                           PRECINCT 2                                             01 
01100030003000008REP       Comptroller of Public Accounts                          Raul Torres                           PRECINCT 025                                           01 
01100030004000005REP       Comptroller of Public Accounts                          Raul Torres                           PRECINCT 3                                             01 
01100030005000006REP       Comptroller of Public Accounts                          Raul Torres                           PRECINCT 4                                             01 
01100030006000005REP       Comptroller of Public Accounts                          Raul Torres                           PRECINCT 046                                           01 
01100040001000037REP       Comptroller of Public Accounts                          Debra Medina                          PRECINCT 1                                             01 
01100040002000010REP       Comptroller of Public Accounts                          Debra Medina                          PRECINCT 2                                             01 
01100040003000017REP       Comptroller of Public Accounts                          Debra Medina                          PRECINCT 025                                           01 
01100040004000028REP       Comptroller of Public Accounts                          Debra Medina                          PRECINCT 3                                             01 
01100040005000023REP       Comptroller of Public Accounts                          Debra Medina                          PRECINCT 4                                             01 
01100040006000029REP       Comptroller of Public Accounts                          Debra Medina                          PRECINCT 046                                           01 
01100050001000000REP       Comptroller of Public Accounts                          OVER VOTES                            PRECINCT 1                                             01 
01100050002000000REP       Comptroller of Public Accounts                          OVER VOTES                            PRECINCT 2                                             01 
01100050003000000REP       Comptroller of Public Accounts                          OVER VOTES                            PRECINCT 025                                           01 
01100050004000000REP       Comptroller of Public Accounts                          OVER VOTES                            PRECINCT 3                                             01 
01100050005000000REP       Comptroller of Public Accounts                          OVER VOTES                            PRECINCT 4                                             01 
01100050006000000REP       Comptroller of Public Accounts                          OVER VOTES                            PRECINCT 046                                           01 
01100060001000055REP       Comptroller of Public Accounts                          UNDER VOTES                           PRECINCT 1                                             01 
01100060002000001REP       Comptroller of Public Accounts                          UNDER VOTES                           PRECINCT 2                                             01 
01100060003000019REP       Comptroller of Public Accounts                          UNDER VOTES                           PRECINCT 025                                           01 
01100060004000030REP       Comptroller of Public Accounts                          UNDER VOTES                           PRECINCT 3                                             01 
01100060005000015REP       Comptroller of Public Accounts                          UNDER VOTES                           PRECINCT 4                                             01 
01100060006000033REP       Comptroller of Public Accounts                          UNDER VOTES                           PRECINCT 046                                           01 
01110010001000045REP       Commissioner of the General Land Office                 David Watts                           PRECINCT 1                                             01 
01110010002000018REP       Commissioner of the General Land Office                 David Watts                           PRECINCT 2                                             01 
01110010003000029REP       Commissioner of the General Land Office                 David Watts                           PRECINCT 025                                           01 
01110010004000048REP       Commissioner of the General Land Office                 David Watts                           PRECINCT 3                                             01 
01110010005000029REP       Commissioner of the General Land Office                 David Watts                           PRECINCT 4                                             01 
01110010006000039REP       Commissioner of the General Land Office                 David Watts                           PRECINCT 046                                           01 
01110020001000158REP       Commissioner of the General Land Office                 George P. Bush                        PRECINCT 1                                             01 
01110020002000025REP       Commissioner of the General Land Office                 George P. Bush                        PRECINCT 2                                             01 
01110020003000061REP       Commissioner of the General Land Office                 George P. Bush                        PRECINCT 025                                           01 
01110020004000101REP       Commissioner of the General Land Office                 George P. Bush                        PRECINCT 3                                             01 
01110020005000063REP       Commissioner of the General Land Office                 George P. Bush                        PRECINCT 4                                             01 
01110020006000077REP       Commissioner of the General Land Office                 George P. Bush                        PRECINCT 046                                           01 
01110030001000000REP       Commissioner of the General Land Office                 OVER VOTES                            PRECINCT 1                                             01 
01110030002000000REP       Commissioner of the General Land Office                 OVER VOTES                            PRECINCT 2                                             01 
01110030003000000REP       Commissioner of the General Land Office                 OVER VOTES                            PRECINCT 025                                           01 
01110030004000000REP       Commissioner of the General Land Office                 OVER VOTES                            PRECINCT 3                                             01 
01110030005000000REP       Commissioner of the General Land Office                 OVER VOTES                            PRECINCT 4                                             01 
01110030006000000REP       Commissioner of the General Land Office                 OVER VOTES                            PRECINCT 046                                           01 
01110040001000032REP       Commissioner of the General Land Office                 UNDER VOTES                           PRECINCT 1                                             01 
01110040002000003REP       Commissioner of the General Land Office                 UNDER VOTES                           PRECINCT 2                                             01 
01110040003000016REP       Commissioner of the General Land Office                 UNDER VOTES                           PRECINCT 025                                           01 
01110040004000022REP       Commissioner of the General Land Office                 UNDER VOTES                           PRECINCT 3                                             01 
01110040005000011REP       Commissioner of the General Land Office                 UNDER VOTES                           PRECINCT 4                                             01 
01110040006000024REP       Commissioner of the General Land Office                 UNDER VOTES                           PRECINCT 046                                           01 
01120010001000039REP       Commissioner of Agriculture                             Sid Miller                            PRECINCT 1                                             01 
01120010002000016REP       Commissioner of Agriculture                             Sid Miller                            PRECINCT 2                                             01 
01120010003000022REP       Commissioner of Agriculture                             Sid Miller                            PRECINCT 025                                           01 
01120010004000032REP       Commissioner of Agriculture                             Sid Miller                            PRECINCT 3                                             01 
01120010005000021REP       Commissioner of Agriculture                             Sid Miller                            PRECINCT 4                                             01 
01120010006000029REP       Commissioner of Agriculture                             Sid Miller                            PRECINCT 046                                           01 
01120020001000009REP       Commissioner of Agriculture                             Eric Opiela                           PRECINCT 1                                             01 
01120020002000000REP       Commissioner of Agriculture                             Eric Opiela                           PRECINCT 2                                             01 
01120020003000005REP       Commissioner of Agriculture                             Eric Opiela                           PRECINCT 025                                           01 
01120020004000006REP       Commissioner of Agriculture                             Eric Opiela                           PRECINCT 3                                             01 
01120020005000008REP       Commissioner of Agriculture                             Eric Opiela                           PRECINCT 4                                             01 
01120020006000006REP       Commissioner of Agriculture                             Eric Opiela                           PRECINCT 046                                           01 
01120030001000054REP       Commissioner of Agriculture                             Tommy Merritt                         PRECINCT 1                                             01 
01120030002000011REP       Commissioner of Agriculture                             Tommy Merritt                         PRECINCT 2                                             01 
01120030003000028REP       Commissioner of Agriculture                             Tommy Merritt                         PRECINCT 025                                           01 
01120030004000039REP       Commissioner of Agriculture                             Tommy Merritt                         PRECINCT 3                                             01 
01120030005000017REP       Commissioner of Agriculture                             Tommy Merritt                         PRECINCT 4                                             01 
01120030006000029REP       Commissioner of Agriculture                             Tommy Merritt                         PRECINCT 046                                           01 
01120040001000039REP       Commissioner of Agriculture                             J. Allen Carnes                       PRECINCT 1                                             01 
01120040002000005REP       Commissioner of Agriculture                             J. Allen Carnes                       PRECINCT 2                                             01 
01120040003000009REP       Commissioner of Agriculture                             J. Allen Carnes                       PRECINCT 025                                           01 
01120040004000021REP       Commissioner of Agriculture                             J. Allen Carnes                       PRECINCT 3                                             01 
01120040005000024REP       Commissioner of Agriculture                             J. Allen Carnes                       PRECINCT 4                                             01 
01120040006000018REP       Commissioner of Agriculture                             J. Allen Carnes                       PRECINCT 046                                           01 
01120050001000035REP       Commissioner of Agriculture                             Joe Cotten                            PRECINCT 1                                             01 
01120050002000012REP       Commissioner of Agriculture                             Joe Cotten                            PRECINCT 2                                             01 
01120050003000018REP       Commissioner of Agriculture                             Joe Cotten                            PRECINCT 025                                           01 
01120050004000037REP       Commissioner of Agriculture                             Joe Cotten                            PRECINCT 3                                             01 
01120050005000015REP       Commissioner of Agriculture                             Joe Cotten                            PRECINCT 4                                             01 
01120050006000020REP       Commissioner of Agriculture                             Joe Cotten                            PRECINCT 046                                           01 
01120060001000000REP       Commissioner of Agriculture                             OVER VOTES                            PRECINCT 1                                             01 
01120060002000000REP       Commissioner of Agriculture                             OVER VOTES                            PRECINCT 2                                             01 
01120060003000000REP       Commissioner of Agriculture                             OVER VOTES                            PRECINCT 025                                           01 
01120060004000000REP       Commissioner of Agriculture                             OVER VOTES                            PRECINCT 3                                             01 
01120060005000000REP       Commissioner of Agriculture                             OVER VOTES                            PRECINCT 4                                             01 
01120060006000000REP       Commissioner of Agriculture                             OVER VOTES                            PRECINCT 046                                           01 
01120070001000059REP       Commissioner of Agriculture                             UNDER VOTES                           PRECINCT 1                                             01 
01120070002000002REP       Commissioner of Agriculture                             UNDER VOTES                           PRECINCT 2                                             01 
01120070003000024REP       Commissioner of Agriculture                             UNDER VOTES                           PRECINCT 025                                           01 
01120070004000036REP       Commissioner of Agriculture                             UNDER VOTES                           PRECINCT 3                                             01 
01120070005000018REP       Commissioner of Agriculture                             UNDER VOTES                           PRECINCT 4                                             01 
01120070006000038REP       Commissioner of Agriculture                             UNDER VOTES                           PRECINCT 046                                           01 
01130010001000016REP       Railroad Commissioner                                   Malachi Boyuls                        PRECINCT 1                                             01 
01130010002000005REP       Railroad Commissioner                                   Malachi Boyuls                        PRECINCT 2                                             01 
01130010003000005REP       Railroad Commissioner                                   Malachi Boyuls                        PRECINCT 025                                           01 
01130010004000020REP       Railroad Commissioner                                   Malachi Boyuls                        PRECINCT 3                                             01 
01130010005000008REP       Railroad Commissioner                                   Malachi Boyuls                        PRECINCT 4                                             01 
01130010006000012REP       Railroad Commissioner                                   Malachi Boyuls                        PRECINCT 046                                           01 
01130020001000028REP       Railroad Commissioner                                   Becky Berger                          PRECINCT 1                                             01 
01130020002000002REP       Railroad Commissioner                                   Becky Berger                          PRECINCT 2                                             01 
01130020003000022REP       Railroad Commissioner                                   Becky Berger                          PRECINCT 025                                           01 
01130020004000026REP       Railroad Commissioner                                   Becky Berger                          PRECINCT 3                                             01 
01130020005000016REP       Railroad Commissioner                                   Becky Berger                          PRECINCT 4                                             01 
01130020006000022REP       Railroad Commissioner                                   Becky Berger                          PRECINCT 046                                           01 
01130030001000085REP       Railroad Commissioner                                   Wayne Christian                       PRECINCT 1                                             01 
01130030002000026REP       Railroad Commissioner                                   Wayne Christian                       PRECINCT 2                                             01 
01130030003000037REP       Railroad Commissioner                                   Wayne Christian                       PRECINCT 025                                           01 
01130030004000057REP       Railroad Commissioner                                   Wayne Christian                       PRECINCT 3                                             01 
01130030005000036REP       Railroad Commissioner                                   Wayne Christian                       PRECINCT 4                                             01 
01130030006000043REP       Railroad Commissioner                                   Wayne Christian                       PRECINCT 046                                           01 
01130040001000041REP       Railroad Commissioner                                   Ryan Sitton                           PRECINCT 1                                             01 
01130040002000012REP       Railroad Commissioner                                   Ryan Sitton                           PRECINCT 2                                             01 
01130040003000023REP       Railroad Commissioner                                   Ryan Sitton                           PRECINCT 025                                           01 
01130040004000031REP       Railroad Commissioner                                   Ryan Sitton                           PRECINCT 3                                             01 
01130040005000022REP       Railroad Commissioner                                   Ryan Sitton                           PRECINCT 4                                             01 
01130040006000025REP       Railroad Commissioner                                   Ryan Sitton                           PRECINCT 046                                           01 
01130050001000000REP       Railroad Commissioner                                   OVER VOTES                            PRECINCT 1                                             01 
01130050002000000REP       Railroad Commissioner                                   OVER VOTES                            PRECINCT 2                                             01 
01130050003000000REP       Railroad Commissioner                                   OVER VOTES                            PRECINCT 025                                           01 
01130050004000000REP       Railroad Commissioner                                   OVER VOTES                            PRECINCT 3                                             01 
01130050005000000REP       Railroad Commissioner                                   OVER VOTES                            PRECINCT 4                                             01 
01130050006000000REP       Railroad Commissioner                                   OVER VOTES                            PRECINCT 046                                           01 
01130060001000065REP       Railroad Commissioner                                   UNDER VOTES                           PRECINCT 1                                             01 
01130060002000001REP       Railroad Commissioner                                   UNDER VOTES                           PRECINCT 2                                             01 
01130060003000019REP       Railroad Commissioner                                   UNDER VOTES                           PRECINCT 025                                           01 
01130060004000037REP       Railroad Commissioner                                   UNDER VOTES                           PRECINCT 3                                             01 
01130060005000021REP       Railroad Commissioner                                   UNDER VOTES                           PRECINCT 4                                             01 
01130060006000038REP       Railroad Commissioner                                   UNDER VOTES                           PRECINCT 046                                           01 
01140010001000102REP       Chief Justice, Supreme Court                            Nathan Hecht                          PRECINCT 1                                             01 
01140010002000025REP       Chief Justice, Supreme Court                            Nathan Hecht                          PRECINCT 2                                             01 
01140010003000043REP       Chief Justice, Supreme Court                            Nathan Hecht                          PRECINCT 025                                           01 
01140010004000075REP       Chief Justice, Supreme Court                            Nathan Hecht                          PRECINCT 3                                             01 
01140010005000040REP       Chief Justice, Supreme Court                            Nathan Hecht                          PRECINCT 4                                             01 
01140010006000053REP       Chief Justice, Supreme Court                            Nathan Hecht                          PRECINCT 046                                           01 
01140020001000070REP       Chief Justice, Supreme Court                            Robert Talton                         PRECINCT 1                                             01 
01140020002000017REP       Chief Justice, Supreme Court                            Robert Talton                         PRECINCT 2                                             01 
01140020003000039REP       Chief Justice, Supreme Court                            Robert Talton                         PRECINCT 025                                           01 
01140020004000057REP       Chief Justice, Supreme Court                            Robert Talton                         PRECINCT 3                                             01 
01140020005000040REP       Chief Justice, Supreme Court                            Robert Talton                         PRECINCT 4                                             01 
01140020006000043REP       Chief Justice, Supreme Court                            Robert Talton                         PRECINCT 046                                           01 
01140030001000000REP       Chief Justice, Supreme Court                            OVER VOTES                            PRECINCT 1                                             01 
01140030002000000REP       Chief Justice, Supreme Court                            OVER VOTES                            PRECINCT 2                                             01 
01140030003000000REP       Chief Justice, Supreme Court                            OVER VOTES                            PRECINCT 025                                           01 
01140030004000000REP       Chief Justice, Supreme Court                            OVER VOTES                            PRECINCT 3                                             01 
01140030005000000REP       Chief Justice, Supreme Court                            OVER VOTES                            PRECINCT 4                                             01 
01140030006000000REP       Chief Justice, Supreme Court                            OVER VOTES                            PRECINCT 046                                           01 
01140040001000063REP       Chief Justice, Supreme Court                            UNDER VOTES                           PRECINCT 1                                             01 
01140040002000004REP       Chief Justice, Supreme Court                            UNDER VOTES                           PRECINCT 2                                             01 
01140040003000024REP       Chief Justice, Supreme Court                            UNDER VOTES                           PRECINCT 025                                           01 
01140040004000039REP       Chief Justice, Supreme Court                            UNDER VOTES                           PRECINCT 3                                             01 
01140040005000023REP       Chief Justice, Supreme Court                            UNDER VOTES                           PRECINCT 4                                             01 
01140040006000044REP       Chief Justice, Supreme Court                            UNDER VOTES                           PRECINCT 046                                           01 
01150010001000121REP       Supreme Court, Place 6, Unexpired Term                  Jeff Brown                            PRECINCT 1                                             01 
01150010002000036REP       Supreme Court, Place 6, Unexpired Term                  Jeff Brown                            PRECINCT 2                                             01 
01150010003000061REP       Supreme Court, Place 6, Unexpired Term                  Jeff Brown                            PRECINCT 025                                           01 
01150010004000100REP       Supreme Court, Place 6, Unexpired Term                  Jeff Brown                            PRECINCT 3                                             01 
01150010005000063REP       Supreme Court, Place 6, Unexpired Term                  Jeff Brown                            PRECINCT 4                                             01 
01150010006000074REP       Supreme Court, Place 6, Unexpired Term                  Jeff Brown                            PRECINCT 046                                           01 
01150020001000048REP       Supreme Court, Place 6, Unexpired Term                  Joe Pool                              PRECINCT 1                                             01 
01150020002000005REP       Supreme Court, Place 6, Unexpired Term                  Joe Pool                              PRECINCT 2                                             01 
01150020003000018REP       Supreme Court, Place 6, Unexpired Term                  Joe Pool                              PRECINCT 025                                           01 
01150020004000031REP       Supreme Court, Place 6, Unexpired Term                  Joe Pool                              PRECINCT 3                                             01 
01150020005000015REP       Supreme Court, Place 6, Unexpired Term                  Joe Pool                              PRECINCT 4                                             01 
01150020006000020REP       Supreme Court, Place 6, Unexpired Term                  Joe Pool                              PRECINCT 046                                           01 
01150030001000000REP       Supreme Court, Place 6, Unexpired Term                  OVER VOTES                            PRECINCT 1                                             01 
01150030002000000REP       Supreme Court, Place 6, Unexpired Term                  OVER VOTES                            PRECINCT 2                                             01 
01150030003000000REP       Supreme Court, Place 6, Unexpired Term                  OVER VOTES                            PRECINCT 025                                           01 
01150030004000000REP       Supreme Court, Place 6, Unexpired Term                  OVER VOTES                            PRECINCT 3                                             01 
01150030005000000REP       Supreme Court, Place 6, Unexpired Term                  OVER VOTES                            PRECINCT 4                                             01 
01150030006000000REP       Supreme Court, Place 6, Unexpired Term                  OVER VOTES                            PRECINCT 046                                           01 
01150040001000066REP       Supreme Court, Place 6, Unexpired Term                  UNDER VOTES                           PRECINCT 1                                             01 
01150040002000005REP       Supreme Court, Place 6, Unexpired Term                  UNDER VOTES                           PRECINCT 2                                             01 
01150040003000027REP       Supreme Court, Place 6, Unexpired Term                  UNDER VOTES                           PRECINCT 025                                           01 
01150040004000040REP       Supreme Court, Place 6, Unexpired Term                  UNDER VOTES                           PRECINCT 3                                             01 
01150040005000025REP       Supreme Court, Place 6, Unexpired Term                  UNDER VOTES                           PRECINCT 4                                             01 
01150040006000046REP       Supreme Court, Place 6, Unexpired Term                  UNDER VOTES                           PRECINCT 046                                           01 
01160010001000148REP       Justice, Supreme Court, Place 7                         Jeff Boyd                             PRECINCT 1                                             01 
01160010002000031REP       Justice, Supreme Court, Place 7                         Jeff Boyd                             PRECINCT 2                                             01 
01160010003000069REP       Justice, Supreme Court, Place 7                         Jeff Boyd                             PRECINCT 025                                           01 
01160010004000117REP       Justice, Supreme Court, Place 7                         Jeff Boyd                             PRECINCT 3                                             01 
01160010005000070REP       Justice, Supreme Court, Place 7                         Jeff Boyd                             PRECINCT 4                                             01 
01160010006000079REP       Justice, Supreme Court, Place 7                         Jeff Boyd                             PRECINCT 046                                           01 
01160020001000000REP       Justice, Supreme Court, Place 7                         OVER VOTES                            PRECINCT 1                                             01 
01160020002000000REP       Justice, Supreme Court, Place 7                         OVER VOTES                            PRECINCT 2                                             01 
01160020003000000REP       Justice, Supreme Court, Place 7                         OVER VOTES                            PRECINCT 025                                           01 
01160020004000000REP       Justice, Supreme Court, Place 7                         OVER VOTES                            PRECINCT 3                                             01 
01160020005000000REP       Justice, Supreme Court, Place 7                         OVER VOTES                            PRECINCT 4                                             01 
01160020006000000REP       Justice, Supreme Court, Place 7                         OVER VOTES                            PRECINCT 046                                           01 
01160030001000087REP       Justice, Supreme Court, Place 7                         UNDER VOTES                           PRECINCT 1                                             01 
01160030002000015REP       Justice, Supreme Court, Place 7                         UNDER VOTES                           PRECINCT 2                                             01 
01160030003000037REP       Justice, Supreme Court, Place 7                         UNDER VOTES                           PRECINCT 025                                           01 
01160030004000054REP       Justice, Supreme Court, Place 7                         UNDER VOTES                           PRECINCT 3                                             01 
01160030005000033REP       Justice, Supreme Court, Place 7                         UNDER VOTES                           PRECINCT 4                                             01 
01160030006000061REP       Justice, Supreme Court, Place 7                         UNDER VOTES                           PRECINCT 046                                           01 
01170010001000078REP       Justice, Supreme Court, Place 8                         Sharon McCally                        PRECINCT 1                                             01 
01170010002000015REP       Justice, Supreme Court, Place 8                         Sharon McCally                        PRECINCT 2                                             01 
01170010003000031REP       Justice, Supreme Court, Place 8                         Sharon McCally                        PRECINCT 025                                           01 
01170010004000050REP       Justice, Supreme Court, Place 8                         Sharon McCally                        PRECINCT 3                                             01 
01170010005000029REP       Justice, Supreme Court, Place 8                         Sharon McCally                        PRECINCT 4                                             01 
01170010006000041REP       Justice, Supreme Court, Place 8                         Sharon McCally                        PRECINCT 046                                           01 
01170020001000092REP       Justice, Supreme Court, Place 8                         Phil Johnson                          PRECINCT 1                                             01 
01170020002000027REP       Justice, Supreme Court, Place 8                         Phil Johnson                          PRECINCT 2                                             01 
01170020003000049REP       Justice, Supreme Court, Place 8                         Phil Johnson                          PRECINCT 025                                           01 
01170020004000084REP       Justice, Supreme Court, Place 8                         Phil Johnson                          PRECINCT 3                                             01 
01170020005000047REP       Justice, Supreme Court, Place 8                         Phil Johnson                          PRECINCT 4                                             01 
01170020006000056REP       Justice, Supreme Court, Place 8                         Phil Johnson                          PRECINCT 046                                           01 
01170030001000000REP       Justice, Supreme Court, Place 8                         OVER VOTES                            PRECINCT 1                                             01 
01170030002000000REP       Justice, Supreme Court, Place 8                         OVER VOTES                            PRECINCT 2                                             01 
01170030003000000REP       Justice, Supreme Court, Place 8                         OVER VOTES                            PRECINCT 025                                           01 
01170030004000000REP       Justice, Supreme Court, Place 8                         OVER VOTES                            PRECINCT 3                                             01 
01170030005000000REP       Justice, Supreme Court, Place 8                         OVER VOTES                            PRECINCT 4                                             01 
01170030006000000REP       Justice, Supreme Court, Place 8                         OVER VOTES                            PRECINCT 046                                           01 
01170040001000065REP       Justice, Supreme Court, Place 8                         UNDER VOTES                           PRECINCT 1                                             01 
01170040002000004REP       Justice, Supreme Court, Place 8                         UNDER VOTES                           PRECINCT 2                                             01 
01170040003000026REP       Justice, Supreme Court, Place 8                         UNDER VOTES                           PRECINCT 025                                           01 
01170040004000037REP       Justice, Supreme Court, Place 8                         UNDER VOTES                           PRECINCT 3                                             01 
01170040005000027REP       Justice, Supreme Court, Place 8                         UNDER VOTES                           PRECINCT 4                                             01 
01170040006000043REP       Justice, Supreme Court, Place 8                         UNDER VOTES                           PRECINCT 046                                           01 
01180010001000104REP       Judge, Court of Criminal Appeals, Pl 3                  Bert Richardson                       PRECINCT 1                                             01 
01180010002000036REP       Judge, Court of Criminal Appeals, Pl 3                  Bert Richardson                       PRECINCT 2                                             01 
01180010003000052REP       Judge, Court of Criminal Appeals, Pl 3                  Bert Richardson                       PRECINCT 025                                           01 
01180010004000081REP       Judge, Court of Criminal Appeals, Pl 3                  Bert Richardson                       PRECINCT 3                                             01 
01180010005000050REP       Judge, Court of Criminal Appeals, Pl 3                  Bert Richardson                       PRECINCT 4                                             01 
01180010006000056REP       Judge, Court of Criminal Appeals, Pl 3                  Bert Richardson                       PRECINCT 046                                           01 
01180020001000058REP       Judge, Court of Criminal Appeals, Pl 3                  Barbara Walther                       PRECINCT 1                                             01 
01180020002000005REP       Judge, Court of Criminal Appeals, Pl 3                  Barbara Walther                       PRECINCT 2                                             01 
01180020003000028REP       Judge, Court of Criminal Appeals, Pl 3                  Barbara Walther                       PRECINCT 025                                           01 
01180020004000048REP       Judge, Court of Criminal Appeals, Pl 3                  Barbara Walther                       PRECINCT 3                                             01 
01180020005000027REP       Judge, Court of Criminal Appeals, Pl 3                  Barbara Walther                       PRECINCT 4                                             01 
01180020006000035REP       Judge, Court of Criminal Appeals, Pl 3                  Barbara Walther                       PRECINCT 046                                           01 
01180030001000000REP       Judge, Court of Criminal Appeals, Pl 3                  OVER VOTES                            PRECINCT 1                                             01 
01180030002000000REP       Judge, Court of Criminal Appeals, Pl 3                  OVER VOTES                            PRECINCT 2                                             01 
01180030003000000REP       Judge, Court of Criminal Appeals, Pl 3                  OVER VOTES                            PRECINCT 025                                           01 
01180030004000000REP       Judge, Court of Criminal Appeals, Pl 3                  OVER VOTES                            PRECINCT 3                                             01 
01180030005000000REP       Judge, Court of Criminal Appeals, Pl 3                  OVER VOTES                            PRECINCT 4                                             01 
01180030006000000REP       Judge, Court of Criminal Appeals, Pl 3                  OVER VOTES                            PRECINCT 046                                           01 
01180040001000073REP       Judge, Court of Criminal Appeals, Pl 3                  UNDER VOTES                           PRECINCT 1                                             01 
01180040002000005REP       Judge, Court of Criminal Appeals, Pl 3                  UNDER VOTES                           PRECINCT 2                                             01 
01180040003000026REP       Judge, Court of Criminal Appeals, Pl 3                  UNDER VOTES                           PRECINCT 025                                           01 
01180040004000042REP       Judge, Court of Criminal Appeals, Pl 3                  UNDER VOTES                           PRECINCT 3                                             01 
01180040005000026REP       Judge, Court of Criminal Appeals, Pl 3                  UNDER VOTES                           PRECINCT 4                                             01 
01180040006000049REP       Judge, Court of Criminal Appeals, Pl 3                  UNDER VOTES                           PRECINCT 046                                           01 
01190010001000071REP       Judge, Court of Criminal Appeals, Pl 4                  Richard Dean Davis                    PRECINCT 1                                             01 
01190010002000020REP       Judge, Court of Criminal Appeals, Pl 4                  Richard Dean Davis                    PRECINCT 2                                             01 
01190010003000036REP       Judge, Court of Criminal Appeals, Pl 4                  Richard Dean Davis                    PRECINCT 025                                           01 
01190010004000063REP       Judge, Court of Criminal Appeals, Pl 4                  Richard Dean Davis                    PRECINCT 3                                             01 
01190010005000039REP       Judge, Court of Criminal Appeals, Pl 4                  Richard Dean Davis                    PRECINCT 4                                             01 
01190010006000031REP       Judge, Court of Criminal Appeals, Pl 4                  Richard Dean Davis                    PRECINCT 046                                           01 
01190020001000051REP       Judge, Court of Criminal Appeals, Pl 4                  Kevin Patrick Yeary                   PRECINCT 1                                             01 
01190020002000016REP       Judge, Court of Criminal Appeals, Pl 4                  Kevin Patrick Yeary                   PRECINCT 2                                             01 
01190020003000021REP       Judge, Court of Criminal Appeals, Pl 4                  Kevin Patrick Yeary                   PRECINCT 025                                           01 
01190020004000048REP       Judge, Court of Criminal Appeals, Pl 4                  Kevin Patrick Yeary                   PRECINCT 3                                             01 
01190020005000024REP       Judge, Court of Criminal Appeals, Pl 4                  Kevin Patrick Yeary                   PRECINCT 4                                             01 
01190020006000035REP       Judge, Court of Criminal Appeals, Pl 4                  Kevin Patrick Yeary                   PRECINCT 046                                           01 
01190030001000036REP       Judge, Court of Criminal Appeals, Pl 4                  Jani Jo Wood                          PRECINCT 1                                             01 
01190030002000006REP       Judge, Court of Criminal Appeals, Pl 4                  Jani Jo Wood                          PRECINCT 2                                             01 
01190030003000022REP       Judge, Court of Criminal Appeals, Pl 4                  Jani Jo Wood                          PRECINCT 025                                           01 
01190030004000019REP       Judge, Court of Criminal Appeals, Pl 4                  Jani Jo Wood                          PRECINCT 3                                             01 
01190030005000013REP       Judge, Court of Criminal Appeals, Pl 4                  Jani Jo Wood                          PRECINCT 4                                             01 
01190030006000024REP       Judge, Court of Criminal Appeals, Pl 4                  Jani Jo Wood                          PRECINCT 046                                           01 
01190040001000000REP       Judge, Court of Criminal Appeals, Pl 4                  OVER VOTES                            PRECINCT 1                                             01 
01190040002000000REP       Judge, Court of Criminal Appeals, Pl 4                  OVER VOTES                            PRECINCT 2                                             01 
01190040003000000REP       Judge, Court of Criminal Appeals, Pl 4                  OVER VOTES                            PRECINCT 025                                           01 
01190040004000000REP       Judge, Court of Criminal Appeals, Pl 4                  OVER VOTES                            PRECINCT 3                                             01 
01190040005000000REP       Judge, Court of Criminal Appeals, Pl 4                  OVER VOTES                            PRECINCT 4                                             01 
01190040006000000REP       Judge, Court of Criminal Appeals, Pl 4                  OVER VOTES                            PRECINCT 046                                           01 
01190050001000077REP       Judge, Court of Criminal Appeals, Pl 4                  UNDER VOTES                           PRECINCT 1                                             01 
01190050002000004REP       Judge, Court of Criminal Appeals, Pl 4                  UNDER VOTES                           PRECINCT 2                                             01 
01190050003000027REP       Judge, Court of Criminal Appeals, Pl 4                  UNDER VOTES                           PRECINCT 025                                           01 
01190050004000041REP       Judge, Court of Criminal Appeals, Pl 4                  UNDER VOTES                           PRECINCT 3                                             01 
01190050005000027REP       Judge, Court of Criminal Appeals, Pl 4                  UNDER VOTES                           PRECINCT 4                                             01 
01190050006000050REP       Judge, Court of Criminal Appeals, Pl 4                  UNDER VOTES                           PRECINCT 046                                           01 
01200010001000091REP       Judge, Court of Criminal Appeals, Pl 9                  W.C. "Bud" Kirkendall                 PRECINCT 1                                             01 
01200010002000024REP       Judge, Court of Criminal Appeals, Pl 9                  W.C. "Bud" Kirkendall                 PRECINCT 2                                             01 
01200010003000043REP       Judge, Court of Criminal Appeals, Pl 9                  W.C. "Bud" Kirkendall                 PRECINCT 025                                           01 
01200010004000071REP       Judge, Court of Criminal Appeals, Pl 9                  W.C. "Bud" Kirkendall                 PRECINCT 3                                             01 
01200010005000044REP       Judge, Court of Criminal Appeals, Pl 9                  W.C. "Bud" Kirkendall                 PRECINCT 4                                             01 
01200010006000041REP       Judge, Court of Criminal Appeals, Pl 9                  W.C. "Bud" Kirkendall                 PRECINCT 046                                           01 
01200020001000082REP       Judge, Court of Criminal Appeals, Pl 9                  David Newell                          PRECINCT 1                                             01 
01200020002000019REP       Judge, Court of Criminal Appeals, Pl 9                  David Newell                          PRECINCT 2                                             01 
01200020003000033REP       Judge, Court of Criminal Appeals, Pl 9                  David Newell                          PRECINCT 025                                           01 
01200020004000064REP       Judge, Court of Criminal Appeals, Pl 9                  David Newell                          PRECINCT 3                                             01 
01200020005000035REP       Judge, Court of Criminal Appeals, Pl 9                  David Newell                          PRECINCT 4                                             01 
01200020006000041REP       Judge, Court of Criminal Appeals, Pl 9                  David Newell                          PRECINCT 046                                           01 
01200030001000000REP       Judge, Court of Criminal Appeals, Pl 9                  OVER VOTES                            PRECINCT 1                                             01 
01200030002000000REP       Judge, Court of Criminal Appeals, Pl 9                  OVER VOTES                            PRECINCT 2                                             01 
01200030003000000REP       Judge, Court of Criminal Appeals, Pl 9                  OVER VOTES                            PRECINCT 025                                           01 
01200030004000000REP       Judge, Court of Criminal Appeals, Pl 9                  OVER VOTES                            PRECINCT 3                                             01 
01200030005000000REP       Judge, Court of Criminal Appeals, Pl 9                  OVER VOTES                            PRECINCT 4                                             01 
01200030006000000REP       Judge, Court of Criminal Appeals, Pl 9                  OVER VOTES                            PRECINCT 046                                           01 
01200040001000062REP       Judge, Court of Criminal Appeals, Pl 9                  UNDER VOTES                           PRECINCT 1                                             01 
01200040002000003REP       Judge, Court of Criminal Appeals, Pl 9                  UNDER VOTES                           PRECINCT 2                                             01 
01200040003000030REP       Judge, Court of Criminal Appeals, Pl 9                  UNDER VOTES                           PRECINCT 025                                           01 
01200040004000036REP       Judge, Court of Criminal Appeals, Pl 9                  UNDER VOTES                           PRECINCT 3                                             01 
01200040005000024REP       Judge, Court of Criminal Appeals, Pl 9                  UNDER VOTES                           PRECINCT 4                                             01 
01200040006000058REP       Judge, Court of Criminal Appeals, Pl 9                  UNDER VOTES                           PRECINCT 046                                           01 
01210010001000047REP       State Representative, District 83                       Steve Massengale                      PRECINCT 1                                             01 
01210010002000006REP       State Representative, District 83                       Steve Massengale                      PRECINCT 2                                             01 
01210010003000015REP       State Representative, District 83                       Steve Massengale                      PRECINCT 025                                           01 
01210010004000041REP       State Representative, District 83                       Steve Massengale                      PRECINCT 3                                             01 
01210010005000020REP       State Representative, District 83                       Steve Massengale                      PRECINCT 4                                             01 
01210010006000026REP       State Representative, District 83                       Steve Massengale                      PRECINCT 046                                           01 
01210020001000163REP       State Representative, District 83                       Charles Perry                         PRECINCT 1                                             01 
01210020002000038REP       State Representative, District 83                       Charles Perry                         PRECINCT 2                                             01 
01210020003000075REP       State Representative, District 83                       Charles Perry                         PRECINCT 025                                           01 
01210020004000107REP       State Representative, District 83                       Charles Perry                         PRECINCT 3                                             01 
01210020005000071REP       State Representative, District 83                       Charles Perry                         PRECINCT 4                                             01 
01210020006000092REP       State Representative, District 83                       Charles Perry                         PRECINCT 046                                           01 
01210030001000000REP       State Representative, District 83                       OVER VOTES                            PRECINCT 1                                             01 
01210030002000000REP       State Representative, District 83                       OVER VOTES                            PRECINCT 2                                             01 
01210030003000000REP       State Representative, District 83                       OVER VOTES                            PRECINCT 025                                           01 
01210030004000000REP       State Representative, District 83                       OVER VOTES                            PRECINCT 3                                             01 
01210030005000000REP       State Representative, District 83                       OVER VOTES                            PRECINCT 4                                             01 
01210030006000000REP       State Representative, District 83                       OVER VOTES                            PRECINCT 046                                           01 
01210040001000025REP       State Representative, District 83                       UNDER VOTES                           PRECINCT 1                                             01 
01210040002000002REP       State Representative, District 83                       UNDER VOTES                           PRECINCT 2                                             01 
01210040003000016REP       State Representative, District 83                       UNDER VOTES                           PRECINCT 025                                           01 
01210040004000023REP       State Representative, District 83                       UNDER VOTES                           PRECINCT 3                                             01 
01210040005000012REP       State Representative, District 83                       UNDER VOTES                           PRECINCT 4                                             01 
01210040006000022REP       State Representative, District 83                       UNDER VOTES                           PRECINCT 046                                           01 
01220010001000154REP       11th Court of Appeals District, Place 2                 Mike Willson                          PRECINCT 1                                             01 
01220010002000035REP       11th Court of Appeals District, Place 2                 Mike Willson                          PRECINCT 2                                             01 
01220010003000066REP       11th Court of Appeals District, Place 2                 Mike Willson                          PRECINCT 025                                           01 
01220010004000123REP       11th Court of Appeals District, Place 2                 Mike Willson                          PRECINCT 3                                             01 
01220010005000067REP       11th Court of Appeals District, Place 2                 Mike Willson                          PRECINCT 4                                             01 
01220010006000079REP       11th Court of Appeals District, Place 2                 Mike Willson                          PRECINCT 046                                           01 
01220020001000000REP       11th Court of Appeals District, Place 2                 OVER VOTES                            PRECINCT 1                                             01 
01220020002000000REP       11th Court of Appeals District, Place 2                 OVER VOTES                            PRECINCT 2                                             01 
01220020003000000REP       11th Court of Appeals District, Place 2                 OVER VOTES                            PRECINCT 025                                           01 
01220020004000000REP       11th Court of Appeals District, Place 2                 OVER VOTES                            PRECINCT 3                                             01 
01220020005000000REP       11th Court of Appeals District, Place 2                 OVER VOTES                            PRECINCT 4                                             01 
01220020006000000REP       11th Court of Appeals District, Place 2                 OVER VOTES                            PRECINCT 046                                           01 
