01010010001002149000000000000000000000000000000          REGISTERED VOTERS - TOTAL                               REGISTERED VOTERS - TOTAL             PCT 2                                                  00 
01010010002001212000000000000000000000000000000          REGISTERED VOTERS - TOTAL                               REGISTERED VOTERS - TOTAL             PCT 3                                                  00 
01010010003000741000000000000000000000000000000          REGISTERED VOTERS - TOTAL                               REGISTERED VOTERS - TOTAL             PCT 4                                                  00 
01010010004000915000000000000000000000000000000          REGISTERED VOTERS - TOTAL                               REGISTERED VOTERS - TOTAL             PCT 5                                                  00 
01010010005000972000000000000000000000000000000          REGISTERED VOTERS - TOTAL                               REGISTERED VOTERS - TOTAL             PCT 6                                                  00 
01010010006000911000000000000000000000000000000          REGISTERED VOTERS - TOTAL                               REGISTERED VOTERS - TOTAL             PCT 7                                                  00 
01010010007000680000000000000000000000000000000          REGISTERED VOTERS - TOTAL                               REGISTERED VOTERS - TOTAL             PCT 8                                                  00 
01010010008001039000000000000000000000000000000          REGISTERED VOTERS - TOTAL                               REGISTERED VOTERS - TOTAL             PCT 9                                                  00 
01010010009000981000000000000000000000000000000          REGISTERED VOTERS - TOTAL                               REGISTERED VOTERS - TOTAL             PCT 10                                                 00 
01010010010001044000000000000000000000000000000          REGISTERED VOTERS - TOTAL                               REGISTERED VOTERS - TOTAL             PCT 11                                                 00 
01010010011000121000000000000000000000000000000          REGISTERED VOTERS - TOTAL                               REGISTERED VOTERS - TOTAL             PCT 12                                                 00 
01010010012000996000000000000000000000000000000          REGISTERED VOTERS - TOTAL                               REGISTERED VOTERS - TOTAL             PCT 13                                                 00 
01010010013000190000000000000000000000000000000          REGISTERED VOTERS - TOTAL                               REGISTERED VOTERS - TOTAL             PCT 14                                                 00 
01010010014000460000000000000000000000000000000          REGISTERED VOTERS - TOTAL                               REGISTERED VOTERS - TOTAL             PCT 15                                                 00 
01010010015000301000000000000000000000000000000          REGISTERED VOTERS - TOTAL                               REGISTERED VOTERS - TOTAL             PCT 16                                                 00 
01020010001000574000328000228000018000000000000          BALLOTS CAST - TOTAL                                    BALLOTS CAST - TOTAL                  PCT 2                                                  00 
01020010002000320000156000152000012000000000000          BALLOTS CAST - TOTAL                                    BALLOTS CAST - TOTAL                  PCT 3                                                  00 
01020010003000086000044000037000005000000000000          BALLOTS CAST - TOTAL                                    BALLOTS CAST - TOTAL                  PCT 4                                                  00 
01020010004000192000076000095000021000000000000          BALLOTS CAST - TOTAL                                    BALLOTS CAST - TOTAL                  PCT 5                                                  00 
01020010005000195000089000096000010000000000000          BALLOTS CAST - TOTAL                                    BALLOTS CAST - TOTAL                  PCT 6                                                  00 
01020010006000254000065000173000016000000000000          BALLOTS CAST - TOTAL                                    BALLOTS CAST - TOTAL                  PCT 7                                                  00 
01020010007000132000032000094000006000000000000          BALLOTS CAST - TOTAL                                    BALLOTS CAST - TOTAL                  PCT 8                                                  00 
01020010008000312000179000115000018000000000000          BALLOTS CAST - TOTAL                                    BALLOTS CAST - TOTAL                  PCT 9                                                  00 
01020010009000287000151000128000008000000000000          BALLOTS CAST - TOTAL                                    BALLOTS CAST - TOTAL                  PCT 10                                                 00 
01020010010000389000222000150000017000000000000          BALLOTS CAST - TOTAL                                    BALLOTS CAST - TOTAL                  PCT 11                                                 00 
01020010011000039000006000029000004000000000000          BALLOTS CAST - TOTAL                                    BALLOTS CAST - TOTAL                  PCT 12                                                 00 
01020010012000203000028000168000007000000000000          BALLOTS CAST - TOTAL                                    BALLOTS CAST - TOTAL                  PCT 13                                                 00 
01020010013000056000023000029000004000000000000          BALLOTS CAST - TOTAL                                    BALLOTS CAST - TOTAL                  PCT 14                                                 00 
01020010014000134000071000060000003000000000000          BALLOTS CAST - TOTAL                                    BALLOTS CAST - TOTAL                  PCT 15                                                 00 
01020010015000065000031000032000002000000000000          BALLOTS CAST - TOTAL                                    BALLOTS CAST - TOTAL                  PCT 16                                                 00 
01030010001000550000317000215000018000000000000REP       BALLOTS CAST - REPUBLICAN PARTY                         BALLOTS CAST - REPUBLICAN PARTY       PCT 2                                                  00 
01030010002000308000152000144000012000000000000REP       BALLOTS CAST - REPUBLICAN PARTY                         BALLOTS CAST - REPUBLICAN PARTY       PCT 3                                                  00 
01030010003000081000042000034000005000000000000REP       BALLOTS CAST - REPUBLICAN PARTY                         BALLOTS CAST - REPUBLICAN PARTY       PCT 4                                                  00 
01030010004000186000074000091000021000000000000REP       BALLOTS CAST - REPUBLICAN PARTY                         BALLOTS CAST - REPUBLICAN PARTY       PCT 5                                                  00 
01030010005000185000082000093000010000000000000REP       BALLOTS CAST - REPUBLICAN PARTY                         BALLOTS CAST - REPUBLICAN PARTY       PCT 6                                                  00 
01030010006000242000063000163000016000000000000REP       BALLOTS CAST - REPUBLICAN PARTY                         BALLOTS CAST - REPUBLICAN PARTY       PCT 7                                                  00 
01030010007000127000030000091000006000000000000REP       BALLOTS CAST - REPUBLICAN PARTY                         BALLOTS CAST - REPUBLICAN PARTY       PCT 8                                                  00 
01030010008000305000175000112000018000000000000REP       BALLOTS CAST - REPUBLICAN PARTY                         BALLOTS CAST - REPUBLICAN PARTY       PCT 9                                                  00 
01030010009000283000148000127000008000000000000REP       BALLOTS CAST - REPUBLICAN PARTY                         BALLOTS CAST - REPUBLICAN PARTY       PCT 10                                                 00 
01030010010000384000219000148000017000000000000REP       BALLOTS CAST - REPUBLICAN PARTY                         BALLOTS CAST - REPUBLICAN PARTY       PCT 11                                                 00 
01030010011000039000006000029000004000000000000REP       BALLOTS CAST - REPUBLICAN PARTY                         BALLOTS CAST - REPUBLICAN PARTY       PCT 12                                                 00 
01030010012000195000028000160000007000000000000REP       BALLOTS CAST - REPUBLICAN PARTY                         BALLOTS CAST - REPUBLICAN PARTY       PCT 13                                                 00 
01030010013000053000023000026000004000000000000REP       BALLOTS CAST - REPUBLICAN PARTY                         BALLOTS CAST - REPUBLICAN PARTY       PCT 14                                                 00 
01030010014000131000069000059000003000000000000REP       BALLOTS CAST - REPUBLICAN PARTY                         BALLOTS CAST - REPUBLICAN PARTY       PCT 15                                                 00 
01030010015000063000031000030000002000000000000REP       BALLOTS CAST - REPUBLICAN PARTY                         BALLOTS CAST - REPUBLICAN PARTY       PCT 16                                                 00 
01040010001000024000011000013000000000000000000DEM       BALLOTS CAST - DEMOCRATIC PARTY                         BALLOTS CAST - DEMOCRATIC PARTY       PCT 2                                                  00 
01040010002000012000004000008000000000000000000DEM       BALLOTS CAST - DEMOCRATIC PARTY                         BALLOTS CAST - DEMOCRATIC PARTY       PCT 3                                                  00 
01040010003000005000002000003000000000000000000DEM       BALLOTS CAST - DEMOCRATIC PARTY                         BALLOTS CAST - DEMOCRATIC PARTY       PCT 4                                                  00 
01040010004000006000002000004000000000000000000DEM       BALLOTS CAST - DEMOCRATIC PARTY                         BALLOTS CAST - DEMOCRATIC PARTY       PCT 5                                                  00 
01040010005000010000007000003000000000000000000DEM       BALLOTS CAST - DEMOCRATIC PARTY                         BALLOTS CAST - DEMOCRATIC PARTY       PCT 6                                                  00 
01040010006000012000002000010000000000000000000DEM       BALLOTS CAST - DEMOCRATIC PARTY                         BALLOTS CAST - DEMOCRATIC PARTY       PCT 7                                                  00 
01040010007000005000002000003000000000000000000DEM       BALLOTS CAST - DEMOCRATIC PARTY                         BALLOTS CAST - DEMOCRATIC PARTY       PCT 8                                                  00 
01040010008000007000004000003000000000000000000DEM       BALLOTS CAST - DEMOCRATIC PARTY                         BALLOTS CAST - DEMOCRATIC PARTY       PCT 9                                                  00 
01040010009000004000003000001000000000000000000DEM       BALLOTS CAST - DEMOCRATIC PARTY                         BALLOTS CAST - DEMOCRATIC PARTY       PCT 10                                                 00 
01040010010000005000003000002000000000000000000DEM       BALLOTS CAST - DEMOCRATIC PARTY                         BALLOTS CAST - DEMOCRATIC PARTY       PCT 11                                                 00 
01040010011000000000000000000000000000000000000DEM       BALLOTS CAST - DEMOCRATIC PARTY                         BALLOTS CAST - DEMOCRATIC PARTY       PCT 12                                                 00 
01040010012000008000000000008000000000000000000DEM       BALLOTS CAST - DEMOCRATIC PARTY                         BALLOTS CAST - DEMOCRATIC PARTY       PCT 13                                                 00 
01040010013000003000000000003000000000000000000DEM       BALLOTS CAST - DEMOCRATIC PARTY                         BALLOTS CAST - DEMOCRATIC PARTY       PCT 14                                                 00 
01040010014000003000002000001000000000000000000DEM       BALLOTS CAST - DEMOCRATIC PARTY                         BALLOTS CAST - DEMOCRATIC PARTY       PCT 15                                                 00 
01040010015000002000000000002000000000000000000DEM       BALLOTS CAST - DEMOCRATIC PARTY                         BALLOTS CAST - DEMOCRATIC PARTY       PCT 16                                                 00 
01050010001000011000006000004000001000000000000REP       US Senator MONTAGUE COUNTYWIDE                          Chris Mapp                            PCT 2                                                  01 
01050010002000006000002000004000000000000000000REP       US Senator MONTAGUE COUNTYWIDE                          Chris Mapp                            PCT 3                                                  01 
01050010003000000000000000000000000000000000000REP       US Senator MONTAGUE COUNTYWIDE                          Chris Mapp                            PCT 4                                                  01 
01050010004000000000000000000000000000000000000REP       US Senator MONTAGUE COUNTYWIDE                          Chris Mapp                            PCT 5                                                  01 
01050010005000001000001000000000000000000000000REP       US Senator MONTAGUE COUNTYWIDE                          Chris Mapp                            PCT 6                                                  01 
01050010006000003000000000003000000000000000000REP       US Senator MONTAGUE COUNTYWIDE                          Chris Mapp                            PCT 7                                                  01 
01050010007000005000000000005000000000000000000REP       US Senator MONTAGUE COUNTYWIDE                          Chris Mapp                            PCT 8                                                  01 
01050010008000005000003000002000000000000000000REP       US Senator MONTAGUE COUNTYWIDE                          Chris Mapp                            PCT 9                                                  01 
01050010009000002000001000000000001000000000000REP       US Senator MONTAGUE COUNTYWIDE                          Chris Mapp                            PCT 10                                                 01 
01050010010000012000011000000000001000000000000REP       US Senator MONTAGUE COUNTYWIDE                          Chris Mapp                            PCT 11                                                 01 
01050010011000001000001000000000000000000000000REP       US Senator MONTAGUE COUNTYWIDE                          Chris Mapp                            PCT 12                                                 01 
01050010012000003000000000003000000000000000000REP       US Senator MONTAGUE COUNTYWIDE                          Chris Mapp                            PCT 13                                                 01 
01050010013000002000002000000000000000000000000REP       US Senator MONTAGUE COUNTYWIDE                          Chris Mapp                            PCT 14                                                 01 
01050010014000002000001000001000000000000000000REP       US Senator MONTAGUE COUNTYWIDE                          Chris Mapp                            PCT 15                                                 01 
01050010015000002000001000001000000000000000000REP       US Senator MONTAGUE COUNTYWIDE                          Chris Mapp                            PCT 16                                                 01 
01050020001000022000014000008000000000000000000REP       US Senator MONTAGUE COUNTYWIDE                          Linda Vega                            PCT 2                                                  01 
01050020002000007000006000001000000000000000000REP       US Senator MONTAGUE COUNTYWIDE                          Linda Vega                            PCT 3                                                  01 
01050020003000005000004000001000000000000000000REP       US Senator MONTAGUE COUNTYWIDE                          Linda Vega                            PCT 4                                                  01 
01050020004000008000004000004000000000000000000REP       US Senator MONTAGUE COUNTYWIDE                          Linda Vega                            PCT 5                                                  01 
01050020005000013000004000009000000000000000000REP       US Senator MONTAGUE COUNTYWIDE                          Linda Vega                            PCT 6                                                  01 
01050020006000005000000000005000000000000000000REP       US Senator MONTAGUE COUNTYWIDE                          Linda Vega                            PCT 7                                                  01 
01050020007000004000002000002000000000000000000REP       US Senator MONTAGUE COUNTYWIDE                          Linda Vega                            PCT 8                                                  01 
01050020008000017000011000005000001000000000000REP       US Senator MONTAGUE COUNTYWIDE                          Linda Vega                            PCT 9                                                  01 
01050020009000015000009000006000000000000000000REP       US Senator MONTAGUE COUNTYWIDE                          Linda Vega                            PCT 10                                                 01 
01050020010000013000007000006000000000000000000REP       US Senator MONTAGUE COUNTYWIDE                          Linda Vega                            PCT 11                                                 01 
01050020011000000000000000000000000000000000000REP       US Senator MONTAGUE COUNTYWIDE                          Linda Vega                            PCT 12                                                 01 
01050020012000013000001000012000000000000000000REP       US Senator MONTAGUE COUNTYWIDE                          Linda Vega                            PCT 13                                                 01 
01050020013000001000001000000000000000000000000REP       US Senator MONTAGUE COUNTYWIDE                          Linda Vega                            PCT 14                                                 01 
01050020014000010000005000005000000000000000000REP       US Senator MONTAGUE COUNTYWIDE                          Linda Vega                            PCT 15                                                 01 
01050020015000004000001000003000000000000000000REP       US Senator MONTAGUE COUNTYWIDE                          Linda Vega                            PCT 16                                                 01 
01050030001000009000006000003000000000000000000REP       US Senator MONTAGUE COUNTYWIDE                          Curt Cleaver                          PCT 2                                                  01 
01050030002000001000000000001000000000000000000REP       US Senator MONTAGUE COUNTYWIDE                          Curt Cleaver                          PCT 3                                                  01 
01050030003000001000000000001000000000000000000REP       US Senator MONTAGUE COUNTYWIDE                          Curt Cleaver                          PCT 4                                                  01 
01050030004000002000000000002000000000000000000REP       US Senator MONTAGUE COUNTYWIDE                          Curt Cleaver                          PCT 5                                                  01 
01050030005000004000001000003000000000000000000REP       US Senator MONTAGUE COUNTYWIDE                          Curt Cleaver                          PCT 6                                                  01 
01050030006000003000000000003000000000000000000REP       US Senator MONTAGUE COUNTYWIDE                          Curt Cleaver                          PCT 7                                                  01 
01050030007000003000001000002000000000000000000REP       US Senator MONTAGUE COUNTYWIDE                          Curt Cleaver                          PCT 8                                                  01 
01050030008000005000003000002000000000000000000REP       US Senator MONTAGUE COUNTYWIDE                          Curt Cleaver                          PCT 9                                                  01 
01050030009000003000000000003000000000000000000REP       US Senator MONTAGUE COUNTYWIDE                          Curt Cleaver                          PCT 10                                                 01 
01050030010000008000004000004000000000000000000REP       US Senator MONTAGUE COUNTYWIDE                          Curt Cleaver                          PCT 11                                                 01 
01050030011000000000000000000000000000000000000REP       US Senator MONTAGUE COUNTYWIDE                          Curt Cleaver                          PCT 12                                                 01 
01050030012000003000000000003000000000000000000REP       US Senator MONTAGUE COUNTYWIDE                          Curt Cleaver                          PCT 13                                                 01 
01050030013000000000000000000000000000000000000REP       US Senator MONTAGUE COUNTYWIDE                          Curt Cleaver                          PCT 14                                                 01 
01050030014000002000001000001000000000000000000REP       US Senator MONTAGUE COUNTYWIDE                          Curt Cleaver                          PCT 15                                                 01 
01050030015000003000001000002000000000000000000REP       US Senator MONTAGUE COUNTYWIDE                          Curt Cleaver                          PCT 16                                                 01 
01050040001000300000170000114000016000000000000REP       US Senator MONTAGUE COUNTYWIDE                          John Cornyn                           PCT 2                                                  01 
01050040002000169000078000079000012000000000000REP       US Senator MONTAGUE COUNTYWIDE                          John Cornyn                           PCT 3                                                  01 
01050040003000044000019000021000004000000000000REP       US Senator MONTAGUE COUNTYWIDE                          John Cornyn                           PCT 4                                                  01 
01050040004000102000039000043000020000000000000REP       US Senator MONTAGUE COUNTYWIDE                          John Cornyn                           PCT 5                                                  01 
01050040005000092000047000037000008000000000000REP       US Senator MONTAGUE COUNTYWIDE                          John Cornyn                           PCT 6                                                  01 
01050040006000129000036000082000011000000000000REP       US Senator MONTAGUE COUNTYWIDE                          John Cornyn                           PCT 7                                                  01 
01050040007000060000018000037000005000000000000REP       US Senator MONTAGUE COUNTYWIDE                          John Cornyn                           PCT 8                                                  01 
01050040008000130000069000047000014000000000000REP       US Senator MONTAGUE COUNTYWIDE                          John Cornyn                           PCT 9                                                  01 
01050040009000140000080000056000004000000000000REP       US Senator MONTAGUE COUNTYWIDE                          John Cornyn                           PCT 10                                                 01 
01050040010000199000123000064000012000000000000REP       US Senator MONTAGUE COUNTYWIDE                          John Cornyn                           PCT 11                                                 01 
01050040011000019000004000012000003000000000000REP       US Senator MONTAGUE COUNTYWIDE                          John Cornyn                           PCT 12                                                 01 
01050040012000113000018000089000006000000000000REP       US Senator MONTAGUE COUNTYWIDE                          John Cornyn                           PCT 13                                                 01 
01050040013000027000013000011000003000000000000REP       US Senator MONTAGUE COUNTYWIDE                          John Cornyn                           PCT 14                                                 01 
01050040014000059000031000027000001000000000000REP       US Senator MONTAGUE COUNTYWIDE                          John Cornyn                           PCT 15                                                 01 
01050040015000034000017000015000002000000000000REP       US Senator MONTAGUE COUNTYWIDE                          John Cornyn                           PCT 16                                                 01 
01050050001000063000028000035000000000000000000REP       US Senator MONTAGUE COUNTYWIDE                          Dwayne Stovall                        PCT 2                                                  01 
01050050002000033000019000014000000000000000000REP       US Senator MONTAGUE COUNTYWIDE                          Dwayne Stovall                        PCT 3                                                  01 
01050050003000008000003000005000000000000000000REP       US Senator MONTAGUE COUNTYWIDE                          Dwayne Stovall                        PCT 4                                                  01 
01050050004000023000006000017000000000000000000REP       US Senator MONTAGUE COUNTYWIDE                          Dwayne Stovall                        PCT 5                                                  01 
01050050005000012000005000007000000000000000000REP       US Senator MONTAGUE COUNTYWIDE                          Dwayne Stovall                        PCT 6                                                  01 
01050050006000019000007000011000001000000000000REP       US Senator MONTAGUE COUNTYWIDE                          Dwayne Stovall                        PCT 7                                                  01 
01050050007000015000003000012000000000000000000REP       US Senator MONTAGUE COUNTYWIDE                          Dwayne Stovall                        PCT 8                                                  01 
01050050008000031000018000012000001000000000000REP       US Senator MONTAGUE COUNTYWIDE                          Dwayne Stovall                        PCT 9                                                  01 
01050050009000028000013000015000000000000000000REP       US Senator MONTAGUE COUNTYWIDE                          Dwayne Stovall                        PCT 10                                                 01 
01050050010000031000013000017000001000000000000REP       US Senator MONTAGUE COUNTYWIDE                          Dwayne Stovall                        PCT 11                                                 01 
01050050011000003000000000003000000000000000000REP       US Senator MONTAGUE COUNTYWIDE                          Dwayne Stovall                        PCT 12                                                 01 
01050050012000018000005000013000000000000000000REP       US Senator MONTAGUE COUNTYWIDE                          Dwayne Stovall                        PCT 13                                                 01 
01050050013000001000000000001000000000000000000REP       US Senator MONTAGUE COUNTYWIDE                          Dwayne Stovall                        PCT 14                                                 01 
01050050014000007000002000005000000000000000000REP       US Senator MONTAGUE COUNTYWIDE                          Dwayne Stovall                        PCT 15                                                 01 
01050050015000003000002000001000000000000000000REP       US Senator MONTAGUE COUNTYWIDE                          Dwayne Stovall                        PCT 16                                                 01 
01050060001000078000049000029000000000000000000REP       US Senator MONTAGUE COUNTYWIDE                          Steve Stockman                        PCT 2                                                  01 
01050060002000052000021000031000000000000000000REP       US Senator MONTAGUE COUNTYWIDE                          Steve Stockman                        PCT 3                                                  01 
01050060003000015000009000005000001000000000000REP       US Senator MONTAGUE COUNTYWIDE                          Steve Stockman                        PCT 4                                                  01 
01050060004000026000011000014000001000000000000REP       US Senator MONTAGUE COUNTYWIDE                          Steve Stockman                        PCT 5                                                  01 
01050060005000043000017000024000002000000000000REP       US Senator MONTAGUE COUNTYWIDE                          Steve Stockman                        PCT 6                                                  01 
01050060006000053000013000037000003000000000000REP       US Senator MONTAGUE COUNTYWIDE                          Steve Stockman                        PCT 7                                                  01 
01050060007000023000003000019000001000000000000REP       US Senator MONTAGUE COUNTYWIDE                          Steve Stockman                        PCT 8                                                  01 
01050060008000055000030000024000001000000000000REP       US Senator MONTAGUE COUNTYWIDE                          Steve Stockman                        PCT 9                                                  01 
01050060009000022000007000015000000000000000000REP       US Senator MONTAGUE COUNTYWIDE                          Steve Stockman                        PCT 10                                                 01 
01050060010000038000016000021000001000000000000REP       US Senator MONTAGUE COUNTYWIDE                          Steve Stockman                        PCT 11                                                 01 
01050060011000008000001000006000001000000000000REP       US Senator MONTAGUE COUNTYWIDE                          Steve Stockman                        PCT 12                                                 01 
01050060012000025000002000022000001000000000000REP       US Senator MONTAGUE COUNTYWIDE                          Steve Stockman                        PCT 13                                                 01 
01050060013000009000003000005000001000000000000REP       US Senator MONTAGUE COUNTYWIDE                          Steve Stockman                        PCT 14                                                 01 
01050060014000022000012000008000002000000000000REP       US Senator MONTAGUE COUNTYWIDE                          Steve Stockman                        PCT 15                                                 01 
01050060015000011000006000005000000000000000000REP       US Senator MONTAGUE COUNTYWIDE                          Steve Stockman                        PCT 16                                                 01 
01050070001000005000004000001000000000000000000REP       US Senator MONTAGUE COUNTYWIDE                          Reid Reasor                           PCT 2                                                  01 
01050070002000003000002000001000000000000000000REP       US Senator MONTAGUE COUNTYWIDE                          Reid Reasor                           PCT 3                                                  01 
01050070003000000000000000000000000000000000000REP       US Senator MONTAGUE COUNTYWIDE                          Reid Reasor                           PCT 4                                                  01 
01050070004000002000002000000000000000000000000REP       US Senator MONTAGUE COUNTYWIDE                          Reid Reasor                           PCT 5                                                  01 
01050070005000000000000000000000000000000000000REP       US Senator MONTAGUE COUNTYWIDE                          Reid Reasor                           PCT 6                                                  01 
01050070006000002000000000002000000000000000000REP       US Senator MONTAGUE COUNTYWIDE                          Reid Reasor                           PCT 7                                                  01 
01050070007000001000001000000000000000000000000REP       US Senator MONTAGUE COUNTYWIDE                          Reid Reasor                           PCT 8                                                  01 
01050070008000001000001000000000000000000000000REP       US Senator MONTAGUE COUNTYWIDE                          Reid Reasor                           PCT 9                                                  01 
01050070009000001000000000001000000000000000000REP       US Senator MONTAGUE COUNTYWIDE                          Reid Reasor                           PCT 10                                                 01 
01050070010000005000002000003000000000000000000REP       US Senator MONTAGUE COUNTYWIDE                          Reid Reasor                           PCT 11                                                 01 
01050070011000002000000000002000000000000000000REP       US Senator MONTAGUE COUNTYWIDE                          Reid Reasor                           PCT 12                                                 01 
01050070012000000000000000000000000000000000000REP       US Senator MONTAGUE COUNTYWIDE                          Reid Reasor                           PCT 13                                                 01 
01050070013000002000001000001000000000000000000REP       US Senator MONTAGUE COUNTYWIDE                          Reid Reasor                           PCT 14                                                 01 
01050070014000000000000000000000000000000000000REP       US Senator MONTAGUE COUNTYWIDE                          Reid Reasor                           PCT 15                                                 01 
01050070015000000000000000000000000000000000000REP       US Senator MONTAGUE COUNTYWIDE                          Reid Reasor                           PCT 16                                                 01 
01050080001000012000008000004000000000000000000REP       US Senator MONTAGUE COUNTYWIDE                          Ken Cope                              PCT 2                                                  01 
01050080002000006000006000000000000000000000000REP       US Senator MONTAGUE COUNTYWIDE                          Ken Cope                              PCT 3                                                  01 
01050080003000003000003000000000000000000000000REP       US Senator MONTAGUE COUNTYWIDE                          Ken Cope                              PCT 4                                                  01 
01050080004000005000001000004000000000000000000REP       US Senator MONTAGUE COUNTYWIDE                          Ken Cope                              PCT 5                                                  01 
01050080005000002000000000002000000000000000000REP       US Senator MONTAGUE COUNTYWIDE                          Ken Cope                              PCT 6                                                  01 
01050080006000009000002000006000001000000000000REP       US Senator MONTAGUE COUNTYWIDE                          Ken Cope                              PCT 7                                                  01 
01050080007000001000000000001000000000000000000REP       US Senator MONTAGUE COUNTYWIDE                          Ken Cope                              PCT 8                                                  01 
01050080008000010000007000002000001000000000000REP       US Senator MONTAGUE COUNTYWIDE                          Ken Cope                              PCT 9                                                  01 
01050080009000013000010000003000000000000000000REP       US Senator MONTAGUE COUNTYWIDE                          Ken Cope                              PCT 10                                                 01 
01050080010000011000006000005000000000000000000REP       US Senator MONTAGUE COUNTYWIDE                          Ken Cope                              PCT 11                                                 01 
01050080011000001000000000001000000000000000000REP       US Senator MONTAGUE COUNTYWIDE                          Ken Cope                              PCT 12                                                 01 
01050080012000003000000000003000000000000000000REP       US Senator MONTAGUE COUNTYWIDE                          Ken Cope                              PCT 13                                                 01 
01050080013000002000001000001000000000000000000REP       US Senator MONTAGUE COUNTYWIDE                          Ken Cope                              PCT 14                                                 01 
01050080014000011000006000005000000000000000000REP       US Senator MONTAGUE COUNTYWIDE                          Ken Cope                              PCT 15                                                 01 
01050080015000003000002000001000000000000000000REP       US Senator MONTAGUE COUNTYWIDE                          Ken Cope                              PCT 16                                                 01 
01050090001000000000000000000000000000000000000REP       US Senator MONTAGUE COUNTYWIDE                          OVER VOTES                            PCT 2                                                  01 
01050090002000000000000000000000000000000000000REP       US Senator MONTAGUE COUNTYWIDE                          OVER VOTES                            PCT 3                                                  01 
01050090003000000000000000000000000000000000000REP       US Senator MONTAGUE COUNTYWIDE                          OVER VOTES                            PCT 4                                                  01 
01050090004000000000000000000000000000000000000REP       US Senator MONTAGUE COUNTYWIDE                          OVER VOTES                            PCT 5                                                  01 
01050090005000000000000000000000000000000000000REP       US Senator MONTAGUE COUNTYWIDE                          OVER VOTES                            PCT 6                                                  01 
01050090006000000000000000000000000000000000000REP       US Senator MONTAGUE COUNTYWIDE                          OVER VOTES                            PCT 7                                                  01 
01050090007000000000000000000000000000000000000REP       US Senator MONTAGUE COUNTYWIDE                          OVER VOTES                            PCT 8                                                  01 
01050090008000000000000000000000000000000000000REP       US Senator MONTAGUE COUNTYWIDE                          OVER VOTES                            PCT 9                                                  01 
01050090009000000000000000000000000000000000000REP       US Senator MONTAGUE COUNTYWIDE                          OVER VOTES                            PCT 10                                                 01 
01050090010000000000000000000000000000000000000REP       US Senator MONTAGUE COUNTYWIDE                          OVER VOTES                            PCT 11                                                 01 
01050090011000000000000000000000000000000000000REP       US Senator MONTAGUE COUNTYWIDE                          OVER VOTES                            PCT 12                                                 01 
01050090012000000000000000000000000000000000000REP       US Senator MONTAGUE COUNTYWIDE                          OVER VOTES                            PCT 13                                                 01 
01050090013000000000000000000000000000000000000REP       US Senator MONTAGUE COUNTYWIDE                          OVER VOTES                            PCT 14                                                 01 
01050090014000000000000000000000000000000000000REP       US Senator MONTAGUE COUNTYWIDE                          OVER VOTES                            PCT 15                                                 01 
01050090015000000000000000000000000000000000000REP       US Senator MONTAGUE COUNTYWIDE                          OVER VOTES                            PCT 16                                                 01 
01050100001000050000032000017000001000000000000REP       US Senator MONTAGUE COUNTYWIDE                          UNDER VOTES                           PCT 2                                                  01 
01050100002000031000018000013000000000000000000REP       US Senator MONTAGUE COUNTYWIDE                          UNDER VOTES                           PCT 3                                                  01 
01050100003000005000004000001000000000000000000REP       US Senator MONTAGUE COUNTYWIDE                          UNDER VOTES                           PCT 4                                                  01 
01050100004000018000011000007000000000000000000REP       US Senator MONTAGUE COUNTYWIDE                          UNDER VOTES                           PCT 5                                                  01 
01050100005000018000007000011000000000000000000REP       US Senator MONTAGUE COUNTYWIDE                          UNDER VOTES                           PCT 6                                                  01 
01050100006000019000005000014000000000000000000REP       US Senator MONTAGUE COUNTYWIDE                          UNDER VOTES                           PCT 7                                                  01 
01050100007000015000002000013000000000000000000REP       US Senator MONTAGUE COUNTYWIDE                          UNDER VOTES                           PCT 8                                                  01 
01050100008000051000033000018000000000000000000REP       US Senator MONTAGUE COUNTYWIDE                          UNDER VOTES                           PCT 9                                                  01 
01050100009000059000028000028000003000000000000REP       US Senator MONTAGUE COUNTYWIDE                          UNDER VOTES                           PCT 10                                                 01 
01050100010000067000037000028000002000000000000REP       US Senator MONTAGUE COUNTYWIDE                          UNDER VOTES                           PCT 11                                                 01 
01050100011000005000000000005000000000000000000REP       US Senator MONTAGUE COUNTYWIDE                          UNDER VOTES                           PCT 12                                                 01 
01050100012000017000002000015000000000000000000REP       US Senator MONTAGUE COUNTYWIDE                          UNDER VOTES                           PCT 13                                                 01 
01050100013000009000002000007000000000000000000REP       US Senator MONTAGUE COUNTYWIDE                          UNDER VOTES                           PCT 14                                                 01 
01050100014000018000011000007000000000000000000REP       US Senator MONTAGUE COUNTYWIDE                          UNDER VOTES                           PCT 15                                                 01 
01050100015000003000001000002000000000000000000REP       US Senator MONTAGUE COUNTYWIDE                          UNDER VOTES                           PCT 16                                                 01 
01060010001000154000087000063000004000000000000REP       US Representative, DIST 13 MONTAGUE COUNTYWIDE          Pam Barlow                            PCT 2                                                  01 
01060010002000068000023000045000000000000000000REP       US Representative, DIST 13 MONTAGUE COUNTYWIDE          Pam Barlow                            PCT 3                                                  01 
01060010003000029000015000011000003000000000000REP       US Representative, DIST 13 MONTAGUE COUNTYWIDE          Pam Barlow                            PCT 4                                                  01 
01060010004000063000026000035000002000000000000REP       US Representative, DIST 13 MONTAGUE COUNTYWIDE          Pam Barlow                            PCT 5                                                  01 
01060010005000052000019000031000002000000000000REP       US Representative, DIST 13 MONTAGUE COUNTYWIDE          Pam Barlow                            PCT 6                                                  01 
01060010006000044000006000035000003000000000000REP       US Representative, DIST 13 MONTAGUE COUNTYWIDE          Pam Barlow                            PCT 7                                                  01 
01060010007000036000009000027000000000000000000REP       US Representative, DIST 13 MONTAGUE COUNTYWIDE          Pam Barlow                            PCT 8                                                  01 
01060010008000058000032000021000005000000000000REP       US Representative, DIST 13 MONTAGUE COUNTYWIDE          Pam Barlow                            PCT 9                                                  01 
01060010009000054000028000026000000000000000000REP       US Representative, DIST 13 MONTAGUE COUNTYWIDE          Pam Barlow                            PCT 10                                                 01 
01060010010000048000026000019000003000000000000REP       US Representative, DIST 13 MONTAGUE COUNTYWIDE          Pam Barlow                            PCT 11                                                 01 
01060010011000006000000000006000000000000000000REP       US Representative, DIST 13 MONTAGUE COUNTYWIDE          Pam Barlow                            PCT 12                                                 01 
01060010012000036000005000031000000000000000000REP       US Representative, DIST 13 MONTAGUE COUNTYWIDE          Pam Barlow                            PCT 13                                                 01 
01060010013000008000003000004000001000000000000REP       US Representative, DIST 13 MONTAGUE COUNTYWIDE          Pam Barlow                            PCT 14                                                 01 
01060010014000036000019000015000002000000000000REP       US Representative, DIST 13 MONTAGUE COUNTYWIDE          Pam Barlow                            PCT 15                                                 01 
01060010015000024000009000015000000000000000000REP       US Representative, DIST 13 MONTAGUE COUNTYWIDE          Pam Barlow                            PCT 16                                                 01 
01060020001000330000188000128000014000000000000REP       US Representative, DIST 13 MONTAGUE COUNTYWIDE          Mac Thornberry                        PCT 2                                                  01 
01060020002000193000102000079000012000000000000REP       US Representative, DIST 13 MONTAGUE COUNTYWIDE          Mac Thornberry                        PCT 3                                                  01 
01060020003000048000026000020000002000000000000REP       US Representative, DIST 13 MONTAGUE COUNTYWIDE          Mac Thornberry                        PCT 4                                                  01 
01060020004000109000041000049000019000000000000REP       US Representative, DIST 13 MONTAGUE COUNTYWIDE          Mac Thornberry                        PCT 5                                                  01 
01060020005000113000057000048000008000000000000REP       US Representative, DIST 13 MONTAGUE COUNTYWIDE          Mac Thornberry                        PCT 6                                                  01 
01060020006000149000047000089000013000000000000REP       US Representative, DIST 13 MONTAGUE COUNTYWIDE          Mac Thornberry                        PCT 7                                                  01 
01060020007000069000016000048000005000000000000REP       US Representative, DIST 13 MONTAGUE COUNTYWIDE          Mac Thornberry                        PCT 8                                                  01 
01060020008000184000104000069000011000000000000REP       US Representative, DIST 13 MONTAGUE COUNTYWIDE          Mac Thornberry                        PCT 9                                                  01 
01060020009000177000093000078000006000000000000REP       US Representative, DIST 13 MONTAGUE COUNTYWIDE          Mac Thornberry                        PCT 10                                                 01 
01060020010000250000147000090000013000000000000REP       US Representative, DIST 13 MONTAGUE COUNTYWIDE          Mac Thornberry                        PCT 11                                                 01 
01060020011000022000006000013000003000000000000REP       US Representative, DIST 13 MONTAGUE COUNTYWIDE          Mac Thornberry                        PCT 12                                                 01 
01060020012000124000020000097000007000000000000REP       US Representative, DIST 13 MONTAGUE COUNTYWIDE          Mac Thornberry                        PCT 13                                                 01 
01060020013000036000015000018000003000000000000REP       US Representative, DIST 13 MONTAGUE COUNTYWIDE          Mac Thornberry                        PCT 14                                                 01 
01060020014000068000034000033000001000000000000REP       US Representative, DIST 13 MONTAGUE COUNTYWIDE          Mac Thornberry                        PCT 15                                                 01 
01060020015000033000019000014000000000000000000REP       US Representative, DIST 13 MONTAGUE COUNTYWIDE          Mac Thornberry                        PCT 16                                                 01 
01060030001000056000035000021000000000000000000REP       US Representative, DIST 13 MONTAGUE COUNTYWIDE          Elaine Hays                           PCT 2                                                  01 
01060030002000034000021000013000000000000000000REP       US Representative, DIST 13 MONTAGUE COUNTYWIDE          Elaine Hays                           PCT 3                                                  01 
01060030003000002000000000002000000000000000000REP       US Representative, DIST 13 MONTAGUE COUNTYWIDE          Elaine Hays                           PCT 4                                                  01 
01060030004000009000005000004000000000000000000REP       US Representative, DIST 13 MONTAGUE COUNTYWIDE          Elaine Hays                           PCT 5                                                  01 
01060030005000016000006000010000000000000000000REP       US Representative, DIST 13 MONTAGUE COUNTYWIDE          Elaine Hays                           PCT 6                                                  01 
01060030006000037000008000029000000000000000000REP       US Representative, DIST 13 MONTAGUE COUNTYWIDE          Elaine Hays                           PCT 7                                                  01 
01060030007000016000003000012000001000000000000REP       US Representative, DIST 13 MONTAGUE COUNTYWIDE          Elaine Hays                           PCT 8                                                  01 
01060030008000039000025000012000002000000000000REP       US Representative, DIST 13 MONTAGUE COUNTYWIDE          Elaine Hays                           PCT 9                                                  01 
01060030009000034000020000012000002000000000000REP       US Representative, DIST 13 MONTAGUE COUNTYWIDE          Elaine Hays                           PCT 10                                                 01 
01060030010000057000032000024000001000000000000REP       US Representative, DIST 13 MONTAGUE COUNTYWIDE          Elaine Hays                           PCT 11                                                 01 
01060030011000010000000000010000000000000000000REP       US Representative, DIST 13 MONTAGUE COUNTYWIDE          Elaine Hays                           PCT 12                                                 01 
01060030012000022000001000021000000000000000000REP       US Representative, DIST 13 MONTAGUE COUNTYWIDE          Elaine Hays                           PCT 13                                                 01 
01060030013000006000004000002000000000000000000REP       US Representative, DIST 13 MONTAGUE COUNTYWIDE          Elaine Hays                           PCT 14                                                 01 
01060030014000018000009000009000000000000000000REP       US Representative, DIST 13 MONTAGUE COUNTYWIDE          Elaine Hays                           PCT 15                                                 01 
01060030015000006000003000001000002000000000000REP       US Representative, DIST 13 MONTAGUE COUNTYWIDE          Elaine Hays                           PCT 16                                                 01 
01060040001000000000000000000000000000000000000REP       US Representative, DIST 13 MONTAGUE COUNTYWIDE          OVER VOTES                            PCT 2                                                  01 
01060040002000000000000000000000000000000000000REP       US Representative, DIST 13 MONTAGUE COUNTYWIDE          OVER VOTES                            PCT 3                                                  01 
01060040003000000000000000000000000000000000000REP       US Representative, DIST 13 MONTAGUE COUNTYWIDE          OVER VOTES                            PCT 4                                                  01 
01060040004000000000000000000000000000000000000REP       US Representative, DIST 13 MONTAGUE COUNTYWIDE          OVER VOTES                            PCT 5                                                  01 
01060040005000000000000000000000000000000000000REP       US Representative, DIST 13 MONTAGUE COUNTYWIDE          OVER VOTES                            PCT 6                                                  01 
01060040006000000000000000000000000000000000000REP       US Representative, DIST 13 MONTAGUE COUNTYWIDE          OVER VOTES                            PCT 7                                                  01 
01060040007000000000000000000000000000000000000REP       US Representative, DIST 13 MONTAGUE COUNTYWIDE          OVER VOTES                            PCT 8                                                  01 
01060040008000000000000000000000000000000000000REP       US Representative, DIST 13 MONTAGUE COUNTYWIDE          OVER VOTES                            PCT 9                                                  01 
01060040009000000000000000000000000000000000000REP       US Representative, DIST 13 MONTAGUE COUNTYWIDE          OVER VOTES                            PCT 10                                                 01 
01060040010000000000000000000000000000000000000REP       US Representative, DIST 13 MONTAGUE COUNTYWIDE          OVER VOTES                            PCT 11                                                 01 
01060040011000000000000000000000000000000000000REP       US Representative, DIST 13 MONTAGUE COUNTYWIDE          OVER VOTES                            PCT 12                                                 01 
01060040012000000000000000000000000000000000000REP       US Representative, DIST 13 MONTAGUE COUNTYWIDE          OVER VOTES                            PCT 13                                                 01 
01060040013000000000000000000000000000000000000REP       US Representative, DIST 13 MONTAGUE COUNTYWIDE          OVER VOTES                            PCT 14                                                 01 
01060040014000000000000000000000000000000000000REP       US Representative, DIST 13 MONTAGUE COUNTYWIDE          OVER VOTES                            PCT 15                                                 01 
01060040015000000000000000000000000000000000000REP       US Representative, DIST 13 MONTAGUE COUNTYWIDE          OVER VOTES                            PCT 16                                                 01 
01060050001000010000007000003000000000000000000REP       US Representative, DIST 13 MONTAGUE COUNTYWIDE          UNDER VOTES                           PCT 2                                                  01 
01060050002000013000006000007000000000000000000REP       US Representative, DIST 13 MONTAGUE COUNTYWIDE          UNDER VOTES                           PCT 3                                                  01 
01060050003000002000001000001000000000000000000REP       US Representative, DIST 13 MONTAGUE COUNTYWIDE          UNDER VOTES                           PCT 4                                                  01 
01060050004000005000002000003000000000000000000REP       US Representative, DIST 13 MONTAGUE COUNTYWIDE          UNDER VOTES                           PCT 5                                                  01 
01060050005000005000001000004000000000000000000REP       US Representative, DIST 13 MONTAGUE COUNTYWIDE          UNDER VOTES                           PCT 6                                                  01 
01060050006000012000002000010000000000000000000REP       US Representative, DIST 13 MONTAGUE COUNTYWIDE          UNDER VOTES                           PCT 7                                                  01 
01060050007000006000002000004000000000000000000REP       US Representative, DIST 13 MONTAGUE COUNTYWIDE          UNDER VOTES                           PCT 8                                                  01 
01060050008000024000014000010000000000000000000REP       US Representative, DIST 13 MONTAGUE COUNTYWIDE          UNDER VOTES                           PCT 9                                                  01 
01060050009000018000007000011000000000000000000REP       US Representative, DIST 13 MONTAGUE COUNTYWIDE          UNDER VOTES                           PCT 10                                                 01 
01060050010000029000014000015000000000000000000REP       US Representative, DIST 13 MONTAGUE COUNTYWIDE          UNDER VOTES                           PCT 11                                                 01 
01060050011000001000000000000000001000000000000REP       US Representative, DIST 13 MONTAGUE COUNTYWIDE          UNDER VOTES                           PCT 12                                                 01 
01060050012000013000002000011000000000000000000REP       US Representative, DIST 13 MONTAGUE COUNTYWIDE          UNDER VOTES                           PCT 13                                                 01 
01060050013000003000001000002000000000000000000REP       US Representative, DIST 13 MONTAGUE COUNTYWIDE          UNDER VOTES                           PCT 14                                                 01 
01060050014000009000007000002000000000000000000REP       US Representative, DIST 13 MONTAGUE COUNTYWIDE          UNDER VOTES                           PCT 15                                                 01 
01060050015000000000000000000000000000000000000REP       US Representative, DIST 13 MONTAGUE COUNTYWIDE          UNDER VOTES                           PCT 16                                                 01 
01070010001000007000003000004000000000000000000REP       Governor MONTAGUE COUNTYWIDE                            SECEDE Kilgore                        PCT 2                                                  01 
01070010002000004000003000001000000000000000000REP       Governor MONTAGUE COUNTYWIDE                            SECEDE Kilgore                        PCT 3                                                  01 
01070010003000000000000000000000000000000000000REP       Governor MONTAGUE COUNTYWIDE                            SECEDE Kilgore                        PCT 4                                                  01 
01070010004000003000001000000000002000000000000REP       Governor MONTAGUE COUNTYWIDE                            SECEDE Kilgore                        PCT 5                                                  01 
01070010005000000000000000000000000000000000000REP       Governor MONTAGUE COUNTYWIDE                            SECEDE Kilgore                        PCT 6                                                  01 
01070010006000005000000000005000000000000000000REP       Governor MONTAGUE COUNTYWIDE                            SECEDE Kilgore                        PCT 7                                                  01 
01070010007000006000001000005000000000000000000REP       Governor MONTAGUE COUNTYWIDE                            SECEDE Kilgore                        PCT 8                                                  01 
01070010008000004000003000000000001000000000000REP       Governor MONTAGUE COUNTYWIDE                            SECEDE Kilgore                        PCT 9                                                  01 
01070010009000005000002000003000000000000000000REP       Governor MONTAGUE COUNTYWIDE                            SECEDE Kilgore                        PCT 10                                                 01 
01070010010000003000003000000000000000000000000REP       Governor MONTAGUE COUNTYWIDE                            SECEDE Kilgore                        PCT 11                                                 01 
01070010011000001000000000001000000000000000000REP       Governor MONTAGUE COUNTYWIDE                            SECEDE Kilgore                        PCT 12                                                 01 
01070010012000005000000000005000000000000000000REP       Governor MONTAGUE COUNTYWIDE                            SECEDE Kilgore                        PCT 13                                                 01 
01070010013000001000001000000000000000000000000REP       Governor MONTAGUE COUNTYWIDE                            SECEDE Kilgore                        PCT 14                                                 01 
01070010014000003000002000001000000000000000000REP       Governor MONTAGUE COUNTYWIDE                            SECEDE Kilgore                        PCT 15                                                 01 
01070010015000000000000000000000000000000000000REP       Governor MONTAGUE COUNTYWIDE                            SECEDE Kilgore                        PCT 16                                                 01 
01070020001000029000020000009000000000000000000REP       Governor MONTAGUE COUNTYWIDE                            Lisa Fritsch                          PCT 2                                                  01 
01070020002000017000007000010000000000000000000REP       Governor MONTAGUE COUNTYWIDE                            Lisa Fritsch                          PCT 3                                                  01 
01070020003000003000002000001000000000000000000REP       Governor MONTAGUE COUNTYWIDE                            Lisa Fritsch                          PCT 4                                                  01 
01070020004000010000005000005000000000000000000REP       Governor MONTAGUE COUNTYWIDE                            Lisa Fritsch                          PCT 5                                                  01 
01070020005000013000004000009000000000000000000REP       Governor MONTAGUE COUNTYWIDE                            Lisa Fritsch                          PCT 6                                                  01 
01070020006000011000001000010000000000000000000REP       Governor MONTAGUE COUNTYWIDE                            Lisa Fritsch                          PCT 7                                                  01 
01070020007000002000000000002000000000000000000REP       Governor MONTAGUE COUNTYWIDE                            Lisa Fritsch                          PCT 8                                                  01 
01070020008000020000012000008000000000000000000REP       Governor MONTAGUE COUNTYWIDE                            Lisa Fritsch                          PCT 9                                                  01 
01070020009000019000011000008000000000000000000REP       Governor MONTAGUE COUNTYWIDE                            Lisa Fritsch                          PCT 10                                                 01 
01070020010000029000015000014000000000000000000REP       Governor MONTAGUE COUNTYWIDE                            Lisa Fritsch                          PCT 11                                                 01 
01070020011000004000000000004000000000000000000REP       Governor MONTAGUE COUNTYWIDE                            Lisa Fritsch                          PCT 12                                                 01 
01070020012000015000003000011000001000000000000REP       Governor MONTAGUE COUNTYWIDE                            Lisa Fritsch                          PCT 13                                                 01 
01070020013000002000001000000000001000000000000REP       Governor MONTAGUE COUNTYWIDE                            Lisa Fritsch                          PCT 14                                                 01 
01070020014000012000003000009000000000000000000REP       Governor MONTAGUE COUNTYWIDE                            Lisa Fritsch                          PCT 15                                                 01 
01070020015000005000002000003000000000000000000REP       Governor MONTAGUE COUNTYWIDE                            Lisa Fritsch                          PCT 16                                                 01 
01070030001000472000267000187000018000000000000REP       Governor MONTAGUE COUNTYWIDE                            Greg Abbott                           PCT 2                                                  01 
01070030002000262000129000121000012000000000000REP       Governor MONTAGUE COUNTYWIDE                            Greg Abbott                           PCT 3                                                  01 
01070030003000073000037000031000005000000000000REP       Governor MONTAGUE COUNTYWIDE                            Greg Abbott                           PCT 4                                                  01 
01070030004000166000063000084000019000000000000REP       Governor MONTAGUE COUNTYWIDE                            Greg Abbott                           PCT 5                                                  01 
01070030005000157000068000079000010000000000000REP       Governor MONTAGUE COUNTYWIDE                            Greg Abbott                           PCT 6                                                  01 
01070030006000206000059000133000014000000000000REP       Governor MONTAGUE COUNTYWIDE                            Greg Abbott                           PCT 7                                                  01 
01070030007000112000028000078000006000000000000REP       Governor MONTAGUE COUNTYWIDE                            Greg Abbott                           PCT 8                                                  01 
01070030008000242000134000091000017000000000000REP       Governor MONTAGUE COUNTYWIDE                            Greg Abbott                           PCT 9                                                  01 
01070030009000208000109000093000006000000000000REP       Governor MONTAGUE COUNTYWIDE                            Greg Abbott                           PCT 10                                                 01 
01070030010000299000171000113000015000000000000REP       Governor MONTAGUE COUNTYWIDE                            Greg Abbott                           PCT 11                                                 01 
01070030011000028000006000019000003000000000000REP       Governor MONTAGUE COUNTYWIDE                            Greg Abbott                           PCT 12                                                 01 
01070030012000161000024000131000006000000000000REP       Governor MONTAGUE COUNTYWIDE                            Greg Abbott                           PCT 13                                                 01 
01070030013000045000021000021000003000000000000REP       Governor MONTAGUE COUNTYWIDE                            Greg Abbott                           PCT 14                                                 01 
01070030014000103000055000045000003000000000000REP       Governor MONTAGUE COUNTYWIDE                            Greg Abbott                           PCT 15                                                 01 
01070030015000055000027000026000002000000000000REP       Governor MONTAGUE COUNTYWIDE                            Greg Abbott                           PCT 16                                                 01 
01070040001000008000004000004000000000000000000REP       Governor MONTAGUE COUNTYWIDE                            Miriam Martinez                       PCT 2                                                  01 
01070040002000006000003000003000000000000000000REP       Governor MONTAGUE COUNTYWIDE                            Miriam Martinez                       PCT 3                                                  01 
01070040003000003000002000001000000000000000000REP       Governor MONTAGUE COUNTYWIDE                            Miriam Martinez                       PCT 4                                                  01 
01070040004000002000002000000000000000000000000REP       Governor MONTAGUE COUNTYWIDE                            Miriam Martinez                       PCT 5                                                  01 
01070040005000002000001000001000000000000000000REP       Governor MONTAGUE COUNTYWIDE                            Miriam Martinez                       PCT 6                                                  01 
01070040006000004000000000004000000000000000000REP       Governor MONTAGUE COUNTYWIDE                            Miriam Martinez                       PCT 7                                                  01 
01070040007000002000000000002000000000000000000REP       Governor MONTAGUE COUNTYWIDE                            Miriam Martinez                       PCT 8                                                  01 
01070040008000009000006000003000000000000000000REP       Governor MONTAGUE COUNTYWIDE                            Miriam Martinez                       PCT 9                                                  01 
01070040009000011000009000002000000000000000000REP       Governor MONTAGUE COUNTYWIDE                            Miriam Martinez                       PCT 10                                                 01 
01070040010000007000002000005000000000000000000REP       Governor MONTAGUE COUNTYWIDE                            Miriam Martinez                       PCT 11                                                 01 
01070040011000000000000000000000000000000000000REP       Governor MONTAGUE COUNTYWIDE                            Miriam Martinez                       PCT 12                                                 01 
01070040012000005000000000005000000000000000000REP       Governor MONTAGUE COUNTYWIDE                            Miriam Martinez                       PCT 13                                                 01 
01070040013000001000000000001000000000000000000REP       Governor MONTAGUE COUNTYWIDE                            Miriam Martinez                       PCT 14                                                 01 
01070040014000002000001000001000000000000000000REP       Governor MONTAGUE COUNTYWIDE                            Miriam Martinez                       PCT 15                                                 01 
01070040015000001000001000000000000000000000000REP       Governor MONTAGUE COUNTYWIDE                            Miriam Martinez                       PCT 16                                                 01 
01070050001000000000000000000000000000000000000REP       Governor MONTAGUE COUNTYWIDE                            OVER VOTES                            PCT 2                                                  01 
01070050002000000000000000000000000000000000000REP       Governor MONTAGUE COUNTYWIDE                            OVER VOTES                            PCT 3                                                  01 
01070050003000000000000000000000000000000000000REP       Governor MONTAGUE COUNTYWIDE                            OVER VOTES                            PCT 4                                                  01 
01070050004000000000000000000000000000000000000REP       Governor MONTAGUE COUNTYWIDE                            OVER VOTES                            PCT 5                                                  01 
01070050005000000000000000000000000000000000000REP       Governor MONTAGUE COUNTYWIDE                            OVER VOTES                            PCT 6                                                  01 
01070050006000000000000000000000000000000000000REP       Governor MONTAGUE COUNTYWIDE                            OVER VOTES                            PCT 7                                                  01 
01070050007000000000000000000000000000000000000REP       Governor MONTAGUE COUNTYWIDE                            OVER VOTES                            PCT 8                                                  01 
01070050008000000000000000000000000000000000000REP       Governor MONTAGUE COUNTYWIDE                            OVER VOTES                            PCT 9                                                  01 
01070050009000000000000000000000000000000000000REP       Governor MONTAGUE COUNTYWIDE                            OVER VOTES                            PCT 10                                                 01 
01070050010000000000000000000000000000000000000REP       Governor MONTAGUE COUNTYWIDE                            OVER VOTES                            PCT 11                                                 01 
01070050011000000000000000000000000000000000000REP       Governor MONTAGUE COUNTYWIDE                            OVER VOTES                            PCT 12                                                 01 
01070050012000000000000000000000000000000000000REP       Governor MONTAGUE COUNTYWIDE                            OVER VOTES                            PCT 13                                                 01 
01070050013000000000000000000000000000000000000REP       Governor MONTAGUE COUNTYWIDE                            OVER VOTES                            PCT 14                                                 01 
01070050014000000000000000000000000000000000000REP       Governor MONTAGUE COUNTYWIDE                            OVER VOTES                            PCT 15                                                 01 
01070050015000000000000000000000000000000000000REP       Governor MONTAGUE COUNTYWIDE                            OVER VOTES                            PCT 16                                                 01 
01070060001000034000023000011000000000000000000REP       Governor MONTAGUE COUNTYWIDE                            UNDER VOTES                           PCT 2                                                  01 
01070060002000019000010000009000000000000000000REP       Governor MONTAGUE COUNTYWIDE                            UNDER VOTES                           PCT 3                                                  01 
01070060003000002000001000001000000000000000000REP       Governor MONTAGUE COUNTYWIDE                            UNDER VOTES                           PCT 4                                                  01 
01070060004000005000003000002000000000000000000REP       Governor MONTAGUE COUNTYWIDE                            UNDER VOTES                           PCT 5                                                  01 
01070060005000013000009000004000000000000000000REP       Governor MONTAGUE COUNTYWIDE                            UNDER VOTES                           PCT 6                                                  01 
01070060006000016000003000011000002000000000000REP       Governor MONTAGUE COUNTYWIDE                            UNDER VOTES                           PCT 7                                                  01 
01070060007000005000001000004000000000000000000REP       Governor MONTAGUE COUNTYWIDE                            UNDER VOTES                           PCT 8                                                  01 
01070060008000030000020000010000000000000000000REP       Governor MONTAGUE COUNTYWIDE                            UNDER VOTES                           PCT 9                                                  01 
01070060009000040000017000021000002000000000000REP       Governor MONTAGUE COUNTYWIDE                            UNDER VOTES                           PCT 10                                                 01 
01070060010000046000028000016000002000000000000REP       Governor MONTAGUE COUNTYWIDE                            UNDER VOTES                           PCT 11                                                 01 
01070060011000006000000000005000001000000000000REP       Governor MONTAGUE COUNTYWIDE                            UNDER VOTES                           PCT 12                                                 01 
01070060012000009000001000008000000000000000000REP       Governor MONTAGUE COUNTYWIDE                            UNDER VOTES                           PCT 13                                                 01 
01070060013000004000000000004000000000000000000REP       Governor MONTAGUE COUNTYWIDE                            UNDER VOTES                           PCT 14                                                 01 
01070060014000011000008000003000000000000000000REP       Governor MONTAGUE COUNTYWIDE                            UNDER VOTES                           PCT 15                                                 01 
01070060015000002000001000001000000000000000000REP       Governor MONTAGUE COUNTYWIDE                            UNDER VOTES                           PCT 16                                                 01 
01080010001000099000062000036000001000000000000REP       Lieutenant Governor MONTAGUE COUNTYWIDE                 Todd Staples                          PCT 2                                                  01 
01080010002000057000032000023000002000000000000REP       Lieutenant Governor MONTAGUE COUNTYWIDE                 Todd Staples                          PCT 3                                                  01 
01080010003000006000005000001000000000000000000REP       Lieutenant Governor MONTAGUE COUNTYWIDE                 Todd Staples                          PCT 4                                                  01 
01080010004000029000016000010000003000000000000REP       Lieutenant Governor MONTAGUE COUNTYWIDE                 Todd Staples                          PCT 5                                                  01 
01080010005000021000010000011000000000000000000REP       Lieutenant Governor MONTAGUE COUNTYWIDE                 Todd Staples                          PCT 6                                                  01 
01080010006000043000015000026000002000000000000REP       Lieutenant Governor MONTAGUE COUNTYWIDE                 Todd Staples                          PCT 7                                                  01 
01080010007000022000007000015000000000000000000REP       Lieutenant Governor MONTAGUE COUNTYWIDE                 Todd Staples                          PCT 8                                                  01 
01080010008000053000029000020000004000000000000REP       Lieutenant Governor MONTAGUE COUNTYWIDE                 Todd Staples                          PCT 9                                                  01 
01080010009000041000027000013000001000000000000REP       Lieutenant Governor MONTAGUE COUNTYWIDE                 Todd Staples                          PCT 10                                                 01 
01080010010000061000033000028000000000000000000REP       Lieutenant Governor MONTAGUE COUNTYWIDE                 Todd Staples                          PCT 11                                                 01 
01080010011000008000000000008000000000000000000REP       Lieutenant Governor MONTAGUE COUNTYWIDE                 Todd Staples                          PCT 12                                                 01 
01080010012000032000007000024000001000000000000REP       Lieutenant Governor MONTAGUE COUNTYWIDE                 Todd Staples                          PCT 13                                                 01 
01080010013000003000002000001000000000000000000REP       Lieutenant Governor MONTAGUE COUNTYWIDE                 Todd Staples                          PCT 14                                                 01 
01080010014000015000010000005000000000000000000REP       Lieutenant Governor MONTAGUE COUNTYWIDE                 Todd Staples                          PCT 15                                                 01 
01080010015000008000002000006000000000000000000REP       Lieutenant Governor MONTAGUE COUNTYWIDE                 Todd Staples                          PCT 16                                                 01 
01080020001000155000079000066000010000000000000REP       Lieutenant Governor MONTAGUE COUNTYWIDE                 Dan Patrick                           PCT 2                                                  01 
01080020002000102000044000054000004000000000000REP       Lieutenant Governor MONTAGUE COUNTYWIDE                 Dan Patrick                           PCT 3                                                  01 
01080020003000025000016000008000001000000000000REP       Lieutenant Governor MONTAGUE COUNTYWIDE                 Dan Patrick                           PCT 4                                                  01 
01080020004000059000017000030000012000000000000REP       Lieutenant Governor MONTAGUE COUNTYWIDE                 Dan Patrick                           PCT 5                                                  01 
01080020005000056000028000025000003000000000000REP       Lieutenant Governor MONTAGUE COUNTYWIDE                 Dan Patrick                           PCT 6                                                  01 
01080020006000067000011000053000003000000000000REP       Lieutenant Governor MONTAGUE COUNTYWIDE                 Dan Patrick                           PCT 7                                                  01 
01080020007000046000008000032000006000000000000REP       Lieutenant Governor MONTAGUE COUNTYWIDE                 Dan Patrick                           PCT 8                                                  01 
01080020008000096000052000035000009000000000000REP       Lieutenant Governor MONTAGUE COUNTYWIDE                 Dan Patrick                           PCT 9                                                  01 
01080020009000079000030000045000004000000000000REP       Lieutenant Governor MONTAGUE COUNTYWIDE                 Dan Patrick                           PCT 10                                                 01 
01080020010000108000057000041000010000000000000REP       Lieutenant Governor MONTAGUE COUNTYWIDE                 Dan Patrick                           PCT 11                                                 01 
01080020011000013000003000010000000000000000000REP       Lieutenant Governor MONTAGUE COUNTYWIDE                 Dan Patrick                           PCT 12                                                 01 
01080020012000075000015000055000005000000000000REP       Lieutenant Governor MONTAGUE COUNTYWIDE                 Dan Patrick                           PCT 13                                                 01 
01080020013000017000005000009000003000000000000REP       Lieutenant Governor MONTAGUE COUNTYWIDE                 Dan Patrick                           PCT 14                                                 01 
01080020014000037000015000022000000000000000000REP       Lieutenant Governor MONTAGUE COUNTYWIDE                 Dan Patrick                           PCT 15                                                 01 
01080020015000021000012000008000001000000000000REP       Lieutenant Governor MONTAGUE COUNTYWIDE                 Dan Patrick                           PCT 16                                                 01 
01080030001000214000128000079000007000000000000REP       Lieutenant Governor MONTAGUE COUNTYWIDE                 David Dewhurst                        PCT 2                                                  01 
01080030002000107000058000043000006000000000000REP       Lieutenant Governor MONTAGUE COUNTYWIDE                 David Dewhurst                        PCT 3                                                  01 
01080030003000041000016000021000004000000000000REP       Lieutenant Governor MONTAGUE COUNTYWIDE                 David Dewhurst                        PCT 4                                                  01 
01080030004000078000034000038000006000000000000REP       Lieutenant Governor MONTAGUE COUNTYWIDE                 David Dewhurst                        PCT 5                                                  01 
01080030005000077000029000041000007000000000000REP       Lieutenant Governor MONTAGUE COUNTYWIDE                 David Dewhurst                        PCT 6                                                  01 
01080030006000087000024000054000009000000000000REP       Lieutenant Governor MONTAGUE COUNTYWIDE                 David Dewhurst                        PCT 7                                                  01 
01080030007000042000009000033000000000000000000REP       Lieutenant Governor MONTAGUE COUNTYWIDE                 David Dewhurst                        PCT 8                                                  01 
01080030008000095000058000032000005000000000000REP       Lieutenant Governor MONTAGUE COUNTYWIDE                 David Dewhurst                        PCT 9                                                  01 
01080030009000088000055000032000001000000000000REP       Lieutenant Governor MONTAGUE COUNTYWIDE                 David Dewhurst                        PCT 10                                                 01 
01080030010000136000081000051000004000000000000REP       Lieutenant Governor MONTAGUE COUNTYWIDE                 David Dewhurst                        PCT 11                                                 01 
01080030011000012000001000008000003000000000000REP       Lieutenant Governor MONTAGUE COUNTYWIDE                 David Dewhurst                        PCT 12                                                 01 
01080030012000054000003000051000000000000000000REP       Lieutenant Governor MONTAGUE COUNTYWIDE                 David Dewhurst                        PCT 13                                                 01 
01080030013000024000010000013000001000000000000REP       Lieutenant Governor MONTAGUE COUNTYWIDE                 David Dewhurst                        PCT 14                                                 01 
01080030014000059000035000023000001000000000000REP       Lieutenant Governor MONTAGUE COUNTYWIDE                 David Dewhurst                        PCT 15                                                 01 
01080030015000021000010000010000001000000000000REP       Lieutenant Governor MONTAGUE COUNTYWIDE                 David Dewhurst                        PCT 16                                                 01 
01080040001000046000023000023000000000000000000REP       Lieutenant Governor MONTAGUE COUNTYWIDE                 Jerry Patterson                       PCT 2                                                  01 
01080040002000022000008000014000000000000000000REP       Lieutenant Governor MONTAGUE COUNTYWIDE                 Jerry Patterson                       PCT 3                                                  01 
01080040003000006000003000003000000000000000000REP       Lieutenant Governor MONTAGUE COUNTYWIDE                 Jerry Patterson                       PCT 4                                                  01 
01080040004000014000004000010000000000000000000REP       Lieutenant Governor MONTAGUE COUNTYWIDE                 Jerry Patterson                       PCT 5                                                  01 
01080040005000015000008000007000000000000000000REP       Lieutenant Governor MONTAGUE COUNTYWIDE                 Jerry Patterson                       PCT 6                                                  01 
01080040006000028000008000020000000000000000000REP       Lieutenant Governor MONTAGUE COUNTYWIDE                 Jerry Patterson                       PCT 7                                                  01 
01080040007000012000005000007000000000000000000REP       Lieutenant Governor MONTAGUE COUNTYWIDE                 Jerry Patterson                       PCT 8                                                  01 
01080040008000015000008000007000000000000000000REP       Lieutenant Governor MONTAGUE COUNTYWIDE                 Jerry Patterson                       PCT 9                                                  01 
01080040009000031000018000013000000000000000000REP       Lieutenant Governor MONTAGUE COUNTYWIDE                 Jerry Patterson                       PCT 10                                                 01 
01080040010000022000012000009000001000000000000REP       Lieutenant Governor MONTAGUE COUNTYWIDE                 Jerry Patterson                       PCT 11                                                 01 
01080040011000002000002000000000000000000000000REP       Lieutenant Governor MONTAGUE COUNTYWIDE                 Jerry Patterson                       PCT 12                                                 01 
01080040012000018000002000016000000000000000000REP       Lieutenant Governor MONTAGUE COUNTYWIDE                 Jerry Patterson                       PCT 13                                                 01 
01080040013000005000005000000000000000000000000REP       Lieutenant Governor MONTAGUE COUNTYWIDE                 Jerry Patterson                       PCT 14                                                 01 
01080040014000013000003000008000002000000000000REP       Lieutenant Governor MONTAGUE COUNTYWIDE                 Jerry Patterson                       PCT 15                                                 01 
01080040015000009000006000003000000000000000000REP       Lieutenant Governor MONTAGUE COUNTYWIDE                 Jerry Patterson                       PCT 16                                                 01 
01080050001000000000000000000000000000000000000REP       Lieutenant Governor MONTAGUE COUNTYWIDE                 OVER VOTES                            PCT 2                                                  01 
01080050002000000000000000000000000000000000000REP       Lieutenant Governor MONTAGUE COUNTYWIDE                 OVER VOTES                            PCT 3                                                  01 
01080050003000000000000000000000000000000000000REP       Lieutenant Governor MONTAGUE COUNTYWIDE                 OVER VOTES                            PCT 4                                                  01 
01080050004000000000000000000000000000000000000REP       Lieutenant Governor MONTAGUE COUNTYWIDE                 OVER VOTES                            PCT 5                                                  01 
01080050005000000000000000000000000000000000000REP       Lieutenant Governor MONTAGUE COUNTYWIDE                 OVER VOTES                            PCT 6                                                  01 
01080050006000000000000000000000000000000000000REP       Lieutenant Governor MONTAGUE COUNTYWIDE                 OVER VOTES                            PCT 7                                                  01 
01080050007000000000000000000000000000000000000REP       Lieutenant Governor MONTAGUE COUNTYWIDE                 OVER VOTES                            PCT 8                                                  01 
01080050008000000000000000000000000000000000000REP       Lieutenant Governor MONTAGUE COUNTYWIDE                 OVER VOTES                            PCT 9                                                  01 
01080050009000000000000000000000000000000000000REP       Lieutenant Governor MONTAGUE COUNTYWIDE                 OVER VOTES                            PCT 10                                                 01 
01080050010000000000000000000000000000000000000REP       Lieutenant Governor MONTAGUE COUNTYWIDE                 OVER VOTES                            PCT 11                                                 01 
01080050011000000000000000000000000000000000000REP       Lieutenant Governor MONTAGUE COUNTYWIDE                 OVER VOTES                            PCT 12                                                 01 
01080050012000000000000000000000000000000000000REP       Lieutenant Governor MONTAGUE COUNTYWIDE                 OVER VOTES                            PCT 13                                                 01 
01080050013000000000000000000000000000000000000REP       Lieutenant Governor MONTAGUE COUNTYWIDE                 OVER VOTES                            PCT 14                                                 01 
01080050014000000000000000000000000000000000000REP       Lieutenant Governor MONTAGUE COUNTYWIDE                 OVER VOTES                            PCT 15                                                 01 
01080050015000000000000000000000000000000000000REP       Lieutenant Governor MONTAGUE COUNTYWIDE                 OVER VOTES                            PCT 16                                                 01 
01080060001000036000025000011000000000000000000REP       Lieutenant Governor MONTAGUE COUNTYWIDE                 UNDER VOTES                           PCT 2                                                  01 
01080060002000020000010000010000000000000000000REP       Lieutenant Governor MONTAGUE COUNTYWIDE                 UNDER VOTES                           PCT 3                                                  01 
01080060003000003000002000001000000000000000000REP       Lieutenant Governor MONTAGUE COUNTYWIDE                 UNDER VOTES                           PCT 4                                                  01 
01080060004000006000003000003000000000000000000REP       Lieutenant Governor MONTAGUE COUNTYWIDE                 UNDER VOTES                           PCT 5                                                  01 
01080060005000016000007000009000000000000000000REP       Lieutenant Governor MONTAGUE COUNTYWIDE                 UNDER VOTES                           PCT 6                                                  01 
01080060006000017000005000010000002000000000000REP       Lieutenant Governor MONTAGUE COUNTYWIDE                 UNDER VOTES                           PCT 7                                                  01 
01080060007000005000001000004000000000000000000REP       Lieutenant Governor MONTAGUE COUNTYWIDE                 UNDER VOTES                           PCT 8                                                  01 
01080060008000046000028000018000000000000000000REP       Lieutenant Governor MONTAGUE COUNTYWIDE                 UNDER VOTES                           PCT 9                                                  01 
01080060009000044000018000024000002000000000000REP       Lieutenant Governor MONTAGUE COUNTYWIDE                 UNDER VOTES                           PCT 10                                                 01 
01080060010000057000036000019000002000000000000REP       Lieutenant Governor MONTAGUE COUNTYWIDE                 UNDER VOTES                           PCT 11                                                 01 
01080060011000004000000000003000001000000000000REP       Lieutenant Governor MONTAGUE COUNTYWIDE                 UNDER VOTES                           PCT 12                                                 01 
01080060012000016000001000014000001000000000000REP       Lieutenant Governor MONTAGUE COUNTYWIDE                 UNDER VOTES                           PCT 13                                                 01 
01080060013000004000001000003000000000000000000REP       Lieutenant Governor MONTAGUE COUNTYWIDE                 UNDER VOTES                           PCT 14                                                 01 
01080060014000007000006000001000000000000000000REP       Lieutenant Governor MONTAGUE COUNTYWIDE                 UNDER VOTES                           PCT 15                                                 01 
01080060015000004000001000003000000000000000000REP       Lieutenant Governor MONTAGUE COUNTYWIDE                 UNDER VOTES                           PCT 16                                                 01 
01090010001000160000085000072000003000000000000REP       Attorney General MONTAGUE COUNTYWIDE                    Dan Branch                            PCT 2                                                  01 
01090010002000097000052000039000006000000000000REP       Attorney General MONTAGUE COUNTYWIDE                    Dan Branch                            PCT 3                                                  01 
01090010003000031000015000014000002000000000000REP       Attorney General MONTAGUE COUNTYWIDE                    Dan Branch                            PCT 4                                                  01 
01090010004000062000026000032000004000000000000REP       Attorney General MONTAGUE COUNTYWIDE                    Dan Branch                            PCT 5                                                  01 
01090010005000075000029000043000003000000000000REP       Attorney General MONTAGUE COUNTYWIDE                    Dan Branch                            PCT 6                                                  01 
01090010006000070000015000052000003000000000000REP       Attorney General MONTAGUE COUNTYWIDE                    Dan Branch                            PCT 7                                                  01 
01090010007000042000008000033000001000000000000REP       Attorney General MONTAGUE COUNTYWIDE                    Dan Branch                            PCT 8                                                  01 
01090010008000087000042000041000004000000000000REP       Attorney General MONTAGUE COUNTYWIDE                    Dan Branch                            PCT 9                                                  01 
