01040010001000592REP       United States Senator                                   John Cornyn                           Precinct 101                                           01 
01040010002000611REP       United States Senator                                   John Cornyn                           Precinct 201                                           01 
01040010003000628REP       United States Senator                                   John Cornyn                           Precinct 202                                           01 
01040010004000022REP       United States Senator                                   John Cornyn                           Precinct 203                                           01 
01040010005000254REP       United States Senator                                   John Cornyn                           Precinct 301                                           01 
01040010006000283REP       United States Senator                                   John Cornyn                           Precinct 401                                           01 
01040010007000024REP       United States Senator                                   John Cornyn                           Precinct 402                                           01 
01040020001000072DEM       United States Senator                                   David M. Alameel                      Precinct 101                                           01 
01040020002000038DEM       United States Senator                                   David M. Alameel                      Precinct 201                                           01 
01040020003000042DEM       United States Senator                                   David M. Alameel                      Precinct 202                                           01 
01040020004000002DEM       United States Senator                                   David M. Alameel                      Precinct 203                                           01 
01040020005000036DEM       United States Senator                                   David M. Alameel                      Precinct 301                                           01 
01040020006000026DEM       United States Senator                                   David M. Alameel                      Precinct 401                                           01 
01040020007000033DEM       United States Senator                                   David M. Alameel                      Precinct 402                                           01 
01040030001000018LIB       United States Senator                                   Rebecca Paddock                       Precinct 101                                           01 
01040030002000011LIB       United States Senator                                   Rebecca Paddock                       Precinct 201                                           01 
01040030003000019LIB       United States Senator                                   Rebecca Paddock                       Precinct 202                                           01 
01040030004000000LIB       United States Senator                                   Rebecca Paddock                       Precinct 203                                           01 
01040030005000008LIB       United States Senator                                   Rebecca Paddock                       Precinct 301                                           01 
01040030006000009LIB       United States Senator                                   Rebecca Paddock                       Precinct 401                                           01 
01040030007000002LIB       United States Senator                                   Rebecca Paddock                       Precinct 402                                           01 
01040040001000004GRN       United States Senator                                   Emily "Spicybrown" Sanchez            Precinct 101                                           01 
01040040002000003GRN       United States Senator                                   Emily "Spicybrown" Sanchez            Precinct 201                                           01 
01040040003000003GRN       United States Senator                                   Emily "Spicybrown" Sanchez            Precinct 202                                           01 
01040040004000000GRN       United States Senator                                   Emily "Spicybrown" Sanchez            Precinct 203                                           01 
01040040005000004GRN       United States Senator                                   Emily "Spicybrown" Sanchez            Precinct 301                                           01 
01040040006000002GRN       United States Senator                                   Emily "Spicybrown" Sanchez            Precinct 401                                           01 
01040040007000002GRN       United States Senator                                   Emily "Spicybrown" Sanchez            Precinct 402                                           01 
01040050001000000NON       United States Senator                                   WRITE-IN                              Precinct 101                                           01 
01040050002000000NON       United States Senator                                   WRITE-IN                              Precinct 201                                           01 
01040050003000000NON       United States Senator                                   WRITE-IN                              Precinct 202                                           01 
01040050004000000NON       United States Senator                                   WRITE-IN                              Precinct 203                                           01 
01040050005000000NON       United States Senator                                   WRITE-IN                              Precinct 301                                           01 
01040050006000000NON       United States Senator                                   WRITE-IN                              Precinct 401                                           01 
01040050007000000NON       United States Senator                                   WRITE-IN                              Precinct 402                                           01 
01040060001000000          United States Senator                                   OVER VOTES                            Precinct 101                                           01 
01040060002000000          United States Senator                                   OVER VOTES                            Precinct 201                                           01 
01040060003000000          United States Senator                                   OVER VOTES                            Precinct 202                                           01 
01040060004000000          United States Senator                                   OVER VOTES                            Precinct 203                                           01 
01040060005000000          United States Senator                                   OVER VOTES                            Precinct 301                                           01 
01040060006000000          United States Senator                                   OVER VOTES                            Precinct 401                                           01 
01040060007000000          United States Senator                                   OVER VOTES                            Precinct 402                                           01 
01040070001000018          United States Senator                                   UNDER VOTES                           Precinct 101                                           01 
01040070002000010          United States Senator                                   UNDER VOTES                           Precinct 201                                           01 
01040070003000006          United States Senator                                   UNDER VOTES                           Precinct 202                                           01 
01040070004000003          United States Senator                                   UNDER VOTES                           Precinct 203                                           01 
01040070005000006          United States Senator                                   UNDER VOTES                           Precinct 301                                           01 
01040070006000005          United States Senator                                   UNDER VOTES                           Precinct 401                                           01 
01040070007000001          United States Senator                                   UNDER VOTES                           Precinct 402                                           01 
01050010001000611REP       United States Rep, District 13                          Mac Thornberry                        Precinct 101                                           01 
01050010002000614REP       United States Rep, District 13                          Mac Thornberry                        Precinct 201                                           01 
01050010003000638REP       United States Rep, District 13                          Mac Thornberry                        Precinct 202                                           01 
01050010004000024REP       United States Rep, District 13                          Mac Thornberry                        Precinct 203                                           01 
01050010005000261REP       United States Rep, District 13                          Mac Thornberry                        Precinct 301                                           01 
01050010006000274REP       United States Rep, District 13                          Mac Thornberry                        Precinct 401                                           01 
01050010007000024REP       United States Rep, District 13                          Mac Thornberry                        Precinct 402                                           01 
01050020001000072DEM       United States Rep, District 13                          Mike Minter                           Precinct 101                                           01 
01050020002000037DEM       United States Rep, District 13                          Mike Minter                           Precinct 201                                           01 
01050020003000036DEM       United States Rep, District 13                          Mike Minter                           Precinct 202                                           01 
01050020004000002DEM       United States Rep, District 13                          Mike Minter                           Precinct 203                                           01 
01050020005000035DEM       United States Rep, District 13                          Mike Minter                           Precinct 301                                           01 
01050020006000033DEM       United States Rep, District 13                          Mike Minter                           Precinct 401                                           01 
01050020007000031DEM       United States Rep, District 13                          Mike Minter                           Precinct 402                                           01 
01050030001000009LIB       United States Rep, District 13                          Emily Pivoda                          Precinct 101                                           01 
01050030002000014LIB       United States Rep, District 13                          Emily Pivoda                          Precinct 201                                           01 
01050030003000012LIB       United States Rep, District 13                          Emily Pivoda                          Precinct 202                                           01 
01050030004000000LIB       United States Rep, District 13                          Emily Pivoda                          Precinct 203                                           01 
01050030005000004LIB       United States Rep, District 13                          Emily Pivoda                          Precinct 301                                           01 
01050030006000012LIB       United States Rep, District 13                          Emily Pivoda                          Precinct 401                                           01 
01050030007000003LIB       United States Rep, District 13                          Emily Pivoda                          Precinct 402                                           01 
01050040001000003GRN       United States Rep, District 13                          Don Cook                              Precinct 101                                           01 
01050040002000001GRN       United States Rep, District 13                          Don Cook                              Precinct 201                                           01 
01050040003000007GRN       United States Rep, District 13                          Don Cook                              Precinct 202                                           01 
01050040004000000GRN       United States Rep, District 13                          Don Cook                              Precinct 203                                           01 
01050040005000003GRN       United States Rep, District 13                          Don Cook                              Precinct 301                                           01 
01050040006000004GRN       United States Rep, District 13                          Don Cook                              Precinct 401                                           01 
01050040007000003GRN       United States Rep, District 13                          Don Cook                              Precinct 402                                           01 
01050050001000000          United States Rep, District 13                          OVER VOTES                            Precinct 101                                           01 
01050050002000000          United States Rep, District 13                          OVER VOTES                            Precinct 201                                           01 
01050050003000000          United States Rep, District 13                          OVER VOTES                            Precinct 202                                           01 
01050050004000000          United States Rep, District 13                          OVER VOTES                            Precinct 203                                           01 
01050050005000000          United States Rep, District 13                          OVER VOTES                            Precinct 301                                           01 
01050050006000000          United States Rep, District 13                          OVER VOTES                            Precinct 401                                           01 
01050050007000000          United States Rep, District 13                          OVER VOTES                            Precinct 402                                           01 
01050060001000009          United States Rep, District 13                          UNDER VOTES                           Precinct 101                                           01 
01050060002000007          United States Rep, District 13                          UNDER VOTES                           Precinct 201                                           01 
01050060003000005          United States Rep, District 13                          UNDER VOTES                           Precinct 202                                           01 
01050060004000001          United States Rep, District 13                          UNDER VOTES                           Precinct 203                                           01 
01050060005000005          United States Rep, District 13                          UNDER VOTES                           Precinct 301                                           01 
01050060006000002          United States Rep, District 13                          UNDER VOTES                           Precinct 401                                           01 
01050060007000001          United States Rep, District 13                          UNDER VOTES                           Precinct 402                                           01 
01060010001000605REP       Governor                                                Greg Abbott                           Precinct 101                                           01 
01060010002000606REP       Governor                                                Greg Abbott                           Precinct 201                                           01 
01060010003000628REP       Governor                                                Greg Abbott                           Precinct 202                                           01 
01060010004000023REP       Governor                                                Greg Abbott                           Precinct 203                                           01 
01060010005000253REP       Governor                                                Greg Abbott                           Precinct 301                                           01 
01060010006000281REP       Governor                                                Greg Abbott                           Precinct 401                                           01 
01060010007000025REP       Governor                                                Greg Abbott                           Precinct 402                                           01 
01060020001000080DEM       Governor                                                Wendy R. Davis                        Precinct 101                                           01 
01060020002000053DEM       Governor                                                Wendy R. Davis                        Precinct 201                                           01 
01060020003000052DEM       Governor                                                Wendy R. Davis                        Precinct 202                                           01 
01060020004000004DEM       Governor                                                Wendy R. Davis                        Precinct 203                                           01 
01060020005000047DEM       Governor                                                Wendy R. Davis                        Precinct 301                                           01 
01060020006000033DEM       Governor                                                Wendy R. Davis                        Precinct 401                                           01 
01060020007000032DEM       Governor                                                Wendy R. Davis                        Precinct 402                                           01 
01060030001000009LIB       Governor                                                Kathie Glass                          Precinct 101                                           01 
01060030002000005LIB       Governor                                                Kathie Glass                          Precinct 201                                           01 
01060030003000009LIB       Governor                                                Kathie Glass                          Precinct 202                                           01 
01060030004000000LIB       Governor                                                Kathie Glass                          Precinct 203                                           01 
01060030005000002LIB       Governor                                                Kathie Glass                          Precinct 301                                           01 
01060030006000008LIB       Governor                                                Kathie Glass                          Precinct 401                                           01 
01060030007000000LIB       Governor                                                Kathie Glass                          Precinct 402                                           01 
01060040001000000GRN       Governor                                                Brandon Parmer                        Precinct 101                                           01 
01060040002000002GRN       Governor                                                Brandon Parmer                        Precinct 201                                           01 
01060040003000003GRN       Governor                                                Brandon Parmer                        Precinct 202                                           01 
01060040004000000GRN       Governor                                                Brandon Parmer                        Precinct 203                                           01 
01060040005000003GRN       Governor                                                Brandon Parmer                        Precinct 301                                           01 
01060040006000000GRN       Governor                                                Brandon Parmer                        Precinct 401                                           01 
01060040007000002GRN       Governor                                                Brandon Parmer                        Precinct 402                                           01 
01060050001000000NON       Governor                                                WRITE-IN                              Precinct 101                                           01 
01060050002000000NON       Governor                                                WRITE-IN                              Precinct 201                                           01 
01060050003000000NON       Governor                                                WRITE-IN                              Precinct 202                                           01 
01060050004000000NON       Governor                                                WRITE-IN                              Precinct 203                                           01 
01060050005000000NON       Governor                                                WRITE-IN                              Precinct 301                                           01 
01060050006000000NON       Governor                                                WRITE-IN                              Precinct 401                                           01 
01060050007000001NON       Governor                                                WRITE-IN                              Precinct 402                                           01 
01060060001000000          Governor                                                OVER VOTES                            Precinct 101                                           01 
01060060002000000          Governor                                                OVER VOTES                            Precinct 201                                           01 
01060060003000002          Governor                                                OVER VOTES                            Precinct 202                                           01 
01060060004000000          Governor                                                OVER VOTES                            Precinct 203                                           01 
01060060005000000          Governor                                                OVER VOTES                            Precinct 301                                           01 
01060060006000000          Governor                                                OVER VOTES                            Precinct 401                                           01 
01060060007000000          Governor                                                OVER VOTES                            Precinct 402                                           01 
01060070001000010          Governor                                                UNDER VOTES                           Precinct 101                                           01 
01060070002000007          Governor                                                UNDER VOTES                           Precinct 201                                           01 
01060070003000004          Governor                                                UNDER VOTES                           Precinct 202                                           01 
01060070004000000          Governor                                                UNDER VOTES                           Precinct 203                                           01 
01060070005000003          Governor                                                UNDER VOTES                           Precinct 301                                           01 
01060070006000003          Governor                                                UNDER VOTES                           Precinct 401                                           01 
01060070007000002          Governor                                                UNDER VOTES                           Precinct 402                                           01 
01070010001000600REP       Lieutenant Governor                                     Dan Patrick                           Precinct 101                                           01 
01070010002000601REP       Lieutenant Governor                                     Dan Patrick                           Precinct 201                                           01 
01070010003000632REP       Lieutenant Governor                                     Dan Patrick                           Precinct 202                                           01 
01070010004000023REP       Lieutenant Governor                                     Dan Patrick                           Precinct 203                                           01 
01070010005000262REP       Lieutenant Governor                                     Dan Patrick                           Precinct 301                                           01 
01070010006000284REP       Lieutenant Governor                                     Dan Patrick                           Precinct 401                                           01 
01070010007000022REP       Lieutenant Governor                                     Dan Patrick                           Precinct 402                                           01 
01070020001000075DEM       Lieutenant Governor                                     Leticia Van de Putte                  Precinct 101                                           01 
01070020002000051DEM       Lieutenant Governor                                     Leticia Van de Putte                  Precinct 201                                           01 
01070020003000040DEM       Lieutenant Governor                                     Leticia Van de Putte                  Precinct 202                                           01 
01070020004000004DEM       Lieutenant Governor                                     Leticia Van de Putte                  Precinct 203                                           01 
01070020005000040DEM       Lieutenant Governor                                     Leticia Van de Putte                  Precinct 301                                           01 
01070020006000029DEM       Lieutenant Governor                                     Leticia Van de Putte                  Precinct 401                                           01 
01070020007000036DEM       Lieutenant Governor                                     Leticia Van de Putte                  Precinct 402                                           01 
01070030001000016LIB       Lieutenant Governor                                     Robert D. Butler                      Precinct 101                                           01 
01070030002000010LIB       Lieutenant Governor                                     Robert D. Butler                      Precinct 201                                           01 
01070030003000014LIB       Lieutenant Governor                                     Robert D. Butler                      Precinct 202                                           01 
01070030004000000LIB       Lieutenant Governor                                     Robert D. Butler                      Precinct 203                                           01 
01070030005000003LIB       Lieutenant Governor                                     Robert D. Butler                      Precinct 301                                           01 
01070030006000009LIB       Lieutenant Governor                                     Robert D. Butler                      Precinct 401                                           01 
01070030007000000LIB       Lieutenant Governor                                     Robert D. Butler                      Precinct 402                                           01 
01070040001000000GRN       Lieutenant Governor                                     Chandrakantha Courtney                Precinct 101                                           01 
01070040002000000GRN       Lieutenant Governor                                     Chandrakantha Courtney                Precinct 201                                           01 
01070040003000003GRN       Lieutenant Governor                                     Chandrakantha Courtney                Precinct 202                                           01 
01070040004000000GRN       Lieutenant Governor                                     Chandrakantha Courtney                Precinct 203                                           01 
01070040005000002GRN       Lieutenant Governor                                     Chandrakantha Courtney                Precinct 301                                           01 
01070040006000000GRN       Lieutenant Governor                                     Chandrakantha Courtney                Precinct 401                                           01 
01070040007000002GRN       Lieutenant Governor                                     Chandrakantha Courtney                Precinct 402                                           01 
01070050001000000          Lieutenant Governor                                     OVER VOTES                            Precinct 101                                           01 
01070050002000000          Lieutenant Governor                                     OVER VOTES                            Precinct 201                                           01 
01070050003000000          Lieutenant Governor                                     OVER VOTES                            Precinct 202                                           01 
01070050004000000          Lieutenant Governor                                     OVER VOTES                            Precinct 203                                           01 
01070050005000000          Lieutenant Governor                                     OVER VOTES                            Precinct 301                                           01 
01070050006000000          Lieutenant Governor                                     OVER VOTES                            Precinct 401                                           01 
01070050007000000          Lieutenant Governor                                     OVER VOTES                            Precinct 402                                           01 
01070060001000013          Lieutenant Governor                                     UNDER VOTES                           Precinct 101                                           01 
01070060002000011          Lieutenant Governor                                     UNDER VOTES                           Precinct 201                                           01 
01070060003000009          Lieutenant Governor                                     UNDER VOTES                           Precinct 202                                           01 
01070060004000000          Lieutenant Governor                                     UNDER VOTES                           Precinct 203                                           01 
01070060005000001          Lieutenant Governor                                     UNDER VOTES                           Precinct 301                                           01 
01070060006000003          Lieutenant Governor                                     UNDER VOTES                           Precinct 401                                           01 
01070060007000002          Lieutenant Governor                                     UNDER VOTES                           Precinct 402                                           01 
01080010001000590REP       Attorney General                                        Ken Paxton                            Precinct 101                                           01 
01080010002000588REP       Attorney General                                        Ken Paxton                            Precinct 201                                           01 
01080010003000620REP       Attorney General                                        Ken Paxton                            Precinct 202                                           01 
01080010004000024REP       Attorney General                                        Ken Paxton                            Precinct 203                                           01 
01080010005000255REP       Attorney General                                        Ken Paxton                            Precinct 301                                           01 
01080010006000269REP       Attorney General                                        Ken Paxton                            Precinct 401                                           01 
01080010007000022REP       Attorney General                                        Ken Paxton                            Precinct 402                                           01 
01080020001000081DEM       Attorney General                                        Sam Houston                           Precinct 101                                           01 
01080020002000061DEM       Attorney General                                        Sam Houston                           Precinct 201                                           01 
01080020003000051DEM       Attorney General                                        Sam Houston                           Precinct 202                                           01 
01080020004000003DEM       Attorney General                                        Sam Houston                           Precinct 203                                           01 
01080020005000043DEM       Attorney General                                        Sam Houston                           Precinct 301                                           01 
01080020006000042DEM       Attorney General                                        Sam Houston                           Precinct 401                                           01 
01080020007000035DEM       Attorney General                                        Sam Houston                           Precinct 402                                           01 
01080030001000016LIB       Attorney General                                        Jamie Balagia                         Precinct 101                                           01 
01080030002000013LIB       Attorney General                                        Jamie Balagia                         Precinct 201                                           01 
01080030003000015LIB       Attorney General                                        Jamie Balagia                         Precinct 202                                           01 
01080030004000000LIB       Attorney General                                        Jamie Balagia                         Precinct 203                                           01 
01080030005000005LIB       Attorney General                                        Jamie Balagia                         Precinct 301                                           01 
01080030006000010LIB       Attorney General                                        Jamie Balagia                         Precinct 401                                           01 
01080030007000001LIB       Attorney General                                        Jamie Balagia                         Precinct 402                                           01 
01080040001000003GRN       Attorney General                                        Jamar Osborne                         Precinct 101                                           01 
01080040002000000GRN       Attorney General                                        Jamar Osborne                         Precinct 201                                           01 
01080040003000003GRN       Attorney General                                        Jamar Osborne                         Precinct 202                                           01 
01080040004000000GRN       Attorney General                                        Jamar Osborne                         Precinct 203                                           01 
01080040005000002GRN       Attorney General                                        Jamar Osborne                         Precinct 301                                           01 
01080040006000000GRN       Attorney General                                        Jamar Osborne                         Precinct 401                                           01 
01080040007000001GRN       Attorney General                                        Jamar Osborne                         Precinct 402                                           01 
01080050001000000          Attorney General                                        OVER VOTES                            Precinct 101                                           01 
01080050002000000          Attorney General                                        OVER VOTES                            Precinct 201                                           01 
01080050003000000          Attorney General                                        OVER VOTES                            Precinct 202                                           01 
01080050004000000          Attorney General                                        OVER VOTES                            Precinct 203                                           01 
01080050005000000          Attorney General                                        OVER VOTES                            Precinct 301                                           01 
01080050006000000          Attorney General                                        OVER VOTES                            Precinct 401                                           01 
01080050007000000          Attorney General                                        OVER VOTES                            Precinct 402                                           01 
01080060001000014          Attorney General                                        UNDER VOTES                           Precinct 101                                           01 
01080060002000011          Attorney General                                        UNDER VOTES                           Precinct 201                                           01 
01080060003000009          Attorney General                                        UNDER VOTES                           Precinct 202                                           01 
01080060004000000          Attorney General                                        UNDER VOTES                           Precinct 203                                           01 
01080060005000003          Attorney General                                        UNDER VOTES                           Precinct 301                                           01 
01080060006000004          Attorney General                                        UNDER VOTES                           Precinct 401                                           01 
01080060007000003          Attorney General                                        UNDER VOTES                           Precinct 402                                           01 
01090010001000577REP       Comptroller of Public Accounts                          Glenn Hegar                           Precinct 101                                           01 
01090010002000590REP       Comptroller of Public Accounts                          Glenn Hegar                           Precinct 201                                           01 
01090010003000610REP       Comptroller of Public Accounts                          Glenn Hegar                           Precinct 202                                           01 
01090010004000024REP       Comptroller of Public Accounts                          Glenn Hegar                           Precinct 203                                           01 
01090010005000242REP       Comptroller of Public Accounts                          Glenn Hegar                           Precinct 301                                           01 
01090010006000270REP       Comptroller of Public Accounts                          Glenn Hegar                           Precinct 401                                           01 
01090010007000023REP       Comptroller of Public Accounts                          Glenn Hegar                           Precinct 402                                           01 
01090020001000087DEM       Comptroller of Public Accounts                          Mike Collier                          Precinct 101                                           01 
01090020002000049DEM       Comptroller of Public Accounts                          Mike Collier                          Precinct 201                                           01 
01090020003000051DEM       Comptroller of Public Accounts                          Mike Collier                          Precinct 202                                           01 
01090020004000003DEM       Comptroller of Public Accounts                          Mike Collier                          Precinct 203                                           01 
01090020005000046DEM       Comptroller of Public Accounts                          Mike Collier                          Precinct 301                                           01 
01090020006000034DEM       Comptroller of Public Accounts                          Mike Collier                          Precinct 401                                           01 
01090020007000032DEM       Comptroller of Public Accounts                          Mike Collier                          Precinct 402                                           01 
01090030001000015LIB       Comptroller of Public Accounts                          Ben Sanders                           Precinct 101                                           01 
01090030002000020LIB       Comptroller of Public Accounts                          Ben Sanders                           Precinct 201                                           01 
01090030003000019LIB       Comptroller of Public Accounts                          Ben Sanders                           Precinct 202                                           01 
01090030004000000LIB       Comptroller of Public Accounts                          Ben Sanders                           Precinct 203                                           01 
01090030005000012LIB       Comptroller of Public Accounts                          Ben Sanders                           Precinct 301                                           01 
01090030006000015LIB       Comptroller of Public Accounts                          Ben Sanders                           Precinct 401                                           01 
01090030007000001LIB       Comptroller of Public Accounts                          Ben Sanders                           Precinct 402                                           01 
01090040001000002GRN       Comptroller of Public Accounts                          Deb Shafto                            Precinct 101                                           01 
01090040002000000GRN       Comptroller of Public Accounts                          Deb Shafto                            Precinct 201                                           01 
01090040003000006GRN       Comptroller of Public Accounts                          Deb Shafto                            Precinct 202                                           01 
01090040004000000GRN       Comptroller of Public Accounts                          Deb Shafto                            Precinct 203                                           01 
01090040005000003GRN       Comptroller of Public Accounts                          Deb Shafto                            Precinct 301                                           01 
01090040006000001GRN       Comptroller of Public Accounts                          Deb Shafto                            Precinct 401                                           01 
01090040007000001GRN       Comptroller of Public Accounts                          Deb Shafto                            Precinct 402                                           01 
01090050001000000          Comptroller of Public Accounts                          OVER VOTES                            Precinct 101                                           01 
01090050002000000          Comptroller of Public Accounts                          OVER VOTES                            Precinct 201                                           01 
01090050003000000          Comptroller of Public Accounts                          OVER VOTES                            Precinct 202                                           01 
01090050004000000          Comptroller of Public Accounts                          OVER VOTES                            Precinct 203                                           01 
01090050005000000          Comptroller of Public Accounts                          OVER VOTES                            Precinct 301                                           01 
01090050006000000          Comptroller of Public Accounts                          OVER VOTES                            Precinct 401                                           01 
01090050007000000          Comptroller of Public Accounts                          OVER VOTES                            Precinct 402                                           01 
01090060001000023          Comptroller of Public Accounts                          UNDER VOTES                           Precinct 101                                           01 
01090060002000014          Comptroller of Public Accounts                          UNDER VOTES                           Precinct 201                                           01 
01090060003000012          Comptroller of Public Accounts                          UNDER VOTES                           Precinct 202                                           01 
01090060004000000          Comptroller of Public Accounts                          UNDER VOTES                           Precinct 203                                           01 
01090060005000005          Comptroller of Public Accounts                          UNDER VOTES                           Precinct 301                                           01 
01090060006000005          Comptroller of Public Accounts                          UNDER VOTES                           Precinct 401                                           01 
01090060007000005          Comptroller of Public Accounts                          UNDER VOTES                           Precinct 402                                           01 
01100010001000590REP       Commissioner of the General Land Office                 George P. Bush                        Precinct 101                                           01 
01100010002000603REP       Commissioner of the General Land Office                 George P. Bush                        Precinct 201                                           01 
01100010003000634REP       Commissioner of the General Land Office                 George P. Bush                        Precinct 202                                           01 
01100010004000024REP       Commissioner of the General Land Office                 George P. Bush                        Precinct 203                                           01 
01100010005000252REP       Commissioner of the General Land Office                 George P. Bush                        Precinct 301                                           01 
01100010006000270REP       Commissioner of the General Land Office                 George P. Bush                        Precinct 401                                           01 
01100010007000024REP       Commissioner of the General Land Office                 George P. Bush                        Precinct 402                                           01 
01100020001000080DEM       Commissioner of the General Land Office                 John Cook                             Precinct 101                                           01 
01100020002000047DEM       Commissioner of the General Land Office                 John Cook                             Precinct 201                                           01 
01100020003000037DEM       Commissioner of the General Land Office                 John Cook                             Precinct 202                                           01 
01100020004000003DEM       Commissioner of the General Land Office                 John Cook                             Precinct 203                                           01 
01100020005000041DEM       Commissioner of the General Land Office                 John Cook                             Precinct 301                                           01 
01100020006000036DEM       Commissioner of the General Land Office                 John Cook                             Precinct 401                                           01 
01100020007000035DEM       Commissioner of the General Land Office                 John Cook                             Precinct 402                                           01 
01100030001000017LIB       Commissioner of the General Land Office                 Justin Knight                         Precinct 101                                           01 
01100030002000015LIB       Commissioner of the General Land Office                 Justin Knight                         Precinct 201                                           01 
01100030003000018LIB       Commissioner of the General Land Office                 Justin Knight                         Precinct 202                                           01 
01100030004000000LIB       Commissioner of the General Land Office                 Justin Knight                         Precinct 203                                           01 
01100030005000008LIB       Commissioner of the General Land Office                 Justin Knight                         Precinct 301                                           01 
01100030006000015LIB       Commissioner of the General Land Office                 Justin Knight                         Precinct 401                                           01 
01100030007000000LIB       Commissioner of the General Land Office                 Justin Knight                         Precinct 402                                           01 
01100040001000005GRN       Commissioner of the General Land Office                 Valerie Alessi                        Precinct 101                                           01 
01100040002000001GRN       Commissioner of the General Land Office                 Valerie Alessi                        Precinct 201                                           01 
01100040003000003GRN       Commissioner of the General Land Office                 Valerie Alessi                        Precinct 202                                           01 
01100040004000000GRN       Commissioner of the General Land Office                 Valerie Alessi                        Precinct 203                                           01 
01100040005000004GRN       Commissioner of the General Land Office                 Valerie Alessi                        Precinct 301                                           01 
01100040006000000GRN       Commissioner of the General Land Office                 Valerie Alessi                        Precinct 401                                           01 
01100040007000002GRN       Commissioner of the General Land Office                 Valerie Alessi                        Precinct 402                                           01 
01100050001000000          Commissioner of the General Land Office                 OVER VOTES                            Precinct 101                                           01 
01100050002000000          Commissioner of the General Land Office                 OVER VOTES                            Precinct 201                                           01 
01100050003000000          Commissioner of the General Land Office                 OVER VOTES                            Precinct 202                                           01 
01100050004000000          Commissioner of the General Land Office                 OVER VOTES                            Precinct 203                                           01 
01100050005000000          Commissioner of the General Land Office                 OVER VOTES                            Precinct 301                                           01 
01100050006000000          Commissioner of the General Land Office                 OVER VOTES                            Precinct 401                                           01 
01100050007000000          Commissioner of the General Land Office                 OVER VOTES                            Precinct 402                                           01 
01100060001000012          Commissioner of the General Land Office                 UNDER VOTES                           Precinct 101                                           01 
01100060002000007          Commissioner of the General Land Office                 UNDER VOTES                           Precinct 201                                           01 
01100060003000006          Commissioner of the General Land Office                 UNDER VOTES                           Precinct 202                                           01 
01100060004000000          Commissioner of the General Land Office                 UNDER VOTES                           Precinct 203                                           01 
01100060005000003          Commissioner of the General Land Office                 UNDER VOTES                           Precinct 301                                           01 
01100060006000004          Commissioner of the General Land Office                 UNDER VOTES                           Precinct 401                                           01 
01100060007000001          Commissioner of the General Land Office                 UNDER VOTES                           Precinct 402                                           01 
01110010001000573REP       Commissioner of Agriculture                             Sid Miller                            Precinct 101                                           01 
01110010002000578REP       Commissioner of Agriculture                             Sid Miller                            Precinct 201                                           01 
01110010003000612REP       Commissioner of Agriculture                             Sid Miller                            Precinct 202                                           01 
01110010004000023REP       Commissioner of Agriculture                             Sid Miller                            Precinct 203                                           01 
01110010005000240REP       Commissioner of Agriculture                             Sid Miller                            Precinct 301                                           01 
01110010006000267REP       Commissioner of Agriculture                             Sid Miller                            Precinct 401                                           01 
01110010007000021REP       Commissioner of Agriculture                             Sid Miller                            Precinct 402                                           01 
01110020001000089DEM       Commissioner of Agriculture                             Jim Hogan                             Precinct 101                                           01 
01110020002000057DEM       Commissioner of Agriculture                             Jim Hogan                             Precinct 201                                           01 
01110020003000054DEM       Commissioner of Agriculture                             Jim Hogan                             Precinct 202                                           01 
01110020004000003DEM       Commissioner of Agriculture                             Jim Hogan                             Precinct 203                                           01 
01110020005000050DEM       Commissioner of Agriculture                             Jim Hogan                             Precinct 301                                           01 
01110020006000034DEM       Commissioner of Agriculture                             Jim Hogan                             Precinct 401                                           01 
01110020007000035DEM       Commissioner of Agriculture                             Jim Hogan                             Precinct 402                                           01 
01110030001000017LIB       Commissioner of Agriculture                             David (Rocky) Palmquist               Precinct 101                                           01 
01110030002000015LIB       Commissioner of Agriculture                             David (Rocky) Palmquist               Precinct 201                                           01 
01110030003000013LIB       Commissioner of Agriculture                             David (Rocky) Palmquist               Precinct 202                                           01 
01110030004000000LIB       Commissioner of Agriculture                             David (Rocky) Palmquist               Precinct 203                                           01 
01110030005000004LIB       Commissioner of Agriculture                             David (Rocky) Palmquist               Precinct 301                                           01 
01110030006000012LIB       Commissioner of Agriculture                             David (Rocky) Palmquist               Precinct 401                                           01 
01110030007000001LIB       Commissioner of Agriculture                             David (Rocky) Palmquist               Precinct 402                                           01 
01110040001000008GRN       Commissioner of Agriculture                             Kenneth Kendrick                      Precinct 101                                           01 
01110040002000008GRN       Commissioner of Agriculture                             Kenneth Kendrick                      Precinct 201                                           01 
01110040003000004GRN       Commissioner of Agriculture                             Kenneth Kendrick                      Precinct 202                                           01 
01110040004000001GRN       Commissioner of Agriculture                             Kenneth Kendrick                      Precinct 203                                           01 
01110040005000010GRN       Commissioner of Agriculture                             Kenneth Kendrick                      Precinct 301                                           01 
01110040006000006GRN       Commissioner of Agriculture                             Kenneth Kendrick                      Precinct 401                                           01 
01110040007000002GRN       Commissioner of Agriculture                             Kenneth Kendrick                      Precinct 402                                           01 
01110050001000000          Commissioner of Agriculture                             OVER VOTES                            Precinct 101                                           01 
01110050002000000          Commissioner of Agriculture                             OVER VOTES                            Precinct 201                                           01 
01110050003000000          Commissioner of Agriculture                             OVER VOTES                            Precinct 202                                           01 
01110050004000000          Commissioner of Agriculture                             OVER VOTES                            Precinct 203                                           01 
01110050005000000          Commissioner of Agriculture                             OVER VOTES                            Precinct 301                                           01 
01110050006000000          Commissioner of Agriculture                             OVER VOTES                            Precinct 401                                           01 
01110050007000000          Commissioner of Agriculture                             OVER VOTES                            Precinct 402                                           01 
01110060001000017          Commissioner of Agriculture                             UNDER VOTES                           Precinct 101                                           01 
01110060002000015          Commissioner of Agriculture                             UNDER VOTES                           Precinct 201                                           01 
01110060003000015          Commissioner of Agriculture                             UNDER VOTES                           Precinct 202                                           01 
01110060004000000          Commissioner of Agriculture                             UNDER VOTES                           Precinct 203                                           01 
01110060005000004          Commissioner of Agriculture                             UNDER VOTES                           Precinct 301                                           01 
01110060006000006          Commissioner of Agriculture                             UNDER VOTES                           Precinct 401                                           01 
01110060007000003          Commissioner of Agriculture                             UNDER VOTES                           Precinct 402                                           01 
01120010001000572REP       Railroad Commissioner                                   Ryan Sitton                           Precinct 101                                           01 
01120010002000575REP       Railroad Commissioner                                   Ryan Sitton                           Precinct 201                                           01 
01120010003000608REP       Railroad Commissioner                                   Ryan Sitton                           Precinct 202                                           01 
01120010004000023REP       Railroad Commissioner                                   Ryan Sitton                           Precinct 203                                           01 
01120010005000251REP       Railroad Commissioner                                   Ryan Sitton                           Precinct 301                                           01 
01120010006000268REP       Railroad Commissioner                                   Ryan Sitton                           Precinct 401                                           01 
01120010007000018REP       Railroad Commissioner                                   Ryan Sitton                           Precinct 402                                           01 
01120020001000085DEM       Railroad Commissioner                                   Steve Brown                           Precinct 101                                           01 
01120020002000059DEM       Railroad Commissioner                                   Steve Brown                           Precinct 201                                           01 
01120020003000048DEM       Railroad Commissioner                                   Steve Brown                           Precinct 202                                           01 
01120020004000003DEM       Railroad Commissioner                                   Steve Brown                           Precinct 203                                           01 
01120020005000043DEM       Railroad Commissioner                                   Steve Brown                           Precinct 301                                           01 
01120020006000034DEM       Railroad Commissioner                                   Steve Brown                           Precinct 401                                           01 
01120020007000034DEM       Railroad Commissioner                                   Steve Brown                           Precinct 402                                           01 
01120030001000021LIB       Railroad Commissioner                                   Mark A. Miller                        Precinct 101                                           01 
01120030002000014LIB       Railroad Commissioner                                   Mark A. Miller                        Precinct 201                                           01 
01120030003000021LIB       Railroad Commissioner                                   Mark A. Miller                        Precinct 202                                           01 
01120030004000000LIB       Railroad Commissioner                                   Mark A. Miller                        Precinct 203                                           01 
01120030005000006LIB       Railroad Commissioner                                   Mark A. Miller                        Precinct 301                                           01 
01120030006000016LIB       Railroad Commissioner                                   Mark A. Miller                        Precinct 401                                           01 
01120030007000001LIB       Railroad Commissioner                                   Mark A. Miller                        Precinct 402                                           01 
01120040001000008GRN       Railroad Commissioner                                   Martina Salinas                       Precinct 101                                           01 
01120040002000008GRN       Railroad Commissioner                                   Martina Salinas                       Precinct 201                                           01 
01120040003000007GRN       Railroad Commissioner                                   Martina Salinas                       Precinct 202                                           01 
01120040004000001GRN       Railroad Commissioner                                   Martina Salinas                       Precinct 203                                           01 
01120040005000004GRN       Railroad Commissioner                                   Martina Salinas                       Precinct 301                                           01 
01120040006000001GRN       Railroad Commissioner                                   Martina Salinas                       Precinct 401                                           01 
01120040007000005GRN       Railroad Commissioner                                   Martina Salinas                       Precinct 402                                           01 
01120050001000000          Railroad Commissioner                                   OVER VOTES                            Precinct 101                                           01 
01120050002000000          Railroad Commissioner                                   OVER VOTES                            Precinct 201                                           01 
01120050003000000          Railroad Commissioner                                   OVER VOTES                            Precinct 202                                           01 
01120050004000000          Railroad Commissioner                                   OVER VOTES                            Precinct 203                                           01 
01120050005000000          Railroad Commissioner                                   OVER VOTES                            Precinct 301                                           01 
01120050006000000          Railroad Commissioner                                   OVER VOTES                            Precinct 401                                           01 
01120050007000000          Railroad Commissioner                                   OVER VOTES                            Precinct 402                                           01 
01120060001000018          Railroad Commissioner                                   UNDER VOTES                           Precinct 101                                           01 
01120060002000017          Railroad Commissioner                                   UNDER VOTES                           Precinct 201                                           01 
01120060003000014          Railroad Commissioner                                   UNDER VOTES                           Precinct 202                                           01 
01120060004000000          Railroad Commissioner                                   UNDER VOTES                           Precinct 203                                           01 
01120060005000004          Railroad Commissioner                                   UNDER VOTES                           Precinct 301                                           01 
01120060006000006          Railroad Commissioner                                   UNDER VOTES                           Precinct 401                                           01 
01120060007000004          Railroad Commissioner                                   UNDER VOTES                           Precinct 402                                           01 
01130010001000584REP       Chief Justice, Supreme Court                            Nathan Hecht                          Precinct 101                                           01 
01130010002000594REP       Chief Justice, Supreme Court                            Nathan Hecht                          Precinct 201                                           01 
01130010003000613REP       Chief Justice, Supreme Court                            Nathan Hecht                          Precinct 202                                           01 
01130010004000023REP       Chief Justice, Supreme Court                            Nathan Hecht                          Precinct 203                                           01 
01130010005000250REP       Chief Justice, Supreme Court                            Nathan Hecht                          Precinct 301                                           01 
01130010006000274REP       Chief Justice, Supreme Court                            Nathan Hecht                          Precinct 401                                           01 
01130010007000019REP       Chief Justice, Supreme Court                            Nathan Hecht                          Precinct 402                                           01 
01130020001000080DEM       Chief Justice, Supreme Court                            William Moody                         Precinct 101                                           01 
01130020002000051DEM       Chief Justice, Supreme Court                            William Moody                         Precinct 201                                           01 
01130020003000049DEM       Chief Justice, Supreme Court                            William Moody                         Precinct 202                                           01 
01130020004000004DEM       Chief Justice, Supreme Court                            William Moody                         Precinct 203                                           01 
01130020005000048DEM       Chief Justice, Supreme Court                            William Moody                         Precinct 301                                           01 
01130020006000031DEM       Chief Justice, Supreme Court                            William Moody                         Precinct 401                                           01 
01130020007000038DEM       Chief Justice, Supreme Court                            William Moody                         Precinct 402                                           01 
01130030001000023LIB       Chief Justice, Supreme Court                            Tom Oxford                            Precinct 101                                           01 
01130030002000016LIB       Chief Justice, Supreme Court                            Tom Oxford                            Precinct 201                                           01 
01130030003000021LIB       Chief Justice, Supreme Court                            Tom Oxford                            Precinct 202                                           01 
01130030004000000LIB       Chief Justice, Supreme Court                            Tom Oxford                            Precinct 203                                           01 
01130030005000006LIB       Chief Justice, Supreme Court                            Tom Oxford                            Precinct 301                                           01 
01130030006000014LIB       Chief Justice, Supreme Court                            Tom Oxford                            Precinct 401                                           01 
01130030007000002LIB       Chief Justice, Supreme Court                            Tom Oxford                            Precinct 402                                           01 
01130040001000000          Chief Justice, Supreme Court                            OVER VOTES                            Precinct 101                                           01 
01130040002000000          Chief Justice, Supreme Court                            OVER VOTES                            Precinct 201                                           01 
01130040003000000          Chief Justice, Supreme Court                            OVER VOTES                            Precinct 202                                           01 
01130040004000000          Chief Justice, Supreme Court                            OVER VOTES                            Precinct 203                                           01 
01130040005000000          Chief Justice, Supreme Court                            OVER VOTES                            Precinct 301                                           01 
01130040006000000          Chief Justice, Supreme Court                            OVER VOTES                            Precinct 401                                           01 
01130040007000000          Chief Justice, Supreme Court                            OVER VOTES                            Precinct 402                                           01 
01130050001000017          Chief Justice, Supreme Court                            UNDER VOTES                           Precinct 101                                           01 
01130050002000012          Chief Justice, Supreme Court                            UNDER VOTES                           Precinct 201                                           01 
01130050003000015          Chief Justice, Supreme Court                            UNDER VOTES                           Precinct 202                                           01 
01130050004000000          Chief Justice, Supreme Court                            UNDER VOTES                           Precinct 203                                           01 
01130050005000004          Chief Justice, Supreme Court                            UNDER VOTES                           Precinct 301                                           01 
01130050006000006          Chief Justice, Supreme Court                            UNDER VOTES                           Precinct 401                                           01 
01130050007000003          Chief Justice, Supreme Court                            UNDER VOTES                           Precinct 402                                           01 
01140010001000591REP       Justice, Supreme Court, Place 6                         Jeff Brown                            Precinct 101                                           01 
01140010002000600REP       Justice, Supreme Court, Place 6                         Jeff Brown                            Precinct 201                                           01 
01140010003000612REP       Justice, Supreme Court, Place 6                         Jeff Brown                            Precinct 202                                           01 
01140010004000024REP       Justice, Supreme Court, Place 6                         Jeff Brown                            Precinct 203                                           01 
01140010005000254REP       Justice, Supreme Court, Place 6                         Jeff Brown                            Precinct 301                                           01 
01140010006000274REP       Justice, Supreme Court, Place 6                         Jeff Brown                            Precinct 401                                           01 
01140010007000021REP       Justice, Supreme Court, Place 6                         Jeff Brown                            Precinct 402                                           01 
01140020001000078DEM       Justice, Supreme Court, Place 6                         Lawrence Edward Meyers                Precinct 101                                           01 
01140020002000046DEM       Justice, Supreme Court, Place 6                         Lawrence Edward Meyers                Precinct 201                                           01 
01140020003000044DEM       Justice, Supreme Court, Place 6                         Lawrence Edward Meyers                Precinct 202                                           01 
01140020004000003DEM       Justice, Supreme Court, Place 6                         Lawrence Edward Meyers                Precinct 203                                           01 
01140020005000042DEM       Justice, Supreme Court, Place 6                         Lawrence Edward Meyers                Precinct 301                                           01 
01140020006000030DEM       Justice, Supreme Court, Place 6                         Lawrence Edward Meyers                Precinct 401                                           01 
01140020007000037DEM       Justice, Supreme Court, Place 6                         Lawrence Edward Meyers                Precinct 402                                           01 
01140030001000016LIB       Justice, Supreme Court, Place 6                         Mark Ash                              Precinct 101                                           01 
01140030002000013LIB       Justice, Supreme Court, Place 6                         Mark Ash                              Precinct 201                                           01 
01140030003000023LIB       Justice, Supreme Court, Place 6                         Mark Ash                              Precinct 202                                           01 
01140030004000000LIB       Justice, Supreme Court, Place 6                         Mark Ash                              Precinct 203                                           01 
01140030005000006LIB       Justice, Supreme Court, Place 6                         Mark Ash                              Precinct 301                                           01 
01140030006000015LIB       Justice, Supreme Court, Place 6                         Mark Ash                              Precinct 401                                           01 
01140030007000002LIB       Justice, Supreme Court, Place 6                         Mark Ash                              Precinct 402                                           01 
01140040001000000          Justice, Supreme Court, Place 6                         OVER VOTES                            Precinct 101                                           01 
01140040002000000          Justice, Supreme Court, Place 6                         OVER VOTES                            Precinct 201                                           01 
01140040003000000          Justice, Supreme Court, Place 6                         OVER VOTES                            Precinct 202                                           01 
01140040004000000          Justice, Supreme Court, Place 6                         OVER VOTES                            Precinct 203                                           01 
01140040005000000          Justice, Supreme Court, Place 6                         OVER VOTES                            Precinct 301                                           01 
01140040006000000          Justice, Supreme Court, Place 6                         OVER VOTES                            Precinct 401                                           01 
01140040007000000          Justice, Supreme Court, Place 6                         OVER VOTES                            Precinct 402                                           01 
01140050001000019          Justice, Supreme Court, Place 6                         UNDER VOTES                           Precinct 101                                           01 
01140050002000014          Justice, Supreme Court, Place 6                         UNDER VOTES                           Precinct 201                                           01 
01140050003000019          Justice, Supreme Court, Place 6                         UNDER VOTES                           Precinct 202                                           01 
01140050004000000          Justice, Supreme Court, Place 6                         UNDER VOTES                           Precinct 203                                           01 
01140050005000006          Justice, Supreme Court, Place 6                         UNDER VOTES                           Precinct 301                                           01 
01140050006000006          Justice, Supreme Court, Place 6                         UNDER VOTES                           Precinct 401                                           01 
01140050007000002          Justice, Supreme Court, Place 6                         UNDER VOTES                           Precinct 402                                           01 
01150010001000587REP       Justice, Supreme Court, Place 7                         Jeff Boyd                             Precinct 101                                           01 
01150010002000598REP       Justice, Supreme Court, Place 7                         Jeff Boyd                             Precinct 201                                           01 
01150010003000612REP       Justice, Supreme Court, Place 7                         Jeff Boyd                             Precinct 202                                           01 
01150010004000024REP       Justice, Supreme Court, Place 7                         Jeff Boyd                             Precinct 203                                           01 
01150010005000247REP       Justice, Supreme Court, Place 7                         Jeff Boyd                             Precinct 301                                           01 
01150010006000267REP       Justice, Supreme Court, Place 7                         Jeff Boyd                             Precinct 401                                           01 
01150010007000020REP       Justice, Supreme Court, Place 7                         Jeff Boyd                             Precinct 402                                           01 
01150020001000077DEM       Justice, Supreme Court, Place 7                         Gina Benavides                        Precinct 101                                           01 
01150020002000049DEM       Justice, Supreme Court, Place 7                         Gina Benavides                        Precinct 201                                           01 
01150020003000049DEM       Justice, Supreme Court, Place 7                         Gina Benavides                        Precinct 202                                           01 
01150020004000003DEM       Justice, Supreme Court, Place 7                         Gina Benavides                        Precinct 203                                           01 
01150020005000048DEM       Justice, Supreme Court, Place 7                         Gina Benavides                        Precinct 301                                           01 
01150020006000033DEM       Justice, Supreme Court, Place 7                         Gina Benavides                        Precinct 401                                           01 
01150020007000036DEM       Justice, Supreme Court, Place 7                         Gina Benavides                        Precinct 402                                           01 
01150030001000015LIB       Justice, Supreme Court, Place 7                         Don Fulton                            Precinct 101                                           01 
01150030002000011LIB       Justice, Supreme Court, Place 7                         Don Fulton                            Precinct 201                                           01 
01150030003000017LIB       Justice, Supreme Court, Place 7                         Don Fulton                            Precinct 202                                           01 
01150030004000000LIB       Justice, Supreme Court, Place 7                         Don Fulton                            Precinct 203                                           01 
01150030005000005LIB       Justice, Supreme Court, Place 7                         Don Fulton                            Precinct 301                                           01 
01150030006000017LIB       Justice, Supreme Court, Place 7                         Don Fulton                            Precinct 401                                           01 
01150030007000002LIB       Justice, Supreme Court, Place 7                         Don Fulton                            Precinct 402                                           01 
01150040001000004GRN       Justice, Supreme Court, Place 7                         Charles E. Waterbury                  Precinct 101                                           01 
01150040002000002GRN       Justice, Supreme Court, Place 7                         Charles E. Waterbury                  Precinct 201                                           01 
01150040003000003GRN       Justice, Supreme Court, Place 7                         Charles E. Waterbury                  Precinct 202                                           01 
01150040004000000GRN       Justice, Supreme Court, Place 7                         Charles E. Waterbury                  Precinct 203                                           01 
01150040005000004GRN       Justice, Supreme Court, Place 7                         Charles E. Waterbury                  Precinct 301                                           01 
01150040006000002GRN       Justice, Supreme Court, Place 7                         Charles E. Waterbury                  Precinct 401                                           01 
01150040007000001GRN       Justice, Supreme Court, Place 7                         Charles E. Waterbury                  Precinct 402                                           01 
01150050001000000          Justice, Supreme Court, Place 7                         OVER VOTES                            Precinct 101                                           01 
01150050002000000          Justice, Supreme Court, Place 7                         OVER VOTES                            Precinct 201                                           01 
01150050003000000          Justice, Supreme Court, Place 7                         OVER VOTES                            Precinct 202                                           01 
01150050004000000          Justice, Supreme Court, Place 7                         OVER VOTES                            Precinct 203                                           01 
01150050005000000          Justice, Supreme Court, Place 7                         OVER VOTES                            Precinct 301                                           01 
01150050006000000          Justice, Supreme Court, Place 7                         OVER VOTES                            Precinct 401                                           01 
01150050007000000          Justice, Supreme Court, Place 7                         OVER VOTES                            Precinct 402                                           01 
01150060001000021          Justice, Supreme Court, Place 7                         UNDER VOTES                           Precinct 101                                           01 
01150060002000013          Justice, Supreme Court, Place 7                         UNDER VOTES                           Precinct 201                                           01 
01150060003000017          Justice, Supreme Court, Place 7                         UNDER VOTES                           Precinct 202                                           01 
01150060004000000          Justice, Supreme Court, Place 7                         UNDER VOTES                           Precinct 203                                           01 
01150060005000004          Justice, Supreme Court, Place 7                         UNDER VOTES                           Precinct 301                                           01 
01150060006000006          Justice, Supreme Court, Place 7                         UNDER VOTES                           Precinct 401                                           01 
01150060007000003          Justice, Supreme Court, Place 7                         UNDER VOTES                           Precinct 402                                           01 
01160010001000596REP       Justice, Supreme Court, Place 8                         Phil Johnson                          Precinct 101                                           01 
01160010002000608REP       Justice, Supreme Court, Place 8                         Phil Johnson                          Precinct 201                                           01 
01160010003000625REP       Justice, Supreme Court, Place 8                         Phil Johnson                          Precinct 202                                           01 
01160010004000023REP       Justice, Supreme Court, Place 8                         Phil Johnson                          Precinct 203                                           01 
01160010005000253REP       Justice, Supreme Court, Place 8                         Phil Johnson                          Precinct 301                                           01 
01160010006000279REP       Justice, Supreme Court, Place 8                         Phil Johnson                          Precinct 401                                           01 
01160010007000027REP       Justice, Supreme Court, Place 8                         Phil Johnson                          Precinct 402                                           01 
01160020001000029LIB       Justice, Supreme Court, Place 8                         RS Roberto Koelsch                    Precinct 101                                           01 
01160020002000018LIB       Justice, Supreme Court, Place 8                         RS Roberto Koelsch                    Precinct 201                                           01 
01160020003000026LIB       Justice, Supreme Court, Place 8                         RS Roberto Koelsch                    Precinct 202                                           01 
01160020004000001LIB       Justice, Supreme Court, Place 8                         RS Roberto Koelsch                    Precinct 203                                           01 
01160020005000016LIB       Justice, Supreme Court, Place 8                         RS Roberto Koelsch                    Precinct 301                                           01 
01160020006000013LIB       Justice, Supreme Court, Place 8                         RS Roberto Koelsch                    Precinct 401                                           01 
01160020007000003LIB       Justice, Supreme Court, Place 8                         RS Roberto Koelsch                    Precinct 402                                           01 
01160030001000025GRN       Justice, Supreme Court, Place 8                         Jim Chisolm                           Precinct 101                                           01 
01160030002000015GRN       Justice, Supreme Court, Place 8                         Jim Chisolm                           Precinct 201                                           01 
01160030003000009GRN       Justice, Supreme Court, Place 8                         Jim Chisolm                           Precinct 202                                           01 
01160030004000001GRN       Justice, Supreme Court, Place 8                         Jim Chisolm                           Precinct 203                                           01 
01160030005000016GRN       Justice, Supreme Court, Place 8                         Jim Chisolm                           Precinct 301                                           01 
01160030006000013GRN       Justice, Supreme Court, Place 8                         Jim Chisolm                           Precinct 401                                           01 
01160030007000003GRN       Justice, Supreme Court, Place 8                         Jim Chisolm                           Precinct 402                                           01 
01160040001000000          Justice, Supreme Court, Place 8                         OVER VOTES                            Precinct 101                                           01 
01160040002000000          Justice, Supreme Court, Place 8                         OVER VOTES                            Precinct 201                                           01 
01160040003000000          Justice, Supreme Court, Place 8                         OVER VOTES                            Precinct 202                                           01 
01160040004000000          Justice, Supreme Court, Place 8                         OVER VOTES                            Precinct 203                                           01 
01160040005000000          Justice, Supreme Court, Place 8                         OVER VOTES                            Precinct 301                                           01 
01160040006000000          Justice, Supreme Court, Place 8                         OVER VOTES                            Precinct 401                                           01 
01160040007000000          Justice, Supreme Court, Place 8                         OVER VOTES                            Precinct 402                                           01 
01160050001000054          Justice, Supreme Court, Place 8                         UNDER VOTES                           Precinct 101                                           01 
01160050002000032          Justice, Supreme Court, Place 8                         UNDER VOTES                           Precinct 201                                           01 
01160050003000038          Justice, Supreme Court, Place 8                         UNDER VOTES                           Precinct 202                                           01 
01160050004000002          Justice, Supreme Court, Place 8                         UNDER VOTES                           Precinct 203                                           01 
01160050005000023          Justice, Supreme Court, Place 8                         UNDER VOTES                           Precinct 301                                           01 
01160050006000020          Justice, Supreme Court, Place 8                         UNDER VOTES                           Precinct 401                                           01 
01160050007000029          Justice, Supreme Court, Place 8                         UNDER VOTES                           Precinct 402                                           01 
01170010001000584REP       Judge, Court of Criminal Appeals, Pl 3                  Bert Richardson                       Precinct 101                                           01 
01170010002000588REP       Judge, Court of Criminal Appeals, Pl 3                  Bert Richardson                       Precinct 201                                           01 
01170010003000610REP       Judge, Court of Criminal Appeals, Pl 3                  Bert Richardson                       Precinct 202                                           01 
01170010004000023REP       Judge, Court of Criminal Appeals, Pl 3                  Bert Richardson                       Precinct 203                                           01 
01170010005000248REP       Judge, Court of Criminal Appeals, Pl 3                  Bert Richardson                       Precinct 301                                           01 
01170010006000268REP       Judge, Court of Criminal Appeals, Pl 3                  Bert Richardson                       Precinct 401                                           01 
01170010007000020REP       Judge, Court of Criminal Appeals, Pl 3                  Bert Richardson                       Precinct 402                                           01 
01170020001000079DEM       Judge, Court of Criminal Appeals, Pl 3                  John Granberg                         Precinct 101                                           01 
01170020002000049DEM       Judge, Court of Criminal Appeals, Pl 3                  John Granberg                         Precinct 201                                           01 
01170020003000046DEM       Judge, Court of Criminal Appeals, Pl 3                  John Granberg                         Precinct 202                                           01 
01170020004000003DEM       Judge, Court of Criminal Appeals, Pl 3                  John Granberg                         Precinct 203                                           01 
01170020005000045DEM       Judge, Court of Criminal Appeals, Pl 3                  John Granberg                         Precinct 301                                           01 
01170020006000033DEM       Judge, Court of Criminal Appeals, Pl 3                  John Granberg                         Precinct 401                                           01 
