01010010001002450          REGISTERED VOTERS - TOTAL                               REGISTERED VOTERS - TOTAL             Precinct 101                                           00 
01010010002001648          REGISTERED VOTERS - TOTAL                               REGISTERED VOTERS - TOTAL             Precinct 201                                           00 
01010010003001555          REGISTERED VOTERS - TOTAL                               REGISTERED VOTERS - TOTAL             Precinct 202                                           00 
01010010004000058          REGISTERED VOTERS - TOTAL                               REGISTERED VOTERS - TOTAL             Precinct 203                                           00 
01010010005001770          REGISTERED VOTERS - TOTAL                               REGISTERED VOTERS - TOTAL             Precinct 301                                           00 
01010010006001056          REGISTERED VOTERS - TOTAL                               REGISTERED VOTERS - TOTAL             Precinct 401                                           00 
01010010007000580          REGISTERED VOTERS - TOTAL                               REGISTERED VOTERS - TOTAL             Precinct 402                                           00 
01020010001000341          BALLOTS CAST - TOTAL                                    BALLOTS CAST - TOTAL                  Precinct 101                                           00 
01020010002000343          BALLOTS CAST - TOTAL                                    BALLOTS CAST - TOTAL                  Precinct 201                                           00 
01020010003000383          BALLOTS CAST - TOTAL                                    BALLOTS CAST - TOTAL                  Precinct 202                                           00 
01020010004000015          BALLOTS CAST - TOTAL                                    BALLOTS CAST - TOTAL                  Precinct 203                                           00 
01020010005000131          BALLOTS CAST - TOTAL                                    BALLOTS CAST - TOTAL                  Precinct 301                                           00 
01020010006000160          BALLOTS CAST - TOTAL                                    BALLOTS CAST - TOTAL                  Precinct 401                                           00 
01020010007000009          BALLOTS CAST - TOTAL                                    BALLOTS CAST - TOTAL                  Precinct 402                                           00 
01030010001000011REP       United States Senator MOORE COUNTYWIDE                  Reid Reasor                           Precinct 101                                           01 
01030010002000008REP       United States Senator MOORE COUNTYWIDE                  Reid Reasor                           Precinct 201                                           01 
01030010003000014REP       United States Senator MOORE COUNTYWIDE                  Reid Reasor                           Precinct 202                                           01 
01030010004000000REP       United States Senator MOORE COUNTYWIDE                  Reid Reasor                           Precinct 203                                           01 
01030010005000007REP       United States Senator MOORE COUNTYWIDE                  Reid Reasor                           Precinct 301                                           01 
01030010006000005REP       United States Senator MOORE COUNTYWIDE                  Reid Reasor                           Precinct 401                                           01 
01030010007000000REP       United States Senator MOORE COUNTYWIDE                  Reid Reasor                           Precinct 402                                           01 
01030020001000032REP       United States Senator MOORE COUNTYWIDE                  Dwayne Stovall                        Precinct 101                                           01 
01030020002000025REP       United States Senator MOORE COUNTYWIDE                  Dwayne Stovall                        Precinct 201                                           01 
01030020003000024REP       United States Senator MOORE COUNTYWIDE                  Dwayne Stovall                        Precinct 202                                           01 
01030020004000000REP       United States Senator MOORE COUNTYWIDE                  Dwayne Stovall                        Precinct 203                                           01 
01030020005000011REP       United States Senator MOORE COUNTYWIDE                  Dwayne Stovall                        Precinct 301                                           01 
01030020006000013REP       United States Senator MOORE COUNTYWIDE                  Dwayne Stovall                        Precinct 401                                           01 
01030020007000001REP       United States Senator MOORE COUNTYWIDE                  Dwayne Stovall                        Precinct 402                                           01 
01030030001000000REP       United States Senator MOORE COUNTYWIDE                  Curt Cleaver                          Precinct 101                                           01 
01030030002000002REP       United States Senator MOORE COUNTYWIDE                  Curt Cleaver                          Precinct 201                                           01 
01030030003000006REP       United States Senator MOORE COUNTYWIDE                  Curt Cleaver                          Precinct 202                                           01 
01030030004000000REP       United States Senator MOORE COUNTYWIDE                  Curt Cleaver                          Precinct 203                                           01 
01030030005000000REP       United States Senator MOORE COUNTYWIDE                  Curt Cleaver                          Precinct 301                                           01 
01030030006000003REP       United States Senator MOORE COUNTYWIDE                  Curt Cleaver                          Precinct 401                                           01 
01030030007000000REP       United States Senator MOORE COUNTYWIDE                  Curt Cleaver                          Precinct 402                                           01 
01030040001000041REP       United States Senator MOORE COUNTYWIDE                  Steve Stockman                        Precinct 101                                           01 
01030040002000058REP       United States Senator MOORE COUNTYWIDE                  Steve Stockman                        Precinct 201                                           01 
01030040003000043REP       United States Senator MOORE COUNTYWIDE                  Steve Stockman                        Precinct 202                                           01 
01030040004000001REP       United States Senator MOORE COUNTYWIDE                  Steve Stockman                        Precinct 203                                           01 
01030040005000010REP       United States Senator MOORE COUNTYWIDE                  Steve Stockman                        Precinct 301                                           01 
01030040006000013REP       United States Senator MOORE COUNTYWIDE                  Steve Stockman                        Precinct 401                                           01 
01030040007000002REP       United States Senator MOORE COUNTYWIDE                  Steve Stockman                        Precinct 402                                           01 
01030050001000011REP       United States Senator MOORE COUNTYWIDE                  Linda Vega                            Precinct 101                                           01 
01030050002000015REP       United States Senator MOORE COUNTYWIDE                  Linda Vega                            Precinct 201                                           01 
01030050003000013REP       United States Senator MOORE COUNTYWIDE                  Linda Vega                            Precinct 202                                           01 
01030050004000000REP       United States Senator MOORE COUNTYWIDE                  Linda Vega                            Precinct 203                                           01 
01030050005000006REP       United States Senator MOORE COUNTYWIDE                  Linda Vega                            Precinct 301                                           01 
01030050006000004REP       United States Senator MOORE COUNTYWIDE                  Linda Vega                            Precinct 401                                           01 
01030050007000000REP       United States Senator MOORE COUNTYWIDE                  Linda Vega                            Precinct 402                                           01 
01030060001000210REP       United States Senator MOORE COUNTYWIDE                  John Cornyn                           Precinct 101                                           01 
01030060002000200REP       United States Senator MOORE COUNTYWIDE                  John Cornyn                           Precinct 201                                           01 
01030060003000258REP       United States Senator MOORE COUNTYWIDE                  John Cornyn                           Precinct 202                                           01 
01030060004000014REP       United States Senator MOORE COUNTYWIDE                  John Cornyn                           Precinct 203                                           01 
01030060005000084REP       United States Senator MOORE COUNTYWIDE                  John Cornyn                           Precinct 301                                           01 
01030060006000105REP       United States Senator MOORE COUNTYWIDE                  John Cornyn                           Precinct 401                                           01 
01030060007000003REP       United States Senator MOORE COUNTYWIDE                  John Cornyn                           Precinct 402                                           01 
01030070001000004REP       United States Senator MOORE COUNTYWIDE                  Chris Mapp                            Precinct 101                                           01 
01030070002000004REP       United States Senator MOORE COUNTYWIDE                  Chris Mapp                            Precinct 201                                           01 
01030070003000001REP       United States Senator MOORE COUNTYWIDE                  Chris Mapp                            Precinct 202                                           01 
01030070004000000REP       United States Senator MOORE COUNTYWIDE                  Chris Mapp                            Precinct 203                                           01 
01030070005000004REP       United States Senator MOORE COUNTYWIDE                  Chris Mapp                            Precinct 301                                           01 
01030070006000002REP       United States Senator MOORE COUNTYWIDE                  Chris Mapp                            Precinct 401                                           01 
01030070007000002REP       United States Senator MOORE COUNTYWIDE                  Chris Mapp                            Precinct 402                                           01 
01030080001000015REP       United States Senator MOORE COUNTYWIDE                  Ken Cope                              Precinct 101                                           01 
01030080002000016REP       United States Senator MOORE COUNTYWIDE                  Ken Cope                              Precinct 201                                           01 
01030080003000009REP       United States Senator MOORE COUNTYWIDE                  Ken Cope                              Precinct 202                                           01 
01030080004000000REP       United States Senator MOORE COUNTYWIDE                  Ken Cope                              Precinct 203                                           01 
01030080005000003REP       United States Senator MOORE COUNTYWIDE                  Ken Cope                              Precinct 301                                           01 
01030080006000007REP       United States Senator MOORE COUNTYWIDE                  Ken Cope                              Precinct 401                                           01 
01030080007000001REP       United States Senator MOORE COUNTYWIDE                  Ken Cope                              Precinct 402                                           01 
01030090001000000          United States Senator MOORE COUNTYWIDE                  OVER VOTES                            Precinct 101                                           01 
01030090002000000          United States Senator MOORE COUNTYWIDE                  OVER VOTES                            Precinct 201                                           01 
01030090003000000          United States Senator MOORE COUNTYWIDE                  OVER VOTES                            Precinct 202                                           01 
01030090004000000          United States Senator MOORE COUNTYWIDE                  OVER VOTES                            Precinct 203                                           01 
01030090005000000          United States Senator MOORE COUNTYWIDE                  OVER VOTES                            Precinct 301                                           01 
01030090006000000          United States Senator MOORE COUNTYWIDE                  OVER VOTES                            Precinct 401                                           01 
01030090007000000          United States Senator MOORE COUNTYWIDE                  OVER VOTES                            Precinct 402                                           01 
01030100001000017          United States Senator MOORE COUNTYWIDE                  UNDER VOTES                           Precinct 101                                           01 
01030100002000015          United States Senator MOORE COUNTYWIDE                  UNDER VOTES                           Precinct 201                                           01 
01030100003000015          United States Senator MOORE COUNTYWIDE                  UNDER VOTES                           Precinct 202                                           01 
01030100004000000          United States Senator MOORE COUNTYWIDE                  UNDER VOTES                           Precinct 203                                           01 
01030100005000006          United States Senator MOORE COUNTYWIDE                  UNDER VOTES                           Precinct 301                                           01 
01030100006000008          United States Senator MOORE COUNTYWIDE                  UNDER VOTES                           Precinct 401                                           01 
01030100007000000          United States Senator MOORE COUNTYWIDE                  UNDER VOTES                           Precinct 402                                           01 
01040010001000264REP       United States Rep, District 13 MOORE COUNTYWIDE         Mac Thornberry                        Precinct 101                                           01 
01040010002000261REP       United States Rep, District 13 MOORE COUNTYWIDE         Mac Thornberry                        Precinct 201                                           01 
01040010003000309REP       United States Rep, District 13 MOORE COUNTYWIDE         Mac Thornberry                        Precinct 202                                           01 
01040010004000014REP       United States Rep, District 13 MOORE COUNTYWIDE         Mac Thornberry                        Precinct 203                                           01 
01040010005000096REP       United States Rep, District 13 MOORE COUNTYWIDE         Mac Thornberry                        Precinct 301                                           01 
01040010006000110REP       United States Rep, District 13 MOORE COUNTYWIDE         Mac Thornberry                        Precinct 401                                           01 
01040010007000005REP       United States Rep, District 13 MOORE COUNTYWIDE         Mac Thornberry                        Precinct 402                                           01 
01040020001000043REP       United States Rep, District 13 MOORE COUNTYWIDE         Elaine Hays                           Precinct 101                                           01 
01040020002000047REP       United States Rep, District 13 MOORE COUNTYWIDE         Elaine Hays                           Precinct 201                                           01 
01040020003000048REP       United States Rep, District 13 MOORE COUNTYWIDE         Elaine Hays                           Precinct 202                                           01 
01040020004000001REP       United States Rep, District 13 MOORE COUNTYWIDE         Elaine Hays                           Precinct 203                                           01 
01040020005000015REP       United States Rep, District 13 MOORE COUNTYWIDE         Elaine Hays                           Precinct 301                                           01 
01040020006000028REP       United States Rep, District 13 MOORE COUNTYWIDE         Elaine Hays                           Precinct 401                                           01 
01040020007000001REP       United States Rep, District 13 MOORE COUNTYWIDE         Elaine Hays                           Precinct 402                                           01 
01040030001000022REP       United States Rep, District 13 MOORE COUNTYWIDE         Pam Barlow                            Precinct 101                                           01 
01040030002000027REP       United States Rep, District 13 MOORE COUNTYWIDE         Pam Barlow                            Precinct 201                                           01 
01040030003000021REP       United States Rep, District 13 MOORE COUNTYWIDE         Pam Barlow                            Precinct 202                                           01 
01040030004000000REP       United States Rep, District 13 MOORE COUNTYWIDE         Pam Barlow                            Precinct 203                                           01 
01040030005000018REP       United States Rep, District 13 MOORE COUNTYWIDE         Pam Barlow                            Precinct 301                                           01 
01040030006000022REP       United States Rep, District 13 MOORE COUNTYWIDE         Pam Barlow                            Precinct 401                                           01 
01040030007000003REP       United States Rep, District 13 MOORE COUNTYWIDE         Pam Barlow                            Precinct 402                                           01 
01040040001000000          United States Rep, District 13 MOORE COUNTYWIDE         OVER VOTES                            Precinct 101                                           01 
01040040002000000          United States Rep, District 13 MOORE COUNTYWIDE         OVER VOTES                            Precinct 201                                           01 
01040040003000000          United States Rep, District 13 MOORE COUNTYWIDE         OVER VOTES                            Precinct 202                                           01 
01040040004000000          United States Rep, District 13 MOORE COUNTYWIDE         OVER VOTES                            Precinct 203                                           01 
01040040005000000          United States Rep, District 13 MOORE COUNTYWIDE         OVER VOTES                            Precinct 301                                           01 
01040040006000000          United States Rep, District 13 MOORE COUNTYWIDE         OVER VOTES                            Precinct 401                                           01 
01040040007000000          United States Rep, District 13 MOORE COUNTYWIDE         OVER VOTES                            Precinct 402                                           01 
01040050001000012          United States Rep, District 13 MOORE COUNTYWIDE         UNDER VOTES                           Precinct 101                                           01 
01040050002000008          United States Rep, District 13 MOORE COUNTYWIDE         UNDER VOTES                           Precinct 201                                           01 
01040050003000005          United States Rep, District 13 MOORE COUNTYWIDE         UNDER VOTES                           Precinct 202                                           01 
01040050004000000          United States Rep, District 13 MOORE COUNTYWIDE         UNDER VOTES                           Precinct 203                                           01 
01040050005000002          United States Rep, District 13 MOORE COUNTYWIDE         UNDER VOTES                           Precinct 301                                           01 
01040050006000000          United States Rep, District 13 MOORE COUNTYWIDE         UNDER VOTES                           Precinct 401                                           01 
01040050007000000          United States Rep, District 13 MOORE COUNTYWIDE         UNDER VOTES                           Precinct 402                                           01 
01050010001000014REP       Governor MOORE COUNTYWIDE                               Miriam Martinez                       Precinct 101                                           01 
01050010002000011REP       Governor MOORE COUNTYWIDE                               Miriam Martinez                       Precinct 201                                           01 
01050010003000011REP       Governor MOORE COUNTYWIDE                               Miriam Martinez                       Precinct 202                                           01 
01050010004000000REP       Governor MOORE COUNTYWIDE                               Miriam Martinez                       Precinct 203                                           01 
01050010005000006REP       Governor MOORE COUNTYWIDE                               Miriam Martinez                       Precinct 301                                           01 
01050010006000004REP       Governor MOORE COUNTYWIDE                               Miriam Martinez                       Precinct 401                                           01 
01050010007000001REP       Governor MOORE COUNTYWIDE                               Miriam Martinez                       Precinct 402                                           01 
01050020001000010REP       Governor MOORE COUNTYWIDE                               SECEDE Kilgore                        Precinct 101                                           01 
01050020002000008REP       Governor MOORE COUNTYWIDE                               SECEDE Kilgore                        Precinct 201                                           01 
01050020003000012REP       Governor MOORE COUNTYWIDE                               SECEDE Kilgore                        Precinct 202                                           01 
01050020004000000REP       Governor MOORE COUNTYWIDE                               SECEDE Kilgore                        Precinct 203                                           01 
01050020005000008REP       Governor MOORE COUNTYWIDE                               SECEDE Kilgore                        Precinct 301                                           01 
01050020006000006REP       Governor MOORE COUNTYWIDE                               SECEDE Kilgore                        Precinct 401                                           01 
01050020007000000REP       Governor MOORE COUNTYWIDE                               SECEDE Kilgore                        Precinct 402                                           01 
01050030001000015REP       Governor MOORE COUNTYWIDE                               Lisa Fritsch                          Precinct 101                                           01 
01050030002000020REP       Governor MOORE COUNTYWIDE                               Lisa Fritsch                          Precinct 201                                           01 
01050030003000016REP       Governor MOORE COUNTYWIDE                               Lisa Fritsch                          Precinct 202                                           01 
01050030004000000REP       Governor MOORE COUNTYWIDE                               Lisa Fritsch                          Precinct 203                                           01 
01050030005000007REP       Governor MOORE COUNTYWIDE                               Lisa Fritsch                          Precinct 301                                           01 
01050030006000009REP       Governor MOORE COUNTYWIDE                               Lisa Fritsch                          Precinct 401                                           01 
01050030007000000REP       Governor MOORE COUNTYWIDE                               Lisa Fritsch                          Precinct 402                                           01 
01050040001000290REP       Governor MOORE COUNTYWIDE                               Greg Abbott                           Precinct 101                                           01 
01050040002000295REP       Governor MOORE COUNTYWIDE                               Greg Abbott                           Precinct 201                                           01 
01050040003000335REP       Governor MOORE COUNTYWIDE                               Greg Abbott                           Precinct 202                                           01 
01050040004000014REP       Governor MOORE COUNTYWIDE                               Greg Abbott                           Precinct 203                                           01 
01050040005000104REP       Governor MOORE COUNTYWIDE                               Greg Abbott                           Precinct 301                                           01 
01050040006000135REP       Governor MOORE COUNTYWIDE                               Greg Abbott                           Precinct 401                                           01 
01050040007000008REP       Governor MOORE COUNTYWIDE                               Greg Abbott                           Precinct 402                                           01 
01050050001000000          Governor MOORE COUNTYWIDE                               OVER VOTES                            Precinct 101                                           01 
01050050002000000          Governor MOORE COUNTYWIDE                               OVER VOTES                            Precinct 201                                           01 
01050050003000000          Governor MOORE COUNTYWIDE                               OVER VOTES                            Precinct 202                                           01 
01050050004000000          Governor MOORE COUNTYWIDE                               OVER VOTES                            Precinct 203                                           01 
01050050005000000          Governor MOORE COUNTYWIDE                               OVER VOTES                            Precinct 301                                           01 
01050050006000000          Governor MOORE COUNTYWIDE                               OVER VOTES                            Precinct 401                                           01 
01050050007000000          Governor MOORE COUNTYWIDE                               OVER VOTES                            Precinct 402                                           01 
01050060001000012          Governor MOORE COUNTYWIDE                               UNDER VOTES                           Precinct 101                                           01 
01050060002000009          Governor MOORE COUNTYWIDE                               UNDER VOTES                           Precinct 201                                           01 
01050060003000009          Governor MOORE COUNTYWIDE                               UNDER VOTES                           Precinct 202                                           01 
01050060004000001          Governor MOORE COUNTYWIDE                               UNDER VOTES                           Precinct 203                                           01 
01050060005000006          Governor MOORE COUNTYWIDE                               UNDER VOTES                           Precinct 301                                           01 
01050060006000006          Governor MOORE COUNTYWIDE                               UNDER VOTES                           Precinct 401                                           01 
01050060007000000          Governor MOORE COUNTYWIDE                               UNDER VOTES                           Precinct 402                                           01 
01060010001000096REP       Lieutenant Governor MOORE COUNTYWIDE                    Dan Patrick                           Precinct 101                                           01 
01060010002000098REP       Lieutenant Governor MOORE COUNTYWIDE                    Dan Patrick                           Precinct 201                                           01 
01060010003000120REP       Lieutenant Governor MOORE COUNTYWIDE                    Dan Patrick                           Precinct 202                                           01 
01060010004000005REP       Lieutenant Governor MOORE COUNTYWIDE                    Dan Patrick                           Precinct 203                                           01 
01060010005000042REP       Lieutenant Governor MOORE COUNTYWIDE                    Dan Patrick                           Precinct 301                                           01 
01060010006000037REP       Lieutenant Governor MOORE COUNTYWIDE                    Dan Patrick                           Precinct 401                                           01 
01060010007000001REP       Lieutenant Governor MOORE COUNTYWIDE                    Dan Patrick                           Precinct 402                                           01 
01060020001000020REP       Lieutenant Governor MOORE COUNTYWIDE                    Jerry Patterson                       Precinct 101                                           01 
01060020002000044REP       Lieutenant Governor MOORE COUNTYWIDE                    Jerry Patterson                       Precinct 201                                           01 
01060020003000028REP       Lieutenant Governor MOORE COUNTYWIDE                    Jerry Patterson                       Precinct 202                                           01 
01060020004000004REP       Lieutenant Governor MOORE COUNTYWIDE                    Jerry Patterson                       Precinct 203                                           01 
01060020005000008REP       Lieutenant Governor MOORE COUNTYWIDE                    Jerry Patterson                       Precinct 301                                           01 
01060020006000011REP       Lieutenant Governor MOORE COUNTYWIDE                    Jerry Patterson                       Precinct 401                                           01 
01060020007000002REP       Lieutenant Governor MOORE COUNTYWIDE                    Jerry Patterson                       Precinct 402                                           01 
01060030001000139REP       Lieutenant Governor MOORE COUNTYWIDE                    David Dewhurst                        Precinct 101                                           01 
01060030002000129REP       Lieutenant Governor MOORE COUNTYWIDE                    David Dewhurst                        Precinct 201                                           01 
01060030003000139REP       Lieutenant Governor MOORE COUNTYWIDE                    David Dewhurst                        Precinct 202                                           01 
01060030004000005REP       Lieutenant Governor MOORE COUNTYWIDE                    David Dewhurst                        Precinct 203                                           01 
01060030005000052REP       Lieutenant Governor MOORE COUNTYWIDE                    David Dewhurst                        Precinct 301                                           01 
01060030006000063REP       Lieutenant Governor MOORE COUNTYWIDE                    David Dewhurst                        Precinct 401                                           01 
01060030007000001REP       Lieutenant Governor MOORE COUNTYWIDE                    David Dewhurst                        Precinct 402                                           01 
01060040001000072REP       Lieutenant Governor MOORE COUNTYWIDE                    Todd Staples                          Precinct 101                                           01 
01060040002000062REP       Lieutenant Governor MOORE COUNTYWIDE                    Todd Staples                          Precinct 201                                           01 
01060040003000089REP       Lieutenant Governor MOORE COUNTYWIDE                    Todd Staples                          Precinct 202                                           01 
01060040004000001REP       Lieutenant Governor MOORE COUNTYWIDE                    Todd Staples                          Precinct 203                                           01 
01060040005000024REP       Lieutenant Governor MOORE COUNTYWIDE                    Todd Staples                          Precinct 301                                           01 
01060040006000043REP       Lieutenant Governor MOORE COUNTYWIDE                    Todd Staples                          Precinct 401                                           01 
01060040007000005REP       Lieutenant Governor MOORE COUNTYWIDE                    Todd Staples                          Precinct 402                                           01 
01060050001000000          Lieutenant Governor MOORE COUNTYWIDE                    OVER VOTES                            Precinct 101                                           01 
01060050002000000          Lieutenant Governor MOORE COUNTYWIDE                    OVER VOTES                            Precinct 201                                           01 
01060050003000000          Lieutenant Governor MOORE COUNTYWIDE                    OVER VOTES                            Precinct 202                                           01 
01060050004000000          Lieutenant Governor MOORE COUNTYWIDE                    OVER VOTES                            Precinct 203                                           01 
01060050005000000          Lieutenant Governor MOORE COUNTYWIDE                    OVER VOTES                            Precinct 301                                           01 
01060050006000000          Lieutenant Governor MOORE COUNTYWIDE                    OVER VOTES                            Precinct 401                                           01 
01060050007000000          Lieutenant Governor MOORE COUNTYWIDE                    OVER VOTES                            Precinct 402                                           01 
01060060001000014          Lieutenant Governor MOORE COUNTYWIDE                    UNDER VOTES                           Precinct 101                                           01 
01060060002000010          Lieutenant Governor MOORE COUNTYWIDE                    UNDER VOTES                           Precinct 201                                           01 
01060060003000007          Lieutenant Governor MOORE COUNTYWIDE                    UNDER VOTES                           Precinct 202                                           01 
01060060004000000          Lieutenant Governor MOORE COUNTYWIDE                    UNDER VOTES                           Precinct 203                                           01 
01060060005000005          Lieutenant Governor MOORE COUNTYWIDE                    UNDER VOTES                           Precinct 301                                           01 
01060060006000006          Lieutenant Governor MOORE COUNTYWIDE                    UNDER VOTES                           Precinct 401                                           01 
01060060007000000          Lieutenant Governor MOORE COUNTYWIDE                    UNDER VOTES                           Precinct 402                                           01 
01070010001000109REP       Attorney General MOORE COUNTYWIDE                       Ken Paxton                            Precinct 101                                           01 
01070010002000122REP       Attorney General MOORE COUNTYWIDE                       Ken Paxton                            Precinct 201                                           01 
01070010003000141REP       Attorney General MOORE COUNTYWIDE                       Ken Paxton                            Precinct 202                                           01 
01070010004000002REP       Attorney General MOORE COUNTYWIDE                       Ken Paxton                            Precinct 203                                           01 
01070010005000034REP       Attorney General MOORE COUNTYWIDE                       Ken Paxton                            Precinct 301                                           01 
01070010006000057REP       Attorney General MOORE COUNTYWIDE                       Ken Paxton                            Precinct 401                                           01 
01070010007000004REP       Attorney General MOORE COUNTYWIDE                       Ken Paxton                            Precinct 402                                           01 
01070020001000091REP       Attorney General MOORE COUNTYWIDE                       Barry Smitherman                      Precinct 101                                           01 
01070020002000080REP       Attorney General MOORE COUNTYWIDE                       Barry Smitherman                      Precinct 201                                           01 
01070020003000091REP       Attorney General MOORE COUNTYWIDE                       Barry Smitherman                      Precinct 202                                           01 
01070020004000002REP       Attorney General MOORE COUNTYWIDE                       Barry Smitherman                      Precinct 203                                           01 
01070020005000044REP       Attorney General MOORE COUNTYWIDE                       Barry Smitherman                      Precinct 301                                           01 
01070020006000032REP       Attorney General MOORE COUNTYWIDE                       Barry Smitherman                      Precinct 401                                           01 
01070020007000000REP       Attorney General MOORE COUNTYWIDE                       Barry Smitherman                      Precinct 402                                           01 
01070030001000112REP       Attorney General MOORE COUNTYWIDE                       Dan Branch                            Precinct 101                                           01 
01070030002000118REP       Attorney General MOORE COUNTYWIDE                       Dan Branch                            Precinct 201                                           01 
01070030003000129REP       Attorney General MOORE COUNTYWIDE                       Dan Branch                            Precinct 202                                           01 
01070030004000009REP       Attorney General MOORE COUNTYWIDE                       Dan Branch                            Precinct 203                                           01 
01070030005000044REP       Attorney General MOORE COUNTYWIDE                       Dan Branch                            Precinct 301                                           01 
01070030006000057REP       Attorney General MOORE COUNTYWIDE                       Dan Branch                            Precinct 401                                           01 
01070030007000005REP       Attorney General MOORE COUNTYWIDE                       Dan Branch                            Precinct 402                                           01 
01070040001000000          Attorney General MOORE COUNTYWIDE                       OVER VOTES                            Precinct 101                                           01 
01070040002000000          Attorney General MOORE COUNTYWIDE                       OVER VOTES                            Precinct 201                                           01 
01070040003000000          Attorney General MOORE COUNTYWIDE                       OVER VOTES                            Precinct 202                                           01 
01070040004000000          Attorney General MOORE COUNTYWIDE                       OVER VOTES                            Precinct 203                                           01 
01070040005000000          Attorney General MOORE COUNTYWIDE                       OVER VOTES                            Precinct 301                                           01 
01070040006000000          Attorney General MOORE COUNTYWIDE                       OVER VOTES                            Precinct 401                                           01 
01070040007000000          Attorney General MOORE COUNTYWIDE                       OVER VOTES                            Precinct 402                                           01 
01070050001000029          Attorney General MOORE COUNTYWIDE                       UNDER VOTES                           Precinct 101                                           01 
01070050002000023          Attorney General MOORE COUNTYWIDE                       UNDER VOTES                           Precinct 201                                           01 
01070050003000022          Attorney General MOORE COUNTYWIDE                       UNDER VOTES                           Precinct 202                                           01 
01070050004000002          Attorney General MOORE COUNTYWIDE                       UNDER VOTES                           Precinct 203                                           01 
01070050005000009          Attorney General MOORE COUNTYWIDE                       UNDER VOTES                           Precinct 301                                           01 
01070050006000014          Attorney General MOORE COUNTYWIDE                       UNDER VOTES                           Precinct 401                                           01 
01070050007000000          Attorney General MOORE COUNTYWIDE                       UNDER VOTES                           Precinct 402                                           01 
01080010001000019REP       Comptroller of Public Accounts MOORE COUNTYWIDE         Raul Torres                           Precinct 101                                           01 
01080010002000012REP       Comptroller of Public Accounts MOORE COUNTYWIDE         Raul Torres                           Precinct 201                                           01 
01080010003000018REP       Comptroller of Public Accounts MOORE COUNTYWIDE         Raul Torres                           Precinct 202                                           01 
01080010004000001REP       Comptroller of Public Accounts MOORE COUNTYWIDE         Raul Torres                           Precinct 203                                           01 
01080010005000006REP       Comptroller of Public Accounts MOORE COUNTYWIDE         Raul Torres                           Precinct 301                                           01 
01080010006000002REP       Comptroller of Public Accounts MOORE COUNTYWIDE         Raul Torres                           Precinct 401                                           01 
01080010007000001REP       Comptroller of Public Accounts MOORE COUNTYWIDE         Raul Torres                           Precinct 402                                           01 
01080020001000056REP       Comptroller of Public Accounts MOORE COUNTYWIDE         Debra Medina                          Precinct 101                                           01 
01080020002000044REP       Comptroller of Public Accounts MOORE COUNTYWIDE         Debra Medina                          Precinct 201                                           01 
01080020003000044REP       Comptroller of Public Accounts MOORE COUNTYWIDE         Debra Medina                          Precinct 202                                           01 
01080020004000002REP       Comptroller of Public Accounts MOORE COUNTYWIDE         Debra Medina                          Precinct 203                                           01 
01080020005000018REP       Comptroller of Public Accounts MOORE COUNTYWIDE         Debra Medina                          Precinct 301                                           01 
01080020006000019REP       Comptroller of Public Accounts MOORE COUNTYWIDE         Debra Medina                          Precinct 401                                           01 
01080020007000000REP       Comptroller of Public Accounts MOORE COUNTYWIDE         Debra Medina                          Precinct 402                                           01 
01080030001000129REP       Comptroller of Public Accounts MOORE COUNTYWIDE         Glenn Hegar                           Precinct 101                                           01 
01080030002000152REP       Comptroller of Public Accounts MOORE COUNTYWIDE         Glenn Hegar                           Precinct 201                                           01 
01080030003000162REP       Comptroller of Public Accounts MOORE COUNTYWIDE         Glenn Hegar                           Precinct 202                                           01 
01080030004000004REP       Comptroller of Public Accounts MOORE COUNTYWIDE         Glenn Hegar                           Precinct 203                                           01 
01080030005000053REP       Comptroller of Public Accounts MOORE COUNTYWIDE         Glenn Hegar                           Precinct 301                                           01 
01080030006000064REP       Comptroller of Public Accounts MOORE COUNTYWIDE         Glenn Hegar                           Precinct 401                                           01 
01080030007000004REP       Comptroller of Public Accounts MOORE COUNTYWIDE         Glenn Hegar                           Precinct 402                                           01 
01080040001000102REP       Comptroller of Public Accounts MOORE COUNTYWIDE         Harvey Hilderbran                     Precinct 101                                           01 
01080040002000094REP       Comptroller of Public Accounts MOORE COUNTYWIDE         Harvey Hilderbran                     Precinct 201                                           01 
01080040003000124REP       Comptroller of Public Accounts MOORE COUNTYWIDE         Harvey Hilderbran                     Precinct 202                                           01 
01080040004000007REP       Comptroller of Public Accounts MOORE COUNTYWIDE         Harvey Hilderbran                     Precinct 203                                           01 
01080040005000043REP       Comptroller of Public Accounts MOORE COUNTYWIDE         Harvey Hilderbran                     Precinct 301                                           01 
01080040006000055REP       Comptroller of Public Accounts MOORE COUNTYWIDE         Harvey Hilderbran                     Precinct 401                                           01 
01080040007000004REP       Comptroller of Public Accounts MOORE COUNTYWIDE         Harvey Hilderbran                     Precinct 402                                           01 
01080050001000000          Comptroller of Public Accounts MOORE COUNTYWIDE         OVER VOTES                            Precinct 101                                           01 
01080050002000000          Comptroller of Public Accounts MOORE COUNTYWIDE         OVER VOTES                            Precinct 201                                           01 
01080050003000000          Comptroller of Public Accounts MOORE COUNTYWIDE         OVER VOTES                            Precinct 202                                           01 
01080050004000000          Comptroller of Public Accounts MOORE COUNTYWIDE         OVER VOTES                            Precinct 203                                           01 
01080050005000000          Comptroller of Public Accounts MOORE COUNTYWIDE         OVER VOTES                            Precinct 301                                           01 
01080050006000000          Comptroller of Public Accounts MOORE COUNTYWIDE         OVER VOTES                            Precinct 401                                           01 
01080050007000000          Comptroller of Public Accounts MOORE COUNTYWIDE         OVER VOTES                            Precinct 402                                           01 
01080060001000035          Comptroller of Public Accounts MOORE COUNTYWIDE         UNDER VOTES                           Precinct 101                                           01 
01080060002000041          Comptroller of Public Accounts MOORE COUNTYWIDE         UNDER VOTES                           Precinct 201                                           01 
01080060003000035          Comptroller of Public Accounts MOORE COUNTYWIDE         UNDER VOTES                           Precinct 202                                           01 
01080060004000001          Comptroller of Public Accounts MOORE COUNTYWIDE         UNDER VOTES                           Precinct 203                                           01 
01080060005000011          Comptroller of Public Accounts MOORE COUNTYWIDE         UNDER VOTES                           Precinct 301                                           01 
01080060006000020          Comptroller of Public Accounts MOORE COUNTYWIDE         UNDER VOTES                           Precinct 401                                           01 
01080060007000000          Comptroller of Public Accounts MOORE COUNTYWIDE         UNDER VOTES                           Precinct 402                                           01 
01090010001000080REP       Commissioner of the General Land Office MOORE COUNTYWIDEDavid Watts                           Precinct 101                                           01 
01090010002000101REP       Commissioner of the General Land Office MOORE COUNTYWIDEDavid Watts                           Precinct 201                                           01 
01090010003000078REP       Commissioner of the General Land Office MOORE COUNTYWIDEDavid Watts                           Precinct 202                                           01 
01090010004000003REP       Commissioner of the General Land Office MOORE COUNTYWIDEDavid Watts                           Precinct 203                                           01 
01090010005000038REP       Commissioner of the General Land Office MOORE COUNTYWIDEDavid Watts                           Precinct 301                                           01 
01090010006000035REP       Commissioner of the General Land Office MOORE COUNTYWIDEDavid Watts                           Precinct 401                                           01 
01090010007000002REP       Commissioner of the General Land Office MOORE COUNTYWIDEDavid Watts                           Precinct 402                                           01 
01090020001000233REP       Commissioner of the General Land Office MOORE COUNTYWIDEGeorge P. Bush                        Precinct 101                                           01 
01090020002000214REP       Commissioner of the General Land Office MOORE COUNTYWIDEGeorge P. Bush                        Precinct 201                                           01 
01090020003000281REP       Commissioner of the General Land Office MOORE COUNTYWIDEGeorge P. Bush                        Precinct 202                                           01 
01090020004000010REP       Commissioner of the General Land Office MOORE COUNTYWIDEGeorge P. Bush                        Precinct 203                                           01 
01090020005000087REP       Commissioner of the General Land Office MOORE COUNTYWIDEGeorge P. Bush                        Precinct 301                                           01 
01090020006000110REP       Commissioner of the General Land Office MOORE COUNTYWIDEGeorge P. Bush                        Precinct 401                                           01 
01090020007000007REP       Commissioner of the General Land Office MOORE COUNTYWIDEGeorge P. Bush                        Precinct 402                                           01 
01090030001000000          Commissioner of the General Land Office MOORE COUNTYWIDEOVER VOTES                            Precinct 101                                           01 
01090030002000000          Commissioner of the General Land Office MOORE COUNTYWIDEOVER VOTES                            Precinct 201                                           01 
01090030003000000          Commissioner of the General Land Office MOORE COUNTYWIDEOVER VOTES                            Precinct 202                                           01 
01090030004000000          Commissioner of the General Land Office MOORE COUNTYWIDEOVER VOTES                            Precinct 203                                           01 
01090030005000000          Commissioner of the General Land Office MOORE COUNTYWIDEOVER VOTES                            Precinct 301                                           01 
01090030006000000          Commissioner of the General Land Office MOORE COUNTYWIDEOVER VOTES                            Precinct 401                                           01 
01090030007000000          Commissioner of the General Land Office MOORE COUNTYWIDEOVER VOTES                            Precinct 402                                           01 
01090040001000028          Commissioner of the General Land Office MOORE COUNTYWIDEUNDER VOTES                           Precinct 101                                           01 
01090040002000028          Commissioner of the General Land Office MOORE COUNTYWIDEUNDER VOTES                           Precinct 201                                           01 
01090040003000024          Commissioner of the General Land Office MOORE COUNTYWIDEUNDER VOTES                           Precinct 202                                           01 
01090040004000002          Commissioner of the General Land Office MOORE COUNTYWIDEUNDER VOTES                           Precinct 203                                           01 
01090040005000006          Commissioner of the General Land Office MOORE COUNTYWIDEUNDER VOTES                           Precinct 301                                           01 
01090040006000015          Commissioner of the General Land Office MOORE COUNTYWIDEUNDER VOTES                           Precinct 401                                           01 
01090040007000000          Commissioner of the General Land Office MOORE COUNTYWIDEUNDER VOTES                           Precinct 402                                           01 
01100010001000069REP       Commissioner of Agriculture MOORE COUNTYWIDE            Joe Cotten                            Precinct 101                                           01 
01100010002000071REP       Commissioner of Agriculture MOORE COUNTYWIDE            Joe Cotten                            Precinct 201                                           01 
01100010003000060REP       Commissioner of Agriculture MOORE COUNTYWIDE            Joe Cotten                            Precinct 202                                           01 
01100010004000002REP       Commissioner of Agriculture MOORE COUNTYWIDE            Joe Cotten                            Precinct 203                                           01 
01100010005000032REP       Commissioner of Agriculture MOORE COUNTYWIDE            Joe Cotten                            Precinct 301                                           01 
01100010006000028REP       Commissioner of Agriculture MOORE COUNTYWIDE            Joe Cotten                            Precinct 401                                           01 
01100010007000002REP       Commissioner of Agriculture MOORE COUNTYWIDE            Joe Cotten                            Precinct 402                                           01 
01100020001000053REP       Commissioner of Agriculture MOORE COUNTYWIDE            J. Allen Carnes                       Precinct 101                                           01 
01100020002000069REP       Commissioner of Agriculture MOORE COUNTYWIDE            J. Allen Carnes                       Precinct 201                                           01 
01100020003000050REP       Commissioner of Agriculture MOORE COUNTYWIDE            J. Allen Carnes                       Precinct 202                                           01 
01100020004000003REP       Commissioner of Agriculture MOORE COUNTYWIDE            J. Allen Carnes                       Precinct 203                                           01 
01100020005000022REP       Commissioner of Agriculture MOORE COUNTYWIDE            J. Allen Carnes                       Precinct 301                                           01 
01100020006000035REP       Commissioner of Agriculture MOORE COUNTYWIDE            J. Allen Carnes                       Precinct 401                                           01 
01100020007000003REP       Commissioner of Agriculture MOORE COUNTYWIDE            J. Allen Carnes                       Precinct 402                                           01 
01100030001000015REP       Commissioner of Agriculture MOORE COUNTYWIDE            Eric Opiela                           Precinct 101                                           01 
01100030002000014REP       Commissioner of Agriculture MOORE COUNTYWIDE            Eric Opiela                           Precinct 201                                           01 
01100030003000018REP       Commissioner of Agriculture MOORE COUNTYWIDE            Eric Opiela                           Precinct 202                                           01 
01100030004000000REP       Commissioner of Agriculture MOORE COUNTYWIDE            Eric Opiela                           Precinct 203                                           01 
01100030005000003REP       Commissioner of Agriculture MOORE COUNTYWIDE            Eric Opiela                           Precinct 301                                           01 
01100030006000010REP       Commissioner of Agriculture MOORE COUNTYWIDE            Eric Opiela                           Precinct 401                                           01 
01100030007000001REP       Commissioner of Agriculture MOORE COUNTYWIDE            Eric Opiela                           Precinct 402                                           01 
01100040001000096REP       Commissioner of Agriculture MOORE COUNTYWIDE            Tommy Merritt                         Precinct 101                                           01 
01100040002000075REP       Commissioner of Agriculture MOORE COUNTYWIDE            Tommy Merritt                         Precinct 201                                           01 
01100040003000105REP       Commissioner of Agriculture MOORE COUNTYWIDE            Tommy Merritt                         Precinct 202                                           01 
01100040004000002REP       Commissioner of Agriculture MOORE COUNTYWIDE            Tommy Merritt                         Precinct 203                                           01 
01100040005000032REP       Commissioner of Agriculture MOORE COUNTYWIDE            Tommy Merritt                         Precinct 301                                           01 
01100040006000046REP       Commissioner of Agriculture MOORE COUNTYWIDE            Tommy Merritt                         Precinct 401                                           01 
01100040007000003REP       Commissioner of Agriculture MOORE COUNTYWIDE            Tommy Merritt                         Precinct 402                                           01 
01100050001000066REP       Commissioner of Agriculture MOORE COUNTYWIDE            Sid Miller                            Precinct 101                                           01 
01100050002000072REP       Commissioner of Agriculture MOORE COUNTYWIDE            Sid Miller                            Precinct 201                                           01 
01100050003000103REP       Commissioner of Agriculture MOORE COUNTYWIDE            Sid Miller                            Precinct 202                                           01 
01100050004000006REP       Commissioner of Agriculture MOORE COUNTYWIDE            Sid Miller                            Precinct 203                                           01 
01100050005000034REP       Commissioner of Agriculture MOORE COUNTYWIDE            Sid Miller                            Precinct 301                                           01 
01100050006000018REP       Commissioner of Agriculture MOORE COUNTYWIDE            Sid Miller                            Precinct 401                                           01 
01100050007000000REP       Commissioner of Agriculture MOORE COUNTYWIDE            Sid Miller                            Precinct 402                                           01 
01100060001000000          Commissioner of Agriculture MOORE COUNTYWIDE            OVER VOTES                            Precinct 101                                           01 
01100060002000000          Commissioner of Agriculture MOORE COUNTYWIDE            OVER VOTES                            Precinct 201                                           01 
01100060003000000          Commissioner of Agriculture MOORE COUNTYWIDE            OVER VOTES                            Precinct 202                                           01 
01100060004000000          Commissioner of Agriculture MOORE COUNTYWIDE            OVER VOTES                            Precinct 203                                           01 
01100060005000000          Commissioner of Agriculture MOORE COUNTYWIDE            OVER VOTES                            Precinct 301                                           01 
01100060006000000          Commissioner of Agriculture MOORE COUNTYWIDE            OVER VOTES                            Precinct 401                                           01 
01100060007000000          Commissioner of Agriculture MOORE COUNTYWIDE            OVER VOTES                            Precinct 402                                           01 
01100070001000042          Commissioner of Agriculture MOORE COUNTYWIDE            UNDER VOTES                           Precinct 101                                           01 
01100070002000042          Commissioner of Agriculture MOORE COUNTYWIDE            UNDER VOTES                           Precinct 201                                           01 
01100070003000047          Commissioner of Agriculture MOORE COUNTYWIDE            UNDER VOTES                           Precinct 202                                           01 
01100070004000002          Commissioner of Agriculture MOORE COUNTYWIDE            UNDER VOTES                           Precinct 203                                           01 
01100070005000008          Commissioner of Agriculture MOORE COUNTYWIDE            UNDER VOTES                           Precinct 301                                           01 
01100070006000023          Commissioner of Agriculture MOORE COUNTYWIDE            UNDER VOTES                           Precinct 401                                           01 
01100070007000000          Commissioner of Agriculture MOORE COUNTYWIDE            UNDER VOTES                           Precinct 402                                           01 
01110010001000161REP       Railroad Commissioner MOORE COUNTYWIDE                  Wayne Christian                       Precinct 101                                           01 
01110010002000145REP       Railroad Commissioner MOORE COUNTYWIDE                  Wayne Christian                       Precinct 201                                           01 
01110010003000157REP       Railroad Commissioner MOORE COUNTYWIDE                  Wayne Christian                       Precinct 202                                           01 
01110010004000007REP       Railroad Commissioner MOORE COUNTYWIDE                  Wayne Christian                       Precinct 203                                           01 
01110010005000063REP       Railroad Commissioner MOORE COUNTYWIDE                  Wayne Christian                       Precinct 301                                           01 
01110010006000056REP       Railroad Commissioner MOORE COUNTYWIDE                  Wayne Christian                       Precinct 401                                           01 
01110010007000004REP       Railroad Commissioner MOORE COUNTYWIDE                  Wayne Christian                       Precinct 402                                           01 
01110020001000069REP       Railroad Commissioner MOORE COUNTYWIDE                  Ryan Sitton                           Precinct 101                                           01 
01110020002000072REP       Railroad Commissioner MOORE COUNTYWIDE                  Ryan Sitton                           Precinct 201                                           01 
01110020003000090REP       Railroad Commissioner MOORE COUNTYWIDE                  Ryan Sitton                           Precinct 202                                           01 
01110020004000003REP       Railroad Commissioner MOORE COUNTYWIDE                  Ryan Sitton                           Precinct 203                                           01 
01110020005000028REP       Railroad Commissioner MOORE COUNTYWIDE                  Ryan Sitton                           Precinct 301                                           01 
01110020006000042REP       Railroad Commissioner MOORE COUNTYWIDE                  Ryan Sitton                           Precinct 401                                           01 
01110020007000001REP       Railroad Commissioner MOORE COUNTYWIDE                  Ryan Sitton                           Precinct 402                                           01 
01110030001000040REP       Railroad Commissioner MOORE COUNTYWIDE                  Becky Berger                          Precinct 101                                           01 
01110030002000048REP       Railroad Commissioner MOORE COUNTYWIDE                  Becky Berger                          Precinct 201                                           01 
01110030003000051REP       Railroad Commissioner MOORE COUNTYWIDE                  Becky Berger                          Precinct 202                                           01 
01110030004000002REP       Railroad Commissioner MOORE COUNTYWIDE                  Becky Berger                          Precinct 203                                           01 
01110030005000021REP       Railroad Commissioner MOORE COUNTYWIDE                  Becky Berger                          Precinct 301                                           01 
01110030006000017REP       Railroad Commissioner MOORE COUNTYWIDE                  Becky Berger                          Precinct 401                                           01 
01110030007000001REP       Railroad Commissioner MOORE COUNTYWIDE                  Becky Berger                          Precinct 402                                           01 
01110040001000031REP       Railroad Commissioner MOORE COUNTYWIDE                  Malachi Boyuls                        Precinct 101                                           01 
01110040002000034REP       Railroad Commissioner MOORE COUNTYWIDE                  Malachi Boyuls                        Precinct 201                                           01 
01110040003000033REP       Railroad Commissioner MOORE COUNTYWIDE                  Malachi Boyuls                        Precinct 202                                           01 
01110040004000002REP       Railroad Commissioner MOORE COUNTYWIDE                  Malachi Boyuls                        Precinct 203                                           01 
01110040005000011REP       Railroad Commissioner MOORE COUNTYWIDE                  Malachi Boyuls                        Precinct 301                                           01 
01110040006000017REP       Railroad Commissioner MOORE COUNTYWIDE                  Malachi Boyuls                        Precinct 401                                           01 
01110040007000002REP       Railroad Commissioner MOORE COUNTYWIDE                  Malachi Boyuls                        Precinct 402                                           01 
01110050001000000          Railroad Commissioner MOORE COUNTYWIDE                  OVER VOTES                            Precinct 101                                           01 
01110050002000000          Railroad Commissioner MOORE COUNTYWIDE                  OVER VOTES                            Precinct 201                                           01 
01110050003000000          Railroad Commissioner MOORE COUNTYWIDE                  OVER VOTES                            Precinct 202                                           01 
01110050004000000          Railroad Commissioner MOORE COUNTYWIDE                  OVER VOTES                            Precinct 203                                           01 
01110050005000000          Railroad Commissioner MOORE COUNTYWIDE                  OVER VOTES                            Precinct 301                                           01 
01110050006000000          Railroad Commissioner MOORE COUNTYWIDE                  OVER VOTES                            Precinct 401                                           01 
01110050007000000          Railroad Commissioner MOORE COUNTYWIDE                  OVER VOTES                            Precinct 402                                           01 
01110060001000040          Railroad Commissioner MOORE COUNTYWIDE                  UNDER VOTES                           Precinct 101                                           01 
01110060002000044          Railroad Commissioner MOORE COUNTYWIDE                  UNDER VOTES                           Precinct 201                                           01 
01110060003000052          Railroad Commissioner MOORE COUNTYWIDE                  UNDER VOTES                           Precinct 202                                           01 
01110060004000001          Railroad Commissioner MOORE COUNTYWIDE                  UNDER VOTES                           Precinct 203                                           01 
01110060005000008          Railroad Commissioner MOORE COUNTYWIDE                  UNDER VOTES                           Precinct 301                                           01 
01110060006000028          Railroad Commissioner MOORE COUNTYWIDE                  UNDER VOTES                           Precinct 401                                           01 
01110060007000001          Railroad Commissioner MOORE COUNTYWIDE                  UNDER VOTES                           Precinct 402                                           01 
01120010001000171REP       Chief Justice, Supreme Court MOORE COUNTYWIDE           Nathan Hecht                          Precinct 101                                           01 
01120010002000168REP       Chief Justice, Supreme Court MOORE COUNTYWIDE           Nathan Hecht                          Precinct 201                                           01 
01120010003000191REP       Chief Justice, Supreme Court MOORE COUNTYWIDE           Nathan Hecht                          Precinct 202                                           01 
01120010004000005REP       Chief Justice, Supreme Court MOORE COUNTYWIDE           Nathan Hecht                          Precinct 203                                           01 
01120010005000062REP       Chief Justice, Supreme Court MOORE COUNTYWIDE           Nathan Hecht                          Precinct 301                                           01 
01120010006000086REP       Chief Justice, Supreme Court MOORE COUNTYWIDE           Nathan Hecht                          Precinct 401                                           01 
01120010007000007REP       Chief Justice, Supreme Court MOORE COUNTYWIDE           Nathan Hecht                          Precinct 402                                           01 
01120020001000129REP       Chief Justice, Supreme Court MOORE COUNTYWIDE           Robert Talton                         Precinct 101                                           01 
01120020002000126REP       Chief Justice, Supreme Court MOORE COUNTYWIDE           Robert Talton                         Precinct 201                                           01 
01120020003000135REP       Chief Justice, Supreme Court MOORE COUNTYWIDE           Robert Talton                         Precinct 202                                           01 
01120020004000008REP       Chief Justice, Supreme Court MOORE COUNTYWIDE           Robert Talton                         Precinct 203                                           01 
01120020005000056REP       Chief Justice, Supreme Court MOORE COUNTYWIDE           Robert Talton                         Precinct 301                                           01 
01120020006000048REP       Chief Justice, Supreme Court MOORE COUNTYWIDE           Robert Talton                         Precinct 401                                           01 
01120020007000002REP       Chief Justice, Supreme Court MOORE COUNTYWIDE           Robert Talton                         Precinct 402                                           01 
01120030001000000          Chief Justice, Supreme Court MOORE COUNTYWIDE           OVER VOTES                            Precinct 101                                           01 
01120030002000000          Chief Justice, Supreme Court MOORE COUNTYWIDE           OVER VOTES                            Precinct 201                                           01 
01120030003000000          Chief Justice, Supreme Court MOORE COUNTYWIDE           OVER VOTES                            Precinct 202                                           01 
01120030004000000          Chief Justice, Supreme Court MOORE COUNTYWIDE           OVER VOTES                            Precinct 203                                           01 
01120030005000000          Chief Justice, Supreme Court MOORE COUNTYWIDE           OVER VOTES                            Precinct 301                                           01 
01120030006000000          Chief Justice, Supreme Court MOORE COUNTYWIDE           OVER VOTES                            Precinct 401                                           01 
01120030007000000          Chief Justice, Supreme Court MOORE COUNTYWIDE           OVER VOTES                            Precinct 402                                           01 
01120040001000041          Chief Justice, Supreme Court MOORE COUNTYWIDE           UNDER VOTES                           Precinct 101                                           01 
01120040002000049          Chief Justice, Supreme Court MOORE COUNTYWIDE           UNDER VOTES                           Precinct 201                                           01 
01120040003000057          Chief Justice, Supreme Court MOORE COUNTYWIDE           UNDER VOTES                           Precinct 202                                           01 
01120040004000002          Chief Justice, Supreme Court MOORE COUNTYWIDE           UNDER VOTES                           Precinct 203                                           01 
01120040005000013          Chief Justice, Supreme Court MOORE COUNTYWIDE           UNDER VOTES                           Precinct 301                                           01 
01120040006000026          Chief Justice, Supreme Court MOORE COUNTYWIDE           UNDER VOTES                           Precinct 401                                           01 
01120040007000000          Chief Justice, Supreme Court MOORE COUNTYWIDE           UNDER VOTES                           Precinct 402                                           01 
01130010001000087REP       Justice, Supreme Court, Place 6 MOORE COUNTYWIDE        Joe Pool                              Precinct 101                                           01 
01130010002000089REP       Justice, Supreme Court, Place 6 MOORE COUNTYWIDE        Joe Pool                              Precinct 201                                           01 
01130010003000081REP       Justice, Supreme Court, Place 6 MOORE COUNTYWIDE        Joe Pool                              Precinct 202                                           01 
01130010004000005REP       Justice, Supreme Court, Place 6 MOORE COUNTYWIDE        Joe Pool                              Precinct 203                                           01 
01130010005000032REP       Justice, Supreme Court, Place 6 MOORE COUNTYWIDE        Joe Pool                              Precinct 301                                           01 
01130010006000035REP       Justice, Supreme Court, Place 6 MOORE COUNTYWIDE        Joe Pool                              Precinct 401                                           01 
01130010007000002REP       Justice, Supreme Court, Place 6 MOORE COUNTYWIDE        Joe Pool                              Precinct 402                                           01 
01130020001000207REP       Justice, Supreme Court, Place 6 MOORE COUNTYWIDE        Jeff Brown                            Precinct 101                                           01 
01130020002000212REP       Justice, Supreme Court, Place 6 MOORE COUNTYWIDE        Jeff Brown                            Precinct 201                                           01 
01130020003000241REP       Justice, Supreme Court, Place 6 MOORE COUNTYWIDE        Jeff Brown                            Precinct 202                                           01 
01130020004000009REP       Justice, Supreme Court, Place 6 MOORE COUNTYWIDE        Jeff Brown                            Precinct 203                                           01 
01130020005000085REP       Justice, Supreme Court, Place 6 MOORE COUNTYWIDE        Jeff Brown                            Precinct 301                                           01 
01130020006000094REP       Justice, Supreme Court, Place 6 MOORE COUNTYWIDE        Jeff Brown                            Precinct 401                                           01 
01130020007000005REP       Justice, Supreme Court, Place 6 MOORE COUNTYWIDE        Jeff Brown                            Precinct 402                                           01 
01130030001000000          Justice, Supreme Court, Place 6 MOORE COUNTYWIDE        OVER VOTES                            Precinct 101                                           01 
01130030002000000          Justice, Supreme Court, Place 6 MOORE COUNTYWIDE        OVER VOTES                            Precinct 201                                           01 
01130030003000000          Justice, Supreme Court, Place 6 MOORE COUNTYWIDE        OVER VOTES                            Precinct 202                                           01 
01130030004000000          Justice, Supreme Court, Place 6 MOORE COUNTYWIDE        OVER VOTES                            Precinct 203                                           01 
01130030005000000          Justice, Supreme Court, Place 6 MOORE COUNTYWIDE        OVER VOTES                            Precinct 301                                           01 
01130030006000000          Justice, Supreme Court, Place 6 MOORE COUNTYWIDE        OVER VOTES                            Precinct 401                                           01 
01130030007000000          Justice, Supreme Court, Place 6 MOORE COUNTYWIDE        OVER VOTES                            Precinct 402                                           01 
01130040001000047          Justice, Supreme Court, Place 6 MOORE COUNTYWIDE        UNDER VOTES                           Precinct 101                                           01 
01130040002000042          Justice, Supreme Court, Place 6 MOORE COUNTYWIDE        UNDER VOTES                           Precinct 201                                           01 
01130040003000061          Justice, Supreme Court, Place 6 MOORE COUNTYWIDE        UNDER VOTES                           Precinct 202                                           01 
01130040004000001          Justice, Supreme Court, Place 6 MOORE COUNTYWIDE        UNDER VOTES                           Precinct 203                                           01 
01130040005000014          Justice, Supreme Court, Place 6 MOORE COUNTYWIDE        UNDER VOTES                           Precinct 301                                           01 
01130040006000031          Justice, Supreme Court, Place 6 MOORE COUNTYWIDE        UNDER VOTES                           Precinct 401                                           01 
01130040007000002          Justice, Supreme Court, Place 6 MOORE COUNTYWIDE        UNDER VOTES                           Precinct 402                                           01 
01140010001000273REP       Justice, Supreme Court, Place 7 MOORE COUNTYWIDE        Jeff Boyd                             Precinct 101                                           01 
01140010002000283REP       Justice, Supreme Court, Place 7 MOORE COUNTYWIDE        Jeff Boyd                             Precinct 201                                           01 
01140010003000309REP       Justice, Supreme Court, Place 7 MOORE COUNTYWIDE        Jeff Boyd                             Precinct 202                                           01 
01140010004000014REP       Justice, Supreme Court, Place 7 MOORE COUNTYWIDE        Jeff Boyd                             Precinct 203                                           01 
01140010005000116REP       Justice, Supreme Court, Place 7 MOORE COUNTYWIDE        Jeff Boyd                             Precinct 301                                           01 
01140010006000122REP       Justice, Supreme Court, Place 7 MOORE COUNTYWIDE        Jeff Boyd                             Precinct 401                                           01 
01140010007000007REP       Justice, Supreme Court, Place 7 MOORE COUNTYWIDE        Jeff Boyd                             Precinct 402                                           01 
01140020001000000          Justice, Supreme Court, Place 7 MOORE COUNTYWIDE        OVER VOTES                            Precinct 101                                           01 
01140020002000000          Justice, Supreme Court, Place 7 MOORE COUNTYWIDE        OVER VOTES                            Precinct 201                                           01 
01140020003000000          Justice, Supreme Court, Place 7 MOORE COUNTYWIDE        OVER VOTES                            Precinct 202                                           01 
01140020004000000          Justice, Supreme Court, Place 7 MOORE COUNTYWIDE        OVER VOTES                            Precinct 203                                           01 
01140020005000000          Justice, Supreme Court, Place 7 MOORE COUNTYWIDE        OVER VOTES                            Precinct 301                                           01 
01140020006000000          Justice, Supreme Court, Place 7 MOORE COUNTYWIDE        OVER VOTES                            Precinct 401                                           01 
01140020007000000          Justice, Supreme Court, Place 7 MOORE COUNTYWIDE        OVER VOTES                            Precinct 402                                           01 
01140030001000068          Justice, Supreme Court, Place 7 MOORE COUNTYWIDE        UNDER VOTES                           Precinct 101                                           01 
01140030002000060          Justice, Supreme Court, Place 7 MOORE COUNTYWIDE        UNDER VOTES                           Precinct 201                                           01 
01140030003000074          Justice, Supreme Court, Place 7 MOORE COUNTYWIDE        UNDER VOTES                           Precinct 202                                           01 
01140030004000001          Justice, Supreme Court, Place 7 MOORE COUNTYWIDE        UNDER VOTES                           Precinct 203                                           01 
01140030005000015          Justice, Supreme Court, Place 7 MOORE COUNTYWIDE        UNDER VOTES                           Precinct 301                                           01 
01140030006000038          Justice, Supreme Court, Place 7 MOORE COUNTYWIDE        UNDER VOTES                           Precinct 401                                           01 
01140030007000002          Justice, Supreme Court, Place 7 MOORE COUNTYWIDE        UNDER VOTES                           Precinct 402                                           01 
01150010001000184REP       Justice, Supreme Court, Place 8 MOORE COUNTYWIDE        Phil Johnson                          Precinct 101                                           01 
01150010002000182REP       Justice, Supreme Court, Place 8 MOORE COUNTYWIDE        Phil Johnson                          Precinct 201                                           01 
01150010003000211REP       Justice, Supreme Court, Place 8 MOORE COUNTYWIDE        Phil Johnson                          Precinct 202                                           01 
01150010004000011REP       Justice, Supreme Court, Place 8 MOORE COUNTYWIDE        Phil Johnson                          Precinct 203                                           01 
01150010005000066REP       Justice, Supreme Court, Place 8 MOORE COUNTYWIDE        Phil Johnson                          Precinct 301                                           01 
01150010006000087REP       Justice, Supreme Court, Place 8 MOORE COUNTYWIDE        Phil Johnson                          Precinct 401                                           01 
01150010007000006REP       Justice, Supreme Court, Place 8 MOORE COUNTYWIDE        Phil Johnson                          Precinct 402                                           01 
01150020001000112REP       Justice, Supreme Court, Place 8 MOORE COUNTYWIDE        Sharon McCally                        Precinct 101                                           01 
01150020002000110REP       Justice, Supreme Court, Place 8 MOORE COUNTYWIDE        Sharon McCally                        Precinct 201                                           01 
01150020003000111REP       Justice, Supreme Court, Place 8 MOORE COUNTYWIDE        Sharon McCally                        Precinct 202                                           01 
01150020004000003REP       Justice, Supreme Court, Place 8 MOORE COUNTYWIDE        Sharon McCally                        Precinct 203                                           01 
01150020005000054REP       Justice, Supreme Court, Place 8 MOORE COUNTYWIDE        Sharon McCally                        Precinct 301                                           01 
01150020006000044REP       Justice, Supreme Court, Place 8 MOORE COUNTYWIDE        Sharon McCally                        Precinct 401                                           01 
01150020007000001REP       Justice, Supreme Court, Place 8 MOORE COUNTYWIDE        Sharon McCally                        Precinct 402                                           01 
01150030001000000          Justice, Supreme Court, Place 8 MOORE COUNTYWIDE        OVER VOTES                            Precinct 101                                           01 
01150030002000000          Justice, Supreme Court, Place 8 MOORE COUNTYWIDE        OVER VOTES                            Precinct 201                                           01 
01150030003000000          Justice, Supreme Court, Place 8 MOORE COUNTYWIDE        OVER VOTES                            Precinct 202                                           01 
01150030004000000          Justice, Supreme Court, Place 8 MOORE COUNTYWIDE        OVER VOTES                            Precinct 203                                           01 
01150030005000000          Justice, Supreme Court, Place 8 MOORE COUNTYWIDE        OVER VOTES                            Precinct 301                                           01 
01150030006000000          Justice, Supreme Court, Place 8 MOORE COUNTYWIDE        OVER VOTES                            Precinct 401                                           01 
01150030007000000          Justice, Supreme Court, Place 8 MOORE COUNTYWIDE        OVER VOTES                            Precinct 402                                           01 
01150040001000045          Justice, Supreme Court, Place 8 MOORE COUNTYWIDE        UNDER VOTES                           Precinct 101                                           01 
01150040002000051          Justice, Supreme Court, Place 8 MOORE COUNTYWIDE        UNDER VOTES                           Precinct 201                                           01 
01150040003000061          Justice, Supreme Court, Place 8 MOORE COUNTYWIDE        UNDER VOTES                           Precinct 202                                           01 
01150040004000001          Justice, Supreme Court, Place 8 MOORE COUNTYWIDE        UNDER VOTES                           Precinct 203                                           01 
01150040005000011          Justice, Supreme Court, Place 8 MOORE COUNTYWIDE        UNDER VOTES                           Precinct 301                                           01 
01150040006000029          Justice, Supreme Court, Place 8 MOORE COUNTYWIDE        UNDER VOTES                           Precinct 401                                           01 
01150040007000002          Justice, Supreme Court, Place 8 MOORE COUNTYWIDE        UNDER VOTES                           Precinct 402                                           01 
01160010001000122REP       Judge, Court of Criminal Appeals, Pl 3 MOORE COUNTYWIDE Barbara Walther                       Precinct 101                                           01 
01160010002000126REP       Judge, Court of Criminal Appeals, Pl 3 MOORE COUNTYWIDE Barbara Walther                       Precinct 201                                           01 
01160010003000125REP       Judge, Court of Criminal Appeals, Pl 3 MOORE COUNTYWIDE Barbara Walther                       Precinct 202                                           01 
01160010004000007REP       Judge, Court of Criminal Appeals, Pl 3 MOORE COUNTYWIDE Barbara Walther                       Precinct 203                                           01 
01160010005000054REP       Judge, Court of Criminal Appeals, Pl 3 MOORE COUNTYWIDE Barbara Walther                       Precinct 301                                           01 
01160010006000056REP       Judge, Court of Criminal Appeals, Pl 3 MOORE COUNTYWIDE Barbara Walther                       Precinct 401                                           01 
01160010007000002REP       Judge, Court of Criminal Appeals, Pl 3 MOORE COUNTYWIDE Barbara Walther                       Precinct 402                                           01 
01160020001000165REP       Judge, Court of Criminal Appeals, Pl 3 MOORE COUNTYWIDE Bert Richardson                       Precinct 101                                           01 
01160020002000163REP       Judge, Court of Criminal Appeals, Pl 3 MOORE COUNTYWIDE Bert Richardson                       Precinct 201                                           01 
01160020003000183REP       Judge, Court of Criminal Appeals, Pl 3 MOORE COUNTYWIDE Bert Richardson                       Precinct 202                                           01 
01160020004000006REP       Judge, Court of Criminal Appeals, Pl 3 MOORE COUNTYWIDE Bert Richardson                       Precinct 203                                           01 
01160020005000064REP       Judge, Court of Criminal Appeals, Pl 3 MOORE COUNTYWIDE Bert Richardson                       Precinct 301                                           01 
01160020006000069REP       Judge, Court of Criminal Appeals, Pl 3 MOORE COUNTYWIDE Bert Richardson                       Precinct 401                                           01 
01160020007000005REP       Judge, Court of Criminal Appeals, Pl 3 MOORE COUNTYWIDE Bert Richardson                       Precinct 402                                           01 
01160030001000000          Judge, Court of Criminal Appeals, Pl 3 MOORE COUNTYWIDE OVER VOTES                            Precinct 101                                           01 
01160030002000000          Judge, Court of Criminal Appeals, Pl 3 MOORE COUNTYWIDE OVER VOTES                            Precinct 201                                           01 
01160030003000000          Judge, Court of Criminal Appeals, Pl 3 MOORE COUNTYWIDE OVER VOTES                            Precinct 202                                           01 
01160030004000000          Judge, Court of Criminal Appeals, Pl 3 MOORE COUNTYWIDE OVER VOTES                            Precinct 203                                           01 
01160030005000000          Judge, Court of Criminal Appeals, Pl 3 MOORE COUNTYWIDE OVER VOTES                            Precinct 301                                           01 
01160030006000000          Judge, Court of Criminal Appeals, Pl 3 MOORE COUNTYWIDE OVER VOTES                            Precinct 401                                           01 
01160030007000000          Judge, Court of Criminal Appeals, Pl 3 MOORE COUNTYWIDE OVER VOTES                            Precinct 402                                           01 
01160040001000054          Judge, Court of Criminal Appeals, Pl 3 MOORE COUNTYWIDE UNDER VOTES                           Precinct 101                                           01 
01160040002000054          Judge, Court of Criminal Appeals, Pl 3 MOORE COUNTYWIDE UNDER VOTES                           Precinct 201                                           01 
01160040003000075          Judge, Court of Criminal Appeals, Pl 3 MOORE COUNTYWIDE UNDER VOTES                           Precinct 202                                           01 
01160040004000002          Judge, Court of Criminal Appeals, Pl 3 MOORE COUNTYWIDE UNDER VOTES                           Precinct 203                                           01 
01160040005000013          Judge, Court of Criminal Appeals, Pl 3 MOORE COUNTYWIDE UNDER VOTES                           Precinct 301                                           01 
01160040006000035          Judge, Court of Criminal Appeals, Pl 3 MOORE COUNTYWIDE UNDER VOTES                           Precinct 401                                           01 
01160040007000002          Judge, Court of Criminal Appeals, Pl 3 MOORE COUNTYWIDE UNDER VOTES                           Precinct 402                                           01 
01170010001000105REP       Judge, Court of Criminal Appeals, Pl 4 MOORE COUNTYWIDE Richard Dean Davis                    Precinct 101                                           01 
01170010002000106REP       Judge, Court of Criminal Appeals, Pl 4 MOORE COUNTYWIDE Richard Dean Davis                    Precinct 201                                           01 
01170010003000117REP       Judge, Court of Criminal Appeals, Pl 4 MOORE COUNTYWIDE Richard Dean Davis                    Precinct 202                                           01 
01170010004000003REP       Judge, Court of Criminal Appeals, Pl 4 MOORE COUNTYWIDE Richard Dean Davis                    Precinct 203                                           01 
01170010005000044REP       Judge, Court of Criminal Appeals, Pl 4 MOORE COUNTYWIDE Richard Dean Davis                    Precinct 301                                           01 
01170010006000060REP       Judge, Court of Criminal Appeals, Pl 4 MOORE COUNTYWIDE Richard Dean Davis                    Precinct 401                                           01 
01170010007000004REP       Judge, Court of Criminal Appeals, Pl 4 MOORE COUNTYWIDE Richard Dean Davis                    Precinct 402                                           01 
01170020001000141REP       Judge, Court of Criminal Appeals, Pl 4 MOORE COUNTYWIDE Kevin Patrick Yeary                   Precinct 101                                           01 
01170020002000121REP       Judge, Court of Criminal Appeals, Pl 4 MOORE COUNTYWIDE Kevin Patrick Yeary                   Precinct 201                                           01 
01170020003000143REP       Judge, Court of Criminal Appeals, Pl 4 MOORE COUNTYWIDE Kevin Patrick Yeary                   Precinct 202                                           01 
01170020004000011REP       Judge, Court of Criminal Appeals, Pl 4 MOORE COUNTYWIDE Kevin Patrick Yeary                   Precinct 203                                           01 
01170020005000045REP       Judge, Court of Criminal Appeals, Pl 4 MOORE COUNTYWIDE Kevin Patrick Yeary                   Precinct 301                                           01 
01170020006000044REP       Judge, Court of Criminal Appeals, Pl 4 MOORE COUNTYWIDE Kevin Patrick Yeary                   Precinct 401                                           01 
01170020007000002REP       Judge, Court of Criminal Appeals, Pl 4 MOORE COUNTYWIDE Kevin Patrick Yeary                   Precinct 402                                           01 
01170030001000041REP       Judge, Court of Criminal Appeals, Pl 4 MOORE COUNTYWIDE Jani Jo Wood                          Precinct 101                                           01 
01170030002000059REP       Judge, Court of Criminal Appeals, Pl 4 MOORE COUNTYWIDE Jani Jo Wood                          Precinct 201                                           01 
01170030003000052REP       Judge, Court of Criminal Appeals, Pl 4 MOORE COUNTYWIDE Jani Jo Wood                          Precinct 202                                           01 
01170030004000000REP       Judge, Court of Criminal Appeals, Pl 4 MOORE COUNTYWIDE Jani Jo Wood                          Precinct 203                                           01 
01170030005000026REP       Judge, Court of Criminal Appeals, Pl 4 MOORE COUNTYWIDE Jani Jo Wood                          Precinct 301                                           01 
01170030006000022REP       Judge, Court of Criminal Appeals, Pl 4 MOORE COUNTYWIDE Jani Jo Wood                          Precinct 401                                           01 
