01390010001000003DEM       United States Senator POLK COUNTYWIDE                   Maxey Marie Scherr                    Precinct 1                                             01 
01390010002000001DEM       United States Senator POLK COUNTYWIDE                   Maxey Marie Scherr                    Precinct 2                                             01 
01390010003000005DEM       United States Senator POLK COUNTYWIDE                   Maxey Marie Scherr                    Precinct 3                                             01 
01390010004000007DEM       United States Senator POLK COUNTYWIDE                   Maxey Marie Scherr                    Precinct 4                                             01 
01390010005000011DEM       United States Senator POLK COUNTYWIDE                   Maxey Marie Scherr                    Precinct 5                                             01 
01390010006000014DEM       United States Senator POLK COUNTYWIDE                   Maxey Marie Scherr                    Precinct 6                                             01 
01390010007000004DEM       United States Senator POLK COUNTYWIDE                   Maxey Marie Scherr                    Precinct 7                                             01 
01390010008000006DEM       United States Senator POLK COUNTYWIDE                   Maxey Marie Scherr                    Precinct 8                                             01 
01390010009000004DEM       United States Senator POLK COUNTYWIDE                   Maxey Marie Scherr                    Precinct 9                                             01 
01390010010000006DEM       United States Senator POLK COUNTYWIDE                   Maxey Marie Scherr                    Precinct 10                                            01 
01390010011000004DEM       United States Senator POLK COUNTYWIDE                   Maxey Marie Scherr                    Precinct 11                                            01 
01390010012000000DEM       United States Senator POLK COUNTYWIDE                   Maxey Marie Scherr                    Precinct 12                                            01 
01390010013000000DEM       United States Senator POLK COUNTYWIDE                   Maxey Marie Scherr                    Precinct 13                                            01 
01390010014000003DEM       United States Senator POLK COUNTYWIDE                   Maxey Marie Scherr                    Precinct 14                                            01 
01390010015000001DEM       United States Senator POLK COUNTYWIDE                   Maxey Marie Scherr                    Precinct 15                                            01 
01390010016000003DEM       United States Senator POLK COUNTYWIDE                   Maxey Marie Scherr                    Precinct 16                                            01 
01390010017000000DEM       United States Senator POLK COUNTYWIDE                   Maxey Marie Scherr                    Precinct 17                                            01 
01390010018000005DEM       United States Senator POLK COUNTYWIDE                   Maxey Marie Scherr                    Precinct 18                                            01 
01390010019000012DEM       United States Senator POLK COUNTYWIDE                   Maxey Marie Scherr                    Precinct 19                                            01 
01390010020000021DEM       United States Senator POLK COUNTYWIDE                   Maxey Marie Scherr                    Precinct 20                                            01 
01390010021000005DEM       United States Senator POLK COUNTYWIDE                   Maxey Marie Scherr                    Precinct 21                                            01 
01390020001000001DEM       United States Senator POLK COUNTYWIDE                   Kesha Rogers                          Precinct 1                                             01 
01390020002000001DEM       United States Senator POLK COUNTYWIDE                   Kesha Rogers                          Precinct 2                                             01 
01390020003000010DEM       United States Senator POLK COUNTYWIDE                   Kesha Rogers                          Precinct 3                                             01 
01390020004000002DEM       United States Senator POLK COUNTYWIDE                   Kesha Rogers                          Precinct 4                                             01 
01390020005000005DEM       United States Senator POLK COUNTYWIDE                   Kesha Rogers                          Precinct 5                                             01 
01390020006000015DEM       United States Senator POLK COUNTYWIDE                   Kesha Rogers                          Precinct 6                                             01 
01390020007000007DEM       United States Senator POLK COUNTYWIDE                   Kesha Rogers                          Precinct 7                                             01 
01390020008000014DEM       United States Senator POLK COUNTYWIDE                   Kesha Rogers                          Precinct 8                                             01 
01390020009000002DEM       United States Senator POLK COUNTYWIDE                   Kesha Rogers                          Precinct 9                                             01 
01390020010000007DEM       United States Senator POLK COUNTYWIDE                   Kesha Rogers                          Precinct 10                                            01 
01390020011000002DEM       United States Senator POLK COUNTYWIDE                   Kesha Rogers                          Precinct 11                                            01 
01390020012000001DEM       United States Senator POLK COUNTYWIDE                   Kesha Rogers                          Precinct 12                                            01 
01390020013000001DEM       United States Senator POLK COUNTYWIDE                   Kesha Rogers                          Precinct 13                                            01 
01390020014000008DEM       United States Senator POLK COUNTYWIDE                   Kesha Rogers                          Precinct 14                                            01 
01390020015000001DEM       United States Senator POLK COUNTYWIDE                   Kesha Rogers                          Precinct 15                                            01 
01390020016000001DEM       United States Senator POLK COUNTYWIDE                   Kesha Rogers                          Precinct 16                                            01 
01390020017000007DEM       United States Senator POLK COUNTYWIDE                   Kesha Rogers                          Precinct 17                                            01 
01390020018000006DEM       United States Senator POLK COUNTYWIDE                   Kesha Rogers                          Precinct 18                                            01 
01390020019000010DEM       United States Senator POLK COUNTYWIDE                   Kesha Rogers                          Precinct 19                                            01 
01390020020000008DEM       United States Senator POLK COUNTYWIDE                   Kesha Rogers                          Precinct 20                                            01 
01390020021000003DEM       United States Senator POLK COUNTYWIDE                   Kesha Rogers                          Precinct 21                                            01 
01390030001000000DEM       United States Senator POLK COUNTYWIDE                   Harry Kim                             Precinct 1                                             01 
01390030002000000DEM       United States Senator POLK COUNTYWIDE                   Harry Kim                             Precinct 2                                             01 
01390030003000003DEM       United States Senator POLK COUNTYWIDE                   Harry Kim                             Precinct 3                                             01 
01390030004000001DEM       United States Senator POLK COUNTYWIDE                   Harry Kim                             Precinct 4                                             01 
01390030005000003DEM       United States Senator POLK COUNTYWIDE                   Harry Kim                             Precinct 5                                             01 
01390030006000005DEM       United States Senator POLK COUNTYWIDE                   Harry Kim                             Precinct 6                                             01 
01390030007000001DEM       United States Senator POLK COUNTYWIDE                   Harry Kim                             Precinct 7                                             01 
01390030008000002DEM       United States Senator POLK COUNTYWIDE                   Harry Kim                             Precinct 8                                             01 
01390030009000003DEM       United States Senator POLK COUNTYWIDE                   Harry Kim                             Precinct 9                                             01 
01390030010000004DEM       United States Senator POLK COUNTYWIDE                   Harry Kim                             Precinct 10                                            01 
01390030011000001DEM       United States Senator POLK COUNTYWIDE                   Harry Kim                             Precinct 11                                            01 
01390030012000001DEM       United States Senator POLK COUNTYWIDE                   Harry Kim                             Precinct 12                                            01 
01390030013000000DEM       United States Senator POLK COUNTYWIDE                   Harry Kim                             Precinct 13                                            01 
01390030014000000DEM       United States Senator POLK COUNTYWIDE                   Harry Kim                             Precinct 14                                            01 
01390030015000002DEM       United States Senator POLK COUNTYWIDE                   Harry Kim                             Precinct 15                                            01 
01390030016000000DEM       United States Senator POLK COUNTYWIDE                   Harry Kim                             Precinct 16                                            01 
01390030017000001DEM       United States Senator POLK COUNTYWIDE                   Harry Kim                             Precinct 17                                            01 
01390030018000004DEM       United States Senator POLK COUNTYWIDE                   Harry Kim                             Precinct 18                                            01 
01390030019000004DEM       United States Senator POLK COUNTYWIDE                   Harry Kim                             Precinct 19                                            01 
01390030020000002DEM       United States Senator POLK COUNTYWIDE                   Harry Kim                             Precinct 20                                            01 
01390030021000000DEM       United States Senator POLK COUNTYWIDE                   Harry Kim                             Precinct 21                                            01 
01390040001000003DEM       United States Senator POLK COUNTYWIDE                   David M. Alameel                      Precinct 1                                             01 
01390040002000001DEM       United States Senator POLK COUNTYWIDE                   David M. Alameel                      Precinct 2                                             01 
01390040003000011DEM       United States Senator POLK COUNTYWIDE                   David M. Alameel                      Precinct 3                                             01 
01390040004000009DEM       United States Senator POLK COUNTYWIDE                   David M. Alameel                      Precinct 4                                             01 
01390040005000014DEM       United States Senator POLK COUNTYWIDE                   David M. Alameel                      Precinct 5                                             01 
01390040006000032DEM       United States Senator POLK COUNTYWIDE                   David M. Alameel                      Precinct 6                                             01 
01390040007000000DEM       United States Senator POLK COUNTYWIDE                   David M. Alameel                      Precinct 7                                             01 
01390040008000004DEM       United States Senator POLK COUNTYWIDE                   David M. Alameel                      Precinct 8                                             01 
01390040009000003DEM       United States Senator POLK COUNTYWIDE                   David M. Alameel                      Precinct 9                                             01 
01390040010000011DEM       United States Senator POLK COUNTYWIDE                   David M. Alameel                      Precinct 10                                            01 
01390040011000003DEM       United States Senator POLK COUNTYWIDE                   David M. Alameel                      Precinct 11                                            01 
01390040012000004DEM       United States Senator POLK COUNTYWIDE                   David M. Alameel                      Precinct 12                                            01 
01390040013000002DEM       United States Senator POLK COUNTYWIDE                   David M. Alameel                      Precinct 13                                            01 
01390040014000011DEM       United States Senator POLK COUNTYWIDE                   David M. Alameel                      Precinct 14                                            01 
01390040015000006DEM       United States Senator POLK COUNTYWIDE                   David M. Alameel                      Precinct 15                                            01 
01390040016000016DEM       United States Senator POLK COUNTYWIDE                   David M. Alameel                      Precinct 16                                            01 
01390040017000010DEM       United States Senator POLK COUNTYWIDE                   David M. Alameel                      Precinct 17                                            01 
01390040018000007DEM       United States Senator POLK COUNTYWIDE                   David M. Alameel                      Precinct 18                                            01 
01390040019000020DEM       United States Senator POLK COUNTYWIDE                   David M. Alameel                      Precinct 19                                            01 
01390040020000012DEM       United States Senator POLK COUNTYWIDE                   David M. Alameel                      Precinct 20                                            01 
01390040021000001DEM       United States Senator POLK COUNTYWIDE                   David M. Alameel                      Precinct 21                                            01 
01390050001000000DEM       United States Senator POLK COUNTYWIDE                   Michael "Fjet" Fjetland               Precinct 1                                             01 
01390050002000000DEM       United States Senator POLK COUNTYWIDE                   Michael "Fjet" Fjetland               Precinct 2                                             01 
01390050003000001DEM       United States Senator POLK COUNTYWIDE                   Michael "Fjet" Fjetland               Precinct 3                                             01 
01390050004000001DEM       United States Senator POLK COUNTYWIDE                   Michael "Fjet" Fjetland               Precinct 4                                             01 
01390050005000003DEM       United States Senator POLK COUNTYWIDE                   Michael "Fjet" Fjetland               Precinct 5                                             01 
01390050006000004DEM       United States Senator POLK COUNTYWIDE                   Michael "Fjet" Fjetland               Precinct 6                                             01 
01390050007000000DEM       United States Senator POLK COUNTYWIDE                   Michael "Fjet" Fjetland               Precinct 7                                             01 
01390050008000001DEM       United States Senator POLK COUNTYWIDE                   Michael "Fjet" Fjetland               Precinct 8                                             01 
01390050009000000DEM       United States Senator POLK COUNTYWIDE                   Michael "Fjet" Fjetland               Precinct 9                                             01 
01390050010000000DEM       United States Senator POLK COUNTYWIDE                   Michael "Fjet" Fjetland               Precinct 10                                            01 
01390050011000001DEM       United States Senator POLK COUNTYWIDE                   Michael "Fjet" Fjetland               Precinct 11                                            01 
01390050012000000DEM       United States Senator POLK COUNTYWIDE                   Michael "Fjet" Fjetland               Precinct 12                                            01 
01390050013000000DEM       United States Senator POLK COUNTYWIDE                   Michael "Fjet" Fjetland               Precinct 13                                            01 
01390050014000001DEM       United States Senator POLK COUNTYWIDE                   Michael "Fjet" Fjetland               Precinct 14                                            01 
01390050015000000DEM       United States Senator POLK COUNTYWIDE                   Michael "Fjet" Fjetland               Precinct 15                                            01 
01390050016000000DEM       United States Senator POLK COUNTYWIDE                   Michael "Fjet" Fjetland               Precinct 16                                            01 
01390050017000000DEM       United States Senator POLK COUNTYWIDE                   Michael "Fjet" Fjetland               Precinct 17                                            01 
01390050018000001DEM       United States Senator POLK COUNTYWIDE                   Michael "Fjet" Fjetland               Precinct 18                                            01 
01390050019000002DEM       United States Senator POLK COUNTYWIDE                   Michael "Fjet" Fjetland               Precinct 19                                            01 
01390050020000005DEM       United States Senator POLK COUNTYWIDE                   Michael "Fjet" Fjetland               Precinct 20                                            01 
01390050021000000DEM       United States Senator POLK COUNTYWIDE                   Michael "Fjet" Fjetland               Precinct 21                                            01 
01390060001000000DEM       United States Senator POLK COUNTYWIDE                   OVER VOTES                            Precinct 1                                             01 
01390060002000000DEM       United States Senator POLK COUNTYWIDE                   OVER VOTES                            Precinct 2                                             01 
01390060003000000DEM       United States Senator POLK COUNTYWIDE                   OVER VOTES                            Precinct 3                                             01 
01390060004000000DEM       United States Senator POLK COUNTYWIDE                   OVER VOTES                            Precinct 4                                             01 
01390060005000000DEM       United States Senator POLK COUNTYWIDE                   OVER VOTES                            Precinct 5                                             01 
01390060006000000DEM       United States Senator POLK COUNTYWIDE                   OVER VOTES                            Precinct 6                                             01 
01390060007000000DEM       United States Senator POLK COUNTYWIDE                   OVER VOTES                            Precinct 7                                             01 
01390060008000000DEM       United States Senator POLK COUNTYWIDE                   OVER VOTES                            Precinct 8                                             01 
01390060009000000DEM       United States Senator POLK COUNTYWIDE                   OVER VOTES                            Precinct 9                                             01 
01390060010000000DEM       United States Senator POLK COUNTYWIDE                   OVER VOTES                            Precinct 10                                            01 
01390060011000000DEM       United States Senator POLK COUNTYWIDE                   OVER VOTES                            Precinct 11                                            01 
01390060012000000DEM       United States Senator POLK COUNTYWIDE                   OVER VOTES                            Precinct 12                                            01 
01390060013000000DEM       United States Senator POLK COUNTYWIDE                   OVER VOTES                            Precinct 13                                            01 
01390060014000000DEM       United States Senator POLK COUNTYWIDE                   OVER VOTES                            Precinct 14                                            01 
01390060015000000DEM       United States Senator POLK COUNTYWIDE                   OVER VOTES                            Precinct 15                                            01 
01390060016000000DEM       United States Senator POLK COUNTYWIDE                   OVER VOTES                            Precinct 16                                            01 
01390060017000000DEM       United States Senator POLK COUNTYWIDE                   OVER VOTES                            Precinct 17                                            01 
01390060018000000DEM       United States Senator POLK COUNTYWIDE                   OVER VOTES                            Precinct 18                                            01 
01390060019000000DEM       United States Senator POLK COUNTYWIDE                   OVER VOTES                            Precinct 19                                            01 
01390060020000000DEM       United States Senator POLK COUNTYWIDE                   OVER VOTES                            Precinct 20                                            01 
01390060021000000DEM       United States Senator POLK COUNTYWIDE                   OVER VOTES                            Precinct 21                                            01 
01390070001000000DEM       United States Senator POLK COUNTYWIDE                   UNDER VOTES                           Precinct 1                                             01 
01390070002000001DEM       United States Senator POLK COUNTYWIDE                   UNDER VOTES                           Precinct 2                                             01 
01390070003000006DEM       United States Senator POLK COUNTYWIDE                   UNDER VOTES                           Precinct 3                                             01 
01390070004000001DEM       United States Senator POLK COUNTYWIDE                   UNDER VOTES                           Precinct 4                                             01 
01390070005000001DEM       United States Senator POLK COUNTYWIDE                   UNDER VOTES                           Precinct 5                                             01 
01390070006000010DEM       United States Senator POLK COUNTYWIDE                   UNDER VOTES                           Precinct 6                                             01 
01390070007000001DEM       United States Senator POLK COUNTYWIDE                   UNDER VOTES                           Precinct 7                                             01 
01390070008000005DEM       United States Senator POLK COUNTYWIDE                   UNDER VOTES                           Precinct 8                                             01 
01390070009000002DEM       United States Senator POLK COUNTYWIDE                   UNDER VOTES                           Precinct 9                                             01 
01390070010000001DEM       United States Senator POLK COUNTYWIDE                   UNDER VOTES                           Precinct 10                                            01 
01390070011000001DEM       United States Senator POLK COUNTYWIDE                   UNDER VOTES                           Precinct 11                                            01 
01390070012000000DEM       United States Senator POLK COUNTYWIDE                   UNDER VOTES                           Precinct 12                                            01 
01390070013000000DEM       United States Senator POLK COUNTYWIDE                   UNDER VOTES                           Precinct 13                                            01 
01390070014000002DEM       United States Senator POLK COUNTYWIDE                   UNDER VOTES                           Precinct 14                                            01 
01390070015000000DEM       United States Senator POLK COUNTYWIDE                   UNDER VOTES                           Precinct 15                                            01 
01390070016000010DEM       United States Senator POLK COUNTYWIDE                   UNDER VOTES                           Precinct 16                                            01 
01390070017000002DEM       United States Senator POLK COUNTYWIDE                   UNDER VOTES                           Precinct 17                                            01 
01390070018000005DEM       United States Senator POLK COUNTYWIDE                   UNDER VOTES                           Precinct 18                                            01 
01390070019000003DEM       United States Senator POLK COUNTYWIDE                   UNDER VOTES                           Precinct 19                                            01 
01390070020000003DEM       United States Senator POLK COUNTYWIDE                   UNDER VOTES                           Precinct 20                                            01 
01390070021000000DEM       United States Senator POLK COUNTYWIDE                   UNDER VOTES                           Precinct 21                                            01 
01400010001000007DEM       United States Rep, District 36 POLK COUNTYWIDE          Michael K. Cole                       Precinct 1                                             01 
01400010002000002DEM       United States Rep, District 36 POLK COUNTYWIDE          Michael K. Cole                       Precinct 2                                             01 
01400010003000026DEM       United States Rep, District 36 POLK COUNTYWIDE          Michael K. Cole                       Precinct 3                                             01 
01400010004000016DEM       United States Rep, District 36 POLK COUNTYWIDE          Michael K. Cole                       Precinct 4                                             01 
01400010005000033DEM       United States Rep, District 36 POLK COUNTYWIDE          Michael K. Cole                       Precinct 5                                             01 
01400010006000061DEM       United States Rep, District 36 POLK COUNTYWIDE          Michael K. Cole                       Precinct 6                                             01 
01400010007000010DEM       United States Rep, District 36 POLK COUNTYWIDE          Michael K. Cole                       Precinct 7                                             01 
01400010008000024DEM       United States Rep, District 36 POLK COUNTYWIDE          Michael K. Cole                       Precinct 8                                             01 
01400010009000011DEM       United States Rep, District 36 POLK COUNTYWIDE          Michael K. Cole                       Precinct 9                                             01 
01400010010000019DEM       United States Rep, District 36 POLK COUNTYWIDE          Michael K. Cole                       Precinct 10                                            01 
01400010011000011DEM       United States Rep, District 36 POLK COUNTYWIDE          Michael K. Cole                       Precinct 11                                            01 
01400010012000005DEM       United States Rep, District 36 POLK COUNTYWIDE          Michael K. Cole                       Precinct 12                                            01 
01400010013000001DEM       United States Rep, District 36 POLK COUNTYWIDE          Michael K. Cole                       Precinct 13                                            01 
01400010014000020DEM       United States Rep, District 36 POLK COUNTYWIDE          Michael K. Cole                       Precinct 14                                            01 
01400010015000007DEM       United States Rep, District 36 POLK COUNTYWIDE          Michael K. Cole                       Precinct 15                                            01 
01400010016000017DEM       United States Rep, District 36 POLK COUNTYWIDE          Michael K. Cole                       Precinct 16                                            01 
01400010017000013DEM       United States Rep, District 36 POLK COUNTYWIDE          Michael K. Cole                       Precinct 17                                            01 
01400010018000018DEM       United States Rep, District 36 POLK COUNTYWIDE          Michael K. Cole                       Precinct 18                                            01 
01400010019000045DEM       United States Rep, District 36 POLK COUNTYWIDE          Michael K. Cole                       Precinct 19                                            01 
01400010020000047DEM       United States Rep, District 36 POLK COUNTYWIDE          Michael K. Cole                       Precinct 20                                            01 
01400010021000008DEM       United States Rep, District 36 POLK COUNTYWIDE          Michael K. Cole                       Precinct 21                                            01 
01400020001000000DEM       United States Rep, District 36 POLK COUNTYWIDE          OVER VOTES                            Precinct 1                                             01 
01400020002000000DEM       United States Rep, District 36 POLK COUNTYWIDE          OVER VOTES                            Precinct 2                                             01 
01400020003000000DEM       United States Rep, District 36 POLK COUNTYWIDE          OVER VOTES                            Precinct 3                                             01 
01400020004000000DEM       United States Rep, District 36 POLK COUNTYWIDE          OVER VOTES                            Precinct 4                                             01 
01400020005000000DEM       United States Rep, District 36 POLK COUNTYWIDE          OVER VOTES                            Precinct 5                                             01 
01400020006000000DEM       United States Rep, District 36 POLK COUNTYWIDE          OVER VOTES                            Precinct 6                                             01 
01400020007000000DEM       United States Rep, District 36 POLK COUNTYWIDE          OVER VOTES                            Precinct 7                                             01 
01400020008000000DEM       United States Rep, District 36 POLK COUNTYWIDE          OVER VOTES                            Precinct 8                                             01 
01400020009000000DEM       United States Rep, District 36 POLK COUNTYWIDE          OVER VOTES                            Precinct 9                                             01 
01400020010000000DEM       United States Rep, District 36 POLK COUNTYWIDE          OVER VOTES                            Precinct 10                                            01 
01400020011000000DEM       United States Rep, District 36 POLK COUNTYWIDE          OVER VOTES                            Precinct 11                                            01 
01400020012000000DEM       United States Rep, District 36 POLK COUNTYWIDE          OVER VOTES                            Precinct 12                                            01 
01400020013000000DEM       United States Rep, District 36 POLK COUNTYWIDE          OVER VOTES                            Precinct 13                                            01 
01400020014000000DEM       United States Rep, District 36 POLK COUNTYWIDE          OVER VOTES                            Precinct 14                                            01 
01400020015000000DEM       United States Rep, District 36 POLK COUNTYWIDE          OVER VOTES                            Precinct 15                                            01 
01400020016000000DEM       United States Rep, District 36 POLK COUNTYWIDE          OVER VOTES                            Precinct 16                                            01 
01400020017000000DEM       United States Rep, District 36 POLK COUNTYWIDE          OVER VOTES                            Precinct 17                                            01 
01400020018000000DEM       United States Rep, District 36 POLK COUNTYWIDE          OVER VOTES                            Precinct 18                                            01 
01400020019000000DEM       United States Rep, District 36 POLK COUNTYWIDE          OVER VOTES                            Precinct 19                                            01 
01400020020000000DEM       United States Rep, District 36 POLK COUNTYWIDE          OVER VOTES                            Precinct 20                                            01 
01400020021000000DEM       United States Rep, District 36 POLK COUNTYWIDE          OVER VOTES                            Precinct 21                                            01 
01400030001000000DEM       United States Rep, District 36 POLK COUNTYWIDE          UNDER VOTES                           Precinct 1                                             01 
01400030002000002DEM       United States Rep, District 36 POLK COUNTYWIDE          UNDER VOTES                           Precinct 2                                             01 
01400030003000010DEM       United States Rep, District 36 POLK COUNTYWIDE          UNDER VOTES                           Precinct 3                                             01 
01400030004000005DEM       United States Rep, District 36 POLK COUNTYWIDE          UNDER VOTES                           Precinct 4                                             01 
01400030005000004DEM       United States Rep, District 36 POLK COUNTYWIDE          UNDER VOTES                           Precinct 5                                             01 
01400030006000019DEM       United States Rep, District 36 POLK COUNTYWIDE          UNDER VOTES                           Precinct 6                                             01 
01400030007000003DEM       United States Rep, District 36 POLK COUNTYWIDE          UNDER VOTES                           Precinct 7                                             01 
01400030008000008DEM       United States Rep, District 36 POLK COUNTYWIDE          UNDER VOTES                           Precinct 8                                             01 
01400030009000003DEM       United States Rep, District 36 POLK COUNTYWIDE          UNDER VOTES                           Precinct 9                                             01 
01400030010000010DEM       United States Rep, District 36 POLK COUNTYWIDE          UNDER VOTES                           Precinct 10                                            01 
01400030011000001DEM       United States Rep, District 36 POLK COUNTYWIDE          UNDER VOTES                           Precinct 11                                            01 
01400030012000001DEM       United States Rep, District 36 POLK COUNTYWIDE          UNDER VOTES                           Precinct 12                                            01 
01400030013000002DEM       United States Rep, District 36 POLK COUNTYWIDE          UNDER VOTES                           Precinct 13                                            01 
01400030014000005DEM       United States Rep, District 36 POLK COUNTYWIDE          UNDER VOTES                           Precinct 14                                            01 
01400030015000003DEM       United States Rep, District 36 POLK COUNTYWIDE          UNDER VOTES                           Precinct 15                                            01 
01400030016000013DEM       United States Rep, District 36 POLK COUNTYWIDE          UNDER VOTES                           Precinct 16                                            01 
01400030017000007DEM       United States Rep, District 36 POLK COUNTYWIDE          UNDER VOTES                           Precinct 17                                            01 
01400030018000010DEM       United States Rep, District 36 POLK COUNTYWIDE          UNDER VOTES                           Precinct 18                                            01 
01400030019000006DEM       United States Rep, District 36 POLK COUNTYWIDE          UNDER VOTES                           Precinct 19                                            01 
01400030020000004DEM       United States Rep, District 36 POLK COUNTYWIDE          UNDER VOTES                           Precinct 20                                            01 
01400030021000001DEM       United States Rep, District 36 POLK COUNTYWIDE          UNDER VOTES                           Precinct 21                                            01 
01410010001000006DEM       Governor POLK COUNTYWIDE                                Wendy R. Davis                        Precinct 1                                             01 
01410010002000003DEM       Governor POLK COUNTYWIDE                                Wendy R. Davis                        Precinct 2                                             01 
01410010003000027DEM       Governor POLK COUNTYWIDE                                Wendy R. Davis                        Precinct 3                                             01 
01410010004000015DEM       Governor POLK COUNTYWIDE                                Wendy R. Davis                        Precinct 4                                             01 
01410010005000031DEM       Governor POLK COUNTYWIDE                                Wendy R. Davis                        Precinct 5                                             01 
01410010006000068DEM       Governor POLK COUNTYWIDE                                Wendy R. Davis                        Precinct 6                                             01 
01410010007000011DEM       Governor POLK COUNTYWIDE                                Wendy R. Davis                        Precinct 7                                             01 
01410010008000024DEM       Governor POLK COUNTYWIDE                                Wendy R. Davis                        Precinct 8                                             01 
01410010009000012DEM       Governor POLK COUNTYWIDE                                Wendy R. Davis                        Precinct 9                                             01 
01410010010000024DEM       Governor POLK COUNTYWIDE                                Wendy R. Davis                        Precinct 10                                            01 
01410010011000010DEM       Governor POLK COUNTYWIDE                                Wendy R. Davis                        Precinct 11                                            01 
01410010012000005DEM       Governor POLK COUNTYWIDE                                Wendy R. Davis                        Precinct 12                                            01 
01410010013000003DEM       Governor POLK COUNTYWIDE                                Wendy R. Davis                        Precinct 13                                            01 
01410010014000022DEM       Governor POLK COUNTYWIDE                                Wendy R. Davis                        Precinct 14                                            01 
01410010015000009DEM       Governor POLK COUNTYWIDE                                Wendy R. Davis                        Precinct 15                                            01 
01410010016000022DEM       Governor POLK COUNTYWIDE                                Wendy R. Davis                        Precinct 16                                            01 
01410010017000016DEM       Governor POLK COUNTYWIDE                                Wendy R. Davis                        Precinct 17                                            01 
01410010018000023DEM       Governor POLK COUNTYWIDE                                Wendy R. Davis                        Precinct 18                                            01 
01410010019000050DEM       Governor POLK COUNTYWIDE                                Wendy R. Davis                        Precinct 19                                            01 
01410010020000047DEM       Governor POLK COUNTYWIDE                                Wendy R. Davis                        Precinct 20                                            01 
01410010021000008DEM       Governor POLK COUNTYWIDE                                Wendy R. Davis                        Precinct 21                                            01 
01410020001000001DEM       Governor POLK COUNTYWIDE                                Reynaldo "Ray" Madrigal               Precinct 1                                             01 
01410020002000000DEM       Governor POLK COUNTYWIDE                                Reynaldo "Ray" Madrigal               Precinct 2                                             01 
01410020003000005DEM       Governor POLK COUNTYWIDE                                Reynaldo "Ray" Madrigal               Precinct 3                                             01 
01410020004000004DEM       Governor POLK COUNTYWIDE                                Reynaldo "Ray" Madrigal               Precinct 4                                             01 
01410020005000005DEM       Governor POLK COUNTYWIDE                                Reynaldo "Ray" Madrigal               Precinct 5                                             01 
01410020006000006DEM       Governor POLK COUNTYWIDE                                Reynaldo "Ray" Madrigal               Precinct 6                                             01 
01410020007000002DEM       Governor POLK COUNTYWIDE                                Reynaldo "Ray" Madrigal               Precinct 7                                             01 
01410020008000007DEM       Governor POLK COUNTYWIDE                                Reynaldo "Ray" Madrigal               Precinct 8                                             01 
01410020009000000DEM       Governor POLK COUNTYWIDE                                Reynaldo "Ray" Madrigal               Precinct 9                                             01 
01410020010000005DEM       Governor POLK COUNTYWIDE                                Reynaldo "Ray" Madrigal               Precinct 10                                            01 
01410020011000002DEM       Governor POLK COUNTYWIDE                                Reynaldo "Ray" Madrigal               Precinct 11                                            01 
01410020012000001DEM       Governor POLK COUNTYWIDE                                Reynaldo "Ray" Madrigal               Precinct 12                                            01 
01410020013000000DEM       Governor POLK COUNTYWIDE                                Reynaldo "Ray" Madrigal               Precinct 13                                            01 
01410020014000003DEM       Governor POLK COUNTYWIDE                                Reynaldo "Ray" Madrigal               Precinct 14                                            01 
01410020015000001DEM       Governor POLK COUNTYWIDE                                Reynaldo "Ray" Madrigal               Precinct 15                                            01 
01410020016000003DEM       Governor POLK COUNTYWIDE                                Reynaldo "Ray" Madrigal               Precinct 16                                            01 
01410020017000002DEM       Governor POLK COUNTYWIDE                                Reynaldo "Ray" Madrigal               Precinct 17                                            01 
01410020018000001DEM       Governor POLK COUNTYWIDE                                Reynaldo "Ray" Madrigal               Precinct 18                                            01 
01410020019000001DEM       Governor POLK COUNTYWIDE                                Reynaldo "Ray" Madrigal               Precinct 19                                            01 
01410020020000003DEM       Governor POLK COUNTYWIDE                                Reynaldo "Ray" Madrigal               Precinct 20                                            01 
01410020021000000DEM       Governor POLK COUNTYWIDE                                Reynaldo "Ray" Madrigal               Precinct 21                                            01 
01410030001000000DEM       Governor POLK COUNTYWIDE                                OVER VOTES                            Precinct 1                                             01 
01410030002000000DEM       Governor POLK COUNTYWIDE                                OVER VOTES                            Precinct 2                                             01 
01410030003000000DEM       Governor POLK COUNTYWIDE                                OVER VOTES                            Precinct 3                                             01 
01410030004000000DEM       Governor POLK COUNTYWIDE                                OVER VOTES                            Precinct 4                                             01 
01410030005000000DEM       Governor POLK COUNTYWIDE                                OVER VOTES                            Precinct 5                                             01 
01410030006000000DEM       Governor POLK COUNTYWIDE                                OVER VOTES                            Precinct 6                                             01 
01410030007000000DEM       Governor POLK COUNTYWIDE                                OVER VOTES                            Precinct 7                                             01 
01410030008000000DEM       Governor POLK COUNTYWIDE                                OVER VOTES                            Precinct 8                                             01 
01410030009000000DEM       Governor POLK COUNTYWIDE                                OVER VOTES                            Precinct 9                                             01 
01410030010000000DEM       Governor POLK COUNTYWIDE                                OVER VOTES                            Precinct 10                                            01 
01410030011000000DEM       Governor POLK COUNTYWIDE                                OVER VOTES                            Precinct 11                                            01 
01410030012000000DEM       Governor POLK COUNTYWIDE                                OVER VOTES                            Precinct 12                                            01 
01410030013000000DEM       Governor POLK COUNTYWIDE                                OVER VOTES                            Precinct 13                                            01 
01410030014000000DEM       Governor POLK COUNTYWIDE                                OVER VOTES                            Precinct 14                                            01 
01410030015000000DEM       Governor POLK COUNTYWIDE                                OVER VOTES                            Precinct 15                                            01 
01410030016000000DEM       Governor POLK COUNTYWIDE                                OVER VOTES                            Precinct 16                                            01 
01410030017000000DEM       Governor POLK COUNTYWIDE                                OVER VOTES                            Precinct 17                                            01 
01410030018000000DEM       Governor POLK COUNTYWIDE                                OVER VOTES                            Precinct 18                                            01 
01410030019000000DEM       Governor POLK COUNTYWIDE                                OVER VOTES                            Precinct 19                                            01 
01410030020000000DEM       Governor POLK COUNTYWIDE                                OVER VOTES                            Precinct 20                                            01 
01410030021000000DEM       Governor POLK COUNTYWIDE                                OVER VOTES                            Precinct 21                                            01 
01410040001000000DEM       Governor POLK COUNTYWIDE                                UNDER VOTES                           Precinct 1                                             01 
01410040002000001DEM       Governor POLK COUNTYWIDE                                UNDER VOTES                           Precinct 2                                             01 
01410040003000004DEM       Governor POLK COUNTYWIDE                                UNDER VOTES                           Precinct 3                                             01 
01410040004000002DEM       Governor POLK COUNTYWIDE                                UNDER VOTES                           Precinct 4                                             01 
01410040005000001DEM       Governor POLK COUNTYWIDE                                UNDER VOTES                           Precinct 5                                             01 
01410040006000006DEM       Governor POLK COUNTYWIDE                                UNDER VOTES                           Precinct 6                                             01 
01410040007000000DEM       Governor POLK COUNTYWIDE                                UNDER VOTES                           Precinct 7                                             01 
01410040008000001DEM       Governor POLK COUNTYWIDE                                UNDER VOTES                           Precinct 8                                             01 
01410040009000002DEM       Governor POLK COUNTYWIDE                                UNDER VOTES                           Precinct 9                                             01 
01410040010000000DEM       Governor POLK COUNTYWIDE                                UNDER VOTES                           Precinct 10                                            01 
01410040011000000DEM       Governor POLK COUNTYWIDE                                UNDER VOTES                           Precinct 11                                            01 
01410040012000000DEM       Governor POLK COUNTYWIDE                                UNDER VOTES                           Precinct 12                                            01 
01410040013000000DEM       Governor POLK COUNTYWIDE                                UNDER VOTES                           Precinct 13                                            01 
01410040014000000DEM       Governor POLK COUNTYWIDE                                UNDER VOTES                           Precinct 14                                            01 
01410040015000000DEM       Governor POLK COUNTYWIDE                                UNDER VOTES                           Precinct 15                                            01 
01410040016000005DEM       Governor POLK COUNTYWIDE                                UNDER VOTES                           Precinct 16                                            01 
01410040017000002DEM       Governor POLK COUNTYWIDE                                UNDER VOTES                           Precinct 17                                            01 
01410040018000004DEM       Governor POLK COUNTYWIDE                                UNDER VOTES                           Precinct 18                                            01 
01410040019000000DEM       Governor POLK COUNTYWIDE                                UNDER VOTES                           Precinct 19                                            01 
01410040020000001DEM       Governor POLK COUNTYWIDE                                UNDER VOTES                           Precinct 20                                            01 
01410040021000001DEM       Governor POLK COUNTYWIDE                                UNDER VOTES                           Precinct 21                                            01 
01420010001000006DEM       Lieutenant Governor POLK COUNTYWIDE                     Leticia Van de Putte                  Precinct 1                                             01 
01420010002000003DEM       Lieutenant Governor POLK COUNTYWIDE                     Leticia Van de Putte                  Precinct 2                                             01 
01420010003000025DEM       Lieutenant Governor POLK COUNTYWIDE                     Leticia Van de Putte                  Precinct 3                                             01 
01420010004000016DEM       Lieutenant Governor POLK COUNTYWIDE                     Leticia Van de Putte                  Precinct 4                                             01 
01420010005000034DEM       Lieutenant Governor POLK COUNTYWIDE                     Leticia Van de Putte                  Precinct 5                                             01 
01420010006000058DEM       Lieutenant Governor POLK COUNTYWIDE                     Leticia Van de Putte                  Precinct 6                                             01 
01420010007000011DEM       Lieutenant Governor POLK COUNTYWIDE                     Leticia Van de Putte                  Precinct 7                                             01 
01420010008000026DEM       Lieutenant Governor POLK COUNTYWIDE                     Leticia Van de Putte                  Precinct 8                                             01 
01420010009000010DEM       Lieutenant Governor POLK COUNTYWIDE                     Leticia Van de Putte                  Precinct 9                                             01 
01420010010000021DEM       Lieutenant Governor POLK COUNTYWIDE                     Leticia Van de Putte                  Precinct 10                                            01 
01420010011000009DEM       Lieutenant Governor POLK COUNTYWIDE                     Leticia Van de Putte                  Precinct 11                                            01 
01420010012000006DEM       Lieutenant Governor POLK COUNTYWIDE                     Leticia Van de Putte                  Precinct 12                                            01 
01420010013000001DEM       Lieutenant Governor POLK COUNTYWIDE                     Leticia Van de Putte                  Precinct 13                                            01 
01420010014000024DEM       Lieutenant Governor POLK COUNTYWIDE                     Leticia Van de Putte                  Precinct 14                                            01 
01420010015000007DEM       Lieutenant Governor POLK COUNTYWIDE                     Leticia Van de Putte                  Precinct 15                                            01 
01420010016000020DEM       Lieutenant Governor POLK COUNTYWIDE                     Leticia Van de Putte                  Precinct 16                                            01 
01420010017000013DEM       Lieutenant Governor POLK COUNTYWIDE                     Leticia Van de Putte                  Precinct 17                                            01 
01420010018000018DEM       Lieutenant Governor POLK COUNTYWIDE                     Leticia Van de Putte                  Precinct 18                                            01 
01420010019000047DEM       Lieutenant Governor POLK COUNTYWIDE                     Leticia Van de Putte                  Precinct 19                                            01 
01420010020000050DEM       Lieutenant Governor POLK COUNTYWIDE                     Leticia Van de Putte                  Precinct 20                                            01 
01420010021000008DEM       Lieutenant Governor POLK COUNTYWIDE                     Leticia Van de Putte                  Precinct 21                                            01 
01420020001000000DEM       Lieutenant Governor POLK COUNTYWIDE                     OVER VOTES                            Precinct 1                                             01 
01420020002000000DEM       Lieutenant Governor POLK COUNTYWIDE                     OVER VOTES                            Precinct 2                                             01 
01420020003000000DEM       Lieutenant Governor POLK COUNTYWIDE                     OVER VOTES                            Precinct 3                                             01 
01420020004000000DEM       Lieutenant Governor POLK COUNTYWIDE                     OVER VOTES                            Precinct 4                                             01 
01420020005000000DEM       Lieutenant Governor POLK COUNTYWIDE                     OVER VOTES                            Precinct 5                                             01 
01420020006000000DEM       Lieutenant Governor POLK COUNTYWIDE                     OVER VOTES                            Precinct 6                                             01 
01420020007000000DEM       Lieutenant Governor POLK COUNTYWIDE                     OVER VOTES                            Precinct 7                                             01 
01420020008000000DEM       Lieutenant Governor POLK COUNTYWIDE                     OVER VOTES                            Precinct 8                                             01 
01420020009000000DEM       Lieutenant Governor POLK COUNTYWIDE                     OVER VOTES                            Precinct 9                                             01 
01420020010000000DEM       Lieutenant Governor POLK COUNTYWIDE                     OVER VOTES                            Precinct 10                                            01 
01420020011000000DEM       Lieutenant Governor POLK COUNTYWIDE                     OVER VOTES                            Precinct 11                                            01 
01420020012000000DEM       Lieutenant Governor POLK COUNTYWIDE                     OVER VOTES                            Precinct 12                                            01 
01420020013000000DEM       Lieutenant Governor POLK COUNTYWIDE                     OVER VOTES                            Precinct 13                                            01 
01420020014000000DEM       Lieutenant Governor POLK COUNTYWIDE                     OVER VOTES                            Precinct 14                                            01 
01420020015000000DEM       Lieutenant Governor POLK COUNTYWIDE                     OVER VOTES                            Precinct 15                                            01 
01420020016000000DEM       Lieutenant Governor POLK COUNTYWIDE                     OVER VOTES                            Precinct 16                                            01 
01420020017000000DEM       Lieutenant Governor POLK COUNTYWIDE                     OVER VOTES                            Precinct 17                                            01 
01420020018000000DEM       Lieutenant Governor POLK COUNTYWIDE                     OVER VOTES                            Precinct 18                                            01 
01420020019000000DEM       Lieutenant Governor POLK COUNTYWIDE                     OVER VOTES                            Precinct 19                                            01 
01420020020000000DEM       Lieutenant Governor POLK COUNTYWIDE                     OVER VOTES                            Precinct 20                                            01 
01420020021000000DEM       Lieutenant Governor POLK COUNTYWIDE                     OVER VOTES                            Precinct 21                                            01 
01420030001000001DEM       Lieutenant Governor POLK COUNTYWIDE                     UNDER VOTES                           Precinct 1                                             01 
01420030002000001DEM       Lieutenant Governor POLK COUNTYWIDE                     UNDER VOTES                           Precinct 2                                             01 
01420030003000011DEM       Lieutenant Governor POLK COUNTYWIDE                     UNDER VOTES                           Precinct 3                                             01 
01420030004000005DEM       Lieutenant Governor POLK COUNTYWIDE                     UNDER VOTES                           Precinct 4                                             01 
01420030005000003DEM       Lieutenant Governor POLK COUNTYWIDE                     UNDER VOTES                           Precinct 5                                             01 
01420030006000022DEM       Lieutenant Governor POLK COUNTYWIDE                     UNDER VOTES                           Precinct 6                                             01 
01420030007000002DEM       Lieutenant Governor POLK COUNTYWIDE                     UNDER VOTES                           Precinct 7                                             01 
01420030008000006DEM       Lieutenant Governor POLK COUNTYWIDE                     UNDER VOTES                           Precinct 8                                             01 
01420030009000004DEM       Lieutenant Governor POLK COUNTYWIDE                     UNDER VOTES                           Precinct 9                                             01 
01420030010000008DEM       Lieutenant Governor POLK COUNTYWIDE                     UNDER VOTES                           Precinct 10                                            01 
01420030011000003DEM       Lieutenant Governor POLK COUNTYWIDE                     UNDER VOTES                           Precinct 11                                            01 
01420030012000000DEM       Lieutenant Governor POLK COUNTYWIDE                     UNDER VOTES                           Precinct 12                                            01 
01420030013000002DEM       Lieutenant Governor POLK COUNTYWIDE                     UNDER VOTES                           Precinct 13                                            01 
01420030014000001DEM       Lieutenant Governor POLK COUNTYWIDE                     UNDER VOTES                           Precinct 14                                            01 
01420030015000003DEM       Lieutenant Governor POLK COUNTYWIDE                     UNDER VOTES                           Precinct 15                                            01 
01420030016000010DEM       Lieutenant Governor POLK COUNTYWIDE                     UNDER VOTES                           Precinct 16                                            01 
01420030017000007DEM       Lieutenant Governor POLK COUNTYWIDE                     UNDER VOTES                           Precinct 17                                            01 
01420030018000010DEM       Lieutenant Governor POLK COUNTYWIDE                     UNDER VOTES                           Precinct 18                                            01 
01420030019000004DEM       Lieutenant Governor POLK COUNTYWIDE                     UNDER VOTES                           Precinct 19                                            01 
01420030020000001DEM       Lieutenant Governor POLK COUNTYWIDE                     UNDER VOTES                           Precinct 20                                            01 
01420030021000001DEM       Lieutenant Governor POLK COUNTYWIDE                     UNDER VOTES                           Precinct 21                                            01 
01430010001000007DEM       Attorney General POLK COUNTYWIDE                        Sam Houston                           Precinct 1                                             01 
01430010002000003DEM       Attorney General POLK COUNTYWIDE                        Sam Houston                           Precinct 2                                             01 
01430010003000026DEM       Attorney General POLK COUNTYWIDE                        Sam Houston                           Precinct 3                                             01 
01430010004000017DEM       Attorney General POLK COUNTYWIDE                        Sam Houston                           Precinct 4                                             01 
01430010005000035DEM       Attorney General POLK COUNTYWIDE                        Sam Houston                           Precinct 5                                             01 
01430010006000061DEM       Attorney General POLK COUNTYWIDE                        Sam Houston                           Precinct 6                                             01 
01430010007000012DEM       Attorney General POLK COUNTYWIDE                        Sam Houston                           Precinct 7                                             01 
01430010008000027DEM       Attorney General POLK COUNTYWIDE                        Sam Houston                           Precinct 8                                             01 
01430010009000010DEM       Attorney General POLK COUNTYWIDE                        Sam Houston                           Precinct 9                                             01 
01430010010000021DEM       Attorney General POLK COUNTYWIDE                        Sam Houston                           Precinct 10                                            01 
01430010011000010DEM       Attorney General POLK COUNTYWIDE                        Sam Houston                           Precinct 11                                            01 
01430010012000006DEM       Attorney General POLK COUNTYWIDE                        Sam Houston                           Precinct 12                                            01 
01430010013000001DEM       Attorney General POLK COUNTYWIDE                        Sam Houston                           Precinct 13                                            01 
01430010014000022DEM       Attorney General POLK COUNTYWIDE                        Sam Houston                           Precinct 14                                            01 
01430010015000007DEM       Attorney General POLK COUNTYWIDE                        Sam Houston                           Precinct 15                                            01 
01430010016000018DEM       Attorney General POLK COUNTYWIDE                        Sam Houston                           Precinct 16                                            01 
01430010017000014DEM       Attorney General POLK COUNTYWIDE                        Sam Houston                           Precinct 17                                            01 
01430010018000021DEM       Attorney General POLK COUNTYWIDE                        Sam Houston                           Precinct 18                                            01 
01430010019000046DEM       Attorney General POLK COUNTYWIDE                        Sam Houston                           Precinct 19                                            01 
01430010020000049DEM       Attorney General POLK COUNTYWIDE                        Sam Houston                           Precinct 20                                            01 
01430010021000008DEM       Attorney General POLK COUNTYWIDE                        Sam Houston                           Precinct 21                                            01 
01430020001000000DEM       Attorney General POLK COUNTYWIDE                        OVER VOTES                            Precinct 1                                             01 
01430020002000000DEM       Attorney General POLK COUNTYWIDE                        OVER VOTES                            Precinct 2                                             01 
01430020003000000DEM       Attorney General POLK COUNTYWIDE                        OVER VOTES                            Precinct 3                                             01 
01430020004000000DEM       Attorney General POLK COUNTYWIDE                        OVER VOTES                            Precinct 4                                             01 
01430020005000000DEM       Attorney General POLK COUNTYWIDE                        OVER VOTES                            Precinct 5                                             01 
01430020006000000DEM       Attorney General POLK COUNTYWIDE                        OVER VOTES                            Precinct 6                                             01 
01430020007000000DEM       Attorney General POLK COUNTYWIDE                        OVER VOTES                            Precinct 7                                             01 
01430020008000000DEM       Attorney General POLK COUNTYWIDE                        OVER VOTES                            Precinct 8                                             01 
01430020009000000DEM       Attorney General POLK COUNTYWIDE                        OVER VOTES                            Precinct 9                                             01 
01430020010000000DEM       Attorney General POLK COUNTYWIDE                        OVER VOTES                            Precinct 10                                            01 
01430020011000000DEM       Attorney General POLK COUNTYWIDE                        OVER VOTES                            Precinct 11                                            01 
01430020012000000DEM       Attorney General POLK COUNTYWIDE                        OVER VOTES                            Precinct 12                                            01 
01430020013000000DEM       Attorney General POLK COUNTYWIDE                        OVER VOTES                            Precinct 13                                            01 
01430020014000000DEM       Attorney General POLK COUNTYWIDE                        OVER VOTES                            Precinct 14                                            01 
01430020015000000DEM       Attorney General POLK COUNTYWIDE                        OVER VOTES                            Precinct 15                                            01 
01430020016000000DEM       Attorney General POLK COUNTYWIDE                        OVER VOTES                            Precinct 16                                            01 
01430020017000000DEM       Attorney General POLK COUNTYWIDE                        OVER VOTES                            Precinct 17                                            01 
01430020018000000DEM       Attorney General POLK COUNTYWIDE                        OVER VOTES                            Precinct 18                                            01 
01430020019000000DEM       Attorney General POLK COUNTYWIDE                        OVER VOTES                            Precinct 19                                            01 
01430020020000000DEM       Attorney General POLK COUNTYWIDE                        OVER VOTES                            Precinct 20                                            01 
01430020021000000DEM       Attorney General POLK COUNTYWIDE                        OVER VOTES                            Precinct 21                                            01 
01430030001000000DEM       Attorney General POLK COUNTYWIDE                        UNDER VOTES                           Precinct 1                                             01 
01430030002000001DEM       Attorney General POLK COUNTYWIDE                        UNDER VOTES                           Precinct 2                                             01 
01430030003000010DEM       Attorney General POLK COUNTYWIDE                        UNDER VOTES                           Precinct 3                                             01 
01430030004000004DEM       Attorney General POLK COUNTYWIDE                        UNDER VOTES                           Precinct 4                                             01 
01430030005000002DEM       Attorney General POLK COUNTYWIDE                        UNDER VOTES                           Precinct 5                                             01 
01430030006000019DEM       Attorney General POLK COUNTYWIDE                        UNDER VOTES                           Precinct 6                                             01 
01430030007000001DEM       Attorney General POLK COUNTYWIDE                        UNDER VOTES                           Precinct 7                                             01 
01430030008000005DEM       Attorney General POLK COUNTYWIDE                        UNDER VOTES                           Precinct 8                                             01 
01430030009000004DEM       Attorney General POLK COUNTYWIDE                        UNDER VOTES                           Precinct 9                                             01 
01430030010000008DEM       Attorney General POLK COUNTYWIDE                        UNDER VOTES                           Precinct 10                                            01 
01430030011000002DEM       Attorney General POLK COUNTYWIDE                        UNDER VOTES                           Precinct 11                                            01 
01430030012000000DEM       Attorney General POLK COUNTYWIDE                        UNDER VOTES                           Precinct 12                                            01 
01430030013000002DEM       Attorney General POLK COUNTYWIDE                        UNDER VOTES                           Precinct 13                                            01 
01430030014000003DEM       Attorney General POLK COUNTYWIDE                        UNDER VOTES                           Precinct 14                                            01 
01430030015000003DEM       Attorney General POLK COUNTYWIDE                        UNDER VOTES                           Precinct 15                                            01 
01430030016000012DEM       Attorney General POLK COUNTYWIDE                        UNDER VOTES                           Precinct 16                                            01 
01430030017000006DEM       Attorney General POLK COUNTYWIDE                        UNDER VOTES                           Precinct 17                                            01 
01430030018000007DEM       Attorney General POLK COUNTYWIDE                        UNDER VOTES                           Precinct 18                                            01 
01430030019000005DEM       Attorney General POLK COUNTYWIDE                        UNDER VOTES                           Precinct 19                                            01 
01430030020000002DEM       Attorney General POLK COUNTYWIDE                        UNDER VOTES                           Precinct 20                                            01 
01430030021000001DEM       Attorney General POLK COUNTYWIDE                        UNDER VOTES                           Precinct 21                                            01 
01440010001000007DEM       Comptroller of Public Accounts POLK COUNTYWIDE          Mike Collier                          Precinct 1                                             01 
01440010002000003DEM       Comptroller of Public Accounts POLK COUNTYWIDE          Mike Collier                          Precinct 2                                             01 
01440010003000025DEM       Comptroller of Public Accounts POLK COUNTYWIDE          Mike Collier                          Precinct 3                                             01 
01440010004000015DEM       Comptroller of Public Accounts POLK COUNTYWIDE          Mike Collier                          Precinct 4                                             01 
01440010005000034DEM       Comptroller of Public Accounts POLK COUNTYWIDE          Mike Collier                          Precinct 5                                             01 
01440010006000058DEM       Comptroller of Public Accounts POLK COUNTYWIDE          Mike Collier                          Precinct 6                                             01 
01440010007000012DEM       Comptroller of Public Accounts POLK COUNTYWIDE          Mike Collier                          Precinct 7                                             01 
01440010008000025DEM       Comptroller of Public Accounts POLK COUNTYWIDE          Mike Collier                          Precinct 8                                             01 
01440010009000009DEM       Comptroller of Public Accounts POLK COUNTYWIDE          Mike Collier                          Precinct 9                                             01 
01440010010000022DEM       Comptroller of Public Accounts POLK COUNTYWIDE          Mike Collier                          Precinct 10                                            01 
01440010011000010DEM       Comptroller of Public Accounts POLK COUNTYWIDE          Mike Collier                          Precinct 11                                            01 
01440010012000006DEM       Comptroller of Public Accounts POLK COUNTYWIDE          Mike Collier                          Precinct 12                                            01 
01440010013000001DEM       Comptroller of Public Accounts POLK COUNTYWIDE          Mike Collier                          Precinct 13                                            01 
01440010014000022DEM       Comptroller of Public Accounts POLK COUNTYWIDE          Mike Collier                          Precinct 14                                            01 
01440010015000006DEM       Comptroller of Public Accounts POLK COUNTYWIDE          Mike Collier                          Precinct 15                                            01 
01440010016000018DEM       Comptroller of Public Accounts POLK COUNTYWIDE          Mike Collier                          Precinct 16                                            01 
01440010017000013DEM       Comptroller of Public Accounts POLK COUNTYWIDE          Mike Collier                          Precinct 17                                            01 
01440010018000019DEM       Comptroller of Public Accounts POLK COUNTYWIDE          Mike Collier                          Precinct 18                                            01 
01440010019000045DEM       Comptroller of Public Accounts POLK COUNTYWIDE          Mike Collier                          Precinct 19                                            01 
01440010020000048DEM       Comptroller of Public Accounts POLK COUNTYWIDE          Mike Collier                          Precinct 20                                            01 
01440010021000008DEM       Comptroller of Public Accounts POLK COUNTYWIDE          Mike Collier                          Precinct 21                                            01 
01440020001000000DEM       Comptroller of Public Accounts POLK COUNTYWIDE          OVER VOTES                            Precinct 1                                             01 
01440020002000000DEM       Comptroller of Public Accounts POLK COUNTYWIDE          OVER VOTES                            Precinct 2                                             01 
01440020003000000DEM       Comptroller of Public Accounts POLK COUNTYWIDE          OVER VOTES                            Precinct 3                                             01 
01440020004000000DEM       Comptroller of Public Accounts POLK COUNTYWIDE          OVER VOTES                            Precinct 4                                             01 
01440020005000000DEM       Comptroller of Public Accounts POLK COUNTYWIDE          OVER VOTES                            Precinct 5                                             01 
01440020006000000DEM       Comptroller of Public Accounts POLK COUNTYWIDE          OVER VOTES                            Precinct 6                                             01 
01440020007000000DEM       Comptroller of Public Accounts POLK COUNTYWIDE          OVER VOTES                            Precinct 7                                             01 
01440020008000000DEM       Comptroller of Public Accounts POLK COUNTYWIDE          OVER VOTES                            Precinct 8                                             01 
01440020009000000DEM       Comptroller of Public Accounts POLK COUNTYWIDE          OVER VOTES                            Precinct 9                                             01 
01440020010000000DEM       Comptroller of Public Accounts POLK COUNTYWIDE          OVER VOTES                            Precinct 10                                            01 
01440020011000000DEM       Comptroller of Public Accounts POLK COUNTYWIDE          OVER VOTES                            Precinct 11                                            01 
01440020012000000DEM       Comptroller of Public Accounts POLK COUNTYWIDE          OVER VOTES                            Precinct 12                                            01 
01440020013000000DEM       Comptroller of Public Accounts POLK COUNTYWIDE          OVER VOTES                            Precinct 13                                            01 
01440020014000000DEM       Comptroller of Public Accounts POLK COUNTYWIDE          OVER VOTES                            Precinct 14                                            01 
01440020015000000DEM       Comptroller of Public Accounts POLK COUNTYWIDE          OVER VOTES                            Precinct 15                                            01 
01440020016000000DEM       Comptroller of Public Accounts POLK COUNTYWIDE          OVER VOTES                            Precinct 16                                            01 
01440020017000000DEM       Comptroller of Public Accounts POLK COUNTYWIDE          OVER VOTES                            Precinct 17                                            01 
01440020018000000DEM       Comptroller of Public Accounts POLK COUNTYWIDE          OVER VOTES                            Precinct 18                                            01 
01440020019000000DEM       Comptroller of Public Accounts POLK COUNTYWIDE          OVER VOTES                            Precinct 19                                            01 
01440020020000000DEM       Comptroller of Public Accounts POLK COUNTYWIDE          OVER VOTES                            Precinct 20                                            01 
01440020021000000DEM       Comptroller of Public Accounts POLK COUNTYWIDE          OVER VOTES                            Precinct 21                                            01 
01440030001000000DEM       Comptroller of Public Accounts POLK COUNTYWIDE          UNDER VOTES                           Precinct 1                                             01 
01440030002000001DEM       Comptroller of Public Accounts POLK COUNTYWIDE          UNDER VOTES                           Precinct 2                                             01 
01440030003000011DEM       Comptroller of Public Accounts POLK COUNTYWIDE          UNDER VOTES                           Precinct 3                                             01 
01440030004000006DEM       Comptroller of Public Accounts POLK COUNTYWIDE          UNDER VOTES                           Precinct 4                                             01 
01440030005000003DEM       Comptroller of Public Accounts POLK COUNTYWIDE          UNDER VOTES                           Precinct 5                                             01 
01440030006000022DEM       Comptroller of Public Accounts POLK COUNTYWIDE          UNDER VOTES                           Precinct 6                                             01 
01440030007000001DEM       Comptroller of Public Accounts POLK COUNTYWIDE          UNDER VOTES                           Precinct 7                                             01 
01440030008000007DEM       Comptroller of Public Accounts POLK COUNTYWIDE          UNDER VOTES                           Precinct 8                                             01 
01440030009000005DEM       Comptroller of Public Accounts POLK COUNTYWIDE          UNDER VOTES                           Precinct 9                                             01 
01440030010000007DEM       Comptroller of Public Accounts POLK COUNTYWIDE          UNDER VOTES                           Precinct 10                                            01 
01440030011000002DEM       Comptroller of Public Accounts POLK COUNTYWIDE          UNDER VOTES                           Precinct 11                                            01 
01440030012000000DEM       Comptroller of Public Accounts POLK COUNTYWIDE          UNDER VOTES                           Precinct 12                                            01 
01440030013000002DEM       Comptroller of Public Accounts POLK COUNTYWIDE          UNDER VOTES                           Precinct 13                                            01 
01440030014000003DEM       Comptroller of Public Accounts POLK COUNTYWIDE          UNDER VOTES                           Precinct 14                                            01 
01440030015000004DEM       Comptroller of Public Accounts POLK COUNTYWIDE          UNDER VOTES                           Precinct 15                                            01 
01440030016000012DEM       Comptroller of Public Accounts POLK COUNTYWIDE          UNDER VOTES                           Precinct 16                                            01 
01440030017000007DEM       Comptroller of Public Accounts POLK COUNTYWIDE          UNDER VOTES                           Precinct 17                                            01 
01440030018000009DEM       Comptroller of Public Accounts POLK COUNTYWIDE          UNDER VOTES                           Precinct 18                                            01 
01440030019000006DEM       Comptroller of Public Accounts POLK COUNTYWIDE          UNDER VOTES                           Precinct 19                                            01 
01440030020000003DEM       Comptroller of Public Accounts POLK COUNTYWIDE          UNDER VOTES                           Precinct 20                                            01 
01440030021000001DEM       Comptroller of Public Accounts POLK COUNTYWIDE          UNDER VOTES                           Precinct 21                                            01 
01450010001000007DEM       Commissioner of the General Land Office POLK COUNTYWIDE John Cook                             Precinct 1                                             01 
01450010002000003DEM       Commissioner of the General Land Office POLK COUNTYWIDE John Cook                             Precinct 2                                             01 
01450010003000026DEM       Commissioner of the General Land Office POLK COUNTYWIDE John Cook                             Precinct 3                                             01 
01450010004000016DEM       Commissioner of the General Land Office POLK COUNTYWIDE John Cook                             Precinct 4                                             01 
01450010005000033DEM       Commissioner of the General Land Office POLK COUNTYWIDE John Cook                             Precinct 5                                             01 
01450010006000059DEM       Commissioner of the General Land Office POLK COUNTYWIDE John Cook                             Precinct 6                                             01 
01450010007000012DEM       Commissioner of the General Land Office POLK COUNTYWIDE John Cook                             Precinct 7                                             01 
01450010008000026DEM       Commissioner of the General Land Office POLK COUNTYWIDE John Cook                             Precinct 8                                             01 
01450010009000010DEM       Commissioner of the General Land Office POLK COUNTYWIDE John Cook                             Precinct 9                                             01 
01450010010000023DEM       Commissioner of the General Land Office POLK COUNTYWIDE John Cook                             Precinct 10                                            01 
01450010011000009DEM       Commissioner of the General Land Office POLK COUNTYWIDE John Cook                             Precinct 11                                            01 
01450010012000006DEM       Commissioner of the General Land Office POLK COUNTYWIDE John Cook                             Precinct 12                                            01 
01450010013000001DEM       Commissioner of the General Land Office POLK COUNTYWIDE John Cook                             Precinct 13                                            01 
01450010014000021DEM       Commissioner of the General Land Office POLK COUNTYWIDE John Cook                             Precinct 14                                            01 
01450010015000008DEM       Commissioner of the General Land Office POLK COUNTYWIDE John Cook                             Precinct 15                                            01 
01450010016000019DEM       Commissioner of the General Land Office POLK COUNTYWIDE John Cook                             Precinct 16                                            01 
01450010017000014DEM       Commissioner of the General Land Office POLK COUNTYWIDE John Cook                             Precinct 17                                            01 
01450010018000019DEM       Commissioner of the General Land Office POLK COUNTYWIDE John Cook                             Precinct 18                                            01 
01450010019000045DEM       Commissioner of the General Land Office POLK COUNTYWIDE John Cook                             Precinct 19                                            01 
01450010020000048DEM       Commissioner of the General Land Office POLK COUNTYWIDE John Cook                             Precinct 20                                            01 
01450010021000008DEM       Commissioner of the General Land Office POLK COUNTYWIDE John Cook                             Precinct 21                                            01 
01450020001000000DEM       Commissioner of the General Land Office POLK COUNTYWIDE OVER VOTES                            Precinct 1                                             01 
01450020002000000DEM       Commissioner of the General Land Office POLK COUNTYWIDE OVER VOTES                            Precinct 2                                             01 
01450020003000000DEM       Commissioner of the General Land Office POLK COUNTYWIDE OVER VOTES                            Precinct 3                                             01 
01450020004000000DEM       Commissioner of the General Land Office POLK COUNTYWIDE OVER VOTES                            Precinct 4                                             01 
01450020005000000DEM       Commissioner of the General Land Office POLK COUNTYWIDE OVER VOTES                            Precinct 5                                             01 
01450020006000000DEM       Commissioner of the General Land Office POLK COUNTYWIDE OVER VOTES                            Precinct 6                                             01 
01450020007000000DEM       Commissioner of the General Land Office POLK COUNTYWIDE OVER VOTES                            Precinct 7                                             01 
01450020008000000DEM       Commissioner of the General Land Office POLK COUNTYWIDE OVER VOTES                            Precinct 8                                             01 
01450020009000000DEM       Commissioner of the General Land Office POLK COUNTYWIDE OVER VOTES                            Precinct 9                                             01 
01450020010000000DEM       Commissioner of the General Land Office POLK COUNTYWIDE OVER VOTES                            Precinct 10                                            01 
01450020011000000DEM       Commissioner of the General Land Office POLK COUNTYWIDE OVER VOTES                            Precinct 11                                            01 
01450020012000000DEM       Commissioner of the General Land Office POLK COUNTYWIDE OVER VOTES                            Precinct 12                                            01 
01450020013000000DEM       Commissioner of the General Land Office POLK COUNTYWIDE OVER VOTES                            Precinct 13                                            01 
01450020014000000DEM       Commissioner of the General Land Office POLK COUNTYWIDE OVER VOTES                            Precinct 14                                            01 
01450020015000000DEM       Commissioner of the General Land Office POLK COUNTYWIDE OVER VOTES                            Precinct 15                                            01 
01450020016000000DEM       Commissioner of the General Land Office POLK COUNTYWIDE OVER VOTES                            Precinct 16                                            01 
01450020017000000DEM       Commissioner of the General Land Office POLK COUNTYWIDE OVER VOTES                            Precinct 17                                            01 
01450020018000000DEM       Commissioner of the General Land Office POLK COUNTYWIDE OVER VOTES                            Precinct 18                                            01 
01450020019000000DEM       Commissioner of the General Land Office POLK COUNTYWIDE OVER VOTES                            Precinct 19                                            01 
01450020020000000DEM       Commissioner of the General Land Office POLK COUNTYWIDE OVER VOTES                            Precinct 20                                            01 
01450020021000000DEM       Commissioner of the General Land Office POLK COUNTYWIDE OVER VOTES                            Precinct 21                                            01 
01450030001000000DEM       Commissioner of the General Land Office POLK COUNTYWIDE UNDER VOTES                           Precinct 1                                             01 
01450030002000001DEM       Commissioner of the General Land Office POLK COUNTYWIDE UNDER VOTES                           Precinct 2                                             01 
01450030003000010DEM       Commissioner of the General Land Office POLK COUNTYWIDE UNDER VOTES                           Precinct 3                                             01 
01450030004000005DEM       Commissioner of the General Land Office POLK COUNTYWIDE UNDER VOTES                           Precinct 4                                             01 
01450030005000004DEM       Commissioner of the General Land Office POLK COUNTYWIDE UNDER VOTES                           Precinct 5                                             01 
01450030006000021DEM       Commissioner of the General Land Office POLK COUNTYWIDE UNDER VOTES                           Precinct 6                                             01 
01450030007000001DEM       Commissioner of the General Land Office POLK COUNTYWIDE UNDER VOTES                           Precinct 7                                             01 
01450030008000006DEM       Commissioner of the General Land Office POLK COUNTYWIDE UNDER VOTES                           Precinct 8                                             01 
01450030009000004DEM       Commissioner of the General Land Office POLK COUNTYWIDE UNDER VOTES                           Precinct 9                                             01 
01450030010000006DEM       Commissioner of the General Land Office POLK COUNTYWIDE UNDER VOTES                           Precinct 10                                            01 
01450030011000003DEM       Commissioner of the General Land Office POLK COUNTYWIDE UNDER VOTES                           Precinct 11                                            01 
01450030012000000DEM       Commissioner of the General Land Office POLK COUNTYWIDE UNDER VOTES                           Precinct 12                                            01 
01450030013000002DEM       Commissioner of the General Land Office POLK COUNTYWIDE UNDER VOTES                           Precinct 13                                            01 
01450030014000004DEM       Commissioner of the General Land Office POLK COUNTYWIDE UNDER VOTES                           Precinct 14                                            01 
01450030015000002DEM       Commissioner of the General Land Office POLK COUNTYWIDE UNDER VOTES                           Precinct 15                                            01 
01450030016000011DEM       Commissioner of the General Land Office POLK COUNTYWIDE UNDER VOTES                           Precinct 16                                            01 
01450030017000006DEM       Commissioner of the General Land Office POLK COUNTYWIDE UNDER VOTES                           Precinct 17                                            01 
01450030018000009DEM       Commissioner of the General Land Office POLK COUNTYWIDE UNDER VOTES                           Precinct 18                                            01 
01450030019000006DEM       Commissioner of the General Land Office POLK COUNTYWIDE UNDER VOTES                           Precinct 19                                            01 
01450030020000003DEM       Commissioner of the General Land Office POLK COUNTYWIDE UNDER VOTES                           Precinct 20                                            01 
01450030021000001DEM       Commissioner of the General Land Office POLK COUNTYWIDE UNDER VOTES                           Precinct 21                                            01 
01460010001000002DEM       Commissioner of Agriculture POLK COUNTYWIDE             Richard "Kinky" Friedman              Precinct 1                                             01 
01460010002000001DEM       Commissioner of Agriculture POLK COUNTYWIDE             Richard "Kinky" Friedman              Precinct 2                                             01 
01460010003000014DEM       Commissioner of Agriculture POLK COUNTYWIDE             Richard "Kinky" Friedman              Precinct 3                                             01 
01460010004000008DEM       Commissioner of Agriculture POLK COUNTYWIDE             Richard "Kinky" Friedman              Precinct 4                                             01 
01460010005000012DEM       Commissioner of Agriculture POLK COUNTYWIDE             Richard "Kinky" Friedman              Precinct 5                                             01 
01460010006000033DEM       Commissioner of Agriculture POLK COUNTYWIDE             Richard "Kinky" Friedman              Precinct 6                                             01 
