01550010034000241NONCITY03 RIO BRAVO Mayor                                         Pedro Cambron                         PCT 134                                                01 
01550020034000326NONCITY03 RIO BRAVO Mayor                                         Francisco I. Pena                     PCT 134                                                01 
01550030034000235NONCITY03 RIO BRAVO Mayor                                         Rosa A. Peguero                       PCT 134                                                01 
01550040034000001   CITY03 RIO BRAVO Mayor                                         OVER VOTES                            PCT 134                                                01 
01550050034000026   CITY03 RIO BRAVO Mayor                                         UNDER VOTES                           PCT 134                                                01 
01560010034000152NONCITY03 RIO BRAVO City Commissioner                             Lupita Rangel                         PCT 134                                                02 
01560020034000185NONCITY03 RIO BRAVO City Commissioner                             Francisco Vara                        PCT 134                                                02 
01560030034000195NONCITY03 RIO BRAVO City Commissioner                             Roberto Montes                        PCT 134                                                02 
01560040034000166NONCITY03 RIO BRAVO City Commissioner                             Carlos Alvarez                        PCT 134                                                02 
01560050034000204NONCITY03 RIO BRAVO City Commissioner                             Eusebio "Billy" Gomez                 PCT 134                                                02 
01560060034000228NONCITY03 RIO BRAVO City Commissioner                             Debby Serrano                         PCT 134                                                02 
01560070034000002   CITY03 RIO BRAVO City Commissioner                             OVER VOTES                            PCT 134                                                02 
01560080034000526   CITY03 RIO BRAVO City Commissioner                             UNDER VOTES                           PCT 134                                                02 
01570010034000356NONCITY03 RIO BRAVO PROP 1                                        For                                   PCT 134                                                01Y
01570020034000156NONCITY03 RIO BRAVO PROP 1                                        Against                               PCT 134                                                01Y
01570030034000000   CITY03 RIO BRAVO PROP 1                                        OVER VOTES                            PCT 134                                                01Y
01570040034000317   CITY03 RIO BRAVO PROP 1                                        UNDER VOTES                           PCT 134                                                01Y
