01010010001004489000000000000000000000000000000          REGISTERED VOTERS - TOTAL                               REGISTERED VOTERS - TOTAL             PRECINCT 1                                             00 
01010010002003445000000000000000000000000000000          REGISTERED VOTERS - TOTAL                               REGISTERED VOTERS - TOTAL             PRECINCT 1A                                            00 
01010010003003655000000000000000000000000000000          REGISTERED VOTERS - TOTAL                               REGISTERED VOTERS - TOTAL             PRECINCT 1B                                            00 
01010010004002922000000000000000000000000000000          REGISTERED VOTERS - TOTAL                               REGISTERED VOTERS - TOTAL             PRECINCT 1C                                            00 
01010010005004026000000000000000000000000000000          REGISTERED VOTERS - TOTAL                               REGISTERED VOTERS - TOTAL             PRECINCT 2                                             00 
01010010006004096000000000000000000000000000000          REGISTERED VOTERS - TOTAL                               REGISTERED VOTERS - TOTAL             PRECINCT 2A                                            00 
01010010007001807000000000000000000000000000000          REGISTERED VOTERS - TOTAL                               REGISTERED VOTERS - TOTAL             PRECINCT 2B                                            00 
01010010008004120000000000000000000000000000000          REGISTERED VOTERS - TOTAL                               REGISTERED VOTERS - TOTAL             PRECINCT 2C                                            00 
01010010009000585000000000000000000000000000000          REGISTERED VOTERS - TOTAL                               REGISTERED VOTERS - TOTAL             PRECINCT 3                                             00 
01010010010001372000000000000000000000000000000          REGISTERED VOTERS - TOTAL                               REGISTERED VOTERS - TOTAL             PRECINCT 3A                                            00 
01010010011002721000000000000000000000000000000          REGISTERED VOTERS - TOTAL                               REGISTERED VOTERS - TOTAL             PRECINCT 3B                                            00 
01010010012002329000000000000000000000000000000          REGISTERED VOTERS - TOTAL                               REGISTERED VOTERS - TOTAL             PRECINCT 3C                                            00 
01010010013004394000000000000000000000000000000          REGISTERED VOTERS - TOTAL                               REGISTERED VOTERS - TOTAL             PRECINCT 3D                                            00 
01010010014002263000000000000000000000000000000          REGISTERED VOTERS - TOTAL                               REGISTERED VOTERS - TOTAL             PRECINCT 4                                             00 
01010010015005270000000000000000000000000000000          REGISTERED VOTERS - TOTAL                               REGISTERED VOTERS - TOTAL             PRECINCT 4A                                            00 
01010010016001531000000000000000000000000000000          REGISTERED VOTERS - TOTAL                               REGISTERED VOTERS - TOTAL             PRECINCT 4B                                            00 
01010010017002764000000000000000000000000000000          REGISTERED VOTERS - TOTAL                               REGISTERED VOTERS - TOTAL             PRECINCT 4C                                            00 
01010010018000000000000000000000000000000000000          REGISTERED VOTERS - TOTAL                               REGISTERED VOTERS - TOTAL             FEDERAL ONLY                                           00 
01020010001002003000318000746000286000540000113          BALLOTS CAST - TOTAL                                    BALLOTS CAST - TOTAL                  PRECINCT 1                                             00 
01020010002001209000191000370000219000346000083          BALLOTS CAST - TOTAL                                    BALLOTS CAST - TOTAL                  PRECINCT 1A                                            00 
01020010003001687000243000535000365000441000103          BALLOTS CAST - TOTAL                                    BALLOTS CAST - TOTAL                  PRECINCT 1B                                            00 
01020010004001403000209000432000264000429000069          BALLOTS CAST - TOTAL                                    BALLOTS CAST - TOTAL                  PRECINCT 1C                                            00 
01020010005001739000355000610000203000391000180          BALLOTS CAST - TOTAL                                    BALLOTS CAST - TOTAL                  PRECINCT 2                                             00 
01020010006001673000297000545000293000388000150          BALLOTS CAST - TOTAL                                    BALLOTS CAST - TOTAL                  PRECINCT 2A                                            00 
01020010007000740000081000236000163000220000040          BALLOTS CAST - TOTAL                                    BALLOTS CAST - TOTAL                  PRECINCT 2B                                            00 
01020010008002054000420000597000921000034000082          BALLOTS CAST - TOTAL                                    BALLOTS CAST - TOTAL                  PRECINCT 2C                                            00 
01020010009000184000045000035000033000033000038          BALLOTS CAST - TOTAL                                    BALLOTS CAST - TOTAL                  PRECINCT 3                                             00 
01020010010000366000057000095000064000131000019          BALLOTS CAST - TOTAL                                    BALLOTS CAST - TOTAL                  PRECINCT 3A                                            00 
01020010011000951000115000320000200000286000030          BALLOTS CAST - TOTAL                                    BALLOTS CAST - TOTAL                  PRECINCT 3B                                            00 
01020010012001138000194000409000207000266000062          BALLOTS CAST - TOTAL                                    BALLOTS CAST - TOTAL                  PRECINCT 3C                                            00 
01020010013001898000266000638000382000521000091          BALLOTS CAST - TOTAL                                    BALLOTS CAST - TOTAL                  PRECINCT 3D                                            00 
01020010014000979000207000261000258000165000088          BALLOTS CAST - TOTAL                                    BALLOTS CAST - TOTAL                  PRECINCT 4                                             00 
01020010015002660000369000527001262000368000134          BALLOTS CAST - TOTAL                                    BALLOTS CAST - TOTAL                  PRECINCT 4A                                            00 
01020010016000478000100000092000124000140000022          BALLOTS CAST - TOTAL                                    BALLOTS CAST - TOTAL                  PRECINCT 4B                                            00 
01020010017000899000100000262000213000285000039          BALLOTS CAST - TOTAL                                    BALLOTS CAST - TOTAL                  PRECINCT 4C                                            00 
01020010018000000000000000000000000000000000000          BALLOTS CAST - TOTAL                                    BALLOTS CAST - TOTAL                  FEDERAL ONLY                                           00 
01030010001000986000162000362000116000281000065REP       STRAIGHT PARTY                                          REPUBLICAN PARTY                      PRECINCT 1                                             01 
01030010002000603000075000193000107000178000050REP       STRAIGHT PARTY                                          REPUBLICAN PARTY                      PRECINCT 1A                                            01 
01030010003000881000124000264000193000245000055REP       STRAIGHT PARTY                                          REPUBLICAN PARTY                      PRECINCT 1B                                            01 
01030010004000766000115000243000129000239000040REP       STRAIGHT PARTY                                          REPUBLICAN PARTY                      PRECINCT 1C                                            01 
01030010005000919000189000334000094000197000105REP       STRAIGHT PARTY                                          REPUBLICAN PARTY                      PRECINCT 2                                             01 
01030010006000866000159000290000131000197000089REP       STRAIGHT PARTY                                          REPUBLICAN PARTY                      PRECINCT 2A                                            01 
01030010007000354000043000103000075000110000023REP       STRAIGHT PARTY                                          REPUBLICAN PARTY                      PRECINCT 2B                                            01 
01030010008001103000203000346000488000022000044REP       STRAIGHT PARTY                                          REPUBLICAN PARTY                      PRECINCT 2C                                            01 
01030010009000064000011000014000008000017000014REP       STRAIGHT PARTY                                          REPUBLICAN PARTY                      PRECINCT 3                                             01 
01030010010000152000021000029000019000069000014REP       STRAIGHT PARTY                                          REPUBLICAN PARTY                      PRECINCT 3A                                            01 
01030010011000408000038000127000089000142000012REP       STRAIGHT PARTY                                          REPUBLICAN PARTY                      PRECINCT 3B                                            01 
01030010012000651000090000233000105000179000044REP       STRAIGHT PARTY                                          REPUBLICAN PARTY                      PRECINCT 3C                                            01 
01030010013001072000144000352000209000314000053REP       STRAIGHT PARTY                                          REPUBLICAN PARTY                      PRECINCT 3D                                            01 
01030010014000496000090000150000126000097000033REP       STRAIGHT PARTY                                          REPUBLICAN PARTY                      PRECINCT 4                                             01 
01030010015000984000107000272000359000209000037REP       STRAIGHT PARTY                                          REPUBLICAN PARTY                      PRECINCT 4A                                            01 
01030010016000235000045000058000052000071000009REP       STRAIGHT PARTY                                          REPUBLICAN PARTY                      PRECINCT 4B                                            01 
01030010017000461000049000135000104000159000014REP       STRAIGHT PARTY                                          REPUBLICAN PARTY                      PRECINCT 4C                                            01 
01030010018000000000000000000000000000000000000REP       STRAIGHT PARTY                                          REPUBLICAN PARTY                      FEDERAL ONLY                                           01 
01030020001000187000031000078000017000042000019DEM       STRAIGHT PARTY                                          DEMOCRATIC PARTY                      PRECINCT 1                                             01 
01030020002000193000030000067000024000061000011DEM       STRAIGHT PARTY                                          DEMOCRATIC PARTY                      PRECINCT 1A                                            01 
01030020003000134000010000045000015000046000018DEM       STRAIGHT PARTY                                          DEMOCRATIC PARTY                      PRECINCT 1B                                            01 
01030020004000106000011000035000014000035000011DEM       STRAIGHT PARTY                                          DEMOCRATIC PARTY                      PRECINCT 1C                                            01 
01030020005000169000036000061000018000034000020DEM       STRAIGHT PARTY                                          DEMOCRATIC PARTY                      PRECINCT 2                                             01 
01030020006000207000035000063000031000053000025DEM       STRAIGHT PARTY                                          DEMOCRATIC PARTY                      PRECINCT 2A                                            01 
01030020007000135000013000063000014000034000011DEM       STRAIGHT PARTY                                          DEMOCRATIC PARTY                      PRECINCT 2B                                            01 
01030020008000141000029000053000047000001000011DEM       STRAIGHT PARTY                                          DEMOCRATIC PARTY                      PRECINCT 2C                                            01 
01030020009000072000022000010000016000005000019DEM       STRAIGHT PARTY                                          DEMOCRATIC PARTY                      PRECINCT 3                                             01 
01030020010000095000012000037000014000031000001DEM       STRAIGHT PARTY                                          DEMOCRATIC PARTY                      PRECINCT 3A                                            01 
01030020011000207000033000082000025000057000010DEM       STRAIGHT PARTY                                          DEMOCRATIC PARTY                      PRECINCT 3B                                            01 
01030020012000044000010000012000012000006000004DEM       STRAIGHT PARTY                                          DEMOCRATIC PARTY                      PRECINCT 3C                                            01 
01030020013000154000022000058000025000039000010DEM       STRAIGHT PARTY                                          DEMOCRATIC PARTY                      PRECINCT 3D                                            01 
01030020014000076000008000022000021000011000014DEM       STRAIGHT PARTY                                          DEMOCRATIC PARTY                      PRECINCT 4                                             01 
01030020015000241000025000085000060000059000012DEM       STRAIGHT PARTY                                          DEMOCRATIC PARTY                      PRECINCT 4A                                            01 
01030020016000057000012000008000011000020000006DEM       STRAIGHT PARTY                                          DEMOCRATIC PARTY                      PRECINCT 4B                                            01 
01030020017000125000013000042000019000041000010DEM       STRAIGHT PARTY                                          DEMOCRATIC PARTY                      PRECINCT 4C                                            01 
01030020018000000000000000000000000000000000000DEM       STRAIGHT PARTY                                          DEMOCRATIC PARTY                      FEDERAL ONLY                                           01 
01030030001000005000000000002000000000002000001LIB       STRAIGHT PARTY                                          LIBERTARIAN PARTY                     PRECINCT 1                                             01 
01030030002000005000000000000000003000001000001LIB       STRAIGHT PARTY                                          LIBERTARIAN PARTY                     PRECINCT 1A                                            01 
01030030003000001000000000000000000000001000000LIB       STRAIGHT PARTY                                          LIBERTARIAN PARTY                     PRECINCT 1B                                            01 
01030030004000005000000000001000001000003000000LIB       STRAIGHT PARTY                                          LIBERTARIAN PARTY                     PRECINCT 1C                                            01 
01030030005000006000002000001000000000003000000LIB       STRAIGHT PARTY                                          LIBERTARIAN PARTY                     PRECINCT 2                                             01 
01030030006000006000000000003000002000001000000LIB       STRAIGHT PARTY                                          LIBERTARIAN PARTY                     PRECINCT 2A                                            01 
01030030007000002000000000001000000000001000000LIB       STRAIGHT PARTY                                          LIBERTARIAN PARTY                     PRECINCT 2B                                            01 
01030030008000008000001000002000003000002000000LIB       STRAIGHT PARTY                                          LIBERTARIAN PARTY                     PRECINCT 2C                                            01 
01030030009000001000001000000000000000000000000LIB       STRAIGHT PARTY                                          LIBERTARIAN PARTY                     PRECINCT 3                                             01 
01030030010000001000000000001000000000000000000LIB       STRAIGHT PARTY                                          LIBERTARIAN PARTY                     PRECINCT 3A                                            01 
01030030011000004000000000000000002000002000000LIB       STRAIGHT PARTY                                          LIBERTARIAN PARTY                     PRECINCT 3B                                            01 
01030030012000003000000000002000000000001000000LIB       STRAIGHT PARTY                                          LIBERTARIAN PARTY                     PRECINCT 3C                                            01 
01030030013000003000000000000000001000002000000LIB       STRAIGHT PARTY                                          LIBERTARIAN PARTY                     PRECINCT 3D                                            01 
01030030014000002000000000000000001000001000000LIB       STRAIGHT PARTY                                          LIBERTARIAN PARTY                     PRECINCT 4                                             01 
01030030015000008000001000001000004000002000000LIB       STRAIGHT PARTY                                          LIBERTARIAN PARTY                     PRECINCT 4A                                            01 
01030030016000002000000000000000000000002000000LIB       STRAIGHT PARTY                                          LIBERTARIAN PARTY                     PRECINCT 4B                                            01 
01030030017000001000000000000000000000001000000LIB       STRAIGHT PARTY                                          LIBERTARIAN PARTY                     PRECINCT 4C                                            01 
01030030018000000000000000000000000000000000000LIB       STRAIGHT PARTY                                          LIBERTARIAN PARTY                     FEDERAL ONLY                                           01 
01030040001000001000000000000000001000000000000GRN       STRAIGHT PARTY                                          GREEN PARTY                           PRECINCT 1                                             01 
01030040002000002000000000000000000000002000000GRN       STRAIGHT PARTY                                          GREEN PARTY                           PRECINCT 1A                                            01 
01030040003000001000000000000000001000000000000GRN       STRAIGHT PARTY                                          GREEN PARTY                           PRECINCT 1B                                            01 
01030040004000002000000000000000001000001000000GRN       STRAIGHT PARTY                                          GREEN PARTY                           PRECINCT 1C                                            01 
01030040005000001000000000000000000000001000000GRN       STRAIGHT PARTY                                          GREEN PARTY                           PRECINCT 2                                             01 
01030040006000000000000000000000000000000000000GRN       STRAIGHT PARTY                                          GREEN PARTY                           PRECINCT 2A                                            01 
01030040007000001000000000000000001000000000000GRN       STRAIGHT PARTY                                          GREEN PARTY                           PRECINCT 2B                                            01 
01030040008000001000000000000000001000000000000GRN       STRAIGHT PARTY                                          GREEN PARTY                           PRECINCT 2C                                            01 
01030040009000000000000000000000000000000000000GRN       STRAIGHT PARTY                                          GREEN PARTY                           PRECINCT 3                                             01 
01030040010000000000000000000000000000000000000GRN       STRAIGHT PARTY                                          GREEN PARTY                           PRECINCT 3A                                            01 
01030040011000000000000000000000000000000000000GRN       STRAIGHT PARTY                                          GREEN PARTY                           PRECINCT 3B                                            01 
01030040012000000000000000000000000000000000000GRN       STRAIGHT PARTY                                          GREEN PARTY                           PRECINCT 3C                                            01 
01030040013000002000000000000000000000001000001GRN       STRAIGHT PARTY                                          GREEN PARTY                           PRECINCT 3D                                            01 
01030040014000001000000000000000001000000000000GRN       STRAIGHT PARTY                                          GREEN PARTY                           PRECINCT 4                                             01 
01030040015000000000000000000000000000000000000GRN       STRAIGHT PARTY                                          GREEN PARTY                           PRECINCT 4A                                            01 
01030040016000001000000000000000000000001000000GRN       STRAIGHT PARTY                                          GREEN PARTY                           PRECINCT 4B                                            01 
01030040017000000000000000000000000000000000000GRN       STRAIGHT PARTY                                          GREEN PARTY                           PRECINCT 4C                                            01 
01030040018000000000000000000000000000000000000GRN       STRAIGHT PARTY                                          GREEN PARTY                           FEDERAL ONLY                                           01 
01030050001000000000000000000000000000000000000          STRAIGHT PARTY                                          OVER VOTES                            PRECINCT 1                                             01 
01030050002000000000000000000000000000000000000          STRAIGHT PARTY                                          OVER VOTES                            PRECINCT 1A                                            01 
01030050003000000000000000000000000000000000000          STRAIGHT PARTY                                          OVER VOTES                            PRECINCT 1B                                            01 
01030050004000000000000000000000000000000000000          STRAIGHT PARTY                                          OVER VOTES                            PRECINCT 1C                                            01 
01030050005000000000000000000000000000000000000          STRAIGHT PARTY                                          OVER VOTES                            PRECINCT 2                                             01 
01030050006000000000000000000000000000000000000          STRAIGHT PARTY                                          OVER VOTES                            PRECINCT 2A                                            01 
01030050007000000000000000000000000000000000000          STRAIGHT PARTY                                          OVER VOTES                            PRECINCT 2B                                            01 
01030050008000001000000000000000000000000000001          STRAIGHT PARTY                                          OVER VOTES                            PRECINCT 2C                                            01 
01030050009000000000000000000000000000000000000          STRAIGHT PARTY                                          OVER VOTES                            PRECINCT 3                                             01 
01030050010000000000000000000000000000000000000          STRAIGHT PARTY                                          OVER VOTES                            PRECINCT 3A                                            01 
01030050011000001000000000000000001000000000000          STRAIGHT PARTY                                          OVER VOTES                            PRECINCT 3B                                            01 
01030050012000000000000000000000000000000000000          STRAIGHT PARTY                                          OVER VOTES                            PRECINCT 3C                                            01 
01030050013000000000000000000000000000000000000          STRAIGHT PARTY                                          OVER VOTES                            PRECINCT 3D                                            01 
01030050014000001000001000000000000000000000000          STRAIGHT PARTY                                          OVER VOTES                            PRECINCT 4                                             01 
01030050015000000000000000000000000000000000000          STRAIGHT PARTY                                          OVER VOTES                            PRECINCT 4A                                            01 
01030050016000000000000000000000000000000000000          STRAIGHT PARTY                                          OVER VOTES                            PRECINCT 4B                                            01 
01030050017000000000000000000000000000000000000          STRAIGHT PARTY                                          OVER VOTES                            PRECINCT 4C                                            01 
01030050018000000000000000000000000000000000000          STRAIGHT PARTY                                          OVER VOTES                            FEDERAL ONLY                                           01 
01030060001000821000122000304000152000215000028          STRAIGHT PARTY                                          UNDER VOTES                           PRECINCT 1                                             01 
01030060002000406000086000110000085000104000021          STRAIGHT PARTY                                          UNDER VOTES                           PRECINCT 1A                                            01 
01030060003000669000109000226000156000149000029          STRAIGHT PARTY                                          UNDER VOTES                           PRECINCT 1B                                            01 
01030060004000524000083000153000119000151000018          STRAIGHT PARTY                                          UNDER VOTES                           PRECINCT 1C                                            01 
01030060005000644000128000214000091000156000055          STRAIGHT PARTY                                          UNDER VOTES                           PRECINCT 2                                             01 
01030060006000594000103000189000129000137000036          STRAIGHT PARTY                                          UNDER VOTES                           PRECINCT 2A                                            01 
01030060007000248000025000069000073000075000006          STRAIGHT PARTY                                          UNDER VOTES                           PRECINCT 2B                                            01 
01030060008000800000187000196000382000009000026          STRAIGHT PARTY                                          UNDER VOTES                           PRECINCT 2C                                            01 
01030060009000047000011000011000009000011000005          STRAIGHT PARTY                                          UNDER VOTES                           PRECINCT 3                                             01 
01030060010000118000024000028000031000031000004          STRAIGHT PARTY                                          UNDER VOTES                           PRECINCT 3A                                            01 
01030060011000331000044000111000083000085000008          STRAIGHT PARTY                                          UNDER VOTES                           PRECINCT 3B                                            01 
01030060012000440000094000162000090000080000014          STRAIGHT PARTY                                          UNDER VOTES                           PRECINCT 3C                                            01 
01030060013000667000100000228000147000165000027          STRAIGHT PARTY                                          UNDER VOTES                           PRECINCT 3D                                            01 
01030060014000315000080000089000063000056000027          STRAIGHT PARTY                                          UNDER VOTES                           PRECINCT 4                                             01 
01030060015000619000079000169000251000098000022          STRAIGHT PARTY                                          UNDER VOTES                           PRECINCT 4A                                            01 
01030060016000183000043000026000061000046000007          STRAIGHT PARTY                                          UNDER VOTES                           PRECINCT 4B                                            01 
01030060017000312000038000085000090000084000015          STRAIGHT PARTY                                          UNDER VOTES                           PRECINCT 4C                                            01 
01030060018000000000000000000000000000000000000          STRAIGHT PARTY                                          UNDER VOTES                           FEDERAL ONLY                                           01 
01040010001001559000240000569000228000440000082REP       United States Senator                                   John Cornyn                           PRECINCT 1                                             01 
01040010002000864000136000261000166000242000059REP       United States Senator                                   John Cornyn                           PRECINCT 1A                                            01 
01040010003001362000194000424000303000362000079REP       United States Senator                                   John Cornyn                           PRECINCT 1B                                            01 
01040010004001165000182000362000220000353000048REP       United States Senator                                   John Cornyn                           PRECINCT 1C                                            01 
01040010005001357000270000490000161000298000138REP       United States Senator                                   John Cornyn                           PRECINCT 2                                             01 
01040010006001287000231000427000222000290000117REP       United States Senator                                   John Cornyn                           PRECINCT 2A                                            01 
01040010007000518000059000148000123000162000026REP       United States Senator                                   John Cornyn                           PRECINCT 2B                                            01 
01040010008001686000344000490000761000027000064REP       United States Senator                                   John Cornyn                           PRECINCT 2C                                            01 
01040010009000085000016000021000011000021000016REP       United States Senator                                   John Cornyn                           PRECINCT 3                                             01 
01040010010000217000033000042000037000089000016REP       United States Senator                                   John Cornyn                           PRECINCT 3A                                            01 
01040010011000623000067000198000150000190000018REP       United States Senator                                   John Cornyn                           PRECINCT 3B                                            01 
01040010012001008000171000370000169000241000057REP       United States Senator                                   John Cornyn                           PRECINCT 3C                                            01 
01040010013001581000213000532000328000439000069REP       United States Senator                                   John Cornyn                           PRECINCT 3D                                            01 
01040010014000750000153000224000174000141000058REP       United States Senator                                   John Cornyn                           PRECINCT 4                                             01 
01040010015001391000165000391000520000266000049REP       United States Senator                                   John Cornyn                           PRECINCT 4A                                            01 
01040010016000368000075000082000091000106000014REP       United States Senator                                   John Cornyn                           PRECINCT 4B                                            01 
01040010017000689000073000206000167000218000025REP       United States Senator                                   John Cornyn                           PRECINCT 4C                                            01 
01040010018000000000000000000000000000000000000REP       United States Senator                                   John Cornyn                           FEDERAL ONLY                                           01 
01040020001000353000062000148000040000076000027DEM       United States Senator                                   David M. Alameel                      PRECINCT 1                                             01 
01040020002000291000046000098000041000087000019DEM       United States Senator                                   David M. Alameel                      PRECINCT 1A                                            01 
01040020003000246000033000088000040000061000024DEM       United States Senator                                   David M. Alameel                      PRECINCT 1B                                            01 
01040020004000192000024000060000031000057000020DEM       United States Senator                                   David M. Alameel                      PRECINCT 1C                                            01 
01040020005000316000076000099000034000070000037DEM       United States Senator                                   David M. Alameel                      PRECINCT 2                                             01 
01040020006000333000058000103000058000083000031DEM       United States Senator                                   David M. Alameel                      PRECINCT 2A                                            01 
01040020007000192000021000080000031000047000013DEM       United States Senator                                   David M. Alameel                      PRECINCT 2B                                            01 
01040020008000284000061000091000112000004000016DEM       United States Senator                                   David M. Alameel                      PRECINCT 2C                                            01 
01040020009000087000025000012000019000010000021DEM       United States Senator                                   David M. Alameel                      PRECINCT 3                                             01 
01040020010000122000019000048000019000033000003DEM       United States Senator                                   David M. Alameel                      PRECINCT 3A                                            01 
01040020011000288000041000115000038000083000011DEM       United States Senator                                   David M. Alameel                      PRECINCT 3B                                            01 
01040020012000096000019000028000028000016000005DEM       United States Senator                                   David M. Alameel                      PRECINCT 3C                                            01 
01040020013000251000039000091000045000056000020DEM       United States Senator                                   David M. Alameel                      PRECINCT 3D                                            01 
01040020014000114000019000031000031000017000016DEM       United States Senator                                   David M. Alameel                      PRECINCT 4                                             01 
01040020015000372000036000117000113000086000020DEM       United States Senator                                   David M. Alameel                      PRECINCT 4A                                            01 
01040020016000081000023000009000020000022000007DEM       United States Senator                                   David M. Alameel                      PRECINCT 4B                                            01 
01040020017000175000020000051000034000056000014DEM       United States Senator                                   David M. Alameel                      PRECINCT 4C                                            01 
01040020018000000000000000000000000000000000000DEM       United States Senator                                   David M. Alameel                      FEDERAL ONLY                                           01 
01040030001000046000005000016000009000013000003LIB       United States Senator                                   Rebecca Paddock                       PRECINCT 1                                             01 
01040030002000024000002000006000008000006000002LIB       United States Senator                                   Rebecca Paddock                       PRECINCT 1A                                            01 
01040030003000047000008000015000013000011000000LIB       United States Senator                                   Rebecca Paddock                       PRECINCT 1B                                            01 
01040030004000027000002000006000010000009000000LIB       United States Senator                                   Rebecca Paddock                       PRECINCT 1C                                            01 
01040030005000041000006000010000006000017000002LIB       United States Senator                                   Rebecca Paddock                       PRECINCT 2                                             01 
01040030006000033000005000009000010000008000001LIB       United States Senator                                   Rebecca Paddock                       PRECINCT 2A                                            01 
01040030007000016000001000004000004000007000000LIB       United States Senator                                   Rebecca Paddock                       PRECINCT 2B                                            01 
01040030008000047000009000007000027000003000001LIB       United States Senator                                   Rebecca Paddock                       PRECINCT 2C                                            01 
01040030009000003000002000000000001000000000000LIB       United States Senator                                   Rebecca Paddock                       PRECINCT 3                                             01 
01040030010000017000004000002000006000005000000LIB       United States Senator                                   Rebecca Paddock                       PRECINCT 3A                                            01 
01040030011000018000002000002000006000007000001LIB       United States Senator                                   Rebecca Paddock                       PRECINCT 3B                                            01 
01040030012000014000001000003000006000004000000LIB       United States Senator                                   Rebecca Paddock                       PRECINCT 3C                                            01 
01040030013000038000010000007000006000015000000LIB       United States Senator                                   Rebecca Paddock                       PRECINCT 3D                                            01 
01040030014000017000005000004000003000005000000LIB       United States Senator                                   Rebecca Paddock                       PRECINCT 4                                             01 
01040030015000057000009000006000031000010000001LIB       United States Senator                                   Rebecca Paddock                       PRECINCT 4A                                            01 
01040030016000013000001000000000006000006000000LIB       United States Senator                                   Rebecca Paddock                       PRECINCT 4B                                            01 
01040030017000024000004000004000009000007000000LIB       United States Senator                                   Rebecca Paddock                       PRECINCT 4C                                            01 
01040030018000000000000000000000000000000000000LIB       United States Senator                                   Rebecca Paddock                       FEDERAL ONLY                                           01 
01040040001000012000001000004000003000004000000GRN       United States Senator                                   Emily "Spicybrown" Sanchez            PRECINCT 1                                             01 
01040040002000012000003000001000002000005000001GRN       United States Senator                                   Emily "Spicybrown" Sanchez            PRECINCT 1A                                            01 
01040040003000005000002000000000002000001000000GRN       United States Senator                                   Emily "Spicybrown" Sanchez            PRECINCT 1B                                            01 
01040040004000007000000000001000002000004000000GRN       United States Senator                                   Emily "Spicybrown" Sanchez            PRECINCT 1C                                            01 
01040040005000006000001000002000001000002000000GRN       United States Senator                                   Emily "Spicybrown" Sanchez            PRECINCT 2                                             01 
01040040006000010000001000002000002000005000000GRN       United States Senator                                   Emily "Spicybrown" Sanchez            PRECINCT 2A                                            01 
01040040007000006000000000001000003000002000000GRN       United States Senator                                   Emily "Spicybrown" Sanchez            PRECINCT 2B                                            01 
01040040008000011000002000002000007000000000000GRN       United States Senator                                   Emily "Spicybrown" Sanchez            PRECINCT 2C                                            01 
01040040009000002000000000000000001000001000000GRN       United States Senator                                   Emily "Spicybrown" Sanchez            PRECINCT 3                                             01 
01040040010000004000000000000000001000003000000GRN       United States Senator                                   Emily "Spicybrown" Sanchez            PRECINCT 3A                                            01 
01040040011000009000004000002000002000001000000GRN       United States Senator                                   Emily "Spicybrown" Sanchez            PRECINCT 3B                                            01 
01040040012000002000000000000000001000001000000GRN       United States Senator                                   Emily "Spicybrown" Sanchez            PRECINCT 3C                                            01 
01040040013000007000001000002000000000003000001GRN       United States Senator                                   Emily "Spicybrown" Sanchez            PRECINCT 3D                                            01 
01040040014000002000000000000000002000000000000GRN       United States Senator                                   Emily "Spicybrown" Sanchez            PRECINCT 4                                             01 
01040040015000009000000000003000003000003000000GRN       United States Senator                                   Emily "Spicybrown" Sanchez            PRECINCT 4A                                            01 
01040040016000004000000000000000001000003000000GRN       United States Senator                                   Emily "Spicybrown" Sanchez            PRECINCT 4B                                            01 
01040040017000005000000000000000002000003000000GRN       United States Senator                                   Emily "Spicybrown" Sanchez            PRECINCT 4C                                            01 
01040040018000000000000000000000000000000000000GRN       United States Senator                                   Emily "Spicybrown" Sanchez            FEDERAL ONLY                                           01 
01040050001000005000003000001000000000001000000NON       United States Senator                                   WRITE-IN                              PRECINCT 1                                             01 
01040050002000000000000000000000000000000000000NON       United States Senator                                   WRITE-IN                              PRECINCT 1A                                            01 
01040050003000001000000000001000000000000000000NON       United States Senator                                   WRITE-IN                              PRECINCT 1B                                            01 
01040050004000000000000000000000000000000000000NON       United States Senator                                   WRITE-IN                              PRECINCT 1C                                            01 
01040050005000000000000000000000000000000000000NON       United States Senator                                   WRITE-IN                              PRECINCT 2                                             01 
01040050006000000000000000000000000000000000000NON       United States Senator                                   WRITE-IN                              PRECINCT 2A                                            01 
01040050007000001000000000001000000000000000000NON       United States Senator                                   WRITE-IN                              PRECINCT 2B                                            01 
01040050008000005000000000002000003000000000000NON       United States Senator                                   WRITE-IN                              PRECINCT 2C                                            01 
01040050009000000000000000000000000000000000000NON       United States Senator                                   WRITE-IN                              PRECINCT 3                                             01 
01040050010000001000000000001000000000000000000NON       United States Senator                                   WRITE-IN                              PRECINCT 3A                                            01 
01040050011000000000000000000000000000000000000NON       United States Senator                                   WRITE-IN                              PRECINCT 3B                                            01 
01040050012000001000000000000000000000001000000NON       United States Senator                                   WRITE-IN                              PRECINCT 3C                                            01 
01040050013000001000000000000000000000001000000NON       United States Senator                                   WRITE-IN                              PRECINCT 3D                                            01 
01040050014000000000000000000000000000000000000NON       United States Senator                                   WRITE-IN                              PRECINCT 4                                             01 
01040050015000000000000000000000000000000000000NON       United States Senator                                   WRITE-IN                              PRECINCT 4A                                            01 
01040050016000003000001000000000002000000000000NON       United States Senator                                   WRITE-IN                              PRECINCT 4B                                            01 
01040050017000000000000000000000000000000000000NON       United States Senator                                   WRITE-IN                              PRECINCT 4C                                            01 
01040050018000000000000000000000000000000000000NON       United States Senator                                   WRITE-IN                              FEDERAL ONLY                                           01 
01040060001000000000000000000000000000000000000          United States Senator                                   OVER VOTES                            PRECINCT 1                                             01 
01040060002000000000000000000000000000000000000          United States Senator                                   OVER VOTES                            PRECINCT 1A                                            01 
01040060003000000000000000000000000000000000000          United States Senator                                   OVER VOTES                            PRECINCT 1B                                            01 
01040060004000000000000000000000000000000000000          United States Senator                                   OVER VOTES                            PRECINCT 1C                                            01 
01040060005000000000000000000000000000000000000          United States Senator                                   OVER VOTES                            PRECINCT 2                                             01 
01040060006000001000001000000000000000000000000          United States Senator                                   OVER VOTES                            PRECINCT 2A                                            01 
01040060007000000000000000000000000000000000000          United States Senator                                   OVER VOTES                            PRECINCT 2B                                            01 
01040060008000000000000000000000000000000000000          United States Senator                                   OVER VOTES                            PRECINCT 2C                                            01 
01040060009000000000000000000000000000000000000          United States Senator                                   OVER VOTES                            PRECINCT 3                                             01 
01040060010000000000000000000000000000000000000          United States Senator                                   OVER VOTES                            PRECINCT 3A                                            01 
01040060011000000000000000000000000000000000000          United States Senator                                   OVER VOTES                            PRECINCT 3B                                            01 
01040060012000000000000000000000000000000000000          United States Senator                                   OVER VOTES                            PRECINCT 3C                                            01 
01040060013000000000000000000000000000000000000          United States Senator                                   OVER VOTES                            PRECINCT 3D                                            01 
01040060014000000000000000000000000000000000000          United States Senator                                   OVER VOTES                            PRECINCT 4                                             01 
01040060015000000000000000000000000000000000000          United States Senator                                   OVER VOTES                            PRECINCT 4A                                            01 
01040060016000000000000000000000000000000000000          United States Senator                                   OVER VOTES                            PRECINCT 4B                                            01 
01040060017000000000000000000000000000000000000          United States Senator                                   OVER VOTES                            PRECINCT 4C                                            01 
01040060018000000000000000000000000000000000000          United States Senator                                   OVER VOTES                            FEDERAL ONLY                                           01 
01040070001000028000007000008000006000006000001          United States Senator                                   UNDER VOTES                           PRECINCT 1                                             01 
01040070002000018000004000004000002000006000002          United States Senator                                   UNDER VOTES                           PRECINCT 1A                                            01 
01040070003000026000006000007000007000006000000          United States Senator                                   UNDER VOTES                           PRECINCT 1B                                            01 
01040070004000012000001000003000001000006000001          United States Senator                                   UNDER VOTES                           PRECINCT 1C                                            01 
01040070005000019000002000009000001000004000003          United States Senator                                   UNDER VOTES                           PRECINCT 2                                             01 
01040070006000009000001000004000001000002000001          United States Senator                                   UNDER VOTES                           PRECINCT 2A                                            01 
01040070007000007000000000002000002000002000001          United States Senator                                   UNDER VOTES                           PRECINCT 2B                                            01 
01040070008000021000004000005000011000000000001          United States Senator                                   UNDER VOTES                           PRECINCT 2C                                            01 
01040070009000007000002000002000001000001000001          United States Senator                                   UNDER VOTES                           PRECINCT 3                                             01 
01040070010000005000001000002000001000001000000          United States Senator                                   UNDER VOTES                           PRECINCT 3A                                            01 
01040070011000013000001000003000004000005000000          United States Senator                                   UNDER VOTES                           PRECINCT 3B                                            01 
01040070012000017000003000008000003000003000000          United States Senator                                   UNDER VOTES                           PRECINCT 3C                                            01 
01040070013000020000003000006000003000007000001          United States Senator                                   UNDER VOTES                           PRECINCT 3D                                            01 
01040070014000008000002000002000002000002000000          United States Senator                                   UNDER VOTES                           PRECINCT 4                                             01 
01040070015000023000002000010000007000003000001          United States Senator                                   UNDER VOTES                           PRECINCT 4A                                            01 
01040070016000009000000000001000004000003000001          United States Senator                                   UNDER VOTES                           PRECINCT 4B                                            01 
01040070017000006000003000001000001000001000000          United States Senator                                   UNDER VOTES                           PRECINCT 4C                                            01 
01040070018000000000000000000000000000000000000          United States Senator                                   UNDER VOTES                           FEDERAL ONLY                                           01 
01050010001001595000234000603000222000455000081REP       US Representative, District 4                           John Ratcliffe                        PRECINCT 1                                             01 
01050010002000911000136000284000165000265000061REP       US Representative, District 4                           John Ratcliffe                        PRECINCT 1A                                            01 
01050010003001369000189000440000300000364000076REP       US Representative, District 4                           John Ratcliffe                        PRECINCT 1B                                            01 
01050010004001162000168000368000210000368000048REP       US Representative, District 4                           John Ratcliffe                        PRECINCT 1C                                            01 
01050010005001359000255000498000159000316000131REP       US Representative, District 4                           John Ratcliffe                        PRECINCT 2                                             01 
01050010006001323000228000437000230000314000114REP       US Representative, District 4                           John Ratcliffe                        PRECINCT 2A                                            01 
01050010007000540000060000158000123000174000025REP       US Representative, District 4                           John Ratcliffe                        PRECINCT 2B                                            01 
01050010008001702000333000507000768000030000064REP       US Representative, District 4                           John Ratcliffe                        PRECINCT 2C                                            01 
01050010009000092000017000021000014000024000016REP       US Representative, District 4                           John Ratcliffe                        PRECINCT 3                                             01 
01050010010000244000036000050000043000099000016REP       US Representative, District 4                           John Ratcliffe                        PRECINCT 3A                                            01 
01050010011000639000063000210000152000200000014REP       US Representative, District 4                           John Ratcliffe                        PRECINCT 3B                                            01 
01050010012000993000158000370000168000245000052REP       US Representative, District 4                           John Ratcliffe                        PRECINCT 3C                                            01 
01050010013001603000207000548000324000459000065REP       US Representative, District 4                           John Ratcliffe                        PRECINCT 3D                                            01 
01050010014000738000145000220000177000145000051REP       US Representative, District 4                           John Ratcliffe                        PRECINCT 4                                             01 
01050010015001441000159000404000541000289000048REP       US Representative, District 4                           John Ratcliffe                        PRECINCT 4A                                            01 
01050010016000365000071000080000090000111000013REP       US Representative, District 4                           John Ratcliffe                        PRECINCT 4B                                            01 
01050010017000709000070000211000172000235000021REP       US Representative, District 4                           John Ratcliffe                        PRECINCT 4C                                            01 
01050010018000000000000000000000000000000000000REP       US Representative, District 4                           John Ratcliffe                        FEDERAL ONLY                                           01 
01050020001000000000000000000000000000000000000          US Representative, District 4                           OVER VOTES                            PRECINCT 1                                             01 
01050020002000000000000000000000000000000000000          US Representative, District 4                           OVER VOTES                            PRECINCT 1A                                            01 
01050020003000000000000000000000000000000000000          US Representative, District 4                           OVER VOTES                            PRECINCT 1B                                            01 
01050020004000000000000000000000000000000000000          US Representative, District 4                           OVER VOTES                            PRECINCT 1C                                            01 
01050020005000000000000000000000000000000000000          US Representative, District 4                           OVER VOTES                            PRECINCT 2                                             01 
01050020006000000000000000000000000000000000000          US Representative, District 4                           OVER VOTES                            PRECINCT 2A                                            01 
01050020007000000000000000000000000000000000000          US Representative, District 4                           OVER VOTES                            PRECINCT 2B                                            01 
01050020008000000000000000000000000000000000000          US Representative, District 4                           OVER VOTES                            PRECINCT 2C                                            01 
01050020009000000000000000000000000000000000000          US Representative, District 4                           OVER VOTES                            PRECINCT 3                                             01 
01050020010000000000000000000000000000000000000          US Representative, District 4                           OVER VOTES                            PRECINCT 3A                                            01 
01050020011000000000000000000000000000000000000          US Representative, District 4                           OVER VOTES                            PRECINCT 3B                                            01 
01050020012000000000000000000000000000000000000          US Representative, District 4                           OVER VOTES                            PRECINCT 3C                                            01 
01050020013000000000000000000000000000000000000          US Representative, District 4                           OVER VOTES                            PRECINCT 3D                                            01 
01050020014000000000000000000000000000000000000          US Representative, District 4                           OVER VOTES                            PRECINCT 4                                             01 
01050020015000000000000000000000000000000000000          US Representative, District 4                           OVER VOTES                            PRECINCT 4A                                            01 
01050020016000000000000000000000000000000000000          US Representative, District 4                           OVER VOTES                            PRECINCT 4B                                            01 
01050020017000000000000000000000000000000000000          US Representative, District 4                           OVER VOTES                            PRECINCT 4C                                            01 
01050020018000000000000000000000000000000000000          US Representative, District 4                           OVER VOTES                            FEDERAL ONLY                                           01 
01050030001000405000081000143000064000085000032          US Representative, District 4                           UNDER VOTES                           PRECINCT 1                                             01 
01050030002000298000055000086000054000081000022          US Representative, District 4                           UNDER VOTES                           PRECINCT 1A                                            01 
01050030003000318000054000095000065000077000027          US Representative, District 4                           UNDER VOTES                           PRECINCT 1B                                            01 
01050030004000241000041000064000054000061000021          US Representative, District 4                           UNDER VOTES                           PRECINCT 1C                                            01 
01050030005000380000100000112000044000075000049          US Representative, District 4                           UNDER VOTES                           PRECINCT 2                                             01 
01050030006000350000069000108000063000074000036          US Representative, District 4                           UNDER VOTES                           PRECINCT 2A                                            01 
01050030007000200000021000078000040000046000015          US Representative, District 4                           UNDER VOTES                           PRECINCT 2B                                            01 
01050030008000352000087000090000153000004000018          US Representative, District 4                           UNDER VOTES                           PRECINCT 2C                                            01 
01050030009000092000028000014000019000009000022          US Representative, District 4                           UNDER VOTES                           PRECINCT 3                                             01 
01050030010000122000021000045000021000032000003          US Representative, District 4                           UNDER VOTES                           PRECINCT 3A                                            01 
01050030011000312000052000110000048000086000016          US Representative, District 4                           UNDER VOTES                           PRECINCT 3B                                            01 
01050030012000145000036000039000039000021000010          US Representative, District 4                           UNDER VOTES                           PRECINCT 3C                                            01 
01050030013000295000059000090000058000062000026          US Representative, District 4                           UNDER VOTES                           PRECINCT 3D                                            01 
01050030014000153000034000041000035000020000023          US Representative, District 4                           UNDER VOTES                           PRECINCT 4                                             01 
01050030015000411000053000123000133000079000023          US Representative, District 4                           UNDER VOTES                           PRECINCT 4A                                            01 
01050030016000113000029000012000034000029000009          US Representative, District 4                           UNDER VOTES                           PRECINCT 4B                                            01 
01050030017000190000030000051000041000050000018          US Representative, District 4                           UNDER VOTES                           PRECINCT 4C                                            01 
01050030018000000000000000000000000000000000000          US Representative, District 4                           UNDER VOTES                           FEDERAL ONLY                                           01 
01060010001001523000235000551000225000430000082REPCOROCKWGovenor                                                 Greg Abbott                           PRECINCT 1                                             01 
01060010002000849000137000251000166000236000059REPCOROCKWGovenor                                                 Greg Abbott                           PRECINCT 1A                                            01 
01060010003001324000196000421000286000349000072REPCOROCKWGovenor                                                 Greg Abbott                           PRECINCT 1B                                            01 
01060010004001117000176000350000207000340000044REPCOROCKWGovenor                                                 Greg Abbott                           PRECINCT 1C                                            01 
01060010005001292000253000469000153000287000130REPCOROCKWGovenor                                                 Greg Abbott                           PRECINCT 2                                             01 
01060010006001230000221000414000208000276000111REPCOROCKWGovenor                                                 Greg Abbott                           PRECINCT 2A                                            01 
01060010007000501000059000145000117000155000025REPCOROCKWGovenor                                                 Greg Abbott                           PRECINCT 2B                                            01 
01060010008001653000338000480000747000029000059REPCOROCKWGovenor                                                 Greg Abbott                           PRECINCT 2C                                            01 
01060010009000084000017000019000011000020000017REPCOROCKWGovenor                                                 Greg Abbott                           PRECINCT 3                                             01 
01060010010000226000037000044000039000089000017REPCOROCKWGovenor                                                 Greg Abbott                           PRECINCT 3A                                            01 
01060010011000604000065000195000146000183000015REPCOROCKWGovenor                                                 Greg Abbott                           PRECINCT 3B                                            01 
01060010012000995000166000366000172000237000054REPCOROCKWGovenor                                                 Greg Abbott                           PRECINCT 3C                                            01 
01060010013001570000215000526000317000446000066REPCOROCKWGovenor                                                 Greg Abbott                           PRECINCT 3D                                            01 
01060010014000731000151000220000168000139000053REPCOROCKWGovenor                                                 Greg Abbott                           PRECINCT 4                                             01 
01060010015001360000167000380000501000265000047REPCOROCKWGovenor                                                 Greg Abbott                           PRECINCT 4A                                            01 
01060010016000365000074000080000090000106000015REPCOROCKWGovenor                                                 Greg Abbott                           PRECINCT 4B                                            01 
01060010017000676000076000200000159000218000023REPCOROCKWGovenor                                                 Greg Abbott                           PRECINCT 4C                                            01 
01060020001000447000077000184000055000102000029DEMCOROCKWGovenor                                                 Wendy R. Davis                        PRECINCT 1                                             01 
01060020002000334000048000113000048000103000022DEMCOROCKWGovenor                                                 Wendy R. Davis                        PRECINCT 1A                                            01 
01060020003000324000042000108000062000084000028DEMCOROCKWGovenor                                                 Wendy R. Davis                        PRECINCT 1B                                            01 
01060020004000264000030000080000054000077000023DEMCOROCKWGovenor                                                 Wendy R. Davis                        PRECINCT 1C                                            01 
01060020005000409000096000132000045000091000045DEMCOROCKWGovenor                                                 Wendy R. Davis                        PRECINCT 2                                             01 
01060020006000411000071000121000078000105000036DEMCOROCKWGovenor                                                 Wendy R. Davis                        PRECINCT 2A                                            01 
01060020007000225000022000088000042000059000014DEMCOROCKWGovenor                                                 Wendy R. Davis                        PRECINCT 2B                                            01 
01060020008000359000075000113000149000004000018DEMCOROCKWGovenor                                                 Wendy R. Davis                        PRECINCT 2C                                            01 
01060020009000092000026000014000019000012000021DEMCOROCKWGovenor                                                 Wendy R. Davis                        PRECINCT 3                                             01 
01060020010000129000018000049000022000038000002DEMCOROCKWGovenor                                                 Wendy R. Davis                        PRECINCT 3A                                            01 
01060020011000332000049000123000049000097000014DEMCOROCKWGovenor                                                 Wendy R. Davis                        PRECINCT 3B                                            01 
01060020012000131000026000040000032000026000007DEMCOROCKWGovenor                                                 Wendy R. Davis                        PRECINCT 3C                                            01 
01060020013000300000048000106000056000067000023DEMCOROCKWGovenor                                                 Wendy R. Davis                        PRECINCT 3D                                            01 
01060020014000146000023000037000042000025000019DEMCOROCKWGovenor                                                 Wendy R. Davis                        PRECINCT 4                                             01 
01060020015000454000042000140000155000094000023DEMCOROCKWGovenor                                                 Wendy R. Davis                        PRECINCT 4A                                            01 
01060020016000103000026000012000028000030000007DEMCOROCKWGovenor                                                 Wendy R. Davis                        PRECINCT 4B                                            01 
01060020017000210000024000059000048000063000016DEMCOROCKWGovenor                                                 Wendy R. Davis                        PRECINCT 4C                                            01 
01060030001000017000001000005000004000005000002LIBCOROCKWGovenor                                                 Kathie Glass                          PRECINCT 1                                             01 
01060030002000015000002000003000004000005000001LIBCOROCKWGovenor                                                 Kathie Glass                          PRECINCT 1A                                            01 
01060030003000029000004000004000010000008000003LIBCOROCKWGovenor                                                 Kathie Glass                          PRECINCT 1B                                            01 
01060030004000014000002000002000002000008000000LIBCOROCKWGovenor                                                 Kathie Glass                          PRECINCT 1C                                            01 
01060030005000020000005000004000001000007000003LIBCOROCKWGovenor                                                 Kathie Glass                          PRECINCT 2                                             01 
01060030006000017000001000005000005000005000001LIBCOROCKWGovenor                                                 Kathie Glass                          PRECINCT 2A                                            01 
01060030007000010000000000002000003000005000000LIBCOROCKWGovenor                                                 Kathie Glass                          PRECINCT 2B                                            01 
01060030008000030000006000002000017000001000004LIBCOROCKWGovenor                                                 Kathie Glass                          PRECINCT 2C                                            01 
01060030009000003000001000000000001000001000000LIBCOROCKWGovenor                                                 Kathie Glass                          PRECINCT 3                                             01 
01060030010000008000001000002000002000003000000LIBCOROCKWGovenor                                                 Kathie Glass                          PRECINCT 3A                                            01 
01060030011000008000000000001000004000003000000LIBCOROCKWGovenor                                                 Kathie Glass                          PRECINCT 3B                                            01 
01060030012000008000002000002000001000002000001LIBCOROCKWGovenor                                                 Kathie Glass                          PRECINCT 3C                                            01 
01060030013000014000001000002000008000003000000LIBCOROCKWGovenor                                                 Kathie Glass                          PRECINCT 3D                                            01 
01060030014000008000002000004000002000000000000LIBCOROCKWGovenor                                                 Kathie Glass                          PRECINCT 4                                             01 
01060030015000029000002000002000018000007000000LIBCOROCKWGovenor                                                 Kathie Glass                          PRECINCT 4A                                            01 
01060030016000005000000000000000002000003000000LIBCOROCKWGovenor                                                 Kathie Glass                          PRECINCT 4B                                            01 
01060030017000009000000000002000003000004000000LIBCOROCKWGovenor                                                 Kathie Glass                          PRECINCT 4C                                            01 
01060040001000003000000000002000001000000000000GRNCOROCKWGovenor                                                 Brandon Parmer                        PRECINCT 1                                             01 
01060040002000002000000000001000000000001000000GRNCOROCKWGovenor                                                 Brandon Parmer                        PRECINCT 1A                                            01 
01060040003000005000000000002000003000000000000GRNCOROCKWGovenor                                                 Brandon Parmer                        PRECINCT 1B                                            01 
01060040004000002000000000000000000000002000000GRNCOROCKWGovenor                                                 Brandon Parmer                        PRECINCT 1C                                            01 
01060040005000002000001000000000000000001000000GRNCOROCKWGovenor                                                 Brandon Parmer                        PRECINCT 2                                             01 
01060040006000001000000000001000000000000000000GRNCOROCKWGovenor                                                 Brandon Parmer                        PRECINCT 2A                                            01 
01060040007000002000000000001000001000000000000GRNCOROCKWGovenor                                                 Brandon Parmer                        PRECINCT 2B                                            01 
01060040008000003000000000001000002000000000000GRNCOROCKWGovenor                                                 Brandon Parmer                        PRECINCT 2C                                            01 
01060040009000001000000000001000000000000000000GRNCOROCKWGovenor                                                 Brandon Parmer                        PRECINCT 3                                             01 
01060040010000000000000000000000000000000000000GRNCOROCKWGovenor                                                 Brandon Parmer                        PRECINCT 3A                                            01 
01060040011000004000000000001000001000002000000GRNCOROCKWGovenor                                                 Brandon Parmer                        PRECINCT 3B                                            01 
01060040012000000000000000000000000000000000000GRNCOROCKWGovenor                                                 Brandon Parmer                        PRECINCT 3C                                            01 
01060040013000008000001000003000001000001000002GRNCOROCKWGovenor                                                 Brandon Parmer                        PRECINCT 3D                                            01 
01060040014000001000000000000000000000001000000GRNCOROCKWGovenor                                                 Brandon Parmer                        PRECINCT 4                                             01 
01060040015000006000001000003000000000001000001GRNCOROCKWGovenor                                                 Brandon Parmer                        PRECINCT 4A                                            01 
01060040016000002000000000000000001000001000000GRNCOROCKWGovenor                                                 Brandon Parmer                        PRECINCT 4B                                            01 
01060040017000004000000000001000003000000000000GRNCOROCKWGovenor                                                 Brandon Parmer                        PRECINCT 4C                                            01 
01060050001000005000003000000000000000002000000NONCOROCKWGovenor                                                 WRITE-IN                              PRECINCT 1                                             01 
01060050002000003000002000000000001000000000000NONCOROCKWGovenor                                                 WRITE-IN                              PRECINCT 1A                                            01 
01060050003000004000001000000000003000000000000NONCOROCKWGovenor                                                 WRITE-IN                              PRECINCT 1B                                            01 
01060050004000001000001000000000000000000000000NONCOROCKWGovenor                                                 WRITE-IN                              PRECINCT 1C                                            01 
01060050005000001000000000000000001000000000000NONCOROCKWGovenor                                                 WRITE-IN                              PRECINCT 2                                             01 
01060050006000003000001000001000001000000000000NONCOROCKWGovenor                                                 WRITE-IN                              PRECINCT 2A                                            01 
01060050007000000000000000000000000000000000000NONCOROCKWGovenor                                                 WRITE-IN                              PRECINCT 2B                                            01 
01060050008000003000001000001000001000000000000NONCOROCKWGovenor                                                 WRITE-IN                              PRECINCT 2C                                            01 
01060050009000000000000000000000000000000000000NONCOROCKWGovenor                                                 WRITE-IN                              PRECINCT 3                                             01 
01060050010000002000001000000000000000001000000NONCOROCKWGovenor                                                 WRITE-IN                              PRECINCT 3A                                            01 
01060050011000000000000000000000000000000000000NONCOROCKWGovenor                                                 WRITE-IN                              PRECINCT 3B                                            01 
01060050012000000000000000000000000000000000000NONCOROCKWGovenor                                                 WRITE-IN                              PRECINCT 3C                                            01 
01060050013000001000001000000000000000000000000NONCOROCKWGovenor                                                 WRITE-IN                              PRECINCT 3D                                            01 
01060050014000002000000000000000000000000000002NONCOROCKWGovenor                                                 WRITE-IN                              PRECINCT 4                                             01 
01060050015000000000000000000000000000000000000NONCOROCKWGovenor                                                 WRITE-IN                              PRECINCT 4A                                            01 
01060050016000001000000000000000001000000000000NONCOROCKWGovenor                                                 WRITE-IN                              PRECINCT 4B                                            01 
01060050017000000000000000000000000000000000000NONCOROCKWGovenor                                                 WRITE-IN                              PRECINCT 4C                                            01 
01060060001000000000000000000000000000000000000   COROCKWGovenor                                                 OVER VOTES                            PRECINCT 1                                             01 
01060060002000000000000000000000000000000000000   COROCKWGovenor                                                 OVER VOTES                            PRECINCT 1A                                            01 
01060060003000000000000000000000000000000000000   COROCKWGovenor                                                 OVER VOTES                            PRECINCT 1B                                            01 
01060060004000001000000000000000001000000000000   COROCKWGovenor                                                 OVER VOTES                            PRECINCT 1C                                            01 
01060060005000000000000000000000000000000000000   COROCKWGovenor                                                 OVER VOTES                            PRECINCT 2                                             01 
01060060006000000000000000000000000000000000000   COROCKWGovenor                                                 OVER VOTES                            PRECINCT 2A                                            01 
01060060007000000000000000000000000000000000000   COROCKWGovenor                                                 OVER VOTES                            PRECINCT 2B                                            01 
01060060008000000000000000000000000000000000000   COROCKWGovenor                                                 OVER VOTES                            PRECINCT 2C                                            01 
01060060009000000000000000000000000000000000000   COROCKWGovenor                                                 OVER VOTES                            PRECINCT 3                                             01 
01060060010000000000000000000000000000000000000   COROCKWGovenor                                                 OVER VOTES                            PRECINCT 3A                                            01 
01060060011000001000000000000000000000000000001   COROCKWGovenor                                                 OVER VOTES                            PRECINCT 3B                                            01 
01060060012000000000000000000000000000000000000   COROCKWGovenor                                                 OVER VOTES                            PRECINCT 3C                                            01 
01060060013000000000000000000000000000000000000   COROCKWGovenor                                                 OVER VOTES                            PRECINCT 3D                                            01 
01060060014000000000000000000000000000000000000   COROCKWGovenor                                                 OVER VOTES                            PRECINCT 4                                             01 
01060060015000000000000000000000000000000000000   COROCKWGovenor                                                 OVER VOTES                            PRECINCT 4A                                            01 
01060060016000000000000000000000000000000000000   COROCKWGovenor                                                 OVER VOTES                            PRECINCT 4B                                            01 
01060060017000000000000000000000000000000000000   COROCKWGovenor                                                 OVER VOTES                            PRECINCT 4C                                            01 
01060070001000008000002000004000001000001000000   COROCKWGovenor                                                 UNDER VOTES                           PRECINCT 1                                             01 
01060070002000006000002000002000000000001000001   COROCKWGovenor                                                 UNDER VOTES                           PRECINCT 1A                                            01 
01060070003000001000000000000000001000000000000   COROCKWGovenor                                                 UNDER VOTES                           PRECINCT 1B                                            01 
01060070004000004000000000000000000000002000002   COROCKWGovenor                                                 UNDER VOTES                           PRECINCT 1C                                            01 
01060070005000015000000000005000003000005000002   COROCKWGovenor                                                 UNDER VOTES                           PRECINCT 2                                             01 
01060070006000011000003000003000001000002000002   COROCKWGovenor                                                 UNDER VOTES                           PRECINCT 2A                                            01 
01060070007000002000000000000000000000001000001   COROCKWGovenor                                                 UNDER VOTES                           PRECINCT 2B                                            01 
01060070008000006000000000000000005000000000001   COROCKWGovenor                                                 UNDER VOTES                           PRECINCT 2C                                            01 
01060070009000004000001000001000002000000000000   COROCKWGovenor                                                 UNDER VOTES                           PRECINCT 3                                             01 
01060070010000001000000000000000001000000000000   COROCKWGovenor                                                 UNDER VOTES                           PRECINCT 3A                                            01 
01060070011000002000001000000000000000001000000   COROCKWGovenor                                                 UNDER VOTES                           PRECINCT 3B                                            01 
01060070012000004000000000001000002000001000000   COROCKWGovenor                                                 UNDER VOTES                           PRECINCT 3C                                            01 
01060070013000005000000000001000000000004000000   COROCKWGovenor                                                 UNDER VOTES                           PRECINCT 3D                                            01 
01060070014000003000003000000000000000000000000   COROCKWGovenor                                                 UNDER VOTES                           PRECINCT 4                                             01 
01060070015000003000000000002000000000001000000   COROCKWGovenor                                                 UNDER VOTES                           PRECINCT 4A                                            01 
01060070016000002000000000000000002000000000000   COROCKWGovenor                                                 UNDER VOTES                           PRECINCT 4B                                            01 
01060070017000000000000000000000000000000000000   COROCKWGovenor                                                 UNDER VOTES                           PRECINCT 4C                                            01 
01070010001001490000235000546000219000412000078REPCOROCKWLieutenant Governor                                     Dan Patrick                           PRECINCT 1                                             01 
01070010002000833000134000249000163000230000057REPCOROCKWLieutenant Governor                                     Dan Patrick                           PRECINCT 1A                                            01 
01070010003001311000190000416000288000342000075REPCOROCKWLieutenant Governor                                     Dan Patrick                           PRECINCT 1B                                            01 
01070010004001089000169000335000208000330000047REPCOROCKWLieutenant Governor                                     Dan Patrick                           PRECINCT 1C                                            01 
01070010005001264000257000458000147000274000128REPCOROCKWLieutenant Governor                                     Dan Patrick                           PRECINCT 2                                             01 
01070010006001194000210000402000198000276000108REPCOROCKWLieutenant Governor                                     Dan Patrick                           PRECINCT 2A                                            01 
01070010007000504000057000145000119000159000024REPCOROCKWLieutenant Governor                                     Dan Patrick                           PRECINCT 2B                                            01 
01070010008001591000322000466000718000025000060REPCOROCKWLieutenant Governor                                     Dan Patrick                           PRECINCT 2C                                            01 
01070010009000088000018000020000011000022000017REPCOROCKWLieutenant Governor                                     Dan Patrick                           PRECINCT 3                                             01 
01070010010000222000037000045000039000087000014REPCOROCKWLieutenant Governor                                     Dan Patrick                           PRECINCT 3A                                            01 
01070010011000598000067000192000139000183000017REPCOROCKWLieutenant Governor                                     Dan Patrick                           PRECINCT 3B                                            01 
01070010012000967000162000348000169000236000052REPCOROCKWLieutenant Governor                                     Dan Patrick                           PRECINCT 3C                                            01 
01070010013001546000217000514000311000437000067REPCOROCKWLieutenant Governor                                     Dan Patrick                           PRECINCT 3D                                            01 
01070010014000707000140000218000164000135000050REPCOROCKWLieutenant Governor                                     Dan Patrick                           PRECINCT 4                                             01 
01070010015001355000168000379000498000262000048REPCOROCKWLieutenant Governor                                     Dan Patrick                           PRECINCT 4A                                            01 
01070010016000356000074000076000087000106000013REPCOROCKWLieutenant Governor                                     Dan Patrick                           PRECINCT 4B                                            01 
01070010017000682000075000200000163000219000025REPCOROCKWLieutenant Governor                                     Dan Patrick                           PRECINCT 4C                                            01 
01070020001000433000074000174000054000101000030DEMCOROCKWLieutenant Governor                                     Leticia Van de Putte                  PRECINCT 1                                             01 
01070020002000331000050000107000047000105000022DEMCOROCKWLieutenant Governor                                     Leticia Van de Putte                  PRECINCT 1A                                            01 
01070020003000310000039000107000058000081000025DEMCOROCKWLieutenant Governor                                     Leticia Van de Putte                  PRECINCT 1B                                            01 
01070020004000264000035000084000049000075000021DEMCOROCKWLieutenant Governor                                     Leticia Van de Putte                  PRECINCT 1C                                            01 
01070020005000411000090000130000045000097000049DEMCOROCKWLieutenant Governor                                     Leticia Van de Putte                  PRECINCT 2                                             01 
01070020006000410000077000123000074000099000037DEMCOROCKWLieutenant Governor                                     Leticia Van de Putte                  PRECINCT 2A                                            01 
01070020007000208000023000081000038000051000015DEMCOROCKWLieutenant Governor                                     Leticia Van de Putte                  PRECINCT 2B                                            01 
01070020008000382000085000119000154000006000018DEMCOROCKWLieutenant Governor                                     Leticia Van de Putte                  PRECINCT 2C                                            01 
01070020009000090000026000013000019000011000021DEMCOROCKWLieutenant Governor                                     Leticia Van de Putte                  PRECINCT 3                                             01 
01070020010000125000019000045000020000036000005DEMCOROCKWLieutenant Governor                                     Leticia Van de Putte                  PRECINCT 3A                                            01 
01070020011000322000046000121000050000092000013DEMCOROCKWLieutenant Governor                                     Leticia Van de Putte                  PRECINCT 3B                                            01 
01070020012000137000028000048000029000024000008DEMCOROCKWLieutenant Governor                                     Leticia Van de Putte                  PRECINCT 3C                                            01 
01070020013000296000047000112000051000065000021DEMCOROCKWLieutenant Governor                                     Leticia Van de Putte                  PRECINCT 3D                                            01 
