01010010001000900000000000000000000000000000000          REGISTERED VOTERS - TOTAL                               REGISTERED VOTERS - TOTAL             PCT 111                                                00 
01010010002002093000000000000000000000000000000          REGISTERED VOTERS - TOTAL                               REGISTERED VOTERS - TOTAL             PCT 112                                                00 
01010010003002871000000000000000000000000000000          REGISTERED VOTERS - TOTAL                               REGISTERED VOTERS - TOTAL             PCT 113                                                00 
01010010004001516000000000000000000000000000000          REGISTERED VOTERS - TOTAL                               REGISTERED VOTERS - TOTAL             PCT 114                                                00 
01010010005001002000000000000000000000000000000          REGISTERED VOTERS - TOTAL                               REGISTERED VOTERS - TOTAL             PCT 201                                                00 
01010010006000794000000000000000000000000000000          REGISTERED VOTERS - TOTAL                               REGISTERED VOTERS - TOTAL             PCT 212                                                00 
01010010007001920000000000000000000000000000000          REGISTERED VOTERS - TOTAL                               REGISTERED VOTERS - TOTAL             PCT 213                                                00 
01010010008002244000000000000000000000000000000          REGISTERED VOTERS - TOTAL                               REGISTERED VOTERS - TOTAL             PCT 214                                                00 
01010010009002134000000000000000000000000000000          REGISTERED VOTERS - TOTAL                               REGISTERED VOTERS - TOTAL             PCT 215                                                00 
01010010010001168000000000000000000000000000000          REGISTERED VOTERS - TOTAL                               REGISTERED VOTERS - TOTAL             PCT 302                                                00 
01010010011001794000000000000000000000000000000          REGISTERED VOTERS - TOTAL                               REGISTERED VOTERS - TOTAL             PCT 303                                                00 
01010010012000916000000000000000000000000000000          REGISTERED VOTERS - TOTAL                               REGISTERED VOTERS - TOTAL             PCT 314                                                00 
01010010013000766000000000000000000000000000000          REGISTERED VOTERS - TOTAL                               REGISTERED VOTERS - TOTAL             PCT 315                                                00 
01010010014000437000000000000000000000000000000          REGISTERED VOTERS - TOTAL                               REGISTERED VOTERS - TOTAL             PCT 316                                                00 
01010010015000717000000000000000000000000000000          REGISTERED VOTERS - TOTAL                               REGISTERED VOTERS - TOTAL             PCT 317                                                00 
01010010016001114000000000000000000000000000000          REGISTERED VOTERS - TOTAL                               REGISTERED VOTERS - TOTAL             PCT 318                                                00 
01010010017000359000000000000000000000000000000          REGISTERED VOTERS - TOTAL                               REGISTERED VOTERS - TOTAL             PCT 319                                                00 
01010010018001577000000000000000000000000000000          REGISTERED VOTERS - TOTAL                               REGISTERED VOTERS - TOTAL             PCT 404                                                00 
01010010019001271000000000000000000000000000000          REGISTERED VOTERS - TOTAL                               REGISTERED VOTERS - TOTAL             PCT 405                                                00 
01010010020000933000000000000000000000000000000          REGISTERED VOTERS - TOTAL                               REGISTERED VOTERS - TOTAL             PCT 416                                                00 
01010010021001432000000000000000000000000000000          REGISTERED VOTERS - TOTAL                               REGISTERED VOTERS - TOTAL             PCT 417                                                00 
01010010022002013000000000000000000000000000000          REGISTERED VOTERS - TOTAL                               REGISTERED VOTERS - TOTAL             PCT 418                                                00 
01020010001000210000021000089000000000100000000          BALLOTS CAST - TOTAL                                    BALLOTS CAST - TOTAL                  PCT 111                                                00 
01020010002000214000049000026000000000139000000          BALLOTS CAST - TOTAL                                    BALLOTS CAST - TOTAL                  PCT 112                                                00 
01020010003000347000051000088000000000208000000          BALLOTS CAST - TOTAL                                    BALLOTS CAST - TOTAL                  PCT 113                                                00 
01020010004000227000013000054000000000160000000          BALLOTS CAST - TOTAL                                    BALLOTS CAST - TOTAL                  PCT 114                                                00 
01020010005000233000035000116000000000082000000          BALLOTS CAST - TOTAL                                    BALLOTS CAST - TOTAL                  PCT 201                                                00 
01020010006000203000027000091000000000085000000          BALLOTS CAST - TOTAL                                    BALLOTS CAST - TOTAL                  PCT 212                                                00 
01020010007000263000048000069000000000146000000          BALLOTS CAST - TOTAL                                    BALLOTS CAST - TOTAL                  PCT 213                                                00 
01020010008000466000045000117000000000304000000          BALLOTS CAST - TOTAL                                    BALLOTS CAST - TOTAL                  PCT 214                                                00 
01020010009000466000036000164000000000266000000          BALLOTS CAST - TOTAL                                    BALLOTS CAST - TOTAL                  PCT 215                                                00 
01020010010000228000029000133000000000066000000          BALLOTS CAST - TOTAL                                    BALLOTS CAST - TOTAL                  PCT 302                                                00 
01020010011000259000032000136000000000091000000          BALLOTS CAST - TOTAL                                    BALLOTS CAST - TOTAL                  PCT 303                                                00 
01020010012000242000026000114000000000102000000          BALLOTS CAST - TOTAL                                    BALLOTS CAST - TOTAL                  PCT 314                                                00 
01020010013000139000016000050000000000073000000          BALLOTS CAST - TOTAL                                    BALLOTS CAST - TOTAL                  PCT 315                                                00 
01020010014000111000012000026000000000073000000          BALLOTS CAST - TOTAL                                    BALLOTS CAST - TOTAL                  PCT 316                                                00 
01020010015000074000013000005000000000056000000          BALLOTS CAST - TOTAL                                    BALLOTS CAST - TOTAL                  PCT 317                                                00 
01020010016000196000027000024000000000145000000          BALLOTS CAST - TOTAL                                    BALLOTS CAST - TOTAL                  PCT 318                                                00 
01020010017000046000003000007000000000036000000          BALLOTS CAST - TOTAL                                    BALLOTS CAST - TOTAL                  PCT 319                                                00 
01020010018000474000055000288000000000131000000          BALLOTS CAST - TOTAL                                    BALLOTS CAST - TOTAL                  PCT 404                                                00 
01020010019000331000050000200000000000081000000          BALLOTS CAST - TOTAL                                    BALLOTS CAST - TOTAL                  PCT 405                                                00 
01020010020000179000012000101000000000066000000          BALLOTS CAST - TOTAL                                    BALLOTS CAST - TOTAL                  PCT 416                                                00 
01020010021000187000013000060000000000114000000          BALLOTS CAST - TOTAL                                    BALLOTS CAST - TOTAL                  PCT 417                                                00 
01020010022000353000046000125000000000182000000          BALLOTS CAST - TOTAL                                    BALLOTS CAST - TOTAL                  PCT 418                                                00 
01030010001000194000021000083000000000090000000REP       BALLOTS CAST - REPUBLICAN PARTY                         BALLOTS CAST - REPUBLICAN PARTY       PCT 111                                                00 
01030010002000200000047000025000000000128000000REP       BALLOTS CAST - REPUBLICAN PARTY                         BALLOTS CAST - REPUBLICAN PARTY       PCT 112                                                00 
01030010003000321000051000082000000000188000000REP       BALLOTS CAST - REPUBLICAN PARTY                         BALLOTS CAST - REPUBLICAN PARTY       PCT 113                                                00 
01030010004000218000012000050000000000156000000REP       BALLOTS CAST - REPUBLICAN PARTY                         BALLOTS CAST - REPUBLICAN PARTY       PCT 114                                                00 
01030010005000230000035000115000000000080000000REP       BALLOTS CAST - REPUBLICAN PARTY                         BALLOTS CAST - REPUBLICAN PARTY       PCT 201                                                00 
01030010006000192000024000087000000000081000000REP       BALLOTS CAST - REPUBLICAN PARTY                         BALLOTS CAST - REPUBLICAN PARTY       PCT 212                                                00 
01030010007000248000048000066000000000134000000REP       BALLOTS CAST - REPUBLICAN PARTY                         BALLOTS CAST - REPUBLICAN PARTY       PCT 213                                                00 
01030010008000418000045000110000000000263000000REP       BALLOTS CAST - REPUBLICAN PARTY                         BALLOTS CAST - REPUBLICAN PARTY       PCT 214                                                00 
01030010009000414000034000150000000000230000000REP       BALLOTS CAST - REPUBLICAN PARTY                         BALLOTS CAST - REPUBLICAN PARTY       PCT 215                                                00 
01030010010000211000029000122000000000060000000REP       BALLOTS CAST - REPUBLICAN PARTY                         BALLOTS CAST - REPUBLICAN PARTY       PCT 302                                                00 
01030010011000231000030000120000000000081000000REP       BALLOTS CAST - REPUBLICAN PARTY                         BALLOTS CAST - REPUBLICAN PARTY       PCT 303                                                00 
01030010012000235000025000112000000000098000000REP       BALLOTS CAST - REPUBLICAN PARTY                         BALLOTS CAST - REPUBLICAN PARTY       PCT 314                                                00 
01030010013000136000016000050000000000070000000REP       BALLOTS CAST - REPUBLICAN PARTY                         BALLOTS CAST - REPUBLICAN PARTY       PCT 315                                                00 
01030010014000107000012000025000000000070000000REP       BALLOTS CAST - REPUBLICAN PARTY                         BALLOTS CAST - REPUBLICAN PARTY       PCT 316                                                00 
01030010015000063000013000005000000000045000000REP       BALLOTS CAST - REPUBLICAN PARTY                         BALLOTS CAST - REPUBLICAN PARTY       PCT 317                                                00 
01030010016000175000023000022000000000130000000REP       BALLOTS CAST - REPUBLICAN PARTY                         BALLOTS CAST - REPUBLICAN PARTY       PCT 318                                                00 
01030010017000039000003000007000000000029000000REP       BALLOTS CAST - REPUBLICAN PARTY                         BALLOTS CAST - REPUBLICAN PARTY       PCT 319                                                00 
01030010018000464000054000283000000000127000000REP       BALLOTS CAST - REPUBLICAN PARTY                         BALLOTS CAST - REPUBLICAN PARTY       PCT 404                                                00 
01030010019000315000049000189000000000077000000REP       BALLOTS CAST - REPUBLICAN PARTY                         BALLOTS CAST - REPUBLICAN PARTY       PCT 405                                                00 
01030010020000169000012000096000000000061000000REP       BALLOTS CAST - REPUBLICAN PARTY                         BALLOTS CAST - REPUBLICAN PARTY       PCT 416                                                00 
01030010021000172000012000057000000000103000000REP       BALLOTS CAST - REPUBLICAN PARTY                         BALLOTS CAST - REPUBLICAN PARTY       PCT 417                                                00 
01030010022000324000046000112000000000166000000REP       BALLOTS CAST - REPUBLICAN PARTY                         BALLOTS CAST - REPUBLICAN PARTY       PCT 418                                                00 
01040010001000016000000000006000000000010000000DEM       BALLOTS CAST - DEMOCRATIC PARTY                         BALLOTS CAST - DEMOCRATIC PARTY       PCT 111                                                00 
01040010002000014000002000001000000000011000000DEM       BALLOTS CAST - DEMOCRATIC PARTY                         BALLOTS CAST - DEMOCRATIC PARTY       PCT 112                                                00 
01040010003000026000000000006000000000020000000DEM       BALLOTS CAST - DEMOCRATIC PARTY                         BALLOTS CAST - DEMOCRATIC PARTY       PCT 113                                                00 
01040010004000009000001000004000000000004000000DEM       BALLOTS CAST - DEMOCRATIC PARTY                         BALLOTS CAST - DEMOCRATIC PARTY       PCT 114                                                00 
01040010005000003000000000001000000000002000000DEM       BALLOTS CAST - DEMOCRATIC PARTY                         BALLOTS CAST - DEMOCRATIC PARTY       PCT 201                                                00 
01040010006000011000003000004000000000004000000DEM       BALLOTS CAST - DEMOCRATIC PARTY                         BALLOTS CAST - DEMOCRATIC PARTY       PCT 212                                                00 
01040010007000015000000000003000000000012000000DEM       BALLOTS CAST - DEMOCRATIC PARTY                         BALLOTS CAST - DEMOCRATIC PARTY       PCT 213                                                00 
01040010008000048000000000007000000000041000000DEM       BALLOTS CAST - DEMOCRATIC PARTY                         BALLOTS CAST - DEMOCRATIC PARTY       PCT 214                                                00 
01040010009000052000002000014000000000036000000DEM       BALLOTS CAST - DEMOCRATIC PARTY                         BALLOTS CAST - DEMOCRATIC PARTY       PCT 215                                                00 
01040010010000017000000000011000000000006000000DEM       BALLOTS CAST - DEMOCRATIC PARTY                         BALLOTS CAST - DEMOCRATIC PARTY       PCT 302                                                00 
01040010011000028000002000016000000000010000000DEM       BALLOTS CAST - DEMOCRATIC PARTY                         BALLOTS CAST - DEMOCRATIC PARTY       PCT 303                                                00 
01040010012000007000001000002000000000004000000DEM       BALLOTS CAST - DEMOCRATIC PARTY                         BALLOTS CAST - DEMOCRATIC PARTY       PCT 314                                                00 
01040010013000003000000000000000000000003000000DEM       BALLOTS CAST - DEMOCRATIC PARTY                         BALLOTS CAST - DEMOCRATIC PARTY       PCT 315                                                00 
01040010014000004000000000001000000000003000000DEM       BALLOTS CAST - DEMOCRATIC PARTY                         BALLOTS CAST - DEMOCRATIC PARTY       PCT 316                                                00 
01040010015000011000000000000000000000011000000DEM       BALLOTS CAST - DEMOCRATIC PARTY                         BALLOTS CAST - DEMOCRATIC PARTY       PCT 317                                                00 
01040010016000021000004000002000000000015000000DEM       BALLOTS CAST - DEMOCRATIC PARTY                         BALLOTS CAST - DEMOCRATIC PARTY       PCT 318                                                00 
01040010017000007000000000000000000000007000000DEM       BALLOTS CAST - DEMOCRATIC PARTY                         BALLOTS CAST - DEMOCRATIC PARTY       PCT 319                                                00 
01040010018000010000001000005000000000004000000DEM       BALLOTS CAST - DEMOCRATIC PARTY                         BALLOTS CAST - DEMOCRATIC PARTY       PCT 404                                                00 
01040010019000016000001000011000000000004000000DEM       BALLOTS CAST - DEMOCRATIC PARTY                         BALLOTS CAST - DEMOCRATIC PARTY       PCT 405                                                00 
01040010020000010000000000005000000000005000000DEM       BALLOTS CAST - DEMOCRATIC PARTY                         BALLOTS CAST - DEMOCRATIC PARTY       PCT 416                                                00 
01040010021000015000001000003000000000011000000DEM       BALLOTS CAST - DEMOCRATIC PARTY                         BALLOTS CAST - DEMOCRATIC PARTY       PCT 417                                                00 
01040010022000029000000000013000000000016000000DEM       BALLOTS CAST - DEMOCRATIC PARTY                         BALLOTS CAST - DEMOCRATIC PARTY       PCT 418                                                00 
01050010001000007000003000000000000000004000000REP       US Senator RUSK COUNTYWIDE                              Chris Mapp                            PCT 111                                                01 
01050010002000001000000000001000000000000000000REP       US Senator RUSK COUNTYWIDE                              Chris Mapp                            PCT 112                                                01 
01050010003000006000000000002000000000004000000REP       US Senator RUSK COUNTYWIDE                              Chris Mapp                            PCT 113                                                01 
01050010004000005000000000001000000000004000000REP       US Senator RUSK COUNTYWIDE                              Chris Mapp                            PCT 114                                                01 
01050010005000007000000000005000000000002000000REP       US Senator RUSK COUNTYWIDE                              Chris Mapp                            PCT 201                                                01 
01050010006000010000000000003000000000007000000REP       US Senator RUSK COUNTYWIDE                              Chris Mapp                            PCT 212                                                01 
01050010007000008000002000002000000000004000000REP       US Senator RUSK COUNTYWIDE                              Chris Mapp                            PCT 213                                                01 
01050010008000009000001000002000000000006000000REP       US Senator RUSK COUNTYWIDE                              Chris Mapp                            PCT 214                                                01 
01050010009000012000000000006000000000006000000REP       US Senator RUSK COUNTYWIDE                              Chris Mapp                            PCT 215                                                01 
01050010010000005000000000005000000000000000000REP       US Senator RUSK COUNTYWIDE                              Chris Mapp                            PCT 302                                                01 
01050010011000005000000000002000000000003000000REP       US Senator RUSK COUNTYWIDE                              Chris Mapp                            PCT 303                                                01 
01050010012000006000000000004000000000002000000REP       US Senator RUSK COUNTYWIDE                              Chris Mapp                            PCT 314                                                01 
01050010013000004000000000002000000000002000000REP       US Senator RUSK COUNTYWIDE                              Chris Mapp                            PCT 315                                                01 
01050010014000002000000000001000000000001000000REP       US Senator RUSK COUNTYWIDE                              Chris Mapp                            PCT 316                                                01 
01050010015000002000000000000000000000002000000REP       US Senator RUSK COUNTYWIDE                              Chris Mapp                            PCT 317                                                01 
01050010016000006000000000000000000000006000000REP       US Senator RUSK COUNTYWIDE                              Chris Mapp                            PCT 318                                                01 
01050010017000001000000000000000000000001000000REP       US Senator RUSK COUNTYWIDE                              Chris Mapp                            PCT 319                                                01 
01050010018000010000001000007000000000002000000REP       US Senator RUSK COUNTYWIDE                              Chris Mapp                            PCT 404                                                01 
01050010019000006000002000002000000000002000000REP       US Senator RUSK COUNTYWIDE                              Chris Mapp                            PCT 405                                                01 
01050010020000005000001000002000000000002000000REP       US Senator RUSK COUNTYWIDE                              Chris Mapp                            PCT 416                                                01 
01050010021000003000000000002000000000001000000REP       US Senator RUSK COUNTYWIDE                              Chris Mapp                            PCT 417                                                01 
01050010022000010000004000003000000000003000000REP       US Senator RUSK COUNTYWIDE                              Chris Mapp                            PCT 418                                                01 
01050020001000009000000000005000000000004000000REP       US Senator RUSK COUNTYWIDE                              Linda Vega                            PCT 111                                                01 
01050020002000007000001000001000000000005000000REP       US Senator RUSK COUNTYWIDE                              Linda Vega                            PCT 112                                                01 
01050020003000008000001000003000000000004000000REP       US Senator RUSK COUNTYWIDE                              Linda Vega                            PCT 113                                                01 
01050020004000003000000000002000000000001000000REP       US Senator RUSK COUNTYWIDE                              Linda Vega                            PCT 114                                                01 
01050020005000007000000000001000000000006000000REP       US Senator RUSK COUNTYWIDE                              Linda Vega                            PCT 201                                                01 
01050020006000007000000000004000000000003000000REP       US Senator RUSK COUNTYWIDE                              Linda Vega                            PCT 212                                                01 
01050020007000007000000000001000000000006000000REP       US Senator RUSK COUNTYWIDE                              Linda Vega                            PCT 213                                                01 
01050020008000015000002000008000000000005000000REP       US Senator RUSK COUNTYWIDE                              Linda Vega                            PCT 214                                                01 
01050020009000025000002000003000000000020000000REP       US Senator RUSK COUNTYWIDE                              Linda Vega                            PCT 215                                                01 
01050020010000007000000000005000000000002000000REP       US Senator RUSK COUNTYWIDE                              Linda Vega                            PCT 302                                                01 
01050020011000012000001000006000000000005000000REP       US Senator RUSK COUNTYWIDE                              Linda Vega                            PCT 303                                                01 
01050020012000005000001000004000000000000000000REP       US Senator RUSK COUNTYWIDE                              Linda Vega                            PCT 314                                                01 
01050020013000003000000000000000000000003000000REP       US Senator RUSK COUNTYWIDE                              Linda Vega                            PCT 315                                                01 
01050020014000003000000000003000000000000000000REP       US Senator RUSK COUNTYWIDE                              Linda Vega                            PCT 316                                                01 
01050020015000002000001000000000000000001000000REP       US Senator RUSK COUNTYWIDE                              Linda Vega                            PCT 317                                                01 
01050020016000005000000000000000000000005000000REP       US Senator RUSK COUNTYWIDE                              Linda Vega                            PCT 318                                                01 
01050020017000000000000000000000000000000000000REP       US Senator RUSK COUNTYWIDE                              Linda Vega                            PCT 319                                                01 
01050020018000022000000000015000000000007000000REP       US Senator RUSK COUNTYWIDE                              Linda Vega                            PCT 404                                                01 
01050020019000003000000000002000000000001000000REP       US Senator RUSK COUNTYWIDE                              Linda Vega                            PCT 405                                                01 
01050020020000008000001000004000000000003000000REP       US Senator RUSK COUNTYWIDE                              Linda Vega                            PCT 416                                                01 
01050020021000005000000000004000000000001000000REP       US Senator RUSK COUNTYWIDE                              Linda Vega                            PCT 417                                                01 
01050020022000013000000000002000000000011000000REP       US Senator RUSK COUNTYWIDE                              Linda Vega                            PCT 418                                                01 
01050030001000001000000000001000000000000000000REP       US Senator RUSK COUNTYWIDE                              Reid Reasor                           PCT 111                                                01 
01050030002000004000001000001000000000002000000REP       US Senator RUSK COUNTYWIDE                              Reid Reasor                           PCT 112                                                01 
01050030003000003000000000001000000000002000000REP       US Senator RUSK COUNTYWIDE                              Reid Reasor                           PCT 113                                                01 
01050030004000001000000000000000000000001000000REP       US Senator RUSK COUNTYWIDE                              Reid Reasor                           PCT 114                                                01 
01050030005000001000000000001000000000000000000REP       US Senator RUSK COUNTYWIDE                              Reid Reasor                           PCT 201                                                01 
01050030006000002000000000000000000000002000000REP       US Senator RUSK COUNTYWIDE                              Reid Reasor                           PCT 212                                                01 
01050030007000001000000000001000000000000000000REP       US Senator RUSK COUNTYWIDE                              Reid Reasor                           PCT 213                                                01 
01050030008000007000001000001000000000005000000REP       US Senator RUSK COUNTYWIDE                              Reid Reasor                           PCT 214                                                01 
01050030009000004000001000001000000000002000000REP       US Senator RUSK COUNTYWIDE                              Reid Reasor                           PCT 215                                                01 
01050030010000000000000000000000000000000000000REP       US Senator RUSK COUNTYWIDE                              Reid Reasor                           PCT 302                                                01 
01050030011000003000001000002000000000000000000REP       US Senator RUSK COUNTYWIDE                              Reid Reasor                           PCT 303                                                01 
01050030012000002000001000000000000000001000000REP       US Senator RUSK COUNTYWIDE                              Reid Reasor                           PCT 314                                                01 
01050030013000001000000000000000000000001000000REP       US Senator RUSK COUNTYWIDE                              Reid Reasor                           PCT 315                                                01 
01050030014000001000000000000000000000001000000REP       US Senator RUSK COUNTYWIDE                              Reid Reasor                           PCT 316                                                01 
01050030015000000000000000000000000000000000000REP       US Senator RUSK COUNTYWIDE                              Reid Reasor                           PCT 317                                                01 
01050030016000001000000000000000000000001000000REP       US Senator RUSK COUNTYWIDE                              Reid Reasor                           PCT 318                                                01 
01050030017000001000000000000000000000001000000REP       US Senator RUSK COUNTYWIDE                              Reid Reasor                           PCT 319                                                01 
01050030018000001000000000001000000000000000000REP       US Senator RUSK COUNTYWIDE                              Reid Reasor                           PCT 404                                                01 
01050030019000002000000000002000000000000000000REP       US Senator RUSK COUNTYWIDE                              Reid Reasor                           PCT 405                                                01 
01050030020000000000000000000000000000000000000REP       US Senator RUSK COUNTYWIDE                              Reid Reasor                           PCT 416                                                01 
01050030021000004000000000003000000000001000000REP       US Senator RUSK COUNTYWIDE                              Reid Reasor                           PCT 417                                                01 
01050030022000003000000000002000000000001000000REP       US Senator RUSK COUNTYWIDE                              Reid Reasor                           PCT 418                                                01 
01050040001000001000000000001000000000000000000REP       US Senator RUSK COUNTYWIDE                              Ken Cope                              PCT 111                                                01 
01050040002000002000001000000000000000001000000REP       US Senator RUSK COUNTYWIDE                              Ken Cope                              PCT 112                                                01 
01050040003000005000000000000000000000005000000REP       US Senator RUSK COUNTYWIDE                              Ken Cope                              PCT 113                                                01 
01050040004000003000000000001000000000002000000REP       US Senator RUSK COUNTYWIDE                              Ken Cope                              PCT 114                                                01 
01050040005000003000000000002000000000001000000REP       US Senator RUSK COUNTYWIDE                              Ken Cope                              PCT 201                                                01 
01050040006000003000001000000000000000002000000REP       US Senator RUSK COUNTYWIDE                              Ken Cope                              PCT 212                                                01 
01050040007000002000000000001000000000001000000REP       US Senator RUSK COUNTYWIDE                              Ken Cope                              PCT 213                                                01 
01050040008000012000000000001000000000011000000REP       US Senator RUSK COUNTYWIDE                              Ken Cope                              PCT 214                                                01 
01050040009000009000001000005000000000003000000REP       US Senator RUSK COUNTYWIDE                              Ken Cope                              PCT 215                                                01 
01050040010000005000000000002000000000003000000REP       US Senator RUSK COUNTYWIDE                              Ken Cope                              PCT 302                                                01 
01050040011000003000001000000000000000002000000REP       US Senator RUSK COUNTYWIDE                              Ken Cope                              PCT 303                                                01 
01050040012000004000001000002000000000001000000REP       US Senator RUSK COUNTYWIDE                              Ken Cope                              PCT 314                                                01 
01050040013000006000000000001000000000005000000REP       US Senator RUSK COUNTYWIDE                              Ken Cope                              PCT 315                                                01 
01050040014000002000000000001000000000001000000REP       US Senator RUSK COUNTYWIDE                              Ken Cope                              PCT 316                                                01 
01050040015000003000000000000000000000003000000REP       US Senator RUSK COUNTYWIDE                              Ken Cope                              PCT 317                                                01 
01050040016000002000000000000000000000002000000REP       US Senator RUSK COUNTYWIDE                              Ken Cope                              PCT 318                                                01 
01050040017000000000000000000000000000000000000REP       US Senator RUSK COUNTYWIDE                              Ken Cope                              PCT 319                                                01 
01050040018000003000000000002000000000001000000REP       US Senator RUSK COUNTYWIDE                              Ken Cope                              PCT 404                                                01 
01050040019000008000000000005000000000003000000REP       US Senator RUSK COUNTYWIDE                              Ken Cope                              PCT 405                                                01 
01050040020000007000000000004000000000003000000REP       US Senator RUSK COUNTYWIDE                              Ken Cope                              PCT 416                                                01 
01050040021000003000000000000000000000003000000REP       US Senator RUSK COUNTYWIDE                              Ken Cope                              PCT 417                                                01 
01050040022000004000000000001000000000003000000REP       US Senator RUSK COUNTYWIDE                              Ken Cope                              PCT 418                                                01 
01050050001000001000000000000000000000001000000REP       US Senator RUSK COUNTYWIDE                              Curt Cleaver                          PCT 111                                                01 
01050050002000000000000000000000000000000000000REP       US Senator RUSK COUNTYWIDE                              Curt Cleaver                          PCT 112                                                01 
01050050003000003000000000000000000000003000000REP       US Senator RUSK COUNTYWIDE                              Curt Cleaver                          PCT 113                                                01 
01050050004000001000000000001000000000000000000REP       US Senator RUSK COUNTYWIDE                              Curt Cleaver                          PCT 114                                                01 
01050050005000001000000000000000000000001000000REP       US Senator RUSK COUNTYWIDE                              Curt Cleaver                          PCT 201                                                01 
01050050006000004000000000002000000000002000000REP       US Senator RUSK COUNTYWIDE                              Curt Cleaver                          PCT 212                                                01 
01050050007000002000000000000000000000002000000REP       US Senator RUSK COUNTYWIDE                              Curt Cleaver                          PCT 213                                                01 
01050050008000004000000000002000000000002000000REP       US Senator RUSK COUNTYWIDE                              Curt Cleaver                          PCT 214                                                01 
01050050009000004000000000002000000000002000000REP       US Senator RUSK COUNTYWIDE                              Curt Cleaver                          PCT 215                                                01 
01050050010000001000000000001000000000000000000REP       US Senator RUSK COUNTYWIDE                              Curt Cleaver                          PCT 302                                                01 
01050050011000003000000000003000000000000000000REP       US Senator RUSK COUNTYWIDE                              Curt Cleaver                          PCT 303                                                01 
01050050012000003000001000001000000000001000000REP       US Senator RUSK COUNTYWIDE                              Curt Cleaver                          PCT 314                                                01 
01050050013000001000000000001000000000000000000REP       US Senator RUSK COUNTYWIDE                              Curt Cleaver                          PCT 315                                                01 
01050050014000001000000000000000000000001000000REP       US Senator RUSK COUNTYWIDE                              Curt Cleaver                          PCT 316                                                01 
01050050015000000000000000000000000000000000000REP       US Senator RUSK COUNTYWIDE                              Curt Cleaver                          PCT 317                                                01 
01050050016000002000000000001000000000001000000REP       US Senator RUSK COUNTYWIDE                              Curt Cleaver                          PCT 318                                                01 
01050050017000001000000000000000000000001000000REP       US Senator RUSK COUNTYWIDE                              Curt Cleaver                          PCT 319                                                01 
01050050018000006000001000003000000000002000000REP       US Senator RUSK COUNTYWIDE                              Curt Cleaver                          PCT 404                                                01 
01050050019000005000000000002000000000003000000REP       US Senator RUSK COUNTYWIDE                              Curt Cleaver                          PCT 405                                                01 
01050050020000003000000000002000000000001000000REP       US Senator RUSK COUNTYWIDE                              Curt Cleaver                          PCT 416                                                01 
01050050021000000000000000000000000000000000000REP       US Senator RUSK COUNTYWIDE                              Curt Cleaver                          PCT 417                                                01 
01050050022000003000001000002000000000000000000REP       US Senator RUSK COUNTYWIDE                              Curt Cleaver                          PCT 418                                                01 
01050060001000106000015000046000000000045000000REP       US Senator RUSK COUNTYWIDE                              John Cornyn                           PCT 111                                                01 
01050060002000101000030000011000000000060000000REP       US Senator RUSK COUNTYWIDE                              John Cornyn                           PCT 112                                                01 
01050060003000202000043000054000000000105000000REP       US Senator RUSK COUNTYWIDE                              John Cornyn                           PCT 113                                                01 
01050060004000115000007000028000000000080000000REP       US Senator RUSK COUNTYWIDE                              John Cornyn                           PCT 114                                                01 
01050060005000151000035000074000000000042000000REP       US Senator RUSK COUNTYWIDE                              John Cornyn                           PCT 201                                                01 
01050060006000123000018000059000000000046000000REP       US Senator RUSK COUNTYWIDE                              John Cornyn                           PCT 212                                                01 
01050060007000138000038000037000000000063000000REP       US Senator RUSK COUNTYWIDE                              John Cornyn                           PCT 213                                                01 
01050060008000213000030000064000000000119000000REP       US Senator RUSK COUNTYWIDE                              John Cornyn                           PCT 214                                                01 
01050060009000232000024000090000000000118000000REP       US Senator RUSK COUNTYWIDE                              John Cornyn                           PCT 215                                                01 
01050060010000100000006000068000000000026000000REP       US Senator RUSK COUNTYWIDE                              John Cornyn                           PCT 302                                                01 
01050060011000119000013000067000000000039000000REP       US Senator RUSK COUNTYWIDE                              John Cornyn                           PCT 303                                                01 
01050060012000141000019000066000000000056000000REP       US Senator RUSK COUNTYWIDE                              John Cornyn                           PCT 314                                                01 
01050060013000074000015000027000000000032000000REP       US Senator RUSK COUNTYWIDE                              John Cornyn                           PCT 315                                                01 
01050060014000056000008000013000000000035000000REP       US Senator RUSK COUNTYWIDE                              John Cornyn                           PCT 316                                                01 
01050060015000030000010000002000000000018000000REP       US Senator RUSK COUNTYWIDE                              John Cornyn                           PCT 317                                                01 
01050060016000101000019000015000000000067000000REP       US Senator RUSK COUNTYWIDE                              John Cornyn                           PCT 318                                                01 
01050060017000009000000000002000000000007000000REP       US Senator RUSK COUNTYWIDE                              John Cornyn                           PCT 319                                                01 
01050060018000283000042000176000000000065000000REP       US Senator RUSK COUNTYWIDE                              John Cornyn                           PCT 404                                                01 
01050060019000196000042000122000000000032000000REP       US Senator RUSK COUNTYWIDE                              John Cornyn                           PCT 405                                                01 
01050060020000083000004000050000000000029000000REP       US Senator RUSK COUNTYWIDE                              John Cornyn                           PCT 416                                                01 
01050060021000099000010000032000000000057000000REP       US Senator RUSK COUNTYWIDE                              John Cornyn                           PCT 417                                                01 
01050060022000181000033000068000000000080000000REP       US Senator RUSK COUNTYWIDE                              John Cornyn                           PCT 418                                                01 
01050070001000024000001000009000000000014000000REP       US Senator RUSK COUNTYWIDE                              Dwayne Stovall                        PCT 111                                                01 
01050070002000052000010000006000000000036000000REP       US Senator RUSK COUNTYWIDE                              Dwayne Stovall                        PCT 112                                                01 
01050070003000035000001000010000000000024000000REP       US Senator RUSK COUNTYWIDE                              Dwayne Stovall                        PCT 113                                                01 
01050070004000054000002000006000000000046000000REP       US Senator RUSK COUNTYWIDE                              Dwayne Stovall                        PCT 114                                                01 
01050070005000010000000000006000000000004000000REP       US Senator RUSK COUNTYWIDE                              Dwayne Stovall                        PCT 201                                                01 
01050070006000008000001000003000000000004000000REP       US Senator RUSK COUNTYWIDE                              Dwayne Stovall                        PCT 212                                                01 
01050070007000027000001000010000000000016000000REP       US Senator RUSK COUNTYWIDE                              Dwayne Stovall                        PCT 213                                                01 
01050070008000037000002000008000000000027000000REP       US Senator RUSK COUNTYWIDE                              Dwayne Stovall                        PCT 214                                                01 
01050070009000025000000000005000000000020000000REP       US Senator RUSK COUNTYWIDE                              Dwayne Stovall                        PCT 215                                                01 
01050070010000017000001000012000000000004000000REP       US Senator RUSK COUNTYWIDE                              Dwayne Stovall                        PCT 302                                                01 
01050070011000015000001000005000000000009000000REP       US Senator RUSK COUNTYWIDE                              Dwayne Stovall                        PCT 303                                                01 
01050070012000016000000000008000000000008000000REP       US Senator RUSK COUNTYWIDE                              Dwayne Stovall                        PCT 314                                                01 
01050070013000009000000000003000000000006000000REP       US Senator RUSK COUNTYWIDE                              Dwayne Stovall                        PCT 315                                                01 
01050070014000013000000000001000000000012000000REP       US Senator RUSK COUNTYWIDE                              Dwayne Stovall                        PCT 316                                                01 
01050070015000005000001000002000000000002000000REP       US Senator RUSK COUNTYWIDE                              Dwayne Stovall                        PCT 317                                                01 
01050070016000013000000000004000000000009000000REP       US Senator RUSK COUNTYWIDE                              Dwayne Stovall                        PCT 318                                                01 
01050070017000011000000000000000000000011000000REP       US Senator RUSK COUNTYWIDE                              Dwayne Stovall                        PCT 319                                                01 
01050070018000037000002000022000000000013000000REP       US Senator RUSK COUNTYWIDE                              Dwayne Stovall                        PCT 404                                                01 
01050070019000023000000000014000000000009000000REP       US Senator RUSK COUNTYWIDE                              Dwayne Stovall                        PCT 405                                                01 
01050070020000020000004000009000000000007000000REP       US Senator RUSK COUNTYWIDE                              Dwayne Stovall                        PCT 416                                                01 
01050070021000022000000000006000000000016000000REP       US Senator RUSK COUNTYWIDE                              Dwayne Stovall                        PCT 417                                                01 
01050070022000049000003000016000000000030000000REP       US Senator RUSK COUNTYWIDE                              Dwayne Stovall                        PCT 418                                                01 
01050080001000021000000000011000000000010000000REP       US Senator RUSK COUNTYWIDE                              Steve Stockman                        PCT 111                                                01 
01050080002000027000004000004000000000019000000REP       US Senator RUSK COUNTYWIDE                              Steve Stockman                        PCT 112                                                01 
01050080003000044000004000006000000000034000000REP       US Senator RUSK COUNTYWIDE                              Steve Stockman                        PCT 113                                                01 
01050080004000027000001000009000000000017000000REP       US Senator RUSK COUNTYWIDE                              Steve Stockman                        PCT 114                                                01 
01050080005000022000000000010000000000012000000REP       US Senator RUSK COUNTYWIDE                              Steve Stockman                        PCT 201                                                01 
01050080006000016000001000008000000000007000000REP       US Senator RUSK COUNTYWIDE                              Steve Stockman                        PCT 212                                                01 
01050080007000030000000000005000000000025000000REP       US Senator RUSK COUNTYWIDE                              Steve Stockman                        PCT 213                                                01 
01050080008000067000006000004000000000057000000REP       US Senator RUSK COUNTYWIDE                              Steve Stockman                        PCT 214                                                01 
01050080009000050000001000016000000000033000000REP       US Senator RUSK COUNTYWIDE                              Steve Stockman                        PCT 215                                                01 
01050080010000018000001000006000000000011000000REP       US Senator RUSK COUNTYWIDE                              Steve Stockman                        PCT 302                                                01 
01050080011000017000000000005000000000012000000REP       US Senator RUSK COUNTYWIDE                              Steve Stockman                        PCT 303                                                01 
01050080012000038000001000016000000000021000000REP       US Senator RUSK COUNTYWIDE                              Steve Stockman                        PCT 314                                                01 
01050080013000029000001000012000000000016000000REP       US Senator RUSK COUNTYWIDE                              Steve Stockman                        PCT 315                                                01 
01050080014000022000001000005000000000016000000REP       US Senator RUSK COUNTYWIDE                              Steve Stockman                        PCT 316                                                01 
01050080015000018000001000000000000000017000000REP       US Senator RUSK COUNTYWIDE                              Steve Stockman                        PCT 317                                                01 
01050080016000033000003000001000000000029000000REP       US Senator RUSK COUNTYWIDE                              Steve Stockman                        PCT 318                                                01 
01050080017000009000000000003000000000006000000REP       US Senator RUSK COUNTYWIDE                              Steve Stockman                        PCT 319                                                01 
01050080018000037000003000021000000000013000000REP       US Senator RUSK COUNTYWIDE                              Steve Stockman                        PCT 404                                                01 
01050080019000026000001000013000000000012000000REP       US Senator RUSK COUNTYWIDE                              Steve Stockman                        PCT 405                                                01 
01050080020000025000002000012000000000011000000REP       US Senator RUSK COUNTYWIDE                              Steve Stockman                        PCT 416                                                01 
01050080021000024000001000006000000000017000000REP       US Senator RUSK COUNTYWIDE                              Steve Stockman                        PCT 417                                                01 
01050080022000041000003000009000000000029000000REP       US Senator RUSK COUNTYWIDE                              Steve Stockman                        PCT 418                                                01 
01050090001000000000000000000000000000000000000REP       US Senator RUSK COUNTYWIDE                              OVER VOTES                            PCT 111                                                01 
01050090002000000000000000000000000000000000000REP       US Senator RUSK COUNTYWIDE                              OVER VOTES                            PCT 112                                                01 
01050090003000000000000000000000000000000000000REP       US Senator RUSK COUNTYWIDE                              OVER VOTES                            PCT 113                                                01 
01050090004000000000000000000000000000000000000REP       US Senator RUSK COUNTYWIDE                              OVER VOTES                            PCT 114                                                01 
01050090005000000000000000000000000000000000000REP       US Senator RUSK COUNTYWIDE                              OVER VOTES                            PCT 201                                                01 
01050090006000000000000000000000000000000000000REP       US Senator RUSK COUNTYWIDE                              OVER VOTES                            PCT 212                                                01 
01050090007000001000001000000000000000000000000REP       US Senator RUSK COUNTYWIDE                              OVER VOTES                            PCT 213                                                01 
01050090008000000000000000000000000000000000000REP       US Senator RUSK COUNTYWIDE                              OVER VOTES                            PCT 214                                                01 
01050090009000000000000000000000000000000000000REP       US Senator RUSK COUNTYWIDE                              OVER VOTES                            PCT 215                                                01 
01050090010000000000000000000000000000000000000REP       US Senator RUSK COUNTYWIDE                              OVER VOTES                            PCT 302                                                01 
01050090011000000000000000000000000000000000000REP       US Senator RUSK COUNTYWIDE                              OVER VOTES                            PCT 303                                                01 
01050090012000000000000000000000000000000000000REP       US Senator RUSK COUNTYWIDE                              OVER VOTES                            PCT 314                                                01 
01050090013000000000000000000000000000000000000REP       US Senator RUSK COUNTYWIDE                              OVER VOTES                            PCT 315                                                01 
01050090014000000000000000000000000000000000000REP       US Senator RUSK COUNTYWIDE                              OVER VOTES                            PCT 316                                                01 
01050090015000000000000000000000000000000000000REP       US Senator RUSK COUNTYWIDE                              OVER VOTES                            PCT 317                                                01 
01050090016000000000000000000000000000000000000REP       US Senator RUSK COUNTYWIDE                              OVER VOTES                            PCT 318                                                01 
01050090017000000000000000000000000000000000000REP       US Senator RUSK COUNTYWIDE                              OVER VOTES                            PCT 319                                                01 
01050090018000000000000000000000000000000000000REP       US Senator RUSK COUNTYWIDE                              OVER VOTES                            PCT 404                                                01 
01050090019000000000000000000000000000000000000REP       US Senator RUSK COUNTYWIDE                              OVER VOTES                            PCT 405                                                01 
01050090020000000000000000000000000000000000000REP       US Senator RUSK COUNTYWIDE                              OVER VOTES                            PCT 416                                                01 
01050090021000000000000000000000000000000000000REP       US Senator RUSK COUNTYWIDE                              OVER VOTES                            PCT 417                                                01 
01050090022000000000000000000000000000000000000REP       US Senator RUSK COUNTYWIDE                              OVER VOTES                            PCT 418                                                01 
01050100001000024000002000010000000000012000000REP       US Senator RUSK COUNTYWIDE                              UNDER VOTES                           PCT 111                                                01 
01050100002000006000000000001000000000005000000REP       US Senator RUSK COUNTYWIDE                              UNDER VOTES                           PCT 112                                                01 
01050100003000015000002000006000000000007000000REP       US Senator RUSK COUNTYWIDE                              UNDER VOTES                           PCT 113                                                01 
01050100004000009000002000002000000000005000000REP       US Senator RUSK COUNTYWIDE                              UNDER VOTES                           PCT 114                                                01 
01050100005000028000000000016000000000012000000REP       US Senator RUSK COUNTYWIDE                              UNDER VOTES                           PCT 201                                                01 
01050100006000019000003000008000000000008000000REP       US Senator RUSK COUNTYWIDE                              UNDER VOTES                           PCT 212                                                01 
01050100007000032000006000009000000000017000000REP       US Senator RUSK COUNTYWIDE                              UNDER VOTES                           PCT 213                                                01 
01050100008000054000003000020000000000031000000REP       US Senator RUSK COUNTYWIDE                              UNDER VOTES                           PCT 214                                                01 
01050100009000053000005000022000000000026000000REP       US Senator RUSK COUNTYWIDE                              UNDER VOTES                           PCT 215                                                01 
01050100010000058000021000023000000000014000000REP       US Senator RUSK COUNTYWIDE                              UNDER VOTES                           PCT 302                                                01 
01050100011000054000013000030000000000011000000REP       US Senator RUSK COUNTYWIDE                              UNDER VOTES                           PCT 303                                                01 
01050100012000020000001000011000000000008000000REP       US Senator RUSK COUNTYWIDE                              UNDER VOTES                           PCT 314                                                01 
01050100013000009000000000004000000000005000000REP       US Senator RUSK COUNTYWIDE                              UNDER VOTES                           PCT 315                                                01 
01050100014000007000003000001000000000003000000REP       US Senator RUSK COUNTYWIDE                              UNDER VOTES                           PCT 316                                                01 
01050100015000003000000000001000000000002000000REP       US Senator RUSK COUNTYWIDE                              UNDER VOTES                           PCT 317                                                01 
01050100016000012000001000001000000000010000000REP       US Senator RUSK COUNTYWIDE                              UNDER VOTES                           PCT 318                                                01 
01050100017000007000003000002000000000002000000REP       US Senator RUSK COUNTYWIDE                              UNDER VOTES                           PCT 319                                                01 
01050100018000065000005000036000000000024000000REP       US Senator RUSK COUNTYWIDE                              UNDER VOTES                           PCT 404                                                01 
01050100019000046000004000027000000000015000000REP       US Senator RUSK COUNTYWIDE                              UNDER VOTES                           PCT 405                                                01 
01050100020000018000000000013000000000005000000REP       US Senator RUSK COUNTYWIDE                              UNDER VOTES                           PCT 416                                                01 
01050100021000012000001000004000000000007000000REP       US Senator RUSK COUNTYWIDE                              UNDER VOTES                           PCT 417                                                01 
01050100022000020000002000009000000000009000000REP       US Senator RUSK COUNTYWIDE                              UNDER VOTES                           PCT 418                                                01 
01060010001000159000015000063000000000081000000REP       US Representative, DIST 1 RUSK COUNTYWIDE               Louie Gohmert                         PCT 111                                                01 
01060010002000179000044000023000000000112000000REP       US Representative, DIST 1 RUSK COUNTYWIDE               Louie Gohmert                         PCT 112                                                01 
01060010003000283000044000066000000000173000000REP       US Representative, DIST 1 RUSK COUNTYWIDE               Louie Gohmert                         PCT 113                                                01 
01060010004000188000009000044000000000135000000REP       US Representative, DIST 1 RUSK COUNTYWIDE               Louie Gohmert                         PCT 114                                                01 
01060010005000196000030000098000000000068000000REP       US Representative, DIST 1 RUSK COUNTYWIDE               Louie Gohmert                         PCT 201                                                01 
01060010006000148000018000067000000000063000000REP       US Representative, DIST 1 RUSK COUNTYWIDE               Louie Gohmert                         PCT 212                                                01 
01060010007000202000039000055000000000108000000REP       US Representative, DIST 1 RUSK COUNTYWIDE               Louie Gohmert                         PCT 213                                                01 
01060010008000328000039000082000000000207000000REP       US Representative, DIST 1 RUSK COUNTYWIDE               Louie Gohmert                         PCT 214                                                01 
01060010009000341000027000118000000000196000000REP       US Representative, DIST 1 RUSK COUNTYWIDE               Louie Gohmert                         PCT 215                                                01 
01060010010000135000006000087000000000042000000REP       US Representative, DIST 1 RUSK COUNTYWIDE               Louie Gohmert                         PCT 302                                                01 
01060010011000160000015000080000000000065000000REP       US Representative, DIST 1 RUSK COUNTYWIDE               Louie Gohmert                         PCT 303                                                01 
01060010012000191000020000090000000000081000000REP       US Representative, DIST 1 RUSK COUNTYWIDE               Louie Gohmert                         PCT 314                                                01 
01060010013000113000013000041000000000059000000REP       US Representative, DIST 1 RUSK COUNTYWIDE               Louie Gohmert                         PCT 315                                                01 
01060010014000093000011000024000000000058000000REP       US Representative, DIST 1 RUSK COUNTYWIDE               Louie Gohmert                         PCT 316                                                01 
01060010015000059000013000005000000000041000000REP       US Representative, DIST 1 RUSK COUNTYWIDE               Louie Gohmert                         PCT 317                                                01 
01060010016000144000018000016000000000110000000REP       US Representative, DIST 1 RUSK COUNTYWIDE               Louie Gohmert                         PCT 318                                                01 
01060010017000031000000000006000000000025000000REP       US Representative, DIST 1 RUSK COUNTYWIDE               Louie Gohmert                         PCT 319                                                01 
01060010018000384000046000231000000000107000000REP       US Representative, DIST 1 RUSK COUNTYWIDE               Louie Gohmert                         PCT 404                                                01 
01060010019000265000043000155000000000067000000REP       US Representative, DIST 1 RUSK COUNTYWIDE               Louie Gohmert                         PCT 405                                                01 
01060010020000138000009000083000000000046000000REP       US Representative, DIST 1 RUSK COUNTYWIDE               Louie Gohmert                         PCT 416                                                01 
01060010021000148000011000046000000000091000000REP       US Representative, DIST 1 RUSK COUNTYWIDE               Louie Gohmert                         PCT 417                                                01 
01060010022000286000044000100000000000142000000REP       US Representative, DIST 1 RUSK COUNTYWIDE               Louie Gohmert                         PCT 418                                                01 
01060020001000000000000000000000000000000000000REP       US Representative, DIST 1 RUSK COUNTYWIDE               OVER VOTES                            PCT 111                                                01 
01060020002000000000000000000000000000000000000REP       US Representative, DIST 1 RUSK COUNTYWIDE               OVER VOTES                            PCT 112                                                01 
01060020003000000000000000000000000000000000000REP       US Representative, DIST 1 RUSK COUNTYWIDE               OVER VOTES                            PCT 113                                                01 
01060020004000000000000000000000000000000000000REP       US Representative, DIST 1 RUSK COUNTYWIDE               OVER VOTES                            PCT 114                                                01 
01060020005000000000000000000000000000000000000REP       US Representative, DIST 1 RUSK COUNTYWIDE               OVER VOTES                            PCT 201                                                01 
01060020006000000000000000000000000000000000000REP       US Representative, DIST 1 RUSK COUNTYWIDE               OVER VOTES                            PCT 212                                                01 
01060020007000000000000000000000000000000000000REP       US Representative, DIST 1 RUSK COUNTYWIDE               OVER VOTES                            PCT 213                                                01 
01060020008000000000000000000000000000000000000REP       US Representative, DIST 1 RUSK COUNTYWIDE               OVER VOTES                            PCT 214                                                01 
01060020009000000000000000000000000000000000000REP       US Representative, DIST 1 RUSK COUNTYWIDE               OVER VOTES                            PCT 215                                                01 
01060020010000000000000000000000000000000000000REP       US Representative, DIST 1 RUSK COUNTYWIDE               OVER VOTES                            PCT 302                                                01 
01060020011000000000000000000000000000000000000REP       US Representative, DIST 1 RUSK COUNTYWIDE               OVER VOTES                            PCT 303                                                01 
01060020012000000000000000000000000000000000000REP       US Representative, DIST 1 RUSK COUNTYWIDE               OVER VOTES                            PCT 314                                                01 
01060020013000000000000000000000000000000000000REP       US Representative, DIST 1 RUSK COUNTYWIDE               OVER VOTES                            PCT 315                                                01 
01060020014000000000000000000000000000000000000REP       US Representative, DIST 1 RUSK COUNTYWIDE               OVER VOTES                            PCT 316                                                01 
01060020015000000000000000000000000000000000000REP       US Representative, DIST 1 RUSK COUNTYWIDE               OVER VOTES                            PCT 317                                                01 
01060020016000000000000000000000000000000000000REP       US Representative, DIST 1 RUSK COUNTYWIDE               OVER VOTES                            PCT 318                                                01 
01060020017000000000000000000000000000000000000REP       US Representative, DIST 1 RUSK COUNTYWIDE               OVER VOTES                            PCT 319                                                01 
01060020018000000000000000000000000000000000000REP       US Representative, DIST 1 RUSK COUNTYWIDE               OVER VOTES                            PCT 404                                                01 
01060020019000000000000000000000000000000000000REP       US Representative, DIST 1 RUSK COUNTYWIDE               OVER VOTES                            PCT 405                                                01 
01060020020000000000000000000000000000000000000REP       US Representative, DIST 1 RUSK COUNTYWIDE               OVER VOTES                            PCT 416                                                01 
01060020021000000000000000000000000000000000000REP       US Representative, DIST 1 RUSK COUNTYWIDE               OVER VOTES                            PCT 417                                                01 
01060020022000000000000000000000000000000000000REP       US Representative, DIST 1 RUSK COUNTYWIDE               OVER VOTES                            PCT 418                                                01 
01060030001000035000006000020000000000009000000REP       US Representative, DIST 1 RUSK COUNTYWIDE               UNDER VOTES                           PCT 111                                                01 
01060030002000021000003000002000000000016000000REP       US Representative, DIST 1 RUSK COUNTYWIDE               UNDER VOTES                           PCT 112                                                01 
01060030003000038000007000016000000000015000000REP       US Representative, DIST 1 RUSK COUNTYWIDE               UNDER VOTES                           PCT 113                                                01 
01060030004000030000003000006000000000021000000REP       US Representative, DIST 1 RUSK COUNTYWIDE               UNDER VOTES                           PCT 114                                                01 
01060030005000034000005000017000000000012000000REP       US Representative, DIST 1 RUSK COUNTYWIDE               UNDER VOTES                           PCT 201                                                01 
01060030006000044000006000020000000000018000000REP       US Representative, DIST 1 RUSK COUNTYWIDE               UNDER VOTES                           PCT 212                                                01 
01060030007000046000009000011000000000026000000REP       US Representative, DIST 1 RUSK COUNTYWIDE               UNDER VOTES                           PCT 213                                                01 
01060030008000090000006000028000000000056000000REP       US Representative, DIST 1 RUSK COUNTYWIDE               UNDER VOTES                           PCT 214                                                01 
01060030009000073000007000032000000000034000000REP       US Representative, DIST 1 RUSK COUNTYWIDE               UNDER VOTES                           PCT 215                                                01 
01060030010000076000023000035000000000018000000REP       US Representative, DIST 1 RUSK COUNTYWIDE               UNDER VOTES                           PCT 302                                                01 
01060030011000071000015000040000000000016000000REP       US Representative, DIST 1 RUSK COUNTYWIDE               UNDER VOTES                           PCT 303                                                01 
01060030012000044000005000022000000000017000000REP       US Representative, DIST 1 RUSK COUNTYWIDE               UNDER VOTES                           PCT 314                                                01 
01060030013000023000003000009000000000011000000REP       US Representative, DIST 1 RUSK COUNTYWIDE               UNDER VOTES                           PCT 315                                                01 
01060030014000014000001000001000000000012000000REP       US Representative, DIST 1 RUSK COUNTYWIDE               UNDER VOTES                           PCT 316                                                01 
01060030015000004000000000000000000000004000000REP       US Representative, DIST 1 RUSK COUNTYWIDE               UNDER VOTES                           PCT 317                                                01 
01060030016000031000005000006000000000020000000REP       US Representative, DIST 1 RUSK COUNTYWIDE               UNDER VOTES                           PCT 318                                                01 
01060030017000008000003000001000000000004000000REP       US Representative, DIST 1 RUSK COUNTYWIDE               UNDER VOTES                           PCT 319                                                01 
01060030018000080000008000052000000000020000000REP       US Representative, DIST 1 RUSK COUNTYWIDE               UNDER VOTES                           PCT 404                                                01 
01060030019000050000006000034000000000010000000REP       US Representative, DIST 1 RUSK COUNTYWIDE               UNDER VOTES                           PCT 405                                                01 
01060030020000031000003000013000000000015000000REP       US Representative, DIST 1 RUSK COUNTYWIDE               UNDER VOTES                           PCT 416                                                01 
01060030021000024000001000011000000000012000000REP       US Representative, DIST 1 RUSK COUNTYWIDE               UNDER VOTES                           PCT 417                                                01 
01060030022000038000002000012000000000024000000REP       US Representative, DIST 1 RUSK COUNTYWIDE               UNDER VOTES                           PCT 418                                                01 
01070010001000160000015000066000000000079000000REP       Governor RUSK COUNTYWIDE                                Greg Abbott                           PCT 111                                                01 
01070010002000176000045000022000000000109000000REP       Governor RUSK COUNTYWIDE                                Greg Abbott                           PCT 112                                                01 
01070010003000291000047000071000000000173000000REP       Governor RUSK COUNTYWIDE                                Greg Abbott                           PCT 113                                                01 
01070010004000195000008000042000000000145000000REP       Governor RUSK COUNTYWIDE                                Greg Abbott                           PCT 114                                                01 
01070010005000205000035000103000000000067000000REP       Governor RUSK COUNTYWIDE                                Greg Abbott                           PCT 201                                                01 
01070010006000157000019000071000000000067000000REP       Governor RUSK COUNTYWIDE                                Greg Abbott                           PCT 212                                                01 
01070010007000218000041000056000000000121000000REP       Governor RUSK COUNTYWIDE                                Greg Abbott                           PCT 213                                                01 
01070010008000348000043000084000000000221000000REP       Governor RUSK COUNTYWIDE                                Greg Abbott                           PCT 214                                                01 
01070010009000340000028000125000000000187000000REP       Governor RUSK COUNTYWIDE                                Greg Abbott                           PCT 215                                                01 
01070010010000144000006000096000000000042000000REP       Governor RUSK COUNTYWIDE                                Greg Abbott                           PCT 302                                                01 
01070010011000157000014000083000000000060000000REP       Governor RUSK COUNTYWIDE                                Greg Abbott                           PCT 303                                                01 
01070010012000202000021000093000000000088000000REP       Governor RUSK COUNTYWIDE                                Greg Abbott                           PCT 314                                                01 
01070010013000124000015000043000000000066000000REP       Governor RUSK COUNTYWIDE                                Greg Abbott                           PCT 315                                                01 
01070010014000094000012000022000000000060000000REP       Governor RUSK COUNTYWIDE                                Greg Abbott                           PCT 316                                                01 
01070010015000057000012000004000000000041000000REP       Governor RUSK COUNTYWIDE                                Greg Abbott                           PCT 317                                                01 
01070010016000158000022000021000000000115000000REP       Governor RUSK COUNTYWIDE                                Greg Abbott                           PCT 318                                                01 
01070010017000028000000000004000000000024000000REP       Governor RUSK COUNTYWIDE                                Greg Abbott                           PCT 319                                                01 
01070010018000397000051000240000000000106000000REP       Governor RUSK COUNTYWIDE                                Greg Abbott                           PCT 404                                                01 
01070010019000277000047000163000000000067000000REP       Governor RUSK COUNTYWIDE                                Greg Abbott                           PCT 405                                                01 
01070010020000138000010000077000000000051000000REP       Governor RUSK COUNTYWIDE                                Greg Abbott                           PCT 416                                                01 
01070010021000155000011000049000000000095000000REP       Governor RUSK COUNTYWIDE                                Greg Abbott                           PCT 417                                                01 
01070010022000283000043000098000000000142000000REP       Governor RUSK COUNTYWIDE                                Greg Abbott                           PCT 418                                                01 
01070020001000005000002000001000000000002000000REP       Governor RUSK COUNTYWIDE                                SECEDE Kilgore                        PCT 111                                                01 
01070020002000004000000000001000000000003000000REP       Governor RUSK COUNTYWIDE                                SECEDE Kilgore                        PCT 112                                                01 
01070020003000003000000000001000000000002000000REP       Governor RUSK COUNTYWIDE                                SECEDE Kilgore                        PCT 113                                                01 
01070020004000003000000000002000000000001000000REP       Governor RUSK COUNTYWIDE                                SECEDE Kilgore                        PCT 114                                                01 
01070020005000001000000000000000000000001000000REP       Governor RUSK COUNTYWIDE                                SECEDE Kilgore                        PCT 201                                                01 
01070020006000006000000000003000000000003000000REP       Governor RUSK COUNTYWIDE                                SECEDE Kilgore                        PCT 212                                                01 
01070020007000002000000000000000000000002000000REP       Governor RUSK COUNTYWIDE                                SECEDE Kilgore                        PCT 213                                                01 
01070020008000007000000000003000000000004000000REP       Governor RUSK COUNTYWIDE                                SECEDE Kilgore                        PCT 214                                                01 
01070020009000007000000000002000000000005000000REP       Governor RUSK COUNTYWIDE                                SECEDE Kilgore                        PCT 215                                                01 
01070020010000004000000000002000000000002000000REP       Governor RUSK COUNTYWIDE                                SECEDE Kilgore                        PCT 302                                                01 
01070020011000003000000000001000000000002000000REP       Governor RUSK COUNTYWIDE                                SECEDE Kilgore                        PCT 303                                                01 
01070020012000002000000000002000000000000000000REP       Governor RUSK COUNTYWIDE                                SECEDE Kilgore                        PCT 314                                                01 
01070020013000004000001000001000000000002000000REP       Governor RUSK COUNTYWIDE                                SECEDE Kilgore                        PCT 315                                                01 
01070020014000002000000000000000000000002000000REP       Governor RUSK COUNTYWIDE                                SECEDE Kilgore                        PCT 316                                                01 
01070020015000001000000000000000000000001000000REP       Governor RUSK COUNTYWIDE                                SECEDE Kilgore                        PCT 317                                                01 
01070020016000001000000000000000000000001000000REP       Governor RUSK COUNTYWIDE                                SECEDE Kilgore                        PCT 318                                                01 
01070020017000001000000000000000000000001000000REP       Governor RUSK COUNTYWIDE                                SECEDE Kilgore                        PCT 319                                                01 
01070020018000006000000000004000000000002000000REP       Governor RUSK COUNTYWIDE                                SECEDE Kilgore                        PCT 404                                                01 
01070020019000004000000000003000000000001000000REP       Governor RUSK COUNTYWIDE                                SECEDE Kilgore                        PCT 405                                                01 
01070020020000001000000000001000000000000000000REP       Governor RUSK COUNTYWIDE                                SECEDE Kilgore                        PCT 416                                                01 
01070020021000000000000000000000000000000000000REP       Governor RUSK COUNTYWIDE                                SECEDE Kilgore                        PCT 417                                                01 
01070020022000004000000000000000000000004000000REP       Governor RUSK COUNTYWIDE                                SECEDE Kilgore                        PCT 418                                                01 
01070030001000004000002000002000000000000000000REP       Governor RUSK COUNTYWIDE                                Miriam Martinez                       PCT 111                                                01 
01070030002000003000000000000000000000003000000REP       Governor RUSK COUNTYWIDE                                Miriam Martinez                       PCT 112                                                01 
01070030003000004000000000002000000000002000000REP       Governor RUSK COUNTYWIDE                                Miriam Martinez                       PCT 113                                                01 
01070030004000003000000000002000000000001000000REP       Governor RUSK COUNTYWIDE                                Miriam Martinez                       PCT 114                                                01 
01070030005000000000000000000000000000000000000REP       Governor RUSK COUNTYWIDE                                Miriam Martinez                       PCT 201                                                01 
01070030006000005000001000001000000000003000000REP       Governor RUSK COUNTYWIDE                                Miriam Martinez                       PCT 212                                                01 
01070030007000002000000000002000000000000000000REP       Governor RUSK COUNTYWIDE                                Miriam Martinez                       PCT 213                                                01 
01070030008000010000000000004000000000006000000REP       Governor RUSK COUNTYWIDE                                Miriam Martinez                       PCT 214                                                01 
01070030009000011000001000001000000000009000000REP       Governor RUSK COUNTYWIDE                                Miriam Martinez                       PCT 215                                                01 
01070030010000005000000000003000000000002000000REP       Governor RUSK COUNTYWIDE                                Miriam Martinez                       PCT 302                                                01 
01070030011000008000001000003000000000004000000REP       Governor RUSK COUNTYWIDE                                Miriam Martinez                       PCT 303                                                01 
01070030012000006000001000004000000000001000000REP       Governor RUSK COUNTYWIDE                                Miriam Martinez                       PCT 314                                                01 
01070030013000000000000000000000000000000000000REP       Governor RUSK COUNTYWIDE                                Miriam Martinez                       PCT 315                                                01 
01070030014000002000000000000000000000002000000REP       Governor RUSK COUNTYWIDE                                Miriam Martinez                       PCT 316                                                01 
01070030015000001000000000000000000000001000000REP       Governor RUSK COUNTYWIDE                                Miriam Martinez                       PCT 317                                                01 
01070030016000003000000000000000000000003000000REP       Governor RUSK COUNTYWIDE                                Miriam Martinez                       PCT 318                                                01 
01070030017000000000000000000000000000000000000REP       Governor RUSK COUNTYWIDE                                Miriam Martinez                       PCT 319                                                01 
01070030018000011000000000007000000000004000000REP       Governor RUSK COUNTYWIDE                                Miriam Martinez                       PCT 404                                                01 
01070030019000001000000000001000000000000000000REP       Governor RUSK COUNTYWIDE                                Miriam Martinez                       PCT 405                                                01 
01070030020000003000000000002000000000001000000REP       Governor RUSK COUNTYWIDE                                Miriam Martinez                       PCT 416                                                01 
01070030021000002000000000002000000000000000000REP       Governor RUSK COUNTYWIDE                                Miriam Martinez                       PCT 417                                                01 
01070030022000007000000000003000000000004000000REP       Governor RUSK COUNTYWIDE                                Miriam Martinez                       PCT 418                                                01 
01070040001000008000000000006000000000002000000REP       Governor RUSK COUNTYWIDE                                Lisa Fritsch                          PCT 111                                                01 
01070040002000008000001000001000000000006000000REP       Governor RUSK COUNTYWIDE                                Lisa Fritsch                          PCT 112                                                01 
01070040003000011000001000003000000000007000000REP       Governor RUSK COUNTYWIDE                                Lisa Fritsch                          PCT 113                                                01 
01070040004000007000001000003000000000003000000REP       Governor RUSK COUNTYWIDE                                Lisa Fritsch                          PCT 114                                                01 
01070040005000007000000000002000000000005000000REP       Governor RUSK COUNTYWIDE                                Lisa Fritsch                          PCT 201                                                01 
01070040006000008000001000004000000000003000000REP       Governor RUSK COUNTYWIDE                                Lisa Fritsch                          PCT 212                                                01 
01070040007000006000002000000000000000004000000REP       Governor RUSK COUNTYWIDE                                Lisa Fritsch                          PCT 213                                                01 
01070040008000015000002000005000000000008000000REP       Governor RUSK COUNTYWIDE                                Lisa Fritsch                          PCT 214                                                01 
01070040009000017000001000006000000000010000000REP       Governor RUSK COUNTYWIDE                                Lisa Fritsch                          PCT 215                                                01 
01070040010000006000000000004000000000002000000REP       Governor RUSK COUNTYWIDE                                Lisa Fritsch                          PCT 302                                                01 
01070040011000008000000000007000000000001000000REP       Governor RUSK COUNTYWIDE                                Lisa Fritsch                          PCT 303                                                01 
01070040012000005000002000002000000000001000000REP       Governor RUSK COUNTYWIDE                                Lisa Fritsch                          PCT 314                                                01 
01070040013000003000000000002000000000001000000REP       Governor RUSK COUNTYWIDE                                Lisa Fritsch                          PCT 315                                                01 
01070040014000005000000000003000000000002000000REP       Governor RUSK COUNTYWIDE                                Lisa Fritsch                          PCT 316                                                01 
01070040015000004000001000001000000000002000000REP       Governor RUSK COUNTYWIDE                                Lisa Fritsch                          PCT 317                                                01 
01070040016000006000000000001000000000005000000REP       Governor RUSK COUNTYWIDE                                Lisa Fritsch                          PCT 318                                                01 
01070040017000003000000000001000000000002000000REP       Governor RUSK COUNTYWIDE                                Lisa Fritsch                          PCT 319                                                01 
01070040018000014000000000009000000000005000000REP       Governor RUSK COUNTYWIDE                                Lisa Fritsch                          PCT 404                                                01 
01070040019000005000000000004000000000001000000REP       Governor RUSK COUNTYWIDE                                Lisa Fritsch                          PCT 405                                                01 
01070040020000010000001000006000000000003000000REP       Governor RUSK COUNTYWIDE                                Lisa Fritsch                          PCT 416                                                01 
01070040021000008000000000002000000000006000000REP       Governor RUSK COUNTYWIDE                                Lisa Fritsch                          PCT 417                                                01 
01070040022000012000002000005000000000005000000REP       Governor RUSK COUNTYWIDE                                Lisa Fritsch                          PCT 418                                                01 
01070050001000000000000000000000000000000000000REP       Governor RUSK COUNTYWIDE                                OVER VOTES                            PCT 111                                                01 
01070050002000000000000000000000000000000000000REP       Governor RUSK COUNTYWIDE                                OVER VOTES                            PCT 112                                                01 
01070050003000000000000000000000000000000000000REP       Governor RUSK COUNTYWIDE                                OVER VOTES                            PCT 113                                                01 
01070050004000000000000000000000000000000000000REP       Governor RUSK COUNTYWIDE                                OVER VOTES                            PCT 114                                                01 
01070050005000000000000000000000000000000000000REP       Governor RUSK COUNTYWIDE                                OVER VOTES                            PCT 201                                                01 
01070050006000000000000000000000000000000000000REP       Governor RUSK COUNTYWIDE                                OVER VOTES                            PCT 212                                                01 
01070050007000000000000000000000000000000000000REP       Governor RUSK COUNTYWIDE                                OVER VOTES                            PCT 213                                                01 
01070050008000000000000000000000000000000000000REP       Governor RUSK COUNTYWIDE                                OVER VOTES                            PCT 214                                                01 
01070050009000000000000000000000000000000000000REP       Governor RUSK COUNTYWIDE                                OVER VOTES                            PCT 215                                                01 
01070050010000001000001000000000000000000000000REP       Governor RUSK COUNTYWIDE                                OVER VOTES                            PCT 302                                                01 
01070050011000000000000000000000000000000000000REP       Governor RUSK COUNTYWIDE                                OVER VOTES                            PCT 303                                                01 
