01010010001002577000000000000000000000000000000          REGISTERED VOTERS - TOTAL                               REGISTERED VOTERS - TOTAL             Precinct #1                                            00 
01010010002003684000000000000000000000000000000          REGISTERED VOTERS - TOTAL                               REGISTERED VOTERS - TOTAL             Precinct #2                                            00 
01010010003001057000000000000000000000000000000          REGISTERED VOTERS - TOTAL                               REGISTERED VOTERS - TOTAL             Precinct #3                                            00 
01010010004000680000000000000000000000000000000          REGISTERED VOTERS - TOTAL                               REGISTERED VOTERS - TOTAL             Precinct #4                                            00 
01010010005001774000000000000000000000000000000          REGISTERED VOTERS - TOTAL                               REGISTERED VOTERS - TOTAL             Precinct #5                                            00 
01010010006001733000000000000000000000000000000          REGISTERED VOTERS - TOTAL                               REGISTERED VOTERS - TOTAL             Precinct #6                                            00 
01010010007001868000000000000000000000000000000          REGISTERED VOTERS - TOTAL                               REGISTERED VOTERS - TOTAL             Precinct #7                                            00 
01010010008000980000000000000000000000000000000          REGISTERED VOTERS - TOTAL                               REGISTERED VOTERS - TOTAL             Precinct #8                                            00 
01010010009000533000000000000000000000000000000          REGISTERED VOTERS - TOTAL                               REGISTERED VOTERS - TOTAL             Precinct #10                                           00 
01010010010000595000000000000000000000000000000          REGISTERED VOTERS - TOTAL                               REGISTERED VOTERS - TOTAL             Precinct #13                                           00 
01010010011000666000000000000000000000000000000          REGISTERED VOTERS - TOTAL                               REGISTERED VOTERS - TOTAL             Precinct #14                                           00 
01020010001000560000337000021000202000000000000          BALLOTS CAST - TOTAL                                    BALLOTS CAST - TOTAL                  Precinct #1                                            00 
01020010002000587000226000020000341000000000000          BALLOTS CAST - TOTAL                                    BALLOTS CAST - TOTAL                  Precinct #2                                            00 
01020010003000250000109000005000136000000000000          BALLOTS CAST - TOTAL                                    BALLOTS CAST - TOTAL                  Precinct #3                                            00 
01020010004000202000087000006000109000000000000          BALLOTS CAST - TOTAL                                    BALLOTS CAST - TOTAL                  Precinct #4                                            00 
01020010005000306000121000020000165000000000000          BALLOTS CAST - TOTAL                                    BALLOTS CAST - TOTAL                  Precinct #5                                            00 
01020010006000488000271000029000188000000000000          BALLOTS CAST - TOTAL                                    BALLOTS CAST - TOTAL                  Precinct #6                                            00 
01020010007000421000105000032000284000000000000          BALLOTS CAST - TOTAL                                    BALLOTS CAST - TOTAL                  Precinct #7                                            00 
01020010008000226000077000021000128000000000000          BALLOTS CAST - TOTAL                                    BALLOTS CAST - TOTAL                  Precinct #8                                            00 
01020010009000187000065000008000114000000000000          BALLOTS CAST - TOTAL                                    BALLOTS CAST - TOTAL                  Precinct #10                                           00 
01020010010000129000033000011000085000000000000          BALLOTS CAST - TOTAL                                    BALLOTS CAST - TOTAL                  Precinct #13                                           00 
01020010011000108000032000008000068000000000000          BALLOTS CAST - TOTAL                                    BALLOTS CAST - TOTAL                  Precinct #14                                           00 
01030010001000405000234000020000151000000000000REP       BALLOTS CAST - REPUBLICAN PARTY                         BALLOTS CAST - REPUBLICAN PARTY       Precinct #1                                            00 
01030010002000484000190000016000278000000000000REP       BALLOTS CAST - REPUBLICAN PARTY                         BALLOTS CAST - REPUBLICAN PARTY       Precinct #2                                            00 
01030010003000167000086000001000080000000000000REP       BALLOTS CAST - REPUBLICAN PARTY                         BALLOTS CAST - REPUBLICAN PARTY       Precinct #3                                            00 
01030010004000193000086000006000101000000000000REP       BALLOTS CAST - REPUBLICAN PARTY                         BALLOTS CAST - REPUBLICAN PARTY       Precinct #4                                            00 
01030010005000259000106000018000135000000000000REP       BALLOTS CAST - REPUBLICAN PARTY                         BALLOTS CAST - REPUBLICAN PARTY       Precinct #5                                            00 
01030010006000389000207000028000154000000000000REP       BALLOTS CAST - REPUBLICAN PARTY                         BALLOTS CAST - REPUBLICAN PARTY       Precinct #6                                            00 
01030010007000297000074000030000193000000000000REP       BALLOTS CAST - REPUBLICAN PARTY                         BALLOTS CAST - REPUBLICAN PARTY       Precinct #7                                            00 
01030010008000155000042000020000093000000000000REP       BALLOTS CAST - REPUBLICAN PARTY                         BALLOTS CAST - REPUBLICAN PARTY       Precinct #8                                            00 
01030010009000149000053000007000089000000000000REP       BALLOTS CAST - REPUBLICAN PARTY                         BALLOTS CAST - REPUBLICAN PARTY       Precinct #10                                           00 
01030010010000117000032000011000074000000000000REP       BALLOTS CAST - REPUBLICAN PARTY                         BALLOTS CAST - REPUBLICAN PARTY       Precinct #13                                           00 
01030010011000080000026000007000047000000000000REP       BALLOTS CAST - REPUBLICAN PARTY                         BALLOTS CAST - REPUBLICAN PARTY       Precinct #14                                           00 
01040010001000155000103000001000051000000000000DEM       BALLOTS CAST - DEMOCRATIC PARTY                         BALLOTS CAST - DEMOCRATIC PARTY       Precinct #1                                            00 
01040010002000103000036000004000063000000000000DEM       BALLOTS CAST - DEMOCRATIC PARTY                         BALLOTS CAST - DEMOCRATIC PARTY       Precinct #2                                            00 
01040010003000083000023000004000056000000000000DEM       BALLOTS CAST - DEMOCRATIC PARTY                         BALLOTS CAST - DEMOCRATIC PARTY       Precinct #3                                            00 
01040010004000009000001000000000008000000000000DEM       BALLOTS CAST - DEMOCRATIC PARTY                         BALLOTS CAST - DEMOCRATIC PARTY       Precinct #4                                            00 
01040010005000047000015000002000030000000000000DEM       BALLOTS CAST - DEMOCRATIC PARTY                         BALLOTS CAST - DEMOCRATIC PARTY       Precinct #5                                            00 
01040010006000099000064000001000034000000000000DEM       BALLOTS CAST - DEMOCRATIC PARTY                         BALLOTS CAST - DEMOCRATIC PARTY       Precinct #6                                            00 
01040010007000124000031000002000091000000000000DEM       BALLOTS CAST - DEMOCRATIC PARTY                         BALLOTS CAST - DEMOCRATIC PARTY       Precinct #7                                            00 
01040010008000071000035000001000035000000000000DEM       BALLOTS CAST - DEMOCRATIC PARTY                         BALLOTS CAST - DEMOCRATIC PARTY       Precinct #8                                            00 
01040010009000038000012000001000025000000000000DEM       BALLOTS CAST - DEMOCRATIC PARTY                         BALLOTS CAST - DEMOCRATIC PARTY       Precinct #10                                           00 
01040010010000012000001000000000011000000000000DEM       BALLOTS CAST - DEMOCRATIC PARTY                         BALLOTS CAST - DEMOCRATIC PARTY       Precinct #13                                           00 
01040010011000028000006000001000021000000000000DEM       BALLOTS CAST - DEMOCRATIC PARTY                         BALLOTS CAST - DEMOCRATIC PARTY       Precinct #14                                           00 
01050010001000111000067000002000042000000000000REP       United States Senator SAN JACINTO COUNTYWIDE            Steve Stockman                        Precinct #1                                            01 
01050010002000135000041000004000090000000000000REP       United States Senator SAN JACINTO COUNTYWIDE            Steve Stockman                        Precinct #2                                            01 
01050010003000046000025000000000021000000000000REP       United States Senator SAN JACINTO COUNTYWIDE            Steve Stockman                        Precinct #3                                            01 
01050010004000056000022000001000033000000000000REP       United States Senator SAN JACINTO COUNTYWIDE            Steve Stockman                        Precinct #4                                            01 
01050010005000079000034000003000042000000000000REP       United States Senator SAN JACINTO COUNTYWIDE            Steve Stockman                        Precinct #5                                            01 
01050010006000084000033000001000050000000000000REP       United States Senator SAN JACINTO COUNTYWIDE            Steve Stockman                        Precinct #6                                            01 
01050010007000076000010000006000060000000000000REP       United States Senator SAN JACINTO COUNTYWIDE            Steve Stockman                        Precinct #7                                            01 
01050010008000028000013000003000012000000000000REP       United States Senator SAN JACINTO COUNTYWIDE            Steve Stockman                        Precinct #8                                            01 
01050010009000035000010000002000023000000000000REP       United States Senator SAN JACINTO COUNTYWIDE            Steve Stockman                        Precinct #10                                           01 
01050010010000031000009000001000021000000000000REP       United States Senator SAN JACINTO COUNTYWIDE            Steve Stockman                        Precinct #13                                           01 
01050010011000019000004000002000013000000000000REP       United States Senator SAN JACINTO COUNTYWIDE            Steve Stockman                        Precinct #14                                           01 
01050020001000010000001000000000009000000000000REP       United States Senator SAN JACINTO COUNTYWIDE            Chris Mapp                            Precinct #1                                            01 
01050020002000009000003000000000006000000000000REP       United States Senator SAN JACINTO COUNTYWIDE            Chris Mapp                            Precinct #2                                            01 
01050020003000001000001000000000000000000000000REP       United States Senator SAN JACINTO COUNTYWIDE            Chris Mapp                            Precinct #3                                            01 
01050020004000004000002000000000002000000000000REP       United States Senator SAN JACINTO COUNTYWIDE            Chris Mapp                            Precinct #4                                            01 
01050020005000004000001000000000003000000000000REP       United States Senator SAN JACINTO COUNTYWIDE            Chris Mapp                            Precinct #5                                            01 
01050020006000009000005000000000004000000000000REP       United States Senator SAN JACINTO COUNTYWIDE            Chris Mapp                            Precinct #6                                            01 
01050020007000005000002000000000003000000000000REP       United States Senator SAN JACINTO COUNTYWIDE            Chris Mapp                            Precinct #7                                            01 
01050020008000002000000000000000002000000000000REP       United States Senator SAN JACINTO COUNTYWIDE            Chris Mapp                            Precinct #8                                            01 
01050020009000000000000000000000000000000000000REP       United States Senator SAN JACINTO COUNTYWIDE            Chris Mapp                            Precinct #10                                           01 
01050020010000002000001000000000001000000000000REP       United States Senator SAN JACINTO COUNTYWIDE            Chris Mapp                            Precinct #13                                           01 
01050020011000008000004000000000004000000000000REP       United States Senator SAN JACINTO COUNTYWIDE            Chris Mapp                            Precinct #14                                           01 
01050030001000068000035000001000032000000000000REP       United States Senator SAN JACINTO COUNTYWIDE            Dwayne Stovall                        Precinct #1                                            01 
01050030002000077000035000001000041000000000000REP       United States Senator SAN JACINTO COUNTYWIDE            Dwayne Stovall                        Precinct #2                                            01 
01050030003000029000016000000000013000000000000REP       United States Senator SAN JACINTO COUNTYWIDE            Dwayne Stovall                        Precinct #3                                            01 
01050030004000037000017000001000019000000000000REP       United States Senator SAN JACINTO COUNTYWIDE            Dwayne Stovall                        Precinct #4                                            01 
01050030005000076000030000002000044000000000000REP       United States Senator SAN JACINTO COUNTYWIDE            Dwayne Stovall                        Precinct #5                                            01 
01050030006000066000045000005000016000000000000REP       United States Senator SAN JACINTO COUNTYWIDE            Dwayne Stovall                        Precinct #6                                            01 
01050030007000048000018000001000029000000000000REP       United States Senator SAN JACINTO COUNTYWIDE            Dwayne Stovall                        Precinct #7                                            01 
01050030008000020000004000005000011000000000000REP       United States Senator SAN JACINTO COUNTYWIDE            Dwayne Stovall                        Precinct #8                                            01 
01050030009000040000015000002000023000000000000REP       United States Senator SAN JACINTO COUNTYWIDE            Dwayne Stovall                        Precinct #10                                           01 
01050030010000031000006000002000023000000000000REP       United States Senator SAN JACINTO COUNTYWIDE            Dwayne Stovall                        Precinct #13                                           01 
01050030011000014000010000000000004000000000000REP       United States Senator SAN JACINTO COUNTYWIDE            Dwayne Stovall                        Precinct #14                                           01 
01050040001000006000003000000000003000000000000REP       United States Senator SAN JACINTO COUNTYWIDE            Linda Vega                            Precinct #1                                            01 
01050040002000013000005000000000008000000000000REP       United States Senator SAN JACINTO COUNTYWIDE            Linda Vega                            Precinct #2                                            01 
01050040003000005000002000000000003000000000000REP       United States Senator SAN JACINTO COUNTYWIDE            Linda Vega                            Precinct #3                                            01 
01050040004000002000000000000000002000000000000REP       United States Senator SAN JACINTO COUNTYWIDE            Linda Vega                            Precinct #4                                            01 
01050040005000003000003000000000000000000000000REP       United States Senator SAN JACINTO COUNTYWIDE            Linda Vega                            Precinct #5                                            01 
01050040006000010000006000000000004000000000000REP       United States Senator SAN JACINTO COUNTYWIDE            Linda Vega                            Precinct #6                                            01 
01050040007000008000005000001000002000000000000REP       United States Senator SAN JACINTO COUNTYWIDE            Linda Vega                            Precinct #7                                            01 
01050040008000005000000000002000003000000000000REP       United States Senator SAN JACINTO COUNTYWIDE            Linda Vega                            Precinct #8                                            01 
01050040009000007000001000001000005000000000000REP       United States Senator SAN JACINTO COUNTYWIDE            Linda Vega                            Precinct #10                                           01 
01050040010000002000000000000000002000000000000REP       United States Senator SAN JACINTO COUNTYWIDE            Linda Vega                            Precinct #13                                           01 
01050040011000000000000000000000000000000000000REP       United States Senator SAN JACINTO COUNTYWIDE            Linda Vega                            Precinct #14                                           01 
01050050001000009000005000000000004000000000000REP       United States Senator SAN JACINTO COUNTYWIDE            Ken Cope                              Precinct #1                                            01 
01050050002000011000007000001000003000000000000REP       United States Senator SAN JACINTO COUNTYWIDE            Ken Cope                              Precinct #2                                            01 
01050050003000003000002000000000001000000000000REP       United States Senator SAN JACINTO COUNTYWIDE            Ken Cope                              Precinct #3                                            01 
01050050004000003000001000000000002000000000000REP       United States Senator SAN JACINTO COUNTYWIDE            Ken Cope                              Precinct #4                                            01 
01050050005000007000003000000000004000000000000REP       United States Senator SAN JACINTO COUNTYWIDE            Ken Cope                              Precinct #5                                            01 
01050050006000008000001000002000005000000000000REP       United States Senator SAN JACINTO COUNTYWIDE            Ken Cope                              Precinct #6                                            01 
01050050007000012000003000001000008000000000000REP       United States Senator SAN JACINTO COUNTYWIDE            Ken Cope                              Precinct #7                                            01 
01050050008000001000000000000000001000000000000REP       United States Senator SAN JACINTO COUNTYWIDE            Ken Cope                              Precinct #8                                            01 
01050050009000004000002000000000002000000000000REP       United States Senator SAN JACINTO COUNTYWIDE            Ken Cope                              Precinct #10                                           01 
01050050010000003000000000000000003000000000000REP       United States Senator SAN JACINTO COUNTYWIDE            Ken Cope                              Precinct #13                                           01 
01050050011000001000000000000000001000000000000REP       United States Senator SAN JACINTO COUNTYWIDE            Ken Cope                              Precinct #14                                           01 
01050060001000001000000000000000001000000000000REP       United States Senator SAN JACINTO COUNTYWIDE            Reid Reasor                           Precinct #1                                            01 
01050060002000006000004000000000002000000000000REP       United States Senator SAN JACINTO COUNTYWIDE            Reid Reasor                           Precinct #2                                            01 
01050060003000001000001000000000000000000000000REP       United States Senator SAN JACINTO COUNTYWIDE            Reid Reasor                           Precinct #3                                            01 
01050060004000000000000000000000000000000000000REP       United States Senator SAN JACINTO COUNTYWIDE            Reid Reasor                           Precinct #4                                            01 
01050060005000001000001000000000000000000000000REP       United States Senator SAN JACINTO COUNTYWIDE            Reid Reasor                           Precinct #5                                            01 
01050060006000008000002000002000004000000000000REP       United States Senator SAN JACINTO COUNTYWIDE            Reid Reasor                           Precinct #6                                            01 
01050060007000002000000000000000002000000000000REP       United States Senator SAN JACINTO COUNTYWIDE            Reid Reasor                           Precinct #7                                            01 
01050060008000002000001000000000001000000000000REP       United States Senator SAN JACINTO COUNTYWIDE            Reid Reasor                           Precinct #8                                            01 
01050060009000000000000000000000000000000000000REP       United States Senator SAN JACINTO COUNTYWIDE            Reid Reasor                           Precinct #10                                           01 
01050060010000001000000000000000001000000000000REP       United States Senator SAN JACINTO COUNTYWIDE            Reid Reasor                           Precinct #13                                           01 
01050060011000001000000000000000001000000000000REP       United States Senator SAN JACINTO COUNTYWIDE            Reid Reasor                           Precinct #14                                           01 
01050070001000176000105000016000055000000000000REP       United States Senator SAN JACINTO COUNTYWIDE            John Cornyn                           Precinct #1                                            01 
01050070002000176000073000010000093000000000000REP       United States Senator SAN JACINTO COUNTYWIDE            John Cornyn                           Precinct #2                                            01 
01050070003000064000029000001000034000000000000REP       United States Senator SAN JACINTO COUNTYWIDE            John Cornyn                           Precinct #3                                            01 
01050070004000074000037000003000034000000000000REP       United States Senator SAN JACINTO COUNTYWIDE            John Cornyn                           Precinct #4                                            01 
01050070005000078000029000013000036000000000000REP       United States Senator SAN JACINTO COUNTYWIDE            John Cornyn                           Precinct #5                                            01 
01050070006000172000102000017000053000000000000REP       United States Senator SAN JACINTO COUNTYWIDE            John Cornyn                           Precinct #6                                            01 
01050070007000130000031000020000079000000000000REP       United States Senator SAN JACINTO COUNTYWIDE            John Cornyn                           Precinct #7                                            01 
01050070008000076000016000010000050000000000000REP       United States Senator SAN JACINTO COUNTYWIDE            John Cornyn                           Precinct #8                                            01 
01050070009000052000021000002000029000000000000REP       United States Senator SAN JACINTO COUNTYWIDE            John Cornyn                           Precinct #10                                           01 
01050070010000043000015000008000020000000000000REP       United States Senator SAN JACINTO COUNTYWIDE            John Cornyn                           Precinct #13                                           01 
01050070011000036000007000005000024000000000000REP       United States Senator SAN JACINTO COUNTYWIDE            John Cornyn                           Precinct #14                                           01 
01050080001000005000004000000000001000000000000REP       United States Senator SAN JACINTO COUNTYWIDE            Curt Cleaver                          Precinct #1                                            01 
01050080002000008000003000000000005000000000000REP       United States Senator SAN JACINTO COUNTYWIDE            Curt Cleaver                          Precinct #2                                            01 
01050080003000002000000000000000002000000000000REP       United States Senator SAN JACINTO COUNTYWIDE            Curt Cleaver                          Precinct #3                                            01 
01050080004000001000000000000000001000000000000REP       United States Senator SAN JACINTO COUNTYWIDE            Curt Cleaver                          Precinct #4                                            01 
01050080005000003000001000000000002000000000000REP       United States Senator SAN JACINTO COUNTYWIDE            Curt Cleaver                          Precinct #5                                            01 
01050080006000005000003000000000002000000000000REP       United States Senator SAN JACINTO COUNTYWIDE            Curt Cleaver                          Precinct #6                                            01 
01050080007000003000000000000000003000000000000REP       United States Senator SAN JACINTO COUNTYWIDE            Curt Cleaver                          Precinct #7                                            01 
01050080008000002000001000000000001000000000000REP       United States Senator SAN JACINTO COUNTYWIDE            Curt Cleaver                          Precinct #8                                            01 
01050080009000001000000000000000001000000000000REP       United States Senator SAN JACINTO COUNTYWIDE            Curt Cleaver                          Precinct #10                                           01 
01050080010000000000000000000000000000000000000REP       United States Senator SAN JACINTO COUNTYWIDE            Curt Cleaver                          Precinct #13                                           01 
01050080011000001000001000000000000000000000000REP       United States Senator SAN JACINTO COUNTYWIDE            Curt Cleaver                          Precinct #14                                           01 
01050090001000000000000000000000000000000000000REP       United States Senator SAN JACINTO COUNTYWIDE            OVER VOTES                            Precinct #1                                            01 
01050090002000000000000000000000000000000000000REP       United States Senator SAN JACINTO COUNTYWIDE            OVER VOTES                            Precinct #2                                            01 
01050090003000000000000000000000000000000000000REP       United States Senator SAN JACINTO COUNTYWIDE            OVER VOTES                            Precinct #3                                            01 
01050090004000000000000000000000000000000000000REP       United States Senator SAN JACINTO COUNTYWIDE            OVER VOTES                            Precinct #4                                            01 
01050090005000000000000000000000000000000000000REP       United States Senator SAN JACINTO COUNTYWIDE            OVER VOTES                            Precinct #5                                            01 
01050090006000000000000000000000000000000000000REP       United States Senator SAN JACINTO COUNTYWIDE            OVER VOTES                            Precinct #6                                            01 
01050090007000000000000000000000000000000000000REP       United States Senator SAN JACINTO COUNTYWIDE            OVER VOTES                            Precinct #7                                            01 
01050090008000000000000000000000000000000000000REP       United States Senator SAN JACINTO COUNTYWIDE            OVER VOTES                            Precinct #8                                            01 
01050090009000000000000000000000000000000000000REP       United States Senator SAN JACINTO COUNTYWIDE            OVER VOTES                            Precinct #10                                           01 
01050090010000000000000000000000000000000000000REP       United States Senator SAN JACINTO COUNTYWIDE            OVER VOTES                            Precinct #13                                           01 
01050090011000000000000000000000000000000000000REP       United States Senator SAN JACINTO COUNTYWIDE            OVER VOTES                            Precinct #14                                           01 
01050100001000019000014000001000004000000000000REP       United States Senator SAN JACINTO COUNTYWIDE            UNDER VOTES                           Precinct #1                                            01 
01050100002000049000019000000000030000000000000REP       United States Senator SAN JACINTO COUNTYWIDE            UNDER VOTES                           Precinct #2                                            01 
01050100003000016000010000000000006000000000000REP       United States Senator SAN JACINTO COUNTYWIDE            UNDER VOTES                           Precinct #3                                            01 
01050100004000016000007000001000008000000000000REP       United States Senator SAN JACINTO COUNTYWIDE            UNDER VOTES                           Precinct #4                                            01 
01050100005000008000004000000000004000000000000REP       United States Senator SAN JACINTO COUNTYWIDE            UNDER VOTES                           Precinct #5                                            01 
01050100006000027000010000001000016000000000000REP       United States Senator SAN JACINTO COUNTYWIDE            UNDER VOTES                           Precinct #6                                            01 
01050100007000013000005000001000007000000000000REP       United States Senator SAN JACINTO COUNTYWIDE            UNDER VOTES                           Precinct #7                                            01 
01050100008000019000007000000000012000000000000REP       United States Senator SAN JACINTO COUNTYWIDE            UNDER VOTES                           Precinct #8                                            01 
01050100009000010000004000000000006000000000000REP       United States Senator SAN JACINTO COUNTYWIDE            UNDER VOTES                           Precinct #10                                           01 
01050100010000004000001000000000003000000000000REP       United States Senator SAN JACINTO COUNTYWIDE            UNDER VOTES                           Precinct #13                                           01 
01050100011000000000000000000000000000000000000REP       United States Senator SAN JACINTO COUNTYWIDE            UNDER VOTES                           Precinct #14                                           01 
01060010001000277000144000020000113000000000000REP       US Representative, District 8 SAN JACINTO COUNTYWIDE    Kevin Brady                           Precinct #1                                            01 
01060010002000349000134000014000201000000000000REP       US Representative, District 8 SAN JACINTO COUNTYWIDE    Kevin Brady                           Precinct #2                                            01 
01060010003000120000057000001000062000000000000REP       US Representative, District 8 SAN JACINTO COUNTYWIDE    Kevin Brady                           Precinct #3                                            01 
01060010004000139000066000003000070000000000000REP       US Representative, District 8 SAN JACINTO COUNTYWIDE    Kevin Brady                           Precinct #4                                            01 
01060010005000152000061000016000075000000000000REP       US Representative, District 8 SAN JACINTO COUNTYWIDE    Kevin Brady                           Precinct #5                                            01 
01060010006000273000147000019000107000000000000REP       US Representative, District 8 SAN JACINTO COUNTYWIDE    Kevin Brady                           Precinct #6                                            01 
01060010007000198000052000021000125000000000000REP       US Representative, District 8 SAN JACINTO COUNTYWIDE    Kevin Brady                           Precinct #7                                            01 
01060010008000108000027000013000068000000000000REP       US Representative, District 8 SAN JACINTO COUNTYWIDE    Kevin Brady                           Precinct #8                                            01 
01060010009000091000029000005000057000000000000REP       US Representative, District 8 SAN JACINTO COUNTYWIDE    Kevin Brady                           Precinct #10                                           01 
01060010010000079000024000010000045000000000000REP       US Representative, District 8 SAN JACINTO COUNTYWIDE    Kevin Brady                           Precinct #13                                           01 
01060010011000051000012000005000034000000000000REP       US Representative, District 8 SAN JACINTO COUNTYWIDE    Kevin Brady                           Precinct #14                                           01 
01060020001000106000073000000000033000000000000REP       US Representative, District 8 SAN JACINTO COUNTYWIDE    Craig McMichael                       Precinct #1                                            01 
01060020002000085000033000001000051000000000000REP       US Representative, District 8 SAN JACINTO COUNTYWIDE    Craig McMichael                       Precinct #2                                            01 
01060020003000040000024000000000016000000000000REP       US Representative, District 8 SAN JACINTO COUNTYWIDE    Craig McMichael                       Precinct #3                                            01 
01060020004000033000012000001000020000000000000REP       US Representative, District 8 SAN JACINTO COUNTYWIDE    Craig McMichael                       Precinct #4                                            01 
01060020005000096000042000002000052000000000000REP       US Representative, District 8 SAN JACINTO COUNTYWIDE    Craig McMichael                       Precinct #5                                            01 
01060020006000096000049000008000039000000000000REP       US Representative, District 8 SAN JACINTO COUNTYWIDE    Craig McMichael                       Precinct #6                                            01 
01060020007000089000020000009000060000000000000REP       US Representative, District 8 SAN JACINTO COUNTYWIDE    Craig McMichael                       Precinct #7                                            01 
01060020008000032000010000006000016000000000000REP       US Representative, District 8 SAN JACINTO COUNTYWIDE    Craig McMichael                       Precinct #8                                            01 
01060020009000046000021000002000023000000000000REP       US Representative, District 8 SAN JACINTO COUNTYWIDE    Craig McMichael                       Precinct #10                                           01 
01060020010000031000008000001000022000000000000REP       US Representative, District 8 SAN JACINTO COUNTYWIDE    Craig McMichael                       Precinct #13                                           01 
01060020011000029000014000002000013000000000000REP       US Representative, District 8 SAN JACINTO COUNTYWIDE    Craig McMichael                       Precinct #14                                           01 
01060030001000000000000000000000000000000000000REP       US Representative, District 8 SAN JACINTO COUNTYWIDE    OVER VOTES                            Precinct #1                                            01 
01060030002000000000000000000000000000000000000REP       US Representative, District 8 SAN JACINTO COUNTYWIDE    OVER VOTES                            Precinct #2                                            01 
01060030003000000000000000000000000000000000000REP       US Representative, District 8 SAN JACINTO COUNTYWIDE    OVER VOTES                            Precinct #3                                            01 
01060030004000000000000000000000000000000000000REP       US Representative, District 8 SAN JACINTO COUNTYWIDE    OVER VOTES                            Precinct #4                                            01 
01060030005000000000000000000000000000000000000REP       US Representative, District 8 SAN JACINTO COUNTYWIDE    OVER VOTES                            Precinct #5                                            01 
01060030006000000000000000000000000000000000000REP       US Representative, District 8 SAN JACINTO COUNTYWIDE    OVER VOTES                            Precinct #6                                            01 
01060030007000000000000000000000000000000000000REP       US Representative, District 8 SAN JACINTO COUNTYWIDE    OVER VOTES                            Precinct #7                                            01 
01060030008000000000000000000000000000000000000REP       US Representative, District 8 SAN JACINTO COUNTYWIDE    OVER VOTES                            Precinct #8                                            01 
01060030009000000000000000000000000000000000000REP       US Representative, District 8 SAN JACINTO COUNTYWIDE    OVER VOTES                            Precinct #10                                           01 
01060030010000000000000000000000000000000000000REP       US Representative, District 8 SAN JACINTO COUNTYWIDE    OVER VOTES                            Precinct #13                                           01 
01060030011000000000000000000000000000000000000REP       US Representative, District 8 SAN JACINTO COUNTYWIDE    OVER VOTES                            Precinct #14                                           01 
01060040001000022000017000000000005000000000000REP       US Representative, District 8 SAN JACINTO COUNTYWIDE    UNDER VOTES                           Precinct #1                                            01 
01060040002000050000023000001000026000000000000REP       US Representative, District 8 SAN JACINTO COUNTYWIDE    UNDER VOTES                           Precinct #2                                            01 
01060040003000007000005000000000002000000000000REP       US Representative, District 8 SAN JACINTO COUNTYWIDE    UNDER VOTES                           Precinct #3                                            01 
01060040004000021000008000002000011000000000000REP       US Representative, District 8 SAN JACINTO COUNTYWIDE    UNDER VOTES                           Precinct #4                                            01 
01060040005000011000003000000000008000000000000REP       US Representative, District 8 SAN JACINTO COUNTYWIDE    UNDER VOTES                           Precinct #5                                            01 
01060040006000020000011000001000008000000000000REP       US Representative, District 8 SAN JACINTO COUNTYWIDE    UNDER VOTES                           Precinct #6                                            01 
01060040007000010000002000000000008000000000000REP       US Representative, District 8 SAN JACINTO COUNTYWIDE    UNDER VOTES                           Precinct #7                                            01 
01060040008000015000005000001000009000000000000REP       US Representative, District 8 SAN JACINTO COUNTYWIDE    UNDER VOTES                           Precinct #8                                            01 
01060040009000012000003000000000009000000000000REP       US Representative, District 8 SAN JACINTO COUNTYWIDE    UNDER VOTES                           Precinct #10                                           01 
01060040010000007000000000000000007000000000000REP       US Representative, District 8 SAN JACINTO COUNTYWIDE    UNDER VOTES                           Precinct #13                                           01 
01060040011000000000000000000000000000000000000REP       US Representative, District 8 SAN JACINTO COUNTYWIDE    UNDER VOTES                           Precinct #14                                           01 
01070010001000361000203000019000139000000000000REP       Governor SAN JACINTO COUNTYWIDE                         Greg Abbott                           Precinct #1                                            01 
01070010002000409000155000016000238000000000000REP       Governor SAN JACINTO COUNTYWIDE                         Greg Abbott                           Precinct #2                                            01 
01070010003000145000072000001000072000000000000REP       Governor SAN JACINTO COUNTYWIDE                         Greg Abbott                           Precinct #3                                            01 
01070010004000161000071000004000086000000000000REP       Governor SAN JACINTO COUNTYWIDE                         Greg Abbott                           Precinct #4                                            01 
01070010005000235000091000018000126000000000000REP       Governor SAN JACINTO COUNTYWIDE                         Greg Abbott                           Precinct #5                                            01 
01070010006000344000186000027000131000000000000REP       Governor SAN JACINTO COUNTYWIDE                         Greg Abbott                           Precinct #6                                            01 
01070010007000270000068000029000173000000000000REP       Governor SAN JACINTO COUNTYWIDE                         Greg Abbott                           Precinct #7                                            01 
01070010008000125000033000019000073000000000000REP       Governor SAN JACINTO COUNTYWIDE                         Greg Abbott                           Precinct #8                                            01 
01070010009000130000047000006000077000000000000REP       Governor SAN JACINTO COUNTYWIDE                         Greg Abbott                           Precinct #10                                           01 
01070010010000107000031000011000065000000000000REP       Governor SAN JACINTO COUNTYWIDE                         Greg Abbott                           Precinct #13                                           01 
01070010011000075000026000007000042000000000000REP       Governor SAN JACINTO COUNTYWIDE                         Greg Abbott                           Precinct #14                                           01 
01070020001000004000002000001000001000000000000REP       Governor SAN JACINTO COUNTYWIDE                         Miriam Martinez                       Precinct #1                                            01 
01070020002000012000007000000000005000000000000REP       Governor SAN JACINTO COUNTYWIDE                         Miriam Martinez                       Precinct #2                                            01 
01070020003000004000003000000000001000000000000REP       Governor SAN JACINTO COUNTYWIDE                         Miriam Martinez                       Precinct #3                                            01 
01070020004000000000000000000000000000000000000REP       Governor SAN JACINTO COUNTYWIDE                         Miriam Martinez                       Precinct #4                                            01 
01070020005000001000000000000000001000000000000REP       Governor SAN JACINTO COUNTYWIDE                         Miriam Martinez                       Precinct #5                                            01 
01070020006000008000004000000000004000000000000REP       Governor SAN JACINTO COUNTYWIDE                         Miriam Martinez                       Precinct #6                                            01 
01070020007000008000002000001000005000000000000REP       Governor SAN JACINTO COUNTYWIDE                         Miriam Martinez                       Precinct #7                                            01 
01070020008000005000001000000000004000000000000REP       Governor SAN JACINTO COUNTYWIDE                         Miriam Martinez                       Precinct #8                                            01 
01070020009000004000000000001000003000000000000REP       Governor SAN JACINTO COUNTYWIDE                         Miriam Martinez                       Precinct #10                                           01 
01070020010000002000000000000000002000000000000REP       Governor SAN JACINTO COUNTYWIDE                         Miriam Martinez                       Precinct #13                                           01 
01070020011000002000000000000000002000000000000REP       Governor SAN JACINTO COUNTYWIDE                         Miriam Martinez                       Precinct #14                                           01 
01070030001000014000010000000000004000000000000REP       Governor SAN JACINTO COUNTYWIDE                         Lisa Fritsch                          Precinct #1                                            01 
01070030002000015000005000000000010000000000000REP       Governor SAN JACINTO COUNTYWIDE                         Lisa Fritsch                          Precinct #2                                            01 
01070030003000001000000000000000001000000000000REP       Governor SAN JACINTO COUNTYWIDE                         Lisa Fritsch                          Precinct #3                                            01 
01070030004000009000004000001000004000000000000REP       Governor SAN JACINTO COUNTYWIDE                         Lisa Fritsch                          Precinct #4                                            01 
01070030005000006000004000000000002000000000000REP       Governor SAN JACINTO COUNTYWIDE                         Lisa Fritsch                          Precinct #5                                            01 
01070030006000011000004000000000007000000000000REP       Governor SAN JACINTO COUNTYWIDE                         Lisa Fritsch                          Precinct #6                                            01 
01070030007000014000002000000000012000000000000REP       Governor SAN JACINTO COUNTYWIDE                         Lisa Fritsch                          Precinct #7                                            01 
01070030008000009000002000001000006000000000000REP       Governor SAN JACINTO COUNTYWIDE                         Lisa Fritsch                          Precinct #8                                            01 
01070030009000008000005000000000003000000000000REP       Governor SAN JACINTO COUNTYWIDE                         Lisa Fritsch                          Precinct #10                                           01 
01070030010000003000000000000000003000000000000REP       Governor SAN JACINTO COUNTYWIDE                         Lisa Fritsch                          Precinct #13                                           01 
01070030011000002000000000000000002000000000000REP       Governor SAN JACINTO COUNTYWIDE                         Lisa Fritsch                          Precinct #14                                           01 
01070040001000009000005000000000004000000000000REP       Governor SAN JACINTO COUNTYWIDE                         SECEDE Kilgore                        Precinct #1                                            01 
01070040002000008000002000000000006000000000000REP       Governor SAN JACINTO COUNTYWIDE                         SECEDE Kilgore                        Precinct #2                                            01 
01070040003000003000002000000000001000000000000REP       Governor SAN JACINTO COUNTYWIDE                         SECEDE Kilgore                        Precinct #3                                            01 
01070040004000006000002000000000004000000000000REP       Governor SAN JACINTO COUNTYWIDE                         SECEDE Kilgore                        Precinct #4                                            01 
01070040005000007000004000000000003000000000000REP       Governor SAN JACINTO COUNTYWIDE                         SECEDE Kilgore                        Precinct #5                                            01 
01070040006000007000001000000000006000000000000REP       Governor SAN JACINTO COUNTYWIDE                         SECEDE Kilgore                        Precinct #6                                            01 
01070040007000001000000000000000001000000000000REP       Governor SAN JACINTO COUNTYWIDE                         SECEDE Kilgore                        Precinct #7                                            01 
01070040008000003000001000000000002000000000000REP       Governor SAN JACINTO COUNTYWIDE                         SECEDE Kilgore                        Precinct #8                                            01 
01070040009000002000000000000000002000000000000REP       Governor SAN JACINTO COUNTYWIDE                         SECEDE Kilgore                        Precinct #10                                           01 
01070040010000000000000000000000000000000000000REP       Governor SAN JACINTO COUNTYWIDE                         SECEDE Kilgore                        Precinct #13                                           01 
01070040011000001000000000000000001000000000000REP       Governor SAN JACINTO COUNTYWIDE                         SECEDE Kilgore                        Precinct #14                                           01 
01070050001000000000000000000000000000000000000REP       Governor SAN JACINTO COUNTYWIDE                         OVER VOTES                            Precinct #1                                            01 
01070050002000000000000000000000000000000000000REP       Governor SAN JACINTO COUNTYWIDE                         OVER VOTES                            Precinct #2                                            01 
01070050003000000000000000000000000000000000000REP       Governor SAN JACINTO COUNTYWIDE                         OVER VOTES                            Precinct #3                                            01 
01070050004000000000000000000000000000000000000REP       Governor SAN JACINTO COUNTYWIDE                         OVER VOTES                            Precinct #4                                            01 
01070050005000000000000000000000000000000000000REP       Governor SAN JACINTO COUNTYWIDE                         OVER VOTES                            Precinct #5                                            01 
01070050006000000000000000000000000000000000000REP       Governor SAN JACINTO COUNTYWIDE                         OVER VOTES                            Precinct #6                                            01 
01070050007000000000000000000000000000000000000REP       Governor SAN JACINTO COUNTYWIDE                         OVER VOTES                            Precinct #7                                            01 
01070050008000000000000000000000000000000000000REP       Governor SAN JACINTO COUNTYWIDE                         OVER VOTES                            Precinct #8                                            01 
01070050009000000000000000000000000000000000000REP       Governor SAN JACINTO COUNTYWIDE                         OVER VOTES                            Precinct #10                                           01 
01070050010000000000000000000000000000000000000REP       Governor SAN JACINTO COUNTYWIDE                         OVER VOTES                            Precinct #13                                           01 
01070050011000000000000000000000000000000000000REP       Governor SAN JACINTO COUNTYWIDE                         OVER VOTES                            Precinct #14                                           01 
01070060001000017000014000000000003000000000000REP       Governor SAN JACINTO COUNTYWIDE                         UNDER VOTES                           Precinct #1                                            01 
01070060002000040000021000000000019000000000000REP       Governor SAN JACINTO COUNTYWIDE                         UNDER VOTES                           Precinct #2                                            01 
01070060003000014000009000000000005000000000000REP       Governor SAN JACINTO COUNTYWIDE                         UNDER VOTES                           Precinct #3                                            01 
01070060004000017000009000001000007000000000000REP       Governor SAN JACINTO COUNTYWIDE                         UNDER VOTES                           Precinct #4                                            01 
01070060005000010000007000000000003000000000000REP       Governor SAN JACINTO COUNTYWIDE                         UNDER VOTES                           Precinct #5                                            01 
01070060006000019000012000001000006000000000000REP       Governor SAN JACINTO COUNTYWIDE                         UNDER VOTES                           Precinct #6                                            01 
01070060007000004000002000000000002000000000000REP       Governor SAN JACINTO COUNTYWIDE                         UNDER VOTES                           Precinct #7                                            01 
01070060008000013000005000000000008000000000000REP       Governor SAN JACINTO COUNTYWIDE                         UNDER VOTES                           Precinct #8                                            01 
01070060009000005000001000000000004000000000000REP       Governor SAN JACINTO COUNTYWIDE                         UNDER VOTES                           Precinct #10                                           01 
01070060010000005000001000000000004000000000000REP       Governor SAN JACINTO COUNTYWIDE                         UNDER VOTES                           Precinct #13                                           01 
01070060011000000000000000000000000000000000000REP       Governor SAN JACINTO COUNTYWIDE                         UNDER VOTES                           Precinct #14                                           01 
01080010001000071000042000001000028000000000000REP       Lieutenant Governor SAN JACINTO COUNTYWIDE              Jerry Patterson                       Precinct #1                                            01 
01080010002000068000029000000000039000000000000REP       Lieutenant Governor SAN JACINTO COUNTYWIDE              Jerry Patterson                       Precinct #2                                            01 
01080010003000031000017000000000014000000000000REP       Lieutenant Governor SAN JACINTO COUNTYWIDE              Jerry Patterson                       Precinct #3                                            01 
01080010004000026000016000001000009000000000000REP       Lieutenant Governor SAN JACINTO COUNTYWIDE              Jerry Patterson                       Precinct #4                                            01 
01080010005000047000017000004000026000000000000REP       Lieutenant Governor SAN JACINTO COUNTYWIDE              Jerry Patterson                       Precinct #5                                            01 
01080010006000056000034000005000017000000000000REP       Lieutenant Governor SAN JACINTO COUNTYWIDE              Jerry Patterson                       Precinct #6                                            01 
01080010007000048000014000000000034000000000000REP       Lieutenant Governor SAN JACINTO COUNTYWIDE              Jerry Patterson                       Precinct #7                                            01 
01080010008000018000008000002000008000000000000REP       Lieutenant Governor SAN JACINTO COUNTYWIDE              Jerry Patterson                       Precinct #8                                            01 
01080010009000028000011000001000016000000000000REP       Lieutenant Governor SAN JACINTO COUNTYWIDE              Jerry Patterson                       Precinct #10                                           01 
01080010010000017000003000001000013000000000000REP       Lieutenant Governor SAN JACINTO COUNTYWIDE              Jerry Patterson                       Precinct #13                                           01 
01080010011000014000006000000000008000000000000REP       Lieutenant Governor SAN JACINTO COUNTYWIDE              Jerry Patterson                       Precinct #14                                           01 
01080020001000173000091000017000065000000000000REP       Lieutenant Governor SAN JACINTO COUNTYWIDE              Dan Patrick                           Precinct #1                                            01 
01080020002000179000074000010000095000000000000REP       Lieutenant Governor SAN JACINTO COUNTYWIDE              Dan Patrick                           Precinct #2                                            01 
01080020003000069000041000000000028000000000000REP       Lieutenant Governor SAN JACINTO COUNTYWIDE              Dan Patrick                           Precinct #3                                            01 
01080020004000065000029000002000034000000000000REP       Lieutenant Governor SAN JACINTO COUNTYWIDE              Dan Patrick                           Precinct #4                                            01 
01080020005000134000055000012000067000000000000REP       Lieutenant Governor SAN JACINTO COUNTYWIDE              Dan Patrick                           Precinct #5                                            01 
01080020006000189000101000017000071000000000000REP       Lieutenant Governor SAN JACINTO COUNTYWIDE              Dan Patrick                           Precinct #6                                            01 
01080020007000146000036000019000091000000000000REP       Lieutenant Governor SAN JACINTO COUNTYWIDE              Dan Patrick                           Precinct #7                                            01 
01080020008000067000016000016000035000000000000REP       Lieutenant Governor SAN JACINTO COUNTYWIDE              Dan Patrick                           Precinct #8                                            01 
01080020009000060000022000004000034000000000000REP       Lieutenant Governor SAN JACINTO COUNTYWIDE              Dan Patrick                           Precinct #10                                           01 
01080020010000062000022000009000031000000000000REP       Lieutenant Governor SAN JACINTO COUNTYWIDE              Dan Patrick                           Precinct #13                                           01 
01080020011000041000014000007000020000000000000REP       Lieutenant Governor SAN JACINTO COUNTYWIDE              Dan Patrick                           Precinct #14                                           01 
01080030001000072000043000002000027000000000000REP       Lieutenant Governor SAN JACINTO COUNTYWIDE              David Dewhurst                        Precinct #1                                            01 
01080030002000090000039000004000047000000000000REP       Lieutenant Governor SAN JACINTO COUNTYWIDE              David Dewhurst                        Precinct #2                                            01 
01080030003000021000009000000000012000000000000REP       Lieutenant Governor SAN JACINTO COUNTYWIDE              David Dewhurst                        Precinct #3                                            01 
01080030004000033000009000002000022000000000000REP       Lieutenant Governor SAN JACINTO COUNTYWIDE              David Dewhurst                        Precinct #4                                            01 
01080030005000041000017000002000022000000000000REP       Lieutenant Governor SAN JACINTO COUNTYWIDE              David Dewhurst                        Precinct #5                                            01 
01080030006000063000027000003000033000000000000REP       Lieutenant Governor SAN JACINTO COUNTYWIDE              David Dewhurst                        Precinct #6                                            01 
01080030007000053000014000006000033000000000000REP       Lieutenant Governor SAN JACINTO COUNTYWIDE              David Dewhurst                        Precinct #7                                            01 
01080030008000032000005000001000026000000000000REP       Lieutenant Governor SAN JACINTO COUNTYWIDE              David Dewhurst                        Precinct #8                                            01 
01080030009000028000010000000000018000000000000REP       Lieutenant Governor SAN JACINTO COUNTYWIDE              David Dewhurst                        Precinct #10                                           01 
01080030010000022000005000001000016000000000000REP       Lieutenant Governor SAN JACINTO COUNTYWIDE              David Dewhurst                        Precinct #13                                           01 
01080030011000010000001000000000009000000000000REP       Lieutenant Governor SAN JACINTO COUNTYWIDE              David Dewhurst                        Precinct #14                                           01 
01080040001000078000049000000000029000000000000REP       Lieutenant Governor SAN JACINTO COUNTYWIDE              Todd Staples                          Precinct #1                                            01 
01080040002000120000035000002000083000000000000REP       Lieutenant Governor SAN JACINTO COUNTYWIDE              Todd Staples                          Precinct #2                                            01 
01080040003000039000015000001000023000000000000REP       Lieutenant Governor SAN JACINTO COUNTYWIDE              Todd Staples                          Precinct #3                                            01 
01080040004000054000025000000000029000000000000REP       Lieutenant Governor SAN JACINTO COUNTYWIDE              Todd Staples                          Precinct #4                                            01 
01080040005000033000015000000000018000000000000REP       Lieutenant Governor SAN JACINTO COUNTYWIDE              Todd Staples                          Precinct #5                                            01 
01080040006000069000039000003000027000000000000REP       Lieutenant Governor SAN JACINTO COUNTYWIDE              Todd Staples                          Precinct #6                                            01 
01080040007000043000007000005000031000000000000REP       Lieutenant Governor SAN JACINTO COUNTYWIDE              Todd Staples                          Precinct #7                                            01 
01080040008000025000009000001000015000000000000REP       Lieutenant Governor SAN JACINTO COUNTYWIDE              Todd Staples                          Precinct #8                                            01 
01080040009000026000009000002000015000000000000REP       Lieutenant Governor SAN JACINTO COUNTYWIDE              Todd Staples                          Precinct #10                                           01 
01080040010000009000001000000000008000000000000REP       Lieutenant Governor SAN JACINTO COUNTYWIDE              Todd Staples                          Precinct #13                                           01 
01080040011000015000005000000000010000000000000REP       Lieutenant Governor SAN JACINTO COUNTYWIDE              Todd Staples                          Precinct #14                                           01 
01080050001000000000000000000000000000000000000REP       Lieutenant Governor SAN JACINTO COUNTYWIDE              OVER VOTES                            Precinct #1                                            01 
01080050002000000000000000000000000000000000000REP       Lieutenant Governor SAN JACINTO COUNTYWIDE              OVER VOTES                            Precinct #2                                            01 
01080050003000000000000000000000000000000000000REP       Lieutenant Governor SAN JACINTO COUNTYWIDE              OVER VOTES                            Precinct #3                                            01 
01080050004000000000000000000000000000000000000REP       Lieutenant Governor SAN JACINTO COUNTYWIDE              OVER VOTES                            Precinct #4                                            01 
01080050005000000000000000000000000000000000000REP       Lieutenant Governor SAN JACINTO COUNTYWIDE              OVER VOTES                            Precinct #5                                            01 
01080050006000000000000000000000000000000000000REP       Lieutenant Governor SAN JACINTO COUNTYWIDE              OVER VOTES                            Precinct #6                                            01 
01080050007000000000000000000000000000000000000REP       Lieutenant Governor SAN JACINTO COUNTYWIDE              OVER VOTES                            Precinct #7                                            01 
01080050008000000000000000000000000000000000000REP       Lieutenant Governor SAN JACINTO COUNTYWIDE              OVER VOTES                            Precinct #8                                            01 
01080050009000000000000000000000000000000000000REP       Lieutenant Governor SAN JACINTO COUNTYWIDE              OVER VOTES                            Precinct #10                                           01 
01080050010000000000000000000000000000000000000REP       Lieutenant Governor SAN JACINTO COUNTYWIDE              OVER VOTES                            Precinct #13                                           01 
01080050011000000000000000000000000000000000000REP       Lieutenant Governor SAN JACINTO COUNTYWIDE              OVER VOTES                            Precinct #14                                           01 
01080060001000011000009000000000002000000000000REP       Lieutenant Governor SAN JACINTO COUNTYWIDE              UNDER VOTES                           Precinct #1                                            01 
01080060002000027000013000000000014000000000000REP       Lieutenant Governor SAN JACINTO COUNTYWIDE              UNDER VOTES                           Precinct #2                                            01 
01080060003000007000004000000000003000000000000REP       Lieutenant Governor SAN JACINTO COUNTYWIDE              UNDER VOTES                           Precinct #3                                            01 
01080060004000015000007000001000007000000000000REP       Lieutenant Governor SAN JACINTO COUNTYWIDE              UNDER VOTES                           Precinct #4                                            01 
01080060005000004000002000000000002000000000000REP       Lieutenant Governor SAN JACINTO COUNTYWIDE              UNDER VOTES                           Precinct #5                                            01 
01080060006000012000006000000000006000000000000REP       Lieutenant Governor SAN JACINTO COUNTYWIDE              UNDER VOTES                           Precinct #6                                            01 
01080060007000007000003000000000004000000000000REP       Lieutenant Governor SAN JACINTO COUNTYWIDE              UNDER VOTES                           Precinct #7                                            01 
01080060008000013000004000000000009000000000000REP       Lieutenant Governor SAN JACINTO COUNTYWIDE              UNDER VOTES                           Precinct #8                                            01 
01080060009000007000001000000000006000000000000REP       Lieutenant Governor SAN JACINTO COUNTYWIDE              UNDER VOTES                           Precinct #10                                           01 
01080060010000007000001000000000006000000000000REP       Lieutenant Governor SAN JACINTO COUNTYWIDE              UNDER VOTES                           Precinct #13                                           01 
01080060011000000000000000000000000000000000000REP       Lieutenant Governor SAN JACINTO COUNTYWIDE              UNDER VOTES                           Precinct #14                                           01 
01090010001000137000069000010000058000000000000REP       Attorney General SAN JACINTO COUNTYWIDE                 Dan Branch                            Precinct #1                                            01 
01090010002000185000067000008000110000000000000REP       Attorney General SAN JACINTO COUNTYWIDE                 Dan Branch                            Precinct #2                                            01 
01090010003000065000035000000000030000000000000REP       Attorney General SAN JACINTO COUNTYWIDE                 Dan Branch                            Precinct #3                                            01 
01090010004000065000023000003000039000000000000REP       Attorney General SAN JACINTO COUNTYWIDE                 Dan Branch                            Precinct #4                                            01 
01090010005000085000039000001000045000000000000REP       Attorney General SAN JACINTO COUNTYWIDE                 Dan Branch                            Precinct #5                                            01 
01090010006000128000072000005000051000000000000REP       Attorney General SAN JACINTO COUNTYWIDE                 Dan Branch                            Precinct #6                                            01 
01090010007000115000028000008000079000000000000REP       Attorney General SAN JACINTO COUNTYWIDE                 Dan Branch                            Precinct #7                                            01 
01090010008000054000013000007000034000000000000REP       Attorney General SAN JACINTO COUNTYWIDE                 Dan Branch                            Precinct #8                                            01 
01090010009000048000013000006000029000000000000REP       Attorney General SAN JACINTO COUNTYWIDE                 Dan Branch                            Precinct #10                                           01 
01090010010000039000008000006000025000000000000REP       Attorney General SAN JACINTO COUNTYWIDE                 Dan Branch                            Precinct #13                                           01 
01090010011000025000005000005000015000000000000REP       Attorney General SAN JACINTO COUNTYWIDE                 Dan Branch                            Precinct #14                                           01 
01090020001000154000087000001000066000000000000REP       Attorney General SAN JACINTO COUNTYWIDE                 Ken Paxton                            Precinct #1                                            01 
01090020002000164000067000004000093000000000000REP       Attorney General SAN JACINTO COUNTYWIDE                 Ken Paxton                            Precinct #2                                            01 
01090020003000063000028000001000034000000000000REP       Attorney General SAN JACINTO COUNTYWIDE                 Ken Paxton                            Precinct #3                                            01 
01090020004000074000039000001000034000000000000REP       Attorney General SAN JACINTO COUNTYWIDE                 Ken Paxton                            Precinct #4                                            01 
01090020005000104000040000003000061000000000000REP       Attorney General SAN JACINTO COUNTYWIDE                 Ken Paxton                            Precinct #5                                            01 
01090020006000141000072000011000058000000000000REP       Attorney General SAN JACINTO COUNTYWIDE                 Ken Paxton                            Precinct #6                                            01 
01090020007000103000026000004000073000000000000REP       Attorney General SAN JACINTO COUNTYWIDE                 Ken Paxton                            Precinct #7                                            01 
01090020008000052000016000006000030000000000000REP       Attorney General SAN JACINTO COUNTYWIDE                 Ken Paxton                            Precinct #8                                            01 
01090020009000053000021000000000032000000000000REP       Attorney General SAN JACINTO COUNTYWIDE                 Ken Paxton                            Precinct #10                                           01 
01090020010000046000013000004000029000000000000REP       Attorney General SAN JACINTO COUNTYWIDE                 Ken Paxton                            Precinct #13                                           01 
01090020011000032000013000000000019000000000000REP       Attorney General SAN JACINTO COUNTYWIDE                 Ken Paxton                            Precinct #14                                           01 
01090030001000085000058000008000019000000000000REP       Attorney General SAN JACINTO COUNTYWIDE                 Barry Smitherman                      Precinct #1                                            01 
01090030002000085000037000004000044000000000000REP       Attorney General SAN JACINTO COUNTYWIDE                 Barry Smitherman                      Precinct #2                                            01 
01090030003000020000014000000000006000000000000REP       Attorney General SAN JACINTO COUNTYWIDE                 Barry Smitherman                      Precinct #3                                            01 
01090030004000035000014000001000020000000000000REP       Attorney General SAN JACINTO COUNTYWIDE                 Barry Smitherman                      Precinct #4                                            01 
01090030005000053000019000014000020000000000000REP       Attorney General SAN JACINTO COUNTYWIDE                 Barry Smitherman                      Precinct #5                                            01 
01090030006000090000049000011000030000000000000REP       Attorney General SAN JACINTO COUNTYWIDE                 Barry Smitherman                      Precinct #6                                            01 
01090030007000067000015000017000035000000000000REP       Attorney General SAN JACINTO COUNTYWIDE                 Barry Smitherman                      Precinct #7                                            01 
01090030008000029000007000006000016000000000000REP       Attorney General SAN JACINTO COUNTYWIDE                 Barry Smitherman                      Precinct #8                                            01 
01090030009000037000017000001000019000000000000REP       Attorney General SAN JACINTO COUNTYWIDE                 Barry Smitherman                      Precinct #10                                           01 
01090030010000023000008000001000014000000000000REP       Attorney General SAN JACINTO COUNTYWIDE                 Barry Smitherman                      Precinct #13                                           01 
01090030011000022000008000002000012000000000000REP       Attorney General SAN JACINTO COUNTYWIDE                 Barry Smitherman                      Precinct #14                                           01 
01090040001000000000000000000000000000000000000REP       Attorney General SAN JACINTO COUNTYWIDE                 OVER VOTES                            Precinct #1                                            01 
01090040002000000000000000000000000000000000000REP       Attorney General SAN JACINTO COUNTYWIDE                 OVER VOTES                            Precinct #2                                            01 
01090040003000000000000000000000000000000000000REP       Attorney General SAN JACINTO COUNTYWIDE                 OVER VOTES                            Precinct #3                                            01 
01090040004000000000000000000000000000000000000REP       Attorney General SAN JACINTO COUNTYWIDE                 OVER VOTES                            Precinct #4                                            01 
01090040005000000000000000000000000000000000000REP       Attorney General SAN JACINTO COUNTYWIDE                 OVER VOTES                            Precinct #5                                            01 
01090040006000000000000000000000000000000000000REP       Attorney General SAN JACINTO COUNTYWIDE                 OVER VOTES                            Precinct #6                                            01 
01090040007000000000000000000000000000000000000REP       Attorney General SAN JACINTO COUNTYWIDE                 OVER VOTES                            Precinct #7                                            01 
01090040008000000000000000000000000000000000000REP       Attorney General SAN JACINTO COUNTYWIDE                 OVER VOTES                            Precinct #8                                            01 
01090040009000000000000000000000000000000000000REP       Attorney General SAN JACINTO COUNTYWIDE                 OVER VOTES                            Precinct #10                                           01 
01090040010000000000000000000000000000000000000REP       Attorney General SAN JACINTO COUNTYWIDE                 OVER VOTES                            Precinct #13                                           01 
01090040011000000000000000000000000000000000000REP       Attorney General SAN JACINTO COUNTYWIDE                 OVER VOTES                            Precinct #14                                           01 
01090050001000029000020000001000008000000000000REP       Attorney General SAN JACINTO COUNTYWIDE                 UNDER VOTES                           Precinct #1                                            01 
01090050002000050000019000000000031000000000000REP       Attorney General SAN JACINTO COUNTYWIDE                 UNDER VOTES                           Precinct #2                                            01 
01090050003000019000009000000000010000000000000REP       Attorney General SAN JACINTO COUNTYWIDE                 UNDER VOTES                           Precinct #3                                            01 
01090050004000019000010000001000008000000000000REP       Attorney General SAN JACINTO COUNTYWIDE                 UNDER VOTES                           Precinct #4                                            01 
01090050005000017000008000000000009000000000000REP       Attorney General SAN JACINTO COUNTYWIDE                 UNDER VOTES                           Precinct #5                                            01 
01090050006000030000014000001000015000000000000REP       Attorney General SAN JACINTO COUNTYWIDE                 UNDER VOTES                           Precinct #6                                            01 
01090050007000012000005000001000006000000000000REP       Attorney General SAN JACINTO COUNTYWIDE                 UNDER VOTES                           Precinct #7                                            01 
01090050008000020000006000001000013000000000000REP       Attorney General SAN JACINTO COUNTYWIDE                 UNDER VOTES                           Precinct #8                                            01 
01090050009000011000002000000000009000000000000REP       Attorney General SAN JACINTO COUNTYWIDE                 UNDER VOTES                           Precinct #10                                           01 
01090050010000009000003000000000006000000000000REP       Attorney General SAN JACINTO COUNTYWIDE                 UNDER VOTES                           Precinct #13                                           01 
01090050011000001000000000000000001000000000000REP       Attorney General SAN JACINTO COUNTYWIDE                 UNDER VOTES                           Precinct #14                                           01 
01100010001000026000017000000000009000000000000REP       Comptroller of Public Accounts SAN JACINTO COUNTYWIDE   Raul Torres                           Precinct #1                                            01 
01100010002000035000012000000000023000000000000REP       Comptroller of Public Accounts SAN JACINTO COUNTYWIDE   Raul Torres                           Precinct #2                                            01 
01100010003000012000007000000000005000000000000REP       Comptroller of Public Accounts SAN JACINTO COUNTYWIDE   Raul Torres                           Precinct #3                                            01 
01100010004000007000004000000000003000000000000REP       Comptroller of Public Accounts SAN JACINTO COUNTYWIDE   Raul Torres                           Precinct #4                                            01 
01100010005000010000004000000000006000000000000REP       Comptroller of Public Accounts SAN JACINTO COUNTYWIDE   Raul Torres                           Precinct #5                                            01 
01100010006000015000009000000000006000000000000REP       Comptroller of Public Accounts SAN JACINTO COUNTYWIDE   Raul Torres                           Precinct #6                                            01 
01100010007000020000007000001000012000000000000REP       Comptroller of Public Accounts SAN JACINTO COUNTYWIDE   Raul Torres                           Precinct #7                                            01 
01100010008000007000001000000000006000000000000REP       Comptroller of Public Accounts SAN JACINTO COUNTYWIDE   Raul Torres                           Precinct #8                                            01 
01100010009000009000002000000000007000000000000REP       Comptroller of Public Accounts SAN JACINTO COUNTYWIDE   Raul Torres                           Precinct #10                                           01 
01100010010000004000003000000000001000000000000REP       Comptroller of Public Accounts SAN JACINTO COUNTYWIDE   Raul Torres                           Precinct #13                                           01 
01100010011000003000001000000000002000000000000REP       Comptroller of Public Accounts SAN JACINTO COUNTYWIDE   Raul Torres                           Precinct #14                                           01 
01100020001000078000041000002000035000000000000REP       Comptroller of Public Accounts SAN JACINTO COUNTYWIDE   Debra Medina                          Precinct #1                                            01 
01100020002000081000040000000000041000000000000REP       Comptroller of Public Accounts SAN JACINTO COUNTYWIDE   Debra Medina                          Precinct #2                                            01 
01100020003000040000016000000000024000000000000REP       Comptroller of Public Accounts SAN JACINTO COUNTYWIDE   Debra Medina                          Precinct #3                                            01 
01100020004000037000013000001000023000000000000REP       Comptroller of Public Accounts SAN JACINTO COUNTYWIDE   Debra Medina                          Precinct #4                                            01 
01100020005000046000022000001000023000000000000REP       Comptroller of Public Accounts SAN JACINTO COUNTYWIDE   Debra Medina                          Precinct #5                                            01 
01100020006000081000049000006000026000000000000REP       Comptroller of Public Accounts SAN JACINTO COUNTYWIDE   Debra Medina                          Precinct #6                                            01 
01100020007000069000024000002000043000000000000REP       Comptroller of Public Accounts SAN JACINTO COUNTYWIDE   Debra Medina                          Precinct #7                                            01 
01100020008000030000003000006000021000000000000REP       Comptroller of Public Accounts SAN JACINTO COUNTYWIDE   Debra Medina                          Precinct #8                                            01 
01100020009000037000019000001000017000000000000REP       Comptroller of Public Accounts SAN JACINTO COUNTYWIDE   Debra Medina                          Precinct #10                                           01 
01100020010000031000007000001000023000000000000REP       Comptroller of Public Accounts SAN JACINTO COUNTYWIDE   Debra Medina                          Precinct #13                                           01 
01100020011000020000010000000000010000000000000REP       Comptroller of Public Accounts SAN JACINTO COUNTYWIDE   Debra Medina                          Precinct #14                                           01 
01100030001000074000036000011000027000000000000REP       Comptroller of Public Accounts SAN JACINTO COUNTYWIDE   Harvey Hilderbran                     Precinct #1                                            01 
01100030002000102000035000006000061000000000000REP       Comptroller of Public Accounts SAN JACINTO COUNTYWIDE   Harvey Hilderbran                     Precinct #2                                            01 
01100030003000032000020000000000012000000000000REP       Comptroller of Public Accounts SAN JACINTO COUNTYWIDE   Harvey Hilderbran                     Precinct #3                                            01 
01100030004000026000011000001000014000000000000REP       Comptroller of Public Accounts SAN JACINTO COUNTYWIDE   Harvey Hilderbran                     Precinct #4                                            01 
01100030005000054000020000013000021000000000000REP       Comptroller of Public Accounts SAN JACINTO COUNTYWIDE   Harvey Hilderbran                     Precinct #5                                            01 
01100030006000082000042000012000028000000000000REP       Comptroller of Public Accounts SAN JACINTO COUNTYWIDE   Harvey Hilderbran                     Precinct #6                                            01 
01100030007000073000011000020000042000000000000REP       Comptroller of Public Accounts SAN JACINTO COUNTYWIDE   Harvey Hilderbran                     Precinct #7                                            01 
01100030008000032000012000008000012000000000000REP       Comptroller of Public Accounts SAN JACINTO COUNTYWIDE   Harvey Hilderbran                     Precinct #8                                            01 
01100030009000022000007000003000012000000000000REP       Comptroller of Public Accounts SAN JACINTO COUNTYWIDE   Harvey Hilderbran                     Precinct #10                                           01 
01100030010000021000004000006000011000000000000REP       Comptroller of Public Accounts SAN JACINTO COUNTYWIDE   Harvey Hilderbran                     Precinct #13                                           01 
01100030011000016000004000004000008000000000000REP       Comptroller of Public Accounts SAN JACINTO COUNTYWIDE   Harvey Hilderbran                     Precinct #14                                           01 
01100040001000158000092000006000060000000000000REP       Comptroller of Public Accounts SAN JACINTO COUNTYWIDE   Glenn Hegar                           Precinct #1                                            01 
01100040002000184000069000009000106000000000000REP       Comptroller of Public Accounts SAN JACINTO COUNTYWIDE   Glenn Hegar                           Precinct #2                                            01 
01100040003000055000027000001000027000000000000REP       Comptroller of Public Accounts SAN JACINTO COUNTYWIDE   Glenn Hegar                           Precinct #3                                            01 
01100040004000084000039000003000042000000000000REP       Comptroller of Public Accounts SAN JACINTO COUNTYWIDE   Glenn Hegar                           Precinct #4                                            01 
01100040005000127000046000004000077000000000000REP       Comptroller of Public Accounts SAN JACINTO COUNTYWIDE   Glenn Hegar                           Precinct #5                                            01 
01100040006000160000077000008000075000000000000REP       Comptroller of Public Accounts SAN JACINTO COUNTYWIDE   Glenn Hegar                           Precinct #6                                            01 
01100040007000121000026000006000089000000000000REP       Comptroller of Public Accounts SAN JACINTO COUNTYWIDE   Glenn Hegar                           Precinct #7                                            01 
01100040008000052000017000004000031000000000000REP       Comptroller of Public Accounts SAN JACINTO COUNTYWIDE   Glenn Hegar                           Precinct #8                                            01 
01100040009000059000019000003000037000000000000REP       Comptroller of Public Accounts SAN JACINTO COUNTYWIDE   Glenn Hegar                           Precinct #10                                           01 
01100040010000046000014000004000028000000000000REP       Comptroller of Public Accounts SAN JACINTO COUNTYWIDE   Glenn Hegar                           Precinct #13                                           01 
01100040011000032000009000002000021000000000000REP       Comptroller of Public Accounts SAN JACINTO COUNTYWIDE   Glenn Hegar                           Precinct #14                                           01 
01100050001000000000000000000000000000000000000REP       Comptroller of Public Accounts SAN JACINTO COUNTYWIDE   OVER VOTES                            Precinct #1                                            01 
01100050002000000000000000000000000000000000000REP       Comptroller of Public Accounts SAN JACINTO COUNTYWIDE   OVER VOTES                            Precinct #2                                            01 
01100050003000000000000000000000000000000000000REP       Comptroller of Public Accounts SAN JACINTO COUNTYWIDE   OVER VOTES                            Precinct #3                                            01 
01100050004000000000000000000000000000000000000REP       Comptroller of Public Accounts SAN JACINTO COUNTYWIDE   OVER VOTES                            Precinct #4                                            01 
01100050005000000000000000000000000000000000000REP       Comptroller of Public Accounts SAN JACINTO COUNTYWIDE   OVER VOTES                            Precinct #5                                            01 
01100050006000000000000000000000000000000000000REP       Comptroller of Public Accounts SAN JACINTO COUNTYWIDE   OVER VOTES                            Precinct #6                                            01 
01100050007000000000000000000000000000000000000REP       Comptroller of Public Accounts SAN JACINTO COUNTYWIDE   OVER VOTES                            Precinct #7                                            01 
01100050008000000000000000000000000000000000000REP       Comptroller of Public Accounts SAN JACINTO COUNTYWIDE   OVER VOTES                            Precinct #8                                            01 
01100050009000000000000000000000000000000000000REP       Comptroller of Public Accounts SAN JACINTO COUNTYWIDE   OVER VOTES                            Precinct #10                                           01 
01100050010000000000000000000000000000000000000REP       Comptroller of Public Accounts SAN JACINTO COUNTYWIDE   OVER VOTES                            Precinct #13                                           01 
01100050011000000000000000000000000000000000000REP       Comptroller of Public Accounts SAN JACINTO COUNTYWIDE   OVER VOTES                            Precinct #14                                           01 
01100060001000069000048000001000020000000000000REP       Comptroller of Public Accounts SAN JACINTO COUNTYWIDE   UNDER VOTES                           Precinct #1                                            01 
01100060002000082000034000001000047000000000000REP       Comptroller of Public Accounts SAN JACINTO COUNTYWIDE   UNDER VOTES                           Precinct #2                                            01 
01100060003000028000016000000000012000000000000REP       Comptroller of Public Accounts SAN JACINTO COUNTYWIDE   UNDER VOTES                           Precinct #3                                            01 
01100060004000039000019000001000019000000000000REP       Comptroller of Public Accounts SAN JACINTO COUNTYWIDE   UNDER VOTES                           Precinct #4                                            01 
01100060005000022000014000000000008000000000000REP       Comptroller of Public Accounts SAN JACINTO COUNTYWIDE   UNDER VOTES                           Precinct #5                                            01 
01100060006000051000030000002000019000000000000REP       Comptroller of Public Accounts SAN JACINTO COUNTYWIDE   UNDER VOTES                           Precinct #6                                            01 
01100060007000014000006000001000007000000000000REP       Comptroller of Public Accounts SAN JACINTO COUNTYWIDE   UNDER VOTES                           Precinct #7                                            01 
01100060008000034000009000002000023000000000000REP       Comptroller of Public Accounts SAN JACINTO COUNTYWIDE   UNDER VOTES                           Precinct #8                                            01 
01100060009000022000006000000000016000000000000REP       Comptroller of Public Accounts SAN JACINTO COUNTYWIDE   UNDER VOTES                           Precinct #10                                           01 
01100060010000015000004000000000011000000000000REP       Comptroller of Public Accounts SAN JACINTO COUNTYWIDE   UNDER VOTES                           Precinct #13                                           01 
01100060011000009000002000001000006000000000000REP       Comptroller of Public Accounts SAN JACINTO COUNTYWIDE   UNDER VOTES                           Precinct #14                                           01 
01110010001000118000060000002000056000000000000REP       Commissioner of the General Land Office                 David Watts                           Precinct #1                                            01 
01110010002000125000046000003000076000000000000REP       Commissioner of the General Land Office                 David Watts                           Precinct #2                                            01 
01110010003000038000019000001000018000000000000REP       Commissioner of the General Land Office                 David Watts                           Precinct #3                                            01 
01110010004000052000026000002000024000000000000REP       Commissioner of the General Land Office                 David Watts                           Precinct #4                                            01 
01110010005000087000029000003000055000000000000REP       Commissioner of the General Land Office                 David Watts                           Precinct #5                                            01 
01110010006000105000056000008000041000000000000REP       Commissioner of the General Land Office                 David Watts                           Precinct #6                                            01 
01110010007000098000020000005000073000000000000REP       Commissioner of the General Land Office                 David Watts                           Precinct #7                                            01 
01110010008000049000013000005000031000000000000REP       Commissioner of the General Land Office                 David Watts                           Precinct #8                                            01 
01110010009000051000019000004000028000000000000REP       Commissioner of the General Land Office                 David Watts                           Precinct #10                                           01 
01110010010000033000010000000000023000000000000REP       Commissioner of the General Land Office                 David Watts                           Precinct #13                                           01 
01110010011000035000009000001000025000000000000REP       Commissioner of the General Land Office                 David Watts                           Precinct #14                                           01 
01110020001000249000146000018000085000000000000REP       Commissioner of the General Land Office                 George P. Bush                        Precinct #1                                            01 
01110020002000305000123000013000169000000000000REP       Commissioner of the General Land Office                 George P. Bush                        Precinct #2                                            01 
01110020003000109000058000000000051000000000000REP       Commissioner of the General Land Office                 George P. Bush                        Precinct #3                                            01 
01110020004000116000051000003000062000000000000REP       Commissioner of the General Land Office                 George P. Bush                        Precinct #4                                            01 
01110020005000158000067000015000076000000000000REP       Commissioner of the General Land Office                 George P. Bush                        Precinct #5                                            01 
01110020006000252000133000019000100000000000000REP       Commissioner of the General Land Office                 George P. Bush                        Precinct #6                                            01 
01110020007000190000048000025000117000000000000REP       Commissioner of the General Land Office                 George P. Bush                        Precinct #7                                            01 
01110020008000086000023000015000048000000000000REP       Commissioner of the General Land Office                 George P. Bush                        Precinct #8                                            01 
01110020009000083000028000003000052000000000000REP       Commissioner of the General Land Office                 George P. Bush                        Precinct #10                                           01 
01110020010000072000019000011000042000000000000REP       Commissioner of the General Land Office                 George P. Bush                        Precinct #13                                           01 
01110020011000041000015000005000021000000000000REP       Commissioner of the General Land Office                 George P. Bush                        Precinct #14                                           01 
