01010010001002654          REGISTERED VOTERS - TOTAL                               REGISTERED VOTERS - TOTAL             Precinct #1                                            00 
01010010002003784          REGISTERED VOTERS - TOTAL                               REGISTERED VOTERS - TOTAL             Precinct #2                                            00 
01010010003001096          REGISTERED VOTERS - TOTAL                               REGISTERED VOTERS - TOTAL             Precinct #3                                            00 
01010010004000685          REGISTERED VOTERS - TOTAL                               REGISTERED VOTERS - TOTAL             Precinct #4                                            00 
01010010005001836          REGISTERED VOTERS - TOTAL                               REGISTERED VOTERS - TOTAL             Precinct #5                                            00 
01010010006001768          REGISTERED VOTERS - TOTAL                               REGISTERED VOTERS - TOTAL             Precinct #6                                            00 
01010010007001900          REGISTERED VOTERS - TOTAL                               REGISTERED VOTERS - TOTAL             Precinct #7                                            00 
01010010008001030          REGISTERED VOTERS - TOTAL                               REGISTERED VOTERS - TOTAL             Precinct #8                                            00 
01010010009000543          REGISTERED VOTERS - TOTAL                               REGISTERED VOTERS - TOTAL             Precinct #10                                           00 
01010010010000609          REGISTERED VOTERS - TOTAL                               REGISTERED VOTERS - TOTAL             Precinct #13                                           00 
01010010011000667          REGISTERED VOTERS - TOTAL                               REGISTERED VOTERS - TOTAL             Precinct #14                                           00 
01010010013000000          REGISTERED VOTERS - TOTAL                               REGISTERED VOTERS - TOTAL             Shepherd ISD                                           00 
01010010014000000          REGISTERED VOTERS - TOTAL                               REGISTERED VOTERS - TOTAL             Willis ISD                                             00 
01010010015000000          REGISTERED VOTERS - TOTAL                               REGISTERED VOTERS - TOTAL             Lone Star College System                               00 
01020010001001094          BALLOTS CAST - TOTAL                                    BALLOTS CAST - TOTAL                  Precinct #1                                            00 
01020010002001085          BALLOTS CAST - TOTAL                                    BALLOTS CAST - TOTAL                  Precinct #2                                            00 
01020010003000487          BALLOTS CAST - TOTAL                                    BALLOTS CAST - TOTAL                  Precinct #3                                            00 
01020010004000291          BALLOTS CAST - TOTAL                                    BALLOTS CAST - TOTAL                  Precinct #4                                            00 
01020010005000643          BALLOTS CAST - TOTAL                                    BALLOTS CAST - TOTAL                  Precinct #5                                            00 
01020010006000909          BALLOTS CAST - TOTAL                                    BALLOTS CAST - TOTAL                  Precinct #6                                            00 
01020010007000870          BALLOTS CAST - TOTAL                                    BALLOTS CAST - TOTAL                  Precinct #7                                            00 
01020010008000461          BALLOTS CAST - TOTAL                                    BALLOTS CAST - TOTAL                  Precinct #8                                            00 
01020010009000273          BALLOTS CAST - TOTAL                                    BALLOTS CAST - TOTAL                  Precinct #10                                           00 
01020010010000212          BALLOTS CAST - TOTAL                                    BALLOTS CAST - TOTAL                  Precinct #13                                           00 
01020010011000267          BALLOTS CAST - TOTAL                                    BALLOTS CAST - TOTAL                  Precinct #14                                           00 
01020010012000000          BALLOTS CAST - TOTAL                                    BALLOTS CAST - TOTAL                  City of Shepherd                                       00 
01020010013000688          BALLOTS CAST - TOTAL                                    BALLOTS CAST - TOTAL                  Shepherd ISD                                           00 
01020010014000089          BALLOTS CAST - TOTAL                                    BALLOTS CAST - TOTAL                  Willis ISD                                             00 
01020010015000086          BALLOTS CAST - TOTAL                                    BALLOTS CAST - TOTAL                  Lone Star College System                               00 
01030010001000313REP       STRAIGHT PARTY                                          REPUBLICAN PARTY                      Precinct #1                                            01 
01030010002000296REP       STRAIGHT PARTY                                          REPUBLICAN PARTY                      Precinct #2                                            01 
01030010003000117REP       STRAIGHT PARTY                                          REPUBLICAN PARTY                      Precinct #3                                            01 
01030010004000118REP       STRAIGHT PARTY                                          REPUBLICAN PARTY                      Precinct #4                                            01 
01030010005000261REP       STRAIGHT PARTY                                          REPUBLICAN PARTY                      Precinct #5                                            01 
01030010006000322REP       STRAIGHT PARTY                                          REPUBLICAN PARTY                      Precinct #6                                            01 
01030010007000262REP       STRAIGHT PARTY                                          REPUBLICAN PARTY                      Precinct #7                                            01 
01030010008000122REP       STRAIGHT PARTY                                          REPUBLICAN PARTY                      Precinct #8                                            01 
01030010009000079REP       STRAIGHT PARTY                                          REPUBLICAN PARTY                      Precinct #10                                           01 
01030010010000096REP       STRAIGHT PARTY                                          REPUBLICAN PARTY                      Precinct #13                                           01 
01030010011000082REP       STRAIGHT PARTY                                          REPUBLICAN PARTY                      Precinct #14                                           01 
01030020001000144DEM       STRAIGHT PARTY                                          DEMOCRATIC PARTY                      Precinct #1                                            01 
01030020002000158DEM       STRAIGHT PARTY                                          DEMOCRATIC PARTY                      Precinct #2                                            01 
01030020003000093DEM       STRAIGHT PARTY                                          DEMOCRATIC PARTY                      Precinct #3                                            01 
01030020004000009DEM       STRAIGHT PARTY                                          DEMOCRATIC PARTY                      Precinct #4                                            01 
01030020005000038DEM       STRAIGHT PARTY                                          DEMOCRATIC PARTY                      Precinct #5                                            01 
01030020006000080DEM       STRAIGHT PARTY                                          DEMOCRATIC PARTY                      Precinct #6                                            01 
01030020007000144DEM       STRAIGHT PARTY                                          DEMOCRATIC PARTY                      Precinct #7                                            01 
01030020008000080DEM       STRAIGHT PARTY                                          DEMOCRATIC PARTY                      Precinct #8                                            01 
01030020009000023DEM       STRAIGHT PARTY                                          DEMOCRATIC PARTY                      Precinct #10                                           01 
01030020010000022DEM       STRAIGHT PARTY                                          DEMOCRATIC PARTY                      Precinct #13                                           01 
01030020011000056DEM       STRAIGHT PARTY                                          DEMOCRATIC PARTY                      Precinct #14                                           01 
01030030001000002LIB       STRAIGHT PARTY                                          LIBERTARIAN PARTY                     Precinct #1                                            01 
01030030002000008LIB       STRAIGHT PARTY                                          LIBERTARIAN PARTY                     Precinct #2                                            01 
01030030003000001LIB       STRAIGHT PARTY                                          LIBERTARIAN PARTY                     Precinct #3                                            01 
01030030004000002LIB       STRAIGHT PARTY                                          LIBERTARIAN PARTY                     Precinct #4                                            01 
01030030005000001LIB       STRAIGHT PARTY                                          LIBERTARIAN PARTY                     Precinct #5                                            01 
01030030006000002LIB       STRAIGHT PARTY                                          LIBERTARIAN PARTY                     Precinct #6                                            01 
01030030007000001LIB       STRAIGHT PARTY                                          LIBERTARIAN PARTY                     Precinct #7                                            01 
01030030008000000LIB       STRAIGHT PARTY                                          LIBERTARIAN PARTY                     Precinct #8                                            01 
01030030009000001LIB       STRAIGHT PARTY                                          LIBERTARIAN PARTY                     Precinct #10                                           01 
01030030010000000LIB       STRAIGHT PARTY                                          LIBERTARIAN PARTY                     Precinct #13                                           01 
01030030011000000LIB       STRAIGHT PARTY                                          LIBERTARIAN PARTY                     Precinct #14                                           01 
01030040001000000GRN       STRAIGHT PARTY                                          GREEN PARTY                           Precinct #1                                            01 
01030040002000003GRN       STRAIGHT PARTY                                          GREEN PARTY                           Precinct #2                                            01 
01030040003000003GRN       STRAIGHT PARTY                                          GREEN PARTY                           Precinct #3                                            01 
01030040004000000GRN       STRAIGHT PARTY                                          GREEN PARTY                           Precinct #4                                            01 
01030040005000001GRN       STRAIGHT PARTY                                          GREEN PARTY                           Precinct #5                                            01 
01030040006000001GRN       STRAIGHT PARTY                                          GREEN PARTY                           Precinct #6                                            01 
01030040007000001GRN       STRAIGHT PARTY                                          GREEN PARTY                           Precinct #7                                            01 
01030040008000000GRN       STRAIGHT PARTY                                          GREEN PARTY                           Precinct #8                                            01 
01030040009000000GRN       STRAIGHT PARTY                                          GREEN PARTY                           Precinct #10                                           01 
01030040010000000GRN       STRAIGHT PARTY                                          GREEN PARTY                           Precinct #13                                           01 
01030040011000001GRN       STRAIGHT PARTY                                          GREEN PARTY                           Precinct #14                                           01 
01030050001000000          STRAIGHT PARTY                                          OVER VOTES                            Precinct #1                                            01 
01030050002000000          STRAIGHT PARTY                                          OVER VOTES                            Precinct #2                                            01 
01030050003000000          STRAIGHT PARTY                                          OVER VOTES                            Precinct #3                                            01 
01030050004000000          STRAIGHT PARTY                                          OVER VOTES                            Precinct #4                                            01 
01030050005000000          STRAIGHT PARTY                                          OVER VOTES                            Precinct #5                                            01 
01030050006000000          STRAIGHT PARTY                                          OVER VOTES                            Precinct #6                                            01 
01030050007000000          STRAIGHT PARTY                                          OVER VOTES                            Precinct #7                                            01 
01030050008000000          STRAIGHT PARTY                                          OVER VOTES                            Precinct #8                                            01 
01030050009000000          STRAIGHT PARTY                                          OVER VOTES                            Precinct #10                                           01 
01030050010000000          STRAIGHT PARTY                                          OVER VOTES                            Precinct #13                                           01 
01030050011000000          STRAIGHT PARTY                                          OVER VOTES                            Precinct #14                                           01 
01030060001000634          STRAIGHT PARTY                                          UNDER VOTES                           Precinct #1                                            01 
01030060002000620          STRAIGHT PARTY                                          UNDER VOTES                           Precinct #2                                            01 
01030060003000273          STRAIGHT PARTY                                          UNDER VOTES                           Precinct #3                                            01 
01030060004000162          STRAIGHT PARTY                                          UNDER VOTES                           Precinct #4                                            01 
01030060005000341          STRAIGHT PARTY                                          UNDER VOTES                           Precinct #5                                            01 
01030060006000504          STRAIGHT PARTY                                          UNDER VOTES                           Precinct #6                                            01 
01030060007000462          STRAIGHT PARTY                                          UNDER VOTES                           Precinct #7                                            01 
01030060008000259          STRAIGHT PARTY                                          UNDER VOTES                           Precinct #8                                            01 
01030060009000170          STRAIGHT PARTY                                          UNDER VOTES                           Precinct #10                                           01 
01030060010000094          STRAIGHT PARTY                                          UNDER VOTES                           Precinct #13                                           01 
01030060011000128          STRAIGHT PARTY                                          UNDER VOTES                           Precinct #14                                           01 
01040010001000742REP       United States Senator                                   John Cornyn                           Precinct #1                                            01 
01040010002000730REP       United States Senator                                   John Cornyn                           Precinct #2                                            01 
01040010003000323REP       United States Senator                                   John Cornyn                           Precinct #3                                            01 
01040010004000240REP       United States Senator                                   John Cornyn                           Precinct #4                                            01 
01040010005000513REP       United States Senator                                   John Cornyn                           Precinct #5                                            01 
01040010006000706REP       United States Senator                                   John Cornyn                           Precinct #6                                            01 
01040010007000578REP       United States Senator                                   John Cornyn                           Precinct #7                                            01 
01040010008000296REP       United States Senator                                   John Cornyn                           Precinct #8                                            01 
01040010009000205REP       United States Senator                                   John Cornyn                           Precinct #10                                           01 
01040010010000167REP       United States Senator                                   John Cornyn                           Precinct #13                                           01 
01040010011000171REP       United States Senator                                   John Cornyn                           Precinct #14                                           01 
01040020001000252DEM       United States Senator                                   David M. Alameel                      Precinct #1                                            01 
01040020002000234DEM       United States Senator                                   David M. Alameel                      Precinct #2                                            01 
01040020003000123DEM       United States Senator                                   David M. Alameel                      Precinct #3                                            01 
01040020004000020DEM       United States Senator                                   David M. Alameel                      Precinct #4                                            01 
01040020005000076DEM       United States Senator                                   David M. Alameel                      Precinct #5                                            01 
01040020006000142DEM       United States Senator                                   David M. Alameel                      Precinct #6                                            01 
01040020007000233DEM       United States Senator                                   David M. Alameel                      Precinct #7                                            01 
01040020008000119DEM       United States Senator                                   David M. Alameel                      Precinct #8                                            01 
01040020009000040DEM       United States Senator                                   David M. Alameel                      Precinct #10                                           01 
01040020010000032DEM       United States Senator                                   David M. Alameel                      Precinct #13                                           01 
01040020011000071DEM       United States Senator                                   David M. Alameel                      Precinct #14                                           01 
01040030001000036LIB       United States Senator                                   Rebecca Paddock                       Precinct #1                                            01 
01040030002000047LIB       United States Senator                                   Rebecca Paddock                       Precinct #2                                            01 
01040030003000011LIB       United States Senator                                   Rebecca Paddock                       Precinct #3                                            01 
01040030004000011LIB       United States Senator                                   Rebecca Paddock                       Precinct #4                                            01 
01040030005000037LIB       United States Senator                                   Rebecca Paddock                       Precinct #5                                            01 
01040030006000024LIB       United States Senator                                   Rebecca Paddock                       Precinct #6                                            01 
01040030007000016LIB       United States Senator                                   Rebecca Paddock                       Precinct #7                                            01 
01040030008000013LIB       United States Senator                                   Rebecca Paddock                       Precinct #8                                            01 
01040030009000013LIB       United States Senator                                   Rebecca Paddock                       Precinct #10                                           01 
01040030010000004LIB       United States Senator                                   Rebecca Paddock                       Precinct #13                                           01 
01040030011000006LIB       United States Senator                                   Rebecca Paddock                       Precinct #14                                           01 
01040040001000009GRN       United States Senator                                   Emily "Spicybrown" Sanchez            Precinct #1                                            01 
01040040002000008GRN       United States Senator                                   Emily "Spicybrown" Sanchez            Precinct #2                                            01 
01040040003000001GRN       United States Senator                                   Emily "Spicybrown" Sanchez            Precinct #3                                            01 
01040040004000003GRN       United States Senator                                   Emily "Spicybrown" Sanchez            Precinct #4                                            01 
01040040005000005GRN       United States Senator                                   Emily "Spicybrown" Sanchez            Precinct #5                                            01 
01040040006000004GRN       United States Senator                                   Emily "Spicybrown" Sanchez            Precinct #6                                            01 
01040040007000006GRN       United States Senator                                   Emily "Spicybrown" Sanchez            Precinct #7                                            01 
01040040008000008GRN       United States Senator                                   Emily "Spicybrown" Sanchez            Precinct #8                                            01 
01040040009000000GRN       United States Senator                                   Emily "Spicybrown" Sanchez            Precinct #10                                           01 
01040040010000000GRN       United States Senator                                   Emily "Spicybrown" Sanchez            Precinct #13                                           01 
01040040011000001GRN       United States Senator                                   Emily "Spicybrown" Sanchez            Precinct #14                                           01 
01040050001000001NON       United States Senator                                   WRITE-IN                              Precinct #1                                            01 
01040050002000001NON       United States Senator                                   WRITE-IN                              Precinct #2                                            01 
01040050003000001NON       United States Senator                                   WRITE-IN                              Precinct #3                                            01 
01040050004000000NON       United States Senator                                   WRITE-IN                              Precinct #4                                            01 
01040050005000000NON       United States Senator                                   WRITE-IN                              Precinct #5                                            01 
01040050006000001NON       United States Senator                                   WRITE-IN                              Precinct #6                                            01 
01040050007000001NON       United States Senator                                   WRITE-IN                              Precinct #7                                            01 
01040050008000000NON       United States Senator                                   WRITE-IN                              Precinct #8                                            01 
01040050009000000NON       United States Senator                                   WRITE-IN                              Precinct #10                                           01 
01040050010000002NON       United States Senator                                   WRITE-IN                              Precinct #13                                           01 
01040050011000000NON       United States Senator                                   WRITE-IN                              Precinct #14                                           01 
01040060001000000          United States Senator                                   OVER VOTES                            Precinct #1                                            01 
01040060002000000          United States Senator                                   OVER VOTES                            Precinct #2                                            01 
01040060003000000          United States Senator                                   OVER VOTES                            Precinct #3                                            01 
01040060004000000          United States Senator                                   OVER VOTES                            Precinct #4                                            01 
01040060005000000          United States Senator                                   OVER VOTES                            Precinct #5                                            01 
01040060006000000          United States Senator                                   OVER VOTES                            Precinct #6                                            01 
01040060007000000          United States Senator                                   OVER VOTES                            Precinct #7                                            01 
01040060008000000          United States Senator                                   OVER VOTES                            Precinct #8                                            01 
01040060009000000          United States Senator                                   OVER VOTES                            Precinct #10                                           01 
01040060010000000          United States Senator                                   OVER VOTES                            Precinct #13                                           01 
01040060011000000          United States Senator                                   OVER VOTES                            Precinct #14                                           01 
01040070001000054          United States Senator                                   UNDER VOTES                           Precinct #1                                            01 
01040070002000065          United States Senator                                   UNDER VOTES                           Precinct #2                                            01 
01040070003000028          United States Senator                                   UNDER VOTES                           Precinct #3                                            01 
01040070004000017          United States Senator                                   UNDER VOTES                           Precinct #4                                            01 
01040070005000012          United States Senator                                   UNDER VOTES                           Precinct #5                                            01 
01040070006000032          United States Senator                                   UNDER VOTES                           Precinct #6                                            01 
01040070007000036          United States Senator                                   UNDER VOTES                           Precinct #7                                            01 
01040070008000025          United States Senator                                   UNDER VOTES                           Precinct #8                                            01 
01040070009000015          United States Senator                                   UNDER VOTES                           Precinct #10                                           01 
01040070010000007          United States Senator                                   UNDER VOTES                           Precinct #13                                           01 
01040070011000018          United States Senator                                   UNDER VOTES                           Precinct #14                                           01 
01050010001000781REP       US Representative, District 8                           Kevin Brady                           Precinct #1                                            01 
01050010002000803REP       US Representative, District 8                           Kevin Brady                           Precinct #2                                            01 
01050010003000342REP       US Representative, District 8                           Kevin Brady                           Precinct #3                                            01 
01050010004000252REP       US Representative, District 8                           Kevin Brady                           Precinct #4                                            01 
01050010005000533REP       US Representative, District 8                           Kevin Brady                           Precinct #5                                            01 
01050010006000726REP       US Representative, District 8                           Kevin Brady                           Precinct #6                                            01 
01050010007000620REP       US Representative, District 8                           Kevin Brady                           Precinct #7                                            01 
01050010008000320REP       US Representative, District 8                           Kevin Brady                           Precinct #8                                            01 
01050010009000213REP       US Representative, District 8                           Kevin Brady                           Precinct #10                                           01 
01050010010000178REP       US Representative, District 8                           Kevin Brady                           Precinct #13                                           01 
01050010011000183REP       US Representative, District 8                           Kevin Brady                           Precinct #14                                           01 
01050020001000117LIB       US Representative, District 8                           Ken Petty                             Precinct #1                                            01 
01050020002000110LIB       US Representative, District 8                           Ken Petty                             Precinct #2                                            01 
01050020003000038LIB       US Representative, District 8                           Ken Petty                             Precinct #3                                            01 
01050020004000021LIB       US Representative, District 8                           Ken Petty                             Precinct #4                                            01 
01050020005000060LIB       US Representative, District 8                           Ken Petty                             Precinct #5                                            01 
01050020006000072LIB       US Representative, District 8                           Ken Petty                             Precinct #6                                            01 
01050020007000066LIB       US Representative, District 8                           Ken Petty                             Precinct #7                                            01 
01050020008000045LIB       US Representative, District 8                           Ken Petty                             Precinct #8                                            01 
01050020009000026LIB       US Representative, District 8                           Ken Petty                             Precinct #10                                           01 
01050020010000013LIB       US Representative, District 8                           Ken Petty                             Precinct #13                                           01 
01050020011000025LIB       US Representative, District 8                           Ken Petty                             Precinct #14                                           01 
01050030001000000          US Representative, District 8                           OVER VOTES                            Precinct #1                                            01 
01050030002000000          US Representative, District 8                           OVER VOTES                            Precinct #2                                            01 
01050030003000000          US Representative, District 8                           OVER VOTES                            Precinct #3                                            01 
01050030004000000          US Representative, District 8                           OVER VOTES                            Precinct #4                                            01 
01050030005000000          US Representative, District 8                           OVER VOTES                            Precinct #5                                            01 
01050030006000000          US Representative, District 8                           OVER VOTES                            Precinct #6                                            01 
01050030007000000          US Representative, District 8                           OVER VOTES                            Precinct #7                                            01 
01050030008000000          US Representative, District 8                           OVER VOTES                            Precinct #8                                            01 
01050030009000000          US Representative, District 8                           OVER VOTES                            Precinct #10                                           01 
01050030010000000          US Representative, District 8                           OVER VOTES                            Precinct #13                                           01 
01050030011000000          US Representative, District 8                           OVER VOTES                            Precinct #14                                           01 
01050040001000196          US Representative, District 8                           UNDER VOTES                           Precinct #1                                            01 
01050040002000172          US Representative, District 8                           UNDER VOTES                           Precinct #2                                            01 
01050040003000107          US Representative, District 8                           UNDER VOTES                           Precinct #3                                            01 
01050040004000018          US Representative, District 8                           UNDER VOTES                           Precinct #4                                            01 
01050040005000050          US Representative, District 8                           UNDER VOTES                           Precinct #5                                            01 
01050040006000111          US Representative, District 8                           UNDER VOTES                           Precinct #6                                            01 
01050040007000184          US Representative, District 8                           UNDER VOTES                           Precinct #7                                            01 
01050040008000096          US Representative, District 8                           UNDER VOTES                           Precinct #8                                            01 
01050040009000034          US Representative, District 8                           UNDER VOTES                           Precinct #10                                           01 
01050040010000021          US Representative, District 8                           UNDER VOTES                           Precinct #13                                           01 
01050040011000059          US Representative, District 8                           UNDER VOTES                           Precinct #14                                           01 
01060010001000747REP       Governor                                                Greg Abbott                           Precinct #1                                            01 
01060010002000737REP       Governor                                                Greg Abbott                           Precinct #2                                            01 
01060010003000307REP       Governor                                                Greg Abbott                           Precinct #3                                            01 
01060010004000251REP       Governor                                                Greg Abbott                           Precinct #4                                            01 
01060010005000524REP       Governor                                                Greg Abbott                           Precinct #5                                            01 
01060010006000677REP       Governor                                                Greg Abbott                           Precinct #6                                            01 
01060010007000559REP       Governor                                                Greg Abbott                           Precinct #7                                            01 
01060010008000299REP       Governor                                                Greg Abbott                           Precinct #8                                            01 
01060010009000207REP       Governor                                                Greg Abbott                           Precinct #10                                           01 
01060010010000169REP       Governor                                                Greg Abbott                           Precinct #13                                           01 
01060010011000164REP       Governor                                                Greg Abbott                           Precinct #14                                           01 
01060020001000297DEM       Governor                                                Wendy R. Davis                        Precinct #1                                            01 
01060020002000284DEM       Governor                                                Wendy R. Davis                        Precinct #2                                            01 
01060020003000153DEM       Governor                                                Wendy R. Davis                        Precinct #3                                            01 
01060020004000029DEM       Governor                                                Wendy R. Davis                        Precinct #4                                            01 
01060020005000090DEM       Governor                                                Wendy R. Davis                        Precinct #5                                            01 
01060020006000198DEM       Governor                                                Wendy R. Davis                        Precinct #6                                            01 
01060020007000273DEM       Governor                                                Wendy R. Davis                        Precinct #7                                            01 
01060020008000135DEM       Governor                                                Wendy R. Davis                        Precinct #8                                            01 
01060020009000052DEM       Governor                                                Wendy R. Davis                        Precinct #10                                           01 
01060020010000036DEM       Governor                                                Wendy R. Davis                        Precinct #13                                           01 
01060020011000085DEM       Governor                                                Wendy R. Davis                        Precinct #14                                           01 
01060030001000017LIB       Governor                                                Kathie Glass                          Precinct #1                                            01 
01060030002000018LIB       Governor                                                Kathie Glass                          Precinct #2                                            01 
01060030003000006LIB       Governor                                                Kathie Glass                          Precinct #3                                            01 
01060030004000008LIB       Governor                                                Kathie Glass                          Precinct #4                                            01 
01060030005000012LIB       Governor                                                Kathie Glass                          Precinct #5                                            01 
01060030006000015LIB       Governor                                                Kathie Glass                          Precinct #6                                            01 
01060030007000010LIB       Governor                                                Kathie Glass                          Precinct #7                                            01 
01060030008000006LIB       Governor                                                Kathie Glass                          Precinct #8                                            01 
01060030009000006LIB       Governor                                                Kathie Glass                          Precinct #10                                           01 
01060030010000002LIB       Governor                                                Kathie Glass                          Precinct #13                                           01 
01060030011000006LIB       Governor                                                Kathie Glass                          Precinct #14                                           01 
01060040001000008GRN       Governor                                                Brandon Parmer                        Precinct #1                                            01 
01060040002000009GRN       Governor                                                Brandon Parmer                        Precinct #2                                            01 
01060040003000006GRN       Governor                                                Brandon Parmer                        Precinct #3                                            01 
01060040004000000GRN       Governor                                                Brandon Parmer                        Precinct #4                                            01 
01060040005000011GRN       Governor                                                Brandon Parmer                        Precinct #5                                            01 
01060040006000006GRN       Governor                                                Brandon Parmer                        Precinct #6                                            01 
01060040007000004GRN       Governor                                                Brandon Parmer                        Precinct #7                                            01 
01060040008000003GRN       Governor                                                Brandon Parmer                        Precinct #8                                            01 
01060040009000001GRN       Governor                                                Brandon Parmer                        Precinct #10                                           01 
01060040010000003GRN       Governor                                                Brandon Parmer                        Precinct #13                                           01 
01060040011000001GRN       Governor                                                Brandon Parmer                        Precinct #14                                           01 
01060050001000002NON       Governor                                                WRITE-IN                              Precinct #1                                            01 
01060050002000000NON       Governor                                                WRITE-IN                              Precinct #2                                            01 
01060050003000000NON       Governor                                                WRITE-IN                              Precinct #3                                            01 
01060050004000000NON       Governor                                                WRITE-IN                              Precinct #4                                            01 
01060050005000000NON       Governor                                                WRITE-IN                              Precinct #5                                            01 
01060050006000000NON       Governor                                                WRITE-IN                              Precinct #6                                            01 
01060050007000000NON       Governor                                                WRITE-IN                              Precinct #7                                            01 
01060050008000000NON       Governor                                                WRITE-IN                              Precinct #8                                            01 
01060050009000000NON       Governor                                                WRITE-IN                              Precinct #10                                           01 
01060050010000000NON       Governor                                                WRITE-IN                              Precinct #13                                           01 
01060050011000001NON       Governor                                                WRITE-IN                              Precinct #14                                           01 
01060060001000000          Governor                                                OVER VOTES                            Precinct #1                                            01 
01060060002000000          Governor                                                OVER VOTES                            Precinct #2                                            01 
01060060003000000          Governor                                                OVER VOTES                            Precinct #3                                            01 
01060060004000000          Governor                                                OVER VOTES                            Precinct #4                                            01 
01060060005000000          Governor                                                OVER VOTES                            Precinct #5                                            01 
01060060006000000          Governor                                                OVER VOTES                            Precinct #6                                            01 
01060060007000000          Governor                                                OVER VOTES                            Precinct #7                                            01 
01060060008000000          Governor                                                OVER VOTES                            Precinct #8                                            01 
01060060009000000          Governor                                                OVER VOTES                            Precinct #10                                           01 
01060060010000000          Governor                                                OVER VOTES                            Precinct #13                                           01 
01060060011000000          Governor                                                OVER VOTES                            Precinct #14                                           01 
01060070001000023          Governor                                                UNDER VOTES                           Precinct #1                                            01 
01060070002000037          Governor                                                UNDER VOTES                           Precinct #2                                            01 
01060070003000015          Governor                                                UNDER VOTES                           Precinct #3                                            01 
01060070004000003          Governor                                                UNDER VOTES                           Precinct #4                                            01 
01060070005000006          Governor                                                UNDER VOTES                           Precinct #5                                            01 
01060070006000013          Governor                                                UNDER VOTES                           Precinct #6                                            01 
01060070007000024          Governor                                                UNDER VOTES                           Precinct #7                                            01 
01060070008000018          Governor                                                UNDER VOTES                           Precinct #8                                            01 
01060070009000007          Governor                                                UNDER VOTES                           Precinct #10                                           01 
01060070010000002          Governor                                                UNDER VOTES                           Precinct #13                                           01 
01060070011000010          Governor                                                UNDER VOTES                           Precinct #14                                           01 
01070010001000742REP       Lieutenant Governor                                     Dan Patrick                           Precinct #1                                            01 
01070010002000748REP       Lieutenant Governor                                     Dan Patrick                           Precinct #2                                            01 
01070010003000326REP       Lieutenant Governor                                     Dan Patrick                           Precinct #3                                            01 
01070010004000259REP       Lieutenant Governor                                     Dan Patrick                           Precinct #4                                            01 
01070010005000527REP       Lieutenant Governor                                     Dan Patrick                           Precinct #5                                            01 
01070010006000681REP       Lieutenant Governor                                     Dan Patrick                           Precinct #6                                            01 
01070010007000546REP       Lieutenant Governor                                     Dan Patrick                           Precinct #7                                            01 
01070010008000286REP       Lieutenant Governor                                     Dan Patrick                           Precinct #8                                            01 
01070010009000208REP       Lieutenant Governor                                     Dan Patrick                           Precinct #10                                           01 
01070010010000167REP       Lieutenant Governor                                     Dan Patrick                           Precinct #13                                           01 
01070010011000154REP       Lieutenant Governor                                     Dan Patrick                           Precinct #14                                           01 
01070020001000270DEM       Lieutenant Governor                                     Leticia Van de Putte                  Precinct #1                                            01 
01070020002000242DEM       Lieutenant Governor                                     Leticia Van de Putte                  Precinct #2                                            01 
01070020003000131DEM       Lieutenant Governor                                     Leticia Van de Putte                  Precinct #3                                            01 
01070020004000020DEM       Lieutenant Governor                                     Leticia Van de Putte                  Precinct #4                                            01 
01070020005000078DEM       Lieutenant Governor                                     Leticia Van de Putte                  Precinct #5                                            01 
01070020006000174DEM       Lieutenant Governor                                     Leticia Van de Putte                  Precinct #6                                            01 
01070020007000266DEM       Lieutenant Governor                                     Leticia Van de Putte                  Precinct #7                                            01 
01070020008000133DEM       Lieutenant Governor                                     Leticia Van de Putte                  Precinct #8                                            01 
01070020009000043DEM       Lieutenant Governor                                     Leticia Van de Putte                  Precinct #10                                           01 
01070020010000036DEM       Lieutenant Governor                                     Leticia Van de Putte                  Precinct #13                                           01 
01070020011000086DEM       Lieutenant Governor                                     Leticia Van de Putte                  Precinct #14                                           01 
01070030001000035LIB       Lieutenant Governor                                     Robert D. Butler                      Precinct #1                                            01 
01070030002000036LIB       Lieutenant Governor                                     Robert D. Butler                      Precinct #2                                            01 
01070030003000009LIB       Lieutenant Governor                                     Robert D. Butler                      Precinct #3                                            01 
01070030004000009LIB       Lieutenant Governor                                     Robert D. Butler                      Precinct #4                                            01 
01070030005000022LIB       Lieutenant Governor                                     Robert D. Butler                      Precinct #5                                            01 
01070030006000025LIB       Lieutenant Governor                                     Robert D. Butler                      Precinct #6                                            01 
01070030007000024LIB       Lieutenant Governor                                     Robert D. Butler                      Precinct #7                                            01 
01070030008000017LIB       Lieutenant Governor                                     Robert D. Butler                      Precinct #8                                            01 
01070030009000007LIB       Lieutenant Governor                                     Robert D. Butler                      Precinct #10                                           01 
01070030010000006LIB       Lieutenant Governor                                     Robert D. Butler                      Precinct #13                                           01 
01070030011000014LIB       Lieutenant Governor                                     Robert D. Butler                      Precinct #14                                           01 
01070040001000003GRN       Lieutenant Governor                                     Chandrakantha Courtney                Precinct #1                                            01 
01070040002000008GRN       Lieutenant Governor                                     Chandrakantha Courtney                Precinct #2                                            01 
01070040003000002GRN       Lieutenant Governor                                     Chandrakantha Courtney                Precinct #3                                            01 
01070040004000001GRN       Lieutenant Governor                                     Chandrakantha Courtney                Precinct #4                                            01 
01070040005000005GRN       Lieutenant Governor                                     Chandrakantha Courtney                Precinct #5                                            01 
01070040006000005GRN       Lieutenant Governor                                     Chandrakantha Courtney                Precinct #6                                            01 
01070040007000001GRN       Lieutenant Governor                                     Chandrakantha Courtney                Precinct #7                                            01 
01070040008000003GRN       Lieutenant Governor                                     Chandrakantha Courtney                Precinct #8                                            01 
01070040009000000GRN       Lieutenant Governor                                     Chandrakantha Courtney                Precinct #10                                           01 
01070040010000001GRN       Lieutenant Governor                                     Chandrakantha Courtney                Precinct #13                                           01 
01070040011000002GRN       Lieutenant Governor                                     Chandrakantha Courtney                Precinct #14                                           01 
01070050001000000          Lieutenant Governor                                     OVER VOTES                            Precinct #1                                            01 
01070050002000000          Lieutenant Governor                                     OVER VOTES                            Precinct #2                                            01 
01070050003000000          Lieutenant Governor                                     OVER VOTES                            Precinct #3                                            01 
01070050004000000          Lieutenant Governor                                     OVER VOTES                            Precinct #4                                            01 
01070050005000000          Lieutenant Governor                                     OVER VOTES                            Precinct #5                                            01 
01070050006000000          Lieutenant Governor                                     OVER VOTES                            Precinct #6                                            01 
01070050007000000          Lieutenant Governor                                     OVER VOTES                            Precinct #7                                            01 
01070050008000000          Lieutenant Governor                                     OVER VOTES                            Precinct #8                                            01 
01070050009000000          Lieutenant Governor                                     OVER VOTES                            Precinct #10                                           01 
01070050010000000          Lieutenant Governor                                     OVER VOTES                            Precinct #13                                           01 
01070050011000000          Lieutenant Governor                                     OVER VOTES                            Precinct #14                                           01 
01070060001000044          Lieutenant Governor                                     UNDER VOTES                           Precinct #1                                            01 
01070060002000051          Lieutenant Governor                                     UNDER VOTES                           Precinct #2                                            01 
01070060003000019          Lieutenant Governor                                     UNDER VOTES                           Precinct #3                                            01 
01070060004000002          Lieutenant Governor                                     UNDER VOTES                           Precinct #4                                            01 
01070060005000011          Lieutenant Governor                                     UNDER VOTES                           Precinct #5                                            01 
01070060006000024          Lieutenant Governor                                     UNDER VOTES                           Precinct #6                                            01 
01070060007000033          Lieutenant Governor                                     UNDER VOTES                           Precinct #7                                            01 
01070060008000022          Lieutenant Governor                                     UNDER VOTES                           Precinct #8                                            01 
01070060009000015          Lieutenant Governor                                     UNDER VOTES                           Precinct #10                                           01 
01070060010000002          Lieutenant Governor                                     UNDER VOTES                           Precinct #13                                           01 
01070060011000011          Lieutenant Governor                                     UNDER VOTES                           Precinct #14                                           01 
01080010001000708REP       Attorney General                                        Ken Paxton                            Precinct #1                                            01 
01080010002000704REP       Attorney General                                        Ken Paxton                            Precinct #2                                            01 
01080010003000278REP       Attorney General                                        Ken Paxton                            Precinct #3                                            01 
01080010004000242REP       Attorney General                                        Ken Paxton                            Precinct #4                                            01 
01080010005000482REP       Attorney General                                        Ken Paxton                            Precinct #5                                            01 
01080010006000673REP       Attorney General                                        Ken Paxton                            Precinct #6                                            01 
01080010007000553REP       Attorney General                                        Ken Paxton                            Precinct #7                                            01 
01080010008000278REP       Attorney General                                        Ken Paxton                            Precinct #8                                            01 
01080010009000189REP       Attorney General                                        Ken Paxton                            Precinct #10                                           01 
01080010010000163REP       Attorney General                                        Ken Paxton                            Precinct #13                                           01 
01080010011000156REP       Attorney General                                        Ken Paxton                            Precinct #14                                           01 
01080020001000320DEM       Attorney General                                        Sam Houston                           Precinct #1                                            01 
01080020002000290DEM       Attorney General                                        Sam Houston                           Precinct #2                                            01 
01080020003000177DEM       Attorney General                                        Sam Houston                           Precinct #3                                            01 
01080020004000035DEM       Attorney General                                        Sam Houston                           Precinct #4                                            01 
01080020005000136DEM       Attorney General                                        Sam Houston                           Precinct #5                                            01 
01080020006000190DEM       Attorney General                                        Sam Houston                           Precinct #6                                            01 
01080020007000273DEM       Attorney General                                        Sam Houston                           Precinct #7                                            01 
01080020008000149DEM       Attorney General                                        Sam Houston                           Precinct #8                                            01 
01080020009000062DEM       Attorney General                                        Sam Houston                           Precinct #10                                           01 
01080020010000042DEM       Attorney General                                        Sam Houston                           Precinct #13                                           01 
01080020011000090DEM       Attorney General                                        Sam Houston                           Precinct #14                                           01 
01080030001000016LIB       Attorney General                                        Jamie Balagia                         Precinct #1                                            01 
01080030002000021LIB       Attorney General                                        Jamie Balagia                         Precinct #2                                            01 
01080030003000003LIB       Attorney General                                        Jamie Balagia                         Precinct #3                                            01 
01080030004000006LIB       Attorney General                                        Jamie Balagia                         Precinct #4                                            01 
01080030005000010LIB       Attorney General                                        Jamie Balagia                         Precinct #5                                            01 
01080030006000016LIB       Attorney General                                        Jamie Balagia                         Precinct #6                                            01 
01080030007000007LIB       Attorney General                                        Jamie Balagia                         Precinct #7                                            01 
01080030008000009LIB       Attorney General                                        Jamie Balagia                         Precinct #8                                            01 
01080030009000004LIB       Attorney General                                        Jamie Balagia                         Precinct #10                                           01 
01080030010000001LIB       Attorney General                                        Jamie Balagia                         Precinct #13                                           01 
01080030011000008LIB       Attorney General                                        Jamie Balagia                         Precinct #14                                           01 
01080040001000003GRN       Attorney General                                        Jamar Osborne                         Precinct #1                                            01 
01080040002000005GRN       Attorney General                                        Jamar Osborne                         Precinct #2                                            01 
01080040003000003GRN       Attorney General                                        Jamar Osborne                         Precinct #3                                            01 
01080040004000000GRN       Attorney General                                        Jamar Osborne                         Precinct #4                                            01 
01080040005000003GRN       Attorney General                                        Jamar Osborne                         Precinct #5                                            01 
01080040006000001GRN       Attorney General                                        Jamar Osborne                         Precinct #6                                            01 
01080040007000002GRN       Attorney General                                        Jamar Osborne                         Precinct #7                                            01 
01080040008000003GRN       Attorney General                                        Jamar Osborne                         Precinct #8                                            01 
01080040009000000GRN       Attorney General                                        Jamar Osborne                         Precinct #10                                           01 
01080040010000000GRN       Attorney General                                        Jamar Osborne                         Precinct #13                                           01 
01080040011000000GRN       Attorney General                                        Jamar Osborne                         Precinct #14                                           01 
01080050001000000          Attorney General                                        OVER VOTES                            Precinct #1                                            01 
01080050002000000          Attorney General                                        OVER VOTES                            Precinct #2                                            01 
01080050003000000          Attorney General                                        OVER VOTES                            Precinct #3                                            01 
01080050004000000          Attorney General                                        OVER VOTES                            Precinct #4                                            01 
01080050005000000          Attorney General                                        OVER VOTES                            Precinct #5                                            01 
01080050006000000          Attorney General                                        OVER VOTES                            Precinct #6                                            01 
01080050007000000          Attorney General                                        OVER VOTES                            Precinct #7                                            01 
01080050008000000          Attorney General                                        OVER VOTES                            Precinct #8                                            01 
01080050009000000          Attorney General                                        OVER VOTES                            Precinct #10                                           01 
01080050010000000          Attorney General                                        OVER VOTES                            Precinct #13                                           01 
01080050011000000          Attorney General                                        OVER VOTES                            Precinct #14                                           01 
01080060001000047          Attorney General                                        UNDER VOTES                           Precinct #1                                            01 
01080060002000065          Attorney General                                        UNDER VOTES                           Precinct #2                                            01 
01080060003000026          Attorney General                                        UNDER VOTES                           Precinct #3                                            01 
01080060004000008          Attorney General                                        UNDER VOTES                           Precinct #4                                            01 
01080060005000012          Attorney General                                        UNDER VOTES                           Precinct #5                                            01 
01080060006000029          Attorney General                                        UNDER VOTES                           Precinct #6                                            01 
01080060007000035          Attorney General                                        UNDER VOTES                           Precinct #7                                            01 
01080060008000022          Attorney General                                        UNDER VOTES                           Precinct #8                                            01 
01080060009000018          Attorney General                                        UNDER VOTES                           Precinct #10                                           01 
01080060010000006          Attorney General                                        UNDER VOTES                           Precinct #13                                           01 
01080060011000013          Attorney General                                        UNDER VOTES                           Precinct #14                                           01 
01090010001000690REP       Comptroller of Public Accounts                          Glenn Hegar                           Precinct #1                                            01 
01090010002000678REP       Comptroller of Public Accounts                          Glenn Hegar                           Precinct #2                                            01 
01090010003000278REP       Comptroller of Public Accounts                          Glenn Hegar                           Precinct #3                                            01 
01090010004000222REP       Comptroller of Public Accounts                          Glenn Hegar                           Precinct #4                                            01 
01090010005000495REP       Comptroller of Public Accounts                          Glenn Hegar                           Precinct #5                                            01 
01090010006000649REP       Comptroller of Public Accounts                          Glenn Hegar                           Precinct #6                                            01 
01090010007000530REP       Comptroller of Public Accounts                          Glenn Hegar                           Precinct #7                                            01 
01090010008000267REP       Comptroller of Public Accounts                          Glenn Hegar                           Precinct #8                                            01 
01090010009000191REP       Comptroller of Public Accounts                          Glenn Hegar                           Precinct #10                                           01 
01090010010000158REP       Comptroller of Public Accounts                          Glenn Hegar                           Precinct #13                                           01 
01090010011000147REP       Comptroller of Public Accounts                          Glenn Hegar                           Precinct #14                                           01 
01090020001000288DEM       Comptroller of Public Accounts                          Mike Collier                          Precinct #1                                            01 
01090020002000289DEM       Comptroller of Public Accounts                          Mike Collier                          Precinct #2                                            01 
01090020003000161DEM       Comptroller of Public Accounts                          Mike Collier                          Precinct #3                                            01 
01090020004000029DEM       Comptroller of Public Accounts                          Mike Collier                          Precinct #4                                            01 
01090020005000098DEM       Comptroller of Public Accounts                          Mike Collier                          Precinct #5                                            01 
01090020006000186DEM       Comptroller of Public Accounts                          Mike Collier                          Precinct #6                                            01 
01090020007000274DEM       Comptroller of Public Accounts                          Mike Collier                          Precinct #7                                            01 
01090020008000143DEM       Comptroller of Public Accounts                          Mike Collier                          Precinct #8                                            01 
01090020009000053DEM       Comptroller of Public Accounts                          Mike Collier                          Precinct #10                                           01 
01090020010000041DEM       Comptroller of Public Accounts                          Mike Collier                          Precinct #13                                           01 
01090020011000093DEM       Comptroller of Public Accounts                          Mike Collier                          Precinct #14                                           01 
01090030001000033LIB       Comptroller of Public Accounts                          Ben Sanders                           Precinct #1                                            01 
01090030002000032LIB       Comptroller of Public Accounts                          Ben Sanders                           Precinct #2                                            01 
01090030003000011LIB       Comptroller of Public Accounts                          Ben Sanders                           Precinct #3                                            01 
01090030004000017LIB       Comptroller of Public Accounts                          Ben Sanders                           Precinct #4                                            01 
01090030005000023LIB       Comptroller of Public Accounts                          Ben Sanders                           Precinct #5                                            01 
01090030006000023LIB       Comptroller of Public Accounts                          Ben Sanders                           Precinct #6                                            01 
01090030007000021LIB       Comptroller of Public Accounts                          Ben Sanders                           Precinct #7                                            01 
01090030008000014LIB       Comptroller of Public Accounts                          Ben Sanders                           Precinct #8                                            01 
01090030009000008LIB       Comptroller of Public Accounts                          Ben Sanders                           Precinct #10                                           01 
01090030010000004LIB       Comptroller of Public Accounts                          Ben Sanders                           Precinct #13                                           01 
01090030011000007LIB       Comptroller of Public Accounts                          Ben Sanders                           Precinct #14                                           01 
01090040001000012GRN       Comptroller of Public Accounts                          Deb Shafto                            Precinct #1                                            01 
01090040002000007GRN       Comptroller of Public Accounts                          Deb Shafto                            Precinct #2                                            01 
01090040003000005GRN       Comptroller of Public Accounts                          Deb Shafto                            Precinct #3                                            01 
01090040004000002GRN       Comptroller of Public Accounts                          Deb Shafto                            Precinct #4                                            01 
01090040005000005GRN       Comptroller of Public Accounts                          Deb Shafto                            Precinct #5                                            01 
01090040006000008GRN       Comptroller of Public Accounts                          Deb Shafto                            Precinct #6                                            01 
01090040007000004GRN       Comptroller of Public Accounts                          Deb Shafto                            Precinct #7                                            01 
01090040008000005GRN       Comptroller of Public Accounts                          Deb Shafto                            Precinct #8                                            01 
01090040009000000GRN       Comptroller of Public Accounts                          Deb Shafto                            Precinct #10                                           01 
01090040010000001GRN       Comptroller of Public Accounts                          Deb Shafto                            Precinct #13                                           01 
01090040011000003GRN       Comptroller of Public Accounts                          Deb Shafto                            Precinct #14                                           01 
01090050001000000          Comptroller of Public Accounts                          OVER VOTES                            Precinct #1                                            01 
01090050002000000          Comptroller of Public Accounts                          OVER VOTES                            Precinct #2                                            01 
01090050003000000          Comptroller of Public Accounts                          OVER VOTES                            Precinct #3                                            01 
01090050004000000          Comptroller of Public Accounts                          OVER VOTES                            Precinct #4                                            01 
01090050005000000          Comptroller of Public Accounts                          OVER VOTES                            Precinct #5                                            01 
01090050006000000          Comptroller of Public Accounts                          OVER VOTES                            Precinct #6                                            01 
01090050007000000          Comptroller of Public Accounts                          OVER VOTES                            Precinct #7                                            01 
01090050008000000          Comptroller of Public Accounts                          OVER VOTES                            Precinct #8                                            01 
01090050009000000          Comptroller of Public Accounts                          OVER VOTES                            Precinct #10                                           01 
01090050010000000          Comptroller of Public Accounts                          OVER VOTES                            Precinct #13                                           01 
01090050011000000          Comptroller of Public Accounts                          OVER VOTES                            Precinct #14                                           01 
01090060001000071          Comptroller of Public Accounts                          UNDER VOTES                           Precinct #1                                            01 
01090060002000079          Comptroller of Public Accounts                          UNDER VOTES                           Precinct #2                                            01 
01090060003000032          Comptroller of Public Accounts                          UNDER VOTES                           Precinct #3                                            01 
01090060004000021          Comptroller of Public Accounts                          UNDER VOTES                           Precinct #4                                            01 
01090060005000022          Comptroller of Public Accounts                          UNDER VOTES                           Precinct #5                                            01 
01090060006000043          Comptroller of Public Accounts                          UNDER VOTES                           Precinct #6                                            01 
01090060007000041          Comptroller of Public Accounts                          UNDER VOTES                           Precinct #7                                            01 
01090060008000032          Comptroller of Public Accounts                          UNDER VOTES                           Precinct #8                                            01 
01090060009000021          Comptroller of Public Accounts                          UNDER VOTES                           Precinct #10                                           01 
01090060010000008          Comptroller of Public Accounts                          UNDER VOTES                           Precinct #13                                           01 
01090060011000017          Comptroller of Public Accounts                          UNDER VOTES                           Precinct #14                                           01 
01100010001000721REP       Commissioner of the General Land Office                 George P. Bush                        Precinct #1                                            01 
01100010002000708REP       Commissioner of the General Land Office                 George P. Bush                        Precinct #2                                            01 
01100010003000314REP       Commissioner of the General Land Office                 George P. Bush                        Precinct #3                                            01 
01100010004000242REP       Commissioner of the General Land Office                 George P. Bush                        Precinct #4                                            01 
01100010005000498REP       Commissioner of the General Land Office                 George P. Bush                        Precinct #5                                            01 
01100010006000685REP       Commissioner of the General Land Office                 George P. Bush                        Precinct #6                                            01 
01100010007000563REP       Commissioner of the General Land Office                 George P. Bush                        Precinct #7                                            01 
01100010008000285REP       Commissioner of the General Land Office                 George P. Bush                        Precinct #8                                            01 
01100010009000198REP       Commissioner of the General Land Office                 George P. Bush                        Precinct #10                                           01 
01100010010000168REP       Commissioner of the General Land Office                 George P. Bush                        Precinct #13                                           01 
01100010011000165REP       Commissioner of the General Land Office                 George P. Bush                        Precinct #14                                           01 
01100020001000274DEM       Commissioner of the General Land Office                 John Cook                             Precinct #1                                            01 
01100020002000272DEM       Commissioner of the General Land Office                 John Cook                             Precinct #2                                            01 
01100020003000140DEM       Commissioner of the General Land Office                 John Cook                             Precinct #3                                            01 
01100020004000017DEM       Commissioner of the General Land Office                 John Cook                             Precinct #4                                            01 
01100020005000093DEM       Commissioner of the General Land Office                 John Cook                             Precinct #5                                            01 
01100020006000161DEM       Commissioner of the General Land Office                 John Cook                             Precinct #6                                            01 
01100020007000251DEM       Commissioner of the General Land Office                 John Cook                             Precinct #7                                            01 
01100020008000129DEM       Commissioner of the General Land Office                 John Cook                             Precinct #8                                            01 
01100020009000049DEM       Commissioner of the General Land Office                 John Cook                             Precinct #10                                           01 
01100020010000035DEM       Commissioner of the General Land Office                 John Cook                             Precinct #13                                           01 
01100020011000080DEM       Commissioner of the General Land Office                 John Cook                             Precinct #14                                           01 
01100030001000032LIB       Commissioner of the General Land Office                 Justin Knight                         Precinct #1                                            01 
01100030002000025LIB       Commissioner of the General Land Office                 Justin Knight                         Precinct #2                                            01 
01100030003000009LIB       Commissioner of the General Land Office                 Justin Knight                         Precinct #3                                            01 
01100030004000015LIB       Commissioner of the General Land Office                 Justin Knight                         Precinct #4                                            01 
01100030005000029LIB       Commissioner of the General Land Office                 Justin Knight                         Precinct #5                                            01 
01100030006000026LIB       Commissioner of the General Land Office                 Justin Knight                         Precinct #6                                            01 
01100030007000017LIB       Commissioner of the General Land Office                 Justin Knight                         Precinct #7                                            01 
01100030008000013LIB       Commissioner of the General Land Office                 Justin Knight                         Precinct #8                                            01 
01100030009000006LIB       Commissioner of the General Land Office                 Justin Knight                         Precinct #10                                           01 
01100030010000003LIB       Commissioner of the General Land Office                 Justin Knight                         Precinct #13                                           01 
01100030011000008LIB       Commissioner of the General Land Office                 Justin Knight                         Precinct #14                                           01 
01100040001000011GRN       Commissioner of the General Land Office                 Valerie Alessi                        Precinct #1                                            01 
01100040002000009GRN       Commissioner of the General Land Office                 Valerie Alessi                        Precinct #2                                            01 
01100040003000002GRN       Commissioner of the General Land Office                 Valerie Alessi                        Precinct #3                                            01 
01100040004000001GRN       Commissioner of the General Land Office                 Valerie Alessi                        Precinct #4                                            01 
01100040005000002GRN       Commissioner of the General Land Office                 Valerie Alessi                        Precinct #5                                            01 
01100040006000006GRN       Commissioner of the General Land Office                 Valerie Alessi                        Precinct #6                                            01 
01100040007000002GRN       Commissioner of the General Land Office                 Valerie Alessi                        Precinct #7                                            01 
01100040008000005GRN       Commissioner of the General Land Office                 Valerie Alessi                        Precinct #8                                            01 
01100040009000001GRN       Commissioner of the General Land Office                 Valerie Alessi                        Precinct #10                                           01 
01100040010000001GRN       Commissioner of the General Land Office                 Valerie Alessi                        Precinct #13                                           01 
01100040011000001GRN       Commissioner of the General Land Office                 Valerie Alessi                        Precinct #14                                           01 
01100050001000000          Commissioner of the General Land Office                 OVER VOTES                            Precinct #1                                            01 
01100050002000000          Commissioner of the General Land Office                 OVER VOTES                            Precinct #2                                            01 
01100050003000000          Commissioner of the General Land Office                 OVER VOTES                            Precinct #3                                            01 
01100050004000000          Commissioner of the General Land Office                 OVER VOTES                            Precinct #4                                            01 
01100050005000000          Commissioner of the General Land Office                 OVER VOTES                            Precinct #5                                            01 
01100050006000000          Commissioner of the General Land Office                 OVER VOTES                            Precinct #6                                            01 
01100050007000000          Commissioner of the General Land Office                 OVER VOTES                            Precinct #7                                            01 
01100050008000000          Commissioner of the General Land Office                 OVER VOTES                            Precinct #8                                            01 
01100050009000000          Commissioner of the General Land Office                 OVER VOTES                            Precinct #10                                           01 
01100050010000000          Commissioner of the General Land Office                 OVER VOTES                            Precinct #13                                           01 
01100050011000000          Commissioner of the General Land Office                 OVER VOTES                            Precinct #14                                           01 
01100060001000056          Commissioner of the General Land Office                 UNDER VOTES                           Precinct #1                                            01 
01100060002000071          Commissioner of the General Land Office                 UNDER VOTES                           Precinct #2                                            01 
01100060003000022          Commissioner of the General Land Office                 UNDER VOTES                           Precinct #3                                            01 
01100060004000016          Commissioner of the General Land Office                 UNDER VOTES                           Precinct #4                                            01 
01100060005000021          Commissioner of the General Land Office                 UNDER VOTES                           Precinct #5                                            01 
01100060006000031          Commissioner of the General Land Office                 UNDER VOTES                           Precinct #6                                            01 
