01100011126000000NONCOSA2  City of San Antonio                                     Norris Tyrone Darden                                                                         01 
01100013178000000NONCOSA2  City of San Antonio                                     Norris Tyrone Darden                                                                         01 
01100014002000033NONCOSA2  City of San Antonio                                     Norris Tyrone Darden                                                                         01 
01100014003000048NONCOSA2  City of San Antonio                                     Norris Tyrone Darden                                                                         01 
01100014004000020NONCOSA2  City of San Antonio                                     Norris Tyrone Darden                                                                         01 
01100014005000039NONCOSA2  City of San Antonio                                     Norris Tyrone Darden                                                                         01 
01100014006000012NONCOSA2  City of San Antonio                                     Norris Tyrone Darden                                                                         01 
01100014007000018NONCOSA2  City of San Antonio                                     Norris Tyrone Darden                                                                         01 
01100014008000017NONCOSA2  City of San Antonio                                     Norris Tyrone Darden                                                                         01 
01100014009000024NONCOSA2  City of San Antonio                                     Norris Tyrone Darden                                                                         01 
01100014010000046NONCOSA2  City of San Antonio                                     Norris Tyrone Darden                                                                         01 
01100014011000056NONCOSA2  City of San Antonio                                     Norris Tyrone Darden                                                                         01 
01100014012000043NONCOSA2  City of San Antonio                                     Norris Tyrone Darden                                                                         01 
01100014014000012NONCOSA2  City of San Antonio                                     Norris Tyrone Darden                                                                         01 
01100014021000032NONCOSA2  City of San Antonio                                     Norris Tyrone Darden                                                                         01 
01100014029000099NONCOSA2  City of San Antonio                                     Norris Tyrone Darden                                                                         01 
01100014030000023NONCOSA2  City of San Antonio                                     Norris Tyrone Darden                                                                         01 
01100014035000001NONCOSA2  City of San Antonio                                     Norris Tyrone Darden                                                                         01 
01100014036000182NONCOSA2  City of San Antonio                                     Norris Tyrone Darden                                                                         01 
01100014037000119NONCOSA2  City of San Antonio                                     Norris Tyrone Darden                                                                         01 
01100014039000086NONCOSA2  City of San Antonio                                     Norris Tyrone Darden                                                                         01 
01100014040000035NONCOSA2  City of San Antonio                                     Norris Tyrone Darden                                                                         01 
01100014041000147NONCOSA2  City of San Antonio                                     Norris Tyrone Darden                                                                         01 
01100014042000000NONCOSA2  City of San Antonio                                     Norris Tyrone Darden                                                                         01 
01100014043000013NONCOSA2  City of San Antonio                                     Norris Tyrone Darden                                                                         01 
01100014044000067NONCOSA2  City of San Antonio                                     Norris Tyrone Darden                                                                         01 
01100014045000079NONCOSA2  City of San Antonio                                     Norris Tyrone Darden                                                                         01 
01100014047000068NONCOSA2  City of San Antonio                                     Norris Tyrone Darden                                                                         01 
01100014049000052NONCOSA2  City of San Antonio                                     Norris Tyrone Darden                                                                         01 
01100014063000021NONCOSA2  City of San Antonio                                     Norris Tyrone Darden                                                                         01 
01100014065000121NONCOSA2  City of San Antonio                                     Norris Tyrone Darden                                                                         01 
01100014068000006NONCOSA2  City of San Antonio                                     Norris Tyrone Darden                                                                         01 
01100014070000161NONCOSA2  City of San Antonio                                     Norris Tyrone Darden                                                                         01 
01100014075000025NONCOSA2  City of San Antonio                                     Norris Tyrone Darden                                                                         01 
01100014076000064NONCOSA2  City of San Antonio                                     Norris Tyrone Darden                                                                         01 
01100014077000122NONCOSA2  City of San Antonio                                     Norris Tyrone Darden                                                                         01 
01100014082000072NONCOSA2  City of San Antonio                                     Norris Tyrone Darden                                                                         01 
01100014083000000NONCOSA2  City of San Antonio                                     Norris Tyrone Darden                                                                         01 
01100014084000010NONCOSA2  City of San Antonio                                     Norris Tyrone Darden                                                                         01 
01100014091000020NONCOSA2  City of San Antonio                                     Norris Tyrone Darden                                                                         01 
01100014102000016NONCOSA2  City of San Antonio                                     Norris Tyrone Darden                                                                         01 
01100014103000000NONCOSA2  City of San Antonio                                     Norris Tyrone Darden                                                                         01 
01100014106000004NONCOSA2  City of San Antonio                                     Norris Tyrone Darden                                                                         01 
01100014110000049NONCOSA2  City of San Antonio                                     Norris Tyrone Darden                                                                         01 
01100014111000005NONCOSA2  City of San Antonio                                     Norris Tyrone Darden                                                                         01 
01100014113000039NONCOSA2  City of San Antonio                                     Norris Tyrone Darden                                                                         01 
01100014117000023NONCOSA2  City of San Antonio                                     Norris Tyrone Darden                                                                         01 
01100014119000010NONCOSA2  City of San Antonio                                     Norris Tyrone Darden                                                                         01 
01100014120000018NONCOSA2  City of San Antonio                                     Norris Tyrone Darden                                                                         01 
01100014122000006NONCOSA2  City of San Antonio                                     Norris Tyrone Darden                                                                         01 
01100014123000005NONCOSA2  City of San Antonio                                     Norris Tyrone Darden                                                                         01 
01100014125000005NONCOSA2  City of San Antonio                                     Norris Tyrone Darden                                                                         01 
01100014128000003NONCOSA2  City of San Antonio                                     Norris Tyrone Darden                                                                         01 
01100014131000012NONCOSA2  City of San Antonio                                     Norris Tyrone Darden                                                                         01 
01100014134000000NONCOSA2  City of San Antonio                                     Norris Tyrone Darden                                                                         01 
01100014135000000NONCOSA2  City of San Antonio                                     Norris Tyrone Darden                                                                         01 
01100014139000000NONCOSA2  City of San Antonio                                     Norris Tyrone Darden                                                                         01 
01100014141000014NONCOSA2  City of San Antonio                                     Norris Tyrone Darden                                                                         01 
01100014142000019NONCOSA2  City of San Antonio                                     Norris Tyrone Darden                                                                         01 
01100014147000007NONCOSA2  City of San Antonio                                     Norris Tyrone Darden                                                                         01 
01100014149000004NONCOSA2  City of San Antonio                                     Norris Tyrone Darden                                                                         01 
01100014154000020NONCOSA2  City of San Antonio                                     Norris Tyrone Darden                                                                         01 
01100014156000033NONCOSA2  City of San Antonio                                     Norris Tyrone Darden                                                                         01 
01100014159000000NONCOSA2  City of San Antonio                                     Norris Tyrone Darden                                                                         01 
01100014161000027NONCOSA2  City of San Antonio                                     Norris Tyrone Darden                                                                         01 
01100014163000099NONCOSA2  City of San Antonio                                     Norris Tyrone Darden                                                                         01 
01100014166000010NONCOSA2  City of San Antonio                                     Norris Tyrone Darden                                                                         01 
01100014175000000NONCOSA2  City of San Antonio                                     Norris Tyrone Darden                                                                         01 
01100014177000000NONCOSA2  City of San Antonio                                     Norris Tyrone Darden                                                                         01 
01100014178000000NONCOSA2  City of San Antonio                                     Norris Tyrone Darden                                                                         01 
01100014180000000NONCOSA2  City of San Antonio                                     Norris Tyrone Darden                                                                         01 
01100014181000000NONCOSA2  City of San Antonio                                     Norris Tyrone Darden                                                                         01 
01100014183000002NONCOSA2  City of San Antonio                                     Norris Tyrone Darden                                                                         01 
01100014184000001NONCOSA2  City of San Antonio                                     Norris Tyrone Darden                                                                         01 
01100014186000007NONCOSA2  City of San Antonio                                     Norris Tyrone Darden                                                                         01 
01100014190000000NONCOSA2  City of San Antonio                                     Norris Tyrone Darden                                                                         01 
01100014193000002NONCOSA2  City of San Antonio                                     Norris Tyrone Darden                                                                         01 
01100014206000017NONCOSA2  City of San Antonio                                     Norris Tyrone Darden                                                                         01 
01100014207000000NONCOSA2  City of San Antonio                                     Norris Tyrone Darden                                                                         01 
01100014212000000NONCOSA2  City of San Antonio                                     Norris Tyrone Darden                                                                         01 
01100014220000003NONCOSA2  City of San Antonio                                     Norris Tyrone Darden                                                                         01 
01100021126000000NONCOSA2  City of San Antonio                                     Keith A. Toney                                                                               01 
01100023178000000NONCOSA2  City of San Antonio                                     Keith A. Toney                                                                               01 
01100024002000031NONCOSA2  City of San Antonio                                     Keith A. Toney                                                                               01 
01100024003000039NONCOSA2  City of San Antonio                                     Keith A. Toney                                                                               01 
01100024004000053NONCOSA2  City of San Antonio                                     Keith A. Toney                                                                               01 
01100024005000065NONCOSA2  City of San Antonio                                     Keith A. Toney                                                                               01 
01100024006000029NONCOSA2  City of San Antonio                                     Keith A. Toney                                                                               01 
01100024007000030NONCOSA2  City of San Antonio                                     Keith A. Toney                                                                               01 
01100024008000049NONCOSA2  City of San Antonio                                     Keith A. Toney                                                                               01 
01100024009000038NONCOSA2  City of San Antonio                                     Keith A. Toney                                                                               01 
01100024010000073NONCOSA2  City of San Antonio                                     Keith A. Toney                                                                               01 
01100024011000058NONCOSA2  City of San Antonio                                     Keith A. Toney                                                                               01 
01100024012000021NONCOSA2  City of San Antonio                                     Keith A. Toney                                                                               01 
01100024014000019NONCOSA2  City of San Antonio                                     Keith A. Toney                                                                               01 
01100024021000064NONCOSA2  City of San Antonio                                     Keith A. Toney                                                                               01 
01100024029000092NONCOSA2  City of San Antonio                                     Keith A. Toney                                                                               01 
01100024030000017NONCOSA2  City of San Antonio                                     Keith A. Toney                                                                               01 
01100024035000006NONCOSA2  City of San Antonio                                     Keith A. Toney                                                                               01 
01100024036000244NONCOSA2  City of San Antonio                                     Keith A. Toney                                                                               01 
01100024037000090NONCOSA2  City of San Antonio                                     Keith A. Toney                                                                               01 
01100024039000101NONCOSA2  City of San Antonio                                     Keith A. Toney                                                                               01 
01100024040000043NONCOSA2  City of San Antonio                                     Keith A. Toney                                                                               01 
01100024041000127NONCOSA2  City of San Antonio                                     Keith A. Toney                                                                               01 
01100024042000004NONCOSA2  City of San Antonio                                     Keith A. Toney                                                                               01 
01100024043000014NONCOSA2  City of San Antonio                                     Keith A. Toney                                                                               01 
01100024044000055NONCOSA2  City of San Antonio                                     Keith A. Toney                                                                               01 
01100024045000166NONCOSA2  City of San Antonio                                     Keith A. Toney                                                                               01 
01100024047000099NONCOSA2  City of San Antonio                                     Keith A. Toney                                                                               01 
01100024049000105NONCOSA2  City of San Antonio                                     Keith A. Toney                                                                               01 
01100024063000038NONCOSA2  City of San Antonio                                     Keith A. Toney                                                                               01 
01100024065000130NONCOSA2  City of San Antonio                                     Keith A. Toney                                                                               01 
01100024068000008NONCOSA2  City of San Antonio                                     Keith A. Toney                                                                               01 
01100024070000189NONCOSA2  City of San Antonio                                     Keith A. Toney                                                                               01 
01100024075000039NONCOSA2  City of San Antonio                                     Keith A. Toney                                                                               01 
01100024076000088NONCOSA2  City of San Antonio                                     Keith A. Toney                                                                               01 
01100024077000100NONCOSA2  City of San Antonio                                     Keith A. Toney                                                                               01 
01100024082000072NONCOSA2  City of San Antonio                                     Keith A. Toney                                                                               01 
01100024083000001NONCOSA2  City of San Antonio                                     Keith A. Toney                                                                               01 
01100024084000018NONCOSA2  City of San Antonio                                     Keith A. Toney                                                                               01 
01100024091000043NONCOSA2  City of San Antonio                                     Keith A. Toney                                                                               01 
01100024102000025NONCOSA2  City of San Antonio                                     Keith A. Toney                                                                               01 
01100024103000000NONCOSA2  City of San Antonio                                     Keith A. Toney                                                                               01 
01100024106000027NONCOSA2  City of San Antonio                                     Keith A. Toney                                                                               01 
01100024110000094NONCOSA2  City of San Antonio                                     Keith A. Toney                                                                               01 
01100024111000009NONCOSA2  City of San Antonio                                     Keith A. Toney                                                                               01 
01100024113000039NONCOSA2  City of San Antonio                                     Keith A. Toney                                                                               01 
01100024117000046NONCOSA2  City of San Antonio                                     Keith A. Toney                                                                               01 
01100024119000023NONCOSA2  City of San Antonio                                     Keith A. Toney                                                                               01 
01100024120000007NONCOSA2  City of San Antonio                                     Keith A. Toney                                                                               01 
01100024122000010NONCOSA2  City of San Antonio                                     Keith A. Toney                                                                               01 
01100024123000014NONCOSA2  City of San Antonio                                     Keith A. Toney                                                                               01 
01100024125000001NONCOSA2  City of San Antonio                                     Keith A. Toney                                                                               01 
01100024128000007NONCOSA2  City of San Antonio                                     Keith A. Toney                                                                               01 
01100024131000006NONCOSA2  City of San Antonio                                     Keith A. Toney                                                                               01 
01100024134000000NONCOSA2  City of San Antonio                                     Keith A. Toney                                                                               01 
01100024135000000NONCOSA2  City of San Antonio                                     Keith A. Toney                                                                               01 
01100024139000000NONCOSA2  City of San Antonio                                     Keith A. Toney                                                                               01 
01100024141000011NONCOSA2  City of San Antonio                                     Keith A. Toney                                                                               01 
01100024142000013NONCOSA2  City of San Antonio                                     Keith A. Toney                                                                               01 
01100024147000007NONCOSA2  City of San Antonio                                     Keith A. Toney                                                                               01 
01100024149000013NONCOSA2  City of San Antonio                                     Keith A. Toney                                                                               01 
01100024154000045NONCOSA2  City of San Antonio                                     Keith A. Toney                                                                               01 
01100024156000038NONCOSA2  City of San Antonio                                     Keith A. Toney                                                                               01 
01100024159000000NONCOSA2  City of San Antonio                                     Keith A. Toney                                                                               01 
01100024161000019NONCOSA2  City of San Antonio                                     Keith A. Toney                                                                               01 
01100024163000115NONCOSA2  City of San Antonio                                     Keith A. Toney                                                                               01 
01100024166000007NONCOSA2  City of San Antonio                                     Keith A. Toney                                                                               01 
01100024175000000NONCOSA2  City of San Antonio                                     Keith A. Toney                                                                               01 
01100024177000003NONCOSA2  City of San Antonio                                     Keith A. Toney                                                                               01 
01100024178000002NONCOSA2  City of San Antonio                                     Keith A. Toney                                                                               01 
01100024180000000NONCOSA2  City of San Antonio                                     Keith A. Toney                                                                               01 
01100024181000000NONCOSA2  City of San Antonio                                     Keith A. Toney                                                                               01 
01100024183000005NONCOSA2  City of San Antonio                                     Keith A. Toney                                                                               01 
01100024184000001NONCOSA2  City of San Antonio                                     Keith A. Toney                                                                               01 
01100024186000006NONCOSA2  City of San Antonio                                     Keith A. Toney                                                                               01 
01100024190000000NONCOSA2  City of San Antonio                                     Keith A. Toney                                                                               01 
01100024193000002NONCOSA2  City of San Antonio                                     Keith A. Toney                                                                               01 
01100024206000021NONCOSA2  City of San Antonio                                     Keith A. Toney                                                                               01 
01100024207000000NONCOSA2  City of San Antonio                                     Keith A. Toney                                                                               01 
01100024212000000NONCOSA2  City of San Antonio                                     Keith A. Toney                                                                               01 
01100024220000000NONCOSA2  City of San Antonio                                     Keith A. Toney                                                                               01 
01100031126000000NONCOSA2  City of San Antonio                                     Ntando McIntosh                                                                              01 
01100033178000000NONCOSA2  City of San Antonio                                     Ntando McIntosh                                                                              01 
01100034002000008NONCOSA2  City of San Antonio                                     Ntando McIntosh                                                                              01 
01100034003000005NONCOSA2  City of San Antonio                                     Ntando McIntosh                                                                              01 
01100034004000010NONCOSA2  City of San Antonio                                     Ntando McIntosh                                                                              01 
01100034005000016NONCOSA2  City of San Antonio                                     Ntando McIntosh                                                                              01 
01100034006000007NONCOSA2  City of San Antonio                                     Ntando McIntosh                                                                              01 
01100034007000013NONCOSA2  City of San Antonio                                     Ntando McIntosh                                                                              01 
01100034008000008NONCOSA2  City of San Antonio                                     Ntando McIntosh                                                                              01 
01100034009000007NONCOSA2  City of San Antonio                                     Ntando McIntosh                                                                              01 
01100034010000004NONCOSA2  City of San Antonio                                     Ntando McIntosh                                                                              01 
01100034011000006NONCOSA2  City of San Antonio                                     Ntando McIntosh                                                                              01 
01100034012000003NONCOSA2  City of San Antonio                                     Ntando McIntosh                                                                              01 
01100034014000007NONCOSA2  City of San Antonio                                     Ntando McIntosh                                                                              01 
01100034021000022NONCOSA2  City of San Antonio                                     Ntando McIntosh                                                                              01 
01100034029000017NONCOSA2  City of San Antonio                                     Ntando McIntosh                                                                              01 
01100034030000000NONCOSA2  City of San Antonio                                     Ntando McIntosh                                                                              01 
01100034035000002NONCOSA2  City of San Antonio                                     Ntando McIntosh                                                                              01 
01100034036000016NONCOSA2  City of San Antonio                                     Ntando McIntosh                                                                              01 
01100034037000008NONCOSA2  City of San Antonio                                     Ntando McIntosh                                                                              01 
01100034039000002NONCOSA2  City of San Antonio                                     Ntando McIntosh                                                                              01 
01100034040000002NONCOSA2  City of San Antonio                                     Ntando McIntosh                                                                              01 
01100034041000008NONCOSA2  City of San Antonio                                     Ntando McIntosh                                                                              01 
01100034042000001NONCOSA2  City of San Antonio                                     Ntando McIntosh                                                                              01 
01100034043000004NONCOSA2  City of San Antonio                                     Ntando McIntosh                                                                              01 
01100034044000017NONCOSA2  City of San Antonio                                     Ntando McIntosh                                                                              01 
01100034045000033NONCOSA2  City of San Antonio                                     Ntando McIntosh                                                                              01 
01100034047000028NONCOSA2  City of San Antonio                                     Ntando McIntosh                                                                              01 
01100034049000021NONCOSA2  City of San Antonio                                     Ntando McIntosh                                                                              01 
01100034063000009NONCOSA2  City of San Antonio                                     Ntando McIntosh                                                                              01 
01100034065000029NONCOSA2  City of San Antonio                                     Ntando McIntosh                                                                              01 
01100034068000000NONCOSA2  City of San Antonio                                     Ntando McIntosh                                                                              01 
01100034070000026NONCOSA2  City of San Antonio                                     Ntando McIntosh                                                                              01 
01100034075000012NONCOSA2  City of San Antonio                                     Ntando McIntosh                                                                              01 
01100034076000017NONCOSA2  City of San Antonio                                     Ntando McIntosh                                                                              01 
01100034077000027NONCOSA2  City of San Antonio                                     Ntando McIntosh                                                                              01 
01100034082000010NONCOSA2  City of San Antonio                                     Ntando McIntosh                                                                              01 
01100034083000000NONCOSA2  City of San Antonio                                     Ntando McIntosh                                                                              01 
01100034084000002NONCOSA2  City of San Antonio                                     Ntando McIntosh                                                                              01 
01100034091000026NONCOSA2  City of San Antonio                                     Ntando McIntosh                                                                              01 
01100034102000003NONCOSA2  City of San Antonio                                     Ntando McIntosh                                                                              01 
01100034103000000NONCOSA2  City of San Antonio                                     Ntando McIntosh                                                                              01 
01100034106000005NONCOSA2  City of San Antonio                                     Ntando McIntosh                                                                              01 
01100034110000009NONCOSA2  City of San Antonio                                     Ntando McIntosh                                                                              01 
01100034111000000NONCOSA2  City of San Antonio                                     Ntando McIntosh                                                                              01 
01100034113000006NONCOSA2  City of San Antonio                                     Ntando McIntosh                                                                              01 
01100034117000011NONCOSA2  City of San Antonio                                     Ntando McIntosh                                                                              01 
01100034119000004NONCOSA2  City of San Antonio                                     Ntando McIntosh                                                                              01 
01100034120000004NONCOSA2  City of San Antonio                                     Ntando McIntosh                                                                              01 
01100034122000001NONCOSA2  City of San Antonio                                     Ntando McIntosh                                                                              01 
01100034123000000NONCOSA2  City of San Antonio                                     Ntando McIntosh                                                                              01 
01100034125000000NONCOSA2  City of San Antonio                                     Ntando McIntosh                                                                              01 
01100034128000002NONCOSA2  City of San Antonio                                     Ntando McIntosh                                                                              01 
01100034131000006NONCOSA2  City of San Antonio                                     Ntando McIntosh                                                                              01 
01100034134000000NONCOSA2  City of San Antonio                                     Ntando McIntosh                                                                              01 
01100034135000000NONCOSA2  City of San Antonio                                     Ntando McIntosh                                                                              01 
01100034139000000NONCOSA2  City of San Antonio                                     Ntando McIntosh                                                                              01 
01100034141000000NONCOSA2  City of San Antonio                                     Ntando McIntosh                                                                              01 
01100034142000004NONCOSA2  City of San Antonio                                     Ntando McIntosh                                                                              01 
01100034147000005NONCOSA2  City of San Antonio                                     Ntando McIntosh                                                                              01 
01100034149000006NONCOSA2  City of San Antonio                                     Ntando McIntosh                                                                              01 
01100034154000012NONCOSA2  City of San Antonio                                     Ntando McIntosh                                                                              01 
01100034156000008NONCOSA2  City of San Antonio                                     Ntando McIntosh                                                                              01 
01100034159000000NONCOSA2  City of San Antonio                                     Ntando McIntosh                                                                              01 
01100034161000003NONCOSA2  City of San Antonio                                     Ntando McIntosh                                                                              01 
01100034163000026NONCOSA2  City of San Antonio                                     Ntando McIntosh                                                                              01 
01100034166000003NONCOSA2  City of San Antonio                                     Ntando McIntosh                                                                              01 
01100034175000000NONCOSA2  City of San Antonio                                     Ntando McIntosh                                                                              01 
01100034177000000NONCOSA2  City of San Antonio                                     Ntando McIntosh                                                                              01 
01100034178000000NONCOSA2  City of San Antonio                                     Ntando McIntosh                                                                              01 
01100034180000000NONCOSA2  City of San Antonio                                     Ntando McIntosh                                                                              01 
01100034181000000NONCOSA2  City of San Antonio                                     Ntando McIntosh                                                                              01 
01100034183000000NONCOSA2  City of San Antonio                                     Ntando McIntosh                                                                              01 
01100034184000000NONCOSA2  City of San Antonio                                     Ntando McIntosh                                                                              01 
01100034186000002NONCOSA2  City of San Antonio                                     Ntando McIntosh                                                                              01 
01100034190000000NONCOSA2  City of San Antonio                                     Ntando McIntosh                                                                              01 
01100034193000000NONCOSA2  City of San Antonio                                     Ntando McIntosh                                                                              01 
01100034206000004NONCOSA2  City of San Antonio                                     Ntando McIntosh                                                                              01 
01100034207000000NONCOSA2  City of San Antonio                                     Ntando McIntosh                                                                              01 
01100034212000000NONCOSA2  City of San Antonio                                     Ntando McIntosh                                                                              01 
01100034220000000NONCOSA2  City of San Antonio                                     Ntando McIntosh                                                                              01 
01100041126000000NONCOSA2  City of San Antonio                                     Alan E. Warrick                                                                              01 
01100043178000000NONCOSA2  City of San Antonio                                     Alan E. Warrick                                                                              01 
01100044002000030NONCOSA2  City of San Antonio                                     Alan E. Warrick                                                                              01 
01100044003000056NONCOSA2  City of San Antonio                                     Alan E. Warrick                                                                              01 
01100044004000045NONCOSA2  City of San Antonio                                     Alan E. Warrick                                                                              01 
01100044005000109NONCOSA2  City of San Antonio                                     Alan E. Warrick                                                                              01 
01100044006000023NONCOSA2  City of San Antonio                                     Alan E. Warrick                                                                              01 
01100044007000018NONCOSA2  City of San Antonio                                     Alan E. Warrick                                                                              01 
01100044008000053NONCOSA2  City of San Antonio                                     Alan E. Warrick                                                                              01 
01100044009000022NONCOSA2  City of San Antonio                                     Alan E. Warrick                                                                              01 
01100044010000046NONCOSA2  City of San Antonio                                     Alan E. Warrick                                                                              01 
01100044011000065NONCOSA2  City of San Antonio                                     Alan E. Warrick                                                                              01 
01100044012000014NONCOSA2  City of San Antonio                                     Alan E. Warrick                                                                              01 
01100044014000007NONCOSA2  City of San Antonio                                     Alan E. Warrick                                                                              01 
01100044021000037NONCOSA2  City of San Antonio                                     Alan E. Warrick                                                                              01 
01100044029000095NONCOSA2  City of San Antonio                                     Alan E. Warrick                                                                              01 
01100044030000013NONCOSA2  City of San Antonio                                     Alan E. Warrick                                                                              01 
01100044035000002NONCOSA2  City of San Antonio                                     Alan E. Warrick                                                                              01 
01100044036000192NONCOSA2  City of San Antonio                                     Alan E. Warrick                                                                              01 
01100044037000078NONCOSA2  City of San Antonio                                     Alan E. Warrick                                                                              01 
01100044039000069NONCOSA2  City of San Antonio                                     Alan E. Warrick                                                                              01 
01100044040000145NONCOSA2  City of San Antonio                                     Alan E. Warrick                                                                              01 
01100044041000131NONCOSA2  City of San Antonio                                     Alan E. Warrick                                                                              01 
01100044042000005NONCOSA2  City of San Antonio                                     Alan E. Warrick                                                                              01 
01100044043000010NONCOSA2  City of San Antonio                                     Alan E. Warrick                                                                              01 
01100044044000065NONCOSA2  City of San Antonio                                     Alan E. Warrick                                                                              01 
01100044045000138NONCOSA2  City of San Antonio                                     Alan E. Warrick                                                                              01 
01100044047000131NONCOSA2  City of San Antonio                                     Alan E. Warrick                                                                              01 
01100044049000089NONCOSA2  City of San Antonio                                     Alan E. Warrick                                                                              01 
01100044063000036NONCOSA2  City of San Antonio                                     Alan E. Warrick                                                                              01 
01100044065000182NONCOSA2  City of San Antonio                                     Alan E. Warrick                                                                              01 
01100044068000007NONCOSA2  City of San Antonio                                     Alan E. Warrick                                                                              01 
01100044070000213NONCOSA2  City of San Antonio                                     Alan E. Warrick                                                                              01 
01100044075000023NONCOSA2  City of San Antonio                                     Alan E. Warrick                                                                              01 
01100044076000103NONCOSA2  City of San Antonio                                     Alan E. Warrick                                                                              01 
01100044077000104NONCOSA2  City of San Antonio                                     Alan E. Warrick                                                                              01 
01100044082000073NONCOSA2  City of San Antonio                                     Alan E. Warrick                                                                              01 
01100044083000000NONCOSA2  City of San Antonio                                     Alan E. Warrick                                                                              01 
01100044084000031NONCOSA2  City of San Antonio                                     Alan E. Warrick                                                                              01 
01100044091000051NONCOSA2  City of San Antonio                                     Alan E. Warrick                                                                              01 
01100044102000026NONCOSA2  City of San Antonio                                     Alan E. Warrick                                                                              01 
01100044103000001NONCOSA2  City of San Antonio                                     Alan E. Warrick                                                                              01 
01100044106000016NONCOSA2  City of San Antonio                                     Alan E. Warrick                                                                              01 
01100044110000064NONCOSA2  City of San Antonio                                     Alan E. Warrick                                                                              01 
01100044111000004NONCOSA2  City of San Antonio                                     Alan E. Warrick                                                                              01 
01100044113000055NONCOSA2  City of San Antonio                                     Alan E. Warrick                                                                              01 
01100044117000033NONCOSA2  City of San Antonio                                     Alan E. Warrick                                                                              01 
01100044119000011NONCOSA2  City of San Antonio                                     Alan E. Warrick                                                                              01 
01100044120000008NONCOSA2  City of San Antonio                                     Alan E. Warrick                                                                              01 
01100044122000002NONCOSA2  City of San Antonio                                     Alan E. Warrick                                                                              01 
01100044123000004NONCOSA2  City of San Antonio                                     Alan E. Warrick                                                                              01 
01100044125000003NONCOSA2  City of San Antonio                                     Alan E. Warrick                                                                              01 
01100044128000006NONCOSA2  City of San Antonio                                     Alan E. Warrick                                                                              01 
01100044131000011NONCOSA2  City of San Antonio                                     Alan E. Warrick                                                                              01 
01100044134000000NONCOSA2  City of San Antonio                                     Alan E. Warrick                                                                              01 
01100044135000000NONCOSA2  City of San Antonio                                     Alan E. Warrick                                                                              01 
01100044139000001NONCOSA2  City of San Antonio                                     Alan E. Warrick                                                                              01 
01100044141000006NONCOSA2  City of San Antonio                                     Alan E. Warrick                                                                              01 
01100044142000013NONCOSA2  City of San Antonio                                     Alan E. Warrick                                                                              01 
01100044147000006NONCOSA2  City of San Antonio                                     Alan E. Warrick                                                                              01 
01100044149000008NONCOSA2  City of San Antonio                                     Alan E. Warrick                                                                              01 
01100044154000048NONCOSA2  City of San Antonio                                     Alan E. Warrick                                                                              01 
01100044156000031NONCOSA2  City of San Antonio                                     Alan E. Warrick                                                                              01 
01100044159000000NONCOSA2  City of San Antonio                                     Alan E. Warrick                                                                              01 
01100044161000024NONCOSA2  City of San Antonio                                     Alan E. Warrick                                                                              01 
01100044163000211NONCOSA2  City of San Antonio                                     Alan E. Warrick                                                                              01 
01100044166000010NONCOSA2  City of San Antonio                                     Alan E. Warrick                                                                              01 
01100044175000000NONCOSA2  City of San Antonio                                     Alan E. Warrick                                                                              01 
01100044177000002NONCOSA2  City of San Antonio                                     Alan E. Warrick                                                                              01 
01100044178000001NONCOSA2  City of San Antonio                                     Alan E. Warrick                                                                              01 
01100044180000000NONCOSA2  City of San Antonio                                     Alan E. Warrick                                                                              01 
01100044181000000NONCOSA2  City of San Antonio                                     Alan E. Warrick                                                                              01 
01100044183000011NONCOSA2  City of San Antonio                                     Alan E. Warrick                                                                              01 
01100044184000000NONCOSA2  City of San Antonio                                     Alan E. Warrick                                                                              01 
01100044186000015NONCOSA2  City of San Antonio                                     Alan E. Warrick                                                                              01 
01100044190000000NONCOSA2  City of San Antonio                                     Alan E. Warrick                                                                              01 
01100044193000003NONCOSA2  City of San Antonio                                     Alan E. Warrick                                                                              01 
01100044206000009NONCOSA2  City of San Antonio                                     Alan E. Warrick                                                                              01 
01100044207000000NONCOSA2  City of San Antonio                                     Alan E. Warrick                                                                              01 
01100044212000000NONCOSA2  City of San Antonio                                     Alan E. Warrick                                                                              01 
01100044220000001NONCOSA2  City of San Antonio                                     Alan E. Warrick                                                                              01 
01100051126000000NONCOSA2  City of San Antonio                                     Elmo Aycock                                                                                  01 
01100053178000000NONCOSA2  City of San Antonio                                     Elmo Aycock                                                                                  01 
01100054002000005NONCOSA2  City of San Antonio                                     Elmo Aycock                                                                                  01 
01100054003000006NONCOSA2  City of San Antonio                                     Elmo Aycock                                                                                  01 
01100054004000007NONCOSA2  City of San Antonio                                     Elmo Aycock                                                                                  01 
01100054005000010NONCOSA2  City of San Antonio                                     Elmo Aycock                                                                                  01 
01100054006000016NONCOSA2  City of San Antonio                                     Elmo Aycock                                                                                  01 
01100054007000005NONCOSA2  City of San Antonio                                     Elmo Aycock                                                                                  01 
01100054008000007NONCOSA2  City of San Antonio                                     Elmo Aycock                                                                                  01 
01100054009000004NONCOSA2  City of San Antonio                                     Elmo Aycock                                                                                  01 
01100054010000012NONCOSA2  City of San Antonio                                     Elmo Aycock                                                                                  01 
01100054011000007NONCOSA2  City of San Antonio                                     Elmo Aycock                                                                                  01 
01100054012000004NONCOSA2  City of San Antonio                                     Elmo Aycock                                                                                  01 
01100054014000011NONCOSA2  City of San Antonio                                     Elmo Aycock                                                                                  01 
01100054021000009NONCOSA2  City of San Antonio                                     Elmo Aycock                                                                                  01 
01100054029000014NONCOSA2  City of San Antonio                                     Elmo Aycock                                                                                  01 
01100054030000002NONCOSA2  City of San Antonio                                     Elmo Aycock                                                                                  01 
01100054035000002NONCOSA2  City of San Antonio                                     Elmo Aycock                                                                                  01 
01100054036000024NONCOSA2  City of San Antonio                                     Elmo Aycock                                                                                  01 
01100054037000012NONCOSA2  City of San Antonio                                     Elmo Aycock                                                                                  01 
01100054039000009NONCOSA2  City of San Antonio                                     Elmo Aycock                                                                                  01 
01100054040000011NONCOSA2  City of San Antonio                                     Elmo Aycock                                                                                  01 
01100054041000012NONCOSA2  City of San Antonio                                     Elmo Aycock                                                                                  01 
01100054042000001NONCOSA2  City of San Antonio                                     Elmo Aycock                                                                                  01 
01100054043000004NONCOSA2  City of San Antonio                                     Elmo Aycock                                                                                  01 
01100054044000009NONCOSA2  City of San Antonio                                     Elmo Aycock                                                                                  01 
01100054045000033NONCOSA2  City of San Antonio                                     Elmo Aycock                                                                                  01 
01100054047000026NONCOSA2  City of San Antonio                                     Elmo Aycock                                                                                  01 
01100054049000015NONCOSA2  City of San Antonio                                     Elmo Aycock                                                                                  01 
01100054063000006NONCOSA2  City of San Antonio                                     Elmo Aycock                                                                                  01 
01100054065000030NONCOSA2  City of San Antonio                                     Elmo Aycock                                                                                  01 
01100054068000001NONCOSA2  City of San Antonio                                     Elmo Aycock                                                                                  01 
01100054070000033NONCOSA2  City of San Antonio                                     Elmo Aycock                                                                                  01 
01100054075000002NONCOSA2  City of San Antonio                                     Elmo Aycock                                                                                  01 
01100054076000022NONCOSA2  City of San Antonio                                     Elmo Aycock                                                                                  01 
01100054077000025NONCOSA2  City of San Antonio                                     Elmo Aycock                                                                                  01 
01100054082000012NONCOSA2  City of San Antonio                                     Elmo Aycock                                                                                  01 
01100054083000000NONCOSA2  City of San Antonio                                     Elmo Aycock                                                                                  01 
01100054084000002NONCOSA2  City of San Antonio                                     Elmo Aycock                                                                                  01 
01100054091000013NONCOSA2  City of San Antonio                                     Elmo Aycock                                                                                  01 
01100054102000006NONCOSA2  City of San Antonio                                     Elmo Aycock                                                                                  01 
01100054103000000NONCOSA2  City of San Antonio                                     Elmo Aycock                                                                                  01 
01100054106000008NONCOSA2  City of San Antonio                                     Elmo Aycock                                                                                  01 
01100054110000014NONCOSA2  City of San Antonio                                     Elmo Aycock                                                                                  01 
01100054111000001NONCOSA2  City of San Antonio                                     Elmo Aycock                                                                                  01 
01100054113000011NONCOSA2  City of San Antonio                                     Elmo Aycock                                                                                  01 
01100054117000011NONCOSA2  City of San Antonio                                     Elmo Aycock                                                                                  01 
01100054119000002NONCOSA2  City of San Antonio                                     Elmo Aycock                                                                                  01 
01100054120000001NONCOSA2  City of San Antonio                                     Elmo Aycock                                                                                  01 
01100054122000001NONCOSA2  City of San Antonio                                     Elmo Aycock                                                                                  01 
01100054123000002NONCOSA2  City of San Antonio                                     Elmo Aycock                                                                                  01 
01100054125000000NONCOSA2  City of San Antonio                                     Elmo Aycock                                                                                  01 
01100054128000005NONCOSA2  City of San Antonio                                     Elmo Aycock                                                                                  01 
01100054131000000NONCOSA2  City of San Antonio                                     Elmo Aycock                                                                                  01 
01100054134000000NONCOSA2  City of San Antonio                                     Elmo Aycock                                                                                  01 
01100054135000000NONCOSA2  City of San Antonio                                     Elmo Aycock                                                                                  01 
01100054139000000NONCOSA2  City of San Antonio                                     Elmo Aycock                                                                                  01 
01100054141000000NONCOSA2  City of San Antonio                                     Elmo Aycock                                                                                  01 
01100054142000002NONCOSA2  City of San Antonio                                     Elmo Aycock                                                                                  01 
01100054147000005NONCOSA2  City of San Antonio                                     Elmo Aycock                                                                                  01 
01100054149000003NONCOSA2  City of San Antonio                                     Elmo Aycock                                                                                  01 
01100054154000004NONCOSA2  City of San Antonio                                     Elmo Aycock                                                                                  01 
01100054156000005NONCOSA2  City of San Antonio                                     Elmo Aycock                                                                                  01 
01100054159000001NONCOSA2  City of San Antonio                                     Elmo Aycock                                                                                  01 
01100054161000003NONCOSA2  City of San Antonio                                     Elmo Aycock                                                                                  01 
01100054163000021NONCOSA2  City of San Antonio                                     Elmo Aycock                                                                                  01 
01100054166000004NONCOSA2  City of San Antonio                                     Elmo Aycock                                                                                  01 
01100054175000000NONCOSA2  City of San Antonio                                     Elmo Aycock                                                                                  01 
01100054177000000NONCOSA2  City of San Antonio                                     Elmo Aycock                                                                                  01 
01100054178000000NONCOSA2  City of San Antonio                                     Elmo Aycock                                                                                  01 
01100054180000000NONCOSA2  City of San Antonio                                     Elmo Aycock                                                                                  01 
01100054181000000NONCOSA2  City of San Antonio                                     Elmo Aycock                                                                                  01 
01100054183000003NONCOSA2  City of San Antonio                                     Elmo Aycock                                                                                  01 
01100054184000001NONCOSA2  City of San Antonio                                     Elmo Aycock                                                                                  01 
01100054186000001NONCOSA2  City of San Antonio                                     Elmo Aycock                                                                                  01 
01100054190000000NONCOSA2  City of San Antonio                                     Elmo Aycock                                                                                  01 
01100054193000000NONCOSA2  City of San Antonio                                     Elmo Aycock                                                                                  01 
01100054206000006NONCOSA2  City of San Antonio                                     Elmo Aycock                                                                                  01 
01100054207000000NONCOSA2  City of San Antonio                                     Elmo Aycock                                                                                  01 
01100054212000000NONCOSA2  City of San Antonio                                     Elmo Aycock                                                                                  01 
01100054220000001NONCOSA2  City of San Antonio                                     Elmo Aycock                                                                                  01 
01100061126000000   COSA2  City of San Antonio                                     OVER VOTES                                                                                   01 
01100063178000000   COSA2  City of San Antonio                                     OVER VOTES                                                                                   01 
01100064002000000   COSA2  City of San Antonio                                     OVER VOTES                                                                                   01 
01100064003000000   COSA2  City of San Antonio                                     OVER VOTES                                                                                   01 
01100064004000000   COSA2  City of San Antonio                                     OVER VOTES                                                                                   01 
01100064005000000   COSA2  City of San Antonio                                     OVER VOTES                                                                                   01 
01100064006000000   COSA2  City of San Antonio                                     OVER VOTES                                                                                   01 
01100064007000000   COSA2  City of San Antonio                                     OVER VOTES                                                                                   01 
01100064008000000   COSA2  City of San Antonio                                     OVER VOTES                                                                                   01 
01100064009000000   COSA2  City of San Antonio                                     OVER VOTES                                                                                   01 
01100064010000000   COSA2  City of San Antonio                                     OVER VOTES                                                                                   01 
01100064011000000   COSA2  City of San Antonio                                     OVER VOTES                                                                                   01 
01100064012000000   COSA2  City of San Antonio                                     OVER VOTES                                                                                   01 
01100064014000000   COSA2  City of San Antonio                                     OVER VOTES                                                                                   01 
01100064021000000   COSA2  City of San Antonio                                     OVER VOTES                                                                                   01 
01100064029000000   COSA2  City of San Antonio                                     OVER VOTES                                                                                   01 
01100064030000000   COSA2  City of San Antonio                                     OVER VOTES                                                                                   01 
01100064035000000   COSA2  City of San Antonio                                     OVER VOTES                                                                                   01 
01100064036000000   COSA2  City of San Antonio                                     OVER VOTES                                                                                   01 
01100064037000001   COSA2  City of San Antonio                                     OVER VOTES                                                                                   01 
01100064039000000   COSA2  City of San Antonio                                     OVER VOTES                                                                                   01 
01100064040000000   COSA2  City of San Antonio                                     OVER VOTES                                                                                   01 
01100064041000000   COSA2  City of San Antonio                                     OVER VOTES                                                                                   01 
01100064042000000   COSA2  City of San Antonio                                     OVER VOTES                                                                                   01 
01100064043000000   COSA2  City of San Antonio                                     OVER VOTES                                                                                   01 
01100064044000000   COSA2  City of San Antonio                                     OVER VOTES                                                                                   01 
01100064045000000   COSA2  City of San Antonio                                     OVER VOTES                                                                                   01 
01100064047000000   COSA2  City of San Antonio                                     OVER VOTES                                                                                   01 
01100064049000000   COSA2  City of San Antonio                                     OVER VOTES                                                                                   01 
01100064063000001   COSA2  City of San Antonio                                     OVER VOTES                                                                                   01 
01100064065000000   COSA2  City of San Antonio                                     OVER VOTES                                                                                   01 
01100064068000000   COSA2  City of San Antonio                                     OVER VOTES                                                                                   01 
01100064070000000   COSA2  City of San Antonio                                     OVER VOTES                                                                                   01 
01100064075000000   COSA2  City of San Antonio                                     OVER VOTES                                                                                   01 
01100064076000000   COSA2  City of San Antonio                                     OVER VOTES                                                                                   01 
01100064077000000   COSA2  City of San Antonio                                     OVER VOTES                                                                                   01 
01100064082000000   COSA2  City of San Antonio                                     OVER VOTES                                                                                   01 
01100064083000000   COSA2  City of San Antonio                                     OVER VOTES                                                                                   01 
01100064084000000   COSA2  City of San Antonio                                     OVER VOTES                                                                                   01 
01100064091000000   COSA2  City of San Antonio                                     OVER VOTES                                                                                   01 
01100064102000000   COSA2  City of San Antonio                                     OVER VOTES                                                                                   01 
01100064103000000   COSA2  City of San Antonio                                     OVER VOTES                                                                                   01 
01100064106000000   COSA2  City of San Antonio                                     OVER VOTES                                                                                   01 
01100064110000000   COSA2  City of San Antonio                                     OVER VOTES                                                                                   01 
01100064111000000   COSA2  City of San Antonio                                     OVER VOTES                                                                                   01 
01100064113000000   COSA2  City of San Antonio                                     OVER VOTES                                                                                   01 
01100064117000000   COSA2  City of San Antonio                                     OVER VOTES                                                                                   01 
01100064119000000   COSA2  City of San Antonio                                     OVER VOTES                                                                                   01 
01100064120000000   COSA2  City of San Antonio                                     OVER VOTES                                                                                   01 
01100064122000000   COSA2  City of San Antonio                                     OVER VOTES                                                                                   01 
01100064123000000   COSA2  City of San Antonio                                     OVER VOTES                                                                                   01 
01100064125000000   COSA2  City of San Antonio                                     OVER VOTES                                                                                   01 
01100064128000000   COSA2  City of San Antonio                                     OVER VOTES                                                                                   01 
01100064131000000   COSA2  City of San Antonio                                     OVER VOTES                                                                                   01 
01100064134000000   COSA2  City of San Antonio                                     OVER VOTES                                                                                   01 
01100064135000000   COSA2  City of San Antonio                                     OVER VOTES                                                                                   01 
01100064139000000   COSA2  City of San Antonio                                     OVER VOTES                                                                                   01 
01100064141000000   COSA2  City of San Antonio                                     OVER VOTES                                                                                   01 
01100064142000000   COSA2  City of San Antonio                                     OVER VOTES                                                                                   01 
01100064147000000   COSA2  City of San Antonio                                     OVER VOTES                                                                                   01 
01100064149000000   COSA2  City of San Antonio                                     OVER VOTES                                                                                   01 
01100064154000000   COSA2  City of San Antonio                                     OVER VOTES                                                                                   01 
01100064156000000   COSA2  City of San Antonio                                     OVER VOTES                                                                                   01 
01100064159000000   COSA2  City of San Antonio                                     OVER VOTES                                                                                   01 
01100064161000000   COSA2  City of San Antonio                                     OVER VOTES                                                                                   01 
01100064163000000   COSA2  City of San Antonio                                     OVER VOTES                                                                                   01 
01100064166000000   COSA2  City of San Antonio                                     OVER VOTES                                                                                   01 
01100064175000000   COSA2  City of San Antonio                                     OVER VOTES                                                                                   01 
01100064177000000   COSA2  City of San Antonio                                     OVER VOTES                                                                                   01 
01100064178000000   COSA2  City of San Antonio                                     OVER VOTES                                                                                   01 
01100064180000000   COSA2  City of San Antonio                                     OVER VOTES                                                                                   01 
01100064181000000   COSA2  City of San Antonio                                     OVER VOTES                                                                                   01 
01100064183000000   COSA2  City of San Antonio                                     OVER VOTES                                                                                   01 
01100064184000000   COSA2  City of San Antonio                                     OVER VOTES                                                                                   01 
01100064186000000   COSA2  City of San Antonio                                     OVER VOTES                                                                                   01 
01100064190000000   COSA2  City of San Antonio                                     OVER VOTES                                                                                   01 
01100064193000000   COSA2  City of San Antonio                                     OVER VOTES                                                                                   01 
01100064206000000   COSA2  City of San Antonio                                     OVER VOTES                                                                                   01 
01100064207000000   COSA2  City of San Antonio                                     OVER VOTES                                                                                   01 
01100064212000000   COSA2  City of San Antonio                                     OVER VOTES                                                                                   01 
01100064220000000   COSA2  City of San Antonio                                     OVER VOTES                                                                                   01 
01100071126000000   COSA2  City of San Antonio                                     UNDER VOTES                                                                                  01 
01100073178000000   COSA2  City of San Antonio                                     UNDER VOTES                                                                                  01 
01100074002000056   COSA2  City of San Antonio                                     UNDER VOTES                                                                                  01 
01100074003000085   COSA2  City of San Antonio                                     UNDER VOTES                                                                                  01 
01100074004000067   COSA2  City of San Antonio                                     UNDER VOTES                                                                                  01 
01100074005000127   COSA2  City of San Antonio                                     UNDER VOTES                                                                                  01 
01100074006000060   COSA2  City of San Antonio                                     UNDER VOTES                                                                                  01 
01100074007000086   COSA2  City of San Antonio                                     UNDER VOTES                                                                                  01 
01100074008000102   COSA2  City of San Antonio                                     UNDER VOTES                                                                                  01 
01100074009000050   COSA2  City of San Antonio                                     UNDER VOTES                                                                                  01 
01100074010000059   COSA2  City of San Antonio                                     UNDER VOTES                                                                                  01 
01100074011000060   COSA2  City of San Antonio                                     UNDER VOTES                                                                                  01 
01100074012000030   COSA2  City of San Antonio                                     UNDER VOTES                                                                                  01 
01100074014000033   COSA2  City of San Antonio                                     UNDER VOTES                                                                                  01 
01100074021000142   COSA2  City of San Antonio                                     UNDER VOTES                                                                                  01 
01100074029000139   COSA2  City of San Antonio                                     UNDER VOTES                                                                                  01 
01100074030000022   COSA2  City of San Antonio                                     UNDER VOTES                                                                                  01 
01100074035000003   COSA2  City of San Antonio                                     UNDER VOTES                                                                                  01 
01100074036000185   COSA2  City of San Antonio                                     UNDER VOTES                                                                                  01 
01100074037000106   COSA2  City of San Antonio                                     UNDER VOTES                                                                                  01 
01100074039000071   COSA2  City of San Antonio                                     UNDER VOTES                                                                                  01 
01100074040000047   COSA2  City of San Antonio                                     UNDER VOTES                                                                                  01 
01100074041000135   COSA2  City of San Antonio                                     UNDER VOTES                                                                                  01 
01100074042000013   COSA2  City of San Antonio                                     UNDER VOTES                                                                                  01 
01100074043000036   COSA2  City of San Antonio                                     UNDER VOTES                                                                                  01 
01100074044000155   COSA2  City of San Antonio                                     UNDER VOTES                                                                                  01 
01100074045000283   COSA2  City of San Antonio                                     UNDER VOTES                                                                                  01 
01100074047000289   COSA2  City of San Antonio                                     UNDER VOTES                                                                                  01 
01100074049000204   COSA2  City of San Antonio                                     UNDER VOTES                                                                                  01 
01100074063000105   COSA2  City of San Antonio                                     UNDER VOTES                                                                                  01 
01100074065000201   COSA2  City of San Antonio                                     UNDER VOTES                                                                                  01 
01100074068000017   COSA2  City of San Antonio                                     UNDER VOTES                                                                                  01 
01100074070000200   COSA2  City of San Antonio                                     UNDER VOTES                                                                                  01 
01100074075000037   COSA2  City of San Antonio                                     UNDER VOTES                                                                                  01 
01100074076000223   COSA2  City of San Antonio                                     UNDER VOTES                                                                                  01 
01100074077000151   COSA2  City of San Antonio                                     UNDER VOTES                                                                                  01 
01100074082000118   COSA2  City of San Antonio                                     UNDER VOTES                                                                                  01 
01100074083000001   COSA2  City of San Antonio                                     UNDER VOTES                                                                                  01 
01100074084000022   COSA2  City of San Antonio                                     UNDER VOTES                                                                                  01 
01100074091000132   COSA2  City of San Antonio                                     UNDER VOTES                                                                                  01 
01100074102000055   COSA2  City of San Antonio                                     UNDER VOTES                                                                                  01 
01100074103000001   COSA2  City of San Antonio                                     UNDER VOTES                                                                                  01 
01100074106000025   COSA2  City of San Antonio                                     UNDER VOTES                                                                                  01 
01100074110000120   COSA2  City of San Antonio                                     UNDER VOTES                                                                                  01 
01100074111000011   COSA2  City of San Antonio                                     UNDER VOTES                                                                                  01 
01100074113000069   COSA2  City of San Antonio                                     UNDER VOTES                                                                                  01 
01100074117000089   COSA2  City of San Antonio                                     UNDER VOTES                                                                                  01 
01100074119000058   COSA2  City of San Antonio                                     UNDER VOTES                                                                                  01 
01100074120000018   COSA2  City of San Antonio                                     UNDER VOTES                                                                                  01 
01100074122000013   COSA2  City of San Antonio                                     UNDER VOTES                                                                                  01 
01100074123000015   COSA2  City of San Antonio                                     UNDER VOTES                                                                                  01 
01100074125000008   COSA2  City of San Antonio                                     UNDER VOTES                                                                                  01 
01100074128000011   COSA2  City of San Antonio                                     UNDER VOTES                                                                                  01 
01100074131000020   COSA2  City of San Antonio                                     UNDER VOTES                                                                                  01 
01100074134000000   COSA2  City of San Antonio                                     UNDER VOTES                                                                                  01 
01100074135000000   COSA2  City of San Antonio                                     UNDER VOTES                                                                                  01 
01100074139000001   COSA2  City of San Antonio                                     UNDER VOTES                                                                                  01 
01100074141000018   COSA2  City of San Antonio                                     UNDER VOTES                                                                                  01 
01100074142000033   COSA2  City of San Antonio                                     UNDER VOTES                                                                                  01 
01100074147000025   COSA2  City of San Antonio                                     UNDER VOTES                                                                                  01 
01100074149000041   COSA2  City of San Antonio                                     UNDER VOTES                                                                                  01 
01100074154000070   COSA2  City of San Antonio                                     UNDER VOTES                                                                                  01 
01100074156000080   COSA2  City of San Antonio                                     UNDER VOTES                                                                                  01 
01100074159000004   COSA2  City of San Antonio                                     UNDER VOTES                                                                                  01 
01100074161000022   COSA2  City of San Antonio                                     UNDER VOTES                                                                                  01 
01100074163000197   COSA2  City of San Antonio                                     UNDER VOTES                                                                                  01 
