01100011126000000NONCOSA2  City of San Antonio                                     Norris Tyrone Darden                                                                         01 
01100013178000000NONCOSA2  City of San Antonio                                     Norris Tyrone Darden                                                                         01 
01100014002000007NONCOSA2  City of San Antonio                                     Norris Tyrone Darden                                                                         01 
01100014003000024NONCOSA2  City of San Antonio                                     Norris Tyrone Darden                                                                         01 
01100014004000016NONCOSA2  City of San Antonio                                     Norris Tyrone Darden                                                                         01 
01100014005000020NONCOSA2  City of San Antonio                                     Norris Tyrone Darden                                                                         01 
01100014006000007NONCOSA2  City of San Antonio                                     Norris Tyrone Darden                                                                         01 
01100014007000005NONCOSA2  City of San Antonio                                     Norris Tyrone Darden                                                                         01 
01100014008000012NONCOSA2  City of San Antonio                                     Norris Tyrone Darden                                                                         01 
01100014009000018NONCOSA2  City of San Antonio                                     Norris Tyrone Darden                                                                         01 
01100014010000027NONCOSA2  City of San Antonio                                     Norris Tyrone Darden                                                                         01 
01100014011000041NONCOSA2  City of San Antonio                                     Norris Tyrone Darden                                                                         01 
01100014012000021NONCOSA2  City of San Antonio                                     Norris Tyrone Darden                                                                         01 
01100014014000003NONCOSA2  City of San Antonio                                     Norris Tyrone Darden                                                                         01 
01100014021000017NONCOSA2  City of San Antonio                                     Norris Tyrone Darden                                                                         01 
01100014029000034NONCOSA2  City of San Antonio                                     Norris Tyrone Darden                                                                         01 
01100014030000016NONCOSA2  City of San Antonio                                     Norris Tyrone Darden                                                                         01 
01100014035000000NONCOSA2  City of San Antonio                                     Norris Tyrone Darden                                                                         01 
01100014036000119NONCOSA2  City of San Antonio                                     Norris Tyrone Darden                                                                         01 
01100014037000089NONCOSA2  City of San Antonio                                     Norris Tyrone Darden                                                                         01 
01100014039000066NONCOSA2  City of San Antonio                                     Norris Tyrone Darden                                                                         01 
01100014040000022NONCOSA2  City of San Antonio                                     Norris Tyrone Darden                                                                         01 
01100014041000087NONCOSA2  City of San Antonio                                     Norris Tyrone Darden                                                                         01 
01100014042000000NONCOSA2  City of San Antonio                                     Norris Tyrone Darden                                                                         01 
01100014043000008NONCOSA2  City of San Antonio                                     Norris Tyrone Darden                                                                         01 
01100014044000028NONCOSA2  City of San Antonio                                     Norris Tyrone Darden                                                                         01 
01100014045000048NONCOSA2  City of San Antonio                                     Norris Tyrone Darden                                                                         01 
01100014047000041NONCOSA2  City of San Antonio                                     Norris Tyrone Darden                                                                         01 
01100014049000035NONCOSA2  City of San Antonio                                     Norris Tyrone Darden                                                                         01 
01100014063000017NONCOSA2  City of San Antonio                                     Norris Tyrone Darden                                                                         01 
01100014065000061NONCOSA2  City of San Antonio                                     Norris Tyrone Darden                                                                         01 
01100014068000006NONCOSA2  City of San Antonio                                     Norris Tyrone Darden                                                                         01 
01100014070000089NONCOSA2  City of San Antonio                                     Norris Tyrone Darden                                                                         01 
01100014075000015NONCOSA2  City of San Antonio                                     Norris Tyrone Darden                                                                         01 
01100014076000037NONCOSA2  City of San Antonio                                     Norris Tyrone Darden                                                                         01 
01100014077000077NONCOSA2  City of San Antonio                                     Norris Tyrone Darden                                                                         01 
01100014082000041NONCOSA2  City of San Antonio                                     Norris Tyrone Darden                                                                         01 
01100014083000000NONCOSA2  City of San Antonio                                     Norris Tyrone Darden                                                                         01 
01100014084000009NONCOSA2  City of San Antonio                                     Norris Tyrone Darden                                                                         01 
01100014091000013NONCOSA2  City of San Antonio                                     Norris Tyrone Darden                                                                         01 
01100014102000011NONCOSA2  City of San Antonio                                     Norris Tyrone Darden                                                                         01 
01100014103000000NONCOSA2  City of San Antonio                                     Norris Tyrone Darden                                                                         01 
01100014106000004NONCOSA2  City of San Antonio                                     Norris Tyrone Darden                                                                         01 
01100014110000017NONCOSA2  City of San Antonio                                     Norris Tyrone Darden                                                                         01 
01100014111000003NONCOSA2  City of San Antonio                                     Norris Tyrone Darden                                                                         01 
01100014113000025NONCOSA2  City of San Antonio                                     Norris Tyrone Darden                                                                         01 
01100014117000017NONCOSA2  City of San Antonio                                     Norris Tyrone Darden                                                                         01 
01100014119000003NONCOSA2  City of San Antonio                                     Norris Tyrone Darden                                                                         01 
01100014120000015NONCOSA2  City of San Antonio                                     Norris Tyrone Darden                                                                         01 
01100014122000002NONCOSA2  City of San Antonio                                     Norris Tyrone Darden                                                                         01 
01100014123000005NONCOSA2  City of San Antonio                                     Norris Tyrone Darden                                                                         01 
01100014125000004NONCOSA2  City of San Antonio                                     Norris Tyrone Darden                                                                         01 
01100014128000001NONCOSA2  City of San Antonio                                     Norris Tyrone Darden                                                                         01 
01100014131000007NONCOSA2  City of San Antonio                                     Norris Tyrone Darden                                                                         01 
01100014134000000NONCOSA2  City of San Antonio                                     Norris Tyrone Darden                                                                         01 
01100014135000000NONCOSA2  City of San Antonio                                     Norris Tyrone Darden                                                                         01 
01100014139000000NONCOSA2  City of San Antonio                                     Norris Tyrone Darden                                                                         01 
01100014141000009NONCOSA2  City of San Antonio                                     Norris Tyrone Darden                                                                         01 
01100014142000015NONCOSA2  City of San Antonio                                     Norris Tyrone Darden                                                                         01 
01100014147000003NONCOSA2  City of San Antonio                                     Norris Tyrone Darden                                                                         01 
01100014149000002NONCOSA2  City of San Antonio                                     Norris Tyrone Darden                                                                         01 
01100014154000011NONCOSA2  City of San Antonio                                     Norris Tyrone Darden                                                                         01 
01100014156000018NONCOSA2  City of San Antonio                                     Norris Tyrone Darden                                                                         01 
01100014159000000NONCOSA2  City of San Antonio                                     Norris Tyrone Darden                                                                         01 
01100014161000010NONCOSA2  City of San Antonio                                     Norris Tyrone Darden                                                                         01 
01100014163000041NONCOSA2  City of San Antonio                                     Norris Tyrone Darden                                                                         01 
01100014166000008NONCOSA2  City of San Antonio                                     Norris Tyrone Darden                                                                         01 
01100014175000000NONCOSA2  City of San Antonio                                     Norris Tyrone Darden                                                                         01 
01100014177000000NONCOSA2  City of San Antonio                                     Norris Tyrone Darden                                                                         01 
01100014178000000NONCOSA2  City of San Antonio                                     Norris Tyrone Darden                                                                         01 
01100014180000000NONCOSA2  City of San Antonio                                     Norris Tyrone Darden                                                                         01 
01100014181000000NONCOSA2  City of San Antonio                                     Norris Tyrone Darden                                                                         01 
01100014183000001NONCOSA2  City of San Antonio                                     Norris Tyrone Darden                                                                         01 
01100014184000000NONCOSA2  City of San Antonio                                     Norris Tyrone Darden                                                                         01 
01100014186000005NONCOSA2  City of San Antonio                                     Norris Tyrone Darden                                                                         01 
01100014190000000NONCOSA2  City of San Antonio                                     Norris Tyrone Darden                                                                         01 
01100014193000002NONCOSA2  City of San Antonio                                     Norris Tyrone Darden                                                                         01 
01100014206000009NONCOSA2  City of San Antonio                                     Norris Tyrone Darden                                                                         01 
01100014207000000NONCOSA2  City of San Antonio                                     Norris Tyrone Darden                                                                         01 
01100014212000000NONCOSA2  City of San Antonio                                     Norris Tyrone Darden                                                                         01 
01100014220000003NONCOSA2  City of San Antonio                                     Norris Tyrone Darden                                                                         01 
01100021126000000NONCOSA2  City of San Antonio                                     Keith A. Toney                                                                               01 
01100023178000000NONCOSA2  City of San Antonio                                     Keith A. Toney                                                                               01 
01100024002000020NONCOSA2  City of San Antonio                                     Keith A. Toney                                                                               01 
01100024003000028NONCOSA2  City of San Antonio                                     Keith A. Toney                                                                               01 
01100024004000035NONCOSA2  City of San Antonio                                     Keith A. Toney                                                                               01 
01100024005000041NONCOSA2  City of San Antonio                                     Keith A. Toney                                                                               01 
01100024006000022NONCOSA2  City of San Antonio                                     Keith A. Toney                                                                               01 
01100024007000013NONCOSA2  City of San Antonio                                     Keith A. Toney                                                                               01 
01100024008000036NONCOSA2  City of San Antonio                                     Keith A. Toney                                                                               01 
01100024009000023NONCOSA2  City of San Antonio                                     Keith A. Toney                                                                               01 
01100024010000041NONCOSA2  City of San Antonio                                     Keith A. Toney                                                                               01 
01100024011000035NONCOSA2  City of San Antonio                                     Keith A. Toney                                                                               01 
01100024012000014NONCOSA2  City of San Antonio                                     Keith A. Toney                                                                               01 
01100024014000015NONCOSA2  City of San Antonio                                     Keith A. Toney                                                                               01 
01100024021000039NONCOSA2  City of San Antonio                                     Keith A. Toney                                                                               01 
01100024029000061NONCOSA2  City of San Antonio                                     Keith A. Toney                                                                               01 
01100024030000013NONCOSA2  City of San Antonio                                     Keith A. Toney                                                                               01 
01100024035000004NONCOSA2  City of San Antonio                                     Keith A. Toney                                                                               01 
01100024036000199NONCOSA2  City of San Antonio                                     Keith A. Toney                                                                               01 
01100024037000068NONCOSA2  City of San Antonio                                     Keith A. Toney                                                                               01 
01100024039000074NONCOSA2  City of San Antonio                                     Keith A. Toney                                                                               01 
01100024040000033NONCOSA2  City of San Antonio                                     Keith A. Toney                                                                               01 
01100024041000097NONCOSA2  City of San Antonio                                     Keith A. Toney                                                                               01 
01100024042000002NONCOSA2  City of San Antonio                                     Keith A. Toney                                                                               01 
01100024043000009NONCOSA2  City of San Antonio                                     Keith A. Toney                                                                               01 
01100024044000040NONCOSA2  City of San Antonio                                     Keith A. Toney                                                                               01 
01100024045000099NONCOSA2  City of San Antonio                                     Keith A. Toney                                                                               01 
01100024047000073NONCOSA2  City of San Antonio                                     Keith A. Toney                                                                               01 
01100024049000060NONCOSA2  City of San Antonio                                     Keith A. Toney                                                                               01 
01100024063000025NONCOSA2  City of San Antonio                                     Keith A. Toney                                                                               01 
01100024065000073NONCOSA2  City of San Antonio                                     Keith A. Toney                                                                               01 
01100024068000005NONCOSA2  City of San Antonio                                     Keith A. Toney                                                                               01 
01100024070000125NONCOSA2  City of San Antonio                                     Keith A. Toney                                                                               01 
01100024075000033NONCOSA2  City of San Antonio                                     Keith A. Toney                                                                               01 
01100024076000055NONCOSA2  City of San Antonio                                     Keith A. Toney                                                                               01 
01100024077000063NONCOSA2  City of San Antonio                                     Keith A. Toney                                                                               01 
01100024082000047NONCOSA2  City of San Antonio                                     Keith A. Toney                                                                               01 
01100024083000001NONCOSA2  City of San Antonio                                     Keith A. Toney                                                                               01 
01100024084000011NONCOSA2  City of San Antonio                                     Keith A. Toney                                                                               01 
01100024091000025NONCOSA2  City of San Antonio                                     Keith A. Toney                                                                               01 
01100024102000020NONCOSA2  City of San Antonio                                     Keith A. Toney                                                                               01 
01100024103000000NONCOSA2  City of San Antonio                                     Keith A. Toney                                                                               01 
01100024106000014NONCOSA2  City of San Antonio                                     Keith A. Toney                                                                               01 
01100024110000054NONCOSA2  City of San Antonio                                     Keith A. Toney                                                                               01 
01100024111000005NONCOSA2  City of San Antonio                                     Keith A. Toney                                                                               01 
01100024113000029NONCOSA2  City of San Antonio                                     Keith A. Toney                                                                               01 
01100024117000039NONCOSA2  City of San Antonio                                     Keith A. Toney                                                                               01 
01100024119000014NONCOSA2  City of San Antonio                                     Keith A. Toney                                                                               01 
01100024120000004NONCOSA2  City of San Antonio                                     Keith A. Toney                                                                               01 
01100024122000007NONCOSA2  City of San Antonio                                     Keith A. Toney                                                                               01 
01100024123000011NONCOSA2  City of San Antonio                                     Keith A. Toney                                                                               01 
01100024125000000NONCOSA2  City of San Antonio                                     Keith A. Toney                                                                               01 
01100024128000004NONCOSA2  City of San Antonio                                     Keith A. Toney                                                                               01 
01100024131000005NONCOSA2  City of San Antonio                                     Keith A. Toney                                                                               01 
01100024134000000NONCOSA2  City of San Antonio                                     Keith A. Toney                                                                               01 
01100024135000000NONCOSA2  City of San Antonio                                     Keith A. Toney                                                                               01 
01100024139000000NONCOSA2  City of San Antonio                                     Keith A. Toney                                                                               01 
01100024141000010NONCOSA2  City of San Antonio                                     Keith A. Toney                                                                               01 
01100024142000009NONCOSA2  City of San Antonio                                     Keith A. Toney                                                                               01 
01100024147000004NONCOSA2  City of San Antonio                                     Keith A. Toney                                                                               01 
01100024149000011NONCOSA2  City of San Antonio                                     Keith A. Toney                                                                               01 
01100024154000033NONCOSA2  City of San Antonio                                     Keith A. Toney                                                                               01 
01100024156000022NONCOSA2  City of San Antonio                                     Keith A. Toney                                                                               01 
01100024159000000NONCOSA2  City of San Antonio                                     Keith A. Toney                                                                               01 
01100024161000010NONCOSA2  City of San Antonio                                     Keith A. Toney                                                                               01 
01100024163000073NONCOSA2  City of San Antonio                                     Keith A. Toney                                                                               01 
01100024166000005NONCOSA2  City of San Antonio                                     Keith A. Toney                                                                               01 
01100024175000000NONCOSA2  City of San Antonio                                     Keith A. Toney                                                                               01 
01100024177000002NONCOSA2  City of San Antonio                                     Keith A. Toney                                                                               01 
01100024178000002NONCOSA2  City of San Antonio                                     Keith A. Toney                                                                               01 
01100024180000000NONCOSA2  City of San Antonio                                     Keith A. Toney                                                                               01 
01100024181000000NONCOSA2  City of San Antonio                                     Keith A. Toney                                                                               01 
01100024183000004NONCOSA2  City of San Antonio                                     Keith A. Toney                                                                               01 
01100024184000000NONCOSA2  City of San Antonio                                     Keith A. Toney                                                                               01 
01100024186000004NONCOSA2  City of San Antonio                                     Keith A. Toney                                                                               01 
01100024190000000NONCOSA2  City of San Antonio                                     Keith A. Toney                                                                               01 
01100024193000002NONCOSA2  City of San Antonio                                     Keith A. Toney                                                                               01 
01100024206000013NONCOSA2  City of San Antonio                                     Keith A. Toney                                                                               01 
01100024207000000NONCOSA2  City of San Antonio                                     Keith A. Toney                                                                               01 
01100024212000000NONCOSA2  City of San Antonio                                     Keith A. Toney                                                                               01 
01100024220000000NONCOSA2  City of San Antonio                                     Keith A. Toney                                                                               01 
01100031126000000NONCOSA2  City of San Antonio                                     Ntando McIntosh                                                                              01 
01100033178000000NONCOSA2  City of San Antonio                                     Ntando McIntosh                                                                              01 
01100034002000003NONCOSA2  City of San Antonio                                     Ntando McIntosh                                                                              01 
01100034003000003NONCOSA2  City of San Antonio                                     Ntando McIntosh                                                                              01 
01100034004000007NONCOSA2  City of San Antonio                                     Ntando McIntosh                                                                              01 
01100034005000010NONCOSA2  City of San Antonio                                     Ntando McIntosh                                                                              01 
01100034006000003NONCOSA2  City of San Antonio                                     Ntando McIntosh                                                                              01 
01100034007000008NONCOSA2  City of San Antonio                                     Ntando McIntosh                                                                              01 
01100034008000005NONCOSA2  City of San Antonio                                     Ntando McIntosh                                                                              01 
01100034009000006NONCOSA2  City of San Antonio                                     Ntando McIntosh                                                                              01 
01100034010000001NONCOSA2  City of San Antonio                                     Ntando McIntosh                                                                              01 
01100034011000005NONCOSA2  City of San Antonio                                     Ntando McIntosh                                                                              01 
01100034012000002NONCOSA2  City of San Antonio                                     Ntando McIntosh                                                                              01 
01100034014000004NONCOSA2  City of San Antonio                                     Ntando McIntosh                                                                              01 
01100034021000010NONCOSA2  City of San Antonio                                     Ntando McIntosh                                                                              01 
01100034029000007NONCOSA2  City of San Antonio                                     Ntando McIntosh                                                                              01 
01100034030000000NONCOSA2  City of San Antonio                                     Ntando McIntosh                                                                              01 
01100034035000001NONCOSA2  City of San Antonio                                     Ntando McIntosh                                                                              01 
01100034036000012NONCOSA2  City of San Antonio                                     Ntando McIntosh                                                                              01 
01100034037000005NONCOSA2  City of San Antonio                                     Ntando McIntosh                                                                              01 
01100034039000001NONCOSA2  City of San Antonio                                     Ntando McIntosh                                                                              01 
01100034040000001NONCOSA2  City of San Antonio                                     Ntando McIntosh                                                                              01 
01100034041000006NONCOSA2  City of San Antonio                                     Ntando McIntosh                                                                              01 
01100034042000001NONCOSA2  City of San Antonio                                     Ntando McIntosh                                                                              01 
01100034043000003NONCOSA2  City of San Antonio                                     Ntando McIntosh                                                                              01 
01100034044000009NONCOSA2  City of San Antonio                                     Ntando McIntosh                                                                              01 
01100034045000018NONCOSA2  City of San Antonio                                     Ntando McIntosh                                                                              01 
01100034047000012NONCOSA2  City of San Antonio                                     Ntando McIntosh                                                                              01 
01100034049000011NONCOSA2  City of San Antonio                                     Ntando McIntosh                                                                              01 
01100034063000009NONCOSA2  City of San Antonio                                     Ntando McIntosh                                                                              01 
01100034065000012NONCOSA2  City of San Antonio                                     Ntando McIntosh                                                                              01 
01100034068000000NONCOSA2  City of San Antonio                                     Ntando McIntosh                                                                              01 
01100034070000016NONCOSA2  City of San Antonio                                     Ntando McIntosh                                                                              01 
01100034075000008NONCOSA2  City of San Antonio                                     Ntando McIntosh                                                                              01 
01100034076000010NONCOSA2  City of San Antonio                                     Ntando McIntosh                                                                              01 
01100034077000014NONCOSA2  City of San Antonio                                     Ntando McIntosh                                                                              01 
01100034082000007NONCOSA2  City of San Antonio                                     Ntando McIntosh                                                                              01 
01100034083000000NONCOSA2  City of San Antonio                                     Ntando McIntosh                                                                              01 
01100034084000001NONCOSA2  City of San Antonio                                     Ntando McIntosh                                                                              01 
01100034091000015NONCOSA2  City of San Antonio                                     Ntando McIntosh                                                                              01 
01100034102000001NONCOSA2  City of San Antonio                                     Ntando McIntosh                                                                              01 
01100034103000000NONCOSA2  City of San Antonio                                     Ntando McIntosh                                                                              01 
01100034106000002NONCOSA2  City of San Antonio                                     Ntando McIntosh                                                                              01 
01100034110000005NONCOSA2  City of San Antonio                                     Ntando McIntosh                                                                              01 
01100034111000000NONCOSA2  City of San Antonio                                     Ntando McIntosh                                                                              01 
01100034113000006NONCOSA2  City of San Antonio                                     Ntando McIntosh                                                                              01 
01100034117000007NONCOSA2  City of San Antonio                                     Ntando McIntosh                                                                              01 
01100034119000003NONCOSA2  City of San Antonio                                     Ntando McIntosh                                                                              01 
01100034120000003NONCOSA2  City of San Antonio                                     Ntando McIntosh                                                                              01 
01100034122000000NONCOSA2  City of San Antonio                                     Ntando McIntosh                                                                              01 
01100034123000000NONCOSA2  City of San Antonio                                     Ntando McIntosh                                                                              01 
01100034125000000NONCOSA2  City of San Antonio                                     Ntando McIntosh                                                                              01 
01100034128000002NONCOSA2  City of San Antonio                                     Ntando McIntosh                                                                              01 
01100034131000003NONCOSA2  City of San Antonio                                     Ntando McIntosh                                                                              01 
01100034134000000NONCOSA2  City of San Antonio                                     Ntando McIntosh                                                                              01 
01100034135000000NONCOSA2  City of San Antonio                                     Ntando McIntosh                                                                              01 
01100034139000000NONCOSA2  City of San Antonio                                     Ntando McIntosh                                                                              01 
01100034141000000NONCOSA2  City of San Antonio                                     Ntando McIntosh                                                                              01 
01100034142000004NONCOSA2  City of San Antonio                                     Ntando McIntosh                                                                              01 
01100034147000005NONCOSA2  City of San Antonio                                     Ntando McIntosh                                                                              01 
01100034149000005NONCOSA2  City of San Antonio                                     Ntando McIntosh                                                                              01 
01100034154000007NONCOSA2  City of San Antonio                                     Ntando McIntosh                                                                              01 
01100034156000004NONCOSA2  City of San Antonio                                     Ntando McIntosh                                                                              01 
01100034159000000NONCOSA2  City of San Antonio                                     Ntando McIntosh                                                                              01 
01100034161000002NONCOSA2  City of San Antonio                                     Ntando McIntosh                                                                              01 
01100034163000011NONCOSA2  City of San Antonio                                     Ntando McIntosh                                                                              01 
01100034166000002NONCOSA2  City of San Antonio                                     Ntando McIntosh                                                                              01 
01100034175000000NONCOSA2  City of San Antonio                                     Ntando McIntosh                                                                              01 
01100034177000000NONCOSA2  City of San Antonio                                     Ntando McIntosh                                                                              01 
01100034178000000NONCOSA2  City of San Antonio                                     Ntando McIntosh                                                                              01 
01100034180000000NONCOSA2  City of San Antonio                                     Ntando McIntosh                                                                              01 
01100034181000000NONCOSA2  City of San Antonio                                     Ntando McIntosh                                                                              01 
01100034183000000NONCOSA2  City of San Antonio                                     Ntando McIntosh                                                                              01 
01100034184000000NONCOSA2  City of San Antonio                                     Ntando McIntosh                                                                              01 
01100034186000001NONCOSA2  City of San Antonio                                     Ntando McIntosh                                                                              01 
01100034190000000NONCOSA2  City of San Antonio                                     Ntando McIntosh                                                                              01 
01100034193000000NONCOSA2  City of San Antonio                                     Ntando McIntosh                                                                              01 
01100034206000001NONCOSA2  City of San Antonio                                     Ntando McIntosh                                                                              01 
01100034207000000NONCOSA2  City of San Antonio                                     Ntando McIntosh                                                                              01 
01100034212000000NONCOSA2  City of San Antonio                                     Ntando McIntosh                                                                              01 
01100034220000000NONCOSA2  City of San Antonio                                     Ntando McIntosh                                                                              01 
01100041126000000NONCOSA2  City of San Antonio                                     Alan E. Warrick                                                                              01 
01100043178000000NONCOSA2  City of San Antonio                                     Alan E. Warrick                                                                              01 
01100044002000015NONCOSA2  City of San Antonio                                     Alan E. Warrick                                                                              01 
01100044003000032NONCOSA2  City of San Antonio                                     Alan E. Warrick                                                                              01 
01100044004000026NONCOSA2  City of San Antonio                                     Alan E. Warrick                                                                              01 
01100044005000044NONCOSA2  City of San Antonio                                     Alan E. Warrick                                                                              01 
01100044006000013NONCOSA2  City of San Antonio                                     Alan E. Warrick                                                                              01 
01100044007000010NONCOSA2  City of San Antonio                                     Alan E. Warrick                                                                              01 
01100044008000034NONCOSA2  City of San Antonio                                     Alan E. Warrick                                                                              01 
01100044009000016NONCOSA2  City of San Antonio                                     Alan E. Warrick                                                                              01 
01100044010000026NONCOSA2  City of San Antonio                                     Alan E. Warrick                                                                              01 
01100044011000044NONCOSA2  City of San Antonio                                     Alan E. Warrick                                                                              01 
01100044012000007NONCOSA2  City of San Antonio                                     Alan E. Warrick                                                                              01 
01100044014000005NONCOSA2  City of San Antonio                                     Alan E. Warrick                                                                              01 
01100044021000017NONCOSA2  City of San Antonio                                     Alan E. Warrick                                                                              01 
01100044029000046NONCOSA2  City of San Antonio                                     Alan E. Warrick                                                                              01 
01100044030000011NONCOSA2  City of San Antonio                                     Alan E. Warrick                                                                              01 
01100044035000001NONCOSA2  City of San Antonio                                     Alan E. Warrick                                                                              01 
01100044036000126NONCOSA2  City of San Antonio                                     Alan E. Warrick                                                                              01 
01100044037000058NONCOSA2  City of San Antonio                                     Alan E. Warrick                                                                              01 
01100044039000049NONCOSA2  City of San Antonio                                     Alan E. Warrick                                                                              01 
01100044040000092NONCOSA2  City of San Antonio                                     Alan E. Warrick                                                                              01 
01100044041000091NONCOSA2  City of San Antonio                                     Alan E. Warrick                                                                              01 
01100044042000004NONCOSA2  City of San Antonio                                     Alan E. Warrick                                                                              01 
01100044043000006NONCOSA2  City of San Antonio                                     Alan E. Warrick                                                                              01 
01100044044000027NONCOSA2  City of San Antonio                                     Alan E. Warrick                                                                              01 
01100044045000079NONCOSA2  City of San Antonio                                     Alan E. Warrick                                                                              01 
01100044047000072NONCOSA2  City of San Antonio                                     Alan E. Warrick                                                                              01 
01100044049000042NONCOSA2  City of San Antonio                                     Alan E. Warrick                                                                              01 
01100044063000022NONCOSA2  City of San Antonio                                     Alan E. Warrick                                                                              01 
01100044065000080NONCOSA2  City of San Antonio                                     Alan E. Warrick                                                                              01 
01100044068000005NONCOSA2  City of San Antonio                                     Alan E. Warrick                                                                              01 
01100044070000139NONCOSA2  City of San Antonio                                     Alan E. Warrick                                                                              01 
01100044075000005NONCOSA2  City of San Antonio                                     Alan E. Warrick                                                                              01 
01100044076000033NONCOSA2  City of San Antonio                                     Alan E. Warrick                                                                              01 
01100044077000062NONCOSA2  City of San Antonio                                     Alan E. Warrick                                                                              01 
01100044082000043NONCOSA2  City of San Antonio                                     Alan E. Warrick                                                                              01 
01100044083000000NONCOSA2  City of San Antonio                                     Alan E. Warrick                                                                              01 
01100044084000016NONCOSA2  City of San Antonio                                     Alan E. Warrick                                                                              01 
01100044091000028NONCOSA2  City of San Antonio                                     Alan E. Warrick                                                                              01 
01100044102000016NONCOSA2  City of San Antonio                                     Alan E. Warrick                                                                              01 
01100044103000000NONCOSA2  City of San Antonio                                     Alan E. Warrick                                                                              01 
01100044106000008NONCOSA2  City of San Antonio                                     Alan E. Warrick                                                                              01 
01100044110000034NONCOSA2  City of San Antonio                                     Alan E. Warrick                                                                              01 
01100044111000002NONCOSA2  City of San Antonio                                     Alan E. Warrick                                                                              01 
01100044113000042NONCOSA2  City of San Antonio                                     Alan E. Warrick                                                                              01 
01100044117000025NONCOSA2  City of San Antonio                                     Alan E. Warrick                                                                              01 
01100044119000008NONCOSA2  City of San Antonio                                     Alan E. Warrick                                                                              01 
01100044120000005NONCOSA2  City of San Antonio                                     Alan E. Warrick                                                                              01 
01100044122000002NONCOSA2  City of San Antonio                                     Alan E. Warrick                                                                              01 
01100044123000002NONCOSA2  City of San Antonio                                     Alan E. Warrick                                                                              01 
01100044125000003NONCOSA2  City of San Antonio                                     Alan E. Warrick                                                                              01 
01100044128000003NONCOSA2  City of San Antonio                                     Alan E. Warrick                                                                              01 
01100044131000005NONCOSA2  City of San Antonio                                     Alan E. Warrick                                                                              01 
01100044134000000NONCOSA2  City of San Antonio                                     Alan E. Warrick                                                                              01 
01100044135000000NONCOSA2  City of San Antonio                                     Alan E. Warrick                                                                              01 
01100044139000001NONCOSA2  City of San Antonio                                     Alan E. Warrick                                                                              01 
01100044141000004NONCOSA2  City of San Antonio                                     Alan E. Warrick                                                                              01 
01100044142000007NONCOSA2  City of San Antonio                                     Alan E. Warrick                                                                              01 
01100044147000005NONCOSA2  City of San Antonio                                     Alan E. Warrick                                                                              01 
01100044149000006NONCOSA2  City of San Antonio                                     Alan E. Warrick                                                                              01 
01100044154000028NONCOSA2  City of San Antonio                                     Alan E. Warrick                                                                              01 
01100044156000014NONCOSA2  City of San Antonio                                     Alan E. Warrick                                                                              01 
01100044159000000NONCOSA2  City of San Antonio                                     Alan E. Warrick                                                                              01 
01100044161000010NONCOSA2  City of San Antonio                                     Alan E. Warrick                                                                              01 
01100044163000087NONCOSA2  City of San Antonio                                     Alan E. Warrick                                                                              01 
01100044166000003NONCOSA2  City of San Antonio                                     Alan E. Warrick                                                                              01 
01100044175000000NONCOSA2  City of San Antonio                                     Alan E. Warrick                                                                              01 
01100044177000001NONCOSA2  City of San Antonio                                     Alan E. Warrick                                                                              01 
01100044178000001NONCOSA2  City of San Antonio                                     Alan E. Warrick                                                                              01 
01100044180000000NONCOSA2  City of San Antonio                                     Alan E. Warrick                                                                              01 
01100044181000000NONCOSA2  City of San Antonio                                     Alan E. Warrick                                                                              01 
01100044183000009NONCOSA2  City of San Antonio                                     Alan E. Warrick                                                                              01 
01100044184000000NONCOSA2  City of San Antonio                                     Alan E. Warrick                                                                              01 
01100044186000007NONCOSA2  City of San Antonio                                     Alan E. Warrick                                                                              01 
01100044190000000NONCOSA2  City of San Antonio                                     Alan E. Warrick                                                                              01 
01100044193000001NONCOSA2  City of San Antonio                                     Alan E. Warrick                                                                              01 
01100044206000004NONCOSA2  City of San Antonio                                     Alan E. Warrick                                                                              01 
01100044207000000NONCOSA2  City of San Antonio                                     Alan E. Warrick                                                                              01 
01100044212000000NONCOSA2  City of San Antonio                                     Alan E. Warrick                                                                              01 
01100044220000001NONCOSA2  City of San Antonio                                     Alan E. Warrick                                                                              01 
01100051126000000NONCOSA2  City of San Antonio                                     Elmo Aycock                                                                                  01 
01100053178000000NONCOSA2  City of San Antonio                                     Elmo Aycock                                                                                  01 
01100054002000001NONCOSA2  City of San Antonio                                     Elmo Aycock                                                                                  01 
01100054003000003NONCOSA2  City of San Antonio                                     Elmo Aycock                                                                                  01 
01100054004000003NONCOSA2  City of San Antonio                                     Elmo Aycock                                                                                  01 
01100054005000007NONCOSA2  City of San Antonio                                     Elmo Aycock                                                                                  01 
01100054006000009NONCOSA2  City of San Antonio                                     Elmo Aycock                                                                                  01 
01100054007000003NONCOSA2  City of San Antonio                                     Elmo Aycock                                                                                  01 
01100054008000007NONCOSA2  City of San Antonio                                     Elmo Aycock                                                                                  01 
01100054009000001NONCOSA2  City of San Antonio                                     Elmo Aycock                                                                                  01 
01100054010000011NONCOSA2  City of San Antonio                                     Elmo Aycock                                                                                  01 
01100054011000006NONCOSA2  City of San Antonio                                     Elmo Aycock                                                                                  01 
01100054012000004NONCOSA2  City of San Antonio                                     Elmo Aycock                                                                                  01 
01100054014000007NONCOSA2  City of San Antonio                                     Elmo Aycock                                                                                  01 
01100054021000001NONCOSA2  City of San Antonio                                     Elmo Aycock                                                                                  01 
01100054029000010NONCOSA2  City of San Antonio                                     Elmo Aycock                                                                                  01 
01100054030000002NONCOSA2  City of San Antonio                                     Elmo Aycock                                                                                  01 
01100054035000000NONCOSA2  City of San Antonio                                     Elmo Aycock                                                                                  01 
01100054036000017NONCOSA2  City of San Antonio                                     Elmo Aycock                                                                                  01 
01100054037000011NONCOSA2  City of San Antonio                                     Elmo Aycock                                                                                  01 
01100054039000007NONCOSA2  City of San Antonio                                     Elmo Aycock                                                                                  01 
01100054040000010NONCOSA2  City of San Antonio                                     Elmo Aycock                                                                                  01 
01100054041000007NONCOSA2  City of San Antonio                                     Elmo Aycock                                                                                  01 
01100054042000001NONCOSA2  City of San Antonio                                     Elmo Aycock                                                                                  01 
01100054043000003NONCOSA2  City of San Antonio                                     Elmo Aycock                                                                                  01 
01100054044000005NONCOSA2  City of San Antonio                                     Elmo Aycock                                                                                  01 
01100054045000020NONCOSA2  City of San Antonio                                     Elmo Aycock                                                                                  01 
01100054047000017NONCOSA2  City of San Antonio                                     Elmo Aycock                                                                                  01 
01100054049000009NONCOSA2  City of San Antonio                                     Elmo Aycock                                                                                  01 
01100054063000006NONCOSA2  City of San Antonio                                     Elmo Aycock                                                                                  01 
01100054065000014NONCOSA2  City of San Antonio                                     Elmo Aycock                                                                                  01 
01100054068000000NONCOSA2  City of San Antonio                                     Elmo Aycock                                                                                  01 
01100054070000019NONCOSA2  City of San Antonio                                     Elmo Aycock                                                                                  01 
01100054075000001NONCOSA2  City of San Antonio                                     Elmo Aycock                                                                                  01 
01100054076000011NONCOSA2  City of San Antonio                                     Elmo Aycock                                                                                  01 
01100054077000016NONCOSA2  City of San Antonio                                     Elmo Aycock                                                                                  01 
01100054082000006NONCOSA2  City of San Antonio                                     Elmo Aycock                                                                                  01 
01100054083000000NONCOSA2  City of San Antonio                                     Elmo Aycock                                                                                  01 
01100054084000001NONCOSA2  City of San Antonio                                     Elmo Aycock                                                                                  01 
01100054091000009NONCOSA2  City of San Antonio                                     Elmo Aycock                                                                                  01 
01100054102000005NONCOSA2  City of San Antonio                                     Elmo Aycock                                                                                  01 
01100054103000000NONCOSA2  City of San Antonio                                     Elmo Aycock                                                                                  01 
01100054106000002NONCOSA2  City of San Antonio                                     Elmo Aycock                                                                                  01 
01100054110000009NONCOSA2  City of San Antonio                                     Elmo Aycock                                                                                  01 
01100054111000001NONCOSA2  City of San Antonio                                     Elmo Aycock                                                                                  01 
01100054113000010NONCOSA2  City of San Antonio                                     Elmo Aycock                                                                                  01 
01100054117000009NONCOSA2  City of San Antonio                                     Elmo Aycock                                                                                  01 
01100054119000000NONCOSA2  City of San Antonio                                     Elmo Aycock                                                                                  01 
01100054120000000NONCOSA2  City of San Antonio                                     Elmo Aycock                                                                                  01 
01100054122000001NONCOSA2  City of San Antonio                                     Elmo Aycock                                                                                  01 
01100054123000001NONCOSA2  City of San Antonio                                     Elmo Aycock                                                                                  01 
01100054125000000NONCOSA2  City of San Antonio                                     Elmo Aycock                                                                                  01 
01100054128000005NONCOSA2  City of San Antonio                                     Elmo Aycock                                                                                  01 
01100054131000000NONCOSA2  City of San Antonio                                     Elmo Aycock                                                                                  01 
01100054134000000NONCOSA2  City of San Antonio                                     Elmo Aycock                                                                                  01 
01100054135000000NONCOSA2  City of San Antonio                                     Elmo Aycock                                                                                  01 
01100054139000000NONCOSA2  City of San Antonio                                     Elmo Aycock                                                                                  01 
01100054141000000NONCOSA2  City of San Antonio                                     Elmo Aycock                                                                                  01 
01100054142000002NONCOSA2  City of San Antonio                                     Elmo Aycock                                                                                  01 
01100054147000003NONCOSA2  City of San Antonio                                     Elmo Aycock                                                                                  01 
01100054149000003NONCOSA2  City of San Antonio                                     Elmo Aycock                                                                                  01 
01100054154000004NONCOSA2  City of San Antonio                                     Elmo Aycock                                                                                  01 
01100054156000005NONCOSA2  City of San Antonio                                     Elmo Aycock                                                                                  01 
01100054159000000NONCOSA2  City of San Antonio                                     Elmo Aycock                                                                                  01 
01100054161000002NONCOSA2  City of San Antonio                                     Elmo Aycock                                                                                  01 
01100054163000016NONCOSA2  City of San Antonio                                     Elmo Aycock                                                                                  01 
01100054166000002NONCOSA2  City of San Antonio                                     Elmo Aycock                                                                                  01 
01100054175000000NONCOSA2  City of San Antonio                                     Elmo Aycock                                                                                  01 
01100054177000000NONCOSA2  City of San Antonio                                     Elmo Aycock                                                                                  01 
01100054178000000NONCOSA2  City of San Antonio                                     Elmo Aycock                                                                                  01 
01100054180000000NONCOSA2  City of San Antonio                                     Elmo Aycock                                                                                  01 
01100054181000000NONCOSA2  City of San Antonio                                     Elmo Aycock                                                                                  01 
01100054183000003NONCOSA2  City of San Antonio                                     Elmo Aycock                                                                                  01 
01100054184000001NONCOSA2  City of San Antonio                                     Elmo Aycock                                                                                  01 
01100054186000001NONCOSA2  City of San Antonio                                     Elmo Aycock                                                                                  01 
01100054190000000NONCOSA2  City of San Antonio                                     Elmo Aycock                                                                                  01 
01100054193000000NONCOSA2  City of San Antonio                                     Elmo Aycock                                                                                  01 
01100054206000001NONCOSA2  City of San Antonio                                     Elmo Aycock                                                                                  01 
01100054207000000NONCOSA2  City of San Antonio                                     Elmo Aycock                                                                                  01 
01100054212000000NONCOSA2  City of San Antonio                                     Elmo Aycock                                                                                  01 
01100054220000001NONCOSA2  City of San Antonio                                     Elmo Aycock                                                                                  01 
01100061126000000   COSA2  City of San Antonio                                     OVER VOTES                                                                                   01 
01100063178000000   COSA2  City of San Antonio                                     OVER VOTES                                                                                   01 
01100064002000000   COSA2  City of San Antonio                                     OVER VOTES                                                                                   01 
01100064003000000   COSA2  City of San Antonio                                     OVER VOTES                                                                                   01 
01100064004000000   COSA2  City of San Antonio                                     OVER VOTES                                                                                   01 
01100064005000000   COSA2  City of San Antonio                                     OVER VOTES                                                                                   01 
01100064006000000   COSA2  City of San Antonio                                     OVER VOTES                                                                                   01 
01100064007000000   COSA2  City of San Antonio                                     OVER VOTES                                                                                   01 
01100064008000000   COSA2  City of San Antonio                                     OVER VOTES                                                                                   01 
01100064009000000   COSA2  City of San Antonio                                     OVER VOTES                                                                                   01 
01100064010000000   COSA2  City of San Antonio                                     OVER VOTES                                                                                   01 
01100064011000000   COSA2  City of San Antonio                                     OVER VOTES                                                                                   01 
01100064012000000   COSA2  City of San Antonio                                     OVER VOTES                                                                                   01 
01100064014000000   COSA2  City of San Antonio                                     OVER VOTES                                                                                   01 
01100064021000000   COSA2  City of San Antonio                                     OVER VOTES                                                                                   01 
01100064029000000   COSA2  City of San Antonio                                     OVER VOTES                                                                                   01 
01100064030000000   COSA2  City of San Antonio                                     OVER VOTES                                                                                   01 
01100064035000000   COSA2  City of San Antonio                                     OVER VOTES                                                                                   01 
01100064036000000   COSA2  City of San Antonio                                     OVER VOTES                                                                                   01 
01100064037000001   COSA2  City of San Antonio                                     OVER VOTES                                                                                   01 
01100064039000000   COSA2  City of San Antonio                                     OVER VOTES                                                                                   01 
01100064040000000   COSA2  City of San Antonio                                     OVER VOTES                                                                                   01 
01100064041000000   COSA2  City of San Antonio                                     OVER VOTES                                                                                   01 
01100064042000000   COSA2  City of San Antonio                                     OVER VOTES                                                                                   01 
01100064043000000   COSA2  City of San Antonio                                     OVER VOTES                                                                                   01 
01100064044000000   COSA2  City of San Antonio                                     OVER VOTES                                                                                   01 
01100064045000000   COSA2  City of San Antonio                                     OVER VOTES                                                                                   01 
01100064047000000   COSA2  City of San Antonio                                     OVER VOTES                                                                                   01 
01100064049000000   COSA2  City of San Antonio                                     OVER VOTES                                                                                   01 
01100064063000001   COSA2  City of San Antonio                                     OVER VOTES                                                                                   01 
01100064065000000   COSA2  City of San Antonio                                     OVER VOTES                                                                                   01 
01100064068000000   COSA2  City of San Antonio                                     OVER VOTES                                                                                   01 
01100064070000000   COSA2  City of San Antonio                                     OVER VOTES                                                                                   01 
01100064075000000   COSA2  City of San Antonio                                     OVER VOTES                                                                                   01 
01100064076000000   COSA2  City of San Antonio                                     OVER VOTES                                                                                   01 
01100064077000000   COSA2  City of San Antonio                                     OVER VOTES                                                                                   01 
01100064082000000   COSA2  City of San Antonio                                     OVER VOTES                                                                                   01 
01100064083000000   COSA2  City of San Antonio                                     OVER VOTES                                                                                   01 
01100064084000000   COSA2  City of San Antonio                                     OVER VOTES                                                                                   01 
01100064091000000   COSA2  City of San Antonio                                     OVER VOTES                                                                                   01 
01100064102000000   COSA2  City of San Antonio                                     OVER VOTES                                                                                   01 
01100064103000000   COSA2  City of San Antonio                                     OVER VOTES                                                                                   01 
01100064106000000   COSA2  City of San Antonio                                     OVER VOTES                                                                                   01 
01100064110000000   COSA2  City of San Antonio                                     OVER VOTES                                                                                   01 
01100064111000000   COSA2  City of San Antonio                                     OVER VOTES                                                                                   01 
01100064113000000   COSA2  City of San Antonio                                     OVER VOTES                                                                                   01 
01100064117000000   COSA2  City of San Antonio                                     OVER VOTES                                                                                   01 
01100064119000000   COSA2  City of San Antonio                                     OVER VOTES                                                                                   01 
01100064120000000   COSA2  City of San Antonio                                     OVER VOTES                                                                                   01 
01100064122000000   COSA2  City of San Antonio                                     OVER VOTES                                                                                   01 
01100064123000000   COSA2  City of San Antonio                                     OVER VOTES                                                                                   01 
01100064125000000   COSA2  City of San Antonio                                     OVER VOTES                                                                                   01 
01100064128000000   COSA2  City of San Antonio                                     OVER VOTES                                                                                   01 
01100064131000000   COSA2  City of San Antonio                                     OVER VOTES                                                                                   01 
01100064134000000   COSA2  City of San Antonio                                     OVER VOTES                                                                                   01 
01100064135000000   COSA2  City of San Antonio                                     OVER VOTES                                                                                   01 
01100064139000000   COSA2  City of San Antonio                                     OVER VOTES                                                                                   01 
01100064141000000   COSA2  City of San Antonio                                     OVER VOTES                                                                                   01 
01100064142000000   COSA2  City of San Antonio                                     OVER VOTES                                                                                   01 
01100064147000000   COSA2  City of San Antonio                                     OVER VOTES                                                                                   01 
01100064149000000   COSA2  City of San Antonio                                     OVER VOTES                                                                                   01 
01100064154000000   COSA2  City of San Antonio                                     OVER VOTES                                                                                   01 
01100064156000000   COSA2  City of San Antonio                                     OVER VOTES                                                                                   01 
01100064159000000   COSA2  City of San Antonio                                     OVER VOTES                                                                                   01 
01100064161000000   COSA2  City of San Antonio                                     OVER VOTES                                                                                   01 
01100064163000000   COSA2  City of San Antonio                                     OVER VOTES                                                                                   01 
01100064166000000   COSA2  City of San Antonio                                     OVER VOTES                                                                                   01 
01100064175000000   COSA2  City of San Antonio                                     OVER VOTES                                                                                   01 
01100064177000000   COSA2  City of San Antonio                                     OVER VOTES                                                                                   01 
01100064178000000   COSA2  City of San Antonio                                     OVER VOTES                                                                                   01 
01100064180000000   COSA2  City of San Antonio                                     OVER VOTES                                                                                   01 
01100064181000000   COSA2  City of San Antonio                                     OVER VOTES                                                                                   01 
01100064183000000   COSA2  City of San Antonio                                     OVER VOTES                                                                                   01 
01100064184000000   COSA2  City of San Antonio                                     OVER VOTES                                                                                   01 
01100064186000000   COSA2  City of San Antonio                                     OVER VOTES                                                                                   01 
01100064190000000   COSA2  City of San Antonio                                     OVER VOTES                                                                                   01 
01100064193000000   COSA2  City of San Antonio                                     OVER VOTES                                                                                   01 
01100064206000000   COSA2  City of San Antonio                                     OVER VOTES                                                                                   01 
01100064207000000   COSA2  City of San Antonio                                     OVER VOTES                                                                                   01 
01100064212000000   COSA2  City of San Antonio                                     OVER VOTES                                                                                   01 
01100064220000000   COSA2  City of San Antonio                                     OVER VOTES                                                                                   01 
01100071126000000   COSA2  City of San Antonio                                     UNDER VOTES                                                                                  01 
01100073178000000   COSA2  City of San Antonio                                     UNDER VOTES                                                                                  01 
01100074002000026   COSA2  City of San Antonio                                     UNDER VOTES                                                                                  01 
01100074003000045   COSA2  City of San Antonio                                     UNDER VOTES                                                                                  01 
01100074004000049   COSA2  City of San Antonio                                     UNDER VOTES                                                                                  01 
01100074005000072   COSA2  City of San Antonio                                     UNDER VOTES                                                                                  01 
01100074006000041   COSA2  City of San Antonio                                     UNDER VOTES                                                                                  01 
01100074007000041   COSA2  City of San Antonio                                     UNDER VOTES                                                                                  01 
01100074008000074   COSA2  City of San Antonio                                     UNDER VOTES                                                                                  01 
01100074009000032   COSA2  City of San Antonio                                     UNDER VOTES                                                                                  01 
01100074010000041   COSA2  City of San Antonio                                     UNDER VOTES                                                                                  01 
01100074011000046   COSA2  City of San Antonio                                     UNDER VOTES                                                                                  01 
01100074012000026   COSA2  City of San Antonio                                     UNDER VOTES                                                                                  01 
01100074014000021   COSA2  City of San Antonio                                     UNDER VOTES                                                                                  01 
01100074021000077   COSA2  City of San Antonio                                     UNDER VOTES                                                                                  01 
01100074029000099   COSA2  City of San Antonio                                     UNDER VOTES                                                                                  01 
01100074030000016   COSA2  City of San Antonio                                     UNDER VOTES                                                                                  01 
01100074035000001   COSA2  City of San Antonio                                     UNDER VOTES                                                                                  01 
01100074036000134   COSA2  City of San Antonio                                     UNDER VOTES                                                                                  01 
01100074037000081   COSA2  City of San Antonio                                     UNDER VOTES                                                                                  01 
01100074039000050   COSA2  City of San Antonio                                     UNDER VOTES                                                                                  01 
01100074040000030   COSA2  City of San Antonio                                     UNDER VOTES                                                                                  01 
01100074041000099   COSA2  City of San Antonio                                     UNDER VOTES                                                                                  01 
01100074042000005   COSA2  City of San Antonio                                     UNDER VOTES                                                                                  01 
01100074043000022   COSA2  City of San Antonio                                     UNDER VOTES                                                                                  01 
01100074044000088   COSA2  City of San Antonio                                     UNDER VOTES                                                                                  01 
01100074045000170   COSA2  City of San Antonio                                     UNDER VOTES                                                                                  01 
01100074047000157   COSA2  City of San Antonio                                     UNDER VOTES                                                                                  01 
01100074049000115   COSA2  City of San Antonio                                     UNDER VOTES                                                                                  01 
01100074063000055   COSA2  City of San Antonio                                     UNDER VOTES                                                                                  01 
01100074065000098   COSA2  City of San Antonio                                     UNDER VOTES                                                                                  01 
01100074068000009   COSA2  City of San Antonio                                     UNDER VOTES                                                                                  01 
01100074070000135   COSA2  City of San Antonio                                     UNDER VOTES                                                                                  01 
01100074075000020   COSA2  City of San Antonio                                     UNDER VOTES                                                                                  01 
01100074076000101   COSA2  City of San Antonio                                     UNDER VOTES                                                                                  01 
01100074077000101   COSA2  City of San Antonio                                     UNDER VOTES                                                                                  01 
01100074082000086   COSA2  City of San Antonio                                     UNDER VOTES                                                                                  01 
01100074083000001   COSA2  City of San Antonio                                     UNDER VOTES                                                                                  01 
01100074084000015   COSA2  City of San Antonio                                     UNDER VOTES                                                                                  01 
01100074091000089   COSA2  City of San Antonio                                     UNDER VOTES                                                                                  01 
01100074102000038   COSA2  City of San Antonio                                     UNDER VOTES                                                                                  01 
01100074103000000   COSA2  City of San Antonio                                     UNDER VOTES                                                                                  01 
01100074106000014   COSA2  City of San Antonio                                     UNDER VOTES                                                                                  01 
01100074110000074   COSA2  City of San Antonio                                     UNDER VOTES                                                                                  01 
01100074111000007   COSA2  City of San Antonio                                     UNDER VOTES                                                                                  01 
01100074113000048   COSA2  City of San Antonio                                     UNDER VOTES                                                                                  01 
01100074117000055   COSA2  City of San Antonio                                     UNDER VOTES                                                                                  01 
01100074119000036   COSA2  City of San Antonio                                     UNDER VOTES                                                                                  01 
01100074120000013   COSA2  City of San Antonio                                     UNDER VOTES                                                                                  01 
01100074122000010   COSA2  City of San Antonio                                     UNDER VOTES                                                                                  01 
01100074123000009   COSA2  City of San Antonio                                     UNDER VOTES                                                                                  01 
01100074125000003   COSA2  City of San Antonio                                     UNDER VOTES                                                                                  01 
01100074128000008   COSA2  City of San Antonio                                     UNDER VOTES                                                                                  01 
01100074131000010   COSA2  City of San Antonio                                     UNDER VOTES                                                                                  01 
01100074134000000   COSA2  City of San Antonio                                     UNDER VOTES                                                                                  01 
01100074135000000   COSA2  City of San Antonio                                     UNDER VOTES                                                                                  01 
01100074139000001   COSA2  City of San Antonio                                     UNDER VOTES                                                                                  01 
01100074141000010   COSA2  City of San Antonio                                     UNDER VOTES                                                                                  01 
01100074142000019   COSA2  City of San Antonio                                     UNDER VOTES                                                                                  01 
01100074147000016   COSA2  City of San Antonio                                     UNDER VOTES                                                                                  01 
01100074149000028   COSA2  City of San Antonio                                     UNDER VOTES                                                                                  01 
01100074154000035   COSA2  City of San Antonio                                     UNDER VOTES                                                                                  01 
01100074156000037   COSA2  City of San Antonio                                     UNDER VOTES                                                                                  01 
01100074159000003   COSA2  City of San Antonio                                     UNDER VOTES                                                                                  01 
01100074161000013   COSA2  City of San Antonio                                     UNDER VOTES                                                                                  01 
01100074163000098   COSA2  City of San Antonio                                     UNDER VOTES                                                                                  01 
