01110011057000096NONCTYSANDCity of Sandy Oaks Proposition 1                        For                                                                                          01Y
01110021057000089NONCTYSANDCity of Sandy Oaks Proposition 1                        Against                                                                                      01Y
01110031057000000   CTYSANDCity of Sandy Oaks Proposition 1                        OVER VOTES                                                                                   01Y
01110041057000008   CTYSANDCity of Sandy Oaks Proposition 1                        UNDER VOTES                                                                                  01Y
01120011057000084NONCTYSANDCity of Sandy Oaks Proposition 2                        For                                                                                          01Y
01120021057000099NONCTYSANDCity of Sandy Oaks Proposition 2                        Against                                                                                      01Y
01120031057000000   CTYSANDCity of Sandy Oaks Proposition 2                        OVER VOTES                                                                                   01Y
01120041057000010   CTYSANDCity of Sandy Oaks Proposition 2                        UNDER VOTES                                                                                  01Y
01130011057000117NONCTYSANDCity of Sandy Oaks Proposition 3                        For                                                                                          01Y
01130021057000068NONCTYSANDCity of Sandy Oaks Proposition 3                        Against                                                                                      01Y
01130031057000000   CTYSANDCity of Sandy Oaks Proposition 3                        OVER VOTES                                                                                   01Y
01130041057000008   CTYSANDCity of Sandy Oaks Proposition 3                        UNDER VOTES                                                                                  01Y
01140011057000121NONCTYSANDCity of Sandy Oaks Proposition 4                        For                                                                                          01Y
01140021057000066NONCTYSANDCity of Sandy Oaks Proposition 4                        Against                                                                                      01Y
01140031057000000   CTYSANDCity of Sandy Oaks Proposition 4                        OVER VOTES                                                                                   01Y
01140041057000006   CTYSANDCity of Sandy Oaks Proposition 4                        UNDER VOTES                                                                                  01Y
