01110011057000165NONCTYSANDCity of Sandy Oaks Proposition 1                        For                                                                                          01Y
01110021057000132NONCTYSANDCity of Sandy Oaks Proposition 1                        Against                                                                                      01Y
01110031057000000   CTYSANDCity of Sandy Oaks Proposition 1                        OVER VOTES                                                                                   01Y
01110041057000016   CTYSANDCity of Sandy Oaks Proposition 1                        UNDER VOTES                                                                                  01Y
01120011057000151NONCTYSANDCity of Sandy Oaks Proposition 2                        For                                                                                          01Y
01120021057000145NONCTYSANDCity of Sandy Oaks Proposition 2                        Against                                                                                      01Y
01120031057000000   CTYSANDCity of Sandy Oaks Proposition 2                        OVER VOTES                                                                                   01Y
01120041057000017   CTYSANDCity of Sandy Oaks Proposition 2                        UNDER VOTES                                                                                  01Y
01130011057000194NONCTYSANDCity of Sandy Oaks Proposition 3                        For                                                                                          01Y
01130021057000104NONCTYSANDCity of Sandy Oaks Proposition 3                        Against                                                                                      01Y
01130031057000000   CTYSANDCity of Sandy Oaks Proposition 3                        OVER VOTES                                                                                   01Y
01130041057000015   CTYSANDCity of Sandy Oaks Proposition 3                        UNDER VOTES                                                                                  01Y
01140011057000192NONCTYSANDCity of Sandy Oaks Proposition 4                        For                                                                                          01Y
01140021057000110NONCTYSANDCity of Sandy Oaks Proposition 4                        Against                                                                                      01Y
01140031057000000   CTYSANDCity of Sandy Oaks Proposition 4                        OVER VOTES                                                                                   01Y
01140041057000011   CTYSANDCity of Sandy Oaks Proposition 4                        UNDER VOTES                                                                                  01Y
