00970014087000158NONCTYSCHZCity of Schertz Mayor                                   Michael R. Carpenter                                                                         01 
00970014126000073NONCTYSCHZCity of Schertz Mayor                                   Michael R. Carpenter                                                                         01 
00970014127000001NONCTYSCHZCity of Schertz Mayor                                   Michael R. Carpenter                                                                         01 
00970024087000067NONCTYSCHZCity of Schertz Mayor                                   Steve White                                                                                  01 
00970024126000028NONCTYSCHZCity of Schertz Mayor                                   Steve White                                                                                  01 
00970024127000001NONCTYSCHZCity of Schertz Mayor                                   Steve White                                                                                  01 
00970034087000000   CTYSCHZCity of Schertz Mayor                                   OVER VOTES                                                                                   01 
00970034126000000   CTYSCHZCity of Schertz Mayor                                   OVER VOTES                                                                                   01 
00970034127000000   CTYSCHZCity of Schertz Mayor                                   OVER VOTES                                                                                   01 
00970044087000068   CTYSCHZCity of Schertz Mayor                                   UNDER VOTES                                                                                  01 
00970044126000031   CTYSCHZCity of Schertz Mayor                                   UNDER VOTES                                                                                  01 
00970044127000002   CTYSCHZCity of Schertz Mayor                                   UNDER VOTES                                                                                  01 
00980014087000122NONCTYSCHZCity of Schertz Council Member, Place 1                 Jim Fowler                                                                                   01 
00980014126000068NONCTYSCHZCity of Schertz Council Member, Place 1                 Jim Fowler                                                                                   01 
00980014127000001NONCTYSCHZCity of Schertz Council Member, Place 1                 Jim Fowler                                                                                   01 
00980024087000083NONCTYSCHZCity of Schertz Council Member, Place 1                 Bert Crawford                                                                                01 
00980024126000027NONCTYSCHZCity of Schertz Council Member, Place 1                 Bert Crawford                                                                                01 
00980024127000001NONCTYSCHZCity of Schertz Council Member, Place 1                 Bert Crawford                                                                                01 
00980034087000000   CTYSCHZCity of Schertz Council Member, Place 1                 OVER VOTES                                                                                   01 
00980034126000000   CTYSCHZCity of Schertz Council Member, Place 1                 OVER VOTES                                                                                   01 
00980034127000000   CTYSCHZCity of Schertz Council Member, Place 1                 OVER VOTES                                                                                   01 
00980044087000088   CTYSCHZCity of Schertz Council Member, Place 1                 UNDER VOTES                                                                                  01 
00980044126000037   CTYSCHZCity of Schertz Council Member, Place 1                 UNDER VOTES                                                                                  01 
00980044127000002   CTYSCHZCity of Schertz Council Member, Place 1                 UNDER VOTES                                                                                  01 
00990014087000080NONCTYSCHZCity of Schertz Council Member, Place 2                 Grumpy Azzoz                                                                                 01 
00990014126000044NONCTYSCHZCity of Schertz Council Member, Place 2                 Grumpy Azzoz                                                                                 01 
00990014127000000NONCTYSCHZCity of Schertz Council Member, Place 2                 Grumpy Azzoz                                                                                 01 
00990024087000122NONCTYSCHZCity of Schertz Council Member, Place 2                 David L. Scagliola                                                                           01 
00990024126000050NONCTYSCHZCity of Schertz Council Member, Place 2                 David L. Scagliola                                                                           01 
00990024127000002NONCTYSCHZCity of Schertz Council Member, Place 2                 David L. Scagliola                                                                           01 
00990034087000000   CTYSCHZCity of Schertz Council Member, Place 2                 OVER VOTES                                                                                   01 
00990034126000000   CTYSCHZCity of Schertz Council Member, Place 2                 OVER VOTES                                                                                   01 
00990034127000000   CTYSCHZCity of Schertz Council Member, Place 2                 OVER VOTES                                                                                   01 
00990044087000091   CTYSCHZCity of Schertz Council Member, Place 2                 UNDER VOTES                                                                                  01 
00990044126000038   CTYSCHZCity of Schertz Council Member, Place 2                 UNDER VOTES                                                                                  01 
00990044127000002   CTYSCHZCity of Schertz Council Member, Place 2                 UNDER VOTES                                                                                  01 
