00970014087000094NONCTYSCHZCity of Schertz Mayor                                   Michael R. Carpenter                                                                         01 
00970014126000046NONCTYSCHZCity of Schertz Mayor                                   Michael R. Carpenter                                                                         01 
00970014127000000NONCTYSCHZCity of Schertz Mayor                                   Michael R. Carpenter                                                                         01 
00970024087000040NONCTYSCHZCity of Schertz Mayor                                   Steve White                                                                                  01 
00970024126000017NONCTYSCHZCity of Schertz Mayor                                   Steve White                                                                                  01 
00970024127000000NONCTYSCHZCity of Schertz Mayor                                   Steve White                                                                                  01 
00970034087000000   CTYSCHZCity of Schertz Mayor                                   OVER VOTES                                                                                   01 
00970034126000000   CTYSCHZCity of Schertz Mayor                                   OVER VOTES                                                                                   01 
00970034127000000   CTYSCHZCity of Schertz Mayor                                   OVER VOTES                                                                                   01 
00970044087000035   CTYSCHZCity of Schertz Mayor                                   UNDER VOTES                                                                                  01 
00970044126000021   CTYSCHZCity of Schertz Mayor                                   UNDER VOTES                                                                                  01 
00970044127000002   CTYSCHZCity of Schertz Mayor                                   UNDER VOTES                                                                                  01 
00980014087000072NONCTYSCHZCity of Schertz Council Member, Place 1                 Jim Fowler                                                                                   01 
00980014126000039NONCTYSCHZCity of Schertz Council Member, Place 1                 Jim Fowler                                                                                   01 
00980014127000000NONCTYSCHZCity of Schertz Council Member, Place 1                 Jim Fowler                                                                                   01 
00980024087000046NONCTYSCHZCity of Schertz Council Member, Place 1                 Bert Crawford                                                                                01 
00980024126000018NONCTYSCHZCity of Schertz Council Member, Place 1                 Bert Crawford                                                                                01 
00980024127000000NONCTYSCHZCity of Schertz Council Member, Place 1                 Bert Crawford                                                                                01 
00980034087000000   CTYSCHZCity of Schertz Council Member, Place 1                 OVER VOTES                                                                                   01 
00980034126000000   CTYSCHZCity of Schertz Council Member, Place 1                 OVER VOTES                                                                                   01 
00980034127000000   CTYSCHZCity of Schertz Council Member, Place 1                 OVER VOTES                                                                                   01 
00980044087000051   CTYSCHZCity of Schertz Council Member, Place 1                 UNDER VOTES                                                                                  01 
00980044126000027   CTYSCHZCity of Schertz Council Member, Place 1                 UNDER VOTES                                                                                  01 
00980044127000002   CTYSCHZCity of Schertz Council Member, Place 1                 UNDER VOTES                                                                                  01 
00990014087000048NONCTYSCHZCity of Schertz Council Member, Place 2                 Grumpy Azzoz                                                                                 01 
00990014126000027NONCTYSCHZCity of Schertz Council Member, Place 2                 Grumpy Azzoz                                                                                 01 
00990014127000000NONCTYSCHZCity of Schertz Council Member, Place 2                 Grumpy Azzoz                                                                                 01 
00990024087000070NONCTYSCHZCity of Schertz Council Member, Place 2                 David L. Scagliola                                                                           01 
00990024126000031NONCTYSCHZCity of Schertz Council Member, Place 2                 David L. Scagliola                                                                           01 
00990024127000000NONCTYSCHZCity of Schertz Council Member, Place 2                 David L. Scagliola                                                                           01 
00990034087000000   CTYSCHZCity of Schertz Council Member, Place 2                 OVER VOTES                                                                                   01 
00990034126000000   CTYSCHZCity of Schertz Council Member, Place 2                 OVER VOTES                                                                                   01 
00990034127000000   CTYSCHZCity of Schertz Council Member, Place 2                 OVER VOTES                                                                                   01 
00990044087000051   CTYSCHZCity of Schertz Council Member, Place 2                 UNDER VOTES                                                                                  01 
00990044126000026   CTYSCHZCity of Schertz Council Member, Place 2                 UNDER VOTES                                                                                  01 
00990044127000002   CTYSCHZCity of Schertz Council Member, Place 2                 UNDER VOTES                                                                                  01 
