01010010001001352          REGISTERED VOTERS - TOTAL                               REGISTERED VOTERS - TOTAL             1N - CENTER                                            00 
01010010002001678          REGISTERED VOTERS - TOTAL                               REGISTERED VOTERS - TOTAL             1SO - CENTER                                           00 
01010010003001629          REGISTERED VOTERS - TOTAL                               REGISTERED VOTERS - TOTAL             1SE - CENTER                                           00 
01010010004001220          REGISTERED VOTERS - TOTAL                               REGISTERED VOTERS - TOTAL             1SW - CENTER                                           00 
01010010005000386          REGISTERED VOTERS - TOTAL                               REGISTERED VOTERS - TOTAL             1W - CENTER                                            00 
01010010006000782          REGISTERED VOTERS - TOTAL                               REGISTERED VOTERS - TOTAL             2 - EXCELSIOR                                          00 
01010010007000283          REGISTERED VOTERS - TOTAL                               REGISTERED VOTERS - TOTAL             3 - SARDIS                                             00 
01010010008000761          REGISTERED VOTERS - TOTAL                               REGISTERED VOTERS - TOTAL             4 - HUXLEY                                             00 
01010010009001968          REGISTERED VOTERS - TOTAL                               REGISTERED VOTERS - TOTAL             5 - JOAQUIN                                            00 
01010010010000493          REGISTERED VOTERS - TOTAL                               REGISTERED VOTERS - TOTAL             6 - DREKA                                              00 
01010010011000785          REGISTERED VOTERS - TOTAL                               REGISTERED VOTERS - TOTAL             7 - SHELBYVILLE                                        00 
01010010012001122          REGISTERED VOTERS - TOTAL                               REGISTERED VOTERS - TOTAL             8 - TENAHA                                             00 
01010010013001135          REGISTERED VOTERS - TOTAL                               REGISTERED VOTERS - TOTAL             9N - TIMPSON                                           00 
01010010014000979          REGISTERED VOTERS - TOTAL                               REGISTERED VOTERS - TOTAL             9S - TIMPSON                                           00 
01010010015000000          REGISTERED VOTERS - TOTAL                               REGISTERED VOTERS - TOTAL             CITY OF CENTER                                         00 
01010010016000000          REGISTERED VOTERS - TOTAL                               REGISTERED VOTERS - TOTAL             CENTER ISD                                             00 
01020010001000575          BALLOTS CAST - TOTAL                                    BALLOTS CAST - TOTAL                  1N - CENTER                                            00 
01020010002000721          BALLOTS CAST - TOTAL                                    BALLOTS CAST - TOTAL                  1SO - CENTER                                           00 
01020010003000481          BALLOTS CAST - TOTAL                                    BALLOTS CAST - TOTAL                  1SE - CENTER                                           00 
01020010004000545          BALLOTS CAST - TOTAL                                    BALLOTS CAST - TOTAL                  1SW - CENTER                                           00 
01020010005000165          BALLOTS CAST - TOTAL                                    BALLOTS CAST - TOTAL                  1W - CENTER                                            00 
01020010006000324          BALLOTS CAST - TOTAL                                    BALLOTS CAST - TOTAL                  2 - EXCELSIOR                                          00 
01020010007000116          BALLOTS CAST - TOTAL                                    BALLOTS CAST - TOTAL                  3 - SARDIS                                             00 
01020010008000316          BALLOTS CAST - TOTAL                                    BALLOTS CAST - TOTAL                  4 - HUXLEY                                             00 
01020010009000621          BALLOTS CAST - TOTAL                                    BALLOTS CAST - TOTAL                  5 - JOAQUIN                                            00 
01020010010000272          BALLOTS CAST - TOTAL                                    BALLOTS CAST - TOTAL                  6 - DREKA                                              00 
01020010011000370          BALLOTS CAST - TOTAL                                    BALLOTS CAST - TOTAL                  7 - SHELBYVILLE                                        00 
01020010012000310          BALLOTS CAST - TOTAL                                    BALLOTS CAST - TOTAL                  8 - TENAHA                                             00 
01020010013000424          BALLOTS CAST - TOTAL                                    BALLOTS CAST - TOTAL                  9N - TIMPSON                                           00 
01020010014000387          BALLOTS CAST - TOTAL                                    BALLOTS CAST - TOTAL                  9S - TIMPSON                                           00 
01020010015000192          BALLOTS CAST - TOTAL                                    BALLOTS CAST - TOTAL                  CITY OF CENTER                                         00 
01020010016002396          BALLOTS CAST - TOTAL                                    BALLOTS CAST - TOTAL                  CENTER ISD                                             00 
01030010001000147REP       Straight Party                                          REPUBLICAN PARTY                      1N - CENTER                                            01 
01030010002000175REP       Straight Party                                          REPUBLICAN PARTY                      1SO - CENTER                                           01 
01030010003000066REP       Straight Party                                          REPUBLICAN PARTY                      1SE - CENTER                                           01 
01030010004000150REP       Straight Party                                          REPUBLICAN PARTY                      1SW - CENTER                                           01 
01030010005000045REP       Straight Party                                          REPUBLICAN PARTY                      1W - CENTER                                            01 
01030010006000094REP       Straight Party                                          REPUBLICAN PARTY                      2 - EXCELSIOR                                          01 
01030010007000034REP       Straight Party                                          REPUBLICAN PARTY                      3 - SARDIS                                             01 
01030010008000074REP       Straight Party                                          REPUBLICAN PARTY                      4 - HUXLEY                                             01 
01030010009000247REP       Straight Party                                          REPUBLICAN PARTY                      5 - JOAQUIN                                            01 
01030010010000069REP       Straight Party                                          REPUBLICAN PARTY                      6 - DREKA                                              01 
01030010011000056REP       Straight Party                                          REPUBLICAN PARTY                      7 - SHELBYVILLE                                        01 
01030010012000106REP       Straight Party                                          REPUBLICAN PARTY                      8 - TENAHA                                             01 
01030010013000114REP       Straight Party                                          REPUBLICAN PARTY                      9N - TIMPSON                                           01 
01030010014000102REP       Straight Party                                          REPUBLICAN PARTY                      9S - TIMPSON                                           01 
01030020001000048DEM       Straight Party                                          DEMOCRATIC PARTY                      1N - CENTER                                            01 
01030020002000079DEM       Straight Party                                          DEMOCRATIC PARTY                      1SO - CENTER                                           01 
01030020003000188DEM       Straight Party                                          DEMOCRATIC PARTY                      1SE - CENTER                                           01 
01030020004000037DEM       Straight Party                                          DEMOCRATIC PARTY                      1SW - CENTER                                           01 
01030020005000011DEM       Straight Party                                          DEMOCRATIC PARTY                      1W - CENTER                                            01 
01030020006000010DEM       Straight Party                                          DEMOCRATIC PARTY                      2 - EXCELSIOR                                          01 
01030020007000005DEM       Straight Party                                          DEMOCRATIC PARTY                      3 - SARDIS                                             01 
01030020008000043DEM       Straight Party                                          DEMOCRATIC PARTY                      4 - HUXLEY                                             01 
01030020009000040DEM       Straight Party                                          DEMOCRATIC PARTY                      5 - JOAQUIN                                            01 
01030020010000011DEM       Straight Party                                          DEMOCRATIC PARTY                      6 - DREKA                                              01 
01030020011000063DEM       Straight Party                                          DEMOCRATIC PARTY                      7 - SHELBYVILLE                                        01 
01030020012000040DEM       Straight Party                                          DEMOCRATIC PARTY                      8 - TENAHA                                             01 
01030020013000041DEM       Straight Party                                          DEMOCRATIC PARTY                      9N - TIMPSON                                           01 
01030020014000032DEM       Straight Party                                          DEMOCRATIC PARTY                      9S - TIMPSON                                           01 
01030030001000000LIB       Straight Party                                          LIBERTARIAN PARTY                     1N - CENTER                                            01 
01030030002000003LIB       Straight Party                                          LIBERTARIAN PARTY                     1SO - CENTER                                           01 
01030030003000000LIB       Straight Party                                          LIBERTARIAN PARTY                     1SE - CENTER                                           01 
01030030004000001LIB       Straight Party                                          LIBERTARIAN PARTY                     1SW - CENTER                                           01 
01030030005000000LIB       Straight Party                                          LIBERTARIAN PARTY                     1W - CENTER                                            01 
01030030006000000LIB       Straight Party                                          LIBERTARIAN PARTY                     2 - EXCELSIOR                                          01 
01030030007000000LIB       Straight Party                                          LIBERTARIAN PARTY                     3 - SARDIS                                             01 
01030030008000000LIB       Straight Party                                          LIBERTARIAN PARTY                     4 - HUXLEY                                             01 
01030030009000003LIB       Straight Party                                          LIBERTARIAN PARTY                     5 - JOAQUIN                                            01 
01030030010000000LIB       Straight Party                                          LIBERTARIAN PARTY                     6 - DREKA                                              01 
01030030011000001LIB       Straight Party                                          LIBERTARIAN PARTY                     7 - SHELBYVILLE                                        01 
01030030012000001LIB       Straight Party                                          LIBERTARIAN PARTY                     8 - TENAHA                                             01 
01030030013000002LIB       Straight Party                                          LIBERTARIAN PARTY                     9N - TIMPSON                                           01 
01030030014000001LIB       Straight Party                                          LIBERTARIAN PARTY                     9S - TIMPSON                                           01 
01030040001000001GRN       Straight Party                                          GREEN PARTY                           1N - CENTER                                            01 
01030040002000002GRN       Straight Party                                          GREEN PARTY                           1SO - CENTER                                           01 
01030040003000002GRN       Straight Party                                          GREEN PARTY                           1SE - CENTER                                           01 
01030040004000000GRN       Straight Party                                          GREEN PARTY                           1SW - CENTER                                           01 
01030040005000000GRN       Straight Party                                          GREEN PARTY                           1W - CENTER                                            01 
01030040006000000GRN       Straight Party                                          GREEN PARTY                           2 - EXCELSIOR                                          01 
01030040007000000GRN       Straight Party                                          GREEN PARTY                           3 - SARDIS                                             01 
01030040008000000GRN       Straight Party                                          GREEN PARTY                           4 - HUXLEY                                             01 
01030040009000000GRN       Straight Party                                          GREEN PARTY                           5 - JOAQUIN                                            01 
01030040010000000GRN       Straight Party                                          GREEN PARTY                           6 - DREKA                                              01 
01030040011000001GRN       Straight Party                                          GREEN PARTY                           7 - SHELBYVILLE                                        01 
01030040012000001GRN       Straight Party                                          GREEN PARTY                           8 - TENAHA                                             01 
01030040013000001GRN       Straight Party                                          GREEN PARTY                           9N - TIMPSON                                           01 
01030040014000000GRN       Straight Party                                          GREEN PARTY                           9S - TIMPSON                                           01 
01030050001000001          Straight Party                                          OVER VOTES                            1N - CENTER                                            01 
01030050002000000          Straight Party                                          OVER VOTES                            1SO - CENTER                                           01 
01030050003000001          Straight Party                                          OVER VOTES                            1SE - CENTER                                           01 
01030050004000001          Straight Party                                          OVER VOTES                            1SW - CENTER                                           01 
01030050005000000          Straight Party                                          OVER VOTES                            1W - CENTER                                            01 
01030050006000001          Straight Party                                          OVER VOTES                            2 - EXCELSIOR                                          01 
01030050007000000          Straight Party                                          OVER VOTES                            3 - SARDIS                                             01 
01030050008000000          Straight Party                                          OVER VOTES                            4 - HUXLEY                                             01 
01030050009000000          Straight Party                                          OVER VOTES                            5 - JOAQUIN                                            01 
01030050010000000          Straight Party                                          OVER VOTES                            6 - DREKA                                              01 
01030050011000000          Straight Party                                          OVER VOTES                            7 - SHELBYVILLE                                        01 
01030050012000000          Straight Party                                          OVER VOTES                            8 - TENAHA                                             01 
01030050013000000          Straight Party                                          OVER VOTES                            9N - TIMPSON                                           01 
01030050014000002          Straight Party                                          OVER VOTES                            9S - TIMPSON                                           01 
01030060001000378          Straight Party                                          UNDER VOTES                           1N - CENTER                                            01 
01030060002000462          Straight Party                                          UNDER VOTES                           1SO - CENTER                                           01 
01030060003000224          Straight Party                                          UNDER VOTES                           1SE - CENTER                                           01 
01030060004000356          Straight Party                                          UNDER VOTES                           1SW - CENTER                                           01 
01030060005000109          Straight Party                                          UNDER VOTES                           1W - CENTER                                            01 
01030060006000219          Straight Party                                          UNDER VOTES                           2 - EXCELSIOR                                          01 
01030060007000077          Straight Party                                          UNDER VOTES                           3 - SARDIS                                             01 
01030060008000199          Straight Party                                          UNDER VOTES                           4 - HUXLEY                                             01 
01030060009000331          Straight Party                                          UNDER VOTES                           5 - JOAQUIN                                            01 
01030060010000192          Straight Party                                          UNDER VOTES                           6 - DREKA                                              01 
01030060011000249          Straight Party                                          UNDER VOTES                           7 - SHELBYVILLE                                        01 
01030060012000162          Straight Party                                          UNDER VOTES                           8 - TENAHA                                             01 
01030060013000266          Straight Party                                          UNDER VOTES                           9N - TIMPSON                                           01 
01030060014000250          Straight Party                                          UNDER VOTES                           9S - TIMPSON                                           01 
01040010001000461REP       United States Senator                                   John Cornyn                           1N - CENTER                                            01 
01040010002000564REP       United States Senator                                   John Cornyn                           1SO - CENTER                                           01 
01040010003000218REP       United States Senator                                   John Cornyn                           1SE - CENTER                                           01 
01040010004000448REP       United States Senator                                   John Cornyn                           1SW - CENTER                                           01 
01040010005000131REP       United States Senator                                   John Cornyn                           1W - CENTER                                            01 
01040010006000272REP       United States Senator                                   John Cornyn                           2 - EXCELSIOR                                          01 
01040010007000099REP       United States Senator                                   John Cornyn                           3 - SARDIS                                             01 
01040010008000235REP       United States Senator                                   John Cornyn                           4 - HUXLEY                                             01 
01040010009000537REP       United States Senator                                   John Cornyn                           5 - JOAQUIN                                            01 
01040010010000216REP       United States Senator                                   John Cornyn                           6 - DREKA                                              01 
01040010011000232REP       United States Senator                                   John Cornyn                           7 - SHELBYVILLE                                        01 
01040010012000231REP       United States Senator                                   John Cornyn                           8 - TENAHA                                             01 
01040010013000343REP       United States Senator                                   John Cornyn                           9N - TIMPSON                                           01 
01040010014000306REP       United States Senator                                   John Cornyn                           9S - TIMPSON                                           01 
01040020001000082DEM       United States Senator                                   David M. Alameel                      1N - CENTER                                            01 
01040020002000111DEM       United States Senator                                   David M. Alameel                      1SO - CENTER                                           01 
01040020003000236DEM       United States Senator                                   David M. Alameel                      1SE - CENTER                                           01 
01040020004000070DEM       United States Senator                                   David M. Alameel                      1SW - CENTER                                           01 
01040020005000020DEM       United States Senator                                   David M. Alameel                      1W - CENTER                                            01 
01040020006000029DEM       United States Senator                                   David M. Alameel                      2 - EXCELSIOR                                          01 
01040020007000007DEM       United States Senator                                   David M. Alameel                      3 - SARDIS                                             01 
01040020008000066DEM       United States Senator                                   David M. Alameel                      4 - HUXLEY                                             01 
01040020009000066DEM       United States Senator                                   David M. Alameel                      5 - JOAQUIN                                            01 
01040020010000030DEM       United States Senator                                   David M. Alameel                      6 - DREKA                                              01 
01040020011000096DEM       United States Senator                                   David M. Alameel                      7 - SHELBYVILLE                                        01 
01040020012000064DEM       United States Senator                                   David M. Alameel                      8 - TENAHA                                             01 
01040020013000061DEM       United States Senator                                   David M. Alameel                      9N - TIMPSON                                           01 
01040020014000059DEM       United States Senator                                   David M. Alameel                      9S - TIMPSON                                           01 
01040030001000010LIB       United States Senator                                   Rebecca Paddock                       1N - CENTER                                            01 
01040030002000014LIB       United States Senator                                   Rebecca Paddock                       1SO - CENTER                                           01 
01040030003000004LIB       United States Senator                                   Rebecca Paddock                       1SE - CENTER                                           01 
01040030004000011LIB       United States Senator                                   Rebecca Paddock                       1SW - CENTER                                           01 
01040030005000004LIB       United States Senator                                   Rebecca Paddock                       1W - CENTER                                            01 
01040030006000007LIB       United States Senator                                   Rebecca Paddock                       2 - EXCELSIOR                                          01 
01040030007000000LIB       United States Senator                                   Rebecca Paddock                       3 - SARDIS                                             01 
01040030008000003LIB       United States Senator                                   Rebecca Paddock                       4 - HUXLEY                                             01 
01040030009000005LIB       United States Senator                                   Rebecca Paddock                       5 - JOAQUIN                                            01 
01040030010000007LIB       United States Senator                                   Rebecca Paddock                       6 - DREKA                                              01 
01040030011000012LIB       United States Senator                                   Rebecca Paddock                       7 - SHELBYVILLE                                        01 
01040030012000004LIB       United States Senator                                   Rebecca Paddock                       8 - TENAHA                                             01 
01040030013000007LIB       United States Senator                                   Rebecca Paddock                       9N - TIMPSON                                           01 
01040030014000006LIB       United States Senator                                   Rebecca Paddock                       9S - TIMPSON                                           01 
01040040001000004GRN       United States Senator                                   Emily "Spicybrown" Sanchez            1N - CENTER                                            01 
01040040002000008GRN       United States Senator                                   Emily "Spicybrown" Sanchez            1SO - CENTER                                           01 
01040040003000004GRN       United States Senator                                   Emily "Spicybrown" Sanchez            1SE - CENTER                                           01 
01040040004000000GRN       United States Senator                                   Emily "Spicybrown" Sanchez            1SW - CENTER                                           01 
01040040005000000GRN       United States Senator                                   Emily "Spicybrown" Sanchez            1W - CENTER                                            01 
01040040006000002GRN       United States Senator                                   Emily "Spicybrown" Sanchez            2 - EXCELSIOR                                          01 
01040040007000003GRN       United States Senator                                   Emily "Spicybrown" Sanchez            3 - SARDIS                                             01 
01040040008000001GRN       United States Senator                                   Emily "Spicybrown" Sanchez            4 - HUXLEY                                             01 
01040040009000003GRN       United States Senator                                   Emily "Spicybrown" Sanchez            5 - JOAQUIN                                            01 
01040040010000003GRN       United States Senator                                   Emily "Spicybrown" Sanchez            6 - DREKA                                              01 
01040040011000001GRN       United States Senator                                   Emily "Spicybrown" Sanchez            7 - SHELBYVILLE                                        01 
01040040012000003GRN       United States Senator                                   Emily "Spicybrown" Sanchez            8 - TENAHA                                             01 
01040040013000000GRN       United States Senator                                   Emily "Spicybrown" Sanchez            9N - TIMPSON                                           01 
01040040014000000GRN       United States Senator                                   Emily "Spicybrown" Sanchez            9S - TIMPSON                                           01 
01040050001000000NON       United States Senator                                   WRITE-IN                              1N - CENTER                                            01 
01040050002000000NON       United States Senator                                   WRITE-IN                              1SO - CENTER                                           01 
01040050003000000NON       United States Senator                                   WRITE-IN                              1SE - CENTER                                           01 
01040050004000000NON       United States Senator                                   WRITE-IN                              1SW - CENTER                                           01 
01040050005000000NON       United States Senator                                   WRITE-IN                              1W - CENTER                                            01 
01040050006000000NON       United States Senator                                   WRITE-IN                              2 - EXCELSIOR                                          01 
01040050007000000NON       United States Senator                                   WRITE-IN                              3 - SARDIS                                             01 
01040050008000000NON       United States Senator                                   WRITE-IN                              4 - HUXLEY                                             01 
01040050009000001NON       United States Senator                                   WRITE-IN                              5 - JOAQUIN                                            01 
01040050010000000NON       United States Senator                                   WRITE-IN                              6 - DREKA                                              01 
01040050011000000NON       United States Senator                                   WRITE-IN                              7 - SHELBYVILLE                                        01 
01040050012000001NON       United States Senator                                   WRITE-IN                              8 - TENAHA                                             01 
01040050013000000NON       United States Senator                                   WRITE-IN                              9N - TIMPSON                                           01 
01040050014000000NON       United States Senator                                   WRITE-IN                              9S - TIMPSON                                           01 
01040060001000000          United States Senator                                   OVER VOTES                            1N - CENTER                                            01 
01040060002000000          United States Senator                                   OVER VOTES                            1SO - CENTER                                           01 
01040060003000001          United States Senator                                   OVER VOTES                            1SE - CENTER                                           01 
01040060004000000          United States Senator                                   OVER VOTES                            1SW - CENTER                                           01 
01040060005000000          United States Senator                                   OVER VOTES                            1W - CENTER                                            01 
01040060006000000          United States Senator                                   OVER VOTES                            2 - EXCELSIOR                                          01 
01040060007000000          United States Senator                                   OVER VOTES                            3 - SARDIS                                             01 
01040060008000000          United States Senator                                   OVER VOTES                            4 - HUXLEY                                             01 
01040060009000000          United States Senator                                   OVER VOTES                            5 - JOAQUIN                                            01 
01040060010000000          United States Senator                                   OVER VOTES                            6 - DREKA                                              01 
01040060011000000          United States Senator                                   OVER VOTES                            7 - SHELBYVILLE                                        01 
01040060012000000          United States Senator                                   OVER VOTES                            8 - TENAHA                                             01 
01040060013000000          United States Senator                                   OVER VOTES                            9N - TIMPSON                                           01 
01040060014000000          United States Senator                                   OVER VOTES                            9S - TIMPSON                                           01 
01040070001000018          United States Senator                                   UNDER VOTES                           1N - CENTER                                            01 
01040070002000024          United States Senator                                   UNDER VOTES                           1SO - CENTER                                           01 
01040070003000018          United States Senator                                   UNDER VOTES                           1SE - CENTER                                           01 
01040070004000016          United States Senator                                   UNDER VOTES                           1SW - CENTER                                           01 
01040070005000010          United States Senator                                   UNDER VOTES                           1W - CENTER                                            01 
01040070006000014          United States Senator                                   UNDER VOTES                           2 - EXCELSIOR                                          01 
01040070007000007          United States Senator                                   UNDER VOTES                           3 - SARDIS                                             01 
01040070008000011          United States Senator                                   UNDER VOTES                           4 - HUXLEY                                             01 
01040070009000009          United States Senator                                   UNDER VOTES                           5 - JOAQUIN                                            01 
01040070010000016          United States Senator                                   UNDER VOTES                           6 - DREKA                                              01 
01040070011000029          United States Senator                                   UNDER VOTES                           7 - SHELBYVILLE                                        01 
01040070012000007          United States Senator                                   UNDER VOTES                           8 - TENAHA                                             01 
01040070013000013          United States Senator                                   UNDER VOTES                           9N - TIMPSON                                           01 
01040070014000016          United States Senator                                   UNDER VOTES                           9S - TIMPSON                                           01 
01050010001000469REP       United States Representative, District 1                Louie Gohmert                         1N - CENTER                                            01 
01050010002000574REP       United States Representative, District 1                Louie Gohmert                         1SO - CENTER                                           01 
01050010003000209REP       United States Representative, District 1                Louie Gohmert                         1SE - CENTER                                           01 
01050010004000456REP       United States Representative, District 1                Louie Gohmert                         1SW - CENTER                                           01 
01050010005000134REP       United States Representative, District 1                Louie Gohmert                         1W - CENTER                                            01 
01050010006000283REP       United States Representative, District 1                Louie Gohmert                         2 - EXCELSIOR                                          01 
01050010007000103REP       United States Representative, District 1                Louie Gohmert                         3 - SARDIS                                             01 
01050010008000243REP       United States Representative, District 1                Louie Gohmert                         4 - HUXLEY                                             01 
01050010009000539REP       United States Representative, District 1                Louie Gohmert                         5 - JOAQUIN                                            01 
01050010010000227REP       United States Representative, District 1                Louie Gohmert                         6 - DREKA                                              01 
01050010011000242REP       United States Representative, District 1                Louie Gohmert                         7 - SHELBYVILLE                                        01 
01050010012000232REP       United States Representative, District 1                Louie Gohmert                         8 - TENAHA                                             01 
01050010013000347REP       United States Representative, District 1                Louie Gohmert                         9N - TIMPSON                                           01 
01050010014000301REP       United States Representative, District 1                Louie Gohmert                         9S - TIMPSON                                           01 
01050020001000089DEM       United States Representative, District 1                Shirley J. McKellar                   1N - CENTER                                            01 
01050020002000124DEM       United States Representative, District 1                Shirley J. McKellar                   1SO - CENTER                                           01 
01050020003000252DEM       United States Representative, District 1                Shirley J. McKellar                   1SE - CENTER                                           01 
01050020004000077DEM       United States Representative, District 1                Shirley J. McKellar                   1SW - CENTER                                           01 
01050020005000025DEM       United States Representative, District 1                Shirley J. McKellar                   1W - CENTER                                            01 
01050020006000031DEM       United States Representative, District 1                Shirley J. McKellar                   2 - EXCELSIOR                                          01 
01050020007000008DEM       United States Representative, District 1                Shirley J. McKellar                   3 - SARDIS                                             01 
01050020008000064DEM       United States Representative, District 1                Shirley J. McKellar                   4 - HUXLEY                                             01 
01050020009000075DEM       United States Representative, District 1                Shirley J. McKellar                   5 - JOAQUIN                                            01 
01050020010000034DEM       United States Representative, District 1                Shirley J. McKellar                   6 - DREKA                                              01 
01050020011000102DEM       United States Representative, District 1                Shirley J. McKellar                   7 - SHELBYVILLE                                        01 
01050020012000070DEM       United States Representative, District 1                Shirley J. McKellar                   8 - TENAHA                                             01 
01050020013000068DEM       United States Representative, District 1                Shirley J. McKellar                   9N - TIMPSON                                           01 
01050020014000069DEM       United States Representative, District 1                Shirley J. McKellar                   9S - TIMPSON                                           01 
01050030001000000          United States Representative, District 1                OVER VOTES                            1N - CENTER                                            01 
01050030002000000          United States Representative, District 1                OVER VOTES                            1SO - CENTER                                           01 
01050030003000001          United States Representative, District 1                OVER VOTES                            1SE - CENTER                                           01 
01050030004000000          United States Representative, District 1                OVER VOTES                            1SW - CENTER                                           01 
01050030005000000          United States Representative, District 1                OVER VOTES                            1W - CENTER                                            01 
01050030006000000          United States Representative, District 1                OVER VOTES                            2 - EXCELSIOR                                          01 
01050030007000000          United States Representative, District 1                OVER VOTES                            3 - SARDIS                                             01 
01050030008000000          United States Representative, District 1                OVER VOTES                            4 - HUXLEY                                             01 
01050030009000000          United States Representative, District 1                OVER VOTES                            5 - JOAQUIN                                            01 
01050030010000000          United States Representative, District 1                OVER VOTES                            6 - DREKA                                              01 
01050030011000000          United States Representative, District 1                OVER VOTES                            7 - SHELBYVILLE                                        01 
01050030012000000          United States Representative, District 1                OVER VOTES                            8 - TENAHA                                             01 
01050030013000000          United States Representative, District 1                OVER VOTES                            9N - TIMPSON                                           01 
01050030014000000          United States Representative, District 1                OVER VOTES                            9S - TIMPSON                                           01 
01050040001000017          United States Representative, District 1                UNDER VOTES                           1N - CENTER                                            01 
01050040002000023          United States Representative, District 1                UNDER VOTES                           1SO - CENTER                                           01 
01050040003000019          United States Representative, District 1                UNDER VOTES                           1SE - CENTER                                           01 
01050040004000012          United States Representative, District 1                UNDER VOTES                           1SW - CENTER                                           01 
01050040005000006          United States Representative, District 1                UNDER VOTES                           1W - CENTER                                            01 
01050040006000010          United States Representative, District 1                UNDER VOTES                           2 - EXCELSIOR                                          01 
01050040007000005          United States Representative, District 1                UNDER VOTES                           3 - SARDIS                                             01 
01050040008000009          United States Representative, District 1                UNDER VOTES                           4 - HUXLEY                                             01 
01050040009000007          United States Representative, District 1                UNDER VOTES                           5 - JOAQUIN                                            01 
01050040010000011          United States Representative, District 1                UNDER VOTES                           6 - DREKA                                              01 
01050040011000026          United States Representative, District 1                UNDER VOTES                           7 - SHELBYVILLE                                        01 
01050040012000008          United States Representative, District 1                UNDER VOTES                           8 - TENAHA                                             01 
01050040013000009          United States Representative, District 1                UNDER VOTES                           9N - TIMPSON                                           01 
01050040014000017          United States Representative, District 1                UNDER VOTES                           9S - TIMPSON                                           01 
01060010001000460REP       Governor                                                Greg Abbott                           1N - CENTER                                            01 
01060010002000555REP       Governor                                                Greg Abbott                           1SO - CENTER                                           01 
01060010003000216REP       Governor                                                Greg Abbott                           1SE - CENTER                                           01 
01060010004000457REP       Governor                                                Greg Abbott                           1SW - CENTER                                           01 
01060010005000134REP       Governor                                                Greg Abbott                           1W - CENTER                                            01 
01060010006000278REP       Governor                                                Greg Abbott                           2 - EXCELSIOR                                          01 
01060010007000103REP       Governor                                                Greg Abbott                           3 - SARDIS                                             01 
01060010008000242REP       Governor                                                Greg Abbott                           4 - HUXLEY                                             01 
01060010009000535REP       Governor                                                Greg Abbott                           5 - JOAQUIN                                            01 
01060010010000224REP       Governor                                                Greg Abbott                           6 - DREKA                                              01 
01060010011000246REP       Governor                                                Greg Abbott                           7 - SHELBYVILLE                                        01 
01060010012000231REP       Governor                                                Greg Abbott                           8 - TENAHA                                             01 
01060010013000338REP       Governor                                                Greg Abbott                           9N - TIMPSON                                           01 
01060010014000311REP       Governor                                                Greg Abbott                           9S - TIMPSON                                           01 
01060020001000100DEM       Governor                                                Wendy R. Davis                        1N - CENTER                                            01 
01060020002000136DEM       Governor                                                Wendy R. Davis                        1SO - CENTER                                           01 
01060020003000248DEM       Governor                                                Wendy R. Davis                        1SE - CENTER                                           01 
01060020004000078DEM       Governor                                                Wendy R. Davis                        1SW - CENTER                                           01 
01060020005000025DEM       Governor                                                Wendy R. Davis                        1W - CENTER                                            01 
01060020006000031DEM       Governor                                                Wendy R. Davis                        2 - EXCELSIOR                                          01 
01060020007000008DEM       Governor                                                Wendy R. Davis                        3 - SARDIS                                             01 
01060020008000069DEM       Governor                                                Wendy R. Davis                        4 - HUXLEY                                             01 
01060020009000079DEM       Governor                                                Wendy R. Davis                        5 - JOAQUIN                                            01 
01060020010000036DEM       Governor                                                Wendy R. Davis                        6 - DREKA                                              01 
01060020011000098DEM       Governor                                                Wendy R. Davis                        7 - SHELBYVILLE                                        01 
01060020012000072DEM       Governor                                                Wendy R. Davis                        8 - TENAHA                                             01 
01060020013000073DEM       Governor                                                Wendy R. Davis                        9N - TIMPSON                                           01 
01060020014000063DEM       Governor                                                Wendy R. Davis                        9S - TIMPSON                                           01 
01060030001000003LIB       Governor                                                Kathie Glass                          1N - CENTER                                            01 
01060030002000006LIB       Governor                                                Kathie Glass                          1SO - CENTER                                           01 
01060030003000002LIB       Governor                                                Kathie Glass                          1SE - CENTER                                           01 
01060030004000003LIB       Governor                                                Kathie Glass                          1SW - CENTER                                           01 
01060030005000002LIB       Governor                                                Kathie Glass                          1W - CENTER                                            01 
01060030006000004LIB       Governor                                                Kathie Glass                          2 - EXCELSIOR                                          01 
01060030007000002LIB       Governor                                                Kathie Glass                          3 - SARDIS                                             01 
01060030008000000LIB       Governor                                                Kathie Glass                          4 - HUXLEY                                             01 
01060030009000002LIB       Governor                                                Kathie Glass                          5 - JOAQUIN                                            01 
01060030010000002LIB       Governor                                                Kathie Glass                          6 - DREKA                                              01 
01060030011000009LIB       Governor                                                Kathie Glass                          7 - SHELBYVILLE                                        01 
01060030012000003LIB       Governor                                                Kathie Glass                          8 - TENAHA                                             01 
01060030013000004LIB       Governor                                                Kathie Glass                          9N - TIMPSON                                           01 
01060030014000002LIB       Governor                                                Kathie Glass                          9S - TIMPSON                                           01 
01060040001000001GRN       Governor                                                Brandon Parmer                        1N - CENTER                                            01 
01060040002000004GRN       Governor                                                Brandon Parmer                        1SO - CENTER                                           01 
01060040003000000GRN       Governor                                                Brandon Parmer                        1SE - CENTER                                           01 
01060040004000000GRN       Governor                                                Brandon Parmer                        1SW - CENTER                                           01 
01060040005000001GRN       Governor                                                Brandon Parmer                        1W - CENTER                                            01 
01060040006000000GRN       Governor                                                Brandon Parmer                        2 - EXCELSIOR                                          01 
01060040007000000GRN       Governor                                                Brandon Parmer                        3 - SARDIS                                             01 
01060040008000001GRN       Governor                                                Brandon Parmer                        4 - HUXLEY                                             01 
01060040009000000GRN       Governor                                                Brandon Parmer                        5 - JOAQUIN                                            01 
01060040010000000GRN       Governor                                                Brandon Parmer                        6 - DREKA                                              01 
01060040011000002GRN       Governor                                                Brandon Parmer                        7 - SHELBYVILLE                                        01 
01060040012000002GRN       Governor                                                Brandon Parmer                        8 - TENAHA                                             01 
01060040013000001GRN       Governor                                                Brandon Parmer                        9N - TIMPSON                                           01 
01060040014000000GRN       Governor                                                Brandon Parmer                        9S - TIMPSON                                           01 
01060050001000001NON       Governor                                                WRITE-IN                              1N - CENTER                                            01 
01060050002000000NON       Governor                                                WRITE-IN                              1SO - CENTER                                           01 
01060050003000000NON       Governor                                                WRITE-IN                              1SE - CENTER                                           01 
01060050004000000NON       Governor                                                WRITE-IN                              1SW - CENTER                                           01 
01060050005000000NON       Governor                                                WRITE-IN                              1W - CENTER                                            01 
01060050006000000NON       Governor                                                WRITE-IN                              2 - EXCELSIOR                                          01 
01060050007000000NON       Governor                                                WRITE-IN                              3 - SARDIS                                             01 
01060050008000000NON       Governor                                                WRITE-IN                              4 - HUXLEY                                             01 
01060050009000000NON       Governor                                                WRITE-IN                              5 - JOAQUIN                                            01 
01060050010000000NON       Governor                                                WRITE-IN                              6 - DREKA                                              01 
01060050011000000NON       Governor                                                WRITE-IN                              7 - SHELBYVILLE                                        01 
01060050012000001NON       Governor                                                WRITE-IN                              8 - TENAHA                                             01 
01060050013000000NON       Governor                                                WRITE-IN                              9N - TIMPSON                                           01 
01060050014000000NON       Governor                                                WRITE-IN                              9S - TIMPSON                                           01 
01060060001000000          Governor                                                OVER VOTES                            1N - CENTER                                            01 
01060060002000000          Governor                                                OVER VOTES                            1SO - CENTER                                           01 
01060060003000001          Governor                                                OVER VOTES                            1SE - CENTER                                           01 
01060060004000000          Governor                                                OVER VOTES                            1SW - CENTER                                           01 
01060060005000000          Governor                                                OVER VOTES                            1W - CENTER                                            01 
01060060006000000          Governor                                                OVER VOTES                            2 - EXCELSIOR                                          01 
01060060007000000          Governor                                                OVER VOTES                            3 - SARDIS                                             01 
01060060008000000          Governor                                                OVER VOTES                            4 - HUXLEY                                             01 
01060060009000000          Governor                                                OVER VOTES                            5 - JOAQUIN                                            01 
01060060010000000          Governor                                                OVER VOTES                            6 - DREKA                                              01 
01060060011000000          Governor                                                OVER VOTES                            7 - SHELBYVILLE                                        01 
01060060012000000          Governor                                                OVER VOTES                            8 - TENAHA                                             01 
01060060013000000          Governor                                                OVER VOTES                            9N - TIMPSON                                           01 
01060060014000000          Governor                                                OVER VOTES                            9S - TIMPSON                                           01 
01060070001000010          Governor                                                UNDER VOTES                           1N - CENTER                                            01 
01060070002000020          Governor                                                UNDER VOTES                           1SO - CENTER                                           01 
01060070003000014          Governor                                                UNDER VOTES                           1SE - CENTER                                           01 
01060070004000007          Governor                                                UNDER VOTES                           1SW - CENTER                                           01 
01060070005000003          Governor                                                UNDER VOTES                           1W - CENTER                                            01 
01060070006000011          Governor                                                UNDER VOTES                           2 - EXCELSIOR                                          01 
01060070007000003          Governor                                                UNDER VOTES                           3 - SARDIS                                             01 
01060070008000004          Governor                                                UNDER VOTES                           4 - HUXLEY                                             01 
01060070009000005          Governor                                                UNDER VOTES                           5 - JOAQUIN                                            01 
01060070010000010          Governor                                                UNDER VOTES                           6 - DREKA                                              01 
01060070011000015          Governor                                                UNDER VOTES                           7 - SHELBYVILLE                                        01 
01060070012000002          Governor                                                UNDER VOTES                           8 - TENAHA                                             01 
01060070013000008          Governor                                                UNDER VOTES                           9N - TIMPSON                                           01 
01060070014000011          Governor                                                UNDER VOTES                           9S - TIMPSON                                           01 
01070010001000455REP       Lieutenant Governor                                     Dan Patrick                           1N - CENTER                                            01 
01070010002000552REP       Lieutenant Governor                                     Dan Patrick                           1SO - CENTER                                           01 
01070010003000203REP       Lieutenant Governor                                     Dan Patrick                           1SE - CENTER                                           01 
01070010004000442REP       Lieutenant Governor                                     Dan Patrick                           1SW - CENTER                                           01 
01070010005000128REP       Lieutenant Governor                                     Dan Patrick                           1W - CENTER                                            01 
01070010006000266REP       Lieutenant Governor                                     Dan Patrick                           2 - EXCELSIOR                                          01 
01070010007000099REP       Lieutenant Governor                                     Dan Patrick                           3 - SARDIS                                             01 
01070010008000239REP       Lieutenant Governor                                     Dan Patrick                           4 - HUXLEY                                             01 
01070010009000526REP       Lieutenant Governor                                     Dan Patrick                           5 - JOAQUIN                                            01 
01070010010000216REP       Lieutenant Governor                                     Dan Patrick                           6 - DREKA                                              01 
01070010011000238REP       Lieutenant Governor                                     Dan Patrick                           7 - SHELBYVILLE                                        01 
01070010012000234REP       Lieutenant Governor                                     Dan Patrick                           8 - TENAHA                                             01 
01070010013000335REP       Lieutenant Governor                                     Dan Patrick                           9N - TIMPSON                                           01 
01070010014000293REP       Lieutenant Governor                                     Dan Patrick                           9S - TIMPSON                                           01 
01070020001000092DEM       Lieutenant Governor                                     Leticia Van de Putte                  1N - CENTER                                            01 
01070020002000119DEM       Lieutenant Governor                                     Leticia Van de Putte                  1SO - CENTER                                           01 
01070020003000246DEM       Lieutenant Governor                                     Leticia Van de Putte                  1SE - CENTER                                           01 
01070020004000074DEM       Lieutenant Governor                                     Leticia Van de Putte                  1SW - CENTER                                           01 
01070020005000024DEM       Lieutenant Governor                                     Leticia Van de Putte                  1W - CENTER                                            01 
01070020006000033DEM       Lieutenant Governor                                     Leticia Van de Putte                  2 - EXCELSIOR                                          01 
01070020007000008DEM       Lieutenant Governor                                     Leticia Van de Putte                  3 - SARDIS                                             01 
01070020008000064DEM       Lieutenant Governor                                     Leticia Van de Putte                  4 - HUXLEY                                             01 
01070020009000079DEM       Lieutenant Governor                                     Leticia Van de Putte                  5 - JOAQUIN                                            01 
01070020010000028DEM       Lieutenant Governor                                     Leticia Van de Putte                  6 - DREKA                                              01 
01070020011000097DEM       Lieutenant Governor                                     Leticia Van de Putte                  7 - SHELBYVILLE                                        01 
01070020012000062DEM       Lieutenant Governor                                     Leticia Van de Putte                  8 - TENAHA                                             01 
01070020013000069DEM       Lieutenant Governor                                     Leticia Van de Putte                  9N - TIMPSON                                           01 
01070020014000063DEM       Lieutenant Governor                                     Leticia Van de Putte                  9S - TIMPSON                                           01 
01070030001000006LIB       Lieutenant Governor                                     Robert D. Butler                      1N - CENTER                                            01 
01070030002000013LIB       Lieutenant Governor                                     Robert D. Butler                      1SO - CENTER                                           01 
01070030003000006LIB       Lieutenant Governor                                     Robert D. Butler                      1SE - CENTER                                           01 
01070030004000012LIB       Lieutenant Governor                                     Robert D. Butler                      1SW - CENTER                                           01 
01070030005000003LIB       Lieutenant Governor                                     Robert D. Butler                      1W - CENTER                                            01 
01070030006000007LIB       Lieutenant Governor                                     Robert D. Butler                      2 - EXCELSIOR                                          01 
01070030007000001LIB       Lieutenant Governor                                     Robert D. Butler                      3 - SARDIS                                             01 
01070030008000002LIB       Lieutenant Governor                                     Robert D. Butler                      4 - HUXLEY                                             01 
01070030009000004LIB       Lieutenant Governor                                     Robert D. Butler                      5 - JOAQUIN                                            01 
01070030010000006LIB       Lieutenant Governor                                     Robert D. Butler                      6 - DREKA                                              01 
01070030011000007LIB       Lieutenant Governor                                     Robert D. Butler                      7 - SHELBYVILLE                                        01 
01070030012000006LIB       Lieutenant Governor                                     Robert D. Butler                      8 - TENAHA                                             01 
01070030013000009LIB       Lieutenant Governor                                     Robert D. Butler                      9N - TIMPSON                                           01 
01070030014000007LIB       Lieutenant Governor                                     Robert D. Butler                      9S - TIMPSON                                           01 
01070040001000001GRN       Lieutenant Governor                                     Chandrakantha Courtney                1N - CENTER                                            01 
01070040002000005GRN       Lieutenant Governor                                     Chandrakantha Courtney                1SO - CENTER                                           01 
01070040003000001GRN       Lieutenant Governor                                     Chandrakantha Courtney                1SE - CENTER                                           01 
01070040004000000GRN       Lieutenant Governor                                     Chandrakantha Courtney                1SW - CENTER                                           01 
01070040005000001GRN       Lieutenant Governor                                     Chandrakantha Courtney                1W - CENTER                                            01 
01070040006000000GRN       Lieutenant Governor                                     Chandrakantha Courtney                2 - EXCELSIOR                                          01 
01070040007000000GRN       Lieutenant Governor                                     Chandrakantha Courtney                3 - SARDIS                                             01 
01070040008000001GRN       Lieutenant Governor                                     Chandrakantha Courtney                4 - HUXLEY                                             01 
01070040009000002GRN       Lieutenant Governor                                     Chandrakantha Courtney                5 - JOAQUIN                                            01 
01070040010000001GRN       Lieutenant Governor                                     Chandrakantha Courtney                6 - DREKA                                              01 
01070040011000003GRN       Lieutenant Governor                                     Chandrakantha Courtney                7 - SHELBYVILLE                                        01 
01070040012000002GRN       Lieutenant Governor                                     Chandrakantha Courtney                8 - TENAHA                                             01 
01070040013000001GRN       Lieutenant Governor                                     Chandrakantha Courtney                9N - TIMPSON                                           01 
01070040014000000GRN       Lieutenant Governor                                     Chandrakantha Courtney                9S - TIMPSON                                           01 
01070050001000000          Lieutenant Governor                                     OVER VOTES                            1N - CENTER                                            01 
01070050002000001          Lieutenant Governor                                     OVER VOTES                            1SO - CENTER                                           01 
01070050003000001          Lieutenant Governor                                     OVER VOTES                            1SE - CENTER                                           01 
01070050004000000          Lieutenant Governor                                     OVER VOTES                            1SW - CENTER                                           01 
01070050005000000          Lieutenant Governor                                     OVER VOTES                            1W - CENTER                                            01 
01070050006000000          Lieutenant Governor                                     OVER VOTES                            2 - EXCELSIOR                                          01 
01070050007000000          Lieutenant Governor                                     OVER VOTES                            3 - SARDIS                                             01 
01070050008000000          Lieutenant Governor                                     OVER VOTES                            4 - HUXLEY                                             01 
01070050009000001          Lieutenant Governor                                     OVER VOTES                            5 - JOAQUIN                                            01 
01070050010000000          Lieutenant Governor                                     OVER VOTES                            6 - DREKA                                              01 
01070050011000000          Lieutenant Governor                                     OVER VOTES                            7 - SHELBYVILLE                                        01 
01070050012000000          Lieutenant Governor                                     OVER VOTES                            8 - TENAHA                                             01 
01070050013000000          Lieutenant Governor                                     OVER VOTES                            9N - TIMPSON                                           01 
01070050014000000          Lieutenant Governor                                     OVER VOTES                            9S - TIMPSON                                           01 
01070060001000021          Lieutenant Governor                                     UNDER VOTES                           1N - CENTER                                            01 
01070060002000031          Lieutenant Governor                                     UNDER VOTES                           1SO - CENTER                                           01 
01070060003000024          Lieutenant Governor                                     UNDER VOTES                           1SE - CENTER                                           01 
01070060004000017          Lieutenant Governor                                     UNDER VOTES                           1SW - CENTER                                           01 
01070060005000009          Lieutenant Governor                                     UNDER VOTES                           1W - CENTER                                            01 
01070060006000018          Lieutenant Governor                                     UNDER VOTES                           2 - EXCELSIOR                                          01 
01070060007000008          Lieutenant Governor                                     UNDER VOTES                           3 - SARDIS                                             01 
01070060008000010          Lieutenant Governor                                     UNDER VOTES                           4 - HUXLEY                                             01 
01070060009000009          Lieutenant Governor                                     UNDER VOTES                           5 - JOAQUIN                                            01 
01070060010000021          Lieutenant Governor                                     UNDER VOTES                           6 - DREKA                                              01 
01070060011000025          Lieutenant Governor                                     UNDER VOTES                           7 - SHELBYVILLE                                        01 
01070060012000006          Lieutenant Governor                                     UNDER VOTES                           8 - TENAHA                                             01 
01070060013000010          Lieutenant Governor                                     UNDER VOTES                           9N - TIMPSON                                           01 
01070060014000024          Lieutenant Governor                                     UNDER VOTES                           9S - TIMPSON                                           01 
01080010001000437REP       Attorney General                                        Ken Paxton                            1N - CENTER                                            01 
01080010002000522REP       Attorney General                                        Ken Paxton                            1SO - CENTER                                           01 
01080010003000194REP       Attorney General                                        Ken Paxton                            1SE - CENTER                                           01 
01080010004000420REP       Attorney General                                        Ken Paxton                            1SW - CENTER                                           01 
01080010005000121REP       Attorney General                                        Ken Paxton                            1W - CENTER                                            01 
01080010006000261REP       Attorney General                                        Ken Paxton                            2 - EXCELSIOR                                          01 
01080010007000095REP       Attorney General                                        Ken Paxton                            3 - SARDIS                                             01 
01080010008000220REP       Attorney General                                        Ken Paxton                            4 - HUXLEY                                             01 
01080010009000516REP       Attorney General                                        Ken Paxton                            5 - JOAQUIN                                            01 
01080010010000208REP       Attorney General                                        Ken Paxton                            6 - DREKA                                              01 
01080010011000216REP       Attorney General                                        Ken Paxton                            7 - SHELBYVILLE                                        01 
01080010012000218REP       Attorney General                                        Ken Paxton                            8 - TENAHA                                             01 
01080010013000321REP       Attorney General                                        Ken Paxton                            9N - TIMPSON                                           01 
01080010014000288REP       Attorney General                                        Ken Paxton                            9S - TIMPSON                                           01 
01080020001000105DEM       Attorney General                                        Sam Houston                           1N - CENTER                                            01 
01080020002000147DEM       Attorney General                                        Sam Houston                           1SO - CENTER                                           01 
01080020003000255DEM       Attorney General                                        Sam Houston                           1SE - CENTER                                           01 
01080020004000097DEM       Attorney General                                        Sam Houston                           1SW - CENTER                                           01 
01080020005000029DEM       Attorney General                                        Sam Houston                           1W - CENTER                                            01 
01080020006000041DEM       Attorney General                                        Sam Houston                           2 - EXCELSIOR                                          01 
01080020007000013DEM       Attorney General                                        Sam Houston                           3 - SARDIS                                             01 
01080020008000081DEM       Attorney General                                        Sam Houston                           4 - HUXLEY                                             01 
01080020009000084DEM       Attorney General                                        Sam Houston                           5 - JOAQUIN                                            01 
01080020010000044DEM       Attorney General                                        Sam Houston                           6 - DREKA                                              01 
01080020011000120DEM       Attorney General                                        Sam Houston                           7 - SHELBYVILLE                                        01 
01080020012000083DEM       Attorney General                                        Sam Houston                           8 - TENAHA                                             01 
01080020013000086DEM       Attorney General                                        Sam Houston                           9N - TIMPSON                                           01 
01080020014000074DEM       Attorney General                                        Sam Houston                           9S - TIMPSON                                           01 
01080030001000008LIB       Attorney General                                        Jamie Balagia                         1N - CENTER                                            01 
01080030002000008LIB       Attorney General                                        Jamie Balagia                         1SO - CENTER                                           01 
01080030003000003LIB       Attorney General                                        Jamie Balagia                         1SE - CENTER                                           01 
01080030004000005LIB       Attorney General                                        Jamie Balagia                         1SW - CENTER                                           01 
01080030005000002LIB       Attorney General                                        Jamie Balagia                         1W - CENTER                                            01 
01080030006000006LIB       Attorney General                                        Jamie Balagia                         2 - EXCELSIOR                                          01 
01080030007000000LIB       Attorney General                                        Jamie Balagia                         3 - SARDIS                                             01 
01080030008000001LIB       Attorney General                                        Jamie Balagia                         4 - HUXLEY                                             01 
01080030009000007LIB       Attorney General                                        Jamie Balagia                         5 - JOAQUIN                                            01 
01080030010000001LIB       Attorney General                                        Jamie Balagia                         6 - DREKA                                              01 
01080030011000003LIB       Attorney General                                        Jamie Balagia                         7 - SHELBYVILLE                                        01 
01080030012000002LIB       Attorney General                                        Jamie Balagia                         8 - TENAHA                                             01 
01080030013000005LIB       Attorney General                                        Jamie Balagia                         9N - TIMPSON                                           01 
01080030014000005LIB       Attorney General                                        Jamie Balagia                         9S - TIMPSON                                           01 
01080040001000000GRN       Attorney General                                        Jamar Osborne                         1N - CENTER                                            01 
01080040002000004GRN       Attorney General                                        Jamar Osborne                         1SO - CENTER                                           01 
01080040003000003GRN       Attorney General                                        Jamar Osborne                         1SE - CENTER                                           01 
01080040004000000GRN       Attorney General                                        Jamar Osborne                         1SW - CENTER                                           01 
01080040005000000GRN       Attorney General                                        Jamar Osborne                         1W - CENTER                                            01 
01080040006000000GRN       Attorney General                                        Jamar Osborne                         2 - EXCELSIOR                                          01 
01080040007000000GRN       Attorney General                                        Jamar Osborne                         3 - SARDIS                                             01 
01080040008000003GRN       Attorney General                                        Jamar Osborne                         4 - HUXLEY                                             01 
01080040009000001GRN       Attorney General                                        Jamar Osborne                         5 - JOAQUIN                                            01 
01080040010000002GRN       Attorney General                                        Jamar Osborne                         6 - DREKA                                              01 
01080040011000002GRN       Attorney General                                        Jamar Osborne                         7 - SHELBYVILLE                                        01 
01080040012000001GRN       Attorney General                                        Jamar Osborne                         8 - TENAHA                                             01 
01080040013000001GRN       Attorney General                                        Jamar Osborne                         9N - TIMPSON                                           01 
01080040014000000GRN       Attorney General                                        Jamar Osborne                         9S - TIMPSON                                           01 
01080050001000000          Attorney General                                        OVER VOTES                            1N - CENTER                                            01 
01080050002000000          Attorney General                                        OVER VOTES                            1SO - CENTER                                           01 
01080050003000001          Attorney General                                        OVER VOTES                            1SE - CENTER                                           01 
01080050004000001          Attorney General                                        OVER VOTES                            1SW - CENTER                                           01 
01080050005000000          Attorney General                                        OVER VOTES                            1W - CENTER                                            01 
01080050006000000          Attorney General                                        OVER VOTES                            2 - EXCELSIOR                                          01 
01080050007000000          Attorney General                                        OVER VOTES                            3 - SARDIS                                             01 
01080050008000000          Attorney General                                        OVER VOTES                            4 - HUXLEY                                             01 
01080050009000000          Attorney General                                        OVER VOTES                            5 - JOAQUIN                                            01 
01080050010000000          Attorney General                                        OVER VOTES                            6 - DREKA                                              01 
01080050011000000          Attorney General                                        OVER VOTES                            7 - SHELBYVILLE                                        01 
01080050012000000          Attorney General                                        OVER VOTES                            8 - TENAHA                                             01 
01080050013000000          Attorney General                                        OVER VOTES                            9N - TIMPSON                                           01 
01080050014000000          Attorney General                                        OVER VOTES                            9S - TIMPSON                                           01 
01080060001000025          Attorney General                                        UNDER VOTES                           1N - CENTER                                            01 
01080060002000040          Attorney General                                        UNDER VOTES                           1SO - CENTER                                           01 
01080060003000025          Attorney General                                        UNDER VOTES                           1SE - CENTER                                           01 
01080060004000022          Attorney General                                        UNDER VOTES                           1SW - CENTER                                           01 
01080060005000013          Attorney General                                        UNDER VOTES                           1W - CENTER                                            01 
01080060006000016          Attorney General                                        UNDER VOTES                           2 - EXCELSIOR                                          01 
01080060007000008          Attorney General                                        UNDER VOTES                           3 - SARDIS                                             01 
01080060008000011          Attorney General                                        UNDER VOTES                           4 - HUXLEY                                             01 
01080060009000013          Attorney General                                        UNDER VOTES                           5 - JOAQUIN                                            01 
01080060010000017          Attorney General                                        UNDER VOTES                           6 - DREKA                                              01 
01080060011000029          Attorney General                                        UNDER VOTES                           7 - SHELBYVILLE                                        01 
01080060012000006          Attorney General                                        UNDER VOTES                           8 - TENAHA                                             01 
01080060013000011          Attorney General                                        UNDER VOTES                           9N - TIMPSON                                           01 
01080060014000020          Attorney General                                        UNDER VOTES                           9S - TIMPSON                                           01 
01090010001000430REP       Comptroller of Public Accounts                          Glenn Hegar                           1N - CENTER                                            01 
01090010002000503REP       Comptroller of Public Accounts                          Glenn Hegar                           1SO - CENTER                                           01 
01090010003000196REP       Comptroller of Public Accounts                          Glenn Hegar                           1SE - CENTER                                           01 
01090010004000410REP       Comptroller of Public Accounts                          Glenn Hegar                           1SW - CENTER                                           01 
01090010005000119REP       Comptroller of Public Accounts                          Glenn Hegar                           1W - CENTER                                            01 
01090010006000255REP       Comptroller of Public Accounts                          Glenn Hegar                           2 - EXCELSIOR                                          01 
01090010007000096REP       Comptroller of Public Accounts                          Glenn Hegar                           3 - SARDIS                                             01 
01090010008000223REP       Comptroller of Public Accounts                          Glenn Hegar                           4 - HUXLEY                                             01 
01090010009000501REP       Comptroller of Public Accounts                          Glenn Hegar                           5 - JOAQUIN                                            01 
01090010010000204REP       Comptroller of Public Accounts                          Glenn Hegar                           6 - DREKA                                              01 
01090010011000206REP       Comptroller of Public Accounts                          Glenn Hegar                           7 - SHELBYVILLE                                        01 
01090010012000213REP       Comptroller of Public Accounts                          Glenn Hegar                           8 - TENAHA                                             01 
01090010013000318REP       Comptroller of Public Accounts                          Glenn Hegar                           9N - TIMPSON                                           01 
01090010014000288REP       Comptroller of Public Accounts                          Glenn Hegar                           9S - TIMPSON                                           01 
01090020001000098DEM       Comptroller of Public Accounts                          Mike Collier                          1N - CENTER                                            01 
01090020002000144DEM       Comptroller of Public Accounts                          Mike Collier                          1SO - CENTER                                           01 
