01010010001001265000000000000000000000000000000          REGISTERED VOTERS - TOTAL                               REGISTERED VOTERS - TOTAL             PRECINCT 1                                             00 
01010010002001535000000000000000000000000000000          REGISTERED VOTERS - TOTAL                               REGISTERED VOTERS - TOTAL             PRECINCT 2                                             00 
01010010003001535000000000000000000000000000000          REGISTERED VOTERS - TOTAL                               REGISTERED VOTERS - TOTAL             PRECINCT 3                                             00 
01010010004001475000000000000000000000000000000          REGISTERED VOTERS - TOTAL                               REGISTERED VOTERS - TOTAL             PRECINCT 4                                             00 
01020010001000478000223000254000000000001000000          BALLOTS CAST - TOTAL                                    BALLOTS CAST - TOTAL                  PRECINCT 1                                             00 
01020010002000660000329000329000002000000000000          BALLOTS CAST - TOTAL                                    BALLOTS CAST - TOTAL                  PRECINCT 2                                             00 
01020010003000546000253000293000000000000000000          BALLOTS CAST - TOTAL                                    BALLOTS CAST - TOTAL                  PRECINCT 3                                             00 
01020010004000571000275000296000000000000000000          BALLOTS CAST - TOTAL                                    BALLOTS CAST - TOTAL                  PRECINCT 4                                             00 
01030010001000210000102000108000000000000000000REP       Straight Party                                          Republican Party                      PRECINCT 1                                             01 
01030010002000289000135000154000000000000000000REP       Straight Party                                          Republican Party                      PRECINCT 2                                             01 
01030010003000286000122000164000000000000000000REP       Straight Party                                          Republican Party                      PRECINCT 3                                             01 
01030010004000297000138000159000000000000000000REP       Straight Party                                          Republican Party                      PRECINCT 4                                             01 
01030020001000021000014000007000000000000000000DEM       Straight Party                                          Democratic Party                      PRECINCT 1                                             01 
01030020002000041000022000017000002000000000000DEM       Straight Party                                          Democratic Party                      PRECINCT 2                                             01 
01030020003000035000018000017000000000000000000DEM       Straight Party                                          Democratic Party                      PRECINCT 3                                             01 
01030020004000032000011000021000000000000000000DEM       Straight Party                                          Democratic Party                      PRECINCT 4                                             01 
01030030001000005000001000003000000000001000000LIB       Straight Party                                          Libertarian Party                     PRECINCT 1                                             01 
01030030002000002000000000002000000000000000000LIB       Straight Party                                          Libertarian Party                     PRECINCT 2                                             01 
01030030003000003000001000002000000000000000000LIB       Straight Party                                          Libertarian Party                     PRECINCT 3                                             01 
01030030004000002000000000002000000000000000000LIB       Straight Party                                          Libertarian Party                     PRECINCT 4                                             01 
01030040001000000000000000000000000000000000000GRN       Straight Party                                          Green Party                           PRECINCT 1                                             01 
01030040002000000000000000000000000000000000000GRN       Straight Party                                          Green Party                           PRECINCT 2                                             01 
01030040003000003000002000001000000000000000000GRN       Straight Party                                          Green Party                           PRECINCT 3                                             01 
01030040004000001000001000000000000000000000000GRN       Straight Party                                          Green Party                           PRECINCT 4                                             01 
01030050001000001000001000000000000000000000000          Straight Party                                          OVER VOTES                            PRECINCT 1                                             01 
01030050002000003000003000000000000000000000000          Straight Party                                          OVER VOTES                            PRECINCT 2                                             01 
01030050003000004000004000000000000000000000000          Straight Party                                          OVER VOTES                            PRECINCT 3                                             01 
01030050004000000000000000000000000000000000000          Straight Party                                          OVER VOTES                            PRECINCT 4                                             01 
01030060001000241000105000136000000000000000000          Straight Party                                          UNDER VOTES                           PRECINCT 1                                             01 
01030060002000325000169000156000000000000000000          Straight Party                                          UNDER VOTES                           PRECINCT 2                                             01 
01030060003000200000106000094000000000000000000          Straight Party                                          UNDER VOTES                           PRECINCT 3                                             01 
01030060004000239000125000114000000000000000000          Straight Party                                          UNDER VOTES                           PRECINCT 4                                             01 
01040010001000392000180000212000000000000000000REP       United States Senator                                   John Cornyn                           PRECINCT 1                                             01 
01040010002000533000262000271000000000000000000REP       United States Senator                                   John Cornyn                           PRECINCT 2                                             01 
01040010003000438000199000239000000000000000000REP       United States Senator                                   John Cornyn                           PRECINCT 3                                             01 
01040010004000478000225000253000000000000000000REP       United States Senator                                   John Cornyn                           PRECINCT 4                                             01 
01040020001000066000037000029000000000000000000DEM       United States Senator                                   David M. Alameel                      PRECINCT 1                                             01 
01040020002000093000046000045000002000000000000DEM       United States Senator                                   David M. Alameel                      PRECINCT 2                                             01 
01040020003000076000044000032000000000000000000DEM       United States Senator                                   David M. Alameel                      PRECINCT 3                                             01 
01040020004000067000034000033000000000000000000DEM       United States Senator                                   David M. Alameel                      PRECINCT 4                                             01 
01040030001000011000004000006000000000001000000LIB       United States Senator                                   Rebecca Paddock                       PRECINCT 1                                             01 
01040030002000018000010000008000000000000000000LIB       United States Senator                                   Rebecca Paddock                       PRECINCT 2                                             01 
01040030003000010000001000009000000000000000000LIB       United States Senator                                   Rebecca Paddock                       PRECINCT 3                                             01 
01040030004000014000008000006000000000000000000LIB       United States Senator                                   Rebecca Paddock                       PRECINCT 4                                             01 
01040040001000003000000000003000000000000000000GRN       United States Senator                                   Emily "Spicybrown" Sanchez            PRECINCT 1                                             01 
01040040002000001000001000000000000000000000000GRN       United States Senator                                   Emily "Spicybrown" Sanchez            PRECINCT 2                                             01 
01040040003000009000003000006000000000000000000GRN       United States Senator                                   Emily "Spicybrown" Sanchez            PRECINCT 3                                             01 
01040040004000005000003000002000000000000000000GRN       United States Senator                                   Emily "Spicybrown" Sanchez            PRECINCT 4                                             01 
01040050001000001000001000000000000000000000000NON       United States Senator                                   WRITE-IN                              PRECINCT 1                                             01 
01040050002000000000000000000000000000000000000NON       United States Senator                                   WRITE-IN                              PRECINCT 2                                             01 
01040050003000000000000000000000000000000000000NON       United States Senator                                   WRITE-IN                              PRECINCT 3                                             01 
01040050004000000000000000000000000000000000000NON       United States Senator                                   WRITE-IN                              PRECINCT 4                                             01 
01040060001000000000000000000000000000000000000          United States Senator                                   OVER VOTES                            PRECINCT 1                                             01 
01040060002000001000001000000000000000000000000          United States Senator                                   OVER VOTES                            PRECINCT 2                                             01 
01040060003000000000000000000000000000000000000          United States Senator                                   OVER VOTES                            PRECINCT 3                                             01 
01040060004000001000001000000000000000000000000          United States Senator                                   OVER VOTES                            PRECINCT 4                                             01 
01040070001000005000001000004000000000000000000          United States Senator                                   UNDER VOTES                           PRECINCT 1                                             01 
01040070002000014000009000005000000000000000000          United States Senator                                   UNDER VOTES                           PRECINCT 2                                             01 
01040070003000011000006000005000000000000000000          United States Senator                                   UNDER VOTES                           PRECINCT 3                                             01 
01040070004000006000004000002000000000000000000          United States Senator                                   UNDER VOTES                           PRECINCT 4                                             01 
01050010001000388000183000205000000000000000000REP       United States Representative, Dist 25                   Roger Williams                        PRECINCT 1                                             01 
01050010002000533000261000272000000000000000000REP       United States Representative, Dist 25                   Roger Williams                        PRECINCT 2                                             01 
01050010003000444000200000244000000000000000000REP       United States Representative, Dist 25                   Roger Williams                        PRECINCT 3                                             01 
01050010004000478000229000249000000000000000000REP       United States Representative, Dist 25                   Roger Williams                        PRECINCT 4                                             01 
01050020001000072000035000037000000000000000000DEM       United States Representative, Dist 25                   Marco Montoya                         PRECINCT 1                                             01 
01050020002000084000044000038000002000000000000DEM       United States Representative, Dist 25                   Marco Montoya                         PRECINCT 2                                             01 
01050020003000075000039000036000000000000000000DEM       United States Representative, Dist 25                   Marco Montoya                         PRECINCT 3                                             01 
01050020004000076000037000039000000000000000000DEM       United States Representative, Dist 25                   Marco Montoya                         PRECINCT 4                                             01 
01050030001000007000003000003000000000001000000LIB       United States Representative, Dist 25                   John Betz                             PRECINCT 1                                             01 
01050030002000019000011000008000000000000000000LIB       United States Representative, Dist 25                   John Betz                             PRECINCT 2                                             01 
01050030003000006000002000004000000000000000000LIB       United States Representative, Dist 25                   John Betz                             PRECINCT 3                                             01 
01050030004000006000003000003000000000000000000LIB       United States Representative, Dist 25                   John Betz                             PRECINCT 4                                             01 
01050040001000001000001000000000000000000000000          United States Representative, Dist 25                   OVER VOTES                            PRECINCT 1                                             01 
01050040002000003000003000000000000000000000000          United States Representative, Dist 25                   OVER VOTES                            PRECINCT 2                                             01 
01050040003000003000003000000000000000000000000          United States Representative, Dist 25                   OVER VOTES                            PRECINCT 3                                             01 
01050040004000000000000000000000000000000000000          United States Representative, Dist 25                   OVER VOTES                            PRECINCT 4                                             01 
01050050001000010000001000009000000000000000000          United States Representative, Dist 25                   UNDER VOTES                           PRECINCT 1                                             01 
01050050002000021000010000011000000000000000000          United States Representative, Dist 25                   UNDER VOTES                           PRECINCT 2                                             01 
01050050003000016000009000007000000000000000000          United States Representative, Dist 25                   UNDER VOTES                           PRECINCT 3                                             01 
01050050004000011000006000005000000000000000000          United States Representative, Dist 25                   UNDER VOTES                           PRECINCT 4                                             01 
01060010001000377000177000200000000000000000000REP       Governor                                                Greg Abbott                           PRECINCT 1                                             01 
01060010002000527000259000268000000000000000000REP       Governor                                                Greg Abbott                           PRECINCT 2                                             01 
01060010003000427000191000236000000000000000000REP       Governor                                                Greg Abbott                           PRECINCT 3                                             01 
01060010004000465000218000247000000000000000000REP       Governor                                                Greg Abbott                           PRECINCT 4                                             01 
01060020001000091000042000049000000000000000000DEM       Governor                                                Wendy R. Davis                        PRECINCT 1                                             01 
01060020002000114000057000055000002000000000000DEM       Governor                                                Wendy R. Davis                        PRECINCT 2                                             01 
01060020003000104000053000051000000000000000000DEM       Governor                                                Wendy R. Davis                        PRECINCT 3                                             01 
01060020004000096000052000044000000000000000000DEM       Governor                                                Wendy R. Davis                        PRECINCT 4                                             01 
01060030001000006000002000003000000000001000000LIB       Governor                                                Kathie Glass                          PRECINCT 1                                             01 
01060030002000008000004000004000000000000000000LIB       Governor                                                Kathie Glass                          PRECINCT 2                                             01 
01060030003000006000003000003000000000000000000LIB       Governor                                                Kathie Glass                          PRECINCT 3                                             01 
01060030004000008000003000005000000000000000000LIB       Governor                                                Kathie Glass                          PRECINCT 4                                             01 
01060040001000002000001000001000000000000000000GRN       Governor                                                Brandon Parmer                        PRECINCT 1                                             01 
01060040002000003000002000001000000000000000000GRN       Governor                                                Brandon Parmer                        PRECINCT 2                                             01 
01060040003000007000004000003000000000000000000GRN       Governor                                                Brandon Parmer                        PRECINCT 3                                             01 
01060040004000002000002000000000000000000000000GRN       Governor                                                Brandon Parmer                        PRECINCT 4                                             01 
01060050001000001000000000001000000000000000000NON       Governor                                                WRITE-IN                              PRECINCT 1                                             01 
01060050002000000000000000000000000000000000000NON       Governor                                                WRITE-IN                              PRECINCT 2                                             01 
01060050003000001000001000000000000000000000000NON       Governor                                                WRITE-IN                              PRECINCT 3                                             01 
01060050004000000000000000000000000000000000000NON       Governor                                                WRITE-IN                              PRECINCT 4                                             01 
01060060001000000000000000000000000000000000000          Governor                                                OVER VOTES                            PRECINCT 1                                             01 
01060060002000000000000000000000000000000000000          Governor                                                OVER VOTES                            PRECINCT 2                                             01 
01060060003000000000000000000000000000000000000          Governor                                                OVER VOTES                            PRECINCT 3                                             01 
01060060004000000000000000000000000000000000000          Governor                                                OVER VOTES                            PRECINCT 4                                             01 
01060070001000001000001000000000000000000000000          Governor                                                UNDER VOTES                           PRECINCT 1                                             01 
01060070002000008000007000001000000000000000000          Governor                                                UNDER VOTES                           PRECINCT 2                                             01 
01060070003000001000001000000000000000000000000          Governor                                                UNDER VOTES                           PRECINCT 3                                             01 
01060070004000000000000000000000000000000000000          Governor                                                UNDER VOTES                           PRECINCT 4                                             01 
01070010001000382000178000204000000000000000000REP       Lieutenant Governor                                     Dan Patrick                           PRECINCT 1                                             01 
01070010002000517000258000259000000000000000000REP       Lieutenant Governor                                     Dan Patrick                           PRECINCT 2                                             01 
01070010003000420000192000228000000000000000000REP       Lieutenant Governor                                     Dan Patrick                           PRECINCT 3                                             01 
01070010004000467000224000243000000000000000000REP       Lieutenant Governor                                     Dan Patrick                           PRECINCT 4                                             01 
01070020001000077000037000040000000000000000000DEM       Lieutenant Governor                                     Leticia Van de Putte                  PRECINCT 1                                             01 
01070020002000102000052000048000002000000000000DEM       Lieutenant Governor                                     Leticia Van de Putte                  PRECINCT 2                                             01 
01070020003000096000046000050000000000000000000DEM       Lieutenant Governor                                     Leticia Van de Putte                  PRECINCT 3                                             01 
01070020004000084000042000042000000000000000000DEM       Lieutenant Governor                                     Leticia Van de Putte                  PRECINCT 4                                             01 
01070030001000008000004000003000000000001000000LIB       Lieutenant Governor                                     Robert D. Butler                      PRECINCT 1                                             01 
01070030002000024000013000011000000000000000000LIB       Lieutenant Governor                                     Robert D. Butler                      PRECINCT 2                                             01 
01070030003000017000010000007000000000000000000LIB       Lieutenant Governor                                     Robert D. Butler                      PRECINCT 3                                             01 
01070030004000013000004000009000000000000000000LIB       Lieutenant Governor                                     Robert D. Butler                      PRECINCT 4                                             01 
01070040001000002000000000002000000000000000000GRN       Lieutenant Governor                                     Chandrakantha Courtney                PRECINCT 1                                             01 
01070040002000003000001000002000000000000000000GRN       Lieutenant Governor                                     Chandrakantha Courtney                PRECINCT 2                                             01 
01070040003000006000003000003000000000000000000GRN       Lieutenant Governor                                     Chandrakantha Courtney                PRECINCT 3                                             01 
01070040004000001000001000000000000000000000000GRN       Lieutenant Governor                                     Chandrakantha Courtney                PRECINCT 4                                             01 
01070050001000000000000000000000000000000000000          Lieutenant Governor                                     OVER VOTES                            PRECINCT 1                                             01 
01070050002000000000000000000000000000000000000          Lieutenant Governor                                     OVER VOTES                            PRECINCT 2                                             01 
01070050003000000000000000000000000000000000000          Lieutenant Governor                                     OVER VOTES                            PRECINCT 3                                             01 
01070050004000000000000000000000000000000000000          Lieutenant Governor                                     OVER VOTES                            PRECINCT 4                                             01 
01070060001000009000004000005000000000000000000          Lieutenant Governor                                     UNDER VOTES                           PRECINCT 1                                             01 
01070060002000014000005000009000000000000000000          Lieutenant Governor                                     UNDER VOTES                           PRECINCT 2                                             01 
01070060003000007000002000005000000000000000000          Lieutenant Governor                                     UNDER VOTES                           PRECINCT 3                                             01 
01070060004000006000004000002000000000000000000          Lieutenant Governor                                     UNDER VOTES                           PRECINCT 4                                             01 
01080010001000379000178000201000000000000000000REP       Attorney General                                        Ken Paxton                            PRECINCT 1                                             01 
01080010002000520000259000261000000000000000000REP       Attorney General                                        Ken Paxton                            PRECINCT 2                                             01 
01080010003000423000190000233000000000000000000REP       Attorney General                                        Ken Paxton                            PRECINCT 3                                             01 
01080010004000460000217000243000000000000000000REP       Attorney General                                        Ken Paxton                            PRECINCT 4                                             01 
01080020001000082000041000041000000000000000000DEM       Attorney General                                        Sam Houston                           PRECINCT 1                                             01 
01080020002000110000058000050000002000000000000DEM       Attorney General                                        Sam Houston                           PRECINCT 2                                             01 
01080020003000102000055000047000000000000000000DEM       Attorney General                                        Sam Houston                           PRECINCT 3                                             01 
01080020004000087000045000042000000000000000000DEM       Attorney General                                        Sam Houston                           PRECINCT 4                                             01 
01080030001000008000003000004000000000001000000LIB       Attorney General                                        Jamie Balagia                         PRECINCT 1                                             01 
01080030002000012000005000007000000000000000000LIB       Attorney General                                        Jamie Balagia                         PRECINCT 2                                             01 
01080030003000005000001000004000000000000000000LIB       Attorney General                                        Jamie Balagia                         PRECINCT 3                                             01 
01080030004000012000005000007000000000000000000LIB       Attorney General                                        Jamie Balagia                         PRECINCT 4                                             01 
01080040001000001000000000001000000000000000000GRN       Attorney General                                        Jamar Osborne                         PRECINCT 1                                             01 
01080040002000000000000000000000000000000000000GRN       Attorney General                                        Jamar Osborne                         PRECINCT 2                                             01 
01080040003000007000003000004000000000000000000GRN       Attorney General                                        Jamar Osborne                         PRECINCT 3                                             01 
01080040004000000000000000000000000000000000000GRN       Attorney General                                        Jamar Osborne                         PRECINCT 4                                             01 
01080050001000000000000000000000000000000000000          Attorney General                                        OVER VOTES                            PRECINCT 1                                             01 
01080050002000000000000000000000000000000000000          Attorney General                                        OVER VOTES                            PRECINCT 2                                             01 
01080050003000000000000000000000000000000000000          Attorney General                                        OVER VOTES                            PRECINCT 3                                             01 
01080050004000000000000000000000000000000000000          Attorney General                                        OVER VOTES                            PRECINCT 4                                             01 
01080060001000008000001000007000000000000000000          Attorney General                                        UNDER VOTES                           PRECINCT 1                                             01 
01080060002000018000007000011000000000000000000          Attorney General                                        UNDER VOTES                           PRECINCT 2                                             01 
01080060003000007000004000003000000000000000000          Attorney General                                        UNDER VOTES                           PRECINCT 3                                             01 
01080060004000012000008000004000000000000000000          Attorney General                                        UNDER VOTES                           PRECINCT 4                                             01 
01090010001000377000174000203000000000000000000REP       Comptroller of Public Accounts                          Glenn Hegar                           PRECINCT 1                                             01 
01090010002000503000253000250000000000000000000REP       Comptroller of Public Accounts                          Glenn Hegar                           PRECINCT 2                                             01 
01090010003000413000183000230000000000000000000REP       Comptroller of Public Accounts                          Glenn Hegar                           PRECINCT 3                                             01 
01090010004000453000214000239000000000000000000REP       Comptroller of Public Accounts                          Glenn Hegar                           PRECINCT 4                                             01 
01090020001000071000039000032000000000000000000DEM       Comptroller of Public Accounts                          Mike Collier                          PRECINCT 1                                             01 
01090020002000107000054000051000002000000000000DEM       Comptroller of Public Accounts                          Mike Collier                          PRECINCT 2                                             01 
01090020003000093000054000039000000000000000000DEM       Comptroller of Public Accounts                          Mike Collier                          PRECINCT 3                                             01 
01090020004000081000040000041000000000000000000DEM       Comptroller of Public Accounts                          Mike Collier                          PRECINCT 4                                             01 
01090030001000011000005000005000000000001000000LIB       Comptroller of Public Accounts                          Ben Sanders                           PRECINCT 1                                             01 
01090030002000018000007000011000000000000000000LIB       Comptroller of Public Accounts                          Ben Sanders                           PRECINCT 2                                             01 
01090030003000015000007000008000000000000000000LIB       Comptroller of Public Accounts                          Ben Sanders                           PRECINCT 3                                             01 
01090030004000015000006000009000000000000000000LIB       Comptroller of Public Accounts                          Ben Sanders                           PRECINCT 4                                             01 
01090040001000003000002000001000000000000000000GRN       Comptroller of Public Accounts                          Deb Shafto                            PRECINCT 1                                             01 
01090040002000002000000000002000000000000000000GRN       Comptroller of Public Accounts                          Deb Shafto                            PRECINCT 2                                             01 
01090040003000011000003000008000000000000000000GRN       Comptroller of Public Accounts                          Deb Shafto                            PRECINCT 3                                             01 
01090040004000004000004000000000000000000000000GRN       Comptroller of Public Accounts                          Deb Shafto                            PRECINCT 4                                             01 
01090050001000000000000000000000000000000000000          Comptroller of Public Accounts                          OVER VOTES                            PRECINCT 1                                             01 
01090050002000000000000000000000000000000000000          Comptroller of Public Accounts                          OVER VOTES                            PRECINCT 2                                             01 
01090050003000000000000000000000000000000000000          Comptroller of Public Accounts                          OVER VOTES                            PRECINCT 3                                             01 
01090050004000000000000000000000000000000000000          Comptroller of Public Accounts                          OVER VOTES                            PRECINCT 4                                             01 
01090060001000016000003000013000000000000000000          Comptroller of Public Accounts                          UNDER VOTES                           PRECINCT 1                                             01 
01090060002000030000015000015000000000000000000          Comptroller of Public Accounts                          UNDER VOTES                           PRECINCT 2                                             01 
01090060003000012000006000006000000000000000000          Comptroller of Public Accounts                          UNDER VOTES                           PRECINCT 3                                             01 
01090060004000018000011000007000000000000000000          Comptroller of Public Accounts                          UNDER VOTES                           PRECINCT 4                                             01 
01100010001000387000183000204000000000000000000REP       Commissioner of the General Land Office                 George P. Bush                        PRECINCT 1                                             01 
01100010002000528000260000268000000000000000000REP       Commissioner of the General Land Office                 George P. Bush                        PRECINCT 2                                             01 
01100010003000435000196000239000000000000000000REP       Commissioner of the General Land Office                 George P. Bush                        PRECINCT 3                                             01 
01100010004000470000225000245000000000000000000REP       Commissioner of the General Land Office                 George P. Bush                        PRECINCT 4                                             01 
01100020001000068000032000036000000000000000000DEM       Commissioner of the General Land Office                 John Cook                             PRECINCT 1                                             01 
01100020002000090000046000042000002000000000000DEM       Commissioner of the General Land Office                 John Cook                             PRECINCT 2                                             01 
01100020003000085000046000039000000000000000000DEM       Commissioner of the General Land Office                 John Cook                             PRECINCT 3                                             01 
01100020004000072000035000037000000000000000000DEM       Commissioner of the General Land Office                 John Cook                             PRECINCT 4                                             01 
01100030001000010000003000006000000000001000000LIB       Commissioner of the General Land Office                 Justin Knight                         PRECINCT 1                                             01 
01100030002000018000009000009000000000000000000LIB       Commissioner of the General Land Office                 Justin Knight                         PRECINCT 2                                             01 
01100030003000009000004000005000000000000000000LIB       Commissioner of the General Land Office                 Justin Knight                         PRECINCT 3                                             01 
01100030004000018000008000010000000000000000000LIB       Commissioner of the General Land Office                 Justin Knight                         PRECINCT 4                                             01 
01100040001000005000001000004000000000000000000GRN       Commissioner of the General Land Office                 Valerie Alessi                        PRECINCT 1                                             01 
01100040002000004000001000003000000000000000000GRN       Commissioner of the General Land Office                 Valerie Alessi                        PRECINCT 2                                             01 
01100040003000007000003000004000000000000000000GRN       Commissioner of the General Land Office                 Valerie Alessi                        PRECINCT 3                                             01 
01100040004000004000003000001000000000000000000GRN       Commissioner of the General Land Office                 Valerie Alessi                        PRECINCT 4                                             01 
01100050001000000000000000000000000000000000000          Commissioner of the General Land Office                 OVER VOTES                            PRECINCT 1                                             01 
01100050002000000000000000000000000000000000000          Commissioner of the General Land Office                 OVER VOTES                            PRECINCT 2                                             01 
01100050003000000000000000000000000000000000000          Commissioner of the General Land Office                 OVER VOTES                            PRECINCT 3                                             01 
01100050004000000000000000000000000000000000000          Commissioner of the General Land Office                 OVER VOTES                            PRECINCT 4                                             01 
01100060001000008000004000004000000000000000000          Commissioner of the General Land Office                 UNDER VOTES                           PRECINCT 1                                             01 
01100060002000020000013000007000000000000000000          Commissioner of the General Land Office                 UNDER VOTES                           PRECINCT 2                                             01 
01100060003000008000004000004000000000000000000          Commissioner of the General Land Office                 UNDER VOTES                           PRECINCT 3                                             01 
01100060004000007000004000003000000000000000000          Commissioner of the General Land Office                 UNDER VOTES                           PRECINCT 4                                             01 
01110010001000368000173000195000000000000000000REP       Commissioner of Agriculture                             Sid Miller                            PRECINCT 1                                             01 
01110010002000514000251000263000000000000000000REP       Commissioner of Agriculture                             Sid Miller                            PRECINCT 2                                             01 
01110010003000430000194000236000000000000000000REP       Commissioner of Agriculture                             Sid Miller                            PRECINCT 3                                             01 
01110010004000453000214000239000000000000000000REP       Commissioner of Agriculture                             Sid Miller                            PRECINCT 4                                             01 
01110020001000083000039000044000000000000000000DEM       Commissioner of Agriculture                             Jim Hogan                             PRECINCT 1                                             01 
01110020002000107000057000048000002000000000000DEM       Commissioner of Agriculture                             Jim Hogan                             PRECINCT 2                                             01 
01110020003000085000046000039000000000000000000DEM       Commissioner of Agriculture                             Jim Hogan                             PRECINCT 3                                             01 
01110020004000090000050000040000000000000000000DEM       Commissioner of Agriculture                             Jim Hogan                             PRECINCT 4                                             01 
01110030001000011000005000005000000000001000000LIB       Commissioner of Agriculture                             David (Rocky) Palmquist               PRECINCT 1                                             01 
01110030002000017000008000009000000000000000000LIB       Commissioner of Agriculture                             David (Rocky) Palmquist               PRECINCT 2                                             01 
01110030003000010000003000007000000000000000000LIB       Commissioner of Agriculture                             David (Rocky) Palmquist               PRECINCT 3                                             01 
01110030004000016000004000012000000000000000000LIB       Commissioner of Agriculture                             David (Rocky) Palmquist               PRECINCT 4                                             01 
01110040001000008000003000005000000000000000000GRN       Commissioner of Agriculture                             Kenneth Kendrick                      PRECINCT 1                                             01 
01110040002000006000003000003000000000000000000GRN       Commissioner of Agriculture                             Kenneth Kendrick                      PRECINCT 2                                             01 
01110040003000009000004000005000000000000000000GRN       Commissioner of Agriculture                             Kenneth Kendrick                      PRECINCT 3                                             01 
01110040004000004000003000001000000000000000000GRN       Commissioner of Agriculture                             Kenneth Kendrick                      PRECINCT 4                                             01 
01110050001000000000000000000000000000000000000          Commissioner of Agriculture                             OVER VOTES                            PRECINCT 1                                             01 
01110050002000000000000000000000000000000000000          Commissioner of Agriculture                             OVER VOTES                            PRECINCT 2                                             01 
01110050003000000000000000000000000000000000000          Commissioner of Agriculture                             OVER VOTES                            PRECINCT 3                                             01 
01110050004000000000000000000000000000000000000          Commissioner of Agriculture                             OVER VOTES                            PRECINCT 4                                             01 
01110060001000008000003000005000000000000000000          Commissioner of Agriculture                             UNDER VOTES                           PRECINCT 1                                             01 
01110060002000016000010000006000000000000000000          Commissioner of Agriculture                             UNDER VOTES                           PRECINCT 2                                             01 
01110060003000010000006000004000000000000000000          Commissioner of Agriculture                             UNDER VOTES                           PRECINCT 3                                             01 
01110060004000008000004000004000000000000000000          Commissioner of Agriculture                             UNDER VOTES                           PRECINCT 4                                             01 
01120010001000368000174000194000000000000000000REP       Railroad Commissioner                                   Ryan Sitton                           PRECINCT 1                                             01 
01120010002000495000249000246000000000000000000REP       Railroad Commissioner                                   Ryan Sitton                           PRECINCT 2                                             01 
01120010003000418000190000228000000000000000000REP       Railroad Commissioner                                   Ryan Sitton                           PRECINCT 3                                             01 
01120010004000448000211000237000000000000000000REP       Railroad Commissioner                                   Ryan Sitton                           PRECINCT 4                                             01 
01120020001000073000039000034000000000000000000DEM       Railroad Commissioner                                   Steve Brown                           PRECINCT 1                                             01 
01120020002000102000054000046000002000000000000DEM       Railroad Commissioner                                   Steve Brown                           PRECINCT 2                                             01 
01120020003000086000048000038000000000000000000DEM       Railroad Commissioner                                   Steve Brown                           PRECINCT 3                                             01 
01120020004000077000041000036000000000000000000DEM       Railroad Commissioner                                   Steve Brown                           PRECINCT 4                                             01 
01120030001000016000006000009000000000001000000LIB       Railroad Commissioner                                   Mark A. Miller                        PRECINCT 1                                             01 
01120030002000026000009000017000000000000000000LIB       Railroad Commissioner                                   Mark A. Miller                        PRECINCT 2                                             01 
01120030003000015000006000009000000000000000000LIB       Railroad Commissioner                                   Mark A. Miller                        PRECINCT 3                                             01 
01120030004000019000010000009000000000000000000LIB       Railroad Commissioner                                   Mark A. Miller                        PRECINCT 4                                             01 
01120040001000005000001000004000000000000000000GRN       Railroad Commissioner                                   Martina Salinas                       PRECINCT 1                                             01 
01120040002000006000002000004000000000000000000GRN       Railroad Commissioner                                   Martina Salinas                       PRECINCT 2                                             01 
01120040003000010000003000007000000000000000000GRN       Railroad Commissioner                                   Martina Salinas                       PRECINCT 3                                             01 
01120040004000003000001000002000000000000000000GRN       Railroad Commissioner                                   Martina Salinas                       PRECINCT 4                                             01 
01120050001000000000000000000000000000000000000          Railroad Commissioner                                   OVER VOTES                            PRECINCT 1                                             01 
01120050002000000000000000000000000000000000000          Railroad Commissioner                                   OVER VOTES                            PRECINCT 2                                             01 
01120050003000000000000000000000000000000000000          Railroad Commissioner                                   OVER VOTES                            PRECINCT 3                                             01 
01120050004000000000000000000000000000000000000          Railroad Commissioner                                   OVER VOTES                            PRECINCT 4                                             01 
01120060001000016000003000013000000000000000000          Railroad Commissioner                                   UNDER VOTES                           PRECINCT 1                                             01 
01120060002000031000015000016000000000000000000          Railroad Commissioner                                   UNDER VOTES                           PRECINCT 2                                             01 
01120060003000013000006000007000000000000000000          Railroad Commissioner                                   UNDER VOTES                           PRECINCT 3                                             01 
01120060004000024000012000012000000000000000000          Railroad Commissioner                                   UNDER VOTES                           PRECINCT 4                                             01 
01130010001000369000177000192000000000000000000REP       Chief Justice, Supreme Court                            Nathan Hecht                          PRECINCT 1                                             01 
01130010002000506000256000250000000000000000000REP       Chief Justice, Supreme Court                            Nathan Hecht                          PRECINCT 2                                             01 
01130010003000417000190000227000000000000000000REP       Chief Justice, Supreme Court                            Nathan Hecht                          PRECINCT 3                                             01 
01130010004000450000212000238000000000000000000REP       Chief Justice, Supreme Court                            Nathan Hecht                          PRECINCT 4                                             01 
01130020001000075000038000037000000000000000000DEM       Chief Justice, Supreme Court                            William Moody                         PRECINCT 1                                             01 
01130020002000102000050000050000002000000000000DEM       Chief Justice, Supreme Court                            William Moody                         PRECINCT 2                                             01 
01130020003000094000050000044000000000000000000DEM       Chief Justice, Supreme Court                            William Moody                         PRECINCT 3                                             01 
01130020004000080000044000036000000000000000000DEM       Chief Justice, Supreme Court                            William Moody                         PRECINCT 4                                             01 
01130030001000013000003000009000000000001000000LIB       Chief Justice, Supreme Court                            Tom Oxford                            PRECINCT 1                                             01 
01130030002000021000008000013000000000000000000LIB       Chief Justice, Supreme Court                            Tom Oxford                            PRECINCT 2                                             01 
01130030003000011000002000009000000000000000000LIB       Chief Justice, Supreme Court                            Tom Oxford                            PRECINCT 3                                             01 
01130030004000014000005000009000000000000000000LIB       Chief Justice, Supreme Court                            Tom Oxford                            PRECINCT 4                                             01 
01130040001000000000000000000000000000000000000          Chief Justice, Supreme Court                            OVER VOTES                            PRECINCT 1                                             01 
01130040002000000000000000000000000000000000000          Chief Justice, Supreme Court                            OVER VOTES                            PRECINCT 2                                             01 
01130040003000000000000000000000000000000000000          Chief Justice, Supreme Court                            OVER VOTES                            PRECINCT 3                                             01 
01130040004000000000000000000000000000000000000          Chief Justice, Supreme Court                            OVER VOTES                            PRECINCT 4                                             01 
01130050001000021000005000016000000000000000000          Chief Justice, Supreme Court                            UNDER VOTES                           PRECINCT 1                                             01 
01130050002000031000015000016000000000000000000          Chief Justice, Supreme Court                            UNDER VOTES                           PRECINCT 2                                             01 
01130050003000021000011000010000000000000000000          Chief Justice, Supreme Court                            UNDER VOTES                           PRECINCT 3                                             01 
01130050004000027000014000013000000000000000000          Chief Justice, Supreme Court                            UNDER VOTES                           PRECINCT 4                                             01 
01140010001000371000177000194000000000000000000REP       Supreme Court, Place 6, Unexpired Term                  Jeff Brown                            PRECINCT 1                                             01 
01140010002000514000257000257000000000000000000REP       Supreme Court, Place 6, Unexpired Term                  Jeff Brown                            PRECINCT 2                                             01 
01140010003000420000187000233000000000000000000REP       Supreme Court, Place 6, Unexpired Term                  Jeff Brown                            PRECINCT 3                                             01 
01140010004000448000209000239000000000000000000REP       Supreme Court, Place 6, Unexpired Term                  Jeff Brown                            PRECINCT 4                                             01 
01140020001000071000038000033000000000000000000DEM       Supreme Court, Place 6, Unexpired Term                  Lawrence Edward Meyers                PRECINCT 1                                             01 
01140020002000093000045000046000002000000000000DEM       Supreme Court, Place 6, Unexpired Term                  Lawrence Edward Meyers                PRECINCT 2                                             01 
01140020003000087000049000038000000000000000000DEM       Supreme Court, Place 6, Unexpired Term                  Lawrence Edward Meyers                PRECINCT 3                                             01 
01140020004000075000042000033000000000000000000DEM       Supreme Court, Place 6, Unexpired Term                  Lawrence Edward Meyers                PRECINCT 4                                             01 
01140030001000014000004000009000000000001000000LIB       Supreme Court, Place 6, Unexpired Term                  Mark Ash                              PRECINCT 1                                             01 
01140030002000020000009000011000000000000000000LIB       Supreme Court, Place 6, Unexpired Term                  Mark Ash                              PRECINCT 2                                             01 
01140030003000014000004000010000000000000000000LIB       Supreme Court, Place 6, Unexpired Term                  Mark Ash                              PRECINCT 3                                             01 
01140030004000019000008000011000000000000000000LIB       Supreme Court, Place 6, Unexpired Term                  Mark Ash                              PRECINCT 4                                             01 
01140040001000000000000000000000000000000000000          Supreme Court, Place 6, Unexpired Term                  OVER VOTES                            PRECINCT 1                                             01 
01140040002000000000000000000000000000000000000          Supreme Court, Place 6, Unexpired Term                  OVER VOTES                            PRECINCT 2                                             01 
01140040003000000000000000000000000000000000000          Supreme Court, Place 6, Unexpired Term                  OVER VOTES                            PRECINCT 3                                             01 
01140040004000000000000000000000000000000000000          Supreme Court, Place 6, Unexpired Term                  OVER VOTES                            PRECINCT 4                                             01 
01140050001000022000004000018000000000000000000          Supreme Court, Place 6, Unexpired Term                  UNDER VOTES                           PRECINCT 1                                             01 
01140050002000033000018000015000000000000000000          Supreme Court, Place 6, Unexpired Term                  UNDER VOTES                           PRECINCT 2                                             01 
01140050003000022000013000009000000000000000000          Supreme Court, Place 6, Unexpired Term                  UNDER VOTES                           PRECINCT 3                                             01 
01140050004000029000016000013000000000000000000          Supreme Court, Place 6, Unexpired Term                  UNDER VOTES                           PRECINCT 4                                             01 
01150010001000369000176000193000000000000000000REP       Justice, Supreme Court, Place 7                         Jeff Boyd                             PRECINCT 1                                             01 
01150010002000501000252000249000000000000000000REP       Justice, Supreme Court, Place 7                         Jeff Boyd                             PRECINCT 2                                             01 
01150010003000420000193000227000000000000000000REP       Justice, Supreme Court, Place 7                         Jeff Boyd                             PRECINCT 3                                             01 
01150010004000448000212000236000000000000000000REP       Justice, Supreme Court, Place 7                         Jeff Boyd                             PRECINCT 4                                             01 
01150020001000074000037000037000000000000000000DEM       Justice, Supreme Court, Place 7                         Gina Benavides                        PRECINCT 1                                             01 
01150020002000099000047000050000002000000000000DEM       Justice, Supreme Court, Place 7                         Gina Benavides                        PRECINCT 2                                             01 
01150020003000086000044000042000000000000000000DEM       Justice, Supreme Court, Place 7                         Gina Benavides                        PRECINCT 3                                             01 
01150020004000072000035000037000000000000000000DEM       Justice, Supreme Court, Place 7                         Gina Benavides                        PRECINCT 4                                             01 
01150030001000012000004000007000000000001000000LIB       Justice, Supreme Court, Place 7                         Don Fulton                            PRECINCT 1                                             01 
01150030002000024000012000012000000000000000000LIB       Justice, Supreme Court, Place 7                         Don Fulton                            PRECINCT 2                                             01 
01150030003000011000002000009000000000000000000LIB       Justice, Supreme Court, Place 7                         Don Fulton                            PRECINCT 3                                             01 
01150030004000016000007000009000000000000000000LIB       Justice, Supreme Court, Place 7                         Don Fulton                            PRECINCT 4                                             01 
01150040001000002000001000001000000000000000000GRN       Justice, Supreme Court, Place 7                         Charles E. Waterbury                  PRECINCT 1                                             01 
01150040002000002000000000002000000000000000000GRN       Justice, Supreme Court, Place 7                         Charles E. Waterbury                  PRECINCT 2                                             01 
01150040003000008000004000004000000000000000000GRN       Justice, Supreme Court, Place 7                         Charles E. Waterbury                  PRECINCT 3                                             01 
01150040004000004000003000001000000000000000000GRN       Justice, Supreme Court, Place 7                         Charles E. Waterbury                  PRECINCT 4                                             01 
01150050001000000000000000000000000000000000000          Justice, Supreme Court, Place 7                         OVER VOTES                            PRECINCT 1                                             01 
01150050002000000000000000000000000000000000000          Justice, Supreme Court, Place 7                         OVER VOTES                            PRECINCT 2                                             01 
01150050003000000000000000000000000000000000000          Justice, Supreme Court, Place 7                         OVER VOTES                            PRECINCT 3                                             01 
01150050004000000000000000000000000000000000000          Justice, Supreme Court, Place 7                         OVER VOTES                            PRECINCT 4                                             01 
01150060001000021000005000016000000000000000000          Justice, Supreme Court, Place 7                         UNDER VOTES                           PRECINCT 1                                             01 
01150060002000034000018000016000000000000000000          Justice, Supreme Court, Place 7                         UNDER VOTES                           PRECINCT 2                                             01 
01150060003000018000010000008000000000000000000          Justice, Supreme Court, Place 7                         UNDER VOTES                           PRECINCT 3                                             01 
01150060004000031000018000013000000000000000000          Justice, Supreme Court, Place 7                         UNDER VOTES                           PRECINCT 4                                             01 
01160010001000384000184000200000000000000000000REP       Justice, Supreme Court, Place 8                         Phil Johnson                          PRECINCT 1                                             01 
01160010002000522000256000266000000000000000000REP       Justice, Supreme Court, Place 8                         Phil Johnson                          PRECINCT 2                                             01 
01160010003000430000196000234000000000000000000REP       Justice, Supreme Court, Place 8                         Phil Johnson                          PRECINCT 3                                             01 
01160010004000465000217000248000000000000000000REP       Justice, Supreme Court, Place 8                         Phil Johnson                          PRECINCT 4                                             01 
01160020001000030000010000019000000000001000000LIB       Justice, Supreme Court, Place 8                         RS Roberto Koelsch                    PRECINCT 1                                             01 
01160020002000035000019000016000000000000000000LIB       Justice, Supreme Court, Place 8                         RS Roberto Koelsch                    PRECINCT 2                                             01 
01160020003000023000009000014000000000000000000LIB       Justice, Supreme Court, Place 8                         RS Roberto Koelsch                    PRECINCT 3                                             01 
01160020004000028000014000014000000000000000000LIB       Justice, Supreme Court, Place 8                         RS Roberto Koelsch                    PRECINCT 4                                             01 
01160030001000021000011000010000000000000000000GRN       Justice, Supreme Court, Place 8                         Jim Chisolm                           PRECINCT 1                                             01 
01160030002000022000010000011000001000000000000GRN       Justice, Supreme Court, Place 8                         Jim Chisolm                           PRECINCT 2                                             01 
01160030003000033000019000014000000000000000000GRN       Justice, Supreme Court, Place 8                         Jim Chisolm                           PRECINCT 3                                             01 
01160030004000014000012000002000000000000000000GRN       Justice, Supreme Court, Place 8                         Jim Chisolm                           PRECINCT 4                                             01 
01160040001000000000000000000000000000000000000          Justice, Supreme Court, Place 8                         OVER VOTES                            PRECINCT 1                                             01 
01160040002000000000000000000000000000000000000          Justice, Supreme Court, Place 8                         OVER VOTES                            PRECINCT 2                                             01 
01160040003000001000000000001000000000000000000          Justice, Supreme Court, Place 8                         OVER VOTES                            PRECINCT 3                                             01 
01160040004000000000000000000000000000000000000          Justice, Supreme Court, Place 8                         OVER VOTES                            PRECINCT 4                                             01 
01160050001000043000018000025000000000000000000          Justice, Supreme Court, Place 8                         UNDER VOTES                           PRECINCT 1                                             01 
01160050002000080000044000036000000000000000000          Justice, Supreme Court, Place 8                         UNDER VOTES                           PRECINCT 2                                             01 
01160050003000055000029000026000000000000000000          Justice, Supreme Court, Place 8                         UNDER VOTES                           PRECINCT 3                                             01 
01160050004000064000032000032000000000000000000          Justice, Supreme Court, Place 8                         UNDER VOTES                           PRECINCT 4                                             01 
01170010001000372000180000192000000000000000000REP       Judge, Court of Criminal Appeals, Pl 3                  Bert Richardson                       PRECINCT 1                                             01 
01170010002000499000248000251000000000000000000REP       Judge, Court of Criminal Appeals, Pl 3                  Bert Richardson                       PRECINCT 2                                             01 
01170010003000412000185000227000000000000000000REP       Judge, Court of Criminal Appeals, Pl 3                  Bert Richardson                       PRECINCT 3                                             01 
01170010004000448000208000240000000000000000000REP       Judge, Court of Criminal Appeals, Pl 3                  Bert Richardson                       PRECINCT 4                                             01 
01170020001000068000035000033000000000000000000DEM       Judge, Court of Criminal Appeals, Pl 3                  John Granberg                         PRECINCT 1                                             01 
01170020002000095000047000046000002000000000000DEM       Judge, Court of Criminal Appeals, Pl 3                  John Granberg                         PRECINCT 2                                             01 
01170020003000091000049000042000000000000000000DEM       Judge, Court of Criminal Appeals, Pl 3                  John Granberg                         PRECINCT 3                                             01 
01170020004000070000037000033000000000000000000DEM       Judge, Court of Criminal Appeals, Pl 3                  John Granberg                         PRECINCT 4                                             01 
01170030001000015000003000011000000000001000000LIB       Judge, Court of Criminal Appeals, Pl 3                  Mark W. Bennett                       PRECINCT 1                                             01 
01170030002000025000011000014000000000000000000LIB       Judge, Court of Criminal Appeals, Pl 3                  Mark W. Bennett                       PRECINCT 2                                             01 
01170030003000017000005000012000000000000000000LIB       Judge, Court of Criminal Appeals, Pl 3                  Mark W. Bennett                       PRECINCT 3                                             01 
01170030004000019000011000008000000000000000000LIB       Judge, Court of Criminal Appeals, Pl 3                  Mark W. Bennett                       PRECINCT 4                                             01 
01170040001000000000000000000000000000000000000          Judge, Court of Criminal Appeals, Pl 3                  OVER VOTES                            PRECINCT 1                                             01 
01170040002000001000001000000000000000000000000          Judge, Court of Criminal Appeals, Pl 3                  OVER VOTES                            PRECINCT 2                                             01 
01170040003000000000000000000000000000000000000          Judge, Court of Criminal Appeals, Pl 3                  OVER VOTES                            PRECINCT 3                                             01 
01170040004000000000000000000000000000000000000          Judge, Court of Criminal Appeals, Pl 3                  OVER VOTES                            PRECINCT 4                                             01 
01170050001000023000005000018000000000000000000          Judge, Court of Criminal Appeals, Pl 3                  UNDER VOTES                           PRECINCT 1                                             01 
01170050002000040000022000018000000000000000000          Judge, Court of Criminal Appeals, Pl 3                  UNDER VOTES                           PRECINCT 2                                             01 
01170050003000023000014000009000000000000000000          Judge, Court of Criminal Appeals, Pl 3                  UNDER VOTES                           PRECINCT 3                                             01 
01170050004000034000019000015000000000000000000          Judge, Court of Criminal Appeals, Pl 3                  UNDER VOTES                           PRECINCT 4                                             01 
01180010001000363000173000190000000000000000000REP       Judge, Court of Criminal Appeals, Pl 4                  Kevin Patrick Yeary                   PRECINCT 1                                             01 
01180010002000507000251000256000000000000000000REP       Judge, Court of Criminal Appeals, Pl 4                  Kevin Patrick Yeary                   PRECINCT 2                                             01 
01180010003000420000190000230000000000000000000REP       Judge, Court of Criminal Appeals, Pl 4                  Kevin Patrick Yeary                   PRECINCT 3                                             01 
01180010004000449000211000238000000000000000000REP       Judge, Court of Criminal Appeals, Pl 4                  Kevin Patrick Yeary                   PRECINCT 4                                             01 
01180020001000057000025000031000000000001000000LIB       Judge, Court of Criminal Appeals, Pl 4                  Quanah Parker                         PRECINCT 1                                             01 
01180020002000060000028000031000001000000000000LIB       Judge, Court of Criminal Appeals, Pl 4                  Quanah Parker                         PRECINCT 2                                             01 
01180020003000052000025000027000000000000000000LIB       Judge, Court of Criminal Appeals, Pl 4                  Quanah Parker                         PRECINCT 3                                             01 
01180020004000045000028000017000000000000000000LIB       Judge, Court of Criminal Appeals, Pl 4                  Quanah Parker                         PRECINCT 4                                             01 
01180030001000016000008000008000000000000000000GRN       Judge, Court of Criminal Appeals, Pl 4                  Judith Sanders-Castro                 PRECINCT 1                                             01 
01180030002000014000008000006000000000000000000GRN       Judge, Court of Criminal Appeals, Pl 4                  Judith Sanders-Castro                 PRECINCT 2                                             01 
01180030003000019000012000007000000000000000000GRN       Judge, Court of Criminal Appeals, Pl 4                  Judith Sanders-Castro                 PRECINCT 3                                             01 
01180030004000011000005000006000000000000000000GRN       Judge, Court of Criminal Appeals, Pl 4                  Judith Sanders-Castro                 PRECINCT 4                                             01 
01180040001000000000000000000000000000000000000          Judge, Court of Criminal Appeals, Pl 4                  OVER VOTES                            PRECINCT 1                                             01 
01180040002000001000000000001000000000000000000          Judge, Court of Criminal Appeals, Pl 4                  OVER VOTES                            PRECINCT 2                                             01 
01180040003000000000000000000000000000000000000          Judge, Court of Criminal Appeals, Pl 4                  OVER VOTES                            PRECINCT 3                                             01 
01180040004000000000000000000000000000000000000          Judge, Court of Criminal Appeals, Pl 4                  OVER VOTES                            PRECINCT 4                                             01 
01180050001000042000017000025000000000000000000          Judge, Court of Criminal Appeals, Pl 4                  UNDER VOTES                           PRECINCT 1                                             01 
01180050002000077000042000035000000000000000000          Judge, Court of Criminal Appeals, Pl 4                  UNDER VOTES                           PRECINCT 2                                             01 
01180050003000051000026000025000000000000000000          Judge, Court of Criminal Appeals, Pl 4                  UNDER VOTES                           PRECINCT 3                                             01 
01180050004000066000031000035000000000000000000          Judge, Court of Criminal Appeals, Pl 4                  UNDER VOTES                           PRECINCT 4                                             01 
01190010001000380000181000199000000000000000000REP       Judge, Court of Criminal Appeals, Pl 9                  David Newell                          PRECINCT 1                                             01 
01190010002000524000255000269000000000000000000REP       Judge, Court of Criminal Appeals, Pl 9                  David Newell                          PRECINCT 2                                             01 
01190010003000429000196000233000000000000000000REP       Judge, Court of Criminal Appeals, Pl 9                  David Newell                          PRECINCT 3                                             01 
01190010004000453000211000242000000000000000000REP       Judge, Court of Criminal Appeals, Pl 9                  David Newell                          PRECINCT 4                                             01 
01190020001000038000014000023000000000001000000LIB       Judge, Court of Criminal Appeals, Pl 9                  William Bryan Strange, III            PRECINCT 1                                             01 
01190020002000037000021000016000000000000000000LIB       Judge, Court of Criminal Appeals, Pl 9                  William Bryan Strange, III            PRECINCT 2                                             01 
01190020003000031000015000016000000000000000000LIB       Judge, Court of Criminal Appeals, Pl 9                  William Bryan Strange, III            PRECINCT 3                                             01 
01190020004000037000022000015000000000000000000LIB       Judge, Court of Criminal Appeals, Pl 9                  William Bryan Strange, III            PRECINCT 4                                             01 
01190030001000015000009000006000000000000000000GRN       Judge, Court of Criminal Appeals, Pl 9                  George Joseph Altgelt                 PRECINCT 1                                             01 
01190030002000016000008000007000001000000000000GRN       Judge, Court of Criminal Appeals, Pl 9                  George Joseph Altgelt                 PRECINCT 2                                             01 
01190030003000025000014000011000000000000000000GRN       Judge, Court of Criminal Appeals, Pl 9                  George Joseph Altgelt                 PRECINCT 3                                             01 
01190030004000011000008000003000000000000000000GRN       Judge, Court of Criminal Appeals, Pl 9                  George Joseph Altgelt                 PRECINCT 4                                             01 
01190040001000000000000000000000000000000000000          Judge, Court of Criminal Appeals, Pl 9                  OVER VOTES                            PRECINCT 1                                             01 
01190040002000000000000000000000000000000000000          Judge, Court of Criminal Appeals, Pl 9                  OVER VOTES                            PRECINCT 2                                             01 
01190040003000000000000000000000000000000000000          Judge, Court of Criminal Appeals, Pl 9                  OVER VOTES                            PRECINCT 3                                             01 
01190040004000000000000000000000000000000000000          Judge, Court of Criminal Appeals, Pl 9                  OVER VOTES                            PRECINCT 4                                             01 
01190050001000045000019000026000000000000000000          Judge, Court of Criminal Appeals, Pl 9                  UNDER VOTES                           PRECINCT 1                                             01 
01190050002000082000045000037000000000000000000          Judge, Court of Criminal Appeals, Pl 9                  UNDER VOTES                           PRECINCT 2                                             01 
01190050003000057000028000029000000000000000000          Judge, Court of Criminal Appeals, Pl 9                  UNDER VOTES                           PRECINCT 3                                             01 
01190050004000070000034000036000000000000000000          Judge, Court of Criminal Appeals, Pl 9                  UNDER VOTES                           PRECINCT 4                                             01 
01200010001000405000191000213000000000001000000REP       State Representative, District 59                       J. D. Sheffield                       PRECINCT 1                                             01 
01200010002000543000261000282000000000000000000REP       State Representative, District 59                       J. D. Sheffield                       PRECINCT 2                                             01 
01200010003000450000196000254000000000000000000REP       State Representative, District 59                       J. D. Sheffield                       PRECINCT 3                                             01 
01200010004000478000228000250000000000000000000REP       State Representative, District 59                       J. D. Sheffield                       PRECINCT 4                                             01 
01200020001000000000000000000000000000000000000          State Representative, District 59                       OVER VOTES                            PRECINCT 1                                             01 
01200020002000000000000000000000000000000000000          State Representative, District 59                       OVER VOTES                            PRECINCT 2                                             01 
01200020003000000000000000000000000000000000000          State Representative, District 59                       OVER VOTES                            PRECINCT 3                                             01 
01200020004000000000000000000000000000000000000          State Representative, District 59                       OVER VOTES                            PRECINCT 4                                             01 
01200030001000073000032000041000000000000000000          State Representative, District 59                       UNDER VOTES                           PRECINCT 1                                             01 
01200030002000115000068000047000000000000000000          State Representative, District 59                       UNDER VOTES                           PRECINCT 2                                             01 
01200030003000090000057000033000000000000000000          State Representative, District 59                       UNDER VOTES                           PRECINCT 3                                             01 
01200030004000093000047000046000000000000000000          State Representative, District 59                       UNDER VOTES                           PRECINCT 4                                             01 
01210010001000395000185000209000000000001000000REP       10th Court of Appeals District, Place 2                 Rex Davis                             PRECINCT 1                                             01 
01210010002000530000253000277000000000000000000REP       10th Court of Appeals District, Place 2                 Rex Davis                             PRECINCT 2                                             01 
01210010003000445000196000249000000000000000000REP       10th Court of Appeals District, Place 2                 Rex Davis                             PRECINCT 3                                             01 
01210010004000461000222000239000000000000000000REP       10th Court of Appeals District, Place 2                 Rex Davis                             PRECINCT 4                                             01 
01210020001000000000000000000000000000000000000          10th Court of Appeals District, Place 2                 OVER VOTES                            PRECINCT 1                                             01 
01210020002000000000000000000000000000000000000          10th Court of Appeals District, Place 2                 OVER VOTES                            PRECINCT 2                                             01 
01210020003000000000000000000000000000000000000          10th Court of Appeals District, Place 2                 OVER VOTES                            PRECINCT 3                                             01 
01210020004000000000000000000000000000000000000          10th Court of Appeals District, Place 2                 OVER VOTES                            PRECINCT 4                                             01 
01210030001000083000038000045000000000000000000          10th Court of Appeals District, Place 2                 UNDER VOTES                           PRECINCT 1                                             01 
01210030002000128000076000052000000000000000000          10th Court of Appeals District, Place 2                 UNDER VOTES                           PRECINCT 2                                             01 
01210030003000093000057000036000000000000000000          10th Court of Appeals District, Place 2                 UNDER VOTES                           PRECINCT 3                                             01 
01210030004000110000053000057000000000000000000          10th Court of Appeals District, Place 2                 UNDER VOTES                           PRECINCT 4                                             01 
01220010001000421000199000221000000000001000000REP       District Judge, 249th Judicial District                 Wayne Bridewell                       PRECINCT 1                                             01 
01220010002000559000270000289000000000000000000REP       District Judge, 249th Judicial District                 Wayne Bridewell                       PRECINCT 2                                             01 
01220010003000470000212000258000000000000000000REP       District Judge, 249th Judicial District                 Wayne Bridewell                       PRECINCT 3                                             01 
01220010004000498000242000256000000000000000000REP       District Judge, 249th Judicial District                 Wayne Bridewell                       PRECINCT 4                                             01 
01220020001000000000000000000000000000000000000          District Judge, 249th Judicial District                 OVER VOTES                            PRECINCT 1                                             01 
01220020002000000000000000000000000000000000000          District Judge, 249th Judicial District                 OVER VOTES                            PRECINCT 2                                             01 
01220020003000000000000000000000000000000000000          District Judge, 249th Judicial District                 OVER VOTES                            PRECINCT 3                                             01 
01220020004000000000000000000000000000000000000          District Judge, 249th Judicial District                 OVER VOTES                            PRECINCT 4                                             01 
01220030001000057000024000033000000000000000000          District Judge, 249th Judicial District                 UNDER VOTES                           PRECINCT 1                                             01 
01220030002000099000059000040000000000000000000          District Judge, 249th Judicial District                 UNDER VOTES                           PRECINCT 2                                             01 
01220030003000068000041000027000000000000000000          District Judge, 249th Judicial District                 UNDER VOTES                           PRECINCT 3                                             01 
01220030004000073000033000040000000000000000000          District Judge, 249th Judicial District                 UNDER VOTES                           PRECINCT 4                                             01 
01230010003000008000007000001000000000000000000NONISDGRANGranbury ISD School Board Trustee, Pl 1                 Virg A. Thomas                        PRECINCT 3                                             01 
01230020003000013000010000003000000000000000000NONISDGRANGranbury ISD School Board Trustee, Pl 1                 Chris Tackett                         PRECINCT 3                                             01 
01230030003000000000000000000000000000000000000   ISDGRANGranbury ISD School Board Trustee, Pl 1                 OVER VOTES                            PRECINCT 3                                             01 
01230040003000006000002000004000000000000000000   ISDGRANGranbury ISD School Board Trustee, Pl 1                 UNDER VOTES                           PRECINCT 3                                             01 
01240010001000316000153000163000000000000000000NON       Constitutional Amendment                                FOR  (A FAVOR)                        PRECINCT 1                                             01Y
01240010002000408000212000195000001000000000000NON       Constitutional Amendment                                FOR  (A FAVOR)                        PRECINCT 2                                             01Y
01240010003000336000171000165000000000000000000NON       Constitutional Amendment                                FOR  (A FAVOR)                        PRECINCT 3                                             01Y
01240010004000359000176000183000000000000000000NON       Constitutional Amendment                                FOR  (A FAVOR)                        PRECINCT 4                                             01Y
01240020001000063000024000038000000000001000000NON       Constitutional Amendment                                AGAINST  (EN CONTRA)                  PRECINCT 1                                             01Y
01240020002000091000041000050000000000000000000NON       Constitutional Amendment                                AGAINST  (EN CONTRA)                  PRECINCT 2                                             01Y
01240020003000068000031000037000000000000000000NON       Constitutional Amendment                                AGAINST  (EN CONTRA)                  PRECINCT 3                                             01Y
01240020004000079000032000047000000000000000000NON       Constitutional Amendment                                AGAINST  (EN CONTRA)                  PRECINCT 4                                             01Y
01240030001000000000000000000000000000000000000          Constitutional Amendment                                OVER VOTES                            PRECINCT 1                                             01Y
01240030002000000000000000000000000000000000000          Constitutional Amendment                                OVER VOTES                            PRECINCT 2                                             01Y
01240030003000000000000000000000000000000000000          Constitutional Amendment                                OVER VOTES                            PRECINCT 3                                             01Y
01240030004000000000000000000000000000000000000          Constitutional Amendment                                OVER VOTES                            PRECINCT 4                                             01Y
01240040001000099000046000053000000000000000000          Constitutional Amendment                                UNDER VOTES                           PRECINCT 1                                             01Y
01240040002000160000076000084000000000000000000          Constitutional Amendment                                UNDER VOTES                           PRECINCT 2                                             01Y
01240040003000123000051000072000000000000000000          Constitutional Amendment                                UNDER VOTES                           PRECINCT 3                                             01Y
01240040004000133000067000066000000000000000000          Constitutional Amendment                                UNDER VOTES                           PRECINCT 4                                             01Y
