00880011065000184NONISDSOM2Somerset ISD Single Member District 2                   Omar Pachecano                                                                               01 
00880011066000001NONISDSOM2Somerset ISD Single Member District 2                   Omar Pachecano                                                                               01 
00880021065000137NONISDSOM2Somerset ISD Single Member District 2                   Robert Stevens                                                                               01 
00880021066000003NONISDSOM2Somerset ISD Single Member District 2                   Robert Stevens                                                                               01 
00880031065000000   ISDSOM2Somerset ISD Single Member District 2                   OVER VOTES                                                                                   01 
00880031066000000   ISDSOM2Somerset ISD Single Member District 2                   OVER VOTES                                                                                   01 
00880041065000048   ISDSOM2Somerset ISD Single Member District 2                   UNDER VOTES                                                                                  01 
00880041066000000   ISDSOM2Somerset ISD Single Member District 2                   UNDER VOTES                                                                                  01 
00890011062000001NONISDSOM3Somerset ISD Single Member District 3                   Elizabeth Hood Hansen                                                                        01 
00890011063000054NONISDSOM3Somerset ISD Single Member District 3                   Elizabeth Hood Hansen                                                                        01 
00890011064000003NONISDSOM3Somerset ISD Single Member District 3                   Elizabeth Hood Hansen                                                                        01 
00890011065000035NONISDSOM3Somerset ISD Single Member District 3                   Elizabeth Hood Hansen                                                                        01 
00890021062000000NONISDSOM3Somerset ISD Single Member District 3                   Iris Ledezma                                                                                 01 
00890021063000023NONISDSOM3Somerset ISD Single Member District 3                   Iris Ledezma                                                                                 01 
00890021064000002NONISDSOM3Somerset ISD Single Member District 3                   Iris Ledezma                                                                                 01 
00890021065000044NONISDSOM3Somerset ISD Single Member District 3                   Iris Ledezma                                                                                 01 
00890031062000000NONISDSOM3Somerset ISD Single Member District 3                   Dora M. Nguyen                                                                               01 
00890031063000003NONISDSOM3Somerset ISD Single Member District 3                   Dora M. Nguyen                                                                               01 
00890031064000001NONISDSOM3Somerset ISD Single Member District 3                   Dora M. Nguyen                                                                               01 
00890031065000007NONISDSOM3Somerset ISD Single Member District 3                   Dora M. Nguyen                                                                               01 
00890041062000000NONISDSOM3Somerset ISD Single Member District 3                   Skylar Alcoser Caddell                                                                       01 
00890041063000009NONISDSOM3Somerset ISD Single Member District 3                   Skylar Alcoser Caddell                                                                       01 
00890041064000002NONISDSOM3Somerset ISD Single Member District 3                   Skylar Alcoser Caddell                                                                       01 
00890041065000029NONISDSOM3Somerset ISD Single Member District 3                   Skylar Alcoser Caddell                                                                       01 
00890051062000000   ISDSOM3Somerset ISD Single Member District 3                   OVER VOTES                                                                                   01 
00890051063000000   ISDSOM3Somerset ISD Single Member District 3                   OVER VOTES                                                                                   01 
00890051064000000   ISDSOM3Somerset ISD Single Member District 3                   OVER VOTES                                                                                   01 
00890051065000000   ISDSOM3Somerset ISD Single Member District 3                   OVER VOTES                                                                                   01 
00890061062000000   ISDSOM3Somerset ISD Single Member District 3                   UNDER VOTES                                                                                  01 
00890061063000012   ISDSOM3Somerset ISD Single Member District 3                   UNDER VOTES                                                                                  01 
00890061064000006   ISDSOM3Somerset ISD Single Member District 3                   UNDER VOTES                                                                                  01 
00890061065000042   ISDSOM3Somerset ISD Single Member District 3                   UNDER VOTES                                                                                  01 
00900011063000114NONISDSOM7Somerset ISD Single Member District 7                   Don Green                                                                                    01 
00900011065000027NONISDSOM7Somerset ISD Single Member District 7                   Don Green                                                                                    01 
00900015555000015NONISDSOM7Somerset ISD Single Member District 7                   Don Green                                                                                    01 
00900021063000052NONISDSOM7Somerset ISD Single Member District 7                   Cecilia Castellano                                                                           01 
00900021065000005NONISDSOM7Somerset ISD Single Member District 7                   Cecilia Castellano                                                                           01 
00900025555000025NONISDSOM7Somerset ISD Single Member District 7                   Cecilia Castellano                                                                           01 
00900031063000000   ISDSOM7Somerset ISD Single Member District 7                   OVER VOTES                                                                                   01 
00900031065000000   ISDSOM7Somerset ISD Single Member District 7                   OVER VOTES                                                                                   01 
00900035555000000   ISDSOM7Somerset ISD Single Member District 7                   OVER VOTES                                                                                   01 
00900041063000022   ISDSOM7Somerset ISD Single Member District 7                   UNDER VOTES                                                                                  01 
00900041065000002   ISDSOM7Somerset ISD Single Member District 7                   UNDER VOTES                                                                                  01 
00900045555000000   ISDSOM7Somerset ISD Single Member District 7                   UNDER VOTES                                                                                  01 
