00910011041000157NONISDSSA1South San Antonio ISD Single Member District 1          Rose Marie Martinez                                                                          01 
00910011042000001NONISDSSA1South San Antonio ISD Single Member District 1          Rose Marie Martinez                                                                          01 
00910011045000082NONISDSSA1South San Antonio ISD Single Member District 1          Rose Marie Martinez                                                                          01 
00910011060000008NONISDSSA1South San Antonio ISD Single Member District 1          Rose Marie Martinez                                                                          01 
00910021041000218NONISDSSA1South San Antonio ISD Single Member District 1          Angelina Osteguin                                                                            01 
00910021042000000NONISDSSA1South San Antonio ISD Single Member District 1          Angelina Osteguin                                                                            01 
00910021045000058NONISDSSA1South San Antonio ISD Single Member District 1          Angelina Osteguin                                                                            01 
00910021060000000NONISDSSA1South San Antonio ISD Single Member District 1          Angelina Osteguin                                                                            01 
00910031041000001   ISDSSA1South San Antonio ISD Single Member District 1          OVER VOTES                                                                                   01 
00910031042000000   ISDSSA1South San Antonio ISD Single Member District 1          OVER VOTES                                                                                   01 
00910031045000000   ISDSSA1South San Antonio ISD Single Member District 1          OVER VOTES                                                                                   01 
00910031060000000   ISDSSA1South San Antonio ISD Single Member District 1          OVER VOTES                                                                                   01 
00910041041000052   ISDSSA1South San Antonio ISD Single Member District 1          UNDER VOTES                                                                                  01 
00910041042000000   ISDSSA1South San Antonio ISD Single Member District 1          UNDER VOTES                                                                                  01 
00910041045000017   ISDSSA1South San Antonio ISD Single Member District 1          UNDER VOTES                                                                                  01 
00910041060000006   ISDSSA1South San Antonio ISD Single Member District 1          UNDER VOTES                                                                                  01 
00920011013000000NONISDSSA4South San Antonio ISD Single Member District 4          Arlene Vela                                                                                  01 
00920011014000010NONISDSSA4South San Antonio ISD Single Member District 4          Arlene Vela                                                                                  01 
00920011022000015NONISDSSA4South San Antonio ISD Single Member District 4          Arlene Vela                                                                                  01 
00920011025000005NONISDSSA4South San Antonio ISD Single Member District 4          Arlene Vela                                                                                  01 
00920011026000026NONISDSSA4South San Antonio ISD Single Member District 4          Arlene Vela                                                                                  01 
00920011040000084NONISDSSA4South San Antonio ISD Single Member District 4          Arlene Vela                                                                                  01 
00920011041000003NONISDSSA4South San Antonio ISD Single Member District 4          Arlene Vela                                                                                  01 
00920011045000009NONISDSSA4South San Antonio ISD Single Member District 4          Arlene Vela                                                                                  01 
00920011046000008NONISDSSA4South San Antonio ISD Single Member District 4          Arlene Vela                                                                                  01 
00920011047000000NONISDSSA4South San Antonio ISD Single Member District 4          Arlene Vela                                                                                  01 
00920011128000064NONISDSSA4South San Antonio ISD Single Member District 4          Arlene Vela                                                                                  01 
00920021013000000NONISDSSA4South San Antonio ISD Single Member District 4          Leticia Guerra                                                                               01 
00920021014000023NONISDSSA4South San Antonio ISD Single Member District 4          Leticia Guerra                                                                               01 
00920021022000020NONISDSSA4South San Antonio ISD Single Member District 4          Leticia Guerra                                                                               01 
00920021025000003NONISDSSA4South San Antonio ISD Single Member District 4          Leticia Guerra                                                                               01 
00920021026000089NONISDSSA4South San Antonio ISD Single Member District 4          Leticia Guerra                                                                               01 
00920021040000094NONISDSSA4South San Antonio ISD Single Member District 4          Leticia Guerra                                                                               01 
00920021041000014NONISDSSA4South San Antonio ISD Single Member District 4          Leticia Guerra                                                                               01 
00920021045000023NONISDSSA4South San Antonio ISD Single Member District 4          Leticia Guerra                                                                               01 
00920021046000006NONISDSSA4South San Antonio ISD Single Member District 4          Leticia Guerra                                                                               01 
00920021047000000NONISDSSA4South San Antonio ISD Single Member District 4          Leticia Guerra                                                                               01 
00920021128000065NONISDSSA4South San Antonio ISD Single Member District 4          Leticia Guerra                                                                               01 
00920031013000000   ISDSSA4South San Antonio ISD Single Member District 4          OVER VOTES                                                                                   01 
00920031014000000   ISDSSA4South San Antonio ISD Single Member District 4          OVER VOTES                                                                                   01 
00920031022000000   ISDSSA4South San Antonio ISD Single Member District 4          OVER VOTES                                                                                   01 
00920031025000000   ISDSSA4South San Antonio ISD Single Member District 4          OVER VOTES                                                                                   01 
00920031026000000   ISDSSA4South San Antonio ISD Single Member District 4          OVER VOTES                                                                                   01 
00920031040000000   ISDSSA4South San Antonio ISD Single Member District 4          OVER VOTES                                                                                   01 
00920031041000000   ISDSSA4South San Antonio ISD Single Member District 4          OVER VOTES                                                                                   01 
00920031045000000   ISDSSA4South San Antonio ISD Single Member District 4          OVER VOTES                                                                                   01 
00920031046000000   ISDSSA4South San Antonio ISD Single Member District 4          OVER VOTES                                                                                   01 
00920031047000000   ISDSSA4South San Antonio ISD Single Member District 4          OVER VOTES                                                                                   01 
00920031128000000   ISDSSA4South San Antonio ISD Single Member District 4          OVER VOTES                                                                                   01 
00920041013000000   ISDSSA4South San Antonio ISD Single Member District 4          UNDER VOTES                                                                                  01 
00920041014000006   ISDSSA4South San Antonio ISD Single Member District 4          UNDER VOTES                                                                                  01 
00920041022000005   ISDSSA4South San Antonio ISD Single Member District 4          UNDER VOTES                                                                                  01 
00920041025000001   ISDSSA4South San Antonio ISD Single Member District 4          UNDER VOTES                                                                                  01 
00920041026000021   ISDSSA4South San Antonio ISD Single Member District 4          UNDER VOTES                                                                                  01 
00920041040000018   ISDSSA4South San Antonio ISD Single Member District 4          UNDER VOTES                                                                                  01 
00920041041000003   ISDSSA4South San Antonio ISD Single Member District 4          UNDER VOTES                                                                                  01 
00920041045000012   ISDSSA4South San Antonio ISD Single Member District 4          UNDER VOTES                                                                                  01 
00920041046000007   ISDSSA4South San Antonio ISD Single Member District 4          UNDER VOTES                                                                                  01 
00920041047000002   ISDSSA4South San Antonio ISD Single Member District 4          UNDER VOTES                                                                                  01 
00920041128000015   ISDSSA4South San Antonio ISD Single Member District 4          UNDER VOTES                                                                                  01 
00930011037000089NONISDSSA7South San Antonio ISD                                   Stacey Estrada                                                                               01 
00930011038000118NONISDSSA7South San Antonio ISD                                   Stacey Estrada                                                                               01 
00930011039000000NONISDSSA7South San Antonio ISD                                   Stacey Estrada                                                                               01 
00930011075000039NONISDSSA7South San Antonio ISD                                   Stacey Estrada                                                                               01 
00930021037000055NONISDSSA7South San Antonio ISD                                   Bill Hernandez                                                                               01 
00930021038000145NONISDSSA7South San Antonio ISD                                   Bill Hernandez                                                                               01 
00930021039000001NONISDSSA7South San Antonio ISD                                   Bill Hernandez                                                                               01 
00930021075000020NONISDSSA7South San Antonio ISD                                   Bill Hernandez                                                                               01 
00930031037000000   ISDSSA7South San Antonio ISD                                   OVER VOTES                                                                                   01 
00930031038000000   ISDSSA7South San Antonio ISD                                   OVER VOTES                                                                                   01 
00930031039000000   ISDSSA7South San Antonio ISD                                   OVER VOTES                                                                                   01 
00930031075000000   ISDSSA7South San Antonio ISD                                   OVER VOTES                                                                                   01 
00930041037000058   ISDSSA7South San Antonio ISD                                   UNDER VOTES                                                                                  01 
00930041038000064   ISDSSA7South San Antonio ISD                                   UNDER VOTES                                                                                  01 
00930041039000001   ISDSSA7South San Antonio ISD                                   UNDER VOTES                                                                                  01 
00930041075000032   ISDSSA7South San Antonio ISD                                   UNDER VOTES                                                                                  01 
