00910011041000102NONISDSSA1South San Antonio ISD Single Member District 1          Rose Marie Martinez                                                                          01 
00910011042000001NONISDSSA1South San Antonio ISD Single Member District 1          Rose Marie Martinez                                                                          01 
00910011045000052NONISDSSA1South San Antonio ISD Single Member District 1          Rose Marie Martinez                                                                          01 
00910011060000005NONISDSSA1South San Antonio ISD Single Member District 1          Rose Marie Martinez                                                                          01 
00910021041000167NONISDSSA1South San Antonio ISD Single Member District 1          Angelina Osteguin                                                                            01 
00910021042000000NONISDSSA1South San Antonio ISD Single Member District 1          Angelina Osteguin                                                                            01 
00910021045000038NONISDSSA1South San Antonio ISD Single Member District 1          Angelina Osteguin                                                                            01 
00910021060000000NONISDSSA1South San Antonio ISD Single Member District 1          Angelina Osteguin                                                                            01 
00910031041000000   ISDSSA1South San Antonio ISD Single Member District 1          OVER VOTES                                                                                   01 
00910031042000000   ISDSSA1South San Antonio ISD Single Member District 1          OVER VOTES                                                                                   01 
00910031045000000   ISDSSA1South San Antonio ISD Single Member District 1          OVER VOTES                                                                                   01 
00910031060000000   ISDSSA1South San Antonio ISD Single Member District 1          OVER VOTES                                                                                   01 
00910041041000038   ISDSSA1South San Antonio ISD Single Member District 1          UNDER VOTES                                                                                  01 
00910041042000000   ISDSSA1South San Antonio ISD Single Member District 1          UNDER VOTES                                                                                  01 
00910041045000011   ISDSSA1South San Antonio ISD Single Member District 1          UNDER VOTES                                                                                  01 
00910041060000004   ISDSSA1South San Antonio ISD Single Member District 1          UNDER VOTES                                                                                  01 
00920011013000000NONISDSSA4South San Antonio ISD Single Member District 4          Arlene Vela                                                                                  01 
00920011014000008NONISDSSA4South San Antonio ISD Single Member District 4          Arlene Vela                                                                                  01 
00920011022000012NONISDSSA4South San Antonio ISD Single Member District 4          Arlene Vela                                                                                  01 
00920011025000002NONISDSSA4South San Antonio ISD Single Member District 4          Arlene Vela                                                                                  01 
00920011026000014NONISDSSA4South San Antonio ISD Single Member District 4          Arlene Vela                                                                                  01 
00920011040000060NONISDSSA4South San Antonio ISD Single Member District 4          Arlene Vela                                                                                  01 
00920011041000002NONISDSSA4South San Antonio ISD Single Member District 4          Arlene Vela                                                                                  01 
00920011045000006NONISDSSA4South San Antonio ISD Single Member District 4          Arlene Vela                                                                                  01 
00920011046000006NONISDSSA4South San Antonio ISD Single Member District 4          Arlene Vela                                                                                  01 
00920011047000000NONISDSSA4South San Antonio ISD Single Member District 4          Arlene Vela                                                                                  01 
00920011128000038NONISDSSA4South San Antonio ISD Single Member District 4          Arlene Vela                                                                                  01 
00920021013000000NONISDSSA4South San Antonio ISD Single Member District 4          Leticia Guerra                                                                               01 
00920021014000018NONISDSSA4South San Antonio ISD Single Member District 4          Leticia Guerra                                                                               01 
00920021022000016NONISDSSA4South San Antonio ISD Single Member District 4          Leticia Guerra                                                                               01 
00920021025000002NONISDSSA4South San Antonio ISD Single Member District 4          Leticia Guerra                                                                               01 
00920021026000063NONISDSSA4South San Antonio ISD Single Member District 4          Leticia Guerra                                                                               01 
00920021040000080NONISDSSA4South San Antonio ISD Single Member District 4          Leticia Guerra                                                                               01 
00920021041000011NONISDSSA4South San Antonio ISD Single Member District 4          Leticia Guerra                                                                               01 
00920021045000009NONISDSSA4South San Antonio ISD Single Member District 4          Leticia Guerra                                                                               01 
00920021046000006NONISDSSA4South San Antonio ISD Single Member District 4          Leticia Guerra                                                                               01 
00920021047000000NONISDSSA4South San Antonio ISD Single Member District 4          Leticia Guerra                                                                               01 
00920021128000053NONISDSSA4South San Antonio ISD Single Member District 4          Leticia Guerra                                                                               01 
00920031013000000   ISDSSA4South San Antonio ISD Single Member District 4          OVER VOTES                                                                                   01 
00920031014000000   ISDSSA4South San Antonio ISD Single Member District 4          OVER VOTES                                                                                   01 
00920031022000000   ISDSSA4South San Antonio ISD Single Member District 4          OVER VOTES                                                                                   01 
00920031025000000   ISDSSA4South San Antonio ISD Single Member District 4          OVER VOTES                                                                                   01 
00920031026000000   ISDSSA4South San Antonio ISD Single Member District 4          OVER VOTES                                                                                   01 
00920031040000000   ISDSSA4South San Antonio ISD Single Member District 4          OVER VOTES                                                                                   01 
00920031041000000   ISDSSA4South San Antonio ISD Single Member District 4          OVER VOTES                                                                                   01 
00920031045000000   ISDSSA4South San Antonio ISD Single Member District 4          OVER VOTES                                                                                   01 
00920031046000000   ISDSSA4South San Antonio ISD Single Member District 4          OVER VOTES                                                                                   01 
00920031047000000   ISDSSA4South San Antonio ISD Single Member District 4          OVER VOTES                                                                                   01 
00920031128000000   ISDSSA4South San Antonio ISD Single Member District 4          OVER VOTES                                                                                   01 
00920041013000000   ISDSSA4South San Antonio ISD Single Member District 4          UNDER VOTES                                                                                  01 
00920041014000002   ISDSSA4South San Antonio ISD Single Member District 4          UNDER VOTES                                                                                  01 
00920041022000004   ISDSSA4South San Antonio ISD Single Member District 4          UNDER VOTES                                                                                  01 
00920041025000001   ISDSSA4South San Antonio ISD Single Member District 4          UNDER VOTES                                                                                  01 
00920041026000010   ISDSSA4South San Antonio ISD Single Member District 4          UNDER VOTES                                                                                  01 
00920041040000016   ISDSSA4South San Antonio ISD Single Member District 4          UNDER VOTES                                                                                  01 
00920041041000002   ISDSSA4South San Antonio ISD Single Member District 4          UNDER VOTES                                                                                  01 
00920041045000007   ISDSSA4South San Antonio ISD Single Member District 4          UNDER VOTES                                                                                  01 
00920041046000006   ISDSSA4South San Antonio ISD Single Member District 4          UNDER VOTES                                                                                  01 
00920041047000001   ISDSSA4South San Antonio ISD Single Member District 4          UNDER VOTES                                                                                  01 
00920041128000011   ISDSSA4South San Antonio ISD Single Member District 4          UNDER VOTES                                                                                  01 
00930011037000045NONISDSSA7South San Antonio ISD                                   Stacey Estrada                                                                               01 
00930011038000075NONISDSSA7South San Antonio ISD                                   Stacey Estrada                                                                               01 
00930011039000000NONISDSSA7South San Antonio ISD                                   Stacey Estrada                                                                               01 
00930011075000019NONISDSSA7South San Antonio ISD                                   Stacey Estrada                                                                               01 
00930021037000036NONISDSSA7South San Antonio ISD                                   Bill Hernandez                                                                               01 
00930021038000087NONISDSSA7South San Antonio ISD                                   Bill Hernandez                                                                               01 
00930021039000001NONISDSSA7South San Antonio ISD                                   Bill Hernandez                                                                               01 
00930021075000013NONISDSSA7South San Antonio ISD                                   Bill Hernandez                                                                               01 
00930031037000000   ISDSSA7South San Antonio ISD                                   OVER VOTES                                                                                   01 
00930031038000000   ISDSSA7South San Antonio ISD                                   OVER VOTES                                                                                   01 
00930031039000000   ISDSSA7South San Antonio ISD                                   OVER VOTES                                                                                   01 
00930031075000000   ISDSSA7South San Antonio ISD                                   OVER VOTES                                                                                   01 
00930041037000045   ISDSSA7South San Antonio ISD                                   UNDER VOTES                                                                                  01 
00930041038000045   ISDSSA7South San Antonio ISD                                   UNDER VOTES                                                                                  01 
00930041039000001   ISDSSA7South San Antonio ISD                                   UNDER VOTES                                                                                  01 
00930041075000022   ISDSSA7South San Antonio ISD                                   UNDER VOTES                                                                                  01 
