01050010001000001REP       United States Senator                                   Linda Vega                            PRECINCT 1                                             01 
01050010002000003REP       United States Senator                                   Linda Vega                            PRECINCT 2                                             01 
01050010003000002REP       United States Senator                                   Linda Vega                            PRECINCT 3                                             01 
01050010004000002REP       United States Senator                                   Linda Vega                            PRECINCT 4                                             01 
01050010005000005REP       United States Senator                                   Linda Vega                            PRECINCT 6                                             01 
01050010006000002REP       United States Senator                                   Linda Vega                            PRECINCT 7                                             01 
01050010007000002REP       United States Senator                                   Linda Vega                            PRECINCT 9                                             01 
01050010008000001REP       United States Senator                                   Linda Vega                            PRECINCT 11                                            01 
01050020001000008REP       United States Senator                                   Ken Cope                              PRECINCT 1                                             01 
01050020002000002REP       United States Senator                                   Ken Cope                              PRECINCT 2                                             01 
01050020003000003REP       United States Senator                                   Ken Cope                              PRECINCT 3                                             01 
01050020004000003REP       United States Senator                                   Ken Cope                              PRECINCT 4                                             01 
01050020005000003REP       United States Senator                                   Ken Cope                              PRECINCT 6                                             01 
01050020006000004REP       United States Senator                                   Ken Cope                              PRECINCT 7                                             01 
01050020007000001REP       United States Senator                                   Ken Cope                              PRECINCT 9                                             01 
01050020008000001REP       United States Senator                                   Ken Cope                              PRECINCT 11                                            01 
01050030001000000REP       United States Senator                                   Reid Reasor                           PRECINCT 1                                             01 
01050030002000003REP       United States Senator                                   Reid Reasor                           PRECINCT 2                                             01 
01050030003000000REP       United States Senator                                   Reid Reasor                           PRECINCT 3                                             01 
01050030004000000REP       United States Senator                                   Reid Reasor                           PRECINCT 4                                             01 
01050030005000001REP       United States Senator                                   Reid Reasor                           PRECINCT 6                                             01 
01050030006000001REP       United States Senator                                   Reid Reasor                           PRECINCT 7                                             01 
01050030007000000REP       United States Senator                                   Reid Reasor                           PRECINCT 9                                             01 
01050030008000000REP       United States Senator                                   Reid Reasor                           PRECINCT 11                                            01 
01050040001000002REP       United States Senator                                   Curt Cleaver                          PRECINCT 1                                             01 
01050040002000002REP       United States Senator                                   Curt Cleaver                          PRECINCT 2                                             01 
01050040003000000REP       United States Senator                                   Curt Cleaver                          PRECINCT 3                                             01 
01050040004000000REP       United States Senator                                   Curt Cleaver                          PRECINCT 4                                             01 
01050040005000001REP       United States Senator                                   Curt Cleaver                          PRECINCT 6                                             01 
01050040006000002REP       United States Senator                                   Curt Cleaver                          PRECINCT 7                                             01 
01050040007000000REP       United States Senator                                   Curt Cleaver                          PRECINCT 9                                             01 
01050040008000002REP       United States Senator                                   Curt Cleaver                          PRECINCT 11                                            01 
01050050001000000REP       United States Senator                                   Chris Mapp                            PRECINCT 1                                             01 
01050050002000003REP       United States Senator                                   Chris Mapp                            PRECINCT 2                                             01 
01050050003000000REP       United States Senator                                   Chris Mapp                            PRECINCT 3                                             01 
01050050004000000REP       United States Senator                                   Chris Mapp                            PRECINCT 4                                             01 
01050050005000001REP       United States Senator                                   Chris Mapp                            PRECINCT 6                                             01 
01050050006000000REP       United States Senator                                   Chris Mapp                            PRECINCT 7                                             01 
01050050007000000REP       United States Senator                                   Chris Mapp                            PRECINCT 9                                             01 
01050050008000000REP       United States Senator                                   Chris Mapp                            PRECINCT 11                                            01 
01050060001000007REP       United States Senator                                   Dwayne Stovall                        PRECINCT 1                                             01 
01050060002000007REP       United States Senator                                   Dwayne Stovall                        PRECINCT 2                                             01 
01050060003000004REP       United States Senator                                   Dwayne Stovall                        PRECINCT 3                                             01 
01050060004000003REP       United States Senator                                   Dwayne Stovall                        PRECINCT 4                                             01 
01050060005000006REP       United States Senator                                   Dwayne Stovall                        PRECINCT 6                                             01 
01050060006000008REP       United States Senator                                   Dwayne Stovall                        PRECINCT 7                                             01 
01050060007000000REP       United States Senator                                   Dwayne Stovall                        PRECINCT 9                                             01 
01050060008000003REP       United States Senator                                   Dwayne Stovall                        PRECINCT 11                                            01 
01050070001000005REP       United States Senator                                   Steve Stockman                        PRECINCT 1                                             01 
01050070002000011REP       United States Senator                                   Steve Stockman                        PRECINCT 2                                             01 
01050070003000011REP       United States Senator                                   Steve Stockman                        PRECINCT 3                                             01 
01050070004000003REP       United States Senator                                   Steve Stockman                        PRECINCT 4                                             01 
01050070005000003REP       United States Senator                                   Steve Stockman                        PRECINCT 6                                             01 
01050070006000012REP       United States Senator                                   Steve Stockman                        PRECINCT 7                                             01 
01050070007000000REP       United States Senator                                   Steve Stockman                        PRECINCT 9                                             01 
01050070008000005REP       United States Senator                                   Steve Stockman                        PRECINCT 11                                            01 
01050080001000028REP       United States Senator                                   John Cornyn                           PRECINCT 1                                             01 
01050080002000050REP       United States Senator                                   John Cornyn                           PRECINCT 2                                             01 
01050080003000050REP       United States Senator                                   John Cornyn                           PRECINCT 3                                             01 
01050080004000014REP       United States Senator                                   John Cornyn                           PRECINCT 4                                             01 
01050080005000042REP       United States Senator                                   John Cornyn                           PRECINCT 6                                             01 
01050080006000038REP       United States Senator                                   John Cornyn                           PRECINCT 7                                             01 
01050080007000009REP       United States Senator                                   John Cornyn                           PRECINCT 9                                             01 
01050080008000030REP       United States Senator                                   John Cornyn                           PRECINCT 11                                            01 
01050090001000000REP       United States Senator                                   OVER VOTES                            PRECINCT 1                                             01 
01050090002000000REP       United States Senator                                   OVER VOTES                            PRECINCT 2                                             01 
01050090003000000REP       United States Senator                                   OVER VOTES                            PRECINCT 3                                             01 
01050090004000000REP       United States Senator                                   OVER VOTES                            PRECINCT 4                                             01 
01050090005000000REP       United States Senator                                   OVER VOTES                            PRECINCT 6                                             01 
01050090006000000REP       United States Senator                                   OVER VOTES                            PRECINCT 7                                             01 
01050090007000000REP       United States Senator                                   OVER VOTES                            PRECINCT 9                                             01 
01050090008000000REP       United States Senator                                   OVER VOTES                            PRECINCT 11                                            01 
01050100001000002REP       United States Senator                                   UNDER VOTES                           PRECINCT 1                                             01 
01050100002000006REP       United States Senator                                   UNDER VOTES                           PRECINCT 2                                             01 
01050100003000003REP       United States Senator                                   UNDER VOTES                           PRECINCT 3                                             01 
01050100004000001REP       United States Senator                                   UNDER VOTES                           PRECINCT 4                                             01 
01050100005000002REP       United States Senator                                   UNDER VOTES                           PRECINCT 6                                             01 
01050100006000004REP       United States Senator                                   UNDER VOTES                           PRECINCT 7                                             01 
01050100007000001REP       United States Senator                                   UNDER VOTES                           PRECINCT 9                                             01 
01050100008000000REP       United States Senator                                   UNDER VOTES                           PRECINCT 11                                            01 
01060010001000006REP       United States Rep, District 13                          Pam Barlow                            PRECINCT 1                                             01 
01060010002000008REP       United States Rep, District 13                          Pam Barlow                            PRECINCT 2                                             01 
01060010003000003REP       United States Rep, District 13                          Pam Barlow                            PRECINCT 3                                             01 
01060010004000006REP       United States Rep, District 13                          Pam Barlow                            PRECINCT 4                                             01 
01060010005000001REP       United States Rep, District 13                          Pam Barlow                            PRECINCT 6                                             01 
01060010006000014REP       United States Rep, District 13                          Pam Barlow                            PRECINCT 7                                             01 
01060010007000000REP       United States Rep, District 13                          Pam Barlow                            PRECINCT 9                                             01 
01060010008000002REP       United States Rep, District 13                          Pam Barlow                            PRECINCT 11                                            01 
01060020001000039REP       United States Rep, District 13                          Mac Thornberry                        PRECINCT 1                                             01 
01060020002000061REP       United States Rep, District 13                          Mac Thornberry                        PRECINCT 2                                             01 
01060020003000066REP       United States Rep, District 13                          Mac Thornberry                        PRECINCT 3                                             01 
01060020004000015REP       United States Rep, District 13                          Mac Thornberry                        PRECINCT 4                                             01 
01060020005000056REP       United States Rep, District 13                          Mac Thornberry                        PRECINCT 6                                             01 
01060020006000044REP       United States Rep, District 13                          Mac Thornberry                        PRECINCT 7                                             01 
01060020007000011REP       United States Rep, District 13                          Mac Thornberry                        PRECINCT 9                                             01 
01060020008000034REP       United States Rep, District 13                          Mac Thornberry                        PRECINCT 11                                            01 
01060030001000007REP       United States Rep, District 13                          Elaine Hays                           PRECINCT 1                                             01 
01060030002000013REP       United States Rep, District 13                          Elaine Hays                           PRECINCT 2                                             01 
01060030003000003REP       United States Rep, District 13                          Elaine Hays                           PRECINCT 3                                             01 
01060030004000004REP       United States Rep, District 13                          Elaine Hays                           PRECINCT 4                                             01 
01060030005000006REP       United States Rep, District 13                          Elaine Hays                           PRECINCT 6                                             01 
01060030006000012REP       United States Rep, District 13                          Elaine Hays                           PRECINCT 7                                             01 
01060030007000002REP       United States Rep, District 13                          Elaine Hays                           PRECINCT 9                                             01 
01060030008000006REP       United States Rep, District 13                          Elaine Hays                           PRECINCT 11                                            01 
01060040001000000REP       United States Rep, District 13                          OVER VOTES                            PRECINCT 1                                             01 
01060040002000000REP       United States Rep, District 13                          OVER VOTES                            PRECINCT 2                                             01 
01060040003000000REP       United States Rep, District 13                          OVER VOTES                            PRECINCT 3                                             01 
01060040004000000REP       United States Rep, District 13                          OVER VOTES                            PRECINCT 4                                             01 
01060040005000000REP       United States Rep, District 13                          OVER VOTES                            PRECINCT 6                                             01 
01060040006000000REP       United States Rep, District 13                          OVER VOTES                            PRECINCT 7                                             01 
01060040007000000REP       United States Rep, District 13                          OVER VOTES                            PRECINCT 9                                             01 
01060040008000000REP       United States Rep, District 13                          OVER VOTES                            PRECINCT 11                                            01 
01060050001000001REP       United States Rep, District 13                          UNDER VOTES                           PRECINCT 1                                             01 
01060050002000005REP       United States Rep, District 13                          UNDER VOTES                           PRECINCT 2                                             01 
01060050003000001REP       United States Rep, District 13                          UNDER VOTES                           PRECINCT 3                                             01 
01060050004000001REP       United States Rep, District 13                          UNDER VOTES                           PRECINCT 4                                             01 
01060050005000001REP       United States Rep, District 13                          UNDER VOTES                           PRECINCT 6                                             01 
01060050006000001REP       United States Rep, District 13                          UNDER VOTES                           PRECINCT 7                                             01 
01060050007000000REP       United States Rep, District 13                          UNDER VOTES                           PRECINCT 9                                             01 
01060050008000000REP       United States Rep, District 13                          UNDER VOTES                           PRECINCT 11                                            01 
01070010001000046REP       Governor                                                Greg Abbott                           PRECINCT 1                                             01 
01070010002000073REP       Governor                                                Greg Abbott                           PRECINCT 2                                             01 
01070010003000067REP       Governor                                                Greg Abbott                           PRECINCT 3                                             01 
01070010004000021REP       Governor                                                Greg Abbott                           PRECINCT 4                                             01 
01070010005000052REP       Governor                                                Greg Abbott                           PRECINCT 6                                             01 
01070010006000063REP       Governor                                                Greg Abbott                           PRECINCT 7                                             01 
01070010007000006REP       Governor                                                Greg Abbott                           PRECINCT 9                                             01 
01070010008000038REP       Governor                                                Greg Abbott                           PRECINCT 11                                            01 
01070020001000003REP       Governor                                                Lisa Fritsch                          PRECINCT 1                                             01 
01070020002000006REP       Governor                                                Lisa Fritsch                          PRECINCT 2                                             01 
01070020003000002REP       Governor                                                Lisa Fritsch                          PRECINCT 3                                             01 
01070020004000002REP       Governor                                                Lisa Fritsch                          PRECINCT 4                                             01 
01070020005000003REP       Governor                                                Lisa Fritsch                          PRECINCT 6                                             01 
01070020006000003REP       Governor                                                Lisa Fritsch                          PRECINCT 7                                             01 
01070020007000006REP       Governor                                                Lisa Fritsch                          PRECINCT 9                                             01 
01070020008000002REP       Governor                                                Lisa Fritsch                          PRECINCT 11                                            01 
01070030001000001REP       Governor                                                Miriam Martinez                       PRECINCT 1                                             01 
01070030002000002REP       Governor                                                Miriam Martinez                       PRECINCT 2                                             01 
01070030003000000REP       Governor                                                Miriam Martinez                       PRECINCT 3                                             01 
01070030004000001REP       Governor                                                Miriam Martinez                       PRECINCT 4                                             01 
01070030005000003REP       Governor                                                Miriam Martinez                       PRECINCT 6                                             01 
01070030006000000REP       Governor                                                Miriam Martinez                       PRECINCT 7                                             01 
01070030007000000REP       Governor                                                Miriam Martinez                       PRECINCT 9                                             01 
01070030008000001REP       Governor                                                Miriam Martinez                       PRECINCT 11                                            01 
01070040001000000REP       Governor                                                SECEDE Kilgore                        PRECINCT 1                                             01 
01070040002000002REP       Governor                                                SECEDE Kilgore                        PRECINCT 2                                             01 
01070040003000000REP       Governor                                                SECEDE Kilgore                        PRECINCT 3                                             01 
01070040004000001REP       Governor                                                SECEDE Kilgore                        PRECINCT 4                                             01 
01070040005000004REP       Governor                                                SECEDE Kilgore                        PRECINCT 6                                             01 
01070040006000003REP       Governor                                                SECEDE Kilgore                        PRECINCT 7                                             01 
01070040007000001REP       Governor                                                SECEDE Kilgore                        PRECINCT 9                                             01 
01070040008000000REP       Governor                                                SECEDE Kilgore                        PRECINCT 11                                            01 
01070050001000000REP       Governor                                                OVER VOTES                            PRECINCT 1                                             01 
01070050002000000REP       Governor                                                OVER VOTES                            PRECINCT 2                                             01 
01070050003000000REP       Governor                                                OVER VOTES                            PRECINCT 3                                             01 
01070050004000000REP       Governor                                                OVER VOTES                            PRECINCT 4                                             01 
01070050005000000REP       Governor                                                OVER VOTES                            PRECINCT 6                                             01 
01070050006000000REP       Governor                                                OVER VOTES                            PRECINCT 7                                             01 
01070050007000000REP       Governor                                                OVER VOTES                            PRECINCT 9                                             01 
01070050008000000REP       Governor                                                OVER VOTES                            PRECINCT 11                                            01 
01070060001000003REP       Governor                                                UNDER VOTES                           PRECINCT 1                                             01 
01070060002000004REP       Governor                                                UNDER VOTES                           PRECINCT 2                                             01 
01070060003000004REP       Governor                                                UNDER VOTES                           PRECINCT 3                                             01 
01070060004000001REP       Governor                                                UNDER VOTES                           PRECINCT 4                                             01 
01070060005000002REP       Governor                                                UNDER VOTES                           PRECINCT 6                                             01 
01070060006000002REP       Governor                                                UNDER VOTES                           PRECINCT 7                                             01 
01070060007000000REP       Governor                                                UNDER VOTES                           PRECINCT 9                                             01 
01070060008000001REP       Governor                                                UNDER VOTES                           PRECINCT 11                                            01 
01080010001000006REP       Lieutenant Governor                                     Jerry Patterson                       PRECINCT 1                                             01 
01080010002000009REP       Lieutenant Governor                                     Jerry Patterson                       PRECINCT 2                                             01 
01080010003000003REP       Lieutenant Governor                                     Jerry Patterson                       PRECINCT 3                                             01 
01080010004000002REP       Lieutenant Governor                                     Jerry Patterson                       PRECINCT 4                                             01 
01080010005000005REP       Lieutenant Governor                                     Jerry Patterson                       PRECINCT 6                                             01 
01080010006000011REP       Lieutenant Governor                                     Jerry Patterson                       PRECINCT 7                                             01 
01080010007000004REP       Lieutenant Governor                                     Jerry Patterson                       PRECINCT 9                                             01 
01080010008000001REP       Lieutenant Governor                                     Jerry Patterson                       PRECINCT 11                                            01 
01080020001000027REP       Lieutenant Governor                                     David Dewhurst                        PRECINCT 1                                             01 
01080020002000033REP       Lieutenant Governor                                     David Dewhurst                        PRECINCT 2                                             01 
01080020003000021REP       Lieutenant Governor                                     David Dewhurst                        PRECINCT 3                                             01 
01080020004000008REP       Lieutenant Governor                                     David Dewhurst                        PRECINCT 4                                             01 
01080020005000025REP       Lieutenant Governor                                     David Dewhurst                        PRECINCT 6                                             01 
01080020006000023REP       Lieutenant Governor                                     David Dewhurst                        PRECINCT 7                                             01 
01080020007000004REP       Lieutenant Governor                                     David Dewhurst                        PRECINCT 9                                             01 
01080020008000012REP       Lieutenant Governor                                     David Dewhurst                        PRECINCT 11                                            01 
01080030001000009REP       Lieutenant Governor                                     Todd Staples                          PRECINCT 1                                             01 
01080030002000015REP       Lieutenant Governor                                     Todd Staples                          PRECINCT 2                                             01 
01080030003000022REP       Lieutenant Governor                                     Todd Staples                          PRECINCT 3                                             01 
01080030004000007REP       Lieutenant Governor                                     Todd Staples                          PRECINCT 4                                             01 
01080030005000011REP       Lieutenant Governor                                     Todd Staples                          PRECINCT 6                                             01 
01080030006000019REP       Lieutenant Governor                                     Todd Staples                          PRECINCT 7                                             01 
01080030007000003REP       Lieutenant Governor                                     Todd Staples                          PRECINCT 9                                             01 
01080030008000014REP       Lieutenant Governor                                     Todd Staples                          PRECINCT 11                                            01 
01080040001000010REP       Lieutenant Governor                                     Dan Patrick                           PRECINCT 1                                             01 
01080040002000024REP       Lieutenant Governor                                     Dan Patrick                           PRECINCT 2                                             01 
01080040003000026REP       Lieutenant Governor                                     Dan Patrick                           PRECINCT 3                                             01 
01080040004000008REP       Lieutenant Governor                                     Dan Patrick                           PRECINCT 4                                             01 
01080040005000022REP       Lieutenant Governor                                     Dan Patrick                           PRECINCT 6                                             01 
01080040006000018REP       Lieutenant Governor                                     Dan Patrick                           PRECINCT 7                                             01 
01080040007000002REP       Lieutenant Governor                                     Dan Patrick                           PRECINCT 9                                             01 
01080040008000015REP       Lieutenant Governor                                     Dan Patrick                           PRECINCT 11                                            01 
01080050001000000REP       Lieutenant Governor                                     OVER VOTES                            PRECINCT 1                                             01 
01080050002000000REP       Lieutenant Governor                                     OVER VOTES                            PRECINCT 2                                             01 
01080050003000000REP       Lieutenant Governor                                     OVER VOTES                            PRECINCT 3                                             01 
01080050004000000REP       Lieutenant Governor                                     OVER VOTES                            PRECINCT 4                                             01 
01080050005000000REP       Lieutenant Governor                                     OVER VOTES                            PRECINCT 6                                             01 
01080050006000000REP       Lieutenant Governor                                     OVER VOTES                            PRECINCT 7                                             01 
01080050007000000REP       Lieutenant Governor                                     OVER VOTES                            PRECINCT 9                                             01 
01080050008000000REP       Lieutenant Governor                                     OVER VOTES                            PRECINCT 11                                            01 
01080060001000001REP       Lieutenant Governor                                     UNDER VOTES                           PRECINCT 1                                             01 
01080060002000006REP       Lieutenant Governor                                     UNDER VOTES                           PRECINCT 2                                             01 
01080060003000001REP       Lieutenant Governor                                     UNDER VOTES                           PRECINCT 3                                             01 
01080060004000001REP       Lieutenant Governor                                     UNDER VOTES                           PRECINCT 4                                             01 
01080060005000001REP       Lieutenant Governor                                     UNDER VOTES                           PRECINCT 6                                             01 
01080060006000000REP       Lieutenant Governor                                     UNDER VOTES                           PRECINCT 7                                             01 
01080060007000000REP       Lieutenant Governor                                     UNDER VOTES                           PRECINCT 9                                             01 
01080060008000000REP       Lieutenant Governor                                     UNDER VOTES                           PRECINCT 11                                            01 
01090010001000024REP       Attorney General                                        Dan Branch                            PRECINCT 1                                             01 
01090010002000030REP       Attorney General                                        Dan Branch                            PRECINCT 2                                             01 
01090010003000036REP       Attorney General                                        Dan Branch                            PRECINCT 3                                             01 
01090010004000010REP       Attorney General                                        Dan Branch                            PRECINCT 4                                             01 
01090010005000025REP       Attorney General                                        Dan Branch                            PRECINCT 6                                             01 
01090010006000031REP       Attorney General                                        Dan Branch                            PRECINCT 7                                             01 
01090010007000004REP       Attorney General                                        Dan Branch                            PRECINCT 9                                             01 
01090010008000010REP       Attorney General                                        Dan Branch                            PRECINCT 11                                            01 
01090020001000006REP       Attorney General                                        Barry Smitherman                      PRECINCT 1                                             01 
01090020002000013REP       Attorney General                                        Barry Smitherman                      PRECINCT 2                                             01 
01090020003000016REP       Attorney General                                        Barry Smitherman                      PRECINCT 3                                             01 
01090020004000004REP       Attorney General                                        Barry Smitherman                      PRECINCT 4                                             01 
01090020005000014REP       Attorney General                                        Barry Smitherman                      PRECINCT 6                                             01 
01090020006000009REP       Attorney General                                        Barry Smitherman                      PRECINCT 7                                             01 
01090020007000003REP       Attorney General                                        Barry Smitherman                      PRECINCT 9                                             01 
01090020008000012REP       Attorney General                                        Barry Smitherman                      PRECINCT 11                                            01 
01090030001000019REP       Attorney General                                        Ken Paxton                            PRECINCT 1                                             01 
01090030002000036REP       Attorney General                                        Ken Paxton                            PRECINCT 2                                             01 
01090030003000018REP       Attorney General                                        Ken Paxton                            PRECINCT 3                                             01 
01090030004000011REP       Attorney General                                        Ken Paxton                            PRECINCT 4                                             01 
01090030005000022REP       Attorney General                                        Ken Paxton                            PRECINCT 6                                             01 
01090030006000026REP       Attorney General                                        Ken Paxton                            PRECINCT 7                                             01 
01090030007000005REP       Attorney General                                        Ken Paxton                            PRECINCT 9                                             01 
01090030008000017REP       Attorney General                                        Ken Paxton                            PRECINCT 11                                            01 
01090040001000000REP       Attorney General                                        OVER VOTES                            PRECINCT 1                                             01 
01090040002000000REP       Attorney General                                        OVER VOTES                            PRECINCT 2                                             01 
01090040003000000REP       Attorney General                                        OVER VOTES                            PRECINCT 3                                             01 
01090040004000000REP       Attorney General                                        OVER VOTES                            PRECINCT 4                                             01 
01090040005000000REP       Attorney General                                        OVER VOTES                            PRECINCT 6                                             01 
01090040006000000REP       Attorney General                                        OVER VOTES                            PRECINCT 7                                             01 
01090040007000000REP       Attorney General                                        OVER VOTES                            PRECINCT 9                                             01 
01090040008000000REP       Attorney General                                        OVER VOTES                            PRECINCT 11                                            01 
01090050001000004REP       Attorney General                                        UNDER VOTES                           PRECINCT 1                                             01 
01090050002000008REP       Attorney General                                        UNDER VOTES                           PRECINCT 2                                             01 
01090050003000003REP       Attorney General                                        UNDER VOTES                           PRECINCT 3                                             01 
01090050004000001REP       Attorney General                                        UNDER VOTES                           PRECINCT 4                                             01 
01090050005000003REP       Attorney General                                        UNDER VOTES                           PRECINCT 6                                             01 
01090050006000005REP       Attorney General                                        UNDER VOTES                           PRECINCT 7                                             01 
01090050007000001REP       Attorney General                                        UNDER VOTES                           PRECINCT 9                                             01 
01090050008000003REP       Attorney General                                        UNDER VOTES                           PRECINCT 11                                            01 
01100010001000008REP       Comptroller of Public Accounts                          Debra Medina                          PRECINCT 1                                             01 
01100010002000013REP       Comptroller of Public Accounts                          Debra Medina                          PRECINCT 2                                             01 
01100010003000011REP       Comptroller of Public Accounts                          Debra Medina                          PRECINCT 3                                             01 
01100010004000005REP       Comptroller of Public Accounts                          Debra Medina                          PRECINCT 4                                             01 
01100010005000012REP       Comptroller of Public Accounts                          Debra Medina                          PRECINCT 6                                             01 
01100010006000009REP       Comptroller of Public Accounts                          Debra Medina                          PRECINCT 7                                             01 
01100010007000003REP       Comptroller of Public Accounts                          Debra Medina                          PRECINCT 9                                             01 
01100010008000005REP       Comptroller of Public Accounts                          Debra Medina                          PRECINCT 11                                            01 
01100020001000018REP       Comptroller of Public Accounts                          Harvey Hilderbran                     PRECINCT 1                                             01 
01100020002000021REP       Comptroller of Public Accounts                          Harvey Hilderbran                     PRECINCT 2                                             01 
01100020003000028REP       Comptroller of Public Accounts                          Harvey Hilderbran                     PRECINCT 3                                             01 
01100020004000007REP       Comptroller of Public Accounts                          Harvey Hilderbran                     PRECINCT 4                                             01 
01100020005000019REP       Comptroller of Public Accounts                          Harvey Hilderbran                     PRECINCT 6                                             01 
01100020006000021REP       Comptroller of Public Accounts                          Harvey Hilderbran                     PRECINCT 7                                             01 
01100020007000005REP       Comptroller of Public Accounts                          Harvey Hilderbran                     PRECINCT 9                                             01 
01100020008000017REP       Comptroller of Public Accounts                          Harvey Hilderbran                     PRECINCT 11                                            01 
01100030001000002REP       Comptroller of Public Accounts                          Raul Torres                           PRECINCT 1                                             01 
01100030002000002REP       Comptroller of Public Accounts                          Raul Torres                           PRECINCT 2                                             01 
01100030003000003REP       Comptroller of Public Accounts                          Raul Torres                           PRECINCT 3                                             01 
01100030004000001REP       Comptroller of Public Accounts                          Raul Torres                           PRECINCT 4                                             01 
01100030005000002REP       Comptroller of Public Accounts                          Raul Torres                           PRECINCT 6                                             01 
01100030006000000REP       Comptroller of Public Accounts                          Raul Torres                           PRECINCT 7                                             01 
01100030007000000REP       Comptroller of Public Accounts                          Raul Torres                           PRECINCT 9                                             01 
01100030008000003REP       Comptroller of Public Accounts                          Raul Torres                           PRECINCT 11                                            01 
01100040001000020REP       Comptroller of Public Accounts                          Glenn Hegar                           PRECINCT 1                                             01 
01100040002000040REP       Comptroller of Public Accounts                          Glenn Hegar                           PRECINCT 2                                             01 
01100040003000027REP       Comptroller of Public Accounts                          Glenn Hegar                           PRECINCT 3                                             01 
01100040004000012REP       Comptroller of Public Accounts                          Glenn Hegar                           PRECINCT 4                                             01 
01100040005000027REP       Comptroller of Public Accounts                          Glenn Hegar                           PRECINCT 6                                             01 
01100040006000034REP       Comptroller of Public Accounts                          Glenn Hegar                           PRECINCT 7                                             01 
01100040007000004REP       Comptroller of Public Accounts                          Glenn Hegar                           PRECINCT 9                                             01 
01100040008000015REP       Comptroller of Public Accounts                          Glenn Hegar                           PRECINCT 11                                            01 
01100050001000000REP       Comptroller of Public Accounts                          OVER VOTES                            PRECINCT 1                                             01 
01100050002000000REP       Comptroller of Public Accounts                          OVER VOTES                            PRECINCT 2                                             01 
01100050003000000REP       Comptroller of Public Accounts                          OVER VOTES                            PRECINCT 3                                             01 
01100050004000000REP       Comptroller of Public Accounts                          OVER VOTES                            PRECINCT 4                                             01 
01100050005000000REP       Comptroller of Public Accounts                          OVER VOTES                            PRECINCT 6                                             01 
01100050006000000REP       Comptroller of Public Accounts                          OVER VOTES                            PRECINCT 7                                             01 
01100050007000000REP       Comptroller of Public Accounts                          OVER VOTES                            PRECINCT 9                                             01 
01100050008000000REP       Comptroller of Public Accounts                          OVER VOTES                            PRECINCT 11                                            01 
01100060001000005REP       Comptroller of Public Accounts                          UNDER VOTES                           PRECINCT 1                                             01 
01100060002000011REP       Comptroller of Public Accounts                          UNDER VOTES                           PRECINCT 2                                             01 
01100060003000004REP       Comptroller of Public Accounts                          UNDER VOTES                           PRECINCT 3                                             01 
01100060004000001REP       Comptroller of Public Accounts                          UNDER VOTES                           PRECINCT 4                                             01 
01100060005000004REP       Comptroller of Public Accounts                          UNDER VOTES                           PRECINCT 6                                             01 
01100060006000007REP       Comptroller of Public Accounts                          UNDER VOTES                           PRECINCT 7                                             01 
01100060007000001REP       Comptroller of Public Accounts                          UNDER VOTES                           PRECINCT 9                                             01 
01100060008000002REP       Comptroller of Public Accounts                          UNDER VOTES                           PRECINCT 11                                            01 
01110010001000018REP       Commissioner of the General Land Office                 David Watts                           PRECINCT 1                                             01 
01110010002000023REP       Commissioner of the General Land Office                 David Watts                           PRECINCT 2                                             01 
01110010003000022REP       Commissioner of the General Land Office                 David Watts                           PRECINCT 3                                             01 
01110010004000010REP       Commissioner of the General Land Office                 David Watts                           PRECINCT 4                                             01 
01110010005000016REP       Commissioner of the General Land Office                 David Watts                           PRECINCT 6                                             01 
01110010006000028REP       Commissioner of the General Land Office                 David Watts                           PRECINCT 7                                             01 
01110010007000004REP       Commissioner of the General Land Office                 David Watts                           PRECINCT 9                                             01 
01110010008000014REP       Commissioner of the General Land Office                 David Watts                           PRECINCT 11                                            01 
01110020001000033REP       Commissioner of the General Land Office                 George P. Bush                        PRECINCT 1                                             01 
01110020002000056REP       Commissioner of the General Land Office                 George P. Bush                        PRECINCT 2                                             01 
01110020003000049REP       Commissioner of the General Land Office                 George P. Bush                        PRECINCT 3                                             01 
01110020004000014REP       Commissioner of the General Land Office                 George P. Bush                        PRECINCT 4                                             01 
01110020005000045REP       Commissioner of the General Land Office                 George P. Bush                        PRECINCT 6                                             01 
01110020006000035REP       Commissioner of the General Land Office                 George P. Bush                        PRECINCT 7                                             01 
01110020007000008REP       Commissioner of the General Land Office                 George P. Bush                        PRECINCT 9                                             01 
01110020008000026REP       Commissioner of the General Land Office                 George P. Bush                        PRECINCT 11                                            01 
01110030001000000REP       Commissioner of the General Land Office                 OVER VOTES                            PRECINCT 1                                             01 
01110030002000000REP       Commissioner of the General Land Office                 OVER VOTES                            PRECINCT 2                                             01 
01110030003000000REP       Commissioner of the General Land Office                 OVER VOTES                            PRECINCT 3                                             01 
01110030004000000REP       Commissioner of the General Land Office                 OVER VOTES                            PRECINCT 4                                             01 
01110030005000000REP       Commissioner of the General Land Office                 OVER VOTES                            PRECINCT 6                                             01 
01110030006000000REP       Commissioner of the General Land Office                 OVER VOTES                            PRECINCT 7                                             01 
01110030007000000REP       Commissioner of the General Land Office                 OVER VOTES                            PRECINCT 9                                             01 
01110030008000000REP       Commissioner of the General Land Office                 OVER VOTES                            PRECINCT 11                                            01 
01110040001000002REP       Commissioner of the General Land Office                 UNDER VOTES                           PRECINCT 1                                             01 
01110040002000008REP       Commissioner of the General Land Office                 UNDER VOTES                           PRECINCT 2                                             01 
01110040003000002REP       Commissioner of the General Land Office                 UNDER VOTES                           PRECINCT 3                                             01 
01110040004000002REP       Commissioner of the General Land Office                 UNDER VOTES                           PRECINCT 4                                             01 
01110040005000003REP       Commissioner of the General Land Office                 UNDER VOTES                           PRECINCT 6                                             01 
01110040006000008REP       Commissioner of the General Land Office                 UNDER VOTES                           PRECINCT 7                                             01 
01110040007000001REP       Commissioner of the General Land Office                 UNDER VOTES                           PRECINCT 9                                             01 
01110040008000002REP       Commissioner of the General Land Office                 UNDER VOTES                           PRECINCT 11                                            01 
01120010001000013REP       Commissioner of Agriculture                             Sid Miller                            PRECINCT 1                                             01 
01120010002000031REP       Commissioner of Agriculture                             Sid Miller                            PRECINCT 2                                             01 
01120010003000021REP       Commissioner of Agriculture                             Sid Miller                            PRECINCT 3                                             01 
01120010004000012REP       Commissioner of Agriculture                             Sid Miller                            PRECINCT 4                                             01 
01120010005000024REP       Commissioner of Agriculture                             Sid Miller                            PRECINCT 6                                             01 
01120010006000022REP       Commissioner of Agriculture                             Sid Miller                            PRECINCT 7                                             01 
01120010007000002REP       Commissioner of Agriculture                             Sid Miller                            PRECINCT 9                                             01 
01120010008000015REP       Commissioner of Agriculture                             Sid Miller                            PRECINCT 11                                            01 
01120020001000014REP       Commissioner of Agriculture                             Joe Cotten                            PRECINCT 1                                             01 
01120020002000013REP       Commissioner of Agriculture                             Joe Cotten                            PRECINCT 2                                             01 
01120020003000013REP       Commissioner of Agriculture                             Joe Cotten                            PRECINCT 3                                             01 
01120020004000006REP       Commissioner of Agriculture                             Joe Cotten                            PRECINCT 4                                             01 
01120020005000007REP       Commissioner of Agriculture                             Joe Cotten                            PRECINCT 6                                             01 
01120020006000007REP       Commissioner of Agriculture                             Joe Cotten                            PRECINCT 7                                             01 
01120020007000004REP       Commissioner of Agriculture                             Joe Cotten                            PRECINCT 9                                             01 
01120020008000006REP       Commissioner of Agriculture                             Joe Cotten                            PRECINCT 11                                            01 
01120030001000009REP       Commissioner of Agriculture                             Tommy Merritt                         PRECINCT 1                                             01 
01120030002000015REP       Commissioner of Agriculture                             Tommy Merritt                         PRECINCT 2                                             01 
01120030003000013REP       Commissioner of Agriculture                             Tommy Merritt                         PRECINCT 3                                             01 
01120030004000001REP       Commissioner of Agriculture                             Tommy Merritt                         PRECINCT 4                                             01 
01120030005000011REP       Commissioner of Agriculture                             Tommy Merritt                         PRECINCT 6                                             01 
01120030006000013REP       Commissioner of Agriculture                             Tommy Merritt                         PRECINCT 7                                             01 
01120030007000001REP       Commissioner of Agriculture                             Tommy Merritt                         PRECINCT 9                                             01 
01120030008000009REP       Commissioner of Agriculture                             Tommy Merritt                         PRECINCT 11                                            01 
01120040001000008REP       Commissioner of Agriculture                             J. Allen Carnes                       PRECINCT 1                                             01 
01120040002000014REP       Commissioner of Agriculture                             J. Allen Carnes                       PRECINCT 2                                             01 
01120040003000016REP       Commissioner of Agriculture                             J. Allen Carnes                       PRECINCT 3                                             01 
01120040004000004REP       Commissioner of Agriculture                             J. Allen Carnes                       PRECINCT 4                                             01 
01120040005000018REP       Commissioner of Agriculture                             J. Allen Carnes                       PRECINCT 6                                             01 
01120040006000018REP       Commissioner of Agriculture                             J. Allen Carnes                       PRECINCT 7                                             01 
01120040007000005REP       Commissioner of Agriculture                             J. Allen Carnes                       PRECINCT 9                                             01 
01120040008000010REP       Commissioner of Agriculture                             J. Allen Carnes                       PRECINCT 11                                            01 
01120050001000002REP       Commissioner of Agriculture                             Eric Opiela                           PRECINCT 1                                             01 
01120050002000003REP       Commissioner of Agriculture                             Eric Opiela                           PRECINCT 2                                             01 
01120050003000006REP       Commissioner of Agriculture                             Eric Opiela                           PRECINCT 3                                             01 
01120050004000002REP       Commissioner of Agriculture                             Eric Opiela                           PRECINCT 4                                             01 
01120050005000001REP       Commissioner of Agriculture                             Eric Opiela                           PRECINCT 6                                             01 
01120050006000001REP       Commissioner of Agriculture                             Eric Opiela                           PRECINCT 7                                             01 
01120050007000000REP       Commissioner of Agriculture                             Eric Opiela                           PRECINCT 9                                             01 
01120050008000001REP       Commissioner of Agriculture                             Eric Opiela                           PRECINCT 11                                            01 
01120060001000000REP       Commissioner of Agriculture                             OVER VOTES                            PRECINCT 1                                             01 
01120060002000000REP       Commissioner of Agriculture                             OVER VOTES                            PRECINCT 2                                             01 
01120060003000000REP       Commissioner of Agriculture                             OVER VOTES                            PRECINCT 3                                             01 
01120060004000000REP       Commissioner of Agriculture                             OVER VOTES                            PRECINCT 4                                             01 
01120060005000000REP       Commissioner of Agriculture                             OVER VOTES                            PRECINCT 6                                             01 
01120060006000000REP       Commissioner of Agriculture                             OVER VOTES                            PRECINCT 7                                             01 
01120060007000000REP       Commissioner of Agriculture                             OVER VOTES                            PRECINCT 9                                             01 
01120060008000000REP       Commissioner of Agriculture                             OVER VOTES                            PRECINCT 11                                            01 
01120070001000007REP       Commissioner of Agriculture                             UNDER VOTES                           PRECINCT 1                                             01 
01120070002000011REP       Commissioner of Agriculture                             UNDER VOTES                           PRECINCT 2                                             01 
01120070003000004REP       Commissioner of Agriculture                             UNDER VOTES                           PRECINCT 3                                             01 
01120070004000001REP       Commissioner of Agriculture                             UNDER VOTES                           PRECINCT 4                                             01 
01120070005000003REP       Commissioner of Agriculture                             UNDER VOTES                           PRECINCT 6                                             01 
01120070006000010REP       Commissioner of Agriculture                             UNDER VOTES                           PRECINCT 7                                             01 
01120070007000001REP       Commissioner of Agriculture                             UNDER VOTES                           PRECINCT 9                                             01 
01120070008000001REP       Commissioner of Agriculture                             UNDER VOTES                           PRECINCT 11                                            01 
01130010001000009REP       Railroad Commissioner                                   Becky Berger                          PRECINCT 1                                             01 
01130010002000018REP       Railroad Commissioner                                   Becky Berger                          PRECINCT 2                                             01 
01130010003000007REP       Railroad Commissioner                                   Becky Berger                          PRECINCT 3                                             01 
01130010004000003REP       Railroad Commissioner                                   Becky Berger                          PRECINCT 4                                             01 
01130010005000013REP       Railroad Commissioner                                   Becky Berger                          PRECINCT 6                                             01 
01130010006000005REP       Railroad Commissioner                                   Becky Berger                          PRECINCT 7                                             01 
01130010007000006REP       Railroad Commissioner                                   Becky Berger                          PRECINCT 9                                             01 
01130010008000008REP       Railroad Commissioner                                   Becky Berger                          PRECINCT 11                                            01 
01130020001000022REP       Railroad Commissioner                                   Wayne Christian                       PRECINCT 1                                             01 
01130020002000036REP       Railroad Commissioner                                   Wayne Christian                       PRECINCT 2                                             01 
01130020003000033REP       Railroad Commissioner                                   Wayne Christian                       PRECINCT 3                                             01 
01130020004000015REP       Railroad Commissioner                                   Wayne Christian                       PRECINCT 4                                             01 
01130020005000024REP       Railroad Commissioner                                   Wayne Christian                       PRECINCT 6                                             01 
01130020006000035REP       Railroad Commissioner                                   Wayne Christian                       PRECINCT 7                                             01 
01130020007000004REP       Railroad Commissioner                                   Wayne Christian                       PRECINCT 9                                             01 
01130020008000020REP       Railroad Commissioner                                   Wayne Christian                       PRECINCT 11                                            01 
01130030001000015REP       Railroad Commissioner                                   Ryan Sitton                           PRECINCT 1                                             01 
01130030002000015REP       Railroad Commissioner                                   Ryan Sitton                           PRECINCT 2                                             01 
01130030003000019REP       Railroad Commissioner                                   Ryan Sitton                           PRECINCT 3                                             01 
01130030004000006REP       Railroad Commissioner                                   Ryan Sitton                           PRECINCT 4                                             01 
01130030005000011REP       Railroad Commissioner                                   Ryan Sitton                           PRECINCT 6                                             01 
01130030006000012REP       Railroad Commissioner                                   Ryan Sitton                           PRECINCT 7                                             01 
01130030007000000REP       Railroad Commissioner                                   Ryan Sitton                           PRECINCT 9                                             01 
01130030008000010REP       Railroad Commissioner                                   Ryan Sitton                           PRECINCT 11                                            01 
01130040001000000REP       Railroad Commissioner                                   Malachi Boyuls                        PRECINCT 1                                             01 
01130040002000004REP       Railroad Commissioner                                   Malachi Boyuls                        PRECINCT 2                                             01 
01130040003000009REP       Railroad Commissioner                                   Malachi Boyuls                        PRECINCT 3                                             01 
01130040004000001REP       Railroad Commissioner                                   Malachi Boyuls                        PRECINCT 4                                             01 
01130040005000009REP       Railroad Commissioner                                   Malachi Boyuls                        PRECINCT 6                                             01 
01130040006000008REP       Railroad Commissioner                                   Malachi Boyuls                        PRECINCT 7                                             01 
01130040007000002REP       Railroad Commissioner                                   Malachi Boyuls                        PRECINCT 9                                             01 
01130040008000001REP       Railroad Commissioner                                   Malachi Boyuls                        PRECINCT 11                                            01 
01130050001000000REP       Railroad Commissioner                                   OVER VOTES                            PRECINCT 1                                             01 
01130050002000000REP       Railroad Commissioner                                   OVER VOTES                            PRECINCT 2                                             01 
01130050003000000REP       Railroad Commissioner                                   OVER VOTES                            PRECINCT 3                                             01 
01130050004000000REP       Railroad Commissioner                                   OVER VOTES                            PRECINCT 4                                             01 
01130050005000000REP       Railroad Commissioner                                   OVER VOTES                            PRECINCT 6                                             01 
01130050006000000REP       Railroad Commissioner                                   OVER VOTES                            PRECINCT 7                                             01 
01130050007000000REP       Railroad Commissioner                                   OVER VOTES                            PRECINCT 9                                             01 
01130050008000000REP       Railroad Commissioner                                   OVER VOTES                            PRECINCT 11                                            01 
01130060001000007REP       Railroad Commissioner                                   UNDER VOTES                           PRECINCT 1                                             01 
01130060002000014REP       Railroad Commissioner                                   UNDER VOTES                           PRECINCT 2                                             01 
01130060003000005REP       Railroad Commissioner                                   UNDER VOTES                           PRECINCT 3                                             01 
01130060004000001REP       Railroad Commissioner                                   UNDER VOTES                           PRECINCT 4                                             01 
01130060005000007REP       Railroad Commissioner                                   UNDER VOTES                           PRECINCT 6                                             01 
01130060006000011REP       Railroad Commissioner                                   UNDER VOTES                           PRECINCT 7                                             01 
01130060007000001REP       Railroad Commissioner                                   UNDER VOTES                           PRECINCT 9                                             01 
01130060008000003REP       Railroad Commissioner                                   UNDER VOTES                           PRECINCT 11                                            01 
01140010001000025REP       Chief Justice, Supreme Court                            Robert Talton                         PRECINCT 1                                             01 
01140010002000042REP       Chief Justice, Supreme Court                            Robert Talton                         PRECINCT 2                                             01 
01140010003000030REP       Chief Justice, Supreme Court                            Robert Talton                         PRECINCT 3                                             01 
01140010004000012REP       Chief Justice, Supreme Court                            Robert Talton                         PRECINCT 4                                             01 
01140010005000032REP       Chief Justice, Supreme Court                            Robert Talton                         PRECINCT 6                                             01 
01140010006000022REP       Chief Justice, Supreme Court                            Robert Talton                         PRECINCT 7                                             01 
01140010007000006REP       Chief Justice, Supreme Court                            Robert Talton                         PRECINCT 9                                             01 
01140010008000019REP       Chief Justice, Supreme Court                            Robert Talton                         PRECINCT 11                                            01 
01140020001000019REP       Chief Justice, Supreme Court                            Nathan Hecht                          PRECINCT 1                                             01 
01140020002000032REP       Chief Justice, Supreme Court                            Nathan Hecht                          PRECINCT 2                                             01 
01140020003000035REP       Chief Justice, Supreme Court                            Nathan Hecht                          PRECINCT 3                                             01 
01140020004000011REP       Chief Justice, Supreme Court                            Nathan Hecht                          PRECINCT 4                                             01 
01140020005000025REP       Chief Justice, Supreme Court                            Nathan Hecht                          PRECINCT 6                                             01 
01140020006000036REP       Chief Justice, Supreme Court                            Nathan Hecht                          PRECINCT 7                                             01 
01140020007000006REP       Chief Justice, Supreme Court                            Nathan Hecht                          PRECINCT 9                                             01 
01140020008000017REP       Chief Justice, Supreme Court                            Nathan Hecht                          PRECINCT 11                                            01 
01140030001000000REP       Chief Justice, Supreme Court                            OVER VOTES                            PRECINCT 1                                             01 
01140030002000000REP       Chief Justice, Supreme Court                            OVER VOTES                            PRECINCT 2                                             01 
01140030003000000REP       Chief Justice, Supreme Court                            OVER VOTES                            PRECINCT 3                                             01 
01140030004000000REP       Chief Justice, Supreme Court                            OVER VOTES                            PRECINCT 4                                             01 
01140030005000000REP       Chief Justice, Supreme Court                            OVER VOTES                            PRECINCT 6                                             01 
01140030006000000REP       Chief Justice, Supreme Court                            OVER VOTES                            PRECINCT 7                                             01 
01140030007000000REP       Chief Justice, Supreme Court                            OVER VOTES                            PRECINCT 9                                             01 
01140030008000000REP       Chief Justice, Supreme Court                            OVER VOTES                            PRECINCT 11                                            01 
01140040001000009REP       Chief Justice, Supreme Court                            UNDER VOTES                           PRECINCT 1                                             01 
01140040002000013REP       Chief Justice, Supreme Court                            UNDER VOTES                           PRECINCT 2                                             01 
01140040003000008REP       Chief Justice, Supreme Court                            UNDER VOTES                           PRECINCT 3                                             01 
01140040004000003REP       Chief Justice, Supreme Court                            UNDER VOTES                           PRECINCT 4                                             01 
01140040005000007REP       Chief Justice, Supreme Court                            UNDER VOTES                           PRECINCT 6                                             01 
01140040006000013REP       Chief Justice, Supreme Court                            UNDER VOTES                           PRECINCT 7                                             01 
01140040007000001REP       Chief Justice, Supreme Court                            UNDER VOTES                           PRECINCT 9                                             01 
01140040008000006REP       Chief Justice, Supreme Court                            UNDER VOTES                           PRECINCT 11                                            01 
01150010001000031REP       Justice, Supreme Court, PL 6, Unexpired                 Jeff Brown                            PRECINCT 1                                             01 
01150010002000051REP       Justice, Supreme Court, PL 6, Unexpired                 Jeff Brown                            PRECINCT 2                                             01 
01150010003000061REP       Justice, Supreme Court, PL 6, Unexpired                 Jeff Brown                            PRECINCT 3                                             01 
01150010004000017REP       Justice, Supreme Court, PL 6, Unexpired                 Jeff Brown                            PRECINCT 4                                             01 
01150010005000045REP       Justice, Supreme Court, PL 6, Unexpired                 Jeff Brown                            PRECINCT 6                                             01 
01150010006000046REP       Justice, Supreme Court, PL 6, Unexpired                 Jeff Brown                            PRECINCT 7                                             01 
01150010007000005REP       Justice, Supreme Court, PL 6, Unexpired                 Jeff Brown                            PRECINCT 9                                             01 
01150010008000028REP       Justice, Supreme Court, PL 6, Unexpired                 Jeff Brown                            PRECINCT 11                                            01 
01150020001000012REP       Justice, Supreme Court, PL 6, Unexpired                 Joe Pool                              PRECINCT 1                                             01 
01150020002000023REP       Justice, Supreme Court, PL 6, Unexpired                 Joe Pool                              PRECINCT 2                                             01 
01150020003000005REP       Justice, Supreme Court, PL 6, Unexpired                 Joe Pool                              PRECINCT 3                                             01 
01150020004000006REP       Justice, Supreme Court, PL 6, Unexpired                 Joe Pool                              PRECINCT 4                                             01 
01150020005000010REP       Justice, Supreme Court, PL 6, Unexpired                 Joe Pool                              PRECINCT 6                                             01 
01150020006000012REP       Justice, Supreme Court, PL 6, Unexpired                 Joe Pool                              PRECINCT 7                                             01 
01150020007000007REP       Justice, Supreme Court, PL 6, Unexpired                 Joe Pool                              PRECINCT 9                                             01 
01150020008000007REP       Justice, Supreme Court, PL 6, Unexpired                 Joe Pool                              PRECINCT 11                                            01 
01150030001000000REP       Justice, Supreme Court, PL 6, Unexpired                 OVER VOTES                            PRECINCT 1                                             01 
01150030002000000REP       Justice, Supreme Court, PL 6, Unexpired                 OVER VOTES                            PRECINCT 2                                             01 
01150030003000000REP       Justice, Supreme Court, PL 6, Unexpired                 OVER VOTES                            PRECINCT 3                                             01 
01150030004000000REP       Justice, Supreme Court, PL 6, Unexpired                 OVER VOTES                            PRECINCT 4                                             01 
01150030005000000REP       Justice, Supreme Court, PL 6, Unexpired                 OVER VOTES                            PRECINCT 6                                             01 
01150030006000000REP       Justice, Supreme Court, PL 6, Unexpired                 OVER VOTES                            PRECINCT 7                                             01 
01150030007000000REP       Justice, Supreme Court, PL 6, Unexpired                 OVER VOTES                            PRECINCT 9                                             01 
01150030008000000REP       Justice, Supreme Court, PL 6, Unexpired                 OVER VOTES                            PRECINCT 11                                            01 
01150040001000010REP       Justice, Supreme Court, PL 6, Unexpired                 UNDER VOTES                           PRECINCT 1                                             01 
01150040002000013REP       Justice, Supreme Court, PL 6, Unexpired                 UNDER VOTES                           PRECINCT 2                                             01 
01150040003000007REP       Justice, Supreme Court, PL 6, Unexpired                 UNDER VOTES                           PRECINCT 3                                             01 
01150040004000003REP       Justice, Supreme Court, PL 6, Unexpired                 UNDER VOTES                           PRECINCT 4                                             01 
01150040005000009REP       Justice, Supreme Court, PL 6, Unexpired                 UNDER VOTES                           PRECINCT 6                                             01 
01150040006000013REP       Justice, Supreme Court, PL 6, Unexpired                 UNDER VOTES                           PRECINCT 7                                             01 
01150040007000001REP       Justice, Supreme Court, PL 6, Unexpired                 UNDER VOTES                           PRECINCT 9                                             01 
01150040008000007REP       Justice, Supreme Court, PL 6, Unexpired                 UNDER VOTES                           PRECINCT 11                                            01 
01160010001000040REP       Justice, Supreme Court, Place 7                         Jeff Boyd                             PRECINCT 1                                             01 
01160010002000070REP       Justice, Supreme Court, Place 7                         Jeff Boyd                             PRECINCT 2                                             01 
01160010003000063REP       Justice, Supreme Court, Place 7                         Jeff Boyd                             PRECINCT 3                                             01 
01160010004000022REP       Justice, Supreme Court, Place 7                         Jeff Boyd                             PRECINCT 4                                             01 
01160010005000052REP       Justice, Supreme Court, Place 7                         Jeff Boyd                             PRECINCT 6                                             01 
01160010006000052REP       Justice, Supreme Court, Place 7                         Jeff Boyd                             PRECINCT 7                                             01 
01160010007000011REP       Justice, Supreme Court, Place 7                         Jeff Boyd                             PRECINCT 9                                             01 
01160010008000032REP       Justice, Supreme Court, Place 7                         Jeff Boyd                             PRECINCT 11                                            01 
01160020001000000REP       Justice, Supreme Court, Place 7                         OVER VOTES                            PRECINCT 1                                             01 
01160020002000000REP       Justice, Supreme Court, Place 7                         OVER VOTES                            PRECINCT 2                                             01 
01160020003000000REP       Justice, Supreme Court, Place 7                         OVER VOTES                            PRECINCT 3                                             01 
01160020004000000REP       Justice, Supreme Court, Place 7                         OVER VOTES                            PRECINCT 4                                             01 
01160020005000000REP       Justice, Supreme Court, Place 7                         OVER VOTES                            PRECINCT 6                                             01 
01160020006000000REP       Justice, Supreme Court, Place 7                         OVER VOTES                            PRECINCT 7                                             01 
01160020007000000REP       Justice, Supreme Court, Place 7                         OVER VOTES                            PRECINCT 9                                             01 
01160020008000000REP       Justice, Supreme Court, Place 7                         OVER VOTES                            PRECINCT 11                                            01 
01160030001000013REP       Justice, Supreme Court, Place 7                         UNDER VOTES                           PRECINCT 1                                             01 
01160030002000017REP       Justice, Supreme Court, Place 7                         UNDER VOTES                           PRECINCT 2                                             01 
01160030003000010REP       Justice, Supreme Court, Place 7                         UNDER VOTES                           PRECINCT 3                                             01 
01160030004000004REP       Justice, Supreme Court, Place 7                         UNDER VOTES                           PRECINCT 4                                             01 
01160030005000012REP       Justice, Supreme Court, Place 7                         UNDER VOTES                           PRECINCT 6                                             01 
01160030006000019REP       Justice, Supreme Court, Place 7                         UNDER VOTES                           PRECINCT 7                                             01 
01160030007000002REP       Justice, Supreme Court, Place 7                         UNDER VOTES                           PRECINCT 9                                             01 
01160030008000010REP       Justice, Supreme Court, Place 7                         UNDER VOTES                           PRECINCT 11                                            01 
01170010001000026REP       Justice, Supreme Court, Place 8                         Phil Johnson                          PRECINCT 1                                             01 
01170010002000052REP       Justice, Supreme Court, Place 8                         Phil Johnson                          PRECINCT 2                                             01 
01170010003000043REP       Justice, Supreme Court, Place 8                         Phil Johnson                          PRECINCT 3                                             01 
01170010004000019REP       Justice, Supreme Court, Place 8                         Phil Johnson                          PRECINCT 4                                             01 
01170010005000039REP       Justice, Supreme Court, Place 8                         Phil Johnson                          PRECINCT 6                                             01 
01170010006000041REP       Justice, Supreme Court, Place 8                         Phil Johnson                          PRECINCT 7                                             01 
01170010007000009REP       Justice, Supreme Court, Place 8                         Phil Johnson                          PRECINCT 9                                             01 
01170010008000026REP       Justice, Supreme Court, Place 8                         Phil Johnson                          PRECINCT 11                                            01 
01170020001000020REP       Justice, Supreme Court, Place 8                         Sharon McCally                        PRECINCT 1                                             01 
01170020002000023REP       Justice, Supreme Court, Place 8                         Sharon McCally                        PRECINCT 2                                             01 
01170020003000022REP       Justice, Supreme Court, Place 8                         Sharon McCally                        PRECINCT 3                                             01 
01170020004000006REP       Justice, Supreme Court, Place 8                         Sharon McCally                        PRECINCT 4                                             01 
01170020005000015REP       Justice, Supreme Court, Place 8                         Sharon McCally                        PRECINCT 6                                             01 
01170020006000019REP       Justice, Supreme Court, Place 8                         Sharon McCally                        PRECINCT 7                                             01 
01170020007000003REP       Justice, Supreme Court, Place 8                         Sharon McCally                        PRECINCT 9                                             01 
01170020008000009REP       Justice, Supreme Court, Place 8                         Sharon McCally                        PRECINCT 11                                            01 
01170030001000000REP       Justice, Supreme Court, Place 8                         OVER VOTES                            PRECINCT 1                                             01 
01170030002000000REP       Justice, Supreme Court, Place 8                         OVER VOTES                            PRECINCT 2                                             01 
01170030003000000REP       Justice, Supreme Court, Place 8                         OVER VOTES                            PRECINCT 3                                             01 
01170030004000000REP       Justice, Supreme Court, Place 8                         OVER VOTES                            PRECINCT 4                                             01 
01170030005000000REP       Justice, Supreme Court, Place 8                         OVER VOTES                            PRECINCT 6                                             01 
01170030006000000REP       Justice, Supreme Court, Place 8                         OVER VOTES                            PRECINCT 7                                             01 
01170030007000000REP       Justice, Supreme Court, Place 8                         OVER VOTES                            PRECINCT 9                                             01 
01170030008000000REP       Justice, Supreme Court, Place 8                         OVER VOTES                            PRECINCT 11                                            01 
