01010010001000000          REGISTERED VOTERS - TOTAL                               REGISTERED VOTERS - TOTAL             VOTING PRECINCT 1                                      00 
01010010002000000          REGISTERED VOTERS - TOTAL                               REGISTERED VOTERS - TOTAL             VOTING PRECINCT 2                                      00 
01010010003000000          REGISTERED VOTERS - TOTAL                               REGISTERED VOTERS - TOTAL             VOTING PRECINCT 3                                      00 
01010010004000000          REGISTERED VOTERS - TOTAL                               REGISTERED VOTERS - TOTAL             VOTING PRECINCT 4                                      00 
01010010005000000          REGISTERED VOTERS - TOTAL                               REGISTERED VOTERS - TOTAL             VOTING PRECINCT 5                                      00 
01010010006000000          REGISTERED VOTERS - TOTAL                               REGISTERED VOTERS - TOTAL             VOTING PRECINCT 6                                      00 
01010010007000000          REGISTERED VOTERS - TOTAL                               REGISTERED VOTERS - TOTAL             VOTING PRECINCT 7                                      00 
01010010008000000          REGISTERED VOTERS - TOTAL                               REGISTERED VOTERS - TOTAL             VOTING PRECINCT 8                                      00 
01010010009000000          REGISTERED VOTERS - TOTAL                               REGISTERED VOTERS - TOTAL             VOTING PRECINCT 9                                      00 
01010010010000000          REGISTERED VOTERS - TOTAL                               REGISTERED VOTERS - TOTAL             VOTING PRECINCT 10                                     00 
01010010011000000          REGISTERED VOTERS - TOTAL                               REGISTERED VOTERS - TOTAL             VOTING PRECINCT 11                                     00 
01010010012000000          REGISTERED VOTERS - TOTAL                               REGISTERED VOTERS - TOTAL             VOTING PRECINCT 18                                     00 
01010010013000000          REGISTERED VOTERS - TOTAL                               REGISTERED VOTERS - TOTAL             VOTING PRECINCT 13                                     00 
01010010014000000          REGISTERED VOTERS - TOTAL                               REGISTERED VOTERS - TOTAL             VOTING PRECINCT 14                                     00 
01010010015000000          REGISTERED VOTERS - TOTAL                               REGISTERED VOTERS - TOTAL             VOTING PRECINCT 15                                     00 
01010010016000000          REGISTERED VOTERS - TOTAL                               REGISTERED VOTERS - TOTAL             VOTING PRECINCT 16                                     00 
01010010017000000          REGISTERED VOTERS - TOTAL                               REGISTERED VOTERS - TOTAL             VOTING PRECINCT 17                                     00 
01020010001000297          BALLOTS CAST - TOTAL                                    BALLOTS CAST - TOTAL                  VOTING PRECINCT 1                                      00 
01020010002000298          BALLOTS CAST - TOTAL                                    BALLOTS CAST - TOTAL                  VOTING PRECINCT 2                                      00 
01020010003000566          BALLOTS CAST - TOTAL                                    BALLOTS CAST - TOTAL                  VOTING PRECINCT 3                                      00 
01020010004000435          BALLOTS CAST - TOTAL                                    BALLOTS CAST - TOTAL                  VOTING PRECINCT 4                                      00 
01020010005000061          BALLOTS CAST - TOTAL                                    BALLOTS CAST - TOTAL                  VOTING PRECINCT 5                                      00 
01020010006000200          BALLOTS CAST - TOTAL                                    BALLOTS CAST - TOTAL                  VOTING PRECINCT 6                                      00 
01020010007000233          BALLOTS CAST - TOTAL                                    BALLOTS CAST - TOTAL                  VOTING PRECINCT 7                                      00 
01020010008000103          BALLOTS CAST - TOTAL                                    BALLOTS CAST - TOTAL                  VOTING PRECINCT 8                                      00 
01020010009000134          BALLOTS CAST - TOTAL                                    BALLOTS CAST - TOTAL                  VOTING PRECINCT 9                                      00 
01020010010000549          BALLOTS CAST - TOTAL                                    BALLOTS CAST - TOTAL                  VOTING PRECINCT 10                                     00 
01020010011000043          BALLOTS CAST - TOTAL                                    BALLOTS CAST - TOTAL                  VOTING PRECINCT 11                                     00 
01020010012000543          BALLOTS CAST - TOTAL                                    BALLOTS CAST - TOTAL                  VOTING PRECINCT 18                                     00 
01020010013000209          BALLOTS CAST - TOTAL                                    BALLOTS CAST - TOTAL                  VOTING PRECINCT 13                                     00 
01020010014000518          BALLOTS CAST - TOTAL                                    BALLOTS CAST - TOTAL                  VOTING PRECINCT 14                                     00 
01020010015000262          BALLOTS CAST - TOTAL                                    BALLOTS CAST - TOTAL                  VOTING PRECINCT 15                                     00 
01020010016000176          BALLOTS CAST - TOTAL                                    BALLOTS CAST - TOTAL                  VOTING PRECINCT 16                                     00 
01020010017000189          BALLOTS CAST - TOTAL                                    BALLOTS CAST - TOTAL                  VOTING PRECINCT 17                                     00 
01030010001000097REP       Straight Party                                          REPUBLICAN PARTY                      VOTING PRECINCT 1                                      01 
01030010002000078REP       Straight Party                                          REPUBLICAN PARTY                      VOTING PRECINCT 2                                      01 
01030010003000194REP       Straight Party                                          REPUBLICAN PARTY                      VOTING PRECINCT 3                                      01 
01030010004000193REP       Straight Party                                          REPUBLICAN PARTY                      VOTING PRECINCT 4                                      01 
01030010005000008REP       Straight Party                                          REPUBLICAN PARTY                      VOTING PRECINCT 5                                      01 
01030010006000104REP       Straight Party                                          REPUBLICAN PARTY                      VOTING PRECINCT 6                                      01 
01030010007000095REP       Straight Party                                          REPUBLICAN PARTY                      VOTING PRECINCT 7                                      01 
01030010008000047REP       Straight Party                                          REPUBLICAN PARTY                      VOTING PRECINCT 8                                      01 
01030010009000054REP       Straight Party                                          REPUBLICAN PARTY                      VOTING PRECINCT 9                                      01 
01030010010000174REP       Straight Party                                          REPUBLICAN PARTY                      VOTING PRECINCT 10                                     01 
01030010011000009REP       Straight Party                                          REPUBLICAN PARTY                      VOTING PRECINCT 11                                     01 
01030010012000153REP       Straight Party                                          REPUBLICAN PARTY                      VOTING PRECINCT 18                                     01 
01030010013000066REP       Straight Party                                          REPUBLICAN PARTY                      VOTING PRECINCT 13                                     01 
01030010014000176REP       Straight Party                                          REPUBLICAN PARTY                      VOTING PRECINCT 14                                     01 
01030010015000096REP       Straight Party                                          REPUBLICAN PARTY                      VOTING PRECINCT 15                                     01 
01030010016000075REP       Straight Party                                          REPUBLICAN PARTY                      VOTING PRECINCT 16                                     01 
01030010017000049REP       Straight Party                                          REPUBLICAN PARTY                      VOTING PRECINCT 17                                     01 
01030020001000014DEM       Straight Party                                          DEMOCRATIC PARTY                      VOTING PRECINCT 1                                      01 
01030020002000052DEM       Straight Party                                          DEMOCRATIC PARTY                      VOTING PRECINCT 2                                      01 
01030020003000079DEM       Straight Party                                          DEMOCRATIC PARTY                      VOTING PRECINCT 3                                      01 
01030020004000037DEM       Straight Party                                          DEMOCRATIC PARTY                      VOTING PRECINCT 4                                      01 
01030020005000021DEM       Straight Party                                          DEMOCRATIC PARTY                      VOTING PRECINCT 5                                      01 
01030020006000014DEM       Straight Party                                          DEMOCRATIC PARTY                      VOTING PRECINCT 6                                      01 
01030020007000007DEM       Straight Party                                          DEMOCRATIC PARTY                      VOTING PRECINCT 7                                      01 
01030020008000004DEM       Straight Party                                          DEMOCRATIC PARTY                      VOTING PRECINCT 8                                      01 
01030020009000012DEM       Straight Party                                          DEMOCRATIC PARTY                      VOTING PRECINCT 9                                      01 
01030020010000040DEM       Straight Party                                          DEMOCRATIC PARTY                      VOTING PRECINCT 10                                     01 
01030020011000003DEM       Straight Party                                          DEMOCRATIC PARTY                      VOTING PRECINCT 11                                     01 
01030020012000032DEM       Straight Party                                          DEMOCRATIC PARTY                      VOTING PRECINCT 18                                     01 
01030020013000026DEM       Straight Party                                          DEMOCRATIC PARTY                      VOTING PRECINCT 13                                     01 
01030020014000044DEM       Straight Party                                          DEMOCRATIC PARTY                      VOTING PRECINCT 14                                     01 
01030020015000024DEM       Straight Party                                          DEMOCRATIC PARTY                      VOTING PRECINCT 15                                     01 
01030020016000009DEM       Straight Party                                          DEMOCRATIC PARTY                      VOTING PRECINCT 16                                     01 
01030020017000021DEM       Straight Party                                          DEMOCRATIC PARTY                      VOTING PRECINCT 17                                     01 
01030030001000001LIB       Straight Party                                          LIBERTARIAN PARTY                     VOTING PRECINCT 1                                      01 
01030030002000000LIB       Straight Party                                          LIBERTARIAN PARTY                     VOTING PRECINCT 2                                      01 
01030030003000006LIB       Straight Party                                          LIBERTARIAN PARTY                     VOTING PRECINCT 3                                      01 
01030030004000001LIB       Straight Party                                          LIBERTARIAN PARTY                     VOTING PRECINCT 4                                      01 
01030030005000000LIB       Straight Party                                          LIBERTARIAN PARTY                     VOTING PRECINCT 5                                      01 
01030030006000001LIB       Straight Party                                          LIBERTARIAN PARTY                     VOTING PRECINCT 6                                      01 
01030030007000000LIB       Straight Party                                          LIBERTARIAN PARTY                     VOTING PRECINCT 7                                      01 
01030030008000000LIB       Straight Party                                          LIBERTARIAN PARTY                     VOTING PRECINCT 8                                      01 
01030030009000000LIB       Straight Party                                          LIBERTARIAN PARTY                     VOTING PRECINCT 9                                      01 
01030030010000003LIB       Straight Party                                          LIBERTARIAN PARTY                     VOTING PRECINCT 10                                     01 
01030030011000000LIB       Straight Party                                          LIBERTARIAN PARTY                     VOTING PRECINCT 11                                     01 
01030030012000001LIB       Straight Party                                          LIBERTARIAN PARTY                     VOTING PRECINCT 18                                     01 
01030030013000002LIB       Straight Party                                          LIBERTARIAN PARTY                     VOTING PRECINCT 13                                     01 
01030030014000002LIB       Straight Party                                          LIBERTARIAN PARTY                     VOTING PRECINCT 14                                     01 
01030030015000000LIB       Straight Party                                          LIBERTARIAN PARTY                     VOTING PRECINCT 15                                     01 
01030030016000000LIB       Straight Party                                          LIBERTARIAN PARTY                     VOTING PRECINCT 16                                     01 
01030030017000000LIB       Straight Party                                          LIBERTARIAN PARTY                     VOTING PRECINCT 17                                     01 
01030040001000000GRN       Straight Party                                          GREEN PARTY                           VOTING PRECINCT 1                                      01 
01030040002000000GRN       Straight Party                                          GREEN PARTY                           VOTING PRECINCT 2                                      01 
01030040003000000GRN       Straight Party                                          GREEN PARTY                           VOTING PRECINCT 3                                      01 
01030040004000002GRN       Straight Party                                          GREEN PARTY                           VOTING PRECINCT 4                                      01 
01030040005000000GRN       Straight Party                                          GREEN PARTY                           VOTING PRECINCT 5                                      01 
01030040006000000GRN       Straight Party                                          GREEN PARTY                           VOTING PRECINCT 6                                      01 
01030040007000000GRN       Straight Party                                          GREEN PARTY                           VOTING PRECINCT 7                                      01 
01030040008000000GRN       Straight Party                                          GREEN PARTY                           VOTING PRECINCT 8                                      01 
01030040009000000GRN       Straight Party                                          GREEN PARTY                           VOTING PRECINCT 9                                      01 
01030040010000000GRN       Straight Party                                          GREEN PARTY                           VOTING PRECINCT 10                                     01 
01030040011000000GRN       Straight Party                                          GREEN PARTY                           VOTING PRECINCT 11                                     01 
01030040012000000GRN       Straight Party                                          GREEN PARTY                           VOTING PRECINCT 18                                     01 
01030040013000000GRN       Straight Party                                          GREEN PARTY                           VOTING PRECINCT 13                                     01 
01030040014000001GRN       Straight Party                                          GREEN PARTY                           VOTING PRECINCT 14                                     01 
01030040015000000GRN       Straight Party                                          GREEN PARTY                           VOTING PRECINCT 15                                     01 
01030040016000000GRN       Straight Party                                          GREEN PARTY                           VOTING PRECINCT 16                                     01 
01030040017000000GRN       Straight Party                                          GREEN PARTY                           VOTING PRECINCT 17                                     01 
01030050001000000          Straight Party                                          OVER VOTES                            VOTING PRECINCT 1                                      01 
01030050002000001          Straight Party                                          OVER VOTES                            VOTING PRECINCT 2                                      01 
01030050003000001          Straight Party                                          OVER VOTES                            VOTING PRECINCT 3                                      01 
01030050004000000          Straight Party                                          OVER VOTES                            VOTING PRECINCT 4                                      01 
01030050005000001          Straight Party                                          OVER VOTES                            VOTING PRECINCT 5                                      01 
01030050006000000          Straight Party                                          OVER VOTES                            VOTING PRECINCT 6                                      01 
01030050007000000          Straight Party                                          OVER VOTES                            VOTING PRECINCT 7                                      01 
01030050008000000          Straight Party                                          OVER VOTES                            VOTING PRECINCT 8                                      01 
01030050009000000          Straight Party                                          OVER VOTES                            VOTING PRECINCT 9                                      01 
01030050010000001          Straight Party                                          OVER VOTES                            VOTING PRECINCT 10                                     01 
01030050011000000          Straight Party                                          OVER VOTES                            VOTING PRECINCT 11                                     01 
01030050012000001          Straight Party                                          OVER VOTES                            VOTING PRECINCT 18                                     01 
01030050013000000          Straight Party                                          OVER VOTES                            VOTING PRECINCT 13                                     01 
01030050014000000          Straight Party                                          OVER VOTES                            VOTING PRECINCT 14                                     01 
01030050015000000          Straight Party                                          OVER VOTES                            VOTING PRECINCT 15                                     01 
01030050016000000          Straight Party                                          OVER VOTES                            VOTING PRECINCT 16                                     01 
01030050017000000          Straight Party                                          OVER VOTES                            VOTING PRECINCT 17                                     01 
01030060001000185          Straight Party                                          UNDER VOTES                           VOTING PRECINCT 1                                      01 
01030060002000164          Straight Party                                          UNDER VOTES                           VOTING PRECINCT 2                                      01 
01030060003000286          Straight Party                                          UNDER VOTES                           VOTING PRECINCT 3                                      01 
01030060004000202          Straight Party                                          UNDER VOTES                           VOTING PRECINCT 4                                      01 
01030060005000031          Straight Party                                          UNDER VOTES                           VOTING PRECINCT 5                                      01 
01030060006000081          Straight Party                                          UNDER VOTES                           VOTING PRECINCT 6                                      01 
01030060007000131          Straight Party                                          UNDER VOTES                           VOTING PRECINCT 7                                      01 
01030060008000052          Straight Party                                          UNDER VOTES                           VOTING PRECINCT 8                                      01 
01030060009000068          Straight Party                                          UNDER VOTES                           VOTING PRECINCT 9                                      01 
01030060010000331          Straight Party                                          UNDER VOTES                           VOTING PRECINCT 10                                     01 
01030060011000031          Straight Party                                          UNDER VOTES                           VOTING PRECINCT 11                                     01 
01030060012000356          Straight Party                                          UNDER VOTES                           VOTING PRECINCT 18                                     01 
01030060013000115          Straight Party                                          UNDER VOTES                           VOTING PRECINCT 13                                     01 
01030060014000295          Straight Party                                          UNDER VOTES                           VOTING PRECINCT 14                                     01 
01030060015000142          Straight Party                                          UNDER VOTES                           VOTING PRECINCT 15                                     01 
01030060016000092          Straight Party                                          UNDER VOTES                           VOTING PRECINCT 16                                     01 
01030060017000119          Straight Party                                          UNDER VOTES                           VOTING PRECINCT 17                                     01 
01040010001000221REP       United States Senator                                   John Cornyn                           VOTING PRECINCT 1                                      01 
01040010002000192REP       United States Senator                                   John Cornyn                           VOTING PRECINCT 2                                      01 
01040010003000382REP       United States Senator                                   John Cornyn                           VOTING PRECINCT 3                                      01 
01040010004000347REP       United States Senator                                   John Cornyn                           VOTING PRECINCT 4                                      01 
01040010005000028REP       United States Senator                                   John Cornyn                           VOTING PRECINCT 5                                      01 
01040010006000172REP       United States Senator                                   John Cornyn                           VOTING PRECINCT 6                                      01 
01040010007000197REP       United States Senator                                   John Cornyn                           VOTING PRECINCT 7                                      01 
01040010008000088REP       United States Senator                                   John Cornyn                           VOTING PRECINCT 8                                      01 
01040010009000106REP       United States Senator                                   John Cornyn                           VOTING PRECINCT 9                                      01 
01040010010000422REP       United States Senator                                   John Cornyn                           VOTING PRECINCT 10                                     01 
01040010011000030REP       United States Senator                                   John Cornyn                           VOTING PRECINCT 11                                     01 
01040010012000436REP       United States Senator                                   John Cornyn                           VOTING PRECINCT 18                                     01 
01040010013000148REP       United States Senator                                   John Cornyn                           VOTING PRECINCT 13                                     01 
01040010014000407REP       United States Senator                                   John Cornyn                           VOTING PRECINCT 14                                     01 
01040010015000195REP       United States Senator                                   John Cornyn                           VOTING PRECINCT 15                                     01 
01040010016000146REP       United States Senator                                   John Cornyn                           VOTING PRECINCT 16                                     01 
01040010017000135REP       United States Senator                                   John Cornyn                           VOTING PRECINCT 17                                     01 
01040020001000050DEM       United States Senator                                   David M. Alameel                      VOTING PRECINCT 1                                      01 
01040020002000088DEM       United States Senator                                   David M. Alameel                      VOTING PRECINCT 2                                      01 
01040020003000131DEM       United States Senator                                   David M. Alameel                      VOTING PRECINCT 3                                      01 
01040020004000060DEM       United States Senator                                   David M. Alameel                      VOTING PRECINCT 4                                      01 
01040020005000028DEM       United States Senator                                   David M. Alameel                      VOTING PRECINCT 5                                      01 
01040020006000021DEM       United States Senator                                   David M. Alameel                      VOTING PRECINCT 6                                      01 
01040020007000019DEM       United States Senator                                   David M. Alameel                      VOTING PRECINCT 7                                      01 
01040020008000007DEM       United States Senator                                   David M. Alameel                      VOTING PRECINCT 8                                      01 
01040020009000023DEM       United States Senator                                   David M. Alameel                      VOTING PRECINCT 9                                      01 
01040020010000072DEM       United States Senator                                   David M. Alameel                      VOTING PRECINCT 10                                     01 
01040020011000007DEM       United States Senator                                   David M. Alameel                      VOTING PRECINCT 11                                     01 
01040020012000070DEM       United States Senator                                   David M. Alameel                      VOTING PRECINCT 18                                     01 
01040020013000049DEM       United States Senator                                   David M. Alameel                      VOTING PRECINCT 13                                     01 
01040020014000076DEM       United States Senator                                   David M. Alameel                      VOTING PRECINCT 14                                     01 
01040020015000048DEM       United States Senator                                   David M. Alameel                      VOTING PRECINCT 15                                     01 
01040020016000019DEM       United States Senator                                   David M. Alameel                      VOTING PRECINCT 16                                     01 
01040020017000046DEM       United States Senator                                   David M. Alameel                      VOTING PRECINCT 17                                     01 
01040030001000011LIB       United States Senator                                   Rebecca Paddock                       VOTING PRECINCT 1                                      01 
01040030002000009LIB       United States Senator                                   Rebecca Paddock                       VOTING PRECINCT 2                                      01 
01040030003000026LIB       United States Senator                                   Rebecca Paddock                       VOTING PRECINCT 3                                      01 
01040030004000013LIB       United States Senator                                   Rebecca Paddock                       VOTING PRECINCT 4                                      01 
01040030005000003LIB       United States Senator                                   Rebecca Paddock                       VOTING PRECINCT 5                                      01 
01040030006000005LIB       United States Senator                                   Rebecca Paddock                       VOTING PRECINCT 6                                      01 
01040030007000002LIB       United States Senator                                   Rebecca Paddock                       VOTING PRECINCT 7                                      01 
01040030008000004LIB       United States Senator                                   Rebecca Paddock                       VOTING PRECINCT 8                                      01 
01040030009000001LIB       United States Senator                                   Rebecca Paddock                       VOTING PRECINCT 9                                      01 
01040030010000016LIB       United States Senator                                   Rebecca Paddock                       VOTING PRECINCT 10                                     01 
01040030011000004LIB       United States Senator                                   Rebecca Paddock                       VOTING PRECINCT 11                                     01 
01040030012000014LIB       United States Senator                                   Rebecca Paddock                       VOTING PRECINCT 18                                     01 
01040030013000006LIB       United States Senator                                   Rebecca Paddock                       VOTING PRECINCT 13                                     01 
01040030014000013LIB       United States Senator                                   Rebecca Paddock                       VOTING PRECINCT 14                                     01 
01040030015000006LIB       United States Senator                                   Rebecca Paddock                       VOTING PRECINCT 15                                     01 
01040030016000006LIB       United States Senator                                   Rebecca Paddock                       VOTING PRECINCT 16                                     01 
01040030017000001LIB       United States Senator                                   Rebecca Paddock                       VOTING PRECINCT 17                                     01 
01040040001000002GRN       United States Senator                                   Emily "Spicybrown" Sanchez            VOTING PRECINCT 1                                      01 
01040040002000002GRN       United States Senator                                   Emily "Spicybrown" Sanchez            VOTING PRECINCT 2                                      01 
01040040003000003GRN       United States Senator                                   Emily "Spicybrown" Sanchez            VOTING PRECINCT 3                                      01 
01040040004000005GRN       United States Senator                                   Emily "Spicybrown" Sanchez            VOTING PRECINCT 4                                      01 
01040040005000001GRN       United States Senator                                   Emily "Spicybrown" Sanchez            VOTING PRECINCT 5                                      01 
01040040006000000GRN       United States Senator                                   Emily "Spicybrown" Sanchez            VOTING PRECINCT 6                                      01 
01040040007000000GRN       United States Senator                                   Emily "Spicybrown" Sanchez            VOTING PRECINCT 7                                      01 
01040040008000001GRN       United States Senator                                   Emily "Spicybrown" Sanchez            VOTING PRECINCT 8                                      01 
01040040009000000GRN       United States Senator                                   Emily "Spicybrown" Sanchez            VOTING PRECINCT 9                                      01 
01040040010000003GRN       United States Senator                                   Emily "Spicybrown" Sanchez            VOTING PRECINCT 10                                     01 
01040040011000000GRN       United States Senator                                   Emily "Spicybrown" Sanchez            VOTING PRECINCT 11                                     01 
01040040012000004GRN       United States Senator                                   Emily "Spicybrown" Sanchez            VOTING PRECINCT 18                                     01 
01040040013000001GRN       United States Senator                                   Emily "Spicybrown" Sanchez            VOTING PRECINCT 13                                     01 
01040040014000003GRN       United States Senator                                   Emily "Spicybrown" Sanchez            VOTING PRECINCT 14                                     01 
01040040015000004GRN       United States Senator                                   Emily "Spicybrown" Sanchez            VOTING PRECINCT 15                                     01 
01040040016000001GRN       United States Senator                                   Emily "Spicybrown" Sanchez            VOTING PRECINCT 16                                     01 
01040040017000002GRN       United States Senator                                   Emily "Spicybrown" Sanchez            VOTING PRECINCT 17                                     01 
01040050001000000NON       United States Senator                                   WRITE-IN                              VOTING PRECINCT 1                                      01 
01040050002000000NON       United States Senator                                   WRITE-IN                              VOTING PRECINCT 2                                      01 
01040050003000001NON       United States Senator                                   WRITE-IN                              VOTING PRECINCT 3                                      01 
01040050004000000NON       United States Senator                                   WRITE-IN                              VOTING PRECINCT 4                                      01 
01040050005000000NON       United States Senator                                   WRITE-IN                              VOTING PRECINCT 5                                      01 
01040050006000000NON       United States Senator                                   WRITE-IN                              VOTING PRECINCT 6                                      01 
01040050007000000NON       United States Senator                                   WRITE-IN                              VOTING PRECINCT 7                                      01 
01040050008000000NON       United States Senator                                   WRITE-IN                              VOTING PRECINCT 8                                      01 
01040050009000000NON       United States Senator                                   WRITE-IN                              VOTING PRECINCT 9                                      01 
01040050010000002NON       United States Senator                                   WRITE-IN                              VOTING PRECINCT 10                                     01 
01040050011000000NON       United States Senator                                   WRITE-IN                              VOTING PRECINCT 11                                     01 
01040050012000001NON       United States Senator                                   WRITE-IN                              VOTING PRECINCT 18                                     01 
01040050013000001NON       United States Senator                                   WRITE-IN                              VOTING PRECINCT 13                                     01 
01040050014000001NON       United States Senator                                   WRITE-IN                              VOTING PRECINCT 14                                     01 
01040050015000000NON       United States Senator                                   WRITE-IN                              VOTING PRECINCT 15                                     01 
01040050016000000NON       United States Senator                                   WRITE-IN                              VOTING PRECINCT 16                                     01 
01040050017000000NON       United States Senator                                   WRITE-IN                              VOTING PRECINCT 17                                     01 
01040060001000000          United States Senator                                   OVER VOTES                            VOTING PRECINCT 1                                      01 
01040060002000000          United States Senator                                   OVER VOTES                            VOTING PRECINCT 2                                      01 
01040060003000000          United States Senator                                   OVER VOTES                            VOTING PRECINCT 3                                      01 
01040060004000000          United States Senator                                   OVER VOTES                            VOTING PRECINCT 4                                      01 
01040060005000000          United States Senator                                   OVER VOTES                            VOTING PRECINCT 5                                      01 
01040060006000000          United States Senator                                   OVER VOTES                            VOTING PRECINCT 6                                      01 
01040060007000000          United States Senator                                   OVER VOTES                            VOTING PRECINCT 7                                      01 
01040060008000000          United States Senator                                   OVER VOTES                            VOTING PRECINCT 8                                      01 
01040060009000001          United States Senator                                   OVER VOTES                            VOTING PRECINCT 9                                      01 
01040060010000000          United States Senator                                   OVER VOTES                            VOTING PRECINCT 10                                     01 
01040060011000000          United States Senator                                   OVER VOTES                            VOTING PRECINCT 11                                     01 
01040060012000000          United States Senator                                   OVER VOTES                            VOTING PRECINCT 18                                     01 
01040060013000000          United States Senator                                   OVER VOTES                            VOTING PRECINCT 13                                     01 
01040060014000000          United States Senator                                   OVER VOTES                            VOTING PRECINCT 14                                     01 
01040060015000001          United States Senator                                   OVER VOTES                            VOTING PRECINCT 15                                     01 
01040060016000000          United States Senator                                   OVER VOTES                            VOTING PRECINCT 16                                     01 
01040060017000000          United States Senator                                   OVER VOTES                            VOTING PRECINCT 17                                     01 
01040070001000013          United States Senator                                   UNDER VOTES                           VOTING PRECINCT 1                                      01 
01040070002000007          United States Senator                                   UNDER VOTES                           VOTING PRECINCT 2                                      01 
01040070003000023          United States Senator                                   UNDER VOTES                           VOTING PRECINCT 3                                      01 
01040070004000010          United States Senator                                   UNDER VOTES                           VOTING PRECINCT 4                                      01 
01040070005000001          United States Senator                                   UNDER VOTES                           VOTING PRECINCT 5                                      01 
01040070006000002          United States Senator                                   UNDER VOTES                           VOTING PRECINCT 6                                      01 
01040070007000015          United States Senator                                   UNDER VOTES                           VOTING PRECINCT 7                                      01 
01040070008000003          United States Senator                                   UNDER VOTES                           VOTING PRECINCT 8                                      01 
01040070009000003          United States Senator                                   UNDER VOTES                           VOTING PRECINCT 9                                      01 
01040070010000034          United States Senator                                   UNDER VOTES                           VOTING PRECINCT 10                                     01 
01040070011000002          United States Senator                                   UNDER VOTES                           VOTING PRECINCT 11                                     01 
01040070012000018          United States Senator                                   UNDER VOTES                           VOTING PRECINCT 18                                     01 
01040070013000004          United States Senator                                   UNDER VOTES                           VOTING PRECINCT 13                                     01 
01040070014000018          United States Senator                                   UNDER VOTES                           VOTING PRECINCT 14                                     01 
01040070015000008          United States Senator                                   UNDER VOTES                           VOTING PRECINCT 15                                     01 
01040070016000004          United States Senator                                   UNDER VOTES                           VOTING PRECINCT 16                                     01 
01040070017000005          United States Senator                                   UNDER VOTES                           VOTING PRECINCT 17                                     01 
01050010001000248REP       United States Representative, Dist 36                   Brian Babin                           VOTING PRECINCT 1                                      01 
01050010002000202REP       United States Representative, Dist 36                   Brian Babin                           VOTING PRECINCT 2                                      01 
01050010003000412REP       United States Representative, Dist 36                   Brian Babin                           VOTING PRECINCT 3                                      01 
01050010004000360REP       United States Representative, Dist 36                   Brian Babin                           VOTING PRECINCT 4                                      01 
01050010005000028REP       United States Representative, Dist 36                   Brian Babin                           VOTING PRECINCT 5                                      01 
01050010006000177REP       United States Representative, Dist 36                   Brian Babin                           VOTING PRECINCT 6                                      01 
01050010007000214REP       United States Representative, Dist 36                   Brian Babin                           VOTING PRECINCT 7                                      01 
01050010008000092REP       United States Representative, Dist 36                   Brian Babin                           VOTING PRECINCT 8                                      01 
01050010009000110REP       United States Representative, Dist 36                   Brian Babin                           VOTING PRECINCT 9                                      01 
01050010010000442REP       United States Representative, Dist 36                   Brian Babin                           VOTING PRECINCT 10                                     01 
01050010011000035REP       United States Representative, Dist 36                   Brian Babin                           VOTING PRECINCT 11                                     01 
01050010012000454REP       United States Representative, Dist 36                   Brian Babin                           VOTING PRECINCT 18                                     01 
01050010013000150REP       United States Representative, Dist 36                   Brian Babin                           VOTING PRECINCT 13                                     01 
01050010014000421REP       United States Representative, Dist 36                   Brian Babin                           VOTING PRECINCT 14                                     01 
01050010015000210REP       United States Representative, Dist 36                   Brian Babin                           VOTING PRECINCT 15                                     01 
01050010016000151REP       United States Representative, Dist 36                   Brian Babin                           VOTING PRECINCT 16                                     01 
01050010017000144REP       United States Representative, Dist 36                   Brian Babin                           VOTING PRECINCT 17                                     01 
01050020001000040DEM       United States Representative, Dist 36                   Michael K. Cole                       VOTING PRECINCT 1                                      01 
01050020002000082DEM       United States Representative, Dist 36                   Michael K. Cole                       VOTING PRECINCT 2                                      01 
01050020003000127DEM       United States Representative, Dist 36                   Michael K. Cole                       VOTING PRECINCT 3                                      01 
01050020004000062DEM       United States Representative, Dist 36                   Michael K. Cole                       VOTING PRECINCT 4                                      01 
01050020005000028DEM       United States Representative, Dist 36                   Michael K. Cole                       VOTING PRECINCT 5                                      01 
01050020006000018DEM       United States Representative, Dist 36                   Michael K. Cole                       VOTING PRECINCT 6                                      01 
01050020007000015DEM       United States Representative, Dist 36                   Michael K. Cole                       VOTING PRECINCT 7                                      01 
01050020008000007DEM       United States Representative, Dist 36                   Michael K. Cole                       VOTING PRECINCT 8                                      01 
01050020009000021DEM       United States Representative, Dist 36                   Michael K. Cole                       VOTING PRECINCT 9                                      01 
01050020010000079DEM       United States Representative, Dist 36                   Michael K. Cole                       VOTING PRECINCT 10                                     01 
01050020011000006DEM       United States Representative, Dist 36                   Michael K. Cole                       VOTING PRECINCT 11                                     01 
01050020012000064DEM       United States Representative, Dist 36                   Michael K. Cole                       VOTING PRECINCT 18                                     01 
01050020013000051DEM       United States Representative, Dist 36                   Michael K. Cole                       VOTING PRECINCT 13                                     01 
01050020014000076DEM       United States Representative, Dist 36                   Michael K. Cole                       VOTING PRECINCT 14                                     01 
01050020015000044DEM       United States Representative, Dist 36                   Michael K. Cole                       VOTING PRECINCT 15                                     01 
01050020016000022DEM       United States Representative, Dist 36                   Michael K. Cole                       VOTING PRECINCT 16                                     01 
01050020017000038DEM       United States Representative, Dist 36                   Michael K. Cole                       VOTING PRECINCT 17                                     01 
01050030001000004LIB       United States Representative, Dist 36                   Rodney Veach                          VOTING PRECINCT 1                                      01 
01050030002000005LIB       United States Representative, Dist 36                   Rodney Veach                          VOTING PRECINCT 2                                      01 
01050030003000017LIB       United States Representative, Dist 36                   Rodney Veach                          VOTING PRECINCT 3                                      01 
01050030004000005LIB       United States Representative, Dist 36                   Rodney Veach                          VOTING PRECINCT 4                                      01 
01050030005000003LIB       United States Representative, Dist 36                   Rodney Veach                          VOTING PRECINCT 5                                      01 
01050030006000003LIB       United States Representative, Dist 36                   Rodney Veach                          VOTING PRECINCT 6                                      01 
01050030007000001LIB       United States Representative, Dist 36                   Rodney Veach                          VOTING PRECINCT 7                                      01 
01050030008000003LIB       United States Representative, Dist 36                   Rodney Veach                          VOTING PRECINCT 8                                      01 
01050030009000001LIB       United States Representative, Dist 36                   Rodney Veach                          VOTING PRECINCT 9                                      01 
01050030010000006LIB       United States Representative, Dist 36                   Rodney Veach                          VOTING PRECINCT 10                                     01 
01050030011000001LIB       United States Representative, Dist 36                   Rodney Veach                          VOTING PRECINCT 11                                     01 
01050030012000012LIB       United States Representative, Dist 36                   Rodney Veach                          VOTING PRECINCT 18                                     01 
01050030013000007LIB       United States Representative, Dist 36                   Rodney Veach                          VOTING PRECINCT 13                                     01 
01050030014000009LIB       United States Representative, Dist 36                   Rodney Veach                          VOTING PRECINCT 14                                     01 
01050030015000005LIB       United States Representative, Dist 36                   Rodney Veach                          VOTING PRECINCT 15                                     01 
01050030016000001LIB       United States Representative, Dist 36                   Rodney Veach                          VOTING PRECINCT 16                                     01 
01050030017000003LIB       United States Representative, Dist 36                   Rodney Veach                          VOTING PRECINCT 17                                     01 
01050040001000002GRN       United States Representative, Dist 36                   Hal J. Ridley, Jr.                    VOTING PRECINCT 1                                      01 
01050040002000000GRN       United States Representative, Dist 36                   Hal J. Ridley, Jr.                    VOTING PRECINCT 2                                      01 
01050040003000004GRN       United States Representative, Dist 36                   Hal J. Ridley, Jr.                    VOTING PRECINCT 3                                      01 
01050040004000002GRN       United States Representative, Dist 36                   Hal J. Ridley, Jr.                    VOTING PRECINCT 4                                      01 
01050040005000001GRN       United States Representative, Dist 36                   Hal J. Ridley, Jr.                    VOTING PRECINCT 5                                      01 
01050040006000001GRN       United States Representative, Dist 36                   Hal J. Ridley, Jr.                    VOTING PRECINCT 6                                      01 
01050040007000000GRN       United States Representative, Dist 36                   Hal J. Ridley, Jr.                    VOTING PRECINCT 7                                      01 
01050040008000000GRN       United States Representative, Dist 36                   Hal J. Ridley, Jr.                    VOTING PRECINCT 8                                      01 
01050040009000000GRN       United States Representative, Dist 36                   Hal J. Ridley, Jr.                    VOTING PRECINCT 9                                      01 
01050040010000004GRN       United States Representative, Dist 36                   Hal J. Ridley, Jr.                    VOTING PRECINCT 10                                     01 
01050040011000000GRN       United States Representative, Dist 36                   Hal J. Ridley, Jr.                    VOTING PRECINCT 11                                     01 
01050040012000002GRN       United States Representative, Dist 36                   Hal J. Ridley, Jr.                    VOTING PRECINCT 18                                     01 
01050040013000001GRN       United States Representative, Dist 36                   Hal J. Ridley, Jr.                    VOTING PRECINCT 13                                     01 
01050040014000002GRN       United States Representative, Dist 36                   Hal J. Ridley, Jr.                    VOTING PRECINCT 14                                     01 
01050040015000000GRN       United States Representative, Dist 36                   Hal J. Ridley, Jr.                    VOTING PRECINCT 15                                     01 
01050040016000000GRN       United States Representative, Dist 36                   Hal J. Ridley, Jr.                    VOTING PRECINCT 16                                     01 
01050040017000000GRN       United States Representative, Dist 36                   Hal J. Ridley, Jr.                    VOTING PRECINCT 17                                     01 
01050050001000000          United States Representative, Dist 36                   OVER VOTES                            VOTING PRECINCT 1                                      01 
01050050002000000          United States Representative, Dist 36                   OVER VOTES                            VOTING PRECINCT 2                                      01 
01050050003000000          United States Representative, Dist 36                   OVER VOTES                            VOTING PRECINCT 3                                      01 
01050050004000000          United States Representative, Dist 36                   OVER VOTES                            VOTING PRECINCT 4                                      01 
01050050005000000          United States Representative, Dist 36                   OVER VOTES                            VOTING PRECINCT 5                                      01 
01050050006000000          United States Representative, Dist 36                   OVER VOTES                            VOTING PRECINCT 6                                      01 
01050050007000000          United States Representative, Dist 36                   OVER VOTES                            VOTING PRECINCT 7                                      01 
01050050008000000          United States Representative, Dist 36                   OVER VOTES                            VOTING PRECINCT 8                                      01 
01050050009000000          United States Representative, Dist 36                   OVER VOTES                            VOTING PRECINCT 9                                      01 
01050050010000000          United States Representative, Dist 36                   OVER VOTES                            VOTING PRECINCT 10                                     01 
01050050011000000          United States Representative, Dist 36                   OVER VOTES                            VOTING PRECINCT 11                                     01 
01050050012000001          United States Representative, Dist 36                   OVER VOTES                            VOTING PRECINCT 18                                     01 
01050050013000000          United States Representative, Dist 36                   OVER VOTES                            VOTING PRECINCT 13                                     01 
01050050014000002          United States Representative, Dist 36                   OVER VOTES                            VOTING PRECINCT 14                                     01 
01050050015000000          United States Representative, Dist 36                   OVER VOTES                            VOTING PRECINCT 15                                     01 
01050050016000000          United States Representative, Dist 36                   OVER VOTES                            VOTING PRECINCT 16                                     01 
01050050017000000          United States Representative, Dist 36                   OVER VOTES                            VOTING PRECINCT 17                                     01 
01050060001000003          United States Representative, Dist 36                   UNDER VOTES                           VOTING PRECINCT 1                                      01 
01050060002000009          United States Representative, Dist 36                   UNDER VOTES                           VOTING PRECINCT 2                                      01 
01050060003000006          United States Representative, Dist 36                   UNDER VOTES                           VOTING PRECINCT 3                                      01 
01050060004000006          United States Representative, Dist 36                   UNDER VOTES                           VOTING PRECINCT 4                                      01 
01050060005000001          United States Representative, Dist 36                   UNDER VOTES                           VOTING PRECINCT 5                                      01 
01050060006000001          United States Representative, Dist 36                   UNDER VOTES                           VOTING PRECINCT 6                                      01 
01050060007000003          United States Representative, Dist 36                   UNDER VOTES                           VOTING PRECINCT 7                                      01 
01050060008000001          United States Representative, Dist 36                   UNDER VOTES                           VOTING PRECINCT 8                                      01 
01050060009000002          United States Representative, Dist 36                   UNDER VOTES                           VOTING PRECINCT 9                                      01 
01050060010000018          United States Representative, Dist 36                   UNDER VOTES                           VOTING PRECINCT 10                                     01 
01050060011000001          United States Representative, Dist 36                   UNDER VOTES                           VOTING PRECINCT 11                                     01 
01050060012000010          United States Representative, Dist 36                   UNDER VOTES                           VOTING PRECINCT 18                                     01 
01050060013000000          United States Representative, Dist 36                   UNDER VOTES                           VOTING PRECINCT 13                                     01 
01050060014000008          United States Representative, Dist 36                   UNDER VOTES                           VOTING PRECINCT 14                                     01 
01050060015000003          United States Representative, Dist 36                   UNDER VOTES                           VOTING PRECINCT 15                                     01 
01050060016000002          United States Representative, Dist 36                   UNDER VOTES                           VOTING PRECINCT 16                                     01 
01050060017000004          United States Representative, Dist 36                   UNDER VOTES                           VOTING PRECINCT 17                                     01 
01060010001000228REP       Govenor                                                 Greg Abbott                           VOTING PRECINCT 1                                      01 
01060010002000203REP       Govenor                                                 Greg Abbott                           VOTING PRECINCT 2                                      01 
01060010003000394REP       Govenor                                                 Greg Abbott                           VOTING PRECINCT 3                                      01 
01060010004000357REP       Govenor                                                 Greg Abbott                           VOTING PRECINCT 4                                      01 
01060010005000030REP       Govenor                                                 Greg Abbott                           VOTING PRECINCT 5                                      01 
01060010006000170REP       Govenor                                                 Greg Abbott                           VOTING PRECINCT 6                                      01 
01060010007000206REP       Govenor                                                 Greg Abbott                           VOTING PRECINCT 7                                      01 
01060010008000095REP       Govenor                                                 Greg Abbott                           VOTING PRECINCT 8                                      01 
01060010009000110REP       Govenor                                                 Greg Abbott                           VOTING PRECINCT 9                                      01 
01060010010000442REP       Govenor                                                 Greg Abbott                           VOTING PRECINCT 10                                     01 
01060010011000038REP       Govenor                                                 Greg Abbott                           VOTING PRECINCT 11                                     01 
01060010012000447REP       Govenor                                                 Greg Abbott                           VOTING PRECINCT 18                                     01 
01060010013000153REP       Govenor                                                 Greg Abbott                           VOTING PRECINCT 13                                     01 
01060010014000422REP       Govenor                                                 Greg Abbott                           VOTING PRECINCT 14                                     01 
01060010015000210REP       Govenor                                                 Greg Abbott                           VOTING PRECINCT 15                                     01 
01060010016000151REP       Govenor                                                 Greg Abbott                           VOTING PRECINCT 16                                     01 
01060010017000132REP       Govenor                                                 Greg Abbott                           VOTING PRECINCT 17                                     01 
01060020001000055DEM       Govenor                                                 Wendy R. Davis                        VOTING PRECINCT 1                                      01 
01060020002000088DEM       Govenor                                                 Wendy R. Davis                        VOTING PRECINCT 2                                      01 
01060020003000152DEM       Govenor                                                 Wendy R. Davis                        VOTING PRECINCT 3                                      01 
01060020004000070DEM       Govenor                                                 Wendy R. Davis                        VOTING PRECINCT 4                                      01 
01060020005000031DEM       Govenor                                                 Wendy R. Davis                        VOTING PRECINCT 5                                      01 
01060020006000025DEM       Govenor                                                 Wendy R. Davis                        VOTING PRECINCT 6                                      01 
01060020007000025DEM       Govenor                                                 Wendy R. Davis                        VOTING PRECINCT 7                                      01 
01060020008000006DEM       Govenor                                                 Wendy R. Davis                        VOTING PRECINCT 8                                      01 
01060020009000023DEM       Govenor                                                 Wendy R. Davis                        VOTING PRECINCT 9                                      01 
01060020010000083DEM       Govenor                                                 Wendy R. Davis                        VOTING PRECINCT 10                                     01 
01060020011000004DEM       Govenor                                                 Wendy R. Davis                        VOTING PRECINCT 11                                     01 
01060020012000074DEM       Govenor                                                 Wendy R. Davis                        VOTING PRECINCT 18                                     01 
01060020013000050DEM       Govenor                                                 Wendy R. Davis                        VOTING PRECINCT 13                                     01 
01060020014000084DEM       Govenor                                                 Wendy R. Davis                        VOTING PRECINCT 14                                     01 
01060020015000044DEM       Govenor                                                 Wendy R. Davis                        VOTING PRECINCT 15                                     01 
01060020016000020DEM       Govenor                                                 Wendy R. Davis                        VOTING PRECINCT 16                                     01 
01060020017000051DEM       Govenor                                                 Wendy R. Davis                        VOTING PRECINCT 17                                     01 
01060030001000005LIB       Govenor                                                 Kathie Glass                          VOTING PRECINCT 1                                      01 
01060030002000006LIB       Govenor                                                 Kathie Glass                          VOTING PRECINCT 2                                      01 
01060030003000010LIB       Govenor                                                 Kathie Glass                          VOTING PRECINCT 3                                      01 
01060030004000003LIB       Govenor                                                 Kathie Glass                          VOTING PRECINCT 4                                      01 
01060030005000000LIB       Govenor                                                 Kathie Glass                          VOTING PRECINCT 5                                      01 
01060030006000004LIB       Govenor                                                 Kathie Glass                          VOTING PRECINCT 6                                      01 
01060030007000000LIB       Govenor                                                 Kathie Glass                          VOTING PRECINCT 7                                      01 
01060030008000001LIB       Govenor                                                 Kathie Glass                          VOTING PRECINCT 8                                      01 
01060030009000001LIB       Govenor                                                 Kathie Glass                          VOTING PRECINCT 9                                      01 
01060030010000007LIB       Govenor                                                 Kathie Glass                          VOTING PRECINCT 10                                     01 
01060030011000001LIB       Govenor                                                 Kathie Glass                          VOTING PRECINCT 11                                     01 
01060030012000012LIB       Govenor                                                 Kathie Glass                          VOTING PRECINCT 18                                     01 
01060030013000005LIB       Govenor                                                 Kathie Glass                          VOTING PRECINCT 13                                     01 
01060030014000004LIB       Govenor                                                 Kathie Glass                          VOTING PRECINCT 14                                     01 
01060030015000004LIB       Govenor                                                 Kathie Glass                          VOTING PRECINCT 15                                     01 
01060030016000002LIB       Govenor                                                 Kathie Glass                          VOTING PRECINCT 16                                     01 
01060030017000002LIB       Govenor                                                 Kathie Glass                          VOTING PRECINCT 17                                     01 
01060040001000004GRN       Govenor                                                 Brandon Parmer                        VOTING PRECINCT 1                                      01 
01060040002000000GRN       Govenor                                                 Brandon Parmer                        VOTING PRECINCT 2                                      01 
01060040003000005GRN       Govenor                                                 Brandon Parmer                        VOTING PRECINCT 3                                      01 
01060040004000002GRN       Govenor                                                 Brandon Parmer                        VOTING PRECINCT 4                                      01 
01060040005000000GRN       Govenor                                                 Brandon Parmer                        VOTING PRECINCT 5                                      01 
01060040006000000GRN       Govenor                                                 Brandon Parmer                        VOTING PRECINCT 6                                      01 
01060040007000000GRN       Govenor                                                 Brandon Parmer                        VOTING PRECINCT 7                                      01 
01060040008000000GRN       Govenor                                                 Brandon Parmer                        VOTING PRECINCT 8                                      01 
01060040009000000GRN       Govenor                                                 Brandon Parmer                        VOTING PRECINCT 9                                      01 
01060040010000003GRN       Govenor                                                 Brandon Parmer                        VOTING PRECINCT 10                                     01 
01060040011000000GRN       Govenor                                                 Brandon Parmer                        VOTING PRECINCT 11                                     01 
01060040012000004GRN       Govenor                                                 Brandon Parmer                        VOTING PRECINCT 18                                     01 
01060040013000001GRN       Govenor                                                 Brandon Parmer                        VOTING PRECINCT 13                                     01 
01060040014000006GRN       Govenor                                                 Brandon Parmer                        VOTING PRECINCT 14                                     01 
01060040015000002GRN       Govenor                                                 Brandon Parmer                        VOTING PRECINCT 15                                     01 
01060040016000000GRN       Govenor                                                 Brandon Parmer                        VOTING PRECINCT 16                                     01 
01060040017000001GRN       Govenor                                                 Brandon Parmer                        VOTING PRECINCT 17                                     01 
01060050001000000NON       Govenor                                                 WRITE-IN                              VOTING PRECINCT 1                                      01 
01060050002000000NON       Govenor                                                 WRITE-IN                              VOTING PRECINCT 2                                      01 
01060050003000000NON       Govenor                                                 WRITE-IN                              VOTING PRECINCT 3                                      01 
01060050004000000NON       Govenor                                                 WRITE-IN                              VOTING PRECINCT 4                                      01 
01060050005000000NON       Govenor                                                 WRITE-IN                              VOTING PRECINCT 5                                      01 
01060050006000000NON       Govenor                                                 WRITE-IN                              VOTING PRECINCT 6                                      01 
01060050007000000NON       Govenor                                                 WRITE-IN                              VOTING PRECINCT 7                                      01 
01060050008000000NON       Govenor                                                 WRITE-IN                              VOTING PRECINCT 8                                      01 
01060050009000000NON       Govenor                                                 WRITE-IN                              VOTING PRECINCT 9                                      01 
01060050010000001NON       Govenor                                                 WRITE-IN                              VOTING PRECINCT 10                                     01 
01060050011000000NON       Govenor                                                 WRITE-IN                              VOTING PRECINCT 11                                     01 
01060050012000000NON       Govenor                                                 WRITE-IN                              VOTING PRECINCT 18                                     01 
01060050013000000NON       Govenor                                                 WRITE-IN                              VOTING PRECINCT 13                                     01 
01060050014000000NON       Govenor                                                 WRITE-IN                              VOTING PRECINCT 14                                     01 
01060050015000000NON       Govenor                                                 WRITE-IN                              VOTING PRECINCT 15                                     01 
01060050016000000NON       Govenor                                                 WRITE-IN                              VOTING PRECINCT 16                                     01 
01060050017000000NON       Govenor                                                 WRITE-IN                              VOTING PRECINCT 17                                     01 
01060060001000000          Govenor                                                 OVER VOTES                            VOTING PRECINCT 1                                      01 
01060060002000000          Govenor                                                 OVER VOTES                            VOTING PRECINCT 2                                      01 
01060060003000000          Govenor                                                 OVER VOTES                            VOTING PRECINCT 3                                      01 
01060060004000000          Govenor                                                 OVER VOTES                            VOTING PRECINCT 4                                      01 
01060060005000000          Govenor                                                 OVER VOTES                            VOTING PRECINCT 5                                      01 
01060060006000000          Govenor                                                 OVER VOTES                            VOTING PRECINCT 6                                      01 
01060060007000000          Govenor                                                 OVER VOTES                            VOTING PRECINCT 7                                      01 
01060060008000000          Govenor                                                 OVER VOTES                            VOTING PRECINCT 8                                      01 
01060060009000000          Govenor                                                 OVER VOTES                            VOTING PRECINCT 9                                      01 
01060060010000001          Govenor                                                 OVER VOTES                            VOTING PRECINCT 10                                     01 
01060060011000000          Govenor                                                 OVER VOTES                            VOTING PRECINCT 11                                     01 
01060060012000001          Govenor                                                 OVER VOTES                            VOTING PRECINCT 18                                     01 
01060060013000000          Govenor                                                 OVER VOTES                            VOTING PRECINCT 13                                     01 
01060060014000000          Govenor                                                 OVER VOTES                            VOTING PRECINCT 14                                     01 
01060060015000000          Govenor                                                 OVER VOTES                            VOTING PRECINCT 15                                     01 
01060060016000000          Govenor                                                 OVER VOTES                            VOTING PRECINCT 16                                     01 
01060060017000000          Govenor                                                 OVER VOTES                            VOTING PRECINCT 17                                     01 
01060070001000005          Govenor                                                 UNDER VOTES                           VOTING PRECINCT 1                                      01 
01060070002000001          Govenor                                                 UNDER VOTES                           VOTING PRECINCT 2                                      01 
01060070003000005          Govenor                                                 UNDER VOTES                           VOTING PRECINCT 3                                      01 
01060070004000003          Govenor                                                 UNDER VOTES                           VOTING PRECINCT 4                                      01 
01060070005000000          Govenor                                                 UNDER VOTES                           VOTING PRECINCT 5                                      01 
01060070006000001          Govenor                                                 UNDER VOTES                           VOTING PRECINCT 6                                      01 
01060070007000002          Govenor                                                 UNDER VOTES                           VOTING PRECINCT 7                                      01 
01060070008000001          Govenor                                                 UNDER VOTES                           VOTING PRECINCT 8                                      01 
01060070009000000          Govenor                                                 UNDER VOTES                           VOTING PRECINCT 9                                      01 
01060070010000012          Govenor                                                 UNDER VOTES                           VOTING PRECINCT 10                                     01 
01060070011000000          Govenor                                                 UNDER VOTES                           VOTING PRECINCT 11                                     01 
01060070012000005          Govenor                                                 UNDER VOTES                           VOTING PRECINCT 18                                     01 
01060070013000000          Govenor                                                 UNDER VOTES                           VOTING PRECINCT 13                                     01 
01060070014000002          Govenor                                                 UNDER VOTES                           VOTING PRECINCT 14                                     01 
01060070015000002          Govenor                                                 UNDER VOTES                           VOTING PRECINCT 15                                     01 
01060070016000003          Govenor                                                 UNDER VOTES                           VOTING PRECINCT 16                                     01 
01060070017000003          Govenor                                                 UNDER VOTES                           VOTING PRECINCT 17                                     01 
01070010001000220REP       Lieutenant Governor                                     Dan Patrick                           VOTING PRECINCT 1                                      01 
01070010002000189REP       Lieutenant Governor                                     Dan Patrick                           VOTING PRECINCT 2                                      01 
01070010003000392REP       Lieutenant Governor                                     Dan Patrick                           VOTING PRECINCT 3                                      01 
01070010004000349REP       Lieutenant Governor                                     Dan Patrick                           VOTING PRECINCT 4                                      01 
01070010005000027REP       Lieutenant Governor                                     Dan Patrick                           VOTING PRECINCT 5                                      01 
01070010006000165REP       Lieutenant Governor                                     Dan Patrick                           VOTING PRECINCT 6                                      01 
01070010007000196REP       Lieutenant Governor                                     Dan Patrick                           VOTING PRECINCT 7                                      01 
01070010008000090REP       Lieutenant Governor                                     Dan Patrick                           VOTING PRECINCT 8                                      01 
01070010009000108REP       Lieutenant Governor                                     Dan Patrick                           VOTING PRECINCT 9                                      01 
01070010010000422REP       Lieutenant Governor                                     Dan Patrick                           VOTING PRECINCT 10                                     01 
01070010011000035REP       Lieutenant Governor                                     Dan Patrick                           VOTING PRECINCT 11                                     01 
01070010012000439REP       Lieutenant Governor                                     Dan Patrick                           VOTING PRECINCT 18                                     01 
01070010013000148REP       Lieutenant Governor                                     Dan Patrick                           VOTING PRECINCT 13                                     01 
01070010014000412REP       Lieutenant Governor                                     Dan Patrick                           VOTING PRECINCT 14                                     01 
01070010015000201REP       Lieutenant Governor                                     Dan Patrick                           VOTING PRECINCT 15                                     01 
01070010016000144REP       Lieutenant Governor                                     Dan Patrick                           VOTING PRECINCT 16                                     01 
01070010017000133REP       Lieutenant Governor                                     Dan Patrick                           VOTING PRECINCT 17                                     01 
01070020001000049DEM       Lieutenant Governor                                     Leticia Van de Putte                  VOTING PRECINCT 1                                      01 
01070020002000086DEM       Lieutenant Governor                                     Leticia Van de Putte                  VOTING PRECINCT 2                                      01 
01070020003000138DEM       Lieutenant Governor                                     Leticia Van de Putte                  VOTING PRECINCT 3                                      01 
01070020004000066DEM       Lieutenant Governor                                     Leticia Van de Putte                  VOTING PRECINCT 4                                      01 
01070020005000028DEM       Lieutenant Governor                                     Leticia Van de Putte                  VOTING PRECINCT 5                                      01 
01070020006000027DEM       Lieutenant Governor                                     Leticia Van de Putte                  VOTING PRECINCT 6                                      01 
01070020007000025DEM       Lieutenant Governor                                     Leticia Van de Putte                  VOTING PRECINCT 7                                      01 
01070020008000008DEM       Lieutenant Governor                                     Leticia Van de Putte                  VOTING PRECINCT 8                                      01 
01070020009000023DEM       Lieutenant Governor                                     Leticia Van de Putte                  VOTING PRECINCT 9                                      01 
01070020010000081DEM       Lieutenant Governor                                     Leticia Van de Putte                  VOTING PRECINCT 10                                     01 
01070020011000005DEM       Lieutenant Governor                                     Leticia Van de Putte                  VOTING PRECINCT 11                                     01 
01070020012000073DEM       Lieutenant Governor                                     Leticia Van de Putte                  VOTING PRECINCT 18                                     01 
01070020013000052DEM       Lieutenant Governor                                     Leticia Van de Putte                  VOTING PRECINCT 13                                     01 
01070020014000072DEM       Lieutenant Governor                                     Leticia Van de Putte                  VOTING PRECINCT 14                                     01 
01070020015000041DEM       Lieutenant Governor                                     Leticia Van de Putte                  VOTING PRECINCT 15                                     01 
01070020016000019DEM       Lieutenant Governor                                     Leticia Van de Putte                  VOTING PRECINCT 16                                     01 
01070020017000048DEM       Lieutenant Governor                                     Leticia Van de Putte                  VOTING PRECINCT 17                                     01 
01070030001000011LIB       Lieutenant Governor                                     Robert D. Butler                      VOTING PRECINCT 1                                      01 
01070030002000007LIB       Lieutenant Governor                                     Robert D. Butler                      VOTING PRECINCT 2                                      01 
01070030003000015LIB       Lieutenant Governor                                     Robert D. Butler                      VOTING PRECINCT 3                                      01 
01070030004000009LIB       Lieutenant Governor                                     Robert D. Butler                      VOTING PRECINCT 4                                      01 
01070030005000004LIB       Lieutenant Governor                                     Robert D. Butler                      VOTING PRECINCT 5                                      01 
01070030006000007LIB       Lieutenant Governor                                     Robert D. Butler                      VOTING PRECINCT 6                                      01 
01070030007000004LIB       Lieutenant Governor                                     Robert D. Butler                      VOTING PRECINCT 7                                      01 
01070030008000004LIB       Lieutenant Governor                                     Robert D. Butler                      VOTING PRECINCT 8                                      01 
01070030009000001LIB       Lieutenant Governor                                     Robert D. Butler                      VOTING PRECINCT 9                                      01 
01070030010000012LIB       Lieutenant Governor                                     Robert D. Butler                      VOTING PRECINCT 10                                     01 
01070030011000001LIB       Lieutenant Governor                                     Robert D. Butler                      VOTING PRECINCT 11                                     01 
01070030012000015LIB       Lieutenant Governor                                     Robert D. Butler                      VOTING PRECINCT 18                                     01 
01070030013000006LIB       Lieutenant Governor                                     Robert D. Butler                      VOTING PRECINCT 13                                     01 
01070030014000014LIB       Lieutenant Governor                                     Robert D. Butler                      VOTING PRECINCT 14                                     01 
01070030015000008LIB       Lieutenant Governor                                     Robert D. Butler                      VOTING PRECINCT 15                                     01 
01070030016000004LIB       Lieutenant Governor                                     Robert D. Butler                      VOTING PRECINCT 16                                     01 
01070030017000003LIB       Lieutenant Governor                                     Robert D. Butler                      VOTING PRECINCT 17                                     01 
01070040001000002GRN       Lieutenant Governor                                     Chandrakantha Courtney                VOTING PRECINCT 1                                      01 
01070040002000002GRN       Lieutenant Governor                                     Chandrakantha Courtney                VOTING PRECINCT 2                                      01 
01070040003000001GRN       Lieutenant Governor                                     Chandrakantha Courtney                VOTING PRECINCT 3                                      01 
01070040004000001GRN       Lieutenant Governor                                     Chandrakantha Courtney                VOTING PRECINCT 4                                      01 
01070040005000001GRN       Lieutenant Governor                                     Chandrakantha Courtney                VOTING PRECINCT 5                                      01 
01070040006000000GRN       Lieutenant Governor                                     Chandrakantha Courtney                VOTING PRECINCT 6                                      01 
01070040007000000GRN       Lieutenant Governor                                     Chandrakantha Courtney                VOTING PRECINCT 7                                      01 
01070040008000000GRN       Lieutenant Governor                                     Chandrakantha Courtney                VOTING PRECINCT 8                                      01 
01070040009000000GRN       Lieutenant Governor                                     Chandrakantha Courtney                VOTING PRECINCT 9                                      01 
01070040010000002GRN       Lieutenant Governor                                     Chandrakantha Courtney                VOTING PRECINCT 10                                     01 
01070040011000000GRN       Lieutenant Governor                                     Chandrakantha Courtney                VOTING PRECINCT 11                                     01 
01070040012000003GRN       Lieutenant Governor                                     Chandrakantha Courtney                VOTING PRECINCT 18                                     01 
01070040013000001GRN       Lieutenant Governor                                     Chandrakantha Courtney                VOTING PRECINCT 13                                     01 
01070040014000002GRN       Lieutenant Governor                                     Chandrakantha Courtney                VOTING PRECINCT 14                                     01 
01070040015000003GRN       Lieutenant Governor                                     Chandrakantha Courtney                VOTING PRECINCT 15                                     01 
01070040016000001GRN       Lieutenant Governor                                     Chandrakantha Courtney                VOTING PRECINCT 16                                     01 
01070040017000000GRN       Lieutenant Governor                                     Chandrakantha Courtney                VOTING PRECINCT 17                                     01 
01070050001000000          Lieutenant Governor                                     OVER VOTES                            VOTING PRECINCT 1                                      01 
01070050002000000          Lieutenant Governor                                     OVER VOTES                            VOTING PRECINCT 2                                      01 
01070050003000000          Lieutenant Governor                                     OVER VOTES                            VOTING PRECINCT 3                                      01 
01070050004000001          Lieutenant Governor                                     OVER VOTES                            VOTING PRECINCT 4                                      01 
01070050005000000          Lieutenant Governor                                     OVER VOTES                            VOTING PRECINCT 5                                      01 
01070050006000000          Lieutenant Governor                                     OVER VOTES                            VOTING PRECINCT 6                                      01 
01070050007000000          Lieutenant Governor                                     OVER VOTES                            VOTING PRECINCT 7                                      01 
01070050008000000          Lieutenant Governor                                     OVER VOTES                            VOTING PRECINCT 8                                      01 
