01010010001000000          REGISTERED VOTERS - TOTAL                               REGISTERED VOTERS - TOTAL             VOTING PRECINCT 1                                      00 
01010010002000000          REGISTERED VOTERS - TOTAL                               REGISTERED VOTERS - TOTAL             VOTING PRECINCT 2                                      00 
01010010003000000          REGISTERED VOTERS - TOTAL                               REGISTERED VOTERS - TOTAL             VOTING PRECINCT 3                                      00 
01010010004000000          REGISTERED VOTERS - TOTAL                               REGISTERED VOTERS - TOTAL             VOTING PRECINCT 4                                      00 
01010010005000000          REGISTERED VOTERS - TOTAL                               REGISTERED VOTERS - TOTAL             VOTING PRECINCT 5                                      00 
01010010006000000          REGISTERED VOTERS - TOTAL                               REGISTERED VOTERS - TOTAL             VOTING PRECINCT 6                                      00 
01010010007000000          REGISTERED VOTERS - TOTAL                               REGISTERED VOTERS - TOTAL             VOTING PRECINCT 7                                      00 
01010010008000000          REGISTERED VOTERS - TOTAL                               REGISTERED VOTERS - TOTAL             VOTING PRECINCT 8                                      00 
01010010009000000          REGISTERED VOTERS - TOTAL                               REGISTERED VOTERS - TOTAL             VOTING PRECINCT 9                                      00 
01010010010000000          REGISTERED VOTERS - TOTAL                               REGISTERED VOTERS - TOTAL             VOTING PRECINCT 10                                     00 
01010010011000000          REGISTERED VOTERS - TOTAL                               REGISTERED VOTERS - TOTAL             VOTING PRECINCT 11                                     00 
01010010012000000          REGISTERED VOTERS - TOTAL                               REGISTERED VOTERS - TOTAL             VOTING PRECINCT 18                                     00 
01010010013000000          REGISTERED VOTERS - TOTAL                               REGISTERED VOTERS - TOTAL             VOTING PRECINCT 13                                     00 
01010010014000000          REGISTERED VOTERS - TOTAL                               REGISTERED VOTERS - TOTAL             VOTING PRECINCT 14                                     00 
01010010015000000          REGISTERED VOTERS - TOTAL                               REGISTERED VOTERS - TOTAL             VOTING PRECINCT 15                                     00 
01010010016000000          REGISTERED VOTERS - TOTAL                               REGISTERED VOTERS - TOTAL             VOTING PRECINCT 16                                     00 
01010010017000000          REGISTERED VOTERS - TOTAL                               REGISTERED VOTERS - TOTAL             VOTING PRECINCT 17                                     00 
01020010001000207          BALLOTS CAST - TOTAL                                    BALLOTS CAST - TOTAL                  VOTING PRECINCT 1                                      00 
01020010002000217          BALLOTS CAST - TOTAL                                    BALLOTS CAST - TOTAL                  VOTING PRECINCT 2                                      00 
01020010003000306          BALLOTS CAST - TOTAL                                    BALLOTS CAST - TOTAL                  VOTING PRECINCT 3                                      00 
01020010004000242          BALLOTS CAST - TOTAL                                    BALLOTS CAST - TOTAL                  VOTING PRECINCT 4                                      00 
01020010005000042          BALLOTS CAST - TOTAL                                    BALLOTS CAST - TOTAL                  VOTING PRECINCT 5                                      00 
01020010006000098          BALLOTS CAST - TOTAL                                    BALLOTS CAST - TOTAL                  VOTING PRECINCT 6                                      00 
01020010007000232          BALLOTS CAST - TOTAL                                    BALLOTS CAST - TOTAL                  VOTING PRECINCT 7                                      00 
01020010008000089          BALLOTS CAST - TOTAL                                    BALLOTS CAST - TOTAL                  VOTING PRECINCT 8                                      00 
01020010009000075          BALLOTS CAST - TOTAL                                    BALLOTS CAST - TOTAL                  VOTING PRECINCT 9                                      00 
01020010010000295          BALLOTS CAST - TOTAL                                    BALLOTS CAST - TOTAL                  VOTING PRECINCT 10                                     00 
01020010011000027          BALLOTS CAST - TOTAL                                    BALLOTS CAST - TOTAL                  VOTING PRECINCT 11                                     00 
01020010012000457          BALLOTS CAST - TOTAL                                    BALLOTS CAST - TOTAL                  VOTING PRECINCT 18                                     00 
01020010013000099          BALLOTS CAST - TOTAL                                    BALLOTS CAST - TOTAL                  VOTING PRECINCT 13                                     00 
01020010014000272          BALLOTS CAST - TOTAL                                    BALLOTS CAST - TOTAL                  VOTING PRECINCT 14                                     00 
01020010015000124          BALLOTS CAST - TOTAL                                    BALLOTS CAST - TOTAL                  VOTING PRECINCT 15                                     00 
01020010016000110          BALLOTS CAST - TOTAL                                    BALLOTS CAST - TOTAL                  VOTING PRECINCT 16                                     00 
01020010017000135          BALLOTS CAST - TOTAL                                    BALLOTS CAST - TOTAL                  VOTING PRECINCT 17                                     00 
01030010001000183REP       BALLOTS CAST - REPUBLICAN PARTY                         BALLOTS CAST - REPUBLICAN PARTY       VOTING PRECINCT 1                                      00 
01030010002000187REP       BALLOTS CAST - REPUBLICAN PARTY                         BALLOTS CAST - REPUBLICAN PARTY       VOTING PRECINCT 2                                      00 
01030010003000262REP       BALLOTS CAST - REPUBLICAN PARTY                         BALLOTS CAST - REPUBLICAN PARTY       VOTING PRECINCT 3                                      00 
01030010004000228REP       BALLOTS CAST - REPUBLICAN PARTY                         BALLOTS CAST - REPUBLICAN PARTY       VOTING PRECINCT 4                                      00 
01030010005000030REP       BALLOTS CAST - REPUBLICAN PARTY                         BALLOTS CAST - REPUBLICAN PARTY       VOTING PRECINCT 5                                      00 
01030010006000083REP       BALLOTS CAST - REPUBLICAN PARTY                         BALLOTS CAST - REPUBLICAN PARTY       VOTING PRECINCT 6                                      00 
01030010007000222REP       BALLOTS CAST - REPUBLICAN PARTY                         BALLOTS CAST - REPUBLICAN PARTY       VOTING PRECINCT 7                                      00 
01030010008000086REP       BALLOTS CAST - REPUBLICAN PARTY                         BALLOTS CAST - REPUBLICAN PARTY       VOTING PRECINCT 8                                      00 
01030010009000060REP       BALLOTS CAST - REPUBLICAN PARTY                         BALLOTS CAST - REPUBLICAN PARTY       VOTING PRECINCT 9                                      00 
01030010010000252REP       BALLOTS CAST - REPUBLICAN PARTY                         BALLOTS CAST - REPUBLICAN PARTY       VOTING PRECINCT 10                                     00 
01030010011000021REP       BALLOTS CAST - REPUBLICAN PARTY                         BALLOTS CAST - REPUBLICAN PARTY       VOTING PRECINCT 11                                     00 
01030010012000423REP       BALLOTS CAST - REPUBLICAN PARTY                         BALLOTS CAST - REPUBLICAN PARTY       VOTING PRECINCT 18                                     00 
01030010013000073REP       BALLOTS CAST - REPUBLICAN PARTY                         BALLOTS CAST - REPUBLICAN PARTY       VOTING PRECINCT 13                                     00 
01030010014000244REP       BALLOTS CAST - REPUBLICAN PARTY                         BALLOTS CAST - REPUBLICAN PARTY       VOTING PRECINCT 14                                     00 
01030010015000091REP       BALLOTS CAST - REPUBLICAN PARTY                         BALLOTS CAST - REPUBLICAN PARTY       VOTING PRECINCT 15                                     00 
01030010016000103REP       BALLOTS CAST - REPUBLICAN PARTY                         BALLOTS CAST - REPUBLICAN PARTY       VOTING PRECINCT 16                                     00 
01030010017000111REP       BALLOTS CAST - REPUBLICAN PARTY                         BALLOTS CAST - REPUBLICAN PARTY       VOTING PRECINCT 17                                     00 
01040010001000024DEM       BALLOTS CAST - DEMOCRATIC PARTY                         BALLOTS CAST - DEMOCRATIC PARTY       VOTING PRECINCT 1                                      00 
01040010002000030DEM       BALLOTS CAST - DEMOCRATIC PARTY                         BALLOTS CAST - DEMOCRATIC PARTY       VOTING PRECINCT 2                                      00 
01040010003000044DEM       BALLOTS CAST - DEMOCRATIC PARTY                         BALLOTS CAST - DEMOCRATIC PARTY       VOTING PRECINCT 3                                      00 
01040010004000014DEM       BALLOTS CAST - DEMOCRATIC PARTY                         BALLOTS CAST - DEMOCRATIC PARTY       VOTING PRECINCT 4                                      00 
01040010005000012DEM       BALLOTS CAST - DEMOCRATIC PARTY                         BALLOTS CAST - DEMOCRATIC PARTY       VOTING PRECINCT 5                                      00 
01040010006000015DEM       BALLOTS CAST - DEMOCRATIC PARTY                         BALLOTS CAST - DEMOCRATIC PARTY       VOTING PRECINCT 6                                      00 
01040010007000010DEM       BALLOTS CAST - DEMOCRATIC PARTY                         BALLOTS CAST - DEMOCRATIC PARTY       VOTING PRECINCT 7                                      00 
01040010008000003DEM       BALLOTS CAST - DEMOCRATIC PARTY                         BALLOTS CAST - DEMOCRATIC PARTY       VOTING PRECINCT 8                                      00 
01040010009000015DEM       BALLOTS CAST - DEMOCRATIC PARTY                         BALLOTS CAST - DEMOCRATIC PARTY       VOTING PRECINCT 9                                      00 
01040010010000043DEM       BALLOTS CAST - DEMOCRATIC PARTY                         BALLOTS CAST - DEMOCRATIC PARTY       VOTING PRECINCT 10                                     00 
01040010011000006DEM       BALLOTS CAST - DEMOCRATIC PARTY                         BALLOTS CAST - DEMOCRATIC PARTY       VOTING PRECINCT 11                                     00 
01040010012000034DEM       BALLOTS CAST - DEMOCRATIC PARTY                         BALLOTS CAST - DEMOCRATIC PARTY       VOTING PRECINCT 18                                     00 
01040010013000026DEM       BALLOTS CAST - DEMOCRATIC PARTY                         BALLOTS CAST - DEMOCRATIC PARTY       VOTING PRECINCT 13                                     00 
01040010014000028DEM       BALLOTS CAST - DEMOCRATIC PARTY                         BALLOTS CAST - DEMOCRATIC PARTY       VOTING PRECINCT 14                                     00 
01040010015000033DEM       BALLOTS CAST - DEMOCRATIC PARTY                         BALLOTS CAST - DEMOCRATIC PARTY       VOTING PRECINCT 15                                     00 
01040010016000007DEM       BALLOTS CAST - DEMOCRATIC PARTY                         BALLOTS CAST - DEMOCRATIC PARTY       VOTING PRECINCT 16                                     00 
01040010017000024DEM       BALLOTS CAST - DEMOCRATIC PARTY                         BALLOTS CAST - DEMOCRATIC PARTY       VOTING PRECINCT 17                                     00 
01050010001000059REP       United States Senator                                   Steve Stockman                        VOTING PRECINCT 1                                      01 
01050010002000060REP       United States Senator                                   Steve Stockman                        VOTING PRECINCT 2                                      01 
01050010003000094REP       United States Senator                                   Steve Stockman                        VOTING PRECINCT 3                                      01 
01050010004000091REP       United States Senator                                   Steve Stockman                        VOTING PRECINCT 4                                      01 
01050010005000014REP       United States Senator                                   Steve Stockman                        VOTING PRECINCT 5                                      01 
01050010006000011REP       United States Senator                                   Steve Stockman                        VOTING PRECINCT 6                                      01 
01050010007000080REP       United States Senator                                   Steve Stockman                        VOTING PRECINCT 7                                      01 
01050010008000027REP       United States Senator                                   Steve Stockman                        VOTING PRECINCT 8                                      01 
01050010009000026REP       United States Senator                                   Steve Stockman                        VOTING PRECINCT 9                                      01 
01050010010000103REP       United States Senator                                   Steve Stockman                        VOTING PRECINCT 10                                     01 
01050010011000010REP       United States Senator                                   Steve Stockman                        VOTING PRECINCT 11                                     01 
01050010012000150REP       United States Senator                                   Steve Stockman                        VOTING PRECINCT 18                                     01 
01050010013000034REP       United States Senator                                   Steve Stockman                        VOTING PRECINCT 13                                     01 
01050010014000091REP       United States Senator                                   Steve Stockman                        VOTING PRECINCT 14                                     01 
01050010015000038REP       United States Senator                                   Steve Stockman                        VOTING PRECINCT 15                                     01 
01050010016000040REP       United States Senator                                   Steve Stockman                        VOTING PRECINCT 16                                     01 
01050010017000033REP       United States Senator                                   Steve Stockman                        VOTING PRECINCT 17                                     01 
01050020001000000REP       United States Senator                                   Curt Cleaver                          VOTING PRECINCT 1                                      01 
01050020002000000REP       United States Senator                                   Curt Cleaver                          VOTING PRECINCT 2                                      01 
01050020003000002REP       United States Senator                                   Curt Cleaver                          VOTING PRECINCT 3                                      01 
01050020004000002REP       United States Senator                                   Curt Cleaver                          VOTING PRECINCT 4                                      01 
01050020005000000REP       United States Senator                                   Curt Cleaver                          VOTING PRECINCT 5                                      01 
01050020006000000REP       United States Senator                                   Curt Cleaver                          VOTING PRECINCT 6                                      01 
01050020007000002REP       United States Senator                                   Curt Cleaver                          VOTING PRECINCT 7                                      01 
01050020008000002REP       United States Senator                                   Curt Cleaver                          VOTING PRECINCT 8                                      01 
01050020009000000REP       United States Senator                                   Curt Cleaver                          VOTING PRECINCT 9                                      01 
01050020010000002REP       United States Senator                                   Curt Cleaver                          VOTING PRECINCT 10                                     01 
01050020011000000REP       United States Senator                                   Curt Cleaver                          VOTING PRECINCT 11                                     01 
01050020012000003REP       United States Senator                                   Curt Cleaver                          VOTING PRECINCT 18                                     01 
01050020013000003REP       United States Senator                                   Curt Cleaver                          VOTING PRECINCT 13                                     01 
01050020014000004REP       United States Senator                                   Curt Cleaver                          VOTING PRECINCT 14                                     01 
01050020015000000REP       United States Senator                                   Curt Cleaver                          VOTING PRECINCT 15                                     01 
01050020016000001REP       United States Senator                                   Curt Cleaver                          VOTING PRECINCT 16                                     01 
01050020017000000REP       United States Senator                                   Curt Cleaver                          VOTING PRECINCT 17                                     01 
01050030001000005REP       United States Senator                                   Reid Reasor                           VOTING PRECINCT 1                                      01 
01050030002000002REP       United States Senator                                   Reid Reasor                           VOTING PRECINCT 2                                      01 
01050030003000005REP       United States Senator                                   Reid Reasor                           VOTING PRECINCT 3                                      01 
01050030004000000REP       United States Senator                                   Reid Reasor                           VOTING PRECINCT 4                                      01 
01050030005000000REP       United States Senator                                   Reid Reasor                           VOTING PRECINCT 5                                      01 
01050030006000000REP       United States Senator                                   Reid Reasor                           VOTING PRECINCT 6                                      01 
01050030007000001REP       United States Senator                                   Reid Reasor                           VOTING PRECINCT 7                                      01 
01050030008000001REP       United States Senator                                   Reid Reasor                           VOTING PRECINCT 8                                      01 
01050030009000000REP       United States Senator                                   Reid Reasor                           VOTING PRECINCT 9                                      01 
01050030010000000REP       United States Senator                                   Reid Reasor                           VOTING PRECINCT 10                                     01 
01050030011000000REP       United States Senator                                   Reid Reasor                           VOTING PRECINCT 11                                     01 
01050030012000004REP       United States Senator                                   Reid Reasor                           VOTING PRECINCT 18                                     01 
01050030013000000REP       United States Senator                                   Reid Reasor                           VOTING PRECINCT 13                                     01 
01050030014000001REP       United States Senator                                   Reid Reasor                           VOTING PRECINCT 14                                     01 
01050030015000001REP       United States Senator                                   Reid Reasor                           VOTING PRECINCT 15                                     01 
01050030016000000REP       United States Senator                                   Reid Reasor                           VOTING PRECINCT 16                                     01 
01050030017000001REP       United States Senator                                   Reid Reasor                           VOTING PRECINCT 17                                     01 
01050040001000083REP       United States Senator                                   John Cornyn                           VOTING PRECINCT 1                                      01 
01050040002000089REP       United States Senator                                   John Cornyn                           VOTING PRECINCT 2                                      01 
01050040003000101REP       United States Senator                                   John Cornyn                           VOTING PRECINCT 3                                      01 
01050040004000085REP       United States Senator                                   John Cornyn                           VOTING PRECINCT 4                                      01 
01050040005000009REP       United States Senator                                   John Cornyn                           VOTING PRECINCT 5                                      01 
01050040006000058REP       United States Senator                                   John Cornyn                           VOTING PRECINCT 6                                      01 
01050040007000080REP       United States Senator                                   John Cornyn                           VOTING PRECINCT 7                                      01 
01050040008000041REP       United States Senator                                   John Cornyn                           VOTING PRECINCT 8                                      01 
01050040009000028REP       United States Senator                                   John Cornyn                           VOTING PRECINCT 9                                      01 
01050040010000103REP       United States Senator                                   John Cornyn                           VOTING PRECINCT 10                                     01 
01050040011000009REP       United States Senator                                   John Cornyn                           VOTING PRECINCT 11                                     01 
01050040012000180REP       United States Senator                                   John Cornyn                           VOTING PRECINCT 18                                     01 
01050040013000024REP       United States Senator                                   John Cornyn                           VOTING PRECINCT 13                                     01 
01050040014000106REP       United States Senator                                   John Cornyn                           VOTING PRECINCT 14                                     01 
01050040015000032REP       United States Senator                                   John Cornyn                           VOTING PRECINCT 15                                     01 
01050040016000039REP       United States Senator                                   John Cornyn                           VOTING PRECINCT 16                                     01 
01050040017000054REP       United States Senator                                   John Cornyn                           VOTING PRECINCT 17                                     01 
01050050001000007REP       United States Senator                                   Linda Vega                            VOTING PRECINCT 1                                      01 
01050050002000007REP       United States Senator                                   Linda Vega                            VOTING PRECINCT 2                                      01 
01050050003000014REP       United States Senator                                   Linda Vega                            VOTING PRECINCT 3                                      01 
01050050004000002REP       United States Senator                                   Linda Vega                            VOTING PRECINCT 4                                      01 
01050050005000001REP       United States Senator                                   Linda Vega                            VOTING PRECINCT 5                                      01 
01050050006000000REP       United States Senator                                   Linda Vega                            VOTING PRECINCT 6                                      01 
01050050007000006REP       United States Senator                                   Linda Vega                            VOTING PRECINCT 7                                      01 
01050050008000001REP       United States Senator                                   Linda Vega                            VOTING PRECINCT 8                                      01 
01050050009000001REP       United States Senator                                   Linda Vega                            VOTING PRECINCT 9                                      01 
01050050010000003REP       United States Senator                                   Linda Vega                            VOTING PRECINCT 10                                     01 
01050050011000000REP       United States Senator                                   Linda Vega                            VOTING PRECINCT 11                                     01 
01050050012000008REP       United States Senator                                   Linda Vega                            VOTING PRECINCT 18                                     01 
01050050013000001REP       United States Senator                                   Linda Vega                            VOTING PRECINCT 13                                     01 
01050050014000006REP       United States Senator                                   Linda Vega                            VOTING PRECINCT 14                                     01 
01050050015000006REP       United States Senator                                   Linda Vega                            VOTING PRECINCT 15                                     01 
01050050016000003REP       United States Senator                                   Linda Vega                            VOTING PRECINCT 16                                     01 
01050050017000003REP       United States Senator                                   Linda Vega                            VOTING PRECINCT 17                                     01 
01050060001000003REP       United States Senator                                   Ken Cope                              VOTING PRECINCT 1                                      01 
01050060002000002REP       United States Senator                                   Ken Cope                              VOTING PRECINCT 2                                      01 
01050060003000005REP       United States Senator                                   Ken Cope                              VOTING PRECINCT 3                                      01 
01050060004000002REP       United States Senator                                   Ken Cope                              VOTING PRECINCT 4                                      01 
01050060005000000REP       United States Senator                                   Ken Cope                              VOTING PRECINCT 5                                      01 
01050060006000000REP       United States Senator                                   Ken Cope                              VOTING PRECINCT 6                                      01 
01050060007000002REP       United States Senator                                   Ken Cope                              VOTING PRECINCT 7                                      01 
01050060008000002REP       United States Senator                                   Ken Cope                              VOTING PRECINCT 8                                      01 
01050060009000001REP       United States Senator                                   Ken Cope                              VOTING PRECINCT 9                                      01 
01050060010000001REP       United States Senator                                   Ken Cope                              VOTING PRECINCT 10                                     01 
01050060011000000REP       United States Senator                                   Ken Cope                              VOTING PRECINCT 11                                     01 
01050060012000004REP       United States Senator                                   Ken Cope                              VOTING PRECINCT 18                                     01 
01050060013000001REP       United States Senator                                   Ken Cope                              VOTING PRECINCT 13                                     01 
01050060014000005REP       United States Senator                                   Ken Cope                              VOTING PRECINCT 14                                     01 
01050060015000006REP       United States Senator                                   Ken Cope                              VOTING PRECINCT 15                                     01 
01050060016000004REP       United States Senator                                   Ken Cope                              VOTING PRECINCT 16                                     01 
01050060017000002REP       United States Senator                                   Ken Cope                              VOTING PRECINCT 17                                     01 
01050070001000011REP       United States Senator                                   Dwayne Stovall                        VOTING PRECINCT 1                                      01 
01050070002000008REP       United States Senator                                   Dwayne Stovall                        VOTING PRECINCT 2                                      01 
01050070003000014REP       United States Senator                                   Dwayne Stovall                        VOTING PRECINCT 3                                      01 
01050070004000028REP       United States Senator                                   Dwayne Stovall                        VOTING PRECINCT 4                                      01 
01050070005000002REP       United States Senator                                   Dwayne Stovall                        VOTING PRECINCT 5                                      01 
01050070006000007REP       United States Senator                                   Dwayne Stovall                        VOTING PRECINCT 6                                      01 
01050070007000008REP       United States Senator                                   Dwayne Stovall                        VOTING PRECINCT 7                                      01 
01050070008000002REP       United States Senator                                   Dwayne Stovall                        VOTING PRECINCT 8                                      01 
01050070009000002REP       United States Senator                                   Dwayne Stovall                        VOTING PRECINCT 9                                      01 
01050070010000019REP       United States Senator                                   Dwayne Stovall                        VOTING PRECINCT 10                                     01 
01050070011000000REP       United States Senator                                   Dwayne Stovall                        VOTING PRECINCT 11                                     01 
01050070012000025REP       United States Senator                                   Dwayne Stovall                        VOTING PRECINCT 18                                     01 
01050070013000006REP       United States Senator                                   Dwayne Stovall                        VOTING PRECINCT 13                                     01 
01050070014000012REP       United States Senator                                   Dwayne Stovall                        VOTING PRECINCT 14                                     01 
01050070015000004REP       United States Senator                                   Dwayne Stovall                        VOTING PRECINCT 15                                     01 
01050070016000009REP       United States Senator                                   Dwayne Stovall                        VOTING PRECINCT 16                                     01 
01050070017000006REP       United States Senator                                   Dwayne Stovall                        VOTING PRECINCT 17                                     01 
01050080001000002REP       United States Senator                                   Chris Mapp                            VOTING PRECINCT 1                                      01 
01050080002000001REP       United States Senator                                   Chris Mapp                            VOTING PRECINCT 2                                      01 
01050080003000005REP       United States Senator                                   Chris Mapp                            VOTING PRECINCT 3                                      01 
01050080004000006REP       United States Senator                                   Chris Mapp                            VOTING PRECINCT 4                                      01 
01050080005000001REP       United States Senator                                   Chris Mapp                            VOTING PRECINCT 5                                      01 
01050080006000003REP       United States Senator                                   Chris Mapp                            VOTING PRECINCT 6                                      01 
01050080007000003REP       United States Senator                                   Chris Mapp                            VOTING PRECINCT 7                                      01 
01050080008000002REP       United States Senator                                   Chris Mapp                            VOTING PRECINCT 8                                      01 
01050080009000000REP       United States Senator                                   Chris Mapp                            VOTING PRECINCT 9                                      01 
01050080010000004REP       United States Senator                                   Chris Mapp                            VOTING PRECINCT 10                                     01 
01050080011000000REP       United States Senator                                   Chris Mapp                            VOTING PRECINCT 11                                     01 
01050080012000002REP       United States Senator                                   Chris Mapp                            VOTING PRECINCT 18                                     01 
01050080013000002REP       United States Senator                                   Chris Mapp                            VOTING PRECINCT 13                                     01 
01050080014000005REP       United States Senator                                   Chris Mapp                            VOTING PRECINCT 14                                     01 
01050080015000001REP       United States Senator                                   Chris Mapp                            VOTING PRECINCT 15                                     01 
01050080016000001REP       United States Senator                                   Chris Mapp                            VOTING PRECINCT 16                                     01 
01050080017000002REP       United States Senator                                   Chris Mapp                            VOTING PRECINCT 17                                     01 
01050090001000000REP       United States Senator                                   OVER VOTES                            VOTING PRECINCT 1                                      01 
01050090002000000REP       United States Senator                                   OVER VOTES                            VOTING PRECINCT 2                                      01 
01050090003000000REP       United States Senator                                   OVER VOTES                            VOTING PRECINCT 3                                      01 
01050090004000000REP       United States Senator                                   OVER VOTES                            VOTING PRECINCT 4                                      01 
01050090005000000REP       United States Senator                                   OVER VOTES                            VOTING PRECINCT 5                                      01 
01050090006000000REP       United States Senator                                   OVER VOTES                            VOTING PRECINCT 6                                      01 
01050090007000001REP       United States Senator                                   OVER VOTES                            VOTING PRECINCT 7                                      01 
01050090008000000REP       United States Senator                                   OVER VOTES                            VOTING PRECINCT 8                                      01 
01050090009000000REP       United States Senator                                   OVER VOTES                            VOTING PRECINCT 9                                      01 
01050090010000000REP       United States Senator                                   OVER VOTES                            VOTING PRECINCT 10                                     01 
01050090011000000REP       United States Senator                                   OVER VOTES                            VOTING PRECINCT 11                                     01 
01050090012000000REP       United States Senator                                   OVER VOTES                            VOTING PRECINCT 18                                     01 
01050090013000000REP       United States Senator                                   OVER VOTES                            VOTING PRECINCT 13                                     01 
01050090014000000REP       United States Senator                                   OVER VOTES                            VOTING PRECINCT 14                                     01 
01050090015000000REP       United States Senator                                   OVER VOTES                            VOTING PRECINCT 15                                     01 
01050090016000000REP       United States Senator                                   OVER VOTES                            VOTING PRECINCT 16                                     01 
01050090017000000REP       United States Senator                                   OVER VOTES                            VOTING PRECINCT 17                                     01 
01050100001000013REP       United States Senator                                   UNDER VOTES                           VOTING PRECINCT 1                                      01 
01050100002000018REP       United States Senator                                   UNDER VOTES                           VOTING PRECINCT 2                                      01 
01050100003000022REP       United States Senator                                   UNDER VOTES                           VOTING PRECINCT 3                                      01 
01050100004000012REP       United States Senator                                   UNDER VOTES                           VOTING PRECINCT 4                                      01 
01050100005000003REP       United States Senator                                   UNDER VOTES                           VOTING PRECINCT 5                                      01 
01050100006000004REP       United States Senator                                   UNDER VOTES                           VOTING PRECINCT 6                                      01 
01050100007000039REP       United States Senator                                   UNDER VOTES                           VOTING PRECINCT 7                                      01 
01050100008000008REP       United States Senator                                   UNDER VOTES                           VOTING PRECINCT 8                                      01 
01050100009000002REP       United States Senator                                   UNDER VOTES                           VOTING PRECINCT 9                                      01 
01050100010000016REP       United States Senator                                   UNDER VOTES                           VOTING PRECINCT 10                                     01 
01050100011000002REP       United States Senator                                   UNDER VOTES                           VOTING PRECINCT 11                                     01 
01050100012000046REP       United States Senator                                   UNDER VOTES                           VOTING PRECINCT 18                                     01 
01050100013000002REP       United States Senator                                   UNDER VOTES                           VOTING PRECINCT 13                                     01 
01050100014000014REP       United States Senator                                   UNDER VOTES                           VOTING PRECINCT 14                                     01 
01050100015000003REP       United States Senator                                   UNDER VOTES                           VOTING PRECINCT 15                                     01 
01050100016000006REP       United States Senator                                   UNDER VOTES                           VOTING PRECINCT 16                                     01 
01050100017000010REP       United States Senator                                   UNDER VOTES                           VOTING PRECINCT 17                                     01 
01060010001000001REP       United States Representative, Dist 36                   Dave Norman                           VOTING PRECINCT 1                                      01 
01060010002000003REP       United States Representative, Dist 36                   Dave Norman                           VOTING PRECINCT 2                                      01 
01060010003000003REP       United States Representative, Dist 36                   Dave Norman                           VOTING PRECINCT 3                                      01 
01060010004000003REP       United States Representative, Dist 36                   Dave Norman                           VOTING PRECINCT 4                                      01 
01060010005000001REP       United States Representative, Dist 36                   Dave Norman                           VOTING PRECINCT 5                                      01 
01060010006000000REP       United States Representative, Dist 36                   Dave Norman                           VOTING PRECINCT 6                                      01 
01060010007000003REP       United States Representative, Dist 36                   Dave Norman                           VOTING PRECINCT 7                                      01 
01060010008000002REP       United States Representative, Dist 36                   Dave Norman                           VOTING PRECINCT 8                                      01 
01060010009000000REP       United States Representative, Dist 36                   Dave Norman                           VOTING PRECINCT 9                                      01 
01060010010000002REP       United States Representative, Dist 36                   Dave Norman                           VOTING PRECINCT 10                                     01 
01060010011000000REP       United States Representative, Dist 36                   Dave Norman                           VOTING PRECINCT 11                                     01 
01060010012000005REP       United States Representative, Dist 36                   Dave Norman                           VOTING PRECINCT 18                                     01 
01060010013000001REP       United States Representative, Dist 36                   Dave Norman                           VOTING PRECINCT 13                                     01 
01060010014000006REP       United States Representative, Dist 36                   Dave Norman                           VOTING PRECINCT 14                                     01 
01060010015000002REP       United States Representative, Dist 36                   Dave Norman                           VOTING PRECINCT 15                                     01 
01060010016000001REP       United States Representative, Dist 36                   Dave Norman                           VOTING PRECINCT 16                                     01 
01060010017000002REP       United States Representative, Dist 36                   Dave Norman                           VOTING PRECINCT 17                                     01 
01060020001000001REP       United States Representative, Dist 36                   Pat Kasprzak                          VOTING PRECINCT 1                                      01 
01060020002000000REP       United States Representative, Dist 36                   Pat Kasprzak                          VOTING PRECINCT 2                                      01 
01060020003000002REP       United States Representative, Dist 36                   Pat Kasprzak                          VOTING PRECINCT 3                                      01 
01060020004000003REP       United States Representative, Dist 36                   Pat Kasprzak                          VOTING PRECINCT 4                                      01 
01060020005000001REP       United States Representative, Dist 36                   Pat Kasprzak                          VOTING PRECINCT 5                                      01 
01060020006000000REP       United States Representative, Dist 36                   Pat Kasprzak                          VOTING PRECINCT 6                                      01 
01060020007000000REP       United States Representative, Dist 36                   Pat Kasprzak                          VOTING PRECINCT 7                                      01 
01060020008000000REP       United States Representative, Dist 36                   Pat Kasprzak                          VOTING PRECINCT 8                                      01 
01060020009000000REP       United States Representative, Dist 36                   Pat Kasprzak                          VOTING PRECINCT 9                                      01 
01060020010000001REP       United States Representative, Dist 36                   Pat Kasprzak                          VOTING PRECINCT 10                                     01 
01060020011000000REP       United States Representative, Dist 36                   Pat Kasprzak                          VOTING PRECINCT 11                                     01 
01060020012000001REP       United States Representative, Dist 36                   Pat Kasprzak                          VOTING PRECINCT 18                                     01 
01060020013000000REP       United States Representative, Dist 36                   Pat Kasprzak                          VOTING PRECINCT 13                                     01 
01060020014000000REP       United States Representative, Dist 36                   Pat Kasprzak                          VOTING PRECINCT 14                                     01 
01060020015000002REP       United States Representative, Dist 36                   Pat Kasprzak                          VOTING PRECINCT 15                                     01 
01060020016000000REP       United States Representative, Dist 36                   Pat Kasprzak                          VOTING PRECINCT 16                                     01 
01060020017000000REP       United States Representative, Dist 36                   Pat Kasprzak                          VOTING PRECINCT 17                                     01 
01060030001000001REP       United States Representative, Dist 36                   Chuck Meyer                           VOTING PRECINCT 1                                      01 
01060030002000007REP       United States Representative, Dist 36                   Chuck Meyer                           VOTING PRECINCT 2                                      01 
01060030003000001REP       United States Representative, Dist 36                   Chuck Meyer                           VOTING PRECINCT 3                                      01 
01060030004000000REP       United States Representative, Dist 36                   Chuck Meyer                           VOTING PRECINCT 4                                      01 
01060030005000001REP       United States Representative, Dist 36                   Chuck Meyer                           VOTING PRECINCT 5                                      01 
01060030006000002REP       United States Representative, Dist 36                   Chuck Meyer                           VOTING PRECINCT 6                                      01 
01060030007000004REP       United States Representative, Dist 36                   Chuck Meyer                           VOTING PRECINCT 7                                      01 
01060030008000000REP       United States Representative, Dist 36                   Chuck Meyer                           VOTING PRECINCT 8                                      01 
01060030009000000REP       United States Representative, Dist 36                   Chuck Meyer                           VOTING PRECINCT 9                                      01 
01060030010000002REP       United States Representative, Dist 36                   Chuck Meyer                           VOTING PRECINCT 10                                     01 
01060030011000000REP       United States Representative, Dist 36                   Chuck Meyer                           VOTING PRECINCT 11                                     01 
01060030012000006REP       United States Representative, Dist 36                   Chuck Meyer                           VOTING PRECINCT 18                                     01 
01060030013000001REP       United States Representative, Dist 36                   Chuck Meyer                           VOTING PRECINCT 13                                     01 
01060030014000004REP       United States Representative, Dist 36                   Chuck Meyer                           VOTING PRECINCT 14                                     01 
01060030015000001REP       United States Representative, Dist 36                   Chuck Meyer                           VOTING PRECINCT 15                                     01 
01060030016000001REP       United States Representative, Dist 36                   Chuck Meyer                           VOTING PRECINCT 16                                     01 
01060030017000000REP       United States Representative, Dist 36                   Chuck Meyer                           VOTING PRECINCT 17                                     01 
01060040001000018REP       United States Representative, Dist 36                   Ben Streusand                         VOTING PRECINCT 1                                      01 
01060040002000016REP       United States Representative, Dist 36                   Ben Streusand                         VOTING PRECINCT 2                                      01 
01060040003000025REP       United States Representative, Dist 36                   Ben Streusand                         VOTING PRECINCT 3                                      01 
01060040004000026REP       United States Representative, Dist 36                   Ben Streusand                         VOTING PRECINCT 4                                      01 
01060040005000000REP       United States Representative, Dist 36                   Ben Streusand                         VOTING PRECINCT 5                                      01 
01060040006000012REP       United States Representative, Dist 36                   Ben Streusand                         VOTING PRECINCT 6                                      01 
01060040007000023REP       United States Representative, Dist 36                   Ben Streusand                         VOTING PRECINCT 7                                      01 
01060040008000009REP       United States Representative, Dist 36                   Ben Streusand                         VOTING PRECINCT 8                                      01 
01060040009000019REP       United States Representative, Dist 36                   Ben Streusand                         VOTING PRECINCT 9                                      01 
01060040010000032REP       United States Representative, Dist 36                   Ben Streusand                         VOTING PRECINCT 10                                     01 
01060040011000004REP       United States Representative, Dist 36                   Ben Streusand                         VOTING PRECINCT 11                                     01 
01060040012000031REP       United States Representative, Dist 36                   Ben Streusand                         VOTING PRECINCT 18                                     01 
01060040013000018REP       United States Representative, Dist 36                   Ben Streusand                         VOTING PRECINCT 13                                     01 
01060040014000035REP       United States Representative, Dist 36                   Ben Streusand                         VOTING PRECINCT 14                                     01 
01060040015000015REP       United States Representative, Dist 36                   Ben Streusand                         VOTING PRECINCT 15                                     01 
01060040016000012REP       United States Representative, Dist 36                   Ben Streusand                         VOTING PRECINCT 16                                     01 
01060040017000011REP       United States Representative, Dist 36                   Ben Streusand                         VOTING PRECINCT 17                                     01 
01060050001000002REP       United States Representative, Dist 36                   John Manlove                          VOTING PRECINCT 1                                      01 
01060050002000002REP       United States Representative, Dist 36                   John Manlove                          VOTING PRECINCT 2                                      01 
01060050003000002REP       United States Representative, Dist 36                   John Manlove                          VOTING PRECINCT 3                                      01 
01060050004000003REP       United States Representative, Dist 36                   John Manlove                          VOTING PRECINCT 4                                      01 
01060050005000000REP       United States Representative, Dist 36                   John Manlove                          VOTING PRECINCT 5                                      01 
01060050006000000REP       United States Representative, Dist 36                   John Manlove                          VOTING PRECINCT 6                                      01 
01060050007000000REP       United States Representative, Dist 36                   John Manlove                          VOTING PRECINCT 7                                      01 
01060050008000000REP       United States Representative, Dist 36                   John Manlove                          VOTING PRECINCT 8                                      01 
01060050009000000REP       United States Representative, Dist 36                   John Manlove                          VOTING PRECINCT 9                                      01 
01060050010000004REP       United States Representative, Dist 36                   John Manlove                          VOTING PRECINCT 10                                     01 
01060050011000001REP       United States Representative, Dist 36                   John Manlove                          VOTING PRECINCT 11                                     01 
01060050012000007REP       United States Representative, Dist 36                   John Manlove                          VOTING PRECINCT 18                                     01 
01060050013000002REP       United States Representative, Dist 36                   John Manlove                          VOTING PRECINCT 13                                     01 
01060050014000000REP       United States Representative, Dist 36                   John Manlove                          VOTING PRECINCT 14                                     01 
01060050015000003REP       United States Representative, Dist 36                   John Manlove                          VOTING PRECINCT 15                                     01 
01060050016000001REP       United States Representative, Dist 36                   John Manlove                          VOTING PRECINCT 16                                     01 
01060050017000000REP       United States Representative, Dist 36                   John Manlove                          VOTING PRECINCT 17                                     01 
01060060001000002REP       United States Representative, Dist 36                   Kim I. Morrell                        VOTING PRECINCT 1                                      01 
01060060002000002REP       United States Representative, Dist 36                   Kim I. Morrell                        VOTING PRECINCT 2                                      01 
01060060003000004REP       United States Representative, Dist 36                   Kim I. Morrell                        VOTING PRECINCT 3                                      01 
01060060004000000REP       United States Representative, Dist 36                   Kim I. Morrell                        VOTING PRECINCT 4                                      01 
01060060005000001REP       United States Representative, Dist 36                   Kim I. Morrell                        VOTING PRECINCT 5                                      01 
01060060006000001REP       United States Representative, Dist 36                   Kim I. Morrell                        VOTING PRECINCT 6                                      01 
01060060007000002REP       United States Representative, Dist 36                   Kim I. Morrell                        VOTING PRECINCT 7                                      01 
01060060008000000REP       United States Representative, Dist 36                   Kim I. Morrell                        VOTING PRECINCT 8                                      01 
01060060009000001REP       United States Representative, Dist 36                   Kim I. Morrell                        VOTING PRECINCT 9                                      01 
01060060010000001REP       United States Representative, Dist 36                   Kim I. Morrell                        VOTING PRECINCT 10                                     01 
01060060011000001REP       United States Representative, Dist 36                   Kim I. Morrell                        VOTING PRECINCT 11                                     01 
01060060012000002REP       United States Representative, Dist 36                   Kim I. Morrell                        VOTING PRECINCT 18                                     01 
01060060013000002REP       United States Representative, Dist 36                   Kim I. Morrell                        VOTING PRECINCT 13                                     01 
01060060014000006REP       United States Representative, Dist 36                   Kim I. Morrell                        VOTING PRECINCT 14                                     01 
01060060015000000REP       United States Representative, Dist 36                   Kim I. Morrell                        VOTING PRECINCT 15                                     01 
01060060016000001REP       United States Representative, Dist 36                   Kim I. Morrell                        VOTING PRECINCT 16                                     01 
01060060017000001REP       United States Representative, Dist 36                   Kim I. Morrell                        VOTING PRECINCT 17                                     01 
01060070001000001REP       United States Representative, Dist 36                   Phil Fitzgerald                       VOTING PRECINCT 1                                      01 
01060070002000003REP       United States Representative, Dist 36                   Phil Fitzgerald                       VOTING PRECINCT 2                                      01 
01060070003000002REP       United States Representative, Dist 36                   Phil Fitzgerald                       VOTING PRECINCT 3                                      01 
01060070004000003REP       United States Representative, Dist 36                   Phil Fitzgerald                       VOTING PRECINCT 4                                      01 
01060070005000002REP       United States Representative, Dist 36                   Phil Fitzgerald                       VOTING PRECINCT 5                                      01 
01060070006000002REP       United States Representative, Dist 36                   Phil Fitzgerald                       VOTING PRECINCT 6                                      01 
01060070007000003REP       United States Representative, Dist 36                   Phil Fitzgerald                       VOTING PRECINCT 7                                      01 
01060070008000000REP       United States Representative, Dist 36                   Phil Fitzgerald                       VOTING PRECINCT 8                                      01 
01060070009000000REP       United States Representative, Dist 36                   Phil Fitzgerald                       VOTING PRECINCT 9                                      01 
01060070010000000REP       United States Representative, Dist 36                   Phil Fitzgerald                       VOTING PRECINCT 10                                     01 
01060070011000000REP       United States Representative, Dist 36                   Phil Fitzgerald                       VOTING PRECINCT 11                                     01 
01060070012000003REP       United States Representative, Dist 36                   Phil Fitzgerald                       VOTING PRECINCT 18                                     01 
01060070013000000REP       United States Representative, Dist 36                   Phil Fitzgerald                       VOTING PRECINCT 13                                     01 
01060070014000001REP       United States Representative, Dist 36                   Phil Fitzgerald                       VOTING PRECINCT 14                                     01 
01060070015000001REP       United States Representative, Dist 36                   Phil Fitzgerald                       VOTING PRECINCT 15                                     01 
01060070016000000REP       United States Representative, Dist 36                   Phil Fitzgerald                       VOTING PRECINCT 16                                     01 
01060070017000001REP       United States Representative, Dist 36                   Phil Fitzgerald                       VOTING PRECINCT 17                                     01 
01060080001000000REP       United States Representative, Dist 36                   John Amdur                            VOTING PRECINCT 1                                      01 
01060080002000001REP       United States Representative, Dist 36                   John Amdur                            VOTING PRECINCT 2                                      01 
01060080003000002REP       United States Representative, Dist 36                   John Amdur                            VOTING PRECINCT 3                                      01 
01060080004000000REP       United States Representative, Dist 36                   John Amdur                            VOTING PRECINCT 4                                      01 
01060080005000000REP       United States Representative, Dist 36                   John Amdur                            VOTING PRECINCT 5                                      01 
01060080006000001REP       United States Representative, Dist 36                   John Amdur                            VOTING PRECINCT 6                                      01 
01060080007000001REP       United States Representative, Dist 36                   John Amdur                            VOTING PRECINCT 7                                      01 
01060080008000001REP       United States Representative, Dist 36                   John Amdur                            VOTING PRECINCT 8                                      01 
01060080009000000REP       United States Representative, Dist 36                   John Amdur                            VOTING PRECINCT 9                                      01 
01060080010000002REP       United States Representative, Dist 36                   John Amdur                            VOTING PRECINCT 10                                     01 
01060080011000000REP       United States Representative, Dist 36                   John Amdur                            VOTING PRECINCT 11                                     01 
01060080012000000REP       United States Representative, Dist 36                   John Amdur                            VOTING PRECINCT 18                                     01 
01060080013000001REP       United States Representative, Dist 36                   John Amdur                            VOTING PRECINCT 13                                     01 
01060080014000005REP       United States Representative, Dist 36                   John Amdur                            VOTING PRECINCT 14                                     01 
01060080015000000REP       United States Representative, Dist 36                   John Amdur                            VOTING PRECINCT 15                                     01 
01060080016000002REP       United States Representative, Dist 36                   John Amdur                            VOTING PRECINCT 16                                     01 
01060080017000000REP       United States Representative, Dist 36                   John Amdur                            VOTING PRECINCT 17                                     01 
01060090001000004REP       United States Representative, Dist 36                   Robin Riley                           VOTING PRECINCT 1                                      01 
01060090002000001REP       United States Representative, Dist 36                   Robin Riley                           VOTING PRECINCT 2                                      01 
01060090003000008REP       United States Representative, Dist 36                   Robin Riley                           VOTING PRECINCT 3                                      01 
01060090004000003REP       United States Representative, Dist 36                   Robin Riley                           VOTING PRECINCT 4                                      01 
01060090005000000REP       United States Representative, Dist 36                   Robin Riley                           VOTING PRECINCT 5                                      01 
01060090006000000REP       United States Representative, Dist 36                   Robin Riley                           VOTING PRECINCT 6                                      01 
01060090007000005REP       United States Representative, Dist 36                   Robin Riley                           VOTING PRECINCT 7                                      01 
01060090008000003REP       United States Representative, Dist 36                   Robin Riley                           VOTING PRECINCT 8                                      01 
01060090009000001REP       United States Representative, Dist 36                   Robin Riley                           VOTING PRECINCT 9                                      01 
01060090010000001REP       United States Representative, Dist 36                   Robin Riley                           VOTING PRECINCT 10                                     01 
01060090011000000REP       United States Representative, Dist 36                   Robin Riley                           VOTING PRECINCT 11                                     01 
01060090012000003REP       United States Representative, Dist 36                   Robin Riley                           VOTING PRECINCT 18                                     01 
01060090013000000REP       United States Representative, Dist 36                   Robin Riley                           VOTING PRECINCT 13                                     01 
01060090014000006REP       United States Representative, Dist 36                   Robin Riley                           VOTING PRECINCT 14                                     01 
01060090015000001REP       United States Representative, Dist 36                   Robin Riley                           VOTING PRECINCT 15                                     01 
01060090016000004REP       United States Representative, Dist 36                   Robin Riley                           VOTING PRECINCT 16                                     01 
01060090017000000REP       United States Representative, Dist 36                   Robin Riley                           VOTING PRECINCT 17                                     01 
01060100001000011REP       United States Representative, Dist 36                   Doug Centilli                         VOTING PRECINCT 1                                      01 
01060100002000005REP       United States Representative, Dist 36                   Doug Centilli                         VOTING PRECINCT 2                                      01 
01060100003000010REP       United States Representative, Dist 36                   Doug Centilli                         VOTING PRECINCT 3                                      01 
01060100004000008REP       United States Representative, Dist 36                   Doug Centilli                         VOTING PRECINCT 4                                      01 
01060100005000001REP       United States Representative, Dist 36                   Doug Centilli                         VOTING PRECINCT 5                                      01 
01060100006000005REP       United States Representative, Dist 36                   Doug Centilli                         VOTING PRECINCT 6                                      01 
01060100007000004REP       United States Representative, Dist 36                   Doug Centilli                         VOTING PRECINCT 7                                      01 
01060100008000003REP       United States Representative, Dist 36                   Doug Centilli                         VOTING PRECINCT 8                                      01 
01060100009000002REP       United States Representative, Dist 36                   Doug Centilli                         VOTING PRECINCT 9                                      01 
01060100010000013REP       United States Representative, Dist 36                   Doug Centilli                         VOTING PRECINCT 10                                     01 
01060100011000000REP       United States Representative, Dist 36                   Doug Centilli                         VOTING PRECINCT 11                                     01 
01060100012000019REP       United States Representative, Dist 36                   Doug Centilli                         VOTING PRECINCT 18                                     01 
01060100013000001REP       United States Representative, Dist 36                   Doug Centilli                         VOTING PRECINCT 13                                     01 
01060100014000010REP       United States Representative, Dist 36                   Doug Centilli                         VOTING PRECINCT 14                                     01 
01060100015000006REP       United States Representative, Dist 36                   Doug Centilli                         VOTING PRECINCT 15                                     01 
01060100016000005REP       United States Representative, Dist 36                   Doug Centilli                         VOTING PRECINCT 16                                     01 
01060100017000006REP       United States Representative, Dist 36                   Doug Centilli                         VOTING PRECINCT 17                                     01 
01060110001000001REP       United States Representative, Dist 36                   Jim Engstrand                         VOTING PRECINCT 1                                      01 
01060110002000000REP       United States Representative, Dist 36                   Jim Engstrand                         VOTING PRECINCT 2                                      01 
01060110003000000REP       United States Representative, Dist 36                   Jim Engstrand                         VOTING PRECINCT 3                                      01 
01060110004000000REP       United States Representative, Dist 36                   Jim Engstrand                         VOTING PRECINCT 4                                      01 
01060110005000000REP       United States Representative, Dist 36                   Jim Engstrand                         VOTING PRECINCT 5                                      01 
01060110006000002REP       United States Representative, Dist 36                   Jim Engstrand                         VOTING PRECINCT 6                                      01 
01060110007000004REP       United States Representative, Dist 36                   Jim Engstrand                         VOTING PRECINCT 7                                      01 
01060110008000000REP       United States Representative, Dist 36                   Jim Engstrand                         VOTING PRECINCT 8                                      01 
01060110009000000REP       United States Representative, Dist 36                   Jim Engstrand                         VOTING PRECINCT 9                                      01 
01060110010000006REP       United States Representative, Dist 36                   Jim Engstrand                         VOTING PRECINCT 10                                     01 
01060110011000000REP       United States Representative, Dist 36                   Jim Engstrand                         VOTING PRECINCT 11                                     01 
01060110012000004REP       United States Representative, Dist 36                   Jim Engstrand                         VOTING PRECINCT 18                                     01 
01060110013000000REP       United States Representative, Dist 36                   Jim Engstrand                         VOTING PRECINCT 13                                     01 
01060110014000001REP       United States Representative, Dist 36                   Jim Engstrand                         VOTING PRECINCT 14                                     01 
01060110015000001REP       United States Representative, Dist 36                   Jim Engstrand                         VOTING PRECINCT 15                                     01 
01060110016000000REP       United States Representative, Dist 36                   Jim Engstrand                         VOTING PRECINCT 16                                     01 
01060110017000000REP       United States Representative, Dist 36                   Jim Engstrand                         VOTING PRECINCT 17                                     01 
01060120001000137REP       United States Representative, Dist 36                   Brian Babin                           VOTING PRECINCT 1                                      01 
01060120002000141REP       United States Representative, Dist 36                   Brian Babin                           VOTING PRECINCT 2                                      01 
01060120003000189REP       United States Representative, Dist 36                   Brian Babin                           VOTING PRECINCT 3                                      01 
01060120004000171REP       United States Representative, Dist 36                   Brian Babin                           VOTING PRECINCT 4                                      01 
01060120005000019REP       United States Representative, Dist 36                   Brian Babin                           VOTING PRECINCT 5                                      01 
01060120006000051REP       United States Representative, Dist 36                   Brian Babin                           VOTING PRECINCT 6                                      01 
01060120007000143REP       United States Representative, Dist 36                   Brian Babin                           VOTING PRECINCT 7                                      01 
01060120008000063REP       United States Representative, Dist 36                   Brian Babin                           VOTING PRECINCT 8                                      01 
01060120009000037REP       United States Representative, Dist 36                   Brian Babin                           VOTING PRECINCT 9                                      01 
01060120010000177REP       United States Representative, Dist 36                   Brian Babin                           VOTING PRECINCT 10                                     01 
01060120011000015REP       United States Representative, Dist 36                   Brian Babin                           VOTING PRECINCT 11                                     01 
01060120012000327REP       United States Representative, Dist 36                   Brian Babin                           VOTING PRECINCT 18                                     01 
01060120013000046REP       United States Representative, Dist 36                   Brian Babin                           VOTING PRECINCT 13                                     01 
01060120014000166REP       United States Representative, Dist 36                   Brian Babin                           VOTING PRECINCT 14                                     01 
01060120015000057REP       United States Representative, Dist 36                   Brian Babin                           VOTING PRECINCT 15                                     01 
01060120016000069REP       United States Representative, Dist 36                   Brian Babin                           VOTING PRECINCT 16                                     01 
01060120017000090REP       United States Representative, Dist 36                   Brian Babin                           VOTING PRECINCT 17                                     01 
01060130001000002REP       United States Representative, Dist 36                   OVER VOTES                            VOTING PRECINCT 1                                      01 
01060130002000000REP       United States Representative, Dist 36                   OVER VOTES                            VOTING PRECINCT 2                                      01 
01060130003000001REP       United States Representative, Dist 36                   OVER VOTES                            VOTING PRECINCT 3                                      01 
01060130004000000REP       United States Representative, Dist 36                   OVER VOTES                            VOTING PRECINCT 4                                      01 
01060130005000000REP       United States Representative, Dist 36                   OVER VOTES                            VOTING PRECINCT 5                                      01 
01060130006000000REP       United States Representative, Dist 36                   OVER VOTES                            VOTING PRECINCT 6                                      01 
01060130007000007REP       United States Representative, Dist 36                   OVER VOTES                            VOTING PRECINCT 7                                      01 
01060130008000000REP       United States Representative, Dist 36                   OVER VOTES                            VOTING PRECINCT 8                                      01 
01060130009000000REP       United States Representative, Dist 36                   OVER VOTES                            VOTING PRECINCT 9                                      01 
01060130010000000REP       United States Representative, Dist 36                   OVER VOTES                            VOTING PRECINCT 10                                     01 
01060130011000000REP       United States Representative, Dist 36                   OVER VOTES                            VOTING PRECINCT 11                                     01 
01060130012000000REP       United States Representative, Dist 36                   OVER VOTES                            VOTING PRECINCT 18                                     01 
01060130013000000REP       United States Representative, Dist 36                   OVER VOTES                            VOTING PRECINCT 13                                     01 
01060130014000001REP       United States Representative, Dist 36                   OVER VOTES                            VOTING PRECINCT 14                                     01 
01060130015000000REP       United States Representative, Dist 36                   OVER VOTES                            VOTING PRECINCT 15                                     01 
01060130016000000REP       United States Representative, Dist 36                   OVER VOTES                            VOTING PRECINCT 16                                     01 
01060130017000000REP       United States Representative, Dist 36                   OVER VOTES                            VOTING PRECINCT 17                                     01 
01060140001000002REP       United States Representative, Dist 36                   UNDER VOTES                           VOTING PRECINCT 1                                      01 
01060140002000006REP       United States Representative, Dist 36                   UNDER VOTES                           VOTING PRECINCT 2                                      01 
01060140003000013REP       United States Representative, Dist 36                   UNDER VOTES                           VOTING PRECINCT 3                                      01 
01060140004000008REP       United States Representative, Dist 36                   UNDER VOTES                           VOTING PRECINCT 4                                      01 
01060140005000004REP       United States Representative, Dist 36                   UNDER VOTES                           VOTING PRECINCT 5                                      01 
01060140006000007REP       United States Representative, Dist 36                   UNDER VOTES                           VOTING PRECINCT 6                                      01 
01060140007000023REP       United States Representative, Dist 36                   UNDER VOTES                           VOTING PRECINCT 7                                      01 
01060140008000005REP       United States Representative, Dist 36                   UNDER VOTES                           VOTING PRECINCT 8                                      01 
01060140009000000REP       United States Representative, Dist 36                   UNDER VOTES                           VOTING PRECINCT 9                                      01 
01060140010000011REP       United States Representative, Dist 36                   UNDER VOTES                           VOTING PRECINCT 10                                     01 
01060140011000000REP       United States Representative, Dist 36                   UNDER VOTES                           VOTING PRECINCT 11                                     01 
01060140012000014REP       United States Representative, Dist 36                   UNDER VOTES                           VOTING PRECINCT 18                                     01 
01060140013000001REP       United States Representative, Dist 36                   UNDER VOTES                           VOTING PRECINCT 13                                     01 
01060140014000003REP       United States Representative, Dist 36                   UNDER VOTES                           VOTING PRECINCT 14                                     01 
01060140015000002REP       United States Representative, Dist 36                   UNDER VOTES                           VOTING PRECINCT 15                                     01 
01060140016000007REP       United States Representative, Dist 36                   UNDER VOTES                           VOTING PRECINCT 16                                     01 
01060140017000000REP       United States Representative, Dist 36                   UNDER VOTES                           VOTING PRECINCT 17                                     01 
01070010001000001REP       Govenor                                                 Miriam Martinez                       VOTING PRECINCT 1                                      01 
01070010002000007REP       Govenor                                                 Miriam Martinez                       VOTING PRECINCT 2                                      01 
01070010003000002REP       Govenor                                                 Miriam Martinez                       VOTING PRECINCT 3                                      01 
01070010004000003REP       Govenor                                                 Miriam Martinez                       VOTING PRECINCT 4                                      01 
01070010005000003REP       Govenor                                                 Miriam Martinez                       VOTING PRECINCT 5                                      01 
01070010006000003REP       Govenor                                                 Miriam Martinez                       VOTING PRECINCT 6                                      01 
01070010007000006REP       Govenor                                                 Miriam Martinez                       VOTING PRECINCT 7                                      01 
01070010008000000REP       Govenor                                                 Miriam Martinez                       VOTING PRECINCT 8                                      01 
01070010009000000REP       Govenor                                                 Miriam Martinez                       VOTING PRECINCT 9                                      01 
01070010010000005REP       Govenor                                                 Miriam Martinez                       VOTING PRECINCT 10                                     01 
01070010011000000REP       Govenor                                                 Miriam Martinez                       VOTING PRECINCT 11                                     01 
01070010012000012REP       Govenor                                                 Miriam Martinez                       VOTING PRECINCT 18                                     01 
01070010013000003REP       Govenor                                                 Miriam Martinez                       VOTING PRECINCT 13                                     01 
01070010014000003REP       Govenor                                                 Miriam Martinez                       VOTING PRECINCT 14                                     01 
01070010015000002REP       Govenor                                                 Miriam Martinez                       VOTING PRECINCT 15                                     01 
01070010016000002REP       Govenor                                                 Miriam Martinez                       VOTING PRECINCT 16                                     01 
01070010017000001REP       Govenor                                                 Miriam Martinez                       VOTING PRECINCT 17                                     01 
01070020001000001REP       Govenor                                                 SECEDE Kilgore                        VOTING PRECINCT 1                                      01 
01070020002000001REP       Govenor                                                 SECEDE Kilgore                        VOTING PRECINCT 2                                      01 
01070020003000003REP       Govenor                                                 SECEDE Kilgore                        VOTING PRECINCT 3                                      01 
01070020004000004REP       Govenor                                                 SECEDE Kilgore                        VOTING PRECINCT 4                                      01 
01070020005000000REP       Govenor                                                 SECEDE Kilgore                        VOTING PRECINCT 5                                      01 
01070020006000001REP       Govenor                                                 SECEDE Kilgore                        VOTING PRECINCT 6                                      01 
01070020007000006REP       Govenor                                                 SECEDE Kilgore                        VOTING PRECINCT 7                                      01 
01070020008000002REP       Govenor                                                 SECEDE Kilgore                        VOTING PRECINCT 8                                      01 
01070020009000000REP       Govenor                                                 SECEDE Kilgore                        VOTING PRECINCT 9                                      01 
01070020010000003REP       Govenor                                                 SECEDE Kilgore                        VOTING PRECINCT 10                                     01 
01070020011000000REP       Govenor                                                 SECEDE Kilgore                        VOTING PRECINCT 11                                     01 
01070020012000005REP       Govenor                                                 SECEDE Kilgore                        VOTING PRECINCT 18                                     01 
01070020013000000REP       Govenor                                                 SECEDE Kilgore                        VOTING PRECINCT 13                                     01 
01070020014000001REP       Govenor                                                 SECEDE Kilgore                        VOTING PRECINCT 14                                     01 
01070020015000002REP       Govenor                                                 SECEDE Kilgore                        VOTING PRECINCT 15                                     01 
01070020016000001REP       Govenor                                                 SECEDE Kilgore                        VOTING PRECINCT 16                                     01 
01070020017000001REP       Govenor                                                 SECEDE Kilgore                        VOTING PRECINCT 17                                     01 
01070030001000014REP       Govenor                                                 Lisa Fritsch                          VOTING PRECINCT 1                                      01 
01070030002000011REP       Govenor                                                 Lisa Fritsch                          VOTING PRECINCT 2                                      01 
01070030003000015REP       Govenor                                                 Lisa Fritsch                          VOTING PRECINCT 3                                      01 
01070030004000004REP       Govenor                                                 Lisa Fritsch                          VOTING PRECINCT 4                                      01 
01070030005000000REP       Govenor                                                 Lisa Fritsch                          VOTING PRECINCT 5                                      01 
01070030006000001REP       Govenor                                                 Lisa Fritsch                          VOTING PRECINCT 6                                      01 
01070030007000008REP       Govenor                                                 Lisa Fritsch                          VOTING PRECINCT 7                                      01 
01070030008000002REP       Govenor                                                 Lisa Fritsch                          VOTING PRECINCT 8                                      01 
01070030009000000REP       Govenor                                                 Lisa Fritsch                          VOTING PRECINCT 9                                      01 
01070030010000007REP       Govenor                                                 Lisa Fritsch                          VOTING PRECINCT 10                                     01 
01070030011000000REP       Govenor                                                 Lisa Fritsch                          VOTING PRECINCT 11                                     01 
01070030012000010REP       Govenor                                                 Lisa Fritsch                          VOTING PRECINCT 18                                     01 
01070030013000003REP       Govenor                                                 Lisa Fritsch                          VOTING PRECINCT 13                                     01 
01070030014000014REP       Govenor                                                 Lisa Fritsch                          VOTING PRECINCT 14                                     01 
01070030015000002REP       Govenor                                                 Lisa Fritsch                          VOTING PRECINCT 15                                     01 
01070030016000004REP       Govenor                                                 Lisa Fritsch                          VOTING PRECINCT 16                                     01 
01070030017000004REP       Govenor                                                 Lisa Fritsch                          VOTING PRECINCT 17                                     01 
01070040001000155REP       Govenor                                                 Greg Abbott                           VOTING PRECINCT 1                                      01 
01070040002000153REP       Govenor                                                 Greg Abbott                           VOTING PRECINCT 2                                      01 
01070040003000226REP       Govenor                                                 Greg Abbott                           VOTING PRECINCT 3                                      01 
01070040004000206REP       Govenor                                                 Greg Abbott                           VOTING PRECINCT 4                                      01 
01070040005000024REP       Govenor                                                 Greg Abbott                           VOTING PRECINCT 5                                      01 
01070040006000075REP       Govenor                                                 Greg Abbott                           VOTING PRECINCT 6                                      01 
01070040007000177REP       Govenor                                                 Greg Abbott                           VOTING PRECINCT 7                                      01 
01070040008000076REP       Govenor                                                 Greg Abbott                           VOTING PRECINCT 8                                      01 
01070040009000059REP       Govenor                                                 Greg Abbott                           VOTING PRECINCT 9                                      01 
01070040010000223REP       Govenor                                                 Greg Abbott                           VOTING PRECINCT 10                                     01 
01070040011000021REP       Govenor                                                 Greg Abbott                           VOTING PRECINCT 11                                     01 
01070040012000364REP       Govenor                                                 Greg Abbott                           VOTING PRECINCT 18                                     01 
01070040013000064REP       Govenor                                                 Greg Abbott                           VOTING PRECINCT 13                                     01 
01070040014000222REP       Govenor                                                 Greg Abbott                           VOTING PRECINCT 14                                     01 
01070040015000082REP       Govenor                                                 Greg Abbott                           VOTING PRECINCT 15                                     01 
01070040016000092REP       Govenor                                                 Greg Abbott                           VOTING PRECINCT 16                                     01 
01070040017000100REP       Govenor                                                 Greg Abbott                           VOTING PRECINCT 17                                     01 
01070050001000000REP       Govenor                                                 OVER VOTES                            VOTING PRECINCT 1                                      01 
01070050002000000REP       Govenor                                                 OVER VOTES                            VOTING PRECINCT 2                                      01 
01070050003000000REP       Govenor                                                 OVER VOTES                            VOTING PRECINCT 3                                      01 
01070050004000000REP       Govenor                                                 OVER VOTES                            VOTING PRECINCT 4                                      01 
01070050005000000REP       Govenor                                                 OVER VOTES                            VOTING PRECINCT 5                                      01 
01070050006000000REP       Govenor                                                 OVER VOTES                            VOTING PRECINCT 6                                      01 
01070050007000000REP       Govenor                                                 OVER VOTES                            VOTING PRECINCT 7                                      01 
01070050008000000REP       Govenor                                                 OVER VOTES                            VOTING PRECINCT 8                                      01 
