01520010009000395NONUISD03 UISD Trustee, District 3                                Alfredo Espinoza, Jr.                 PCT 309                                                01 
01520010027000024NONUISD03 UISD Trustee, District 3                                Alfredo Espinoza, Jr.                 PCT 227                                                01 
01520010038000020NONUISD03 UISD Trustee, District 3                                Alfredo Espinoza, Jr.                 PCT 338                                                01 
01520010039000449NONUISD03 UISD Trustee, District 3                                Alfredo Espinoza, Jr.                 PCT 239                                                01 
01520010055000207NONUISD03 UISD Trustee, District 3                                Alfredo Espinoza, Jr.                 PCT 255                                                01 
01520010067000115NONUISD03 UISD Trustee, District 3                                Alfredo Espinoza, Jr.                 PCT 267                                                01 
01520020009000464NONUISD03 UISD Trustee, District 3                                Aliza Flores Oliveros                 PCT 309                                                01 
01520020027000026NONUISD03 UISD Trustee, District 3                                Aliza Flores Oliveros                 PCT 227                                                01 
01520020038000012NONUISD03 UISD Trustee, District 3                                Aliza Flores Oliveros                 PCT 338                                                01 
01520020039000511NONUISD03 UISD Trustee, District 3                                Aliza Flores Oliveros                 PCT 239                                                01 
01520020055000228NONUISD03 UISD Trustee, District 3                                Aliza Flores Oliveros                 PCT 255                                                01 
01520020067000095NONUISD03 UISD Trustee, District 3                                Aliza Flores Oliveros                 PCT 267                                                01 
01520030009000000   UISD03 UISD Trustee, District 3                                OVER VOTES                            PCT 309                                                01 
01520030027000000   UISD03 UISD Trustee, District 3                                OVER VOTES                            PCT 227                                                01 
01520030038000000   UISD03 UISD Trustee, District 3                                OVER VOTES                            PCT 338                                                01 
01520030039000000   UISD03 UISD Trustee, District 3                                OVER VOTES                            PCT 239                                                01 
01520030055000000   UISD03 UISD Trustee, District 3                                OVER VOTES                            PCT 255                                                01 
01520030067000000   UISD03 UISD Trustee, District 3                                OVER VOTES                            PCT 267                                                01 
01520040009000037   UISD03 UISD Trustee, District 3                                UNDER VOTES                           PCT 309                                                01 
01520040027000012   UISD03 UISD Trustee, District 3                                UNDER VOTES                           PCT 227                                                01 
01520040038000004   UISD03 UISD Trustee, District 3                                UNDER VOTES                           PCT 338                                                01 
01520040039000085   UISD03 UISD Trustee, District 3                                UNDER VOTES                           PCT 239                                                01 
01520040055000037   UISD03 UISD Trustee, District 3                                UNDER VOTES                           PCT 255                                                01 
01520040067000022   UISD03 UISD Trustee, District 3                                UNDER VOTES                           PCT 267                                                01 
01530010008000206NONUISD05 UISD Trustee, District 5                                Javier Montemayor                     PCT 308                                                01 
01530010040000549NONUISD05 UISD Trustee, District 5                                Javier Montemayor                     PCT 340                                                01 
01530010041000317NONUISD05 UISD Trustee, District 5                                Javier Montemayor                     PCT 341                                                01 
01530010042000354NONUISD05 UISD Trustee, District 5                                Javier Montemayor                     PCT 342                                                01 
01530010043000571NONUISD05 UISD Trustee, District 5                                Javier Montemayor                     PCT 343                                                01 
01530010059000240NONUISD05 UISD Trustee, District 5                                Javier Montemayor                     PCT 359                                                01 
01530010060000087NONUISD05 UISD Trustee, District 5                                Javier Montemayor                     PCT 360                                                01 
01530010061000229NONUISD05 UISD Trustee, District 5                                Javier Montemayor                     PCT 361                                                01 
01530020008000065NONUISD05 UISD Trustee, District 5                                Hugo Noyola, Jr.                      PCT 308                                                01 
01530020040000205NONUISD05 UISD Trustee, District 5                                Hugo Noyola, Jr.                      PCT 340                                                01 
01530020041000119NONUISD05 UISD Trustee, District 5                                Hugo Noyola, Jr.                      PCT 341                                                01 
01530020042000118NONUISD05 UISD Trustee, District 5                                Hugo Noyola, Jr.                      PCT 342                                                01 
01530020043000177NONUISD05 UISD Trustee, District 5                                Hugo Noyola, Jr.                      PCT 343                                                01 
01530020059000076NONUISD05 UISD Trustee, District 5                                Hugo Noyola, Jr.                      PCT 359                                                01 
01530020060000028NONUISD05 UISD Trustee, District 5                                Hugo Noyola, Jr.                      PCT 360                                                01 
01530020061000084NONUISD05 UISD Trustee, District 5                                Hugo Noyola, Jr.                      PCT 361                                                01 
01530030008000000   UISD05 UISD Trustee, District 5                                OVER VOTES                            PCT 308                                                01 
01530030040000000   UISD05 UISD Trustee, District 5                                OVER VOTES                            PCT 340                                                01 
01530030041000000   UISD05 UISD Trustee, District 5                                OVER VOTES                            PCT 341                                                01 
01530030042000001   UISD05 UISD Trustee, District 5                                OVER VOTES                            PCT 342                                                01 
01530030043000000   UISD05 UISD Trustee, District 5                                OVER VOTES                            PCT 343                                                01 
01530030059000000   UISD05 UISD Trustee, District 5                                OVER VOTES                            PCT 359                                                01 
01530030060000000   UISD05 UISD Trustee, District 5                                OVER VOTES                            PCT 360                                                01 
01530030061000000   UISD05 UISD Trustee, District 5                                OVER VOTES                            PCT 361                                                01 
01530040008000023   UISD05 UISD Trustee, District 5                                UNDER VOTES                           PCT 308                                                01 
01530040040000067   UISD05 UISD Trustee, District 5                                UNDER VOTES                           PCT 340                                                01 
01530040041000056   UISD05 UISD Trustee, District 5                                UNDER VOTES                           PCT 341                                                01 
01530040042000039   UISD05 UISD Trustee, District 5                                UNDER VOTES                           PCT 342                                                01 
01530040043000059   UISD05 UISD Trustee, District 5                                UNDER VOTES                           PCT 343                                                01 
01530040059000037   UISD05 UISD Trustee, District 5                                UNDER VOTES                           PCT 359                                                01 
01530040060000013   UISD05 UISD Trustee, District 5                                UNDER VOTES                           PCT 360                                                01 
01530040061000024   UISD05 UISD Trustee, District 5                                UNDER VOTES                           PCT 361                                                01 
01540010007000049NONUISD06 UISD Trustee, District 6                                Juan Roberto Ramirez                  PCT 407                                                01 
01540010046000456NONUISD06 UISD Trustee, District 6                                Juan Roberto Ramirez                  PCT 446                                                01 
01540010047000242NONUISD06 UISD Trustee, District 6                                Juan Roberto Ramirez                  PCT 447                                                01 
01540010048000034NONUISD06 UISD Trustee, District 6                                Juan Roberto Ramirez                  PCT 448                                                01 
01540010057000006NONUISD06 UISD Trustee, District 6                                Juan Roberto Ramirez                  PCT 457                                                01 
01540010058000324NONUISD06 UISD Trustee, District 6                                Juan Roberto Ramirez                  PCT 458                                                01 
01540020007000037NONUISD06 UISD Trustee, District 6                                Anthony "Tony" Winterroth             PCT 407                                                01 
01540020046000230NONUISD06 UISD Trustee, District 6                                Anthony "Tony" Winterroth             PCT 446                                                01 
01540020047000173NONUISD06 UISD Trustee, District 6                                Anthony "Tony" Winterroth             PCT 447                                                01 
01540020048000027NONUISD06 UISD Trustee, District 6                                Anthony "Tony" Winterroth             PCT 448                                                01 
01540020057000020NONUISD06 UISD Trustee, District 6                                Anthony "Tony" Winterroth             PCT 457                                                01 
01540020058000167NONUISD06 UISD Trustee, District 6                                Anthony "Tony" Winterroth             PCT 458                                                01 
01540030007000000   UISD06 UISD Trustee, District 6                                OVER VOTES                            PCT 407                                                01 
01540030046000000   UISD06 UISD Trustee, District 6                                OVER VOTES                            PCT 446                                                01 
01540030047000001   UISD06 UISD Trustee, District 6                                OVER VOTES                            PCT 447                                                01 
01540030048000000   UISD06 UISD Trustee, District 6                                OVER VOTES                            PCT 448                                                01 
01540030057000000   UISD06 UISD Trustee, District 6                                OVER VOTES                            PCT 457                                                01 
01540030058000000   UISD06 UISD Trustee, District 6                                OVER VOTES                            PCT 458                                                01 
01540040007000017   UISD06 UISD Trustee, District 6                                UNDER VOTES                           PCT 407                                                01 
01540040046000066   UISD06 UISD Trustee, District 6                                UNDER VOTES                           PCT 446                                                01 
01540040047000082   UISD06 UISD Trustee, District 6                                UNDER VOTES                           PCT 447                                                01 
01540040048000020   UISD06 UISD Trustee, District 6                                UNDER VOTES                           PCT 448                                                01 
01540040057000002   UISD06 UISD Trustee, District 6                                UNDER VOTES                           PCT 457                                                01 
01540040058000051   UISD06 UISD Trustee, District 6                                UNDER VOTES                           PCT 458                                                01 
