01010010001000000000000000000000000000000000000          REGISTERED VOTERS - TOTAL                               REGISTERED VOTERS - TOTAL             Precinct 1A                                            00 
01010010002000000000000000000000000000000000000          REGISTERED VOTERS - TOTAL                               REGISTERED VOTERS - TOTAL             Precinct 1B                                            00 
01010010003000000000000000000000000000000000000          REGISTERED VOTERS - TOTAL                               REGISTERED VOTERS - TOTAL             Precinct 1C                                            00 
01010010004000000000000000000000000000000000000          REGISTERED VOTERS - TOTAL                               REGISTERED VOTERS - TOTAL             Precinct 1D                                            00 
01010010005000000000000000000000000000000000000          REGISTERED VOTERS - TOTAL                               REGISTERED VOTERS - TOTAL             Precinct 1E                                            00 
01010010006000000000000000000000000000000000000          REGISTERED VOTERS - TOTAL                               REGISTERED VOTERS - TOTAL             Precinct 2A                                            00 
01010010007000000000000000000000000000000000000          REGISTERED VOTERS - TOTAL                               REGISTERED VOTERS - TOTAL             Precinct 2B                                            00 
01010010008000000000000000000000000000000000000          REGISTERED VOTERS - TOTAL                               REGISTERED VOTERS - TOTAL             Precinct 2C                                            00 
01010010009000000000000000000000000000000000000          REGISTERED VOTERS - TOTAL                               REGISTERED VOTERS - TOTAL             Precinct 2D                                            00 
01010010010000000000000000000000000000000000000          REGISTERED VOTERS - TOTAL                               REGISTERED VOTERS - TOTAL             Precinct 3A                                            00 
01010010011000000000000000000000000000000000000          REGISTERED VOTERS - TOTAL                               REGISTERED VOTERS - TOTAL             Precinct 3B                                            00 
01010010012000000000000000000000000000000000000          REGISTERED VOTERS - TOTAL                               REGISTERED VOTERS - TOTAL             Precinct 3C                                            00 
01010010013000000000000000000000000000000000000          REGISTERED VOTERS - TOTAL                               REGISTERED VOTERS - TOTAL             Precinct 3D                                            00 
01010010014000000000000000000000000000000000000          REGISTERED VOTERS - TOTAL                               REGISTERED VOTERS - TOTAL             Precinct 4A                                            00 
01010010015000000000000000000000000000000000000          REGISTERED VOTERS - TOTAL                               REGISTERED VOTERS - TOTAL             Precinct 4B                                            00 
01010010016000000000000000000000000000000000000          REGISTERED VOTERS - TOTAL                               REGISTERED VOTERS - TOTAL             Precinct 4C                                            00 
01010010017000000000000000000000000000000000000          REGISTERED VOTERS - TOTAL                               REGISTERED VOTERS - TOTAL             Precinct 4D                                            00 
01010010018000000000000000000000000000000000000          REGISTERED VOTERS - TOTAL                               REGISTERED VOTERS - TOTAL             Precinct 4E                                            00 
01020010001000354000166000139000049000000000000          BALLOTS CAST - TOTAL                                    BALLOTS CAST - TOTAL                  Precinct 1A                                            00 
01020010002000628000142000428000058000000000000          BALLOTS CAST - TOTAL                                    BALLOTS CAST - TOTAL                  Precinct 1B                                            00 
01020010003000310000076000207000027000000000000          BALLOTS CAST - TOTAL                                    BALLOTS CAST - TOTAL                  Precinct 1C                                            00 
01020010004000261000073000164000024000000000000          BALLOTS CAST - TOTAL                                    BALLOTS CAST - TOTAL                  Precinct 1D                                            00 
01020010005000146000031000097000018000000000000          BALLOTS CAST - TOTAL                                    BALLOTS CAST - TOTAL                  Precinct 1E                                            00 
01020010006000830000446000307000077000000000000          BALLOTS CAST - TOTAL                                    BALLOTS CAST - TOTAL                  Precinct 2A                                            00 
01020010007000323000121000170000032000000000000          BALLOTS CAST - TOTAL                                    BALLOTS CAST - TOTAL                  Precinct 2B                                            00 
01020010008000481000118000318000043000002000000          BALLOTS CAST - TOTAL                                    BALLOTS CAST - TOTAL                  Precinct 2C                                            00 
01020010009000382000170000169000043000000000000          BALLOTS CAST - TOTAL                                    BALLOTS CAST - TOTAL                  Precinct 2D                                            00 
01020010010000190000114000066000010000000000000          BALLOTS CAST - TOTAL                                    BALLOTS CAST - TOTAL                  Precinct 3A                                            00 
01020010011000223000051000155000017000000000000          BALLOTS CAST - TOTAL                                    BALLOTS CAST - TOTAL                  Precinct 3B                                            00 
01020010012000509000097000339000073000000000000          BALLOTS CAST - TOTAL                                    BALLOTS CAST - TOTAL                  Precinct 3C                                            00 
01020010013000452000161000254000037000000000000          BALLOTS CAST - TOTAL                                    BALLOTS CAST - TOTAL                  Precinct 3D                                            00 
01020010014000305000196000094000015000000000000          BALLOTS CAST - TOTAL                                    BALLOTS CAST - TOTAL                  Precinct 4A                                            00 
01020010015000332000049000240000043000000000000          BALLOTS CAST - TOTAL                                    BALLOTS CAST - TOTAL                  Precinct 4B                                            00 
01020010016000323000068000230000025000000000000          BALLOTS CAST - TOTAL                                    BALLOTS CAST - TOTAL                  Precinct 4C                                            00 
01020010017000716000135000497000084000000000000          BALLOTS CAST - TOTAL                                    BALLOTS CAST - TOTAL                  Precinct 4D                                            00 
01020010018000215000081000120000014000000000000          BALLOTS CAST - TOTAL                                    BALLOTS CAST - TOTAL                  Precinct 4E                                            00 
01030010001000339000158000132000049000000000000REP       BALLOTS CAST - REPUBLICAN PARTY                         BALLOTS CAST - REPUBLICAN PARTY       Precinct 1A                                            00 
01030010002000588000133000397000058000000000000REP       BALLOTS CAST - REPUBLICAN PARTY                         BALLOTS CAST - REPUBLICAN PARTY       Precinct 1B                                            00 
01030010003000295000072000196000027000000000000REP       BALLOTS CAST - REPUBLICAN PARTY                         BALLOTS CAST - REPUBLICAN PARTY       Precinct 1C                                            00 
01030010004000244000070000150000024000000000000REP       BALLOTS CAST - REPUBLICAN PARTY                         BALLOTS CAST - REPUBLICAN PARTY       Precinct 1D                                            00 
01030010005000118000027000073000018000000000000REP       BALLOTS CAST - REPUBLICAN PARTY                         BALLOTS CAST - REPUBLICAN PARTY       Precinct 1E                                            00 
01030010006000800000432000294000074000000000000REP       BALLOTS CAST - REPUBLICAN PARTY                         BALLOTS CAST - REPUBLICAN PARTY       Precinct 2A                                            00 
01030010007000309000116000161000032000000000000REP       BALLOTS CAST - REPUBLICAN PARTY                         BALLOTS CAST - REPUBLICAN PARTY       Precinct 2B                                            00 
01030010008000461000114000302000043000002000000REP       BALLOTS CAST - REPUBLICAN PARTY                         BALLOTS CAST - REPUBLICAN PARTY       Precinct 2C                                            00 
01030010009000359000156000161000042000000000000REP       BALLOTS CAST - REPUBLICAN PARTY                         BALLOTS CAST - REPUBLICAN PARTY       Precinct 2D                                            00 
01030010010000179000109000060000010000000000000REP       BALLOTS CAST - REPUBLICAN PARTY                         BALLOTS CAST - REPUBLICAN PARTY       Precinct 3A                                            00 
01030010011000173000043000114000016000000000000REP       BALLOTS CAST - REPUBLICAN PARTY                         BALLOTS CAST - REPUBLICAN PARTY       Precinct 3B                                            00 
01030010012000449000091000286000072000000000000REP       BALLOTS CAST - REPUBLICAN PARTY                         BALLOTS CAST - REPUBLICAN PARTY       Precinct 3C                                            00 
01030010013000419000148000234000037000000000000REP       BALLOTS CAST - REPUBLICAN PARTY                         BALLOTS CAST - REPUBLICAN PARTY       Precinct 3D                                            00 
01030010014000291000190000086000015000000000000REP       BALLOTS CAST - REPUBLICAN PARTY                         BALLOTS CAST - REPUBLICAN PARTY       Precinct 4A                                            00 
01030010015000321000047000231000043000000000000REP       BALLOTS CAST - REPUBLICAN PARTY                         BALLOTS CAST - REPUBLICAN PARTY       Precinct 4B                                            00 
01030010016000303000057000221000025000000000000REP       BALLOTS CAST - REPUBLICAN PARTY                         BALLOTS CAST - REPUBLICAN PARTY       Precinct 4C                                            00 
01030010017000649000121000444000084000000000000REP       BALLOTS CAST - REPUBLICAN PARTY                         BALLOTS CAST - REPUBLICAN PARTY       Precinct 4D                                            00 
01030010018000202000078000110000014000000000000REP       BALLOTS CAST - REPUBLICAN PARTY                         BALLOTS CAST - REPUBLICAN PARTY       Precinct 4E                                            00 
01040010001000015000008000007000000000000000000DEM       BALLOTS CAST - DEMOCRATIC PARTY                         BALLOTS CAST - DEMOCRATIC PARTY       Precinct 1A                                            00 
01040010002000040000009000031000000000000000000DEM       BALLOTS CAST - DEMOCRATIC PARTY                         BALLOTS CAST - DEMOCRATIC PARTY       Precinct 1B                                            00 
01040010003000015000004000011000000000000000000DEM       BALLOTS CAST - DEMOCRATIC PARTY                         BALLOTS CAST - DEMOCRATIC PARTY       Precinct 1C                                            00 
01040010004000017000003000014000000000000000000DEM       BALLOTS CAST - DEMOCRATIC PARTY                         BALLOTS CAST - DEMOCRATIC PARTY       Precinct 1D                                            00 
01040010005000028000004000024000000000000000000DEM       BALLOTS CAST - DEMOCRATIC PARTY                         BALLOTS CAST - DEMOCRATIC PARTY       Precinct 1E                                            00 
01040010006000030000014000013000003000000000000DEM       BALLOTS CAST - DEMOCRATIC PARTY                         BALLOTS CAST - DEMOCRATIC PARTY       Precinct 2A                                            00 
01040010007000014000005000009000000000000000000DEM       BALLOTS CAST - DEMOCRATIC PARTY                         BALLOTS CAST - DEMOCRATIC PARTY       Precinct 2B                                            00 
01040010008000020000004000016000000000000000000DEM       BALLOTS CAST - DEMOCRATIC PARTY                         BALLOTS CAST - DEMOCRATIC PARTY       Precinct 2C                                            00 
01040010009000023000014000008000001000000000000DEM       BALLOTS CAST - DEMOCRATIC PARTY                         BALLOTS CAST - DEMOCRATIC PARTY       Precinct 2D                                            00 
01040010010000011000005000006000000000000000000DEM       BALLOTS CAST - DEMOCRATIC PARTY                         BALLOTS CAST - DEMOCRATIC PARTY       Precinct 3A                                            00 
01040010011000050000008000041000001000000000000DEM       BALLOTS CAST - DEMOCRATIC PARTY                         BALLOTS CAST - DEMOCRATIC PARTY       Precinct 3B                                            00 
01040010012000060000006000053000001000000000000DEM       BALLOTS CAST - DEMOCRATIC PARTY                         BALLOTS CAST - DEMOCRATIC PARTY       Precinct 3C                                            00 
01040010013000033000013000020000000000000000000DEM       BALLOTS CAST - DEMOCRATIC PARTY                         BALLOTS CAST - DEMOCRATIC PARTY       Precinct 3D                                            00 
01040010014000014000006000008000000000000000000DEM       BALLOTS CAST - DEMOCRATIC PARTY                         BALLOTS CAST - DEMOCRATIC PARTY       Precinct 4A                                            00 
01040010015000011000002000009000000000000000000DEM       BALLOTS CAST - DEMOCRATIC PARTY                         BALLOTS CAST - DEMOCRATIC PARTY       Precinct 4B                                            00 
01040010016000020000011000009000000000000000000DEM       BALLOTS CAST - DEMOCRATIC PARTY                         BALLOTS CAST - DEMOCRATIC PARTY       Precinct 4C                                            00 
01040010017000067000014000053000000000000000000DEM       BALLOTS CAST - DEMOCRATIC PARTY                         BALLOTS CAST - DEMOCRATIC PARTY       Precinct 4D                                            00 
01040010018000013000003000010000000000000000000DEM       BALLOTS CAST - DEMOCRATIC PARTY                         BALLOTS CAST - DEMOCRATIC PARTY       Precinct 4E                                            00 
01050010001000041000020000015000006000000000000REP       United States Senator                                   Steve Stockman                        Precinct 1A                                            01 
01050010002000110000025000079000006000000000000REP       United States Senator                                   Steve Stockman                        Precinct 1B                                            01 
01050010003000056000008000047000001000000000000REP       United States Senator                                   Steve Stockman                        Precinct 1C                                            01 
01050010004000040000010000027000003000000000000REP       United States Senator                                   Steve Stockman                        Precinct 1D                                            01 
01050010005000025000005000013000007000000000000REP       United States Senator                                   Steve Stockman                        Precinct 1E                                            01 
01050010006000101000051000043000007000000000000REP       United States Senator                                   Steve Stockman                        Precinct 2A                                            01 
01050010007000066000021000043000002000000000000REP       United States Senator                                   Steve Stockman                        Precinct 2B                                            01 
01050010008000098000020000069000009000000000000REP       United States Senator                                   Steve Stockman                        Precinct 2C                                            01 
01050010009000064000032000029000003000000000000REP       United States Senator                                   Steve Stockman                        Precinct 2D                                            01 
01050010010000023000015000008000000000000000000REP       United States Senator                                   Steve Stockman                        Precinct 3A                                            01 
01050010011000025000006000018000001000000000000REP       United States Senator                                   Steve Stockman                        Precinct 3B                                            01 
01050010012000097000015000074000008000000000000REP       United States Senator                                   Steve Stockman                        Precinct 3C                                            01 
01050010013000083000022000057000004000000000000REP       United States Senator                                   Steve Stockman                        Precinct 3D                                            01 
01050010014000044000031000013000000000000000000REP       United States Senator                                   Steve Stockman                        Precinct 4A                                            01 
01050010015000049000005000039000005000000000000REP       United States Senator                                   Steve Stockman                        Precinct 4B                                            01 
01050010016000045000007000037000001000000000000REP       United States Senator                                   Steve Stockman                        Precinct 4C                                            01 
01050010017000096000010000079000007000000000000REP       United States Senator                                   Steve Stockman                        Precinct 4D                                            01 
01050010018000034000004000029000001000000000000REP       United States Senator                                   Steve Stockman                        Precinct 4E                                            01 
01050020001000010000004000004000002000000000000REP       United States Senator                                   Linda Vega                            Precinct 1A                                            01 
01050020002000028000005000020000003000000000000REP       United States Senator                                   Linda Vega                            Precinct 1B                                            01 
01050020003000009000004000004000001000000000000REP       United States Senator                                   Linda Vega                            Precinct 1C                                            01 
01050020004000014000003000011000000000000000000REP       United States Senator                                   Linda Vega                            Precinct 1D                                            01 
01050020005000003000002000001000000000000000000REP       United States Senator                                   Linda Vega                            Precinct 1E                                            01 
01050020006000025000017000008000000000000000000REP       United States Senator                                   Linda Vega                            Precinct 2A                                            01 
01050020007000009000003000006000000000000000000REP       United States Senator                                   Linda Vega                            Precinct 2B                                            01 
01050020008000014000003000009000002000000000000REP       United States Senator                                   Linda Vega                            Precinct 2C                                            01 
01050020009000015000010000005000000000000000000REP       United States Senator                                   Linda Vega                            Precinct 2D                                            01 
01050020010000003000000000003000000000000000000REP       United States Senator                                   Linda Vega                            Precinct 3A                                            01 
01050020011000005000001000003000001000000000000REP       United States Senator                                   Linda Vega                            Precinct 3B                                            01 
01050020012000017000002000010000005000000000000REP       United States Senator                                   Linda Vega                            Precinct 3C                                            01 
01050020013000016000004000011000001000000000000REP       United States Senator                                   Linda Vega                            Precinct 3D                                            01 
01050020014000006000004000002000000000000000000REP       United States Senator                                   Linda Vega                            Precinct 4A                                            01 
01050020015000004000001000003000000000000000000REP       United States Senator                                   Linda Vega                            Precinct 4B                                            01 
01050020016000010000003000006000001000000000000REP       United States Senator                                   Linda Vega                            Precinct 4C                                            01 
01050020017000015000003000012000000000000000000REP       United States Senator                                   Linda Vega                            Precinct 4D                                            01 
01050020018000006000005000001000000000000000000REP       United States Senator                                   Linda Vega                            Precinct 4E                                            01 
01050030001000181000080000067000034000000000000REP       United States Senator                                   John Cornyn                           Precinct 1A                                            01 
01050030002000283000070000174000039000000000000REP       United States Senator                                   John Cornyn                           Precinct 1B                                            01 
01050030003000161000043000094000024000000000000REP       United States Senator                                   John Cornyn                           Precinct 1C                                            01 
01050030004000134000031000082000021000000000000REP       United States Senator                                   John Cornyn                           Precinct 1D                                            01 
01050030005000072000016000044000012000000000000REP       United States Senator                                   John Cornyn                           Precinct 1E                                            01 
01050030006000461000249000152000060000000000000REP       United States Senator                                   John Cornyn                           Precinct 2A                                            01 
01050030007000152000059000067000026000000000000REP       United States Senator                                   John Cornyn                           Precinct 2B                                            01 
01050030008000231000055000147000028000001000000REP       United States Senator                                   John Cornyn                           Precinct 2C                                            01 
01050030009000197000076000090000031000000000000REP       United States Senator                                   John Cornyn                           Precinct 2D                                            01 
01050030010000099000059000031000009000000000000REP       United States Senator                                   John Cornyn                           Precinct 3A                                            01 
01050030011000100000026000062000012000000000000REP       United States Senator                                   John Cornyn                           Precinct 3B                                            01 
01050030012000230000046000139000045000000000000REP       United States Senator                                   John Cornyn                           Precinct 3C                                            01 
01050030013000223000082000112000029000000000000REP       United States Senator                                   John Cornyn                           Precinct 3D                                            01 
01050030014000158000101000045000012000000000000REP       United States Senator                                   John Cornyn                           Precinct 4A                                            01 
01050030015000177000030000119000028000000000000REP       United States Senator                                   John Cornyn                           Precinct 4B                                            01 
01050030016000158000030000109000019000000000000REP       United States Senator                                   John Cornyn                           Precinct 4C                                            01 
01050030017000293000052000183000058000000000000REP       United States Senator                                   John Cornyn                           Precinct 4D                                            01 
01050030018000105000049000045000011000000000000REP       United States Senator                                   John Cornyn                           Precinct 4E                                            01 
01050040001000002000002000000000000000000000000REP       United States Senator                                   Reid Reasor                           Precinct 1A                                            01 
01050040002000009000000000006000003000000000000REP       United States Senator                                   Reid Reasor                           Precinct 1B                                            01 
01050040003000005000000000005000000000000000000REP       United States Senator                                   Reid Reasor                           Precinct 1C                                            01 
01050040004000000000000000000000000000000000000REP       United States Senator                                   Reid Reasor                           Precinct 1D                                            01 
01050040005000001000000000001000000000000000000REP       United States Senator                                   Reid Reasor                           Precinct 1E                                            01 
01050040006000012000005000005000002000000000000REP       United States Senator                                   Reid Reasor                           Precinct 2A                                            01 
01050040007000002000002000000000000000000000000REP       United States Senator                                   Reid Reasor                           Precinct 2B                                            01 
01050040008000009000003000005000001000000000000REP       United States Senator                                   Reid Reasor                           Precinct 2C                                            01 
01050040009000005000004000001000000000000000000REP       United States Senator                                   Reid Reasor                           Precinct 2D                                            01 
01050040010000001000001000000000000000000000000REP       United States Senator                                   Reid Reasor                           Precinct 3A                                            01 
01050040011000002000000000002000000000000000000REP       United States Senator                                   Reid Reasor                           Precinct 3B                                            01 
01050040012000004000001000003000000000000000000REP       United States Senator                                   Reid Reasor                           Precinct 3C                                            01 
01050040013000006000004000002000000000000000000REP       United States Senator                                   Reid Reasor                           Precinct 3D                                            01 
01050040014000003000003000000000000000000000000REP       United States Senator                                   Reid Reasor                           Precinct 4A                                            01 
01050040015000006000000000005000001000000000000REP       United States Senator                                   Reid Reasor                           Precinct 4B                                            01 
01050040016000004000000000004000000000000000000REP       United States Senator                                   Reid Reasor                           Precinct 4C                                            01 
01050040017000012000001000009000002000000000000REP       United States Senator                                   Reid Reasor                           Precinct 4D                                            01 
01050040018000003000001000002000000000000000000REP       United States Senator                                   Reid Reasor                           Precinct 4E                                            01 
01050050001000051000028000019000004000000000000REP       United States Senator                                   Dwayne Stovall                        Precinct 1A                                            01 
01050050002000059000014000042000003000000000000REP       United States Senator                                   Dwayne Stovall                        Precinct 1B                                            01 
01050050003000038000012000025000001000000000000REP       United States Senator                                   Dwayne Stovall                        Precinct 1C                                            01 
01050050004000028000016000012000000000000000000REP       United States Senator                                   Dwayne Stovall                        Precinct 1D                                            01 
01050050005000008000002000006000000000000000000REP       United States Senator                                   Dwayne Stovall                        Precinct 1E                                            01 
01050050006000104000065000037000002000000000000REP       United States Senator                                   Dwayne Stovall                        Precinct 2A                                            01 
01050050007000043000021000020000002000000000000REP       United States Senator                                   Dwayne Stovall                        Precinct 2B                                            01 
01050050008000039000013000022000003000001000000REP       United States Senator                                   Dwayne Stovall                        Precinct 2C                                            01 
01050050009000046000020000021000005000000000000REP       United States Senator                                   Dwayne Stovall                        Precinct 2D                                            01 
01050050010000023000017000006000000000000000000REP       United States Senator                                   Dwayne Stovall                        Precinct 3A                                            01 
01050050011000024000006000016000002000000000000REP       United States Senator                                   Dwayne Stovall                        Precinct 3B                                            01 
01050050012000060000022000030000008000000000000REP       United States Senator                                   Dwayne Stovall                        Precinct 3C                                            01 
01050050013000051000022000029000000000000000000REP       United States Senator                                   Dwayne Stovall                        Precinct 3D                                            01 
01050050014000045000029000014000002000000000000REP       United States Senator                                   Dwayne Stovall                        Precinct 4A                                            01 
01050050015000054000005000046000003000000000000REP       United States Senator                                   Dwayne Stovall                        Precinct 4B                                            01 
01050050016000060000013000043000004000000000000REP       United States Senator                                   Dwayne Stovall                        Precinct 4C                                            01 
01050050017000176000046000118000012000000000000REP       United States Senator                                   Dwayne Stovall                        Precinct 4D                                            01 
01050050018000038000016000022000000000000000000REP       United States Senator                                   Dwayne Stovall                        Precinct 4E                                            01 
01050060001000010000005000005000000000000000000REP       United States Senator                                   Ken Cope                              Precinct 1A                                            01 
01050060002000009000002000006000001000000000000REP       United States Senator                                   Ken Cope                              Precinct 1B                                            01 
01050060003000009000001000008000000000000000000REP       United States Senator                                   Ken Cope                              Precinct 1C                                            01 
01050060004000002000000000002000000000000000000REP       United States Senator                                   Ken Cope                              Precinct 1D                                            01 
01050060005000002000000000002000000000000000000REP       United States Senator                                   Ken Cope                              Precinct 1E                                            01 
01050060006000019000008000011000000000000000000REP       United States Senator                                   Ken Cope                              Precinct 2A                                            01 
01050060007000006000002000003000001000000000000REP       United States Senator                                   Ken Cope                              Precinct 2B                                            01 
01050060008000019000005000014000000000000000000REP       United States Senator                                   Ken Cope                              Precinct 2C                                            01 
01050060009000000000000000000000000000000000000REP       United States Senator                                   Ken Cope                              Precinct 2D                                            01 
01050060010000006000003000003000000000000000000REP       United States Senator                                   Ken Cope                              Precinct 3A                                            01 
01050060011000001000000000001000000000000000000REP       United States Senator                                   Ken Cope                              Precinct 3B                                            01 
01050060012000007000000000004000003000000000000REP       United States Senator                                   Ken Cope                              Precinct 3C                                            01 
01050060013000007000004000003000000000000000000REP       United States Senator                                   Ken Cope                              Precinct 3D                                            01 
01050060014000005000002000002000001000000000000REP       United States Senator                                   Ken Cope                              Precinct 4A                                            01 
01050060015000007000004000002000001000000000000REP       United States Senator                                   Ken Cope                              Precinct 4B                                            01 
01050060016000003000001000002000000000000000000REP       United States Senator                                   Ken Cope                              Precinct 4C                                            01 
01050060017000010000004000005000001000000000000REP       United States Senator                                   Ken Cope                              Precinct 4D                                            01 
01050060018000003000000000003000000000000000000REP       United States Senator                                   Ken Cope                              Precinct 4E                                            01 
01050070001000006000002000004000000000000000000REP       United States Senator                                   Chris Mapp                            Precinct 1A                                            01 
01050070002000021000008000012000001000000000000REP       United States Senator                                   Chris Mapp                            Precinct 1B                                            01 
01050070003000004000000000004000000000000000000REP       United States Senator                                   Chris Mapp                            Precinct 1C                                            01 
01050070004000000000000000000000000000000000000REP       United States Senator                                   Chris Mapp                            Precinct 1D                                            01 
01050070005000000000000000000000000000000000000REP       United States Senator                                   Chris Mapp                            Precinct 1E                                            01 
01050070006000010000007000003000000000000000000REP       United States Senator                                   Chris Mapp                            Precinct 2A                                            01 
01050070007000000000000000000000000000000000000REP       United States Senator                                   Chris Mapp                            Precinct 2B                                            01 
01050070008000011000004000007000000000000000000REP       United States Senator                                   Chris Mapp                            Precinct 2C                                            01 
01050070009000008000003000005000000000000000000REP       United States Senator                                   Chris Mapp                            Precinct 2D                                            01 
01050070010000002000000000002000000000000000000REP       United States Senator                                   Chris Mapp                            Precinct 3A                                            01 
01050070011000000000000000000000000000000000000REP       United States Senator                                   Chris Mapp                            Precinct 3B                                            01 
01050070012000003000000000003000000000000000000REP       United States Senator                                   Chris Mapp                            Precinct 3C                                            01 
01050070013000004000002000000000002000000000000REP       United States Senator                                   Chris Mapp                            Precinct 3D                                            01 
01050070014000004000003000001000000000000000000REP       United States Senator                                   Chris Mapp                            Precinct 4A                                            01 
01050070015000003000000000001000002000000000000REP       United States Senator                                   Chris Mapp                            Precinct 4B                                            01 
01050070016000006000002000004000000000000000000REP       United States Senator                                   Chris Mapp                            Precinct 4C                                            01 
01050070017000008000000000006000002000000000000REP       United States Senator                                   Chris Mapp                            Precinct 4D                                            01 
01050070018000001000000000001000000000000000000REP       United States Senator                                   Chris Mapp                            Precinct 4E                                            01 
01050080001000003000002000001000000000000000000REP       United States Senator                                   Curt Cleaver                          Precinct 1A                                            01 
01050080002000001000000000001000000000000000000REP       United States Senator                                   Curt Cleaver                          Precinct 1B                                            01 
01050080003000000000000000000000000000000000000REP       United States Senator                                   Curt Cleaver                          Precinct 1C                                            01 
01050080004000002000000000002000000000000000000REP       United States Senator                                   Curt Cleaver                          Precinct 1D                                            01 
01050080005000002000000000002000000000000000000REP       United States Senator                                   Curt Cleaver                          Precinct 1E                                            01 
01050080006000005000002000001000002000000000000REP       United States Senator                                   Curt Cleaver                          Precinct 2A                                            01 
01050080007000003000000000003000000000000000000REP       United States Senator                                   Curt Cleaver                          Precinct 2B                                            01 
01050080008000005000000000005000000000000000000REP       United States Senator                                   Curt Cleaver                          Precinct 2C                                            01 
01050080009000001000000000001000000000000000000REP       United States Senator                                   Curt Cleaver                          Precinct 2D                                            01 
01050080010000003000001000002000000000000000000REP       United States Senator                                   Curt Cleaver                          Precinct 3A                                            01 
01050080011000002000000000002000000000000000000REP       United States Senator                                   Curt Cleaver                          Precinct 3B                                            01 
01050080012000002000000000002000000000000000000REP       United States Senator                                   Curt Cleaver                          Precinct 3C                                            01 
01050080013000001000000000001000000000000000000REP       United States Senator                                   Curt Cleaver                          Precinct 3D                                            01 
01050080014000001000001000000000000000000000000REP       United States Senator                                   Curt Cleaver                          Precinct 4A                                            01 
01050080015000004000000000004000000000000000000REP       United States Senator                                   Curt Cleaver                          Precinct 4B                                            01 
01050080016000005000001000004000000000000000000REP       United States Senator                                   Curt Cleaver                          Precinct 4C                                            01 
01050080017000006000001000004000001000000000000REP       United States Senator                                   Curt Cleaver                          Precinct 4D                                            01 
01050080018000001000001000000000000000000000000REP       United States Senator                                   Curt Cleaver                          Precinct 4E                                            01 
01050090001000001000001000000000000000000000000REP       United States Senator                                   OVER VOTES                            Precinct 1A                                            01 
01050090002000000000000000000000000000000000000REP       United States Senator                                   OVER VOTES                            Precinct 1B                                            01 
01050090003000000000000000000000000000000000000REP       United States Senator                                   OVER VOTES                            Precinct 1C                                            01 
01050090004000000000000000000000000000000000000REP       United States Senator                                   OVER VOTES                            Precinct 1D                                            01 
01050090005000000000000000000000000000000000000REP       United States Senator                                   OVER VOTES                            Precinct 1E                                            01 
01050090006000001000000000000000001000000000000REP       United States Senator                                   OVER VOTES                            Precinct 2A                                            01 
01050090007000000000000000000000000000000000000REP       United States Senator                                   OVER VOTES                            Precinct 2B                                            01 
01050090008000001000000000001000000000000000000REP       United States Senator                                   OVER VOTES                            Precinct 2C                                            01 
01050090009000000000000000000000000000000000000REP       United States Senator                                   OVER VOTES                            Precinct 2D                                            01 
01050090010000000000000000000000000000000000000REP       United States Senator                                   OVER VOTES                            Precinct 3A                                            01 
01050090011000000000000000000000000000000000000REP       United States Senator                                   OVER VOTES                            Precinct 3B                                            01 
01050090012000001000000000000000001000000000000REP       United States Senator                                   OVER VOTES                            Precinct 3C                                            01 
01050090013000000000000000000000000000000000000REP       United States Senator                                   OVER VOTES                            Precinct 3D                                            01 
01050090014000001000000000001000000000000000000REP       United States Senator                                   OVER VOTES                            Precinct 4A                                            01 
01050090015000000000000000000000000000000000000REP       United States Senator                                   OVER VOTES                            Precinct 4B                                            01 
01050090016000000000000000000000000000000000000REP       United States Senator                                   OVER VOTES                            Precinct 4C                                            01 
01050090017000001000000000000000001000000000000REP       United States Senator                                   OVER VOTES                            Precinct 4D                                            01 
01050090018000000000000000000000000000000000000REP       United States Senator                                   OVER VOTES                            Precinct 4E                                            01 
01050100001000034000014000017000003000000000000REP       United States Senator                                   UNDER VOTES                           Precinct 1A                                            01 
01050100002000068000009000057000002000000000000REP       United States Senator                                   UNDER VOTES                           Precinct 1B                                            01 
01050100003000013000004000009000000000000000000REP       United States Senator                                   UNDER VOTES                           Precinct 1C                                            01 
01050100004000024000010000014000000000000000000REP       United States Senator                                   UNDER VOTES                           Precinct 1D                                            01 
01050100005000006000002000004000000000000000000REP       United States Senator                                   UNDER VOTES                           Precinct 1E                                            01 
01050100006000062000028000034000000000000000000REP       United States Senator                                   UNDER VOTES                           Precinct 2A                                            01 
01050100007000028000008000019000001000000000000REP       United States Senator                                   UNDER VOTES                           Precinct 2B                                            01 
01050100008000034000011000023000000000000000000REP       United States Senator                                   UNDER VOTES                           Precinct 2C                                            01 
01050100009000023000011000009000003000000000000REP       United States Senator                                   UNDER VOTES                           Precinct 2D                                            01 
01050100010000019000013000005000001000000000000REP       United States Senator                                   UNDER VOTES                           Precinct 3A                                            01 
01050100011000014000004000010000000000000000000REP       United States Senator                                   UNDER VOTES                           Precinct 3B                                            01 
01050100012000028000005000021000002000000000000REP       United States Senator                                   UNDER VOTES                           Precinct 3C                                            01 
01050100013000028000008000019000001000000000000REP       United States Senator                                   UNDER VOTES                           Precinct 3D                                            01 
01050100014000024000016000008000000000000000000REP       United States Senator                                   UNDER VOTES                           Precinct 4A                                            01 
01050100015000017000002000012000003000000000000REP       United States Senator                                   UNDER VOTES                           Precinct 4B                                            01 
01050100016000012000000000012000000000000000000REP       United States Senator                                   UNDER VOTES                           Precinct 4C                                            01 
01050100017000032000004000028000000000000000000REP       United States Senator                                   UNDER VOTES                           Precinct 4D                                            01 
01050100018000010000002000007000001000000000000REP       United States Senator                                   UNDER VOTES                           Precinct 4E                                            01 
01060010001000236000114000086000036000000000000REP       United States Representative, District 5                Jeb Hensarling                        Precinct 1A                                            01 
01060010002000395000089000263000043000000000000REP       United States Representative, District 5                Jeb Hensarling                        Precinct 1B                                            01 
01060010003000206000048000137000021000000000000REP       United States Representative, District 5                Jeb Hensarling                        Precinct 1C                                            01 
01060010004000166000047000098000021000000000000REP       United States Representative, District 5                Jeb Hensarling                        Precinct 1D                                            01 
01060010005000083000019000049000015000000000000REP       United States Representative, District 5                Jeb Hensarling                        Precinct 1E                                            01 
01060010006000572000311000201000060000000000000REP       United States Representative, District 5                Jeb Hensarling                        Precinct 2A                                            01 
01060010007000217000080000111000026000000000000REP       United States Representative, District 5                Jeb Hensarling                        Precinct 2B                                            01 
01060010008000325000066000223000034000002000000REP       United States Representative, District 5                Jeb Hensarling                        Precinct 2C                                            01 
01060010009000241000106000101000034000000000000REP       United States Representative, District 5                Jeb Hensarling                        Precinct 2D                                            01 
01060010010000132000081000044000007000000000000REP       United States Representative, District 5                Jeb Hensarling                        Precinct 3A                                            01 
01060010011000118000026000079000013000000000000REP       United States Representative, District 5                Jeb Hensarling                        Precinct 3B                                            01 
01060010012000325000063000208000054000000000000REP       United States Representative, District 5                Jeb Hensarling                        Precinct 3C                                            01 
01060010013000294000104000160000030000000000000REP       United States Representative, District 5                Jeb Hensarling                        Precinct 3D                                            01 
01060010014000205000141000052000012000000000000REP       United States Representative, District 5                Jeb Hensarling                        Precinct 4A                                            01 
01060010015000252000037000178000037000000000000REP       United States Representative, District 5                Jeb Hensarling                        Precinct 4B                                            01 
01060010016000199000040000144000015000000000000REP       United States Representative, District 5                Jeb Hensarling                        Precinct 4C                                            01 
01060010017000477000093000310000074000000000000REP       United States Representative, District 5                Jeb Hensarling                        Precinct 4D                                            01 
01060010018000148000056000084000008000000000000REP       United States Representative, District 5                Jeb Hensarling                        Precinct 4E                                            01 
01060020001000000000000000000000000000000000000REP       United States Representative, District 5                OVER VOTES                            Precinct 1A                                            01 
01060020002000000000000000000000000000000000000REP       United States Representative, District 5                OVER VOTES                            Precinct 1B                                            01 
01060020003000000000000000000000000000000000000REP       United States Representative, District 5                OVER VOTES                            Precinct 1C                                            01 
01060020004000000000000000000000000000000000000REP       United States Representative, District 5                OVER VOTES                            Precinct 1D                                            01 
01060020005000000000000000000000000000000000000REP       United States Representative, District 5                OVER VOTES                            Precinct 1E                                            01 
01060020006000000000000000000000000000000000000REP       United States Representative, District 5                OVER VOTES                            Precinct 2A                                            01 
01060020007000000000000000000000000000000000000REP       United States Representative, District 5                OVER VOTES                            Precinct 2B                                            01 
01060020008000000000000000000000000000000000000REP       United States Representative, District 5                OVER VOTES                            Precinct 2C                                            01 
01060020009000000000000000000000000000000000000REP       United States Representative, District 5                OVER VOTES                            Precinct 2D                                            01 
01060020010000000000000000000000000000000000000REP       United States Representative, District 5                OVER VOTES                            Precinct 3A                                            01 
01060020011000000000000000000000000000000000000REP       United States Representative, District 5                OVER VOTES                            Precinct 3B                                            01 
01060020012000000000000000000000000000000000000REP       United States Representative, District 5                OVER VOTES                            Precinct 3C                                            01 
01060020013000000000000000000000000000000000000REP       United States Representative, District 5                OVER VOTES                            Precinct 3D                                            01 
01060020014000000000000000000000000000000000000REP       United States Representative, District 5                OVER VOTES                            Precinct 4A                                            01 
01060020015000000000000000000000000000000000000REP       United States Representative, District 5                OVER VOTES                            Precinct 4B                                            01 
01060020016000000000000000000000000000000000000REP       United States Representative, District 5                OVER VOTES                            Precinct 4C                                            01 
01060020017000000000000000000000000000000000000REP       United States Representative, District 5                OVER VOTES                            Precinct 4D                                            01 
01060020018000000000000000000000000000000000000REP       United States Representative, District 5                OVER VOTES                            Precinct 4E                                            01 
01060030001000103000044000046000013000000000000REP       United States Representative, District 5                UNDER VOTES                           Precinct 1A                                            01 
01060030002000193000044000134000015000000000000REP       United States Representative, District 5                UNDER VOTES                           Precinct 1B                                            01 
01060030003000089000024000059000006000000000000REP       United States Representative, District 5                UNDER VOTES                           Precinct 1C                                            01 
01060030004000078000023000052000003000000000000REP       United States Representative, District 5                UNDER VOTES                           Precinct 1D                                            01 
01060030005000035000008000024000003000000000000REP       United States Representative, District 5                UNDER VOTES                           Precinct 1E                                            01 
01060030006000228000121000093000014000000000000REP       United States Representative, District 5                UNDER VOTES                           Precinct 2A                                            01 
01060030007000092000036000050000006000000000000REP       United States Representative, District 5                UNDER VOTES                           Precinct 2B                                            01 
01060030008000136000048000079000009000000000000REP       United States Representative, District 5                UNDER VOTES                           Precinct 2C                                            01 
01060030009000118000050000060000008000000000000REP       United States Representative, District 5                UNDER VOTES                           Precinct 2D                                            01 
01060030010000047000028000016000003000000000000REP       United States Representative, District 5                UNDER VOTES                           Precinct 3A                                            01 
01060030011000055000017000035000003000000000000REP       United States Representative, District 5                UNDER VOTES                           Precinct 3B                                            01 
01060030012000124000028000078000018000000000000REP       United States Representative, District 5                UNDER VOTES                           Precinct 3C                                            01 
01060030013000125000044000074000007000000000000REP       United States Representative, District 5                UNDER VOTES                           Precinct 3D                                            01 
01060030014000086000049000034000003000000000000REP       United States Representative, District 5                UNDER VOTES                           Precinct 4A                                            01 
01060030015000069000010000053000006000000000000REP       United States Representative, District 5                UNDER VOTES                           Precinct 4B                                            01 
01060030016000104000017000077000010000000000000REP       United States Representative, District 5                UNDER VOTES                           Precinct 4C                                            01 
01060030017000171000028000134000009000000000000REP       United States Representative, District 5                UNDER VOTES                           Precinct 4D                                            01 
01060030018000053000022000026000005000000000000REP       United States Representative, District 5                UNDER VOTES                           Precinct 4E                                            01 
01070010001000296000143000106000047000000000000REP       Governor                                                Greg Abbott                           Precinct 1A                                            01 
01070010002000497000120000325000052000000000000REP       Governor                                                Greg Abbott                           Precinct 1B                                            01 
01070010003000277000067000183000027000000000000REP       Governor                                                Greg Abbott                           Precinct 1C                                            01 
01070010004000216000061000131000024000000000000REP       Governor                                                Greg Abbott                           Precinct 1D                                            01 
01070010005000111000024000068000019000000000000REP       Governor                                                Greg Abbott                           Precinct 1E                                            01 
01070010006000709000394000244000071000000000000REP       Governor                                                Greg Abbott                           Precinct 2A                                            01 
01070010007000277000110000140000027000000000000REP       Governor                                                Greg Abbott                           Precinct 2B                                            01 
01070010008000421000105000273000041000002000000REP       Governor                                                Greg Abbott                           Precinct 2C                                            01 
01070010009000330000140000148000042000000000000REP       Governor                                                Greg Abbott                           Precinct 2D                                            01 
01070010010000163000099000055000009000000000000REP       Governor                                                Greg Abbott                           Precinct 3A                                            01 
01070010011000157000039000102000016000000000000REP       Governor                                                Greg Abbott                           Precinct 3B                                            01 
01070010012000409000087000255000067000000000000REP       Governor                                                Greg Abbott                           Precinct 3C                                            01 
01070010013000385000136000214000035000000000000REP       Governor                                                Greg Abbott                           Precinct 3D                                            01 
01070010014000266000176000075000015000000000000REP       Governor                                                Greg Abbott                           Precinct 4A                                            01 
01070010015000296000046000212000038000000000000REP       Governor                                                Greg Abbott                           Precinct 4B                                            01 
01070010016000272000054000195000023000000000000REP       Governor                                                Greg Abbott                           Precinct 4C                                            01 
01070010017000586000117000387000082000000000000REP       Governor                                                Greg Abbott                           Precinct 4D                                            01 
01070010018000185000069000104000012000000000000REP       Governor                                                Greg Abbott                           Precinct 4E                                            01 
01070020001000011000004000005000002000000000000REP       Governor                                                Miriam Martinez                       Precinct 1A                                            01 
01070020002000017000000000014000003000000000000REP       Governor                                                Miriam Martinez                       Precinct 1B                                            01 
01070020003000005000001000004000000000000000000REP       Governor                                                Miriam Martinez                       Precinct 1C                                            01 
01070020004000009000001000008000000000000000000REP       Governor                                                Miriam Martinez                       Precinct 1D                                            01 
01070020005000000000000000000000000000000000000REP       Governor                                                Miriam Martinez                       Precinct 1E                                            01 
01070020006000018000004000014000000000000000000REP       Governor                                                Miriam Martinez                       Precinct 2A                                            01 
01070020007000010000004000004000002000000000000REP       Governor                                                Miriam Martinez                       Precinct 2B                                            01 
01070020008000007000003000003000001000000000000REP       Governor                                                Miriam Martinez                       Precinct 2C                                            01 
01070020009000005000002000003000000000000000000REP       Governor                                                Miriam Martinez                       Precinct 2D                                            01 
01070020010000003000001000002000000000000000000REP       Governor                                                Miriam Martinez                       Precinct 3A                                            01 
01070020011000001000000000001000000000000000000REP       Governor                                                Miriam Martinez                       Precinct 3B                                            01 
01070020012000011000000000009000002000000000000REP       Governor                                                Miriam Martinez                       Precinct 3C                                            01 
01070020013000004000000000004000000000000000000REP       Governor                                                Miriam Martinez                       Precinct 3D                                            01 
01070020014000003000000000003000000000000000000REP       Governor                                                Miriam Martinez                       Precinct 4A                                            01 
01070020015000003000000000003000000000000000000REP       Governor                                                Miriam Martinez                       Precinct 4B                                            01 
01070020016000007000001000005000001000000000000REP       Governor                                                Miriam Martinez                       Precinct 4C                                            01 
01070020017000017000000000017000000000000000000REP       Governor                                                Miriam Martinez                       Precinct 4D                                            01 
01070020018000006000005000001000000000000000000REP       Governor                                                Miriam Martinez                       Precinct 4E                                            01 
01070030001000001000000000001000000000000000000REP       Governor                                                SECEDE Kilgore                        Precinct 1A                                            01 
01070030002000006000001000004000001000000000000REP       Governor                                                SECEDE Kilgore                        Precinct 1B                                            01 
01070030003000001000001000000000000000000000000REP       Governor                                                SECEDE Kilgore                        Precinct 1C                                            01 
01070030004000000000000000000000000000000000000REP       Governor                                                SECEDE Kilgore                        Precinct 1D                                            01 
01070030005000004000002000002000000000000000000REP       Governor                                                SECEDE Kilgore                        Precinct 1E                                            01 
01070030006000008000004000004000000000000000000REP       Governor                                                SECEDE Kilgore                        Precinct 2A                                            01 
01070030007000003000000000003000000000000000000REP       Governor                                                SECEDE Kilgore                        Precinct 2B                                            01 
01070030008000005000000000004000001000000000000REP       Governor                                                SECEDE Kilgore                        Precinct 2C                                            01 
01070030009000003000003000000000000000000000000REP       Governor                                                SECEDE Kilgore                        Precinct 2D                                            01 
01070030010000003000001000002000000000000000000REP       Governor                                                SECEDE Kilgore                        Precinct 3A                                            01 
01070030011000003000001000002000000000000000000REP       Governor                                                SECEDE Kilgore                        Precinct 3B                                            01 
01070030012000002000001000001000000000000000000REP       Governor                                                SECEDE Kilgore                        Precinct 3C                                            01 
01070030013000000000000000000000000000000000000REP       Governor                                                SECEDE Kilgore                        Precinct 3D                                            01 
01070030014000002000001000001000000000000000000REP       Governor                                                SECEDE Kilgore                        Precinct 4A                                            01 
01070030015000002000000000002000000000000000000REP       Governor                                                SECEDE Kilgore                        Precinct 4B                                            01 
01070030016000004000001000003000000000000000000REP       Governor                                                SECEDE Kilgore                        Precinct 4C                                            01 
01070030017000011000000000010000001000000000000REP       Governor                                                SECEDE Kilgore                        Precinct 4D                                            01 
01070030018000001000000000001000000000000000000REP       Governor                                                SECEDE Kilgore                        Precinct 4E                                            01 
01070040001000015000005000010000000000000000000REP       Governor                                                Lisa Fritsch                          Precinct 1A                                            01 
01070040002000024000004000018000002000000000000REP       Governor                                                Lisa Fritsch                          Precinct 1B                                            01 
01070040003000006000003000003000000000000000000REP       Governor                                                Lisa Fritsch                          Precinct 1C                                            01 
01070040004000005000002000003000000000000000000REP       Governor                                                Lisa Fritsch                          Precinct 1D                                            01 
01070040005000002000000000002000000000000000000REP       Governor                                                Lisa Fritsch                          Precinct 1E                                            01 
01070040006000030000013000014000003000000000000REP       Governor                                                Lisa Fritsch                          Precinct 2A                                            01 
01070040007000009000001000006000002000000000000REP       Governor                                                Lisa Fritsch                          Precinct 2B                                            01 
01070040008000013000004000009000000000000000000REP       Governor                                                Lisa Fritsch                          Precinct 2C                                            01 
01070040009000011000007000004000000000000000000REP       Governor                                                Lisa Fritsch                          Precinct 2D                                            01 
01070040010000003000003000000000000000000000000REP       Governor                                                Lisa Fritsch                          Precinct 3A                                            01 
01070040011000004000000000004000000000000000000REP       Governor                                                Lisa Fritsch                          Precinct 3B                                            01 
01070040012000012000002000008000002000000000000REP       Governor                                                Lisa Fritsch                          Precinct 3C                                            01 
01070040013000018000008000008000002000000000000REP       Governor                                                Lisa Fritsch                          Precinct 3D                                            01 
01070040014000008000005000003000000000000000000REP       Governor                                                Lisa Fritsch                          Precinct 4A                                            01 
01070040015000007000000000005000002000000000000REP       Governor                                                Lisa Fritsch                          Precinct 4B                                            01 
01070040016000010000001000008000001000000000000REP       Governor                                                Lisa Fritsch                          Precinct 4C                                            01 
01070040017000019000002000016000001000000000000REP       Governor                                                Lisa Fritsch                          Precinct 4D                                            01 
01070040018000005000003000002000000000000000000REP       Governor                                                Lisa Fritsch                          Precinct 4E                                            01 
01070050001000000000000000000000000000000000000REP       Governor                                                OVER VOTES                            Precinct 1A                                            01 
01070050002000000000000000000000000000000000000REP       Governor                                                OVER VOTES                            Precinct 1B                                            01 
01070050003000000000000000000000000000000000000REP       Governor                                                OVER VOTES                            Precinct 1C                                            01 
01070050004000000000000000000000000000000000000REP       Governor                                                OVER VOTES                            Precinct 1D                                            01 
01070050005000000000000000000000000000000000000REP       Governor                                                OVER VOTES                            Precinct 1E                                            01 
01070050006000000000000000000000000000000000000REP       Governor                                                OVER VOTES                            Precinct 2A                                            01 
01070050007000000000000000000000000000000000000REP       Governor                                                OVER VOTES                            Precinct 2B                                            01 
01070050008000000000000000000000000000000000000REP       Governor                                                OVER VOTES                            Precinct 2C                                            01 
01070050009000000000000000000000000000000000000REP       Governor                                                OVER VOTES                            Precinct 2D                                            01 
01070050010000000000000000000000000000000000000REP       Governor                                                OVER VOTES                            Precinct 3A                                            01 
01070050011000000000000000000000000000000000000REP       Governor                                                OVER VOTES                            Precinct 3B                                            01 
01070050012000001000000000001000000000000000000REP       Governor                                                OVER VOTES                            Precinct 3C                                            01 
01070050013000000000000000000000000000000000000REP       Governor                                                OVER VOTES                            Precinct 3D                                            01 
01070050014000000000000000000000000000000000000REP       Governor                                                OVER VOTES                            Precinct 4A                                            01 
01070050015000000000000000000000000000000000000REP       Governor                                                OVER VOTES                            Precinct 4B                                            01 
01070050016000001000000000001000000000000000000REP       Governor                                                OVER VOTES                            Precinct 4C                                            01 
01070050017000000000000000000000000000000000000REP       Governor                                                OVER VOTES                            Precinct 4D                                            01 
01070050018000000000000000000000000000000000000REP       Governor                                                OVER VOTES                            Precinct 4E                                            01 
01070060001000016000006000010000000000000000000REP       Governor                                                UNDER VOTES                           Precinct 1A                                            01 
01070060002000044000008000036000000000000000000REP       Governor                                                UNDER VOTES                           Precinct 1B                                            01 
01070060003000006000000000006000000000000000000REP       Governor                                                UNDER VOTES                           Precinct 1C                                            01 
01070060004000014000006000008000000000000000000REP       Governor                                                UNDER VOTES                           Precinct 1D                                            01 
01070060005000002000001000001000000000000000000REP       Governor                                                UNDER VOTES                           Precinct 1E                                            01 
01070060006000035000017000018000000000000000000REP       Governor                                                UNDER VOTES                           Precinct 2A                                            01 
01070060007000010000001000008000001000000000000REP       Governor                                                UNDER VOTES                           Precinct 2B                                            01 
01070060008000015000002000013000000000000000000REP       Governor                                                UNDER VOTES                           Precinct 2C                                            01 
01070060009000010000004000006000000000000000000REP       Governor                                                UNDER VOTES                           Precinct 2D                                            01 
01070060010000007000005000001000001000000000000REP       Governor                                                UNDER VOTES                           Precinct 3A                                            01 
01070060011000008000003000005000000000000000000REP       Governor                                                UNDER VOTES                           Precinct 3B                                            01 
01070060012000014000001000012000001000000000000REP       Governor                                                UNDER VOTES                           Precinct 3C                                            01 
01070060013000012000004000008000000000000000000REP       Governor                                                UNDER VOTES                           Precinct 3D                                            01 
01070060014000012000008000004000000000000000000REP       Governor                                                UNDER VOTES                           Precinct 4A                                            01 
01070060015000013000001000009000003000000000000REP       Governor                                                UNDER VOTES                           Precinct 4B                                            01 
01070060016000009000000000009000000000000000000REP       Governor                                                UNDER VOTES                           Precinct 4C                                            01 
01070060017000016000002000014000000000000000000REP       Governor                                                UNDER VOTES                           Precinct 4D                                            01 
01070060018000004000001000002000001000000000000REP       Governor                                                UNDER VOTES                           Precinct 4E                                            01 
01080010001000110000057000042000011000000000000REP       Lieutenant Governor                                     Todd Staples                          Precinct 1A                                            01 
01080010002000188000045000125000018000000000000REP       Lieutenant Governor                                     Todd Staples                          Precinct 1B                                            01 
01080010003000092000021000067000004000000000000REP       Lieutenant Governor                                     Todd Staples                          Precinct 1C                                            01 
01080010004000068000020000045000003000000000000REP       Lieutenant Governor                                     Todd Staples                          Precinct 1D                                            01 
01080010005000029000006000016000007000000000000REP       Lieutenant Governor                                     Todd Staples                          Precinct 1E                                            01 
01080010006000212000116000075000021000000000000REP       Lieutenant Governor                                     Todd Staples                          Precinct 2A                                            01 
01080010007000095000035000050000010000000000000REP       Lieutenant Governor                                     Todd Staples                          Precinct 2B                                            01 
01080010008000149000046000093000010000000000000REP       Lieutenant Governor                                     Todd Staples                          Precinct 2C                                            01 
01080010009000111000053000051000007000000000000REP       Lieutenant Governor                                     Todd Staples                          Precinct 2D                                            01 
01080010010000052000028000022000002000000000000REP       Lieutenant Governor                                     Todd Staples                          Precinct 3A                                            01 
01080010011000038000007000029000002000000000000REP       Lieutenant Governor                                     Todd Staples                          Precinct 3B                                            01 
01080010012000089000016000059000014000000000000REP       Lieutenant Governor                                     Todd Staples                          Precinct 3C                                            01 
01080010013000107000045000056000006000000000000REP       Lieutenant Governor                                     Todd Staples                          Precinct 3D                                            01 
01080010014000084000053000025000006000000000000REP       Lieutenant Governor                                     Todd Staples                          Precinct 4A                                            01 
01080010015000096000016000065000015000000000000REP       Lieutenant Governor                                     Todd Staples                          Precinct 4B                                            01 
01080010016000095000026000063000006000000000000REP       Lieutenant Governor                                     Todd Staples                          Precinct 4C                                            01 
01080010017000192000026000144000022000000000000REP       Lieutenant Governor                                     Todd Staples                          Precinct 4D                                            01 
01080010018000064000027000036000001000000000000REP       Lieutenant Governor                                     Todd Staples                          Precinct 4E                                            01 
01080020001000125000057000045000023000000000000REP       Lieutenant Governor                                     Dan Patrick                           Precinct 1A                                            01 
01080020002000211000052000134000025000000000000REP       Lieutenant Governor                                     Dan Patrick                           Precinct 1B                                            01 
01080020003000108000021000077000010000000000000REP       Lieutenant Governor                                     Dan Patrick                           Precinct 1C                                            01 
01080020004000091000018000060000013000000000000REP       Lieutenant Governor                                     Dan Patrick                           Precinct 1D                                            01 
01080020005000054000012000030000012000000000000REP       Lieutenant Governor                                     Dan Patrick                           Precinct 1E                                            01 
01080020006000329000187000113000029000000000000REP       Lieutenant Governor                                     Dan Patrick                           Precinct 2A                                            01 
01080020007000122000050000062000010000000000000REP       Lieutenant Governor                                     Dan Patrick                           Precinct 2B                                            01 
01080020008000189000046000119000023000001000000REP       Lieutenant Governor                                     Dan Patrick                           Precinct 2C                                            01 
01080020009000143000063000057000023000000000000REP       Lieutenant Governor                                     Dan Patrick                           Precinct 2D                                            01 
01080020010000076000049000024000003000000000000REP       Lieutenant Governor                                     Dan Patrick                           Precinct 3A                                            01 
01080020011000072000022000040000010000000000000REP       Lieutenant Governor                                     Dan Patrick                           Precinct 3B                                            01 
01080020012000210000056000115000039000000000000REP       Lieutenant Governor                                     Dan Patrick                           Precinct 3C                                            01 
01080020013000184000064000096000024000000000000REP       Lieutenant Governor                                     Dan Patrick                           Precinct 3D                                            01 
01080020014000109000076000028000005000000000000REP       Lieutenant Governor                                     Dan Patrick                           Precinct 4A                                            01 
01080020015000137000009000110000018000000000000REP       Lieutenant Governor                                     Dan Patrick                           Precinct 4B                                            01 
01080020016000136000023000098000015000000000000REP       Lieutenant Governor                                     Dan Patrick                           Precinct 4C                                            01 
01080020017000297000069000188000040000000000000REP       Lieutenant Governor                                     Dan Patrick                           Precinct 4D                                            01 
01080020018000083000031000045000007000000000000REP       Lieutenant Governor                                     Dan Patrick                           Precinct 4E                                            01 
01080030001000016000007000008000001000000000000REP       Lieutenant Governor                                     Jerry Patterson                       Precinct 1A                                            01 
01080030002000034000007000023000004000000000000REP       Lieutenant Governor                                     Jerry Patterson                       Precinct 1B                                            01 
01080030003000018000006000012000000000000000000REP       Lieutenant Governor                                     Jerry Patterson                       Precinct 1C                                            01 
01080030004000018000010000008000000000000000000REP       Lieutenant Governor                                     Jerry Patterson                       Precinct 1D                                            01 
01080030005000010000002000008000000000000000000REP       Lieutenant Governor                                     Jerry Patterson                       Precinct 1E                                            01 
01080030006000051000023000022000006000000000000REP       Lieutenant Governor                                     Jerry Patterson                       Precinct 2A                                            01 
01080030007000027000011000013000003000000000000REP       Lieutenant Governor                                     Jerry Patterson                       Precinct 2B                                            01 
01080030008000035000004000031000000000000000000REP       Lieutenant Governor                                     Jerry Patterson                       Precinct 2C                                            01 
01080030009000016000009000006000001000000000000REP       Lieutenant Governor                                     Jerry Patterson                       Precinct 2D                                            01 
01080030010000007000004000003000000000000000000REP       Lieutenant Governor                                     Jerry Patterson                       Precinct 3A                                            01 
01080030011000011000001000010000000000000000000REP       Lieutenant Governor                                     Jerry Patterson                       Precinct 3B                                            01 
01080030012000036000008000025000003000000000000REP       Lieutenant Governor                                     Jerry Patterson                       Precinct 3C                                            01 
01080030013000033000010000022000001000000000000REP       Lieutenant Governor                                     Jerry Patterson                       Precinct 3D                                            01 
01080030014000011000008000003000000000000000000REP       Lieutenant Governor                                     Jerry Patterson                       Precinct 4A                                            01 
01080030015000016000009000007000000000000000000REP       Lieutenant Governor                                     Jerry Patterson                       Precinct 4B                                            01 
01080030016000016000001000014000001000000000000REP       Lieutenant Governor                                     Jerry Patterson                       Precinct 4C                                            01 
01080030017000044000006000035000003000000000000REP       Lieutenant Governor                                     Jerry Patterson                       Precinct 4D                                            01 
01080030018000014000006000008000000000000000000REP       Lieutenant Governor                                     Jerry Patterson                       Precinct 4E                                            01 
01080040001000062000026000023000013000000000000REP       Lieutenant Governor                                     David Dewhurst                        Precinct 1A                                            01 
01080040002000116000025000082000009000000000000REP       Lieutenant Governor                                     David Dewhurst                        Precinct 1B                                            01 
01080040003000067000023000031000013000000000000REP       Lieutenant Governor                                     David Dewhurst                        Precinct 1C                                            01 
01080040004000052000017000027000008000000000000REP       Lieutenant Governor                                     David Dewhurst                        Precinct 1D                                            01 
01080040005000023000006000017000000000000000000REP       Lieutenant Governor                                     David Dewhurst                        Precinct 1E                                            01 
