01360010001000000DEM       United States Senator VICTORIA COUNTY                   Michael "Fjet" Fjetland               PRECINCT 1                                             01 
01360010002000000DEM       United States Senator VICTORIA COUNTY                   Michael "Fjet" Fjetland               PRECINCT 2                                             01 
01360010003000001DEM       United States Senator VICTORIA COUNTY                   Michael "Fjet" Fjetland               PRECINCT 3                                             01 
01360010004000002DEM       United States Senator VICTORIA COUNTY                   Michael "Fjet" Fjetland               PRECINCT 4                                             01 
01360010005000007DEM       United States Senator VICTORIA COUNTY                   Michael "Fjet" Fjetland               PRECINCT 5                                             01 
01360010006000001DEM       United States Senator VICTORIA COUNTY                   Michael "Fjet" Fjetland               PRECINCT 6                                             01 
01360010007000007DEM       United States Senator VICTORIA COUNTY                   Michael "Fjet" Fjetland               PRECINCT 7                                             01 
01360010008000003DEM       United States Senator VICTORIA COUNTY                   Michael "Fjet" Fjetland               PRECINCT 8                                             01 
01360010009000000DEM       United States Senator VICTORIA COUNTY                   Michael "Fjet" Fjetland               PRECINCT 9                                             01 
01360010010000003DEM       United States Senator VICTORIA COUNTY                   Michael "Fjet" Fjetland               PRECINCT 10                                            01 
01360010011000001DEM       United States Senator VICTORIA COUNTY                   Michael "Fjet" Fjetland               PRECINCT 11                                            01 
01360010012000006DEM       United States Senator VICTORIA COUNTY                   Michael "Fjet" Fjetland               PRECINCT 12                                            01 
01360010013000010DEM       United States Senator VICTORIA COUNTY                   Michael "Fjet" Fjetland               PRECINCT 13                                            01 
01360010014000004DEM       United States Senator VICTORIA COUNTY                   Michael "Fjet" Fjetland               PRECINCT 14                                            01 
01360010015000000DEM       United States Senator VICTORIA COUNTY                   Michael "Fjet" Fjetland               PRECINCT 15                                            01 
01360010016000000DEM       United States Senator VICTORIA COUNTY                   Michael "Fjet" Fjetland               PRECINCT 16                                            01 
01360010017000001DEM       United States Senator VICTORIA COUNTY                   Michael "Fjet" Fjetland               PRECINCT 17                                            01 
01360010018000003DEM       United States Senator VICTORIA COUNTY                   Michael "Fjet" Fjetland               PRECINCT 18                                            01 
01360010019000004DEM       United States Senator VICTORIA COUNTY                   Michael "Fjet" Fjetland               PRECINCT 19                                            01 
01360010020000002DEM       United States Senator VICTORIA COUNTY                   Michael "Fjet" Fjetland               PRECINCT 20                                            01 
01360010021000004DEM       United States Senator VICTORIA COUNTY                   Michael "Fjet" Fjetland               PRECINCT 21                                            01 
01360010022000001DEM       United States Senator VICTORIA COUNTY                   Michael "Fjet" Fjetland               PRECINCT 22                                            01 
01360010023000000DEM       United States Senator VICTORIA COUNTY                   Michael "Fjet" Fjetland               PRECINCT 23                                            01 
01360010024000001DEM       United States Senator VICTORIA COUNTY                   Michael "Fjet" Fjetland               PRECINCT 24                                            01 
01360010025000006DEM       United States Senator VICTORIA COUNTY                   Michael "Fjet" Fjetland               PRECINCT 25                                            01 
01360010026000000DEM       United States Senator VICTORIA COUNTY                   Michael "Fjet" Fjetland               PRECINCT 26                                            01 
01360010027000001DEM       United States Senator VICTORIA COUNTY                   Michael "Fjet" Fjetland               PRECINCT 27                                            01 
01360010028000000DEM       United States Senator VICTORIA COUNTY                   Michael "Fjet" Fjetland               PRECINCT 28                                            01 
01360010029000002DEM       United States Senator VICTORIA COUNTY                   Michael "Fjet" Fjetland               PRECINCT 29                                            01 
01360010030000001DEM       United States Senator VICTORIA COUNTY                   Michael "Fjet" Fjetland               PRECINCT 30                                            01 
01360010031000002DEM       United States Senator VICTORIA COUNTY                   Michael "Fjet" Fjetland               PRECINCT 31                                            01 
01360010032000003DEM       United States Senator VICTORIA COUNTY                   Michael "Fjet" Fjetland               PRECINCT 32                                            01 
01360010033000006DEM       United States Senator VICTORIA COUNTY                   Michael "Fjet" Fjetland               PRECINCT 33                                            01 
01360010034000003DEM       United States Senator VICTORIA COUNTY                   Michael "Fjet" Fjetland               PRECINCT 34                                            01 
01360010035000001DEM       United States Senator VICTORIA COUNTY                   Michael "Fjet" Fjetland               PRECINCT 35                                            01 
01360020001000001DEM       United States Senator VICTORIA COUNTY                   Harry Kim                             PRECINCT 1                                             01 
01360020002000000DEM       United States Senator VICTORIA COUNTY                   Harry Kim                             PRECINCT 2                                             01 
01360020003000004DEM       United States Senator VICTORIA COUNTY                   Harry Kim                             PRECINCT 3                                             01 
01360020004000004DEM       United States Senator VICTORIA COUNTY                   Harry Kim                             PRECINCT 4                                             01 
01360020005000005DEM       United States Senator VICTORIA COUNTY                   Harry Kim                             PRECINCT 5                                             01 
01360020006000000DEM       United States Senator VICTORIA COUNTY                   Harry Kim                             PRECINCT 6                                             01 
01360020007000007DEM       United States Senator VICTORIA COUNTY                   Harry Kim                             PRECINCT 7                                             01 
01360020008000001DEM       United States Senator VICTORIA COUNTY                   Harry Kim                             PRECINCT 8                                             01 
01360020009000003DEM       United States Senator VICTORIA COUNTY                   Harry Kim                             PRECINCT 9                                             01 
01360020010000001DEM       United States Senator VICTORIA COUNTY                   Harry Kim                             PRECINCT 10                                            01 
01360020011000000DEM       United States Senator VICTORIA COUNTY                   Harry Kim                             PRECINCT 11                                            01 
01360020012000007DEM       United States Senator VICTORIA COUNTY                   Harry Kim                             PRECINCT 12                                            01 
01360020013000009DEM       United States Senator VICTORIA COUNTY                   Harry Kim                             PRECINCT 13                                            01 
01360020014000003DEM       United States Senator VICTORIA COUNTY                   Harry Kim                             PRECINCT 14                                            01 
01360020015000000DEM       United States Senator VICTORIA COUNTY                   Harry Kim                             PRECINCT 15                                            01 
01360020016000001DEM       United States Senator VICTORIA COUNTY                   Harry Kim                             PRECINCT 16                                            01 
01360020017000001DEM       United States Senator VICTORIA COUNTY                   Harry Kim                             PRECINCT 17                                            01 
01360020018000005DEM       United States Senator VICTORIA COUNTY                   Harry Kim                             PRECINCT 18                                            01 
01360020019000003DEM       United States Senator VICTORIA COUNTY                   Harry Kim                             PRECINCT 19                                            01 
01360020020000000DEM       United States Senator VICTORIA COUNTY                   Harry Kim                             PRECINCT 20                                            01 
01360020021000003DEM       United States Senator VICTORIA COUNTY                   Harry Kim                             PRECINCT 21                                            01 
01360020022000001DEM       United States Senator VICTORIA COUNTY                   Harry Kim                             PRECINCT 22                                            01 
01360020023000000DEM       United States Senator VICTORIA COUNTY                   Harry Kim                             PRECINCT 23                                            01 
01360020024000000DEM       United States Senator VICTORIA COUNTY                   Harry Kim                             PRECINCT 24                                            01 
01360020025000006DEM       United States Senator VICTORIA COUNTY                   Harry Kim                             PRECINCT 25                                            01 
01360020026000002DEM       United States Senator VICTORIA COUNTY                   Harry Kim                             PRECINCT 26                                            01 
01360020027000002DEM       United States Senator VICTORIA COUNTY                   Harry Kim                             PRECINCT 27                                            01 
01360020028000001DEM       United States Senator VICTORIA COUNTY                   Harry Kim                             PRECINCT 28                                            01 
01360020029000003DEM       United States Senator VICTORIA COUNTY                   Harry Kim                             PRECINCT 29                                            01 
01360020030000001DEM       United States Senator VICTORIA COUNTY                   Harry Kim                             PRECINCT 30                                            01 
01360020031000001DEM       United States Senator VICTORIA COUNTY                   Harry Kim                             PRECINCT 31                                            01 
01360020032000001DEM       United States Senator VICTORIA COUNTY                   Harry Kim                             PRECINCT 32                                            01 
01360020033000011DEM       United States Senator VICTORIA COUNTY                   Harry Kim                             PRECINCT 33                                            01 
01360020034000006DEM       United States Senator VICTORIA COUNTY                   Harry Kim                             PRECINCT 34                                            01 
01360020035000001DEM       United States Senator VICTORIA COUNTY                   Harry Kim                             PRECINCT 35                                            01 
01360030001000013DEM       United States Senator VICTORIA COUNTY                   David M. Alameel                      PRECINCT 1                                             01 
01360030002000029DEM       United States Senator VICTORIA COUNTY                   David M. Alameel                      PRECINCT 2                                             01 
01360030003000013DEM       United States Senator VICTORIA COUNTY                   David M. Alameel                      PRECINCT 3                                             01 
01360030004000023DEM       United States Senator VICTORIA COUNTY                   David M. Alameel                      PRECINCT 4                                             01 
01360030005000031DEM       United States Senator VICTORIA COUNTY                   David M. Alameel                      PRECINCT 5                                             01 
01360030006000002DEM       United States Senator VICTORIA COUNTY                   David M. Alameel                      PRECINCT 6                                             01 
01360030007000055DEM       United States Senator VICTORIA COUNTY                   David M. Alameel                      PRECINCT 7                                             01 
01360030008000014DEM       United States Senator VICTORIA COUNTY                   David M. Alameel                      PRECINCT 8                                             01 
01360030009000007DEM       United States Senator VICTORIA COUNTY                   David M. Alameel                      PRECINCT 9                                             01 
01360030010000021DEM       United States Senator VICTORIA COUNTY                   David M. Alameel                      PRECINCT 10                                            01 
01360030011000002DEM       United States Senator VICTORIA COUNTY                   David M. Alameel                      PRECINCT 11                                            01 
01360030012000031DEM       United States Senator VICTORIA COUNTY                   David M. Alameel                      PRECINCT 12                                            01 
01360030013000044DEM       United States Senator VICTORIA COUNTY                   David M. Alameel                      PRECINCT 13                                            01 
01360030014000027DEM       United States Senator VICTORIA COUNTY                   David M. Alameel                      PRECINCT 14                                            01 
01360030015000000DEM       United States Senator VICTORIA COUNTY                   David M. Alameel                      PRECINCT 15                                            01 
01360030016000001DEM       United States Senator VICTORIA COUNTY                   David M. Alameel                      PRECINCT 16                                            01 
01360030017000002DEM       United States Senator VICTORIA COUNTY                   David M. Alameel                      PRECINCT 17                                            01 
01360030018000016DEM       United States Senator VICTORIA COUNTY                   David M. Alameel                      PRECINCT 18                                            01 
01360030019000032DEM       United States Senator VICTORIA COUNTY                   David M. Alameel                      PRECINCT 19                                            01 
01360030020000017DEM       United States Senator VICTORIA COUNTY                   David M. Alameel                      PRECINCT 20                                            01 
01360030021000024DEM       United States Senator VICTORIA COUNTY                   David M. Alameel                      PRECINCT 21                                            01 
01360030022000009DEM       United States Senator VICTORIA COUNTY                   David M. Alameel                      PRECINCT 22                                            01 
01360030023000004DEM       United States Senator VICTORIA COUNTY                   David M. Alameel                      PRECINCT 23                                            01 
01360030024000006DEM       United States Senator VICTORIA COUNTY                   David M. Alameel                      PRECINCT 24                                            01 
01360030025000041DEM       United States Senator VICTORIA COUNTY                   David M. Alameel                      PRECINCT 25                                            01 
01360030026000007DEM       United States Senator VICTORIA COUNTY                   David M. Alameel                      PRECINCT 26                                            01 
01360030027000004DEM       United States Senator VICTORIA COUNTY                   David M. Alameel                      PRECINCT 27                                            01 
01360030028000002DEM       United States Senator VICTORIA COUNTY                   David M. Alameel                      PRECINCT 28                                            01 
01360030029000027DEM       United States Senator VICTORIA COUNTY                   David M. Alameel                      PRECINCT 29                                            01 
01360030030000005DEM       United States Senator VICTORIA COUNTY                   David M. Alameel                      PRECINCT 30                                            01 
01360030031000007DEM       United States Senator VICTORIA COUNTY                   David M. Alameel                      PRECINCT 31                                            01 
01360030032000017DEM       United States Senator VICTORIA COUNTY                   David M. Alameel                      PRECINCT 32                                            01 
01360030033000032DEM       United States Senator VICTORIA COUNTY                   David M. Alameel                      PRECINCT 33                                            01 
01360030034000026DEM       United States Senator VICTORIA COUNTY                   David M. Alameel                      PRECINCT 34                                            01 
01360030035000009DEM       United States Senator VICTORIA COUNTY                   David M. Alameel                      PRECINCT 35                                            01 
01360040001000006DEM       United States Senator VICTORIA COUNTY                   Maxey Marie Scherr                    PRECINCT 1                                             01 
01360040002000009DEM       United States Senator VICTORIA COUNTY                   Maxey Marie Scherr                    PRECINCT 2                                             01 
01360040003000004DEM       United States Senator VICTORIA COUNTY                   Maxey Marie Scherr                    PRECINCT 3                                             01 
01360040004000012DEM       United States Senator VICTORIA COUNTY                   Maxey Marie Scherr                    PRECINCT 4                                             01 
01360040005000013DEM       United States Senator VICTORIA COUNTY                   Maxey Marie Scherr                    PRECINCT 5                                             01 
01360040006000003DEM       United States Senator VICTORIA COUNTY                   Maxey Marie Scherr                    PRECINCT 6                                             01 
01360040007000018DEM       United States Senator VICTORIA COUNTY                   Maxey Marie Scherr                    PRECINCT 7                                             01 
01360040008000011DEM       United States Senator VICTORIA COUNTY                   Maxey Marie Scherr                    PRECINCT 8                                             01 
01360040009000008DEM       United States Senator VICTORIA COUNTY                   Maxey Marie Scherr                    PRECINCT 9                                             01 
01360040010000003DEM       United States Senator VICTORIA COUNTY                   Maxey Marie Scherr                    PRECINCT 10                                            01 
01360040011000001DEM       United States Senator VICTORIA COUNTY                   Maxey Marie Scherr                    PRECINCT 11                                            01 
01360040012000010DEM       United States Senator VICTORIA COUNTY                   Maxey Marie Scherr                    PRECINCT 12                                            01 
01360040013000022DEM       United States Senator VICTORIA COUNTY                   Maxey Marie Scherr                    PRECINCT 13                                            01 
01360040014000009DEM       United States Senator VICTORIA COUNTY                   Maxey Marie Scherr                    PRECINCT 14                                            01 
01360040015000000DEM       United States Senator VICTORIA COUNTY                   Maxey Marie Scherr                    PRECINCT 15                                            01 
01360040016000002DEM       United States Senator VICTORIA COUNTY                   Maxey Marie Scherr                    PRECINCT 16                                            01 
01360040017000002DEM       United States Senator VICTORIA COUNTY                   Maxey Marie Scherr                    PRECINCT 17                                            01 
01360040018000015DEM       United States Senator VICTORIA COUNTY                   Maxey Marie Scherr                    PRECINCT 18                                            01 
01360040019000015DEM       United States Senator VICTORIA COUNTY                   Maxey Marie Scherr                    PRECINCT 19                                            01 
01360040020000004DEM       United States Senator VICTORIA COUNTY                   Maxey Marie Scherr                    PRECINCT 20                                            01 
01360040021000022DEM       United States Senator VICTORIA COUNTY                   Maxey Marie Scherr                    PRECINCT 21                                            01 
01360040022000003DEM       United States Senator VICTORIA COUNTY                   Maxey Marie Scherr                    PRECINCT 22                                            01 
01360040023000004DEM       United States Senator VICTORIA COUNTY                   Maxey Marie Scherr                    PRECINCT 23                                            01 
01360040024000005DEM       United States Senator VICTORIA COUNTY                   Maxey Marie Scherr                    PRECINCT 24                                            01 
01360040025000019DEM       United States Senator VICTORIA COUNTY                   Maxey Marie Scherr                    PRECINCT 25                                            01 
01360040026000007DEM       United States Senator VICTORIA COUNTY                   Maxey Marie Scherr                    PRECINCT 26                                            01 
01360040027000002DEM       United States Senator VICTORIA COUNTY                   Maxey Marie Scherr                    PRECINCT 27                                            01 
01360040028000000DEM       United States Senator VICTORIA COUNTY                   Maxey Marie Scherr                    PRECINCT 28                                            01 
01360040029000015DEM       United States Senator VICTORIA COUNTY                   Maxey Marie Scherr                    PRECINCT 29                                            01 
01360040030000007DEM       United States Senator VICTORIA COUNTY                   Maxey Marie Scherr                    PRECINCT 30                                            01 
01360040031000005DEM       United States Senator VICTORIA COUNTY                   Maxey Marie Scherr                    PRECINCT 31                                            01 
01360040032000007DEM       United States Senator VICTORIA COUNTY                   Maxey Marie Scherr                    PRECINCT 32                                            01 
01360040033000020DEM       United States Senator VICTORIA COUNTY                   Maxey Marie Scherr                    PRECINCT 33                                            01 
01360040034000009DEM       United States Senator VICTORIA COUNTY                   Maxey Marie Scherr                    PRECINCT 34                                            01 
01360040035000002DEM       United States Senator VICTORIA COUNTY                   Maxey Marie Scherr                    PRECINCT 35                                            01 
01360050001000014DEM       United States Senator VICTORIA COUNTY                   Kesha Rogers                          PRECINCT 1                                             01 
01360050002000002DEM       United States Senator VICTORIA COUNTY                   Kesha Rogers                          PRECINCT 2                                             01 
01360050003000001DEM       United States Senator VICTORIA COUNTY                   Kesha Rogers                          PRECINCT 3                                             01 
01360050004000009DEM       United States Senator VICTORIA COUNTY                   Kesha Rogers                          PRECINCT 4                                             01 
01360050005000008DEM       United States Senator VICTORIA COUNTY                   Kesha Rogers                          PRECINCT 5                                             01 
01360050006000002DEM       United States Senator VICTORIA COUNTY                   Kesha Rogers                          PRECINCT 6                                             01 
01360050007000016DEM       United States Senator VICTORIA COUNTY                   Kesha Rogers                          PRECINCT 7                                             01 
01360050008000003DEM       United States Senator VICTORIA COUNTY                   Kesha Rogers                          PRECINCT 8                                             01 
01360050009000007DEM       United States Senator VICTORIA COUNTY                   Kesha Rogers                          PRECINCT 9                                             01 
01360050010000007DEM       United States Senator VICTORIA COUNTY                   Kesha Rogers                          PRECINCT 10                                            01 
01360050011000001DEM       United States Senator VICTORIA COUNTY                   Kesha Rogers                          PRECINCT 11                                            01 
01360050012000014DEM       United States Senator VICTORIA COUNTY                   Kesha Rogers                          PRECINCT 12                                            01 
01360050013000023DEM       United States Senator VICTORIA COUNTY                   Kesha Rogers                          PRECINCT 13                                            01 
01360050014000007DEM       United States Senator VICTORIA COUNTY                   Kesha Rogers                          PRECINCT 14                                            01 
01360050015000000DEM       United States Senator VICTORIA COUNTY                   Kesha Rogers                          PRECINCT 15                                            01 
01360050016000001DEM       United States Senator VICTORIA COUNTY                   Kesha Rogers                          PRECINCT 16                                            01 
01360050017000002DEM       United States Senator VICTORIA COUNTY                   Kesha Rogers                          PRECINCT 17                                            01 
01360050018000016DEM       United States Senator VICTORIA COUNTY                   Kesha Rogers                          PRECINCT 18                                            01 
01360050019000014DEM       United States Senator VICTORIA COUNTY                   Kesha Rogers                          PRECINCT 19                                            01 
01360050020000002DEM       United States Senator VICTORIA COUNTY                   Kesha Rogers                          PRECINCT 20                                            01 
01360050021000012DEM       United States Senator VICTORIA COUNTY                   Kesha Rogers                          PRECINCT 21                                            01 
01360050022000003DEM       United States Senator VICTORIA COUNTY                   Kesha Rogers                          PRECINCT 22                                            01 
01360050023000000DEM       United States Senator VICTORIA COUNTY                   Kesha Rogers                          PRECINCT 23                                            01 
01360050024000005DEM       United States Senator VICTORIA COUNTY                   Kesha Rogers                          PRECINCT 24                                            01 
01360050025000012DEM       United States Senator VICTORIA COUNTY                   Kesha Rogers                          PRECINCT 25                                            01 
01360050026000007DEM       United States Senator VICTORIA COUNTY                   Kesha Rogers                          PRECINCT 26                                            01 
01360050027000000DEM       United States Senator VICTORIA COUNTY                   Kesha Rogers                          PRECINCT 27                                            01 
01360050028000000DEM       United States Senator VICTORIA COUNTY                   Kesha Rogers                          PRECINCT 28                                            01 
01360050029000007DEM       United States Senator VICTORIA COUNTY                   Kesha Rogers                          PRECINCT 29                                            01 
01360050030000003DEM       United States Senator VICTORIA COUNTY                   Kesha Rogers                          PRECINCT 30                                            01 
01360050031000004DEM       United States Senator VICTORIA COUNTY                   Kesha Rogers                          PRECINCT 31                                            01 
01360050032000006DEM       United States Senator VICTORIA COUNTY                   Kesha Rogers                          PRECINCT 32                                            01 
01360050033000010DEM       United States Senator VICTORIA COUNTY                   Kesha Rogers                          PRECINCT 33                                            01 
01360050034000010DEM       United States Senator VICTORIA COUNTY                   Kesha Rogers                          PRECINCT 34                                            01 
01360050035000003DEM       United States Senator VICTORIA COUNTY                   Kesha Rogers                          PRECINCT 35                                            01 
01370010001000027DEM       United States Representative District 27 VICTORIA COUNTYWesley Reed                           PRECINCT 1                                             01 
01370010002000033DEM       United States Representative District 27 VICTORIA COUNTYWesley Reed                           PRECINCT 2                                             01 
01370010003000020DEM       United States Representative District 27 VICTORIA COUNTYWesley Reed                           PRECINCT 3                                             01 
01370010004000040DEM       United States Representative District 27 VICTORIA COUNTYWesley Reed                           PRECINCT 4                                             01 
01370010005000055DEM       United States Representative District 27 VICTORIA COUNTYWesley Reed                           PRECINCT 5                                             01 
01370010006000008DEM       United States Representative District 27 VICTORIA COUNTYWesley Reed                           PRECINCT 6                                             01 
01370010007000095DEM       United States Representative District 27 VICTORIA COUNTYWesley Reed                           PRECINCT 7                                             01 
01370010008000028DEM       United States Representative District 27 VICTORIA COUNTYWesley Reed                           PRECINCT 8                                             01 
01370010009000023DEM       United States Representative District 27 VICTORIA COUNTYWesley Reed                           PRECINCT 9                                             01 
01370010010000033DEM       United States Representative District 27 VICTORIA COUNTYWesley Reed                           PRECINCT 10                                            01 
01370010011000002DEM       United States Representative District 27 VICTORIA COUNTYWesley Reed                           PRECINCT 11                                            01 
01370010012000048DEM       United States Representative District 27 VICTORIA COUNTYWesley Reed                           PRECINCT 12                                            01 
01370010013000080DEM       United States Representative District 27 VICTORIA COUNTYWesley Reed                           PRECINCT 13                                            01 
01370010014000041DEM       United States Representative District 27 VICTORIA COUNTYWesley Reed                           PRECINCT 14                                            01 
01370010015000000DEM       United States Representative District 27 VICTORIA COUNTYWesley Reed                           PRECINCT 15                                            01 
01370010016000005DEM       United States Representative District 27 VICTORIA COUNTYWesley Reed                           PRECINCT 16                                            01 
01370010017000006DEM       United States Representative District 27 VICTORIA COUNTYWesley Reed                           PRECINCT 17                                            01 
01370010018000048DEM       United States Representative District 27 VICTORIA COUNTYWesley Reed                           PRECINCT 18                                            01 
01370010019000059DEM       United States Representative District 27 VICTORIA COUNTYWesley Reed                           PRECINCT 19                                            01 
01370010020000024DEM       United States Representative District 27 VICTORIA COUNTYWesley Reed                           PRECINCT 20                                            01 
01370010021000057DEM       United States Representative District 27 VICTORIA COUNTYWesley Reed                           PRECINCT 21                                            01 
01370010022000016DEM       United States Representative District 27 VICTORIA COUNTYWesley Reed                           PRECINCT 22                                            01 
01370010023000008DEM       United States Representative District 27 VICTORIA COUNTYWesley Reed                           PRECINCT 23                                            01 
01370010024000015DEM       United States Representative District 27 VICTORIA COUNTYWesley Reed                           PRECINCT 24                                            01 
01370010025000078DEM       United States Representative District 27 VICTORIA COUNTYWesley Reed                           PRECINCT 25                                            01 
01370010026000019DEM       United States Representative District 27 VICTORIA COUNTYWesley Reed                           PRECINCT 26                                            01 
01370010027000007DEM       United States Representative District 27 VICTORIA COUNTYWesley Reed                           PRECINCT 27                                            01 
01370010028000003DEM       United States Representative District 27 VICTORIA COUNTYWesley Reed                           PRECINCT 28                                            01 
01370010029000048DEM       United States Representative District 27 VICTORIA COUNTYWesley Reed                           PRECINCT 29                                            01 
01370010030000015DEM       United States Representative District 27 VICTORIA COUNTYWesley Reed                           PRECINCT 30                                            01 
01370010031000018DEM       United States Representative District 27 VICTORIA COUNTYWesley Reed                           PRECINCT 31                                            01 
01370010032000029DEM       United States Representative District 27 VICTORIA COUNTYWesley Reed                           PRECINCT 32                                            01 
01370010033000072DEM       United States Representative District 27 VICTORIA COUNTYWesley Reed                           PRECINCT 33                                            01 
01370010034000046DEM       United States Representative District 27 VICTORIA COUNTYWesley Reed                           PRECINCT 34                                            01 
01370010035000011DEM       United States Representative District 27 VICTORIA COUNTYWesley Reed                           PRECINCT 35                                            01 
01380010001000023DEM       Governor VICTORIA COUNTY                                Wendy R. Davis                        PRECINCT 1                                             01 
01380010002000039DEM       Governor VICTORIA COUNTY                                Wendy R. Davis                        PRECINCT 2                                             01 
01380010003000021DEM       Governor VICTORIA COUNTY                                Wendy R. Davis                        PRECINCT 3                                             01 
01380010004000032DEM       Governor VICTORIA COUNTY                                Wendy R. Davis                        PRECINCT 4                                             01 
01380010005000043DEM       Governor VICTORIA COUNTY                                Wendy R. Davis                        PRECINCT 5                                             01 
01380010006000006DEM       Governor VICTORIA COUNTY                                Wendy R. Davis                        PRECINCT 6                                             01 
01380010007000065DEM       Governor VICTORIA COUNTY                                Wendy R. Davis                        PRECINCT 7                                             01 
01380010008000024DEM       Governor VICTORIA COUNTY                                Wendy R. Davis                        PRECINCT 8                                             01 
01380010009000019DEM       Governor VICTORIA COUNTY                                Wendy R. Davis                        PRECINCT 9                                             01 
01380010010000029DEM       Governor VICTORIA COUNTY                                Wendy R. Davis                        PRECINCT 10                                            01 
01380010011000005DEM       Governor VICTORIA COUNTY                                Wendy R. Davis                        PRECINCT 11                                            01 
01380010012000030DEM       Governor VICTORIA COUNTY                                Wendy R. Davis                        PRECINCT 12                                            01 
01380010013000052DEM       Governor VICTORIA COUNTY                                Wendy R. Davis                        PRECINCT 13                                            01 
01380010014000036DEM       Governor VICTORIA COUNTY                                Wendy R. Davis                        PRECINCT 14                                            01 
01380010015000000DEM       Governor VICTORIA COUNTY                                Wendy R. Davis                        PRECINCT 15                                            01 
01380010016000004DEM       Governor VICTORIA COUNTY                                Wendy R. Davis                        PRECINCT 16                                            01 
01380010017000004DEM       Governor VICTORIA COUNTY                                Wendy R. Davis                        PRECINCT 17                                            01 
01380010018000042DEM       Governor VICTORIA COUNTY                                Wendy R. Davis                        PRECINCT 18                                            01 
01380010019000055DEM       Governor VICTORIA COUNTY                                Wendy R. Davis                        PRECINCT 19                                            01 
01380010020000022DEM       Governor VICTORIA COUNTY                                Wendy R. Davis                        PRECINCT 20                                            01 
01380010021000063DEM       Governor VICTORIA COUNTY                                Wendy R. Davis                        PRECINCT 21                                            01 
01380010022000014DEM       Governor VICTORIA COUNTY                                Wendy R. Davis                        PRECINCT 22                                            01 
01380010023000012DEM       Governor VICTORIA COUNTY                                Wendy R. Davis                        PRECINCT 23                                            01 
01380010024000017DEM       Governor VICTORIA COUNTY                                Wendy R. Davis                        PRECINCT 24                                            01 
01380010025000073DEM       Governor VICTORIA COUNTY                                Wendy R. Davis                        PRECINCT 25                                            01 
01380010026000016DEM       Governor VICTORIA COUNTY                                Wendy R. Davis                        PRECINCT 26                                            01 
01380010027000008DEM       Governor VICTORIA COUNTY                                Wendy R. Davis                        PRECINCT 27                                            01 
01380010028000002DEM       Governor VICTORIA COUNTY                                Wendy R. Davis                        PRECINCT 28                                            01 
01380010029000052DEM       Governor VICTORIA COUNTY                                Wendy R. Davis                        PRECINCT 29                                            01 
01380010030000015DEM       Governor VICTORIA COUNTY                                Wendy R. Davis                        PRECINCT 30                                            01 
01380010031000014DEM       Governor VICTORIA COUNTY                                Wendy R. Davis                        PRECINCT 31                                            01 
01380010032000020DEM       Governor VICTORIA COUNTY                                Wendy R. Davis                        PRECINCT 32                                            01 
01380010033000070DEM       Governor VICTORIA COUNTY                                Wendy R. Davis                        PRECINCT 33                                            01 
01380010034000037DEM       Governor VICTORIA COUNTY                                Wendy R. Davis                        PRECINCT 34                                            01 
01380010035000012DEM       Governor VICTORIA COUNTY                                Wendy R. Davis                        PRECINCT 35                                            01 
01380020001000011DEM       Governor VICTORIA COUNTY                                Reynaldo "Ray" Madrigal               PRECINCT 1                                             01 
01380020002000004DEM       Governor VICTORIA COUNTY                                Reynaldo "Ray" Madrigal               PRECINCT 2                                             01 
01380020003000004DEM       Governor VICTORIA COUNTY                                Reynaldo "Ray" Madrigal               PRECINCT 3                                             01 
01380020004000022DEM       Governor VICTORIA COUNTY                                Reynaldo "Ray" Madrigal               PRECINCT 4                                             01 
01380020005000020DEM       Governor VICTORIA COUNTY                                Reynaldo "Ray" Madrigal               PRECINCT 5                                             01 
01380020006000004DEM       Governor VICTORIA COUNTY                                Reynaldo "Ray" Madrigal               PRECINCT 6                                             01 
01380020007000044DEM       Governor VICTORIA COUNTY                                Reynaldo "Ray" Madrigal               PRECINCT 7                                             01 
01380020008000014DEM       Governor VICTORIA COUNTY                                Reynaldo "Ray" Madrigal               PRECINCT 8                                             01 
01380020009000007DEM       Governor VICTORIA COUNTY                                Reynaldo "Ray" Madrigal               PRECINCT 9                                             01 
01380020010000007DEM       Governor VICTORIA COUNTY                                Reynaldo "Ray" Madrigal               PRECINCT 10                                            01 
01380020011000000DEM       Governor VICTORIA COUNTY                                Reynaldo "Ray" Madrigal               PRECINCT 11                                            01 
01380020012000048DEM       Governor VICTORIA COUNTY                                Reynaldo "Ray" Madrigal               PRECINCT 12                                            01 
01380020013000066DEM       Governor VICTORIA COUNTY                                Reynaldo "Ray" Madrigal               PRECINCT 13                                            01 
01380020014000018DEM       Governor VICTORIA COUNTY                                Reynaldo "Ray" Madrigal               PRECINCT 14                                            01 
01380020015000000DEM       Governor VICTORIA COUNTY                                Reynaldo "Ray" Madrigal               PRECINCT 15                                            01 
01380020016000001DEM       Governor VICTORIA COUNTY                                Reynaldo "Ray" Madrigal               PRECINCT 16                                            01 
01380020017000006DEM       Governor VICTORIA COUNTY                                Reynaldo "Ray" Madrigal               PRECINCT 17                                            01 
01380020018000015DEM       Governor VICTORIA COUNTY                                Reynaldo "Ray" Madrigal               PRECINCT 18                                            01 
01380020019000016DEM       Governor VICTORIA COUNTY                                Reynaldo "Ray" Madrigal               PRECINCT 19                                            01 
01380020020000003DEM       Governor VICTORIA COUNTY                                Reynaldo "Ray" Madrigal               PRECINCT 20                                            01 
01380020021000009DEM       Governor VICTORIA COUNTY                                Reynaldo "Ray" Madrigal               PRECINCT 21                                            01 
01380020022000002DEM       Governor VICTORIA COUNTY                                Reynaldo "Ray" Madrigal               PRECINCT 22                                            01 
01380020023000000DEM       Governor VICTORIA COUNTY                                Reynaldo "Ray" Madrigal               PRECINCT 23                                            01 
01380020024000001DEM       Governor VICTORIA COUNTY                                Reynaldo "Ray" Madrigal               PRECINCT 24                                            01 
01380020025000016DEM       Governor VICTORIA COUNTY                                Reynaldo "Ray" Madrigal               PRECINCT 25                                            01 
01380020026000006DEM       Governor VICTORIA COUNTY                                Reynaldo "Ray" Madrigal               PRECINCT 26                                            01 
01380020027000001DEM       Governor VICTORIA COUNTY                                Reynaldo "Ray" Madrigal               PRECINCT 27                                            01 
01380020028000002DEM       Governor VICTORIA COUNTY                                Reynaldo "Ray" Madrigal               PRECINCT 28                                            01 
01380020029000008DEM       Governor VICTORIA COUNTY                                Reynaldo "Ray" Madrigal               PRECINCT 29                                            01 
01380020030000002DEM       Governor VICTORIA COUNTY                                Reynaldo "Ray" Madrigal               PRECINCT 30                                            01 
01380020031000007DEM       Governor VICTORIA COUNTY                                Reynaldo "Ray" Madrigal               PRECINCT 31                                            01 
01380020032000019DEM       Governor VICTORIA COUNTY                                Reynaldo "Ray" Madrigal               PRECINCT 32                                            01 
01380020033000015DEM       Governor VICTORIA COUNTY                                Reynaldo "Ray" Madrigal               PRECINCT 33                                            01 
01380020034000019DEM       Governor VICTORIA COUNTY                                Reynaldo "Ray" Madrigal               PRECINCT 34                                            01 
01380020035000005DEM       Governor VICTORIA COUNTY                                Reynaldo "Ray" Madrigal               PRECINCT 35                                            01 
01390010001000029DEM       Lieutenant Governor VICTORIA COUNTY                     Leticia Van de Putte                  PRECINCT 1                                             01 
01390010002000040DEM       Lieutenant Governor VICTORIA COUNTY                     Leticia Van de Putte                  PRECINCT 2                                             01 
01390010003000024DEM       Lieutenant Governor VICTORIA COUNTY                     Leticia Van de Putte                  PRECINCT 3                                             01 
01390010004000044DEM       Lieutenant Governor VICTORIA COUNTY                     Leticia Van de Putte                  PRECINCT 4                                             01 
01390010005000057DEM       Lieutenant Governor VICTORIA COUNTY                     Leticia Van de Putte                  PRECINCT 5                                             01 
01390010006000008DEM       Lieutenant Governor VICTORIA COUNTY                     Leticia Van de Putte                  PRECINCT 6                                             01 
01390010007000103DEM       Lieutenant Governor VICTORIA COUNTY                     Leticia Van de Putte                  PRECINCT 7                                             01 
01390010008000032DEM       Lieutenant Governor VICTORIA COUNTY                     Leticia Van de Putte                  PRECINCT 8                                             01 
01390010009000023DEM       Lieutenant Governor VICTORIA COUNTY                     Leticia Van de Putte                  PRECINCT 9                                             01 
01390010010000033DEM       Lieutenant Governor VICTORIA COUNTY                     Leticia Van de Putte                  PRECINCT 10                                            01 
01390010011000002DEM       Lieutenant Governor VICTORIA COUNTY                     Leticia Van de Putte                  PRECINCT 11                                            01 
01390010012000051DEM       Lieutenant Governor VICTORIA COUNTY                     Leticia Van de Putte                  PRECINCT 12                                            01 
01390010013000084DEM       Lieutenant Governor VICTORIA COUNTY                     Leticia Van de Putte                  PRECINCT 13                                            01 
01390010014000042DEM       Lieutenant Governor VICTORIA COUNTY                     Leticia Van de Putte                  PRECINCT 14                                            01 
01390010015000000DEM       Lieutenant Governor VICTORIA COUNTY                     Leticia Van de Putte                  PRECINCT 15                                            01 
01390010016000005DEM       Lieutenant Governor VICTORIA COUNTY                     Leticia Van de Putte                  PRECINCT 16                                            01 
01390010017000009DEM       Lieutenant Governor VICTORIA COUNTY                     Leticia Van de Putte                  PRECINCT 17                                            01 
01390010018000052DEM       Lieutenant Governor VICTORIA COUNTY                     Leticia Van de Putte                  PRECINCT 18                                            01 
01390010019000061DEM       Lieutenant Governor VICTORIA COUNTY                     Leticia Van de Putte                  PRECINCT 19                                            01 
01390010020000024DEM       Lieutenant Governor VICTORIA COUNTY                     Leticia Van de Putte                  PRECINCT 20                                            01 
01390010021000064DEM       Lieutenant Governor VICTORIA COUNTY                     Leticia Van de Putte                  PRECINCT 21                                            01 
01390010022000018DEM       Lieutenant Governor VICTORIA COUNTY                     Leticia Van de Putte                  PRECINCT 22                                            01 
01390010023000010DEM       Lieutenant Governor VICTORIA COUNTY                     Leticia Van de Putte                  PRECINCT 23                                            01 
01390010024000016DEM       Lieutenant Governor VICTORIA COUNTY                     Leticia Van de Putte                  PRECINCT 24                                            01 
01390010025000079DEM       Lieutenant Governor VICTORIA COUNTY                     Leticia Van de Putte                  PRECINCT 25                                            01 
01390010026000020DEM       Lieutenant Governor VICTORIA COUNTY                     Leticia Van de Putte                  PRECINCT 26                                            01 
01390010027000008DEM       Lieutenant Governor VICTORIA COUNTY                     Leticia Van de Putte                  PRECINCT 27                                            01 
01390010028000003DEM       Lieutenant Governor VICTORIA COUNTY                     Leticia Van de Putte                  PRECINCT 28                                            01 
01390010029000052DEM       Lieutenant Governor VICTORIA COUNTY                     Leticia Van de Putte                  PRECINCT 29                                            01 
01390010030000016DEM       Lieutenant Governor VICTORIA COUNTY                     Leticia Van de Putte                  PRECINCT 30                                            01 
01390010031000021DEM       Lieutenant Governor VICTORIA COUNTY                     Leticia Van de Putte                  PRECINCT 31                                            01 
01390010032000034DEM       Lieutenant Governor VICTORIA COUNTY                     Leticia Van de Putte                  PRECINCT 32                                            01 
01390010033000074DEM       Lieutenant Governor VICTORIA COUNTY                     Leticia Van de Putte                  PRECINCT 33                                            01 
01390010034000049DEM       Lieutenant Governor VICTORIA COUNTY                     Leticia Van de Putte                  PRECINCT 34                                            01 
01390010035000012DEM       Lieutenant Governor VICTORIA COUNTY                     Leticia Van de Putte                  PRECINCT 35                                            01 
01400010001000031DEM       Attorney General VICTORIA COUNTY                        Sam Houston                           PRECINCT 1                                             01 
01400010002000032DEM       Attorney General VICTORIA COUNTY                        Sam Houston                           PRECINCT 2                                             01 
01400010003000021DEM       Attorney General VICTORIA COUNTY                        Sam Houston                           PRECINCT 3                                             01 
01400010004000040DEM       Attorney General VICTORIA COUNTY                        Sam Houston                           PRECINCT 4                                             01 
01400010005000054DEM       Attorney General VICTORIA COUNTY                        Sam Houston                           PRECINCT 5                                             01 
01400010006000010DEM       Attorney General VICTORIA COUNTY                        Sam Houston                           PRECINCT 6                                             01 
01400010007000101DEM       Attorney General VICTORIA COUNTY                        Sam Houston                           PRECINCT 7                                             01 
01400010008000032DEM       Attorney General VICTORIA COUNTY                        Sam Houston                           PRECINCT 8                                             01 
01400010009000023DEM       Attorney General VICTORIA COUNTY                        Sam Houston                           PRECINCT 9                                             01 
01400010010000032DEM       Attorney General VICTORIA COUNTY                        Sam Houston                           PRECINCT 10                                            01 
01400010011000003DEM       Attorney General VICTORIA COUNTY                        Sam Houston                           PRECINCT 11                                            01 
01400010012000056DEM       Attorney General VICTORIA COUNTY                        Sam Houston                           PRECINCT 12                                            01 
01400010013000085DEM       Attorney General VICTORIA COUNTY                        Sam Houston                           PRECINCT 13                                            01 
01400010014000045DEM       Attorney General VICTORIA COUNTY                        Sam Houston                           PRECINCT 14                                            01 
01400010015000000DEM       Attorney General VICTORIA COUNTY                        Sam Houston                           PRECINCT 15                                            01 
01400010016000005DEM       Attorney General VICTORIA COUNTY                        Sam Houston                           PRECINCT 16                                            01 
01400010017000007DEM       Attorney General VICTORIA COUNTY                        Sam Houston                           PRECINCT 17                                            01 
01400010018000048DEM       Attorney General VICTORIA COUNTY                        Sam Houston                           PRECINCT 18                                            01 
01400010019000062DEM       Attorney General VICTORIA COUNTY                        Sam Houston                           PRECINCT 19                                            01 
01400010020000024DEM       Attorney General VICTORIA COUNTY                        Sam Houston                           PRECINCT 20                                            01 
01400010021000061DEM       Attorney General VICTORIA COUNTY                        Sam Houston                           PRECINCT 21                                            01 
01400010022000017DEM       Attorney General VICTORIA COUNTY                        Sam Houston                           PRECINCT 22                                            01 
01400010023000009DEM       Attorney General VICTORIA COUNTY                        Sam Houston                           PRECINCT 23                                            01 
01400010024000016DEM       Attorney General VICTORIA COUNTY                        Sam Houston                           PRECINCT 24                                            01 
01400010025000080DEM       Attorney General VICTORIA COUNTY                        Sam Houston                           PRECINCT 25                                            01 
01400010026000019DEM       Attorney General VICTORIA COUNTY                        Sam Houston                           PRECINCT 26                                            01 
01400010027000008DEM       Attorney General VICTORIA COUNTY                        Sam Houston                           PRECINCT 27                                            01 
01400010028000003DEM       Attorney General VICTORIA COUNTY                        Sam Houston                           PRECINCT 28                                            01 
01400010029000053DEM       Attorney General VICTORIA COUNTY                        Sam Houston                           PRECINCT 29                                            01 
01400010030000015DEM       Attorney General VICTORIA COUNTY                        Sam Houston                           PRECINCT 30                                            01 
01400010031000020DEM       Attorney General VICTORIA COUNTY                        Sam Houston                           PRECINCT 31                                            01 
01400010032000034DEM       Attorney General VICTORIA COUNTY                        Sam Houston                           PRECINCT 32                                            01 
01400010033000072DEM       Attorney General VICTORIA COUNTY                        Sam Houston                           PRECINCT 33                                            01 
01400010034000047DEM       Attorney General VICTORIA COUNTY                        Sam Houston                           PRECINCT 34                                            01 
01400010035000013DEM       Attorney General VICTORIA COUNTY                        Sam Houston                           PRECINCT 35                                            01 
01410010001000029DEM       Comptroller of Public Accounts VICTORIA COUNTY          Mike Collier                          PRECINCT 1                                             01 
01410010002000031DEM       Comptroller of Public Accounts VICTORIA COUNTY          Mike Collier                          PRECINCT 2                                             01 
01410010003000022DEM       Comptroller of Public Accounts VICTORIA COUNTY          Mike Collier                          PRECINCT 3                                             01 
01410010004000038DEM       Comptroller of Public Accounts VICTORIA COUNTY          Mike Collier                          PRECINCT 4                                             01 
01410010005000057DEM       Comptroller of Public Accounts VICTORIA COUNTY          Mike Collier                          PRECINCT 5                                             01 
01410010006000008DEM       Comptroller of Public Accounts VICTORIA COUNTY          Mike Collier                          PRECINCT 6                                             01 
01410010007000097DEM       Comptroller of Public Accounts VICTORIA COUNTY          Mike Collier                          PRECINCT 7                                             01 
01410010008000031DEM       Comptroller of Public Accounts VICTORIA COUNTY          Mike Collier                          PRECINCT 8                                             01 
01410010009000023DEM       Comptroller of Public Accounts VICTORIA COUNTY          Mike Collier                          PRECINCT 9                                             01 
01410010010000033DEM       Comptroller of Public Accounts VICTORIA COUNTY          Mike Collier                          PRECINCT 10                                            01 
01410010011000003DEM       Comptroller of Public Accounts VICTORIA COUNTY          Mike Collier                          PRECINCT 11                                            01 
01410010012000051DEM       Comptroller of Public Accounts VICTORIA COUNTY          Mike Collier                          PRECINCT 12                                            01 
01410010013000079DEM       Comptroller of Public Accounts VICTORIA COUNTY          Mike Collier                          PRECINCT 13                                            01 
01410010014000042DEM       Comptroller of Public Accounts VICTORIA COUNTY          Mike Collier                          PRECINCT 14                                            01 
01410010015000000DEM       Comptroller of Public Accounts VICTORIA COUNTY          Mike Collier                          PRECINCT 15                                            01 
01410010016000005DEM       Comptroller of Public Accounts VICTORIA COUNTY          Mike Collier                          PRECINCT 16                                            01 
01410010017000007DEM       Comptroller of Public Accounts VICTORIA COUNTY          Mike Collier                          PRECINCT 17                                            01 
01410010018000051DEM       Comptroller of Public Accounts VICTORIA COUNTY          Mike Collier                          PRECINCT 18                                            01 
01410010019000063DEM       Comptroller of Public Accounts VICTORIA COUNTY          Mike Collier                          PRECINCT 19                                            01 
01410010020000024DEM       Comptroller of Public Accounts VICTORIA COUNTY          Mike Collier                          PRECINCT 20                                            01 
01410010021000061DEM       Comptroller of Public Accounts VICTORIA COUNTY          Mike Collier                          PRECINCT 21                                            01 
01410010022000017DEM       Comptroller of Public Accounts VICTORIA COUNTY          Mike Collier                          PRECINCT 22                                            01 
01410010023000008DEM       Comptroller of Public Accounts VICTORIA COUNTY          Mike Collier                          PRECINCT 23                                            01 
01410010024000016DEM       Comptroller of Public Accounts VICTORIA COUNTY          Mike Collier                          PRECINCT 24                                            01 
01410010025000083DEM       Comptroller of Public Accounts VICTORIA COUNTY          Mike Collier                          PRECINCT 25                                            01 
01410010026000019DEM       Comptroller of Public Accounts VICTORIA COUNTY          Mike Collier                          PRECINCT 26                                            01 
01410010027000007DEM       Comptroller of Public Accounts VICTORIA COUNTY          Mike Collier                          PRECINCT 27                                            01 
01410010028000003DEM       Comptroller of Public Accounts VICTORIA COUNTY          Mike Collier                          PRECINCT 28                                            01 
01410010029000052DEM       Comptroller of Public Accounts VICTORIA COUNTY          Mike Collier                          PRECINCT 29                                            01 
01410010030000017DEM       Comptroller of Public Accounts VICTORIA COUNTY          Mike Collier                          PRECINCT 30                                            01 
01410010031000019DEM       Comptroller of Public Accounts VICTORIA COUNTY          Mike Collier                          PRECINCT 31                                            01 
01410010032000032DEM       Comptroller of Public Accounts VICTORIA COUNTY          Mike Collier                          PRECINCT 32                                            01 
01410010033000070DEM       Comptroller of Public Accounts VICTORIA COUNTY          Mike Collier                          PRECINCT 33                                            01 
01410010034000047DEM       Comptroller of Public Accounts VICTORIA COUNTY          Mike Collier                          PRECINCT 34                                            01 
01410010035000013DEM       Comptroller of Public Accounts VICTORIA COUNTY          Mike Collier                          PRECINCT 35                                            01 
01420010001000030DEM       Commissioner of the General Land Office VICTORIA COUNTY John Cook                             PRECINCT 1                                             01 
01420010002000032DEM       Commissioner of the General Land Office VICTORIA COUNTY John Cook                             PRECINCT 2                                             01 
01420010003000021DEM       Commissioner of the General Land Office VICTORIA COUNTY John Cook                             PRECINCT 3                                             01 
01420010004000040DEM       Commissioner of the General Land Office VICTORIA COUNTY John Cook                             PRECINCT 4                                             01 
01420010005000056DEM       Commissioner of the General Land Office VICTORIA COUNTY John Cook                             PRECINCT 5                                             01 
01420010006000007DEM       Commissioner of the General Land Office VICTORIA COUNTY John Cook                             PRECINCT 6                                             01 
01420010007000097DEM       Commissioner of the General Land Office VICTORIA COUNTY John Cook                             PRECINCT 7                                             01 
01420010008000029DEM       Commissioner of the General Land Office VICTORIA COUNTY John Cook                             PRECINCT 8                                             01 
01420010009000024DEM       Commissioner of the General Land Office VICTORIA COUNTY John Cook                             PRECINCT 9                                             01 
01420010010000034DEM       Commissioner of the General Land Office VICTORIA COUNTY John Cook                             PRECINCT 10                                            01 
01420010011000003DEM       Commissioner of the General Land Office VICTORIA COUNTY John Cook                             PRECINCT 11                                            01 
01420010012000056DEM       Commissioner of the General Land Office VICTORIA COUNTY John Cook                             PRECINCT 12                                            01 
01420010013000085DEM       Commissioner of the General Land Office VICTORIA COUNTY John Cook                             PRECINCT 13                                            01 
01420010014000045DEM       Commissioner of the General Land Office VICTORIA COUNTY John Cook                             PRECINCT 14                                            01 
01420010015000000DEM       Commissioner of the General Land Office VICTORIA COUNTY John Cook                             PRECINCT 15                                            01 
01420010016000005DEM       Commissioner of the General Land Office VICTORIA COUNTY John Cook                             PRECINCT 16                                            01 
01420010017000007DEM       Commissioner of the General Land Office VICTORIA COUNTY John Cook                             PRECINCT 17                                            01 
01420010018000050DEM       Commissioner of the General Land Office VICTORIA COUNTY John Cook                             PRECINCT 18                                            01 
01420010019000062DEM       Commissioner of the General Land Office VICTORIA COUNTY John Cook                             PRECINCT 19                                            01 
01420010020000024DEM       Commissioner of the General Land Office VICTORIA COUNTY John Cook                             PRECINCT 20                                            01 
01420010021000062DEM       Commissioner of the General Land Office VICTORIA COUNTY John Cook                             PRECINCT 21                                            01 
01420010022000017DEM       Commissioner of the General Land Office VICTORIA COUNTY John Cook                             PRECINCT 22                                            01 
01420010023000008DEM       Commissioner of the General Land Office VICTORIA COUNTY John Cook                             PRECINCT 23                                            01 
01420010024000016DEM       Commissioner of the General Land Office VICTORIA COUNTY John Cook                             PRECINCT 24                                            01 
01420010025000081DEM       Commissioner of the General Land Office VICTORIA COUNTY John Cook                             PRECINCT 25                                            01 
01420010026000019DEM       Commissioner of the General Land Office VICTORIA COUNTY John Cook                             PRECINCT 26                                            01 
01420010027000007DEM       Commissioner of the General Land Office VICTORIA COUNTY John Cook                             PRECINCT 27                                            01 
01420010028000003DEM       Commissioner of the General Land Office VICTORIA COUNTY John Cook                             PRECINCT 28                                            01 
01420010029000052DEM       Commissioner of the General Land Office VICTORIA COUNTY John Cook                             PRECINCT 29                                            01 
01420010030000017DEM       Commissioner of the General Land Office VICTORIA COUNTY John Cook                             PRECINCT 30                                            01 
01420010031000019DEM       Commissioner of the General Land Office VICTORIA COUNTY John Cook                             PRECINCT 31                                            01 
01420010032000032DEM       Commissioner of the General Land Office VICTORIA COUNTY John Cook                             PRECINCT 32                                            01 
01420010033000071DEM       Commissioner of the General Land Office VICTORIA COUNTY John Cook                             PRECINCT 33                                            01 
01420010034000046DEM       Commissioner of the General Land Office VICTORIA COUNTY John Cook                             PRECINCT 34                                            01 
01420010035000012DEM       Commissioner of the General Land Office VICTORIA COUNTY John Cook                             PRECINCT 35                                            01 
01430010001000022DEM       Commissioner of Agriculture VICTORIA COUNTY             Jim Hogan                             PRECINCT 1                                             01 
01430010002000016DEM       Commissioner of Agriculture VICTORIA COUNTY             Jim Hogan                             PRECINCT 2                                             01 
01430010003000011DEM       Commissioner of Agriculture VICTORIA COUNTY             Jim Hogan                             PRECINCT 3                                             01 
01430010004000022DEM       Commissioner of Agriculture VICTORIA COUNTY             Jim Hogan                             PRECINCT 4                                             01 
01430010005000038DEM       Commissioner of Agriculture VICTORIA COUNTY             Jim Hogan                             PRECINCT 5                                             01 
01430010006000004DEM       Commissioner of Agriculture VICTORIA COUNTY             Jim Hogan                             PRECINCT 6                                             01 
01430010007000056DEM       Commissioner of Agriculture VICTORIA COUNTY             Jim Hogan                             PRECINCT 7                                             01 
01430010008000018DEM       Commissioner of Agriculture VICTORIA COUNTY             Jim Hogan                             PRECINCT 8                                             01 
01430010009000016DEM       Commissioner of Agriculture VICTORIA COUNTY             Jim Hogan                             PRECINCT 9                                             01 
01430010010000016DEM       Commissioner of Agriculture VICTORIA COUNTY             Jim Hogan                             PRECINCT 10                                            01 
01430010011000005DEM       Commissioner of Agriculture VICTORIA COUNTY             Jim Hogan                             PRECINCT 11                                            01 
01430010012000035DEM       Commissioner of Agriculture VICTORIA COUNTY             Jim Hogan                             PRECINCT 12                                            01 
01430010013000050DEM       Commissioner of Agriculture VICTORIA COUNTY             Jim Hogan                             PRECINCT 13                                            01 
01430010014000028DEM       Commissioner of Agriculture VICTORIA COUNTY             Jim Hogan                             PRECINCT 14                                            01 
01430010015000000DEM       Commissioner of Agriculture VICTORIA COUNTY             Jim Hogan                             PRECINCT 15                                            01 
01430010016000001DEM       Commissioner of Agriculture VICTORIA COUNTY             Jim Hogan                             PRECINCT 16                                            01 
01430010017000002DEM       Commissioner of Agriculture VICTORIA COUNTY             Jim Hogan                             PRECINCT 17                                            01 
01430010018000035DEM       Commissioner of Agriculture VICTORIA COUNTY             Jim Hogan                             PRECINCT 18                                            01 
01430010019000033DEM       Commissioner of Agriculture VICTORIA COUNTY             Jim Hogan                             PRECINCT 19                                            01 
01430010020000013DEM       Commissioner of Agriculture VICTORIA COUNTY             Jim Hogan                             PRECINCT 20                                            01 
01430010021000039DEM       Commissioner of Agriculture VICTORIA COUNTY             Jim Hogan                             PRECINCT 21                                            01 
01430010022000013DEM       Commissioner of Agriculture VICTORIA COUNTY             Jim Hogan                             PRECINCT 22                                            01 
01430010023000006DEM       Commissioner of Agriculture VICTORIA COUNTY             Jim Hogan                             PRECINCT 23                                            01 
01430010024000014DEM       Commissioner of Agriculture VICTORIA COUNTY             Jim Hogan                             PRECINCT 24                                            01 
01430010025000054DEM       Commissioner of Agriculture VICTORIA COUNTY             Jim Hogan                             PRECINCT 25                                            01 
01430010026000017DEM       Commissioner of Agriculture VICTORIA COUNTY             Jim Hogan                             PRECINCT 26                                            01 
01430010027000004DEM       Commissioner of Agriculture VICTORIA COUNTY             Jim Hogan                             PRECINCT 27                                            01 
01430010028000002DEM       Commissioner of Agriculture VICTORIA COUNTY             Jim Hogan                             PRECINCT 28                                            01 
01430010029000027DEM       Commissioner of Agriculture VICTORIA COUNTY             Jim Hogan                             PRECINCT 29                                            01 
01430010030000012DEM       Commissioner of Agriculture VICTORIA COUNTY             Jim Hogan                             PRECINCT 30                                            01 
01430010031000010DEM       Commissioner of Agriculture VICTORIA COUNTY             Jim Hogan                             PRECINCT 31                                            01 
01430010032000018DEM       Commissioner of Agriculture VICTORIA COUNTY             Jim Hogan                             PRECINCT 32                                            01 
01430010033000039DEM       Commissioner of Agriculture VICTORIA COUNTY             Jim Hogan                             PRECINCT 33                                            01 
01430010034000031DEM       Commissioner of Agriculture VICTORIA COUNTY             Jim Hogan                             PRECINCT 34                                            01 
01430010035000009DEM       Commissioner of Agriculture VICTORIA COUNTY             Jim Hogan                             PRECINCT 35                                            01 
01430020001000009DEM       Commissioner of Agriculture VICTORIA COUNTY             Richard "Kinky" Friedman              PRECINCT 1                                             01 
01430020002000016DEM       Commissioner of Agriculture VICTORIA COUNTY             Richard "Kinky" Friedman              PRECINCT 2                                             01 
01430020003000009DEM       Commissioner of Agriculture VICTORIA COUNTY             Richard "Kinky" Friedman              PRECINCT 3                                             01 
01430020004000019DEM       Commissioner of Agriculture VICTORIA COUNTY             Richard "Kinky" Friedman              PRECINCT 4                                             01 
01430020005000014DEM       Commissioner of Agriculture VICTORIA COUNTY             Richard "Kinky" Friedman              PRECINCT 5                                             01 
01430020006000003DEM       Commissioner of Agriculture VICTORIA COUNTY             Richard "Kinky" Friedman              PRECINCT 6                                             01 
01430020007000035DEM       Commissioner of Agriculture VICTORIA COUNTY             Richard "Kinky" Friedman              PRECINCT 7                                             01 
01430020008000013DEM       Commissioner of Agriculture VICTORIA COUNTY             Richard "Kinky" Friedman              PRECINCT 8                                             01 
01430020009000007DEM       Commissioner of Agriculture VICTORIA COUNTY             Richard "Kinky" Friedman              PRECINCT 9                                             01 
01430020010000016DEM       Commissioner of Agriculture VICTORIA COUNTY             Richard "Kinky" Friedman              PRECINCT 10                                            01 
01430020011000000DEM       Commissioner of Agriculture VICTORIA COUNTY             Richard "Kinky" Friedman              PRECINCT 11                                            01 
01430020012000020DEM       Commissioner of Agriculture VICTORIA COUNTY             Richard "Kinky" Friedman              PRECINCT 12                                            01 
01430020013000038DEM       Commissioner of Agriculture VICTORIA COUNTY             Richard "Kinky" Friedman              PRECINCT 13                                            01 
01430020014000019DEM       Commissioner of Agriculture VICTORIA COUNTY             Richard "Kinky" Friedman              PRECINCT 14                                            01 
01430020015000000DEM       Commissioner of Agriculture VICTORIA COUNTY             Richard "Kinky" Friedman              PRECINCT 15                                            01 
01430020016000002DEM       Commissioner of Agriculture VICTORIA COUNTY             Richard "Kinky" Friedman              PRECINCT 16                                            01 
01430020017000005DEM       Commissioner of Agriculture VICTORIA COUNTY             Richard "Kinky" Friedman              PRECINCT 17                                            01 
01430020018000014DEM       Commissioner of Agriculture VICTORIA COUNTY             Richard "Kinky" Friedman              PRECINCT 18                                            01 
01430020019000022DEM       Commissioner of Agriculture VICTORIA COUNTY             Richard "Kinky" Friedman              PRECINCT 19                                            01 
01430020020000007DEM       Commissioner of Agriculture VICTORIA COUNTY             Richard "Kinky" Friedman              PRECINCT 20                                            01 
01430020021000016DEM       Commissioner of Agriculture VICTORIA COUNTY             Richard "Kinky" Friedman              PRECINCT 21                                            01 
01430020022000002DEM       Commissioner of Agriculture VICTORIA COUNTY             Richard "Kinky" Friedman              PRECINCT 22                                            01 
01430020023000003DEM       Commissioner of Agriculture VICTORIA COUNTY             Richard "Kinky" Friedman              PRECINCT 23                                            01 
01430020024000004DEM       Commissioner of Agriculture VICTORIA COUNTY             Richard "Kinky" Friedman              PRECINCT 24                                            01 
01430020025000018DEM       Commissioner of Agriculture VICTORIA COUNTY             Richard "Kinky" Friedman              PRECINCT 25                                            01 
01430020026000002DEM       Commissioner of Agriculture VICTORIA COUNTY             Richard "Kinky" Friedman              PRECINCT 26                                            01 
01430020027000001DEM       Commissioner of Agriculture VICTORIA COUNTY             Richard "Kinky" Friedman              PRECINCT 27                                            01 
01430020028000001DEM       Commissioner of Agriculture VICTORIA COUNTY             Richard "Kinky" Friedman              PRECINCT 28                                            01 
01430020029000020DEM       Commissioner of Agriculture VICTORIA COUNTY             Richard "Kinky" Friedman              PRECINCT 29                                            01 
01430020030000003DEM       Commissioner of Agriculture VICTORIA COUNTY             Richard "Kinky" Friedman              PRECINCT 30                                            01 
01430020031000007DEM       Commissioner of Agriculture VICTORIA COUNTY             Richard "Kinky" Friedman              PRECINCT 31                                            01 
01430020032000014DEM       Commissioner of Agriculture VICTORIA COUNTY             Richard "Kinky" Friedman              PRECINCT 32                                            01 
01430020033000025DEM       Commissioner of Agriculture VICTORIA COUNTY             Richard "Kinky" Friedman              PRECINCT 33                                            01 
01430020034000015DEM       Commissioner of Agriculture VICTORIA COUNTY             Richard "Kinky" Friedman              PRECINCT 34                                            01 
01430020035000005DEM       Commissioner of Agriculture VICTORIA COUNTY             Richard "Kinky" Friedman              PRECINCT 35                                            01 
01430030001000001DEM       Commissioner of Agriculture VICTORIA COUNTY             Hugh Asa Fitzsimons III               PRECINCT 1                                             01 
01430030002000005DEM       Commissioner of Agriculture VICTORIA COUNTY             Hugh Asa Fitzsimons III               PRECINCT 2                                             01 
01430030003000004DEM       Commissioner of Agriculture VICTORIA COUNTY             Hugh Asa Fitzsimons III               PRECINCT 3                                             01 
01430030004000003DEM       Commissioner of Agriculture VICTORIA COUNTY             Hugh Asa Fitzsimons III               PRECINCT 4                                             01 
01430030005000008DEM       Commissioner of Agriculture VICTORIA COUNTY             Hugh Asa Fitzsimons III               PRECINCT 5                                             01 
01430030006000001DEM       Commissioner of Agriculture VICTORIA COUNTY             Hugh Asa Fitzsimons III               PRECINCT 6                                             01 
01430030007000010DEM       Commissioner of Agriculture VICTORIA COUNTY             Hugh Asa Fitzsimons III               PRECINCT 7                                             01 
01430030008000004DEM       Commissioner of Agriculture VICTORIA COUNTY             Hugh Asa Fitzsimons III               PRECINCT 8                                             01 
01430030009000002DEM       Commissioner of Agriculture VICTORIA COUNTY             Hugh Asa Fitzsimons III               PRECINCT 9                                             01 
01430030010000005DEM       Commissioner of Agriculture VICTORIA COUNTY             Hugh Asa Fitzsimons III               PRECINCT 10                                            01 
01430030011000000DEM       Commissioner of Agriculture VICTORIA COUNTY             Hugh Asa Fitzsimons III               PRECINCT 11                                            01 
01430030012000010DEM       Commissioner of Agriculture VICTORIA COUNTY             Hugh Asa Fitzsimons III               PRECINCT 12                                            01 
01430030013000009DEM       Commissioner of Agriculture VICTORIA COUNTY             Hugh Asa Fitzsimons III               PRECINCT 13                                            01 
01430030014000004DEM       Commissioner of Agriculture VICTORIA COUNTY             Hugh Asa Fitzsimons III               PRECINCT 14                                            01 
01430030015000000DEM       Commissioner of Agriculture VICTORIA COUNTY             Hugh Asa Fitzsimons III               PRECINCT 15                                            01 
01430030016000002DEM       Commissioner of Agriculture VICTORIA COUNTY             Hugh Asa Fitzsimons III               PRECINCT 16                                            01 
01430030017000001DEM       Commissioner of Agriculture VICTORIA COUNTY             Hugh Asa Fitzsimons III               PRECINCT 17                                            01 
01430030018000004DEM       Commissioner of Agriculture VICTORIA COUNTY             Hugh Asa Fitzsimons III               PRECINCT 18                                            01 
01430030019000010DEM       Commissioner of Agriculture VICTORIA COUNTY             Hugh Asa Fitzsimons III               PRECINCT 19                                            01 
01430030020000004DEM       Commissioner of Agriculture VICTORIA COUNTY             Hugh Asa Fitzsimons III               PRECINCT 20                                            01 
01430030021000009DEM       Commissioner of Agriculture VICTORIA COUNTY             Hugh Asa Fitzsimons III               PRECINCT 21                                            01 
01430030022000001DEM       Commissioner of Agriculture VICTORIA COUNTY             Hugh Asa Fitzsimons III               PRECINCT 22                                            01 
01430030023000001DEM       Commissioner of Agriculture VICTORIA COUNTY             Hugh Asa Fitzsimons III               PRECINCT 23                                            01 
01430030024000000DEM       Commissioner of Agriculture VICTORIA COUNTY             Hugh Asa Fitzsimons III               PRECINCT 24                                            01 
01430030025000011DEM       Commissioner of Agriculture VICTORIA COUNTY             Hugh Asa Fitzsimons III               PRECINCT 25                                            01 
01430030026000002DEM       Commissioner of Agriculture VICTORIA COUNTY             Hugh Asa Fitzsimons III               PRECINCT 26                                            01 
01430030027000003DEM       Commissioner of Agriculture VICTORIA COUNTY             Hugh Asa Fitzsimons III               PRECINCT 27                                            01 
01430030028000000DEM       Commissioner of Agriculture VICTORIA COUNTY             Hugh Asa Fitzsimons III               PRECINCT 28                                            01 
01430030029000009DEM       Commissioner of Agriculture VICTORIA COUNTY             Hugh Asa Fitzsimons III               PRECINCT 29                                            01 
01430030030000002DEM       Commissioner of Agriculture VICTORIA COUNTY             Hugh Asa Fitzsimons III               PRECINCT 30                                            01 
01430030031000002DEM       Commissioner of Agriculture VICTORIA COUNTY             Hugh Asa Fitzsimons III               PRECINCT 31                                            01 
01430030032000006DEM       Commissioner of Agriculture VICTORIA COUNTY             Hugh Asa Fitzsimons III               PRECINCT 32                                            01 
01430030033000013DEM       Commissioner of Agriculture VICTORIA COUNTY             Hugh Asa Fitzsimons III               PRECINCT 33                                            01 
01430030034000006DEM       Commissioner of Agriculture VICTORIA COUNTY             Hugh Asa Fitzsimons III               PRECINCT 34                                            01 
01430030035000000DEM       Commissioner of Agriculture VICTORIA COUNTY             Hugh Asa Fitzsimons III               PRECINCT 35                                            01 
01440010001000010DEM       Railroad Commissioner VICTORIA COUNTY                   Dale Henry                            PRECINCT 1                                             01 
01440010002000019DEM       Railroad Commissioner VICTORIA COUNTY                   Dale Henry                            PRECINCT 2                                             01 
01440010003000008DEM       Railroad Commissioner VICTORIA COUNTY                   Dale Henry                            PRECINCT 3                                             01 
01440010004000017DEM       Railroad Commissioner VICTORIA COUNTY                   Dale Henry                            PRECINCT 4                                             01 
01440010005000025DEM       Railroad Commissioner VICTORIA COUNTY                   Dale Henry                            PRECINCT 5                                             01 
01440010006000002DEM       Railroad Commissioner VICTORIA COUNTY                   Dale Henry                            PRECINCT 6                                             01 
01440010007000033DEM       Railroad Commissioner VICTORIA COUNTY                   Dale Henry                            PRECINCT 7                                             01 
01440010008000014DEM       Railroad Commissioner VICTORIA COUNTY                   Dale Henry                            PRECINCT 8                                             01 
01440010009000012DEM       Railroad Commissioner VICTORIA COUNTY                   Dale Henry                            PRECINCT 9                                             01 
01440010010000010DEM       Railroad Commissioner VICTORIA COUNTY                   Dale Henry                            PRECINCT 10                                            01 
01440010011000004DEM       Railroad Commissioner VICTORIA COUNTY                   Dale Henry                            PRECINCT 11                                            01 
01440010012000029DEM       Railroad Commissioner VICTORIA COUNTY                   Dale Henry                            PRECINCT 12                                            01 
01440010013000041DEM       Railroad Commissioner VICTORIA COUNTY                   Dale Henry                            PRECINCT 13                                            01 
01440010014000023DEM       Railroad Commissioner VICTORIA COUNTY                   Dale Henry                            PRECINCT 14                                            01 
01440010015000000DEM       Railroad Commissioner VICTORIA COUNTY                   Dale Henry                            PRECINCT 15                                            01 
01440010016000002DEM       Railroad Commissioner VICTORIA COUNTY                   Dale Henry                            PRECINCT 16                                            01 
01440010017000005DEM       Railroad Commissioner VICTORIA COUNTY                   Dale Henry                            PRECINCT 17                                            01 
01440010018000027DEM       Railroad Commissioner VICTORIA COUNTY                   Dale Henry                            PRECINCT 18                                            01 
01440010019000037DEM       Railroad Commissioner VICTORIA COUNTY                   Dale Henry                            PRECINCT 19                                            01 
01440010020000011DEM       Railroad Commissioner VICTORIA COUNTY                   Dale Henry                            PRECINCT 20                                            01 
01440010021000023DEM       Railroad Commissioner VICTORIA COUNTY                   Dale Henry                            PRECINCT 21                                            01 
01440010022000013DEM       Railroad Commissioner VICTORIA COUNTY                   Dale Henry                            PRECINCT 22                                            01 
01440010023000005DEM       Railroad Commissioner VICTORIA COUNTY                   Dale Henry                            PRECINCT 23                                            01 
01440010024000006DEM       Railroad Commissioner VICTORIA COUNTY                   Dale Henry                            PRECINCT 24                                            01 
01440010025000034DEM       Railroad Commissioner VICTORIA COUNTY                   Dale Henry                            PRECINCT 25                                            01 
01440010026000009DEM       Railroad Commissioner VICTORIA COUNTY                   Dale Henry                            PRECINCT 26                                            01 
01440010027000005DEM       Railroad Commissioner VICTORIA COUNTY                   Dale Henry                            PRECINCT 27                                            01 
