01010010001001205000000000000000000000000000000          REGISTERED VOTERS - TOTAL                               REGISTERED VOTERS - TOTAL             PRECINCT 101                                           00 
01010010002001883000000000000000000000000000000          REGISTERED VOTERS - TOTAL                               REGISTERED VOTERS - TOTAL             PRECINCT 104                                           00 
01010010003001028000000000000000000000000000000          REGISTERED VOTERS - TOTAL                               REGISTERED VOTERS - TOTAL             PRECINCT 109                                           00 
01010010004000875000000000000000000000000000000          REGISTERED VOTERS - TOTAL                               REGISTERED VOTERS - TOTAL             PRECINCT 115                                           00 
01010010005000100000000000000000000000000000000          REGISTERED VOTERS - TOTAL                               REGISTERED VOTERS - TOTAL             PRECINCT 117                                           00 
01010010006000112000000000000000000000000000000          REGISTERED VOTERS - TOTAL                               REGISTERED VOTERS - TOTAL             PRECINCT 121                                           00 
01010010007000229000000000000000000000000000000          REGISTERED VOTERS - TOTAL                               REGISTERED VOTERS - TOTAL             PRECINCT 202                                           00 
01010010008001831000000000000000000000000000000          REGISTERED VOTERS - TOTAL                               REGISTERED VOTERS - TOTAL             PRECINCT 203                                           00 
01010010009002274000000000000000000000000000000          REGISTERED VOTERS - TOTAL                               REGISTERED VOTERS - TOTAL             PRECINCT 205                                           00 
01010010010001405000000000000000000000000000000          REGISTERED VOTERS - TOTAL                               REGISTERED VOTERS - TOTAL             PRECINCT 208                                           00 
01010010011001564000000000000000000000000000000          REGISTERED VOTERS - TOTAL                               REGISTERED VOTERS - TOTAL             PRECINCT 307                                           00 
01010010012001127000000000000000000000000000000          REGISTERED VOTERS - TOTAL                               REGISTERED VOTERS - TOTAL             PRECINCT 311                                           00 
01010010013001148000000000000000000000000000000          REGISTERED VOTERS - TOTAL                               REGISTERED VOTERS - TOTAL             PRECINCT 312                                           00 
01010010014000234000000000000000000000000000000          REGISTERED VOTERS - TOTAL                               REGISTERED VOTERS - TOTAL             PRECINCT 316                                           00 
01010010015001728000000000000000000000000000000          REGISTERED VOTERS - TOTAL                               REGISTERED VOTERS - TOTAL             PRECINCT 320                                           00 
01010010016001591000000000000000000000000000000          REGISTERED VOTERS - TOTAL                               REGISTERED VOTERS - TOTAL             PRECINCT 406                                           00 
01010010017001116000000000000000000000000000000          REGISTERED VOTERS - TOTAL                               REGISTERED VOTERS - TOTAL             PRECINCT 410                                           00 
01010010018000766000000000000000000000000000000          REGISTERED VOTERS - TOTAL                               REGISTERED VOTERS - TOTAL             PRECINCT 413                                           00 
01010010019000801000000000000000000000000000000          REGISTERED VOTERS - TOTAL                               REGISTERED VOTERS - TOTAL             PRECINCT 414                                           00 
01010010020000667000000000000000000000000000000          REGISTERED VOTERS - TOTAL                               REGISTERED VOTERS - TOTAL             PRECINCT 418                                           00 
01010010021000558000000000000000000000000000000          REGISTERED VOTERS - TOTAL                               REGISTERED VOTERS - TOTAL             PRECINCT 419                                           00 
01020010001000534000225000309000000000000000000          BALLOTS CAST - TOTAL                                    BALLOTS CAST - TOTAL                  PRECINCT 101                                           00 
01020010002000495000292000203000000000000000000          BALLOTS CAST - TOTAL                                    BALLOTS CAST - TOTAL                  PRECINCT 104                                           00 
01020010003000499000243000256000000000000000000          BALLOTS CAST - TOTAL                                    BALLOTS CAST - TOTAL                  PRECINCT 109                                           00 
01020010004000355000216000139000000000000000000          BALLOTS CAST - TOTAL                                    BALLOTS CAST - TOTAL                  PRECINCT 115                                           00 
01020010005000019000007000012000000000000000000          BALLOTS CAST - TOTAL                                    BALLOTS CAST - TOTAL                  PRECINCT 117                                           00 
01020010006000039000023000016000000000000000000          BALLOTS CAST - TOTAL                                    BALLOTS CAST - TOTAL                  PRECINCT 121                                           00 
01020010007000055000037000018000000000000000000          BALLOTS CAST - TOTAL                                    BALLOTS CAST - TOTAL                  PRECINCT 202                                           00 
01020010008000831000418000413000000000000000000          BALLOTS CAST - TOTAL                                    BALLOTS CAST - TOTAL                  PRECINCT 203                                           00 
01020010009000977000619000358000000000000000000          BALLOTS CAST - TOTAL                                    BALLOTS CAST - TOTAL                  PRECINCT 205                                           00 
01020010010000665000354000311000000000000000000          BALLOTS CAST - TOTAL                                    BALLOTS CAST - TOTAL                  PRECINCT 208                                           00 
01020010011000543000341000202000000000000000000          BALLOTS CAST - TOTAL                                    BALLOTS CAST - TOTAL                  PRECINCT 307                                           00 
01020010012000466000230000236000000000000000000          BALLOTS CAST - TOTAL                                    BALLOTS CAST - TOTAL                  PRECINCT 311                                           00 
01020010013000491000259000232000000000000000000          BALLOTS CAST - TOTAL                                    BALLOTS CAST - TOTAL                  PRECINCT 312                                           00 
01020010014000060000039000021000000000000000000          BALLOTS CAST - TOTAL                                    BALLOTS CAST - TOTAL                  PRECINCT 316                                           00 
01020010015000833000520000313000000000000000000          BALLOTS CAST - TOTAL                                    BALLOTS CAST - TOTAL                  PRECINCT 320                                           00 
01020010016000604000377000227000000000000000000          BALLOTS CAST - TOTAL                                    BALLOTS CAST - TOTAL                  PRECINCT 406                                           00 
01020010017000479000222000257000000000000000000          BALLOTS CAST - TOTAL                                    BALLOTS CAST - TOTAL                  PRECINCT 410                                           00 
01020010018000318000155000163000000000000000000          BALLOTS CAST - TOTAL                                    BALLOTS CAST - TOTAL                  PRECINCT 413                                           00 
01020010019000349000234000115000000000000000000          BALLOTS CAST - TOTAL                                    BALLOTS CAST - TOTAL                  PRECINCT 414                                           00 
01020010020000202000127000075000000000000000000          BALLOTS CAST - TOTAL                                    BALLOTS CAST - TOTAL                  PRECINCT 418                                           00 
01020010021000249000165000084000000000000000000          BALLOTS CAST - TOTAL                                    BALLOTS CAST - TOTAL                  PRECINCT 419                                           00 
01030010001000189000077000112000000000000000000REP       Straight Party                                          Republican Party                      PRECINCT 101                                           01 
01030010002000075000044000031000000000000000000REP       Straight Party                                          Republican Party                      PRECINCT 104                                           01 
01030010003000240000117000123000000000000000000REP       Straight Party                                          Republican Party                      PRECINCT 109                                           01 
01030010004000150000093000057000000000000000000REP       Straight Party                                          Republican Party                      PRECINCT 115                                           01 
01030010005000003000000000003000000000000000000REP       Straight Party                                          Republican Party                      PRECINCT 117                                           01 
01030010006000014000008000006000000000000000000REP       Straight Party                                          Republican Party                      PRECINCT 121                                           01 
01030010007000029000020000009000000000000000000REP       Straight Party                                          Republican Party                      PRECINCT 202                                           01 
01030010008000401000228000173000000000000000000REP       Straight Party                                          Republican Party                      PRECINCT 203                                           01 
01030010009000427000310000117000000000000000000REP       Straight Party                                          Republican Party                      PRECINCT 205                                           01 
01030010010000310000170000140000000000000000000REP       Straight Party                                          Republican Party                      PRECINCT 208                                           01 
01030010011000242000159000083000000000000000000REP       Straight Party                                          Republican Party                      PRECINCT 307                                           01 
01030010012000207000108000099000000000000000000REP       Straight Party                                          Republican Party                      PRECINCT 311                                           01 
01030010013000246000135000111000000000000000000REP       Straight Party                                          Republican Party                      PRECINCT 312                                           01 
01030010014000028000017000011000000000000000000REP       Straight Party                                          Republican Party                      PRECINCT 316                                           01 
01030010015000419000267000152000000000000000000REP       Straight Party                                          Republican Party                      PRECINCT 320                                           01 
01030010016000259000169000090000000000000000000REP       Straight Party                                          Republican Party                      PRECINCT 406                                           01 
01030010017000240000100000140000000000000000000REP       Straight Party                                          Republican Party                      PRECINCT 410                                           01 
01030010018000161000088000073000000000000000000REP       Straight Party                                          Republican Party                      PRECINCT 413                                           01 
01030010019000187000124000063000000000000000000REP       Straight Party                                          Republican Party                      PRECINCT 414                                           01 
01030010020000080000050000030000000000000000000REP       Straight Party                                          Republican Party                      PRECINCT 418                                           01 
01030010021000110000071000039000000000000000000REP       Straight Party                                          Republican Party                      PRECINCT 419                                           01 
01030020001000150000064000086000000000000000000DEM       Straight Party                                          Democratic Party                      PRECINCT 101                                           01 
01030020002000273000160000113000000000000000000DEM       Straight Party                                          Democratic Party                      PRECINCT 104                                           01 
01030020003000037000023000014000000000000000000DEM       Straight Party                                          Democratic Party                      PRECINCT 109                                           01 
01030020004000035000020000015000000000000000000DEM       Straight Party                                          Democratic Party                      PRECINCT 115                                           01 
01030020005000009000005000004000000000000000000DEM       Straight Party                                          Democratic Party                      PRECINCT 117                                           01 
01030020006000003000002000001000000000000000000DEM       Straight Party                                          Democratic Party                      PRECINCT 121                                           01 
01030020007000007000003000004000000000000000000DEM       Straight Party                                          Democratic Party                      PRECINCT 202                                           01 
01030020008000077000027000050000000000000000000DEM       Straight Party                                          Democratic Party                      PRECINCT 203                                           01 
01030020009000075000037000038000000000000000000DEM       Straight Party                                          Democratic Party                      PRECINCT 205                                           01 
01030020010000023000010000013000000000000000000DEM       Straight Party                                          Democratic Party                      PRECINCT 208                                           01 
01030020011000040000022000018000000000000000000DEM       Straight Party                                          Democratic Party                      PRECINCT 307                                           01 
01030020012000040000020000020000000000000000000DEM       Straight Party                                          Democratic Party                      PRECINCT 311                                           01 
01030020013000030000017000013000000000000000000DEM       Straight Party                                          Democratic Party                      PRECINCT 312                                           01 
01030020014000004000002000002000000000000000000DEM       Straight Party                                          Democratic Party                      PRECINCT 316                                           01 
01030020015000025000015000010000000000000000000DEM       Straight Party                                          Democratic Party                      PRECINCT 320                                           01 
01030020016000038000026000012000000000000000000DEM       Straight Party                                          Democratic Party                      PRECINCT 406                                           01 
01030020017000038000015000023000000000000000000DEM       Straight Party                                          Democratic Party                      PRECINCT 410                                           01 
01030020018000012000006000006000000000000000000DEM       Straight Party                                          Democratic Party                      PRECINCT 413                                           01 
01030020019000013000012000001000000000000000000DEM       Straight Party                                          Democratic Party                      PRECINCT 414                                           01 
01030020020000024000015000009000000000000000000DEM       Straight Party                                          Democratic Party                      PRECINCT 418                                           01 
01030020021000024000015000009000000000000000000DEM       Straight Party                                          Democratic Party                      PRECINCT 419                                           01 
01030030001000001000000000001000000000000000000LIB       Straight Party                                          Libertarian Party                     PRECINCT 101                                           01 
01030030002000001000001000000000000000000000000LIB       Straight Party                                          Libertarian Party                     PRECINCT 104                                           01 
01030030003000001000000000001000000000000000000LIB       Straight Party                                          Libertarian Party                     PRECINCT 109                                           01 
01030030004000002000000000002000000000000000000LIB       Straight Party                                          Libertarian Party                     PRECINCT 115                                           01 
01030030005000000000000000000000000000000000000LIB       Straight Party                                          Libertarian Party                     PRECINCT 117                                           01 
01030030006000001000001000000000000000000000000LIB       Straight Party                                          Libertarian Party                     PRECINCT 121                                           01 
01030030007000000000000000000000000000000000000LIB       Straight Party                                          Libertarian Party                     PRECINCT 202                                           01 
01030030008000008000002000006000000000000000000LIB       Straight Party                                          Libertarian Party                     PRECINCT 203                                           01 
01030030009000008000003000005000000000000000000LIB       Straight Party                                          Libertarian Party                     PRECINCT 205                                           01 
01030030010000000000000000000000000000000000000LIB       Straight Party                                          Libertarian Party                     PRECINCT 208                                           01 
01030030011000001000000000001000000000000000000LIB       Straight Party                                          Libertarian Party                     PRECINCT 307                                           01 
01030030012000005000000000005000000000000000000LIB       Straight Party                                          Libertarian Party                     PRECINCT 311                                           01 
01030030013000002000000000002000000000000000000LIB       Straight Party                                          Libertarian Party                     PRECINCT 312                                           01 
01030030014000001000000000001000000000000000000LIB       Straight Party                                          Libertarian Party                     PRECINCT 316                                           01 
01030030015000001000000000001000000000000000000LIB       Straight Party                                          Libertarian Party                     PRECINCT 320                                           01 
01030030016000000000000000000000000000000000000LIB       Straight Party                                          Libertarian Party                     PRECINCT 406                                           01 
01030030017000002000001000001000000000000000000LIB       Straight Party                                          Libertarian Party                     PRECINCT 410                                           01 
01030030018000002000001000001000000000000000000LIB       Straight Party                                          Libertarian Party                     PRECINCT 413                                           01 
01030030019000000000000000000000000000000000000LIB       Straight Party                                          Libertarian Party                     PRECINCT 414                                           01 
01030030020000001000000000001000000000000000000LIB       Straight Party                                          Libertarian Party                     PRECINCT 418                                           01 
01030030021000000000000000000000000000000000000LIB       Straight Party                                          Libertarian Party                     PRECINCT 419                                           01 
01030040001000000000000000000000000000000000000GRN       Straight Party                                          Green Party                           PRECINCT 101                                           01 
01030040002000000000000000000000000000000000000GRN       Straight Party                                          Green Party                           PRECINCT 104                                           01 
01030040003000000000000000000000000000000000000GRN       Straight Party                                          Green Party                           PRECINCT 109                                           01 
01030040004000001000000000001000000000000000000GRN       Straight Party                                          Green Party                           PRECINCT 115                                           01 
01030040005000000000000000000000000000000000000GRN       Straight Party                                          Green Party                           PRECINCT 117                                           01 
01030040006000000000000000000000000000000000000GRN       Straight Party                                          Green Party                           PRECINCT 121                                           01 
01030040007000000000000000000000000000000000000GRN       Straight Party                                          Green Party                           PRECINCT 202                                           01 
01030040008000005000000000005000000000000000000GRN       Straight Party                                          Green Party                           PRECINCT 203                                           01 
01030040009000000000000000000000000000000000000GRN       Straight Party                                          Green Party                           PRECINCT 205                                           01 
01030040010000001000000000001000000000000000000GRN       Straight Party                                          Green Party                           PRECINCT 208                                           01 
01030040011000000000000000000000000000000000000GRN       Straight Party                                          Green Party                           PRECINCT 307                                           01 
01030040012000000000000000000000000000000000000GRN       Straight Party                                          Green Party                           PRECINCT 311                                           01 
01030040013000000000000000000000000000000000000GRN       Straight Party                                          Green Party                           PRECINCT 312                                           01 
01030040014000000000000000000000000000000000000GRN       Straight Party                                          Green Party                           PRECINCT 316                                           01 
01030040015000000000000000000000000000000000000GRN       Straight Party                                          Green Party                           PRECINCT 320                                           01 
01030040016000000000000000000000000000000000000GRN       Straight Party                                          Green Party                           PRECINCT 406                                           01 
01030040017000000000000000000000000000000000000GRN       Straight Party                                          Green Party                           PRECINCT 410                                           01 
01030040018000000000000000000000000000000000000GRN       Straight Party                                          Green Party                           PRECINCT 413                                           01 
01030040019000000000000000000000000000000000000GRN       Straight Party                                          Green Party                           PRECINCT 414                                           01 
01030040020000000000000000000000000000000000000GRN       Straight Party                                          Green Party                           PRECINCT 418                                           01 
01030040021000000000000000000000000000000000000GRN       Straight Party                                          Green Party                           PRECINCT 419                                           01 
01030050001000000000000000000000000000000000000          Straight Party                                          OVER VOTES                            PRECINCT 101                                           01 
01030050002000000000000000000000000000000000000          Straight Party                                          OVER VOTES                            PRECINCT 104                                           01 
01030050003000000000000000000000000000000000000          Straight Party                                          OVER VOTES                            PRECINCT 109                                           01 
01030050004000000000000000000000000000000000000          Straight Party                                          OVER VOTES                            PRECINCT 115                                           01 
01030050005000000000000000000000000000000000000          Straight Party                                          OVER VOTES                            PRECINCT 117                                           01 
01030050006000000000000000000000000000000000000          Straight Party                                          OVER VOTES                            PRECINCT 121                                           01 
01030050007000000000000000000000000000000000000          Straight Party                                          OVER VOTES                            PRECINCT 202                                           01 
01030050008000000000000000000000000000000000000          Straight Party                                          OVER VOTES                            PRECINCT 203                                           01 
01030050009000000000000000000000000000000000000          Straight Party                                          OVER VOTES                            PRECINCT 205                                           01 
01030050010000000000000000000000000000000000000          Straight Party                                          OVER VOTES                            PRECINCT 208                                           01 
01030050011000000000000000000000000000000000000          Straight Party                                          OVER VOTES                            PRECINCT 307                                           01 
01030050012000000000000000000000000000000000000          Straight Party                                          OVER VOTES                            PRECINCT 311                                           01 
01030050013000000000000000000000000000000000000          Straight Party                                          OVER VOTES                            PRECINCT 312                                           01 
01030050014000000000000000000000000000000000000          Straight Party                                          OVER VOTES                            PRECINCT 316                                           01 
01030050015000000000000000000000000000000000000          Straight Party                                          OVER VOTES                            PRECINCT 320                                           01 
01030050016000000000000000000000000000000000000          Straight Party                                          OVER VOTES                            PRECINCT 406                                           01 
01030050017000000000000000000000000000000000000          Straight Party                                          OVER VOTES                            PRECINCT 410                                           01 
01030050018000000000000000000000000000000000000          Straight Party                                          OVER VOTES                            PRECINCT 413                                           01 
01030050019000000000000000000000000000000000000          Straight Party                                          OVER VOTES                            PRECINCT 414                                           01 
01030050020000000000000000000000000000000000000          Straight Party                                          OVER VOTES                            PRECINCT 418                                           01 
01030050021000000000000000000000000000000000000          Straight Party                                          OVER VOTES                            PRECINCT 419                                           01 
01030060001000194000084000110000000000000000000          Straight Party                                          UNDER VOTES                           PRECINCT 101                                           01 
01030060002000146000087000059000000000000000000          Straight Party                                          UNDER VOTES                           PRECINCT 104                                           01 
01030060003000221000103000118000000000000000000          Straight Party                                          UNDER VOTES                           PRECINCT 109                                           01 
01030060004000167000103000064000000000000000000          Straight Party                                          UNDER VOTES                           PRECINCT 115                                           01 
01030060005000007000002000005000000000000000000          Straight Party                                          UNDER VOTES                           PRECINCT 117                                           01 
01030060006000021000012000009000000000000000000          Straight Party                                          UNDER VOTES                           PRECINCT 121                                           01 
01030060007000019000014000005000000000000000000          Straight Party                                          UNDER VOTES                           PRECINCT 202                                           01 
01030060008000339000160000179000000000000000000          Straight Party                                          UNDER VOTES                           PRECINCT 203                                           01 
01030060009000467000269000198000000000000000000          Straight Party                                          UNDER VOTES                           PRECINCT 205                                           01 
01030060010000331000174000157000000000000000000          Straight Party                                          UNDER VOTES                           PRECINCT 208                                           01 
01030060011000260000160000100000000000000000000          Straight Party                                          UNDER VOTES                           PRECINCT 307                                           01 
01030060012000214000102000112000000000000000000          Straight Party                                          UNDER VOTES                           PRECINCT 311                                           01 
01030060013000211000106000105000000000000000000          Straight Party                                          UNDER VOTES                           PRECINCT 312                                           01 
01030060014000027000020000007000000000000000000          Straight Party                                          UNDER VOTES                           PRECINCT 316                                           01 
01030060015000388000238000150000000000000000000          Straight Party                                          UNDER VOTES                           PRECINCT 320                                           01 
01030060016000306000181000125000000000000000000          Straight Party                                          UNDER VOTES                           PRECINCT 406                                           01 
01030060017000199000106000093000000000000000000          Straight Party                                          UNDER VOTES                           PRECINCT 410                                           01 
01030060018000143000060000083000000000000000000          Straight Party                                          UNDER VOTES                           PRECINCT 413                                           01 
01030060019000149000098000051000000000000000000          Straight Party                                          UNDER VOTES                           PRECINCT 414                                           01 
01030060020000097000062000035000000000000000000          Straight Party                                          UNDER VOTES                           PRECINCT 418                                           01 
01030060021000115000079000036000000000000000000          Straight Party                                          UNDER VOTES                           PRECINCT 419                                           01 
01040010001000318000133000185000000000000000000REP       United States Senator                                   John Cornyn                           PRECINCT 101                                           01 
01040010002000126000073000053000000000000000000REP       United States Senator                                   John Cornyn                           PRECINCT 104                                           01 
01040010003000409000196000213000000000000000000REP       United States Senator                                   John Cornyn                           PRECINCT 109                                           01 
01040010004000272000170000102000000000000000000REP       United States Senator                                   John Cornyn                           PRECINCT 115                                           01 
01040010005000006000000000006000000000000000000REP       United States Senator                                   John Cornyn                           PRECINCT 117                                           01 
01040010006000024000013000011000000000000000000REP       United States Senator                                   John Cornyn                           PRECINCT 121                                           01 
01040010007000042000029000013000000000000000000REP       United States Senator                                   John Cornyn                           PRECINCT 202                                           01 
01040010008000655000345000310000000000000000000REP       United States Senator                                   John Cornyn                           PRECINCT 203                                           01 
01040010009000799000522000277000000000000000000REP       United States Senator                                   John Cornyn                           PRECINCT 205                                           01 
01040010010000578000311000267000000000000000000REP       United States Senator                                   John Cornyn                           PRECINCT 208                                           01 
01040010011000438000279000159000000000000000000REP       United States Senator                                   John Cornyn                           PRECINCT 307                                           01 
01040010012000379000192000187000000000000000000REP       United States Senator                                   John Cornyn                           PRECINCT 311                                           01 
01040010013000416000220000196000000000000000000REP       United States Senator                                   John Cornyn                           PRECINCT 312                                           01 
01040010014000049000032000017000000000000000000REP       United States Senator                                   John Cornyn                           PRECINCT 316                                           01 
01040010015000739000465000274000000000000000000REP       United States Senator                                   John Cornyn                           PRECINCT 320                                           01 
01040010016000490000305000185000000000000000000REP       United States Senator                                   John Cornyn                           PRECINCT 406                                           01 
01040010017000387000176000211000000000000000000REP       United States Senator                                   John Cornyn                           PRECINCT 410                                           01 
01040010018000279000136000143000000000000000000REP       United States Senator                                   John Cornyn                           PRECINCT 413                                           01 
01040010019000314000210000104000000000000000000REP       United States Senator                                   John Cornyn                           PRECINCT 414                                           01 
01040010020000151000093000058000000000000000000REP       United States Senator                                   John Cornyn                           PRECINCT 418                                           01 
01040010021000181000119000062000000000000000000REP       United States Senator                                   John Cornyn                           PRECINCT 419                                           01 
01040020001000193000084000109000000000000000000DEM       United States Senator                                   David M. Alameel                      PRECINCT 101                                           01 
01040020002000352000208000144000000000000000000DEM       United States Senator                                   David M. Alameel                      PRECINCT 104                                           01 
01040020003000060000034000026000000000000000000DEM       United States Senator                                   David M. Alameel                      PRECINCT 109                                           01 
01040020004000063000040000023000000000000000000DEM       United States Senator                                   David M. Alameel                      PRECINCT 115                                           01 
01040020005000012000007000005000000000000000000DEM       United States Senator                                   David M. Alameel                      PRECINCT 117                                           01 
01040020006000012000009000003000000000000000000DEM       United States Senator                                   David M. Alameel                      PRECINCT 121                                           01 
01040020007000009000005000004000000000000000000DEM       United States Senator                                   David M. Alameel                      PRECINCT 202                                           01 
01040020008000123000050000073000000000000000000DEM       United States Senator                                   David M. Alameel                      PRECINCT 203                                           01 
01040020009000130000074000056000000000000000000DEM       United States Senator                                   David M. Alameel                      PRECINCT 205                                           01 
01040020010000053000022000031000000000000000000DEM       United States Senator                                   David M. Alameel                      PRECINCT 208                                           01 
01040020011000083000051000032000000000000000000DEM       United States Senator                                   David M. Alameel                      PRECINCT 307                                           01 
01040020012000065000035000030000000000000000000DEM       United States Senator                                   David M. Alameel                      PRECINCT 311                                           01 
01040020013000054000030000024000000000000000000DEM       United States Senator                                   David M. Alameel                      PRECINCT 312                                           01 
01040020014000008000006000002000000000000000000DEM       United States Senator                                   David M. Alameel                      PRECINCT 316                                           01 
01040020015000064000039000025000000000000000000DEM       United States Senator                                   David M. Alameel                      PRECINCT 320                                           01 
01040020016000092000061000031000000000000000000DEM       United States Senator                                   David M. Alameel                      PRECINCT 406                                           01 
01040020017000065000031000034000000000000000000DEM       United States Senator                                   David M. Alameel                      PRECINCT 410                                           01 
01040020018000028000015000013000000000000000000DEM       United States Senator                                   David M. Alameel                      PRECINCT 413                                           01 
01040020019000017000014000003000000000000000000DEM       United States Senator                                   David M. Alameel                      PRECINCT 414                                           01 
01040020020000038000026000012000000000000000000DEM       United States Senator                                   David M. Alameel                      PRECINCT 418                                           01 
01040020021000061000041000020000000000000000000DEM       United States Senator                                   David M. Alameel                      PRECINCT 419                                           01 
01040030001000011000003000008000000000000000000LIB       United States Senator                                   Rebecca Paddock                       PRECINCT 101                                           01 
01040030002000010000007000003000000000000000000LIB       United States Senator                                   Rebecca Paddock                       PRECINCT 104                                           01 
01040030003000011000006000005000000000000000000LIB       United States Senator                                   Rebecca Paddock                       PRECINCT 109                                           01 
01040030004000009000003000006000000000000000000LIB       United States Senator                                   Rebecca Paddock                       PRECINCT 115                                           01 
01040030005000001000000000001000000000000000000LIB       United States Senator                                   Rebecca Paddock                       PRECINCT 117                                           01 
01040030006000002000001000001000000000000000000LIB       United States Senator                                   Rebecca Paddock                       PRECINCT 121                                           01 
01040030007000001000001000000000000000000000000LIB       United States Senator                                   Rebecca Paddock                       PRECINCT 202                                           01 
01040030008000030000016000014000000000000000000LIB       United States Senator                                   Rebecca Paddock                       PRECINCT 203                                           01 
01040030009000035000015000020000000000000000000LIB       United States Senator                                   Rebecca Paddock                       PRECINCT 205                                           01 
01040030010000012000006000006000000000000000000LIB       United States Senator                                   Rebecca Paddock                       PRECINCT 208                                           01 
01040030011000014000005000009000000000000000000LIB       United States Senator                                   Rebecca Paddock                       PRECINCT 307                                           01 
01040030012000014000001000013000000000000000000LIB       United States Senator                                   Rebecca Paddock                       PRECINCT 311                                           01 
01040030013000015000004000011000000000000000000LIB       United States Senator                                   Rebecca Paddock                       PRECINCT 312                                           01 
01040030014000002000001000001000000000000000000LIB       United States Senator                                   Rebecca Paddock                       PRECINCT 316                                           01 
01040030015000011000007000004000000000000000000LIB       United States Senator                                   Rebecca Paddock                       PRECINCT 320                                           01 
01040030016000013000004000009000000000000000000LIB       United States Senator                                   Rebecca Paddock                       PRECINCT 406                                           01 
01040030017000016000011000005000000000000000000LIB       United States Senator                                   Rebecca Paddock                       PRECINCT 410                                           01 
01040030018000010000004000006000000000000000000LIB       United States Senator                                   Rebecca Paddock                       PRECINCT 413                                           01 
01040030019000008000005000003000000000000000000LIB       United States Senator                                   Rebecca Paddock                       PRECINCT 414                                           01 
01040030020000007000004000003000000000000000000LIB       United States Senator                                   Rebecca Paddock                       PRECINCT 418                                           01 
01040030021000003000003000000000000000000000000LIB       United States Senator                                   Rebecca Paddock                       PRECINCT 419                                           01 
01040040001000002000001000001000000000000000000GRN       United States Senator                                   Emily "Spicybrown" Sanchez            PRECINCT 101                                           01 
01040040002000002000001000001000000000000000000GRN       United States Senator                                   Emily "Spicybrown" Sanchez            PRECINCT 104                                           01 
01040040003000001000000000001000000000000000000GRN       United States Senator                                   Emily "Spicybrown" Sanchez            PRECINCT 109                                           01 
01040040004000000000000000000000000000000000000GRN       United States Senator                                   Emily "Spicybrown" Sanchez            PRECINCT 115                                           01 
01040040005000000000000000000000000000000000000GRN       United States Senator                                   Emily "Spicybrown" Sanchez            PRECINCT 117                                           01 
01040040006000000000000000000000000000000000000GRN       United States Senator                                   Emily "Spicybrown" Sanchez            PRECINCT 121                                           01 
01040040007000001000000000001000000000000000000GRN       United States Senator                                   Emily "Spicybrown" Sanchez            PRECINCT 202                                           01 
01040040008000008000000000008000000000000000000GRN       United States Senator                                   Emily "Spicybrown" Sanchez            PRECINCT 203                                           01 
01040040009000003000000000003000000000000000000GRN       United States Senator                                   Emily "Spicybrown" Sanchez            PRECINCT 205                                           01 
01040040010000007000004000003000000000000000000GRN       United States Senator                                   Emily "Spicybrown" Sanchez            PRECINCT 208                                           01 
01040040011000001000001000000000000000000000000GRN       United States Senator                                   Emily "Spicybrown" Sanchez            PRECINCT 307                                           01 
01040040012000004000001000003000000000000000000GRN       United States Senator                                   Emily "Spicybrown" Sanchez            PRECINCT 311                                           01 
01040040013000001000000000001000000000000000000GRN       United States Senator                                   Emily "Spicybrown" Sanchez            PRECINCT 312                                           01 
01040040014000000000000000000000000000000000000GRN       United States Senator                                   Emily "Spicybrown" Sanchez            PRECINCT 316                                           01 
01040040015000009000004000005000000000000000000GRN       United States Senator                                   Emily "Spicybrown" Sanchez            PRECINCT 320                                           01 
01040040016000004000004000000000000000000000000GRN       United States Senator                                   Emily "Spicybrown" Sanchez            PRECINCT 406                                           01 
01040040017000003000001000002000000000000000000GRN       United States Senator                                   Emily "Spicybrown" Sanchez            PRECINCT 410                                           01 
01040040018000001000000000001000000000000000000GRN       United States Senator                                   Emily "Spicybrown" Sanchez            PRECINCT 413                                           01 
01040040019000002000000000002000000000000000000GRN       United States Senator                                   Emily "Spicybrown" Sanchez            PRECINCT 414                                           01 
01040040020000002000001000001000000000000000000GRN       United States Senator                                   Emily "Spicybrown" Sanchez            PRECINCT 418                                           01 
01040040021000000000000000000000000000000000000GRN       United States Senator                                   Emily "Spicybrown" Sanchez            PRECINCT 419                                           01 
01040050001000000000000000000000000000000000000NON       United States Senator                                   WRITE-IN                              PRECINCT 101                                           01 
01040050002000000000000000000000000000000000000NON       United States Senator                                   WRITE-IN                              PRECINCT 104                                           01 
01040050003000002000001000001000000000000000000NON       United States Senator                                   WRITE-IN                              PRECINCT 109                                           01 
01040050004000000000000000000000000000000000000NON       United States Senator                                   WRITE-IN                              PRECINCT 115                                           01 
01040050005000000000000000000000000000000000000NON       United States Senator                                   WRITE-IN                              PRECINCT 117                                           01 
01040050006000000000000000000000000000000000000NON       United States Senator                                   WRITE-IN                              PRECINCT 121                                           01 
01040050007000000000000000000000000000000000000NON       United States Senator                                   WRITE-IN                              PRECINCT 202                                           01 
01040050008000000000000000000000000000000000000NON       United States Senator                                   WRITE-IN                              PRECINCT 203                                           01 
01040050009000000000000000000000000000000000000NON       United States Senator                                   WRITE-IN                              PRECINCT 205                                           01 
01040050010000001000001000000000000000000000000NON       United States Senator                                   WRITE-IN                              PRECINCT 208                                           01 
01040050011000000000000000000000000000000000000NON       United States Senator                                   WRITE-IN                              PRECINCT 307                                           01 
01040050012000001000000000001000000000000000000NON       United States Senator                                   WRITE-IN                              PRECINCT 311                                           01 
01040050013000000000000000000000000000000000000NON       United States Senator                                   WRITE-IN                              PRECINCT 312                                           01 
01040050014000000000000000000000000000000000000NON       United States Senator                                   WRITE-IN                              PRECINCT 316                                           01 
01040050015000000000000000000000000000000000000NON       United States Senator                                   WRITE-IN                              PRECINCT 320                                           01 
01040050016000000000000000000000000000000000000NON       United States Senator                                   WRITE-IN                              PRECINCT 406                                           01 
01040050017000000000000000000000000000000000000NON       United States Senator                                   WRITE-IN                              PRECINCT 410                                           01 
01040050018000000000000000000000000000000000000NON       United States Senator                                   WRITE-IN                              PRECINCT 413                                           01 
01040050019000000000000000000000000000000000000NON       United States Senator                                   WRITE-IN                              PRECINCT 414                                           01 
01040050020000000000000000000000000000000000000NON       United States Senator                                   WRITE-IN                              PRECINCT 418                                           01 
01040050021000000000000000000000000000000000000NON       United States Senator                                   WRITE-IN                              PRECINCT 419                                           01 
01040060001000000000000000000000000000000000000          United States Senator                                   OVER VOTES                            PRECINCT 101                                           01 
01040060002000000000000000000000000000000000000          United States Senator                                   OVER VOTES                            PRECINCT 104                                           01 
01040060003000000000000000000000000000000000000          United States Senator                                   OVER VOTES                            PRECINCT 109                                           01 
01040060004000000000000000000000000000000000000          United States Senator                                   OVER VOTES                            PRECINCT 115                                           01 
01040060005000000000000000000000000000000000000          United States Senator                                   OVER VOTES                            PRECINCT 117                                           01 
01040060006000000000000000000000000000000000000          United States Senator                                   OVER VOTES                            PRECINCT 121                                           01 
01040060007000000000000000000000000000000000000          United States Senator                                   OVER VOTES                            PRECINCT 202                                           01 
01040060008000000000000000000000000000000000000          United States Senator                                   OVER VOTES                            PRECINCT 203                                           01 
01040060009000000000000000000000000000000000000          United States Senator                                   OVER VOTES                            PRECINCT 205                                           01 
01040060010000000000000000000000000000000000000          United States Senator                                   OVER VOTES                            PRECINCT 208                                           01 
01040060011000000000000000000000000000000000000          United States Senator                                   OVER VOTES                            PRECINCT 307                                           01 
01040060012000000000000000000000000000000000000          United States Senator                                   OVER VOTES                            PRECINCT 311                                           01 
01040060013000000000000000000000000000000000000          United States Senator                                   OVER VOTES                            PRECINCT 312                                           01 
01040060014000000000000000000000000000000000000          United States Senator                                   OVER VOTES                            PRECINCT 316                                           01 
01040060015000000000000000000000000000000000000          United States Senator                                   OVER VOTES                            PRECINCT 320                                           01 
01040060016000000000000000000000000000000000000          United States Senator                                   OVER VOTES                            PRECINCT 406                                           01 
01040060017000000000000000000000000000000000000          United States Senator                                   OVER VOTES                            PRECINCT 410                                           01 
01040060018000000000000000000000000000000000000          United States Senator                                   OVER VOTES                            PRECINCT 413                                           01 
01040060019000000000000000000000000000000000000          United States Senator                                   OVER VOTES                            PRECINCT 414                                           01 
01040060020000000000000000000000000000000000000          United States Senator                                   OVER VOTES                            PRECINCT 418                                           01 
01040060021000000000000000000000000000000000000          United States Senator                                   OVER VOTES                            PRECINCT 419                                           01 
01040070001000008000003000005000000000000000000          United States Senator                                   UNDER VOTES                           PRECINCT 101                                           01 
01040070002000005000003000002000000000000000000          United States Senator                                   UNDER VOTES                           PRECINCT 104                                           01 
01040070003000016000006000010000000000000000000          United States Senator                                   UNDER VOTES                           PRECINCT 109                                           01 
01040070004000011000003000008000000000000000000          United States Senator                                   UNDER VOTES                           PRECINCT 115                                           01 
01040070005000000000000000000000000000000000000          United States Senator                                   UNDER VOTES                           PRECINCT 117                                           01 
01040070006000001000000000001000000000000000000          United States Senator                                   UNDER VOTES                           PRECINCT 121                                           01 
01040070007000002000002000000000000000000000000          United States Senator                                   UNDER VOTES                           PRECINCT 202                                           01 
01040070008000015000007000008000000000000000000          United States Senator                                   UNDER VOTES                           PRECINCT 203                                           01 
01040070009000009000008000001000000000000000000          United States Senator                                   UNDER VOTES                           PRECINCT 205                                           01 
01040070010000014000010000004000000000000000000          United States Senator                                   UNDER VOTES                           PRECINCT 208                                           01 
01040070011000007000005000002000000000000000000          United States Senator                                   UNDER VOTES                           PRECINCT 307                                           01 
01040070012000003000001000002000000000000000000          United States Senator                                   UNDER VOTES                           PRECINCT 311                                           01 
01040070013000005000005000000000000000000000000          United States Senator                                   UNDER VOTES                           PRECINCT 312                                           01 
01040070014000001000000000001000000000000000000          United States Senator                                   UNDER VOTES                           PRECINCT 316                                           01 
01040070015000010000005000005000000000000000000          United States Senator                                   UNDER VOTES                           PRECINCT 320                                           01 
01040070016000005000003000002000000000000000000          United States Senator                                   UNDER VOTES                           PRECINCT 406                                           01 
01040070017000008000003000005000000000000000000          United States Senator                                   UNDER VOTES                           PRECINCT 410                                           01 
01040070018000000000000000000000000000000000000          United States Senator                                   UNDER VOTES                           PRECINCT 413                                           01 
01040070019000007000004000003000000000000000000          United States Senator                                   UNDER VOTES                           PRECINCT 414                                           01 
01040070020000004000003000001000000000000000000          United States Senator                                   UNDER VOTES                           PRECINCT 418                                           01 
01040070021000004000002000002000000000000000000          United States Senator                                   UNDER VOTES                           PRECINCT 419                                           01 
01050010001000325000136000189000000000000000000REP       United States Representative, Dist 10                   Michael McCaul                        PRECINCT 101                                           01 
01050010002000133000076000057000000000000000000REP       United States Representative, Dist 10                   Michael McCaul                        PRECINCT 104                                           01 
01050010003000413000200000213000000000000000000REP       United States Representative, Dist 10                   Michael McCaul                        PRECINCT 109                                           01 
01050010004000280000175000105000000000000000000REP       United States Representative, Dist 10                   Michael McCaul                        PRECINCT 115                                           01 
01050010005000005000000000005000000000000000000REP       United States Representative, Dist 10                   Michael McCaul                        PRECINCT 117                                           01 
01050010006000024000013000011000000000000000000REP       United States Representative, Dist 10                   Michael McCaul                        PRECINCT 121                                           01 
01050010007000044000032000012000000000000000000REP       United States Representative, Dist 10                   Michael McCaul                        PRECINCT 202                                           01 
01050010008000661000347000314000000000000000000REP       United States Representative, Dist 10                   Michael McCaul                        PRECINCT 203                                           01 
01050010009000808000527000281000000000000000000REP       United States Representative, Dist 10                   Michael McCaul                        PRECINCT 205                                           01 
01050010010000595000319000276000000000000000000REP       United States Representative, Dist 10                   Michael McCaul                        PRECINCT 208                                           01 
01050010011000447000284000163000000000000000000REP       United States Representative, Dist 10                   Michael McCaul                        PRECINCT 307                                           01 
01050010012000388000193000195000000000000000000REP       United States Representative, Dist 10                   Michael McCaul                        PRECINCT 311                                           01 
01050010013000425000223000202000000000000000000REP       United States Representative, Dist 10                   Michael McCaul                        PRECINCT 312                                           01 
01050010014000049000031000018000000000000000000REP       United States Representative, Dist 10                   Michael McCaul                        PRECINCT 316                                           01 
01050010015000747000471000276000000000000000000REP       United States Representative, Dist 10                   Michael McCaul                        PRECINCT 320                                           01 
01050010016000494000305000189000000000000000000REP       United States Representative, Dist 10                   Michael McCaul                        PRECINCT 406                                           01 
01050010017000398000183000215000000000000000000REP       United States Representative, Dist 10                   Michael McCaul                        PRECINCT 410                                           01 
01050010018000284000136000148000000000000000000REP       United States Representative, Dist 10                   Michael McCaul                        PRECINCT 413                                           01 
01050010019000324000212000112000000000000000000REP       United States Representative, Dist 10                   Michael McCaul                        PRECINCT 414                                           01 
01050010020000155000097000058000000000000000000REP       United States Representative, Dist 10                   Michael McCaul                        PRECINCT 418                                           01 
01050010021000184000120000064000000000000000000REP       United States Representative, Dist 10                   Michael McCaul                        PRECINCT 419                                           01 
01050020001000191000083000108000000000000000000DEM       United States Representative, Dist 10                   Tawana Walter-Cadien                  PRECINCT 101                                           01 
01050020002000350000208000142000000000000000000DEM       United States Representative, Dist 10                   Tawana Walter-Cadien                  PRECINCT 104                                           01 
01050020003000062000035000027000000000000000000DEM       United States Representative, Dist 10                   Tawana Walter-Cadien                  PRECINCT 109                                           01 
01050020004000061000039000022000000000000000000DEM       United States Representative, Dist 10                   Tawana Walter-Cadien                  PRECINCT 115                                           01 
01050020005000014000007000007000000000000000000DEM       United States Representative, Dist 10                   Tawana Walter-Cadien                  PRECINCT 117                                           01 
01050020006000012000009000003000000000000000000DEM       United States Representative, Dist 10                   Tawana Walter-Cadien                  PRECINCT 121                                           01 
01050020007000010000004000006000000000000000000DEM       United States Representative, Dist 10                   Tawana Walter-Cadien                  PRECINCT 202                                           01 
01050020008000122000052000070000000000000000000DEM       United States Representative, Dist 10                   Tawana Walter-Cadien                  PRECINCT 203                                           01 
01050020009000129000069000060000000000000000000DEM       United States Representative, Dist 10                   Tawana Walter-Cadien                  PRECINCT 205                                           01 
01050020010000050000024000026000000000000000000DEM       United States Representative, Dist 10                   Tawana Walter-Cadien                  PRECINCT 208                                           01 
01050020011000081000048000033000000000000000000DEM       United States Representative, Dist 10                   Tawana Walter-Cadien                  PRECINCT 307                                           01 
01050020012000061000034000027000000000000000000DEM       United States Representative, Dist 10                   Tawana Walter-Cadien                  PRECINCT 311                                           01 
01050020013000050000026000024000000000000000000DEM       United States Representative, Dist 10                   Tawana Walter-Cadien                  PRECINCT 312                                           01 
01050020014000008000006000002000000000000000000DEM       United States Representative, Dist 10                   Tawana Walter-Cadien                  PRECINCT 316                                           01 
01050020015000064000037000027000000000000000000DEM       United States Representative, Dist 10                   Tawana Walter-Cadien                  PRECINCT 320                                           01 
01050020016000084000056000028000000000000000000DEM       United States Representative, Dist 10                   Tawana Walter-Cadien                  PRECINCT 406                                           01 
01050020017000065000032000033000000000000000000DEM       United States Representative, Dist 10                   Tawana Walter-Cadien                  PRECINCT 410                                           01 
01050020018000024000013000011000000000000000000DEM       United States Representative, Dist 10                   Tawana Walter-Cadien                  PRECINCT 413                                           01 
01050020019000015000012000003000000000000000000DEM       United States Representative, Dist 10                   Tawana Walter-Cadien                  PRECINCT 414                                           01 
01050020020000037000025000012000000000000000000DEM       United States Representative, Dist 10                   Tawana Walter-Cadien                  PRECINCT 418                                           01 
01050020021000056000039000017000000000000000000DEM       United States Representative, Dist 10                   Tawana Walter-Cadien                  PRECINCT 419                                           01 
01050030001000009000003000006000000000000000000LIB       United States Representative, Dist 10                   Bill Kelsey                           PRECINCT 101                                           01 
01050030002000008000006000002000000000000000000LIB       United States Representative, Dist 10                   Bill Kelsey                           PRECINCT 104                                           01 
01050030003000010000003000007000000000000000000LIB       United States Representative, Dist 10                   Bill Kelsey                           PRECINCT 109                                           01 
01050030004000007000001000006000000000000000000LIB       United States Representative, Dist 10                   Bill Kelsey                           PRECINCT 115                                           01 
01050030005000000000000000000000000000000000000LIB       United States Representative, Dist 10                   Bill Kelsey                           PRECINCT 117                                           01 
01050030006000002000001000001000000000000000000LIB       United States Representative, Dist 10                   Bill Kelsey                           PRECINCT 121                                           01 
01050030007000000000000000000000000000000000000LIB       United States Representative, Dist 10                   Bill Kelsey                           PRECINCT 202                                           01 
01050030008000032000014000018000000000000000000LIB       United States Representative, Dist 10                   Bill Kelsey                           PRECINCT 203                                           01 
01050030009000027000013000014000000000000000000LIB       United States Representative, Dist 10                   Bill Kelsey                           PRECINCT 205                                           01 
01050030010000013000006000007000000000000000000LIB       United States Representative, Dist 10                   Bill Kelsey                           PRECINCT 208                                           01 
01050030011000010000005000005000000000000000000LIB       United States Representative, Dist 10                   Bill Kelsey                           PRECINCT 307                                           01 
01050030012000013000001000012000000000000000000LIB       United States Representative, Dist 10                   Bill Kelsey                           PRECINCT 311                                           01 
01050030013000012000006000006000000000000000000LIB       United States Representative, Dist 10                   Bill Kelsey                           PRECINCT 312                                           01 
01050030014000003000002000001000000000000000000LIB       United States Representative, Dist 10                   Bill Kelsey                           PRECINCT 316                                           01 
01050030015000016000009000007000000000000000000LIB       United States Representative, Dist 10                   Bill Kelsey                           PRECINCT 320                                           01 
01050030016000014000006000008000000000000000000LIB       United States Representative, Dist 10                   Bill Kelsey                           PRECINCT 406                                           01 
01050030017000009000005000004000000000000000000LIB       United States Representative, Dist 10                   Bill Kelsey                           PRECINCT 410                                           01 
01050030018000009000005000004000000000000000000LIB       United States Representative, Dist 10                   Bill Kelsey                           PRECINCT 413                                           01 
01050030019000004000004000000000000000000000000LIB       United States Representative, Dist 10                   Bill Kelsey                           PRECINCT 414                                           01 
01050030020000007000003000004000000000000000000LIB       United States Representative, Dist 10                   Bill Kelsey                           PRECINCT 418                                           01 
01050030021000004000003000001000000000000000000LIB       United States Representative, Dist 10                   Bill Kelsey                           PRECINCT 419                                           01 
01050040001000000000000000000000000000000000000          United States Representative, Dist 10                   OVER VOTES                            PRECINCT 101                                           01 
01050040002000000000000000000000000000000000000          United States Representative, Dist 10                   OVER VOTES                            PRECINCT 104                                           01 
01050040003000000000000000000000000000000000000          United States Representative, Dist 10                   OVER VOTES                            PRECINCT 109                                           01 
01050040004000000000000000000000000000000000000          United States Representative, Dist 10                   OVER VOTES                            PRECINCT 115                                           01 
01050040005000000000000000000000000000000000000          United States Representative, Dist 10                   OVER VOTES                            PRECINCT 117                                           01 
01050040006000000000000000000000000000000000000          United States Representative, Dist 10                   OVER VOTES                            PRECINCT 121                                           01 
01050040007000000000000000000000000000000000000          United States Representative, Dist 10                   OVER VOTES                            PRECINCT 202                                           01 
01050040008000000000000000000000000000000000000          United States Representative, Dist 10                   OVER VOTES                            PRECINCT 203                                           01 
01050040009000000000000000000000000000000000000          United States Representative, Dist 10                   OVER VOTES                            PRECINCT 205                                           01 
01050040010000000000000000000000000000000000000          United States Representative, Dist 10                   OVER VOTES                            PRECINCT 208                                           01 
01050040011000000000000000000000000000000000000          United States Representative, Dist 10                   OVER VOTES                            PRECINCT 307                                           01 
01050040012000000000000000000000000000000000000          United States Representative, Dist 10                   OVER VOTES                            PRECINCT 311                                           01 
01050040013000000000000000000000000000000000000          United States Representative, Dist 10                   OVER VOTES                            PRECINCT 312                                           01 
01050040014000000000000000000000000000000000000          United States Representative, Dist 10                   OVER VOTES                            PRECINCT 316                                           01 
01050040015000000000000000000000000000000000000          United States Representative, Dist 10                   OVER VOTES                            PRECINCT 320                                           01 
01050040016000000000000000000000000000000000000          United States Representative, Dist 10                   OVER VOTES                            PRECINCT 406                                           01 
01050040017000000000000000000000000000000000000          United States Representative, Dist 10                   OVER VOTES                            PRECINCT 410                                           01 
01050040018000000000000000000000000000000000000          United States Representative, Dist 10                   OVER VOTES                            PRECINCT 413                                           01 
01050040019000000000000000000000000000000000000          United States Representative, Dist 10                   OVER VOTES                            PRECINCT 414                                           01 
01050040020000000000000000000000000000000000000          United States Representative, Dist 10                   OVER VOTES                            PRECINCT 418                                           01 
01050040021000000000000000000000000000000000000          United States Representative, Dist 10                   OVER VOTES                            PRECINCT 419                                           01 
01050050001000007000002000005000000000000000000          United States Representative, Dist 10                   UNDER VOTES                           PRECINCT 101                                           01 
01050050002000004000002000002000000000000000000          United States Representative, Dist 10                   UNDER VOTES                           PRECINCT 104                                           01 
01050050003000014000005000009000000000000000000          United States Representative, Dist 10                   UNDER VOTES                           PRECINCT 109                                           01 
01050050004000007000001000006000000000000000000          United States Representative, Dist 10                   UNDER VOTES                           PRECINCT 115                                           01 
01050050005000000000000000000000000000000000000          United States Representative, Dist 10                   UNDER VOTES                           PRECINCT 117                                           01 
01050050006000001000000000001000000000000000000          United States Representative, Dist 10                   UNDER VOTES                           PRECINCT 121                                           01 
01050050007000001000001000000000000000000000000          United States Representative, Dist 10                   UNDER VOTES                           PRECINCT 202                                           01 
01050050008000016000005000011000000000000000000          United States Representative, Dist 10                   UNDER VOTES                           PRECINCT 203                                           01 
01050050009000012000010000002000000000000000000          United States Representative, Dist 10                   UNDER VOTES                           PRECINCT 205                                           01 
01050050010000007000005000002000000000000000000          United States Representative, Dist 10                   UNDER VOTES                           PRECINCT 208                                           01 
01050050011000005000004000001000000000000000000          United States Representative, Dist 10                   UNDER VOTES                           PRECINCT 307                                           01 
01050050012000004000002000002000000000000000000          United States Representative, Dist 10                   UNDER VOTES                           PRECINCT 311                                           01 
01050050013000004000004000000000000000000000000          United States Representative, Dist 10                   UNDER VOTES                           PRECINCT 312                                           01 
01050050014000000000000000000000000000000000000          United States Representative, Dist 10                   UNDER VOTES                           PRECINCT 316                                           01 
01050050015000006000003000003000000000000000000          United States Representative, Dist 10                   UNDER VOTES                           PRECINCT 320                                           01 
01050050016000011000009000002000000000000000000          United States Representative, Dist 10                   UNDER VOTES                           PRECINCT 406                                           01 
01050050017000007000002000005000000000000000000          United States Representative, Dist 10                   UNDER VOTES                           PRECINCT 410                                           01 
01050050018000001000001000000000000000000000000          United States Representative, Dist 10                   UNDER VOTES                           PRECINCT 413                                           01 
01050050019000005000005000000000000000000000000          United States Representative, Dist 10                   UNDER VOTES                           PRECINCT 414                                           01 
01050050020000003000002000001000000000000000000          United States Representative, Dist 10                   UNDER VOTES                           PRECINCT 418                                           01 
01050050021000005000003000002000000000000000000          United States Representative, Dist 10                   UNDER VOTES                           PRECINCT 419                                           01 
01060010001000313000127000186000000000000000000REP       Governor                                                Greg Abbott                           PRECINCT 101                                           01 
01060010002000123000071000052000000000000000000REP       Governor                                                Greg Abbott                           PRECINCT 104                                           01 
01060010003000401000189000212000000000000000000REP       Governor                                                Greg Abbott                           PRECINCT 109                                           01 
01060010004000274000170000104000000000000000000REP       Governor                                                Greg Abbott                           PRECINCT 115                                           01 
01060010005000005000000000005000000000000000000REP       Governor                                                Greg Abbott                           PRECINCT 117                                           01 
01060010006000024000012000012000000000000000000REP       Governor                                                Greg Abbott                           PRECINCT 121                                           01 
01060010007000041000029000012000000000000000000REP       Governor                                                Greg Abbott                           PRECINCT 202                                           01 
01060010008000642000341000301000000000000000000REP       Governor                                                Greg Abbott                           PRECINCT 203                                           01 
01060010009000770000508000262000000000000000000REP       Governor                                                Greg Abbott                           PRECINCT 205                                           01 
01060010010000577000310000267000000000000000000REP       Governor                                                Greg Abbott                           PRECINCT 208                                           01 
01060010011000411000255000156000000000000000000REP       Governor                                                Greg Abbott                           PRECINCT 307                                           01 
01060010012000371000186000185000000000000000000REP       Governor                                                Greg Abbott                           PRECINCT 311                                           01 
01060010013000414000217000197000000000000000000REP       Governor                                                Greg Abbott                           PRECINCT 312                                           01 
01060010014000049000031000018000000000000000000REP       Governor                                                Greg Abbott                           PRECINCT 316                                           01 
01060010015000728000452000276000000000000000000REP       Governor                                                Greg Abbott                           PRECINCT 320                                           01 
01060010016000468000288000180000000000000000000REP       Governor                                                Greg Abbott                           PRECINCT 406                                           01 
01060010017000376000171000205000000000000000000REP       Governor                                                Greg Abbott                           PRECINCT 410                                           01 
01060010018000273000136000137000000000000000000REP       Governor                                                Greg Abbott                           PRECINCT 413                                           01 
01060010019000314000208000106000000000000000000REP       Governor                                                Greg Abbott                           PRECINCT 414                                           01 
01060010020000140000090000050000000000000000000REP       Governor                                                Greg Abbott                           PRECINCT 418                                           01 
01060010021000172000114000058000000000000000000REP       Governor                                                Greg Abbott                           PRECINCT 419                                           01 
01060020001000210000091000119000000000000000000DEM       Governor                                                Wendy R. Davis                        PRECINCT 101                                           01 
01060020002000364000216000148000000000000000000DEM       Governor                                                Wendy R. Davis                        PRECINCT 104                                           01 
01060020003000086000048000038000000000000000000DEM       Governor                                                Wendy R. Davis                        PRECINCT 109                                           01 
01060020004000074000043000031000000000000000000DEM       Governor                                                Wendy R. Davis                        PRECINCT 115                                           01 
01060020005000014000007000007000000000000000000DEM       Governor                                                Wendy R. Davis                        PRECINCT 117                                           01 
01060020006000013000010000003000000000000000000DEM       Governor                                                Wendy R. Davis                        PRECINCT 121                                           01 
01060020007000012000006000006000000000000000000DEM       Governor                                                Wendy R. Davis                        PRECINCT 202                                           01 
01060020008000164000065000099000000000000000000DEM       Governor                                                Wendy R. Davis                        PRECINCT 203                                           01 
01060020009000174000095000079000000000000000000DEM       Governor                                                Wendy R. Davis                        PRECINCT 205                                           01 
01060020010000078000041000037000000000000000000DEM       Governor                                                Wendy R. Davis                        PRECINCT 208                                           01 
01060020011000116000075000041000000000000000000DEM       Governor                                                Wendy R. Davis                        PRECINCT 307                                           01 
01060020012000086000043000043000000000000000000DEM       Governor                                                Wendy R. Davis                        PRECINCT 311                                           01 
01060020013000065000037000028000000000000000000DEM       Governor                                                Wendy R. Davis                        PRECINCT 312                                           01 
01060020014000008000006000002000000000000000000DEM       Governor                                                Wendy R. Davis                        PRECINCT 316                                           01 
01060020015000090000058000032000000000000000000DEM       Governor                                                Wendy R. Davis                        PRECINCT 320                                           01 
01060020016000117000080000037000000000000000000DEM       Governor                                                Wendy R. Davis                        PRECINCT 406                                           01 
01060020017000096000047000049000000000000000000DEM       Governor                                                Wendy R. Davis                        PRECINCT 410                                           01 
01060020018000034000016000018000000000000000000DEM       Governor                                                Wendy R. Davis                        PRECINCT 413                                           01 
01060020019000030000023000007000000000000000000DEM       Governor                                                Wendy R. Davis                        PRECINCT 414                                           01 
01060020020000052000032000020000000000000000000DEM       Governor                                                Wendy R. Davis                        PRECINCT 418                                           01 
01060020021000069000047000022000000000000000000DEM       Governor                                                Wendy R. Davis                        PRECINCT 419                                           01 
01060030001000003000002000001000000000000000000LIB       Governor                                                Kathie Glass                          PRECINCT 101                                           01 
01060030002000003000002000001000000000000000000LIB       Governor                                                Kathie Glass                          PRECINCT 104                                           01 
01060030003000006000003000003000000000000000000LIB       Governor                                                Kathie Glass                          PRECINCT 109                                           01 
01060030004000005000002000003000000000000000000LIB       Governor                                                Kathie Glass                          PRECINCT 115                                           01 
01060030005000000000000000000000000000000000000LIB       Governor                                                Kathie Glass                          PRECINCT 117                                           01 
01060030006000002000001000001000000000000000000LIB       Governor                                                Kathie Glass                          PRECINCT 121                                           01 
01060030007000000000000000000000000000000000000LIB       Governor                                                Kathie Glass                          PRECINCT 202                                           01 
01060030008000015000008000007000000000000000000LIB       Governor                                                Kathie Glass                          PRECINCT 203                                           01 
01060030009000024000009000015000000000000000000LIB       Governor                                                Kathie Glass                          PRECINCT 205                                           01 
01060030010000005000000000005000000000000000000LIB       Governor                                                Kathie Glass                          PRECINCT 208                                           01 
01060030011000011000006000005000000000000000000LIB       Governor                                                Kathie Glass                          PRECINCT 307                                           01 
