01010010001001196000000000000000000000000000000          REGISTERED VOTERS - TOTAL                               REGISTERED VOTERS - TOTAL             PRECINCT 101                                           00 
01010010002001858000000000000000000000000000000          REGISTERED VOTERS - TOTAL                               REGISTERED VOTERS - TOTAL             PRECINCT 104                                           00 
01010010003001014000000000000000000000000000000          REGISTERED VOTERS - TOTAL                               REGISTERED VOTERS - TOTAL             PRECINCT 109                                           00 
01010010004000882000000000000000000000000000000          REGISTERED VOTERS - TOTAL                               REGISTERED VOTERS - TOTAL             PRECINCT 115                                           00 
01010010005000099000000000000000000000000000000          REGISTERED VOTERS - TOTAL                               REGISTERED VOTERS - TOTAL             PRECINCT 117                                           00 
01010010006000112000000000000000000000000000000          REGISTERED VOTERS - TOTAL                               REGISTERED VOTERS - TOTAL             PRECINCT 121                                           00 
01010010007000227000000000000000000000000000000          REGISTERED VOTERS - TOTAL                               REGISTERED VOTERS - TOTAL             PRECINCT 202                                           00 
01010010008001819000000000000000000000000000000          REGISTERED VOTERS - TOTAL                               REGISTERED VOTERS - TOTAL             PRECINCT 203                                           00 
01010010009002176000000000000000000000000000000          REGISTERED VOTERS - TOTAL                               REGISTERED VOTERS - TOTAL             PRECINCT 205                                           00 
01010010010001418000000000000000000000000000000          REGISTERED VOTERS - TOTAL                               REGISTERED VOTERS - TOTAL             PRECINCT 208                                           00 
01010010011001535000000000000000000000000000000          REGISTERED VOTERS - TOTAL                               REGISTERED VOTERS - TOTAL             PRECINCT 307                                           00 
01010010012001113000000000000000000000000000000          REGISTERED VOTERS - TOTAL                               REGISTERED VOTERS - TOTAL             PRECINCT 311                                           00 
01010010013001126000000000000000000000000000000          REGISTERED VOTERS - TOTAL                               REGISTERED VOTERS - TOTAL             PRECINCT 312                                           00 
01010010014000228000000000000000000000000000000          REGISTERED VOTERS - TOTAL                               REGISTERED VOTERS - TOTAL             PRECINCT 316                                           00 
01010010015001735000000000000000000000000000000          REGISTERED VOTERS - TOTAL                               REGISTERED VOTERS - TOTAL             PRECINCT 320                                           00 
01010010016001526000000000000000000000000000000          REGISTERED VOTERS - TOTAL                               REGISTERED VOTERS - TOTAL             PRECINCT 406                                           00 
01010010017001092000000000000000000000000000000          REGISTERED VOTERS - TOTAL                               REGISTERED VOTERS - TOTAL             PRECINCT 410                                           00 
01010010018000746000000000000000000000000000000          REGISTERED VOTERS - TOTAL                               REGISTERED VOTERS - TOTAL             PRECINCT 413                                           00 
01010010019000798000000000000000000000000000000          REGISTERED VOTERS - TOTAL                               REGISTERED VOTERS - TOTAL             PRECINCT 414                                           00 
01010010020000651000000000000000000000000000000          REGISTERED VOTERS - TOTAL                               REGISTERED VOTERS - TOTAL             PRECINCT 418                                           00 
01010010021000540000000000000000000000000000000          REGISTERED VOTERS - TOTAL                               REGISTERED VOTERS - TOTAL             PRECINCT 419                                           00 
01020010001000189000106000083000000000000000000          BALLOTS CAST - TOTAL                                    BALLOTS CAST - TOTAL                  PRECINCT 101                                           00 
01020010002000132000055000077000000000000000000          BALLOTS CAST - TOTAL                                    BALLOTS CAST - TOTAL                  PRECINCT 104                                           00 
01020010003000230000121000109000000000000000000          BALLOTS CAST - TOTAL                                    BALLOTS CAST - TOTAL                  PRECINCT 109                                           00 
01020010004000181000081000100000000000000000000          BALLOTS CAST - TOTAL                                    BALLOTS CAST - TOTAL                  PRECINCT 115                                           00 
01020010005000006000001000005000000000000000000          BALLOTS CAST - TOTAL                                    BALLOTS CAST - TOTAL                  PRECINCT 117                                           00 
01020010006000020000003000017000000000000000000          BALLOTS CAST - TOTAL                                    BALLOTS CAST - TOTAL                  PRECINCT 121                                           00 
01020010007000020000005000015000000000000000000          BALLOTS CAST - TOTAL                                    BALLOTS CAST - TOTAL                  PRECINCT 202                                           00 
01020010008000416000239000177000000000000000000          BALLOTS CAST - TOTAL                                    BALLOTS CAST - TOTAL                  PRECINCT 203                                           00 
01020010009000526000197000329000000000000000000          BALLOTS CAST - TOTAL                                    BALLOTS CAST - TOTAL                  PRECINCT 205                                           00 
01020010010000413000193000220000000000000000000          BALLOTS CAST - TOTAL                                    BALLOTS CAST - TOTAL                  PRECINCT 208                                           00 
01020010011000367000132000235000000000000000000          BALLOTS CAST - TOTAL                                    BALLOTS CAST - TOTAL                  PRECINCT 307                                           00 
01020010012000250000129000121000000000000000000          BALLOTS CAST - TOTAL                                    BALLOTS CAST - TOTAL                  PRECINCT 311                                           00 
01020010013000277000154000123000000000000000000          BALLOTS CAST - TOTAL                                    BALLOTS CAST - TOTAL                  PRECINCT 312                                           00 
01020010014000046000010000036000000000000000000          BALLOTS CAST - TOTAL                                    BALLOTS CAST - TOTAL                  PRECINCT 316                                           00 
01020010015000560000225000335000000000000000000          BALLOTS CAST - TOTAL                                    BALLOTS CAST - TOTAL                  PRECINCT 320                                           00 
01020010016000363000128000235000000000000000000          BALLOTS CAST - TOTAL                                    BALLOTS CAST - TOTAL                  PRECINCT 406                                           00 
01020010017000291000185000106000000000000000000          BALLOTS CAST - TOTAL                                    BALLOTS CAST - TOTAL                  PRECINCT 410                                           00 
01020010018000224000118000106000000000000000000          BALLOTS CAST - TOTAL                                    BALLOTS CAST - TOTAL                  PRECINCT 413                                           00 
01020010019000222000095000127000000000000000000          BALLOTS CAST - TOTAL                                    BALLOTS CAST - TOTAL                  PRECINCT 414                                           00 
01020010020000106000033000073000000000000000000          BALLOTS CAST - TOTAL                                    BALLOTS CAST - TOTAL                  PRECINCT 418                                           00 
01020010021000139000048000091000000000000000000          BALLOTS CAST - TOTAL                                    BALLOTS CAST - TOTAL                  PRECINCT 419                                           00 
01030010001000155000086000069000000000000000000REP       BALLOTS CAST - REPUBLICAN PARTY                         BALLOTS CAST - REPUBLICAN PARTY       PRECINCT 101                                           00 
01030010002000062000024000038000000000000000000REP       BALLOTS CAST - REPUBLICAN PARTY                         BALLOTS CAST - REPUBLICAN PARTY       PRECINCT 104                                           00 
01030010003000217000117000100000000000000000000REP       BALLOTS CAST - REPUBLICAN PARTY                         BALLOTS CAST - REPUBLICAN PARTY       PRECINCT 109                                           00 
01030010004000170000076000094000000000000000000REP       BALLOTS CAST - REPUBLICAN PARTY                         BALLOTS CAST - REPUBLICAN PARTY       PRECINCT 115                                           00 
01030010005000004000001000003000000000000000000REP       BALLOTS CAST - REPUBLICAN PARTY                         BALLOTS CAST - REPUBLICAN PARTY       PRECINCT 117                                           00 
01030010006000015000002000013000000000000000000REP       BALLOTS CAST - REPUBLICAN PARTY                         BALLOTS CAST - REPUBLICAN PARTY       PRECINCT 121                                           00 
01030010007000016000002000014000000000000000000REP       BALLOTS CAST - REPUBLICAN PARTY                         BALLOTS CAST - REPUBLICAN PARTY       PRECINCT 202                                           00 
01030010008000393000221000172000000000000000000REP       BALLOTS CAST - REPUBLICAN PARTY                         BALLOTS CAST - REPUBLICAN PARTY       PRECINCT 203                                           00 
01030010009000492000189000303000000000000000000REP       BALLOTS CAST - REPUBLICAN PARTY                         BALLOTS CAST - REPUBLICAN PARTY       PRECINCT 205                                           00 
01030010010000400000186000214000000000000000000REP       BALLOTS CAST - REPUBLICAN PARTY                         BALLOTS CAST - REPUBLICAN PARTY       PRECINCT 208                                           00 
01030010011000342000123000219000000000000000000REP       BALLOTS CAST - REPUBLICAN PARTY                         BALLOTS CAST - REPUBLICAN PARTY       PRECINCT 307                                           00 
01030010012000235000122000113000000000000000000REP       BALLOTS CAST - REPUBLICAN PARTY                         BALLOTS CAST - REPUBLICAN PARTY       PRECINCT 311                                           00 
01030010013000272000150000122000000000000000000REP       BALLOTS CAST - REPUBLICAN PARTY                         BALLOTS CAST - REPUBLICAN PARTY       PRECINCT 312                                           00 
01030010014000042000007000035000000000000000000REP       BALLOTS CAST - REPUBLICAN PARTY                         BALLOTS CAST - REPUBLICAN PARTY       PRECINCT 316                                           00 
01030010015000535000215000320000000000000000000REP       BALLOTS CAST - REPUBLICAN PARTY                         BALLOTS CAST - REPUBLICAN PARTY       PRECINCT 320                                           00 
01030010016000338000123000215000000000000000000REP       BALLOTS CAST - REPUBLICAN PARTY                         BALLOTS CAST - REPUBLICAN PARTY       PRECINCT 406                                           00 
01030010017000269000172000097000000000000000000REP       BALLOTS CAST - REPUBLICAN PARTY                         BALLOTS CAST - REPUBLICAN PARTY       PRECINCT 410                                           00 
01030010018000217000114000103000000000000000000REP       BALLOTS CAST - REPUBLICAN PARTY                         BALLOTS CAST - REPUBLICAN PARTY       PRECINCT 413                                           00 
01030010019000218000095000123000000000000000000REP       BALLOTS CAST - REPUBLICAN PARTY                         BALLOTS CAST - REPUBLICAN PARTY       PRECINCT 414                                           00 
01030010020000092000029000063000000000000000000REP       BALLOTS CAST - REPUBLICAN PARTY                         BALLOTS CAST - REPUBLICAN PARTY       PRECINCT 418                                           00 
01030010021000124000037000087000000000000000000REP       BALLOTS CAST - REPUBLICAN PARTY                         BALLOTS CAST - REPUBLICAN PARTY       PRECINCT 419                                           00 
01040010001000034000020000014000000000000000000DEM       BALLOTS CAST - DEMOCRATIC PARTY                         BALLOTS CAST - DEMOCRATIC PARTY       PRECINCT 101                                           00 
01040010002000070000031000039000000000000000000DEM       BALLOTS CAST - DEMOCRATIC PARTY                         BALLOTS CAST - DEMOCRATIC PARTY       PRECINCT 104                                           00 
01040010003000013000004000009000000000000000000DEM       BALLOTS CAST - DEMOCRATIC PARTY                         BALLOTS CAST - DEMOCRATIC PARTY       PRECINCT 109                                           00 
01040010004000011000005000006000000000000000000DEM       BALLOTS CAST - DEMOCRATIC PARTY                         BALLOTS CAST - DEMOCRATIC PARTY       PRECINCT 115                                           00 
01040010005000002000000000002000000000000000000DEM       BALLOTS CAST - DEMOCRATIC PARTY                         BALLOTS CAST - DEMOCRATIC PARTY       PRECINCT 117                                           00 
01040010006000005000001000004000000000000000000DEM       BALLOTS CAST - DEMOCRATIC PARTY                         BALLOTS CAST - DEMOCRATIC PARTY       PRECINCT 121                                           00 
01040010007000004000003000001000000000000000000DEM       BALLOTS CAST - DEMOCRATIC PARTY                         BALLOTS CAST - DEMOCRATIC PARTY       PRECINCT 202                                           00 
01040010008000023000018000005000000000000000000DEM       BALLOTS CAST - DEMOCRATIC PARTY                         BALLOTS CAST - DEMOCRATIC PARTY       PRECINCT 203                                           00 
01040010009000034000008000026000000000000000000DEM       BALLOTS CAST - DEMOCRATIC PARTY                         BALLOTS CAST - DEMOCRATIC PARTY       PRECINCT 205                                           00 
01040010010000013000007000006000000000000000000DEM       BALLOTS CAST - DEMOCRATIC PARTY                         BALLOTS CAST - DEMOCRATIC PARTY       PRECINCT 208                                           00 
01040010011000025000009000016000000000000000000DEM       BALLOTS CAST - DEMOCRATIC PARTY                         BALLOTS CAST - DEMOCRATIC PARTY       PRECINCT 307                                           00 
01040010012000015000007000008000000000000000000DEM       BALLOTS CAST - DEMOCRATIC PARTY                         BALLOTS CAST - DEMOCRATIC PARTY       PRECINCT 311                                           00 
01040010013000005000004000001000000000000000000DEM       BALLOTS CAST - DEMOCRATIC PARTY                         BALLOTS CAST - DEMOCRATIC PARTY       PRECINCT 312                                           00 
01040010014000004000003000001000000000000000000DEM       BALLOTS CAST - DEMOCRATIC PARTY                         BALLOTS CAST - DEMOCRATIC PARTY       PRECINCT 316                                           00 
01040010015000025000010000015000000000000000000DEM       BALLOTS CAST - DEMOCRATIC PARTY                         BALLOTS CAST - DEMOCRATIC PARTY       PRECINCT 320                                           00 
01040010016000025000005000020000000000000000000DEM       BALLOTS CAST - DEMOCRATIC PARTY                         BALLOTS CAST - DEMOCRATIC PARTY       PRECINCT 406                                           00 
01040010017000022000013000009000000000000000000DEM       BALLOTS CAST - DEMOCRATIC PARTY                         BALLOTS CAST - DEMOCRATIC PARTY       PRECINCT 410                                           00 
01040010018000007000004000003000000000000000000DEM       BALLOTS CAST - DEMOCRATIC PARTY                         BALLOTS CAST - DEMOCRATIC PARTY       PRECINCT 413                                           00 
01040010019000004000000000004000000000000000000DEM       BALLOTS CAST - DEMOCRATIC PARTY                         BALLOTS CAST - DEMOCRATIC PARTY       PRECINCT 414                                           00 
01040010020000014000004000010000000000000000000DEM       BALLOTS CAST - DEMOCRATIC PARTY                         BALLOTS CAST - DEMOCRATIC PARTY       PRECINCT 418                                           00 
01040010021000015000011000004000000000000000000DEM       BALLOTS CAST - DEMOCRATIC PARTY                         BALLOTS CAST - DEMOCRATIC PARTY       PRECINCT 419                                           00 
01050010001000043000028000015000000000000000000REP       United States Senator                                   Steve Stockman                        PRECINCT 101                                           01 
01050010002000018000009000009000000000000000000REP       United States Senator                                   Steve Stockman                        PRECINCT 104                                           01 
01050010003000055000037000018000000000000000000REP       United States Senator                                   Steve Stockman                        PRECINCT 109                                           01 
01050010004000049000025000024000000000000000000REP       United States Senator                                   Steve Stockman                        PRECINCT 115                                           01 
01050010005000001000001000000000000000000000000REP       United States Senator                                   Steve Stockman                        PRECINCT 117                                           01 
01050010006000004000000000004000000000000000000REP       United States Senator                                   Steve Stockman                        PRECINCT 121                                           01 
01050010007000003000002000001000000000000000000REP       United States Senator                                   Steve Stockman                        PRECINCT 202                                           01 
01050010008000111000066000045000000000000000000REP       United States Senator                                   Steve Stockman                        PRECINCT 203                                           01 
01050010009000088000039000049000000000000000000REP       United States Senator                                   Steve Stockman                        PRECINCT 205                                           01 
01050010010000088000037000051000000000000000000REP       United States Senator                                   Steve Stockman                        PRECINCT 208                                           01 
01050010011000074000031000043000000000000000000REP       United States Senator                                   Steve Stockman                        PRECINCT 307                                           01 
01050010012000050000026000024000000000000000000REP       United States Senator                                   Steve Stockman                        PRECINCT 311                                           01 
01050010013000078000050000028000000000000000000REP       United States Senator                                   Steve Stockman                        PRECINCT 312                                           01 
01050010014000009000002000007000000000000000000REP       United States Senator                                   Steve Stockman                        PRECINCT 316                                           01 
01050010015000128000057000071000000000000000000REP       United States Senator                                   Steve Stockman                        PRECINCT 320                                           01 
01050010016000087000051000036000000000000000000REP       United States Senator                                   Steve Stockman                        PRECINCT 406                                           01 
01050010017000082000055000027000000000000000000REP       United States Senator                                   Steve Stockman                        PRECINCT 410                                           01 
01050010018000057000032000025000000000000000000REP       United States Senator                                   Steve Stockman                        PRECINCT 413                                           01 
01050010019000054000032000022000000000000000000REP       United States Senator                                   Steve Stockman                        PRECINCT 414                                           01 
01050010020000024000009000015000000000000000000REP       United States Senator                                   Steve Stockman                        PRECINCT 418                                           01 
01050010021000028000011000017000000000000000000REP       United States Senator                                   Steve Stockman                        PRECINCT 419                                           01 
01050020001000024000014000010000000000000000000REP       United States Senator                                   Dwayne Stovall                        PRECINCT 101                                           01 
01050020002000004000000000004000000000000000000REP       United States Senator                                   Dwayne Stovall                        PRECINCT 104                                           01 
01050020003000026000012000014000000000000000000REP       United States Senator                                   Dwayne Stovall                        PRECINCT 109                                           01 
01050020004000010000002000008000000000000000000REP       United States Senator                                   Dwayne Stovall                        PRECINCT 115                                           01 
01050020005000000000000000000000000000000000000REP       United States Senator                                   Dwayne Stovall                        PRECINCT 117                                           01 
01050020006000000000000000000000000000000000000REP       United States Senator                                   Dwayne Stovall                        PRECINCT 121                                           01 
01050020007000001000000000001000000000000000000REP       United States Senator                                   Dwayne Stovall                        PRECINCT 202                                           01 
01050020008000047000031000016000000000000000000REP       United States Senator                                   Dwayne Stovall                        PRECINCT 203                                           01 
01050020009000025000014000011000000000000000000REP       United States Senator                                   Dwayne Stovall                        PRECINCT 205                                           01 
01050020010000031000018000013000000000000000000REP       United States Senator                                   Dwayne Stovall                        PRECINCT 208                                           01 
01050020011000024000011000013000000000000000000REP       United States Senator                                   Dwayne Stovall                        PRECINCT 307                                           01 
01050020012000035000020000015000000000000000000REP       United States Senator                                   Dwayne Stovall                        PRECINCT 311                                           01 
01050020013000017000012000005000000000000000000REP       United States Senator                                   Dwayne Stovall                        PRECINCT 312                                           01 
01050020014000000000000000000000000000000000000REP       United States Senator                                   Dwayne Stovall                        PRECINCT 316                                           01 
01050020015000036000023000013000000000000000000REP       United States Senator                                   Dwayne Stovall                        PRECINCT 320                                           01 
01050020016000016000006000010000000000000000000REP       United States Senator                                   Dwayne Stovall                        PRECINCT 406                                           01 
01050020017000017000015000002000000000000000000REP       United States Senator                                   Dwayne Stovall                        PRECINCT 410                                           01 
01050020018000018000012000006000000000000000000REP       United States Senator                                   Dwayne Stovall                        PRECINCT 413                                           01 
01050020019000017000007000010000000000000000000REP       United States Senator                                   Dwayne Stovall                        PRECINCT 414                                           01 
01050020020000004000002000002000000000000000000REP       United States Senator                                   Dwayne Stovall                        PRECINCT 418                                           01 
01050020021000006000001000005000000000000000000REP       United States Senator                                   Dwayne Stovall                        PRECINCT 419                                           01 
01050030001000000000000000000000000000000000000REP       United States Senator                                   Ken Cope                              PRECINCT 101                                           01 
01050030002000001000000000001000000000000000000REP       United States Senator                                   Ken Cope                              PRECINCT 104                                           01 
01050030003000005000000000005000000000000000000REP       United States Senator                                   Ken Cope                              PRECINCT 109                                           01 
01050030004000001000000000001000000000000000000REP       United States Senator                                   Ken Cope                              PRECINCT 115                                           01 
01050030005000000000000000000000000000000000000REP       United States Senator                                   Ken Cope                              PRECINCT 117                                           01 
01050030006000000000000000000000000000000000000REP       United States Senator                                   Ken Cope                              PRECINCT 121                                           01 
01050030007000000000000000000000000000000000000REP       United States Senator                                   Ken Cope                              PRECINCT 202                                           01 
01050030008000003000002000001000000000000000000REP       United States Senator                                   Ken Cope                              PRECINCT 203                                           01 
01050030009000003000002000001000000000000000000REP       United States Senator                                   Ken Cope                              PRECINCT 205                                           01 
01050030010000005000001000004000000000000000000REP       United States Senator                                   Ken Cope                              PRECINCT 208                                           01 
01050030011000008000004000004000000000000000000REP       United States Senator                                   Ken Cope                              PRECINCT 307                                           01 
01050030012000003000001000002000000000000000000REP       United States Senator                                   Ken Cope                              PRECINCT 311                                           01 
01050030013000006000003000003000000000000000000REP       United States Senator                                   Ken Cope                              PRECINCT 312                                           01 
01050030014000001000000000001000000000000000000REP       United States Senator                                   Ken Cope                              PRECINCT 316                                           01 
01050030015000013000004000009000000000000000000REP       United States Senator                                   Ken Cope                              PRECINCT 320                                           01 
01050030016000005000001000004000000000000000000REP       United States Senator                                   Ken Cope                              PRECINCT 406                                           01 
01050030017000003000003000000000000000000000000REP       United States Senator                                   Ken Cope                              PRECINCT 410                                           01 
01050030018000005000005000000000000000000000000REP       United States Senator                                   Ken Cope                              PRECINCT 413                                           01 
01050030019000003000002000001000000000000000000REP       United States Senator                                   Ken Cope                              PRECINCT 414                                           01 
01050030020000000000000000000000000000000000000REP       United States Senator                                   Ken Cope                              PRECINCT 418                                           01 
01050030021000004000002000002000000000000000000REP       United States Senator                                   Ken Cope                              PRECINCT 419                                           01 
01050040001000001000001000000000000000000000000REP       United States Senator                                   Reid Reasor                           PRECINCT 101                                           01 
01050040002000000000000000000000000000000000000REP       United States Senator                                   Reid Reasor                           PRECINCT 104                                           01 
01050040003000000000000000000000000000000000000REP       United States Senator                                   Reid Reasor                           PRECINCT 109                                           01 
01050040004000000000000000000000000000000000000REP       United States Senator                                   Reid Reasor                           PRECINCT 115                                           01 
01050040005000000000000000000000000000000000000REP       United States Senator                                   Reid Reasor                           PRECINCT 117                                           01 
01050040006000001000000000001000000000000000000REP       United States Senator                                   Reid Reasor                           PRECINCT 121                                           01 
01050040007000000000000000000000000000000000000REP       United States Senator                                   Reid Reasor                           PRECINCT 202                                           01 
01050040008000008000006000002000000000000000000REP       United States Senator                                   Reid Reasor                           PRECINCT 203                                           01 
01050040009000003000002000001000000000000000000REP       United States Senator                                   Reid Reasor                           PRECINCT 205                                           01 
01050040010000002000001000001000000000000000000REP       United States Senator                                   Reid Reasor                           PRECINCT 208                                           01 
01050040011000003000001000002000000000000000000REP       United States Senator                                   Reid Reasor                           PRECINCT 307                                           01 
01050040012000001000001000000000000000000000000REP       United States Senator                                   Reid Reasor                           PRECINCT 311                                           01 
01050040013000001000000000001000000000000000000REP       United States Senator                                   Reid Reasor                           PRECINCT 312                                           01 
01050040014000001000000000001000000000000000000REP       United States Senator                                   Reid Reasor                           PRECINCT 316                                           01 
01050040015000006000004000002000000000000000000REP       United States Senator                                   Reid Reasor                           PRECINCT 320                                           01 
01050040016000001000000000001000000000000000000REP       United States Senator                                   Reid Reasor                           PRECINCT 406                                           01 
01050040017000006000004000002000000000000000000REP       United States Senator                                   Reid Reasor                           PRECINCT 410                                           01 
01050040018000002000001000001000000000000000000REP       United States Senator                                   Reid Reasor                           PRECINCT 413                                           01 
01050040019000003000003000000000000000000000000REP       United States Senator                                   Reid Reasor                           PRECINCT 414                                           01 
01050040020000000000000000000000000000000000000REP       United States Senator                                   Reid Reasor                           PRECINCT 418                                           01 
01050040021000000000000000000000000000000000000REP       United States Senator                                   Reid Reasor                           PRECINCT 419                                           01 
01050050001000000000000000000000000000000000000REP       United States Senator                                   Curt Cleaver                          PRECINCT 101                                           01 
01050050002000001000001000000000000000000000000REP       United States Senator                                   Curt Cleaver                          PRECINCT 104                                           01 
01050050003000000000000000000000000000000000000REP       United States Senator                                   Curt Cleaver                          PRECINCT 109                                           01 
01050050004000002000001000001000000000000000000REP       United States Senator                                   Curt Cleaver                          PRECINCT 115                                           01 
01050050005000002000000000002000000000000000000REP       United States Senator                                   Curt Cleaver                          PRECINCT 117                                           01 
01050050006000000000000000000000000000000000000REP       United States Senator                                   Curt Cleaver                          PRECINCT 121                                           01 
01050050007000001000000000001000000000000000000REP       United States Senator                                   Curt Cleaver                          PRECINCT 202                                           01 
01050050008000000000000000000000000000000000000REP       United States Senator                                   Curt Cleaver                          PRECINCT 203                                           01 
01050050009000000000000000000000000000000000000REP       United States Senator                                   Curt Cleaver                          PRECINCT 205                                           01 
01050050010000002000002000000000000000000000000REP       United States Senator                                   Curt Cleaver                          PRECINCT 208                                           01 
01050050011000001000000000001000000000000000000REP       United States Senator                                   Curt Cleaver                          PRECINCT 307                                           01 
01050050012000000000000000000000000000000000000REP       United States Senator                                   Curt Cleaver                          PRECINCT 311                                           01 
01050050013000002000002000000000000000000000000REP       United States Senator                                   Curt Cleaver                          PRECINCT 312                                           01 
01050050014000000000000000000000000000000000000REP       United States Senator                                   Curt Cleaver                          PRECINCT 316                                           01 
01050050015000008000003000005000000000000000000REP       United States Senator                                   Curt Cleaver                          PRECINCT 320                                           01 
01050050016000001000001000000000000000000000000REP       United States Senator                                   Curt Cleaver                          PRECINCT 406                                           01 
01050050017000000000000000000000000000000000000REP       United States Senator                                   Curt Cleaver                          PRECINCT 410                                           01 
01050050018000004000002000002000000000000000000REP       United States Senator                                   Curt Cleaver                          PRECINCT 413                                           01 
01050050019000000000000000000000000000000000000REP       United States Senator                                   Curt Cleaver                          PRECINCT 414                                           01 
01050050020000000000000000000000000000000000000REP       United States Senator                                   Curt Cleaver                          PRECINCT 418                                           01 
01050050021000001000000000001000000000000000000REP       United States Senator                                   Curt Cleaver                          PRECINCT 419                                           01 
01050060001000004000002000002000000000000000000REP       United States Senator                                   Linda Vega                            PRECINCT 101                                           01 
01050060002000004000002000002000000000000000000REP       United States Senator                                   Linda Vega                            PRECINCT 104                                           01 
01050060003000004000000000004000000000000000000REP       United States Senator                                   Linda Vega                            PRECINCT 109                                           01 
01050060004000000000000000000000000000000000000REP       United States Senator                                   Linda Vega                            PRECINCT 115                                           01 
01050060005000001000000000001000000000000000000REP       United States Senator                                   Linda Vega                            PRECINCT 117                                           01 
01050060006000001000000000001000000000000000000REP       United States Senator                                   Linda Vega                            PRECINCT 121                                           01 
01050060007000001000000000001000000000000000000REP       United States Senator                                   Linda Vega                            PRECINCT 202                                           01 
01050060008000009000006000003000000000000000000REP       United States Senator                                   Linda Vega                            PRECINCT 203                                           01 
01050060009000013000004000009000000000000000000REP       United States Senator                                   Linda Vega                            PRECINCT 205                                           01 
01050060010000003000002000001000000000000000000REP       United States Senator                                   Linda Vega                            PRECINCT 208                                           01 
01050060011000019000006000013000000000000000000REP       United States Senator                                   Linda Vega                            PRECINCT 307                                           01 
01050060012000009000003000006000000000000000000REP       United States Senator                                   Linda Vega                            PRECINCT 311                                           01 
01050060013000008000005000003000000000000000000REP       United States Senator                                   Linda Vega                            PRECINCT 312                                           01 
01050060014000002000000000002000000000000000000REP       United States Senator                                   Linda Vega                            PRECINCT 316                                           01 
01050060015000014000005000009000000000000000000REP       United States Senator                                   Linda Vega                            PRECINCT 320                                           01 
01050060016000006000002000004000000000000000000REP       United States Senator                                   Linda Vega                            PRECINCT 406                                           01 
01050060017000008000003000005000000000000000000REP       United States Senator                                   Linda Vega                            PRECINCT 410                                           01 
01050060018000003000001000002000000000000000000REP       United States Senator                                   Linda Vega                            PRECINCT 413                                           01 
01050060019000004000003000001000000000000000000REP       United States Senator                                   Linda Vega                            PRECINCT 414                                           01 
01050060020000002000000000002000000000000000000REP       United States Senator                                   Linda Vega                            PRECINCT 418                                           01 
01050060021000005000000000005000000000000000000REP       United States Senator                                   Linda Vega                            PRECINCT 419                                           01 
01050070001000005000003000002000000000000000000REP       United States Senator                                   Chris Mapp                            PRECINCT 101                                           01 
01050070002000002000002000000000000000000000000REP       United States Senator                                   Chris Mapp                            PRECINCT 104                                           01 
01050070003000001000000000001000000000000000000REP       United States Senator                                   Chris Mapp                            PRECINCT 109                                           01 
01050070004000001000000000001000000000000000000REP       United States Senator                                   Chris Mapp                            PRECINCT 115                                           01 
01050070005000000000000000000000000000000000000REP       United States Senator                                   Chris Mapp                            PRECINCT 117                                           01 
01050070006000001000001000000000000000000000000REP       United States Senator                                   Chris Mapp                            PRECINCT 121                                           01 
01050070007000000000000000000000000000000000000REP       United States Senator                                   Chris Mapp                            PRECINCT 202                                           01 
01050070008000010000006000004000000000000000000REP       United States Senator                                   Chris Mapp                            PRECINCT 203                                           01 
01050070009000009000005000004000000000000000000REP       United States Senator                                   Chris Mapp                            PRECINCT 205                                           01 
01050070010000009000004000005000000000000000000REP       United States Senator                                   Chris Mapp                            PRECINCT 208                                           01 
01050070011000009000006000003000000000000000000REP       United States Senator                                   Chris Mapp                            PRECINCT 307                                           01 
01050070012000003000001000002000000000000000000REP       United States Senator                                   Chris Mapp                            PRECINCT 311                                           01 
01050070013000001000001000000000000000000000000REP       United States Senator                                   Chris Mapp                            PRECINCT 312                                           01 
01050070014000000000000000000000000000000000000REP       United States Senator                                   Chris Mapp                            PRECINCT 316                                           01 
01050070015000008000000000008000000000000000000REP       United States Senator                                   Chris Mapp                            PRECINCT 320                                           01 
01050070016000006000003000003000000000000000000REP       United States Senator                                   Chris Mapp                            PRECINCT 406                                           01 
01050070017000004000004000000000000000000000000REP       United States Senator                                   Chris Mapp                            PRECINCT 410                                           01 
01050070018000003000003000000000000000000000000REP       United States Senator                                   Chris Mapp                            PRECINCT 413                                           01 
01050070019000005000001000004000000000000000000REP       United States Senator                                   Chris Mapp                            PRECINCT 414                                           01 
01050070020000002000001000001000000000000000000REP       United States Senator                                   Chris Mapp                            PRECINCT 418                                           01 
01050070021000001000000000001000000000000000000REP       United States Senator                                   Chris Mapp                            PRECINCT 419                                           01 
01050080001000071000035000036000000000000000000REP       United States Senator                                   John Cornyn                           PRECINCT 101                                           01 
01050080002000030000009000021000000000000000000REP       United States Senator                                   John Cornyn                           PRECINCT 104                                           01 
01050080003000111000063000048000000000000000000REP       United States Senator                                   John Cornyn                           PRECINCT 109                                           01 
01050080004000100000044000056000000000000000000REP       United States Senator                                   John Cornyn                           PRECINCT 115                                           01 
01050080005000000000000000000000000000000000000REP       United States Senator                                   John Cornyn                           PRECINCT 117                                           01 
01050080006000007000001000006000000000000000000REP       United States Senator                                   John Cornyn                           PRECINCT 121                                           01 
01050080007000009000000000009000000000000000000REP       United States Senator                                   John Cornyn                           PRECINCT 202                                           01 
01050080008000188000097000091000000000000000000REP       United States Senator                                   John Cornyn                           PRECINCT 203                                           01 
01050080009000320000110000210000000000000000000REP       United States Senator                                   John Cornyn                           PRECINCT 205                                           01 
01050080010000236000107000129000000000000000000REP       United States Senator                                   John Cornyn                           PRECINCT 208                                           01 
01050080011000179000053000126000000000000000000REP       United States Senator                                   John Cornyn                           PRECINCT 307                                           01 
01050080012000117000061000056000000000000000000REP       United States Senator                                   John Cornyn                           PRECINCT 311                                           01 
01050080013000141000068000073000000000000000000REP       United States Senator                                   John Cornyn                           PRECINCT 312                                           01 
01050080014000025000004000021000000000000000000REP       United States Senator                                   John Cornyn                           PRECINCT 316                                           01 
01050080015000274000101000173000000000000000000REP       United States Senator                                   John Cornyn                           PRECINCT 320                                           01 
01050080016000196000052000144000000000000000000REP       United States Senator                                   John Cornyn                           PRECINCT 406                                           01 
01050080017000138000079000059000000000000000000REP       United States Senator                                   John Cornyn                           PRECINCT 410                                           01 
01050080018000113000052000061000000000000000000REP       United States Senator                                   John Cornyn                           PRECINCT 413                                           01 
01050080019000116000039000077000000000000000000REP       United States Senator                                   John Cornyn                           PRECINCT 414                                           01 
01050080020000053000016000037000000000000000000REP       United States Senator                                   John Cornyn                           PRECINCT 418                                           01 
01050080021000069000019000050000000000000000000REP       United States Senator                                   John Cornyn                           PRECINCT 419                                           01 
01050090001000000000000000000000000000000000000REP       United States Senator                                   OVER VOTES                            PRECINCT 101                                           01 
01050090002000000000000000000000000000000000000REP       United States Senator                                   OVER VOTES                            PRECINCT 104                                           01 
01050090003000000000000000000000000000000000000REP       United States Senator                                   OVER VOTES                            PRECINCT 109                                           01 
01050090004000000000000000000000000000000000000REP       United States Senator                                   OVER VOTES                            PRECINCT 115                                           01 
01050090005000000000000000000000000000000000000REP       United States Senator                                   OVER VOTES                            PRECINCT 117                                           01 
01050090006000000000000000000000000000000000000REP       United States Senator                                   OVER VOTES                            PRECINCT 121                                           01 
01050090007000000000000000000000000000000000000REP       United States Senator                                   OVER VOTES                            PRECINCT 202                                           01 
01050090008000000000000000000000000000000000000REP       United States Senator                                   OVER VOTES                            PRECINCT 203                                           01 
01050090009000000000000000000000000000000000000REP       United States Senator                                   OVER VOTES                            PRECINCT 205                                           01 
01050090010000000000000000000000000000000000000REP       United States Senator                                   OVER VOTES                            PRECINCT 208                                           01 
01050090011000000000000000000000000000000000000REP       United States Senator                                   OVER VOTES                            PRECINCT 307                                           01 
01050090012000000000000000000000000000000000000REP       United States Senator                                   OVER VOTES                            PRECINCT 311                                           01 
01050090013000000000000000000000000000000000000REP       United States Senator                                   OVER VOTES                            PRECINCT 312                                           01 
01050090014000000000000000000000000000000000000REP       United States Senator                                   OVER VOTES                            PRECINCT 316                                           01 
01050090015000000000000000000000000000000000000REP       United States Senator                                   OVER VOTES                            PRECINCT 320                                           01 
01050090016000000000000000000000000000000000000REP       United States Senator                                   OVER VOTES                            PRECINCT 406                                           01 
01050090017000000000000000000000000000000000000REP       United States Senator                                   OVER VOTES                            PRECINCT 410                                           01 
01050090018000000000000000000000000000000000000REP       United States Senator                                   OVER VOTES                            PRECINCT 413                                           01 
01050090019000000000000000000000000000000000000REP       United States Senator                                   OVER VOTES                            PRECINCT 414                                           01 
01050090020000000000000000000000000000000000000REP       United States Senator                                   OVER VOTES                            PRECINCT 418                                           01 
01050090021000000000000000000000000000000000000REP       United States Senator                                   OVER VOTES                            PRECINCT 419                                           01 
01050100001000007000003000004000000000000000000REP       United States Senator                                   UNDER VOTES                           PRECINCT 101                                           01 
01050100002000002000001000001000000000000000000REP       United States Senator                                   UNDER VOTES                           PRECINCT 104                                           01 
01050100003000015000005000010000000000000000000REP       United States Senator                                   UNDER VOTES                           PRECINCT 109                                           01 
01050100004000007000004000003000000000000000000REP       United States Senator                                   UNDER VOTES                           PRECINCT 115                                           01 
01050100005000000000000000000000000000000000000REP       United States Senator                                   UNDER VOTES                           PRECINCT 117                                           01 
01050100006000001000000000001000000000000000000REP       United States Senator                                   UNDER VOTES                           PRECINCT 121                                           01 
01050100007000001000000000001000000000000000000REP       United States Senator                                   UNDER VOTES                           PRECINCT 202                                           01 
01050100008000017000007000010000000000000000000REP       United States Senator                                   UNDER VOTES                           PRECINCT 203                                           01 
01050100009000031000013000018000000000000000000REP       United States Senator                                   UNDER VOTES                           PRECINCT 205                                           01 
01050100010000024000014000010000000000000000000REP       United States Senator                                   UNDER VOTES                           PRECINCT 208                                           01 
01050100011000025000011000014000000000000000000REP       United States Senator                                   UNDER VOTES                           PRECINCT 307                                           01 
01050100012000017000009000008000000000000000000REP       United States Senator                                   UNDER VOTES                           PRECINCT 311                                           01 
01050100013000018000009000009000000000000000000REP       United States Senator                                   UNDER VOTES                           PRECINCT 312                                           01 
01050100014000004000001000003000000000000000000REP       United States Senator                                   UNDER VOTES                           PRECINCT 316                                           01 
01050100015000048000018000030000000000000000000REP       United States Senator                                   UNDER VOTES                           PRECINCT 320                                           01 
01050100016000020000007000013000000000000000000REP       United States Senator                                   UNDER VOTES                           PRECINCT 406                                           01 
01050100017000011000009000002000000000000000000REP       United States Senator                                   UNDER VOTES                           PRECINCT 410                                           01 
01050100018000012000006000006000000000000000000REP       United States Senator                                   UNDER VOTES                           PRECINCT 413                                           01 
01050100019000016000008000008000000000000000000REP       United States Senator                                   UNDER VOTES                           PRECINCT 414                                           01 
01050100020000007000001000006000000000000000000REP       United States Senator                                   UNDER VOTES                           PRECINCT 418                                           01 
01050100021000010000004000006000000000000000000REP       United States Senator                                   UNDER VOTES                           PRECINCT 419                                           01 
01060010001000107000053000054000000000000000000REP       United States Representative, Dist 10                   Michael McCaul                        PRECINCT 101                                           01 
01060010002000046000019000027000000000000000000REP       United States Representative, Dist 10                   Michael McCaul                        PRECINCT 104                                           01 
01060010003000161000092000069000000000000000000REP       United States Representative, Dist 10                   Michael McCaul                        PRECINCT 109                                           01 
01060010004000128000057000071000000000000000000REP       United States Representative, Dist 10                   Michael McCaul                        PRECINCT 115                                           01 
01060010005000001000001000000000000000000000000REP       United States Representative, Dist 10                   Michael McCaul                        PRECINCT 117                                           01 
01060010006000011000002000009000000000000000000REP       United States Representative, Dist 10                   Michael McCaul                        PRECINCT 121                                           01 
01060010007000008000001000007000000000000000000REP       United States Representative, Dist 10                   Michael McCaul                        PRECINCT 202                                           01 
01060010008000269000157000112000000000000000000REP       United States Representative, Dist 10                   Michael McCaul                        PRECINCT 203                                           01 
01060010009000376000144000232000000000000000000REP       United States Representative, Dist 10                   Michael McCaul                        PRECINCT 205                                           01 
01060010010000303000148000155000000000000000000REP       United States Representative, Dist 10                   Michael McCaul                        PRECINCT 208                                           01 
01060010011000259000095000164000000000000000000REP       United States Representative, Dist 10                   Michael McCaul                        PRECINCT 307                                           01 
01060010012000173000091000082000000000000000000REP       United States Representative, Dist 10                   Michael McCaul                        PRECINCT 311                                           01 
01060010013000202000110000092000000000000000000REP       United States Representative, Dist 10                   Michael McCaul                        PRECINCT 312                                           01 
01060010014000030000005000025000000000000000000REP       United States Representative, Dist 10                   Michael McCaul                        PRECINCT 316                                           01 
01060010015000393000150000243000000000000000000REP       United States Representative, Dist 10                   Michael McCaul                        PRECINCT 320                                           01 
01060010016000258000089000169000000000000000000REP       United States Representative, Dist 10                   Michael McCaul                        PRECINCT 406                                           01 
01060010017000203000126000077000000000000000000REP       United States Representative, Dist 10                   Michael McCaul                        PRECINCT 410                                           01 
01060010018000174000093000081000000000000000000REP       United States Representative, Dist 10                   Michael McCaul                        PRECINCT 413                                           01 
01060010019000176000073000103000000000000000000REP       United States Representative, Dist 10                   Michael McCaul                        PRECINCT 414                                           01 
01060010020000074000024000050000000000000000000REP       United States Representative, Dist 10                   Michael McCaul                        PRECINCT 418                                           01 
01060010021000096000032000064000000000000000000REP       United States Representative, Dist 10                   Michael McCaul                        PRECINCT 419                                           01 
01060020001000000000000000000000000000000000000REP       United States Representative, Dist 10                   OVER VOTES                            PRECINCT 101                                           01 
01060020002000000000000000000000000000000000000REP       United States Representative, Dist 10                   OVER VOTES                            PRECINCT 104                                           01 
01060020003000000000000000000000000000000000000REP       United States Representative, Dist 10                   OVER VOTES                            PRECINCT 109                                           01 
01060020004000000000000000000000000000000000000REP       United States Representative, Dist 10                   OVER VOTES                            PRECINCT 115                                           01 
01060020005000000000000000000000000000000000000REP       United States Representative, Dist 10                   OVER VOTES                            PRECINCT 117                                           01 
01060020006000000000000000000000000000000000000REP       United States Representative, Dist 10                   OVER VOTES                            PRECINCT 121                                           01 
01060020007000000000000000000000000000000000000REP       United States Representative, Dist 10                   OVER VOTES                            PRECINCT 202                                           01 
01060020008000000000000000000000000000000000000REP       United States Representative, Dist 10                   OVER VOTES                            PRECINCT 203                                           01 
01060020009000000000000000000000000000000000000REP       United States Representative, Dist 10                   OVER VOTES                            PRECINCT 205                                           01 
01060020010000000000000000000000000000000000000REP       United States Representative, Dist 10                   OVER VOTES                            PRECINCT 208                                           01 
01060020011000000000000000000000000000000000000REP       United States Representative, Dist 10                   OVER VOTES                            PRECINCT 307                                           01 
01060020012000000000000000000000000000000000000REP       United States Representative, Dist 10                   OVER VOTES                            PRECINCT 311                                           01 
01060020013000000000000000000000000000000000000REP       United States Representative, Dist 10                   OVER VOTES                            PRECINCT 312                                           01 
01060020014000000000000000000000000000000000000REP       United States Representative, Dist 10                   OVER VOTES                            PRECINCT 316                                           01 
01060020015000000000000000000000000000000000000REP       United States Representative, Dist 10                   OVER VOTES                            PRECINCT 320                                           01 
01060020016000000000000000000000000000000000000REP       United States Representative, Dist 10                   OVER VOTES                            PRECINCT 406                                           01 
01060020017000000000000000000000000000000000000REP       United States Representative, Dist 10                   OVER VOTES                            PRECINCT 410                                           01 
01060020018000000000000000000000000000000000000REP       United States Representative, Dist 10                   OVER VOTES                            PRECINCT 413                                           01 
01060020019000000000000000000000000000000000000REP       United States Representative, Dist 10                   OVER VOTES                            PRECINCT 414                                           01 
01060020020000000000000000000000000000000000000REP       United States Representative, Dist 10                   OVER VOTES                            PRECINCT 418                                           01 
01060020021000000000000000000000000000000000000REP       United States Representative, Dist 10                   OVER VOTES                            PRECINCT 419                                           01 
01060030001000048000033000015000000000000000000REP       United States Representative, Dist 10                   UNDER VOTES                           PRECINCT 101                                           01 
01060030002000016000005000011000000000000000000REP       United States Representative, Dist 10                   UNDER VOTES                           PRECINCT 104                                           01 
01060030003000056000025000031000000000000000000REP       United States Representative, Dist 10                   UNDER VOTES                           PRECINCT 109                                           01 
01060030004000042000019000023000000000000000000REP       United States Representative, Dist 10                   UNDER VOTES                           PRECINCT 115                                           01 
01060030005000003000000000003000000000000000000REP       United States Representative, Dist 10                   UNDER VOTES                           PRECINCT 117                                           01 
01060030006000004000000000004000000000000000000REP       United States Representative, Dist 10                   UNDER VOTES                           PRECINCT 121                                           01 
01060030007000008000001000007000000000000000000REP       United States Representative, Dist 10                   UNDER VOTES                           PRECINCT 202                                           01 
01060030008000124000064000060000000000000000000REP       United States Representative, Dist 10                   UNDER VOTES                           PRECINCT 203                                           01 
01060030009000116000045000071000000000000000000REP       United States Representative, Dist 10                   UNDER VOTES                           PRECINCT 205                                           01 
01060030010000097000038000059000000000000000000REP       United States Representative, Dist 10                   UNDER VOTES                           PRECINCT 208                                           01 
01060030011000083000028000055000000000000000000REP       United States Representative, Dist 10                   UNDER VOTES                           PRECINCT 307                                           01 
01060030012000062000031000031000000000000000000REP       United States Representative, Dist 10                   UNDER VOTES                           PRECINCT 311                                           01 
01060030013000070000040000030000000000000000000REP       United States Representative, Dist 10                   UNDER VOTES                           PRECINCT 312                                           01 
01060030014000012000002000010000000000000000000REP       United States Representative, Dist 10                   UNDER VOTES                           PRECINCT 316                                           01 
01060030015000142000065000077000000000000000000REP       United States Representative, Dist 10                   UNDER VOTES                           PRECINCT 320                                           01 
01060030016000080000034000046000000000000000000REP       United States Representative, Dist 10                   UNDER VOTES                           PRECINCT 406                                           01 
01060030017000066000046000020000000000000000000REP       United States Representative, Dist 10                   UNDER VOTES                           PRECINCT 410                                           01 
01060030018000043000021000022000000000000000000REP       United States Representative, Dist 10                   UNDER VOTES                           PRECINCT 413                                           01 
01060030019000042000022000020000000000000000000REP       United States Representative, Dist 10                   UNDER VOTES                           PRECINCT 414                                           01 
01060030020000018000005000013000000000000000000REP       United States Representative, Dist 10                   UNDER VOTES                           PRECINCT 418                                           01 
01060030021000028000005000023000000000000000000REP       United States Representative, Dist 10                   UNDER VOTES                           PRECINCT 419                                           01 
01070010001000143000081000062000000000000000000REP       Governor                                                Greg Abbott                           PRECINCT 101                                           01 
01070010002000054000018000036000000000000000000REP       Governor                                                Greg Abbott                           PRECINCT 104                                           01 
01070010003000198000112000086000000000000000000REP       Governor                                                Greg Abbott                           PRECINCT 109                                           01 
01070010004000159000071000088000000000000000000REP       Governor                                                Greg Abbott                           PRECINCT 115                                           01 
01070010005000003000001000002000000000000000000REP       Governor                                                Greg Abbott                           PRECINCT 117                                           01 
01070010006000011000001000010000000000000000000REP       Governor                                                Greg Abbott                           PRECINCT 121                                           01 
01070010007000014000002000012000000000000000000REP       Governor                                                Greg Abbott                           PRECINCT 202                                           01 
01070010008000353000194000159000000000000000000REP       Governor                                                Greg Abbott                           PRECINCT 203                                           01 
01070010009000452000177000275000000000000000000REP       Governor                                                Greg Abbott                           PRECINCT 205                                           01 
01070010010000366000170000196000000000000000000REP       Governor                                                Greg Abbott                           PRECINCT 208                                           01 
01070010011000292000105000187000000000000000000REP       Governor                                                Greg Abbott                           PRECINCT 307                                           01 
01070010012000212000111000101000000000000000000REP       Governor                                                Greg Abbott                           PRECINCT 311                                           01 
01070010013000251000140000111000000000000000000REP       Governor                                                Greg Abbott                           PRECINCT 312                                           01 
01070010014000039000007000032000000000000000000REP       Governor                                                Greg Abbott                           PRECINCT 316                                           01 
01070010015000466000188000278000000000000000000REP       Governor                                                Greg Abbott                           PRECINCT 320                                           01 
01070010016000301000109000192000000000000000000REP       Governor                                                Greg Abbott                           PRECINCT 406                                           01 
01070010017000241000153000088000000000000000000REP       Governor                                                Greg Abbott                           PRECINCT 410                                           01 
01070010018000196000103000093000000000000000000REP       Governor                                                Greg Abbott                           PRECINCT 413                                           01 
01070010019000200000086000114000000000000000000REP       Governor                                                Greg Abbott                           PRECINCT 414                                           01 
01070010020000081000026000055000000000000000000REP       Governor                                                Greg Abbott                           PRECINCT 418                                           01 
01070010021000102000033000069000000000000000000REP       Governor                                                Greg Abbott                           PRECINCT 419                                           01 
01070020001000003000002000001000000000000000000REP       Governor                                                Lisa Fritsch                          PRECINCT 101                                           01 
01070020002000002000001000001000000000000000000REP       Governor                                                Lisa Fritsch                          PRECINCT 104                                           01 
01070020003000005000003000002000000000000000000REP       Governor                                                Lisa Fritsch                          PRECINCT 109                                           01 
01070020004000007000003000004000000000000000000REP       Governor                                                Lisa Fritsch                          PRECINCT 115                                           01 
01070020005000000000000000000000000000000000000REP       Governor                                                Lisa Fritsch                          PRECINCT 117                                           01 
01070020006000001000001000000000000000000000000REP       Governor                                                Lisa Fritsch                          PRECINCT 121                                           01 
01070020007000001000000000001000000000000000000REP       Governor                                                Lisa Fritsch                          PRECINCT 202                                           01 
01070020008000020000014000006000000000000000000REP       Governor                                                Lisa Fritsch                          PRECINCT 203                                           01 
01070020009000012000005000007000000000000000000REP       Governor                                                Lisa Fritsch                          PRECINCT 205                                           01 
01070020010000012000003000009000000000000000000REP       Governor                                                Lisa Fritsch                          PRECINCT 208                                           01 
01070020011000019000010000009000000000000000000REP       Governor                                                Lisa Fritsch                          PRECINCT 307                                           01 
01070020012000013000007000006000000000000000000REP       Governor                                                Lisa Fritsch                          PRECINCT 311                                           01 
01070020013000006000003000003000000000000000000REP       Governor                                                Lisa Fritsch                          PRECINCT 312                                           01 
01070020014000002000000000002000000000000000000REP       Governor                                                Lisa Fritsch                          PRECINCT 316                                           01 
01070020015000021000007000014000000000000000000REP       Governor                                                Lisa Fritsch                          PRECINCT 320                                           01 
01070020016000014000004000010000000000000000000REP       Governor                                                Lisa Fritsch                          PRECINCT 406                                           01 
01070020017000016000009000007000000000000000000REP       Governor                                                Lisa Fritsch                          PRECINCT 410                                           01 
01070020018000007000003000004000000000000000000REP       Governor                                                Lisa Fritsch                          PRECINCT 413                                           01 
01070020019000005000003000002000000000000000000REP       Governor                                                Lisa Fritsch                          PRECINCT 414                                           01 
01070020020000002000001000001000000000000000000REP       Governor                                                Lisa Fritsch                          PRECINCT 418                                           01 
01070020021000010000001000009000000000000000000REP       Governor                                                Lisa Fritsch                          PRECINCT 419                                           01 
01070030001000002000000000002000000000000000000REP       Governor                                                Miriam Martinez                       PRECINCT 101                                           01 
01070030002000001000001000000000000000000000000REP       Governor                                                Miriam Martinez                       PRECINCT 104                                           01 
01070030003000002000000000002000000000000000000REP       Governor                                                Miriam Martinez                       PRECINCT 109                                           01 
01070030004000002000001000001000000000000000000REP       Governor                                                Miriam Martinez                       PRECINCT 115                                           01 
01070030005000000000000000000000000000000000000REP       Governor                                                Miriam Martinez                       PRECINCT 117                                           01 
01070030006000001000000000001000000000000000000REP       Governor                                                Miriam Martinez                       PRECINCT 121                                           01 
01070030007000000000000000000000000000000000000REP       Governor                                                Miriam Martinez                       PRECINCT 202                                           01 
01070030008000004000003000001000000000000000000REP       Governor                                                Miriam Martinez                       PRECINCT 203                                           01 
01070030009000007000000000007000000000000000000REP       Governor                                                Miriam Martinez                       PRECINCT 205                                           01 
01070030010000004000002000002000000000000000000REP       Governor                                                Miriam Martinez                       PRECINCT 208                                           01 
01070030011000007000001000006000000000000000000REP       Governor                                                Miriam Martinez                       PRECINCT 307                                           01 
01070030012000001000000000001000000000000000000REP       Governor                                                Miriam Martinez                       PRECINCT 311                                           01 
01070030013000002000002000000000000000000000000REP       Governor                                                Miriam Martinez                       PRECINCT 312                                           01 
01070030014000001000000000001000000000000000000REP       Governor                                                Miriam Martinez                       PRECINCT 316                                           01 
01070030015000012000003000009000000000000000000REP       Governor                                                Miriam Martinez                       PRECINCT 320                                           01 
01070030016000004000000000004000000000000000000REP       Governor                                                Miriam Martinez                       PRECINCT 406                                           01 
01070030017000002000002000000000000000000000000REP       Governor                                                Miriam Martinez                       PRECINCT 410                                           01 
01070030018000002000002000000000000000000000000REP       Governor                                                Miriam Martinez                       PRECINCT 413                                           01 
01070030019000000000000000000000000000000000000REP       Governor                                                Miriam Martinez                       PRECINCT 414                                           01 
01070030020000004000001000003000000000000000000REP       Governor                                                Miriam Martinez                       PRECINCT 418                                           01 
01070030021000002000000000002000000000000000000REP       Governor                                                Miriam Martinez                       PRECINCT 419                                           01 
01070040001000001000001000000000000000000000000REP       Governor                                                SECEDE Kilgore                        PRECINCT 101                                           01 
01070040002000003000003000000000000000000000000REP       Governor                                                SECEDE Kilgore                        PRECINCT 104                                           01 
01070040003000001000000000001000000000000000000REP       Governor                                                SECEDE Kilgore                        PRECINCT 109                                           01 
01070040004000000000000000000000000000000000000REP       Governor                                                SECEDE Kilgore                        PRECINCT 115                                           01 
01070040005000000000000000000000000000000000000REP       Governor                                                SECEDE Kilgore                        PRECINCT 117                                           01 
01070040006000001000000000001000000000000000000REP       Governor                                                SECEDE Kilgore                        PRECINCT 121                                           01 
01070040007000000000000000000000000000000000000REP       Governor                                                SECEDE Kilgore                        PRECINCT 202                                           01 
01070040008000002000002000000000000000000000000REP       Governor                                                SECEDE Kilgore                        PRECINCT 203                                           01 
01070040009000002000001000001000000000000000000REP       Governor                                                SECEDE Kilgore                        PRECINCT 205                                           01 
01070040010000003000001000002000000000000000000REP       Governor                                                SECEDE Kilgore                        PRECINCT 208                                           01 
01070040011000004000000000004000000000000000000REP       Governor                                                SECEDE Kilgore                        PRECINCT 307                                           01 
01070040012000002000002000000000000000000000000REP       Governor                                                SECEDE Kilgore                        PRECINCT 311                                           01 
01070040013000002000001000001000000000000000000REP       Governor                                                SECEDE Kilgore                        PRECINCT 312                                           01 
01070040014000000000000000000000000000000000000REP       Governor                                                SECEDE Kilgore                        PRECINCT 316                                           01 
01070040015000004000002000002000000000000000000REP       Governor                                                SECEDE Kilgore                        PRECINCT 320                                           01 
01070040016000004000003000001000000000000000000REP       Governor                                                SECEDE Kilgore                        PRECINCT 406                                           01 
01070040017000003000001000002000000000000000000REP       Governor                                                SECEDE Kilgore                        PRECINCT 410                                           01 
01070040018000002000002000000000000000000000000REP       Governor                                                SECEDE Kilgore                        PRECINCT 413                                           01 
01070040019000001000000000001000000000000000000REP       Governor                                                SECEDE Kilgore                        PRECINCT 414                                           01 
01070040020000001000001000000000000000000000000REP       Governor                                                SECEDE Kilgore                        PRECINCT 418                                           01 
01070040021000001000001000000000000000000000000REP       Governor                                                SECEDE Kilgore                        PRECINCT 419                                           01 
01070050001000000000000000000000000000000000000REP       Governor                                                OVER VOTES                            PRECINCT 101                                           01 
01070050002000000000000000000000000000000000000REP       Governor                                                OVER VOTES                            PRECINCT 104                                           01 
01070050003000000000000000000000000000000000000REP       Governor                                                OVER VOTES                            PRECINCT 109                                           01 
01070050004000000000000000000000000000000000000REP       Governor                                                OVER VOTES                            PRECINCT 115                                           01 
01070050005000000000000000000000000000000000000REP       Governor                                                OVER VOTES                            PRECINCT 117                                           01 
01070050006000000000000000000000000000000000000REP       Governor                                                OVER VOTES                            PRECINCT 121                                           01 
01070050007000000000000000000000000000000000000REP       Governor                                                OVER VOTES                            PRECINCT 202                                           01 
01070050008000000000000000000000000000000000000REP       Governor                                                OVER VOTES                            PRECINCT 203                                           01 
01070050009000000000000000000000000000000000000REP       Governor                                                OVER VOTES                            PRECINCT 205                                           01 
01070050010000000000000000000000000000000000000REP       Governor                                                OVER VOTES                            PRECINCT 208                                           01 
01070050011000000000000000000000000000000000000REP       Governor                                                OVER VOTES                            PRECINCT 307                                           01 
01070050012000000000000000000000000000000000000REP       Governor                                                OVER VOTES                            PRECINCT 311                                           01 
01070050013000000000000000000000000000000000000REP       Governor                                                OVER VOTES                            PRECINCT 312                                           01 
01070050014000000000000000000000000000000000000REP       Governor                                                OVER VOTES                            PRECINCT 316                                           01 
01070050015000000000000000000000000000000000000REP       Governor                                                OVER VOTES                            PRECINCT 320                                           01 
01070050016000000000000000000000000000000000000REP       Governor                                                OVER VOTES                            PRECINCT 406                                           01 
01070050017000000000000000000000000000000000000REP       Governor                                                OVER VOTES                            PRECINCT 410                                           01 
01070050018000000000000000000000000000000000000REP       Governor                                                OVER VOTES                            PRECINCT 413                                           01 
01070050019000000000000000000000000000000000000REP       Governor                                                OVER VOTES                            PRECINCT 414                                           01 
01070050020000000000000000000000000000000000000REP       Governor                                                OVER VOTES                            PRECINCT 418                                           01 
01070050021000000000000000000000000000000000000REP       Governor                                                OVER VOTES                            PRECINCT 419                                           01 
01070060001000006000002000004000000000000000000REP       Governor                                                UNDER VOTES                           PRECINCT 101                                           01 
01070060002000002000001000001000000000000000000REP       Governor                                                UNDER VOTES                           PRECINCT 104                                           01 
01070060003000011000002000009000000000000000000REP       Governor                                                UNDER VOTES                           PRECINCT 109                                           01 
01070060004000002000001000001000000000000000000REP       Governor                                                UNDER VOTES                           PRECINCT 115                                           01 
01070060005000001000000000001000000000000000000REP       Governor                                                UNDER VOTES                           PRECINCT 117                                           01 
01070060006000001000000000001000000000000000000REP       Governor                                                UNDER VOTES                           PRECINCT 121                                           01 
01070060007000001000000000001000000000000000000REP       Governor                                                UNDER VOTES                           PRECINCT 202                                           01 
01070060008000014000008000006000000000000000000REP       Governor                                                UNDER VOTES                           PRECINCT 203                                           01 
01070060009000019000006000013000000000000000000REP       Governor                                                UNDER VOTES                           PRECINCT 205                                           01 
01070060010000015000010000005000000000000000000REP       Governor                                                UNDER VOTES                           PRECINCT 208                                           01 
01070060011000020000007000013000000000000000000REP       Governor                                                UNDER VOTES                           PRECINCT 307                                           01 
