01480010036000047NONWCISD01WCISD Trustee, Position 3                               Raquel D. Lopez                       PCT 136                                                01 
01480010037000205NONWCISD01WCISD Trustee, Position 3                               Raquel D. Lopez                       PCT 237                                                01 
01480020036000133NONWCISD01WCISD Trustee, Position 3                               Julia A. Cantu                        PCT 136                                                01 
01480020037000151NONWCISD01WCISD Trustee, Position 3                               Julia A. Cantu                        PCT 237                                                01 
01480030036000000   WCISD01WCISD Trustee, Position 3                               OVER VOTES                            PCT 136                                                01 
01480030037000000   WCISD01WCISD Trustee, Position 3                               OVER VOTES                            PCT 237                                                01 
01480040036000005   WCISD01WCISD Trustee, Position 3                               UNDER VOTES                           PCT 136                                                01 
01480040037000007   WCISD01WCISD Trustee, Position 3                               UNDER VOTES                           PCT 237                                                01 
01490010036000140NONWCISD01WCISD Trustee, Position 4                               Becky (Nieto) Gutierrez               PCT 136                                                01 
01490010037000180NONWCISD01WCISD Trustee, Position 4                               Becky (Nieto) Gutierrez               PCT 237                                                01 
01490020036000035NONWCISD01WCISD Trustee, Position 4                               Sylvia Pena                           PCT 136                                                01 
01490020037000177NONWCISD01WCISD Trustee, Position 4                               Sylvia Pena                           PCT 237                                                01 
01490030036000001   WCISD01WCISD Trustee, Position 4                               OVER VOTES                            PCT 136                                                01 
01490030037000000   WCISD01WCISD Trustee, Position 4                               OVER VOTES                            PCT 237                                                01 
01490040036000009   WCISD01WCISD Trustee, Position 4                               UNDER VOTES                           PCT 136                                                01 
01490040037000006   WCISD01WCISD Trustee, Position 4                               UNDER VOTES                           PCT 237                                                01 
01500010036000046NONWCISD01WCISD Trustee, Position 5                               Nelda Inocencio                       PCT 136                                                01 
01500010037000198NONWCISD01WCISD Trustee, Position 5                               Nelda Inocencio                       PCT 237                                                01 
01500020036000135NONWCISD01WCISD Trustee, Position 5                               Robert Marshall                       PCT 136                                                01 
01500020037000163NONWCISD01WCISD Trustee, Position 5                               Robert Marshall                       PCT 237                                                01 
01500030036000000   WCISD01WCISD Trustee, Position 5                               OVER VOTES                            PCT 136                                                01 
01500030037000000   WCISD01WCISD Trustee, Position 5                               OVER VOTES                            PCT 237                                                01 
01500040036000004   WCISD01WCISD Trustee, Position 5                               UNDER VOTES                           PCT 136                                                01 
01500040037000002   WCISD01WCISD Trustee, Position 5                               UNDER VOTES                           PCT 237                                                01 
01510010036000132NONWCISD01WEBB CISD PROP                                          For                                   PCT 136                                                01Y
01510010037000155NONWCISD01WEBB CISD PROP                                          For                                   PCT 237                                                01Y
01510020036000037NONWCISD01WEBB CISD PROP                                          Against                               PCT 136                                                01Y
01510020037000182NONWCISD01WEBB CISD PROP                                          Against                               PCT 237                                                01Y
01510030036000000   WCISD01WEBB CISD PROP                                          OVER VOTES                            PCT 136                                                01Y
01510030037000000   WCISD01WEBB CISD PROP                                          OVER VOTES                            PCT 237                                                01Y
01510040036000016   WCISD01WEBB CISD PROP                                          UNDER VOTES                           PCT 136                                                01Y
01510040037000026   WCISD01WEBB CISD PROP                                          UNDER VOTES                           PCT 237                                                01Y
