01050010001000006REP       United States Senator WHARTON COUNTYWIDE                Reid Reasor                           PRECINCT 101                                           01 
01050010002000008REP       United States Senator WHARTON COUNTYWIDE                Reid Reasor                           PRECINCT 102                                           01 
01050010003000007REP       United States Senator WHARTON COUNTYWIDE                Reid Reasor                           PRECINCT 103                                           01 
01050010004000011REP       United States Senator WHARTON COUNTYWIDE                Reid Reasor                           PRECINCT 201                                           01 
01050010005000002REP       United States Senator WHARTON COUNTYWIDE                Reid Reasor                           PRECINCT 202                                           01 
01050010006000005REP       United States Senator WHARTON COUNTYWIDE                Reid Reasor                           PRECINCT 203                                           01 
01050010007000021REP       United States Senator WHARTON COUNTYWIDE                Reid Reasor                           PRECINCT 301                                           01 
01050010008000012REP       United States Senator WHARTON COUNTYWIDE                Reid Reasor                           PRECINCT 302                                           01 
01050010009000012REP       United States Senator WHARTON COUNTYWIDE                Reid Reasor                           PRECINCT 303                                           01 
01050010010000003REP       United States Senator WHARTON COUNTYWIDE                Reid Reasor                           PRECINCT 401                                           01 
01050010011000004REP       United States Senator WHARTON COUNTYWIDE                Reid Reasor                           PRECINCT 402                                           01 
01050010012000002REP       United States Senator WHARTON COUNTYWIDE                Reid Reasor                           PRECINCT 403                                           01 
01050020001000135REP       United States Senator WHARTON COUNTYWIDE                John Cornyn                           PRECINCT 101                                           01 
01050020002000275REP       United States Senator WHARTON COUNTYWIDE                John Cornyn                           PRECINCT 102                                           01 
01050020003000109REP       United States Senator WHARTON COUNTYWIDE                John Cornyn                           PRECINCT 103                                           01 
01050020004000249REP       United States Senator WHARTON COUNTYWIDE                John Cornyn                           PRECINCT 201                                           01 
01050020005000022REP       United States Senator WHARTON COUNTYWIDE                John Cornyn                           PRECINCT 202                                           01 
01050020006000092REP       United States Senator WHARTON COUNTYWIDE                John Cornyn                           PRECINCT 203                                           01 
01050020007000321REP       United States Senator WHARTON COUNTYWIDE                John Cornyn                           PRECINCT 301                                           01 
01050020008000267REP       United States Senator WHARTON COUNTYWIDE                John Cornyn                           PRECINCT 302                                           01 
01050020009000164REP       United States Senator WHARTON COUNTYWIDE                John Cornyn                           PRECINCT 303                                           01 
01050020010000112REP       United States Senator WHARTON COUNTYWIDE                John Cornyn                           PRECINCT 401                                           01 
01050020011000098REP       United States Senator WHARTON COUNTYWIDE                John Cornyn                           PRECINCT 402                                           01 
01050020012000045REP       United States Senator WHARTON COUNTYWIDE                John Cornyn                           PRECINCT 403                                           01 
01050030001000011REP       United States Senator WHARTON COUNTYWIDE                Linda Vega                            PRECINCT 101                                           01 
01050030002000007REP       United States Senator WHARTON COUNTYWIDE                Linda Vega                            PRECINCT 102                                           01 
01050030003000005REP       United States Senator WHARTON COUNTYWIDE                Linda Vega                            PRECINCT 103                                           01 
01050030004000006REP       United States Senator WHARTON COUNTYWIDE                Linda Vega                            PRECINCT 201                                           01 
01050030005000002REP       United States Senator WHARTON COUNTYWIDE                Linda Vega                            PRECINCT 202                                           01 
01050030006000010REP       United States Senator WHARTON COUNTYWIDE                Linda Vega                            PRECINCT 203                                           01 
01050030007000009REP       United States Senator WHARTON COUNTYWIDE                Linda Vega                            PRECINCT 301                                           01 
01050030008000002REP       United States Senator WHARTON COUNTYWIDE                Linda Vega                            PRECINCT 302                                           01 
01050030009000006REP       United States Senator WHARTON COUNTYWIDE                Linda Vega                            PRECINCT 303                                           01 
01050030010000005REP       United States Senator WHARTON COUNTYWIDE                Linda Vega                            PRECINCT 401                                           01 
01050030011000008REP       United States Senator WHARTON COUNTYWIDE                Linda Vega                            PRECINCT 402                                           01 
01050030012000004REP       United States Senator WHARTON COUNTYWIDE                Linda Vega                            PRECINCT 403                                           01 
01050040001000001REP       United States Senator WHARTON COUNTYWIDE                Curt Cleaver                          PRECINCT 101                                           01 
01050040002000002REP       United States Senator WHARTON COUNTYWIDE                Curt Cleaver                          PRECINCT 102                                           01 
01050040003000001REP       United States Senator WHARTON COUNTYWIDE                Curt Cleaver                          PRECINCT 103                                           01 
01050040004000002REP       United States Senator WHARTON COUNTYWIDE                Curt Cleaver                          PRECINCT 201                                           01 
01050040005000000REP       United States Senator WHARTON COUNTYWIDE                Curt Cleaver                          PRECINCT 202                                           01 
01050040006000000REP       United States Senator WHARTON COUNTYWIDE                Curt Cleaver                          PRECINCT 203                                           01 
01050040007000002REP       United States Senator WHARTON COUNTYWIDE                Curt Cleaver                          PRECINCT 301                                           01 
01050040008000000REP       United States Senator WHARTON COUNTYWIDE                Curt Cleaver                          PRECINCT 302                                           01 
01050040009000000REP       United States Senator WHARTON COUNTYWIDE                Curt Cleaver                          PRECINCT 303                                           01 
01050040010000002REP       United States Senator WHARTON COUNTYWIDE                Curt Cleaver                          PRECINCT 401                                           01 
01050040011000001REP       United States Senator WHARTON COUNTYWIDE                Curt Cleaver                          PRECINCT 402                                           01 
01050040012000001REP       United States Senator WHARTON COUNTYWIDE                Curt Cleaver                          PRECINCT 403                                           01 
01050050001000006REP       United States Senator WHARTON COUNTYWIDE                Chris Mapp                            PRECINCT 101                                           01 
01050050002000014REP       United States Senator WHARTON COUNTYWIDE                Chris Mapp                            PRECINCT 102                                           01 
01050050003000008REP       United States Senator WHARTON COUNTYWIDE                Chris Mapp                            PRECINCT 103                                           01 
01050050004000024REP       United States Senator WHARTON COUNTYWIDE                Chris Mapp                            PRECINCT 201                                           01 
01050050005000003REP       United States Senator WHARTON COUNTYWIDE                Chris Mapp                            PRECINCT 202                                           01 
01050050006000008REP       United States Senator WHARTON COUNTYWIDE                Chris Mapp                            PRECINCT 203                                           01 
01050050007000036REP       United States Senator WHARTON COUNTYWIDE                Chris Mapp                            PRECINCT 301                                           01 
01050050008000030REP       United States Senator WHARTON COUNTYWIDE                Chris Mapp                            PRECINCT 302                                           01 
01050050009000081REP       United States Senator WHARTON COUNTYWIDE                Chris Mapp                            PRECINCT 303                                           01 
01050050010000014REP       United States Senator WHARTON COUNTYWIDE                Chris Mapp                            PRECINCT 401                                           01 
01050050011000019REP       United States Senator WHARTON COUNTYWIDE                Chris Mapp                            PRECINCT 402                                           01 
01050050012000011REP       United States Senator WHARTON COUNTYWIDE                Chris Mapp                            PRECINCT 403                                           01 
01050060001000051REP       United States Senator WHARTON COUNTYWIDE                Dwayne Stovall                        PRECINCT 101                                           01 
01050060002000047REP       United States Senator WHARTON COUNTYWIDE                Dwayne Stovall                        PRECINCT 102                                           01 
01050060003000020REP       United States Senator WHARTON COUNTYWIDE                Dwayne Stovall                        PRECINCT 103                                           01 
01050060004000065REP       United States Senator WHARTON COUNTYWIDE                Dwayne Stovall                        PRECINCT 201                                           01 
01050060005000002REP       United States Senator WHARTON COUNTYWIDE                Dwayne Stovall                        PRECINCT 202                                           01 
01050060006000029REP       United States Senator WHARTON COUNTYWIDE                Dwayne Stovall                        PRECINCT 203                                           01 
01050060007000051REP       United States Senator WHARTON COUNTYWIDE                Dwayne Stovall                        PRECINCT 301                                           01 
01050060008000042REP       United States Senator WHARTON COUNTYWIDE                Dwayne Stovall                        PRECINCT 302                                           01 
01050060009000044REP       United States Senator WHARTON COUNTYWIDE                Dwayne Stovall                        PRECINCT 303                                           01 
01050060010000025REP       United States Senator WHARTON COUNTYWIDE                Dwayne Stovall                        PRECINCT 401                                           01 
01050060011000015REP       United States Senator WHARTON COUNTYWIDE                Dwayne Stovall                        PRECINCT 402                                           01 
01050060012000005REP       United States Senator WHARTON COUNTYWIDE                Dwayne Stovall                        PRECINCT 403                                           01 
01050070001000004REP       United States Senator WHARTON COUNTYWIDE                Ken Cope                              PRECINCT 101                                           01 
01050070002000010REP       United States Senator WHARTON COUNTYWIDE                Ken Cope                              PRECINCT 102                                           01 
01050070003000001REP       United States Senator WHARTON COUNTYWIDE                Ken Cope                              PRECINCT 103                                           01 
01050070004000009REP       United States Senator WHARTON COUNTYWIDE                Ken Cope                              PRECINCT 201                                           01 
01050070005000000REP       United States Senator WHARTON COUNTYWIDE                Ken Cope                              PRECINCT 202                                           01 
01050070006000004REP       United States Senator WHARTON COUNTYWIDE                Ken Cope                              PRECINCT 203                                           01 
01050070007000010REP       United States Senator WHARTON COUNTYWIDE                Ken Cope                              PRECINCT 301                                           01 
01050070008000005REP       United States Senator WHARTON COUNTYWIDE                Ken Cope                              PRECINCT 302                                           01 
01050070009000002REP       United States Senator WHARTON COUNTYWIDE                Ken Cope                              PRECINCT 303                                           01 
01050070010000005REP       United States Senator WHARTON COUNTYWIDE                Ken Cope                              PRECINCT 401                                           01 
01050070011000001REP       United States Senator WHARTON COUNTYWIDE                Ken Cope                              PRECINCT 402                                           01 
01050070012000002REP       United States Senator WHARTON COUNTYWIDE                Ken Cope                              PRECINCT 403                                           01 
01050080001000085REP       United States Senator WHARTON COUNTYWIDE                Steve Stockman                        PRECINCT 101                                           01 
01050080002000150REP       United States Senator WHARTON COUNTYWIDE                Steve Stockman                        PRECINCT 102                                           01 
01050080003000074REP       United States Senator WHARTON COUNTYWIDE                Steve Stockman                        PRECINCT 103                                           01 
01050080004000116REP       United States Senator WHARTON COUNTYWIDE                Steve Stockman                        PRECINCT 201                                           01 
01050080005000013REP       United States Senator WHARTON COUNTYWIDE                Steve Stockman                        PRECINCT 202                                           01 
01050080006000045REP       United States Senator WHARTON COUNTYWIDE                Steve Stockman                        PRECINCT 203                                           01 
01050080007000114REP       United States Senator WHARTON COUNTYWIDE                Steve Stockman                        PRECINCT 301                                           01 
01050080008000068REP       United States Senator WHARTON COUNTYWIDE                Steve Stockman                        PRECINCT 302                                           01 
01050080009000081REP       United States Senator WHARTON COUNTYWIDE                Steve Stockman                        PRECINCT 303                                           01 
01050080010000046REP       United States Senator WHARTON COUNTYWIDE                Steve Stockman                        PRECINCT 401                                           01 
01050080011000032REP       United States Senator WHARTON COUNTYWIDE                Steve Stockman                        PRECINCT 402                                           01 
01050080012000012REP       United States Senator WHARTON COUNTYWIDE                Steve Stockman                        PRECINCT 403                                           01 
01050090001000000REP       United States Senator WHARTON COUNTYWIDE                OVER VOTES                            PRECINCT 101                                           01 
01050090002000000REP       United States Senator WHARTON COUNTYWIDE                OVER VOTES                            PRECINCT 102                                           01 
01050090003000000REP       United States Senator WHARTON COUNTYWIDE                OVER VOTES                            PRECINCT 103                                           01 
01050090004000000REP       United States Senator WHARTON COUNTYWIDE                OVER VOTES                            PRECINCT 201                                           01 
01050090005000000REP       United States Senator WHARTON COUNTYWIDE                OVER VOTES                            PRECINCT 202                                           01 
01050090006000000REP       United States Senator WHARTON COUNTYWIDE                OVER VOTES                            PRECINCT 203                                           01 
01050090007000000REP       United States Senator WHARTON COUNTYWIDE                OVER VOTES                            PRECINCT 301                                           01 
01050090008000000REP       United States Senator WHARTON COUNTYWIDE                OVER VOTES                            PRECINCT 302                                           01 
01050090009000000REP       United States Senator WHARTON COUNTYWIDE                OVER VOTES                            PRECINCT 303                                           01 
01050090010000000REP       United States Senator WHARTON COUNTYWIDE                OVER VOTES                            PRECINCT 401                                           01 
01050090011000000REP       United States Senator WHARTON COUNTYWIDE                OVER VOTES                            PRECINCT 402                                           01 
01050090012000000REP       United States Senator WHARTON COUNTYWIDE                OVER VOTES                            PRECINCT 403                                           01 
01050100001000015REP       United States Senator WHARTON COUNTYWIDE                UNDER VOTES                           PRECINCT 101                                           01 
01050100002000023REP       United States Senator WHARTON COUNTYWIDE                UNDER VOTES                           PRECINCT 102                                           01 
01050100003000009REP       United States Senator WHARTON COUNTYWIDE                UNDER VOTES                           PRECINCT 103                                           01 
01050100004000023REP       United States Senator WHARTON COUNTYWIDE                UNDER VOTES                           PRECINCT 201                                           01 
01050100005000005REP       United States Senator WHARTON COUNTYWIDE                UNDER VOTES                           PRECINCT 202                                           01 
01050100006000008REP       United States Senator WHARTON COUNTYWIDE                UNDER VOTES                           PRECINCT 203                                           01 
01050100007000020REP       United States Senator WHARTON COUNTYWIDE                UNDER VOTES                           PRECINCT 301                                           01 
01050100008000027REP       United States Senator WHARTON COUNTYWIDE                UNDER VOTES                           PRECINCT 302                                           01 
01050100009000015REP       United States Senator WHARTON COUNTYWIDE                UNDER VOTES                           PRECINCT 303                                           01 
01050100010000018REP       United States Senator WHARTON COUNTYWIDE                UNDER VOTES                           PRECINCT 401                                           01 
01050100011000015REP       United States Senator WHARTON COUNTYWIDE                UNDER VOTES                           PRECINCT 402                                           01 
01050100012000006REP       United States Senator WHARTON COUNTYWIDE                UNDER VOTES                           PRECINCT 403                                           01 
01060010001000232REP       US Representative, District 27 WHARTON COUNTYWIDE       Blake Farenthold                      PRECINCT 101                                           01 
01060010002000417REP       US Representative, District 27 WHARTON COUNTYWIDE       Blake Farenthold                      PRECINCT 102                                           01 
01060010003000176REP       US Representative, District 27 WHARTON COUNTYWIDE       Blake Farenthold                      PRECINCT 103                                           01 
01060010004000390REP       US Representative, District 27 WHARTON COUNTYWIDE       Blake Farenthold                      PRECINCT 201                                           01 
01060010005000039REP       US Representative, District 27 WHARTON COUNTYWIDE       Blake Farenthold                      PRECINCT 202                                           01 
01060010006000163REP       US Representative, District 27 WHARTON COUNTYWIDE       Blake Farenthold                      PRECINCT 203                                           01 
01060010007000455REP       US Representative, District 27 WHARTON COUNTYWIDE       Blake Farenthold                      PRECINCT 301                                           01 
01060010008000347REP       US Representative, District 27 WHARTON COUNTYWIDE       Blake Farenthold                      PRECINCT 302                                           01 
01060010009000324REP       US Representative, District 27 WHARTON COUNTYWIDE       Blake Farenthold                      PRECINCT 303                                           01 
01060010010000171REP       US Representative, District 27 WHARTON COUNTYWIDE       Blake Farenthold                      PRECINCT 401                                           01 
01060010011000139REP       US Representative, District 27 WHARTON COUNTYWIDE       Blake Farenthold                      PRECINCT 402                                           01 
01060010012000061REP       US Representative, District 27 WHARTON COUNTYWIDE       Blake Farenthold                      PRECINCT 403                                           01 
01060020001000000REP       US Representative, District 27 WHARTON COUNTYWIDE       OVER VOTES                            PRECINCT 101                                           01 
01060020002000000REP       US Representative, District 27 WHARTON COUNTYWIDE       OVER VOTES                            PRECINCT 102                                           01 
01060020003000000REP       US Representative, District 27 WHARTON COUNTYWIDE       OVER VOTES                            PRECINCT 103                                           01 
01060020004000000REP       US Representative, District 27 WHARTON COUNTYWIDE       OVER VOTES                            PRECINCT 201                                           01 
01060020005000000REP       US Representative, District 27 WHARTON COUNTYWIDE       OVER VOTES                            PRECINCT 202                                           01 
01060020006000000REP       US Representative, District 27 WHARTON COUNTYWIDE       OVER VOTES                            PRECINCT 203                                           01 
01060020007000000REP       US Representative, District 27 WHARTON COUNTYWIDE       OVER VOTES                            PRECINCT 301                                           01 
01060020008000000REP       US Representative, District 27 WHARTON COUNTYWIDE       OVER VOTES                            PRECINCT 302                                           01 
01060020009000000REP       US Representative, District 27 WHARTON COUNTYWIDE       OVER VOTES                            PRECINCT 303                                           01 
01060020010000000REP       US Representative, District 27 WHARTON COUNTYWIDE       OVER VOTES                            PRECINCT 401                                           01 
01060020011000000REP       US Representative, District 27 WHARTON COUNTYWIDE       OVER VOTES                            PRECINCT 402                                           01 
01060020012000000REP       US Representative, District 27 WHARTON COUNTYWIDE       OVER VOTES                            PRECINCT 403                                           01 
01060030001000082REP       US Representative, District 27 WHARTON COUNTYWIDE       UNDER VOTES                           PRECINCT 101                                           01 
01060030002000119REP       US Representative, District 27 WHARTON COUNTYWIDE       UNDER VOTES                           PRECINCT 102                                           01 
01060030003000058REP       US Representative, District 27 WHARTON COUNTYWIDE       UNDER VOTES                           PRECINCT 103                                           01 
01060030004000115REP       US Representative, District 27 WHARTON COUNTYWIDE       UNDER VOTES                           PRECINCT 201                                           01 
01060030005000010REP       US Representative, District 27 WHARTON COUNTYWIDE       UNDER VOTES                           PRECINCT 202                                           01 
01060030006000038REP       US Representative, District 27 WHARTON COUNTYWIDE       UNDER VOTES                           PRECINCT 203                                           01 
01060030007000129REP       US Representative, District 27 WHARTON COUNTYWIDE       UNDER VOTES                           PRECINCT 301                                           01 
01060030008000106REP       US Representative, District 27 WHARTON COUNTYWIDE       UNDER VOTES                           PRECINCT 302                                           01 
01060030009000081REP       US Representative, District 27 WHARTON COUNTYWIDE       UNDER VOTES                           PRECINCT 303                                           01 
01060030010000059REP       US Representative, District 27 WHARTON COUNTYWIDE       UNDER VOTES                           PRECINCT 401                                           01 
01060030011000054REP       US Representative, District 27 WHARTON COUNTYWIDE       UNDER VOTES                           PRECINCT 402                                           01 
01060030012000027REP       US Representative, District 27 WHARTON COUNTYWIDE       UNDER VOTES                           PRECINCT 403                                           01 
01070010001000010REP       Governor WHARTON COUNTYWIDE                             Miriam Martinez                       PRECINCT 101                                           01 
01070010002000004REP       Governor WHARTON COUNTYWIDE                             Miriam Martinez                       PRECINCT 102                                           01 
01070010003000007REP       Governor WHARTON COUNTYWIDE                             Miriam Martinez                       PRECINCT 103                                           01 
01070010004000006REP       Governor WHARTON COUNTYWIDE                             Miriam Martinez                       PRECINCT 201                                           01 
01070010005000003REP       Governor WHARTON COUNTYWIDE                             Miriam Martinez                       PRECINCT 202                                           01 
01070010006000005REP       Governor WHARTON COUNTYWIDE                             Miriam Martinez                       PRECINCT 203                                           01 
01070010007000009REP       Governor WHARTON COUNTYWIDE                             Miriam Martinez                       PRECINCT 301                                           01 
01070010008000012REP       Governor WHARTON COUNTYWIDE                             Miriam Martinez                       PRECINCT 302                                           01 
01070010009000004REP       Governor WHARTON COUNTYWIDE                             Miriam Martinez                       PRECINCT 303                                           01 
01070010010000002REP       Governor WHARTON COUNTYWIDE                             Miriam Martinez                       PRECINCT 401                                           01 
01070010011000009REP       Governor WHARTON COUNTYWIDE                             Miriam Martinez                       PRECINCT 402                                           01 
01070010012000001REP       Governor WHARTON COUNTYWIDE                             Miriam Martinez                       PRECINCT 403                                           01 
01070020001000001REP       Governor WHARTON COUNTYWIDE                             SECEDE Kilgore                        PRECINCT 101                                           01 
01070020002000005REP       Governor WHARTON COUNTYWIDE                             SECEDE Kilgore                        PRECINCT 102                                           01 
01070020003000006REP       Governor WHARTON COUNTYWIDE                             SECEDE Kilgore                        PRECINCT 103                                           01 
01070020004000007REP       Governor WHARTON COUNTYWIDE                             SECEDE Kilgore                        PRECINCT 201                                           01 
01070020005000000REP       Governor WHARTON COUNTYWIDE                             SECEDE Kilgore                        PRECINCT 202                                           01 
01070020006000000REP       Governor WHARTON COUNTYWIDE                             SECEDE Kilgore                        PRECINCT 203                                           01 
01070020007000006REP       Governor WHARTON COUNTYWIDE                             SECEDE Kilgore                        PRECINCT 301                                           01 
01070020008000006REP       Governor WHARTON COUNTYWIDE                             SECEDE Kilgore                        PRECINCT 302                                           01 
01070020009000002REP       Governor WHARTON COUNTYWIDE                             SECEDE Kilgore                        PRECINCT 303                                           01 
01070020010000001REP       Governor WHARTON COUNTYWIDE                             SECEDE Kilgore                        PRECINCT 401                                           01 
01070020011000005REP       Governor WHARTON COUNTYWIDE                             SECEDE Kilgore                        PRECINCT 402                                           01 
01070020012000005REP       Governor WHARTON COUNTYWIDE                             SECEDE Kilgore                        PRECINCT 403                                           01 
01070030001000281REP       Governor WHARTON COUNTYWIDE                             Greg Abbott                           PRECINCT 101                                           01 
01070030002000500REP       Governor WHARTON COUNTYWIDE                             Greg Abbott                           PRECINCT 102                                           01 
01070030003000208REP       Governor WHARTON COUNTYWIDE                             Greg Abbott                           PRECINCT 103                                           01 
01070030004000470REP       Governor WHARTON COUNTYWIDE                             Greg Abbott                           PRECINCT 201                                           01 
01070030005000045REP       Governor WHARTON COUNTYWIDE                             Greg Abbott                           PRECINCT 202                                           01 
01070030006000181REP       Governor WHARTON COUNTYWIDE                             Greg Abbott                           PRECINCT 203                                           01 
01070030007000543REP       Governor WHARTON COUNTYWIDE                             Greg Abbott                           PRECINCT 301                                           01 
01070030008000409REP       Governor WHARTON COUNTYWIDE                             Greg Abbott                           PRECINCT 302                                           01 
01070030009000382REP       Governor WHARTON COUNTYWIDE                             Greg Abbott                           PRECINCT 303                                           01 
01070030010000204REP       Governor WHARTON COUNTYWIDE                             Greg Abbott                           PRECINCT 401                                           01 
01070030011000157REP       Governor WHARTON COUNTYWIDE                             Greg Abbott                           PRECINCT 402                                           01 
01070030012000076REP       Governor WHARTON COUNTYWIDE                             Greg Abbott                           PRECINCT 403                                           01 
01070040001000013REP       Governor WHARTON COUNTYWIDE                             Lisa Fritsch                          PRECINCT 101                                           01 
01070040002000011REP       Governor WHARTON COUNTYWIDE                             Lisa Fritsch                          PRECINCT 102                                           01 
01070040003000005REP       Governor WHARTON COUNTYWIDE                             Lisa Fritsch                          PRECINCT 103                                           01 
01070040004000010REP       Governor WHARTON COUNTYWIDE                             Lisa Fritsch                          PRECINCT 201                                           01 
01070040005000000REP       Governor WHARTON COUNTYWIDE                             Lisa Fritsch                          PRECINCT 202                                           01 
01070040006000010REP       Governor WHARTON COUNTYWIDE                             Lisa Fritsch                          PRECINCT 203                                           01 
01070040007000012REP       Governor WHARTON COUNTYWIDE                             Lisa Fritsch                          PRECINCT 301                                           01 
01070040008000010REP       Governor WHARTON COUNTYWIDE                             Lisa Fritsch                          PRECINCT 302                                           01 
01070040009000006REP       Governor WHARTON COUNTYWIDE                             Lisa Fritsch                          PRECINCT 303                                           01 
01070040010000007REP       Governor WHARTON COUNTYWIDE                             Lisa Fritsch                          PRECINCT 401                                           01 
01070040011000007REP       Governor WHARTON COUNTYWIDE                             Lisa Fritsch                          PRECINCT 402                                           01 
01070040012000003REP       Governor WHARTON COUNTYWIDE                             Lisa Fritsch                          PRECINCT 403                                           01 
01070050001000000REP       Governor WHARTON COUNTYWIDE                             OVER VOTES                            PRECINCT 101                                           01 
01070050002000000REP       Governor WHARTON COUNTYWIDE                             OVER VOTES                            PRECINCT 102                                           01 
01070050003000000REP       Governor WHARTON COUNTYWIDE                             OVER VOTES                            PRECINCT 103                                           01 
01070050004000000REP       Governor WHARTON COUNTYWIDE                             OVER VOTES                            PRECINCT 201                                           01 
01070050005000000REP       Governor WHARTON COUNTYWIDE                             OVER VOTES                            PRECINCT 202                                           01 
01070050006000000REP       Governor WHARTON COUNTYWIDE                             OVER VOTES                            PRECINCT 203                                           01 
01070050007000000REP       Governor WHARTON COUNTYWIDE                             OVER VOTES                            PRECINCT 301                                           01 
01070050008000000REP       Governor WHARTON COUNTYWIDE                             OVER VOTES                            PRECINCT 302                                           01 
01070050009000000REP       Governor WHARTON COUNTYWIDE                             OVER VOTES                            PRECINCT 303                                           01 
01070050010000000REP       Governor WHARTON COUNTYWIDE                             OVER VOTES                            PRECINCT 401                                           01 
01070050011000000REP       Governor WHARTON COUNTYWIDE                             OVER VOTES                            PRECINCT 402                                           01 
01070050012000000REP       Governor WHARTON COUNTYWIDE                             OVER VOTES                            PRECINCT 403                                           01 
01070060001000009REP       Governor WHARTON COUNTYWIDE                             UNDER VOTES                           PRECINCT 101                                           01 
01070060002000016REP       Governor WHARTON COUNTYWIDE                             UNDER VOTES                           PRECINCT 102                                           01 
01070060003000008REP       Governor WHARTON COUNTYWIDE                             UNDER VOTES                           PRECINCT 103                                           01 
01070060004000012REP       Governor WHARTON COUNTYWIDE                             UNDER VOTES                           PRECINCT 201                                           01 
01070060005000001REP       Governor WHARTON COUNTYWIDE                             UNDER VOTES                           PRECINCT 202                                           01 
01070060006000005REP       Governor WHARTON COUNTYWIDE                             UNDER VOTES                           PRECINCT 203                                           01 
01070060007000014REP       Governor WHARTON COUNTYWIDE                             UNDER VOTES                           PRECINCT 301                                           01 
01070060008000016REP       Governor WHARTON COUNTYWIDE                             UNDER VOTES                           PRECINCT 302                                           01 
01070060009000011REP       Governor WHARTON COUNTYWIDE                             UNDER VOTES                           PRECINCT 303                                           01 
01070060010000016REP       Governor WHARTON COUNTYWIDE                             UNDER VOTES                           PRECINCT 401                                           01 
01070060011000015REP       Governor WHARTON COUNTYWIDE                             UNDER VOTES                           PRECINCT 402                                           01 
01070060012000003REP       Governor WHARTON COUNTYWIDE                             UNDER VOTES                           PRECINCT 403                                           01 
01080010001000044REP       Lieutenant Governor WHARTON COUNTYWIDE                  Todd Staples                          PRECINCT 101                                           01 
01080010002000084REP       Lieutenant Governor WHARTON COUNTYWIDE                  Todd Staples                          PRECINCT 102                                           01 
01080010003000032REP       Lieutenant Governor WHARTON COUNTYWIDE                  Todd Staples                          PRECINCT 103                                           01 
01080010004000100REP       Lieutenant Governor WHARTON COUNTYWIDE                  Todd Staples                          PRECINCT 201                                           01 
01080010005000009REP       Lieutenant Governor WHARTON COUNTYWIDE                  Todd Staples                          PRECINCT 202                                           01 
01080010006000046REP       Lieutenant Governor WHARTON COUNTYWIDE                  Todd Staples                          PRECINCT 203                                           01 
01080010007000100REP       Lieutenant Governor WHARTON COUNTYWIDE                  Todd Staples                          PRECINCT 301                                           01 
01080010008000072REP       Lieutenant Governor WHARTON COUNTYWIDE                  Todd Staples                          PRECINCT 302                                           01 
01080010009000072REP       Lieutenant Governor WHARTON COUNTYWIDE                  Todd Staples                          PRECINCT 303                                           01 
01080010010000038REP       Lieutenant Governor WHARTON COUNTYWIDE                  Todd Staples                          PRECINCT 401                                           01 
01080010011000030REP       Lieutenant Governor WHARTON COUNTYWIDE                  Todd Staples                          PRECINCT 402                                           01 
01080010012000019REP       Lieutenant Governor WHARTON COUNTYWIDE                  Todd Staples                          PRECINCT 403                                           01 
01080020001000073REP       Lieutenant Governor WHARTON COUNTYWIDE                  David Dewhurst                        PRECINCT 101                                           01 
01080020002000141REP       Lieutenant Governor WHARTON COUNTYWIDE                  David Dewhurst                        PRECINCT 102                                           01 
01080020003000084REP       Lieutenant Governor WHARTON COUNTYWIDE                  David Dewhurst                        PRECINCT 103                                           01 
01080020004000113REP       Lieutenant Governor WHARTON COUNTYWIDE                  David Dewhurst                        PRECINCT 201                                           01 
01080020005000014REP       Lieutenant Governor WHARTON COUNTYWIDE                  David Dewhurst                        PRECINCT 202                                           01 
01080020006000041REP       Lieutenant Governor WHARTON COUNTYWIDE                  David Dewhurst                        PRECINCT 203                                           01 
01080020007000172REP       Lieutenant Governor WHARTON COUNTYWIDE                  David Dewhurst                        PRECINCT 301                                           01 
01080020008000130REP       Lieutenant Governor WHARTON COUNTYWIDE                  David Dewhurst                        PRECINCT 302                                           01 
01080020009000106REP       Lieutenant Governor WHARTON COUNTYWIDE                  David Dewhurst                        PRECINCT 303                                           01 
01080020010000049REP       Lieutenant Governor WHARTON COUNTYWIDE                  David Dewhurst                        PRECINCT 401                                           01 
01080020011000049REP       Lieutenant Governor WHARTON COUNTYWIDE                  David Dewhurst                        PRECINCT 402                                           01 
01080020012000022REP       Lieutenant Governor WHARTON COUNTYWIDE                  David Dewhurst                        PRECINCT 403                                           01 
01080030001000131REP       Lieutenant Governor WHARTON COUNTYWIDE                  Dan Patrick                           PRECINCT 101                                           01 
01080030002000219REP       Lieutenant Governor WHARTON COUNTYWIDE                  Dan Patrick                           PRECINCT 102                                           01 
01080030003000097REP       Lieutenant Governor WHARTON COUNTYWIDE                  Dan Patrick                           PRECINCT 103                                           01 
01080030004000227REP       Lieutenant Governor WHARTON COUNTYWIDE                  Dan Patrick                           PRECINCT 201                                           01 
01080030005000014REP       Lieutenant Governor WHARTON COUNTYWIDE                  Dan Patrick                           PRECINCT 202                                           01 
01080030006000071REP       Lieutenant Governor WHARTON COUNTYWIDE                  Dan Patrick                           PRECINCT 203                                           01 
01080030007000212REP       Lieutenant Governor WHARTON COUNTYWIDE                  Dan Patrick                           PRECINCT 301                                           01 
01080030008000174REP       Lieutenant Governor WHARTON COUNTYWIDE                  Dan Patrick                           PRECINCT 302                                           01 
01080030009000171REP       Lieutenant Governor WHARTON COUNTYWIDE                  Dan Patrick                           PRECINCT 303                                           01 
01080030010000097REP       Lieutenant Governor WHARTON COUNTYWIDE                  Dan Patrick                           PRECINCT 401                                           01 
01080030011000084REP       Lieutenant Governor WHARTON COUNTYWIDE                  Dan Patrick                           PRECINCT 402                                           01 
01080030012000030REP       Lieutenant Governor WHARTON COUNTYWIDE                  Dan Patrick                           PRECINCT 403                                           01 
01080040001000055REP       Lieutenant Governor WHARTON COUNTYWIDE                  Jerry Patterson                       PRECINCT 101                                           01 
01080040002000082REP       Lieutenant Governor WHARTON COUNTYWIDE                  Jerry Patterson                       PRECINCT 102                                           01 
01080040003000015REP       Lieutenant Governor WHARTON COUNTYWIDE                  Jerry Patterson                       PRECINCT 103                                           01 
01080040004000053REP       Lieutenant Governor WHARTON COUNTYWIDE                  Jerry Patterson                       PRECINCT 201                                           01 
01080040005000010REP       Lieutenant Governor WHARTON COUNTYWIDE                  Jerry Patterson                       PRECINCT 202                                           01 
01080040006000034REP       Lieutenant Governor WHARTON COUNTYWIDE                  Jerry Patterson                       PRECINCT 203                                           01 
01080040007000083REP       Lieutenant Governor WHARTON COUNTYWIDE                  Jerry Patterson                       PRECINCT 301                                           01 
01080040008000058REP       Lieutenant Governor WHARTON COUNTYWIDE                  Jerry Patterson                       PRECINCT 302                                           01 
01080040009000042REP       Lieutenant Governor WHARTON COUNTYWIDE                  Jerry Patterson                       PRECINCT 303                                           01 
01080040010000030REP       Lieutenant Governor WHARTON COUNTYWIDE                  Jerry Patterson                       PRECINCT 401                                           01 
01080040011000015REP       Lieutenant Governor WHARTON COUNTYWIDE                  Jerry Patterson                       PRECINCT 402                                           01 
01080040012000013REP       Lieutenant Governor WHARTON COUNTYWIDE                  Jerry Patterson                       PRECINCT 403                                           01 
01080050001000000REP       Lieutenant Governor WHARTON COUNTYWIDE                  OVER VOTES                            PRECINCT 101                                           01 
01080050002000000REP       Lieutenant Governor WHARTON COUNTYWIDE                  OVER VOTES                            PRECINCT 102                                           01 
01080050003000000REP       Lieutenant Governor WHARTON COUNTYWIDE                  OVER VOTES                            PRECINCT 103                                           01 
01080050004000000REP       Lieutenant Governor WHARTON COUNTYWIDE                  OVER VOTES                            PRECINCT 201                                           01 
01080050005000000REP       Lieutenant Governor WHARTON COUNTYWIDE                  OVER VOTES                            PRECINCT 202                                           01 
01080050006000000REP       Lieutenant Governor WHARTON COUNTYWIDE                  OVER VOTES                            PRECINCT 203                                           01 
01080050007000000REP       Lieutenant Governor WHARTON COUNTYWIDE                  OVER VOTES                            PRECINCT 301                                           01 
01080050008000000REP       Lieutenant Governor WHARTON COUNTYWIDE                  OVER VOTES                            PRECINCT 302                                           01 
01080050009000000REP       Lieutenant Governor WHARTON COUNTYWIDE                  OVER VOTES                            PRECINCT 303                                           01 
01080050010000000REP       Lieutenant Governor WHARTON COUNTYWIDE                  OVER VOTES                            PRECINCT 401                                           01 
01080050011000000REP       Lieutenant Governor WHARTON COUNTYWIDE                  OVER VOTES                            PRECINCT 402                                           01 
01080050012000000REP       Lieutenant Governor WHARTON COUNTYWIDE                  OVER VOTES                            PRECINCT 403                                           01 
01080060001000011REP       Lieutenant Governor WHARTON COUNTYWIDE                  UNDER VOTES                           PRECINCT 101                                           01 
01080060002000010REP       Lieutenant Governor WHARTON COUNTYWIDE                  UNDER VOTES                           PRECINCT 102                                           01 
01080060003000006REP       Lieutenant Governor WHARTON COUNTYWIDE                  UNDER VOTES                           PRECINCT 103                                           01 
01080060004000012REP       Lieutenant Governor WHARTON COUNTYWIDE                  UNDER VOTES                           PRECINCT 201                                           01 
01080060005000002REP       Lieutenant Governor WHARTON COUNTYWIDE                  UNDER VOTES                           PRECINCT 202                                           01 
01080060006000009REP       Lieutenant Governor WHARTON COUNTYWIDE                  UNDER VOTES                           PRECINCT 203                                           01 
01080060007000017REP       Lieutenant Governor WHARTON COUNTYWIDE                  UNDER VOTES                           PRECINCT 301                                           01 
01080060008000019REP       Lieutenant Governor WHARTON COUNTYWIDE                  UNDER VOTES                           PRECINCT 302                                           01 
01080060009000014REP       Lieutenant Governor WHARTON COUNTYWIDE                  UNDER VOTES                           PRECINCT 303                                           01 
01080060010000016REP       Lieutenant Governor WHARTON COUNTYWIDE                  UNDER VOTES                           PRECINCT 401                                           01 
01080060011000015REP       Lieutenant Governor WHARTON COUNTYWIDE                  UNDER VOTES                           PRECINCT 402                                           01 
01080060012000004REP       Lieutenant Governor WHARTON COUNTYWIDE                  UNDER VOTES                           PRECINCT 403                                           01 
01090010001000113REP       Attorney General WHARTON COUNTYWIDE                     Dan Branch                            PRECINCT 101                                           01 
01090010002000193REP       Attorney General WHARTON COUNTYWIDE                     Dan Branch                            PRECINCT 102                                           01 
01090010003000082REP       Attorney General WHARTON COUNTYWIDE                     Dan Branch                            PRECINCT 103                                           01 
01090010004000204REP       Attorney General WHARTON COUNTYWIDE                     Dan Branch                            PRECINCT 201                                           01 
01090010005000018REP       Attorney General WHARTON COUNTYWIDE                     Dan Branch                            PRECINCT 202                                           01 
01090010006000071REP       Attorney General WHARTON COUNTYWIDE                     Dan Branch                            PRECINCT 203                                           01 
01090010007000238REP       Attorney General WHARTON COUNTYWIDE                     Dan Branch                            PRECINCT 301                                           01 
01090010008000182REP       Attorney General WHARTON COUNTYWIDE                     Dan Branch                            PRECINCT 302                                           01 
01090010009000140REP       Attorney General WHARTON COUNTYWIDE                     Dan Branch                            PRECINCT 303                                           01 
01090010010000076REP       Attorney General WHARTON COUNTYWIDE                     Dan Branch                            PRECINCT 401                                           01 
01090010011000063REP       Attorney General WHARTON COUNTYWIDE                     Dan Branch                            PRECINCT 402                                           01 
01090010012000032REP       Attorney General WHARTON COUNTYWIDE                     Dan Branch                            PRECINCT 403                                           01 
01090020001000111REP       Attorney General WHARTON COUNTYWIDE                     Ken Paxton                            PRECINCT 101                                           01 
01090020002000198REP       Attorney General WHARTON COUNTYWIDE                     Ken Paxton                            PRECINCT 102                                           01 
01090020003000090REP       Attorney General WHARTON COUNTYWIDE                     Ken Paxton                            PRECINCT 103                                           01 
01090020004000175REP       Attorney General WHARTON COUNTYWIDE                     Ken Paxton                            PRECINCT 201                                           01 
01090020005000018REP       Attorney General WHARTON COUNTYWIDE                     Ken Paxton                            PRECINCT 202                                           01 
01090020006000080REP       Attorney General WHARTON COUNTYWIDE                     Ken Paxton                            PRECINCT 203                                           01 
01090020007000200REP       Attorney General WHARTON COUNTYWIDE                     Ken Paxton                            PRECINCT 301                                           01 
01090020008000156REP       Attorney General WHARTON COUNTYWIDE                     Ken Paxton                            PRECINCT 302                                           01 
01090020009000156REP       Attorney General WHARTON COUNTYWIDE                     Ken Paxton                            PRECINCT 303                                           01 
01090020010000082REP       Attorney General WHARTON COUNTYWIDE                     Ken Paxton                            PRECINCT 401                                           01 
01090020011000079REP       Attorney General WHARTON COUNTYWIDE                     Ken Paxton                            PRECINCT 402                                           01 
01090020012000039REP       Attorney General WHARTON COUNTYWIDE                     Ken Paxton                            PRECINCT 403                                           01 
01090030001000062REP       Attorney General WHARTON COUNTYWIDE                     Barry Smitherman                      PRECINCT 101                                           01 
01090030002000098REP       Attorney General WHARTON COUNTYWIDE                     Barry Smitherman                      PRECINCT 102                                           01 
01090030003000045REP       Attorney General WHARTON COUNTYWIDE                     Barry Smitherman                      PRECINCT 103                                           01 
01090030004000083REP       Attorney General WHARTON COUNTYWIDE                     Barry Smitherman                      PRECINCT 201                                           01 
01090030005000007REP       Attorney General WHARTON COUNTYWIDE                     Barry Smitherman                      PRECINCT 202                                           01 
01090030006000034REP       Attorney General WHARTON COUNTYWIDE                     Barry Smitherman                      PRECINCT 203                                           01 
01090030007000101REP       Attorney General WHARTON COUNTYWIDE                     Barry Smitherman                      PRECINCT 301                                           01 
01090030008000076REP       Attorney General WHARTON COUNTYWIDE                     Barry Smitherman                      PRECINCT 302                                           01 
01090030009000079REP       Attorney General WHARTON COUNTYWIDE                     Barry Smitherman                      PRECINCT 303                                           01 
01090030010000047REP       Attorney General WHARTON COUNTYWIDE                     Barry Smitherman                      PRECINCT 401                                           01 
01090030011000025REP       Attorney General WHARTON COUNTYWIDE                     Barry Smitherman                      PRECINCT 402                                           01 
01090030012000007REP       Attorney General WHARTON COUNTYWIDE                     Barry Smitherman                      PRECINCT 403                                           01 
01090040001000000REP       Attorney General WHARTON COUNTYWIDE                     OVER VOTES                            PRECINCT 101                                           01 
01090040002000000REP       Attorney General WHARTON COUNTYWIDE                     OVER VOTES                            PRECINCT 102                                           01 
01090040003000000REP       Attorney General WHARTON COUNTYWIDE                     OVER VOTES                            PRECINCT 103                                           01 
01090040004000000REP       Attorney General WHARTON COUNTYWIDE                     OVER VOTES                            PRECINCT 201                                           01 
01090040005000000REP       Attorney General WHARTON COUNTYWIDE                     OVER VOTES                            PRECINCT 202                                           01 
01090040006000000REP       Attorney General WHARTON COUNTYWIDE                     OVER VOTES                            PRECINCT 203                                           01 
01090040007000000REP       Attorney General WHARTON COUNTYWIDE                     OVER VOTES                            PRECINCT 301                                           01 
01090040008000000REP       Attorney General WHARTON COUNTYWIDE                     OVER VOTES                            PRECINCT 302                                           01 
01090040009000000REP       Attorney General WHARTON COUNTYWIDE                     OVER VOTES                            PRECINCT 303                                           01 
01090040010000000REP       Attorney General WHARTON COUNTYWIDE                     OVER VOTES                            PRECINCT 401                                           01 
01090040011000000REP       Attorney General WHARTON COUNTYWIDE                     OVER VOTES                            PRECINCT 402                                           01 
01090040012000000REP       Attorney General WHARTON COUNTYWIDE                     OVER VOTES                            PRECINCT 403                                           01 
01090050001000028REP       Attorney General WHARTON COUNTYWIDE                     UNDER VOTES                           PRECINCT 101                                           01 
01090050002000047REP       Attorney General WHARTON COUNTYWIDE                     UNDER VOTES                           PRECINCT 102                                           01 
01090050003000017REP       Attorney General WHARTON COUNTYWIDE                     UNDER VOTES                           PRECINCT 103                                           01 
01090050004000043REP       Attorney General WHARTON COUNTYWIDE                     UNDER VOTES                           PRECINCT 201                                           01 
01090050005000006REP       Attorney General WHARTON COUNTYWIDE                     UNDER VOTES                           PRECINCT 202                                           01 
01090050006000016REP       Attorney General WHARTON COUNTYWIDE                     UNDER VOTES                           PRECINCT 203                                           01 
01090050007000045REP       Attorney General WHARTON COUNTYWIDE                     UNDER VOTES                           PRECINCT 301                                           01 
01090050008000039REP       Attorney General WHARTON COUNTYWIDE                     UNDER VOTES                           PRECINCT 302                                           01 
01090050009000030REP       Attorney General WHARTON COUNTYWIDE                     UNDER VOTES                           PRECINCT 303                                           01 
01090050010000025REP       Attorney General WHARTON COUNTYWIDE                     UNDER VOTES                           PRECINCT 401                                           01 
01090050011000026REP       Attorney General WHARTON COUNTYWIDE                     UNDER VOTES                           PRECINCT 402                                           01 
01090050012000010REP       Attorney General WHARTON COUNTYWIDE                     UNDER VOTES                           PRECINCT 403                                           01 
01100010001000201REP       Comptroller of Public Accounts WHARTON COUNTYWIDE       Glenn Hegar                           PRECINCT 101                                           01 
01100010002000378REP       Comptroller of Public Accounts WHARTON COUNTYWIDE       Glenn Hegar                           PRECINCT 102                                           01 
01100010003000158REP       Comptroller of Public Accounts WHARTON COUNTYWIDE       Glenn Hegar                           PRECINCT 103                                           01 
01100010004000396REP       Comptroller of Public Accounts WHARTON COUNTYWIDE       Glenn Hegar                           PRECINCT 201                                           01 
01100010005000033REP       Comptroller of Public Accounts WHARTON COUNTYWIDE       Glenn Hegar                           PRECINCT 202                                           01 
01100010006000139REP       Comptroller of Public Accounts WHARTON COUNTYWIDE       Glenn Hegar                           PRECINCT 203                                           01 
01100010007000480REP       Comptroller of Public Accounts WHARTON COUNTYWIDE       Glenn Hegar                           PRECINCT 301                                           01 
01100010008000353REP       Comptroller of Public Accounts WHARTON COUNTYWIDE       Glenn Hegar                           PRECINCT 302                                           01 
01100010009000297REP       Comptroller of Public Accounts WHARTON COUNTYWIDE       Glenn Hegar                           PRECINCT 303                                           01 
01100010010000169REP       Comptroller of Public Accounts WHARTON COUNTYWIDE       Glenn Hegar                           PRECINCT 401                                           01 
01100010011000143REP       Comptroller of Public Accounts WHARTON COUNTYWIDE       Glenn Hegar                           PRECINCT 402                                           01 
01100010012000058REP       Comptroller of Public Accounts WHARTON COUNTYWIDE       Glenn Hegar                           PRECINCT 403                                           01 
01100020001000076REP       Comptroller of Public Accounts WHARTON COUNTYWIDE       Debra Medina                          PRECINCT 101                                           01 
01100020002000107REP       Comptroller of Public Accounts WHARTON COUNTYWIDE       Debra Medina                          PRECINCT 102                                           01 
01100020003000038REP       Comptroller of Public Accounts WHARTON COUNTYWIDE       Debra Medina                          PRECINCT 103                                           01 
01100020004000063REP       Comptroller of Public Accounts WHARTON COUNTYWIDE       Debra Medina                          PRECINCT 201                                           01 
01100020005000010REP       Comptroller of Public Accounts WHARTON COUNTYWIDE       Debra Medina                          PRECINCT 202                                           01 
01100020006000044REP       Comptroller of Public Accounts WHARTON COUNTYWIDE       Debra Medina                          PRECINCT 203                                           01 
01100020007000043REP       Comptroller of Public Accounts WHARTON COUNTYWIDE       Debra Medina                          PRECINCT 301                                           01 
01100020008000050REP       Comptroller of Public Accounts WHARTON COUNTYWIDE       Debra Medina                          PRECINCT 302                                           01 
01100020009000060REP       Comptroller of Public Accounts WHARTON COUNTYWIDE       Debra Medina                          PRECINCT 303                                           01 
01100020010000027REP       Comptroller of Public Accounts WHARTON COUNTYWIDE       Debra Medina                          PRECINCT 401                                           01 
01100020011000021REP       Comptroller of Public Accounts WHARTON COUNTYWIDE       Debra Medina                          PRECINCT 402                                           01 
01100020012000019REP       Comptroller of Public Accounts WHARTON COUNTYWIDE       Debra Medina                          PRECINCT 403                                           01 
01100030001000025REP       Comptroller of Public Accounts WHARTON COUNTYWIDE       Harvey Hilderbran                     PRECINCT 101                                           01 
01100030002000036REP       Comptroller of Public Accounts WHARTON COUNTYWIDE       Harvey Hilderbran                     PRECINCT 102                                           01 
01100030003000024REP       Comptroller of Public Accounts WHARTON COUNTYWIDE       Harvey Hilderbran                     PRECINCT 103                                           01 
01100030004000031REP       Comptroller of Public Accounts WHARTON COUNTYWIDE       Harvey Hilderbran                     PRECINCT 201                                           01 
01100030005000003REP       Comptroller of Public Accounts WHARTON COUNTYWIDE       Harvey Hilderbran                     PRECINCT 202                                           01 
01100030006000009REP       Comptroller of Public Accounts WHARTON COUNTYWIDE       Harvey Hilderbran                     PRECINCT 203                                           01 
01100030007000046REP       Comptroller of Public Accounts WHARTON COUNTYWIDE       Harvey Hilderbran                     PRECINCT 301                                           01 
01100030008000026REP       Comptroller of Public Accounts WHARTON COUNTYWIDE       Harvey Hilderbran                     PRECINCT 302                                           01 
01100030009000037REP       Comptroller of Public Accounts WHARTON COUNTYWIDE       Harvey Hilderbran                     PRECINCT 303                                           01 
01100030010000012REP       Comptroller of Public Accounts WHARTON COUNTYWIDE       Harvey Hilderbran                     PRECINCT 401                                           01 
01100030011000015REP       Comptroller of Public Accounts WHARTON COUNTYWIDE       Harvey Hilderbran                     PRECINCT 402                                           01 
01100030012000004REP       Comptroller of Public Accounts WHARTON COUNTYWIDE       Harvey Hilderbran                     PRECINCT 403                                           01 
01100040001000003REP       Comptroller of Public Accounts WHARTON COUNTYWIDE       Raul Torres                           PRECINCT 101                                           01 
01100040002000004REP       Comptroller of Public Accounts WHARTON COUNTYWIDE       Raul Torres                           PRECINCT 102                                           01 
01100040003000005REP       Comptroller of Public Accounts WHARTON COUNTYWIDE       Raul Torres                           PRECINCT 103                                           01 
01100040004000004REP       Comptroller of Public Accounts WHARTON COUNTYWIDE       Raul Torres                           PRECINCT 201                                           01 
01100040005000002REP       Comptroller of Public Accounts WHARTON COUNTYWIDE       Raul Torres                           PRECINCT 202                                           01 
01100040006000004REP       Comptroller of Public Accounts WHARTON COUNTYWIDE       Raul Torres                           PRECINCT 203                                           01 
01100040007000002REP       Comptroller of Public Accounts WHARTON COUNTYWIDE       Raul Torres                           PRECINCT 301                                           01 
01100040008000009REP       Comptroller of Public Accounts WHARTON COUNTYWIDE       Raul Torres                           PRECINCT 302                                           01 
01100040009000001REP       Comptroller of Public Accounts WHARTON COUNTYWIDE       Raul Torres                           PRECINCT 303                                           01 
01100040010000005REP       Comptroller of Public Accounts WHARTON COUNTYWIDE       Raul Torres                           PRECINCT 401                                           01 
01100040011000003REP       Comptroller of Public Accounts WHARTON COUNTYWIDE       Raul Torres                           PRECINCT 402                                           01 
01100040012000001REP       Comptroller of Public Accounts WHARTON COUNTYWIDE       Raul Torres                           PRECINCT 403                                           01 
01100050001000000REP       Comptroller of Public Accounts WHARTON COUNTYWIDE       OVER VOTES                            PRECINCT 101                                           01 
01100050002000000REP       Comptroller of Public Accounts WHARTON COUNTYWIDE       OVER VOTES                            PRECINCT 102                                           01 
01100050003000000REP       Comptroller of Public Accounts WHARTON COUNTYWIDE       OVER VOTES                            PRECINCT 103                                           01 
01100050004000000REP       Comptroller of Public Accounts WHARTON COUNTYWIDE       OVER VOTES                            PRECINCT 201                                           01 
01100050005000000REP       Comptroller of Public Accounts WHARTON COUNTYWIDE       OVER VOTES                            PRECINCT 202                                           01 
01100050006000000REP       Comptroller of Public Accounts WHARTON COUNTYWIDE       OVER VOTES                            PRECINCT 203                                           01 
01100050007000000REP       Comptroller of Public Accounts WHARTON COUNTYWIDE       OVER VOTES                            PRECINCT 301                                           01 
01100050008000000REP       Comptroller of Public Accounts WHARTON COUNTYWIDE       OVER VOTES                            PRECINCT 302                                           01 
01100050009000000REP       Comptroller of Public Accounts WHARTON COUNTYWIDE       OVER VOTES                            PRECINCT 303                                           01 
01100050010000001REP       Comptroller of Public Accounts WHARTON COUNTYWIDE       OVER VOTES                            PRECINCT 401                                           01 
01100050011000000REP       Comptroller of Public Accounts WHARTON COUNTYWIDE       OVER VOTES                            PRECINCT 402                                           01 
01100050012000000REP       Comptroller of Public Accounts WHARTON COUNTYWIDE       OVER VOTES                            PRECINCT 403                                           01 
01100060001000009REP       Comptroller of Public Accounts WHARTON COUNTYWIDE       UNDER VOTES                           PRECINCT 101                                           01 
01100060002000011REP       Comptroller of Public Accounts WHARTON COUNTYWIDE       UNDER VOTES                           PRECINCT 102                                           01 
01100060003000009REP       Comptroller of Public Accounts WHARTON COUNTYWIDE       UNDER VOTES                           PRECINCT 103                                           01 
01100060004000011REP       Comptroller of Public Accounts WHARTON COUNTYWIDE       UNDER VOTES                           PRECINCT 201                                           01 
01100060005000001REP       Comptroller of Public Accounts WHARTON COUNTYWIDE       UNDER VOTES                           PRECINCT 202                                           01 
01100060006000005REP       Comptroller of Public Accounts WHARTON COUNTYWIDE       UNDER VOTES                           PRECINCT 203                                           01 
01100060007000013REP       Comptroller of Public Accounts WHARTON COUNTYWIDE       UNDER VOTES                           PRECINCT 301                                           01 
01100060008000015REP       Comptroller of Public Accounts WHARTON COUNTYWIDE       UNDER VOTES                           PRECINCT 302                                           01 
01100060009000010REP       Comptroller of Public Accounts WHARTON COUNTYWIDE       UNDER VOTES                           PRECINCT 303                                           01 
01100060010000016REP       Comptroller of Public Accounts WHARTON COUNTYWIDE       UNDER VOTES                           PRECINCT 401                                           01 
01100060011000011REP       Comptroller of Public Accounts WHARTON COUNTYWIDE       UNDER VOTES                           PRECINCT 402                                           01 
01100060012000006REP       Comptroller of Public Accounts WHARTON COUNTYWIDE       UNDER VOTES                           PRECINCT 403                                           01 
01110010001000088REP       Commissioner of the General Land Office                 David Watts                           PRECINCT 101                                           01 
01110010002000106REP       Commissioner of the General Land Office                 David Watts                           PRECINCT 102                                           01 
01110010003000065REP       Commissioner of the General Land Office                 David Watts                           PRECINCT 103                                           01 
01110010004000139REP       Commissioner of the General Land Office                 David Watts                           PRECINCT 201                                           01 
01110010005000012REP       Commissioner of the General Land Office                 David Watts                           PRECINCT 202                                           01 
01110010006000064REP       Commissioner of the General Land Office                 David Watts                           PRECINCT 203                                           01 
01110010007000112REP       Commissioner of the General Land Office                 David Watts                           PRECINCT 301                                           01 
01110010008000109REP       Commissioner of the General Land Office                 David Watts                           PRECINCT 302                                           01 
01110010009000108REP       Commissioner of the General Land Office                 David Watts                           PRECINCT 303                                           01 
01110010010000060REP       Commissioner of the General Land Office                 David Watts                           PRECINCT 401                                           01 
01110010011000040REP       Commissioner of the General Land Office                 David Watts                           PRECINCT 402                                           01 
01110010012000023REP       Commissioner of the General Land Office                 David Watts                           PRECINCT 403                                           01 
01110020001000209REP       Commissioner of the General Land Office                 George P. Bush                        PRECINCT 101                                           01 
01110020002000405REP       Commissioner of the General Land Office                 George P. Bush                        PRECINCT 102                                           01 
01110020003000161REP       Commissioner of the General Land Office                 George P. Bush                        PRECINCT 103                                           01 
01110020004000340REP       Commissioner of the General Land Office                 George P. Bush                        PRECINCT 201                                           01 
01110020005000034REP       Commissioner of the General Land Office                 George P. Bush                        PRECINCT 202                                           01 
01110020006000126REP       Commissioner of the General Land Office                 George P. Bush                        PRECINCT 203                                           01 
01110020007000442REP       Commissioner of the General Land Office                 George P. Bush                        PRECINCT 301                                           01 
01110020008000311REP       Commissioner of the General Land Office                 George P. Bush                        PRECINCT 302                                           01 
01110020009000276REP       Commissioner of the General Land Office                 George P. Bush                        PRECINCT 303                                           01 
01110020010000157REP       Commissioner of the General Land Office                 George P. Bush                        PRECINCT 401                                           01 
01110020011000129REP       Commissioner of the General Land Office                 George P. Bush                        PRECINCT 402                                           01 
01110020012000062REP       Commissioner of the General Land Office                 George P. Bush                        PRECINCT 403                                           01 
01110030001000000REP       Commissioner of the General Land Office                 OVER VOTES                            PRECINCT 101                                           01 
01110030002000000REP       Commissioner of the General Land Office                 OVER VOTES                            PRECINCT 102                                           01 
01110030003000000REP       Commissioner of the General Land Office                 OVER VOTES                            PRECINCT 103                                           01 
01110030004000000REP       Commissioner of the General Land Office                 OVER VOTES                            PRECINCT 201                                           01 
01110030005000000REP       Commissioner of the General Land Office                 OVER VOTES                            PRECINCT 202                                           01 
01110030006000000REP       Commissioner of the General Land Office                 OVER VOTES                            PRECINCT 203                                           01 
01110030007000000REP       Commissioner of the General Land Office                 OVER VOTES                            PRECINCT 301                                           01 
01110030008000000REP       Commissioner of the General Land Office                 OVER VOTES                            PRECINCT 302                                           01 
01110030009000000REP       Commissioner of the General Land Office                 OVER VOTES                            PRECINCT 303                                           01 
01110030010000000REP       Commissioner of the General Land Office                 OVER VOTES                            PRECINCT 401                                           01 
01110030011000000REP       Commissioner of the General Land Office                 OVER VOTES                            PRECINCT 402                                           01 
01110030012000000REP       Commissioner of the General Land Office                 OVER VOTES                            PRECINCT 403                                           01 
01110040001000017REP       Commissioner of the General Land Office                 UNDER VOTES                           PRECINCT 101                                           01 
01110040002000025REP       Commissioner of the General Land Office                 UNDER VOTES                           PRECINCT 102                                           01 
01110040003000008REP       Commissioner of the General Land Office                 UNDER VOTES                           PRECINCT 103                                           01 
01110040004000026REP       Commissioner of the General Land Office                 UNDER VOTES                           PRECINCT 201                                           01 
01110040005000003REP       Commissioner of the General Land Office                 UNDER VOTES                           PRECINCT 202                                           01 
01110040006000011REP       Commissioner of the General Land Office                 UNDER VOTES                           PRECINCT 203                                           01 
01110040007000030REP       Commissioner of the General Land Office                 UNDER VOTES                           PRECINCT 301                                           01 
01110040008000033REP       Commissioner of the General Land Office                 UNDER VOTES                           PRECINCT 302                                           01 
01110040009000021REP       Commissioner of the General Land Office                 UNDER VOTES                           PRECINCT 303                                           01 
01110040010000013REP       Commissioner of the General Land Office                 UNDER VOTES                           PRECINCT 401                                           01 
01110040011000024REP       Commissioner of the General Land Office                 UNDER VOTES                           PRECINCT 402                                           01 
01110040012000003REP       Commissioner of the General Land Office                 UNDER VOTES                           PRECINCT 403                                           01 
01120010001000076REP       Commissioner of Agriculture WHARTON COUNTYWIDE          Sid Miller                            PRECINCT 101                                           01 
01120010002000118REP       Commissioner of Agriculture WHARTON COUNTYWIDE          Sid Miller                            PRECINCT 102                                           01 
01120010003000039REP       Commissioner of Agriculture WHARTON COUNTYWIDE          Sid Miller                            PRECINCT 103                                           01 
01120010004000095REP       Commissioner of Agriculture WHARTON COUNTYWIDE          Sid Miller                            PRECINCT 201                                           01 
01120010005000009REP       Commissioner of Agriculture WHARTON COUNTYWIDE          Sid Miller                            PRECINCT 202                                           01 
01120010006000047REP       Commissioner of Agriculture WHARTON COUNTYWIDE          Sid Miller                            PRECINCT 203                                           01 
01120010007000101REP       Commissioner of Agriculture WHARTON COUNTYWIDE          Sid Miller                            PRECINCT 301                                           01 
01120010008000087REP       Commissioner of Agriculture WHARTON COUNTYWIDE          Sid Miller                            PRECINCT 302                                           01 
01120010009000096REP       Commissioner of Agriculture WHARTON COUNTYWIDE          Sid Miller                            PRECINCT 303                                           01 
01120010010000047REP       Commissioner of Agriculture WHARTON COUNTYWIDE          Sid Miller                            PRECINCT 401                                           01 
01120010011000031REP       Commissioner of Agriculture WHARTON COUNTYWIDE          Sid Miller                            PRECINCT 402                                           01 
01120010012000019REP       Commissioner of Agriculture WHARTON COUNTYWIDE          Sid Miller                            PRECINCT 403                                           01 
01120020001000077REP       Commissioner of Agriculture WHARTON COUNTYWIDE          Eric Opiela                           PRECINCT 101                                           01 
01120020002000136REP       Commissioner of Agriculture WHARTON COUNTYWIDE          Eric Opiela                           PRECINCT 102                                           01 
01120020003000069REP       Commissioner of Agriculture WHARTON COUNTYWIDE          Eric Opiela                           PRECINCT 103                                           01 
01120020004000160REP       Commissioner of Agriculture WHARTON COUNTYWIDE          Eric Opiela                           PRECINCT 201                                           01 
01120020005000014REP       Commissioner of Agriculture WHARTON COUNTYWIDE          Eric Opiela                           PRECINCT 202                                           01 
01120020006000056REP       Commissioner of Agriculture WHARTON COUNTYWIDE          Eric Opiela                           PRECINCT 203                                           01 
01120020007000166REP       Commissioner of Agriculture WHARTON COUNTYWIDE          Eric Opiela                           PRECINCT 301                                           01 
01120020008000096REP       Commissioner of Agriculture WHARTON COUNTYWIDE          Eric Opiela                           PRECINCT 302                                           01 
01120020009000130REP       Commissioner of Agriculture WHARTON COUNTYWIDE          Eric Opiela                           PRECINCT 303                                           01 
01120020010000074REP       Commissioner of Agriculture WHARTON COUNTYWIDE          Eric Opiela                           PRECINCT 401                                           01 
01120020011000062REP       Commissioner of Agriculture WHARTON COUNTYWIDE          Eric Opiela                           PRECINCT 402                                           01 
01120020012000019REP       Commissioner of Agriculture WHARTON COUNTYWIDE          Eric Opiela                           PRECINCT 403                                           01 
01120030001000040REP       Commissioner of Agriculture WHARTON COUNTYWIDE          Joe Cotten                            PRECINCT 101                                           01 
01120030002000079REP       Commissioner of Agriculture WHARTON COUNTYWIDE          Joe Cotten                            PRECINCT 102                                           01 
01120030003000035REP       Commissioner of Agriculture WHARTON COUNTYWIDE          Joe Cotten                            PRECINCT 103                                           01 
01120030004000055REP       Commissioner of Agriculture WHARTON COUNTYWIDE          Joe Cotten                            PRECINCT 201                                           01 
01120030005000006REP       Commissioner of Agriculture WHARTON COUNTYWIDE          Joe Cotten                            PRECINCT 202                                           01 
01120030006000031REP       Commissioner of Agriculture WHARTON COUNTYWIDE          Joe Cotten                            PRECINCT 203                                           01 
01120030007000091REP       Commissioner of Agriculture WHARTON COUNTYWIDE          Joe Cotten                            PRECINCT 301                                           01 
01120030008000063REP       Commissioner of Agriculture WHARTON COUNTYWIDE          Joe Cotten                            PRECINCT 302                                           01 
01120030009000058REP       Commissioner of Agriculture WHARTON COUNTYWIDE          Joe Cotten                            PRECINCT 303                                           01 
01120030010000030REP       Commissioner of Agriculture WHARTON COUNTYWIDE          Joe Cotten                            PRECINCT 401                                           01 
01120030011000026REP       Commissioner of Agriculture WHARTON COUNTYWIDE          Joe Cotten                            PRECINCT 402                                           01 
01120030012000012REP       Commissioner of Agriculture WHARTON COUNTYWIDE          Joe Cotten                            PRECINCT 403                                           01 
01120040001000049REP       Commissioner of Agriculture WHARTON COUNTYWIDE          J. Allen Carnes                       PRECINCT 101                                           01 
01120040002000059REP       Commissioner of Agriculture WHARTON COUNTYWIDE          J. Allen Carnes                       PRECINCT 102                                           01 
01120040003000041REP       Commissioner of Agriculture WHARTON COUNTYWIDE          J. Allen Carnes                       PRECINCT 103                                           01 
01120040004000105REP       Commissioner of Agriculture WHARTON COUNTYWIDE          J. Allen Carnes                       PRECINCT 201                                           01 
01120040005000006REP       Commissioner of Agriculture WHARTON COUNTYWIDE          J. Allen Carnes                       PRECINCT 202                                           01 
01120040006000030REP       Commissioner of Agriculture WHARTON COUNTYWIDE          J. Allen Carnes                       PRECINCT 203                                           01 
01120040007000092REP       Commissioner of Agriculture WHARTON COUNTYWIDE          J. Allen Carnes                       PRECINCT 301                                           01 
01120040008000097REP       Commissioner of Agriculture WHARTON COUNTYWIDE          J. Allen Carnes                       PRECINCT 302                                           01 
01120040009000062REP       Commissioner of Agriculture WHARTON COUNTYWIDE          J. Allen Carnes                       PRECINCT 303                                           01 
01120040010000022REP       Commissioner of Agriculture WHARTON COUNTYWIDE          J. Allen Carnes                       PRECINCT 401                                           01 
01120040011000022REP       Commissioner of Agriculture WHARTON COUNTYWIDE          J. Allen Carnes                       PRECINCT 402                                           01 
01120040012000017REP       Commissioner of Agriculture WHARTON COUNTYWIDE          J. Allen Carnes                       PRECINCT 403                                           01 
01120050001000033REP       Commissioner of Agriculture WHARTON COUNTYWIDE          Tommy Merritt                         PRECINCT 101                                           01 
01120050002000057REP       Commissioner of Agriculture WHARTON COUNTYWIDE          Tommy Merritt                         PRECINCT 102                                           01 
01120050003000020REP       Commissioner of Agriculture WHARTON COUNTYWIDE          Tommy Merritt                         PRECINCT 103                                           01 
01120050004000039REP       Commissioner of Agriculture WHARTON COUNTYWIDE          Tommy Merritt                         PRECINCT 201                                           01 
01120050005000004REP       Commissioner of Agriculture WHARTON COUNTYWIDE          Tommy Merritt                         PRECINCT 202                                           01 
01120050006000019REP       Commissioner of Agriculture WHARTON COUNTYWIDE          Tommy Merritt                         PRECINCT 203                                           01 
01120050007000054REP       Commissioner of Agriculture WHARTON COUNTYWIDE          Tommy Merritt                         PRECINCT 301                                           01 
01120050008000049REP       Commissioner of Agriculture WHARTON COUNTYWIDE          Tommy Merritt                         PRECINCT 302                                           01 
01120050009000028REP       Commissioner of Agriculture WHARTON COUNTYWIDE          Tommy Merritt                         PRECINCT 303                                           01 
01120050010000027REP       Commissioner of Agriculture WHARTON COUNTYWIDE          Tommy Merritt                         PRECINCT 401                                           01 
01120050011000018REP       Commissioner of Agriculture WHARTON COUNTYWIDE          Tommy Merritt                         PRECINCT 402                                           01 
01120050012000006REP       Commissioner of Agriculture WHARTON COUNTYWIDE          Tommy Merritt                         PRECINCT 403                                           01 
01120060001000000REP       Commissioner of Agriculture WHARTON COUNTYWIDE          OVER VOTES                            PRECINCT 101                                           01 
01120060002000000REP       Commissioner of Agriculture WHARTON COUNTYWIDE          OVER VOTES                            PRECINCT 102                                           01 
01120060003000000REP       Commissioner of Agriculture WHARTON COUNTYWIDE          OVER VOTES                            PRECINCT 103                                           01 
01120060004000000REP       Commissioner of Agriculture WHARTON COUNTYWIDE          OVER VOTES                            PRECINCT 201                                           01 
01120060005000000REP       Commissioner of Agriculture WHARTON COUNTYWIDE          OVER VOTES                            PRECINCT 202                                           01 
01120060006000000REP       Commissioner of Agriculture WHARTON COUNTYWIDE          OVER VOTES                            PRECINCT 203                                           01 
01120060007000000REP       Commissioner of Agriculture WHARTON COUNTYWIDE          OVER VOTES                            PRECINCT 301                                           01 
01120060008000000REP       Commissioner of Agriculture WHARTON COUNTYWIDE          OVER VOTES                            PRECINCT 302                                           01 
01120060009000000REP       Commissioner of Agriculture WHARTON COUNTYWIDE          OVER VOTES                            PRECINCT 303                                           01 
01120060010000000REP       Commissioner of Agriculture WHARTON COUNTYWIDE          OVER VOTES                            PRECINCT 401                                           01 
01120060011000000REP       Commissioner of Agriculture WHARTON COUNTYWIDE          OVER VOTES                            PRECINCT 402                                           01 
01120060012000000REP       Commissioner of Agriculture WHARTON COUNTYWIDE          OVER VOTES                            PRECINCT 403                                           01 
