01340010001000009DEM       United States Senator WHARTON COUNTYWIDE                Kesha Rogers                          PRECINCT 101                                           01 
01340010002000001DEM       United States Senator WHARTON COUNTYWIDE                Kesha Rogers                          PRECINCT 102                                           01 
01340010003000007DEM       United States Senator WHARTON COUNTYWIDE                Kesha Rogers                          PRECINCT 103                                           01 
01340010004000003DEM       United States Senator WHARTON COUNTYWIDE                Kesha Rogers                          PRECINCT 201                                           01 
01340010005000010DEM       United States Senator WHARTON COUNTYWIDE                Kesha Rogers                          PRECINCT 202                                           01 
01340010006000027DEM       United States Senator WHARTON COUNTYWIDE                Kesha Rogers                          PRECINCT 203                                           01 
01340010007000003DEM       United States Senator WHARTON COUNTYWIDE                Kesha Rogers                          PRECINCT 301                                           01 
01340010008000003DEM       United States Senator WHARTON COUNTYWIDE                Kesha Rogers                          PRECINCT 302                                           01 
01340010009000001DEM       United States Senator WHARTON COUNTYWIDE                Kesha Rogers                          PRECINCT 303                                           01 
01340010010000016DEM       United States Senator WHARTON COUNTYWIDE                Kesha Rogers                          PRECINCT 401                                           01 
01340010011000009DEM       United States Senator WHARTON COUNTYWIDE                Kesha Rogers                          PRECINCT 402                                           01 
01340010012000002DEM       United States Senator WHARTON COUNTYWIDE                Kesha Rogers                          PRECINCT 403                                           01 
01340020001000000DEM       United States Senator WHARTON COUNTYWIDE                Michael "Fjet" Fjetland               PRECINCT 101                                           01 
01340020002000003DEM       United States Senator WHARTON COUNTYWIDE                Michael "Fjet" Fjetland               PRECINCT 102                                           01 
01340020003000001DEM       United States Senator WHARTON COUNTYWIDE                Michael "Fjet" Fjetland               PRECINCT 103                                           01 
01340020004000004DEM       United States Senator WHARTON COUNTYWIDE                Michael "Fjet" Fjetland               PRECINCT 201                                           01 
01340020005000002DEM       United States Senator WHARTON COUNTYWIDE                Michael "Fjet" Fjetland               PRECINCT 202                                           01 
01340020006000004DEM       United States Senator WHARTON COUNTYWIDE                Michael "Fjet" Fjetland               PRECINCT 203                                           01 
01340020007000002DEM       United States Senator WHARTON COUNTYWIDE                Michael "Fjet" Fjetland               PRECINCT 301                                           01 
01340020008000002DEM       United States Senator WHARTON COUNTYWIDE                Michael "Fjet" Fjetland               PRECINCT 302                                           01 
01340020009000001DEM       United States Senator WHARTON COUNTYWIDE                Michael "Fjet" Fjetland               PRECINCT 303                                           01 
01340020010000006DEM       United States Senator WHARTON COUNTYWIDE                Michael "Fjet" Fjetland               PRECINCT 401                                           01 
01340020011000002DEM       United States Senator WHARTON COUNTYWIDE                Michael "Fjet" Fjetland               PRECINCT 402                                           01 
01340020012000001DEM       United States Senator WHARTON COUNTYWIDE                Michael "Fjet" Fjetland               PRECINCT 403                                           01 
01340030001000004DEM       United States Senator WHARTON COUNTYWIDE                Maxey Marie Scherr                    PRECINCT 101                                           01 
01340030002000008DEM       United States Senator WHARTON COUNTYWIDE                Maxey Marie Scherr                    PRECINCT 102                                           01 
01340030003000004DEM       United States Senator WHARTON COUNTYWIDE                Maxey Marie Scherr                    PRECINCT 103                                           01 
01340030004000009DEM       United States Senator WHARTON COUNTYWIDE                Maxey Marie Scherr                    PRECINCT 201                                           01 
01340030005000004DEM       United States Senator WHARTON COUNTYWIDE                Maxey Marie Scherr                    PRECINCT 202                                           01 
01340030006000013DEM       United States Senator WHARTON COUNTYWIDE                Maxey Marie Scherr                    PRECINCT 203                                           01 
01340030007000004DEM       United States Senator WHARTON COUNTYWIDE                Maxey Marie Scherr                    PRECINCT 301                                           01 
01340030008000002DEM       United States Senator WHARTON COUNTYWIDE                Maxey Marie Scherr                    PRECINCT 302                                           01 
01340030009000005DEM       United States Senator WHARTON COUNTYWIDE                Maxey Marie Scherr                    PRECINCT 303                                           01 
01340030010000017DEM       United States Senator WHARTON COUNTYWIDE                Maxey Marie Scherr                    PRECINCT 401                                           01 
01340030011000005DEM       United States Senator WHARTON COUNTYWIDE                Maxey Marie Scherr                    PRECINCT 402                                           01 
01340030012000004DEM       United States Senator WHARTON COUNTYWIDE                Maxey Marie Scherr                    PRECINCT 403                                           01 
01340040001000003DEM       United States Senator WHARTON COUNTYWIDE                Harry Kim                             PRECINCT 101                                           01 
01340040002000004DEM       United States Senator WHARTON COUNTYWIDE                Harry Kim                             PRECINCT 102                                           01 
01340040003000002DEM       United States Senator WHARTON COUNTYWIDE                Harry Kim                             PRECINCT 103                                           01 
01340040004000005DEM       United States Senator WHARTON COUNTYWIDE                Harry Kim                             PRECINCT 201                                           01 
01340040005000001DEM       United States Senator WHARTON COUNTYWIDE                Harry Kim                             PRECINCT 202                                           01 
01340040006000009DEM       United States Senator WHARTON COUNTYWIDE                Harry Kim                             PRECINCT 203                                           01 
01340040007000003DEM       United States Senator WHARTON COUNTYWIDE                Harry Kim                             PRECINCT 301                                           01 
01340040008000004DEM       United States Senator WHARTON COUNTYWIDE                Harry Kim                             PRECINCT 302                                           01 
01340040009000002DEM       United States Senator WHARTON COUNTYWIDE                Harry Kim                             PRECINCT 303                                           01 
01340040010000006DEM       United States Senator WHARTON COUNTYWIDE                Harry Kim                             PRECINCT 401                                           01 
01340040011000005DEM       United States Senator WHARTON COUNTYWIDE                Harry Kim                             PRECINCT 402                                           01 
01340040012000003DEM       United States Senator WHARTON COUNTYWIDE                Harry Kim                             PRECINCT 403                                           01 
01340050001000017DEM       United States Senator WHARTON COUNTYWIDE                David M. Alameel                      PRECINCT 101                                           01 
01340050002000009DEM       United States Senator WHARTON COUNTYWIDE                David M. Alameel                      PRECINCT 102                                           01 
01340050003000007DEM       United States Senator WHARTON COUNTYWIDE                David M. Alameel                      PRECINCT 103                                           01 
01340050004000012DEM       United States Senator WHARTON COUNTYWIDE                David M. Alameel                      PRECINCT 201                                           01 
01340050005000015DEM       United States Senator WHARTON COUNTYWIDE                David M. Alameel                      PRECINCT 202                                           01 
01340050006000040DEM       United States Senator WHARTON COUNTYWIDE                David M. Alameel                      PRECINCT 203                                           01 
01340050007000011DEM       United States Senator WHARTON COUNTYWIDE                David M. Alameel                      PRECINCT 301                                           01 
01340050008000015DEM       United States Senator WHARTON COUNTYWIDE                David M. Alameel                      PRECINCT 302                                           01 
01340050009000010DEM       United States Senator WHARTON COUNTYWIDE                David M. Alameel                      PRECINCT 303                                           01 
01340050010000025DEM       United States Senator WHARTON COUNTYWIDE                David M. Alameel                      PRECINCT 401                                           01 
01340050011000019DEM       United States Senator WHARTON COUNTYWIDE                David M. Alameel                      PRECINCT 402                                           01 
01340050012000006DEM       United States Senator WHARTON COUNTYWIDE                David M. Alameel                      PRECINCT 403                                           01 
01340060001000000DEM       United States Senator WHARTON COUNTYWIDE                OVER VOTES                            PRECINCT 101                                           01 
01340060002000000DEM       United States Senator WHARTON COUNTYWIDE                OVER VOTES                            PRECINCT 102                                           01 
01340060003000000DEM       United States Senator WHARTON COUNTYWIDE                OVER VOTES                            PRECINCT 103                                           01 
01340060004000000DEM       United States Senator WHARTON COUNTYWIDE                OVER VOTES                            PRECINCT 201                                           01 
01340060005000000DEM       United States Senator WHARTON COUNTYWIDE                OVER VOTES                            PRECINCT 202                                           01 
01340060006000000DEM       United States Senator WHARTON COUNTYWIDE                OVER VOTES                            PRECINCT 203                                           01 
01340060007000000DEM       United States Senator WHARTON COUNTYWIDE                OVER VOTES                            PRECINCT 301                                           01 
01340060008000000DEM       United States Senator WHARTON COUNTYWIDE                OVER VOTES                            PRECINCT 302                                           01 
01340060009000000DEM       United States Senator WHARTON COUNTYWIDE                OVER VOTES                            PRECINCT 303                                           01 
01340060010000000DEM       United States Senator WHARTON COUNTYWIDE                OVER VOTES                            PRECINCT 401                                           01 
01340060011000000DEM       United States Senator WHARTON COUNTYWIDE                OVER VOTES                            PRECINCT 402                                           01 
01340060012000000DEM       United States Senator WHARTON COUNTYWIDE                OVER VOTES                            PRECINCT 403                                           01 
01340070001000005DEM       United States Senator WHARTON COUNTYWIDE                UNDER VOTES                           PRECINCT 101                                           01 
01340070002000003DEM       United States Senator WHARTON COUNTYWIDE                UNDER VOTES                           PRECINCT 102                                           01 
01340070003000001DEM       United States Senator WHARTON COUNTYWIDE                UNDER VOTES                           PRECINCT 103                                           01 
01340070004000004DEM       United States Senator WHARTON COUNTYWIDE                UNDER VOTES                           PRECINCT 201                                           01 
01340070005000003DEM       United States Senator WHARTON COUNTYWIDE                UNDER VOTES                           PRECINCT 202                                           01 
01340070006000009DEM       United States Senator WHARTON COUNTYWIDE                UNDER VOTES                           PRECINCT 203                                           01 
01340070007000002DEM       United States Senator WHARTON COUNTYWIDE                UNDER VOTES                           PRECINCT 301                                           01 
01340070008000001DEM       United States Senator WHARTON COUNTYWIDE                UNDER VOTES                           PRECINCT 302                                           01 
01340070009000001DEM       United States Senator WHARTON COUNTYWIDE                UNDER VOTES                           PRECINCT 303                                           01 
01340070010000023DEM       United States Senator WHARTON COUNTYWIDE                UNDER VOTES                           PRECINCT 401                                           01 
01340070011000012DEM       United States Senator WHARTON COUNTYWIDE                UNDER VOTES                           PRECINCT 402                                           01 
01340070012000005DEM       United States Senator WHARTON COUNTYWIDE                UNDER VOTES                           PRECINCT 403                                           01 
01350010001000030DEM       US Representative, District 27 WHARTON COUNTYWIDE       Wesley Reed                           PRECINCT 101                                           01 
01350010002000026DEM       US Representative, District 27 WHARTON COUNTYWIDE       Wesley Reed                           PRECINCT 102                                           01 
01350010003000018DEM       US Representative, District 27 WHARTON COUNTYWIDE       Wesley Reed                           PRECINCT 103                                           01 
01350010004000031DEM       US Representative, District 27 WHARTON COUNTYWIDE       Wesley Reed                           PRECINCT 201                                           01 
01350010005000027DEM       US Representative, District 27 WHARTON COUNTYWIDE       Wesley Reed                           PRECINCT 202                                           01 
01350010006000085DEM       US Representative, District 27 WHARTON COUNTYWIDE       Wesley Reed                           PRECINCT 203                                           01 
01350010007000022DEM       US Representative, District 27 WHARTON COUNTYWIDE       Wesley Reed                           PRECINCT 301                                           01 
01350010008000025DEM       US Representative, District 27 WHARTON COUNTYWIDE       Wesley Reed                           PRECINCT 302                                           01 
01350010009000018DEM       US Representative, District 27 WHARTON COUNTYWIDE       Wesley Reed                           PRECINCT 303                                           01 
01350010010000063DEM       US Representative, District 27 WHARTON COUNTYWIDE       Wesley Reed                           PRECINCT 401                                           01 
01350010011000038DEM       US Representative, District 27 WHARTON COUNTYWIDE       Wesley Reed                           PRECINCT 402                                           01 
01350010012000017DEM       US Representative, District 27 WHARTON COUNTYWIDE       Wesley Reed                           PRECINCT 403                                           01 
01350020001000000DEM       US Representative, District 27 WHARTON COUNTYWIDE       OVER VOTES                            PRECINCT 101                                           01 
01350020002000000DEM       US Representative, District 27 WHARTON COUNTYWIDE       OVER VOTES                            PRECINCT 102                                           01 
01350020003000000DEM       US Representative, District 27 WHARTON COUNTYWIDE       OVER VOTES                            PRECINCT 103                                           01 
01350020004000000DEM       US Representative, District 27 WHARTON COUNTYWIDE       OVER VOTES                            PRECINCT 201                                           01 
01350020005000000DEM       US Representative, District 27 WHARTON COUNTYWIDE       OVER VOTES                            PRECINCT 202                                           01 
01350020006000000DEM       US Representative, District 27 WHARTON COUNTYWIDE       OVER VOTES                            PRECINCT 203                                           01 
01350020007000000DEM       US Representative, District 27 WHARTON COUNTYWIDE       OVER VOTES                            PRECINCT 301                                           01 
01350020008000000DEM       US Representative, District 27 WHARTON COUNTYWIDE       OVER VOTES                            PRECINCT 302                                           01 
01350020009000000DEM       US Representative, District 27 WHARTON COUNTYWIDE       OVER VOTES                            PRECINCT 303                                           01 
01350020010000000DEM       US Representative, District 27 WHARTON COUNTYWIDE       OVER VOTES                            PRECINCT 401                                           01 
01350020011000000DEM       US Representative, District 27 WHARTON COUNTYWIDE       OVER VOTES                            PRECINCT 402                                           01 
01350020012000000DEM       US Representative, District 27 WHARTON COUNTYWIDE       OVER VOTES                            PRECINCT 403                                           01 
01350030001000008DEM       US Representative, District 27 WHARTON COUNTYWIDE       UNDER VOTES                           PRECINCT 101                                           01 
01350030002000002DEM       US Representative, District 27 WHARTON COUNTYWIDE       UNDER VOTES                           PRECINCT 102                                           01 
01350030003000004DEM       US Representative, District 27 WHARTON COUNTYWIDE       UNDER VOTES                           PRECINCT 103                                           01 
01350030004000006DEM       US Representative, District 27 WHARTON COUNTYWIDE       UNDER VOTES                           PRECINCT 201                                           01 
01350030005000008DEM       US Representative, District 27 WHARTON COUNTYWIDE       UNDER VOTES                           PRECINCT 202                                           01 
01350030006000017DEM       US Representative, District 27 WHARTON COUNTYWIDE       UNDER VOTES                           PRECINCT 203                                           01 
01350030007000003DEM       US Representative, District 27 WHARTON COUNTYWIDE       UNDER VOTES                           PRECINCT 301                                           01 
01350030008000002DEM       US Representative, District 27 WHARTON COUNTYWIDE       UNDER VOTES                           PRECINCT 302                                           01 
01350030009000002DEM       US Representative, District 27 WHARTON COUNTYWIDE       UNDER VOTES                           PRECINCT 303                                           01 
01350030010000030DEM       US Representative, District 27 WHARTON COUNTYWIDE       UNDER VOTES                           PRECINCT 401                                           01 
01350030011000014DEM       US Representative, District 27 WHARTON COUNTYWIDE       UNDER VOTES                           PRECINCT 402                                           01 
01350030012000004DEM       US Representative, District 27 WHARTON COUNTYWIDE       UNDER VOTES                           PRECINCT 403                                           01 
01360010001000004DEM       Governor WHARTON COUNTYWIDE                             Reynaldo "Ray" Madrigal               PRECINCT 101                                           01 
01360010002000002DEM       Governor WHARTON COUNTYWIDE                             Reynaldo "Ray" Madrigal               PRECINCT 102                                           01 
01360010003000001DEM       Governor WHARTON COUNTYWIDE                             Reynaldo "Ray" Madrigal               PRECINCT 103                                           01 
01360010004000005DEM       Governor WHARTON COUNTYWIDE                             Reynaldo "Ray" Madrigal               PRECINCT 201                                           01 
01360010005000003DEM       Governor WHARTON COUNTYWIDE                             Reynaldo "Ray" Madrigal               PRECINCT 202                                           01 
01360010006000011DEM       Governor WHARTON COUNTYWIDE                             Reynaldo "Ray" Madrigal               PRECINCT 203                                           01 
01360010007000002DEM       Governor WHARTON COUNTYWIDE                             Reynaldo "Ray" Madrigal               PRECINCT 301                                           01 
01360010008000006DEM       Governor WHARTON COUNTYWIDE                             Reynaldo "Ray" Madrigal               PRECINCT 302                                           01 
01360010009000007DEM       Governor WHARTON COUNTYWIDE                             Reynaldo "Ray" Madrigal               PRECINCT 303                                           01 
01360010010000018DEM       Governor WHARTON COUNTYWIDE                             Reynaldo "Ray" Madrigal               PRECINCT 401                                           01 
01360010011000012DEM       Governor WHARTON COUNTYWIDE                             Reynaldo "Ray" Madrigal               PRECINCT 402                                           01 
01360010012000002DEM       Governor WHARTON COUNTYWIDE                             Reynaldo "Ray" Madrigal               PRECINCT 403                                           01 
01360020001000034DEM       Governor WHARTON COUNTYWIDE                             Wendy R. Davis                        PRECINCT 101                                           01 
01360020002000023DEM       Governor WHARTON COUNTYWIDE                             Wendy R. Davis                        PRECINCT 102                                           01 
01360020003000019DEM       Governor WHARTON COUNTYWIDE                             Wendy R. Davis                        PRECINCT 103                                           01 
01360020004000030DEM       Governor WHARTON COUNTYWIDE                             Wendy R. Davis                        PRECINCT 201                                           01 
01360020005000030DEM       Governor WHARTON COUNTYWIDE                             Wendy R. Davis                        PRECINCT 202                                           01 
01360020006000082DEM       Governor WHARTON COUNTYWIDE                             Wendy R. Davis                        PRECINCT 203                                           01 
01360020007000020DEM       Governor WHARTON COUNTYWIDE                             Wendy R. Davis                        PRECINCT 301                                           01 
01360020008000021DEM       Governor WHARTON COUNTYWIDE                             Wendy R. Davis                        PRECINCT 302                                           01 
01360020009000013DEM       Governor WHARTON COUNTYWIDE                             Wendy R. Davis                        PRECINCT 303                                           01 
01360020010000058DEM       Governor WHARTON COUNTYWIDE                             Wendy R. Davis                        PRECINCT 401                                           01 
01360020011000036DEM       Governor WHARTON COUNTYWIDE                             Wendy R. Davis                        PRECINCT 402                                           01 
01360020012000016DEM       Governor WHARTON COUNTYWIDE                             Wendy R. Davis                        PRECINCT 403                                           01 
01360030001000000DEM       Governor WHARTON COUNTYWIDE                             OVER VOTES                            PRECINCT 101                                           01 
01360030002000000DEM       Governor WHARTON COUNTYWIDE                             OVER VOTES                            PRECINCT 102                                           01 
01360030003000000DEM       Governor WHARTON COUNTYWIDE                             OVER VOTES                            PRECINCT 103                                           01 
01360030004000000DEM       Governor WHARTON COUNTYWIDE                             OVER VOTES                            PRECINCT 201                                           01 
01360030005000000DEM       Governor WHARTON COUNTYWIDE                             OVER VOTES                            PRECINCT 202                                           01 
01360030006000000DEM       Governor WHARTON COUNTYWIDE                             OVER VOTES                            PRECINCT 203                                           01 
01360030007000000DEM       Governor WHARTON COUNTYWIDE                             OVER VOTES                            PRECINCT 301                                           01 
01360030008000000DEM       Governor WHARTON COUNTYWIDE                             OVER VOTES                            PRECINCT 302                                           01 
01360030009000000DEM       Governor WHARTON COUNTYWIDE                             OVER VOTES                            PRECINCT 303                                           01 
01360030010000000DEM       Governor WHARTON COUNTYWIDE                             OVER VOTES                            PRECINCT 401                                           01 
01360030011000000DEM       Governor WHARTON COUNTYWIDE                             OVER VOTES                            PRECINCT 402                                           01 
01360030012000000DEM       Governor WHARTON COUNTYWIDE                             OVER VOTES                            PRECINCT 403                                           01 
01360040001000000DEM       Governor WHARTON COUNTYWIDE                             UNDER VOTES                           PRECINCT 101                                           01 
01360040002000003DEM       Governor WHARTON COUNTYWIDE                             UNDER VOTES                           PRECINCT 102                                           01 
01360040003000002DEM       Governor WHARTON COUNTYWIDE                             UNDER VOTES                           PRECINCT 103                                           01 
01360040004000002DEM       Governor WHARTON COUNTYWIDE                             UNDER VOTES                           PRECINCT 201                                           01 
01360040005000002DEM       Governor WHARTON COUNTYWIDE                             UNDER VOTES                           PRECINCT 202                                           01 
01360040006000009DEM       Governor WHARTON COUNTYWIDE                             UNDER VOTES                           PRECINCT 203                                           01 
01360040007000003DEM       Governor WHARTON COUNTYWIDE                             UNDER VOTES                           PRECINCT 301                                           01 
01360040008000000DEM       Governor WHARTON COUNTYWIDE                             UNDER VOTES                           PRECINCT 302                                           01 
01360040009000000DEM       Governor WHARTON COUNTYWIDE                             UNDER VOTES                           PRECINCT 303                                           01 
01360040010000017DEM       Governor WHARTON COUNTYWIDE                             UNDER VOTES                           PRECINCT 401                                           01 
01360040011000004DEM       Governor WHARTON COUNTYWIDE                             UNDER VOTES                           PRECINCT 402                                           01 
01360040012000003DEM       Governor WHARTON COUNTYWIDE                             UNDER VOTES                           PRECINCT 403                                           01 
01370010001000030DEM       Lieutenant Governor WHARTON COUNTYWIDE                  Leticia Van de Putte                  PRECINCT 101                                           01 
01370010002000025DEM       Lieutenant Governor WHARTON COUNTYWIDE                  Leticia Van de Putte                  PRECINCT 102                                           01 
01370010003000016DEM       Lieutenant Governor WHARTON COUNTYWIDE                  Leticia Van de Putte                  PRECINCT 103                                           01 
01370010004000031DEM       Lieutenant Governor WHARTON COUNTYWIDE                  Leticia Van de Putte                  PRECINCT 201                                           01 
01370010005000029DEM       Lieutenant Governor WHARTON COUNTYWIDE                  Leticia Van de Putte                  PRECINCT 202                                           01 
01370010006000075DEM       Lieutenant Governor WHARTON COUNTYWIDE                  Leticia Van de Putte                  PRECINCT 203                                           01 
01370010007000020DEM       Lieutenant Governor WHARTON COUNTYWIDE                  Leticia Van de Putte                  PRECINCT 301                                           01 
01370010008000027DEM       Lieutenant Governor WHARTON COUNTYWIDE                  Leticia Van de Putte                  PRECINCT 302                                           01 
01370010009000017DEM       Lieutenant Governor WHARTON COUNTYWIDE                  Leticia Van de Putte                  PRECINCT 303                                           01 
01370010010000059DEM       Lieutenant Governor WHARTON COUNTYWIDE                  Leticia Van de Putte                  PRECINCT 401                                           01 
01370010011000038DEM       Lieutenant Governor WHARTON COUNTYWIDE                  Leticia Van de Putte                  PRECINCT 402                                           01 
01370010012000017DEM       Lieutenant Governor WHARTON COUNTYWIDE                  Leticia Van de Putte                  PRECINCT 403                                           01 
01370020001000000DEM       Lieutenant Governor WHARTON COUNTYWIDE                  OVER VOTES                            PRECINCT 101                                           01 
01370020002000000DEM       Lieutenant Governor WHARTON COUNTYWIDE                  OVER VOTES                            PRECINCT 102                                           01 
01370020003000000DEM       Lieutenant Governor WHARTON COUNTYWIDE                  OVER VOTES                            PRECINCT 103                                           01 
01370020004000000DEM       Lieutenant Governor WHARTON COUNTYWIDE                  OVER VOTES                            PRECINCT 201                                           01 
01370020005000000DEM       Lieutenant Governor WHARTON COUNTYWIDE                  OVER VOTES                            PRECINCT 202                                           01 
01370020006000000DEM       Lieutenant Governor WHARTON COUNTYWIDE                  OVER VOTES                            PRECINCT 203                                           01 
01370020007000000DEM       Lieutenant Governor WHARTON COUNTYWIDE                  OVER VOTES                            PRECINCT 301                                           01 
01370020008000000DEM       Lieutenant Governor WHARTON COUNTYWIDE                  OVER VOTES                            PRECINCT 302                                           01 
01370020009000000DEM       Lieutenant Governor WHARTON COUNTYWIDE                  OVER VOTES                            PRECINCT 303                                           01 
01370020010000000DEM       Lieutenant Governor WHARTON COUNTYWIDE                  OVER VOTES                            PRECINCT 401                                           01 
01370020011000000DEM       Lieutenant Governor WHARTON COUNTYWIDE                  OVER VOTES                            PRECINCT 402                                           01 
01370020012000000DEM       Lieutenant Governor WHARTON COUNTYWIDE                  OVER VOTES                            PRECINCT 403                                           01 
01370030001000008DEM       Lieutenant Governor WHARTON COUNTYWIDE                  UNDER VOTES                           PRECINCT 101                                           01 
01370030002000003DEM       Lieutenant Governor WHARTON COUNTYWIDE                  UNDER VOTES                           PRECINCT 102                                           01 
01370030003000006DEM       Lieutenant Governor WHARTON COUNTYWIDE                  UNDER VOTES                           PRECINCT 103                                           01 
01370030004000006DEM       Lieutenant Governor WHARTON COUNTYWIDE                  UNDER VOTES                           PRECINCT 201                                           01 
01370030005000006DEM       Lieutenant Governor WHARTON COUNTYWIDE                  UNDER VOTES                           PRECINCT 202                                           01 
01370030006000027DEM       Lieutenant Governor WHARTON COUNTYWIDE                  UNDER VOTES                           PRECINCT 203                                           01 
01370030007000005DEM       Lieutenant Governor WHARTON COUNTYWIDE                  UNDER VOTES                           PRECINCT 301                                           01 
01370030008000000DEM       Lieutenant Governor WHARTON COUNTYWIDE                  UNDER VOTES                           PRECINCT 302                                           01 
01370030009000003DEM       Lieutenant Governor WHARTON COUNTYWIDE                  UNDER VOTES                           PRECINCT 303                                           01 
01370030010000034DEM       Lieutenant Governor WHARTON COUNTYWIDE                  UNDER VOTES                           PRECINCT 401                                           01 
01370030011000014DEM       Lieutenant Governor WHARTON COUNTYWIDE                  UNDER VOTES                           PRECINCT 402                                           01 
01370030012000004DEM       Lieutenant Governor WHARTON COUNTYWIDE                  UNDER VOTES                           PRECINCT 403                                           01 
01380010001000028DEM       Attorney General WHARTON COUNTYWIDE                     Sam Houston                           PRECINCT 101                                           01 
01380010002000024DEM       Attorney General WHARTON COUNTYWIDE                     Sam Houston                           PRECINCT 102                                           01 
01380010003000017DEM       Attorney General WHARTON COUNTYWIDE                     Sam Houston                           PRECINCT 103                                           01 
01380010004000029DEM       Attorney General WHARTON COUNTYWIDE                     Sam Houston                           PRECINCT 201                                           01 
01380010005000028DEM       Attorney General WHARTON COUNTYWIDE                     Sam Houston                           PRECINCT 202                                           01 
01380010006000083DEM       Attorney General WHARTON COUNTYWIDE                     Sam Houston                           PRECINCT 203                                           01 
01380010007000020DEM       Attorney General WHARTON COUNTYWIDE                     Sam Houston                           PRECINCT 301                                           01 
01380010008000026DEM       Attorney General WHARTON COUNTYWIDE                     Sam Houston                           PRECINCT 302                                           01 
01380010009000017DEM       Attorney General WHARTON COUNTYWIDE                     Sam Houston                           PRECINCT 303                                           01 
01380010010000062DEM       Attorney General WHARTON COUNTYWIDE                     Sam Houston                           PRECINCT 401                                           01 
01380010011000036DEM       Attorney General WHARTON COUNTYWIDE                     Sam Houston                           PRECINCT 402                                           01 
01380010012000017DEM       Attorney General WHARTON COUNTYWIDE                     Sam Houston                           PRECINCT 403                                           01 
01380020001000000DEM       Attorney General WHARTON COUNTYWIDE                     OVER VOTES                            PRECINCT 101                                           01 
01380020002000000DEM       Attorney General WHARTON COUNTYWIDE                     OVER VOTES                            PRECINCT 102                                           01 
01380020003000000DEM       Attorney General WHARTON COUNTYWIDE                     OVER VOTES                            PRECINCT 103                                           01 
01380020004000000DEM       Attorney General WHARTON COUNTYWIDE                     OVER VOTES                            PRECINCT 201                                           01 
01380020005000000DEM       Attorney General WHARTON COUNTYWIDE                     OVER VOTES                            PRECINCT 202                                           01 
01380020006000000DEM       Attorney General WHARTON COUNTYWIDE                     OVER VOTES                            PRECINCT 203                                           01 
01380020007000000DEM       Attorney General WHARTON COUNTYWIDE                     OVER VOTES                            PRECINCT 301                                           01 
01380020008000000DEM       Attorney General WHARTON COUNTYWIDE                     OVER VOTES                            PRECINCT 302                                           01 
01380020009000000DEM       Attorney General WHARTON COUNTYWIDE                     OVER VOTES                            PRECINCT 303                                           01 
01380020010000000DEM       Attorney General WHARTON COUNTYWIDE                     OVER VOTES                            PRECINCT 401                                           01 
01380020011000000DEM       Attorney General WHARTON COUNTYWIDE                     OVER VOTES                            PRECINCT 402                                           01 
01380020012000000DEM       Attorney General WHARTON COUNTYWIDE                     OVER VOTES                            PRECINCT 403                                           01 
01380030001000010DEM       Attorney General WHARTON COUNTYWIDE                     UNDER VOTES                           PRECINCT 101                                           01 
01380030002000004DEM       Attorney General WHARTON COUNTYWIDE                     UNDER VOTES                           PRECINCT 102                                           01 
01380030003000005DEM       Attorney General WHARTON COUNTYWIDE                     UNDER VOTES                           PRECINCT 103                                           01 
01380030004000008DEM       Attorney General WHARTON COUNTYWIDE                     UNDER VOTES                           PRECINCT 201                                           01 
01380030005000007DEM       Attorney General WHARTON COUNTYWIDE                     UNDER VOTES                           PRECINCT 202                                           01 
01380030006000019DEM       Attorney General WHARTON COUNTYWIDE                     UNDER VOTES                           PRECINCT 203                                           01 
01380030007000005DEM       Attorney General WHARTON COUNTYWIDE                     UNDER VOTES                           PRECINCT 301                                           01 
01380030008000001DEM       Attorney General WHARTON COUNTYWIDE                     UNDER VOTES                           PRECINCT 302                                           01 
01380030009000003DEM       Attorney General WHARTON COUNTYWIDE                     UNDER VOTES                           PRECINCT 303                                           01 
01380030010000031DEM       Attorney General WHARTON COUNTYWIDE                     UNDER VOTES                           PRECINCT 401                                           01 
01380030011000016DEM       Attorney General WHARTON COUNTYWIDE                     UNDER VOTES                           PRECINCT 402                                           01 
01380030012000004DEM       Attorney General WHARTON COUNTYWIDE                     UNDER VOTES                           PRECINCT 403                                           01 
01390010001000029DEM       Comptroller of Public Accounts WHARTON COUNTYWIDE       Mike Collier                          PRECINCT 101                                           01 
01390010002000025DEM       Comptroller of Public Accounts WHARTON COUNTYWIDE       Mike Collier                          PRECINCT 102                                           01 
01390010003000016DEM       Comptroller of Public Accounts WHARTON COUNTYWIDE       Mike Collier                          PRECINCT 103                                           01 
01390010004000029DEM       Comptroller of Public Accounts WHARTON COUNTYWIDE       Mike Collier                          PRECINCT 201                                           01 
01390010005000028DEM       Comptroller of Public Accounts WHARTON COUNTYWIDE       Mike Collier                          PRECINCT 202                                           01 
01390010006000081DEM       Comptroller of Public Accounts WHARTON COUNTYWIDE       Mike Collier                          PRECINCT 203                                           01 
01390010007000019DEM       Comptroller of Public Accounts WHARTON COUNTYWIDE       Mike Collier                          PRECINCT 301                                           01 
01390010008000024DEM       Comptroller of Public Accounts WHARTON COUNTYWIDE       Mike Collier                          PRECINCT 302                                           01 
01390010009000017DEM       Comptroller of Public Accounts WHARTON COUNTYWIDE       Mike Collier                          PRECINCT 303                                           01 
01390010010000061DEM       Comptroller of Public Accounts WHARTON COUNTYWIDE       Mike Collier                          PRECINCT 401                                           01 
01390010011000037DEM       Comptroller of Public Accounts WHARTON COUNTYWIDE       Mike Collier                          PRECINCT 402                                           01 
01390010012000017DEM       Comptroller of Public Accounts WHARTON COUNTYWIDE       Mike Collier                          PRECINCT 403                                           01 
01390020001000000DEM       Comptroller of Public Accounts WHARTON COUNTYWIDE       OVER VOTES                            PRECINCT 101                                           01 
01390020002000000DEM       Comptroller of Public Accounts WHARTON COUNTYWIDE       OVER VOTES                            PRECINCT 102                                           01 
01390020003000000DEM       Comptroller of Public Accounts WHARTON COUNTYWIDE       OVER VOTES                            PRECINCT 103                                           01 
01390020004000000DEM       Comptroller of Public Accounts WHARTON COUNTYWIDE       OVER VOTES                            PRECINCT 201                                           01 
01390020005000000DEM       Comptroller of Public Accounts WHARTON COUNTYWIDE       OVER VOTES                            PRECINCT 202                                           01 
01390020006000000DEM       Comptroller of Public Accounts WHARTON COUNTYWIDE       OVER VOTES                            PRECINCT 203                                           01 
01390020007000000DEM       Comptroller of Public Accounts WHARTON COUNTYWIDE       OVER VOTES                            PRECINCT 301                                           01 
01390020008000000DEM       Comptroller of Public Accounts WHARTON COUNTYWIDE       OVER VOTES                            PRECINCT 302                                           01 
01390020009000000DEM       Comptroller of Public Accounts WHARTON COUNTYWIDE       OVER VOTES                            PRECINCT 303                                           01 
01390020010000000DEM       Comptroller of Public Accounts WHARTON COUNTYWIDE       OVER VOTES                            PRECINCT 401                                           01 
01390020011000000DEM       Comptroller of Public Accounts WHARTON COUNTYWIDE       OVER VOTES                            PRECINCT 402                                           01 
01390020012000000DEM       Comptroller of Public Accounts WHARTON COUNTYWIDE       OVER VOTES                            PRECINCT 403                                           01 
01390030001000009DEM       Comptroller of Public Accounts WHARTON COUNTYWIDE       UNDER VOTES                           PRECINCT 101                                           01 
01390030002000003DEM       Comptroller of Public Accounts WHARTON COUNTYWIDE       UNDER VOTES                           PRECINCT 102                                           01 
01390030003000006DEM       Comptroller of Public Accounts WHARTON COUNTYWIDE       UNDER VOTES                           PRECINCT 103                                           01 
01390030004000008DEM       Comptroller of Public Accounts WHARTON COUNTYWIDE       UNDER VOTES                           PRECINCT 201                                           01 
01390030005000007DEM       Comptroller of Public Accounts WHARTON COUNTYWIDE       UNDER VOTES                           PRECINCT 202                                           01 
01390030006000021DEM       Comptroller of Public Accounts WHARTON COUNTYWIDE       UNDER VOTES                           PRECINCT 203                                           01 
01390030007000006DEM       Comptroller of Public Accounts WHARTON COUNTYWIDE       UNDER VOTES                           PRECINCT 301                                           01 
01390030008000003DEM       Comptroller of Public Accounts WHARTON COUNTYWIDE       UNDER VOTES                           PRECINCT 302                                           01 
01390030009000003DEM       Comptroller of Public Accounts WHARTON COUNTYWIDE       UNDER VOTES                           PRECINCT 303                                           01 
01390030010000032DEM       Comptroller of Public Accounts WHARTON COUNTYWIDE       UNDER VOTES                           PRECINCT 401                                           01 
01390030011000015DEM       Comptroller of Public Accounts WHARTON COUNTYWIDE       UNDER VOTES                           PRECINCT 402                                           01 
01390030012000004DEM       Comptroller of Public Accounts WHARTON COUNTYWIDE       UNDER VOTES                           PRECINCT 403                                           01 
01400010001000030DEM       Commissioner of the General Land Office                 John Cook                             PRECINCT 101                                           01 
01400010002000025DEM       Commissioner of the General Land Office                 John Cook                             PRECINCT 102                                           01 
01400010003000016DEM       Commissioner of the General Land Office                 John Cook                             PRECINCT 103                                           01 
01400010004000029DEM       Commissioner of the General Land Office                 John Cook                             PRECINCT 201                                           01 
01400010005000028DEM       Commissioner of the General Land Office                 John Cook                             PRECINCT 202                                           01 
01400010006000086DEM       Commissioner of the General Land Office                 John Cook                             PRECINCT 203                                           01 
01400010007000019DEM       Commissioner of the General Land Office                 John Cook                             PRECINCT 301                                           01 
01400010008000026DEM       Commissioner of the General Land Office                 John Cook                             PRECINCT 302                                           01 
01400010009000018DEM       Commissioner of the General Land Office                 John Cook                             PRECINCT 303                                           01 
01400010010000063DEM       Commissioner of the General Land Office                 John Cook                             PRECINCT 401                                           01 
01400010011000036DEM       Commissioner of the General Land Office                 John Cook                             PRECINCT 402                                           01 
01400010012000017DEM       Commissioner of the General Land Office                 John Cook                             PRECINCT 403                                           01 
01400020001000000DEM       Commissioner of the General Land Office                 OVER VOTES                            PRECINCT 101                                           01 
01400020002000000DEM       Commissioner of the General Land Office                 OVER VOTES                            PRECINCT 102                                           01 
01400020003000000DEM       Commissioner of the General Land Office                 OVER VOTES                            PRECINCT 103                                           01 
01400020004000000DEM       Commissioner of the General Land Office                 OVER VOTES                            PRECINCT 201                                           01 
01400020005000000DEM       Commissioner of the General Land Office                 OVER VOTES                            PRECINCT 202                                           01 
01400020006000000DEM       Commissioner of the General Land Office                 OVER VOTES                            PRECINCT 203                                           01 
01400020007000000DEM       Commissioner of the General Land Office                 OVER VOTES                            PRECINCT 301                                           01 
01400020008000000DEM       Commissioner of the General Land Office                 OVER VOTES                            PRECINCT 302                                           01 
01400020009000000DEM       Commissioner of the General Land Office                 OVER VOTES                            PRECINCT 303                                           01 
01400020010000000DEM       Commissioner of the General Land Office                 OVER VOTES                            PRECINCT 401                                           01 
01400020011000000DEM       Commissioner of the General Land Office                 OVER VOTES                            PRECINCT 402                                           01 
01400020012000000DEM       Commissioner of the General Land Office                 OVER VOTES                            PRECINCT 403                                           01 
01400030001000008DEM       Commissioner of the General Land Office                 UNDER VOTES                           PRECINCT 101                                           01 
01400030002000003DEM       Commissioner of the General Land Office                 UNDER VOTES                           PRECINCT 102                                           01 
01400030003000006DEM       Commissioner of the General Land Office                 UNDER VOTES                           PRECINCT 103                                           01 
01400030004000008DEM       Commissioner of the General Land Office                 UNDER VOTES                           PRECINCT 201                                           01 
01400030005000007DEM       Commissioner of the General Land Office                 UNDER VOTES                           PRECINCT 202                                           01 
01400030006000016DEM       Commissioner of the General Land Office                 UNDER VOTES                           PRECINCT 203                                           01 
01400030007000006DEM       Commissioner of the General Land Office                 UNDER VOTES                           PRECINCT 301                                           01 
01400030008000001DEM       Commissioner of the General Land Office                 UNDER VOTES                           PRECINCT 302                                           01 
01400030009000002DEM       Commissioner of the General Land Office                 UNDER VOTES                           PRECINCT 303                                           01 
01400030010000030DEM       Commissioner of the General Land Office                 UNDER VOTES                           PRECINCT 401                                           01 
01400030011000016DEM       Commissioner of the General Land Office                 UNDER VOTES                           PRECINCT 402                                           01 
01400030012000004DEM       Commissioner of the General Land Office                 UNDER VOTES                           PRECINCT 403                                           01 
01410010001000012DEM       Commissioner of Agriculture WHARTON COUNTYWIDE          Richard "Kinky" Friedman              PRECINCT 101                                           01 
01410010002000010DEM       Commissioner of Agriculture WHARTON COUNTYWIDE          Richard "Kinky" Friedman              PRECINCT 102                                           01 
01410010003000010DEM       Commissioner of Agriculture WHARTON COUNTYWIDE          Richard "Kinky" Friedman              PRECINCT 103                                           01 
01410010004000018DEM       Commissioner of Agriculture WHARTON COUNTYWIDE          Richard "Kinky" Friedman              PRECINCT 201                                           01 
01410010005000008DEM       Commissioner of Agriculture WHARTON COUNTYWIDE          Richard "Kinky" Friedman              PRECINCT 202                                           01 
01410010006000024DEM       Commissioner of Agriculture WHARTON COUNTYWIDE          Richard "Kinky" Friedman              PRECINCT 203                                           01 
01410010007000006DEM       Commissioner of Agriculture WHARTON COUNTYWIDE          Richard "Kinky" Friedman              PRECINCT 301                                           01 
01410010008000008DEM       Commissioner of Agriculture WHARTON COUNTYWIDE          Richard "Kinky" Friedman              PRECINCT 302                                           01 
01410010009000002DEM       Commissioner of Agriculture WHARTON COUNTYWIDE          Richard "Kinky" Friedman              PRECINCT 303                                           01 
01410010010000023DEM       Commissioner of Agriculture WHARTON COUNTYWIDE          Richard "Kinky" Friedman              PRECINCT 401                                           01 
01410010011000016DEM       Commissioner of Agriculture WHARTON COUNTYWIDE          Richard "Kinky" Friedman              PRECINCT 402                                           01 
01410010012000004DEM       Commissioner of Agriculture WHARTON COUNTYWIDE          Richard "Kinky" Friedman              PRECINCT 403                                           01 
01410020001000007DEM       Commissioner of Agriculture WHARTON COUNTYWIDE          Hugh Asa Fitzsimons III               PRECINCT 101                                           01 
01410020002000007DEM       Commissioner of Agriculture WHARTON COUNTYWIDE          Hugh Asa Fitzsimons III               PRECINCT 102                                           01 
01410020003000003DEM       Commissioner of Agriculture WHARTON COUNTYWIDE          Hugh Asa Fitzsimons III               PRECINCT 103                                           01 
01410020004000005DEM       Commissioner of Agriculture WHARTON COUNTYWIDE          Hugh Asa Fitzsimons III               PRECINCT 201                                           01 
01410020005000008DEM       Commissioner of Agriculture WHARTON COUNTYWIDE          Hugh Asa Fitzsimons III               PRECINCT 202                                           01 
01410020006000010DEM       Commissioner of Agriculture WHARTON COUNTYWIDE          Hugh Asa Fitzsimons III               PRECINCT 203                                           01 
01410020007000008DEM       Commissioner of Agriculture WHARTON COUNTYWIDE          Hugh Asa Fitzsimons III               PRECINCT 301                                           01 
01410020008000007DEM       Commissioner of Agriculture WHARTON COUNTYWIDE          Hugh Asa Fitzsimons III               PRECINCT 302                                           01 
01410020009000005DEM       Commissioner of Agriculture WHARTON COUNTYWIDE          Hugh Asa Fitzsimons III               PRECINCT 303                                           01 
01410020010000010DEM       Commissioner of Agriculture WHARTON COUNTYWIDE          Hugh Asa Fitzsimons III               PRECINCT 401                                           01 
01410020011000007DEM       Commissioner of Agriculture WHARTON COUNTYWIDE          Hugh Asa Fitzsimons III               PRECINCT 402                                           01 
01410020012000005DEM       Commissioner of Agriculture WHARTON COUNTYWIDE          Hugh Asa Fitzsimons III               PRECINCT 403                                           01 
01410030001000015DEM       Commissioner of Agriculture WHARTON COUNTYWIDE          Jim Hogan                             PRECINCT 101                                           01 
01410030002000010DEM       Commissioner of Agriculture WHARTON COUNTYWIDE          Jim Hogan                             PRECINCT 102                                           01 
01410030003000007DEM       Commissioner of Agriculture WHARTON COUNTYWIDE          Jim Hogan                             PRECINCT 103                                           01 
01410030004000014DEM       Commissioner of Agriculture WHARTON COUNTYWIDE          Jim Hogan                             PRECINCT 201                                           01 
01410030005000016DEM       Commissioner of Agriculture WHARTON COUNTYWIDE          Jim Hogan                             PRECINCT 202                                           01 
01410030006000049DEM       Commissioner of Agriculture WHARTON COUNTYWIDE          Jim Hogan                             PRECINCT 203                                           01 
01410030007000008DEM       Commissioner of Agriculture WHARTON COUNTYWIDE          Jim Hogan                             PRECINCT 301                                           01 
01410030008000011DEM       Commissioner of Agriculture WHARTON COUNTYWIDE          Jim Hogan                             PRECINCT 302                                           01 
01410030009000013DEM       Commissioner of Agriculture WHARTON COUNTYWIDE          Jim Hogan                             PRECINCT 303                                           01 
01410030010000040DEM       Commissioner of Agriculture WHARTON COUNTYWIDE          Jim Hogan                             PRECINCT 401                                           01 
01410030011000018DEM       Commissioner of Agriculture WHARTON COUNTYWIDE          Jim Hogan                             PRECINCT 402                                           01 
01410030012000008DEM       Commissioner of Agriculture WHARTON COUNTYWIDE          Jim Hogan                             PRECINCT 403                                           01 
01410040001000000DEM       Commissioner of Agriculture WHARTON COUNTYWIDE          OVER VOTES                            PRECINCT 101                                           01 
01410040002000000DEM       Commissioner of Agriculture WHARTON COUNTYWIDE          OVER VOTES                            PRECINCT 102                                           01 
01410040003000000DEM       Commissioner of Agriculture WHARTON COUNTYWIDE          OVER VOTES                            PRECINCT 103                                           01 
01410040004000000DEM       Commissioner of Agriculture WHARTON COUNTYWIDE          OVER VOTES                            PRECINCT 201                                           01 
01410040005000000DEM       Commissioner of Agriculture WHARTON COUNTYWIDE          OVER VOTES                            PRECINCT 202                                           01 
01410040006000000DEM       Commissioner of Agriculture WHARTON COUNTYWIDE          OVER VOTES                            PRECINCT 203                                           01 
01410040007000000DEM       Commissioner of Agriculture WHARTON COUNTYWIDE          OVER VOTES                            PRECINCT 301                                           01 
01410040008000000DEM       Commissioner of Agriculture WHARTON COUNTYWIDE          OVER VOTES                            PRECINCT 302                                           01 
01410040009000000DEM       Commissioner of Agriculture WHARTON COUNTYWIDE          OVER VOTES                            PRECINCT 303                                           01 
01410040010000000DEM       Commissioner of Agriculture WHARTON COUNTYWIDE          OVER VOTES                            PRECINCT 401                                           01 
01410040011000000DEM       Commissioner of Agriculture WHARTON COUNTYWIDE          OVER VOTES                            PRECINCT 402                                           01 
01410040012000000DEM       Commissioner of Agriculture WHARTON COUNTYWIDE          OVER VOTES                            PRECINCT 403                                           01 
01410050001000004DEM       Commissioner of Agriculture WHARTON COUNTYWIDE          UNDER VOTES                           PRECINCT 101                                           01 
01410050002000001DEM       Commissioner of Agriculture WHARTON COUNTYWIDE          UNDER VOTES                           PRECINCT 102                                           01 
01410050003000002DEM       Commissioner of Agriculture WHARTON COUNTYWIDE          UNDER VOTES                           PRECINCT 103                                           01 
01410050004000000DEM       Commissioner of Agriculture WHARTON COUNTYWIDE          UNDER VOTES                           PRECINCT 201                                           01 
01410050005000003DEM       Commissioner of Agriculture WHARTON COUNTYWIDE          UNDER VOTES                           PRECINCT 202                                           01 
01410050006000019DEM       Commissioner of Agriculture WHARTON COUNTYWIDE          UNDER VOTES                           PRECINCT 203                                           01 
01410050007000003DEM       Commissioner of Agriculture WHARTON COUNTYWIDE          UNDER VOTES                           PRECINCT 301                                           01 
01410050008000001DEM       Commissioner of Agriculture WHARTON COUNTYWIDE          UNDER VOTES                           PRECINCT 302                                           01 
01410050009000000DEM       Commissioner of Agriculture WHARTON COUNTYWIDE          UNDER VOTES                           PRECINCT 303                                           01 
01410050010000020DEM       Commissioner of Agriculture WHARTON COUNTYWIDE          UNDER VOTES                           PRECINCT 401                                           01 
01410050011000011DEM       Commissioner of Agriculture WHARTON COUNTYWIDE          UNDER VOTES                           PRECINCT 402                                           01 
01410050012000004DEM       Commissioner of Agriculture WHARTON COUNTYWIDE          UNDER VOTES                           PRECINCT 403                                           01 
01420010001000021DEM       Railroad Commissioner WHARTON COUNTYWIDE                Steve Brown                           PRECINCT 101                                           01 
01420010002000017DEM       Railroad Commissioner WHARTON COUNTYWIDE                Steve Brown                           PRECINCT 102                                           01 
01420010003000013DEM       Railroad Commissioner WHARTON COUNTYWIDE                Steve Brown                           PRECINCT 103                                           01 
01420010004000022DEM       Railroad Commissioner WHARTON COUNTYWIDE                Steve Brown                           PRECINCT 201                                           01 
01420010005000024DEM       Railroad Commissioner WHARTON COUNTYWIDE                Steve Brown                           PRECINCT 202                                           01 
01420010006000051DEM       Railroad Commissioner WHARTON COUNTYWIDE                Steve Brown                           PRECINCT 203                                           01 
01420010007000014DEM       Railroad Commissioner WHARTON COUNTYWIDE                Steve Brown                           PRECINCT 301                                           01 
01420010008000018DEM       Railroad Commissioner WHARTON COUNTYWIDE                Steve Brown                           PRECINCT 302                                           01 
01420010009000013DEM       Railroad Commissioner WHARTON COUNTYWIDE                Steve Brown                           PRECINCT 303                                           01 
01420010010000051DEM       Railroad Commissioner WHARTON COUNTYWIDE                Steve Brown                           PRECINCT 401                                           01 
01420010011000023DEM       Railroad Commissioner WHARTON COUNTYWIDE                Steve Brown                           PRECINCT 402                                           01 
01420010012000012DEM       Railroad Commissioner WHARTON COUNTYWIDE                Steve Brown                           PRECINCT 403                                           01 
01420020001000010DEM       Railroad Commissioner WHARTON COUNTYWIDE                Dale Henry                            PRECINCT 101                                           01 
01420020002000008DEM       Railroad Commissioner WHARTON COUNTYWIDE                Dale Henry                            PRECINCT 102                                           01 
01420020003000007DEM       Railroad Commissioner WHARTON COUNTYWIDE                Dale Henry                            PRECINCT 103                                           01 
01420020004000014DEM       Railroad Commissioner WHARTON COUNTYWIDE                Dale Henry                            PRECINCT 201                                           01 
01420020005000007DEM       Railroad Commissioner WHARTON COUNTYWIDE                Dale Henry                            PRECINCT 202                                           01 
01420020006000040DEM       Railroad Commissioner WHARTON COUNTYWIDE                Dale Henry                            PRECINCT 203                                           01 
01420020007000008DEM       Railroad Commissioner WHARTON COUNTYWIDE                Dale Henry                            PRECINCT 301                                           01 
01420020008000008DEM       Railroad Commissioner WHARTON COUNTYWIDE                Dale Henry                            PRECINCT 302                                           01 
01420020009000006DEM       Railroad Commissioner WHARTON COUNTYWIDE                Dale Henry                            PRECINCT 303                                           01 
01420020010000018DEM       Railroad Commissioner WHARTON COUNTYWIDE                Dale Henry                            PRECINCT 401                                           01 
01420020011000015DEM       Railroad Commissioner WHARTON COUNTYWIDE                Dale Henry                            PRECINCT 402                                           01 
01420020012000004DEM       Railroad Commissioner WHARTON COUNTYWIDE                Dale Henry                            PRECINCT 403                                           01 
01420030001000000DEM       Railroad Commissioner WHARTON COUNTYWIDE                OVER VOTES                            PRECINCT 101                                           01 
01420030002000000DEM       Railroad Commissioner WHARTON COUNTYWIDE                OVER VOTES                            PRECINCT 102                                           01 
01420030003000000DEM       Railroad Commissioner WHARTON COUNTYWIDE                OVER VOTES                            PRECINCT 103                                           01 
01420030004000000DEM       Railroad Commissioner WHARTON COUNTYWIDE                OVER VOTES                            PRECINCT 201                                           01 
01420030005000000DEM       Railroad Commissioner WHARTON COUNTYWIDE                OVER VOTES                            PRECINCT 202                                           01 
01420030006000000DEM       Railroad Commissioner WHARTON COUNTYWIDE                OVER VOTES                            PRECINCT 203                                           01 
01420030007000000DEM       Railroad Commissioner WHARTON COUNTYWIDE                OVER VOTES                            PRECINCT 301                                           01 
01420030008000000DEM       Railroad Commissioner WHARTON COUNTYWIDE                OVER VOTES                            PRECINCT 302                                           01 
01420030009000000DEM       Railroad Commissioner WHARTON COUNTYWIDE                OVER VOTES                            PRECINCT 303                                           01 
01420030010000000DEM       Railroad Commissioner WHARTON COUNTYWIDE                OVER VOTES                            PRECINCT 401                                           01 
01420030011000000DEM       Railroad Commissioner WHARTON COUNTYWIDE                OVER VOTES                            PRECINCT 402                                           01 
01420030012000000DEM       Railroad Commissioner WHARTON COUNTYWIDE                OVER VOTES                            PRECINCT 403                                           01 
01420040001000007DEM       Railroad Commissioner WHARTON COUNTYWIDE                UNDER VOTES                           PRECINCT 101                                           01 
01420040002000003DEM       Railroad Commissioner WHARTON COUNTYWIDE                UNDER VOTES                           PRECINCT 102                                           01 
01420040003000002DEM       Railroad Commissioner WHARTON COUNTYWIDE                UNDER VOTES                           PRECINCT 103                                           01 
01420040004000001DEM       Railroad Commissioner WHARTON COUNTYWIDE                UNDER VOTES                           PRECINCT 201                                           01 
01420040005000004DEM       Railroad Commissioner WHARTON COUNTYWIDE                UNDER VOTES                           PRECINCT 202                                           01 
01420040006000011DEM       Railroad Commissioner WHARTON COUNTYWIDE                UNDER VOTES                           PRECINCT 203                                           01 
01420040007000003DEM       Railroad Commissioner WHARTON COUNTYWIDE                UNDER VOTES                           PRECINCT 301                                           01 
01420040008000001DEM       Railroad Commissioner WHARTON COUNTYWIDE                UNDER VOTES                           PRECINCT 302                                           01 
01420040009000001DEM       Railroad Commissioner WHARTON COUNTYWIDE                UNDER VOTES                           PRECINCT 303                                           01 
01420040010000024DEM       Railroad Commissioner WHARTON COUNTYWIDE                UNDER VOTES                           PRECINCT 401                                           01 
01420040011000014DEM       Railroad Commissioner WHARTON COUNTYWIDE                UNDER VOTES                           PRECINCT 402                                           01 
01420040012000005DEM       Railroad Commissioner WHARTON COUNTYWIDE                UNDER VOTES                           PRECINCT 403                                           01 
01430010001000028DEM       Chief Justice, Supreme Court WHARTON COUNTYWIDE         William Moody                         PRECINCT 101                                           01 
01430010002000025DEM       Chief Justice, Supreme Court WHARTON COUNTYWIDE         William Moody                         PRECINCT 102                                           01 
01430010003000017DEM       Chief Justice, Supreme Court WHARTON COUNTYWIDE         William Moody                         PRECINCT 103                                           01 
01430010004000030DEM       Chief Justice, Supreme Court WHARTON COUNTYWIDE         William Moody                         PRECINCT 201                                           01 
01430010005000028DEM       Chief Justice, Supreme Court WHARTON COUNTYWIDE         William Moody                         PRECINCT 202                                           01 
01430010006000084DEM       Chief Justice, Supreme Court WHARTON COUNTYWIDE         William Moody                         PRECINCT 203                                           01 
01430010007000021DEM       Chief Justice, Supreme Court WHARTON COUNTYWIDE         William Moody                         PRECINCT 301                                           01 
01430010008000026DEM       Chief Justice, Supreme Court WHARTON COUNTYWIDE         William Moody                         PRECINCT 302                                           01 
01430010009000019DEM       Chief Justice, Supreme Court WHARTON COUNTYWIDE         William Moody                         PRECINCT 303                                           01 
01430010010000060DEM       Chief Justice, Supreme Court WHARTON COUNTYWIDE         William Moody                         PRECINCT 401                                           01 
01430010011000036DEM       Chief Justice, Supreme Court WHARTON COUNTYWIDE         William Moody                         PRECINCT 402                                           01 
01430010012000014DEM       Chief Justice, Supreme Court WHARTON COUNTYWIDE         William Moody                         PRECINCT 403                                           01 
01430020001000000DEM       Chief Justice, Supreme Court WHARTON COUNTYWIDE         OVER VOTES                            PRECINCT 101                                           01 
01430020002000000DEM       Chief Justice, Supreme Court WHARTON COUNTYWIDE         OVER VOTES                            PRECINCT 102                                           01 
01430020003000000DEM       Chief Justice, Supreme Court WHARTON COUNTYWIDE         OVER VOTES                            PRECINCT 103                                           01 
01430020004000000DEM       Chief Justice, Supreme Court WHARTON COUNTYWIDE         OVER VOTES                            PRECINCT 201                                           01 
01430020005000000DEM       Chief Justice, Supreme Court WHARTON COUNTYWIDE         OVER VOTES                            PRECINCT 202                                           01 
01430020006000000DEM       Chief Justice, Supreme Court WHARTON COUNTYWIDE         OVER VOTES                            PRECINCT 203                                           01 
01430020007000000DEM       Chief Justice, Supreme Court WHARTON COUNTYWIDE         OVER VOTES                            PRECINCT 301                                           01 
01430020008000000DEM       Chief Justice, Supreme Court WHARTON COUNTYWIDE         OVER VOTES                            PRECINCT 302                                           01 
01430020009000000DEM       Chief Justice, Supreme Court WHARTON COUNTYWIDE         OVER VOTES                            PRECINCT 303                                           01 
01430020010000000DEM       Chief Justice, Supreme Court WHARTON COUNTYWIDE         OVER VOTES                            PRECINCT 401                                           01 
01430020011000000DEM       Chief Justice, Supreme Court WHARTON COUNTYWIDE         OVER VOTES                            PRECINCT 402                                           01 
01430020012000000DEM       Chief Justice, Supreme Court WHARTON COUNTYWIDE         OVER VOTES                            PRECINCT 403                                           01 
01430030001000010DEM       Chief Justice, Supreme Court WHARTON COUNTYWIDE         UNDER VOTES                           PRECINCT 101                                           01 
01430030002000003DEM       Chief Justice, Supreme Court WHARTON COUNTYWIDE         UNDER VOTES                           PRECINCT 102                                           01 
01430030003000005DEM       Chief Justice, Supreme Court WHARTON COUNTYWIDE         UNDER VOTES                           PRECINCT 103                                           01 
01430030004000007DEM       Chief Justice, Supreme Court WHARTON COUNTYWIDE         UNDER VOTES                           PRECINCT 201                                           01 
01430030005000007DEM       Chief Justice, Supreme Court WHARTON COUNTYWIDE         UNDER VOTES                           PRECINCT 202                                           01 
01430030006000018DEM       Chief Justice, Supreme Court WHARTON COUNTYWIDE         UNDER VOTES                           PRECINCT 203                                           01 
01430030007000004DEM       Chief Justice, Supreme Court WHARTON COUNTYWIDE         UNDER VOTES                           PRECINCT 301                                           01 
01430030008000001DEM       Chief Justice, Supreme Court WHARTON COUNTYWIDE         UNDER VOTES                           PRECINCT 302                                           01 
01430030009000001DEM       Chief Justice, Supreme Court WHARTON COUNTYWIDE         UNDER VOTES                           PRECINCT 303                                           01 
01430030010000033DEM       Chief Justice, Supreme Court WHARTON COUNTYWIDE         UNDER VOTES                           PRECINCT 401                                           01 
01430030011000016DEM       Chief Justice, Supreme Court WHARTON COUNTYWIDE         UNDER VOTES                           PRECINCT 402                                           01 
01430030012000007DEM       Chief Justice, Supreme Court WHARTON COUNTYWIDE         UNDER VOTES                           PRECINCT 403                                           01 
01440010001000030DEM       Justice, Supreme Court, PL 6, Unexpired                 Lawrence Edward Meyers                PRECINCT 101                                           01 
01440010002000025DEM       Justice, Supreme Court, PL 6, Unexpired                 Lawrence Edward Meyers                PRECINCT 102                                           01 
01440010003000016DEM       Justice, Supreme Court, PL 6, Unexpired                 Lawrence Edward Meyers                PRECINCT 103                                           01 
01440010004000029DEM       Justice, Supreme Court, PL 6, Unexpired                 Lawrence Edward Meyers                PRECINCT 201                                           01 
01440010005000027DEM       Justice, Supreme Court, PL 6, Unexpired                 Lawrence Edward Meyers                PRECINCT 202                                           01 
01440010006000083DEM       Justice, Supreme Court, PL 6, Unexpired                 Lawrence Edward Meyers                PRECINCT 203                                           01 
01440010007000019DEM       Justice, Supreme Court, PL 6, Unexpired                 Lawrence Edward Meyers                PRECINCT 301                                           01 
01440010008000025DEM       Justice, Supreme Court, PL 6, Unexpired                 Lawrence Edward Meyers                PRECINCT 302                                           01 
01440010009000019DEM       Justice, Supreme Court, PL 6, Unexpired                 Lawrence Edward Meyers                PRECINCT 303                                           01 
01440010010000058DEM       Justice, Supreme Court, PL 6, Unexpired                 Lawrence Edward Meyers                PRECINCT 401                                           01 
01440010011000034DEM       Justice, Supreme Court, PL 6, Unexpired                 Lawrence Edward Meyers                PRECINCT 402                                           01 
01440010012000017DEM       Justice, Supreme Court, PL 6, Unexpired                 Lawrence Edward Meyers                PRECINCT 403                                           01 
01440020001000000DEM       Justice, Supreme Court, PL 6, Unexpired                 OVER VOTES                            PRECINCT 101                                           01 
01440020002000000DEM       Justice, Supreme Court, PL 6, Unexpired                 OVER VOTES                            PRECINCT 102                                           01 
01440020003000000DEM       Justice, Supreme Court, PL 6, Unexpired                 OVER VOTES                            PRECINCT 103                                           01 
01440020004000000DEM       Justice, Supreme Court, PL 6, Unexpired                 OVER VOTES                            PRECINCT 201                                           01 
01440020005000000DEM       Justice, Supreme Court, PL 6, Unexpired                 OVER VOTES                            PRECINCT 202                                           01 
01440020006000000DEM       Justice, Supreme Court, PL 6, Unexpired                 OVER VOTES                            PRECINCT 203                                           01 
01440020007000000DEM       Justice, Supreme Court, PL 6, Unexpired                 OVER VOTES                            PRECINCT 301                                           01 
01440020008000000DEM       Justice, Supreme Court, PL 6, Unexpired                 OVER VOTES                            PRECINCT 302                                           01 
01440020009000000DEM       Justice, Supreme Court, PL 6, Unexpired                 OVER VOTES                            PRECINCT 303                                           01 
01440020010000000DEM       Justice, Supreme Court, PL 6, Unexpired                 OVER VOTES                            PRECINCT 401                                           01 
01440020011000000DEM       Justice, Supreme Court, PL 6, Unexpired                 OVER VOTES                            PRECINCT 402                                           01 
01440020012000000DEM       Justice, Supreme Court, PL 6, Unexpired                 OVER VOTES                            PRECINCT 403                                           01 
01440030001000008DEM       Justice, Supreme Court, PL 6, Unexpired                 UNDER VOTES                           PRECINCT 101                                           01 
01440030002000003DEM       Justice, Supreme Court, PL 6, Unexpired                 UNDER VOTES                           PRECINCT 102                                           01 
01440030003000006DEM       Justice, Supreme Court, PL 6, Unexpired                 UNDER VOTES                           PRECINCT 103                                           01 
01440030004000008DEM       Justice, Supreme Court, PL 6, Unexpired                 UNDER VOTES                           PRECINCT 201                                           01 
01440030005000008DEM       Justice, Supreme Court, PL 6, Unexpired                 UNDER VOTES                           PRECINCT 202                                           01 
01440030006000019DEM       Justice, Supreme Court, PL 6, Unexpired                 UNDER VOTES                           PRECINCT 203                                           01 
01440030007000006DEM       Justice, Supreme Court, PL 6, Unexpired                 UNDER VOTES                           PRECINCT 301                                           01 
01440030008000002DEM       Justice, Supreme Court, PL 6, Unexpired                 UNDER VOTES                           PRECINCT 302                                           01 
01440030009000001DEM       Justice, Supreme Court, PL 6, Unexpired                 UNDER VOTES                           PRECINCT 303                                           01 
01440030010000035DEM       Justice, Supreme Court, PL 6, Unexpired                 UNDER VOTES                           PRECINCT 401                                           01 
01440030011000018DEM       Justice, Supreme Court, PL 6, Unexpired                 UNDER VOTES                           PRECINCT 402                                           01 
01440030012000004DEM       Justice, Supreme Court, PL 6, Unexpired                 UNDER VOTES                           PRECINCT 403                                           01 
01450010001000030DEM       Justice, Supreme Court, Place 7 WHARTON COUNTYWIDE      Gina Benavides                        PRECINCT 101                                           01 
01450010002000026DEM       Justice, Supreme Court, Place 7 WHARTON COUNTYWIDE      Gina Benavides                        PRECINCT 102                                           01 
01450010003000016DEM       Justice, Supreme Court, Place 7 WHARTON COUNTYWIDE      Gina Benavides                        PRECINCT 103                                           01 
01450010004000029DEM       Justice, Supreme Court, Place 7 WHARTON COUNTYWIDE      Gina Benavides                        PRECINCT 201                                           01 
01450010005000027DEM       Justice, Supreme Court, Place 7 WHARTON COUNTYWIDE      Gina Benavides                        PRECINCT 202                                           01 
01450010006000085DEM       Justice, Supreme Court, Place 7 WHARTON COUNTYWIDE      Gina Benavides                        PRECINCT 203                                           01 
01450010007000018DEM       Justice, Supreme Court, Place 7 WHARTON COUNTYWIDE      Gina Benavides                        PRECINCT 301                                           01 
01450010008000027DEM       Justice, Supreme Court, Place 7 WHARTON COUNTYWIDE      Gina Benavides                        PRECINCT 302                                           01 
01450010009000018DEM       Justice, Supreme Court, Place 7 WHARTON COUNTYWIDE      Gina Benavides                        PRECINCT 303                                           01 
01450010010000064DEM       Justice, Supreme Court, Place 7 WHARTON COUNTYWIDE      Gina Benavides                        PRECINCT 401                                           01 
01450010011000036DEM       Justice, Supreme Court, Place 7 WHARTON COUNTYWIDE      Gina Benavides                        PRECINCT 402                                           01 
01450010012000014DEM       Justice, Supreme Court, Place 7 WHARTON COUNTYWIDE      Gina Benavides                        PRECINCT 403                                           01 
01450020001000000DEM       Justice, Supreme Court, Place 7 WHARTON COUNTYWIDE      OVER VOTES                            PRECINCT 101                                           01 
01450020002000000DEM       Justice, Supreme Court, Place 7 WHARTON COUNTYWIDE      OVER VOTES                            PRECINCT 102                                           01 
01450020003000000DEM       Justice, Supreme Court, Place 7 WHARTON COUNTYWIDE      OVER VOTES                            PRECINCT 103                                           01 
01450020004000000DEM       Justice, Supreme Court, Place 7 WHARTON COUNTYWIDE      OVER VOTES                            PRECINCT 201                                           01 
01450020005000000DEM       Justice, Supreme Court, Place 7 WHARTON COUNTYWIDE      OVER VOTES                            PRECINCT 202                                           01 
01450020006000000DEM       Justice, Supreme Court, Place 7 WHARTON COUNTYWIDE      OVER VOTES                            PRECINCT 203                                           01 
01450020007000000DEM       Justice, Supreme Court, Place 7 WHARTON COUNTYWIDE      OVER VOTES                            PRECINCT 301                                           01 
01450020008000000DEM       Justice, Supreme Court, Place 7 WHARTON COUNTYWIDE      OVER VOTES                            PRECINCT 302                                           01 
01450020009000000DEM       Justice, Supreme Court, Place 7 WHARTON COUNTYWIDE      OVER VOTES                            PRECINCT 303                                           01 
01450020010000000DEM       Justice, Supreme Court, Place 7 WHARTON COUNTYWIDE      OVER VOTES                            PRECINCT 401                                           01 
01450020011000000DEM       Justice, Supreme Court, Place 7 WHARTON COUNTYWIDE      OVER VOTES                            PRECINCT 402                                           01 
01450020012000000DEM       Justice, Supreme Court, Place 7 WHARTON COUNTYWIDE      OVER VOTES                            PRECINCT 403                                           01 
01450030001000008DEM       Justice, Supreme Court, Place 7 WHARTON COUNTYWIDE      UNDER VOTES                           PRECINCT 101                                           01 
01450030002000002DEM       Justice, Supreme Court, Place 7 WHARTON COUNTYWIDE      UNDER VOTES                           PRECINCT 102                                           01 
01450030003000006DEM       Justice, Supreme Court, Place 7 WHARTON COUNTYWIDE      UNDER VOTES                           PRECINCT 103                                           01 
01450030004000008DEM       Justice, Supreme Court, Place 7 WHARTON COUNTYWIDE      UNDER VOTES                           PRECINCT 201                                           01 
01450030005000008DEM       Justice, Supreme Court, Place 7 WHARTON COUNTYWIDE      UNDER VOTES                           PRECINCT 202                                           01 
01450030006000017DEM       Justice, Supreme Court, Place 7 WHARTON COUNTYWIDE      UNDER VOTES                           PRECINCT 203                                           01 
01450030007000007DEM       Justice, Supreme Court, Place 7 WHARTON COUNTYWIDE      UNDER VOTES                           PRECINCT 301                                           01 
01450030008000000DEM       Justice, Supreme Court, Place 7 WHARTON COUNTYWIDE      UNDER VOTES                           PRECINCT 302                                           01 
01450030009000002DEM       Justice, Supreme Court, Place 7 WHARTON COUNTYWIDE      UNDER VOTES                           PRECINCT 303                                           01 
01450030010000029DEM       Justice, Supreme Court, Place 7 WHARTON COUNTYWIDE      UNDER VOTES                           PRECINCT 401                                           01 
01450030011000016DEM       Justice, Supreme Court, Place 7 WHARTON COUNTYWIDE      UNDER VOTES                           PRECINCT 402                                           01 
01450030012000007DEM       Justice, Supreme Court, Place 7 WHARTON COUNTYWIDE      UNDER VOTES                           PRECINCT 403                                           01 
01460010001000030DEM       Judge, CT of Criminal AP, Place 3 WHARTON COUNTYWIDE    John Granberg                         PRECINCT 101                                           01 
01460010002000025DEM       Judge, CT of Criminal AP, Place 3 WHARTON COUNTYWIDE    John Granberg                         PRECINCT 102                                           01 
01460010003000016DEM       Judge, CT of Criminal AP, Place 3 WHARTON COUNTYWIDE    John Granberg                         PRECINCT 103                                           01 
01460010004000030DEM       Judge, CT of Criminal AP, Place 3 WHARTON COUNTYWIDE    John Granberg                         PRECINCT 201                                           01 
01460010005000027DEM       Judge, CT of Criminal AP, Place 3 WHARTON COUNTYWIDE    John Granberg                         PRECINCT 202                                           01 
01460010006000080DEM       Judge, CT of Criminal AP, Place 3 WHARTON COUNTYWIDE    John Granberg                         PRECINCT 203                                           01 
01460010007000019DEM       Judge, CT of Criminal AP, Place 3 WHARTON COUNTYWIDE    John Granberg                         PRECINCT 301                                           01 
01460010008000026DEM       Judge, CT of Criminal AP, Place 3 WHARTON COUNTYWIDE    John Granberg                         PRECINCT 302                                           01 
01460010009000019DEM       Judge, CT of Criminal AP, Place 3 WHARTON COUNTYWIDE    John Granberg                         PRECINCT 303                                           01 
01460010010000054DEM       Judge, CT of Criminal AP, Place 3 WHARTON COUNTYWIDE    John Granberg                         PRECINCT 401                                           01 
01460010011000034DEM       Judge, CT of Criminal AP, Place 3 WHARTON COUNTYWIDE    John Granberg                         PRECINCT 402                                           01 
01460010012000016DEM       Judge, CT of Criminal AP, Place 3 WHARTON COUNTYWIDE    John Granberg                         PRECINCT 403                                           01 
01460020001000000DEM       Judge, CT of Criminal AP, Place 3 WHARTON COUNTYWIDE    OVER VOTES                            PRECINCT 101                                           01 
01460020002000000DEM       Judge, CT of Criminal AP, Place 3 WHARTON COUNTYWIDE    OVER VOTES                            PRECINCT 102                                           01 
01460020003000000DEM       Judge, CT of Criminal AP, Place 3 WHARTON COUNTYWIDE    OVER VOTES                            PRECINCT 103                                           01 
01460020004000000DEM       Judge, CT of Criminal AP, Place 3 WHARTON COUNTYWIDE    OVER VOTES                            PRECINCT 201                                           01 
01460020005000000DEM       Judge, CT of Criminal AP, Place 3 WHARTON COUNTYWIDE    OVER VOTES                            PRECINCT 202                                           01 
01460020006000000DEM       Judge, CT of Criminal AP, Place 3 WHARTON COUNTYWIDE    OVER VOTES                            PRECINCT 203                                           01 
01460020007000000DEM       Judge, CT of Criminal AP, Place 3 WHARTON COUNTYWIDE    OVER VOTES                            PRECINCT 301                                           01 
01460020008000000DEM       Judge, CT of Criminal AP, Place 3 WHARTON COUNTYWIDE    OVER VOTES                            PRECINCT 302                                           01 
01460020009000000DEM       Judge, CT of Criminal AP, Place 3 WHARTON COUNTYWIDE    OVER VOTES                            PRECINCT 303                                           01 
01460020010000000DEM       Judge, CT of Criminal AP, Place 3 WHARTON COUNTYWIDE    OVER VOTES                            PRECINCT 401                                           01 
01460020011000000DEM       Judge, CT of Criminal AP, Place 3 WHARTON COUNTYWIDE    OVER VOTES                            PRECINCT 402                                           01 
01460020012000000DEM       Judge, CT of Criminal AP, Place 3 WHARTON COUNTYWIDE    OVER VOTES                            PRECINCT 403                                           01 
