01000014050000212NONCTYWINDCITY OF WINDCREST Council Member, Place 1               Gerd Erich Jacobi                                                                            01 
01000014051000369NONCTYWINDCITY OF WINDCREST Council Member, Place 1               Gerd Erich Jacobi                                                                            01 
01000014107000279NONCTYWINDCITY OF WINDCREST Council Member, Place 1               Gerd Erich Jacobi                                                                            01 
01000014192000000NONCTYWINDCITY OF WINDCREST Council Member, Place 1               Gerd Erich Jacobi                                                                            01 
01000014195000000NONCTYWINDCITY OF WINDCREST Council Member, Place 1               Gerd Erich Jacobi                                                                            01 
01000024050000293NONCTYWINDCITY OF WINDCREST Council Member, Place 1               Dan Reese                                                                                    01 
01000024051000379NONCTYWINDCITY OF WINDCREST Council Member, Place 1               Dan Reese                                                                                    01 
01000024107000160NONCTYWINDCITY OF WINDCREST Council Member, Place 1               Dan Reese                                                                                    01 
01000024192000000NONCTYWINDCITY OF WINDCREST Council Member, Place 1               Dan Reese                                                                                    01 
01000024195000000NONCTYWINDCITY OF WINDCREST Council Member, Place 1               Dan Reese                                                                                    01 
01000034050000000   CTYWINDCITY OF WINDCREST Council Member, Place 1               OVER VOTES                                                                                   01 
01000034051000000   CTYWINDCITY OF WINDCREST Council Member, Place 1               OVER VOTES                                                                                   01 
01000034107000000   CTYWINDCITY OF WINDCREST Council Member, Place 1               OVER VOTES                                                                                   01 
01000034192000000   CTYWINDCITY OF WINDCREST Council Member, Place 1               OVER VOTES                                                                                   01 
01000034195000000   CTYWINDCITY OF WINDCREST Council Member, Place 1               OVER VOTES                                                                                   01 
01000044050000060   CTYWINDCITY OF WINDCREST Council Member, Place 1               UNDER VOTES                                                                                  01 
01000044051000071   CTYWINDCITY OF WINDCREST Council Member, Place 1               UNDER VOTES                                                                                  01 
01000044107000042   CTYWINDCITY OF WINDCREST Council Member, Place 1               UNDER VOTES                                                                                  01 
01000044192000000   CTYWINDCITY OF WINDCREST Council Member, Place 1               UNDER VOTES                                                                                  01 
01000044195000000   CTYWINDCITY OF WINDCREST Council Member, Place 1               UNDER VOTES                                                                                  01 
01010014050000260NONCTYWINDCITY OF WINDCREST Council Member, Place 2               Jim Shelton                                                                                  01 
01010014051000414NONCTYWINDCITY OF WINDCREST Council Member, Place 2               Jim Shelton                                                                                  01 
01010014107000291NONCTYWINDCITY OF WINDCREST Council Member, Place 2               Jim Shelton                                                                                  01 
01010014192000000NONCTYWINDCITY OF WINDCREST Council Member, Place 2               Jim Shelton                                                                                  01 
01010014195000000NONCTYWINDCITY OF WINDCREST Council Member, Place 2               Jim Shelton                                                                                  01 
01010024050000249NONCTYWINDCITY OF WINDCREST Council Member, Place 2               Henry Moncada                                                                                01 
01010024051000329NONCTYWINDCITY OF WINDCREST Council Member, Place 2               Henry Moncada                                                                                01 
01010024107000149NONCTYWINDCITY OF WINDCREST Council Member, Place 2               Henry Moncada                                                                                01 
01010024192000000NONCTYWINDCITY OF WINDCREST Council Member, Place 2               Henry Moncada                                                                                01 
01010024195000000NONCTYWINDCITY OF WINDCREST Council Member, Place 2               Henry Moncada                                                                                01 
01010034050000000   CTYWINDCITY OF WINDCREST Council Member, Place 2               OVER VOTES                                                                                   01 
01010034051000000   CTYWINDCITY OF WINDCREST Council Member, Place 2               OVER VOTES                                                                                   01 
01010034107000000   CTYWINDCITY OF WINDCREST Council Member, Place 2               OVER VOTES                                                                                   01 
01010034192000000   CTYWINDCITY OF WINDCREST Council Member, Place 2               OVER VOTES                                                                                   01 
01010034195000000   CTYWINDCITY OF WINDCREST Council Member, Place 2               OVER VOTES                                                                                   01 
01010044050000056   CTYWINDCITY OF WINDCREST Council Member, Place 2               UNDER VOTES                                                                                  01 
01010044051000076   CTYWINDCITY OF WINDCREST Council Member, Place 2               UNDER VOTES                                                                                  01 
01010044107000041   CTYWINDCITY OF WINDCREST Council Member, Place 2               UNDER VOTES                                                                                  01 
01010044192000000   CTYWINDCITY OF WINDCREST Council Member, Place 2               UNDER VOTES                                                                                  01 
01010044195000000   CTYWINDCITY OF WINDCREST Council Member, Place 2               UNDER VOTES                                                                                  01 
01020014050000252NONCTYWINDCITY OF WINDCREST Council Member, Place 3               Michael Scott                                                                                01 
01020014051000302NONCTYWINDCITY OF WINDCREST Council Member, Place 3               Michael Scott                                                                                01 
01020014107000143NONCTYWINDCITY OF WINDCREST Council Member, Place 3               Michael Scott                                                                                01 
01020014192000000NONCTYWINDCITY OF WINDCREST Council Member, Place 3               Michael Scott                                                                                01 
01020014195000000NONCTYWINDCITY OF WINDCREST Council Member, Place 3               Michael Scott                                                                                01 
01020024050000252NONCTYWINDCITY OF WINDCREST Council Member, Place 3               Pamela Dodson                                                                                01 
01020024051000435NONCTYWINDCITY OF WINDCREST Council Member, Place 3               Pamela Dodson                                                                                01 
01020024107000301NONCTYWINDCITY OF WINDCREST Council Member, Place 3               Pamela Dodson                                                                                01 
01020024192000000NONCTYWINDCITY OF WINDCREST Council Member, Place 3               Pamela Dodson                                                                                01 
01020024195000000NONCTYWINDCITY OF WINDCREST Council Member, Place 3               Pamela Dodson                                                                                01 
01020034050000000   CTYWINDCITY OF WINDCREST Council Member, Place 3               OVER VOTES                                                                                   01 
01020034051000000   CTYWINDCITY OF WINDCREST Council Member, Place 3               OVER VOTES                                                                                   01 
01020034107000000   CTYWINDCITY OF WINDCREST Council Member, Place 3               OVER VOTES                                                                                   01 
01020034192000000   CTYWINDCITY OF WINDCREST Council Member, Place 3               OVER VOTES                                                                                   01 
01020034195000000   CTYWINDCITY OF WINDCREST Council Member, Place 3               OVER VOTES                                                                                   01 
01020044050000061   CTYWINDCITY OF WINDCREST Council Member, Place 3               UNDER VOTES                                                                                  01 
01020044051000082   CTYWINDCITY OF WINDCREST Council Member, Place 3               UNDER VOTES                                                                                  01 
01020044107000037   CTYWINDCITY OF WINDCREST Council Member, Place 3               UNDER VOTES                                                                                  01 
01020044192000000   CTYWINDCITY OF WINDCREST Council Member, Place 3               UNDER VOTES                                                                                  01 
01020044195000000   CTYWINDCITY OF WINDCREST Council Member, Place 3               UNDER VOTES                                                                                  01 
