01000014050000277NONCTYWINDCITY OF WINDCREST Council Member, Place 1               Gerd Erich Jacobi                                                                            01 
01000014051000453NONCTYWINDCITY OF WINDCREST Council Member, Place 1               Gerd Erich Jacobi                                                                            01 
01000014107000351NONCTYWINDCITY OF WINDCREST Council Member, Place 1               Gerd Erich Jacobi                                                                            01 
01000014192000000NONCTYWINDCITY OF WINDCREST Council Member, Place 1               Gerd Erich Jacobi                                                                            01 
01000014195000000NONCTYWINDCITY OF WINDCREST Council Member, Place 1               Gerd Erich Jacobi                                                                            01 
01000024050000376NONCTYWINDCITY OF WINDCREST Council Member, Place 1               Dan Reese                                                                                    01 
01000024051000454NONCTYWINDCITY OF WINDCREST Council Member, Place 1               Dan Reese                                                                                    01 
01000024107000194NONCTYWINDCITY OF WINDCREST Council Member, Place 1               Dan Reese                                                                                    01 
01000024192000000NONCTYWINDCITY OF WINDCREST Council Member, Place 1               Dan Reese                                                                                    01 
01000024195000000NONCTYWINDCITY OF WINDCREST Council Member, Place 1               Dan Reese                                                                                    01 
01000034050000000   CTYWINDCITY OF WINDCREST Council Member, Place 1               OVER VOTES                                                                                   01 
01000034051000000   CTYWINDCITY OF WINDCREST Council Member, Place 1               OVER VOTES                                                                                   01 
01000034107000000   CTYWINDCITY OF WINDCREST Council Member, Place 1               OVER VOTES                                                                                   01 
01000034192000000   CTYWINDCITY OF WINDCREST Council Member, Place 1               OVER VOTES                                                                                   01 
01000034195000000   CTYWINDCITY OF WINDCREST Council Member, Place 1               OVER VOTES                                                                                   01 
01000044050000079   CTYWINDCITY OF WINDCREST Council Member, Place 1               UNDER VOTES                                                                                  01 
01000044051000084   CTYWINDCITY OF WINDCREST Council Member, Place 1               UNDER VOTES                                                                                  01 
01000044107000061   CTYWINDCITY OF WINDCREST Council Member, Place 1               UNDER VOTES                                                                                  01 
01000044192000000   CTYWINDCITY OF WINDCREST Council Member, Place 1               UNDER VOTES                                                                                  01 
01000044195000000   CTYWINDCITY OF WINDCREST Council Member, Place 1               UNDER VOTES                                                                                  01 
01010014050000331NONCTYWINDCITY OF WINDCREST Council Member, Place 2               Jim Shelton                                                                                  01 
01010014051000503NONCTYWINDCITY OF WINDCREST Council Member, Place 2               Jim Shelton                                                                                  01 
01010014107000373NONCTYWINDCITY OF WINDCREST Council Member, Place 2               Jim Shelton                                                                                  01 
01010014192000000NONCTYWINDCITY OF WINDCREST Council Member, Place 2               Jim Shelton                                                                                  01 
01010014195000000NONCTYWINDCITY OF WINDCREST Council Member, Place 2               Jim Shelton                                                                                  01 
01010024050000320NONCTYWINDCITY OF WINDCREST Council Member, Place 2               Henry Moncada                                                                                01 
01010024051000398NONCTYWINDCITY OF WINDCREST Council Member, Place 2               Henry Moncada                                                                                01 
01010024107000174NONCTYWINDCITY OF WINDCREST Council Member, Place 2               Henry Moncada                                                                                01 
01010024192000000NONCTYWINDCITY OF WINDCREST Council Member, Place 2               Henry Moncada                                                                                01 
01010024195000000NONCTYWINDCITY OF WINDCREST Council Member, Place 2               Henry Moncada                                                                                01 
01010034050000000   CTYWINDCITY OF WINDCREST Council Member, Place 2               OVER VOTES                                                                                   01 
01010034051000000   CTYWINDCITY OF WINDCREST Council Member, Place 2               OVER VOTES                                                                                   01 
01010034107000000   CTYWINDCITY OF WINDCREST Council Member, Place 2               OVER VOTES                                                                                   01 
01010034192000000   CTYWINDCITY OF WINDCREST Council Member, Place 2               OVER VOTES                                                                                   01 
01010034195000000   CTYWINDCITY OF WINDCREST Council Member, Place 2               OVER VOTES                                                                                   01 
01010044050000081   CTYWINDCITY OF WINDCREST Council Member, Place 2               UNDER VOTES                                                                                  01 
01010044051000090   CTYWINDCITY OF WINDCREST Council Member, Place 2               UNDER VOTES                                                                                  01 
01010044107000059   CTYWINDCITY OF WINDCREST Council Member, Place 2               UNDER VOTES                                                                                  01 
01010044192000000   CTYWINDCITY OF WINDCREST Council Member, Place 2               UNDER VOTES                                                                                  01 
01010044195000000   CTYWINDCITY OF WINDCREST Council Member, Place 2               UNDER VOTES                                                                                  01 
01020014050000320NONCTYWINDCITY OF WINDCREST Council Member, Place 3               Michael Scott                                                                                01 
01020014051000365NONCTYWINDCITY OF WINDCREST Council Member, Place 3               Michael Scott                                                                                01 
01020014107000175NONCTYWINDCITY OF WINDCREST Council Member, Place 3               Michael Scott                                                                                01 
01020014192000000NONCTYWINDCITY OF WINDCREST Council Member, Place 3               Michael Scott                                                                                01 
01020014195000000NONCTYWINDCITY OF WINDCREST Council Member, Place 3               Michael Scott                                                                                01 
01020024050000327NONCTYWINDCITY OF WINDCREST Council Member, Place 3               Pamela Dodson                                                                                01 
01020024051000529NONCTYWINDCITY OF WINDCREST Council Member, Place 3               Pamela Dodson                                                                                01 
01020024107000376NONCTYWINDCITY OF WINDCREST Council Member, Place 3               Pamela Dodson                                                                                01 
01020024192000000NONCTYWINDCITY OF WINDCREST Council Member, Place 3               Pamela Dodson                                                                                01 
01020024195000000NONCTYWINDCITY OF WINDCREST Council Member, Place 3               Pamela Dodson                                                                                01 
01020034050000000   CTYWINDCITY OF WINDCREST Council Member, Place 3               OVER VOTES                                                                                   01 
01020034051000000   CTYWINDCITY OF WINDCREST Council Member, Place 3               OVER VOTES                                                                                   01 
01020034107000000   CTYWINDCITY OF WINDCREST Council Member, Place 3               OVER VOTES                                                                                   01 
01020034192000000   CTYWINDCITY OF WINDCREST Council Member, Place 3               OVER VOTES                                                                                   01 
01020034195000000   CTYWINDCITY OF WINDCREST Council Member, Place 3               OVER VOTES                                                                                   01 
01020044050000085   CTYWINDCITY OF WINDCREST Council Member, Place 3               UNDER VOTES                                                                                  01 
01020044051000097   CTYWINDCITY OF WINDCREST Council Member, Place 3               UNDER VOTES                                                                                  01 
01020044107000055   CTYWINDCITY OF WINDCREST Council Member, Place 3               UNDER VOTES                                                                                  01 
01020044192000000   CTYWINDCITY OF WINDCREST Council Member, Place 3               UNDER VOTES                                                                                  01 
01020044195000000   CTYWINDCITY OF WINDCREST Council Member, Place 3               UNDER VOTES                                                                                  01 
