01010010001000988000000000000000000000000000000          REGISTERED VOTERS - TOTAL                               REGISTERED VOTERS - TOTAL             PRECINCT 101                                           00 
01010010002001013000000000000000000000000000000          REGISTERED VOTERS - TOTAL                               REGISTERED VOTERS - TOTAL             PRECINCT 202                                           00 
01010010003000529000000000000000000000000000000          REGISTERED VOTERS - TOTAL                               REGISTERED VOTERS - TOTAL             PRECINCT 303                                           00 
01010010004000557000000000000000000000000000000          REGISTERED VOTERS - TOTAL                               REGISTERED VOTERS - TOTAL             PRECINCT 404                                           00 
01010010005000345000000000000000000000000000000          REGISTERED VOTERS - TOTAL                               REGISTERED VOTERS - TOTAL             PRECINCT 305                                           00 
01010010006000492000000000000000000000000000000          REGISTERED VOTERS - TOTAL                               REGISTERED VOTERS - TOTAL             PRECINCT 406                                           00 
01020010001000167000095000072000000000000000000          BALLOTS CAST - TOTAL                                    BALLOTS CAST - TOTAL                  PRECINCT 101                                           00 
01020010002000156000094000062000000000000000000          BALLOTS CAST - TOTAL                                    BALLOTS CAST - TOTAL                  PRECINCT 202                                           00 
01020010003000123000055000068000000000000000000          BALLOTS CAST - TOTAL                                    BALLOTS CAST - TOTAL                  PRECINCT 303                                           00 
01020010004000389000259000130000000000000000000          BALLOTS CAST - TOTAL                                    BALLOTS CAST - TOTAL                  PRECINCT 404                                           00 
01020010005000030000019000011000000000000000000          BALLOTS CAST - TOTAL                                    BALLOTS CAST - TOTAL                  PRECINCT 305                                           00 
01020010006000088000046000042000000000000000000          BALLOTS CAST - TOTAL                                    BALLOTS CAST - TOTAL                  PRECINCT 406                                           00 
01030010001000167000095000072000000000000000000REP       BALLOTS CAST - REPUBLICAN PARTY                         BALLOTS CAST - REPUBLICAN PARTY       PRECINCT 101                                           00 
01030010002000156000094000062000000000000000000REP       BALLOTS CAST - REPUBLICAN PARTY                         BALLOTS CAST - REPUBLICAN PARTY       PRECINCT 202                                           00 
01030010003000123000055000068000000000000000000REP       BALLOTS CAST - REPUBLICAN PARTY                         BALLOTS CAST - REPUBLICAN PARTY       PRECINCT 303                                           00 
01030010004000389000259000130000000000000000000REP       BALLOTS CAST - REPUBLICAN PARTY                         BALLOTS CAST - REPUBLICAN PARTY       PRECINCT 404                                           00 
01030010005000030000019000011000000000000000000REP       BALLOTS CAST - REPUBLICAN PARTY                         BALLOTS CAST - REPUBLICAN PARTY       PRECINCT 305                                           00 
01030010006000088000046000042000000000000000000REP       BALLOTS CAST - REPUBLICAN PARTY                         BALLOTS CAST - REPUBLICAN PARTY       PRECINCT 406                                           00 
01040010001000004000002000002000000000000000000REP       United States Senator                                   Linda Vega                            PRECINCT 101                                           01 
01040010002000012000007000005000000000000000000REP       United States Senator                                   Linda Vega                            PRECINCT 202                                           01 
01040010003000009000004000005000000000000000000REP       United States Senator                                   Linda Vega                            PRECINCT 303                                           01 
01040010004000062000038000024000000000000000000REP       United States Senator                                   Linda Vega                            PRECINCT 404                                           01 
01040010005000004000003000001000000000000000000REP       United States Senator                                   Linda Vega                            PRECINCT 305                                           01 
01040010006000008000004000004000000000000000000REP       United States Senator                                   Linda Vega                            PRECINCT 406                                           01 
01040020001000003000001000002000000000000000000REP       United States Senator                                   Reid Reasor                           PRECINCT 101                                           01 
01040020002000000000000000000000000000000000000REP       United States Senator                                   Reid Reasor                           PRECINCT 202                                           01 
01040020003000002000000000002000000000000000000REP       United States Senator                                   Reid Reasor                           PRECINCT 303                                           01 
01040020004000010000006000004000000000000000000REP       United States Senator                                   Reid Reasor                           PRECINCT 404                                           01 
01040020005000000000000000000000000000000000000REP       United States Senator                                   Reid Reasor                           PRECINCT 305                                           01 
01040020006000001000000000001000000000000000000REP       United States Senator                                   Reid Reasor                           PRECINCT 406                                           01 
01040030001000097000058000039000000000000000000REP       United States Senator                                   John Cornyn                           PRECINCT 101                                           01 
01040030002000089000058000031000000000000000000REP       United States Senator                                   John Cornyn                           PRECINCT 202                                           01 
01040030003000076000040000036000000000000000000REP       United States Senator                                   John Cornyn                           PRECINCT 303                                           01 
01040030004000170000121000049000000000000000000REP       United States Senator                                   John Cornyn                           PRECINCT 404                                           01 
01040030005000015000010000005000000000000000000REP       United States Senator                                   John Cornyn                           PRECINCT 305                                           01 
01040030006000044000027000017000000000000000000REP       United States Senator                                   John Cornyn                           PRECINCT 406                                           01 
01040040001000005000001000004000000000000000000REP       United States Senator                                   Chris Mapp                            PRECINCT 101                                           01 
01040040002000001000001000000000000000000000000REP       United States Senator                                   Chris Mapp                            PRECINCT 202                                           01 
01040040003000000000000000000000000000000000000REP       United States Senator                                   Chris Mapp                            PRECINCT 303                                           01 
01040040004000003000001000002000000000000000000REP       United States Senator                                   Chris Mapp                            PRECINCT 404                                           01 
01040040005000000000000000000000000000000000000REP       United States Senator                                   Chris Mapp                            PRECINCT 305                                           01 
01040040006000001000001000000000000000000000000REP       United States Senator                                   Chris Mapp                            PRECINCT 406                                           01 
01040050001000024000014000010000000000000000000REP       United States Senator                                   Steve Stockman                        PRECINCT 101                                           01 
01040050002000031000015000016000000000000000000REP       United States Senator                                   Steve Stockman                        PRECINCT 202                                           01 
01040050003000011000003000008000000000000000000REP       United States Senator                                   Steve Stockman                        PRECINCT 303                                           01 
01040050004000038000030000008000000000000000000REP       United States Senator                                   Steve Stockman                        PRECINCT 404                                           01 
01040050005000004000001000003000000000000000000REP       United States Senator                                   Steve Stockman                        PRECINCT 305                                           01 
01040050006000012000002000010000000000000000000REP       United States Senator                                   Steve Stockman                        PRECINCT 406                                           01 
01040060001000002000002000000000000000000000000REP       United States Senator                                   Curt Cleaver                          PRECINCT 101                                           01 
01040060002000000000000000000000000000000000000REP       United States Senator                                   Curt Cleaver                          PRECINCT 202                                           01 
01040060003000000000000000000000000000000000000REP       United States Senator                                   Curt Cleaver                          PRECINCT 303                                           01 
01040060004000003000002000001000000000000000000REP       United States Senator                                   Curt Cleaver                          PRECINCT 404                                           01 
01040060005000002000002000000000000000000000000REP       United States Senator                                   Curt Cleaver                          PRECINCT 305                                           01 
01040060006000000000000000000000000000000000000REP       United States Senator                                   Curt Cleaver                          PRECINCT 406                                           01 
01040070001000010000005000005000000000000000000REP       United States Senator                                   Dwayne Stovall                        PRECINCT 101                                           01 
01040070002000004000003000001000000000000000000REP       United States Senator                                   Dwayne Stovall                        PRECINCT 202                                           01 
01040070003000008000004000004000000000000000000REP       United States Senator                                   Dwayne Stovall                        PRECINCT 303                                           01 
01040070004000026000015000011000000000000000000REP       United States Senator                                   Dwayne Stovall                        PRECINCT 404                                           01 
01040070005000001000001000000000000000000000000REP       United States Senator                                   Dwayne Stovall                        PRECINCT 305                                           01 
01040070006000001000001000000000000000000000000REP       United States Senator                                   Dwayne Stovall                        PRECINCT 406                                           01 
01040080001000012000008000004000000000000000000REP       United States Senator                                   Ken Cope                              PRECINCT 101                                           01 
01040080002000011000008000003000000000000000000REP       United States Senator                                   Ken Cope                              PRECINCT 202                                           01 
01040080003000007000000000007000000000000000000REP       United States Senator                                   Ken Cope                              PRECINCT 303                                           01 
01040080004000016000009000007000000000000000000REP       United States Senator                                   Ken Cope                              PRECINCT 404                                           01 
01040080005000001000001000000000000000000000000REP       United States Senator                                   Ken Cope                              PRECINCT 305                                           01 
01040080006000007000003000004000000000000000000REP       United States Senator                                   Ken Cope                              PRECINCT 406                                           01 
01040090001000000000000000000000000000000000000REP       United States Senator                                   OVER VOTES                            PRECINCT 101                                           01 
01040090002000000000000000000000000000000000000REP       United States Senator                                   OVER VOTES                            PRECINCT 202                                           01 
01040090003000000000000000000000000000000000000REP       United States Senator                                   OVER VOTES                            PRECINCT 303                                           01 
01040090004000000000000000000000000000000000000REP       United States Senator                                   OVER VOTES                            PRECINCT 404                                           01 
01040090005000000000000000000000000000000000000REP       United States Senator                                   OVER VOTES                            PRECINCT 305                                           01 
01040090006000000000000000000000000000000000000REP       United States Senator                                   OVER VOTES                            PRECINCT 406                                           01 
01040100001000010000004000006000000000000000000REP       United States Senator                                   UNDER VOTES                           PRECINCT 101                                           01 
01040100002000008000002000006000000000000000000REP       United States Senator                                   UNDER VOTES                           PRECINCT 202                                           01 
01040100003000010000004000006000000000000000000REP       United States Senator                                   UNDER VOTES                           PRECINCT 303                                           01 
01040100004000061000037000024000000000000000000REP       United States Senator                                   UNDER VOTES                           PRECINCT 404                                           01 
01040100005000003000001000002000000000000000000REP       United States Senator                                   UNDER VOTES                           PRECINCT 305                                           01 
01040100006000014000008000006000000000000000000REP       United States Senator                                   UNDER VOTES                           PRECINCT 406                                           01 
01050010001000021000012000009000000000000000000REP       United States Representative District 19                Chris Winn                            PRECINCT 101                                           01 
01050010002000018000013000005000000000000000000REP       United States Representative District 19                Chris Winn                            PRECINCT 202                                           01 
01050010003000021000009000012000000000000000000REP       United States Representative District 19                Chris Winn                            PRECINCT 303                                           01 
01050010004000108000081000027000000000000000000REP       United States Representative District 19                Chris Winn                            PRECINCT 404                                           01 
01050010005000003000000000003000000000000000000REP       United States Representative District 19                Chris Winn                            PRECINCT 305                                           01 
01050010006000015000009000006000000000000000000REP       United States Representative District 19                Chris Winn                            PRECINCT 406                                           01 
01050020001000116000070000046000000000000000000REP       United States Representative District 19                Randy Neugebauer                      PRECINCT 101                                           01 
01050020002000111000063000048000000000000000000REP       United States Representative District 19                Randy Neugebauer                      PRECINCT 202                                           01 
01050020003000081000035000046000000000000000000REP       United States Representative District 19                Randy Neugebauer                      PRECINCT 303                                           01 
01050020004000207000132000075000000000000000000REP       United States Representative District 19                Randy Neugebauer                      PRECINCT 404                                           01 
01050020005000023000016000007000000000000000000REP       United States Representative District 19                Randy Neugebauer                      PRECINCT 305                                           01 
01050020006000053000028000025000000000000000000REP       United States Representative District 19                Randy Neugebauer                      PRECINCT 406                                           01 
01050030001000025000013000012000000000000000000REP       United States Representative District 19                Donald R. May                         PRECINCT 101                                           01 
01050030002000021000016000005000000000000000000REP       United States Representative District 19                Donald R. May                         PRECINCT 202                                           01 
01050030003000019000009000010000000000000000000REP       United States Representative District 19                Donald R. May                         PRECINCT 303                                           01 
01050030004000034000022000012000000000000000000REP       United States Representative District 19                Donald R. May                         PRECINCT 404                                           01 
01050030005000004000003000001000000000000000000REP       United States Representative District 19                Donald R. May                         PRECINCT 305                                           01 
01050030006000010000004000006000000000000000000REP       United States Representative District 19                Donald R. May                         PRECINCT 406                                           01 
01050040001000000000000000000000000000000000000REP       United States Representative District 19                OVER VOTES                            PRECINCT 101                                           01 
01050040002000000000000000000000000000000000000REP       United States Representative District 19                OVER VOTES                            PRECINCT 202                                           01 
01050040003000000000000000000000000000000000000REP       United States Representative District 19                OVER VOTES                            PRECINCT 303                                           01 
01050040004000000000000000000000000000000000000REP       United States Representative District 19                OVER VOTES                            PRECINCT 404                                           01 
01050040005000000000000000000000000000000000000REP       United States Representative District 19                OVER VOTES                            PRECINCT 305                                           01 
01050040006000000000000000000000000000000000000REP       United States Representative District 19                OVER VOTES                            PRECINCT 406                                           01 
01050050001000005000000000005000000000000000000REP       United States Representative District 19                UNDER VOTES                           PRECINCT 101                                           01 
01050050002000006000002000004000000000000000000REP       United States Representative District 19                UNDER VOTES                           PRECINCT 202                                           01 
01050050003000002000002000000000000000000000000REP       United States Representative District 19                UNDER VOTES                           PRECINCT 303                                           01 
01050050004000040000024000016000000000000000000REP       United States Representative District 19                UNDER VOTES                           PRECINCT 404                                           01 
01050050005000000000000000000000000000000000000REP       United States Representative District 19                UNDER VOTES                           PRECINCT 305                                           01 
01050050006000010000005000005000000000000000000REP       United States Representative District 19                UNDER VOTES                           PRECINCT 406                                           01 
01060010001000006000004000002000000000000000000REP       Governor                                                SECEDE Kilgore                        PRECINCT 101                                           01 
01060010002000001000001000000000000000000000000REP       Governor                                                SECEDE Kilgore                        PRECINCT 202                                           01 
01060010003000001000000000001000000000000000000REP       Governor                                                SECEDE Kilgore                        PRECINCT 303                                           01 
01060010004000008000007000001000000000000000000REP       Governor                                                SECEDE Kilgore                        PRECINCT 404                                           01 
01060010005000001000000000001000000000000000000REP       Governor                                                SECEDE Kilgore                        PRECINCT 305                                           01 
01060010006000002000001000001000000000000000000REP       Governor                                                SECEDE Kilgore                        PRECINCT 406                                           01 
01060020001000005000001000004000000000000000000REP       Governor                                                Lisa Fritsch                          PRECINCT 101                                           01 
01060020002000007000005000002000000000000000000REP       Governor                                                Lisa Fritsch                          PRECINCT 202                                           01 
01060020003000006000003000003000000000000000000REP       Governor                                                Lisa Fritsch                          PRECINCT 303                                           01 
01060020004000013000008000005000000000000000000REP       Governor                                                Lisa Fritsch                          PRECINCT 404                                           01 
01060020005000000000000000000000000000000000000REP       Governor                                                Lisa Fritsch                          PRECINCT 305                                           01 
01060020006000003000002000001000000000000000000REP       Governor                                                Lisa Fritsch                          PRECINCT 406                                           01 
01060030001000007000003000004000000000000000000REP       Governor                                                Miriam Martinez                       PRECINCT 101                                           01 
01060030002000007000003000004000000000000000000REP       Governor                                                Miriam Martinez                       PRECINCT 202                                           01 
01060030003000009000003000006000000000000000000REP       Governor                                                Miriam Martinez                       PRECINCT 303                                           01 
01060030004000051000031000020000000000000000000REP       Governor                                                Miriam Martinez                       PRECINCT 404                                           01 
01060030005000001000001000000000000000000000000REP       Governor                                                Miriam Martinez                       PRECINCT 305                                           01 
01060030006000007000004000003000000000000000000REP       Governor                                                Miriam Martinez                       PRECINCT 406                                           01 
01060040001000146000085000061000000000000000000REP       Governor                                                Greg Abbott                           PRECINCT 101                                           01 
01060040002000134000082000052000000000000000000REP       Governor                                                Greg Abbott                           PRECINCT 202                                           01 
01060040003000100000046000054000000000000000000REP       Governor                                                Greg Abbott                           PRECINCT 303                                           01 
01060040004000260000179000081000000000000000000REP       Governor                                                Greg Abbott                           PRECINCT 404                                           01 
01060040005000025000015000010000000000000000000REP       Governor                                                Greg Abbott                           PRECINCT 305                                           01 
01060040006000065000032000033000000000000000000REP       Governor                                                Greg Abbott                           PRECINCT 406                                           01 
01060050001000000000000000000000000000000000000REP       Governor                                                OVER VOTES                            PRECINCT 101                                           01 
01060050002000000000000000000000000000000000000REP       Governor                                                OVER VOTES                            PRECINCT 202                                           01 
01060050003000000000000000000000000000000000000REP       Governor                                                OVER VOTES                            PRECINCT 303                                           01 
01060050004000000000000000000000000000000000000REP       Governor                                                OVER VOTES                            PRECINCT 404                                           01 
01060050005000000000000000000000000000000000000REP       Governor                                                OVER VOTES                            PRECINCT 305                                           01 
01060050006000000000000000000000000000000000000REP       Governor                                                OVER VOTES                            PRECINCT 406                                           01 
01060060001000003000002000001000000000000000000REP       Governor                                                UNDER VOTES                           PRECINCT 101                                           01 
01060060002000007000003000004000000000000000000REP       Governor                                                UNDER VOTES                           PRECINCT 202                                           01 
01060060003000007000003000004000000000000000000REP       Governor                                                UNDER VOTES                           PRECINCT 303                                           01 
01060060004000057000034000023000000000000000000REP       Governor                                                UNDER VOTES                           PRECINCT 404                                           01 
01060060005000003000003000000000000000000000000REP       Governor                                                UNDER VOTES                           PRECINCT 305                                           01 
01060060006000011000007000004000000000000000000REP       Governor                                                UNDER VOTES                           PRECINCT 406                                           01 
01070010001000017000009000008000000000000000000REP       Lieutenant Governor                                     Jerry Patterson                       PRECINCT 101                                           01 
01070010002000020000008000012000000000000000000REP       Lieutenant Governor                                     Jerry Patterson                       PRECINCT 202                                           01 
01070010003000008000004000004000000000000000000REP       Lieutenant Governor                                     Jerry Patterson                       PRECINCT 303                                           01 
01070010004000040000025000015000000000000000000REP       Lieutenant Governor                                     Jerry Patterson                       PRECINCT 404                                           01 
01070010005000007000004000003000000000000000000REP       Lieutenant Governor                                     Jerry Patterson                       PRECINCT 305                                           01 
01070010006000007000004000003000000000000000000REP       Lieutenant Governor                                     Jerry Patterson                       PRECINCT 406                                           01 
01070020001000068000035000033000000000000000000REP       Lieutenant Governor                                     David Dewhurst                        PRECINCT 101                                           01 
01070020002000042000027000015000000000000000000REP       Lieutenant Governor                                     David Dewhurst                        PRECINCT 202                                           01 
01070020003000029000011000018000000000000000000REP       Lieutenant Governor                                     David Dewhurst                        PRECINCT 303                                           01 
01070020004000100000066000034000000000000000000REP       Lieutenant Governor                                     David Dewhurst                        PRECINCT 404                                           01 
01070020005000010000006000004000000000000000000REP       Lieutenant Governor                                     David Dewhurst                        PRECINCT 305                                           01 
01070020006000037000020000017000000000000000000REP       Lieutenant Governor                                     David Dewhurst                        PRECINCT 406                                           01 
01070030001000028000021000007000000000000000000REP       Lieutenant Governor                                     Todd Staples                          PRECINCT 101                                           01 
01070030002000036000022000014000000000000000000REP       Lieutenant Governor                                     Todd Staples                          PRECINCT 202                                           01 
01070030003000046000022000024000000000000000000REP       Lieutenant Governor                                     Todd Staples                          PRECINCT 303                                           01 
01070030004000105000076000029000000000000000000REP       Lieutenant Governor                                     Todd Staples                          PRECINCT 404                                           01 
01070030005000004000004000000000000000000000000REP       Lieutenant Governor                                     Todd Staples                          PRECINCT 305                                           01 
01070030006000009000005000004000000000000000000REP       Lieutenant Governor                                     Todd Staples                          PRECINCT 406                                           01 
01070040001000048000028000020000000000000000000REP       Lieutenant Governor                                     Dan Patrick                           PRECINCT 101                                           01 
01070040002000050000034000016000000000000000000REP       Lieutenant Governor                                     Dan Patrick                           PRECINCT 202                                           01 
01070040003000032000015000017000000000000000000REP       Lieutenant Governor                                     Dan Patrick                           PRECINCT 303                                           01 
01070040004000082000055000027000000000000000000REP       Lieutenant Governor                                     Dan Patrick                           PRECINCT 404                                           01 
01070040005000005000003000002000000000000000000REP       Lieutenant Governor                                     Dan Patrick                           PRECINCT 305                                           01 
01070040006000022000009000013000000000000000000REP       Lieutenant Governor                                     Dan Patrick                           PRECINCT 406                                           01 
01070050001000001000001000000000000000000000000REP       Lieutenant Governor                                     OVER VOTES                            PRECINCT 101                                           01 
01070050002000000000000000000000000000000000000REP       Lieutenant Governor                                     OVER VOTES                            PRECINCT 202                                           01 
01070050003000000000000000000000000000000000000REP       Lieutenant Governor                                     OVER VOTES                            PRECINCT 303                                           01 
01070050004000000000000000000000000000000000000REP       Lieutenant Governor                                     OVER VOTES                            PRECINCT 404                                           01 
01070050005000000000000000000000000000000000000REP       Lieutenant Governor                                     OVER VOTES                            PRECINCT 305                                           01 
01070050006000000000000000000000000000000000000REP       Lieutenant Governor                                     OVER VOTES                            PRECINCT 406                                           01 
01070060001000005000001000004000000000000000000REP       Lieutenant Governor                                     UNDER VOTES                           PRECINCT 101                                           01 
01070060002000008000003000005000000000000000000REP       Lieutenant Governor                                     UNDER VOTES                           PRECINCT 202                                           01 
01070060003000008000003000005000000000000000000REP       Lieutenant Governor                                     UNDER VOTES                           PRECINCT 303                                           01 
01070060004000062000037000025000000000000000000REP       Lieutenant Governor                                     UNDER VOTES                           PRECINCT 404                                           01 
01070060005000004000002000002000000000000000000REP       Lieutenant Governor                                     UNDER VOTES                           PRECINCT 305                                           01 
01070060006000013000008000005000000000000000000REP       Lieutenant Governor                                     UNDER VOTES                           PRECINCT 406                                           01 
01080010001000048000032000016000000000000000000REP       Attorney General                                        Barry Smitherman                      PRECINCT 101                                           01 
01080010002000045000031000014000000000000000000REP       Attorney General                                        Barry Smitherman                      PRECINCT 202                                           01 
01080010003000014000008000006000000000000000000REP       Attorney General                                        Barry Smitherman                      PRECINCT 303                                           01 
01080010004000056000036000020000000000000000000REP       Attorney General                                        Barry Smitherman                      PRECINCT 404                                           01 
01080010005000002000002000000000000000000000000REP       Attorney General                                        Barry Smitherman                      PRECINCT 305                                           01 
01080010006000024000013000011000000000000000000REP       Attorney General                                        Barry Smitherman                      PRECINCT 406                                           01 
01080020001000062000033000029000000000000000000REP       Attorney General                                        Ken Paxton                            PRECINCT 101                                           01 
01080020002000060000039000021000000000000000000REP       Attorney General                                        Ken Paxton                            PRECINCT 202                                           01 
01080020003000046000017000029000000000000000000REP       Attorney General                                        Ken Paxton                            PRECINCT 303                                           01 
01080020004000132000088000044000000000000000000REP       Attorney General                                        Ken Paxton                            PRECINCT 404                                           01 
01080020005000008000004000004000000000000000000REP       Attorney General                                        Ken Paxton                            PRECINCT 305                                           01 
01080020006000027000014000013000000000000000000REP       Attorney General                                        Ken Paxton                            PRECINCT 406                                           01 
01080030001000046000025000021000000000000000000REP       Attorney General                                        Dan Branch                            PRECINCT 101                                           01 
01080030002000040000021000019000000000000000000REP       Attorney General                                        Dan Branch                            PRECINCT 202                                           01 
01080030003000050000024000026000000000000000000REP       Attorney General                                        Dan Branch                            PRECINCT 303                                           01 
01080030004000120000084000036000000000000000000REP       Attorney General                                        Dan Branch                            PRECINCT 404                                           01 
01080030005000015000010000005000000000000000000REP       Attorney General                                        Dan Branch                            PRECINCT 305                                           01 
01080030006000019000009000010000000000000000000REP       Attorney General                                        Dan Branch                            PRECINCT 406                                           01 
01080040001000000000000000000000000000000000000REP       Attorney General                                        OVER VOTES                            PRECINCT 101                                           01 
01080040002000000000000000000000000000000000000REP       Attorney General                                        OVER VOTES                            PRECINCT 202                                           01 
01080040003000000000000000000000000000000000000REP       Attorney General                                        OVER VOTES                            PRECINCT 303                                           01 
01080040004000000000000000000000000000000000000REP       Attorney General                                        OVER VOTES                            PRECINCT 404                                           01 
01080040005000000000000000000000000000000000000REP       Attorney General                                        OVER VOTES                            PRECINCT 305                                           01 
01080040006000000000000000000000000000000000000REP       Attorney General                                        OVER VOTES                            PRECINCT 406                                           01 
01080050001000011000005000006000000000000000000REP       Attorney General                                        UNDER VOTES                           PRECINCT 101                                           01 
01080050002000011000003000008000000000000000000REP       Attorney General                                        UNDER VOTES                           PRECINCT 202                                           01 
01080050003000013000006000007000000000000000000REP       Attorney General                                        UNDER VOTES                           PRECINCT 303                                           01 
01080050004000081000051000030000000000000000000REP       Attorney General                                        UNDER VOTES                           PRECINCT 404                                           01 
01080050005000005000003000002000000000000000000REP       Attorney General                                        UNDER VOTES                           PRECINCT 305                                           01 
01080050006000018000010000008000000000000000000REP       Attorney General                                        UNDER VOTES                           PRECINCT 406                                           01 
01090010001000052000029000023000000000000000000REP       Comptroller of Public Accounts                          Harvey Hilderbran                     PRECINCT 101                                           01 
01090010002000035000023000012000000000000000000REP       Comptroller of Public Accounts                          Harvey Hilderbran                     PRECINCT 202                                           01 
01090010003000032000016000016000000000000000000REP       Comptroller of Public Accounts                          Harvey Hilderbran                     PRECINCT 303                                           01 
01090010004000068000047000021000000000000000000REP       Comptroller of Public Accounts                          Harvey Hilderbran                     PRECINCT 404                                           01 
01090010005000009000005000004000000000000000000REP       Comptroller of Public Accounts                          Harvey Hilderbran                     PRECINCT 305                                           01 
01090010006000024000014000010000000000000000000REP       Comptroller of Public Accounts                          Harvey Hilderbran                     PRECINCT 406                                           01 
01090020001000077000048000029000000000000000000REP       Comptroller of Public Accounts                          Glenn Hegar                           PRECINCT 101                                           01 
01090020002000082000051000031000000000000000000REP       Comptroller of Public Accounts                          Glenn Hegar                           PRECINCT 202                                           01 
01090020003000052000026000026000000000000000000REP       Comptroller of Public Accounts                          Glenn Hegar                           PRECINCT 303                                           01 
01090020004000122000093000029000000000000000000REP       Comptroller of Public Accounts                          Glenn Hegar                           PRECINCT 404                                           01 
01090020005000006000002000004000000000000000000REP       Comptroller of Public Accounts                          Glenn Hegar                           PRECINCT 305                                           01 
01090020006000025000012000013000000000000000000REP       Comptroller of Public Accounts                          Glenn Hegar                           PRECINCT 406                                           01 
01090030001000006000005000001000000000000000000REP       Comptroller of Public Accounts                          Raul Torres                           PRECINCT 101                                           01 
01090030002000006000003000003000000000000000000REP       Comptroller of Public Accounts                          Raul Torres                           PRECINCT 202                                           01 
01090030003000004000000000004000000000000000000REP       Comptroller of Public Accounts                          Raul Torres                           PRECINCT 303                                           01 
01090030004000050000029000021000000000000000000REP       Comptroller of Public Accounts                          Raul Torres                           PRECINCT 404                                           01 
01090030005000002000002000000000000000000000000REP       Comptroller of Public Accounts                          Raul Torres                           PRECINCT 305                                           01 
01090030006000005000003000002000000000000000000REP       Comptroller of Public Accounts                          Raul Torres                           PRECINCT 406                                           01 
01090040001000014000005000009000000000000000000REP       Comptroller of Public Accounts                          Debra Medina                          PRECINCT 101                                           01 
01090040002000019000013000006000000000000000000REP       Comptroller of Public Accounts                          Debra Medina                          PRECINCT 202                                           01 
01090040003000015000006000009000000000000000000REP       Comptroller of Public Accounts                          Debra Medina                          PRECINCT 303                                           01 
01090040004000056000035000021000000000000000000REP       Comptroller of Public Accounts                          Debra Medina                          PRECINCT 404                                           01 
01090040005000007000006000001000000000000000000REP       Comptroller of Public Accounts                          Debra Medina                          PRECINCT 305                                           01 
01090040006000014000006000008000000000000000000REP       Comptroller of Public Accounts                          Debra Medina                          PRECINCT 406                                           01 
01090050001000000000000000000000000000000000000REP       Comptroller of Public Accounts                          OVER VOTES                            PRECINCT 101                                           01 
01090050002000000000000000000000000000000000000REP       Comptroller of Public Accounts                          OVER VOTES                            PRECINCT 202                                           01 
01090050003000000000000000000000000000000000000REP       Comptroller of Public Accounts                          OVER VOTES                            PRECINCT 303                                           01 
01090050004000000000000000000000000000000000000REP       Comptroller of Public Accounts                          OVER VOTES                            PRECINCT 404                                           01 
01090050005000000000000000000000000000000000000REP       Comptroller of Public Accounts                          OVER VOTES                            PRECINCT 305                                           01 
01090050006000000000000000000000000000000000000REP       Comptroller of Public Accounts                          OVER VOTES                            PRECINCT 406                                           01 
01090060001000018000008000010000000000000000000REP       Comptroller of Public Accounts                          UNDER VOTES                           PRECINCT 101                                           01 
01090060002000014000004000010000000000000000000REP       Comptroller of Public Accounts                          UNDER VOTES                           PRECINCT 202                                           01 
01090060003000020000007000013000000000000000000REP       Comptroller of Public Accounts                          UNDER VOTES                           PRECINCT 303                                           01 
01090060004000093000055000038000000000000000000REP       Comptroller of Public Accounts                          UNDER VOTES                           PRECINCT 404                                           01 
01090060005000006000004000002000000000000000000REP       Comptroller of Public Accounts                          UNDER VOTES                           PRECINCT 305                                           01 
01090060006000020000011000009000000000000000000REP       Comptroller of Public Accounts                          UNDER VOTES                           PRECINCT 406                                           01 
01100010001000123000068000055000000000000000000REP       Commissioner of the General Land Office                 George P. Bush                        PRECINCT 101                                           01 
01100010002000111000064000047000000000000000000REP       Commissioner of the General Land Office                 George P. Bush                        PRECINCT 202                                           01 
01100010003000082000039000043000000000000000000REP       Commissioner of the General Land Office                 George P. Bush                        PRECINCT 303                                           01 
01100010004000243000163000080000000000000000000REP       Commissioner of the General Land Office                 George P. Bush                        PRECINCT 404                                           01 
01100010005000021000013000008000000000000000000REP       Commissioner of the General Land Office                 George P. Bush                        PRECINCT 305                                           01 
01100010006000057000031000026000000000000000000REP       Commissioner of the General Land Office                 George P. Bush                        PRECINCT 406                                           01 
01100020001000040000026000014000000000000000000REP       Commissioner of the General Land Office                 David Watts                           PRECINCT 101                                           01 
01100020002000031000023000008000000000000000000REP       Commissioner of the General Land Office                 David Watts                           PRECINCT 202                                           01 
01100020003000026000005000021000000000000000000REP       Commissioner of the General Land Office                 David Watts                           PRECINCT 303                                           01 
01100020004000073000054000019000000000000000000REP       Commissioner of the General Land Office                 David Watts                           PRECINCT 404                                           01 
01100020005000005000004000001000000000000000000REP       Commissioner of the General Land Office                 David Watts                           PRECINCT 305                                           01 
01100020006000014000006000008000000000000000000REP       Commissioner of the General Land Office                 David Watts                           PRECINCT 406                                           01 
01100030001000000000000000000000000000000000000REP       Commissioner of the General Land Office                 OVER VOTES                            PRECINCT 101                                           01 
01100030002000000000000000000000000000000000000REP       Commissioner of the General Land Office                 OVER VOTES                            PRECINCT 202                                           01 
01100030003000000000000000000000000000000000000REP       Commissioner of the General Land Office                 OVER VOTES                            PRECINCT 303                                           01 
01100030004000000000000000000000000000000000000REP       Commissioner of the General Land Office                 OVER VOTES                            PRECINCT 404                                           01 
01100030005000000000000000000000000000000000000REP       Commissioner of the General Land Office                 OVER VOTES                            PRECINCT 305                                           01 
01100030006000000000000000000000000000000000000REP       Commissioner of the General Land Office                 OVER VOTES                            PRECINCT 406                                           01 
01100040001000004000001000003000000000000000000REP       Commissioner of the General Land Office                 UNDER VOTES                           PRECINCT 101                                           01 
01100040002000014000007000007000000000000000000REP       Commissioner of the General Land Office                 UNDER VOTES                           PRECINCT 202                                           01 
01100040003000015000011000004000000000000000000REP       Commissioner of the General Land Office                 UNDER VOTES                           PRECINCT 303                                           01 
01100040004000073000042000031000000000000000000REP       Commissioner of the General Land Office                 UNDER VOTES                           PRECINCT 404                                           01 
01100040005000004000002000002000000000000000000REP       Commissioner of the General Land Office                 UNDER VOTES                           PRECINCT 305                                           01 
01100040006000017000009000008000000000000000000REP       Commissioner of the General Land Office                 UNDER VOTES                           PRECINCT 406                                           01 
01110010001000028000010000018000000000000000000REP       Commissioner of Agriculture                             J. Allen Carnes                       PRECINCT 101                                           01 
01110010002000023000019000004000000000000000000REP       Commissioner of Agriculture                             J. Allen Carnes                       PRECINCT 202                                           01 
01110010003000024000013000011000000000000000000REP       Commissioner of Agriculture                             J. Allen Carnes                       PRECINCT 303                                           01 
01110010004000065000048000017000000000000000000REP       Commissioner of Agriculture                             J. Allen Carnes                       PRECINCT 404                                           01 
01110010005000003000003000000000000000000000000REP       Commissioner of Agriculture                             J. Allen Carnes                       PRECINCT 305                                           01 
01110010006000012000007000005000000000000000000REP       Commissioner of Agriculture                             J. Allen Carnes                       PRECINCT 406                                           01 
01110020001000011000003000008000000000000000000REP       Commissioner of Agriculture                             Eric Opiela                           PRECINCT 101                                           01 
01110020002000005000003000002000000000000000000REP       Commissioner of Agriculture                             Eric Opiela                           PRECINCT 202                                           01 
01110020003000004000001000003000000000000000000REP       Commissioner of Agriculture                             Eric Opiela                           PRECINCT 303                                           01 
01110020004000032000025000007000000000000000000REP       Commissioner of Agriculture                             Eric Opiela                           PRECINCT 404                                           01 
01110020005000002000002000000000000000000000000REP       Commissioner of Agriculture                             Eric Opiela                           PRECINCT 305                                           01 
01110020006000005000002000003000000000000000000REP       Commissioner of Agriculture                             Eric Opiela                           PRECINCT 406                                           01 
01110030001000049000034000015000000000000000000REP       Commissioner of Agriculture                             Sid Miller                            PRECINCT 101                                           01 
01110030002000052000036000016000000000000000000REP       Commissioner of Agriculture                             Sid Miller                            PRECINCT 202                                           01 
01110030003000032000012000020000000000000000000REP       Commissioner of Agriculture                             Sid Miller                            PRECINCT 303                                           01 
01110030004000070000046000024000000000000000000REP       Commissioner of Agriculture                             Sid Miller                            PRECINCT 404                                           01 
01110030005000003000001000002000000000000000000REP       Commissioner of Agriculture                             Sid Miller                            PRECINCT 305                                           01 
01110030006000015000010000005000000000000000000REP       Commissioner of Agriculture                             Sid Miller                            PRECINCT 406                                           01 
01110040001000040000022000018000000000000000000REP       Commissioner of Agriculture                             Tommy Merritt                         PRECINCT 101                                           01 
01110040002000038000016000022000000000000000000REP       Commissioner of Agriculture                             Tommy Merritt                         PRECINCT 202                                           01 
01110040003000025000011000014000000000000000000REP       Commissioner of Agriculture                             Tommy Merritt                         PRECINCT 303                                           01 
01110040004000072000048000024000000000000000000REP       Commissioner of Agriculture                             Tommy Merritt                         PRECINCT 404                                           01 
01110040005000008000003000005000000000000000000REP       Commissioner of Agriculture                             Tommy Merritt                         PRECINCT 305                                           01 
01110040006000023000008000015000000000000000000REP       Commissioner of Agriculture                             Tommy Merritt                         PRECINCT 406                                           01 
01110050001000021000016000005000000000000000000REP       Commissioner of Agriculture                             Joe Cotten                            PRECINCT 101                                           01 
01110050002000018000012000006000000000000000000REP       Commissioner of Agriculture                             Joe Cotten                            PRECINCT 202                                           01 
01110050003000012000007000005000000000000000000REP       Commissioner of Agriculture                             Joe Cotten                            PRECINCT 303                                           01 
01110050004000046000030000016000000000000000000REP       Commissioner of Agriculture                             Joe Cotten                            PRECINCT 404                                           01 
01110050005000007000006000001000000000000000000REP       Commissioner of Agriculture                             Joe Cotten                            PRECINCT 305                                           01 
01110050006000009000005000004000000000000000000REP       Commissioner of Agriculture                             Joe Cotten                            PRECINCT 406                                           01 
01110060001000000000000000000000000000000000000REP       Commissioner of Agriculture                             OVER VOTES                            PRECINCT 101                                           01 
01110060002000000000000000000000000000000000000REP       Commissioner of Agriculture                             OVER VOTES                            PRECINCT 202                                           01 
01110060003000000000000000000000000000000000000REP       Commissioner of Agriculture                             OVER VOTES                            PRECINCT 303                                           01 
01110060004000000000000000000000000000000000000REP       Commissioner of Agriculture                             OVER VOTES                            PRECINCT 404                                           01 
01110060005000000000000000000000000000000000000REP       Commissioner of Agriculture                             OVER VOTES                            PRECINCT 305                                           01 
01110060006000000000000000000000000000000000000REP       Commissioner of Agriculture                             OVER VOTES                            PRECINCT 406                                           01 
01110070001000018000010000008000000000000000000REP       Commissioner of Agriculture                             UNDER VOTES                           PRECINCT 101                                           01 
01110070002000020000008000012000000000000000000REP       Commissioner of Agriculture                             UNDER VOTES                           PRECINCT 202                                           01 
01110070003000026000011000015000000000000000000REP       Commissioner of Agriculture                             UNDER VOTES                           PRECINCT 303                                           01 
01110070004000104000062000042000000000000000000REP       Commissioner of Agriculture                             UNDER VOTES                           PRECINCT 404                                           01 
01110070005000007000004000003000000000000000000REP       Commissioner of Agriculture                             UNDER VOTES                           PRECINCT 305                                           01 
01110070006000024000014000010000000000000000000REP       Commissioner of Agriculture                             UNDER VOTES                           PRECINCT 406                                           01 
01120010001000059000031000028000000000000000000REP       Railroad Commissioner                                   Wayne Christian                       PRECINCT 101                                           01 
01120010002000055000034000021000000000000000000REP       Railroad Commissioner                                   Wayne Christian                       PRECINCT 202                                           01 
01120010003000045000018000027000000000000000000REP       Railroad Commissioner                                   Wayne Christian                       PRECINCT 303                                           01 
01120010004000127000087000040000000000000000000REP       Railroad Commissioner                                   Wayne Christian                       PRECINCT 404                                           01 
01120010005000014000010000004000000000000000000REP       Railroad Commissioner                                   Wayne Christian                       PRECINCT 305                                           01 
01120010006000027000012000015000000000000000000REP       Railroad Commissioner                                   Wayne Christian                       PRECINCT 406                                           01 
01120020001000011000006000005000000000000000000REP       Railroad Commissioner                                   Malachi Boyuls                        PRECINCT 101                                           01 
01120020002000012000010000002000000000000000000REP       Railroad Commissioner                                   Malachi Boyuls                        PRECINCT 202                                           01 
01120020003000006000003000003000000000000000000REP       Railroad Commissioner                                   Malachi Boyuls                        PRECINCT 303                                           01 
01120020004000036000021000015000000000000000000REP       Railroad Commissioner                                   Malachi Boyuls                        PRECINCT 404                                           01 
01120020005000000000000000000000000000000000000REP       Railroad Commissioner                                   Malachi Boyuls                        PRECINCT 305                                           01 
01120020006000008000004000004000000000000000000REP       Railroad Commissioner                                   Malachi Boyuls                        PRECINCT 406                                           01 
01120030001000063000039000024000000000000000000REP       Railroad Commissioner                                   Ryan Sitton                           PRECINCT 101                                           01 
01120030002000051000032000019000000000000000000REP       Railroad Commissioner                                   Ryan Sitton                           PRECINCT 202                                           01 
01120030003000031000016000015000000000000000000REP       Railroad Commissioner                                   Ryan Sitton                           PRECINCT 303                                           01 
01120030004000070000049000021000000000000000000REP       Railroad Commissioner                                   Ryan Sitton                           PRECINCT 404                                           01 
01120030005000004000001000003000000000000000000REP       Railroad Commissioner                                   Ryan Sitton                           PRECINCT 305                                           01 
01120030006000020000012000008000000000000000000REP       Railroad Commissioner                                   Ryan Sitton                           PRECINCT 406                                           01 
01120040001000016000011000005000000000000000000REP       Railroad Commissioner                                   Becky Berger                          PRECINCT 101                                           01 
01120040002000017000011000006000000000000000000REP       Railroad Commissioner                                   Becky Berger                          PRECINCT 202                                           01 
01120040003000015000006000009000000000000000000REP       Railroad Commissioner                                   Becky Berger                          PRECINCT 303                                           01 
01120040004000046000032000014000000000000000000REP       Railroad Commissioner                                   Becky Berger                          PRECINCT 404                                           01 
01120040005000006000004000002000000000000000000REP       Railroad Commissioner                                   Becky Berger                          PRECINCT 305                                           01 
01120040006000012000005000007000000000000000000REP       Railroad Commissioner                                   Becky Berger                          PRECINCT 406                                           01 
01120050001000000000000000000000000000000000000REP       Railroad Commissioner                                   OVER VOTES                            PRECINCT 101                                           01 
01120050002000000000000000000000000000000000000REP       Railroad Commissioner                                   OVER VOTES                            PRECINCT 202                                           01 
01120050003000000000000000000000000000000000000REP       Railroad Commissioner                                   OVER VOTES                            PRECINCT 303                                           01 
01120050004000000000000000000000000000000000000REP       Railroad Commissioner                                   OVER VOTES                            PRECINCT 404                                           01 
01120050005000000000000000000000000000000000000REP       Railroad Commissioner                                   OVER VOTES                            PRECINCT 305                                           01 
01120050006000000000000000000000000000000000000REP       Railroad Commissioner                                   OVER VOTES                            PRECINCT 406                                           01 
01120060001000018000008000010000000000000000000REP       Railroad Commissioner                                   UNDER VOTES                           PRECINCT 101                                           01 
01120060002000021000007000014000000000000000000REP       Railroad Commissioner                                   UNDER VOTES                           PRECINCT 202                                           01 
01120060003000026000012000014000000000000000000REP       Railroad Commissioner                                   UNDER VOTES                           PRECINCT 303                                           01 
01120060004000110000070000040000000000000000000REP       Railroad Commissioner                                   UNDER VOTES                           PRECINCT 404                                           01 
01120060005000006000004000002000000000000000000REP       Railroad Commissioner                                   UNDER VOTES                           PRECINCT 305                                           01 
01120060006000021000013000008000000000000000000REP       Railroad Commissioner                                   UNDER VOTES                           PRECINCT 406                                           01 
01130010001000091000048000043000000000000000000REP       Chief Justice, Supreme Court                            Nathan Hecht                          PRECINCT 101                                           01 
01130010002000089000055000034000000000000000000REP       Chief Justice, Supreme Court                            Nathan Hecht                          PRECINCT 202                                           01 
01130010003000055000028000027000000000000000000REP       Chief Justice, Supreme Court                            Nathan Hecht                          PRECINCT 303                                           01 
01130010004000158000111000047000000000000000000REP       Chief Justice, Supreme Court                            Nathan Hecht                          PRECINCT 404                                           01 
01130010005000012000007000005000000000000000000REP       Chief Justice, Supreme Court                            Nathan Hecht                          PRECINCT 305                                           01 
01130010006000044000018000026000000000000000000REP       Chief Justice, Supreme Court                            Nathan Hecht                          PRECINCT 406                                           01 
01130020001000056000034000022000000000000000000REP       Chief Justice, Supreme Court                            Robert Talton                         PRECINCT 101                                           01 
01130020002000049000032000017000000000000000000REP       Chief Justice, Supreme Court                            Robert Talton                         PRECINCT 202                                           01 
01130020003000039000015000024000000000000000000REP       Chief Justice, Supreme Court                            Robert Talton                         PRECINCT 303                                           01 
01130020004000118000077000041000000000000000000REP       Chief Justice, Supreme Court                            Robert Talton                         PRECINCT 404                                           01 
01130020005000011000008000003000000000000000000REP       Chief Justice, Supreme Court                            Robert Talton                         PRECINCT 305                                           01 
01130020006000022000016000006000000000000000000REP       Chief Justice, Supreme Court                            Robert Talton                         PRECINCT 406                                           01 
01130030001000001000001000000000000000000000000REP       Chief Justice, Supreme Court                            OVER VOTES                            PRECINCT 101                                           01 
01130030002000000000000000000000000000000000000REP       Chief Justice, Supreme Court                            OVER VOTES                            PRECINCT 202                                           01 
01130030003000000000000000000000000000000000000REP       Chief Justice, Supreme Court                            OVER VOTES                            PRECINCT 303                                           01 
01130030004000000000000000000000000000000000000REP       Chief Justice, Supreme Court                            OVER VOTES                            PRECINCT 404                                           01 
01130030005000000000000000000000000000000000000REP       Chief Justice, Supreme Court                            OVER VOTES                            PRECINCT 305                                           01 
01130030006000000000000000000000000000000000000REP       Chief Justice, Supreme Court                            OVER VOTES                            PRECINCT 406                                           01 
01130040001000019000012000007000000000000000000REP       Chief Justice, Supreme Court                            UNDER VOTES                           PRECINCT 101                                           01 
01130040002000018000007000011000000000000000000REP       Chief Justice, Supreme Court                            UNDER VOTES                           PRECINCT 202                                           01 
01130040003000029000012000017000000000000000000REP       Chief Justice, Supreme Court                            UNDER VOTES                           PRECINCT 303                                           01 
01130040004000113000071000042000000000000000000REP       Chief Justice, Supreme Court                            UNDER VOTES                           PRECINCT 404                                           01 
01130040005000007000004000003000000000000000000REP       Chief Justice, Supreme Court                            UNDER VOTES                           PRECINCT 305                                           01 
01130040006000022000012000010000000000000000000REP       Chief Justice, Supreme Court                            UNDER VOTES                           PRECINCT 406                                           01 
01140010001000027000015000012000000000000000000REP       Justice, Supreme Court, Pl 6, Unexpired                 Joe Pool                              PRECINCT 101                                           01 
01140010002000026000012000014000000000000000000REP       Justice, Supreme Court, Pl 6, Unexpired                 Joe Pool                              PRECINCT 202                                           01 
01140010003000020000007000013000000000000000000REP       Justice, Supreme Court, Pl 6, Unexpired                 Joe Pool                              PRECINCT 303                                           01 
01140010004000078000051000027000000000000000000REP       Justice, Supreme Court, Pl 6, Unexpired                 Joe Pool                              PRECINCT 404                                           01 
01140010005000007000003000004000000000000000000REP       Justice, Supreme Court, Pl 6, Unexpired                 Joe Pool                              PRECINCT 305                                           01 
01140010006000008000003000005000000000000000000REP       Justice, Supreme Court, Pl 6, Unexpired                 Joe Pool                              PRECINCT 406                                           01 
01140020001000117000068000049000000000000000000REP       Justice, Supreme Court, Pl 6, Unexpired                 Jeff Brown                            PRECINCT 101                                           01 
01140020002000106000074000032000000000000000000REP       Justice, Supreme Court, Pl 6, Unexpired                 Jeff Brown                            PRECINCT 202                                           01 
01140020003000069000032000037000000000000000000REP       Justice, Supreme Court, Pl 6, Unexpired                 Jeff Brown                            PRECINCT 303                                           01 
01140020004000185000125000060000000000000000000REP       Justice, Supreme Court, Pl 6, Unexpired                 Jeff Brown                            PRECINCT 404                                           01 
01140020005000016000012000004000000000000000000REP       Justice, Supreme Court, Pl 6, Unexpired                 Jeff Brown                            PRECINCT 305                                           01 
01140020006000054000031000023000000000000000000REP       Justice, Supreme Court, Pl 6, Unexpired                 Jeff Brown                            PRECINCT 406                                           01 
01140030001000000000000000000000000000000000000REP       Justice, Supreme Court, Pl 6, Unexpired                 OVER VOTES                            PRECINCT 101                                           01 
01140030002000000000000000000000000000000000000REP       Justice, Supreme Court, Pl 6, Unexpired                 OVER VOTES                            PRECINCT 202                                           01 
01140030003000000000000000000000000000000000000REP       Justice, Supreme Court, Pl 6, Unexpired                 OVER VOTES                            PRECINCT 303                                           01 
01140030004000000000000000000000000000000000000REP       Justice, Supreme Court, Pl 6, Unexpired                 OVER VOTES                            PRECINCT 404                                           01 
01140030005000000000000000000000000000000000000REP       Justice, Supreme Court, Pl 6, Unexpired                 OVER VOTES                            PRECINCT 305                                           01 
01140030006000000000000000000000000000000000000REP       Justice, Supreme Court, Pl 6, Unexpired                 OVER VOTES                            PRECINCT 406                                           01 
01140040001000023000012000011000000000000000000REP       Justice, Supreme Court, Pl 6, Unexpired                 UNDER VOTES                           PRECINCT 101                                           01 
01140040002000024000008000016000000000000000000REP       Justice, Supreme Court, Pl 6, Unexpired                 UNDER VOTES                           PRECINCT 202                                           01 
01140040003000034000016000018000000000000000000REP       Justice, Supreme Court, Pl 6, Unexpired                 UNDER VOTES                           PRECINCT 303                                           01 
01140040004000126000083000043000000000000000000REP       Justice, Supreme Court, Pl 6, Unexpired                 UNDER VOTES                           PRECINCT 404                                           01 
01140040005000007000004000003000000000000000000REP       Justice, Supreme Court, Pl 6, Unexpired                 UNDER VOTES                           PRECINCT 305                                           01 
01140040006000026000012000014000000000000000000REP       Justice, Supreme Court, Pl 6, Unexpired                 UNDER VOTES                           PRECINCT 406                                           01 
01150010001000122000069000053000000000000000000REP       Justice, Supreme Court, Place 7                         Jeff Boyd                             PRECINCT 101                                           01 
01150010002000109000068000041000000000000000000REP       Justice, Supreme Court, Place 7                         Jeff Boyd                             PRECINCT 202                                           01 
01150010003000075000029000046000000000000000000REP       Justice, Supreme Court, Place 7                         Jeff Boyd                             PRECINCT 303                                           01 
01150010004000220000143000077000000000000000000REP       Justice, Supreme Court, Place 7                         Jeff Boyd                             PRECINCT 404                                           01 
01150010005000021000013000008000000000000000000REP       Justice, Supreme Court, Place 7                         Jeff Boyd                             PRECINCT 305                                           01 
01150010006000051000027000024000000000000000000REP       Justice, Supreme Court, Place 7                         Jeff Boyd                             PRECINCT 406                                           01 
01150020001000000000000000000000000000000000000REP       Justice, Supreme Court, Place 7                         OVER VOTES                            PRECINCT 101                                           01 
01150020002000000000000000000000000000000000000REP       Justice, Supreme Court, Place 7                         OVER VOTES                            PRECINCT 202                                           01 
01150020003000000000000000000000000000000000000REP       Justice, Supreme Court, Place 7                         OVER VOTES                            PRECINCT 303                                           01 
01150020004000000000000000000000000000000000000REP       Justice, Supreme Court, Place 7                         OVER VOTES                            PRECINCT 404                                           01 
01150020005000000000000000000000000000000000000REP       Justice, Supreme Court, Place 7                         OVER VOTES                            PRECINCT 305                                           01 
01150020006000000000000000000000000000000000000REP       Justice, Supreme Court, Place 7                         OVER VOTES                            PRECINCT 406                                           01 
01150030001000045000026000019000000000000000000REP       Justice, Supreme Court, Place 7                         UNDER VOTES                           PRECINCT 101                                           01 
01150030002000047000026000021000000000000000000REP       Justice, Supreme Court, Place 7                         UNDER VOTES                           PRECINCT 202                                           01 
01150030003000048000026000022000000000000000000REP       Justice, Supreme Court, Place 7                         UNDER VOTES                           PRECINCT 303                                           01 
01150030004000169000116000053000000000000000000REP       Justice, Supreme Court, Place 7                         UNDER VOTES                           PRECINCT 404                                           01 
01150030005000009000006000003000000000000000000REP       Justice, Supreme Court, Place 7                         UNDER VOTES                           PRECINCT 305                                           01 
01150030006000037000019000018000000000000000000REP       Justice, Supreme Court, Place 7                         UNDER VOTES                           PRECINCT 406                                           01 
01160010001000116000067000049000000000000000000REP       Justice, Supreme Court, Place 8                         Phil Johnson                          PRECINCT 101                                           01 
01160010002000105000067000038000000000000000000REP       Justice, Supreme Court, Place 8                         Phil Johnson                          PRECINCT 202                                           01 
01160010003000071000034000037000000000000000000REP       Justice, Supreme Court, Place 8                         Phil Johnson                          PRECINCT 303                                           01 
01160010004000171000122000049000000000000000000REP       Justice, Supreme Court, Place 8                         Phil Johnson                          PRECINCT 404                                           01 
01160010005000019000011000008000000000000000000REP       Justice, Supreme Court, Place 8                         Phil Johnson                          PRECINCT 305                                           01 
01160010006000039000020000019000000000000000000REP       Justice, Supreme Court, Place 8                         Phil Johnson                          PRECINCT 406                                           01 
01160020001000032000020000012000000000000000000REP       Justice, Supreme Court, Place 8                         Sharon McCally                        PRECINCT 101                                           01 
01160020002000029000018000011000000000000000000REP       Justice, Supreme Court, Place 8                         Sharon McCally                        PRECINCT 202                                           01 
01160020003000025000008000017000000000000000000REP       Justice, Supreme Court, Place 8                         Sharon McCally                        PRECINCT 303                                           01 
01160020004000098000061000037000000000000000000REP       Justice, Supreme Court, Place 8                         Sharon McCally                        PRECINCT 404                                           01 
01160020005000005000004000001000000000000000000REP       Justice, Supreme Court, Place 8                         Sharon McCally                        PRECINCT 305                                           01 
01160020006000028000016000012000000000000000000REP       Justice, Supreme Court, Place 8                         Sharon McCally                        PRECINCT 406                                           01 
01160030001000000000000000000000000000000000000REP       Justice, Supreme Court, Place 8                         OVER VOTES                            PRECINCT 101                                           01 
01160030002000000000000000000000000000000000000REP       Justice, Supreme Court, Place 8                         OVER VOTES                            PRECINCT 202                                           01 
01160030003000000000000000000000000000000000000REP       Justice, Supreme Court, Place 8                         OVER VOTES                            PRECINCT 303                                           01 
01160030004000000000000000000000000000000000000REP       Justice, Supreme Court, Place 8                         OVER VOTES                            PRECINCT 404                                           01 
01160030005000000000000000000000000000000000000REP       Justice, Supreme Court, Place 8                         OVER VOTES                            PRECINCT 305                                           01 
01160030006000000000000000000000000000000000000REP       Justice, Supreme Court, Place 8                         OVER VOTES                            PRECINCT 406                                           01 
01160040001000019000008000011000000000000000000REP       Justice, Supreme Court, Place 8                         UNDER VOTES                           PRECINCT 101                                           01 
01160040002000022000009000013000000000000000000REP       Justice, Supreme Court, Place 8                         UNDER VOTES                           PRECINCT 202                                           01 
01160040003000027000013000014000000000000000000REP       Justice, Supreme Court, Place 8                         UNDER VOTES                           PRECINCT 303                                           01 
01160040004000120000076000044000000000000000000REP       Justice, Supreme Court, Place 8                         UNDER VOTES                           PRECINCT 404                                           01 
01160040005000006000004000002000000000000000000REP       Justice, Supreme Court, Place 8                         UNDER VOTES                           PRECINCT 305                                           01 
01160040006000021000010000011000000000000000000REP       Justice, Supreme Court, Place 8                         UNDER VOTES                           PRECINCT 406                                           01 
01170010001000103000057000046000000000000000000REP       Judge, Court of Criminal Appeals, Pl 3                  Bert Richardson                       PRECINCT 101                                           01 
01170010002000087000054000033000000000000000000REP       Judge, Court of Criminal Appeals, Pl 3                  Bert Richardson                       PRECINCT 202                                           01 
01170010003000065000027000038000000000000000000REP       Judge, Court of Criminal Appeals, Pl 3                  Bert Richardson                       PRECINCT 303                                           01 
01170010004000163000110000053000000000000000000REP       Judge, Court of Criminal Appeals, Pl 3                  Bert Richardson                       PRECINCT 404                                           01 
01170010005000014000009000005000000000000000000REP       Judge, Court of Criminal Appeals, Pl 3                  Bert Richardson                       PRECINCT 305                                           01 
01170010006000037000020000017000000000000000000REP       Judge, Court of Criminal Appeals, Pl 3                  Bert Richardson                       PRECINCT 406                                           01 
01170020001000039000024000015000000000000000000REP       Judge, Court of Criminal Appeals, Pl 3                  Barbara Walther                       PRECINCT 101                                           01 
01170020002000040000026000014000000000000000000REP       Judge, Court of Criminal Appeals, Pl 3                  Barbara Walther                       PRECINCT 202                                           01 
01170020003000026000012000014000000000000000000REP       Judge, Court of Criminal Appeals, Pl 3                  Barbara Walther                       PRECINCT 303                                           01 
01170020004000098000066000032000000000000000000REP       Judge, Court of Criminal Appeals, Pl 3                  Barbara Walther                       PRECINCT 404                                           01 
01170020005000007000005000002000000000000000000REP       Judge, Court of Criminal Appeals, Pl 3                  Barbara Walther                       PRECINCT 305                                           01 
01170020006000028000015000013000000000000000000REP       Judge, Court of Criminal Appeals, Pl 3                  Barbara Walther                       PRECINCT 406                                           01 
01170030001000000000000000000000000000000000000REP       Judge, Court of Criminal Appeals, Pl 3                  OVER VOTES                            PRECINCT 101                                           01 
01170030002000000000000000000000000000000000000REP       Judge, Court of Criminal Appeals, Pl 3                  OVER VOTES                            PRECINCT 202                                           01 
01170030003000000000000000000000000000000000000REP       Judge, Court of Criminal Appeals, Pl 3                  OVER VOTES                            PRECINCT 303                                           01 
01170030004000000000000000000000000000000000000REP       Judge, Court of Criminal Appeals, Pl 3                  OVER VOTES                            PRECINCT 404                                           01 
01170030005000000000000000000000000000000000000REP       Judge, Court of Criminal Appeals, Pl 3                  OVER VOTES                            PRECINCT 305                                           01 
01170030006000000000000000000000000000000000000REP       Judge, Court of Criminal Appeals, Pl 3                  OVER VOTES                            PRECINCT 406                                           01 
01170040001000025000014000011000000000000000000REP       Judge, Court of Criminal Appeals, Pl 3                  UNDER VOTES                           PRECINCT 101                                           01 
01170040002000029000014000015000000000000000000REP       Judge, Court of Criminal Appeals, Pl 3                  UNDER VOTES                           PRECINCT 202                                           01 
01170040003000032000016000016000000000000000000REP       Judge, Court of Criminal Appeals, Pl 3                  UNDER VOTES                           PRECINCT 303                                           01 
01170040004000128000083000045000000000000000000REP       Judge, Court of Criminal Appeals, Pl 3                  UNDER VOTES                           PRECINCT 404                                           01 
01170040005000009000005000004000000000000000000REP       Judge, Court of Criminal Appeals, Pl 3                  UNDER VOTES                           PRECINCT 305                                           01 
01170040006000023000011000012000000000000000000REP       Judge, Court of Criminal Appeals, Pl 3                  UNDER VOTES                           PRECINCT 406                                           01 
01180010001000025000012000013000000000000000000REP       Judge, Court of Criminal Appeals, Pl 4                  Jani Jo Wood                          PRECINCT 101                                           01 
01180010002000025000016000009000000000000000000REP       Judge, Court of Criminal Appeals, Pl 4                  Jani Jo Wood                          PRECINCT 202                                           01 
01180010003000019000013000006000000000000000000REP       Judge, Court of Criminal Appeals, Pl 4                  Jani Jo Wood                          PRECINCT 303                                           01 
01180010004000070000043000027000000000000000000REP       Judge, Court of Criminal Appeals, Pl 4                  Jani Jo Wood                          PRECINCT 404                                           01 
01180010005000006000003000003000000000000000000REP       Judge, Court of Criminal Appeals, Pl 4                  Jani Jo Wood                          PRECINCT 305                                           01 
01180010006000020000012000008000000000000000000REP       Judge, Court of Criminal Appeals, Pl 4                  Jani Jo Wood                          PRECINCT 406                                           01 
01180020001000067000037000030000000000000000000REP       Judge, Court of Criminal Appeals, Pl 4                  Richard Dean Davis                    PRECINCT 101                                           01 
01180020002000058000039000019000000000000000000REP       Judge, Court of Criminal Appeals, Pl 4                  Richard Dean Davis                    PRECINCT 202                                           01 
01180020003000033000013000020000000000000000000REP       Judge, Court of Criminal Appeals, Pl 4                  Richard Dean Davis                    PRECINCT 303                                           01 
01180020004000129000087000042000000000000000000REP       Judge, Court of Criminal Appeals, Pl 4                  Richard Dean Davis                    PRECINCT 404                                           01 
01180020005000009000006000003000000000000000000REP       Judge, Court of Criminal Appeals, Pl 4                  Richard Dean Davis                    PRECINCT 305                                           01 
