01010010001000948          REGISTERED VOTERS - TOTAL                               REGISTERED VOTERS - TOTAL             PRECINCT 101                                           00 
01010010002002967          REGISTERED VOTERS - TOTAL                               REGISTERED VOTERS - TOTAL             PRECINCT 102                                           00 
01010010003001496          REGISTERED VOTERS - TOTAL                               REGISTERED VOTERS - TOTAL             PRECINCT 103                                           00 
01010010004001707          REGISTERED VOTERS - TOTAL                               REGISTERED VOTERS - TOTAL             PRECINCT 104                                           00 
01010010005002848          REGISTERED VOTERS - TOTAL                               REGISTERED VOTERS - TOTAL             PRECINCT 201                                           00 
01010010006000514          REGISTERED VOTERS - TOTAL                               REGISTERED VOTERS - TOTAL             PRECINCT 203                                           00 
01010010007002223          REGISTERED VOTERS - TOTAL                               REGISTERED VOTERS - TOTAL             PRECINCT 204                                           00 
01010010008002302          REGISTERED VOTERS - TOTAL                               REGISTERED VOTERS - TOTAL             PRECINCT 205                                           00 
01010010009000727          REGISTERED VOTERS - TOTAL                               REGISTERED VOTERS - TOTAL             PRECINCT 206                                           00 
01010010010002218          REGISTERED VOTERS - TOTAL                               REGISTERED VOTERS - TOTAL             PRECINCT 301                                           00 
01010010011000362          REGISTERED VOTERS - TOTAL                               REGISTERED VOTERS - TOTAL             PRECINCT 302                                           00 
01010010012000652          REGISTERED VOTERS - TOTAL                               REGISTERED VOTERS - TOTAL             PRECINCT 303                                           00 
01010010013003229          REGISTERED VOTERS - TOTAL                               REGISTERED VOTERS - TOTAL             PRECINCT 304                                           00 
01010010014000185          REGISTERED VOTERS - TOTAL                               REGISTERED VOTERS - TOTAL             PRECINCT 305                                           00 
01010010015002666          REGISTERED VOTERS - TOTAL                               REGISTERED VOTERS - TOTAL             PRECINCT 401                                           00 
01010010016000474          REGISTERED VOTERS - TOTAL                               REGISTERED VOTERS - TOTAL             PRECINCT 402                                           00 
01010010017000918          REGISTERED VOTERS - TOTAL                               REGISTERED VOTERS - TOTAL             PRECINCT 403                                           00 
01010010018003147          REGISTERED VOTERS - TOTAL                               REGISTERED VOTERS - TOTAL             PRECINCT 404                                           00 
01020010001000000REP       REGISTERED VOTERS - REPUBLICAN PARTY                    REGISTERED VOTERS - REPUBLICAN PARTY  PRECINCT 101                                           00 
01020010002000000REP       REGISTERED VOTERS - REPUBLICAN PARTY                    REGISTERED VOTERS - REPUBLICAN PARTY  PRECINCT 102                                           00 
01020010003000000REP       REGISTERED VOTERS - REPUBLICAN PARTY                    REGISTERED VOTERS - REPUBLICAN PARTY  PRECINCT 103                                           00 
01020010004000000REP       REGISTERED VOTERS - REPUBLICAN PARTY                    REGISTERED VOTERS - REPUBLICAN PARTY  PRECINCT 104                                           00 
01020010005000000REP       REGISTERED VOTERS - REPUBLICAN PARTY                    REGISTERED VOTERS - REPUBLICAN PARTY  PRECINCT 201                                           00 
01020010006000000REP       REGISTERED VOTERS - REPUBLICAN PARTY                    REGISTERED VOTERS - REPUBLICAN PARTY  PRECINCT 203                                           00 
01020010007000000REP       REGISTERED VOTERS - REPUBLICAN PARTY                    REGISTERED VOTERS - REPUBLICAN PARTY  PRECINCT 204                                           00 
01020010008000000REP       REGISTERED VOTERS - REPUBLICAN PARTY                    REGISTERED VOTERS - REPUBLICAN PARTY  PRECINCT 205                                           00 
01020010009000000REP       REGISTERED VOTERS - REPUBLICAN PARTY                    REGISTERED VOTERS - REPUBLICAN PARTY  PRECINCT 206                                           00 
01020010010000000REP       REGISTERED VOTERS - REPUBLICAN PARTY                    REGISTERED VOTERS - REPUBLICAN PARTY  PRECINCT 301                                           00 
01020010011000000REP       REGISTERED VOTERS - REPUBLICAN PARTY                    REGISTERED VOTERS - REPUBLICAN PARTY  PRECINCT 302                                           00 
01020010012000000REP       REGISTERED VOTERS - REPUBLICAN PARTY                    REGISTERED VOTERS - REPUBLICAN PARTY  PRECINCT 303                                           00 
01020010013000000REP       REGISTERED VOTERS - REPUBLICAN PARTY                    REGISTERED VOTERS - REPUBLICAN PARTY  PRECINCT 304                                           00 
01020010014000000REP       REGISTERED VOTERS - REPUBLICAN PARTY                    REGISTERED VOTERS - REPUBLICAN PARTY  PRECINCT 305                                           00 
01020010015000000REP       REGISTERED VOTERS - REPUBLICAN PARTY                    REGISTERED VOTERS - REPUBLICAN PARTY  PRECINCT 401                                           00 
01020010016000000REP       REGISTERED VOTERS - REPUBLICAN PARTY                    REGISTERED VOTERS - REPUBLICAN PARTY  PRECINCT 402                                           00 
01020010017000000REP       REGISTERED VOTERS - REPUBLICAN PARTY                    REGISTERED VOTERS - REPUBLICAN PARTY  PRECINCT 403                                           00 
01020010018000000REP       REGISTERED VOTERS - REPUBLICAN PARTY                    REGISTERED VOTERS - REPUBLICAN PARTY  PRECINCT 404                                           00 
01040010001000082          BALLOTS CAST - TOTAL                                    BALLOTS CAST - TOTAL                  PRECINCT 101                                           00 
01040010002000476          BALLOTS CAST - TOTAL                                    BALLOTS CAST - TOTAL                  PRECINCT 102                                           00 
01040010003000355          BALLOTS CAST - TOTAL                                    BALLOTS CAST - TOTAL                  PRECINCT 103                                           00 
01040010004000364          BALLOTS CAST - TOTAL                                    BALLOTS CAST - TOTAL                  PRECINCT 104                                           00 
01040010005000498          BALLOTS CAST - TOTAL                                    BALLOTS CAST - TOTAL                  PRECINCT 201                                           00 
01040010006000109          BALLOTS CAST - TOTAL                                    BALLOTS CAST - TOTAL                  PRECINCT 203                                           00 
01040010007000601          BALLOTS CAST - TOTAL                                    BALLOTS CAST - TOTAL                  PRECINCT 204                                           00 
01040010008001036          BALLOTS CAST - TOTAL                                    BALLOTS CAST - TOTAL                  PRECINCT 205                                           00 
01040010009000182          BALLOTS CAST - TOTAL                                    BALLOTS CAST - TOTAL                  PRECINCT 206                                           00 
01040010010000258          BALLOTS CAST - TOTAL                                    BALLOTS CAST - TOTAL                  PRECINCT 301                                           00 
01040010011000105          BALLOTS CAST - TOTAL                                    BALLOTS CAST - TOTAL                  PRECINCT 302                                           00 
01040010012000150          BALLOTS CAST - TOTAL                                    BALLOTS CAST - TOTAL                  PRECINCT 303                                           00 
01040010013000731          BALLOTS CAST - TOTAL                                    BALLOTS CAST - TOTAL                  PRECINCT 304                                           00 
01040010014000037          BALLOTS CAST - TOTAL                                    BALLOTS CAST - TOTAL                  PRECINCT 305                                           00 
01040010015000226          BALLOTS CAST - TOTAL                                    BALLOTS CAST - TOTAL                  PRECINCT 401                                           00 
01040010016000127          BALLOTS CAST - TOTAL                                    BALLOTS CAST - TOTAL                  PRECINCT 402                                           00 
01040010017000194          BALLOTS CAST - TOTAL                                    BALLOTS CAST - TOTAL                  PRECINCT 403                                           00 
01040010018000871          BALLOTS CAST - TOTAL                                    BALLOTS CAST - TOTAL                  PRECINCT 404                                           00 
01050010001000054REP       BALLOTS CAST - REPUBLICAN PARTY                         BALLOTS CAST - REPUBLICAN PARTY       PRECINCT 101                                           00 
01050010002000400REP       BALLOTS CAST - REPUBLICAN PARTY                         BALLOTS CAST - REPUBLICAN PARTY       PRECINCT 102                                           00 
01050010003000304REP       BALLOTS CAST - REPUBLICAN PARTY                         BALLOTS CAST - REPUBLICAN PARTY       PRECINCT 103                                           00 
01050010004000340REP       BALLOTS CAST - REPUBLICAN PARTY                         BALLOTS CAST - REPUBLICAN PARTY       PRECINCT 104                                           00 
01050010005000417REP       BALLOTS CAST - REPUBLICAN PARTY                         BALLOTS CAST - REPUBLICAN PARTY       PRECINCT 201                                           00 
01050010006000099REP       BALLOTS CAST - REPUBLICAN PARTY                         BALLOTS CAST - REPUBLICAN PARTY       PRECINCT 203                                           00 
01050010007000532REP       BALLOTS CAST - REPUBLICAN PARTY                         BALLOTS CAST - REPUBLICAN PARTY       PRECINCT 204                                           00 
01050010008000976REP       BALLOTS CAST - REPUBLICAN PARTY                         BALLOTS CAST - REPUBLICAN PARTY       PRECINCT 205                                           00 
01050010009000152REP       BALLOTS CAST - REPUBLICAN PARTY                         BALLOTS CAST - REPUBLICAN PARTY       PRECINCT 206                                           00 
01050010010000190REP       BALLOTS CAST - REPUBLICAN PARTY                         BALLOTS CAST - REPUBLICAN PARTY       PRECINCT 301                                           00 
01050010011000101REP       BALLOTS CAST - REPUBLICAN PARTY                         BALLOTS CAST - REPUBLICAN PARTY       PRECINCT 302                                           00 
01050010012000131REP       BALLOTS CAST - REPUBLICAN PARTY                         BALLOTS CAST - REPUBLICAN PARTY       PRECINCT 303                                           00 
01050010013000653REP       BALLOTS CAST - REPUBLICAN PARTY                         BALLOTS CAST - REPUBLICAN PARTY       PRECINCT 304                                           00 
01050010014000036REP       BALLOTS CAST - REPUBLICAN PARTY                         BALLOTS CAST - REPUBLICAN PARTY       PRECINCT 305                                           00 
01050010015000186REP       BALLOTS CAST - REPUBLICAN PARTY                         BALLOTS CAST - REPUBLICAN PARTY       PRECINCT 401                                           00 
01050010016000118REP       BALLOTS CAST - REPUBLICAN PARTY                         BALLOTS CAST - REPUBLICAN PARTY       PRECINCT 402                                           00 
01050010017000176REP       BALLOTS CAST - REPUBLICAN PARTY                         BALLOTS CAST - REPUBLICAN PARTY       PRECINCT 403                                           00 
01050010018000770REP       BALLOTS CAST - REPUBLICAN PARTY                         BALLOTS CAST - REPUBLICAN PARTY       PRECINCT 404                                           00 
01070010001000036REP       President                                               Mitt Romney                           PRECINCT 101                                           01 
01070010002000273REP       President                                               Mitt Romney                           PRECINCT 102                                           01 
01070010003000204REP       President                                               Mitt Romney                           PRECINCT 103                                           01 
01070010004000229REP       President                                               Mitt Romney                           PRECINCT 104                                           01 
01070010005000297REP       President                                               Mitt Romney                           PRECINCT 201                                           01 
01070010006000065REP       President                                               Mitt Romney                           PRECINCT 203                                           01 
01070010007000357REP       President                                               Mitt Romney                           PRECINCT 204                                           01 
01070010008000745REP       President                                               Mitt Romney                           PRECINCT 205                                           01 
01070010009000100REP       President                                               Mitt Romney                           PRECINCT 206                                           01 
01070010010000129REP       President                                               Mitt Romney                           PRECINCT 301                                           01 
01070010011000075REP       President                                               Mitt Romney                           PRECINCT 302                                           01 
01070010012000093REP       President                                               Mitt Romney                           PRECINCT 303                                           01 
01070010013000455REP       President                                               Mitt Romney                           PRECINCT 304                                           01 
01070010014000026REP       President                                               Mitt Romney                           PRECINCT 305                                           01 
01070010015000126REP       President                                               Mitt Romney                           PRECINCT 401                                           01 
01070010016000084REP       President                                               Mitt Romney                           PRECINCT 402                                           01 
01070010017000115REP       President                                               Mitt Romney                           PRECINCT 403                                           01 
01070010018000485REP       President                                               Mitt Romney                           PRECINCT 404                                           01 
01070020001000000REP       President                                               Charles "Buddy" Roemer                PRECINCT 101                                           01 
01070020002000000REP       President                                               Charles "Buddy" Roemer                PRECINCT 102                                           01 
01070020003000001REP       President                                               Charles "Buddy" Roemer                PRECINCT 103                                           01 
01070020004000000REP       President                                               Charles "Buddy" Roemer                PRECINCT 104                                           01 
01070020005000003REP       President                                               Charles "Buddy" Roemer                PRECINCT 201                                           01 
01070020006000000REP       President                                               Charles "Buddy" Roemer                PRECINCT 203                                           01 
01070020007000001REP       President                                               Charles "Buddy" Roemer                PRECINCT 204                                           01 
01070020008000003REP       President                                               Charles "Buddy" Roemer                PRECINCT 205                                           01 
01070020009000002REP       President                                               Charles "Buddy" Roemer                PRECINCT 206                                           01 
01070020010000000REP       President                                               Charles "Buddy" Roemer                PRECINCT 301                                           01 
01070020011000000REP       President                                               Charles "Buddy" Roemer                PRECINCT 302                                           01 
01070020012000000REP       President                                               Charles "Buddy" Roemer                PRECINCT 303                                           01 
01070020013000001REP       President                                               Charles "Buddy" Roemer                PRECINCT 304                                           01 
01070020014000000REP       President                                               Charles "Buddy" Roemer                PRECINCT 305                                           01 
01070020015000000REP       President                                               Charles "Buddy" Roemer                PRECINCT 401                                           01 
01070020016000002REP       President                                               Charles "Buddy" Roemer                PRECINCT 402                                           01 
01070020017000000REP       President                                               Charles "Buddy" Roemer                PRECINCT 403                                           01 
01070020018000002REP       President                                               Charles "Buddy" Roemer                PRECINCT 404                                           01 
01070030001000003REP       President                                               Rick Santorum                         PRECINCT 101                                           01 
01070030002000028REP       President                                               Rick Santorum                         PRECINCT 102                                           01 
01070030003000019REP       President                                               Rick Santorum                         PRECINCT 103                                           01 
01070030004000023REP       President                                               Rick Santorum                         PRECINCT 104                                           01 
01070030005000025REP       President                                               Rick Santorum                         PRECINCT 201                                           01 
01070030006000011REP       President                                               Rick Santorum                         PRECINCT 203                                           01 
01070030007000041REP       President                                               Rick Santorum                         PRECINCT 204                                           01 
01070030008000059REP       President                                               Rick Santorum                         PRECINCT 205                                           01 
01070030009000006REP       President                                               Rick Santorum                         PRECINCT 206                                           01 
01070030010000013REP       President                                               Rick Santorum                         PRECINCT 301                                           01 
01070030011000004REP       President                                               Rick Santorum                         PRECINCT 302                                           01 
01070030012000010REP       President                                               Rick Santorum                         PRECINCT 303                                           01 
01070030013000048REP       President                                               Rick Santorum                         PRECINCT 304                                           01 
01070030014000002REP       President                                               Rick Santorum                         PRECINCT 305                                           01 
01070030015000007REP       President                                               Rick Santorum                         PRECINCT 401                                           01 
01070030016000007REP       President                                               Rick Santorum                         PRECINCT 402                                           01 
01070030017000016REP       President                                               Rick Santorum                         PRECINCT 403                                           01 
01070030018000072REP       President                                               Rick Santorum                         PRECINCT 404                                           01 
01070040001000001REP       President                                               Newt Gingrich                         PRECINCT 101                                           01 
01070040002000018REP       President                                               Newt Gingrich                         PRECINCT 102                                           01 
01070040003000013REP       President                                               Newt Gingrich                         PRECINCT 103                                           01 
01070040004000020REP       President                                               Newt Gingrich                         PRECINCT 104                                           01 
01070040005000016REP       President                                               Newt Gingrich                         PRECINCT 201                                           01 
01070040006000007REP       President                                               Newt Gingrich                         PRECINCT 203                                           01 
01070040007000029REP       President                                               Newt Gingrich                         PRECINCT 204                                           01 
01070040008000039REP       President                                               Newt Gingrich                         PRECINCT 205                                           01 
01070040009000012REP       President                                               Newt Gingrich                         PRECINCT 206                                           01 
01070040010000009REP       President                                               Newt Gingrich                         PRECINCT 301                                           01 
01070040011000002REP       President                                               Newt Gingrich                         PRECINCT 302                                           01 
01070040012000008REP       President                                               Newt Gingrich                         PRECINCT 303                                           01 
01070040013000017REP       President                                               Newt Gingrich                         PRECINCT 304                                           01 
01070040014000002REP       President                                               Newt Gingrich                         PRECINCT 305                                           01 
01070040015000011REP       President                                               Newt Gingrich                         PRECINCT 401                                           01 
01070040016000003REP       President                                               Newt Gingrich                         PRECINCT 402                                           01 
01070040017000006REP       President                                               Newt Gingrich                         PRECINCT 403                                           01 
01070040018000022REP       President                                               Newt Gingrich                         PRECINCT 404                                           01 
01070050001000000REP       President                                               John Davis                            PRECINCT 101                                           01 
01070050002000000REP       President                                               John Davis                            PRECINCT 102                                           01 
01070050003000000REP       President                                               John Davis                            PRECINCT 103                                           01 
01070050004000002REP       President                                               John Davis                            PRECINCT 104                                           01 
01070050005000002REP       President                                               John Davis                            PRECINCT 201                                           01 
01070050006000000REP       President                                               John Davis                            PRECINCT 203                                           01 
01070050007000000REP       President                                               John Davis                            PRECINCT 204                                           01 
01070050008000000REP       President                                               John Davis                            PRECINCT 205                                           01 
01070050009000000REP       President                                               John Davis                            PRECINCT 206                                           01 
01070050010000001REP       President                                               John Davis                            PRECINCT 301                                           01 
01070050011000000REP       President                                               John Davis                            PRECINCT 302                                           01 
01070050012000001REP       President                                               John Davis                            PRECINCT 303                                           01 
01070050013000002REP       President                                               John Davis                            PRECINCT 304                                           01 
01070050014000000REP       President                                               John Davis                            PRECINCT 305                                           01 
01070050015000001REP       President                                               John Davis                            PRECINCT 401                                           01 
01070050016000001REP       President                                               John Davis                            PRECINCT 402                                           01 
01070050017000002REP       President                                               John Davis                            PRECINCT 403                                           01 
01070050018000000REP       President                                               John Davis                            PRECINCT 404                                           01 
01070060001000000REP       President                                               Jon Huntsman                          PRECINCT 101                                           01 
01070060002000004REP       President                                               Jon Huntsman                          PRECINCT 102                                           01 
01070060003000001REP       President                                               Jon Huntsman                          PRECINCT 103                                           01 
01070060004000001REP       President                                               Jon Huntsman                          PRECINCT 104                                           01 
01070060005000000REP       President                                               Jon Huntsman                          PRECINCT 201                                           01 
01070060006000000REP       President                                               Jon Huntsman                          PRECINCT 203                                           01 
01070060007000001REP       President                                               Jon Huntsman                          PRECINCT 204                                           01 
01070060008000009REP       President                                               Jon Huntsman                          PRECINCT 205                                           01 
01070060009000002REP       President                                               Jon Huntsman                          PRECINCT 206                                           01 
01070060010000001REP       President                                               Jon Huntsman                          PRECINCT 301                                           01 
01070060011000000REP       President                                               Jon Huntsman                          PRECINCT 302                                           01 
01070060012000000REP       President                                               Jon Huntsman                          PRECINCT 303                                           01 
01070060013000004REP       President                                               Jon Huntsman                          PRECINCT 304                                           01 
01070060014000000REP       President                                               Jon Huntsman                          PRECINCT 305                                           01 
01070060015000003REP       President                                               Jon Huntsman                          PRECINCT 401                                           01 
01070060016000000REP       President                                               Jon Huntsman                          PRECINCT 402                                           01 
01070060017000001REP       President                                               Jon Huntsman                          PRECINCT 403                                           01 
01070060018000003REP       President                                               Jon Huntsman                          PRECINCT 404                                           01 
01070070001000008REP       President                                               Ron Paul                              PRECINCT 101                                           01 
01070070002000056REP       President                                               Ron Paul                              PRECINCT 102                                           01 
01070070003000050REP       President                                               Ron Paul                              PRECINCT 103                                           01 
01070070004000044REP       President                                               Ron Paul                              PRECINCT 104                                           01 
01070070005000054REP       President                                               Ron Paul                              PRECINCT 201                                           01 
01070070006000009REP       President                                               Ron Paul                              PRECINCT 203                                           01 
01070070007000069REP       President                                               Ron Paul                              PRECINCT 204                                           01 
01070070008000074REP       President                                               Ron Paul                              PRECINCT 205                                           01 
01070070009000019REP       President                                               Ron Paul                              PRECINCT 206                                           01 
01070070010000023REP       President                                               Ron Paul                              PRECINCT 301                                           01 
01070070011000013REP       President                                               Ron Paul                              PRECINCT 302                                           01 
01070070012000016REP       President                                               Ron Paul                              PRECINCT 303                                           01 
01070070013000079REP       President                                               Ron Paul                              PRECINCT 304                                           01 
01070070014000006REP       President                                               Ron Paul                              PRECINCT 305                                           01 
01070070015000031REP       President                                               Ron Paul                              PRECINCT 401                                           01 
01070070016000010REP       President                                               Ron Paul                              PRECINCT 402                                           01 
01070070017000024REP       President                                               Ron Paul                              PRECINCT 403                                           01 
01070070018000114REP       President                                               Ron Paul                              PRECINCT 404                                           01 
01070080001000001REP       President                                               Michele Bachmann                      PRECINCT 101                                           01 
01070080002000001REP       President                                               Michele Bachmann                      PRECINCT 102                                           01 
01070080003000001REP       President                                               Michele Bachmann                      PRECINCT 103                                           01 
01070080004000000REP       President                                               Michele Bachmann                      PRECINCT 104                                           01 
01070080005000004REP       President                                               Michele Bachmann                      PRECINCT 201                                           01 
01070080006000001REP       President                                               Michele Bachmann                      PRECINCT 203                                           01 
01070080007000004REP       President                                               Michele Bachmann                      PRECINCT 204                                           01 
01070080008000006REP       President                                               Michele Bachmann                      PRECINCT 205                                           01 
01070080009000000REP       President                                               Michele Bachmann                      PRECINCT 206                                           01 
01070080010000002REP       President                                               Michele Bachmann                      PRECINCT 301                                           01 
01070080011000000REP       President                                               Michele Bachmann                      PRECINCT 302                                           01 
01070080012000001REP       President                                               Michele Bachmann                      PRECINCT 303                                           01 
01070080013000001REP       President                                               Michele Bachmann                      PRECINCT 304                                           01 
01070080014000000REP       President                                               Michele Bachmann                      PRECINCT 305                                           01 
01070080015000003REP       President                                               Michele Bachmann                      PRECINCT 401                                           01 
01070080016000002REP       President                                               Michele Bachmann                      PRECINCT 402                                           01 
01070080017000001REP       President                                               Michele Bachmann                      PRECINCT 403                                           01 
01070080018000008REP       President                                               Michele Bachmann                      PRECINCT 404                                           01 
01070090001000003REP       President                                               Uncommitted                           PRECINCT 101                                           01 
01070090002000013REP       President                                               Uncommitted                           PRECINCT 102                                           01 
01070090003000007REP       President                                               Uncommitted                           PRECINCT 103                                           01 
01070090004000015REP       President                                               Uncommitted                           PRECINCT 104                                           01 
01070090005000011REP       President                                               Uncommitted                           PRECINCT 201                                           01 
01070090006000005REP       President                                               Uncommitted                           PRECINCT 203                                           01 
01070090007000017REP       President                                               Uncommitted                           PRECINCT 204                                           01 
01070090008000025REP       President                                               Uncommitted                           PRECINCT 205                                           01 
01070090009000008REP       President                                               Uncommitted                           PRECINCT 206                                           01 
01070090010000010REP       President                                               Uncommitted                           PRECINCT 301                                           01 
01070090011000006REP       President                                               Uncommitted                           PRECINCT 302                                           01 
01070090012000001REP       President                                               Uncommitted                           PRECINCT 303                                           01 
01070090013000030REP       President                                               Uncommitted                           PRECINCT 304                                           01 
01070090014000000REP       President                                               Uncommitted                           PRECINCT 305                                           01 
01070090015000004REP       President                                               Uncommitted                           PRECINCT 401                                           01 
01070090016000002REP       President                                               Uncommitted                           PRECINCT 402                                           01 
01070090017000003REP       President                                               Uncommitted                           PRECINCT 403                                           01 
01070090018000036REP       President                                               Uncommitted                           PRECINCT 404                                           01 
01080010001000000REP       United States Senator                                   Joe Agris                             PRECINCT 101                                           01 
01080010002000002REP       United States Senator                                   Joe Agris                             PRECINCT 102                                           01 
01080010003000003REP       United States Senator                                   Joe Agris                             PRECINCT 103                                           01 
01080010004000000REP       United States Senator                                   Joe Agris                             PRECINCT 104                                           01 
01080010005000001REP       United States Senator                                   Joe Agris                             PRECINCT 201                                           01 
01080010006000001REP       United States Senator                                   Joe Agris                             PRECINCT 203                                           01 
01080010007000004REP       United States Senator                                   Joe Agris                             PRECINCT 204                                           01 
01080010008000002REP       United States Senator                                   Joe Agris                             PRECINCT 205                                           01 
01080010009000001REP       United States Senator                                   Joe Agris                             PRECINCT 206                                           01 
01080010010000002REP       United States Senator                                   Joe Agris                             PRECINCT 301                                           01 
01080010011000001REP       United States Senator                                   Joe Agris                             PRECINCT 302                                           01 
01080010012000001REP       United States Senator                                   Joe Agris                             PRECINCT 303                                           01 
01080010013000005REP       United States Senator                                   Joe Agris                             PRECINCT 304                                           01 
01080010014000000REP       United States Senator                                   Joe Agris                             PRECINCT 305                                           01 
01080010015000003REP       United States Senator                                   Joe Agris                             PRECINCT 401                                           01 
01080010016000001REP       United States Senator                                   Joe Agris                             PRECINCT 402                                           01 
01080010017000000REP       United States Senator                                   Joe Agris                             PRECINCT 403                                           01 
01080010018000007REP       United States Senator                                   Joe Agris                             PRECINCT 404                                           01 
01080020001000000REP       United States Senator                                   Curt Cleaver                          PRECINCT 101                                           01 
01080020002000001REP       United States Senator                                   Curt Cleaver                          PRECINCT 102                                           01 
01080020003000004REP       United States Senator                                   Curt Cleaver                          PRECINCT 103                                           01 
01080020004000001REP       United States Senator                                   Curt Cleaver                          PRECINCT 104                                           01 
01080020005000000REP       United States Senator                                   Curt Cleaver                          PRECINCT 201                                           01 
01080020006000001REP       United States Senator                                   Curt Cleaver                          PRECINCT 203                                           01 
01080020007000005REP       United States Senator                                   Curt Cleaver                          PRECINCT 204                                           01 
01080020008000002REP       United States Senator                                   Curt Cleaver                          PRECINCT 205                                           01 
01080020009000002REP       United States Senator                                   Curt Cleaver                          PRECINCT 206                                           01 
01080020010000002REP       United States Senator                                   Curt Cleaver                          PRECINCT 301                                           01 
01080020011000001REP       United States Senator                                   Curt Cleaver                          PRECINCT 302                                           01 
01080020012000000REP       United States Senator                                   Curt Cleaver                          PRECINCT 303                                           01 
01080020013000007REP       United States Senator                                   Curt Cleaver                          PRECINCT 304                                           01 
01080020014000000REP       United States Senator                                   Curt Cleaver                          PRECINCT 305                                           01 
01080020015000001REP       United States Senator                                   Curt Cleaver                          PRECINCT 401                                           01 
01080020016000000REP       United States Senator                                   Curt Cleaver                          PRECINCT 402                                           01 
01080020017000000REP       United States Senator                                   Curt Cleaver                          PRECINCT 403                                           01 
01080020018000005REP       United States Senator                                   Curt Cleaver                          PRECINCT 404                                           01 
01080030001000034REP       United States Senator                                   David Dewhurst                        PRECINCT 101                                           01 
01080030002000229REP       United States Senator                                   David Dewhurst                        PRECINCT 102                                           01 
01080030003000172REP       United States Senator                                   David Dewhurst                        PRECINCT 103                                           01 
01080030004000190REP       United States Senator                                   David Dewhurst                        PRECINCT 104                                           01 
01080030005000232REP       United States Senator                                   David Dewhurst                        PRECINCT 201                                           01 
01080030006000057REP       United States Senator                                   David Dewhurst                        PRECINCT 203                                           01 
01080030007000286REP       United States Senator                                   David Dewhurst                        PRECINCT 204                                           01 
01080030008000560REP       United States Senator                                   David Dewhurst                        PRECINCT 205                                           01 
01080030009000087REP       United States Senator                                   David Dewhurst                        PRECINCT 206                                           01 
01080030010000107REP       United States Senator                                   David Dewhurst                        PRECINCT 301                                           01 
01080030011000067REP       United States Senator                                   David Dewhurst                        PRECINCT 302                                           01 
01080030012000074REP       United States Senator                                   David Dewhurst                        PRECINCT 303                                           01 
01080030013000340REP       United States Senator                                   David Dewhurst                        PRECINCT 304                                           01 
01080030014000022REP       United States Senator                                   David Dewhurst                        PRECINCT 305                                           01 
01080030015000102REP       United States Senator                                   David Dewhurst                        PRECINCT 401                                           01 
01080030016000066REP       United States Senator                                   David Dewhurst                        PRECINCT 402                                           01 
01080030017000090REP       United States Senator                                   David Dewhurst                        PRECINCT 403                                           01 
01080030018000382REP       United States Senator                                   David Dewhurst                        PRECINCT 404                                           01 
01080040001000000REP       United States Senator                                   Lela Pittenger                        PRECINCT 101                                           01 
01080040002000003REP       United States Senator                                   Lela Pittenger                        PRECINCT 102                                           01 
01080040003000003REP       United States Senator                                   Lela Pittenger                        PRECINCT 103                                           01 
01080040004000000REP       United States Senator                                   Lela Pittenger                        PRECINCT 104                                           01 
01080040005000001REP       United States Senator                                   Lela Pittenger                        PRECINCT 201                                           01 
01080040006000003REP       United States Senator                                   Lela Pittenger                        PRECINCT 203                                           01 
01080040007000005REP       United States Senator                                   Lela Pittenger                        PRECINCT 204                                           01 
01080040008000007REP       United States Senator                                   Lela Pittenger                        PRECINCT 205                                           01 
01080040009000003REP       United States Senator                                   Lela Pittenger                        PRECINCT 206                                           01 
01080040010000002REP       United States Senator                                   Lela Pittenger                        PRECINCT 301                                           01 
01080040011000002REP       United States Senator                                   Lela Pittenger                        PRECINCT 302                                           01 
01080040012000002REP       United States Senator                                   Lela Pittenger                        PRECINCT 303                                           01 
01080040013000012REP       United States Senator                                   Lela Pittenger                        PRECINCT 304                                           01 
01080040014000002REP       United States Senator                                   Lela Pittenger                        PRECINCT 305                                           01 
01080040015000001REP       United States Senator                                   Lela Pittenger                        PRECINCT 401                                           01 
01080040016000001REP       United States Senator                                   Lela Pittenger                        PRECINCT 402                                           01 
01080040017000002REP       United States Senator                                   Lela Pittenger                        PRECINCT 403                                           01 
01080040018000007REP       United States Senator                                   Lela Pittenger                        PRECINCT 404                                           01 
01080050001000003REP       United States Senator                                   Tom Leppert                           PRECINCT 101                                           01 
01080050002000031REP       United States Senator                                   Tom Leppert                           PRECINCT 102                                           01 
01080050003000012REP       United States Senator                                   Tom Leppert                           PRECINCT 103                                           01 
01080050004000035REP       United States Senator                                   Tom Leppert                           PRECINCT 104                                           01 
01080050005000043REP       United States Senator                                   Tom Leppert                           PRECINCT 201                                           01 
01080050006000007REP       United States Senator                                   Tom Leppert                           PRECINCT 203                                           01 
01080050007000038REP       United States Senator                                   Tom Leppert                           PRECINCT 204                                           01 
01080050008000086REP       United States Senator                                   Tom Leppert                           PRECINCT 205                                           01 
01080050009000004REP       United States Senator                                   Tom Leppert                           PRECINCT 206                                           01 
01080050010000015REP       United States Senator                                   Tom Leppert                           PRECINCT 301                                           01 
01080050011000004REP       United States Senator                                   Tom Leppert                           PRECINCT 302                                           01 
01080050012000011REP       United States Senator                                   Tom Leppert                           PRECINCT 303                                           01 
01080050013000050REP       United States Senator                                   Tom Leppert                           PRECINCT 304                                           01 
01080050014000002REP       United States Senator                                   Tom Leppert                           PRECINCT 305                                           01 
01080050015000012REP       United States Senator                                   Tom Leppert                           PRECINCT 401                                           01 
01080050016000011REP       United States Senator                                   Tom Leppert                           PRECINCT 402                                           01 
01080050017000013REP       United States Senator                                   Tom Leppert                           PRECINCT 403                                           01 
01080050018000056REP       United States Senator                                   Tom Leppert                           PRECINCT 404                                           01 
01080060001000001REP       United States Senator                                   Craig James                           PRECINCT 101                                           01 
01080060002000007REP       United States Senator                                   Craig James                           PRECINCT 102                                           01 
01080060003000008REP       United States Senator                                   Craig James                           PRECINCT 103                                           01 
01080060004000005REP       United States Senator                                   Craig James                           PRECINCT 104                                           01 
01080060005000011REP       United States Senator                                   Craig James                           PRECINCT 201                                           01 
01080060006000003REP       United States Senator                                   Craig James                           PRECINCT 203                                           01 
01080060007000015REP       United States Senator                                   Craig James                           PRECINCT 204                                           01 
01080060008000030REP       United States Senator                                   Craig James                           PRECINCT 205                                           01 
01080060009000006REP       United States Senator                                   Craig James                           PRECINCT 206                                           01 
01080060010000008REP       United States Senator                                   Craig James                           PRECINCT 301                                           01 
01080060011000004REP       United States Senator                                   Craig James                           PRECINCT 302                                           01 
01080060012000003REP       United States Senator                                   Craig James                           PRECINCT 303                                           01 
01080060013000019REP       United States Senator                                   Craig James                           PRECINCT 304                                           01 
01080060014000001REP       United States Senator                                   Craig James                           PRECINCT 305                                           01 
01080060015000005REP       United States Senator                                   Craig James                           PRECINCT 401                                           01 
01080060016000002REP       United States Senator                                   Craig James                           PRECINCT 402                                           01 
01080060017000008REP       United States Senator                                   Craig James                           PRECINCT 403                                           01 
01080060018000013REP       United States Senator                                   Craig James                           PRECINCT 404                                           01 
01080070001000000REP       United States Senator                                   Glenn Addison                         PRECINCT 101                                           01 
01080070002000004REP       United States Senator                                   Glenn Addison                         PRECINCT 102                                           01 
01080070003000012REP       United States Senator                                   Glenn Addison                         PRECINCT 103                                           01 
01080070004000003REP       United States Senator                                   Glenn Addison                         PRECINCT 104                                           01 
01080070005000010REP       United States Senator                                   Glenn Addison                         PRECINCT 201                                           01 
01080070006000002REP       United States Senator                                   Glenn Addison                         PRECINCT 203                                           01 
01080070007000005REP       United States Senator                                   Glenn Addison                         PRECINCT 204                                           01 
01080070008000009REP       United States Senator                                   Glenn Addison                         PRECINCT 205                                           01 
01080070009000003REP       United States Senator                                   Glenn Addison                         PRECINCT 206                                           01 
01080070010000001REP       United States Senator                                   Glenn Addison                         PRECINCT 301                                           01 
01080070011000002REP       United States Senator                                   Glenn Addison                         PRECINCT 302                                           01 
01080070012000003REP       United States Senator                                   Glenn Addison                         PRECINCT 303                                           01 
01080070013000008REP       United States Senator                                   Glenn Addison                         PRECINCT 304                                           01 
01080070014000001REP       United States Senator                                   Glenn Addison                         PRECINCT 305                                           01 
01080070015000002REP       United States Senator                                   Glenn Addison                         PRECINCT 401                                           01 
01080070016000002REP       United States Senator                                   Glenn Addison                         PRECINCT 402                                           01 
01080070017000000REP       United States Senator                                   Glenn Addison                         PRECINCT 403                                           01 
01080070018000010REP       United States Senator                                   Glenn Addison                         PRECINCT 404                                           01 
01080080001000012REP       United States Senator                                   Ted Cruz                              PRECINCT 101                                           01 
01080080002000105REP       United States Senator                                   Ted Cruz                              PRECINCT 102                                           01 
01080080003000080REP       United States Senator                                   Ted Cruz                              PRECINCT 103                                           01 
01080080004000090REP       United States Senator                                   Ted Cruz                              PRECINCT 104                                           01 
01080080005000096REP       United States Senator                                   Ted Cruz                              PRECINCT 201                                           01 
01080080006000021REP       United States Senator                                   Ted Cruz                              PRECINCT 203                                           01 
01080080007000140REP       United States Senator                                   Ted Cruz                              PRECINCT 204                                           01 
01080080008000238REP       United States Senator                                   Ted Cruz                              PRECINCT 205                                           01 
01080080009000035REP       United States Senator                                   Ted Cruz                              PRECINCT 206                                           01 
01080080010000045REP       United States Senator                                   Ted Cruz                              PRECINCT 301                                           01 
01080080011000018REP       United States Senator                                   Ted Cruz                              PRECINCT 302                                           01 
01080080012000027REP       United States Senator                                   Ted Cruz                              PRECINCT 303                                           01 
01080080013000163REP       United States Senator                                   Ted Cruz                              PRECINCT 304                                           01 
01080080014000006REP       United States Senator                                   Ted Cruz                              PRECINCT 305                                           01 
01080080015000051REP       United States Senator                                   Ted Cruz                              PRECINCT 401                                           01 
01080080016000032REP       United States Senator                                   Ted Cruz                              PRECINCT 402                                           01 
01080080017000046REP       United States Senator                                   Ted Cruz                              PRECINCT 403                                           01 
01080080018000233REP       United States Senator                                   Ted Cruz                              PRECINCT 404                                           01 
01080090001000001REP       United States Senator                                   Ben Gambini                           PRECINCT 101                                           01 
01080090002000002REP       United States Senator                                   Ben Gambini                           PRECINCT 102                                           01 
01080090003000001REP       United States Senator                                   Ben Gambini                           PRECINCT 103                                           01 
01080090004000001REP       United States Senator                                   Ben Gambini                           PRECINCT 104                                           01 
01080090005000002REP       United States Senator                                   Ben Gambini                           PRECINCT 201                                           01 
01080090006000001REP       United States Senator                                   Ben Gambini                           PRECINCT 203                                           01 
01080090007000002REP       United States Senator                                   Ben Gambini                           PRECINCT 204                                           01 
01080090008000003REP       United States Senator                                   Ben Gambini                           PRECINCT 205                                           01 
01080090009000001REP       United States Senator                                   Ben Gambini                           PRECINCT 206                                           01 
01080090010000002REP       United States Senator                                   Ben Gambini                           PRECINCT 301                                           01 
01080090011000000REP       United States Senator                                   Ben Gambini                           PRECINCT 302                                           01 
01080090012000000REP       United States Senator                                   Ben Gambini                           PRECINCT 303                                           01 
01080090013000001REP       United States Senator                                   Ben Gambini                           PRECINCT 304                                           01 
01080090014000000REP       United States Senator                                   Ben Gambini                           PRECINCT 305                                           01 
01080090015000002REP       United States Senator                                   Ben Gambini                           PRECINCT 401                                           01 
01080090016000000REP       United States Senator                                   Ben Gambini                           PRECINCT 402                                           01 
01080090017000002REP       United States Senator                                   Ben Gambini                           PRECINCT 403                                           01 
01080090018000003REP       United States Senator                                   Ben Gambini                           PRECINCT 404                                           01 
01090010001000047REP       United States Representative, District 8                Kevin Brady                           PRECINCT 101                                           01 
01090010002000307REP       United States Representative, District 8                Kevin Brady                           PRECINCT 102                                           01 
01090010003000228REP       United States Representative, District 8                Kevin Brady                           PRECINCT 103                                           01 
01090010004000276REP       United States Representative, District 8                Kevin Brady                           PRECINCT 104                                           01 
01090010005000314REP       United States Representative, District 8                Kevin Brady                           PRECINCT 201                                           01 
01090010006000080REP       United States Representative, District 8                Kevin Brady                           PRECINCT 203                                           01 
01090010007000425REP       United States Representative, District 8                Kevin Brady                           PRECINCT 204                                           01 
01090010008000798REP       United States Representative, District 8                Kevin Brady                           PRECINCT 205                                           01 
01090010009000129REP       United States Representative, District 8                Kevin Brady                           PRECINCT 206                                           01 
01090010010000160REP       United States Representative, District 8                Kevin Brady                           PRECINCT 301                                           01 
01090010011000092REP       United States Representative, District 8                Kevin Brady                           PRECINCT 302                                           01 
01090010012000102REP       United States Representative, District 8                Kevin Brady                           PRECINCT 303                                           01 
01090010013000502REP       United States Representative, District 8                Kevin Brady                           PRECINCT 304                                           01 
01090010014000021REP       United States Representative, District 8                Kevin Brady                           PRECINCT 305                                           01 
01090010015000147REP       United States Representative, District 8                Kevin Brady                           PRECINCT 401                                           01 
01090010016000103REP       United States Representative, District 8                Kevin Brady                           PRECINCT 402                                           01 
01090010017000136REP       United States Representative, District 8                Kevin Brady                           PRECINCT 403                                           01 
01090010018000599REP       United States Representative, District 8                Kevin Brady                           PRECINCT 404                                           01 
01090020001000005REP       United States Representative, District 8                Larry Youngblood                      PRECINCT 101                                           01 
01090020002000075REP       United States Representative, District 8                Larry Youngblood                      PRECINCT 102                                           01 
01090020003000064REP       United States Representative, District 8                Larry Youngblood                      PRECINCT 103                                           01 
01090020004000053REP       United States Representative, District 8                Larry Youngblood                      PRECINCT 104                                           01 
01090020005000080REP       United States Representative, District 8                Larry Youngblood                      PRECINCT 201                                           01 
01090020006000015REP       United States Representative, District 8                Larry Youngblood                      PRECINCT 203                                           01 
01090020007000080REP       United States Representative, District 8                Larry Youngblood                      PRECINCT 204                                           01 
01090020008000120REP       United States Representative, District 8                Larry Youngblood                      PRECINCT 205                                           01 
01090020009000017REP       United States Representative, District 8                Larry Youngblood                      PRECINCT 206                                           01 
01090020010000024REP       United States Representative, District 8                Larry Youngblood                      PRECINCT 301                                           01 
01090020011000006REP       United States Representative, District 8                Larry Youngblood                      PRECINCT 302                                           01 
01090020012000016REP       United States Representative, District 8                Larry Youngblood                      PRECINCT 303                                           01 
01090020013000108REP       United States Representative, District 8                Larry Youngblood                      PRECINCT 304                                           01 
01090020014000012REP       United States Representative, District 8                Larry Youngblood                      PRECINCT 305                                           01 
01090020015000035REP       United States Representative, District 8                Larry Youngblood                      PRECINCT 401                                           01 
01090020016000013REP       United States Representative, District 8                Larry Youngblood                      PRECINCT 402                                           01 
01090020017000027REP       United States Representative, District 8                Larry Youngblood                      PRECINCT 403                                           01 
01090020018000126REP       United States Representative, District 8                Larry Youngblood                      PRECINCT 404                                           01 
01100010001000013REP       Railroad Commissioner                                   Warren Chisum                         PRECINCT 101                                           01 
01100010002000071REP       Railroad Commissioner                                   Warren Chisum                         PRECINCT 102                                           01 
01100010003000063REP       Railroad Commissioner                                   Warren Chisum                         PRECINCT 103                                           01 
01100010004000069REP       Railroad Commissioner                                   Warren Chisum                         PRECINCT 104                                           01 
01100010005000083REP       Railroad Commissioner                                   Warren Chisum                         PRECINCT 201                                           01 
01100010006000019REP       Railroad Commissioner                                   Warren Chisum                         PRECINCT 203                                           01 
01100010007000117REP       Railroad Commissioner                                   Warren Chisum                         PRECINCT 204                                           01 
01100010008000176REP       Railroad Commissioner                                   Warren Chisum                         PRECINCT 205                                           01 
01100010009000041REP       Railroad Commissioner                                   Warren Chisum                         PRECINCT 206                                           01 
01100010010000045REP       Railroad Commissioner                                   Warren Chisum                         PRECINCT 301                                           01 
01100010011000032REP       Railroad Commissioner                                   Warren Chisum                         PRECINCT 302                                           01 
01100010012000037REP       Railroad Commissioner                                   Warren Chisum                         PRECINCT 303                                           01 
01100010013000149REP       Railroad Commissioner                                   Warren Chisum                         PRECINCT 304                                           01 
01100010014000006REP       Railroad Commissioner                                   Warren Chisum                         PRECINCT 305                                           01 
01100010015000045REP       Railroad Commissioner                                   Warren Chisum                         PRECINCT 401                                           01 
01100010016000026REP       Railroad Commissioner                                   Warren Chisum                         PRECINCT 402                                           01 
01100010017000038REP       Railroad Commissioner                                   Warren Chisum                         PRECINCT 403                                           01 
01100010018000150REP       Railroad Commissioner                                   Warren Chisum                         PRECINCT 404                                           01 
01100020001000004REP       Railroad Commissioner                                   Becky Berger                          PRECINCT 101                                           01 
01100020002000047REP       Railroad Commissioner                                   Becky Berger                          PRECINCT 102                                           01 
01100020003000045REP       Railroad Commissioner                                   Becky Berger                          PRECINCT 103                                           01 
01100020004000034REP       Railroad Commissioner                                   Becky Berger                          PRECINCT 104                                           01 
01100020005000055REP       Railroad Commissioner                                   Becky Berger                          PRECINCT 201                                           01 
01100020006000008REP       Railroad Commissioner                                   Becky Berger                          PRECINCT 203                                           01 
01100020007000045REP       Railroad Commissioner                                   Becky Berger                          PRECINCT 204                                           01 
01100020008000080REP       Railroad Commissioner                                   Becky Berger                          PRECINCT 205                                           01 
01100020009000017REP       Railroad Commissioner                                   Becky Berger                          PRECINCT 206                                           01 
01100020010000027REP       Railroad Commissioner                                   Becky Berger                          PRECINCT 301                                           01 
01100020011000005REP       Railroad Commissioner                                   Becky Berger                          PRECINCT 302                                           01 
01100020012000014REP       Railroad Commissioner                                   Becky Berger                          PRECINCT 303                                           01 
01100020013000073REP       Railroad Commissioner                                   Becky Berger                          PRECINCT 304                                           01 
01100020014000001REP       Railroad Commissioner                                   Becky Berger                          PRECINCT 305                                           01 
01100020015000023REP       Railroad Commissioner                                   Becky Berger                          PRECINCT 401                                           01 
01100020016000014REP       Railroad Commissioner                                   Becky Berger                          PRECINCT 402                                           01 
01100020017000015REP       Railroad Commissioner                                   Becky Berger                          PRECINCT 403                                           01 
01100020018000074REP       Railroad Commissioner                                   Becky Berger                          PRECINCT 404                                           01 
01100030001000004REP       Railroad Commissioner                                   Beryl Burgess                         PRECINCT 101                                           01 
01100030002000006REP       Railroad Commissioner                                   Beryl Burgess                         PRECINCT 102                                           01 
01100030003000007REP       Railroad Commissioner                                   Beryl Burgess                         PRECINCT 103                                           01 
01100030004000008REP       Railroad Commissioner                                   Beryl Burgess                         PRECINCT 104                                           01 
01100030005000019REP       Railroad Commissioner                                   Beryl Burgess                         PRECINCT 201                                           01 
01100030006000002REP       Railroad Commissioner                                   Beryl Burgess                         PRECINCT 203                                           01 
01100030007000013REP       Railroad Commissioner                                   Beryl Burgess                         PRECINCT 204                                           01 
01100030008000027REP       Railroad Commissioner                                   Beryl Burgess                         PRECINCT 205                                           01 
01100030009000004REP       Railroad Commissioner                                   Beryl Burgess                         PRECINCT 206                                           01 
01100030010000006REP       Railroad Commissioner                                   Beryl Burgess                         PRECINCT 301                                           01 
01100030011000004REP       Railroad Commissioner                                   Beryl Burgess                         PRECINCT 302                                           01 
01100030012000004REP       Railroad Commissioner                                   Beryl Burgess                         PRECINCT 303                                           01 
01100030013000018REP       Railroad Commissioner                                   Beryl Burgess                         PRECINCT 304                                           01 
01100030014000001REP       Railroad Commissioner                                   Beryl Burgess                         PRECINCT 305                                           01 
01100030015000005REP       Railroad Commissioner                                   Beryl Burgess                         PRECINCT 401                                           01 
01100030016000006REP       Railroad Commissioner                                   Beryl Burgess                         PRECINCT 402                                           01 
01100030017000006REP       Railroad Commissioner                                   Beryl Burgess                         PRECINCT 403                                           01 
01100030018000036REP       Railroad Commissioner                                   Beryl Burgess                         PRECINCT 404                                           01 
01100040001000004REP       Railroad Commissioner                                   Joe Cotten                            PRECINCT 101                                           01 
01100040002000033REP       Railroad Commissioner                                   Joe Cotten                            PRECINCT 102                                           01 
01100040003000034REP       Railroad Commissioner                                   Joe Cotten                            PRECINCT 103                                           01 
01100040004000030REP       Railroad Commissioner                                   Joe Cotten                            PRECINCT 104                                           01 
01100040005000029REP       Railroad Commissioner                                   Joe Cotten                            PRECINCT 201                                           01 
01100040006000008REP       Railroad Commissioner                                   Joe Cotten                            PRECINCT 203                                           01 
01100040007000054REP       Railroad Commissioner                                   Joe Cotten                            PRECINCT 204                                           01 
01100040008000079REP       Railroad Commissioner                                   Joe Cotten                            PRECINCT 205                                           01 
01100040009000011REP       Railroad Commissioner                                   Joe Cotten                            PRECINCT 206                                           01 
01100040010000020REP       Railroad Commissioner                                   Joe Cotten                            PRECINCT 301                                           01 
01100040011000012REP       Railroad Commissioner                                   Joe Cotten                            PRECINCT 302                                           01 
01100040012000010REP       Railroad Commissioner                                   Joe Cotten                            PRECINCT 303                                           01 
01100040013000057REP       Railroad Commissioner                                   Joe Cotten                            PRECINCT 304                                           01 
01100040014000003REP       Railroad Commissioner                                   Joe Cotten                            PRECINCT 305                                           01 
01100040015000015REP       Railroad Commissioner                                   Joe Cotten                            PRECINCT 401                                           01 
01100040016000006REP       Railroad Commissioner                                   Joe Cotten                            PRECINCT 402                                           01 
01100040017000008REP       Railroad Commissioner                                   Joe Cotten                            PRECINCT 403                                           01 
01100040018000080REP       Railroad Commissioner                                   Joe Cotten                            PRECINCT 404                                           01 
01100050001000015REP       Railroad Commissioner                                   Christi Craddick                      PRECINCT 101                                           01 
01100050002000116REP       Railroad Commissioner                                   Christi Craddick                      PRECINCT 102                                           01 
01100050003000089REP       Railroad Commissioner                                   Christi Craddick                      PRECINCT 103                                           01 
01100050004000107REP       Railroad Commissioner                                   Christi Craddick                      PRECINCT 104                                           01 
01100050005000095REP       Railroad Commissioner                                   Christi Craddick                      PRECINCT 201                                           01 
01100050006000036REP       Railroad Commissioner                                   Christi Craddick                      PRECINCT 203                                           01 
01100050007000144REP       Railroad Commissioner                                   Christi Craddick                      PRECINCT 204                                           01 
01100050008000287REP       Railroad Commissioner                                   Christi Craddick                      PRECINCT 205                                           01 
01100050009000032REP       Railroad Commissioner                                   Christi Craddick                      PRECINCT 206                                           01 
01100050010000045REP       Railroad Commissioner                                   Christi Craddick                      PRECINCT 301                                           01 
01100050011000025REP       Railroad Commissioner                                   Christi Craddick                      PRECINCT 302                                           01 
01100050012000030REP       Railroad Commissioner                                   Christi Craddick                      PRECINCT 303                                           01 
01100050013000182REP       Railroad Commissioner                                   Christi Craddick                      PRECINCT 304                                           01 
01100050014000017REP       Railroad Commissioner                                   Christi Craddick                      PRECINCT 305                                           01 
01100050015000050REP       Railroad Commissioner                                   Christi Craddick                      PRECINCT 401                                           01 
01100050016000040REP       Railroad Commissioner                                   Christi Craddick                      PRECINCT 402                                           01 
01100050017000053REP       Railroad Commissioner                                   Christi Craddick                      PRECINCT 403                                           01 
01100050018000230REP       Railroad Commissioner                                   Christi Craddick                      PRECINCT 404                                           01 
01100060001000001REP       Railroad Commissioner                                   Roland Sledge                         PRECINCT 101                                           01 
01100060002000028REP       Railroad Commissioner                                   Roland Sledge                         PRECINCT 102                                           01 
01100060003000018REP       Railroad Commissioner                                   Roland Sledge                         PRECINCT 103                                           01 
01100060004000025REP       Railroad Commissioner                                   Roland Sledge                         PRECINCT 104                                           01 
01100060005000031REP       Railroad Commissioner                                   Roland Sledge                         PRECINCT 201                                           01 
01100060006000007REP       Railroad Commissioner                                   Roland Sledge                         PRECINCT 203                                           01 
01100060007000030REP       Railroad Commissioner                                   Roland Sledge                         PRECINCT 204                                           01 
01100060008000057REP       Railroad Commissioner                                   Roland Sledge                         PRECINCT 205                                           01 
01100060009000008REP       Railroad Commissioner                                   Roland Sledge                         PRECINCT 206                                           01 
01100060010000008REP       Railroad Commissioner                                   Roland Sledge                         PRECINCT 301                                           01 
01100060011000006REP       Railroad Commissioner                                   Roland Sledge                         PRECINCT 302                                           01 
01100060012000007REP       Railroad Commissioner                                   Roland Sledge                         PRECINCT 303                                           01 
01100060013000045REP       Railroad Commissioner                                   Roland Sledge                         PRECINCT 304                                           01 
01100060014000001REP       Railroad Commissioner                                   Roland Sledge                         PRECINCT 305                                           01 
01100060015000011REP       Railroad Commissioner                                   Roland Sledge                         PRECINCT 401                                           01 
01100060016000007REP       Railroad Commissioner                                   Roland Sledge                         PRECINCT 402                                           01 
01100060017000016REP       Railroad Commissioner                                   Roland Sledge                         PRECINCT 403                                           01 
01100060018000066REP       Railroad Commissioner                                   Roland Sledge                         PRECINCT 404                                           01 
01110010001000021REP       Railroad Commissioner, Unexpired Term                   Barry Smitherman                      PRECINCT 101                                           01 
01110010002000139REP       Railroad Commissioner, Unexpired Term                   Barry Smitherman                      PRECINCT 102                                           01 
01110010003000101REP       Railroad Commissioner, Unexpired Term                   Barry Smitherman                      PRECINCT 103                                           01 
01110010004000130REP       Railroad Commissioner, Unexpired Term                   Barry Smitherman                      PRECINCT 104                                           01 
01110010005000148REP       Railroad Commissioner, Unexpired Term                   Barry Smitherman                      PRECINCT 201                                           01 
01110010006000036REP       Railroad Commissioner, Unexpired Term                   Barry Smitherman                      PRECINCT 203                                           01 
01110010007000189REP       Railroad Commissioner, Unexpired Term                   Barry Smitherman                      PRECINCT 204                                           01 
01110010008000301REP       Railroad Commissioner, Unexpired Term                   Barry Smitherman                      PRECINCT 205                                           01 
01110010009000053REP       Railroad Commissioner, Unexpired Term                   Barry Smitherman                      PRECINCT 206                                           01 
01110010010000070REP       Railroad Commissioner, Unexpired Term                   Barry Smitherman                      PRECINCT 301                                           01 
01110010011000039REP       Railroad Commissioner, Unexpired Term                   Barry Smitherman                      PRECINCT 302                                           01 
01110010012000046REP       Railroad Commissioner, Unexpired Term                   Barry Smitherman                      PRECINCT 303                                           01 
