01010010001000000          REGISTERED VOTERS - TOTAL                               REGISTERED VOTERS - TOTAL             VOTING PRECINCT 1                                      00 
01010010002000000          REGISTERED VOTERS - TOTAL                               REGISTERED VOTERS - TOTAL             VOTING PRECINCT 2                                      00 
01010010003000000          REGISTERED VOTERS - TOTAL                               REGISTERED VOTERS - TOTAL             VOTING PRECINCT 3                                      00 
01010010004000000          REGISTERED VOTERS - TOTAL                               REGISTERED VOTERS - TOTAL             VOTING PRECINCT 4                                      00 
01010010005000000          REGISTERED VOTERS - TOTAL                               REGISTERED VOTERS - TOTAL             VOTING PRECINCT 5                                      00 
01010010006000000          REGISTERED VOTERS - TOTAL                               REGISTERED VOTERS - TOTAL             VOTING PRECINCT 6                                      00 
01010010007000000          REGISTERED VOTERS - TOTAL                               REGISTERED VOTERS - TOTAL             VOTING PRECINCT 7                                      00 
01010010008000000          REGISTERED VOTERS - TOTAL                               REGISTERED VOTERS - TOTAL             VOTING PRECINCT 8                                      00 
01010010009000000          REGISTERED VOTERS - TOTAL                               REGISTERED VOTERS - TOTAL             VOTING PRECINCT 9                                      00 
01010010010000000          REGISTERED VOTERS - TOTAL                               REGISTERED VOTERS - TOTAL             VOTING PRECINCT 10                                     00 
01010010011000000          REGISTERED VOTERS - TOTAL                               REGISTERED VOTERS - TOTAL             VOTING PRECINCT 11                                     00 
01010010012000000          REGISTERED VOTERS - TOTAL                               REGISTERED VOTERS - TOTAL             VOTING PRECINCT 18                                     00 
01010010013000000          REGISTERED VOTERS - TOTAL                               REGISTERED VOTERS - TOTAL             VOTING PRECINCT 13                                     00 
01010010014000000          REGISTERED VOTERS - TOTAL                               REGISTERED VOTERS - TOTAL             VOTING PRECINCT 14                                     00 
01010010015000000          REGISTERED VOTERS - TOTAL                               REGISTERED VOTERS - TOTAL             VOTING PRECINCT 15                                     00 
01010010016000000          REGISTERED VOTERS - TOTAL                               REGISTERED VOTERS - TOTAL             VOTING PRECINCT 16                                     00 
01010010017000000          REGISTERED VOTERS - TOTAL                               REGISTERED VOTERS - TOTAL             VOTING PRECINCT 17                                     00 
01020010001000235          BALLOTS CAST - TOTAL                                    BALLOTS CAST - TOTAL                  VOTING PRECINCT 1                                      00 
01020010002000222          BALLOTS CAST - TOTAL                                    BALLOTS CAST - TOTAL                  VOTING PRECINCT 2                                      00 
01020010003000362          BALLOTS CAST - TOTAL                                    BALLOTS CAST - TOTAL                  VOTING PRECINCT 3                                      00 
01020010004000295          BALLOTS CAST - TOTAL                                    BALLOTS CAST - TOTAL                  VOTING PRECINCT 4                                      00 
01020010005000057          BALLOTS CAST - TOTAL                                    BALLOTS CAST - TOTAL                  VOTING PRECINCT 5                                      00 
01020010006000102          BALLOTS CAST - TOTAL                                    BALLOTS CAST - TOTAL                  VOTING PRECINCT 6                                      00 
01020010007000269          BALLOTS CAST - TOTAL                                    BALLOTS CAST - TOTAL                  VOTING PRECINCT 7                                      00 
01020010008000101          BALLOTS CAST - TOTAL                                    BALLOTS CAST - TOTAL                  VOTING PRECINCT 8                                      00 
01020010009000092          BALLOTS CAST - TOTAL                                    BALLOTS CAST - TOTAL                  VOTING PRECINCT 9                                      00 
01020010010000355          BALLOTS CAST - TOTAL                                    BALLOTS CAST - TOTAL                  VOTING PRECINCT 10                                     00 
01020010011000032          BALLOTS CAST - TOTAL                                    BALLOTS CAST - TOTAL                  VOTING PRECINCT 11                                     00 
01020010012000519          BALLOTS CAST - TOTAL                                    BALLOTS CAST - TOTAL                  VOTING PRECINCT 18                                     00 
01020010013000163          BALLOTS CAST - TOTAL                                    BALLOTS CAST - TOTAL                  VOTING PRECINCT 13                                     00 
01020010014000507          BALLOTS CAST - TOTAL                                    BALLOTS CAST - TOTAL                  VOTING PRECINCT 14                                     00 
01020010015000254          BALLOTS CAST - TOTAL                                    BALLOTS CAST - TOTAL                  VOTING PRECINCT 15                                     00 
01020010016000127          BALLOTS CAST - TOTAL                                    BALLOTS CAST - TOTAL                  VOTING PRECINCT 16                                     00 
01020010017000147          BALLOTS CAST - TOTAL                                    BALLOTS CAST - TOTAL                  VOTING PRECINCT 17                                     00 
01030010001000220REP       BALLOTS CAST - REPUBLICAN PARTY                         BALLOTS CAST - REPUBLICAN PARTY       VOTING PRECINCT 1                                      00 
01030010002000197REP       BALLOTS CAST - REPUBLICAN PARTY                         BALLOTS CAST - REPUBLICAN PARTY       VOTING PRECINCT 2                                      00 
01030010003000309REP       BALLOTS CAST - REPUBLICAN PARTY                         BALLOTS CAST - REPUBLICAN PARTY       VOTING PRECINCT 3                                      00 
01030010004000276REP       BALLOTS CAST - REPUBLICAN PARTY                         BALLOTS CAST - REPUBLICAN PARTY       VOTING PRECINCT 4                                      00 
01030010005000041REP       BALLOTS CAST - REPUBLICAN PARTY                         BALLOTS CAST - REPUBLICAN PARTY       VOTING PRECINCT 5                                      00 
01030010006000094REP       BALLOTS CAST - REPUBLICAN PARTY                         BALLOTS CAST - REPUBLICAN PARTY       VOTING PRECINCT 6                                      00 
01030010007000263REP       BALLOTS CAST - REPUBLICAN PARTY                         BALLOTS CAST - REPUBLICAN PARTY       VOTING PRECINCT 7                                      00 
01030010008000098REP       BALLOTS CAST - REPUBLICAN PARTY                         BALLOTS CAST - REPUBLICAN PARTY       VOTING PRECINCT 8                                      00 
01030010009000085REP       BALLOTS CAST - REPUBLICAN PARTY                         BALLOTS CAST - REPUBLICAN PARTY       VOTING PRECINCT 9                                      00 
01030010010000320REP       BALLOTS CAST - REPUBLICAN PARTY                         BALLOTS CAST - REPUBLICAN PARTY       VOTING PRECINCT 10                                     00 
01030010011000032REP       BALLOTS CAST - REPUBLICAN PARTY                         BALLOTS CAST - REPUBLICAN PARTY       VOTING PRECINCT 11                                     00 
01030010012000485REP       BALLOTS CAST - REPUBLICAN PARTY                         BALLOTS CAST - REPUBLICAN PARTY       VOTING PRECINCT 18                                     00 
01030010013000144REP       BALLOTS CAST - REPUBLICAN PARTY                         BALLOTS CAST - REPUBLICAN PARTY       VOTING PRECINCT 13                                     00 
01030010014000472REP       BALLOTS CAST - REPUBLICAN PARTY                         BALLOTS CAST - REPUBLICAN PARTY       VOTING PRECINCT 14                                     00 
01030010015000232REP       BALLOTS CAST - REPUBLICAN PARTY                         BALLOTS CAST - REPUBLICAN PARTY       VOTING PRECINCT 15                                     00 
01030010016000116REP       BALLOTS CAST - REPUBLICAN PARTY                         BALLOTS CAST - REPUBLICAN PARTY       VOTING PRECINCT 16                                     00 
01030010017000127REP       BALLOTS CAST - REPUBLICAN PARTY                         BALLOTS CAST - REPUBLICAN PARTY       VOTING PRECINCT 17                                     00 
01040010001000015DEM       BALLOTS CAST - DEMOCRATIC PARTY                         BALLOTS CAST - DEMOCRATIC PARTY       VOTING PRECINCT 1                                      00 
01040010002000025DEM       BALLOTS CAST - DEMOCRATIC PARTY                         BALLOTS CAST - DEMOCRATIC PARTY       VOTING PRECINCT 2                                      00 
01040010003000054DEM       BALLOTS CAST - DEMOCRATIC PARTY                         BALLOTS CAST - DEMOCRATIC PARTY       VOTING PRECINCT 3                                      00 
01040010004000019DEM       BALLOTS CAST - DEMOCRATIC PARTY                         BALLOTS CAST - DEMOCRATIC PARTY       VOTING PRECINCT 4                                      00 
01040010005000016DEM       BALLOTS CAST - DEMOCRATIC PARTY                         BALLOTS CAST - DEMOCRATIC PARTY       VOTING PRECINCT 5                                      00 
01040010006000008DEM       BALLOTS CAST - DEMOCRATIC PARTY                         BALLOTS CAST - DEMOCRATIC PARTY       VOTING PRECINCT 6                                      00 
01040010007000007DEM       BALLOTS CAST - DEMOCRATIC PARTY                         BALLOTS CAST - DEMOCRATIC PARTY       VOTING PRECINCT 7                                      00 
01040010008000003DEM       BALLOTS CAST - DEMOCRATIC PARTY                         BALLOTS CAST - DEMOCRATIC PARTY       VOTING PRECINCT 8                                      00 
01040010009000008DEM       BALLOTS CAST - DEMOCRATIC PARTY                         BALLOTS CAST - DEMOCRATIC PARTY       VOTING PRECINCT 9                                      00 
01040010010000038DEM       BALLOTS CAST - DEMOCRATIC PARTY                         BALLOTS CAST - DEMOCRATIC PARTY       VOTING PRECINCT 10                                     00 
01040010011000000DEM       BALLOTS CAST - DEMOCRATIC PARTY                         BALLOTS CAST - DEMOCRATIC PARTY       VOTING PRECINCT 11                                     00 
01040010012000035DEM       BALLOTS CAST - DEMOCRATIC PARTY                         BALLOTS CAST - DEMOCRATIC PARTY       VOTING PRECINCT 18                                     00 
01040010013000019DEM       BALLOTS CAST - DEMOCRATIC PARTY                         BALLOTS CAST - DEMOCRATIC PARTY       VOTING PRECINCT 13                                     00 
01040010014000039DEM       BALLOTS CAST - DEMOCRATIC PARTY                         BALLOTS CAST - DEMOCRATIC PARTY       VOTING PRECINCT 14                                     00 
01040010015000022DEM       BALLOTS CAST - DEMOCRATIC PARTY                         BALLOTS CAST - DEMOCRATIC PARTY       VOTING PRECINCT 15                                     00 
01040010016000011DEM       BALLOTS CAST - DEMOCRATIC PARTY                         BALLOTS CAST - DEMOCRATIC PARTY       VOTING PRECINCT 16                                     00 
01040010017000020DEM       BALLOTS CAST - DEMOCRATIC PARTY                         BALLOTS CAST - DEMOCRATIC PARTY       VOTING PRECINCT 17                                     00 
01050010001000004REP       United States Senator                                   Geraldine Sam                         VOTING PRECINCT 1                                      01 
01050010002000007REP       United States Senator                                   Geraldine Sam                         VOTING PRECINCT 2                                      01 
01050010003000007REP       United States Senator                                   Geraldine Sam                         VOTING PRECINCT 3                                      01 
01050010004000003REP       United States Senator                                   Geraldine Sam                         VOTING PRECINCT 4                                      01 
01050010005000004REP       United States Senator                                   Geraldine Sam                         VOTING PRECINCT 5                                      01 
01050010006000001REP       United States Senator                                   Geraldine Sam                         VOTING PRECINCT 6                                      01 
01050010007000007REP       United States Senator                                   Geraldine Sam                         VOTING PRECINCT 7                                      01 
01050010008000002REP       United States Senator                                   Geraldine Sam                         VOTING PRECINCT 8                                      01 
01050010009000001REP       United States Senator                                   Geraldine Sam                         VOTING PRECINCT 9                                      01 
01050010010000004REP       United States Senator                                   Geraldine Sam                         VOTING PRECINCT 10                                     01 
01050010011000002REP       United States Senator                                   Geraldine Sam                         VOTING PRECINCT 11                                     01 
01050010012000006REP       United States Senator                                   Geraldine Sam                         VOTING PRECINCT 18                                     01 
01050010013000006REP       United States Senator                                   Geraldine Sam                         VOTING PRECINCT 13                                     01 
01050010014000004REP       United States Senator                                   Geraldine Sam                         VOTING PRECINCT 14                                     01 
01050010015000006REP       United States Senator                                   Geraldine Sam                         VOTING PRECINCT 15                                     01 
01050010016000004REP       United States Senator                                   Geraldine Sam                         VOTING PRECINCT 16                                     01 
01050010017000002REP       United States Senator                                   Geraldine Sam                         VOTING PRECINCT 17                                     01 
01050020001000001REP       United States Senator                                   Stefano de Stefano                    VOTING PRECINCT 1                                      01 
01050020002000001REP       United States Senator                                   Stefano de Stefano                    VOTING PRECINCT 2                                      01 
01050020003000003REP       United States Senator                                   Stefano de Stefano                    VOTING PRECINCT 3                                      01 
01050020004000005REP       United States Senator                                   Stefano de Stefano                    VOTING PRECINCT 4                                      01 
01050020005000002REP       United States Senator                                   Stefano de Stefano                    VOTING PRECINCT 5                                      01 
01050020006000000REP       United States Senator                                   Stefano de Stefano                    VOTING PRECINCT 6                                      01 
01050020007000001REP       United States Senator                                   Stefano de Stefano                    VOTING PRECINCT 7                                      01 
01050020008000003REP       United States Senator                                   Stefano de Stefano                    VOTING PRECINCT 8                                      01 
01050020009000000REP       United States Senator                                   Stefano de Stefano                    VOTING PRECINCT 9                                      01 
01050020010000004REP       United States Senator                                   Stefano de Stefano                    VOTING PRECINCT 10                                     01 
01050020011000000REP       United States Senator                                   Stefano de Stefano                    VOTING PRECINCT 11                                     01 
01050020012000005REP       United States Senator                                   Stefano de Stefano                    VOTING PRECINCT 18                                     01 
01050020013000001REP       United States Senator                                   Stefano de Stefano                    VOTING PRECINCT 13                                     01 
01050020014000002REP       United States Senator                                   Stefano de Stefano                    VOTING PRECINCT 14                                     01 
01050020015000003REP       United States Senator                                   Stefano de Stefano                    VOTING PRECINCT 15                                     01 
01050020016000001REP       United States Senator                                   Stefano de Stefano                    VOTING PRECINCT 16                                     01 
01050020017000003REP       United States Senator                                   Stefano de Stefano                    VOTING PRECINCT 17                                     01 
01050030001000007REP       United States Senator                                   Mary Miller                           VOTING PRECINCT 1                                      01 
01050030002000014REP       United States Senator                                   Mary Miller                           VOTING PRECINCT 2                                      01 
01050030003000019REP       United States Senator                                   Mary Miller                           VOTING PRECINCT 3                                      01 
01050030004000013REP       United States Senator                                   Mary Miller                           VOTING PRECINCT 4                                      01 
01050030005000001REP       United States Senator                                   Mary Miller                           VOTING PRECINCT 5                                      01 
01050030006000005REP       United States Senator                                   Mary Miller                           VOTING PRECINCT 6                                      01 
01050030007000009REP       United States Senator                                   Mary Miller                           VOTING PRECINCT 7                                      01 
01050030008000003REP       United States Senator                                   Mary Miller                           VOTING PRECINCT 8                                      01 
01050030009000004REP       United States Senator                                   Mary Miller                           VOTING PRECINCT 9                                      01 
01050030010000013REP       United States Senator                                   Mary Miller                           VOTING PRECINCT 10                                     01 
01050030011000001REP       United States Senator                                   Mary Miller                           VOTING PRECINCT 11                                     01 
01050030012000028REP       United States Senator                                   Mary Miller                           VOTING PRECINCT 18                                     01 
01050030013000008REP       United States Senator                                   Mary Miller                           VOTING PRECINCT 13                                     01 
01050030014000021REP       United States Senator                                   Mary Miller                           VOTING PRECINCT 14                                     01 
01050030015000010REP       United States Senator                                   Mary Miller                           VOTING PRECINCT 15                                     01 
01050030016000003REP       United States Senator                                   Mary Miller                           VOTING PRECINCT 16                                     01 
01050030017000008REP       United States Senator                                   Mary Miller                           VOTING PRECINCT 17                                     01 
01050040001000181REP       United States Senator                                   Ted Cruz                              VOTING PRECINCT 1                                      01 
01050040002000146REP       United States Senator                                   Ted Cruz                              VOTING PRECINCT 2                                      01 
01050040003000246REP       United States Senator                                   Ted Cruz                              VOTING PRECINCT 3                                      01 
01050040004000225REP       United States Senator                                   Ted Cruz                              VOTING PRECINCT 4                                      01 
01050040005000031REP       United States Senator                                   Ted Cruz                              VOTING PRECINCT 5                                      01 
01050040006000084REP       United States Senator                                   Ted Cruz                              VOTING PRECINCT 6                                      01 
01050040007000221REP       United States Senator                                   Ted Cruz                              VOTING PRECINCT 7                                      01 
01050040008000077REP       United States Senator                                   Ted Cruz                              VOTING PRECINCT 8                                      01 
01050040009000074REP       United States Senator                                   Ted Cruz                              VOTING PRECINCT 9                                      01 
01050040010000259REP       United States Senator                                   Ted Cruz                              VOTING PRECINCT 10                                     01 
01050040011000027REP       United States Senator                                   Ted Cruz                              VOTING PRECINCT 11                                     01 
01050040012000398REP       United States Senator                                   Ted Cruz                              VOTING PRECINCT 18                                     01 
01050040013000115REP       United States Senator                                   Ted Cruz                              VOTING PRECINCT 13                                     01 
01050040014000388REP       United States Senator                                   Ted Cruz                              VOTING PRECINCT 14                                     01 
01050040015000188REP       United States Senator                                   Ted Cruz                              VOTING PRECINCT 15                                     01 
01050040016000101REP       United States Senator                                   Ted Cruz                              VOTING PRECINCT 16                                     01 
01050040017000092REP       United States Senator                                   Ted Cruz                              VOTING PRECINCT 17                                     01 
01050050001000007REP       United States Senator                                   Bruce Jacobson, Jr.                   VOTING PRECINCT 1                                      01 
01050050002000010REP       United States Senator                                   Bruce Jacobson, Jr.                   VOTING PRECINCT 2                                      01 
01050050003000010REP       United States Senator                                   Bruce Jacobson, Jr.                   VOTING PRECINCT 3                                      01 
01050050004000008REP       United States Senator                                   Bruce Jacobson, Jr.                   VOTING PRECINCT 4                                      01 
01050050005000001REP       United States Senator                                   Bruce Jacobson, Jr.                   VOTING PRECINCT 5                                      01 
01050050006000001REP       United States Senator                                   Bruce Jacobson, Jr.                   VOTING PRECINCT 6                                      01 
01050050007000004REP       United States Senator                                   Bruce Jacobson, Jr.                   VOTING PRECINCT 7                                      01 
01050050008000008REP       United States Senator                                   Bruce Jacobson, Jr.                   VOTING PRECINCT 8                                      01 
01050050009000005REP       United States Senator                                   Bruce Jacobson, Jr.                   VOTING PRECINCT 9                                      01 
01050050010000012REP       United States Senator                                   Bruce Jacobson, Jr.                   VOTING PRECINCT 10                                     01 
01050050011000001REP       United States Senator                                   Bruce Jacobson, Jr.                   VOTING PRECINCT 11                                     01 
01050050012000018REP       United States Senator                                   Bruce Jacobson, Jr.                   VOTING PRECINCT 18                                     01 
01050050013000007REP       United States Senator                                   Bruce Jacobson, Jr.                   VOTING PRECINCT 13                                     01 
01050050014000025REP       United States Senator                                   Bruce Jacobson, Jr.                   VOTING PRECINCT 14                                     01 
01050050015000012REP       United States Senator                                   Bruce Jacobson, Jr.                   VOTING PRECINCT 15                                     01 
01050050016000005REP       United States Senator                                   Bruce Jacobson, Jr.                   VOTING PRECINCT 16                                     01 
01050050017000009REP       United States Senator                                   Bruce Jacobson, Jr.                   VOTING PRECINCT 17                                     01 
01050060001000000REP       United States Senator                                   OVER VOTES                            VOTING PRECINCT 1                                      01 
01050060002000000REP       United States Senator                                   OVER VOTES                            VOTING PRECINCT 2                                      01 
01050060003000000REP       United States Senator                                   OVER VOTES                            VOTING PRECINCT 3                                      01 
01050060004000000REP       United States Senator                                   OVER VOTES                            VOTING PRECINCT 4                                      01 
01050060005000000REP       United States Senator                                   OVER VOTES                            VOTING PRECINCT 5                                      01 
01050060006000000REP       United States Senator                                   OVER VOTES                            VOTING PRECINCT 6                                      01 
01050060007000000REP       United States Senator                                   OVER VOTES                            VOTING PRECINCT 7                                      01 
01050060008000000REP       United States Senator                                   OVER VOTES                            VOTING PRECINCT 8                                      01 
01050060009000000REP       United States Senator                                   OVER VOTES                            VOTING PRECINCT 9                                      01 
01050060010000000REP       United States Senator                                   OVER VOTES                            VOTING PRECINCT 10                                     01 
01050060011000000REP       United States Senator                                   OVER VOTES                            VOTING PRECINCT 11                                     01 
01050060012000000REP       United States Senator                                   OVER VOTES                            VOTING PRECINCT 18                                     01 
01050060013000000REP       United States Senator                                   OVER VOTES                            VOTING PRECINCT 13                                     01 
01050060014000000REP       United States Senator                                   OVER VOTES                            VOTING PRECINCT 14                                     01 
01050060015000000REP       United States Senator                                   OVER VOTES                            VOTING PRECINCT 15                                     01 
01050060016000000REP       United States Senator                                   OVER VOTES                            VOTING PRECINCT 16                                     01 
01050060017000000REP       United States Senator                                   OVER VOTES                            VOTING PRECINCT 17                                     01 
01050070001000020REP       United States Senator                                   UNDER VOTES                           VOTING PRECINCT 1                                      01 
01050070002000019REP       United States Senator                                   UNDER VOTES                           VOTING PRECINCT 2                                      01 
01050070003000024REP       United States Senator                                   UNDER VOTES                           VOTING PRECINCT 3                                      01 
01050070004000022REP       United States Senator                                   UNDER VOTES                           VOTING PRECINCT 4                                      01 
01050070005000002REP       United States Senator                                   UNDER VOTES                           VOTING PRECINCT 5                                      01 
01050070006000003REP       United States Senator                                   UNDER VOTES                           VOTING PRECINCT 6                                      01 
01050070007000021REP       United States Senator                                   UNDER VOTES                           VOTING PRECINCT 7                                      01 
01050070008000005REP       United States Senator                                   UNDER VOTES                           VOTING PRECINCT 8                                      01 
01050070009000001REP       United States Senator                                   UNDER VOTES                           VOTING PRECINCT 9                                      01 
01050070010000026REP       United States Senator                                   UNDER VOTES                           VOTING PRECINCT 10                                     01 
01050070011000001REP       United States Senator                                   UNDER VOTES                           VOTING PRECINCT 11                                     01 
01050070012000030REP       United States Senator                                   UNDER VOTES                           VOTING PRECINCT 18                                     01 
01050070013000007REP       United States Senator                                   UNDER VOTES                           VOTING PRECINCT 13                                     01 
01050070014000032REP       United States Senator                                   UNDER VOTES                           VOTING PRECINCT 14                                     01 
01050070015000013REP       United States Senator                                   UNDER VOTES                           VOTING PRECINCT 15                                     01 
01050070016000002REP       United States Senator                                   UNDER VOTES                           VOTING PRECINCT 16                                     01 
01050070017000013REP       United States Senator                                   UNDER VOTES                           VOTING PRECINCT 17                                     01 
01060010001000195REP       US Representative, District 36                          Brian Babin                           VOTING PRECINCT 1                                      01 
01060010002000169REP       US Representative, District 36                          Brian Babin                           VOTING PRECINCT 2                                      01 
01060010003000265REP       US Representative, District 36                          Brian Babin                           VOTING PRECINCT 3                                      01 
01060010004000238REP       US Representative, District 36                          Brian Babin                           VOTING PRECINCT 4                                      01 
01060010005000035REP       US Representative, District 36                          Brian Babin                           VOTING PRECINCT 5                                      01 
01060010006000085REP       US Representative, District 36                          Brian Babin                           VOTING PRECINCT 6                                      01 
01060010007000230REP       US Representative, District 36                          Brian Babin                           VOTING PRECINCT 7                                      01 
01060010008000083REP       US Representative, District 36                          Brian Babin                           VOTING PRECINCT 8                                      01 
01060010009000075REP       US Representative, District 36                          Brian Babin                           VOTING PRECINCT 9                                      01 
01060010010000275REP       US Representative, District 36                          Brian Babin                           VOTING PRECINCT 10                                     01 
01060010011000029REP       US Representative, District 36                          Brian Babin                           VOTING PRECINCT 11                                     01 
01060010012000441REP       US Representative, District 36                          Brian Babin                           VOTING PRECINCT 18                                     01 
01060010013000133REP       US Representative, District 36                          Brian Babin                           VOTING PRECINCT 13                                     01 
01060010014000431REP       US Representative, District 36                          Brian Babin                           VOTING PRECINCT 14                                     01 
01060010015000209REP       US Representative, District 36                          Brian Babin                           VOTING PRECINCT 15                                     01 
01060010016000099REP       US Representative, District 36                          Brian Babin                           VOTING PRECINCT 16                                     01 
01060010017000116REP       US Representative, District 36                          Brian Babin                           VOTING PRECINCT 17                                     01 
01060020001000000REP       US Representative, District 36                          OVER VOTES                            VOTING PRECINCT 1                                      01 
01060020002000000REP       US Representative, District 36                          OVER VOTES                            VOTING PRECINCT 2                                      01 
01060020003000000REP       US Representative, District 36                          OVER VOTES                            VOTING PRECINCT 3                                      01 
01060020004000000REP       US Representative, District 36                          OVER VOTES                            VOTING PRECINCT 4                                      01 
01060020005000000REP       US Representative, District 36                          OVER VOTES                            VOTING PRECINCT 5                                      01 
01060020006000000REP       US Representative, District 36                          OVER VOTES                            VOTING PRECINCT 6                                      01 
01060020007000000REP       US Representative, District 36                          OVER VOTES                            VOTING PRECINCT 7                                      01 
01060020008000000REP       US Representative, District 36                          OVER VOTES                            VOTING PRECINCT 8                                      01 
01060020009000000REP       US Representative, District 36                          OVER VOTES                            VOTING PRECINCT 9                                      01 
01060020010000000REP       US Representative, District 36                          OVER VOTES                            VOTING PRECINCT 10                                     01 
01060020011000000REP       US Representative, District 36                          OVER VOTES                            VOTING PRECINCT 11                                     01 
01060020012000000REP       US Representative, District 36                          OVER VOTES                            VOTING PRECINCT 18                                     01 
01060020013000000REP       US Representative, District 36                          OVER VOTES                            VOTING PRECINCT 13                                     01 
01060020014000000REP       US Representative, District 36                          OVER VOTES                            VOTING PRECINCT 14                                     01 
01060020015000000REP       US Representative, District 36                          OVER VOTES                            VOTING PRECINCT 15                                     01 
01060020016000000REP       US Representative, District 36                          OVER VOTES                            VOTING PRECINCT 16                                     01 
01060020017000000REP       US Representative, District 36                          OVER VOTES                            VOTING PRECINCT 17                                     01 
01060030001000025REP       US Representative, District 36                          UNDER VOTES                           VOTING PRECINCT 1                                      01 
01060030002000028REP       US Representative, District 36                          UNDER VOTES                           VOTING PRECINCT 2                                      01 
01060030003000044REP       US Representative, District 36                          UNDER VOTES                           VOTING PRECINCT 3                                      01 
01060030004000038REP       US Representative, District 36                          UNDER VOTES                           VOTING PRECINCT 4                                      01 
01060030005000006REP       US Representative, District 36                          UNDER VOTES                           VOTING PRECINCT 5                                      01 
01060030006000009REP       US Representative, District 36                          UNDER VOTES                           VOTING PRECINCT 6                                      01 
01060030007000033REP       US Representative, District 36                          UNDER VOTES                           VOTING PRECINCT 7                                      01 
01060030008000015REP       US Representative, District 36                          UNDER VOTES                           VOTING PRECINCT 8                                      01 
01060030009000010REP       US Representative, District 36                          UNDER VOTES                           VOTING PRECINCT 9                                      01 
01060030010000045REP       US Representative, District 36                          UNDER VOTES                           VOTING PRECINCT 10                                     01 
01060030011000003REP       US Representative, District 36                          UNDER VOTES                           VOTING PRECINCT 11                                     01 
01060030012000044REP       US Representative, District 36                          UNDER VOTES                           VOTING PRECINCT 18                                     01 
01060030013000011REP       US Representative, District 36                          UNDER VOTES                           VOTING PRECINCT 13                                     01 
01060030014000041REP       US Representative, District 36                          UNDER VOTES                           VOTING PRECINCT 14                                     01 
01060030015000023REP       US Representative, District 36                          UNDER VOTES                           VOTING PRECINCT 15                                     01 
01060030016000017REP       US Representative, District 36                          UNDER VOTES                           VOTING PRECINCT 16                                     01 
01060030017000011REP       US Representative, District 36                          UNDER VOTES                           VOTING PRECINCT 17                                     01 
01070010001000185REP       Govenor                                                 Greg Abbott                           VOTING PRECINCT 1                                      01 
01070010002000173REP       Govenor                                                 Greg Abbott                           VOTING PRECINCT 2                                      01 
01070010003000261REP       Govenor                                                 Greg Abbott                           VOTING PRECINCT 3                                      01 
01070010004000233REP       Govenor                                                 Greg Abbott                           VOTING PRECINCT 4                                      01 
01070010005000035REP       Govenor                                                 Greg Abbott                           VOTING PRECINCT 5                                      01 
01070010006000090REP       Govenor                                                 Greg Abbott                           VOTING PRECINCT 6                                      01 
01070010007000220REP       Govenor                                                 Greg Abbott                           VOTING PRECINCT 7                                      01 
01070010008000090REP       Govenor                                                 Greg Abbott                           VOTING PRECINCT 8                                      01 
01070010009000083REP       Govenor                                                 Greg Abbott                           VOTING PRECINCT 9                                      01 
01070010010000284REP       Govenor                                                 Greg Abbott                           VOTING PRECINCT 10                                     01 
01070010011000031REP       Govenor                                                 Greg Abbott                           VOTING PRECINCT 11                                     01 
01070010012000399REP       Govenor                                                 Greg Abbott                           VOTING PRECINCT 18                                     01 
01070010013000131REP       Govenor                                                 Greg Abbott                           VOTING PRECINCT 13                                     01 
01070010014000427REP       Govenor                                                 Greg Abbott                           VOTING PRECINCT 14                                     01 
01070010015000200REP       Govenor                                                 Greg Abbott                           VOTING PRECINCT 15                                     01 
01070010016000100REP       Govenor                                                 Greg Abbott                           VOTING PRECINCT 16                                     01 
01070010017000106REP       Govenor                                                 Greg Abbott                           VOTING PRECINCT 17                                     01 
01070020001000005REP       Govenor                                                 SECEDE Kilgore                        VOTING PRECINCT 1                                      01 
01070020002000004REP       Govenor                                                 SECEDE Kilgore                        VOTING PRECINCT 2                                      01 
01070020003000005REP       Govenor                                                 SECEDE Kilgore                        VOTING PRECINCT 3                                      01 
01070020004000007REP       Govenor                                                 SECEDE Kilgore                        VOTING PRECINCT 4                                      01 
01070020005000000REP       Govenor                                                 SECEDE Kilgore                        VOTING PRECINCT 5                                      01 
01070020006000000REP       Govenor                                                 SECEDE Kilgore                        VOTING PRECINCT 6                                      01 
01070020007000005REP       Govenor                                                 SECEDE Kilgore                        VOTING PRECINCT 7                                      01 
01070020008000001REP       Govenor                                                 SECEDE Kilgore                        VOTING PRECINCT 8                                      01 
01070020009000001REP       Govenor                                                 SECEDE Kilgore                        VOTING PRECINCT 9                                      01 
01070020010000005REP       Govenor                                                 SECEDE Kilgore                        VOTING PRECINCT 10                                     01 
01070020011000000REP       Govenor                                                 SECEDE Kilgore                        VOTING PRECINCT 11                                     01 
01070020012000011REP       Govenor                                                 SECEDE Kilgore                        VOTING PRECINCT 18                                     01 
01070020013000001REP       Govenor                                                 SECEDE Kilgore                        VOTING PRECINCT 13                                     01 
01070020014000009REP       Govenor                                                 SECEDE Kilgore                        VOTING PRECINCT 14                                     01 
01070020015000004REP       Govenor                                                 SECEDE Kilgore                        VOTING PRECINCT 15                                     01 
01070020016000002REP       Govenor                                                 SECEDE Kilgore                        VOTING PRECINCT 16                                     01 
01070020017000002REP       Govenor                                                 SECEDE Kilgore                        VOTING PRECINCT 17                                     01 
01070030001000017REP       Govenor                                                 Barbara Krueger                       VOTING PRECINCT 1                                      01 
01070030002000014REP       Govenor                                                 Barbara Krueger                       VOTING PRECINCT 2                                      01 
01070030003000024REP       Govenor                                                 Barbara Krueger                       VOTING PRECINCT 3                                      01 
01070030004000020REP       Govenor                                                 Barbara Krueger                       VOTING PRECINCT 4                                      01 
01070030005000006REP       Govenor                                                 Barbara Krueger                       VOTING PRECINCT 5                                      01 
01070030006000001REP       Govenor                                                 Barbara Krueger                       VOTING PRECINCT 6                                      01 
01070030007000016REP       Govenor                                                 Barbara Krueger                       VOTING PRECINCT 7                                      01 
01070030008000006REP       Govenor                                                 Barbara Krueger                       VOTING PRECINCT 8                                      01 
01070030009000001REP       Govenor                                                 Barbara Krueger                       VOTING PRECINCT 9                                      01 
01070030010000013REP       Govenor                                                 Barbara Krueger                       VOTING PRECINCT 10                                     01 
01070030011000000REP       Govenor                                                 Barbara Krueger                       VOTING PRECINCT 11                                     01 
01070030012000052REP       Govenor                                                 Barbara Krueger                       VOTING PRECINCT 18                                     01 
01070030013000006REP       Govenor                                                 Barbara Krueger                       VOTING PRECINCT 13                                     01 
01070030014000018REP       Govenor                                                 Barbara Krueger                       VOTING PRECINCT 14                                     01 
01070030015000016REP       Govenor                                                 Barbara Krueger                       VOTING PRECINCT 15                                     01 
01070030016000009REP       Govenor                                                 Barbara Krueger                       VOTING PRECINCT 16                                     01 
01070030017000011REP       Govenor                                                 Barbara Krueger                       VOTING PRECINCT 17                                     01 
01070040001000000REP       Govenor                                                 OVER VOTES                            VOTING PRECINCT 1                                      01 
01070040002000000REP       Govenor                                                 OVER VOTES                            VOTING PRECINCT 2                                      01 
01070040003000000REP       Govenor                                                 OVER VOTES                            VOTING PRECINCT 3                                      01 
01070040004000000REP       Govenor                                                 OVER VOTES                            VOTING PRECINCT 4                                      01 
01070040005000000REP       Govenor                                                 OVER VOTES                            VOTING PRECINCT 5                                      01 
01070040006000000REP       Govenor                                                 OVER VOTES                            VOTING PRECINCT 6                                      01 
01070040007000000REP       Govenor                                                 OVER VOTES                            VOTING PRECINCT 7                                      01 
01070040008000000REP       Govenor                                                 OVER VOTES                            VOTING PRECINCT 8                                      01 
01070040009000000REP       Govenor                                                 OVER VOTES                            VOTING PRECINCT 9                                      01 
01070040010000000REP       Govenor                                                 OVER VOTES                            VOTING PRECINCT 10                                     01 
01070040011000000REP       Govenor                                                 OVER VOTES                            VOTING PRECINCT 11                                     01 
01070040012000000REP       Govenor                                                 OVER VOTES                            VOTING PRECINCT 18                                     01 
01070040013000000REP       Govenor                                                 OVER VOTES                            VOTING PRECINCT 13                                     01 
01070040014000000REP       Govenor                                                 OVER VOTES                            VOTING PRECINCT 14                                     01 
01070040015000000REP       Govenor                                                 OVER VOTES                            VOTING PRECINCT 15                                     01 
01070040016000000REP       Govenor                                                 OVER VOTES                            VOTING PRECINCT 16                                     01 
01070040017000000REP       Govenor                                                 OVER VOTES                            VOTING PRECINCT 17                                     01 
01070050001000013REP       Govenor                                                 UNDER VOTES                           VOTING PRECINCT 1                                      01 
01070050002000006REP       Govenor                                                 UNDER VOTES                           VOTING PRECINCT 2                                      01 
01070050003000019REP       Govenor                                                 UNDER VOTES                           VOTING PRECINCT 3                                      01 
01070050004000016REP       Govenor                                                 UNDER VOTES                           VOTING PRECINCT 4                                      01 
01070050005000000REP       Govenor                                                 UNDER VOTES                           VOTING PRECINCT 5                                      01 
01070050006000003REP       Govenor                                                 UNDER VOTES                           VOTING PRECINCT 6                                      01 
01070050007000022REP       Govenor                                                 UNDER VOTES                           VOTING PRECINCT 7                                      01 
01070050008000001REP       Govenor                                                 UNDER VOTES                           VOTING PRECINCT 8                                      01 
01070050009000000REP       Govenor                                                 UNDER VOTES                           VOTING PRECINCT 9                                      01 
01070050010000018REP       Govenor                                                 UNDER VOTES                           VOTING PRECINCT 10                                     01 
01070050011000001REP       Govenor                                                 UNDER VOTES                           VOTING PRECINCT 11                                     01 
01070050012000023REP       Govenor                                                 UNDER VOTES                           VOTING PRECINCT 18                                     01 
01070050013000006REP       Govenor                                                 UNDER VOTES                           VOTING PRECINCT 13                                     01 
01070050014000018REP       Govenor                                                 UNDER VOTES                           VOTING PRECINCT 14                                     01 
01070050015000012REP       Govenor                                                 UNDER VOTES                           VOTING PRECINCT 15                                     01 
01070050016000005REP       Govenor                                                 UNDER VOTES                           VOTING PRECINCT 16                                     01 
01070050017000008REP       Govenor                                                 UNDER VOTES                           VOTING PRECINCT 17                                     01 
01080010001000139REP       Lieutenant Governor                                     Dan Patrick                           VOTING PRECINCT 1                                      01 
01080010002000131REP       Lieutenant Governor                                     Dan Patrick                           VOTING PRECINCT 2                                      01 
01080010003000215REP       Lieutenant Governor                                     Dan Patrick                           VOTING PRECINCT 3                                      01 
01080010004000180REP       Lieutenant Governor                                     Dan Patrick                           VOTING PRECINCT 4                                      01 
01080010005000032REP       Lieutenant Governor                                     Dan Patrick                           VOTING PRECINCT 5                                      01 
01080010006000067REP       Lieutenant Governor                                     Dan Patrick                           VOTING PRECINCT 6                                      01 
01080010007000166REP       Lieutenant Governor                                     Dan Patrick                           VOTING PRECINCT 7                                      01 
01080010008000076REP       Lieutenant Governor                                     Dan Patrick                           VOTING PRECINCT 8                                      01 
01080010009000071REP       Lieutenant Governor                                     Dan Patrick                           VOTING PRECINCT 9                                      01 
01080010010000206REP       Lieutenant Governor                                     Dan Patrick                           VOTING PRECINCT 10                                     01 
01080010011000024REP       Lieutenant Governor                                     Dan Patrick                           VOTING PRECINCT 11                                     01 
01080010012000307REP       Lieutenant Governor                                     Dan Patrick                           VOTING PRECINCT 18                                     01 
01080010013000116REP       Lieutenant Governor                                     Dan Patrick                           VOTING PRECINCT 13                                     01 
01080010014000316REP       Lieutenant Governor                                     Dan Patrick                           VOTING PRECINCT 14                                     01 
01080010015000156REP       Lieutenant Governor                                     Dan Patrick                           VOTING PRECINCT 15                                     01 
01080010016000081REP       Lieutenant Governor                                     Dan Patrick                           VOTING PRECINCT 16                                     01 
01080010017000073REP       Lieutenant Governor                                     Dan Patrick                           VOTING PRECINCT 17                                     01 
01080020001000056REP       Lieutenant Governor                                     Scott Milder                          VOTING PRECINCT 1                                      01 
01080020002000034REP       Lieutenant Governor                                     Scott Milder                          VOTING PRECINCT 2                                      01 
01080020003000069REP       Lieutenant Governor                                     Scott Milder                          VOTING PRECINCT 3                                      01 
01080020004000067REP       Lieutenant Governor                                     Scott Milder                          VOTING PRECINCT 4                                      01 
01080020005000008REP       Lieutenant Governor                                     Scott Milder                          VOTING PRECINCT 5                                      01 
01080020006000023REP       Lieutenant Governor                                     Scott Milder                          VOTING PRECINCT 6                                      01 
01080020007000066REP       Lieutenant Governor                                     Scott Milder                          VOTING PRECINCT 7                                      01 
01080020008000016REP       Lieutenant Governor                                     Scott Milder                          VOTING PRECINCT 8                                      01 
01080020009000010REP       Lieutenant Governor                                     Scott Milder                          VOTING PRECINCT 9                                      01 
01080020010000078REP       Lieutenant Governor                                     Scott Milder                          VOTING PRECINCT 10                                     01 
01080020011000005REP       Lieutenant Governor                                     Scott Milder                          VOTING PRECINCT 11                                     01 
01080020012000135REP       Lieutenant Governor                                     Scott Milder                          VOTING PRECINCT 18                                     01 
01080020013000016REP       Lieutenant Governor                                     Scott Milder                          VOTING PRECINCT 13                                     01 
01080020014000104REP       Lieutenant Governor                                     Scott Milder                          VOTING PRECINCT 14                                     01 
01080020015000052REP       Lieutenant Governor                                     Scott Milder                          VOTING PRECINCT 15                                     01 
01080020016000027REP       Lieutenant Governor                                     Scott Milder                          VOTING PRECINCT 16                                     01 
01080020017000040REP       Lieutenant Governor                                     Scott Milder                          VOTING PRECINCT 17                                     01 
01080030001000000REP       Lieutenant Governor                                     OVER VOTES                            VOTING PRECINCT 1                                      01 
01080030002000000REP       Lieutenant Governor                                     OVER VOTES                            VOTING PRECINCT 2                                      01 
01080030003000001REP       Lieutenant Governor                                     OVER VOTES                            VOTING PRECINCT 3                                      01 
01080030004000000REP       Lieutenant Governor                                     OVER VOTES                            VOTING PRECINCT 4                                      01 
01080030005000000REP       Lieutenant Governor                                     OVER VOTES                            VOTING PRECINCT 5                                      01 
01080030006000000REP       Lieutenant Governor                                     OVER VOTES                            VOTING PRECINCT 6                                      01 
01080030007000000REP       Lieutenant Governor                                     OVER VOTES                            VOTING PRECINCT 7                                      01 
01080030008000000REP       Lieutenant Governor                                     OVER VOTES                            VOTING PRECINCT 8                                      01 
01080030009000000REP       Lieutenant Governor                                     OVER VOTES                            VOTING PRECINCT 9                                      01 
01080030010000000REP       Lieutenant Governor                                     OVER VOTES                            VOTING PRECINCT 10                                     01 
01080030011000000REP       Lieutenant Governor                                     OVER VOTES                            VOTING PRECINCT 11                                     01 
01080030012000000REP       Lieutenant Governor                                     OVER VOTES                            VOTING PRECINCT 18                                     01 
01080030013000000REP       Lieutenant Governor                                     OVER VOTES                            VOTING PRECINCT 13                                     01 
01080030014000000REP       Lieutenant Governor                                     OVER VOTES                            VOTING PRECINCT 14                                     01 
01080030015000000REP       Lieutenant Governor                                     OVER VOTES                            VOTING PRECINCT 15                                     01 
01080030016000000REP       Lieutenant Governor                                     OVER VOTES                            VOTING PRECINCT 16                                     01 
01080030017000000REP       Lieutenant Governor                                     OVER VOTES                            VOTING PRECINCT 17                                     01 
01080040001000025REP       Lieutenant Governor                                     UNDER VOTES                           VOTING PRECINCT 1                                      01 
01080040002000032REP       Lieutenant Governor                                     UNDER VOTES                           VOTING PRECINCT 2                                      01 
01080040003000024REP       Lieutenant Governor                                     UNDER VOTES                           VOTING PRECINCT 3                                      01 
01080040004000029REP       Lieutenant Governor                                     UNDER VOTES                           VOTING PRECINCT 4                                      01 
01080040005000001REP       Lieutenant Governor                                     UNDER VOTES                           VOTING PRECINCT 5                                      01 
01080040006000004REP       Lieutenant Governor                                     UNDER VOTES                           VOTING PRECINCT 6                                      01 
01080040007000031REP       Lieutenant Governor                                     UNDER VOTES                           VOTING PRECINCT 7                                      01 
01080040008000006REP       Lieutenant Governor                                     UNDER VOTES                           VOTING PRECINCT 8                                      01 
01080040009000004REP       Lieutenant Governor                                     UNDER VOTES                           VOTING PRECINCT 9                                      01 
01080040010000034REP       Lieutenant Governor                                     UNDER VOTES                           VOTING PRECINCT 10                                     01 
01080040011000003REP       Lieutenant Governor                                     UNDER VOTES                           VOTING PRECINCT 11                                     01 
01080040012000042REP       Lieutenant Governor                                     UNDER VOTES                           VOTING PRECINCT 18                                     01 
01080040013000012REP       Lieutenant Governor                                     UNDER VOTES                           VOTING PRECINCT 13                                     01 
01080040014000052REP       Lieutenant Governor                                     UNDER VOTES                           VOTING PRECINCT 14                                     01 
01080040015000024REP       Lieutenant Governor                                     UNDER VOTES                           VOTING PRECINCT 15                                     01 
01080040016000008REP       Lieutenant Governor                                     UNDER VOTES                           VOTING PRECINCT 16                                     01 
01080040017000014REP       Lieutenant Governor                                     UNDER VOTES                           VOTING PRECINCT 17                                     01 
01090010001000160REP       Attorney General                                        Ken Paxton                            VOTING PRECINCT 1                                      01 
01090010002000150REP       Attorney General                                        Ken Paxton                            VOTING PRECINCT 2                                      01 
01090010003000232REP       Attorney General                                        Ken Paxton                            VOTING PRECINCT 3                                      01 
01090010004000215REP       Attorney General                                        Ken Paxton                            VOTING PRECINCT 4                                      01 
01090010005000031REP       Attorney General                                        Ken Paxton                            VOTING PRECINCT 5                                      01 
01090010006000083REP       Attorney General                                        Ken Paxton                            VOTING PRECINCT 6                                      01 
01090010007000194REP       Attorney General                                        Ken Paxton                            VOTING PRECINCT 7                                      01 
01090010008000077REP       Attorney General                                        Ken Paxton                            VOTING PRECINCT 8                                      01 
01090010009000072REP       Attorney General                                        Ken Paxton                            VOTING PRECINCT 9                                      01 
01090010010000236REP       Attorney General                                        Ken Paxton                            VOTING PRECINCT 10                                     01 
01090010011000027REP       Attorney General                                        Ken Paxton                            VOTING PRECINCT 11                                     01 
01090010012000375REP       Attorney General                                        Ken Paxton                            VOTING PRECINCT 18                                     01 
01090010013000125REP       Attorney General                                        Ken Paxton                            VOTING PRECINCT 13                                     01 
01090010014000376REP       Attorney General                                        Ken Paxton                            VOTING PRECINCT 14                                     01 
01090010015000185REP       Attorney General                                        Ken Paxton                            VOTING PRECINCT 15                                     01 
01090010016000092REP       Attorney General                                        Ken Paxton                            VOTING PRECINCT 16                                     01 
01090010017000096REP       Attorney General                                        Ken Paxton                            VOTING PRECINCT 17                                     01 
01090020001000000REP       Attorney General                                        OVER VOTES                            VOTING PRECINCT 1                                      01 
01090020002000000REP       Attorney General                                        OVER VOTES                            VOTING PRECINCT 2                                      01 
01090020003000000REP       Attorney General                                        OVER VOTES                            VOTING PRECINCT 3                                      01 
01090020004000000REP       Attorney General                                        OVER VOTES                            VOTING PRECINCT 4                                      01 
01090020005000000REP       Attorney General                                        OVER VOTES                            VOTING PRECINCT 5                                      01 
01090020006000000REP       Attorney General                                        OVER VOTES                            VOTING PRECINCT 6                                      01 
01090020007000000REP       Attorney General                                        OVER VOTES                            VOTING PRECINCT 7                                      01 
01090020008000000REP       Attorney General                                        OVER VOTES                            VOTING PRECINCT 8                                      01 
01090020009000000REP       Attorney General                                        OVER VOTES                            VOTING PRECINCT 9                                      01 
01090020010000000REP       Attorney General                                        OVER VOTES                            VOTING PRECINCT 10                                     01 
01090020011000000REP       Attorney General                                        OVER VOTES                            VOTING PRECINCT 11                                     01 
01090020012000000REP       Attorney General                                        OVER VOTES                            VOTING PRECINCT 18                                     01 
01090020013000000REP       Attorney General                                        OVER VOTES                            VOTING PRECINCT 13                                     01 
01090020014000000REP       Attorney General                                        OVER VOTES                            VOTING PRECINCT 14                                     01 
01090020015000000REP       Attorney General                                        OVER VOTES                            VOTING PRECINCT 15                                     01 
01090020016000000REP       Attorney General                                        OVER VOTES                            VOTING PRECINCT 16                                     01 
01090020017000000REP       Attorney General                                        OVER VOTES                            VOTING PRECINCT 17                                     01 
01090030001000060REP       Attorney General                                        UNDER VOTES                           VOTING PRECINCT 1                                      01 
01090030002000047REP       Attorney General                                        UNDER VOTES                           VOTING PRECINCT 2                                      01 
01090030003000077REP       Attorney General                                        UNDER VOTES                           VOTING PRECINCT 3                                      01 
01090030004000061REP       Attorney General                                        UNDER VOTES                           VOTING PRECINCT 4                                      01 
01090030005000010REP       Attorney General                                        UNDER VOTES                           VOTING PRECINCT 5                                      01 
01090030006000011REP       Attorney General                                        UNDER VOTES                           VOTING PRECINCT 6                                      01 
01090030007000069REP       Attorney General                                        UNDER VOTES                           VOTING PRECINCT 7                                      01 
01090030008000021REP       Attorney General                                        UNDER VOTES                           VOTING PRECINCT 8                                      01 
01090030009000013REP       Attorney General                                        UNDER VOTES                           VOTING PRECINCT 9                                      01 
01090030010000082REP       Attorney General                                        UNDER VOTES                           VOTING PRECINCT 10                                     01 
01090030011000005REP       Attorney General                                        UNDER VOTES                           VOTING PRECINCT 11                                     01 
01090030012000110REP       Attorney General                                        UNDER VOTES                           VOTING PRECINCT 18                                     01 
01090030013000019REP       Attorney General                                        UNDER VOTES                           VOTING PRECINCT 13                                     01 
01090030014000096REP       Attorney General                                        UNDER VOTES                           VOTING PRECINCT 14                                     01 
01090030015000047REP       Attorney General                                        UNDER VOTES                           VOTING PRECINCT 15                                     01 
01090030016000024REP       Attorney General                                        UNDER VOTES                           VOTING PRECINCT 16                                     01 
01090030017000031REP       Attorney General                                        UNDER VOTES                           VOTING PRECINCT 17                                     01 
01100010001000148REP       Comptroller of Public Accounts                          Glenn Hegar                           VOTING PRECINCT 1                                      01 
01100010002000137REP       Comptroller of Public Accounts                          Glenn Hegar                           VOTING PRECINCT 2                                      01 
01100010003000217REP       Comptroller of Public Accounts                          Glenn Hegar                           VOTING PRECINCT 3                                      01 
01100010004000201REP       Comptroller of Public Accounts                          Glenn Hegar                           VOTING PRECINCT 4                                      01 
01100010005000030REP       Comptroller of Public Accounts                          Glenn Hegar                           VOTING PRECINCT 5                                      01 
01100010006000081REP       Comptroller of Public Accounts                          Glenn Hegar                           VOTING PRECINCT 6                                      01 
01100010007000180REP       Comptroller of Public Accounts                          Glenn Hegar                           VOTING PRECINCT 7                                      01 
01100010008000072REP       Comptroller of Public Accounts                          Glenn Hegar                           VOTING PRECINCT 8                                      01 
01100010009000065REP       Comptroller of Public Accounts                          Glenn Hegar                           VOTING PRECINCT 9                                      01 
01100010010000218REP       Comptroller of Public Accounts                          Glenn Hegar                           VOTING PRECINCT 10                                     01 
01100010011000026REP       Comptroller of Public Accounts                          Glenn Hegar                           VOTING PRECINCT 11                                     01 
01100010012000354REP       Comptroller of Public Accounts                          Glenn Hegar                           VOTING PRECINCT 18                                     01 
01100010013000118REP       Comptroller of Public Accounts                          Glenn Hegar                           VOTING PRECINCT 13                                     01 
01100010014000352REP       Comptroller of Public Accounts                          Glenn Hegar                           VOTING PRECINCT 14                                     01 
01100010015000181REP       Comptroller of Public Accounts                          Glenn Hegar                           VOTING PRECINCT 15                                     01 
01100010016000085REP       Comptroller of Public Accounts                          Glenn Hegar                           VOTING PRECINCT 16                                     01 
01100010017000093REP       Comptroller of Public Accounts                          Glenn Hegar                           VOTING PRECINCT 17                                     01 
01100020001000000REP       Comptroller of Public Accounts                          OVER VOTES                            VOTING PRECINCT 1                                      01 
01100020002000000REP       Comptroller of Public Accounts                          OVER VOTES                            VOTING PRECINCT 2                                      01 
01100020003000000REP       Comptroller of Public Accounts                          OVER VOTES                            VOTING PRECINCT 3                                      01 
01100020004000000REP       Comptroller of Public Accounts                          OVER VOTES                            VOTING PRECINCT 4                                      01 
01100020005000000REP       Comptroller of Public Accounts                          OVER VOTES                            VOTING PRECINCT 5                                      01 
01100020006000000REP       Comptroller of Public Accounts                          OVER VOTES                            VOTING PRECINCT 6                                      01 
01100020007000000REP       Comptroller of Public Accounts                          OVER VOTES                            VOTING PRECINCT 7                                      01 
01100020008000000REP       Comptroller of Public Accounts                          OVER VOTES                            VOTING PRECINCT 8                                      01 
01100020009000000REP       Comptroller of Public Accounts                          OVER VOTES                            VOTING PRECINCT 9                                      01 
01100020010000000REP       Comptroller of Public Accounts                          OVER VOTES                            VOTING PRECINCT 10                                     01 
01100020011000000REP       Comptroller of Public Accounts                          OVER VOTES                            VOTING PRECINCT 11                                     01 
01100020012000000REP       Comptroller of Public Accounts                          OVER VOTES                            VOTING PRECINCT 18                                     01 
01100020013000000REP       Comptroller of Public Accounts                          OVER VOTES                            VOTING PRECINCT 13                                     01 
01100020014000000REP       Comptroller of Public Accounts                          OVER VOTES                            VOTING PRECINCT 14                                     01 
01100020015000000REP       Comptroller of Public Accounts                          OVER VOTES                            VOTING PRECINCT 15                                     01 
01100020016000000REP       Comptroller of Public Accounts                          OVER VOTES                            VOTING PRECINCT 16                                     01 
01100020017000000REP       Comptroller of Public Accounts                          OVER VOTES                            VOTING PRECINCT 17                                     01 
01100030001000072REP       Comptroller of Public Accounts                          UNDER VOTES                           VOTING PRECINCT 1                                      01 
01100030002000060REP       Comptroller of Public Accounts                          UNDER VOTES                           VOTING PRECINCT 2                                      01 
01100030003000092REP       Comptroller of Public Accounts                          UNDER VOTES                           VOTING PRECINCT 3                                      01 
01100030004000075REP       Comptroller of Public Accounts                          UNDER VOTES                           VOTING PRECINCT 4                                      01 
01100030005000011REP       Comptroller of Public Accounts                          UNDER VOTES                           VOTING PRECINCT 5                                      01 
01100030006000013REP       Comptroller of Public Accounts                          UNDER VOTES                           VOTING PRECINCT 6                                      01 
01100030007000083REP       Comptroller of Public Accounts                          UNDER VOTES                           VOTING PRECINCT 7                                      01 
01100030008000026REP       Comptroller of Public Accounts                          UNDER VOTES                           VOTING PRECINCT 8                                      01 
01100030009000019REP       Comptroller of Public Accounts                          UNDER VOTES                           VOTING PRECINCT 9                                      01 
01100030010000100REP       Comptroller of Public Accounts                          UNDER VOTES                           VOTING PRECINCT 10                                     01 
01100030011000006REP       Comptroller of Public Accounts                          UNDER VOTES                           VOTING PRECINCT 11                                     01 
01100030012000131REP       Comptroller of Public Accounts                          UNDER VOTES                           VOTING PRECINCT 18                                     01 
01100030013000026REP       Comptroller of Public Accounts                          UNDER VOTES                           VOTING PRECINCT 13                                     01 
01100030014000119REP       Comptroller of Public Accounts                          UNDER VOTES                           VOTING PRECINCT 14                                     01 
01100030015000051REP       Comptroller of Public Accounts                          UNDER VOTES                           VOTING PRECINCT 15                                     01 
01100030016000031REP       Comptroller of Public Accounts                          UNDER VOTES                           VOTING PRECINCT 16                                     01 
01100030017000034REP       Comptroller of Public Accounts                          UNDER VOTES                           VOTING PRECINCT 17                                     01 
01110010001000130REP       Commissioner of the General Land Office                 George P. Bush                        VOTING PRECINCT 1                                      01 
01110010002000115REP       Commissioner of the General Land Office                 George P. Bush                        VOTING PRECINCT 2                                      01 
01110010003000188REP       Commissioner of the General Land Office                 George P. Bush                        VOTING PRECINCT 3                                      01 
01110010004000156REP       Commissioner of the General Land Office                 George P. Bush                        VOTING PRECINCT 4                                      01 
01110010005000028REP       Commissioner of the General Land Office                 George P. Bush                        VOTING PRECINCT 5                                      01 
01110010006000066REP       Commissioner of the General Land Office                 George P. Bush                        VOTING PRECINCT 6                                      01 
01110010007000151REP       Commissioner of the General Land Office                 George P. Bush                        VOTING PRECINCT 7                                      01 
01110010008000055REP       Commissioner of the General Land Office                 George P. Bush                        VOTING PRECINCT 8                                      01 
01110010009000058REP       Commissioner of the General Land Office                 George P. Bush                        VOTING PRECINCT 9                                      01 
01110010010000173REP       Commissioner of the General Land Office                 George P. Bush                        VOTING PRECINCT 10                                     01 
01110010011000014REP       Commissioner of the General Land Office                 George P. Bush                        VOTING PRECINCT 11                                     01 
01110010012000290REP       Commissioner of the General Land Office                 George P. Bush                        VOTING PRECINCT 18                                     01 
01110010013000070REP       Commissioner of the General Land Office                 George P. Bush                        VOTING PRECINCT 13                                     01 
01110010014000284REP       Commissioner of the General Land Office                 George P. Bush                        VOTING PRECINCT 14                                     01 
01110010015000112REP       Commissioner of the General Land Office                 George P. Bush                        VOTING PRECINCT 15                                     01 
01110010016000061REP       Commissioner of the General Land Office                 George P. Bush                        VOTING PRECINCT 16                                     01 
01110010017000072REP       Commissioner of the General Land Office                 George P. Bush                        VOTING PRECINCT 17                                     01 
01110020001000034REP       Commissioner of the General Land Office                 Jerry Patterson                       VOTING PRECINCT 1                                      01 
01110020002000039REP       Commissioner of the General Land Office                 Jerry Patterson                       VOTING PRECINCT 2                                      01 
01110020003000067REP       Commissioner of the General Land Office                 Jerry Patterson                       VOTING PRECINCT 3                                      01 
01110020004000064REP       Commissioner of the General Land Office                 Jerry Patterson                       VOTING PRECINCT 4                                      01 
01110020005000003REP       Commissioner of the General Land Office                 Jerry Patterson                       VOTING PRECINCT 5                                      01 
01110020006000015REP       Commissioner of the General Land Office                 Jerry Patterson                       VOTING PRECINCT 6                                      01 
01110020007000043REP       Commissioner of the General Land Office                 Jerry Patterson                       VOTING PRECINCT 7                                      01 
01110020008000021REP       Commissioner of the General Land Office                 Jerry Patterson                       VOTING PRECINCT 8                                      01 
01110020009000013REP       Commissioner of the General Land Office                 Jerry Patterson                       VOTING PRECINCT 9                                      01 
01110020010000070REP       Commissioner of the General Land Office                 Jerry Patterson                       VOTING PRECINCT 10                                     01 
01110020011000012REP       Commissioner of the General Land Office                 Jerry Patterson                       VOTING PRECINCT 11                                     01 
01110020012000096REP       Commissioner of the General Land Office                 Jerry Patterson                       VOTING PRECINCT 18                                     01 
01110020013000035REP       Commissioner of the General Land Office                 Jerry Patterson                       VOTING PRECINCT 13                                     01 
01110020014000082REP       Commissioner of the General Land Office                 Jerry Patterson                       VOTING PRECINCT 14                                     01 
01110020015000056REP       Commissioner of the General Land Office                 Jerry Patterson                       VOTING PRECINCT 15                                     01 
01110020016000025REP       Commissioner of the General Land Office                 Jerry Patterson                       VOTING PRECINCT 16                                     01 
01110020017000025REP       Commissioner of the General Land Office                 Jerry Patterson                       VOTING PRECINCT 17                                     01 
01110030001000007REP       Commissioner of the General Land Office                 Davey Edwards                         VOTING PRECINCT 1                                      01 
01110030002000009REP       Commissioner of the General Land Office                 Davey Edwards                         VOTING PRECINCT 2                                      01 
01110030003000016REP       Commissioner of the General Land Office                 Davey Edwards                         VOTING PRECINCT 3                                      01 
01110030004000010REP       Commissioner of the General Land Office                 Davey Edwards                         VOTING PRECINCT 4                                      01 
01110030005000004REP       Commissioner of the General Land Office                 Davey Edwards                         VOTING PRECINCT 5                                      01 
01110030006000001REP       Commissioner of the General Land Office                 Davey Edwards                         VOTING PRECINCT 6                                      01 
01110030007000009REP       Commissioner of the General Land Office                 Davey Edwards                         VOTING PRECINCT 7                                      01 
01110030008000006REP       Commissioner of the General Land Office                 Davey Edwards                         VOTING PRECINCT 8                                      01 
01110030009000002REP       Commissioner of the General Land Office                 Davey Edwards                         VOTING PRECINCT 9                                      01 
01110030010000008REP       Commissioner of the General Land Office                 Davey Edwards                         VOTING PRECINCT 10                                     01 
01110030011000002REP       Commissioner of the General Land Office                 Davey Edwards                         VOTING PRECINCT 11                                     01 
01110030012000017REP       Commissioner of the General Land Office                 Davey Edwards                         VOTING PRECINCT 18                                     01 
01110030013000011REP       Commissioner of the General Land Office                 Davey Edwards                         VOTING PRECINCT 13                                     01 
01110030014000023REP       Commissioner of the General Land Office                 Davey Edwards                         VOTING PRECINCT 14                                     01 
01110030015000021REP       Commissioner of the General Land Office                 Davey Edwards                         VOTING PRECINCT 15                                     01 
01110030016000006REP       Commissioner of the General Land Office                 Davey Edwards                         VOTING PRECINCT 16                                     01 
01110030017000006REP       Commissioner of the General Land Office                 Davey Edwards                         VOTING PRECINCT 17                                     01 
01110040001000013REP       Commissioner of the General Land Office                 Rick Range                            VOTING PRECINCT 1                                      01 
01110040002000008REP       Commissioner of the General Land Office                 Rick Range                            VOTING PRECINCT 2                                      01 
01110040003000012REP       Commissioner of the General Land Office                 Rick Range                            VOTING PRECINCT 3                                      01 
01110040004000011REP       Commissioner of the General Land Office                 Rick Range                            VOTING PRECINCT 4                                      01 
01110040005000003REP       Commissioner of the General Land Office                 Rick Range                            VOTING PRECINCT 5                                      01 
01110040006000004REP       Commissioner of the General Land Office                 Rick Range                            VOTING PRECINCT 6                                      01 
01110040007000014REP       Commissioner of the General Land Office                 Rick Range                            VOTING PRECINCT 7                                      01 
01110040008000005REP       Commissioner of the General Land Office                 Rick Range                            VOTING PRECINCT 8                                      01 
