01010010001000000          REGISTERED VOTERS - TOTAL                               REGISTERED VOTERS - TOTAL             PRECINCT 1                                             00 
01010010002000000          REGISTERED VOTERS - TOTAL                               REGISTERED VOTERS - TOTAL             PRECINCTS 2,8                                          00 
01010010003000000          REGISTERED VOTERS - TOTAL                               REGISTERED VOTERS - TOTAL             PRECINCTS 3,5,9                                        00 
01010010004000000          REGISTERED VOTERS - TOTAL                               REGISTERED VOTERS - TOTAL             PRECINCT 4                                             00 
01010010005000000          REGISTERED VOTERS - TOTAL                               REGISTERED VOTERS - TOTAL             PRECINCT 6                                             00 
01010010006000000          REGISTERED VOTERS - TOTAL                               REGISTERED VOTERS - TOTAL             PRECINCT 7                                             00 
01010010007000000          REGISTERED VOTERS - TOTAL                               REGISTERED VOTERS - TOTAL             PRECINCTS 1,4                                          00 
01010010008000000          REGISTERED VOTERS - TOTAL                               REGISTERED VOTERS - TOTAL             PRECINCTS 2,8                                          00 
01010010009000000          REGISTERED VOTERS - TOTAL                               REGISTERED VOTERS - TOTAL             PRECINCTS 3,5,9                                        00 
01010010010000000          REGISTERED VOTERS - TOTAL                               REGISTERED VOTERS - TOTAL             PRECINCTS 6,7                                          00 
01020010001000084          BALLOTS CAST - TOTAL                                    BALLOTS CAST - TOTAL                  PRECINCT 1                                             00 
01020010002000187          BALLOTS CAST - TOTAL                                    BALLOTS CAST - TOTAL                  PRECINCTS 2,8                                          00 
01020010003000090          BALLOTS CAST - TOTAL                                    BALLOTS CAST - TOTAL                  PRECINCTS 3,5,9                                        00 
01020010004000013          BALLOTS CAST - TOTAL                                    BALLOTS CAST - TOTAL                  PRECINCT 4                                             00 
01020010005000061          BALLOTS CAST - TOTAL                                    BALLOTS CAST - TOTAL                  PRECINCT 6                                             00 
01020010006000077          BALLOTS CAST - TOTAL                                    BALLOTS CAST - TOTAL                  PRECINCT 7                                             00 
01020010007000004          BALLOTS CAST - TOTAL                                    BALLOTS CAST - TOTAL                  PRECINCTS 1,4                                          00 
01020010008000010          BALLOTS CAST - TOTAL                                    BALLOTS CAST - TOTAL                  PRECINCTS 2,8                                          00 
01020010009000003          BALLOTS CAST - TOTAL                                    BALLOTS CAST - TOTAL                  PRECINCTS 3,5,9                                        00 
01020010010000018          BALLOTS CAST - TOTAL                                    BALLOTS CAST - TOTAL                  PRECINCTS 6,7                                          00 
01030010001000084REP       BALLOTS CAST - REPUBLICAN PARTY                         BALLOTS CAST - REPUBLICAN PARTY       PRECINCT 1                                             00 
01030010002000187REP       BALLOTS CAST - REPUBLICAN PARTY                         BALLOTS CAST - REPUBLICAN PARTY       PRECINCTS 2,8                                          00 
01030010003000090REP       BALLOTS CAST - REPUBLICAN PARTY                         BALLOTS CAST - REPUBLICAN PARTY       PRECINCTS 3,5,9                                        00 
01030010004000013REP       BALLOTS CAST - REPUBLICAN PARTY                         BALLOTS CAST - REPUBLICAN PARTY       PRECINCT 4                                             00 
01030010005000061REP       BALLOTS CAST - REPUBLICAN PARTY                         BALLOTS CAST - REPUBLICAN PARTY       PRECINCT 6                                             00 
01030010006000077REP       BALLOTS CAST - REPUBLICAN PARTY                         BALLOTS CAST - REPUBLICAN PARTY       PRECINCT 7                                             00 
01040010007000000DEM       BALLOTS CAST - DEMOCRATIC PARTY                         BALLOTS CAST - DEMOCRATIC PARTY       PRECINCTS 1,4                                          00 
01040010008000000DEM       BALLOTS CAST - DEMOCRATIC PARTY                         BALLOTS CAST - DEMOCRATIC PARTY       PRECINCTS 2,8                                          00 
01040010009000000DEM       BALLOTS CAST - DEMOCRATIC PARTY                         BALLOTS CAST - DEMOCRATIC PARTY       PRECINCTS 3,5,9                                        00 
01040010010000000DEM       BALLOTS CAST - DEMOCRATIC PARTY                         BALLOTS CAST - DEMOCRATIC PARTY       PRECINCTS 6,7                                          00 
01050010001000005REP       United States Senator                                   Mary Miller                           PRECINCT 1                                             01 
01050010002000013REP       United States Senator                                   Mary Miller                           PRECINCTS 2,8                                          01 
01050010003000006REP       United States Senator                                   Mary Miller                           PRECINCTS 3,5,9                                        01 
01050010004000000REP       United States Senator                                   Mary Miller                           PRECINCT 4                                             01 
01050010005000001REP       United States Senator                                   Mary Miller                           PRECINCT 6                                             01 
01050010006000004REP       United States Senator                                   Mary Miller                           PRECINCT 7                                             01 
01050020001000003REP       United States Senator                                   Geraldine Sam                         PRECINCT 1                                             01 
01050020002000004REP       United States Senator                                   Geraldine Sam                         PRECINCTS 2,8                                          01 
01050020003000000REP       United States Senator                                   Geraldine Sam                         PRECINCTS 3,5,9                                        01 
01050020004000000REP       United States Senator                                   Geraldine Sam                         PRECINCT 4                                             01 
01050020005000000REP       United States Senator                                   Geraldine Sam                         PRECINCT 6                                             01 
01050020006000001REP       United States Senator                                   Geraldine Sam                         PRECINCT 7                                             01 
01050030001000001REP       United States Senator                                   Stefano de Stefano                    PRECINCT 1                                             01 
01050030002000000REP       United States Senator                                   Stefano de Stefano                    PRECINCTS 2,8                                          01 
01050030003000001REP       United States Senator                                   Stefano de Stefano                    PRECINCTS 3,5,9                                        01 
01050030004000000REP       United States Senator                                   Stefano de Stefano                    PRECINCT 4                                             01 
01050030005000000REP       United States Senator                                   Stefano de Stefano                    PRECINCT 6                                             01 
01050030006000002REP       United States Senator                                   Stefano de Stefano                    PRECINCT 7                                             01 
01050040001000003REP       United States Senator                                   Bruce Jacobson, Jr.                   PRECINCT 1                                             01 
01050040002000008REP       United States Senator                                   Bruce Jacobson, Jr.                   PRECINCTS 2,8                                          01 
01050040003000002REP       United States Senator                                   Bruce Jacobson, Jr.                   PRECINCTS 3,5,9                                        01 
01050040004000000REP       United States Senator                                   Bruce Jacobson, Jr.                   PRECINCT 4                                             01 
01050040005000000REP       United States Senator                                   Bruce Jacobson, Jr.                   PRECINCT 6                                             01 
01050040006000001REP       United States Senator                                   Bruce Jacobson, Jr.                   PRECINCT 7                                             01 
01050050001000066REP       United States Senator                                   Ted Cruz                              PRECINCT 1                                             01 
01050050002000155REP       United States Senator                                   Ted Cruz                              PRECINCTS 2,8                                          01 
01050050003000079REP       United States Senator                                   Ted Cruz                              PRECINCTS 3,5,9                                        01 
01050050004000013REP       United States Senator                                   Ted Cruz                              PRECINCT 4                                             01 
01050050005000058REP       United States Senator                                   Ted Cruz                              PRECINCT 6                                             01 
01050050006000065REP       United States Senator                                   Ted Cruz                              PRECINCT 7                                             01 
01060010001000068REP       United States Representative, Dist 13                   Mac Thornberry                        PRECINCT 1                                             01 
01060010002000164REP       United States Representative, Dist 13                   Mac Thornberry                        PRECINCTS 2,8                                          01 
01060010003000082REP       United States Representative, Dist 13                   Mac Thornberry                        PRECINCTS 3,5,9                                        01 
01060010004000012REP       United States Representative, Dist 13                   Mac Thornberry                        PRECINCT 4                                             01 
01060010005000057REP       United States Representative, Dist 13                   Mac Thornberry                        PRECINCT 6                                             01 
01060010006000069REP       United States Representative, Dist 13                   Mac Thornberry                        PRECINCT 7                                             01 
01070010001000071REP       Govenor                                                 Greg Abbott                           PRECINCT 1                                             01 
01070010002000175REP       Govenor                                                 Greg Abbott                           PRECINCTS 2,8                                          01 
01070010003000084REP       Govenor                                                 Greg Abbott                           PRECINCTS 3,5,9                                        01 
01070010004000008REP       Govenor                                                 Greg Abbott                           PRECINCT 4                                             01 
01070010005000056REP       Govenor                                                 Greg Abbott                           PRECINCT 6                                             01 
01070010006000069REP       Govenor                                                 Greg Abbott                           PRECINCT 7                                             01 
01070020001000001REP       Govenor                                                 SECEDE Kilgore                        PRECINCT 1                                             01 
01070020002000000REP       Govenor                                                 SECEDE Kilgore                        PRECINCTS 2,8                                          01 
01070020003000002REP       Govenor                                                 SECEDE Kilgore                        PRECINCTS 3,5,9                                        01 
01070020004000003REP       Govenor                                                 SECEDE Kilgore                        PRECINCT 4                                             01 
01070020005000002REP       Govenor                                                 SECEDE Kilgore                        PRECINCT 6                                             01 
01070020006000002REP       Govenor                                                 SECEDE Kilgore                        PRECINCT 7                                             01 
01070030001000002REP       Govenor                                                 Barbara Krueger                       PRECINCT 1                                             01 
01070030002000006REP       Govenor                                                 Barbara Krueger                       PRECINCTS 2,8                                          01 
01070030003000002REP       Govenor                                                 Barbara Krueger                       PRECINCTS 3,5,9                                        01 
01070030004000001REP       Govenor                                                 Barbara Krueger                       PRECINCT 4                                             01 
01070030005000003REP       Govenor                                                 Barbara Krueger                       PRECINCT 6                                             01 
01070030006000002REP       Govenor                                                 Barbara Krueger                       PRECINCT 7                                             01 
01080010001000054REP       Lieutenant Governor                                     Dan Patrick                           PRECINCT 1                                             01 
01080010002000142REP       Lieutenant Governor                                     Dan Patrick                           PRECINCTS 2,8                                          01 
01080010003000067REP       Lieutenant Governor                                     Dan Patrick                           PRECINCTS 3,5,9                                        01 
01080010004000008REP       Lieutenant Governor                                     Dan Patrick                           PRECINCT 4                                             01 
01080010005000054REP       Lieutenant Governor                                     Dan Patrick                           PRECINCT 6                                             01 
01080010006000057REP       Lieutenant Governor                                     Dan Patrick                           PRECINCT 7                                             01 
01080020001000024REP       Lieutenant Governor                                     Scott Milder                          PRECINCT 1                                             01 
01080020002000034REP       Lieutenant Governor                                     Scott Milder                          PRECINCTS 2,8                                          01 
01080020003000017REP       Lieutenant Governor                                     Scott Milder                          PRECINCTS 3,5,9                                        01 
01080020004000005REP       Lieutenant Governor                                     Scott Milder                          PRECINCT 4                                             01 
01080020005000004REP       Lieutenant Governor                                     Scott Milder                          PRECINCT 6                                             01 
01080020006000015REP       Lieutenant Governor                                     Scott Milder                          PRECINCT 7                                             01 
01090010001000058REP       Attorney General                                        Ken Paxton                            PRECINCT 1                                             01 
01090010002000163REP       Attorney General                                        Ken Paxton                            PRECINCTS 2,8                                          01 
01090010003000075REP       Attorney General                                        Ken Paxton                            PRECINCTS 3,5,9                                        01 
01090010004000012REP       Attorney General                                        Ken Paxton                            PRECINCT 4                                             01 
01090010005000055REP       Attorney General                                        Ken Paxton                            PRECINCT 6                                             01 
01090010006000065REP       Attorney General                                        Ken Paxton                            PRECINCT 7                                             01 
01100010001000055REP       Comptroller of Public Accounts                          Glenn Hegar                           PRECINCT 1                                             01 
01100010002000154REP       Comptroller of Public Accounts                          Glenn Hegar                           PRECINCTS 2,8                                          01 
01100010003000074REP       Comptroller of Public Accounts                          Glenn Hegar                           PRECINCTS 3,5,9                                        01 
01100010004000010REP       Comptroller of Public Accounts                          Glenn Hegar                           PRECINCT 4                                             01 
01100010005000052REP       Comptroller of Public Accounts                          Glenn Hegar                           PRECINCT 6                                             01 
01100010006000060REP       Comptroller of Public Accounts                          Glenn Hegar                           PRECINCT 7                                             01 
01110010001000048REP       Commissioner of the General Land Office                 George P. Bush                        PRECINCT 1                                             01 
01110010002000114REP       Commissioner of the General Land Office                 George P. Bush                        PRECINCTS 2,8                                          01 
01110010003000069REP       Commissioner of the General Land Office                 George P. Bush                        PRECINCTS 3,5,9                                        01 
01110010004000013REP       Commissioner of the General Land Office                 George P. Bush                        PRECINCT 4                                             01 
01110010005000042REP       Commissioner of the General Land Office                 George P. Bush                        PRECINCT 6                                             01 
01110010006000047REP       Commissioner of the General Land Office                 George P. Bush                        PRECINCT 7                                             01 
01110020001000004REP       Commissioner of the General Land Office                 Davey Edwards                         PRECINCT 1                                             01 
01110020002000009REP       Commissioner of the General Land Office                 Davey Edwards                         PRECINCTS 2,8                                          01 
01110020003000002REP       Commissioner of the General Land Office                 Davey Edwards                         PRECINCTS 3,5,9                                        01 
01110020004000000REP       Commissioner of the General Land Office                 Davey Edwards                         PRECINCT 4                                             01 
01110020005000004REP       Commissioner of the General Land Office                 Davey Edwards                         PRECINCT 6                                             01 
01110020006000003REP       Commissioner of the General Land Office                 Davey Edwards                         PRECINCT 7                                             01 
01110030001000008REP       Commissioner of the General Land Office                 Rick Range                            PRECINCT 1                                             01 
01110030002000010REP       Commissioner of the General Land Office                 Rick Range                            PRECINCTS 2,8                                          01 
01110030003000004REP       Commissioner of the General Land Office                 Rick Range                            PRECINCTS 3,5,9                                        01 
01110030004000000REP       Commissioner of the General Land Office                 Rick Range                            PRECINCT 4                                             01 
01110030005000003REP       Commissioner of the General Land Office                 Rick Range                            PRECINCT 6                                             01 
01110030006000009REP       Commissioner of the General Land Office                 Rick Range                            PRECINCT 7                                             01 
01110040001000013REP       Commissioner of the General Land Office                 Jerry Patterson                       PRECINCT 1                                             01 
01110040002000039REP       Commissioner of the General Land Office                 Jerry Patterson                       PRECINCTS 2,8                                          01 
01110040003000009REP       Commissioner of the General Land Office                 Jerry Patterson                       PRECINCTS 3,5,9                                        01 
01110040004000000REP       Commissioner of the General Land Office                 Jerry Patterson                       PRECINCT 4                                             01 
01110040005000009REP       Commissioner of the General Land Office                 Jerry Patterson                       PRECINCT 6                                             01 
01110040006000010REP       Commissioner of the General Land Office                 Jerry Patterson                       PRECINCT 7                                             01 
01120010001000012REP       Commissioner of Agriculture                             Trey Blocker                          PRECINCT 1                                             01 
01120010002000040REP       Commissioner of Agriculture                             Trey Blocker                          PRECINCTS 2,8                                          01 
01120010003000033REP       Commissioner of Agriculture                             Trey Blocker                          PRECINCTS 3,5,9                                        01 
01120010004000004REP       Commissioner of Agriculture                             Trey Blocker                          PRECINCT 4                                             01 
01120010005000016REP       Commissioner of Agriculture                             Trey Blocker                          PRECINCT 6                                             01 
01120010006000021REP       Commissioner of Agriculture                             Trey Blocker                          PRECINCT 7                                             01 
01120020001000047REP       Commissioner of Agriculture                             Sid Miller                            PRECINCT 1                                             01 
01120020002000089REP       Commissioner of Agriculture                             Sid Miller                            PRECINCTS 2,8                                          01 
01120020003000032REP       Commissioner of Agriculture                             Sid Miller                            PRECINCTS 3,5,9                                        01 
01120020004000008REP       Commissioner of Agriculture                             Sid Miller                            PRECINCT 4                                             01 
01120020005000026REP       Commissioner of Agriculture                             Sid Miller                            PRECINCT 6                                             01 
01120020006000035REP       Commissioner of Agriculture                             Sid Miller                            PRECINCT 7                                             01 
01120030001000006REP       Commissioner of Agriculture                             Jim Hogan                             PRECINCT 1                                             01 
01120030002000029REP       Commissioner of Agriculture                             Jim Hogan                             PRECINCTS 2,8                                          01 
01120030003000015REP       Commissioner of Agriculture                             Jim Hogan                             PRECINCTS 3,5,9                                        01 
01120030004000001REP       Commissioner of Agriculture                             Jim Hogan                             PRECINCT 4                                             01 
01120030005000010REP       Commissioner of Agriculture                             Jim Hogan                             PRECINCT 6                                             01 
01120030006000013REP       Commissioner of Agriculture                             Jim Hogan                             PRECINCT 7                                             01 
01130010001000049REP       Railroad Commissioner                                   Christi Craddick                      PRECINCT 1                                             01 
01130010002000116REP       Railroad Commissioner                                   Christi Craddick                      PRECINCTS 2,8                                          01 
01130010003000050REP       Railroad Commissioner                                   Christi Craddick                      PRECINCTS 3,5,9                                        01 
01130010004000012REP       Railroad Commissioner                                   Christi Craddick                      PRECINCT 4                                             01 
01130010005000043REP       Railroad Commissioner                                   Christi Craddick                      PRECINCT 6                                             01 
01130010006000046REP       Railroad Commissioner                                   Christi Craddick                      PRECINCT 7                                             01 
01130020001000009REP       Railroad Commissioner                                   Weston Martinez                       PRECINCT 1                                             01 
01130020002000049REP       Railroad Commissioner                                   Weston Martinez                       PRECINCTS 2,8                                          01 
01130020003000025REP       Railroad Commissioner                                   Weston Martinez                       PRECINCTS 3,5,9                                        01 
01130020004000000REP       Railroad Commissioner                                   Weston Martinez                       PRECINCT 4                                             01 
01130020005000008REP       Railroad Commissioner                                   Weston Martinez                       PRECINCT 6                                             01 
01130020006000022REP       Railroad Commissioner                                   Weston Martinez                       PRECINCT 7                                             01 
01140010001000051REP       Justice, Supreme Court, Place 2                         Jimmy Blacklock                       PRECINCT 1                                             01 
01140010002000147REP       Justice, Supreme Court, Place 2                         Jimmy Blacklock                       PRECINCTS 2,8                                          01 
01140010003000072REP       Justice, Supreme Court, Place 2                         Jimmy Blacklock                       PRECINCTS 3,5,9                                        01 
01140010004000010REP       Justice, Supreme Court, Place 2                         Jimmy Blacklock                       PRECINCT 4                                             01 
01140010005000048REP       Justice, Supreme Court, Place 2                         Jimmy Blacklock                       PRECINCT 6                                             01 
01140010006000057REP       Justice, Supreme Court, Place 2                         Jimmy Blacklock                       PRECINCT 7                                             01 
01150010001000050REP       Justice, Supreme Court, Place 4                         John Devine                           PRECINCT 1                                             01 
01150010002000150REP       Justice, Supreme Court, Place 4                         John Devine                           PRECINCTS 2,8                                          01 
01150010003000073REP       Justice, Supreme Court, Place 4                         John Devine                           PRECINCTS 3,5,9                                        01 
01150010004000011REP       Justice, Supreme Court, Place 4                         John Devine                           PRECINCT 4                                             01 
01150010005000048REP       Justice, Supreme Court, Place 4                         John Devine                           PRECINCT 6                                             01 
01150010006000058REP       Justice, Supreme Court, Place 4                         John Devine                           PRECINCT 7                                             01 
01160010001000051REP       Justice, Supreme Court, Place 6                         Jeff Brown                            PRECINCT 1                                             01 
01160010002000151REP       Justice, Supreme Court, Place 6                         Jeff Brown                            PRECINCTS 2,8                                          01 
01160010003000072REP       Justice, Supreme Court, Place 6                         Jeff Brown                            PRECINCTS 3,5,9                                        01 
01160010004000011REP       Justice, Supreme Court, Place 6                         Jeff Brown                            PRECINCT 4                                             01 
01160010005000048REP       Justice, Supreme Court, Place 6                         Jeff Brown                            PRECINCT 6                                             01 
01160010006000057REP       Justice, Supreme Court, Place 6                         Jeff Brown                            PRECINCT 7                                             01 
01170010001000032REP       Presiding Judge, Ct of Criminal Appeals                 David Bridges                         PRECINCT 1                                             01 
01170010002000094REP       Presiding Judge, Ct of Criminal Appeals                 David Bridges                         PRECINCTS 2,8                                          01 
01170010003000045REP       Presiding Judge, Ct of Criminal Appeals                 David Bridges                         PRECINCTS 3,5,9                                        01 
01170010004000012REP       Presiding Judge, Ct of Criminal Appeals                 David Bridges                         PRECINCT 4                                             01 
01170010005000031REP       Presiding Judge, Ct of Criminal Appeals                 David Bridges                         PRECINCT 6                                             01 
01170010006000038REP       Presiding Judge, Ct of Criminal Appeals                 David Bridges                         PRECINCT 7                                             01 
01170020001000024REP       Presiding Judge, Ct of Criminal Appeals                 Sharon Keller                         PRECINCT 1                                             01 
01170020002000064REP       Presiding Judge, Ct of Criminal Appeals                 Sharon Keller                         PRECINCTS 2,8                                          01 
01170020003000032REP       Presiding Judge, Ct of Criminal Appeals                 Sharon Keller                         PRECINCTS 3,5,9                                        01 
01170020004000001REP       Presiding Judge, Ct of Criminal Appeals                 Sharon Keller                         PRECINCT 4                                             01 
01170020005000019REP       Presiding Judge, Ct of Criminal Appeals                 Sharon Keller                         PRECINCT 6                                             01 
01170020006000026REP       Presiding Judge, Ct of Criminal Appeals                 Sharon Keller                         PRECINCT 7                                             01 
01180010001000049REP       Judge, Court of Criminal Appeals, Pl 7                  Barbara Parker Hervey                 PRECINCT 1                                             01 
01180010002000150REP       Judge, Court of Criminal Appeals, Pl 7                  Barbara Parker Hervey                 PRECINCTS 2,8                                          01 
01180010003000072REP       Judge, Court of Criminal Appeals, Pl 7                  Barbara Parker Hervey                 PRECINCTS 3,5,9                                        01 
01180010004000011REP       Judge, Court of Criminal Appeals, Pl 7                  Barbara Parker Hervey                 PRECINCT 4                                             01 
01180010005000048REP       Judge, Court of Criminal Appeals, Pl 7                  Barbara Parker Hervey                 PRECINCT 6                                             01 
01180010006000057REP       Judge, Court of Criminal Appeals, Pl 7                  Barbara Parker Hervey                 PRECINCT 7                                             01 
01190010001000020REP       Judge, Court of Criminal Appeals, Pl 8                  Jay Brandon                           PRECINCT 1                                             01 
01190010002000063REP       Judge, Court of Criminal Appeals, Pl 8                  Jay Brandon                           PRECINCTS 2,8                                          01 
01190010003000028REP       Judge, Court of Criminal Appeals, Pl 8                  Jay Brandon                           PRECINCTS 3,5,9                                        01 
01190010004000006REP       Judge, Court of Criminal Appeals, Pl 8                  Jay Brandon                           PRECINCT 4                                             01 
01190010005000026REP       Judge, Court of Criminal Appeals, Pl 8                  Jay Brandon                           PRECINCT 6                                             01 
01190010006000030REP       Judge, Court of Criminal Appeals, Pl 8                  Jay Brandon                           PRECINCT 7                                             01 
01190020001000012REP       Judge, Court of Criminal Appeals, Pl 8                  Dib Waldrip                           PRECINCT 1                                             01 
01190020002000024REP       Judge, Court of Criminal Appeals, Pl 8                  Dib Waldrip                           PRECINCTS 2,8                                          01 
01190020003000017REP       Judge, Court of Criminal Appeals, Pl 8                  Dib Waldrip                           PRECINCTS 3,5,9                                        01 
01190020004000002REP       Judge, Court of Criminal Appeals, Pl 8                  Dib Waldrip                           PRECINCT 4                                             01 
01190020005000006REP       Judge, Court of Criminal Appeals, Pl 8                  Dib Waldrip                           PRECINCT 6                                             01 
01190020006000012REP       Judge, Court of Criminal Appeals, Pl 8                  Dib Waldrip                           PRECINCT 7                                             01 
01190030001000023REP       Judge, Court of Criminal Appeals, Pl 8                  Michelle Slaughter                    PRECINCT 1                                             01 
01190030002000068REP       Judge, Court of Criminal Appeals, Pl 8                  Michelle Slaughter                    PRECINCTS 2,8                                          01 
01190030003000028REP       Judge, Court of Criminal Appeals, Pl 8                  Michelle Slaughter                    PRECINCTS 3,5,9                                        01 
01190030004000003REP       Judge, Court of Criminal Appeals, Pl 8                  Michelle Slaughter                    PRECINCT 4                                             01 
01190030005000018REP       Judge, Court of Criminal Appeals, Pl 8                  Michelle Slaughter                    PRECINCT 6                                             01 
01190030006000021REP       Judge, Court of Criminal Appeals, Pl 8                  Michelle Slaughter                    PRECINCT 7                                             01 
01200010001000021REP       State Senator, District 31                              Mike Canon                            PRECINCT 1                                             01 
01200010002000054REP       State Senator, District 31                              Mike Canon                            PRECINCTS 2,8                                          01 
01200010003000012REP       State Senator, District 31                              Mike Canon                            PRECINCTS 3,5,9                                        01 
01200010004000000REP       State Senator, District 31                              Mike Canon                            PRECINCT 4                                             01 
01200010005000012REP       State Senator, District 31                              Mike Canon                            PRECINCT 6                                             01 
01200010006000020REP       State Senator, District 31                              Mike Canon                            PRECINCT 7                                             01 
01200020001000005REP       State Senator, District 31                              Victor Leal                           PRECINCT 1                                             01 
01200020002000031REP       State Senator, District 31                              Victor Leal                           PRECINCTS 2,8                                          01 
01200020003000019REP       State Senator, District 31                              Victor Leal                           PRECINCTS 3,5,9                                        01 
01200020004000002REP       State Senator, District 31                              Victor Leal                           PRECINCT 4                                             01 
01200020005000015REP       State Senator, District 31                              Victor Leal                           PRECINCT 6                                             01 
01200020006000016REP       State Senator, District 31                              Victor Leal                           PRECINCT 7                                             01 
01200030001000050REP       State Senator, District 31                              Kel Seliger                           PRECINCT 1                                             01 
01200030002000098REP       State Senator, District 31                              Kel Seliger                           PRECINCTS 2,8                                          01 
01200030003000057REP       State Senator, District 31                              Kel Seliger                           PRECINCTS 3,5,9                                        01 
01200030004000011REP       State Senator, District 31                              Kel Seliger                           PRECINCT 4                                             01 
01200030005000032REP       State Senator, District 31                              Kel Seliger                           PRECINCT 6                                             01 
01200030006000036REP       State Senator, District 31                              Kel Seliger                           PRECINCT 7                                             01 
01210010001000062REP       State Representative, District 86                       John Smithee                          PRECINCT 1                                             01 
01210010002000155REP       State Representative, District 86                       John Smithee                          PRECINCTS 2,8                                          01 
01210010003000075REP       State Representative, District 86                       John Smithee                          PRECINCTS 3,5,9                                        01 
01210010004000012REP       State Representative, District 86                       John Smithee                          PRECINCT 4                                             01 
01210010005000053REP       State Representative, District 86                       John Smithee                          PRECINCT 6                                             01 
01210010006000060REP       State Representative, District 86                       John Smithee                          PRECINCT 7                                             01 
01220010001000050REP       Justice, 7th Ct of App Dist, Pl 2                       Judy Parker                           PRECINCT 1                                             01 
01220010002000153REP       Justice, 7th Ct of App Dist, Pl 2                       Judy Parker                           PRECINCTS 2,8                                          01 
01220010003000072REP       Justice, 7th Ct of App Dist, Pl 2                       Judy Parker                           PRECINCTS 3,5,9                                        01 
01220010004000012REP       Justice, 7th Ct of App Dist, Pl 2                       Judy Parker                           PRECINCT 4                                             01 
01220010005000049REP       Justice, 7th Ct of App Dist, Pl 2                       Judy Parker                           PRECINCT 6                                             01 
01220010006000058REP       Justice, 7th Ct of App Dist, Pl 2                       Judy Parker                           PRECINCT 7                                             01 
01230010001000053REP       Justice, 7th Ct of App Dist, Pl 3                       Pat Pirtle                            PRECINCT 1                                             01 
01230010002000149REP       Justice, 7th Ct of App Dist, Pl 3                       Pat Pirtle                            PRECINCTS 2,8                                          01 
01230010003000074REP       Justice, 7th Ct of App Dist, Pl 3                       Pat Pirtle                            PRECINCTS 3,5,9                                        01 
01230010004000010REP       Justice, 7th Ct of App Dist, Pl 3                       Pat Pirtle                            PRECINCT 4                                             01 
01230010005000049REP       Justice, 7th Ct of App Dist, Pl 3                       Pat Pirtle                            PRECINCT 6                                             01 
01230010006000056REP       Justice, 7th Ct of App Dist, Pl 3                       Pat Pirtle                            PRECINCT 7                                             01 
01240010001000060REP       District Judge, 69th Judicial District                  Ron Enns                              PRECINCT 1                                             01 
01240010002000166REP       District Judge, 69th Judicial District                  Ron Enns                              PRECINCTS 2,8                                          01 
01240010003000078REP       District Judge, 69th Judicial District                  Ron Enns                              PRECINCTS 3,5,9                                        01 
01240010004000012REP       District Judge, 69th Judicial District                  Ron Enns                              PRECINCT 4                                             01 
01240010005000050REP       District Judge, 69th Judicial District                  Ron Enns                              PRECINCT 6                                             01 
01240010006000066REP       District Judge, 69th Judicial District                  Ron Enns                              PRECINCT 7                                             01 
01250010001000060REP       County Judge                                            Wesley Ritchey                        PRECINCT 1                                             01 
01250010002000163REP       County Judge                                            Wesley Ritchey                        PRECINCTS 2,8                                          01 
01250010003000075REP       County Judge                                            Wesley Ritchey                        PRECINCTS 3,5,9                                        01 
01250010004000013REP       County Judge                                            Wesley Ritchey                        PRECINCT 4                                             01 
01250010005000051REP       County Judge                                            Wesley Ritchey                        PRECINCT 6                                             01 
01250010006000059REP       County Judge                                            Wesley Ritchey                        PRECINCT 7                                             01 
01260010001000065REP       District and County Clerk                               Terri Banks                           PRECINCT 1                                             01 
01260010002000169REP       District and County Clerk                               Terri Banks                           PRECINCTS 2,8                                          01 
01260010003000082REP       District and County Clerk                               Terri Banks                           PRECINCTS 3,5,9                                        01 
01260010004000012REP       District and County Clerk                               Terri Banks                           PRECINCT 4                                             01 
01260010005000054REP       District and County Clerk                               Terri Banks                           PRECINCT 6                                             01 
01260010006000065REP       District and County Clerk                               Terri Banks                           PRECINCT 7                                             01 
01270010001000056REP       County Treasurer                                        Kenda McKay                           PRECINCT 1                                             01 
01270010002000163REP       County Treasurer                                        Kenda McKay                           PRECINCTS 2,8                                          01 
01270010003000078REP       County Treasurer                                        Kenda McKay                           PRECINCTS 3,5,9                                        01 
01270010004000012REP       County Treasurer                                        Kenda McKay                           PRECINCT 4                                             01 
01270010005000053REP       County Treasurer                                        Kenda McKay                           PRECINCT 6                                             01 
01270010006000061REP       County Treasurer                                        Kenda McKay                           PRECINCT 7                                             01 
01280010002000160REP       County Commissioner, Precinct No. 2                     Corey Crabtree                        PRECINCTS 2,8                                          01 
01290010004000012REP       County Commissioner, Precinct No. 4                     Floyd French                          PRECINCT 4                                             01 
01290010006000060REP       County Commissioner, Precinct No. 4                     Floyd French                          PRECINCT 7                                             01 
01300010001000032REP       Justice of the Peace                                    Carol Smith                           PRECINCT 1                                             01 
01300010002000109REP       Justice of the Peace                                    Carol Smith                           PRECINCTS 2,8                                          01 
01300010003000049REP       Justice of the Peace                                    Carol Smith                           PRECINCTS 3,5,9                                        01 
01300010004000005REP       Justice of the Peace                                    Carol Smith                           PRECINCT 4                                             01 
01300010005000034REP       Justice of the Peace                                    Carol Smith                           PRECINCT 6                                             01 
01300010006000032REP       Justice of the Peace                                    Carol Smith                           PRECINCT 7                                             01 
01300020001000045REP       Justice of the Peace                                    Ginger Cleavinger                     PRECINCT 1                                             01 
01300020002000073REP       Justice of the Peace                                    Ginger Cleavinger                     PRECINCTS 2,8                                          01 
01300020003000040REP       Justice of the Peace                                    Ginger Cleavinger                     PRECINCTS 3,5,9                                        01 
01300020004000008REP       Justice of the Peace                                    Ginger Cleavinger                     PRECINCT 4                                             01 
01300020005000025REP       Justice of the Peace                                    Ginger Cleavinger                     PRECINCT 6                                             01 
01300020006000043REP       Justice of the Peace                                    Ginger Cleavinger                     PRECINCT 7                                             01 
01310010007000001DEM       United States Senator                                   Beto O'Rourke                         PRECINCTS 1,4                                          01 
01310010008000004DEM       United States Senator                                   Beto O'Rourke                         PRECINCTS 2,8                                          01 
01310010009000000DEM       United States Senator                                   Beto O'Rourke                         PRECINCTS 3,5,9                                        01 
01310010010000004DEM       United States Senator                                   Beto O'Rourke                         PRECINCTS 6,7                                          01 
01310020007000001DEM       United States Senator                                   Edward Kimbrough                      PRECINCTS 1,4                                          01 
01310020008000002DEM       United States Senator                                   Edward Kimbrough                      PRECINCTS 2,8                                          01 
01310020009000000DEM       United States Senator                                   Edward Kimbrough                      PRECINCTS 3,5,9                                        01 
01310020010000006DEM       United States Senator                                   Edward Kimbrough                      PRECINCTS 6,7                                          01 
01310030007000000DEM       United States Senator                                   Sema Hernandez                        PRECINCTS 1,4                                          01 
01310030008000003DEM       United States Senator                                   Sema Hernandez                        PRECINCTS 2,8                                          01 
01310030009000003DEM       United States Senator                                   Sema Hernandez                        PRECINCTS 3,5,9                                        01 
01310030010000008DEM       United States Senator                                   Sema Hernandez                        PRECINCTS 6,7                                          01 
01320010007000002DEM       United States Representative, Dist 13                   Greg Sagan                            PRECINCTS 1,4                                          01 
01320010008000008DEM       United States Representative, Dist 13                   Greg Sagan                            PRECINCTS 2,8                                          01 
01320010009000001DEM       United States Representative, Dist 13                   Greg Sagan                            PRECINCTS 3,5,9                                        01 
01320010010000015DEM       United States Representative, Dist 13                   Greg Sagan                            PRECINCTS 6,7                                          01 
01330010007000000DEM       Govenor                                                 Adrian Ocegueda                       PRECINCTS 1,4                                          01 
01330010008000000DEM       Govenor                                                 Adrian Ocegueda                       PRECINCTS 2,8                                          01 
01330010009000001DEM       Govenor                                                 Adrian Ocegueda                       PRECINCTS 3,5,9                                        01 
01330010010000003DEM       Govenor                                                 Adrian Ocegueda                       PRECINCTS 6,7                                          01 
01330020007000000DEM       Govenor                                                 Andrew White                          PRECINCTS 1,4                                          01 
01330020008000003DEM       Govenor                                                 Andrew White                          PRECINCTS 2,8                                          01 
01330020009000000DEM       Govenor                                                 Andrew White                          PRECINCTS 3,5,9                                        01 
01330020010000005DEM       Govenor                                                 Andrew White                          PRECINCTS 6,7                                          01 
01330030007000000DEM       Govenor                                                 Cedric Davis, Sr.                     PRECINCTS 1,4                                          01 
01330030008000000DEM       Govenor                                                 Cedric Davis, Sr.                     PRECINCTS 2,8                                          01 
01330030009000000DEM       Govenor                                                 Cedric Davis, Sr.                     PRECINCTS 3,5,9                                        01 
01330030010000000DEM       Govenor                                                 Cedric Davis, Sr.                     PRECINCTS 6,7                                          01 
01330040007000000DEM       Govenor                                                 Grady Yarbrough                       PRECINCTS 1,4                                          01 
01330040008000002DEM       Govenor                                                 Grady Yarbrough                       PRECINCTS 2,8                                          01 
01330040009000000DEM       Govenor                                                 Grady Yarbrough                       PRECINCTS 3,5,9                                        01 
01330040010000002DEM       Govenor                                                 Grady Yarbrough                       PRECINCTS 6,7                                          01 
01330050007000000DEM       Govenor                                                 James Jolly Clark                     PRECINCTS 1,4                                          01 
01330050008000000DEM       Govenor                                                 James Jolly Clark                     PRECINCTS 2,8                                          01 
01330050009000000DEM       Govenor                                                 James Jolly Clark                     PRECINCTS 3,5,9                                        01 
01330050010000001DEM       Govenor                                                 James Jolly Clark                     PRECINCTS 6,7                                          01 
01330060007000000DEM       Govenor                                                 Jeffrey Payne                         PRECINCTS 1,4                                          01 
01330060008000001DEM       Govenor                                                 Jeffrey Payne                         PRECINCTS 2,8                                          01 
01330060009000000DEM       Govenor                                                 Jeffrey Payne                         PRECINCTS 3,5,9                                        01 
01330060010000001DEM       Govenor                                                 Jeffrey Payne                         PRECINCTS 6,7                                          01 
01330070007000001DEM       Govenor                                                 Joe Mumbach                           PRECINCTS 1,4                                          01 
01330070008000000DEM       Govenor                                                 Joe Mumbach                           PRECINCTS 2,8                                          01 
01330070009000000DEM       Govenor                                                 Joe Mumbach                           PRECINCTS 3,5,9                                        01 
01330070010000000DEM       Govenor                                                 Joe Mumbach                           PRECINCTS 6,7                                          01 
01330080007000001DEM       Govenor                                                 Lupe Valdez                           PRECINCTS 1,4                                          01 
01330080008000001DEM       Govenor                                                 Lupe Valdez                           PRECINCTS 2,8                                          01 
01330080009000002DEM       Govenor                                                 Lupe Valdez                           PRECINCTS 3,5,9                                        01 
01330080010000004DEM       Govenor                                                 Lupe Valdez                           PRECINCTS 6,7                                          01 
01330090007000000DEM       Govenor                                                 Tom Wakely                            PRECINCTS 1,4                                          01 
01330090008000002DEM       Govenor                                                 Tom Wakely                            PRECINCTS 2,8                                          01 
01330090009000000DEM       Govenor                                                 Tom Wakely                            PRECINCTS 3,5,9                                        01 
01330090010000001DEM       Govenor                                                 Tom Wakely                            PRECINCTS 6,7                                          01 
01340010007000001DEM       Lieutenant Governor                                     Michael Cooper                        PRECINCTS 1,4                                          01 
01340010008000007DEM       Lieutenant Governor                                     Michael Cooper                        PRECINCTS 2,8                                          01 
01340010009000003DEM       Lieutenant Governor                                     Michael Cooper                        PRECINCTS 3,5,9                                        01 
01340010010000011DEM       Lieutenant Governor                                     Michael Cooper                        PRECINCTS 6,7                                          01 
01340020007000001DEM       Lieutenant Governor                                     Mike Collier                          PRECINCTS 1,4                                          01 
01340020008000002DEM       Lieutenant Governor                                     Mike Collier                          PRECINCTS 2,8                                          01 
01340020009000000DEM       Lieutenant Governor                                     Mike Collier                          PRECINCTS 3,5,9                                        01 
01340020010000007DEM       Lieutenant Governor                                     Mike Collier                          PRECINCTS 6,7                                          01 
01350010007000002DEM       Attorney General                                        Justin Nelson                         PRECINCTS 1,4                                          01 
01350010008000007DEM       Attorney General                                        Justin Nelson                         PRECINCTS 2,8                                          01 
01350010009000003DEM       Attorney General                                        Justin Nelson                         PRECINCTS 3,5,9                                        01 
01350010010000012DEM       Attorney General                                        Justin Nelson                         PRECINCTS 6,7                                          01 
01360010007000000DEM       Comptroller of Public Accounts                          Joi Chevalier                         PRECINCTS 1,4                                          01 
01360010008000004DEM       Comptroller of Public Accounts                          Joi Chevalier                         PRECINCTS 2,8                                          01 
01360010009000002DEM       Comptroller of Public Accounts                          Joi Chevalier                         PRECINCTS 3,5,9                                        01 
01360010010000011DEM       Comptroller of Public Accounts                          Joi Chevalier                         PRECINCTS 6,7                                          01 
01360020007000002DEM       Comptroller of Public Accounts                          Tim Mahoney                           PRECINCTS 1,4                                          01 
01360020008000005DEM       Comptroller of Public Accounts                          Tim Mahoney                           PRECINCTS 2,8                                          01 
01360020009000001DEM       Comptroller of Public Accounts                          Tim Mahoney                           PRECINCTS 3,5,9                                        01 
01360020010000006DEM       Comptroller of Public Accounts                          Tim Mahoney                           PRECINCTS 6,7                                          01 
01370010007000001DEM       Commissioner of the General Land Office                 Miguel Suazo                          PRECINCTS 1,4                                          01 
01370010008000004DEM       Commissioner of the General Land Office                 Miguel Suazo                          PRECINCTS 2,8                                          01 
01370010009000003DEM       Commissioner of the General Land Office                 Miguel Suazo                          PRECINCTS 3,5,9                                        01 
01370010010000011DEM       Commissioner of the General Land Office                 Miguel Suazo                          PRECINCTS 6,7                                          01 
01370020007000001DEM       Commissioner of the General Land Office                 Tex Morgan                            PRECINCTS 1,4                                          01 
01370020008000005DEM       Commissioner of the General Land Office                 Tex Morgan                            PRECINCTS 2,8                                          01 
01370020009000000DEM       Commissioner of the General Land Office                 Tex Morgan                            PRECINCTS 3,5,9                                        01 
01370020010000007DEM       Commissioner of the General Land Office                 Tex Morgan                            PRECINCTS 6,7                                          01 
01380010007000002DEM       Commissioner of Agriculture                             Kim Olson                             PRECINCTS 1,4                                          01 
01380010008000009DEM       Commissioner of Agriculture                             Kim Olson                             PRECINCTS 2,8                                          01 
01380010009000001DEM       Commissioner of Agriculture                             Kim Olson                             PRECINCTS 3,5,9                                        01 
01380010010000013DEM       Commissioner of Agriculture                             Kim Olson                             PRECINCTS 6,7                                          01 
01390010007000000DEM       Railroad Commissioner                                   Chris Spellmon                        PRECINCTS 1,4                                          01 
01390010008000005DEM       Railroad Commissioner                                   Chris Spellmon                        PRECINCTS 2,8                                          01 
01390010009000002DEM       Railroad Commissioner                                   Chris Spellmon                        PRECINCTS 3,5,9                                        01 
01390010010000004DEM       Railroad Commissioner                                   Chris Spellmon                        PRECINCTS 6,7                                          01 
01390020007000002DEM       Railroad Commissioner                                   Roman McAllen                         PRECINCTS 1,4                                          01 
01390020008000004DEM       Railroad Commissioner                                   Roman McAllen                         PRECINCTS 2,8                                          01 
01390020009000001DEM       Railroad Commissioner                                   Roman McAllen                         PRECINCTS 3,5,9                                        01 
01390020010000013DEM       Railroad Commissioner                                   Roman McAllen                         PRECINCTS 6,7                                          01 
01400010007000002DEM       Justice, Supreme Court, Place 2                         Steven Kirkland                       PRECINCTS 1,4                                          01 
01400010008000008DEM       Justice, Supreme Court, Place 2                         Steven Kirkland                       PRECINCTS 2,8                                          01 
01400010009000003DEM       Justice, Supreme Court, Place 2                         Steven Kirkland                       PRECINCTS 3,5,9                                        01 
01400010010000016DEM       Justice, Supreme Court, Place 2                         Steven Kirkland                       PRECINCTS 6,7                                          01 
01410010007000002DEM       Justice, Supreme Court, Place 4                         R.K. Sandill                          PRECINCTS 1,4                                          01 
01410010008000009DEM       Justice, Supreme Court, Place 4                         R.K. Sandill                          PRECINCTS 2,8                                          01 
01410010009000002DEM       Justice, Supreme Court, Place 4                         R.K. Sandill                          PRECINCTS 3,5,9                                        01 
01410010010000015DEM       Justice, Supreme Court, Place 4                         R.K. Sandill                          PRECINCTS 6,7                                          01 
01420010007000002DEM       Justice, Supreme Court, Place 6                         Kathy Cheng                           PRECINCTS 1,4                                          01 
01420010008000008DEM       Justice, Supreme Court, Place 6                         Kathy Cheng                           PRECINCTS 2,8                                          01 
01420010009000003DEM       Justice, Supreme Court, Place 6                         Kathy Cheng                           PRECINCTS 3,5,9                                        01 
01420010010000013DEM       Justice, Supreme Court, Place 6                         Kathy Cheng                           PRECINCTS 6,7                                          01 
01430010007000002DEM       Presiding Judge, Ct of Criminal Appeals                 Maria T. (Terri) Jackson              PRECINCTS 1,4                                          01 
01430010008000009DEM       Presiding Judge, Ct of Criminal Appeals                 Maria T. (Terri) Jackson              PRECINCTS 2,8                                          01 
01430010009000003DEM       Presiding Judge, Ct of Criminal Appeals                 Maria T. (Terri) Jackson              PRECINCTS 3,5,9                                        01 
01430010010000014DEM       Presiding Judge, Ct of Criminal Appeals                 Maria T. (Terri) Jackson              PRECINCTS 6,7                                          01 
01440010007000002DEM       Judge, Court of Criminal Appeals, Pl 7                  Ramona Franklin                       PRECINCTS 1,4                                          01 
01440010008000009DEM       Judge, Court of Criminal Appeals, Pl 7                  Ramona Franklin                       PRECINCTS 2,8                                          01 
01440010009000003DEM       Judge, Court of Criminal Appeals, Pl 7                  Ramona Franklin                       PRECINCTS 3,5,9                                        01 
01440010010000015DEM       Judge, Court of Criminal Appeals, Pl 7                  Ramona Franklin                       PRECINCTS 6,7                                          01 
01450010007000002DEM       State Representative, District 86                       Mike Purcell                          PRECINCTS 1,4                                          01 
01450010008000009DEM       State Representative, District 86                       Mike Purcell                          PRECINCTS 2,8                                          01 
01450010009000003DEM       State Representative, District 86                       Mike Purcell                          PRECINCTS 3,5,9                                        01 
01450010010000013DEM       State Representative, District 86                       Mike Purcell                          PRECINCTS 6,7                                          01 
01460010001000043REP       Proposition 1 REP                                       YES                                   PRECINCT 1                                             01Y
01460010002000129REP       Proposition 1 REP                                       YES                                   PRECINCTS 2,8                                          01Y
01460010003000061REP       Proposition 1 REP                                       YES                                   PRECINCTS 3,5,9                                        01Y
01460010004000005REP       Proposition 1 REP                                       YES                                   PRECINCT 4                                             01Y
01460010005000035REP       Proposition 1 REP                                       YES                                   PRECINCT 6                                             01Y
01460010006000051REP       Proposition 1 REP                                       YES                                   PRECINCT 7                                             01Y
01460020001000026REP       Proposition 1 REP                                       NO                                    PRECINCT 1                                             01Y
01460020002000030REP       Proposition 1 REP                                       NO                                    PRECINCTS 2,8                                          01Y
01460020003000022REP       Proposition 1 REP                                       NO                                    PRECINCTS 3,5,9                                        01Y
01460020004000007REP       Proposition 1 REP                                       NO                                    PRECINCT 4                                             01Y
01460020005000020REP       Proposition 1 REP                                       NO                                    PRECINCT 6                                             01Y
01460020006000017REP       Proposition 1 REP                                       NO                                    PRECINCT 7                                             01Y
01470010001000066REP       Proposition 2 REP                                       YES                                   PRECINCT 1                                             01Y
01470010002000165REP       Proposition 2 REP                                       YES                                   PRECINCTS 2,8                                          01Y
01470010003000082REP       Proposition 2 REP                                       YES                                   PRECINCTS 3,5,9                                        01Y
01470010004000011REP       Proposition 2 REP                                       YES                                   PRECINCT 4                                             01Y
01470010005000054REP       Proposition 2 REP                                       YES                                   PRECINCT 6                                             01Y
01470010006000067REP       Proposition 2 REP                                       YES                                   PRECINCT 7                                             01Y
01470020001000007REP       Proposition 2 REP                                       NO                                    PRECINCT 1                                             01Y
01470020002000007REP       Proposition 2 REP                                       NO                                    PRECINCTS 2,8                                          01Y
01470020003000005REP       Proposition 2 REP                                       NO                                    PRECINCTS 3,5,9                                        01Y
01470020004000002REP       Proposition 2 REP                                       NO                                    PRECINCT 4                                             01Y
01470020005000004REP       Proposition 2 REP                                       NO                                    PRECINCT 6                                             01Y
01470020006000002REP       Proposition 2 REP                                       NO                                    PRECINCT 7                                             01Y
01480010001000057REP       Proposition 3 REP                                       YES                                   PRECINCT 1                                             01Y
01480010002000146REP       Proposition 3 REP                                       YES                                   PRECINCTS 2,8                                          01Y
01480010003000075REP       Proposition 3 REP                                       YES                                   PRECINCTS 3,5,9                                        01Y
01480010004000010REP       Proposition 3 REP                                       YES                                   PRECINCT 4                                             01Y
01480010005000052REP       Proposition 3 REP                                       YES                                   PRECINCT 6                                             01Y
01480010006000067REP       Proposition 3 REP                                       YES                                   PRECINCT 7                                             01Y
01480020001000014REP       Proposition 3 REP                                       NO                                    PRECINCT 1                                             01Y
01480020002000024REP       Proposition 3 REP                                       NO                                    PRECINCTS 2,8                                          01Y
01480020003000013REP       Proposition 3 REP                                       NO                                    PRECINCTS 3,5,9                                        01Y
01480020004000003REP       Proposition 3 REP                                       NO                                    PRECINCT 4                                             01Y
01480020005000006REP       Proposition 3 REP                                       NO                                    PRECINCT 6                                             01Y
01480020006000002REP       Proposition 3 REP                                       NO                                    PRECINCT 7                                             01Y
01490010001000065REP       Proposition 4 REP                                       YES                                   PRECINCT 1                                             01Y
01490010002000162REP       Proposition 4 REP                                       YES                                   PRECINCTS 2,8                                          01Y
01490010003000075REP       Proposition 4 REP                                       YES                                   PRECINCTS 3,5,9                                        01Y
01490010004000013REP       Proposition 4 REP                                       YES                                   PRECINCT 4                                             01Y
01490010005000053REP       Proposition 4 REP                                       YES                                   PRECINCT 6                                             01Y
01490010006000061REP       Proposition 4 REP                                       YES                                   PRECINCT 7                                             01Y
01490020001000009REP       Proposition 4 REP                                       NO                                    PRECINCT 1                                             01Y
01490020002000010REP       Proposition 4 REP                                       NO                                    PRECINCTS 2,8                                          01Y
01490020003000013REP       Proposition 4 REP                                       NO                                    PRECINCTS 3,5,9                                        01Y
01490020004000000REP       Proposition 4 REP                                       NO                                    PRECINCT 4                                             01Y
01490020005000003REP       Proposition 4 REP                                       NO                                    PRECINCT 6                                             01Y
01490020006000009REP       Proposition 4 REP                                       NO                                    PRECINCT 7                                             01Y
01500010001000055REP       Proposition 5 REP                                       YES                                   PRECINCT 1                                             01Y
01500010002000142REP       Proposition 5 REP                                       YES                                   PRECINCTS 2,8                                          01Y
01500010003000078REP       Proposition 5 REP                                       YES                                   PRECINCTS 3,5,9                                        01Y
01500010004000008REP       Proposition 5 REP                                       YES                                   PRECINCT 4                                             01Y
01500010005000052REP       Proposition 5 REP                                       YES                                   PRECINCT 6                                             01Y
01500010006000056REP       Proposition 5 REP                                       YES                                   PRECINCT 7                                             01Y
01500020001000020REP       Proposition 5 REP                                       NO                                    PRECINCT 1                                             01Y
01500020002000026REP       Proposition 5 REP                                       NO                                    PRECINCTS 2,8                                          01Y
01500020003000009REP       Proposition 5 REP                                       NO                                    PRECINCTS 3,5,9                                        01Y
01500020004000005REP       Proposition 5 REP                                       NO                                    PRECINCT 4                                             01Y
01500020005000005REP       Proposition 5 REP                                       NO                                    PRECINCT 6                                             01Y
01500020006000014REP       Proposition 5 REP                                       NO                                    PRECINCT 7                                             01Y
01510010001000077REP       Proposition 6 REP                                       YES                                   PRECINCT 1                                             01Y
01510010002000176REP       Proposition 6 REP                                       YES                                   PRECINCTS 2,8                                          01Y
01510010003000086REP       Proposition 6 REP                                       YES                                   PRECINCTS 3,5,9                                        01Y
01510010004000013REP       Proposition 6 REP                                       YES                                   PRECINCT 4                                             01Y
01510010005000057REP       Proposition 6 REP                                       YES                                   PRECINCT 6                                             01Y
01510010006000069REP       Proposition 6 REP                                       YES                                   PRECINCT 7                                             01Y
01510020001000002REP       Proposition 6 REP                                       NO                                    PRECINCT 1                                             01Y
01510020002000001REP       Proposition 6 REP                                       NO                                    PRECINCTS 2,8                                          01Y
01510020003000002REP       Proposition 6 REP                                       NO                                    PRECINCTS 3,5,9                                        01Y
01510020004000000REP       Proposition 6 REP                                       NO                                    PRECINCT 4                                             01Y
01510020005000000REP       Proposition 6 REP                                       NO                                    PRECINCT 6                                             01Y
01510020006000001REP       Proposition 6 REP                                       NO                                    PRECINCT 7                                             01Y
01520010001000070REP       Proposition 7 REP                                       YES                                   PRECINCT 1                                             01Y
01520010002000141REP       Proposition 7 REP                                       YES                                   PRECINCTS 2,8                                          01Y
01520010003000076REP       Proposition 7 REP                                       YES                                   PRECINCTS 3,5,9                                        01Y
01520010004000012REP       Proposition 7 REP                                       YES                                   PRECINCT 4                                             01Y
01520010005000050REP       Proposition 7 REP                                       YES                                   PRECINCT 6                                             01Y
01520010006000060REP       Proposition 7 REP                                       YES                                   PRECINCT 7                                             01Y
01520020001000009REP       Proposition 7 REP                                       NO                                    PRECINCT 1                                             01Y
01520020002000033REP       Proposition 7 REP                                       NO                                    PRECINCTS 2,8                                          01Y
01520020003000011REP       Proposition 7 REP                                       NO                                    PRECINCTS 3,5,9                                        01Y
01520020004000001REP       Proposition 7 REP                                       NO                                    PRECINCT 4                                             01Y
01520020005000008REP       Proposition 7 REP                                       NO                                    PRECINCT 6                                             01Y
01520020006000009REP       Proposition 7 REP                                       NO                                    PRECINCT 7                                             01Y
01530010001000076REP       Proposition 8 REP                                       YES                                   PRECINCT 1                                             01Y
01530010002000175REP       Proposition 8 REP                                       YES                                   PRECINCTS 2,8                                          01Y
01530010003000084REP       Proposition 8 REP                                       YES                                   PRECINCTS 3,5,9                                        01Y
01530010004000013REP       Proposition 8 REP                                       YES                                   PRECINCT 4                                             01Y
01530010005000058REP       Proposition 8 REP                                       YES                                   PRECINCT 6                                             01Y
01530010006000071REP       Proposition 8 REP                                       YES                                   PRECINCT 7                                             01Y
01530020001000001REP       Proposition 8 REP                                       NO                                    PRECINCT 1                                             01Y
01530020002000002REP       Proposition 8 REP                                       NO                                    PRECINCTS 2,8                                          01Y
01530020003000004REP       Proposition 8 REP                                       NO                                    PRECINCTS 3,5,9                                        01Y
01530020004000000REP       Proposition 8 REP                                       NO                                    PRECINCT 4                                             01Y
01530020005000000REP       Proposition 8 REP                                       NO                                    PRECINCT 6                                             01Y
01530020006000000REP       Proposition 8 REP                                       NO                                    PRECINCT 7                                             01Y
01540010001000074REP       Proposition 9 REP                                       YES                                   PRECINCT 1                                             01Y
01540010002000165REP       Proposition 9 REP                                       YES                                   PRECINCTS 2,8                                          01Y
01540010003000084REP       Proposition 9 REP                                       YES                                   PRECINCTS 3,5,9                                        01Y
01540010004000013REP       Proposition 9 REP                                       YES                                   PRECINCT 4                                             01Y
01540010005000056REP       Proposition 9 REP                                       YES                                   PRECINCT 6                                             01Y
01540010006000068REP       Proposition 9 REP                                       YES                                   PRECINCT 7                                             01Y
01540020001000004REP       Proposition 9 REP                                       NO                                    PRECINCT 1                                             01Y
01540020002000011REP       Proposition 9 REP                                       NO                                    PRECINCTS 2,8                                          01Y
01540020003000003REP       Proposition 9 REP                                       NO                                    PRECINCTS 3,5,9                                        01Y
01540020004000000REP       Proposition 9 REP                                       NO                                    PRECINCT 4                                             01Y
01540020005000002REP       Proposition 9 REP                                       NO                                    PRECINCT 6                                             01Y
01540020006000002REP       Proposition 9 REP                                       NO                                    PRECINCT 7                                             01Y
01550010001000066REP       Proposition 10 REP                                      YES                                   PRECINCT 1                                             01Y
01550010002000156REP       Proposition 10 REP                                      YES                                   PRECINCTS 2,8                                          01Y
01550010003000082REP       Proposition 10 REP                                      YES                                   PRECINCTS 3,5,9                                        01Y
01550010004000008REP       Proposition 10 REP                                      YES                                   PRECINCT 4                                             01Y
01550010005000056REP       Proposition 10 REP                                      YES                                   PRECINCT 6                                             01Y
01550010006000066REP       Proposition 10 REP                                      YES                                   PRECINCT 7                                             01Y
01550020001000006REP       Proposition 10 REP                                      NO                                    PRECINCT 1                                             01Y
01550020002000014REP       Proposition 10 REP                                      NO                                    PRECINCTS 2,8                                          01Y
01550020003000004REP       Proposition 10 REP                                      NO                                    PRECINCTS 3,5,9                                        01Y
01550020004000005REP       Proposition 10 REP                                      NO                                    PRECINCT 4                                             01Y
01550020005000001REP       Proposition 10 REP                                      NO                                    PRECINCT 6                                             01Y
01550020006000004REP       Proposition 10 REP                                      NO                                    PRECINCT 7                                             01Y
01560010001000066REP       Proposition 11 REP                                      YES                                   PRECINCT 1                                             01Y
01560010002000156REP       Proposition 11 REP                                      YES                                   PRECINCTS 2,8                                          01Y
01560010003000073REP       Proposition 11 REP                                      YES                                   PRECINCTS 3,5,9                                        01Y
01560010004000013REP       Proposition 11 REP                                      YES                                   PRECINCT 4                                             01Y
01560010005000050REP       Proposition 11 REP                                      YES                                   PRECINCT 6                                             01Y
01560010006000063REP       Proposition 11 REP                                      YES                                   PRECINCT 7                                             01Y
01560020001000012REP       Proposition 11 REP                                      NO                                    PRECINCT 1                                             01Y
01560020002000016REP       Proposition 11 REP                                      NO                                    PRECINCTS 2,8                                          01Y
01560020003000014REP       Proposition 11 REP                                      NO                                    PRECINCTS 3,5,9                                        01Y
01560020004000000REP       Proposition 11 REP                                      NO                                    PRECINCT 4                                             01Y
01560020005000008REP       Proposition 11 REP                                      NO                                    PRECINCT 6                                             01Y
01560020006000007REP       Proposition 11 REP                                      NO                                    PRECINCT 7                                             01Y
01570010007000003DEM       Proposition #1 DEM                                      For                                   PRECINCTS 1,4                                          01Y
01570010008000009DEM       Proposition #1 DEM                                      For                                   PRECINCTS 2,8                                          01Y
01570010009000002DEM       Proposition #1 DEM                                      For                                   PRECINCTS 3,5,9                                        01Y
01570010010000015DEM       Proposition #1 DEM                                      For                                   PRECINCTS 6,7                                          01Y
01570020007000001DEM       Proposition #1 DEM                                      Against                               PRECINCTS 1,4                                          01Y
01570020008000000DEM       Proposition #1 DEM                                      Against                               PRECINCTS 2,8                                          01Y
01570020009000001DEM       Proposition #1 DEM                                      Against                               PRECINCTS 3,5,9                                        01Y
01570020010000002DEM       Proposition #1 DEM                                      Against                               PRECINCTS 6,7                                          01Y
01580010007000004DEM       Proposition #2 DEM                                      For                                   PRECINCTS 1,4                                          01Y
01580010008000010DEM       Proposition #2 DEM                                      For                                   PRECINCTS 2,8                                          01Y
01580010009000002DEM       Proposition #2 DEM                                      For                                   PRECINCTS 3,5,9                                        01Y
01580010010000013DEM       Proposition #2 DEM                                      For                                   PRECINCTS 6,7                                          01Y
01580020007000000DEM       Proposition #2 DEM                                      Against                               PRECINCTS 1,4                                          01Y
