00020010001000203          BALLOTS CAST - TOTAL                                    BALLOTS CAST - TOTAL                  101                                                    00 
00020010002000222          BALLOTS CAST - TOTAL                                    BALLOTS CAST - TOTAL                  201                                                    00 
00020010003000017          BALLOTS CAST - TOTAL                                    BALLOTS CAST - TOTAL                  202                                                    00 
00020010004000308          BALLOTS CAST - TOTAL                                    BALLOTS CAST - TOTAL                  301                                                    00 
00020010005000025          BALLOTS CAST - TOTAL                                    BALLOTS CAST - TOTAL                  302                                                    00 
00020010006000061          BALLOTS CAST - TOTAL                                    BALLOTS CAST - TOTAL                  303                                                    00 
00020010007000157          BALLOTS CAST - TOTAL                                    BALLOTS CAST - TOTAL                  401                                                    00 
00020010008000060          BALLOTS CAST - TOTAL                                    BALLOTS CAST - TOTAL                  402                                                    00 
00030010001000197REP       BALLOTS CAST - REPUBLICAN                               BALLOTS CAST - REPUBLICAN             101                                                    00 
00030010002000218REP       BALLOTS CAST - REPUBLICAN                               BALLOTS CAST - REPUBLICAN             201                                                    00 
00030010003000017REP       BALLOTS CAST - REPUBLICAN                               BALLOTS CAST - REPUBLICAN             202                                                    00 
00030010004000307REP       BALLOTS CAST - REPUBLICAN                               BALLOTS CAST - REPUBLICAN             301                                                    00 
00030010005000025REP       BALLOTS CAST - REPUBLICAN                               BALLOTS CAST - REPUBLICAN             302                                                    00 
00030010006000059REP       BALLOTS CAST - REPUBLICAN                               BALLOTS CAST - REPUBLICAN             303                                                    00 
00030010007000155REP       BALLOTS CAST - REPUBLICAN                               BALLOTS CAST - REPUBLICAN             401                                                    00 
00030010008000060REP       BALLOTS CAST - REPUBLICAN                               BALLOTS CAST - REPUBLICAN             402                                                    00 
00040010001000006DEM       BALLOTS CAST - DEMOCRATIC                               BALLOTS CAST - DEMOCRATIC             101                                                    00 
00040010002000004DEM       BALLOTS CAST - DEMOCRATIC                               BALLOTS CAST - DEMOCRATIC             201                                                    00 
00040010003000000DEM       BALLOTS CAST - DEMOCRATIC                               BALLOTS CAST - DEMOCRATIC             202                                                    00 
00040010004000001DEM       BALLOTS CAST - DEMOCRATIC                               BALLOTS CAST - DEMOCRATIC             301                                                    00 
00040010005000000DEM       BALLOTS CAST - DEMOCRATIC                               BALLOTS CAST - DEMOCRATIC             302                                                    00 
00040010006000002DEM       BALLOTS CAST - DEMOCRATIC                               BALLOTS CAST - DEMOCRATIC             303                                                    00 
00040010007000002DEM       BALLOTS CAST - DEMOCRATIC                               BALLOTS CAST - DEMOCRATIC             401                                                    00 
00040010008000000DEM       BALLOTS CAST - DEMOCRATIC                               BALLOTS CAST - DEMOCRATIC             402                                                    00 
00050010001000000          BALLOTS CAST - NONPARTISAN                              BALLOTS CAST - NONPARTISAN            101                                                    00 
00050010002000000          BALLOTS CAST - NONPARTISAN                              BALLOTS CAST - NONPARTISAN            201                                                    00 
00050010003000000          BALLOTS CAST - NONPARTISAN                              BALLOTS CAST - NONPARTISAN            202                                                    00 
00050010004000000          BALLOTS CAST - NONPARTISAN                              BALLOTS CAST - NONPARTISAN            301                                                    00 
00050010005000000          BALLOTS CAST - NONPARTISAN                              BALLOTS CAST - NONPARTISAN            302                                                    00 
00050010006000000          BALLOTS CAST - NONPARTISAN                              BALLOTS CAST - NONPARTISAN            303                                                    00 
00050010007000000          BALLOTS CAST - NONPARTISAN                              BALLOTS CAST - NONPARTISAN            401                                                    00 
00050010008000000          BALLOTS CAST - NONPARTISAN                              BALLOTS CAST - NONPARTISAN            402                                                    00 
00060010001000000          BALLOTS CAST - BLANK                                    BALLOTS CAST - BLANK                  101                                                    00 
00060010002000000          BALLOTS CAST - BLANK                                    BALLOTS CAST - BLANK                  201                                                    00 
00060010003000000          BALLOTS CAST - BLANK                                    BALLOTS CAST - BLANK                  202                                                    00 
00060010004000000          BALLOTS CAST - BLANK                                    BALLOTS CAST - BLANK                  301                                                    00 
00060010005000000          BALLOTS CAST - BLANK                                    BALLOTS CAST - BLANK                  302                                                    00 
00060010006000000          BALLOTS CAST - BLANK                                    BALLOTS CAST - BLANK                  303                                                    00 
00060010007000000          BALLOTS CAST - BLANK                                    BALLOTS CAST - BLANK                  401                                                    00 
00060010008000000          BALLOTS CAST - BLANK                                    BALLOTS CAST - BLANK                  402                                                    00 
03010010001000006REP       U.S. Senator                                            Geraldine Sam                         101                                                    01 
03010010002000002REP       U.S. Senator                                            Geraldine Sam                         201                                                    01 
03010010003000000REP       U.S. Senator                                            Geraldine Sam                         202                                                    01 
03010010004000008REP       U.S. Senator                                            Geraldine Sam                         301                                                    01 
03010010005000000REP       U.S. Senator                                            Geraldine Sam                         302                                                    01 
03010010006000001REP       U.S. Senator                                            Geraldine Sam                         303                                                    01 
03010010007000004REP       U.S. Senator                                            Geraldine Sam                         401                                                    01 
03010010008000000REP       U.S. Senator                                            Geraldine Sam                         402                                                    01 
03010020001000010REP       U.S. Senator                                            Bruce Jacobson, Jr                    101                                                    01 
03010020002000012REP       U.S. Senator                                            Bruce Jacobson, Jr                    201                                                    01 
03010020003000002REP       U.S. Senator                                            Bruce Jacobson, Jr                    202                                                    01 
03010020004000011REP       U.S. Senator                                            Bruce Jacobson, Jr                    301                                                    01 
03010020005000002REP       U.S. Senator                                            Bruce Jacobson, Jr                    302                                                    01 
03010020006000002REP       U.S. Senator                                            Bruce Jacobson, Jr                    303                                                    01 
03010020007000013REP       U.S. Senator                                            Bruce Jacobson, Jr                    401                                                    01 
03010020008000002REP       U.S. Senator                                            Bruce Jacobson, Jr                    402                                                    01 
03010030001000006REP       U.S. Senator                                            Mary Miller                           101                                                    01 
03010030002000011REP       U.S. Senator                                            Mary Miller                           201                                                    01 
03010030003000000REP       U.S. Senator                                            Mary Miller                           202                                                    01 
03010030004000007REP       U.S. Senator                                            Mary Miller                           301                                                    01 
03010030005000000REP       U.S. Senator                                            Mary Miller                           302                                                    01 
03010030006000002REP       U.S. Senator                                            Mary Miller                           303                                                    01 
03010030007000003REP       U.S. Senator                                            Mary Miller                           401                                                    01 
03010030008000004REP       U.S. Senator                                            Mary Miller                           402                                                    01 
03010040001000149REP       U.S. Senator                                            Ted Cruz                              101                                                    01 
03010040002000155REP       U.S. Senator                                            Ted Cruz                              201                                                    01 
03010040003000013REP       U.S. Senator                                            Ted Cruz                              202                                                    01 
03010040004000235REP       U.S. Senator                                            Ted Cruz                              301                                                    01 
03010040005000022REP       U.S. Senator                                            Ted Cruz                              302                                                    01 
03010040006000052REP       U.S. Senator                                            Ted Cruz                              303                                                    01 
03010040007000113REP       U.S. Senator                                            Ted Cruz                              401                                                    01 
03010040008000047REP       U.S. Senator                                            Ted Cruz                              402                                                    01 
03010050001000008REP       U.S. Senator                                            Stefano de Stefano                    101                                                    01 
03010050002000008REP       U.S. Senator                                            Stefano de Stefano                    201                                                    01 
03010050003000000REP       U.S. Senator                                            Stefano de Stefano                    202                                                    01 
03010050004000007REP       U.S. Senator                                            Stefano de Stefano                    301                                                    01 
03010050005000000REP       U.S. Senator                                            Stefano de Stefano                    302                                                    01 
03010050006000000REP       U.S. Senator                                            Stefano de Stefano                    303                                                    01 
03010050007000005REP       U.S. Senator                                            Stefano de Stefano                    401                                                    01 
03010050008000001REP       U.S. Senator                                            Stefano de Stefano                    402                                                    01 
03020010001000153REP       US Representative, Dist 13                              Mac Thornberry                        101                                                    01 
03020010002000173REP       US Representative, Dist 13                              Mac Thornberry                        201                                                    01 
03020010003000012REP       US Representative, Dist 13                              Mac Thornberry                        202                                                    01 
03020010004000242REP       US Representative, Dist 13                              Mac Thornberry                        301                                                    01 
03020010005000021REP       US Representative, Dist 13                              Mac Thornberry                        302                                                    01 
03020010006000048REP       US Representative, Dist 13                              Mac Thornberry                        303                                                    01 
03020010007000134REP       US Representative, Dist 13                              Mac Thornberry                        401                                                    01 
03020010008000047REP       US Representative, Dist 13                              Mac Thornberry                        402                                                    01 
03030010001000027REP       Governor                                                Barbara Krueger                       101                                                    01 
03030010002000022REP       Governor                                                Barbara Krueger                       201                                                    01 
03030010003000001REP       Governor                                                Barbara Krueger                       202                                                    01 
03030010004000019REP       Governor                                                Barbara Krueger                       301                                                    01 
03030010005000000REP       Governor                                                Barbara Krueger                       302                                                    01 
03030010006000006REP       Governor                                                Barbara Krueger                       303                                                    01 
03030010007000015REP       Governor                                                Barbara Krueger                       401                                                    01 
03030010008000004REP       Governor                                                Barbara Krueger                       402                                                    01 
03030020001000134REP       Governor                                                Greg Abbott                           101                                                    01 
03030020002000148REP       Governor                                                Greg Abbott                           201                                                    01 
03030020003000016REP       Governor                                                Greg Abbott                           202                                                    01 
03030020004000235REP       Governor                                                Greg Abbott                           301                                                    01 
03030020005000025REP       Governor                                                Greg Abbott                           302                                                    01 
03030020006000052REP       Governor                                                Greg Abbott                           303                                                    01 
03030020007000115REP       Governor                                                Greg Abbott                           401                                                    01 
03030020008000046REP       Governor                                                Greg Abbott                           402                                                    01 
03030030001000005REP       Governor                                                SECEDE Kilgore                        101                                                    01 
03030030002000012REP       Governor                                                SECEDE Kilgore                        201                                                    01 
03030030003000000REP       Governor                                                SECEDE Kilgore                        202                                                    01 
03030030004000003REP       Governor                                                SECEDE Kilgore                        301                                                    01 
03030030005000000REP       Governor                                                SECEDE Kilgore                        302                                                    01 
03030030006000000REP       Governor                                                SECEDE Kilgore                        303                                                    01 
03030030007000003REP       Governor                                                SECEDE Kilgore                        401                                                    01 
03030030008000000REP       Governor                                                SECEDE Kilgore                        402                                                    01 
03040010001000091REP       Lieutenant Governor                                     Scott Milder                          101                                                    01 
03040010002000101REP       Lieutenant Governor                                     Scott Milder                          201                                                    01 
03040010003000010REP       Lieutenant Governor                                     Scott Milder                          202                                                    01 
03040010004000174REP       Lieutenant Governor                                     Scott Milder                          301                                                    01 
03040010005000009REP       Lieutenant Governor                                     Scott Milder                          302                                                    01 
03040010006000022REP       Lieutenant Governor                                     Scott Milder                          303                                                    01 
03040010007000078REP       Lieutenant Governor                                     Scott Milder                          401                                                    01 
03040010008000029REP       Lieutenant Governor                                     Scott Milder                          402                                                    01 
03040020001000083REP       Lieutenant Governor                                     Dan Patrick                           101                                                    01 
03040020002000082REP       Lieutenant Governor                                     Dan Patrick                           201                                                    01 
03040020003000007REP       Lieutenant Governor                                     Dan Patrick                           202                                                    01 
03040020004000102REP       Lieutenant Governor                                     Dan Patrick                           301                                                    01 
03040020005000015REP       Lieutenant Governor                                     Dan Patrick                           302                                                    01 
03040020006000035REP       Lieutenant Governor                                     Dan Patrick                           303                                                    01 
03040020007000065REP       Lieutenant Governor                                     Dan Patrick                           401                                                    01 
03040020008000026REP       Lieutenant Governor                                     Dan Patrick                           402                                                    01 
03050010001000137REP       Attorney General                                        Ken Paxton                            101                                                    01 
03050010002000137REP       Attorney General                                        Ken Paxton                            201                                                    01 
03050010003000015REP       Attorney General                                        Ken Paxton                            202                                                    01 
03050010004000216REP       Attorney General                                        Ken Paxton                            301                                                    01 
03050010005000019REP       Attorney General                                        Ken Paxton                            302                                                    01 
03050010006000050REP       Attorney General                                        Ken Paxton                            303                                                    01 
03050010007000123REP       Attorney General                                        Ken Paxton                            401                                                    01 
03050010008000045REP       Attorney General                                        Ken Paxton                            402                                                    01 
03060010001000135REP       Comptroller of Public Accounts                          Glenn Hegar                           101                                                    01 
03060010002000137REP       Comptroller of Public Accounts                          Glenn Hegar                           201                                                    01 
03060010003000015REP       Comptroller of Public Accounts                          Glenn Hegar                           202                                                    01 
03060010004000206REP       Comptroller of Public Accounts                          Glenn Hegar                           301                                                    01 
03060010005000018REP       Comptroller of Public Accounts                          Glenn Hegar                           302                                                    01 
03060010006000050REP       Comptroller of Public Accounts                          Glenn Hegar                           303                                                    01 
03060010007000118REP       Comptroller of Public Accounts                          Glenn Hegar                           401                                                    01 
03060010008000041REP       Comptroller of Public Accounts                          Glenn Hegar                           402                                                    01 
03070010001000020REP       Comm of the General Land Office                         Davey Edwards                         101                                                    01 
03070010002000014REP       Comm of the General Land Office                         Davey Edwards                         201                                                    01 
03070010003000001REP       Comm of the General Land Office                         Davey Edwards                         202                                                    01 
03070010004000028REP       Comm of the General Land Office                         Davey Edwards                         301                                                    01 
03070010005000002REP       Comm of the General Land Office                         Davey Edwards                         302                                                    01 
03070010006000003REP       Comm of the General Land Office                         Davey Edwards                         303                                                    01 
03070010007000014REP       Comm of the General Land Office                         Davey Edwards                         401                                                    01 
03070010008000004REP       Comm of the General Land Office                         Davey Edwards                         402                                                    01 
03070020001000024REP       Comm of the General Land Office                         Jerry Patterson                       101                                                    01 
03070020002000018REP       Comm of the General Land Office                         Jerry Patterson                       201                                                    01 
03070020003000000REP       Comm of the General Land Office                         Jerry Patterson                       202                                                    01 
03070020004000030REP       Comm of the General Land Office                         Jerry Patterson                       301                                                    01 
03070020005000006REP       Comm of the General Land Office                         Jerry Patterson                       302                                                    01 
03070020006000009REP       Comm of the General Land Office                         Jerry Patterson                       303                                                    01 
03070020007000018REP       Comm of the General Land Office                         Jerry Patterson                       401                                                    01 
03070020008000012REP       Comm of the General Land Office                         Jerry Patterson                       402                                                    01 
03070030001000103REP       Comm of the General Land Office                         George P. Bush                        101                                                    01 
03070030002000116REP       Comm of the General Land Office                         George P. Bush                        201                                                    01 
03070030003000012REP       Comm of the General Land Office                         George P. Bush                        202                                                    01 
03070030004000174REP       Comm of the General Land Office                         George P. Bush                        301                                                    01 
03070030005000012REP       Comm of the General Land Office                         George P. Bush                        302                                                    01 
03070030006000034REP       Comm of the General Land Office                         George P. Bush                        303                                                    01 
03070030007000088REP       Comm of the General Land Office                         George P. Bush                        401                                                    01 
03070030008000029REP       Comm of the General Land Office                         George P. Bush                        402                                                    01 
03070040001000010REP       Comm of the General Land Office                         Rick Range                            101                                                    01 
03070040002000010REP       Comm of the General Land Office                         Rick Range                            201                                                    01 
03070040003000000REP       Comm of the General Land Office                         Rick Range                            202                                                    01 
03070040004000016REP       Comm of the General Land Office                         Rick Range                            301                                                    01 
03070040005000002REP       Comm of the General Land Office                         Rick Range                            302                                                    01 
03070040006000009REP       Comm of the General Land Office                         Rick Range                            303                                                    01 
03070040007000006REP       Comm of the General Land Office                         Rick Range                            401                                                    01 
03070040008000002REP       Comm of the General Land Office                         Rick Range                            402                                                    01 
03080010001000072REP       Commissioner of Agriculture                             Sid Miller                            101                                                    01 
03080010002000080REP       Commissioner of Agriculture                             Sid Miller                            201                                                    01 
03080010003000011REP       Commissioner of Agriculture                             Sid Miller                            202                                                    01 
03080010004000129REP       Commissioner of Agriculture                             Sid Miller                            301                                                    01 
03080010005000012REP       Commissioner of Agriculture                             Sid Miller                            302                                                    01 
03080010006000036REP       Commissioner of Agriculture                             Sid Miller                            303                                                    01 
03080010007000074REP       Commissioner of Agriculture                             Sid Miller                            401                                                    01 
03080010008000030REP       Commissioner of Agriculture                             Sid Miller                            402                                                    01 
03080020001000040REP       Commissioner of Agriculture                             Trey Blocker                          101                                                    01 
03080020002000036REP       Commissioner of Agriculture                             Trey Blocker                          201                                                    01 
03080020003000001REP       Commissioner of Agriculture                             Trey Blocker                          202                                                    01 
03080020004000046REP       Commissioner of Agriculture                             Trey Blocker                          301                                                    01 
03080020005000002REP       Commissioner of Agriculture                             Trey Blocker                          302                                                    01 
03080020006000011REP       Commissioner of Agriculture                             Trey Blocker                          303                                                    01 
03080020007000016REP       Commissioner of Agriculture                             Trey Blocker                          401                                                    01 
03080020008000005REP       Commissioner of Agriculture                             Trey Blocker                          402                                                    01 
03080030001000028REP       Commissioner of Agriculture                             Jim Hogan                             101                                                    01 
03080030002000027REP       Commissioner of Agriculture                             Jim Hogan                             201                                                    01 
03080030003000002REP       Commissioner of Agriculture                             Jim Hogan                             202                                                    01 
03080030004000036REP       Commissioner of Agriculture                             Jim Hogan                             301                                                    01 
03080030005000006REP       Commissioner of Agriculture                             Jim Hogan                             302                                                    01 
03080030006000008REP       Commissioner of Agriculture                             Jim Hogan                             303                                                    01 
03080030007000021REP       Commissioner of Agriculture                             Jim Hogan                             401                                                    01 
03080030008000011REP       Commissioner of Agriculture                             Jim Hogan                             402                                                    01 
03090010001000049REP       Railroad Commissioner                                   Weston Martinez                       101                                                    01 
03090010002000046REP       Railroad Commissioner                                   Weston Martinez                       201                                                    01 
03090010003000003REP       Railroad Commissioner                                   Weston Martinez                       202                                                    01 
03090010004000064REP       Railroad Commissioner                                   Weston Martinez                       301                                                    01 
03090010005000005REP       Railroad Commissioner                                   Weston Martinez                       302                                                    01 
03090010006000011REP       Railroad Commissioner                                   Weston Martinez                       303                                                    01 
03090010007000031REP       Railroad Commissioner                                   Weston Martinez                       401                                                    01 
03090010008000014REP       Railroad Commissioner                                   Weston Martinez                       402                                                    01 
03090020001000092REP       Railroad Commissioner                                   Christi Craddick                      101                                                    01 
03090020002000096REP       Railroad Commissioner                                   Christi Craddick                      201                                                    01 
03090020003000011REP       Railroad Commissioner                                   Christi Craddick                      202                                                    01 
03090020004000156REP       Railroad Commissioner                                   Christi Craddick                      301                                                    01 
03090020005000016REP       Railroad Commissioner                                   Christi Craddick                      302                                                    01 
03090020006000042REP       Railroad Commissioner                                   Christi Craddick                      303                                                    01 
03090020007000087REP       Railroad Commissioner                                   Christi Craddick                      401                                                    01 
03090020008000024REP       Railroad Commissioner                                   Christi Craddick                      402                                                    01 
03100010001000126REP       Justice, Supreme Court, Place 2                         Jimmy Blacklock                       101                                                    01 
03100010002000123REP       Justice, Supreme Court, Place 2                         Jimmy Blacklock                       201                                                    01 
03100010003000014REP       Justice, Supreme Court, Place 2                         Jimmy Blacklock                       202                                                    01 
03100010004000198REP       Justice, Supreme Court, Place 2                         Jimmy Blacklock                       301                                                    01 
03100010005000018REP       Justice, Supreme Court, Place 2                         Jimmy Blacklock                       302                                                    01 
03100010006000045REP       Justice, Supreme Court, Place 2                         Jimmy Blacklock                       303                                                    01 
03100010007000107REP       Justice, Supreme Court, Place 2                         Jimmy Blacklock                       401                                                    01 
03100010008000033REP       Justice, Supreme Court, Place 2                         Jimmy Blacklock                       402                                                    01 
03110010001000122REP       Justice, Supreme Court, Place 4                         John Devine                           101                                                    01 
03110010002000117REP       Justice, Supreme Court, Place 4                         John Devine                           201                                                    01 
03110010003000014REP       Justice, Supreme Court, Place 4                         John Devine                           202                                                    01 
03110010004000188REP       Justice, Supreme Court, Place 4                         John Devine                           301                                                    01 
03110010005000017REP       Justice, Supreme Court, Place 4                         John Devine                           302                                                    01 
03110010006000045REP       Justice, Supreme Court, Place 4                         John Devine                           303                                                    01 
03110010007000101REP       Justice, Supreme Court, Place 4                         John Devine                           401                                                    01 
03110010008000031REP       Justice, Supreme Court, Place 4                         John Devine                           402                                                    01 
03120010001000127REP       Justice, Supreme Court, Place 6                         Jeff Brown                            101                                                    01 
03120010002000119REP       Justice, Supreme Court, Place 6                         Jeff Brown                            201                                                    01 
03120010003000014REP       Justice, Supreme Court, Place 6                         Jeff Brown                            202                                                    01 
03120010004000194REP       Justice, Supreme Court, Place 6                         Jeff Brown                            301                                                    01 
03120010005000017REP       Justice, Supreme Court, Place 6                         Jeff Brown                            302                                                    01 
03120010006000044REP       Justice, Supreme Court, Place 6                         Jeff Brown                            303                                                    01 
03120010007000107REP       Justice, Supreme Court, Place 6                         Jeff Brown                            401                                                    01 
03120010008000032REP       Justice, Supreme Court, Place 6                         Jeff Brown                            402                                                    01 
03130010001000077REP       Presiding Judge, Ct of Crim App                         Sharon Keller                         101                                                    01 
03130010002000068REP       Presiding Judge, Ct of Crim App                         Sharon Keller                         201                                                    01 
03130010003000006REP       Presiding Judge, Ct of Crim App                         Sharon Keller                         202                                                    01 
03130010004000106REP       Presiding Judge, Ct of Crim App                         Sharon Keller                         301                                                    01 
03130010005000008REP       Presiding Judge, Ct of Crim App                         Sharon Keller                         302                                                    01 
03130010006000022REP       Presiding Judge, Ct of Crim App                         Sharon Keller                         303                                                    01 
03130010007000050REP       Presiding Judge, Ct of Crim App                         Sharon Keller                         401                                                    01 
03130010008000015REP       Presiding Judge, Ct of Crim App                         Sharon Keller                         402                                                    01 
03130020001000054REP       Presiding Judge, Ct of Crim App                         David Bridges                         101                                                    01 
03130020002000053REP       Presiding Judge, Ct of Crim App                         David Bridges                         201                                                    01 
03130020003000006REP       Presiding Judge, Ct of Crim App                         David Bridges                         202                                                    01 
03130020004000090REP       Presiding Judge, Ct of Crim App                         David Bridges                         301                                                    01 
03130020005000009REP       Presiding Judge, Ct of Crim App                         David Bridges                         302                                                    01 
03130020006000017REP       Presiding Judge, Ct of Crim App                         David Bridges                         303                                                    01 
03130020007000059REP       Presiding Judge, Ct of Crim App                         David Bridges                         401                                                    01 
03130020008000015REP       Presiding Judge, Ct of Crim App                         David Bridges                         402                                                    01 
03140010001000126REP       Judge, Ct  of Crim Appeals, Pl 7                        Barbara Parker Hervey                 101                                                    01 
03140010002000121REP       Judge, Ct  of Crim Appeals, Pl 7                        Barbara Parker Hervey                 201                                                    01 
03140010003000012REP       Judge, Ct  of Crim Appeals, Pl 7                        Barbara Parker Hervey                 202                                                    01 
03140010004000191REP       Judge, Ct  of Crim Appeals, Pl 7                        Barbara Parker Hervey                 301                                                    01 
03140010005000017REP       Judge, Ct  of Crim Appeals, Pl 7                        Barbara Parker Hervey                 302                                                    01 
03140010006000043REP       Judge, Ct  of Crim Appeals, Pl 7                        Barbara Parker Hervey                 303                                                    01 
03140010007000106REP       Judge, Ct  of Crim Appeals, Pl 7                        Barbara Parker Hervey                 401                                                    01 
03140010008000033REP       Judge, Ct  of Crim Appeals, Pl 7                        Barbara Parker Hervey                 402                                                    01 
03150010001000030REP       Judge, Ct of Crim Appeals Pl 8                          Dib Waldrip                           101                                                    01 
03150010002000019REP       Judge, Ct of Crim Appeals Pl 8                          Dib Waldrip                           201                                                    01 
03150010003000005REP       Judge, Ct of Crim Appeals Pl 8                          Dib Waldrip                           202                                                    01 
03150010004000039REP       Judge, Ct of Crim Appeals Pl 8                          Dib Waldrip                           301                                                    01 
03150010005000005REP       Judge, Ct of Crim Appeals Pl 8                          Dib Waldrip                           302                                                    01 
03150010006000012REP       Judge, Ct of Crim Appeals Pl 8                          Dib Waldrip                           303                                                    01 
03150010007000015REP       Judge, Ct of Crim Appeals Pl 8                          Dib Waldrip                           401                                                    01 
03150010008000002REP       Judge, Ct of Crim Appeals Pl 8                          Dib Waldrip                           402                                                    01 
03150020001000050REP       Judge, Ct of Crim Appeals Pl 8                          Jay Brandon                           101                                                    01 
03150020002000063REP       Judge, Ct of Crim Appeals Pl 8                          Jay Brandon                           201                                                    01 
03150020003000003REP       Judge, Ct of Crim Appeals Pl 8                          Jay Brandon                           202                                                    01 
03150020004000084REP       Judge, Ct of Crim Appeals Pl 8                          Jay Brandon                           301                                                    01 
03150020005000004REP       Judge, Ct of Crim Appeals Pl 8                          Jay Brandon                           302                                                    01 
03150020006000016REP       Judge, Ct of Crim Appeals Pl 8                          Jay Brandon                           303                                                    01 
03150020007000058REP       Judge, Ct of Crim Appeals Pl 8                          Jay Brandon                           401                                                    01 
03150020008000017REP       Judge, Ct of Crim Appeals Pl 8                          Jay Brandon                           402                                                    01 
03150030001000047REP       Judge, Ct of Crim Appeals Pl 8                          Michelle Slaughter                    101                                                    01 
03150030002000041REP       Judge, Ct of Crim Appeals Pl 8                          Michelle Slaughter                    201                                                    01 
03150030003000004REP       Judge, Ct of Crim Appeals Pl 8                          Michelle Slaughter                    202                                                    01 
03150030004000074REP       Judge, Ct of Crim Appeals Pl 8                          Michelle Slaughter                    301                                                    01 
03150030005000007REP       Judge, Ct of Crim Appeals Pl 8                          Michelle Slaughter                    302                                                    01 
03150030006000014REP       Judge, Ct of Crim Appeals Pl 8                          Michelle Slaughter                    303                                                    01 
03150030007000030REP       Judge, Ct of Crim Appeals Pl 8                          Michelle Slaughter                    401                                                    01 
03150030008000011REP       Judge, Ct of Crim Appeals Pl 8                          Michelle Slaughter                    402                                                    01 
03160010001000143REP       State Senator, District 31                              Kel Seliger                           101                                                    01 
03160010002000163REP       State Senator, District 31                              Kel Seliger                           201                                                    01 
03160010003000013REP       State Senator, District 31                              Kel Seliger                           202                                                    01 
03160010004000226REP       State Senator, District 31                              Kel Seliger                           301                                                    01 
03160010005000016REP       State Senator, District 31                              Kel Seliger                           302                                                    01 
03160010006000027REP       State Senator, District 31                              Kel Seliger                           303                                                    01 
03160010007000119REP       State Senator, District 31                              Kel Seliger                           401                                                    01 
03160010008000050REP       State Senator, District 31                              Kel Seliger                           402                                                    01 
03160020001000030REP       State Senator, District 31                              Victor Leal                           101                                                    01 
03160020002000025REP       State Senator, District 31                              Victor Leal                           201                                                    01 
03160020003000001REP       State Senator, District 31                              Victor Leal                           202                                                    01 
03160020004000033REP       State Senator, District 31                              Victor Leal                           301                                                    01 
03160020005000002REP       State Senator, District 31                              Victor Leal                           302                                                    01 
03160020006000010REP       State Senator, District 31                              Victor Leal                           303                                                    01 
03160020007000016REP       State Senator, District 31                              Victor Leal                           401                                                    01 
03160020008000002REP       State Senator, District 31                              Victor Leal                           402                                                    01 
03160030001000019REP       State Senator, District 31                              Mike Canon                            101                                                    01 
03160030002000015REP       State Senator, District 31                              Mike Canon                            201                                                    01 
03160030003000003REP       State Senator, District 31                              Mike Canon                            202                                                    01 
03160030004000034REP       State Senator, District 31                              Mike Canon                            301                                                    01 
03160030005000007REP       State Senator, District 31                              Mike Canon                            302                                                    01 
03160030006000021REP       State Senator, District 31                              Mike Canon                            303                                                    01 
03160030007000015REP       State Senator, District 31                              Mike Canon                            401                                                    01 
03160030008000008REP       State Senator, District 31                              Mike Canon                            402                                                    01 
03170010001000023REP       State Representative, District 88                       Richard Beyea                         101                                                    01 
03170010002000030REP       State Representative, District 88                       Richard Beyea                         201                                                    01 
03170010003000001REP       State Representative, District 88                       Richard Beyea                         202                                                    01 
03170010004000045REP       State Representative, District 88                       Richard Beyea                         301                                                    01 
03170010005000003REP       State Representative, District 88                       Richard Beyea                         302                                                    01 
03170010006000010REP       State Representative, District 88                       Richard Beyea                         303                                                    01 
03170010007000025REP       State Representative, District 88                       Richard Beyea                         401                                                    01 
03170010008000008REP       State Representative, District 88                       Richard Beyea                         402                                                    01 
03170020001000014REP       State Representative, District 88                       Jason Huddleston                      101                                                    01 
03170020002000020REP       State Representative, District 88                       Jason Huddleston                      201                                                    01 
03170020003000000REP       State Representative, District 88                       Jason Huddleston                      202                                                    01 
03170020004000030REP       State Representative, District 88                       Jason Huddleston                      301                                                    01 
03170020005000002REP       State Representative, District 88                       Jason Huddleston                      302                                                    01 
03170020006000017REP       State Representative, District 88                       Jason Huddleston                      303                                                    01 
03170020007000014REP       State Representative, District 88                       Jason Huddleston                      401                                                    01 
03170020008000005REP       State Representative, District 88                       Jason Huddleston                      402                                                    01 
03170030001000157REP       State Representative, District 88                       Ken King                              101                                                    01 
03170030002000161REP       State Representative, District 88                       Ken King                              201                                                    01 
03170030003000016REP       State Representative, District 88                       Ken King                              202                                                    01 
03170030004000223REP       State Representative, District 88                       Ken King                              301                                                    01 
03170030005000020REP       State Representative, District 88                       Ken King                              302                                                    01 
03170030006000032REP       State Representative, District 88                       Ken King                              303                                                    01 
03170030007000115REP       State Representative, District 88                       Ken King                              401                                                    01 
03170030008000044REP       State Representative, District 88                       Ken King                              402                                                    01 
03180010001000130REP       Justice, 7th Ct of App Dist, Pl 2                       Judy Parker                           101                                                    01 
03180010002000123REP       Justice, 7th Ct of App Dist, Pl 2                       Judy Parker                           201                                                    01 
03180010003000013REP       Justice, 7th Ct of App Dist, Pl 2                       Judy Parker                           202                                                    01 
03180010004000190REP       Justice, 7th Ct of App Dist, Pl 2                       Judy Parker                           301                                                    01 
03180010005000016REP       Justice, 7th Ct of App Dist, Pl 2                       Judy Parker                           302                                                    01 
03180010006000042REP       Justice, 7th Ct of App Dist, Pl 2                       Judy Parker                           303                                                    01 
03180010007000105REP       Justice, 7th Ct of App Dist, Pl 2                       Judy Parker                           401                                                    01 
03180010008000033REP       Justice, 7th Ct of App Dist, Pl 2                       Judy Parker                           402                                                    01 
03190010001000132REP       Justice, 7th Ct of App Dist, Pl 3                       Pat Pirtle                            101                                                    01 
03190010002000122REP       Justice, 7th Ct of App Dist, Pl 3                       Pat Pirtle                            201                                                    01 
03190010003000013REP       Justice, 7th Ct of App Dist, Pl 3                       Pat Pirtle                            202                                                    01 
03190010004000193REP       Justice, 7th Ct of App Dist, Pl 3                       Pat Pirtle                            301                                                    01 
03190010005000017REP       Justice, 7th Ct of App Dist, Pl 3                       Pat Pirtle                            302                                                    01 
03190010006000044REP       Justice, 7th Ct of App Dist, Pl 3                       Pat Pirtle                            303                                                    01 
03190010007000106REP       Justice, 7th Ct of App Dist, Pl 3                       Pat Pirtle                            401                                                    01 
03190010008000035REP       Justice, 7th Ct of App Dist, Pl 3                       Pat Pirtle                            402                                                    01 
03200010001000157REP       District Judge, 31st Judicial Dist                      Steven R. Emmert                      101                                                    01 
03200010002000160REP       District Judge, 31st Judicial Dist                      Steven R. Emmert                      201                                                    01 
03200010003000015REP       District Judge, 31st Judicial Dist                      Steven R. Emmert                      202                                                    01 
03200010004000252REP       District Judge, 31st Judicial Dist                      Steven R. Emmert                      301                                                    01 
03200010005000020REP       District Judge, 31st Judicial Dist                      Steven R. Emmert                      302                                                    01 
03200010006000049REP       District Judge, 31st Judicial Dist                      Steven R. Emmert                      303                                                    01 
03200010007000129REP       District Judge, 31st Judicial Dist                      Steven R. Emmert                      401                                                    01 
03200010008000052REP       District Judge, 31st Judicial Dist                      Steven R. Emmert                      402                                                    01 
03210010001000179REP       County Judge                                            George Briant                         101                                                    01 
03210010002000179REP       County Judge                                            George Briant                         201                                                    01 
03210010003000017REP       County Judge                                            George Briant                         202                                                    01 
03210010004000272REP       County Judge                                            George Briant                         301                                                    01 
03210010005000022REP       County Judge                                            George Briant                         302                                                    01 
03210010006000054REP       County Judge                                            George Briant                         303                                                    01 
03210010007000141REP       County Judge                                            George Briant                         401                                                    01 
03210010008000054REP       County Judge                                            George Briant                         402                                                    01 
03220010001000180REP       District and County Clerk                               Lisa Johnson                          101                                                    01 
03220010002000187REP       District and County Clerk                               Lisa Johnson                          201                                                    01 
03220010003000017REP       District and County Clerk                               Lisa Johnson                          202                                                    01 
03220010004000272REP       District and County Clerk                               Lisa Johnson                          301                                                    01 
03220010005000020REP       District and County Clerk                               Lisa Johnson                          302                                                    01 
03220010006000053REP       District and County Clerk                               Lisa Johnson                          303                                                    01 
03220010007000137REP       District and County Clerk                               Lisa Johnson                          401                                                    01 
03220010008000055REP       District and County Clerk                               Lisa Johnson                          402                                                    01 
03230010001000165REP       County Treasurer                                        Kay Smallwood                         101                                                    01 
03230010002000168REP       County Treasurer                                        Kay Smallwood                         201                                                    01 
03230010003000017REP       County Treasurer                                        Kay Smallwood                         202                                                    01 
03230010004000249REP       County Treasurer                                        Kay Smallwood                         301                                                    01 
03230010005000020REP       County Treasurer                                        Kay Smallwood                         302                                                    01 
03230010006000050REP       County Treasurer                                        Kay Smallwood                         303                                                    01 
03230010007000136REP       County Treasurer                                        Kay Smallwood                         401                                                    01 
03230010008000050REP       County Treasurer                                        Kay Smallwood                         402                                                    01 
03240010002000185REP       County Commissioner Precinct 2                          Tim Alexander                         201                                                    01 
03240010003000016REP       County Commissioner Precinct 2                          Tim Alexander                         202                                                    01 
03250010007000136REP       County Commissioner Precinct 4                          Nicholas Thomas                       401                                                    01 
03250010008000045REP       County Commissioner Precinct 4                          Nicholas Thomas                       402                                                    01 
03260010001000072REP       Justice of the Peace                                    Larry Gatlin                          101                                                    01 
03260010002000073REP       Justice of the Peace                                    Larry Gatlin                          201                                                    01 
03260010003000006REP       Justice of the Peace                                    Larry Gatlin                          202                                                    01 
03260010004000121REP       Justice of the Peace                                    Larry Gatlin                          301                                                    01 
03260010005000012REP       Justice of the Peace                                    Larry Gatlin                          302                                                    01 
03260010006000031REP       Justice of the Peace                                    Larry Gatlin                          303                                                    01 
03260010007000062REP       Justice of the Peace                                    Larry Gatlin                          401                                                    01 
03260010008000026REP       Justice of the Peace                                    Larry Gatlin                          402                                                    01 
03260020001000122REP       Justice of the Peace                                    Larry Dunnam                          101                                                    01 
03260020002000141REP       Justice of the Peace                                    Larry Dunnam                          201                                                    01 
03260020003000011REP       Justice of the Peace                                    Larry Dunnam                          202                                                    01 
03260020004000182REP       Justice of the Peace                                    Larry Dunnam                          301                                                    01 
03260020005000013REP       Justice of the Peace                                    Larry Dunnam                          302                                                    01 
03260020006000027REP       Justice of the Peace                                    Larry Dunnam                          303                                                    01 
03260020007000088REP       Justice of the Peace                                    Larry Dunnam                          401                                                    01 
03260020008000034REP       Justice of the Peace                                    Larry Dunnam                          402                                                    01 
03270010001000146REP       County Chair                                            Mike Rollins                          101                                                    01 
03270010002000158REP       County Chair                                            Mike Rollins                          201                                                    01 
03270010003000016REP       County Chair                                            Mike Rollins                          202                                                    01 
03270010004000240REP       County Chair                                            Mike Rollins                          301                                                    01 
03270010005000019REP       County Chair                                            Mike Rollins                          302                                                    01 
03270010006000043REP       County Chair                                            Mike Rollins                          303                                                    01 
03270010007000132REP       County Chair                                            Mike Rollins                          401                                                    01 
03270010008000042REP       County Chair                                            Mike Rollins                          402                                                    01 
03280010001000107REP       Proposition 1                                           Yes                                   101                                                    01Y
03280010002000101REP       Proposition 1                                           Yes                                   201                                                    01Y
03280010003000008REP       Proposition 1                                           Yes                                   202                                                    01Y
03280010004000165REP       Proposition 1                                           Yes                                   301                                                    01Y
03280010005000015REP       Proposition 1                                           Yes                                   302                                                    01Y
03280010006000028REP       Proposition 1                                           Yes                                   303                                                    01Y
03280010007000073REP       Proposition 1                                           Yes                                   401                                                    01Y
03280010008000033REP       Proposition 1                                           Yes                                   402                                                    01Y
03280020001000058REP       Proposition 1                                           No                                    101                                                    01Y
03280020002000067REP       Proposition 1                                           No                                    201                                                    01Y
03280020003000007REP       Proposition 1                                           No                                    202                                                    01Y
03280020004000088REP       Proposition 1                                           No                                    301                                                    01Y
03280020005000007REP       Proposition 1                                           No                                    302                                                    01Y
03280020006000020REP       Proposition 1                                           No                                    303                                                    01Y
03280020007000059REP       Proposition 1                                           No                                    401                                                    01Y
03280020008000014REP       Proposition 1                                           No                                    402                                                    01Y
03290010001000151REP       Proposition 2                                           Yes                                   101                                                    01Y
03290010002000168REP       Proposition 2                                           Yes                                   201                                                    01Y
03290010003000014REP       Proposition 2                                           Yes                                   202                                                    01Y
03290010004000241REP       Proposition 2                                           Yes                                   301                                                    01Y
03290010005000022REP       Proposition 2                                           Yes                                   302                                                    01Y
03290010006000045REP       Proposition 2                                           Yes                                   303                                                    01Y
03290010007000125REP       Proposition 2                                           Yes                                   401                                                    01Y
03290010008000047REP       Proposition 2                                           Yes                                   402                                                    01Y
03290020001000023REP       Proposition 2                                           No                                    101                                                    01Y
03290020002000019REP       Proposition 2                                           No                                    201                                                    01Y
03290020003000003REP       Proposition 2                                           No                                    202                                                    01Y
03290020004000025REP       Proposition 2                                           No                                    301                                                    01Y
03290020005000001REP       Proposition 2                                           No                                    302                                                    01Y
03290020006000008REP       Proposition 2                                           No                                    303                                                    01Y
03290020007000015REP       Proposition 2                                           No                                    401                                                    01Y
03290020008000006REP       Proposition 2                                           No                                    402                                                    01Y
03300010001000131REP       Proposition 3                                           Yes                                   101                                                    01Y
03300010002000143REP       Proposition 3                                           Yes                                   201                                                    01Y
03300010003000015REP       Proposition 3                                           Yes                                   202                                                    01Y
03300010004000220REP       Proposition 3                                           Yes                                   301                                                    01Y
03300010005000019REP       Proposition 3                                           Yes                                   302                                                    01Y
03300010006000048REP       Proposition 3                                           Yes                                   303                                                    01Y
03300010007000108REP       Proposition 3                                           Yes                                   401                                                    01Y
03300010008000042REP       Proposition 3                                           Yes                                   402                                                    01Y
03300020001000036REP       Proposition 3                                           No                                    101                                                    01Y
03300020002000036REP       Proposition 3                                           No                                    201                                                    01Y
03300020003000002REP       Proposition 3                                           No                                    202                                                    01Y
03300020004000043REP       Proposition 3                                           No                                    301                                                    01Y
03300020005000005REP       Proposition 3                                           No                                    302                                                    01Y
03300020006000006REP       Proposition 3                                           No                                    303                                                    01Y
03300020007000027REP       Proposition 3                                           No                                    401                                                    01Y
03300020008000011REP       Proposition 3                                           No                                    402                                                    01Y
03310010001000140REP       Proposition 4                                           Yes                                   101                                                    01Y
03310010002000146REP       Proposition 4                                           Yes                                   201                                                    01Y
03310010003000013REP       Proposition 4                                           Yes                                   202                                                    01Y
03310010004000236REP       Proposition 4                                           Yes                                   301                                                    01Y
03310010005000020REP       Proposition 4                                           Yes                                   302                                                    01Y
03310010006000048REP       Proposition 4                                           Yes                                   303                                                    01Y
03310010007000122REP       Proposition 4                                           Yes                                   401                                                    01Y
03310010008000041REP       Proposition 4                                           Yes                                   402                                                    01Y
03310020001000030REP       Proposition 4                                           No                                    101                                                    01Y
03310020002000038REP       Proposition 4                                           No                                    201                                                    01Y
03310020003000003REP       Proposition 4                                           No                                    202                                                    01Y
03310020004000036REP       Proposition 4                                           No                                    301                                                    01Y
03310020005000003REP       Proposition 4                                           No                                    302                                                    01Y
03310020006000007REP       Proposition 4                                           No                                    303                                                    01Y
03310020007000018REP       Proposition 4                                           No                                    401                                                    01Y
03310020008000011REP       Proposition 4                                           No                                    402                                                    01Y
03320010001000087REP       Proposition 5                                           Yes                                   101                                                    01Y
03320010002000099REP       Proposition 5                                           Yes                                   201                                                    01Y
03320010003000011REP       Proposition 5                                           Yes                                   202                                                    01Y
03320010004000132REP       Proposition 5                                           Yes                                   301                                                    01Y
03320010005000016REP       Proposition 5                                           Yes                                   302                                                    01Y
03320010006000023REP       Proposition 5                                           Yes                                   303                                                    01Y
03320010007000066REP       Proposition 5                                           Yes                                   401                                                    01Y
03320010008000032REP       Proposition 5                                           Yes                                   402                                                    01Y
03320020001000090REP       Proposition 5                                           No                                    101                                                    01Y
03320020002000097REP       Proposition 5                                           No                                    201                                                    01Y
03320020003000006REP       Proposition 5                                           No                                    202                                                    01Y
03320020004000152REP       Proposition 5                                           No                                    301                                                    01Y
03320020005000007REP       Proposition 5                                           No                                    302                                                    01Y
03320020006000030REP       Proposition 5                                           No                                    303                                                    01Y
03320020007000081REP       Proposition 5                                           No                                    401                                                    01Y
03320020008000023REP       Proposition 5                                           No                                    402                                                    01Y
03330010001000160REP       Proposition 6                                           Yes                                   101                                                    01Y
03330010002000179REP       Proposition 6                                           Yes                                   201                                                    01Y
03330010003000017REP       Proposition 6                                           Yes                                   202                                                    01Y
03330010004000253REP       Proposition 6                                           Yes                                   301                                                    01Y
03330010005000022REP       Proposition 6                                           Yes                                   302                                                    01Y
03330010006000053REP       Proposition 6                                           Yes                                   303                                                    01Y
03330010007000141REP       Proposition 6                                           Yes                                   401                                                    01Y
03330010008000055REP       Proposition 6                                           Yes                                   402                                                    01Y
03330020001000018REP       Proposition 6                                           No                                    101                                                    01Y
03330020002000016REP       Proposition 6                                           No                                    201                                                    01Y
03330020003000000REP       Proposition 6                                           No                                    202                                                    01Y
03330020004000027REP       Proposition 6                                           No                                    301                                                    01Y
03330020005000002REP       Proposition 6                                           No                                    302                                                    01Y
03330020006000003REP       Proposition 6                                           No                                    303                                                    01Y
03330020007000008REP       Proposition 6                                           No                                    401                                                    01Y
03330020008000004REP       Proposition 6                                           No                                    402                                                    01Y
03340010001000111REP       Proposition 7                                           Yes                                   101                                                    01Y
03340010002000129REP       Proposition 7                                           Yes                                   201                                                    01Y
03340010003000009REP       Proposition 7                                           Yes                                   202                                                    01Y
03340010004000193REP       Proposition 7                                           Yes                                   301                                                    01Y
03340010005000011REP       Proposition 7                                           Yes                                   302                                                    01Y
03340010006000041REP       Proposition 7                                           Yes                                   303                                                    01Y
03340010007000113REP       Proposition 7                                           Yes                                   401                                                    01Y
03340010008000036REP       Proposition 7                                           Yes                                   402                                                    01Y
03340020001000065REP       Proposition 7                                           No                                    101                                                    01Y
03340020002000065REP       Proposition 7                                           No                                    201                                                    01Y
03340020003000007REP       Proposition 7                                           No                                    202                                                    01Y
03340020004000077REP       Proposition 7                                           No                                    301                                                    01Y
03340020005000012REP       Proposition 7                                           No                                    302                                                    01Y
03340020006000013REP       Proposition 7                                           No                                    303                                                    01Y
03340020007000034REP       Proposition 7                                           No                                    401                                                    01Y
03340020008000018REP       Proposition 7                                           No                                    402                                                    01Y
03350010001000163REP       Proposition 8                                           Yes                                   101                                                    01Y
03350010002000186REP       Proposition 8                                           Yes                                   201                                                    01Y
03350010003000015REP       Proposition 8                                           Yes                                   202                                                    01Y
03350010004000266REP       Proposition 8                                           Yes                                   301                                                    01Y
03350010005000024REP       Proposition 8                                           Yes                                   302                                                    01Y
03350010006000053REP       Proposition 8                                           Yes                                   303                                                    01Y
03350010007000138REP       Proposition 8                                           Yes                                   401                                                    01Y
03350010008000051REP       Proposition 8                                           Yes                                   402                                                    01Y
03350020001000014REP       Proposition 8                                           No                                    101                                                    01Y
03350020002000011REP       Proposition 8                                           No                                    201                                                    01Y
03350020003000001REP       Proposition 8                                           No                                    202                                                    01Y
03350020004000012REP       Proposition 8                                           No                                    301                                                    01Y
03350020005000000REP       Proposition 8                                           No                                    302                                                    01Y
03350020006000001REP       Proposition 8                                           No                                    303                                                    01Y
03350020007000007REP       Proposition 8                                           No                                    401                                                    01Y
03350020008000004REP       Proposition 8                                           No                                    402                                                    01Y
03360010001000150REP       Proposition 9                                           Yes                                   101                                                    01Y
03360010002000169REP       Proposition 9                                           Yes                                   201                                                    01Y
03360010003000015REP       Proposition 9                                           Yes                                   202                                                    01Y
03360010004000244REP       Proposition 9                                           Yes                                   301                                                    01Y
03360010005000020REP       Proposition 9                                           Yes                                   302                                                    01Y
03360010006000052REP       Proposition 9                                           Yes                                   303                                                    01Y
03360010007000132REP       Proposition 9                                           Yes                                   401                                                    01Y
03360010008000047REP       Proposition 9                                           Yes                                   402                                                    01Y
03360020001000028REP       Proposition 9                                           No                                    101                                                    01Y
03360020002000023REP       Proposition 9                                           No                                    201                                                    01Y
03360020003000001REP       Proposition 9                                           No                                    202                                                    01Y
03360020004000031REP       Proposition 9                                           No                                    301                                                    01Y
