01010010001001192000000000000000000000000000000          REGISTERED VOTERS - TOTAL                               REGISTERED VOTERS - TOTAL             1-Calvert                                              00 
01010010002001571000000000000000000000000000000          REGISTERED VOTERS - TOTAL                               REGISTERED VOTERS - TOTAL             2-Hearne                                               00 
01010010003000561000000000000000000000000000000          REGISTERED VOTERS - TOTAL                               REGISTERED VOTERS - TOTAL             3-Wheelock                                             00 
01010010004000484000000000000000000000000000000          REGISTERED VOTERS - TOTAL                               REGISTERED VOTERS - TOTAL             4-Bald Prairie                                         00 
01010010005001517000000000000000000000000000000          REGISTERED VOTERS - TOTAL                               REGISTERED VOTERS - TOTAL             5-Bremond                                              00 
01010010006001553000000000000000000000000000000          REGISTERED VOTERS - TOTAL                               REGISTERED VOTERS - TOTAL             6-Franklin                                             00 
01010010007000086000000000000000000000000000000          REGISTERED VOTERS - TOTAL                               REGISTERED VOTERS - TOTAL             7-Mumford                                              00 
01010010008000227000000000000000000000000000000          REGISTERED VOTERS - TOTAL                               REGISTERED VOTERS - TOTAL             8-Seale                                                00 
01010010009001116000000000000000000000000000000          REGISTERED VOTERS - TOTAL                               REGISTERED VOTERS - TOTAL             11-Benchley                                            00 
01010010010000187000000000000000000000000000000          REGISTERED VOTERS - TOTAL                               REGISTERED VOTERS - TOTAL             13-Elliott                                             00 
01010010011000154000000000000000000000000000000          REGISTERED VOTERS - TOTAL                               REGISTERED VOTERS - TOTAL             16-Easterly                                            00 
01010010012000096000000000000000000000000000000          REGISTERED VOTERS - TOTAL                               REGISTERED VOTERS - TOTAL             18-Ridge                                               00 
01010010013000525000000000000000000000000000000          REGISTERED VOTERS - TOTAL                               REGISTERED VOTERS - TOTAL             19-New Baden                                           00 
01010010014001360000000000000000000000000000000          REGISTERED VOTERS - TOTAL                               REGISTERED VOTERS - TOTAL             22-Teal Center                                         00 
01010010015000803000000000000000000000000000000          REGISTERED VOTERS - TOTAL                               REGISTERED VOTERS - TOTAL             23-Christian Faith Ctr.                                00 
01020010001000435000218000193000024000000000000          BALLOTS CAST - TOTAL                                    BALLOTS CAST - TOTAL                  1-Calvert                                              00 
01020010002000414000236000153000025000000000000          BALLOTS CAST - TOTAL                                    BALLOTS CAST - TOTAL                  2-Hearne                                               00 
01020010003000212000092000108000012000000000000          BALLOTS CAST - TOTAL                                    BALLOTS CAST - TOTAL                  3-Wheelock                                             00 
01020010004000220000156000053000011000000000000          BALLOTS CAST - TOTAL                                    BALLOTS CAST - TOTAL                  4-Bald Prairie                                         00 
01020010005000527000232000254000041000000000000          BALLOTS CAST - TOTAL                                    BALLOTS CAST - TOTAL                  5-Bremond                                              00 
01020010006000507000303000179000025000000000000          BALLOTS CAST - TOTAL                                    BALLOTS CAST - TOTAL                  6-Franklin                                             00 
01020010007000013000002000009000002000000000000          BALLOTS CAST - TOTAL                                    BALLOTS CAST - TOTAL                  7-Mumford                                              00 
01020010008000104000006000084000014000000000000          BALLOTS CAST - TOTAL                                    BALLOTS CAST - TOTAL                  8-Seale                                                00 
01020010009000236000061000149000026000000000000          BALLOTS CAST - TOTAL                                    BALLOTS CAST - TOTAL                  11-Benchley                                            00 
01020010010000073000052000017000004000000000000          BALLOTS CAST - TOTAL                                    BALLOTS CAST - TOTAL                  13-Elliott                                             00 
01020010011000068000037000031000000000000000000          BALLOTS CAST - TOTAL                                    BALLOTS CAST - TOTAL                  16-Easterly                                            00 
01020010012000031000012000018000001000000000000          BALLOTS CAST - TOTAL                                    BALLOTS CAST - TOTAL                  18-Ridge                                               00 
01020010013000204000104000084000016000000000000          BALLOTS CAST - TOTAL                                    BALLOTS CAST - TOTAL                  19-New Baden                                           00 
01020010014000291000156000101000034000000000000          BALLOTS CAST - TOTAL                                    BALLOTS CAST - TOTAL                  22-Teal Center                                         00 
01020010015000184000088000082000014000000000000          BALLOTS CAST - TOTAL                                    BALLOTS CAST - TOTAL                  23-Christian Faith Ctr.                                00 
01030010001000273000161000100000012000000000000REP       BALLOTS CAST - REPUBLICAN PARTY                         BALLOTS CAST - REPUBLICAN PARTY       1-Calvert                                              00 
01030010002000350000212000119000019000000000000REP       BALLOTS CAST - REPUBLICAN PARTY                         BALLOTS CAST - REPUBLICAN PARTY       2-Hearne                                               00 
01030010003000202000091000100000011000000000000REP       BALLOTS CAST - REPUBLICAN PARTY                         BALLOTS CAST - REPUBLICAN PARTY       3-Wheelock                                             00 
01030010004000204000152000046000006000000000000REP       BALLOTS CAST - REPUBLICAN PARTY                         BALLOTS CAST - REPUBLICAN PARTY       4-Bald Prairie                                         00 
01030010005000352000175000159000018000000000000REP       BALLOTS CAST - REPUBLICAN PARTY                         BALLOTS CAST - REPUBLICAN PARTY       5-Bremond                                              00 
01030010006000462000286000157000019000000000000REP       BALLOTS CAST - REPUBLICAN PARTY                         BALLOTS CAST - REPUBLICAN PARTY       6-Franklin                                             00 
01030010007000005000002000003000000000000000000REP       BALLOTS CAST - REPUBLICAN PARTY                         BALLOTS CAST - REPUBLICAN PARTY       7-Mumford                                              00 
01030010008000092000006000073000013000000000000REP       BALLOTS CAST - REPUBLICAN PARTY                         BALLOTS CAST - REPUBLICAN PARTY       8-Seale                                                00 
01030010009000194000048000128000018000000000000REP       BALLOTS CAST - REPUBLICAN PARTY                         BALLOTS CAST - REPUBLICAN PARTY       11-Benchley                                            00 
01030010010000073000052000017000004000000000000REP       BALLOTS CAST - REPUBLICAN PARTY                         BALLOTS CAST - REPUBLICAN PARTY       13-Elliott                                             00 
01030010011000063000037000026000000000000000000REP       BALLOTS CAST - REPUBLICAN PARTY                         BALLOTS CAST - REPUBLICAN PARTY       16-Easterly                                            00 
01030010012000028000012000015000001000000000000REP       BALLOTS CAST - REPUBLICAN PARTY                         BALLOTS CAST - REPUBLICAN PARTY       18-Ridge                                               00 
01030010013000195000100000081000014000000000000REP       BALLOTS CAST - REPUBLICAN PARTY                         BALLOTS CAST - REPUBLICAN PARTY       19-New Baden                                           00 
01030010014000086000055000028000003000000000000REP       BALLOTS CAST - REPUBLICAN PARTY                         BALLOTS CAST - REPUBLICAN PARTY       22-Teal Center                                         00 
01030010015000139000080000054000005000000000000REP       BALLOTS CAST - REPUBLICAN PARTY                         BALLOTS CAST - REPUBLICAN PARTY       23-Christian Faith Ctr.                                00 
01040010001000162000057000093000012000000000000DEM       BALLOTS CAST - DEMOCRATIC PARTY                         BALLOTS CAST - DEMOCRATIC PARTY       1-Calvert                                              00 
01040010002000064000024000034000006000000000000DEM       BALLOTS CAST - DEMOCRATIC PARTY                         BALLOTS CAST - DEMOCRATIC PARTY       2-Hearne                                               00 
01040010003000010000001000008000001000000000000DEM       BALLOTS CAST - DEMOCRATIC PARTY                         BALLOTS CAST - DEMOCRATIC PARTY       3-Wheelock                                             00 
01040010004000016000004000007000005000000000000DEM       BALLOTS CAST - DEMOCRATIC PARTY                         BALLOTS CAST - DEMOCRATIC PARTY       4-Bald Prairie                                         00 
01040010005000175000057000095000023000000000000DEM       BALLOTS CAST - DEMOCRATIC PARTY                         BALLOTS CAST - DEMOCRATIC PARTY       5-Bremond                                              00 
01040010006000045000017000022000006000000000000DEM       BALLOTS CAST - DEMOCRATIC PARTY                         BALLOTS CAST - DEMOCRATIC PARTY       6-Franklin                                             00 
01040010007000008000000000006000002000000000000DEM       BALLOTS CAST - DEMOCRATIC PARTY                         BALLOTS CAST - DEMOCRATIC PARTY       7-Mumford                                              00 
01040010008000012000000000011000001000000000000DEM       BALLOTS CAST - DEMOCRATIC PARTY                         BALLOTS CAST - DEMOCRATIC PARTY       8-Seale                                                00 
01040010009000042000013000021000008000000000000DEM       BALLOTS CAST - DEMOCRATIC PARTY                         BALLOTS CAST - DEMOCRATIC PARTY       11-Benchley                                            00 
01040010010000000000000000000000000000000000000DEM       BALLOTS CAST - DEMOCRATIC PARTY                         BALLOTS CAST - DEMOCRATIC PARTY       13-Elliott                                             00 
01040010011000005000000000005000000000000000000DEM       BALLOTS CAST - DEMOCRATIC PARTY                         BALLOTS CAST - DEMOCRATIC PARTY       16-Easterly                                            00 
01040010012000003000000000003000000000000000000DEM       BALLOTS CAST - DEMOCRATIC PARTY                         BALLOTS CAST - DEMOCRATIC PARTY       18-Ridge                                               00 
01040010013000009000004000003000002000000000000DEM       BALLOTS CAST - DEMOCRATIC PARTY                         BALLOTS CAST - DEMOCRATIC PARTY       19-New Baden                                           00 
01040010014000205000101000073000031000000000000DEM       BALLOTS CAST - DEMOCRATIC PARTY                         BALLOTS CAST - DEMOCRATIC PARTY       22-Teal Center                                         00 
01040010015000045000008000028000009000000000000DEM       BALLOTS CAST - DEMOCRATIC PARTY                         BALLOTS CAST - DEMOCRATIC PARTY       23-Christian Faith Ctr.                                00 
01050010001000006000003000003000000000000000000REP       United States Senator                                   Stefano de Stefano                    1-Calvert                                              01 
01050010002000006000005000001000000000000000000REP       United States Senator                                   Stefano de Stefano                    2-Hearne                                               01 
01050010003000003000002000001000000000000000000REP       United States Senator                                   Stefano de Stefano                    3-Wheelock                                             01 
01050010004000006000006000000000000000000000000REP       United States Senator                                   Stefano de Stefano                    4-Bald Prairie                                         01 
01050010005000005000003000002000000000000000000REP       United States Senator                                   Stefano de Stefano                    5-Bremond                                              01 
01050010006000013000006000007000000000000000000REP       United States Senator                                   Stefano de Stefano                    6-Franklin                                             01 
01050010007000000000000000000000000000000000000REP       United States Senator                                   Stefano de Stefano                    7-Mumford                                              01 
01050010008000002000000000002000000000000000000REP       United States Senator                                   Stefano de Stefano                    8-Seale                                                01 
01050010009000001000000000001000000000000000000REP       United States Senator                                   Stefano de Stefano                    11-Benchley                                            01 
01050010010000000000000000000000000000000000000REP       United States Senator                                   Stefano de Stefano                    13-Elliott                                             01 
01050010011000000000000000000000000000000000000REP       United States Senator                                   Stefano de Stefano                    16-Easterly                                            01 
01050010012000000000000000000000000000000000000REP       United States Senator                                   Stefano de Stefano                    18-Ridge                                               01 
01050010013000001000000000001000000000000000000REP       United States Senator                                   Stefano de Stefano                    19-New Baden                                           01 
01050010014000001000001000000000000000000000000REP       United States Senator                                   Stefano de Stefano                    22-Teal Center                                         01 
01050010015000006000002000004000000000000000000REP       United States Senator                                   Stefano de Stefano                    23-Christian Faith Ctr.                                01 
01050020001000015000009000006000000000000000000REP       United States Senator                                   Mary Miller                           1-Calvert                                              01 
01050020002000018000010000008000000000000000000REP       United States Senator                                   Mary Miller                           2-Hearne                                               01 
01050020003000009000002000007000000000000000000REP       United States Senator                                   Mary Miller                           3-Wheelock                                             01 
01050020004000007000005000002000000000000000000REP       United States Senator                                   Mary Miller                           4-Bald Prairie                                         01 
01050020005000015000007000008000000000000000000REP       United States Senator                                   Mary Miller                           5-Bremond                                              01 
01050020006000020000017000003000000000000000000REP       United States Senator                                   Mary Miller                           6-Franklin                                             01 
01050020007000000000000000000000000000000000000REP       United States Senator                                   Mary Miller                           7-Mumford                                              01 
01050020008000002000000000002000000000000000000REP       United States Senator                                   Mary Miller                           8-Seale                                                01 
01050020009000012000003000007000002000000000000REP       United States Senator                                   Mary Miller                           11-Benchley                                            01 
01050020010000002000001000001000000000000000000REP       United States Senator                                   Mary Miller                           13-Elliott                                             01 
01050020011000002000001000001000000000000000000REP       United States Senator                                   Mary Miller                           16-Easterly                                            01 
01050020012000001000000000001000000000000000000REP       United States Senator                                   Mary Miller                           18-Ridge                                               01 
01050020013000006000003000001000002000000000000REP       United States Senator                                   Mary Miller                           19-New Baden                                           01 
01050020014000003000002000001000000000000000000REP       United States Senator                                   Mary Miller                           22-Teal Center                                         01 
01050020015000005000000000003000002000000000000REP       United States Senator                                   Mary Miller                           23-Christian Faith Ctr.                                01 
01050030001000007000004000003000000000000000000REP       United States Senator                                   Bruce Jacobson, Jr.                   1-Calvert                                              01 
01050030002000008000005000003000000000000000000REP       United States Senator                                   Bruce Jacobson, Jr.                   2-Hearne                                               01 
01050030003000007000001000006000000000000000000REP       United States Senator                                   Bruce Jacobson, Jr.                   3-Wheelock                                             01 
01050030004000002000000000002000000000000000000REP       United States Senator                                   Bruce Jacobson, Jr.                   4-Bald Prairie                                         01 
01050030005000008000005000003000000000000000000REP       United States Senator                                   Bruce Jacobson, Jr.                   5-Bremond                                              01 
01050030006000008000003000005000000000000000000REP       United States Senator                                   Bruce Jacobson, Jr.                   6-Franklin                                             01 
01050030007000000000000000000000000000000000000REP       United States Senator                                   Bruce Jacobson, Jr.                   7-Mumford                                              01 
01050030008000004000000000001000003000000000000REP       United States Senator                                   Bruce Jacobson, Jr.                   8-Seale                                                01 
01050030009000002000001000001000000000000000000REP       United States Senator                                   Bruce Jacobson, Jr.                   11-Benchley                                            01 
01050030010000001000000000001000000000000000000REP       United States Senator                                   Bruce Jacobson, Jr.                   13-Elliott                                             01 
01050030011000005000004000001000000000000000000REP       United States Senator                                   Bruce Jacobson, Jr.                   16-Easterly                                            01 
01050030012000001000001000000000000000000000000REP       United States Senator                                   Bruce Jacobson, Jr.                   18-Ridge                                               01 
01050030013000008000004000004000000000000000000REP       United States Senator                                   Bruce Jacobson, Jr.                   19-New Baden                                           01 
01050030014000000000000000000000000000000000000REP       United States Senator                                   Bruce Jacobson, Jr.                   22-Teal Center                                         01 
01050030015000003000001000001000001000000000000REP       United States Senator                                   Bruce Jacobson, Jr.                   23-Christian Faith Ctr.                                01 
01050040001000002000000000002000000000000000000REP       United States Senator                                   Geraldine Sam                         1-Calvert                                              01 
01050040002000004000003000001000000000000000000REP       United States Senator                                   Geraldine Sam                         2-Hearne                                               01 
01050040003000003000003000000000000000000000000REP       United States Senator                                   Geraldine Sam                         3-Wheelock                                             01 
01050040004000001000000000001000000000000000000REP       United States Senator                                   Geraldine Sam                         4-Bald Prairie                                         01 
01050040005000004000004000000000000000000000000REP       United States Senator                                   Geraldine Sam                         5-Bremond                                              01 
01050040006000003000000000003000000000000000000REP       United States Senator                                   Geraldine Sam                         6-Franklin                                             01 
01050040007000000000000000000000000000000000000REP       United States Senator                                   Geraldine Sam                         7-Mumford                                              01 
01050040008000000000000000000000000000000000000REP       United States Senator                                   Geraldine Sam                         8-Seale                                                01 
01050040009000001000000000001000000000000000000REP       United States Senator                                   Geraldine Sam                         11-Benchley                                            01 
01050040010000000000000000000000000000000000000REP       United States Senator                                   Geraldine Sam                         13-Elliott                                             01 
01050040011000001000000000001000000000000000000REP       United States Senator                                   Geraldine Sam                         16-Easterly                                            01 
01050040012000000000000000000000000000000000000REP       United States Senator                                   Geraldine Sam                         18-Ridge                                               01 
01050040013000001000000000001000000000000000000REP       United States Senator                                   Geraldine Sam                         19-New Baden                                           01 
01050040014000001000001000000000000000000000000REP       United States Senator                                   Geraldine Sam                         22-Teal Center                                         01 
01050040015000001000000000001000000000000000000REP       United States Senator                                   Geraldine Sam                         23-Christian Faith Ctr.                                01 
01050050001000220000132000077000011000000000000REP       United States Senator                                   Ted Cruz                              1-Calvert                                              01 
01050050002000260000152000089000019000000000000REP       United States Senator                                   Ted Cruz                              2-Hearne                                               01 
01050050003000163000072000082000009000000000000REP       United States Senator                                   Ted Cruz                              3-Wheelock                                             01 
01050050004000169000125000038000006000000000000REP       United States Senator                                   Ted Cruz                              4-Bald Prairie                                         01 
01050050005000281000130000133000018000000000000REP       United States Senator                                   Ted Cruz                              5-Bremond                                              01 
01050050006000365000221000125000019000000000000REP       United States Senator                                   Ted Cruz                              6-Franklin                                             01 
01050050007000004000001000003000000000000000000REP       United States Senator                                   Ted Cruz                              7-Mumford                                              01 
01050050008000084000006000068000010000000000000REP       United States Senator                                   Ted Cruz                              8-Seale                                                01 
01050050009000175000042000117000016000000000000REP       United States Senator                                   Ted Cruz                              11-Benchley                                            01 
01050050010000060000042000015000003000000000000REP       United States Senator                                   Ted Cruz                              13-Elliott                                             01 
01050050011000052000032000020000000000000000000REP       United States Senator                                   Ted Cruz                              16-Easterly                                            01 
01050050012000024000010000013000001000000000000REP       United States Senator                                   Ted Cruz                              18-Ridge                                               01 
01050050013000170000088000071000011000000000000REP       United States Senator                                   Ted Cruz                              19-New Baden                                           01 
01050050014000046000031000013000002000000000000REP       United States Senator                                   Ted Cruz                              22-Teal Center                                         01 
01050050015000105000063000041000001000000000000REP       United States Senator                                   Ted Cruz                              23-Christian Faith Ctr.                                01 
01050060001000000000000000000000000000000000000REP       United States Senator                                   OVER VOTES                            1-Calvert                                              01 
01050060002000000000000000000000000000000000000REP       United States Senator                                   OVER VOTES                            2-Hearne                                               01 
01050060003000000000000000000000000000000000000REP       United States Senator                                   OVER VOTES                            3-Wheelock                                             01 
01050060004000000000000000000000000000000000000REP       United States Senator                                   OVER VOTES                            4-Bald Prairie                                         01 
01050060005000000000000000000000000000000000000REP       United States Senator                                   OVER VOTES                            5-Bremond                                              01 
01050060006000000000000000000000000000000000000REP       United States Senator                                   OVER VOTES                            6-Franklin                                             01 
01050060007000000000000000000000000000000000000REP       United States Senator                                   OVER VOTES                            7-Mumford                                              01 
01050060008000000000000000000000000000000000000REP       United States Senator                                   OVER VOTES                            8-Seale                                                01 
01050060009000000000000000000000000000000000000REP       United States Senator                                   OVER VOTES                            11-Benchley                                            01 
01050060010000000000000000000000000000000000000REP       United States Senator                                   OVER VOTES                            13-Elliott                                             01 
01050060011000000000000000000000000000000000000REP       United States Senator                                   OVER VOTES                            16-Easterly                                            01 
01050060012000000000000000000000000000000000000REP       United States Senator                                   OVER VOTES                            18-Ridge                                               01 
01050060013000000000000000000000000000000000000REP       United States Senator                                   OVER VOTES                            19-New Baden                                           01 
01050060014000000000000000000000000000000000000REP       United States Senator                                   OVER VOTES                            22-Teal Center                                         01 
01050060015000001000001000000000000000000000000REP       United States Senator                                   OVER VOTES                            23-Christian Faith Ctr.                                01 
01050070001000023000013000009000001000000000000REP       United States Senator                                   UNDER VOTES                           1-Calvert                                              01 
01050070002000054000037000017000000000000000000REP       United States Senator                                   UNDER VOTES                           2-Hearne                                               01 
01050070003000017000011000004000002000000000000REP       United States Senator                                   UNDER VOTES                           3-Wheelock                                             01 
01050070004000019000016000003000000000000000000REP       United States Senator                                   UNDER VOTES                           4-Bald Prairie                                         01 
01050070005000039000026000013000000000000000000REP       United States Senator                                   UNDER VOTES                           5-Bremond                                              01 
01050070006000053000039000014000000000000000000REP       United States Senator                                   UNDER VOTES                           6-Franklin                                             01 
01050070007000001000001000000000000000000000000REP       United States Senator                                   UNDER VOTES                           7-Mumford                                              01 
01050070008000000000000000000000000000000000000REP       United States Senator                                   UNDER VOTES                           8-Seale                                                01 
01050070009000003000002000001000000000000000000REP       United States Senator                                   UNDER VOTES                           11-Benchley                                            01 
01050070010000010000009000000000001000000000000REP       United States Senator                                   UNDER VOTES                           13-Elliott                                             01 
01050070011000003000000000003000000000000000000REP       United States Senator                                   UNDER VOTES                           16-Easterly                                            01 
01050070012000002000001000001000000000000000000REP       United States Senator                                   UNDER VOTES                           18-Ridge                                               01 
01050070013000009000005000003000001000000000000REP       United States Senator                                   UNDER VOTES                           19-New Baden                                           01 
01050070014000035000020000014000001000000000000REP       United States Senator                                   UNDER VOTES                           22-Teal Center                                         01 
01050070015000018000013000004000001000000000000REP       United States Senator                                   UNDER VOTES                           23-Christian Faith Ctr.                                01 
01060010001000217000128000078000011000000000000REP       United States Representative, Dist 17                   Bill Flores                           1-Calvert                                              01 
01060010002000257000151000087000019000000000000REP       United States Representative, Dist 17                   Bill Flores                           2-Hearne                                               01 
01060010003000169000069000092000008000000000000REP       United States Representative, Dist 17                   Bill Flores                           3-Wheelock                                             01 
01060010004000160000123000034000003000000000000REP       United States Representative, Dist 17                   Bill Flores                           4-Bald Prairie                                         01 
01060010005000256000112000128000016000000000000REP       United States Representative, Dist 17                   Bill Flores                           5-Bremond                                              01 
01060010006000366000222000125000019000000000000REP       United States Representative, Dist 17                   Bill Flores                           6-Franklin                                             01 
01060010007000003000000000003000000000000000000REP       United States Representative, Dist 17                   Bill Flores                           7-Mumford                                              01 
01060010008000082000005000066000011000000000000REP       United States Representative, Dist 17                   Bill Flores                           8-Seale                                                01 
01060010009000163000037000109000017000000000000REP       United States Representative, Dist 17                   Bill Flores                           11-Benchley                                            01 
01060010010000051000038000012000001000000000000REP       United States Representative, Dist 17                   Bill Flores                           13-Elliott                                             01 
01060010011000049000027000022000000000000000000REP       United States Representative, Dist 17                   Bill Flores                           16-Easterly                                            01 
01060010012000020000008000011000001000000000000REP       United States Representative, Dist 17                   Bill Flores                           18-Ridge                                               01 
01060010013000169000091000065000013000000000000REP       United States Representative, Dist 17                   Bill Flores                           19-New Baden                                           01 
01060010014000045000032000011000002000000000000REP       United States Representative, Dist 17                   Bill Flores                           22-Teal Center                                         01 
01060010015000104000054000045000005000000000000REP       United States Representative, Dist 17                   Bill Flores                           23-Christian Faith Ctr.                                01 
01060020001000000000000000000000000000000000000REP       United States Representative, Dist 17                   OVER VOTES                            1-Calvert                                              01 
01060020002000000000000000000000000000000000000REP       United States Representative, Dist 17                   OVER VOTES                            2-Hearne                                               01 
01060020003000000000000000000000000000000000000REP       United States Representative, Dist 17                   OVER VOTES                            3-Wheelock                                             01 
01060020004000000000000000000000000000000000000REP       United States Representative, Dist 17                   OVER VOTES                            4-Bald Prairie                                         01 
01060020005000000000000000000000000000000000000REP       United States Representative, Dist 17                   OVER VOTES                            5-Bremond                                              01 
01060020006000000000000000000000000000000000000REP       United States Representative, Dist 17                   OVER VOTES                            6-Franklin                                             01 
01060020007000000000000000000000000000000000000REP       United States Representative, Dist 17                   OVER VOTES                            7-Mumford                                              01 
01060020008000000000000000000000000000000000000REP       United States Representative, Dist 17                   OVER VOTES                            8-Seale                                                01 
01060020009000000000000000000000000000000000000REP       United States Representative, Dist 17                   OVER VOTES                            11-Benchley                                            01 
01060020010000000000000000000000000000000000000REP       United States Representative, Dist 17                   OVER VOTES                            13-Elliott                                             01 
01060020011000000000000000000000000000000000000REP       United States Representative, Dist 17                   OVER VOTES                            16-Easterly                                            01 
01060020012000000000000000000000000000000000000REP       United States Representative, Dist 17                   OVER VOTES                            18-Ridge                                               01 
01060020013000000000000000000000000000000000000REP       United States Representative, Dist 17                   OVER VOTES                            19-New Baden                                           01 
01060020014000000000000000000000000000000000000REP       United States Representative, Dist 17                   OVER VOTES                            22-Teal Center                                         01 
01060020015000000000000000000000000000000000000REP       United States Representative, Dist 17                   OVER VOTES                            23-Christian Faith Ctr.                                01 
01060030001000056000033000022000001000000000000REP       United States Representative, Dist 17                   UNDER VOTES                           1-Calvert                                              01 
01060030002000093000061000032000000000000000000REP       United States Representative, Dist 17                   UNDER VOTES                           2-Hearne                                               01 
01060030003000033000022000008000003000000000000REP       United States Representative, Dist 17                   UNDER VOTES                           3-Wheelock                                             01 
01060030004000044000029000012000003000000000000REP       United States Representative, Dist 17                   UNDER VOTES                           4-Bald Prairie                                         01 
01060030005000096000063000031000002000000000000REP       United States Representative, Dist 17                   UNDER VOTES                           5-Bremond                                              01 
01060030006000096000064000032000000000000000000REP       United States Representative, Dist 17                   UNDER VOTES                           6-Franklin                                             01 
01060030007000002000002000000000000000000000000REP       United States Representative, Dist 17                   UNDER VOTES                           7-Mumford                                              01 
01060030008000009000001000007000001000000000000REP       United States Representative, Dist 17                   UNDER VOTES                           8-Seale                                                01 
01060030009000030000011000019000000000000000000REP       United States Representative, Dist 17                   UNDER VOTES                           11-Benchley                                            01 
01060030010000022000014000005000003000000000000REP       United States Representative, Dist 17                   UNDER VOTES                           13-Elliott                                             01 
01060030011000014000010000004000000000000000000REP       United States Representative, Dist 17                   UNDER VOTES                           16-Easterly                                            01 
01060030012000008000004000004000000000000000000REP       United States Representative, Dist 17                   UNDER VOTES                           18-Ridge                                               01 
01060030013000026000009000016000001000000000000REP       United States Representative, Dist 17                   UNDER VOTES                           19-New Baden                                           01 
01060030014000041000023000017000001000000000000REP       United States Representative, Dist 17                   UNDER VOTES                           22-Teal Center                                         01 
01060030015000035000026000009000000000000000000REP       United States Representative, Dist 17                   UNDER VOTES                           23-Christian Faith Ctr.                                01 
01070010001000005000003000002000000000000000000REP       Governor                                                SECEDE Kilgore                        1-Calvert                                              01 
01070010002000003000001000002000000000000000000REP       Governor                                                SECEDE Kilgore                        2-Hearne                                               01 
01070010003000001000000000001000000000000000000REP       Governor                                                SECEDE Kilgore                        3-Wheelock                                             01 
01070010004000001000000000001000000000000000000REP       Governor                                                SECEDE Kilgore                        4-Bald Prairie                                         01 
01070010005000001000001000000000000000000000000REP       Governor                                                SECEDE Kilgore                        5-Bremond                                              01 
01070010006000004000001000003000000000000000000REP       Governor                                                SECEDE Kilgore                        6-Franklin                                             01 
01070010007000000000000000000000000000000000000REP       Governor                                                SECEDE Kilgore                        7-Mumford                                              01 
01070010008000001000000000000000001000000000000REP       Governor                                                SECEDE Kilgore                        8-Seale                                                01 
01070010009000002000001000001000000000000000000REP       Governor                                                SECEDE Kilgore                        11-Benchley                                            01 
01070010010000002000000000002000000000000000000REP       Governor                                                SECEDE Kilgore                        13-Elliott                                             01 
01070010011000000000000000000000000000000000000REP       Governor                                                SECEDE Kilgore                        16-Easterly                                            01 
01070010012000000000000000000000000000000000000REP       Governor                                                SECEDE Kilgore                        18-Ridge                                               01 
01070010013000003000000000003000000000000000000REP       Governor                                                SECEDE Kilgore                        19-New Baden                                           01 
01070010014000000000000000000000000000000000000REP       Governor                                                SECEDE Kilgore                        22-Teal Center                                         01 
01070010015000003000002000001000000000000000000REP       Governor                                                SECEDE Kilgore                        23-Christian Faith Ctr.                                01 
01070020001000019000012000007000000000000000000REP       Governor                                                Barbara Krueger                       1-Calvert                                              01 
01070020002000027000018000008000001000000000000REP       Governor                                                Barbara Krueger                       2-Hearne                                               01 
01070020003000012000005000007000000000000000000REP       Governor                                                Barbara Krueger                       3-Wheelock                                             01 
01070020004000009000006000003000000000000000000REP       Governor                                                Barbara Krueger                       4-Bald Prairie                                         01 
01070020005000016000009000007000000000000000000REP       Governor                                                Barbara Krueger                       5-Bremond                                              01 
01070020006000022000010000012000000000000000000REP       Governor                                                Barbara Krueger                       6-Franklin                                             01 
01070020007000000000000000000000000000000000000REP       Governor                                                Barbara Krueger                       7-Mumford                                              01 
01070020008000004000000000004000000000000000000REP       Governor                                                Barbara Krueger                       8-Seale                                                01 
01070020009000009000003000006000000000000000000REP       Governor                                                Barbara Krueger                       11-Benchley                                            01 
01070020010000002000001000001000000000000000000REP       Governor                                                Barbara Krueger                       13-Elliott                                             01 
01070020011000001000000000001000000000000000000REP       Governor                                                Barbara Krueger                       16-Easterly                                            01 
01070020012000001000000000001000000000000000000REP       Governor                                                Barbara Krueger                       18-Ridge                                               01 
01070020013000012000004000007000001000000000000REP       Governor                                                Barbara Krueger                       19-New Baden                                           01 
01070020014000005000003000002000000000000000000REP       Governor                                                Barbara Krueger                       22-Teal Center                                         01 
01070020015000013000009000002000002000000000000REP       Governor                                                Barbara Krueger                       23-Christian Faith Ctr.                                01 
01070030001000230000135000083000012000000000000REP       Governor                                                Greg Abbott                           1-Calvert                                              01 
01070030002000273000161000094000018000000000000REP       Governor                                                Greg Abbott                           2-Hearne                                               01 
01070030003000174000074000091000009000000000000REP       Governor                                                Greg Abbott                           3-Wheelock                                             01 
01070030004000180000135000039000006000000000000REP       Governor                                                Greg Abbott                           4-Bald Prairie                                         01 
01070030005000298000143000137000018000000000000REP       Governor                                                Greg Abbott                           5-Bremond                                              01 
01070030006000398000247000132000019000000000000REP       Governor                                                Greg Abbott                           6-Franklin                                             01 
01070030007000004000001000003000000000000000000REP       Governor                                                Greg Abbott                           7-Mumford                                              01 
01070030008000085000006000067000012000000000000REP       Governor                                                Greg Abbott                           8-Seale                                                01 
01070030009000180000042000120000018000000000000REP       Governor                                                Greg Abbott                           11-Benchley                                            01 
01070030010000061000044000014000003000000000000REP       Governor                                                Greg Abbott                           13-Elliott                                             01 
01070030011000059000037000022000000000000000000REP       Governor                                                Greg Abbott                           16-Easterly                                            01 
01070030012000025000011000013000001000000000000REP       Governor                                                Greg Abbott                           18-Ridge                                               01 
01070030013000176000093000070000013000000000000REP       Governor                                                Greg Abbott                           19-New Baden                                           01 
01070030014000047000032000012000003000000000000REP       Governor                                                Greg Abbott                           22-Teal Center                                         01 
01070030015000104000057000044000003000000000000REP       Governor                                                Greg Abbott                           23-Christian Faith Ctr.                                01 
01070040001000000000000000000000000000000000000REP       Governor                                                OVER VOTES                            1-Calvert                                              01 
01070040002000000000000000000000000000000000000REP       Governor                                                OVER VOTES                            2-Hearne                                               01 
01070040003000000000000000000000000000000000000REP       Governor                                                OVER VOTES                            3-Wheelock                                             01 
01070040004000000000000000000000000000000000000REP       Governor                                                OVER VOTES                            4-Bald Prairie                                         01 
01070040005000000000000000000000000000000000000REP       Governor                                                OVER VOTES                            5-Bremond                                              01 
01070040006000000000000000000000000000000000000REP       Governor                                                OVER VOTES                            6-Franklin                                             01 
01070040007000000000000000000000000000000000000REP       Governor                                                OVER VOTES                            7-Mumford                                              01 
01070040008000000000000000000000000000000000000REP       Governor                                                OVER VOTES                            8-Seale                                                01 
01070040009000000000000000000000000000000000000REP       Governor                                                OVER VOTES                            11-Benchley                                            01 
01070040010000000000000000000000000000000000000REP       Governor                                                OVER VOTES                            13-Elliott                                             01 
01070040011000000000000000000000000000000000000REP       Governor                                                OVER VOTES                            16-Easterly                                            01 
01070040012000000000000000000000000000000000000REP       Governor                                                OVER VOTES                            18-Ridge                                               01 
01070040013000000000000000000000000000000000000REP       Governor                                                OVER VOTES                            19-New Baden                                           01 
01070040014000000000000000000000000000000000000REP       Governor                                                OVER VOTES                            22-Teal Center                                         01 
01070040015000000000000000000000000000000000000REP       Governor                                                OVER VOTES                            23-Christian Faith Ctr.                                01 
01070050001000019000011000008000000000000000000REP       Governor                                                UNDER VOTES                           1-Calvert                                              01 
01070050002000047000032000015000000000000000000REP       Governor                                                UNDER VOTES                           2-Hearne                                               01 
01070050003000015000012000001000002000000000000REP       Governor                                                UNDER VOTES                           3-Wheelock                                             01 
01070050004000014000011000003000000000000000000REP       Governor                                                UNDER VOTES                           4-Bald Prairie                                         01 
01070050005000037000022000015000000000000000000REP       Governor                                                UNDER VOTES                           5-Bremond                                              01 
01070050006000038000028000010000000000000000000REP       Governor                                                UNDER VOTES                           6-Franklin                                             01 
01070050007000001000001000000000000000000000000REP       Governor                                                UNDER VOTES                           7-Mumford                                              01 
01070050008000002000000000002000000000000000000REP       Governor                                                UNDER VOTES                           8-Seale                                                01 
01070050009000003000002000001000000000000000000REP       Governor                                                UNDER VOTES                           11-Benchley                                            01 
01070050010000008000007000000000001000000000000REP       Governor                                                UNDER VOTES                           13-Elliott                                             01 
01070050011000003000000000003000000000000000000REP       Governor                                                UNDER VOTES                           16-Easterly                                            01 
01070050012000002000001000001000000000000000000REP       Governor                                                UNDER VOTES                           18-Ridge                                               01 
01070050013000004000003000001000000000000000000REP       Governor                                                UNDER VOTES                           19-New Baden                                           01 
01070050014000034000020000014000000000000000000REP       Governor                                                UNDER VOTES                           22-Teal Center                                         01 
01070050015000019000012000007000000000000000000REP       Governor                                                UNDER VOTES                           23-Christian Faith Ctr.                                01 
01080010001000040000028000010000002000000000000REP       Lieutenant Governor                                     Scott Milder                          1-Calvert                                              01 
01080010002000054000041000012000001000000000000REP       Lieutenant Governor                                     Scott Milder                          2-Hearne                                               01 
01080010003000033000007000026000000000000000000REP       Lieutenant Governor                                     Scott Milder                          3-Wheelock                                             01 
01080010004000030000021000009000000000000000000REP       Lieutenant Governor                                     Scott Milder                          4-Bald Prairie                                         01 
01080010005000066000034000032000000000000000000REP       Lieutenant Governor                                     Scott Milder                          5-Bremond                                              01 
01080010006000092000057000035000000000000000000REP       Lieutenant Governor                                     Scott Milder                          6-Franklin                                             01 
01080010007000000000000000000000000000000000000REP       Lieutenant Governor                                     Scott Milder                          7-Mumford                                              01 
01080010008000017000000000016000001000000000000REP       Lieutenant Governor                                     Scott Milder                          8-Seale                                                01 
01080010009000035000013000017000005000000000000REP       Lieutenant Governor                                     Scott Milder                          11-Benchley                                            01 
01080010010000011000009000002000000000000000000REP       Lieutenant Governor                                     Scott Milder                          13-Elliott                                             01 
01080010011000011000005000006000000000000000000REP       Lieutenant Governor                                     Scott Milder                          16-Easterly                                            01 
01080010012000002000000000002000000000000000000REP       Lieutenant Governor                                     Scott Milder                          18-Ridge                                               01 
01080010013000026000011000014000001000000000000REP       Lieutenant Governor                                     Scott Milder                          19-New Baden                                           01 
01080010014000003000003000000000000000000000000REP       Lieutenant Governor                                     Scott Milder                          22-Teal Center                                         01 
01080010015000020000011000007000002000000000000REP       Lieutenant Governor                                     Scott Milder                          23-Christian Faith Ctr.                                01 
01080020001000193000107000077000009000000000000REP       Lieutenant Governor                                     Dan Patrick                           1-Calvert                                              01 
01080020002000219000120000083000016000000000000REP       Lieutenant Governor                                     Dan Patrick                           2-Hearne                                               01 
01080020003000143000065000070000008000000000000REP       Lieutenant Governor                                     Dan Patrick                           3-Wheelock                                             01 
01080020004000143000106000031000006000000000000REP       Lieutenant Governor                                     Dan Patrick                           4-Bald Prairie                                         01 
01080020005000228000105000106000017000000000000REP       Lieutenant Governor                                     Dan Patrick                           5-Bremond                                              01 
01080020006000308000190000100000018000000000000REP       Lieutenant Governor                                     Dan Patrick                           6-Franklin                                             01 
01080020007000003000000000003000000000000000000REP       Lieutenant Governor                                     Dan Patrick                           7-Mumford                                              01 
01080020008000075000006000057000012000000000000REP       Lieutenant Governor                                     Dan Patrick                           8-Seale                                                01 
01080020009000147000031000104000012000000000000REP       Lieutenant Governor                                     Dan Patrick                           11-Benchley                                            01 
01080020010000049000033000013000003000000000000REP       Lieutenant Governor                                     Dan Patrick                           13-Elliott                                             01 
01080020011000047000031000016000000000000000000REP       Lieutenant Governor                                     Dan Patrick                           16-Easterly                                            01 
01080020012000023000011000011000001000000000000REP       Lieutenant Governor                                     Dan Patrick                           18-Ridge                                               01 
01080020013000157000082000062000013000000000000REP       Lieutenant Governor                                     Dan Patrick                           19-New Baden                                           01 
01080020014000044000029000012000003000000000000REP       Lieutenant Governor                                     Dan Patrick                           22-Teal Center                                         01 
01080020015000088000049000036000003000000000000REP       Lieutenant Governor                                     Dan Patrick                           23-Christian Faith Ctr.                                01 
01080030001000000000000000000000000000000000000REP       Lieutenant Governor                                     OVER VOTES                            1-Calvert                                              01 
01080030002000000000000000000000000000000000000REP       Lieutenant Governor                                     OVER VOTES                            2-Hearne                                               01 
01080030003000000000000000000000000000000000000REP       Lieutenant Governor                                     OVER VOTES                            3-Wheelock                                             01 
01080030004000000000000000000000000000000000000REP       Lieutenant Governor                                     OVER VOTES                            4-Bald Prairie                                         01 
01080030005000000000000000000000000000000000000REP       Lieutenant Governor                                     OVER VOTES                            5-Bremond                                              01 
01080030006000000000000000000000000000000000000REP       Lieutenant Governor                                     OVER VOTES                            6-Franklin                                             01 
01080030007000000000000000000000000000000000000REP       Lieutenant Governor                                     OVER VOTES                            7-Mumford                                              01 
01080030008000000000000000000000000000000000000REP       Lieutenant Governor                                     OVER VOTES                            8-Seale                                                01 
01080030009000001000001000000000000000000000000REP       Lieutenant Governor                                     OVER VOTES                            11-Benchley                                            01 
01080030010000000000000000000000000000000000000REP       Lieutenant Governor                                     OVER VOTES                            13-Elliott                                             01 
01080030011000000000000000000000000000000000000REP       Lieutenant Governor                                     OVER VOTES                            16-Easterly                                            01 
01080030012000000000000000000000000000000000000REP       Lieutenant Governor                                     OVER VOTES                            18-Ridge                                               01 
01080030013000000000000000000000000000000000000REP       Lieutenant Governor                                     OVER VOTES                            19-New Baden                                           01 
01080030014000000000000000000000000000000000000REP       Lieutenant Governor                                     OVER VOTES                            22-Teal Center                                         01 
01080030015000000000000000000000000000000000000REP       Lieutenant Governor                                     OVER VOTES                            23-Christian Faith Ctr.                                01 
01080040001000040000026000013000001000000000000REP       Lieutenant Governor                                     UNDER VOTES                           1-Calvert                                              01 
01080040002000076000051000023000002000000000000REP       Lieutenant Governor                                     UNDER VOTES                           2-Hearne                                               01 
01080040003000026000019000004000003000000000000REP       Lieutenant Governor                                     UNDER VOTES                           3-Wheelock                                             01 
01080040004000031000025000006000000000000000000REP       Lieutenant Governor                                     UNDER VOTES                           4-Bald Prairie                                         01 
01080040005000058000036000021000001000000000000REP       Lieutenant Governor                                     UNDER VOTES                           5-Bremond                                              01 
01080040006000062000039000022000001000000000000REP       Lieutenant Governor                                     UNDER VOTES                           6-Franklin                                             01 
01080040007000002000002000000000000000000000000REP       Lieutenant Governor                                     UNDER VOTES                           7-Mumford                                              01 
01080040008000000000000000000000000000000000000REP       Lieutenant Governor                                     UNDER VOTES                           8-Seale                                                01 
01080040009000010000003000007000000000000000000REP       Lieutenant Governor                                     UNDER VOTES                           11-Benchley                                            01 
01080040010000013000010000002000001000000000000REP       Lieutenant Governor                                     UNDER VOTES                           13-Elliott                                             01 
01080040011000005000001000004000000000000000000REP       Lieutenant Governor                                     UNDER VOTES                           16-Easterly                                            01 
01080040012000003000001000002000000000000000000REP       Lieutenant Governor                                     UNDER VOTES                           18-Ridge                                               01 
01080040013000012000007000005000000000000000000REP       Lieutenant Governor                                     UNDER VOTES                           19-New Baden                                           01 
01080040014000039000023000016000000000000000000REP       Lieutenant Governor                                     UNDER VOTES                           22-Teal Center                                         01 
01080040015000031000020000011000000000000000000REP       Lieutenant Governor                                     UNDER VOTES                           23-Christian Faith Ctr.                                01 
01090010001000206000121000075000010000000000000REP       Attorney General                                        Ken Paxton                            1-Calvert                                              01 
01090010002000242000138000088000016000000000000REP       Attorney General                                        Ken Paxton                            2-Hearne                                               01 
01090010003000153000064000081000008000000000000REP       Attorney General                                        Ken Paxton                            3-Wheelock                                             01 
01090010004000157000118000035000004000000000000REP       Attorney General                                        Ken Paxton                            4-Bald Prairie                                         01 
01090010005000231000103000112000016000000000000REP       Attorney General                                        Ken Paxton                            5-Bremond                                              01 
01090010006000344000214000112000018000000000000REP       Attorney General                                        Ken Paxton                            6-Franklin                                             01 
01090010007000004000001000003000000000000000000REP       Attorney General                                        Ken Paxton                            7-Mumford                                              01 
01090010008000074000006000059000009000000000000REP       Attorney General                                        Ken Paxton                            8-Seale                                                01 
01090010009000165000042000108000015000000000000REP       Attorney General                                        Ken Paxton                            11-Benchley                                            01 
01090010010000051000036000014000001000000000000REP       Attorney General                                        Ken Paxton                            13-Elliott                                             01 
01090010011000050000030000020000000000000000000REP       Attorney General                                        Ken Paxton                            16-Easterly                                            01 
01090010012000023000010000012000001000000000000REP       Attorney General                                        Ken Paxton                            18-Ridge                                               01 
01090010013000165000086000067000012000000000000REP       Attorney General                                        Ken Paxton                            19-New Baden                                           01 
01090010014000042000032000008000002000000000000REP       Attorney General                                        Ken Paxton                            22-Teal Center                                         01 
01090010015000097000052000042000003000000000000REP       Attorney General                                        Ken Paxton                            23-Christian Faith Ctr.                                01 
01090020001000000000000000000000000000000000000REP       Attorney General                                        OVER VOTES                            1-Calvert                                              01 
01090020002000000000000000000000000000000000000REP       Attorney General                                        OVER VOTES                            2-Hearne                                               01 
01090020003000000000000000000000000000000000000REP       Attorney General                                        OVER VOTES                            3-Wheelock                                             01 
01090020004000000000000000000000000000000000000REP       Attorney General                                        OVER VOTES                            4-Bald Prairie                                         01 
01090020005000000000000000000000000000000000000REP       Attorney General                                        OVER VOTES                            5-Bremond                                              01 
01090020006000000000000000000000000000000000000REP       Attorney General                                        OVER VOTES                            6-Franklin                                             01 
01090020007000000000000000000000000000000000000REP       Attorney General                                        OVER VOTES                            7-Mumford                                              01 
01090020008000000000000000000000000000000000000REP       Attorney General                                        OVER VOTES                            8-Seale                                                01 
01090020009000000000000000000000000000000000000REP       Attorney General                                        OVER VOTES                            11-Benchley                                            01 
01090020010000000000000000000000000000000000000REP       Attorney General                                        OVER VOTES                            13-Elliott                                             01 
01090020011000000000000000000000000000000000000REP       Attorney General                                        OVER VOTES                            16-Easterly                                            01 
01090020012000000000000000000000000000000000000REP       Attorney General                                        OVER VOTES                            18-Ridge                                               01 
01090020013000000000000000000000000000000000000REP       Attorney General                                        OVER VOTES                            19-New Baden                                           01 
01090020014000000000000000000000000000000000000REP       Attorney General                                        OVER VOTES                            22-Teal Center                                         01 
01090020015000000000000000000000000000000000000REP       Attorney General                                        OVER VOTES                            23-Christian Faith Ctr.                                01 
01090030001000067000040000025000002000000000000REP       Attorney General                                        UNDER VOTES                           1-Calvert                                              01 
01090030002000108000074000031000003000000000000REP       Attorney General                                        UNDER VOTES                           2-Hearne                                               01 
01090030003000049000027000019000003000000000000REP       Attorney General                                        UNDER VOTES                           3-Wheelock                                             01 
01090030004000047000034000011000002000000000000REP       Attorney General                                        UNDER VOTES                           4-Bald Prairie                                         01 
01090030005000121000072000047000002000000000000REP       Attorney General                                        UNDER VOTES                           5-Bremond                                              01 
01090030006000118000072000045000001000000000000REP       Attorney General                                        UNDER VOTES                           6-Franklin                                             01 
01090030007000001000001000000000000000000000000REP       Attorney General                                        UNDER VOTES                           7-Mumford                                              01 
01090030008000017000000000014000003000000000000REP       Attorney General                                        UNDER VOTES                           8-Seale                                                01 
01090030009000028000006000020000002000000000000REP       Attorney General                                        UNDER VOTES                           11-Benchley                                            01 
01090030010000022000016000003000003000000000000REP       Attorney General                                        UNDER VOTES                           13-Elliott                                             01 
01090030011000013000007000006000000000000000000REP       Attorney General                                        UNDER VOTES                           16-Easterly                                            01 
01090030012000005000002000003000000000000000000REP       Attorney General                                        UNDER VOTES                           18-Ridge                                               01 
01090030013000030000014000014000002000000000000REP       Attorney General                                        UNDER VOTES                           19-New Baden                                           01 
01090030014000044000023000020000001000000000000REP       Attorney General                                        UNDER VOTES                           22-Teal Center                                         01 
01090030015000042000028000012000002000000000000REP       Attorney General                                        UNDER VOTES                           23-Christian Faith Ctr.                                01 
01100010001000196000115000072000009000000000000REP       Comptroller of Public Accounts                          Glenn Hegar                           1-Calvert                                              01 
01100010002000230000133000083000014000000000000REP       Comptroller of Public Accounts                          Glenn Hegar                           2-Hearne                                               01 
01100010003000150000058000086000006000000000000REP       Comptroller of Public Accounts                          Glenn Hegar                           3-Wheelock                                             01 
01100010004000144000108000032000004000000000000REP       Comptroller of Public Accounts                          Glenn Hegar                           4-Bald Prairie                                         01 
01100010005000214000090000108000016000000000000REP       Comptroller of Public Accounts                          Glenn Hegar                           5-Bremond                                              01 
01100010006000321000191000116000014000000000000REP       Comptroller of Public Accounts                          Glenn Hegar                           6-Franklin                                             01 
01100010007000004000001000003000000000000000000REP       Comptroller of Public Accounts                          Glenn Hegar                           7-Mumford                                              01 
01100010008000071000006000056000009000000000000REP       Comptroller of Public Accounts                          Glenn Hegar                           8-Seale                                                01 
01100010009000156000040000099000017000000000000REP       Comptroller of Public Accounts                          Glenn Hegar                           11-Benchley                                            01 
01100010010000047000032000014000001000000000000REP       Comptroller of Public Accounts                          Glenn Hegar                           13-Elliott                                             01 
01100010011000048000031000017000000000000000000REP       Comptroller of Public Accounts                          Glenn Hegar                           16-Easterly                                            01 
01100010012000023000010000012000001000000000000REP       Comptroller of Public Accounts                          Glenn Hegar                           18-Ridge                                               01 
01100010013000159000083000065000011000000000000REP       Comptroller of Public Accounts                          Glenn Hegar                           19-New Baden                                           01 
01100010014000039000030000007000002000000000000REP       Comptroller of Public Accounts                          Glenn Hegar                           22-Teal Center                                         01 
01100010015000093000048000040000005000000000000REP       Comptroller of Public Accounts                          Glenn Hegar                           23-Christian Faith Ctr.                                01 
01100020001000000000000000000000000000000000000REP       Comptroller of Public Accounts                          OVER VOTES                            1-Calvert                                              01 
01100020002000000000000000000000000000000000000REP       Comptroller of Public Accounts                          OVER VOTES                            2-Hearne                                               01 
01100020003000000000000000000000000000000000000REP       Comptroller of Public Accounts                          OVER VOTES                            3-Wheelock                                             01 
01100020004000000000000000000000000000000000000REP       Comptroller of Public Accounts                          OVER VOTES                            4-Bald Prairie                                         01 
01100020005000000000000000000000000000000000000REP       Comptroller of Public Accounts                          OVER VOTES                            5-Bremond                                              01 
01100020006000000000000000000000000000000000000REP       Comptroller of Public Accounts                          OVER VOTES                            6-Franklin                                             01 
01100020007000000000000000000000000000000000000REP       Comptroller of Public Accounts                          OVER VOTES                            7-Mumford                                              01 
01100020008000000000000000000000000000000000000REP       Comptroller of Public Accounts                          OVER VOTES                            8-Seale                                                01 
01100020009000000000000000000000000000000000000REP       Comptroller of Public Accounts                          OVER VOTES                            11-Benchley                                            01 
01100020010000000000000000000000000000000000000REP       Comptroller of Public Accounts                          OVER VOTES                            13-Elliott                                             01 
01100020011000000000000000000000000000000000000REP       Comptroller of Public Accounts                          OVER VOTES                            16-Easterly                                            01 
01100020012000000000000000000000000000000000000REP       Comptroller of Public Accounts                          OVER VOTES                            18-Ridge                                               01 
01100020013000000000000000000000000000000000000REP       Comptroller of Public Accounts                          OVER VOTES                            19-New Baden                                           01 
01100020014000000000000000000000000000000000000REP       Comptroller of Public Accounts                          OVER VOTES                            22-Teal Center                                         01 
01100020015000000000000000000000000000000000000REP       Comptroller of Public Accounts                          OVER VOTES                            23-Christian Faith Ctr.                                01 
01100030001000077000046000028000003000000000000REP       Comptroller of Public Accounts                          UNDER VOTES                           1-Calvert                                              01 
01100030002000120000079000036000005000000000000REP       Comptroller of Public Accounts                          UNDER VOTES                           2-Hearne                                               01 
01100030003000052000033000014000005000000000000REP       Comptroller of Public Accounts                          UNDER VOTES                           3-Wheelock                                             01 
01100030004000060000044000014000002000000000000REP       Comptroller of Public Accounts                          UNDER VOTES                           4-Bald Prairie                                         01 
01100030005000138000085000051000002000000000000REP       Comptroller of Public Accounts                          UNDER VOTES                           5-Bremond                                              01 
01100030006000140000095000041000004000000000000REP       Comptroller of Public Accounts                          UNDER VOTES                           6-Franklin                                             01 
01100030007000001000001000000000000000000000000REP       Comptroller of Public Accounts                          UNDER VOTES                           7-Mumford                                              01 
01100030008000020000000000017000003000000000000REP       Comptroller of Public Accounts                          UNDER VOTES                           8-Seale                                                01 
01100030009000037000008000029000000000000000000REP       Comptroller of Public Accounts                          UNDER VOTES                           11-Benchley                                            01 
01100030010000026000020000003000003000000000000REP       Comptroller of Public Accounts                          UNDER VOTES                           13-Elliott                                             01 
01100030011000014000006000008000000000000000000REP       Comptroller of Public Accounts                          UNDER VOTES                           16-Easterly                                            01 
01100030012000005000002000003000000000000000000REP       Comptroller of Public Accounts                          UNDER VOTES                           18-Ridge                                               01 
01100030013000036000017000016000003000000000000REP       Comptroller of Public Accounts                          UNDER VOTES                           19-New Baden                                           01 
01100030014000047000025000021000001000000000000REP       Comptroller of Public Accounts                          UNDER VOTES                           22-Teal Center                                         01 
01100030015000046000032000014000000000000000000REP       Comptroller of Public Accounts                          UNDER VOTES                           23-Christian Faith Ctr.                                01 
01110010001000014000009000005000000000000000000REP       Commissioner of the General Land Office                 Rick Range                            1-Calvert                                              01 
01110010002000012000007000004000001000000000000REP       Commissioner of the General Land Office                 Rick Range                            2-Hearne                                               01 
01110010003000014000007000007000000000000000000REP       Commissioner of the General Land Office                 Rick Range                            3-Wheelock                                             01 
01110010004000010000006000004000000000000000000REP       Commissioner of the General Land Office                 Rick Range                            4-Bald Prairie                                         01 
01110010005000019000013000005000001000000000000REP       Commissioner of the General Land Office                 Rick Range                            5-Bremond                                              01 
01110010006000023000014000008000001000000000000REP       Commissioner of the General Land Office                 Rick Range                            6-Franklin                                             01 
01110010007000000000000000000000000000000000000REP       Commissioner of the General Land Office                 Rick Range                            7-Mumford                                              01 
01110010008000006000000000003000003000000000000REP       Commissioner of the General Land Office                 Rick Range                            8-Seale                                                01 
01110010009000012000005000006000001000000000000REP       Commissioner of the General Land Office                 Rick Range                            11-Benchley                                            01 
01110010010000003000002000001000000000000000000REP       Commissioner of the General Land Office                 Rick Range                            13-Elliott                                             01 
01110010011000009000007000002000000000000000000REP       Commissioner of the General Land Office                 Rick Range                            16-Easterly                                            01 
01110010012000002000001000001000000000000000000REP       Commissioner of the General Land Office                 Rick Range                            18-Ridge                                               01 
01110010013000008000004000004000000000000000000REP       Commissioner of the General Land Office                 Rick Range                            19-New Baden                                           01 
01110010014000006000004000002000000000000000000REP       Commissioner of the General Land Office                 Rick Range                            22-Teal Center                                         01 
01110010015000008000004000004000000000000000000REP       Commissioner of the General Land Office                 Rick Range                            23-Christian Faith Ctr.                                01 
01110020001000057000033000018000006000000000000REP       Commissioner of the General Land Office                 Jerry Patterson                       1-Calvert                                              01 
01110020002000058000035000018000005000000000000REP       Commissioner of the General Land Office                 Jerry Patterson                       2-Hearne                                               01 
01110020003000039000018000018000003000000000000REP       Commissioner of the General Land Office                 Jerry Patterson                       3-Wheelock                                             01 
01110020004000034000022000010000002000000000000REP       Commissioner of the General Land Office                 Jerry Patterson                       4-Bald Prairie                                         01 
01110020005000058000024000027000007000000000000REP       Commissioner of the General Land Office                 Jerry Patterson                       5-Bremond                                              01 
01110020006000100000059000035000006000000000000REP       Commissioner of the General Land Office                 Jerry Patterson                       6-Franklin                                             01 
01110020007000001000001000000000000000000000000REP       Commissioner of the General Land Office                 Jerry Patterson                       7-Mumford                                              01 
01110020008000027000002000021000004000000000000REP       Commissioner of the General Land Office                 Jerry Patterson                       8-Seale                                                01 
01110020009000051000007000042000002000000000000REP       Commissioner of the General Land Office                 Jerry Patterson                       11-Benchley                                            01 
01110020010000009000006000001000002000000000000REP       Commissioner of the General Land Office                 Jerry Patterson                       13-Elliott                                             01 
01110020011000021000016000005000000000000000000REP       Commissioner of the General Land Office                 Jerry Patterson                       16-Easterly                                            01 
01110020012000010000004000005000001000000000000REP       Commissioner of the General Land Office                 Jerry Patterson                       18-Ridge                                               01 
01110020013000045000023000019000003000000000000REP       Commissioner of the General Land Office                 Jerry Patterson                       19-New Baden                                           01 
01110020014000015000012000002000001000000000000REP       Commissioner of the General Land Office                 Jerry Patterson                       22-Teal Center                                         01 
01110020015000027000013000012000002000000000000REP       Commissioner of the General Land Office                 Jerry Patterson                       23-Christian Faith Ctr.                                01 
01110030001000149000086000060000003000000000000REP       Commissioner of the General Land Office                 George P. Bush                        1-Calvert                                              01 
01110030002000191000114000066000011000000000000REP       Commissioner of the General Land Office                 George P. Bush                        2-Hearne                                               01 
01110030003000103000042000056000005000000000000REP       Commissioner of the General Land Office                 George P. Bush                        3-Wheelock                                             01 
01110030004000108000086000020000002000000000000REP       Commissioner of the General Land Office                 George P. Bush                        4-Bald Prairie                                         01 
01110030005000176000081000088000007000000000000REP       Commissioner of the General Land Office                 George P. Bush                        5-Bremond                                              01 
01110030006000220000138000072000010000000000000REP       Commissioner of the General Land Office                 George P. Bush                        6-Franklin                                             01 
01110030007000003000000000003000000000000000000REP       Commissioner of the General Land Office                 George P. Bush                        7-Mumford                                              01 
01110030008000050000004000042000004000000000000REP       Commissioner of the General Land Office                 George P. Bush                        8-Seale                                                01 
