00010010001003218000000000000000000000000000000000000000000000000000000000000000000000000000000000000          REGISTERED VOTERS - TOTAL                               REGISTERED VOTERS - TOTAL             Precinct 1001                                          00 
00010010002002520000000000000000000000000000000000000000000000000000000000000000000000000000000000000          REGISTERED VOTERS - TOTAL                               REGISTERED VOTERS - TOTAL             Precinct 1002                                          00 
00010010003003094000000000000000000000000000000000000000000000000000000000000000000000000000000000000          REGISTERED VOTERS - TOTAL                               REGISTERED VOTERS - TOTAL             Precinct 1003                                          00 
00010010004002719000000000000000000000000000000000000000000000000000000000000000000000000000000000000          REGISTERED VOTERS - TOTAL                               REGISTERED VOTERS - TOTAL             Precinct 1004                                          00 
00010010005003146000000000000000000000000000000000000000000000000000000000000000000000000000000000000          REGISTERED VOTERS - TOTAL                               REGISTERED VOTERS - TOTAL             Precinct 1022                                          00 
00010010006002726000000000000000000000000000000000000000000000000000000000000000000000000000000000000          REGISTERED VOTERS - TOTAL                               REGISTERED VOTERS - TOTAL             Precinct 2005                                          00 
00010010007001532000000000000000000000000000000000000000000000000000000000000000000000000000000000000          REGISTERED VOTERS - TOTAL                               REGISTERED VOTERS - TOTAL             Precinct 2006                                          00 
00010010008002143000000000000000000000000000000000000000000000000000000000000000000000000000000000000          REGISTERED VOTERS - TOTAL                               REGISTERED VOTERS - TOTAL             Precinct 2007                                          00 
00010010009000982000000000000000000000000000000000000000000000000000000000000000000000000000000000000          REGISTERED VOTERS - TOTAL                               REGISTERED VOTERS - TOTAL             Precinct 2008                                          00 
00010010010001395000000000000000000000000000000000000000000000000000000000000000000000000000000000000          REGISTERED VOTERS - TOTAL                               REGISTERED VOTERS - TOTAL             Precinct 2009                                          00 
00010010011001412000000000000000000000000000000000000000000000000000000000000000000000000000000000000          REGISTERED VOTERS - TOTAL                               REGISTERED VOTERS - TOTAL             Precinct 2010                                          00 
00010010012002464000000000000000000000000000000000000000000000000000000000000000000000000000000000000          REGISTERED VOTERS - TOTAL                               REGISTERED VOTERS - TOTAL             Precinct 2011                                          00 
00010010013000965000000000000000000000000000000000000000000000000000000000000000000000000000000000000          REGISTERED VOTERS - TOTAL                               REGISTERED VOTERS - TOTAL             Precinct 3012                                          00 
00010010014001505000000000000000000000000000000000000000000000000000000000000000000000000000000000000          REGISTERED VOTERS - TOTAL                               REGISTERED VOTERS - TOTAL             Precinct 3013                                          00 
00010010015002579000000000000000000000000000000000000000000000000000000000000000000000000000000000000          REGISTERED VOTERS - TOTAL                               REGISTERED VOTERS - TOTAL             Precinct 3014                                          00 
00010010016002737000000000000000000000000000000000000000000000000000000000000000000000000000000000000          REGISTERED VOTERS - TOTAL                               REGISTERED VOTERS - TOTAL             Precinct 3015                                          00 
00010010017002770000000000000000000000000000000000000000000000000000000000000000000000000000000000000          REGISTERED VOTERS - TOTAL                               REGISTERED VOTERS - TOTAL             Precinct 3016                                          00 
00010010018002743000000000000000000000000000000000000000000000000000000000000000000000000000000000000          REGISTERED VOTERS - TOTAL                               REGISTERED VOTERS - TOTAL             Precinct 4017                                          00 
00010010019000666000000000000000000000000000000000000000000000000000000000000000000000000000000000000          REGISTERED VOTERS - TOTAL                               REGISTERED VOTERS - TOTAL             Precinct 4018                                          00 
00010010020002458000000000000000000000000000000000000000000000000000000000000000000000000000000000000          REGISTERED VOTERS - TOTAL                               REGISTERED VOTERS - TOTAL             Precinct 4019                                          00 
00010010021003769000000000000000000000000000000000000000000000000000000000000000000000000000000000000          REGISTERED VOTERS - TOTAL                               REGISTERED VOTERS - TOTAL             Precinct 4020                                          00 
00010010022001353000000000000000000000000000000000000000000000000000000000000000000000000000000000000          REGISTERED VOTERS - TOTAL                               REGISTERED VOTERS - TOTAL             Precinct 4021                                          00 
00020010001000000000000000000000000000000000000000000000000000000000000000000000000000000000000000000REP       REGISTERED VOTERS - Republican Party                    REGISTERED VOTERS - Republican Party  Precinct 1001                                          00 
00020010002000000000000000000000000000000000000000000000000000000000000000000000000000000000000000000REP       REGISTERED VOTERS - Republican Party                    REGISTERED VOTERS - Republican Party  Precinct 1002                                          00 
00020010003000000000000000000000000000000000000000000000000000000000000000000000000000000000000000000REP       REGISTERED VOTERS - Republican Party                    REGISTERED VOTERS - Republican Party  Precinct 1003                                          00 
00020010004000000000000000000000000000000000000000000000000000000000000000000000000000000000000000000REP       REGISTERED VOTERS - Republican Party                    REGISTERED VOTERS - Republican Party  Precinct 1004                                          00 
00020010005000000000000000000000000000000000000000000000000000000000000000000000000000000000000000000REP       REGISTERED VOTERS - Republican Party                    REGISTERED VOTERS - Republican Party  Precinct 1022                                          00 
00020010006000000000000000000000000000000000000000000000000000000000000000000000000000000000000000000REP       REGISTERED VOTERS - Republican Party                    REGISTERED VOTERS - Republican Party  Precinct 2005                                          00 
00020010007000000000000000000000000000000000000000000000000000000000000000000000000000000000000000000REP       REGISTERED VOTERS - Republican Party                    REGISTERED VOTERS - Republican Party  Precinct 2006                                          00 
00020010008000000000000000000000000000000000000000000000000000000000000000000000000000000000000000000REP       REGISTERED VOTERS - Republican Party                    REGISTERED VOTERS - Republican Party  Precinct 2007                                          00 
00020010009000000000000000000000000000000000000000000000000000000000000000000000000000000000000000000REP       REGISTERED VOTERS - Republican Party                    REGISTERED VOTERS - Republican Party  Precinct 2008                                          00 
00020010010000000000000000000000000000000000000000000000000000000000000000000000000000000000000000000REP       REGISTERED VOTERS - Republican Party                    REGISTERED VOTERS - Republican Party  Precinct 2009                                          00 
00020010011000000000000000000000000000000000000000000000000000000000000000000000000000000000000000000REP       REGISTERED VOTERS - Republican Party                    REGISTERED VOTERS - Republican Party  Precinct 2010                                          00 
00020010012000000000000000000000000000000000000000000000000000000000000000000000000000000000000000000REP       REGISTERED VOTERS - Republican Party                    REGISTERED VOTERS - Republican Party  Precinct 2011                                          00 
00020010013000000000000000000000000000000000000000000000000000000000000000000000000000000000000000000REP       REGISTERED VOTERS - Republican Party                    REGISTERED VOTERS - Republican Party  Precinct 3012                                          00 
00020010014000000000000000000000000000000000000000000000000000000000000000000000000000000000000000000REP       REGISTERED VOTERS - Republican Party                    REGISTERED VOTERS - Republican Party  Precinct 3013                                          00 
00020010015000000000000000000000000000000000000000000000000000000000000000000000000000000000000000000REP       REGISTERED VOTERS - Republican Party                    REGISTERED VOTERS - Republican Party  Precinct 3014                                          00 
00020010016000000000000000000000000000000000000000000000000000000000000000000000000000000000000000000REP       REGISTERED VOTERS - Republican Party                    REGISTERED VOTERS - Republican Party  Precinct 3015                                          00 
00020010017000000000000000000000000000000000000000000000000000000000000000000000000000000000000000000REP       REGISTERED VOTERS - Republican Party                    REGISTERED VOTERS - Republican Party  Precinct 3016                                          00 
00020010018000000000000000000000000000000000000000000000000000000000000000000000000000000000000000000REP       REGISTERED VOTERS - Republican Party                    REGISTERED VOTERS - Republican Party  Precinct 4017                                          00 
00020010019000000000000000000000000000000000000000000000000000000000000000000000000000000000000000000REP       REGISTERED VOTERS - Republican Party                    REGISTERED VOTERS - Republican Party  Precinct 4018                                          00 
00020010020000000000000000000000000000000000000000000000000000000000000000000000000000000000000000000REP       REGISTERED VOTERS - Republican Party                    REGISTERED VOTERS - Republican Party  Precinct 4019                                          00 
00020010021000000000000000000000000000000000000000000000000000000000000000000000000000000000000000000REP       REGISTERED VOTERS - Republican Party                    REGISTERED VOTERS - Republican Party  Precinct 4020                                          00 
00020010022000000000000000000000000000000000000000000000000000000000000000000000000000000000000000000REP       REGISTERED VOTERS - Republican Party                    REGISTERED VOTERS - Republican Party  Precinct 4021                                          00 
00030010001000000000000000000000000000000000000000000000000000000000000000000000000000000000000000000DEM       REGISTERED VOTERS - Democratic Party                    REGISTERED VOTERS - Democratic Party  Precinct 1001                                          00 
00030010002000000000000000000000000000000000000000000000000000000000000000000000000000000000000000000DEM       REGISTERED VOTERS - Democratic Party                    REGISTERED VOTERS - Democratic Party  Precinct 1002                                          00 
00030010003000000000000000000000000000000000000000000000000000000000000000000000000000000000000000000DEM       REGISTERED VOTERS - Democratic Party                    REGISTERED VOTERS - Democratic Party  Precinct 1003                                          00 
00030010004000000000000000000000000000000000000000000000000000000000000000000000000000000000000000000DEM       REGISTERED VOTERS - Democratic Party                    REGISTERED VOTERS - Democratic Party  Precinct 1004                                          00 
00030010005000000000000000000000000000000000000000000000000000000000000000000000000000000000000000000DEM       REGISTERED VOTERS - Democratic Party                    REGISTERED VOTERS - Democratic Party  Precinct 1022                                          00 
00030010006000000000000000000000000000000000000000000000000000000000000000000000000000000000000000000DEM       REGISTERED VOTERS - Democratic Party                    REGISTERED VOTERS - Democratic Party  Precinct 2005                                          00 
00030010007000000000000000000000000000000000000000000000000000000000000000000000000000000000000000000DEM       REGISTERED VOTERS - Democratic Party                    REGISTERED VOTERS - Democratic Party  Precinct 2006                                          00 
00030010008000000000000000000000000000000000000000000000000000000000000000000000000000000000000000000DEM       REGISTERED VOTERS - Democratic Party                    REGISTERED VOTERS - Democratic Party  Precinct 2007                                          00 
00030010009000000000000000000000000000000000000000000000000000000000000000000000000000000000000000000DEM       REGISTERED VOTERS - Democratic Party                    REGISTERED VOTERS - Democratic Party  Precinct 2008                                          00 
00030010010000000000000000000000000000000000000000000000000000000000000000000000000000000000000000000DEM       REGISTERED VOTERS - Democratic Party                    REGISTERED VOTERS - Democratic Party  Precinct 2009                                          00 
00030010011000000000000000000000000000000000000000000000000000000000000000000000000000000000000000000DEM       REGISTERED VOTERS - Democratic Party                    REGISTERED VOTERS - Democratic Party  Precinct 2010                                          00 
00030010012000000000000000000000000000000000000000000000000000000000000000000000000000000000000000000DEM       REGISTERED VOTERS - Democratic Party                    REGISTERED VOTERS - Democratic Party  Precinct 2011                                          00 
00030010013000000000000000000000000000000000000000000000000000000000000000000000000000000000000000000DEM       REGISTERED VOTERS - Democratic Party                    REGISTERED VOTERS - Democratic Party  Precinct 3012                                          00 
00030010014000000000000000000000000000000000000000000000000000000000000000000000000000000000000000000DEM       REGISTERED VOTERS - Democratic Party                    REGISTERED VOTERS - Democratic Party  Precinct 3013                                          00 
00030010015000000000000000000000000000000000000000000000000000000000000000000000000000000000000000000DEM       REGISTERED VOTERS - Democratic Party                    REGISTERED VOTERS - Democratic Party  Precinct 3014                                          00 
00030010016000000000000000000000000000000000000000000000000000000000000000000000000000000000000000000DEM       REGISTERED VOTERS - Democratic Party                    REGISTERED VOTERS - Democratic Party  Precinct 3015                                          00 
00030010017000000000000000000000000000000000000000000000000000000000000000000000000000000000000000000DEM       REGISTERED VOTERS - Democratic Party                    REGISTERED VOTERS - Democratic Party  Precinct 3016                                          00 
00030010018000000000000000000000000000000000000000000000000000000000000000000000000000000000000000000DEM       REGISTERED VOTERS - Democratic Party                    REGISTERED VOTERS - Democratic Party  Precinct 4017                                          00 
00030010019000000000000000000000000000000000000000000000000000000000000000000000000000000000000000000DEM       REGISTERED VOTERS - Democratic Party                    REGISTERED VOTERS - Democratic Party  Precinct 4018                                          00 
00030010020000000000000000000000000000000000000000000000000000000000000000000000000000000000000000000DEM       REGISTERED VOTERS - Democratic Party                    REGISTERED VOTERS - Democratic Party  Precinct 4019                                          00 
00030010021000000000000000000000000000000000000000000000000000000000000000000000000000000000000000000DEM       REGISTERED VOTERS - Democratic Party                    REGISTERED VOTERS - Democratic Party  Precinct 4020                                          00 
00030010022000000000000000000000000000000000000000000000000000000000000000000000000000000000000000000DEM       REGISTERED VOTERS - Democratic Party                    REGISTERED VOTERS - Democratic Party  Precinct 4021                                          00 
00040010001003218000000000000000000000000000000000000000000000000000000000000000000000000000000000000NON       REGISTERED VOTERS - NONPARTISAN                         REGISTERED VOTERS - NONPARTISAN       Precinct 1001                                          00 
00040010002002520000000000000000000000000000000000000000000000000000000000000000000000000000000000000NON       REGISTERED VOTERS - NONPARTISAN                         REGISTERED VOTERS - NONPARTISAN       Precinct 1002                                          00 
00040010003003094000000000000000000000000000000000000000000000000000000000000000000000000000000000000NON       REGISTERED VOTERS - NONPARTISAN                         REGISTERED VOTERS - NONPARTISAN       Precinct 1003                                          00 
00040010004002719000000000000000000000000000000000000000000000000000000000000000000000000000000000000NON       REGISTERED VOTERS - NONPARTISAN                         REGISTERED VOTERS - NONPARTISAN       Precinct 1004                                          00 
00040010005003146000000000000000000000000000000000000000000000000000000000000000000000000000000000000NON       REGISTERED VOTERS - NONPARTISAN                         REGISTERED VOTERS - NONPARTISAN       Precinct 1022                                          00 
00040010006002726000000000000000000000000000000000000000000000000000000000000000000000000000000000000NON       REGISTERED VOTERS - NONPARTISAN                         REGISTERED VOTERS - NONPARTISAN       Precinct 2005                                          00 
00040010007001532000000000000000000000000000000000000000000000000000000000000000000000000000000000000NON       REGISTERED VOTERS - NONPARTISAN                         REGISTERED VOTERS - NONPARTISAN       Precinct 2006                                          00 
00040010008002143000000000000000000000000000000000000000000000000000000000000000000000000000000000000NON       REGISTERED VOTERS - NONPARTISAN                         REGISTERED VOTERS - NONPARTISAN       Precinct 2007                                          00 
00040010009000982000000000000000000000000000000000000000000000000000000000000000000000000000000000000NON       REGISTERED VOTERS - NONPARTISAN                         REGISTERED VOTERS - NONPARTISAN       Precinct 2008                                          00 
00040010010001395000000000000000000000000000000000000000000000000000000000000000000000000000000000000NON       REGISTERED VOTERS - NONPARTISAN                         REGISTERED VOTERS - NONPARTISAN       Precinct 2009                                          00 
00040010011001412000000000000000000000000000000000000000000000000000000000000000000000000000000000000NON       REGISTERED VOTERS - NONPARTISAN                         REGISTERED VOTERS - NONPARTISAN       Precinct 2010                                          00 
00040010012002464000000000000000000000000000000000000000000000000000000000000000000000000000000000000NON       REGISTERED VOTERS - NONPARTISAN                         REGISTERED VOTERS - NONPARTISAN       Precinct 2011                                          00 
00040010013000965000000000000000000000000000000000000000000000000000000000000000000000000000000000000NON       REGISTERED VOTERS - NONPARTISAN                         REGISTERED VOTERS - NONPARTISAN       Precinct 3012                                          00 
00040010014001505000000000000000000000000000000000000000000000000000000000000000000000000000000000000NON       REGISTERED VOTERS - NONPARTISAN                         REGISTERED VOTERS - NONPARTISAN       Precinct 3013                                          00 
00040010015002579000000000000000000000000000000000000000000000000000000000000000000000000000000000000NON       REGISTERED VOTERS - NONPARTISAN                         REGISTERED VOTERS - NONPARTISAN       Precinct 3014                                          00 
00040010016002737000000000000000000000000000000000000000000000000000000000000000000000000000000000000NON       REGISTERED VOTERS - NONPARTISAN                         REGISTERED VOTERS - NONPARTISAN       Precinct 3015                                          00 
00040010017002770000000000000000000000000000000000000000000000000000000000000000000000000000000000000NON       REGISTERED VOTERS - NONPARTISAN                         REGISTERED VOTERS - NONPARTISAN       Precinct 3016                                          00 
00040010018002743000000000000000000000000000000000000000000000000000000000000000000000000000000000000NON       REGISTERED VOTERS - NONPARTISAN                         REGISTERED VOTERS - NONPARTISAN       Precinct 4017                                          00 
00040010019000666000000000000000000000000000000000000000000000000000000000000000000000000000000000000NON       REGISTERED VOTERS - NONPARTISAN                         REGISTERED VOTERS - NONPARTISAN       Precinct 4018                                          00 
00040010020002458000000000000000000000000000000000000000000000000000000000000000000000000000000000000NON       REGISTERED VOTERS - NONPARTISAN                         REGISTERED VOTERS - NONPARTISAN       Precinct 4019                                          00 
00040010021003769000000000000000000000000000000000000000000000000000000000000000000000000000000000000NON       REGISTERED VOTERS - NONPARTISAN                         REGISTERED VOTERS - NONPARTISAN       Precinct 4020                                          00 
00040010022001353000000000000000000000000000000000000000000000000000000000000000000000000000000000000NON       REGISTERED VOTERS - NONPARTISAN                         REGISTERED VOTERS - NONPARTISAN       Precinct 4021                                          00 
00050010001001157000529000575000053000000000000000000000000000000000000000000000000000000000000000000          BALLOTS CAST - TOTAL                                    BALLOTS CAST - TOTAL                  Precinct 1001                                          00 
00050010002000876000400000422000054000000000000000000000000000000000000000000000000000000000000000000          BALLOTS CAST - TOTAL                                    BALLOTS CAST - TOTAL                  Precinct 1002                                          00 
00050010003001125000482000584000059000000000000000000000000000000000000000000000000000000000000000000          BALLOTS CAST - TOTAL                                    BALLOTS CAST - TOTAL                  Precinct 1003                                          00 
00050010004000577000294000265000018000000000000000000000000000000000000000000000000000000000000000000          BALLOTS CAST - TOTAL                                    BALLOTS CAST - TOTAL                  Precinct 1004                                          00 
00050010005000948000413000479000056000000000000000000000000000000000000000000000000000000000000000000          BALLOTS CAST - TOTAL                                    BALLOTS CAST - TOTAL                  Precinct 1022                                          00 
00050010006000882000405000433000044000000000000000000000000000000000000000000000000000000000000000000          BALLOTS CAST - TOTAL                                    BALLOTS CAST - TOTAL                  Precinct 2005                                          00 
00050010007000525000214000282000029000000000000000000000000000000000000000000000000000000000000000000          BALLOTS CAST - TOTAL                                    BALLOTS CAST - TOTAL                  Precinct 2006                                          00 
00050010008000754000385000347000022000000000000000000000000000000000000000000000000000000000000000000          BALLOTS CAST - TOTAL                                    BALLOTS CAST - TOTAL                  Precinct 2007                                          00 
00050010009000340000130000194000016000000000000000000000000000000000000000000000000000000000000000000          BALLOTS CAST - TOTAL                                    BALLOTS CAST - TOTAL                  Precinct 2008                                          00 
00050010010000422000206000200000016000000000000000000000000000000000000000000000000000000000000000000          BALLOTS CAST - TOTAL                                    BALLOTS CAST - TOTAL                  Precinct 2009                                          00 
00050010011000429000206000204000019000000000000000000000000000000000000000000000000000000000000000000          BALLOTS CAST - TOTAL                                    BALLOTS CAST - TOTAL                  Precinct 2010                                          00 
00050010012000919000421000463000035000000000000000000000000000000000000000000000000000000000000000000          BALLOTS CAST - TOTAL                                    BALLOTS CAST - TOTAL                  Precinct 2011                                          00 
00050010013000329000171000148000010000000000000000000000000000000000000000000000000000000000000000000          BALLOTS CAST - TOTAL                                    BALLOTS CAST - TOTAL                  Precinct 3012                                          00 
00050010014000480000326000138000016000000000000000000000000000000000000000000000000000000000000000000          BALLOTS CAST - TOTAL                                    BALLOTS CAST - TOTAL                  Precinct 3013                                          00 
00050010015000691000326000324000041000000000000000000000000000000000000000000000000000000000000000000          BALLOTS CAST - TOTAL                                    BALLOTS CAST - TOTAL                  Precinct 3014                                          00 
00050010016000648000332000286000030000000000000000000000000000000000000000000000000000000000000000000          BALLOTS CAST - TOTAL                                    BALLOTS CAST - TOTAL                  Precinct 3015                                          00 
00050010017000802000405000371000026000000000000000000000000000000000000000000000000000000000000000000          BALLOTS CAST - TOTAL                                    BALLOTS CAST - TOTAL                  Precinct 3016                                          00 
00050010018000914000393000484000037000000000000000000000000000000000000000000000000000000000000000000          BALLOTS CAST - TOTAL                                    BALLOTS CAST - TOTAL                  Precinct 4017                                          00 
00050010019000297000137000151000009000000000000000000000000000000000000000000000000000000000000000000          BALLOTS CAST - TOTAL                                    BALLOTS CAST - TOTAL                  Precinct 4018                                          00 
00050010020000852000360000459000033000000000000000000000000000000000000000000000000000000000000000000          BALLOTS CAST - TOTAL                                    BALLOTS CAST - TOTAL                  Precinct 4019                                          00 
00050010021001173000467000635000071000000000000000000000000000000000000000000000000000000000000000000          BALLOTS CAST - TOTAL                                    BALLOTS CAST - TOTAL                  Precinct 4020                                          00 
00050010022000467000290000162000015000000000000000000000000000000000000000000000000000000000000000000          BALLOTS CAST - TOTAL                                    BALLOTS CAST - TOTAL                  Precinct 4021                                          00 
00060010001000610000294000309000007000000000000000000000000000000000000000000000000000000000000000000REP       BALLOTS CAST - Republican Party                         BALLOTS CAST - Republican Party       Precinct 1001                                          00 
00060010002000354000168000183000003000000000000000000000000000000000000000000000000000000000000000000REP       BALLOTS CAST - Republican Party                         BALLOTS CAST - Republican Party       Precinct 1002                                          00 
00060010003000555000212000339000004000000000000000000000000000000000000000000000000000000000000000000REP       BALLOTS CAST - Republican Party                         BALLOTS CAST - Republican Party       Precinct 1003                                          00 
00060010004000276000146000130000000000000000000000000000000000000000000000000000000000000000000000000REP       BALLOTS CAST - Republican Party                         BALLOTS CAST - Republican Party       Precinct 1004                                          00 
00060010005000507000209000282000016000000000000000000000000000000000000000000000000000000000000000000REP       BALLOTS CAST - Republican Party                         BALLOTS CAST - Republican Party       Precinct 1022                                          00 
00060010006000430000167000256000007000000000000000000000000000000000000000000000000000000000000000000REP       BALLOTS CAST - Republican Party                         BALLOTS CAST - Republican Party       Precinct 2005                                          00 
00060010007000316000130000183000003000000000000000000000000000000000000000000000000000000000000000000REP       BALLOTS CAST - Republican Party                         BALLOTS CAST - Republican Party       Precinct 2006                                          00 
00060010008000507000265000238000004000000000000000000000000000000000000000000000000000000000000000000REP       BALLOTS CAST - Republican Party                         BALLOTS CAST - Republican Party       Precinct 2007                                          00 
00060010009000203000070000130000003000000000000000000000000000000000000000000000000000000000000000000REP       BALLOTS CAST - Republican Party                         BALLOTS CAST - Republican Party       Precinct 2008                                          00 
00060010010000241000115000120000006000000000000000000000000000000000000000000000000000000000000000000REP       BALLOTS CAST - Republican Party                         BALLOTS CAST - Republican Party       Precinct 2009                                          00 
00060010011000255000125000130000000000000000000000000000000000000000000000000000000000000000000000000REP       BALLOTS CAST - Republican Party                         BALLOTS CAST - Republican Party       Precinct 2010                                          00 
00060010012000510000236000270000004000000000000000000000000000000000000000000000000000000000000000000REP       BALLOTS CAST - Republican Party                         BALLOTS CAST - Republican Party       Precinct 2011                                          00 
00060010013000243000120000120000003000000000000000000000000000000000000000000000000000000000000000000REP       BALLOTS CAST - Republican Party                         BALLOTS CAST - Republican Party       Precinct 3012                                          00 
00060010014000295000204000088000003000000000000000000000000000000000000000000000000000000000000000000REP       BALLOTS CAST - Republican Party                         BALLOTS CAST - Republican Party       Precinct 3013                                          00 
00060010015000343000146000193000004000000000000000000000000000000000000000000000000000000000000000000REP       BALLOTS CAST - Republican Party                         BALLOTS CAST - Republican Party       Precinct 3014                                          00 
00060010016000236000103000128000005000000000000000000000000000000000000000000000000000000000000000000REP       BALLOTS CAST - Republican Party                         BALLOTS CAST - Republican Party       Precinct 3015                                          00 
00060010017000416000200000211000005000000000000000000000000000000000000000000000000000000000000000000REP       BALLOTS CAST - Republican Party                         BALLOTS CAST - Republican Party       Precinct 3016                                          00 
00060010018000394000145000246000003000000000000000000000000000000000000000000000000000000000000000000REP       BALLOTS CAST - Republican Party                         BALLOTS CAST - Republican Party       Precinct 4017                                          00 
00060010019000191000080000109000002000000000000000000000000000000000000000000000000000000000000000000REP       BALLOTS CAST - Republican Party                         BALLOTS CAST - Republican Party       Precinct 4018                                          00 
00060010020000426000155000267000004000000000000000000000000000000000000000000000000000000000000000000REP       BALLOTS CAST - Republican Party                         BALLOTS CAST - Republican Party       Precinct 4019                                          00 
00060010021000570000212000353000005000000000000000000000000000000000000000000000000000000000000000000REP       BALLOTS CAST - Republican Party                         BALLOTS CAST - Republican Party       Precinct 4020                                          00 
00060010022000295000190000101000004000000000000000000000000000000000000000000000000000000000000000000REP       BALLOTS CAST - Republican Party                         BALLOTS CAST - Republican Party       Precinct 4021                                          00 
00070010001000547000235000266000046000000000000000000000000000000000000000000000000000000000000000000DEM       BALLOTS CAST - Democratic Party                         BALLOTS CAST - Democratic Party       Precinct 1001                                          00 
00070010002000522000232000239000051000000000000000000000000000000000000000000000000000000000000000000DEM       BALLOTS CAST - Democratic Party                         BALLOTS CAST - Democratic Party       Precinct 1002                                          00 
00070010003000570000270000245000055000000000000000000000000000000000000000000000000000000000000000000DEM       BALLOTS CAST - Democratic Party                         BALLOTS CAST - Democratic Party       Precinct 1003                                          00 
00070010004000301000148000135000018000000000000000000000000000000000000000000000000000000000000000000DEM       BALLOTS CAST - Democratic Party                         BALLOTS CAST - Democratic Party       Precinct 1004                                          00 
00070010005000441000204000197000040000000000000000000000000000000000000000000000000000000000000000000DEM       BALLOTS CAST - Democratic Party                         BALLOTS CAST - Democratic Party       Precinct 1022                                          00 
00070010006000452000238000177000037000000000000000000000000000000000000000000000000000000000000000000DEM       BALLOTS CAST - Democratic Party                         BALLOTS CAST - Democratic Party       Precinct 2005                                          00 
00070010007000209000084000099000026000000000000000000000000000000000000000000000000000000000000000000DEM       BALLOTS CAST - Democratic Party                         BALLOTS CAST - Democratic Party       Precinct 2006                                          00 
00070010008000247000120000109000018000000000000000000000000000000000000000000000000000000000000000000DEM       BALLOTS CAST - Democratic Party                         BALLOTS CAST - Democratic Party       Precinct 2007                                          00 
00070010009000137000060000064000013000000000000000000000000000000000000000000000000000000000000000000DEM       BALLOTS CAST - Democratic Party                         BALLOTS CAST - Democratic Party       Precinct 2008                                          00 
00070010010000181000091000080000010000000000000000000000000000000000000000000000000000000000000000000DEM       BALLOTS CAST - Democratic Party                         BALLOTS CAST - Democratic Party       Precinct 2009                                          00 
00070010011000174000081000074000019000000000000000000000000000000000000000000000000000000000000000000DEM       BALLOTS CAST - Democratic Party                         BALLOTS CAST - Democratic Party       Precinct 2010                                          00 
00070010012000409000185000193000031000000000000000000000000000000000000000000000000000000000000000000DEM       BALLOTS CAST - Democratic Party                         BALLOTS CAST - Democratic Party       Precinct 2011                                          00 
00070010013000086000051000028000007000000000000000000000000000000000000000000000000000000000000000000DEM       BALLOTS CAST - Democratic Party                         BALLOTS CAST - Democratic Party       Precinct 3012                                          00 
00070010014000185000122000050000013000000000000000000000000000000000000000000000000000000000000000000DEM       BALLOTS CAST - Democratic Party                         BALLOTS CAST - Democratic Party       Precinct 3013                                          00 
00070010015000348000180000131000037000000000000000000000000000000000000000000000000000000000000000000DEM       BALLOTS CAST - Democratic Party                         BALLOTS CAST - Democratic Party       Precinct 3014                                          00 
00070010016000412000229000158000025000000000000000000000000000000000000000000000000000000000000000000DEM       BALLOTS CAST - Democratic Party                         BALLOTS CAST - Democratic Party       Precinct 3015                                          00 
00070010017000386000205000160000021000000000000000000000000000000000000000000000000000000000000000000DEM       BALLOTS CAST - Democratic Party                         BALLOTS CAST - Democratic Party       Precinct 3016                                          00 
00070010018000520000248000238000034000000000000000000000000000000000000000000000000000000000000000000DEM       BALLOTS CAST - Democratic Party                         BALLOTS CAST - Democratic Party       Precinct 4017                                          00 
00070010019000106000057000042000007000000000000000000000000000000000000000000000000000000000000000000DEM       BALLOTS CAST - Democratic Party                         BALLOTS CAST - Democratic Party       Precinct 4018                                          00 
00070010020000426000205000192000029000000000000000000000000000000000000000000000000000000000000000000DEM       BALLOTS CAST - Democratic Party                         BALLOTS CAST - Democratic Party       Precinct 4019                                          00 
00070010021000603000255000282000066000000000000000000000000000000000000000000000000000000000000000000DEM       BALLOTS CAST - Democratic Party                         BALLOTS CAST - Democratic Party       Precinct 4020                                          00 
00070010022000172000100000061000011000000000000000000000000000000000000000000000000000000000000000000DEM       BALLOTS CAST - Democratic Party                         BALLOTS CAST - Democratic Party       Precinct 4021                                          00 
00080010001000000000000000000000000000000000000000000000000000000000000000000000000000000000000000000NON       BALLOTS CAST - NONPARTISAN                              BALLOTS CAST - NONPARTISAN            Precinct 1001                                          00 
00080010002000000000000000000000000000000000000000000000000000000000000000000000000000000000000000000NON       BALLOTS CAST - NONPARTISAN                              BALLOTS CAST - NONPARTISAN            Precinct 1002                                          00 
00080010003000000000000000000000000000000000000000000000000000000000000000000000000000000000000000000NON       BALLOTS CAST - NONPARTISAN                              BALLOTS CAST - NONPARTISAN            Precinct 1003                                          00 
00080010004000000000000000000000000000000000000000000000000000000000000000000000000000000000000000000NON       BALLOTS CAST - NONPARTISAN                              BALLOTS CAST - NONPARTISAN            Precinct 1004                                          00 
00080010005000000000000000000000000000000000000000000000000000000000000000000000000000000000000000000NON       BALLOTS CAST - NONPARTISAN                              BALLOTS CAST - NONPARTISAN            Precinct 1022                                          00 
00080010006000000000000000000000000000000000000000000000000000000000000000000000000000000000000000000NON       BALLOTS CAST - NONPARTISAN                              BALLOTS CAST - NONPARTISAN            Precinct 2005                                          00 
00080010007000000000000000000000000000000000000000000000000000000000000000000000000000000000000000000NON       BALLOTS CAST - NONPARTISAN                              BALLOTS CAST - NONPARTISAN            Precinct 2006                                          00 
00080010008000000000000000000000000000000000000000000000000000000000000000000000000000000000000000000NON       BALLOTS CAST - NONPARTISAN                              BALLOTS CAST - NONPARTISAN            Precinct 2007                                          00 
00080010009000000000000000000000000000000000000000000000000000000000000000000000000000000000000000000NON       BALLOTS CAST - NONPARTISAN                              BALLOTS CAST - NONPARTISAN            Precinct 2008                                          00 
00080010010000000000000000000000000000000000000000000000000000000000000000000000000000000000000000000NON       BALLOTS CAST - NONPARTISAN                              BALLOTS CAST - NONPARTISAN            Precinct 2009                                          00 
00080010011000000000000000000000000000000000000000000000000000000000000000000000000000000000000000000NON       BALLOTS CAST - NONPARTISAN                              BALLOTS CAST - NONPARTISAN            Precinct 2010                                          00 
00080010012000000000000000000000000000000000000000000000000000000000000000000000000000000000000000000NON       BALLOTS CAST - NONPARTISAN                              BALLOTS CAST - NONPARTISAN            Precinct 2011                                          00 
00080010013000000000000000000000000000000000000000000000000000000000000000000000000000000000000000000NON       BALLOTS CAST - NONPARTISAN                              BALLOTS CAST - NONPARTISAN            Precinct 3012                                          00 
00080010014000000000000000000000000000000000000000000000000000000000000000000000000000000000000000000NON       BALLOTS CAST - NONPARTISAN                              BALLOTS CAST - NONPARTISAN            Precinct 3013                                          00 
00080010015000000000000000000000000000000000000000000000000000000000000000000000000000000000000000000NON       BALLOTS CAST - NONPARTISAN                              BALLOTS CAST - NONPARTISAN            Precinct 3014                                          00 
00080010016000000000000000000000000000000000000000000000000000000000000000000000000000000000000000000NON       BALLOTS CAST - NONPARTISAN                              BALLOTS CAST - NONPARTISAN            Precinct 3015                                          00 
00080010017000000000000000000000000000000000000000000000000000000000000000000000000000000000000000000NON       BALLOTS CAST - NONPARTISAN                              BALLOTS CAST - NONPARTISAN            Precinct 3016                                          00 
00080010018000000000000000000000000000000000000000000000000000000000000000000000000000000000000000000NON       BALLOTS CAST - NONPARTISAN                              BALLOTS CAST - NONPARTISAN            Precinct 4017                                          00 
00080010019000000000000000000000000000000000000000000000000000000000000000000000000000000000000000000NON       BALLOTS CAST - NONPARTISAN                              BALLOTS CAST - NONPARTISAN            Precinct 4018                                          00 
00080010020000000000000000000000000000000000000000000000000000000000000000000000000000000000000000000NON       BALLOTS CAST - NONPARTISAN                              BALLOTS CAST - NONPARTISAN            Precinct 4019                                          00 
00080010021000000000000000000000000000000000000000000000000000000000000000000000000000000000000000000NON       BALLOTS CAST - NONPARTISAN                              BALLOTS CAST - NONPARTISAN            Precinct 4020                                          00 
00080010022000000000000000000000000000000000000000000000000000000000000000000000000000000000000000000NON       BALLOTS CAST - NONPARTISAN                              BALLOTS CAST - NONPARTISAN            Precinct 4021                                          00 
00090010001000000000000000000000000000000000000000000000000000000000000000000000000000000000000000000          BALLOTS CAST - BLANK                                    BALLOTS CAST - BLANK                  Precinct 1001                                          00 
00090010002000001000001000000000000000000000000000000000000000000000000000000000000000000000000000000          BALLOTS CAST - BLANK                                    BALLOTS CAST - BLANK                  Precinct 1002                                          00 
00090010003000001000001000000000000000000000000000000000000000000000000000000000000000000000000000000          BALLOTS CAST - BLANK                                    BALLOTS CAST - BLANK                  Precinct 1003                                          00 
00090010004000000000000000000000000000000000000000000000000000000000000000000000000000000000000000000          BALLOTS CAST - BLANK                                    BALLOTS CAST - BLANK                  Precinct 1004                                          00 
00090010005000000000000000000000000000000000000000000000000000000000000000000000000000000000000000000          BALLOTS CAST - BLANK                                    BALLOTS CAST - BLANK                  Precinct 1022                                          00 
00090010006000000000000000000000000000000000000000000000000000000000000000000000000000000000000000000          BALLOTS CAST - BLANK                                    BALLOTS CAST - BLANK                  Precinct 2005                                          00 
00090010007000001000001000000000000000000000000000000000000000000000000000000000000000000000000000000          BALLOTS CAST - BLANK                                    BALLOTS CAST - BLANK                  Precinct 2006                                          00 
00090010008000000000000000000000000000000000000000000000000000000000000000000000000000000000000000000          BALLOTS CAST - BLANK                                    BALLOTS CAST - BLANK                  Precinct 2007                                          00 
00090010009000000000000000000000000000000000000000000000000000000000000000000000000000000000000000000          BALLOTS CAST - BLANK                                    BALLOTS CAST - BLANK                  Precinct 2008                                          00 
00090010010000000000000000000000000000000000000000000000000000000000000000000000000000000000000000000          BALLOTS CAST - BLANK                                    BALLOTS CAST - BLANK                  Precinct 2009                                          00 
00090010011000000000000000000000000000000000000000000000000000000000000000000000000000000000000000000          BALLOTS CAST - BLANK                                    BALLOTS CAST - BLANK                  Precinct 2010                                          00 
00090010012000000000000000000000000000000000000000000000000000000000000000000000000000000000000000000          BALLOTS CAST - BLANK                                    BALLOTS CAST - BLANK                  Precinct 2011                                          00 
00090010013000000000000000000000000000000000000000000000000000000000000000000000000000000000000000000          BALLOTS CAST - BLANK                                    BALLOTS CAST - BLANK                  Precinct 3012                                          00 
00090010014000000000000000000000000000000000000000000000000000000000000000000000000000000000000000000          BALLOTS CAST - BLANK                                    BALLOTS CAST - BLANK                  Precinct 3013                                          00 
00090010015000000000000000000000000000000000000000000000000000000000000000000000000000000000000000000          BALLOTS CAST - BLANK                                    BALLOTS CAST - BLANK                  Precinct 3014                                          00 
00090010016000000000000000000000000000000000000000000000000000000000000000000000000000000000000000000          BALLOTS CAST - BLANK                                    BALLOTS CAST - BLANK                  Precinct 3015                                          00 
00090010017000000000000000000000000000000000000000000000000000000000000000000000000000000000000000000          BALLOTS CAST - BLANK                                    BALLOTS CAST - BLANK                  Precinct 3016                                          00 
00090010018000000000000000000000000000000000000000000000000000000000000000000000000000000000000000000          BALLOTS CAST - BLANK                                    BALLOTS CAST - BLANK                  Precinct 4017                                          00 
00090010019000000000000000000000000000000000000000000000000000000000000000000000000000000000000000000          BALLOTS CAST - BLANK                                    BALLOTS CAST - BLANK                  Precinct 4018                                          00 
00090010020000000000000000000000000000000000000000000000000000000000000000000000000000000000000000000          BALLOTS CAST - BLANK                                    BALLOTS CAST - BLANK                  Precinct 4019                                          00 
00090010021000000000000000000000000000000000000000000000000000000000000000000000000000000000000000000          BALLOTS CAST - BLANK                                    BALLOTS CAST - BLANK                  Precinct 4020                                          00 
00090010022000000000000000000000000000000000000000000000000000000000000000000000000000000000000000000          BALLOTS CAST - BLANK                                    BALLOTS CAST - BLANK                  Precinct 4021                                          00 
00100010001000007000001000006000000000000000000000000000000000000000000000000000000000000000000000000REP       REP President                                           Joe Walsh                             Precinct 1001                                          01 
00100010002000002000002000000000000000000000000000000000000000000000000000000000000000000000000000000REP       REP President                                           Joe Walsh                             Precinct 1002                                          01 
00100010003000002000001000001000000000000000000000000000000000000000000000000000000000000000000000000REP       REP President                                           Joe Walsh                             Precinct 1003                                          01 
00100010004000001000001000000000000000000000000000000000000000000000000000000000000000000000000000000REP       REP President                                           Joe Walsh                             Precinct 1004                                          01 
00100010005000007000001000006000000000000000000000000000000000000000000000000000000000000000000000000REP       REP President                                           Joe Walsh                             Precinct 1022                                          01 
00100010006000001000000000001000000000000000000000000000000000000000000000000000000000000000000000000REP       REP President                                           Joe Walsh                             Precinct 2005                                          01 
00100010007000000000000000000000000000000000000000000000000000000000000000000000000000000000000000000REP       REP President                                           Joe Walsh                             Precinct 2006                                          01 
00100010008000003000002000001000000000000000000000000000000000000000000000000000000000000000000000000REP       REP President                                           Joe Walsh                             Precinct 2007                                          01 
00100010009000001000000000001000000000000000000000000000000000000000000000000000000000000000000000000REP       REP President                                           Joe Walsh                             Precinct 2008                                          01 
00100010010000001000001000000000000000000000000000000000000000000000000000000000000000000000000000000REP       REP President                                           Joe Walsh                             Precinct 2009                                          01 
00100010011000000000000000000000000000000000000000000000000000000000000000000000000000000000000000000REP       REP President                                           Joe Walsh                             Precinct 2010                                          01 
00100010012000005000005000000000000000000000000000000000000000000000000000000000000000000000000000000REP       REP President                                           Joe Walsh                             Precinct 2011                                          01 
00100010013000003000002000001000000000000000000000000000000000000000000000000000000000000000000000000REP       REP President                                           Joe Walsh                             Precinct 3012                                          01 
00100010014000002000000000002000000000000000000000000000000000000000000000000000000000000000000000000REP       REP President                                           Joe Walsh                             Precinct 3013                                          01 
00100010015000003000000000003000000000000000000000000000000000000000000000000000000000000000000000000REP       REP President                                           Joe Walsh                             Precinct 3014                                          01 
00100010016000004000001000003000000000000000000000000000000000000000000000000000000000000000000000000REP       REP President                                           Joe Walsh                             Precinct 3015                                          01 
00100010017000001000001000000000000000000000000000000000000000000000000000000000000000000000000000000REP       REP President                                           Joe Walsh                             Precinct 3016                                          01 
00100010018000003000001000002000000000000000000000000000000000000000000000000000000000000000000000000REP       REP President                                           Joe Walsh                             Precinct 4017                                          01 
00100010019000000000000000000000000000000000000000000000000000000000000000000000000000000000000000000REP       REP President                                           Joe Walsh                             Precinct 4018                                          01 
00100010020000004000002000002000000000000000000000000000000000000000000000000000000000000000000000000REP       REP President                                           Joe Walsh                             Precinct 4019                                          01 
00100010021000006000005000001000000000000000000000000000000000000000000000000000000000000000000000000REP       REP President                                           Joe Walsh                             Precinct 4020                                          01 
00100010022000000000000000000000000000000000000000000000000000000000000000000000000000000000000000000REP       REP President                                           Joe Walsh                             Precinct 4021                                          01 
00100020001000003000002000001000000000000000000000000000000000000000000000000000000000000000000000000REP       REP President                                           Bob Ely                               Precinct 1001                                          01 
00100020002000001000000000001000000000000000000000000000000000000000000000000000000000000000000000000REP       REP President                                           Bob Ely                               Precinct 1002                                          01 
00100020003000000000000000000000000000000000000000000000000000000000000000000000000000000000000000000REP       REP President                                           Bob Ely                               Precinct 1003                                          01 
00100020004000000000000000000000000000000000000000000000000000000000000000000000000000000000000000000REP       REP President                                           Bob Ely                               Precinct 1004                                          01 
00100020005000000000000000000000000000000000000000000000000000000000000000000000000000000000000000000REP       REP President                                           Bob Ely                               Precinct 1022                                          01 
00100020006000000000000000000000000000000000000000000000000000000000000000000000000000000000000000000REP       REP President                                           Bob Ely                               Precinct 2005                                          01 
00100020007000000000000000000000000000000000000000000000000000000000000000000000000000000000000000000REP       REP President                                           Bob Ely                               Precinct 2006                                          01 
00100020008000001000001000000000000000000000000000000000000000000000000000000000000000000000000000000REP       REP President                                           Bob Ely                               Precinct 2007                                          01 
00100020009000002000001000001000000000000000000000000000000000000000000000000000000000000000000000000REP       REP President                                           Bob Ely                               Precinct 2008                                          01 
00100020010000001000000000001000000000000000000000000000000000000000000000000000000000000000000000000REP       REP President                                           Bob Ely                               Precinct 2009                                          01 
00100020011000000000000000000000000000000000000000000000000000000000000000000000000000000000000000000REP       REP President                                           Bob Ely                               Precinct 2010                                          01 
00100020012000001000001000000000000000000000000000000000000000000000000000000000000000000000000000000REP       REP President                                           Bob Ely                               Precinct 2011                                          01 
00100020013000000000000000000000000000000000000000000000000000000000000000000000000000000000000000000REP       REP President                                           Bob Ely                               Precinct 3012                                          01 
00100020014000000000000000000000000000000000000000000000000000000000000000000000000000000000000000000REP       REP President                                           Bob Ely                               Precinct 3013                                          01 
00100020015000000000000000000000000000000000000000000000000000000000000000000000000000000000000000000REP       REP President                                           Bob Ely                               Precinct 3014                                          01 
00100020016000001000001000000000000000000000000000000000000000000000000000000000000000000000000000000REP       REP President                                           Bob Ely                               Precinct 3015                                          01 
00100020017000001000000000000000001000000000000000000000000000000000000000000000000000000000000000000REP       REP President                                           Bob Ely                               Precinct 3016                                          01 
00100020018000001000000000001000000000000000000000000000000000000000000000000000000000000000000000000REP       REP President                                           Bob Ely                               Precinct 4017                                          01 
00100020019000000000000000000000000000000000000000000000000000000000000000000000000000000000000000000REP       REP President                                           Bob Ely                               Precinct 4018                                          01 
00100020020000001000000000001000000000000000000000000000000000000000000000000000000000000000000000000REP       REP President                                           Bob Ely                               Precinct 4019                                          01 
00100020021000001000001000000000000000000000000000000000000000000000000000000000000000000000000000000REP       REP President                                           Bob Ely                               Precinct 4020                                          01 
00100020022000000000000000000000000000000000000000000000000000000000000000000000000000000000000000000REP       REP President                                           Bob Ely                               Precinct 4021                                          01 
00100030001000574000276000291000007000000000000000000000000000000000000000000000000000000000000000000REP       REP President                                           Donald J. Trump                       Precinct 1001                                          01 
00100030002000334000159000172000003000000000000000000000000000000000000000000000000000000000000000000REP       REP President                                           Donald J. Trump                       Precinct 1002                                          01 
00100030003000525000204000317000004000000000000000000000000000000000000000000000000000000000000000000REP       REP President                                           Donald J. Trump                       Precinct 1003                                          01 
00100030004000262000139000123000000000000000000000000000000000000000000000000000000000000000000000000REP       REP President                                           Donald J. Trump                       Precinct 1004                                          01 
00100030005000468000195000258000015000000000000000000000000000000000000000000000000000000000000000000REP       REP President                                           Donald J. Trump                       Precinct 1022                                          01 
00100030006000400000152000241000007000000000000000000000000000000000000000000000000000000000000000000REP       REP President                                           Donald J. Trump                       Precinct 2005                                          01 
00100030007000306000127000176000003000000000000000000000000000000000000000000000000000000000000000000REP       REP President                                           Donald J. Trump                       Precinct 2006                                          01 
00100030008000493000254000235000004000000000000000000000000000000000000000000000000000000000000000000REP       REP President                                           Donald J. Trump                       Precinct 2007                                          01 
00100030009000191000068000121000002000000000000000000000000000000000000000000000000000000000000000000REP       REP President                                           Donald J. Trump                       Precinct 2008                                          01 
00100030010000231000111000114000006000000000000000000000000000000000000000000000000000000000000000000REP       REP President                                           Donald J. Trump                       Precinct 2009                                          01 
00100030011000248000123000125000000000000000000000000000000000000000000000000000000000000000000000000REP       REP President                                           Donald J. Trump                       Precinct 2010                                          01 
00100030012000481000221000256000004000000000000000000000000000000000000000000000000000000000000000000REP       REP President                                           Donald J. Trump                       Precinct 2011                                          01 
00100030013000230000112000117000001000000000000000000000000000000000000000000000000000000000000000000REP       REP President                                           Donald J. Trump                       Precinct 3012                                          01 
00100030014000282000196000083000003000000000000000000000000000000000000000000000000000000000000000000REP       REP President                                           Donald J. Trump                       Precinct 3013                                          01 
00100030015000329000142000183000004000000000000000000000000000000000000000000000000000000000000000000REP       REP President                                           Donald J. Trump                       Precinct 3014                                          01 
00100030016000215000095000116000004000000000000000000000000000000000000000000000000000000000000000000REP       REP President                                           Donald J. Trump                       Precinct 3015                                          01 
00100030017000386000182000200000004000000000000000000000000000000000000000000000000000000000000000000REP       REP President                                           Donald J. Trump                       Precinct 3016                                          01 
00100030018000347000127000217000003000000000000000000000000000000000000000000000000000000000000000000REP       REP President                                           Donald J. Trump                       Precinct 4017                                          01 
00100030019000178000076000100000002000000000000000000000000000000000000000000000000000000000000000000REP       REP President                                           Donald J. Trump                       Precinct 4018                                          01 
00100030020000394000145000245000004000000000000000000000000000000000000000000000000000000000000000000REP       REP President                                           Donald J. Trump                       Precinct 4019                                          01 
00100030021000514000186000325000003000000000000000000000000000000000000000000000000000000000000000000REP       REP President                                           Donald J. Trump                       Precinct 4020                                          01 
00100030022000284000180000100000004000000000000000000000000000000000000000000000000000000000000000000REP       REP President                                           Donald J. Trump                       Precinct 4021                                          01 
00100040001000000000000000000000000000000000000000000000000000000000000000000000000000000000000000000REP       REP President                                           Zoltan G. Istvan                      Precinct 1001                                          01 
00100040002000000000000000000000000000000000000000000000000000000000000000000000000000000000000000000REP       REP President                                           Zoltan G. Istvan                      Precinct 1002                                          01 
00100040003000000000000000000000000000000000000000000000000000000000000000000000000000000000000000000REP       REP President                                           Zoltan G. Istvan                      Precinct 1003                                          01 
00100040004000000000000000000000000000000000000000000000000000000000000000000000000000000000000000000REP       REP President                                           Zoltan G. Istvan                      Precinct 1004                                          01 
00100040005000000000000000000000000000000000000000000000000000000000000000000000000000000000000000000REP       REP President                                           Zoltan G. Istvan                      Precinct 1022                                          01 
00100040006000000000000000000000000000000000000000000000000000000000000000000000000000000000000000000REP       REP President                                           Zoltan G. Istvan                      Precinct 2005                                          01 
00100040007000000000000000000000000000000000000000000000000000000000000000000000000000000000000000000REP       REP President                                           Zoltan G. Istvan                      Precinct 2006                                          01 
00100040008000000000000000000000000000000000000000000000000000000000000000000000000000000000000000000REP       REP President                                           Zoltan G. Istvan                      Precinct 2007                                          01 
00100040009000001000000000001000000000000000000000000000000000000000000000000000000000000000000000000REP       REP President                                           Zoltan G. Istvan                      Precinct 2008                                          01 
00100040010000000000000000000000000000000000000000000000000000000000000000000000000000000000000000000REP       REP President                                           Zoltan G. Istvan                      Precinct 2009                                          01 
00100040011000000000000000000000000000000000000000000000000000000000000000000000000000000000000000000REP       REP President                                           Zoltan G. Istvan                      Precinct 2010                                          01 
00100040012000001000000000001000000000000000000000000000000000000000000000000000000000000000000000000REP       REP President                                           Zoltan G. Istvan                      Precinct 2011                                          01 
00100040013000000000000000000000000000000000000000000000000000000000000000000000000000000000000000000REP       REP President                                           Zoltan G. Istvan                      Precinct 3012                                          01 
00100040014000000000000000000000000000000000000000000000000000000000000000000000000000000000000000000REP       REP President                                           Zoltan G. Istvan                      Precinct 3013                                          01 
00100040015000001000000000001000000000000000000000000000000000000000000000000000000000000000000000000REP       REP President                                           Zoltan G. Istvan                      Precinct 3014                                          01 
00100040016000001000000000001000000000000000000000000000000000000000000000000000000000000000000000000REP       REP President                                           Zoltan G. Istvan                      Precinct 3015                                          01 
00100040017000001000001000000000000000000000000000000000000000000000000000000000000000000000000000000REP       REP President                                           Zoltan G. Istvan                      Precinct 3016                                          01 
00100040018000000000000000000000000000000000000000000000000000000000000000000000000000000000000000000REP       REP President                                           Zoltan G. Istvan                      Precinct 4017                                          01 
00100040019000000000000000000000000000000000000000000000000000000000000000000000000000000000000000000REP       REP President                                           Zoltan G. Istvan                      Precinct 4018                                          01 
00100040020000000000000000000000000000000000000000000000000000000000000000000000000000000000000000000REP       REP President                                           Zoltan G. Istvan                      Precinct 4019                                          01 
00100040021000000000000000000000000000000000000000000000000000000000000000000000000000000000000000000REP       REP President                                           Zoltan G. Istvan                      Precinct 4020                                          01 
00100040022000000000000000000000000000000000000000000000000000000000000000000000000000000000000000000REP       REP President                                           Zoltan G. Istvan                      Precinct 4021                                          01 
00100050001000005000005000000000000000000000000000000000000000000000000000000000000000000000000000000REP       REP President                                           Bill Weld                             Precinct 1001                                          01 
00100050002000004000001000003000000000000000000000000000000000000000000000000000000000000000000000000REP       REP President                                           Bill Weld                             Precinct 1002                                          01 
00100050003000005000000000005000000000000000000000000000000000000000000000000000000000000000000000000REP       REP President                                           Bill Weld                             Precinct 1003                                          01 
00100050004000001000001000000000000000000000000000000000000000000000000000000000000000000000000000000REP       REP President                                           Bill Weld                             Precinct 1004                                          01 
00100050005000009000005000004000000000000000000000000000000000000000000000000000000000000000000000000REP       REP President                                           Bill Weld                             Precinct 1022                                          01 
00100050006000004000003000001000000000000000000000000000000000000000000000000000000000000000000000000REP       REP President                                           Bill Weld                             Precinct 2005                                          01 
00100050007000001000000000001000000000000000000000000000000000000000000000000000000000000000000000000REP       REP President                                           Bill Weld                             Precinct 2006                                          01 
00100050008000001000001000000000000000000000000000000000000000000000000000000000000000000000000000000REP       REP President                                           Bill Weld                             Precinct 2007                                          01 
00100050009000001000001000000000000000000000000000000000000000000000000000000000000000000000000000000REP       REP President                                           Bill Weld                             Precinct 2008                                          01 
00100050010000001000000000001000000000000000000000000000000000000000000000000000000000000000000000000REP       REP President                                           Bill Weld                             Precinct 2009                                          01 
00100050011000002000002000000000000000000000000000000000000000000000000000000000000000000000000000000REP       REP President                                           Bill Weld                             Precinct 2010                                          01 
00100050012000004000000000004000000000000000000000000000000000000000000000000000000000000000000000000REP       REP President                                           Bill Weld                             Precinct 2011                                          01 
00100050013000000000000000000000000000000000000000000000000000000000000000000000000000000000000000000REP       REP President                                           Bill Weld                             Precinct 3012                                          01 
00100050014000000000000000000000000000000000000000000000000000000000000000000000000000000000000000000REP       REP President                                           Bill Weld                             Precinct 3013                                          01 
00100050015000003000001000002000000000000000000000000000000000000000000000000000000000000000000000000REP       REP President                                           Bill Weld                             Precinct 3014                                          01 
00100050016000000000000000000000000000000000000000000000000000000000000000000000000000000000000000000REP       REP President                                           Bill Weld                             Precinct 3015                                          01 
00100050017000004000003000001000000000000000000000000000000000000000000000000000000000000000000000000REP       REP President                                           Bill Weld                             Precinct 3016                                          01 
00100050018000003000002000001000000000000000000000000000000000000000000000000000000000000000000000000REP       REP President                                           Bill Weld                             Precinct 4017                                          01 
00100050019000001000001000000000000000000000000000000000000000000000000000000000000000000000000000000REP       REP President                                           Bill Weld                             Precinct 4018                                          01 
00100050020000002000000000002000000000000000000000000000000000000000000000000000000000000000000000000REP       REP President                                           Bill Weld                             Precinct 4019                                          01 
00100050021000008000004000004000000000000000000000000000000000000000000000000000000000000000000000000REP       REP President                                           Bill Weld                             Precinct 4020                                          01 
00100050022000002000002000000000000000000000000000000000000000000000000000000000000000000000000000000REP       REP President                                           Bill Weld                             Precinct 4021                                          01 
00100060001000000000000000000000000000000000000000000000000000000000000000000000000000000000000000000REP       REP President                                           Matthew John Matern                   Precinct 1001                                          01 
00100060002000000000000000000000000000000000000000000000000000000000000000000000000000000000000000000REP       REP President                                           Matthew John Matern                   Precinct 1002                                          01 
00100060003000001000000000001000000000000000000000000000000000000000000000000000000000000000000000000REP       REP President                                           Matthew John Matern                   Precinct 1003                                          01 
00100060004000001000001000000000000000000000000000000000000000000000000000000000000000000000000000000REP       REP President                                           Matthew John Matern                   Precinct 1004                                          01 
00100060005000000000000000000000000000000000000000000000000000000000000000000000000000000000000000000REP       REP President                                           Matthew John Matern                   Precinct 1022                                          01 
00100060006000002000001000001000000000000000000000000000000000000000000000000000000000000000000000000REP       REP President                                           Matthew John Matern                   Precinct 2005                                          01 
00100060007000000000000000000000000000000000000000000000000000000000000000000000000000000000000000000REP       REP President                                           Matthew John Matern                   Precinct 2006                                          01 
00100060008000001000001000000000000000000000000000000000000000000000000000000000000000000000000000000REP       REP President                                           Matthew John Matern                   Precinct 2007                                          01 
00100060009000000000000000000000000000000000000000000000000000000000000000000000000000000000000000000REP       REP President                                           Matthew John Matern                   Precinct 2008                                          01 
00100060010000000000000000000000000000000000000000000000000000000000000000000000000000000000000000000REP       REP President                                           Matthew John Matern                   Precinct 2009                                          01 
00100060011000000000000000000000000000000000000000000000000000000000000000000000000000000000000000000REP       REP President                                           Matthew John Matern                   Precinct 2010                                          01 
00100060012000001000000000001000000000000000000000000000000000000000000000000000000000000000000000000REP       REP President                                           Matthew John Matern                   Precinct 2011                                          01 
00100060013000000000000000000000000000000000000000000000000000000000000000000000000000000000000000000REP       REP President                                           Matthew John Matern                   Precinct 3012                                          01 
00100060014000000000000000000000000000000000000000000000000000000000000000000000000000000000000000000REP       REP President                                           Matthew John Matern                   Precinct 3013                                          01 
00100060015000000000000000000000000000000000000000000000000000000000000000000000000000000000000000000REP       REP President                                           Matthew John Matern                   Precinct 3014                                          01 
00100060016000001000000000001000000000000000000000000000000000000000000000000000000000000000000000000REP       REP President                                           Matthew John Matern                   Precinct 3015                                          01 
00100060017000000000000000000000000000000000000000000000000000000000000000000000000000000000000000000REP       REP President                                           Matthew John Matern                   Precinct 3016                                          01 
00100060018000000000000000000000000000000000000000000000000000000000000000000000000000000000000000000REP       REP President                                           Matthew John Matern                   Precinct 4017                                          01 
00100060019000000000000000000000000000000000000000000000000000000000000000000000000000000000000000000REP       REP President                                           Matthew John Matern                   Precinct 4018                                          01 
00100060020000001000000000001000000000000000000000000000000000000000000000000000000000000000000000000REP       REP President                                           Matthew John Matern                   Precinct 4019                                          01 
00100060021000003000001000002000000000000000000000000000000000000000000000000000000000000000000000000REP       REP President                                           Matthew John Matern                   Precinct 4020                                          01 
00100060022000000000000000000000000000000000000000000000000000000000000000000000000000000000000000000REP       REP President                                           Matthew John Matern                   Precinct 4021                                          01 
00100070001000002000001000001000000000000000000000000000000000000000000000000000000000000000000000000REP       REP President                                           Roque "Rocky" De La Fuente Guerra     Precinct 1001                                          01 
00100070002000000000000000000000000000000000000000000000000000000000000000000000000000000000000000000REP       REP President                                           Roque "Rocky" De La Fuente Guerra     Precinct 1002                                          01 
00100070003000003000001000002000000000000000000000000000000000000000000000000000000000000000000000000REP       REP President                                           Roque "Rocky" De La Fuente Guerra     Precinct 1003                                          01 
00100070004000000000000000000000000000000000000000000000000000000000000000000000000000000000000000000REP       REP President                                           Roque "Rocky" De La Fuente Guerra     Precinct 1004                                          01 
00100070005000001000000000001000000000000000000000000000000000000000000000000000000000000000000000000REP       REP President                                           Roque "Rocky" De La Fuente Guerra     Precinct 1022                                          01 
00100070006000000000000000000000000000000000000000000000000000000000000000000000000000000000000000000REP       REP President                                           Roque "Rocky" De La Fuente Guerra     Precinct 2005                                          01 
00100070007000000000000000000000000000000000000000000000000000000000000000000000000000000000000000000REP       REP President                                           Roque "Rocky" De La Fuente Guerra     Precinct 2006                                          01 
00100070008000000000000000000000000000000000000000000000000000000000000000000000000000000000000000000REP       REP President                                           Roque "Rocky" De La Fuente Guerra     Precinct 2007                                          01 
00100070009000000000000000000000000000000000000000000000000000000000000000000000000000000000000000000REP       REP President                                           Roque "Rocky" De La Fuente Guerra     Precinct 2008                                          01 
00100070010000001000001000000000000000000000000000000000000000000000000000000000000000000000000000000REP       REP President                                           Roque "Rocky" De La Fuente Guerra     Precinct 2009                                          01 
00100070011000000000000000000000000000000000000000000000000000000000000000000000000000000000000000000REP       REP President                                           Roque "Rocky" De La Fuente Guerra     Precinct 2010                                          01 
00100070012000001000001000000000000000000000000000000000000000000000000000000000000000000000000000000REP       REP President                                           Roque "Rocky" De La Fuente Guerra     Precinct 2011                                          01 
00100070013000000000000000000000000000000000000000000000000000000000000000000000000000000000000000000REP       REP President                                           Roque "Rocky" De La Fuente Guerra     Precinct 3012                                          01 
00100070014000000000000000000000000000000000000000000000000000000000000000000000000000000000000000000REP       REP President                                           Roque "Rocky" De La Fuente Guerra     Precinct 3013                                          01 
00100070015000001000001000000000000000000000000000000000000000000000000000000000000000000000000000000REP       REP President                                           Roque "Rocky" De La Fuente Guerra     Precinct 3014                                          01 
00100070016000002000000000002000000000000000000000000000000000000000000000000000000000000000000000000REP       REP President                                           Roque "Rocky" De La Fuente Guerra     Precinct 3015                                          01 
00100070017000000000000000000000000000000000000000000000000000000000000000000000000000000000000000000REP       REP President                                           Roque "Rocky" De La Fuente Guerra     Precinct 3016                                          01 
00100070018000004000000000004000000000000000000000000000000000000000000000000000000000000000000000000REP       REP President                                           Roque "Rocky" De La Fuente Guerra     Precinct 4017                                          01 
00100070019000001000000000001000000000000000000000000000000000000000000000000000000000000000000000000REP       REP President                                           Roque "Rocky" De La Fuente Guerra     Precinct 4018                                          01 
00100070020000002000000000002000000000000000000000000000000000000000000000000000000000000000000000000REP       REP President                                           Roque "Rocky" De La Fuente Guerra     Precinct 4019                                          01 
00100070021000004000001000003000000000000000000000000000000000000000000000000000000000000000000000000REP       REP President                                           Roque "Rocky" De La Fuente Guerra     Precinct 4020                                          01 
00100070022000000000000000000000000000000000000000000000000000000000000000000000000000000000000000000REP       REP President                                           Roque "Rocky" De La Fuente Guerra     Precinct 4021                                          01 
00100080001000014000007000007000000000000000000000000000000000000000000000000000000000000000000000000REP       REP President                                           Uncommitted                           Precinct 1001                                          01 
00100080002000007000005000002000000000000000000000000000000000000000000000000000000000000000000000000REP       REP President                                           Uncommitted                           Precinct 1002                                          01 
00100080003000019000006000013000000000000000000000000000000000000000000000000000000000000000000000000REP       REP President                                           Uncommitted                           Precinct 1003                                          01 
00100080004000008000003000005000000000000000000000000000000000000000000000000000000000000000000000000REP       REP President                                           Uncommitted                           Precinct 1004                                          01 
00100080005000018000006000011000001000000000000000000000000000000000000000000000000000000000000000000REP       REP President                                           Uncommitted                           Precinct 1022                                          01 
00100080006000020000010000010000000000000000000000000000000000000000000000000000000000000000000000000REP       REP President                                           Uncommitted                           Precinct 2005                                          01 
00100080007000007000001000006000000000000000000000000000000000000000000000000000000000000000000000000REP       REP President                                           Uncommitted                           Precinct 2006                                          01 
00100080008000007000005000002000000000000000000000000000000000000000000000000000000000000000000000000REP       REP President                                           Uncommitted                           Precinct 2007                                          01 
00100080009000004000000000003000001000000000000000000000000000000000000000000000000000000000000000000REP       REP President                                           Uncommitted                           Precinct 2008                                          01 
00100080010000004000001000003000000000000000000000000000000000000000000000000000000000000000000000000REP       REP President                                           Uncommitted                           Precinct 2009                                          01 
00100080011000005000000000005000000000000000000000000000000000000000000000000000000000000000000000000REP       REP President                                           Uncommitted                           Precinct 2010                                          01 
00100080012000013000006000007000000000000000000000000000000000000000000000000000000000000000000000000REP       REP President                                           Uncommitted                           Precinct 2011                                          01 
00100080013000007000004000001000002000000000000000000000000000000000000000000000000000000000000000000REP       REP President                                           Uncommitted                           Precinct 3012                                          01 
00100080014000010000008000002000000000000000000000000000000000000000000000000000000000000000000000000REP       REP President                                           Uncommitted                           Precinct 3013                                          01 
00100080015000005000002000003000000000000000000000000000000000000000000000000000000000000000000000000REP       REP President                                           Uncommitted                           Precinct 3014                                          01 
00100080016000007000003000003000001000000000000000000000000000000000000000000000000000000000000000000REP       REP President                                           Uncommitted                           Precinct 3015                                          01 
00100080017000019000011000008000000000000000000000000000000000000000000000000000000000000000000000000REP       REP President                                           Uncommitted                           Precinct 3016                                          01 
00100080018000023000009000014000000000000000000000000000000000000000000000000000000000000000000000000REP       REP President                                           Uncommitted                           Precinct 4017                                          01 
00100080019000009000003000006000000000000000000000000000000000000000000000000000000000000000000000000REP       REP President                                           Uncommitted                           Precinct 4018                                          01 
00100080020000016000006000010000000000000000000000000000000000000000000000000000000000000000000000000REP       REP President                                           Uncommitted                           Precinct 4019                                          01 
00100080021000023000012000009000002000000000000000000000000000000000000000000000000000000000000000000REP       REP President                                           Uncommitted                           Precinct 4020                                          01 
00100080022000004000004000000000000000000000000000000000000000000000000000000000000000000000000000000REP       REP President                                           Uncommitted                           Precinct 4021                                          01 
00100090001000000000000000000000000000000000000000000000000000000000000000000000000000000000000000000          REP President                                           OVER VOTES                            Precinct 1001                                          01 
00100090002000000000000000000000000000000000000000000000000000000000000000000000000000000000000000000          REP President                                           OVER VOTES                            Precinct 1002                                          01 
00100090003000000000000000000000000000000000000000000000000000000000000000000000000000000000000000000          REP President                                           OVER VOTES                            Precinct 1003                                          01 
