00010010001000158000000000000000000000000000000000000000000000000000000000000000000000000000000000000          REGISTERED VOTERS - TOTAL                               REGISTERED VOTERS - TOTAL             Precinct 1                                             00 
00010010002000254000000000000000000000000000000000000000000000000000000000000000000000000000000000000          REGISTERED VOTERS - TOTAL                               REGISTERED VOTERS - TOTAL             Precinct 2                                             00 
00010010003000249000000000000000000000000000000000000000000000000000000000000000000000000000000000000          REGISTERED VOTERS - TOTAL                               REGISTERED VOTERS - TOTAL             Precinct 3                                             00 
00010010004000291000000000000000000000000000000000000000000000000000000000000000000000000000000000000          REGISTERED VOTERS - TOTAL                               REGISTERED VOTERS - TOTAL             Precinct 4                                             00 
00010010005000072000000000000000000000000000000000000000000000000000000000000000000000000000000000000          REGISTERED VOTERS - TOTAL                               REGISTERED VOTERS - TOTAL             Precinct 6                                             00 
00020010001000000000000000000000000000000000000000000000000000000000000000000000000000000000000000000REP       REGISTERED VOTERS - Republican Party                    REGISTERED VOTERS - Republican Party  Precinct 1                                             00 
00020010002000000000000000000000000000000000000000000000000000000000000000000000000000000000000000000REP       REGISTERED VOTERS - Republican Party                    REGISTERED VOTERS - Republican Party  Precinct 2                                             00 
00020010003000000000000000000000000000000000000000000000000000000000000000000000000000000000000000000REP       REGISTERED VOTERS - Republican Party                    REGISTERED VOTERS - Republican Party  Precinct 3                                             00 
00020010004000000000000000000000000000000000000000000000000000000000000000000000000000000000000000000REP       REGISTERED VOTERS - Republican Party                    REGISTERED VOTERS - Republican Party  Precinct 4                                             00 
00020010005000000000000000000000000000000000000000000000000000000000000000000000000000000000000000000REP       REGISTERED VOTERS - Republican Party                    REGISTERED VOTERS - Republican Party  Precinct 6                                             00 
00030010001000000000000000000000000000000000000000000000000000000000000000000000000000000000000000000DEM       REGISTERED VOTERS - Democratic Party                    REGISTERED VOTERS - Democratic Party  Precinct 1                                             00 
00030010002000000000000000000000000000000000000000000000000000000000000000000000000000000000000000000DEM       REGISTERED VOTERS - Democratic Party                    REGISTERED VOTERS - Democratic Party  Precinct 2                                             00 
00030010003000000000000000000000000000000000000000000000000000000000000000000000000000000000000000000DEM       REGISTERED VOTERS - Democratic Party                    REGISTERED VOTERS - Democratic Party  Precinct 3                                             00 
00030010004000000000000000000000000000000000000000000000000000000000000000000000000000000000000000000DEM       REGISTERED VOTERS - Democratic Party                    REGISTERED VOTERS - Democratic Party  Precinct 4                                             00 
00030010005000000000000000000000000000000000000000000000000000000000000000000000000000000000000000000DEM       REGISTERED VOTERS - Democratic Party                    REGISTERED VOTERS - Democratic Party  Precinct 6                                             00 
00040010001000158000000000000000000000000000000000000000000000000000000000000000000000000000000000000NON       REGISTERED VOTERS - NONPARTISAN                         REGISTERED VOTERS - NONPARTISAN       Precinct 1                                             00 
00040010002000254000000000000000000000000000000000000000000000000000000000000000000000000000000000000NON       REGISTERED VOTERS - NONPARTISAN                         REGISTERED VOTERS - NONPARTISAN       Precinct 2                                             00 
00040010003000249000000000000000000000000000000000000000000000000000000000000000000000000000000000000NON       REGISTERED VOTERS - NONPARTISAN                         REGISTERED VOTERS - NONPARTISAN       Precinct 3                                             00 
00040010004000291000000000000000000000000000000000000000000000000000000000000000000000000000000000000NON       REGISTERED VOTERS - NONPARTISAN                         REGISTERED VOTERS - NONPARTISAN       Precinct 4                                             00 
00040010005000072000000000000000000000000000000000000000000000000000000000000000000000000000000000000NON       REGISTERED VOTERS - NONPARTISAN                         REGISTERED VOTERS - NONPARTISAN       Precinct 6                                             00 
00050010001000077000048000023000006000000000000000000000000000000000000000000000000000000000000000000          BALLOTS CAST - TOTAL                                    BALLOTS CAST - TOTAL                  Precinct 1                                             00 
00050010002000122000086000028000008000000000000000000000000000000000000000000000000000000000000000000          BALLOTS CAST - TOTAL                                    BALLOTS CAST - TOTAL                  Precinct 2                                             00 
00050010003000139000070000057000012000000000000000000000000000000000000000000000000000000000000000000          BALLOTS CAST - TOTAL                                    BALLOTS CAST - TOTAL                  Precinct 3                                             00 
00050010004000189000102000059000028000000000000000000000000000000000000000000000000000000000000000000          BALLOTS CAST - TOTAL                                    BALLOTS CAST - TOTAL                  Precinct 4                                             00 
00050010005000025000023000000000002000000000000000000000000000000000000000000000000000000000000000000          BALLOTS CAST - TOTAL                                    BALLOTS CAST - TOTAL                  Precinct 6                                             00 
00060010001000073000048000019000006000000000000000000000000000000000000000000000000000000000000000000REP       BALLOTS CAST - Republican Party                         BALLOTS CAST - Republican Party       Precinct 1                                             00 
00060010002000112000078000028000006000000000000000000000000000000000000000000000000000000000000000000REP       BALLOTS CAST - Republican Party                         BALLOTS CAST - Republican Party       Precinct 2                                             00 
00060010003000134000067000057000010000000000000000000000000000000000000000000000000000000000000000000REP       BALLOTS CAST - Republican Party                         BALLOTS CAST - Republican Party       Precinct 3                                             00 
00060010004000173000092000057000024000000000000000000000000000000000000000000000000000000000000000000REP       BALLOTS CAST - Republican Party                         BALLOTS CAST - Republican Party       Precinct 4                                             00 
00060010005000023000023000000000000000000000000000000000000000000000000000000000000000000000000000000REP       BALLOTS CAST - Republican Party                         BALLOTS CAST - Republican Party       Precinct 6                                             00 
00070010001000004000000000004000000000000000000000000000000000000000000000000000000000000000000000000DEM       BALLOTS CAST - Democratic Party                         BALLOTS CAST - Democratic Party       Precinct 1                                             00 
00070010002000010000008000000000002000000000000000000000000000000000000000000000000000000000000000000DEM       BALLOTS CAST - Democratic Party                         BALLOTS CAST - Democratic Party       Precinct 2                                             00 
00070010003000005000003000000000002000000000000000000000000000000000000000000000000000000000000000000DEM       BALLOTS CAST - Democratic Party                         BALLOTS CAST - Democratic Party       Precinct 3                                             00 
00070010004000016000010000002000004000000000000000000000000000000000000000000000000000000000000000000DEM       BALLOTS CAST - Democratic Party                         BALLOTS CAST - Democratic Party       Precinct 4                                             00 
00070010005000002000000000000000002000000000000000000000000000000000000000000000000000000000000000000DEM       BALLOTS CAST - Democratic Party                         BALLOTS CAST - Democratic Party       Precinct 6                                             00 
00080010001000000000000000000000000000000000000000000000000000000000000000000000000000000000000000000NON       BALLOTS CAST - NONPARTISAN                              BALLOTS CAST - NONPARTISAN            Precinct 1                                             00 
00080010002000000000000000000000000000000000000000000000000000000000000000000000000000000000000000000NON       BALLOTS CAST - NONPARTISAN                              BALLOTS CAST - NONPARTISAN            Precinct 2                                             00 
00080010003000000000000000000000000000000000000000000000000000000000000000000000000000000000000000000NON       BALLOTS CAST - NONPARTISAN                              BALLOTS CAST - NONPARTISAN            Precinct 3                                             00 
00080010004000000000000000000000000000000000000000000000000000000000000000000000000000000000000000000NON       BALLOTS CAST - NONPARTISAN                              BALLOTS CAST - NONPARTISAN            Precinct 4                                             00 
00080010005000000000000000000000000000000000000000000000000000000000000000000000000000000000000000000NON       BALLOTS CAST - NONPARTISAN                              BALLOTS CAST - NONPARTISAN            Precinct 6                                             00 
00090010001000000000000000000000000000000000000000000000000000000000000000000000000000000000000000000          BALLOTS CAST - BLANK                                    BALLOTS CAST - BLANK                  Precinct 1                                             00 
00090010002000000000000000000000000000000000000000000000000000000000000000000000000000000000000000000          BALLOTS CAST - BLANK                                    BALLOTS CAST - BLANK                  Precinct 2                                             00 
00090010003000000000000000000000000000000000000000000000000000000000000000000000000000000000000000000          BALLOTS CAST - BLANK                                    BALLOTS CAST - BLANK                  Precinct 3                                             00 
00090010004000001000001000000000000000000000000000000000000000000000000000000000000000000000000000000          BALLOTS CAST - BLANK                                    BALLOTS CAST - BLANK                  Precinct 4                                             00 
00090010005000000000000000000000000000000000000000000000000000000000000000000000000000000000000000000          BALLOTS CAST - BLANK                                    BALLOTS CAST - BLANK                  Precinct 6                                             00 
00100010001000002000001000001000000000000000000000000000000000000000000000000000000000000000000000000REP       REP President                                           Joe Walsh                             Precinct 1                                             01 
00100010002000003000003000000000000000000000000000000000000000000000000000000000000000000000000000000REP       REP President                                           Joe Walsh                             Precinct 2                                             01 
00100010003000003000002000001000000000000000000000000000000000000000000000000000000000000000000000000REP       REP President                                           Joe Walsh                             Precinct 3                                             01 
00100010004000001000000000001000000000000000000000000000000000000000000000000000000000000000000000000REP       REP President                                           Joe Walsh                             Precinct 4                                             01 
00100010005000000000000000000000000000000000000000000000000000000000000000000000000000000000000000000REP       REP President                                           Joe Walsh                             Precinct 6                                             01 
00100020001000000000000000000000000000000000000000000000000000000000000000000000000000000000000000000REP       REP President                                           Bill Weld                             Precinct 1                                             01 
00100020002000000000000000000000000000000000000000000000000000000000000000000000000000000000000000000REP       REP President                                           Bill Weld                             Precinct 2                                             01 
00100020003000001000001000000000000000000000000000000000000000000000000000000000000000000000000000000REP       REP President                                           Bill Weld                             Precinct 3                                             01 
00100020004000001000001000000000000000000000000000000000000000000000000000000000000000000000000000000REP       REP President                                           Bill Weld                             Precinct 4                                             01 
00100020005000000000000000000000000000000000000000000000000000000000000000000000000000000000000000000REP       REP President                                           Bill Weld                             Precinct 6                                             01 
00100030001000000000000000000000000000000000000000000000000000000000000000000000000000000000000000000REP       REP President                                           Bob Ely                               Precinct 1                                             01 
00100030002000000000000000000000000000000000000000000000000000000000000000000000000000000000000000000REP       REP President                                           Bob Ely                               Precinct 2                                             01 
00100030003000000000000000000000000000000000000000000000000000000000000000000000000000000000000000000REP       REP President                                           Bob Ely                               Precinct 3                                             01 
00100030004000000000000000000000000000000000000000000000000000000000000000000000000000000000000000000REP       REP President                                           Bob Ely                               Precinct 4                                             01 
00100030005000000000000000000000000000000000000000000000000000000000000000000000000000000000000000000REP       REP President                                           Bob Ely                               Precinct 6                                             01 
00100040001000002000002000000000000000000000000000000000000000000000000000000000000000000000000000000REP       REP President                                           Roque Rocky DeLa Fuente Guerra        Precinct 1                                             01 
00100040002000000000000000000000000000000000000000000000000000000000000000000000000000000000000000000REP       REP President                                           Roque Rocky DeLa Fuente Guerra        Precinct 2                                             01 
00100040003000001000001000000000000000000000000000000000000000000000000000000000000000000000000000000REP       REP President                                           Roque Rocky DeLa Fuente Guerra        Precinct 3                                             01 
00100040004000002000002000000000000000000000000000000000000000000000000000000000000000000000000000000REP       REP President                                           Roque Rocky DeLa Fuente Guerra        Precinct 4                                             01 
00100040005000000000000000000000000000000000000000000000000000000000000000000000000000000000000000000REP       REP President                                           Roque Rocky DeLa Fuente Guerra        Precinct 6                                             01 
00100050001000000000000000000000000000000000000000000000000000000000000000000000000000000000000000000REP       REP President                                           Zoltan G. Istvan                      Precinct 1                                             01 
00100050002000000000000000000000000000000000000000000000000000000000000000000000000000000000000000000REP       REP President                                           Zoltan G. Istvan                      Precinct 2                                             01 
00100050003000000000000000000000000000000000000000000000000000000000000000000000000000000000000000000REP       REP President                                           Zoltan G. Istvan                      Precinct 3                                             01 
00100050004000000000000000000000000000000000000000000000000000000000000000000000000000000000000000000REP       REP President                                           Zoltan G. Istvan                      Precinct 4                                             01 
00100050005000000000000000000000000000000000000000000000000000000000000000000000000000000000000000000REP       REP President                                           Zoltan G. Istvan                      Precinct 6                                             01 
00100060001000064000042000017000005000000000000000000000000000000000000000000000000000000000000000000REP       REP President                                           Donald J. Trump                       Precinct 1                                             01 
00100060002000107000074000027000006000000000000000000000000000000000000000000000000000000000000000000REP       REP President                                           Donald J. Trump                       Precinct 2                                             01 
00100060003000120000056000054000010000000000000000000000000000000000000000000000000000000000000000000REP       REP President                                           Donald J. Trump                       Precinct 3                                             01 
00100060004000158000084000051000023000000000000000000000000000000000000000000000000000000000000000000REP       REP President                                           Donald J. Trump                       Precinct 4                                             01 
00100060005000021000021000000000000000000000000000000000000000000000000000000000000000000000000000000REP       REP President                                           Donald J. Trump                       Precinct 6                                             01 
00100070001000000000000000000000000000000000000000000000000000000000000000000000000000000000000000000REP       REP President                                           Matthew John Matern                   Precinct 1                                             01 
00100070002000000000000000000000000000000000000000000000000000000000000000000000000000000000000000000REP       REP President                                           Matthew John Matern                   Precinct 2                                             01 
00100070003000000000000000000000000000000000000000000000000000000000000000000000000000000000000000000REP       REP President                                           Matthew John Matern                   Precinct 3                                             01 
00100070004000000000000000000000000000000000000000000000000000000000000000000000000000000000000000000REP       REP President                                           Matthew John Matern                   Precinct 4                                             01 
00100070005000000000000000000000000000000000000000000000000000000000000000000000000000000000000000000REP       REP President                                           Matthew John Matern                   Precinct 6                                             01 
00100080001000004000002000001000001000000000000000000000000000000000000000000000000000000000000000000REP       REP President                                           Uncommitted                           Precinct 1                                             01 
00100080002000002000001000001000000000000000000000000000000000000000000000000000000000000000000000000REP       REP President                                           Uncommitted                           Precinct 2                                             01 
00100080003000008000007000001000000000000000000000000000000000000000000000000000000000000000000000000REP       REP President                                           Uncommitted                           Precinct 3                                             01 
00100080004000011000005000005000001000000000000000000000000000000000000000000000000000000000000000000REP       REP President                                           Uncommitted                           Precinct 4                                             01 
00100080005000000000000000000000000000000000000000000000000000000000000000000000000000000000000000000REP       REP President                                           Uncommitted                           Precinct 6                                             01 
00110010001000048000032000012000004000000000000000000000000000000000000000000000000000000000000000000REP       REP US Senator                                          John Cornyn                           Precinct 1                                             01 
00110010002000082000055000021000006000000000000000000000000000000000000000000000000000000000000000000REP       REP US Senator                                          John Cornyn                           Precinct 2                                             01 
00110010003000095000037000049000009000000000000000000000000000000000000000000000000000000000000000000REP       REP US Senator                                          John Cornyn                           Precinct 3                                             01 
00110010004000121000059000045000017000000000000000000000000000000000000000000000000000000000000000000REP       REP US Senator                                          John Cornyn                           Precinct 4                                             01 
00110010005000015000015000000000000000000000000000000000000000000000000000000000000000000000000000000REP       REP US Senator                                          John Cornyn                           Precinct 6                                             01 
00110020001000002000001000001000000000000000000000000000000000000000000000000000000000000000000000000REP       REP US Senator                                          Virgil Bierschwale                    Precinct 1                                             01 
00110020002000000000000000000000000000000000000000000000000000000000000000000000000000000000000000000REP       REP US Senator                                          Virgil Bierschwale                    Precinct 2                                             01 
00110020003000002000001000001000000000000000000000000000000000000000000000000000000000000000000000000REP       REP US Senator                                          Virgil Bierschwale                    Precinct 3                                             01 
00110020004000002000002000000000000000000000000000000000000000000000000000000000000000000000000000000REP       REP US Senator                                          Virgil Bierschwale                    Precinct 4                                             01 
00110020005000000000000000000000000000000000000000000000000000000000000000000000000000000000000000000REP       REP US Senator                                          Virgil Bierschwale                    Precinct 6                                             01 
00110030001000004000003000001000000000000000000000000000000000000000000000000000000000000000000000000REP       REP US Senator                                          John Anthony Castro                   Precinct 1                                             01 
00110030002000007000006000001000000000000000000000000000000000000000000000000000000000000000000000000REP       REP US Senator                                          John Anthony Castro                   Precinct 2                                             01 
00110030003000004000004000000000000000000000000000000000000000000000000000000000000000000000000000000REP       REP US Senator                                          John Anthony Castro                   Precinct 3                                             01 
00110030004000007000005000002000000000000000000000000000000000000000000000000000000000000000000000000REP       REP US Senator                                          John Anthony Castro                   Precinct 4                                             01 
00110030005000000000000000000000000000000000000000000000000000000000000000000000000000000000000000000REP       REP US Senator                                          John Anthony Castro                   Precinct 6                                             01 
00110040001000003000002000000000001000000000000000000000000000000000000000000000000000000000000000000REP       REP US Senator                                          Dwayne Stovall                        Precinct 1                                             01 
00110040002000011000007000004000000000000000000000000000000000000000000000000000000000000000000000000REP       REP US Senator                                          Dwayne Stovall                        Precinct 2                                             01 
00110040003000013000008000004000001000000000000000000000000000000000000000000000000000000000000000000REP       REP US Senator                                          Dwayne Stovall                        Precinct 3                                             01 
00110040004000023000015000007000001000000000000000000000000000000000000000000000000000000000000000000REP       REP US Senator                                          Dwayne Stovall                        Precinct 4                                             01 
00110040005000004000004000000000000000000000000000000000000000000000000000000000000000000000000000000REP       REP US Senator                                          Dwayne Stovall                        Precinct 6                                             01 
00110050001000006000004000002000000000000000000000000000000000000000000000000000000000000000000000000REP       REP US Senator                                          Mark Yancey                           Precinct 1                                             01 
00110050002000004000003000001000000000000000000000000000000000000000000000000000000000000000000000000REP       REP US Senator                                          Mark Yancey                           Precinct 2                                             01 
00110050003000014000013000001000000000000000000000000000000000000000000000000000000000000000000000000REP       REP US Senator                                          Mark Yancey                           Precinct 3                                             01 
00110050004000008000006000002000000000000000000000000000000000000000000000000000000000000000000000000REP       REP US Senator                                          Mark Yancey                           Precinct 4                                             01 
00110050005000000000000000000000000000000000000000000000000000000000000000000000000000000000000000000REP       REP US Senator                                          Mark Yancey                           Precinct 6                                             01 
00120010001000001000001000000000000000000000000000000000000000000000000000000000000000000000000000000REP       REP US Representative, Dist 13                          Vance Snider II                       Precinct 1                                             01 
00120010002000004000003000001000000000000000000000000000000000000000000000000000000000000000000000000REP       REP US Representative, Dist 13                          Vance Snider II                       Precinct 2                                             01 
00120010003000010000007000002000001000000000000000000000000000000000000000000000000000000000000000000REP       REP US Representative, Dist 13                          Vance Snider II                       Precinct 3                                             01 
00120010004000010000007000003000000000000000000000000000000000000000000000000000000000000000000000000REP       REP US Representative, Dist 13                          Vance Snider II                       Precinct 4                                             01 
00120010005000001000001000000000000000000000000000000000000000000000000000000000000000000000000000000REP       REP US Representative, Dist 13                          Vance Snider II                       Precinct 6                                             01 
00120020001000004000002000002000000000000000000000000000000000000000000000000000000000000000000000000REP       REP US Representative, Dist 13                          Matt McArthur                         Precinct 1                                             01 
00120020002000006000004000001000001000000000000000000000000000000000000000000000000000000000000000000REP       REP US Representative, Dist 13                          Matt McArthur                         Precinct 2                                             01 
00120020003000003000002000001000000000000000000000000000000000000000000000000000000000000000000000000REP       REP US Representative, Dist 13                          Matt McArthur                         Precinct 3                                             01 
00120020004000006000003000000000003000000000000000000000000000000000000000000000000000000000000000000REP       REP US Representative, Dist 13                          Matt McArthur                         Precinct 4                                             01 
00120020005000001000001000000000000000000000000000000000000000000000000000000000000000000000000000000REP       REP US Representative, Dist 13                          Matt McArthur                         Precinct 6                                             01 
00120030001000003000002000001000000000000000000000000000000000000000000000000000000000000000000000000REP       REP US Representative, Dist 13                          Elaine Hays                           Precinct 1                                             01 
00120030002000003000000000000000003000000000000000000000000000000000000000000000000000000000000000000REP       REP US Representative, Dist 13                          Elaine Hays                           Precinct 2                                             01 
00120030003000005000003000002000000000000000000000000000000000000000000000000000000000000000000000000REP       REP US Representative, Dist 13                          Elaine Hays                           Precinct 3                                             01 
00120030004000009000008000001000000000000000000000000000000000000000000000000000000000000000000000000REP       REP US Representative, Dist 13                          Elaine Hays                           Precinct 4                                             01 
00120030005000001000001000000000000000000000000000000000000000000000000000000000000000000000000000000REP       REP US Representative, Dist 13                          Elaine Hays                           Precinct 6                                             01 
00120040001000000000000000000000000000000000000000000000000000000000000000000000000000000000000000000REP       REP US Representative, Dist 13                          Jason Foglesong                       Precinct 1                                             01 
00120040002000001000001000000000000000000000000000000000000000000000000000000000000000000000000000000REP       REP US Representative, Dist 13                          Jason Foglesong                       Precinct 2                                             01 
00120040003000000000000000000000000000000000000000000000000000000000000000000000000000000000000000000REP       REP US Representative, Dist 13                          Jason Foglesong                       Precinct 3                                             01 
00120040004000002000000000000000002000000000000000000000000000000000000000000000000000000000000000000REP       REP US Representative, Dist 13                          Jason Foglesong                       Precinct 4                                             01 
00120040005000000000000000000000000000000000000000000000000000000000000000000000000000000000000000000REP       REP US Representative, Dist 13                          Jason Foglesong                       Precinct 6                                             01 
00120050001000008000003000002000003000000000000000000000000000000000000000000000000000000000000000000REP       REP US Representative, Dist 13                          Chris Ekstrom                         Precinct 1                                             01 
00120050002000016000012000004000000000000000000000000000000000000000000000000000000000000000000000000REP       REP US Representative, Dist 13                          Chris Ekstrom                         Precinct 2                                             01 
00120050003000022000010000011000001000000000000000000000000000000000000000000000000000000000000000000REP       REP US Representative, Dist 13                          Chris Ekstrom                         Precinct 3                                             01 
00120050004000023000010000010000003000000000000000000000000000000000000000000000000000000000000000000REP       REP US Representative, Dist 13                          Chris Ekstrom                         Precinct 4                                             01 
00120050005000003000003000000000000000000000000000000000000000000000000000000000000000000000000000000REP       REP US Representative, Dist 13                          Chris Ekstrom                         Precinct 6                                             01 
00120060001000007000007000000000000000000000000000000000000000000000000000000000000000000000000000000REP       REP US Representative, Dist 13                          Ronny Jackson                         Precinct 1                                             01 
00120060002000015000007000007000001000000000000000000000000000000000000000000000000000000000000000000REP       REP US Representative, Dist 13                          Ronny Jackson                         Precinct 2                                             01 
00120060003000017000008000009000000000000000000000000000000000000000000000000000000000000000000000000REP       REP US Representative, Dist 13                          Ronny Jackson                         Precinct 3                                             01 
00120060004000010000004000003000003000000000000000000000000000000000000000000000000000000000000000000REP       REP US Representative, Dist 13                          Ronny Jackson                         Precinct 4                                             01 
00120060005000002000002000000000000000000000000000000000000000000000000000000000000000000000000000000REP       REP US Representative, Dist 13                          Ronny Jackson                         Precinct 6                                             01 
00120070001000032000023000007000002000000000000000000000000000000000000000000000000000000000000000000REP       REP US Representative, Dist 13                          Josh Winegarner                       Precinct 1                                             01 
00120070002000050000038000012000000000000000000000000000000000000000000000000000000000000000000000000REP       REP US Representative, Dist 13                          Josh Winegarner                       Precinct 2                                             01 
00120070003000056000022000028000006000000000000000000000000000000000000000000000000000000000000000000REP       REP US Representative, Dist 13                          Josh Winegarner                       Precinct 3                                             01 
00120070004000089000046000033000010000000000000000000000000000000000000000000000000000000000000000000REP       REP US Representative, Dist 13                          Josh Winegarner                       Precinct 4                                             01 
00120070005000008000008000000000000000000000000000000000000000000000000000000000000000000000000000000REP       REP US Representative, Dist 13                          Josh Winegarner                       Precinct 6                                             01 
00120080001000001000001000000000000000000000000000000000000000000000000000000000000000000000000000000REP       REP US Representative, Dist 13                          Asusena Resendiz                      Precinct 1                                             01 
00120080002000001000001000000000000000000000000000000000000000000000000000000000000000000000000000000REP       REP US Representative, Dist 13                          Asusena Resendiz                      Precinct 2                                             01 
00120080003000001000001000000000000000000000000000000000000000000000000000000000000000000000000000000REP       REP US Representative, Dist 13                          Asusena Resendiz                      Precinct 3                                             01 
00120080004000003000003000000000000000000000000000000000000000000000000000000000000000000000000000000REP       REP US Representative, Dist 13                          Asusena Resendiz                      Precinct 4                                             01 
00120080005000000000000000000000000000000000000000000000000000000000000000000000000000000000000000000REP       REP US Representative, Dist 13                          Asusena Resendiz                      Precinct 6                                             01 
00120090001000000000000000000000000000000000000000000000000000000000000000000000000000000000000000000REP       REP US Representative, Dist 13                          Diane Knowlton                        Precinct 1                                             01 
00120090002000001000001000000000000000000000000000000000000000000000000000000000000000000000000000000REP       REP US Representative, Dist 13                          Diane Knowlton                        Precinct 2                                             01 
00120090003000001000001000000000000000000000000000000000000000000000000000000000000000000000000000000REP       REP US Representative, Dist 13                          Diane Knowlton                        Precinct 3                                             01 
00120090004000002000000000002000000000000000000000000000000000000000000000000000000000000000000000000REP       REP US Representative, Dist 13                          Diane Knowlton                        Precinct 4                                             01 
00120090005000000000000000000000000000000000000000000000000000000000000000000000000000000000000000000REP       REP US Representative, Dist 13                          Diane Knowlton                        Precinct 6                                             01 
00120100001000001000000000001000000000000000000000000000000000000000000000000000000000000000000000000REP       REP US Representative, Dist 13                          Catherine "I Swear" Carr              Precinct 1                                             01 
00120100002000000000000000000000000000000000000000000000000000000000000000000000000000000000000000000REP       REP US Representative, Dist 13                          Catherine "I Swear" Carr              Precinct 2                                             01 
00120100003000001000001000000000000000000000000000000000000000000000000000000000000000000000000000000REP       REP US Representative, Dist 13                          Catherine "I Swear" Carr              Precinct 3                                             01 
00120100004000000000000000000000000000000000000000000000000000000000000000000000000000000000000000000REP       REP US Representative, Dist 13                          Catherine "I Swear" Carr              Precinct 4                                             01 
00120100005000000000000000000000000000000000000000000000000000000000000000000000000000000000000000000REP       REP US Representative, Dist 13                          Catherine "I Swear" Carr              Precinct 6                                             01 
00120110001000001000001000000000000000000000000000000000000000000000000000000000000000000000000000000REP       REP US Representative, Dist 13                          Lee Harvey                            Precinct 1                                             01 
00120110002000003000002000001000000000000000000000000000000000000000000000000000000000000000000000000REP       REP US Representative, Dist 13                          Lee Harvey                            Precinct 2                                             01 
00120110003000001000001000000000000000000000000000000000000000000000000000000000000000000000000000000REP       REP US Representative, Dist 13                          Lee Harvey                            Precinct 3                                             01 
00120110004000004000003000001000000000000000000000000000000000000000000000000000000000000000000000000REP       REP US Representative, Dist 13                          Lee Harvey                            Precinct 4                                             01 
00120110005000000000000000000000000000000000000000000000000000000000000000000000000000000000000000000REP       REP US Representative, Dist 13                          Lee Harvey                            Precinct 6                                             01 
00120120001000002000000000002000000000000000000000000000000000000000000000000000000000000000000000000REP       REP US Representative, Dist 13                          Richard Herman                        Precinct 1                                             01 
00120120002000000000000000000000000000000000000000000000000000000000000000000000000000000000000000000REP       REP US Representative, Dist 13                          Richard Herman                        Precinct 2                                             01 
00120120003000002000001000001000000000000000000000000000000000000000000000000000000000000000000000000REP       REP US Representative, Dist 13                          Richard Herman                        Precinct 3                                             01 
00120120004000001000000000001000000000000000000000000000000000000000000000000000000000000000000000000REP       REP US Representative, Dist 13                          Richard Herman                        Precinct 4                                             01 
00120120005000000000000000000000000000000000000000000000000000000000000000000000000000000000000000000REP       REP US Representative, Dist 13                          Richard Herman                        Precinct 6                                             01 
00120130001000000000000000000000000000000000000000000000000000000000000000000000000000000000000000000REP       REP US Representative, Dist 13                          Monique Worthy                        Precinct 1                                             01 
00120130002000001000001000000000000000000000000000000000000000000000000000000000000000000000000000000REP       REP US Representative, Dist 13                          Monique Worthy                        Precinct 2                                             01 
00120130003000002000000000001000001000000000000000000000000000000000000000000000000000000000000000000REP       REP US Representative, Dist 13                          Monique Worthy                        Precinct 3                                             01 
00120130004000003000001000001000001000000000000000000000000000000000000000000000000000000000000000000REP       REP US Representative, Dist 13                          Monique Worthy                        Precinct 4                                             01 
00120130005000001000001000000000000000000000000000000000000000000000000000000000000000000000000000000REP       REP US Representative, Dist 13                          Monique Worthy                        Precinct 6                                             01 
00120140001000000000000000000000000000000000000000000000000000000000000000000000000000000000000000000REP       REP US Representative, Dist 13                          Jamie Culley                          Precinct 1                                             01 
00120140002000004000004000000000000000000000000000000000000000000000000000000000000000000000000000000REP       REP US Representative, Dist 13                          Jamie Culley                          Precinct 2                                             01 
00120140003000001000001000000000000000000000000000000000000000000000000000000000000000000000000000000REP       REP US Representative, Dist 13                          Jamie Culley                          Precinct 3                                             01 
00120140004000000000000000000000000000000000000000000000000000000000000000000000000000000000000000000REP       REP US Representative, Dist 13                          Jamie Culley                          Precinct 4                                             01 
00120140005000000000000000000000000000000000000000000000000000000000000000000000000000000000000000000REP       REP US Representative, Dist 13                          Jamie Culley                          Precinct 6                                             01 
00120150001000004000002000002000000000000000000000000000000000000000000000000000000000000000000000000REP       REP US Representative, Dist 13                          Mark Neese                            Precinct 1                                             01 
00120150002000001000000000001000000000000000000000000000000000000000000000000000000000000000000000000REP       REP US Representative, Dist 13                          Mark Neese                            Precinct 2                                             01 
00120150003000006000006000000000000000000000000000000000000000000000000000000000000000000000000000000REP       REP US Representative, Dist 13                          Mark Neese                            Precinct 3                                             01 
00120150004000003000003000000000000000000000000000000000000000000000000000000000000000000000000000000REP       REP US Representative, Dist 13                          Mark Neese                            Precinct 4                                             01 
00120150005000000000000000000000000000000000000000000000000000000000000000000000000000000000000000000REP       REP US Representative, Dist 13                          Mark Neese                            Precinct 6                                             01 
00130010001000022000014000003000005000000000000000000000000000000000000000000000000000000000000000000REP       REP Railroad Commissioner                               Ryan Sitton                           Precinct 1                                             01 
00130010002000042000024000014000004000000000000000000000000000000000000000000000000000000000000000000REP       REP Railroad Commissioner                               Ryan Sitton                           Precinct 2                                             01 
00130010003000053000026000024000003000000000000000000000000000000000000000000000000000000000000000000REP       REP Railroad Commissioner                               Ryan Sitton                           Precinct 3                                             01 
00130010004000079000042000029000008000000000000000000000000000000000000000000000000000000000000000000REP       REP Railroad Commissioner                               Ryan Sitton                           Precinct 4                                             01 
00130010005000012000012000000000000000000000000000000000000000000000000000000000000000000000000000000REP       REP Railroad Commissioner                               Ryan Sitton                           Precinct 6                                             01 
00130020001000033000020000012000001000000000000000000000000000000000000000000000000000000000000000000REP       REP Railroad Commissioner                               James "Jim" Wright                    Precinct 1                                             01 
00130020002000049000038000010000001000000000000000000000000000000000000000000000000000000000000000000REP       REP Railroad Commissioner                               James "Jim" Wright                    Precinct 2                                             01 
00130020003000064000032000027000005000000000000000000000000000000000000000000000000000000000000000000REP       REP Railroad Commissioner                               James "Jim" Wright                    Precinct 3                                             01 
00130020004000067000040000019000008000000000000000000000000000000000000000000000000000000000000000000REP       REP Railroad Commissioner                               James "Jim" Wright                    Precinct 4                                             01 
00130020005000005000005000000000000000000000000000000000000000000000000000000000000000000000000000000REP       REP Railroad Commissioner                               James "Jim" Wright                    Precinct 6                                             01 
00140010001000054000034000015000005000000000000000000000000000000000000000000000000000000000000000000REP       REP Chief Justice, Supreme Court                        Nathan Hecht                          Precinct 1                                             01 
00140010002000097000066000026000005000000000000000000000000000000000000000000000000000000000000000000REP       REP Chief Justice, Supreme Court                        Nathan Hecht                          Precinct 2                                             01 
00140010003000117000056000053000008000000000000000000000000000000000000000000000000000000000000000000REP       REP Chief Justice, Supreme Court                        Nathan Hecht                          Precinct 3                                             01 
00140010004000138000078000047000013000000000000000000000000000000000000000000000000000000000000000000REP       REP Chief Justice, Supreme Court                        Nathan Hecht                          Precinct 4                                             01 
00140010005000017000017000000000000000000000000000000000000000000000000000000000000000000000000000000REP       REP Chief Justice, Supreme Court                        Nathan Hecht                          Precinct 6                                             01 
00150010001000055000035000014000006000000000000000000000000000000000000000000000000000000000000000000REP       REP Justice, Supreme Court, Pl 6                        Jane Bland                            Precinct 1                                             01 
00150010002000096000065000026000005000000000000000000000000000000000000000000000000000000000000000000REP       REP Justice, Supreme Court, Pl 6                        Jane Bland                            Precinct 2                                             01 
00150010003000117000057000052000008000000000000000000000000000000000000000000000000000000000000000000REP       REP Justice, Supreme Court, Pl 6                        Jane Bland                            Precinct 3                                             01 
00150010004000145000079000050000016000000000000000000000000000000000000000000000000000000000000000000REP       REP Justice, Supreme Court, Pl 6                        Jane Bland                            Precinct 4                                             01 
00150010005000017000017000000000000000000000000000000000000000000000000000000000000000000000000000000REP       REP Justice, Supreme Court, Pl 6                        Jane Bland                            Precinct 6                                             01 
00160010001000057000037000014000006000000000000000000000000000000000000000000000000000000000000000000REP       REP Justice, Supreme Court, Pl 7                        Jeff Boyd                             Precinct 1                                             01 
00160010002000097000066000026000005000000000000000000000000000000000000000000000000000000000000000000REP       REP Justice, Supreme Court, Pl 7                        Jeff Boyd                             Precinct 2                                             01 
00160010003000117000057000052000008000000000000000000000000000000000000000000000000000000000000000000REP       REP Justice, Supreme Court, Pl 7                        Jeff Boyd                             Precinct 3                                             01 
00160010004000143000079000048000016000000000000000000000000000000000000000000000000000000000000000000REP       REP Justice, Supreme Court, Pl 7                        Jeff Boyd                             Precinct 4                                             01 
00160010005000016000016000000000000000000000000000000000000000000000000000000000000000000000000000000REP       REP Justice, Supreme Court, Pl 7                        Jeff Boyd                             Precinct 6                                             01 
00170010001000054000034000014000006000000000000000000000000000000000000000000000000000000000000000000REP       REP Justice, Supreme Court, Pl 8                        Brett Busby                           Precinct 1                                             01 
00170010002000099000067000026000006000000000000000000000000000000000000000000000000000000000000000000REP       REP Justice, Supreme Court, Pl 8                        Brett Busby                           Precinct 2                                             01 
00170010003000115000058000050000007000000000000000000000000000000000000000000000000000000000000000000REP       REP Justice, Supreme Court, Pl 8                        Brett Busby                           Precinct 3                                             01 
00170010004000141000076000048000017000000000000000000000000000000000000000000000000000000000000000000REP       REP Justice, Supreme Court, Pl 8                        Brett Busby                           Precinct 4                                             01 
00170010005000017000017000000000000000000000000000000000000000000000000000000000000000000000000000000REP       REP Justice, Supreme Court, Pl 8                        Brett Busby                           Precinct 6                                             01 
00180010001000037000021000011000005000000000000000000000000000000000000000000000000000000000000000000REP       REP Judge, Ct of Crim App, Pl 3                         Bert Richardson                       Precinct 1                                             01 
00180010002000068000047000018000003000000000000000000000000000000000000000000000000000000000000000000REP       REP Judge, Ct of Crim App, Pl 3                         Bert Richardson                       Precinct 2                                             01 
00180010003000073000032000034000007000000000000000000000000000000000000000000000000000000000000000000REP       REP Judge, Ct of Crim App, Pl 3                         Bert Richardson                       Precinct 3                                             01 
00180010004000096000053000028000015000000000000000000000000000000000000000000000000000000000000000000REP       REP Judge, Ct of Crim App, Pl 3                         Bert Richardson                       Precinct 4                                             01 
00180010005000011000011000000000000000000000000000000000000000000000000000000000000000000000000000000REP       REP Judge, Ct of Crim App, Pl 3                         Bert Richardson                       Precinct 6                                             01 
00180020001000017000014000002000001000000000000000000000000000000000000000000000000000000000000000000REP       REP Judge, Ct of Crim App, Pl 3                         Gina Parker                           Precinct 1                                             01 
00180020002000026000018000007000001000000000000000000000000000000000000000000000000000000000000000000REP       REP Judge, Ct of Crim App, Pl 3                         Gina Parker                           Precinct 2                                             01 
00180020003000041000023000016000002000000000000000000000000000000000000000000000000000000000000000000REP       REP Judge, Ct of Crim App, Pl 3                         Gina Parker                           Precinct 3                                             01 
00180020004000048000028000019000001000000000000000000000000000000000000000000000000000000000000000000REP       REP Judge, Ct of Crim App, Pl 3                         Gina Parker                           Precinct 4                                             01 
00180020005000007000007000000000000000000000000000000000000000000000000000000000000000000000000000000REP       REP Judge, Ct of Crim App, Pl 3                         Gina Parker                           Precinct 6                                             01 
00190010001000057000036000015000006000000000000000000000000000000000000000000000000000000000000000000REP       REP Judge, Ct of Crim App, Pl 4                         Kevin Patrick Yeary                   Precinct 1                                             01 
00190010002000096000066000025000005000000000000000000000000000000000000000000000000000000000000000000REP       REP Judge, Ct of Crim App, Pl 4                         Kevin Patrick Yeary                   Precinct 2                                             01 
00190010003000116000057000051000008000000000000000000000000000000000000000000000000000000000000000000REP       REP Judge, Ct of Crim App, Pl 4                         Kevin Patrick Yeary                   Precinct 3                                             01 
00190010004000143000077000048000018000000000000000000000000000000000000000000000000000000000000000000REP       REP Judge, Ct of Crim App, Pl 4                         Kevin Patrick Yeary                   Precinct 4                                             01 
00190010005000016000016000000000000000000000000000000000000000000000000000000000000000000000000000000REP       REP Judge, Ct of Crim App, Pl 4                         Kevin Patrick Yeary                   Precinct 6                                             01 
00200010001000057000036000015000006000000000000000000000000000000000000000000000000000000000000000000REP       REP Judge, Ct of Crim App, Pl 9                         David Newell                          Precinct 1                                             01 
00200010002000096000065000026000005000000000000000000000000000000000000000000000000000000000000000000REP       REP Judge, Ct of Crim App, Pl 9                         David Newell                          Precinct 2                                             01 
00200010003000113000054000051000008000000000000000000000000000000000000000000000000000000000000000000REP       REP Judge, Ct of Crim App, Pl 9                         David Newell                          Precinct 3                                             01 
00200010004000141000077000048000016000000000000000000000000000000000000000000000000000000000000000000REP       REP Judge, Ct of Crim App, Pl 9                         David Newell                          Precinct 4                                             01 
00200010005000017000017000000000000000000000000000000000000000000000000000000000000000000000000000000REP       REP Judge, Ct of Crim App, Pl 9                         David Newell                          Precinct 6                                             01 
00210010001000057000036000015000006000000000000000000000000000000000000000000000000000000000000000000REP       REP Member, State BoE, Dist 15                          Jay Johnson                           Precinct 1                                             01 
00210010002000097000066000026000005000000000000000000000000000000000000000000000000000000000000000000REP       REP Member, State BoE, Dist 15                          Jay Johnson                           Precinct 2                                             01 
00210010003000118000057000053000008000000000000000000000000000000000000000000000000000000000000000000REP       REP Member, State BoE, Dist 15                          Jay Johnson                           Precinct 3                                             01 
00210010004000141000078000048000015000000000000000000000000000000000000000000000000000000000000000000REP       REP Member, State BoE, Dist 15                          Jay Johnson                           Precinct 4                                             01 
00210010005000017000017000000000000000000000000000000000000000000000000000000000000000000000000000000REP       REP Member, State BoE, Dist 15                          Jay Johnson                           Precinct 6                                             01 
00220010001000059000038000015000006000000000000000000000000000000000000000000000000000000000000000000REP       REP State Representative, Dist 88                       Ken King                              Precinct 1                                             01 
00220010002000097000065000027000005000000000000000000000000000000000000000000000000000000000000000000REP       REP State Representative, Dist 88                       Ken King                              Precinct 2                                             01 
00220010003000116000056000052000008000000000000000000000000000000000000000000000000000000000000000000REP       REP State Representative, Dist 88                       Ken King                              Precinct 3                                             01 
00220010004000155000083000053000019000000000000000000000000000000000000000000000000000000000000000000REP       REP State Representative, Dist 88                       Ken King                              Precinct 4                                             01 
00220010005000017000017000000000000000000000000000000000000000000000000000000000000000000000000000000REP       REP State Representative, Dist 88                       Ken King                              Precinct 6                                             01 
00230010001000056000035000015000006000000000000000000000000000000000000000000000000000000000000000000REP       REP Chief Justice, 7th Ct of App Dist                   Brian Quinn                           Precinct 1                                             01 
00230010002000095000065000025000005000000000000000000000000000000000000000000000000000000000000000000REP       REP Chief Justice, 7th Ct of App Dist                   Brian Quinn                           Precinct 2                                             01 
00230010003000116000056000052000008000000000000000000000000000000000000000000000000000000000000000000REP       REP Chief Justice, 7th Ct of App Dist                   Brian Quinn                           Precinct 3                                             01 
00230010004000142000079000047000016000000000000000000000000000000000000000000000000000000000000000000REP       REP Chief Justice, 7th Ct of App Dist                   Brian Quinn                           Precinct 4                                             01 
00230010005000017000017000000000000000000000000000000000000000000000000000000000000000000000000000000REP       REP Chief Justice, 7th Ct of App Dist                   Brian Quinn                           Precinct 6                                             01 
00240010001000032000017000011000004000000000000000000000000000000000000000000000000000000000000000000REP       REP Justice, 7th Ct of App Dist, Pl 4                   Larry Doss                            Precinct 1                                             01 
00240010002000055000036000015000004000000000000000000000000000000000000000000000000000000000000000000REP       REP Justice, 7th Ct of App Dist, Pl 4                   Larry Doss                            Precinct 2                                             01 
00240010003000070000032000031000007000000000000000000000000000000000000000000000000000000000000000000REP       REP Justice, 7th Ct of App Dist, Pl 4                   Larry Doss                            Precinct 3                                             01 
00240010004000081000039000031000011000000000000000000000000000000000000000000000000000000000000000000REP       REP Justice, 7th Ct of App Dist, Pl 4                   Larry Doss                            Precinct 4                                             01 
00240010005000013000013000000000000000000000000000000000000000000000000000000000000000000000000000000REP       REP Justice, 7th Ct of App Dist, Pl 4                   Larry Doss                            Precinct 6                                             01 
00240020001000020000015000003000002000000000000000000000000000000000000000000000000000000000000000000REP       REP Justice, 7th Ct of App Dist, Pl 4                   Steven Denny                          Precinct 1                                             01 
00240020002000033000022000010000001000000000000000000000000000000000000000000000000000000000000000000REP       REP Justice, 7th Ct of App Dist, Pl 4                   Steven Denny                          Precinct 2                                             01 
00240020003000042000022000019000001000000000000000000000000000000000000000000000000000000000000000000REP       REP Justice, 7th Ct of App Dist, Pl 4                   Steven Denny                          Precinct 3                                             01 
00240020004000057000039000014000004000000000000000000000000000000000000000000000000000000000000000000REP       REP Justice, 7th Ct of App Dist, Pl 4                   Steven Denny                          Precinct 4                                             01 
00240020005000005000005000000000000000000000000000000000000000000000000000000000000000000000000000000REP       REP Justice, 7th Ct of App Dist, Pl 4                   Steven Denny                          Precinct 6                                             01 
00250010001000060000038000016000006000000000000000000000000000000000000000000000000000000000000000000REP       REP Dist Attorney, 110th Judicial Dist                  Wade Jackson                          Precinct 1                                             01 
00250010002000096000065000026000005000000000000000000000000000000000000000000000000000000000000000000REP       REP Dist Attorney, 110th Judicial Dist                  Wade Jackson                          Precinct 2                                             01 
00250010003000117000057000052000008000000000000000000000000000000000000000000000000000000000000000000REP       REP Dist Attorney, 110th Judicial Dist                  Wade Jackson                          Precinct 3                                             01 
00250010004000145000080000049000016000000000000000000000000000000000000000000000000000000000000000000REP       REP Dist Attorney, 110th Judicial Dist                  Wade Jackson                          Precinct 4                                             01 
00250010005000017000017000000000000000000000000000000000000000000000000000000000000000000000000000000REP       REP Dist Attorney, 110th Judicial Dist                  Wade Jackson                          Precinct 6                                             01 
00260010001000063000039000018000006000000000000000000000000000000000000000000000000000000000000000000REP       REP County Attorney                                     Emily Teegardin                       Precinct 1                                             01 
00260010002000104000071000027000006000000000000000000000000000000000000000000000000000000000000000000REP       REP County Attorney                                     Emily Teegardin                       Precinct 2                                             01 
00260010003000121000060000053000008000000000000000000000000000000000000000000000000000000000000000000REP       REP County Attorney                                     Emily Teegardin                       Precinct 3                                             01 
00260010004000155000083000051000021000000000000000000000000000000000000000000000000000000000000000000REP       REP County Attorney                                     Emily Teegardin                       Precinct 4                                             01 
00260010005000022000022000000000000000000000000000000000000000000000000000000000000000000000000000000REP       REP County Attorney                                     Emily Teegardin                       Precinct 6                                             01 
00270010001000054000036000013000005000000000000000000000000000000000000000000000000000000000000000000REP       REP Sheriff                                             Garrett Davis                         Precinct 1                                             01 
00270010002000048000034000012000002000000000000000000000000000000000000000000000000000000000000000000REP       REP Sheriff                                             Garrett Davis                         Precinct 2                                             01 
00270010003000107000053000044000010000000000000000000000000000000000000000000000000000000000000000000REP       REP Sheriff                                             Garrett Davis                         Precinct 3                                             01 
00270010004000137000069000050000018000000000000000000000000000000000000000000000000000000000000000000REP       REP Sheriff                                             Garrett Davis                         Precinct 4                                             01 
00270010005000012000012000000000000000000000000000000000000000000000000000000000000000000000000000000REP       REP Sheriff                                             Garrett Davis                         Precinct 6                                             01 
00270020001000019000012000006000001000000000000000000000000000000000000000000000000000000000000000000REP       REP Sheriff                                             Bruce Tiffin                          Precinct 1                                             01 
00270020002000061000043000015000003000000000000000000000000000000000000000000000000000000000000000000REP       REP Sheriff                                             Bruce Tiffin                          Precinct 2                                             01 
00270020003000027000014000013000000000000000000000000000000000000000000000000000000000000000000000000REP       REP Sheriff                                             Bruce Tiffin                          Precinct 3                                             01 
00270020004000033000023000006000004000000000000000000000000000000000000000000000000000000000000000000REP       REP Sheriff                                             Bruce Tiffin                          Precinct 4                                             01 
00270020005000011000011000000000000000000000000000000000000000000000000000000000000000000000000000000REP       REP Sheriff                                             Bruce Tiffin                          Precinct 6                                             01 
00280010001000068000043000019000006000000000000000000000000000000000000000000000000000000000000000000REP       REP County Tax Assessor-Collector                       Jon Etta Ziegler                      Precinct 1                                             01 
00280010002000104000071000027000006000000000000000000000000000000000000000000000000000000000000000000REP       REP County Tax Assessor-Collector                       Jon Etta Ziegler                      Precinct 2                                             01 
00280010003000129000065000055000009000000000000000000000000000000000000000000000000000000000000000000REP       REP County Tax Assessor-Collector                       Jon Etta Ziegler                      Precinct 3                                             01 
00280010004000158000086000051000021000000000000000000000000000000000000000000000000000000000000000000REP       REP County Tax Assessor-Collector                       Jon Etta Ziegler                      Precinct 4                                             01 
00280010005000021000021000000000000000000000000000000000000000000000000000000000000000000000000000000REP       REP County Tax Assessor-Collector                       Jon Etta Ziegler                      Precinct 6                                             01 
00290010001000058000036000017000005000000000000000000000000000000000000000000000000000000000000000000REPCOM001 REP County Commissioner Pct 1                           Ken Wood                              Precinct 1                    Precinct 1               01 
00290010005000020000020000000000000000000000000000000000000000000000000000000000000000000000000000000REPCOM001 REP County Commissioner Pct 1                           Ken Wood                              Precinct 6                    Precinct 1               01 
00300010003000125000062000054000009000000000000000000000000000000000000000000000000000000000000000000REPCOM003 REP County Commissioner Pct 3                           Danny Francis                         Precinct 3                    Precinct 3               01 
00310010001000061000037000018000006000000000000000000000000000000000000000000000000000000000000000000REP       REP Proposition 1                                       Yes                                   Precinct 1                                             01Y
00310010002000092000063000024000005000000000000000000000000000000000000000000000000000000000000000000REP       REP Proposition 1                                       Yes                                   Precinct 2                                             01Y
00310010003000111000054000050000007000000000000000000000000000000000000000000000000000000000000000000REP       REP Proposition 1                                       Yes                                   Precinct 3                                             01Y
00310010004000142000078000046000018000000000000000000000000000000000000000000000000000000000000000000REP       REP Proposition 1                                       Yes                                   Precinct 4                                             01Y
00310010005000018000018000000000000000000000000000000000000000000000000000000000000000000000000000000REP       REP Proposition 1                                       Yes                                   Precinct 6                                             01Y
00310020001000010000010000000000000000000000000000000000000000000000000000000000000000000000000000000REP       REP Proposition 1                                       No                                    Precinct 1                                             01Y
00310020002000017000012000004000001000000000000000000000000000000000000000000000000000000000000000000REP       REP Proposition 1                                       No                                    Precinct 2                                             01Y
00310020003000019000010000006000003000000000000000000000000000000000000000000000000000000000000000000REP       REP Proposition 1                                       No                                    Precinct 3                                             01Y
00310020004000026000014000008000004000000000000000000000000000000000000000000000000000000000000000000REP       REP Proposition 1                                       No                                    Precinct 4                                             01Y
00310020005000002000002000000000000000000000000000000000000000000000000000000000000000000000000000000REP       REP Proposition 1                                       No                                    Precinct 6                                             01Y
00320010001000056000034000016000006000000000000000000000000000000000000000000000000000000000000000000REP       REP Proposition 2                                       Yes                                   Precinct 1                                             01Y
00320010002000087000059000022000006000000000000000000000000000000000000000000000000000000000000000000REP       REP Proposition 2                                       Yes                                   Precinct 2                                             01Y
00320010003000111000054000047000010000000000000000000000000000000000000000000000000000000000000000000REP       REP Proposition 2                                       Yes                                   Precinct 3                                             01Y
00320010004000137000073000044000020000000000000000000000000000000000000000000000000000000000000000000REP       REP Proposition 2                                       Yes                                   Precinct 4                                             01Y
00320010005000016000016000000000000000000000000000000000000000000000000000000000000000000000000000000REP       REP Proposition 2                                       Yes                                   Precinct 6                                             01Y
00320020001000016000014000002000000000000000000000000000000000000000000000000000000000000000000000000REP       REP Proposition 2                                       No                                    Precinct 1                                             01Y
00320020002000024000018000006000000000000000000000000000000000000000000000000000000000000000000000000REP       REP Proposition 2                                       No                                    Precinct 2                                             01Y
00320020003000017000008000009000000000000000000000000000000000000000000000000000000000000000000000000REP       REP Proposition 2                                       No                                    Precinct 3                                             01Y
00320020004000031000019000010000002000000000000000000000000000000000000000000000000000000000000000000REP       REP Proposition 2                                       No                                    Precinct 4                                             01Y
00320020005000005000005000000000000000000000000000000000000000000000000000000000000000000000000000000REP       REP Proposition 2                                       No                                    Precinct 6                                             01Y
00330010001000062000038000018000006000000000000000000000000000000000000000000000000000000000000000000REP       REP Proposition 3                                       Yes                                   Precinct 1                                             01Y
00330010002000098000065000027000006000000000000000000000000000000000000000000000000000000000000000000REP       REP Proposition 3                                       Yes                                   Precinct 2                                             01Y
00330010003000112000056000046000010000000000000000000000000000000000000000000000000000000000000000000REP       REP Proposition 3                                       Yes                                   Precinct 3                                             01Y
00330010004000154000080000052000022000000000000000000000000000000000000000000000000000000000000000000REP       REP Proposition 3                                       Yes                                   Precinct 4                                             01Y
00330010005000018000018000000000000000000000000000000000000000000000000000000000000000000000000000000REP       REP Proposition 3                                       Yes                                   Precinct 6                                             01Y
00330020001000007000007000000000000000000000000000000000000000000000000000000000000000000000000000000REP       REP Proposition 3                                       No                                    Precinct 1                                             01Y
00330020002000010000009000001000000000000000000000000000000000000000000000000000000000000000000000000REP       REP Proposition 3                                       No                                    Precinct 2                                             01Y
00330020003000014000006000008000000000000000000000000000000000000000000000000000000000000000000000000REP       REP Proposition 3                                       No                                    Precinct 3                                             01Y
00330020004000012000009000003000000000000000000000000000000000000000000000000000000000000000000000000REP       REP Proposition 3                                       No                                    Precinct 4                                             01Y
00330020005000003000003000000000000000000000000000000000000000000000000000000000000000000000000000000REP       REP Proposition 3                                       No                                    Precinct 6                                             01Y
00340010001000064000041000017000006000000000000000000000000000000000000000000000000000000000000000000REP       REP Proposition 4                                       Yes                                   Precinct 1                                             01Y
00340010002000100000068000026000006000000000000000000000000000000000000000000000000000000000000000000REP       REP Proposition 4                                       Yes                                   Precinct 2                                             01Y
00340010003000115000053000054000008000000000000000000000000000000000000000000000000000000000000000000REP       REP Proposition 4                                       Yes                                   Precinct 3                                             01Y
00340010004000157000085000051000021000000000000000000000000000000000000000000000000000000000000000000REP       REP Proposition 4                                       Yes                                   Precinct 4                                             01Y
00340010005000017000017000000000000000000000000000000000000000000000000000000000000000000000000000000REP       REP Proposition 4                                       Yes                                   Precinct 6                                             01Y
00340020001000007000006000001000000000000000000000000000000000000000000000000000000000000000000000000REP       REP Proposition 4                                       No                                    Precinct 1                                             01Y
00340020002000009000007000002000000000000000000000000000000000000000000000000000000000000000000000000REP       REP Proposition 4                                       No                                    Precinct 2                                             01Y
00340020003000014000010000002000002000000000000000000000000000000000000000000000000000000000000000000REP       REP Proposition 4                                       No                                    Precinct 3                                             01Y
00340020004000010000007000003000000000000000000000000000000000000000000000000000000000000000000000000REP       REP Proposition 4                                       No                                    Precinct 4                                             01Y
00340020005000003000003000000000000000000000000000000000000000000000000000000000000000000000000000000REP       REP Proposition 4                                       No                                    Precinct 6                                             01Y
00350010001000066000043000017000006000000000000000000000000000000000000000000000000000000000000000000REP       REP Proposition 5                                       Yes                                   Precinct 1                                             01Y
00350010002000103000072000025000006000000000000000000000000000000000000000000000000000000000000000000REP       REP Proposition 5                                       Yes                                   Precinct 2                                             01Y
00350010003000115000057000052000006000000000000000000000000000000000000000000000000000000000000000000REP       REP Proposition 5                                       Yes                                   Precinct 3                                             01Y
00350010004000151000086000048000017000000000000000000000000000000000000000000000000000000000000000000REP       REP Proposition 5                                       Yes                                   Precinct 4                                             01Y
00350010005000019000019000000000000000000000000000000000000000000000000000000000000000000000000000000REP       REP Proposition 5                                       Yes                                   Precinct 6                                             01Y
00350020001000005000004000001000000000000000000000000000000000000000000000000000000000000000000000000REP       REP Proposition 5                                       No                                    Precinct 1                                             01Y
00350020002000006000003000003000000000000000000000000000000000000000000000000000000000000000000000000REP       REP Proposition 5                                       No                                    Precinct 2                                             01Y
00350020003000011000003000004000004000000000000000000000000000000000000000000000000000000000000000000REP       REP Proposition 5                                       No                                    Precinct 3                                             01Y
00350020004000013000004000007000002000000000000000000000000000000000000000000000000000000000000000000REP       REP Proposition 5                                       No                                    Precinct 4                                             01Y
00350020005000002000002000000000000000000000000000000000000000000000000000000000000000000000000000000REP       REP Proposition 5                                       No                                    Precinct 6                                             01Y
00360010001000064000042000016000006000000000000000000000000000000000000000000000000000000000000000000REP       REP Proposition 6                                       Yes                                   Precinct 1                                             01Y
00360010002000102000070000026000006000000000000000000000000000000000000000000000000000000000000000000REP       REP Proposition 6                                       Yes                                   Precinct 2                                             01Y
00360010003000116000056000050000010000000000000000000000000000000000000000000000000000000000000000000REP       REP Proposition 6                                       Yes                                   Precinct 3                                             01Y
00360010004000160000089000050000021000000000000000000000000000000000000000000000000000000000000000000REP       REP Proposition 6                                       Yes                                   Precinct 4                                             01Y
00360010005000019000019000000000000000000000000000000000000000000000000000000000000000000000000000000REP       REP Proposition 6                                       Yes                                   Precinct 6                                             01Y
00360020001000004000003000001000000000000000000000000000000000000000000000000000000000000000000000000REP       REP Proposition 6                                       No                                    Precinct 1                                             01Y
00360020002000007000005000002000000000000000000000000000000000000000000000000000000000000000000000000REP       REP Proposition 6                                       No                                    Precinct 2                                             01Y
00360020003000013000006000007000000000000000000000000000000000000000000000000000000000000000000000000REP       REP Proposition 6                                       No                                    Precinct 3                                             01Y
00360020004000006000001000005000000000000000000000000000000000000000000000000000000000000000000000000REP       REP Proposition 6                                       No                                    Precinct 4                                             01Y
00360020005000000000000000000000000000000000000000000000000000000000000000000000000000000000000000000REP       REP Proposition 6                                       No                                    Precinct 6                                             01Y
00370010001000068000046000016000006000000000000000000000000000000000000000000000000000000000000000000REP       REP Proposition 7                                       Yes                                   Precinct 1                                             01Y
00370010002000109000076000027000006000000000000000000000000000000000000000000000000000000000000000000REP       REP Proposition 7                                       Yes                                   Precinct 2                                             01Y
00370010003000124000059000055000010000000000000000000000000000000000000000000000000000000000000000000REP       REP Proposition 7                                       Yes                                   Precinct 3                                             01Y
00370010004000159000088000051000020000000000000000000000000000000000000000000000000000000000000000000REP       REP Proposition 7                                       Yes                                   Precinct 4                                             01Y
00370010005000018000018000000000000000000000000000000000000000000000000000000000000000000000000000000REP       REP Proposition 7                                       Yes                                   Precinct 6                                             01Y
00370020001000002000000000002000000000000000000000000000000000000000000000000000000000000000000000000REP       REP Proposition 7                                       No                                    Precinct 1                                             01Y
00370020002000000000000000000000000000000000000000000000000000000000000000000000000000000000000000000REP       REP Proposition 7                                       No                                    Precinct 2                                             01Y
00370020003000005000004000001000000000000000000000000000000000000000000000000000000000000000000000000REP       REP Proposition 7                                       No                                    Precinct 3                                             01Y
00370020004000005000002000003000000000000000000000000000000000000000000000000000000000000000000000000REP       REP Proposition 7                                       No                                    Precinct 4                                             01Y
00370020005000002000002000000000000000000000000000000000000000000000000000000000000000000000000000000REP       REP Proposition 7                                       No                                    Precinct 6                                             01Y
00380010001000065000042000017000006000000000000000000000000000000000000000000000000000000000000000000REP       REP Proposition 8                                       Yes                                   Precinct 1                                             01Y
00380010002000108000075000027000006000000000000000000000000000000000000000000000000000000000000000000REP       REP Proposition 8                                       Yes                                   Precinct 2                                             01Y
00380010003000122000058000054000010000000000000000000000000000000000000000000000000000000000000000000REP       REP Proposition 8                                       Yes                                   Precinct 3                                             01Y
00380010004000161000088000052000021000000000000000000000000000000000000000000000000000000000000000000REP       REP Proposition 8                                       Yes                                   Precinct 4                                             01Y
00380010005000020000020000000000000000000000000000000000000000000000000000000000000000000000000000000REP       REP Proposition 8                                       Yes                                   Precinct 6                                             01Y
00380020001000001000001000000000000000000000000000000000000000000000000000000000000000000000000000000REP       REP Proposition 8                                       No                                    Precinct 1                                             01Y
00380020002000000000000000000000000000000000000000000000000000000000000000000000000000000000000000000REP       REP Proposition 8                                       No                                    Precinct 2                                             01Y
00380020003000004000002000002000000000000000000000000000000000000000000000000000000000000000000000000REP       REP Proposition 8                                       No                                    Precinct 3                                             01Y
00380020004000002000001000001000000000000000000000000000000000000000000000000000000000000000000000000REP       REP Proposition 8                                       No                                    Precinct 4                                             01Y
00380020005000000000000000000000000000000000000000000000000000000000000000000000000000000000000000000REP       REP Proposition 8                                       No                                    Precinct 6                                             01Y
00390010001000064000040000018000006000000000000000000000000000000000000000000000000000000000000000000REP       REP Proposition 9                                       Yes                                   Precinct 1                                             01Y
00390010002000107000075000026000006000000000000000000000000000000000000000000000000000000000000000000REP       REP Proposition 9                                       Yes                                   Precinct 2                                             01Y
00390010003000112000057000046000009000000000000000000000000000000000000000000000000000000000000000000REP       REP Proposition 9                                       Yes                                   Precinct 3                                             01Y
00390010004000159000089000051000019000000000000000000000000000000000000000000000000000000000000000000REP       REP Proposition 9                                       Yes                                   Precinct 4                                             01Y
00390010005000018000018000000000000000000000000000000000000000000000000000000000000000000000000000000REP       REP Proposition 9                                       Yes                                   Precinct 6                                             01Y
00390020001000006000005000001000000000000000000000000000000000000000000000000000000000000000000000000REP       REP Proposition 9                                       No                                    Precinct 1                                             01Y
00390020002000002000001000001000000000000000000000000000000000000000000000000000000000000000000000000REP       REP Proposition 9                                       No                                    Precinct 2                                             01Y
00390020003000015000004000010000001000000000000000000000000000000000000000000000000000000000000000000REP       REP Proposition 9                                       No                                    Precinct 3                                             01Y
00390020004000006000002000003000001000000000000000000000000000000000000000000000000000000000000000000REP       REP Proposition 9                                       No                                    Precinct 4                                             01Y
