00010010001000369          REGISTERED VOTERS - TOTAL                               REGISTERED VOTERS - TOTAL             PRECINCT 1                                             00 
00010010002000073          REGISTERED VOTERS - TOTAL                               REGISTERED VOTERS - TOTAL             PRECINCT 2                                             00 
00010010003000029          REGISTERED VOTERS - TOTAL                               REGISTERED VOTERS - TOTAL             PRECINCT 3                                             00 
00010010004000038          REGISTERED VOTERS - TOTAL                               REGISTERED VOTERS - TOTAL             PRECINCT 4                                             00 
00010010005000033          REGISTERED VOTERS - TOTAL                               REGISTERED VOTERS - TOTAL             PRECINCT 5                                             00 
00010010006000379          REGISTERED VOTERS - TOTAL                               REGISTERED VOTERS - TOTAL             PRECINCT 6                                             00 
00010010007000597          REGISTERED VOTERS - TOTAL                               REGISTERED VOTERS - TOTAL             PRECINCT 7                                             00 
00010010008000821          REGISTERED VOTERS - TOTAL                               REGISTERED VOTERS - TOTAL             PRECINCT 8                                             00 
00010010009000662          REGISTERED VOTERS - TOTAL                               REGISTERED VOTERS - TOTAL             PRECINCT 9                                             00 
00020010001000369NON       REGISTERED VOTERS - NONPARTISAN                         REGISTERED VOTERS - NONPARTISAN       PRECINCT 1                                             00 
00020010002000073NON       REGISTERED VOTERS - NONPARTISAN                         REGISTERED VOTERS - NONPARTISAN       PRECINCT 2                                             00 
00020010003000029NON       REGISTERED VOTERS - NONPARTISAN                         REGISTERED VOTERS - NONPARTISAN       PRECINCT 3                                             00 
00020010004000038NON       REGISTERED VOTERS - NONPARTISAN                         REGISTERED VOTERS - NONPARTISAN       PRECINCT 4                                             00 
00020010005000033NON       REGISTERED VOTERS - NONPARTISAN                         REGISTERED VOTERS - NONPARTISAN       PRECINCT 5                                             00 
00020010006000379NON       REGISTERED VOTERS - NONPARTISAN                         REGISTERED VOTERS - NONPARTISAN       PRECINCT 6                                             00 
00020010007000597NON       REGISTERED VOTERS - NONPARTISAN                         REGISTERED VOTERS - NONPARTISAN       PRECINCT 7                                             00 
00020010008000821NON       REGISTERED VOTERS - NONPARTISAN                         REGISTERED VOTERS - NONPARTISAN       PRECINCT 8                                             00 
00020010009000662NON       REGISTERED VOTERS - NONPARTISAN                         REGISTERED VOTERS - NONPARTISAN       PRECINCT 9                                             00 
00030010001000000REP       REGISTERED VOTERS - Republican Party                    REGISTERED VOTERS - Republican Party  PRECINCT 1                                             00 
00030010002000000REP       REGISTERED VOTERS - Republican Party                    REGISTERED VOTERS - Republican Party  PRECINCT 2                                             00 
00030010003000000REP       REGISTERED VOTERS - Republican Party                    REGISTERED VOTERS - Republican Party  PRECINCT 3                                             00 
00030010004000000REP       REGISTERED VOTERS - Republican Party                    REGISTERED VOTERS - Republican Party  PRECINCT 4                                             00 
00030010005000000REP       REGISTERED VOTERS - Republican Party                    REGISTERED VOTERS - Republican Party  PRECINCT 5                                             00 
00030010006000000REP       REGISTERED VOTERS - Republican Party                    REGISTERED VOTERS - Republican Party  PRECINCT 6                                             00 
00030010007000000REP       REGISTERED VOTERS - Republican Party                    REGISTERED VOTERS - Republican Party  PRECINCT 7                                             00 
00030010008000000REP       REGISTERED VOTERS - Republican Party                    REGISTERED VOTERS - Republican Party  PRECINCT 8                                             00 
00030010009000000REP       REGISTERED VOTERS - Republican Party                    REGISTERED VOTERS - Republican Party  PRECINCT 9                                             00 
00040010001000000DEM       REGISTERED VOTERS - Democratic Party                    REGISTERED VOTERS - Democratic Party  PRECINCT 1                                             00 
00040010002000000DEM       REGISTERED VOTERS - Democratic Party                    REGISTERED VOTERS - Democratic Party  PRECINCT 2                                             00 
00040010003000000DEM       REGISTERED VOTERS - Democratic Party                    REGISTERED VOTERS - Democratic Party  PRECINCT 3                                             00 
00040010004000000DEM       REGISTERED VOTERS - Democratic Party                    REGISTERED VOTERS - Democratic Party  PRECINCT 4                                             00 
00040010005000000DEM       REGISTERED VOTERS - Democratic Party                    REGISTERED VOTERS - Democratic Party  PRECINCT 5                                             00 
00040010006000000DEM       REGISTERED VOTERS - Democratic Party                    REGISTERED VOTERS - Democratic Party  PRECINCT 6                                             00 
00040010007000000DEM       REGISTERED VOTERS - Democratic Party                    REGISTERED VOTERS - Democratic Party  PRECINCT 7                                             00 
00040010008000000DEM       REGISTERED VOTERS - Democratic Party                    REGISTERED VOTERS - Democratic Party  PRECINCT 8                                             00 
00040010009000000DEM       REGISTERED VOTERS - Democratic Party                    REGISTERED VOTERS - Democratic Party  PRECINCT 9                                             00 
00050010001000139          BALLOTS CAST - TOTAL                                    BALLOTS CAST - TOTAL                  PRECINCT 1                                             00 
00050010002000036          BALLOTS CAST - TOTAL                                    BALLOTS CAST - TOTAL                  PRECINCT 2                                             00 
00050010003000015          BALLOTS CAST - TOTAL                                    BALLOTS CAST - TOTAL                  PRECINCT 3                                             00 
00050010004000011          BALLOTS CAST - TOTAL                                    BALLOTS CAST - TOTAL                  PRECINCT 4                                             00 
00050010005000010          BALLOTS CAST - TOTAL                                    BALLOTS CAST - TOTAL                  PRECINCT 5                                             00 
00050010006000105          BALLOTS CAST - TOTAL                                    BALLOTS CAST - TOTAL                  PRECINCT 6                                             00 
00050010007000152          BALLOTS CAST - TOTAL                                    BALLOTS CAST - TOTAL                  PRECINCT 7                                             00 
00050010008000249          BALLOTS CAST - TOTAL                                    BALLOTS CAST - TOTAL                  PRECINCT 8                                             00 
00050010009000173          BALLOTS CAST - TOTAL                                    BALLOTS CAST - TOTAL                  PRECINCT 9                                             00 
00060010001000000NON       BALLOTS CAST - NONPARTISAN                              BALLOTS CAST - NONPARTISAN            PRECINCT 1                                             00 
00060010002000000NON       BALLOTS CAST - NONPARTISAN                              BALLOTS CAST - NONPARTISAN            PRECINCT 2                                             00 
00060010003000000NON       BALLOTS CAST - NONPARTISAN                              BALLOTS CAST - NONPARTISAN            PRECINCT 3                                             00 
00060010004000000NON       BALLOTS CAST - NONPARTISAN                              BALLOTS CAST - NONPARTISAN            PRECINCT 4                                             00 
00060010005000000NON       BALLOTS CAST - NONPARTISAN                              BALLOTS CAST - NONPARTISAN            PRECINCT 5                                             00 
00060010006000000NON       BALLOTS CAST - NONPARTISAN                              BALLOTS CAST - NONPARTISAN            PRECINCT 6                                             00 
00060010007000000NON       BALLOTS CAST - NONPARTISAN                              BALLOTS CAST - NONPARTISAN            PRECINCT 7                                             00 
00060010008000000NON       BALLOTS CAST - NONPARTISAN                              BALLOTS CAST - NONPARTISAN            PRECINCT 8                                             00 
00060010009000000NON       BALLOTS CAST - NONPARTISAN                              BALLOTS CAST - NONPARTISAN            PRECINCT 9                                             00 
00070010001000136REP       BALLOTS CAST - Republican Party                         BALLOTS CAST - Republican Party       PRECINCT 1                                             00 
00070010002000036REP       BALLOTS CAST - Republican Party                         BALLOTS CAST - Republican Party       PRECINCT 2                                             00 
00070010003000015REP       BALLOTS CAST - Republican Party                         BALLOTS CAST - Republican Party       PRECINCT 3                                             00 
00070010004000011REP       BALLOTS CAST - Republican Party                         BALLOTS CAST - Republican Party       PRECINCT 4                                             00 
00070010005000008REP       BALLOTS CAST - Republican Party                         BALLOTS CAST - Republican Party       PRECINCT 5                                             00 
00070010006000098REP       BALLOTS CAST - Republican Party                         BALLOTS CAST - Republican Party       PRECINCT 6                                             00 
00070010007000135REP       BALLOTS CAST - Republican Party                         BALLOTS CAST - Republican Party       PRECINCT 7                                             00 
00070010008000227REP       BALLOTS CAST - Republican Party                         BALLOTS CAST - Republican Party       PRECINCT 8                                             00 
00070010009000157REP       BALLOTS CAST - Republican Party                         BALLOTS CAST - Republican Party       PRECINCT 9                                             00 
00080010001000003DEM       BALLOTS CAST - Democratic Party                         BALLOTS CAST - Democratic Party       PRECINCT 1                                             00 
00080010002000000DEM       BALLOTS CAST - Democratic Party                         BALLOTS CAST - Democratic Party       PRECINCT 2                                             00 
00080010003000000DEM       BALLOTS CAST - Democratic Party                         BALLOTS CAST - Democratic Party       PRECINCT 3                                             00 
00080010004000000DEM       BALLOTS CAST - Democratic Party                         BALLOTS CAST - Democratic Party       PRECINCT 4                                             00 
00080010005000002DEM       BALLOTS CAST - Democratic Party                         BALLOTS CAST - Democratic Party       PRECINCT 5                                             00 
00080010006000007DEM       BALLOTS CAST - Democratic Party                         BALLOTS CAST - Democratic Party       PRECINCT 6                                             00 
00080010007000017DEM       BALLOTS CAST - Democratic Party                         BALLOTS CAST - Democratic Party       PRECINCT 7                                             00 
00080010008000022DEM       BALLOTS CAST - Democratic Party                         BALLOTS CAST - Democratic Party       PRECINCT 8                                             00 
00080010009000016DEM       BALLOTS CAST - Democratic Party                         BALLOTS CAST - Democratic Party       PRECINCT 9                                             00 
00090010001000000          BALLOTS CAST - BLANK                                    BALLOTS CAST - BLANK                  PRECINCT 1                                             00 
00090010002000000          BALLOTS CAST - BLANK                                    BALLOTS CAST - BLANK                  PRECINCT 2                                             00 
00090010003000000          BALLOTS CAST - BLANK                                    BALLOTS CAST - BLANK                  PRECINCT 3                                             00 
00090010004000000          BALLOTS CAST - BLANK                                    BALLOTS CAST - BLANK                  PRECINCT 4                                             00 
00090010005000000          BALLOTS CAST - BLANK                                    BALLOTS CAST - BLANK                  PRECINCT 5                                             00 
00090010006000000          BALLOTS CAST - BLANK                                    BALLOTS CAST - BLANK                  PRECINCT 6                                             00 
00090010007000000          BALLOTS CAST - BLANK                                    BALLOTS CAST - BLANK                  PRECINCT 7                                             00 
00090010008000000          BALLOTS CAST - BLANK                                    BALLOTS CAST - BLANK                  PRECINCT 8                                             00 
00090010009000000          BALLOTS CAST - BLANK                                    BALLOTS CAST - BLANK                  PRECINCT 9                                             00 
00100010001000001REP       REP President                                           Joe Walsh                             PRECINCT 1                                             01 
00100010002000000REP       REP President                                           Joe Walsh                             PRECINCT 2                                             01 
00100010003000000REP       REP President                                           Joe Walsh                             PRECINCT 3                                             01 
00100010004000000REP       REP President                                           Joe Walsh                             PRECINCT 4                                             01 
00100010005000000REP       REP President                                           Joe Walsh                             PRECINCT 5                                             01 
00100010006000001REP       REP President                                           Joe Walsh                             PRECINCT 6                                             01 
00100010007000001REP       REP President                                           Joe Walsh                             PRECINCT 7                                             01 
00100010008000000REP       REP President                                           Joe Walsh                             PRECINCT 8                                             01 
00100010009000002REP       REP President                                           Joe Walsh                             PRECINCT 9                                             01 
00100020001000000REP       REP President                                           Zoltan G. Istvan                      PRECINCT 1                                             01 
00100020002000000REP       REP President                                           Zoltan G. Istvan                      PRECINCT 2                                             01 
00100020003000000REP       REP President                                           Zoltan G. Istvan                      PRECINCT 3                                             01 
00100020004000000REP       REP President                                           Zoltan G. Istvan                      PRECINCT 4                                             01 
00100020005000000REP       REP President                                           Zoltan G. Istvan                      PRECINCT 5                                             01 
00100020006000000REP       REP President                                           Zoltan G. Istvan                      PRECINCT 6                                             01 
00100020007000000REP       REP President                                           Zoltan G. Istvan                      PRECINCT 7                                             01 
00100020008000000REP       REP President                                           Zoltan G. Istvan                      PRECINCT 8                                             01 
00100020009000000REP       REP President                                           Zoltan G. Istvan                      PRECINCT 9                                             01 
00100030001000001REP       REP President                                           Bill Weld                             PRECINCT 1                                             01 
00100030002000000REP       REP President                                           Bill Weld                             PRECINCT 2                                             01 
00100030003000000REP       REP President                                           Bill Weld                             PRECINCT 3                                             01 
00100030004000000REP       REP President                                           Bill Weld                             PRECINCT 4                                             01 
00100030005000000REP       REP President                                           Bill Weld                             PRECINCT 5                                             01 
00100030006000000REP       REP President                                           Bill Weld                             PRECINCT 6                                             01 
00100030007000000REP       REP President                                           Bill Weld                             PRECINCT 7                                             01 
00100030008000001REP       REP President                                           Bill Weld                             PRECINCT 8                                             01 
00100030009000001REP       REP President                                           Bill Weld                             PRECINCT 9                                             01 
00100040001000000REP       REP President                                           Matthew John Matern                   PRECINCT 1                                             01 
00100040002000000REP       REP President                                           Matthew John Matern                   PRECINCT 2                                             01 
00100040003000000REP       REP President                                           Matthew John Matern                   PRECINCT 3                                             01 
00100040004000000REP       REP President                                           Matthew John Matern                   PRECINCT 4                                             01 
00100040005000000REP       REP President                                           Matthew John Matern                   PRECINCT 5                                             01 
00100040006000000REP       REP President                                           Matthew John Matern                   PRECINCT 6                                             01 
00100040007000000REP       REP President                                           Matthew John Matern                   PRECINCT 7                                             01 
00100040008000002REP       REP President                                           Matthew John Matern                   PRECINCT 8                                             01 
00100040009000000REP       REP President                                           Matthew John Matern                   PRECINCT 9                                             01 
00100050001000000REP       REP President                                           Bob Ely                               PRECINCT 1                                             01 
00100050002000000REP       REP President                                           Bob Ely                               PRECINCT 2                                             01 
00100050003000000REP       REP President                                           Bob Ely                               PRECINCT 3                                             01 
00100050004000000REP       REP President                                           Bob Ely                               PRECINCT 4                                             01 
00100050005000000REP       REP President                                           Bob Ely                               PRECINCT 5                                             01 
00100050006000000REP       REP President                                           Bob Ely                               PRECINCT 6                                             01 
00100050007000000REP       REP President                                           Bob Ely                               PRECINCT 7                                             01 
00100050008000001REP       REP President                                           Bob Ely                               PRECINCT 8                                             01 
00100050009000000REP       REP President                                           Bob Ely                               PRECINCT 9                                             01 
00100060001000125REP       REP President                                           Donald J. Trump                       PRECINCT 1                                             01 
00100060002000034REP       REP President                                           Donald J. Trump                       PRECINCT 2                                             01 
00100060003000015REP       REP President                                           Donald J. Trump                       PRECINCT 3                                             01 
00100060004000011REP       REP President                                           Donald J. Trump                       PRECINCT 4                                             01 
00100060005000008REP       REP President                                           Donald J. Trump                       PRECINCT 5                                             01 
00100060006000095REP       REP President                                           Donald J. Trump                       PRECINCT 6                                             01 
00100060007000128REP       REP President                                           Donald J. Trump                       PRECINCT 7                                             01 
00100060008000212REP       REP President                                           Donald J. Trump                       PRECINCT 8                                             01 
00100060009000141REP       REP President                                           Donald J. Trump                       PRECINCT 9                                             01 
00100070001000000REP       REP President                                           Roque Rocky DeLa Fuente Guerra        PRECINCT 1                                             01 
00100070002000000REP       REP President                                           Roque Rocky DeLa Fuente Guerra        PRECINCT 2                                             01 
00100070003000000REP       REP President                                           Roque Rocky DeLa Fuente Guerra        PRECINCT 3                                             01 
00100070004000000REP       REP President                                           Roque Rocky DeLa Fuente Guerra        PRECINCT 4                                             01 
00100070005000000REP       REP President                                           Roque Rocky DeLa Fuente Guerra        PRECINCT 5                                             01 
00100070006000000REP       REP President                                           Roque Rocky DeLa Fuente Guerra        PRECINCT 6                                             01 
00100070007000001REP       REP President                                           Roque Rocky DeLa Fuente Guerra        PRECINCT 7                                             01 
00100070008000001REP       REP President                                           Roque Rocky DeLa Fuente Guerra        PRECINCT 8                                             01 
00100070009000001REP       REP President                                           Roque Rocky DeLa Fuente Guerra        PRECINCT 9                                             01 
00100080001000005REP       REP President                                           Uncommitted                           PRECINCT 1                                             01 
00100080002000002REP       REP President                                           Uncommitted                           PRECINCT 2                                             01 
00100080003000000REP       REP President                                           Uncommitted                           PRECINCT 3                                             01 
00100080004000000REP       REP President                                           Uncommitted                           PRECINCT 4                                             01 
00100080005000000REP       REP President                                           Uncommitted                           PRECINCT 5                                             01 
00100080006000002REP       REP President                                           Uncommitted                           PRECINCT 6                                             01 
00100080007000004REP       REP President                                           Uncommitted                           PRECINCT 7                                             01 
00100080008000008REP       REP President                                           Uncommitted                           PRECINCT 8                                             01 
00100080009000009REP       REP President                                           Uncommitted                           PRECINCT 9                                             01 
00110010001000090REP       REP US Senator                                          John Cornyn                           PRECINCT 1                                             01 
00110010002000024REP       REP US Senator                                          John Cornyn                           PRECINCT 2                                             01 
00110010003000014REP       REP US Senator                                          John Cornyn                           PRECINCT 3                                             01 
00110010004000010REP       REP US Senator                                          John Cornyn                           PRECINCT 4                                             01 
00110010005000006REP       REP US Senator                                          John Cornyn                           PRECINCT 5                                             01 
00110010006000063REP       REP US Senator                                          John Cornyn                           PRECINCT 6                                             01 
00110010007000088REP       REP US Senator                                          John Cornyn                           PRECINCT 7                                             01 
00110010008000155REP       REP US Senator                                          John Cornyn                           PRECINCT 8                                             01 
00110010009000095REP       REP US Senator                                          John Cornyn                           PRECINCT 9                                             01 
00110020001000010REP       REP US Senator                                          John Anthony Castro                   PRECINCT 1                                             01 
00110020002000001REP       REP US Senator                                          John Anthony Castro                   PRECINCT 2                                             01 
00110020003000000REP       REP US Senator                                          John Anthony Castro                   PRECINCT 3                                             01 
00110020004000000REP       REP US Senator                                          John Anthony Castro                   PRECINCT 4                                             01 
00110020005000000REP       REP US Senator                                          John Anthony Castro                   PRECINCT 5                                             01 
00110020006000006REP       REP US Senator                                          John Anthony Castro                   PRECINCT 6                                             01 
00110020007000010REP       REP US Senator                                          John Anthony Castro                   PRECINCT 7                                             01 
00110020008000010REP       REP US Senator                                          John Anthony Castro                   PRECINCT 8                                             01 
00110020009000012REP       REP US Senator                                          John Anthony Castro                   PRECINCT 9                                             01 
00110030001000009REP       REP US Senator                                          Mark Yancey                           PRECINCT 1                                             01 
00110030002000001REP       REP US Senator                                          Mark Yancey                           PRECINCT 2                                             01 
00110030003000000REP       REP US Senator                                          Mark Yancey                           PRECINCT 3                                             01 
00110030004000000REP       REP US Senator                                          Mark Yancey                           PRECINCT 4                                             01 
00110030005000000REP       REP US Senator                                          Mark Yancey                           PRECINCT 5                                             01 
00110030006000007REP       REP US Senator                                          Mark Yancey                           PRECINCT 6                                             01 
00110030007000007REP       REP US Senator                                          Mark Yancey                           PRECINCT 7                                             01 
00110030008000014REP       REP US Senator                                          Mark Yancey                           PRECINCT 8                                             01 
00110030009000014REP       REP US Senator                                          Mark Yancey                           PRECINCT 9                                             01 
00110040001000002REP       REP US Senator                                          Virgil Bierschwale                    PRECINCT 1                                             01 
00110040002000000REP       REP US Senator                                          Virgil Bierschwale                    PRECINCT 2                                             01 
00110040003000000REP       REP US Senator                                          Virgil Bierschwale                    PRECINCT 3                                             01 
00110040004000000REP       REP US Senator                                          Virgil Bierschwale                    PRECINCT 4                                             01 
00110040005000000REP       REP US Senator                                          Virgil Bierschwale                    PRECINCT 5                                             01 
00110040006000001REP       REP US Senator                                          Virgil Bierschwale                    PRECINCT 6                                             01 
00110040007000002REP       REP US Senator                                          Virgil Bierschwale                    PRECINCT 7                                             01 
00110040008000003REP       REP US Senator                                          Virgil Bierschwale                    PRECINCT 8                                             01 
00110040009000003REP       REP US Senator                                          Virgil Bierschwale                    PRECINCT 9                                             01 
00110050001000011REP       REP US Senator                                          Dwayne Stovall                        PRECINCT 1                                             01 
00110050002000006REP       REP US Senator                                          Dwayne Stovall                        PRECINCT 2                                             01 
00110050003000001REP       REP US Senator                                          Dwayne Stovall                        PRECINCT 3                                             01 
00110050004000001REP       REP US Senator                                          Dwayne Stovall                        PRECINCT 4                                             01 
00110050005000000REP       REP US Senator                                          Dwayne Stovall                        PRECINCT 5                                             01 
00110050006000009REP       REP US Senator                                          Dwayne Stovall                        PRECINCT 6                                             01 
00110050007000021REP       REP US Senator                                          Dwayne Stovall                        PRECINCT 7                                             01 
00110050008000027REP       REP US Senator                                          Dwayne Stovall                        PRECINCT 8                                             01 
00110050009000016REP       REP US Senator                                          Dwayne Stovall                        PRECINCT 9                                             01 
00120010001000004REP       REP US Representative, Dist 13                          Diane Knowlton                        PRECINCT 1                                             01 
00120010002000000REP       REP US Representative, Dist 13                          Diane Knowlton                        PRECINCT 2                                             01 
00120010003000000REP       REP US Representative, Dist 13                          Diane Knowlton                        PRECINCT 3                                             01 
00120010004000000REP       REP US Representative, Dist 13                          Diane Knowlton                        PRECINCT 4                                             01 
00120010005000000REP       REP US Representative, Dist 13                          Diane Knowlton                        PRECINCT 5                                             01 
00120010006000002REP       REP US Representative, Dist 13                          Diane Knowlton                        PRECINCT 6                                             01 
00120010007000005REP       REP US Representative, Dist 13                          Diane Knowlton                        PRECINCT 7                                             01 
00120010008000003REP       REP US Representative, Dist 13                          Diane Knowlton                        PRECINCT 8                                             01 
00120010009000003REP       REP US Representative, Dist 13                          Diane Knowlton                        PRECINCT 9                                             01 
00120020001000005REP       REP US Representative, Dist 13                          Matt McArthur                         PRECINCT 1                                             01 
00120020002000002REP       REP US Representative, Dist 13                          Matt McArthur                         PRECINCT 2                                             01 
00120020003000000REP       REP US Representative, Dist 13                          Matt McArthur                         PRECINCT 3                                             01 
00120020004000000REP       REP US Representative, Dist 13                          Matt McArthur                         PRECINCT 4                                             01 
00120020005000000REP       REP US Representative, Dist 13                          Matt McArthur                         PRECINCT 5                                             01 
00120020006000002REP       REP US Representative, Dist 13                          Matt McArthur                         PRECINCT 6                                             01 
00120020007000006REP       REP US Representative, Dist 13                          Matt McArthur                         PRECINCT 7                                             01 
00120020008000007REP       REP US Representative, Dist 13                          Matt McArthur                         PRECINCT 8                                             01 
00120020009000005REP       REP US Representative, Dist 13                          Matt McArthur                         PRECINCT 9                                             01 
00120030001000001REP       REP US Representative, Dist 13                          Monique Worthy                        PRECINCT 1                                             01 
00120030002000000REP       REP US Representative, Dist 13                          Monique Worthy                        PRECINCT 2                                             01 
00120030003000000REP       REP US Representative, Dist 13                          Monique Worthy                        PRECINCT 3                                             01 
00120030004000000REP       REP US Representative, Dist 13                          Monique Worthy                        PRECINCT 4                                             01 
00120030005000000REP       REP US Representative, Dist 13                          Monique Worthy                        PRECINCT 5                                             01 
00120030006000001REP       REP US Representative, Dist 13                          Monique Worthy                        PRECINCT 6                                             01 
00120030007000001REP       REP US Representative, Dist 13                          Monique Worthy                        PRECINCT 7                                             01 
00120030008000002REP       REP US Representative, Dist 13                          Monique Worthy                        PRECINCT 8                                             01 
00120030009000001REP       REP US Representative, Dist 13                          Monique Worthy                        PRECINCT 9                                             01 
00120040001000003REP       REP US Representative, Dist 13                          Elaine Hays                           PRECINCT 1                                             01 
00120040002000003REP       REP US Representative, Dist 13                          Elaine Hays                           PRECINCT 2                                             01 
00120040003000000REP       REP US Representative, Dist 13                          Elaine Hays                           PRECINCT 3                                             01 
00120040004000000REP       REP US Representative, Dist 13                          Elaine Hays                           PRECINCT 4                                             01 
00120040005000001REP       REP US Representative, Dist 13                          Elaine Hays                           PRECINCT 5                                             01 
00120040006000005REP       REP US Representative, Dist 13                          Elaine Hays                           PRECINCT 6                                             01 
00120040007000005REP       REP US Representative, Dist 13                          Elaine Hays                           PRECINCT 7                                             01 
00120040008000006REP       REP US Representative, Dist 13                          Elaine Hays                           PRECINCT 8                                             01 
00120040009000005REP       REP US Representative, Dist 13                          Elaine Hays                           PRECINCT 9                                             01 
00120050001000001REP       REP US Representative, Dist 13                          Jamie Culley                          PRECINCT 1                                             01 
00120050002000000REP       REP US Representative, Dist 13                          Jamie Culley                          PRECINCT 2                                             01 
00120050003000000REP       REP US Representative, Dist 13                          Jamie Culley                          PRECINCT 3                                             01 
00120050004000000REP       REP US Representative, Dist 13                          Jamie Culley                          PRECINCT 4                                             01 
00120050005000000REP       REP US Representative, Dist 13                          Jamie Culley                          PRECINCT 5                                             01 
00120050006000001REP       REP US Representative, Dist 13                          Jamie Culley                          PRECINCT 6                                             01 
00120050007000002REP       REP US Representative, Dist 13                          Jamie Culley                          PRECINCT 7                                             01 
00120050008000003REP       REP US Representative, Dist 13                          Jamie Culley                          PRECINCT 8                                             01 
00120050009000001REP       REP US Representative, Dist 13                          Jamie Culley                          PRECINCT 9                                             01 
00120060001000020REP       REP US Representative, Dist 13                          Chris Ekstrom                         PRECINCT 1                                             01 
00120060002000004REP       REP US Representative, Dist 13                          Chris Ekstrom                         PRECINCT 2                                             01 
00120060003000000REP       REP US Representative, Dist 13                          Chris Ekstrom                         PRECINCT 3                                             01 
00120060004000004REP       REP US Representative, Dist 13                          Chris Ekstrom                         PRECINCT 4                                             01 
00120060005000000REP       REP US Representative, Dist 13                          Chris Ekstrom                         PRECINCT 5                                             01 
00120060006000019REP       REP US Representative, Dist 13                          Chris Ekstrom                         PRECINCT 6                                             01 
00120060007000021REP       REP US Representative, Dist 13                          Chris Ekstrom                         PRECINCT 7                                             01 
00120060008000036REP       REP US Representative, Dist 13                          Chris Ekstrom                         PRECINCT 8                                             01 
00120060009000025REP       REP US Representative, Dist 13                          Chris Ekstrom                         PRECINCT 9                                             01 
00120070001000001REP       REP US Representative, Dist 13                          Vance Snider II                       PRECINCT 1                                             01 
00120070002000003REP       REP US Representative, Dist 13                          Vance Snider II                       PRECINCT 2                                             01 
00120070003000000REP       REP US Representative, Dist 13                          Vance Snider II                       PRECINCT 3                                             01 
00120070004000000REP       REP US Representative, Dist 13                          Vance Snider II                       PRECINCT 4                                             01 
00120070005000000REP       REP US Representative, Dist 13                          Vance Snider II                       PRECINCT 5                                             01 
00120070006000002REP       REP US Representative, Dist 13                          Vance Snider II                       PRECINCT 6                                             01 
00120070007000010REP       REP US Representative, Dist 13                          Vance Snider II                       PRECINCT 7                                             01 
00120070008000020REP       REP US Representative, Dist 13                          Vance Snider II                       PRECINCT 8                                             01 
00120070009000010REP       REP US Representative, Dist 13                          Vance Snider II                       PRECINCT 9                                             01 
00120080001000003REP       REP US Representative, Dist 13                          Mark Neese                            PRECINCT 1                                             01 
00120080002000000REP       REP US Representative, Dist 13                          Mark Neese                            PRECINCT 2                                             01 
00120080003000000REP       REP US Representative, Dist 13                          Mark Neese                            PRECINCT 3                                             01 
00120080004000000REP       REP US Representative, Dist 13                          Mark Neese                            PRECINCT 4                                             01 
00120080005000000REP       REP US Representative, Dist 13                          Mark Neese                            PRECINCT 5                                             01 
00120080006000001REP       REP US Representative, Dist 13                          Mark Neese                            PRECINCT 6                                             01 
00120080007000002REP       REP US Representative, Dist 13                          Mark Neese                            PRECINCT 7                                             01 
00120080008000001REP       REP US Representative, Dist 13                          Mark Neese                            PRECINCT 8                                             01 
00120080009000003REP       REP US Representative, Dist 13                          Mark Neese                            PRECINCT 9                                             01 
00120090001000068REP       REP US Representative, Dist 13                          Josh Winegarner                       PRECINCT 1                                             01 
00120090002000020REP       REP US Representative, Dist 13                          Josh Winegarner                       PRECINCT 2                                             01 
00120090003000013REP       REP US Representative, Dist 13                          Josh Winegarner                       PRECINCT 3                                             01 
00120090004000004REP       REP US Representative, Dist 13                          Josh Winegarner                       PRECINCT 4                                             01 
00120090005000004REP       REP US Representative, Dist 13                          Josh Winegarner                       PRECINCT 5                                             01 
00120090006000039REP       REP US Representative, Dist 13                          Josh Winegarner                       PRECINCT 6                                             01 
00120090007000053REP       REP US Representative, Dist 13                          Josh Winegarner                       PRECINCT 7                                             01 
00120090008000092REP       REP US Representative, Dist 13                          Josh Winegarner                       PRECINCT 8                                             01 
00120090009000058REP       REP US Representative, Dist 13                          Josh Winegarner                       PRECINCT 9                                             01 
00120100001000001REP       REP US Representative, Dist 13                          Asusena Resndiz                      PRECINCT 1                                             01 
00120100002000000REP       REP US Representative, Dist 13                          Asusena Resndiz                      PRECINCT 2                                             01 
00120100003000000REP       REP US Representative, Dist 13                          Asusena Resndiz                      PRECINCT 3                                             01 
00120100004000000REP       REP US Representative, Dist 13                          Asusena Resndiz                      PRECINCT 4                                             01 
00120100005000000REP       REP US Representative, Dist 13                          Asusena Resndiz                      PRECINCT 5                                             01 
00120100006000001REP       REP US Representative, Dist 13                          Asusena Resndiz                      PRECINCT 6                                             01 
00120100007000005REP       REP US Representative, Dist 13                          Asusena Resndiz                      PRECINCT 7                                             01 
00120100008000004REP       REP US Representative, Dist 13                          Asusena Resndiz                      PRECINCT 8                                             01 
00120100009000004REP       REP US Representative, Dist 13                          Asusena Resndiz                      PRECINCT 9                                             01 
00120110001000000REP       REP US Representative, Dist 13                          Jason Foglesong                       PRECINCT 1                                             01 
00120110002000000REP       REP US Representative, Dist 13                          Jason Foglesong                       PRECINCT 2                                             01 
00120110003000000REP       REP US Representative, Dist 13                          Jason Foglesong                       PRECINCT 3                                             01 
00120110004000000REP       REP US Representative, Dist 13                          Jason Foglesong                       PRECINCT 4                                             01 
00120110005000000REP       REP US Representative, Dist 13                          Jason Foglesong                       PRECINCT 5                                             01 
00120110006000000REP       REP US Representative, Dist 13                          Jason Foglesong                       PRECINCT 6                                             01 
00120110007000001REP       REP US Representative, Dist 13                          Jason Foglesong                       PRECINCT 7                                             01 
00120110008000000REP       REP US Representative, Dist 13                          Jason Foglesong                       PRECINCT 8                                             01 
00120110009000001REP       REP US Representative, Dist 13                          Jason Foglesong                       PRECINCT 9                                             01 
00120120001000000REP       REP US Representative, Dist 13                          Richard Herman                        PRECINCT 1                                             01 
00120120002000000REP       REP US Representative, Dist 13                          Richard Herman                        PRECINCT 2                                             01 
00120120003000000REP       REP US Representative, Dist 13                          Richard Herman                        PRECINCT 3                                             01 
00120120004000000REP       REP US Representative, Dist 13                          Richard Herman                        PRECINCT 4                                             01 
00120120005000000REP       REP US Representative, Dist 13                          Richard Herman                        PRECINCT 5                                             01 
00120120006000000REP       REP US Representative, Dist 13                          Richard Herman                        PRECINCT 6                                             01 
00120120007000001REP       REP US Representative, Dist 13                          Richard Herman                        PRECINCT 7                                             01 
00120120008000004REP       REP US Representative, Dist 13                          Richard Herman                        PRECINCT 8                                             01 
00120120009000001REP       REP US Representative, Dist 13                          Richard Herman                        PRECINCT 9                                             01 
00120130001000001REP       REP US Representative, Dist 13                          Catherine "I Swear" Carr              PRECINCT 1                                             01 
00120130002000000REP       REP US Representative, Dist 13                          Catherine "I Swear" Carr              PRECINCT 2                                             01 
00120130003000000REP       REP US Representative, Dist 13                          Catherine "I Swear" Carr              PRECINCT 3                                             01 
00120130004000000REP       REP US Representative, Dist 13                          Catherine "I Swear" Carr              PRECINCT 4                                             01 
00120130005000000REP       REP US Representative, Dist 13                          Catherine "I Swear" Carr              PRECINCT 5                                             01 
00120130006000000REP       REP US Representative, Dist 13                          Catherine "I Swear" Carr              PRECINCT 6                                             01 
00120130007000000REP       REP US Representative, Dist 13                          Catherine "I Swear" Carr              PRECINCT 7                                             01 
00120130008000002REP       REP US Representative, Dist 13                          Catherine "I Swear" Carr              PRECINCT 8                                             01 
00120130009000001REP       REP US Representative, Dist 13                          Catherine "I Swear" Carr              PRECINCT 9                                             01 
00120140001000000REP       REP US Representative, Dist 13                          Lee Harvey                            PRECINCT 1                                             01 
00120140002000000REP       REP US Representative, Dist 13                          Lee Harvey                            PRECINCT 2                                             01 
00120140003000001REP       REP US Representative, Dist 13                          Lee Harvey                            PRECINCT 3                                             01 
00120140004000000REP       REP US Representative, Dist 13                          Lee Harvey                            PRECINCT 4                                             01 
00120140005000000REP       REP US Representative, Dist 13                          Lee Harvey                            PRECINCT 5                                             01 
00120140006000000REP       REP US Representative, Dist 13                          Lee Harvey                            PRECINCT 6                                             01 
00120140007000000REP       REP US Representative, Dist 13                          Lee Harvey                            PRECINCT 7                                             01 
00120140008000003REP       REP US Representative, Dist 13                          Lee Harvey                            PRECINCT 8                                             01 
00120140009000003REP       REP US Representative, Dist 13                          Lee Harvey                            PRECINCT 9                                             01 
00120150001000019REP       REP US Representative, Dist 13                          Ronny Jackson                         PRECINCT 1                                             01 
00120150002000002REP       REP US Representative, Dist 13                          Ronny Jackson                         PRECINCT 2                                             01 
00120150003000001REP       REP US Representative, Dist 13                          Ronny Jackson                         PRECINCT 3                                             01 
00120150004000002REP       REP US Representative, Dist 13                          Ronny Jackson                         PRECINCT 4                                             01 
00120150005000002REP       REP US Representative, Dist 13                          Ronny Jackson                         PRECINCT 5                                             01 
00120150006000018REP       REP US Representative, Dist 13                          Ronny Jackson                         PRECINCT 6                                             01 
00120150007000016REP       REP US Representative, Dist 13                          Ronny Jackson                         PRECINCT 7                                             01 
00120150008000032REP       REP US Representative, Dist 13                          Ronny Jackson                         PRECINCT 8                                             01 
00120150009000026REP       REP US Representative, Dist 13                          Ronny Jackson                         PRECINCT 9                                             01 
00130010001000079REP       REP Railroad Commissioner                               James "Jim" Wright                    PRECINCT 1                                             01 
00130010002000023REP       REP Railroad Commissioner                               James "Jim" Wright                    PRECINCT 2                                             01 
00130010003000006REP       REP Railroad Commissioner                               James "Jim" Wright                    PRECINCT 3                                             01 
00130010004000007REP       REP Railroad Commissioner                               James "Jim" Wright                    PRECINCT 4                                             01 
00130010005000006REP       REP Railroad Commissioner                               James "Jim" Wright                    PRECINCT 5                                             01 
00130010006000059REP       REP Railroad Commissioner                               James "Jim" Wright                    PRECINCT 6                                             01 
00130010007000078REP       REP Railroad Commissioner                               James "Jim" Wright                    PRECINCT 7                                             01 
00130010008000165REP       REP Railroad Commissioner                               James "Jim" Wright                    PRECINCT 8                                             01 
00130010009000101REP       REP Railroad Commissioner                               James "Jim" Wright                    PRECINCT 9                                             01 
00130020001000030REP       REP Railroad Commissioner                               Ryan Sitton                           PRECINCT 1                                             01 
00130020002000007REP       REP Railroad Commissioner                               Ryan Sitton                           PRECINCT 2                                             01 
00130020003000009REP       REP Railroad Commissioner                               Ryan Sitton                           PRECINCT 3                                             01 
00130020004000003REP       REP Railroad Commissioner                               Ryan Sitton                           PRECINCT 4                                             01 
00130020005000000REP       REP Railroad Commissioner                               Ryan Sitton                           PRECINCT 5                                             01 
00130020006000022REP       REP Railroad Commissioner                               Ryan Sitton                           PRECINCT 6                                             01 
00130020007000042REP       REP Railroad Commissioner                               Ryan Sitton                           PRECINCT 7                                             01 
00130020008000040REP       REP Railroad Commissioner                               Ryan Sitton                           PRECINCT 8                                             01 
00130020009000033REP       REP Railroad Commissioner                               Ryan Sitton                           PRECINCT 9                                             01 
00140010001000098REP       REP Chief Justice, Supreme Court                        Nathan Hecht                          PRECINCT 1                                             01 
00140010002000029REP       REP Chief Justice, Supreme Court                        Nathan Hecht                          PRECINCT 2                                             01 
00140010003000015REP       REP Chief Justice, Supreme Court                        Nathan Hecht                          PRECINCT 3                                             01 
00140010004000009REP       REP Chief Justice, Supreme Court                        Nathan Hecht                          PRECINCT 4                                             01 
00140010005000006REP       REP Chief Justice, Supreme Court                        Nathan Hecht                          PRECINCT 5                                             01 
00140010006000085REP       REP Chief Justice, Supreme Court                        Nathan Hecht                          PRECINCT 6                                             01 
00140010007000114REP       REP Chief Justice, Supreme Court                        Nathan Hecht                          PRECINCT 7                                             01 
00140010008000195REP       REP Chief Justice, Supreme Court                        Nathan Hecht                          PRECINCT 8                                             01 
00140010009000135REP       REP Chief Justice, Supreme Court                        Nathan Hecht                          PRECINCT 9                                             01 
00150010001000101REP       REP Justice, Supreme Court, Pl 6                        Jane Bland                            PRECINCT 1                                             01 
00150010002000028REP       REP Justice, Supreme Court, Pl 6                        Jane Bland                            PRECINCT 2                                             01 
00150010003000015REP       REP Justice, Supreme Court, Pl 6                        Jane Bland                            PRECINCT 3                                             01 
00150010004000009REP       REP Justice, Supreme Court, Pl 6                        Jane Bland                            PRECINCT 4                                             01 
00150010005000006REP       REP Justice, Supreme Court, Pl 6                        Jane Bland                            PRECINCT 5                                             01 
00150010006000082REP       REP Justice, Supreme Court, Pl 6                        Jane Bland                            PRECINCT 6                                             01 
00150010007000111REP       REP Justice, Supreme Court, Pl 6                        Jane Bland                            PRECINCT 7                                             01 
00150010008000196REP       REP Justice, Supreme Court, Pl 6                        Jane Bland                            PRECINCT 8                                             01 
00150010009000134REP       REP Justice, Supreme Court, Pl 6                        Jane Bland                            PRECINCT 9                                             01 
00160010001000102REP       REP Justice, Supreme Court, Pl 7                        Jeff Boyd                             PRECINCT 1                                             01 
00160010002000029REP       REP Justice, Supreme Court, Pl 7                        Jeff Boyd                             PRECINCT 2                                             01 
00160010003000015REP       REP Justice, Supreme Court, Pl 7                        Jeff Boyd                             PRECINCT 3                                             01 
00160010004000008REP       REP Justice, Supreme Court, Pl 7                        Jeff Boyd                             PRECINCT 4                                             01 
00160010005000006REP       REP Justice, Supreme Court, Pl 7                        Jeff Boyd                             PRECINCT 5                                             01 
00160010006000085REP       REP Justice, Supreme Court, Pl 7                        Jeff Boyd                             PRECINCT 6                                             01 
00160010007000114REP       REP Justice, Supreme Court, Pl 7                        Jeff Boyd                             PRECINCT 7                                             01 
00160010008000197REP       REP Justice, Supreme Court, Pl 7                        Jeff Boyd                             PRECINCT 8                                             01 
00160010009000134REP       REP Justice, Supreme Court, Pl 7                        Jeff Boyd                             PRECINCT 9                                             01 
00170010001000101REP       REP Justice, Supreme Court, Pl 8                        Brett Busby                           PRECINCT 1                                             01 
00170010002000028REP       REP Justice, Supreme Court, Pl 8                        Brett Busby                           PRECINCT 2                                             01 
00170010003000015REP       REP Justice, Supreme Court, Pl 8                        Brett Busby                           PRECINCT 3                                             01 
00170010004000008REP       REP Justice, Supreme Court, Pl 8                        Brett Busby                           PRECINCT 4                                             01 
00170010005000006REP       REP Justice, Supreme Court, Pl 8                        Brett Busby                           PRECINCT 5                                             01 
00170010006000083REP       REP Justice, Supreme Court, Pl 8                        Brett Busby                           PRECINCT 6                                             01 
00170010007000113REP       REP Justice, Supreme Court, Pl 8                        Brett Busby                           PRECINCT 7                                             01 
00170010008000192REP       REP Justice, Supreme Court, Pl 8                        Brett Busby                           PRECINCT 8                                             01 
00170010009000133REP       REP Justice, Supreme Court, Pl 8                        Brett Busby                           PRECINCT 9                                             01 
00180010001000070REP       REP Judge, Ct of Crim App, Pl 3                         Bert Richardson                       PRECINCT 1                                             01 
00180010002000015REP       REP Judge, Ct of Crim App, Pl 3                         Bert Richardson                       PRECINCT 2                                             01 
00180010003000010REP       REP Judge, Ct of Crim App, Pl 3                         Bert Richardson                       PRECINCT 3                                             01 
00180010004000007REP       REP Judge, Ct of Crim App, Pl 3                         Bert Richardson                       PRECINCT 4                                             01 
00180010005000004REP       REP Judge, Ct of Crim App, Pl 3                         Bert Richardson                       PRECINCT 5                                             01 
00180010006000055REP       REP Judge, Ct of Crim App, Pl 3                         Bert Richardson                       PRECINCT 6                                             01 
00180010007000062REP       REP Judge, Ct of Crim App, Pl 3                         Bert Richardson                       PRECINCT 7                                             01 
00180010008000144REP       REP Judge, Ct of Crim App, Pl 3                         Bert Richardson                       PRECINCT 8                                             01 
00180010009000078REP       REP Judge, Ct of Crim App, Pl 3                         Bert Richardson                       PRECINCT 9                                             01 
00180020001000035REP       REP Judge, Ct of Crim App, Pl 3                         Gina Parker                           PRECINCT 1                                             01 
00180020002000015REP       REP Judge, Ct of Crim App, Pl 3                         Gina Parker                           PRECINCT 2                                             01 
00180020003000003REP       REP Judge, Ct of Crim App, Pl 3                         Gina Parker                           PRECINCT 3                                             01 
00180020004000003REP       REP Judge, Ct of Crim App, Pl 3                         Gina Parker                           PRECINCT 4                                             01 
00180020005000002REP       REP Judge, Ct of Crim App, Pl 3                         Gina Parker                           PRECINCT 5                                             01 
00180020006000027REP       REP Judge, Ct of Crim App, Pl 3                         Gina Parker                           PRECINCT 6                                             01 
00180020007000054REP       REP Judge, Ct of Crim App, Pl 3                         Gina Parker                           PRECINCT 7                                             01 
00180020008000060REP       REP Judge, Ct of Crim App, Pl 3                         Gina Parker                           PRECINCT 8                                             01 
00180020009000059REP       REP Judge, Ct of Crim App, Pl 3                         Gina Parker                           PRECINCT 9                                             01 
00190010001000097REP       REP Judge, Ct of Crim App, Pl 4                         Kevin Patrick Yeary                   PRECINCT 1                                             01 
00190010002000027REP       REP Judge, Ct of Crim App, Pl 4                         Kevin Patrick Yeary                   PRECINCT 2                                             01 
00190010003000013REP       REP Judge, Ct of Crim App, Pl 4                         Kevin Patrick Yeary                   PRECINCT 3                                             01 
00190010004000008REP       REP Judge, Ct of Crim App, Pl 4                         Kevin Patrick Yeary                   PRECINCT 4                                             01 
00190010005000006REP       REP Judge, Ct of Crim App, Pl 4                         Kevin Patrick Yeary                   PRECINCT 5                                             01 
00190010006000085REP       REP Judge, Ct of Crim App, Pl 4                         Kevin Patrick Yeary                   PRECINCT 6                                             01 
00190010007000113REP       REP Judge, Ct of Crim App, Pl 4                         Kevin Patrick Yeary                   PRECINCT 7                                             01 
00190010008000195REP       REP Judge, Ct of Crim App, Pl 4                         Kevin Patrick Yeary                   PRECINCT 8                                             01 
00190010009000133REP       REP Judge, Ct of Crim App, Pl 4                         Kevin Patrick Yeary                   PRECINCT 9                                             01 
00200010001000099REP       REP Judge, Ct of Crim App, Pl 9                         David Newell                          PRECINCT 1                                             01 
00200010002000027REP       REP Judge, Ct of Crim App, Pl 9                         David Newell                          PRECINCT 2                                             01 
00200010003000013REP       REP Judge, Ct of Crim App, Pl 9                         David Newell                          PRECINCT 3                                             01 
00200010004000008REP       REP Judge, Ct of Crim App, Pl 9                         David Newell                          PRECINCT 4                                             01 
00200010005000006REP       REP Judge, Ct of Crim App, Pl 9                         David Newell                          PRECINCT 5                                             01 
00200010006000085REP       REP Judge, Ct of Crim App, Pl 9                         David Newell                          PRECINCT 6                                             01 
00200010007000110REP       REP Judge, Ct of Crim App, Pl 9                         David Newell                          PRECINCT 7                                             01 
00200010008000194REP       REP Judge, Ct of Crim App, Pl 9                         David Newell                          PRECINCT 8                                             01 
00200010009000134REP       REP Judge, Ct of Crim App, Pl 9                         David Newell                          PRECINCT 9                                             01 
00210010001000098REP       REP Member, State BoE, Dist 15                          Jay Johnson                           PRECINCT 1                                             01 
00210010002000027REP       REP Member, State BoE, Dist 15                          Jay Johnson                           PRECINCT 2                                             01 
00210010003000013REP       REP Member, State BoE, Dist 15                          Jay Johnson                           PRECINCT 3                                             01 
00210010004000008REP       REP Member, State BoE, Dist 15                          Jay Johnson                           PRECINCT 4                                             01 
00210010005000006REP       REP Member, State BoE, Dist 15                          Jay Johnson                           PRECINCT 5                                             01 
00210010006000085REP       REP Member, State BoE, Dist 15                          Jay Johnson                           PRECINCT 6                                             01 
00210010007000113REP       REP Member, State BoE, Dist 15                          Jay Johnson                           PRECINCT 7                                             01 
00210010008000195REP       REP Member, State BoE, Dist 15                          Jay Johnson                           PRECINCT 8                                             01 
00210010009000135REP       REP Member, State BoE, Dist 15                          Jay Johnson                           PRECINCT 9                                             01 
00220010001000107REP       REP State Representative, Dist 86                       John Smithee                          PRECINCT 1                                             01 
00220010002000028REP       REP State Representative, Dist 86                       John Smithee                          PRECINCT 2                                             01 
00220010003000014REP       REP State Representative, Dist 86                       John Smithee                          PRECINCT 3                                             01 
00220010004000009REP       REP State Representative, Dist 86                       John Smithee                          PRECINCT 4                                             01 
00220010005000006REP       REP State Representative, Dist 86                       John Smithee                          PRECINCT 5                                             01 
00220010006000088REP       REP State Representative, Dist 86                       John Smithee                          PRECINCT 6                                             01 
00220010007000111REP       REP State Representative, Dist 86                       John Smithee                          PRECINCT 7                                             01 
00220010008000195REP       REP State Representative, Dist 86                       John Smithee                          PRECINCT 8                                             01 
00220010009000135REP       REP State Representative, Dist 86                       John Smithee                          PRECINCT 9                                             01 
00230010001000099REP       REP Chief Justice, 7th Ct of App Dist                   Brian Quinn                           PRECINCT 1                                             01 
00230010002000027REP       REP Chief Justice, 7th Ct of App Dist                   Brian Quinn                           PRECINCT 2                                             01 
00230010003000013REP       REP Chief Justice, 7th Ct of App Dist                   Brian Quinn                           PRECINCT 3                                             01 
00230010004000008REP       REP Chief Justice, 7th Ct of App Dist                   Brian Quinn                           PRECINCT 4                                             01 
00230010005000006REP       REP Chief Justice, 7th Ct of App Dist                   Brian Quinn                           PRECINCT 5                                             01 
00230010006000083REP       REP Chief Justice, 7th Ct of App Dist                   Brian Quinn                           PRECINCT 6                                             01 
00230010007000109REP       REP Chief Justice, 7th Ct of App Dist                   Brian Quinn                           PRECINCT 7                                             01 
00230010008000195REP       REP Chief Justice, 7th Ct of App Dist                   Brian Quinn                           PRECINCT 8                                             01 
00230010009000133REP       REP Chief Justice, 7th Ct of App Dist                   Brian Quinn                           PRECINCT 9                                             01 
00240010001000061REP       REP Justice, 7th Ct of App Dist, Pl 4                   Larry Doss                            PRECINCT 1                                             01 
00240010002000015REP       REP Justice, 7th Ct of App Dist, Pl 4                   Larry Doss                            PRECINCT 2                                             01 
00240010003000013REP       REP Justice, 7th Ct of App Dist, Pl 4                   Larry Doss                            PRECINCT 3                                             01 
00240010004000005REP       REP Justice, 7th Ct of App Dist, Pl 4                   Larry Doss                            PRECINCT 4                                             01 
00240010005000001REP       REP Justice, 7th Ct of App Dist, Pl 4                   Larry Doss                            PRECINCT 5                                             01 
00240010006000045REP       REP Justice, 7th Ct of App Dist, Pl 4                   Larry Doss                            PRECINCT 6                                             01 
00240010007000057REP       REP Justice, 7th Ct of App Dist, Pl 4                   Larry Doss                            PRECINCT 7                                             01 
00240010008000114REP       REP Justice, 7th Ct of App Dist, Pl 4                   Larry Doss                            PRECINCT 8                                             01 
00240010009000076REP       REP Justice, 7th Ct of App Dist, Pl 4                   Larry Doss                            PRECINCT 9                                             01 
00240020001000044REP       REP Justice, 7th Ct of App Dist, Pl 4                   Steven Denny                          PRECINCT 1                                             01 
00240020002000012REP       REP Justice, 7th Ct of App Dist, Pl 4                   Steven Denny                          PRECINCT 2                                             01 
00240020003000002REP       REP Justice, 7th Ct of App Dist, Pl 4                   Steven Denny                          PRECINCT 3                                             01 
00240020004000005REP       REP Justice, 7th Ct of App Dist, Pl 4                   Steven Denny                          PRECINCT 4                                             01 
00240020005000005REP       REP Justice, 7th Ct of App Dist, Pl 4                   Steven Denny                          PRECINCT 5                                             01 
00240020006000034REP       REP Justice, 7th Ct of App Dist, Pl 4                   Steven Denny                          PRECINCT 6                                             01 
00240020007000058REP       REP Justice, 7th Ct of App Dist, Pl 4                   Steven Denny                          PRECINCT 7                                             01 
00240020008000085REP       REP Justice, 7th Ct of App Dist, Pl 4                   Steven Denny                          PRECINCT 8                                             01 
00240020009000058REP       REP Justice, 7th Ct of App Dist, Pl 4                   Steven Denny                          PRECINCT 9                                             01 
00250010001000076REP       REP Dist Attorney, 69th Judicial Dist                   Erin Lands                            PRECINCT 1                                             01 
00250010002000024REP       REP Dist Attorney, 69th Judicial Dist                   Erin Lands                            PRECINCT 2                                             01 
00250010003000009REP       REP Dist Attorney, 69th Judicial Dist                   Erin Lands                            PRECINCT 3                                             01 
00250010004000006REP       REP Dist Attorney, 69th Judicial Dist                   Erin Lands                            PRECINCT 4                                             01 
00250010005000004REP       REP Dist Attorney, 69th Judicial Dist                   Erin Lands                            PRECINCT 5                                             01 
00250010006000068REP       REP Dist Attorney, 69th Judicial Dist                   Erin Lands                            PRECINCT 6                                             01 
00250010007000081REP       REP Dist Attorney, 69th Judicial Dist                   Erin Lands                            PRECINCT 7                                             01 
00250010008000156REP       REP Dist Attorney, 69th Judicial Dist                   Erin Lands                            PRECINCT 8                                             01 
00250010009000110REP       REP Dist Attorney, 69th Judicial Dist                   Erin Lands                            PRECINCT 9                                             01 
00250020001000046REP       REP Dist Attorney, 69th Judicial Dist                   Tim Salley                            PRECINCT 1                                             01 
00250020002000007REP       REP Dist Attorney, 69th Judicial Dist                   Tim Salley                            PRECINCT 2                                             01 
00250020003000006REP       REP Dist Attorney, 69th Judicial Dist                   Tim Salley                            PRECINCT 3                                             01 
00250020004000005REP       REP Dist Attorney, 69th Judicial Dist                   Tim Salley                            PRECINCT 4                                             01 
00250020005000002REP       REP Dist Attorney, 69th Judicial Dist                   Tim Salley                            PRECINCT 5                                             01 
00250020006000024REP       REP Dist Attorney, 69th Judicial Dist                   Tim Salley                            PRECINCT 6                                             01 
00250020007000042REP       REP Dist Attorney, 69th Judicial Dist                   Tim Salley                            PRECINCT 7                                             01 
00250020008000062REP       REP Dist Attorney, 69th Judicial Dist                   Tim Salley                            PRECINCT 8                                             01 
00250020009000039REP       REP Dist Attorney, 69th Judicial Dist                   Tim Salley                            PRECINCT 9                                             01 
00260010001000077REP       REP County Attorney                                     Whitney Hill                          PRECINCT 1                                             01 
00260010002000012REP       REP County Attorney                                     Whitney Hill                          PRECINCT 2                                             01 
00260010003000005REP       REP County Attorney                                     Whitney Hill                          PRECINCT 3                                             01 
00260010004000002REP       REP County Attorney                                     Whitney Hill                          PRECINCT 4                                             01 
00260010005000002REP       REP County Attorney                                     Whitney Hill                          PRECINCT 5                                             01 
00260010006000055REP       REP County Attorney                                     Whitney Hill                          PRECINCT 6                                             01 
00260010007000074REP       REP County Attorney                                     Whitney Hill                          PRECINCT 7                                             01 
00260010008000126REP       REP County Attorney                                     Whitney Hill                          PRECINCT 8                                             01 
00260010009000093REP       REP County Attorney                                     Whitney Hill                          PRECINCT 9                                             01 
00260020001000051REP       REP County Attorney                                     Jon King                              PRECINCT 1                                             01 
00260020002000021REP       REP County Attorney                                     Jon King                              PRECINCT 2                                             01 
00260020003000010REP       REP County Attorney                                     Jon King                              PRECINCT 3                                             01 
00260020004000009REP       REP County Attorney                                     Jon King                              PRECINCT 4                                             01 
00260020005000004REP       REP County Attorney                                     Jon King                              PRECINCT 5                                             01 
00260020006000041REP       REP County Attorney                                     Jon King                              PRECINCT 6                                             01 
00260020007000059REP       REP County Attorney                                     Jon King                              PRECINCT 7                                             01 
00260020008000096REP       REP County Attorney                                     Jon King                              PRECINCT 8                                             01 
00260020009000060REP       REP County Attorney                                     Jon King                              PRECINCT 9                                             01 
00270010001000058REP       REP Sheriff                                             Maxwell Morris                        PRECINCT 1                                             01 
00270010002000015REP       REP Sheriff                                             Maxwell Morris                        PRECINCT 2                                             01 
00270010003000003REP       REP Sheriff                                             Maxwell Morris                        PRECINCT 3                                             01 
00270010004000003REP       REP Sheriff                                             Maxwell Morris                        PRECINCT 4                                             01 
00270010005000003REP       REP Sheriff                                             Maxwell Morris                        PRECINCT 5                                             01 
00270010006000035REP       REP Sheriff                                             Maxwell Morris                        PRECINCT 6                                             01 
00270010007000057REP       REP Sheriff                                             Maxwell Morris                        PRECINCT 7                                             01 
00270010008000096REP       REP Sheriff                                             Maxwell Morris                        PRECINCT 8                                             01 
00270010009000068REP       REP Sheriff                                             Maxwell Morris                        PRECINCT 9                                             01 
00270020001000067REP       REP Sheriff                                             Shane Stevenson                       PRECINCT 1                                             01 
00270020002000018REP       REP Sheriff                                             Shane Stevenson                       PRECINCT 2                                             01 
00270020003000010REP       REP Sheriff                                             Shane Stevenson                       PRECINCT 3                                             01 
00270020004000007REP       REP Sheriff                                             Shane Stevenson                       PRECINCT 4                                             01 
00270020005000003REP       REP Sheriff                                             Shane Stevenson                       PRECINCT 5                                             01 
00270020006000059REP       REP Sheriff                                             Shane Stevenson                       PRECINCT 6                                             01 
00270020007000074REP       REP Sheriff                                             Shane Stevenson                       PRECINCT 7                                             01 
00270020008000130REP       REP Sheriff                                             Shane Stevenson                       PRECINCT 8                                             01 
00270020009000086REP       REP Sheriff                                             Shane Stevenson                       PRECINCT 9                                             01 
00280010001000112REP       REP County Tax Assessor-Collector                       Jamie Parr                            PRECINCT 1                                             01 
00280010002000030REP       REP County Tax Assessor-Collector                       Jamie Parr                            PRECINCT 2                                             01 
00280010003000014REP       REP County Tax Assessor-Collector                       Jamie Parr                            PRECINCT 3                                             01 
00280010004000009REP       REP County Tax Assessor-Collector                       Jamie Parr                            PRECINCT 4                                             01 
00280010005000006REP       REP County Tax Assessor-Collector                       Jamie Parr                            PRECINCT 5                                             01 
00280010006000091REP       REP County Tax Assessor-Collector                       Jamie Parr                            PRECINCT 6                                             01 
00280010007000118REP       REP County Tax Assessor-Collector                       Jamie Parr                            PRECINCT 7                                             01 
00280010008000206REP       REP County Tax Assessor-Collector                       Jamie Parr                            PRECINCT 8                                             01 
00280010009000141REP       REP County Tax Assessor-Collector                       Jamie Parr                            PRECINCT 9                                             01 
00290010001000032REPCOMPCT1REP County Commissioner Pct 1                           Daniel Martinez                       PRECINCT 1                    Pct 1                    01 
00290010006000030REPCOMPCT1REP County Commissioner Pct 1                           Daniel Martinez                       PRECINCT 6                    Pct 1                    01 
00290020001000103REPCOMPCT1REP County Commissioner Pct 1                           Carl McCarty                          PRECINCT 1                    Pct 1                    01 
00290020006000065REPCOMPCT1REP County Commissioner Pct 1                           Carl McCarty                          PRECINCT 6                    Pct 1                    01 
00300010003000013REPCOMPCT3REP County Commissioner Pct 3                           Levi James                            PRECINCT 3                    Pct 3                    01 
00300010005000006REPCOMPCT3REP County Commissioner Pct 3                           Levi James                            PRECINCT 5                    Pct 3                    01 
00300010009000136REPCOMPCT3REP County Commissioner Pct 3                           Levi James                            PRECINCT 9                    Pct 3                    01 
00310010001000107REP       REP Constable                                           Bruce Scott                           PRECINCT 1                                             01 
00310010002000029REP       REP Constable                                           Bruce Scott                           PRECINCT 2                                             01 
00310010003000015REP       REP Constable                                           Bruce Scott                           PRECINCT 3                                             01 
00310010004000009REP       REP Constable                                           Bruce Scott                           PRECINCT 4                                             01 
00310010005000006REP       REP Constable                                           Bruce Scott                           PRECINCT 5                                             01 
00310010006000088REP       REP Constable                                           Bruce Scott                           PRECINCT 6                                             01 
00310010007000116REP       REP Constable                                           Bruce Scott                           PRECINCT 7                                             01 
00310010008000206REP       REP Constable                                           Bruce Scott                           PRECINCT 8                                             01 
00310010009000143REP       REP Constable                                           Bruce Scott                           PRECINCT 9                                             01 
00320010001000113REP       REP Proposition 1                                       Yes                                   PRECINCT 1                                             01Y
00320010002000029REP       REP Proposition 1                                       Yes                                   PRECINCT 2                                             01Y
00320010003000013REP       REP Proposition 1                                       Yes                                   PRECINCT 3                                             01Y
00320010004000010REP       REP Proposition 1                                       Yes                                   PRECINCT 4                                             01Y
00320010005000008REP       REP Proposition 1                                       Yes                                   PRECINCT 5                                             01Y
