00010010001003534000000000000000000000000000000000000000000000000000000000000000000000000000000000000REP       REGISTERED VOTERS - Republican Party                    REGISTERED VOTERS - Republican Party  101                                                    00 
00010010002004361000000000000000000000000000000000000000000000000000000000000000000000000000000000000REP       REGISTERED VOTERS - Republican Party                    REGISTERED VOTERS - Republican Party  102                                                    00 
00010010003004774000000000000000000000000000000000000000000000000000000000000000000000000000000000000REP       REGISTERED VOTERS - Republican Party                    REGISTERED VOTERS - Republican Party  103                                                    00 
00010010004003639000000000000000000000000000000000000000000000000000000000000000000000000000000000000REP       REGISTERED VOTERS - Republican Party                    REGISTERED VOTERS - Republican Party  104                                                    00 
00010010005004582000000000000000000000000000000000000000000000000000000000000000000000000000000000000REP       REGISTERED VOTERS - Republican Party                    REGISTERED VOTERS - Republican Party  105                                                    00 
00010010006003242000000000000000000000000000000000000000000000000000000000000000000000000000000000000REP       REGISTERED VOTERS - Republican Party                    REGISTERED VOTERS - Republican Party  106                                                    00 
00010010007003622000000000000000000000000000000000000000000000000000000000000000000000000000000000000REP       REGISTERED VOTERS - Republican Party                    REGISTERED VOTERS - Republican Party  107                                                    00 
00010010008003273000000000000000000000000000000000000000000000000000000000000000000000000000000000000REP       REGISTERED VOTERS - Republican Party                    REGISTERED VOTERS - Republican Party  108                                                    00 
00010010009001920000000000000000000000000000000000000000000000000000000000000000000000000000000000000REP       REGISTERED VOTERS - Republican Party                    REGISTERED VOTERS - Republican Party  109                                                    00 
00010010010004399000000000000000000000000000000000000000000000000000000000000000000000000000000000000REP       REGISTERED VOTERS - Republican Party                    REGISTERED VOTERS - Republican Party  110                                                    00 
00010010011002284000000000000000000000000000000000000000000000000000000000000000000000000000000000000REP       REGISTERED VOTERS - Republican Party                    REGISTERED VOTERS - Republican Party  111                                                    00 
00010010012001894000000000000000000000000000000000000000000000000000000000000000000000000000000000000REP       REGISTERED VOTERS - Republican Party                    REGISTERED VOTERS - Republican Party  112                                                    00 
00010010013001980000000000000000000000000000000000000000000000000000000000000000000000000000000000000REP       REGISTERED VOTERS - Republican Party                    REGISTERED VOTERS - Republican Party  113                                                    00 
00010010014002176000000000000000000000000000000000000000000000000000000000000000000000000000000000000REP       REGISTERED VOTERS - Republican Party                    REGISTERED VOTERS - Republican Party  114                                                    00 
00010010015001825000000000000000000000000000000000000000000000000000000000000000000000000000000000000REP       REGISTERED VOTERS - Republican Party                    REGISTERED VOTERS - Republican Party  115                                                    00 
00010010016002134000000000000000000000000000000000000000000000000000000000000000000000000000000000000REP       REGISTERED VOTERS - Republican Party                    REGISTERED VOTERS - Republican Party  116                                                    00 
00010010017002680000000000000000000000000000000000000000000000000000000000000000000000000000000000000REP       REGISTERED VOTERS - Republican Party                    REGISTERED VOTERS - Republican Party  117                                                    00 
00010010018002794000000000000000000000000000000000000000000000000000000000000000000000000000000000000REP       REGISTERED VOTERS - Republican Party                    REGISTERED VOTERS - Republican Party  118                                                    00 
00010010019001464000000000000000000000000000000000000000000000000000000000000000000000000000000000000REP       REGISTERED VOTERS - Republican Party                    REGISTERED VOTERS - Republican Party  119                                                    00 
00010010020000660000000000000000000000000000000000000000000000000000000000000000000000000000000000000REP       REGISTERED VOTERS - Republican Party                    REGISTERED VOTERS - Republican Party  120                                                    00 
00010010021002229000000000000000000000000000000000000000000000000000000000000000000000000000000000000REP       REGISTERED VOTERS - Republican Party                    REGISTERED VOTERS - Republican Party  121                                                    00 
00010010022001235000000000000000000000000000000000000000000000000000000000000000000000000000000000000REP       REGISTERED VOTERS - Republican Party                    REGISTERED VOTERS - Republican Party  122                                                    00 
00010010023001037000000000000000000000000000000000000000000000000000000000000000000000000000000000000REP       REGISTERED VOTERS - Republican Party                    REGISTERED VOTERS - Republican Party  123                                                    00 
00010010024001706000000000000000000000000000000000000000000000000000000000000000000000000000000000000REP       REGISTERED VOTERS - Republican Party                    REGISTERED VOTERS - Republican Party  124                                                    00 
00010010025004051000000000000000000000000000000000000000000000000000000000000000000000000000000000000REP       REGISTERED VOTERS - Republican Party                    REGISTERED VOTERS - Republican Party  125                                                    00 
00010010026001059000000000000000000000000000000000000000000000000000000000000000000000000000000000000REP       REGISTERED VOTERS - Republican Party                    REGISTERED VOTERS - Republican Party  126                                                    00 
00010010027000468000000000000000000000000000000000000000000000000000000000000000000000000000000000000REP       REGISTERED VOTERS - Republican Party                    REGISTERED VOTERS - Republican Party  127                                                    00 
00010010028000208000000000000000000000000000000000000000000000000000000000000000000000000000000000000REP       REGISTERED VOTERS - Republican Party                    REGISTERED VOTERS - Republican Party  128                                                    00 
00010010029000825000000000000000000000000000000000000000000000000000000000000000000000000000000000000REP       REGISTERED VOTERS - Republican Party                    REGISTERED VOTERS - Republican Party  129                                                    00 
00010010030000653000000000000000000000000000000000000000000000000000000000000000000000000000000000000REP       REGISTERED VOTERS - Republican Party                    REGISTERED VOTERS - Republican Party  130                                                    00 
00010010031001904000000000000000000000000000000000000000000000000000000000000000000000000000000000000REP       REGISTERED VOTERS - Republican Party                    REGISTERED VOTERS - Republican Party  131                                                    00 
00010010032000632000000000000000000000000000000000000000000000000000000000000000000000000000000000000REP       REGISTERED VOTERS - Republican Party                    REGISTERED VOTERS - Republican Party  132                                                    00 
00010010033000602000000000000000000000000000000000000000000000000000000000000000000000000000000000000REP       REGISTERED VOTERS - Republican Party                    REGISTERED VOTERS - Republican Party  133                                                    00 
00010010034000737000000000000000000000000000000000000000000000000000000000000000000000000000000000000REP       REGISTERED VOTERS - Republican Party                    REGISTERED VOTERS - Republican Party  134                                                    00 
00010010035003943000000000000000000000000000000000000000000000000000000000000000000000000000000000000REP       REGISTERED VOTERS - Republican Party                    REGISTERED VOTERS - Republican Party  135                                                    00 
00010010036000505000000000000000000000000000000000000000000000000000000000000000000000000000000000000REP       REGISTERED VOTERS - Republican Party                    REGISTERED VOTERS - Republican Party  136                                                    00 
00010010037001215000000000000000000000000000000000000000000000000000000000000000000000000000000000000REP       REGISTERED VOTERS - Republican Party                    REGISTERED VOTERS - Republican Party  137                                                    00 
00010010038002069000000000000000000000000000000000000000000000000000000000000000000000000000000000000REP       REGISTERED VOTERS - Republican Party                    REGISTERED VOTERS - Republican Party  138                                                    00 
00010010039001026000000000000000000000000000000000000000000000000000000000000000000000000000000000000REP       REGISTERED VOTERS - Republican Party                    REGISTERED VOTERS - Republican Party  139                                                    00 
00010010040005241000000000000000000000000000000000000000000000000000000000000000000000000000000000000REP       REGISTERED VOTERS - Republican Party                    REGISTERED VOTERS - Republican Party  140                                                    00 
00010010041001989000000000000000000000000000000000000000000000000000000000000000000000000000000000000REP       REGISTERED VOTERS - Republican Party                    REGISTERED VOTERS - Republican Party  141                                                    00 
00010010042002221000000000000000000000000000000000000000000000000000000000000000000000000000000000000REP       REGISTERED VOTERS - Republican Party                    REGISTERED VOTERS - Republican Party  142                                                    00 
00010010043002980000000000000000000000000000000000000000000000000000000000000000000000000000000000000REP       REGISTERED VOTERS - Republican Party                    REGISTERED VOTERS - Republican Party  143                                                    00 
00010010044002050000000000000000000000000000000000000000000000000000000000000000000000000000000000000REP       REGISTERED VOTERS - Republican Party                    REGISTERED VOTERS - Republican Party  144                                                    00 
00010010045003807000000000000000000000000000000000000000000000000000000000000000000000000000000000000REP       REGISTERED VOTERS - Republican Party                    REGISTERED VOTERS - Republican Party  145                                                    00 
00010010046002835000000000000000000000000000000000000000000000000000000000000000000000000000000000000REP       REGISTERED VOTERS - Republican Party                    REGISTERED VOTERS - Republican Party  146                                                    00 
00010010047004090000000000000000000000000000000000000000000000000000000000000000000000000000000000000REP       REGISTERED VOTERS - Republican Party                    REGISTERED VOTERS - Republican Party  147                                                    00 
00010010048002836000000000000000000000000000000000000000000000000000000000000000000000000000000000000REP       REGISTERED VOTERS - Republican Party                    REGISTERED VOTERS - Republican Party  148                                                    00 
00010010049001477000000000000000000000000000000000000000000000000000000000000000000000000000000000000REP       REGISTERED VOTERS - Republican Party                    REGISTERED VOTERS - Republican Party  149                                                    00 
00040010001000930000042000451000437000000000000000000000000000000000000000000000000000000000000000000          BALLOTS CAST - TOTAL                                    BALLOTS CAST - TOTAL                  101                                                    00 
00040010002001020000058000487000475000000000000000000000000000000000000000000000000000000000000000000          BALLOTS CAST - TOTAL                                    BALLOTS CAST - TOTAL                  102                                                    00 
00040010003001205000036000544000625000000000000000000000000000000000000000000000000000000000000000000          BALLOTS CAST - TOTAL                                    BALLOTS CAST - TOTAL                  103                                                    00 
00040010004001063000027000525000511000000000000000000000000000000000000000000000000000000000000000000          BALLOTS CAST - TOTAL                                    BALLOTS CAST - TOTAL                  104                                                    00 
00040010005001497000058000737000702000000000000000000000000000000000000000000000000000000000000000000          BALLOTS CAST - TOTAL                                    BALLOTS CAST - TOTAL                  105                                                    00 
00040010006001055000043000560000452000000000000000000000000000000000000000000000000000000000000000000          BALLOTS CAST - TOTAL                                    BALLOTS CAST - TOTAL                  106                                                    00 
00040010007001199000047000508000644000000000000000000000000000000000000000000000000000000000000000000          BALLOTS CAST - TOTAL                                    BALLOTS CAST - TOTAL                  107                                                    00 
00040010008001044000053000471000520000000000000000000000000000000000000000000000000000000000000000000          BALLOTS CAST - TOTAL                                    BALLOTS CAST - TOTAL                  108                                                    00 
00040010009000680000039000255000386000000000000000000000000000000000000000000000000000000000000000000          BALLOTS CAST - TOTAL                                    BALLOTS CAST - TOTAL                  109                                                    00 
00040010010001287000063000483000741000000000000000000000000000000000000000000000000000000000000000000          BALLOTS CAST - TOTAL                                    BALLOTS CAST - TOTAL                  110                                                    00 
00040010011000847000044000461000342000000000000000000000000000000000000000000000000000000000000000000          BALLOTS CAST - TOTAL                                    BALLOTS CAST - TOTAL                  111                                                    00 
00040010012000631000029000320000282000000000000000000000000000000000000000000000000000000000000000000          BALLOTS CAST - TOTAL                                    BALLOTS CAST - TOTAL                  112                                                    00 
00040010013000323000028000102000193000000000000000000000000000000000000000000000000000000000000000000          BALLOTS CAST - TOTAL                                    BALLOTS CAST - TOTAL                  113                                                    00 
00040010014000642000053000314000275000000000000000000000000000000000000000000000000000000000000000000          BALLOTS CAST - TOTAL                                    BALLOTS CAST - TOTAL                  114                                                    00 
00040010015000489000029000244000216000000000000000000000000000000000000000000000000000000000000000000          BALLOTS CAST - TOTAL                                    BALLOTS CAST - TOTAL                  115                                                    00 
00040010016000630000037000299000294000000000000000000000000000000000000000000000000000000000000000000          BALLOTS CAST - TOTAL                                    BALLOTS CAST - TOTAL                  116                                                    00 
00040010017000703000047000333000323000000000000000000000000000000000000000000000000000000000000000000          BALLOTS CAST - TOTAL                                    BALLOTS CAST - TOTAL                  117                                                    00 
00040010018000877000109000463000305000000000000000000000000000000000000000000000000000000000000000000          BALLOTS CAST - TOTAL                                    BALLOTS CAST - TOTAL                  118                                                    00 
00040010019000507000028000283000196000000000000000000000000000000000000000000000000000000000000000000          BALLOTS CAST - TOTAL                                    BALLOTS CAST - TOTAL                  119                                                    00 
00040010020000164000018000081000065000000000000000000000000000000000000000000000000000000000000000000          BALLOTS CAST - TOTAL                                    BALLOTS CAST - TOTAL                  120                                                    00 
00040010021000706000050000413000243000000000000000000000000000000000000000000000000000000000000000000          BALLOTS CAST - TOTAL                                    BALLOTS CAST - TOTAL                  121                                                    00 
00040010022000445000028000222000195000000000000000000000000000000000000000000000000000000000000000000          BALLOTS CAST - TOTAL                                    BALLOTS CAST - TOTAL                  122                                                    00 
00040010023000150000022000051000077000000000000000000000000000000000000000000000000000000000000000000          BALLOTS CAST - TOTAL                                    BALLOTS CAST - TOTAL                  123                                                    00 
00040010024000245000018000086000141000000000000000000000000000000000000000000000000000000000000000000          BALLOTS CAST - TOTAL                                    BALLOTS CAST - TOTAL                  124                                                    00 
00040010025001059000051000588000420000000000000000000000000000000000000000000000000000000000000000000          BALLOTS CAST - TOTAL                                    BALLOTS CAST - TOTAL                  125                                                    00 
00040010026000279000017000149000113000000000000000000000000000000000000000000000000000000000000000000          BALLOTS CAST - TOTAL                                    BALLOTS CAST - TOTAL                  126                                                    00 
00040010027000122000012000059000051000000000000000000000000000000000000000000000000000000000000000000          BALLOTS CAST - TOTAL                                    BALLOTS CAST - TOTAL                  127                                                    00 
00040010028000034000002000019000013000000000000000000000000000000000000000000000000000000000000000000          BALLOTS CAST - TOTAL                                    BALLOTS CAST - TOTAL                  128                                                    00 
00040010029000208000007000105000096000000000000000000000000000000000000000000000000000000000000000000          BALLOTS CAST - TOTAL                                    BALLOTS CAST - TOTAL                  129                                                    00 
00040010030000189000004000032000153000000000000000000000000000000000000000000000000000000000000000000          BALLOTS CAST - TOTAL                                    BALLOTS CAST - TOTAL                  130                                                    00 
00040010031000558000028000121000409000000000000000000000000000000000000000000000000000000000000000000          BALLOTS CAST - TOTAL                                    BALLOTS CAST - TOTAL                  131                                                    00 
00040010032000178000016000071000091000000000000000000000000000000000000000000000000000000000000000000          BALLOTS CAST - TOTAL                                    BALLOTS CAST - TOTAL                  132                                                    00 
00040010033000158000012000063000083000000000000000000000000000000000000000000000000000000000000000000          BALLOTS CAST - TOTAL                                    BALLOTS CAST - TOTAL                  133                                                    00 
00040010034000262000011000159000092000000000000000000000000000000000000000000000000000000000000000000          BALLOTS CAST - TOTAL                                    BALLOTS CAST - TOTAL                  134                                                    00 
00040010035001280000062000488000730000000000000000000000000000000000000000000000000000000000000000000          BALLOTS CAST - TOTAL                                    BALLOTS CAST - TOTAL                  135                                                    00 
00040010036000210000008000132000070000000000000000000000000000000000000000000000000000000000000000000          BALLOTS CAST - TOTAL                                    BALLOTS CAST - TOTAL                  136                                                    00 
00040010037000414000019000195000200000000000000000000000000000000000000000000000000000000000000000000          BALLOTS CAST - TOTAL                                    BALLOTS CAST - TOTAL                  137                                                    00 
00040010038000520000012000302000206000000000000000000000000000000000000000000000000000000000000000000          BALLOTS CAST - TOTAL                                    BALLOTS CAST - TOTAL                  138                                                    00 
00040010039000417000023000218000176000000000000000000000000000000000000000000000000000000000000000000          BALLOTS CAST - TOTAL                                    BALLOTS CAST - TOTAL                  139                                                    00 
00040010040001605000098000761000746000000000000000000000000000000000000000000000000000000000000000000          BALLOTS CAST - TOTAL                                    BALLOTS CAST - TOTAL                  140                                                    00 
00040010041000633000037000269000327000000000000000000000000000000000000000000000000000000000000000000          BALLOTS CAST - TOTAL                                    BALLOTS CAST - TOTAL                  141                                                    00 
00040010042000632000040000325000267000000000000000000000000000000000000000000000000000000000000000000          BALLOTS CAST - TOTAL                                    BALLOTS CAST - TOTAL                  142                                                    00 
00040010043000995000044000503000448000000000000000000000000000000000000000000000000000000000000000000          BALLOTS CAST - TOTAL                                    BALLOTS CAST - TOTAL                  143                                                    00 
00040010044000609000028000240000341000000000000000000000000000000000000000000000000000000000000000000          BALLOTS CAST - TOTAL                                    BALLOTS CAST - TOTAL                  144                                                    00 
00040010045000901000065000338000498000000000000000000000000000000000000000000000000000000000000000000          BALLOTS CAST - TOTAL                                    BALLOTS CAST - TOTAL                  145                                                    00 
00040010046000743000039000331000373000000000000000000000000000000000000000000000000000000000000000000          BALLOTS CAST - TOTAL                                    BALLOTS CAST - TOTAL                  146                                                    00 
00040010047001094000061000532000501000000000000000000000000000000000000000000000000000000000000000000          BALLOTS CAST - TOTAL                                    BALLOTS CAST - TOTAL                  147                                                    00 
00040010048000575000033000172000370000000000000000000000000000000000000000000000000000000000000000000          BALLOTS CAST - TOTAL                                    BALLOTS CAST - TOTAL                  148                                                    00 
00040010049000349000021000089000239000000000000000000000000000000000000000000000000000000000000000000          BALLOTS CAST - TOTAL                                    BALLOTS CAST - TOTAL                  149                                                    00 
00050010001000630000032000326000272000000000000000000000000000000000000000000000000000000000000000000REP       BALLOTS CAST - Republican Party                         BALLOTS CAST - Republican Party       101                                                    00 
00050010002000741000042000404000295000000000000000000000000000000000000000000000000000000000000000000REP       BALLOTS CAST - Republican Party                         BALLOTS CAST - Republican Party       102                                                    00 
00050010003000823000027000408000388000000000000000000000000000000000000000000000000000000000000000000REP       BALLOTS CAST - Republican Party                         BALLOTS CAST - Republican Party       103                                                    00 
00050010004000805000021000430000354000000000000000000000000000000000000000000000000000000000000000000REP       BALLOTS CAST - Republican Party                         BALLOTS CAST - Republican Party       104                                                    00 
00050010005001113000039000612000462000000000000000000000000000000000000000000000000000000000000000000REP       BALLOTS CAST - Republican Party                         BALLOTS CAST - Republican Party       105                                                    00 
00050010006000840000034000474000332000000000000000000000000000000000000000000000000000000000000000000REP       BALLOTS CAST - Republican Party                         BALLOTS CAST - Republican Party       106                                                    00 
00050010007000843000027000397000419000000000000000000000000000000000000000000000000000000000000000000REP       BALLOTS CAST - Republican Party                         BALLOTS CAST - Republican Party       107                                                    00 
00050010008000744000040000360000344000000000000000000000000000000000000000000000000000000000000000000REP       BALLOTS CAST - Republican Party                         BALLOTS CAST - Republican Party       108                                                    00 
00050010009000481000026000199000256000000000000000000000000000000000000000000000000000000000000000000REP       BALLOTS CAST - Republican Party                         BALLOTS CAST - Republican Party       109                                                    00 
00050010010000643000035000303000305000000000000000000000000000000000000000000000000000000000000000000REP       BALLOTS CAST - Republican Party                         BALLOTS CAST - Republican Party       110                                                    00 
00050010011000639000037000382000220000000000000000000000000000000000000000000000000000000000000000000REP       BALLOTS CAST - Republican Party                         BALLOTS CAST - Republican Party       111                                                    00 
00050010012000495000023000268000204000000000000000000000000000000000000000000000000000000000000000000REP       BALLOTS CAST - Republican Party                         BALLOTS CAST - Republican Party       112                                                    00 
00050010013000094000002000047000045000000000000000000000000000000000000000000000000000000000000000000REP       BALLOTS CAST - Republican Party                         BALLOTS CAST - Republican Party       113                                                    00 
00050010014000466000027000259000180000000000000000000000000000000000000000000000000000000000000000000REP       BALLOTS CAST - Republican Party                         BALLOTS CAST - Republican Party       114                                                    00 
00050010015000324000018000180000126000000000000000000000000000000000000000000000000000000000000000000REP       BALLOTS CAST - Republican Party                         BALLOTS CAST - Republican Party       115                                                    00 
00050010016000459000028000229000202000000000000000000000000000000000000000000000000000000000000000000REP       BALLOTS CAST - Republican Party                         BALLOTS CAST - Republican Party       116                                                    00 
00050010017000509000028000267000214000000000000000000000000000000000000000000000000000000000000000000REP       BALLOTS CAST - Republican Party                         BALLOTS CAST - Republican Party       117                                                    00 
00050010018000648000083000366000199000000000000000000000000000000000000000000000000000000000000000000REP       BALLOTS CAST - Republican Party                         BALLOTS CAST - Republican Party       118                                                    00 
00050010019000394000019000235000140000000000000000000000000000000000000000000000000000000000000000000REP       BALLOTS CAST - Republican Party                         BALLOTS CAST - Republican Party       119                                                    00 
00050010020000127000015000068000044000000000000000000000000000000000000000000000000000000000000000000REP       BALLOTS CAST - Republican Party                         BALLOTS CAST - Republican Party       120                                                    00 
00050010021000547000033000360000154000000000000000000000000000000000000000000000000000000000000000000REP       BALLOTS CAST - Republican Party                         BALLOTS CAST - Republican Party       121                                                    00 
00050010022000344000021000186000137000000000000000000000000000000000000000000000000000000000000000000REP       BALLOTS CAST - Republican Party                         BALLOTS CAST - Republican Party       122                                                    00 
00050010023000030000000000019000011000000000000000000000000000000000000000000000000000000000000000000REP       BALLOTS CAST - Republican Party                         BALLOTS CAST - Republican Party       123                                                    00 
00050010024000083000004000035000044000000000000000000000000000000000000000000000000000000000000000000REP       BALLOTS CAST - Republican Party                         BALLOTS CAST - Republican Party       124                                                    00 
00050010025000821000031000498000292000000000000000000000000000000000000000000000000000000000000000000REP       BALLOTS CAST - Republican Party                         BALLOTS CAST - Republican Party       125                                                    00 
00050010026000210000015000118000077000000000000000000000000000000000000000000000000000000000000000000REP       BALLOTS CAST - Republican Party                         BALLOTS CAST - Republican Party       126                                                    00 
00050010027000095000006000054000035000000000000000000000000000000000000000000000000000000000000000000REP       BALLOTS CAST - Republican Party                         BALLOTS CAST - Republican Party       127                                                    00 
00050010028000014000001000010000003000000000000000000000000000000000000000000000000000000000000000000REP       BALLOTS CAST - Republican Party                         BALLOTS CAST - Republican Party       128                                                    00 
00050010029000153000005000082000066000000000000000000000000000000000000000000000000000000000000000000REP       BALLOTS CAST - Republican Party                         BALLOTS CAST - Republican Party       129                                                    00 
00050010030000139000004000029000106000000000000000000000000000000000000000000000000000000000000000000REP       BALLOTS CAST - Republican Party                         BALLOTS CAST - Republican Party       130                                                    00 
00050010031000406000019000098000289000000000000000000000000000000000000000000000000000000000000000000REP       BALLOTS CAST - Republican Party                         BALLOTS CAST - Republican Party       131                                                    00 
00050010032000149000013000061000075000000000000000000000000000000000000000000000000000000000000000000REP       BALLOTS CAST - Republican Party                         BALLOTS CAST - Republican Party       132                                                    00 
00050010033000124000009000057000058000000000000000000000000000000000000000000000000000000000000000000REP       BALLOTS CAST - Republican Party                         BALLOTS CAST - Republican Party       133                                                    00 
00050010034000230000009000147000074000000000000000000000000000000000000000000000000000000000000000000REP       BALLOTS CAST - Republican Party                         BALLOTS CAST - Republican Party       134                                                    00 
00050010035001088000051000431000606000000000000000000000000000000000000000000000000000000000000000000REP       BALLOTS CAST - Republican Party                         BALLOTS CAST - Republican Party       135                                                    00 
00050010036000166000005000105000056000000000000000000000000000000000000000000000000000000000000000000REP       BALLOTS CAST - Republican Party                         BALLOTS CAST - Republican Party       136                                                    00 
00050010037000324000011000171000142000000000000000000000000000000000000000000000000000000000000000000REP       BALLOTS CAST - Republican Party                         BALLOTS CAST - Republican Party       137                                                    00 
00050010038000418000010000259000149000000000000000000000000000000000000000000000000000000000000000000REP       BALLOTS CAST - Republican Party                         BALLOTS CAST - Republican Party       138                                                    00 
00050010039000340000019000185000136000000000000000000000000000000000000000000000000000000000000000000REP       BALLOTS CAST - Republican Party                         BALLOTS CAST - Republican Party       139                                                    00 
00050010040001103000077000571000455000000000000000000000000000000000000000000000000000000000000000000REP       BALLOTS CAST - Republican Party                         BALLOTS CAST - Republican Party       140                                                    00 
00050010041000475000027000222000226000000000000000000000000000000000000000000000000000000000000000000REP       BALLOTS CAST - Republican Party                         BALLOTS CAST - Republican Party       141                                                    00 
00050010042000483000026000267000190000000000000000000000000000000000000000000000000000000000000000000REP       BALLOTS CAST - Republican Party                         BALLOTS CAST - Republican Party       142                                                    00 
00050010043000726000034000408000284000000000000000000000000000000000000000000000000000000000000000000REP       BALLOTS CAST - Republican Party                         BALLOTS CAST - Republican Party       143                                                    00 
00050010044000218000006000115000097000000000000000000000000000000000000000000000000000000000000000000REP       BALLOTS CAST - Republican Party                         BALLOTS CAST - Republican Party       144                                                    00 
00050010045000396000031000189000176000000000000000000000000000000000000000000000000000000000000000000REP       BALLOTS CAST - Republican Party                         BALLOTS CAST - Republican Party       145                                                    00 
00050010046000426000027000225000174000000000000000000000000000000000000000000000000000000000000000000REP       BALLOTS CAST - Republican Party                         BALLOTS CAST - Republican Party       146                                                    00 
00050010047000738000034000396000308000000000000000000000000000000000000000000000000000000000000000000REP       BALLOTS CAST - Republican Party                         BALLOTS CAST - Republican Party       147                                                    00 
00050010048000300000013000106000181000000000000000000000000000000000000000000000000000000000000000000REP       BALLOTS CAST - Republican Party                         BALLOTS CAST - Republican Party       148                                                    00 
00050010049000226000014000070000142000000000000000000000000000000000000000000000000000000000000000000REP       BALLOTS CAST - Republican Party                         BALLOTS CAST - Republican Party       149                                                    00 
00060010001000001000000000001000000000000000000000000000000000000000000000000000000000000000000000000REP       REP President                                           Roque Rocky DeLa Fuente Guerra        101                                                    01 
00060010002000003000000000003000000000000000000000000000000000000000000000000000000000000000000000000REP       REP President                                           Roque Rocky DeLa Fuente Guerra        102                                                    01 
00060010003000001000000000000000001000000000000000000000000000000000000000000000000000000000000000000REP       REP President                                           Roque Rocky DeLa Fuente Guerra        103                                                    01 
00060010004000008000000000003000005000000000000000000000000000000000000000000000000000000000000000000REP       REP President                                           Roque Rocky DeLa Fuente Guerra        104                                                    01 
00060010005000001000000000000000001000000000000000000000000000000000000000000000000000000000000000000REP       REP President                                           Roque Rocky DeLa Fuente Guerra        105                                                    01 
00060010006000002000000000002000000000000000000000000000000000000000000000000000000000000000000000000REP       REP President                                           Roque Rocky DeLa Fuente Guerra        106                                                    01 
00060010007000000000000000000000000000000000000000000000000000000000000000000000000000000000000000000REP       REP President                                           Roque Rocky DeLa Fuente Guerra        107                                                    01 
00060010008000001000000000001000000000000000000000000000000000000000000000000000000000000000000000000REP       REP President                                           Roque Rocky DeLa Fuente Guerra        108                                                    01 
00060010009000003000001000001000001000000000000000000000000000000000000000000000000000000000000000000REP       REP President                                           Roque Rocky DeLa Fuente Guerra        109                                                    01 
00060010010000005000000000002000003000000000000000000000000000000000000000000000000000000000000000000REP       REP President                                           Roque Rocky DeLa Fuente Guerra        110                                                    01 
00060010011000002000000000001000001000000000000000000000000000000000000000000000000000000000000000000REP       REP President                                           Roque Rocky DeLa Fuente Guerra        111                                                    01 
00060010012000001000000000000000001000000000000000000000000000000000000000000000000000000000000000000REP       REP President                                           Roque Rocky DeLa Fuente Guerra        112                                                    01 
00060010013000001000000000000000001000000000000000000000000000000000000000000000000000000000000000000REP       REP President                                           Roque Rocky DeLa Fuente Guerra        113                                                    01 
00060010014000006000000000005000001000000000000000000000000000000000000000000000000000000000000000000REP       REP President                                           Roque Rocky DeLa Fuente Guerra        114                                                    01 
00060010015000002000000000001000001000000000000000000000000000000000000000000000000000000000000000000REP       REP President                                           Roque Rocky DeLa Fuente Guerra        115                                                    01 
00060010016000001000000000001000000000000000000000000000000000000000000000000000000000000000000000000REP       REP President                                           Roque Rocky DeLa Fuente Guerra        116                                                    01 
00060010017000004000000000002000002000000000000000000000000000000000000000000000000000000000000000000REP       REP President                                           Roque Rocky DeLa Fuente Guerra        117                                                    01 
00060010018000006000002000003000001000000000000000000000000000000000000000000000000000000000000000000REP       REP President                                           Roque Rocky DeLa Fuente Guerra        118                                                    01 
00060010019000002000000000001000001000000000000000000000000000000000000000000000000000000000000000000REP       REP President                                           Roque Rocky DeLa Fuente Guerra        119                                                    01 
00060010020000001000000000001000000000000000000000000000000000000000000000000000000000000000000000000REP       REP President                                           Roque Rocky DeLa Fuente Guerra        120                                                    01 
00060010021000003000000000003000000000000000000000000000000000000000000000000000000000000000000000000REP       REP President                                           Roque Rocky DeLa Fuente Guerra        121                                                    01 
00060010022000001000000000001000000000000000000000000000000000000000000000000000000000000000000000000REP       REP President                                           Roque Rocky DeLa Fuente Guerra        122                                                    01 
00060010023000001000000000001000000000000000000000000000000000000000000000000000000000000000000000000REP       REP President                                           Roque Rocky DeLa Fuente Guerra        123                                                    01 
00060010024000001000000000001000000000000000000000000000000000000000000000000000000000000000000000000REP       REP President                                           Roque Rocky DeLa Fuente Guerra        124                                                    01 
00060010025000002000000000001000001000000000000000000000000000000000000000000000000000000000000000000REP       REP President                                           Roque Rocky DeLa Fuente Guerra        125                                                    01 
00060010026000003000001000001000001000000000000000000000000000000000000000000000000000000000000000000REP       REP President                                           Roque Rocky DeLa Fuente Guerra        126                                                    01 
00060010027000002000000000001000001000000000000000000000000000000000000000000000000000000000000000000REP       REP President                                           Roque Rocky DeLa Fuente Guerra        127                                                    01 
00060010028000001000000000000000001000000000000000000000000000000000000000000000000000000000000000000REP       REP President                                           Roque Rocky DeLa Fuente Guerra        128                                                    01 
00060010029000001000000000001000000000000000000000000000000000000000000000000000000000000000000000000REP       REP President                                           Roque Rocky DeLa Fuente Guerra        129                                                    01 
00060010030000000000000000000000000000000000000000000000000000000000000000000000000000000000000000000REP       REP President                                           Roque Rocky DeLa Fuente Guerra        130                                                    01 
00060010031000001000000000000000001000000000000000000000000000000000000000000000000000000000000000000REP       REP President                                           Roque Rocky DeLa Fuente Guerra        131                                                    01 
00060010032000001000000000000000001000000000000000000000000000000000000000000000000000000000000000000REP       REP President                                           Roque Rocky DeLa Fuente Guerra        132                                                    01 
00060010033000000000000000000000000000000000000000000000000000000000000000000000000000000000000000000REP       REP President                                           Roque Rocky DeLa Fuente Guerra        133                                                    01 
00060010034000002000000000001000001000000000000000000000000000000000000000000000000000000000000000000REP       REP President                                           Roque Rocky DeLa Fuente Guerra        134                                                    01 
00060010035000002000001000000000001000000000000000000000000000000000000000000000000000000000000000000REP       REP President                                           Roque Rocky DeLa Fuente Guerra        135                                                    01 
00060010036000000000000000000000000000000000000000000000000000000000000000000000000000000000000000000REP       REP President                                           Roque Rocky DeLa Fuente Guerra        136                                                    01 
00060010037000000000000000000000000000000000000000000000000000000000000000000000000000000000000000000REP       REP President                                           Roque Rocky DeLa Fuente Guerra        137                                                    01 
00060010038000002000000000002000000000000000000000000000000000000000000000000000000000000000000000000REP       REP President                                           Roque Rocky DeLa Fuente Guerra        138                                                    01 
00060010039000005000000000004000001000000000000000000000000000000000000000000000000000000000000000000REP       REP President                                           Roque Rocky DeLa Fuente Guerra        139                                                    01 
00060010040000004000000000003000001000000000000000000000000000000000000000000000000000000000000000000REP       REP President                                           Roque Rocky DeLa Fuente Guerra        140                                                    01 
00060010041000002000000000002000000000000000000000000000000000000000000000000000000000000000000000000REP       REP President                                           Roque Rocky DeLa Fuente Guerra        141                                                    01 
00060010042000001000000000001000000000000000000000000000000000000000000000000000000000000000000000000REP       REP President                                           Roque Rocky DeLa Fuente Guerra        142                                                    01 
00060010043000002000000000000000002000000000000000000000000000000000000000000000000000000000000000000REP       REP President                                           Roque Rocky DeLa Fuente Guerra        143                                                    01 
00060010044000002000000000000000002000000000000000000000000000000000000000000000000000000000000000000REP       REP President                                           Roque Rocky DeLa Fuente Guerra        144                                                    01 
00060010045000002000000000000000002000000000000000000000000000000000000000000000000000000000000000000REP       REP President                                           Roque Rocky DeLa Fuente Guerra        145                                                    01 
00060010046000002000000000000000002000000000000000000000000000000000000000000000000000000000000000000REP       REP President                                           Roque Rocky DeLa Fuente Guerra        146                                                    01 
00060010047000001000000000001000000000000000000000000000000000000000000000000000000000000000000000000REP       REP President                                           Roque Rocky DeLa Fuente Guerra        147                                                    01 
00060010048000005000000000002000003000000000000000000000000000000000000000000000000000000000000000000REP       REP President                                           Roque Rocky DeLa Fuente Guerra        148                                                    01 
00060010049000001000000000000000001000000000000000000000000000000000000000000000000000000000000000000REP       REP President                                           Roque Rocky DeLa Fuente Guerra        149                                                    01 
00060020001000594000030000306000258000000000000000000000000000000000000000000000000000000000000000000REP       REP President                                           Donald J. Trump                       101                                                    01 
00060020002000701000039000384000278000000000000000000000000000000000000000000000000000000000000000000REP       REP President                                           Donald J. Trump                       102                                                    01 
00060020003000779000026000390000363000000000000000000000000000000000000000000000000000000000000000000REP       REP President                                           Donald J. Trump                       103                                                    01 
00060020004000756000019000404000333000000000000000000000000000000000000000000000000000000000000000000REP       REP President                                           Donald J. Trump                       104                                                    01 
00060020005001050000038000573000439000000000000000000000000000000000000000000000000000000000000000000REP       REP President                                           Donald J. Trump                       105                                                    01 
00060020006000812000033000457000322000000000000000000000000000000000000000000000000000000000000000000REP       REP President                                           Donald J. Trump                       106                                                    01 
00060020007000807000024000385000398000000000000000000000000000000000000000000000000000000000000000000REP       REP President                                           Donald J. Trump                       107                                                    01 
00060020008000719000040000351000328000000000000000000000000000000000000000000000000000000000000000000REP       REP President                                           Donald J. Trump                       108                                                    01 
00060020009000463000025000192000246000000000000000000000000000000000000000000000000000000000000000000REP       REP President                                           Donald J. Trump                       109                                                    01 
00060020010000603000032000290000281000000000000000000000000000000000000000000000000000000000000000000REP       REP President                                           Donald J. Trump                       110                                                    01 
00060020011000595000035000353000207000000000000000000000000000000000000000000000000000000000000000000REP       REP President                                           Donald J. Trump                       111                                                    01 
00060020012000466000023000249000194000000000000000000000000000000000000000000000000000000000000000000REP       REP President                                           Donald J. Trump                       112                                                    01 
00060020013000087000002000044000041000000000000000000000000000000000000000000000000000000000000000000REP       REP President                                           Donald J. Trump                       113                                                    01 
00060020014000427000025000234000168000000000000000000000000000000000000000000000000000000000000000000REP       REP President                                           Donald J. Trump                       114                                                    01 
00060020015000298000016000168000114000000000000000000000000000000000000000000000000000000000000000000REP       REP President                                           Donald J. Trump                       115                                                    01 
00060020016000423000025000212000186000000000000000000000000000000000000000000000000000000000000000000REP       REP President                                           Donald J. Trump                       116                                                    01 
00060020017000463000028000240000195000000000000000000000000000000000000000000000000000000000000000000REP       REP President                                           Donald J. Trump                       117                                                    01 
00060020018000582000076000327000179000000000000000000000000000000000000000000000000000000000000000000REP       REP President                                           Donald J. Trump                       118                                                    01 
00060020019000368000019000221000128000000000000000000000000000000000000000000000000000000000000000000REP       REP President                                           Donald J. Trump                       119                                                    01 
00060020020000119000013000065000041000000000000000000000000000000000000000000000000000000000000000000REP       REP President                                           Donald J. Trump                       120                                                    01 
00060020021000508000029000336000143000000000000000000000000000000000000000000000000000000000000000000REP       REP President                                           Donald J. Trump                       121                                                    01 
00060020022000313000020000163000130000000000000000000000000000000000000000000000000000000000000000000REP       REP President                                           Donald J. Trump                       122                                                    01 
00060020023000022000000000012000010000000000000000000000000000000000000000000000000000000000000000000REP       REP President                                           Donald J. Trump                       123                                                    01 
00060020024000073000004000028000041000000000000000000000000000000000000000000000000000000000000000000REP       REP President                                           Donald J. Trump                       124                                                    01 
00060020025000773000030000467000276000000000000000000000000000000000000000000000000000000000000000000REP       REP President                                           Donald J. Trump                       125                                                    01 
00060020026000186000013000101000072000000000000000000000000000000000000000000000000000000000000000000REP       REP President                                           Donald J. Trump                       126                                                    01 
00060020027000087000006000049000032000000000000000000000000000000000000000000000000000000000000000000REP       REP President                                           Donald J. Trump                       127                                                    01 
00060020028000013000001000010000002000000000000000000000000000000000000000000000000000000000000000000REP       REP President                                           Donald J. Trump                       128                                                    01 
00060020029000146000005000076000065000000000000000000000000000000000000000000000000000000000000000000REP       REP President                                           Donald J. Trump                       129                                                    01 
00060020030000131000004000023000104000000000000000000000000000000000000000000000000000000000000000000REP       REP President                                           Donald J. Trump                       130                                                    01 
00060020031000393000019000096000278000000000000000000000000000000000000000000000000000000000000000000REP       REP President                                           Donald J. Trump                       131                                                    01 
00060020032000143000013000058000072000000000000000000000000000000000000000000000000000000000000000000REP       REP President                                           Donald J. Trump                       132                                                    01 
00060020033000122000009000056000057000000000000000000000000000000000000000000000000000000000000000000REP       REP President                                           Donald J. Trump                       133                                                    01 
00060020034000218000009000139000070000000000000000000000000000000000000000000000000000000000000000000REP       REP President                                           Donald J. Trump                       134                                                    01 
00060020035001028000047000409000572000000000000000000000000000000000000000000000000000000000000000000REP       REP President                                           Donald J. Trump                       135                                                    01 
00060020036000158000005000098000055000000000000000000000000000000000000000000000000000000000000000000REP       REP President                                           Donald J. Trump                       136                                                    01 
00060020037000311000011000162000138000000000000000000000000000000000000000000000000000000000000000000REP       REP President                                           Donald J. Trump                       137                                                    01 
00060020038000407000010000250000147000000000000000000000000000000000000000000000000000000000000000000REP       REP President                                           Donald J. Trump                       138                                                    01 
00060020039000308000018000168000122000000000000000000000000000000000000000000000000000000000000000000REP       REP President                                           Donald J. Trump                       139                                                    01 
00060020040000992000070000506000416000000000000000000000000000000000000000000000000000000000000000000REP       REP President                                           Donald J. Trump                       140                                                    01 
00060020041000445000024000204000217000000000000000000000000000000000000000000000000000000000000000000REP       REP President                                           Donald J. Trump                       141                                                    01 
00060020042000457000024000250000183000000000000000000000000000000000000000000000000000000000000000000REP       REP President                                           Donald J. Trump                       142                                                    01 
00060020043000674000030000385000259000000000000000000000000000000000000000000000000000000000000000000REP       REP President                                           Donald J. Trump                       143                                                    01 
00060020044000204000006000110000088000000000000000000000000000000000000000000000000000000000000000000REP       REP President                                           Donald J. Trump                       144                                                    01 
00060020045000369000026000176000167000000000000000000000000000000000000000000000000000000000000000000REP       REP President                                           Donald J. Trump                       145                                                    01 
00060020046000409000027000219000163000000000000000000000000000000000000000000000000000000000000000000REP       REP President                                           Donald J. Trump                       146                                                    01 
00060020047000701000034000370000297000000000000000000000000000000000000000000000000000000000000000000REP       REP President                                           Donald J. Trump                       147                                                    01 
00060020048000281000013000096000172000000000000000000000000000000000000000000000000000000000000000000REP       REP President                                           Donald J. Trump                       148                                                    01 
00060020049000219000013000069000137000000000000000000000000000000000000000000000000000000000000000000REP       REP President                                           Donald J. Trump                       149                                                    01 
00060030001000000000000000000000000000000000000000000000000000000000000000000000000000000000000000000REP       REP President                                           Zoltan G. Istvan                      101                                                    01 
00060030002000000000000000000000000000000000000000000000000000000000000000000000000000000000000000000REP       REP President                                           Zoltan G. Istvan                      102                                                    01 
00060030003000001000000000000000001000000000000000000000000000000000000000000000000000000000000000000REP       REP President                                           Zoltan G. Istvan                      103                                                    01 
00060030004000001000000000000000001000000000000000000000000000000000000000000000000000000000000000000REP       REP President                                           Zoltan G. Istvan                      104                                                    01 
00060030005000002000000000001000001000000000000000000000000000000000000000000000000000000000000000000REP       REP President                                           Zoltan G. Istvan                      105                                                    01 
00060030006000000000000000000000000000000000000000000000000000000000000000000000000000000000000000000REP       REP President                                           Zoltan G. Istvan                      106                                                    01 
00060030007000000000000000000000000000000000000000000000000000000000000000000000000000000000000000000REP       REP President                                           Zoltan G. Istvan                      107                                                    01 
00060030008000001000000000001000000000000000000000000000000000000000000000000000000000000000000000000REP       REP President                                           Zoltan G. Istvan                      108                                                    01 
00060030009000000000000000000000000000000000000000000000000000000000000000000000000000000000000000000REP       REP President                                           Zoltan G. Istvan                      109                                                    01 
00060030010000000000000000000000000000000000000000000000000000000000000000000000000000000000000000000REP       REP President                                           Zoltan G. Istvan                      110                                                    01 
00060030011000000000000000000000000000000000000000000000000000000000000000000000000000000000000000000REP       REP President                                           Zoltan G. Istvan                      111                                                    01 
00060030012000000000000000000000000000000000000000000000000000000000000000000000000000000000000000000REP       REP President                                           Zoltan G. Istvan                      112                                                    01 
00060030013000000000000000000000000000000000000000000000000000000000000000000000000000000000000000000REP       REP President                                           Zoltan G. Istvan                      113                                                    01 
00060030014000000000000000000000000000000000000000000000000000000000000000000000000000000000000000000REP       REP President                                           Zoltan G. Istvan                      114                                                    01 
00060030015000000000000000000000000000000000000000000000000000000000000000000000000000000000000000000REP       REP President                                           Zoltan G. Istvan                      115                                                    01 
00060030016000001000000000000000001000000000000000000000000000000000000000000000000000000000000000000REP       REP President                                           Zoltan G. Istvan                      116                                                    01 
00060030017000000000000000000000000000000000000000000000000000000000000000000000000000000000000000000REP       REP President                                           Zoltan G. Istvan                      117                                                    01 
00060030018000001000000000000000001000000000000000000000000000000000000000000000000000000000000000000REP       REP President                                           Zoltan G. Istvan                      118                                                    01 
00060030019000000000000000000000000000000000000000000000000000000000000000000000000000000000000000000REP       REP President                                           Zoltan G. Istvan                      119                                                    01 
00060030020000000000000000000000000000000000000000000000000000000000000000000000000000000000000000000REP       REP President                                           Zoltan G. Istvan                      120                                                    01 
00060030021000000000000000000000000000000000000000000000000000000000000000000000000000000000000000000REP       REP President                                           Zoltan G. Istvan                      121                                                    01 
00060030022000001000000000001000000000000000000000000000000000000000000000000000000000000000000000000REP       REP President                                           Zoltan G. Istvan                      122                                                    01 
00060030023000000000000000000000000000000000000000000000000000000000000000000000000000000000000000000REP       REP President                                           Zoltan G. Istvan                      123                                                    01 
00060030024000000000000000000000000000000000000000000000000000000000000000000000000000000000000000000REP       REP President                                           Zoltan G. Istvan                      124                                                    01 
00060030025000002000000000001000001000000000000000000000000000000000000000000000000000000000000000000REP       REP President                                           Zoltan G. Istvan                      125                                                    01 
00060030026000001000001000000000000000000000000000000000000000000000000000000000000000000000000000000REP       REP President                                           Zoltan G. Istvan                      126                                                    01 
00060030027000000000000000000000000000000000000000000000000000000000000000000000000000000000000000000REP       REP President                                           Zoltan G. Istvan                      127                                                    01 
00060030028000000000000000000000000000000000000000000000000000000000000000000000000000000000000000000REP       REP President                                           Zoltan G. Istvan                      128                                                    01 
00060030029000000000000000000000000000000000000000000000000000000000000000000000000000000000000000000REP       REP President                                           Zoltan G. Istvan                      129                                                    01 
00060030030000000000000000000000000000000000000000000000000000000000000000000000000000000000000000000REP       REP President                                           Zoltan G. Istvan                      130                                                    01 
00060030031000000000000000000000000000000000000000000000000000000000000000000000000000000000000000000REP       REP President                                           Zoltan G. Istvan                      131                                                    01 
00060030032000000000000000000000000000000000000000000000000000000000000000000000000000000000000000000REP       REP President                                           Zoltan G. Istvan                      132                                                    01 
00060030033000000000000000000000000000000000000000000000000000000000000000000000000000000000000000000REP       REP President                                           Zoltan G. Istvan                      133                                                    01 
00060030034000000000000000000000000000000000000000000000000000000000000000000000000000000000000000000REP       REP President                                           Zoltan G. Istvan                      134                                                    01 
00060030035000001000001000000000000000000000000000000000000000000000000000000000000000000000000000000REP       REP President                                           Zoltan G. Istvan                      135                                                    01 
00060030036000000000000000000000000000000000000000000000000000000000000000000000000000000000000000000REP       REP President                                           Zoltan G. Istvan                      136                                                    01 
00060030037000000000000000000000000000000000000000000000000000000000000000000000000000000000000000000REP       REP President                                           Zoltan G. Istvan                      137                                                    01 
00060030038000000000000000000000000000000000000000000000000000000000000000000000000000000000000000000REP       REP President                                           Zoltan G. Istvan                      138                                                    01 
00060030039000000000000000000000000000000000000000000000000000000000000000000000000000000000000000000REP       REP President                                           Zoltan G. Istvan                      139                                                    01 
00060030040000002000001000000000001000000000000000000000000000000000000000000000000000000000000000000REP       REP President                                           Zoltan G. Istvan                      140                                                    01 
00060030041000001000001000000000000000000000000000000000000000000000000000000000000000000000000000000REP       REP President                                           Zoltan G. Istvan                      141                                                    01 
00060030042000000000000000000000000000000000000000000000000000000000000000000000000000000000000000000REP       REP President                                           Zoltan G. Istvan                      142                                                    01 
00060030043000000000000000000000000000000000000000000000000000000000000000000000000000000000000000000REP       REP President                                           Zoltan G. Istvan                      143                                                    01 
00060030044000000000000000000000000000000000000000000000000000000000000000000000000000000000000000000REP       REP President                                           Zoltan G. Istvan                      144                                                    01 
00060030045000001000000000001000000000000000000000000000000000000000000000000000000000000000000000000REP       REP President                                           Zoltan G. Istvan                      145                                                    01 
00060030046000000000000000000000000000000000000000000000000000000000000000000000000000000000000000000REP       REP President                                           Zoltan G. Istvan                      146                                                    01 
00060030047000003000000000003000000000000000000000000000000000000000000000000000000000000000000000000REP       REP President                                           Zoltan G. Istvan                      147                                                    01 
00060030048000000000000000000000000000000000000000000000000000000000000000000000000000000000000000000REP       REP President                                           Zoltan G. Istvan                      148                                                    01 
00060030049000000000000000000000000000000000000000000000000000000000000000000000000000000000000000000REP       REP President                                           Zoltan G. Istvan                      149                                                    01 
00060040001000001000000000001000000000000000000000000000000000000000000000000000000000000000000000000REP       REP President                                           Matthew John Matern                   101                                                    01 
00060040002000003000000000002000001000000000000000000000000000000000000000000000000000000000000000000REP       REP President                                           Matthew John Matern                   102                                                    01 
00060040003000000000000000000000000000000000000000000000000000000000000000000000000000000000000000000REP       REP President                                           Matthew John Matern                   103                                                    01 
00060040004000000000000000000000000000000000000000000000000000000000000000000000000000000000000000000REP       REP President                                           Matthew John Matern                   104                                                    01 
00060040005000000000000000000000000000000000000000000000000000000000000000000000000000000000000000000REP       REP President                                           Matthew John Matern                   105                                                    01 
00060040006000000000000000000000000000000000000000000000000000000000000000000000000000000000000000000REP       REP President                                           Matthew John Matern                   106                                                    01 
00060040007000001000000000000000001000000000000000000000000000000000000000000000000000000000000000000REP       REP President                                           Matthew John Matern                   107                                                    01 
00060040008000002000000000000000002000000000000000000000000000000000000000000000000000000000000000000REP       REP President                                           Matthew John Matern                   108                                                    01 
00060040009000000000000000000000000000000000000000000000000000000000000000000000000000000000000000000REP       REP President                                           Matthew John Matern                   109                                                    01 
00060040010000000000000000000000000000000000000000000000000000000000000000000000000000000000000000000REP       REP President                                           Matthew John Matern                   110                                                    01 
00060040011000000000000000000000000000000000000000000000000000000000000000000000000000000000000000000REP       REP President                                           Matthew John Matern                   111                                                    01 
00060040012000000000000000000000000000000000000000000000000000000000000000000000000000000000000000000REP       REP President                                           Matthew John Matern                   112                                                    01 
00060040013000000000000000000000000000000000000000000000000000000000000000000000000000000000000000000REP       REP President                                           Matthew John Matern                   113                                                    01 
00060040014000001000001000000000000000000000000000000000000000000000000000000000000000000000000000000REP       REP President                                           Matthew John Matern                   114                                                    01 
00060040015000000000000000000000000000000000000000000000000000000000000000000000000000000000000000000REP       REP President                                           Matthew John Matern                   115                                                    01 
00060040016000000000000000000000000000000000000000000000000000000000000000000000000000000000000000000REP       REP President                                           Matthew John Matern                   116                                                    01 
00060040017000003000000000003000000000000000000000000000000000000000000000000000000000000000000000000REP       REP President                                           Matthew John Matern                   117                                                    01 
00060040018000000000000000000000000000000000000000000000000000000000000000000000000000000000000000000REP       REP President                                           Matthew John Matern                   118                                                    01 
00060040019000001000000000000000001000000000000000000000000000000000000000000000000000000000000000000REP       REP President                                           Matthew John Matern                   119                                                    01 
00060040020000000000000000000000000000000000000000000000000000000000000000000000000000000000000000000REP       REP President                                           Matthew John Matern                   120                                                    01 
00060040021000000000000000000000000000000000000000000000000000000000000000000000000000000000000000000REP       REP President                                           Matthew John Matern                   121                                                    01 
00060040022000000000000000000000000000000000000000000000000000000000000000000000000000000000000000000REP       REP President                                           Matthew John Matern                   122                                                    01 
00060040023000000000000000000000000000000000000000000000000000000000000000000000000000000000000000000REP       REP President                                           Matthew John Matern                   123                                                    01 
00060040024000000000000000000000000000000000000000000000000000000000000000000000000000000000000000000REP       REP President                                           Matthew John Matern                   124                                                    01 
00060040025000001000000000001000000000000000000000000000000000000000000000000000000000000000000000000REP       REP President                                           Matthew John Matern                   125                                                    01 
00060040026000000000000000000000000000000000000000000000000000000000000000000000000000000000000000000REP       REP President                                           Matthew John Matern                   126                                                    01 
00060040027000000000000000000000000000000000000000000000000000000000000000000000000000000000000000000REP       REP President                                           Matthew John Matern                   127                                                    01 
00060040028000000000000000000000000000000000000000000000000000000000000000000000000000000000000000000REP       REP President                                           Matthew John Matern                   128                                                    01 
00060040029000000000000000000000000000000000000000000000000000000000000000000000000000000000000000000REP       REP President                                           Matthew John Matern                   129                                                    01 
00060040030000000000000000000000000000000000000000000000000000000000000000000000000000000000000000000REP       REP President                                           Matthew John Matern                   130                                                    01 
00060040031000001000000000001000000000000000000000000000000000000000000000000000000000000000000000000REP       REP President                                           Matthew John Matern                   131                                                    01 
00060040032000000000000000000000000000000000000000000000000000000000000000000000000000000000000000000REP       REP President                                           Matthew John Matern                   132                                                    01 
00060040033000000000000000000000000000000000000000000000000000000000000000000000000000000000000000000REP       REP President                                           Matthew John Matern                   133                                                    01 
00060040034000000000000000000000000000000000000000000000000000000000000000000000000000000000000000000REP       REP President                                           Matthew John Matern                   134                                                    01 
00060040035000000000000000000000000000000000000000000000000000000000000000000000000000000000000000000REP       REP President                                           Matthew John Matern                   135                                                    01 
00060040036000000000000000000000000000000000000000000000000000000000000000000000000000000000000000000REP       REP President                                           Matthew John Matern                   136                                                    01 
00060040037000000000000000000000000000000000000000000000000000000000000000000000000000000000000000000REP       REP President                                           Matthew John Matern                   137                                                    01 
00060040038000000000000000000000000000000000000000000000000000000000000000000000000000000000000000000REP       REP President                                           Matthew John Matern                   138                                                    01 
00060040039000000000000000000000000000000000000000000000000000000000000000000000000000000000000000000REP       REP President                                           Matthew John Matern                   139                                                    01 
00060040040000000000000000000000000000000000000000000000000000000000000000000000000000000000000000000REP       REP President                                           Matthew John Matern                   140                                                    01 
00060040041000001000000000000000001000000000000000000000000000000000000000000000000000000000000000000REP       REP President                                           Matthew John Matern                   141                                                    01 
00060040042000001000000000001000000000000000000000000000000000000000000000000000000000000000000000000REP       REP President                                           Matthew John Matern                   142                                                    01 
00060040043000000000000000000000000000000000000000000000000000000000000000000000000000000000000000000REP       REP President                                           Matthew John Matern                   143                                                    01 
00060040044000000000000000000000000000000000000000000000000000000000000000000000000000000000000000000REP       REP President                                           Matthew John Matern                   144                                                    01 
00060040045000000000000000000000000000000000000000000000000000000000000000000000000000000000000000000REP       REP President                                           Matthew John Matern                   145                                                    01 
00060040046000000000000000000000000000000000000000000000000000000000000000000000000000000000000000000REP       REP President                                           Matthew John Matern                   146                                                    01 
00060040047000000000000000000000000000000000000000000000000000000000000000000000000000000000000000000REP       REP President                                           Matthew John Matern                   147                                                    01 
00060040048000002000000000002000000000000000000000000000000000000000000000000000000000000000000000000REP       REP President                                           Matthew John Matern                   148                                                    01 
00060040049000000000000000000000000000000000000000000000000000000000000000000000000000000000000000000REP       REP President                                           Matthew John Matern                   149                                                    01 
00060050001000004000000000002000002000000000000000000000000000000000000000000000000000000000000000000REP       REP President                                           Bill Weld                             101                                                    01 
00060050002000001000000000000000001000000000000000000000000000000000000000000000000000000000000000000REP       REP President                                           Bill Weld                             102                                                    01 
00060050003000003000000000002000001000000000000000000000000000000000000000000000000000000000000000000REP       REP President                                           Bill Weld                             103                                                    01 
00060050004000004000000000003000001000000000000000000000000000000000000000000000000000000000000000000REP       REP President                                           Bill Weld                             104                                                    01 
00060050005000006000000000006000000000000000000000000000000000000000000000000000000000000000000000000REP       REP President                                           Bill Weld                             105                                                    01 
00060050006000003000000000003000000000000000000000000000000000000000000000000000000000000000000000000REP       REP President                                           Bill Weld                             106                                                    01 
00060050007000007000000000003000004000000000000000000000000000000000000000000000000000000000000000000REP       REP President                                           Bill Weld                             107                                                    01 
00060050008000004000000000001000003000000000000000000000000000000000000000000000000000000000000000000REP       REP President                                           Bill Weld                             108                                                    01 
00060050009000001000000000001000000000000000000000000000000000000000000000000000000000000000000000000REP       REP President                                           Bill Weld                             109                                                    01 
00060050010000006000000000002000004000000000000000000000000000000000000000000000000000000000000000000REP       REP President                                           Bill Weld                             110                                                    01 
00060050011000003000000000001000002000000000000000000000000000000000000000000000000000000000000000000REP       REP President                                           Bill Weld                             111                                                    01 
00060050012000002000000000002000000000000000000000000000000000000000000000000000000000000000000000000REP       REP President                                           Bill Weld                             112                                                    01 
00060050013000001000000000000000001000000000000000000000000000000000000000000000000000000000000000000REP       REP President                                           Bill Weld                             113                                                    01 
00060050014000000000000000000000000000000000000000000000000000000000000000000000000000000000000000000REP       REP President                                           Bill Weld                             114                                                    01 
00060050015000003000000000002000001000000000000000000000000000000000000000000000000000000000000000000REP       REP President                                           Bill Weld                             115                                                    01 
00060050016000006000000000005000001000000000000000000000000000000000000000000000000000000000000000000REP       REP President                                           Bill Weld                             116                                                    01 
00060050017000002000000000001000001000000000000000000000000000000000000000000000000000000000000000000REP       REP President                                           Bill Weld                             117                                                    01 
00060050018000006000000000006000000000000000000000000000000000000000000000000000000000000000000000000REP       REP President                                           Bill Weld                             118                                                    01 
00060050019000000000000000000000000000000000000000000000000000000000000000000000000000000000000000000REP       REP President                                           Bill Weld                             119                                                    01 
00060050020000000000000000000000000000000000000000000000000000000000000000000000000000000000000000000REP       REP President                                           Bill Weld                             120                                                    01 
00060050021000003000000000002000001000000000000000000000000000000000000000000000000000000000000000000REP       REP President                                           Bill Weld                             121                                                    01 
00060050022000000000000000000000000000000000000000000000000000000000000000000000000000000000000000000REP       REP President                                           Bill Weld                             122                                                    01 
00060050023000000000000000000000000000000000000000000000000000000000000000000000000000000000000000000REP       REP President                                           Bill Weld                             123                                                    01 
00060050024000000000000000000000000000000000000000000000000000000000000000000000000000000000000000000REP       REP President                                           Bill Weld                             124                                                    01 
00060050025000002000000000001000001000000000000000000000000000000000000000000000000000000000000000000REP       REP President                                           Bill Weld                             125                                                    01 
00060050026000004000000000004000000000000000000000000000000000000000000000000000000000000000000000000REP       REP President                                           Bill Weld                             126                                                    01 
00060050027000000000000000000000000000000000000000000000000000000000000000000000000000000000000000000REP       REP President                                           Bill Weld                             127                                                    01 
00060050028000000000000000000000000000000000000000000000000000000000000000000000000000000000000000000REP       REP President                                           Bill Weld                             128                                                    01 
00060050029000000000000000000000000000000000000000000000000000000000000000000000000000000000000000000REP       REP President                                           Bill Weld                             129                                                    01 
00060050030000000000000000000000000000000000000000000000000000000000000000000000000000000000000000000REP       REP President                                           Bill Weld                             130                                                    01 
00060050031000000000000000000000000000000000000000000000000000000000000000000000000000000000000000000REP       REP President                                           Bill Weld                             131                                                    01 
00060050032000000000000000000000000000000000000000000000000000000000000000000000000000000000000000000REP       REP President                                           Bill Weld                             132                                                    01 
00060050033000000000000000000000000000000000000000000000000000000000000000000000000000000000000000000REP       REP President                                           Bill Weld                             133                                                    01 
00060050034000002000000000002000000000000000000000000000000000000000000000000000000000000000000000000REP       REP President                                           Bill Weld                             134                                                    01 
