00020010001003534000000000000000000000000000000000000000000000000000000000000000000000000000000000000DEM       REGISTERED VOTERS - Democratic Party                    REGISTERED VOTERS - Democratic Party  101                                                    00 
00020010002004361000000000000000000000000000000000000000000000000000000000000000000000000000000000000DEM       REGISTERED VOTERS - Democratic Party                    REGISTERED VOTERS - Democratic Party  102                                                    00 
00020010003004774000000000000000000000000000000000000000000000000000000000000000000000000000000000000DEM       REGISTERED VOTERS - Democratic Party                    REGISTERED VOTERS - Democratic Party  103                                                    00 
00020010004003639000000000000000000000000000000000000000000000000000000000000000000000000000000000000DEM       REGISTERED VOTERS - Democratic Party                    REGISTERED VOTERS - Democratic Party  104                                                    00 
00020010005004582000000000000000000000000000000000000000000000000000000000000000000000000000000000000DEM       REGISTERED VOTERS - Democratic Party                    REGISTERED VOTERS - Democratic Party  105                                                    00 
00020010006003242000000000000000000000000000000000000000000000000000000000000000000000000000000000000DEM       REGISTERED VOTERS - Democratic Party                    REGISTERED VOTERS - Democratic Party  106                                                    00 
00020010007003622000000000000000000000000000000000000000000000000000000000000000000000000000000000000DEM       REGISTERED VOTERS - Democratic Party                    REGISTERED VOTERS - Democratic Party  107                                                    00 
00020010008003273000000000000000000000000000000000000000000000000000000000000000000000000000000000000DEM       REGISTERED VOTERS - Democratic Party                    REGISTERED VOTERS - Democratic Party  108                                                    00 
00020010009001920000000000000000000000000000000000000000000000000000000000000000000000000000000000000DEM       REGISTERED VOTERS - Democratic Party                    REGISTERED VOTERS - Democratic Party  109                                                    00 
00020010010004399000000000000000000000000000000000000000000000000000000000000000000000000000000000000DEM       REGISTERED VOTERS - Democratic Party                    REGISTERED VOTERS - Democratic Party  110                                                    00 
00020010011002284000000000000000000000000000000000000000000000000000000000000000000000000000000000000DEM       REGISTERED VOTERS - Democratic Party                    REGISTERED VOTERS - Democratic Party  111                                                    00 
00020010012001894000000000000000000000000000000000000000000000000000000000000000000000000000000000000DEM       REGISTERED VOTERS - Democratic Party                    REGISTERED VOTERS - Democratic Party  112                                                    00 
00020010013001980000000000000000000000000000000000000000000000000000000000000000000000000000000000000DEM       REGISTERED VOTERS - Democratic Party                    REGISTERED VOTERS - Democratic Party  113                                                    00 
00020010014002176000000000000000000000000000000000000000000000000000000000000000000000000000000000000DEM       REGISTERED VOTERS - Democratic Party                    REGISTERED VOTERS - Democratic Party  114                                                    00 
00020010015001825000000000000000000000000000000000000000000000000000000000000000000000000000000000000DEM       REGISTERED VOTERS - Democratic Party                    REGISTERED VOTERS - Democratic Party  115                                                    00 
00020010016002134000000000000000000000000000000000000000000000000000000000000000000000000000000000000DEM       REGISTERED VOTERS - Democratic Party                    REGISTERED VOTERS - Democratic Party  116                                                    00 
00020010017002680000000000000000000000000000000000000000000000000000000000000000000000000000000000000DEM       REGISTERED VOTERS - Democratic Party                    REGISTERED VOTERS - Democratic Party  117                                                    00 
00020010018002794000000000000000000000000000000000000000000000000000000000000000000000000000000000000DEM       REGISTERED VOTERS - Democratic Party                    REGISTERED VOTERS - Democratic Party  118                                                    00 
00020010019001464000000000000000000000000000000000000000000000000000000000000000000000000000000000000DEM       REGISTERED VOTERS - Democratic Party                    REGISTERED VOTERS - Democratic Party  119                                                    00 
00020010020000660000000000000000000000000000000000000000000000000000000000000000000000000000000000000DEM       REGISTERED VOTERS - Democratic Party                    REGISTERED VOTERS - Democratic Party  120                                                    00 
00020010021002229000000000000000000000000000000000000000000000000000000000000000000000000000000000000DEM       REGISTERED VOTERS - Democratic Party                    REGISTERED VOTERS - Democratic Party  121                                                    00 
00020010022001235000000000000000000000000000000000000000000000000000000000000000000000000000000000000DEM       REGISTERED VOTERS - Democratic Party                    REGISTERED VOTERS - Democratic Party  122                                                    00 
00020010023001037000000000000000000000000000000000000000000000000000000000000000000000000000000000000DEM       REGISTERED VOTERS - Democratic Party                    REGISTERED VOTERS - Democratic Party  123                                                    00 
00020010024001706000000000000000000000000000000000000000000000000000000000000000000000000000000000000DEM       REGISTERED VOTERS - Democratic Party                    REGISTERED VOTERS - Democratic Party  124                                                    00 
00020010025004051000000000000000000000000000000000000000000000000000000000000000000000000000000000000DEM       REGISTERED VOTERS - Democratic Party                    REGISTERED VOTERS - Democratic Party  125                                                    00 
00020010026001059000000000000000000000000000000000000000000000000000000000000000000000000000000000000DEM       REGISTERED VOTERS - Democratic Party                    REGISTERED VOTERS - Democratic Party  126                                                    00 
00020010027000468000000000000000000000000000000000000000000000000000000000000000000000000000000000000DEM       REGISTERED VOTERS - Democratic Party                    REGISTERED VOTERS - Democratic Party  127                                                    00 
00020010028000208000000000000000000000000000000000000000000000000000000000000000000000000000000000000DEM       REGISTERED VOTERS - Democratic Party                    REGISTERED VOTERS - Democratic Party  128                                                    00 
00020010029000825000000000000000000000000000000000000000000000000000000000000000000000000000000000000DEM       REGISTERED VOTERS - Democratic Party                    REGISTERED VOTERS - Democratic Party  129                                                    00 
00020010030000653000000000000000000000000000000000000000000000000000000000000000000000000000000000000DEM       REGISTERED VOTERS - Democratic Party                    REGISTERED VOTERS - Democratic Party  130                                                    00 
00020010031001904000000000000000000000000000000000000000000000000000000000000000000000000000000000000DEM       REGISTERED VOTERS - Democratic Party                    REGISTERED VOTERS - Democratic Party  131                                                    00 
00020010032000632000000000000000000000000000000000000000000000000000000000000000000000000000000000000DEM       REGISTERED VOTERS - Democratic Party                    REGISTERED VOTERS - Democratic Party  132                                                    00 
00020010033000602000000000000000000000000000000000000000000000000000000000000000000000000000000000000DEM       REGISTERED VOTERS - Democratic Party                    REGISTERED VOTERS - Democratic Party  133                                                    00 
00020010034000737000000000000000000000000000000000000000000000000000000000000000000000000000000000000DEM       REGISTERED VOTERS - Democratic Party                    REGISTERED VOTERS - Democratic Party  134                                                    00 
00020010035003943000000000000000000000000000000000000000000000000000000000000000000000000000000000000DEM       REGISTERED VOTERS - Democratic Party                    REGISTERED VOTERS - Democratic Party  135                                                    00 
00020010036000505000000000000000000000000000000000000000000000000000000000000000000000000000000000000DEM       REGISTERED VOTERS - Democratic Party                    REGISTERED VOTERS - Democratic Party  136                                                    00 
00020010037001215000000000000000000000000000000000000000000000000000000000000000000000000000000000000DEM       REGISTERED VOTERS - Democratic Party                    REGISTERED VOTERS - Democratic Party  137                                                    00 
00020010038002069000000000000000000000000000000000000000000000000000000000000000000000000000000000000DEM       REGISTERED VOTERS - Democratic Party                    REGISTERED VOTERS - Democratic Party  138                                                    00 
00020010039001026000000000000000000000000000000000000000000000000000000000000000000000000000000000000DEM       REGISTERED VOTERS - Democratic Party                    REGISTERED VOTERS - Democratic Party  139                                                    00 
00020010040005241000000000000000000000000000000000000000000000000000000000000000000000000000000000000DEM       REGISTERED VOTERS - Democratic Party                    REGISTERED VOTERS - Democratic Party  140                                                    00 
00020010041001989000000000000000000000000000000000000000000000000000000000000000000000000000000000000DEM       REGISTERED VOTERS - Democratic Party                    REGISTERED VOTERS - Democratic Party  141                                                    00 
00020010042002221000000000000000000000000000000000000000000000000000000000000000000000000000000000000DEM       REGISTERED VOTERS - Democratic Party                    REGISTERED VOTERS - Democratic Party  142                                                    00 
00020010043002980000000000000000000000000000000000000000000000000000000000000000000000000000000000000DEM       REGISTERED VOTERS - Democratic Party                    REGISTERED VOTERS - Democratic Party  143                                                    00 
00020010044002050000000000000000000000000000000000000000000000000000000000000000000000000000000000000DEM       REGISTERED VOTERS - Democratic Party                    REGISTERED VOTERS - Democratic Party  144                                                    00 
00020010045003807000000000000000000000000000000000000000000000000000000000000000000000000000000000000DEM       REGISTERED VOTERS - Democratic Party                    REGISTERED VOTERS - Democratic Party  145                                                    00 
00020010046002835000000000000000000000000000000000000000000000000000000000000000000000000000000000000DEM       REGISTERED VOTERS - Democratic Party                    REGISTERED VOTERS - Democratic Party  146                                                    00 
00020010047004090000000000000000000000000000000000000000000000000000000000000000000000000000000000000DEM       REGISTERED VOTERS - Democratic Party                    REGISTERED VOTERS - Democratic Party  147                                                    00 
00020010048002836000000000000000000000000000000000000000000000000000000000000000000000000000000000000DEM       REGISTERED VOTERS - Democratic Party                    REGISTERED VOTERS - Democratic Party  148                                                    00 
00020010049001477000000000000000000000000000000000000000000000000000000000000000000000000000000000000DEM       REGISTERED VOTERS - Democratic Party                    REGISTERED VOTERS - Democratic Party  149                                                    00 
00040010001000930000042000451000437000000000000000000000000000000000000000000000000000000000000000000          BALLOTS CAST - TOTAL                                    BALLOTS CAST - TOTAL                  101                                                    00 
00040010002001020000058000487000475000000000000000000000000000000000000000000000000000000000000000000          BALLOTS CAST - TOTAL                                    BALLOTS CAST - TOTAL                  102                                                    00 
00040010003001205000036000544000625000000000000000000000000000000000000000000000000000000000000000000          BALLOTS CAST - TOTAL                                    BALLOTS CAST - TOTAL                  103                                                    00 
00040010004001063000027000525000511000000000000000000000000000000000000000000000000000000000000000000          BALLOTS CAST - TOTAL                                    BALLOTS CAST - TOTAL                  104                                                    00 
00040010005001497000058000737000702000000000000000000000000000000000000000000000000000000000000000000          BALLOTS CAST - TOTAL                                    BALLOTS CAST - TOTAL                  105                                                    00 
00040010006001055000043000560000452000000000000000000000000000000000000000000000000000000000000000000          BALLOTS CAST - TOTAL                                    BALLOTS CAST - TOTAL                  106                                                    00 
00040010007001199000047000508000644000000000000000000000000000000000000000000000000000000000000000000          BALLOTS CAST - TOTAL                                    BALLOTS CAST - TOTAL                  107                                                    00 
00040010008001044000053000471000520000000000000000000000000000000000000000000000000000000000000000000          BALLOTS CAST - TOTAL                                    BALLOTS CAST - TOTAL                  108                                                    00 
00040010009000680000039000255000386000000000000000000000000000000000000000000000000000000000000000000          BALLOTS CAST - TOTAL                                    BALLOTS CAST - TOTAL                  109                                                    00 
00040010010001287000063000483000741000000000000000000000000000000000000000000000000000000000000000000          BALLOTS CAST - TOTAL                                    BALLOTS CAST - TOTAL                  110                                                    00 
00040010011000847000044000461000342000000000000000000000000000000000000000000000000000000000000000000          BALLOTS CAST - TOTAL                                    BALLOTS CAST - TOTAL                  111                                                    00 
00040010012000631000029000320000282000000000000000000000000000000000000000000000000000000000000000000          BALLOTS CAST - TOTAL                                    BALLOTS CAST - TOTAL                  112                                                    00 
00040010013000323000028000102000193000000000000000000000000000000000000000000000000000000000000000000          BALLOTS CAST - TOTAL                                    BALLOTS CAST - TOTAL                  113                                                    00 
00040010014000642000053000314000275000000000000000000000000000000000000000000000000000000000000000000          BALLOTS CAST - TOTAL                                    BALLOTS CAST - TOTAL                  114                                                    00 
00040010015000489000029000244000216000000000000000000000000000000000000000000000000000000000000000000          BALLOTS CAST - TOTAL                                    BALLOTS CAST - TOTAL                  115                                                    00 
00040010016000630000037000299000294000000000000000000000000000000000000000000000000000000000000000000          BALLOTS CAST - TOTAL                                    BALLOTS CAST - TOTAL                  116                                                    00 
00040010017000703000047000333000323000000000000000000000000000000000000000000000000000000000000000000          BALLOTS CAST - TOTAL                                    BALLOTS CAST - TOTAL                  117                                                    00 
00040010018000877000109000463000305000000000000000000000000000000000000000000000000000000000000000000          BALLOTS CAST - TOTAL                                    BALLOTS CAST - TOTAL                  118                                                    00 
00040010019000507000028000283000196000000000000000000000000000000000000000000000000000000000000000000          BALLOTS CAST - TOTAL                                    BALLOTS CAST - TOTAL                  119                                                    00 
00040010020000164000018000081000065000000000000000000000000000000000000000000000000000000000000000000          BALLOTS CAST - TOTAL                                    BALLOTS CAST - TOTAL                  120                                                    00 
00040010021000706000050000413000243000000000000000000000000000000000000000000000000000000000000000000          BALLOTS CAST - TOTAL                                    BALLOTS CAST - TOTAL                  121                                                    00 
00040010022000445000028000222000195000000000000000000000000000000000000000000000000000000000000000000          BALLOTS CAST - TOTAL                                    BALLOTS CAST - TOTAL                  122                                                    00 
00040010023000150000022000051000077000000000000000000000000000000000000000000000000000000000000000000          BALLOTS CAST - TOTAL                                    BALLOTS CAST - TOTAL                  123                                                    00 
00040010024000245000018000086000141000000000000000000000000000000000000000000000000000000000000000000          BALLOTS CAST - TOTAL                                    BALLOTS CAST - TOTAL                  124                                                    00 
00040010025001059000051000588000420000000000000000000000000000000000000000000000000000000000000000000          BALLOTS CAST - TOTAL                                    BALLOTS CAST - TOTAL                  125                                                    00 
00040010026000279000017000149000113000000000000000000000000000000000000000000000000000000000000000000          BALLOTS CAST - TOTAL                                    BALLOTS CAST - TOTAL                  126                                                    00 
00040010027000122000012000059000051000000000000000000000000000000000000000000000000000000000000000000          BALLOTS CAST - TOTAL                                    BALLOTS CAST - TOTAL                  127                                                    00 
00040010028000034000002000019000013000000000000000000000000000000000000000000000000000000000000000000          BALLOTS CAST - TOTAL                                    BALLOTS CAST - TOTAL                  128                                                    00 
00040010029000208000007000105000096000000000000000000000000000000000000000000000000000000000000000000          BALLOTS CAST - TOTAL                                    BALLOTS CAST - TOTAL                  129                                                    00 
00040010030000189000004000032000153000000000000000000000000000000000000000000000000000000000000000000          BALLOTS CAST - TOTAL                                    BALLOTS CAST - TOTAL                  130                                                    00 
00040010031000558000028000121000409000000000000000000000000000000000000000000000000000000000000000000          BALLOTS CAST - TOTAL                                    BALLOTS CAST - TOTAL                  131                                                    00 
00040010032000178000016000071000091000000000000000000000000000000000000000000000000000000000000000000          BALLOTS CAST - TOTAL                                    BALLOTS CAST - TOTAL                  132                                                    00 
00040010033000158000012000063000083000000000000000000000000000000000000000000000000000000000000000000          BALLOTS CAST - TOTAL                                    BALLOTS CAST - TOTAL                  133                                                    00 
00040010034000262000011000159000092000000000000000000000000000000000000000000000000000000000000000000          BALLOTS CAST - TOTAL                                    BALLOTS CAST - TOTAL                  134                                                    00 
00040010035001280000062000488000730000000000000000000000000000000000000000000000000000000000000000000          BALLOTS CAST - TOTAL                                    BALLOTS CAST - TOTAL                  135                                                    00 
00040010036000210000008000132000070000000000000000000000000000000000000000000000000000000000000000000          BALLOTS CAST - TOTAL                                    BALLOTS CAST - TOTAL                  136                                                    00 
00040010037000414000019000195000200000000000000000000000000000000000000000000000000000000000000000000          BALLOTS CAST - TOTAL                                    BALLOTS CAST - TOTAL                  137                                                    00 
00040010038000520000012000302000206000000000000000000000000000000000000000000000000000000000000000000          BALLOTS CAST - TOTAL                                    BALLOTS CAST - TOTAL                  138                                                    00 
00040010039000417000023000218000176000000000000000000000000000000000000000000000000000000000000000000          BALLOTS CAST - TOTAL                                    BALLOTS CAST - TOTAL                  139                                                    00 
00040010040001605000098000761000746000000000000000000000000000000000000000000000000000000000000000000          BALLOTS CAST - TOTAL                                    BALLOTS CAST - TOTAL                  140                                                    00 
00040010041000633000037000269000327000000000000000000000000000000000000000000000000000000000000000000          BALLOTS CAST - TOTAL                                    BALLOTS CAST - TOTAL                  141                                                    00 
00040010042000632000040000325000267000000000000000000000000000000000000000000000000000000000000000000          BALLOTS CAST - TOTAL                                    BALLOTS CAST - TOTAL                  142                                                    00 
00040010043000995000044000503000448000000000000000000000000000000000000000000000000000000000000000000          BALLOTS CAST - TOTAL                                    BALLOTS CAST - TOTAL                  143                                                    00 
00040010044000609000028000240000341000000000000000000000000000000000000000000000000000000000000000000          BALLOTS CAST - TOTAL                                    BALLOTS CAST - TOTAL                  144                                                    00 
00040010045000901000065000338000498000000000000000000000000000000000000000000000000000000000000000000          BALLOTS CAST - TOTAL                                    BALLOTS CAST - TOTAL                  145                                                    00 
00040010046000743000039000331000373000000000000000000000000000000000000000000000000000000000000000000          BALLOTS CAST - TOTAL                                    BALLOTS CAST - TOTAL                  146                                                    00 
00040010047001094000061000532000501000000000000000000000000000000000000000000000000000000000000000000          BALLOTS CAST - TOTAL                                    BALLOTS CAST - TOTAL                  147                                                    00 
00040010048000575000033000172000370000000000000000000000000000000000000000000000000000000000000000000          BALLOTS CAST - TOTAL                                    BALLOTS CAST - TOTAL                  148                                                    00 
00040010049000349000021000089000239000000000000000000000000000000000000000000000000000000000000000000          BALLOTS CAST - TOTAL                                    BALLOTS CAST - TOTAL                  149                                                    00 
00050010001000300000010000125000165000000000000000000000000000000000000000000000000000000000000000000DEM       BALLOTS CAST - Democratic Party                         BALLOTS CAST - Democratic Party       101                                                    00 
00050010002000279000016000083000180000000000000000000000000000000000000000000000000000000000000000000DEM       BALLOTS CAST - Democratic Party                         BALLOTS CAST - Democratic Party       102                                                    00 
00050010003000382000009000136000237000000000000000000000000000000000000000000000000000000000000000000DEM       BALLOTS CAST - Democratic Party                         BALLOTS CAST - Democratic Party       103                                                    00 
00050010004000258000006000095000157000000000000000000000000000000000000000000000000000000000000000000DEM       BALLOTS CAST - Democratic Party                         BALLOTS CAST - Democratic Party       104                                                    00 
00050010005000384000019000125000240000000000000000000000000000000000000000000000000000000000000000000DEM       BALLOTS CAST - Democratic Party                         BALLOTS CAST - Democratic Party       105                                                    00 
00050010006000215000009000086000120000000000000000000000000000000000000000000000000000000000000000000DEM       BALLOTS CAST - Democratic Party                         BALLOTS CAST - Democratic Party       106                                                    00 
00050010007000356000020000111000225000000000000000000000000000000000000000000000000000000000000000000DEM       BALLOTS CAST - Democratic Party                         BALLOTS CAST - Democratic Party       107                                                    00 
00050010008000300000013000111000176000000000000000000000000000000000000000000000000000000000000000000DEM       BALLOTS CAST - Democratic Party                         BALLOTS CAST - Democratic Party       108                                                    00 
00050010009000199000013000056000130000000000000000000000000000000000000000000000000000000000000000000DEM       BALLOTS CAST - Democratic Party                         BALLOTS CAST - Democratic Party       109                                                    00 
00050010010000644000028000180000436000000000000000000000000000000000000000000000000000000000000000000DEM       BALLOTS CAST - Democratic Party                         BALLOTS CAST - Democratic Party       110                                                    00 
00050010011000208000007000079000122000000000000000000000000000000000000000000000000000000000000000000DEM       BALLOTS CAST - Democratic Party                         BALLOTS CAST - Democratic Party       111                                                    00 
00050010012000136000006000052000078000000000000000000000000000000000000000000000000000000000000000000DEM       BALLOTS CAST - Democratic Party                         BALLOTS CAST - Democratic Party       112                                                    00 
00050010013000229000026000055000148000000000000000000000000000000000000000000000000000000000000000000DEM       BALLOTS CAST - Democratic Party                         BALLOTS CAST - Democratic Party       113                                                    00 
00050010014000176000026000055000095000000000000000000000000000000000000000000000000000000000000000000DEM       BALLOTS CAST - Democratic Party                         BALLOTS CAST - Democratic Party       114                                                    00 
00050010015000165000011000064000090000000000000000000000000000000000000000000000000000000000000000000DEM       BALLOTS CAST - Democratic Party                         BALLOTS CAST - Democratic Party       115                                                    00 
00050010016000171000009000070000092000000000000000000000000000000000000000000000000000000000000000000DEM       BALLOTS CAST - Democratic Party                         BALLOTS CAST - Democratic Party       116                                                    00 
00050010017000194000019000066000109000000000000000000000000000000000000000000000000000000000000000000DEM       BALLOTS CAST - Democratic Party                         BALLOTS CAST - Democratic Party       117                                                    00 
00050010018000229000026000097000106000000000000000000000000000000000000000000000000000000000000000000DEM       BALLOTS CAST - Democratic Party                         BALLOTS CAST - Democratic Party       118                                                    00 
00050010019000113000009000048000056000000000000000000000000000000000000000000000000000000000000000000DEM       BALLOTS CAST - Democratic Party                         BALLOTS CAST - Democratic Party       119                                                    00 
00050010020000037000003000013000021000000000000000000000000000000000000000000000000000000000000000000DEM       BALLOTS CAST - Democratic Party                         BALLOTS CAST - Democratic Party       120                                                    00 
00050010021000159000017000053000089000000000000000000000000000000000000000000000000000000000000000000DEM       BALLOTS CAST - Democratic Party                         BALLOTS CAST - Democratic Party       121                                                    00 
00050010022000101000007000036000058000000000000000000000000000000000000000000000000000000000000000000DEM       BALLOTS CAST - Democratic Party                         BALLOTS CAST - Democratic Party       122                                                    00 
00050010023000120000022000032000066000000000000000000000000000000000000000000000000000000000000000000DEM       BALLOTS CAST - Democratic Party                         BALLOTS CAST - Democratic Party       123                                                    00 
00050010024000162000014000051000097000000000000000000000000000000000000000000000000000000000000000000DEM       BALLOTS CAST - Democratic Party                         BALLOTS CAST - Democratic Party       124                                                    00 
00050010025000238000020000090000128000000000000000000000000000000000000000000000000000000000000000000DEM       BALLOTS CAST - Democratic Party                         BALLOTS CAST - Democratic Party       125                                                    00 
00050010026000069000002000031000036000000000000000000000000000000000000000000000000000000000000000000DEM       BALLOTS CAST - Democratic Party                         BALLOTS CAST - Democratic Party       126                                                    00 
00050010027000027000006000005000016000000000000000000000000000000000000000000000000000000000000000000DEM       BALLOTS CAST - Democratic Party                         BALLOTS CAST - Democratic Party       127                                                    00 
00050010028000020000001000009000010000000000000000000000000000000000000000000000000000000000000000000DEM       BALLOTS CAST - Democratic Party                         BALLOTS CAST - Democratic Party       128                                                    00 
00050010029000055000002000023000030000000000000000000000000000000000000000000000000000000000000000000DEM       BALLOTS CAST - Democratic Party                         BALLOTS CAST - Democratic Party       129                                                    00 
00050010030000050000000000003000047000000000000000000000000000000000000000000000000000000000000000000DEM       BALLOTS CAST - Democratic Party                         BALLOTS CAST - Democratic Party       130                                                    00 
00050010031000152000009000023000120000000000000000000000000000000000000000000000000000000000000000000DEM       BALLOTS CAST - Democratic Party                         BALLOTS CAST - Democratic Party       131                                                    00 
00050010032000029000003000010000016000000000000000000000000000000000000000000000000000000000000000000DEM       BALLOTS CAST - Democratic Party                         BALLOTS CAST - Democratic Party       132                                                    00 
00050010033000034000003000006000025000000000000000000000000000000000000000000000000000000000000000000DEM       BALLOTS CAST - Democratic Party                         BALLOTS CAST - Democratic Party       133                                                    00 
00050010034000032000002000012000018000000000000000000000000000000000000000000000000000000000000000000DEM       BALLOTS CAST - Democratic Party                         BALLOTS CAST - Democratic Party       134                                                    00 
00050010035000192000011000057000124000000000000000000000000000000000000000000000000000000000000000000DEM       BALLOTS CAST - Democratic Party                         BALLOTS CAST - Democratic Party       135                                                    00 
00050010036000044000003000027000014000000000000000000000000000000000000000000000000000000000000000000DEM       BALLOTS CAST - Democratic Party                         BALLOTS CAST - Democratic Party       136                                                    00 
00050010037000090000008000024000058000000000000000000000000000000000000000000000000000000000000000000DEM       BALLOTS CAST - Democratic Party                         BALLOTS CAST - Democratic Party       137                                                    00 
00050010038000102000002000043000057000000000000000000000000000000000000000000000000000000000000000000DEM       BALLOTS CAST - Democratic Party                         BALLOTS CAST - Democratic Party       138                                                    00 
00050010039000077000004000033000040000000000000000000000000000000000000000000000000000000000000000000DEM       BALLOTS CAST - Democratic Party                         BALLOTS CAST - Democratic Party       139                                                    00 
00050010040000502000021000190000291000000000000000000000000000000000000000000000000000000000000000000DEM       BALLOTS CAST - Democratic Party                         BALLOTS CAST - Democratic Party       140                                                    00 
00050010041000158000010000047000101000000000000000000000000000000000000000000000000000000000000000000DEM       BALLOTS CAST - Democratic Party                         BALLOTS CAST - Democratic Party       141                                                    00 
00050010042000149000014000058000077000000000000000000000000000000000000000000000000000000000000000000DEM       BALLOTS CAST - Democratic Party                         BALLOTS CAST - Democratic Party       142                                                    00 
00050010043000269000010000095000164000000000000000000000000000000000000000000000000000000000000000000DEM       BALLOTS CAST - Democratic Party                         BALLOTS CAST - Democratic Party       143                                                    00 
00050010044000391000022000125000244000000000000000000000000000000000000000000000000000000000000000000DEM       BALLOTS CAST - Democratic Party                         BALLOTS CAST - Democratic Party       144                                                    00 
00050010045000505000034000149000322000000000000000000000000000000000000000000000000000000000000000000DEM       BALLOTS CAST - Democratic Party                         BALLOTS CAST - Democratic Party       145                                                    00 
00050010046000317000012000106000199000000000000000000000000000000000000000000000000000000000000000000DEM       BALLOTS CAST - Democratic Party                         BALLOTS CAST - Democratic Party       146                                                    00 
00050010047000356000027000136000193000000000000000000000000000000000000000000000000000000000000000000DEM       BALLOTS CAST - Democratic Party                         BALLOTS CAST - Democratic Party       147                                                    00 
00050010048000275000020000066000189000000000000000000000000000000000000000000000000000000000000000000DEM       BALLOTS CAST - Democratic Party                         BALLOTS CAST - Democratic Party       148                                                    00 
00050010049000123000007000019000097000000000000000000000000000000000000000000000000000000000000000000DEM       BALLOTS CAST - Democratic Party                         BALLOTS CAST - Democratic Party       149                                                    00 
00060010001000009000000000008000001000000000000000000000000000000000000000000000000000000000000000000DEM       DEM President                                           Pete Buttigieg                        101                                                    01 
00060010002000008000002000006000000000000000000000000000000000000000000000000000000000000000000000000DEM       DEM President                                           Pete Buttigieg                        102                                                    01 
00060010003000016000000000015000001000000000000000000000000000000000000000000000000000000000000000000DEM       DEM President                                           Pete Buttigieg                        103                                                    01 
00060010004000007000001000006000000000000000000000000000000000000000000000000000000000000000000000000DEM       DEM President                                           Pete Buttigieg                        104                                                    01 
00060010005000013000001000012000000000000000000000000000000000000000000000000000000000000000000000000DEM       DEM President                                           Pete Buttigieg                        105                                                    01 
00060010006000013000002000011000000000000000000000000000000000000000000000000000000000000000000000000DEM       DEM President                                           Pete Buttigieg                        106                                                    01 
00060010007000009000000000009000000000000000000000000000000000000000000000000000000000000000000000000DEM       DEM President                                           Pete Buttigieg                        107                                                    01 
00060010008000011000003000007000001000000000000000000000000000000000000000000000000000000000000000000DEM       DEM President                                           Pete Buttigieg                        108                                                    01 
00060010009000006000001000004000001000000000000000000000000000000000000000000000000000000000000000000DEM       DEM President                                           Pete Buttigieg                        109                                                    01 
00060010010000014000000000013000001000000000000000000000000000000000000000000000000000000000000000000DEM       DEM President                                           Pete Buttigieg                        110                                                    01 
00060010011000008000000000008000000000000000000000000000000000000000000000000000000000000000000000000DEM       DEM President                                           Pete Buttigieg                        111                                                    01 
00060010012000004000000000003000001000000000000000000000000000000000000000000000000000000000000000000DEM       DEM President                                           Pete Buttigieg                        112                                                    01 
00060010013000000000000000000000000000000000000000000000000000000000000000000000000000000000000000000DEM       DEM President                                           Pete Buttigieg                        113                                                    01 
00060010014000006000001000005000000000000000000000000000000000000000000000000000000000000000000000000DEM       DEM President                                           Pete Buttigieg                        114                                                    01 
00060010015000006000000000006000000000000000000000000000000000000000000000000000000000000000000000000DEM       DEM President                                           Pete Buttigieg                        115                                                    01 
00060010016000003000000000003000000000000000000000000000000000000000000000000000000000000000000000000DEM       DEM President                                           Pete Buttigieg                        116                                                    01 
00060010017000015000000000013000002000000000000000000000000000000000000000000000000000000000000000000DEM       DEM President                                           Pete Buttigieg                        117                                                    01 
00060010018000009000002000006000001000000000000000000000000000000000000000000000000000000000000000000DEM       DEM President                                           Pete Buttigieg                        118                                                    01 
00060010019000003000001000002000000000000000000000000000000000000000000000000000000000000000000000000DEM       DEM President                                           Pete Buttigieg                        119                                                    01 
00060010020000002000000000002000000000000000000000000000000000000000000000000000000000000000000000000DEM       DEM President                                           Pete Buttigieg                        120                                                    01 
00060010021000004000002000002000000000000000000000000000000000000000000000000000000000000000000000000DEM       DEM President                                           Pete Buttigieg                        121                                                    01 
00060010022000003000000000003000000000000000000000000000000000000000000000000000000000000000000000000DEM       DEM President                                           Pete Buttigieg                        122                                                    01 
00060010023000000000000000000000000000000000000000000000000000000000000000000000000000000000000000000DEM       DEM President                                           Pete Buttigieg                        123                                                    01 
00060010024000006000001000005000000000000000000000000000000000000000000000000000000000000000000000000DEM       DEM President                                           Pete Buttigieg                        124                                                    01 
00060010025000011000002000005000004000000000000000000000000000000000000000000000000000000000000000000DEM       DEM President                                           Pete Buttigieg                        125                                                    01 
00060010026000003000000000002000001000000000000000000000000000000000000000000000000000000000000000000DEM       DEM President                                           Pete Buttigieg                        126                                                    01 
00060010027000000000000000000000000000000000000000000000000000000000000000000000000000000000000000000DEM       DEM President                                           Pete Buttigieg                        127                                                    01 
00060010028000000000000000000000000000000000000000000000000000000000000000000000000000000000000000000DEM       DEM President                                           Pete Buttigieg                        128                                                    01 
00060010029000001000000000001000000000000000000000000000000000000000000000000000000000000000000000000DEM       DEM President                                           Pete Buttigieg                        129                                                    01 
00060010030000000000000000000000000000000000000000000000000000000000000000000000000000000000000000000DEM       DEM President                                           Pete Buttigieg                        130                                                    01 
00060010031000002000000000002000000000000000000000000000000000000000000000000000000000000000000000000DEM       DEM President                                           Pete Buttigieg                        131                                                    01 
00060010032000000000000000000000000000000000000000000000000000000000000000000000000000000000000000000DEM       DEM President                                           Pete Buttigieg                        132                                                    01 
00060010033000000000000000000000000000000000000000000000000000000000000000000000000000000000000000000DEM       DEM President                                           Pete Buttigieg                        133                                                    01 
00060010034000004000001000002000001000000000000000000000000000000000000000000000000000000000000000000DEM       DEM President                                           Pete Buttigieg                        134                                                    01 
00060010035000002000000000002000000000000000000000000000000000000000000000000000000000000000000000000DEM       DEM President                                           Pete Buttigieg                        135                                                    01 
00060010036000004000000000004000000000000000000000000000000000000000000000000000000000000000000000000DEM       DEM President                                           Pete Buttigieg                        136                                                    01 
00060010037000007000002000004000001000000000000000000000000000000000000000000000000000000000000000000DEM       DEM President                                           Pete Buttigieg                        137                                                    01 
00060010038000004000000000004000000000000000000000000000000000000000000000000000000000000000000000000DEM       DEM President                                           Pete Buttigieg                        138                                                    01 
00060010039000001000000000001000000000000000000000000000000000000000000000000000000000000000000000000DEM       DEM President                                           Pete Buttigieg                        139                                                    01 
00060010040000019000002000017000000000000000000000000000000000000000000000000000000000000000000000000DEM       DEM President                                           Pete Buttigieg                        140                                                    01 
00060010041000005000001000004000000000000000000000000000000000000000000000000000000000000000000000000DEM       DEM President                                           Pete Buttigieg                        141                                                    01 
00060010042000009000000000009000000000000000000000000000000000000000000000000000000000000000000000000DEM       DEM President                                           Pete Buttigieg                        142                                                    01 
00060010043000008000001000007000000000000000000000000000000000000000000000000000000000000000000000000DEM       DEM President                                           Pete Buttigieg                        143                                                    01 
00060010044000004000001000002000001000000000000000000000000000000000000000000000000000000000000000000DEM       DEM President                                           Pete Buttigieg                        144                                                    01 
00060010045000014000001000012000001000000000000000000000000000000000000000000000000000000000000000000DEM       DEM President                                           Pete Buttigieg                        145                                                    01 
00060010046000015000001000013000001000000000000000000000000000000000000000000000000000000000000000000DEM       DEM President                                           Pete Buttigieg                        146                                                    01 
00060010047000009000001000008000000000000000000000000000000000000000000000000000000000000000000000000DEM       DEM President                                           Pete Buttigieg                        147                                                    01 
00060010048000011000001000007000003000000000000000000000000000000000000000000000000000000000000000000DEM       DEM President                                           Pete Buttigieg                        148                                                    01 
00060010049000002000000000002000000000000000000000000000000000000000000000000000000000000000000000000DEM       DEM President                                           Pete Buttigieg                        149                                                    01 
00060020001000134000001000041000092000000000000000000000000000000000000000000000000000000000000000000DEM       DEM President                                           Joseph R. Biden                       101                                                    01 
00060020002000086000005000008000073000000000000000000000000000000000000000000000000000000000000000000DEM       DEM President                                           Joseph R. Biden                       102                                                    01 
00060020003000176000004000034000138000000000000000000000000000000000000000000000000000000000000000000DEM       DEM President                                           Joseph R. Biden                       103                                                    01 
00060020004000132000002000041000089000000000000000000000000000000000000000000000000000000000000000000DEM       DEM President                                           Joseph R. Biden                       104                                                    01 
00060020005000183000009000032000142000000000000000000000000000000000000000000000000000000000000000000DEM       DEM President                                           Joseph R. Biden                       105                                                    01 
00060020006000106000003000032000071000000000000000000000000000000000000000000000000000000000000000000DEM       DEM President                                           Joseph R. Biden                       106                                                    01 
00060020007000197000006000041000150000000000000000000000000000000000000000000000000000000000000000000DEM       DEM President                                           Joseph R. Biden                       107                                                    01 
00060020008000149000004000043000102000000000000000000000000000000000000000000000000000000000000000000DEM       DEM President                                           Joseph R. Biden                       108                                                    01 
00060020009000118000007000025000086000000000000000000000000000000000000000000000000000000000000000000DEM       DEM President                                           Joseph R. Biden                       109                                                    01 
00060020010000344000012000069000263000000000000000000000000000000000000000000000000000000000000000000DEM       DEM President                                           Joseph R. Biden                       110                                                    01 
00060020011000100000001000022000077000000000000000000000000000000000000000000000000000000000000000000DEM       DEM President                                           Joseph R. Biden                       111                                                    01 
00060020012000056000001000019000036000000000000000000000000000000000000000000000000000000000000000000DEM       DEM President                                           Joseph R. Biden                       112                                                    01 
00060020013000124000012000018000094000000000000000000000000000000000000000000000000000000000000000000DEM       DEM President                                           Joseph R. Biden                       113                                                    01 
00060020014000076000012000014000050000000000000000000000000000000000000000000000000000000000000000000DEM       DEM President                                           Joseph R. Biden                       114                                                    01 
00060020015000072000005000023000044000000000000000000000000000000000000000000000000000000000000000000DEM       DEM President                                           Joseph R. Biden                       115                                                    01 
00060020016000052000004000011000037000000000000000000000000000000000000000000000000000000000000000000DEM       DEM President                                           Joseph R. Biden                       116                                                    01 
00060020017000085000005000016000064000000000000000000000000000000000000000000000000000000000000000000DEM       DEM President                                           Joseph R. Biden                       117                                                    01 
00060020018000082000005000028000049000000000000000000000000000000000000000000000000000000000000000000DEM       DEM President                                           Joseph R. Biden                       118                                                    01 
00060020019000054000001000020000033000000000000000000000000000000000000000000000000000000000000000000DEM       DEM President                                           Joseph R. Biden                       119                                                    01 
00060020020000012000001000000000011000000000000000000000000000000000000000000000000000000000000000000DEM       DEM President                                           Joseph R. Biden                       120                                                    01 
00060020021000070000004000018000048000000000000000000000000000000000000000000000000000000000000000000DEM       DEM President                                           Joseph R. Biden                       121                                                    01 
00060020022000049000002000008000039000000000000000000000000000000000000000000000000000000000000000000DEM       DEM President                                           Joseph R. Biden                       122                                                    01 
00060020023000049000010000006000033000000000000000000000000000000000000000000000000000000000000000000DEM       DEM President                                           Joseph R. Biden                       123                                                    01 
00060020024000084000008000020000056000000000000000000000000000000000000000000000000000000000000000000DEM       DEM President                                           Joseph R. Biden                       124                                                    01 
00060020025000096000010000024000062000000000000000000000000000000000000000000000000000000000000000000DEM       DEM President                                           Joseph R. Biden                       125                                                    01 
00060020026000027000000000008000019000000000000000000000000000000000000000000000000000000000000000000DEM       DEM President                                           Joseph R. Biden                       126                                                    01 
00060020027000015000001000003000011000000000000000000000000000000000000000000000000000000000000000000DEM       DEM President                                           Joseph R. Biden                       127                                                    01 
00060020028000006000000000005000001000000000000000000000000000000000000000000000000000000000000000000DEM       DEM President                                           Joseph R. Biden                       128                                                    01 
00060020029000022000000000003000019000000000000000000000000000000000000000000000000000000000000000000DEM       DEM President                                           Joseph R. Biden                       129                                                    01 
00060020030000025000000000000000025000000000000000000000000000000000000000000000000000000000000000000DEM       DEM President                                           Joseph R. Biden                       130                                                    01 
00060020031000076000004000005000067000000000000000000000000000000000000000000000000000000000000000000DEM       DEM President                                           Joseph R. Biden                       131                                                    01 
00060020032000006000000000002000004000000000000000000000000000000000000000000000000000000000000000000DEM       DEM President                                           Joseph R. Biden                       132                                                    01 
00060020033000012000000000002000010000000000000000000000000000000000000000000000000000000000000000000DEM       DEM President                                           Joseph R. Biden                       133                                                    01 
00060020034000017000000000007000010000000000000000000000000000000000000000000000000000000000000000000DEM       DEM President                                           Joseph R. Biden                       134                                                    01 
00060020035000074000004000016000054000000000000000000000000000000000000000000000000000000000000000000DEM       DEM President                                           Joseph R. Biden                       135                                                    01 
00060020036000015000001000007000007000000000000000000000000000000000000000000000000000000000000000000DEM       DEM President                                           Joseph R. Biden                       136                                                    01 
00060020037000038000003000011000024000000000000000000000000000000000000000000000000000000000000000000DEM       DEM President                                           Joseph R. Biden                       137                                                    01 
00060020038000026000000000004000022000000000000000000000000000000000000000000000000000000000000000000DEM       DEM President                                           Joseph R. Biden                       138                                                    01 
00060020039000036000000000009000027000000000000000000000000000000000000000000000000000000000000000000DEM       DEM President                                           Joseph R. Biden                       139                                                    01 
00060020040000223000002000064000157000000000000000000000000000000000000000000000000000000000000000000DEM       DEM President                                           Joseph R. Biden                       140                                                    01 
00060020041000063000001000011000051000000000000000000000000000000000000000000000000000000000000000000DEM       DEM President                                           Joseph R. Biden                       141                                                    01 
00060020042000064000004000017000043000000000000000000000000000000000000000000000000000000000000000000DEM       DEM President                                           Joseph R. Biden                       142                                                    01 
00060020043000133000005000036000092000000000000000000000000000000000000000000000000000000000000000000DEM       DEM President                                           Joseph R. Biden                       143                                                    01 
00060020044000215000007000052000156000000000000000000000000000000000000000000000000000000000000000000DEM       DEM President                                           Joseph R. Biden                       144                                                    01 
00060020045000241000014000048000179000000000000000000000000000000000000000000000000000000000000000000DEM       DEM President                                           Joseph R. Biden                       145                                                    01 
00060020046000149000004000032000113000000000000000000000000000000000000000000000000000000000000000000DEM       DEM President                                           Joseph R. Biden                       146                                                    01 
00060020047000130000010000032000088000000000000000000000000000000000000000000000000000000000000000000DEM       DEM President                                           Joseph R. Biden                       147                                                    01 
00060020048000120000006000014000100000000000000000000000000000000000000000000000000000000000000000000DEM       DEM President                                           Joseph R. Biden                       148                                                    01 
00060020049000061000000000005000056000000000000000000000000000000000000000000000000000000000000000000DEM       DEM President                                           Joseph R. Biden                       149                                                    01 
00060030001000000000000000000000000000000000000000000000000000000000000000000000000000000000000000000DEM       DEM President                                           Marianne Williamson                   101                                                    01 
00060030002000000000000000000000000000000000000000000000000000000000000000000000000000000000000000000DEM       DEM President                                           Marianne Williamson                   102                                                    01 
00060030003000000000000000000000000000000000000000000000000000000000000000000000000000000000000000000DEM       DEM President                                           Marianne Williamson                   103                                                    01 
00060030004000000000000000000000000000000000000000000000000000000000000000000000000000000000000000000DEM       DEM President                                           Marianne Williamson                   104                                                    01 
00060030005000000000000000000000000000000000000000000000000000000000000000000000000000000000000000000DEM       DEM President                                           Marianne Williamson                   105                                                    01 
00060030006000000000000000000000000000000000000000000000000000000000000000000000000000000000000000000DEM       DEM President                                           Marianne Williamson                   106                                                    01 
00060030007000000000000000000000000000000000000000000000000000000000000000000000000000000000000000000DEM       DEM President                                           Marianne Williamson                   107                                                    01 
00060030008000000000000000000000000000000000000000000000000000000000000000000000000000000000000000000DEM       DEM President                                           Marianne Williamson                   108                                                    01 
00060030009000000000000000000000000000000000000000000000000000000000000000000000000000000000000000000DEM       DEM President                                           Marianne Williamson                   109                                                    01 
00060030010000000000000000000000000000000000000000000000000000000000000000000000000000000000000000000DEM       DEM President                                           Marianne Williamson                   110                                                    01 
00060030011000000000000000000000000000000000000000000000000000000000000000000000000000000000000000000DEM       DEM President                                           Marianne Williamson                   111                                                    01 
00060030012000000000000000000000000000000000000000000000000000000000000000000000000000000000000000000DEM       DEM President                                           Marianne Williamson                   112                                                    01 
00060030013000001000000000001000000000000000000000000000000000000000000000000000000000000000000000000DEM       DEM President                                           Marianne Williamson                   113                                                    01 
00060030014000000000000000000000000000000000000000000000000000000000000000000000000000000000000000000DEM       DEM President                                           Marianne Williamson                   114                                                    01 
00060030015000000000000000000000000000000000000000000000000000000000000000000000000000000000000000000DEM       DEM President                                           Marianne Williamson                   115                                                    01 
00060030016000000000000000000000000000000000000000000000000000000000000000000000000000000000000000000DEM       DEM President                                           Marianne Williamson                   116                                                    01 
00060030017000000000000000000000000000000000000000000000000000000000000000000000000000000000000000000DEM       DEM President                                           Marianne Williamson                   117                                                    01 
00060030018000001000000000000000001000000000000000000000000000000000000000000000000000000000000000000DEM       DEM President                                           Marianne Williamson                   118                                                    01 
00060030019000000000000000000000000000000000000000000000000000000000000000000000000000000000000000000DEM       DEM President                                           Marianne Williamson                   119                                                    01 
00060030020000001000000000000000001000000000000000000000000000000000000000000000000000000000000000000DEM       DEM President                                           Marianne Williamson                   120                                                    01 
00060030021000000000000000000000000000000000000000000000000000000000000000000000000000000000000000000DEM       DEM President                                           Marianne Williamson                   121                                                    01 
00060030022000000000000000000000000000000000000000000000000000000000000000000000000000000000000000000DEM       DEM President                                           Marianne Williamson                   122                                                    01 
00060030023000000000000000000000000000000000000000000000000000000000000000000000000000000000000000000DEM       DEM President                                           Marianne Williamson                   123                                                    01 
00060030024000000000000000000000000000000000000000000000000000000000000000000000000000000000000000000DEM       DEM President                                           Marianne Williamson                   124                                                    01 
00060030025000000000000000000000000000000000000000000000000000000000000000000000000000000000000000000DEM       DEM President                                           Marianne Williamson                   125                                                    01 
00060030026000001000000000001000000000000000000000000000000000000000000000000000000000000000000000000DEM       DEM President                                           Marianne Williamson                   126                                                    01 
00060030027000000000000000000000000000000000000000000000000000000000000000000000000000000000000000000DEM       DEM President                                           Marianne Williamson                   127                                                    01 
00060030028000000000000000000000000000000000000000000000000000000000000000000000000000000000000000000DEM       DEM President                                           Marianne Williamson                   128                                                    01 
00060030029000000000000000000000000000000000000000000000000000000000000000000000000000000000000000000DEM       DEM President                                           Marianne Williamson                   129                                                    01 
00060030030000000000000000000000000000000000000000000000000000000000000000000000000000000000000000000DEM       DEM President                                           Marianne Williamson                   130                                                    01 
00060030031000000000000000000000000000000000000000000000000000000000000000000000000000000000000000000DEM       DEM President                                           Marianne Williamson                   131                                                    01 
00060030032000000000000000000000000000000000000000000000000000000000000000000000000000000000000000000DEM       DEM President                                           Marianne Williamson                   132                                                    01 
00060030033000000000000000000000000000000000000000000000000000000000000000000000000000000000000000000DEM       DEM President                                           Marianne Williamson                   133                                                    01 
00060030034000000000000000000000000000000000000000000000000000000000000000000000000000000000000000000DEM       DEM President                                           Marianne Williamson                   134                                                    01 
00060030035000001000000000001000000000000000000000000000000000000000000000000000000000000000000000000DEM       DEM President                                           Marianne Williamson                   135                                                    01 
00060030036000000000000000000000000000000000000000000000000000000000000000000000000000000000000000000DEM       DEM President                                           Marianne Williamson                   136                                                    01 
00060030037000000000000000000000000000000000000000000000000000000000000000000000000000000000000000000DEM       DEM President                                           Marianne Williamson                   137                                                    01 
00060030038000000000000000000000000000000000000000000000000000000000000000000000000000000000000000000DEM       DEM President                                           Marianne Williamson                   138                                                    01 
00060030039000000000000000000000000000000000000000000000000000000000000000000000000000000000000000000DEM       DEM President                                           Marianne Williamson                   139                                                    01 
00060030040000000000000000000000000000000000000000000000000000000000000000000000000000000000000000000DEM       DEM President                                           Marianne Williamson                   140                                                    01 
00060030041000000000000000000000000000000000000000000000000000000000000000000000000000000000000000000DEM       DEM President                                           Marianne Williamson                   141                                                    01 
00060030042000000000000000000000000000000000000000000000000000000000000000000000000000000000000000000DEM       DEM President                                           Marianne Williamson                   142                                                    01 
00060030043000000000000000000000000000000000000000000000000000000000000000000000000000000000000000000DEM       DEM President                                           Marianne Williamson                   143                                                    01 
00060030044000000000000000000000000000000000000000000000000000000000000000000000000000000000000000000DEM       DEM President                                           Marianne Williamson                   144                                                    01 
00060030045000001000000000000000001000000000000000000000000000000000000000000000000000000000000000000DEM       DEM President                                           Marianne Williamson                   145                                                    01 
00060030046000001000000000001000000000000000000000000000000000000000000000000000000000000000000000000DEM       DEM President                                           Marianne Williamson                   146                                                    01 
00060030047000000000000000000000000000000000000000000000000000000000000000000000000000000000000000000DEM       DEM President                                           Marianne Williamson                   147                                                    01 
00060030048000000000000000000000000000000000000000000000000000000000000000000000000000000000000000000DEM       DEM President                                           Marianne Williamson                   148                                                    01 
00060030049000000000000000000000000000000000000000000000000000000000000000000000000000000000000000000DEM       DEM President                                           Marianne Williamson                   149                                                    01 
00060040001000001000000000000000001000000000000000000000000000000000000000000000000000000000000000000DEM       DEM President                                           Tulsi Gabbard                         101                                                    01 
00060040002000001000000000000000001000000000000000000000000000000000000000000000000000000000000000000DEM       DEM President                                           Tulsi Gabbard                         102                                                    01 
00060040003000001000000000000000001000000000000000000000000000000000000000000000000000000000000000000DEM       DEM President                                           Tulsi Gabbard                         103                                                    01 
00060040004000001000000000001000000000000000000000000000000000000000000000000000000000000000000000000DEM       DEM President                                           Tulsi Gabbard                         104                                                    01 
00060040005000003000000000001000002000000000000000000000000000000000000000000000000000000000000000000DEM       DEM President                                           Tulsi Gabbard                         105                                                    01 
00060040006000004000000000002000002000000000000000000000000000000000000000000000000000000000000000000DEM       DEM President                                           Tulsi Gabbard                         106                                                    01 
00060040007000002000000000000000002000000000000000000000000000000000000000000000000000000000000000000DEM       DEM President                                           Tulsi Gabbard                         107                                                    01 
00060040008000000000000000000000000000000000000000000000000000000000000000000000000000000000000000000DEM       DEM President                                           Tulsi Gabbard                         108                                                    01 
00060040009000000000000000000000000000000000000000000000000000000000000000000000000000000000000000000DEM       DEM President                                           Tulsi Gabbard                         109                                                    01 
00060040010000000000000000000000000000000000000000000000000000000000000000000000000000000000000000000DEM       DEM President                                           Tulsi Gabbard                         110                                                    01 
00060040011000000000000000000000000000000000000000000000000000000000000000000000000000000000000000000DEM       DEM President                                           Tulsi Gabbard                         111                                                    01 
00060040012000001000000000001000000000000000000000000000000000000000000000000000000000000000000000000DEM       DEM President                                           Tulsi Gabbard                         112                                                    01 
00060040013000000000000000000000000000000000000000000000000000000000000000000000000000000000000000000DEM       DEM President                                           Tulsi Gabbard                         113                                                    01 
00060040014000001000000000001000000000000000000000000000000000000000000000000000000000000000000000000DEM       DEM President                                           Tulsi Gabbard                         114                                                    01 
00060040015000000000000000000000000000000000000000000000000000000000000000000000000000000000000000000DEM       DEM President                                           Tulsi Gabbard                         115                                                    01 
00060040016000000000000000000000000000000000000000000000000000000000000000000000000000000000000000000DEM       DEM President                                           Tulsi Gabbard                         116                                                    01 
00060040017000000000000000000000000000000000000000000000000000000000000000000000000000000000000000000DEM       DEM President                                           Tulsi Gabbard                         117                                                    01 
00060040018000000000000000000000000000000000000000000000000000000000000000000000000000000000000000000DEM       DEM President                                           Tulsi Gabbard                         118                                                    01 
00060040019000000000000000000000000000000000000000000000000000000000000000000000000000000000000000000DEM       DEM President                                           Tulsi Gabbard                         119                                                    01 
00060040020000001000000000001000000000000000000000000000000000000000000000000000000000000000000000000DEM       DEM President                                           Tulsi Gabbard                         120                                                    01 
00060040021000000000000000000000000000000000000000000000000000000000000000000000000000000000000000000DEM       DEM President                                           Tulsi Gabbard                         121                                                    01 
00060040022000001000000000001000000000000000000000000000000000000000000000000000000000000000000000000DEM       DEM President                                           Tulsi Gabbard                         122                                                    01 
00060040023000000000000000000000000000000000000000000000000000000000000000000000000000000000000000000DEM       DEM President                                           Tulsi Gabbard                         123                                                    01 
00060040024000001000000000000000001000000000000000000000000000000000000000000000000000000000000000000DEM       DEM President                                           Tulsi Gabbard                         124                                                    01 
00060040025000000000000000000000000000000000000000000000000000000000000000000000000000000000000000000DEM       DEM President                                           Tulsi Gabbard                         125                                                    01 
00060040026000000000000000000000000000000000000000000000000000000000000000000000000000000000000000000DEM       DEM President                                           Tulsi Gabbard                         126                                                    01 
00060040027000000000000000000000000000000000000000000000000000000000000000000000000000000000000000000DEM       DEM President                                           Tulsi Gabbard                         127                                                    01 
00060040028000000000000000000000000000000000000000000000000000000000000000000000000000000000000000000DEM       DEM President                                           Tulsi Gabbard                         128                                                    01 
00060040029000000000000000000000000000000000000000000000000000000000000000000000000000000000000000000DEM       DEM President                                           Tulsi Gabbard                         129                                                    01 
00060040030000000000000000000000000000000000000000000000000000000000000000000000000000000000000000000DEM       DEM President                                           Tulsi Gabbard                         130                                                    01 
00060040031000000000000000000000000000000000000000000000000000000000000000000000000000000000000000000DEM       DEM President                                           Tulsi Gabbard                         131                                                    01 
00060040032000000000000000000000000000000000000000000000000000000000000000000000000000000000000000000DEM       DEM President                                           Tulsi Gabbard                         132                                                    01 
00060040033000000000000000000000000000000000000000000000000000000000000000000000000000000000000000000DEM       DEM President                                           Tulsi Gabbard                         133                                                    01 
00060040034000000000000000000000000000000000000000000000000000000000000000000000000000000000000000000DEM       DEM President                                           Tulsi Gabbard                         134                                                    01 
00060040035000001000000000000000001000000000000000000000000000000000000000000000000000000000000000000DEM       DEM President                                           Tulsi Gabbard                         135                                                    01 
00060040036000000000000000000000000000000000000000000000000000000000000000000000000000000000000000000DEM       DEM President                                           Tulsi Gabbard                         136                                                    01 
00060040037000000000000000000000000000000000000000000000000000000000000000000000000000000000000000000DEM       DEM President                                           Tulsi Gabbard                         137                                                    01 
00060040038000000000000000000000000000000000000000000000000000000000000000000000000000000000000000000DEM       DEM President                                           Tulsi Gabbard                         138                                                    01 
00060040039000000000000000000000000000000000000000000000000000000000000000000000000000000000000000000DEM       DEM President                                           Tulsi Gabbard                         139                                                    01 
00060040040000002000000000000000002000000000000000000000000000000000000000000000000000000000000000000DEM       DEM President                                           Tulsi Gabbard                         140                                                    01 
00060040041000000000000000000000000000000000000000000000000000000000000000000000000000000000000000000DEM       DEM President                                           Tulsi Gabbard                         141                                                    01 
00060040042000000000000000000000000000000000000000000000000000000000000000000000000000000000000000000DEM       DEM President                                           Tulsi Gabbard                         142                                                    01 
00060040043000001000000000000000001000000000000000000000000000000000000000000000000000000000000000000DEM       DEM President                                           Tulsi Gabbard                         143                                                    01 
00060040044000001000000000001000000000000000000000000000000000000000000000000000000000000000000000000DEM       DEM President                                           Tulsi Gabbard                         144                                                    01 
00060040045000001000000000000000001000000000000000000000000000000000000000000000000000000000000000000DEM       DEM President                                           Tulsi Gabbard                         145                                                    01 
00060040046000000000000000000000000000000000000000000000000000000000000000000000000000000000000000000DEM       DEM President                                           Tulsi Gabbard                         146                                                    01 
00060040047000000000000000000000000000000000000000000000000000000000000000000000000000000000000000000DEM       DEM President                                           Tulsi Gabbard                         147                                                    01 
00060040048000000000000000000000000000000000000000000000000000000000000000000000000000000000000000000DEM       DEM President                                           Tulsi Gabbard                         148                                                    01 
00060040049000000000000000000000000000000000000000000000000000000000000000000000000000000000000000000DEM       DEM President                                           Tulsi Gabbard                         149                                                    01 
00060050001000000000000000000000000000000000000000000000000000000000000000000000000000000000000000000DEM       DEM President                                           Roque "Rocky" De La Fuente            101                                                    01 
00060050002000000000000000000000000000000000000000000000000000000000000000000000000000000000000000000DEM       DEM President                                           Roque "Rocky" De La Fuente            102                                                    01 
00060050003000001000000000000000001000000000000000000000000000000000000000000000000000000000000000000DEM       DEM President                                           Roque "Rocky" De La Fuente            103                                                    01 
00060050004000001000000000000000001000000000000000000000000000000000000000000000000000000000000000000DEM       DEM President                                           Roque "Rocky" De La Fuente            104                                                    01 
00060050005000000000000000000000000000000000000000000000000000000000000000000000000000000000000000000DEM       DEM President                                           Roque "Rocky" De La Fuente            105                                                    01 
00060050006000000000000000000000000000000000000000000000000000000000000000000000000000000000000000000DEM       DEM President                                           Roque "Rocky" De La Fuente            106                                                    01 
00060050007000000000000000000000000000000000000000000000000000000000000000000000000000000000000000000DEM       DEM President                                           Roque "Rocky" De La Fuente            107                                                    01 
00060050008000000000000000000000000000000000000000000000000000000000000000000000000000000000000000000DEM       DEM President                                           Roque "Rocky" De La Fuente            108                                                    01 
00060050009000000000000000000000000000000000000000000000000000000000000000000000000000000000000000000DEM       DEM President                                           Roque "Rocky" De La Fuente            109                                                    01 
00060050010000000000000000000000000000000000000000000000000000000000000000000000000000000000000000000DEM       DEM President                                           Roque "Rocky" De La Fuente            110                                                    01 
00060050011000000000000000000000000000000000000000000000000000000000000000000000000000000000000000000DEM       DEM President                                           Roque "Rocky" De La Fuente            111                                                    01 
00060050012000001000000000000000001000000000000000000000000000000000000000000000000000000000000000000DEM       DEM President                                           Roque "Rocky" De La Fuente            112                                                    01 
00060050013000000000000000000000000000000000000000000000000000000000000000000000000000000000000000000DEM       DEM President                                           Roque "Rocky" De La Fuente            113                                                    01 
00060050014000000000000000000000000000000000000000000000000000000000000000000000000000000000000000000DEM       DEM President                                           Roque "Rocky" De La Fuente            114                                                    01 
00060050015000001000000000000000001000000000000000000000000000000000000000000000000000000000000000000DEM       DEM President                                           Roque "Rocky" De La Fuente            115                                                    01 
00060050016000002000000000001000001000000000000000000000000000000000000000000000000000000000000000000DEM       DEM President                                           Roque "Rocky" De La Fuente            116                                                    01 
00060050017000000000000000000000000000000000000000000000000000000000000000000000000000000000000000000DEM       DEM President                                           Roque "Rocky" De La Fuente            117                                                    01 
00060050018000000000000000000000000000000000000000000000000000000000000000000000000000000000000000000DEM       DEM President                                           Roque "Rocky" De La Fuente            118                                                    01 
00060050019000000000000000000000000000000000000000000000000000000000000000000000000000000000000000000DEM       DEM President                                           Roque "Rocky" De La Fuente            119                                                    01 
00060050020000000000000000000000000000000000000000000000000000000000000000000000000000000000000000000DEM       DEM President                                           Roque "Rocky" De La Fuente            120                                                    01 
00060050021000000000000000000000000000000000000000000000000000000000000000000000000000000000000000000DEM       DEM President                                           Roque "Rocky" De La Fuente            121                                                    01 
00060050022000000000000000000000000000000000000000000000000000000000000000000000000000000000000000000DEM       DEM President                                           Roque "Rocky" De La Fuente            122                                                    01 
00060050023000000000000000000000000000000000000000000000000000000000000000000000000000000000000000000DEM       DEM President                                           Roque "Rocky" De La Fuente            123                                                    01 
00060050024000000000000000000000000000000000000000000000000000000000000000000000000000000000000000000DEM       DEM President                                           Roque "Rocky" De La Fuente            124                                                    01 
00060050025000000000000000000000000000000000000000000000000000000000000000000000000000000000000000000DEM       DEM President                                           Roque "Rocky" De La Fuente            125                                                    01 
00060050026000000000000000000000000000000000000000000000000000000000000000000000000000000000000000000DEM       DEM President                                           Roque "Rocky" De La Fuente            126                                                    01 
00060050027000000000000000000000000000000000000000000000000000000000000000000000000000000000000000000DEM       DEM President                                           Roque "Rocky" De La Fuente            127                                                    01 
00060050028000000000000000000000000000000000000000000000000000000000000000000000000000000000000000000DEM       DEM President                                           Roque "Rocky" De La Fuente            128                                                    01 
00060050029000000000000000000000000000000000000000000000000000000000000000000000000000000000000000000DEM       DEM President                                           Roque "Rocky" De La Fuente            129                                                    01 
00060050030000000000000000000000000000000000000000000000000000000000000000000000000000000000000000000DEM       DEM President                                           Roque "Rocky" De La Fuente            130                                                    01 
00060050031000000000000000000000000000000000000000000000000000000000000000000000000000000000000000000DEM       DEM President                                           Roque "Rocky" De La Fuente            131                                                    01 
00060050032000000000000000000000000000000000000000000000000000000000000000000000000000000000000000000DEM       DEM President                                           Roque "Rocky" De La Fuente            132                                                    01 
00060050033000000000000000000000000000000000000000000000000000000000000000000000000000000000000000000DEM       DEM President                                           Roque "Rocky" De La Fuente            133                                                    01 
00060050034000000000000000000000000000000000000000000000000000000000000000000000000000000000000000000DEM       DEM President                                           Roque "Rocky" De La Fuente            134                                                    01 
