00010010001001154000000000000000000000000000000000000000000000000000000000000000000000000000000000000          REGISTERED VOTERS - TOTAL                               REGISTERED VOTERS - TOTAL             PRECINCT NO. 10                                        00 
00010010002000566000000000000000000000000000000000000000000000000000000000000000000000000000000000000          REGISTERED VOTERS - TOTAL                               REGISTERED VOTERS - TOTAL             PRECINCT NO. 11                                        00 
00010010003001196000000000000000000000000000000000000000000000000000000000000000000000000000000000000          REGISTERED VOTERS - TOTAL                               REGISTERED VOTERS - TOTAL             PRECINCT NO. 12                                        00 
00010010004001797000000000000000000000000000000000000000000000000000000000000000000000000000000000000          REGISTERED VOTERS - TOTAL                               REGISTERED VOTERS - TOTAL             PRECINCT NO. 18                                        00 
00010010005001412000000000000000000000000000000000000000000000000000000000000000000000000000000000000          REGISTERED VOTERS - TOTAL                               REGISTERED VOTERS - TOTAL             PRECINCT NO. 19                                        00 
00010010006001289000000000000000000000000000000000000000000000000000000000000000000000000000000000000          REGISTERED VOTERS - TOTAL                               REGISTERED VOTERS - TOTAL             PRECINCT NO. 20                                        00 
00010010007001465000000000000000000000000000000000000000000000000000000000000000000000000000000000000          REGISTERED VOTERS - TOTAL                               REGISTERED VOTERS - TOTAL             PRECINCT NO. 21                                        00 
00010010008000550000000000000000000000000000000000000000000000000000000000000000000000000000000000000          REGISTERED VOTERS - TOTAL                               REGISTERED VOTERS - TOTAL             PRECINCT NO. 23                                        00 
00010010009000777000000000000000000000000000000000000000000000000000000000000000000000000000000000000          REGISTERED VOTERS - TOTAL                               REGISTERED VOTERS - TOTAL             PRECINCT NO. 24                                        00 
00010010010000759000000000000000000000000000000000000000000000000000000000000000000000000000000000000          REGISTERED VOTERS - TOTAL                               REGISTERED VOTERS - TOTAL             PRECINCT NO. 25                                        00 
00010010011000633000000000000000000000000000000000000000000000000000000000000000000000000000000000000          REGISTERED VOTERS - TOTAL                               REGISTERED VOTERS - TOTAL             PRECINCT NO. 30                                        00 
00010010012001219000000000000000000000000000000000000000000000000000000000000000000000000000000000000          REGISTERED VOTERS - TOTAL                               REGISTERED VOTERS - TOTAL             PRECINCT NO. 31                                        00 
00010010013001713000000000000000000000000000000000000000000000000000000000000000000000000000000000000          REGISTERED VOTERS - TOTAL                               REGISTERED VOTERS - TOTAL             PRECINCT NO. 32                                        00 
00010010014000974000000000000000000000000000000000000000000000000000000000000000000000000000000000000          REGISTERED VOTERS - TOTAL                               REGISTERED VOTERS - TOTAL             PRECINCT NO. 33                                        00 
00010010015001125000000000000000000000000000000000000000000000000000000000000000000000000000000000000          REGISTERED VOTERS - TOTAL                               REGISTERED VOTERS - TOTAL             PRECINCT NO. 34                                        00 
00010010016000194000000000000000000000000000000000000000000000000000000000000000000000000000000000000          REGISTERED VOTERS - TOTAL                               REGISTERED VOTERS - TOTAL             PRECINCT NO. 35                                        00 
00010010017000702000000000000000000000000000000000000000000000000000000000000000000000000000000000000          REGISTERED VOTERS - TOTAL                               REGISTERED VOTERS - TOTAL             PRECINCT NO. 41                                        00 
00010010018001969000000000000000000000000000000000000000000000000000000000000000000000000000000000000          REGISTERED VOTERS - TOTAL                               REGISTERED VOTERS - TOTAL             PRECINCT NO. 44                                        00 
00010010019001546000000000000000000000000000000000000000000000000000000000000000000000000000000000000          REGISTERED VOTERS - TOTAL                               REGISTERED VOTERS - TOTAL             PRECINCT NO. 45                                        00 
00010010020000772000000000000000000000000000000000000000000000000000000000000000000000000000000000000          REGISTERED VOTERS - TOTAL                               REGISTERED VOTERS - TOTAL             PRECINCT NO. 46                                        00 
00010010021001160000000000000000000000000000000000000000000000000000000000000000000000000000000000000          REGISTERED VOTERS - TOTAL                               REGISTERED VOTERS - TOTAL             PRECINCT NO. 47                                        00 
00020010001001154000000000000000000000000000000000000000000000000000000000000000000000000000000000000NON       REGISTERED VOTERS - NONPARTISAN                         REGISTERED VOTERS - NONPARTISAN       PRECINCT NO. 10                                        00 
00020010002000566000000000000000000000000000000000000000000000000000000000000000000000000000000000000NON       REGISTERED VOTERS - NONPARTISAN                         REGISTERED VOTERS - NONPARTISAN       PRECINCT NO. 11                                        00 
00020010003001196000000000000000000000000000000000000000000000000000000000000000000000000000000000000NON       REGISTERED VOTERS - NONPARTISAN                         REGISTERED VOTERS - NONPARTISAN       PRECINCT NO. 12                                        00 
00020010004001797000000000000000000000000000000000000000000000000000000000000000000000000000000000000NON       REGISTERED VOTERS - NONPARTISAN                         REGISTERED VOTERS - NONPARTISAN       PRECINCT NO. 18                                        00 
00020010005001412000000000000000000000000000000000000000000000000000000000000000000000000000000000000NON       REGISTERED VOTERS - NONPARTISAN                         REGISTERED VOTERS - NONPARTISAN       PRECINCT NO. 19                                        00 
00020010006001289000000000000000000000000000000000000000000000000000000000000000000000000000000000000NON       REGISTERED VOTERS - NONPARTISAN                         REGISTERED VOTERS - NONPARTISAN       PRECINCT NO. 20                                        00 
00020010007001465000000000000000000000000000000000000000000000000000000000000000000000000000000000000NON       REGISTERED VOTERS - NONPARTISAN                         REGISTERED VOTERS - NONPARTISAN       PRECINCT NO. 21                                        00 
00020010008000550000000000000000000000000000000000000000000000000000000000000000000000000000000000000NON       REGISTERED VOTERS - NONPARTISAN                         REGISTERED VOTERS - NONPARTISAN       PRECINCT NO. 23                                        00 
00020010009000777000000000000000000000000000000000000000000000000000000000000000000000000000000000000NON       REGISTERED VOTERS - NONPARTISAN                         REGISTERED VOTERS - NONPARTISAN       PRECINCT NO. 24                                        00 
00020010010000759000000000000000000000000000000000000000000000000000000000000000000000000000000000000NON       REGISTERED VOTERS - NONPARTISAN                         REGISTERED VOTERS - NONPARTISAN       PRECINCT NO. 25                                        00 
00020010011000633000000000000000000000000000000000000000000000000000000000000000000000000000000000000NON       REGISTERED VOTERS - NONPARTISAN                         REGISTERED VOTERS - NONPARTISAN       PRECINCT NO. 30                                        00 
00020010012001219000000000000000000000000000000000000000000000000000000000000000000000000000000000000NON       REGISTERED VOTERS - NONPARTISAN                         REGISTERED VOTERS - NONPARTISAN       PRECINCT NO. 31                                        00 
00020010013001713000000000000000000000000000000000000000000000000000000000000000000000000000000000000NON       REGISTERED VOTERS - NONPARTISAN                         REGISTERED VOTERS - NONPARTISAN       PRECINCT NO. 32                                        00 
00020010014000974000000000000000000000000000000000000000000000000000000000000000000000000000000000000NON       REGISTERED VOTERS - NONPARTISAN                         REGISTERED VOTERS - NONPARTISAN       PRECINCT NO. 33                                        00 
00020010015001125000000000000000000000000000000000000000000000000000000000000000000000000000000000000NON       REGISTERED VOTERS - NONPARTISAN                         REGISTERED VOTERS - NONPARTISAN       PRECINCT NO. 34                                        00 
00020010016000194000000000000000000000000000000000000000000000000000000000000000000000000000000000000NON       REGISTERED VOTERS - NONPARTISAN                         REGISTERED VOTERS - NONPARTISAN       PRECINCT NO. 35                                        00 
00020010017000702000000000000000000000000000000000000000000000000000000000000000000000000000000000000NON       REGISTERED VOTERS - NONPARTISAN                         REGISTERED VOTERS - NONPARTISAN       PRECINCT NO. 41                                        00 
00020010018001969000000000000000000000000000000000000000000000000000000000000000000000000000000000000NON       REGISTERED VOTERS - NONPARTISAN                         REGISTERED VOTERS - NONPARTISAN       PRECINCT NO. 44                                        00 
00020010019001546000000000000000000000000000000000000000000000000000000000000000000000000000000000000NON       REGISTERED VOTERS - NONPARTISAN                         REGISTERED VOTERS - NONPARTISAN       PRECINCT NO. 45                                        00 
00020010020000772000000000000000000000000000000000000000000000000000000000000000000000000000000000000NON       REGISTERED VOTERS - NONPARTISAN                         REGISTERED VOTERS - NONPARTISAN       PRECINCT NO. 46                                        00 
00020010021001160000000000000000000000000000000000000000000000000000000000000000000000000000000000000NON       REGISTERED VOTERS - NONPARTISAN                         REGISTERED VOTERS - NONPARTISAN       PRECINCT NO. 47                                        00 
00030010001000000000000000000000000000000000000000000000000000000000000000000000000000000000000000000REP       REGISTERED VOTERS - Republican Party                    REGISTERED VOTERS - Republican Party  PRECINCT NO. 10                                        00 
00030010002000000000000000000000000000000000000000000000000000000000000000000000000000000000000000000REP       REGISTERED VOTERS - Republican Party                    REGISTERED VOTERS - Republican Party  PRECINCT NO. 11                                        00 
00030010003000000000000000000000000000000000000000000000000000000000000000000000000000000000000000000REP       REGISTERED VOTERS - Republican Party                    REGISTERED VOTERS - Republican Party  PRECINCT NO. 12                                        00 
00030010004000000000000000000000000000000000000000000000000000000000000000000000000000000000000000000REP       REGISTERED VOTERS - Republican Party                    REGISTERED VOTERS - Republican Party  PRECINCT NO. 18                                        00 
00030010005000000000000000000000000000000000000000000000000000000000000000000000000000000000000000000REP       REGISTERED VOTERS - Republican Party                    REGISTERED VOTERS - Republican Party  PRECINCT NO. 19                                        00 
00030010006000000000000000000000000000000000000000000000000000000000000000000000000000000000000000000REP       REGISTERED VOTERS - Republican Party                    REGISTERED VOTERS - Republican Party  PRECINCT NO. 20                                        00 
00030010007000000000000000000000000000000000000000000000000000000000000000000000000000000000000000000REP       REGISTERED VOTERS - Republican Party                    REGISTERED VOTERS - Republican Party  PRECINCT NO. 21                                        00 
00030010008000000000000000000000000000000000000000000000000000000000000000000000000000000000000000000REP       REGISTERED VOTERS - Republican Party                    REGISTERED VOTERS - Republican Party  PRECINCT NO. 23                                        00 
00030010009000000000000000000000000000000000000000000000000000000000000000000000000000000000000000000REP       REGISTERED VOTERS - Republican Party                    REGISTERED VOTERS - Republican Party  PRECINCT NO. 24                                        00 
00030010010000000000000000000000000000000000000000000000000000000000000000000000000000000000000000000REP       REGISTERED VOTERS - Republican Party                    REGISTERED VOTERS - Republican Party  PRECINCT NO. 25                                        00 
00030010011000000000000000000000000000000000000000000000000000000000000000000000000000000000000000000REP       REGISTERED VOTERS - Republican Party                    REGISTERED VOTERS - Republican Party  PRECINCT NO. 30                                        00 
00030010012000000000000000000000000000000000000000000000000000000000000000000000000000000000000000000REP       REGISTERED VOTERS - Republican Party                    REGISTERED VOTERS - Republican Party  PRECINCT NO. 31                                        00 
00030010013000000000000000000000000000000000000000000000000000000000000000000000000000000000000000000REP       REGISTERED VOTERS - Republican Party                    REGISTERED VOTERS - Republican Party  PRECINCT NO. 32                                        00 
00030010014000000000000000000000000000000000000000000000000000000000000000000000000000000000000000000REP       REGISTERED VOTERS - Republican Party                    REGISTERED VOTERS - Republican Party  PRECINCT NO. 33                                        00 
00030010015000000000000000000000000000000000000000000000000000000000000000000000000000000000000000000REP       REGISTERED VOTERS - Republican Party                    REGISTERED VOTERS - Republican Party  PRECINCT NO. 34                                        00 
00030010016000000000000000000000000000000000000000000000000000000000000000000000000000000000000000000REP       REGISTERED VOTERS - Republican Party                    REGISTERED VOTERS - Republican Party  PRECINCT NO. 35                                        00 
00030010017000000000000000000000000000000000000000000000000000000000000000000000000000000000000000000REP       REGISTERED VOTERS - Republican Party                    REGISTERED VOTERS - Republican Party  PRECINCT NO. 41                                        00 
00030010018000000000000000000000000000000000000000000000000000000000000000000000000000000000000000000REP       REGISTERED VOTERS - Republican Party                    REGISTERED VOTERS - Republican Party  PRECINCT NO. 44                                        00 
00030010019000000000000000000000000000000000000000000000000000000000000000000000000000000000000000000REP       REGISTERED VOTERS - Republican Party                    REGISTERED VOTERS - Republican Party  PRECINCT NO. 45                                        00 
00030010020000000000000000000000000000000000000000000000000000000000000000000000000000000000000000000REP       REGISTERED VOTERS - Republican Party                    REGISTERED VOTERS - Republican Party  PRECINCT NO. 46                                        00 
00030010021000000000000000000000000000000000000000000000000000000000000000000000000000000000000000000REP       REGISTERED VOTERS - Republican Party                    REGISTERED VOTERS - Republican Party  PRECINCT NO. 47                                        00 
00040010001000000000000000000000000000000000000000000000000000000000000000000000000000000000000000000DEM       REGISTERED VOTERS - Democratic Party                    REGISTERED VOTERS - Democratic Party  PRECINCT NO. 10                                        00 
00040010002000000000000000000000000000000000000000000000000000000000000000000000000000000000000000000DEM       REGISTERED VOTERS - Democratic Party                    REGISTERED VOTERS - Democratic Party  PRECINCT NO. 11                                        00 
00040010003000000000000000000000000000000000000000000000000000000000000000000000000000000000000000000DEM       REGISTERED VOTERS - Democratic Party                    REGISTERED VOTERS - Democratic Party  PRECINCT NO. 12                                        00 
00040010004000000000000000000000000000000000000000000000000000000000000000000000000000000000000000000DEM       REGISTERED VOTERS - Democratic Party                    REGISTERED VOTERS - Democratic Party  PRECINCT NO. 18                                        00 
00040010005000000000000000000000000000000000000000000000000000000000000000000000000000000000000000000DEM       REGISTERED VOTERS - Democratic Party                    REGISTERED VOTERS - Democratic Party  PRECINCT NO. 19                                        00 
00040010006000000000000000000000000000000000000000000000000000000000000000000000000000000000000000000DEM       REGISTERED VOTERS - Democratic Party                    REGISTERED VOTERS - Democratic Party  PRECINCT NO. 20                                        00 
00040010007000000000000000000000000000000000000000000000000000000000000000000000000000000000000000000DEM       REGISTERED VOTERS - Democratic Party                    REGISTERED VOTERS - Democratic Party  PRECINCT NO. 21                                        00 
00040010008000000000000000000000000000000000000000000000000000000000000000000000000000000000000000000DEM       REGISTERED VOTERS - Democratic Party                    REGISTERED VOTERS - Democratic Party  PRECINCT NO. 23                                        00 
00040010009000000000000000000000000000000000000000000000000000000000000000000000000000000000000000000DEM       REGISTERED VOTERS - Democratic Party                    REGISTERED VOTERS - Democratic Party  PRECINCT NO. 24                                        00 
00040010010000000000000000000000000000000000000000000000000000000000000000000000000000000000000000000DEM       REGISTERED VOTERS - Democratic Party                    REGISTERED VOTERS - Democratic Party  PRECINCT NO. 25                                        00 
00040010011000000000000000000000000000000000000000000000000000000000000000000000000000000000000000000DEM       REGISTERED VOTERS - Democratic Party                    REGISTERED VOTERS - Democratic Party  PRECINCT NO. 30                                        00 
00040010012000000000000000000000000000000000000000000000000000000000000000000000000000000000000000000DEM       REGISTERED VOTERS - Democratic Party                    REGISTERED VOTERS - Democratic Party  PRECINCT NO. 31                                        00 
00040010013000000000000000000000000000000000000000000000000000000000000000000000000000000000000000000DEM       REGISTERED VOTERS - Democratic Party                    REGISTERED VOTERS - Democratic Party  PRECINCT NO. 32                                        00 
00040010014000000000000000000000000000000000000000000000000000000000000000000000000000000000000000000DEM       REGISTERED VOTERS - Democratic Party                    REGISTERED VOTERS - Democratic Party  PRECINCT NO. 33                                        00 
00040010015000000000000000000000000000000000000000000000000000000000000000000000000000000000000000000DEM       REGISTERED VOTERS - Democratic Party                    REGISTERED VOTERS - Democratic Party  PRECINCT NO. 34                                        00 
00040010016000000000000000000000000000000000000000000000000000000000000000000000000000000000000000000DEM       REGISTERED VOTERS - Democratic Party                    REGISTERED VOTERS - Democratic Party  PRECINCT NO. 35                                        00 
00040010017000000000000000000000000000000000000000000000000000000000000000000000000000000000000000000DEM       REGISTERED VOTERS - Democratic Party                    REGISTERED VOTERS - Democratic Party  PRECINCT NO. 41                                        00 
00040010018000000000000000000000000000000000000000000000000000000000000000000000000000000000000000000DEM       REGISTERED VOTERS - Democratic Party                    REGISTERED VOTERS - Democratic Party  PRECINCT NO. 44                                        00 
00040010019000000000000000000000000000000000000000000000000000000000000000000000000000000000000000000DEM       REGISTERED VOTERS - Democratic Party                    REGISTERED VOTERS - Democratic Party  PRECINCT NO. 45                                        00 
00040010020000000000000000000000000000000000000000000000000000000000000000000000000000000000000000000DEM       REGISTERED VOTERS - Democratic Party                    REGISTERED VOTERS - Democratic Party  PRECINCT NO. 46                                        00 
00040010021000000000000000000000000000000000000000000000000000000000000000000000000000000000000000000DEM       REGISTERED VOTERS - Democratic Party                    REGISTERED VOTERS - Democratic Party  PRECINCT NO. 47                                        00 
00050010001000319000015000184000120000000000000000000000000000000000000000000000000000000000000000000          BALLOTS CAST - TOTAL                                    BALLOTS CAST - TOTAL                  PRECINCT NO. 10                                        00 
00050010002000141000008000068000065000000000000000000000000000000000000000000000000000000000000000000          BALLOTS CAST - TOTAL                                    BALLOTS CAST - TOTAL                  PRECINCT NO. 11                                        00 
00050010003000582000029000367000186000000000000000000000000000000000000000000000000000000000000000000          BALLOTS CAST - TOTAL                                    BALLOTS CAST - TOTAL                  PRECINCT NO. 12                                        00 
00050010004000750000026000447000277000000000000000000000000000000000000000000000000000000000000000000          BALLOTS CAST - TOTAL                                    BALLOTS CAST - TOTAL                  PRECINCT NO. 18                                        00 
00050010005000559000027000316000216000000000000000000000000000000000000000000000000000000000000000000          BALLOTS CAST - TOTAL                                    BALLOTS CAST - TOTAL                  PRECINCT NO. 19                                        00 
00050010006000436000025000219000192000000000000000000000000000000000000000000000000000000000000000000          BALLOTS CAST - TOTAL                                    BALLOTS CAST - TOTAL                  PRECINCT NO. 20                                        00 
00050010007000469000018000243000208000000000000000000000000000000000000000000000000000000000000000000          BALLOTS CAST - TOTAL                                    BALLOTS CAST - TOTAL                  PRECINCT NO. 21                                        00 
00050010008000187000012000091000084000000000000000000000000000000000000000000000000000000000000000000          BALLOTS CAST - TOTAL                                    BALLOTS CAST - TOTAL                  PRECINCT NO. 23                                        00 
00050010009000344000019000219000106000000000000000000000000000000000000000000000000000000000000000000          BALLOTS CAST - TOTAL                                    BALLOTS CAST - TOTAL                  PRECINCT NO. 24                                        00 
00050010010000365000024000157000184000000000000000000000000000000000000000000000000000000000000000000          BALLOTS CAST - TOTAL                                    BALLOTS CAST - TOTAL                  PRECINCT NO. 25                                        00 
00050010011000267000021000096000150000000000000000000000000000000000000000000000000000000000000000000          BALLOTS CAST - TOTAL                                    BALLOTS CAST - TOTAL                  PRECINCT NO. 30                                        00 
00050010012000494000031000200000263000000000000000000000000000000000000000000000000000000000000000000          BALLOTS CAST - TOTAL                                    BALLOTS CAST - TOTAL                  PRECINCT NO. 31                                        00 
00050010013000609000038000353000218000000000000000000000000000000000000000000000000000000000000000000          BALLOTS CAST - TOTAL                                    BALLOTS CAST - TOTAL                  PRECINCT NO. 32                                        00 
00050010014000263000011000130000122000000000000000000000000000000000000000000000000000000000000000000          BALLOTS CAST - TOTAL                                    BALLOTS CAST - TOTAL                  PRECINCT NO. 33                                        00 
00050010015000495000020000192000283000000000000000000000000000000000000000000000000000000000000000000          BALLOTS CAST - TOTAL                                    BALLOTS CAST - TOTAL                  PRECINCT NO. 34                                        00 
00050010016000021000001000005000015000000000000000000000000000000000000000000000000000000000000000000          BALLOTS CAST - TOTAL                                    BALLOTS CAST - TOTAL                  PRECINCT NO. 35                                        00 
00050010017000329000020000121000188000000000000000000000000000000000000000000000000000000000000000000          BALLOTS CAST - TOTAL                                    BALLOTS CAST - TOTAL                  PRECINCT NO. 41                                        00 
00050010018000904000048000440000416000000000000000000000000000000000000000000000000000000000000000000          BALLOTS CAST - TOTAL                                    BALLOTS CAST - TOTAL                  PRECINCT NO. 44                                        00 
00050010019000533000035000290000208000000000000000000000000000000000000000000000000000000000000000000          BALLOTS CAST - TOTAL                                    BALLOTS CAST - TOTAL                  PRECINCT NO. 45                                        00 
00050010020000206000007000115000084000000000000000000000000000000000000000000000000000000000000000000          BALLOTS CAST - TOTAL                                    BALLOTS CAST - TOTAL                  PRECINCT NO. 46                                        00 
00050010021000414000023000219000172000000000000000000000000000000000000000000000000000000000000000000          BALLOTS CAST - TOTAL                                    BALLOTS CAST - TOTAL                  PRECINCT NO. 47                                        00 
00060010001000000000000000000000000000000000000000000000000000000000000000000000000000000000000000000NON       BALLOTS CAST - NONPARTISAN                              BALLOTS CAST - NONPARTISAN            PRECINCT NO. 10                                        00 
00060010002000000000000000000000000000000000000000000000000000000000000000000000000000000000000000000NON       BALLOTS CAST - NONPARTISAN                              BALLOTS CAST - NONPARTISAN            PRECINCT NO. 11                                        00 
00060010003000000000000000000000000000000000000000000000000000000000000000000000000000000000000000000NON       BALLOTS CAST - NONPARTISAN                              BALLOTS CAST - NONPARTISAN            PRECINCT NO. 12                                        00 
00060010004000000000000000000000000000000000000000000000000000000000000000000000000000000000000000000NON       BALLOTS CAST - NONPARTISAN                              BALLOTS CAST - NONPARTISAN            PRECINCT NO. 18                                        00 
00060010005000000000000000000000000000000000000000000000000000000000000000000000000000000000000000000NON       BALLOTS CAST - NONPARTISAN                              BALLOTS CAST - NONPARTISAN            PRECINCT NO. 19                                        00 
00060010006000000000000000000000000000000000000000000000000000000000000000000000000000000000000000000NON       BALLOTS CAST - NONPARTISAN                              BALLOTS CAST - NONPARTISAN            PRECINCT NO. 20                                        00 
00060010007000000000000000000000000000000000000000000000000000000000000000000000000000000000000000000NON       BALLOTS CAST - NONPARTISAN                              BALLOTS CAST - NONPARTISAN            PRECINCT NO. 21                                        00 
00060010008000000000000000000000000000000000000000000000000000000000000000000000000000000000000000000NON       BALLOTS CAST - NONPARTISAN                              BALLOTS CAST - NONPARTISAN            PRECINCT NO. 23                                        00 
00060010009000000000000000000000000000000000000000000000000000000000000000000000000000000000000000000NON       BALLOTS CAST - NONPARTISAN                              BALLOTS CAST - NONPARTISAN            PRECINCT NO. 24                                        00 
00060010010000000000000000000000000000000000000000000000000000000000000000000000000000000000000000000NON       BALLOTS CAST - NONPARTISAN                              BALLOTS CAST - NONPARTISAN            PRECINCT NO. 25                                        00 
00060010011000000000000000000000000000000000000000000000000000000000000000000000000000000000000000000NON       BALLOTS CAST - NONPARTISAN                              BALLOTS CAST - NONPARTISAN            PRECINCT NO. 30                                        00 
00060010012000000000000000000000000000000000000000000000000000000000000000000000000000000000000000000NON       BALLOTS CAST - NONPARTISAN                              BALLOTS CAST - NONPARTISAN            PRECINCT NO. 31                                        00 
00060010013000000000000000000000000000000000000000000000000000000000000000000000000000000000000000000NON       BALLOTS CAST - NONPARTISAN                              BALLOTS CAST - NONPARTISAN            PRECINCT NO. 32                                        00 
00060010014000000000000000000000000000000000000000000000000000000000000000000000000000000000000000000NON       BALLOTS CAST - NONPARTISAN                              BALLOTS CAST - NONPARTISAN            PRECINCT NO. 33                                        00 
00060010015000000000000000000000000000000000000000000000000000000000000000000000000000000000000000000NON       BALLOTS CAST - NONPARTISAN                              BALLOTS CAST - NONPARTISAN            PRECINCT NO. 34                                        00 
00060010016000000000000000000000000000000000000000000000000000000000000000000000000000000000000000000NON       BALLOTS CAST - NONPARTISAN                              BALLOTS CAST - NONPARTISAN            PRECINCT NO. 35                                        00 
00060010017000000000000000000000000000000000000000000000000000000000000000000000000000000000000000000NON       BALLOTS CAST - NONPARTISAN                              BALLOTS CAST - NONPARTISAN            PRECINCT NO. 41                                        00 
00060010018000000000000000000000000000000000000000000000000000000000000000000000000000000000000000000NON       BALLOTS CAST - NONPARTISAN                              BALLOTS CAST - NONPARTISAN            PRECINCT NO. 44                                        00 
00060010019000000000000000000000000000000000000000000000000000000000000000000000000000000000000000000NON       BALLOTS CAST - NONPARTISAN                              BALLOTS CAST - NONPARTISAN            PRECINCT NO. 45                                        00 
00060010020000000000000000000000000000000000000000000000000000000000000000000000000000000000000000000NON       BALLOTS CAST - NONPARTISAN                              BALLOTS CAST - NONPARTISAN            PRECINCT NO. 46                                        00 
00060010021000000000000000000000000000000000000000000000000000000000000000000000000000000000000000000NON       BALLOTS CAST - NONPARTISAN                              BALLOTS CAST - NONPARTISAN            PRECINCT NO. 47                                        00 
00070010001000261000010000169000082000000000000000000000000000000000000000000000000000000000000000000REP       BALLOTS CAST - Republican Party                         BALLOTS CAST - Republican Party       PRECINCT NO. 10                                        00 
00070010002000109000006000059000044000000000000000000000000000000000000000000000000000000000000000000REP       BALLOTS CAST - Republican Party                         BALLOTS CAST - Republican Party       PRECINCT NO. 11                                        00 
00070010003000528000027000340000161000000000000000000000000000000000000000000000000000000000000000000REP       BALLOTS CAST - Republican Party                         BALLOTS CAST - Republican Party       PRECINCT NO. 12                                        00 
00070010004000672000023000415000234000000000000000000000000000000000000000000000000000000000000000000REP       BALLOTS CAST - Republican Party                         BALLOTS CAST - Republican Party       PRECINCT NO. 18                                        00 
00070010005000516000021000305000190000000000000000000000000000000000000000000000000000000000000000000REP       BALLOTS CAST - Republican Party                         BALLOTS CAST - Republican Party       PRECINCT NO. 19                                        00 
00070010006000387000019000204000164000000000000000000000000000000000000000000000000000000000000000000REP       BALLOTS CAST - Republican Party                         BALLOTS CAST - Republican Party       PRECINCT NO. 20                                        00 
00070010007000414000016000225000173000000000000000000000000000000000000000000000000000000000000000000REP       BALLOTS CAST - Republican Party                         BALLOTS CAST - Republican Party       PRECINCT NO. 21                                        00 
00070010008000161000009000086000066000000000000000000000000000000000000000000000000000000000000000000REP       BALLOTS CAST - Republican Party                         BALLOTS CAST - Republican Party       PRECINCT NO. 23                                        00 
00070010009000298000014000193000091000000000000000000000000000000000000000000000000000000000000000000REP       BALLOTS CAST - Republican Party                         BALLOTS CAST - Republican Party       PRECINCT NO. 24                                        00 
00070010010000344000020000148000176000000000000000000000000000000000000000000000000000000000000000000REP       BALLOTS CAST - Republican Party                         BALLOTS CAST - Republican Party       PRECINCT NO. 25                                        00 
00070010011000241000018000091000132000000000000000000000000000000000000000000000000000000000000000000REP       BALLOTS CAST - Republican Party                         BALLOTS CAST - Republican Party       PRECINCT NO. 30                                        00 
00070010012000440000028000181000231000000000000000000000000000000000000000000000000000000000000000000REP       BALLOTS CAST - Republican Party                         BALLOTS CAST - Republican Party       PRECINCT NO. 31                                        00 
00070010013000539000035000320000184000000000000000000000000000000000000000000000000000000000000000000REP       BALLOTS CAST - Republican Party                         BALLOTS CAST - Republican Party       PRECINCT NO. 32                                        00 
00070010014000166000009000087000070000000000000000000000000000000000000000000000000000000000000000000REP       BALLOTS CAST - Republican Party                         BALLOTS CAST - Republican Party       PRECINCT NO. 33                                        00 
00070010015000434000015000173000246000000000000000000000000000000000000000000000000000000000000000000REP       BALLOTS CAST - Republican Party                         BALLOTS CAST - Republican Party       PRECINCT NO. 34                                        00 
00070010016000007000000000001000006000000000000000000000000000000000000000000000000000000000000000000REP       BALLOTS CAST - Republican Party                         BALLOTS CAST - Republican Party       PRECINCT NO. 35                                        00 
00070010017000295000019000114000162000000000000000000000000000000000000000000000000000000000000000000REP       BALLOTS CAST - Republican Party                         BALLOTS CAST - Republican Party       PRECINCT NO. 41                                        00 
00070010018000822000035000417000370000000000000000000000000000000000000000000000000000000000000000000REP       BALLOTS CAST - Republican Party                         BALLOTS CAST - Republican Party       PRECINCT NO. 44                                        00 
00070010019000427000027000249000151000000000000000000000000000000000000000000000000000000000000000000REP       BALLOTS CAST - Republican Party                         BALLOTS CAST - Republican Party       PRECINCT NO. 45                                        00 
00070010020000172000006000103000063000000000000000000000000000000000000000000000000000000000000000000REP       BALLOTS CAST - Republican Party                         BALLOTS CAST - Republican Party       PRECINCT NO. 46                                        00 
00070010021000340000020000188000132000000000000000000000000000000000000000000000000000000000000000000REP       BALLOTS CAST - Republican Party                         BALLOTS CAST - Republican Party       PRECINCT NO. 47                                        00 
00080010001000058000005000015000038000000000000000000000000000000000000000000000000000000000000000000DEM       BALLOTS CAST - Democratic Party                         BALLOTS CAST - Democratic Party       PRECINCT NO. 10                                        00 
00080010002000032000002000009000021000000000000000000000000000000000000000000000000000000000000000000DEM       BALLOTS CAST - Democratic Party                         BALLOTS CAST - Democratic Party       PRECINCT NO. 11                                        00 
00080010003000054000002000027000025000000000000000000000000000000000000000000000000000000000000000000DEM       BALLOTS CAST - Democratic Party                         BALLOTS CAST - Democratic Party       PRECINCT NO. 12                                        00 
00080010004000078000003000032000043000000000000000000000000000000000000000000000000000000000000000000DEM       BALLOTS CAST - Democratic Party                         BALLOTS CAST - Democratic Party       PRECINCT NO. 18                                        00 
00080010005000043000006000011000026000000000000000000000000000000000000000000000000000000000000000000DEM       BALLOTS CAST - Democratic Party                         BALLOTS CAST - Democratic Party       PRECINCT NO. 19                                        00 
00080010006000049000006000015000028000000000000000000000000000000000000000000000000000000000000000000DEM       BALLOTS CAST - Democratic Party                         BALLOTS CAST - Democratic Party       PRECINCT NO. 20                                        00 
00080010007000055000002000018000035000000000000000000000000000000000000000000000000000000000000000000DEM       BALLOTS CAST - Democratic Party                         BALLOTS CAST - Democratic Party       PRECINCT NO. 21                                        00 
00080010008000026000003000005000018000000000000000000000000000000000000000000000000000000000000000000DEM       BALLOTS CAST - Democratic Party                         BALLOTS CAST - Democratic Party       PRECINCT NO. 23                                        00 
00080010009000046000005000026000015000000000000000000000000000000000000000000000000000000000000000000DEM       BALLOTS CAST - Democratic Party                         BALLOTS CAST - Democratic Party       PRECINCT NO. 24                                        00 
00080010010000021000004000009000008000000000000000000000000000000000000000000000000000000000000000000DEM       BALLOTS CAST - Democratic Party                         BALLOTS CAST - Democratic Party       PRECINCT NO. 25                                        00 
00080010011000026000003000005000018000000000000000000000000000000000000000000000000000000000000000000DEM       BALLOTS CAST - Democratic Party                         BALLOTS CAST - Democratic Party       PRECINCT NO. 30                                        00 
00080010012000054000003000019000032000000000000000000000000000000000000000000000000000000000000000000DEM       BALLOTS CAST - Democratic Party                         BALLOTS CAST - Democratic Party       PRECINCT NO. 31                                        00 
00080010013000070000003000033000034000000000000000000000000000000000000000000000000000000000000000000DEM       BALLOTS CAST - Democratic Party                         BALLOTS CAST - Democratic Party       PRECINCT NO. 32                                        00 
00080010014000097000002000043000052000000000000000000000000000000000000000000000000000000000000000000DEM       BALLOTS CAST - Democratic Party                         BALLOTS CAST - Democratic Party       PRECINCT NO. 33                                        00 
00080010015000061000005000019000037000000000000000000000000000000000000000000000000000000000000000000DEM       BALLOTS CAST - Democratic Party                         BALLOTS CAST - Democratic Party       PRECINCT NO. 34                                        00 
00080010016000014000001000004000009000000000000000000000000000000000000000000000000000000000000000000DEM       BALLOTS CAST - Democratic Party                         BALLOTS CAST - Democratic Party       PRECINCT NO. 35                                        00 
00080010017000034000001000007000026000000000000000000000000000000000000000000000000000000000000000000DEM       BALLOTS CAST - Democratic Party                         BALLOTS CAST - Democratic Party       PRECINCT NO. 41                                        00 
00080010018000082000013000023000046000000000000000000000000000000000000000000000000000000000000000000DEM       BALLOTS CAST - Democratic Party                         BALLOTS CAST - Democratic Party       PRECINCT NO. 44                                        00 
00080010019000106000008000041000057000000000000000000000000000000000000000000000000000000000000000000DEM       BALLOTS CAST - Democratic Party                         BALLOTS CAST - Democratic Party       PRECINCT NO. 45                                        00 
00080010020000034000001000012000021000000000000000000000000000000000000000000000000000000000000000000DEM       BALLOTS CAST - Democratic Party                         BALLOTS CAST - Democratic Party       PRECINCT NO. 46                                        00 
00080010021000074000003000031000040000000000000000000000000000000000000000000000000000000000000000000DEM       BALLOTS CAST - Democratic Party                         BALLOTS CAST - Democratic Party       PRECINCT NO. 47                                        00 
00090010001000000000000000000000000000000000000000000000000000000000000000000000000000000000000000000          BALLOTS CAST - BLANK                                    BALLOTS CAST - BLANK                  PRECINCT NO. 10                                        00 
00090010002000000000000000000000000000000000000000000000000000000000000000000000000000000000000000000          BALLOTS CAST - BLANK                                    BALLOTS CAST - BLANK                  PRECINCT NO. 11                                        00 
00090010003000000000000000000000000000000000000000000000000000000000000000000000000000000000000000000          BALLOTS CAST - BLANK                                    BALLOTS CAST - BLANK                  PRECINCT NO. 12                                        00 
00090010004000000000000000000000000000000000000000000000000000000000000000000000000000000000000000000          BALLOTS CAST - BLANK                                    BALLOTS CAST - BLANK                  PRECINCT NO. 18                                        00 
00090010005000000000000000000000000000000000000000000000000000000000000000000000000000000000000000000          BALLOTS CAST - BLANK                                    BALLOTS CAST - BLANK                  PRECINCT NO. 19                                        00 
00090010006000000000000000000000000000000000000000000000000000000000000000000000000000000000000000000          BALLOTS CAST - BLANK                                    BALLOTS CAST - BLANK                  PRECINCT NO. 20                                        00 
00090010007000000000000000000000000000000000000000000000000000000000000000000000000000000000000000000          BALLOTS CAST - BLANK                                    BALLOTS CAST - BLANK                  PRECINCT NO. 21                                        00 
00090010008000000000000000000000000000000000000000000000000000000000000000000000000000000000000000000          BALLOTS CAST - BLANK                                    BALLOTS CAST - BLANK                  PRECINCT NO. 23                                        00 
00090010009000000000000000000000000000000000000000000000000000000000000000000000000000000000000000000          BALLOTS CAST - BLANK                                    BALLOTS CAST - BLANK                  PRECINCT NO. 24                                        00 
00090010010000000000000000000000000000000000000000000000000000000000000000000000000000000000000000000          BALLOTS CAST - BLANK                                    BALLOTS CAST - BLANK                  PRECINCT NO. 25                                        00 
00090010011000000000000000000000000000000000000000000000000000000000000000000000000000000000000000000          BALLOTS CAST - BLANK                                    BALLOTS CAST - BLANK                  PRECINCT NO. 30                                        00 
00090010012000000000000000000000000000000000000000000000000000000000000000000000000000000000000000000          BALLOTS CAST - BLANK                                    BALLOTS CAST - BLANK                  PRECINCT NO. 31                                        00 
00090010013000000000000000000000000000000000000000000000000000000000000000000000000000000000000000000          BALLOTS CAST - BLANK                                    BALLOTS CAST - BLANK                  PRECINCT NO. 32                                        00 
00090010014000000000000000000000000000000000000000000000000000000000000000000000000000000000000000000          BALLOTS CAST - BLANK                                    BALLOTS CAST - BLANK                  PRECINCT NO. 33                                        00 
00090010015000000000000000000000000000000000000000000000000000000000000000000000000000000000000000000          BALLOTS CAST - BLANK                                    BALLOTS CAST - BLANK                  PRECINCT NO. 34                                        00 
00090010016000000000000000000000000000000000000000000000000000000000000000000000000000000000000000000          BALLOTS CAST - BLANK                                    BALLOTS CAST - BLANK                  PRECINCT NO. 35                                        00 
00090010017000000000000000000000000000000000000000000000000000000000000000000000000000000000000000000          BALLOTS CAST - BLANK                                    BALLOTS CAST - BLANK                  PRECINCT NO. 41                                        00 
00090010018000000000000000000000000000000000000000000000000000000000000000000000000000000000000000000          BALLOTS CAST - BLANK                                    BALLOTS CAST - BLANK                  PRECINCT NO. 44                                        00 
00090010019000000000000000000000000000000000000000000000000000000000000000000000000000000000000000000          BALLOTS CAST - BLANK                                    BALLOTS CAST - BLANK                  PRECINCT NO. 45                                        00 
00090010020000000000000000000000000000000000000000000000000000000000000000000000000000000000000000000          BALLOTS CAST - BLANK                                    BALLOTS CAST - BLANK                  PRECINCT NO. 46                                        00 
00090010021000000000000000000000000000000000000000000000000000000000000000000000000000000000000000000          BALLOTS CAST - BLANK                                    BALLOTS CAST - BLANK                  PRECINCT NO. 47                                        00 
00100010001000003000001000001000001000000000000000000000000000000000000000000000000000000000000000000REP       REP President                                           Roque Rocky DeLa Fuente Guerra        PRECINCT NO. 10                                        01 
00100010002000001000000000000000001000000000000000000000000000000000000000000000000000000000000000000REP       REP President                                           Roque Rocky DeLa Fuente Guerra        PRECINCT NO. 11                                        01 
00100010003000001000000000000000001000000000000000000000000000000000000000000000000000000000000000000REP       REP President                                           Roque Rocky DeLa Fuente Guerra        PRECINCT NO. 12                                        01 
00100010004000002000000000000000002000000000000000000000000000000000000000000000000000000000000000000REP       REP President                                           Roque Rocky DeLa Fuente Guerra        PRECINCT NO. 18                                        01 
00100010005000000000000000000000000000000000000000000000000000000000000000000000000000000000000000000REP       REP President                                           Roque Rocky DeLa Fuente Guerra        PRECINCT NO. 19                                        01 
00100010006000003000000000000000003000000000000000000000000000000000000000000000000000000000000000000REP       REP President                                           Roque Rocky DeLa Fuente Guerra        PRECINCT NO. 20                                        01 
00100010007000002000000000001000001000000000000000000000000000000000000000000000000000000000000000000REP       REP President                                           Roque Rocky DeLa Fuente Guerra        PRECINCT NO. 21                                        01 
00100010008000000000000000000000000000000000000000000000000000000000000000000000000000000000000000000REP       REP President                                           Roque Rocky DeLa Fuente Guerra        PRECINCT NO. 23                                        01 
00100010009000000000000000000000000000000000000000000000000000000000000000000000000000000000000000000REP       REP President                                           Roque Rocky DeLa Fuente Guerra        PRECINCT NO. 24                                        01 
00100010010000003000001000001000001000000000000000000000000000000000000000000000000000000000000000000REP       REP President                                           Roque Rocky DeLa Fuente Guerra        PRECINCT NO. 25                                        01 
00100010011000001000000000001000000000000000000000000000000000000000000000000000000000000000000000000REP       REP President                                           Roque Rocky DeLa Fuente Guerra        PRECINCT NO. 30                                        01 
00100010012000001000000000000000001000000000000000000000000000000000000000000000000000000000000000000REP       REP President                                           Roque Rocky DeLa Fuente Guerra        PRECINCT NO. 31                                        01 
00100010013000000000000000000000000000000000000000000000000000000000000000000000000000000000000000000REP       REP President                                           Roque Rocky DeLa Fuente Guerra        PRECINCT NO. 32                                        01 
00100010014000003000001000001000001000000000000000000000000000000000000000000000000000000000000000000REP       REP President                                           Roque Rocky DeLa Fuente Guerra        PRECINCT NO. 33                                        01 
00100010015000001000000000001000000000000000000000000000000000000000000000000000000000000000000000000REP       REP President                                           Roque Rocky DeLa Fuente Guerra        PRECINCT NO. 34                                        01 
00100010016000000000000000000000000000000000000000000000000000000000000000000000000000000000000000000REP       REP President                                           Roque Rocky DeLa Fuente Guerra        PRECINCT NO. 35                                        01 
00100010017000001000000000001000000000000000000000000000000000000000000000000000000000000000000000000REP       REP President                                           Roque Rocky DeLa Fuente Guerra        PRECINCT NO. 41                                        01 
00100010018000001000000000001000000000000000000000000000000000000000000000000000000000000000000000000REP       REP President                                           Roque Rocky DeLa Fuente Guerra        PRECINCT NO. 44                                        01 
00100010019000002000001000000000001000000000000000000000000000000000000000000000000000000000000000000REP       REP President                                           Roque Rocky DeLa Fuente Guerra        PRECINCT NO. 45                                        01 
00100010020000001000000000001000000000000000000000000000000000000000000000000000000000000000000000000REP       REP President                                           Roque Rocky DeLa Fuente Guerra        PRECINCT NO. 46                                        01 
00100010021000001000000000000000001000000000000000000000000000000000000000000000000000000000000000000REP       REP President                                           Roque Rocky DeLa Fuente Guerra        PRECINCT NO. 47                                        01 
00100020001000232000009000150000073000000000000000000000000000000000000000000000000000000000000000000REP       REP President                                           Donald J. Trump                       PRECINCT NO. 10                                        01 
00100020002000097000006000053000038000000000000000000000000000000000000000000000000000000000000000000REP       REP President                                           Donald J. Trump                       PRECINCT NO. 11                                        01 
00100020003000479000027000308000144000000000000000000000000000000000000000000000000000000000000000000REP       REP President                                           Donald J. Trump                       PRECINCT NO. 12                                        01 
00100020004000636000020000396000220000000000000000000000000000000000000000000000000000000000000000000REP       REP President                                           Donald J. Trump                       PRECINCT NO. 18                                        01 
00100020005000479000019000282000178000000000000000000000000000000000000000000000000000000000000000000REP       REP President                                           Donald J. Trump                       PRECINCT NO. 19                                        01 
00100020006000365000019000192000154000000000000000000000000000000000000000000000000000000000000000000REP       REP President                                           Donald J. Trump                       PRECINCT NO. 20                                        01 
00100020007000398000016000218000164000000000000000000000000000000000000000000000000000000000000000000REP       REP President                                           Donald J. Trump                       PRECINCT NO. 21                                        01 
00100020008000152000008000082000062000000000000000000000000000000000000000000000000000000000000000000REP       REP President                                           Donald J. Trump                       PRECINCT NO. 23                                        01 
00100020009000264000011000173000080000000000000000000000000000000000000000000000000000000000000000000REP       REP President                                           Donald J. Trump                       PRECINCT NO. 24                                        01 
00100020010000327000018000143000166000000000000000000000000000000000000000000000000000000000000000000REP       REP President                                           Donald J. Trump                       PRECINCT NO. 25                                        01 
00100020011000228000016000085000127000000000000000000000000000000000000000000000000000000000000000000REP       REP President                                           Donald J. Trump                       PRECINCT NO. 30                                        01 
00100020012000422000028000172000222000000000000000000000000000000000000000000000000000000000000000000REP       REP President                                           Donald J. Trump                       PRECINCT NO. 31                                        01 
00100020013000495000034000290000171000000000000000000000000000000000000000000000000000000000000000000REP       REP President                                           Donald J. Trump                       PRECINCT NO. 32                                        01 
00100020014000146000007000076000063000000000000000000000000000000000000000000000000000000000000000000REP       REP President                                           Donald J. Trump                       PRECINCT NO. 33                                        01 
00100020015000417000013000168000236000000000000000000000000000000000000000000000000000000000000000000REP       REP President                                           Donald J. Trump                       PRECINCT NO. 34                                        01 
00100020016000007000000000001000006000000000000000000000000000000000000000000000000000000000000000000REP       REP President                                           Donald J. Trump                       PRECINCT NO. 35                                        01 
00100020017000280000019000106000155000000000000000000000000000000000000000000000000000000000000000000REP       REP President                                           Donald J. Trump                       PRECINCT NO. 41                                        01 
00100020018000777000028000394000355000000000000000000000000000000000000000000000000000000000000000000REP       REP President                                           Donald J. Trump                       PRECINCT NO. 44                                        01 
00100020019000366000020000220000126000000000000000000000000000000000000000000000000000000000000000000REP       REP President                                           Donald J. Trump                       PRECINCT NO. 45                                        01 
00100020020000154000006000093000055000000000000000000000000000000000000000000000000000000000000000000REP       REP President                                           Donald J. Trump                       PRECINCT NO. 46                                        01 
00100020021000310000020000169000121000000000000000000000000000000000000000000000000000000000000000000REP       REP President                                           Donald J. Trump                       PRECINCT NO. 47                                        01 
00100030001000001000000000001000000000000000000000000000000000000000000000000000000000000000000000000REP       REP President                                           Zoltan G. Istvan                      PRECINCT NO. 10                                        01 
00100030002000001000000000001000000000000000000000000000000000000000000000000000000000000000000000000REP       REP President                                           Zoltan G. Istvan                      PRECINCT NO. 11                                        01 
00100030003000000000000000000000000000000000000000000000000000000000000000000000000000000000000000000REP       REP President                                           Zoltan G. Istvan                      PRECINCT NO. 12                                        01 
00100030004000000000000000000000000000000000000000000000000000000000000000000000000000000000000000000REP       REP President                                           Zoltan G. Istvan                      PRECINCT NO. 18                                        01 
00100030005000000000000000000000000000000000000000000000000000000000000000000000000000000000000000000REP       REP President                                           Zoltan G. Istvan                      PRECINCT NO. 19                                        01 
00100030006000000000000000000000000000000000000000000000000000000000000000000000000000000000000000000REP       REP President                                           Zoltan G. Istvan                      PRECINCT NO. 20                                        01 
00100030007000000000000000000000000000000000000000000000000000000000000000000000000000000000000000000REP       REP President                                           Zoltan G. Istvan                      PRECINCT NO. 21                                        01 
00100030008000000000000000000000000000000000000000000000000000000000000000000000000000000000000000000REP       REP President                                           Zoltan G. Istvan                      PRECINCT NO. 23                                        01 
00100030009000000000000000000000000000000000000000000000000000000000000000000000000000000000000000000REP       REP President                                           Zoltan G. Istvan                      PRECINCT NO. 24                                        01 
00100030010000000000000000000000000000000000000000000000000000000000000000000000000000000000000000000REP       REP President                                           Zoltan G. Istvan                      PRECINCT NO. 25                                        01 
00100030011000000000000000000000000000000000000000000000000000000000000000000000000000000000000000000REP       REP President                                           Zoltan G. Istvan                      PRECINCT NO. 30                                        01 
00100030012000000000000000000000000000000000000000000000000000000000000000000000000000000000000000000REP       REP President                                           Zoltan G. Istvan                      PRECINCT NO. 31                                        01 
00100030013000003000000000001000002000000000000000000000000000000000000000000000000000000000000000000REP       REP President                                           Zoltan G. Istvan                      PRECINCT NO. 32                                        01 
00100030014000000000000000000000000000000000000000000000000000000000000000000000000000000000000000000REP       REP President                                           Zoltan G. Istvan                      PRECINCT NO. 33                                        01 
00100030015000002000000000001000001000000000000000000000000000000000000000000000000000000000000000000REP       REP President                                           Zoltan G. Istvan                      PRECINCT NO. 34                                        01 
00100030016000000000000000000000000000000000000000000000000000000000000000000000000000000000000000000REP       REP President                                           Zoltan G. Istvan                      PRECINCT NO. 35                                        01 
00100030017000001000000000001000000000000000000000000000000000000000000000000000000000000000000000000REP       REP President                                           Zoltan G. Istvan                      PRECINCT NO. 41                                        01 
00100030018000001000000000001000000000000000000000000000000000000000000000000000000000000000000000000REP       REP President                                           Zoltan G. Istvan                      PRECINCT NO. 44                                        01 
00100030019000001000000000001000000000000000000000000000000000000000000000000000000000000000000000000REP       REP President                                           Zoltan G. Istvan                      PRECINCT NO. 45                                        01 
00100030020000000000000000000000000000000000000000000000000000000000000000000000000000000000000000000REP       REP President                                           Zoltan G. Istvan                      PRECINCT NO. 46                                        01 
00100030021000000000000000000000000000000000000000000000000000000000000000000000000000000000000000000REP       REP President                                           Zoltan G. Istvan                      PRECINCT NO. 47                                        01 
00100040001000000000000000000000000000000000000000000000000000000000000000000000000000000000000000000REP       REP President                                           Matthew John Matern                   PRECINCT NO. 10                                        01 
00100040002000000000000000000000000000000000000000000000000000000000000000000000000000000000000000000REP       REP President                                           Matthew John Matern                   PRECINCT NO. 11                                        01 
00100040003000001000000000001000000000000000000000000000000000000000000000000000000000000000000000000REP       REP President                                           Matthew John Matern                   PRECINCT NO. 12                                        01 
00100040004000001000000000001000000000000000000000000000000000000000000000000000000000000000000000000REP       REP President                                           Matthew John Matern                   PRECINCT NO. 18                                        01 
00100040005000000000000000000000000000000000000000000000000000000000000000000000000000000000000000000REP       REP President                                           Matthew John Matern                   PRECINCT NO. 19                                        01 
00100040006000000000000000000000000000000000000000000000000000000000000000000000000000000000000000000REP       REP President                                           Matthew John Matern                   PRECINCT NO. 20                                        01 
00100040007000001000000000000000001000000000000000000000000000000000000000000000000000000000000000000REP       REP President                                           Matthew John Matern                   PRECINCT NO. 21                                        01 
00100040008000000000000000000000000000000000000000000000000000000000000000000000000000000000000000000REP       REP President                                           Matthew John Matern                   PRECINCT NO. 23                                        01 
00100040009000001000000000001000000000000000000000000000000000000000000000000000000000000000000000000REP       REP President                                           Matthew John Matern                   PRECINCT NO. 24                                        01 
00100040010000000000000000000000000000000000000000000000000000000000000000000000000000000000000000000REP       REP President                                           Matthew John Matern                   PRECINCT NO. 25                                        01 
00100040011000000000000000000000000000000000000000000000000000000000000000000000000000000000000000000REP       REP President                                           Matthew John Matern                   PRECINCT NO. 30                                        01 
00100040012000001000000000000000001000000000000000000000000000000000000000000000000000000000000000000REP       REP President                                           Matthew John Matern                   PRECINCT NO. 31                                        01 
00100040013000000000000000000000000000000000000000000000000000000000000000000000000000000000000000000REP       REP President                                           Matthew John Matern                   PRECINCT NO. 32                                        01 
00100040014000000000000000000000000000000000000000000000000000000000000000000000000000000000000000000REP       REP President                                           Matthew John Matern                   PRECINCT NO. 33                                        01 
00100040015000000000000000000000000000000000000000000000000000000000000000000000000000000000000000000REP       REP President                                           Matthew John Matern                   PRECINCT NO. 34                                        01 
00100040016000000000000000000000000000000000000000000000000000000000000000000000000000000000000000000REP       REP President                                           Matthew John Matern                   PRECINCT NO. 35                                        01 
00100040017000001000000000001000000000000000000000000000000000000000000000000000000000000000000000000REP       REP President                                           Matthew John Matern                   PRECINCT NO. 41                                        01 
00100040018000001000000000001000000000000000000000000000000000000000000000000000000000000000000000000REP       REP President                                           Matthew John Matern                   PRECINCT NO. 44                                        01 
00100040019000000000000000000000000000000000000000000000000000000000000000000000000000000000000000000REP       REP President                                           Matthew John Matern                   PRECINCT NO. 45                                        01 
00100040020000002000000000000000002000000000000000000000000000000000000000000000000000000000000000000REP       REP President                                           Matthew John Matern                   PRECINCT NO. 46                                        01 
00100040021000003000000000001000002000000000000000000000000000000000000000000000000000000000000000000REP       REP President                                           Matthew John Matern                   PRECINCT NO. 47                                        01 
00100050001000000000000000000000000000000000000000000000000000000000000000000000000000000000000000000REP       REP President                                           Bob Ely                               PRECINCT NO. 10                                        01 
00100050002000000000000000000000000000000000000000000000000000000000000000000000000000000000000000000REP       REP President                                           Bob Ely                               PRECINCT NO. 11                                        01 
00100050003000003000000000002000001000000000000000000000000000000000000000000000000000000000000000000REP       REP President                                           Bob Ely                               PRECINCT NO. 12                                        01 
00100050004000000000000000000000000000000000000000000000000000000000000000000000000000000000000000000REP       REP President                                           Bob Ely                               PRECINCT NO. 18                                        01 
00100050005000000000000000000000000000000000000000000000000000000000000000000000000000000000000000000REP       REP President                                           Bob Ely                               PRECINCT NO. 19                                        01 
00100050006000000000000000000000000000000000000000000000000000000000000000000000000000000000000000000REP       REP President                                           Bob Ely                               PRECINCT NO. 20                                        01 
00100050007000000000000000000000000000000000000000000000000000000000000000000000000000000000000000000REP       REP President                                           Bob Ely                               PRECINCT NO. 21                                        01 
00100050008000000000000000000000000000000000000000000000000000000000000000000000000000000000000000000REP       REP President                                           Bob Ely                               PRECINCT NO. 23                                        01 
00100050009000000000000000000000000000000000000000000000000000000000000000000000000000000000000000000REP       REP President                                           Bob Ely                               PRECINCT NO. 24                                        01 
00100050010000001000001000000000000000000000000000000000000000000000000000000000000000000000000000000REP       REP President                                           Bob Ely                               PRECINCT NO. 25                                        01 
00100050011000001000000000001000000000000000000000000000000000000000000000000000000000000000000000000REP       REP President                                           Bob Ely                               PRECINCT NO. 30                                        01 
00100050012000002000000000002000000000000000000000000000000000000000000000000000000000000000000000000REP       REP President                                           Bob Ely                               PRECINCT NO. 31                                        01 
00100050013000001000000000001000000000000000000000000000000000000000000000000000000000000000000000000REP       REP President                                           Bob Ely                               PRECINCT NO. 32                                        01 
00100050014000001000000000001000000000000000000000000000000000000000000000000000000000000000000000000REP       REP President                                           Bob Ely                               PRECINCT NO. 33                                        01 
00100050015000000000000000000000000000000000000000000000000000000000000000000000000000000000000000000REP       REP President                                           Bob Ely                               PRECINCT NO. 34                                        01 
00100050016000000000000000000000000000000000000000000000000000000000000000000000000000000000000000000REP       REP President                                           Bob Ely                               PRECINCT NO. 35                                        01 
00100050017000002000000000002000000000000000000000000000000000000000000000000000000000000000000000000REP       REP President                                           Bob Ely                               PRECINCT NO. 41                                        01 
00100050018000000000000000000000000000000000000000000000000000000000000000000000000000000000000000000REP       REP President                                           Bob Ely                               PRECINCT NO. 44                                        01 
00100050019000000000000000000000000000000000000000000000000000000000000000000000000000000000000000000REP       REP President                                           Bob Ely                               PRECINCT NO. 45                                        01 
00100050020000001000000000000000001000000000000000000000000000000000000000000000000000000000000000000REP       REP President                                           Bob Ely                               PRECINCT NO. 46                                        01 
00100050021000000000000000000000000000000000000000000000000000000000000000000000000000000000000000000REP       REP President                                           Bob Ely                               PRECINCT NO. 47                                        01 
00100060001000002000000000001000001000000000000000000000000000000000000000000000000000000000000000000REP       REP President                                           Joe Walsh                             PRECINCT NO. 10                                        01 
00100060002000000000000000000000000000000000000000000000000000000000000000000000000000000000000000000REP       REP President                                           Joe Walsh                             PRECINCT NO. 11                                        01 
00100060003000005000000000003000002000000000000000000000000000000000000000000000000000000000000000000REP       REP President                                           Joe Walsh                             PRECINCT NO. 12                                        01 
00100060004000005000000000005000000000000000000000000000000000000000000000000000000000000000000000000REP       REP President                                           Joe Walsh                             PRECINCT NO. 18                                        01 
00100060005000007000000000004000003000000000000000000000000000000000000000000000000000000000000000000REP       REP President                                           Joe Walsh                             PRECINCT NO. 19                                        01 
00100060006000003000000000001000002000000000000000000000000000000000000000000000000000000000000000000REP       REP President                                           Joe Walsh                             PRECINCT NO. 20                                        01 
00100060007000000000000000000000000000000000000000000000000000000000000000000000000000000000000000000REP       REP President                                           Joe Walsh                             PRECINCT NO. 21                                        01 
00100060008000001000000000000000001000000000000000000000000000000000000000000000000000000000000000000REP       REP President                                           Joe Walsh                             PRECINCT NO. 23                                        01 
00100060009000006000001000003000002000000000000000000000000000000000000000000000000000000000000000000REP       REP President                                           Joe Walsh                             PRECINCT NO. 24                                        01 
00100060010000001000000000000000001000000000000000000000000000000000000000000000000000000000000000000REP       REP President                                           Joe Walsh                             PRECINCT NO. 25                                        01 
00100060011000001000000000001000000000000000000000000000000000000000000000000000000000000000000000000REP       REP President                                           Joe Walsh                             PRECINCT NO. 30                                        01 
00100060012000001000000000001000000000000000000000000000000000000000000000000000000000000000000000000REP       REP President                                           Joe Walsh                             PRECINCT NO. 31                                        01 
00100060013000009000000000007000002000000000000000000000000000000000000000000000000000000000000000000REP       REP President                                           Joe Walsh                             PRECINCT NO. 32                                        01 
00100060014000001000000000000000001000000000000000000000000000000000000000000000000000000000000000000REP       REP President                                           Joe Walsh                             PRECINCT NO. 33                                        01 
00100060015000003000000000001000002000000000000000000000000000000000000000000000000000000000000000000REP       REP President                                           Joe Walsh                             PRECINCT NO. 34                                        01 
00100060016000000000000000000000000000000000000000000000000000000000000000000000000000000000000000000REP       REP President                                           Joe Walsh                             PRECINCT NO. 35                                        01 
00100060017000001000000000000000001000000000000000000000000000000000000000000000000000000000000000000REP       REP President                                           Joe Walsh                             PRECINCT NO. 41                                        01 
00100060018000004000000000001000003000000000000000000000000000000000000000000000000000000000000000000REP       REP President                                           Joe Walsh                             PRECINCT NO. 44                                        01 
00100060019000008000000000003000005000000000000000000000000000000000000000000000000000000000000000000REP       REP President                                           Joe Walsh                             PRECINCT NO. 45                                        01 
00100060020000002000000000002000000000000000000000000000000000000000000000000000000000000000000000000REP       REP President                                           Joe Walsh                             PRECINCT NO. 46                                        01 
00100060021000005000000000004000001000000000000000000000000000000000000000000000000000000000000000000REP       REP President                                           Joe Walsh                             PRECINCT NO. 47                                        01 
00100070001000004000000000002000002000000000000000000000000000000000000000000000000000000000000000000REP       REP President                                           Bill Weld                             PRECINCT NO. 10                                        01 
00100070002000001000000000001000000000000000000000000000000000000000000000000000000000000000000000000REP       REP President                                           Bill Weld                             PRECINCT NO. 11                                        01 
00100070003000006000000000004000002000000000000000000000000000000000000000000000000000000000000000000REP       REP President                                           Bill Weld                             PRECINCT NO. 12                                        01 
00100070004000004000000000001000003000000000000000000000000000000000000000000000000000000000000000000REP       REP President                                           Bill Weld                             PRECINCT NO. 18                                        01 
00100070005000006000001000004000001000000000000000000000000000000000000000000000000000000000000000000REP       REP President                                           Bill Weld                             PRECINCT NO. 19                                        01 
00100070006000000000000000000000000000000000000000000000000000000000000000000000000000000000000000000REP       REP President                                           Bill Weld                             PRECINCT NO. 20                                        01 
00100070007000000000000000000000000000000000000000000000000000000000000000000000000000000000000000000REP       REP President                                           Bill Weld                             PRECINCT NO. 21                                        01 
00100070008000003000000000002000001000000000000000000000000000000000000000000000000000000000000000000REP       REP President                                           Bill Weld                             PRECINCT NO. 23                                        01 
00100070009000000000000000000000000000000000000000000000000000000000000000000000000000000000000000000REP       REP President                                           Bill Weld                             PRECINCT NO. 24                                        01 
00100070010000003000000000002000001000000000000000000000000000000000000000000000000000000000000000000REP       REP President                                           Bill Weld                             PRECINCT NO. 25                                        01 
00100070011000000000000000000000000000000000000000000000000000000000000000000000000000000000000000000REP       REP President                                           Bill Weld                             PRECINCT NO. 30                                        01 
00100070012000001000000000000000001000000000000000000000000000000000000000000000000000000000000000000REP       REP President                                           Bill Weld                             PRECINCT NO. 31                                        01 
00100070013000007000000000006000001000000000000000000000000000000000000000000000000000000000000000000REP       REP President                                           Bill Weld                             PRECINCT NO. 32                                        01 
00100070014000003000000000003000000000000000000000000000000000000000000000000000000000000000000000000REP       REP President                                           Bill Weld                             PRECINCT NO. 33                                        01 
00100070015000001000000000001000000000000000000000000000000000000000000000000000000000000000000000000REP       REP President                                           Bill Weld                             PRECINCT NO. 34                                        01 
00100070016000000000000000000000000000000000000000000000000000000000000000000000000000000000000000000REP       REP President                                           Bill Weld                             PRECINCT NO. 35                                        01 
00100070017000000000000000000000000000000000000000000000000000000000000000000000000000000000000000000REP       REP President                                           Bill Weld                             PRECINCT NO. 41                                        01 
00100070018000003000001000002000000000000000000000000000000000000000000000000000000000000000000000000REP       REP President                                           Bill Weld                             PRECINCT NO. 44                                        01 
00100070019000009000002000005000002000000000000000000000000000000000000000000000000000000000000000000REP       REP President                                           Bill Weld                             PRECINCT NO. 45                                        01 
00100070020000001000000000000000001000000000000000000000000000000000000000000000000000000000000000000REP       REP President                                           Bill Weld                             PRECINCT NO. 46                                        01 
00100070021000003000000000001000002000000000000000000000000000000000000000000000000000000000000000000REP       REP President                                           Bill Weld                             PRECINCT NO. 47                                        01 
00100080001000019000000000014000005000000000000000000000000000000000000000000000000000000000000000000REP       REP President                                           Uncommitted                           PRECINCT NO. 10                                        01 
00100080002000009000000000004000005000000000000000000000000000000000000000000000000000000000000000000REP       REP President                                           Uncommitted                           PRECINCT NO. 11                                        01 
00100080003000028000000000018000010000000000000000000000000000000000000000000000000000000000000000000REP       REP President                                           Uncommitted                           PRECINCT NO. 12                                        01 
00100080004000022000003000012000007000000000000000000000000000000000000000000000000000000000000000000REP       REP President                                           Uncommitted                           PRECINCT NO. 18                                        01 
00100080005000020000000000012000008000000000000000000000000000000000000000000000000000000000000000000REP       REP President                                           Uncommitted                           PRECINCT NO. 19                                        01 
00100080006000016000000000011000005000000000000000000000000000000000000000000000000000000000000000000REP       REP President                                           Uncommitted                           PRECINCT NO. 20                                        01 
00100080007000010000000000004000006000000000000000000000000000000000000000000000000000000000000000000REP       REP President                                           Uncommitted                           PRECINCT NO. 21                                        01 
00100080008000005000001000002000002000000000000000000000000000000000000000000000000000000000000000000REP       REP President                                           Uncommitted                           PRECINCT NO. 23                                        01 
00100080009000023000000000016000007000000000000000000000000000000000000000000000000000000000000000000REP       REP President                                           Uncommitted                           PRECINCT NO. 24                                        01 
00100080010000008000000000002000006000000000000000000000000000000000000000000000000000000000000000000REP       REP President                                           Uncommitted                           PRECINCT NO. 25                                        01 
00100080011000007000002000001000004000000000000000000000000000000000000000000000000000000000000000000REP       REP President                                           Uncommitted                           PRECINCT NO. 30                                        01 
00100080012000012000000000006000006000000000000000000000000000000000000000000000000000000000000000000REP       REP President                                           Uncommitted                           PRECINCT NO. 31                                        01 
00100080013000023000001000014000008000000000000000000000000000000000000000000000000000000000000000000REP       REP President                                           Uncommitted                           PRECINCT NO. 32                                        01 
00100080014000011000001000005000005000000000000000000000000000000000000000000000000000000000000000000REP       REP President                                           Uncommitted                           PRECINCT NO. 33                                        01 
00100080015000008000001000000000007000000000000000000000000000000000000000000000000000000000000000000REP       REP President                                           Uncommitted                           PRECINCT NO. 34                                        01 
00100080016000000000000000000000000000000000000000000000000000000000000000000000000000000000000000000REP       REP President                                           Uncommitted                           PRECINCT NO. 35                                        01 
00100080017000007000000000002000005000000000000000000000000000000000000000000000000000000000000000000REP       REP President                                           Uncommitted                           PRECINCT NO. 41                                        01 
00100080018000033000006000016000011000000000000000000000000000000000000000000000000000000000000000000REP       REP President                                           Uncommitted                           PRECINCT NO. 44                                        01 
00100080019000039000004000018000017000000000000000000000000000000000000000000000000000000000000000000REP       REP President                                           Uncommitted                           PRECINCT NO. 45                                        01 
00100080020000011000000000007000004000000000000000000000000000000000000000000000000000000000000000000REP       REP President                                           Uncommitted                           PRECINCT NO. 46                                        01 
00100080021000013000000000010000003000000000000000000000000000000000000000000000000000000000000000000REP       REP President                                           Uncommitted                           PRECINCT NO. 47                                        01 
00100090001000000000000000000000000000000000000000000000000000000000000000000000000000000000000000000          REP President                                           OVER VOTES                            PRECINCT NO. 10                                        01 
00100090002000000000000000000000000000000000000000000000000000000000000000000000000000000000000000000          REP President                                           OVER VOTES                            PRECINCT NO. 11                                        01 
00100090003000000000000000000000000000000000000000000000000000000000000000000000000000000000000000000          REP President                                           OVER VOTES                            PRECINCT NO. 12                                        01 
00100090004000000000000000000000000000000000000000000000000000000000000000000000000000000000000000000          REP President                                           OVER VOTES                            PRECINCT NO. 18                                        01 
00100090005000000000000000000000000000000000000000000000000000000000000000000000000000000000000000000          REP President                                           OVER VOTES                            PRECINCT NO. 19                                        01 
00100090006000000000000000000000000000000000000000000000000000000000000000000000000000000000000000000          REP President                                           OVER VOTES                            PRECINCT NO. 20                                        01 
00100090007000000000000000000000000000000000000000000000000000000000000000000000000000000000000000000          REP President                                           OVER VOTES                            PRECINCT NO. 21                                        01 
00100090008000000000000000000000000000000000000000000000000000000000000000000000000000000000000000000          REP President                                           OVER VOTES                            PRECINCT NO. 23                                        01 
00100090009000000000000000000000000000000000000000000000000000000000000000000000000000000000000000000          REP President                                           OVER VOTES                            PRECINCT NO. 24                                        01 
00100090010000000000000000000000000000000000000000000000000000000000000000000000000000000000000000000          REP President                                           OVER VOTES                            PRECINCT NO. 25                                        01 
00100090011000000000000000000000000000000000000000000000000000000000000000000000000000000000000000000          REP President                                           OVER VOTES                            PRECINCT NO. 30                                        01 
00100090012000000000000000000000000000000000000000000000000000000000000000000000000000000000000000000          REP President                                           OVER VOTES                            PRECINCT NO. 31                                        01 
00100090013000000000000000000000000000000000000000000000000000000000000000000000000000000000000000000          REP President                                           OVER VOTES                            PRECINCT NO. 32                                        01 
00100090014000000000000000000000000000000000000000000000000000000000000000000000000000000000000000000          REP President                                           OVER VOTES                            PRECINCT NO. 33                                        01 
00100090015000000000000000000000000000000000000000000000000000000000000000000000000000000000000000000          REP President                                           OVER VOTES                            PRECINCT NO. 34                                        01 
00100090016000000000000000000000000000000000000000000000000000000000000000000000000000000000000000000          REP President                                           OVER VOTES                            PRECINCT NO. 35                                        01 
00100090017000000000000000000000000000000000000000000000000000000000000000000000000000000000000000000          REP President                                           OVER VOTES                            PRECINCT NO. 41                                        01 
00100090018000000000000000000000000000000000000000000000000000000000000000000000000000000000000000000          REP President                                           OVER VOTES                            PRECINCT NO. 44                                        01 
00100090019000000000000000000000000000000000000000000000000000000000000000000000000000000000000000000          REP President                                           OVER VOTES                            PRECINCT NO. 45                                        01 
00100090020000000000000000000000000000000000000000000000000000000000000000000000000000000000000000000          REP President                                           OVER VOTES                            PRECINCT NO. 46                                        01 
