00010010001003995000000000000000000000000000000000000000000000000000000000000000000000000000000000000          REGISTERED VOTERS - TOTAL                               REGISTERED VOTERS - TOTAL             PRECINCT 101                                           00 
00010010002002588000000000000000000000000000000000000000000000000000000000000000000000000000000000000          REGISTERED VOTERS - TOTAL                               REGISTERED VOTERS - TOTAL             PRECINCT 102                                           00 
00010010003000566000000000000000000000000000000000000000000000000000000000000000000000000000000000000          REGISTERED VOTERS - TOTAL                               REGISTERED VOTERS - TOTAL             PRECINCT 103                                           00 
00010010004000948000000000000000000000000000000000000000000000000000000000000000000000000000000000000          REGISTERED VOTERS - TOTAL                               REGISTERED VOTERS - TOTAL             PRECINCT 104                                           00 
00010010005005634000000000000000000000000000000000000000000000000000000000000000000000000000000000000          REGISTERED VOTERS - TOTAL                               REGISTERED VOTERS - TOTAL             PRECINCT 105                                           00 
00010010006002714000000000000000000000000000000000000000000000000000000000000000000000000000000000000          REGISTERED VOTERS - TOTAL                               REGISTERED VOTERS - TOTAL             PRECINCT 106                                           00 
00010010007001920000000000000000000000000000000000000000000000000000000000000000000000000000000000000          REGISTERED VOTERS - TOTAL                               REGISTERED VOTERS - TOTAL             PRECINCT 107                                           00 
00010010008001630000000000000000000000000000000000000000000000000000000000000000000000000000000000000          REGISTERED VOTERS - TOTAL                               REGISTERED VOTERS - TOTAL             PRECINCT 108                                           00 
00010010009003436000000000000000000000000000000000000000000000000000000000000000000000000000000000000          REGISTERED VOTERS - TOTAL                               REGISTERED VOTERS - TOTAL             PRECINCT 201                                           00 
00010010010003407000000000000000000000000000000000000000000000000000000000000000000000000000000000000          REGISTERED VOTERS - TOTAL                               REGISTERED VOTERS - TOTAL             PRECINCT 202                                           00 
00010010011001242000000000000000000000000000000000000000000000000000000000000000000000000000000000000          REGISTERED VOTERS - TOTAL                               REGISTERED VOTERS - TOTAL             PRECINCT 203                                           00 
00010010012001003000000000000000000000000000000000000000000000000000000000000000000000000000000000000          REGISTERED VOTERS - TOTAL                               REGISTERED VOTERS - TOTAL             PRECINCT 204                                           00 
00010010013003918000000000000000000000000000000000000000000000000000000000000000000000000000000000000          REGISTERED VOTERS - TOTAL                               REGISTERED VOTERS - TOTAL             PRECINCT 205                                           00 
00010010014001328000000000000000000000000000000000000000000000000000000000000000000000000000000000000          REGISTERED VOTERS - TOTAL                               REGISTERED VOTERS - TOTAL             PRECINCT 206                                           00 
00010010015001029000000000000000000000000000000000000000000000000000000000000000000000000000000000000          REGISTERED VOTERS - TOTAL                               REGISTERED VOTERS - TOTAL             PRECINCT 207                                           00 
00010010016001498000000000000000000000000000000000000000000000000000000000000000000000000000000000000          REGISTERED VOTERS - TOTAL                               REGISTERED VOTERS - TOTAL             PRECINCT 208                                           00 
00010010017001260000000000000000000000000000000000000000000000000000000000000000000000000000000000000          REGISTERED VOTERS - TOTAL                               REGISTERED VOTERS - TOTAL             PRECINCT 209                                           00 
00010010018002021000000000000000000000000000000000000000000000000000000000000000000000000000000000000          REGISTERED VOTERS - TOTAL                               REGISTERED VOTERS - TOTAL             PRECINCT 210                                           00 
00010010019002028000000000000000000000000000000000000000000000000000000000000000000000000000000000000          REGISTERED VOTERS - TOTAL                               REGISTERED VOTERS - TOTAL             PRECINCT 301                                           00 
00010010020005895000000000000000000000000000000000000000000000000000000000000000000000000000000000000          REGISTERED VOTERS - TOTAL                               REGISTERED VOTERS - TOTAL             PRECINCT 302                                           00 
00010010021001016000000000000000000000000000000000000000000000000000000000000000000000000000000000000          REGISTERED VOTERS - TOTAL                               REGISTERED VOTERS - TOTAL             PRECINCT 303                                           00 
00010010022002924000000000000000000000000000000000000000000000000000000000000000000000000000000000000          REGISTERED VOTERS - TOTAL                               REGISTERED VOTERS - TOTAL             PRECINCT 304                                           00 
00010010023001477000000000000000000000000000000000000000000000000000000000000000000000000000000000000          REGISTERED VOTERS - TOTAL                               REGISTERED VOTERS - TOTAL             PRECINCT 305                                           00 
00010010024003811000000000000000000000000000000000000000000000000000000000000000000000000000000000000          REGISTERED VOTERS - TOTAL                               REGISTERED VOTERS - TOTAL             PRECINCT 306                                           00 
00010010025001985000000000000000000000000000000000000000000000000000000000000000000000000000000000000          REGISTERED VOTERS - TOTAL                               REGISTERED VOTERS - TOTAL             PRECINCT 307                                           00 
00010010026001228000000000000000000000000000000000000000000000000000000000000000000000000000000000000          REGISTERED VOTERS - TOTAL                               REGISTERED VOTERS - TOTAL             PRECINCT 308                                           00 
00010010027000876000000000000000000000000000000000000000000000000000000000000000000000000000000000000          REGISTERED VOTERS - TOTAL                               REGISTERED VOTERS - TOTAL             PRECINCT 309                                           00 
00010010028001634000000000000000000000000000000000000000000000000000000000000000000000000000000000000          REGISTERED VOTERS - TOTAL                               REGISTERED VOTERS - TOTAL             PRECINCT 401                                           00 
00010010029002628000000000000000000000000000000000000000000000000000000000000000000000000000000000000          REGISTERED VOTERS - TOTAL                               REGISTERED VOTERS - TOTAL             PRECINCT 402                                           00 
00010010030002886000000000000000000000000000000000000000000000000000000000000000000000000000000000000          REGISTERED VOTERS - TOTAL                               REGISTERED VOTERS - TOTAL             PRECINCT 403                                           00 
00010010031003567000000000000000000000000000000000000000000000000000000000000000000000000000000000000          REGISTERED VOTERS - TOTAL                               REGISTERED VOTERS - TOTAL             PRECINCT 404                                           00 
00010010032000555000000000000000000000000000000000000000000000000000000000000000000000000000000000000          REGISTERED VOTERS - TOTAL                               REGISTERED VOTERS - TOTAL             PRECINCT 405                                           00 
00010010033002736000000000000000000000000000000000000000000000000000000000000000000000000000000000000          REGISTERED VOTERS - TOTAL                               REGISTERED VOTERS - TOTAL             PRECINCT 406                                           00 
00010010034000254000000000000000000000000000000000000000000000000000000000000000000000000000000000000          REGISTERED VOTERS - TOTAL                               REGISTERED VOTERS - TOTAL             PRECINCT 407                                           00 
00010010035001675000000000000000000000000000000000000000000000000000000000000000000000000000000000000          REGISTERED VOTERS - TOTAL                               REGISTERED VOTERS - TOTAL             PRECINCT 408                                           00 
00010010036004248000000000000000000000000000000000000000000000000000000000000000000000000000000000000          REGISTERED VOTERS - TOTAL                               REGISTERED VOTERS - TOTAL             PRECINCT 409                                           00 
00040010001000763000073000290000400000000000000000000000000000000000000000000000000000000000000000000          BALLOTS CAST - TOTAL                                    BALLOTS CAST - TOTAL                  PRECINCT 101                                           00 
00040010002000455000043000148000264000000000000000000000000000000000000000000000000000000000000000000          BALLOTS CAST - TOTAL                                    BALLOTS CAST - TOTAL                  PRECINCT 102                                           00 
00040010003000167000013000075000079000000000000000000000000000000000000000000000000000000000000000000          BALLOTS CAST - TOTAL                                    BALLOTS CAST - TOTAL                  PRECINCT 103                                           00 
00040010004000285000014000098000173000000000000000000000000000000000000000000000000000000000000000000          BALLOTS CAST - TOTAL                                    BALLOTS CAST - TOTAL                  PRECINCT 104                                           00 
00040010005001376000060000558000758000000000000000000000000000000000000000000000000000000000000000000          BALLOTS CAST - TOTAL                                    BALLOTS CAST - TOTAL                  PRECINCT 105                                           00 
00040010006000683000035000199000449000000000000000000000000000000000000000000000000000000000000000000          BALLOTS CAST - TOTAL                                    BALLOTS CAST - TOTAL                  PRECINCT 106                                           00 
00040010007000556000026000141000389000000000000000000000000000000000000000000000000000000000000000000          BALLOTS CAST - TOTAL                                    BALLOTS CAST - TOTAL                  PRECINCT 107                                           00 
00040010008000481000035000208000238000000000000000000000000000000000000000000000000000000000000000000          BALLOTS CAST - TOTAL                                    BALLOTS CAST - TOTAL                  PRECINCT 108                                           00 
00040010009000764000046000320000398000000000000000000000000000000000000000000000000000000000000000000          BALLOTS CAST - TOTAL                                    BALLOTS CAST - TOTAL                  PRECINCT 201                                           00 
00040010010000722000020000251000451000000000000000000000000000000000000000000000000000000000000000000          BALLOTS CAST - TOTAL                                    BALLOTS CAST - TOTAL                  PRECINCT 202                                           00 
00040010011000158000013000069000076000000000000000000000000000000000000000000000000000000000000000000          BALLOTS CAST - TOTAL                                    BALLOTS CAST - TOTAL                  PRECINCT 203                                           00 
00040010012000289000008000142000139000000000000000000000000000000000000000000000000000000000000000000          BALLOTS CAST - TOTAL                                    BALLOTS CAST - TOTAL                  PRECINCT 204                                           00 
00040010013000976000031000459000486000000000000000000000000000000000000000000000000000000000000000000          BALLOTS CAST - TOTAL                                    BALLOTS CAST - TOTAL                  PRECINCT 205                                           00 
00040010014000352000008000157000187000000000000000000000000000000000000000000000000000000000000000000          BALLOTS CAST - TOTAL                                    BALLOTS CAST - TOTAL                  PRECINCT 206                                           00 
00040010015000283000008000103000172000000000000000000000000000000000000000000000000000000000000000000          BALLOTS CAST - TOTAL                                    BALLOTS CAST - TOTAL                  PRECINCT 207                                           00 
00040010016000338000007000035000296000000000000000000000000000000000000000000000000000000000000000000          BALLOTS CAST - TOTAL                                    BALLOTS CAST - TOTAL                  PRECINCT 208                                           00 
00040010017000338000010000124000204000000000000000000000000000000000000000000000000000000000000000000          BALLOTS CAST - TOTAL                                    BALLOTS CAST - TOTAL                  PRECINCT 209                                           00 
00040010018000467000011000094000362000000000000000000000000000000000000000000000000000000000000000000          BALLOTS CAST - TOTAL                                    BALLOTS CAST - TOTAL                  PRECINCT 210                                           00 
00040010019000457000074000161000222000000000000000000000000000000000000000000000000000000000000000000          BALLOTS CAST - TOTAL                                    BALLOTS CAST - TOTAL                  PRECINCT 301                                           00 
00040010020001291000117000533000641000000000000000000000000000000000000000000000000000000000000000000          BALLOTS CAST - TOTAL                                    BALLOTS CAST - TOTAL                  PRECINCT 302                                           00 
00040010021000220000014000092000114000000000000000000000000000000000000000000000000000000000000000000          BALLOTS CAST - TOTAL                                    BALLOTS CAST - TOTAL                  PRECINCT 303                                           00 
00040010022000778000066000313000399000000000000000000000000000000000000000000000000000000000000000000          BALLOTS CAST - TOTAL                                    BALLOTS CAST - TOTAL                  PRECINCT 304                                           00 
00040010023000444000012000179000253000000000000000000000000000000000000000000000000000000000000000000          BALLOTS CAST - TOTAL                                    BALLOTS CAST - TOTAL                  PRECINCT 305                                           00 
00040010024001092000051000568000473000000000000000000000000000000000000000000000000000000000000000000          BALLOTS CAST - TOTAL                                    BALLOTS CAST - TOTAL                  PRECINCT 306                                           00 
00040010025000608000033000178000397000000000000000000000000000000000000000000000000000000000000000000          BALLOTS CAST - TOTAL                                    BALLOTS CAST - TOTAL                  PRECINCT 307                                           00 
00040010026000309000017000061000231000000000000000000000000000000000000000000000000000000000000000000          BALLOTS CAST - TOTAL                                    BALLOTS CAST - TOTAL                  PRECINCT 308                                           00 
00040010027000220000009000057000154000000000000000000000000000000000000000000000000000000000000000000          BALLOTS CAST - TOTAL                                    BALLOTS CAST - TOTAL                  PRECINCT 309                                           00 
00040010028000373000023000152000198000000000000000000000000000000000000000000000000000000000000000000          BALLOTS CAST - TOTAL                                    BALLOTS CAST - TOTAL                  PRECINCT 401                                           00 
00040010029000572000024000263000285000000000000000000000000000000000000000000000000000000000000000000          BALLOTS CAST - TOTAL                                    BALLOTS CAST - TOTAL                  PRECINCT 402                                           00 
00040010030000780000032000316000432000000000000000000000000000000000000000000000000000000000000000000          BALLOTS CAST - TOTAL                                    BALLOTS CAST - TOTAL                  PRECINCT 403                                           00 
00040010031000960000020000404000536000000000000000000000000000000000000000000000000000000000000000000          BALLOTS CAST - TOTAL                                    BALLOTS CAST - TOTAL                  PRECINCT 404                                           00 
00040010032000098000002000046000050000000000000000000000000000000000000000000000000000000000000000000          BALLOTS CAST - TOTAL                                    BALLOTS CAST - TOTAL                  PRECINCT 405                                           00 
00040010033000776000021000312000443000000000000000000000000000000000000000000000000000000000000000000          BALLOTS CAST - TOTAL                                    BALLOTS CAST - TOTAL                  PRECINCT 406                                           00 
00040010034000030000004000009000017000000000000000000000000000000000000000000000000000000000000000000          BALLOTS CAST - TOTAL                                    BALLOTS CAST - TOTAL                  PRECINCT 407                                           00 
00040010035000420000021000157000242000000000000000000000000000000000000000000000000000000000000000000          BALLOTS CAST - TOTAL                                    BALLOTS CAST - TOTAL                  PRECINCT 408                                           00 
00040010036001202000037000533000632000000000000000000000000000000000000000000000000000000000000000000          BALLOTS CAST - TOTAL                                    BALLOTS CAST - TOTAL                  PRECINCT 409                                           00 
00050010001000010000003000006000001000000000000000000000000000000000000000000000000000000000000000000DEM       DEM President                                           Amy Klobuchar                         PRECINCT 101                                           01 
00050010002000005000002000002000001000000000000000000000000000000000000000000000000000000000000000000DEM       DEM President                                           Amy Klobuchar                         PRECINCT 102                                           01 
00050010003000001000000000001000000000000000000000000000000000000000000000000000000000000000000000000DEM       DEM President                                           Amy Klobuchar                         PRECINCT 103                                           01 
00050010004000000000000000000000000000000000000000000000000000000000000000000000000000000000000000000DEM       DEM President                                           Amy Klobuchar                         PRECINCT 104                                           01 
00050010005000009000000000008000001000000000000000000000000000000000000000000000000000000000000000000DEM       DEM President                                           Amy Klobuchar                         PRECINCT 105                                           01 
00050010006000004000001000003000000000000000000000000000000000000000000000000000000000000000000000000DEM       DEM President                                           Amy Klobuchar                         PRECINCT 106                                           01 
00050010007000002000000000002000000000000000000000000000000000000000000000000000000000000000000000000DEM       DEM President                                           Amy Klobuchar                         PRECINCT 107                                           01 
00050010008000001000000000001000000000000000000000000000000000000000000000000000000000000000000000000DEM       DEM President                                           Amy Klobuchar                         PRECINCT 108                                           01 
00050010009000008000001000006000001000000000000000000000000000000000000000000000000000000000000000000DEM       DEM President                                           Amy Klobuchar                         PRECINCT 201                                           01 
00050010010000003000000000003000000000000000000000000000000000000000000000000000000000000000000000000DEM       DEM President                                           Amy Klobuchar                         PRECINCT 202                                           01 
00050010011000000000000000000000000000000000000000000000000000000000000000000000000000000000000000000DEM       DEM President                                           Amy Klobuchar                         PRECINCT 203                                           01 
00050010012000001000000000001000000000000000000000000000000000000000000000000000000000000000000000000DEM       DEM President                                           Amy Klobuchar                         PRECINCT 204                                           01 
00050010013000008000002000005000001000000000000000000000000000000000000000000000000000000000000000000DEM       DEM President                                           Amy Klobuchar                         PRECINCT 205                                           01 
00050010014000003000000000003000000000000000000000000000000000000000000000000000000000000000000000000DEM       DEM President                                           Amy Klobuchar                         PRECINCT 206                                           01 
00050010015000002000000000002000000000000000000000000000000000000000000000000000000000000000000000000DEM       DEM President                                           Amy Klobuchar                         PRECINCT 207                                           01 
00050010016000002000002000000000000000000000000000000000000000000000000000000000000000000000000000000DEM       DEM President                                           Amy Klobuchar                         PRECINCT 208                                           01 
00050010017000003000000000003000000000000000000000000000000000000000000000000000000000000000000000000DEM       DEM President                                           Amy Klobuchar                         PRECINCT 209                                           01 
00050010018000002000000000002000000000000000000000000000000000000000000000000000000000000000000000000DEM       DEM President                                           Amy Klobuchar                         PRECINCT 210                                           01 
00050010019000003000002000001000000000000000000000000000000000000000000000000000000000000000000000000DEM       DEM President                                           Amy Klobuchar                         PRECINCT 301                                           01 
00050010020000011000002000008000001000000000000000000000000000000000000000000000000000000000000000000DEM       DEM President                                           Amy Klobuchar                         PRECINCT 302                                           01 
00050010021000000000000000000000000000000000000000000000000000000000000000000000000000000000000000000DEM       DEM President                                           Amy Klobuchar                         PRECINCT 303                                           01 
00050010022000012000003000008000001000000000000000000000000000000000000000000000000000000000000000000DEM       DEM President                                           Amy Klobuchar                         PRECINCT 304                                           01 
00050010023000003000002000001000000000000000000000000000000000000000000000000000000000000000000000000DEM       DEM President                                           Amy Klobuchar                         PRECINCT 305                                           01 
00050010024000004000000000003000001000000000000000000000000000000000000000000000000000000000000000000DEM       DEM President                                           Amy Klobuchar                         PRECINCT 306                                           01 
00050010025000001000000000001000000000000000000000000000000000000000000000000000000000000000000000000DEM       DEM President                                           Amy Klobuchar                         PRECINCT 307                                           01 
00050010026000001000000000000000001000000000000000000000000000000000000000000000000000000000000000000DEM       DEM President                                           Amy Klobuchar                         PRECINCT 308                                           01 
00050010027000000000000000000000000000000000000000000000000000000000000000000000000000000000000000000DEM       DEM President                                           Amy Klobuchar                         PRECINCT 309                                           01 
00050010028000003000001000001000001000000000000000000000000000000000000000000000000000000000000000000DEM       DEM President                                           Amy Klobuchar                         PRECINCT 401                                           01 
00050010029000006000000000006000000000000000000000000000000000000000000000000000000000000000000000000DEM       DEM President                                           Amy Klobuchar                         PRECINCT 402                                           01 
00050010030000004000001000002000001000000000000000000000000000000000000000000000000000000000000000000DEM       DEM President                                           Amy Klobuchar                         PRECINCT 403                                           01 
00050010031000005000001000004000000000000000000000000000000000000000000000000000000000000000000000000DEM       DEM President                                           Amy Klobuchar                         PRECINCT 404                                           01 
00050010032000001000000000001000000000000000000000000000000000000000000000000000000000000000000000000DEM       DEM President                                           Amy Klobuchar                         PRECINCT 405                                           01 
00050010033000009000003000006000000000000000000000000000000000000000000000000000000000000000000000000DEM       DEM President                                           Amy Klobuchar                         PRECINCT 406                                           01 
00050010034000000000000000000000000000000000000000000000000000000000000000000000000000000000000000000DEM       DEM President                                           Amy Klobuchar                         PRECINCT 407                                           01 
00050010035000002000000000000000002000000000000000000000000000000000000000000000000000000000000000000DEM       DEM President                                           Amy Klobuchar                         PRECINCT 408                                           01 
00050010036000014000001000011000002000000000000000000000000000000000000000000000000000000000000000000DEM       DEM President                                           Amy Klobuchar                         PRECINCT 409                                           01 
00050020001000051000013000017000021000000000000000000000000000000000000000000000000000000000000000000DEM       DEM President                                           Michael R. Bloomberg                  PRECINCT 101                                           01 
00050020002000042000010000016000016000000000000000000000000000000000000000000000000000000000000000000DEM       DEM President                                           Michael R. Bloomberg                  PRECINCT 102                                           01 
00050020003000009000000000006000003000000000000000000000000000000000000000000000000000000000000000000DEM       DEM President                                           Michael R. Bloomberg                  PRECINCT 103                                           01 
00050020004000009000003000005000001000000000000000000000000000000000000000000000000000000000000000000DEM       DEM President                                           Michael R. Bloomberg                  PRECINCT 104                                           01 
00050020005000050000007000020000023000000000000000000000000000000000000000000000000000000000000000000DEM       DEM President                                           Michael R. Bloomberg                  PRECINCT 105                                           01 
00050020006000022000003000002000017000000000000000000000000000000000000000000000000000000000000000000DEM       DEM President                                           Michael R. Bloomberg                  PRECINCT 106                                           01 
00050020007000010000002000004000004000000000000000000000000000000000000000000000000000000000000000000DEM       DEM President                                           Michael R. Bloomberg                  PRECINCT 107                                           01 
00050020008000014000003000004000007000000000000000000000000000000000000000000000000000000000000000000DEM       DEM President                                           Michael R. Bloomberg                  PRECINCT 108                                           01 
00050020009000049000012000016000021000000000000000000000000000000000000000000000000000000000000000000DEM       DEM President                                           Michael R. Bloomberg                  PRECINCT 201                                           01 
00050020010000046000004000016000026000000000000000000000000000000000000000000000000000000000000000000DEM       DEM President                                           Michael R. Bloomberg                  PRECINCT 202                                           01 
00050020011000014000004000005000005000000000000000000000000000000000000000000000000000000000000000000DEM       DEM President                                           Michael R. Bloomberg                  PRECINCT 203                                           01 
00050020012000016000000000010000006000000000000000000000000000000000000000000000000000000000000000000DEM       DEM President                                           Michael R. Bloomberg                  PRECINCT 204                                           01 
00050020013000041000007000022000012000000000000000000000000000000000000000000000000000000000000000000DEM       DEM President                                           Michael R. Bloomberg                  PRECINCT 205                                           01 
00050020014000023000002000013000008000000000000000000000000000000000000000000000000000000000000000000DEM       DEM President                                           Michael R. Bloomberg                  PRECINCT 206                                           01 
00050020015000014000001000002000011000000000000000000000000000000000000000000000000000000000000000000DEM       DEM President                                           Michael R. Bloomberg                  PRECINCT 207                                           01 
00050020016000020000002000002000016000000000000000000000000000000000000000000000000000000000000000000DEM       DEM President                                           Michael R. Bloomberg                  PRECINCT 208                                           01 
00050020017000003000000000002000001000000000000000000000000000000000000000000000000000000000000000000DEM       DEM President                                           Michael R. Bloomberg                  PRECINCT 209                                           01 
00050020018000017000004000004000009000000000000000000000000000000000000000000000000000000000000000000DEM       DEM President                                           Michael R. Bloomberg                  PRECINCT 210                                           01 
00050020019000030000011000009000010000000000000000000000000000000000000000000000000000000000000000000DEM       DEM President                                           Michael R. Bloomberg                  PRECINCT 301                                           01 
00050020020000082000023000030000029000000000000000000000000000000000000000000000000000000000000000000DEM       DEM President                                           Michael R. Bloomberg                  PRECINCT 302                                           01 
00050020021000003000001000000000002000000000000000000000000000000000000000000000000000000000000000000DEM       DEM President                                           Michael R. Bloomberg                  PRECINCT 303                                           01 
00050020022000061000011000026000024000000000000000000000000000000000000000000000000000000000000000000DEM       DEM President                                           Michael R. Bloomberg                  PRECINCT 304                                           01 
00050020023000011000002000002000007000000000000000000000000000000000000000000000000000000000000000000DEM       DEM President                                           Michael R. Bloomberg                  PRECINCT 305                                           01 
00050020024000029000007000012000010000000000000000000000000000000000000000000000000000000000000000000DEM       DEM President                                           Michael R. Bloomberg                  PRECINCT 306                                           01 
00050020025000020000001000007000012000000000000000000000000000000000000000000000000000000000000000000DEM       DEM President                                           Michael R. Bloomberg                  PRECINCT 307                                           01 
00050020026000014000001000001000012000000000000000000000000000000000000000000000000000000000000000000DEM       DEM President                                           Michael R. Bloomberg                  PRECINCT 308                                           01 
00050020027000001000001000000000000000000000000000000000000000000000000000000000000000000000000000000DEM       DEM President                                           Michael R. Bloomberg                  PRECINCT 309                                           01 
00050020028000029000002000013000014000000000000000000000000000000000000000000000000000000000000000000DEM       DEM President                                           Michael R. Bloomberg                  PRECINCT 401                                           01 
00050020029000030000005000009000016000000000000000000000000000000000000000000000000000000000000000000DEM       DEM President                                           Michael R. Bloomberg                  PRECINCT 402                                           01 
00050020030000044000007000013000024000000000000000000000000000000000000000000000000000000000000000000DEM       DEM President                                           Michael R. Bloomberg                  PRECINCT 403                                           01 
00050020031000061000003000030000028000000000000000000000000000000000000000000000000000000000000000000DEM       DEM President                                           Michael R. Bloomberg                  PRECINCT 404                                           01 
00050020032000008000001000001000006000000000000000000000000000000000000000000000000000000000000000000DEM       DEM President                                           Michael R. Bloomberg                  PRECINCT 405                                           01 
00050020033000051000005000017000029000000000000000000000000000000000000000000000000000000000000000000DEM       DEM President                                           Michael R. Bloomberg                  PRECINCT 406                                           01 
00050020034000003000001000001000001000000000000000000000000000000000000000000000000000000000000000000DEM       DEM President                                           Michael R. Bloomberg                  PRECINCT 407                                           01 
00050020035000027000001000012000014000000000000000000000000000000000000000000000000000000000000000000DEM       DEM President                                           Michael R. Bloomberg                  PRECINCT 408                                           01 
00050020036000064000008000028000028000000000000000000000000000000000000000000000000000000000000000000DEM       DEM President                                           Michael R. Bloomberg                  PRECINCT 409                                           01 
00050030001000001000000000001000000000000000000000000000000000000000000000000000000000000000000000000DEM       DEM President                                           Julian Castro                         PRECINCT 101                                           01 
00050030002000000000000000000000000000000000000000000000000000000000000000000000000000000000000000000DEM       DEM President                                           Julian Castro                         PRECINCT 102                                           01 
00050030003000000000000000000000000000000000000000000000000000000000000000000000000000000000000000000DEM       DEM President                                           Julian Castro                         PRECINCT 103                                           01 
00050030004000000000000000000000000000000000000000000000000000000000000000000000000000000000000000000DEM       DEM President                                           Julian Castro                         PRECINCT 104                                           01 
00050030005000001000000000001000000000000000000000000000000000000000000000000000000000000000000000000DEM       DEM President                                           Julian Castro                         PRECINCT 105                                           01 
00050030006000002000000000001000001000000000000000000000000000000000000000000000000000000000000000000DEM       DEM President                                           Julian Castro                         PRECINCT 106                                           01 
00050030007000000000000000000000000000000000000000000000000000000000000000000000000000000000000000000DEM       DEM President                                           Julian Castro                         PRECINCT 107                                           01 
00050030008000000000000000000000000000000000000000000000000000000000000000000000000000000000000000000DEM       DEM President                                           Julian Castro                         PRECINCT 108                                           01 
00050030009000001000000000000000001000000000000000000000000000000000000000000000000000000000000000000DEM       DEM President                                           Julian Castro                         PRECINCT 201                                           01 
00050030010000000000000000000000000000000000000000000000000000000000000000000000000000000000000000000DEM       DEM President                                           Julian Castro                         PRECINCT 202                                           01 
00050030011000000000000000000000000000000000000000000000000000000000000000000000000000000000000000000DEM       DEM President                                           Julian Castro                         PRECINCT 203                                           01 
00050030012000000000000000000000000000000000000000000000000000000000000000000000000000000000000000000DEM       DEM President                                           Julian Castro                         PRECINCT 204                                           01 
00050030013000001000000000001000000000000000000000000000000000000000000000000000000000000000000000000DEM       DEM President                                           Julian Castro                         PRECINCT 205                                           01 
00050030014000000000000000000000000000000000000000000000000000000000000000000000000000000000000000000DEM       DEM President                                           Julian Castro                         PRECINCT 206                                           01 
00050030015000000000000000000000000000000000000000000000000000000000000000000000000000000000000000000DEM       DEM President                                           Julian Castro                         PRECINCT 207                                           01 
00050030016000000000000000000000000000000000000000000000000000000000000000000000000000000000000000000DEM       DEM President                                           Julian Castro                         PRECINCT 208                                           01 
00050030017000000000000000000000000000000000000000000000000000000000000000000000000000000000000000000DEM       DEM President                                           Julian Castro                         PRECINCT 209                                           01 
00050030018000000000000000000000000000000000000000000000000000000000000000000000000000000000000000000DEM       DEM President                                           Julian Castro                         PRECINCT 210                                           01 
00050030019000000000000000000000000000000000000000000000000000000000000000000000000000000000000000000DEM       DEM President                                           Julian Castro                         PRECINCT 301                                           01 
00050030020000000000000000000000000000000000000000000000000000000000000000000000000000000000000000000DEM       DEM President                                           Julian Castro                         PRECINCT 302                                           01 
00050030021000000000000000000000000000000000000000000000000000000000000000000000000000000000000000000DEM       DEM President                                           Julian Castro                         PRECINCT 303                                           01 
00050030022000000000000000000000000000000000000000000000000000000000000000000000000000000000000000000DEM       DEM President                                           Julian Castro                         PRECINCT 304                                           01 
00050030023000000000000000000000000000000000000000000000000000000000000000000000000000000000000000000DEM       DEM President                                           Julian Castro                         PRECINCT 305                                           01 
00050030024000000000000000000000000000000000000000000000000000000000000000000000000000000000000000000DEM       DEM President                                           Julian Castro                         PRECINCT 306                                           01 
00050030025000000000000000000000000000000000000000000000000000000000000000000000000000000000000000000DEM       DEM President                                           Julian Castro                         PRECINCT 307                                           01 
00050030026000000000000000000000000000000000000000000000000000000000000000000000000000000000000000000DEM       DEM President                                           Julian Castro                         PRECINCT 308                                           01 
00050030027000000000000000000000000000000000000000000000000000000000000000000000000000000000000000000DEM       DEM President                                           Julian Castro                         PRECINCT 309                                           01 
00050030028000000000000000000000000000000000000000000000000000000000000000000000000000000000000000000DEM       DEM President                                           Julian Castro                         PRECINCT 401                                           01 
00050030029000000000000000000000000000000000000000000000000000000000000000000000000000000000000000000DEM       DEM President                                           Julian Castro                         PRECINCT 402                                           01 
00050030030000000000000000000000000000000000000000000000000000000000000000000000000000000000000000000DEM       DEM President                                           Julian Castro                         PRECINCT 403                                           01 
00050030031000000000000000000000000000000000000000000000000000000000000000000000000000000000000000000DEM       DEM President                                           Julian Castro                         PRECINCT 404                                           01 
00050030032000000000000000000000000000000000000000000000000000000000000000000000000000000000000000000DEM       DEM President                                           Julian Castro                         PRECINCT 405                                           01 
00050030033000000000000000000000000000000000000000000000000000000000000000000000000000000000000000000DEM       DEM President                                           Julian Castro                         PRECINCT 406                                           01 
00050030034000000000000000000000000000000000000000000000000000000000000000000000000000000000000000000DEM       DEM President                                           Julian Castro                         PRECINCT 407                                           01 
00050030035000000000000000000000000000000000000000000000000000000000000000000000000000000000000000000DEM       DEM President                                           Julian Castro                         PRECINCT 408                                           01 
00050030036000000000000000000000000000000000000000000000000000000000000000000000000000000000000000000DEM       DEM President                                           Julian Castro                         PRECINCT 409                                           01 
00050040001000002000000000000000002000000000000000000000000000000000000000000000000000000000000000000DEM       DEM President                                           Tulsi Gabbard                         PRECINCT 101                                           01 
00050040002000000000000000000000000000000000000000000000000000000000000000000000000000000000000000000DEM       DEM President                                           Tulsi Gabbard                         PRECINCT 102                                           01 
00050040003000000000000000000000000000000000000000000000000000000000000000000000000000000000000000000DEM       DEM President                                           Tulsi Gabbard                         PRECINCT 103                                           01 
00050040004000000000000000000000000000000000000000000000000000000000000000000000000000000000000000000DEM       DEM President                                           Tulsi Gabbard                         PRECINCT 104                                           01 
00050040005000001000000000000000001000000000000000000000000000000000000000000000000000000000000000000DEM       DEM President                                           Tulsi Gabbard                         PRECINCT 105                                           01 
00050040006000002000000000001000001000000000000000000000000000000000000000000000000000000000000000000DEM       DEM President                                           Tulsi Gabbard                         PRECINCT 106                                           01 
00050040007000000000000000000000000000000000000000000000000000000000000000000000000000000000000000000DEM       DEM President                                           Tulsi Gabbard                         PRECINCT 107                                           01 
00050040008000000000000000000000000000000000000000000000000000000000000000000000000000000000000000000DEM       DEM President                                           Tulsi Gabbard                         PRECINCT 108                                           01 
00050040009000000000000000000000000000000000000000000000000000000000000000000000000000000000000000000DEM       DEM President                                           Tulsi Gabbard                         PRECINCT 201                                           01 
00050040010000001000000000001000000000000000000000000000000000000000000000000000000000000000000000000DEM       DEM President                                           Tulsi Gabbard                         PRECINCT 202                                           01 
00050040011000000000000000000000000000000000000000000000000000000000000000000000000000000000000000000DEM       DEM President                                           Tulsi Gabbard                         PRECINCT 203                                           01 
00050040012000000000000000000000000000000000000000000000000000000000000000000000000000000000000000000DEM       DEM President                                           Tulsi Gabbard                         PRECINCT 204                                           01 
00050040013000001000000000000000001000000000000000000000000000000000000000000000000000000000000000000DEM       DEM President                                           Tulsi Gabbard                         PRECINCT 205                                           01 
00050040014000002000000000001000001000000000000000000000000000000000000000000000000000000000000000000DEM       DEM President                                           Tulsi Gabbard                         PRECINCT 206                                           01 
00050040015000000000000000000000000000000000000000000000000000000000000000000000000000000000000000000DEM       DEM President                                           Tulsi Gabbard                         PRECINCT 207                                           01 
00050040016000000000000000000000000000000000000000000000000000000000000000000000000000000000000000000DEM       DEM President                                           Tulsi Gabbard                         PRECINCT 208                                           01 
00050040017000000000000000000000000000000000000000000000000000000000000000000000000000000000000000000DEM       DEM President                                           Tulsi Gabbard                         PRECINCT 209                                           01 
00050040018000000000000000000000000000000000000000000000000000000000000000000000000000000000000000000DEM       DEM President                                           Tulsi Gabbard                         PRECINCT 210                                           01 
00050040019000002000000000002000000000000000000000000000000000000000000000000000000000000000000000000DEM       DEM President                                           Tulsi Gabbard                         PRECINCT 301                                           01 
00050040020000002000000000001000001000000000000000000000000000000000000000000000000000000000000000000DEM       DEM President                                           Tulsi Gabbard                         PRECINCT 302                                           01 
00050040021000000000000000000000000000000000000000000000000000000000000000000000000000000000000000000DEM       DEM President                                           Tulsi Gabbard                         PRECINCT 303                                           01 
00050040022000000000000000000000000000000000000000000000000000000000000000000000000000000000000000000DEM       DEM President                                           Tulsi Gabbard                         PRECINCT 304                                           01 
00050040023000000000000000000000000000000000000000000000000000000000000000000000000000000000000000000DEM       DEM President                                           Tulsi Gabbard                         PRECINCT 305                                           01 
00050040024000001000001000000000000000000000000000000000000000000000000000000000000000000000000000000DEM       DEM President                                           Tulsi Gabbard                         PRECINCT 306                                           01 
00050040025000000000000000000000000000000000000000000000000000000000000000000000000000000000000000000DEM       DEM President                                           Tulsi Gabbard                         PRECINCT 307                                           01 
00050040026000000000000000000000000000000000000000000000000000000000000000000000000000000000000000000DEM       DEM President                                           Tulsi Gabbard                         PRECINCT 308                                           01 
00050040027000000000000000000000000000000000000000000000000000000000000000000000000000000000000000000DEM       DEM President                                           Tulsi Gabbard                         PRECINCT 309                                           01 
00050040028000000000000000000000000000000000000000000000000000000000000000000000000000000000000000000DEM       DEM President                                           Tulsi Gabbard                         PRECINCT 401                                           01 
00050040029000001000000000000000001000000000000000000000000000000000000000000000000000000000000000000DEM       DEM President                                           Tulsi Gabbard                         PRECINCT 402                                           01 
00050040030000001000000000000000001000000000000000000000000000000000000000000000000000000000000000000DEM       DEM President                                           Tulsi Gabbard                         PRECINCT 403                                           01 
00050040031000001000000000000000001000000000000000000000000000000000000000000000000000000000000000000DEM       DEM President                                           Tulsi Gabbard                         PRECINCT 404                                           01 
00050040032000000000000000000000000000000000000000000000000000000000000000000000000000000000000000000DEM       DEM President                                           Tulsi Gabbard                         PRECINCT 405                                           01 
00050040033000000000000000000000000000000000000000000000000000000000000000000000000000000000000000000DEM       DEM President                                           Tulsi Gabbard                         PRECINCT 406                                           01 
00050040034000000000000000000000000000000000000000000000000000000000000000000000000000000000000000000DEM       DEM President                                           Tulsi Gabbard                         PRECINCT 407                                           01 
00050040035000000000000000000000000000000000000000000000000000000000000000000000000000000000000000000DEM       DEM President                                           Tulsi Gabbard                         PRECINCT 408                                           01 
00050040036000003000000000000000003000000000000000000000000000000000000000000000000000000000000000000DEM       DEM President                                           Tulsi Gabbard                         PRECINCT 409                                           01 
00050050001000000000000000000000000000000000000000000000000000000000000000000000000000000000000000000DEM       DEM President                                           Cory Booker                           PRECINCT 101                                           01 
00050050002000001000001000000000000000000000000000000000000000000000000000000000000000000000000000000DEM       DEM President                                           Cory Booker                           PRECINCT 102                                           01 
00050050003000000000000000000000000000000000000000000000000000000000000000000000000000000000000000000DEM       DEM President                                           Cory Booker                           PRECINCT 103                                           01 
00050050004000000000000000000000000000000000000000000000000000000000000000000000000000000000000000000DEM       DEM President                                           Cory Booker                           PRECINCT 104                                           01 
00050050005000001000000000000000001000000000000000000000000000000000000000000000000000000000000000000DEM       DEM President                                           Cory Booker                           PRECINCT 105                                           01 
00050050006000000000000000000000000000000000000000000000000000000000000000000000000000000000000000000DEM       DEM President                                           Cory Booker                           PRECINCT 106                                           01 
00050050007000000000000000000000000000000000000000000000000000000000000000000000000000000000000000000DEM       DEM President                                           Cory Booker                           PRECINCT 107                                           01 
00050050008000000000000000000000000000000000000000000000000000000000000000000000000000000000000000000DEM       DEM President                                           Cory Booker                           PRECINCT 108                                           01 
00050050009000001000001000000000000000000000000000000000000000000000000000000000000000000000000000000DEM       DEM President                                           Cory Booker                           PRECINCT 201                                           01 
00050050010000000000000000000000000000000000000000000000000000000000000000000000000000000000000000000DEM       DEM President                                           Cory Booker                           PRECINCT 202                                           01 
00050050011000000000000000000000000000000000000000000000000000000000000000000000000000000000000000000DEM       DEM President                                           Cory Booker                           PRECINCT 203                                           01 
00050050012000000000000000000000000000000000000000000000000000000000000000000000000000000000000000000DEM       DEM President                                           Cory Booker                           PRECINCT 204                                           01 
00050050013000000000000000000000000000000000000000000000000000000000000000000000000000000000000000000DEM       DEM President                                           Cory Booker                           PRECINCT 205                                           01 
00050050014000001000000000001000000000000000000000000000000000000000000000000000000000000000000000000DEM       DEM President                                           Cory Booker                           PRECINCT 206                                           01 
00050050015000000000000000000000000000000000000000000000000000000000000000000000000000000000000000000DEM       DEM President                                           Cory Booker                           PRECINCT 207                                           01 
00050050016000000000000000000000000000000000000000000000000000000000000000000000000000000000000000000DEM       DEM President                                           Cory Booker                           PRECINCT 208                                           01 
00050050017000000000000000000000000000000000000000000000000000000000000000000000000000000000000000000DEM       DEM President                                           Cory Booker                           PRECINCT 209                                           01 
00050050018000000000000000000000000000000000000000000000000000000000000000000000000000000000000000000DEM       DEM President                                           Cory Booker                           PRECINCT 210                                           01 
00050050019000000000000000000000000000000000000000000000000000000000000000000000000000000000000000000DEM       DEM President                                           Cory Booker                           PRECINCT 301                                           01 
00050050020000001000000000001000000000000000000000000000000000000000000000000000000000000000000000000DEM       DEM President                                           Cory Booker                           PRECINCT 302                                           01 
00050050021000002000002000000000000000000000000000000000000000000000000000000000000000000000000000000DEM       DEM President                                           Cory Booker                           PRECINCT 303                                           01 
00050050022000000000000000000000000000000000000000000000000000000000000000000000000000000000000000000DEM       DEM President                                           Cory Booker                           PRECINCT 304                                           01 
00050050023000000000000000000000000000000000000000000000000000000000000000000000000000000000000000000DEM       DEM President                                           Cory Booker                           PRECINCT 305                                           01 
00050050024000000000000000000000000000000000000000000000000000000000000000000000000000000000000000000DEM       DEM President                                           Cory Booker                           PRECINCT 306                                           01 
00050050025000000000000000000000000000000000000000000000000000000000000000000000000000000000000000000DEM       DEM President                                           Cory Booker                           PRECINCT 307                                           01 
00050050026000000000000000000000000000000000000000000000000000000000000000000000000000000000000000000DEM       DEM President                                           Cory Booker                           PRECINCT 308                                           01 
00050050027000000000000000000000000000000000000000000000000000000000000000000000000000000000000000000DEM       DEM President                                           Cory Booker                           PRECINCT 309                                           01 
00050050028000000000000000000000000000000000000000000000000000000000000000000000000000000000000000000DEM       DEM President                                           Cory Booker                           PRECINCT 401                                           01 
00050050029000001000000000001000000000000000000000000000000000000000000000000000000000000000000000000DEM       DEM President                                           Cory Booker                           PRECINCT 402                                           01 
00050050030000000000000000000000000000000000000000000000000000000000000000000000000000000000000000000DEM       DEM President                                           Cory Booker                           PRECINCT 403                                           01 
00050050031000001000001000000000000000000000000000000000000000000000000000000000000000000000000000000DEM       DEM President                                           Cory Booker                           PRECINCT 404                                           01 
00050050032000000000000000000000000000000000000000000000000000000000000000000000000000000000000000000DEM       DEM President                                           Cory Booker                           PRECINCT 405                                           01 
00050050033000000000000000000000000000000000000000000000000000000000000000000000000000000000000000000DEM       DEM President                                           Cory Booker                           PRECINCT 406                                           01 
00050050034000000000000000000000000000000000000000000000000000000000000000000000000000000000000000000DEM       DEM President                                           Cory Booker                           PRECINCT 407                                           01 
00050050035000000000000000000000000000000000000000000000000000000000000000000000000000000000000000000DEM       DEM President                                           Cory Booker                           PRECINCT 408                                           01 
00050050036000000000000000000000000000000000000000000000000000000000000000000000000000000000000000000DEM       DEM President                                           Cory Booker                           PRECINCT 409                                           01 
00050060001000028000004000014000010000000000000000000000000000000000000000000000000000000000000000000DEM       DEM President                                           Elizabeth Warren                      PRECINCT 101                                           01 
00050060002000042000002000020000020000000000000000000000000000000000000000000000000000000000000000000DEM       DEM President                                           Elizabeth Warren                      PRECINCT 102                                           01 
00050060003000000000000000000000000000000000000000000000000000000000000000000000000000000000000000000DEM       DEM President                                           Elizabeth Warren                      PRECINCT 103                                           01 
00050060004000006000002000002000002000000000000000000000000000000000000000000000000000000000000000000DEM       DEM President                                           Elizabeth Warren                      PRECINCT 104                                           01 
00050060005000033000000000016000017000000000000000000000000000000000000000000000000000000000000000000DEM       DEM President                                           Elizabeth Warren                      PRECINCT 105                                           01 
00050060006000020000000000007000013000000000000000000000000000000000000000000000000000000000000000000DEM       DEM President                                           Elizabeth Warren                      PRECINCT 106                                           01 
00050060007000003000000000001000002000000000000000000000000000000000000000000000000000000000000000000DEM       DEM President                                           Elizabeth Warren                      PRECINCT 107                                           01 
00050060008000009000002000003000004000000000000000000000000000000000000000000000000000000000000000000DEM       DEM President                                           Elizabeth Warren                      PRECINCT 108                                           01 
00050060009000027000002000014000011000000000000000000000000000000000000000000000000000000000000000000DEM       DEM President                                           Elizabeth Warren                      PRECINCT 201                                           01 
00050060010000017000000000005000012000000000000000000000000000000000000000000000000000000000000000000DEM       DEM President                                           Elizabeth Warren                      PRECINCT 202                                           01 
00050060011000005000001000003000001000000000000000000000000000000000000000000000000000000000000000000DEM       DEM President                                           Elizabeth Warren                      PRECINCT 203                                           01 
00050060012000010000002000005000003000000000000000000000000000000000000000000000000000000000000000000DEM       DEM President                                           Elizabeth Warren                      PRECINCT 204                                           01 
00050060013000022000003000008000011000000000000000000000000000000000000000000000000000000000000000000DEM       DEM President                                           Elizabeth Warren                      PRECINCT 205                                           01 
00050060014000013000000000007000006000000000000000000000000000000000000000000000000000000000000000000DEM       DEM President                                           Elizabeth Warren                      PRECINCT 206                                           01 
00050060015000005000000000001000004000000000000000000000000000000000000000000000000000000000000000000DEM       DEM President                                           Elizabeth Warren                      PRECINCT 207                                           01 
00050060016000006000001000001000004000000000000000000000000000000000000000000000000000000000000000000DEM       DEM President                                           Elizabeth Warren                      PRECINCT 208                                           01 
00050060017000005000000000002000003000000000000000000000000000000000000000000000000000000000000000000DEM       DEM President                                           Elizabeth Warren                      PRECINCT 209                                           01 
00050060018000005000000000000000005000000000000000000000000000000000000000000000000000000000000000000DEM       DEM President                                           Elizabeth Warren                      PRECINCT 210                                           01 
00050060019000013000002000007000004000000000000000000000000000000000000000000000000000000000000000000DEM       DEM President                                           Elizabeth Warren                      PRECINCT 301                                           01 
00050060020000062000002000028000032000000000000000000000000000000000000000000000000000000000000000000DEM       DEM President                                           Elizabeth Warren                      PRECINCT 302                                           01 
00050060021000010000000000002000008000000000000000000000000000000000000000000000000000000000000000000DEM       DEM President                                           Elizabeth Warren                      PRECINCT 303                                           01 
00050060022000027000002000013000012000000000000000000000000000000000000000000000000000000000000000000DEM       DEM President                                           Elizabeth Warren                      PRECINCT 304                                           01 
00050060023000004000000000004000000000000000000000000000000000000000000000000000000000000000000000000DEM       DEM President                                           Elizabeth Warren                      PRECINCT 305                                           01 
00050060024000012000001000005000006000000000000000000000000000000000000000000000000000000000000000000DEM       DEM President                                           Elizabeth Warren                      PRECINCT 306                                           01 
00050060025000006000001000001000004000000000000000000000000000000000000000000000000000000000000000000DEM       DEM President                                           Elizabeth Warren                      PRECINCT 307                                           01 
00050060026000003000000000003000000000000000000000000000000000000000000000000000000000000000000000000DEM       DEM President                                           Elizabeth Warren                      PRECINCT 308                                           01 
00050060027000004000000000002000002000000000000000000000000000000000000000000000000000000000000000000DEM       DEM President                                           Elizabeth Warren                      PRECINCT 309                                           01 
00050060028000016000002000008000006000000000000000000000000000000000000000000000000000000000000000000DEM       DEM President                                           Elizabeth Warren                      PRECINCT 401                                           01 
00050060029000017000000000009000008000000000000000000000000000000000000000000000000000000000000000000DEM       DEM President                                           Elizabeth Warren                      PRECINCT 402                                           01 
00050060030000015000004000004000007000000000000000000000000000000000000000000000000000000000000000000DEM       DEM President                                           Elizabeth Warren                      PRECINCT 403                                           01 
00050060031000013000002000006000005000000000000000000000000000000000000000000000000000000000000000000DEM       DEM President                                           Elizabeth Warren                      PRECINCT 404                                           01 
00050060032000001000000000001000000000000000000000000000000000000000000000000000000000000000000000000DEM       DEM President                                           Elizabeth Warren                      PRECINCT 405                                           01 
00050060033000009000001000002000006000000000000000000000000000000000000000000000000000000000000000000DEM       DEM President                                           Elizabeth Warren                      PRECINCT 406                                           01 
00050060034000001000001000000000000000000000000000000000000000000000000000000000000000000000000000000DEM       DEM President                                           Elizabeth Warren                      PRECINCT 407                                           01 
00050060035000015000004000002000009000000000000000000000000000000000000000000000000000000000000000000DEM       DEM President                                           Elizabeth Warren                      PRECINCT 408                                           01 
00050060036000030000002000018000010000000000000000000000000000000000000000000000000000000000000000000DEM       DEM President                                           Elizabeth Warren                      PRECINCT 409                                           01 
00050070001000002000000000002000000000000000000000000000000000000000000000000000000000000000000000000DEM       DEM President                                           Andrew Yang                           PRECINCT 101                                           01 
00050070002000000000000000000000000000000000000000000000000000000000000000000000000000000000000000000DEM       DEM President                                           Andrew Yang                           PRECINCT 102                                           01 
00050070003000000000000000000000000000000000000000000000000000000000000000000000000000000000000000000DEM       DEM President                                           Andrew Yang                           PRECINCT 103                                           01 
00050070004000000000000000000000000000000000000000000000000000000000000000000000000000000000000000000DEM       DEM President                                           Andrew Yang                           PRECINCT 104                                           01 
00050070005000000000000000000000000000000000000000000000000000000000000000000000000000000000000000000DEM       DEM President                                           Andrew Yang                           PRECINCT 105                                           01 
00050070006000001000000000000000001000000000000000000000000000000000000000000000000000000000000000000DEM       DEM President                                           Andrew Yang                           PRECINCT 106                                           01 
00050070007000000000000000000000000000000000000000000000000000000000000000000000000000000000000000000DEM       DEM President                                           Andrew Yang                           PRECINCT 107                                           01 
00050070008000000000000000000000000000000000000000000000000000000000000000000000000000000000000000000DEM       DEM President                                           Andrew Yang                           PRECINCT 108                                           01 
00050070009000001000000000001000000000000000000000000000000000000000000000000000000000000000000000000DEM       DEM President                                           Andrew Yang                           PRECINCT 201                                           01 
00050070010000000000000000000000000000000000000000000000000000000000000000000000000000000000000000000DEM       DEM President                                           Andrew Yang                           PRECINCT 202                                           01 
00050070011000000000000000000000000000000000000000000000000000000000000000000000000000000000000000000DEM       DEM President                                           Andrew Yang                           PRECINCT 203                                           01 
00050070012000001000000000000000001000000000000000000000000000000000000000000000000000000000000000000DEM       DEM President                                           Andrew Yang                           PRECINCT 204                                           01 
00050070013000000000000000000000000000000000000000000000000000000000000000000000000000000000000000000DEM       DEM President                                           Andrew Yang                           PRECINCT 205                                           01 
00050070014000000000000000000000000000000000000000000000000000000000000000000000000000000000000000000DEM       DEM President                                           Andrew Yang                           PRECINCT 206                                           01 
00050070015000000000000000000000000000000000000000000000000000000000000000000000000000000000000000000DEM       DEM President                                           Andrew Yang                           PRECINCT 207                                           01 
00050070016000001000000000000000001000000000000000000000000000000000000000000000000000000000000000000DEM       DEM President                                           Andrew Yang                           PRECINCT 208                                           01 
00050070017000001000000000001000000000000000000000000000000000000000000000000000000000000000000000000DEM       DEM President                                           Andrew Yang                           PRECINCT 209                                           01 
00050070018000001000000000000000001000000000000000000000000000000000000000000000000000000000000000000DEM       DEM President                                           Andrew Yang                           PRECINCT 210                                           01 
00050070019000001000000000000000001000000000000000000000000000000000000000000000000000000000000000000DEM       DEM President                                           Andrew Yang                           PRECINCT 301                                           01 
00050070020000001000000000001000000000000000000000000000000000000000000000000000000000000000000000000DEM       DEM President                                           Andrew Yang                           PRECINCT 302                                           01 
00050070021000000000000000000000000000000000000000000000000000000000000000000000000000000000000000000DEM       DEM President                                           Andrew Yang                           PRECINCT 303                                           01 
00050070022000001000000000001000000000000000000000000000000000000000000000000000000000000000000000000DEM       DEM President                                           Andrew Yang                           PRECINCT 304                                           01 
00050070023000000000000000000000000000000000000000000000000000000000000000000000000000000000000000000DEM       DEM President                                           Andrew Yang                           PRECINCT 305                                           01 
00050070024000000000000000000000000000000000000000000000000000000000000000000000000000000000000000000DEM       DEM President                                           Andrew Yang                           PRECINCT 306                                           01 
00050070025000000000000000000000000000000000000000000000000000000000000000000000000000000000000000000DEM       DEM President                                           Andrew Yang                           PRECINCT 307                                           01 
00050070026000000000000000000000000000000000000000000000000000000000000000000000000000000000000000000DEM       DEM President                                           Andrew Yang                           PRECINCT 308                                           01 
00050070027000000000000000000000000000000000000000000000000000000000000000000000000000000000000000000DEM       DEM President                                           Andrew Yang                           PRECINCT 309                                           01 
00050070028000000000000000000000000000000000000000000000000000000000000000000000000000000000000000000DEM       DEM President                                           Andrew Yang                           PRECINCT 401                                           01 
00050070029000000000000000000000000000000000000000000000000000000000000000000000000000000000000000000DEM       DEM President                                           Andrew Yang                           PRECINCT 402                                           01 
00050070030000000000000000000000000000000000000000000000000000000000000000000000000000000000000000000DEM       DEM President                                           Andrew Yang                           PRECINCT 403                                           01 
00050070031000001000000000000000001000000000000000000000000000000000000000000000000000000000000000000DEM       DEM President                                           Andrew Yang                           PRECINCT 404                                           01 
00050070032000000000000000000000000000000000000000000000000000000000000000000000000000000000000000000DEM       DEM President                                           Andrew Yang                           PRECINCT 405                                           01 
00050070033000000000000000000000000000000000000000000000000000000000000000000000000000000000000000000DEM       DEM President                                           Andrew Yang                           PRECINCT 406                                           01 
00050070034000000000000000000000000000000000000000000000000000000000000000000000000000000000000000000DEM       DEM President                                           Andrew Yang                           PRECINCT 407                                           01 
00050070035000000000000000000000000000000000000000000000000000000000000000000000000000000000000000000DEM       DEM President                                           Andrew Yang                           PRECINCT 408                                           01 
00050070036000002000000000002000000000000000000000000000000000000000000000000000000000000000000000000DEM       DEM President                                           Andrew Yang                           PRECINCT 409                                           01 
00050080001000000000000000000000000000000000000000000000000000000000000000000000000000000000000000000DEM       DEM President                                           Michael Bennet                        PRECINCT 101                                           01 
00050080002000000000000000000000000000000000000000000000000000000000000000000000000000000000000000000DEM       DEM President                                           Michael Bennet                        PRECINCT 102                                           01 
00050080003000000000000000000000000000000000000000000000000000000000000000000000000000000000000000000DEM       DEM President                                           Michael Bennet                        PRECINCT 103                                           01 
00050080004000000000000000000000000000000000000000000000000000000000000000000000000000000000000000000DEM       DEM President                                           Michael Bennet                        PRECINCT 104                                           01 
00050080005000001000000000000000001000000000000000000000000000000000000000000000000000000000000000000DEM       DEM President                                           Michael Bennet                        PRECINCT 105                                           01 
00050080006000000000000000000000000000000000000000000000000000000000000000000000000000000000000000000DEM       DEM President                                           Michael Bennet                        PRECINCT 106                                           01 
00050080007000000000000000000000000000000000000000000000000000000000000000000000000000000000000000000DEM       DEM President                                           Michael Bennet                        PRECINCT 107                                           01 
00050080008000000000000000000000000000000000000000000000000000000000000000000000000000000000000000000DEM       DEM President                                           Michael Bennet                        PRECINCT 108                                           01 
00050080009000000000000000000000000000000000000000000000000000000000000000000000000000000000000000000DEM       DEM President                                           Michael Bennet                        PRECINCT 201                                           01 
00050080010000001000000000000000001000000000000000000000000000000000000000000000000000000000000000000DEM       DEM President                                           Michael Bennet                        PRECINCT 202                                           01 
00050080011000001000000000000000001000000000000000000000000000000000000000000000000000000000000000000DEM       DEM President                                           Michael Bennet                        PRECINCT 203                                           01 
00050080012000000000000000000000000000000000000000000000000000000000000000000000000000000000000000000DEM       DEM President                                           Michael Bennet                        PRECINCT 204                                           01 
00050080013000000000000000000000000000000000000000000000000000000000000000000000000000000000000000000DEM       DEM President                                           Michael Bennet                        PRECINCT 205                                           01 
00050080014000001000000000000000001000000000000000000000000000000000000000000000000000000000000000000DEM       DEM President                                           Michael Bennet                        PRECINCT 206                                           01 
00050080015000001000000000000000001000000000000000000000000000000000000000000000000000000000000000000DEM       DEM President                                           Michael Bennet                        PRECINCT 207                                           01 
00050080016000000000000000000000000000000000000000000000000000000000000000000000000000000000000000000DEM       DEM President                                           Michael Bennet                        PRECINCT 208                                           01 
00050080017000000000000000000000000000000000000000000000000000000000000000000000000000000000000000000DEM       DEM President                                           Michael Bennet                        PRECINCT 209                                           01 
00050080018000000000000000000000000000000000000000000000000000000000000000000000000000000000000000000DEM       DEM President                                           Michael Bennet                        PRECINCT 210                                           01 
00050080019000000000000000000000000000000000000000000000000000000000000000000000000000000000000000000DEM       DEM President                                           Michael Bennet                        PRECINCT 301                                           01 
00050080020000000000000000000000000000000000000000000000000000000000000000000000000000000000000000000DEM       DEM President                                           Michael Bennet                        PRECINCT 302                                           01 
00050080021000000000000000000000000000000000000000000000000000000000000000000000000000000000000000000DEM       DEM President                                           Michael Bennet                        PRECINCT 303                                           01 
00050080022000000000000000000000000000000000000000000000000000000000000000000000000000000000000000000DEM       DEM President                                           Michael Bennet                        PRECINCT 304                                           01 
00050080023000000000000000000000000000000000000000000000000000000000000000000000000000000000000000000DEM       DEM President                                           Michael Bennet                        PRECINCT 305                                           01 
00050080024000000000000000000000000000000000000000000000000000000000000000000000000000000000000000000DEM       DEM President                                           Michael Bennet                        PRECINCT 306                                           01 
00050080025000000000000000000000000000000000000000000000000000000000000000000000000000000000000000000DEM       DEM President                                           Michael Bennet                        PRECINCT 307                                           01 
00050080026000000000000000000000000000000000000000000000000000000000000000000000000000000000000000000DEM       DEM President                                           Michael Bennet                        PRECINCT 308                                           01 
00050080027000000000000000000000000000000000000000000000000000000000000000000000000000000000000000000DEM       DEM President                                           Michael Bennet                        PRECINCT 309                                           01 
00050080028000000000000000000000000000000000000000000000000000000000000000000000000000000000000000000DEM       DEM President                                           Michael Bennet                        PRECINCT 401                                           01 
00050080029000000000000000000000000000000000000000000000000000000000000000000000000000000000000000000DEM       DEM President                                           Michael Bennet                        PRECINCT 402                                           01 
00050080030000000000000000000000000000000000000000000000000000000000000000000000000000000000000000000DEM       DEM President                                           Michael Bennet                        PRECINCT 403                                           01 
00050080031000000000000000000000000000000000000000000000000000000000000000000000000000000000000000000DEM       DEM President                                           Michael Bennet                        PRECINCT 404                                           01 
00050080032000000000000000000000000000000000000000000000000000000000000000000000000000000000000000000DEM       DEM President                                           Michael Bennet                        PRECINCT 405                                           01 
00050080033000000000000000000000000000000000000000000000000000000000000000000000000000000000000000000DEM       DEM President                                           Michael Bennet                        PRECINCT 406                                           01 
00050080034000000000000000000000000000000000000000000000000000000000000000000000000000000000000000000DEM       DEM President                                           Michael Bennet                        PRECINCT 407                                           01 
00050080035000000000000000000000000000000000000000000000000000000000000000000000000000000000000000000DEM       DEM President                                           Michael Bennet                        PRECINCT 408                                           01 
00050080036000000000000000000000000000000000000000000000000000000000000000000000000000000000000000000DEM       DEM President                                           Michael Bennet                        PRECINCT 409                                           01 
00050090001000000000000000000000000000000000000000000000000000000000000000000000000000000000000000000DEM       DEM President                                           Deval Patrick                         PRECINCT 101                                           01 
00050090002000000000000000000000000000000000000000000000000000000000000000000000000000000000000000000DEM       DEM President                                           Deval Patrick                         PRECINCT 102                                           01 
00050090003000000000000000000000000000000000000000000000000000000000000000000000000000000000000000000DEM       DEM President                                           Deval Patrick                         PRECINCT 103                                           01 
00050090004000000000000000000000000000000000000000000000000000000000000000000000000000000000000000000DEM       DEM President                                           Deval Patrick                         PRECINCT 104                                           01 
00050090005000000000000000000000000000000000000000000000000000000000000000000000000000000000000000000DEM       DEM President                                           Deval Patrick                         PRECINCT 105                                           01 
00050090006000000000000000000000000000000000000000000000000000000000000000000000000000000000000000000DEM       DEM President                                           Deval Patrick                         PRECINCT 106                                           01 
00050090007000000000000000000000000000000000000000000000000000000000000000000000000000000000000000000DEM       DEM President                                           Deval Patrick                         PRECINCT 107                                           01 
00050090008000000000000000000000000000000000000000000000000000000000000000000000000000000000000000000DEM       DEM President                                           Deval Patrick                         PRECINCT 108                                           01 
00050090009000000000000000000000000000000000000000000000000000000000000000000000000000000000000000000DEM       DEM President                                           Deval Patrick                         PRECINCT 201                                           01 
00050090010000000000000000000000000000000000000000000000000000000000000000000000000000000000000000000DEM       DEM President                                           Deval Patrick                         PRECINCT 202                                           01 
00050090011000000000000000000000000000000000000000000000000000000000000000000000000000000000000000000DEM       DEM President                                           Deval Patrick                         PRECINCT 203                                           01 
00050090012000000000000000000000000000000000000000000000000000000000000000000000000000000000000000000DEM       DEM President                                           Deval Patrick                         PRECINCT 204                                           01 
00050090013000000000000000000000000000000000000000000000000000000000000000000000000000000000000000000DEM       DEM President                                           Deval Patrick                         PRECINCT 205                                           01 
00050090014000000000000000000000000000000000000000000000000000000000000000000000000000000000000000000DEM       DEM President                                           Deval Patrick                         PRECINCT 206                                           01 
00050090015000000000000000000000000000000000000000000000000000000000000000000000000000000000000000000DEM       DEM President                                           Deval Patrick                         PRECINCT 207                                           01 
00050090016000001000000000001000000000000000000000000000000000000000000000000000000000000000000000000DEM       DEM President                                           Deval Patrick                         PRECINCT 208                                           01 
00050090017000000000000000000000000000000000000000000000000000000000000000000000000000000000000000000DEM       DEM President                                           Deval Patrick                         PRECINCT 209                                           01 
