00010010001003995000000000000000000000000000000000000000000000000000000000000000000000000000000000000          REGISTERED VOTERS - TOTAL                               REGISTERED VOTERS - TOTAL             PRECINCT 101                                           00 
00010010002002588000000000000000000000000000000000000000000000000000000000000000000000000000000000000          REGISTERED VOTERS - TOTAL                               REGISTERED VOTERS - TOTAL             PRECINCT 102                                           00 
00010010003000566000000000000000000000000000000000000000000000000000000000000000000000000000000000000          REGISTERED VOTERS - TOTAL                               REGISTERED VOTERS - TOTAL             PRECINCT 103                                           00 
00010010004000948000000000000000000000000000000000000000000000000000000000000000000000000000000000000          REGISTERED VOTERS - TOTAL                               REGISTERED VOTERS - TOTAL             PRECINCT 104                                           00 
00010010005005634000000000000000000000000000000000000000000000000000000000000000000000000000000000000          REGISTERED VOTERS - TOTAL                               REGISTERED VOTERS - TOTAL             PRECINCT 105                                           00 
00010010006002714000000000000000000000000000000000000000000000000000000000000000000000000000000000000          REGISTERED VOTERS - TOTAL                               REGISTERED VOTERS - TOTAL             PRECINCT 106                                           00 
00010010007001920000000000000000000000000000000000000000000000000000000000000000000000000000000000000          REGISTERED VOTERS - TOTAL                               REGISTERED VOTERS - TOTAL             PRECINCT 107                                           00 
00010010008001630000000000000000000000000000000000000000000000000000000000000000000000000000000000000          REGISTERED VOTERS - TOTAL                               REGISTERED VOTERS - TOTAL             PRECINCT 108                                           00 
00010010009003436000000000000000000000000000000000000000000000000000000000000000000000000000000000000          REGISTERED VOTERS - TOTAL                               REGISTERED VOTERS - TOTAL             PRECINCT 201                                           00 
00010010010003407000000000000000000000000000000000000000000000000000000000000000000000000000000000000          REGISTERED VOTERS - TOTAL                               REGISTERED VOTERS - TOTAL             PRECINCT 202                                           00 
00010010011001242000000000000000000000000000000000000000000000000000000000000000000000000000000000000          REGISTERED VOTERS - TOTAL                               REGISTERED VOTERS - TOTAL             PRECINCT 203                                           00 
00010010012001003000000000000000000000000000000000000000000000000000000000000000000000000000000000000          REGISTERED VOTERS - TOTAL                               REGISTERED VOTERS - TOTAL             PRECINCT 204                                           00 
00010010013003918000000000000000000000000000000000000000000000000000000000000000000000000000000000000          REGISTERED VOTERS - TOTAL                               REGISTERED VOTERS - TOTAL             PRECINCT 205                                           00 
00010010014001328000000000000000000000000000000000000000000000000000000000000000000000000000000000000          REGISTERED VOTERS - TOTAL                               REGISTERED VOTERS - TOTAL             PRECINCT 206                                           00 
00010010015001029000000000000000000000000000000000000000000000000000000000000000000000000000000000000          REGISTERED VOTERS - TOTAL                               REGISTERED VOTERS - TOTAL             PRECINCT 207                                           00 
00010010016001498000000000000000000000000000000000000000000000000000000000000000000000000000000000000          REGISTERED VOTERS - TOTAL                               REGISTERED VOTERS - TOTAL             PRECINCT 208                                           00 
00010010017001260000000000000000000000000000000000000000000000000000000000000000000000000000000000000          REGISTERED VOTERS - TOTAL                               REGISTERED VOTERS - TOTAL             PRECINCT 209                                           00 
00010010018002021000000000000000000000000000000000000000000000000000000000000000000000000000000000000          REGISTERED VOTERS - TOTAL                               REGISTERED VOTERS - TOTAL             PRECINCT 210                                           00 
00010010019002028000000000000000000000000000000000000000000000000000000000000000000000000000000000000          REGISTERED VOTERS - TOTAL                               REGISTERED VOTERS - TOTAL             PRECINCT 301                                           00 
00010010020005895000000000000000000000000000000000000000000000000000000000000000000000000000000000000          REGISTERED VOTERS - TOTAL                               REGISTERED VOTERS - TOTAL             PRECINCT 302                                           00 
00010010021001016000000000000000000000000000000000000000000000000000000000000000000000000000000000000          REGISTERED VOTERS - TOTAL                               REGISTERED VOTERS - TOTAL             PRECINCT 303                                           00 
00010010022002924000000000000000000000000000000000000000000000000000000000000000000000000000000000000          REGISTERED VOTERS - TOTAL                               REGISTERED VOTERS - TOTAL             PRECINCT 304                                           00 
00010010023001477000000000000000000000000000000000000000000000000000000000000000000000000000000000000          REGISTERED VOTERS - TOTAL                               REGISTERED VOTERS - TOTAL             PRECINCT 305                                           00 
00010010024003811000000000000000000000000000000000000000000000000000000000000000000000000000000000000          REGISTERED VOTERS - TOTAL                               REGISTERED VOTERS - TOTAL             PRECINCT 306                                           00 
00010010025001985000000000000000000000000000000000000000000000000000000000000000000000000000000000000          REGISTERED VOTERS - TOTAL                               REGISTERED VOTERS - TOTAL             PRECINCT 307                                           00 
00010010026001228000000000000000000000000000000000000000000000000000000000000000000000000000000000000          REGISTERED VOTERS - TOTAL                               REGISTERED VOTERS - TOTAL             PRECINCT 308                                           00 
00010010027000876000000000000000000000000000000000000000000000000000000000000000000000000000000000000          REGISTERED VOTERS - TOTAL                               REGISTERED VOTERS - TOTAL             PRECINCT 309                                           00 
00010010028001634000000000000000000000000000000000000000000000000000000000000000000000000000000000000          REGISTERED VOTERS - TOTAL                               REGISTERED VOTERS - TOTAL             PRECINCT 401                                           00 
00010010029002628000000000000000000000000000000000000000000000000000000000000000000000000000000000000          REGISTERED VOTERS - TOTAL                               REGISTERED VOTERS - TOTAL             PRECINCT 402                                           00 
00010010030002886000000000000000000000000000000000000000000000000000000000000000000000000000000000000          REGISTERED VOTERS - TOTAL                               REGISTERED VOTERS - TOTAL             PRECINCT 403                                           00 
00010010031003567000000000000000000000000000000000000000000000000000000000000000000000000000000000000          REGISTERED VOTERS - TOTAL                               REGISTERED VOTERS - TOTAL             PRECINCT 404                                           00 
00010010032000555000000000000000000000000000000000000000000000000000000000000000000000000000000000000          REGISTERED VOTERS - TOTAL                               REGISTERED VOTERS - TOTAL             PRECINCT 405                                           00 
00010010033002736000000000000000000000000000000000000000000000000000000000000000000000000000000000000          REGISTERED VOTERS - TOTAL                               REGISTERED VOTERS - TOTAL             PRECINCT 406                                           00 
00010010034000254000000000000000000000000000000000000000000000000000000000000000000000000000000000000          REGISTERED VOTERS - TOTAL                               REGISTERED VOTERS - TOTAL             PRECINCT 407                                           00 
00010010035001675000000000000000000000000000000000000000000000000000000000000000000000000000000000000          REGISTERED VOTERS - TOTAL                               REGISTERED VOTERS - TOTAL             PRECINCT 408                                           00 
00010010036004248000000000000000000000000000000000000000000000000000000000000000000000000000000000000          REGISTERED VOTERS - TOTAL                               REGISTERED VOTERS - TOTAL             PRECINCT 409                                           00 
00040010001000763000073000290000400000000000000000000000000000000000000000000000000000000000000000000          BALLOTS CAST - TOTAL                                    BALLOTS CAST - TOTAL                  PRECINCT 101                                           00 
00040010002000455000043000148000264000000000000000000000000000000000000000000000000000000000000000000          BALLOTS CAST - TOTAL                                    BALLOTS CAST - TOTAL                  PRECINCT 102                                           00 
00040010003000167000013000075000079000000000000000000000000000000000000000000000000000000000000000000          BALLOTS CAST - TOTAL                                    BALLOTS CAST - TOTAL                  PRECINCT 103                                           00 
00040010004000285000014000098000173000000000000000000000000000000000000000000000000000000000000000000          BALLOTS CAST - TOTAL                                    BALLOTS CAST - TOTAL                  PRECINCT 104                                           00 
00040010005001376000060000558000758000000000000000000000000000000000000000000000000000000000000000000          BALLOTS CAST - TOTAL                                    BALLOTS CAST - TOTAL                  PRECINCT 105                                           00 
00040010006000683000035000199000449000000000000000000000000000000000000000000000000000000000000000000          BALLOTS CAST - TOTAL                                    BALLOTS CAST - TOTAL                  PRECINCT 106                                           00 
00040010007000556000026000141000389000000000000000000000000000000000000000000000000000000000000000000          BALLOTS CAST - TOTAL                                    BALLOTS CAST - TOTAL                  PRECINCT 107                                           00 
00040010008000481000035000208000238000000000000000000000000000000000000000000000000000000000000000000          BALLOTS CAST - TOTAL                                    BALLOTS CAST - TOTAL                  PRECINCT 108                                           00 
00040010009000764000046000320000398000000000000000000000000000000000000000000000000000000000000000000          BALLOTS CAST - TOTAL                                    BALLOTS CAST - TOTAL                  PRECINCT 201                                           00 
00040010010000722000020000251000451000000000000000000000000000000000000000000000000000000000000000000          BALLOTS CAST - TOTAL                                    BALLOTS CAST - TOTAL                  PRECINCT 202                                           00 
00040010011000158000013000069000076000000000000000000000000000000000000000000000000000000000000000000          BALLOTS CAST - TOTAL                                    BALLOTS CAST - TOTAL                  PRECINCT 203                                           00 
00040010012000289000008000142000139000000000000000000000000000000000000000000000000000000000000000000          BALLOTS CAST - TOTAL                                    BALLOTS CAST - TOTAL                  PRECINCT 204                                           00 
00040010013000976000031000459000486000000000000000000000000000000000000000000000000000000000000000000          BALLOTS CAST - TOTAL                                    BALLOTS CAST - TOTAL                  PRECINCT 205                                           00 
00040010014000352000008000157000187000000000000000000000000000000000000000000000000000000000000000000          BALLOTS CAST - TOTAL                                    BALLOTS CAST - TOTAL                  PRECINCT 206                                           00 
00040010015000283000008000103000172000000000000000000000000000000000000000000000000000000000000000000          BALLOTS CAST - TOTAL                                    BALLOTS CAST - TOTAL                  PRECINCT 207                                           00 
00040010016000338000007000035000296000000000000000000000000000000000000000000000000000000000000000000          BALLOTS CAST - TOTAL                                    BALLOTS CAST - TOTAL                  PRECINCT 208                                           00 
00040010017000338000010000124000204000000000000000000000000000000000000000000000000000000000000000000          BALLOTS CAST - TOTAL                                    BALLOTS CAST - TOTAL                  PRECINCT 209                                           00 
00040010018000467000011000094000362000000000000000000000000000000000000000000000000000000000000000000          BALLOTS CAST - TOTAL                                    BALLOTS CAST - TOTAL                  PRECINCT 210                                           00 
00040010019000457000074000161000222000000000000000000000000000000000000000000000000000000000000000000          BALLOTS CAST - TOTAL                                    BALLOTS CAST - TOTAL                  PRECINCT 301                                           00 
00040010020001291000117000533000641000000000000000000000000000000000000000000000000000000000000000000          BALLOTS CAST - TOTAL                                    BALLOTS CAST - TOTAL                  PRECINCT 302                                           00 
00040010021000220000014000092000114000000000000000000000000000000000000000000000000000000000000000000          BALLOTS CAST - TOTAL                                    BALLOTS CAST - TOTAL                  PRECINCT 303                                           00 
00040010022000778000066000313000399000000000000000000000000000000000000000000000000000000000000000000          BALLOTS CAST - TOTAL                                    BALLOTS CAST - TOTAL                  PRECINCT 304                                           00 
00040010023000444000012000179000253000000000000000000000000000000000000000000000000000000000000000000          BALLOTS CAST - TOTAL                                    BALLOTS CAST - TOTAL                  PRECINCT 305                                           00 
00040010024001092000051000568000473000000000000000000000000000000000000000000000000000000000000000000          BALLOTS CAST - TOTAL                                    BALLOTS CAST - TOTAL                  PRECINCT 306                                           00 
00040010025000608000033000178000397000000000000000000000000000000000000000000000000000000000000000000          BALLOTS CAST - TOTAL                                    BALLOTS CAST - TOTAL                  PRECINCT 307                                           00 
00040010026000309000017000061000231000000000000000000000000000000000000000000000000000000000000000000          BALLOTS CAST - TOTAL                                    BALLOTS CAST - TOTAL                  PRECINCT 308                                           00 
00040010027000220000009000057000154000000000000000000000000000000000000000000000000000000000000000000          BALLOTS CAST - TOTAL                                    BALLOTS CAST - TOTAL                  PRECINCT 309                                           00 
00040010028000373000023000152000198000000000000000000000000000000000000000000000000000000000000000000          BALLOTS CAST - TOTAL                                    BALLOTS CAST - TOTAL                  PRECINCT 401                                           00 
00040010029000572000024000263000285000000000000000000000000000000000000000000000000000000000000000000          BALLOTS CAST - TOTAL                                    BALLOTS CAST - TOTAL                  PRECINCT 402                                           00 
00040010030000780000032000316000432000000000000000000000000000000000000000000000000000000000000000000          BALLOTS CAST - TOTAL                                    BALLOTS CAST - TOTAL                  PRECINCT 403                                           00 
00040010031000960000020000404000536000000000000000000000000000000000000000000000000000000000000000000          BALLOTS CAST - TOTAL                                    BALLOTS CAST - TOTAL                  PRECINCT 404                                           00 
00040010032000098000002000046000050000000000000000000000000000000000000000000000000000000000000000000          BALLOTS CAST - TOTAL                                    BALLOTS CAST - TOTAL                  PRECINCT 405                                           00 
00040010033000776000021000312000443000000000000000000000000000000000000000000000000000000000000000000          BALLOTS CAST - TOTAL                                    BALLOTS CAST - TOTAL                  PRECINCT 406                                           00 
00040010034000030000004000009000017000000000000000000000000000000000000000000000000000000000000000000          BALLOTS CAST - TOTAL                                    BALLOTS CAST - TOTAL                  PRECINCT 407                                           00 
00040010035000420000021000157000242000000000000000000000000000000000000000000000000000000000000000000          BALLOTS CAST - TOTAL                                    BALLOTS CAST - TOTAL                  PRECINCT 408                                           00 
00040010036001202000037000533000632000000000000000000000000000000000000000000000000000000000000000000          BALLOTS CAST - TOTAL                                    BALLOTS CAST - TOTAL                  PRECINCT 409                                           00 
00050010001000003000001000000000002000000000000000000000000000000000000000000000000000000000000000000REP       REP President                                           Matthew John Matern                   PRECINCT 101                                           01 
00050010002000000000000000000000000000000000000000000000000000000000000000000000000000000000000000000REP       REP President                                           Matthew John Matern                   PRECINCT 102                                           01 
00050010003000000000000000000000000000000000000000000000000000000000000000000000000000000000000000000REP       REP President                                           Matthew John Matern                   PRECINCT 103                                           01 
00050010004000002000000000001000001000000000000000000000000000000000000000000000000000000000000000000REP       REP President                                           Matthew John Matern                   PRECINCT 104                                           01 
00050010005000000000000000000000000000000000000000000000000000000000000000000000000000000000000000000REP       REP President                                           Matthew John Matern                   PRECINCT 105                                           01 
00050010006000001000000000000000001000000000000000000000000000000000000000000000000000000000000000000REP       REP President                                           Matthew John Matern                   PRECINCT 106                                           01 
00050010007000000000000000000000000000000000000000000000000000000000000000000000000000000000000000000REP       REP President                                           Matthew John Matern                   PRECINCT 107                                           01 
00050010008000002000000000001000001000000000000000000000000000000000000000000000000000000000000000000REP       REP President                                           Matthew John Matern                   PRECINCT 108                                           01 
00050010009000005000000000001000004000000000000000000000000000000000000000000000000000000000000000000REP       REP President                                           Matthew John Matern                   PRECINCT 201                                           01 
00050010010000001000000000000000001000000000000000000000000000000000000000000000000000000000000000000REP       REP President                                           Matthew John Matern                   PRECINCT 202                                           01 
00050010011000000000000000000000000000000000000000000000000000000000000000000000000000000000000000000REP       REP President                                           Matthew John Matern                   PRECINCT 203                                           01 
00050010012000000000000000000000000000000000000000000000000000000000000000000000000000000000000000000REP       REP President                                           Matthew John Matern                   PRECINCT 204                                           01 
00050010013000000000000000000000000000000000000000000000000000000000000000000000000000000000000000000REP       REP President                                           Matthew John Matern                   PRECINCT 205                                           01 
00050010014000000000000000000000000000000000000000000000000000000000000000000000000000000000000000000REP       REP President                                           Matthew John Matern                   PRECINCT 206                                           01 
00050010015000000000000000000000000000000000000000000000000000000000000000000000000000000000000000000REP       REP President                                           Matthew John Matern                   PRECINCT 207                                           01 
00050010016000000000000000000000000000000000000000000000000000000000000000000000000000000000000000000REP       REP President                                           Matthew John Matern                   PRECINCT 208                                           01 
00050010017000001000000000000000001000000000000000000000000000000000000000000000000000000000000000000REP       REP President                                           Matthew John Matern                   PRECINCT 209                                           01 
00050010018000001000000000000000001000000000000000000000000000000000000000000000000000000000000000000REP       REP President                                           Matthew John Matern                   PRECINCT 210                                           01 
00050010019000001000000000000000001000000000000000000000000000000000000000000000000000000000000000000REP       REP President                                           Matthew John Matern                   PRECINCT 301                                           01 
00050010020000000000000000000000000000000000000000000000000000000000000000000000000000000000000000000REP       REP President                                           Matthew John Matern                   PRECINCT 302                                           01 
00050010021000000000000000000000000000000000000000000000000000000000000000000000000000000000000000000REP       REP President                                           Matthew John Matern                   PRECINCT 303                                           01 
00050010022000000000000000000000000000000000000000000000000000000000000000000000000000000000000000000REP       REP President                                           Matthew John Matern                   PRECINCT 304                                           01 
00050010023000001000000000001000000000000000000000000000000000000000000000000000000000000000000000000REP       REP President                                           Matthew John Matern                   PRECINCT 305                                           01 
00050010024000001000000000000000001000000000000000000000000000000000000000000000000000000000000000000REP       REP President                                           Matthew John Matern                   PRECINCT 306                                           01 
00050010025000000000000000000000000000000000000000000000000000000000000000000000000000000000000000000REP       REP President                                           Matthew John Matern                   PRECINCT 307                                           01 
00050010026000000000000000000000000000000000000000000000000000000000000000000000000000000000000000000REP       REP President                                           Matthew John Matern                   PRECINCT 308                                           01 
00050010027000000000000000000000000000000000000000000000000000000000000000000000000000000000000000000REP       REP President                                           Matthew John Matern                   PRECINCT 309                                           01 
00050010028000000000000000000000000000000000000000000000000000000000000000000000000000000000000000000REP       REP President                                           Matthew John Matern                   PRECINCT 401                                           01 
00050010029000001000000000001000000000000000000000000000000000000000000000000000000000000000000000000REP       REP President                                           Matthew John Matern                   PRECINCT 402                                           01 
00050010030000000000000000000000000000000000000000000000000000000000000000000000000000000000000000000REP       REP President                                           Matthew John Matern                   PRECINCT 403                                           01 
00050010031000002000000000002000000000000000000000000000000000000000000000000000000000000000000000000REP       REP President                                           Matthew John Matern                   PRECINCT 404                                           01 
00050010032000000000000000000000000000000000000000000000000000000000000000000000000000000000000000000REP       REP President                                           Matthew John Matern                   PRECINCT 405                                           01 
00050010033000001000000000001000000000000000000000000000000000000000000000000000000000000000000000000REP       REP President                                           Matthew John Matern                   PRECINCT 406                                           01 
00050010034000000000000000000000000000000000000000000000000000000000000000000000000000000000000000000REP       REP President                                           Matthew John Matern                   PRECINCT 407                                           01 
00050010035000001000000000000000001000000000000000000000000000000000000000000000000000000000000000000REP       REP President                                           Matthew John Matern                   PRECINCT 408                                           01 
00050010036000002000000000001000001000000000000000000000000000000000000000000000000000000000000000000REP       REP President                                           Matthew John Matern                   PRECINCT 409                                           01 
00050020001000000000000000000000000000000000000000000000000000000000000000000000000000000000000000000REP       REP President                                           Zoltan G. Istvan                      PRECINCT 101                                           01 
00050020002000000000000000000000000000000000000000000000000000000000000000000000000000000000000000000REP       REP President                                           Zoltan G. Istvan                      PRECINCT 102                                           01 
00050020003000000000000000000000000000000000000000000000000000000000000000000000000000000000000000000REP       REP President                                           Zoltan G. Istvan                      PRECINCT 103                                           01 
00050020004000000000000000000000000000000000000000000000000000000000000000000000000000000000000000000REP       REP President                                           Zoltan G. Istvan                      PRECINCT 104                                           01 
00050020005000000000000000000000000000000000000000000000000000000000000000000000000000000000000000000REP       REP President                                           Zoltan G. Istvan                      PRECINCT 105                                           01 
00050020006000001000000000000000001000000000000000000000000000000000000000000000000000000000000000000REP       REP President                                           Zoltan G. Istvan                      PRECINCT 106                                           01 
00050020007000000000000000000000000000000000000000000000000000000000000000000000000000000000000000000REP       REP President                                           Zoltan G. Istvan                      PRECINCT 107                                           01 
00050020008000000000000000000000000000000000000000000000000000000000000000000000000000000000000000000REP       REP President                                           Zoltan G. Istvan                      PRECINCT 108                                           01 
00050020009000001000000000000000001000000000000000000000000000000000000000000000000000000000000000000REP       REP President                                           Zoltan G. Istvan                      PRECINCT 201                                           01 
00050020010000000000000000000000000000000000000000000000000000000000000000000000000000000000000000000REP       REP President                                           Zoltan G. Istvan                      PRECINCT 202                                           01 
00050020011000000000000000000000000000000000000000000000000000000000000000000000000000000000000000000REP       REP President                                           Zoltan G. Istvan                      PRECINCT 203                                           01 
00050020012000000000000000000000000000000000000000000000000000000000000000000000000000000000000000000REP       REP President                                           Zoltan G. Istvan                      PRECINCT 204                                           01 
00050020013000000000000000000000000000000000000000000000000000000000000000000000000000000000000000000REP       REP President                                           Zoltan G. Istvan                      PRECINCT 205                                           01 
00050020014000000000000000000000000000000000000000000000000000000000000000000000000000000000000000000REP       REP President                                           Zoltan G. Istvan                      PRECINCT 206                                           01 
00050020015000000000000000000000000000000000000000000000000000000000000000000000000000000000000000000REP       REP President                                           Zoltan G. Istvan                      PRECINCT 207                                           01 
00050020016000000000000000000000000000000000000000000000000000000000000000000000000000000000000000000REP       REP President                                           Zoltan G. Istvan                      PRECINCT 208                                           01 
00050020017000000000000000000000000000000000000000000000000000000000000000000000000000000000000000000REP       REP President                                           Zoltan G. Istvan                      PRECINCT 209                                           01 
00050020018000000000000000000000000000000000000000000000000000000000000000000000000000000000000000000REP       REP President                                           Zoltan G. Istvan                      PRECINCT 210                                           01 
00050020019000000000000000000000000000000000000000000000000000000000000000000000000000000000000000000REP       REP President                                           Zoltan G. Istvan                      PRECINCT 301                                           01 
00050020020000000000000000000000000000000000000000000000000000000000000000000000000000000000000000000REP       REP President                                           Zoltan G. Istvan                      PRECINCT 302                                           01 
00050020021000000000000000000000000000000000000000000000000000000000000000000000000000000000000000000REP       REP President                                           Zoltan G. Istvan                      PRECINCT 303                                           01 
00050020022000000000000000000000000000000000000000000000000000000000000000000000000000000000000000000REP       REP President                                           Zoltan G. Istvan                      PRECINCT 304                                           01 
00050020023000000000000000000000000000000000000000000000000000000000000000000000000000000000000000000REP       REP President                                           Zoltan G. Istvan                      PRECINCT 305                                           01 
00050020024000000000000000000000000000000000000000000000000000000000000000000000000000000000000000000REP       REP President                                           Zoltan G. Istvan                      PRECINCT 306                                           01 
00050020025000000000000000000000000000000000000000000000000000000000000000000000000000000000000000000REP       REP President                                           Zoltan G. Istvan                      PRECINCT 307                                           01 
00050020026000000000000000000000000000000000000000000000000000000000000000000000000000000000000000000REP       REP President                                           Zoltan G. Istvan                      PRECINCT 308                                           01 
00050020027000000000000000000000000000000000000000000000000000000000000000000000000000000000000000000REP       REP President                                           Zoltan G. Istvan                      PRECINCT 309                                           01 
00050020028000000000000000000000000000000000000000000000000000000000000000000000000000000000000000000REP       REP President                                           Zoltan G. Istvan                      PRECINCT 401                                           01 
00050020029000000000000000000000000000000000000000000000000000000000000000000000000000000000000000000REP       REP President                                           Zoltan G. Istvan                      PRECINCT 402                                           01 
00050020030000000000000000000000000000000000000000000000000000000000000000000000000000000000000000000REP       REP President                                           Zoltan G. Istvan                      PRECINCT 403                                           01 
00050020031000002000000000002000000000000000000000000000000000000000000000000000000000000000000000000REP       REP President                                           Zoltan G. Istvan                      PRECINCT 404                                           01 
00050020032000000000000000000000000000000000000000000000000000000000000000000000000000000000000000000REP       REP President                                           Zoltan G. Istvan                      PRECINCT 405                                           01 
00050020033000000000000000000000000000000000000000000000000000000000000000000000000000000000000000000REP       REP President                                           Zoltan G. Istvan                      PRECINCT 406                                           01 
00050020034000000000000000000000000000000000000000000000000000000000000000000000000000000000000000000REP       REP President                                           Zoltan G. Istvan                      PRECINCT 407                                           01 
00050020035000000000000000000000000000000000000000000000000000000000000000000000000000000000000000000REP       REP President                                           Zoltan G. Istvan                      PRECINCT 408                                           01 
00050020036000000000000000000000000000000000000000000000000000000000000000000000000000000000000000000REP       REP President                                           Zoltan G. Istvan                      PRECINCT 409                                           01 
00050030001000376000028000143000205000000000000000000000000000000000000000000000000000000000000000000REP       REP President                                           Donald J. Trump                       PRECINCT 101                                           01 
00050030002000120000007000049000064000000000000000000000000000000000000000000000000000000000000000000REP       REP President                                           Donald J. Trump                       PRECINCT 102                                           01 
00050030003000129000011000063000055000000000000000000000000000000000000000000000000000000000000000000REP       REP President                                           Donald J. Trump                       PRECINCT 103                                           01 
00050030004000213000006000063000144000000000000000000000000000000000000000000000000000000000000000000REP       REP President                                           Donald J. Trump                       PRECINCT 104                                           01 
00050030005000938000034000404000500000000000000000000000000000000000000000000000000000000000000000000REP       REP President                                           Donald J. Trump                       PRECINCT 105                                           01 
00050030006000495000025000151000319000000000000000000000000000000000000000000000000000000000000000000REP       REP President                                           Donald J. Trump                       PRECINCT 106                                           01 
00050030007000453000021000123000309000000000000000000000000000000000000000000000000000000000000000000REP       REP President                                           Donald J. Trump                       PRECINCT 107                                           01 
00050030008000367000027000161000179000000000000000000000000000000000000000000000000000000000000000000REP       REP President                                           Donald J. Trump                       PRECINCT 108                                           01 
00050030009000420000013000186000221000000000000000000000000000000000000000000000000000000000000000000REP       REP President                                           Donald J. Trump                       PRECINCT 201                                           01 
00050030010000443000004000170000269000000000000000000000000000000000000000000000000000000000000000000REP       REP President                                           Donald J. Trump                       PRECINCT 202                                           01 
00050030011000072000001000034000037000000000000000000000000000000000000000000000000000000000000000000REP       REP President                                           Donald J. Trump                       PRECINCT 203                                           01 
00050030012000212000004000106000102000000000000000000000000000000000000000000000000000000000000000000REP       REP President                                           Donald J. Trump                       PRECINCT 204                                           01 
00050030013000731000012000345000374000000000000000000000000000000000000000000000000000000000000000000REP       REP President                                           Donald J. Trump                       PRECINCT 205                                           01 
00050030014000223000002000095000126000000000000000000000000000000000000000000000000000000000000000000REP       REP President                                           Donald J. Trump                       PRECINCT 206                                           01 
00050030015000215000007000081000127000000000000000000000000000000000000000000000000000000000000000000REP       REP President                                           Donald J. Trump                       PRECINCT 207                                           01 
00050030016000223000000000023000200000000000000000000000000000000000000000000000000000000000000000000REP       REP President                                           Donald J. Trump                       PRECINCT 208                                           01 
00050030017000269000007000100000162000000000000000000000000000000000000000000000000000000000000000000REP       REP President                                           Donald J. Trump                       PRECINCT 209                                           01 
00050030018000377000005000076000296000000000000000000000000000000000000000000000000000000000000000000REP       REP President                                           Donald J. Trump                       PRECINCT 210                                           01 
00050030019000275000045000106000124000000000000000000000000000000000000000000000000000000000000000000REP       REP President                                           Donald J. Trump                       PRECINCT 301                                           01 
00050030020000743000061000342000340000000000000000000000000000000000000000000000000000000000000000000REP       REP President                                           Donald J. Trump                       PRECINCT 302                                           01 
00050030021000167000010000072000085000000000000000000000000000000000000000000000000000000000000000000REP       REP President                                           Donald J. Trump                       PRECINCT 303                                           01 
00050030022000458000037000197000224000000000000000000000000000000000000000000000000000000000000000000REP       REP President                                           Donald J. Trump                       PRECINCT 304                                           01 
00050030023000345000008000145000192000000000000000000000000000000000000000000000000000000000000000000REP       REP President                                           Donald J. Trump                       PRECINCT 305                                           01 
00050030024000885000034000488000363000000000000000000000000000000000000000000000000000000000000000000REP       REP President                                           Donald J. Trump                       PRECINCT 306                                           01 
00050030025000499000028000146000325000000000000000000000000000000000000000000000000000000000000000000REP       REP President                                           Donald J. Trump                       PRECINCT 307                                           01 
00050030026000238000009000048000181000000000000000000000000000000000000000000000000000000000000000000REP       REP President                                           Donald J. Trump                       PRECINCT 308                                           01 
00050030027000166000004000045000117000000000000000000000000000000000000000000000000000000000000000000REP       REP President                                           Donald J. Trump                       PRECINCT 309                                           01 
00050030028000147000002000067000078000000000000000000000000000000000000000000000000000000000000000000REP       REP President                                           Donald J. Trump                       PRECINCT 401                                           01 
00050030029000336000008000159000169000000000000000000000000000000000000000000000000000000000000000000REP       REP President                                           Donald J. Trump                       PRECINCT 402                                           01 
00050030030000571000010000254000307000000000000000000000000000000000000000000000000000000000000000000REP       REP President                                           Donald J. Trump                       PRECINCT 403                                           01 
00050030031000676000006000299000371000000000000000000000000000000000000000000000000000000000000000000REP       REP President                                           Donald J. Trump                       PRECINCT 404                                           01 
00050030032000058000000000035000023000000000000000000000000000000000000000000000000000000000000000000REP       REP President                                           Donald J. Trump                       PRECINCT 405                                           01 
00050030033000620000005000261000354000000000000000000000000000000000000000000000000000000000000000000REP       REP President                                           Donald J. Trump                       PRECINCT 406                                           01 
00050030034000017000001000005000011000000000000000000000000000000000000000000000000000000000000000000REP       REP President                                           Donald J. Trump                       PRECINCT 407                                           01 
00050030035000250000007000106000137000000000000000000000000000000000000000000000000000000000000000000REP       REP President                                           Donald J. Trump                       PRECINCT 408                                           01 
00050030036000743000011000360000372000000000000000000000000000000000000000000000000000000000000000000REP       REP President                                           Donald J. Trump                       PRECINCT 409                                           01 
00050040001000003000000000000000003000000000000000000000000000000000000000000000000000000000000000000REP       REP President                                           Joe Walsh                             PRECINCT 101                                           01 
00050040002000003000000000000000003000000000000000000000000000000000000000000000000000000000000000000REP       REP President                                           Joe Walsh                             PRECINCT 102                                           01 
00050040003000002000002000000000000000000000000000000000000000000000000000000000000000000000000000000REP       REP President                                           Joe Walsh                             PRECINCT 103                                           01 
00050040004000001000000000000000001000000000000000000000000000000000000000000000000000000000000000000REP       REP President                                           Joe Walsh                             PRECINCT 104                                           01 
00050040005000009000000000002000007000000000000000000000000000000000000000000000000000000000000000000REP       REP President                                           Joe Walsh                             PRECINCT 105                                           01 
00050040006000003000000000001000002000000000000000000000000000000000000000000000000000000000000000000REP       REP President                                           Joe Walsh                             PRECINCT 106                                           01 
00050040007000003000000000001000002000000000000000000000000000000000000000000000000000000000000000000REP       REP President                                           Joe Walsh                             PRECINCT 107                                           01 
00050040008000001000000000001000000000000000000000000000000000000000000000000000000000000000000000000REP       REP President                                           Joe Walsh                             PRECINCT 108                                           01 
00050040009000004000000000002000002000000000000000000000000000000000000000000000000000000000000000000REP       REP President                                           Joe Walsh                             PRECINCT 201                                           01 
00050040010000005000000000003000002000000000000000000000000000000000000000000000000000000000000000000REP       REP President                                           Joe Walsh                             PRECINCT 202                                           01 
00050040011000000000000000000000000000000000000000000000000000000000000000000000000000000000000000000REP       REP President                                           Joe Walsh                             PRECINCT 203                                           01 
00050040012000000000000000000000000000000000000000000000000000000000000000000000000000000000000000000REP       REP President                                           Joe Walsh                             PRECINCT 204                                           01 
00050040013000001000000000001000000000000000000000000000000000000000000000000000000000000000000000000REP       REP President                                           Joe Walsh                             PRECINCT 205                                           01 
00050040014000001000000000001000000000000000000000000000000000000000000000000000000000000000000000000REP       REP President                                           Joe Walsh                             PRECINCT 206                                           01 
00050040015000001000000000001000000000000000000000000000000000000000000000000000000000000000000000000REP       REP President                                           Joe Walsh                             PRECINCT 207                                           01 
00050040016000001000000000000000001000000000000000000000000000000000000000000000000000000000000000000REP       REP President                                           Joe Walsh                             PRECINCT 208                                           01 
00050040017000000000000000000000000000000000000000000000000000000000000000000000000000000000000000000REP       REP President                                           Joe Walsh                             PRECINCT 209                                           01 
00050040018000000000000000000000000000000000000000000000000000000000000000000000000000000000000000000REP       REP President                                           Joe Walsh                             PRECINCT 210                                           01 
00050040019000005000000000002000003000000000000000000000000000000000000000000000000000000000000000000REP       REP President                                           Joe Walsh                             PRECINCT 301                                           01 
00050040020000005000002000001000002000000000000000000000000000000000000000000000000000000000000000000REP       REP President                                           Joe Walsh                             PRECINCT 302                                           01 
00050040021000000000000000000000000000000000000000000000000000000000000000000000000000000000000000000REP       REP President                                           Joe Walsh                             PRECINCT 303                                           01 
00050040022000005000000000001000004000000000000000000000000000000000000000000000000000000000000000000REP       REP President                                           Joe Walsh                             PRECINCT 304                                           01 
00050040023000001000000000001000000000000000000000000000000000000000000000000000000000000000000000000REP       REP President                                           Joe Walsh                             PRECINCT 305                                           01 
00050040024000003000000000001000002000000000000000000000000000000000000000000000000000000000000000000REP       REP President                                           Joe Walsh                             PRECINCT 306                                           01 
00050040025000002000000000000000002000000000000000000000000000000000000000000000000000000000000000000REP       REP President                                           Joe Walsh                             PRECINCT 307                                           01 
00050040026000000000000000000000000000000000000000000000000000000000000000000000000000000000000000000REP       REP President                                           Joe Walsh                             PRECINCT 308                                           01 
00050040027000002000000000000000002000000000000000000000000000000000000000000000000000000000000000000REP       REP President                                           Joe Walsh                             PRECINCT 309                                           01 
00050040028000000000000000000000000000000000000000000000000000000000000000000000000000000000000000000REP       REP President                                           Joe Walsh                             PRECINCT 401                                           01 
00050040029000001000000000001000000000000000000000000000000000000000000000000000000000000000000000000REP       REP President                                           Joe Walsh                             PRECINCT 402                                           01 
00050040030000006000000000003000003000000000000000000000000000000000000000000000000000000000000000000REP       REP President                                           Joe Walsh                             PRECINCT 403                                           01 
00050040031000005000000000002000003000000000000000000000000000000000000000000000000000000000000000000REP       REP President                                           Joe Walsh                             PRECINCT 404                                           01 
00050040032000001000000000001000000000000000000000000000000000000000000000000000000000000000000000000REP       REP President                                           Joe Walsh                             PRECINCT 405                                           01 
00050040033000004000000000001000003000000000000000000000000000000000000000000000000000000000000000000REP       REP President                                           Joe Walsh                             PRECINCT 406                                           01 
00050040034000000000000000000000000000000000000000000000000000000000000000000000000000000000000000000REP       REP President                                           Joe Walsh                             PRECINCT 407                                           01 
00050040035000004000000000002000002000000000000000000000000000000000000000000000000000000000000000000REP       REP President                                           Joe Walsh                             PRECINCT 408                                           01 
00050040036000003000000000002000001000000000000000000000000000000000000000000000000000000000000000000REP       REP President                                           Joe Walsh                             PRECINCT 409                                           01 
00050050001000000000000000000000000000000000000000000000000000000000000000000000000000000000000000000REP       REP President                                           Bill Weld                             PRECINCT 101                                           01 
00050050002000003000000000000000003000000000000000000000000000000000000000000000000000000000000000000REP       REP President                                           Bill Weld                             PRECINCT 102                                           01 
00050050003000000000000000000000000000000000000000000000000000000000000000000000000000000000000000000REP       REP President                                           Bill Weld                             PRECINCT 103                                           01 
00050050004000001000000000001000000000000000000000000000000000000000000000000000000000000000000000000REP       REP President                                           Bill Weld                             PRECINCT 104                                           01 
00050050005000005000000000001000004000000000000000000000000000000000000000000000000000000000000000000REP       REP President                                           Bill Weld                             PRECINCT 105                                           01 
00050050006000001000000000000000001000000000000000000000000000000000000000000000000000000000000000000REP       REP President                                           Bill Weld                             PRECINCT 106                                           01 
00050050007000002000000000000000002000000000000000000000000000000000000000000000000000000000000000000REP       REP President                                           Bill Weld                             PRECINCT 107                                           01 
00050050008000001000000000000000001000000000000000000000000000000000000000000000000000000000000000000REP       REP President                                           Bill Weld                             PRECINCT 108                                           01 
00050050009000003000000000001000002000000000000000000000000000000000000000000000000000000000000000000REP       REP President                                           Bill Weld                             PRECINCT 201                                           01 
00050050010000000000000000000000000000000000000000000000000000000000000000000000000000000000000000000REP       REP President                                           Bill Weld                             PRECINCT 202                                           01 
00050050011000000000000000000000000000000000000000000000000000000000000000000000000000000000000000000REP       REP President                                           Bill Weld                             PRECINCT 203                                           01 
00050050012000000000000000000000000000000000000000000000000000000000000000000000000000000000000000000REP       REP President                                           Bill Weld                             PRECINCT 204                                           01 
00050050013000001000000000001000000000000000000000000000000000000000000000000000000000000000000000000REP       REP President                                           Bill Weld                             PRECINCT 205                                           01 
00050050014000000000000000000000000000000000000000000000000000000000000000000000000000000000000000000REP       REP President                                           Bill Weld                             PRECINCT 206                                           01 
00050050015000001000000000000000001000000000000000000000000000000000000000000000000000000000000000000REP       REP President                                           Bill Weld                             PRECINCT 207                                           01 
00050050016000000000000000000000000000000000000000000000000000000000000000000000000000000000000000000REP       REP President                                           Bill Weld                             PRECINCT 208                                           01 
00050050017000000000000000000000000000000000000000000000000000000000000000000000000000000000000000000REP       REP President                                           Bill Weld                             PRECINCT 209                                           01 
00050050018000001000000000000000001000000000000000000000000000000000000000000000000000000000000000000REP       REP President                                           Bill Weld                             PRECINCT 210                                           01 
00050050019000003000000000002000001000000000000000000000000000000000000000000000000000000000000000000REP       REP President                                           Bill Weld                             PRECINCT 301                                           01 
00050050020000001000001000000000000000000000000000000000000000000000000000000000000000000000000000000REP       REP President                                           Bill Weld                             PRECINCT 302                                           01 
00050050021000000000000000000000000000000000000000000000000000000000000000000000000000000000000000000REP       REP President                                           Bill Weld                             PRECINCT 303                                           01 
00050050022000002000000000002000000000000000000000000000000000000000000000000000000000000000000000000REP       REP President                                           Bill Weld                             PRECINCT 304                                           01 
00050050023000001000000000001000000000000000000000000000000000000000000000000000000000000000000000000REP       REP President                                           Bill Weld                             PRECINCT 305                                           01 
00050050024000004000000000003000001000000000000000000000000000000000000000000000000000000000000000000REP       REP President                                           Bill Weld                             PRECINCT 306                                           01 
00050050025000000000000000000000000000000000000000000000000000000000000000000000000000000000000000000REP       REP President                                           Bill Weld                             PRECINCT 307                                           01 
00050050026000001000000000001000000000000000000000000000000000000000000000000000000000000000000000000REP       REP President                                           Bill Weld                             PRECINCT 308                                           01 
00050050027000000000000000000000000000000000000000000000000000000000000000000000000000000000000000000REP       REP President                                           Bill Weld                             PRECINCT 309                                           01 
00050050028000002000000000000000002000000000000000000000000000000000000000000000000000000000000000000REP       REP President                                           Bill Weld                             PRECINCT 401                                           01 
00050050029000000000000000000000000000000000000000000000000000000000000000000000000000000000000000000REP       REP President                                           Bill Weld                             PRECINCT 402                                           01 
00050050030000005000000000003000002000000000000000000000000000000000000000000000000000000000000000000REP       REP President                                           Bill Weld                             PRECINCT 403                                           01 
00050050031000000000000000000000000000000000000000000000000000000000000000000000000000000000000000000REP       REP President                                           Bill Weld                             PRECINCT 404                                           01 
00050050032000001000000000001000000000000000000000000000000000000000000000000000000000000000000000000REP       REP President                                           Bill Weld                             PRECINCT 405                                           01 
00050050033000000000000000000000000000000000000000000000000000000000000000000000000000000000000000000REP       REP President                                           Bill Weld                             PRECINCT 406                                           01 
00050050034000000000000000000000000000000000000000000000000000000000000000000000000000000000000000000REP       REP President                                           Bill Weld                             PRECINCT 407                                           01 
00050050035000003000000000001000002000000000000000000000000000000000000000000000000000000000000000000REP       REP President                                           Bill Weld                             PRECINCT 408                                           01 
00050050036000005000001000002000002000000000000000000000000000000000000000000000000000000000000000000REP       REP President                                           Bill Weld                             PRECINCT 409                                           01 
00050060001000000000000000000000000000000000000000000000000000000000000000000000000000000000000000000REP       REP President                                           Bob Ely                               PRECINCT 101                                           01 
00050060002000000000000000000000000000000000000000000000000000000000000000000000000000000000000000000REP       REP President                                           Bob Ely                               PRECINCT 102                                           01 
00050060003000000000000000000000000000000000000000000000000000000000000000000000000000000000000000000REP       REP President                                           Bob Ely                               PRECINCT 103                                           01 
00050060004000000000000000000000000000000000000000000000000000000000000000000000000000000000000000000REP       REP President                                           Bob Ely                               PRECINCT 104                                           01 
00050060005000000000000000000000000000000000000000000000000000000000000000000000000000000000000000000REP       REP President                                           Bob Ely                               PRECINCT 105                                           01 
00050060006000000000000000000000000000000000000000000000000000000000000000000000000000000000000000000REP       REP President                                           Bob Ely                               PRECINCT 106                                           01 
00050060007000000000000000000000000000000000000000000000000000000000000000000000000000000000000000000REP       REP President                                           Bob Ely                               PRECINCT 107                                           01 
00050060008000000000000000000000000000000000000000000000000000000000000000000000000000000000000000000REP       REP President                                           Bob Ely                               PRECINCT 108                                           01 
00050060009000000000000000000000000000000000000000000000000000000000000000000000000000000000000000000REP       REP President                                           Bob Ely                               PRECINCT 201                                           01 
00050060010000000000000000000000000000000000000000000000000000000000000000000000000000000000000000000REP       REP President                                           Bob Ely                               PRECINCT 202                                           01 
00050060011000000000000000000000000000000000000000000000000000000000000000000000000000000000000000000REP       REP President                                           Bob Ely                               PRECINCT 203                                           01 
00050060012000000000000000000000000000000000000000000000000000000000000000000000000000000000000000000REP       REP President                                           Bob Ely                               PRECINCT 204                                           01 
00050060013000000000000000000000000000000000000000000000000000000000000000000000000000000000000000000REP       REP President                                           Bob Ely                               PRECINCT 205                                           01 
00050060014000000000000000000000000000000000000000000000000000000000000000000000000000000000000000000REP       REP President                                           Bob Ely                               PRECINCT 206                                           01 
00050060015000000000000000000000000000000000000000000000000000000000000000000000000000000000000000000REP       REP President                                           Bob Ely                               PRECINCT 207                                           01 
00050060016000000000000000000000000000000000000000000000000000000000000000000000000000000000000000000REP       REP President                                           Bob Ely                               PRECINCT 208                                           01 
00050060017000000000000000000000000000000000000000000000000000000000000000000000000000000000000000000REP       REP President                                           Bob Ely                               PRECINCT 209                                           01 
00050060018000000000000000000000000000000000000000000000000000000000000000000000000000000000000000000REP       REP President                                           Bob Ely                               PRECINCT 210                                           01 
00050060019000001000001000000000000000000000000000000000000000000000000000000000000000000000000000000REP       REP President                                           Bob Ely                               PRECINCT 301                                           01 
00050060020000000000000000000000000000000000000000000000000000000000000000000000000000000000000000000REP       REP President                                           Bob Ely                               PRECINCT 302                                           01 
00050060021000000000000000000000000000000000000000000000000000000000000000000000000000000000000000000REP       REP President                                           Bob Ely                               PRECINCT 303                                           01 
00050060022000001000000000000000001000000000000000000000000000000000000000000000000000000000000000000REP       REP President                                           Bob Ely                               PRECINCT 304                                           01 
00050060023000000000000000000000000000000000000000000000000000000000000000000000000000000000000000000REP       REP President                                           Bob Ely                               PRECINCT 305                                           01 
00050060024000001000000000000000001000000000000000000000000000000000000000000000000000000000000000000REP       REP President                                           Bob Ely                               PRECINCT 306                                           01 
00050060025000001000000000001000000000000000000000000000000000000000000000000000000000000000000000000REP       REP President                                           Bob Ely                               PRECINCT 307                                           01 
00050060026000000000000000000000000000000000000000000000000000000000000000000000000000000000000000000REP       REP President                                           Bob Ely                               PRECINCT 308                                           01 
00050060027000001000000000000000001000000000000000000000000000000000000000000000000000000000000000000REP       REP President                                           Bob Ely                               PRECINCT 309                                           01 
00050060028000000000000000000000000000000000000000000000000000000000000000000000000000000000000000000REP       REP President                                           Bob Ely                               PRECINCT 401                                           01 
00050060029000000000000000000000000000000000000000000000000000000000000000000000000000000000000000000REP       REP President                                           Bob Ely                               PRECINCT 402                                           01 
00050060030000000000000000000000000000000000000000000000000000000000000000000000000000000000000000000REP       REP President                                           Bob Ely                               PRECINCT 403                                           01 
00050060031000000000000000000000000000000000000000000000000000000000000000000000000000000000000000000REP       REP President                                           Bob Ely                               PRECINCT 404                                           01 
00050060032000000000000000000000000000000000000000000000000000000000000000000000000000000000000000000REP       REP President                                           Bob Ely                               PRECINCT 405                                           01 
00050060033000002000000000002000000000000000000000000000000000000000000000000000000000000000000000000REP       REP President                                           Bob Ely                               PRECINCT 406                                           01 
00050060034000000000000000000000000000000000000000000000000000000000000000000000000000000000000000000REP       REP President                                           Bob Ely                               PRECINCT 407                                           01 
00050060035000001000000000001000000000000000000000000000000000000000000000000000000000000000000000000REP       REP President                                           Bob Ely                               PRECINCT 408                                           01 
00050060036000000000000000000000000000000000000000000000000000000000000000000000000000000000000000000REP       REP President                                           Bob Ely                               PRECINCT 409                                           01 
00050070001000001000000000001000000000000000000000000000000000000000000000000000000000000000000000000REP       REP President                                           Roque Rocky DeLa Fuente Guerra        PRECINCT 101                                           01 
00050070002000000000000000000000000000000000000000000000000000000000000000000000000000000000000000000REP       REP President                                           Roque Rocky DeLa Fuente Guerra        PRECINCT 102                                           01 
00050070003000000000000000000000000000000000000000000000000000000000000000000000000000000000000000000REP       REP President                                           Roque Rocky DeLa Fuente Guerra        PRECINCT 103                                           01 
00050070004000001000000000000000001000000000000000000000000000000000000000000000000000000000000000000REP       REP President                                           Roque Rocky DeLa Fuente Guerra        PRECINCT 104                                           01 
00050070005000002000000000001000001000000000000000000000000000000000000000000000000000000000000000000REP       REP President                                           Roque Rocky DeLa Fuente Guerra        PRECINCT 105                                           01 
00050070006000003000000000002000001000000000000000000000000000000000000000000000000000000000000000000REP       REP President                                           Roque Rocky DeLa Fuente Guerra        PRECINCT 106                                           01 
00050070007000001000000000001000000000000000000000000000000000000000000000000000000000000000000000000REP       REP President                                           Roque Rocky DeLa Fuente Guerra        PRECINCT 107                                           01 
00050070008000001000000000001000000000000000000000000000000000000000000000000000000000000000000000000REP       REP President                                           Roque Rocky DeLa Fuente Guerra        PRECINCT 108                                           01 
00050070009000001000000000001000000000000000000000000000000000000000000000000000000000000000000000000REP       REP President                                           Roque Rocky DeLa Fuente Guerra        PRECINCT 201                                           01 
00050070010000001000000000000000001000000000000000000000000000000000000000000000000000000000000000000REP       REP President                                           Roque Rocky DeLa Fuente Guerra        PRECINCT 202                                           01 
00050070011000000000000000000000000000000000000000000000000000000000000000000000000000000000000000000REP       REP President                                           Roque Rocky DeLa Fuente Guerra        PRECINCT 203                                           01 
00050070012000001000000000000000001000000000000000000000000000000000000000000000000000000000000000000REP       REP President                                           Roque Rocky DeLa Fuente Guerra        PRECINCT 204                                           01 
00050070013000003000001000001000001000000000000000000000000000000000000000000000000000000000000000000REP       REP President                                           Roque Rocky DeLa Fuente Guerra        PRECINCT 205                                           01 
00050070014000000000000000000000000000000000000000000000000000000000000000000000000000000000000000000REP       REP President                                           Roque Rocky DeLa Fuente Guerra        PRECINCT 206                                           01 
00050070015000000000000000000000000000000000000000000000000000000000000000000000000000000000000000000REP       REP President                                           Roque Rocky DeLa Fuente Guerra        PRECINCT 207                                           01 
00050070016000000000000000000000000000000000000000000000000000000000000000000000000000000000000000000REP       REP President                                           Roque Rocky DeLa Fuente Guerra        PRECINCT 208                                           01 
00050070017000000000000000000000000000000000000000000000000000000000000000000000000000000000000000000REP       REP President                                           Roque Rocky DeLa Fuente Guerra        PRECINCT 209                                           01 
00050070018000000000000000000000000000000000000000000000000000000000000000000000000000000000000000000REP       REP President                                           Roque Rocky DeLa Fuente Guerra        PRECINCT 210                                           01 
00050070019000000000000000000000000000000000000000000000000000000000000000000000000000000000000000000REP       REP President                                           Roque Rocky DeLa Fuente Guerra        PRECINCT 301                                           01 
00050070020000002000000000001000001000000000000000000000000000000000000000000000000000000000000000000REP       REP President                                           Roque Rocky DeLa Fuente Guerra        PRECINCT 302                                           01 
00050070021000000000000000000000000000000000000000000000000000000000000000000000000000000000000000000REP       REP President                                           Roque Rocky DeLa Fuente Guerra        PRECINCT 303                                           01 
00050070022000003000000000003000000000000000000000000000000000000000000000000000000000000000000000000REP       REP President                                           Roque Rocky DeLa Fuente Guerra        PRECINCT 304                                           01 
00050070023000003000000000001000002000000000000000000000000000000000000000000000000000000000000000000REP       REP President                                           Roque Rocky DeLa Fuente Guerra        PRECINCT 305                                           01 
00050070024000003000000000001000002000000000000000000000000000000000000000000000000000000000000000000REP       REP President                                           Roque Rocky DeLa Fuente Guerra        PRECINCT 306                                           01 
00050070025000002000000000001000001000000000000000000000000000000000000000000000000000000000000000000REP       REP President                                           Roque Rocky DeLa Fuente Guerra        PRECINCT 307                                           01 
00050070026000000000000000000000000000000000000000000000000000000000000000000000000000000000000000000REP       REP President                                           Roque Rocky DeLa Fuente Guerra        PRECINCT 308                                           01 
00050070027000000000000000000000000000000000000000000000000000000000000000000000000000000000000000000REP       REP President                                           Roque Rocky DeLa Fuente Guerra        PRECINCT 309                                           01 
00050070028000000000000000000000000000000000000000000000000000000000000000000000000000000000000000000REP       REP President                                           Roque Rocky DeLa Fuente Guerra        PRECINCT 401                                           01 
00050070029000002000000000001000001000000000000000000000000000000000000000000000000000000000000000000REP       REP President                                           Roque Rocky DeLa Fuente Guerra        PRECINCT 402                                           01 
00050070030000000000000000000000000000000000000000000000000000000000000000000000000000000000000000000REP       REP President                                           Roque Rocky DeLa Fuente Guerra        PRECINCT 403                                           01 
00050070031000000000000000000000000000000000000000000000000000000000000000000000000000000000000000000REP       REP President                                           Roque Rocky DeLa Fuente Guerra        PRECINCT 404                                           01 
00050070032000000000000000000000000000000000000000000000000000000000000000000000000000000000000000000REP       REP President                                           Roque Rocky DeLa Fuente Guerra        PRECINCT 405                                           01 
00050070033000000000000000000000000000000000000000000000000000000000000000000000000000000000000000000REP       REP President                                           Roque Rocky DeLa Fuente Guerra        PRECINCT 406                                           01 
00050070034000000000000000000000000000000000000000000000000000000000000000000000000000000000000000000REP       REP President                                           Roque Rocky DeLa Fuente Guerra        PRECINCT 407                                           01 
00050070035000001000000000000000001000000000000000000000000000000000000000000000000000000000000000000REP       REP President                                           Roque Rocky DeLa Fuente Guerra        PRECINCT 408                                           01 
00050070036000005000000000003000002000000000000000000000000000000000000000000000000000000000000000000REP       REP President                                           Roque Rocky DeLa Fuente Guerra        PRECINCT 409                                           01 
00050080001000013000001000007000005000000000000000000000000000000000000000000000000000000000000000000REP       REP President                                           Uncommitted                           PRECINCT 101                                           01 
00050080002000005000000000001000004000000000000000000000000000000000000000000000000000000000000000000REP       REP President                                           Uncommitted                           PRECINCT 102                                           01 
00050080003000004000000000001000003000000000000000000000000000000000000000000000000000000000000000000REP       REP President                                           Uncommitted                           PRECINCT 103                                           01 
00050080004000010000001000005000004000000000000000000000000000000000000000000000000000000000000000000REP       REP President                                           Uncommitted                           PRECINCT 104                                           01 
00050080005000044000002000016000026000000000000000000000000000000000000000000000000000000000000000000REP       REP President                                           Uncommitted                           PRECINCT 105                                           01 
00050080006000014000000000006000008000000000000000000000000000000000000000000000000000000000000000000REP       REP President                                           Uncommitted                           PRECINCT 106                                           01 
00050080007000013000001000003000009000000000000000000000000000000000000000000000000000000000000000000REP       REP President                                           Uncommitted                           PRECINCT 107                                           01 
00050080008000018000000000013000005000000000000000000000000000000000000000000000000000000000000000000REP       REP President                                           Uncommitted                           PRECINCT 108                                           01 
00050080009000015000000000011000004000000000000000000000000000000000000000000000000000000000000000000REP       REP President                                           Uncommitted                           PRECINCT 201                                           01 
00050080010000010000000000001000009000000000000000000000000000000000000000000000000000000000000000000REP       REP President                                           Uncommitted                           PRECINCT 202                                           01 
00050080011000000000000000000000000000000000000000000000000000000000000000000000000000000000000000000REP       REP President                                           Uncommitted                           PRECINCT 203                                           01 
00050080012000003000000000002000001000000000000000000000000000000000000000000000000000000000000000000REP       REP President                                           Uncommitted                           PRECINCT 204                                           01 
00050080013000010000000000004000006000000000000000000000000000000000000000000000000000000000000000000REP       REP President                                           Uncommitted                           PRECINCT 205                                           01 
00050080014000007000000000005000002000000000000000000000000000000000000000000000000000000000000000000REP       REP President                                           Uncommitted                           PRECINCT 206                                           01 
00050080015000004000000000000000004000000000000000000000000000000000000000000000000000000000000000000REP       REP President                                           Uncommitted                           PRECINCT 207                                           01 
00050080016000007000000000001000006000000000000000000000000000000000000000000000000000000000000000000REP       REP President                                           Uncommitted                           PRECINCT 208                                           01 
00050080017000005000000000002000003000000000000000000000000000000000000000000000000000000000000000000REP       REP President                                           Uncommitted                           PRECINCT 209                                           01 
00050080018000005000001000000000004000000000000000000000000000000000000000000000000000000000000000000REP       REP President                                           Uncommitted                           PRECINCT 210                                           01 
00050080019000010000004000001000005000000000000000000000000000000000000000000000000000000000000000000REP       REP President                                           Uncommitted                           PRECINCT 301                                           01 
00050080020000030000001000019000010000000000000000000000000000000000000000000000000000000000000000000REP       REP President                                           Uncommitted                           PRECINCT 302                                           01 
00050080021000003000000000001000002000000000000000000000000000000000000000000000000000000000000000000REP       REP President                                           Uncommitted                           PRECINCT 303                                           01 
00050080022000023000003000009000011000000000000000000000000000000000000000000000000000000000000000000REP       REP President                                           Uncommitted                           PRECINCT 304                                           01 
00050080023000011000000000003000008000000000000000000000000000000000000000000000000000000000000000000REP       REP President                                           Uncommitted                           PRECINCT 305                                           01 
00050080024000025000002000015000008000000000000000000000000000000000000000000000000000000000000000000REP       REP President                                           Uncommitted                           PRECINCT 306                                           01 
00050080025000008000000000003000005000000000000000000000000000000000000000000000000000000000000000000REP       REP President                                           Uncommitted                           PRECINCT 307                                           01 
00050080026000005000000000001000004000000000000000000000000000000000000000000000000000000000000000000REP       REP President                                           Uncommitted                           PRECINCT 308                                           01 
00050080027000011000000000004000007000000000000000000000000000000000000000000000000000000000000000000REP       REP President                                           Uncommitted                           PRECINCT 309                                           01 
00050080028000002000000000001000001000000000000000000000000000000000000000000000000000000000000000000REP       REP President                                           Uncommitted                           PRECINCT 401                                           01 
00050080029000007000001000003000003000000000000000000000000000000000000000000000000000000000000000000REP       REP President                                           Uncommitted                           PRECINCT 402                                           01 
00050080030000008000000000004000004000000000000000000000000000000000000000000000000000000000000000000REP       REP President                                           Uncommitted                           PRECINCT 403                                           01 
00050080031000020000000000009000011000000000000000000000000000000000000000000000000000000000000000000REP       REP President                                           Uncommitted                           PRECINCT 404                                           01 
00050080032000000000000000000000000000000000000000000000000000000000000000000000000000000000000000000REP       REP President                                           Uncommitted                           PRECINCT 405                                           01 
00050080033000004000000000003000001000000000000000000000000000000000000000000000000000000000000000000REP       REP President                                           Uncommitted                           PRECINCT 406                                           01 
00050080034000000000000000000000000000000000000000000000000000000000000000000000000000000000000000000REP       REP President                                           Uncommitted                           PRECINCT 407                                           01 
00050080035000006000000000002000004000000000000000000000000000000000000000000000000000000000000000000REP       REP President                                           Uncommitted                           PRECINCT 408                                           01 
00050080036000031000000000009000022000000000000000000000000000000000000000000000000000000000000000000REP       REP President                                           Uncommitted                           PRECINCT 409                                           01 
00060010001000039000000000012000027000000000000000000000000000000000000000000000000000000000000000000REP       REP US Senator                                          Mark Yancey                           PRECINCT 101                                           01 
00060010002000013000000000008000005000000000000000000000000000000000000000000000000000000000000000000REP       REP US Senator                                          Mark Yancey                           PRECINCT 102                                           01 
00060010003000010000000000004000006000000000000000000000000000000000000000000000000000000000000000000REP       REP US Senator                                          Mark Yancey                           PRECINCT 103                                           01 
00060010004000020000000000004000016000000000000000000000000000000000000000000000000000000000000000000REP       REP US Senator                                          Mark Yancey                           PRECINCT 104                                           01 
00060010005000085000003000035000047000000000000000000000000000000000000000000000000000000000000000000REP       REP US Senator                                          Mark Yancey                           PRECINCT 105                                           01 
00060010006000050000002000010000038000000000000000000000000000000000000000000000000000000000000000000REP       REP US Senator                                          Mark Yancey                           PRECINCT 106                                           01 
00060010007000061000003000017000041000000000000000000000000000000000000000000000000000000000000000000REP       REP US Senator                                          Mark Yancey                           PRECINCT 107                                           01 
00060010008000033000000000016000017000000000000000000000000000000000000000000000000000000000000000000REP       REP US Senator                                          Mark Yancey                           PRECINCT 108                                           01 
00060010009000048000000000013000035000000000000000000000000000000000000000000000000000000000000000000REP       REP US Senator                                          Mark Yancey                           PRECINCT 201                                           01 
00060010010000051000001000014000036000000000000000000000000000000000000000000000000000000000000000000REP       REP US Senator                                          Mark Yancey                           PRECINCT 202                                           01 
00060010011000013000000000008000005000000000000000000000000000000000000000000000000000000000000000000REP       REP US Senator                                          Mark Yancey                           PRECINCT 203                                           01 
00060010012000017000000000009000008000000000000000000000000000000000000000000000000000000000000000000REP       REP US Senator                                          Mark Yancey                           PRECINCT 204                                           01 
00060010013000084000001000044000039000000000000000000000000000000000000000000000000000000000000000000REP       REP US Senator                                          Mark Yancey                           PRECINCT 205                                           01 
00060010014000018000000000005000013000000000000000000000000000000000000000000000000000000000000000000REP       REP US Senator                                          Mark Yancey                           PRECINCT 206                                           01 
00060010015000021000002000007000012000000000000000000000000000000000000000000000000000000000000000000REP       REP US Senator                                          Mark Yancey                           PRECINCT 207                                           01 
00060010016000021000000000003000018000000000000000000000000000000000000000000000000000000000000000000REP       REP US Senator                                          Mark Yancey                           PRECINCT 208                                           01 
00060010017000030000004000008000018000000000000000000000000000000000000000000000000000000000000000000REP       REP US Senator                                          Mark Yancey                           PRECINCT 209                                           01 
