01010010001000000          REGISTERED VOTERS - TOTAL                               REGISTERED VOTERS - TOTAL             Precinct 101                                           00 
01010010002000000          REGISTERED VOTERS - TOTAL                               REGISTERED VOTERS - TOTAL             Precinct 102                                           00 
01010010003000000          REGISTERED VOTERS - TOTAL                               REGISTERED VOTERS - TOTAL             Precinct 201                                           00 
01010010004000000          REGISTERED VOTERS - TOTAL                               REGISTERED VOTERS - TOTAL             Precinct 202                                           00 
01010010005000000          REGISTERED VOTERS - TOTAL                               REGISTERED VOTERS - TOTAL             Precinct 301                                           00 
01010010006000000          REGISTERED VOTERS - TOTAL                               REGISTERED VOTERS - TOTAL             Precinct 401                                           00 
01020010001000155          BALLOTS CAST - TOTAL                                    BALLOTS CAST - TOTAL                  Precinct 101                                           00 
01020010002000080          BALLOTS CAST - TOTAL                                    BALLOTS CAST - TOTAL                  Precinct 102                                           00 
01020010003000114          BALLOTS CAST - TOTAL                                    BALLOTS CAST - TOTAL                  Precinct 201                                           00 
01020010004000233          BALLOTS CAST - TOTAL                                    BALLOTS CAST - TOTAL                  Precinct 202                                           00 
01020010005000356          BALLOTS CAST - TOTAL                                    BALLOTS CAST - TOTAL                  Precinct 301                                           00 
01020010006000281          BALLOTS CAST - TOTAL                                    BALLOTS CAST - TOTAL                  Precinct 401                                           00 
01030010001000152REP       BALLOTS CAST - REPUBLICAN PARTY                         BALLOTS CAST - REPUBLICAN PARTY       Precinct 101                                           00 
01030010002000078REP       BALLOTS CAST - REPUBLICAN PARTY                         BALLOTS CAST - REPUBLICAN PARTY       Precinct 102                                           00 
01030010003000106REP       BALLOTS CAST - REPUBLICAN PARTY                         BALLOTS CAST - REPUBLICAN PARTY       Precinct 201                                           00 
01030010004000221REP       BALLOTS CAST - REPUBLICAN PARTY                         BALLOTS CAST - REPUBLICAN PARTY       Precinct 202                                           00 
01030010005000336REP       BALLOTS CAST - REPUBLICAN PARTY                         BALLOTS CAST - REPUBLICAN PARTY       Precinct 301                                           00 
01030010006000256REP       BALLOTS CAST - REPUBLICAN PARTY                         BALLOTS CAST - REPUBLICAN PARTY       Precinct 401                                           00 
01040010001000003DEM       BALLOTS CAST - DEMOCRATIC PARTY                         BALLOTS CAST - DEMOCRATIC PARTY       Precinct 101                                           00 
01040010002000002DEM       BALLOTS CAST - DEMOCRATIC PARTY                         BALLOTS CAST - DEMOCRATIC PARTY       Precinct 102                                           00 
01040010003000008DEM       BALLOTS CAST - DEMOCRATIC PARTY                         BALLOTS CAST - DEMOCRATIC PARTY       Precinct 201                                           00 
01040010004000012DEM       BALLOTS CAST - DEMOCRATIC PARTY                         BALLOTS CAST - DEMOCRATIC PARTY       Precinct 202                                           00 
01040010005000020DEM       BALLOTS CAST - DEMOCRATIC PARTY                         BALLOTS CAST - DEMOCRATIC PARTY       Precinct 301                                           00 
01040010006000025DEM       BALLOTS CAST - DEMOCRATIC PARTY                         BALLOTS CAST - DEMOCRATIC PARTY       Precinct 401                                           00 
01050010001000002REP       President                                               Roque "Rocky" De La Fuente Guerra     Precinct 101                                           01 
01050010002000000REP       President                                               Roque "Rocky" De La Fuente Guerra     Precinct 102                                           01 
01050010003000000REP       President                                               Roque "Rocky" De La Fuente Guerra     Precinct 201                                           01 
01050010004000001REP       President                                               Roque "Rocky" De La Fuente Guerra     Precinct 202                                           01 
01050010005000003REP       President                                               Roque "Rocky" De La Fuente Guerra     Precinct 301                                           01 
01050010006000001REP       President                                               Roque "Rocky" De La Fuente Guerra     Precinct 401                                           01 
01050020001000000REP       President                                               Matthew John Matern                   Precinct 101                                           01 
01050020002000000REP       President                                               Matthew John Matern                   Precinct 102                                           01 
01050020003000001REP       President                                               Matthew John Matern                   Precinct 201                                           01 
01050020004000000REP       President                                               Matthew John Matern                   Precinct 202                                           01 
01050020005000000REP       President                                               Matthew John Matern                   Precinct 301                                           01 
01050020006000000REP       President                                               Matthew John Matern                   Precinct 401                                           01 
01050030001000000REP       President                                               Bob Ely                               Precinct 101                                           01 
01050030002000000REP       President                                               Bob Ely                               Precinct 102                                           01 
01050030003000000REP       President                                               Bob Ely                               Precinct 201                                           01 
01050030004000000REP       President                                               Bob Ely                               Precinct 202                                           01 
01050030005000001REP       President                                               Bob Ely                               Precinct 301                                           01 
01050030006000000REP       President                                               Bob Ely                               Precinct 401                                           01 
01050040001000000REP       President                                               Bill Weld                             Precinct 101                                           01 
01050040002000001REP       President                                               Bill Weld                             Precinct 102                                           01 
01050040003000000REP       President                                               Bill Weld                             Precinct 201                                           01 
01050040004000000REP       President                                               Bill Weld                             Precinct 202                                           01 
01050040005000000REP       President                                               Bill Weld                             Precinct 301                                           01 
01050040006000000REP       President                                               Bill Weld                             Precinct 401                                           01 
01050050001000000REP       President                                               Zoltan G. Istvan                      Precinct 101                                           01 
01050050002000000REP       President                                               Zoltan G. Istvan                      Precinct 102                                           01 
01050050003000000REP       President                                               Zoltan G. Istvan                      Precinct 201                                           01 
01050050004000000REP       President                                               Zoltan G. Istvan                      Precinct 202                                           01 
01050050005000000REP       President                                               Zoltan G. Istvan                      Precinct 301                                           01 
01050050006000000REP       President                                               Zoltan G. Istvan                      Precinct 401                                           01 
01050060001000138REP       President                                               Donald J. Trump                       Precinct 101                                           01 
01050060002000075REP       President                                               Donald J. Trump                       Precinct 102                                           01 
01050060003000102REP       President                                               Donald J. Trump                       Precinct 201                                           01 
01050060004000212REP       President                                               Donald J. Trump                       Precinct 202                                           01 
01050060005000313REP       President                                               Donald J. Trump                       Precinct 301                                           01 
01050060006000249REP       President                                               Donald J. Trump                       Precinct 401                                           01 
01050070001000002REP       President                                               Joe Walsh                             Precinct 101                                           01 
01050070002000000REP       President                                               Joe Walsh                             Precinct 102                                           01 
01050070003000000REP       President                                               Joe Walsh                             Precinct 201                                           01 
01050070004000001REP       President                                               Joe Walsh                             Precinct 202                                           01 
01050070005000001REP       President                                               Joe Walsh                             Precinct 301                                           01 
01050070006000001REP       President                                               Joe Walsh                             Precinct 401                                           01 
01050080001000006REP       President                                               Uncommitted                           Precinct 101                                           01 
01050080002000002REP       President                                               Uncommitted                           Precinct 102                                           01 
01050080003000002REP       President                                               Uncommitted                           Precinct 201                                           01 
01050080004000005REP       President                                               Uncommitted                           Precinct 202                                           01 
01050080005000014REP       President                                               Uncommitted                           Precinct 301                                           01 
01050080006000005REP       President                                               Uncommitted                           Precinct 401                                           01 
01050090001000000REP       President                                               OVER VOTES                            Precinct 101                                           01 
01050090002000000REP       President                                               OVER VOTES                            Precinct 102                                           01 
01050090003000000REP       President                                               OVER VOTES                            Precinct 201                                           01 
01050090004000000REP       President                                               OVER VOTES                            Precinct 202                                           01 
01050090005000000REP       President                                               OVER VOTES                            Precinct 301                                           01 
01050090006000000REP       President                                               OVER VOTES                            Precinct 401                                           01 
01050100001000004REP       President                                               UNDER VOTES                           Precinct 101                                           01 
01050100002000000REP       President                                               UNDER VOTES                           Precinct 102                                           01 
01050100003000001REP       President                                               UNDER VOTES                           Precinct 201                                           01 
01050100004000002REP       President                                               UNDER VOTES                           Precinct 202                                           01 
01050100005000004REP       President                                               UNDER VOTES                           Precinct 301                                           01 
01050100006000000REP       President                                               UNDER VOTES                           Precinct 401                                           01 
01060010001000007REP       United States Senator                                   Virgil Bierschwale                    Precinct 101                                           01 
01060010002000002REP       United States Senator                                   Virgil Bierschwale                    Precinct 102                                           01 
01060010003000003REP       United States Senator                                   Virgil Bierschwale                    Precinct 201                                           01 
01060010004000001REP       United States Senator                                   Virgil Bierschwale                    Precinct 202                                           01 
01060010005000002REP       United States Senator                                   Virgil Bierschwale                    Precinct 301                                           01 
01060010006000005REP       United States Senator                                   Virgil Bierschwale                    Precinct 401                                           01 
01060020001000016REP       United States Senator                                   Dwayne Stovall                        Precinct 101                                           01 
01060020002000013REP       United States Senator                                   Dwayne Stovall                        Precinct 102                                           01 
01060020003000017REP       United States Senator                                   Dwayne Stovall                        Precinct 201                                           01 
01060020004000025REP       United States Senator                                   Dwayne Stovall                        Precinct 202                                           01 
01060020005000027REP       United States Senator                                   Dwayne Stovall                        Precinct 301                                           01 
01060020006000031REP       United States Senator                                   Dwayne Stovall                        Precinct 401                                           01 
01060030001000011REP       United States Senator                                   Mark Yancey                           Precinct 101                                           01 
01060030002000005REP       United States Senator                                   Mark Yancey                           Precinct 102                                           01 
01060030003000004REP       United States Senator                                   Mark Yancey                           Precinct 201                                           01 
01060030004000014REP       United States Senator                                   Mark Yancey                           Precinct 202                                           01 
01060030005000014REP       United States Senator                                   Mark Yancey                           Precinct 301                                           01 
01060030006000016REP       United States Senator                                   Mark Yancey                           Precinct 401                                           01 
01060040001000099REP       United States Senator                                   John Cornyn                           Precinct 101                                           01 
01060040002000052REP       United States Senator                                   John Cornyn                           Precinct 102                                           01 
01060040003000069REP       United States Senator                                   John Cornyn                           Precinct 201                                           01 
01060040004000159REP       United States Senator                                   John Cornyn                           Precinct 202                                           01 
01060040005000266REP       United States Senator                                   John Cornyn                           Precinct 301                                           01 
01060040006000178REP       United States Senator                                   John Cornyn                           Precinct 401                                           01 
01060050001000007REP       United States Senator                                   John Anthony Castro                   Precinct 101                                           01 
01060050002000001REP       United States Senator                                   John Anthony Castro                   Precinct 102                                           01 
01060050003000004REP       United States Senator                                   John Anthony Castro                   Precinct 201                                           01 
01060050004000004REP       United States Senator                                   John Anthony Castro                   Precinct 202                                           01 
01060050005000006REP       United States Senator                                   John Anthony Castro                   Precinct 301                                           01 
01060050006000007REP       United States Senator                                   John Anthony Castro                   Precinct 401                                           01 
01060060001000000REP       United States Senator                                   OVER VOTES                            Precinct 101                                           01 
01060060002000000REP       United States Senator                                   OVER VOTES                            Precinct 102                                           01 
01060060003000000REP       United States Senator                                   OVER VOTES                            Precinct 201                                           01 
01060060004000000REP       United States Senator                                   OVER VOTES                            Precinct 202                                           01 
01060060005000000REP       United States Senator                                   OVER VOTES                            Precinct 301                                           01 
01060060006000000REP       United States Senator                                   OVER VOTES                            Precinct 401                                           01 
01060070001000012REP       United States Senator                                   UNDER VOTES                           Precinct 101                                           01 
01060070002000005REP       United States Senator                                   UNDER VOTES                           Precinct 102                                           01 
01060070003000009REP       United States Senator                                   UNDER VOTES                           Precinct 201                                           01 
01060070004000018REP       United States Senator                                   UNDER VOTES                           Precinct 202                                           01 
01060070005000021REP       United States Senator                                   UNDER VOTES                           Precinct 301                                           01 
01060070006000019REP       United States Senator                                   UNDER VOTES                           Precinct 401                                           01 
01070010001000000REP       US Representative, District 13                          Diane Knowlton                        Precinct 101                                           01 
01070010002000000REP       US Representative, District 13                          Diane Knowlton                        Precinct 102                                           01 
01070010003000001REP       US Representative, District 13                          Diane Knowlton                        Precinct 201                                           01 
01070010004000002REP       US Representative, District 13                          Diane Knowlton                        Precinct 202                                           01 
01070010005000001REP       US Representative, District 13                          Diane Knowlton                        Precinct 301                                           01 
01070010006000001REP       US Representative, District 13                          Diane Knowlton                        Precinct 401                                           01 
01070020001000009REP       US Representative, District 13                          Vance Snider II                       Precinct 101                                           01 
01070020002000002REP       US Representative, District 13                          Vance Snider II                       Precinct 102                                           01 
01070020003000008REP       US Representative, District 13                          Vance Snider II                       Precinct 201                                           01 
01070020004000011REP       US Representative, District 13                          Vance Snider II                       Precinct 202                                           01 
01070020005000008REP       US Representative, District 13                          Vance Snider II                       Precinct 301                                           01 
01070020006000009REP       US Representative, District 13                          Vance Snider II                       Precinct 401                                           01 
01070030001000001REP       US Representative, District 13                          Asusena Resendiz                      Precinct 101                                           01 
01070030002000001REP       US Representative, District 13                          Asusena Resendiz                      Precinct 102                                           01 
01070030003000003REP       US Representative, District 13                          Asusena Resendiz                      Precinct 201                                           01 
01070030004000002REP       US Representative, District 13                          Asusena Resendiz                      Precinct 202                                           01 
01070030005000002REP       US Representative, District 13                          Asusena Resendiz                      Precinct 301                                           01 
01070030006000000REP       US Representative, District 13                          Asusena Resendiz                      Precinct 401                                           01 
01070040001000012REP       US Representative, District 13                          Chris Ekstrom                         Precinct 101                                           01 
01070040002000009REP       US Representative, District 13                          Chris Ekstrom                         Precinct 102                                           01 
01070040003000013REP       US Representative, District 13                          Chris Ekstrom                         Precinct 201                                           01 
01070040004000028REP       US Representative, District 13                          Chris Ekstrom                         Precinct 202                                           01 
01070040005000026REP       US Representative, District 13                          Chris Ekstrom                         Precinct 301                                           01 
01070040006000024REP       US Representative, District 13                          Chris Ekstrom                         Precinct 401                                           01 
01070050001000014REP       US Representative, District 13                          Ronny Jackson                         Precinct 101                                           01 
01070050002000014REP       US Representative, District 13                          Ronny Jackson                         Precinct 102                                           01 
01070050003000015REP       US Representative, District 13                          Ronny Jackson                         Precinct 201                                           01 
01070050004000034REP       US Representative, District 13                          Ronny Jackson                         Precinct 202                                           01 
01070050005000060REP       US Representative, District 13                          Ronny Jackson                         Precinct 301                                           01 
01070050006000043REP       US Representative, District 13                          Ronny Jackson                         Precinct 401                                           01 
01070060001000004REP       US Representative, District 13                          Matt McArthur                         Precinct 101                                           01 
01070060002000000REP       US Representative, District 13                          Matt McArthur                         Precinct 102                                           01 
01070060003000004REP       US Representative, District 13                          Matt McArthur                         Precinct 201                                           01 
01070060004000002REP       US Representative, District 13                          Matt McArthur                         Precinct 202                                           01 
01070060005000000REP       US Representative, District 13                          Matt McArthur                         Precinct 301                                           01 
01070060006000002REP       US Representative, District 13                          Matt McArthur                         Precinct 401                                           01 
01070070001000000REP       US Representative, District 13                          Richard Herman                        Precinct 101                                           01 
01070070002000000REP       US Representative, District 13                          Richard Herman                        Precinct 102                                           01 
01070070003000002REP       US Representative, District 13                          Richard Herman                        Precinct 201                                           01 
01070070004000001REP       US Representative, District 13                          Richard Herman                        Precinct 202                                           01 
01070070005000002REP       US Representative, District 13                          Richard Herman                        Precinct 301                                           01 
01070070006000004REP       US Representative, District 13                          Richard Herman                        Precinct 401                                           01 
01070080001000001REP       US Representative, District 13                          Mark Neese                            Precinct 101                                           01 
01070080002000001REP       US Representative, District 13                          Mark Neese                            Precinct 102                                           01 
01070080003000001REP       US Representative, District 13                          Mark Neese                            Precinct 201                                           01 
01070080004000002REP       US Representative, District 13                          Mark Neese                            Precinct 202                                           01 
01070080005000001REP       US Representative, District 13                          Mark Neese                            Precinct 301                                           01 
01070080006000000REP       US Representative, District 13                          Mark Neese                            Precinct 401                                           01 
01070090001000000REP       US Representative, District 13                          Catherine "I Swear" Carr              Precinct 101                                           01 
01070090002000001REP       US Representative, District 13                          Catherine "I Swear" Carr              Precinct 102                                           01 
01070090003000001REP       US Representative, District 13                          Catherine "I Swear" Carr              Precinct 201                                           01 
01070090004000000REP       US Representative, District 13                          Catherine "I Swear" Carr              Precinct 202                                           01 
01070090005000000REP       US Representative, District 13                          Catherine "I Swear" Carr              Precinct 301                                           01 
01070090006000000REP       US Representative, District 13                          Catherine "I Swear" Carr              Precinct 401                                           01 
01070100001000003REP       US Representative, District 13                          Lee Harvey                            Precinct 101                                           01 
01070100002000000REP       US Representative, District 13                          Lee Harvey                            Precinct 102                                           01 
01070100003000001REP       US Representative, District 13                          Lee Harvey                            Precinct 201                                           01 
01070100004000001REP       US Representative, District 13                          Lee Harvey                            Precinct 202                                           01 
01070100005000000REP       US Representative, District 13                          Lee Harvey                            Precinct 301                                           01 
01070100006000000REP       US Representative, District 13                          Lee Harvey                            Precinct 401                                           01 
01070110001000008REP       US Representative, District 13                          Elaine Hays                           Precinct 101                                           01 
01070110002000002REP       US Representative, District 13                          Elaine Hays                           Precinct 102                                           01 
01070110003000002REP       US Representative, District 13                          Elaine Hays                           Precinct 201                                           01 
01070110004000006REP       US Representative, District 13                          Elaine Hays                           Precinct 202                                           01 
01070110005000008REP       US Representative, District 13                          Elaine Hays                           Precinct 301                                           01 
01070110006000011REP       US Representative, District 13                          Elaine Hays                           Precinct 401                                           01 
01070120001000000REP       US Representative, District 13                          Jason Foglesong                       Precinct 101                                           01 
01070120002000002REP       US Representative, District 13                          Jason Foglesong                       Precinct 102                                           01 
01070120003000001REP       US Representative, District 13                          Jason Foglesong                       Precinct 201                                           01 
01070120004000001REP       US Representative, District 13                          Jason Foglesong                       Precinct 202                                           01 
01070120005000001REP       US Representative, District 13                          Jason Foglesong                       Precinct 301                                           01 
01070120006000001REP       US Representative, District 13                          Jason Foglesong                       Precinct 401                                           01 
01070130001000000REP       US Representative, District 13                          Jamie Culley                          Precinct 101                                           01 
01070130002000000REP       US Representative, District 13                          Jamie Culley                          Precinct 102                                           01 
01070130003000000REP       US Representative, District 13                          Jamie Culley                          Precinct 201                                           01 
01070130004000000REP       US Representative, District 13                          Jamie Culley                          Precinct 202                                           01 
01070130005000001REP       US Representative, District 13                          Jamie Culley                          Precinct 301                                           01 
01070130006000001REP       US Representative, District 13                          Jamie Culley                          Precinct 401                                           01 
01070140001000092REP       US Representative, District 13                          Josh Winegarner                       Precinct 101                                           01 
01070140002000044REP       US Representative, District 13                          Josh Winegarner                       Precinct 102                                           01 
01070140003000052REP       US Representative, District 13                          Josh Winegarner                       Precinct 201                                           01 
01070140004000127REP       US Representative, District 13                          Josh Winegarner                       Precinct 202                                           01 
01070140005000215REP       US Representative, District 13                          Josh Winegarner                       Precinct 301                                           01 
01070140006000152REP       US Representative, District 13                          Josh Winegarner                       Precinct 401                                           01 
01070150001000000REP       US Representative, District 13                          Monique Worthy                        Precinct 101                                           01 
01070150002000001REP       US Representative, District 13                          Monique Worthy                        Precinct 102                                           01 
01070150003000000REP       US Representative, District 13                          Monique Worthy                        Precinct 201                                           01 
01070150004000000REP       US Representative, District 13                          Monique Worthy                        Precinct 202                                           01 
01070150005000004REP       US Representative, District 13                          Monique Worthy                        Precinct 301                                           01 
01070150006000002REP       US Representative, District 13                          Monique Worthy                        Precinct 401                                           01 
01070160001000000REP       US Representative, District 13                          OVER VOTES                            Precinct 101                                           01 
01070160002000000REP       US Representative, District 13                          OVER VOTES                            Precinct 102                                           01 
01070160003000000REP       US Representative, District 13                          OVER VOTES                            Precinct 201                                           01 
01070160004000000REP       US Representative, District 13                          OVER VOTES                            Precinct 202                                           01 
01070160005000000REP       US Representative, District 13                          OVER VOTES                            Precinct 301                                           01 
01070160006000000REP       US Representative, District 13                          OVER VOTES                            Precinct 401                                           01 
01070170001000008REP       US Representative, District 13                          UNDER VOTES                           Precinct 101                                           01 
01070170002000001REP       US Representative, District 13                          UNDER VOTES                           Precinct 102                                           01 
01070170003000002REP       US Representative, District 13                          UNDER VOTES                           Precinct 201                                           01 
01070170004000004REP       US Representative, District 13                          UNDER VOTES                           Precinct 202                                           01 
01070170005000007REP       US Representative, District 13                          UNDER VOTES                           Precinct 301                                           01 
01070170006000006REP       US Representative, District 13                          UNDER VOTES                           Precinct 401                                           01 
01080010001000057REP       Railroad Commissioner                                   Ryan Sitton                           Precinct 101                                           01 
01080010002000036REP       Railroad Commissioner                                   Ryan Sitton                           Precinct 102                                           01 
01080010003000035REP       Railroad Commissioner                                   Ryan Sitton                           Precinct 201                                           01 
01080010004000079REP       Railroad Commissioner                                   Ryan Sitton                           Precinct 202                                           01 
01080010005000115REP       Railroad Commissioner                                   Ryan Sitton                           Precinct 301                                           01 
01080010006000081REP       Railroad Commissioner                                   Ryan Sitton                           Precinct 401                                           01 
01080020001000071REP       Railroad Commissioner                                   James "Jim" Wright                    Precinct 101                                           01 
01080020002000031REP       Railroad Commissioner                                   James "Jim" Wright                    Precinct 102                                           01 
01080020003000064REP       Railroad Commissioner                                   James "Jim" Wright                    Precinct 201                                           01 
01080020004000096REP       Railroad Commissioner                                   James "Jim" Wright                    Precinct 202                                           01 
01080020005000149REP       Railroad Commissioner                                   James "Jim" Wright                    Precinct 301                                           01 
01080020006000145REP       Railroad Commissioner                                   James "Jim" Wright                    Precinct 401                                           01 
01080030001000000REP       Railroad Commissioner                                   OVER VOTES                            Precinct 101                                           01 
01080030002000000REP       Railroad Commissioner                                   OVER VOTES                            Precinct 102                                           01 
01080030003000000REP       Railroad Commissioner                                   OVER VOTES                            Precinct 201                                           01 
01080030004000000REP       Railroad Commissioner                                   OVER VOTES                            Precinct 202                                           01 
01080030005000000REP       Railroad Commissioner                                   OVER VOTES                            Precinct 301                                           01 
01080030006000000REP       Railroad Commissioner                                   OVER VOTES                            Precinct 401                                           01 
01080040001000024REP       Railroad Commissioner                                   UNDER VOTES                           Precinct 101                                           01 
01080040002000011REP       Railroad Commissioner                                   UNDER VOTES                           Precinct 102                                           01 
01080040003000007REP       Railroad Commissioner                                   UNDER VOTES                           Precinct 201                                           01 
01080040004000046REP       Railroad Commissioner                                   UNDER VOTES                           Precinct 202                                           01 
01080040005000072REP       Railroad Commissioner                                   UNDER VOTES                           Precinct 301                                           01 
01080040006000030REP       Railroad Commissioner                                   UNDER VOTES                           Precinct 401                                           01 
01090010001000123REP       Chief Justice, Supreme Court                            Nathan Hecht                          Precinct 101                                           01 
01090010002000064REP       Chief Justice, Supreme Court                            Nathan Hecht                          Precinct 102                                           01 
01090010003000086REP       Chief Justice, Supreme Court                            Nathan Hecht                          Precinct 201                                           01 
01090010004000170REP       Chief Justice, Supreme Court                            Nathan Hecht                          Precinct 202                                           01 
01090010005000258REP       Chief Justice, Supreme Court                            Nathan Hecht                          Precinct 301                                           01 
01090010006000214REP       Chief Justice, Supreme Court                            Nathan Hecht                          Precinct 401                                           01 
01090020001000000REP       Chief Justice, Supreme Court                            OVER VOTES                            Precinct 101                                           01 
01090020002000000REP       Chief Justice, Supreme Court                            OVER VOTES                            Precinct 102                                           01 
01090020003000000REP       Chief Justice, Supreme Court                            OVER VOTES                            Precinct 201                                           01 
01090020004000000REP       Chief Justice, Supreme Court                            OVER VOTES                            Precinct 202                                           01 
01090020005000000REP       Chief Justice, Supreme Court                            OVER VOTES                            Precinct 301                                           01 
01090020006000000REP       Chief Justice, Supreme Court                            OVER VOTES                            Precinct 401                                           01 
01090030001000029REP       Chief Justice, Supreme Court                            UNDER VOTES                           Precinct 101                                           01 
01090030002000014REP       Chief Justice, Supreme Court                            UNDER VOTES                           Precinct 102                                           01 
01090030003000020REP       Chief Justice, Supreme Court                            UNDER VOTES                           Precinct 201                                           01 
01090030004000051REP       Chief Justice, Supreme Court                            UNDER VOTES                           Precinct 202                                           01 
01090030005000078REP       Chief Justice, Supreme Court                            UNDER VOTES                           Precinct 301                                           01 
01090030006000042REP       Chief Justice, Supreme Court                            UNDER VOTES                           Precinct 401                                           01 
01100010001000119REP       Justice, Supreme Court, Place 6                         Jane Bland                            Precinct 101                                           01 
01100010002000062REP       Justice, Supreme Court, Place 6                         Jane Bland                            Precinct 102                                           01 
01100010003000087REP       Justice, Supreme Court, Place 6                         Jane Bland                            Precinct 201                                           01 
01100010004000170REP       Justice, Supreme Court, Place 6                         Jane Bland                            Precinct 202                                           01 
01100010005000255REP       Justice, Supreme Court, Place 6                         Jane Bland                            Precinct 301                                           01 
01100010006000213REP       Justice, Supreme Court, Place 6                         Jane Bland                            Precinct 401                                           01 
01100020001000000REP       Justice, Supreme Court, Place 6                         OVER VOTES                            Precinct 101                                           01 
01100020002000000REP       Justice, Supreme Court, Place 6                         OVER VOTES                            Precinct 102                                           01 
01100020003000000REP       Justice, Supreme Court, Place 6                         OVER VOTES                            Precinct 201                                           01 
01100020004000000REP       Justice, Supreme Court, Place 6                         OVER VOTES                            Precinct 202                                           01 
01100020005000000REP       Justice, Supreme Court, Place 6                         OVER VOTES                            Precinct 301                                           01 
01100020006000000REP       Justice, Supreme Court, Place 6                         OVER VOTES                            Precinct 401                                           01 
01100030001000033REP       Justice, Supreme Court, Place 6                         UNDER VOTES                           Precinct 101                                           01 
01100030002000016REP       Justice, Supreme Court, Place 6                         UNDER VOTES                           Precinct 102                                           01 
01100030003000019REP       Justice, Supreme Court, Place 6                         UNDER VOTES                           Precinct 201                                           01 
01100030004000051REP       Justice, Supreme Court, Place 6                         UNDER VOTES                           Precinct 202                                           01 
01100030005000081REP       Justice, Supreme Court, Place 6                         UNDER VOTES                           Precinct 301                                           01 
01100030006000043REP       Justice, Supreme Court, Place 6                         UNDER VOTES                           Precinct 401                                           01 
01110010001000121REP       Justice, Supreme Court, Place 7                         Jeff Boyd                             Precinct 101                                           01 
01110010002000061REP       Justice, Supreme Court, Place 7                         Jeff Boyd                             Precinct 102                                           01 
01110010003000087REP       Justice, Supreme Court, Place 7                         Jeff Boyd                             Precinct 201                                           01 
01110010004000170REP       Justice, Supreme Court, Place 7                         Jeff Boyd                             Precinct 202                                           01 
01110010005000255REP       Justice, Supreme Court, Place 7                         Jeff Boyd                             Precinct 301                                           01 
01110010006000212REP       Justice, Supreme Court, Place 7                         Jeff Boyd                             Precinct 401                                           01 
01110020001000000REP       Justice, Supreme Court, Place 7                         OVER VOTES                            Precinct 101                                           01 
01110020002000000REP       Justice, Supreme Court, Place 7                         OVER VOTES                            Precinct 102                                           01 
01110020003000000REP       Justice, Supreme Court, Place 7                         OVER VOTES                            Precinct 201                                           01 
01110020004000000REP       Justice, Supreme Court, Place 7                         OVER VOTES                            Precinct 202                                           01 
01110020005000000REP       Justice, Supreme Court, Place 7                         OVER VOTES                            Precinct 301                                           01 
01110020006000000REP       Justice, Supreme Court, Place 7                         OVER VOTES                            Precinct 401                                           01 
01110030001000031REP       Justice, Supreme Court, Place 7                         UNDER VOTES                           Precinct 101                                           01 
01110030002000017REP       Justice, Supreme Court, Place 7                         UNDER VOTES                           Precinct 102                                           01 
01110030003000019REP       Justice, Supreme Court, Place 7                         UNDER VOTES                           Precinct 201                                           01 
01110030004000051REP       Justice, Supreme Court, Place 7                         UNDER VOTES                           Precinct 202                                           01 
01110030005000081REP       Justice, Supreme Court, Place 7                         UNDER VOTES                           Precinct 301                                           01 
01110030006000044REP       Justice, Supreme Court, Place 7                         UNDER VOTES                           Precinct 401                                           01 
01120010001000120REP       Justice, Supreme Court, Place 8                         Brett Busby                           Precinct 101                                           01 
01120010002000062REP       Justice, Supreme Court, Place 8                         Brett Busby                           Precinct 102                                           01 
01120010003000087REP       Justice, Supreme Court, Place 8                         Brett Busby                           Precinct 201                                           01 
01120010004000168REP       Justice, Supreme Court, Place 8                         Brett Busby                           Precinct 202                                           01 
01120010005000256REP       Justice, Supreme Court, Place 8                         Brett Busby                           Precinct 301                                           01 
01120010006000216REP       Justice, Supreme Court, Place 8                         Brett Busby                           Precinct 401                                           01 
01120020001000000REP       Justice, Supreme Court, Place 8                         OVER VOTES                            Precinct 101                                           01 
01120020002000000REP       Justice, Supreme Court, Place 8                         OVER VOTES                            Precinct 102                                           01 
01120020003000000REP       Justice, Supreme Court, Place 8                         OVER VOTES                            Precinct 201                                           01 
01120020004000000REP       Justice, Supreme Court, Place 8                         OVER VOTES                            Precinct 202                                           01 
01120020005000000REP       Justice, Supreme Court, Place 8                         OVER VOTES                            Precinct 301                                           01 
01120020006000000REP       Justice, Supreme Court, Place 8                         OVER VOTES                            Precinct 401                                           01 
01120030001000032REP       Justice, Supreme Court, Place 8                         UNDER VOTES                           Precinct 101                                           01 
01120030002000016REP       Justice, Supreme Court, Place 8                         UNDER VOTES                           Precinct 102                                           01 
01120030003000019REP       Justice, Supreme Court, Place 8                         UNDER VOTES                           Precinct 201                                           01 
01120030004000053REP       Justice, Supreme Court, Place 8                         UNDER VOTES                           Precinct 202                                           01 
01120030005000080REP       Justice, Supreme Court, Place 8                         UNDER VOTES                           Precinct 301                                           01 
01120030006000040REP       Justice, Supreme Court, Place 8                         UNDER VOTES                           Precinct 401                                           01 
01130010001000049REP       Judge, Court of Criminal Appeals, Pl 3                  Gina Parker                           Precinct 101                                           01 
01130010002000039REP       Judge, Court of Criminal Appeals, Pl 3                  Gina Parker                           Precinct 102                                           01 
01130010003000038REP       Judge, Court of Criminal Appeals, Pl 3                  Gina Parker                           Precinct 201                                           01 
01130010004000080REP       Judge, Court of Criminal Appeals, Pl 3                  Gina Parker                           Precinct 202                                           01 
01130010005000123REP       Judge, Court of Criminal Appeals, Pl 3                  Gina Parker                           Precinct 301                                           01 
01130010006000103REP       Judge, Court of Criminal Appeals, Pl 3                  Gina Parker                           Precinct 401                                           01 
01130020001000068REP       Judge, Court of Criminal Appeals, Pl 3                  Bert Richardson                       Precinct 101                                           01 
01130020002000031REP       Judge, Court of Criminal Appeals, Pl 3                  Bert Richardson                       Precinct 102                                           01 
01130020003000057REP       Judge, Court of Criminal Appeals, Pl 3                  Bert Richardson                       Precinct 201                                           01 
01130020004000091REP       Judge, Court of Criminal Appeals, Pl 3                  Bert Richardson                       Precinct 202                                           01 
01130020005000130REP       Judge, Court of Criminal Appeals, Pl 3                  Bert Richardson                       Precinct 301                                           01 
01130020006000118REP       Judge, Court of Criminal Appeals, Pl 3                  Bert Richardson                       Precinct 401                                           01 
01130030001000001REP       Judge, Court of Criminal Appeals, Pl 3                  OVER VOTES                            Precinct 101                                           01 
01130030002000000REP       Judge, Court of Criminal Appeals, Pl 3                  OVER VOTES                            Precinct 102                                           01 
01130030003000000REP       Judge, Court of Criminal Appeals, Pl 3                  OVER VOTES                            Precinct 201                                           01 
01130030004000000REP       Judge, Court of Criminal Appeals, Pl 3                  OVER VOTES                            Precinct 202                                           01 
01130030005000000REP       Judge, Court of Criminal Appeals, Pl 3                  OVER VOTES                            Precinct 301                                           01 
01130030006000000REP       Judge, Court of Criminal Appeals, Pl 3                  OVER VOTES                            Precinct 401                                           01 
01130040001000034REP       Judge, Court of Criminal Appeals, Pl 3                  UNDER VOTES                           Precinct 101                                           01 
01130040002000008REP       Judge, Court of Criminal Appeals, Pl 3                  UNDER VOTES                           Precinct 102                                           01 
01130040003000011REP       Judge, Court of Criminal Appeals, Pl 3                  UNDER VOTES                           Precinct 201                                           01 
01130040004000050REP       Judge, Court of Criminal Appeals, Pl 3                  UNDER VOTES                           Precinct 202                                           01 
01130040005000083REP       Judge, Court of Criminal Appeals, Pl 3                  UNDER VOTES                           Precinct 301                                           01 
01130040006000035REP       Judge, Court of Criminal Appeals, Pl 3                  UNDER VOTES                           Precinct 401                                           01 
01140010001000117REP       Judge, Court of Criminal Appeals, Pl 4                  Kevin Patrick Yeary                   Precinct 101                                           01 
01140010002000062REP       Judge, Court of Criminal Appeals, Pl 4                  Kevin Patrick Yeary                   Precinct 102                                           01 
01140010003000086REP       Judge, Court of Criminal Appeals, Pl 4                  Kevin Patrick Yeary                   Precinct 201                                           01 
01140010004000166REP       Judge, Court of Criminal Appeals, Pl 4                  Kevin Patrick Yeary                   Precinct 202                                           01 
01140010005000256REP       Judge, Court of Criminal Appeals, Pl 4                  Kevin Patrick Yeary                   Precinct 301                                           01 
01140010006000213REP       Judge, Court of Criminal Appeals, Pl 4                  Kevin Patrick Yeary                   Precinct 401                                           01 
01140020001000000REP       Judge, Court of Criminal Appeals, Pl 4                  OVER VOTES                            Precinct 101                                           01 
01140020002000000REP       Judge, Court of Criminal Appeals, Pl 4                  OVER VOTES                            Precinct 102                                           01 
01140020003000000REP       Judge, Court of Criminal Appeals, Pl 4                  OVER VOTES                            Precinct 201                                           01 
01140020004000000REP       Judge, Court of Criminal Appeals, Pl 4                  OVER VOTES                            Precinct 202                                           01 
01140020005000000REP       Judge, Court of Criminal Appeals, Pl 4                  OVER VOTES                            Precinct 301                                           01 
01140020006000000REP       Judge, Court of Criminal Appeals, Pl 4                  OVER VOTES                            Precinct 401                                           01 
01140030001000035REP       Judge, Court of Criminal Appeals, Pl 4                  UNDER VOTES                           Precinct 101                                           01 
01140030002000016REP       Judge, Court of Criminal Appeals, Pl 4                  UNDER VOTES                           Precinct 102                                           01 
01140030003000020REP       Judge, Court of Criminal Appeals, Pl 4                  UNDER VOTES                           Precinct 201                                           01 
01140030004000055REP       Judge, Court of Criminal Appeals, Pl 4                  UNDER VOTES                           Precinct 202                                           01 
01140030005000080REP       Judge, Court of Criminal Appeals, Pl 4                  UNDER VOTES                           Precinct 301                                           01 
01140030006000043REP       Judge, Court of Criminal Appeals, Pl 4                  UNDER VOTES                           Precinct 401                                           01 
01150010001000118REP       Judge, Court of Criminal Appeals, Pl 9                  David Newell                          Precinct 101                                           01 
01150010002000062REP       Judge, Court of Criminal Appeals, Pl 9                  David Newell                          Precinct 102                                           01 
01150010003000085REP       Judge, Court of Criminal Appeals, Pl 9                  David Newell                          Precinct 201                                           01 
01150010004000167REP       Judge, Court of Criminal Appeals, Pl 9                  David Newell                          Precinct 202                                           01 
01150010005000254REP       Judge, Court of Criminal Appeals, Pl 9                  David Newell                          Precinct 301                                           01 
01150010006000214REP       Judge, Court of Criminal Appeals, Pl 9                  David Newell                          Precinct 401                                           01 
01150020001000000REP       Judge, Court of Criminal Appeals, Pl 9                  OVER VOTES                            Precinct 101                                           01 
01150020002000000REP       Judge, Court of Criminal Appeals, Pl 9                  OVER VOTES                            Precinct 102                                           01 
01150020003000000REP       Judge, Court of Criminal Appeals, Pl 9                  OVER VOTES                            Precinct 201                                           01 
01150020004000000REP       Judge, Court of Criminal Appeals, Pl 9                  OVER VOTES                            Precinct 202                                           01 
01150020005000000REP       Judge, Court of Criminal Appeals, Pl 9                  OVER VOTES                            Precinct 301                                           01 
01150020006000000REP       Judge, Court of Criminal Appeals, Pl 9                  OVER VOTES                            Precinct 401                                           01 
01150030001000034REP       Judge, Court of Criminal Appeals, Pl 9                  UNDER VOTES                           Precinct 101                                           01 
01150030002000016REP       Judge, Court of Criminal Appeals, Pl 9                  UNDER VOTES                           Precinct 102                                           01 
01150030003000021REP       Judge, Court of Criminal Appeals, Pl 9                  UNDER VOTES                           Precinct 201                                           01 
01150030004000054REP       Judge, Court of Criminal Appeals, Pl 9                  UNDER VOTES                           Precinct 202                                           01 
01150030005000082REP       Judge, Court of Criminal Appeals, Pl 9                  UNDER VOTES                           Precinct 301                                           01 
01150030006000042REP       Judge, Court of Criminal Appeals, Pl 9                  UNDER VOTES                           Precinct 401                                           01 
01160010001000117REP       Member, State BoE, District 15                          Jay Johnson                           Precinct 101                                           01 
01160010002000062REP       Member, State BoE, District 15                          Jay Johnson                           Precinct 102                                           01 
01160010003000086REP       Member, State BoE, District 15                          Jay Johnson                           Precinct 201                                           01 
01160010004000169REP       Member, State BoE, District 15                          Jay Johnson                           Precinct 202                                           01 
01160010005000257REP       Member, State BoE, District 15                          Jay Johnson                           Precinct 301                                           01 
01160010006000213REP       Member, State BoE, District 15                          Jay Johnson                           Precinct 401                                           01 
01160020001000000REP       Member, State BoE, District 15                          OVER VOTES                            Precinct 101                                           01 
01160020002000000REP       Member, State BoE, District 15                          OVER VOTES                            Precinct 102                                           01 
01160020003000000REP       Member, State BoE, District 15                          OVER VOTES                            Precinct 201                                           01 
01160020004000000REP       Member, State BoE, District 15                          OVER VOTES                            Precinct 202                                           01 
01160020005000000REP       Member, State BoE, District 15                          OVER VOTES                            Precinct 301                                           01 
01160020006000000REP       Member, State BoE, District 15                          OVER VOTES                            Precinct 401                                           01 
01160030001000035REP       Member, State BoE, District 15                          UNDER VOTES                           Precinct 101                                           01 
01160030002000016REP       Member, State BoE, District 15                          UNDER VOTES                           Precinct 102                                           01 
01160030003000020REP       Member, State BoE, District 15                          UNDER VOTES                           Precinct 201                                           01 
01160030004000052REP       Member, State BoE, District 15                          UNDER VOTES                           Precinct 202                                           01 
01160030005000079REP       Member, State BoE, District 15                          UNDER VOTES                           Precinct 301                                           01 
01160030006000043REP       Member, State BoE, District 15                          UNDER VOTES                           Precinct 401                                           01 
01170010001000123REP       State Representative, District 86                       John Smithee                          Precinct 101                                           01 
01170010002000063REP       State Representative, District 86                       John Smithee                          Precinct 102                                           01 
01170010003000089REP       State Representative, District 86                       John Smithee                          Precinct 201                                           01 
01170010004000176REP       State Representative, District 86                       John Smithee                          Precinct 202                                           01 
01170010005000276REP       State Representative, District 86                       John Smithee                          Precinct 301                                           01 
01170010006000226REP       State Representative, District 86                       John Smithee                          Precinct 401                                           01 
01170020001000000REP       State Representative, District 86                       OVER VOTES                            Precinct 101                                           01 
01170020002000000REP       State Representative, District 86                       OVER VOTES                            Precinct 102                                           01 
01170020003000000REP       State Representative, District 86                       OVER VOTES                            Precinct 201                                           01 
01170020004000000REP       State Representative, District 86                       OVER VOTES                            Precinct 202                                           01 
01170020005000000REP       State Representative, District 86                       OVER VOTES                            Precinct 301                                           01 
01170020006000000REP       State Representative, District 86                       OVER VOTES                            Precinct 401                                           01 
01170030001000029REP       State Representative, District 86                       UNDER VOTES                           Precinct 101                                           01 
01170030002000015REP       State Representative, District 86                       UNDER VOTES                           Precinct 102                                           01 
01170030003000017REP       State Representative, District 86                       UNDER VOTES                           Precinct 201                                           01 
01170030004000045REP       State Representative, District 86                       UNDER VOTES                           Precinct 202                                           01 
01170030005000060REP       State Representative, District 86                       UNDER VOTES                           Precinct 301                                           01 
01170030006000030REP       State Representative, District 86                       UNDER VOTES                           Precinct 401                                           01 
01180010001000117REP       Chief Justice, 7th Ct of Appeals Dist                   Brian Quinn                           Precinct 101                                           01 
01180010002000062REP       Chief Justice, 7th Ct of Appeals Dist                   Brian Quinn                           Precinct 102                                           01 
01180010003000086REP       Chief Justice, 7th Ct of Appeals Dist                   Brian Quinn                           Precinct 201                                           01 
01180010004000167REP       Chief Justice, 7th Ct of Appeals Dist                   Brian Quinn                           Precinct 202                                           01 
01180010005000252REP       Chief Justice, 7th Ct of Appeals Dist                   Brian Quinn                           Precinct 301                                           01 
01180010006000211REP       Chief Justice, 7th Ct of Appeals Dist                   Brian Quinn                           Precinct 401                                           01 
01180020001000000REP       Chief Justice, 7th Ct of Appeals Dist                   OVER VOTES                            Precinct 101                                           01 
01180020002000000REP       Chief Justice, 7th Ct of Appeals Dist                   OVER VOTES                            Precinct 102                                           01 
01180020003000000REP       Chief Justice, 7th Ct of Appeals Dist                   OVER VOTES                            Precinct 201                                           01 
01180020004000000REP       Chief Justice, 7th Ct of Appeals Dist                   OVER VOTES                            Precinct 202                                           01 
01180020005000000REP       Chief Justice, 7th Ct of Appeals Dist                   OVER VOTES                            Precinct 301                                           01 
01180020006000000REP       Chief Justice, 7th Ct of Appeals Dist                   OVER VOTES                            Precinct 401                                           01 
01180030001000035REP       Chief Justice, 7th Ct of Appeals Dist                   UNDER VOTES                           Precinct 101                                           01 
01180030002000016REP       Chief Justice, 7th Ct of Appeals Dist                   UNDER VOTES                           Precinct 102                                           01 
01180030003000020REP       Chief Justice, 7th Ct of Appeals Dist                   UNDER VOTES                           Precinct 201                                           01 
01180030004000054REP       Chief Justice, 7th Ct of Appeals Dist                   UNDER VOTES                           Precinct 202                                           01 
01180030005000084REP       Chief Justice, 7th Ct of Appeals Dist                   UNDER VOTES                           Precinct 301                                           01 
01180030006000045REP       Chief Justice, 7th Ct of Appeals Dist                   UNDER VOTES                           Precinct 401                                           01 
01190010001000060REP       Justice, 7th Court of Appeals Dist, P4                  Steven Denny                          Precinct 101                                           01 
01190010002000041REP       Justice, 7th Court of Appeals Dist, P4                  Steven Denny                          Precinct 102                                           01 
01190010003000053REP       Justice, 7th Court of Appeals Dist, P4                  Steven Denny                          Precinct 201                                           01 
01190010004000096REP       Justice, 7th Court of Appeals Dist, P4                  Steven Denny                          Precinct 202                                           01 
01190010005000145REP       Justice, 7th Court of Appeals Dist, P4                  Steven Denny                          Precinct 301                                           01 
01190010006000136REP       Justice, 7th Court of Appeals Dist, P4                  Steven Denny                          Precinct 401                                           01 
01190020001000054REP       Justice, 7th Court of Appeals Dist, P4                  Larry Doss                            Precinct 101                                           01 
01190020002000027REP       Justice, 7th Court of Appeals Dist, P4                  Larry Doss                            Precinct 102                                           01 
01190020003000041REP       Justice, 7th Court of Appeals Dist, P4                  Larry Doss                            Precinct 201                                           01 
01190020004000069REP       Justice, 7th Court of Appeals Dist, P4                  Larry Doss                            Precinct 202                                           01 
01190020005000108REP       Justice, 7th Court of Appeals Dist, P4                  Larry Doss                            Precinct 301                                           01 
01190020006000078REP       Justice, 7th Court of Appeals Dist, P4                  Larry Doss                            Precinct 401                                           01 
01190030001000000REP       Justice, 7th Court of Appeals Dist, P4                  OVER VOTES                            Precinct 101                                           01 
01190030002000001REP       Justice, 7th Court of Appeals Dist, P4                  OVER VOTES                            Precinct 102                                           01 
01190030003000000REP       Justice, 7th Court of Appeals Dist, P4                  OVER VOTES                            Precinct 201                                           01 
01190030004000000REP       Justice, 7th Court of Appeals Dist, P4                  OVER VOTES                            Precinct 202                                           01 
01190030005000000REP       Justice, 7th Court of Appeals Dist, P4                  OVER VOTES                            Precinct 301                                           01 
01190030006000001REP       Justice, 7th Court of Appeals Dist, P4                  OVER VOTES                            Precinct 401                                           01 
01190040001000038REP       Justice, 7th Court of Appeals Dist, P4                  UNDER VOTES                           Precinct 101                                           01 
01190040002000009REP       Justice, 7th Court of Appeals Dist, P4                  UNDER VOTES                           Precinct 102                                           01 
01190040003000012REP       Justice, 7th Court of Appeals Dist, P4                  UNDER VOTES                           Precinct 201                                           01 
01190040004000056REP       Justice, 7th Court of Appeals Dist, P4                  UNDER VOTES                           Precinct 202                                           01 
01190040005000083REP       Justice, 7th Court of Appeals Dist, P4                  UNDER VOTES                           Precinct 301                                           01 
01190040006000041REP       Justice, 7th Court of Appeals Dist, P4                  UNDER VOTES                           Precinct 401                                           01 
01200010001000110REP       District Attorney, 69th Judicial Dist                   Erin Lands                            Precinct 101                                           01 
01200010002000066REP       District Attorney, 69th Judicial Dist                   Erin Lands                            Precinct 102                                           01 
01200010003000072REP       District Attorney, 69th Judicial Dist                   Erin Lands                            Precinct 201                                           01 
01200010004000169REP       District Attorney, 69th Judicial Dist                   Erin Lands                            Precinct 202                                           01 
01200010005000248REP       District Attorney, 69th Judicial Dist                   Erin Lands                            Precinct 301                                           01 
01200010006000204REP       District Attorney, 69th Judicial Dist                   Erin Lands                            Precinct 401                                           01 
01200020001000026REP       District Attorney, 69th Judicial Dist                   Tim Salley                            Precinct 101                                           01 
01200020002000010REP       District Attorney, 69th Judicial Dist                   Tim Salley                            Precinct 102                                           01 
01200020003000032REP       District Attorney, 69th Judicial Dist                   Tim Salley                            Precinct 201                                           01 
01200020004000043REP       District Attorney, 69th Judicial Dist                   Tim Salley                            Precinct 202                                           01 
01200020005000067REP       District Attorney, 69th Judicial Dist                   Tim Salley                            Precinct 301                                           01 
01200020006000043REP       District Attorney, 69th Judicial Dist                   Tim Salley                            Precinct 401                                           01 
01200030001000000REP       District Attorney, 69th Judicial Dist                   OVER VOTES                            Precinct 101                                           01 
01200030002000000REP       District Attorney, 69th Judicial Dist                   OVER VOTES                            Precinct 102                                           01 
01200030003000000REP       District Attorney, 69th Judicial Dist                   OVER VOTES                            Precinct 201                                           01 
01200030004000000REP       District Attorney, 69th Judicial Dist                   OVER VOTES                            Precinct 202                                           01 
01200030005000000REP       District Attorney, 69th Judicial Dist                   OVER VOTES                            Precinct 301                                           01 
01200030006000000REP       District Attorney, 69th Judicial Dist                   OVER VOTES                            Precinct 401                                           01 
01200040001000016REP       District Attorney, 69th Judicial Dist                   UNDER VOTES                           Precinct 101                                           01 
01200040002000002REP       District Attorney, 69th Judicial Dist                   UNDER VOTES                           Precinct 102                                           01 
01200040003000002REP       District Attorney, 69th Judicial Dist                   UNDER VOTES                           Precinct 201                                           01 
01200040004000009REP       District Attorney, 69th Judicial Dist                   UNDER VOTES                           Precinct 202                                           01 
01200040005000021REP       District Attorney, 69th Judicial Dist                   UNDER VOTES                           Precinct 301                                           01 
01200040006000009REP       District Attorney, 69th Judicial Dist                   UNDER VOTES                           Precinct 401                                           01 
01210010001000132REP       County Attorney                                         Robert (Rob) Elliott                  Precinct 101                                           01 
01210010002000061REP       County Attorney                                         Robert (Rob) Elliott                  Precinct 102                                           01 
01210010003000087REP       County Attorney                                         Robert (Rob) Elliott                  Precinct 201                                           01 
01210010004000174REP       County Attorney                                         Robert (Rob) Elliott                  Precinct 202                                           01 
01210010005000286REP       County Attorney                                         Robert (Rob) Elliott                  Precinct 301                                           01 
01210010006000226REP       County Attorney                                         Robert (Rob) Elliott                  Precinct 401                                           01 
01210020001000000REP       County Attorney                                         OVER VOTES                            Precinct 101                                           01 
01210020002000000REP       County Attorney                                         OVER VOTES                            Precinct 102                                           01 
01210020003000000REP       County Attorney                                         OVER VOTES                            Precinct 201                                           01 
01210020004000000REP       County Attorney                                         OVER VOTES                            Precinct 202                                           01 
01210020005000000REP       County Attorney                                         OVER VOTES                            Precinct 301                                           01 
01210020006000000REP       County Attorney                                         OVER VOTES                            Precinct 401                                           01 
01210030001000020REP       County Attorney                                         UNDER VOTES                           Precinct 101                                           01 
01210030002000017REP       County Attorney                                         UNDER VOTES                           Precinct 102                                           01 
01210030003000019REP       County Attorney                                         UNDER VOTES                           Precinct 201                                           01 
01210030004000047REP       County Attorney                                         UNDER VOTES                           Precinct 202                                           01 
01210030005000050REP       County Attorney                                         UNDER VOTES                           Precinct 301                                           01 
01210030006000030REP       County Attorney                                         UNDER VOTES                           Precinct 401                                           01 
01220010001000142REP       Sheriff and Tax Assessor-Collector                      Chanze Fowler                         Precinct 101                                           01 
01220010002000061REP       Sheriff and Tax Assessor-Collector                      Chanze Fowler                         Precinct 102                                           01 
01220010003000090REP       Sheriff and Tax Assessor-Collector                      Chanze Fowler                         Precinct 201                                           01 
01220010004000181REP       Sheriff and Tax Assessor-Collector                      Chanze Fowler                         Precinct 202                                           01 
01220010005000290REP       Sheriff and Tax Assessor-Collector                      Chanze Fowler                         Precinct 301                                           01 
01220010006000228REP       Sheriff and Tax Assessor-Collector                      Chanze Fowler                         Precinct 401                                           01 
01220020001000000REP       Sheriff and Tax Assessor-Collector                      OVER VOTES                            Precinct 101                                           01 
01220020002000000REP       Sheriff and Tax Assessor-Collector                      OVER VOTES                            Precinct 102                                           01 
01220020003000000REP       Sheriff and Tax Assessor-Collector                      OVER VOTES                            Precinct 201                                           01 
01220020004000000REP       Sheriff and Tax Assessor-Collector                      OVER VOTES                            Precinct 202                                           01 
01220020005000000REP       Sheriff and Tax Assessor-Collector                      OVER VOTES                            Precinct 301                                           01 
01220020006000000REP       Sheriff and Tax Assessor-Collector                      OVER VOTES                            Precinct 401                                           01 
01220030001000010REP       Sheriff and Tax Assessor-Collector                      UNDER VOTES                           Precinct 101                                           01 
01220030002000017REP       Sheriff and Tax Assessor-Collector                      UNDER VOTES                           Precinct 102                                           01 
01220030003000016REP       Sheriff and Tax Assessor-Collector                      UNDER VOTES                           Precinct 201                                           01 
01220030004000040REP       Sheriff and Tax Assessor-Collector                      UNDER VOTES                           Precinct 202                                           01 
01220030005000046REP       Sheriff and Tax Assessor-Collector                      UNDER VOTES                           Precinct 301                                           01 
01220030006000028REP       Sheriff and Tax Assessor-Collector                      UNDER VOTES                           Precinct 401                                           01 
01230010001000089REP       County Commissioner, Precinct No. 1                     David R. Vincent                      Precinct 101                                           01 
01230010002000036REP       County Commissioner, Precinct No. 1                     David R. Vincent                      Precinct 102                                           01 
01230020001000063REP       County Commissioner, Precinct No. 1                     Wade Lenz                             Precinct 101                                           01 
01230020002000042REP       County Commissioner, Precinct No. 1                     Wade Lenz                             Precinct 102                                           01 
01230030001000000REP       County Commissioner, Precinct No. 1                     OVER VOTES                            Precinct 101                                           01 
01230030002000000REP       County Commissioner, Precinct No. 1                     OVER VOTES                            Precinct 102                                           01 
01230040001000000REP       County Commissioner, Precinct No. 1                     UNDER VOTES                           Precinct 101                                           01 
01230040002000000REP       County Commissioner, Precinct No. 1                     UNDER VOTES                           Precinct 102                                           01 
01240010005000283REP       County Commissioner, Precinct No. 3                     Chad Hicks                            Precinct 301                                           01 
01240020005000000REP       County Commissioner, Precinct No. 3                     OVER VOTES                            Precinct 301                                           01 
01240030005000053REP       County Commissioner, Precinct No. 3                     UNDER VOTES                           Precinct 301                                           01 
01250010001000135REP       County Chair                                            Mike Thompson                         Precinct 101                                           01 
01250010002000062REP       County Chair                                            Mike Thompson                         Precinct 102                                           01 
01250010003000085REP       County Chair                                            Mike Thompson                         Precinct 201                                           01 
01250010004000169REP       County Chair                                            Mike Thompson                         Precinct 202                                           01 
01250010005000270REP       County Chair                                            Mike Thompson                         Precinct 301                                           01 
01250010006000219REP       County Chair                                            Mike Thompson                         Precinct 401                                           01 
01250020001000000REP       County Chair                                            OVER VOTES                            Precinct 101                                           01 
01250020002000000REP       County Chair                                            OVER VOTES                            Precinct 102                                           01 
01250020003000000REP       County Chair                                            OVER VOTES                            Precinct 201                                           01 
01250020004000000REP       County Chair                                            OVER VOTES                            Precinct 202                                           01 
01250020005000000REP       County Chair                                            OVER VOTES                            Precinct 301                                           01 
01250020006000000REP       County Chair                                            OVER VOTES                            Precinct 401                                           01 
01250030001000017REP       County Chair                                            UNDER VOTES                           Precinct 101                                           01 
01250030002000016REP       County Chair                                            UNDER VOTES                           Precinct 102                                           01 
01250030003000021REP       County Chair                                            UNDER VOTES                           Precinct 201                                           01 
01250030004000052REP       County Chair                                            UNDER VOTES                           Precinct 202                                           01 
01250030005000066REP       County Chair                                            UNDER VOTES                           Precinct 301                                           01 
01250030006000037REP       County Chair                                            UNDER VOTES                           Precinct 401                                           01 
01260010001000001DEM       President                                               Joseph R. Biden                       Precinct 101                                           01 
