00010010001000487          REGISTERED VOTERS - TOTAL                               REGISTERED VOTERS - TOTAL             Precinct 101                                           00 
00010010002000529          REGISTERED VOTERS - TOTAL                               REGISTERED VOTERS - TOTAL             Precinct 201                                           00 
00010010003000028          REGISTERED VOTERS - TOTAL                               REGISTERED VOTERS - TOTAL             Precinct 202                                           00 
00010010004000600          REGISTERED VOTERS - TOTAL                               REGISTERED VOTERS - TOTAL             Precinct 301                                           00 
00010010005000043          REGISTERED VOTERS - TOTAL                               REGISTERED VOTERS - TOTAL             Precinct 302                                           00 
00010010006000095          REGISTERED VOTERS - TOTAL                               REGISTERED VOTERS - TOTAL             Precinct 303                                           00 
00010010007000386          REGISTERED VOTERS - TOTAL                               REGISTERED VOTERS - TOTAL             Precinct 401                                           00 
00010010008000131          REGISTERED VOTERS - TOTAL                               REGISTERED VOTERS - TOTAL             Precinct 402                                           00 
00040010001000159REP       BALLOTS CAST - Republican Party                         BALLOTS CAST - Republican Party       Precinct 101                                           00 
00040010002000151REP       BALLOTS CAST - Republican Party                         BALLOTS CAST - Republican Party       Precinct 201                                           00 
00040010003000016REP       BALLOTS CAST - Republican Party                         BALLOTS CAST - Republican Party       Precinct 202                                           00 
00040010004000243REP       BALLOTS CAST - Republican Party                         BALLOTS CAST - Republican Party       Precinct 301                                           00 
00040010005000023REP       BALLOTS CAST - Republican Party                         BALLOTS CAST - Republican Party       Precinct 302                                           00 
00040010006000046REP       BALLOTS CAST - Republican Party                         BALLOTS CAST - Republican Party       Precinct 303                                           00 
00040010007000126REP       BALLOTS CAST - Republican Party                         BALLOTS CAST - Republican Party       Precinct 401                                           00 
00040010008000054REP       BALLOTS CAST - Republican Party                         BALLOTS CAST - Republican Party       Precinct 402                                           00 
00050010001000000REP       REP President                                           Bob Ely                               Precinct 101                                           01 
00050010002000000REP       REP President                                           Bob Ely                               Precinct 201                                           01 
00050010003000000REP       REP President                                           Bob Ely                               Precinct 202                                           01 
00050010004000000REP       REP President                                           Bob Ely                               Precinct 301                                           01 
00050010005000000REP       REP President                                           Bob Ely                               Precinct 302                                           01 
00050010006000000REP       REP President                                           Bob Ely                               Precinct 303                                           01 
00050010007000000REP       REP President                                           Bob Ely                               Precinct 401                                           01 
00050010008000000REP       REP President                                           Bob Ely                               Precinct 402                                           01 
00050020001000002REP       REP President                                           Roque Rocky DeLa Fuente Guerra        Precinct 101                                           01 
00050020002000000REP       REP President                                           Roque Rocky DeLa Fuente Guerra        Precinct 201                                           01 
00050020003000000REP       REP President                                           Roque Rocky DeLa Fuente Guerra        Precinct 202                                           01 
00050020004000000REP       REP President                                           Roque Rocky DeLa Fuente Guerra        Precinct 301                                           01 
00050020005000000REP       REP President                                           Roque Rocky DeLa Fuente Guerra        Precinct 302                                           01 
00050020006000000REP       REP President                                           Roque Rocky DeLa Fuente Guerra        Precinct 303                                           01 
00050020007000000REP       REP President                                           Roque Rocky DeLa Fuente Guerra        Precinct 401                                           01 
00050020008000000REP       REP President                                           Roque Rocky DeLa Fuente Guerra        Precinct 402                                           01 
00050030001000000REP       REP President                                           Zoltan G. Istvan                      Precinct 101                                           01 
00050030002000000REP       REP President                                           Zoltan G. Istvan                      Precinct 201                                           01 
00050030003000000REP       REP President                                           Zoltan G. Istvan                      Precinct 202                                           01 
00050030004000000REP       REP President                                           Zoltan G. Istvan                      Precinct 301                                           01 
00050030005000000REP       REP President                                           Zoltan G. Istvan                      Precinct 302                                           01 
00050030006000000REP       REP President                                           Zoltan G. Istvan                      Precinct 303                                           01 
00050030007000000REP       REP President                                           Zoltan G. Istvan                      Precinct 401                                           01 
00050030008000000REP       REP President                                           Zoltan G. Istvan                      Precinct 402                                           01 
00050040001000150REP       REP President                                           Donald J. Trump                       Precinct 101                                           01 
00050040002000141REP       REP President                                           Donald J. Trump                       Precinct 201                                           01 
00050040003000016REP       REP President                                           Donald J. Trump                       Precinct 202                                           01 
00050040004000225REP       REP President                                           Donald J. Trump                       Precinct 301                                           01 
00050040005000023REP       REP President                                           Donald J. Trump                       Precinct 302                                           01 
00050040006000045REP       REP President                                           Donald J. Trump                       Precinct 303                                           01 
00050040007000121REP       REP President                                           Donald J. Trump                       Precinct 401                                           01 
00050040008000047REP       REP President                                           Donald J. Trump                       Precinct 402                                           01 
00050050001000000REP       REP President                                           Matthew John Matern                   Precinct 101                                           01 
00050050002000000REP       REP President                                           Matthew John Matern                   Precinct 201                                           01 
00050050003000000REP       REP President                                           Matthew John Matern                   Precinct 202                                           01 
00050050004000000REP       REP President                                           Matthew John Matern                   Precinct 301                                           01 
00050050005000000REP       REP President                                           Matthew John Matern                   Precinct 302                                           01 
00050050006000000REP       REP President                                           Matthew John Matern                   Precinct 303                                           01 
00050050007000000REP       REP President                                           Matthew John Matern                   Precinct 401                                           01 
00050050008000000REP       REP President                                           Matthew John Matern                   Precinct 402                                           01 
00050060001000001REP       REP President                                           Bill Weld                             Precinct 101                                           01 
00050060002000003REP       REP President                                           Bill Weld                             Precinct 201                                           01 
00050060003000000REP       REP President                                           Bill Weld                             Precinct 202                                           01 
00050060004000002REP       REP President                                           Bill Weld                             Precinct 301                                           01 
00050060005000000REP       REP President                                           Bill Weld                             Precinct 302                                           01 
00050060006000000REP       REP President                                           Bill Weld                             Precinct 303                                           01 
00050060007000000REP       REP President                                           Bill Weld                             Precinct 401                                           01 
00050060008000001REP       REP President                                           Bill Weld                             Precinct 402                                           01 
00050070001000000REP       REP President                                           Joe Walsh                             Precinct 101                                           01 
00050070002000001REP       REP President                                           Joe Walsh                             Precinct 201                                           01 
00050070003000000REP       REP President                                           Joe Walsh                             Precinct 202                                           01 
00050070004000002REP       REP President                                           Joe Walsh                             Precinct 301                                           01 
00050070005000000REP       REP President                                           Joe Walsh                             Precinct 302                                           01 
00050070006000000REP       REP President                                           Joe Walsh                             Precinct 303                                           01 
00050070007000001REP       REP President                                           Joe Walsh                             Precinct 401                                           01 
00050070008000000REP       REP President                                           Joe Walsh                             Precinct 402                                           01 
00050080001000003REP       REP President                                           Uncommitted                           Precinct 101                                           01 
00050080002000006REP       REP President                                           Uncommitted                           Precinct 201                                           01 
00050080003000000REP       REP President                                           Uncommitted                           Precinct 202                                           01 
00050080004000007REP       REP President                                           Uncommitted                           Precinct 301                                           01 
00050080005000000REP       REP President                                           Uncommitted                           Precinct 302                                           01 
00050080006000001REP       REP President                                           Uncommitted                           Precinct 303                                           01 
00050080007000003REP       REP President                                           Uncommitted                           Precinct 401                                           01 
00050080008000004REP       REP President                                           Uncommitted                           Precinct 402                                           01 
00060010001000008REP       REP US Senator                                          John Anthony Castro                   Precinct 101                                           01 
00060010002000011REP       REP US Senator                                          John Anthony Castro                   Precinct 201                                           01 
00060010003000001REP       REP US Senator                                          John Anthony Castro                   Precinct 202                                           01 
00060010004000004REP       REP US Senator                                          John Anthony Castro                   Precinct 301                                           01 
00060010005000001REP       REP US Senator                                          John Anthony Castro                   Precinct 302                                           01 
00060010006000000REP       REP US Senator                                          John Anthony Castro                   Precinct 303                                           01 
00060010007000002REP       REP US Senator                                          John Anthony Castro                   Precinct 401                                           01 
00060010008000005REP       REP US Senator                                          John Anthony Castro                   Precinct 402                                           01 
00060020001000002REP       REP US Senator                                          Virgil Bierschwale                    Precinct 101                                           01 
00060020002000000REP       REP US Senator                                          Virgil Bierschwale                    Precinct 201                                           01 
00060020003000001REP       REP US Senator                                          Virgil Bierschwale                    Precinct 202                                           01 
00060020004000002REP       REP US Senator                                          Virgil Bierschwale                    Precinct 301                                           01 
00060020005000000REP       REP US Senator                                          Virgil Bierschwale                    Precinct 302                                           01 
00060020006000000REP       REP US Senator                                          Virgil Bierschwale                    Precinct 303                                           01 
00060020007000002REP       REP US Senator                                          Virgil Bierschwale                    Precinct 401                                           01 
00060020008000000REP       REP US Senator                                          Virgil Bierschwale                    Precinct 402                                           01 
00060030001000105REP       REP US Senator                                          John Cornyn                           Precinct 101                                           01 
00060030002000103REP       REP US Senator                                          John Cornyn                           Precinct 201                                           01 
00060030003000011REP       REP US Senator                                          John Cornyn                           Precinct 202                                           01 
00060030004000183REP       REP US Senator                                          John Cornyn                           Precinct 301                                           01 
00060030005000018REP       REP US Senator                                          John Cornyn                           Precinct 302                                           01 
00060030006000029REP       REP US Senator                                          John Cornyn                           Precinct 303                                           01 
00060030007000096REP       REP US Senator                                          John Cornyn                           Precinct 401                                           01 
00060030008000044REP       REP US Senator                                          John Cornyn                           Precinct 402                                           01 
00060040001000019REP       REP US Senator                                          Dwayne Stovall                        Precinct 101                                           01 
00060040002000013REP       REP US Senator                                          Dwayne Stovall                        Precinct 201                                           01 
00060040003000000REP       REP US Senator                                          Dwayne Stovall                        Precinct 202                                           01 
00060040004000017REP       REP US Senator                                          Dwayne Stovall                        Precinct 301                                           01 
00060040005000002REP       REP US Senator                                          Dwayne Stovall                        Precinct 302                                           01 
00060040006000010REP       REP US Senator                                          Dwayne Stovall                        Precinct 303                                           01 
00060040007000013REP       REP US Senator                                          Dwayne Stovall                        Precinct 401                                           01 
00060040008000001REP       REP US Senator                                          Dwayne Stovall                        Precinct 402                                           01 
00060050001000008REP       REP US Senator                                          Mark Yancey                           Precinct 101                                           01 
00060050002000006REP       REP US Senator                                          Mark Yancey                           Precinct 201                                           01 
00060050003000001REP       REP US Senator                                          Mark Yancey                           Precinct 202                                           01 
00060050004000004REP       REP US Senator                                          Mark Yancey                           Precinct 301                                           01 
00060050005000002REP       REP US Senator                                          Mark Yancey                           Precinct 302                                           01 
00060050006000003REP       REP US Senator                                          Mark Yancey                           Precinct 303                                           01 
00060050007000005REP       REP US Senator                                          Mark Yancey                           Precinct 401                                           01 
00060050008000002REP       REP US Senator                                          Mark Yancey                           Precinct 402                                           01 
00070010001000001REP       REP US Representative, Dist 13                          Jamie Culley                          Precinct 101                                           01 
00070010002000001REP       REP US Representative, Dist 13                          Jamie Culley                          Precinct 201                                           01 
00070010003000000REP       REP US Representative, Dist 13                          Jamie Culley                          Precinct 202                                           01 
00070010004000001REP       REP US Representative, Dist 13                          Jamie Culley                          Precinct 301                                           01 
00070010005000000REP       REP US Representative, Dist 13                          Jamie Culley                          Precinct 302                                           01 
00070010006000000REP       REP US Representative, Dist 13                          Jamie Culley                          Precinct 303                                           01 
00070010007000000REP       REP US Representative, Dist 13                          Jamie Culley                          Precinct 401                                           01 
00070010008000000REP       REP US Representative, Dist 13                          Jamie Culley                          Precinct 402                                           01 
00070020001000001REP       REP US Representative, Dist 13                          Richard Herman                        Precinct 101                                           01 
00070020002000002REP       REP US Representative, Dist 13                          Richard Herman                        Precinct 201                                           01 
00070020003000000REP       REP US Representative, Dist 13                          Richard Herman                        Precinct 202                                           01 
00070020004000000REP       REP US Representative, Dist 13                          Richard Herman                        Precinct 301                                           01 
00070020005000000REP       REP US Representative, Dist 13                          Richard Herman                        Precinct 302                                           01 
00070020006000000REP       REP US Representative, Dist 13                          Richard Herman                        Precinct 303                                           01 
00070020007000000REP       REP US Representative, Dist 13                          Richard Herman                        Precinct 401                                           01 
00070020008000000REP       REP US Representative, Dist 13                          Richard Herman                        Precinct 402                                           01 
00070030001000000REP       REP US Representative, Dist 13                          Monique Worthy                        Precinct 101                                           01 
00070030002000001REP       REP US Representative, Dist 13                          Monique Worthy                        Precinct 201                                           01 
00070030003000000REP       REP US Representative, Dist 13                          Monique Worthy                        Precinct 202                                           01 
00070030004000001REP       REP US Representative, Dist 13                          Monique Worthy                        Precinct 301                                           01 
00070030005000000REP       REP US Representative, Dist 13                          Monique Worthy                        Precinct 302                                           01 
00070030006000000REP       REP US Representative, Dist 13                          Monique Worthy                        Precinct 303                                           01 
00070030007000000REP       REP US Representative, Dist 13                          Monique Worthy                        Precinct 401                                           01 
00070030008000000REP       REP US Representative, Dist 13                          Monique Worthy                        Precinct 402                                           01 
00070040001000006REP       REP US Representative, Dist 13                          Elaine Hays                           Precinct 101                                           01 
00070040002000006REP       REP US Representative, Dist 13                          Elaine Hays                           Precinct 201                                           01 
00070040003000000REP       REP US Representative, Dist 13                          Elaine Hays                           Precinct 202                                           01 
00070040004000009REP       REP US Representative, Dist 13                          Elaine Hays                           Precinct 301                                           01 
00070040005000000REP       REP US Representative, Dist 13                          Elaine Hays                           Precinct 302                                           01 
00070040006000007REP       REP US Representative, Dist 13                          Elaine Hays                           Precinct 303                                           01 
00070040007000006REP       REP US Representative, Dist 13                          Elaine Hays                           Precinct 401                                           01 
00070040008000005REP       REP US Representative, Dist 13                          Elaine Hays                           Precinct 402                                           01 
00070050001000091REP       REP US Representative, Dist 13                          Josh Winegarner                       Precinct 101                                           01 
00070050002000090REP       REP US Representative, Dist 13                          Josh Winegarner                       Precinct 201                                           01 
00070050003000007REP       REP US Representative, Dist 13                          Josh Winegarner                       Precinct 202                                           01 
00070050004000140REP       REP US Representative, Dist 13                          Josh Winegarner                       Precinct 301                                           01 
00070050005000016REP       REP US Representative, Dist 13                          Josh Winegarner                       Precinct 302                                           01 
00070050006000018REP       REP US Representative, Dist 13                          Josh Winegarner                       Precinct 303                                           01 
00070050007000068REP       REP US Representative, Dist 13                          Josh Winegarner                       Precinct 401                                           01 
00070050008000033REP       REP US Representative, Dist 13                          Josh Winegarner                       Precinct 402                                           01 
00070060001000002REP       REP US Representative, Dist 13                          Vance Snider II                       Precinct 101                                           01 
00070060002000002REP       REP US Representative, Dist 13                          Vance Snider II                       Precinct 201                                           01 
00070060003000000REP       REP US Representative, Dist 13                          Vance Snider II                       Precinct 202                                           01 
00070060004000007REP       REP US Representative, Dist 13                          Vance Snider II                       Precinct 301                                           01 
00070060005000001REP       REP US Representative, Dist 13                          Vance Snider II                       Precinct 302                                           01 
00070060006000002REP       REP US Representative, Dist 13                          Vance Snider II                       Precinct 303                                           01 
00070060007000003REP       REP US Representative, Dist 13                          Vance Snider II                       Precinct 401                                           01 
00070060008000001REP       REP US Representative, Dist 13                          Vance Snider II                       Precinct 402                                           01 
00070070001000003REP       REP US Representative, Dist 13                          Mark Neese                            Precinct 101                                           01 
00070070002000003REP       REP US Representative, Dist 13                          Mark Neese                            Precinct 201                                           01 
00070070003000000REP       REP US Representative, Dist 13                          Mark Neese                            Precinct 202                                           01 
00070070004000001REP       REP US Representative, Dist 13                          Mark Neese                            Precinct 301                                           01 
00070070005000000REP       REP US Representative, Dist 13                          Mark Neese                            Precinct 302                                           01 
00070070006000000REP       REP US Representative, Dist 13                          Mark Neese                            Precinct 303                                           01 
00070070007000000REP       REP US Representative, Dist 13                          Mark Neese                            Precinct 401                                           01 
00070070008000000REP       REP US Representative, Dist 13                          Mark Neese                            Precinct 402                                           01 
00070080001000001REP       REP US Representative, Dist 13                          Jason Foglesong                       Precinct 101                                           01 
00070080002000001REP       REP US Representative, Dist 13                          Jason Foglesong                       Precinct 201                                           01 
00070080003000000REP       REP US Representative, Dist 13                          Jason Foglesong                       Precinct 202                                           01 
00070080004000002REP       REP US Representative, Dist 13                          Jason Foglesong                       Precinct 301                                           01 
00070080005000000REP       REP US Representative, Dist 13                          Jason Foglesong                       Precinct 302                                           01 
00070080006000000REP       REP US Representative, Dist 13                          Jason Foglesong                       Precinct 303                                           01 
00070080007000000REP       REP US Representative, Dist 13                          Jason Foglesong                       Precinct 401                                           01 
00070080008000000REP       REP US Representative, Dist 13                          Jason Foglesong                       Precinct 402                                           01 
00070090001000003REP       REP US Representative, Dist 13                          Matt McArthur                         Precinct 101                                           01 
00070090002000002REP       REP US Representative, Dist 13                          Matt McArthur                         Precinct 201                                           01 
00070090003000000REP       REP US Representative, Dist 13                          Matt McArthur                         Precinct 202                                           01 
00070090004000001REP       REP US Representative, Dist 13                          Matt McArthur                         Precinct 301                                           01 
00070090005000000REP       REP US Representative, Dist 13                          Matt McArthur                         Precinct 302                                           01 
00070090006000000REP       REP US Representative, Dist 13                          Matt McArthur                         Precinct 303                                           01 
00070090007000002REP       REP US Representative, Dist 13                          Matt McArthur                         Precinct 401                                           01 
00070090008000000REP       REP US Representative, Dist 13                          Matt McArthur                         Precinct 402                                           01 
00070100001000030REP       REP US Representative, Dist 13                          Ronny Jackson                         Precinct 101                                           01 
00070100002000026REP       REP US Representative, Dist 13                          Ronny Jackson                         Precinct 201                                           01 
00070100003000006REP       REP US Representative, Dist 13                          Ronny Jackson                         Precinct 202                                           01 
00070100004000046REP       REP US Representative, Dist 13                          Ronny Jackson                         Precinct 301                                           01 
00070100005000005REP       REP US Representative, Dist 13                          Ronny Jackson                         Precinct 302                                           01 
00070100006000015REP       REP US Representative, Dist 13                          Ronny Jackson                         Precinct 303                                           01 
00070100007000035REP       REP US Representative, Dist 13                          Ronny Jackson                         Precinct 401                                           01 
00070100008000008REP       REP US Representative, Dist 13                          Ronny Jackson                         Precinct 402                                           01 
00070110001000003REP       REP US Representative, Dist 13                          Asusena Reséndiz                      Precinct 101                                           01 
00070110002000003REP       REP US Representative, Dist 13                          Asusena Reséndiz                      Precinct 201                                           01 
00070110003000000REP       REP US Representative, Dist 13                          Asusena Reséndiz                      Precinct 202                                           01 
00070110004000001REP       REP US Representative, Dist 13                          Asusena Reséndiz                      Precinct 301                                           01 
00070110005000000REP       REP US Representative, Dist 13                          Asusena Reséndiz                      Precinct 302                                           01 
00070110006000000REP       REP US Representative, Dist 13                          Asusena Reséndiz                      Precinct 303                                           01 
00070110007000000REP       REP US Representative, Dist 13                          Asusena Reséndiz                      Precinct 401                                           01 
00070110008000001REP       REP US Representative, Dist 13                          Asusena Reséndiz                      Precinct 402                                           01 
00070120001000008REP       REP US Representative, Dist 13                          Chris Ekstrom                         Precinct 101                                           01 
00070120002000010REP       REP US Representative, Dist 13                          Chris Ekstrom                         Precinct 201                                           01 
00070120003000002REP       REP US Representative, Dist 13                          Chris Ekstrom                         Precinct 202                                           01 
00070120004000012REP       REP US Representative, Dist 13                          Chris Ekstrom                         Precinct 301                                           01 
00070120005000000REP       REP US Representative, Dist 13                          Chris Ekstrom                         Precinct 302                                           01 
00070120006000001REP       REP US Representative, Dist 13                          Chris Ekstrom                         Precinct 303                                           01 
00070120007000003REP       REP US Representative, Dist 13                          Chris Ekstrom                         Precinct 401                                           01 
00070120008000004REP       REP US Representative, Dist 13                          Chris Ekstrom                         Precinct 402                                           01 
00070130001000000REP       REP US Representative, Dist 13                          Diane Knowlton                        Precinct 101                                           01 
00070130002000000REP       REP US Representative, Dist 13                          Diane Knowlton                        Precinct 201                                           01 
00070130003000000REP       REP US Representative, Dist 13                          Diane Knowlton                        Precinct 202                                           01 
00070130004000001REP       REP US Representative, Dist 13                          Diane Knowlton                        Precinct 301                                           01 
00070130005000000REP       REP US Representative, Dist 13                          Diane Knowlton                        Precinct 302                                           01 
00070130006000000REP       REP US Representative, Dist 13                          Diane Knowlton                        Precinct 303                                           01 
00070130007000001REP       REP US Representative, Dist 13                          Diane Knowlton                        Precinct 401                                           01 
00070130008000000REP       REP US Representative, Dist 13                          Diane Knowlton                        Precinct 402                                           01 
00070140001000001REP       REP US Representative, Dist 13                          Lee Harvey                            Precinct 101                                           01 
00070140002000000REP       REP US Representative, Dist 13                          Lee Harvey                            Precinct 201                                           01 
00070140003000000REP       REP US Representative, Dist 13                          Lee Harvey                            Precinct 202                                           01 
00070140004000001REP       REP US Representative, Dist 13                          Lee Harvey                            Precinct 301                                           01 
00070140005000000REP       REP US Representative, Dist 13                          Lee Harvey                            Precinct 302                                           01 
00070140006000000REP       REP US Representative, Dist 13                          Lee Harvey                            Precinct 303                                           01 
00070140007000000REP       REP US Representative, Dist 13                          Lee Harvey                            Precinct 401                                           01 
00070140008000000REP       REP US Representative, Dist 13                          Lee Harvey                            Precinct 402                                           01 
00070150001000003REP       REP US Representative, Dist 13                          Catherine "I Swear" Carr              Precinct 101                                           01 
00070150002000000REP       REP US Representative, Dist 13                          Catherine "I Swear" Carr              Precinct 201                                           01 
00070150003000000REP       REP US Representative, Dist 13                          Catherine "I Swear" Carr              Precinct 202                                           01 
00070150004000003REP       REP US Representative, Dist 13                          Catherine "I Swear" Carr              Precinct 301                                           01 
00070150005000000REP       REP US Representative, Dist 13                          Catherine "I Swear" Carr              Precinct 302                                           01 
00070150006000000REP       REP US Representative, Dist 13                          Catherine "I Swear" Carr              Precinct 303                                           01 
00070150007000002REP       REP US Representative, Dist 13                          Catherine "I Swear" Carr              Precinct 401                                           01 
00070150008000000REP       REP US Representative, Dist 13                          Catherine "I Swear" Carr              Precinct 402                                           01 
00080010001000087REP       REP Railroad Commissioner                               James "Jim" Wright                    Precinct 101                                           01 
00080010002000065REP       REP Railroad Commissioner                               James "Jim" Wright                    Precinct 201                                           01 
00080010003000007REP       REP Railroad Commissioner                               James "Jim" Wright                    Precinct 202                                           01 
00080010004000111REP       REP Railroad Commissioner                               James "Jim" Wright                    Precinct 301                                           01 
00080010005000010REP       REP Railroad Commissioner                               James "Jim" Wright                    Precinct 302                                           01 
00080010006000023REP       REP Railroad Commissioner                               James "Jim" Wright                    Precinct 303                                           01 
00080010007000063REP       REP Railroad Commissioner                               James "Jim" Wright                    Precinct 401                                           01 
00080010008000031REP       REP Railroad Commissioner                               James "Jim" Wright                    Precinct 402                                           01 
00080020001000038REP       REP Railroad Commissioner                               Ryan Sitton                           Precinct 101                                           01 
00080020002000049REP       REP Railroad Commissioner                               Ryan Sitton                           Precinct 201                                           01 
00080020003000003REP       REP Railroad Commissioner                               Ryan Sitton                           Precinct 202                                           01 
00080020004000077REP       REP Railroad Commissioner                               Ryan Sitton                           Precinct 301                                           01 
00080020005000010REP       REP Railroad Commissioner                               Ryan Sitton                           Precinct 302                                           01 
00080020006000019REP       REP Railroad Commissioner                               Ryan Sitton                           Precinct 303                                           01 
00080020007000036REP       REP Railroad Commissioner                               Ryan Sitton                           Precinct 401                                           01 
00080020008000012REP       REP Railroad Commissioner                               Ryan Sitton                           Precinct 402                                           01 
00090010001000118REP       REP Chief Justice, Supreme Court                        Nathan Hecht                          Precinct 101                                           01 
00090010002000103REP       REP Chief Justice, Supreme Court                        Nathan Hecht                          Precinct 201                                           01 
00090010003000011REP       REP Chief Justice, Supreme Court                        Nathan Hecht                          Precinct 202                                           01 
00090010004000177REP       REP Chief Justice, Supreme Court                        Nathan Hecht                          Precinct 301                                           01 
00090010005000018REP       REP Chief Justice, Supreme Court                        Nathan Hecht                          Precinct 302                                           01 
00090010006000037REP       REP Chief Justice, Supreme Court                        Nathan Hecht                          Precinct 303                                           01 
00090010007000100REP       REP Chief Justice, Supreme Court                        Nathan Hecht                          Precinct 401                                           01 
00090010008000037REP       REP Chief Justice, Supreme Court                        Nathan Hecht                          Precinct 402                                           01 
00100010001000117REP       REP Justice, Supreme Court, Pl 6                        Jane Bland                            Precinct 101                                           01 
00100010002000099REP       REP Justice, Supreme Court, Pl 6                        Jane Bland                            Precinct 201                                           01 
00100010003000011REP       REP Justice, Supreme Court, Pl 6                        Jane Bland                            Precinct 202                                           01 
00100010004000172REP       REP Justice, Supreme Court, Pl 6                        Jane Bland                            Precinct 301                                           01 
00100010005000016REP       REP Justice, Supreme Court, Pl 6                        Jane Bland                            Precinct 302                                           01 
00100010006000037REP       REP Justice, Supreme Court, Pl 6                        Jane Bland                            Precinct 303                                           01 
00100010007000100REP       REP Justice, Supreme Court, Pl 6                        Jane Bland                            Precinct 401                                           01 
00100010008000037REP       REP Justice, Supreme Court, Pl 6                        Jane Bland                            Precinct 402                                           01 
00110010001000118REP       REP Justice, Supreme Court, Pl 7                        Jeff Boyd                             Precinct 101                                           01 
00110010002000101REP       REP Justice, Supreme Court, Pl 7                        Jeff Boyd                             Precinct 201                                           01 
00110010003000011REP       REP Justice, Supreme Court, Pl 7                        Jeff Boyd                             Precinct 202                                           01 
00110010004000173REP       REP Justice, Supreme Court, Pl 7                        Jeff Boyd                             Precinct 301                                           01 
00110010005000016REP       REP Justice, Supreme Court, Pl 7                        Jeff Boyd                             Precinct 302                                           01 
00110010006000037REP       REP Justice, Supreme Court, Pl 7                        Jeff Boyd                             Precinct 303                                           01 
00110010007000101REP       REP Justice, Supreme Court, Pl 7                        Jeff Boyd                             Precinct 401                                           01 
00110010008000037REP       REP Justice, Supreme Court, Pl 7                        Jeff Boyd                             Precinct 402                                           01 
00120010001000117REP       REP Justice, Supreme Court, Pl 8                        Brett Busby                           Precinct 101                                           01 
00120010002000101REP       REP Justice, Supreme Court, Pl 8                        Brett Busby                           Precinct 201                                           01 
00120010003000011REP       REP Justice, Supreme Court, Pl 8                        Brett Busby                           Precinct 202                                           01 
00120010004000171REP       REP Justice, Supreme Court, Pl 8                        Brett Busby                           Precinct 301                                           01 
00120010005000017REP       REP Justice, Supreme Court, Pl 8                        Brett Busby                           Precinct 302                                           01 
00120010006000037REP       REP Justice, Supreme Court, Pl 8                        Brett Busby                           Precinct 303                                           01 
00120010007000099REP       REP Justice, Supreme Court, Pl 8                        Brett Busby                           Precinct 401                                           01 
00120010008000037REP       REP Justice, Supreme Court, Pl 8                        Brett Busby                           Precinct 402                                           01 
00130010001000054REP       REP Judge, Ct of Crim App, Pl 3                         Gina Parker                           Precinct 101                                           01 
00130010002000046REP       REP Judge, Ct of Crim App, Pl 3                         Gina Parker                           Precinct 201                                           01 
00130010003000002REP       REP Judge, Ct of Crim App, Pl 3                         Gina Parker                           Precinct 202                                           01 
00130010004000071REP       REP Judge, Ct of Crim App, Pl 3                         Gina Parker                           Precinct 301                                           01 
00130010005000008REP       REP Judge, Ct of Crim App, Pl 3                         Gina Parker                           Precinct 302                                           01 
00130010006000017REP       REP Judge, Ct of Crim App, Pl 3                         Gina Parker                           Precinct 303                                           01 
00130010007000035REP       REP Judge, Ct of Crim App, Pl 3                         Gina Parker                           Precinct 401                                           01 
00130010008000018REP       REP Judge, Ct of Crim App, Pl 3                         Gina Parker                           Precinct 402                                           01 
00130020001000063REP       REP Judge, Ct of Crim App, Pl 3                         Bert Richardson                       Precinct 101                                           01 
00130020002000061REP       REP Judge, Ct of Crim App, Pl 3                         Bert Richardson                       Precinct 201                                           01 
00130020003000008REP       REP Judge, Ct of Crim App, Pl 3                         Bert Richardson                       Precinct 202                                           01 
00130020004000094REP       REP Judge, Ct of Crim App, Pl 3                         Bert Richardson                       Precinct 301                                           01 
00130020005000011REP       REP Judge, Ct of Crim App, Pl 3                         Bert Richardson                       Precinct 302                                           01 
00130020006000021REP       REP Judge, Ct of Crim App, Pl 3                         Bert Richardson                       Precinct 303                                           01 
00130020007000058REP       REP Judge, Ct of Crim App, Pl 3                         Bert Richardson                       Precinct 401                                           01 
00130020008000022REP       REP Judge, Ct of Crim App, Pl 3                         Bert Richardson                       Precinct 402                                           01 
00140010001000116REP       REP Judge, Ct of Crim App, Pl 4                         Kevin Patrick Yeary                   Precinct 101                                           01 
00140010002000097REP       REP Judge, Ct of Crim App, Pl 4                         Kevin Patrick Yeary                   Precinct 201                                           01 
00140010003000011REP       REP Judge, Ct of Crim App, Pl 4                         Kevin Patrick Yeary                   Precinct 202                                           01 
00140010004000169REP       REP Judge, Ct of Crim App, Pl 4                         Kevin Patrick Yeary                   Precinct 301                                           01 
00140010005000017REP       REP Judge, Ct of Crim App, Pl 4                         Kevin Patrick Yeary                   Precinct 302                                           01 
00140010006000037REP       REP Judge, Ct of Crim App, Pl 4                         Kevin Patrick Yeary                   Precinct 303                                           01 
00140010007000100REP       REP Judge, Ct of Crim App, Pl 4                         Kevin Patrick Yeary                   Precinct 401                                           01 
00140010008000035REP       REP Judge, Ct of Crim App, Pl 4                         Kevin Patrick Yeary                   Precinct 402                                           01 
00150010001000117REP       REP Judge, Ct of Crim App, Pl 9                         David Newell                          Precinct 101                                           01 
00150010002000101REP       REP Judge, Ct of Crim App, Pl 9                         David Newell                          Precinct 201                                           01 
00150010003000011REP       REP Judge, Ct of Crim App, Pl 9                         David Newell                          Precinct 202                                           01 
00150010004000169REP       REP Judge, Ct of Crim App, Pl 9                         David Newell                          Precinct 301                                           01 
00150010005000017REP       REP Judge, Ct of Crim App, Pl 9                         David Newell                          Precinct 302                                           01 
00150010006000037REP       REP Judge, Ct of Crim App, Pl 9                         David Newell                          Precinct 303                                           01 
00150010007000099REP       REP Judge, Ct of Crim App, Pl 9                         David Newell                          Precinct 401                                           01 
00150010008000036REP       REP Judge, Ct of Crim App, Pl 9                         David Newell                          Precinct 402                                           01 
00160010001000118REP       REP Member, State BoE, Dist 15                          Jay Johnson                           Precinct 101                                           01 
00160010002000101REP       REP Member, State BoE, Dist 15                          Jay Johnson                           Precinct 201                                           01 
00160010003000011REP       REP Member, State BoE, Dist 15                          Jay Johnson                           Precinct 202                                           01 
00160010004000173REP       REP Member, State BoE, Dist 15                          Jay Johnson                           Precinct 301                                           01 
00160010005000016REP       REP Member, State BoE, Dist 15                          Jay Johnson                           Precinct 302                                           01 
00160010006000038REP       REP Member, State BoE, Dist 15                          Jay Johnson                           Precinct 303                                           01 
00160010007000101REP       REP Member, State BoE, Dist 15                          Jay Johnson                           Precinct 401                                           01 
00160010008000036REP       REP Member, State BoE, Dist 15                          Jay Johnson                           Precinct 402                                           01 
00170010001000132REP       REP State Representative, Dist 88                       Ken King                              Precinct 101                                           01 
00170010002000122REP       REP State Representative, Dist 88                       Ken King                              Precinct 201                                           01 
00170010003000014REP       REP State Representative, Dist 88                       Ken King                              Precinct 202                                           01 
00170010004000199REP       REP State Representative, Dist 88                       Ken King                              Precinct 301                                           01 
00170010005000018REP       REP State Representative, Dist 88                       Ken King                              Precinct 302                                           01 
00170010006000037REP       REP State Representative, Dist 88                       Ken King                              Precinct 303                                           01 
00170010007000107REP       REP State Representative, Dist 88                       Ken King                              Precinct 401                                           01 
00170010008000045REP       REP State Representative, Dist 88                       Ken King                              Precinct 402                                           01 
00180010001000117REP       REP Chief Justice, 7th Ct of App Dist                   Brian Quinn                           Precinct 101                                           01 
00180010002000101REP       REP Chief Justice, 7th Ct of App Dist                   Brian Quinn                           Precinct 201                                           01 
00180010003000012REP       REP Chief Justice, 7th Ct of App Dist                   Brian Quinn                           Precinct 202                                           01 
00180010004000171REP       REP Chief Justice, 7th Ct of App Dist                   Brian Quinn                           Precinct 301                                           01 
00180010005000017REP       REP Chief Justice, 7th Ct of App Dist                   Brian Quinn                           Precinct 302                                           01 
00180010006000037REP       REP Chief Justice, 7th Ct of App Dist                   Brian Quinn                           Precinct 303                                           01 
00180010007000099REP       REP Chief Justice, 7th Ct of App Dist                   Brian Quinn                           Precinct 401                                           01 
00180010008000036REP       REP Chief Justice, 7th Ct of App Dist                   Brian Quinn                           Precinct 402                                           01 
00190010001000057REP       REP Justice, 7th Ct of App Dist, Pl 4                   Steven Denny                          Precinct 101                                           01 
00190010002000045REP       REP Justice, 7th Ct of App Dist, Pl 4                   Steven Denny                          Precinct 201                                           01 
00190010003000005REP       REP Justice, 7th Ct of App Dist, Pl 4                   Steven Denny                          Precinct 202                                           01 
00190010004000072REP       REP Justice, 7th Ct of App Dist, Pl 4                   Steven Denny                          Precinct 301                                           01 
00190010005000002REP       REP Justice, 7th Ct of App Dist, Pl 4                   Steven Denny                          Precinct 302                                           01 
00190010006000014REP       REP Justice, 7th Ct of App Dist, Pl 4                   Steven Denny                          Precinct 303                                           01 
00190010007000039REP       REP Justice, 7th Ct of App Dist, Pl 4                   Steven Denny                          Precinct 401                                           01 
00190010008000020REP       REP Justice, 7th Ct of App Dist, Pl 4                   Steven Denny                          Precinct 402                                           01 
00190020001000061REP       REP Justice, 7th Ct of App Dist, Pl 4                   Larry Doss                            Precinct 101                                           01 
00190020002000062REP       REP Justice, 7th Ct of App Dist, Pl 4                   Larry Doss                            Precinct 201                                           01 
00190020003000006REP       REP Justice, 7th Ct of App Dist, Pl 4                   Larry Doss                            Precinct 202                                           01 
00190020004000101REP       REP Justice, 7th Ct of App Dist, Pl 4                   Larry Doss                            Precinct 301                                           01 
00190020005000016REP       REP Justice, 7th Ct of App Dist, Pl 4                   Larry Doss                            Precinct 302                                           01 
00190020006000027REP       REP Justice, 7th Ct of App Dist, Pl 4                   Larry Doss                            Precinct 303                                           01 
00190020007000053REP       REP Justice, 7th Ct of App Dist, Pl 4                   Larry Doss                            Precinct 401                                           01 
00190020008000022REP       REP Justice, 7th Ct of App Dist, Pl 4                   Larry Doss                            Precinct 402                                           01 
00200010001000113REP       REP Dist Attorney, 31st Judicial Dist                   Franklin McDonough                    Precinct 101                                           01 
00200010002000098REP       REP Dist Attorney, 31st Judicial Dist                   Franklin McDonough                    Precinct 201                                           01 
00200010003000010REP       REP Dist Attorney, 31st Judicial Dist                   Franklin McDonough                    Precinct 202                                           01 
00200010004000160REP       REP Dist Attorney, 31st Judicial Dist                   Franklin McDonough                    Precinct 301                                           01 
00200010005000013REP       REP Dist Attorney, 31st Judicial Dist                   Franklin McDonough                    Precinct 302                                           01 
00200010006000036REP       REP Dist Attorney, 31st Judicial Dist                   Franklin McDonough                    Precinct 303                                           01 
00200010007000098REP       REP Dist Attorney, 31st Judicial Dist                   Franklin McDonough                    Precinct 401                                           01 
00200010008000036REP       REP Dist Attorney, 31st Judicial Dist                   Franklin McDonough                    Precinct 402                                           01 
00210010001000126REP       REP County Attorney                                     Kyle Miller                           Precinct 101                                           01 
00210010002000115REP       REP County Attorney                                     Kyle Miller                           Precinct 201                                           01 
00210010003000014REP       REP County Attorney                                     Kyle Miller                           Precinct 202                                           01 
00210010004000198REP       REP County Attorney                                     Kyle Miller                           Precinct 301                                           01 
00210010005000014REP       REP County Attorney                                     Kyle Miller                           Precinct 302                                           01 
00210010006000038REP       REP County Attorney                                     Kyle Miller                           Precinct 303                                           01 
00210010007000109REP       REP County Attorney                                     Kyle Miller                           Precinct 401                                           01 
00210010008000040REP       REP County Attorney                                     Kyle Miller                           Precinct 402                                           01 
00220010001000131REP       REP Sheriff                                             Brent Clapp                           Precinct 101                                           01 
00220010002000125REP       REP Sheriff                                             Brent Clapp                           Precinct 201                                           01 
00220010003000013REP       REP Sheriff                                             Brent Clapp                           Precinct 202                                           01 
00220010004000219REP       REP Sheriff                                             Brent Clapp                           Precinct 301                                           01 
00220010005000019REP       REP Sheriff                                             Brent Clapp                           Precinct 302                                           01 
00220010006000037REP       REP Sheriff                                             Brent Clapp                           Precinct 303                                           01 
00220010007000111REP       REP Sheriff                                             Brent Clapp                           Precinct 401                                           01 
00220010008000047REP       REP Sheriff                                             Brent Clapp                           Precinct 402                                           01 
00230010001000139REP       REP County Tax Assessor-Collector                       Chris Jackson                         Precinct 101                                           01 
00230010002000122REP       REP County Tax Assessor-Collector                       Chris Jackson                         Precinct 201                                           01 
00230010003000014REP       REP County Tax Assessor-Collector                       Chris Jackson                         Precinct 202                                           01 
00230010004000216REP       REP County Tax Assessor-Collector                       Chris Jackson                         Precinct 301                                           01 
00230010005000019REP       REP County Tax Assessor-Collector                       Chris Jackson                         Precinct 302                                           01 
00230010006000036REP       REP County Tax Assessor-Collector                       Chris Jackson                         Precinct 303                                           01 
00230010007000118REP       REP County Tax Assessor-Collector                       Chris Jackson                         Precinct 401                                           01 
00230010008000049REP       REP County Tax Assessor-Collector                       Chris Jackson                         Precinct 402                                           01 
00240010001000142REPCOMPCT1REP County Commissioner Pct 1                           Dawn Webb                             Precinct 101                  Pct 1                    01 
00250010004000213REPCOMPCT3REP County Commissioner Pct 3                           Curt McPherson                        Precinct 301                  Pct 3                    01 
00250010005000016REPCOMPCT3REP County Commissioner Pct 3                           Curt McPherson                        Precinct 302                  Pct 3                    01 
00250010006000034REPCOMPCT3REP County Commissioner Pct 3                           Curt McPherson                        Precinct 303                  Pct 3                    01 
00260010001000129REP       REP County Chair                                        Mike Rollins                          Precinct 101                                           01 
00260010002000110REP       REP County Chair                                        Mike Rollins                          Precinct 201                                           01 
00260010003000014REP       REP County Chair                                        Mike Rollins                          Precinct 202                                           01 
00260010004000196REP       REP County Chair                                        Mike Rollins                          Precinct 301                                           01 
00260010005000019REP       REP County Chair                                        Mike Rollins                          Precinct 302                                           01 
00260010006000037REP       REP County Chair                                        Mike Rollins                          Precinct 303                                           01 
00260010007000110REP       REP County Chair                                        Mike Rollins                          Precinct 401                                           01 
00260010008000042REP       REP County Chair                                        Mike Rollins                          Precinct 402                                           01 
00270010001000137REP       REP Proposition 1                                       Yes                                   Precinct 101                                           01Y
00270010002000129REP       REP Proposition 1                                       Yes                                   Precinct 201                                           01Y
00270010003000013REP       REP Proposition 1                                       Yes                                   Precinct 202                                           01Y
00270010004000207REP       REP Proposition 1                                       Yes                                   Precinct 301                                           01Y
00270010005000020REP       REP Proposition 1                                       Yes                                   Precinct 302                                           01Y
00270010006000040REP       REP Proposition 1                                       Yes                                   Precinct 303                                           01Y
00270010007000106REP       REP Proposition 1                                       Yes                                   Precinct 401                                           01Y
00270010008000046REP       REP Proposition 1                                       Yes                                   Precinct 402                                           01Y
00270020001000020REP       REP Proposition 1                                       No                                    Precinct 101                                           01Y
00270020002000018REP       REP Proposition 1                                       No                                    Precinct 201                                           01Y
00270020003000003REP       REP Proposition 1                                       No                                    Precinct 202                                           01Y
00270020004000030REP       REP Proposition 1                                       No                                    Precinct 301                                           01Y
00270020005000003REP       REP Proposition 1                                       No                                    Precinct 302                                           01Y
00270020006000006REP       REP Proposition 1                                       No                                    Precinct 303                                           01Y
00270020007000014REP       REP Proposition 1                                       No                                    Precinct 401                                           01Y
00270020008000005REP       REP Proposition 1                                       No                                    Precinct 402                                           01Y
00280010001000137REP       REP Proposition 2                                       Yes                                   Precinct 101                                           01Y
00280010002000124REP       REP Proposition 2                                       Yes                                   Precinct 201                                           01Y
00280010003000013REP       REP Proposition 2                                       Yes                                   Precinct 202                                           01Y
00280010004000204REP       REP Proposition 2                                       Yes                                   Precinct 301                                           01Y
00280010005000018REP       REP Proposition 2                                       Yes                                   Precinct 302                                           01Y
00280010006000041REP       REP Proposition 2                                       Yes                                   Precinct 303                                           01Y
00280010007000110REP       REP Proposition 2                                       Yes                                   Precinct 401                                           01Y
00280010008000043REP       REP Proposition 2                                       Yes                                   Precinct 402                                           01Y
00280020001000020REP       REP Proposition 2                                       No                                    Precinct 101                                           01Y
00280020002000023REP       REP Proposition 2                                       No                                    Precinct 201                                           01Y
00280020003000003REP       REP Proposition 2                                       No                                    Precinct 202                                           01Y
00280020004000032REP       REP Proposition 2                                       No                                    Precinct 301                                           01Y
00280020005000005REP       REP Proposition 2                                       No                                    Precinct 302                                           01Y
00280020006000005REP       REP Proposition 2                                       No                                    Precinct 303                                           01Y
00280020007000012REP       REP Proposition 2                                       No                                    Precinct 401                                           01Y
00280020008000008REP       REP Proposition 2                                       No                                    Precinct 402                                           01Y
00290010001000138REP       REP Proposition 3                                       Yes                                   Precinct 101                                           01Y
00290010002000133REP       REP Proposition 3                                       Yes                                   Precinct 201                                           01Y
00290010003000015REP       REP Proposition 3                                       Yes                                   Precinct 202                                           01Y
00290010004000215REP       REP Proposition 3                                       Yes                                   Precinct 301                                           01Y
00290010005000021REP       REP Proposition 3                                       Yes                                   Precinct 302                                           01Y
00290010006000042REP       REP Proposition 3                                       Yes                                   Precinct 303                                           01Y
00290010007000111REP       REP Proposition 3                                       Yes                                   Precinct 401                                           01Y
00290010008000049REP       REP Proposition 3                                       Yes                                   Precinct 402                                           01Y
00290020001000016REP       REP Proposition 3                                       No                                    Precinct 101                                           01Y
00290020002000008REP       REP Proposition 3                                       No                                    Precinct 201                                           01Y
00290020003000001REP       REP Proposition 3                                       No                                    Precinct 202                                           01Y
00290020004000018REP       REP Proposition 3                                       No                                    Precinct 301                                           01Y
00290020005000001REP       REP Proposition 3                                       No                                    Precinct 302                                           01Y
00290020006000004REP       REP Proposition 3                                       No                                    Precinct 303                                           01Y
00290020007000010REP       REP Proposition 3                                       No                                    Precinct 401                                           01Y
00290020008000002REP       REP Proposition 3                                       No                                    Precinct 402                                           01Y
00300010001000146REP       REP Proposition 4                                       Yes                                   Precinct 101                                           01Y
00300010002000136REP       REP Proposition 4                                       Yes                                   Precinct 201                                           01Y
00300010003000015REP       REP Proposition 4                                       Yes                                   Precinct 202                                           01Y
00300010004000222REP       REP Proposition 4                                       Yes                                   Precinct 301                                           01Y
00300010005000022REP       REP Proposition 4                                       Yes                                   Precinct 302                                           01Y
00300010006000046REP       REP Proposition 4                                       Yes                                   Precinct 303                                           01Y
00300010007000116REP       REP Proposition 4                                       Yes                                   Precinct 401                                           01Y
00300010008000045REP       REP Proposition 4                                       Yes                                   Precinct 402                                           01Y
00300020001000007REP       REP Proposition 4                                       No                                    Precinct 101                                           01Y
00300020002000007REP       REP Proposition 4                                       No                                    Precinct 201                                           01Y
00300020003000001REP       REP Proposition 4                                       No                                    Precinct 202                                           01Y
00300020004000012REP       REP Proposition 4                                       No                                    Precinct 301                                           01Y
00300020005000001REP       REP Proposition 4                                       No                                    Precinct 302                                           01Y
00300020006000000REP       REP Proposition 4                                       No                                    Precinct 303                                           01Y
00300020007000005REP       REP Proposition 4                                       No                                    Precinct 401                                           01Y
00300020008000007REP       REP Proposition 4                                       No                                    Precinct 402                                           01Y
00310010001000137REP       REP Proposition 5                                       Yes                                   Precinct 101                                           01Y
00310010002000121REP       REP Proposition 5                                       Yes                                   Precinct 201                                           01Y
00310010003000013REP       REP Proposition 5                                       Yes                                   Precinct 202                                           01Y
00310010004000200REP       REP Proposition 5                                       Yes                                   Precinct 301                                           01Y
00310010005000018REP       REP Proposition 5                                       Yes                                   Precinct 302                                           01Y
00310010006000040REP       REP Proposition 5                                       Yes                                   Precinct 303                                           01Y
00310010007000117REP       REP Proposition 5                                       Yes                                   Precinct 401                                           01Y
00310010008000044REP       REP Proposition 5                                       Yes                                   Precinct 402                                           01Y
00310020001000015REP       REP Proposition 5                                       No                                    Precinct 101                                           01Y
00310020002000016REP       REP Proposition 5                                       No                                    Precinct 201                                           01Y
00310020003000003REP       REP Proposition 5                                       No                                    Precinct 202                                           01Y
00310020004000025REP       REP Proposition 5                                       No                                    Precinct 301                                           01Y
00310020005000004REP       REP Proposition 5                                       No                                    Precinct 302                                           01Y
00310020006000004REP       REP Proposition 5                                       No                                    Precinct 303                                           01Y
00310020007000004REP       REP Proposition 5                                       No                                    Precinct 401                                           01Y
00310020008000006REP       REP Proposition 5                                       No                                    Precinct 402                                           01Y
00320010001000146REP       REP Proposition 6                                       Yes                                   Precinct 101                                           01Y
00320010002000134REP       REP Proposition 6                                       Yes                                   Precinct 201                                           01Y
00320010003000016REP       REP Proposition 6                                       Yes                                   Precinct 202                                           01Y
00320010004000213REP       REP Proposition 6                                       Yes                                   Precinct 301                                           01Y
00320010005000021REP       REP Proposition 6                                       Yes                                   Precinct 302                                           01Y
00320010006000043REP       REP Proposition 6                                       Yes                                   Precinct 303                                           01Y
00320010007000115REP       REP Proposition 6                                       Yes                                   Precinct 401                                           01Y
00320010008000046REP       REP Proposition 6                                       Yes                                   Precinct 402                                           01Y
00320020001000009REP       REP Proposition 6                                       No                                    Precinct 101                                           01Y
00320020002000007REP       REP Proposition 6                                       No                                    Precinct 201                                           01Y
00320020003000000REP       REP Proposition 6                                       No                                    Precinct 202                                           01Y
00320020004000017REP       REP Proposition 6                                       No                                    Precinct 301                                           01Y
00320020005000002REP       REP Proposition 6                                       No                                    Precinct 302                                           01Y
00320020006000001REP       REP Proposition 6                                       No                                    Precinct 303                                           01Y
00320020007000005REP       REP Proposition 6                                       No                                    Precinct 401                                           01Y
00320020008000003REP       REP Proposition 6                                       No                                    Precinct 402                                           01Y
00330010001000152REP       REP Proposition 7                                       Yes                                   Precinct 101                                           01Y
00330010002000136REP       REP Proposition 7                                       Yes                                   Precinct 201                                           01Y
00330010003000016REP       REP Proposition 7                                       Yes                                   Precinct 202                                           01Y
00330010004000230REP       REP Proposition 7                                       Yes                                   Precinct 301                                           01Y
00330010005000020REP       REP Proposition 7                                       Yes                                   Precinct 302                                           01Y
00330010006000045REP       REP Proposition 7                                       Yes                                   Precinct 303                                           01Y
00330010007000118REP       REP Proposition 7                                       Yes                                   Precinct 401                                           01Y
00330010008000049REP       REP Proposition 7                                       Yes                                   Precinct 402                                           01Y
00330020001000002REP       REP Proposition 7                                       No                                    Precinct 101                                           01Y
00330020002000005REP       REP Proposition 7                                       No                                    Precinct 201                                           01Y
00330020003000000REP       REP Proposition 7                                       No                                    Precinct 202                                           01Y
00330020004000006REP       REP Proposition 7                                       No                                    Precinct 301                                           01Y
00330020005000002REP       REP Proposition 7                                       No                                    Precinct 302                                           01Y
00330020006000000REP       REP Proposition 7                                       No                                    Precinct 303                                           01Y
00330020007000002REP       REP Proposition 7                                       No                                    Precinct 401                                           01Y
00330020008000002REP       REP Proposition 7                                       No                                    Precinct 402                                           01Y
00340010001000153REP       REP Proposition 8                                       Yes                                   Precinct 101                                           01Y
00340010002000141REP       REP Proposition 8                                       Yes                                   Precinct 201                                           01Y
00340010003000016REP       REP Proposition 8                                       Yes                                   Precinct 202                                           01Y
00340010004000227REP       REP Proposition 8                                       Yes                                   Precinct 301                                           01Y
00340010005000021REP       REP Proposition 8                                       Yes                                   Precinct 302                                           01Y
00340010006000045REP       REP Proposition 8                                       Yes                                   Precinct 303                                           01Y
00340010007000120REP       REP Proposition 8                                       Yes                                   Precinct 401                                           01Y
00340010008000050REP       REP Proposition 8                                       Yes                                   Precinct 402                                           01Y
00340020001000001REP       REP Proposition 8                                       No                                    Precinct 101                                           01Y
00340020002000003REP       REP Proposition 8                                       No                                    Precinct 201                                           01Y
00340020003000000REP       REP Proposition 8                                       No                                    Precinct 202                                           01Y
00340020004000005REP       REP Proposition 8                                       No                                    Precinct 301                                           01Y
00340020005000001REP       REP Proposition 8                                       No                                    Precinct 302                                           01Y
00340020006000000REP       REP Proposition 8                                       No                                    Precinct 303                                           01Y
00340020007000002REP       REP Proposition 8                                       No                                    Precinct 401                                           01Y
00340020008000001REP       REP Proposition 8                                       No                                    Precinct 402                                           01Y
00350010001000145REP       REP Proposition 9                                       Yes                                   Precinct 101                                           01Y
00350010002000132REP       REP Proposition 9                                       Yes                                   Precinct 201                                           01Y
00350010003000015REP       REP Proposition 9                                       Yes                                   Precinct 202                                           01Y
00350010004000212REP       REP Proposition 9                                       Yes                                   Precinct 301                                           01Y
00350010005000021REP       REP Proposition 9                                       Yes                                   Precinct 302                                           01Y
00350010006000040REP       REP Proposition 9                                       Yes                                   Precinct 303                                           01Y
00350010007000117REP       REP Proposition 9                                       Yes                                   Precinct 401                                           01Y
00350010008000048REP       REP Proposition 9                                       Yes                                   Precinct 402                                           01Y
00350020001000009REP       REP Proposition 9                                       No                                    Precinct 101                                           01Y
00350020002000008REP       REP Proposition 9                                       No                                    Precinct 201                                           01Y
00350020003000001REP       REP Proposition 9                                       No                                    Precinct 202                                           01Y
00350020004000021REP       REP Proposition 9                                       No                                    Precinct 301                                           01Y
00350020005000002REP       REP Proposition 9                                       No                                    Precinct 302                                           01Y
00350020006000005REP       REP Proposition 9                                       No                                    Precinct 303                                           01Y
00350020007000003REP       REP Proposition 9                                       No                                    Precinct 401                                           01Y
00350020008000001REP       REP Proposition 9                                       No                                    Precinct 402                                           01Y
00360010001000146REP       REP Proposition 10                                      Yes                                   Precinct 101                                           01Y
00360010002000130REP       REP Proposition 10                                      Yes                                   Precinct 201                                           01Y
00360010003000015REP       REP Proposition 10                                      Yes                                   Precinct 202                                           01Y
00360010004000217REP       REP Proposition 10                                      Yes                                   Precinct 301                                           01Y
