00010010001003188000000000000000000000000000000000000000000000000000000000000000000000000000000000000          REGISTERED VOTERS - TOTAL                               REGISTERED VOTERS - TOTAL             Precinct 1                                             00 
00010010002001400000000000000000000000000000000000000000000000000000000000000000000000000000000000000          REGISTERED VOTERS - TOTAL                               REGISTERED VOTERS - TOTAL             Precinct 2                                             00 
00010010003004650000000000000000000000000000000000000000000000000000000000000000000000000000000000000          REGISTERED VOTERS - TOTAL                               REGISTERED VOTERS - TOTAL             Precinct 3                                             00 
00010010004004426000000000000000000000000000000000000000000000000000000000000000000000000000000000000          REGISTERED VOTERS - TOTAL                               REGISTERED VOTERS - TOTAL             Precinct 4                                             00 
00010010005002368000000000000000000000000000000000000000000000000000000000000000000000000000000000000          REGISTERED VOTERS - TOTAL                               REGISTERED VOTERS - TOTAL             Precinct 5                                             00 
00010010006002038000000000000000000000000000000000000000000000000000000000000000000000000000000000000          REGISTERED VOTERS - TOTAL                               REGISTERED VOTERS - TOTAL             Precinct 6                                             00 
00010010007005998000000000000000000000000000000000000000000000000000000000000000000000000000000000000          REGISTERED VOTERS - TOTAL                               REGISTERED VOTERS - TOTAL             Precinct 7                                             00 
00010010008001939000000000000000000000000000000000000000000000000000000000000000000000000000000000000          REGISTERED VOTERS - TOTAL                               REGISTERED VOTERS - TOTAL             Precinct 8                                             00 
00010010009001836000000000000000000000000000000000000000000000000000000000000000000000000000000000000          REGISTERED VOTERS - TOTAL                               REGISTERED VOTERS - TOTAL             Precinct 9                                             00 
00010010010002467000000000000000000000000000000000000000000000000000000000000000000000000000000000000          REGISTERED VOTERS - TOTAL                               REGISTERED VOTERS - TOTAL             Precinct 10                                            00 
00010010011002035000000000000000000000000000000000000000000000000000000000000000000000000000000000000          REGISTERED VOTERS - TOTAL                               REGISTERED VOTERS - TOTAL             Precinct 11                                            00 
00010010012001938000000000000000000000000000000000000000000000000000000000000000000000000000000000000          REGISTERED VOTERS - TOTAL                               REGISTERED VOTERS - TOTAL             Precinct 12                                            00 
00010010013003472000000000000000000000000000000000000000000000000000000000000000000000000000000000000          REGISTERED VOTERS - TOTAL                               REGISTERED VOTERS - TOTAL             Precinct 13                                            00 
00010010014003909000000000000000000000000000000000000000000000000000000000000000000000000000000000000          REGISTERED VOTERS - TOTAL                               REGISTERED VOTERS - TOTAL             Precinct 14                                            00 
00010010015002807000000000000000000000000000000000000000000000000000000000000000000000000000000000000          REGISTERED VOTERS - TOTAL                               REGISTERED VOTERS - TOTAL             Precinct 15                                            00 
00010010016002954000000000000000000000000000000000000000000000000000000000000000000000000000000000000          REGISTERED VOTERS - TOTAL                               REGISTERED VOTERS - TOTAL             Precinct 16                                            00 
00010010017001769000000000000000000000000000000000000000000000000000000000000000000000000000000000000          REGISTERED VOTERS - TOTAL                               REGISTERED VOTERS - TOTAL             Precinct 17                                            00 
00010010018002374000000000000000000000000000000000000000000000000000000000000000000000000000000000000          REGISTERED VOTERS - TOTAL                               REGISTERED VOTERS - TOTAL             Precinct 18                                            00 
00010010019002423000000000000000000000000000000000000000000000000000000000000000000000000000000000000          REGISTERED VOTERS - TOTAL                               REGISTERED VOTERS - TOTAL             Precinct 19                                            00 
00010010020001570000000000000000000000000000000000000000000000000000000000000000000000000000000000000          REGISTERED VOTERS - TOTAL                               REGISTERED VOTERS - TOTAL             Precinct 20                                            00 
00010010021002546000000000000000000000000000000000000000000000000000000000000000000000000000000000000          REGISTERED VOTERS - TOTAL                               REGISTERED VOTERS - TOTAL             Precinct 21                                            00 
00010010022001179000000000000000000000000000000000000000000000000000000000000000000000000000000000000          REGISTERED VOTERS - TOTAL                               REGISTERED VOTERS - TOTAL             Precinct 22                                            00 
00010010023001290000000000000000000000000000000000000000000000000000000000000000000000000000000000000          REGISTERED VOTERS - TOTAL                               REGISTERED VOTERS - TOTAL             Precinct 23                                            00 
00010010024001374000000000000000000000000000000000000000000000000000000000000000000000000000000000000          REGISTERED VOTERS - TOTAL                               REGISTERED VOTERS - TOTAL             Precinct 24                                            00 
00010010025000940000000000000000000000000000000000000000000000000000000000000000000000000000000000000          REGISTERED VOTERS - TOTAL                               REGISTERED VOTERS - TOTAL             Precinct 25                                            00 
00010010026001801000000000000000000000000000000000000000000000000000000000000000000000000000000000000          REGISTERED VOTERS - TOTAL                               REGISTERED VOTERS - TOTAL             Precinct 26                                            00 
00010010027003930000000000000000000000000000000000000000000000000000000000000000000000000000000000000          REGISTERED VOTERS - TOTAL                               REGISTERED VOTERS - TOTAL             Precinct 27                                            00 
00010010028001577000000000000000000000000000000000000000000000000000000000000000000000000000000000000          REGISTERED VOTERS - TOTAL                               REGISTERED VOTERS - TOTAL             Precinct 28                                            00 
00010010029003852000000000000000000000000000000000000000000000000000000000000000000000000000000000000          REGISTERED VOTERS - TOTAL                               REGISTERED VOTERS - TOTAL             Precinct 29                                            00 
00010010030001884000000000000000000000000000000000000000000000000000000000000000000000000000000000000          REGISTERED VOTERS - TOTAL                               REGISTERED VOTERS - TOTAL             Precinct 30                                            00 
00020010001003188000000000000000000000000000000000000000000000000000000000000000000000000000000000000NON       REGISTERED VOTERS - NONPARTISAN                         REGISTERED VOTERS - NONPARTISAN       Precinct 1                                             00 
00020010002001400000000000000000000000000000000000000000000000000000000000000000000000000000000000000NON       REGISTERED VOTERS - NONPARTISAN                         REGISTERED VOTERS - NONPARTISAN       Precinct 2                                             00 
00020010003004650000000000000000000000000000000000000000000000000000000000000000000000000000000000000NON       REGISTERED VOTERS - NONPARTISAN                         REGISTERED VOTERS - NONPARTISAN       Precinct 3                                             00 
00020010004004426000000000000000000000000000000000000000000000000000000000000000000000000000000000000NON       REGISTERED VOTERS - NONPARTISAN                         REGISTERED VOTERS - NONPARTISAN       Precinct 4                                             00 
00020010005002368000000000000000000000000000000000000000000000000000000000000000000000000000000000000NON       REGISTERED VOTERS - NONPARTISAN                         REGISTERED VOTERS - NONPARTISAN       Precinct 5                                             00 
00020010006002038000000000000000000000000000000000000000000000000000000000000000000000000000000000000NON       REGISTERED VOTERS - NONPARTISAN                         REGISTERED VOTERS - NONPARTISAN       Precinct 6                                             00 
00020010007005998000000000000000000000000000000000000000000000000000000000000000000000000000000000000NON       REGISTERED VOTERS - NONPARTISAN                         REGISTERED VOTERS - NONPARTISAN       Precinct 7                                             00 
00020010008001939000000000000000000000000000000000000000000000000000000000000000000000000000000000000NON       REGISTERED VOTERS - NONPARTISAN                         REGISTERED VOTERS - NONPARTISAN       Precinct 8                                             00 
00020010009001836000000000000000000000000000000000000000000000000000000000000000000000000000000000000NON       REGISTERED VOTERS - NONPARTISAN                         REGISTERED VOTERS - NONPARTISAN       Precinct 9                                             00 
00020010010002467000000000000000000000000000000000000000000000000000000000000000000000000000000000000NON       REGISTERED VOTERS - NONPARTISAN                         REGISTERED VOTERS - NONPARTISAN       Precinct 10                                            00 
00020010011002035000000000000000000000000000000000000000000000000000000000000000000000000000000000000NON       REGISTERED VOTERS - NONPARTISAN                         REGISTERED VOTERS - NONPARTISAN       Precinct 11                                            00 
00020010012001938000000000000000000000000000000000000000000000000000000000000000000000000000000000000NON       REGISTERED VOTERS - NONPARTISAN                         REGISTERED VOTERS - NONPARTISAN       Precinct 12                                            00 
00020010013003472000000000000000000000000000000000000000000000000000000000000000000000000000000000000NON       REGISTERED VOTERS - NONPARTISAN                         REGISTERED VOTERS - NONPARTISAN       Precinct 13                                            00 
00020010014003909000000000000000000000000000000000000000000000000000000000000000000000000000000000000NON       REGISTERED VOTERS - NONPARTISAN                         REGISTERED VOTERS - NONPARTISAN       Precinct 14                                            00 
00020010015002807000000000000000000000000000000000000000000000000000000000000000000000000000000000000NON       REGISTERED VOTERS - NONPARTISAN                         REGISTERED VOTERS - NONPARTISAN       Precinct 15                                            00 
00020010016002954000000000000000000000000000000000000000000000000000000000000000000000000000000000000NON       REGISTERED VOTERS - NONPARTISAN                         REGISTERED VOTERS - NONPARTISAN       Precinct 16                                            00 
00020010017001769000000000000000000000000000000000000000000000000000000000000000000000000000000000000NON       REGISTERED VOTERS - NONPARTISAN                         REGISTERED VOTERS - NONPARTISAN       Precinct 17                                            00 
00020010018002374000000000000000000000000000000000000000000000000000000000000000000000000000000000000NON       REGISTERED VOTERS - NONPARTISAN                         REGISTERED VOTERS - NONPARTISAN       Precinct 18                                            00 
00020010019002423000000000000000000000000000000000000000000000000000000000000000000000000000000000000NON       REGISTERED VOTERS - NONPARTISAN                         REGISTERED VOTERS - NONPARTISAN       Precinct 19                                            00 
00020010020001570000000000000000000000000000000000000000000000000000000000000000000000000000000000000NON       REGISTERED VOTERS - NONPARTISAN                         REGISTERED VOTERS - NONPARTISAN       Precinct 20                                            00 
00020010021002546000000000000000000000000000000000000000000000000000000000000000000000000000000000000NON       REGISTERED VOTERS - NONPARTISAN                         REGISTERED VOTERS - NONPARTISAN       Precinct 21                                            00 
00020010022001179000000000000000000000000000000000000000000000000000000000000000000000000000000000000NON       REGISTERED VOTERS - NONPARTISAN                         REGISTERED VOTERS - NONPARTISAN       Precinct 22                                            00 
00020010023001290000000000000000000000000000000000000000000000000000000000000000000000000000000000000NON       REGISTERED VOTERS - NONPARTISAN                         REGISTERED VOTERS - NONPARTISAN       Precinct 23                                            00 
00020010024001374000000000000000000000000000000000000000000000000000000000000000000000000000000000000NON       REGISTERED VOTERS - NONPARTISAN                         REGISTERED VOTERS - NONPARTISAN       Precinct 24                                            00 
00020010025000940000000000000000000000000000000000000000000000000000000000000000000000000000000000000NON       REGISTERED VOTERS - NONPARTISAN                         REGISTERED VOTERS - NONPARTISAN       Precinct 25                                            00 
00020010026001801000000000000000000000000000000000000000000000000000000000000000000000000000000000000NON       REGISTERED VOTERS - NONPARTISAN                         REGISTERED VOTERS - NONPARTISAN       Precinct 26                                            00 
00020010027003930000000000000000000000000000000000000000000000000000000000000000000000000000000000000NON       REGISTERED VOTERS - NONPARTISAN                         REGISTERED VOTERS - NONPARTISAN       Precinct 27                                            00 
00020010028001577000000000000000000000000000000000000000000000000000000000000000000000000000000000000NON       REGISTERED VOTERS - NONPARTISAN                         REGISTERED VOTERS - NONPARTISAN       Precinct 28                                            00 
00020010029003852000000000000000000000000000000000000000000000000000000000000000000000000000000000000NON       REGISTERED VOTERS - NONPARTISAN                         REGISTERED VOTERS - NONPARTISAN       Precinct 29                                            00 
00020010030001884000000000000000000000000000000000000000000000000000000000000000000000000000000000000NON       REGISTERED VOTERS - NONPARTISAN                         REGISTERED VOTERS - NONPARTISAN       Precinct 30                                            00 
00030010001000000000000000000000000000000000000000000000000000000000000000000000000000000000000000000REP       REGISTERED VOTERS - Republican Party                    REGISTERED VOTERS - Republican Party  Precinct 1                                             00 
00030010002000000000000000000000000000000000000000000000000000000000000000000000000000000000000000000REP       REGISTERED VOTERS - Republican Party                    REGISTERED VOTERS - Republican Party  Precinct 2                                             00 
00030010003000000000000000000000000000000000000000000000000000000000000000000000000000000000000000000REP       REGISTERED VOTERS - Republican Party                    REGISTERED VOTERS - Republican Party  Precinct 3                                             00 
00030010004000000000000000000000000000000000000000000000000000000000000000000000000000000000000000000REP       REGISTERED VOTERS - Republican Party                    REGISTERED VOTERS - Republican Party  Precinct 4                                             00 
00030010005000000000000000000000000000000000000000000000000000000000000000000000000000000000000000000REP       REGISTERED VOTERS - Republican Party                    REGISTERED VOTERS - Republican Party  Precinct 5                                             00 
00030010006000000000000000000000000000000000000000000000000000000000000000000000000000000000000000000REP       REGISTERED VOTERS - Republican Party                    REGISTERED VOTERS - Republican Party  Precinct 6                                             00 
00030010007000000000000000000000000000000000000000000000000000000000000000000000000000000000000000000REP       REGISTERED VOTERS - Republican Party                    REGISTERED VOTERS - Republican Party  Precinct 7                                             00 
00030010008000000000000000000000000000000000000000000000000000000000000000000000000000000000000000000REP       REGISTERED VOTERS - Republican Party                    REGISTERED VOTERS - Republican Party  Precinct 8                                             00 
00030010009000000000000000000000000000000000000000000000000000000000000000000000000000000000000000000REP       REGISTERED VOTERS - Republican Party                    REGISTERED VOTERS - Republican Party  Precinct 9                                             00 
00030010010000000000000000000000000000000000000000000000000000000000000000000000000000000000000000000REP       REGISTERED VOTERS - Republican Party                    REGISTERED VOTERS - Republican Party  Precinct 10                                            00 
00030010011000000000000000000000000000000000000000000000000000000000000000000000000000000000000000000REP       REGISTERED VOTERS - Republican Party                    REGISTERED VOTERS - Republican Party  Precinct 11                                            00 
00030010012000000000000000000000000000000000000000000000000000000000000000000000000000000000000000000REP       REGISTERED VOTERS - Republican Party                    REGISTERED VOTERS - Republican Party  Precinct 12                                            00 
00030010013000000000000000000000000000000000000000000000000000000000000000000000000000000000000000000REP       REGISTERED VOTERS - Republican Party                    REGISTERED VOTERS - Republican Party  Precinct 13                                            00 
00030010014000000000000000000000000000000000000000000000000000000000000000000000000000000000000000000REP       REGISTERED VOTERS - Republican Party                    REGISTERED VOTERS - Republican Party  Precinct 14                                            00 
00030010015000000000000000000000000000000000000000000000000000000000000000000000000000000000000000000REP       REGISTERED VOTERS - Republican Party                    REGISTERED VOTERS - Republican Party  Precinct 15                                            00 
00030010016000000000000000000000000000000000000000000000000000000000000000000000000000000000000000000REP       REGISTERED VOTERS - Republican Party                    REGISTERED VOTERS - Republican Party  Precinct 16                                            00 
00030010017000000000000000000000000000000000000000000000000000000000000000000000000000000000000000000REP       REGISTERED VOTERS - Republican Party                    REGISTERED VOTERS - Republican Party  Precinct 17                                            00 
00030010018000000000000000000000000000000000000000000000000000000000000000000000000000000000000000000REP       REGISTERED VOTERS - Republican Party                    REGISTERED VOTERS - Republican Party  Precinct 18                                            00 
00030010019000000000000000000000000000000000000000000000000000000000000000000000000000000000000000000REP       REGISTERED VOTERS - Republican Party                    REGISTERED VOTERS - Republican Party  Precinct 19                                            00 
00030010020000000000000000000000000000000000000000000000000000000000000000000000000000000000000000000REP       REGISTERED VOTERS - Republican Party                    REGISTERED VOTERS - Republican Party  Precinct 20                                            00 
00030010021000000000000000000000000000000000000000000000000000000000000000000000000000000000000000000REP       REGISTERED VOTERS - Republican Party                    REGISTERED VOTERS - Republican Party  Precinct 21                                            00 
00030010022000000000000000000000000000000000000000000000000000000000000000000000000000000000000000000REP       REGISTERED VOTERS - Republican Party                    REGISTERED VOTERS - Republican Party  Precinct 22                                            00 
00030010023000000000000000000000000000000000000000000000000000000000000000000000000000000000000000000REP       REGISTERED VOTERS - Republican Party                    REGISTERED VOTERS - Republican Party  Precinct 23                                            00 
00030010024000000000000000000000000000000000000000000000000000000000000000000000000000000000000000000REP       REGISTERED VOTERS - Republican Party                    REGISTERED VOTERS - Republican Party  Precinct 24                                            00 
00030010025000000000000000000000000000000000000000000000000000000000000000000000000000000000000000000REP       REGISTERED VOTERS - Republican Party                    REGISTERED VOTERS - Republican Party  Precinct 25                                            00 
00030010026000000000000000000000000000000000000000000000000000000000000000000000000000000000000000000REP       REGISTERED VOTERS - Republican Party                    REGISTERED VOTERS - Republican Party  Precinct 26                                            00 
00030010027000000000000000000000000000000000000000000000000000000000000000000000000000000000000000000REP       REGISTERED VOTERS - Republican Party                    REGISTERED VOTERS - Republican Party  Precinct 27                                            00 
00030010028000000000000000000000000000000000000000000000000000000000000000000000000000000000000000000REP       REGISTERED VOTERS - Republican Party                    REGISTERED VOTERS - Republican Party  Precinct 28                                            00 
00030010029000000000000000000000000000000000000000000000000000000000000000000000000000000000000000000REP       REGISTERED VOTERS - Republican Party                    REGISTERED VOTERS - Republican Party  Precinct 29                                            00 
00030010030000000000000000000000000000000000000000000000000000000000000000000000000000000000000000000REP       REGISTERED VOTERS - Republican Party                    REGISTERED VOTERS - Republican Party  Precinct 30                                            00 
00040010001000000000000000000000000000000000000000000000000000000000000000000000000000000000000000000DEM       REGISTERED VOTERS - Democratic Party                    REGISTERED VOTERS - Democratic Party  Precinct 1                                             00 
00040010002000000000000000000000000000000000000000000000000000000000000000000000000000000000000000000DEM       REGISTERED VOTERS - Democratic Party                    REGISTERED VOTERS - Democratic Party  Precinct 2                                             00 
00040010003000000000000000000000000000000000000000000000000000000000000000000000000000000000000000000DEM       REGISTERED VOTERS - Democratic Party                    REGISTERED VOTERS - Democratic Party  Precinct 3                                             00 
00040010004000000000000000000000000000000000000000000000000000000000000000000000000000000000000000000DEM       REGISTERED VOTERS - Democratic Party                    REGISTERED VOTERS - Democratic Party  Precinct 4                                             00 
00040010005000000000000000000000000000000000000000000000000000000000000000000000000000000000000000000DEM       REGISTERED VOTERS - Democratic Party                    REGISTERED VOTERS - Democratic Party  Precinct 5                                             00 
00040010006000000000000000000000000000000000000000000000000000000000000000000000000000000000000000000DEM       REGISTERED VOTERS - Democratic Party                    REGISTERED VOTERS - Democratic Party  Precinct 6                                             00 
00040010007000000000000000000000000000000000000000000000000000000000000000000000000000000000000000000DEM       REGISTERED VOTERS - Democratic Party                    REGISTERED VOTERS - Democratic Party  Precinct 7                                             00 
00040010008000000000000000000000000000000000000000000000000000000000000000000000000000000000000000000DEM       REGISTERED VOTERS - Democratic Party                    REGISTERED VOTERS - Democratic Party  Precinct 8                                             00 
00040010009000000000000000000000000000000000000000000000000000000000000000000000000000000000000000000DEM       REGISTERED VOTERS - Democratic Party                    REGISTERED VOTERS - Democratic Party  Precinct 9                                             00 
00040010010000000000000000000000000000000000000000000000000000000000000000000000000000000000000000000DEM       REGISTERED VOTERS - Democratic Party                    REGISTERED VOTERS - Democratic Party  Precinct 10                                            00 
00040010011000000000000000000000000000000000000000000000000000000000000000000000000000000000000000000DEM       REGISTERED VOTERS - Democratic Party                    REGISTERED VOTERS - Democratic Party  Precinct 11                                            00 
00040010012000000000000000000000000000000000000000000000000000000000000000000000000000000000000000000DEM       REGISTERED VOTERS - Democratic Party                    REGISTERED VOTERS - Democratic Party  Precinct 12                                            00 
00040010013000000000000000000000000000000000000000000000000000000000000000000000000000000000000000000DEM       REGISTERED VOTERS - Democratic Party                    REGISTERED VOTERS - Democratic Party  Precinct 13                                            00 
00040010014000000000000000000000000000000000000000000000000000000000000000000000000000000000000000000DEM       REGISTERED VOTERS - Democratic Party                    REGISTERED VOTERS - Democratic Party  Precinct 14                                            00 
00040010015000000000000000000000000000000000000000000000000000000000000000000000000000000000000000000DEM       REGISTERED VOTERS - Democratic Party                    REGISTERED VOTERS - Democratic Party  Precinct 15                                            00 
00040010016000000000000000000000000000000000000000000000000000000000000000000000000000000000000000000DEM       REGISTERED VOTERS - Democratic Party                    REGISTERED VOTERS - Democratic Party  Precinct 16                                            00 
00040010017000000000000000000000000000000000000000000000000000000000000000000000000000000000000000000DEM       REGISTERED VOTERS - Democratic Party                    REGISTERED VOTERS - Democratic Party  Precinct 17                                            00 
00040010018000000000000000000000000000000000000000000000000000000000000000000000000000000000000000000DEM       REGISTERED VOTERS - Democratic Party                    REGISTERED VOTERS - Democratic Party  Precinct 18                                            00 
00040010019000000000000000000000000000000000000000000000000000000000000000000000000000000000000000000DEM       REGISTERED VOTERS - Democratic Party                    REGISTERED VOTERS - Democratic Party  Precinct 19                                            00 
00040010020000000000000000000000000000000000000000000000000000000000000000000000000000000000000000000DEM       REGISTERED VOTERS - Democratic Party                    REGISTERED VOTERS - Democratic Party  Precinct 20                                            00 
00040010021000000000000000000000000000000000000000000000000000000000000000000000000000000000000000000DEM       REGISTERED VOTERS - Democratic Party                    REGISTERED VOTERS - Democratic Party  Precinct 21                                            00 
00040010022000000000000000000000000000000000000000000000000000000000000000000000000000000000000000000DEM       REGISTERED VOTERS - Democratic Party                    REGISTERED VOTERS - Democratic Party  Precinct 22                                            00 
00040010023000000000000000000000000000000000000000000000000000000000000000000000000000000000000000000DEM       REGISTERED VOTERS - Democratic Party                    REGISTERED VOTERS - Democratic Party  Precinct 23                                            00 
00040010024000000000000000000000000000000000000000000000000000000000000000000000000000000000000000000DEM       REGISTERED VOTERS - Democratic Party                    REGISTERED VOTERS - Democratic Party  Precinct 24                                            00 
00040010025000000000000000000000000000000000000000000000000000000000000000000000000000000000000000000DEM       REGISTERED VOTERS - Democratic Party                    REGISTERED VOTERS - Democratic Party  Precinct 25                                            00 
00040010026000000000000000000000000000000000000000000000000000000000000000000000000000000000000000000DEM       REGISTERED VOTERS - Democratic Party                    REGISTERED VOTERS - Democratic Party  Precinct 26                                            00 
00040010027000000000000000000000000000000000000000000000000000000000000000000000000000000000000000000DEM       REGISTERED VOTERS - Democratic Party                    REGISTERED VOTERS - Democratic Party  Precinct 27                                            00 
00040010028000000000000000000000000000000000000000000000000000000000000000000000000000000000000000000DEM       REGISTERED VOTERS - Democratic Party                    REGISTERED VOTERS - Democratic Party  Precinct 28                                            00 
00040010029000000000000000000000000000000000000000000000000000000000000000000000000000000000000000000DEM       REGISTERED VOTERS - Democratic Party                    REGISTERED VOTERS - Democratic Party  Precinct 29                                            00 
00040010030000000000000000000000000000000000000000000000000000000000000000000000000000000000000000000DEM       REGISTERED VOTERS - Democratic Party                    REGISTERED VOTERS - Democratic Party  Precinct 30                                            00 
00050010001000784000057000435000292000000000000000000000000000000000000000000000000000000000000000000          BALLOTS CAST - TOTAL                                    BALLOTS CAST - TOTAL                  Precinct 1                                             00 
00050010002000481000035000266000180000000000000000000000000000000000000000000000000000000000000000000          BALLOTS CAST - TOTAL                                    BALLOTS CAST - TOTAL                  Precinct 2                                             00 
00050010003001294000052000726000515000001000000000000000000000000000000000000000000000000000000000000          BALLOTS CAST - TOTAL                                    BALLOTS CAST - TOTAL                  Precinct 3                                             00 
00050010004001292000062000736000493000001000000000000000000000000000000000000000000000000000000000000          BALLOTS CAST - TOTAL                                    BALLOTS CAST - TOTAL                  Precinct 4                                             00 
00050010005000506000041000276000186000003000000000000000000000000000000000000000000000000000000000000          BALLOTS CAST - TOTAL                                    BALLOTS CAST - TOTAL                  Precinct 5                                             00 
00050010006000653000039000337000277000000000000000000000000000000000000000000000000000000000000000000          BALLOTS CAST - TOTAL                                    BALLOTS CAST - TOTAL                  Precinct 6                                             00 
00050010007001454000059000636000757000002000000000000000000000000000000000000000000000000000000000000          BALLOTS CAST - TOTAL                                    BALLOTS CAST - TOTAL                  Precinct 7                                             00 
00050010008000524000042000245000237000000000000000000000000000000000000000000000000000000000000000000          BALLOTS CAST - TOTAL                                    BALLOTS CAST - TOTAL                  Precinct 8                                             00 
00050010009000615000028000252000334000001000000000000000000000000000000000000000000000000000000000000          BALLOTS CAST - TOTAL                                    BALLOTS CAST - TOTAL                  Precinct 9                                             00 
00050010010000745000035000329000380000001000000000000000000000000000000000000000000000000000000000000          BALLOTS CAST - TOTAL                                    BALLOTS CAST - TOTAL                  Precinct 10                                            00 
00050010011000544000035000306000202000001000000000000000000000000000000000000000000000000000000000000          BALLOTS CAST - TOTAL                                    BALLOTS CAST - TOTAL                  Precinct 11                                            00 
00050010012000589000026000321000242000000000000000000000000000000000000000000000000000000000000000000          BALLOTS CAST - TOTAL                                    BALLOTS CAST - TOTAL                  Precinct 12                                            00 
00050010013000740000015000367000356000002000000000000000000000000000000000000000000000000000000000000          BALLOTS CAST - TOTAL                                    BALLOTS CAST - TOTAL                  Precinct 13                                            00 
00050010014000914000044000455000413000002000000000000000000000000000000000000000000000000000000000000          BALLOTS CAST - TOTAL                                    BALLOTS CAST - TOTAL                  Precinct 14                                            00 
00050010015000819000042000460000314000003000000000000000000000000000000000000000000000000000000000000          BALLOTS CAST - TOTAL                                    BALLOTS CAST - TOTAL                  Precinct 15                                            00 
00050010016000848000058000383000406000001000000000000000000000000000000000000000000000000000000000000          BALLOTS CAST - TOTAL                                    BALLOTS CAST - TOTAL                  Precinct 16                                            00 
00050010017000560000022000168000369000001000000000000000000000000000000000000000000000000000000000000          BALLOTS CAST - TOTAL                                    BALLOTS CAST - TOTAL                  Precinct 17                                            00 
00050010018000631000021000232000375000003000000000000000000000000000000000000000000000000000000000000          BALLOTS CAST - TOTAL                                    BALLOTS CAST - TOTAL                  Precinct 18                                            00 
00050010019000860000082000504000274000000000000000000000000000000000000000000000000000000000000000000          BALLOTS CAST - TOTAL                                    BALLOTS CAST - TOTAL                  Precinct 19                                            00 
00050010020000414000022000220000172000000000000000000000000000000000000000000000000000000000000000000          BALLOTS CAST - TOTAL                                    BALLOTS CAST - TOTAL                  Precinct 20                                            00 
00050010021000731000051000346000334000000000000000000000000000000000000000000000000000000000000000000          BALLOTS CAST - TOTAL                                    BALLOTS CAST - TOTAL                  Precinct 21                                            00 
00050010022000436000020000266000150000000000000000000000000000000000000000000000000000000000000000000          BALLOTS CAST - TOTAL                                    BALLOTS CAST - TOTAL                  Precinct 22                                            00 
00050010023000340000017000181000141000001000000000000000000000000000000000000000000000000000000000000          BALLOTS CAST - TOTAL                                    BALLOTS CAST - TOTAL                  Precinct 23                                            00 
00050010024000415000027000226000160000002000000000000000000000000000000000000000000000000000000000000          BALLOTS CAST - TOTAL                                    BALLOTS CAST - TOTAL                  Precinct 24                                            00 
00050010025000224000011000152000061000000000000000000000000000000000000000000000000000000000000000000          BALLOTS CAST - TOTAL                                    BALLOTS CAST - TOTAL                  Precinct 25                                            00 
00050010026000310000031000131000147000001000000000000000000000000000000000000000000000000000000000000          BALLOTS CAST - TOTAL                                    BALLOTS CAST - TOTAL                  Precinct 26                                            00 
00050010027001126000051000637000438000000000000000000000000000000000000000000000000000000000000000000          BALLOTS CAST - TOTAL                                    BALLOTS CAST - TOTAL                  Precinct 27                                            00 
00050010028000504000037000299000168000000000000000000000000000000000000000000000000000000000000000000          BALLOTS CAST - TOTAL                                    BALLOTS CAST - TOTAL                  Precinct 28                                            00 
00050010029000882000032000318000532000000000000000000000000000000000000000000000000000000000000000000          BALLOTS CAST - TOTAL                                    BALLOTS CAST - TOTAL                  Precinct 29                                            00 
00050010030000459000035000189000235000000000000000000000000000000000000000000000000000000000000000000          BALLOTS CAST - TOTAL                                    BALLOTS CAST - TOTAL                  Precinct 30                                            00 
00060010001000000000000000000000000000000000000000000000000000000000000000000000000000000000000000000NON       BALLOTS CAST - NONPARTISAN                              BALLOTS CAST - NONPARTISAN            Precinct 1                                             00 
00060010002000000000000000000000000000000000000000000000000000000000000000000000000000000000000000000NON       BALLOTS CAST - NONPARTISAN                              BALLOTS CAST - NONPARTISAN            Precinct 2                                             00 
00060010003000000000000000000000000000000000000000000000000000000000000000000000000000000000000000000NON       BALLOTS CAST - NONPARTISAN                              BALLOTS CAST - NONPARTISAN            Precinct 3                                             00 
00060010004000000000000000000000000000000000000000000000000000000000000000000000000000000000000000000NON       BALLOTS CAST - NONPARTISAN                              BALLOTS CAST - NONPARTISAN            Precinct 4                                             00 
00060010005000000000000000000000000000000000000000000000000000000000000000000000000000000000000000000NON       BALLOTS CAST - NONPARTISAN                              BALLOTS CAST - NONPARTISAN            Precinct 5                                             00 
00060010006000000000000000000000000000000000000000000000000000000000000000000000000000000000000000000NON       BALLOTS CAST - NONPARTISAN                              BALLOTS CAST - NONPARTISAN            Precinct 6                                             00 
00060010007000000000000000000000000000000000000000000000000000000000000000000000000000000000000000000NON       BALLOTS CAST - NONPARTISAN                              BALLOTS CAST - NONPARTISAN            Precinct 7                                             00 
00060010008000000000000000000000000000000000000000000000000000000000000000000000000000000000000000000NON       BALLOTS CAST - NONPARTISAN                              BALLOTS CAST - NONPARTISAN            Precinct 8                                             00 
00060010009000000000000000000000000000000000000000000000000000000000000000000000000000000000000000000NON       BALLOTS CAST - NONPARTISAN                              BALLOTS CAST - NONPARTISAN            Precinct 9                                             00 
00060010010000000000000000000000000000000000000000000000000000000000000000000000000000000000000000000NON       BALLOTS CAST - NONPARTISAN                              BALLOTS CAST - NONPARTISAN            Precinct 10                                            00 
00060010011000000000000000000000000000000000000000000000000000000000000000000000000000000000000000000NON       BALLOTS CAST - NONPARTISAN                              BALLOTS CAST - NONPARTISAN            Precinct 11                                            00 
00060010012000000000000000000000000000000000000000000000000000000000000000000000000000000000000000000NON       BALLOTS CAST - NONPARTISAN                              BALLOTS CAST - NONPARTISAN            Precinct 12                                            00 
00060010013000000000000000000000000000000000000000000000000000000000000000000000000000000000000000000NON       BALLOTS CAST - NONPARTISAN                              BALLOTS CAST - NONPARTISAN            Precinct 13                                            00 
00060010014000000000000000000000000000000000000000000000000000000000000000000000000000000000000000000NON       BALLOTS CAST - NONPARTISAN                              BALLOTS CAST - NONPARTISAN            Precinct 14                                            00 
00060010015000000000000000000000000000000000000000000000000000000000000000000000000000000000000000000NON       BALLOTS CAST - NONPARTISAN                              BALLOTS CAST - NONPARTISAN            Precinct 15                                            00 
00060010016000000000000000000000000000000000000000000000000000000000000000000000000000000000000000000NON       BALLOTS CAST - NONPARTISAN                              BALLOTS CAST - NONPARTISAN            Precinct 16                                            00 
00060010017000000000000000000000000000000000000000000000000000000000000000000000000000000000000000000NON       BALLOTS CAST - NONPARTISAN                              BALLOTS CAST - NONPARTISAN            Precinct 17                                            00 
00060010018000000000000000000000000000000000000000000000000000000000000000000000000000000000000000000NON       BALLOTS CAST - NONPARTISAN                              BALLOTS CAST - NONPARTISAN            Precinct 18                                            00 
00060010019000000000000000000000000000000000000000000000000000000000000000000000000000000000000000000NON       BALLOTS CAST - NONPARTISAN                              BALLOTS CAST - NONPARTISAN            Precinct 19                                            00 
00060010020000000000000000000000000000000000000000000000000000000000000000000000000000000000000000000NON       BALLOTS CAST - NONPARTISAN                              BALLOTS CAST - NONPARTISAN            Precinct 20                                            00 
00060010021000000000000000000000000000000000000000000000000000000000000000000000000000000000000000000NON       BALLOTS CAST - NONPARTISAN                              BALLOTS CAST - NONPARTISAN            Precinct 21                                            00 
00060010022000000000000000000000000000000000000000000000000000000000000000000000000000000000000000000NON       BALLOTS CAST - NONPARTISAN                              BALLOTS CAST - NONPARTISAN            Precinct 22                                            00 
00060010023000000000000000000000000000000000000000000000000000000000000000000000000000000000000000000NON       BALLOTS CAST - NONPARTISAN                              BALLOTS CAST - NONPARTISAN            Precinct 23                                            00 
00060010024000000000000000000000000000000000000000000000000000000000000000000000000000000000000000000NON       BALLOTS CAST - NONPARTISAN                              BALLOTS CAST - NONPARTISAN            Precinct 24                                            00 
00060010025000000000000000000000000000000000000000000000000000000000000000000000000000000000000000000NON       BALLOTS CAST - NONPARTISAN                              BALLOTS CAST - NONPARTISAN            Precinct 25                                            00 
00060010026000000000000000000000000000000000000000000000000000000000000000000000000000000000000000000NON       BALLOTS CAST - NONPARTISAN                              BALLOTS CAST - NONPARTISAN            Precinct 26                                            00 
00060010027000000000000000000000000000000000000000000000000000000000000000000000000000000000000000000NON       BALLOTS CAST - NONPARTISAN                              BALLOTS CAST - NONPARTISAN            Precinct 27                                            00 
00060010028000000000000000000000000000000000000000000000000000000000000000000000000000000000000000000NON       BALLOTS CAST - NONPARTISAN                              BALLOTS CAST - NONPARTISAN            Precinct 28                                            00 
00060010029000000000000000000000000000000000000000000000000000000000000000000000000000000000000000000NON       BALLOTS CAST - NONPARTISAN                              BALLOTS CAST - NONPARTISAN            Precinct 29                                            00 
00060010030000000000000000000000000000000000000000000000000000000000000000000000000000000000000000000NON       BALLOTS CAST - NONPARTISAN                              BALLOTS CAST - NONPARTISAN            Precinct 30                                            00 
00070010001000599000034000371000194000000000000000000000000000000000000000000000000000000000000000000REP       BALLOTS CAST - Republican Party                         BALLOTS CAST - Republican Party       Precinct 1                                             00 
00070010002000411000023000235000153000000000000000000000000000000000000000000000000000000000000000000REP       BALLOTS CAST - Republican Party                         BALLOTS CAST - Republican Party       Precinct 2                                             00 
00070010003000899000039000561000298000001000000000000000000000000000000000000000000000000000000000000REP       BALLOTS CAST - Republican Party                         BALLOTS CAST - Republican Party       Precinct 3                                             00 
00070010004000986000036000600000349000001000000000000000000000000000000000000000000000000000000000000REP       BALLOTS CAST - Republican Party                         BALLOTS CAST - Republican Party       Precinct 4                                             00 
00070010005000260000012000173000073000002000000000000000000000000000000000000000000000000000000000000REP       BALLOTS CAST - Republican Party                         BALLOTS CAST - Republican Party       Precinct 5                                             00 
00070010006000538000024000282000232000000000000000000000000000000000000000000000000000000000000000000REP       BALLOTS CAST - Republican Party                         BALLOTS CAST - Republican Party       Precinct 6                                             00 
00070010007000838000035000406000396000001000000000000000000000000000000000000000000000000000000000000REP       BALLOTS CAST - Republican Party                         BALLOTS CAST - Republican Party       Precinct 7                                             00 
00070010008000354000026000190000138000000000000000000000000000000000000000000000000000000000000000000REP       BALLOTS CAST - Republican Party                         BALLOTS CAST - Republican Party       Precinct 8                                             00 
00070010009000485000023000206000256000000000000000000000000000000000000000000000000000000000000000000REP       BALLOTS CAST - Republican Party                         BALLOTS CAST - Republican Party       Precinct 9                                             00 
00070010010000661000028000300000332000001000000000000000000000000000000000000000000000000000000000000REP       BALLOTS CAST - Republican Party                         BALLOTS CAST - Republican Party       Precinct 10                                            00 
00070010011000391000024000246000120000001000000000000000000000000000000000000000000000000000000000000REP       BALLOTS CAST - Republican Party                         BALLOTS CAST - Republican Party       Precinct 11                                            00 
00070010012000511000019000294000198000000000000000000000000000000000000000000000000000000000000000000REP       BALLOTS CAST - Republican Party                         BALLOTS CAST - Republican Party       Precinct 12                                            00 
00070010013000380000010000224000146000000000000000000000000000000000000000000000000000000000000000000REP       BALLOTS CAST - Republican Party                         BALLOTS CAST - Republican Party       Precinct 13                                            00 
00070010014000535000036000305000194000000000000000000000000000000000000000000000000000000000000000000REP       BALLOTS CAST - Republican Party                         BALLOTS CAST - Republican Party       Precinct 14                                            00 
00070010015000707000031000415000258000003000000000000000000000000000000000000000000000000000000000000REP       BALLOTS CAST - Republican Party                         BALLOTS CAST - Republican Party       Precinct 15                                            00 
00070010016000740000046000344000349000001000000000000000000000000000000000000000000000000000000000000REP       BALLOTS CAST - Republican Party                         BALLOTS CAST - Republican Party       Precinct 16                                            00 
00070010017000476000018000149000309000000000000000000000000000000000000000000000000000000000000000000REP       BALLOTS CAST - Republican Party                         BALLOTS CAST - Republican Party       Precinct 17                                            00 
00070010018000509000015000195000296000003000000000000000000000000000000000000000000000000000000000000REP       BALLOTS CAST - Republican Party                         BALLOTS CAST - Republican Party       Precinct 18                                            00 
00070010019000658000062000416000180000000000000000000000000000000000000000000000000000000000000000000REP       BALLOTS CAST - Republican Party                         BALLOTS CAST - Republican Party       Precinct 19                                            00 
00070010020000334000017000187000130000000000000000000000000000000000000000000000000000000000000000000REP       BALLOTS CAST - Republican Party                         BALLOTS CAST - Republican Party       Precinct 20                                            00 
00070010021000640000042000327000271000000000000000000000000000000000000000000000000000000000000000000REP       BALLOTS CAST - Republican Party                         BALLOTS CAST - Republican Party       Precinct 21                                            00 
00070010022000381000020000241000120000000000000000000000000000000000000000000000000000000000000000000REP       BALLOTS CAST - Republican Party                         BALLOTS CAST - Republican Party       Precinct 22                                            00 
00070010023000268000014000141000112000001000000000000000000000000000000000000000000000000000000000000REP       BALLOTS CAST - Republican Party                         BALLOTS CAST - Republican Party       Precinct 23                                            00 
00070010024000319000016000178000125000000000000000000000000000000000000000000000000000000000000000000REP       BALLOTS CAST - Republican Party                         BALLOTS CAST - Republican Party       Precinct 24                                            00 
00070010025000154000004000107000043000000000000000000000000000000000000000000000000000000000000000000REP       BALLOTS CAST - Republican Party                         BALLOTS CAST - Republican Party       Precinct 25                                            00 
00070010026000135000005000086000044000000000000000000000000000000000000000000000000000000000000000000REP       BALLOTS CAST - Republican Party                         BALLOTS CAST - Republican Party       Precinct 26                                            00 
00070010027000774000036000483000255000000000000000000000000000000000000000000000000000000000000000000REP       BALLOTS CAST - Republican Party                         BALLOTS CAST - Republican Party       Precinct 27                                            00 
00070010028000423000026000263000134000000000000000000000000000000000000000000000000000000000000000000REP       BALLOTS CAST - Republican Party                         BALLOTS CAST - Republican Party       Precinct 28                                            00 
00070010029000387000015000166000206000000000000000000000000000000000000000000000000000000000000000000REP       BALLOTS CAST - Republican Party                         BALLOTS CAST - Republican Party       Precinct 29                                            00 
00070010030000372000029000160000183000000000000000000000000000000000000000000000000000000000000000000REP       BALLOTS CAST - Republican Party                         BALLOTS CAST - Republican Party       Precinct 30                                            00 
00080010001000185000023000064000098000000000000000000000000000000000000000000000000000000000000000000DEM       BALLOTS CAST - Democratic Party                         BALLOTS CAST - Democratic Party       Precinct 1                                             00 
00080010002000070000012000031000027000000000000000000000000000000000000000000000000000000000000000000DEM       BALLOTS CAST - Democratic Party                         BALLOTS CAST - Democratic Party       Precinct 2                                             00 
00080010003000395000013000165000217000000000000000000000000000000000000000000000000000000000000000000DEM       BALLOTS CAST - Democratic Party                         BALLOTS CAST - Democratic Party       Precinct 3                                             00 
00080010004000306000026000136000144000000000000000000000000000000000000000000000000000000000000000000DEM       BALLOTS CAST - Democratic Party                         BALLOTS CAST - Democratic Party       Precinct 4                                             00 
00080010005000246000029000103000113000001000000000000000000000000000000000000000000000000000000000000DEM       BALLOTS CAST - Democratic Party                         BALLOTS CAST - Democratic Party       Precinct 5                                             00 
00080010006000115000015000055000045000000000000000000000000000000000000000000000000000000000000000000DEM       BALLOTS CAST - Democratic Party                         BALLOTS CAST - Democratic Party       Precinct 6                                             00 
00080010007000616000024000230000361000001000000000000000000000000000000000000000000000000000000000000DEM       BALLOTS CAST - Democratic Party                         BALLOTS CAST - Democratic Party       Precinct 7                                             00 
00080010008000170000016000055000099000000000000000000000000000000000000000000000000000000000000000000DEM       BALLOTS CAST - Democratic Party                         BALLOTS CAST - Democratic Party       Precinct 8                                             00 
00080010009000130000005000046000078000001000000000000000000000000000000000000000000000000000000000000DEM       BALLOTS CAST - Democratic Party                         BALLOTS CAST - Democratic Party       Precinct 9                                             00 
00080010010000084000007000029000048000000000000000000000000000000000000000000000000000000000000000000DEM       BALLOTS CAST - Democratic Party                         BALLOTS CAST - Democratic Party       Precinct 10                                            00 
00080010011000153000011000060000082000000000000000000000000000000000000000000000000000000000000000000DEM       BALLOTS CAST - Democratic Party                         BALLOTS CAST - Democratic Party       Precinct 11                                            00 
00080010012000078000007000027000044000000000000000000000000000000000000000000000000000000000000000000DEM       BALLOTS CAST - Democratic Party                         BALLOTS CAST - Democratic Party       Precinct 12                                            00 
00080010013000360000005000143000210000002000000000000000000000000000000000000000000000000000000000000DEM       BALLOTS CAST - Democratic Party                         BALLOTS CAST - Democratic Party       Precinct 13                                            00 
00080010014000379000008000150000219000002000000000000000000000000000000000000000000000000000000000000DEM       BALLOTS CAST - Democratic Party                         BALLOTS CAST - Democratic Party       Precinct 14                                            00 
00080010015000112000011000045000056000000000000000000000000000000000000000000000000000000000000000000DEM       BALLOTS CAST - Democratic Party                         BALLOTS CAST - Democratic Party       Precinct 15                                            00 
00080010016000108000012000039000057000000000000000000000000000000000000000000000000000000000000000000DEM       BALLOTS CAST - Democratic Party                         BALLOTS CAST - Democratic Party       Precinct 16                                            00 
00080010017000084000004000019000060000001000000000000000000000000000000000000000000000000000000000000DEM       BALLOTS CAST - Democratic Party                         BALLOTS CAST - Democratic Party       Precinct 17                                            00 
00080010018000122000006000037000079000000000000000000000000000000000000000000000000000000000000000000DEM       BALLOTS CAST - Democratic Party                         BALLOTS CAST - Democratic Party       Precinct 18                                            00 
00080010019000202000020000088000094000000000000000000000000000000000000000000000000000000000000000000DEM       BALLOTS CAST - Democratic Party                         BALLOTS CAST - Democratic Party       Precinct 19                                            00 
00080010020000080000005000033000042000000000000000000000000000000000000000000000000000000000000000000DEM       BALLOTS CAST - Democratic Party                         BALLOTS CAST - Democratic Party       Precinct 20                                            00 
00080010021000091000009000019000063000000000000000000000000000000000000000000000000000000000000000000DEM       BALLOTS CAST - Democratic Party                         BALLOTS CAST - Democratic Party       Precinct 21                                            00 
00080010022000055000000000025000030000000000000000000000000000000000000000000000000000000000000000000DEM       BALLOTS CAST - Democratic Party                         BALLOTS CAST - Democratic Party       Precinct 22                                            00 
00080010023000072000003000040000029000000000000000000000000000000000000000000000000000000000000000000DEM       BALLOTS CAST - Democratic Party                         BALLOTS CAST - Democratic Party       Precinct 23                                            00 
00080010024000096000011000048000035000002000000000000000000000000000000000000000000000000000000000000DEM       BALLOTS CAST - Democratic Party                         BALLOTS CAST - Democratic Party       Precinct 24                                            00 
00080010025000070000007000045000018000000000000000000000000000000000000000000000000000000000000000000DEM       BALLOTS CAST - Democratic Party                         BALLOTS CAST - Democratic Party       Precinct 25                                            00 
00080010026000175000026000045000103000001000000000000000000000000000000000000000000000000000000000000DEM       BALLOTS CAST - Democratic Party                         BALLOTS CAST - Democratic Party       Precinct 26                                            00 
00080010027000352000015000154000183000000000000000000000000000000000000000000000000000000000000000000DEM       BALLOTS CAST - Democratic Party                         BALLOTS CAST - Democratic Party       Precinct 27                                            00 
00080010028000081000011000036000034000000000000000000000000000000000000000000000000000000000000000000DEM       BALLOTS CAST - Democratic Party                         BALLOTS CAST - Democratic Party       Precinct 28                                            00 
00080010029000495000017000152000326000000000000000000000000000000000000000000000000000000000000000000DEM       BALLOTS CAST - Democratic Party                         BALLOTS CAST - Democratic Party       Precinct 29                                            00 
00080010030000087000006000029000052000000000000000000000000000000000000000000000000000000000000000000DEM       BALLOTS CAST - Democratic Party                         BALLOTS CAST - Democratic Party       Precinct 30                                            00 
00090010001000000000000000000000000000000000000000000000000000000000000000000000000000000000000000000          BALLOTS CAST - BLANK                                    BALLOTS CAST - BLANK                  Precinct 1                                             00 
00090010002000000000000000000000000000000000000000000000000000000000000000000000000000000000000000000          BALLOTS CAST - BLANK                                    BALLOTS CAST - BLANK                  Precinct 2                                             00 
00090010003000000000000000000000000000000000000000000000000000000000000000000000000000000000000000000          BALLOTS CAST - BLANK                                    BALLOTS CAST - BLANK                  Precinct 3                                             00 
00090010004000000000000000000000000000000000000000000000000000000000000000000000000000000000000000000          BALLOTS CAST - BLANK                                    BALLOTS CAST - BLANK                  Precinct 4                                             00 
00090010005000000000000000000000000000000000000000000000000000000000000000000000000000000000000000000          BALLOTS CAST - BLANK                                    BALLOTS CAST - BLANK                  Precinct 5                                             00 
00090010006000000000000000000000000000000000000000000000000000000000000000000000000000000000000000000          BALLOTS CAST - BLANK                                    BALLOTS CAST - BLANK                  Precinct 6                                             00 
00090010007000000000000000000000000000000000000000000000000000000000000000000000000000000000000000000          BALLOTS CAST - BLANK                                    BALLOTS CAST - BLANK                  Precinct 7                                             00 
00090010008000000000000000000000000000000000000000000000000000000000000000000000000000000000000000000          BALLOTS CAST - BLANK                                    BALLOTS CAST - BLANK                  Precinct 8                                             00 
00090010009000000000000000000000000000000000000000000000000000000000000000000000000000000000000000000          BALLOTS CAST - BLANK                                    BALLOTS CAST - BLANK                  Precinct 9                                             00 
00090010010000000000000000000000000000000000000000000000000000000000000000000000000000000000000000000          BALLOTS CAST - BLANK                                    BALLOTS CAST - BLANK                  Precinct 10                                            00 
00090010011000000000000000000000000000000000000000000000000000000000000000000000000000000000000000000          BALLOTS CAST - BLANK                                    BALLOTS CAST - BLANK                  Precinct 11                                            00 
00090010012000000000000000000000000000000000000000000000000000000000000000000000000000000000000000000          BALLOTS CAST - BLANK                                    BALLOTS CAST - BLANK                  Precinct 12                                            00 
00090010013000000000000000000000000000000000000000000000000000000000000000000000000000000000000000000          BALLOTS CAST - BLANK                                    BALLOTS CAST - BLANK                  Precinct 13                                            00 
00090010014000000000000000000000000000000000000000000000000000000000000000000000000000000000000000000          BALLOTS CAST - BLANK                                    BALLOTS CAST - BLANK                  Precinct 14                                            00 
00090010015000000000000000000000000000000000000000000000000000000000000000000000000000000000000000000          BALLOTS CAST - BLANK                                    BALLOTS CAST - BLANK                  Precinct 15                                            00 
00090010016000000000000000000000000000000000000000000000000000000000000000000000000000000000000000000          BALLOTS CAST - BLANK                                    BALLOTS CAST - BLANK                  Precinct 16                                            00 
00090010017000000000000000000000000000000000000000000000000000000000000000000000000000000000000000000          BALLOTS CAST - BLANK                                    BALLOTS CAST - BLANK                  Precinct 17                                            00 
00090010018000000000000000000000000000000000000000000000000000000000000000000000000000000000000000000          BALLOTS CAST - BLANK                                    BALLOTS CAST - BLANK                  Precinct 18                                            00 
00090010019000000000000000000000000000000000000000000000000000000000000000000000000000000000000000000          BALLOTS CAST - BLANK                                    BALLOTS CAST - BLANK                  Precinct 19                                            00 
00090010020000000000000000000000000000000000000000000000000000000000000000000000000000000000000000000          BALLOTS CAST - BLANK                                    BALLOTS CAST - BLANK                  Precinct 20                                            00 
00090010021000001000000000001000000000000000000000000000000000000000000000000000000000000000000000000          BALLOTS CAST - BLANK                                    BALLOTS CAST - BLANK                  Precinct 21                                            00 
00090010022000000000000000000000000000000000000000000000000000000000000000000000000000000000000000000          BALLOTS CAST - BLANK                                    BALLOTS CAST - BLANK                  Precinct 22                                            00 
00090010023000000000000000000000000000000000000000000000000000000000000000000000000000000000000000000          BALLOTS CAST - BLANK                                    BALLOTS CAST - BLANK                  Precinct 23                                            00 
00090010024000000000000000000000000000000000000000000000000000000000000000000000000000000000000000000          BALLOTS CAST - BLANK                                    BALLOTS CAST - BLANK                  Precinct 24                                            00 
00090010025000000000000000000000000000000000000000000000000000000000000000000000000000000000000000000          BALLOTS CAST - BLANK                                    BALLOTS CAST - BLANK                  Precinct 25                                            00 
00090010026000000000000000000000000000000000000000000000000000000000000000000000000000000000000000000          BALLOTS CAST - BLANK                                    BALLOTS CAST - BLANK                  Precinct 26                                            00 
00090010027000000000000000000000000000000000000000000000000000000000000000000000000000000000000000000          BALLOTS CAST - BLANK                                    BALLOTS CAST - BLANK                  Precinct 27                                            00 
00090010028000000000000000000000000000000000000000000000000000000000000000000000000000000000000000000          BALLOTS CAST - BLANK                                    BALLOTS CAST - BLANK                  Precinct 28                                            00 
00090010029000000000000000000000000000000000000000000000000000000000000000000000000000000000000000000          BALLOTS CAST - BLANK                                    BALLOTS CAST - BLANK                  Precinct 29                                            00 
00090010030000000000000000000000000000000000000000000000000000000000000000000000000000000000000000000          BALLOTS CAST - BLANK                                    BALLOTS CAST - BLANK                  Precinct 30                                            00 
00100010001000514000027000315000172000000000000000000000000000000000000000000000000000000000000000000REP       REP REP President                                       Donald J. Trump                       Precinct 1                                             01 
00100010002000371000019000213000139000000000000000000000000000000000000000000000000000000000000000000REP       REP REP President                                       Donald J. Trump                       Precinct 2                                             01 
00100010003000828000038000515000274000001000000000000000000000000000000000000000000000000000000000000REP       REP REP President                                       Donald J. Trump                       Precinct 3                                             01 
00100010004000934000033000566000334000001000000000000000000000000000000000000000000000000000000000000REP       REP REP President                                       Donald J. Trump                       Precinct 4                                             01 
00100010005000144000010000090000044000000000000000000000000000000000000000000000000000000000000000000REP       REP REP President                                       Donald J. Trump                       Precinct 5                                             01 
00100010006000506000023000268000215000000000000000000000000000000000000000000000000000000000000000000REP       REP REP President                                       Donald J. Trump                       Precinct 6                                             01 
00100010007000757000032000367000358000000000000000000000000000000000000000000000000000000000000000000REP       REP REP President                                       Donald J. Trump                       Precinct 7                                             01 
00100010008000318000025000169000124000000000000000000000000000000000000000000000000000000000000000000REP       REP REP President                                       Donald J. Trump                       Precinct 8                                             01 
00100010009000455000022000191000242000000000000000000000000000000000000000000000000000000000000000000REP       REP REP President                                       Donald J. Trump                       Precinct 9                                             01 
00100010010000635000026000292000316000001000000000000000000000000000000000000000000000000000000000000REP       REP REP President                                       Donald J. Trump                       Precinct 10                                            01 
00100010011000368000023000227000117000001000000000000000000000000000000000000000000000000000000000000REP       REP REP President                                       Donald J. Trump                       Precinct 11                                            01 
00100010012000487000019000284000184000000000000000000000000000000000000000000000000000000000000000000REP       REP REP President                                       Donald J. Trump                       Precinct 12                                            01 
00100010013000337000010000194000133000000000000000000000000000000000000000000000000000000000000000000REP       REP REP President                                       Donald J. Trump                       Precinct 13                                            01 
00100010014000482000035000275000172000000000000000000000000000000000000000000000000000000000000000000REP       REP REP President                                       Donald J. Trump                       Precinct 14                                            01 
00100010015000679000031000393000252000003000000000000000000000000000000000000000000000000000000000000REP       REP REP President                                       Donald J. Trump                       Precinct 15                                            01 
00100010016000693000043000325000325000000000000000000000000000000000000000000000000000000000000000000REP       REP REP President                                       Donald J. Trump                       Precinct 16                                            01 
00100010017000466000018000145000303000000000000000000000000000000000000000000000000000000000000000000REP       REP REP President                                       Donald J. Trump                       Precinct 17                                            01 
00100010018000483000014000188000278000003000000000000000000000000000000000000000000000000000000000000REP       REP REP President                                       Donald J. Trump                       Precinct 18                                            01 
00100010019000575000059000353000163000000000000000000000000000000000000000000000000000000000000000000REP       REP REP President                                       Donald J. Trump                       Precinct 19                                            01 
00100010020000316000015000175000126000000000000000000000000000000000000000000000000000000000000000000REP       REP REP President                                       Donald J. Trump                       Precinct 20                                            01 
00100010021000596000040000307000249000000000000000000000000000000000000000000000000000000000000000000REP       REP REP President                                       Donald J. Trump                       Precinct 21                                            01 
00100010022000355000020000223000112000000000000000000000000000000000000000000000000000000000000000000REP       REP REP President                                       Donald J. Trump                       Precinct 22                                            01 
00100010023000243000012000129000101000001000000000000000000000000000000000000000000000000000000000000REP       REP REP President                                       Donald J. Trump                       Precinct 23                                            01 
00100010024000287000015000158000114000000000000000000000000000000000000000000000000000000000000000000REP       REP REP President                                       Donald J. Trump                       Precinct 24                                            01 
00100010025000130000004000088000038000000000000000000000000000000000000000000000000000000000000000000REP       REP REP President                                       Donald J. Trump                       Precinct 25                                            01 
00100010026000058000002000028000028000000000000000000000000000000000000000000000000000000000000000000REP       REP REP President                                       Donald J. Trump                       Precinct 26                                            01 
00100010027000705000034000438000233000000000000000000000000000000000000000000000000000000000000000000REP       REP REP President                                       Donald J. Trump                       Precinct 27                                            01 
00100010028000379000023000234000122000000000000000000000000000000000000000000000000000000000000000000REP       REP REP President                                       Donald J. Trump                       Precinct 28                                            01 
00100010029000346000015000142000189000000000000000000000000000000000000000000000000000000000000000000REP       REP REP President                                       Donald J. Trump                       Precinct 29                                            01 
00100010030000343000028000146000169000000000000000000000000000000000000000000000000000000000000000000REP       REP REP President                                       Donald J. Trump                       Precinct 30                                            01 
00100020001000010000002000005000003000000000000000000000000000000000000000000000000000000000000000000REP       REP REP President                                       Bill Weld                             Precinct 1                                             01 
00100020002000004000000000002000002000000000000000000000000000000000000000000000000000000000000000000REP       REP REP President                                       Bill Weld                             Precinct 2                                             01 
00100020003000006000000000003000003000000000000000000000000000000000000000000000000000000000000000000REP       REP REP President                                       Bill Weld                             Precinct 3                                             01 
00100020004000005000000000003000002000000000000000000000000000000000000000000000000000000000000000000REP       REP REP President                                       Bill Weld                             Precinct 4                                             01 
00100020005000004000000000003000001000000000000000000000000000000000000000000000000000000000000000000REP       REP REP President                                       Bill Weld                             Precinct 5                                             01 
00100020006000001000000000001000000000000000000000000000000000000000000000000000000000000000000000000REP       REP REP President                                       Bill Weld                             Precinct 6                                             01 
00100020007000009000000000005000004000000000000000000000000000000000000000000000000000000000000000000REP       REP REP President                                       Bill Weld                             Precinct 7                                             01 
00100020008000002000000000001000001000000000000000000000000000000000000000000000000000000000000000000REP       REP REP President                                       Bill Weld                             Precinct 8                                             01 
00100020009000000000000000000000000000000000000000000000000000000000000000000000000000000000000000000REP       REP REP President                                       Bill Weld                             Precinct 9                                             01 
00100020010000007000000000002000005000000000000000000000000000000000000000000000000000000000000000000REP       REP REP President                                       Bill Weld                             Precinct 10                                            01 
00100020011000003000000000003000000000000000000000000000000000000000000000000000000000000000000000000REP       REP REP President                                       Bill Weld                             Precinct 11                                            01 
00100020012000001000000000000000001000000000000000000000000000000000000000000000000000000000000000000REP       REP REP President                                       Bill Weld                             Precinct 12                                            01 
00100020013000006000000000005000001000000000000000000000000000000000000000000000000000000000000000000REP       REP REP President                                       Bill Weld                             Precinct 13                                            01 
00100020014000007000000000005000002000000000000000000000000000000000000000000000000000000000000000000REP       REP REP President                                       Bill Weld                             Precinct 14                                            01 
00100020015000003000000000002000001000000000000000000000000000000000000000000000000000000000000000000REP       REP REP President                                       Bill Weld                             Precinct 15                                            01 
00100020016000002000000000001000001000000000000000000000000000000000000000000000000000000000000000000REP       REP REP President                                       Bill Weld                             Precinct 16                                            01 
00100020017000000000000000000000000000000000000000000000000000000000000000000000000000000000000000000REP       REP REP President                                       Bill Weld                             Precinct 17                                            01 
00100020018000001000000000000000001000000000000000000000000000000000000000000000000000000000000000000REP       REP REP President                                       Bill Weld                             Precinct 18                                            01 
00100020019000016000001000012000003000000000000000000000000000000000000000000000000000000000000000000REP       REP REP President                                       Bill Weld                             Precinct 19                                            01 
00100020020000000000000000000000000000000000000000000000000000000000000000000000000000000000000000000REP       REP REP President                                       Bill Weld                             Precinct 20                                            01 
00100020021000008000000000004000004000000000000000000000000000000000000000000000000000000000000000000REP       REP REP President                                       Bill Weld                             Precinct 21                                            01 
00100020022000002000000000002000000000000000000000000000000000000000000000000000000000000000000000000REP       REP REP President                                       Bill Weld                             Precinct 22                                            01 
00100020023000001000000000001000000000000000000000000000000000000000000000000000000000000000000000000REP       REP REP President                                       Bill Weld                             Precinct 23                                            01 
00100020024000004000000000003000001000000000000000000000000000000000000000000000000000000000000000000REP       REP REP President                                       Bill Weld                             Precinct 24                                            01 
00100020025000000000000000000000000000000000000000000000000000000000000000000000000000000000000000000REP       REP REP President                                       Bill Weld                             Precinct 25                                            01 
00100020026000000000000000000000000000000000000000000000000000000000000000000000000000000000000000000REP       REP REP President                                       Bill Weld                             Precinct 26                                            01 
00100020027000006000000000002000004000000000000000000000000000000000000000000000000000000000000000000REP       REP REP President                                       Bill Weld                             Precinct 27                                            01 
00100020028000007000000000005000002000000000000000000000000000000000000000000000000000000000000000000REP       REP REP President                                       Bill Weld                             Precinct 28                                            01 
00100020029000004000000000002000002000000000000000000000000000000000000000000000000000000000000000000REP       REP REP President                                       Bill Weld                             Precinct 29                                            01 
00100020030000002000000000000000002000000000000000000000000000000000000000000000000000000000000000000REP       REP REP President                                       Bill Weld                             Precinct 30                                            01 
00100030001000002000001000000000001000000000000000000000000000000000000000000000000000000000000000000REP       REP REP President                                       Zoltan G. Istvan                      Precinct 1                                             01 
00100030002000000000000000000000000000000000000000000000000000000000000000000000000000000000000000000REP       REP REP President                                       Zoltan G. Istvan                      Precinct 2                                             01 
00100030003000000000000000000000000000000000000000000000000000000000000000000000000000000000000000000REP       REP REP President                                       Zoltan G. Istvan                      Precinct 3                                             01 
00100030004000000000000000000000000000000000000000000000000000000000000000000000000000000000000000000REP       REP REP President                                       Zoltan G. Istvan                      Precinct 4                                             01 
00100030005000000000000000000000000000000000000000000000000000000000000000000000000000000000000000000REP       REP REP President                                       Zoltan G. Istvan                      Precinct 5                                             01 
00100030006000000000000000000000000000000000000000000000000000000000000000000000000000000000000000000REP       REP REP President                                       Zoltan G. Istvan                      Precinct 6                                             01 
00100030007000000000000000000000000000000000000000000000000000000000000000000000000000000000000000000REP       REP REP President                                       Zoltan G. Istvan                      Precinct 7                                             01 
00100030008000000000000000000000000000000000000000000000000000000000000000000000000000000000000000000REP       REP REP President                                       Zoltan G. Istvan                      Precinct 8                                             01 
00100030009000000000000000000000000000000000000000000000000000000000000000000000000000000000000000000REP       REP REP President                                       Zoltan G. Istvan                      Precinct 9                                             01 
00100030010000000000000000000000000000000000000000000000000000000000000000000000000000000000000000000REP       REP REP President                                       Zoltan G. Istvan                      Precinct 10                                            01 
00100030011000000000000000000000000000000000000000000000000000000000000000000000000000000000000000000REP       REP REP President                                       Zoltan G. Istvan                      Precinct 11                                            01 
00100030012000000000000000000000000000000000000000000000000000000000000000000000000000000000000000000REP       REP REP President                                       Zoltan G. Istvan                      Precinct 12                                            01 
00100030013000001000000000001000000000000000000000000000000000000000000000000000000000000000000000000REP       REP REP President                                       Zoltan G. Istvan                      Precinct 13                                            01 
00100030014000001000000000001000000000000000000000000000000000000000000000000000000000000000000000000REP       REP REP President                                       Zoltan G. Istvan                      Precinct 14                                            01 
00100030015000000000000000000000000000000000000000000000000000000000000000000000000000000000000000000REP       REP REP President                                       Zoltan G. Istvan                      Precinct 15                                            01 
00100030016000001000000000000000001000000000000000000000000000000000000000000000000000000000000000000REP       REP REP President                                       Zoltan G. Istvan                      Precinct 16                                            01 
00100030017000000000000000000000000000000000000000000000000000000000000000000000000000000000000000000REP       REP REP President                                       Zoltan G. Istvan                      Precinct 17                                            01 
00100030018000001000000000000000001000000000000000000000000000000000000000000000000000000000000000000REP       REP REP President                                       Zoltan G. Istvan                      Precinct 18                                            01 
00100030019000002000001000001000000000000000000000000000000000000000000000000000000000000000000000000REP       REP REP President                                       Zoltan G. Istvan                      Precinct 19                                            01 
00100030020000000000000000000000000000000000000000000000000000000000000000000000000000000000000000000REP       REP REP President                                       Zoltan G. Istvan                      Precinct 20                                            01 
00100030021000000000000000000000000000000000000000000000000000000000000000000000000000000000000000000REP       REP REP President                                       Zoltan G. Istvan                      Precinct 21                                            01 
00100030022000000000000000000000000000000000000000000000000000000000000000000000000000000000000000000REP       REP REP President                                       Zoltan G. Istvan                      Precinct 22                                            01 
00100030023000000000000000000000000000000000000000000000000000000000000000000000000000000000000000000REP       REP REP President                                       Zoltan G. Istvan                      Precinct 23                                            01 
00100030024000000000000000000000000000000000000000000000000000000000000000000000000000000000000000000REP       REP REP President                                       Zoltan G. Istvan                      Precinct 24                                            01 
00100030025000000000000000000000000000000000000000000000000000000000000000000000000000000000000000000REP       REP REP President                                       Zoltan G. Istvan                      Precinct 25                                            01 
00100030026000000000000000000000000000000000000000000000000000000000000000000000000000000000000000000REP       REP REP President                                       Zoltan G. Istvan                      Precinct 26                                            01 
00100030027000001000000000000000001000000000000000000000000000000000000000000000000000000000000000000REP       REP REP President                                       Zoltan G. Istvan                      Precinct 27                                            01 
00100030028000000000000000000000000000000000000000000000000000000000000000000000000000000000000000000REP       REP REP President                                       Zoltan G. Istvan                      Precinct 28                                            01 
00100030029000000000000000000000000000000000000000000000000000000000000000000000000000000000000000000REP       REP REP President                                       Zoltan G. Istvan                      Precinct 29                                            01 
00100030030000000000000000000000000000000000000000000000000000000000000000000000000000000000000000000REP       REP REP President                                       Zoltan G. Istvan                      Precinct 30                                            01 
00100040001000005000002000002000001000000000000000000000000000000000000000000000000000000000000000000REP       REP REP President                                       Joe Walsh                             Precinct 1                                             01 
00100040002000002000000000002000000000000000000000000000000000000000000000000000000000000000000000000REP       REP REP President                                       Joe Walsh                             Precinct 2                                             01 
00100040003000006000000000004000002000000000000000000000000000000000000000000000000000000000000000000REP       REP REP President                                       Joe Walsh                             Precinct 3                                             01 
00100040004000002000000000000000002000000000000000000000000000000000000000000000000000000000000000000REP       REP REP President                                       Joe Walsh                             Precinct 4                                             01 
00100040005000005000000000002000002000001000000000000000000000000000000000000000000000000000000000000REP       REP REP President                                       Joe Walsh                             Precinct 5                                             01 
00100040006000002000001000001000000000000000000000000000000000000000000000000000000000000000000000000REP       REP REP President                                       Joe Walsh                             Precinct 6                                             01 
00100040007000006000000000004000002000000000000000000000000000000000000000000000000000000000000000000REP       REP REP President                                       Joe Walsh                             Precinct 7                                             01 
00100040008000002000000000000000002000000000000000000000000000000000000000000000000000000000000000000REP       REP REP President                                       Joe Walsh                             Precinct 8                                             01 
00100040009000003000001000002000000000000000000000000000000000000000000000000000000000000000000000000REP       REP REP President                                       Joe Walsh                             Precinct 9                                             01 
00100040010000003000000000002000001000000000000000000000000000000000000000000000000000000000000000000REP       REP REP President                                       Joe Walsh                             Precinct 10                                            01 
00100040011000003000000000002000001000000000000000000000000000000000000000000000000000000000000000000REP       REP REP President                                       Joe Walsh                             Precinct 11                                            01 
00100040012000001000000000000000001000000000000000000000000000000000000000000000000000000000000000000REP       REP REP President                                       Joe Walsh                             Precinct 12                                            01 
00100040013000006000000000004000002000000000000000000000000000000000000000000000000000000000000000000REP       REP REP President                                       Joe Walsh                             Precinct 13                                            01 
00100040014000007000000000003000004000000000000000000000000000000000000000000000000000000000000000000REP       REP REP President                                       Joe Walsh                             Precinct 14                                            01 
00100040015000003000000000003000000000000000000000000000000000000000000000000000000000000000000000000REP       REP REP President                                       Joe Walsh                             Precinct 15                                            01 
00100040016000005000000000001000004000000000000000000000000000000000000000000000000000000000000000000REP       REP REP President                                       Joe Walsh                             Precinct 16                                            01 
00100040017000000000000000000000000000000000000000000000000000000000000000000000000000000000000000000REP       REP REP President                                       Joe Walsh                             Precinct 17                                            01 
