00010010001000000000000000000000000000000000000000000000000000000000000000000000000000000000000000000          REGISTERED VOTERS - TOTAL                               REGISTERED VOTERS - TOTAL             1 - Olton Community Center                             00 
00010010002000000000000000000000000000000000000000000000000000000000000000000000000000000000000000000          REGISTERED VOTERS - TOTAL                               REGISTERED VOTERS - TOTAL             2 - Lamb County Ag Center                              00 
00010010003000000000000000000000000000000000000000000000000000000000000000000000000000000000000000000          REGISTERED VOTERS - TOTAL                               REGISTERED VOTERS - TOTAL             3 - Earth Community Center                             00 
00010010004000000000000000000000000000000000000000000000000000000000000000000000000000000000000000000          REGISTERED VOTERS - TOTAL                               REGISTERED VOTERS - TOTAL             4 - Sudan Community Center                             00 
00010010005000000000000000000000000000000000000000000000000000000000000000000000000000000000000000000          REGISTERED VOTERS - TOTAL                               REGISTERED VOTERS - TOTAL             5 - Olton Community Center                             00 
00010010006000000000000000000000000000000000000000000000000000000000000000000000000000000000000000000          REGISTERED VOTERS - TOTAL                               REGISTERED VOTERS - TOTAL             6 - Lamb County Ag Center                              00 
00010010007000000000000000000000000000000000000000000000000000000000000000000000000000000000000000000          REGISTERED VOTERS - TOTAL                               REGISTERED VOTERS - TOTAL             7 & 8 - Lamb County Ag Center                          00 
00010010008000000000000000000000000000000000000000000000000000000000000000000000000000000000000000000          REGISTERED VOTERS - TOTAL                               REGISTERED VOTERS - TOTAL             9 - Lamb County Ag Center                              00 
00010010009000000000000000000000000000000000000000000000000000000000000000000000000000000000000000000          REGISTERED VOTERS - TOTAL                               REGISTERED VOTERS - TOTAL             10 - Amherst Community Center                          00 
00010010010000000000000000000000000000000000000000000000000000000000000000000000000000000000000000000          REGISTERED VOTERS - TOTAL                               REGISTERED VOTERS - TOTAL             11 - Sudan Community Center                            00 
00010010011000000000000000000000000000000000000000000000000000000000000000000000000000000000000000000          REGISTERED VOTERS - TOTAL                               REGISTERED VOTERS - TOTAL             12 - Springlake First Baptist                          00 
00020010001000000000000000000000000000000000000000000000000000000000000000000000000000000000000000000NON       REGISTERED VOTERS - NONPARTISAN                         REGISTERED VOTERS - NONPARTISAN       1 - Olton Community Center                             00 
00020010002000000000000000000000000000000000000000000000000000000000000000000000000000000000000000000NON       REGISTERED VOTERS - NONPARTISAN                         REGISTERED VOTERS - NONPARTISAN       2 - Lamb County Ag Center                              00 
00020010003000000000000000000000000000000000000000000000000000000000000000000000000000000000000000000NON       REGISTERED VOTERS - NONPARTISAN                         REGISTERED VOTERS - NONPARTISAN       3 - Earth Community Center                             00 
00020010004000000000000000000000000000000000000000000000000000000000000000000000000000000000000000000NON       REGISTERED VOTERS - NONPARTISAN                         REGISTERED VOTERS - NONPARTISAN       4 - Sudan Community Center                             00 
00020010005000000000000000000000000000000000000000000000000000000000000000000000000000000000000000000NON       REGISTERED VOTERS - NONPARTISAN                         REGISTERED VOTERS - NONPARTISAN       5 - Olton Community Center                             00 
00020010006000000000000000000000000000000000000000000000000000000000000000000000000000000000000000000NON       REGISTERED VOTERS - NONPARTISAN                         REGISTERED VOTERS - NONPARTISAN       6 - Lamb County Ag Center                              00 
00020010007000000000000000000000000000000000000000000000000000000000000000000000000000000000000000000NON       REGISTERED VOTERS - NONPARTISAN                         REGISTERED VOTERS - NONPARTISAN       7 & 8 - Lamb County Ag Center                          00 
00020010008000000000000000000000000000000000000000000000000000000000000000000000000000000000000000000NON       REGISTERED VOTERS - NONPARTISAN                         REGISTERED VOTERS - NONPARTISAN       9 - Lamb County Ag Center                              00 
00020010009000000000000000000000000000000000000000000000000000000000000000000000000000000000000000000NON       REGISTERED VOTERS - NONPARTISAN                         REGISTERED VOTERS - NONPARTISAN       10 - Amherst Community Center                          00 
00020010010000000000000000000000000000000000000000000000000000000000000000000000000000000000000000000NON       REGISTERED VOTERS - NONPARTISAN                         REGISTERED VOTERS - NONPARTISAN       11 - Sudan Community Center                            00 
00020010011000000000000000000000000000000000000000000000000000000000000000000000000000000000000000000NON       REGISTERED VOTERS - NONPARTISAN                         REGISTERED VOTERS - NONPARTISAN       12 - Springlake First Baptist                          00 
00030010001000000000000000000000000000000000000000000000000000000000000000000000000000000000000000000REP       REGISTERED VOTERS - Republican Party                    REGISTERED VOTERS - Republican Party  1 - Olton Community Center                             00 
00030010002000000000000000000000000000000000000000000000000000000000000000000000000000000000000000000REP       REGISTERED VOTERS - Republican Party                    REGISTERED VOTERS - Republican Party  2 - Lamb County Ag Center                              00 
00030010003000000000000000000000000000000000000000000000000000000000000000000000000000000000000000000REP       REGISTERED VOTERS - Republican Party                    REGISTERED VOTERS - Republican Party  3 - Earth Community Center                             00 
00030010004000000000000000000000000000000000000000000000000000000000000000000000000000000000000000000REP       REGISTERED VOTERS - Republican Party                    REGISTERED VOTERS - Republican Party  4 - Sudan Community Center                             00 
00030010005000000000000000000000000000000000000000000000000000000000000000000000000000000000000000000REP       REGISTERED VOTERS - Republican Party                    REGISTERED VOTERS - Republican Party  5 - Olton Community Center                             00 
00030010006000000000000000000000000000000000000000000000000000000000000000000000000000000000000000000REP       REGISTERED VOTERS - Republican Party                    REGISTERED VOTERS - Republican Party  6 - Lamb County Ag Center                              00 
00030010007000000000000000000000000000000000000000000000000000000000000000000000000000000000000000000REP       REGISTERED VOTERS - Republican Party                    REGISTERED VOTERS - Republican Party  7 & 8 - Lamb County Ag Center                          00 
00030010008000000000000000000000000000000000000000000000000000000000000000000000000000000000000000000REP       REGISTERED VOTERS - Republican Party                    REGISTERED VOTERS - Republican Party  9 - Lamb County Ag Center                              00 
00030010009000000000000000000000000000000000000000000000000000000000000000000000000000000000000000000REP       REGISTERED VOTERS - Republican Party                    REGISTERED VOTERS - Republican Party  10 - Amherst Community Center                          00 
00030010010000000000000000000000000000000000000000000000000000000000000000000000000000000000000000000REP       REGISTERED VOTERS - Republican Party                    REGISTERED VOTERS - Republican Party  11 - Sudan Community Center                            00 
00030010011000000000000000000000000000000000000000000000000000000000000000000000000000000000000000000REP       REGISTERED VOTERS - Republican Party                    REGISTERED VOTERS - Republican Party  12 - Springlake First Baptist                          00 
00040010001000000000000000000000000000000000000000000000000000000000000000000000000000000000000000000DEM       REGISTERED VOTERS - Democratic Party                    REGISTERED VOTERS - Democratic Party  1 - Olton Community Center                             00 
00040010002000000000000000000000000000000000000000000000000000000000000000000000000000000000000000000DEM       REGISTERED VOTERS - Democratic Party                    REGISTERED VOTERS - Democratic Party  2 - Lamb County Ag Center                              00 
00040010003000000000000000000000000000000000000000000000000000000000000000000000000000000000000000000DEM       REGISTERED VOTERS - Democratic Party                    REGISTERED VOTERS - Democratic Party  3 - Earth Community Center                             00 
00040010004000000000000000000000000000000000000000000000000000000000000000000000000000000000000000000DEM       REGISTERED VOTERS - Democratic Party                    REGISTERED VOTERS - Democratic Party  4 - Sudan Community Center                             00 
00040010005000000000000000000000000000000000000000000000000000000000000000000000000000000000000000000DEM       REGISTERED VOTERS - Democratic Party                    REGISTERED VOTERS - Democratic Party  5 - Olton Community Center                             00 
00040010006000000000000000000000000000000000000000000000000000000000000000000000000000000000000000000DEM       REGISTERED VOTERS - Democratic Party                    REGISTERED VOTERS - Democratic Party  6 - Lamb County Ag Center                              00 
00040010007000000000000000000000000000000000000000000000000000000000000000000000000000000000000000000DEM       REGISTERED VOTERS - Democratic Party                    REGISTERED VOTERS - Democratic Party  7 & 8 - Lamb County Ag Center                          00 
00040010008000000000000000000000000000000000000000000000000000000000000000000000000000000000000000000DEM       REGISTERED VOTERS - Democratic Party                    REGISTERED VOTERS - Democratic Party  9 - Lamb County Ag Center                              00 
00040010009000000000000000000000000000000000000000000000000000000000000000000000000000000000000000000DEM       REGISTERED VOTERS - Democratic Party                    REGISTERED VOTERS - Democratic Party  10 - Amherst Community Center                          00 
00040010010000000000000000000000000000000000000000000000000000000000000000000000000000000000000000000DEM       REGISTERED VOTERS - Democratic Party                    REGISTERED VOTERS - Democratic Party  11 - Sudan Community Center                            00 
00040010011000000000000000000000000000000000000000000000000000000000000000000000000000000000000000000DEM       REGISTERED VOTERS - Democratic Party                    REGISTERED VOTERS - Democratic Party  12 - Springlake First Baptist                          00 
00050010001000287000010000035000242000000000000000000000000000000000000000000000000000000000000000000          BALLOTS CAST - TOTAL                                    BALLOTS CAST - TOTAL                  1 - Olton Community Center                             00 
00050010002000113000011000043000059000000000000000000000000000000000000000000000000000000000000000000          BALLOTS CAST - TOTAL                                    BALLOTS CAST - TOTAL                  2 - Lamb County Ag Center                              00 
00050010003000175000005000027000143000000000000000000000000000000000000000000000000000000000000000000          BALLOTS CAST - TOTAL                                    BALLOTS CAST - TOTAL                  3 - Earth Community Center                             00 
00050010004000009000000000006000003000000000000000000000000000000000000000000000000000000000000000000          BALLOTS CAST - TOTAL                                    BALLOTS CAST - TOTAL                  4 - Sudan Community Center                             00 
00050010005000103000003000013000087000000000000000000000000000000000000000000000000000000000000000000          BALLOTS CAST - TOTAL                                    BALLOTS CAST - TOTAL                  5 - Olton Community Center                             00 
00050010006000075000009000033000033000000000000000000000000000000000000000000000000000000000000000000          BALLOTS CAST - TOTAL                                    BALLOTS CAST - TOTAL                  6 - Lamb County Ag Center                              00 
00050010007000624000032000296000296000000000000000000000000000000000000000000000000000000000000000000          BALLOTS CAST - TOTAL                                    BALLOTS CAST - TOTAL                  7 & 8 - Lamb County Ag Center                          00 
00050010008000217000021000104000092000000000000000000000000000000000000000000000000000000000000000000          BALLOTS CAST - TOTAL                                    BALLOTS CAST - TOTAL                  9 - Lamb County Ag Center                              00 
00050010009000119000005000027000087000000000000000000000000000000000000000000000000000000000000000000          BALLOTS CAST - TOTAL                                    BALLOTS CAST - TOTAL                  10 - Amherst Community Center                          00 
00050010010000242000004000035000203000000000000000000000000000000000000000000000000000000000000000000          BALLOTS CAST - TOTAL                                    BALLOTS CAST - TOTAL                  11 - Sudan Community Center                            00 
00050010011000062000001000012000049000000000000000000000000000000000000000000000000000000000000000000          BALLOTS CAST - TOTAL                                    BALLOTS CAST - TOTAL                  12 - Springlake First Baptist                          00 
00060010001000000000000000000000000000000000000000000000000000000000000000000000000000000000000000000NON       BALLOTS CAST - NONPARTISAN                              BALLOTS CAST - NONPARTISAN            1 - Olton Community Center                             00 
00060010002000000000000000000000000000000000000000000000000000000000000000000000000000000000000000000NON       BALLOTS CAST - NONPARTISAN                              BALLOTS CAST - NONPARTISAN            2 - Lamb County Ag Center                              00 
00060010003000000000000000000000000000000000000000000000000000000000000000000000000000000000000000000NON       BALLOTS CAST - NONPARTISAN                              BALLOTS CAST - NONPARTISAN            3 - Earth Community Center                             00 
00060010004000000000000000000000000000000000000000000000000000000000000000000000000000000000000000000NON       BALLOTS CAST - NONPARTISAN                              BALLOTS CAST - NONPARTISAN            4 - Sudan Community Center                             00 
00060010005000000000000000000000000000000000000000000000000000000000000000000000000000000000000000000NON       BALLOTS CAST - NONPARTISAN                              BALLOTS CAST - NONPARTISAN            5 - Olton Community Center                             00 
00060010006000000000000000000000000000000000000000000000000000000000000000000000000000000000000000000NON       BALLOTS CAST - NONPARTISAN                              BALLOTS CAST - NONPARTISAN            6 - Lamb County Ag Center                              00 
00060010007000000000000000000000000000000000000000000000000000000000000000000000000000000000000000000NON       BALLOTS CAST - NONPARTISAN                              BALLOTS CAST - NONPARTISAN            7 & 8 - Lamb County Ag Center                          00 
00060010008000000000000000000000000000000000000000000000000000000000000000000000000000000000000000000NON       BALLOTS CAST - NONPARTISAN                              BALLOTS CAST - NONPARTISAN            9 - Lamb County Ag Center                              00 
00060010009000000000000000000000000000000000000000000000000000000000000000000000000000000000000000000NON       BALLOTS CAST - NONPARTISAN                              BALLOTS CAST - NONPARTISAN            10 - Amherst Community Center                          00 
00060010010000000000000000000000000000000000000000000000000000000000000000000000000000000000000000000NON       BALLOTS CAST - NONPARTISAN                              BALLOTS CAST - NONPARTISAN            11 - Sudan Community Center                            00 
00060010011000000000000000000000000000000000000000000000000000000000000000000000000000000000000000000NON       BALLOTS CAST - NONPARTISAN                              BALLOTS CAST - NONPARTISAN            12 - Springlake First Baptist                          00 
00070010001000252000009000026000217000000000000000000000000000000000000000000000000000000000000000000REP       BALLOTS CAST - Republican Party                         BALLOTS CAST - Republican Party       1 - Olton Community Center                             00 
00070010002000063000006000028000029000000000000000000000000000000000000000000000000000000000000000000REP       BALLOTS CAST - Republican Party                         BALLOTS CAST - Republican Party       2 - Lamb County Ag Center                              00 
00070010003000157000005000023000129000000000000000000000000000000000000000000000000000000000000000000REP       BALLOTS CAST - Republican Party                         BALLOTS CAST - Republican Party       3 - Earth Community Center                             00 
00070010004000008000000000005000003000000000000000000000000000000000000000000000000000000000000000000REP       BALLOTS CAST - Republican Party                         BALLOTS CAST - Republican Party       4 - Sudan Community Center                             00 
00070010005000094000001000013000080000000000000000000000000000000000000000000000000000000000000000000REP       BALLOTS CAST - Republican Party                         BALLOTS CAST - Republican Party       5 - Olton Community Center                             00 
00070010006000058000006000032000020000000000000000000000000000000000000000000000000000000000000000000REP       BALLOTS CAST - Republican Party                         BALLOTS CAST - Republican Party       6 - Lamb County Ag Center                              00 
00070010007000530000021000268000241000000000000000000000000000000000000000000000000000000000000000000REP       BALLOTS CAST - Republican Party                         BALLOTS CAST - Republican Party       7 & 8 - Lamb County Ag Center                          00 
00070010008000183000018000086000079000000000000000000000000000000000000000000000000000000000000000000REP       BALLOTS CAST - Republican Party                         BALLOTS CAST - Republican Party       9 - Lamb County Ag Center                              00 
00070010009000097000004000026000067000000000000000000000000000000000000000000000000000000000000000000REP       BALLOTS CAST - Republican Party                         BALLOTS CAST - Republican Party       10 - Amherst Community Center                          00 
00070010010000223000003000031000189000000000000000000000000000000000000000000000000000000000000000000REP       BALLOTS CAST - Republican Party                         BALLOTS CAST - Republican Party       11 - Sudan Community Center                            00 
00070010011000059000000000010000049000000000000000000000000000000000000000000000000000000000000000000REP       BALLOTS CAST - Republican Party                         BALLOTS CAST - Republican Party       12 - Springlake First Baptist                          00 
00080010001000035000001000009000025000000000000000000000000000000000000000000000000000000000000000000DEM       BALLOTS CAST - Democratic Party                         BALLOTS CAST - Democratic Party       1 - Olton Community Center                             00 
00080010002000050000005000015000030000000000000000000000000000000000000000000000000000000000000000000DEM       BALLOTS CAST - Democratic Party                         BALLOTS CAST - Democratic Party       2 - Lamb County Ag Center                              00 
00080010003000018000000000004000014000000000000000000000000000000000000000000000000000000000000000000DEM       BALLOTS CAST - Democratic Party                         BALLOTS CAST - Democratic Party       3 - Earth Community Center                             00 
00080010004000001000000000001000000000000000000000000000000000000000000000000000000000000000000000000DEM       BALLOTS CAST - Democratic Party                         BALLOTS CAST - Democratic Party       4 - Sudan Community Center                             00 
00080010005000009000002000000000007000000000000000000000000000000000000000000000000000000000000000000DEM       BALLOTS CAST - Democratic Party                         BALLOTS CAST - Democratic Party       5 - Olton Community Center                             00 
00080010006000017000003000001000013000000000000000000000000000000000000000000000000000000000000000000DEM       BALLOTS CAST - Democratic Party                         BALLOTS CAST - Democratic Party       6 - Lamb County Ag Center                              00 
00080010007000094000011000028000055000000000000000000000000000000000000000000000000000000000000000000DEM       BALLOTS CAST - Democratic Party                         BALLOTS CAST - Democratic Party       7 & 8 - Lamb County Ag Center                          00 
00080010008000034000003000018000013000000000000000000000000000000000000000000000000000000000000000000DEM       BALLOTS CAST - Democratic Party                         BALLOTS CAST - Democratic Party       9 - Lamb County Ag Center                              00 
00080010009000022000001000001000020000000000000000000000000000000000000000000000000000000000000000000DEM       BALLOTS CAST - Democratic Party                         BALLOTS CAST - Democratic Party       10 - Amherst Community Center                          00 
00080010010000019000001000004000014000000000000000000000000000000000000000000000000000000000000000000DEM       BALLOTS CAST - Democratic Party                         BALLOTS CAST - Democratic Party       11 - Sudan Community Center                            00 
00080010011000003000001000002000000000000000000000000000000000000000000000000000000000000000000000000DEM       BALLOTS CAST - Democratic Party                         BALLOTS CAST - Democratic Party       12 - Springlake First Baptist                          00 
00090010001000000000000000000000000000000000000000000000000000000000000000000000000000000000000000000          BALLOTS CAST - BLANK                                    BALLOTS CAST - BLANK                  1 - Olton Community Center                             00 
00090010002000001000000000001000000000000000000000000000000000000000000000000000000000000000000000000          BALLOTS CAST - BLANK                                    BALLOTS CAST - BLANK                  2 - Lamb County Ag Center                              00 
00090010003000000000000000000000000000000000000000000000000000000000000000000000000000000000000000000          BALLOTS CAST - BLANK                                    BALLOTS CAST - BLANK                  3 - Earth Community Center                             00 
00090010004000000000000000000000000000000000000000000000000000000000000000000000000000000000000000000          BALLOTS CAST - BLANK                                    BALLOTS CAST - BLANK                  4 - Sudan Community Center                             00 
00090010005000000000000000000000000000000000000000000000000000000000000000000000000000000000000000000          BALLOTS CAST - BLANK                                    BALLOTS CAST - BLANK                  5 - Olton Community Center                             00 
00090010006000000000000000000000000000000000000000000000000000000000000000000000000000000000000000000          BALLOTS CAST - BLANK                                    BALLOTS CAST - BLANK                  6 - Lamb County Ag Center                              00 
00090010007000000000000000000000000000000000000000000000000000000000000000000000000000000000000000000          BALLOTS CAST - BLANK                                    BALLOTS CAST - BLANK                  7 & 8 - Lamb County Ag Center                          00 
00090010008000000000000000000000000000000000000000000000000000000000000000000000000000000000000000000          BALLOTS CAST - BLANK                                    BALLOTS CAST - BLANK                  9 - Lamb County Ag Center                              00 
00090010009000000000000000000000000000000000000000000000000000000000000000000000000000000000000000000          BALLOTS CAST - BLANK                                    BALLOTS CAST - BLANK                  10 - Amherst Community Center                          00 
00090010010000000000000000000000000000000000000000000000000000000000000000000000000000000000000000000          BALLOTS CAST - BLANK                                    BALLOTS CAST - BLANK                  11 - Sudan Community Center                            00 
00090010011000000000000000000000000000000000000000000000000000000000000000000000000000000000000000000          BALLOTS CAST - BLANK                                    BALLOTS CAST - BLANK                  12 - Springlake First Baptist                          00 
00100010001000203000009000023000171000000000000000000000000000000000000000000000000000000000000000000REP       REP President                                           Donald J. Trump                       1 - Olton Community Center                             01 
00100010002000059000006000026000027000000000000000000000000000000000000000000000000000000000000000000REP       REP President                                           Donald J. Trump                       2 - Lamb County Ag Center                              01 
00100010003000149000005000021000123000000000000000000000000000000000000000000000000000000000000000000REP       REP President                                           Donald J. Trump                       3 - Earth Community Center                             01 
00100010004000008000000000005000003000000000000000000000000000000000000000000000000000000000000000000REP       REP President                                           Donald J. Trump                       4 - Sudan Community Center                             01 
00100010005000090000001000013000076000000000000000000000000000000000000000000000000000000000000000000REP       REP President                                           Donald J. Trump                       5 - Olton Community Center                             01 
00100010006000053000004000030000019000000000000000000000000000000000000000000000000000000000000000000REP       REP President                                           Donald J. Trump                       6 - Lamb County Ag Center                              01 
00100010007000499000020000254000225000000000000000000000000000000000000000000000000000000000000000000REP       REP President                                           Donald J. Trump                       7 & 8 - Lamb County Ag Center                          01 
00100010008000182000018000086000078000000000000000000000000000000000000000000000000000000000000000000REP       REP President                                           Donald J. Trump                       9 - Lamb County Ag Center                              01 
00100010009000095000004000025000066000000000000000000000000000000000000000000000000000000000000000000REP       REP President                                           Donald J. Trump                       10 - Amherst Community Center                          01 
00100010010000214000003000030000181000000000000000000000000000000000000000000000000000000000000000000REP       REP President                                           Donald J. Trump                       11 - Sudan Community Center                            01 
00100010011000058000000000010000048000000000000000000000000000000000000000000000000000000000000000000REP       REP President                                           Donald J. Trump                       12 - Springlake First Baptist                          01 
00100020001000004000000000000000004000000000000000000000000000000000000000000000000000000000000000000REP       REP President                                           Bill Weld                             1 - Olton Community Center                             01 
00100020002000000000000000000000000000000000000000000000000000000000000000000000000000000000000000000REP       REP President                                           Bill Weld                             2 - Lamb County Ag Center                              01 
00100020003000000000000000000000000000000000000000000000000000000000000000000000000000000000000000000REP       REP President                                           Bill Weld                             3 - Earth Community Center                             01 
00100020004000000000000000000000000000000000000000000000000000000000000000000000000000000000000000000REP       REP President                                           Bill Weld                             4 - Sudan Community Center                             01 
00100020005000001000000000000000001000000000000000000000000000000000000000000000000000000000000000000REP       REP President                                           Bill Weld                             5 - Olton Community Center                             01 
00100020006000000000000000000000000000000000000000000000000000000000000000000000000000000000000000000REP       REP President                                           Bill Weld                             6 - Lamb County Ag Center                              01 
00100020007000003000000000001000002000000000000000000000000000000000000000000000000000000000000000000REP       REP President                                           Bill Weld                             7 & 8 - Lamb County Ag Center                          01 
00100020008000000000000000000000000000000000000000000000000000000000000000000000000000000000000000000REP       REP President                                           Bill Weld                             9 - Lamb County Ag Center                              01 
00100020009000000000000000000000000000000000000000000000000000000000000000000000000000000000000000000REP       REP President                                           Bill Weld                             10 - Amherst Community Center                          01 
00100020010000003000000000000000003000000000000000000000000000000000000000000000000000000000000000000REP       REP President                                           Bill Weld                             11 - Sudan Community Center                            01 
00100020011000000000000000000000000000000000000000000000000000000000000000000000000000000000000000000REP       REP President                                           Bill Weld                             12 - Springlake First Baptist                          01 
00100030001000004000000000000000004000000000000000000000000000000000000000000000000000000000000000000REP       REP President                                           Joe Walsh                             1 - Olton Community Center                             01 
00100030002000001000000000001000000000000000000000000000000000000000000000000000000000000000000000000REP       REP President                                           Joe Walsh                             2 - Lamb County Ag Center                              01 
00100030003000000000000000000000000000000000000000000000000000000000000000000000000000000000000000000REP       REP President                                           Joe Walsh                             3 - Earth Community Center                             01 
00100030004000000000000000000000000000000000000000000000000000000000000000000000000000000000000000000REP       REP President                                           Joe Walsh                             4 - Sudan Community Center                             01 
00100030005000000000000000000000000000000000000000000000000000000000000000000000000000000000000000000REP       REP President                                           Joe Walsh                             5 - Olton Community Center                             01 
00100030006000001000001000000000000000000000000000000000000000000000000000000000000000000000000000000REP       REP President                                           Joe Walsh                             6 - Lamb County Ag Center                              01 
00100030007000006000000000003000003000000000000000000000000000000000000000000000000000000000000000000REP       REP President                                           Joe Walsh                             7 & 8 - Lamb County Ag Center                          01 
00100030008000001000000000000000001000000000000000000000000000000000000000000000000000000000000000000REP       REP President                                           Joe Walsh                             9 - Lamb County Ag Center                              01 
00100030009000000000000000000000000000000000000000000000000000000000000000000000000000000000000000000REP       REP President                                           Joe Walsh                             10 - Amherst Community Center                          01 
00100030010000000000000000000000000000000000000000000000000000000000000000000000000000000000000000000REP       REP President                                           Joe Walsh                             11 - Sudan Community Center                            01 
00100030011000000000000000000000000000000000000000000000000000000000000000000000000000000000000000000REP       REP President                                           Joe Walsh                             12 - Springlake First Baptist                          01 
00100040001000000000000000000000000000000000000000000000000000000000000000000000000000000000000000000REP       REP President                                           Zoltan G. Istvan                      1 - Olton Community Center                             01 
00100040002000000000000000000000000000000000000000000000000000000000000000000000000000000000000000000REP       REP President                                           Zoltan G. Istvan                      2 - Lamb County Ag Center                              01 
00100040003000000000000000000000000000000000000000000000000000000000000000000000000000000000000000000REP       REP President                                           Zoltan G. Istvan                      3 - Earth Community Center                             01 
00100040004000000000000000000000000000000000000000000000000000000000000000000000000000000000000000000REP       REP President                                           Zoltan G. Istvan                      4 - Sudan Community Center                             01 
00100040005000000000000000000000000000000000000000000000000000000000000000000000000000000000000000000REP       REP President                                           Zoltan G. Istvan                      5 - Olton Community Center                             01 
00100040006000000000000000000000000000000000000000000000000000000000000000000000000000000000000000000REP       REP President                                           Zoltan G. Istvan                      6 - Lamb County Ag Center                              01 
00100040007000000000000000000000000000000000000000000000000000000000000000000000000000000000000000000REP       REP President                                           Zoltan G. Istvan                      7 & 8 - Lamb County Ag Center                          01 
00100040008000000000000000000000000000000000000000000000000000000000000000000000000000000000000000000REP       REP President                                           Zoltan G. Istvan                      9 - Lamb County Ag Center                              01 
00100040009000000000000000000000000000000000000000000000000000000000000000000000000000000000000000000REP       REP President                                           Zoltan G. Istvan                      10 - Amherst Community Center                          01 
00100040010000000000000000000000000000000000000000000000000000000000000000000000000000000000000000000REP       REP President                                           Zoltan G. Istvan                      11 - Sudan Community Center                            01 
00100040011000000000000000000000000000000000000000000000000000000000000000000000000000000000000000000REP       REP President                                           Zoltan G. Istvan                      12 - Springlake First Baptist                          01 
00100050001000006000000000001000005000000000000000000000000000000000000000000000000000000000000000000REP       REP President                                           Roque Rocky DeLa Fuente Guerra        1 - Olton Community Center                             01 
00100050002000001000000000000000001000000000000000000000000000000000000000000000000000000000000000000REP       REP President                                           Roque Rocky DeLa Fuente Guerra        2 - Lamb County Ag Center                              01 
00100050003000000000000000000000000000000000000000000000000000000000000000000000000000000000000000000REP       REP President                                           Roque Rocky DeLa Fuente Guerra        3 - Earth Community Center                             01 
00100050004000000000000000000000000000000000000000000000000000000000000000000000000000000000000000000REP       REP President                                           Roque Rocky DeLa Fuente Guerra        4 - Sudan Community Center                             01 
00100050005000001000000000000000001000000000000000000000000000000000000000000000000000000000000000000REP       REP President                                           Roque Rocky DeLa Fuente Guerra        5 - Olton Community Center                             01 
00100050006000000000000000000000000000000000000000000000000000000000000000000000000000000000000000000REP       REP President                                           Roque Rocky DeLa Fuente Guerra        6 - Lamb County Ag Center                              01 
00100050007000002000000000002000000000000000000000000000000000000000000000000000000000000000000000000REP       REP President                                           Roque Rocky DeLa Fuente Guerra        7 & 8 - Lamb County Ag Center                          01 
00100050008000000000000000000000000000000000000000000000000000000000000000000000000000000000000000000REP       REP President                                           Roque Rocky DeLa Fuente Guerra        9 - Lamb County Ag Center                              01 
00100050009000000000000000000000000000000000000000000000000000000000000000000000000000000000000000000REP       REP President                                           Roque Rocky DeLa Fuente Guerra        10 - Amherst Community Center                          01 
00100050010000001000000000000000001000000000000000000000000000000000000000000000000000000000000000000REP       REP President                                           Roque Rocky DeLa Fuente Guerra        11 - Sudan Community Center                            01 
00100050011000000000000000000000000000000000000000000000000000000000000000000000000000000000000000000REP       REP President                                           Roque Rocky DeLa Fuente Guerra        12 - Springlake First Baptist                          01 
00100060001000002000000000000000002000000000000000000000000000000000000000000000000000000000000000000REP       REP President                                           Bob Ely                               1 - Olton Community Center                             01 
00100060002000000000000000000000000000000000000000000000000000000000000000000000000000000000000000000REP       REP President                                           Bob Ely                               2 - Lamb County Ag Center                              01 
00100060003000000000000000000000000000000000000000000000000000000000000000000000000000000000000000000REP       REP President                                           Bob Ely                               3 - Earth Community Center                             01 
00100060004000000000000000000000000000000000000000000000000000000000000000000000000000000000000000000REP       REP President                                           Bob Ely                               4 - Sudan Community Center                             01 
00100060005000000000000000000000000000000000000000000000000000000000000000000000000000000000000000000REP       REP President                                           Bob Ely                               5 - Olton Community Center                             01 
00100060006000000000000000000000000000000000000000000000000000000000000000000000000000000000000000000REP       REP President                                           Bob Ely                               6 - Lamb County Ag Center                              01 
00100060007000000000000000000000000000000000000000000000000000000000000000000000000000000000000000000REP       REP President                                           Bob Ely                               7 & 8 - Lamb County Ag Center                          01 
00100060008000000000000000000000000000000000000000000000000000000000000000000000000000000000000000000REP       REP President                                           Bob Ely                               9 - Lamb County Ag Center                              01 
00100060009000000000000000000000000000000000000000000000000000000000000000000000000000000000000000000REP       REP President                                           Bob Ely                               10 - Amherst Community Center                          01 
00100060010000000000000000000000000000000000000000000000000000000000000000000000000000000000000000000REP       REP President                                           Bob Ely                               11 - Sudan Community Center                            01 
00100060011000000000000000000000000000000000000000000000000000000000000000000000000000000000000000000REP       REP President                                           Bob Ely                               12 - Springlake First Baptist                          01 
00100070001000000000000000000000000000000000000000000000000000000000000000000000000000000000000000000REP       REP President                                           Matthew John Matern                   1 - Olton Community Center                             01 
00100070002000001000000000001000000000000000000000000000000000000000000000000000000000000000000000000REP       REP President                                           Matthew John Matern                   2 - Lamb County Ag Center                              01 
00100070003000001000000000000000001000000000000000000000000000000000000000000000000000000000000000000REP       REP President                                           Matthew John Matern                   3 - Earth Community Center                             01 
00100070004000000000000000000000000000000000000000000000000000000000000000000000000000000000000000000REP       REP President                                           Matthew John Matern                   4 - Sudan Community Center                             01 
00100070005000000000000000000000000000000000000000000000000000000000000000000000000000000000000000000REP       REP President                                           Matthew John Matern                   5 - Olton Community Center                             01 
00100070006000000000000000000000000000000000000000000000000000000000000000000000000000000000000000000REP       REP President                                           Matthew John Matern                   6 - Lamb County Ag Center                              01 
00100070007000000000000000000000000000000000000000000000000000000000000000000000000000000000000000000REP       REP President                                           Matthew John Matern                   7 & 8 - Lamb County Ag Center                          01 
00100070008000000000000000000000000000000000000000000000000000000000000000000000000000000000000000000REP       REP President                                           Matthew John Matern                   9 - Lamb County Ag Center                              01 
00100070009000001000000000000000001000000000000000000000000000000000000000000000000000000000000000000REP       REP President                                           Matthew John Matern                   10 - Amherst Community Center                          01 
00100070010000000000000000000000000000000000000000000000000000000000000000000000000000000000000000000REP       REP President                                           Matthew John Matern                   11 - Sudan Community Center                            01 
00100070011000000000000000000000000000000000000000000000000000000000000000000000000000000000000000000REP       REP President                                           Matthew John Matern                   12 - Springlake First Baptist                          01 
00100080001000018000000000001000017000000000000000000000000000000000000000000000000000000000000000000REP       REP President                                           Uncommitted                           1 - Olton Community Center                             01 
00100080002000001000000000000000001000000000000000000000000000000000000000000000000000000000000000000REP       REP President                                           Uncommitted                           2 - Lamb County Ag Center                              01 
00100080003000004000000000001000003000000000000000000000000000000000000000000000000000000000000000000REP       REP President                                           Uncommitted                           3 - Earth Community Center                             01 
00100080004000000000000000000000000000000000000000000000000000000000000000000000000000000000000000000REP       REP President                                           Uncommitted                           4 - Sudan Community Center                             01 
00100080005000001000000000000000001000000000000000000000000000000000000000000000000000000000000000000REP       REP President                                           Uncommitted                           5 - Olton Community Center                             01 
00100080006000003000001000001000001000000000000000000000000000000000000000000000000000000000000000000REP       REP President                                           Uncommitted                           6 - Lamb County Ag Center                              01 
00100080007000014000000000005000009000000000000000000000000000000000000000000000000000000000000000000REP       REP President                                           Uncommitted                           7 & 8 - Lamb County Ag Center                          01 
00100080008000000000000000000000000000000000000000000000000000000000000000000000000000000000000000000REP       REP President                                           Uncommitted                           9 - Lamb County Ag Center                              01 
00100080009000001000000000001000000000000000000000000000000000000000000000000000000000000000000000000REP       REP President                                           Uncommitted                           10 - Amherst Community Center                          01 
00100080010000003000000000001000002000000000000000000000000000000000000000000000000000000000000000000REP       REP President                                           Uncommitted                           11 - Sudan Community Center                            01 
00100080011000001000000000000000001000000000000000000000000000000000000000000000000000000000000000000REP       REP President                                           Uncommitted                           12 - Springlake First Baptist                          01 
00100090001000001000000000000000001000000000000000000000000000000000000000000000000000000000000000000          REP President                                           OVER VOTES                            1 - Olton Community Center                             01 
00100090002000000000000000000000000000000000000000000000000000000000000000000000000000000000000000000          REP President                                           OVER VOTES                            2 - Lamb County Ag Center                              01 
00100090003000000000000000000000000000000000000000000000000000000000000000000000000000000000000000000          REP President                                           OVER VOTES                            3 - Earth Community Center                             01 
00100090004000000000000000000000000000000000000000000000000000000000000000000000000000000000000000000          REP President                                           OVER VOTES                            4 - Sudan Community Center                             01 
00100090005000000000000000000000000000000000000000000000000000000000000000000000000000000000000000000          REP President                                           OVER VOTES                            5 - Olton Community Center                             01 
00100090006000000000000000000000000000000000000000000000000000000000000000000000000000000000000000000          REP President                                           OVER VOTES                            6 - Lamb County Ag Center                              01 
00100090007000000000000000000000000000000000000000000000000000000000000000000000000000000000000000000          REP President                                           OVER VOTES                            7 & 8 - Lamb County Ag Center                          01 
00100090008000000000000000000000000000000000000000000000000000000000000000000000000000000000000000000          REP President                                           OVER VOTES                            9 - Lamb County Ag Center                              01 
00100090009000000000000000000000000000000000000000000000000000000000000000000000000000000000000000000          REP President                                           OVER VOTES                            10 - Amherst Community Center                          01 
00100090010000001000000000000000001000000000000000000000000000000000000000000000000000000000000000000          REP President                                           OVER VOTES                            11 - Sudan Community Center                            01 
00100090011000000000000000000000000000000000000000000000000000000000000000000000000000000000000000000          REP President                                           OVER VOTES                            12 - Springlake First Baptist                          01 
00100100001000014000000000001000013000000000000000000000000000000000000000000000000000000000000000000          REP President                                           UNDER VOTES                           1 - Olton Community Center                             01 
00100100002000000000000000000000000000000000000000000000000000000000000000000000000000000000000000000          REP President                                           UNDER VOTES                           2 - Lamb County Ag Center                              01 
00100100003000003000000000001000002000000000000000000000000000000000000000000000000000000000000000000          REP President                                           UNDER VOTES                           3 - Earth Community Center                             01 
00100100004000000000000000000000000000000000000000000000000000000000000000000000000000000000000000000          REP President                                           UNDER VOTES                           4 - Sudan Community Center                             01 
00100100005000001000000000000000001000000000000000000000000000000000000000000000000000000000000000000          REP President                                           UNDER VOTES                           5 - Olton Community Center                             01 
00100100006000001000000000001000000000000000000000000000000000000000000000000000000000000000000000000          REP President                                           UNDER VOTES                           6 - Lamb County Ag Center                              01 
00100100007000006000001000003000002000000000000000000000000000000000000000000000000000000000000000000          REP President                                           UNDER VOTES                           7 & 8 - Lamb County Ag Center                          01 
00100100008000000000000000000000000000000000000000000000000000000000000000000000000000000000000000000          REP President                                           UNDER VOTES                           9 - Lamb County Ag Center                              01 
00100100009000000000000000000000000000000000000000000000000000000000000000000000000000000000000000000          REP President                                           UNDER VOTES                           10 - Amherst Community Center                          01 
00100100010000001000000000000000001000000000000000000000000000000000000000000000000000000000000000000          REP President                                           UNDER VOTES                           11 - Sudan Community Center                            01 
00100100011000000000000000000000000000000000000000000000000000000000000000000000000000000000000000000          REP President                                           UNDER VOTES                           12 - Springlake First Baptist                          01 
00110010001000167000007000017000143000000000000000000000000000000000000000000000000000000000000000000REP       REP US Senator                                          John Cornyn                           1 - Olton Community Center                             01 
00110010002000044000003000019000022000000000000000000000000000000000000000000000000000000000000000000REP       REP US Senator                                          John Cornyn                           2 - Lamb County Ag Center                              01 
00110010003000131000005000018000108000000000000000000000000000000000000000000000000000000000000000000REP       REP US Senator                                          John Cornyn                           3 - Earth Community Center                             01 
00110010004000004000000000004000000000000000000000000000000000000000000000000000000000000000000000000REP       REP US Senator                                          John Cornyn                           4 - Sudan Community Center                             01 
00110010005000074000001000012000061000000000000000000000000000000000000000000000000000000000000000000REP       REP US Senator                                          John Cornyn                           5 - Olton Community Center                             01 
00110010006000043000006000024000013000000000000000000000000000000000000000000000000000000000000000000REP       REP US Senator                                          John Cornyn                           6 - Lamb County Ag Center                              01 
00110010007000419000018000233000168000000000000000000000000000000000000000000000000000000000000000000REP       REP US Senator                                          John Cornyn                           7 & 8 - Lamb County Ag Center                          01 
00110010008000147000016000072000059000000000000000000000000000000000000000000000000000000000000000000REP       REP US Senator                                          John Cornyn                           9 - Lamb County Ag Center                              01 
00110010009000075000004000018000053000000000000000000000000000000000000000000000000000000000000000000REP       REP US Senator                                          John Cornyn                           10 - Amherst Community Center                          01 
00110010010000178000002000024000152000000000000000000000000000000000000000000000000000000000000000000REP       REP US Senator                                          John Cornyn                           11 - Sudan Community Center                            01 
00110010011000050000000000006000044000000000000000000000000000000000000000000000000000000000000000000REP       REP US Senator                                          John Cornyn                           12 - Springlake First Baptist                          01 
00110020001000013000000000002000011000000000000000000000000000000000000000000000000000000000000000000REP       REP US Senator                                          Dwayne Stovall                        1 - Olton Community Center                             01 
00110020002000008000001000005000002000000000000000000000000000000000000000000000000000000000000000000REP       REP US Senator                                          Dwayne Stovall                        2 - Lamb County Ag Center                              01 
00110020003000011000000000003000008000000000000000000000000000000000000000000000000000000000000000000REP       REP US Senator                                          Dwayne Stovall                        3 - Earth Community Center                             01 
00110020004000002000000000000000002000000000000000000000000000000000000000000000000000000000000000000REP       REP US Senator                                          Dwayne Stovall                        4 - Sudan Community Center                             01 
00110020005000007000000000000000007000000000000000000000000000000000000000000000000000000000000000000REP       REP US Senator                                          Dwayne Stovall                        5 - Olton Community Center                             01 
00110020006000005000000000002000003000000000000000000000000000000000000000000000000000000000000000000REP       REP US Senator                                          Dwayne Stovall                        6 - Lamb County Ag Center                              01 
00110020007000061000000000014000047000000000000000000000000000000000000000000000000000000000000000000REP       REP US Senator                                          Dwayne Stovall                        7 & 8 - Lamb County Ag Center                          01 
00110020008000022000000000007000015000000000000000000000000000000000000000000000000000000000000000000REP       REP US Senator                                          Dwayne Stovall                        9 - Lamb County Ag Center                              01 
00110020009000010000000000004000006000000000000000000000000000000000000000000000000000000000000000000REP       REP US Senator                                          Dwayne Stovall                        10 - Amherst Community Center                          01 
00110020010000024000000000005000019000000000000000000000000000000000000000000000000000000000000000000REP       REP US Senator                                          Dwayne Stovall                        11 - Sudan Community Center                            01 
00110020011000005000000000002000003000000000000000000000000000000000000000000000000000000000000000000REP       REP US Senator                                          Dwayne Stovall                        12 - Springlake First Baptist                          01 
00110030001000020000002000002000016000000000000000000000000000000000000000000000000000000000000000000REP       REP US Senator                                          Mark Yancey                           1 - Olton Community Center                             01 
00110030002000001000000000001000000000000000000000000000000000000000000000000000000000000000000000000REP       REP US Senator                                          Mark Yancey                           2 - Lamb County Ag Center                              01 
00110030003000009000000000001000008000000000000000000000000000000000000000000000000000000000000000000REP       REP US Senator                                          Mark Yancey                           3 - Earth Community Center                             01 
00110030004000000000000000000000000000000000000000000000000000000000000000000000000000000000000000000REP       REP US Senator                                          Mark Yancey                           4 - Sudan Community Center                             01 
00110030005000004000000000001000003000000000000000000000000000000000000000000000000000000000000000000REP       REP US Senator                                          Mark Yancey                           5 - Olton Community Center                             01 
00110030006000001000000000000000001000000000000000000000000000000000000000000000000000000000000000000REP       REP US Senator                                          Mark Yancey                           6 - Lamb County Ag Center                              01 
00110030007000016000000000006000010000000000000000000000000000000000000000000000000000000000000000000REP       REP US Senator                                          Mark Yancey                           7 & 8 - Lamb County Ag Center                          01 
00110030008000004000001000002000001000000000000000000000000000000000000000000000000000000000000000000REP       REP US Senator                                          Mark Yancey                           9 - Lamb County Ag Center                              01 
00110030009000003000000000001000002000000000000000000000000000000000000000000000000000000000000000000REP       REP US Senator                                          Mark Yancey                           10 - Amherst Community Center                          01 
00110030010000007000000000002000005000000000000000000000000000000000000000000000000000000000000000000REP       REP US Senator                                          Mark Yancey                           11 - Sudan Community Center                            01 
00110030011000002000000000002000000000000000000000000000000000000000000000000000000000000000000000000REP       REP US Senator                                          Mark Yancey                           12 - Springlake First Baptist                          01 
00110040001000026000000000002000024000000000000000000000000000000000000000000000000000000000000000000REP       REP US Senator                                          John Anthony Castro                   1 - Olton Community Center                             01 
00110040002000006000000000002000004000000000000000000000000000000000000000000000000000000000000000000REP       REP US Senator                                          John Anthony Castro                   2 - Lamb County Ag Center                              01 
00110040003000003000000000001000002000000000000000000000000000000000000000000000000000000000000000000REP       REP US Senator                                          John Anthony Castro                   3 - Earth Community Center                             01 
00110040004000000000000000000000000000000000000000000000000000000000000000000000000000000000000000000REP       REP US Senator                                          John Anthony Castro                   4 - Sudan Community Center                             01 
00110040005000007000000000000000007000000000000000000000000000000000000000000000000000000000000000000REP       REP US Senator                                          John Anthony Castro                   5 - Olton Community Center                             01 
00110040006000004000000000003000001000000000000000000000000000000000000000000000000000000000000000000REP       REP US Senator                                          John Anthony Castro                   6 - Lamb County Ag Center                              01 
00110040007000008000001000004000003000000000000000000000000000000000000000000000000000000000000000000REP       REP US Senator                                          John Anthony Castro                   7 & 8 - Lamb County Ag Center                          01 
00110040008000001000000000000000001000000000000000000000000000000000000000000000000000000000000000000REP       REP US Senator                                          John Anthony Castro                   9 - Lamb County Ag Center                              01 
00110040009000002000000000000000002000000000000000000000000000000000000000000000000000000000000000000REP       REP US Senator                                          John Anthony Castro                   10 - Amherst Community Center                          01 
00110040010000005000000000000000005000000000000000000000000000000000000000000000000000000000000000000REP       REP US Senator                                          John Anthony Castro                   11 - Sudan Community Center                            01 
00110040011000000000000000000000000000000000000000000000000000000000000000000000000000000000000000000REP       REP US Senator                                          John Anthony Castro                   12 - Springlake First Baptist                          01 
00110050001000000000000000000000000000000000000000000000000000000000000000000000000000000000000000000REP       REP US Senator                                          Virgil Bierschwale                    1 - Olton Community Center                             01 
00110050002000000000000000000000000000000000000000000000000000000000000000000000000000000000000000000REP       REP US Senator                                          Virgil Bierschwale                    2 - Lamb County Ag Center                              01 
00110050003000001000000000000000001000000000000000000000000000000000000000000000000000000000000000000REP       REP US Senator                                          Virgil Bierschwale                    3 - Earth Community Center                             01 
00110050004000000000000000000000000000000000000000000000000000000000000000000000000000000000000000000REP       REP US Senator                                          Virgil Bierschwale                    4 - Sudan Community Center                             01 
00110050005000000000000000000000000000000000000000000000000000000000000000000000000000000000000000000REP       REP US Senator                                          Virgil Bierschwale                    5 - Olton Community Center                             01 
00110050006000000000000000000000000000000000000000000000000000000000000000000000000000000000000000000REP       REP US Senator                                          Virgil Bierschwale                    6 - Lamb County Ag Center                              01 
00110050007000003000000000002000001000000000000000000000000000000000000000000000000000000000000000000REP       REP US Senator                                          Virgil Bierschwale                    7 & 8 - Lamb County Ag Center                          01 
00110050008000000000000000000000000000000000000000000000000000000000000000000000000000000000000000000REP       REP US Senator                                          Virgil Bierschwale                    9 - Lamb County Ag Center                              01 
00110050009000002000000000001000001000000000000000000000000000000000000000000000000000000000000000000REP       REP US Senator                                          Virgil Bierschwale                    10 - Amherst Community Center                          01 
00110050010000001000000000000000001000000000000000000000000000000000000000000000000000000000000000000REP       REP US Senator                                          Virgil Bierschwale                    11 - Sudan Community Center                            01 
00110050011000000000000000000000000000000000000000000000000000000000000000000000000000000000000000000REP       REP US Senator                                          Virgil Bierschwale                    12 - Springlake First Baptist                          01 
00110060001000001000000000000000001000000000000000000000000000000000000000000000000000000000000000000          REP US Senator                                          OVER VOTES                            1 - Olton Community Center                             01 
00110060002000001000000000001000000000000000000000000000000000000000000000000000000000000000000000000          REP US Senator                                          OVER VOTES                            2 - Lamb County Ag Center                              01 
00110060003000000000000000000000000000000000000000000000000000000000000000000000000000000000000000000          REP US Senator                                          OVER VOTES                            3 - Earth Community Center                             01 
00110060004000000000000000000000000000000000000000000000000000000000000000000000000000000000000000000          REP US Senator                                          OVER VOTES                            4 - Sudan Community Center                             01 
00110060005000000000000000000000000000000000000000000000000000000000000000000000000000000000000000000          REP US Senator                                          OVER VOTES                            5 - Olton Community Center                             01 
00110060006000000000000000000000000000000000000000000000000000000000000000000000000000000000000000000          REP US Senator                                          OVER VOTES                            6 - Lamb County Ag Center                              01 
00110060007000000000000000000000000000000000000000000000000000000000000000000000000000000000000000000          REP US Senator                                          OVER VOTES                            7 & 8 - Lamb County Ag Center                          01 
00110060008000000000000000000000000000000000000000000000000000000000000000000000000000000000000000000          REP US Senator                                          OVER VOTES                            9 - Lamb County Ag Center                              01 
00110060009000000000000000000000000000000000000000000000000000000000000000000000000000000000000000000          REP US Senator                                          OVER VOTES                            10 - Amherst Community Center                          01 
00110060010000000000000000000000000000000000000000000000000000000000000000000000000000000000000000000          REP US Senator                                          OVER VOTES                            11 - Sudan Community Center                            01 
00110060011000000000000000000000000000000000000000000000000000000000000000000000000000000000000000000          REP US Senator                                          OVER VOTES                            12 - Springlake First Baptist                          01 
00110070001000025000000000003000022000000000000000000000000000000000000000000000000000000000000000000          REP US Senator                                          UNDER VOTES                           1 - Olton Community Center                             01 
00110070002000003000002000000000001000000000000000000000000000000000000000000000000000000000000000000          REP US Senator                                          UNDER VOTES                           2 - Lamb County Ag Center                              01 
00110070003000002000000000000000002000000000000000000000000000000000000000000000000000000000000000000          REP US Senator                                          UNDER VOTES                           3 - Earth Community Center                             01 
00110070004000002000000000001000001000000000000000000000000000000000000000000000000000000000000000000          REP US Senator                                          UNDER VOTES                           4 - Sudan Community Center                             01 
00110070005000002000000000000000002000000000000000000000000000000000000000000000000000000000000000000          REP US Senator                                          UNDER VOTES                           5 - Olton Community Center                             01 
00110070006000005000000000003000002000000000000000000000000000000000000000000000000000000000000000000          REP US Senator                                          UNDER VOTES                           6 - Lamb County Ag Center                              01 
00110070007000023000002000009000012000000000000000000000000000000000000000000000000000000000000000000          REP US Senator                                          UNDER VOTES                           7 & 8 - Lamb County Ag Center                          01 
00110070008000009000001000005000003000000000000000000000000000000000000000000000000000000000000000000          REP US Senator                                          UNDER VOTES                           9 - Lamb County Ag Center                              01 
00110070009000005000000000002000003000000000000000000000000000000000000000000000000000000000000000000          REP US Senator                                          UNDER VOTES                           10 - Amherst Community Center                          01 
00110070010000008000001000000000007000000000000000000000000000000000000000000000000000000000000000000          REP US Senator                                          UNDER VOTES                           11 - Sudan Community Center                            01 
00110070011000002000000000000000002000000000000000000000000000000000000000000000000000000000000000000          REP US Senator                                          UNDER VOTES                           12 - Springlake First Baptist                          01 
00120010001000036000000000002000034000000000000000000000000000000000000000000000000000000000000000000REP       REP US Representative, Dist 19                          Vance W. Boyd                         1 - Olton Community Center                             01 
00120010002000008000000000004000004000000000000000000000000000000000000000000000000000000000000000000REP       REP US Representative, Dist 19                          Vance W. Boyd                         2 - Lamb County Ag Center                              01 
00120010003000009000000000001000008000000000000000000000000000000000000000000000000000000000000000000REP       REP US Representative, Dist 19                          Vance W. Boyd                         3 - Earth Community Center                             01 
00120010004000000000000000000000000000000000000000000000000000000000000000000000000000000000000000000REP       REP US Representative, Dist 19                          Vance W. Boyd                         4 - Sudan Community Center                             01 
00120010005000005000000000000000005000000000000000000000000000000000000000000000000000000000000000000REP       REP US Representative, Dist 19                          Vance W. Boyd                         5 - Olton Community Center                             01 
00120010006000005000000000001000004000000000000000000000000000000000000000000000000000000000000000000REP       REP US Representative, Dist 19                          Vance W. Boyd                         6 - Lamb County Ag Center                              01 
00120010007000045000001000015000029000000000000000000000000000000000000000000000000000000000000000000REP       REP US Representative, Dist 19                          Vance W. Boyd                         7 & 8 - Lamb County Ag Center                          01 
00120010008000009000002000002000005000000000000000000000000000000000000000000000000000000000000000000REP       REP US Representative, Dist 19                          Vance W. Boyd                         9 - Lamb County Ag Center                              01 
00120010009000011000000000004000007000000000000000000000000000000000000000000000000000000000000000000REP       REP US Representative, Dist 19                          Vance W. Boyd                         10 - Amherst Community Center                          01 
00120010010000018000000000001000017000000000000000000000000000000000000000000000000000000000000000000REP       REP US Representative, Dist 19                          Vance W. Boyd                         11 - Sudan Community Center                            01 
00120010011000004000000000002000002000000000000000000000000000000000000000000000000000000000000000000REP       REP US Representative, Dist 19                          Vance W. Boyd                         12 - Springlake First Baptist                          01 
00120020001000196000009000023000164000000000000000000000000000000000000000000000000000000000000000000REP       REP US Representative, Dist 19                          Jodey C. Arrington                    1 - Olton Community Center                             01 
00120020002000052000004000024000024000000000000000000000000000000000000000000000000000000000000000000REP       REP US Representative, Dist 19                          Jodey C. Arrington                    2 - Lamb County Ag Center                              01 
00120020003000143000005000022000116000000000000000000000000000000000000000000000000000000000000000000REP       REP US Representative, Dist 19                          Jodey C. Arrington                    3 - Earth Community Center                             01 
00120020004000008000000000005000003000000000000000000000000000000000000000000000000000000000000000000REP       REP US Representative, Dist 19                          Jodey C. Arrington                    4 - Sudan Community Center                             01 
00120020005000087000001000013000073000000000000000000000000000000000000000000000000000000000000000000REP       REP US Representative, Dist 19                          Jodey C. Arrington                    5 - Olton Community Center                             01 
00120020006000050000006000029000015000000000000000000000000000000000000000000000000000000000000000000REP       REP US Representative, Dist 19                          Jodey C. Arrington                    6 - Lamb County Ag Center                              01 
00120020007000468000018000250000200000000000000000000000000000000000000000000000000000000000000000000REP       REP US Representative, Dist 19                          Jodey C. Arrington                    7 & 8 - Lamb County Ag Center                          01 
00120020008000171000015000083000073000000000000000000000000000000000000000000000000000000000000000000REP       REP US Representative, Dist 19                          Jodey C. Arrington                    9 - Lamb County Ag Center                              01 
00120020009000082000004000021000057000000000000000000000000000000000000000000000000000000000000000000REP       REP US Representative, Dist 19                          Jodey C. Arrington                    10 - Amherst Community Center                          01 
00120020010000200000003000030000167000000000000000000000000000000000000000000000000000000000000000000REP       REP US Representative, Dist 19                          Jodey C. Arrington                    11 - Sudan Community Center                            01 
00120020011000054000000000008000046000000000000000000000000000000000000000000000000000000000000000000REP       REP US Representative, Dist 19                          Jodey C. Arrington                    12 - Springlake First Baptist                          01 
00120030001000000000000000000000000000000000000000000000000000000000000000000000000000000000000000000          REP US Representative, Dist 19                          OVER VOTES                            1 - Olton Community Center                             01 
00120030002000000000000000000000000000000000000000000000000000000000000000000000000000000000000000000          REP US Representative, Dist 19                          OVER VOTES                            2 - Lamb County Ag Center                              01 
00120030003000000000000000000000000000000000000000000000000000000000000000000000000000000000000000000          REP US Representative, Dist 19                          OVER VOTES                            3 - Earth Community Center                             01 
00120030004000000000000000000000000000000000000000000000000000000000000000000000000000000000000000000          REP US Representative, Dist 19                          OVER VOTES                            4 - Sudan Community Center                             01 
00120030005000000000000000000000000000000000000000000000000000000000000000000000000000000000000000000          REP US Representative, Dist 19                          OVER VOTES                            5 - Olton Community Center                             01 
00120030006000000000000000000000000000000000000000000000000000000000000000000000000000000000000000000          REP US Representative, Dist 19                          OVER VOTES                            6 - Lamb County Ag Center                              01 
00120030007000000000000000000000000000000000000000000000000000000000000000000000000000000000000000000          REP US Representative, Dist 19                          OVER VOTES                            7 & 8 - Lamb County Ag Center                          01 
00120030008000000000000000000000000000000000000000000000000000000000000000000000000000000000000000000          REP US Representative, Dist 19                          OVER VOTES                            9 - Lamb County Ag Center                              01 
00120030009000000000000000000000000000000000000000000000000000000000000000000000000000000000000000000          REP US Representative, Dist 19                          OVER VOTES                            10 - Amherst Community Center                          01 
00120030010000000000000000000000000000000000000000000000000000000000000000000000000000000000000000000          REP US Representative, Dist 19                          OVER VOTES                            11 - Sudan Community Center                            01 
00120030011000000000000000000000000000000000000000000000000000000000000000000000000000000000000000000          REP US Representative, Dist 19                          OVER VOTES                            12 - Springlake First Baptist                          01 
00120040001000020000000000001000019000000000000000000000000000000000000000000000000000000000000000000          REP US Representative, Dist 19                          UNDER VOTES                           1 - Olton Community Center                             01 
00120040002000003000002000000000001000000000000000000000000000000000000000000000000000000000000000000          REP US Representative, Dist 19                          UNDER VOTES                           2 - Lamb County Ag Center                              01 
00120040003000005000000000000000005000000000000000000000000000000000000000000000000000000000000000000          REP US Representative, Dist 19                          UNDER VOTES                           3 - Earth Community Center                             01 
00120040004000000000000000000000000000000000000000000000000000000000000000000000000000000000000000000          REP US Representative, Dist 19                          UNDER VOTES                           4 - Sudan Community Center                             01 
00120040005000002000000000000000002000000000000000000000000000000000000000000000000000000000000000000          REP US Representative, Dist 19                          UNDER VOTES                           5 - Olton Community Center                             01 
00120040006000003000000000002000001000000000000000000000000000000000000000000000000000000000000000000          REP US Representative, Dist 19                          UNDER VOTES                           6 - Lamb County Ag Center                              01 
00120040007000017000002000003000012000000000000000000000000000000000000000000000000000000000000000000          REP US Representative, Dist 19                          UNDER VOTES                           7 & 8 - Lamb County Ag Center                          01 
00120040008000003000001000001000001000000000000000000000000000000000000000000000000000000000000000000          REP US Representative, Dist 19                          UNDER VOTES                           9 - Lamb County Ag Center                              01 
00120040009000004000000000001000003000000000000000000000000000000000000000000000000000000000000000000          REP US Representative, Dist 19                          UNDER VOTES                           10 - Amherst Community Center                          01 
00120040010000005000000000000000005000000000000000000000000000000000000000000000000000000000000000000          REP US Representative, Dist 19                          UNDER VOTES                           11 - Sudan Community Center                            01 
00120040011000001000000000000000001000000000000000000000000000000000000000000000000000000000000000000          REP US Representative, Dist 19                          UNDER VOTES                           12 - Springlake First Baptist                          01 
00130010001000146000007000014000125000000000000000000000000000000000000000000000000000000000000000000REP       REP Railroad Commissioner                               James "Jim" Wright                    1 - Olton Community Center                             01 
00130010002000032000003000014000015000000000000000000000000000000000000000000000000000000000000000000REP       REP Railroad Commissioner                               James "Jim" Wright                    2 - Lamb County Ag Center                              01 
00130010003000077000005000010000062000000000000000000000000000000000000000000000000000000000000000000REP       REP Railroad Commissioner                               James "Jim" Wright                    3 - Earth Community Center                             01 
00130010004000003000000000003000000000000000000000000000000000000000000000000000000000000000000000000REP       REP Railroad Commissioner                               James "Jim" Wright                    4 - Sudan Community Center                             01 
00130010005000055000000000006000049000000000000000000000000000000000000000000000000000000000000000000REP       REP Railroad Commissioner                               James "Jim" Wright                    5 - Olton Community Center                             01 
00130010006000029000003000013000013000000000000000000000000000000000000000000000000000000000000000000REP       REP Railroad Commissioner                               James "Jim" Wright                    6 - Lamb County Ag Center                              01 
00130010007000301000009000150000142000000000000000000000000000000000000000000000000000000000000000000REP       REP Railroad Commissioner                               James "Jim" Wright                    7 & 8 - Lamb County Ag Center                          01 
00130010008000120000012000056000052000000000000000000000000000000000000000000000000000000000000000000REP       REP Railroad Commissioner                               James "Jim" Wright                    9 - Lamb County Ag Center                              01 
00130010009000041000001000013000027000000000000000000000000000000000000000000000000000000000000000000REP       REP Railroad Commissioner                               James "Jim" Wright                    10 - Amherst Community Center                          01 
00130010010000126000002000018000106000000000000000000000000000000000000000000000000000000000000000000REP       REP Railroad Commissioner                               James "Jim" Wright                    11 - Sudan Community Center                            01 
00130010011000025000000000005000020000000000000000000000000000000000000000000000000000000000000000000REP       REP Railroad Commissioner                               James "Jim" Wright                    12 - Springlake First Baptist                          01 
00130020001000064000002000004000058000000000000000000000000000000000000000000000000000000000000000000REP       REP Railroad Commissioner                               Ryan Sitton                           1 - Olton Community Center                             01 
00130020002000021000001000008000012000000000000000000000000000000000000000000000000000000000000000000REP       REP Railroad Commissioner                               Ryan Sitton                           2 - Lamb County Ag Center                              01 
00130020003000057000000000009000048000000000000000000000000000000000000000000000000000000000000000000REP       REP Railroad Commissioner                               Ryan Sitton                           3 - Earth Community Center                             01 
00130020004000002000000000000000002000000000000000000000000000000000000000000000000000000000000000000REP       REP Railroad Commissioner                               Ryan Sitton                           4 - Sudan Community Center                             01 
00130020005000033000001000007000025000000000000000000000000000000000000000000000000000000000000000000REP       REP Railroad Commissioner                               Ryan Sitton                           5 - Olton Community Center                             01 
00130020006000024000003000015000006000000000000000000000000000000000000000000000000000000000000000000REP       REP Railroad Commissioner                               Ryan Sitton                           6 - Lamb County Ag Center                              01 
00130020007000177000010000091000076000000000000000000000000000000000000000000000000000000000000000000REP       REP Railroad Commissioner                               Ryan Sitton                           7 & 8 - Lamb County Ag Center                          01 
00130020008000042000005000018000019000000000000000000000000000000000000000000000000000000000000000000REP       REP Railroad Commissioner                               Ryan Sitton                           9 - Lamb County Ag Center                              01 
00130020009000045000003000011000031000000000000000000000000000000000000000000000000000000000000000000REP       REP Railroad Commissioner                               Ryan Sitton                           10 - Amherst Community Center                          01 
00130020010000071000000000010000061000000000000000000000000000000000000000000000000000000000000000000REP       REP Railroad Commissioner                               Ryan Sitton                           11 - Sudan Community Center                            01 
00130020011000029000000000005000024000000000000000000000000000000000000000000000000000000000000000000REP       REP Railroad Commissioner                               Ryan Sitton                           12 - Springlake First Baptist                          01 
00130030001000002000000000000000002000000000000000000000000000000000000000000000000000000000000000000          REP Railroad Commissioner                               OVER VOTES                            1 - Olton Community Center                             01 
00130030002000000000000000000000000000000000000000000000000000000000000000000000000000000000000000000          REP Railroad Commissioner                               OVER VOTES                            2 - Lamb County Ag Center                              01 
00130030003000001000000000001000000000000000000000000000000000000000000000000000000000000000000000000          REP Railroad Commissioner                               OVER VOTES                            3 - Earth Community Center                             01 
00130030004000000000000000000000000000000000000000000000000000000000000000000000000000000000000000000          REP Railroad Commissioner                               OVER VOTES                            4 - Sudan Community Center                             01 
00130030005000000000000000000000000000000000000000000000000000000000000000000000000000000000000000000          REP Railroad Commissioner                               OVER VOTES                            5 - Olton Community Center                             01 
00130030006000000000000000000000000000000000000000000000000000000000000000000000000000000000000000000          REP Railroad Commissioner                               OVER VOTES                            6 - Lamb County Ag Center                              01 
00130030007000000000000000000000000000000000000000000000000000000000000000000000000000000000000000000          REP Railroad Commissioner                               OVER VOTES                            7 & 8 - Lamb County Ag Center                          01 
00130030008000000000000000000000000000000000000000000000000000000000000000000000000000000000000000000          REP Railroad Commissioner                               OVER VOTES                            9 - Lamb County Ag Center                              01 
00130030009000001000000000000000001000000000000000000000000000000000000000000000000000000000000000000          REP Railroad Commissioner                               OVER VOTES                            10 - Amherst Community Center                          01 
00130030010000001000000000000000001000000000000000000000000000000000000000000000000000000000000000000          REP Railroad Commissioner                               OVER VOTES                            11 - Sudan Community Center                            01 
00130030011000000000000000000000000000000000000000000000000000000000000000000000000000000000000000000          REP Railroad Commissioner                               OVER VOTES                            12 - Springlake First Baptist                          01 
00130040001000040000000000008000032000000000000000000000000000000000000000000000000000000000000000000          REP Railroad Commissioner                               UNDER VOTES                           1 - Olton Community Center                             01 
00130040002000010000002000006000002000000000000000000000000000000000000000000000000000000000000000000          REP Railroad Commissioner                               UNDER VOTES                           2 - Lamb County Ag Center                              01 
00130040003000022000000000003000019000000000000000000000000000000000000000000000000000000000000000000          REP Railroad Commissioner                               UNDER VOTES                           3 - Earth Community Center                             01 
00130040004000003000000000002000001000000000000000000000000000000000000000000000000000000000000000000          REP Railroad Commissioner                               UNDER VOTES                           4 - Sudan Community Center                             01 
00130040005000006000000000000000006000000000000000000000000000000000000000000000000000000000000000000          REP Railroad Commissioner                               UNDER VOTES                           5 - Olton Community Center                             01 
00130040006000005000000000004000001000000000000000000000000000000000000000000000000000000000000000000          REP Railroad Commissioner                               UNDER VOTES                           6 - Lamb County Ag Center                              01 
00130040007000052000002000027000023000000000000000000000000000000000000000000000000000000000000000000          REP Railroad Commissioner                               UNDER VOTES                           7 & 8 - Lamb County Ag Center                          01 
00130040008000021000001000012000008000000000000000000000000000000000000000000000000000000000000000000          REP Railroad Commissioner                               UNDER VOTES                           9 - Lamb County Ag Center                              01 
00130040009000010000000000002000008000000000000000000000000000000000000000000000000000000000000000000          REP Railroad Commissioner                               UNDER VOTES                           10 - Amherst Community Center                          01 
00130040010000025000001000003000021000000000000000000000000000000000000000000000000000000000000000000          REP Railroad Commissioner                               UNDER VOTES                           11 - Sudan Community Center                            01 
00130040011000005000000000000000005000000000000000000000000000000000000000000000000000000000000000000          REP Railroad Commissioner                               UNDER VOTES                           12 - Springlake First Baptist                          01 
00140010001000202000006000020000176000000000000000000000000000000000000000000000000000000000000000000REP       REP Chief Justice, Supreme Court                        Nathan Hecht                          1 - Olton Community Center                             01 
00140010002000057000006000024000027000000000000000000000000000000000000000000000000000000000000000000REP       REP Chief Justice, Supreme Court                        Nathan Hecht                          2 - Lamb County Ag Center                              01 
00140010003000128000004000021000103000000000000000000000000000000000000000000000000000000000000000000REP       REP Chief Justice, Supreme Court                        Nathan Hecht                          3 - Earth Community Center                             01 
