00010010001002003000000000000000000000000000000000000000000000000000000000000000000000000000000000000          REGISTERED VOTERS - TOTAL                               REGISTERED VOTERS - TOTAL             Precinct 1                                             00 
00010010002003409000000000000000000000000000000000000000000000000000000000000000000000000000000000000          REGISTERED VOTERS - TOTAL                               REGISTERED VOTERS - TOTAL             Precinct 2                                             00 
00010010003002073000000000000000000000000000000000000000000000000000000000000000000000000000000000000          REGISTERED VOTERS - TOTAL                               REGISTERED VOTERS - TOTAL             Precinct 3                                             00 
00010010004001326000000000000000000000000000000000000000000000000000000000000000000000000000000000000          REGISTERED VOTERS - TOTAL                               REGISTERED VOTERS - TOTAL             Precinct 4                                             00 
00010010005000552000000000000000000000000000000000000000000000000000000000000000000000000000000000000          REGISTERED VOTERS - TOTAL                               REGISTERED VOTERS - TOTAL             Precinct 5                                             00 
00010010006000513000000000000000000000000000000000000000000000000000000000000000000000000000000000000          REGISTERED VOTERS - TOTAL                               REGISTERED VOTERS - TOTAL             Precinct 6                                             00 
00010010007000842000000000000000000000000000000000000000000000000000000000000000000000000000000000000          REGISTERED VOTERS - TOTAL                               REGISTERED VOTERS - TOTAL             Precinct 7                                             00 
00010010008001977000000000000000000000000000000000000000000000000000000000000000000000000000000000000          REGISTERED VOTERS - TOTAL                               REGISTERED VOTERS - TOTAL             Precinct 8                                             00 
00010010009001836000000000000000000000000000000000000000000000000000000000000000000000000000000000000          REGISTERED VOTERS - TOTAL                               REGISTERED VOTERS - TOTAL             Precinct 9                                             00 
00020010001002003000000000000000000000000000000000000000000000000000000000000000000000000000000000000NON       REGISTERED VOTERS - NONPARTISAN                         REGISTERED VOTERS - NONPARTISAN       Precinct 1                                             00 
00020010002003409000000000000000000000000000000000000000000000000000000000000000000000000000000000000NON       REGISTERED VOTERS - NONPARTISAN                         REGISTERED VOTERS - NONPARTISAN       Precinct 2                                             00 
00020010003002073000000000000000000000000000000000000000000000000000000000000000000000000000000000000NON       REGISTERED VOTERS - NONPARTISAN                         REGISTERED VOTERS - NONPARTISAN       Precinct 3                                             00 
00020010004001326000000000000000000000000000000000000000000000000000000000000000000000000000000000000NON       REGISTERED VOTERS - NONPARTISAN                         REGISTERED VOTERS - NONPARTISAN       Precinct 4                                             00 
00020010005000552000000000000000000000000000000000000000000000000000000000000000000000000000000000000NON       REGISTERED VOTERS - NONPARTISAN                         REGISTERED VOTERS - NONPARTISAN       Precinct 5                                             00 
00020010006000513000000000000000000000000000000000000000000000000000000000000000000000000000000000000NON       REGISTERED VOTERS - NONPARTISAN                         REGISTERED VOTERS - NONPARTISAN       Precinct 6                                             00 
00020010007000842000000000000000000000000000000000000000000000000000000000000000000000000000000000000NON       REGISTERED VOTERS - NONPARTISAN                         REGISTERED VOTERS - NONPARTISAN       Precinct 7                                             00 
00020010008001977000000000000000000000000000000000000000000000000000000000000000000000000000000000000NON       REGISTERED VOTERS - NONPARTISAN                         REGISTERED VOTERS - NONPARTISAN       Precinct 8                                             00 
00020010009001836000000000000000000000000000000000000000000000000000000000000000000000000000000000000NON       REGISTERED VOTERS - NONPARTISAN                         REGISTERED VOTERS - NONPARTISAN       Precinct 9                                             00 
00030010001000000000000000000000000000000000000000000000000000000000000000000000000000000000000000000REP       REGISTERED VOTERS - Republican Party                    REGISTERED VOTERS - Republican Party  Precinct 1                                             00 
00030010002000000000000000000000000000000000000000000000000000000000000000000000000000000000000000000REP       REGISTERED VOTERS - Republican Party                    REGISTERED VOTERS - Republican Party  Precinct 2                                             00 
00030010003000000000000000000000000000000000000000000000000000000000000000000000000000000000000000000REP       REGISTERED VOTERS - Republican Party                    REGISTERED VOTERS - Republican Party  Precinct 3                                             00 
00030010004000000000000000000000000000000000000000000000000000000000000000000000000000000000000000000REP       REGISTERED VOTERS - Republican Party                    REGISTERED VOTERS - Republican Party  Precinct 4                                             00 
00030010005000000000000000000000000000000000000000000000000000000000000000000000000000000000000000000REP       REGISTERED VOTERS - Republican Party                    REGISTERED VOTERS - Republican Party  Precinct 5                                             00 
00030010006000000000000000000000000000000000000000000000000000000000000000000000000000000000000000000REP       REGISTERED VOTERS - Republican Party                    REGISTERED VOTERS - Republican Party  Precinct 6                                             00 
00030010007000000000000000000000000000000000000000000000000000000000000000000000000000000000000000000REP       REGISTERED VOTERS - Republican Party                    REGISTERED VOTERS - Republican Party  Precinct 7                                             00 
00030010008000000000000000000000000000000000000000000000000000000000000000000000000000000000000000000REP       REGISTERED VOTERS - Republican Party                    REGISTERED VOTERS - Republican Party  Precinct 8                                             00 
00030010009000000000000000000000000000000000000000000000000000000000000000000000000000000000000000000REP       REGISTERED VOTERS - Republican Party                    REGISTERED VOTERS - Republican Party  Precinct 9                                             00 
00040010001000000000000000000000000000000000000000000000000000000000000000000000000000000000000000000DEM       REGISTERED VOTERS - Democratic Party                    REGISTERED VOTERS - Democratic Party  Precinct 1                                             00 
00040010002000000000000000000000000000000000000000000000000000000000000000000000000000000000000000000DEM       REGISTERED VOTERS - Democratic Party                    REGISTERED VOTERS - Democratic Party  Precinct 2                                             00 
00040010003000000000000000000000000000000000000000000000000000000000000000000000000000000000000000000DEM       REGISTERED VOTERS - Democratic Party                    REGISTERED VOTERS - Democratic Party  Precinct 3                                             00 
00040010004000000000000000000000000000000000000000000000000000000000000000000000000000000000000000000DEM       REGISTERED VOTERS - Democratic Party                    REGISTERED VOTERS - Democratic Party  Precinct 4                                             00 
00040010005000000000000000000000000000000000000000000000000000000000000000000000000000000000000000000DEM       REGISTERED VOTERS - Democratic Party                    REGISTERED VOTERS - Democratic Party  Precinct 5                                             00 
00040010006000000000000000000000000000000000000000000000000000000000000000000000000000000000000000000DEM       REGISTERED VOTERS - Democratic Party                    REGISTERED VOTERS - Democratic Party  Precinct 6                                             00 
00040010007000000000000000000000000000000000000000000000000000000000000000000000000000000000000000000DEM       REGISTERED VOTERS - Democratic Party                    REGISTERED VOTERS - Democratic Party  Precinct 7                                             00 
00040010008000000000000000000000000000000000000000000000000000000000000000000000000000000000000000000DEM       REGISTERED VOTERS - Democratic Party                    REGISTERED VOTERS - Democratic Party  Precinct 8                                             00 
00040010009000000000000000000000000000000000000000000000000000000000000000000000000000000000000000000DEM       REGISTERED VOTERS - Democratic Party                    REGISTERED VOTERS - Democratic Party  Precinct 9                                             00 
00050010001000540000030000145000365000000000000000000000000000000000000000000000000000000000000000000          BALLOTS CAST - TOTAL                                    BALLOTS CAST - TOTAL                  Precinct 1                                             00 
00050010002000956000042000495000419000000000000000000000000000000000000000000000000000000000000000000          BALLOTS CAST - TOTAL                                    BALLOTS CAST - TOTAL                  Precinct 2                                             00 
00050010003000408000025000206000177000000000000000000000000000000000000000000000000000000000000000000          BALLOTS CAST - TOTAL                                    BALLOTS CAST - TOTAL                  Precinct 3                                             00 
00050010004000307000008000140000159000000000000000000000000000000000000000000000000000000000000000000          BALLOTS CAST - TOTAL                                    BALLOTS CAST - TOTAL                  Precinct 4                                             00 
00050010005000219000005000123000091000000000000000000000000000000000000000000000000000000000000000000          BALLOTS CAST - TOTAL                                    BALLOTS CAST - TOTAL                  Precinct 5                                             00 
00050010006000187000004000088000095000000000000000000000000000000000000000000000000000000000000000000          BALLOTS CAST - TOTAL                                    BALLOTS CAST - TOTAL                  Precinct 6                                             00 
00050010007000288000008000060000220000000000000000000000000000000000000000000000000000000000000000000          BALLOTS CAST - TOTAL                                    BALLOTS CAST - TOTAL                  Precinct 7                                             00 
00050010008000462000010000149000303000000000000000000000000000000000000000000000000000000000000000000          BALLOTS CAST - TOTAL                                    BALLOTS CAST - TOTAL                  Precinct 8                                             00 
00050010009000505000007000195000303000000000000000000000000000000000000000000000000000000000000000000          BALLOTS CAST - TOTAL                                    BALLOTS CAST - TOTAL                  Precinct 9                                             00 
00060010001000000000000000000000000000000000000000000000000000000000000000000000000000000000000000000NON       BALLOTS CAST - NONPARTISAN                              BALLOTS CAST - NONPARTISAN            Precinct 1                                             00 
00060010002000000000000000000000000000000000000000000000000000000000000000000000000000000000000000000NON       BALLOTS CAST - NONPARTISAN                              BALLOTS CAST - NONPARTISAN            Precinct 2                                             00 
00060010003000000000000000000000000000000000000000000000000000000000000000000000000000000000000000000NON       BALLOTS CAST - NONPARTISAN                              BALLOTS CAST - NONPARTISAN            Precinct 3                                             00 
00060010004000000000000000000000000000000000000000000000000000000000000000000000000000000000000000000NON       BALLOTS CAST - NONPARTISAN                              BALLOTS CAST - NONPARTISAN            Precinct 4                                             00 
00060010005000000000000000000000000000000000000000000000000000000000000000000000000000000000000000000NON       BALLOTS CAST - NONPARTISAN                              BALLOTS CAST - NONPARTISAN            Precinct 5                                             00 
00060010006000000000000000000000000000000000000000000000000000000000000000000000000000000000000000000NON       BALLOTS CAST - NONPARTISAN                              BALLOTS CAST - NONPARTISAN            Precinct 6                                             00 
00060010007000000000000000000000000000000000000000000000000000000000000000000000000000000000000000000NON       BALLOTS CAST - NONPARTISAN                              BALLOTS CAST - NONPARTISAN            Precinct 7                                             00 
00060010008000000000000000000000000000000000000000000000000000000000000000000000000000000000000000000NON       BALLOTS CAST - NONPARTISAN                              BALLOTS CAST - NONPARTISAN            Precinct 8                                             00 
00060010009000000000000000000000000000000000000000000000000000000000000000000000000000000000000000000NON       BALLOTS CAST - NONPARTISAN                              BALLOTS CAST - NONPARTISAN            Precinct 9                                             00 
00070010001000376000012000108000256000000000000000000000000000000000000000000000000000000000000000000REP       BALLOTS CAST - Republican Party                         BALLOTS CAST - Republican Party       Precinct 1                                             00 
00070010002000748000016000411000321000000000000000000000000000000000000000000000000000000000000000000REP       BALLOTS CAST - Republican Party                         BALLOTS CAST - Republican Party       Precinct 2                                             00 
00070010003000291000007000150000134000000000000000000000000000000000000000000000000000000000000000000REP       BALLOTS CAST - Republican Party                         BALLOTS CAST - Republican Party       Precinct 3                                             00 
00070010004000231000001000118000112000000000000000000000000000000000000000000000000000000000000000000REP       BALLOTS CAST - Republican Party                         BALLOTS CAST - Republican Party       Precinct 4                                             00 
00070010005000192000003000111000078000000000000000000000000000000000000000000000000000000000000000000REP       BALLOTS CAST - Republican Party                         BALLOTS CAST - Republican Party       Precinct 5                                             00 
00070010006000157000000000079000078000000000000000000000000000000000000000000000000000000000000000000REP       BALLOTS CAST - Republican Party                         BALLOTS CAST - Republican Party       Precinct 6                                             00 
00070010007000250000003000049000198000000000000000000000000000000000000000000000000000000000000000000REP       BALLOTS CAST - Republican Party                         BALLOTS CAST - Republican Party       Precinct 7                                             00 
00070010008000339000004000118000217000000000000000000000000000000000000000000000000000000000000000000REP       BALLOTS CAST - Republican Party                         BALLOTS CAST - Republican Party       Precinct 8                                             00 
00070010009000402000004000170000228000000000000000000000000000000000000000000000000000000000000000000REP       BALLOTS CAST - Republican Party                         BALLOTS CAST - Republican Party       Precinct 9                                             00 
00080010001000164000018000037000109000000000000000000000000000000000000000000000000000000000000000000DEM       BALLOTS CAST - Democratic Party                         BALLOTS CAST - Democratic Party       Precinct 1                                             00 
00080010002000208000026000084000098000000000000000000000000000000000000000000000000000000000000000000DEM       BALLOTS CAST - Democratic Party                         BALLOTS CAST - Democratic Party       Precinct 2                                             00 
00080010003000117000018000056000043000000000000000000000000000000000000000000000000000000000000000000DEM       BALLOTS CAST - Democratic Party                         BALLOTS CAST - Democratic Party       Precinct 3                                             00 
00080010004000076000007000022000047000000000000000000000000000000000000000000000000000000000000000000DEM       BALLOTS CAST - Democratic Party                         BALLOTS CAST - Democratic Party       Precinct 4                                             00 
00080010005000027000002000012000013000000000000000000000000000000000000000000000000000000000000000000DEM       BALLOTS CAST - Democratic Party                         BALLOTS CAST - Democratic Party       Precinct 5                                             00 
00080010006000030000004000009000017000000000000000000000000000000000000000000000000000000000000000000DEM       BALLOTS CAST - Democratic Party                         BALLOTS CAST - Democratic Party       Precinct 6                                             00 
00080010007000038000005000011000022000000000000000000000000000000000000000000000000000000000000000000DEM       BALLOTS CAST - Democratic Party                         BALLOTS CAST - Democratic Party       Precinct 7                                             00 
00080010008000123000006000031000086000000000000000000000000000000000000000000000000000000000000000000DEM       BALLOTS CAST - Democratic Party                         BALLOTS CAST - Democratic Party       Precinct 8                                             00 
00080010009000103000003000025000075000000000000000000000000000000000000000000000000000000000000000000DEM       BALLOTS CAST - Democratic Party                         BALLOTS CAST - Democratic Party       Precinct 9                                             00 
00090010001000000000000000000000000000000000000000000000000000000000000000000000000000000000000000000          BALLOTS CAST - BLANK                                    BALLOTS CAST - BLANK                  Precinct 1                                             00 
00090010002000000000000000000000000000000000000000000000000000000000000000000000000000000000000000000          BALLOTS CAST - BLANK                                    BALLOTS CAST - BLANK                  Precinct 2                                             00 
00090010003000000000000000000000000000000000000000000000000000000000000000000000000000000000000000000          BALLOTS CAST - BLANK                                    BALLOTS CAST - BLANK                  Precinct 3                                             00 
00090010004000000000000000000000000000000000000000000000000000000000000000000000000000000000000000000          BALLOTS CAST - BLANK                                    BALLOTS CAST - BLANK                  Precinct 4                                             00 
00090010005000000000000000000000000000000000000000000000000000000000000000000000000000000000000000000          BALLOTS CAST - BLANK                                    BALLOTS CAST - BLANK                  Precinct 5                                             00 
00090010006000000000000000000000000000000000000000000000000000000000000000000000000000000000000000000          BALLOTS CAST - BLANK                                    BALLOTS CAST - BLANK                  Precinct 6                                             00 
00090010007000000000000000000000000000000000000000000000000000000000000000000000000000000000000000000          BALLOTS CAST - BLANK                                    BALLOTS CAST - BLANK                  Precinct 7                                             00 
00090010008000000000000000000000000000000000000000000000000000000000000000000000000000000000000000000          BALLOTS CAST - BLANK                                    BALLOTS CAST - BLANK                  Precinct 8                                             00 
00090010009000000000000000000000000000000000000000000000000000000000000000000000000000000000000000000          BALLOTS CAST - BLANK                                    BALLOTS CAST - BLANK                  Precinct 9                                             00 
00100010001000001000000000000000001000000000000000000000000000000000000000000000000000000000000000000REP       REP President                                           Roque Rocky DeLa Fuente Guerra        Precinct 1                                             01 
00100010002000003000000000001000002000000000000000000000000000000000000000000000000000000000000000000REP       REP President                                           Roque Rocky DeLa Fuente Guerra        Precinct 2                                             01 
00100010003000000000000000000000000000000000000000000000000000000000000000000000000000000000000000000REP       REP President                                           Roque Rocky DeLa Fuente Guerra        Precinct 3                                             01 
00100010004000000000000000000000000000000000000000000000000000000000000000000000000000000000000000000REP       REP President                                           Roque Rocky DeLa Fuente Guerra        Precinct 4                                             01 
00100010005000001000000000000000001000000000000000000000000000000000000000000000000000000000000000000REP       REP President                                           Roque Rocky DeLa Fuente Guerra        Precinct 5                                             01 
00100010006000000000000000000000000000000000000000000000000000000000000000000000000000000000000000000REP       REP President                                           Roque Rocky DeLa Fuente Guerra        Precinct 6                                             01 
00100010007000000000000000000000000000000000000000000000000000000000000000000000000000000000000000000REP       REP President                                           Roque Rocky DeLa Fuente Guerra        Precinct 7                                             01 
00100010008000000000000000000000000000000000000000000000000000000000000000000000000000000000000000000REP       REP President                                           Roque Rocky DeLa Fuente Guerra        Precinct 8                                             01 
00100010009000000000000000000000000000000000000000000000000000000000000000000000000000000000000000000REP       REP President                                           Roque Rocky DeLa Fuente Guerra        Precinct 9                                             01 
00100020001000350000011000100000239000000000000000000000000000000000000000000000000000000000000000000REP       REP President                                           Donald J. Trump                       Precinct 1                                             01 
00100020002000705000016000380000309000000000000000000000000000000000000000000000000000000000000000000REP       REP President                                           Donald J. Trump                       Precinct 2                                             01 
00100020003000281000007000146000128000000000000000000000000000000000000000000000000000000000000000000REP       REP President                                           Donald J. Trump                       Precinct 3                                             01 
00100020004000224000001000117000106000000000000000000000000000000000000000000000000000000000000000000REP       REP President                                           Donald J. Trump                       Precinct 4                                             01 
00100020005000188000003000110000075000000000000000000000000000000000000000000000000000000000000000000REP       REP President                                           Donald J. Trump                       Precinct 5                                             01 
00100020006000154000000000079000075000000000000000000000000000000000000000000000000000000000000000000REP       REP President                                           Donald J. Trump                       Precinct 6                                             01 
00100020007000240000003000048000189000000000000000000000000000000000000000000000000000000000000000000REP       REP President                                           Donald J. Trump                       Precinct 7                                             01 
00100020008000324000004000112000208000000000000000000000000000000000000000000000000000000000000000000REP       REP President                                           Donald J. Trump                       Precinct 8                                             01 
00100020009000394000004000165000225000000000000000000000000000000000000000000000000000000000000000000REP       REP President                                           Donald J. Trump                       Precinct 9                                             01 
00100030001000000000000000000000000000000000000000000000000000000000000000000000000000000000000000000REP       REP President                                           Matthew John Matern                   Precinct 1                                             01 
00100030002000003000000000001000002000000000000000000000000000000000000000000000000000000000000000000REP       REP President                                           Matthew John Matern                   Precinct 2                                             01 
00100030003000000000000000000000000000000000000000000000000000000000000000000000000000000000000000000REP       REP President                                           Matthew John Matern                   Precinct 3                                             01 
00100030004000000000000000000000000000000000000000000000000000000000000000000000000000000000000000000REP       REP President                                           Matthew John Matern                   Precinct 4                                             01 
00100030005000000000000000000000000000000000000000000000000000000000000000000000000000000000000000000REP       REP President                                           Matthew John Matern                   Precinct 5                                             01 
00100030006000000000000000000000000000000000000000000000000000000000000000000000000000000000000000000REP       REP President                                           Matthew John Matern                   Precinct 6                                             01 
00100030007000001000000000000000001000000000000000000000000000000000000000000000000000000000000000000REP       REP President                                           Matthew John Matern                   Precinct 7                                             01 
00100030008000000000000000000000000000000000000000000000000000000000000000000000000000000000000000000REP       REP President                                           Matthew John Matern                   Precinct 8                                             01 
00100030009000000000000000000000000000000000000000000000000000000000000000000000000000000000000000000REP       REP President                                           Matthew John Matern                   Precinct 9                                             01 
00100040001000004000000000001000003000000000000000000000000000000000000000000000000000000000000000000REP       REP President                                           Joe Walsh                             Precinct 1                                             01 
00100040002000006000000000005000001000000000000000000000000000000000000000000000000000000000000000000REP       REP President                                           Joe Walsh                             Precinct 2                                             01 
00100040003000003000000000000000003000000000000000000000000000000000000000000000000000000000000000000REP       REP President                                           Joe Walsh                             Precinct 3                                             01 
00100040004000000000000000000000000000000000000000000000000000000000000000000000000000000000000000000REP       REP President                                           Joe Walsh                             Precinct 4                                             01 
00100040005000001000000000000000001000000000000000000000000000000000000000000000000000000000000000000REP       REP President                                           Joe Walsh                             Precinct 5                                             01 
00100040006000000000000000000000000000000000000000000000000000000000000000000000000000000000000000000REP       REP President                                           Joe Walsh                             Precinct 6                                             01 
00100040007000000000000000000000000000000000000000000000000000000000000000000000000000000000000000000REP       REP President                                           Joe Walsh                             Precinct 7                                             01 
00100040008000001000000000000000001000000000000000000000000000000000000000000000000000000000000000000REP       REP President                                           Joe Walsh                             Precinct 8                                             01 
00100040009000002000000000001000001000000000000000000000000000000000000000000000000000000000000000000REP       REP President                                           Joe Walsh                             Precinct 9                                             01 
00100050001000000000000000000000000000000000000000000000000000000000000000000000000000000000000000000REP       REP President                                           Bob Ely                               Precinct 1                                             01 
00100050002000000000000000000000000000000000000000000000000000000000000000000000000000000000000000000REP       REP President                                           Bob Ely                               Precinct 2                                             01 
00100050003000001000000000000000001000000000000000000000000000000000000000000000000000000000000000000REP       REP President                                           Bob Ely                               Precinct 3                                             01 
00100050004000000000000000000000000000000000000000000000000000000000000000000000000000000000000000000REP       REP President                                           Bob Ely                               Precinct 4                                             01 
00100050005000000000000000000000000000000000000000000000000000000000000000000000000000000000000000000REP       REP President                                           Bob Ely                               Precinct 5                                             01 
00100050006000000000000000000000000000000000000000000000000000000000000000000000000000000000000000000REP       REP President                                           Bob Ely                               Precinct 6                                             01 
00100050007000000000000000000000000000000000000000000000000000000000000000000000000000000000000000000REP       REP President                                           Bob Ely                               Precinct 7                                             01 
00100050008000000000000000000000000000000000000000000000000000000000000000000000000000000000000000000REP       REP President                                           Bob Ely                               Precinct 8                                             01 
00100050009000000000000000000000000000000000000000000000000000000000000000000000000000000000000000000REP       REP President                                           Bob Ely                               Precinct 9                                             01 
00100060001000001000000000000000001000000000000000000000000000000000000000000000000000000000000000000REP       REP President                                           Zoltan G. Istvan                      Precinct 1                                             01 
00100060002000000000000000000000000000000000000000000000000000000000000000000000000000000000000000000REP       REP President                                           Zoltan G. Istvan                      Precinct 2                                             01 
00100060003000000000000000000000000000000000000000000000000000000000000000000000000000000000000000000REP       REP President                                           Zoltan G. Istvan                      Precinct 3                                             01 
00100060004000000000000000000000000000000000000000000000000000000000000000000000000000000000000000000REP       REP President                                           Zoltan G. Istvan                      Precinct 4                                             01 
00100060005000000000000000000000000000000000000000000000000000000000000000000000000000000000000000000REP       REP President                                           Zoltan G. Istvan                      Precinct 5                                             01 
00100060006000000000000000000000000000000000000000000000000000000000000000000000000000000000000000000REP       REP President                                           Zoltan G. Istvan                      Precinct 6                                             01 
00100060007000000000000000000000000000000000000000000000000000000000000000000000000000000000000000000REP       REP President                                           Zoltan G. Istvan                      Precinct 7                                             01 
00100060008000000000000000000000000000000000000000000000000000000000000000000000000000000000000000000REP       REP President                                           Zoltan G. Istvan                      Precinct 8                                             01 
00100060009000000000000000000000000000000000000000000000000000000000000000000000000000000000000000000REP       REP President                                           Zoltan G. Istvan                      Precinct 9                                             01 
00100070001000005000000000003000002000000000000000000000000000000000000000000000000000000000000000000REP       REP President                                           Bill Weld                             Precinct 1                                             01 
00100070002000011000000000011000000000000000000000000000000000000000000000000000000000000000000000000REP       REP President                                           Bill Weld                             Precinct 2                                             01 
00100070003000000000000000000000000000000000000000000000000000000000000000000000000000000000000000000REP       REP President                                           Bill Weld                             Precinct 3                                             01 
00100070004000002000000000000000002000000000000000000000000000000000000000000000000000000000000000000REP       REP President                                           Bill Weld                             Precinct 4                                             01 
00100070005000000000000000000000000000000000000000000000000000000000000000000000000000000000000000000REP       REP President                                           Bill Weld                             Precinct 5                                             01 
00100070006000001000000000000000001000000000000000000000000000000000000000000000000000000000000000000REP       REP President                                           Bill Weld                             Precinct 6                                             01 
00100070007000001000000000000000001000000000000000000000000000000000000000000000000000000000000000000REP       REP President                                           Bill Weld                             Precinct 7                                             01 
00100070008000006000000000003000003000000000000000000000000000000000000000000000000000000000000000000REP       REP President                                           Bill Weld                             Precinct 8                                             01 
00100070009000000000000000000000000000000000000000000000000000000000000000000000000000000000000000000REP       REP President                                           Bill Weld                             Precinct 9                                             01 
00100080001000014000001000004000009000000000000000000000000000000000000000000000000000000000000000000REP       REP President                                           Uncommitted                           Precinct 1                                             01 
00100080002000018000000000012000006000000000000000000000000000000000000000000000000000000000000000000REP       REP President                                           Uncommitted                           Precinct 2                                             01 
00100080003000004000000000002000002000000000000000000000000000000000000000000000000000000000000000000REP       REP President                                           Uncommitted                           Precinct 3                                             01 
00100080004000005000000000001000004000000000000000000000000000000000000000000000000000000000000000000REP       REP President                                           Uncommitted                           Precinct 4                                             01 
00100080005000002000000000001000001000000000000000000000000000000000000000000000000000000000000000000REP       REP President                                           Uncommitted                           Precinct 5                                             01 
00100080006000002000000000000000002000000000000000000000000000000000000000000000000000000000000000000REP       REP President                                           Uncommitted                           Precinct 6                                             01 
00100080007000007000000000001000006000000000000000000000000000000000000000000000000000000000000000000REP       REP President                                           Uncommitted                           Precinct 7                                             01 
00100080008000007000000000003000004000000000000000000000000000000000000000000000000000000000000000000REP       REP President                                           Uncommitted                           Precinct 8                                             01 
00100080009000006000000000004000002000000000000000000000000000000000000000000000000000000000000000000REP       REP President                                           Uncommitted                           Precinct 9                                             01 
00100090001000000000000000000000000000000000000000000000000000000000000000000000000000000000000000000          REP President                                           OVER VOTES                            Precinct 1                                             01 
00100090002000000000000000000000000000000000000000000000000000000000000000000000000000000000000000000          REP President                                           OVER VOTES                            Precinct 2                                             01 
00100090003000000000000000000000000000000000000000000000000000000000000000000000000000000000000000000          REP President                                           OVER VOTES                            Precinct 3                                             01 
00100090004000000000000000000000000000000000000000000000000000000000000000000000000000000000000000000          REP President                                           OVER VOTES                            Precinct 4                                             01 
00100090005000000000000000000000000000000000000000000000000000000000000000000000000000000000000000000          REP President                                           OVER VOTES                            Precinct 5                                             01 
00100090006000000000000000000000000000000000000000000000000000000000000000000000000000000000000000000          REP President                                           OVER VOTES                            Precinct 6                                             01 
00100090007000000000000000000000000000000000000000000000000000000000000000000000000000000000000000000          REP President                                           OVER VOTES                            Precinct 7                                             01 
00100090008000000000000000000000000000000000000000000000000000000000000000000000000000000000000000000          REP President                                           OVER VOTES                            Precinct 8                                             01 
00100090009000000000000000000000000000000000000000000000000000000000000000000000000000000000000000000          REP President                                           OVER VOTES                            Precinct 9                                             01 
00100100001000001000000000000000001000000000000000000000000000000000000000000000000000000000000000000          REP President                                           UNDER VOTES                           Precinct 1                                             01 
00100100002000002000000000001000001000000000000000000000000000000000000000000000000000000000000000000          REP President                                           UNDER VOTES                           Precinct 2                                             01 
00100100003000002000000000002000000000000000000000000000000000000000000000000000000000000000000000000          REP President                                           UNDER VOTES                           Precinct 3                                             01 
00100100004000000000000000000000000000000000000000000000000000000000000000000000000000000000000000000          REP President                                           UNDER VOTES                           Precinct 4                                             01 
00100100005000000000000000000000000000000000000000000000000000000000000000000000000000000000000000000          REP President                                           UNDER VOTES                           Precinct 5                                             01 
00100100006000000000000000000000000000000000000000000000000000000000000000000000000000000000000000000          REP President                                           UNDER VOTES                           Precinct 6                                             01 
00100100007000001000000000000000001000000000000000000000000000000000000000000000000000000000000000000          REP President                                           UNDER VOTES                           Precinct 7                                             01 
00100100008000001000000000000000001000000000000000000000000000000000000000000000000000000000000000000          REP President                                           UNDER VOTES                           Precinct 8                                             01 
00100100009000000000000000000000000000000000000000000000000000000000000000000000000000000000000000000          REP President                                           UNDER VOTES                           Precinct 9                                             01 
00110010001000010000000000003000007000000000000000000000000000000000000000000000000000000000000000000REP       REP US Senator                                          Virgil Bierschwale                    Precinct 1                                             01 
00110010002000017000001000008000008000000000000000000000000000000000000000000000000000000000000000000REP       REP US Senator                                          Virgil Bierschwale                    Precinct 2                                             01 
00110010003000011000000000003000008000000000000000000000000000000000000000000000000000000000000000000REP       REP US Senator                                          Virgil Bierschwale                    Precinct 3                                             01 
00110010004000005000000000002000003000000000000000000000000000000000000000000000000000000000000000000REP       REP US Senator                                          Virgil Bierschwale                    Precinct 4                                             01 
00110010005000004000000000001000003000000000000000000000000000000000000000000000000000000000000000000REP       REP US Senator                                          Virgil Bierschwale                    Precinct 5                                             01 
00110010006000001000000000001000000000000000000000000000000000000000000000000000000000000000000000000REP       REP US Senator                                          Virgil Bierschwale                    Precinct 6                                             01 
00110010007000008000001000001000006000000000000000000000000000000000000000000000000000000000000000000REP       REP US Senator                                          Virgil Bierschwale                    Precinct 7                                             01 
00110010008000007000000000002000005000000000000000000000000000000000000000000000000000000000000000000REP       REP US Senator                                          Virgil Bierschwale                    Precinct 8                                             01 
00110010009000007000000000002000005000000000000000000000000000000000000000000000000000000000000000000REP       REP US Senator                                          Virgil Bierschwale                    Precinct 9                                             01 
00110020001000045000000000012000033000000000000000000000000000000000000000000000000000000000000000000REP       REP US Senator                                          Dwayne Stovall                        Precinct 1                                             01 
00110020002000058000000000024000034000000000000000000000000000000000000000000000000000000000000000000REP       REP US Senator                                          Dwayne Stovall                        Precinct 2                                             01 
00110020003000038000000000023000015000000000000000000000000000000000000000000000000000000000000000000REP       REP US Senator                                          Dwayne Stovall                        Precinct 3                                             01 
00110020004000032000000000019000013000000000000000000000000000000000000000000000000000000000000000000REP       REP US Senator                                          Dwayne Stovall                        Precinct 4                                             01 
00110020005000022000000000010000012000000000000000000000000000000000000000000000000000000000000000000REP       REP US Senator                                          Dwayne Stovall                        Precinct 5                                             01 
00110020006000020000000000003000017000000000000000000000000000000000000000000000000000000000000000000REP       REP US Senator                                          Dwayne Stovall                        Precinct 6                                             01 
00110020007000030000000000008000022000000000000000000000000000000000000000000000000000000000000000000REP       REP US Senator                                          Dwayne Stovall                        Precinct 7                                             01 
00110020008000031000001000010000020000000000000000000000000000000000000000000000000000000000000000000REP       REP US Senator                                          Dwayne Stovall                        Precinct 8                                             01 
00110020009000041000000000016000025000000000000000000000000000000000000000000000000000000000000000000REP       REP US Senator                                          Dwayne Stovall                        Precinct 9                                             01 
00110030001000278000010000082000186000000000000000000000000000000000000000000000000000000000000000000REP       REP US Senator                                          John Cornyn                           Precinct 1                                             01 
00110030002000603000014000341000248000000000000000000000000000000000000000000000000000000000000000000REP       REP US Senator                                          John Cornyn                           Precinct 2                                             01 
00110030003000214000007000113000094000000000000000000000000000000000000000000000000000000000000000000REP       REP US Senator                                          John Cornyn                           Precinct 3                                             01 
00110030004000173000001000087000085000000000000000000000000000000000000000000000000000000000000000000REP       REP US Senator                                          John Cornyn                           Precinct 4                                             01 
00110030005000155000002000096000057000000000000000000000000000000000000000000000000000000000000000000REP       REP US Senator                                          John Cornyn                           Precinct 5                                             01 
00110030006000124000000000070000054000000000000000000000000000000000000000000000000000000000000000000REP       REP US Senator                                          John Cornyn                           Precinct 6                                             01 
00110030007000172000002000035000135000000000000000000000000000000000000000000000000000000000000000000REP       REP US Senator                                          John Cornyn                           Precinct 7                                             01 
00110030008000256000002000095000159000000000000000000000000000000000000000000000000000000000000000000REP       REP US Senator                                          John Cornyn                           Precinct 8                                             01 
00110030009000324000004000140000180000000000000000000000000000000000000000000000000000000000000000000REP       REP US Senator                                          John Cornyn                           Precinct 9                                             01 
00110040001000020000000000003000017000000000000000000000000000000000000000000000000000000000000000000REP       REP US Senator                                          Mark Yancey                           Precinct 1                                             01 
00110040002000032000001000016000015000000000000000000000000000000000000000000000000000000000000000000REP       REP US Senator                                          Mark Yancey                           Precinct 2                                             01 
00110040003000016000000000007000009000000000000000000000000000000000000000000000000000000000000000000REP       REP US Senator                                          Mark Yancey                           Precinct 3                                             01 
00110040004000009000000000005000004000000000000000000000000000000000000000000000000000000000000000000REP       REP US Senator                                          Mark Yancey                           Precinct 4                                             01 
00110040005000005000001000002000002000000000000000000000000000000000000000000000000000000000000000000REP       REP US Senator                                          Mark Yancey                           Precinct 5                                             01 
00110040006000009000000000004000005000000000000000000000000000000000000000000000000000000000000000000REP       REP US Senator                                          Mark Yancey                           Precinct 6                                             01 
00110040007000016000000000002000014000000000000000000000000000000000000000000000000000000000000000000REP       REP US Senator                                          Mark Yancey                           Precinct 7                                             01 
00110040008000028000001000009000018000000000000000000000000000000000000000000000000000000000000000000REP       REP US Senator                                          Mark Yancey                           Precinct 8                                             01 
00110040009000014000000000006000008000000000000000000000000000000000000000000000000000000000000000000REP       REP US Senator                                          Mark Yancey                           Precinct 9                                             01 
00110050001000019000000000008000011000000000000000000000000000000000000000000000000000000000000000000REP       REP US Senator                                          John Anthony Castro                   Precinct 1                                             01 
00110050002000018000000000011000007000000000000000000000000000000000000000000000000000000000000000000REP       REP US Senator                                          John Anthony Castro                   Precinct 2                                             01 
00110050003000008000000000003000005000000000000000000000000000000000000000000000000000000000000000000REP       REP US Senator                                          John Anthony Castro                   Precinct 3                                             01 
00110050004000008000000000002000006000000000000000000000000000000000000000000000000000000000000000000REP       REP US Senator                                          John Anthony Castro                   Precinct 4                                             01 
00110050005000002000000000001000001000000000000000000000000000000000000000000000000000000000000000000REP       REP US Senator                                          John Anthony Castro                   Precinct 5                                             01 
00110050006000000000000000000000000000000000000000000000000000000000000000000000000000000000000000000REP       REP US Senator                                          John Anthony Castro                   Precinct 6                                             01 
00110050007000014000000000003000011000000000000000000000000000000000000000000000000000000000000000000REP       REP US Senator                                          John Anthony Castro                   Precinct 7                                             01 
00110050008000011000000000002000009000000000000000000000000000000000000000000000000000000000000000000REP       REP US Senator                                          John Anthony Castro                   Precinct 8                                             01 
00110050009000012000000000006000006000000000000000000000000000000000000000000000000000000000000000000REP       REP US Senator                                          John Anthony Castro                   Precinct 9                                             01 
00110060001000000000000000000000000000000000000000000000000000000000000000000000000000000000000000000          REP US Senator                                          OVER VOTES                            Precinct 1                                             01 
00110060002000000000000000000000000000000000000000000000000000000000000000000000000000000000000000000          REP US Senator                                          OVER VOTES                            Precinct 2                                             01 
00110060003000000000000000000000000000000000000000000000000000000000000000000000000000000000000000000          REP US Senator                                          OVER VOTES                            Precinct 3                                             01 
00110060004000000000000000000000000000000000000000000000000000000000000000000000000000000000000000000          REP US Senator                                          OVER VOTES                            Precinct 4                                             01 
00110060005000000000000000000000000000000000000000000000000000000000000000000000000000000000000000000          REP US Senator                                          OVER VOTES                            Precinct 5                                             01 
00110060006000000000000000000000000000000000000000000000000000000000000000000000000000000000000000000          REP US Senator                                          OVER VOTES                            Precinct 6                                             01 
00110060007000000000000000000000000000000000000000000000000000000000000000000000000000000000000000000          REP US Senator                                          OVER VOTES                            Precinct 7                                             01 
00110060008000000000000000000000000000000000000000000000000000000000000000000000000000000000000000000          REP US Senator                                          OVER VOTES                            Precinct 8                                             01 
00110060009000000000000000000000000000000000000000000000000000000000000000000000000000000000000000000          REP US Senator                                          OVER VOTES                            Precinct 9                                             01 
00110070001000004000002000000000002000000000000000000000000000000000000000000000000000000000000000000          REP US Senator                                          UNDER VOTES                           Precinct 1                                             01 
00110070002000020000000000011000009000000000000000000000000000000000000000000000000000000000000000000          REP US Senator                                          UNDER VOTES                           Precinct 2                                             01 
00110070003000004000000000001000003000000000000000000000000000000000000000000000000000000000000000000          REP US Senator                                          UNDER VOTES                           Precinct 3                                             01 
00110070004000004000000000003000001000000000000000000000000000000000000000000000000000000000000000000          REP US Senator                                          UNDER VOTES                           Precinct 4                                             01 
00110070005000004000000000001000003000000000000000000000000000000000000000000000000000000000000000000          REP US Senator                                          UNDER VOTES                           Precinct 5                                             01 
00110070006000003000000000001000002000000000000000000000000000000000000000000000000000000000000000000          REP US Senator                                          UNDER VOTES                           Precinct 6                                             01 
00110070007000010000000000000000010000000000000000000000000000000000000000000000000000000000000000000          REP US Senator                                          UNDER VOTES                           Precinct 7                                             01 
00110070008000006000000000000000006000000000000000000000000000000000000000000000000000000000000000000          REP US Senator                                          UNDER VOTES                           Precinct 8                                             01 
00110070009000004000000000000000004000000000000000000000000000000000000000000000000000000000000000000          REP US Senator                                          UNDER VOTES                           Precinct 9                                             01 
00120010001000330000011000095000224000000000000000000000000000000000000000000000000000000000000000000REP       REP US Representative, Dist 25                          Roger Williams                        Precinct 1                                             01 
00120010002000665000015000366000284000000000000000000000000000000000000000000000000000000000000000000REP       REP US Representative, Dist 25                          Roger Williams                        Precinct 2                                             01 
00120010003000264000006000134000124000000000000000000000000000000000000000000000000000000000000000000REP       REP US Representative, Dist 25                          Roger Williams                        Precinct 3                                             01 
00120010004000198000001000102000095000000000000000000000000000000000000000000000000000000000000000000REP       REP US Representative, Dist 25                          Roger Williams                        Precinct 4                                             01 
00120010005000162000001000100000061000000000000000000000000000000000000000000000000000000000000000000REP       REP US Representative, Dist 25                          Roger Williams                        Precinct 5                                             01 
00120010006000136000000000070000066000000000000000000000000000000000000000000000000000000000000000000REP       REP US Representative, Dist 25                          Roger Williams                        Precinct 6                                             01 
00120010007000216000003000045000168000000000000000000000000000000000000000000000000000000000000000000REP       REP US Representative, Dist 25                          Roger Williams                        Precinct 7                                             01 
00120010008000291000003000100000188000000000000000000000000000000000000000000000000000000000000000000REP       REP US Representative, Dist 25                          Roger Williams                        Precinct 8                                             01 
00120010009000367000004000154000209000000000000000000000000000000000000000000000000000000000000000000REP       REP US Representative, Dist 25                          Roger Williams                        Precinct 9                                             01 
00120020001000041000000000012000029000000000000000000000000000000000000000000000000000000000000000000REP       REP US Representative, Dist 25                          Keith Neuendorff                      Precinct 1                                             01 
00120020002000054000000000036000018000000000000000000000000000000000000000000000000000000000000000000REP       REP US Representative, Dist 25                          Keith Neuendorff                      Precinct 2                                             01 
00120020003000019000000000013000006000000000000000000000000000000000000000000000000000000000000000000REP       REP US Representative, Dist 25                          Keith Neuendorff                      Precinct 3                                             01 
00120020004000029000000000014000015000000000000000000000000000000000000000000000000000000000000000000REP       REP US Representative, Dist 25                          Keith Neuendorff                      Precinct 4                                             01 
00120020005000019000000000009000010000000000000000000000000000000000000000000000000000000000000000000REP       REP US Representative, Dist 25                          Keith Neuendorff                      Precinct 5                                             01 
00120020006000019000000000009000010000000000000000000000000000000000000000000000000000000000000000000REP       REP US Representative, Dist 25                          Keith Neuendorff                      Precinct 6                                             01 
00120020007000023000000000004000019000000000000000000000000000000000000000000000000000000000000000000REP       REP US Representative, Dist 25                          Keith Neuendorff                      Precinct 7                                             01 
00120020008000040000001000015000024000000000000000000000000000000000000000000000000000000000000000000REP       REP US Representative, Dist 25                          Keith Neuendorff                      Precinct 8                                             01 
00120020009000032000000000015000017000000000000000000000000000000000000000000000000000000000000000000REP       REP US Representative, Dist 25                          Keith Neuendorff                      Precinct 9                                             01 
00120030001000000000000000000000000000000000000000000000000000000000000000000000000000000000000000000          REP US Representative, Dist 25                          OVER VOTES                            Precinct 1                                             01 
00120030002000000000000000000000000000000000000000000000000000000000000000000000000000000000000000000          REP US Representative, Dist 25                          OVER VOTES                            Precinct 2                                             01 
00120030003000000000000000000000000000000000000000000000000000000000000000000000000000000000000000000          REP US Representative, Dist 25                          OVER VOTES                            Precinct 3                                             01 
00120030004000000000000000000000000000000000000000000000000000000000000000000000000000000000000000000          REP US Representative, Dist 25                          OVER VOTES                            Precinct 4                                             01 
00120030005000000000000000000000000000000000000000000000000000000000000000000000000000000000000000000          REP US Representative, Dist 25                          OVER VOTES                            Precinct 5                                             01 
00120030006000000000000000000000000000000000000000000000000000000000000000000000000000000000000000000          REP US Representative, Dist 25                          OVER VOTES                            Precinct 6                                             01 
00120030007000000000000000000000000000000000000000000000000000000000000000000000000000000000000000000          REP US Representative, Dist 25                          OVER VOTES                            Precinct 7                                             01 
00120030008000000000000000000000000000000000000000000000000000000000000000000000000000000000000000000          REP US Representative, Dist 25                          OVER VOTES                            Precinct 8                                             01 
00120030009000000000000000000000000000000000000000000000000000000000000000000000000000000000000000000          REP US Representative, Dist 25                          OVER VOTES                            Precinct 9                                             01 
00120040001000005000001000001000003000000000000000000000000000000000000000000000000000000000000000000          REP US Representative, Dist 25                          UNDER VOTES                           Precinct 1                                             01 
00120040002000029000001000009000019000000000000000000000000000000000000000000000000000000000000000000          REP US Representative, Dist 25                          UNDER VOTES                           Precinct 2                                             01 
00120040003000008000001000003000004000000000000000000000000000000000000000000000000000000000000000000          REP US Representative, Dist 25                          UNDER VOTES                           Precinct 3                                             01 
00120040004000004000000000002000002000000000000000000000000000000000000000000000000000000000000000000          REP US Representative, Dist 25                          UNDER VOTES                           Precinct 4                                             01 
00120040005000011000002000002000007000000000000000000000000000000000000000000000000000000000000000000          REP US Representative, Dist 25                          UNDER VOTES                           Precinct 5                                             01 
00120040006000002000000000000000002000000000000000000000000000000000000000000000000000000000000000000          REP US Representative, Dist 25                          UNDER VOTES                           Precinct 6                                             01 
00120040007000011000000000000000011000000000000000000000000000000000000000000000000000000000000000000          REP US Representative, Dist 25                          UNDER VOTES                           Precinct 7                                             01 
00120040008000008000000000003000005000000000000000000000000000000000000000000000000000000000000000000          REP US Representative, Dist 25                          UNDER VOTES                           Precinct 8                                             01 
00120040009000003000000000001000002000000000000000000000000000000000000000000000000000000000000000000          REP US Representative, Dist 25                          UNDER VOTES                           Precinct 9                                             01 
00130010001000268000009000080000179000000000000000000000000000000000000000000000000000000000000000000REP       REP Railroad Commissioner                               James "Jim" Wright                    Precinct 1                                             01 
00130010002000509000010000280000219000000000000000000000000000000000000000000000000000000000000000000REP       REP Railroad Commissioner                               James "Jim" Wright                    Precinct 2                                             01 
00130010003000206000002000111000093000000000000000000000000000000000000000000000000000000000000000000REP       REP Railroad Commissioner                               James "Jim" Wright                    Precinct 3                                             01 
00130010004000173000001000092000080000000000000000000000000000000000000000000000000000000000000000000REP       REP Railroad Commissioner                               James "Jim" Wright                    Precinct 4                                             01 
00130010005000131000002000077000052000000000000000000000000000000000000000000000000000000000000000000REP       REP Railroad Commissioner                               James "Jim" Wright                    Precinct 5                                             01 
00130010006000102000000000051000051000000000000000000000000000000000000000000000000000000000000000000REP       REP Railroad Commissioner                               James "Jim" Wright                    Precinct 6                                             01 
00130010007000170000002000029000139000000000000000000000000000000000000000000000000000000000000000000REP       REP Railroad Commissioner                               James "Jim" Wright                    Precinct 7                                             01 
00130010008000235000004000077000154000000000000000000000000000000000000000000000000000000000000000000REP       REP Railroad Commissioner                               James "Jim" Wright                    Precinct 8                                             01 
00130010009000277000004000113000160000000000000000000000000000000000000000000000000000000000000000000REP       REP Railroad Commissioner                               James "Jim" Wright                    Precinct 9                                             01 
00130020001000097000001000025000071000000000000000000000000000000000000000000000000000000000000000000REP       REP Railroad Commissioner                               Ryan Sitton                           Precinct 1                                             01 
00130020002000183000004000101000078000000000000000000000000000000000000000000000000000000000000000000REP       REP Railroad Commissioner                               Ryan Sitton                           Precinct 2                                             01 
00130020003000064000005000026000033000000000000000000000000000000000000000000000000000000000000000000REP       REP Railroad Commissioner                               Ryan Sitton                           Precinct 3                                             01 
00130020004000045000000000019000026000000000000000000000000000000000000000000000000000000000000000000REP       REP Railroad Commissioner                               Ryan Sitton                           Precinct 4                                             01 
00130020005000052000001000031000020000000000000000000000000000000000000000000000000000000000000000000REP       REP Railroad Commissioner                               Ryan Sitton                           Precinct 5                                             01 
00130020006000043000000000025000018000000000000000000000000000000000000000000000000000000000000000000REP       REP Railroad Commissioner                               Ryan Sitton                           Precinct 6                                             01 
00130020007000059000000000016000043000000000000000000000000000000000000000000000000000000000000000000REP       REP Railroad Commissioner                               Ryan Sitton                           Precinct 7                                             01 
00130020008000093000000000036000057000000000000000000000000000000000000000000000000000000000000000000REP       REP Railroad Commissioner                               Ryan Sitton                           Precinct 8                                             01 
00130020009000114000000000052000062000000000000000000000000000000000000000000000000000000000000000000REP       REP Railroad Commissioner                               Ryan Sitton                           Precinct 9                                             01 
00130030001000000000000000000000000000000000000000000000000000000000000000000000000000000000000000000          REP Railroad Commissioner                               OVER VOTES                            Precinct 1                                             01 
00130030002000000000000000000000000000000000000000000000000000000000000000000000000000000000000000000          REP Railroad Commissioner                               OVER VOTES                            Precinct 2                                             01 
00130030003000000000000000000000000000000000000000000000000000000000000000000000000000000000000000000          REP Railroad Commissioner                               OVER VOTES                            Precinct 3                                             01 
00130030004000000000000000000000000000000000000000000000000000000000000000000000000000000000000000000          REP Railroad Commissioner                               OVER VOTES                            Precinct 4                                             01 
00130030005000000000000000000000000000000000000000000000000000000000000000000000000000000000000000000          REP Railroad Commissioner                               OVER VOTES                            Precinct 5                                             01 
00130030006000000000000000000000000000000000000000000000000000000000000000000000000000000000000000000          REP Railroad Commissioner                               OVER VOTES                            Precinct 6                                             01 
00130030007000000000000000000000000000000000000000000000000000000000000000000000000000000000000000000          REP Railroad Commissioner                               OVER VOTES                            Precinct 7                                             01 
00130030008000000000000000000000000000000000000000000000000000000000000000000000000000000000000000000          REP Railroad Commissioner                               OVER VOTES                            Precinct 8                                             01 
00130030009000000000000000000000000000000000000000000000000000000000000000000000000000000000000000000          REP Railroad Commissioner                               OVER VOTES                            Precinct 9                                             01 
00130040001000011000002000003000006000000000000000000000000000000000000000000000000000000000000000000          REP Railroad Commissioner                               UNDER VOTES                           Precinct 1                                             01 
00130040002000056000002000030000024000000000000000000000000000000000000000000000000000000000000000000          REP Railroad Commissioner                               UNDER VOTES                           Precinct 2                                             01 
00130040003000021000000000013000008000000000000000000000000000000000000000000000000000000000000000000          REP Railroad Commissioner                               UNDER VOTES                           Precinct 3                                             01 
00130040004000013000000000007000006000000000000000000000000000000000000000000000000000000000000000000          REP Railroad Commissioner                               UNDER VOTES                           Precinct 4                                             01 
00130040005000009000000000003000006000000000000000000000000000000000000000000000000000000000000000000          REP Railroad Commissioner                               UNDER VOTES                           Precinct 5                                             01 
00130040006000012000000000003000009000000000000000000000000000000000000000000000000000000000000000000          REP Railroad Commissioner                               UNDER VOTES                           Precinct 6                                             01 
00130040007000021000001000004000016000000000000000000000000000000000000000000000000000000000000000000          REP Railroad Commissioner                               UNDER VOTES                           Precinct 7                                             01 
00130040008000011000000000005000006000000000000000000000000000000000000000000000000000000000000000000          REP Railroad Commissioner                               UNDER VOTES                           Precinct 8                                             01 
00130040009000011000000000005000006000000000000000000000000000000000000000000000000000000000000000000          REP Railroad Commissioner                               UNDER VOTES                           Precinct 9                                             01 
00140010001000360000009000103000248000000000000000000000000000000000000000000000000000000000000000000REP       REP Chief Justice, Supreme Court                        Nathan Hecht                          Precinct 1                                             01 
00140010002000687000012000379000296000000000000000000000000000000000000000000000000000000000000000000REP       REP Chief Justice, Supreme Court                        Nathan Hecht                          Precinct 2                                             01 
00140010003000270000006000136000128000000000000000000000000000000000000000000000000000000000000000000REP       REP Chief Justice, Supreme Court                        Nathan Hecht                          Precinct 3                                             01 
00140010004000213000001000107000105000000000000000000000000000000000000000000000000000000000000000000REP       REP Chief Justice, Supreme Court                        Nathan Hecht                          Precinct 4                                             01 
00140010005000181000003000107000071000000000000000000000000000000000000000000000000000000000000000000REP       REP Chief Justice, Supreme Court                        Nathan Hecht                          Precinct 5                                             01 
00140010006000141000000000074000067000000000000000000000000000000000000000000000000000000000000000000REP       REP Chief Justice, Supreme Court                        Nathan Hecht                          Precinct 6                                             01 
00140010007000227000003000045000179000000000000000000000000000000000000000000000000000000000000000000REP       REP Chief Justice, Supreme Court                        Nathan Hecht                          Precinct 7                                             01 
00140010008000316000004000107000205000000000000000000000000000000000000000000000000000000000000000000REP       REP Chief Justice, Supreme Court                        Nathan Hecht                          Precinct 8                                             01 
00140010009000387000004000161000222000000000000000000000000000000000000000000000000000000000000000000REP       REP Chief Justice, Supreme Court                        Nathan Hecht                          Precinct 9                                             01 
00140020001000000000000000000000000000000000000000000000000000000000000000000000000000000000000000000          REP Chief Justice, Supreme Court                        OVER VOTES                            Precinct 1                                             01 
00140020002000000000000000000000000000000000000000000000000000000000000000000000000000000000000000000          REP Chief Justice, Supreme Court                        OVER VOTES                            Precinct 2                                             01 
00140020003000000000000000000000000000000000000000000000000000000000000000000000000000000000000000000          REP Chief Justice, Supreme Court                        OVER VOTES                            Precinct 3                                             01 
00140020004000000000000000000000000000000000000000000000000000000000000000000000000000000000000000000          REP Chief Justice, Supreme Court                        OVER VOTES                            Precinct 4                                             01 
00140020005000000000000000000000000000000000000000000000000000000000000000000000000000000000000000000          REP Chief Justice, Supreme Court                        OVER VOTES                            Precinct 5                                             01 
00140020006000000000000000000000000000000000000000000000000000000000000000000000000000000000000000000          REP Chief Justice, Supreme Court                        OVER VOTES                            Precinct 6                                             01 
00140020007000000000000000000000000000000000000000000000000000000000000000000000000000000000000000000          REP Chief Justice, Supreme Court                        OVER VOTES                            Precinct 7                                             01 
00140020008000000000000000000000000000000000000000000000000000000000000000000000000000000000000000000          REP Chief Justice, Supreme Court                        OVER VOTES                            Precinct 8                                             01 
00140020009000000000000000000000000000000000000000000000000000000000000000000000000000000000000000000          REP Chief Justice, Supreme Court                        OVER VOTES                            Precinct 9                                             01 
00140030001000016000003000005000008000000000000000000000000000000000000000000000000000000000000000000          REP Chief Justice, Supreme Court                        UNDER VOTES                           Precinct 1                                             01 
00140030002000061000004000032000025000000000000000000000000000000000000000000000000000000000000000000          REP Chief Justice, Supreme Court                        UNDER VOTES                           Precinct 2                                             01 
00140030003000021000001000014000006000000000000000000000000000000000000000000000000000000000000000000          REP Chief Justice, Supreme Court                        UNDER VOTES                           Precinct 3                                             01 
00140030004000018000000000011000007000000000000000000000000000000000000000000000000000000000000000000          REP Chief Justice, Supreme Court                        UNDER VOTES                           Precinct 4                                             01 
00140030005000011000000000004000007000000000000000000000000000000000000000000000000000000000000000000          REP Chief Justice, Supreme Court                        UNDER VOTES                           Precinct 5                                             01 
00140030006000016000000000005000011000000000000000000000000000000000000000000000000000000000000000000          REP Chief Justice, Supreme Court                        UNDER VOTES                           Precinct 6                                             01 
00140030007000023000000000004000019000000000000000000000000000000000000000000000000000000000000000000          REP Chief Justice, Supreme Court                        UNDER VOTES                           Precinct 7                                             01 
00140030008000023000000000011000012000000000000000000000000000000000000000000000000000000000000000000          REP Chief Justice, Supreme Court                        UNDER VOTES                           Precinct 8                                             01 
00140030009000015000000000009000006000000000000000000000000000000000000000000000000000000000000000000          REP Chief Justice, Supreme Court                        UNDER VOTES                           Precinct 9                                             01 
00150010001000362000009000103000250000000000000000000000000000000000000000000000000000000000000000000REP       REP Justice, Supreme Court, Pl 6                        Jane Bland                            Precinct 1                                             01 
00150010002000683000012000375000296000000000000000000000000000000000000000000000000000000000000000000REP       REP Justice, Supreme Court, Pl 6                        Jane Bland                            Precinct 2                                             01 
00150010003000270000006000136000128000000000000000000000000000000000000000000000000000000000000000000REP       REP Justice, Supreme Court, Pl 6                        Jane Bland                            Precinct 3                                             01 
00150010004000216000001000110000105000000000000000000000000000000000000000000000000000000000000000000REP       REP Justice, Supreme Court, Pl 6                        Jane Bland                            Precinct 4                                             01 
00150010005000181000003000105000073000000000000000000000000000000000000000000000000000000000000000000REP       REP Justice, Supreme Court, Pl 6                        Jane Bland                            Precinct 5                                             01 
00150010006000138000000000071000067000000000000000000000000000000000000000000000000000000000000000000REP       REP Justice, Supreme Court, Pl 6                        Jane Bland                            Precinct 6                                             01 
00150010007000226000003000046000177000000000000000000000000000000000000000000000000000000000000000000REP       REP Justice, Supreme Court, Pl 6                        Jane Bland                            Precinct 7                                             01 
00150010008000316000004000108000204000000000000000000000000000000000000000000000000000000000000000000REP       REP Justice, Supreme Court, Pl 6                        Jane Bland                            Precinct 8                                             01 
00150010009000389000004000162000223000000000000000000000000000000000000000000000000000000000000000000REP       REP Justice, Supreme Court, Pl 6                        Jane Bland                            Precinct 9                                             01 
00150020001000000000000000000000000000000000000000000000000000000000000000000000000000000000000000000          REP Justice, Supreme Court, Pl 6                        OVER VOTES                            Precinct 1                                             01 
00150020002000000000000000000000000000000000000000000000000000000000000000000000000000000000000000000          REP Justice, Supreme Court, Pl 6                        OVER VOTES                            Precinct 2                                             01 
00150020003000000000000000000000000000000000000000000000000000000000000000000000000000000000000000000          REP Justice, Supreme Court, Pl 6                        OVER VOTES                            Precinct 3                                             01 
00150020004000000000000000000000000000000000000000000000000000000000000000000000000000000000000000000          REP Justice, Supreme Court, Pl 6                        OVER VOTES                            Precinct 4                                             01 
00150020005000000000000000000000000000000000000000000000000000000000000000000000000000000000000000000          REP Justice, Supreme Court, Pl 6                        OVER VOTES                            Precinct 5                                             01 
00150020006000000000000000000000000000000000000000000000000000000000000000000000000000000000000000000          REP Justice, Supreme Court, Pl 6                        OVER VOTES                            Precinct 6                                             01 
00150020007000000000000000000000000000000000000000000000000000000000000000000000000000000000000000000          REP Justice, Supreme Court, Pl 6                        OVER VOTES                            Precinct 7                                             01 
00150020008000000000000000000000000000000000000000000000000000000000000000000000000000000000000000000          REP Justice, Supreme Court, Pl 6                        OVER VOTES                            Precinct 8                                             01 
00150020009000000000000000000000000000000000000000000000000000000000000000000000000000000000000000000          REP Justice, Supreme Court, Pl 6                        OVER VOTES                            Precinct 9                                             01 
00150030001000014000003000005000006000000000000000000000000000000000000000000000000000000000000000000          REP Justice, Supreme Court, Pl 6                        UNDER VOTES                           Precinct 1                                             01 
00150030002000065000004000036000025000000000000000000000000000000000000000000000000000000000000000000          REP Justice, Supreme Court, Pl 6                        UNDER VOTES                           Precinct 2                                             01 
00150030003000021000001000014000006000000000000000000000000000000000000000000000000000000000000000000          REP Justice, Supreme Court, Pl 6                        UNDER VOTES                           Precinct 3                                             01 
00150030004000015000000000008000007000000000000000000000000000000000000000000000000000000000000000000          REP Justice, Supreme Court, Pl 6                        UNDER VOTES                           Precinct 4                                             01 
00150030005000011000000000006000005000000000000000000000000000000000000000000000000000000000000000000          REP Justice, Supreme Court, Pl 6                        UNDER VOTES                           Precinct 5                                             01 
00150030006000019000000000008000011000000000000000000000000000000000000000000000000000000000000000000          REP Justice, Supreme Court, Pl 6                        UNDER VOTES                           Precinct 6                                             01 
00150030007000024000000000003000021000000000000000000000000000000000000000000000000000000000000000000          REP Justice, Supreme Court, Pl 6                        UNDER VOTES                           Precinct 7                                             01 
00150030008000023000000000010000013000000000000000000000000000000000000000000000000000000000000000000          REP Justice, Supreme Court, Pl 6                        UNDER VOTES                           Precinct 8                                             01 
00150030009000013000000000008000005000000000000000000000000000000000000000000000000000000000000000000          REP Justice, Supreme Court, Pl 6                        UNDER VOTES                           Precinct 9                                             01 
00160010001000357000009000102000246000000000000000000000000000000000000000000000000000000000000000000REP       REP Justice, Supreme Court, Pl 7                        Jeff Boyd                             Precinct 1                                             01 
00160010002000683000012000374000297000000000000000000000000000000000000000000000000000000000000000000REP       REP Justice, Supreme Court, Pl 7                        Jeff Boyd                             Precinct 2                                             01 
00160010003000268000006000135000127000000000000000000000000000000000000000000000000000000000000000000REP       REP Justice, Supreme Court, Pl 7                        Jeff Boyd                             Precinct 3                                             01 
00160010004000215000001000109000105000000000000000000000000000000000000000000000000000000000000000000REP       REP Justice, Supreme Court, Pl 7                        Jeff Boyd                             Precinct 4                                             01 
00160010005000181000003000107000071000000000000000000000000000000000000000000000000000000000000000000REP       REP Justice, Supreme Court, Pl 7                        Jeff Boyd                             Precinct 5                                             01 
00160010006000139000000000072000067000000000000000000000000000000000000000000000000000000000000000000REP       REP Justice, Supreme Court, Pl 7                        Jeff Boyd                             Precinct 6                                             01 
00160010007000228000003000046000179000000000000000000000000000000000000000000000000000000000000000000REP       REP Justice, Supreme Court, Pl 7                        Jeff Boyd                             Precinct 7                                             01 
00160010008000317000004000106000207000000000000000000000000000000000000000000000000000000000000000000REP       REP Justice, Supreme Court, Pl 7                        Jeff Boyd                             Precinct 8                                             01 
00160010009000385000004000161000220000000000000000000000000000000000000000000000000000000000000000000REP       REP Justice, Supreme Court, Pl 7                        Jeff Boyd                             Precinct 9                                             01 
00160020001000000000000000000000000000000000000000000000000000000000000000000000000000000000000000000          REP Justice, Supreme Court, Pl 7                        OVER VOTES                            Precinct 1                                             01 
00160020002000000000000000000000000000000000000000000000000000000000000000000000000000000000000000000          REP Justice, Supreme Court, Pl 7                        OVER VOTES                            Precinct 2                                             01 
00160020003000000000000000000000000000000000000000000000000000000000000000000000000000000000000000000          REP Justice, Supreme Court, Pl 7                        OVER VOTES                            Precinct 3                                             01 
00160020004000000000000000000000000000000000000000000000000000000000000000000000000000000000000000000          REP Justice, Supreme Court, Pl 7                        OVER VOTES                            Precinct 4                                             01 
00160020005000000000000000000000000000000000000000000000000000000000000000000000000000000000000000000          REP Justice, Supreme Court, Pl 7                        OVER VOTES                            Precinct 5                                             01 
00160020006000000000000000000000000000000000000000000000000000000000000000000000000000000000000000000          REP Justice, Supreme Court, Pl 7                        OVER VOTES                            Precinct 6                                             01 
00160020007000000000000000000000000000000000000000000000000000000000000000000000000000000000000000000          REP Justice, Supreme Court, Pl 7                        OVER VOTES                            Precinct 7                                             01 
00160020008000000000000000000000000000000000000000000000000000000000000000000000000000000000000000000          REP Justice, Supreme Court, Pl 7                        OVER VOTES                            Precinct 8                                             01 
