01010010001002850000000000000000000000000000000          REGISTERED VOTERS - TOTAL                               REGISTERED VOTERS - TOTAL             Precinct 1                                             00 
01010010002000713000000000000000000000000000000          REGISTERED VOTERS - TOTAL                               REGISTERED VOTERS - TOTAL             Precinct 8                                             00 
01010010003000765000000000000000000000000000000          REGISTERED VOTERS - TOTAL                               REGISTERED VOTERS - TOTAL             Precinct 16                                            00 
01010010004000741000000000000000000000000000000          REGISTERED VOTERS - TOTAL                               REGISTERED VOTERS - TOTAL             Precinct 19                                            00 
01010010005001256000000000000000000000000000000          REGISTERED VOTERS - TOTAL                               REGISTERED VOTERS - TOTAL             Precinct 23                                            00 
01010010006002745000000000000000000000000000000          REGISTERED VOTERS - TOTAL                               REGISTERED VOTERS - TOTAL             Precinct 29                                            00 
01010010007002134000000000000000000000000000000          REGISTERED VOTERS - TOTAL                               REGISTERED VOTERS - TOTAL             Precinct 30                                            00 
01010010008001391000000000000000000000000000000          REGISTERED VOTERS - TOTAL                               REGISTERED VOTERS - TOTAL             Precinct 31                                            00 
01010010009000661000000000000000000000000000000          REGISTERED VOTERS - TOTAL                               REGISTERED VOTERS - TOTAL             Precinct 32                                            00 
01020010001001083000067000270000265000194000287          BALLOTS CAST - TOTAL                                    BALLOTS CAST - TOTAL                  Precinct 1                                             00 
01020010002000297000017000058000035000068000119          BALLOTS CAST - TOTAL                                    BALLOTS CAST - TOTAL                  Precinct 8                                             00 
01020010003000236000015000037000036000067000081          BALLOTS CAST - TOTAL                                    BALLOTS CAST - TOTAL                  Precinct 16                                            00 
01020010004000291000025000099000062000046000059          BALLOTS CAST - TOTAL                                    BALLOTS CAST - TOTAL                  Precinct 19                                            00 
01020010005000405000043000043000031000091000197          BALLOTS CAST - TOTAL                                    BALLOTS CAST - TOTAL                  Precinct 23                                            00 
01020010006001079000108000106000100000275000490          BALLOTS CAST - TOTAL                                    BALLOTS CAST - TOTAL                  Precinct 29                                            00 
01020010007000474000053000032000042000148000199          BALLOTS CAST - TOTAL                                    BALLOTS CAST - TOTAL                  Precinct 30                                            00 
01020010008000543000050000129000124000141000099          BALLOTS CAST - TOTAL                                    BALLOTS CAST - TOTAL                  Precinct 31                                            00 
01020010009000220000017000032000024000066000081          BALLOTS CAST - TOTAL                                    BALLOTS CAST - TOTAL                  Precinct 32                                            00 
01030010001000956000048000251000241000167000249REP       BALLOTS CAST - REPUBLICAN PARTY                         BALLOTS CAST - REPUBLICAN PARTY       Precinct 1                                             00 
01030010002000262000011000056000029000062000104REP       BALLOTS CAST - REPUBLICAN PARTY                         BALLOTS CAST - REPUBLICAN PARTY       Precinct 8                                             00 
01030010003000208000012000034000034000055000073REP       BALLOTS CAST - REPUBLICAN PARTY                         BALLOTS CAST - REPUBLICAN PARTY       Precinct 16                                            00 
01030010004000255000017000090000054000040000054REP       BALLOTS CAST - REPUBLICAN PARTY                         BALLOTS CAST - REPUBLICAN PARTY       Precinct 19                                            00 
01030010005000356000024000040000029000083000180REP       BALLOTS CAST - REPUBLICAN PARTY                         BALLOTS CAST - REPUBLICAN PARTY       Precinct 23                                            00 
01030010006000952000072000101000089000251000439REP       BALLOTS CAST - REPUBLICAN PARTY                         BALLOTS CAST - REPUBLICAN PARTY       Precinct 29                                            00 
01030010007000404000041000029000034000131000169REP       BALLOTS CAST - REPUBLICAN PARTY                         BALLOTS CAST - REPUBLICAN PARTY       Precinct 30                                            00 
01030010008000470000036000122000104000128000080REP       BALLOTS CAST - REPUBLICAN PARTY                         BALLOTS CAST - REPUBLICAN PARTY       Precinct 31                                            00 
01030010009000198000012000031000024000062000069REP       BALLOTS CAST - REPUBLICAN PARTY                         BALLOTS CAST - REPUBLICAN PARTY       Precinct 32                                            00 
01040010001000127000019000019000024000027000038DEM       BALLOTS CAST - DEMOCRATIC PARTY                         BALLOTS CAST - DEMOCRATIC PARTY       Precinct 1                                             00 
01040010002000035000006000002000006000006000015DEM       BALLOTS CAST - DEMOCRATIC PARTY                         BALLOTS CAST - DEMOCRATIC PARTY       Precinct 8                                             00 
01040010003000028000003000003000002000012000008DEM       BALLOTS CAST - DEMOCRATIC PARTY                         BALLOTS CAST - DEMOCRATIC PARTY       Precinct 16                                            00 
01040010004000036000008000009000008000006000005DEM       BALLOTS CAST - DEMOCRATIC PARTY                         BALLOTS CAST - DEMOCRATIC PARTY       Precinct 19                                            00 
01040010005000049000019000003000002000008000017DEM       BALLOTS CAST - DEMOCRATIC PARTY                         BALLOTS CAST - DEMOCRATIC PARTY       Precinct 23                                            00 
01040010006000127000036000005000011000024000051DEM       BALLOTS CAST - DEMOCRATIC PARTY                         BALLOTS CAST - DEMOCRATIC PARTY       Precinct 29                                            00 
01040010007000070000012000003000008000017000030DEM       BALLOTS CAST - DEMOCRATIC PARTY                         BALLOTS CAST - DEMOCRATIC PARTY       Precinct 30                                            00 
01040010008000073000014000007000020000013000019DEM       BALLOTS CAST - DEMOCRATIC PARTY                         BALLOTS CAST - DEMOCRATIC PARTY       Precinct 31                                            00 
01040010009000022000005000001000000000004000012DEM       BALLOTS CAST - DEMOCRATIC PARTY                         BALLOTS CAST - DEMOCRATIC PARTY       Precinct 32                                            00 
01050010001000918000047000240000230000164000237REP       President                                               Donald J. Trump                       Precinct 1                                             01 
01050010002000254000011000054000028000060000101REP       President                                               Donald J. Trump                       Precinct 8                                             01 
01050010003000201000012000034000033000055000067REP       President                                               Donald J. Trump                       Precinct 16                                            01 
01050010004000248000017000089000053000038000051REP       President                                               Donald J. Trump                       Precinct 19                                            01 
01050010005000346000023000039000029000081000174REP       President                                               Donald J. Trump                       Precinct 23                                            01 
01050010006000888000063000094000087000238000406REP       President                                               Donald J. Trump                       Precinct 29                                            01 
01050010007000388000039000027000032000127000163REP       President                                               Donald J. Trump                       Precinct 30                                            01 
01050010008000466000036000121000103000127000079REP       President                                               Donald J. Trump                       Precinct 31                                            01 
01050010009000190000012000031000023000060000064REP       President                                               Donald J. Trump                       Precinct 32                                            01 
01050020001000002000001000001000000000000000000REP       President                                               Bob Ely                               Precinct 1                                             01 
01050020002000000000000000000000000000000000000REP       President                                               Bob Ely                               Precinct 8                                             01 
01050020003000001000000000000000000000000000001REP       President                                               Bob Ely                               Precinct 16                                            01 
01050020004000002000000000001000000000001000000REP       President                                               Bob Ely                               Precinct 19                                            01 
01050020005000000000000000000000000000000000000REP       President                                               Bob Ely                               Precinct 23                                            01 
01050020006000000000000000000000000000000000000REP       President                                               Bob Ely                               Precinct 29                                            01 
01050020007000000000000000000000000000000000000REP       President                                               Bob Ely                               Precinct 30                                            01 
01050020008000000000000000000000000000000000000REP       President                                               Bob Ely                               Precinct 31                                            01 
01050020009000000000000000000000000000000000000REP       President                                               Bob Ely                               Precinct 32                                            01 
01050030001000003000000000000000001000000000002REP       President                                               Joe Walsh                             Precinct 1                                             01 
01050030002000001000000000000000000000001000000REP       President                                               Joe Walsh                             Precinct 8                                             01 
01050030003000000000000000000000000000000000000REP       President                                               Joe Walsh                             Precinct 16                                            01 
01050030004000000000000000000000000000000000000REP       President                                               Joe Walsh                             Precinct 19                                            01 
01050030005000001000000000000000000000000000001REP       President                                               Joe Walsh                             Precinct 23                                            01 
01050030006000005000001000002000000000000000002REP       President                                               Joe Walsh                             Precinct 29                                            01 
01050030007000001000000000000000000000001000000REP       President                                               Joe Walsh                             Precinct 30                                            01 
01050030008000001000000000000000001000000000000REP       President                                               Joe Walsh                             Precinct 31                                            01 
01050030009000000000000000000000000000000000000REP       President                                               Joe Walsh                             Precinct 32                                            01 
01050040001000000000000000000000000000000000000REP       President                                               Roque "Rocky" De La Fuente Guerra     Precinct 1                                             01 
01050040002000000000000000000000000000000000000REP       President                                               Roque "Rocky" De La Fuente Guerra     Precinct 8                                             01 
01050040003000000000000000000000000000000000000REP       President                                               Roque "Rocky" De La Fuente Guerra     Precinct 16                                            01 
01050040004000000000000000000000000000000000000REP       President                                               Roque "Rocky" De La Fuente Guerra     Precinct 19                                            01 
01050040005000001000000000000000000000000000001REP       President                                               Roque "Rocky" De La Fuente Guerra     Precinct 23                                            01 
01050040006000003000000000000000001000001000001REP       President                                               Roque "Rocky" De La Fuente Guerra     Precinct 29                                            01 
01050040007000002000000000000000000000000000002REP       President                                               Roque "Rocky" De La Fuente Guerra     Precinct 30                                            01 
01050040008000000000000000000000000000000000000REP       President                                               Roque "Rocky" De La Fuente Guerra     Precinct 31                                            01 
01050040009000000000000000000000000000000000000REP       President                                               Roque "Rocky" De La Fuente Guerra     Precinct 32                                            01 
01050050001000000000000000000000000000000000000REP       President                                               Matthew John Matern                   Precinct 1                                             01 
01050050002000000000000000000000000000000000000REP       President                                               Matthew John Matern                   Precinct 8                                             01 
01050050003000000000000000000000000000000000000REP       President                                               Matthew John Matern                   Precinct 16                                            01 
01050050004000000000000000000000000000000000000REP       President                                               Matthew John Matern                   Precinct 19                                            01 
01050050005000000000000000000000000000000000000REP       President                                               Matthew John Matern                   Precinct 23                                            01 
01050050006000000000000000000000000000000000000REP       President                                               Matthew John Matern                   Precinct 29                                            01 
01050050007000002000000000000000000000000000002REP       President                                               Matthew John Matern                   Precinct 30                                            01 
01050050008000000000000000000000000000000000000REP       President                                               Matthew John Matern                   Precinct 31                                            01 
01050050009000000000000000000000000000000000000REP       President                                               Matthew John Matern                   Precinct 32                                            01 
01050060001000006000000000000000004000000000002REP       President                                               Bill Weld                             Precinct 1                                             01 
01050060002000001000000000000000001000000000000REP       President                                               Bill Weld                             Precinct 8                                             01 
01050060003000003000000000000000000000000000003REP       President                                               Bill Weld                             Precinct 16                                            01 
01050060004000000000000000000000000000000000000REP       President                                               Bill Weld                             Precinct 19                                            01 
01050060005000001000000000000000000000001000000REP       President                                               Bill Weld                             Precinct 23                                            01 
01050060006000004000000000000000000000001000003REP       President                                               Bill Weld                             Precinct 29                                            01 
01050060007000001000000000001000000000000000000REP       President                                               Bill Weld                             Precinct 30                                            01 
01050060008000000000000000000000000000000000000REP       President                                               Bill Weld                             Precinct 31                                            01 
01050060009000001000000000000000000000000000001REP       President                                               Bill Weld                             Precinct 32                                            01 
01050070001000000000000000000000000000000000000REP       President                                               Zoltan G. Istvan                      Precinct 1                                             01 
01050070002000000000000000000000000000000000000REP       President                                               Zoltan G. Istvan                      Precinct 8                                             01 
01050070003000000000000000000000000000000000000REP       President                                               Zoltan G. Istvan                      Precinct 16                                            01 
01050070004000000000000000000000000000000000000REP       President                                               Zoltan G. Istvan                      Precinct 19                                            01 
01050070005000000000000000000000000000000000000REP       President                                               Zoltan G. Istvan                      Precinct 23                                            01 
01050070006000000000000000000000000000000000000REP       President                                               Zoltan G. Istvan                      Precinct 29                                            01 
01050070007000000000000000000000000000000000000REP       President                                               Zoltan G. Istvan                      Precinct 30                                            01 
01050070008000000000000000000000000000000000000REP       President                                               Zoltan G. Istvan                      Precinct 31                                            01 
01050070009000000000000000000000000000000000000REP       President                                               Zoltan G. Istvan                      Precinct 32                                            01 
01050080001000017000000000007000002000003000005REP       President                                               Uncommitted                           Precinct 1                                             01 
01050080002000003000000000001000000000000000002REP       President                                               Uncommitted                           Precinct 8                                             01 
01050080003000002000000000000000001000000000001REP       President                                               Uncommitted                           Precinct 16                                            01 
01050080004000001000000000000000000000000000001REP       President                                               Uncommitted                           Precinct 19                                            01 
01050080005000006000001000001000000000001000003REP       President                                               Uncommitted                           Precinct 23                                            01 
01050080006000031000005000003000001000010000012REP       President                                               Uncommitted                           Precinct 29                                            01 
01050080007000007000002000001000002000001000001REP       President                                               Uncommitted                           Precinct 30                                            01 
01050080008000003000000000001000000000001000001REP       President                                               Uncommitted                           Precinct 31                                            01 
01050080009000002000000000000000000000001000001REP       President                                               Uncommitted                           Precinct 32                                            01 
01050090001000001000000000000000000000000000001REP       President                                               OVER VOTES                            Precinct 1                                             01 
01050090002000000000000000000000000000000000000REP       President                                               OVER VOTES                            Precinct 8                                             01 
01050090003000000000000000000000000000000000000REP       President                                               OVER VOTES                            Precinct 16                                            01 
01050090004000000000000000000000000000000000000REP       President                                               OVER VOTES                            Precinct 19                                            01 
01050090005000000000000000000000000000000000000REP       President                                               OVER VOTES                            Precinct 23                                            01 
01050090006000000000000000000000000000000000000REP       President                                               OVER VOTES                            Precinct 29                                            01 
01050090007000000000000000000000000000000000000REP       President                                               OVER VOTES                            Precinct 30                                            01 
01050090008000000000000000000000000000000000000REP       President                                               OVER VOTES                            Precinct 31                                            01 
01050090009000000000000000000000000000000000000REP       President                                               OVER VOTES                            Precinct 32                                            01 
01050100001000009000000000003000004000000000002REP       President                                               UNDER VOTES                           Precinct 1                                             01 
01050100002000003000000000001000000000001000001REP       President                                               UNDER VOTES                           Precinct 8                                             01 
01050100003000001000000000000000000000000000001REP       President                                               UNDER VOTES                           Precinct 16                                            01 
01050100004000004000000000000000001000001000002REP       President                                               UNDER VOTES                           Precinct 19                                            01 
01050100005000001000000000000000000000000000001REP       President                                               UNDER VOTES                           Precinct 23                                            01 
01050100006000021000003000002000000000001000015REP       President                                               UNDER VOTES                           Precinct 29                                            01 
01050100007000003000000000000000000000002000001REP       President                                               UNDER VOTES                           Precinct 30                                            01 
01050100008000000000000000000000000000000000000REP       President                                               UNDER VOTES                           Precinct 31                                            01 
01050100009000005000000000000000001000001000003REP       President                                               UNDER VOTES                           Precinct 32                                            01 
01060010001000674000044000172000168000126000164REP       United States Senator                                   John Cornyn                           Precinct 1                                             01 
01060010002000187000009000043000020000051000064REP       United States Senator                                   John Cornyn                           Precinct 8                                             01 
01060010003000155000010000023000024000041000057REP       United States Senator                                   John Cornyn                           Precinct 16                                            01 
01060010004000172000017000069000022000029000035REP       United States Senator                                   John Cornyn                           Precinct 19                                            01 
01060010005000273000024000026000022000066000135REP       United States Senator                                   John Cornyn                           Precinct 23                                            01 
01060010006000670000057000074000064000159000316REP       United States Senator                                   John Cornyn                           Precinct 29                                            01 
01060010007000301000036000023000025000091000126REP       United States Senator                                   John Cornyn                           Precinct 30                                            01 
01060010008000355000028000093000078000094000062REP       United States Senator                                   John Cornyn                           Precinct 31                                            01 
01060010009000141000010000017000011000052000051REP       United States Senator                                   John Cornyn                           Precinct 32                                            01 
01060020001000022000000000004000006000004000008REP       United States Senator                                   John Anthony Castro                   Precinct 1                                             01 
01060020002000005000000000002000000000001000002REP       United States Senator                                   John Anthony Castro                   Precinct 8                                             01 
01060020003000005000000000001000000000000000004REP       United States Senator                                   John Anthony Castro                   Precinct 16                                            01 
01060020004000001000000000000000000000000000001REP       United States Senator                                   John Anthony Castro                   Precinct 19                                            01 
01060020005000010000000000001000001000004000004REP       United States Senator                                   John Anthony Castro                   Precinct 23                                            01 
01060020006000020000001000002000000000007000010REP       United States Senator                                   John Anthony Castro                   Precinct 29                                            01 
01060020007000009000000000000000001000006000002REP       United States Senator                                   John Anthony Castro                   Precinct 30                                            01 
01060020008000011000000000001000004000004000002REP       United States Senator                                   John Anthony Castro                   Precinct 31                                            01 
01060020009000001000000000001000000000000000000REP       United States Senator                                   John Anthony Castro                   Precinct 32                                            01 
01060030001000002000000000001000001000000000000REP       United States Senator                                   Virgil Bierschwale                    Precinct 1                                             01 
01060030002000003000000000000000001000000000002REP       United States Senator                                   Virgil Bierschwale                    Precinct 8                                             01 
01060030003000000000000000000000000000000000000REP       United States Senator                                   Virgil Bierschwale                    Precinct 16                                            01 
01060030004000002000000000002000000000000000000REP       United States Senator                                   Virgil Bierschwale                    Precinct 19                                            01 
01060030005000000000000000000000000000000000000REP       United States Senator                                   Virgil Bierschwale                    Precinct 23                                            01 
01060030006000008000000000000000000000003000005REP       United States Senator                                   Virgil Bierschwale                    Precinct 29                                            01 
01060030007000001000001000000000000000000000000REP       United States Senator                                   Virgil Bierschwale                    Precinct 30                                            01 
01060030008000004000000000001000000000002000001REP       United States Senator                                   Virgil Bierschwale                    Precinct 31                                            01 
01060030009000001000000000001000000000000000000REP       United States Senator                                   Virgil Bierschwale                    Precinct 32                                            01 
01060040001000042000000000012000011000005000014REP       United States Senator                                   Mark Yancey                           Precinct 1                                             01 
01060040002000007000000000000000000000002000005REP       United States Senator                                   Mark Yancey                           Precinct 8                                             01 
01060040003000008000000000002000001000002000003REP       United States Senator                                   Mark Yancey                           Precinct 16                                            01 
01060040004000010000000000004000000000002000004REP       United States Senator                                   Mark Yancey                           Precinct 19                                            01 
01060040005000013000000000003000000000003000007REP       United States Senator                                   Mark Yancey                           Precinct 23                                            01 
01060040006000054000004000006000001000012000031REP       United States Senator                                   Mark Yancey                           Precinct 29                                            01 
01060040007000021000000000003000001000009000008REP       United States Senator                                   Mark Yancey                           Precinct 30                                            01 
01060040008000019000000000004000005000007000003REP       United States Senator                                   Mark Yancey                           Precinct 31                                            01 
01060040009000013000001000002000002000003000005REP       United States Senator                                   Mark Yancey                           Precinct 32                                            01 
01060050001000146000004000045000043000019000035REP       United States Senator                                   Dwayne Stovall                        Precinct 1                                             01 
01060050002000042000002000005000006000006000023REP       United States Senator                                   Dwayne Stovall                        Precinct 8                                             01 
01060050003000027000002000007000006000008000004REP       United States Senator                                   Dwayne Stovall                        Precinct 16                                            01 
01060050004000053000000000013000026000005000009REP       United States Senator                                   Dwayne Stovall                        Precinct 19                                            01 
01060050005000037000000000008000005000008000016REP       United States Senator                                   Dwayne Stovall                        Precinct 23                                            01 
01060050006000123000004000014000017000046000042REP       United States Senator                                   Dwayne Stovall                        Precinct 29                                            01 
01060050007000057000004000002000007000017000027REP       United States Senator                                   Dwayne Stovall                        Precinct 30                                            01 
01060050008000054000006000015000016000010000007REP       United States Senator                                   Dwayne Stovall                        Precinct 31                                            01 
01060050009000028000000000007000009000003000009REP       United States Senator                                   Dwayne Stovall                        Precinct 32                                            01 
01060060001000000000000000000000000000000000000REP       United States Senator                                   OVER VOTES                            Precinct 1                                             01 
01060060002000000000000000000000000000000000000REP       United States Senator                                   OVER VOTES                            Precinct 8                                             01 
01060060003000000000000000000000000000000000000REP       United States Senator                                   OVER VOTES                            Precinct 16                                            01 
01060060004000000000000000000000000000000000000REP       United States Senator                                   OVER VOTES                            Precinct 19                                            01 
01060060005000000000000000000000000000000000000REP       United States Senator                                   OVER VOTES                            Precinct 23                                            01 
01060060006000000000000000000000000000000000000REP       United States Senator                                   OVER VOTES                            Precinct 29                                            01 
01060060007000000000000000000000000000000000000REP       United States Senator                                   OVER VOTES                            Precinct 30                                            01 
01060060008000000000000000000000000000000000000REP       United States Senator                                   OVER VOTES                            Precinct 31                                            01 
01060060009000000000000000000000000000000000000REP       United States Senator                                   OVER VOTES                            Precinct 32                                            01 
01060070001000070000000000017000012000013000028REP       United States Senator                                   UNDER VOTES                           Precinct 1                                             01 
01060070002000018000000000006000002000002000008REP       United States Senator                                   UNDER VOTES                           Precinct 8                                             01 
01060070003000013000000000001000003000004000005REP       United States Senator                                   UNDER VOTES                           Precinct 16                                            01 
01060070004000017000000000002000006000004000005REP       United States Senator                                   UNDER VOTES                           Precinct 19                                            01 
01060070005000023000000000002000001000002000018REP       United States Senator                                   UNDER VOTES                           Precinct 23                                            01 
01060070006000077000006000005000007000024000035REP       United States Senator                                   UNDER VOTES                           Precinct 29                                            01 
01060070007000015000000000001000000000008000006REP       United States Senator                                   UNDER VOTES                           Precinct 30                                            01 
01060070008000027000002000008000001000011000005REP       United States Senator                                   UNDER VOTES                           Precinct 31                                            01 
01060070009000014000001000003000002000004000004REP       United States Senator                                   UNDER VOTES                           Precinct 32                                            01 
01070010001000817000046000226000194000148000203REP       US Representative, District 27                          Michael Cloud                         Precinct 1                                             01 
01070010002000222000009000048000024000055000086REP       US Representative, District 27                          Michael Cloud                         Precinct 8                                             01 
01070010003000181000011000033000032000049000056REP       US Representative, District 27                          Michael Cloud                         Precinct 16                                            01 
01070010004000221000017000078000047000035000044REP       US Representative, District 27                          Michael Cloud                         Precinct 19                                            01 
01070010005000305000022000037000027000070000149REP       US Representative, District 27                          Michael Cloud                         Precinct 23                                            01 
01070010006000809000060000093000072000215000369REP       US Representative, District 27                          Michael Cloud                         Precinct 29                                            01 
01070010007000375000037000028000033000123000154REP       US Representative, District 27                          Michael Cloud                         Precinct 30                                            01 
01070010008000417000031000106000091000115000074REP       US Representative, District 27                          Michael Cloud                         Precinct 31                                            01 
01070010009000169000009000028000021000054000057REP       US Representative, District 27                          Michael Cloud                         Precinct 32                                            01 
01070020001000000000000000000000000000000000000REP       US Representative, District 27                          OVER VOTES                            Precinct 1                                             01 
01070020002000000000000000000000000000000000000REP       US Representative, District 27                          OVER VOTES                            Precinct 8                                             01 
01070020003000000000000000000000000000000000000REP       US Representative, District 27                          OVER VOTES                            Precinct 16                                            01 
01070020004000000000000000000000000000000000000REP       US Representative, District 27                          OVER VOTES                            Precinct 19                                            01 
01070020005000000000000000000000000000000000000REP       US Representative, District 27                          OVER VOTES                            Precinct 23                                            01 
01070020006000000000000000000000000000000000000REP       US Representative, District 27                          OVER VOTES                            Precinct 29                                            01 
01070020007000000000000000000000000000000000000REP       US Representative, District 27                          OVER VOTES                            Precinct 30                                            01 
01070020008000000000000000000000000000000000000REP       US Representative, District 27                          OVER VOTES                            Precinct 31                                            01 
01070020009000000000000000000000000000000000000REP       US Representative, District 27                          OVER VOTES                            Precinct 32                                            01 
01070030001000139000002000025000047000019000046REP       US Representative, District 27                          UNDER VOTES                           Precinct 1                                             01 
01070030002000040000002000008000005000007000018REP       US Representative, District 27                          UNDER VOTES                           Precinct 8                                             01 
01070030003000027000001000001000002000006000017REP       US Representative, District 27                          UNDER VOTES                           Precinct 16                                            01 
01070030004000033000000000012000007000005000009REP       US Representative, District 27                          UNDER VOTES                           Precinct 19                                            01 
01070030005000051000002000003000002000013000031REP       US Representative, District 27                          UNDER VOTES                           Precinct 23                                            01 
01070030006000143000012000008000017000036000070REP       US Representative, District 27                          UNDER VOTES                           Precinct 29                                            01 
01070030007000029000004000001000001000008000015REP       US Representative, District 27                          UNDER VOTES                           Precinct 30                                            01 
01070030008000053000005000016000013000013000006REP       US Representative, District 27                          UNDER VOTES                           Precinct 31                                            01 
01070030009000029000003000003000003000008000012REP       US Representative, District 27                          UNDER VOTES                           Precinct 32                                            01 
01080010001000608000039000149000158000112000150REP       Railroad Commissioner                                   James "Jim" Wright                    Precinct 1                                             01 
01080010002000171000008000042000017000040000064REP       Railroad Commissioner                                   James "Jim" Wright                    Precinct 8                                             01 
01080010003000130000007000020000024000032000047REP       Railroad Commissioner                                   James "Jim" Wright                    Precinct 16                                            01 
01080010004000151000013000051000029000031000027REP       Railroad Commissioner                                   James "Jim" Wright                    Precinct 19                                            01 
01080010005000214000012000026000014000045000117REP       Railroad Commissioner                                   James "Jim" Wright                    Precinct 23                                            01 
01080010006000599000047000060000056000155000281REP       Railroad Commissioner                                   James "Jim" Wright                    Precinct 29                                            01 
01080010007000259000033000020000020000087000099REP       Railroad Commissioner                                   James "Jim" Wright                    Precinct 30                                            01 
01080010008000312000024000080000067000085000056REP       Railroad Commissioner                                   James "Jim" Wright                    Precinct 31                                            01 
01080010009000122000007000016000016000040000043REP       Railroad Commissioner                                   James "Jim" Wright                    Precinct 32                                            01 
01080020001000198000005000064000049000028000052REP       Railroad Commissioner                                   Ryan Sitton                           Precinct 1                                             01 
01080020002000063000002000007000008000015000031REP       Railroad Commissioner                                   Ryan Sitton                           Precinct 8                                             01 
01080020003000049000004000012000004000011000018REP       Railroad Commissioner                                   Ryan Sitton                           Precinct 16                                            01 
01080020004000072000004000029000018000005000016REP       Railroad Commissioner                                   Ryan Sitton                           Precinct 19                                            01 
01080020005000086000006000009000010000030000031REP       Railroad Commissioner                                   Ryan Sitton                           Precinct 23                                            01 
01080020006000196000013000026000022000055000080REP       Railroad Commissioner                                   Ryan Sitton                           Precinct 29                                            01 
01080020007000111000006000008000013000031000053REP       Railroad Commissioner                                   Ryan Sitton                           Precinct 30                                            01 
01080020008000094000009000025000025000021000014REP       Railroad Commissioner                                   Ryan Sitton                           Precinct 31                                            01 
01080020009000054000001000012000006000015000020REP       Railroad Commissioner                                   Ryan Sitton                           Precinct 32                                            01 
01080030001000000000000000000000000000000000000REP       Railroad Commissioner                                   OVER VOTES                            Precinct 1                                             01 
01080030002000000000000000000000000000000000000REP       Railroad Commissioner                                   OVER VOTES                            Precinct 8                                             01 
01080030003000000000000000000000000000000000000REP       Railroad Commissioner                                   OVER VOTES                            Precinct 16                                            01 
01080030004000000000000000000000000000000000000REP       Railroad Commissioner                                   OVER VOTES                            Precinct 19                                            01 
01080030005000000000000000000000000000000000000REP       Railroad Commissioner                                   OVER VOTES                            Precinct 23                                            01 
01080030006000000000000000000000000000000000000REP       Railroad Commissioner                                   OVER VOTES                            Precinct 29                                            01 
01080030007000000000000000000000000000000000000REP       Railroad Commissioner                                   OVER VOTES                            Precinct 30                                            01 
01080030008000000000000000000000000000000000000REP       Railroad Commissioner                                   OVER VOTES                            Precinct 31                                            01 
01080030009000000000000000000000000000000000000REP       Railroad Commissioner                                   OVER VOTES                            Precinct 32                                            01 
01080040001000150000004000038000034000027000047REP       Railroad Commissioner                                   UNDER VOTES                           Precinct 1                                             01 
01080040002000028000001000007000004000007000009REP       Railroad Commissioner                                   UNDER VOTES                           Precinct 8                                             01 
01080040003000029000001000002000006000012000008REP       Railroad Commissioner                                   UNDER VOTES                           Precinct 16                                            01 
01080040004000031000000000010000007000004000010REP       Railroad Commissioner                                   UNDER VOTES                           Precinct 19                                            01 
01080040005000056000006000005000005000008000032REP       Railroad Commissioner                                   UNDER VOTES                           Precinct 23                                            01 
01080040006000157000012000015000011000041000078REP       Railroad Commissioner                                   UNDER VOTES                           Precinct 29                                            01 
01080040007000034000002000001000001000013000017REP       Railroad Commissioner                                   UNDER VOTES                           Precinct 30                                            01 
01080040008000064000003000017000012000022000010REP       Railroad Commissioner                                   UNDER VOTES                           Precinct 31                                            01 
01080040009000022000004000003000002000007000006REP       Railroad Commissioner                                   UNDER VOTES                           Precinct 32                                            01 
01090010001000759000045000210000181000136000187REP       Chief Justice, Supreme Court                            Nathan Hecht                          Precinct 1                                             01 
01090010002000212000008000044000022000053000085REP       Chief Justice, Supreme Court                            Nathan Hecht                          Precinct 8                                             01 
01090010003000165000010000029000027000044000055REP       Chief Justice, Supreme Court                            Nathan Hecht                          Precinct 16                                            01 
01090010004000213000017000076000045000035000040REP       Chief Justice, Supreme Court                            Nathan Hecht                          Precinct 19                                            01 
01090010005000285000019000038000021000069000138REP       Chief Justice, Supreme Court                            Nathan Hecht                          Precinct 23                                            01 
01090010006000754000057000086000069000202000340REP       Chief Justice, Supreme Court                            Nathan Hecht                          Precinct 29                                            01 
01090010007000350000037000026000030000113000144REP       Chief Justice, Supreme Court                            Nathan Hecht                          Precinct 30                                            01 
01090010008000397000031000102000086000110000068REP       Chief Justice, Supreme Court                            Nathan Hecht                          Precinct 31                                            01 
01090010009000152000007000027000019000045000054REP       Chief Justice, Supreme Court                            Nathan Hecht                          Precinct 32                                            01 
01090020001000000000000000000000000000000000000REP       Chief Justice, Supreme Court                            OVER VOTES                            Precinct 1                                             01 
01090020002000000000000000000000000000000000000REP       Chief Justice, Supreme Court                            OVER VOTES                            Precinct 8                                             01 
01090020003000000000000000000000000000000000000REP       Chief Justice, Supreme Court                            OVER VOTES                            Precinct 16                                            01 
01090020004000000000000000000000000000000000000REP       Chief Justice, Supreme Court                            OVER VOTES                            Precinct 19                                            01 
01090020005000000000000000000000000000000000000REP       Chief Justice, Supreme Court                            OVER VOTES                            Precinct 23                                            01 
01090020006000000000000000000000000000000000000REP       Chief Justice, Supreme Court                            OVER VOTES                            Precinct 29                                            01 
01090020007000000000000000000000000000000000000REP       Chief Justice, Supreme Court                            OVER VOTES                            Precinct 30                                            01 
01090020008000000000000000000000000000000000000REP       Chief Justice, Supreme Court                            OVER VOTES                            Precinct 31                                            01 
01090020009000000000000000000000000000000000000REP       Chief Justice, Supreme Court                            OVER VOTES                            Precinct 32                                            01 
01090030001000197000003000041000060000031000062REP       Chief Justice, Supreme Court                            UNDER VOTES                           Precinct 1                                             01 
01090030002000050000003000012000007000009000019REP       Chief Justice, Supreme Court                            UNDER VOTES                           Precinct 8                                             01 
01090030003000043000002000005000007000011000018REP       Chief Justice, Supreme Court                            UNDER VOTES                           Precinct 16                                            01 
01090030004000041000000000014000009000005000013REP       Chief Justice, Supreme Court                            UNDER VOTES                           Precinct 19                                            01 
01090030005000071000005000002000008000014000042REP       Chief Justice, Supreme Court                            UNDER VOTES                           Precinct 23                                            01 
01090030006000198000015000015000020000049000099REP       Chief Justice, Supreme Court                            UNDER VOTES                           Precinct 29                                            01 
01090030007000054000004000003000004000018000025REP       Chief Justice, Supreme Court                            UNDER VOTES                           Precinct 30                                            01 
01090030008000073000005000020000018000018000012REP       Chief Justice, Supreme Court                            UNDER VOTES                           Precinct 31                                            01 
01090030009000046000005000004000005000017000015REP       Chief Justice, Supreme Court                            UNDER VOTES                           Precinct 32                                            01 
01100010001000748000045000202000180000136000185REP       Justice, Supreme Court, Pl 6                            Jane Bland                            Precinct 1                                             01 
01100010002000205000008000043000020000052000082REP       Justice, Supreme Court, Pl 6                            Jane Bland                            Precinct 8                                             01 
01100010003000163000010000029000026000043000055REP       Justice, Supreme Court, Pl 6                            Jane Bland                            Precinct 16                                            01 
01100010004000210000017000075000044000035000039REP       Justice, Supreme Court, Pl 6                            Jane Bland                            Precinct 19                                            01 
01100010005000276000018000036000021000067000134REP       Justice, Supreme Court, Pl 6                            Jane Bland                            Precinct 23                                            01 
01100010006000750000057000084000069000198000342REP       Justice, Supreme Court, Pl 6                            Jane Bland                            Precinct 29                                            01 
01100010007000353000037000026000030000113000147REP       Justice, Supreme Court, Pl 6                            Jane Bland                            Precinct 30                                            01 
01100010008000388000031000096000088000107000066REP       Justice, Supreme Court, Pl 6                            Jane Bland                            Precinct 31                                            01 
01100010009000153000007000026000020000045000055REP       Justice, Supreme Court, Pl 6                            Jane Bland                            Precinct 32                                            01 
01100020001000000000000000000000000000000000000REP       Justice, Supreme Court, Pl 6                            OVER VOTES                            Precinct 1                                             01 
01100020002000000000000000000000000000000000000REP       Justice, Supreme Court, Pl 6                            OVER VOTES                            Precinct 8                                             01 
01100020003000000000000000000000000000000000000REP       Justice, Supreme Court, Pl 6                            OVER VOTES                            Precinct 16                                            01 
01100020004000000000000000000000000000000000000REP       Justice, Supreme Court, Pl 6                            OVER VOTES                            Precinct 19                                            01 
01100020005000000000000000000000000000000000000REP       Justice, Supreme Court, Pl 6                            OVER VOTES                            Precinct 23                                            01 
01100020006000000000000000000000000000000000000REP       Justice, Supreme Court, Pl 6                            OVER VOTES                            Precinct 29                                            01 
01100020007000000000000000000000000000000000000REP       Justice, Supreme Court, Pl 6                            OVER VOTES                            Precinct 30                                            01 
01100020008000000000000000000000000000000000000REP       Justice, Supreme Court, Pl 6                            OVER VOTES                            Precinct 31                                            01 
01100020009000000000000000000000000000000000000REP       Justice, Supreme Court, Pl 6                            OVER VOTES                            Precinct 32                                            01 
01100030001000208000003000049000061000031000064REP       Justice, Supreme Court, Pl 6                            UNDER VOTES                           Precinct 1                                             01 
01100030002000057000003000013000009000010000022REP       Justice, Supreme Court, Pl 6                            UNDER VOTES                           Precinct 8                                             01 
01100030003000045000002000005000008000012000018REP       Justice, Supreme Court, Pl 6                            UNDER VOTES                           Precinct 16                                            01 
01100030004000044000000000015000010000005000014REP       Justice, Supreme Court, Pl 6                            UNDER VOTES                           Precinct 19                                            01 
01100030005000080000006000004000008000016000046REP       Justice, Supreme Court, Pl 6                            UNDER VOTES                           Precinct 23                                            01 
01100030006000202000015000017000020000053000097REP       Justice, Supreme Court, Pl 6                            UNDER VOTES                           Precinct 29                                            01 
01100030007000051000004000003000004000018000022REP       Justice, Supreme Court, Pl 6                            UNDER VOTES                           Precinct 30                                            01 
01100030008000082000005000026000016000021000014REP       Justice, Supreme Court, Pl 6                            UNDER VOTES                           Precinct 31                                            01 
01100030009000045000005000005000004000017000014REP       Justice, Supreme Court, Pl 6                            UNDER VOTES                           Precinct 32                                            01 
01110010001000755000044000205000183000139000184REP       Justice, Supreme Court, Pl 7                            Jeff Boyd                             Precinct 1                                             01 
01110010002000208000008000045000022000053000080REP       Justice, Supreme Court, Pl 7                            Jeff Boyd                             Precinct 8                                             01 
01110010003000160000010000029000026000041000054REP       Justice, Supreme Court, Pl 7                            Jeff Boyd                             Precinct 16                                            01 
01110010004000211000017000076000044000035000039REP       Justice, Supreme Court, Pl 7                            Jeff Boyd                             Precinct 19                                            01 
01110010005000269000018000034000021000064000132REP       Justice, Supreme Court, Pl 7                            Jeff Boyd                             Precinct 23                                            01 
01110010006000738000056000080000071000193000338REP       Justice, Supreme Court, Pl 7                            Jeff Boyd                             Precinct 29                                            01 
01110010007000350000035000027000029000112000147REP       Justice, Supreme Court, Pl 7                            Jeff Boyd                             Precinct 30                                            01 
01110010008000394000029000102000088000108000067REP       Justice, Supreme Court, Pl 7                            Jeff Boyd                             Precinct 31                                            01 
01110010009000153000007000026000019000046000055REP       Justice, Supreme Court, Pl 7                            Jeff Boyd                             Precinct 32                                            01 
01110020001000000000000000000000000000000000000REP       Justice, Supreme Court, Pl 7                            OVER VOTES                            Precinct 1                                             01 
01110020002000000000000000000000000000000000000REP       Justice, Supreme Court, Pl 7                            OVER VOTES                            Precinct 8                                             01 
01110020003000000000000000000000000000000000000REP       Justice, Supreme Court, Pl 7                            OVER VOTES                            Precinct 16                                            01 
01110020004000000000000000000000000000000000000REP       Justice, Supreme Court, Pl 7                            OVER VOTES                            Precinct 19                                            01 
01110020005000000000000000000000000000000000000REP       Justice, Supreme Court, Pl 7                            OVER VOTES                            Precinct 23                                            01 
01110020006000000000000000000000000000000000000REP       Justice, Supreme Court, Pl 7                            OVER VOTES                            Precinct 29                                            01 
01110020007000000000000000000000000000000000000REP       Justice, Supreme Court, Pl 7                            OVER VOTES                            Precinct 30                                            01 
01110020008000000000000000000000000000000000000REP       Justice, Supreme Court, Pl 7                            OVER VOTES                            Precinct 31                                            01 
01110020009000000000000000000000000000000000000REP       Justice, Supreme Court, Pl 7                            OVER VOTES                            Precinct 32                                            01 
01110030001000201000004000046000058000028000065REP       Justice, Supreme Court, Pl 7                            UNDER VOTES                           Precinct 1                                             01 
01110030002000054000003000011000007000009000024REP       Justice, Supreme Court, Pl 7                            UNDER VOTES                           Precinct 8                                             01 
01110030003000048000002000005000008000014000019REP       Justice, Supreme Court, Pl 7                            UNDER VOTES                           Precinct 16                                            01 
01110030004000043000000000014000010000005000014REP       Justice, Supreme Court, Pl 7                            UNDER VOTES                           Precinct 19                                            01 
01110030005000087000006000006000008000019000048REP       Justice, Supreme Court, Pl 7                            UNDER VOTES                           Precinct 23                                            01 
01110030006000214000016000021000018000058000101REP       Justice, Supreme Court, Pl 7                            UNDER VOTES                           Precinct 29                                            01 
01110030007000054000006000002000005000019000022REP       Justice, Supreme Court, Pl 7                            UNDER VOTES                           Precinct 30                                            01 
01110030008000076000007000020000016000020000013REP       Justice, Supreme Court, Pl 7                            UNDER VOTES                           Precinct 31                                            01 
01110030009000045000005000005000005000016000014REP       Justice, Supreme Court, Pl 7                            UNDER VOTES                           Precinct 32                                            01 
01120010001000747000044000202000182000139000180REP       Justice, Supreme Court, Pl 8                            Brett Busby                           Precinct 1                                             01 
01120010002000207000008000044000022000053000080REP       Justice, Supreme Court, Pl 8                            Brett Busby                           Precinct 8                                             01 
01120010003000159000010000030000026000040000053REP       Justice, Supreme Court, Pl 8                            Brett Busby                           Precinct 16                                            01 
01120010004000208000017000075000044000034000038REP       Justice, Supreme Court, Pl 8                            Brett Busby                           Precinct 19                                            01 
01120010005000265000019000035000021000061000129REP       Justice, Supreme Court, Pl 8                            Brett Busby                           Precinct 23                                            01 
01120010006000734000056000080000069000191000338REP       Justice, Supreme Court, Pl 8                            Brett Busby                           Precinct 29                                            01 
01120010007000348000034000027000030000114000143REP       Justice, Supreme Court, Pl 8                            Brett Busby                           Precinct 30                                            01 
01120010008000387000028000100000088000106000065REP       Justice, Supreme Court, Pl 8                            Brett Busby                           Precinct 31                                            01 
01120010009000153000007000026000019000046000055REP       Justice, Supreme Court, Pl 8                            Brett Busby                           Precinct 32                                            01 
01120020001000000000000000000000000000000000000REP       Justice, Supreme Court, Pl 8                            OVER VOTES                            Precinct 1                                             01 
01120020002000000000000000000000000000000000000REP       Justice, Supreme Court, Pl 8                            OVER VOTES                            Precinct 8                                             01 
01120020003000000000000000000000000000000000000REP       Justice, Supreme Court, Pl 8                            OVER VOTES                            Precinct 16                                            01 
01120020004000000000000000000000000000000000000REP       Justice, Supreme Court, Pl 8                            OVER VOTES                            Precinct 19                                            01 
01120020005000000000000000000000000000000000000REP       Justice, Supreme Court, Pl 8                            OVER VOTES                            Precinct 23                                            01 
01120020006000000000000000000000000000000000000REP       Justice, Supreme Court, Pl 8                            OVER VOTES                            Precinct 29                                            01 
01120020007000000000000000000000000000000000000REP       Justice, Supreme Court, Pl 8                            OVER VOTES                            Precinct 30                                            01 
01120020008000000000000000000000000000000000000REP       Justice, Supreme Court, Pl 8                            OVER VOTES                            Precinct 31                                            01 
01120020009000000000000000000000000000000000000REP       Justice, Supreme Court, Pl 8                            OVER VOTES                            Precinct 32                                            01 
01120030001000209000004000049000059000028000069REP       Justice, Supreme Court, Pl 8                            UNDER VOTES                           Precinct 1                                             01 
01120030002000055000003000012000007000009000024REP       Justice, Supreme Court, Pl 8                            UNDER VOTES                           Precinct 8                                             01 
01120030003000049000002000004000008000015000020REP       Justice, Supreme Court, Pl 8                            UNDER VOTES                           Precinct 16                                            01 
01120030004000046000000000015000010000006000015REP       Justice, Supreme Court, Pl 8                            UNDER VOTES                           Precinct 19                                            01 
01120030005000091000005000005000008000022000051REP       Justice, Supreme Court, Pl 8                            UNDER VOTES                           Precinct 23                                            01 
01120030006000218000016000021000020000060000101REP       Justice, Supreme Court, Pl 8                            UNDER VOTES                           Precinct 29                                            01 
01120030007000056000007000002000004000017000026REP       Justice, Supreme Court, Pl 8                            UNDER VOTES                           Precinct 30                                            01 
01120030008000083000008000022000016000022000015REP       Justice, Supreme Court, Pl 8                            UNDER VOTES                           Precinct 31                                            01 
01120030009000045000005000005000005000016000014REP       Justice, Supreme Court, Pl 8                            UNDER VOTES                           Precinct 32                                            01 
01130010001000413000026000109000100000084000094REP       Judge, Ct of Criminal Appeals, Pl 3                     Gina Parker                           Precinct 1                                             01 
01130010002000126000004000031000018000033000040REP       Judge, Ct of Criminal Appeals, Pl 3                     Gina Parker                           Precinct 8                                             01 
01130010003000081000006000012000016000023000024REP       Judge, Ct of Criminal Appeals, Pl 3                     Gina Parker                           Precinct 16                                            01 
01130010004000120000006000046000025000023000020REP       Judge, Ct of Criminal Appeals, Pl 3                     Gina Parker                           Precinct 19                                            01 
01130010005000158000009000013000011000040000085REP       Judge, Ct of Criminal Appeals, Pl 3                     Gina Parker                           Precinct 23                                            01 
01130010006000401000021000049000040000116000175REP       Judge, Ct of Criminal Appeals, Pl 3                     Gina Parker                           Precinct 29                                            01 
01130010007000206000020000022000015000076000073REP       Judge, Ct of Criminal Appeals, Pl 3                     Gina Parker                           Precinct 30                                            01 
01130010008000226000019000059000050000065000033REP       Judge, Ct of Criminal Appeals, Pl 3                     Gina Parker                           Precinct 31                                            01 
01130010009000084000002000019000006000028000029REP       Judge, Ct of Criminal Appeals, Pl 3                     Gina Parker                           Precinct 32                                            01 
01130020001000348000014000091000102000052000089REP       Judge, Ct of Criminal Appeals, Pl 3                     Bert Richardson                       Precinct 1                                             01 
01130020002000090000005000012000008000019000046REP       Judge, Ct of Criminal Appeals, Pl 3                     Bert Richardson                       Precinct 8                                             01 
01130020003000083000004000018000012000016000033REP       Judge, Ct of Criminal Appeals, Pl 3                     Bert Richardson                       Precinct 16                                            01 
01130020004000101000011000035000020000014000021REP       Judge, Ct of Criminal Appeals, Pl 3                     Bert Richardson                       Precinct 19                                            01 
01130020005000109000006000020000011000026000046REP       Judge, Ct of Criminal Appeals, Pl 3                     Bert Richardson                       Precinct 23                                            01 
01130020006000350000036000033000036000082000163REP       Judge, Ct of Criminal Appeals, Pl 3                     Bert Richardson                       Precinct 29                                            01 
01130020007000156000018000006000017000042000073REP       Judge, Ct of Criminal Appeals, Pl 3                     Bert Richardson                       Precinct 30                                            01 
01130020008000168000014000039000043000038000034REP       Judge, Ct of Criminal Appeals, Pl 3                     Bert Richardson                       Precinct 31                                            01 
01130020009000079000006000006000015000020000032REP       Judge, Ct of Criminal Appeals, Pl 3                     Bert Richardson                       Precinct 32                                            01 
01130030001000000000000000000000000000000000000REP       Judge, Ct of Criminal Appeals, Pl 3                     OVER VOTES                            Precinct 1                                             01 
01130030002000000000000000000000000000000000000REP       Judge, Ct of Criminal Appeals, Pl 3                     OVER VOTES                            Precinct 8                                             01 
01130030003000000000000000000000000000000000000REP       Judge, Ct of Criminal Appeals, Pl 3                     OVER VOTES                            Precinct 16                                            01 
01130030004000000000000000000000000000000000000REP       Judge, Ct of Criminal Appeals, Pl 3                     OVER VOTES                            Precinct 19                                            01 
01130030005000000000000000000000000000000000000REP       Judge, Ct of Criminal Appeals, Pl 3                     OVER VOTES                            Precinct 23                                            01 
01130030006000000000000000000000000000000000000REP       Judge, Ct of Criminal Appeals, Pl 3                     OVER VOTES                            Precinct 29                                            01 
01130030007000000000000000000000000000000000000REP       Judge, Ct of Criminal Appeals, Pl 3                     OVER VOTES                            Precinct 30                                            01 
01130030008000000000000000000000000000000000000REP       Judge, Ct of Criminal Appeals, Pl 3                     OVER VOTES                            Precinct 31                                            01 
01130030009000000000000000000000000000000000000REP       Judge, Ct of Criminal Appeals, Pl 3                     OVER VOTES                            Precinct 32                                            01 
01130040001000195000008000051000039000031000066REP       Judge, Ct of Criminal Appeals, Pl 3                     UNDER VOTES                           Precinct 1                                             01 
01130040002000046000002000013000003000010000018REP       Judge, Ct of Criminal Appeals, Pl 3                     UNDER VOTES                           Precinct 8                                             01 
01130040003000044000002000004000006000016000016REP       Judge, Ct of Criminal Appeals, Pl 3                     UNDER VOTES                           Precinct 16                                            01 
01130040004000033000000000009000009000003000012REP       Judge, Ct of Criminal Appeals, Pl 3                     UNDER VOTES                           Precinct 19                                            01 
01130040005000089000009000007000007000017000049REP       Judge, Ct of Criminal Appeals, Pl 3                     UNDER VOTES                           Precinct 23                                            01 
01130040006000201000015000019000013000053000101REP       Judge, Ct of Criminal Appeals, Pl 3                     UNDER VOTES                           Precinct 29                                            01 
01130040007000042000003000001000002000013000023REP       Judge, Ct of Criminal Appeals, Pl 3                     UNDER VOTES                           Precinct 30                                            01 
01130040008000076000003000024000011000025000013REP       Judge, Ct of Criminal Appeals, Pl 3                     UNDER VOTES                           Precinct 31                                            01 
01130040009000035000004000006000003000014000008REP       Judge, Ct of Criminal Appeals, Pl 3                     UNDER VOTES                           Precinct 32                                            01 
01140010001000743000044000205000176000136000182REP       Judge, Ct of Criminal Appeals, Pl 4                     Kevin Patrick Yeary                   Precinct 1                                             01 
01140010002000202000006000042000023000053000078REP       Judge, Ct of Criminal Appeals, Pl 4                     Kevin Patrick Yeary                   Precinct 8                                             01 
01140010003000158000010000030000026000042000050REP       Judge, Ct of Criminal Appeals, Pl 4                     Kevin Patrick Yeary                   Precinct 16                                            01 
01140010004000209000017000075000044000035000038REP       Judge, Ct of Criminal Appeals, Pl 4                     Kevin Patrick Yeary                   Precinct 19                                            01 
01140010005000262000015000035000020000063000129REP       Judge, Ct of Criminal Appeals, Pl 4                     Kevin Patrick Yeary                   Precinct 23                                            01 
01140010006000733000055000082000070000192000334REP       Judge, Ct of Criminal Appeals, Pl 4                     Kevin Patrick Yeary                   Precinct 29                                            01 
01140010007000347000035000026000029000113000144REP       Judge, Ct of Criminal Appeals, Pl 4                     Kevin Patrick Yeary                   Precinct 30                                            01 
01140010008000387000029000099000087000107000065REP       Judge, Ct of Criminal Appeals, Pl 4                     Kevin Patrick Yeary                   Precinct 31                                            01 
01140010009000154000007000025000020000047000055REP       Judge, Ct of Criminal Appeals, Pl 4                     Kevin Patrick Yeary                   Precinct 32                                            01 
01140020001000000000000000000000000000000000000REP       Judge, Ct of Criminal Appeals, Pl 4                     OVER VOTES                            Precinct 1                                             01 
01140020002000000000000000000000000000000000000REP       Judge, Ct of Criminal Appeals, Pl 4                     OVER VOTES                            Precinct 8                                             01 
01140020003000000000000000000000000000000000000REP       Judge, Ct of Criminal Appeals, Pl 4                     OVER VOTES                            Precinct 16                                            01 
01140020004000000000000000000000000000000000000REP       Judge, Ct of Criminal Appeals, Pl 4                     OVER VOTES                            Precinct 19                                            01 
01140020005000000000000000000000000000000000000REP       Judge, Ct of Criminal Appeals, Pl 4                     OVER VOTES                            Precinct 23                                            01 
01140020006000000000000000000000000000000000000REP       Judge, Ct of Criminal Appeals, Pl 4                     OVER VOTES                            Precinct 29                                            01 
01140020007000000000000000000000000000000000000REP       Judge, Ct of Criminal Appeals, Pl 4                     OVER VOTES                            Precinct 30                                            01 
01140020008000000000000000000000000000000000000REP       Judge, Ct of Criminal Appeals, Pl 4                     OVER VOTES                            Precinct 31                                            01 
01140020009000000000000000000000000000000000000REP       Judge, Ct of Criminal Appeals, Pl 4                     OVER VOTES                            Precinct 32                                            01 
01140030001000213000004000046000065000031000067REP       Judge, Ct of Criminal Appeals, Pl 4                     UNDER VOTES                           Precinct 1                                             01 
01140030002000060000005000014000006000009000026REP       Judge, Ct of Criminal Appeals, Pl 4                     UNDER VOTES                           Precinct 8                                             01 
01140030003000050000002000004000008000013000023REP       Judge, Ct of Criminal Appeals, Pl 4                     UNDER VOTES                           Precinct 16                                            01 
01140030004000045000000000015000010000005000015REP       Judge, Ct of Criminal Appeals, Pl 4                     UNDER VOTES                           Precinct 19                                            01 
01140030005000094000009000005000009000020000051REP       Judge, Ct of Criminal Appeals, Pl 4                     UNDER VOTES                           Precinct 23                                            01 
01140030006000219000017000019000019000059000105REP       Judge, Ct of Criminal Appeals, Pl 4                     UNDER VOTES                           Precinct 29                                            01 
01140030007000057000006000003000005000018000025REP       Judge, Ct of Criminal Appeals, Pl 4                     UNDER VOTES                           Precinct 30                                            01 
01140030008000083000007000023000017000021000015REP       Judge, Ct of Criminal Appeals, Pl 4                     UNDER VOTES                           Precinct 31                                            01 
01140030009000044000005000006000004000015000014REP       Judge, Ct of Criminal Appeals, Pl 4                     UNDER VOTES                           Precinct 32                                            01 
01150010001000736000044000201000176000135000180REP       Judge, Ct of Criminal Appeals, Pl 9                     David Newell                          Precinct 1                                             01 
01150010002000204000007000043000022000053000079REP       Judge, Ct of Criminal Appeals, Pl 9                     David Newell                          Precinct 8                                             01 
01150010003000158000010000030000026000041000051REP       Judge, Ct of Criminal Appeals, Pl 9                     David Newell                          Precinct 16                                            01 
01150010004000208000017000074000044000035000038REP       Judge, Ct of Criminal Appeals, Pl 9                     David Newell                          Precinct 19                                            01 
01150010005000260000016000035000020000063000126REP       Judge, Ct of Criminal Appeals, Pl 9                     David Newell                          Precinct 23                                            01 
01150010006000728000055000081000069000191000332REP       Judge, Ct of Criminal Appeals, Pl 9                     David Newell                          Precinct 29                                            01 
01150010007000347000035000026000029000113000144REP       Judge, Ct of Criminal Appeals, Pl 9                     David Newell                          Precinct 30                                            01 
01150010008000389000029000101000087000107000065REP       Judge, Ct of Criminal Appeals, Pl 9                     David Newell                          Precinct 31                                            01 
01150010009000154000007000025000020000048000054REP       Judge, Ct of Criminal Appeals, Pl 9                     David Newell                          Precinct 32                                            01 
01150020001000000000000000000000000000000000000REP       Judge, Ct of Criminal Appeals, Pl 9                     OVER VOTES                            Precinct 1                                             01 
01150020002000000000000000000000000000000000000REP       Judge, Ct of Criminal Appeals, Pl 9                     OVER VOTES                            Precinct 8                                             01 
01150020003000000000000000000000000000000000000REP       Judge, Ct of Criminal Appeals, Pl 9                     OVER VOTES                            Precinct 16                                            01 
01150020004000000000000000000000000000000000000REP       Judge, Ct of Criminal Appeals, Pl 9                     OVER VOTES                            Precinct 19                                            01 
01150020005000000000000000000000000000000000000REP       Judge, Ct of Criminal Appeals, Pl 9                     OVER VOTES                            Precinct 23                                            01 
01150020006000000000000000000000000000000000000REP       Judge, Ct of Criminal Appeals, Pl 9                     OVER VOTES                            Precinct 29                                            01 
01150020007000000000000000000000000000000000000REP       Judge, Ct of Criminal Appeals, Pl 9                     OVER VOTES                            Precinct 30                                            01 
01150020008000000000000000000000000000000000000REP       Judge, Ct of Criminal Appeals, Pl 9                     OVER VOTES                            Precinct 31                                            01 
01150020009000000000000000000000000000000000000REP       Judge, Ct of Criminal Appeals, Pl 9                     OVER VOTES                            Precinct 32                                            01 
01150030001000220000004000050000065000032000069REP       Judge, Ct of Criminal Appeals, Pl 9                     UNDER VOTES                           Precinct 1                                             01 
01150030002000058000004000013000007000009000025REP       Judge, Ct of Criminal Appeals, Pl 9                     UNDER VOTES                           Precinct 8                                             01 
01150030003000050000002000004000008000014000022REP       Judge, Ct of Criminal Appeals, Pl 9                     UNDER VOTES                           Precinct 16                                            01 
01150030004000046000000000016000010000005000015REP       Judge, Ct of Criminal Appeals, Pl 9                     UNDER VOTES                           Precinct 19                                            01 
01150030005000096000008000005000009000020000054REP       Judge, Ct of Criminal Appeals, Pl 9                     UNDER VOTES                           Precinct 23                                            01 
01150030006000224000017000020000020000060000107REP       Judge, Ct of Criminal Appeals, Pl 9                     UNDER VOTES                           Precinct 29                                            01 
01150030007000057000006000003000005000018000025REP       Judge, Ct of Criminal Appeals, Pl 9                     UNDER VOTES                           Precinct 30                                            01 
01150030008000081000007000021000017000021000015REP       Judge, Ct of Criminal Appeals, Pl 9                     UNDER VOTES                           Precinct 31                                            01 
01150030009000044000005000006000004000014000015REP       Judge, Ct of Criminal Appeals, Pl 9                     UNDER VOTES                           Precinct 32                                            01 
01160010001000810000046000218000197000149000200REP       State Senator, District 18                              Lois W. Kolkhorst                     Precinct 1                                             01 
01160010002000221000009000048000022000054000088REP       State Senator, District 18                              Lois W. Kolkhorst                     Precinct 8                                             01 
01160010003000173000012000033000029000045000054REP       State Senator, District 18                              Lois W. Kolkhorst                     Precinct 16                                            01 
01160010004000213000017000074000045000035000042REP       State Senator, District 18                              Lois W. Kolkhorst                     Precinct 19                                            01 
01160010005000293000023000035000022000071000142REP       State Senator, District 18                              Lois W. Kolkhorst                     Precinct 23                                            01 
01160010006000779000058000087000076000198000360REP       State Senator, District 18                              Lois W. Kolkhorst                     Precinct 29                                            01 
01160010007000364000036000026000030000118000154REP       State Senator, District 18                              Lois W. Kolkhorst                     Precinct 30                                            01 
01160010008000417000031000106000098000110000072REP       State Senator, District 18                              Lois W. Kolkhorst                     Precinct 31                                            01 
01160010009000164000007000026000020000051000060REP       State Senator, District 18                              Lois W. Kolkhorst                     Precinct 32                                            01 
01160020001000000000000000000000000000000000000REP       State Senator, District 18                              OVER VOTES                            Precinct 1                                             01 
01160020002000000000000000000000000000000000000REP       State Senator, District 18                              OVER VOTES                            Precinct 8                                             01 
01160020003000000000000000000000000000000000000REP       State Senator, District 18                              OVER VOTES                            Precinct 16                                            01 
01160020004000000000000000000000000000000000000REP       State Senator, District 18                              OVER VOTES                            Precinct 19                                            01 
01160020005000000000000000000000000000000000000REP       State Senator, District 18                              OVER VOTES                            Precinct 23                                            01 
01160020006000000000000000000000000000000000000REP       State Senator, District 18                              OVER VOTES                            Precinct 29                                            01 
01160020007000000000000000000000000000000000000REP       State Senator, District 18                              OVER VOTES                            Precinct 30                                            01 
01160020008000000000000000000000000000000000000REP       State Senator, District 18                              OVER VOTES                            Precinct 31                                            01 
01160020009000000000000000000000000000000000000REP       State Senator, District 18                              OVER VOTES                            Precinct 32                                            01 
01160030001000146000002000033000044000018000049REP       State Senator, District 18                              UNDER VOTES                           Precinct 1                                             01 
01160030002000041000002000008000007000008000016REP       State Senator, District 18                              UNDER VOTES                           Precinct 8                                             01 
01160030003000035000000000001000005000010000019REP       State Senator, District 18                              UNDER VOTES                           Precinct 16                                            01 
01160030004000041000000000016000009000005000011REP       State Senator, District 18                              UNDER VOTES                           Precinct 19                                            01 
01160030005000063000001000005000007000012000038REP       State Senator, District 18                              UNDER VOTES                           Precinct 23                                            01 
