01010010001001556000000000000000000000000000000          REGISTERED VOTERS - TOTAL                               REGISTERED VOTERS - TOTAL             Precinct 1                                             00 
01010010002000204000000000000000000000000000000          REGISTERED VOTERS - TOTAL                               REGISTERED VOTERS - TOTAL             Precinct 1A                                            00 
01010010003000359000000000000000000000000000000          REGISTERED VOTERS - TOTAL                               REGISTERED VOTERS - TOTAL             Precinct 2                                             00 
01010010004000604000000000000000000000000000000          REGISTERED VOTERS - TOTAL                               REGISTERED VOTERS - TOTAL             Precinct 3                                             00 
01010010005000911000000000000000000000000000000          REGISTERED VOTERS - TOTAL                               REGISTERED VOTERS - TOTAL             Precinct 4                                             00 
01010010006000521000000000000000000000000000000          REGISTERED VOTERS - TOTAL                               REGISTERED VOTERS - TOTAL             Precinct 5                                             00 
01010010007000071000000000000000000000000000000          REGISTERED VOTERS - TOTAL                               REGISTERED VOTERS - TOTAL             Precinct 5A                                            00 
01010010008001117000000000000000000000000000000          REGISTERED VOTERS - TOTAL                               REGISTERED VOTERS - TOTAL             Precinct 6                                             00 
01010010009000630000000000000000000000000000000          REGISTERED VOTERS - TOTAL                               REGISTERED VOTERS - TOTAL             Precinct 7                                             00 
01010010010001070000000000000000000000000000000          REGISTERED VOTERS - TOTAL                               REGISTERED VOTERS - TOTAL             Precinct 8                                             00 
01010010011000329000000000000000000000000000000          REGISTERED VOTERS - TOTAL                               REGISTERED VOTERS - TOTAL             Precinct 9                                             00 
01010010012001025000000000000000000000000000000          REGISTERED VOTERS - TOTAL                               REGISTERED VOTERS - TOTAL             Precinct 10                                            00 
01010010013000996000000000000000000000000000000          REGISTERED VOTERS - TOTAL                               REGISTERED VOTERS - TOTAL             Precinct 11                                            00 
01010010014000817000000000000000000000000000000          REGISTERED VOTERS - TOTAL                               REGISTERED VOTERS - TOTAL             Precinct 12                                            00 
01010010015000667000000000000000000000000000000          REGISTERED VOTERS - TOTAL                               REGISTERED VOTERS - TOTAL             Precinct 13                                            00 
01010010016000212000000000000000000000000000000          REGISTERED VOTERS - TOTAL                               REGISTERED VOTERS - TOTAL             Precinct 14                                            00 
01010010017000206000000000000000000000000000000          REGISTERED VOTERS - TOTAL                               REGISTERED VOTERS - TOTAL             Precinct 14A                                           00 
01020010001000616000379000203000033000001000000          BALLOTS CAST - TOTAL                                    BALLOTS CAST - TOTAL                  Precinct 1                                             00 
01020010002000089000060000023000006000000000000          BALLOTS CAST - TOTAL                                    BALLOTS CAST - TOTAL                  Precinct 1A                                            00 
01020010003000169000081000080000008000000000000          BALLOTS CAST - TOTAL                                    BALLOTS CAST - TOTAL                  Precinct 2                                             00 
01020010004000243000108000123000012000000000000          BALLOTS CAST - TOTAL                                    BALLOTS CAST - TOTAL                  Precinct 3                                             00 
01020010005000292000036000240000016000000000000          BALLOTS CAST - TOTAL                                    BALLOTS CAST - TOTAL                  Precinct 4                                             00 
01020010006000215000082000124000009000000000000          BALLOTS CAST - TOTAL                                    BALLOTS CAST - TOTAL                  Precinct 5                                             00 
01020010007000015000006000009000000000000000000          BALLOTS CAST - TOTAL                                    BALLOTS CAST - TOTAL                  Precinct 5A                                            00 
01020010008000467000069000384000013000001000000          BALLOTS CAST - TOTAL                                    BALLOTS CAST - TOTAL                  Precinct 6                                             00 
01020010009000262000068000178000015000001000000          BALLOTS CAST - TOTAL                                    BALLOTS CAST - TOTAL                  Precinct 7                                             00 
01020010010000465000130000312000023000000000000          BALLOTS CAST - TOTAL                                    BALLOTS CAST - TOTAL                  Precinct 8                                             00 
01020010011000143000060000077000006000000000000          BALLOTS CAST - TOTAL                                    BALLOTS CAST - TOTAL                  Precinct 9                                             00 
01020010012000437000151000260000024000002000000          BALLOTS CAST - TOTAL                                    BALLOTS CAST - TOTAL                  Precinct 10                                            00 
01020010013000352000108000226000016000002000000          BALLOTS CAST - TOTAL                                    BALLOTS CAST - TOTAL                  Precinct 11                                            00 
01020010014000249000044000187000018000000000000          BALLOTS CAST - TOTAL                                    BALLOTS CAST - TOTAL                  Precinct 12                                            00 
01020010015000323000140000160000021000002000000          BALLOTS CAST - TOTAL                                    BALLOTS CAST - TOTAL                  Precinct 13                                            00 
01020010016000077000040000030000007000000000000          BALLOTS CAST - TOTAL                                    BALLOTS CAST - TOTAL                  Precinct 14                                            00 
01020010017000109000046000055000008000000000000          BALLOTS CAST - TOTAL                                    BALLOTS CAST - TOTAL                  Precinct 14A                                           00 
01030010001000553000354000172000026000001000000REP       BALLOTS CAST - REPUBLICAN PARTY                         BALLOTS CAST - REPUBLICAN PARTY       Precinct 1                                             00 
01030010002000086000059000022000005000000000000REP       BALLOTS CAST - REPUBLICAN PARTY                         BALLOTS CAST - REPUBLICAN PARTY       Precinct 1A                                            00 
01030010003000156000075000075000006000000000000REP       BALLOTS CAST - REPUBLICAN PARTY                         BALLOTS CAST - REPUBLICAN PARTY       Precinct 2                                             00 
01030010004000221000103000108000010000000000000REP       BALLOTS CAST - REPUBLICAN PARTY                         BALLOTS CAST - REPUBLICAN PARTY       Precinct 3                                             00 
01030010005000260000033000212000015000000000000REP       BALLOTS CAST - REPUBLICAN PARTY                         BALLOTS CAST - REPUBLICAN PARTY       Precinct 4                                             00 
01030010006000193000073000111000009000000000000REP       BALLOTS CAST - REPUBLICAN PARTY                         BALLOTS CAST - REPUBLICAN PARTY       Precinct 5                                             00 
01030010007000015000006000009000000000000000000REP       BALLOTS CAST - REPUBLICAN PARTY                         BALLOTS CAST - REPUBLICAN PARTY       Precinct 5A                                            00 
01030010008000420000065000341000013000001000000REP       BALLOTS CAST - REPUBLICAN PARTY                         BALLOTS CAST - REPUBLICAN PARTY       Precinct 6                                             00 
01030010009000247000066000169000011000001000000REP       BALLOTS CAST - REPUBLICAN PARTY                         BALLOTS CAST - REPUBLICAN PARTY       Precinct 7                                             00 
01030010010000422000126000279000017000000000000REP       BALLOTS CAST - REPUBLICAN PARTY                         BALLOTS CAST - REPUBLICAN PARTY       Precinct 8                                             00 
01030010011000131000058000069000004000000000000REP       BALLOTS CAST - REPUBLICAN PARTY                         BALLOTS CAST - REPUBLICAN PARTY       Precinct 9                                             00 
01030010012000421000149000248000022000002000000REP       BALLOTS CAST - REPUBLICAN PARTY                         BALLOTS CAST - REPUBLICAN PARTY       Precinct 10                                            00 
01030010013000312000100000197000014000001000000REP       BALLOTS CAST - REPUBLICAN PARTY                         BALLOTS CAST - REPUBLICAN PARTY       Precinct 11                                            00 
01030010014000190000037000142000011000000000000REP       BALLOTS CAST - REPUBLICAN PARTY                         BALLOTS CAST - REPUBLICAN PARTY       Precinct 12                                            00 
01030010015000299000130000146000021000002000000REP       BALLOTS CAST - REPUBLICAN PARTY                         BALLOTS CAST - REPUBLICAN PARTY       Precinct 13                                            00 
01030010016000060000035000020000005000000000000REP       BALLOTS CAST - REPUBLICAN PARTY                         BALLOTS CAST - REPUBLICAN PARTY       Precinct 14                                            00 
01030010017000095000041000049000005000000000000REP       BALLOTS CAST - REPUBLICAN PARTY                         BALLOTS CAST - REPUBLICAN PARTY       Precinct 14A                                           00 
01040010001000064000025000031000008000000000000DEM       BALLOTS CAST - DEMOCRATIC PARTY                         BALLOTS CAST - DEMOCRATIC PARTY       Precinct 1                                             00 
01040010002000003000001000001000001000000000000DEM       BALLOTS CAST - DEMOCRATIC PARTY                         BALLOTS CAST - DEMOCRATIC PARTY       Precinct 1A                                            00 
01040010003000013000006000005000002000000000000DEM       BALLOTS CAST - DEMOCRATIC PARTY                         BALLOTS CAST - DEMOCRATIC PARTY       Precinct 2                                             00 
01040010004000022000005000015000002000000000000DEM       BALLOTS CAST - DEMOCRATIC PARTY                         BALLOTS CAST - DEMOCRATIC PARTY       Precinct 3                                             00 
01040010005000032000003000028000001000000000000DEM       BALLOTS CAST - DEMOCRATIC PARTY                         BALLOTS CAST - DEMOCRATIC PARTY       Precinct 4                                             00 
01040010006000022000009000013000000000000000000DEM       BALLOTS CAST - DEMOCRATIC PARTY                         BALLOTS CAST - DEMOCRATIC PARTY       Precinct 5                                             00 
01040010007000000000000000000000000000000000000DEM       BALLOTS CAST - DEMOCRATIC PARTY                         BALLOTS CAST - DEMOCRATIC PARTY       Precinct 5A                                            00 
01040010008000047000004000043000000000000000000DEM       BALLOTS CAST - DEMOCRATIC PARTY                         BALLOTS CAST - DEMOCRATIC PARTY       Precinct 6                                             00 
01040010009000015000002000009000004000000000000DEM       BALLOTS CAST - DEMOCRATIC PARTY                         BALLOTS CAST - DEMOCRATIC PARTY       Precinct 7                                             00 
01040010010000043000004000033000006000000000000DEM       BALLOTS CAST - DEMOCRATIC PARTY                         BALLOTS CAST - DEMOCRATIC PARTY       Precinct 8                                             00 
01040010011000012000002000008000002000000000000DEM       BALLOTS CAST - DEMOCRATIC PARTY                         BALLOTS CAST - DEMOCRATIC PARTY       Precinct 9                                             00 
01040010012000017000002000012000003000000000000DEM       BALLOTS CAST - DEMOCRATIC PARTY                         BALLOTS CAST - DEMOCRATIC PARTY       Precinct 10                                            00 
01040010013000043000008000029000005000001000000DEM       BALLOTS CAST - DEMOCRATIC PARTY                         BALLOTS CAST - DEMOCRATIC PARTY       Precinct 11                                            00 
01040010014000059000007000045000007000000000000DEM       BALLOTS CAST - DEMOCRATIC PARTY                         BALLOTS CAST - DEMOCRATIC PARTY       Precinct 12                                            00 
01040010015000024000010000014000000000000000000DEM       BALLOTS CAST - DEMOCRATIC PARTY                         BALLOTS CAST - DEMOCRATIC PARTY       Precinct 13                                            00 
01040010016000017000005000010000002000000000000DEM       BALLOTS CAST - DEMOCRATIC PARTY                         BALLOTS CAST - DEMOCRATIC PARTY       Precinct 14                                            00 
01040010017000014000005000006000003000000000000DEM       BALLOTS CAST - DEMOCRATIC PARTY                         BALLOTS CAST - DEMOCRATIC PARTY       Precinct 14A                                           00 
01050010001000000000000000000000000000000000000REP       President                                               Zoltan G. Istvan                      Precinct 1                                             01 
01050010002000000000000000000000000000000000000REP       President                                               Zoltan G. Istvan                      Precinct 1A                                            01 
01050010003000000000000000000000000000000000000REP       President                                               Zoltan G. Istvan                      Precinct 2                                             01 
01050010004000000000000000000000000000000000000REP       President                                               Zoltan G. Istvan                      Precinct 3                                             01 
01050010005000000000000000000000000000000000000REP       President                                               Zoltan G. Istvan                      Precinct 4                                             01 
01050010006000000000000000000000000000000000000REP       President                                               Zoltan G. Istvan                      Precinct 5                                             01 
01050010007000000000000000000000000000000000000REP       President                                               Zoltan G. Istvan                      Precinct 5A                                            01 
01050010008000000000000000000000000000000000000REP       President                                               Zoltan G. Istvan                      Precinct 6                                             01 
01050010009000000000000000000000000000000000000REP       President                                               Zoltan G. Istvan                      Precinct 7                                             01 
01050010010000000000000000000000000000000000000REP       President                                               Zoltan G. Istvan                      Precinct 8                                             01 
01050010011000000000000000000000000000000000000REP       President                                               Zoltan G. Istvan                      Precinct 9                                             01 
01050010012000000000000000000000000000000000000REP       President                                               Zoltan G. Istvan                      Precinct 10                                            01 
01050010013000000000000000000000000000000000000REP       President                                               Zoltan G. Istvan                      Precinct 11                                            01 
01050010014000001000000000001000000000000000000REP       President                                               Zoltan G. Istvan                      Precinct 12                                            01 
01050010015000000000000000000000000000000000000REP       President                                               Zoltan G. Istvan                      Precinct 13                                            01 
01050010016000000000000000000000000000000000000REP       President                                               Zoltan G. Istvan                      Precinct 14                                            01 
01050010017000000000000000000000000000000000000REP       President                                               Zoltan G. Istvan                      Precinct 14A                                           01 
01050020001000521000331000163000026000001000000REP       President                                               Donald J. Trump                       Precinct 1                                             01 
01050020002000082000056000021000005000000000000REP       President                                               Donald J. Trump                       Precinct 1A                                            01 
01050020003000149000070000074000005000000000000REP       President                                               Donald J. Trump                       Precinct 2                                             01 
01050020004000215000100000106000009000000000000REP       President                                               Donald J. Trump                       Precinct 3                                             01 
01050020005000252000033000205000014000000000000REP       President                                               Donald J. Trump                       Precinct 4                                             01 
01050020006000188000072000107000009000000000000REP       President                                               Donald J. Trump                       Precinct 5                                             01 
01050020007000015000006000009000000000000000000REP       President                                               Donald J. Trump                       Precinct 5A                                            01 
01050020008000405000063000328000013000001000000REP       President                                               Donald J. Trump                       Precinct 6                                             01 
01050020009000238000063000163000011000001000000REP       President                                               Donald J. Trump                       Precinct 7                                             01 
01050020010000403000124000262000017000000000000REP       President                                               Donald J. Trump                       Precinct 8                                             01 
01050020011000122000056000062000004000000000000REP       President                                               Donald J. Trump                       Precinct 9                                             01 
01050020012000406000145000238000021000002000000REP       President                                               Donald J. Trump                       Precinct 10                                            01 
01050020013000297000094000188000014000001000000REP       President                                               Donald J. Trump                       Precinct 11                                            01 
01050020014000176000035000130000011000000000000REP       President                                               Donald J. Trump                       Precinct 12                                            01 
01050020015000288000124000141000021000002000000REP       President                                               Donald J. Trump                       Precinct 13                                            01 
01050020016000057000034000019000004000000000000REP       President                                               Donald J. Trump                       Precinct 14                                            01 
01050020017000091000039000047000005000000000000REP       President                                               Donald J. Trump                       Precinct 14A                                           01 
01050030001000005000004000001000000000000000000REP       President                                               Joe Walsh                             Precinct 1                                             01 
01050030002000000000000000000000000000000000000REP       President                                               Joe Walsh                             Precinct 1A                                            01 
01050030003000000000000000000000000000000000000REP       President                                               Joe Walsh                             Precinct 2                                             01 
01050030004000000000000000000000000000000000000REP       President                                               Joe Walsh                             Precinct 3                                             01 
01050030005000001000000000001000000000000000000REP       President                                               Joe Walsh                             Precinct 4                                             01 
01050030006000000000000000000000000000000000000REP       President                                               Joe Walsh                             Precinct 5                                             01 
01050030007000000000000000000000000000000000000REP       President                                               Joe Walsh                             Precinct 5A                                            01 
01050030008000001000000000001000000000000000000REP       President                                               Joe Walsh                             Precinct 6                                             01 
01050030009000001000000000001000000000000000000REP       President                                               Joe Walsh                             Precinct 7                                             01 
01050030010000001000000000001000000000000000000REP       President                                               Joe Walsh                             Precinct 8                                             01 
01050030011000001000001000000000000000000000000REP       President                                               Joe Walsh                             Precinct 9                                             01 
01050030012000003000000000003000000000000000000REP       President                                               Joe Walsh                             Precinct 10                                            01 
01050030013000004000001000003000000000000000000REP       President                                               Joe Walsh                             Precinct 11                                            01 
01050030014000001000000000001000000000000000000REP       President                                               Joe Walsh                             Precinct 12                                            01 
01050030015000003000001000002000000000000000000REP       President                                               Joe Walsh                             Precinct 13                                            01 
01050030016000000000000000000000000000000000000REP       President                                               Joe Walsh                             Precinct 14                                            01 
01050030017000001000001000000000000000000000000REP       President                                               Joe Walsh                             Precinct 14A                                           01 
01050040001000001000000000001000000000000000000REP       President                                               Bill Weld                             Precinct 1                                             01 
01050040002000002000002000000000000000000000000REP       President                                               Bill Weld                             Precinct 1A                                            01 
01050040003000000000000000000000000000000000000REP       President                                               Bill Weld                             Precinct 2                                             01 
01050040004000001000000000000000001000000000000REP       President                                               Bill Weld                             Precinct 3                                             01 
01050040005000000000000000000000000000000000000REP       President                                               Bill Weld                             Precinct 4                                             01 
01050040006000000000000000000000000000000000000REP       President                                               Bill Weld                             Precinct 5                                             01 
01050040007000000000000000000000000000000000000REP       President                                               Bill Weld                             Precinct 5A                                            01 
01050040008000000000000000000000000000000000000REP       President                                               Bill Weld                             Precinct 6                                             01 
01050040009000001000001000000000000000000000000REP       President                                               Bill Weld                             Precinct 7                                             01 
01050040010000002000000000002000000000000000000REP       President                                               Bill Weld                             Precinct 8                                             01 
01050040011000000000000000000000000000000000000REP       President                                               Bill Weld                             Precinct 9                                             01 
01050040012000002000001000000000001000000000000REP       President                                               Bill Weld                             Precinct 10                                            01 
01050040013000000000000000000000000000000000000REP       President                                               Bill Weld                             Precinct 11                                            01 
01050040014000000000000000000000000000000000000REP       President                                               Bill Weld                             Precinct 12                                            01 
01050040015000000000000000000000000000000000000REP       President                                               Bill Weld                             Precinct 13                                            01 
01050040016000001000001000000000000000000000000REP       President                                               Bill Weld                             Precinct 14                                            01 
01050040017000000000000000000000000000000000000REP       President                                               Bill Weld                             Precinct 14A                                           01 
01050050001000000000000000000000000000000000000REP       President                                               Matthew John Matern                   Precinct 1                                             01 
01050050002000000000000000000000000000000000000REP       President                                               Matthew John Matern                   Precinct 1A                                            01 
01050050003000000000000000000000000000000000000REP       President                                               Matthew John Matern                   Precinct 2                                             01 
01050050004000000000000000000000000000000000000REP       President                                               Matthew John Matern                   Precinct 3                                             01 
01050050005000000000000000000000000000000000000REP       President                                               Matthew John Matern                   Precinct 4                                             01 
01050050006000000000000000000000000000000000000REP       President                                               Matthew John Matern                   Precinct 5                                             01 
01050050007000000000000000000000000000000000000REP       President                                               Matthew John Matern                   Precinct 5A                                            01 
01050050008000000000000000000000000000000000000REP       President                                               Matthew John Matern                   Precinct 6                                             01 
01050050009000000000000000000000000000000000000REP       President                                               Matthew John Matern                   Precinct 7                                             01 
01050050010000001000000000001000000000000000000REP       President                                               Matthew John Matern                   Precinct 8                                             01 
01050050011000000000000000000000000000000000000REP       President                                               Matthew John Matern                   Precinct 9                                             01 
01050050012000000000000000000000000000000000000REP       President                                               Matthew John Matern                   Precinct 10                                            01 
01050050013000000000000000000000000000000000000REP       President                                               Matthew John Matern                   Precinct 11                                            01 
01050050014000003000001000002000000000000000000REP       President                                               Matthew John Matern                   Precinct 12                                            01 
01050050015000001000001000000000000000000000000REP       President                                               Matthew John Matern                   Precinct 13                                            01 
01050050016000001000000000000000001000000000000REP       President                                               Matthew John Matern                   Precinct 14                                            01 
01050050017000000000000000000000000000000000000REP       President                                               Matthew John Matern                   Precinct 14A                                           01 
01050060001000000000000000000000000000000000000REP       President                                               Bob Ely                               Precinct 1                                             01 
01050060002000000000000000000000000000000000000REP       President                                               Bob Ely                               Precinct 1A                                            01 
01050060003000001000000000000000001000000000000REP       President                                               Bob Ely                               Precinct 2                                             01 
01050060004000001000001000000000000000000000000REP       President                                               Bob Ely                               Precinct 3                                             01 
01050060005000000000000000000000000000000000000REP       President                                               Bob Ely                               Precinct 4                                             01 
01050060006000000000000000000000000000000000000REP       President                                               Bob Ely                               Precinct 5                                             01 
01050060007000000000000000000000000000000000000REP       President                                               Bob Ely                               Precinct 5A                                            01 
01050060008000001000001000000000000000000000000REP       President                                               Bob Ely                               Precinct 6                                             01 
01050060009000001000000000001000000000000000000REP       President                                               Bob Ely                               Precinct 7                                             01 
01050060010000000000000000000000000000000000000REP       President                                               Bob Ely                               Precinct 8                                             01 
01050060011000002000000000002000000000000000000REP       President                                               Bob Ely                               Precinct 9                                             01 
01050060012000000000000000000000000000000000000REP       President                                               Bob Ely                               Precinct 10                                            01 
01050060013000000000000000000000000000000000000REP       President                                               Bob Ely                               Precinct 11                                            01 
01050060014000000000000000000000000000000000000REP       President                                               Bob Ely                               Precinct 12                                            01 
01050060015000000000000000000000000000000000000REP       President                                               Bob Ely                               Precinct 13                                            01 
01050060016000000000000000000000000000000000000REP       President                                               Bob Ely                               Precinct 14                                            01 
01050060017000000000000000000000000000000000000REP       President                                               Bob Ely                               Precinct 14A                                           01 
01050070001000003000000000003000000000000000000REP       President                                               Roque "Rocky" De La Fuente Guerra     Precinct 1                                             01 
01050070002000000000000000000000000000000000000REP       President                                               Roque "Rocky" De La Fuente Guerra     Precinct 1A                                            01 
01050070003000000000000000000000000000000000000REP       President                                               Roque "Rocky" De La Fuente Guerra     Precinct 2                                             01 
01050070004000000000000000000000000000000000000REP       President                                               Roque "Rocky" De La Fuente Guerra     Precinct 3                                             01 
01050070005000001000000000001000000000000000000REP       President                                               Roque "Rocky" De La Fuente Guerra     Precinct 4                                             01 
01050070006000000000000000000000000000000000000REP       President                                               Roque "Rocky" De La Fuente Guerra     Precinct 5                                             01 
01050070007000000000000000000000000000000000000REP       President                                               Roque "Rocky" De La Fuente Guerra     Precinct 5A                                            01 
01050070008000000000000000000000000000000000000REP       President                                               Roque "Rocky" De La Fuente Guerra     Precinct 6                                             01 
01050070009000000000000000000000000000000000000REP       President                                               Roque "Rocky" De La Fuente Guerra     Precinct 7                                             01 
01050070010000003000000000003000000000000000000REP       President                                               Roque "Rocky" De La Fuente Guerra     Precinct 8                                             01 
01050070011000000000000000000000000000000000000REP       President                                               Roque "Rocky" De La Fuente Guerra     Precinct 9                                             01 
01050070012000000000000000000000000000000000000REP       President                                               Roque "Rocky" De La Fuente Guerra     Precinct 10                                            01 
01050070013000000000000000000000000000000000000REP       President                                               Roque "Rocky" De La Fuente Guerra     Precinct 11                                            01 
01050070014000002000000000002000000000000000000REP       President                                               Roque "Rocky" De La Fuente Guerra     Precinct 12                                            01 
01050070015000001000000000001000000000000000000REP       President                                               Roque "Rocky" De La Fuente Guerra     Precinct 13                                            01 
01050070016000000000000000000000000000000000000REP       President                                               Roque "Rocky" De La Fuente Guerra     Precinct 14                                            01 
01050070017000000000000000000000000000000000000REP       President                                               Roque "Rocky" De La Fuente Guerra     Precinct 14A                                           01 
01050080001000014000012000002000000000000000000REP       President                                               Uncommitted                           Precinct 1                                             01 
01050080002000001000000000001000000000000000000REP       President                                               Uncommitted                           Precinct 1A                                            01 
01050080003000004000004000000000000000000000000REP       President                                               Uncommitted                           Precinct 2                                             01 
01050080004000003000002000001000000000000000000REP       President                                               Uncommitted                           Precinct 3                                             01 
01050080005000003000000000002000001000000000000REP       President                                               Uncommitted                           Precinct 4                                             01 
01050080006000004000001000003000000000000000000REP       President                                               Uncommitted                           Precinct 5                                             01 
01050080007000000000000000000000000000000000000REP       President                                               Uncommitted                           Precinct 5A                                            01 
01050080008000009000000000009000000000000000000REP       President                                               Uncommitted                           Precinct 6                                             01 
01050080009000001000001000000000000000000000000REP       President                                               Uncommitted                           Precinct 7                                             01 
01050080010000008000002000006000000000000000000REP       President                                               Uncommitted                           Precinct 8                                             01 
01050080011000002000000000002000000000000000000REP       President                                               Uncommitted                           Precinct 9                                             01 
01050080012000008000003000005000000000000000000REP       President                                               Uncommitted                           Precinct 10                                            01 
01050080013000008000004000004000000000000000000REP       President                                               Uncommitted                           Precinct 11                                            01 
01050080014000001000000000001000000000000000000REP       President                                               Uncommitted                           Precinct 12                                            01 
01050080015000003000002000001000000000000000000REP       President                                               Uncommitted                           Precinct 13                                            01 
01050080016000001000000000001000000000000000000REP       President                                               Uncommitted                           Precinct 14                                            01 
01050080017000001000001000000000000000000000000REP       President                                               Uncommitted                           Precinct 14A                                           01 
01050090001000000000000000000000000000000000000REP       President                                               OVER VOTES                            Precinct 1                                             01 
01050090002000000000000000000000000000000000000REP       President                                               OVER VOTES                            Precinct 1A                                            01 
01050090003000000000000000000000000000000000000REP       President                                               OVER VOTES                            Precinct 2                                             01 
01050090004000000000000000000000000000000000000REP       President                                               OVER VOTES                            Precinct 3                                             01 
01050090005000000000000000000000000000000000000REP       President                                               OVER VOTES                            Precinct 4                                             01 
01050090006000000000000000000000000000000000000REP       President                                               OVER VOTES                            Precinct 5                                             01 
01050090007000000000000000000000000000000000000REP       President                                               OVER VOTES                            Precinct 5A                                            01 
01050090008000000000000000000000000000000000000REP       President                                               OVER VOTES                            Precinct 6                                             01 
01050090009000000000000000000000000000000000000REP       President                                               OVER VOTES                            Precinct 7                                             01 
01050090010000000000000000000000000000000000000REP       President                                               OVER VOTES                            Precinct 8                                             01 
01050090011000000000000000000000000000000000000REP       President                                               OVER VOTES                            Precinct 9                                             01 
01050090012000000000000000000000000000000000000REP       President                                               OVER VOTES                            Precinct 10                                            01 
01050090013000000000000000000000000000000000000REP       President                                               OVER VOTES                            Precinct 11                                            01 
01050090014000000000000000000000000000000000000REP       President                                               OVER VOTES                            Precinct 12                                            01 
01050090015000000000000000000000000000000000000REP       President                                               OVER VOTES                            Precinct 13                                            01 
01050090016000000000000000000000000000000000000REP       President                                               OVER VOTES                            Precinct 14                                            01 
01050090017000000000000000000000000000000000000REP       President                                               OVER VOTES                            Precinct 14A                                           01 
01050100001000009000007000002000000000000000000REP       President                                               UNDER VOTES                           Precinct 1                                             01 
01050100002000001000001000000000000000000000000REP       President                                               UNDER VOTES                           Precinct 1A                                            01 
01050100003000002000001000001000000000000000000REP       President                                               UNDER VOTES                           Precinct 2                                             01 
01050100004000001000000000001000000000000000000REP       President                                               UNDER VOTES                           Precinct 3                                             01 
01050100005000003000000000003000000000000000000REP       President                                               UNDER VOTES                           Precinct 4                                             01 
01050100006000001000000000001000000000000000000REP       President                                               UNDER VOTES                           Precinct 5                                             01 
01050100007000000000000000000000000000000000000REP       President                                               UNDER VOTES                           Precinct 5A                                            01 
01050100008000004000001000003000000000000000000REP       President                                               UNDER VOTES                           Precinct 6                                             01 
01050100009000005000001000004000000000000000000REP       President                                               UNDER VOTES                           Precinct 7                                             01 
01050100010000004000000000004000000000000000000REP       President                                               UNDER VOTES                           Precinct 8                                             01 
01050100011000004000001000003000000000000000000REP       President                                               UNDER VOTES                           Precinct 9                                             01 
01050100012000002000000000002000000000000000000REP       President                                               UNDER VOTES                           Precinct 10                                            01 
01050100013000003000001000002000000000000000000REP       President                                               UNDER VOTES                           Precinct 11                                            01 
01050100014000006000001000005000000000000000000REP       President                                               UNDER VOTES                           Precinct 12                                            01 
01050100015000003000002000001000000000000000000REP       President                                               UNDER VOTES                           Precinct 13                                            01 
01050100016000000000000000000000000000000000000REP       President                                               UNDER VOTES                           Precinct 14                                            01 
01050100017000002000000000002000000000000000000REP       President                                               UNDER VOTES                           Precinct 14A                                           01 
01060010001000063000038000023000002000000000000REP       United States Senator                                   Mark Yancey                           Precinct 1                                             01 
01060010002000010000005000003000002000000000000REP       United States Senator                                   Mark Yancey                           Precinct 1A                                            01 
01060010003000011000004000006000001000000000000REP       United States Senator                                   Mark Yancey                           Precinct 2                                             01 
01060010004000022000009000012000001000000000000REP       United States Senator                                   Mark Yancey                           Precinct 3                                             01 
01060010005000030000002000028000000000000000000REP       United States Senator                                   Mark Yancey                           Precinct 4                                             01 
01060010006000019000005000014000000000000000000REP       United States Senator                                   Mark Yancey                           Precinct 5                                             01 
01060010007000000000000000000000000000000000000REP       United States Senator                                   Mark Yancey                           Precinct 5A                                            01 
01060010008000031000003000028000000000000000000REP       United States Senator                                   Mark Yancey                           Precinct 6                                             01 
01060010009000022000005000016000001000000000000REP       United States Senator                                   Mark Yancey                           Precinct 7                                             01 
01060010010000053000009000043000001000000000000REP       United States Senator                                   Mark Yancey                           Precinct 8                                             01 
01060010011000016000007000009000000000000000000REP       United States Senator                                   Mark Yancey                           Precinct 9                                             01 
01060010012000045000016000029000000000000000000REP       United States Senator                                   Mark Yancey                           Precinct 10                                            01 
01060010013000025000007000017000001000000000000REP       United States Senator                                   Mark Yancey                           Precinct 11                                            01 
01060010014000019000006000013000000000000000000REP       United States Senator                                   Mark Yancey                           Precinct 12                                            01 
01060010015000031000008000023000000000000000000REP       United States Senator                                   Mark Yancey                           Precinct 13                                            01 
01060010016000004000002000002000000000000000000REP       United States Senator                                   Mark Yancey                           Precinct 14                                            01 
01060010017000007000004000003000000000000000000REP       United States Senator                                   Mark Yancey                           Precinct 14A                                           01 
01060020001000055000038000016000001000000000000REP       United States Senator                                   Dwayne Stovall                        Precinct 1                                             01 
01060020002000012000012000000000000000000000000REP       United States Senator                                   Dwayne Stovall                        Precinct 1A                                            01 
01060020003000021000011000010000000000000000000REP       United States Senator                                   Dwayne Stovall                        Precinct 2                                             01 
01060020004000031000016000013000002000000000000REP       United States Senator                                   Dwayne Stovall                        Precinct 3                                             01 
01060020005000040000002000036000002000000000000REP       United States Senator                                   Dwayne Stovall                        Precinct 4                                             01 
01060020006000022000007000014000001000000000000REP       United States Senator                                   Dwayne Stovall                        Precinct 5                                             01 
01060020007000005000003000002000000000000000000REP       United States Senator                                   Dwayne Stovall                        Precinct 5A                                            01 
01060020008000050000008000040000002000000000000REP       United States Senator                                   Dwayne Stovall                        Precinct 6                                             01 
01060020009000030000004000026000000000000000000REP       United States Senator                                   Dwayne Stovall                        Precinct 7                                             01 
01060020010000045000015000030000000000000000000REP       United States Senator                                   Dwayne Stovall                        Precinct 8                                             01 
01060020011000008000003000005000000000000000000REP       United States Senator                                   Dwayne Stovall                        Precinct 9                                             01 
01060020012000051000014000035000002000000000000REP       United States Senator                                   Dwayne Stovall                        Precinct 10                                            01 
01060020013000034000011000022000001000000000000REP       United States Senator                                   Dwayne Stovall                        Precinct 11                                            01 
01060020014000020000004000016000000000000000000REP       United States Senator                                   Dwayne Stovall                        Precinct 12                                            01 
01060020015000027000016000011000000000000000000REP       United States Senator                                   Dwayne Stovall                        Precinct 13                                            01 
01060020016000006000003000002000001000000000000REP       United States Senator                                   Dwayne Stovall                        Precinct 14                                            01 
01060020017000011000005000006000000000000000000REP       United States Senator                                   Dwayne Stovall                        Precinct 14A                                           01 
01060030001000011000007000004000000000000000000REP       United States Senator                                   John Anthony Castro                   Precinct 1                                             01 
01060030002000000000000000000000000000000000000REP       United States Senator                                   John Anthony Castro                   Precinct 1A                                            01 
01060030003000005000004000001000000000000000000REP       United States Senator                                   John Anthony Castro                   Precinct 2                                             01 
01060030004000006000004000002000000000000000000REP       United States Senator                                   John Anthony Castro                   Precinct 3                                             01 
01060030005000004000001000003000000000000000000REP       United States Senator                                   John Anthony Castro                   Precinct 4                                             01 
01060030006000001000000000001000000000000000000REP       United States Senator                                   John Anthony Castro                   Precinct 5                                             01 
01060030007000001000000000001000000000000000000REP       United States Senator                                   John Anthony Castro                   Precinct 5A                                            01 
01060030008000008000003000005000000000000000000REP       United States Senator                                   John Anthony Castro                   Precinct 6                                             01 
01060030009000004000002000002000000000000000000REP       United States Senator                                   John Anthony Castro                   Precinct 7                                             01 
01060030010000017000006000010000001000000000000REP       United States Senator                                   John Anthony Castro                   Precinct 8                                             01 
01060030011000003000000000003000000000000000000REP       United States Senator                                   John Anthony Castro                   Precinct 9                                             01 
01060030012000012000002000010000000000000000000REP       United States Senator                                   John Anthony Castro                   Precinct 10                                            01 
01060030013000014000004000010000000000000000000REP       United States Senator                                   John Anthony Castro                   Precinct 11                                            01 
01060030014000003000000000003000000000000000000REP       United States Senator                                   John Anthony Castro                   Precinct 12                                            01 
01060030015000008000002000006000000000000000000REP       United States Senator                                   John Anthony Castro                   Precinct 13                                            01 
01060030016000003000001000002000000000000000000REP       United States Senator                                   John Anthony Castro                   Precinct 14                                            01 
01060030017000002000001000001000000000000000000REP       United States Senator                                   John Anthony Castro                   Precinct 14A                                           01 
01060040001000002000002000000000000000000000000REP       United States Senator                                   Virgil Bierschwale                    Precinct 1                                             01 
01060040002000001000001000000000000000000000000REP       United States Senator                                   Virgil Bierschwale                    Precinct 1A                                            01 
01060040003000004000001000003000000000000000000REP       United States Senator                                   Virgil Bierschwale                    Precinct 2                                             01 
01060040004000001000000000001000000000000000000REP       United States Senator                                   Virgil Bierschwale                    Precinct 3                                             01 
01060040005000003000000000003000000000000000000REP       United States Senator                                   Virgil Bierschwale                    Precinct 4                                             01 
01060040006000000000000000000000000000000000000REP       United States Senator                                   Virgil Bierschwale                    Precinct 5                                             01 
01060040007000000000000000000000000000000000000REP       United States Senator                                   Virgil Bierschwale                    Precinct 5A                                            01 
01060040008000005000001000003000000000001000000REP       United States Senator                                   Virgil Bierschwale                    Precinct 6                                             01 
01060040009000001000000000001000000000000000000REP       United States Senator                                   Virgil Bierschwale                    Precinct 7                                             01 
01060040010000004000000000004000000000000000000REP       United States Senator                                   Virgil Bierschwale                    Precinct 8                                             01 
01060040011000005000003000002000000000000000000REP       United States Senator                                   Virgil Bierschwale                    Precinct 9                                             01 
01060040012000004000002000002000000000000000000REP       United States Senator                                   Virgil Bierschwale                    Precinct 10                                            01 
01060040013000002000001000001000000000000000000REP       United States Senator                                   Virgil Bierschwale                    Precinct 11                                            01 
01060040014000002000000000002000000000000000000REP       United States Senator                                   Virgil Bierschwale                    Precinct 12                                            01 
01060040015000005000002000003000000000000000000REP       United States Senator                                   Virgil Bierschwale                    Precinct 13                                            01 
01060040016000000000000000000000000000000000000REP       United States Senator                                   Virgil Bierschwale                    Precinct 14                                            01 
01060040017000000000000000000000000000000000000REP       United States Senator                                   Virgil Bierschwale                    Precinct 14A                                           01 
01060050001000358000229000105000023000001000000REP       United States Senator                                   John Cornyn                           Precinct 1                                             01 
01060050002000056000037000016000003000000000000REP       United States Senator                                   John Cornyn                           Precinct 1A                                            01 
01060050003000090000040000046000004000000000000REP       United States Senator                                   John Cornyn                           Precinct 2                                             01 
01060050004000141000064000070000007000000000000REP       United States Senator                                   John Cornyn                           Precinct 3                                             01 
01060050005000154000023000118000013000000000000REP       United States Senator                                   John Cornyn                           Precinct 4                                             01 
01060050006000137000057000072000008000000000000REP       United States Senator                                   John Cornyn                           Precinct 5                                             01 
01060050007000005000002000003000000000000000000REP       United States Senator                                   John Cornyn                           Precinct 5A                                            01 
01060050008000305000047000247000011000000000000REP       United States Senator                                   John Cornyn                           Precinct 6                                             01 
01060050009000152000046000097000009000000000000REP       United States Senator                                   John Cornyn                           Precinct 7                                             01 
01060050010000259000077000168000014000000000000REP       United States Senator                                   John Cornyn                           Precinct 8                                             01 
01060050011000079000039000036000004000000000000REP       United States Senator                                   John Cornyn                           Precinct 9                                             01 
01060050012000266000104000140000020000002000000REP       United States Senator                                   John Cornyn                           Precinct 10                                            01 
01060050013000199000063000123000012000001000000REP       United States Senator                                   John Cornyn                           Precinct 11                                            01 
01060050014000123000026000086000011000000000000REP       United States Senator                                   John Cornyn                           Precinct 12                                            01 
01060050015000199000090000086000021000002000000REP       United States Senator                                   John Cornyn                           Precinct 13                                            01 
01060050016000045000028000013000004000000000000REP       United States Senator                                   John Cornyn                           Precinct 14                                            01 
01060050017000065000025000035000005000000000000REP       United States Senator                                   John Cornyn                           Precinct 14A                                           01 
01060060001000000000000000000000000000000000000REP       United States Senator                                   OVER VOTES                            Precinct 1                                             01 
01060060002000000000000000000000000000000000000REP       United States Senator                                   OVER VOTES                            Precinct 1A                                            01 
01060060003000000000000000000000000000000000000REP       United States Senator                                   OVER VOTES                            Precinct 2                                             01 
01060060004000000000000000000000000000000000000REP       United States Senator                                   OVER VOTES                            Precinct 3                                             01 
01060060005000000000000000000000000000000000000REP       United States Senator                                   OVER VOTES                            Precinct 4                                             01 
01060060006000000000000000000000000000000000000REP       United States Senator                                   OVER VOTES                            Precinct 5                                             01 
01060060007000000000000000000000000000000000000REP       United States Senator                                   OVER VOTES                            Precinct 5A                                            01 
01060060008000000000000000000000000000000000000REP       United States Senator                                   OVER VOTES                            Precinct 6                                             01 
01060060009000000000000000000000000000000000000REP       United States Senator                                   OVER VOTES                            Precinct 7                                             01 
01060060010000000000000000000000000000000000000REP       United States Senator                                   OVER VOTES                            Precinct 8                                             01 
01060060011000000000000000000000000000000000000REP       United States Senator                                   OVER VOTES                            Precinct 9                                             01 
01060060012000000000000000000000000000000000000REP       United States Senator                                   OVER VOTES                            Precinct 10                                            01 
01060060013000000000000000000000000000000000000REP       United States Senator                                   OVER VOTES                            Precinct 11                                            01 
01060060014000000000000000000000000000000000000REP       United States Senator                                   OVER VOTES                            Precinct 12                                            01 
01060060015000000000000000000000000000000000000REP       United States Senator                                   OVER VOTES                            Precinct 13                                            01 
01060060016000000000000000000000000000000000000REP       United States Senator                                   OVER VOTES                            Precinct 14                                            01 
01060060017000000000000000000000000000000000000REP       United States Senator                                   OVER VOTES                            Precinct 14A                                           01 
01060070001000064000040000024000000000000000000REP       United States Senator                                   UNDER VOTES                           Precinct 1                                             01 
01060070002000007000004000003000000000000000000REP       United States Senator                                   UNDER VOTES                           Precinct 1A                                            01 
01060070003000025000015000009000001000000000000REP       United States Senator                                   UNDER VOTES                           Precinct 2                                             01 
01060070004000020000010000010000000000000000000REP       United States Senator                                   UNDER VOTES                           Precinct 3                                             01 
01060070005000029000005000024000000000000000000REP       United States Senator                                   UNDER VOTES                           Precinct 4                                             01 
01060070006000014000004000010000000000000000000REP       United States Senator                                   UNDER VOTES                           Precinct 5                                             01 
01060070007000004000001000003000000000000000000REP       United States Senator                                   UNDER VOTES                           Precinct 5A                                            01 
01060070008000021000003000018000000000000000000REP       United States Senator                                   UNDER VOTES                           Precinct 6                                             01 
01060070009000038000009000027000001000001000000REP       United States Senator                                   UNDER VOTES                           Precinct 7                                             01 
01060070010000044000019000024000001000000000000REP       United States Senator                                   UNDER VOTES                           Precinct 8                                             01 
01060070011000020000006000014000000000000000000REP       United States Senator                                   UNDER VOTES                           Precinct 9                                             01 
01060070012000043000011000032000000000000000000REP       United States Senator                                   UNDER VOTES                           Precinct 10                                            01 
01060070013000038000014000024000000000000000000REP       United States Senator                                   UNDER VOTES                           Precinct 11                                            01 
01060070014000023000001000022000000000000000000REP       United States Senator                                   UNDER VOTES                           Precinct 12                                            01 
01060070015000029000012000017000000000000000000REP       United States Senator                                   UNDER VOTES                           Precinct 13                                            01 
01060070016000002000001000001000000000000000000REP       United States Senator                                   UNDER VOTES                           Precinct 14                                            01 
01060070017000010000006000004000000000000000000REP       United States Senator                                   UNDER VOTES                           Precinct 14A                                           01 
01070010001000053000040000011000002000000000000REP       US Representative, District 8                           Kirk Osborn                           Precinct 1                                             01 
01070010003000012000003000009000000000000000000REP       US Representative, District 8                           Kirk Osborn                           Precinct 2                                             01 
01070010004000021000009000009000003000000000000REP       US Representative, District 8                           Kirk Osborn                           Precinct 3                                             01 
01070010005000020000001000019000000000000000000REP       US Representative, District 8                           Kirk Osborn                           Precinct 4                                             01 
01070010006000015000004000010000001000000000000REP       US Representative, District 8                           Kirk Osborn                           Precinct 5                                             01 
01070010008000031000002000027000002000000000000REP       US Representative, District 8                           Kirk Osborn                           Precinct 6                                             01 
01070010016000005000004000001000000000000000000REP       US Representative, District 8                           Kirk Osborn                           Precinct 14                                            01 
01070020001000433000277000131000024000001000000REP       US Representative, District 8                           Kevin Brady                           Precinct 1                                             01 
01070020003000126000061000059000006000000000000REP       US Representative, District 8                           Kevin Brady                           Precinct 2                                             01 
01070020004000181000084000090000007000000000000REP       US Representative, District 8                           Kevin Brady                           Precinct 3                                             01 
01070020005000208000026000167000015000000000000REP       US Representative, District 8                           Kevin Brady                           Precinct 4                                             01 
01070020006000168000067000093000008000000000000REP       US Representative, District 8                           Kevin Brady                           Precinct 5                                             01 
01070020008000343000052000279000011000001000000REP       US Representative, District 8                           Kevin Brady                           Precinct 6                                             01 
01070020016000051000029000017000005000000000000REP       US Representative, District 8                           Kevin Brady                           Precinct 14                                            01 
01070030001000019000011000008000000000000000000REP       US Representative, District 8                           Melissa Esparza-Mathis                Precinct 1                                             01 
01070030003000004000002000002000000000000000000REP       US Representative, District 8                           Melissa Esparza-Mathis                Precinct 2                                             01 
01070030004000006000002000004000000000000000000REP       US Representative, District 8                           Melissa Esparza-Mathis                Precinct 3                                             01 
01070030005000009000003000006000000000000000000REP       US Representative, District 8                           Melissa Esparza-Mathis                Precinct 4                                             01 
01070030006000003000000000003000000000000000000REP       US Representative, District 8                           Melissa Esparza-Mathis                Precinct 5                                             01 
01070030008000018000008000010000000000000000000REP       US Representative, District 8                           Melissa Esparza-Mathis                Precinct 6                                             01 
01070030016000002000001000001000000000000000000REP       US Representative, District 8                           Melissa Esparza-Mathis                Precinct 14                                            01 
01070040001000000000000000000000000000000000000REP       US Representative, District 8                           OVER VOTES                            Precinct 1                                             01 
01070040003000000000000000000000000000000000000REP       US Representative, District 8                           OVER VOTES                            Precinct 2                                             01 
01070040004000000000000000000000000000000000000REP       US Representative, District 8                           OVER VOTES                            Precinct 3                                             01 
01070040005000000000000000000000000000000000000REP       US Representative, District 8                           OVER VOTES                            Precinct 4                                             01 
01070040006000000000000000000000000000000000000REP       US Representative, District 8                           OVER VOTES                            Precinct 5                                             01 
01070040008000000000000000000000000000000000000REP       US Representative, District 8                           OVER VOTES                            Precinct 6                                             01 
01070040016000000000000000000000000000000000000REP       US Representative, District 8                           OVER VOTES                            Precinct 14                                            01 
01070050001000048000026000022000000000000000000REP       US Representative, District 8                           UNDER VOTES                           Precinct 1                                             01 
01070050003000014000009000005000000000000000000REP       US Representative, District 8                           UNDER VOTES                           Precinct 2                                             01 
01070050004000013000008000005000000000000000000REP       US Representative, District 8                           UNDER VOTES                           Precinct 3                                             01 
01070050005000023000003000020000000000000000000REP       US Representative, District 8                           UNDER VOTES                           Precinct 4                                             01 
01070050006000007000002000005000000000000000000REP       US Representative, District 8                           UNDER VOTES                           Precinct 5                                             01 
01070050008000028000003000025000000000000000000REP       US Representative, District 8                           UNDER VOTES                           Precinct 6                                             01 
01070050016000002000001000001000000000000000000REP       US Representative, District 8                           UNDER VOTES                           Precinct 14                                            01 
01080010002000002000001000000000001000000000000REP       US Representative, District 17                          Jeff Oppenheim                        Precinct 1A                                            01 
01080010007000000000000000000000000000000000000REP       US Representative, District 17                          Jeff Oppenheim                        Precinct 5A                                            01 
01080010009000004000001000003000000000000000000REP       US Representative, District 17                          Jeff Oppenheim                        Precinct 7                                             01 
01080010010000007000000000007000000000000000000REP       US Representative, District 17                          Jeff Oppenheim                        Precinct 8                                             01 
01080010011000002000000000002000000000000000000REP       US Representative, District 17                          Jeff Oppenheim                        Precinct 9                                             01 
01080010012000006000001000005000000000000000000REP       US Representative, District 17                          Jeff Oppenheim                        Precinct 10                                            01 
01080010013000001000000000001000000000000000000REP       US Representative, District 17                          Jeff Oppenheim                        Precinct 11                                            01 
01080010014000002000000000002000000000000000000REP       US Representative, District 17                          Jeff Oppenheim                        Precinct 12                                            01 
01080010015000001000000000000000000000001000000REP       US Representative, District 17                          Jeff Oppenheim                        Precinct 13                                            01 
01080010017000000000000000000000000000000000000REP       US Representative, District 17                          Jeff Oppenheim                        Precinct 14A                                           01 
01080020002000006000005000001000000000000000000REP       US Representative, District 17                          Trent Sutton                          Precinct 1A                                            01 
01080020007000000000000000000000000000000000000REP       US Representative, District 17                          Trent Sutton                          Precinct 5A                                            01 
01080020009000016000008000008000000000000000000REP       US Representative, District 17                          Trent Sutton                          Precinct 7                                             01 
01080020010000029000011000018000000000000000000REP       US Representative, District 17                          Trent Sutton                          Precinct 8                                             01 
01080020011000006000002000004000000000000000000REP       US Representative, District 17                          Trent Sutton                          Precinct 9                                             01 
01080020012000043000016000024000003000000000000REP       US Representative, District 17                          Trent Sutton                          Precinct 10                                            01 
01080020013000025000009000016000000000000000000REP       US Representative, District 17                          Trent Sutton                          Precinct 11                                            01 
01080020014000013000006000007000000000000000000REP       US Representative, District 17                          Trent Sutton                          Precinct 12                                            01 
01080020015000015000004000011000000000000000000REP       US Representative, District 17                          Trent Sutton                          Precinct 13                                            01 
01080020017000005000002000003000000000000000000REP       US Representative, District 17                          Trent Sutton                          Precinct 14A                                           01 
01080030002000001000000000001000000000000000000REP       US Representative, District 17                          Scott Bland                           Precinct 1A                                            01 
01080030007000000000000000000000000000000000000REP       US Representative, District 17                          Scott Bland                           Precinct 5A                                            01 
01080030009000004000002000002000000000000000000REP       US Representative, District 17                          Scott Bland                           Precinct 7                                             01 
01080030010000002000000000002000000000000000000REP       US Representative, District 17                          Scott Bland                           Precinct 8                                             01 
01080030011000000000000000000000000000000000000REP       US Representative, District 17                          Scott Bland                           Precinct 9                                             01 
01080030012000008000005000003000000000000000000REP       US Representative, District 17                          Scott Bland                           Precinct 10                                            01 
01080030013000001000000000001000000000000000000REP       US Representative, District 17                          Scott Bland                           Precinct 11                                            01 
01080030014000007000000000007000000000000000000REP       US Representative, District 17                          Scott Bland                           Precinct 12                                            01 
01080030015000001000001000000000000000000000000REP       US Representative, District 17                          Scott Bland                           Precinct 13                                            01 
01080030017000001000001000000000000000000000000REP       US Representative, District 17                          Scott Bland                           Precinct 14A                                           01 
01080040002000000000000000000000000000000000000REP       US Representative, District 17                          Ahmad Adnan                           Precinct 1A                                            01 
01080040007000000000000000000000000000000000000REP       US Representative, District 17                          Ahmad Adnan                           Precinct 5A                                            01 
01080040009000000000000000000000000000000000000REP       US Representative, District 17                          Ahmad Adnan                           Precinct 7                                             01 
01080040010000003000000000003000000000000000000REP       US Representative, District 17                          Ahmad Adnan                           Precinct 8                                             01 
01080040011000000000000000000000000000000000000REP       US Representative, District 17                          Ahmad Adnan                           Precinct 9                                             01 
01080040012000000000000000000000000000000000000REP       US Representative, District 17                          Ahmad Adnan                           Precinct 10                                            01 
01080040013000001000000000001000000000000000000REP       US Representative, District 17                          Ahmad Adnan                           Precinct 11                                            01 
01080040014000001000000000001000000000000000000REP       US Representative, District 17                          Ahmad Adnan                           Precinct 12                                            01 
01080040015000000000000000000000000000000000000REP       US Representative, District 17                          Ahmad Adnan                           Precinct 13                                            01 
01080040017000002000000000002000000000000000000REP       US Representative, District 17                          Ahmad Adnan                           Precinct 14A                                           01 
01080050002000001000001000000000000000000000000REP       US Representative, District 17                          Laurie Godfrey McReynolds             Precinct 1A                                            01 
01080050007000000000000000000000000000000000000REP       US Representative, District 17                          Laurie Godfrey McReynolds             Precinct 5A                                            01 
01080050009000000000000000000000000000000000000REP       US Representative, District 17                          Laurie Godfrey McReynolds             Precinct 7                                             01 
01080050010000001000000000001000000000000000000REP       US Representative, District 17                          Laurie Godfrey McReynolds             Precinct 8                                             01 
01080050011000002000002000000000000000000000000REP       US Representative, District 17                          Laurie Godfrey McReynolds             Precinct 9                                             01 
01080050012000004000001000003000000000000000000REP       US Representative, District 17                          Laurie Godfrey McReynolds             Precinct 10                                            01 
01080050013000001000000000001000000000000000000REP       US Representative, District 17                          Laurie Godfrey McReynolds             Precinct 11                                            01 
01080050014000003000001000002000000000000000000REP       US Representative, District 17                          Laurie Godfrey McReynolds             Precinct 12                                            01 
01080050015000001000000000001000000000000000000REP       US Representative, District 17                          Laurie Godfrey McReynolds             Precinct 13                                            01 
01080050017000001000000000001000000000000000000REP       US Representative, District 17                          Laurie Godfrey McReynolds             Precinct 14A                                           01 
01080060002000001000001000000000000000000000000REP       US Representative, District 17                          David Saucedo                         Precinct 1A                                            01 
01080060007000000000000000000000000000000000000REP       US Representative, District 17                          David Saucedo                         Precinct 5A                                            01 
01080060009000001000000000001000000000000000000REP       US Representative, District 17                          David Saucedo                         Precinct 7                                             01 
01080060010000005000002000003000000000000000000REP       US Representative, District 17                          David Saucedo                         Precinct 8                                             01 
01080060011000003000000000003000000000000000000REP       US Representative, District 17                          David Saucedo                         Precinct 9                                             01 
01080060012000003000000000003000000000000000000REP       US Representative, District 17                          David Saucedo                         Precinct 10                                            01 
01080060013000004000000000004000000000000000000REP       US Representative, District 17                          David Saucedo                         Precinct 11                                            01 
01080060014000000000000000000000000000000000000REP       US Representative, District 17                          David Saucedo                         Precinct 12                                            01 
01080060015000001000000000001000000000000000000REP       US Representative, District 17                          David Saucedo                         Precinct 13                                            01 
01080060017000000000000000000000000000000000000REP       US Representative, District 17                          David Saucedo                         Precinct 14A                                           01 
01080070002000003000003000000000000000000000000REP       US Representative, District 17                          Elianor Vessali                       Precinct 1A                                            01 
01080070007000000000000000000000000000000000000REP       US Representative, District 17                          Elianor Vessali                       Precinct 5A                                            01 
01080070009000026000007000019000000000000000000REP       US Representative, District 17                          Elianor Vessali                       Precinct 7                                             01 
01080070010000028000007000021000000000000000000REP       US Representative, District 17                          Elianor Vessali                       Precinct 8                                             01 
01080070011000004000002000002000000000000000000REP       US Representative, District 17                          Elianor Vessali                       Precinct 9                                             01 
01080070012000024000006000018000000000000000000REP       US Representative, District 17                          Elianor Vessali                       Precinct 10                                            01 
01080070013000011000005000006000000000000000000REP       US Representative, District 17                          Elianor Vessali                       Precinct 11                                            01 
01080070014000008000001000007000000000000000000REP       US Representative, District 17                          Elianor Vessali                       Precinct 12                                            01 
01080070015000012000004000008000000000000000000REP       US Representative, District 17                          Elianor Vessali                       Precinct 13                                            01 
01080070017000002000001000001000000000000000000REP       US Representative, District 17                          Elianor Vessali                       Precinct 14A                                           01 
01080080002000017000014000001000002000000000000REP       US Representative, District 17                          Rene Swann                           Precinct 1A                                            01 
01080080007000003000002000001000000000000000000REP       US Representative, District 17                          Rene Swann                           Precinct 5A                                            01 
01080080009000040000012000022000005000001000000REP       US Representative, District 17                          Rene Swann                           Precinct 7                                             01 
01080080010000045000014000030000001000000000000REP       US Representative, District 17                          Rene Swann                           Precinct 8                                             01 
01080080011000016000008000006000002000000000000REP       US Representative, District 17                          Rene Swann                           Precinct 9                                             01 
01080080012000061000030000028000003000000000000REP       US Representative, District 17                          Rene Swann                           Precinct 10                                            01 
01080080013000048000013000031000003000001000000REP       US Representative, District 17                          Rene Swann                           Precinct 11                                            01 
01080080014000036000005000023000008000000000000REP       US Representative, District 17                          Rene Swann                           Precinct 12                                            01 
01080080015000068000038000029000001000000000000REP       US Representative, District 17                          Rene Swann                           Precinct 13                                            01 
01080080017000019000006000012000001000000000000REP       US Representative, District 17                          Rene Swann                           Precinct 14A                                           01 
01080090002000003000002000001000000000000000000REP       US Representative, District 17                          Todd Kent                             Precinct 1A                                            01 
