00010010001002578000000000000000000000000000000000000000000000000000000000000000000000000000000000000          REGISTERED VOTERS - TOTAL                               REGISTERED VOTERS - TOTAL             Precinct 101                                           00 
00010010002001731000000000000000000000000000000000000000000000000000000000000000000000000000000000000          REGISTERED VOTERS - TOTAL                               REGISTERED VOTERS - TOTAL             Precinct 201                                           00 
00010010003001664000000000000000000000000000000000000000000000000000000000000000000000000000000000000          REGISTERED VOTERS - TOTAL                               REGISTERED VOTERS - TOTAL             Precinct 202                                           00 
00010010004000069000000000000000000000000000000000000000000000000000000000000000000000000000000000000          REGISTERED VOTERS - TOTAL                               REGISTERED VOTERS - TOTAL             Precinct 203                                           00 
00010010005001942000000000000000000000000000000000000000000000000000000000000000000000000000000000000          REGISTERED VOTERS - TOTAL                               REGISTERED VOTERS - TOTAL             Precinct 301                                           00 
00010010006001069000000000000000000000000000000000000000000000000000000000000000000000000000000000000          REGISTERED VOTERS - TOTAL                               REGISTERED VOTERS - TOTAL             Precinct 401                                           00 
00010010007000741000000000000000000000000000000000000000000000000000000000000000000000000000000000000          REGISTERED VOTERS - TOTAL                               REGISTERED VOTERS - TOTAL             Precinct 402                                           00 
00040010001000545000299000235000011000000000000000000000000000000000000000000000000000000000000000000REP       BALLOTS CAST - Republican Party                         BALLOTS CAST - Republican Party       Precinct 101                                           00 
00040010002000572000316000249000007000000000000000000000000000000000000000000000000000000000000000000REP       BALLOTS CAST - Republican Party                         BALLOTS CAST - Republican Party       Precinct 201                                           00 
00040010003000646000298000325000023000000000000000000000000000000000000000000000000000000000000000000REP       BALLOTS CAST - Republican Party                         BALLOTS CAST - Republican Party       Precinct 202                                           00 
00040010004000025000025000000000000000000000000000000000000000000000000000000000000000000000000000000REP       BALLOTS CAST - Republican Party                         BALLOTS CAST - Republican Party       Precinct 203                                           00 
00040010005000271000165000095000011000000000000000000000000000000000000000000000000000000000000000000REP       BALLOTS CAST - Republican Party                         BALLOTS CAST - Republican Party       Precinct 301                                           00 
00040010006000306000246000057000003000000000000000000000000000000000000000000000000000000000000000000REP       BALLOTS CAST - Republican Party                         BALLOTS CAST - Republican Party       Precinct 401                                           00 
00040010007000021000019000002000000000000000000000000000000000000000000000000000000000000000000000000REP       BALLOTS CAST - Republican Party                         BALLOTS CAST - Republican Party       Precinct 402                                           00 
00050010001000511000277000224000010000000000000000000000000000000000000000000000000000000000000000000REP       REP President                                           Donald J. Trump                       Precinct 101                                           01 
00050010002000532000291000234000007000000000000000000000000000000000000000000000000000000000000000000REP       REP President                                           Donald J. Trump                       Precinct 201                                           01 
00050010003000601000280000299000022000000000000000000000000000000000000000000000000000000000000000000REP       REP President                                           Donald J. Trump                       Precinct 202                                           01 
00050010004000024000024000000000000000000000000000000000000000000000000000000000000000000000000000000REP       REP President                                           Donald J. Trump                       Precinct 203                                           01 
00050010005000248000149000088000011000000000000000000000000000000000000000000000000000000000000000000REP       REP President                                           Donald J. Trump                       Precinct 301                                           01 
00050010006000296000237000056000003000000000000000000000000000000000000000000000000000000000000000000REP       REP President                                           Donald J. Trump                       Precinct 401                                           01 
00050010007000010000010000000000000000000000000000000000000000000000000000000000000000000000000000000REP       REP President                                           Donald J. Trump                       Precinct 402                                           01 
00050020001000000000000000000000000000000000000000000000000000000000000000000000000000000000000000000REP       REP President                                           Bill Weld                             Precinct 101                                           01 
00050020002000000000000000000000000000000000000000000000000000000000000000000000000000000000000000000REP       REP President                                           Bill Weld                             Precinct 201                                           01 
00050020003000004000001000003000000000000000000000000000000000000000000000000000000000000000000000000REP       REP President                                           Bill Weld                             Precinct 202                                           01 
00050020004000000000000000000000000000000000000000000000000000000000000000000000000000000000000000000REP       REP President                                           Bill Weld                             Precinct 203                                           01 
00050020005000003000002000001000000000000000000000000000000000000000000000000000000000000000000000000REP       REP President                                           Bill Weld                             Precinct 301                                           01 
00050020006000000000000000000000000000000000000000000000000000000000000000000000000000000000000000000REP       REP President                                           Bill Weld                             Precinct 401                                           01 
00050020007000001000000000001000000000000000000000000000000000000000000000000000000000000000000000000REP       REP President                                           Bill Weld                             Precinct 402                                           01 
00050030001000008000005000003000000000000000000000000000000000000000000000000000000000000000000000000REP       REP President                                           Roque Rocky DeLa Fuente Guerra        Precinct 101                                           01 
00050030002000005000003000002000000000000000000000000000000000000000000000000000000000000000000000000REP       REP President                                           Roque Rocky DeLa Fuente Guerra        Precinct 201                                           01 
00050030003000004000002000002000000000000000000000000000000000000000000000000000000000000000000000000REP       REP President                                           Roque Rocky DeLa Fuente Guerra        Precinct 202                                           01 
00050030004000000000000000000000000000000000000000000000000000000000000000000000000000000000000000000REP       REP President                                           Roque Rocky DeLa Fuente Guerra        Precinct 203                                           01 
00050030005000006000005000001000000000000000000000000000000000000000000000000000000000000000000000000REP       REP President                                           Roque Rocky DeLa Fuente Guerra        Precinct 301                                           01 
00050030006000003000003000000000000000000000000000000000000000000000000000000000000000000000000000000REP       REP President                                           Roque Rocky DeLa Fuente Guerra        Precinct 401                                           01 
00050030007000004000004000000000000000000000000000000000000000000000000000000000000000000000000000000REP       REP President                                           Roque Rocky DeLa Fuente Guerra        Precinct 402                                           01 
00050040001000002000002000000000000000000000000000000000000000000000000000000000000000000000000000000REP       REP President                                           Joe Walsh                             Precinct 101                                           01 
00050040002000001000001000000000000000000000000000000000000000000000000000000000000000000000000000000REP       REP President                                           Joe Walsh                             Precinct 201                                           01 
00050040003000003000003000000000000000000000000000000000000000000000000000000000000000000000000000000REP       REP President                                           Joe Walsh                             Precinct 202                                           01 
00050040004000000000000000000000000000000000000000000000000000000000000000000000000000000000000000000REP       REP President                                           Joe Walsh                             Precinct 203                                           01 
00050040005000002000002000000000000000000000000000000000000000000000000000000000000000000000000000000REP       REP President                                           Joe Walsh                             Precinct 301                                           01 
00050040006000003000002000001000000000000000000000000000000000000000000000000000000000000000000000000REP       REP President                                           Joe Walsh                             Precinct 401                                           01 
00050040007000003000003000000000000000000000000000000000000000000000000000000000000000000000000000000REP       REP President                                           Joe Walsh                             Precinct 402                                           01 
00050050001000000000000000000000000000000000000000000000000000000000000000000000000000000000000000000REP       REP President                                           Zoltan G. Istvan                      Precinct 101                                           01 
00050050002000000000000000000000000000000000000000000000000000000000000000000000000000000000000000000REP       REP President                                           Zoltan G. Istvan                      Precinct 201                                           01 
00050050003000000000000000000000000000000000000000000000000000000000000000000000000000000000000000000REP       REP President                                           Zoltan G. Istvan                      Precinct 202                                           01 
00050050004000000000000000000000000000000000000000000000000000000000000000000000000000000000000000000REP       REP President                                           Zoltan G. Istvan                      Precinct 203                                           01 
00050050005000001000001000000000000000000000000000000000000000000000000000000000000000000000000000000REP       REP President                                           Zoltan G. Istvan                      Precinct 301                                           01 
00050050006000000000000000000000000000000000000000000000000000000000000000000000000000000000000000000REP       REP President                                           Zoltan G. Istvan                      Precinct 401                                           01 
00050050007000000000000000000000000000000000000000000000000000000000000000000000000000000000000000000REP       REP President                                           Zoltan G. Istvan                      Precinct 402                                           01 
00050060001000000000000000000000000000000000000000000000000000000000000000000000000000000000000000000REP       REP President                                           Bob Ely                               Precinct 101                                           01 
00050060002000002000001000001000000000000000000000000000000000000000000000000000000000000000000000000REP       REP President                                           Bob Ely                               Precinct 201                                           01 
00050060003000001000000000000000001000000000000000000000000000000000000000000000000000000000000000000REP       REP President                                           Bob Ely                               Precinct 202                                           01 
00050060004000000000000000000000000000000000000000000000000000000000000000000000000000000000000000000REP       REP President                                           Bob Ely                               Precinct 203                                           01 
00050060005000000000000000000000000000000000000000000000000000000000000000000000000000000000000000000REP       REP President                                           Bob Ely                               Precinct 301                                           01 
00050060006000000000000000000000000000000000000000000000000000000000000000000000000000000000000000000REP       REP President                                           Bob Ely                               Precinct 401                                           01 
00050060007000000000000000000000000000000000000000000000000000000000000000000000000000000000000000000REP       REP President                                           Bob Ely                               Precinct 402                                           01 
00050070001000003000001000002000000000000000000000000000000000000000000000000000000000000000000000000REP       REP President                                           Matthew John Matern                   Precinct 101                                           01 
00050070002000000000000000000000000000000000000000000000000000000000000000000000000000000000000000000REP       REP President                                           Matthew John Matern                   Precinct 201                                           01 
00050070003000003000000000003000000000000000000000000000000000000000000000000000000000000000000000000REP       REP President                                           Matthew John Matern                   Precinct 202                                           01 
00050070004000000000000000000000000000000000000000000000000000000000000000000000000000000000000000000REP       REP President                                           Matthew John Matern                   Precinct 203                                           01 
00050070005000000000000000000000000000000000000000000000000000000000000000000000000000000000000000000REP       REP President                                           Matthew John Matern                   Precinct 301                                           01 
00050070006000002000002000000000000000000000000000000000000000000000000000000000000000000000000000000REP       REP President                                           Matthew John Matern                   Precinct 401                                           01 
00050070007000000000000000000000000000000000000000000000000000000000000000000000000000000000000000000REP       REP President                                           Matthew John Matern                   Precinct 402                                           01 
00050080001000017000013000004000000000000000000000000000000000000000000000000000000000000000000000000REP       REP President                                           Uncommitted                           Precinct 101                                           01 
00050080002000026000017000009000000000000000000000000000000000000000000000000000000000000000000000000REP       REP President                                           Uncommitted                           Precinct 201                                           01 
00050080003000025000010000015000000000000000000000000000000000000000000000000000000000000000000000000REP       REP President                                           Uncommitted                           Precinct 202                                           01 
00050080004000001000001000000000000000000000000000000000000000000000000000000000000000000000000000000REP       REP President                                           Uncommitted                           Precinct 203                                           01 
00050080005000009000004000005000000000000000000000000000000000000000000000000000000000000000000000000REP       REP President                                           Uncommitted                           Precinct 301                                           01 
00050080006000002000002000000000000000000000000000000000000000000000000000000000000000000000000000000REP       REP President                                           Uncommitted                           Precinct 401                                           01 
00050080007000001000001000000000000000000000000000000000000000000000000000000000000000000000000000000REP       REP President                                           Uncommitted                           Precinct 402                                           01 
00060010001000405000212000187000006000000000000000000000000000000000000000000000000000000000000000000REP       REP US Senator                                          John Cornyn                           Precinct 101                                           01 
00060010002000460000250000203000007000000000000000000000000000000000000000000000000000000000000000000REP       REP US Senator                                          John Cornyn                           Precinct 201                                           01 
00060010003000494000215000259000020000000000000000000000000000000000000000000000000000000000000000000REP       REP US Senator                                          John Cornyn                           Precinct 202                                           01 
00060010004000023000023000000000000000000000000000000000000000000000000000000000000000000000000000000REP       REP US Senator                                          John Cornyn                           Precinct 203                                           01 
00060010005000201000123000068000010000000000000000000000000000000000000000000000000000000000000000000REP       REP US Senator                                          John Cornyn                           Precinct 301                                           01 
00060010006000230000187000042000001000000000000000000000000000000000000000000000000000000000000000000REP       REP US Senator                                          John Cornyn                           Precinct 401                                           01 
00060010007000009000008000001000000000000000000000000000000000000000000000000000000000000000000000000REP       REP US Senator                                          John Cornyn                           Precinct 402                                           01 
00060020001000021000012000008000001000000000000000000000000000000000000000000000000000000000000000000REP       REP US Senator                                          Mark Yancey                           Precinct 101                                           01 
00060020002000034000020000014000000000000000000000000000000000000000000000000000000000000000000000000REP       REP US Senator                                          Mark Yancey                           Precinct 201                                           01 
00060020003000027000020000007000000000000000000000000000000000000000000000000000000000000000000000000REP       REP US Senator                                          Mark Yancey                           Precinct 202                                           01 
00060020004000000000000000000000000000000000000000000000000000000000000000000000000000000000000000000REP       REP US Senator                                          Mark Yancey                           Precinct 203                                           01 
00060020005000017000011000005000001000000000000000000000000000000000000000000000000000000000000000000REP       REP US Senator                                          Mark Yancey                           Precinct 301                                           01 
00060020006000023000016000005000002000000000000000000000000000000000000000000000000000000000000000000REP       REP US Senator                                          Mark Yancey                           Precinct 401                                           01 
00060020007000001000001000000000000000000000000000000000000000000000000000000000000000000000000000000REP       REP US Senator                                          Mark Yancey                           Precinct 402                                           01 
00060030001000001000000000001000000000000000000000000000000000000000000000000000000000000000000000000REP       REP US Senator                                          Virgil Bierschwale                    Precinct 101                                           01 
00060030002000005000002000003000000000000000000000000000000000000000000000000000000000000000000000000REP       REP US Senator                                          Virgil Bierschwale                    Precinct 201                                           01 
00060030003000004000002000002000000000000000000000000000000000000000000000000000000000000000000000000REP       REP US Senator                                          Virgil Bierschwale                    Precinct 202                                           01 
00060030004000000000000000000000000000000000000000000000000000000000000000000000000000000000000000000REP       REP US Senator                                          Virgil Bierschwale                    Precinct 203                                           01 
00060030005000001000001000000000000000000000000000000000000000000000000000000000000000000000000000000REP       REP US Senator                                          Virgil Bierschwale                    Precinct 301                                           01 
00060030006000003000002000001000000000000000000000000000000000000000000000000000000000000000000000000REP       REP US Senator                                          Virgil Bierschwale                    Precinct 401                                           01 
00060030007000000000000000000000000000000000000000000000000000000000000000000000000000000000000000000REP       REP US Senator                                          Virgil Bierschwale                    Precinct 402                                           01 
00060040001000030000020000010000000000000000000000000000000000000000000000000000000000000000000000000REP       REP US Senator                                          John Anthony Castro                   Precinct 101                                           01 
00060040002000029000016000013000000000000000000000000000000000000000000000000000000000000000000000000REP       REP US Senator                                          John Anthony Castro                   Precinct 201                                           01 
00060040003000028000012000015000001000000000000000000000000000000000000000000000000000000000000000000REP       REP US Senator                                          John Anthony Castro                   Precinct 202                                           01 
00060040004000000000000000000000000000000000000000000000000000000000000000000000000000000000000000000REP       REP US Senator                                          John Anthony Castro                   Precinct 203                                           01 
00060040005000021000011000010000000000000000000000000000000000000000000000000000000000000000000000000REP       REP US Senator                                          John Anthony Castro                   Precinct 301                                           01 
00060040006000008000007000001000000000000000000000000000000000000000000000000000000000000000000000000REP       REP US Senator                                          John Anthony Castro                   Precinct 401                                           01 
00060040007000008000007000001000000000000000000000000000000000000000000000000000000000000000000000000REP       REP US Senator                                          John Anthony Castro                   Precinct 402                                           01 
00060050001000068000042000024000002000000000000000000000000000000000000000000000000000000000000000000REP       REP US Senator                                          Dwayne Stovall                        Precinct 101                                           01 
00060050002000035000022000013000000000000000000000000000000000000000000000000000000000000000000000000REP       REP US Senator                                          Dwayne Stovall                        Precinct 201                                           01 
00060050003000073000038000035000000000000000000000000000000000000000000000000000000000000000000000000REP       REP US Senator                                          Dwayne Stovall                        Precinct 202                                           01 
00060050004000002000002000000000000000000000000000000000000000000000000000000000000000000000000000000REP       REP US Senator                                          Dwayne Stovall                        Precinct 203                                           01 
00060050005000020000013000007000000000000000000000000000000000000000000000000000000000000000000000000REP       REP US Senator                                          Dwayne Stovall                        Precinct 301                                           01 
00060050006000031000025000006000000000000000000000000000000000000000000000000000000000000000000000000REP       REP US Senator                                          Dwayne Stovall                        Precinct 401                                           01 
00060050007000002000002000000000000000000000000000000000000000000000000000000000000000000000000000000REP       REP US Senator                                          Dwayne Stovall                        Precinct 402                                           01 
00070010001000003000002000001000000000000000000000000000000000000000000000000000000000000000000000000REP       REP US Representative, Dist 13                          Monique Worthy                        Precinct 101                                           01 
00070010002000009000005000004000000000000000000000000000000000000000000000000000000000000000000000000REP       REP US Representative, Dist 13                          Monique Worthy                        Precinct 201                                           01 
00070010003000003000002000001000000000000000000000000000000000000000000000000000000000000000000000000REP       REP US Representative, Dist 13                          Monique Worthy                        Precinct 202                                           01 
00070010004000001000001000000000000000000000000000000000000000000000000000000000000000000000000000000REP       REP US Representative, Dist 13                          Monique Worthy                        Precinct 203                                           01 
00070010005000005000004000001000000000000000000000000000000000000000000000000000000000000000000000000REP       REP US Representative, Dist 13                          Monique Worthy                        Precinct 301                                           01 
00070010006000000000000000000000000000000000000000000000000000000000000000000000000000000000000000000REP       REP US Representative, Dist 13                          Monique Worthy                        Precinct 401                                           01 
00070010007000001000001000000000000000000000000000000000000000000000000000000000000000000000000000000REP       REP US Representative, Dist 13                          Monique Worthy                        Precinct 402                                           01 
00070020001000106000056000049000001000000000000000000000000000000000000000000000000000000000000000000REP       REP US Representative, Dist 13                          Vance Snider II                       Precinct 101                                           01 
00070020002000121000070000051000000000000000000000000000000000000000000000000000000000000000000000000REP       REP US Representative, Dist 13                          Vance Snider II                       Precinct 201                                           01 
00070020003000126000070000053000003000000000000000000000000000000000000000000000000000000000000000000REP       REP US Representative, Dist 13                          Vance Snider II                       Precinct 202                                           01 
00070020004000000000000000000000000000000000000000000000000000000000000000000000000000000000000000000REP       REP US Representative, Dist 13                          Vance Snider II                       Precinct 203                                           01 
00070020005000076000043000031000002000000000000000000000000000000000000000000000000000000000000000000REP       REP US Representative, Dist 13                          Vance Snider II                       Precinct 301                                           01 
00070020006000042000033000009000000000000000000000000000000000000000000000000000000000000000000000000REP       REP US Representative, Dist 13                          Vance Snider II                       Precinct 401                                           01 
00070020007000005000005000000000000000000000000000000000000000000000000000000000000000000000000000000REP       REP US Representative, Dist 13                          Vance Snider II                       Precinct 402                                           01 
00070030001000072000037000034000001000000000000000000000000000000000000000000000000000000000000000000REP       REP US Representative, Dist 13                          Chris Ekstrom                         Precinct 101                                           01 
00070030002000050000031000019000000000000000000000000000000000000000000000000000000000000000000000000REP       REP US Representative, Dist 13                          Chris Ekstrom                         Precinct 201                                           01 
00070030003000076000027000043000006000000000000000000000000000000000000000000000000000000000000000000REP       REP US Representative, Dist 13                          Chris Ekstrom                         Precinct 202                                           01 
00070030004000004000004000000000000000000000000000000000000000000000000000000000000000000000000000000REP       REP US Representative, Dist 13                          Chris Ekstrom                         Precinct 203                                           01 
00070030005000035000023000010000002000000000000000000000000000000000000000000000000000000000000000000REP       REP US Representative, Dist 13                          Chris Ekstrom                         Precinct 301                                           01 
00070030006000033000025000008000000000000000000000000000000000000000000000000000000000000000000000000REP       REP US Representative, Dist 13                          Chris Ekstrom                         Precinct 401                                           01 
00070030007000000000000000000000000000000000000000000000000000000000000000000000000000000000000000000REP       REP US Representative, Dist 13                          Chris Ekstrom                         Precinct 402                                           01 
00070040001000000000000000000000000000000000000000000000000000000000000000000000000000000000000000000REP       REP US Representative, Dist 13                          Jason Foglesong                       Precinct 101                                           01 
00070040002000000000000000000000000000000000000000000000000000000000000000000000000000000000000000000REP       REP US Representative, Dist 13                          Jason Foglesong                       Precinct 201                                           01 
00070040003000000000000000000000000000000000000000000000000000000000000000000000000000000000000000000REP       REP US Representative, Dist 13                          Jason Foglesong                       Precinct 202                                           01 
00070040004000000000000000000000000000000000000000000000000000000000000000000000000000000000000000000REP       REP US Representative, Dist 13                          Jason Foglesong                       Precinct 203                                           01 
00070040005000000000000000000000000000000000000000000000000000000000000000000000000000000000000000000REP       REP US Representative, Dist 13                          Jason Foglesong                       Precinct 301                                           01 
00070040006000001000001000000000000000000000000000000000000000000000000000000000000000000000000000000REP       REP US Representative, Dist 13                          Jason Foglesong                       Precinct 401                                           01 
00070040007000001000001000000000000000000000000000000000000000000000000000000000000000000000000000000REP       REP US Representative, Dist 13                          Jason Foglesong                       Precinct 402                                           01 
00070050001000007000003000003000001000000000000000000000000000000000000000000000000000000000000000000REP       REP US Representative, Dist 13                          Diane Knowlton                        Precinct 101                                           01 
00070050002000002000000000002000000000000000000000000000000000000000000000000000000000000000000000000REP       REP US Representative, Dist 13                          Diane Knowlton                        Precinct 201                                           01 
00070050003000003000000000003000000000000000000000000000000000000000000000000000000000000000000000000REP       REP US Representative, Dist 13                          Diane Knowlton                        Precinct 202                                           01 
00070050004000000000000000000000000000000000000000000000000000000000000000000000000000000000000000000REP       REP US Representative, Dist 13                          Diane Knowlton                        Precinct 203                                           01 
00070050005000000000000000000000000000000000000000000000000000000000000000000000000000000000000000000REP       REP US Representative, Dist 13                          Diane Knowlton                        Precinct 301                                           01 
00070050006000000000000000000000000000000000000000000000000000000000000000000000000000000000000000000REP       REP US Representative, Dist 13                          Diane Knowlton                        Precinct 401                                           01 
00070050007000001000001000000000000000000000000000000000000000000000000000000000000000000000000000000REP       REP US Representative, Dist 13                          Diane Knowlton                        Precinct 402                                           01 
00070060001000221000132000085000004000000000000000000000000000000000000000000000000000000000000000000REP       REP US Representative, Dist 13                          Josh Winegarner                       Precinct 101                                           01 
00070060002000261000139000116000006000000000000000000000000000000000000000000000000000000000000000000REP       REP US Representative, Dist 13                          Josh Winegarner                       Precinct 201                                           01 
00070060003000294000128000157000009000000000000000000000000000000000000000000000000000000000000000000REP       REP US Representative, Dist 13                          Josh Winegarner                       Precinct 202                                           01 
00070060004000011000011000000000000000000000000000000000000000000000000000000000000000000000000000000REP       REP US Representative, Dist 13                          Josh Winegarner                       Precinct 203                                           01 
00070060005000098000056000037000005000000000000000000000000000000000000000000000000000000000000000000REP       REP US Representative, Dist 13                          Josh Winegarner                       Precinct 301                                           01 
00070060006000173000141000029000003000000000000000000000000000000000000000000000000000000000000000000REP       REP US Representative, Dist 13                          Josh Winegarner                       Precinct 401                                           01 
00070060007000001000001000000000000000000000000000000000000000000000000000000000000000000000000000000REP       REP US Representative, Dist 13                          Josh Winegarner                       Precinct 402                                           01 
00070070001000004000001000003000000000000000000000000000000000000000000000000000000000000000000000000REP       REP US Representative, Dist 13                          Richard Herman                        Precinct 101                                           01 
00070070002000008000004000004000000000000000000000000000000000000000000000000000000000000000000000000REP       REP US Representative, Dist 13                          Richard Herman                        Precinct 201                                           01 
00070070003000004000002000002000000000000000000000000000000000000000000000000000000000000000000000000REP       REP US Representative, Dist 13                          Richard Herman                        Precinct 202                                           01 
00070070004000000000000000000000000000000000000000000000000000000000000000000000000000000000000000000REP       REP US Representative, Dist 13                          Richard Herman                        Precinct 203                                           01 
00070070005000003000002000001000000000000000000000000000000000000000000000000000000000000000000000000REP       REP US Representative, Dist 13                          Richard Herman                        Precinct 301                                           01 
00070070006000004000003000001000000000000000000000000000000000000000000000000000000000000000000000000REP       REP US Representative, Dist 13                          Richard Herman                        Precinct 401                                           01 
00070070007000000000000000000000000000000000000000000000000000000000000000000000000000000000000000000REP       REP US Representative, Dist 13                          Richard Herman                        Precinct 402                                           01 
00070080001000012000009000003000000000000000000000000000000000000000000000000000000000000000000000000REP       REP US Representative, Dist 13                          Asusena Resendiz                      Precinct 101                                           01 
00070080002000011000005000006000000000000000000000000000000000000000000000000000000000000000000000000REP       REP US Representative, Dist 13                          Asusena Resendiz                      Precinct 201                                           01 
00070080003000012000007000005000000000000000000000000000000000000000000000000000000000000000000000000REP       REP US Representative, Dist 13                          Asusena Resendiz                      Precinct 202                                           01 
00070080004000000000000000000000000000000000000000000000000000000000000000000000000000000000000000000REP       REP US Representative, Dist 13                          Asusena Resendiz                      Precinct 203                                           01 
00070080005000007000004000003000000000000000000000000000000000000000000000000000000000000000000000000REP       REP US Representative, Dist 13                          Asusena Resendiz                      Precinct 301                                           01 
00070080006000003000002000001000000000000000000000000000000000000000000000000000000000000000000000000REP       REP US Representative, Dist 13                          Asusena Resendiz                      Precinct 401                                           01 
00070080007000002000002000000000000000000000000000000000000000000000000000000000000000000000000000000REP       REP US Representative, Dist 13                          Asusena Resendiz                      Precinct 402                                           01 
00070090001000003000001000002000000000000000000000000000000000000000000000000000000000000000000000000REP       REP US Representative, Dist 13                          Mark Neese                            Precinct 101                                           01 
00070090002000001000001000000000000000000000000000000000000000000000000000000000000000000000000000000REP       REP US Representative, Dist 13                          Mark Neese                            Precinct 201                                           01 
00070090003000002000000000002000000000000000000000000000000000000000000000000000000000000000000000000REP       REP US Representative, Dist 13                          Mark Neese                            Precinct 202                                           01 
00070090004000001000001000000000000000000000000000000000000000000000000000000000000000000000000000000REP       REP US Representative, Dist 13                          Mark Neese                            Precinct 203                                           01 
00070090005000002000001000001000000000000000000000000000000000000000000000000000000000000000000000000REP       REP US Representative, Dist 13                          Mark Neese                            Precinct 301                                           01 
00070090006000000000000000000000000000000000000000000000000000000000000000000000000000000000000000000REP       REP US Representative, Dist 13                          Mark Neese                            Precinct 401                                           01 
00070090007000000000000000000000000000000000000000000000000000000000000000000000000000000000000000000REP       REP US Representative, Dist 13                          Mark Neese                            Precinct 402                                           01 
00070100001000002000001000000000001000000000000000000000000000000000000000000000000000000000000000000REP       REP US Representative, Dist 13                          Catherine "I Swear" Carr              Precinct 101                                           01 
00070100002000000000000000000000000000000000000000000000000000000000000000000000000000000000000000000REP       REP US Representative, Dist 13                          Catherine "I Swear" Carr              Precinct 201                                           01 
00070100003000002000002000000000000000000000000000000000000000000000000000000000000000000000000000000REP       REP US Representative, Dist 13                          Catherine "I Swear" Carr              Precinct 202                                           01 
00070100004000000000000000000000000000000000000000000000000000000000000000000000000000000000000000000REP       REP US Representative, Dist 13                          Catherine "I Swear" Carr              Precinct 203                                           01 
00070100005000001000001000000000000000000000000000000000000000000000000000000000000000000000000000000REP       REP US Representative, Dist 13                          Catherine "I Swear" Carr              Precinct 301                                           01 
00070100006000000000000000000000000000000000000000000000000000000000000000000000000000000000000000000REP       REP US Representative, Dist 13                          Catherine "I Swear" Carr              Precinct 401                                           01 
00070100007000000000000000000000000000000000000000000000000000000000000000000000000000000000000000000REP       REP US Representative, Dist 13                          Catherine "I Swear" Carr              Precinct 402                                           01 
00070110001000001000001000000000000000000000000000000000000000000000000000000000000000000000000000000REP       REP US Representative, Dist 13                          Matt McArthur                         Precinct 101                                           01 
00070110002000004000004000000000000000000000000000000000000000000000000000000000000000000000000000000REP       REP US Representative, Dist 13                          Matt McArthur                         Precinct 201                                           01 
00070110003000003000000000002000001000000000000000000000000000000000000000000000000000000000000000000REP       REP US Representative, Dist 13                          Matt McArthur                         Precinct 202                                           01 
00070110004000000000000000000000000000000000000000000000000000000000000000000000000000000000000000000REP       REP US Representative, Dist 13                          Matt McArthur                         Precinct 203                                           01 
00070110005000002000002000000000000000000000000000000000000000000000000000000000000000000000000000000REP       REP US Representative, Dist 13                          Matt McArthur                         Precinct 301                                           01 
00070110006000002000002000000000000000000000000000000000000000000000000000000000000000000000000000000REP       REP US Representative, Dist 13                          Matt McArthur                         Precinct 401                                           01 
00070110007000000000000000000000000000000000000000000000000000000000000000000000000000000000000000000REP       REP US Representative, Dist 13                          Matt McArthur                         Precinct 402                                           01 
00070120001000049000026000022000001000000000000000000000000000000000000000000000000000000000000000000REP       REP US Representative, Dist 13                          Ronny Jackson                         Precinct 101                                           01 
00070120002000051000028000022000001000000000000000000000000000000000000000000000000000000000000000000REP       REP US Representative, Dist 13                          Ronny Jackson                         Precinct 201                                           01 
00070120003000051000029000020000002000000000000000000000000000000000000000000000000000000000000000000REP       REP US Representative, Dist 13                          Ronny Jackson                         Precinct 202                                           01 
00070120004000006000006000000000000000000000000000000000000000000000000000000000000000000000000000000REP       REP US Representative, Dist 13                          Ronny Jackson                         Precinct 203                                           01 
00070120005000018000014000002000002000000000000000000000000000000000000000000000000000000000000000000REP       REP US Representative, Dist 13                          Ronny Jackson                         Precinct 301                                           01 
00070120006000028000021000007000000000000000000000000000000000000000000000000000000000000000000000000REP       REP US Representative, Dist 13                          Ronny Jackson                         Precinct 401                                           01 
00070120007000002000001000001000000000000000000000000000000000000000000000000000000000000000000000000REP       REP US Representative, Dist 13                          Ronny Jackson                         Precinct 402                                           01 
00070130001000011000005000006000000000000000000000000000000000000000000000000000000000000000000000000REP       REP US Representative, Dist 13                          Lee Harvey                            Precinct 101                                           01 
00070130002000008000004000004000000000000000000000000000000000000000000000000000000000000000000000000REP       REP US Representative, Dist 13                          Lee Harvey                            Precinct 201                                           01 
00070130003000008000004000004000000000000000000000000000000000000000000000000000000000000000000000000REP       REP US Representative, Dist 13                          Lee Harvey                            Precinct 202                                           01 
00070130004000000000000000000000000000000000000000000000000000000000000000000000000000000000000000000REP       REP US Representative, Dist 13                          Lee Harvey                            Precinct 203                                           01 
00070130005000006000004000002000000000000000000000000000000000000000000000000000000000000000000000000REP       REP US Representative, Dist 13                          Lee Harvey                            Precinct 301                                           01 
00070130006000003000002000001000000000000000000000000000000000000000000000000000000000000000000000000REP       REP US Representative, Dist 13                          Lee Harvey                            Precinct 401                                           01 
00070130007000003000002000001000000000000000000000000000000000000000000000000000000000000000000000000REP       REP US Representative, Dist 13                          Lee Harvey                            Precinct 402                                           01 
00070140001000011000003000008000000000000000000000000000000000000000000000000000000000000000000000000REP       REP US Representative, Dist 13                          Jamie Culley                          Precinct 101                                           01 
00070140002000009000005000004000000000000000000000000000000000000000000000000000000000000000000000000REP       REP US Representative, Dist 13                          Jamie Culley                          Precinct 201                                           01 
00070140003000005000004000001000000000000000000000000000000000000000000000000000000000000000000000000REP       REP US Representative, Dist 13                          Jamie Culley                          Precinct 202                                           01 
00070140004000001000001000000000000000000000000000000000000000000000000000000000000000000000000000000REP       REP US Representative, Dist 13                          Jamie Culley                          Precinct 203                                           01 
00070140005000007000005000002000000000000000000000000000000000000000000000000000000000000000000000000REP       REP US Representative, Dist 13                          Jamie Culley                          Precinct 301                                           01 
00070140006000002000002000000000000000000000000000000000000000000000000000000000000000000000000000000REP       REP US Representative, Dist 13                          Jamie Culley                          Precinct 401                                           01 
00070140007000001000001000000000000000000000000000000000000000000000000000000000000000000000000000000REP       REP US Representative, Dist 13                          Jamie Culley                          Precinct 402                                           01 
00070150001000034000018000016000000000000000000000000000000000000000000000000000000000000000000000000REP       REP US Representative, Dist 13                          Elaine Hays                           Precinct 101                                           01 
00070150002000028000015000013000000000000000000000000000000000000000000000000000000000000000000000000REP       REP US Representative, Dist 13                          Elaine Hays                           Precinct 201                                           01 
00070150003000052000021000029000002000000000000000000000000000000000000000000000000000000000000000000REP       REP US Representative, Dist 13                          Elaine Hays                           Precinct 202                                           01 
00070150004000000000000000000000000000000000000000000000000000000000000000000000000000000000000000000REP       REP US Representative, Dist 13                          Elaine Hays                           Precinct 203                                           01 
00070150005000007000004000003000000000000000000000000000000000000000000000000000000000000000000000000REP       REP US Representative, Dist 13                          Elaine Hays                           Precinct 301                                           01 
00070150006000010000009000001000000000000000000000000000000000000000000000000000000000000000000000000REP       REP US Representative, Dist 13                          Elaine Hays                           Precinct 401                                           01 
00070150007000003000003000000000000000000000000000000000000000000000000000000000000000000000000000000REP       REP US Representative, Dist 13                          Elaine Hays                           Precinct 402                                           01 
00080010001000393000212000173000008000000000000000000000000000000000000000000000000000000000000000000REP       REP Railroad Commissioner                               James "Jim" Wright                    Precinct 101                                           01 
00080010002000388000217000165000006000000000000000000000000000000000000000000000000000000000000000000REP       REP Railroad Commissioner                               James "Jim" Wright                    Precinct 201                                           01 
00080010003000441000200000227000014000000000000000000000000000000000000000000000000000000000000000000REP       REP Railroad Commissioner                               James "Jim" Wright                    Precinct 202                                           01 
00080010004000017000017000000000000000000000000000000000000000000000000000000000000000000000000000000REP       REP Railroad Commissioner                               James "Jim" Wright                    Precinct 203                                           01 
00080010005000203000119000078000006000000000000000000000000000000000000000000000000000000000000000000REP       REP Railroad Commissioner                               James "Jim" Wright                    Precinct 301                                           01 
00080010006000225000182000042000001000000000000000000000000000000000000000000000000000000000000000000REP       REP Railroad Commissioner                               James "Jim" Wright                    Precinct 401                                           01 
00080010007000017000017000000000000000000000000000000000000000000000000000000000000000000000000000000REP       REP Railroad Commissioner                               James "Jim" Wright                    Precinct 402                                           01 
00080020001000116000065000049000002000000000000000000000000000000000000000000000000000000000000000000REP       REP Railroad Commissioner                               Ryan Sitton                           Precinct 101                                           01 
00080020002000143000078000065000000000000000000000000000000000000000000000000000000000000000000000000REP       REP Railroad Commissioner                               Ryan Sitton                           Precinct 201                                           01 
00080020003000150000072000071000007000000000000000000000000000000000000000000000000000000000000000000REP       REP Railroad Commissioner                               Ryan Sitton                           Precinct 202                                           01 
00080020004000007000007000000000000000000000000000000000000000000000000000000000000000000000000000000REP       REP Railroad Commissioner                               Ryan Sitton                           Precinct 203                                           01 
00080020005000048000035000012000001000000000000000000000000000000000000000000000000000000000000000000REP       REP Railroad Commissioner                               Ryan Sitton                           Precinct 301                                           01 
00080020006000058000046000010000002000000000000000000000000000000000000000000000000000000000000000000REP       REP Railroad Commissioner                               Ryan Sitton                           Precinct 401                                           01 
00080020007000002000001000001000000000000000000000000000000000000000000000000000000000000000000000000REP       REP Railroad Commissioner                               Ryan Sitton                           Precinct 402                                           01 
00090010001000508000279000220000009000000000000000000000000000000000000000000000000000000000000000000REP       REP Chief Justice, Supreme Court                        Nathan Hecht                          Precinct 101                                           01 
00090010002000530000294000232000004000000000000000000000000000000000000000000000000000000000000000000REP       REP Chief Justice, Supreme Court                        Nathan Hecht                          Precinct 201                                           01 
00090010003000586000273000296000017000000000000000000000000000000000000000000000000000000000000000000REP       REP Chief Justice, Supreme Court                        Nathan Hecht                          Precinct 202                                           01 
00090010004000024000024000000000000000000000000000000000000000000000000000000000000000000000000000000REP       REP Chief Justice, Supreme Court                        Nathan Hecht                          Precinct 203                                           01 
00090010005000255000157000088000010000000000000000000000000000000000000000000000000000000000000000000REP       REP Chief Justice, Supreme Court                        Nathan Hecht                          Precinct 301                                           01 
00090010006000284000229000052000003000000000000000000000000000000000000000000000000000000000000000000REP       REP Chief Justice, Supreme Court                        Nathan Hecht                          Precinct 401                                           01 
00090010007000018000017000001000000000000000000000000000000000000000000000000000000000000000000000000REP       REP Chief Justice, Supreme Court                        Nathan Hecht                          Precinct 402                                           01 
00100010001000505000277000219000009000000000000000000000000000000000000000000000000000000000000000000REP       REP Justice, Supreme Court, Pl 6                        Jane Bland                            Precinct 101                                           01 
00100010002000526000292000230000004000000000000000000000000000000000000000000000000000000000000000000REP       REP Justice, Supreme Court, Pl 6                        Jane Bland                            Precinct 201                                           01 
00100010003000588000276000294000018000000000000000000000000000000000000000000000000000000000000000000REP       REP Justice, Supreme Court, Pl 6                        Jane Bland                            Precinct 202                                           01 
00100010004000024000024000000000000000000000000000000000000000000000000000000000000000000000000000000REP       REP Justice, Supreme Court, Pl 6                        Jane Bland                            Precinct 203                                           01 
00100010005000251000155000087000009000000000000000000000000000000000000000000000000000000000000000000REP       REP Justice, Supreme Court, Pl 6                        Jane Bland                            Precinct 301                                           01 
00100010006000280000226000051000003000000000000000000000000000000000000000000000000000000000000000000REP       REP Justice, Supreme Court, Pl 6                        Jane Bland                            Precinct 401                                           01 
00100010007000018000017000001000000000000000000000000000000000000000000000000000000000000000000000000REP       REP Justice, Supreme Court, Pl 6                        Jane Bland                            Precinct 402                                           01 
00110010001000505000279000217000009000000000000000000000000000000000000000000000000000000000000000000REP       REP Justice, Supreme Court, Pl 7                        Jeff Boyd                             Precinct 101                                           01 
00110010002000532000294000234000004000000000000000000000000000000000000000000000000000000000000000000REP       REP Justice, Supreme Court, Pl 7                        Jeff Boyd                             Precinct 201                                           01 
00110010003000589000279000292000018000000000000000000000000000000000000000000000000000000000000000000REP       REP Justice, Supreme Court, Pl 7                        Jeff Boyd                             Precinct 202                                           01 
00110010004000024000024000000000000000000000000000000000000000000000000000000000000000000000000000000REP       REP Justice, Supreme Court, Pl 7                        Jeff Boyd                             Precinct 203                                           01 
00110010005000255000158000087000010000000000000000000000000000000000000000000000000000000000000000000REP       REP Justice, Supreme Court, Pl 7                        Jeff Boyd                             Precinct 301                                           01 
00110010006000280000226000051000003000000000000000000000000000000000000000000000000000000000000000000REP       REP Justice, Supreme Court, Pl 7                        Jeff Boyd                             Precinct 401                                           01 
00110010007000017000016000001000000000000000000000000000000000000000000000000000000000000000000000000REP       REP Justice, Supreme Court, Pl 7                        Jeff Boyd                             Precinct 402                                           01 
00120010001000510000282000218000010000000000000000000000000000000000000000000000000000000000000000000REP       REP Justice, Supreme Court, Pl 8                        Brett Busby                           Precinct 101                                           01 
00120010002000527000292000231000004000000000000000000000000000000000000000000000000000000000000000000REP       REP Justice, Supreme Court, Pl 8                        Brett Busby                           Precinct 201                                           01 
00120010003000587000278000292000017000000000000000000000000000000000000000000000000000000000000000000REP       REP Justice, Supreme Court, Pl 8                        Brett Busby                           Precinct 202                                           01 
00120010004000024000024000000000000000000000000000000000000000000000000000000000000000000000000000000REP       REP Justice, Supreme Court, Pl 8                        Brett Busby                           Precinct 203                                           01 
00120010005000254000158000086000010000000000000000000000000000000000000000000000000000000000000000000REP       REP Justice, Supreme Court, Pl 8                        Brett Busby                           Precinct 301                                           01 
00120010006000281000225000053000003000000000000000000000000000000000000000000000000000000000000000000REP       REP Justice, Supreme Court, Pl 8                        Brett Busby                           Precinct 401                                           01 
00120010007000017000016000001000000000000000000000000000000000000000000000000000000000000000000000000REP       REP Justice, Supreme Court, Pl 8                        Brett Busby                           Precinct 402                                           01 
00130010001000344000180000158000006000000000000000000000000000000000000000000000000000000000000000000REP       REP Judge, Ct of Crim App, Pl 3                         Bert Richardson                       Precinct 101                                           01 
00130010002000370000194000172000004000000000000000000000000000000000000000000000000000000000000000000REP       REP Judge, Ct of Crim App, Pl 3                         Bert Richardson                       Precinct 201                                           01 
00130010003000390000171000205000014000000000000000000000000000000000000000000000000000000000000000000REP       REP Judge, Ct of Crim App, Pl 3                         Bert Richardson                       Precinct 202                                           01 
00130010004000011000011000000000000000000000000000000000000000000000000000000000000000000000000000000REP       REP Judge, Ct of Crim App, Pl 3                         Bert Richardson                       Precinct 203                                           01 
00130010005000170000111000054000005000000000000000000000000000000000000000000000000000000000000000000REP       REP Judge, Ct of Crim App, Pl 3                         Bert Richardson                       Precinct 301                                           01 
00130010006000190000159000031000000000000000000000000000000000000000000000000000000000000000000000000REP       REP Judge, Ct of Crim App, Pl 3                         Bert Richardson                       Precinct 401                                           01 
00130010007000010000010000000000000000000000000000000000000000000000000000000000000000000000000000000REP       REP Judge, Ct of Crim App, Pl 3                         Bert Richardson                       Precinct 402                                           01 
00130020001000167000100000063000004000000000000000000000000000000000000000000000000000000000000000000REP       REP Judge, Ct of Crim App, Pl 3                         Gina Parker                           Precinct 101                                           01 
00130020002000162000097000064000001000000000000000000000000000000000000000000000000000000000000000000REP       REP Judge, Ct of Crim App, Pl 3                         Gina Parker                           Precinct 201                                           01 
00130020003000195000101000088000006000000000000000000000000000000000000000000000000000000000000000000REP       REP Judge, Ct of Crim App, Pl 3                         Gina Parker                           Precinct 202                                           01 
00130020004000012000012000000000000000000000000000000000000000000000000000000000000000000000000000000REP       REP Judge, Ct of Crim App, Pl 3                         Gina Parker                           Precinct 203                                           01 
00130020005000078000042000033000003000000000000000000000000000000000000000000000000000000000000000000REP       REP Judge, Ct of Crim App, Pl 3                         Gina Parker                           Precinct 301                                           01 
00130020006000085000064000018000003000000000000000000000000000000000000000000000000000000000000000000REP       REP Judge, Ct of Crim App, Pl 3                         Gina Parker                           Precinct 401                                           01 
00130020007000009000008000001000000000000000000000000000000000000000000000000000000000000000000000000REP       REP Judge, Ct of Crim App, Pl 3                         Gina Parker                           Precinct 402                                           01 
00140010001000511000282000220000009000000000000000000000000000000000000000000000000000000000000000000REP       REP Judge, Ct of Crim App, Pl 4                         Kevin Patrick Yeary                   Precinct 101                                           01 
00140010002000528000295000229000004000000000000000000000000000000000000000000000000000000000000000000REP       REP Judge, Ct of Crim App, Pl 4                         Kevin Patrick Yeary                   Precinct 201                                           01 
00140010003000585000277000291000017000000000000000000000000000000000000000000000000000000000000000000REP       REP Judge, Ct of Crim App, Pl 4                         Kevin Patrick Yeary                   Precinct 202                                           01 
00140010004000024000024000000000000000000000000000000000000000000000000000000000000000000000000000000REP       REP Judge, Ct of Crim App, Pl 4                         Kevin Patrick Yeary                   Precinct 203                                           01 
00140010005000254000159000086000009000000000000000000000000000000000000000000000000000000000000000000REP       REP Judge, Ct of Crim App, Pl 4                         Kevin Patrick Yeary                   Precinct 301                                           01 
00140010006000280000225000052000003000000000000000000000000000000000000000000000000000000000000000000REP       REP Judge, Ct of Crim App, Pl 4                         Kevin Patrick Yeary                   Precinct 401                                           01 
00140010007000017000016000001000000000000000000000000000000000000000000000000000000000000000000000000REP       REP Judge, Ct of Crim App, Pl 4                         Kevin Patrick Yeary                   Precinct 402                                           01 
00150010001000509000280000220000009000000000000000000000000000000000000000000000000000000000000000000REP       REP Judge, Ct of Crim App, Pl 9                         David Newell                          Precinct 101                                           01 
00150010002000529000293000232000004000000000000000000000000000000000000000000000000000000000000000000REP       REP Judge, Ct of Crim App, Pl 9                         David Newell                          Precinct 201                                           01 
00150010003000582000276000289000017000000000000000000000000000000000000000000000000000000000000000000REP       REP Judge, Ct of Crim App, Pl 9                         David Newell                          Precinct 202                                           01 
00150010004000024000024000000000000000000000000000000000000000000000000000000000000000000000000000000REP       REP Judge, Ct of Crim App, Pl 9                         David Newell                          Precinct 203                                           01 
00150010005000252000156000087000009000000000000000000000000000000000000000000000000000000000000000000REP       REP Judge, Ct of Crim App, Pl 9                         David Newell                          Precinct 301                                           01 
00150010006000282000226000053000003000000000000000000000000000000000000000000000000000000000000000000REP       REP Judge, Ct of Crim App, Pl 9                         David Newell                          Precinct 401                                           01 
00150010007000017000016000001000000000000000000000000000000000000000000000000000000000000000000000000REP       REP Judge, Ct of Crim App, Pl 9                         David Newell                          Precinct 402                                           01 
00160010001000510000281000220000009000000000000000000000000000000000000000000000000000000000000000000REP       REP Member, State BoE, Dist 15                          Jay Johnson                           Precinct 101                                           01 
00160010002000528000293000232000003000000000000000000000000000000000000000000000000000000000000000000REP       REP Member, State BoE, Dist 15                          Jay Johnson                           Precinct 201                                           01 
00160010003000587000276000293000018000000000000000000000000000000000000000000000000000000000000000000REP       REP Member, State BoE, Dist 15                          Jay Johnson                           Precinct 202                                           01 
00160010004000024000024000000000000000000000000000000000000000000000000000000000000000000000000000000REP       REP Member, State BoE, Dist 15                          Jay Johnson                           Precinct 203                                           01 
00160010005000256000158000089000009000000000000000000000000000000000000000000000000000000000000000000REP       REP Member, State BoE, Dist 15                          Jay Johnson                           Precinct 301                                           01 
00160010006000283000227000053000003000000000000000000000000000000000000000000000000000000000000000000REP       REP Member, State BoE, Dist 15                          Jay Johnson                           Precinct 401                                           01 
00160010007000016000015000001000000000000000000000000000000000000000000000000000000000000000000000000REP       REP Member, State BoE, Dist 15                          Jay Johnson                           Precinct 402                                           01 
00170010001000524000290000225000009000000000000000000000000000000000000000000000000000000000000000000REP       REP State Representative, Dist 87                       Four Price                            Precinct 101                                           01 
00170010002000549000306000237000006000000000000000000000000000000000000000000000000000000000000000000REP       REP State Representative, Dist 87                       Four Price                            Precinct 201                                           01 
00170010003000618000288000312000018000000000000000000000000000000000000000000000000000000000000000000REP       REP State Representative, Dist 87                       Four Price                            Precinct 202                                           01 
00170010004000024000024000000000000000000000000000000000000000000000000000000000000000000000000000000REP       REP State Representative, Dist 87                       Four Price                            Precinct 203                                           01 
00170010005000260000160000090000010000000000000000000000000000000000000000000000000000000000000000000REP       REP State Representative, Dist 87                       Four Price                            Precinct 301                                           01 
00170010006000292000236000053000003000000000000000000000000000000000000000000000000000000000000000000REP       REP State Representative, Dist 87                       Four Price                            Precinct 401                                           01 
00170010007000018000016000002000000000000000000000000000000000000000000000000000000000000000000000000REP       REP State Representative, Dist 87                       Four Price                            Precinct 402                                           01 
00180010001000511000282000220000009000000000000000000000000000000000000000000000000000000000000000000REP       REP Chief Justice, 7th Ct of App Dist                   Brian Quinn                           Precinct 101                                           01 
00180010002000532000297000231000004000000000000000000000000000000000000000000000000000000000000000000REP       REP Chief Justice, 7th Ct of App Dist                   Brian Quinn                           Precinct 201                                           01 
00180010003000586000277000292000017000000000000000000000000000000000000000000000000000000000000000000REP       REP Chief Justice, 7th Ct of App Dist                   Brian Quinn                           Precinct 202                                           01 
00180010004000024000024000000000000000000000000000000000000000000000000000000000000000000000000000000REP       REP Chief Justice, 7th Ct of App Dist                   Brian Quinn                           Precinct 203                                           01 
00180010005000252000156000087000009000000000000000000000000000000000000000000000000000000000000000000REP       REP Chief Justice, 7th Ct of App Dist                   Brian Quinn                           Precinct 301                                           01 
00180010006000284000228000053000003000000000000000000000000000000000000000000000000000000000000000000REP       REP Chief Justice, 7th Ct of App Dist                   Brian Quinn                           Precinct 401                                           01 
00180010007000016000015000001000000000000000000000000000000000000000000000000000000000000000000000000REP       REP Chief Justice, 7th Ct of App Dist                   Brian Quinn                           Precinct 402                                           01 
00190010001000339000184000147000008000000000000000000000000000000000000000000000000000000000000000000REP       REP Justice, 7th Ct of App Dist, Pl 4                   Steven Denny                          Precinct 101                                           01 
00190010002000333000188000141000004000000000000000000000000000000000000000000000000000000000000000000REP       REP Justice, 7th Ct of App Dist, Pl 4                   Steven Denny                          Precinct 201                                           01 
00190010003000387000186000186000015000000000000000000000000000000000000000000000000000000000000000000REP       REP Justice, 7th Ct of App Dist, Pl 4                   Steven Denny                          Precinct 202                                           01 
00190010004000016000016000000000000000000000000000000000000000000000000000000000000000000000000000000REP       REP Justice, 7th Ct of App Dist, Pl 4                   Steven Denny                          Precinct 203                                           01 
00190010005000184000110000066000008000000000000000000000000000000000000000000000000000000000000000000REP       REP Justice, 7th Ct of App Dist, Pl 4                   Steven Denny                          Precinct 301                                           01 
00190010006000185000155000027000003000000000000000000000000000000000000000000000000000000000000000000REP       REP Justice, 7th Ct of App Dist, Pl 4                   Steven Denny                          Precinct 401                                           01 
00190010007000013000012000001000000000000000000000000000000000000000000000000000000000000000000000000REP       REP Justice, 7th Ct of App Dist, Pl 4                   Steven Denny                          Precinct 402                                           01 
00190020001000175000097000076000002000000000000000000000000000000000000000000000000000000000000000000REP       REP Justice, 7th Ct of App Dist, Pl 4                   Larry Doss                            Precinct 101                                           01 
00190020002000195000104000089000002000000000000000000000000000000000000000000000000000000000000000000REP       REP Justice, 7th Ct of App Dist, Pl 4                   Larry Doss                            Precinct 201                                           01 
00190020003000202000089000108000005000000000000000000000000000000000000000000000000000000000000000000REP       REP Justice, 7th Ct of App Dist, Pl 4                   Larry Doss                            Precinct 202                                           01 
00190020004000008000008000000000000000000000000000000000000000000000000000000000000000000000000000000REP       REP Justice, 7th Ct of App Dist, Pl 4                   Larry Doss                            Precinct 203                                           01 
00190020005000067000044000022000001000000000000000000000000000000000000000000000000000000000000000000REP       REP Justice, 7th Ct of App Dist, Pl 4                   Larry Doss                            Precinct 301                                           01 
00190020006000090000066000024000000000000000000000000000000000000000000000000000000000000000000000000REP       REP Justice, 7th Ct of App Dist, Pl 4                   Larry Doss                            Precinct 401                                           01 
00190020007000004000003000001000000000000000000000000000000000000000000000000000000000000000000000000REP       REP Justice, 7th Ct of App Dist, Pl 4                   Larry Doss                            Precinct 402                                           01 
00200010001000200000101000094000005000000000000000000000000000000000000000000000000000000000000000000REP       REP Dist Attorney, 69th Judicial Dist                   Tim Salley                            Precinct 101                                           01 
00200010002000188000105000082000001000000000000000000000000000000000000000000000000000000000000000000REP       REP Dist Attorney, 69th Judicial Dist                   Tim Salley                            Precinct 201                                           01 
00200010003000190000084000099000007000000000000000000000000000000000000000000000000000000000000000000REP       REP Dist Attorney, 69th Judicial Dist                   Tim Salley                            Precinct 202                                           01 
00200010004000010000010000000000000000000000000000000000000000000000000000000000000000000000000000000REP       REP Dist Attorney, 69th Judicial Dist                   Tim Salley                            Precinct 203                                           01 
00200010005000109000069000033000007000000000000000000000000000000000000000000000000000000000000000000REP       REP Dist Attorney, 69th Judicial Dist                   Tim Salley                            Precinct 301                                           01 
00200010006000098000076000022000000000000000000000000000000000000000000000000000000000000000000000000REP       REP Dist Attorney, 69th Judicial Dist                   Tim Salley                            Precinct 401                                           01 
00200010007000012000011000001000000000000000000000000000000000000000000000000000000000000000000000000REP       REP Dist Attorney, 69th Judicial Dist                   Tim Salley                            Precinct 402                                           01 
00200020001000338000193000140000005000000000000000000000000000000000000000000000000000000000000000000REP       REP Dist Attorney, 69th Judicial Dist                   Erin Lands                            Precinct 101                                           01 
00200020002000379000209000164000006000000000000000000000000000000000000000000000000000000000000000000REP       REP Dist Attorney, 69th Judicial Dist                   Erin Lands                            Precinct 201                                           01 
00200020003000451000212000224000015000000000000000000000000000000000000000000000000000000000000000000REP       REP Dist Attorney, 69th Judicial Dist                   Erin Lands                            Precinct 202                                           01 
00200020004000012000012000000000000000000000000000000000000000000000000000000000000000000000000000000REP       REP Dist Attorney, 69th Judicial Dist                   Erin Lands                            Precinct 203                                           01 
00200020005000158000093000062000003000000000000000000000000000000000000000000000000000000000000000000REP       REP Dist Attorney, 69th Judicial Dist                   Erin Lands                            Precinct 301                                           01 
00200020006000202000165000034000003000000000000000000000000000000000000000000000000000000000000000000REP       REP Dist Attorney, 69th Judicial Dist                   Erin Lands                            Precinct 401                                           01 
00200020007000008000008000000000000000000000000000000000000000000000000000000000000000000000000000000REP       REP Dist Attorney, 69th Judicial Dist                   Erin Lands                            Precinct 402                                           01 
