00010010001002578000000000000000000000000000000000000000000000000000000000000000000000000000000000000          REGISTERED VOTERS - TOTAL                               REGISTERED VOTERS - TOTAL             Precinct 101                                           00 
00010010002001731000000000000000000000000000000000000000000000000000000000000000000000000000000000000          REGISTERED VOTERS - TOTAL                               REGISTERED VOTERS - TOTAL             Precinct 201                                           00 
00010010003001664000000000000000000000000000000000000000000000000000000000000000000000000000000000000          REGISTERED VOTERS - TOTAL                               REGISTERED VOTERS - TOTAL             Precinct 202                                           00 
00010010004000069000000000000000000000000000000000000000000000000000000000000000000000000000000000000          REGISTERED VOTERS - TOTAL                               REGISTERED VOTERS - TOTAL             Precinct 203                                           00 
00010010005001942000000000000000000000000000000000000000000000000000000000000000000000000000000000000          REGISTERED VOTERS - TOTAL                               REGISTERED VOTERS - TOTAL             Precinct 301                                           00 
00010010006001069000000000000000000000000000000000000000000000000000000000000000000000000000000000000          REGISTERED VOTERS - TOTAL                               REGISTERED VOTERS - TOTAL             Precinct 401                                           00 
00010010007000741000000000000000000000000000000000000000000000000000000000000000000000000000000000000          REGISTERED VOTERS - TOTAL                               REGISTERED VOTERS - TOTAL             Precinct 402                                           00 
00040010001000545000299000235000011000000000000000000000000000000000000000000000000000000000000000000REP       BALLOTS CAST - Republican Party                         BALLOTS CAST - Republican Party       Precinct 101                                           00 
00040010002000572000316000249000007000000000000000000000000000000000000000000000000000000000000000000REP       BALLOTS CAST - Republican Party                         BALLOTS CAST - Republican Party       Precinct 201                                           00 
00040010003000646000298000325000023000000000000000000000000000000000000000000000000000000000000000000REP       BALLOTS CAST - Republican Party                         BALLOTS CAST - Republican Party       Precinct 202                                           00 
00040010004000025000025000000000000000000000000000000000000000000000000000000000000000000000000000000REP       BALLOTS CAST - Republican Party                         BALLOTS CAST - Republican Party       Precinct 203                                           00 
00040010005000271000165000095000011000000000000000000000000000000000000000000000000000000000000000000REP       BALLOTS CAST - Republican Party                         BALLOTS CAST - Republican Party       Precinct 301                                           00 
00040010006000306000246000057000003000000000000000000000000000000000000000000000000000000000000000000REP       BALLOTS CAST - Republican Party                         BALLOTS CAST - Republican Party       Precinct 401                                           00 
00040010007000021000019000002000000000000000000000000000000000000000000000000000000000000000000000000REP       BALLOTS CAST - Republican Party                         BALLOTS CAST - Republican Party       Precinct 402                                           00 
00050010001000000000000000000000000000000000000000000000000000000000000000000000000000000000000000000DEM       DEM President                                           Cory Booker                           Precinct 101                                           01 
00050010002000000000000000000000000000000000000000000000000000000000000000000000000000000000000000000DEM       DEM President                                           Cory Booker                           Precinct 201                                           01 
00050010003000000000000000000000000000000000000000000000000000000000000000000000000000000000000000000DEM       DEM President                                           Cory Booker                           Precinct 202                                           01 
00050010004000000000000000000000000000000000000000000000000000000000000000000000000000000000000000000DEM       DEM President                                           Cory Booker                           Precinct 203                                           01 
00050010005000000000000000000000000000000000000000000000000000000000000000000000000000000000000000000DEM       DEM President                                           Cory Booker                           Precinct 301                                           01 
00050010006000001000001000000000000000000000000000000000000000000000000000000000000000000000000000000DEM       DEM President                                           Cory Booker                           Precinct 401                                           01 
00050010007000001000001000000000000000000000000000000000000000000000000000000000000000000000000000000DEM       DEM President                                           Cory Booker                           Precinct 402                                           01 
00050020001000004000001000001000002000000000000000000000000000000000000000000000000000000000000000000DEM       DEM President                                           Pete Buttigieg                        Precinct 101                                           01 
00050020002000002000000000002000000000000000000000000000000000000000000000000000000000000000000000000DEM       DEM President                                           Pete Buttigieg                        Precinct 201                                           01 
00050020003000003000000000003000000000000000000000000000000000000000000000000000000000000000000000000DEM       DEM President                                           Pete Buttigieg                        Precinct 202                                           01 
00050020004000000000000000000000000000000000000000000000000000000000000000000000000000000000000000000DEM       DEM President                                           Pete Buttigieg                        Precinct 203                                           01 
00050020005000002000001000000000001000000000000000000000000000000000000000000000000000000000000000000DEM       DEM President                                           Pete Buttigieg                        Precinct 301                                           01 
00050020006000000000000000000000000000000000000000000000000000000000000000000000000000000000000000000DEM       DEM President                                           Pete Buttigieg                        Precinct 401                                           01 
00050020007000000000000000000000000000000000000000000000000000000000000000000000000000000000000000000DEM       DEM President                                           Pete Buttigieg                        Precinct 402                                           01 
00050030001000000000000000000000000000000000000000000000000000000000000000000000000000000000000000000DEM       DEM President                                           Marianne Williamson                   Precinct 101                                           01 
00050030002000001000001000000000000000000000000000000000000000000000000000000000000000000000000000000DEM       DEM President                                           Marianne Williamson                   Precinct 201                                           01 
00050030003000000000000000000000000000000000000000000000000000000000000000000000000000000000000000000DEM       DEM President                                           Marianne Williamson                   Precinct 202                                           01 
00050030004000000000000000000000000000000000000000000000000000000000000000000000000000000000000000000DEM       DEM President                                           Marianne Williamson                   Precinct 203                                           01 
00050030005000000000000000000000000000000000000000000000000000000000000000000000000000000000000000000DEM       DEM President                                           Marianne Williamson                   Precinct 301                                           01 
00050030006000000000000000000000000000000000000000000000000000000000000000000000000000000000000000000DEM       DEM President                                           Marianne Williamson                   Precinct 401                                           01 
00050030007000000000000000000000000000000000000000000000000000000000000000000000000000000000000000000DEM       DEM President                                           Marianne Williamson                   Precinct 402                                           01 
00050040001000001000000000001000000000000000000000000000000000000000000000000000000000000000000000000DEM       DEM President                                           Roque "Rocky" De La Fuente            Precinct 101                                           01 
00050040002000000000000000000000000000000000000000000000000000000000000000000000000000000000000000000DEM       DEM President                                           Roque "Rocky" De La Fuente            Precinct 201                                           01 
00050040003000000000000000000000000000000000000000000000000000000000000000000000000000000000000000000DEM       DEM President                                           Roque "Rocky" De La Fuente            Precinct 202                                           01 
00050040004000000000000000000000000000000000000000000000000000000000000000000000000000000000000000000DEM       DEM President                                           Roque "Rocky" De La Fuente            Precinct 203                                           01 
00050040005000001000001000000000000000000000000000000000000000000000000000000000000000000000000000000DEM       DEM President                                           Roque "Rocky" De La Fuente            Precinct 301                                           01 
00050040006000000000000000000000000000000000000000000000000000000000000000000000000000000000000000000DEM       DEM President                                           Roque "Rocky" De La Fuente            Precinct 401                                           01 
00050040007000000000000000000000000000000000000000000000000000000000000000000000000000000000000000000DEM       DEM President                                           Roque "Rocky" De La Fuente            Precinct 402                                           01 
00050050001000000000000000000000000000000000000000000000000000000000000000000000000000000000000000000DEM       DEM President                                           Julian Castro                         Precinct 101                                           01 
00050050002000000000000000000000000000000000000000000000000000000000000000000000000000000000000000000DEM       DEM President                                           Julian Castro                         Precinct 201                                           01 
00050050003000000000000000000000000000000000000000000000000000000000000000000000000000000000000000000DEM       DEM President                                           Julian Castro                         Precinct 202                                           01 
00050050004000000000000000000000000000000000000000000000000000000000000000000000000000000000000000000DEM       DEM President                                           Julian Castro                         Precinct 203                                           01 
00050050005000001000001000000000000000000000000000000000000000000000000000000000000000000000000000000DEM       DEM President                                           Julian Castro                         Precinct 301                                           01 
00050050006000000000000000000000000000000000000000000000000000000000000000000000000000000000000000000DEM       DEM President                                           Julian Castro                         Precinct 401                                           01 
00050050007000001000001000000000000000000000000000000000000000000000000000000000000000000000000000000DEM       DEM President                                           Julian Castro                         Precinct 402                                           01 
00050060001000000000000000000000000000000000000000000000000000000000000000000000000000000000000000000DEM       DEM President                                           Tom Steyer                            Precinct 101                                           01 
00050060002000000000000000000000000000000000000000000000000000000000000000000000000000000000000000000DEM       DEM President                                           Tom Steyer                            Precinct 201                                           01 
00050060003000001000001000000000000000000000000000000000000000000000000000000000000000000000000000000DEM       DEM President                                           Tom Steyer                            Precinct 202                                           01 
00050060004000000000000000000000000000000000000000000000000000000000000000000000000000000000000000000DEM       DEM President                                           Tom Steyer                            Precinct 203                                           01 
00050060005000000000000000000000000000000000000000000000000000000000000000000000000000000000000000000DEM       DEM President                                           Tom Steyer                            Precinct 301                                           01 
00050060006000000000000000000000000000000000000000000000000000000000000000000000000000000000000000000DEM       DEM President                                           Tom Steyer                            Precinct 401                                           01 
00050060007000000000000000000000000000000000000000000000000000000000000000000000000000000000000000000DEM       DEM President                                           Tom Steyer                            Precinct 402                                           01 
00050070001000000000000000000000000000000000000000000000000000000000000000000000000000000000000000000DEM       DEM President                                           Deval Patrick                         Precinct 101                                           01 
00050070002000001000001000000000000000000000000000000000000000000000000000000000000000000000000000000DEM       DEM President                                           Deval Patrick                         Precinct 201                                           01 
00050070003000000000000000000000000000000000000000000000000000000000000000000000000000000000000000000DEM       DEM President                                           Deval Patrick                         Precinct 202                                           01 
00050070004000000000000000000000000000000000000000000000000000000000000000000000000000000000000000000DEM       DEM President                                           Deval Patrick                         Precinct 203                                           01 
00050070005000000000000000000000000000000000000000000000000000000000000000000000000000000000000000000DEM       DEM President                                           Deval Patrick                         Precinct 301                                           01 
00050070006000000000000000000000000000000000000000000000000000000000000000000000000000000000000000000DEM       DEM President                                           Deval Patrick                         Precinct 401                                           01 
00050070007000000000000000000000000000000000000000000000000000000000000000000000000000000000000000000DEM       DEM President                                           Deval Patrick                         Precinct 402                                           01 
00050080001000021000017000002000002000000000000000000000000000000000000000000000000000000000000000000DEM       DEM President                                           Joseph R. Biden                       Precinct 101                                           01 
00050080002000026000019000004000003000000000000000000000000000000000000000000000000000000000000000000DEM       DEM President                                           Joseph R. Biden                       Precinct 201                                           01 
00050080003000024000018000004000002000000000000000000000000000000000000000000000000000000000000000000DEM       DEM President                                           Joseph R. Biden                       Precinct 202                                           01 
00050080004000001000001000000000000000000000000000000000000000000000000000000000000000000000000000000DEM       DEM President                                           Joseph R. Biden                       Precinct 203                                           01 
00050080005000031000029000000000002000000000000000000000000000000000000000000000000000000000000000000DEM       DEM President                                           Joseph R. Biden                       Precinct 301                                           01 
00050080006000010000009000000000001000000000000000000000000000000000000000000000000000000000000000000DEM       DEM President                                           Joseph R. Biden                       Precinct 401                                           01 
00050080007000006000006000000000000000000000000000000000000000000000000000000000000000000000000000000DEM       DEM President                                           Joseph R. Biden                       Precinct 402                                           01 
00050090001000000000000000000000000000000000000000000000000000000000000000000000000000000000000000000DEM       DEM President                                           John K. Delaney                       Precinct 101                                           01 
00050090002000000000000000000000000000000000000000000000000000000000000000000000000000000000000000000DEM       DEM President                                           John K. Delaney                       Precinct 201                                           01 
00050090003000000000000000000000000000000000000000000000000000000000000000000000000000000000000000000DEM       DEM President                                           John K. Delaney                       Precinct 202                                           01 
00050090004000000000000000000000000000000000000000000000000000000000000000000000000000000000000000000DEM       DEM President                                           John K. Delaney                       Precinct 203                                           01 
00050090005000000000000000000000000000000000000000000000000000000000000000000000000000000000000000000DEM       DEM President                                           John K. Delaney                       Precinct 301                                           01 
00050090006000000000000000000000000000000000000000000000000000000000000000000000000000000000000000000DEM       DEM President                                           John K. Delaney                       Precinct 401                                           01 
00050090007000000000000000000000000000000000000000000000000000000000000000000000000000000000000000000DEM       DEM President                                           John K. Delaney                       Precinct 402                                           01 
00050100001000000000000000000000000000000000000000000000000000000000000000000000000000000000000000000DEM       DEM President                                           Amy Klobuchar                         Precinct 101                                           01 
00050100002000000000000000000000000000000000000000000000000000000000000000000000000000000000000000000DEM       DEM President                                           Amy Klobuchar                         Precinct 201                                           01 
00050100003000001000000000001000000000000000000000000000000000000000000000000000000000000000000000000DEM       DEM President                                           Amy Klobuchar                         Precinct 202                                           01 
00050100004000000000000000000000000000000000000000000000000000000000000000000000000000000000000000000DEM       DEM President                                           Amy Klobuchar                         Precinct 203                                           01 
00050100005000001000000000000000001000000000000000000000000000000000000000000000000000000000000000000DEM       DEM President                                           Amy Klobuchar                         Precinct 301                                           01 
00050100006000000000000000000000000000000000000000000000000000000000000000000000000000000000000000000DEM       DEM President                                           Amy Klobuchar                         Precinct 401                                           01 
00050100007000000000000000000000000000000000000000000000000000000000000000000000000000000000000000000DEM       DEM President                                           Amy Klobuchar                         Precinct 402                                           01 
00050110001000016000014000002000000000000000000000000000000000000000000000000000000000000000000000000DEM       DEM President                                           Bernie Sanders                        Precinct 101                                           01 
00050110002000020000019000001000000000000000000000000000000000000000000000000000000000000000000000000DEM       DEM President                                           Bernie Sanders                        Precinct 201                                           01 
00050110003000012000011000001000000000000000000000000000000000000000000000000000000000000000000000000DEM       DEM President                                           Bernie Sanders                        Precinct 202                                           01 
00050110004000000000000000000000000000000000000000000000000000000000000000000000000000000000000000000DEM       DEM President                                           Bernie Sanders                        Precinct 203                                           01 
00050110005000012000010000001000001000000000000000000000000000000000000000000000000000000000000000000DEM       DEM President                                           Bernie Sanders                        Precinct 301                                           01 
00050110006000006000006000000000000000000000000000000000000000000000000000000000000000000000000000000DEM       DEM President                                           Bernie Sanders                        Precinct 401                                           01 
00050110007000011000011000000000000000000000000000000000000000000000000000000000000000000000000000000DEM       DEM President                                           Bernie Sanders                        Precinct 402                                           01 
00050120001000018000009000005000004000000000000000000000000000000000000000000000000000000000000000000DEM       DEM President                                           Michael R. Bloomberg                  Precinct 101                                           01 
00050120002000007000005000002000000000000000000000000000000000000000000000000000000000000000000000000DEM       DEM President                                           Michael R. Bloomberg                  Precinct 201                                           01 
00050120003000004000003000000000001000000000000000000000000000000000000000000000000000000000000000000DEM       DEM President                                           Michael R. Bloomberg                  Precinct 202                                           01 
00050120004000000000000000000000000000000000000000000000000000000000000000000000000000000000000000000DEM       DEM President                                           Michael R. Bloomberg                  Precinct 203                                           01 
00050120005000004000002000001000001000000000000000000000000000000000000000000000000000000000000000000DEM       DEM President                                           Michael R. Bloomberg                  Precinct 301                                           01 
00050120006000004000002000002000000000000000000000000000000000000000000000000000000000000000000000000DEM       DEM President                                           Michael R. Bloomberg                  Precinct 401                                           01 
00050120007000001000001000000000000000000000000000000000000000000000000000000000000000000000000000000DEM       DEM President                                           Michael R. Bloomberg                  Precinct 402                                           01 
00050130001000002000001000001000000000000000000000000000000000000000000000000000000000000000000000000DEM       DEM President                                           Andrew Yang                           Precinct 101                                           01 
00050130002000000000000000000000000000000000000000000000000000000000000000000000000000000000000000000DEM       DEM President                                           Andrew Yang                           Precinct 201                                           01 
00050130003000000000000000000000000000000000000000000000000000000000000000000000000000000000000000000DEM       DEM President                                           Andrew Yang                           Precinct 202                                           01 
00050130004000000000000000000000000000000000000000000000000000000000000000000000000000000000000000000DEM       DEM President                                           Andrew Yang                           Precinct 203                                           01 
00050130005000000000000000000000000000000000000000000000000000000000000000000000000000000000000000000DEM       DEM President                                           Andrew Yang                           Precinct 301                                           01 
00050130006000000000000000000000000000000000000000000000000000000000000000000000000000000000000000000DEM       DEM President                                           Andrew Yang                           Precinct 401                                           01 
00050130007000000000000000000000000000000000000000000000000000000000000000000000000000000000000000000DEM       DEM President                                           Andrew Yang                           Precinct 402                                           01 
00050140001000002000001000001000000000000000000000000000000000000000000000000000000000000000000000000DEM       DEM President                                           Michael Bennet                        Precinct 101                                           01 
00050140002000001000001000000000000000000000000000000000000000000000000000000000000000000000000000000DEM       DEM President                                           Michael Bennet                        Precinct 201                                           01 
00050140003000000000000000000000000000000000000000000000000000000000000000000000000000000000000000000DEM       DEM President                                           Michael Bennet                        Precinct 202                                           01 
00050140004000000000000000000000000000000000000000000000000000000000000000000000000000000000000000000DEM       DEM President                                           Michael Bennet                        Precinct 203                                           01 
00050140005000000000000000000000000000000000000000000000000000000000000000000000000000000000000000000DEM       DEM President                                           Michael Bennet                        Precinct 301                                           01 
00050140006000001000001000000000000000000000000000000000000000000000000000000000000000000000000000000DEM       DEM President                                           Michael Bennet                        Precinct 401                                           01 
00050140007000001000001000000000000000000000000000000000000000000000000000000000000000000000000000000DEM       DEM President                                           Michael Bennet                        Precinct 402                                           01 
00050150001000001000001000000000000000000000000000000000000000000000000000000000000000000000000000000DEM       DEM President                                           Robby Wells                           Precinct 101                                           01 
00050150002000000000000000000000000000000000000000000000000000000000000000000000000000000000000000000DEM       DEM President                                           Robby Wells                           Precinct 201                                           01 
00050150003000000000000000000000000000000000000000000000000000000000000000000000000000000000000000000DEM       DEM President                                           Robby Wells                           Precinct 202                                           01 
00050150004000000000000000000000000000000000000000000000000000000000000000000000000000000000000000000DEM       DEM President                                           Robby Wells                           Precinct 203                                           01 
00050150005000001000001000000000000000000000000000000000000000000000000000000000000000000000000000000DEM       DEM President                                           Robby Wells                           Precinct 301                                           01 
00050150006000000000000000000000000000000000000000000000000000000000000000000000000000000000000000000DEM       DEM President                                           Robby Wells                           Precinct 401                                           01 
00050150007000000000000000000000000000000000000000000000000000000000000000000000000000000000000000000DEM       DEM President                                           Robby Wells                           Precinct 402                                           01 
00050160001000000000000000000000000000000000000000000000000000000000000000000000000000000000000000000DEM       DEM President                                           Tulsi Gabbard                         Precinct 101                                           01 
00050160002000002000002000000000000000000000000000000000000000000000000000000000000000000000000000000DEM       DEM President                                           Tulsi Gabbard                         Precinct 201                                           01 
00050160003000000000000000000000000000000000000000000000000000000000000000000000000000000000000000000DEM       DEM President                                           Tulsi Gabbard                         Precinct 202                                           01 
00050160004000000000000000000000000000000000000000000000000000000000000000000000000000000000000000000DEM       DEM President                                           Tulsi Gabbard                         Precinct 203                                           01 
00050160005000001000001000000000000000000000000000000000000000000000000000000000000000000000000000000DEM       DEM President                                           Tulsi Gabbard                         Precinct 301                                           01 
00050160006000000000000000000000000000000000000000000000000000000000000000000000000000000000000000000DEM       DEM President                                           Tulsi Gabbard                         Precinct 401                                           01 
00050160007000000000000000000000000000000000000000000000000000000000000000000000000000000000000000000DEM       DEM President                                           Tulsi Gabbard                         Precinct 402                                           01 
00050170001000009000007000002000000000000000000000000000000000000000000000000000000000000000000000000DEM       DEM President                                           Elizabeth Warren                      Precinct 101                                           01 
00050170002000000000000000000000000000000000000000000000000000000000000000000000000000000000000000000DEM       DEM President                                           Elizabeth Warren                      Precinct 201                                           01 
00050170003000000000000000000000000000000000000000000000000000000000000000000000000000000000000000000DEM       DEM President                                           Elizabeth Warren                      Precinct 202                                           01 
00050170004000000000000000000000000000000000000000000000000000000000000000000000000000000000000000000DEM       DEM President                                           Elizabeth Warren                      Precinct 203                                           01 
00050170005000003000001000002000000000000000000000000000000000000000000000000000000000000000000000000DEM       DEM President                                           Elizabeth Warren                      Precinct 301                                           01 
00050170006000003000003000000000000000000000000000000000000000000000000000000000000000000000000000000DEM       DEM President                                           Elizabeth Warren                      Precinct 401                                           01 
00050170007000005000005000000000000000000000000000000000000000000000000000000000000000000000000000000DEM       DEM President                                           Elizabeth Warren                      Precinct 402                                           01 
00060010001000005000002000001000002000000000000000000000000000000000000000000000000000000000000000000DEM       DEM US Senator                                          Michael Cooper                        Precinct 101                                           01 
00060010002000005000005000000000000000000000000000000000000000000000000000000000000000000000000000000DEM       DEM US Senator                                          Michael Cooper                        Precinct 201                                           01 
00060010003000004000003000000000001000000000000000000000000000000000000000000000000000000000000000000DEM       DEM US Senator                                          Michael Cooper                        Precinct 202                                           01 
00060010004000000000000000000000000000000000000000000000000000000000000000000000000000000000000000000DEM       DEM US Senator                                          Michael Cooper                        Precinct 203                                           01 
00060010005000006000006000000000000000000000000000000000000000000000000000000000000000000000000000000DEM       DEM US Senator                                          Michael Cooper                        Precinct 301                                           01 
00060010006000002000002000000000000000000000000000000000000000000000000000000000000000000000000000000DEM       DEM US Senator                                          Michael Cooper                        Precinct 401                                           01 
00060010007000002000002000000000000000000000000000000000000000000000000000000000000000000000000000000DEM       DEM US Senator                                          Michael Cooper                        Precinct 402                                           01 
00060020001000007000006000001000000000000000000000000000000000000000000000000000000000000000000000000DEM       DEM US Senator                                          Adrian Ocegueda                       Precinct 101                                           01 
00060020002000003000003000000000000000000000000000000000000000000000000000000000000000000000000000000DEM       DEM US Senator                                          Adrian Ocegueda                       Precinct 201                                           01 
00060020003000002000002000000000000000000000000000000000000000000000000000000000000000000000000000000DEM       DEM US Senator                                          Adrian Ocegueda                       Precinct 202                                           01 
00060020004000000000000000000000000000000000000000000000000000000000000000000000000000000000000000000DEM       DEM US Senator                                          Adrian Ocegueda                       Precinct 203                                           01 
00060020005000002000001000001000000000000000000000000000000000000000000000000000000000000000000000000DEM       DEM US Senator                                          Adrian Ocegueda                       Precinct 301                                           01 
00060020006000000000000000000000000000000000000000000000000000000000000000000000000000000000000000000DEM       DEM US Senator                                          Adrian Ocegueda                       Precinct 401                                           01 
00060020007000001000001000000000000000000000000000000000000000000000000000000000000000000000000000000DEM       DEM US Senator                                          Adrian Ocegueda                       Precinct 402                                           01 
00060030001000004000003000001000000000000000000000000000000000000000000000000000000000000000000000000DEM       DEM US Senator                                          Mary (MJ) Hegar                       Precinct 101                                           01 
00060030002000004000003000001000000000000000000000000000000000000000000000000000000000000000000000000DEM       DEM US Senator                                          Mary (MJ) Hegar                       Precinct 201                                           01 
00060030003000008000007000001000000000000000000000000000000000000000000000000000000000000000000000000DEM       DEM US Senator                                          Mary (MJ) Hegar                       Precinct 202                                           01 
00060030004000000000000000000000000000000000000000000000000000000000000000000000000000000000000000000DEM       DEM US Senator                                          Mary (MJ) Hegar                       Precinct 203                                           01 
00060030005000005000004000000000001000000000000000000000000000000000000000000000000000000000000000000DEM       DEM US Senator                                          Mary (MJ) Hegar                       Precinct 301                                           01 
00060030006000001000001000000000000000000000000000000000000000000000000000000000000000000000000000000DEM       DEM US Senator                                          Mary (MJ) Hegar                       Precinct 401                                           01 
00060030007000002000002000000000000000000000000000000000000000000000000000000000000000000000000000000DEM       DEM US Senator                                          Mary (MJ) Hegar                       Precinct 402                                           01 
00060040001000003000002000001000000000000000000000000000000000000000000000000000000000000000000000000DEM       DEM US Senator                                          D. R. Hunter                          Precinct 101                                           01 
00060040002000000000000000000000000000000000000000000000000000000000000000000000000000000000000000000DEM       DEM US Senator                                          D. R. Hunter                          Precinct 201                                           01 
00060040003000001000001000000000000000000000000000000000000000000000000000000000000000000000000000000DEM       DEM US Senator                                          D. R. Hunter                          Precinct 202                                           01 
00060040004000000000000000000000000000000000000000000000000000000000000000000000000000000000000000000DEM       DEM US Senator                                          D. R. Hunter                          Precinct 203                                           01 
00060040005000002000001000001000000000000000000000000000000000000000000000000000000000000000000000000DEM       DEM US Senator                                          D. R. Hunter                          Precinct 301                                           01 
00060040006000001000001000000000000000000000000000000000000000000000000000000000000000000000000000000DEM       DEM US Senator                                          D. R. Hunter                          Precinct 401                                           01 
00060040007000001000001000000000000000000000000000000000000000000000000000000000000000000000000000000DEM       DEM US Senator                                          D. R. Hunter                          Precinct 402                                           01 
00060050001000011000009000002000000000000000000000000000000000000000000000000000000000000000000000000DEM       DEM US Senator                                          Cristina Tzintzun Ramirez             Precinct 101                                           01 
00060050002000003000003000000000000000000000000000000000000000000000000000000000000000000000000000000DEM       DEM US Senator                                          Cristina Tzintzun Ramirez             Precinct 201                                           01 
00060050003000005000002000003000000000000000000000000000000000000000000000000000000000000000000000000DEM       DEM US Senator                                          Cristina Tzintzun Ramirez             Precinct 202                                           01 
00060050004000000000000000000000000000000000000000000000000000000000000000000000000000000000000000000DEM       DEM US Senator                                          Cristina Tzintzun Ramirez             Precinct 203                                           01 
00060050005000013000010000001000002000000000000000000000000000000000000000000000000000000000000000000DEM       DEM US Senator                                          Cristina Tzintzun Ramirez             Precinct 301                                           01 
00060050006000004000002000001000001000000000000000000000000000000000000000000000000000000000000000000DEM       DEM US Senator                                          Cristina Tzintzun Ramirez             Precinct 401                                           01 
00060050007000000000000000000000000000000000000000000000000000000000000000000000000000000000000000000DEM       DEM US Senator                                          Cristina Tzintzun Ramirez             Precinct 402                                           01 
00060060001000005000002000003000000000000000000000000000000000000000000000000000000000000000000000000DEM       DEM US Senator                                          Victor Hugo Harris                    Precinct 101                                           01 
00060060002000002000002000000000000000000000000000000000000000000000000000000000000000000000000000000DEM       DEM US Senator                                          Victor Hugo Harris                    Precinct 201                                           01 
00060060003000000000000000000000000000000000000000000000000000000000000000000000000000000000000000000DEM       DEM US Senator                                          Victor Hugo Harris                    Precinct 202                                           01 
00060060004000000000000000000000000000000000000000000000000000000000000000000000000000000000000000000DEM       DEM US Senator                                          Victor Hugo Harris                    Precinct 203                                           01 
00060060005000002000002000000000000000000000000000000000000000000000000000000000000000000000000000000DEM       DEM US Senator                                          Victor Hugo Harris                    Precinct 301                                           01 
00060060006000001000001000000000000000000000000000000000000000000000000000000000000000000000000000000DEM       DEM US Senator                                          Victor Hugo Harris                    Precinct 401                                           01 
00060060007000007000007000000000000000000000000000000000000000000000000000000000000000000000000000000DEM       DEM US Senator                                          Victor Hugo Harris                    Precinct 402                                           01 
00060070001000007000003000002000002000000000000000000000000000000000000000000000000000000000000000000DEM       DEM US Senator                                          Chris Bell                            Precinct 101                                           01 
00060070002000004000002000002000000000000000000000000000000000000000000000000000000000000000000000000DEM       DEM US Senator                                          Chris Bell                            Precinct 201                                           01 
00060070003000006000003000001000002000000000000000000000000000000000000000000000000000000000000000000DEM       DEM US Senator                                          Chris Bell                            Precinct 202                                           01 
00060070004000000000000000000000000000000000000000000000000000000000000000000000000000000000000000000DEM       DEM US Senator                                          Chris Bell                            Precinct 203                                           01 
00060070005000003000002000000000001000000000000000000000000000000000000000000000000000000000000000000DEM       DEM US Senator                                          Chris Bell                            Precinct 301                                           01 
00060070006000004000003000001000000000000000000000000000000000000000000000000000000000000000000000000DEM       DEM US Senator                                          Chris Bell                            Precinct 401                                           01 
00060070007000000000000000000000000000000000000000000000000000000000000000000000000000000000000000000DEM       DEM US Senator                                          Chris Bell                            Precinct 402                                           01 
00060080001000010000008000002000000000000000000000000000000000000000000000000000000000000000000000000DEM       DEM US Senator                                          Annie "Mama" Garcia                   Precinct 101                                           01 
00060080002000018000016000002000000000000000000000000000000000000000000000000000000000000000000000000DEM       DEM US Senator                                          Annie "Mama" Garcia                   Precinct 201                                           01 
00060080003000006000006000000000000000000000000000000000000000000000000000000000000000000000000000000DEM       DEM US Senator                                          Annie "Mama" Garcia                   Precinct 202                                           01 
00060080004000000000000000000000000000000000000000000000000000000000000000000000000000000000000000000DEM       DEM US Senator                                          Annie "Mama" Garcia                   Precinct 203                                           01 
00060080005000007000007000000000000000000000000000000000000000000000000000000000000000000000000000000DEM       DEM US Senator                                          Annie "Mama" Garcia                   Precinct 301                                           01 
00060080006000007000007000000000000000000000000000000000000000000000000000000000000000000000000000000DEM       DEM US Senator                                          Annie "Mama" Garcia                   Precinct 401                                           01 
00060080007000006000006000000000000000000000000000000000000000000000000000000000000000000000000000000DEM       DEM US Senator                                          Annie "Mama" Garcia                   Precinct 402                                           01 
00060090001000008000006000002000000000000000000000000000000000000000000000000000000000000000000000000DEM       DEM US Senator                                          Sema Hernandez                        Precinct 101                                           01 
00060090002000005000004000001000000000000000000000000000000000000000000000000000000000000000000000000DEM       DEM US Senator                                          Sema Hernandez                        Precinct 201                                           01 
00060090003000002000001000001000000000000000000000000000000000000000000000000000000000000000000000000DEM       DEM US Senator                                          Sema Hernandez                        Precinct 202                                           01 
00060090004000000000000000000000000000000000000000000000000000000000000000000000000000000000000000000DEM       DEM US Senator                                          Sema Hernandez                        Precinct 203                                           01 
00060090005000013000012000001000000000000000000000000000000000000000000000000000000000000000000000000DEM       DEM US Senator                                          Sema Hernandez                        Precinct 301                                           01 
00060090006000004000004000000000000000000000000000000000000000000000000000000000000000000000000000000DEM       DEM US Senator                                          Sema Hernandez                        Precinct 401                                           01 
00060090007000003000003000000000000000000000000000000000000000000000000000000000000000000000000000000DEM       DEM US Senator                                          Sema Hernandez                        Precinct 402                                           01 
00060100001000002000002000000000000000000000000000000000000000000000000000000000000000000000000000000DEM       DEM US Senator                                          Jack Daniel Foster, Jr.               Precinct 101                                           01 
00060100002000001000001000000000000000000000000000000000000000000000000000000000000000000000000000000DEM       DEM US Senator                                          Jack Daniel Foster, Jr.               Precinct 201                                           01 
00060100003000002000001000001000000000000000000000000000000000000000000000000000000000000000000000000DEM       DEM US Senator                                          Jack Daniel Foster, Jr.               Precinct 202                                           01 
00060100004000000000000000000000000000000000000000000000000000000000000000000000000000000000000000000DEM       DEM US Senator                                          Jack Daniel Foster, Jr.               Precinct 203                                           01 
00060100005000001000001000000000000000000000000000000000000000000000000000000000000000000000000000000DEM       DEM US Senator                                          Jack Daniel Foster, Jr.               Precinct 301                                           01 
00060100006000000000000000000000000000000000000000000000000000000000000000000000000000000000000000000DEM       DEM US Senator                                          Jack Daniel Foster, Jr.               Precinct 401                                           01 
00060100007000000000000000000000000000000000000000000000000000000000000000000000000000000000000000000DEM       DEM US Senator                                          Jack Daniel Foster, Jr.               Precinct 402                                           01 
00060110001000002000002000000000000000000000000000000000000000000000000000000000000000000000000000000DEM       DEM US Senator                                          Amanda K. Edwards                     Precinct 101                                           01 
00060110002000004000003000001000000000000000000000000000000000000000000000000000000000000000000000000DEM       DEM US Senator                                          Amanda K. Edwards                     Precinct 201                                           01 
00060110003000001000001000000000000000000000000000000000000000000000000000000000000000000000000000000DEM       DEM US Senator                                          Amanda K. Edwards                     Precinct 202                                           01 
00060110004000000000000000000000000000000000000000000000000000000000000000000000000000000000000000000DEM       DEM US Senator                                          Amanda K. Edwards                     Precinct 203                                           01 
00060110005000001000001000000000000000000000000000000000000000000000000000000000000000000000000000000DEM       DEM US Senator                                          Amanda K. Edwards                     Precinct 301                                           01 
00060110006000000000000000000000000000000000000000000000000000000000000000000000000000000000000000000DEM       DEM US Senator                                          Amanda K. Edwards                     Precinct 401                                           01 
00060110007000002000002000000000000000000000000000000000000000000000000000000000000000000000000000000DEM       DEM US Senator                                          Amanda K. Edwards                     Precinct 402                                           01 
00060120001000002000001000000000001000000000000000000000000000000000000000000000000000000000000000000DEM       DEM US Senator                                          Royce West                            Precinct 101                                           01 
00060120002000003000002000001000000000000000000000000000000000000000000000000000000000000000000000000DEM       DEM US Senator                                          Royce West                            Precinct 201                                           01 
00060120003000001000000000001000000000000000000000000000000000000000000000000000000000000000000000000DEM       DEM US Senator                                          Royce West                            Precinct 202                                           01 
00060120004000000000000000000000000000000000000000000000000000000000000000000000000000000000000000000DEM       DEM US Senator                                          Royce West                            Precinct 203                                           01 
00060120005000002000001000000000001000000000000000000000000000000000000000000000000000000000000000000DEM       DEM US Senator                                          Royce West                            Precinct 301                                           01 
00060120006000001000001000000000000000000000000000000000000000000000000000000000000000000000000000000DEM       DEM US Senator                                          Royce West                            Precinct 401                                           01 
00060120007000000000000000000000000000000000000000000000000000000000000000000000000000000000000000000DEM       DEM US Senator                                          Royce West                            Precinct 402                                           01 
00070010001000019000016000002000001000000000000000000000000000000000000000000000000000000000000000000DEM       DEM US Representative, Dist 13                          Timothy W. Gassaway                   Precinct 101                                           01 
00070010002000012000008000004000000000000000000000000000000000000000000000000000000000000000000000000DEM       DEM US Representative, Dist 13                          Timothy W. Gassaway                   Precinct 201                                           01 
00070010003000010000008000002000000000000000000000000000000000000000000000000000000000000000000000000DEM       DEM US Representative, Dist 13                          Timothy W. Gassaway                   Precinct 202                                           01 
00070010004000000000000000000000000000000000000000000000000000000000000000000000000000000000000000000DEM       DEM US Representative, Dist 13                          Timothy W. Gassaway                   Precinct 203                                           01 
00070010005000013000011000001000001000000000000000000000000000000000000000000000000000000000000000000DEM       DEM US Representative, Dist 13                          Timothy W. Gassaway                   Precinct 301                                           01 
00070010006000005000004000000000001000000000000000000000000000000000000000000000000000000000000000000DEM       DEM US Representative, Dist 13                          Timothy W. Gassaway                   Precinct 401                                           01 
00070010007000004000004000000000000000000000000000000000000000000000000000000000000000000000000000000DEM       DEM US Representative, Dist 13                          Timothy W. Gassaway                   Precinct 402                                           01 
00070020001000016000008000005000003000000000000000000000000000000000000000000000000000000000000000000DEM       DEM US Representative, Dist 13                          Greg Sagan                            Precinct 101                                           01 
00070020002000010000008000002000000000000000000000000000000000000000000000000000000000000000000000000DEM       DEM US Representative, Dist 13                          Greg Sagan                            Precinct 201                                           01 
00070020003000014000009000003000002000000000000000000000000000000000000000000000000000000000000000000DEM       DEM US Representative, Dist 13                          Greg Sagan                            Precinct 202                                           01 
00070020004000000000000000000000000000000000000000000000000000000000000000000000000000000000000000000DEM       DEM US Representative, Dist 13                          Greg Sagan                            Precinct 203                                           01 
00070020005000003000003000000000000000000000000000000000000000000000000000000000000000000000000000000DEM       DEM US Representative, Dist 13                          Greg Sagan                            Precinct 301                                           01 
00070020006000006000004000002000000000000000000000000000000000000000000000000000000000000000000000000DEM       DEM US Representative, Dist 13                          Greg Sagan                            Precinct 401                                           01 
00070020007000003000003000000000000000000000000000000000000000000000000000000000000000000000000000000DEM       DEM US Representative, Dist 13                          Greg Sagan                            Precinct 402                                           01 
00070030001000034000023000008000003000000000000000000000000000000000000000000000000000000000000000000DEM       DEM US Representative, Dist 13                          Gus Trujillo                          Precinct 101                                           01 
00070030002000030000028000002000000000000000000000000000000000000000000000000000000000000000000000000DEM       DEM US Representative, Dist 13                          Gus Trujillo                          Precinct 201                                           01 
00070030003000016000012000003000001000000000000000000000000000000000000000000000000000000000000000000DEM       DEM US Representative, Dist 13                          Gus Trujillo                          Precinct 202                                           01 
00070030004000000000000000000000000000000000000000000000000000000000000000000000000000000000000000000DEM       DEM US Representative, Dist 13                          Gus Trujillo                          Precinct 203                                           01 
00070030005000040000033000002000005000000000000000000000000000000000000000000000000000000000000000000DEM       DEM US Representative, Dist 13                          Gus Trujillo                          Precinct 301                                           01 
00070030006000013000013000000000000000000000000000000000000000000000000000000000000000000000000000000DEM       DEM US Representative, Dist 13                          Gus Trujillo                          Precinct 401                                           01 
00070030007000018000018000000000000000000000000000000000000000000000000000000000000000000000000000000DEM       DEM US Representative, Dist 13                          Gus Trujillo                          Precinct 402                                           01 
00080010001000019000012000006000001000000000000000000000000000000000000000000000000000000000000000000DEM       DEM Railroad Commissioner                               Kelly Stone                           Precinct 101                                           01 
00080010002000012000009000003000000000000000000000000000000000000000000000000000000000000000000000000DEM       DEM Railroad Commissioner                               Kelly Stone                           Precinct 201                                           01 
00080010003000013000010000001000002000000000000000000000000000000000000000000000000000000000000000000DEM       DEM Railroad Commissioner                               Kelly Stone                           Precinct 202                                           01 
00080010004000000000000000000000000000000000000000000000000000000000000000000000000000000000000000000DEM       DEM Railroad Commissioner                               Kelly Stone                           Precinct 203                                           01 
00080010005000010000006000001000003000000000000000000000000000000000000000000000000000000000000000000DEM       DEM Railroad Commissioner                               Kelly Stone                           Precinct 301                                           01 
00080010006000005000005000000000000000000000000000000000000000000000000000000000000000000000000000000DEM       DEM Railroad Commissioner                               Kelly Stone                           Precinct 401                                           01 
00080010007000006000006000000000000000000000000000000000000000000000000000000000000000000000000000000DEM       DEM Railroad Commissioner                               Kelly Stone                           Precinct 402                                           01 
00080020001000014000010000001000003000000000000000000000000000000000000000000000000000000000000000000DEM       DEM Railroad Commissioner                               Mark Watson                           Precinct 101                                           01 
00080020002000006000006000000000000000000000000000000000000000000000000000000000000000000000000000000DEM       DEM Railroad Commissioner                               Mark Watson                           Precinct 201                                           01 
00080020003000011000008000003000000000000000000000000000000000000000000000000000000000000000000000000DEM       DEM Railroad Commissioner                               Mark Watson                           Precinct 202                                           01 
00080020004000000000000000000000000000000000000000000000000000000000000000000000000000000000000000000DEM       DEM Railroad Commissioner                               Mark Watson                           Precinct 203                                           01 
00080020005000008000008000000000000000000000000000000000000000000000000000000000000000000000000000000DEM       DEM Railroad Commissioner                               Mark Watson                           Precinct 301                                           01 
00080020006000002000000000001000001000000000000000000000000000000000000000000000000000000000000000000DEM       DEM Railroad Commissioner                               Mark Watson                           Precinct 401                                           01 
00080020007000002000002000000000000000000000000000000000000000000000000000000000000000000000000000000DEM       DEM Railroad Commissioner                               Mark Watson                           Precinct 402                                           01 
00080030001000028000022000004000002000000000000000000000000000000000000000000000000000000000000000000DEM       DEM Railroad Commissioner                               Roberto R. "Beto" Alonzo              Precinct 101                                           01 
00080030002000018000015000003000000000000000000000000000000000000000000000000000000000000000000000000DEM       DEM Railroad Commissioner                               Roberto R. "Beto" Alonzo              Precinct 201                                           01 
00080030003000008000006000001000001000000000000000000000000000000000000000000000000000000000000000000DEM       DEM Railroad Commissioner                               Roberto R. "Beto" Alonzo              Precinct 202                                           01 
00080030004000000000000000000000000000000000000000000000000000000000000000000000000000000000000000000DEM       DEM Railroad Commissioner                               Roberto R. "Beto" Alonzo              Precinct 203                                           01 
00080030005000024000022000002000000000000000000000000000000000000000000000000000000000000000000000000DEM       DEM Railroad Commissioner                               Roberto R. "Beto" Alonzo              Precinct 301                                           01 
00080030006000010000010000000000000000000000000000000000000000000000000000000000000000000000000000000DEM       DEM Railroad Commissioner                               Roberto R. "Beto" Alonzo              Precinct 401                                           01 
00080030007000013000013000000000000000000000000000000000000000000000000000000000000000000000000000000DEM       DEM Railroad Commissioner                               Roberto R. "Beto" Alonzo              Precinct 402                                           01 
00080040001000010000006000004000000000000000000000000000000000000000000000000000000000000000000000000DEM       DEM Railroad Commissioner                               Chrysta Castaneda                     Precinct 101                                           01 
00080040002000014000012000002000000000000000000000000000000000000000000000000000000000000000000000000DEM       DEM Railroad Commissioner                               Chrysta Castaneda                     Precinct 201                                           01 
00080040003000009000006000003000000000000000000000000000000000000000000000000000000000000000000000000DEM       DEM Railroad Commissioner                               Chrysta Castaneda                     Precinct 202                                           01 
00080040004000000000000000000000000000000000000000000000000000000000000000000000000000000000000000000DEM       DEM Railroad Commissioner                               Chrysta Castaneda                     Precinct 203                                           01 
00080040005000016000012000001000003000000000000000000000000000000000000000000000000000000000000000000DEM       DEM Railroad Commissioner                               Chrysta Castaneda                     Precinct 301                                           01 
00080040006000007000006000001000000000000000000000000000000000000000000000000000000000000000000000000DEM       DEM Railroad Commissioner                               Chrysta Castaneda                     Precinct 401                                           01 
00080040007000005000005000000000000000000000000000000000000000000000000000000000000000000000000000000DEM       DEM Railroad Commissioner                               Chrysta Castaneda                     Precinct 402                                           01 
00090010001000020000012000007000001000000000000000000000000000000000000000000000000000000000000000000DEM       DEM Chief Justice, Supreme Court                        Jerry Zimmerer                        Precinct 101                                           01 
00090010002000014000011000003000000000000000000000000000000000000000000000000000000000000000000000000DEM       DEM Chief Justice, Supreme Court                        Jerry Zimmerer                        Precinct 201                                           01 
00090010003000013000011000002000000000000000000000000000000000000000000000000000000000000000000000000DEM       DEM Chief Justice, Supreme Court                        Jerry Zimmerer                        Precinct 202                                           01 
00090010004000000000000000000000000000000000000000000000000000000000000000000000000000000000000000000DEM       DEM Chief Justice, Supreme Court                        Jerry Zimmerer                        Precinct 203                                           01 
00090010005000022000019000001000002000000000000000000000000000000000000000000000000000000000000000000DEM       DEM Chief Justice, Supreme Court                        Jerry Zimmerer                        Precinct 301                                           01 
00090010006000006000005000001000000000000000000000000000000000000000000000000000000000000000000000000DEM       DEM Chief Justice, Supreme Court                        Jerry Zimmerer                        Precinct 401                                           01 
00090010007000009000009000000000000000000000000000000000000000000000000000000000000000000000000000000DEM       DEM Chief Justice, Supreme Court                        Jerry Zimmerer                        Precinct 402                                           01 
00090020001000049000036000008000005000000000000000000000000000000000000000000000000000000000000000000DEM       DEM Chief Justice, Supreme Court                        Amy Clark Meachum                     Precinct 101                                           01 
00090020002000037000032000005000000000000000000000000000000000000000000000000000000000000000000000000DEM       DEM Chief Justice, Supreme Court                        Amy Clark Meachum                     Precinct 201                                           01 
00090020003000027000019000006000002000000000000000000000000000000000000000000000000000000000000000000DEM       DEM Chief Justice, Supreme Court                        Amy Clark Meachum                     Precinct 202                                           01 
00090020004000000000000000000000000000000000000000000000000000000000000000000000000000000000000000000DEM       DEM Chief Justice, Supreme Court                        Amy Clark Meachum                     Precinct 203                                           01 
00090020005000035000028000003000004000000000000000000000000000000000000000000000000000000000000000000DEM       DEM Chief Justice, Supreme Court                        Amy Clark Meachum                     Precinct 301                                           01 
00090020006000019000017000001000001000000000000000000000000000000000000000000000000000000000000000000DEM       DEM Chief Justice, Supreme Court                        Amy Clark Meachum                     Precinct 401                                           01 
00090020007000015000015000000000000000000000000000000000000000000000000000000000000000000000000000000DEM       DEM Chief Justice, Supreme Court                        Amy Clark Meachum                     Precinct 402                                           01 
00100010001000028000017000007000004000000000000000000000000000000000000000000000000000000000000000000DEM       DEM Justice, Supreme Court, Pl 6                        Larry Praeger                         Precinct 101                                           01 
00100010002000017000013000004000000000000000000000000000000000000000000000000000000000000000000000000DEM       DEM Justice, Supreme Court, Pl 6                        Larry Praeger                         Precinct 201                                           01 
00100010003000010000007000001000002000000000000000000000000000000000000000000000000000000000000000000DEM       DEM Justice, Supreme Court, Pl 6                        Larry Praeger                         Precinct 202                                           01 
00100010004000000000000000000000000000000000000000000000000000000000000000000000000000000000000000000DEM       DEM Justice, Supreme Court, Pl 6                        Larry Praeger                         Precinct 203                                           01 
00100010005000026000023000003000000000000000000000000000000000000000000000000000000000000000000000000DEM       DEM Justice, Supreme Court, Pl 6                        Larry Praeger                         Precinct 301                                           01 
00100010006000009000009000000000000000000000000000000000000000000000000000000000000000000000000000000DEM       DEM Justice, Supreme Court, Pl 6                        Larry Praeger                         Precinct 401                                           01 
00100010007000012000012000000000000000000000000000000000000000000000000000000000000000000000000000000DEM       DEM Justice, Supreme Court, Pl 6                        Larry Praeger                         Precinct 402                                           01 
00100020001000041000031000008000002000000000000000000000000000000000000000000000000000000000000000000DEM       DEM Justice, Supreme Court, Pl 6                        Kathy Cheng                           Precinct 101                                           01 
00100020002000035000031000004000000000000000000000000000000000000000000000000000000000000000000000000DEM       DEM Justice, Supreme Court, Pl 6                        Kathy Cheng                           Precinct 201                                           01 
00100020003000030000022000007000001000000000000000000000000000000000000000000000000000000000000000000DEM       DEM Justice, Supreme Court, Pl 6                        Kathy Cheng                           Precinct 202                                           01 
00100020004000000000000000000000000000000000000000000000000000000000000000000000000000000000000000000DEM       DEM Justice, Supreme Court, Pl 6                        Kathy Cheng                           Precinct 203                                           01 
00100020005000032000025000001000006000000000000000000000000000000000000000000000000000000000000000000DEM       DEM Justice, Supreme Court, Pl 6                        Kathy Cheng                           Precinct 301                                           01 
00100020006000016000013000002000001000000000000000000000000000000000000000000000000000000000000000000DEM       DEM Justice, Supreme Court, Pl 6                        Kathy Cheng                           Precinct 401                                           01 
00100020007000012000012000000000000000000000000000000000000000000000000000000000000000000000000000000DEM       DEM Justice, Supreme Court, Pl 6                        Kathy Cheng                           Precinct 402                                           01 
00110010001000035000022000010000003000000000000000000000000000000000000000000000000000000000000000000DEM       DEM Justice, Supreme Court, Pl 7                        Brandy Voss                           Precinct 101                                           01 
00110010002000020000015000005000000000000000000000000000000000000000000000000000000000000000000000000DEM       DEM Justice, Supreme Court, Pl 7                        Brandy Voss                           Precinct 201                                           01 
00110010003000013000007000004000002000000000000000000000000000000000000000000000000000000000000000000DEM       DEM Justice, Supreme Court, Pl 7                        Brandy Voss                           Precinct 202                                           01 
00110010004000000000000000000000000000000000000000000000000000000000000000000000000000000000000000000DEM       DEM Justice, Supreme Court, Pl 7                        Brandy Voss                           Precinct 203                                           01 
00110010005000015000014000000000001000000000000000000000000000000000000000000000000000000000000000000DEM       DEM Justice, Supreme Court, Pl 7                        Brandy Voss                           Precinct 301                                           01 
00110010006000013000012000001000000000000000000000000000000000000000000000000000000000000000000000000DEM       DEM Justice, Supreme Court, Pl 7                        Brandy Voss                           Precinct 401                                           01 
00110010007000012000012000000000000000000000000000000000000000000000000000000000000000000000000000000DEM       DEM Justice, Supreme Court, Pl 7                        Brandy Voss                           Precinct 402                                           01 
00110020001000033000025000005000003000000000000000000000000000000000000000000000000000000000000000000DEM       DEM Justice, Supreme Court, Pl 7                        Staci Williams                        Precinct 101                                           01 
00110020002000032000029000003000000000000000000000000000000000000000000000000000000000000000000000000DEM       DEM Justice, Supreme Court, Pl 7                        Staci Williams                        Precinct 201                                           01 
00110020003000027000022000004000001000000000000000000000000000000000000000000000000000000000000000000DEM       DEM Justice, Supreme Court, Pl 7                        Staci Williams                        Precinct 202                                           01 
00110020004000000000000000000000000000000000000000000000000000000000000000000000000000000000000000000DEM       DEM Justice, Supreme Court, Pl 7                        Staci Williams                        Precinct 203                                           01 
00110020005000041000033000003000005000000000000000000000000000000000000000000000000000000000000000000DEM       DEM Justice, Supreme Court, Pl 7                        Staci Williams                        Precinct 301                                           01 
00110020006000011000009000001000001000000000000000000000000000000000000000000000000000000000000000000DEM       DEM Justice, Supreme Court, Pl 7                        Staci Williams                        Precinct 401                                           01 
00110020007000013000013000000000000000000000000000000000000000000000000000000000000000000000000000000DEM       DEM Justice, Supreme Court, Pl 7                        Staci Williams                        Precinct 402                                           01 
00120010001000044000030000011000003000000000000000000000000000000000000000000000000000000000000000000DEM       DEM Justice, Supreme Court, Pl 8                        Gisela D. Triana                      Precinct 101                                           01 
00120010002000043000037000006000000000000000000000000000000000000000000000000000000000000000000000000DEM       DEM Justice, Supreme Court, Pl 8                        Gisela D. Triana                      Precinct 201                                           01 
00120010003000026000020000005000001000000000000000000000000000000000000000000000000000000000000000000DEM       DEM Justice, Supreme Court, Pl 8                        Gisela D. Triana                      Precinct 202                                           01 
00120010004000000000000000000000000000000000000000000000000000000000000000000000000000000000000000000DEM       DEM Justice, Supreme Court, Pl 8                        Gisela D. Triana                      Precinct 203                                           01 
00120010005000039000032000004000003000000000000000000000000000000000000000000000000000000000000000000DEM       DEM Justice, Supreme Court, Pl 8                        Gisela D. Triana                      Precinct 301                                           01 
00120010006000019000017000002000000000000000000000000000000000000000000000000000000000000000000000000DEM       DEM Justice, Supreme Court, Pl 8                        Gisela D. Triana                      Precinct 401                                           01 
00120010007000015000015000000000000000000000000000000000000000000000000000000000000000000000000000000DEM       DEM Justice, Supreme Court, Pl 8                        Gisela D. Triana                      Precinct 402                                           01 
00120020001000025000018000004000003000000000000000000000000000000000000000000000000000000000000000000DEM       DEM Justice, Supreme Court, Pl 8                        Peter Kelly                           Precinct 101                                           01 
00120020002000008000006000002000000000000000000000000000000000000000000000000000000000000000000000000DEM       DEM Justice, Supreme Court, Pl 8                        Peter Kelly                           Precinct 201                                           01 
00120020003000013000008000003000002000000000000000000000000000000000000000000000000000000000000000000DEM       DEM Justice, Supreme Court, Pl 8                        Peter Kelly                           Precinct 202                                           01 
00120020004000000000000000000000000000000000000000000000000000000000000000000000000000000000000000000DEM       DEM Justice, Supreme Court, Pl 8                        Peter Kelly                           Precinct 203                                           01 
00120020005000019000016000000000003000000000000000000000000000000000000000000000000000000000000000000DEM       DEM Justice, Supreme Court, Pl 8                        Peter Kelly                           Precinct 301                                           01 
00120020006000005000004000000000001000000000000000000000000000000000000000000000000000000000000000000DEM       DEM Justice, Supreme Court, Pl 8                        Peter Kelly                           Precinct 401                                           01 
00120020007000009000009000000000000000000000000000000000000000000000000000000000000000000000000000000DEM       DEM Justice, Supreme Court, Pl 8                        Peter Kelly                           Precinct 402                                           01 
00130010001000015000009000005000001000000000000000000000000000000000000000000000000000000000000000000DEM       DEM Judge, Ct of Crim App, Pl 3                         William Pieratt Demond                Precinct 101                                           01 
00130010002000008000007000001000000000000000000000000000000000000000000000000000000000000000000000000DEM       DEM Judge, Ct of Crim App, Pl 3                         William Pieratt Demond                Precinct 201                                           01 
00130010003000007000006000001000000000000000000000000000000000000000000000000000000000000000000000000DEM       DEM Judge, Ct of Crim App, Pl 3                         William Pieratt Demond                Precinct 202                                           01 
00130010004000000000000000000000000000000000000000000000000000000000000000000000000000000000000000000DEM       DEM Judge, Ct of Crim App, Pl 3                         William Pieratt Demond                Precinct 203                                           01 
00130010005000010000010000000000000000000000000000000000000000000000000000000000000000000000000000000DEM       DEM Judge, Ct of Crim App, Pl 3                         William Pieratt Demond                Precinct 301                                           01 
00130010006000005000005000000000000000000000000000000000000000000000000000000000000000000000000000000DEM       DEM Judge, Ct of Crim App, Pl 3                         William Pieratt Demond                Precinct 401                                           01 
00130010007000006000006000000000000000000000000000000000000000000000000000000000000000000000000000000DEM       DEM Judge, Ct of Crim App, Pl 3                         William Pieratt Demond                Precinct 402                                           01 
00130020001000017000009000004000004000000000000000000000000000000000000000000000000000000000000000000DEM       DEM Judge, Ct of Crim App, Pl 3                         Dan Wood                              Precinct 101                                           01 
00130020002000012000009000003000000000000000000000000000000000000000000000000000000000000000000000000DEM       DEM Judge, Ct of Crim App, Pl 3                         Dan Wood                              Precinct 201                                           01 
00130020003000012000009000003000000000000000000000000000000000000000000000000000000000000000000000000DEM       DEM Judge, Ct of Crim App, Pl 3                         Dan Wood                              Precinct 202                                           01 
00130020004000000000000000000000000000000000000000000000000000000000000000000000000000000000000000000DEM       DEM Judge, Ct of Crim App, Pl 3                         Dan Wood                              Precinct 203                                           01 
00130020005000016000013000002000001000000000000000000000000000000000000000000000000000000000000000000DEM       DEM Judge, Ct of Crim App, Pl 3                         Dan Wood                              Precinct 301                                           01 
00130020006000004000004000000000000000000000000000000000000000000000000000000000000000000000000000000DEM       DEM Judge, Ct of Crim App, Pl 3                         Dan Wood                              Precinct 401                                           01 
00130020007000006000006000000000000000000000000000000000000000000000000000000000000000000000000000000DEM       DEM Judge, Ct of Crim App, Pl 3                         Dan Wood                              Precinct 402                                           01 
00130030001000037000030000006000001000000000000000000000000000000000000000000000000000000000000000000DEM       DEM Judge, Ct of Crim App, Pl 3                         Elizabeth Davis Frizell               Precinct 101                                           01 
00130030002000031000027000004000000000000000000000000000000000000000000000000000000000000000000000000DEM       DEM Judge, Ct of Crim App, Pl 3                         Elizabeth Davis Frizell               Precinct 201                                           01 
00130030003000021000014000004000003000000000000000000000000000000000000000000000000000000000000000000DEM       DEM Judge, Ct of Crim App, Pl 3                         Elizabeth Davis Frizell               Precinct 202                                           01 
00130030004000000000000000000000000000000000000000000000000000000000000000000000000000000000000000000DEM       DEM Judge, Ct of Crim App, Pl 3                         Elizabeth Davis Frizell               Precinct 203                                           01 
00130030005000031000024000002000005000000000000000000000000000000000000000000000000000000000000000000DEM       DEM Judge, Ct of Crim App, Pl 3                         Elizabeth Davis Frizell               Precinct 301                                           01 
00130030006000015000012000002000001000000000000000000000000000000000000000000000000000000000000000000DEM       DEM Judge, Ct of Crim App, Pl 3                         Elizabeth Davis Frizell               Precinct 401                                           01 
00130030007000012000012000000000000000000000000000000000000000000000000000000000000000000000000000000DEM       DEM Judge, Ct of Crim App, Pl 3                         Elizabeth Davis Frizell               Precinct 402                                           01 
00140010001000049000036000009000004000000000000000000000000000000000000000000000000000000000000000000DEM       DEM Judge, Ct of Crim App, Pl 4                         Tina Clinton                          Precinct 101                                           01 
00140010002000036000033000003000000000000000000000000000000000000000000000000000000000000000000000000DEM       DEM Judge, Ct of Crim App, Pl 4                         Tina Clinton                          Precinct 201                                           01 
00140010003000030000021000006000003000000000000000000000000000000000000000000000000000000000000000000DEM       DEM Judge, Ct of Crim App, Pl 4                         Tina Clinton                          Precinct 202                                           01 
00140010004000000000000000000000000000000000000000000000000000000000000000000000000000000000000000000DEM       DEM Judge, Ct of Crim App, Pl 4                         Tina Clinton                          Precinct 203                                           01 
00140010005000042000034000004000004000000000000000000000000000000000000000000000000000000000000000000DEM       DEM Judge, Ct of Crim App, Pl 4                         Tina Clinton                          Precinct 301                                           01 
00140010006000018000015000002000001000000000000000000000000000000000000000000000000000000000000000000DEM       DEM Judge, Ct of Crim App, Pl 4                         Tina Clinton                          Precinct 401                                           01 
00140010007000019000019000000000000000000000000000000000000000000000000000000000000000000000000000000DEM       DEM Judge, Ct of Crim App, Pl 4                         Tina Clinton                          Precinct 402                                           01 
00140020001000020000012000006000002000000000000000000000000000000000000000000000000000000000000000000DEM       DEM Judge, Ct of Crim App, Pl 4                         Steven Miears                         Precinct 101                                           01 
00140020002000015000010000005000000000000000000000000000000000000000000000000000000000000000000000000DEM       DEM Judge, Ct of Crim App, Pl 4                         Steven Miears                         Precinct 201                                           01 
00140020003000009000007000002000000000000000000000000000000000000000000000000000000000000000000000000DEM       DEM Judge, Ct of Crim App, Pl 4                         Steven Miears                         Precinct 202                                           01 
00140020004000000000000000000000000000000000000000000000000000000000000000000000000000000000000000000DEM       DEM Judge, Ct of Crim App, Pl 4                         Steven Miears                         Precinct 203                                           01 
00140020005000015000013000000000002000000000000000000000000000000000000000000000000000000000000000000DEM       DEM Judge, Ct of Crim App, Pl 4                         Steven Miears                         Precinct 301                                           01 
00140020006000006000006000000000000000000000000000000000000000000000000000000000000000000000000000000DEM       DEM Judge, Ct of Crim App, Pl 4                         Steven Miears                         Precinct 401                                           01 
00140020007000006000006000000000000000000000000000000000000000000000000000000000000000000000000000000DEM       DEM Judge, Ct of Crim App, Pl 4                         Steven Miears                         Precinct 402                                           01 
00150010001000065000045000015000005000000000000000000000000000000000000000000000000000000000000000000DEM       DEM Judge, Ct of Crim App, Pl 9                         Brandon Birmingham                    Precinct 101                                           01 
00150010002000047000039000008000000000000000000000000000000000000000000000000000000000000000000000000DEM       DEM Judge, Ct of Crim App, Pl 9                         Brandon Birmingham                    Precinct 201                                           01 
00150010003000039000028000008000003000000000000000000000000000000000000000000000000000000000000000000DEM       DEM Judge, Ct of Crim App, Pl 9                         Brandon Birmingham                    Precinct 202                                           01 
00150010004000000000000000000000000000000000000000000000000000000000000000000000000000000000000000000DEM       DEM Judge, Ct of Crim App, Pl 9                         Brandon Birmingham                    Precinct 203                                           01 
00150010005000053000043000004000006000000000000000000000000000000000000000000000000000000000000000000DEM       DEM Judge, Ct of Crim App, Pl 9                         Brandon Birmingham                    Precinct 301                                           01 
00150010006000024000021000002000001000000000000000000000000000000000000000000000000000000000000000000DEM       DEM Judge, Ct of Crim App, Pl 9                         Brandon Birmingham                    Precinct 401                                           01 
00150010007000024000024000000000000000000000000000000000000000000000000000000000000000000000000000000DEM       DEM Judge, Ct of Crim App, Pl 9                         Brandon Birmingham                    Precinct 402                                           01 
00160010001000067000047000014000006000000000000000000000000000000000000000000000000000000000000000000DEM       DEM Member, State BoE, Dist 15                          John Betancourt                       Precinct 101                                           01 
00160010002000046000038000008000000000000000000000000000000000000000000000000000000000000000000000000DEM       DEM Member, State BoE, Dist 15                          John Betancourt                       Precinct 201                                           01 
00160010003000042000030000009000003000000000000000000000000000000000000000000000000000000000000000000DEM       DEM Member, State BoE, Dist 15                          John Betancourt                       Precinct 202                                           01 
00160010004000000000000000000000000000000000000000000000000000000000000000000000000000000000000000000DEM       DEM Member, State BoE, Dist 15                          John Betancourt                       Precinct 203                                           01 
00160010005000055000045000004000006000000000000000000000000000000000000000000000000000000000000000000DEM       DEM Member, State BoE, Dist 15                          John Betancourt                       Precinct 301                                           01 
00160010006000024000021000002000001000000000000000000000000000000000000000000000000000000000000000000DEM       DEM Member, State BoE, Dist 15                          John Betancourt                       Precinct 401                                           01 
00160010007000024000024000000000000000000000000000000000000000000000000000000000000000000000000000000DEM       DEM Member, State BoE, Dist 15                          John Betancourt                       Precinct 402                                           01 
