01010010001000746000000000000000000000000000000          REGISTERED VOTERS - TOTAL                               REGISTERED VOTERS - TOTAL             Precinct 101                                           00 
01010010002000398000000000000000000000000000000          REGISTERED VOTERS - TOTAL                               REGISTERED VOTERS - TOTAL             Precinct 102                                           00 
01010010003000737000000000000000000000000000000          REGISTERED VOTERS - TOTAL                               REGISTERED VOTERS - TOTAL             Precinct 103                                           00 
01010010004000993000000000000000000000000000000          REGISTERED VOTERS - TOTAL                               REGISTERED VOTERS - TOTAL             Precinct 202                                           00 
01010010005001067000000000000000000000000000000          REGISTERED VOTERS - TOTAL                               REGISTERED VOTERS - TOTAL             Precinct 203                                           00 
01010010006001102000000000000000000000000000000          REGISTERED VOTERS - TOTAL                               REGISTERED VOTERS - TOTAL             Precinct 302                                           00 
01010010007001178000000000000000000000000000000          REGISTERED VOTERS - TOTAL                               REGISTERED VOTERS - TOTAL             Precinct 303                                           00 
01010010008002095000000000000000000000000000000          REGISTERED VOTERS - TOTAL                               REGISTERED VOTERS - TOTAL             Precinct 401                                           00 
01020010001000135000000000017000000000118000000          BALLOTS CAST - TOTAL                                    BALLOTS CAST - TOTAL                  Precinct 101                                           00 
01020010002000102000000000010000000000092000000          BALLOTS CAST - TOTAL                                    BALLOTS CAST - TOTAL                  Precinct 102                                           00 
01020010003000159000000000037000000000122000000          BALLOTS CAST - TOTAL                                    BALLOTS CAST - TOTAL                  Precinct 103                                           00 
01020010004000300000000000077000000000223000000          BALLOTS CAST - TOTAL                                    BALLOTS CAST - TOTAL                  Precinct 202                                           00 
01020010005000231000000000022000000000189000020          BALLOTS CAST - TOTAL                                    BALLOTS CAST - TOTAL                  Precinct 203                                           00 
01020010006000248000000000029000000000219000000          BALLOTS CAST - TOTAL                                    BALLOTS CAST - TOTAL                  Precinct 302                                           00 
01020010007000269000000000015000000000254000000          BALLOTS CAST - TOTAL                                    BALLOTS CAST - TOTAL                  Precinct 303                                           00 
01020010008000493000000000100000000000347000046          BALLOTS CAST - TOTAL                                    BALLOTS CAST - TOTAL                  Precinct 401                                           00 
01030010001000030000000000002000000000028000000REP       BALLOTS CAST - REPUBLICAN PARTY                         BALLOTS CAST - REPUBLICAN PARTY       Precinct 101                                           00 
01030010002000029000000000004000000000025000000REP       BALLOTS CAST - REPUBLICAN PARTY                         BALLOTS CAST - REPUBLICAN PARTY       Precinct 102                                           00 
01030010003000109000000000027000000000082000000REP       BALLOTS CAST - REPUBLICAN PARTY                         BALLOTS CAST - REPUBLICAN PARTY       Precinct 103                                           00 
01030010004000242000000000063000000000179000000REP       BALLOTS CAST - REPUBLICAN PARTY                         BALLOTS CAST - REPUBLICAN PARTY       Precinct 202                                           00 
01030010005000152000000000020000000000117000015REP       BALLOTS CAST - REPUBLICAN PARTY                         BALLOTS CAST - REPUBLICAN PARTY       Precinct 203                                           00 
01030010006000172000000000019000000000153000000REP       BALLOTS CAST - REPUBLICAN PARTY                         BALLOTS CAST - REPUBLICAN PARTY       Precinct 302                                           00 
01030010007000215000000000011000000000204000000REP       BALLOTS CAST - REPUBLICAN PARTY                         BALLOTS CAST - REPUBLICAN PARTY       Precinct 303                                           00 
01030010008000342000000000082000000000225000035REP       BALLOTS CAST - REPUBLICAN PARTY                         BALLOTS CAST - REPUBLICAN PARTY       Precinct 401                                           00 
01040010001000105000000000015000000000090000000DEM       BALLOTS CAST - DEMOCRATIC PARTY                         BALLOTS CAST - DEMOCRATIC PARTY       Precinct 101                                           00 
01040010002000073000000000006000000000067000000DEM       BALLOTS CAST - DEMOCRATIC PARTY                         BALLOTS CAST - DEMOCRATIC PARTY       Precinct 102                                           00 
01040010003000050000000000010000000000040000000DEM       BALLOTS CAST - DEMOCRATIC PARTY                         BALLOTS CAST - DEMOCRATIC PARTY       Precinct 103                                           00 
01040010004000058000000000014000000000044000000DEM       BALLOTS CAST - DEMOCRATIC PARTY                         BALLOTS CAST - DEMOCRATIC PARTY       Precinct 202                                           00 
01040010005000079000000000002000000000072000005DEM       BALLOTS CAST - DEMOCRATIC PARTY                         BALLOTS CAST - DEMOCRATIC PARTY       Precinct 203                                           00 
01040010006000076000000000010000000000066000000DEM       BALLOTS CAST - DEMOCRATIC PARTY                         BALLOTS CAST - DEMOCRATIC PARTY       Precinct 302                                           00 
01040010007000054000000000004000000000050000000DEM       BALLOTS CAST - DEMOCRATIC PARTY                         BALLOTS CAST - DEMOCRATIC PARTY       Precinct 303                                           00 
01040010008000151000000000018000000000122000011DEM       BALLOTS CAST - DEMOCRATIC PARTY                         BALLOTS CAST - DEMOCRATIC PARTY       Precinct 401                                           00 
01050010001000027000000000002000000000025000000REP       President                                               Donald J. Trump                       Precinct 101                                           01 
01050010002000028000000000004000000000024000000REP       President                                               Donald J. Trump                       Precinct 102                                           01 
01050010003000109000000000027000000000082000000REP       President                                               Donald J. Trump                       Precinct 103                                           01 
01050010004000173000000000001000000000172000000REP       President                                               Donald J. Trump                       Precinct 202                                           01 
01050010005000149000000000020000000000114000015REP       President                                               Donald J. Trump                       Precinct 203                                           01 
01050010006000168000000000019000000000149000000REP       President                                               Donald J. Trump                       Precinct 302                                           01 
01050010007000213000000000011000000000202000000REP       President                                               Donald J. Trump                       Precinct 303                                           01 
01050010008000329000000000080000000000216000033REP       President                                               Donald J. Trump                       Precinct 401                                           01 
01050020001000000000000000000000000000000000000REP       President                                               Bob Ely                               Precinct 101                                           01 
01050020002000000000000000000000000000000000000REP       President                                               Bob Ely                               Precinct 102                                           01 
01050020003000000000000000000000000000000000000REP       President                                               Bob Ely                               Precinct 103                                           01 
01050020004000000000000000000000000000000000000REP       President                                               Bob Ely                               Precinct 202                                           01 
01050020005000000000000000000000000000000000000REP       President                                               Bob Ely                               Precinct 203                                           01 
01050020006000000000000000000000000000000000000REP       President                                               Bob Ely                               Precinct 302                                           01 
01050020007000000000000000000000000000000000000REP       President                                               Bob Ely                               Precinct 303                                           01 
01050020008000003000000000000000000000002000001REP       President                                               Bob Ely                               Precinct 401                                           01 
01050030001000000000000000000000000000000000000REP       President                                               Roque "Rocky" De La Fuente Guerra     Precinct 101                                           01 
01050030002000000000000000000000000000000000000REP       President                                               Roque "Rocky" De La Fuente Guerra     Precinct 102                                           01 
01050030003000000000000000000000000000000000000REP       President                                               Roque "Rocky" De La Fuente Guerra     Precinct 103                                           01 
01050030004000000000000000000000000000000000000REP       President                                               Roque "Rocky" De La Fuente Guerra     Precinct 202                                           01 
01050030005000000000000000000000000000000000000REP       President                                               Roque "Rocky" De La Fuente Guerra     Precinct 203                                           01 
01050030006000000000000000000000000000000000000REP       President                                               Roque "Rocky" De La Fuente Guerra     Precinct 302                                           01 
01050030007000001000000000000000000000001000000REP       President                                               Roque "Rocky" De La Fuente Guerra     Precinct 303                                           01 
01050030008000000000000000000000000000000000000REP       President                                               Roque "Rocky" De La Fuente Guerra     Precinct 401                                           01 
01050040001000000000000000000000000000000000000REP       President                                               Zoltan G. Istvan                      Precinct 101                                           01 
01050040002000000000000000000000000000000000000REP       President                                               Zoltan G. Istvan                      Precinct 102                                           01 
01050040003000000000000000000000000000000000000REP       President                                               Zoltan G. Istvan                      Precinct 103                                           01 
01050040004000000000000000000000000000000000000REP       President                                               Zoltan G. Istvan                      Precinct 202                                           01 
01050040005000000000000000000000000000000000000REP       President                                               Zoltan G. Istvan                      Precinct 203                                           01 
01050040006000001000000000000000000000001000000REP       President                                               Zoltan G. Istvan                      Precinct 302                                           01 
01050040007000000000000000000000000000000000000REP       President                                               Zoltan G. Istvan                      Precinct 303                                           01 
01050040008000000000000000000000000000000000000REP       President                                               Zoltan G. Istvan                      Precinct 401                                           01 
01050050001000000000000000000000000000000000000REP       President                                               Matthew John Matern                   Precinct 101                                           01 
01050050002000000000000000000000000000000000000REP       President                                               Matthew John Matern                   Precinct 102                                           01 
01050050003000000000000000000000000000000000000REP       President                                               Matthew John Matern                   Precinct 103                                           01 
01050050004000000000000000000000000000000000000REP       President                                               Matthew John Matern                   Precinct 202                                           01 
01050050005000000000000000000000000000000000000REP       President                                               Matthew John Matern                   Precinct 203                                           01 
01050050006000000000000000000000000000000000000REP       President                                               Matthew John Matern                   Precinct 302                                           01 
01050050007000000000000000000000000000000000000REP       President                                               Matthew John Matern                   Precinct 303                                           01 
01050050008000000000000000000000000000000000000REP       President                                               Matthew John Matern                   Precinct 401                                           01 
01050060001000000000000000000000000000000000000REP       President                                               Joe Walsh                             Precinct 101                                           01 
01050060002000000000000000000000000000000000000REP       President                                               Joe Walsh                             Precinct 102                                           01 
01050060003000000000000000000000000000000000000REP       President                                               Joe Walsh                             Precinct 103                                           01 
01050060004000000000000000000000000000000000000REP       President                                               Joe Walsh                             Precinct 202                                           01 
01050060005000000000000000000000000000000000000REP       President                                               Joe Walsh                             Precinct 203                                           01 
01050060006000000000000000000000000000000000000REP       President                                               Joe Walsh                             Precinct 302                                           01 
01050060007000000000000000000000000000000000000REP       President                                               Joe Walsh                             Precinct 303                                           01 
01050060008000002000000000000000000000002000000REP       President                                               Joe Walsh                             Precinct 401                                           01 
01050070001000000000000000000000000000000000000REP       President                                               Bill Weld                             Precinct 101                                           01 
01050070002000000000000000000000000000000000000REP       President                                               Bill Weld                             Precinct 102                                           01 
01050070003000000000000000000000000000000000000REP       President                                               Bill Weld                             Precinct 103                                           01 
01050070004000001000000000001000000000000000000REP       President                                               Bill Weld                             Precinct 202                                           01 
01050070005000000000000000000000000000000000000REP       President                                               Bill Weld                             Precinct 203                                           01 
01050070006000000000000000000000000000000000000REP       President                                               Bill Weld                             Precinct 302                                           01 
01050070007000000000000000000000000000000000000REP       President                                               Bill Weld                             Precinct 303                                           01 
01050070008000001000000000000000000000000000001REP       President                                               Bill Weld                             Precinct 401                                           01 
01050080001000002000000000000000000000002000000REP       President                                               Uncommitted                           Precinct 101                                           01 
01050080002000000000000000000000000000000000000REP       President                                               Uncommitted                           Precinct 102                                           01 
01050080003000000000000000000000000000000000000REP       President                                               Uncommitted                           Precinct 103                                           01 
01050080004000005000000000001000000000004000000REP       President                                               Uncommitted                           Precinct 202                                           01 
01050080005000002000000000000000000000002000000REP       President                                               Uncommitted                           Precinct 203                                           01 
01050080006000001000000000000000000000001000000REP       President                                               Uncommitted                           Precinct 302                                           01 
01050080007000000000000000000000000000000000000REP       President                                               Uncommitted                           Precinct 303                                           01 
01050080008000005000000000000000000000005000000REP       President                                               Uncommitted                           Precinct 401                                           01 
01050090001000000000000000000000000000000000000REP       President                                               OVER VOTES                            Precinct 101                                           01 
01050090002000001000000000000000000000001000000REP       President                                               OVER VOTES                            Precinct 102                                           01 
01050090003000000000000000000000000000000000000REP       President                                               OVER VOTES                            Precinct 103                                           01 
01050090004000000000000000000000000000000000000REP       President                                               OVER VOTES                            Precinct 202                                           01 
01050090005000000000000000000000000000000000000REP       President                                               OVER VOTES                            Precinct 203                                           01 
01050090006000000000000000000000000000000000000REP       President                                               OVER VOTES                            Precinct 302                                           01 
01050090007000000000000000000000000000000000000REP       President                                               OVER VOTES                            Precinct 303                                           01 
01050090008000000000000000000000000000000000000REP       President                                               OVER VOTES                            Precinct 401                                           01 
01050100001000001000000000000000000000001000000REP       President                                               UNDER VOTES                           Precinct 101                                           01 
01050100002000000000000000000000000000000000000REP       President                                               UNDER VOTES                           Precinct 102                                           01 
01050100003000000000000000000000000000000000000REP       President                                               UNDER VOTES                           Precinct 103                                           01 
01050100004000003000000000000000000000003000000REP       President                                               UNDER VOTES                           Precinct 202                                           01 
01050100005000001000000000000000000000001000000REP       President                                               UNDER VOTES                           Precinct 203                                           01 
01050100006000002000000000000000000000002000000REP       President                                               UNDER VOTES                           Precinct 302                                           01 
01050100007000001000000000000000000000001000000REP       President                                               UNDER VOTES                           Precinct 303                                           01 
01050100008000002000000000002000000000000000000REP       President                                               UNDER VOTES                           Precinct 401                                           01 
01060010001000023000000000002000000000021000000REP       United States Senator                                   John Cornyn                           Precinct 101                                           01 
01060010002000025000000000004000000000021000000REP       United States Senator                                   John Cornyn                           Precinct 102                                           01 
01060010003000069000000000016000000000053000000REP       United States Senator                                   John Cornyn                           Precinct 103                                           01 
01060010004000159000000000043000000000116000000REP       United States Senator                                   John Cornyn                           Precinct 202                                           01 
01060010005000100000000000017000000000071000012REP       United States Senator                                   John Cornyn                           Precinct 203                                           01 
01060010006000105000000000015000000000090000000REP       United States Senator                                   John Cornyn                           Precinct 302                                           01 
01060010007000130000000000006000000000124000000REP       United States Senator                                   John Cornyn                           Precinct 303                                           01 
01060010008000247000000000066000000000157000024REP       United States Senator                                   John Cornyn                           Precinct 401                                           01 
01060020001000000000000000000000000000000000000REP       United States Senator                                   Virgil Bierschwale                    Precinct 101                                           01 
01060020002000000000000000000000000000000000000REP       United States Senator                                   Virgil Bierschwale                    Precinct 102                                           01 
01060020003000001000000000001000000000000000000REP       United States Senator                                   Virgil Bierschwale                    Precinct 103                                           01 
01060020004000003000000000001000000000002000000REP       United States Senator                                   Virgil Bierschwale                    Precinct 202                                           01 
01060020005000001000000000000000000000001000000REP       United States Senator                                   Virgil Bierschwale                    Precinct 203                                           01 
01060020006000001000000000000000000000001000000REP       United States Senator                                   Virgil Bierschwale                    Precinct 302                                           01 
01060020007000003000000000000000000000003000000REP       United States Senator                                   Virgil Bierschwale                    Precinct 303                                           01 
01060020008000001000000000000000000000001000000REP       United States Senator                                   Virgil Bierschwale                    Precinct 401                                           01 
01060030001000001000000000000000000000001000000REP       United States Senator                                   John Anthony Castro                   Precinct 101                                           01 
01060030002000000000000000000000000000000000000REP       United States Senator                                   John Anthony Castro                   Precinct 102                                           01 
01060030003000003000000000000000000000003000000REP       United States Senator                                   John Anthony Castro                   Precinct 103                                           01 
01060030004000007000000000000000000000007000000REP       United States Senator                                   John Anthony Castro                   Precinct 202                                           01 
01060030005000005000000000000000000000005000000REP       United States Senator                                   John Anthony Castro                   Precinct 203                                           01 
01060030006000007000000000000000000000007000000REP       United States Senator                                   John Anthony Castro                   Precinct 302                                           01 
01060030007000014000000000000000000000014000000REP       United States Senator                                   John Anthony Castro                   Precinct 303                                           01 
01060030008000005000000000000000000000004000001REP       United States Senator                                   John Anthony Castro                   Precinct 401                                           01 
01060040001000004000000000000000000000004000000REP       United States Senator                                   Dwayne Stovall                        Precinct 101                                           01 
01060040002000003000000000000000000000003000000REP       United States Senator                                   Dwayne Stovall                        Precinct 102                                           01 
01060040003000015000000000001000000000014000000REP       United States Senator                                   Dwayne Stovall                        Precinct 103                                           01 
01060040004000039000000000009000000000030000000REP       United States Senator                                   Dwayne Stovall                        Precinct 202                                           01 
01060040005000021000000000002000000000018000001REP       United States Senator                                   Dwayne Stovall                        Precinct 203                                           01 
01060040006000034000000000004000000000030000000REP       United States Senator                                   Dwayne Stovall                        Precinct 302                                           01 
01060040007000033000000000004000000000029000000REP       United States Senator                                   Dwayne Stovall                        Precinct 303                                           01 
01060040008000044000000000009000000000029000006REP       United States Senator                                   Dwayne Stovall                        Precinct 401                                           01 
01060050001000001000000000000000000000001000000REP       United States Senator                                   Mark Yancey                           Precinct 101                                           01 
01060050002000000000000000000000000000000000000REP       United States Senator                                   Mark Yancey                           Precinct 102                                           01 
01060050003000010000000000005000000000005000000REP       United States Senator                                   Mark Yancey                           Precinct 103                                           01 
01060050004000013000000000002000000000011000000REP       United States Senator                                   Mark Yancey                           Precinct 202                                           01 
01060050005000011000000000001000000000010000000REP       United States Senator                                   Mark Yancey                           Precinct 203                                           01 
01060050006000010000000000000000000000010000000REP       United States Senator                                   Mark Yancey                           Precinct 302                                           01 
01060050007000010000000000000000000000010000000REP       United States Senator                                   Mark Yancey                           Precinct 303                                           01 
01060050008000018000000000004000000000012000002REP       United States Senator                                   Mark Yancey                           Precinct 401                                           01 
01060060001000000000000000000000000000000000000REP       United States Senator                                   OVER VOTES                            Precinct 101                                           01 
01060060002000000000000000000000000000000000000REP       United States Senator                                   OVER VOTES                            Precinct 102                                           01 
01060060003000000000000000000000000000000000000REP       United States Senator                                   OVER VOTES                            Precinct 103                                           01 
01060060004000000000000000000000000000000000000REP       United States Senator                                   OVER VOTES                            Precinct 202                                           01 
01060060005000001000000000000000000000001000000REP       United States Senator                                   OVER VOTES                            Precinct 203                                           01 
01060060006000000000000000000000000000000000000REP       United States Senator                                   OVER VOTES                            Precinct 302                                           01 
01060060007000000000000000000000000000000000000REP       United States Senator                                   OVER VOTES                            Precinct 303                                           01 
01060060008000000000000000000000000000000000000REP       United States Senator                                   OVER VOTES                            Precinct 401                                           01 
01060070001000001000000000000000000000001000000REP       United States Senator                                   UNDER VOTES                           Precinct 101                                           01 
01060070002000001000000000000000000000001000000REP       United States Senator                                   UNDER VOTES                           Precinct 102                                           01 
01060070003000011000000000004000000000007000000REP       United States Senator                                   UNDER VOTES                           Precinct 103                                           01 
01060070004000021000000000008000000000013000000REP       United States Senator                                   UNDER VOTES                           Precinct 202                                           01 
01060070005000013000000000000000000000011000002REP       United States Senator                                   UNDER VOTES                           Precinct 203                                           01 
01060070006000015000000000000000000000015000000REP       United States Senator                                   UNDER VOTES                           Precinct 302                                           01 
01060070007000025000000000001000000000024000000REP       United States Senator                                   UNDER VOTES                           Precinct 303                                           01 
01060070008000027000000000003000000000022000002REP       United States Senator                                   UNDER VOTES                           Precinct 401                                           01 
01070010001000029000000000002000000000027000000REP       United States Representative, District 4                John Ratcliffe                        Precinct 101                                           01 
01070010002000025000000000003000000000022000000REP       United States Representative, District 4                John Ratcliffe                        Precinct 102                                           01 
01070010003000094000000000025000000000069000000REP       United States Representative, District 4                John Ratcliffe                        Precinct 103                                           01 
01070010004000208000000000056000000000152000000REP       United States Representative, District 4                John Ratcliffe                        Precinct 202                                           01 
01070010005000130000000000019000000000098000013REP       United States Representative, District 4                John Ratcliffe                        Precinct 203                                           01 
01070010006000150000000000017000000000133000000REP       United States Representative, District 4                John Ratcliffe                        Precinct 302                                           01 
01070010007000178000000000008000000000170000000REP       United States Representative, District 4                John Ratcliffe                        Precinct 303                                           01 
01070010008000309000000000075000000000202000032REP       United States Representative, District 4                John Ratcliffe                        Precinct 401                                           01 
01070020001000000000000000000000000000000000000REP       United States Representative, District 4                OVER VOTES                            Precinct 101                                           01 
01070020002000000000000000000000000000000000000REP       United States Representative, District 4                OVER VOTES                            Precinct 102                                           01 
01070020003000000000000000000000000000000000000REP       United States Representative, District 4                OVER VOTES                            Precinct 103                                           01 
01070020004000000000000000000000000000000000000REP       United States Representative, District 4                OVER VOTES                            Precinct 202                                           01 
01070020005000000000000000000000000000000000000REP       United States Representative, District 4                OVER VOTES                            Precinct 203                                           01 
01070020006000000000000000000000000000000000000REP       United States Representative, District 4                OVER VOTES                            Precinct 302                                           01 
01070020007000000000000000000000000000000000000REP       United States Representative, District 4                OVER VOTES                            Precinct 303                                           01 
01070020008000000000000000000000000000000000000REP       United States Representative, District 4                OVER VOTES                            Precinct 401                                           01 
01070030001000001000000000000000000000001000000REP       United States Representative, District 4                UNDER VOTES                           Precinct 101                                           01 
01070030002000004000000000001000000000003000000REP       United States Representative, District 4                UNDER VOTES                           Precinct 102                                           01 
01070030003000015000000000002000000000013000000REP       United States Representative, District 4                UNDER VOTES                           Precinct 103                                           01 
01070030004000034000000000007000000000027000000REP       United States Representative, District 4                UNDER VOTES                           Precinct 202                                           01 
01070030005000022000000000001000000000019000002REP       United States Representative, District 4                UNDER VOTES                           Precinct 203                                           01 
01070030006000022000000000002000000000020000000REP       United States Representative, District 4                UNDER VOTES                           Precinct 302                                           01 
01070030007000037000000000003000000000034000000REP       United States Representative, District 4                UNDER VOTES                           Precinct 303                                           01 
01070030008000033000000000007000000000023000003REP       United States Representative, District 4                UNDER VOTES                           Precinct 401                                           01 
01080010001000013000000000001000000000012000000REP       Railroad Commissioner                                   Ryan Sitton                           Precinct 101                                           01 
01080010002000013000000000001000000000012000000REP       Railroad Commissioner                                   Ryan Sitton                           Precinct 102                                           01 
01080010003000043000000000010000000000033000000REP       Railroad Commissioner                                   Ryan Sitton                           Precinct 103                                           01 
01080010004000091000000000022000000000069000000REP       Railroad Commissioner                                   Ryan Sitton                           Precinct 202                                           01 
01080010005000056000000000009000000000039000008REP       Railroad Commissioner                                   Ryan Sitton                           Precinct 203                                           01 
01080010006000057000000000007000000000050000000REP       Railroad Commissioner                                   Ryan Sitton                           Precinct 302                                           01 
01080010007000082000000000006000000000076000000REP       Railroad Commissioner                                   Ryan Sitton                           Precinct 303                                           01 
01080010008000137000000000033000000000089000015REP       Railroad Commissioner                                   Ryan Sitton                           Precinct 401                                           01 
01080020001000016000000000001000000000015000000REP       Railroad Commissioner                                   James "Jim" Wright                    Precinct 101                                           01 
01080020002000012000000000003000000000009000000REP       Railroad Commissioner                                   James "Jim" Wright                    Precinct 102                                           01 
01080020003000048000000000011000000000037000000REP       Railroad Commissioner                                   James "Jim" Wright                    Precinct 103                                           01 
01080020004000108000000000024000000000084000000REP       Railroad Commissioner                                   James "Jim" Wright                    Precinct 202                                           01 
01080020005000074000000000010000000000058000006REP       Railroad Commissioner                                   James "Jim" Wright                    Precinct 203                                           01 
01080020006000089000000000011000000000078000000REP       Railroad Commissioner                                   James "Jim" Wright                    Precinct 302                                           01 
01080020007000091000000000001000000000090000000REP       Railroad Commissioner                                   James "Jim" Wright                    Precinct 303                                           01 
01080020008000150000000000037000000000098000015REP       Railroad Commissioner                                   James "Jim" Wright                    Precinct 401                                           01 
01080030001000000000000000000000000000000000000REP       Railroad Commissioner                                   OVER VOTES                            Precinct 101                                           01 
01080030002000000000000000000000000000000000000REP       Railroad Commissioner                                   OVER VOTES                            Precinct 102                                           01 
01080030003000000000000000000000000000000000000REP       Railroad Commissioner                                   OVER VOTES                            Precinct 103                                           01 
01080030004000001000000000000000000000001000000REP       Railroad Commissioner                                   OVER VOTES                            Precinct 202                                           01 
01080030005000000000000000000000000000000000000REP       Railroad Commissioner                                   OVER VOTES                            Precinct 203                                           01 
01080030006000000000000000000000000000000000000REP       Railroad Commissioner                                   OVER VOTES                            Precinct 302                                           01 
01080030007000000000000000000000000000000000000REP       Railroad Commissioner                                   OVER VOTES                            Precinct 303                                           01 
01080030008000000000000000000000000000000000000REP       Railroad Commissioner                                   OVER VOTES                            Precinct 401                                           01 
01080040001000001000000000000000000000001000000REP       Railroad Commissioner                                   UNDER VOTES                           Precinct 101                                           01 
01080040002000004000000000000000000000004000000REP       Railroad Commissioner                                   UNDER VOTES                           Precinct 102                                           01 
01080040003000018000000000006000000000012000000REP       Railroad Commissioner                                   UNDER VOTES                           Precinct 103                                           01 
01080040004000042000000000017000000000025000000REP       Railroad Commissioner                                   UNDER VOTES                           Precinct 202                                           01 
01080040005000022000000000001000000000020000001REP       Railroad Commissioner                                   UNDER VOTES                           Precinct 203                                           01 
01080040006000026000000000001000000000025000000REP       Railroad Commissioner                                   UNDER VOTES                           Precinct 302                                           01 
01080040007000042000000000004000000000038000000REP       Railroad Commissioner                                   UNDER VOTES                           Precinct 303                                           01 
01080040008000055000000000012000000000038000005REP       Railroad Commissioner                                   UNDER VOTES                           Precinct 401                                           01 
01090010001000028000000000002000000000026000000REP       Chief Justice, Supreme Court                            Nathan Hecht                          Precinct 101                                           01 
01090010002000022000000000002000000000020000000REP       Chief Justice, Supreme Court                            Nathan Hecht                          Precinct 102                                           01 
01090010003000090000000000019000000000071000000REP       Chief Justice, Supreme Court                            Nathan Hecht                          Precinct 103                                           01 
01090010004000188000000000048000000000140000000REP       Chief Justice, Supreme Court                            Nathan Hecht                          Precinct 202                                           01 
01090010005000118000000000018000000000089000011REP       Chief Justice, Supreme Court                            Nathan Hecht                          Precinct 203                                           01 
01090010006000142000000000016000000000126000000REP       Chief Justice, Supreme Court                            Nathan Hecht                          Precinct 302                                           01 
01090010007000164000000000007000000000157000000REP       Chief Justice, Supreme Court                            Nathan Hecht                          Precinct 303                                           01 
01090010008000277000000000065000000000181000031REP       Chief Justice, Supreme Court                            Nathan Hecht                          Precinct 401                                           01 
01090020001000000000000000000000000000000000000REP       Chief Justice, Supreme Court                            OVER VOTES                            Precinct 101                                           01 
01090020002000000000000000000000000000000000000REP       Chief Justice, Supreme Court                            OVER VOTES                            Precinct 102                                           01 
01090020003000000000000000000000000000000000000REP       Chief Justice, Supreme Court                            OVER VOTES                            Precinct 103                                           01 
01090020004000000000000000000000000000000000000REP       Chief Justice, Supreme Court                            OVER VOTES                            Precinct 202                                           01 
01090020005000000000000000000000000000000000000REP       Chief Justice, Supreme Court                            OVER VOTES                            Precinct 203                                           01 
01090020006000000000000000000000000000000000000REP       Chief Justice, Supreme Court                            OVER VOTES                            Precinct 302                                           01 
01090020007000000000000000000000000000000000000REP       Chief Justice, Supreme Court                            OVER VOTES                            Precinct 303                                           01 
01090020008000000000000000000000000000000000000REP       Chief Justice, Supreme Court                            OVER VOTES                            Precinct 401                                           01 
01090030001000002000000000000000000000002000000REP       Chief Justice, Supreme Court                            UNDER VOTES                           Precinct 101                                           01 
01090030002000007000000000002000000000005000000REP       Chief Justice, Supreme Court                            UNDER VOTES                           Precinct 102                                           01 
01090030003000019000000000008000000000011000000REP       Chief Justice, Supreme Court                            UNDER VOTES                           Precinct 103                                           01 
01090030004000054000000000015000000000039000000REP       Chief Justice, Supreme Court                            UNDER VOTES                           Precinct 202                                           01 
01090030005000034000000000002000000000028000004REP       Chief Justice, Supreme Court                            UNDER VOTES                           Precinct 203                                           01 
01090030006000030000000000003000000000027000000REP       Chief Justice, Supreme Court                            UNDER VOTES                           Precinct 302                                           01 
01090030007000051000000000004000000000047000000REP       Chief Justice, Supreme Court                            UNDER VOTES                           Precinct 303                                           01 
01090030008000065000000000017000000000044000004REP       Chief Justice, Supreme Court                            UNDER VOTES                           Precinct 401                                           01 
01100010001000029000000000002000000000027000000REP       Justice, Supreme Court, Place 6                         Jane Bland                            Precinct 101                                           01 
01100010002000020000000000002000000000018000000REP       Justice, Supreme Court, Place 6                         Jane Bland                            Precinct 102                                           01 
01100010003000090000000000019000000000071000000REP       Justice, Supreme Court, Place 6                         Jane Bland                            Precinct 103                                           01 
01100010004000185000000000048000000000137000000REP       Justice, Supreme Court, Place 6                         Jane Bland                            Precinct 202                                           01 
01100010005000114000000000018000000000084000012REP       Justice, Supreme Court, Place 6                         Jane Bland                            Precinct 203                                           01 
01100010006000138000000000016000000000122000000REP       Justice, Supreme Court, Place 6                         Jane Bland                            Precinct 302                                           01 
01100010007000166000000000006000000000160000000REP       Justice, Supreme Court, Place 6                         Jane Bland                            Precinct 303                                           01 
01100010008000276000000000065000000000181000030REP       Justice, Supreme Court, Place 6                         Jane Bland                            Precinct 401                                           01 
01100020001000000000000000000000000000000000000REP       Justice, Supreme Court, Place 6                         OVER VOTES                            Precinct 101                                           01 
01100020002000000000000000000000000000000000000REP       Justice, Supreme Court, Place 6                         OVER VOTES                            Precinct 102                                           01 
01100020003000000000000000000000000000000000000REP       Justice, Supreme Court, Place 6                         OVER VOTES                            Precinct 103                                           01 
01100020004000000000000000000000000000000000000REP       Justice, Supreme Court, Place 6                         OVER VOTES                            Precinct 202                                           01 
01100020005000000000000000000000000000000000000REP       Justice, Supreme Court, Place 6                         OVER VOTES                            Precinct 203                                           01 
01100020006000000000000000000000000000000000000REP       Justice, Supreme Court, Place 6                         OVER VOTES                            Precinct 302                                           01 
01100020007000000000000000000000000000000000000REP       Justice, Supreme Court, Place 6                         OVER VOTES                            Precinct 303                                           01 
01100020008000000000000000000000000000000000000REP       Justice, Supreme Court, Place 6                         OVER VOTES                            Precinct 401                                           01 
01100030001000001000000000000000000000001000000REP       Justice, Supreme Court, Place 6                         UNDER VOTES                           Precinct 101                                           01 
01100030002000009000000000002000000000007000000REP       Justice, Supreme Court, Place 6                         UNDER VOTES                           Precinct 102                                           01 
01100030003000019000000000008000000000011000000REP       Justice, Supreme Court, Place 6                         UNDER VOTES                           Precinct 103                                           01 
01100030004000057000000000015000000000042000000REP       Justice, Supreme Court, Place 6                         UNDER VOTES                           Precinct 202                                           01 
01100030005000038000000000002000000000033000003REP       Justice, Supreme Court, Place 6                         UNDER VOTES                           Precinct 203                                           01 
01100030006000034000000000003000000000031000000REP       Justice, Supreme Court, Place 6                         UNDER VOTES                           Precinct 302                                           01 
01100030007000049000000000005000000000044000000REP       Justice, Supreme Court, Place 6                         UNDER VOTES                           Precinct 303                                           01 
01100030008000066000000000017000000000044000005REP       Justice, Supreme Court, Place 6                         UNDER VOTES                           Precinct 401                                           01 
01110010001000029000000000002000000000027000000REP       Justice, Supreme Court, Place 7                         Jeff Boyd                             Precinct 101                                           01 
01110010002000023000000000002000000000021000000REP       Justice, Supreme Court, Place 7                         Jeff Boyd                             Precinct 102                                           01 
01110010003000089000000000019000000000070000000REP       Justice, Supreme Court, Place 7                         Jeff Boyd                             Precinct 103                                           01 
01110010004000186000000000047000000000139000000REP       Justice, Supreme Court, Place 7                         Jeff Boyd                             Precinct 202                                           01 
01110010005000118000000000017000000000089000012REP       Justice, Supreme Court, Place 7                         Jeff Boyd                             Precinct 203                                           01 
01110010006000138000000000016000000000122000000REP       Justice, Supreme Court, Place 7                         Jeff Boyd                             Precinct 302                                           01 
01110010007000162000000000005000000000157000000REP       Justice, Supreme Court, Place 7                         Jeff Boyd                             Precinct 303                                           01 
01110010008000281000000000065000000000185000031REP       Justice, Supreme Court, Place 7                         Jeff Boyd                             Precinct 401                                           01 
01110020001000000000000000000000000000000000000REP       Justice, Supreme Court, Place 7                         OVER VOTES                            Precinct 101                                           01 
01110020002000000000000000000000000000000000000REP       Justice, Supreme Court, Place 7                         OVER VOTES                            Precinct 102                                           01 
01110020003000000000000000000000000000000000000REP       Justice, Supreme Court, Place 7                         OVER VOTES                            Precinct 103                                           01 
01110020004000000000000000000000000000000000000REP       Justice, Supreme Court, Place 7                         OVER VOTES                            Precinct 202                                           01 
01110020005000000000000000000000000000000000000REP       Justice, Supreme Court, Place 7                         OVER VOTES                            Precinct 203                                           01 
01110020006000000000000000000000000000000000000REP       Justice, Supreme Court, Place 7                         OVER VOTES                            Precinct 302                                           01 
01110020007000000000000000000000000000000000000REP       Justice, Supreme Court, Place 7                         OVER VOTES                            Precinct 303                                           01 
01110020008000000000000000000000000000000000000REP       Justice, Supreme Court, Place 7                         OVER VOTES                            Precinct 401                                           01 
01110030001000001000000000000000000000001000000REP       Justice, Supreme Court, Place 7                         UNDER VOTES                           Precinct 101                                           01 
01110030002000006000000000002000000000004000000REP       Justice, Supreme Court, Place 7                         UNDER VOTES                           Precinct 102                                           01 
01110030003000020000000000008000000000012000000REP       Justice, Supreme Court, Place 7                         UNDER VOTES                           Precinct 103                                           01 
01110030004000056000000000016000000000040000000REP       Justice, Supreme Court, Place 7                         UNDER VOTES                           Precinct 202                                           01 
01110030005000034000000000003000000000028000003REP       Justice, Supreme Court, Place 7                         UNDER VOTES                           Precinct 203                                           01 
01110030006000034000000000003000000000031000000REP       Justice, Supreme Court, Place 7                         UNDER VOTES                           Precinct 302                                           01 
01110030007000053000000000006000000000047000000REP       Justice, Supreme Court, Place 7                         UNDER VOTES                           Precinct 303                                           01 
01110030008000061000000000017000000000040000004REP       Justice, Supreme Court, Place 7                         UNDER VOTES                           Precinct 401                                           01 
01120010001000029000000000002000000000027000000REP       Justice, Supreme Court, Place 8                         Brett Busby                           Precinct 101                                           01 
01120010002000023000000000002000000000021000000REP       Justice, Supreme Court, Place 8                         Brett Busby                           Precinct 102                                           01 
01120010003000087000000000018000000000069000000REP       Justice, Supreme Court, Place 8                         Brett Busby                           Precinct 103                                           01 
01120010004000183000000000046000000000137000000REP       Justice, Supreme Court, Place 8                         Brett Busby                           Precinct 202                                           01 
01120010005000117000000000017000000000088000012REP       Justice, Supreme Court, Place 8                         Brett Busby                           Precinct 203                                           01 
01120010006000136000000000016000000000120000000REP       Justice, Supreme Court, Place 8                         Brett Busby                           Precinct 302                                           01 
01120010007000160000000000006000000000154000000REP       Justice, Supreme Court, Place 8                         Brett Busby                           Precinct 303                                           01 
01120010008000278000000000064000000000184000030REP       Justice, Supreme Court, Place 8                         Brett Busby                           Precinct 401                                           01 
01120020001000000000000000000000000000000000000REP       Justice, Supreme Court, Place 8                         OVER VOTES                            Precinct 101                                           01 
01120020002000000000000000000000000000000000000REP       Justice, Supreme Court, Place 8                         OVER VOTES                            Precinct 102                                           01 
01120020003000000000000000000000000000000000000REP       Justice, Supreme Court, Place 8                         OVER VOTES                            Precinct 103                                           01 
01120020004000000000000000000000000000000000000REP       Justice, Supreme Court, Place 8                         OVER VOTES                            Precinct 202                                           01 
01120020005000000000000000000000000000000000000REP       Justice, Supreme Court, Place 8                         OVER VOTES                            Precinct 203                                           01 
01120020006000000000000000000000000000000000000REP       Justice, Supreme Court, Place 8                         OVER VOTES                            Precinct 302                                           01 
01120020007000000000000000000000000000000000000REP       Justice, Supreme Court, Place 8                         OVER VOTES                            Precinct 303                                           01 
01120020008000000000000000000000000000000000000REP       Justice, Supreme Court, Place 8                         OVER VOTES                            Precinct 401                                           01 
01120030001000001000000000000000000000001000000REP       Justice, Supreme Court, Place 8                         UNDER VOTES                           Precinct 101                                           01 
01120030002000006000000000002000000000004000000REP       Justice, Supreme Court, Place 8                         UNDER VOTES                           Precinct 102                                           01 
01120030003000022000000000009000000000013000000REP       Justice, Supreme Court, Place 8                         UNDER VOTES                           Precinct 103                                           01 
01120030004000059000000000017000000000042000000REP       Justice, Supreme Court, Place 8                         UNDER VOTES                           Precinct 202                                           01 
01120030005000035000000000003000000000029000003REP       Justice, Supreme Court, Place 8                         UNDER VOTES                           Precinct 203                                           01 
01120030006000036000000000003000000000033000000REP       Justice, Supreme Court, Place 8                         UNDER VOTES                           Precinct 302                                           01 
01120030007000055000000000005000000000050000000REP       Justice, Supreme Court, Place 8                         UNDER VOTES                           Precinct 303                                           01 
01120030008000064000000000018000000000041000005REP       Justice, Supreme Court, Place 8                         UNDER VOTES                           Precinct 401                                           01 
01130010001000017000000000002000000000015000000REP       Judge, Court of Criminal Appeals, Pl 3                  Gina Parker                           Precinct 101                                           01 
01130010002000014000000000002000000000012000000REP       Judge, Court of Criminal Appeals, Pl 3                  Gina Parker                           Precinct 102                                           01 
01130010003000052000000000012000000000040000000REP       Judge, Court of Criminal Appeals, Pl 3                  Gina Parker                           Precinct 103                                           01 
01130010004000102000000000024000000000078000000REP       Judge, Court of Criminal Appeals, Pl 3                  Gina Parker                           Precinct 202                                           01 
01130010005000056000000000005000000000046000005REP       Judge, Court of Criminal Appeals, Pl 3                  Gina Parker                           Precinct 203                                           01 
01130010006000080000000000009000000000071000000REP       Judge, Court of Criminal Appeals, Pl 3                  Gina Parker                           Precinct 302                                           01 
01130010007000083000000000003000000000080000000REP       Judge, Court of Criminal Appeals, Pl 3                  Gina Parker                           Precinct 303                                           01 
01130010008000158000000000032000000000105000021REP       Judge, Court of Criminal Appeals, Pl 3                  Gina Parker                           Precinct 401                                           01 
01130020001000011000000000000000000000011000000REP       Judge, Court of Criminal Appeals, Pl 3                  Bert Richardson                       Precinct 101                                           01 
01130020002000011000000000000000000000011000000REP       Judge, Court of Criminal Appeals, Pl 3                  Bert Richardson                       Precinct 102                                           01 
01130020003000038000000000009000000000029000000REP       Judge, Court of Criminal Appeals, Pl 3                  Bert Richardson                       Precinct 103                                           01 
01130020004000093000000000022000000000071000000REP       Judge, Court of Criminal Appeals, Pl 3                  Bert Richardson                       Precinct 202                                           01 
01130020005000064000000000013000000000045000006REP       Judge, Court of Criminal Appeals, Pl 3                  Bert Richardson                       Precinct 203                                           01 
01130020006000064000000000008000000000056000000REP       Judge, Court of Criminal Appeals, Pl 3                  Bert Richardson                       Precinct 302                                           01 
01130020007000083000000000004000000000079000000REP       Judge, Court of Criminal Appeals, Pl 3                  Bert Richardson                       Precinct 303                                           01 
01130020008000126000000000034000000000082000010REP       Judge, Court of Criminal Appeals, Pl 3                  Bert Richardson                       Precinct 401                                           01 
01130030001000000000000000000000000000000000000REP       Judge, Court of Criminal Appeals, Pl 3                  OVER VOTES                            Precinct 101                                           01 
01130030002000000000000000000000000000000000000REP       Judge, Court of Criminal Appeals, Pl 3                  OVER VOTES                            Precinct 102                                           01 
01130030003000000000000000000000000000000000000REP       Judge, Court of Criminal Appeals, Pl 3                  OVER VOTES                            Precinct 103                                           01 
01130030004000000000000000000000000000000000000REP       Judge, Court of Criminal Appeals, Pl 3                  OVER VOTES                            Precinct 202                                           01 
01130030005000000000000000000000000000000000000REP       Judge, Court of Criminal Appeals, Pl 3                  OVER VOTES                            Precinct 203                                           01 
01130030006000001000000000000000000000001000000REP       Judge, Court of Criminal Appeals, Pl 3                  OVER VOTES                            Precinct 302                                           01 
01130030007000000000000000000000000000000000000REP       Judge, Court of Criminal Appeals, Pl 3                  OVER VOTES                            Precinct 303                                           01 
01130030008000000000000000000000000000000000000REP       Judge, Court of Criminal Appeals, Pl 3                  OVER VOTES                            Precinct 401                                           01 
01130040001000002000000000000000000000002000000REP       Judge, Court of Criminal Appeals, Pl 3                  UNDER VOTES                           Precinct 101                                           01 
01130040002000004000000000002000000000002000000REP       Judge, Court of Criminal Appeals, Pl 3                  UNDER VOTES                           Precinct 102                                           01 
01130040003000019000000000006000000000013000000REP       Judge, Court of Criminal Appeals, Pl 3                  UNDER VOTES                           Precinct 103                                           01 
01130040004000047000000000017000000000030000000REP       Judge, Court of Criminal Appeals, Pl 3                  UNDER VOTES                           Precinct 202                                           01 
01130040005000032000000000002000000000026000004REP       Judge, Court of Criminal Appeals, Pl 3                  UNDER VOTES                           Precinct 203                                           01 
01130040006000027000000000002000000000025000000REP       Judge, Court of Criminal Appeals, Pl 3                  UNDER VOTES                           Precinct 302                                           01 
01130040007000049000000000004000000000045000000REP       Judge, Court of Criminal Appeals, Pl 3                  UNDER VOTES                           Precinct 303                                           01 
01130040008000058000000000016000000000038000004REP       Judge, Court of Criminal Appeals, Pl 3                  UNDER VOTES                           Precinct 401                                           01 
01140010001000030000000000002000000000028000000REP       Judge, Court of Criminal Appeals, Pl 4                  Kevin Patrick Yeary                   Precinct 101                                           01 
01140010002000023000000000002000000000021000000REP       Judge, Court of Criminal Appeals, Pl 4                  Kevin Patrick Yeary                   Precinct 102                                           01 
01140010003000087000000000018000000000069000000REP       Judge, Court of Criminal Appeals, Pl 4                  Kevin Patrick Yeary                   Precinct 103                                           01 
01140010004000183000000000044000000000139000000REP       Judge, Court of Criminal Appeals, Pl 4                  Kevin Patrick Yeary                   Precinct 202                                           01 
01140010005000116000000000018000000000087000011REP       Judge, Court of Criminal Appeals, Pl 4                  Kevin Patrick Yeary                   Precinct 203                                           01 
01140010006000134000000000016000000000118000000REP       Judge, Court of Criminal Appeals, Pl 4                  Kevin Patrick Yeary                   Precinct 302                                           01 
01140010007000158000000000005000000000153000000REP       Judge, Court of Criminal Appeals, Pl 4                  Kevin Patrick Yeary                   Precinct 303                                           01 
01140010008000276000000000067000000000179000030REP       Judge, Court of Criminal Appeals, Pl 4                  Kevin Patrick Yeary                   Precinct 401                                           01 
01140020001000000000000000000000000000000000000REP       Judge, Court of Criminal Appeals, Pl 4                  OVER VOTES                            Precinct 101                                           01 
01140020002000000000000000000000000000000000000REP       Judge, Court of Criminal Appeals, Pl 4                  OVER VOTES                            Precinct 102                                           01 
01140020003000000000000000000000000000000000000REP       Judge, Court of Criminal Appeals, Pl 4                  OVER VOTES                            Precinct 103                                           01 
01140020004000000000000000000000000000000000000REP       Judge, Court of Criminal Appeals, Pl 4                  OVER VOTES                            Precinct 202                                           01 
01140020005000000000000000000000000000000000000REP       Judge, Court of Criminal Appeals, Pl 4                  OVER VOTES                            Precinct 203                                           01 
01140020006000000000000000000000000000000000000REP       Judge, Court of Criminal Appeals, Pl 4                  OVER VOTES                            Precinct 302                                           01 
01140020007000000000000000000000000000000000000REP       Judge, Court of Criminal Appeals, Pl 4                  OVER VOTES                            Precinct 303                                           01 
01140020008000000000000000000000000000000000000REP       Judge, Court of Criminal Appeals, Pl 4                  OVER VOTES                            Precinct 401                                           01 
01140030001000000000000000000000000000000000000REP       Judge, Court of Criminal Appeals, Pl 4                  UNDER VOTES                           Precinct 101                                           01 
01140030002000006000000000002000000000004000000REP       Judge, Court of Criminal Appeals, Pl 4                  UNDER VOTES                           Precinct 102                                           01 
01140030003000022000000000009000000000013000000REP       Judge, Court of Criminal Appeals, Pl 4                  UNDER VOTES                           Precinct 103                                           01 
01140030004000059000000000019000000000040000000REP       Judge, Court of Criminal Appeals, Pl 4                  UNDER VOTES                           Precinct 202                                           01 
01140030005000036000000000002000000000030000004REP       Judge, Court of Criminal Appeals, Pl 4                  UNDER VOTES                           Precinct 203                                           01 
01140030006000038000000000003000000000035000000REP       Judge, Court of Criminal Appeals, Pl 4                  UNDER VOTES                           Precinct 302                                           01 
01140030007000057000000000006000000000051000000REP       Judge, Court of Criminal Appeals, Pl 4                  UNDER VOTES                           Precinct 303                                           01 
01140030008000066000000000015000000000046000005REP       Judge, Court of Criminal Appeals, Pl 4                  UNDER VOTES                           Precinct 401                                           01 
01150010001000030000000000002000000000028000000REP       Judge, Court of Criminal Appeals, Pl 9                  David Newell                          Precinct 101                                           01 
01150010002000022000000000002000000000020000000REP       Judge, Court of Criminal Appeals, Pl 9                  David Newell                          Precinct 102                                           01 
01150010003000086000000000017000000000069000000REP       Judge, Court of Criminal Appeals, Pl 9                  David Newell                          Precinct 103                                           01 
01150010004000183000000000046000000000137000000REP       Judge, Court of Criminal Appeals, Pl 9                  David Newell                          Precinct 202                                           01 
01150010005000118000000000018000000000089000011REP       Judge, Court of Criminal Appeals, Pl 9                  David Newell                          Precinct 203                                           01 
01150010006000134000000000016000000000118000000REP       Judge, Court of Criminal Appeals, Pl 9                  David Newell                          Precinct 302                                           01 
01150010007000161000000000005000000000156000000REP       Judge, Court of Criminal Appeals, Pl 9                  David Newell                          Precinct 303                                           01 
01150010008000274000000000066000000000177000031REP       Judge, Court of Criminal Appeals, Pl 9                  David Newell                          Precinct 401                                           01 
01150020001000000000000000000000000000000000000REP       Judge, Court of Criminal Appeals, Pl 9                  OVER VOTES                            Precinct 101                                           01 
01150020002000000000000000000000000000000000000REP       Judge, Court of Criminal Appeals, Pl 9                  OVER VOTES                            Precinct 102                                           01 
01150020003000000000000000000000000000000000000REP       Judge, Court of Criminal Appeals, Pl 9                  OVER VOTES                            Precinct 103                                           01 
01150020004000000000000000000000000000000000000REP       Judge, Court of Criminal Appeals, Pl 9                  OVER VOTES                            Precinct 202                                           01 
01150020005000000000000000000000000000000000000REP       Judge, Court of Criminal Appeals, Pl 9                  OVER VOTES                            Precinct 203                                           01 
01150020006000000000000000000000000000000000000REP       Judge, Court of Criminal Appeals, Pl 9                  OVER VOTES                            Precinct 302                                           01 
01150020007000000000000000000000000000000000000REP       Judge, Court of Criminal Appeals, Pl 9                  OVER VOTES                            Precinct 303                                           01 
01150020008000000000000000000000000000000000000REP       Judge, Court of Criminal Appeals, Pl 9                  OVER VOTES                            Precinct 401                                           01 
01150030001000000000000000000000000000000000000REP       Judge, Court of Criminal Appeals, Pl 9                  UNDER VOTES                           Precinct 101                                           01 
01150030002000007000000000002000000000005000000REP       Judge, Court of Criminal Appeals, Pl 9                  UNDER VOTES                           Precinct 102                                           01 
01150030003000023000000000010000000000013000000REP       Judge, Court of Criminal Appeals, Pl 9                  UNDER VOTES                           Precinct 103                                           01 
01150030004000059000000000017000000000042000000REP       Judge, Court of Criminal Appeals, Pl 9                  UNDER VOTES                           Precinct 202                                           01 
01150030005000034000000000002000000000028000004REP       Judge, Court of Criminal Appeals, Pl 9                  UNDER VOTES                           Precinct 203                                           01 
01150030006000038000000000003000000000035000000REP       Judge, Court of Criminal Appeals, Pl 9                  UNDER VOTES                           Precinct 302                                           01 
01150030007000054000000000006000000000048000000REP       Judge, Court of Criminal Appeals, Pl 9                  UNDER VOTES                           Precinct 303                                           01 
01150030008000068000000000016000000000048000004REP       Judge, Court of Criminal Appeals, Pl 9                  UNDER VOTES                           Precinct 401                                           01 
01160010001000029000000000002000000000027000000REP       Member, State Board of Education, Dist 9                Keven M. Ellis                        Precinct 101                                           01 
01160010002000022000000000002000000000020000000REP       Member, State Board of Education, Dist 9                Keven M. Ellis                        Precinct 102                                           01 
01160010003000088000000000018000000000070000000REP       Member, State Board of Education, Dist 9                Keven M. Ellis                        Precinct 103                                           01 
01160010004000186000000000046000000000140000000REP       Member, State Board of Education, Dist 9                Keven M. Ellis                        Precinct 202                                           01 
01160010005000116000000000019000000000086000011REP       Member, State Board of Education, Dist 9                Keven M. Ellis                        Precinct 203                                           01 
01160010006000132000000000016000000000116000000REP       Member, State Board of Education, Dist 9                Keven M. Ellis                        Precinct 302                                           01 
01160010007000164000000000005000000000159000000REP       Member, State Board of Education, Dist 9                Keven M. Ellis                        Precinct 303                                           01 
01160010008000271000000000065000000000176000030REP       Member, State Board of Education, Dist 9                Keven M. Ellis                        Precinct 401                                           01 
01160020001000000000000000000000000000000000000REP       Member, State Board of Education, Dist 9                OVER VOTES                            Precinct 101                                           01 
01160020002000000000000000000000000000000000000REP       Member, State Board of Education, Dist 9                OVER VOTES                            Precinct 102                                           01 
01160020003000000000000000000000000000000000000REP       Member, State Board of Education, Dist 9                OVER VOTES                            Precinct 103                                           01 
01160020004000000000000000000000000000000000000REP       Member, State Board of Education, Dist 9                OVER VOTES                            Precinct 202                                           01 
01160020005000000000000000000000000000000000000REP       Member, State Board of Education, Dist 9                OVER VOTES                            Precinct 203                                           01 
01160020006000000000000000000000000000000000000REP       Member, State Board of Education, Dist 9                OVER VOTES                            Precinct 302                                           01 
01160020007000000000000000000000000000000000000REP       Member, State Board of Education, Dist 9                OVER VOTES                            Precinct 303                                           01 
01160020008000000000000000000000000000000000000REP       Member, State Board of Education, Dist 9                OVER VOTES                            Precinct 401                                           01 
01160030001000001000000000000000000000001000000REP       Member, State Board of Education, Dist 9                UNDER VOTES                           Precinct 101                                           01 
01160030002000007000000000002000000000005000000REP       Member, State Board of Education, Dist 9                UNDER VOTES                           Precinct 102                                           01 
01160030003000021000000000009000000000012000000REP       Member, State Board of Education, Dist 9                UNDER VOTES                           Precinct 103                                           01 
01160030004000056000000000017000000000039000000REP       Member, State Board of Education, Dist 9                UNDER VOTES                           Precinct 202                                           01 
01160030005000036000000000001000000000031000004REP       Member, State Board of Education, Dist 9                UNDER VOTES                           Precinct 203                                           01 
01160030006000040000000000003000000000037000000REP       Member, State Board of Education, Dist 9                UNDER VOTES                           Precinct 302                                           01 
01160030007000051000000000006000000000045000000REP       Member, State Board of Education, Dist 9                UNDER VOTES                           Precinct 303                                           01 
01160030008000071000000000017000000000049000005REP       Member, State Board of Education, Dist 9                UNDER VOTES                           Precinct 401                                           01 
01170010001000029000000000002000000000027000000REP       State Senator, District 1                               Bryan Hughes                          Precinct 101                                           01 
01170010002000025000000000003000000000022000000REP       State Senator, District 1                               Bryan Hughes                          Precinct 102                                           01 
01170010003000093000000000022000000000071000000REP       State Senator, District 1                               Bryan Hughes                          Precinct 103                                           01 
01170010004000195000000000053000000000142000000REP       State Senator, District 1                               Bryan Hughes                          Precinct 202                                           01 
01170010005000125000000000019000000000095000011REP       State Senator, District 1                               Bryan Hughes                          Precinct 203                                           01 
01170010006000140000000000016000000000124000000REP       State Senator, District 1                               Bryan Hughes                          Precinct 302                                           01 
01170010007000173000000000006000000000167000000REP       State Senator, District 1                               Bryan Hughes                          Precinct 303                                           01 
01170010008000292000000000072000000000187000033REP       State Senator, District 1                               Bryan Hughes                          Precinct 401                                           01 
01170020001000000000000000000000000000000000000REP       State Senator, District 1                               OVER VOTES                            Precinct 101                                           01 
01170020002000000000000000000000000000000000000REP       State Senator, District 1                               OVER VOTES                            Precinct 102                                           01 
01170020003000000000000000000000000000000000000REP       State Senator, District 1                               OVER VOTES                            Precinct 103                                           01 
01170020004000000000000000000000000000000000000REP       State Senator, District 1                               OVER VOTES                            Precinct 202                                           01 
01170020005000000000000000000000000000000000000REP       State Senator, District 1                               OVER VOTES                            Precinct 203                                           01 
01170020006000000000000000000000000000000000000REP       State Senator, District 1                               OVER VOTES                            Precinct 302                                           01 
01170020007000000000000000000000000000000000000REP       State Senator, District 1                               OVER VOTES                            Precinct 303                                           01 
01170020008000000000000000000000000000000000000REP       State Senator, District 1                               OVER VOTES                            Precinct 401                                           01 
01170030001000001000000000000000000000001000000REP       State Senator, District 1                               UNDER VOTES                           Precinct 101                                           01 
01170030002000004000000000001000000000003000000REP       State Senator, District 1                               UNDER VOTES                           Precinct 102                                           01 
01170030003000016000000000005000000000011000000REP       State Senator, District 1                               UNDER VOTES                           Precinct 103                                           01 
01170030004000047000000000010000000000037000000REP       State Senator, District 1                               UNDER VOTES                           Precinct 202                                           01 
01170030005000027000000000001000000000022000004REP       State Senator, District 1                               UNDER VOTES                           Precinct 203                                           01 
01170030006000032000000000003000000000029000000REP       State Senator, District 1                               UNDER VOTES                           Precinct 302                                           01 
01170030007000042000000000005000000000037000000REP       State Senator, District 1                               UNDER VOTES                           Precinct 303                                           01 
01170030008000050000000000010000000000038000002REP       State Senator, District 1                               UNDER VOTES                           Precinct 401                                           01 
01180010001000029000000000002000000000027000000REP       State Representative, District 5                        Cole Hefner                           Precinct 101                                           01 
01180010002000024000000000003000000000021000000REP       State Representative, District 5                        Cole Hefner                           Precinct 102                                           01 
01180010003000095000000000024000000000071000000REP       State Representative, District 5                        Cole Hefner                           Precinct 103                                           01 
01180010004000191000000000050000000000141000000REP       State Representative, District 5                        Cole Hefner                           Precinct 202                                           01 
01180010005000119000000000018000000000090000011REP       State Representative, District 5                        Cole Hefner                           Precinct 203                                           01 
01180010006000144000000000016000000000128000000REP       State Representative, District 5                        Cole Hefner                           Precinct 302                                           01 
01180010007000174000000000006000000000168000000REP       State Representative, District 5                        Cole Hefner                           Precinct 303                                           01 
01180010008000292000000000071000000000189000032REP       State Representative, District 5                        Cole Hefner                           Precinct 401                                           01 
01180020001000000000000000000000000000000000000REP       State Representative, District 5                        OVER VOTES                            Precinct 101                                           01 
01180020002000003000000000003000000000000000000REP       State Representative, District 5                        OVER VOTES                            Precinct 102                                           01 
01180020003000000000000000000000000000000000000REP       State Representative, District 5                        OVER VOTES                            Precinct 103                                           01 
01180020004000000000000000000000000000000000000REP       State Representative, District 5                        OVER VOTES                            Precinct 202                                           01 
01180020005000000000000000000000000000000000000REP       State Representative, District 5                        OVER VOTES                            Precinct 203                                           01 
01180020006000000000000000000000000000000000000REP       State Representative, District 5                        OVER VOTES                            Precinct 302                                           01 
01180020007000000000000000000000000000000000000REP       State Representative, District 5                        OVER VOTES                            Precinct 303                                           01 
01180020008000000000000000000000000000000000000REP       State Representative, District 5                        OVER VOTES                            Precinct 401                                           01 
01180030001000001000000000000000000000001000000REP       State Representative, District 5                        UNDER VOTES                           Precinct 101                                           01 
01180030002000005000000000001000000000004000000REP       State Representative, District 5                        UNDER VOTES                           Precinct 102                                           01 
01180030003000014000000000003000000000011000000REP       State Representative, District 5                        UNDER VOTES                           Precinct 103                                           01 
01180030004000051000000000013000000000038000000REP       State Representative, District 5                        UNDER VOTES                           Precinct 202                                           01 
01180030005000033000000000002000000000027000004REP       State Representative, District 5                        UNDER VOTES                           Precinct 203                                           01 
01180030006000028000000000003000000000025000000REP       State Representative, District 5                        UNDER VOTES                           Precinct 302                                           01 
01180030007000041000000000005000000000036000000REP       State Representative, District 5                        UNDER VOTES                           Precinct 303                                           01 
01180030008000050000000000011000000000036000003REP       State Representative, District 5                        UNDER VOTES                           Precinct 401                                           01 
01190010001000029000000000002000000000027000000REP       Justice, 6th Ct of Appeals Dist, Pl 3                   Ralph K. Burgess                      Precinct 101                                           01 
