00010010001000000000000000000000000000000000000000000000000000000000000000000000000000000000000000000          REGISTERED VOTERS - TOTAL                               REGISTERED VOTERS - TOTAL             Precinct 1                                             00 
00010010002000000000000000000000000000000000000000000000000000000000000000000000000000000000000000000          REGISTERED VOTERS - TOTAL                               REGISTERED VOTERS - TOTAL             Precinct 2                                             00 
00010010003000000000000000000000000000000000000000000000000000000000000000000000000000000000000000000          REGISTERED VOTERS - TOTAL                               REGISTERED VOTERS - TOTAL             Precinct 3                                             00 
00010010004000000000000000000000000000000000000000000000000000000000000000000000000000000000000000000          REGISTERED VOTERS - TOTAL                               REGISTERED VOTERS - TOTAL             Precinct 4                                             00 
00010010005000000000000000000000000000000000000000000000000000000000000000000000000000000000000000000          REGISTERED VOTERS - TOTAL                               REGISTERED VOTERS - TOTAL             Precinct 5                                             00 
00010010006000000000000000000000000000000000000000000000000000000000000000000000000000000000000000000          REGISTERED VOTERS - TOTAL                               REGISTERED VOTERS - TOTAL             Precinct 6                                             00 
00010010007000000000000000000000000000000000000000000000000000000000000000000000000000000000000000000          REGISTERED VOTERS - TOTAL                               REGISTERED VOTERS - TOTAL             Precinct 7                                             00 
00010010008000000000000000000000000000000000000000000000000000000000000000000000000000000000000000000          REGISTERED VOTERS - TOTAL                               REGISTERED VOTERS - TOTAL             Precinct 9                                             00 
00010010009000000000000000000000000000000000000000000000000000000000000000000000000000000000000000000          REGISTERED VOTERS - TOTAL                               REGISTERED VOTERS - TOTAL             Precinct 10                                            00 
00020010001000000000000000000000000000000000000000000000000000000000000000000000000000000000000000000NON       REGISTERED VOTERS - NONPARTISAN                         REGISTERED VOTERS - NONPARTISAN       Precinct 1                                             00 
00020010002000000000000000000000000000000000000000000000000000000000000000000000000000000000000000000NON       REGISTERED VOTERS - NONPARTISAN                         REGISTERED VOTERS - NONPARTISAN       Precinct 2                                             00 
00020010003000000000000000000000000000000000000000000000000000000000000000000000000000000000000000000NON       REGISTERED VOTERS - NONPARTISAN                         REGISTERED VOTERS - NONPARTISAN       Precinct 3                                             00 
00020010004000000000000000000000000000000000000000000000000000000000000000000000000000000000000000000NON       REGISTERED VOTERS - NONPARTISAN                         REGISTERED VOTERS - NONPARTISAN       Precinct 4                                             00 
00020010005000000000000000000000000000000000000000000000000000000000000000000000000000000000000000000NON       REGISTERED VOTERS - NONPARTISAN                         REGISTERED VOTERS - NONPARTISAN       Precinct 5                                             00 
00020010006000000000000000000000000000000000000000000000000000000000000000000000000000000000000000000NON       REGISTERED VOTERS - NONPARTISAN                         REGISTERED VOTERS - NONPARTISAN       Precinct 6                                             00 
00020010007000000000000000000000000000000000000000000000000000000000000000000000000000000000000000000NON       REGISTERED VOTERS - NONPARTISAN                         REGISTERED VOTERS - NONPARTISAN       Precinct 7                                             00 
00020010008000000000000000000000000000000000000000000000000000000000000000000000000000000000000000000NON       REGISTERED VOTERS - NONPARTISAN                         REGISTERED VOTERS - NONPARTISAN       Precinct 9                                             00 
00020010009000000000000000000000000000000000000000000000000000000000000000000000000000000000000000000NON       REGISTERED VOTERS - NONPARTISAN                         REGISTERED VOTERS - NONPARTISAN       Precinct 10                                            00 
00030010001000000000000000000000000000000000000000000000000000000000000000000000000000000000000000000REP       REGISTERED VOTERS - Republican Party                    REGISTERED VOTERS - Republican Party  Precinct 1                                             00 
00030010002000000000000000000000000000000000000000000000000000000000000000000000000000000000000000000REP       REGISTERED VOTERS - Republican Party                    REGISTERED VOTERS - Republican Party  Precinct 2                                             00 
00030010003000000000000000000000000000000000000000000000000000000000000000000000000000000000000000000REP       REGISTERED VOTERS - Republican Party                    REGISTERED VOTERS - Republican Party  Precinct 3                                             00 
00030010004000000000000000000000000000000000000000000000000000000000000000000000000000000000000000000REP       REGISTERED VOTERS - Republican Party                    REGISTERED VOTERS - Republican Party  Precinct 4                                             00 
00030010005000000000000000000000000000000000000000000000000000000000000000000000000000000000000000000REP       REGISTERED VOTERS - Republican Party                    REGISTERED VOTERS - Republican Party  Precinct 5                                             00 
00030010006000000000000000000000000000000000000000000000000000000000000000000000000000000000000000000REP       REGISTERED VOTERS - Republican Party                    REGISTERED VOTERS - Republican Party  Precinct 6                                             00 
00030010007000000000000000000000000000000000000000000000000000000000000000000000000000000000000000000REP       REGISTERED VOTERS - Republican Party                    REGISTERED VOTERS - Republican Party  Precinct 7                                             00 
00030010008000000000000000000000000000000000000000000000000000000000000000000000000000000000000000000REP       REGISTERED VOTERS - Republican Party                    REGISTERED VOTERS - Republican Party  Precinct 9                                             00 
00030010009000000000000000000000000000000000000000000000000000000000000000000000000000000000000000000REP       REGISTERED VOTERS - Republican Party                    REGISTERED VOTERS - Republican Party  Precinct 10                                            00 
00040010001000000000000000000000000000000000000000000000000000000000000000000000000000000000000000000DEM       REGISTERED VOTERS - Democratic Party                    REGISTERED VOTERS - Democratic Party  Precinct 1                                             00 
00040010002000000000000000000000000000000000000000000000000000000000000000000000000000000000000000000DEM       REGISTERED VOTERS - Democratic Party                    REGISTERED VOTERS - Democratic Party  Precinct 2                                             00 
00040010003000000000000000000000000000000000000000000000000000000000000000000000000000000000000000000DEM       REGISTERED VOTERS - Democratic Party                    REGISTERED VOTERS - Democratic Party  Precinct 3                                             00 
00040010004000000000000000000000000000000000000000000000000000000000000000000000000000000000000000000DEM       REGISTERED VOTERS - Democratic Party                    REGISTERED VOTERS - Democratic Party  Precinct 4                                             00 
00040010005000000000000000000000000000000000000000000000000000000000000000000000000000000000000000000DEM       REGISTERED VOTERS - Democratic Party                    REGISTERED VOTERS - Democratic Party  Precinct 5                                             00 
00040010006000000000000000000000000000000000000000000000000000000000000000000000000000000000000000000DEM       REGISTERED VOTERS - Democratic Party                    REGISTERED VOTERS - Democratic Party  Precinct 6                                             00 
00040010007000000000000000000000000000000000000000000000000000000000000000000000000000000000000000000DEM       REGISTERED VOTERS - Democratic Party                    REGISTERED VOTERS - Democratic Party  Precinct 7                                             00 
00040010008000000000000000000000000000000000000000000000000000000000000000000000000000000000000000000DEM       REGISTERED VOTERS - Democratic Party                    REGISTERED VOTERS - Democratic Party  Precinct 9                                             00 
00040010009000000000000000000000000000000000000000000000000000000000000000000000000000000000000000000DEM       REGISTERED VOTERS - Democratic Party                    REGISTERED VOTERS - Democratic Party  Precinct 10                                            00 
00050010001000649000046000301000302000000000000000000000000000000000000000000000000000000000000000000          BALLOTS CAST - TOTAL                                    BALLOTS CAST - TOTAL                  Precinct 1                                             00 
00050010002000554000047000259000248000000000000000000000000000000000000000000000000000000000000000000          BALLOTS CAST - TOTAL                                    BALLOTS CAST - TOTAL                  Precinct 2                                             00 
00050010003000104000004000047000053000000000000000000000000000000000000000000000000000000000000000000          BALLOTS CAST - TOTAL                                    BALLOTS CAST - TOTAL                  Precinct 3                                             00 
00050010004000182000000000080000102000000000000000000000000000000000000000000000000000000000000000000          BALLOTS CAST - TOTAL                                    BALLOTS CAST - TOTAL                  Precinct 4                                             00 
00050010005000034000002000006000026000000000000000000000000000000000000000000000000000000000000000000          BALLOTS CAST - TOTAL                                    BALLOTS CAST - TOTAL                  Precinct 5                                             00 
00050010006000035000003000006000026000000000000000000000000000000000000000000000000000000000000000000          BALLOTS CAST - TOTAL                                    BALLOTS CAST - TOTAL                  Precinct 6                                             00 
00050010007000428000041000206000181000000000000000000000000000000000000000000000000000000000000000000          BALLOTS CAST - TOTAL                                    BALLOTS CAST - TOTAL                  Precinct 7                                             00 
00050010008000080000000000047000033000000000000000000000000000000000000000000000000000000000000000000          BALLOTS CAST - TOTAL                                    BALLOTS CAST - TOTAL                  Precinct 9                                             00 
00050010009000187000015000093000079000000000000000000000000000000000000000000000000000000000000000000          BALLOTS CAST - TOTAL                                    BALLOTS CAST - TOTAL                  Precinct 10                                            00 
00060010001000000000000000000000000000000000000000000000000000000000000000000000000000000000000000000NON       BALLOTS CAST - NONPARTISAN                              BALLOTS CAST - NONPARTISAN            Precinct 1                                             00 
00060010002000000000000000000000000000000000000000000000000000000000000000000000000000000000000000000NON       BALLOTS CAST - NONPARTISAN                              BALLOTS CAST - NONPARTISAN            Precinct 2                                             00 
00060010003000000000000000000000000000000000000000000000000000000000000000000000000000000000000000000NON       BALLOTS CAST - NONPARTISAN                              BALLOTS CAST - NONPARTISAN            Precinct 3                                             00 
00060010004000000000000000000000000000000000000000000000000000000000000000000000000000000000000000000NON       BALLOTS CAST - NONPARTISAN                              BALLOTS CAST - NONPARTISAN            Precinct 4                                             00 
00060010005000000000000000000000000000000000000000000000000000000000000000000000000000000000000000000NON       BALLOTS CAST - NONPARTISAN                              BALLOTS CAST - NONPARTISAN            Precinct 5                                             00 
00060010006000000000000000000000000000000000000000000000000000000000000000000000000000000000000000000NON       BALLOTS CAST - NONPARTISAN                              BALLOTS CAST - NONPARTISAN            Precinct 6                                             00 
00060010007000000000000000000000000000000000000000000000000000000000000000000000000000000000000000000NON       BALLOTS CAST - NONPARTISAN                              BALLOTS CAST - NONPARTISAN            Precinct 7                                             00 
00060010008000000000000000000000000000000000000000000000000000000000000000000000000000000000000000000NON       BALLOTS CAST - NONPARTISAN                              BALLOTS CAST - NONPARTISAN            Precinct 9                                             00 
00060010009000000000000000000000000000000000000000000000000000000000000000000000000000000000000000000NON       BALLOTS CAST - NONPARTISAN                              BALLOTS CAST - NONPARTISAN            Precinct 10                                            00 
00070010001000366000017000186000163000000000000000000000000000000000000000000000000000000000000000000REP       BALLOTS CAST - Republican Party                         BALLOTS CAST - Republican Party       Precinct 1                                             00 
00070010002000311000015000153000143000000000000000000000000000000000000000000000000000000000000000000REP       BALLOTS CAST - Republican Party                         BALLOTS CAST - Republican Party       Precinct 2                                             00 
00070010003000096000003000045000048000000000000000000000000000000000000000000000000000000000000000000REP       BALLOTS CAST - Republican Party                         BALLOTS CAST - Republican Party       Precinct 3                                             00 
00070010004000158000000000073000085000000000000000000000000000000000000000000000000000000000000000000REP       BALLOTS CAST - Republican Party                         BALLOTS CAST - Republican Party       Precinct 4                                             00 
00070010005000034000002000006000026000000000000000000000000000000000000000000000000000000000000000000REP       BALLOTS CAST - Republican Party                         BALLOTS CAST - Republican Party       Precinct 5                                             00 
00070010006000021000001000005000015000000000000000000000000000000000000000000000000000000000000000000REP       BALLOTS CAST - Republican Party                         BALLOTS CAST - Republican Party       Precinct 6                                             00 
00070010007000198000009000099000090000000000000000000000000000000000000000000000000000000000000000000REP       BALLOTS CAST - Republican Party                         BALLOTS CAST - Republican Party       Precinct 7                                             00 
00070010008000067000000000039000028000000000000000000000000000000000000000000000000000000000000000000REP       BALLOTS CAST - Republican Party                         BALLOTS CAST - Republican Party       Precinct 9                                             00 
00070010009000078000002000045000031000000000000000000000000000000000000000000000000000000000000000000REP       BALLOTS CAST - Republican Party                         BALLOTS CAST - Republican Party       Precinct 10                                            00 
00080010001000283000029000115000139000000000000000000000000000000000000000000000000000000000000000000DEM       BALLOTS CAST - Democratic Party                         BALLOTS CAST - Democratic Party       Precinct 1                                             00 
00080010002000243000032000106000105000000000000000000000000000000000000000000000000000000000000000000DEM       BALLOTS CAST - Democratic Party                         BALLOTS CAST - Democratic Party       Precinct 2                                             00 
00080010003000008000001000002000005000000000000000000000000000000000000000000000000000000000000000000DEM       BALLOTS CAST - Democratic Party                         BALLOTS CAST - Democratic Party       Precinct 3                                             00 
00080010004000024000000000007000017000000000000000000000000000000000000000000000000000000000000000000DEM       BALLOTS CAST - Democratic Party                         BALLOTS CAST - Democratic Party       Precinct 4                                             00 
00080010005000000000000000000000000000000000000000000000000000000000000000000000000000000000000000000DEM       BALLOTS CAST - Democratic Party                         BALLOTS CAST - Democratic Party       Precinct 5                                             00 
00080010006000014000002000001000011000000000000000000000000000000000000000000000000000000000000000000DEM       BALLOTS CAST - Democratic Party                         BALLOTS CAST - Democratic Party       Precinct 6                                             00 
00080010007000230000032000107000091000000000000000000000000000000000000000000000000000000000000000000DEM       BALLOTS CAST - Democratic Party                         BALLOTS CAST - Democratic Party       Precinct 7                                             00 
00080010008000013000000000008000005000000000000000000000000000000000000000000000000000000000000000000DEM       BALLOTS CAST - Democratic Party                         BALLOTS CAST - Democratic Party       Precinct 9                                             00 
00080010009000109000013000048000048000000000000000000000000000000000000000000000000000000000000000000DEM       BALLOTS CAST - Democratic Party                         BALLOTS CAST - Democratic Party       Precinct 10                                            00 
00090010001000001000000000001000000000000000000000000000000000000000000000000000000000000000000000000          BALLOTS CAST - BLANK                                    BALLOTS CAST - BLANK                  Precinct 1                                             00 
00090010002000000000000000000000000000000000000000000000000000000000000000000000000000000000000000000          BALLOTS CAST - BLANK                                    BALLOTS CAST - BLANK                  Precinct 2                                             00 
00090010003000000000000000000000000000000000000000000000000000000000000000000000000000000000000000000          BALLOTS CAST - BLANK                                    BALLOTS CAST - BLANK                  Precinct 3                                             00 
00090010004000000000000000000000000000000000000000000000000000000000000000000000000000000000000000000          BALLOTS CAST - BLANK                                    BALLOTS CAST - BLANK                  Precinct 4                                             00 
00090010005000000000000000000000000000000000000000000000000000000000000000000000000000000000000000000          BALLOTS CAST - BLANK                                    BALLOTS CAST - BLANK                  Precinct 5                                             00 
00090010006000000000000000000000000000000000000000000000000000000000000000000000000000000000000000000          BALLOTS CAST - BLANK                                    BALLOTS CAST - BLANK                  Precinct 6                                             00 
00090010007000000000000000000000000000000000000000000000000000000000000000000000000000000000000000000          BALLOTS CAST - BLANK                                    BALLOTS CAST - BLANK                  Precinct 7                                             00 
00090010008000000000000000000000000000000000000000000000000000000000000000000000000000000000000000000          BALLOTS CAST - BLANK                                    BALLOTS CAST - BLANK                  Precinct 9                                             00 
00090010009000000000000000000000000000000000000000000000000000000000000000000000000000000000000000000          BALLOTS CAST - BLANK                                    BALLOTS CAST - BLANK                  Precinct 10                                            00 
00100010001000003000000000002000001000000000000000000000000000000000000000000000000000000000000000000REP       REP President                                           Joe Walsh                             Precinct 1                                             01 
00100010002000004000000000001000003000000000000000000000000000000000000000000000000000000000000000000REP       REP President                                           Joe Walsh                             Precinct 2                                             01 
00100010003000001000000000000000001000000000000000000000000000000000000000000000000000000000000000000REP       REP President                                           Joe Walsh                             Precinct 3                                             01 
00100010004000000000000000000000000000000000000000000000000000000000000000000000000000000000000000000REP       REP President                                           Joe Walsh                             Precinct 4                                             01 
00100010005000000000000000000000000000000000000000000000000000000000000000000000000000000000000000000REP       REP President                                           Joe Walsh                             Precinct 5                                             01 
00100010006000000000000000000000000000000000000000000000000000000000000000000000000000000000000000000REP       REP President                                           Joe Walsh                             Precinct 6                                             01 
00100010007000004000000000002000002000000000000000000000000000000000000000000000000000000000000000000REP       REP President                                           Joe Walsh                             Precinct 7                                             01 
00100010008000000000000000000000000000000000000000000000000000000000000000000000000000000000000000000REP       REP President                                           Joe Walsh                             Precinct 9                                             01 
00100010009000000000000000000000000000000000000000000000000000000000000000000000000000000000000000000REP       REP President                                           Joe Walsh                             Precinct 10                                            01 
00100020001000000000000000000000000000000000000000000000000000000000000000000000000000000000000000000REP       REP President                                           Zoltan G. Istvan                      Precinct 1                                             01 
00100020002000000000000000000000000000000000000000000000000000000000000000000000000000000000000000000REP       REP President                                           Zoltan G. Istvan                      Precinct 2                                             01 
00100020003000000000000000000000000000000000000000000000000000000000000000000000000000000000000000000REP       REP President                                           Zoltan G. Istvan                      Precinct 3                                             01 
00100020004000000000000000000000000000000000000000000000000000000000000000000000000000000000000000000REP       REP President                                           Zoltan G. Istvan                      Precinct 4                                             01 
00100020005000000000000000000000000000000000000000000000000000000000000000000000000000000000000000000REP       REP President                                           Zoltan G. Istvan                      Precinct 5                                             01 
00100020006000000000000000000000000000000000000000000000000000000000000000000000000000000000000000000REP       REP President                                           Zoltan G. Istvan                      Precinct 6                                             01 
00100020007000000000000000000000000000000000000000000000000000000000000000000000000000000000000000000REP       REP President                                           Zoltan G. Istvan                      Precinct 7                                             01 
00100020008000000000000000000000000000000000000000000000000000000000000000000000000000000000000000000REP       REP President                                           Zoltan G. Istvan                      Precinct 9                                             01 
00100020009000000000000000000000000000000000000000000000000000000000000000000000000000000000000000000REP       REP President                                           Zoltan G. Istvan                      Precinct 10                                            01 
00100030001000000000000000000000000000000000000000000000000000000000000000000000000000000000000000000REP       REP President                                           Matthew John Matern                   Precinct 1                                             01 
00100030002000003000000000002000001000000000000000000000000000000000000000000000000000000000000000000REP       REP President                                           Matthew John Matern                   Precinct 2                                             01 
00100030003000000000000000000000000000000000000000000000000000000000000000000000000000000000000000000REP       REP President                                           Matthew John Matern                   Precinct 3                                             01 
00100030004000000000000000000000000000000000000000000000000000000000000000000000000000000000000000000REP       REP President                                           Matthew John Matern                   Precinct 4                                             01 
00100030005000000000000000000000000000000000000000000000000000000000000000000000000000000000000000000REP       REP President                                           Matthew John Matern                   Precinct 5                                             01 
00100030006000000000000000000000000000000000000000000000000000000000000000000000000000000000000000000REP       REP President                                           Matthew John Matern                   Precinct 6                                             01 
00100030007000000000000000000000000000000000000000000000000000000000000000000000000000000000000000000REP       REP President                                           Matthew John Matern                   Precinct 7                                             01 
00100030008000000000000000000000000000000000000000000000000000000000000000000000000000000000000000000REP       REP President                                           Matthew John Matern                   Precinct 9                                             01 
00100030009000000000000000000000000000000000000000000000000000000000000000000000000000000000000000000REP       REP President                                           Matthew John Matern                   Precinct 10                                            01 
00100040001000003000000000002000001000000000000000000000000000000000000000000000000000000000000000000REP       REP President                                           Roque Rocky DeLa Fuente Guerra        Precinct 1                                             01 
00100040002000007000000000002000005000000000000000000000000000000000000000000000000000000000000000000REP       REP President                                           Roque Rocky DeLa Fuente Guerra        Precinct 2                                             01 
00100040003000000000000000000000000000000000000000000000000000000000000000000000000000000000000000000REP       REP President                                           Roque Rocky DeLa Fuente Guerra        Precinct 3                                             01 
00100040004000000000000000000000000000000000000000000000000000000000000000000000000000000000000000000REP       REP President                                           Roque Rocky DeLa Fuente Guerra        Precinct 4                                             01 
00100040005000000000000000000000000000000000000000000000000000000000000000000000000000000000000000000REP       REP President                                           Roque Rocky DeLa Fuente Guerra        Precinct 5                                             01 
00100040006000000000000000000000000000000000000000000000000000000000000000000000000000000000000000000REP       REP President                                           Roque Rocky DeLa Fuente Guerra        Precinct 6                                             01 
00100040007000002000000000001000001000000000000000000000000000000000000000000000000000000000000000000REP       REP President                                           Roque Rocky DeLa Fuente Guerra        Precinct 7                                             01 
00100040008000000000000000000000000000000000000000000000000000000000000000000000000000000000000000000REP       REP President                                           Roque Rocky DeLa Fuente Guerra        Precinct 9                                             01 
00100040009000000000000000000000000000000000000000000000000000000000000000000000000000000000000000000REP       REP President                                           Roque Rocky DeLa Fuente Guerra        Precinct 10                                            01 
00100050001000003000000000001000002000000000000000000000000000000000000000000000000000000000000000000REP       REP President                                           Bill Weld                             Precinct 1                                             01 
00100050002000000000000000000000000000000000000000000000000000000000000000000000000000000000000000000REP       REP President                                           Bill Weld                             Precinct 2                                             01 
00100050003000000000000000000000000000000000000000000000000000000000000000000000000000000000000000000REP       REP President                                           Bill Weld                             Precinct 3                                             01 
00100050004000000000000000000000000000000000000000000000000000000000000000000000000000000000000000000REP       REP President                                           Bill Weld                             Precinct 4                                             01 
00100050005000000000000000000000000000000000000000000000000000000000000000000000000000000000000000000REP       REP President                                           Bill Weld                             Precinct 5                                             01 
00100050006000000000000000000000000000000000000000000000000000000000000000000000000000000000000000000REP       REP President                                           Bill Weld                             Precinct 6                                             01 
00100050007000000000000000000000000000000000000000000000000000000000000000000000000000000000000000000REP       REP President                                           Bill Weld                             Precinct 7                                             01 
00100050008000000000000000000000000000000000000000000000000000000000000000000000000000000000000000000REP       REP President                                           Bill Weld                             Precinct 9                                             01 
00100050009000002000000000002000000000000000000000000000000000000000000000000000000000000000000000000REP       REP President                                           Bill Weld                             Precinct 10                                            01 
00100060001000332000016000168000148000000000000000000000000000000000000000000000000000000000000000000REP       REP President                                           Donald J. Trump                       Precinct 1                                             01 
00100060002000277000015000138000124000000000000000000000000000000000000000000000000000000000000000000REP       REP President                                           Donald J. Trump                       Precinct 2                                             01 
00100060003000094000003000045000046000000000000000000000000000000000000000000000000000000000000000000REP       REP President                                           Donald J. Trump                       Precinct 3                                             01 
00100060004000155000000000071000084000000000000000000000000000000000000000000000000000000000000000000REP       REP President                                           Donald J. Trump                       Precinct 4                                             01 
00100060005000034000002000006000026000000000000000000000000000000000000000000000000000000000000000000REP       REP President                                           Donald J. Trump                       Precinct 5                                             01 
00100060006000020000001000004000015000000000000000000000000000000000000000000000000000000000000000000REP       REP President                                           Donald J. Trump                       Precinct 6                                             01 
00100060007000186000008000094000084000000000000000000000000000000000000000000000000000000000000000000REP       REP President                                           Donald J. Trump                       Precinct 7                                             01 
00100060008000067000000000039000028000000000000000000000000000000000000000000000000000000000000000000REP       REP President                                           Donald J. Trump                       Precinct 9                                             01 
00100060009000071000001000041000029000000000000000000000000000000000000000000000000000000000000000000REP       REP President                                           Donald J. Trump                       Precinct 10                                            01 
00100070001000001000000000001000000000000000000000000000000000000000000000000000000000000000000000000REP       REP President                                           Bob Ely                               Precinct 1                                             01 
00100070002000001000000000000000001000000000000000000000000000000000000000000000000000000000000000000REP       REP President                                           Bob Ely                               Precinct 2                                             01 
00100070003000000000000000000000000000000000000000000000000000000000000000000000000000000000000000000REP       REP President                                           Bob Ely                               Precinct 3                                             01 
00100070004000001000000000000000001000000000000000000000000000000000000000000000000000000000000000000REP       REP President                                           Bob Ely                               Precinct 4                                             01 
00100070005000000000000000000000000000000000000000000000000000000000000000000000000000000000000000000REP       REP President                                           Bob Ely                               Precinct 5                                             01 
00100070006000000000000000000000000000000000000000000000000000000000000000000000000000000000000000000REP       REP President                                           Bob Ely                               Precinct 6                                             01 
00100070007000000000000000000000000000000000000000000000000000000000000000000000000000000000000000000REP       REP President                                           Bob Ely                               Precinct 7                                             01 
00100070008000000000000000000000000000000000000000000000000000000000000000000000000000000000000000000REP       REP President                                           Bob Ely                               Precinct 9                                             01 
00100070009000001000000000000000001000000000000000000000000000000000000000000000000000000000000000000REP       REP President                                           Bob Ely                               Precinct 10                                            01 
00100080001000021000001000010000010000000000000000000000000000000000000000000000000000000000000000000REP       REP President                                           Uncommitted                           Precinct 1                                             01 
00100080002000013000000000006000007000000000000000000000000000000000000000000000000000000000000000000REP       REP President                                           Uncommitted                           Precinct 2                                             01 
00100080003000001000000000000000001000000000000000000000000000000000000000000000000000000000000000000REP       REP President                                           Uncommitted                           Precinct 3                                             01 
00100080004000001000000000001000000000000000000000000000000000000000000000000000000000000000000000000REP       REP President                                           Uncommitted                           Precinct 4                                             01 
00100080005000000000000000000000000000000000000000000000000000000000000000000000000000000000000000000REP       REP President                                           Uncommitted                           Precinct 5                                             01 
00100080006000001000000000001000000000000000000000000000000000000000000000000000000000000000000000000REP       REP President                                           Uncommitted                           Precinct 6                                             01 
00100080007000004000000000001000003000000000000000000000000000000000000000000000000000000000000000000REP       REP President                                           Uncommitted                           Precinct 7                                             01 
00100080008000000000000000000000000000000000000000000000000000000000000000000000000000000000000000000REP       REP President                                           Uncommitted                           Precinct 9                                             01 
00100080009000002000000000001000001000000000000000000000000000000000000000000000000000000000000000000REP       REP President                                           Uncommitted                           Precinct 10                                            01 
00110010001000030000001000011000018000000000000000000000000000000000000000000000000000000000000000000REP       REP US Senator                                          Mark Yancey                           Precinct 1                                             01 
00110010002000025000000000016000009000000000000000000000000000000000000000000000000000000000000000000REP       REP US Senator                                          Mark Yancey                           Precinct 2                                             01 
00110010003000009000000000006000003000000000000000000000000000000000000000000000000000000000000000000REP       REP US Senator                                          Mark Yancey                           Precinct 3                                             01 
00110010004000014000000000007000007000000000000000000000000000000000000000000000000000000000000000000REP       REP US Senator                                          Mark Yancey                           Precinct 4                                             01 
00110010005000002000000000000000002000000000000000000000000000000000000000000000000000000000000000000REP       REP US Senator                                          Mark Yancey                           Precinct 5                                             01 
00110010006000001000000000001000000000000000000000000000000000000000000000000000000000000000000000000REP       REP US Senator                                          Mark Yancey                           Precinct 6                                             01 
00110010007000022000001000013000008000000000000000000000000000000000000000000000000000000000000000000REP       REP US Senator                                          Mark Yancey                           Precinct 7                                             01 
00110010008000012000000000007000005000000000000000000000000000000000000000000000000000000000000000000REP       REP US Senator                                          Mark Yancey                           Precinct 9                                             01 
00110010009000006000000000002000004000000000000000000000000000000000000000000000000000000000000000000REP       REP US Senator                                          Mark Yancey                           Precinct 10                                            01 
00110020001000237000012000128000097000000000000000000000000000000000000000000000000000000000000000000REP       REP US Senator                                          John Cornyn                           Precinct 1                                             01 
00110020002000189000009000101000079000000000000000000000000000000000000000000000000000000000000000000REP       REP US Senator                                          John Cornyn                           Precinct 2                                             01 
00110020003000057000003000031000023000000000000000000000000000000000000000000000000000000000000000000REP       REP US Senator                                          John Cornyn                           Precinct 3                                             01 
00110020004000097000000000048000049000000000000000000000000000000000000000000000000000000000000000000REP       REP US Senator                                          John Cornyn                           Precinct 4                                             01 
00110020005000024000001000006000017000000000000000000000000000000000000000000000000000000000000000000REP       REP US Senator                                          John Cornyn                           Precinct 5                                             01 
00110020006000015000001000002000012000000000000000000000000000000000000000000000000000000000000000000REP       REP US Senator                                          John Cornyn                           Precinct 6                                             01 
00110020007000121000007000054000060000000000000000000000000000000000000000000000000000000000000000000REP       REP US Senator                                          John Cornyn                           Precinct 7                                             01 
00110020008000035000000000023000012000000000000000000000000000000000000000000000000000000000000000000REP       REP US Senator                                          John Cornyn                           Precinct 9                                             01 
00110020009000049000001000033000015000000000000000000000000000000000000000000000000000000000000000000REP       REP US Senator                                          John Cornyn                           Precinct 10                                            01 
00110030001000003000000000002000001000000000000000000000000000000000000000000000000000000000000000000REP       REP US Senator                                          Virgil Bierschwale                    Precinct 1                                             01 
00110030002000004000000000001000003000000000000000000000000000000000000000000000000000000000000000000REP       REP US Senator                                          Virgil Bierschwale                    Precinct 2                                             01 
00110030003000000000000000000000000000000000000000000000000000000000000000000000000000000000000000000REP       REP US Senator                                          Virgil Bierschwale                    Precinct 3                                             01 
00110030004000002000000000001000001000000000000000000000000000000000000000000000000000000000000000000REP       REP US Senator                                          Virgil Bierschwale                    Precinct 4                                             01 
00110030005000001000000000000000001000000000000000000000000000000000000000000000000000000000000000000REP       REP US Senator                                          Virgil Bierschwale                    Precinct 5                                             01 
00110030006000000000000000000000000000000000000000000000000000000000000000000000000000000000000000000REP       REP US Senator                                          Virgil Bierschwale                    Precinct 6                                             01 
00110030007000002000000000000000002000000000000000000000000000000000000000000000000000000000000000000REP       REP US Senator                                          Virgil Bierschwale                    Precinct 7                                             01 
00110030008000000000000000000000000000000000000000000000000000000000000000000000000000000000000000000REP       REP US Senator                                          Virgil Bierschwale                    Precinct 9                                             01 
00110030009000001000000000000000001000000000000000000000000000000000000000000000000000000000000000000REP       REP US Senator                                          Virgil Bierschwale                    Precinct 10                                            01 
00110040001000037000002000019000016000000000000000000000000000000000000000000000000000000000000000000REP       REP US Senator                                          Dwayne Stovall                        Precinct 1                                             01 
00110040002000026000003000010000013000000000000000000000000000000000000000000000000000000000000000000REP       REP US Senator                                          Dwayne Stovall                        Precinct 2                                             01 
00110040003000025000000000006000019000000000000000000000000000000000000000000000000000000000000000000REP       REP US Senator                                          Dwayne Stovall                        Precinct 3                                             01 
00110040004000026000000000011000015000000000000000000000000000000000000000000000000000000000000000000REP       REP US Senator                                          Dwayne Stovall                        Precinct 4                                             01 
00110040005000004000000000000000004000000000000000000000000000000000000000000000000000000000000000000REP       REP US Senator                                          Dwayne Stovall                        Precinct 5                                             01 
00110040006000001000000000001000000000000000000000000000000000000000000000000000000000000000000000000REP       REP US Senator                                          Dwayne Stovall                        Precinct 6                                             01 
00110040007000025000000000019000006000000000000000000000000000000000000000000000000000000000000000000REP       REP US Senator                                          Dwayne Stovall                        Precinct 7                                             01 
00110040008000011000000000005000006000000000000000000000000000000000000000000000000000000000000000000REP       REP US Senator                                          Dwayne Stovall                        Precinct 9                                             01 
00110040009000004000000000001000003000000000000000000000000000000000000000000000000000000000000000000REP       REP US Senator                                          Dwayne Stovall                        Precinct 10                                            01 
00110050001000045000001000019000025000000000000000000000000000000000000000000000000000000000000000000REP       REP US Senator                                          John Anthony Castro                   Precinct 1                                             01 
00110050002000055000002000020000033000000000000000000000000000000000000000000000000000000000000000000REP       REP US Senator                                          John Anthony Castro                   Precinct 2                                             01 
00110050003000003000000000000000003000000000000000000000000000000000000000000000000000000000000000000REP       REP US Senator                                          John Anthony Castro                   Precinct 3                                             01 
00110050004000007000000000001000006000000000000000000000000000000000000000000000000000000000000000000REP       REP US Senator                                          John Anthony Castro                   Precinct 4                                             01 
00110050005000000000000000000000000000000000000000000000000000000000000000000000000000000000000000000REP       REP US Senator                                          John Anthony Castro                   Precinct 5                                             01 
00110050006000004000000000001000003000000000000000000000000000000000000000000000000000000000000000000REP       REP US Senator                                          John Anthony Castro                   Precinct 6                                             01 
00110050007000025000001000013000011000000000000000000000000000000000000000000000000000000000000000000REP       REP US Senator                                          John Anthony Castro                   Precinct 7                                             01 
00110050008000006000000000002000004000000000000000000000000000000000000000000000000000000000000000000REP       REP US Senator                                          John Anthony Castro                   Precinct 9                                             01 
00110050009000015000000000007000008000000000000000000000000000000000000000000000000000000000000000000REP       REP US Senator                                          John Anthony Castro                   Precinct 10                                            01 
00120010001000026000001000013000012000000000000000000000000000000000000000000000000000000000000000000REP       REP US Representative, Dist 23                          Ala Ureste                           Precinct 1                                             01 
00120010002000029000001000010000018000000000000000000000000000000000000000000000000000000000000000000REP       REP US Representative, Dist 23                          Ala Ureste                           Precinct 2                                             01 
00120010003000007000000000003000004000000000000000000000000000000000000000000000000000000000000000000REP       REP US Representative, Dist 23                          Ala Ureste                           Precinct 3                                             01 
00120010004000005000000000003000002000000000000000000000000000000000000000000000000000000000000000000REP       REP US Representative, Dist 23                          Ala Ureste                           Precinct 4                                             01 
00120010005000003000000000002000001000000000000000000000000000000000000000000000000000000000000000000REP       REP US Representative, Dist 23                          Ala Ureste                           Precinct 5                                             01 
00120010006000000000000000000000000000000000000000000000000000000000000000000000000000000000000000000REP       REP US Representative, Dist 23                          Ala Ureste                           Precinct 6                                             01 
00120010007000017000000000009000008000000000000000000000000000000000000000000000000000000000000000000REP       REP US Representative, Dist 23                          Ala Ureste                           Precinct 7                                             01 
00120010008000005000000000005000000000000000000000000000000000000000000000000000000000000000000000000REP       REP US Representative, Dist 23                          Ala Ureste                           Precinct 9                                             01 
00120010009000007000000000004000003000000000000000000000000000000000000000000000000000000000000000000REP       REP US Representative, Dist 23                          Ala Ureste                           Precinct 10                                            01 
00120020001000033000001000014000018000000000000000000000000000000000000000000000000000000000000000000REP       REP US Representative, Dist 23                          Jeff McFarlin                         Precinct 1                                             01 
00120020002000027000002000016000009000000000000000000000000000000000000000000000000000000000000000000REP       REP US Representative, Dist 23                          Jeff McFarlin                         Precinct 2                                             01 
00120020003000010000000000003000007000000000000000000000000000000000000000000000000000000000000000000REP       REP US Representative, Dist 23                          Jeff McFarlin                         Precinct 3                                             01 
00120020004000026000000000011000015000000000000000000000000000000000000000000000000000000000000000000REP       REP US Representative, Dist 23                          Jeff McFarlin                         Precinct 4                                             01 
00120020005000003000000000000000003000000000000000000000000000000000000000000000000000000000000000000REP       REP US Representative, Dist 23                          Jeff McFarlin                         Precinct 5                                             01 
00120020006000002000001000001000000000000000000000000000000000000000000000000000000000000000000000000REP       REP US Representative, Dist 23                          Jeff McFarlin                         Precinct 6                                             01 
00120020007000022000000000010000012000000000000000000000000000000000000000000000000000000000000000000REP       REP US Representative, Dist 23                          Jeff McFarlin                         Precinct 7                                             01 
00120020008000012000000000009000003000000000000000000000000000000000000000000000000000000000000000000REP       REP US Representative, Dist 23                          Jeff McFarlin                         Precinct 9                                             01 
00120020009000008000000000003000005000000000000000000000000000000000000000000000000000000000000000000REP       REP US Representative, Dist 23                          Jeff McFarlin                         Precinct 10                                            01 
00120030001000023000000000012000011000000000000000000000000000000000000000000000000000000000000000000REP       REP US Representative, Dist 23                          Cecil B. "Burt" Jones                 Precinct 1                                             01 
00120030002000011000001000005000005000000000000000000000000000000000000000000000000000000000000000000REP       REP US Representative, Dist 23                          Cecil B. "Burt" Jones                 Precinct 2                                             01 
00120030003000002000000000001000001000000000000000000000000000000000000000000000000000000000000000000REP       REP US Representative, Dist 23                          Cecil B. "Burt" Jones                 Precinct 3                                             01 
00120030004000012000000000008000004000000000000000000000000000000000000000000000000000000000000000000REP       REP US Representative, Dist 23                          Cecil B. "Burt" Jones                 Precinct 4                                             01 
00120030005000001000000000000000001000000000000000000000000000000000000000000000000000000000000000000REP       REP US Representative, Dist 23                          Cecil B. "Burt" Jones                 Precinct 5                                             01 
00120030006000000000000000000000000000000000000000000000000000000000000000000000000000000000000000000REP       REP US Representative, Dist 23                          Cecil B. "Burt" Jones                 Precinct 6                                             01 
00120030007000009000000000007000002000000000000000000000000000000000000000000000000000000000000000000REP       REP US Representative, Dist 23                          Cecil B. "Burt" Jones                 Precinct 7                                             01 
00120030008000004000000000002000002000000000000000000000000000000000000000000000000000000000000000000REP       REP US Representative, Dist 23                          Cecil B. "Burt" Jones                 Precinct 9                                             01 
00120030009000002000000000002000000000000000000000000000000000000000000000000000000000000000000000000REP       REP US Representative, Dist 23                          Cecil B. "Burt" Jones                 Precinct 10                                            01 
00120040001000005000000000003000002000000000000000000000000000000000000000000000000000000000000000000REP       REP US Representative, Dist 23                          Darwin Boedeker                       Precinct 1                                             01 
00120040002000004000000000001000003000000000000000000000000000000000000000000000000000000000000000000REP       REP US Representative, Dist 23                          Darwin Boedeker                       Precinct 2                                             01 
00120040003000000000000000000000000000000000000000000000000000000000000000000000000000000000000000000REP       REP US Representative, Dist 23                          Darwin Boedeker                       Precinct 3                                             01 
00120040004000001000000000000000001000000000000000000000000000000000000000000000000000000000000000000REP       REP US Representative, Dist 23                          Darwin Boedeker                       Precinct 4                                             01 
00120040005000000000000000000000000000000000000000000000000000000000000000000000000000000000000000000REP       REP US Representative, Dist 23                          Darwin Boedeker                       Precinct 5                                             01 
00120040006000000000000000000000000000000000000000000000000000000000000000000000000000000000000000000REP       REP US Representative, Dist 23                          Darwin Boedeker                       Precinct 6                                             01 
00120040007000006000000000005000001000000000000000000000000000000000000000000000000000000000000000000REP       REP US Representative, Dist 23                          Darwin Boedeker                       Precinct 7                                             01 
00120040008000001000000000000000001000000000000000000000000000000000000000000000000000000000000000000REP       REP US Representative, Dist 23                          Darwin Boedeker                       Precinct 9                                             01 
00120040009000000000000000000000000000000000000000000000000000000000000000000000000000000000000000000REP       REP US Representative, Dist 23                          Darwin Boedeker                       Precinct 10                                            01 
00120050001000039000000000026000013000000000000000000000000000000000000000000000000000000000000000000REP       REP US Representative, Dist 23                          Raul Reyes                            Precinct 1                                             01 
00120050002000032000004000010000018000000000000000000000000000000000000000000000000000000000000000000REP       REP US Representative, Dist 23                          Raul Reyes                            Precinct 2                                             01 
00120050003000033000002000019000012000000000000000000000000000000000000000000000000000000000000000000REP       REP US Representative, Dist 23                          Raul Reyes                            Precinct 3                                             01 
00120050004000033000000000015000018000000000000000000000000000000000000000000000000000000000000000000REP       REP US Representative, Dist 23                          Raul Reyes                            Precinct 4                                             01 
00120050005000003000000000000000003000000000000000000000000000000000000000000000000000000000000000000REP       REP US Representative, Dist 23                          Raul Reyes                            Precinct 5                                             01 
00120050006000010000000000001000009000000000000000000000000000000000000000000000000000000000000000000REP       REP US Representative, Dist 23                          Raul Reyes                            Precinct 6                                             01 
00120050007000020000000000014000006000000000000000000000000000000000000000000000000000000000000000000REP       REP US Representative, Dist 23                          Raul Reyes                            Precinct 7                                             01 
00120050008000010000000000003000007000000000000000000000000000000000000000000000000000000000000000000REP       REP US Representative, Dist 23                          Raul Reyes                            Precinct 9                                             01 
00120050009000009000000000008000001000000000000000000000000000000000000000000000000000000000000000000REP       REP US Representative, Dist 23                          Raul Reyes                            Precinct 10                                            01 
00120060001000015000001000008000006000000000000000000000000000000000000000000000000000000000000000000REP       REP US Representative, Dist 23                          Sharon Breckenridge Thomas            Precinct 1                                             01 
00120060002000008000001000005000002000000000000000000000000000000000000000000000000000000000000000000REP       REP US Representative, Dist 23                          Sharon Breckenridge Thomas            Precinct 2                                             01 
00120060003000003000000000000000003000000000000000000000000000000000000000000000000000000000000000000REP       REP US Representative, Dist 23                          Sharon Breckenridge Thomas            Precinct 3                                             01 
00120060004000006000000000004000002000000000000000000000000000000000000000000000000000000000000000000REP       REP US Representative, Dist 23                          Sharon Breckenridge Thomas            Precinct 4                                             01 
00120060005000000000000000000000000000000000000000000000000000000000000000000000000000000000000000000REP       REP US Representative, Dist 23                          Sharon Breckenridge Thomas            Precinct 5                                             01 
00120060006000001000000000000000001000000000000000000000000000000000000000000000000000000000000000000REP       REP US Representative, Dist 23                          Sharon Breckenridge Thomas            Precinct 6                                             01 
00120060007000007000000000004000003000000000000000000000000000000000000000000000000000000000000000000REP       REP US Representative, Dist 23                          Sharon Breckenridge Thomas            Precinct 7                                             01 
00120060008000001000000000000000001000000000000000000000000000000000000000000000000000000000000000000REP       REP US Representative, Dist 23                          Sharon Breckenridge Thomas            Precinct 9                                             01 
00120060009000001000000000001000000000000000000000000000000000000000000000000000000000000000000000000REP       REP US Representative, Dist 23                          Sharon Breckenridge Thomas            Precinct 10                                            01 
00120070001000068000002000025000041000000000000000000000000000000000000000000000000000000000000000000REP       REP US Representative, Dist 23                          Alma Arredondo-Lynch                  Precinct 1                                             01 
00120070002000049000000000030000019000000000000000000000000000000000000000000000000000000000000000000REP       REP US Representative, Dist 23                          Alma Arredondo-Lynch                  Precinct 2                                             01 
00120070003000020000000000009000011000000000000000000000000000000000000000000000000000000000000000000REP       REP US Representative, Dist 23                          Alma Arredondo-Lynch                  Precinct 3                                             01 
00120070004000029000000000014000015000000000000000000000000000000000000000000000000000000000000000000REP       REP US Representative, Dist 23                          Alma Arredondo-Lynch                  Precinct 4                                             01 
00120070005000015000000000004000011000000000000000000000000000000000000000000000000000000000000000000REP       REP US Representative, Dist 23                          Alma Arredondo-Lynch                  Precinct 5                                             01 
00120070006000001000000000000000001000000000000000000000000000000000000000000000000000000000000000000REP       REP US Representative, Dist 23                          Alma Arredondo-Lynch                  Precinct 6                                             01 
00120070007000027000001000015000011000000000000000000000000000000000000000000000000000000000000000000REP       REP US Representative, Dist 23                          Alma Arredondo-Lynch                  Precinct 7                                             01 
00120070008000014000000000009000005000000000000000000000000000000000000000000000000000000000000000000REP       REP US Representative, Dist 23                          Alma Arredondo-Lynch                  Precinct 9                                             01 
00120070009000015000001000007000007000000000000000000000000000000000000000000000000000000000000000000REP       REP US Representative, Dist 23                          Alma Arredondo-Lynch                  Precinct 10                                            01 
00120080001000051000006000022000023000000000000000000000000000000000000000000000000000000000000000000REP       REP US Representative, Dist 23                          Ben Van Winkle                        Precinct 1                                             01 
00120080002000054000001000028000025000000000000000000000000000000000000000000000000000000000000000000REP       REP US Representative, Dist 23                          Ben Van Winkle                        Precinct 2                                             01 
00120080003000000000000000000000000000000000000000000000000000000000000000000000000000000000000000000REP       REP US Representative, Dist 23                          Ben Van Winkle                        Precinct 3                                             01 
00120080004000005000000000001000004000000000000000000000000000000000000000000000000000000000000000000REP       REP US Representative, Dist 23                          Ben Van Winkle                        Precinct 4                                             01 
00120080005000001000000000000000001000000000000000000000000000000000000000000000000000000000000000000REP       REP US Representative, Dist 23                          Ben Van Winkle                        Precinct 5                                             01 
00120080006000002000000000001000001000000000000000000000000000000000000000000000000000000000000000000REP       REP US Representative, Dist 23                          Ben Van Winkle                        Precinct 6                                             01 
00120080007000029000001000010000018000000000000000000000000000000000000000000000000000000000000000000REP       REP US Representative, Dist 23                          Ben Van Winkle                        Precinct 7                                             01 
00120080008000002000000000000000002000000000000000000000000000000000000000000000000000000000000000000REP       REP US Representative, Dist 23                          Ben Van Winkle                        Precinct 9                                             01 
00120080009000011000000000004000007000000000000000000000000000000000000000000000000000000000000000000REP       REP US Representative, Dist 23                          Ben Van Winkle                        Precinct 10                                            01 
00120090001000089000006000053000030000000000000000000000000000000000000000000000000000000000000000000REP       REP US Representative, Dist 23                          Tony Gonzales                         Precinct 1                                             01 
00120090002000078000003000037000038000000000000000000000000000000000000000000000000000000000000000000REP       REP US Representative, Dist 23                          Tony Gonzales                         Precinct 2                                             01 
00120090003000013000000000005000008000000000000000000000000000000000000000000000000000000000000000000REP       REP US Representative, Dist 23                          Tony Gonzales                         Precinct 3                                             01 
00120090004000026000000000012000014000000000000000000000000000000000000000000000000000000000000000000REP       REP US Representative, Dist 23                          Tony Gonzales                         Precinct 4                                             01 
00120090005000006000001000000000005000000000000000000000000000000000000000000000000000000000000000000REP       REP US Representative, Dist 23                          Tony Gonzales                         Precinct 5                                             01 
00120090006000005000000000002000003000000000000000000000000000000000000000000000000000000000000000000REP       REP US Representative, Dist 23                          Tony Gonzales                         Precinct 6                                             01 
00120090007000047000006000019000022000000000000000000000000000000000000000000000000000000000000000000REP       REP US Representative, Dist 23                          Tony Gonzales                         Precinct 7                                             01 
00120090008000014000000000009000005000000000000000000000000000000000000000000000000000000000000000000REP       REP US Representative, Dist 23                          Tony Gonzales                         Precinct 9                                             01 
00120090009000022000000000014000008000000000000000000000000000000000000000000000000000000000000000000REP       REP US Representative, Dist 23                          Tony Gonzales                         Precinct 10                                            01 
00130010001000244000008000118000118000000000000000000000000000000000000000000000000000000000000000000REP       REP Railroad Commissioner                               James "Jim" Wright                    Precinct 1                                             01 
00130010002000208000007000095000106000000000000000000000000000000000000000000000000000000000000000000REP       REP Railroad Commissioner                               James "Jim" Wright                    Precinct 2                                             01 
00130010003000066000002000028000036000000000000000000000000000000000000000000000000000000000000000000REP       REP Railroad Commissioner                               James "Jim" Wright                    Precinct 3                                             01 
00130010004000105000000000049000056000000000000000000000000000000000000000000000000000000000000000000REP       REP Railroad Commissioner                               James "Jim" Wright                    Precinct 4                                             01 
00130010005000022000001000004000017000000000000000000000000000000000000000000000000000000000000000000REP       REP Railroad Commissioner                               James "Jim" Wright                    Precinct 5                                             01 
00130010006000018000001000004000013000000000000000000000000000000000000000000000000000000000000000000REP       REP Railroad Commissioner                               James "Jim" Wright                    Precinct 6                                             01 
00130010007000129000005000065000059000000000000000000000000000000000000000000000000000000000000000000REP       REP Railroad Commissioner                               James "Jim" Wright                    Precinct 7                                             01 
00130010008000031000000000016000015000000000000000000000000000000000000000000000000000000000000000000REP       REP Railroad Commissioner                               James "Jim" Wright                    Precinct 9                                             01 
00130010009000058000001000032000025000000000000000000000000000000000000000000000000000000000000000000REP       REP Railroad Commissioner                               James "Jim" Wright                    Precinct 10                                            01 
00130020001000093000007000053000033000000000000000000000000000000000000000000000000000000000000000000REP       REP Railroad Commissioner                               Ryan Sitton                           Precinct 1                                             01 
00130020002000078000005000044000029000000000000000000000000000000000000000000000000000000000000000000REP       REP Railroad Commissioner                               Ryan Sitton                           Precinct 2                                             01 
00130020003000024000000000014000010000000000000000000000000000000000000000000000000000000000000000000REP       REP Railroad Commissioner                               Ryan Sitton                           Precinct 3                                             01 
00130020004000030000000000014000016000000000000000000000000000000000000000000000000000000000000000000REP       REP Railroad Commissioner                               Ryan Sitton                           Precinct 4                                             01 
00130020005000004000000000001000003000000000000000000000000000000000000000000000000000000000000000000REP       REP Railroad Commissioner                               Ryan Sitton                           Precinct 5                                             01 
00130020006000003000000000001000002000000000000000000000000000000000000000000000000000000000000000000REP       REP Railroad Commissioner                               Ryan Sitton                           Precinct 6                                             01 
00130020007000060000003000031000026000000000000000000000000000000000000000000000000000000000000000000REP       REP Railroad Commissioner                               Ryan Sitton                           Precinct 7                                             01 
00130020008000033000000000020000013000000000000000000000000000000000000000000000000000000000000000000REP       REP Railroad Commissioner                               Ryan Sitton                           Precinct 9                                             01 
00130020009000015000000000010000005000000000000000000000000000000000000000000000000000000000000000000REP       REP Railroad Commissioner                               Ryan Sitton                           Precinct 10                                            01 
00140010001000326000015000160000151000000000000000000000000000000000000000000000000000000000000000000REP       REP Chief Justice, Supreme Court                        Nathan Hecht                          Precinct 1                                             01 
00140010002000267000010000131000126000000000000000000000000000000000000000000000000000000000000000000REP       REP Chief Justice, Supreme Court                        Nathan Hecht                          Precinct 2                                             01 
00140010003000088000002000043000043000000000000000000000000000000000000000000000000000000000000000000REP       REP Chief Justice, Supreme Court                        Nathan Hecht                          Precinct 3                                             01 
00140010004000137000000000059000078000000000000000000000000000000000000000000000000000000000000000000REP       REP Chief Justice, Supreme Court                        Nathan Hecht                          Precinct 4                                             01 
00140010005000027000002000005000020000000000000000000000000000000000000000000000000000000000000000000REP       REP Chief Justice, Supreme Court                        Nathan Hecht                          Precinct 5                                             01 
00140010006000021000001000005000015000000000000000000000000000000000000000000000000000000000000000000REP       REP Chief Justice, Supreme Court                        Nathan Hecht                          Precinct 6                                             01 
00140010007000184000008000093000083000000000000000000000000000000000000000000000000000000000000000000REP       REP Chief Justice, Supreme Court                        Nathan Hecht                          Precinct 7                                             01 
00140010008000055000000000034000021000000000000000000000000000000000000000000000000000000000000000000REP       REP Chief Justice, Supreme Court                        Nathan Hecht                          Precinct 9                                             01 
00140010009000071000001000041000029000000000000000000000000000000000000000000000000000000000000000000REP       REP Chief Justice, Supreme Court                        Nathan Hecht                          Precinct 10                                            01 
00150010001000329000015000163000151000000000000000000000000000000000000000000000000000000000000000000REP       REP Justice, Supreme Court, Pl 6                        Jane Bland                            Precinct 1                                             01 
00150010002000276000012000133000131000000000000000000000000000000000000000000000000000000000000000000REP       REP Justice, Supreme Court, Pl 6                        Jane Bland                            Precinct 2                                             01 
00150010003000089000002000043000044000000000000000000000000000000000000000000000000000000000000000000REP       REP Justice, Supreme Court, Pl 6                        Jane Bland                            Precinct 3                                             01 
00150010004000137000000000060000077000000000000000000000000000000000000000000000000000000000000000000REP       REP Justice, Supreme Court, Pl 6                        Jane Bland                            Precinct 4                                             01 
00150010005000028000002000005000021000000000000000000000000000000000000000000000000000000000000000000REP       REP Justice, Supreme Court, Pl 6                        Jane Bland                            Precinct 5                                             01 
00150010006000020000001000005000014000000000000000000000000000000000000000000000000000000000000000000REP       REP Justice, Supreme Court, Pl 6                        Jane Bland                            Precinct 6                                             01 
00150010007000182000008000092000082000000000000000000000000000000000000000000000000000000000000000000REP       REP Justice, Supreme Court, Pl 6                        Jane Bland                            Precinct 7                                             01 
00150010008000056000000000034000022000000000000000000000000000000000000000000000000000000000000000000REP       REP Justice, Supreme Court, Pl 6                        Jane Bland                            Precinct 9                                             01 
00150010009000067000001000038000028000000000000000000000000000000000000000000000000000000000000000000REP       REP Justice, Supreme Court, Pl 6                        Jane Bland                            Precinct 10                                            01 
00160010001000333000015000166000152000000000000000000000000000000000000000000000000000000000000000000REP       REP Justice, Supreme Court, Pl 7                        Jeff Boyd                             Precinct 1                                             01 
00160010002000277000012000135000130000000000000000000000000000000000000000000000000000000000000000000REP       REP Justice, Supreme Court, Pl 7                        Jeff Boyd                             Precinct 2                                             01 
00160010003000088000002000043000043000000000000000000000000000000000000000000000000000000000000000000REP       REP Justice, Supreme Court, Pl 7                        Jeff Boyd                             Precinct 3                                             01 
00160010004000139000000000062000077000000000000000000000000000000000000000000000000000000000000000000REP       REP Justice, Supreme Court, Pl 7                        Jeff Boyd                             Precinct 4                                             01 
00160010005000028000002000005000021000000000000000000000000000000000000000000000000000000000000000000REP       REP Justice, Supreme Court, Pl 7                        Jeff Boyd                             Precinct 5                                             01 
00160010006000020000001000004000015000000000000000000000000000000000000000000000000000000000000000000REP       REP Justice, Supreme Court, Pl 7                        Jeff Boyd                             Precinct 6                                             01 
00160010007000183000008000093000082000000000000000000000000000000000000000000000000000000000000000000REP       REP Justice, Supreme Court, Pl 7                        Jeff Boyd                             Precinct 7                                             01 
00160010008000054000000000033000021000000000000000000000000000000000000000000000000000000000000000000REP       REP Justice, Supreme Court, Pl 7                        Jeff Boyd                             Precinct 9                                             01 
00160010009000069000001000040000028000000000000000000000000000000000000000000000000000000000000000000REP       REP Justice, Supreme Court, Pl 7                        Jeff Boyd                             Precinct 10                                            01 
00170010001000336000015000167000154000000000000000000000000000000000000000000000000000000000000000000REP       REP Justice, Supreme Court, Pl 8                        Brett Busby                           Precinct 1                                             01 
00170010002000273000012000133000128000000000000000000000000000000000000000000000000000000000000000000REP       REP Justice, Supreme Court, Pl 8                        Brett Busby                           Precinct 2                                             01 
00170010003000088000002000042000044000000000000000000000000000000000000000000000000000000000000000000REP       REP Justice, Supreme Court, Pl 8                        Brett Busby                           Precinct 3                                             01 
00170010004000139000000000062000077000000000000000000000000000000000000000000000000000000000000000000REP       REP Justice, Supreme Court, Pl 8                        Brett Busby                           Precinct 4                                             01 
00170010005000028000002000005000021000000000000000000000000000000000000000000000000000000000000000000REP       REP Justice, Supreme Court, Pl 8                        Brett Busby                           Precinct 5                                             01 
00170010006000019000000000005000014000000000000000000000000000000000000000000000000000000000000000000REP       REP Justice, Supreme Court, Pl 8                        Brett Busby                           Precinct 6                                             01 
00170010007000181000008000092000081000000000000000000000000000000000000000000000000000000000000000000REP       REP Justice, Supreme Court, Pl 8                        Brett Busby                           Precinct 7                                             01 
00170010008000056000000000034000022000000000000000000000000000000000000000000000000000000000000000000REP       REP Justice, Supreme Court, Pl 8                        Brett Busby                           Precinct 9                                             01 
00170010009000069000001000040000028000000000000000000000000000000000000000000000000000000000000000000REP       REP Justice, Supreme Court, Pl 8                        Brett Busby                           Precinct 10                                            01 
00180010001000206000008000101000097000000000000000000000000000000000000000000000000000000000000000000REP       REP Judge, Ct of Crim App, Pl 3                         Bert Richardson                       Precinct 1                                             01 
00180010002000174000008000090000076000000000000000000000000000000000000000000000000000000000000000000REP       REP Judge, Ct of Crim App, Pl 3                         Bert Richardson                       Precinct 2                                             01 
00180010003000050000002000022000026000000000000000000000000000000000000000000000000000000000000000000REP       REP Judge, Ct of Crim App, Pl 3                         Bert Richardson                       Precinct 3                                             01 
00180010004000092000000000043000049000000000000000000000000000000000000000000000000000000000000000000REP       REP Judge, Ct of Crim App, Pl 3                         Bert Richardson                       Precinct 4                                             01 
00180010005000022000002000005000015000000000000000000000000000000000000000000000000000000000000000000REP       REP Judge, Ct of Crim App, Pl 3                         Bert Richardson                       Precinct 5                                             01 
00180010006000012000000000001000011000000000000000000000000000000000000000000000000000000000000000000REP       REP Judge, Ct of Crim App, Pl 3                         Bert Richardson                       Precinct 6                                             01 
00180010007000117000003000065000049000000000000000000000000000000000000000000000000000000000000000000REP       REP Judge, Ct of Crim App, Pl 3                         Bert Richardson                       Precinct 7                                             01 
00180010008000041000000000027000014000000000000000000000000000000000000000000000000000000000000000000REP       REP Judge, Ct of Crim App, Pl 3                         Bert Richardson                       Precinct 9                                             01 
00180010009000047000001000028000018000000000000000000000000000000000000000000000000000000000000000000REP       REP Judge, Ct of Crim App, Pl 3                         Bert Richardson                       Precinct 10                                            01 
00180020001000134000007000070000057000000000000000000000000000000000000000000000000000000000000000000REP       REP Judge, Ct of Crim App, Pl 3                         Gina Parker                           Precinct 1                                             01 
00180020002000105000003000047000055000000000000000000000000000000000000000000000000000000000000000000REP       REP Judge, Ct of Crim App, Pl 3                         Gina Parker                           Precinct 2                                             01 
00180020003000037000000000018000019000000000000000000000000000000000000000000000000000000000000000000REP       REP Judge, Ct of Crim App, Pl 3                         Gina Parker                           Precinct 3                                             01 
00180020004000042000000000020000022000000000000000000000000000000000000000000000000000000000000000000REP       REP Judge, Ct of Crim App, Pl 3                         Gina Parker                           Precinct 4                                             01 
00180020005000007000000000000000007000000000000000000000000000000000000000000000000000000000000000000REP       REP Judge, Ct of Crim App, Pl 3                         Gina Parker                           Precinct 5                                             01 
00180020006000008000000000004000004000000000000000000000000000000000000000000000000000000000000000000REP       REP Judge, Ct of Crim App, Pl 3                         Gina Parker                           Precinct 6                                             01 
00180020007000065000005000027000033000000000000000000000000000000000000000000000000000000000000000000REP       REP Judge, Ct of Crim App, Pl 3                         Gina Parker                           Precinct 7                                             01 
00180020008000021000000000009000012000000000000000000000000000000000000000000000000000000000000000000REP       REP Judge, Ct of Crim App, Pl 3                         Gina Parker                           Precinct 9                                             01 
00180020009000024000000000012000012000000000000000000000000000000000000000000000000000000000000000000REP       REP Judge, Ct of Crim App, Pl 3                         Gina Parker                           Precinct 10                                            01 
00190010001000336000015000167000154000000000000000000000000000000000000000000000000000000000000000000REP       REP Judge, Ct of Crim App, Pl 4                         Kevin Patrick Yeary                   Precinct 1                                             01 
00190010002000271000012000132000127000000000000000000000000000000000000000000000000000000000000000000REP       REP Judge, Ct of Crim App, Pl 4                         Kevin Patrick Yeary                   Precinct 2                                             01 
00190010003000089000002000043000044000000000000000000000000000000000000000000000000000000000000000000REP       REP Judge, Ct of Crim App, Pl 4                         Kevin Patrick Yeary                   Precinct 3                                             01 
00190010004000135000000000059000076000000000000000000000000000000000000000000000000000000000000000000REP       REP Judge, Ct of Crim App, Pl 4                         Kevin Patrick Yeary                   Precinct 4                                             01 
00190010005000028000002000005000021000000000000000000000000000000000000000000000000000000000000000000REP       REP Judge, Ct of Crim App, Pl 4                         Kevin Patrick Yeary                   Precinct 5                                             01 
00190010006000020000000000005000015000000000000000000000000000000000000000000000000000000000000000000REP       REP Judge, Ct of Crim App, Pl 4                         Kevin Patrick Yeary                   Precinct 6                                             01 
00190010007000184000008000095000081000000000000000000000000000000000000000000000000000000000000000000REP       REP Judge, Ct of Crim App, Pl 4                         Kevin Patrick Yeary                   Precinct 7                                             01 
00190010008000056000000000034000022000000000000000000000000000000000000000000000000000000000000000000REP       REP Judge, Ct of Crim App, Pl 4                         Kevin Patrick Yeary                   Precinct 9                                             01 
00190010009000069000001000039000029000000000000000000000000000000000000000000000000000000000000000000REP       REP Judge, Ct of Crim App, Pl 4                         Kevin Patrick Yeary                   Precinct 10                                            01 
00200010001000331000015000162000154000000000000000000000000000000000000000000000000000000000000000000REP       REP Judge, Ct of Crim App, Pl 9                         David Newell                          Precinct 1                                             01 
00200010002000273000012000133000128000000000000000000000000000000000000000000000000000000000000000000REP       REP Judge, Ct of Crim App, Pl 9                         David Newell                          Precinct 2                                             01 
00200010003000089000002000043000044000000000000000000000000000000000000000000000000000000000000000000REP       REP Judge, Ct of Crim App, Pl 9                         David Newell                          Precinct 3                                             01 
00200010004000138000000000060000078000000000000000000000000000000000000000000000000000000000000000000REP       REP Judge, Ct of Crim App, Pl 9                         David Newell                          Precinct 4                                             01 
00200010005000028000002000005000021000000000000000000000000000000000000000000000000000000000000000000REP       REP Judge, Ct of Crim App, Pl 9                         David Newell                          Precinct 5                                             01 
00200010006000020000000000005000015000000000000000000000000000000000000000000000000000000000000000000REP       REP Judge, Ct of Crim App, Pl 9                         David Newell                          Precinct 6                                             01 
00200010007000184000008000094000082000000000000000000000000000000000000000000000000000000000000000000REP       REP Judge, Ct of Crim App, Pl 9                         David Newell                          Precinct 7                                             01 
00200010008000055000000000033000022000000000000000000000000000000000000000000000000000000000000000000REP       REP Judge, Ct of Crim App, Pl 9                         David Newell                          Precinct 9                                             01 
00200010009000069000001000038000030000000000000000000000000000000000000000000000000000000000000000000REP       REP Judge, Ct of Crim App, Pl 9                         David Newell                          Precinct 10                                            01 
00210010001000333000015000163000155000000000000000000000000000000000000000000000000000000000000000000REP       REP Member, State BoE, Dist 1                           Jennifer Ivey                         Precinct 1                                             01 
00210010002000276000012000136000128000000000000000000000000000000000000000000000000000000000000000000REP       REP Member, State BoE, Dist 1                           Jennifer Ivey                         Precinct 2                                             01 
00210010003000087000002000041000044000000000000000000000000000000000000000000000000000000000000000000REP       REP Member, State BoE, Dist 1                           Jennifer Ivey                         Precinct 3                                             01 
00210010004000137000000000061000076000000000000000000000000000000000000000000000000000000000000000000REP       REP Member, State BoE, Dist 1                           Jennifer Ivey                         Precinct 4                                             01 
00210010005000028000002000005000021000000000000000000000000000000000000000000000000000000000000000000REP       REP Member, State BoE, Dist 1                           Jennifer Ivey                         Precinct 5                                             01 
00210010006000020000000000005000015000000000000000000000000000000000000000000000000000000000000000000REP       REP Member, State BoE, Dist 1                           Jennifer Ivey                         Precinct 6                                             01 
00210010007000185000008000094000083000000000000000000000000000000000000000000000000000000000000000000REP       REP Member, State BoE, Dist 1                           Jennifer Ivey                         Precinct 7                                             01 
00210010008000057000000000034000023000000000000000000000000000000000000000000000000000000000000000000REP       REP Member, State BoE, Dist 1                           Jennifer Ivey                         Precinct 9                                             01 
