00010010001001223000000000000000000000000000000000000000000000000000000000000000000000000000000000000          REGISTERED VOTERS - TOTAL                               REGISTERED VOTERS - TOTAL             1- Calvert                                             00 
00010010002001551000000000000000000000000000000000000000000000000000000000000000000000000000000000000          REGISTERED VOTERS - TOTAL                               REGISTERED VOTERS - TOTAL             2- Hearne                                              00 
00010010003000591000000000000000000000000000000000000000000000000000000000000000000000000000000000000          REGISTERED VOTERS - TOTAL                               REGISTERED VOTERS - TOTAL             3- Wheelock                                            00 
00010010004000516000000000000000000000000000000000000000000000000000000000000000000000000000000000000          REGISTERED VOTERS - TOTAL                               REGISTERED VOTERS - TOTAL             4- Bald Prairie                                        00 
00010010005001495000000000000000000000000000000000000000000000000000000000000000000000000000000000000          REGISTERED VOTERS - TOTAL                               REGISTERED VOTERS - TOTAL             5- Bremond                                             00 
00010010006001636000000000000000000000000000000000000000000000000000000000000000000000000000000000000          REGISTERED VOTERS - TOTAL                               REGISTERED VOTERS - TOTAL             6- Franklin                                            00 
00010010007000083000000000000000000000000000000000000000000000000000000000000000000000000000000000000          REGISTERED VOTERS - TOTAL                               REGISTERED VOTERS - TOTAL             7- Mumford                                             00 
00010010008000233000000000000000000000000000000000000000000000000000000000000000000000000000000000000          REGISTERED VOTERS - TOTAL                               REGISTERED VOTERS - TOTAL             8- Seale                                               00 
00010010009001125000000000000000000000000000000000000000000000000000000000000000000000000000000000000          REGISTERED VOTERS - TOTAL                               REGISTERED VOTERS - TOTAL             11- Benchley                                           00 
00010010010000198000000000000000000000000000000000000000000000000000000000000000000000000000000000000          REGISTERED VOTERS - TOTAL                               REGISTERED VOTERS - TOTAL             13- Elliott                                            00 
00010010011000160000000000000000000000000000000000000000000000000000000000000000000000000000000000000          REGISTERED VOTERS - TOTAL                               REGISTERED VOTERS - TOTAL             16- Easterly                                           00 
00010010012000103000000000000000000000000000000000000000000000000000000000000000000000000000000000000          REGISTERED VOTERS - TOTAL                               REGISTERED VOTERS - TOTAL             18- Ridge                                              00 
00010010013000554000000000000000000000000000000000000000000000000000000000000000000000000000000000000          REGISTERED VOTERS - TOTAL                               REGISTERED VOTERS - TOTAL             19- New Baden                                          00 
00010010014001266000000000000000000000000000000000000000000000000000000000000000000000000000000000000          REGISTERED VOTERS - TOTAL                               REGISTERED VOTERS - TOTAL             22- Teal Center                                        00 
00010010015000820000000000000000000000000000000000000000000000000000000000000000000000000000000000000          REGISTERED VOTERS - TOTAL                               REGISTERED VOTERS - TOTAL             23- Christian Faith                                    00 
00020010001000000000000000000000000000000000000000000000000000000000000000000000000000000000000000000REP       REGISTERED VOTERS - Republican Party                    REGISTERED VOTERS - Republican Party  1- Calvert                                             00 
00020010002000000000000000000000000000000000000000000000000000000000000000000000000000000000000000000REP       REGISTERED VOTERS - Republican Party                    REGISTERED VOTERS - Republican Party  2- Hearne                                              00 
00020010003000000000000000000000000000000000000000000000000000000000000000000000000000000000000000000REP       REGISTERED VOTERS - Republican Party                    REGISTERED VOTERS - Republican Party  3- Wheelock                                            00 
00020010004000000000000000000000000000000000000000000000000000000000000000000000000000000000000000000REP       REGISTERED VOTERS - Republican Party                    REGISTERED VOTERS - Republican Party  4- Bald Prairie                                        00 
00020010005000000000000000000000000000000000000000000000000000000000000000000000000000000000000000000REP       REGISTERED VOTERS - Republican Party                    REGISTERED VOTERS - Republican Party  5- Bremond                                             00 
00020010006000000000000000000000000000000000000000000000000000000000000000000000000000000000000000000REP       REGISTERED VOTERS - Republican Party                    REGISTERED VOTERS - Republican Party  6- Franklin                                            00 
00020010007000000000000000000000000000000000000000000000000000000000000000000000000000000000000000000REP       REGISTERED VOTERS - Republican Party                    REGISTERED VOTERS - Republican Party  7- Mumford                                             00 
00020010008000000000000000000000000000000000000000000000000000000000000000000000000000000000000000000REP       REGISTERED VOTERS - Republican Party                    REGISTERED VOTERS - Republican Party  8- Seale                                               00 
00020010009000000000000000000000000000000000000000000000000000000000000000000000000000000000000000000REP       REGISTERED VOTERS - Republican Party                    REGISTERED VOTERS - Republican Party  11- Benchley                                           00 
00020010010000000000000000000000000000000000000000000000000000000000000000000000000000000000000000000REP       REGISTERED VOTERS - Republican Party                    REGISTERED VOTERS - Republican Party  13- Elliott                                            00 
00020010011000000000000000000000000000000000000000000000000000000000000000000000000000000000000000000REP       REGISTERED VOTERS - Republican Party                    REGISTERED VOTERS - Republican Party  16- Easterly                                           00 
00020010012000000000000000000000000000000000000000000000000000000000000000000000000000000000000000000REP       REGISTERED VOTERS - Republican Party                    REGISTERED VOTERS - Republican Party  18- Ridge                                              00 
00020010013000000000000000000000000000000000000000000000000000000000000000000000000000000000000000000REP       REGISTERED VOTERS - Republican Party                    REGISTERED VOTERS - Republican Party  19- New Baden                                          00 
00020010014000000000000000000000000000000000000000000000000000000000000000000000000000000000000000000REP       REGISTERED VOTERS - Republican Party                    REGISTERED VOTERS - Republican Party  22- Teal Center                                        00 
00020010015000000000000000000000000000000000000000000000000000000000000000000000000000000000000000000REP       REGISTERED VOTERS - Republican Party                    REGISTERED VOTERS - Republican Party  23- Christian Faith                                    00 
00030010001000000000000000000000000000000000000000000000000000000000000000000000000000000000000000000DEM       REGISTERED VOTERS - Demoratic Party                     REGISTERED VOTERS - Demoratic Party   1- Calvert                                             00 
00030010002000000000000000000000000000000000000000000000000000000000000000000000000000000000000000000DEM       REGISTERED VOTERS - Demoratic Party                     REGISTERED VOTERS - Demoratic Party   2- Hearne                                              00 
00030010003000000000000000000000000000000000000000000000000000000000000000000000000000000000000000000DEM       REGISTERED VOTERS - Demoratic Party                     REGISTERED VOTERS - Demoratic Party   3- Wheelock                                            00 
00030010004000000000000000000000000000000000000000000000000000000000000000000000000000000000000000000DEM       REGISTERED VOTERS - Demoratic Party                     REGISTERED VOTERS - Demoratic Party   4- Bald Prairie                                        00 
00030010005000000000000000000000000000000000000000000000000000000000000000000000000000000000000000000DEM       REGISTERED VOTERS - Demoratic Party                     REGISTERED VOTERS - Demoratic Party   5- Bremond                                             00 
00030010006000000000000000000000000000000000000000000000000000000000000000000000000000000000000000000DEM       REGISTERED VOTERS - Demoratic Party                     REGISTERED VOTERS - Demoratic Party   6- Franklin                                            00 
00030010007000000000000000000000000000000000000000000000000000000000000000000000000000000000000000000DEM       REGISTERED VOTERS - Demoratic Party                     REGISTERED VOTERS - Demoratic Party   7- Mumford                                             00 
00030010008000000000000000000000000000000000000000000000000000000000000000000000000000000000000000000DEM       REGISTERED VOTERS - Demoratic Party                     REGISTERED VOTERS - Demoratic Party   8- Seale                                               00 
00030010009000000000000000000000000000000000000000000000000000000000000000000000000000000000000000000DEM       REGISTERED VOTERS - Demoratic Party                     REGISTERED VOTERS - Demoratic Party   11- Benchley                                           00 
00030010010000000000000000000000000000000000000000000000000000000000000000000000000000000000000000000DEM       REGISTERED VOTERS - Demoratic Party                     REGISTERED VOTERS - Demoratic Party   13- Elliott                                            00 
00030010011000000000000000000000000000000000000000000000000000000000000000000000000000000000000000000DEM       REGISTERED VOTERS - Demoratic Party                     REGISTERED VOTERS - Demoratic Party   16- Easterly                                           00 
00030010012000000000000000000000000000000000000000000000000000000000000000000000000000000000000000000DEM       REGISTERED VOTERS - Demoratic Party                     REGISTERED VOTERS - Demoratic Party   18- Ridge                                              00 
00030010013000000000000000000000000000000000000000000000000000000000000000000000000000000000000000000DEM       REGISTERED VOTERS - Demoratic Party                     REGISTERED VOTERS - Demoratic Party   19- New Baden                                          00 
00030010014000000000000000000000000000000000000000000000000000000000000000000000000000000000000000000DEM       REGISTERED VOTERS - Demoratic Party                     REGISTERED VOTERS - Demoratic Party   22- Teal Center                                        00 
00030010015000000000000000000000000000000000000000000000000000000000000000000000000000000000000000000DEM       REGISTERED VOTERS - Demoratic Party                     REGISTERED VOTERS - Demoratic Party   23- Christian Faith                                    00 
00040010001001223000000000000000000000000000000000000000000000000000000000000000000000000000000000000NON       REGISTERED VOTERS - NONPARTISAN                         REGISTERED VOTERS - NONPARTISAN       1- Calvert                                             00 
00040010002001551000000000000000000000000000000000000000000000000000000000000000000000000000000000000NON       REGISTERED VOTERS - NONPARTISAN                         REGISTERED VOTERS - NONPARTISAN       2- Hearne                                              00 
00040010003000591000000000000000000000000000000000000000000000000000000000000000000000000000000000000NON       REGISTERED VOTERS - NONPARTISAN                         REGISTERED VOTERS - NONPARTISAN       3- Wheelock                                            00 
00040010004000516000000000000000000000000000000000000000000000000000000000000000000000000000000000000NON       REGISTERED VOTERS - NONPARTISAN                         REGISTERED VOTERS - NONPARTISAN       4- Bald Prairie                                        00 
00040010005001495000000000000000000000000000000000000000000000000000000000000000000000000000000000000NON       REGISTERED VOTERS - NONPARTISAN                         REGISTERED VOTERS - NONPARTISAN       5- Bremond                                             00 
00040010006001636000000000000000000000000000000000000000000000000000000000000000000000000000000000000NON       REGISTERED VOTERS - NONPARTISAN                         REGISTERED VOTERS - NONPARTISAN       6- Franklin                                            00 
00040010007000083000000000000000000000000000000000000000000000000000000000000000000000000000000000000NON       REGISTERED VOTERS - NONPARTISAN                         REGISTERED VOTERS - NONPARTISAN       7- Mumford                                             00 
00040010008000233000000000000000000000000000000000000000000000000000000000000000000000000000000000000NON       REGISTERED VOTERS - NONPARTISAN                         REGISTERED VOTERS - NONPARTISAN       8- Seale                                               00 
00040010009001125000000000000000000000000000000000000000000000000000000000000000000000000000000000000NON       REGISTERED VOTERS - NONPARTISAN                         REGISTERED VOTERS - NONPARTISAN       11- Benchley                                           00 
00040010010000198000000000000000000000000000000000000000000000000000000000000000000000000000000000000NON       REGISTERED VOTERS - NONPARTISAN                         REGISTERED VOTERS - NONPARTISAN       13- Elliott                                            00 
00040010011000160000000000000000000000000000000000000000000000000000000000000000000000000000000000000NON       REGISTERED VOTERS - NONPARTISAN                         REGISTERED VOTERS - NONPARTISAN       16- Easterly                                           00 
00040010012000103000000000000000000000000000000000000000000000000000000000000000000000000000000000000NON       REGISTERED VOTERS - NONPARTISAN                         REGISTERED VOTERS - NONPARTISAN       18- Ridge                                              00 
00040010013000554000000000000000000000000000000000000000000000000000000000000000000000000000000000000NON       REGISTERED VOTERS - NONPARTISAN                         REGISTERED VOTERS - NONPARTISAN       19- New Baden                                          00 
00040010014001266000000000000000000000000000000000000000000000000000000000000000000000000000000000000NON       REGISTERED VOTERS - NONPARTISAN                         REGISTERED VOTERS - NONPARTISAN       22- Teal Center                                        00 
00040010015000820000000000000000000000000000000000000000000000000000000000000000000000000000000000000NON       REGISTERED VOTERS - NONPARTISAN                         REGISTERED VOTERS - NONPARTISAN       23- Christian Faith                                    00 
00050010001000339000156000166000016000001000000000000000000000000000000000000000000000000000000000000          BALLOTS CAST - TOTAL                                    BALLOTS CAST - TOTAL                  1- Calvert                                             00 
00050010002000388000218000143000027000000000000000000000000000000000000000000000000000000000000000000          BALLOTS CAST - TOTAL                                    BALLOTS CAST - TOTAL                  2- Hearne                                              00 
00050010003000269000170000086000012000001000000000000000000000000000000000000000000000000000000000000          BALLOTS CAST - TOTAL                                    BALLOTS CAST - TOTAL                  3- Wheelock                                            00 
00050010004000212000075000123000014000000000000000000000000000000000000000000000000000000000000000000          BALLOTS CAST - TOTAL                                    BALLOTS CAST - TOTAL                  4- Bald Prairie                                        00 
00050010005000429000217000173000039000000000000000000000000000000000000000000000000000000000000000000          BALLOTS CAST - TOTAL                                    BALLOTS CAST - TOTAL                  5- Bremond                                             00 
00050010006000695000309000367000017000002000000000000000000000000000000000000000000000000000000000000          BALLOTS CAST - TOTAL                                    BALLOTS CAST - TOTAL                  6- Franklin                                            00 
00050010007000017000013000001000003000000000000000000000000000000000000000000000000000000000000000000          BALLOTS CAST - TOTAL                                    BALLOTS CAST - TOTAL                  7- Mumford                                             00 
00050010008000132000103000020000009000000000000000000000000000000000000000000000000000000000000000000          BALLOTS CAST - TOTAL                                    BALLOTS CAST - TOTAL                  8- Seale                                               00 
00050010009000364000254000092000018000000000000000000000000000000000000000000000000000000000000000000          BALLOTS CAST - TOTAL                                    BALLOTS CAST - TOTAL                  11- Benchley                                           00 
00050010010000078000027000048000003000000000000000000000000000000000000000000000000000000000000000000          BALLOTS CAST - TOTAL                                    BALLOTS CAST - TOTAL                  13- Elliott                                            00 
00050010011000080000049000028000003000000000000000000000000000000000000000000000000000000000000000000          BALLOTS CAST - TOTAL                                    BALLOTS CAST - TOTAL                  16- Easterly                                           00 
00050010012000048000029000019000000000000000000000000000000000000000000000000000000000000000000000000          BALLOTS CAST - TOTAL                                    BALLOTS CAST - TOTAL                  18- Ridge                                              00 
00050010013000293000112000168000013000000000000000000000000000000000000000000000000000000000000000000          BALLOTS CAST - TOTAL                                    BALLOTS CAST - TOTAL                  19- New Baden                                          00 
00050010014000260000137000076000047000000000000000000000000000000000000000000000000000000000000000000          BALLOTS CAST - TOTAL                                    BALLOTS CAST - TOTAL                  22- Teal Center                                        00 
00050010015000162000087000063000011000001000000000000000000000000000000000000000000000000000000000000          BALLOTS CAST - TOTAL                                    BALLOTS CAST - TOTAL                  23- Christian Faith                                    00 
00060010001000229000103000122000004000000000000000000000000000000000000000000000000000000000000000000REP       BALLOTS CAST - Republican Party                         BALLOTS CAST - Republican Party       1- Calvert                                             00 
00060010002000257000133000113000011000000000000000000000000000000000000000000000000000000000000000000REP       BALLOTS CAST - Republican Party                         BALLOTS CAST - Republican Party       2- Hearne                                              00 
00060010003000237000152000075000009000001000000000000000000000000000000000000000000000000000000000000REP       BALLOTS CAST - Republican Party                         BALLOTS CAST - Republican Party       3- Wheelock                                            00 
00060010004000185000062000117000006000000000000000000000000000000000000000000000000000000000000000000REP       BALLOTS CAST - Republican Party                         BALLOTS CAST - Republican Party       4- Bald Prairie                                        00 
00060010005000322000160000144000018000000000000000000000000000000000000000000000000000000000000000000REP       BALLOTS CAST - Republican Party                         BALLOTS CAST - Republican Party       5- Bremond                                             00 
00060010006000612000254000345000012000001000000000000000000000000000000000000000000000000000000000000REP       BALLOTS CAST - Republican Party                         BALLOTS CAST - Republican Party       6- Franklin                                            00 
00060010007000006000005000001000000000000000000000000000000000000000000000000000000000000000000000000REP       BALLOTS CAST - Republican Party                         BALLOTS CAST - Republican Party       7- Mumford                                             00 
00060010008000117000092000019000006000000000000000000000000000000000000000000000000000000000000000000REP       BALLOTS CAST - Republican Party                         BALLOTS CAST - Republican Party       8- Seale                                               00 
00060010009000277000190000074000013000000000000000000000000000000000000000000000000000000000000000000REP       BALLOTS CAST - Republican Party                         BALLOTS CAST - Republican Party       11- Benchley                                           00 
00060010010000072000026000044000002000000000000000000000000000000000000000000000000000000000000000000REP       BALLOTS CAST - Republican Party                         BALLOTS CAST - Republican Party       13- Elliott                                            00 
00060010011000076000047000026000003000000000000000000000000000000000000000000000000000000000000000000REP       BALLOTS CAST - Republican Party                         BALLOTS CAST - Republican Party       16- Easterly                                           00 
00060010012000044000026000018000000000000000000000000000000000000000000000000000000000000000000000000REP       BALLOTS CAST - Republican Party                         BALLOTS CAST - Republican Party       18- Ridge                                              00 
00060010013000264000093000162000009000000000000000000000000000000000000000000000000000000000000000000REP       BALLOTS CAST - Republican Party                         BALLOTS CAST - Republican Party       19- New Baden                                          00 
00060010014000044000016000026000002000000000000000000000000000000000000000000000000000000000000000000REP       BALLOTS CAST - Republican Party                         BALLOTS CAST - Republican Party       22- Teal Center                                        00 
00060010015000092000046000045000001000000000000000000000000000000000000000000000000000000000000000000REP       BALLOTS CAST - Republican Party                         BALLOTS CAST - Republican Party       23- Christian Faith                                    00 
00070010001000110000053000044000012000001000000000000000000000000000000000000000000000000000000000000DEM       BALLOTS CAST - Demoratic Party                          BALLOTS CAST - Demoratic Party        1- Calvert                                             00 
00070010002000131000085000030000016000000000000000000000000000000000000000000000000000000000000000000DEM       BALLOTS CAST - Demoratic Party                          BALLOTS CAST - Demoratic Party        2- Hearne                                              00 
00070010003000032000018000011000003000000000000000000000000000000000000000000000000000000000000000000DEM       BALLOTS CAST - Demoratic Party                          BALLOTS CAST - Demoratic Party        3- Wheelock                                            00 
00070010004000027000013000006000008000000000000000000000000000000000000000000000000000000000000000000DEM       BALLOTS CAST - Demoratic Party                          BALLOTS CAST - Demoratic Party        4- Bald Prairie                                        00 
00070010005000107000057000029000021000000000000000000000000000000000000000000000000000000000000000000DEM       BALLOTS CAST - Demoratic Party                          BALLOTS CAST - Demoratic Party        5- Bremond                                             00 
00070010006000083000055000022000005000001000000000000000000000000000000000000000000000000000000000000DEM       BALLOTS CAST - Demoratic Party                          BALLOTS CAST - Demoratic Party        6- Franklin                                            00 
00070010007000011000008000000000003000000000000000000000000000000000000000000000000000000000000000000DEM       BALLOTS CAST - Demoratic Party                          BALLOTS CAST - Demoratic Party        7- Mumford                                             00 
00070010008000015000011000001000003000000000000000000000000000000000000000000000000000000000000000000DEM       BALLOTS CAST - Demoratic Party                          BALLOTS CAST - Demoratic Party        8- Seale                                               00 
00070010009000087000064000018000005000000000000000000000000000000000000000000000000000000000000000000DEM       BALLOTS CAST - Demoratic Party                          BALLOTS CAST - Demoratic Party        11- Benchley                                           00 
00070010010000006000001000004000001000000000000000000000000000000000000000000000000000000000000000000DEM       BALLOTS CAST - Demoratic Party                          BALLOTS CAST - Demoratic Party        13- Elliott                                            00 
00070010011000004000002000002000000000000000000000000000000000000000000000000000000000000000000000000DEM       BALLOTS CAST - Demoratic Party                          BALLOTS CAST - Demoratic Party        16- Easterly                                           00 
00070010012000004000003000001000000000000000000000000000000000000000000000000000000000000000000000000DEM       BALLOTS CAST - Demoratic Party                          BALLOTS CAST - Demoratic Party        18- Ridge                                              00 
00070010013000029000019000006000004000000000000000000000000000000000000000000000000000000000000000000DEM       BALLOTS CAST - Demoratic Party                          BALLOTS CAST - Demoratic Party        19- New Baden                                          00 
00070010014000216000121000050000045000000000000000000000000000000000000000000000000000000000000000000DEM       BALLOTS CAST - Demoratic Party                          BALLOTS CAST - Demoratic Party        22- Teal Center                                        00 
00070010015000070000041000018000010000001000000000000000000000000000000000000000000000000000000000000DEM       BALLOTS CAST - Demoratic Party                          BALLOTS CAST - Demoratic Party        23- Christian Faith                                    00 
00080010001000000000000000000000000000000000000000000000000000000000000000000000000000000000000000000NON       BALLOTS CAST - NONPARTISAN                              BALLOTS CAST - NONPARTISAN            1- Calvert                                             00 
00080010002000000000000000000000000000000000000000000000000000000000000000000000000000000000000000000NON       BALLOTS CAST - NONPARTISAN                              BALLOTS CAST - NONPARTISAN            2- Hearne                                              00 
00080010003000000000000000000000000000000000000000000000000000000000000000000000000000000000000000000NON       BALLOTS CAST - NONPARTISAN                              BALLOTS CAST - NONPARTISAN            3- Wheelock                                            00 
00080010004000000000000000000000000000000000000000000000000000000000000000000000000000000000000000000NON       BALLOTS CAST - NONPARTISAN                              BALLOTS CAST - NONPARTISAN            4- Bald Prairie                                        00 
00080010005000000000000000000000000000000000000000000000000000000000000000000000000000000000000000000NON       BALLOTS CAST - NONPARTISAN                              BALLOTS CAST - NONPARTISAN            5- Bremond                                             00 
00080010006000000000000000000000000000000000000000000000000000000000000000000000000000000000000000000NON       BALLOTS CAST - NONPARTISAN                              BALLOTS CAST - NONPARTISAN            6- Franklin                                            00 
00080010007000000000000000000000000000000000000000000000000000000000000000000000000000000000000000000NON       BALLOTS CAST - NONPARTISAN                              BALLOTS CAST - NONPARTISAN            7- Mumford                                             00 
00080010008000000000000000000000000000000000000000000000000000000000000000000000000000000000000000000NON       BALLOTS CAST - NONPARTISAN                              BALLOTS CAST - NONPARTISAN            8- Seale                                               00 
00080010009000000000000000000000000000000000000000000000000000000000000000000000000000000000000000000NON       BALLOTS CAST - NONPARTISAN                              BALLOTS CAST - NONPARTISAN            11- Benchley                                           00 
00080010010000000000000000000000000000000000000000000000000000000000000000000000000000000000000000000NON       BALLOTS CAST - NONPARTISAN                              BALLOTS CAST - NONPARTISAN            13- Elliott                                            00 
00080010011000000000000000000000000000000000000000000000000000000000000000000000000000000000000000000NON       BALLOTS CAST - NONPARTISAN                              BALLOTS CAST - NONPARTISAN            16- Easterly                                           00 
00080010012000000000000000000000000000000000000000000000000000000000000000000000000000000000000000000NON       BALLOTS CAST - NONPARTISAN                              BALLOTS CAST - NONPARTISAN            18- Ridge                                              00 
00080010013000000000000000000000000000000000000000000000000000000000000000000000000000000000000000000NON       BALLOTS CAST - NONPARTISAN                              BALLOTS CAST - NONPARTISAN            19- New Baden                                          00 
00080010014000000000000000000000000000000000000000000000000000000000000000000000000000000000000000000NON       BALLOTS CAST - NONPARTISAN                              BALLOTS CAST - NONPARTISAN            22- Teal Center                                        00 
00080010015000000000000000000000000000000000000000000000000000000000000000000000000000000000000000000NON       BALLOTS CAST - NONPARTISAN                              BALLOTS CAST - NONPARTISAN            23- Christian Faith                                    00 
00090010001000000000000000000000000000000000000000000000000000000000000000000000000000000000000000000          BALLOTS CAST - BLANK                                    BALLOTS CAST - BLANK                  1- Calvert                                             00 
00090010002000000000000000000000000000000000000000000000000000000000000000000000000000000000000000000          BALLOTS CAST - BLANK                                    BALLOTS CAST - BLANK                  2- Hearne                                              00 
00090010003000000000000000000000000000000000000000000000000000000000000000000000000000000000000000000          BALLOTS CAST - BLANK                                    BALLOTS CAST - BLANK                  3- Wheelock                                            00 
00090010004000000000000000000000000000000000000000000000000000000000000000000000000000000000000000000          BALLOTS CAST - BLANK                                    BALLOTS CAST - BLANK                  4- Bald Prairie                                        00 
00090010005000000000000000000000000000000000000000000000000000000000000000000000000000000000000000000          BALLOTS CAST - BLANK                                    BALLOTS CAST - BLANK                  5- Bremond                                             00 
00090010006000001000000000000000001000000000000000000000000000000000000000000000000000000000000000000          BALLOTS CAST - BLANK                                    BALLOTS CAST - BLANK                  6- Franklin                                            00 
00090010007000000000000000000000000000000000000000000000000000000000000000000000000000000000000000000          BALLOTS CAST - BLANK                                    BALLOTS CAST - BLANK                  7- Mumford                                             00 
00090010008000000000000000000000000000000000000000000000000000000000000000000000000000000000000000000          BALLOTS CAST - BLANK                                    BALLOTS CAST - BLANK                  8- Seale                                               00 
00090010009000000000000000000000000000000000000000000000000000000000000000000000000000000000000000000          BALLOTS CAST - BLANK                                    BALLOTS CAST - BLANK                  11- Benchley                                           00 
00090010010000000000000000000000000000000000000000000000000000000000000000000000000000000000000000000          BALLOTS CAST - BLANK                                    BALLOTS CAST - BLANK                  13- Elliott                                            00 
00090010011000000000000000000000000000000000000000000000000000000000000000000000000000000000000000000          BALLOTS CAST - BLANK                                    BALLOTS CAST - BLANK                  16- Easterly                                           00 
00090010012000000000000000000000000000000000000000000000000000000000000000000000000000000000000000000          BALLOTS CAST - BLANK                                    BALLOTS CAST - BLANK                  18- Ridge                                              00 
00090010013000000000000000000000000000000000000000000000000000000000000000000000000000000000000000000          BALLOTS CAST - BLANK                                    BALLOTS CAST - BLANK                  19- New Baden                                          00 
00090010014000000000000000000000000000000000000000000000000000000000000000000000000000000000000000000          BALLOTS CAST - BLANK                                    BALLOTS CAST - BLANK                  22- Teal Center                                        00 
00090010015000000000000000000000000000000000000000000000000000000000000000000000000000000000000000000          BALLOTS CAST - BLANK                                    BALLOTS CAST - BLANK                  23- Christian Faith                                    00 
00100010001000001000000000001000000000000000000000000000000000000000000000000000000000000000000000000REP       REP President                                           Roque Rocky DeLa Fuente Guerra        1- Calvert                                             01 
00100010002000000000000000000000000000000000000000000000000000000000000000000000000000000000000000000REP       REP President                                           Roque Rocky DeLa Fuente Guerra        2- Hearne                                              01 
00100010003000001000000000001000000000000000000000000000000000000000000000000000000000000000000000000REP       REP President                                           Roque Rocky DeLa Fuente Guerra        3- Wheelock                                            01 
00100010004000001000000000001000000000000000000000000000000000000000000000000000000000000000000000000REP       REP President                                           Roque Rocky DeLa Fuente Guerra        4- Bald Prairie                                        01 
00100010005000000000000000000000000000000000000000000000000000000000000000000000000000000000000000000REP       REP President                                           Roque Rocky DeLa Fuente Guerra        5- Bremond                                             01 
00100010006000002000000000002000000000000000000000000000000000000000000000000000000000000000000000000REP       REP President                                           Roque Rocky DeLa Fuente Guerra        6- Franklin                                            01 
00100010007000000000000000000000000000000000000000000000000000000000000000000000000000000000000000000REP       REP President                                           Roque Rocky DeLa Fuente Guerra        7- Mumford                                             01 
00100010008000000000000000000000000000000000000000000000000000000000000000000000000000000000000000000REP       REP President                                           Roque Rocky DeLa Fuente Guerra        8- Seale                                               01 
00100010009000000000000000000000000000000000000000000000000000000000000000000000000000000000000000000REP       REP President                                           Roque Rocky DeLa Fuente Guerra        11- Benchley                                           01 
00100010010000000000000000000000000000000000000000000000000000000000000000000000000000000000000000000REP       REP President                                           Roque Rocky DeLa Fuente Guerra        13- Elliott                                            01 
00100010011000001000001000000000000000000000000000000000000000000000000000000000000000000000000000000REP       REP President                                           Roque Rocky DeLa Fuente Guerra        16- Easterly                                           01 
00100010012000000000000000000000000000000000000000000000000000000000000000000000000000000000000000000REP       REP President                                           Roque Rocky DeLa Fuente Guerra        18- Ridge                                              01 
00100010013000000000000000000000000000000000000000000000000000000000000000000000000000000000000000000REP       REP President                                           Roque Rocky DeLa Fuente Guerra        19- New Baden                                          01 
00100010014000000000000000000000000000000000000000000000000000000000000000000000000000000000000000000REP       REP President                                           Roque Rocky DeLa Fuente Guerra        22- Teal Center                                        01 
00100010015000000000000000000000000000000000000000000000000000000000000000000000000000000000000000000REP       REP President                                           Roque Rocky DeLa Fuente Guerra        23- Christian Faith                                    01 
00100020001000001000001000000000000000000000000000000000000000000000000000000000000000000000000000000REP       REP President                                           Bill Weld                             1- Calvert                                             01 
00100020002000001000000000001000000000000000000000000000000000000000000000000000000000000000000000000REP       REP President                                           Bill Weld                             2- Hearne                                              01 
00100020003000004000001000003000000000000000000000000000000000000000000000000000000000000000000000000REP       REP President                                           Bill Weld                             3- Wheelock                                            01 
00100020004000001000000000001000000000000000000000000000000000000000000000000000000000000000000000000REP       REP President                                           Bill Weld                             4- Bald Prairie                                        01 
00100020005000000000000000000000000000000000000000000000000000000000000000000000000000000000000000000REP       REP President                                           Bill Weld                             5- Bremond                                             01 
00100020006000003000002000001000000000000000000000000000000000000000000000000000000000000000000000000REP       REP President                                           Bill Weld                             6- Franklin                                            01 
00100020007000000000000000000000000000000000000000000000000000000000000000000000000000000000000000000REP       REP President                                           Bill Weld                             7- Mumford                                             01 
00100020008000000000000000000000000000000000000000000000000000000000000000000000000000000000000000000REP       REP President                                           Bill Weld                             8- Seale                                               01 
00100020009000001000001000000000000000000000000000000000000000000000000000000000000000000000000000000REP       REP President                                           Bill Weld                             11- Benchley                                           01 
00100020010000000000000000000000000000000000000000000000000000000000000000000000000000000000000000000REP       REP President                                           Bill Weld                             13- Elliott                                            01 
00100020011000001000000000001000000000000000000000000000000000000000000000000000000000000000000000000REP       REP President                                           Bill Weld                             16- Easterly                                           01 
00100020012000000000000000000000000000000000000000000000000000000000000000000000000000000000000000000REP       REP President                                           Bill Weld                             18- Ridge                                              01 
00100020013000003000000000002000001000000000000000000000000000000000000000000000000000000000000000000REP       REP President                                           Bill Weld                             19- New Baden                                          01 
00100020014000000000000000000000000000000000000000000000000000000000000000000000000000000000000000000REP       REP President                                           Bill Weld                             22- Teal Center                                        01 
00100020015000001000001000000000000000000000000000000000000000000000000000000000000000000000000000000REP       REP President                                           Bill Weld                             23- Christian Faith                                    01 
00100030001000001000000000001000000000000000000000000000000000000000000000000000000000000000000000000REP       REP President                                           Joe Walsh                             1- Calvert                                             01 
00100030002000000000000000000000000000000000000000000000000000000000000000000000000000000000000000000REP       REP President                                           Joe Walsh                             2- Hearne                                              01 
00100030003000002000001000001000000000000000000000000000000000000000000000000000000000000000000000000REP       REP President                                           Joe Walsh                             3- Wheelock                                            01 
00100030004000004000001000003000000000000000000000000000000000000000000000000000000000000000000000000REP       REP President                                           Joe Walsh                             4- Bald Prairie                                        01 
00100030005000000000000000000000000000000000000000000000000000000000000000000000000000000000000000000REP       REP President                                           Joe Walsh                             5- Bremond                                             01 
00100030006000008000001000007000000000000000000000000000000000000000000000000000000000000000000000000REP       REP President                                           Joe Walsh                             6- Franklin                                            01 
00100030007000000000000000000000000000000000000000000000000000000000000000000000000000000000000000000REP       REP President                                           Joe Walsh                             7- Mumford                                             01 
00100030008000002000002000000000000000000000000000000000000000000000000000000000000000000000000000000REP       REP President                                           Joe Walsh                             8- Seale                                               01 
00100030009000000000000000000000000000000000000000000000000000000000000000000000000000000000000000000REP       REP President                                           Joe Walsh                             11- Benchley                                           01 
00100030010000000000000000000000000000000000000000000000000000000000000000000000000000000000000000000REP       REP President                                           Joe Walsh                             13- Elliott                                            01 
00100030011000001000000000001000000000000000000000000000000000000000000000000000000000000000000000000REP       REP President                                           Joe Walsh                             16- Easterly                                           01 
00100030012000000000000000000000000000000000000000000000000000000000000000000000000000000000000000000REP       REP President                                           Joe Walsh                             18- Ridge                                              01 
00100030013000002000000000002000000000000000000000000000000000000000000000000000000000000000000000000REP       REP President                                           Joe Walsh                             19- New Baden                                          01 
00100030014000001000000000001000000000000000000000000000000000000000000000000000000000000000000000000REP       REP President                                           Joe Walsh                             22- Teal Center                                        01 
00100030015000000000000000000000000000000000000000000000000000000000000000000000000000000000000000000REP       REP President                                           Joe Walsh                             23- Christian Faith                                    01 
00100040001000000000000000000000000000000000000000000000000000000000000000000000000000000000000000000REP       REP President                                           Bob Ely                               1- Calvert                                             01 
00100040002000000000000000000000000000000000000000000000000000000000000000000000000000000000000000000REP       REP President                                           Bob Ely                               2- Hearne                                              01 
00100040003000000000000000000000000000000000000000000000000000000000000000000000000000000000000000000REP       REP President                                           Bob Ely                               3- Wheelock                                            01 
00100040004000000000000000000000000000000000000000000000000000000000000000000000000000000000000000000REP       REP President                                           Bob Ely                               4- Bald Prairie                                        01 
00100040005000001000001000000000000000000000000000000000000000000000000000000000000000000000000000000REP       REP President                                           Bob Ely                               5- Bremond                                             01 
00100040006000001000000000001000000000000000000000000000000000000000000000000000000000000000000000000REP       REP President                                           Bob Ely                               6- Franklin                                            01 
00100040007000000000000000000000000000000000000000000000000000000000000000000000000000000000000000000REP       REP President                                           Bob Ely                               7- Mumford                                             01 
00100040008000000000000000000000000000000000000000000000000000000000000000000000000000000000000000000REP       REP President                                           Bob Ely                               8- Seale                                               01 
00100040009000001000001000000000000000000000000000000000000000000000000000000000000000000000000000000REP       REP President                                           Bob Ely                               11- Benchley                                           01 
00100040010000000000000000000000000000000000000000000000000000000000000000000000000000000000000000000REP       REP President                                           Bob Ely                               13- Elliott                                            01 
00100040011000000000000000000000000000000000000000000000000000000000000000000000000000000000000000000REP       REP President                                           Bob Ely                               16- Easterly                                           01 
00100040012000000000000000000000000000000000000000000000000000000000000000000000000000000000000000000REP       REP President                                           Bob Ely                               18- Ridge                                              01 
00100040013000001000000000001000000000000000000000000000000000000000000000000000000000000000000000000REP       REP President                                           Bob Ely                               19- New Baden                                          01 
00100040014000000000000000000000000000000000000000000000000000000000000000000000000000000000000000000REP       REP President                                           Bob Ely                               22- Teal Center                                        01 
00100040015000000000000000000000000000000000000000000000000000000000000000000000000000000000000000000REP       REP President                                           Bob Ely                               23- Christian Faith                                    01 
00100050001000220000098000118000004000000000000000000000000000000000000000000000000000000000000000000REP       REP President                                           Donald J. Trump                       1- Calvert                                             01 
00100050002000252000132000109000011000000000000000000000000000000000000000000000000000000000000000000REP       REP President                                           Donald J. Trump                       2- Hearne                                              01 
00100050003000219000146000064000008000001000000000000000000000000000000000000000000000000000000000000REP       REP President                                           Donald J. Trump                       3- Wheelock                                            01 
00100050004000176000060000110000006000000000000000000000000000000000000000000000000000000000000000000REP       REP President                                           Donald J. Trump                       4- Bald Prairie                                        01 
00100050005000319000157000144000018000000000000000000000000000000000000000000000000000000000000000000REP       REP President                                           Donald J. Trump                       5- Bremond                                             01 
00100050006000564000240000312000011000001000000000000000000000000000000000000000000000000000000000000REP       REP President                                           Donald J. Trump                       6- Franklin                                            01 
00100050007000006000005000001000000000000000000000000000000000000000000000000000000000000000000000000REP       REP President                                           Donald J. Trump                       7- Mumford                                             01 
00100050008000113000088000019000006000000000000000000000000000000000000000000000000000000000000000000REP       REP President                                           Donald J. Trump                       8- Seale                                               01 
00100050009000273000186000074000013000000000000000000000000000000000000000000000000000000000000000000REP       REP President                                           Donald J. Trump                       11- Benchley                                           01 
00100050010000071000025000044000002000000000000000000000000000000000000000000000000000000000000000000REP       REP President                                           Donald J. Trump                       13- Elliott                                            01 
00100050011000071000046000022000003000000000000000000000000000000000000000000000000000000000000000000REP       REP President                                           Donald J. Trump                       16- Easterly                                           01 
00100050012000039000021000018000000000000000000000000000000000000000000000000000000000000000000000000REP       REP President                                           Donald J. Trump                       18- Ridge                                              01 
00100050013000248000091000150000007000000000000000000000000000000000000000000000000000000000000000000REP       REP President                                           Donald J. Trump                       19- New Baden                                          01 
00100050014000043000016000025000002000000000000000000000000000000000000000000000000000000000000000000REP       REP President                                           Donald J. Trump                       22- Teal Center                                        01 
00100050015000090000045000044000001000000000000000000000000000000000000000000000000000000000000000000REP       REP President                                           Donald J. Trump                       23- Christian Faith                                    01 
00100060001000000000000000000000000000000000000000000000000000000000000000000000000000000000000000000REP       REP President                                           Zoltan G. Istvan                      1- Calvert                                             01 
00100060002000000000000000000000000000000000000000000000000000000000000000000000000000000000000000000REP       REP President                                           Zoltan G. Istvan                      2- Hearne                                              01 
00100060003000002000000000002000000000000000000000000000000000000000000000000000000000000000000000000REP       REP President                                           Zoltan G. Istvan                      3- Wheelock                                            01 
00100060004000000000000000000000000000000000000000000000000000000000000000000000000000000000000000000REP       REP President                                           Zoltan G. Istvan                      4- Bald Prairie                                        01 
00100060005000000000000000000000000000000000000000000000000000000000000000000000000000000000000000000REP       REP President                                           Zoltan G. Istvan                      5- Bremond                                             01 
00100060006000000000000000000000000000000000000000000000000000000000000000000000000000000000000000000REP       REP President                                           Zoltan G. Istvan                      6- Franklin                                            01 
00100060007000000000000000000000000000000000000000000000000000000000000000000000000000000000000000000REP       REP President                                           Zoltan G. Istvan                      7- Mumford                                             01 
00100060008000000000000000000000000000000000000000000000000000000000000000000000000000000000000000000REP       REP President                                           Zoltan G. Istvan                      8- Seale                                               01 
00100060009000000000000000000000000000000000000000000000000000000000000000000000000000000000000000000REP       REP President                                           Zoltan G. Istvan                      11- Benchley                                           01 
00100060010000000000000000000000000000000000000000000000000000000000000000000000000000000000000000000REP       REP President                                           Zoltan G. Istvan                      13- Elliott                                            01 
00100060011000000000000000000000000000000000000000000000000000000000000000000000000000000000000000000REP       REP President                                           Zoltan G. Istvan                      16- Easterly                                           01 
00100060012000000000000000000000000000000000000000000000000000000000000000000000000000000000000000000REP       REP President                                           Zoltan G. Istvan                      18- Ridge                                              01 
00100060013000000000000000000000000000000000000000000000000000000000000000000000000000000000000000000REP       REP President                                           Zoltan G. Istvan                      19- New Baden                                          01 
00100060014000000000000000000000000000000000000000000000000000000000000000000000000000000000000000000REP       REP President                                           Zoltan G. Istvan                      22- Teal Center                                        01 
00100060015000000000000000000000000000000000000000000000000000000000000000000000000000000000000000000REP       REP President                                           Zoltan G. Istvan                      23- Christian Faith                                    01 
00100070001000000000000000000000000000000000000000000000000000000000000000000000000000000000000000000REP       REP President                                           Matthew John Matern                   1- Calvert                                             01 
00100070002000000000000000000000000000000000000000000000000000000000000000000000000000000000000000000REP       REP President                                           Matthew John Matern                   2- Hearne                                              01 
00100070003000000000000000000000000000000000000000000000000000000000000000000000000000000000000000000REP       REP President                                           Matthew John Matern                   3- Wheelock                                            01 
00100070004000000000000000000000000000000000000000000000000000000000000000000000000000000000000000000REP       REP President                                           Matthew John Matern                   4- Bald Prairie                                        01 
00100070005000001000001000000000000000000000000000000000000000000000000000000000000000000000000000000REP       REP President                                           Matthew John Matern                   5- Bremond                                             01 
00100070006000001000000000001000000000000000000000000000000000000000000000000000000000000000000000000REP       REP President                                           Matthew John Matern                   6- Franklin                                            01 
00100070007000000000000000000000000000000000000000000000000000000000000000000000000000000000000000000REP       REP President                                           Matthew John Matern                   7- Mumford                                             01 
00100070008000000000000000000000000000000000000000000000000000000000000000000000000000000000000000000REP       REP President                                           Matthew John Matern                   8- Seale                                               01 
00100070009000000000000000000000000000000000000000000000000000000000000000000000000000000000000000000REP       REP President                                           Matthew John Matern                   11- Benchley                                           01 
00100070010000000000000000000000000000000000000000000000000000000000000000000000000000000000000000000REP       REP President                                           Matthew John Matern                   13- Elliott                                            01 
00100070011000000000000000000000000000000000000000000000000000000000000000000000000000000000000000000REP       REP President                                           Matthew John Matern                   16- Easterly                                           01 
00100070012000000000000000000000000000000000000000000000000000000000000000000000000000000000000000000REP       REP President                                           Matthew John Matern                   18- Ridge                                              01 
00100070013000000000000000000000000000000000000000000000000000000000000000000000000000000000000000000REP       REP President                                           Matthew John Matern                   19- New Baden                                          01 
00100070014000000000000000000000000000000000000000000000000000000000000000000000000000000000000000000REP       REP President                                           Matthew John Matern                   22- Teal Center                                        01 
00100070015000000000000000000000000000000000000000000000000000000000000000000000000000000000000000000REP       REP President                                           Matthew John Matern                   23- Christian Faith                                    01 
00100080001000004000002000002000000000000000000000000000000000000000000000000000000000000000000000000REP       REP President                                           Uncommitted                           1- Calvert                                             01 
00100080002000003000001000002000000000000000000000000000000000000000000000000000000000000000000000000REP       REP President                                           Uncommitted                           2- Hearne                                              01 
00100080003000008000004000003000001000000000000000000000000000000000000000000000000000000000000000000REP       REP President                                           Uncommitted                           3- Wheelock                                            01 
00100080004000003000001000002000000000000000000000000000000000000000000000000000000000000000000000000REP       REP President                                           Uncommitted                           4- Bald Prairie                                        01 
00100080005000000000000000000000000000000000000000000000000000000000000000000000000000000000000000000REP       REP President                                           Uncommitted                           5- Bremond                                             01 
00100080006000018000006000012000000000000000000000000000000000000000000000000000000000000000000000000REP       REP President                                           Uncommitted                           6- Franklin                                            01 
00100080007000000000000000000000000000000000000000000000000000000000000000000000000000000000000000000REP       REP President                                           Uncommitted                           7- Mumford                                             01 
00100080008000001000001000000000000000000000000000000000000000000000000000000000000000000000000000000REP       REP President                                           Uncommitted                           8- Seale                                               01 
00100080009000002000002000000000000000000000000000000000000000000000000000000000000000000000000000000REP       REP President                                           Uncommitted                           11- Benchley                                           01 
00100080010000001000001000000000000000000000000000000000000000000000000000000000000000000000000000000REP       REP President                                           Uncommitted                           13- Elliott                                            01 
00100080011000001000000000001000000000000000000000000000000000000000000000000000000000000000000000000REP       REP President                                           Uncommitted                           16- Easterly                                           01 
00100080012000001000001000000000000000000000000000000000000000000000000000000000000000000000000000000REP       REP President                                           Uncommitted                           18- Ridge                                              01 
00100080013000007000001000005000001000000000000000000000000000000000000000000000000000000000000000000REP       REP President                                           Uncommitted                           19- New Baden                                          01 
00100080014000000000000000000000000000000000000000000000000000000000000000000000000000000000000000000REP       REP President                                           Uncommitted                           22- Teal Center                                        01 
00100080015000001000000000001000000000000000000000000000000000000000000000000000000000000000000000000REP       REP President                                           Uncommitted                           23- Christian Faith                                    01 
00100090001000000000000000000000000000000000000000000000000000000000000000000000000000000000000000000          REP President                                           OVER VOTES                            1- Calvert                                             01 
00100090002000000000000000000000000000000000000000000000000000000000000000000000000000000000000000000          REP President                                           OVER VOTES                            2- Hearne                                              01 
00100090003000000000000000000000000000000000000000000000000000000000000000000000000000000000000000000          REP President                                           OVER VOTES                            3- Wheelock                                            01 
00100090004000000000000000000000000000000000000000000000000000000000000000000000000000000000000000000          REP President                                           OVER VOTES                            4- Bald Prairie                                        01 
00100090005000000000000000000000000000000000000000000000000000000000000000000000000000000000000000000          REP President                                           OVER VOTES                            5- Bremond                                             01 
00100090006000000000000000000000000000000000000000000000000000000000000000000000000000000000000000000          REP President                                           OVER VOTES                            6- Franklin                                            01 
00100090007000000000000000000000000000000000000000000000000000000000000000000000000000000000000000000          REP President                                           OVER VOTES                            7- Mumford                                             01 
00100090008000001000001000000000000000000000000000000000000000000000000000000000000000000000000000000          REP President                                           OVER VOTES                            8- Seale                                               01 
00100090009000000000000000000000000000000000000000000000000000000000000000000000000000000000000000000          REP President                                           OVER VOTES                            11- Benchley                                           01 
00100090010000000000000000000000000000000000000000000000000000000000000000000000000000000000000000000          REP President                                           OVER VOTES                            13- Elliott                                            01 
00100090011000000000000000000000000000000000000000000000000000000000000000000000000000000000000000000          REP President                                           OVER VOTES                            16- Easterly                                           01 
00100090012000000000000000000000000000000000000000000000000000000000000000000000000000000000000000000          REP President                                           OVER VOTES                            18- Ridge                                              01 
00100090013000000000000000000000000000000000000000000000000000000000000000000000000000000000000000000          REP President                                           OVER VOTES                            19- New Baden                                          01 
00100090014000000000000000000000000000000000000000000000000000000000000000000000000000000000000000000          REP President                                           OVER VOTES                            22- Teal Center                                        01 
00100090015000000000000000000000000000000000000000000000000000000000000000000000000000000000000000000          REP President                                           OVER VOTES                            23- Christian Faith                                    01 
00100100001000002000002000000000000000000000000000000000000000000000000000000000000000000000000000000          REP President                                           UNDER VOTES                           1- Calvert                                             01 
00100100002000001000000000001000000000000000000000000000000000000000000000000000000000000000000000000          REP President                                           UNDER VOTES                           2- Hearne                                              01 
00100100003000001000000000001000000000000000000000000000000000000000000000000000000000000000000000000          REP President                                           UNDER VOTES                           3- Wheelock                                            01 
00100100004000000000000000000000000000000000000000000000000000000000000000000000000000000000000000000          REP President                                           UNDER VOTES                           4- Bald Prairie                                        01 
00100100005000001000001000000000000000000000000000000000000000000000000000000000000000000000000000000          REP President                                           UNDER VOTES                           5- Bremond                                             01 
00100100006000015000005000009000001000000000000000000000000000000000000000000000000000000000000000000          REP President                                           UNDER VOTES                           6- Franklin                                            01 
00100100007000000000000000000000000000000000000000000000000000000000000000000000000000000000000000000          REP President                                           UNDER VOTES                           7- Mumford                                             01 
00100100008000000000000000000000000000000000000000000000000000000000000000000000000000000000000000000          REP President                                           UNDER VOTES                           8- Seale                                               01 
00100100009000000000000000000000000000000000000000000000000000000000000000000000000000000000000000000          REP President                                           UNDER VOTES                           11- Benchley                                           01 
00100100010000000000000000000000000000000000000000000000000000000000000000000000000000000000000000000          REP President                                           UNDER VOTES                           13- Elliott                                            01 
00100100011000001000000000001000000000000000000000000000000000000000000000000000000000000000000000000          REP President                                           UNDER VOTES                           16- Easterly                                           01 
00100100012000004000004000000000000000000000000000000000000000000000000000000000000000000000000000000          REP President                                           UNDER VOTES                           18- Ridge                                              01 
00100100013000003000001000002000000000000000000000000000000000000000000000000000000000000000000000000          REP President                                           UNDER VOTES                           19- New Baden                                          01 
00100100014000000000000000000000000000000000000000000000000000000000000000000000000000000000000000000          REP President                                           UNDER VOTES                           22- Teal Center                                        01 
00100100015000000000000000000000000000000000000000000000000000000000000000000000000000000000000000000          REP President                                           UNDER VOTES                           23- Christian Faith                                    01 
00110010001000002000000000002000000000000000000000000000000000000000000000000000000000000000000000000REP       REP US Senator                                          Virgil Bierschwale                    1- Calvert                                             01 
00110010002000000000000000000000000000000000000000000000000000000000000000000000000000000000000000000REP       REP US Senator                                          Virgil Bierschwale                    2- Hearne                                              01 
00110010003000001000000000001000000000000000000000000000000000000000000000000000000000000000000000000REP       REP US Senator                                          Virgil Bierschwale                    3- Wheelock                                            01 
00110010004000001000001000000000000000000000000000000000000000000000000000000000000000000000000000000REP       REP US Senator                                          Virgil Bierschwale                    4- Bald Prairie                                        01 
00110010005000002000002000000000000000000000000000000000000000000000000000000000000000000000000000000REP       REP US Senator                                          Virgil Bierschwale                    5- Bremond                                             01 
00110010006000008000003000005000000000000000000000000000000000000000000000000000000000000000000000000REP       REP US Senator                                          Virgil Bierschwale                    6- Franklin                                            01 
00110010007000000000000000000000000000000000000000000000000000000000000000000000000000000000000000000REP       REP US Senator                                          Virgil Bierschwale                    7- Mumford                                             01 
00110010008000000000000000000000000000000000000000000000000000000000000000000000000000000000000000000REP       REP US Senator                                          Virgil Bierschwale                    8- Seale                                               01 
00110010009000002000001000001000000000000000000000000000000000000000000000000000000000000000000000000REP       REP US Senator                                          Virgil Bierschwale                    11- Benchley                                           01 
00110010010000001000000000001000000000000000000000000000000000000000000000000000000000000000000000000REP       REP US Senator                                          Virgil Bierschwale                    13- Elliott                                            01 
00110010011000001000001000000000000000000000000000000000000000000000000000000000000000000000000000000REP       REP US Senator                                          Virgil Bierschwale                    16- Easterly                                           01 
00110010012000004000003000001000000000000000000000000000000000000000000000000000000000000000000000000REP       REP US Senator                                          Virgil Bierschwale                    18- Ridge                                              01 
00110010013000003000002000001000000000000000000000000000000000000000000000000000000000000000000000000REP       REP US Senator                                          Virgil Bierschwale                    19- New Baden                                          01 
00110010014000000000000000000000000000000000000000000000000000000000000000000000000000000000000000000REP       REP US Senator                                          Virgil Bierschwale                    22- Teal Center                                        01 
00110010015000003000001000002000000000000000000000000000000000000000000000000000000000000000000000000REP       REP US Senator                                          Virgil Bierschwale                    23- Christian Faith                                    01 
00110020001000018000016000002000000000000000000000000000000000000000000000000000000000000000000000000REP       REP US Senator                                          Mark Yancey                           1- Calvert                                             01 
00110020002000016000010000004000002000000000000000000000000000000000000000000000000000000000000000000REP       REP US Senator                                          Mark Yancey                           2- Hearne                                              01 
00110020003000013000010000003000000000000000000000000000000000000000000000000000000000000000000000000REP       REP US Senator                                          Mark Yancey                           3- Wheelock                                            01 
00110020004000016000004000010000002000000000000000000000000000000000000000000000000000000000000000000REP       REP US Senator                                          Mark Yancey                           4- Bald Prairie                                        01 
00110020005000027000013000013000001000000000000000000000000000000000000000000000000000000000000000000REP       REP US Senator                                          Mark Yancey                           5- Bremond                                             01 
00110020006000057000028000029000000000000000000000000000000000000000000000000000000000000000000000000REP       REP US Senator                                          Mark Yancey                           6- Franklin                                            01 
00110020007000000000000000000000000000000000000000000000000000000000000000000000000000000000000000000REP       REP US Senator                                          Mark Yancey                           7- Mumford                                             01 
00110020008000009000009000000000000000000000000000000000000000000000000000000000000000000000000000000REP       REP US Senator                                          Mark Yancey                           8- Seale                                               01 
00110020009000014000011000003000000000000000000000000000000000000000000000000000000000000000000000000REP       REP US Senator                                          Mark Yancey                           11- Benchley                                           01 
00110020010000009000003000006000000000000000000000000000000000000000000000000000000000000000000000000REP       REP US Senator                                          Mark Yancey                           13- Elliott                                            01 
00110020011000011000008000003000000000000000000000000000000000000000000000000000000000000000000000000REP       REP US Senator                                          Mark Yancey                           16- Easterly                                           01 
00110020012000003000002000001000000000000000000000000000000000000000000000000000000000000000000000000REP       REP US Senator                                          Mark Yancey                           18- Ridge                                              01 
00110020013000024000011000013000000000000000000000000000000000000000000000000000000000000000000000000REP       REP US Senator                                          Mark Yancey                           19- New Baden                                          01 
00110020014000005000002000003000000000000000000000000000000000000000000000000000000000000000000000000REP       REP US Senator                                          Mark Yancey                           22- Teal Center                                        01 
00110020015000003000002000001000000000000000000000000000000000000000000000000000000000000000000000000REP       REP US Senator                                          Mark Yancey                           23- Christian Faith                                    01 
00110030001000024000009000015000000000000000000000000000000000000000000000000000000000000000000000000REP       REP US Senator                                          Dwayne Stovall                        1- Calvert                                             01 
00110030002000025000017000008000000000000000000000000000000000000000000000000000000000000000000000000REP       REP US Senator                                          Dwayne Stovall                        2- Hearne                                              01 
00110030003000035000025000010000000000000000000000000000000000000000000000000000000000000000000000000REP       REP US Senator                                          Dwayne Stovall                        3- Wheelock                                            01 
00110030004000017000009000008000000000000000000000000000000000000000000000000000000000000000000000000REP       REP US Senator                                          Dwayne Stovall                        4- Bald Prairie                                        01 
00110030005000030000018000012000000000000000000000000000000000000000000000000000000000000000000000000REP       REP US Senator                                          Dwayne Stovall                        5- Bremond                                             01 
00110030006000068000033000035000000000000000000000000000000000000000000000000000000000000000000000000REP       REP US Senator                                          Dwayne Stovall                        6- Franklin                                            01 
00110030007000000000000000000000000000000000000000000000000000000000000000000000000000000000000000000REP       REP US Senator                                          Dwayne Stovall                        7- Mumford                                             01 
00110030008000010000005000005000000000000000000000000000000000000000000000000000000000000000000000000REP       REP US Senator                                          Dwayne Stovall                        8- Seale                                               01 
00110030009000047000035000012000000000000000000000000000000000000000000000000000000000000000000000000REP       REP US Senator                                          Dwayne Stovall                        11- Benchley                                           01 
00110030010000008000003000005000000000000000000000000000000000000000000000000000000000000000000000000REP       REP US Senator                                          Dwayne Stovall                        13- Elliott                                            01 
00110030011000013000007000006000000000000000000000000000000000000000000000000000000000000000000000000REP       REP US Senator                                          Dwayne Stovall                        16- Easterly                                           01 
00110030012000003000000000003000000000000000000000000000000000000000000000000000000000000000000000000REP       REP US Senator                                          Dwayne Stovall                        18- Ridge                                              01 
00110030013000030000011000019000000000000000000000000000000000000000000000000000000000000000000000000REP       REP US Senator                                          Dwayne Stovall                        19- New Baden                                          01 
00110030014000006000003000003000000000000000000000000000000000000000000000000000000000000000000000000REP       REP US Senator                                          Dwayne Stovall                        22- Teal Center                                        01 
00110030015000013000007000006000000000000000000000000000000000000000000000000000000000000000000000000REP       REP US Senator                                          Dwayne Stovall                        23- Christian Faith                                    01 
00110040001000163000067000092000004000000000000000000000000000000000000000000000000000000000000000000REP       REP US Senator                                          John Cornyn                           1- Calvert                                             01 
00110040002000194000092000094000008000000000000000000000000000000000000000000000000000000000000000000REP       REP US Senator                                          John Cornyn                           2- Hearne                                              01 
00110040003000160000105000047000008000000000000000000000000000000000000000000000000000000000000000000REP       REP US Senator                                          John Cornyn                           3- Wheelock                                            01 
00110040004000137000043000090000004000000000000000000000000000000000000000000000000000000000000000000REP       REP US Senator                                          John Cornyn                           4- Bald Prairie                                        01 
00110040005000234000106000111000017000000000000000000000000000000000000000000000000000000000000000000REP       REP US Senator                                          John Cornyn                           5- Bremond                                             01 
00110040006000399000154000235000009000001000000000000000000000000000000000000000000000000000000000000REP       REP US Senator                                          John Cornyn                           6- Franklin                                            01 
00110040007000006000005000001000000000000000000000000000000000000000000000000000000000000000000000000REP       REP US Senator                                          John Cornyn                           7- Mumford                                             01 
00110040008000094000075000013000006000000000000000000000000000000000000000000000000000000000000000000REP       REP US Senator                                          John Cornyn                           8- Seale                                               01 
00110040009000199000133000054000012000000000000000000000000000000000000000000000000000000000000000000REP       REP US Senator                                          John Cornyn                           11- Benchley                                           01 
00110040010000049000016000031000002000000000000000000000000000000000000000000000000000000000000000000REP       REP US Senator                                          John Cornyn                           13- Elliott                                            01 
00110040011000043000024000016000003000000000000000000000000000000000000000000000000000000000000000000REP       REP US Senator                                          John Cornyn                           16- Easterly                                           01 
00110040012000030000017000013000000000000000000000000000000000000000000000000000000000000000000000000REP       REP US Senator                                          John Cornyn                           18- Ridge                                              01 
00110040013000179000056000116000007000000000000000000000000000000000000000000000000000000000000000000REP       REP US Senator                                          John Cornyn                           19- New Baden                                          01 
00110040014000027000006000019000002000000000000000000000000000000000000000000000000000000000000000000REP       REP US Senator                                          John Cornyn                           22- Teal Center                                        01 
00110040015000064000029000034000001000000000000000000000000000000000000000000000000000000000000000000REP       REP US Senator                                          John Cornyn                           23- Christian Faith                                    01 
00110050001000007000005000002000000000000000000000000000000000000000000000000000000000000000000000000REP       REP US Senator                                          John Anthony Castro                   1- Calvert                                             01 
00110050002000006000005000000000001000000000000000000000000000000000000000000000000000000000000000000REP       REP US Senator                                          John Anthony Castro                   2- Hearne                                              01 
00110050003000008000001000006000001000000000000000000000000000000000000000000000000000000000000000000REP       REP US Senator                                          John Anthony Castro                   3- Wheelock                                            01 
00110050004000004000003000001000000000000000000000000000000000000000000000000000000000000000000000000REP       REP US Senator                                          John Anthony Castro                   4- Bald Prairie                                        01 
00110050005000004000003000001000000000000000000000000000000000000000000000000000000000000000000000000REP       REP US Senator                                          John Anthony Castro                   5- Bremond                                             01 
00110050006000023000008000015000000000000000000000000000000000000000000000000000000000000000000000000REP       REP US Senator                                          John Anthony Castro                   6- Franklin                                            01 
00110050007000000000000000000000000000000000000000000000000000000000000000000000000000000000000000000REP       REP US Senator                                          John Anthony Castro                   7- Mumford                                             01 
00110050008000001000001000000000000000000000000000000000000000000000000000000000000000000000000000000REP       REP US Senator                                          John Anthony Castro                   8- Seale                                               01 
00110050009000003000002000001000000000000000000000000000000000000000000000000000000000000000000000000REP       REP US Senator                                          John Anthony Castro                   11- Benchley                                           01 
00110050010000002000001000001000000000000000000000000000000000000000000000000000000000000000000000000REP       REP US Senator                                          John Anthony Castro                   13- Elliott                                            01 
00110050011000001000001000000000000000000000000000000000000000000000000000000000000000000000000000000REP       REP US Senator                                          John Anthony Castro                   16- Easterly                                           01 
00110050012000000000000000000000000000000000000000000000000000000000000000000000000000000000000000000REP       REP US Senator                                          John Anthony Castro                   18- Ridge                                              01 
00110050013000008000003000004000001000000000000000000000000000000000000000000000000000000000000000000REP       REP US Senator                                          John Anthony Castro                   19- New Baden                                          01 
00110050014000002000002000000000000000000000000000000000000000000000000000000000000000000000000000000REP       REP US Senator                                          John Anthony Castro                   22- Teal Center                                        01 
00110050015000002000001000001000000000000000000000000000000000000000000000000000000000000000000000000REP       REP US Senator                                          John Anthony Castro                   23- Christian Faith                                    01 
00110060001000000000000000000000000000000000000000000000000000000000000000000000000000000000000000000          REP US Senator                                          OVER VOTES                            1- Calvert                                             01 
00110060002000000000000000000000000000000000000000000000000000000000000000000000000000000000000000000          REP US Senator                                          OVER VOTES                            2- Hearne                                              01 
00110060003000000000000000000000000000000000000000000000000000000000000000000000000000000000000000000          REP US Senator                                          OVER VOTES                            3- Wheelock                                            01 
00110060004000000000000000000000000000000000000000000000000000000000000000000000000000000000000000000          REP US Senator                                          OVER VOTES                            4- Bald Prairie                                        01 
00110060005000000000000000000000000000000000000000000000000000000000000000000000000000000000000000000          REP US Senator                                          OVER VOTES                            5- Bremond                                             01 
00110060006000000000000000000000000000000000000000000000000000000000000000000000000000000000000000000          REP US Senator                                          OVER VOTES                            6- Franklin                                            01 
00110060007000000000000000000000000000000000000000000000000000000000000000000000000000000000000000000          REP US Senator                                          OVER VOTES                            7- Mumford                                             01 
00110060008000000000000000000000000000000000000000000000000000000000000000000000000000000000000000000          REP US Senator                                          OVER VOTES                            8- Seale                                               01 
00110060009000000000000000000000000000000000000000000000000000000000000000000000000000000000000000000          REP US Senator                                          OVER VOTES                            11- Benchley                                           01 
00110060010000000000000000000000000000000000000000000000000000000000000000000000000000000000000000000          REP US Senator                                          OVER VOTES                            13- Elliott                                            01 
00110060011000000000000000000000000000000000000000000000000000000000000000000000000000000000000000000          REP US Senator                                          OVER VOTES                            16- Easterly                                           01 
00110060012000000000000000000000000000000000000000000000000000000000000000000000000000000000000000000          REP US Senator                                          OVER VOTES                            18- Ridge                                              01 
00110060013000000000000000000000000000000000000000000000000000000000000000000000000000000000000000000          REP US Senator                                          OVER VOTES                            19- New Baden                                          01 
00110060014000000000000000000000000000000000000000000000000000000000000000000000000000000000000000000          REP US Senator                                          OVER VOTES                            22- Teal Center                                        01 
00110060015000000000000000000000000000000000000000000000000000000000000000000000000000000000000000000          REP US Senator                                          OVER VOTES                            23- Christian Faith                                    01 
00110070001000015000006000009000000000000000000000000000000000000000000000000000000000000000000000000          REP US Senator                                          UNDER VOTES                           1- Calvert                                             01 
00110070002000016000009000007000000000000000000000000000000000000000000000000000000000000000000000000          REP US Senator                                          UNDER VOTES                           2- Hearne                                              01 
