01010010001000093000000000000000000000000000000          REGISTERED VOTERS - TOTAL                               REGISTERED VOTERS - TOTAL             Precinct 5                                             00 
01010010002000278000000000000000000000000000000          REGISTERED VOTERS - TOTAL                               REGISTERED VOTERS - TOTAL             Precinct 6                                             00 
01010010003002164000000000000000000000000000000          REGISTERED VOTERS - TOTAL                               REGISTERED VOTERS - TOTAL             Precinct 7                                             00 
01010010004000917000000000000000000000000000000          REGISTERED VOTERS - TOTAL                               REGISTERED VOTERS - TOTAL             Precinct 8                                             00 
01010010005000491000000000000000000000000000000          REGISTERED VOTERS - TOTAL                               REGISTERED VOTERS - TOTAL             Precinct 9                                             00 
01010010006001183000000000000000000000000000000          REGISTERED VOTERS - TOTAL                               REGISTERED VOTERS - TOTAL             Precinct 10                                            00 
01010010007000142000000000000000000000000000000          REGISTERED VOTERS - TOTAL                               REGISTERED VOTERS - TOTAL             Precinct 11                                            00 
01010010008001510000000000000000000000000000000          REGISTERED VOTERS - TOTAL                               REGISTERED VOTERS - TOTAL             Precinct 12                                            00 
01010010009000469000000000000000000000000000000          REGISTERED VOTERS - TOTAL                               REGISTERED VOTERS - TOTAL             Precinct 13                                            00 
01010010010000119000000000000000000000000000000          REGISTERED VOTERS - TOTAL                               REGISTERED VOTERS - TOTAL             Precinct 14                                            00 
01010010011001953000000000000000000000000000000          REGISTERED VOTERS - TOTAL                               REGISTERED VOTERS - TOTAL             Precinct 15                                            00 
01020010001000045000001000022000022000000000000          BALLOTS CAST - TOTAL                                    BALLOTS CAST - TOTAL                  Precinct 5                                             00 
01020010002000099000002000056000041000000000000          BALLOTS CAST - TOTAL                                    BALLOTS CAST - TOTAL                  Precinct 6                                             00 
01020010003000772000027000413000332000000000000          BALLOTS CAST - TOTAL                                    BALLOTS CAST - TOTAL                  Precinct 7                                             00 
01020010004000295000007000164000124000000000000          BALLOTS CAST - TOTAL                                    BALLOTS CAST - TOTAL                  Precinct 8                                             00 
01020010005000236000008000102000126000000000000          BALLOTS CAST - TOTAL                                    BALLOTS CAST - TOTAL                  Precinct 9                                             00 
01020010006000467000021000245000201000000000000          BALLOTS CAST - TOTAL                                    BALLOTS CAST - TOTAL                  Precinct 10                                            00 
01020010007000050000006000021000023000000000000          BALLOTS CAST - TOTAL                                    BALLOTS CAST - TOTAL                  Precinct 11                                            00 
01020010008000374000015000183000176000000000000          BALLOTS CAST - TOTAL                                    BALLOTS CAST - TOTAL                  Precinct 12                                            00 
01020010009000190000004000089000097000000000000          BALLOTS CAST - TOTAL                                    BALLOTS CAST - TOTAL                  Precinct 13                                            00 
01020010010000061000003000034000024000000000000          BALLOTS CAST - TOTAL                                    BALLOTS CAST - TOTAL                  Precinct 14                                            00 
01020010011000388000009000198000181000000000000          BALLOTS CAST - TOTAL                                    BALLOTS CAST - TOTAL                  Precinct 15                                            00 
01030010001000043000001000021000021000000000000REP       BALLOTS CAST - REPUBLICAN PARTY                         BALLOTS CAST - REPUBLICAN PARTY       Precinct 5                                             00 
01030010002000091000002000053000036000000000000REP       BALLOTS CAST - REPUBLICAN PARTY                         BALLOTS CAST - REPUBLICAN PARTY       Precinct 6                                             00 
01030010003000698000020000390000288000000000000REP       BALLOTS CAST - REPUBLICAN PARTY                         BALLOTS CAST - REPUBLICAN PARTY       Precinct 7                                             00 
01030010004000275000007000157000111000000000000REP       BALLOTS CAST - REPUBLICAN PARTY                         BALLOTS CAST - REPUBLICAN PARTY       Precinct 8                                             00 
01030010005000230000008000101000121000000000000REP       BALLOTS CAST - REPUBLICAN PARTY                         BALLOTS CAST - REPUBLICAN PARTY       Precinct 9                                             00 
01030010006000437000015000238000184000000000000REP       BALLOTS CAST - REPUBLICAN PARTY                         BALLOTS CAST - REPUBLICAN PARTY       Precinct 10                                            00 
01030010007000049000005000021000023000000000000REP       BALLOTS CAST - REPUBLICAN PARTY                         BALLOTS CAST - REPUBLICAN PARTY       Precinct 11                                            00 
01030010008000336000012000174000150000000000000REP       BALLOTS CAST - REPUBLICAN PARTY                         BALLOTS CAST - REPUBLICAN PARTY       Precinct 12                                            00 
01030010009000174000003000083000088000000000000REP       BALLOTS CAST - REPUBLICAN PARTY                         BALLOTS CAST - REPUBLICAN PARTY       Precinct 13                                            00 
01030010010000056000003000031000022000000000000REP       BALLOTS CAST - REPUBLICAN PARTY                         BALLOTS CAST - REPUBLICAN PARTY       Precinct 14                                            00 
01030010011000328000005000180000143000000000000REP       BALLOTS CAST - REPUBLICAN PARTY                         BALLOTS CAST - REPUBLICAN PARTY       Precinct 15                                            00 
01040010001000002000000000001000001000000000000DEM       BALLOTS CAST - DEMOCRATIC PARTY                         BALLOTS CAST - DEMOCRATIC PARTY       Precinct 5                                             00 
01040010002000008000000000003000005000000000000DEM       BALLOTS CAST - DEMOCRATIC PARTY                         BALLOTS CAST - DEMOCRATIC PARTY       Precinct 6                                             00 
01040010003000074000007000023000044000000000000DEM       BALLOTS CAST - DEMOCRATIC PARTY                         BALLOTS CAST - DEMOCRATIC PARTY       Precinct 7                                             00 
01040010004000020000000000007000013000000000000DEM       BALLOTS CAST - DEMOCRATIC PARTY                         BALLOTS CAST - DEMOCRATIC PARTY       Precinct 8                                             00 
01040010005000006000000000001000005000000000000DEM       BALLOTS CAST - DEMOCRATIC PARTY                         BALLOTS CAST - DEMOCRATIC PARTY       Precinct 9                                             00 
01040010006000030000006000007000017000000000000DEM       BALLOTS CAST - DEMOCRATIC PARTY                         BALLOTS CAST - DEMOCRATIC PARTY       Precinct 10                                            00 
01040010007000001000001000000000000000000000000DEM       BALLOTS CAST - DEMOCRATIC PARTY                         BALLOTS CAST - DEMOCRATIC PARTY       Precinct 11                                            00 
01040010008000038000003000009000026000000000000DEM       BALLOTS CAST - DEMOCRATIC PARTY                         BALLOTS CAST - DEMOCRATIC PARTY       Precinct 12                                            00 
01040010009000016000001000006000009000000000000DEM       BALLOTS CAST - DEMOCRATIC PARTY                         BALLOTS CAST - DEMOCRATIC PARTY       Precinct 13                                            00 
01040010010000005000000000003000002000000000000DEM       BALLOTS CAST - DEMOCRATIC PARTY                         BALLOTS CAST - DEMOCRATIC PARTY       Precinct 14                                            00 
01040010011000060000004000018000038000000000000DEM       BALLOTS CAST - DEMOCRATIC PARTY                         BALLOTS CAST - DEMOCRATIC PARTY       Precinct 15                                            00 
01050010001000039000001000019000019000000000000REP       President                                               Donald J. Trump                       Precinct 5                                             01 
01050010002000080000000000048000032000000000000REP       President                                               Donald J. Trump                       Precinct 6                                             01 
01050010003000646000019000357000270000000000000REP       President                                               Donald J. Trump                       Precinct 7                                             01 
01050010004000246000006000135000105000000000000REP       President                                               Donald J. Trump                       Precinct 8                                             01 
01050010005000214000006000100000108000000000000REP       President                                               Donald J. Trump                       Precinct 9                                             01 
01050010006000405000015000219000171000000000000REP       President                                               Donald J. Trump                       Precinct 10                                            01 
01050010007000047000005000019000023000000000000REP       President                                               Donald J. Trump                       Precinct 11                                            01 
01050010008000307000012000161000134000000000000REP       President                                               Donald J. Trump                       Precinct 12                                            01 
01050010009000166000003000078000085000000000000REP       President                                               Donald J. Trump                       Precinct 13                                            01 
01050010010000048000003000026000019000000000000REP       President                                               Donald J. Trump                       Precinct 14                                            01 
01050010011000276000005000152000119000000000000REP       President                                               Donald J. Trump                       Precinct 15                                            01 
01050020001000000000000000000000000000000000000REP       President                                               Roque "Rocky" De La Fuente Guerra     Precinct 5                                             01 
01050020002000001000000000000000001000000000000REP       President                                               Roque "Rocky" De La Fuente Guerra     Precinct 6                                             01 
01050020003000002000000000002000000000000000000REP       President                                               Roque "Rocky" De La Fuente Guerra     Precinct 7                                             01 
01050020004000002000000000002000000000000000000REP       President                                               Roque "Rocky" De La Fuente Guerra     Precinct 8                                             01 
01050020005000002000000000000000002000000000000REP       President                                               Roque "Rocky" De La Fuente Guerra     Precinct 9                                             01 
01050020006000002000000000001000001000000000000REP       President                                               Roque "Rocky" De La Fuente Guerra     Precinct 10                                            01 
01050020007000000000000000000000000000000000000REP       President                                               Roque "Rocky" De La Fuente Guerra     Precinct 11                                            01 
01050020008000004000000000001000003000000000000REP       President                                               Roque "Rocky" De La Fuente Guerra     Precinct 12                                            01 
01050020009000002000000000000000002000000000000REP       President                                               Roque "Rocky" De La Fuente Guerra     Precinct 13                                            01 
01050020010000001000000000001000000000000000000REP       President                                               Roque "Rocky" De La Fuente Guerra     Precinct 14                                            01 
01050020011000011000000000006000005000000000000REP       President                                               Roque "Rocky" De La Fuente Guerra     Precinct 15                                            01 
01050030001000000000000000000000000000000000000REP       President                                               Bill Weld                             Precinct 5                                             01 
01050030002000000000000000000000000000000000000REP       President                                               Bill Weld                             Precinct 6                                             01 
01050030003000000000000000000000000000000000000REP       President                                               Bill Weld                             Precinct 7                                             01 
01050030004000005000000000003000002000000000000REP       President                                               Bill Weld                             Precinct 8                                             01 
01050030005000001000000000000000001000000000000REP       President                                               Bill Weld                             Precinct 9                                             01 
01050030006000004000000000004000000000000000000REP       President                                               Bill Weld                             Precinct 10                                            01 
01050030007000001000000000001000000000000000000REP       President                                               Bill Weld                             Precinct 11                                            01 
01050030008000001000000000001000000000000000000REP       President                                               Bill Weld                             Precinct 12                                            01 
01050030009000000000000000000000000000000000000REP       President                                               Bill Weld                             Precinct 13                                            01 
01050030010000001000000000001000000000000000000REP       President                                               Bill Weld                             Precinct 14                                            01 
01050030011000002000000000000000002000000000000REP       President                                               Bill Weld                             Precinct 15                                            01 
01050040001000000000000000000000000000000000000REP       President                                               Matthew John Matern                   Precinct 5                                             01 
01050040002000000000000000000000000000000000000REP       President                                               Matthew John Matern                   Precinct 6                                             01 
01050040003000000000000000000000000000000000000REP       President                                               Matthew John Matern                   Precinct 7                                             01 
01050040004000000000000000000000000000000000000REP       President                                               Matthew John Matern                   Precinct 8                                             01 
01050040005000000000000000000000000000000000000REP       President                                               Matthew John Matern                   Precinct 9                                             01 
01050040006000000000000000000000000000000000000REP       President                                               Matthew John Matern                   Precinct 10                                            01 
01050040007000000000000000000000000000000000000REP       President                                               Matthew John Matern                   Precinct 11                                            01 
01050040008000000000000000000000000000000000000REP       President                                               Matthew John Matern                   Precinct 12                                            01 
01050040009000000000000000000000000000000000000REP       President                                               Matthew John Matern                   Precinct 13                                            01 
01050040010000000000000000000000000000000000000REP       President                                               Matthew John Matern                   Precinct 14                                            01 
01050040011000001000000000000000001000000000000REP       President                                               Matthew John Matern                   Precinct 15                                            01 
01050050001000000000000000000000000000000000000REP       President                                               Bob Ely                               Precinct 5                                             01 
01050050002000001000000000000000001000000000000REP       President                                               Bob Ely                               Precinct 6                                             01 
01050050003000003000000000001000002000000000000REP       President                                               Bob Ely                               Precinct 7                                             01 
01050050004000000000000000000000000000000000000REP       President                                               Bob Ely                               Precinct 8                                             01 
01050050005000000000000000000000000000000000000REP       President                                               Bob Ely                               Precinct 9                                             01 
01050050006000000000000000000000000000000000000REP       President                                               Bob Ely                               Precinct 10                                            01 
01050050007000000000000000000000000000000000000REP       President                                               Bob Ely                               Precinct 11                                            01 
01050050008000001000000000001000000000000000000REP       President                                               Bob Ely                               Precinct 12                                            01 
01050050009000000000000000000000000000000000000REP       President                                               Bob Ely                               Precinct 13                                            01 
01050050010000001000000000000000001000000000000REP       President                                               Bob Ely                               Precinct 14                                            01 
01050050011000000000000000000000000000000000000REP       President                                               Bob Ely                               Precinct 15                                            01 
01050060001000000000000000000000000000000000000REP       President                                               Joe Walsh                             Precinct 5                                             01 
01050060002000000000000000000000000000000000000REP       President                                               Joe Walsh                             Precinct 6                                             01 
01050060003000004000000000002000002000000000000REP       President                                               Joe Walsh                             Precinct 7                                             01 
01050060004000001000000000001000000000000000000REP       President                                               Joe Walsh                             Precinct 8                                             01 
01050060005000001000000000000000001000000000000REP       President                                               Joe Walsh                             Precinct 9                                             01 
01050060006000003000000000001000002000000000000REP       President                                               Joe Walsh                             Precinct 10                                            01 
01050060007000000000000000000000000000000000000REP       President                                               Joe Walsh                             Precinct 11                                            01 
01050060008000000000000000000000000000000000000REP       President                                               Joe Walsh                             Precinct 12                                            01 
01050060009000002000000000001000001000000000000REP       President                                               Joe Walsh                             Precinct 13                                            01 
01050060010000001000000000000000001000000000000REP       President                                               Joe Walsh                             Precinct 14                                            01 
01050060011000002000000000001000001000000000000REP       President                                               Joe Walsh                             Precinct 15                                            01 
01050070001000000000000000000000000000000000000REP       President                                               Zoltan G. Istvan                      Precinct 5                                             01 
01050070002000000000000000000000000000000000000REP       President                                               Zoltan G. Istvan                      Precinct 6                                             01 
01050070003000000000000000000000000000000000000REP       President                                               Zoltan G. Istvan                      Precinct 7                                             01 
01050070004000001000000000000000001000000000000REP       President                                               Zoltan G. Istvan                      Precinct 8                                             01 
01050070005000000000000000000000000000000000000REP       President                                               Zoltan G. Istvan                      Precinct 9                                             01 
01050070006000001000000000000000001000000000000REP       President                                               Zoltan G. Istvan                      Precinct 10                                            01 
01050070007000000000000000000000000000000000000REP       President                                               Zoltan G. Istvan                      Precinct 11                                            01 
01050070008000000000000000000000000000000000000REP       President                                               Zoltan G. Istvan                      Precinct 12                                            01 
01050070009000000000000000000000000000000000000REP       President                                               Zoltan G. Istvan                      Precinct 13                                            01 
01050070010000001000000000001000000000000000000REP       President                                               Zoltan G. Istvan                      Precinct 14                                            01 
01050070011000000000000000000000000000000000000REP       President                                               Zoltan G. Istvan                      Precinct 15                                            01 
01050080001000003000000000002000001000000000000REP       President                                               Uncommitted                           Precinct 5                                             01 
01050080002000009000002000005000002000000000000REP       President                                               Uncommitted                           Precinct 6                                             01 
01050080003000024000000000015000009000000000000REP       President                                               Uncommitted                           Precinct 7                                             01 
01050080004000016000001000012000003000000000000REP       President                                               Uncommitted                           Precinct 8                                             01 
01050080005000009000002000000000007000000000000REP       President                                               Uncommitted                           Precinct 9                                             01 
01050080006000014000000000007000007000000000000REP       President                                               Uncommitted                           Precinct 10                                            01 
01050080007000000000000000000000000000000000000REP       President                                               Uncommitted                           Precinct 11                                            01 
01050080008000014000000000005000009000000000000REP       President                                               Uncommitted                           Precinct 12                                            01 
01050080009000003000000000003000000000000000000REP       President                                               Uncommitted                           Precinct 13                                            01 
01050080010000002000000000001000001000000000000REP       President                                               Uncommitted                           Precinct 14                                            01 
01050080011000014000000000008000006000000000000REP       President                                               Uncommitted                           Precinct 15                                            01 
01050090001000000000000000000000000000000000000REP       President                                               OVER VOTES                            Precinct 5                                             01 
01050090002000000000000000000000000000000000000REP       President                                               OVER VOTES                            Precinct 6                                             01 
01050090003000000000000000000000000000000000000REP       President                                               OVER VOTES                            Precinct 7                                             01 
01050090004000000000000000000000000000000000000REP       President                                               OVER VOTES                            Precinct 8                                             01 
01050090005000000000000000000000000000000000000REP       President                                               OVER VOTES                            Precinct 9                                             01 
01050090006000000000000000000000000000000000000REP       President                                               OVER VOTES                            Precinct 10                                            01 
01050090007000000000000000000000000000000000000REP       President                                               OVER VOTES                            Precinct 11                                            01 
01050090008000000000000000000000000000000000000REP       President                                               OVER VOTES                            Precinct 12                                            01 
01050090009000000000000000000000000000000000000REP       President                                               OVER VOTES                            Precinct 13                                            01 
01050090010000000000000000000000000000000000000REP       President                                               OVER VOTES                            Precinct 14                                            01 
01050090011000000000000000000000000000000000000REP       President                                               OVER VOTES                            Precinct 15                                            01 
01050100001000001000000000000000001000000000000REP       President                                               UNDER VOTES                           Precinct 5                                             01 
01050100002000000000000000000000000000000000000REP       President                                               UNDER VOTES                           Precinct 6                                             01 
01050100003000019000001000013000005000000000000REP       President                                               UNDER VOTES                           Precinct 7                                             01 
01050100004000004000000000004000000000000000000REP       President                                               UNDER VOTES                           Precinct 8                                             01 
01050100005000003000000000001000002000000000000REP       President                                               UNDER VOTES                           Precinct 9                                             01 
01050100006000008000000000006000002000000000000REP       President                                               UNDER VOTES                           Precinct 10                                            01 
01050100007000001000000000001000000000000000000REP       President                                               UNDER VOTES                           Precinct 11                                            01 
01050100008000009000000000005000004000000000000REP       President                                               UNDER VOTES                           Precinct 12                                            01 
01050100009000001000000000001000000000000000000REP       President                                               UNDER VOTES                           Precinct 13                                            01 
01050100010000001000000000001000000000000000000REP       President                                               UNDER VOTES                           Precinct 14                                            01 
01050100011000022000000000013000009000000000000REP       President                                               UNDER VOTES                           Precinct 15                                            01 
01060010001000003000000000003000000000000000000REP       United States Senator                                   Mark Yancey                           Precinct 5                                             01 
01060010002000015000000000006000009000000000000REP       United States Senator                                   Mark Yancey                           Precinct 6                                             01 
01060010003000084000001000043000040000000000000REP       United States Senator                                   Mark Yancey                           Precinct 7                                             01 
01060010004000039000000000029000010000000000000REP       United States Senator                                   Mark Yancey                           Precinct 8                                             01 
01060010005000035000001000015000019000000000000REP       United States Senator                                   Mark Yancey                           Precinct 9                                             01 
01060010006000055000000000025000030000000000000REP       United States Senator                                   Mark Yancey                           Precinct 10                                            01 
01060010007000007000000000003000004000000000000REP       United States Senator                                   Mark Yancey                           Precinct 11                                            01 
01060010008000057000000000030000027000000000000REP       United States Senator                                   Mark Yancey                           Precinct 12                                            01 
01060010009000023000000000013000010000000000000REP       United States Senator                                   Mark Yancey                           Precinct 13                                            01 
01060010010000006000000000002000004000000000000REP       United States Senator                                   Mark Yancey                           Precinct 14                                            01 
01060010011000056000002000025000029000000000000REP       United States Senator                                   Mark Yancey                           Precinct 15                                            01 
01060020001000027000001000010000016000000000000REP       United States Senator                                   John Cornyn                           Precinct 5                                             01 
01060020002000058000002000036000020000000000000REP       United States Senator                                   John Cornyn                           Precinct 6                                             01 
01060020003000440000018000261000161000000000000REP       United States Senator                                   John Cornyn                           Precinct 7                                             01 
01060020004000169000007000088000074000000000000REP       United States Senator                                   John Cornyn                           Precinct 8                                             01 
01060020005000145000005000069000071000000000000REP       United States Senator                                   John Cornyn                           Precinct 9                                             01 
01060020006000276000015000163000098000000000000REP       United States Senator                                   John Cornyn                           Precinct 10                                            01 
01060020007000034000005000016000013000000000000REP       United States Senator                                   John Cornyn                           Precinct 11                                            01 
01060020008000193000010000106000077000000000000REP       United States Senator                                   John Cornyn                           Precinct 12                                            01 
01060020009000112000003000055000054000000000000REP       United States Senator                                   John Cornyn                           Precinct 13                                            01 
01060020010000038000003000025000010000000000000REP       United States Senator                                   John Cornyn                           Precinct 14                                            01 
01060020011000142000000000081000061000000000000REP       United States Senator                                   John Cornyn                           Precinct 15                                            01 
01060030001000001000000000001000000000000000000REP       United States Senator                                   Virgil Bierschwale                    Precinct 5                                             01 
01060030002000000000000000000000000000000000000REP       United States Senator                                   Virgil Bierschwale                    Precinct 6                                             01 
01060030003000007000000000002000005000000000000REP       United States Senator                                   Virgil Bierschwale                    Precinct 7                                             01 
01060030004000003000000000001000002000000000000REP       United States Senator                                   Virgil Bierschwale                    Precinct 8                                             01 
01060030005000003000000000001000002000000000000REP       United States Senator                                   Virgil Bierschwale                    Precinct 9                                             01 
01060030006000001000000000000000001000000000000REP       United States Senator                                   Virgil Bierschwale                    Precinct 10                                            01 
01060030007000000000000000000000000000000000000REP       United States Senator                                   Virgil Bierschwale                    Precinct 11                                            01 
01060030008000002000000000001000001000000000000REP       United States Senator                                   Virgil Bierschwale                    Precinct 12                                            01 
01060030009000002000000000000000002000000000000REP       United States Senator                                   Virgil Bierschwale                    Precinct 13                                            01 
01060030010000003000000000000000003000000000000REP       United States Senator                                   Virgil Bierschwale                    Precinct 14                                            01 
01060030011000005000000000001000004000000000000REP       United States Senator                                   Virgil Bierschwale                    Precinct 15                                            01 
01060040001000000000000000000000000000000000000REP       United States Senator                                   John Anthony Castro                   Precinct 5                                             01 
01060040002000001000000000000000001000000000000REP       United States Senator                                   John Anthony Castro                   Precinct 6                                             01 
01060040003000020000000000007000013000000000000REP       United States Senator                                   John Anthony Castro                   Precinct 7                                             01 
01060040004000022000000000012000010000000000000REP       United States Senator                                   John Anthony Castro                   Precinct 8                                             01 
01060040005000007000000000002000005000000000000REP       United States Senator                                   John Anthony Castro                   Precinct 9                                             01 
01060040006000021000000000011000010000000000000REP       United States Senator                                   John Anthony Castro                   Precinct 10                                            01 
01060040007000000000000000000000000000000000000REP       United States Senator                                   John Anthony Castro                   Precinct 11                                            01 
01060040008000021000000000007000014000000000000REP       United States Senator                                   John Anthony Castro                   Precinct 12                                            01 
01060040009000006000000000003000003000000000000REP       United States Senator                                   John Anthony Castro                   Precinct 13                                            01 
01060040010000001000000000001000000000000000000REP       United States Senator                                   John Anthony Castro                   Precinct 14                                            01 
01060040011000031000000000020000011000000000000REP       United States Senator                                   John Anthony Castro                   Precinct 15                                            01 
01060050001000008000000000006000002000000000000REP       United States Senator                                   Dwayne Stovall                        Precinct 5                                             01 
01060050002000005000000000001000004000000000000REP       United States Senator                                   Dwayne Stovall                        Precinct 6                                             01 
01060050003000060000000000035000025000000000000REP       United States Senator                                   Dwayne Stovall                        Precinct 7                                             01 
01060050004000022000000000015000007000000000000REP       United States Senator                                   Dwayne Stovall                        Precinct 8                                             01 
01060050005000020000001000010000009000000000000REP       United States Senator                                   Dwayne Stovall                        Precinct 9                                             01 
01060050006000031000000000011000020000000000000REP       United States Senator                                   Dwayne Stovall                        Precinct 10                                            01 
01060050007000004000000000001000003000000000000REP       United States Senator                                   Dwayne Stovall                        Precinct 11                                            01 
01060050008000027000000000012000015000000000000REP       United States Senator                                   Dwayne Stovall                        Precinct 12                                            01 
01060050009000010000000000003000007000000000000REP       United States Senator                                   Dwayne Stovall                        Precinct 13                                            01 
01060050010000005000000000002000003000000000000REP       United States Senator                                   Dwayne Stovall                        Precinct 14                                            01 
01060050011000024000000000015000009000000000000REP       United States Senator                                   Dwayne Stovall                        Precinct 15                                            01 
01060060001000000000000000000000000000000000000REP       United States Senator                                   OVER VOTES                            Precinct 5                                             01 
01060060002000000000000000000000000000000000000REP       United States Senator                                   OVER VOTES                            Precinct 6                                             01 
01060060003000000000000000000000000000000000000REP       United States Senator                                   OVER VOTES                            Precinct 7                                             01 
01060060004000000000000000000000000000000000000REP       United States Senator                                   OVER VOTES                            Precinct 8                                             01 
01060060005000000000000000000000000000000000000REP       United States Senator                                   OVER VOTES                            Precinct 9                                             01 
01060060006000000000000000000000000000000000000REP       United States Senator                                   OVER VOTES                            Precinct 10                                            01 
01060060007000000000000000000000000000000000000REP       United States Senator                                   OVER VOTES                            Precinct 11                                            01 
01060060008000000000000000000000000000000000000REP       United States Senator                                   OVER VOTES                            Precinct 12                                            01 
01060060009000000000000000000000000000000000000REP       United States Senator                                   OVER VOTES                            Precinct 13                                            01 
01060060010000000000000000000000000000000000000REP       United States Senator                                   OVER VOTES                            Precinct 14                                            01 
01060060011000000000000000000000000000000000000REP       United States Senator                                   OVER VOTES                            Precinct 15                                            01 
01060070001000004000000000001000003000000000000REP       United States Senator                                   UNDER VOTES                           Precinct 5                                             01 
01060070002000012000000000010000002000000000000REP       United States Senator                                   UNDER VOTES                           Precinct 6                                             01 
01060070003000087000001000042000044000000000000REP       United States Senator                                   UNDER VOTES                           Precinct 7                                             01 
01060070004000020000000000012000008000000000000REP       United States Senator                                   UNDER VOTES                           Precinct 8                                             01 
01060070005000020000001000004000015000000000000REP       United States Senator                                   UNDER VOTES                           Precinct 9                                             01 
01060070006000053000000000028000025000000000000REP       United States Senator                                   UNDER VOTES                           Precinct 10                                            01 
01060070007000004000000000001000003000000000000REP       United States Senator                                   UNDER VOTES                           Precinct 11                                            01 
01060070008000036000002000018000016000000000000REP       United States Senator                                   UNDER VOTES                           Precinct 12                                            01 
01060070009000021000000000009000012000000000000REP       United States Senator                                   UNDER VOTES                           Precinct 13                                            01 
01060070010000003000000000001000002000000000000REP       United States Senator                                   UNDER VOTES                           Precinct 14                                            01 
01060070011000070000003000038000029000000000000REP       United States Senator                                   UNDER VOTES                           Precinct 15                                            01 
01070010001000035000001000019000015000000000000REP       United States Representative, Dist 19                   Jodey C. Arrington                    Precinct 5                                             01 
01070010002000065000002000037000026000000000000REP       United States Representative, Dist 19                   Jodey C. Arrington                    Precinct 6                                             01 
01070010003000558000018000323000217000000000000REP       United States Representative, Dist 19                   Jodey C. Arrington                    Precinct 7                                             01 
01070010004000212000007000119000086000000000000REP       United States Representative, Dist 19                   Jodey C. Arrington                    Precinct 8                                             01 
01070010005000186000006000085000095000000000000REP       United States Representative, Dist 19                   Jodey C. Arrington                    Precinct 9                                             01 
01070010006000372000014000207000151000000000000REP       United States Representative, Dist 19                   Jodey C. Arrington                    Precinct 10                                            01 
01070010007000035000005000017000013000000000000REP       United States Representative, Dist 19                   Jodey C. Arrington                    Precinct 11                                            01 
01070010008000256000010000139000107000000000000REP       United States Representative, Dist 19                   Jodey C. Arrington                    Precinct 12                                            01 
01070010009000145000003000068000074000000000000REP       United States Representative, Dist 19                   Jodey C. Arrington                    Precinct 13                                            01 
01070010010000049000003000028000018000000000000REP       United States Representative, Dist 19                   Jodey C. Arrington                    Precinct 14                                            01 
01070010011000219000005000122000092000000000000REP       United States Representative, Dist 19                   Jodey C. Arrington                    Precinct 15                                            01 
01070020001000004000000000002000002000000000000REP       United States Representative, Dist 19                   Vance W. Boyd                         Precinct 5                                             01 
01070020002000013000000000006000007000000000000REP       United States Representative, Dist 19                   Vance W. Boyd                         Precinct 6                                             01 
01070020003000074000001000033000040000000000000REP       United States Representative, Dist 19                   Vance W. Boyd                         Precinct 7                                             01 
01070020004000043000000000026000017000000000000REP       United States Representative, Dist 19                   Vance W. Boyd                         Precinct 8                                             01 
01070020005000028000001000011000016000000000000REP       United States Representative, Dist 19                   Vance W. Boyd                         Precinct 9                                             01 
01070020006000035000000000020000015000000000000REP       United States Representative, Dist 19                   Vance W. Boyd                         Precinct 10                                            01 
01070020007000009000000000002000007000000000000REP       United States Representative, Dist 19                   Vance W. Boyd                         Precinct 11                                            01 
01070020008000044000000000019000025000000000000REP       United States Representative, Dist 19                   Vance W. Boyd                         Precinct 12                                            01 
01070020009000020000000000009000011000000000000REP       United States Representative, Dist 19                   Vance W. Boyd                         Precinct 13                                            01 
01070020010000006000000000003000003000000000000REP       United States Representative, Dist 19                   Vance W. Boyd                         Precinct 14                                            01 
01070020011000052000000000030000022000000000000REP       United States Representative, Dist 19                   Vance W. Boyd                         Precinct 15                                            01 
01070030001000000000000000000000000000000000000REP       United States Representative, Dist 19                   OVER VOTES                            Precinct 5                                             01 
01070030002000000000000000000000000000000000000REP       United States Representative, Dist 19                   OVER VOTES                            Precinct 6                                             01 
01070030003000000000000000000000000000000000000REP       United States Representative, Dist 19                   OVER VOTES                            Precinct 7                                             01 
01070030004000000000000000000000000000000000000REP       United States Representative, Dist 19                   OVER VOTES                            Precinct 8                                             01 
01070030005000000000000000000000000000000000000REP       United States Representative, Dist 19                   OVER VOTES                            Precinct 9                                             01 
01070030006000000000000000000000000000000000000REP       United States Representative, Dist 19                   OVER VOTES                            Precinct 10                                            01 
01070030007000000000000000000000000000000000000REP       United States Representative, Dist 19                   OVER VOTES                            Precinct 11                                            01 
01070030008000000000000000000000000000000000000REP       United States Representative, Dist 19                   OVER VOTES                            Precinct 12                                            01 
01070030009000000000000000000000000000000000000REP       United States Representative, Dist 19                   OVER VOTES                            Precinct 13                                            01 
01070030010000000000000000000000000000000000000REP       United States Representative, Dist 19                   OVER VOTES                            Precinct 14                                            01 
01070030011000000000000000000000000000000000000REP       United States Representative, Dist 19                   OVER VOTES                            Precinct 15                                            01 
01070040001000004000000000000000004000000000000REP       United States Representative, Dist 19                   UNDER VOTES                           Precinct 5                                             01 
01070040002000013000000000010000003000000000000REP       United States Representative, Dist 19                   UNDER VOTES                           Precinct 6                                             01 
01070040003000066000001000034000031000000000000REP       United States Representative, Dist 19                   UNDER VOTES                           Precinct 7                                             01 
01070040004000020000000000012000008000000000000REP       United States Representative, Dist 19                   UNDER VOTES                           Precinct 8                                             01 
01070040005000016000001000005000010000000000000REP       United States Representative, Dist 19                   UNDER VOTES                           Precinct 9                                             01 
01070040006000030000001000011000018000000000000REP       United States Representative, Dist 19                   UNDER VOTES                           Precinct 10                                            01 
01070040007000005000000000002000003000000000000REP       United States Representative, Dist 19                   UNDER VOTES                           Precinct 11                                            01 
01070040008000036000002000016000018000000000000REP       United States Representative, Dist 19                   UNDER VOTES                           Precinct 12                                            01 
01070040009000009000000000006000003000000000000REP       United States Representative, Dist 19                   UNDER VOTES                           Precinct 13                                            01 
01070040010000001000000000000000001000000000000REP       United States Representative, Dist 19                   UNDER VOTES                           Precinct 14                                            01 
01070040011000057000000000028000029000000000000REP       United States Representative, Dist 19                   UNDER VOTES                           Precinct 15                                            01 
01080010001000020000001000009000010000000000000REP       Railroad Commissioner                                   James "Jim" Wright                    Precinct 5                                             01 
01080010002000055000000000029000026000000000000REP       Railroad Commissioner                                   James "Jim" Wright                    Precinct 6                                             01 
01080010003000452000013000258000181000000000000REP       Railroad Commissioner                                   James "Jim" Wright                    Precinct 7                                             01 
01080010004000181000003000096000082000000000000REP       Railroad Commissioner                                   James "Jim" Wright                    Precinct 8                                             01 
01080010005000156000002000069000085000000000000REP       Railroad Commissioner                                   James "Jim" Wright                    Precinct 9                                             01 
01080010006000292000011000162000119000000000000REP       Railroad Commissioner                                   James "Jim" Wright                    Precinct 10                                            01 
01080010007000026000004000010000012000000000000REP       Railroad Commissioner                                   James "Jim" Wright                    Precinct 11                                            01 
01080010008000222000008000117000097000000000000REP       Railroad Commissioner                                   James "Jim" Wright                    Precinct 12                                            01 
01080010009000111000003000055000053000000000000REP       Railroad Commissioner                                   James "Jim" Wright                    Precinct 13                                            01 
01080010010000044000003000022000019000000000000REP       Railroad Commissioner                                   James "Jim" Wright                    Precinct 14                                            01 
01080010011000178000002000099000077000000000000REP       Railroad Commissioner                                   James "Jim" Wright                    Precinct 15                                            01 
01080020001000016000000000010000006000000000000REP       Railroad Commissioner                                   Ryan Sitton                           Precinct 5                                             01 
01080020002000026000002000016000008000000000000REP       Railroad Commissioner                                   Ryan Sitton                           Precinct 6                                             01 
01080020003000133000004000072000057000000000000REP       Railroad Commissioner                                   Ryan Sitton                           Precinct 7                                             01 
01080020004000060000003000044000013000000000000REP       Railroad Commissioner                                   Ryan Sitton                           Precinct 8                                             01 
01080020005000046000004000026000016000000000000REP       Railroad Commissioner                                   Ryan Sitton                           Precinct 9                                             01 
01080020006000078000002000042000034000000000000REP       Railroad Commissioner                                   Ryan Sitton                           Precinct 10                                            01 
01080020007000013000000000005000008000000000000REP       Railroad Commissioner                                   Ryan Sitton                           Precinct 11                                            01 
01080020008000054000002000028000024000000000000REP       Railroad Commissioner                                   Ryan Sitton                           Precinct 12                                            01 
01080020009000037000000000015000022000000000000REP       Railroad Commissioner                                   Ryan Sitton                           Precinct 13                                            01 
01080020010000007000000000005000002000000000000REP       Railroad Commissioner                                   Ryan Sitton                           Precinct 14                                            01 
01080020011000066000000000040000026000000000000REP       Railroad Commissioner                                   Ryan Sitton                           Precinct 15                                            01 
01080030001000000000000000000000000000000000000REP       Railroad Commissioner                                   OVER VOTES                            Precinct 5                                             01 
01080030002000000000000000000000000000000000000REP       Railroad Commissioner                                   OVER VOTES                            Precinct 6                                             01 
01080030003000000000000000000000000000000000000REP       Railroad Commissioner                                   OVER VOTES                            Precinct 7                                             01 
01080030004000000000000000000000000000000000000REP       Railroad Commissioner                                   OVER VOTES                            Precinct 8                                             01 
01080030005000000000000000000000000000000000000REP       Railroad Commissioner                                   OVER VOTES                            Precinct 9                                             01 
01080030006000000000000000000000000000000000000REP       Railroad Commissioner                                   OVER VOTES                            Precinct 10                                            01 
01080030007000000000000000000000000000000000000REP       Railroad Commissioner                                   OVER VOTES                            Precinct 11                                            01 
01080030008000000000000000000000000000000000000REP       Railroad Commissioner                                   OVER VOTES                            Precinct 12                                            01 
01080030009000000000000000000000000000000000000REP       Railroad Commissioner                                   OVER VOTES                            Precinct 13                                            01 
01080030010000000000000000000000000000000000000REP       Railroad Commissioner                                   OVER VOTES                            Precinct 14                                            01 
01080030011000000000000000000000000000000000000REP       Railroad Commissioner                                   OVER VOTES                            Precinct 15                                            01 
01080040001000007000000000002000005000000000000REP       Railroad Commissioner                                   UNDER VOTES                           Precinct 5                                             01 
01080040002000010000000000008000002000000000000REP       Railroad Commissioner                                   UNDER VOTES                           Precinct 6                                             01 
01080040003000113000003000060000050000000000000REP       Railroad Commissioner                                   UNDER VOTES                           Precinct 7                                             01 
01080040004000034000001000017000016000000000000REP       Railroad Commissioner                                   UNDER VOTES                           Precinct 8                                             01 
01080040005000028000002000006000020000000000000REP       Railroad Commissioner                                   UNDER VOTES                           Precinct 9                                             01 
01080040006000067000002000034000031000000000000REP       Railroad Commissioner                                   UNDER VOTES                           Precinct 10                                            01 
01080040007000010000001000006000003000000000000REP       Railroad Commissioner                                   UNDER VOTES                           Precinct 11                                            01 
01080040008000060000002000029000029000000000000REP       Railroad Commissioner                                   UNDER VOTES                           Precinct 12                                            01 
01080040009000026000000000013000013000000000000REP       Railroad Commissioner                                   UNDER VOTES                           Precinct 13                                            01 
01080040010000005000000000004000001000000000000REP       Railroad Commissioner                                   UNDER VOTES                           Precinct 14                                            01 
01080040011000084000003000041000040000000000000REP       Railroad Commissioner                                   UNDER VOTES                           Precinct 15                                            01 
01090010001000032000001000017000014000000000000REP       Chief Justice, Supreme Court                            Nathan Hecht                          Precinct 5                                             01 
01090010002000073000002000041000030000000000000REP       Chief Justice, Supreme Court                            Nathan Hecht                          Precinct 6                                             01 
01090010003000540000016000305000219000000000000REP       Chief Justice, Supreme Court                            Nathan Hecht                          Precinct 7                                             01 
01090010004000230000005000131000094000000000000REP       Chief Justice, Supreme Court                            Nathan Hecht                          Precinct 8                                             01 
01090010005000191000003000087000101000000000000REP       Chief Justice, Supreme Court                            Nathan Hecht                          Precinct 9                                             01 
01090010006000339000010000185000144000000000000REP       Chief Justice, Supreme Court                            Nathan Hecht                          Precinct 10                                            01 
01090010007000037000004000015000018000000000000REP       Chief Justice, Supreme Court                            Nathan Hecht                          Precinct 11                                            01 
01090010008000258000010000137000111000000000000REP       Chief Justice, Supreme Court                            Nathan Hecht                          Precinct 12                                            01 
01090010009000133000003000060000070000000000000REP       Chief Justice, Supreme Court                            Nathan Hecht                          Precinct 13                                            01 
01090010010000046000003000026000017000000000000REP       Chief Justice, Supreme Court                            Nathan Hecht                          Precinct 14                                            01 
01090010011000222000002000122000098000000000000REP       Chief Justice, Supreme Court                            Nathan Hecht                          Precinct 15                                            01 
01090020001000000000000000000000000000000000000REP       Chief Justice, Supreme Court                            OVER VOTES                            Precinct 5                                             01 
01090020002000000000000000000000000000000000000REP       Chief Justice, Supreme Court                            OVER VOTES                            Precinct 6                                             01 
01090020003000000000000000000000000000000000000REP       Chief Justice, Supreme Court                            OVER VOTES                            Precinct 7                                             01 
01090020004000000000000000000000000000000000000REP       Chief Justice, Supreme Court                            OVER VOTES                            Precinct 8                                             01 
01090020005000000000000000000000000000000000000REP       Chief Justice, Supreme Court                            OVER VOTES                            Precinct 9                                             01 
01090020006000000000000000000000000000000000000REP       Chief Justice, Supreme Court                            OVER VOTES                            Precinct 10                                            01 
01090020007000000000000000000000000000000000000REP       Chief Justice, Supreme Court                            OVER VOTES                            Precinct 11                                            01 
01090020008000000000000000000000000000000000000REP       Chief Justice, Supreme Court                            OVER VOTES                            Precinct 12                                            01 
01090020009000000000000000000000000000000000000REP       Chief Justice, Supreme Court                            OVER VOTES                            Precinct 13                                            01 
01090020010000000000000000000000000000000000000REP       Chief Justice, Supreme Court                            OVER VOTES                            Precinct 14                                            01 
01090020011000000000000000000000000000000000000REP       Chief Justice, Supreme Court                            OVER VOTES                            Precinct 15                                            01 
01090030001000011000000000004000007000000000000REP       Chief Justice, Supreme Court                            UNDER VOTES                           Precinct 5                                             01 
01090030002000018000000000012000006000000000000REP       Chief Justice, Supreme Court                            UNDER VOTES                           Precinct 6                                             01 
01090030003000158000004000085000069000000000000REP       Chief Justice, Supreme Court                            UNDER VOTES                           Precinct 7                                             01 
01090030004000045000002000026000017000000000000REP       Chief Justice, Supreme Court                            UNDER VOTES                           Precinct 8                                             01 
01090030005000039000005000014000020000000000000REP       Chief Justice, Supreme Court                            UNDER VOTES                           Precinct 9                                             01 
01090030006000098000005000053000040000000000000REP       Chief Justice, Supreme Court                            UNDER VOTES                           Precinct 10                                            01 
01090030007000012000001000006000005000000000000REP       Chief Justice, Supreme Court                            UNDER VOTES                           Precinct 11                                            01 
01090030008000078000002000037000039000000000000REP       Chief Justice, Supreme Court                            UNDER VOTES                           Precinct 12                                            01 
01090030009000041000000000023000018000000000000REP       Chief Justice, Supreme Court                            UNDER VOTES                           Precinct 13                                            01 
01090030010000010000000000005000005000000000000REP       Chief Justice, Supreme Court                            UNDER VOTES                           Precinct 14                                            01 
01090030011000106000003000058000045000000000000REP       Chief Justice, Supreme Court                            UNDER VOTES                           Precinct 15                                            01 
01100010001000030000001000015000014000000000000REP       Justice, Supreme Court, Place 6, Unexpir                Jane Bland                            Precinct 5                                             01 
01100010002000067000002000038000027000000000000REP       Justice, Supreme Court, Place 6, Unexpir                Jane Bland                            Precinct 6                                             01 
01100010003000497000015000285000197000000000000REP       Justice, Supreme Court, Place 6, Unexpir                Jane Bland                            Precinct 7                                             01 
01100010004000213000005000125000083000000000000REP       Justice, Supreme Court, Place 6, Unexpir                Jane Bland                            Precinct 8                                             01 
01100010005000174000003000080000091000000000000REP       Justice, Supreme Court, Place 6, Unexpir                Jane Bland                            Precinct 9                                             01 
01100010006000312000010000173000129000000000000REP       Justice, Supreme Court, Place 6, Unexpir                Jane Bland                            Precinct 10                                            01 
01100010007000040000004000016000020000000000000REP       Justice, Supreme Court, Place 6, Unexpir                Jane Bland                            Precinct 11                                            01 
01100010008000238000009000126000103000000000000REP       Justice, Supreme Court, Place 6, Unexpir                Jane Bland                            Precinct 12                                            01 
01100010009000120000003000055000062000000000000REP       Justice, Supreme Court, Place 6, Unexpir                Jane Bland                            Precinct 13                                            01 
01100010010000046000003000024000019000000000000REP       Justice, Supreme Court, Place 6, Unexpir                Jane Bland                            Precinct 14                                            01 
01100010011000198000002000109000087000000000000REP       Justice, Supreme Court, Place 6, Unexpir                Jane Bland                            Precinct 15                                            01 
01100020001000000000000000000000000000000000000REP       Justice, Supreme Court, Place 6, Unexpir                OVER VOTES                            Precinct 5                                             01 
01100020002000000000000000000000000000000000000REP       Justice, Supreme Court, Place 6, Unexpir                OVER VOTES                            Precinct 6                                             01 
01100020003000000000000000000000000000000000000REP       Justice, Supreme Court, Place 6, Unexpir                OVER VOTES                            Precinct 7                                             01 
01100020004000000000000000000000000000000000000REP       Justice, Supreme Court, Place 6, Unexpir                OVER VOTES                            Precinct 8                                             01 
01100020005000000000000000000000000000000000000REP       Justice, Supreme Court, Place 6, Unexpir                OVER VOTES                            Precinct 9                                             01 
01100020006000000000000000000000000000000000000REP       Justice, Supreme Court, Place 6, Unexpir                OVER VOTES                            Precinct 10                                            01 
01100020007000000000000000000000000000000000000REP       Justice, Supreme Court, Place 6, Unexpir                OVER VOTES                            Precinct 11                                            01 
01100020008000000000000000000000000000000000000REP       Justice, Supreme Court, Place 6, Unexpir                OVER VOTES                            Precinct 12                                            01 
01100020009000000000000000000000000000000000000REP       Justice, Supreme Court, Place 6, Unexpir                OVER VOTES                            Precinct 13                                            01 
01100020010000000000000000000000000000000000000REP       Justice, Supreme Court, Place 6, Unexpir                OVER VOTES                            Precinct 14                                            01 
01100020011000000000000000000000000000000000000REP       Justice, Supreme Court, Place 6, Unexpir                OVER VOTES                            Precinct 15                                            01 
01100030001000013000000000006000007000000000000REP       Justice, Supreme Court, Place 6, Unexpir                UNDER VOTES                           Precinct 5                                             01 
01100030002000024000000000015000009000000000000REP       Justice, Supreme Court, Place 6, Unexpir                UNDER VOTES                           Precinct 6                                             01 
01100030003000201000005000105000091000000000000REP       Justice, Supreme Court, Place 6, Unexpir                UNDER VOTES                           Precinct 7                                             01 
01100030004000062000002000032000028000000000000REP       Justice, Supreme Court, Place 6, Unexpir                UNDER VOTES                           Precinct 8                                             01 
01100030005000056000005000021000030000000000000REP       Justice, Supreme Court, Place 6, Unexpir                UNDER VOTES                           Precinct 9                                             01 
01100030006000125000005000065000055000000000000REP       Justice, Supreme Court, Place 6, Unexpir                UNDER VOTES                           Precinct 10                                            01 
01100030007000009000001000005000003000000000000REP       Justice, Supreme Court, Place 6, Unexpir                UNDER VOTES                           Precinct 11                                            01 
01100030008000098000003000048000047000000000000REP       Justice, Supreme Court, Place 6, Unexpir                UNDER VOTES                           Precinct 12                                            01 
01100030009000054000000000028000026000000000000REP       Justice, Supreme Court, Place 6, Unexpir                UNDER VOTES                           Precinct 13                                            01 
01100030010000010000000000007000003000000000000REP       Justice, Supreme Court, Place 6, Unexpir                UNDER VOTES                           Precinct 14                                            01 
01100030011000130000003000071000056000000000000REP       Justice, Supreme Court, Place 6, Unexpir                UNDER VOTES                           Precinct 15                                            01 
01110010001000030000001000015000014000000000000REP       Justice, Supreme Court, Place 7                         Jeff Boyd                             Precinct 5                                             01 
01110010002000067000002000037000028000000000000REP       Justice, Supreme Court, Place 7                         Jeff Boyd                             Precinct 6                                             01 
01110010003000499000016000285000198000000000000REP       Justice, Supreme Court, Place 7                         Jeff Boyd                             Precinct 7                                             01 
01110010004000220000006000124000090000000000000REP       Justice, Supreme Court, Place 7                         Jeff Boyd                             Precinct 8                                             01 
01110010005000179000003000081000095000000000000REP       Justice, Supreme Court, Place 7                         Jeff Boyd                             Precinct 9                                             01 
01110010006000316000011000175000130000000000000REP       Justice, Supreme Court, Place 7                         Jeff Boyd                             Precinct 10                                            01 
01110010007000041000004000017000020000000000000REP       Justice, Supreme Court, Place 7                         Jeff Boyd                             Precinct 11                                            01 
01110010008000244000010000129000105000000000000REP       Justice, Supreme Court, Place 7                         Jeff Boyd                             Precinct 12                                            01 
01110010009000118000003000054000061000000000000REP       Justice, Supreme Court, Place 7                         Jeff Boyd                             Precinct 13                                            01 
01110010010000048000003000026000019000000000000REP       Justice, Supreme Court, Place 7                         Jeff Boyd                             Precinct 14                                            01 
01110010011000206000002000112000092000000000000REP       Justice, Supreme Court, Place 7                         Jeff Boyd                             Precinct 15                                            01 
01110020001000000000000000000000000000000000000REP       Justice, Supreme Court, Place 7                         OVER VOTES                            Precinct 5                                             01 
01110020002000000000000000000000000000000000000REP       Justice, Supreme Court, Place 7                         OVER VOTES                            Precinct 6                                             01 
01110020003000000000000000000000000000000000000REP       Justice, Supreme Court, Place 7                         OVER VOTES                            Precinct 7                                             01 
01110020004000000000000000000000000000000000000REP       Justice, Supreme Court, Place 7                         OVER VOTES                            Precinct 8                                             01 
01110020005000000000000000000000000000000000000REP       Justice, Supreme Court, Place 7                         OVER VOTES                            Precinct 9                                             01 
01110020006000000000000000000000000000000000000REP       Justice, Supreme Court, Place 7                         OVER VOTES                            Precinct 10                                            01 
01110020007000000000000000000000000000000000000REP       Justice, Supreme Court, Place 7                         OVER VOTES                            Precinct 11                                            01 
01110020008000000000000000000000000000000000000REP       Justice, Supreme Court, Place 7                         OVER VOTES                            Precinct 12                                            01 
01110020009000000000000000000000000000000000000REP       Justice, Supreme Court, Place 7                         OVER VOTES                            Precinct 13                                            01 
01110020010000000000000000000000000000000000000REP       Justice, Supreme Court, Place 7                         OVER VOTES                            Precinct 14                                            01 
01110020011000000000000000000000000000000000000REP       Justice, Supreme Court, Place 7                         OVER VOTES                            Precinct 15                                            01 
01110030001000013000000000006000007000000000000REP       Justice, Supreme Court, Place 7                         UNDER VOTES                           Precinct 5                                             01 
01110030002000024000000000016000008000000000000REP       Justice, Supreme Court, Place 7                         UNDER VOTES                           Precinct 6                                             01 
01110030003000199000004000105000090000000000000REP       Justice, Supreme Court, Place 7                         UNDER VOTES                           Precinct 7                                             01 
01110030004000055000001000033000021000000000000REP       Justice, Supreme Court, Place 7                         UNDER VOTES                           Precinct 8                                             01 
01110030005000051000005000020000026000000000000REP       Justice, Supreme Court, Place 7                         UNDER VOTES                           Precinct 9                                             01 
01110030006000121000004000063000054000000000000REP       Justice, Supreme Court, Place 7                         UNDER VOTES                           Precinct 10                                            01 
01110030007000008000001000004000003000000000000REP       Justice, Supreme Court, Place 7                         UNDER VOTES                           Precinct 11                                            01 
01110030008000092000002000045000045000000000000REP       Justice, Supreme Court, Place 7                         UNDER VOTES                           Precinct 12                                            01 
01110030009000056000000000029000027000000000000REP       Justice, Supreme Court, Place 7                         UNDER VOTES                           Precinct 13                                            01 
01110030010000008000000000005000003000000000000REP       Justice, Supreme Court, Place 7                         UNDER VOTES                           Precinct 14                                            01 
01110030011000122000003000068000051000000000000REP       Justice, Supreme Court, Place 7                         UNDER VOTES                           Precinct 15                                            01 
01120010001000029000001000014000014000000000000REP       Justice, Supreme Court, Place 8                         Brett Busby                           Precinct 5                                             01 
01120010002000066000002000038000026000000000000REP       Justice, Supreme Court, Place 8                         Brett Busby                           Precinct 6                                             01 
01120010003000488000016000281000191000000000000REP       Justice, Supreme Court, Place 8                         Brett Busby                           Precinct 7                                             01 
01120010004000216000005000124000087000000000000REP       Justice, Supreme Court, Place 8                         Brett Busby                           Precinct 8                                             01 
01120010005000176000003000080000093000000000000REP       Justice, Supreme Court, Place 8                         Brett Busby                           Precinct 9                                             01 
01120010006000312000010000174000128000000000000REP       Justice, Supreme Court, Place 8                         Brett Busby                           Precinct 10                                            01 
01120010007000039000004000015000020000000000000REP       Justice, Supreme Court, Place 8                         Brett Busby                           Precinct 11                                            01 
01120010008000239000010000127000102000000000000REP       Justice, Supreme Court, Place 8                         Brett Busby                           Precinct 12                                            01 
01120010009000120000003000054000063000000000000REP       Justice, Supreme Court, Place 8                         Brett Busby                           Precinct 13                                            01 
01120010010000048000003000025000020000000000000REP       Justice, Supreme Court, Place 8                         Brett Busby                           Precinct 14                                            01 
01120010011000195000002000106000087000000000000REP       Justice, Supreme Court, Place 8                         Brett Busby                           Precinct 15                                            01 
01120020001000000000000000000000000000000000000REP       Justice, Supreme Court, Place 8                         OVER VOTES                            Precinct 5                                             01 
01120020002000000000000000000000000000000000000REP       Justice, Supreme Court, Place 8                         OVER VOTES                            Precinct 6                                             01 
01120020003000000000000000000000000000000000000REP       Justice, Supreme Court, Place 8                         OVER VOTES                            Precinct 7                                             01 
01120020004000000000000000000000000000000000000REP       Justice, Supreme Court, Place 8                         OVER VOTES                            Precinct 8                                             01 
01120020005000000000000000000000000000000000000REP       Justice, Supreme Court, Place 8                         OVER VOTES                            Precinct 9                                             01 
01120020006000000000000000000000000000000000000REP       Justice, Supreme Court, Place 8                         OVER VOTES                            Precinct 10                                            01 
01120020007000000000000000000000000000000000000REP       Justice, Supreme Court, Place 8                         OVER VOTES                            Precinct 11                                            01 
01120020008000000000000000000000000000000000000REP       Justice, Supreme Court, Place 8                         OVER VOTES                            Precinct 12                                            01 
01120020009000000000000000000000000000000000000REP       Justice, Supreme Court, Place 8                         OVER VOTES                            Precinct 13                                            01 
01120020010000000000000000000000000000000000000REP       Justice, Supreme Court, Place 8                         OVER VOTES                            Precinct 14                                            01 
01120020011000000000000000000000000000000000000REP       Justice, Supreme Court, Place 8                         OVER VOTES                            Precinct 15                                            01 
01120030001000014000000000007000007000000000000REP       Justice, Supreme Court, Place 8                         UNDER VOTES                           Precinct 5                                             01 
01120030002000025000000000015000010000000000000REP       Justice, Supreme Court, Place 8                         UNDER VOTES                           Precinct 6                                             01 
01120030003000210000004000109000097000000000000REP       Justice, Supreme Court, Place 8                         UNDER VOTES                           Precinct 7                                             01 
01120030004000059000002000033000024000000000000REP       Justice, Supreme Court, Place 8                         UNDER VOTES                           Precinct 8                                             01 
01120030005000054000005000021000028000000000000REP       Justice, Supreme Court, Place 8                         UNDER VOTES                           Precinct 9                                             01 
01120030006000125000005000064000056000000000000REP       Justice, Supreme Court, Place 8                         UNDER VOTES                           Precinct 10                                            01 
01120030007000010000001000006000003000000000000REP       Justice, Supreme Court, Place 8                         UNDER VOTES                           Precinct 11                                            01 
01120030008000097000002000047000048000000000000REP       Justice, Supreme Court, Place 8                         UNDER VOTES                           Precinct 12                                            01 
01120030009000054000000000029000025000000000000REP       Justice, Supreme Court, Place 8                         UNDER VOTES                           Precinct 13                                            01 
01120030010000008000000000006000002000000000000REP       Justice, Supreme Court, Place 8                         UNDER VOTES                           Precinct 14                                            01 
01120030011000133000003000074000056000000000000REP       Justice, Supreme Court, Place 8                         UNDER VOTES                           Precinct 15                                            01 
01130010001000016000000000008000008000000000000REP       Judge, Court of Crim Appeals, Pl 3                      Bert Richardson                       Precinct 5                                             01 
01130010002000053000000000028000025000000000000REP       Judge, Court of Crim Appeals, Pl 3                      Bert Richardson                       Precinct 6                                             01 
01130010003000363000014000202000147000000000000REP       Judge, Court of Crim Appeals, Pl 3                      Bert Richardson                       Precinct 7                                             01 
01130010004000154000002000090000062000000000000REP       Judge, Court of Crim Appeals, Pl 3                      Bert Richardson                       Precinct 8                                             01 
01130010005000128000002000063000063000000000000REP       Judge, Court of Crim Appeals, Pl 3                      Bert Richardson                       Precinct 9                                             01 
01130010006000246000008000143000095000000000000REP       Judge, Court of Crim Appeals, Pl 3                      Bert Richardson                       Precinct 10                                            01 
01130010007000031000003000014000014000000000000REP       Judge, Court of Crim Appeals, Pl 3                      Bert Richardson                       Precinct 11                                            01 
01130010008000175000010000090000075000000000000REP       Judge, Court of Crim Appeals, Pl 3                      Bert Richardson                       Precinct 12                                            01 
01130010009000084000001000040000043000000000000REP       Judge, Court of Crim Appeals, Pl 3                      Bert Richardson                       Precinct 13                                            01 
01130010010000031000002000017000012000000000000REP       Judge, Court of Crim Appeals, Pl 3                      Bert Richardson                       Precinct 14                                            01 
01130010011000142000002000072000068000000000000REP       Judge, Court of Crim Appeals, Pl 3                      Bert Richardson                       Precinct 15                                            01 
01130020001000016000001000008000007000000000000REP       Judge, Court of Crim Appeals, Pl 3                      Gina Parker                           Precinct 5                                             01 
01130020002000020000002000012000006000000000000REP       Judge, Court of Crim Appeals, Pl 3                      Gina Parker                           Precinct 6                                             01 
01130020003000176000002000102000072000000000000REP       Judge, Court of Crim Appeals, Pl 3                      Gina Parker                           Precinct 7                                             01 
01130020004000073000004000044000025000000000000REP       Judge, Court of Crim Appeals, Pl 3                      Gina Parker                           Precinct 8                                             01 
01130020005000055000002000023000030000000000000REP       Judge, Court of Crim Appeals, Pl 3                      Gina Parker                           Precinct 9                                             01 
01130020006000085000003000040000042000000000000REP       Judge, Court of Crim Appeals, Pl 3                      Gina Parker                           Precinct 10                                            01 
01130020007000010000001000003000006000000000000REP       Judge, Court of Crim Appeals, Pl 3                      Gina Parker                           Precinct 11                                            01 
01130020008000080000000000044000036000000000000REP       Judge, Court of Crim Appeals, Pl 3                      Gina Parker                           Precinct 12                                            01 
01130020009000050000002000021000027000000000000REP       Judge, Court of Crim Appeals, Pl 3                      Gina Parker                           Precinct 13                                            01 
01130020010000017000001000008000008000000000000REP       Judge, Court of Crim Appeals, Pl 3                      Gina Parker                           Precinct 14                                            01 
01130020011000080000000000051000029000000000000REP       Judge, Court of Crim Appeals, Pl 3                      Gina Parker                           Precinct 15                                            01 
