01010010001000553          REGISTERED VOTERS - TOTAL                               REGISTERED VOTERS - TOTAL             PRECINCT 1                                             00 
01010010002000994          REGISTERED VOTERS - TOTAL                               REGISTERED VOTERS - TOTAL             PRECINCT 2                                             00 
01010010003000748          REGISTERED VOTERS - TOTAL                               REGISTERED VOTERS - TOTAL             PRECINCT 3                                             00 
01010010004000443          REGISTERED VOTERS - TOTAL                               REGISTERED VOTERS - TOTAL             PRECINCT 4                                             00 
01010010005000348          REGISTERED VOTERS - TOTAL                               REGISTERED VOTERS - TOTAL             PRECINCT 6                                             00 
01010010006000426          REGISTERED VOTERS - TOTAL                               REGISTERED VOTERS - TOTAL             PRECINCT 7                                             00 
01010010007000034          REGISTERED VOTERS - TOTAL                               REGISTERED VOTERS - TOTAL             PRECINCT 9                                             00 
01010010008000311          REGISTERED VOTERS - TOTAL                               REGISTERED VOTERS - TOTAL             PRECINCT 11                                            00 
01040010001000038DEM       BALLOTS CAST - DEMOCRATIC PARTY                         BALLOTS CAST - DEMOCRATIC PARTY       PRECINCT 1                                             00 
01040010002000063DEM       BALLOTS CAST - DEMOCRATIC PARTY                         BALLOTS CAST - DEMOCRATIC PARTY       PRECINCT 2                                             00 
01040010003000045DEM       BALLOTS CAST - DEMOCRATIC PARTY                         BALLOTS CAST - DEMOCRATIC PARTY       PRECINCT 3                                             00 
01040010004000022DEM       BALLOTS CAST - DEMOCRATIC PARTY                         BALLOTS CAST - DEMOCRATIC PARTY       PRECINCT 4                                             00 
01040010005000011DEM       BALLOTS CAST - DEMOCRATIC PARTY                         BALLOTS CAST - DEMOCRATIC PARTY       PRECINCT 6                                             00 
01040010006000017DEM       BALLOTS CAST - DEMOCRATIC PARTY                         BALLOTS CAST - DEMOCRATIC PARTY       PRECINCT 7                                             00 
01040010007000006DEM       BALLOTS CAST - DEMOCRATIC PARTY                         BALLOTS CAST - DEMOCRATIC PARTY       PRECINCT 9                                             00 
01040010008000010DEM       BALLOTS CAST - DEMOCRATIC PARTY                         BALLOTS CAST - DEMOCRATIC PARTY       PRECINCT 11                                            00 
01260010001000015DEM       President                                               Michael R. Bloomberg                  PRECINCT 1                                             01 
01260010002000012DEM       President                                               Michael R. Bloomberg                  PRECINCT 2                                             01 
01260010003000017DEM       President                                               Michael R. Bloomberg                  PRECINCT 3                                             01 
01260010004000003DEM       President                                               Michael R. Bloomberg                  PRECINCT 4                                             01 
01260010005000001DEM       President                                               Michael R. Bloomberg                  PRECINCT 6                                             01 
01260010006000003DEM       President                                               Michael R. Bloomberg                  PRECINCT 7                                             01 
01260010007000000DEM       President                                               Michael R. Bloomberg                  PRECINCT 9                                             01 
01260010008000001DEM       President                                               Michael R. Bloomberg                  PRECINCT 11                                            01 
01260020001000000DEM       President                                               Marianne Williamson                   PRECINCT 1                                             01 
01260020002000001DEM       President                                               Marianne Williamson                   PRECINCT 2                                             01 
01260020003000000DEM       President                                               Marianne Williamson                   PRECINCT 3                                             01 
01260020004000000DEM       President                                               Marianne Williamson                   PRECINCT 4                                             01 
01260020005000000DEM       President                                               Marianne Williamson                   PRECINCT 6                                             01 
01260020006000000DEM       President                                               Marianne Williamson                   PRECINCT 7                                             01 
01260020007000000DEM       President                                               Marianne Williamson                   PRECINCT 9                                             01 
01260020008000000DEM       President                                               Marianne Williamson                   PRECINCT 11                                            01 
01260030001000002DEM       President                                               Elizabeth Warren                      PRECINCT 1                                             01 
01260030002000005DEM       President                                               Elizabeth Warren                      PRECINCT 2                                             01 
01260030003000008DEM       President                                               Elizabeth Warren                      PRECINCT 3                                             01 
01260030004000000DEM       President                                               Elizabeth Warren                      PRECINCT 4                                             01 
01260030005000001DEM       President                                               Elizabeth Warren                      PRECINCT 6                                             01 
01260030006000004DEM       President                                               Elizabeth Warren                      PRECINCT 7                                             01 
01260030007000000DEM       President                                               Elizabeth Warren                      PRECINCT 9                                             01 
01260030008000000DEM       President                                               Elizabeth Warren                      PRECINCT 11                                            01 
01260040001000016DEM       President                                               Joseph R. Biden                       PRECINCT 1                                             01 
01260040002000027DEM       President                                               Joseph R. Biden                       PRECINCT 2                                             01 
01260040003000015DEM       President                                               Joseph R. Biden                       PRECINCT 3                                             01 
01260040004000017DEM       President                                               Joseph R. Biden                       PRECINCT 4                                             01 
01260040005000008DEM       President                                               Joseph R. Biden                       PRECINCT 6                                             01 
01260040006000005DEM       President                                               Joseph R. Biden                       PRECINCT 7                                             01 
01260040007000002DEM       President                                               Joseph R. Biden                       PRECINCT 9                                             01 
01260040008000004DEM       President                                               Joseph R. Biden                       PRECINCT 11                                            01 
01260050001000000DEM       President                                               Tulsi Gabbard                         PRECINCT 1                                             01 
01260050002000000DEM       President                                               Tulsi Gabbard                         PRECINCT 2                                             01 
01260050003000000DEM       President                                               Tulsi Gabbard                         PRECINCT 3                                             01 
01260050004000000DEM       President                                               Tulsi Gabbard                         PRECINCT 4                                             01 
01260050005000000DEM       President                                               Tulsi Gabbard                         PRECINCT 6                                             01 
01260050006000000DEM       President                                               Tulsi Gabbard                         PRECINCT 7                                             01 
01260050007000000DEM       President                                               Tulsi Gabbard                         PRECINCT 9                                             01 
01260050008000000DEM       President                                               Tulsi Gabbard                         PRECINCT 11                                            01 
01260060001000000DEM       President                                               Michael Bennet                        PRECINCT 1                                             01 
01260060002000000DEM       President                                               Michael Bennet                        PRECINCT 2                                             01 
01260060003000000DEM       President                                               Michael Bennet                        PRECINCT 3                                             01 
01260060004000000DEM       President                                               Michael Bennet                        PRECINCT 4                                             01 
01260060005000000DEM       President                                               Michael Bennet                        PRECINCT 6                                             01 
01260060006000001DEM       President                                               Michael Bennet                        PRECINCT 7                                             01 
01260060007000000DEM       President                                               Michael Bennet                        PRECINCT 9                                             01 
01260060008000000DEM       President                                               Michael Bennet                        PRECINCT 11                                            01 
01260070001000000DEM       President                                               Tom Steyer                            PRECINCT 1                                             01 
01260070002000001DEM       President                                               Tom Steyer                            PRECINCT 2                                             01 
01260070003000001DEM       President                                               Tom Steyer                            PRECINCT 3                                             01 
01260070004000000DEM       President                                               Tom Steyer                            PRECINCT 4                                             01 
01260070005000000DEM       President                                               Tom Steyer                            PRECINCT 6                                             01 
01260070006000000DEM       President                                               Tom Steyer                            PRECINCT 7                                             01 
01260070007000000DEM       President                                               Tom Steyer                            PRECINCT 9                                             01 
01260070008000000DEM       President                                               Tom Steyer                            PRECINCT 11                                            01 
01260080001000000DEM       President                                               Andrew Yang                           PRECINCT 1                                             01 
01260080002000000DEM       President                                               Andrew Yang                           PRECINCT 2                                             01 
01260080003000000DEM       President                                               Andrew Yang                           PRECINCT 3                                             01 
01260080004000000DEM       President                                               Andrew Yang                           PRECINCT 4                                             01 
01260080005000000DEM       President                                               Andrew Yang                           PRECINCT 6                                             01 
01260080006000000DEM       President                                               Andrew Yang                           PRECINCT 7                                             01 
01260080007000000DEM       President                                               Andrew Yang                           PRECINCT 9                                             01 
01260080008000000DEM       President                                               Andrew Yang                           PRECINCT 11                                            01 
01260090001000001DEM       President                                               Pete Buttigieg                        PRECINCT 1                                             01 
01260090002000000DEM       President                                               Pete Buttigieg                        PRECINCT 2                                             01 
01260090003000000DEM       President                                               Pete Buttigieg                        PRECINCT 3                                             01 
01260090004000001DEM       President                                               Pete Buttigieg                        PRECINCT 4                                             01 
01260090005000000DEM       President                                               Pete Buttigieg                        PRECINCT 6                                             01 
01260090006000000DEM       President                                               Pete Buttigieg                        PRECINCT 7                                             01 
01260090007000000DEM       President                                               Pete Buttigieg                        PRECINCT 9                                             01 
01260090008000000DEM       President                                               Pete Buttigieg                        PRECINCT 11                                            01 
01260100001000000DEM       President                                               Amy Klobuchar                         PRECINCT 1                                             01 
01260100002000000DEM       President                                               Amy Klobuchar                         PRECINCT 2                                             01 
01260100003000001DEM       President                                               Amy Klobuchar                         PRECINCT 3                                             01 
01260100004000001DEM       President                                               Amy Klobuchar                         PRECINCT 4                                             01 
01260100005000000DEM       President                                               Amy Klobuchar                         PRECINCT 6                                             01 
01260100006000000DEM       President                                               Amy Klobuchar                         PRECINCT 7                                             01 
01260100007000001DEM       President                                               Amy Klobuchar                         PRECINCT 9                                             01 
01260100008000000DEM       President                                               Amy Klobuchar                         PRECINCT 11                                            01 
01260110001000000DEM       President                                               Robby Wells                           PRECINCT 1                                             01 
01260110002000000DEM       President                                               Robby Wells                           PRECINCT 2                                             01 
01260110003000000DEM       President                                               Robby Wells                           PRECINCT 3                                             01 
01260110004000000DEM       President                                               Robby Wells                           PRECINCT 4                                             01 
01260110005000000DEM       President                                               Robby Wells                           PRECINCT 6                                             01 
01260110006000001DEM       President                                               Robby Wells                           PRECINCT 7                                             01 
01260110007000000DEM       President                                               Robby Wells                           PRECINCT 9                                             01 
01260110008000000DEM       President                                               Robby Wells                           PRECINCT 11                                            01 
01260120001000001DEM       President                                               Deval Patrick                         PRECINCT 1                                             01 
01260120002000000DEM       President                                               Deval Patrick                         PRECINCT 2                                             01 
01260120003000000DEM       President                                               Deval Patrick                         PRECINCT 3                                             01 
01260120004000000DEM       President                                               Deval Patrick                         PRECINCT 4                                             01 
01260120005000000DEM       President                                               Deval Patrick                         PRECINCT 6                                             01 
01260120006000000DEM       President                                               Deval Patrick                         PRECINCT 7                                             01 
01260120007000000DEM       President                                               Deval Patrick                         PRECINCT 9                                             01 
01260120008000000DEM       President                                               Deval Patrick                         PRECINCT 11                                            01 
01260130001000000DEM       President                                               Julian Castro                         PRECINCT 1                                             01 
01260130002000001DEM       President                                               Julian Castro                         PRECINCT 2                                             01 
01260130003000000DEM       President                                               Julian Castro                         PRECINCT 3                                             01 
01260130004000000DEM       President                                               Julian Castro                         PRECINCT 4                                             01 
01260130005000000DEM       President                                               Julian Castro                         PRECINCT 6                                             01 
01260130006000001DEM       President                                               Julian Castro                         PRECINCT 7                                             01 
01260130007000000DEM       President                                               Julian Castro                         PRECINCT 9                                             01 
01260130008000001DEM       President                                               Julian Castro                         PRECINCT 11                                            01 
01260140001000000DEM       President                                               John K. Delaney                       PRECINCT 1                                             01 
01260140002000001DEM       President                                               John K. Delaney                       PRECINCT 2                                             01 
01260140003000000DEM       President                                               John K. Delaney                       PRECINCT 3                                             01 
01260140004000000DEM       President                                               John K. Delaney                       PRECINCT 4                                             01 
01260140005000000DEM       President                                               John K. Delaney                       PRECINCT 6                                             01 
01260140006000000DEM       President                                               John K. Delaney                       PRECINCT 7                                             01 
01260140007000000DEM       President                                               John K. Delaney                       PRECINCT 9                                             01 
01260140008000000DEM       President                                               John K. Delaney                       PRECINCT 11                                            01 
01260150001000002DEM       President                                               Bernie Sanders                        PRECINCT 1                                             01 
01260150002000010DEM       President                                               Bernie Sanders                        PRECINCT 2                                             01 
01260150003000003DEM       President                                               Bernie Sanders                        PRECINCT 3                                             01 
01260150004000000DEM       President                                               Bernie Sanders                        PRECINCT 4                                             01 
01260150005000001DEM       President                                               Bernie Sanders                        PRECINCT 6                                             01 
01260150006000002DEM       President                                               Bernie Sanders                        PRECINCT 7                                             01 
01260150007000003DEM       President                                               Bernie Sanders                        PRECINCT 9                                             01 
01260150008000003DEM       President                                               Bernie Sanders                        PRECINCT 11                                            01 
01260160001000000DEM       President                                               Roque "Rocky" De La Fuente            PRECINCT 1                                             01 
01260160002000000DEM       President                                               Roque "Rocky" De La Fuente            PRECINCT 2                                             01 
01260160003000000DEM       President                                               Roque "Rocky" De La Fuente            PRECINCT 3                                             01 
01260160004000000DEM       President                                               Roque "Rocky" De La Fuente            PRECINCT 4                                             01 
01260160005000000DEM       President                                               Roque "Rocky" De La Fuente            PRECINCT 6                                             01 
01260160006000000DEM       President                                               Roque "Rocky" De La Fuente            PRECINCT 7                                             01 
01260160007000000DEM       President                                               Roque "Rocky" De La Fuente            PRECINCT 9                                             01 
01260160008000000DEM       President                                               Roque "Rocky" De La Fuente            PRECINCT 11                                            01 
01260170001000000DEM       President                                               Cory Booker                           PRECINCT 1                                             01 
01260170002000001DEM       President                                               Cory Booker                           PRECINCT 2                                             01 
01260170003000000DEM       President                                               Cory Booker                           PRECINCT 3                                             01 
01260170004000000DEM       President                                               Cory Booker                           PRECINCT 4                                             01 
01260170005000000DEM       President                                               Cory Booker                           PRECINCT 6                                             01 
01260170006000000DEM       President                                               Cory Booker                           PRECINCT 7                                             01 
01260170007000000DEM       President                                               Cory Booker                           PRECINCT 9                                             01 
01260170008000000DEM       President                                               Cory Booker                           PRECINCT 11                                            01 
01260180001000000DEM       President                                               OVER VOTES                            PRECINCT 1                                             01 
01260180002000000DEM       President                                               OVER VOTES                            PRECINCT 2                                             01 
01260180003000000DEM       President                                               OVER VOTES                            PRECINCT 3                                             01 
01260180004000000DEM       President                                               OVER VOTES                            PRECINCT 4                                             01 
01260180005000000DEM       President                                               OVER VOTES                            PRECINCT 6                                             01 
01260180006000000DEM       President                                               OVER VOTES                            PRECINCT 7                                             01 
01260180007000000DEM       President                                               OVER VOTES                            PRECINCT 9                                             01 
01260180008000000DEM       President                                               OVER VOTES                            PRECINCT 11                                            01 
01260190001000001DEM       President                                               UNDER VOTES                           PRECINCT 1                                             01 
01260190002000004DEM       President                                               UNDER VOTES                           PRECINCT 2                                             01 
01260190003000000DEM       President                                               UNDER VOTES                           PRECINCT 3                                             01 
01260190004000000DEM       President                                               UNDER VOTES                           PRECINCT 4                                             01 
01260190005000000DEM       President                                               UNDER VOTES                           PRECINCT 6                                             01 
01260190006000000DEM       President                                               UNDER VOTES                           PRECINCT 7                                             01 
01260190007000000DEM       President                                               UNDER VOTES                           PRECINCT 9                                             01 
01260190008000001DEM       President                                               UNDER VOTES                           PRECINCT 11                                            01 
01270010001000008DEM       United States Senator                                   Annie "Mama" Garcia                   PRECINCT 1                                             01 
01270010002000015DEM       United States Senator                                   Annie "Mama" Garcia                   PRECINCT 2                                             01 
01270010003000006DEM       United States Senator                                   Annie "Mama" Garcia                   PRECINCT 3                                             01 
01270010004000005DEM       United States Senator                                   Annie "Mama" Garcia                   PRECINCT 4                                             01 
01270010005000003DEM       United States Senator                                   Annie "Mama" Garcia                   PRECINCT 6                                             01 
01270010006000004DEM       United States Senator                                   Annie "Mama" Garcia                   PRECINCT 7                                             01 
01270010007000002DEM       United States Senator                                   Annie "Mama" Garcia                   PRECINCT 9                                             01 
01270010008000003DEM       United States Senator                                   Annie "Mama" Garcia                   PRECINCT 11                                            01 
01270020001000013DEM       United States Senator                                   Chris Bell                            PRECINCT 1                                             01 
01270020002000017DEM       United States Senator                                   Chris Bell                            PRECINCT 2                                             01 
01270020003000012DEM       United States Senator                                   Chris Bell                            PRECINCT 3                                             01 
01270020004000004DEM       United States Senator                                   Chris Bell                            PRECINCT 4                                             01 
01270020005000000DEM       United States Senator                                   Chris Bell                            PRECINCT 6                                             01 
01270020006000004DEM       United States Senator                                   Chris Bell                            PRECINCT 7                                             01 
01270020007000002DEM       United States Senator                                   Chris Bell                            PRECINCT 9                                             01 
01270020008000000DEM       United States Senator                                   Chris Bell                            PRECINCT 11                                            01 
01270030001000002DEM       United States Senator                                   Amanda K. Edwards                     PRECINCT 1                                             01 
01270030002000001DEM       United States Senator                                   Amanda K. Edwards                     PRECINCT 2                                             01 
01270030003000007DEM       United States Senator                                   Amanda K. Edwards                     PRECINCT 3                                             01 
01270030004000000DEM       United States Senator                                   Amanda K. Edwards                     PRECINCT 4                                             01 
01270030005000001DEM       United States Senator                                   Amanda K. Edwards                     PRECINCT 6                                             01 
01270030006000001DEM       United States Senator                                   Amanda K. Edwards                     PRECINCT 7                                             01 
01270030007000001DEM       United States Senator                                   Amanda K. Edwards                     PRECINCT 9                                             01 
01270030008000000DEM       United States Senator                                   Amanda K. Edwards                     PRECINCT 11                                            01 
01270040001000000DEM       United States Senator                                   Victor Hugo Harris                    PRECINCT 1                                             01 
01270040002000003DEM       United States Senator                                   Victor Hugo Harris                    PRECINCT 2                                             01 
01270040003000000DEM       United States Senator                                   Victor Hugo Harris                    PRECINCT 3                                             01 
01270040004000001DEM       United States Senator                                   Victor Hugo Harris                    PRECINCT 4                                             01 
01270040005000000DEM       United States Senator                                   Victor Hugo Harris                    PRECINCT 6                                             01 
01270040006000001DEM       United States Senator                                   Victor Hugo Harris                    PRECINCT 7                                             01 
01270040007000000DEM       United States Senator                                   Victor Hugo Harris                    PRECINCT 9                                             01 
01270040008000000DEM       United States Senator                                   Victor Hugo Harris                    PRECINCT 11                                            01 
01270050001000003DEM       United States Senator                                   Royce West                            PRECINCT 1                                             01 
01270050002000000DEM       United States Senator                                   Royce West                            PRECINCT 2                                             01 
01270050003000002DEM       United States Senator                                   Royce West                            PRECINCT 3                                             01 
01270050004000004DEM       United States Senator                                   Royce West                            PRECINCT 4                                             01 
01270050005000001DEM       United States Senator                                   Royce West                            PRECINCT 6                                             01 
01270050006000000DEM       United States Senator                                   Royce West                            PRECINCT 7                                             01 
01270050007000000DEM       United States Senator                                   Royce West                            PRECINCT 9                                             01 
01270050008000000DEM       United States Senator                                   Royce West                            PRECINCT 11                                            01 
01270060001000000DEM       United States Senator                                   Michael Cooper                        PRECINCT 1                                             01 
01270060002000004DEM       United States Senator                                   Michael Cooper                        PRECINCT 2                                             01 
01270060003000002DEM       United States Senator                                   Michael Cooper                        PRECINCT 3                                             01 
01270060004000002DEM       United States Senator                                   Michael Cooper                        PRECINCT 4                                             01 
01270060005000001DEM       United States Senator                                   Michael Cooper                        PRECINCT 6                                             01 
01270060006000001DEM       United States Senator                                   Michael Cooper                        PRECINCT 7                                             01 
01270060007000000DEM       United States Senator                                   Michael Cooper                        PRECINCT 9                                             01 
01270060008000000DEM       United States Senator                                   Michael Cooper                        PRECINCT 11                                            01 
01270070001000001DEM       United States Senator                                   Adrian Ocegueda                       PRECINCT 1                                             01 
01270070002000000DEM       United States Senator                                   Adrian Ocegueda                       PRECINCT 2                                             01 
01270070003000000DEM       United States Senator                                   Adrian Ocegueda                       PRECINCT 3                                             01 
01270070004000000DEM       United States Senator                                   Adrian Ocegueda                       PRECINCT 4                                             01 
01270070005000001DEM       United States Senator                                   Adrian Ocegueda                       PRECINCT 6                                             01 
01270070006000001DEM       United States Senator                                   Adrian Ocegueda                       PRECINCT 7                                             01 
01270070007000000DEM       United States Senator                                   Adrian Ocegueda                       PRECINCT 9                                             01 
01270070008000000DEM       United States Senator                                   Adrian Ocegueda                       PRECINCT 11                                            01 
01270080001000002DEM       United States Senator                                   Sema Hernandez                        PRECINCT 1                                             01 
01270080002000002DEM       United States Senator                                   Sema Hernandez                        PRECINCT 2                                             01 
01270080003000003DEM       United States Senator                                   Sema Hernandez                        PRECINCT 3                                             01 
01270080004000000DEM       United States Senator                                   Sema Hernandez                        PRECINCT 4                                             01 
01270080005000001DEM       United States Senator                                   Sema Hernandez                        PRECINCT 6                                             01 
01270080006000001DEM       United States Senator                                   Sema Hernandez                        PRECINCT 7                                             01 
01270080007000000DEM       United States Senator                                   Sema Hernandez                        PRECINCT 9                                             01 
01270080008000002DEM       United States Senator                                   Sema Hernandez                        PRECINCT 11                                            01 
01270090001000001DEM       United States Senator                                   Jack Daniel Foster, Jr.               PRECINCT 1                                             01 
01270090002000002DEM       United States Senator                                   Jack Daniel Foster, Jr.               PRECINCT 2                                             01 
01270090003000005DEM       United States Senator                                   Jack Daniel Foster, Jr.               PRECINCT 3                                             01 
01270090004000001DEM       United States Senator                                   Jack Daniel Foster, Jr.               PRECINCT 4                                             01 
01270090005000000DEM       United States Senator                                   Jack Daniel Foster, Jr.               PRECINCT 6                                             01 
01270090006000000DEM       United States Senator                                   Jack Daniel Foster, Jr.               PRECINCT 7                                             01 
01270090007000000DEM       United States Senator                                   Jack Daniel Foster, Jr.               PRECINCT 9                                             01 
01270090008000000DEM       United States Senator                                   Jack Daniel Foster, Jr.               PRECINCT 11                                            01 
01270100001000003DEM       United States Senator                                   Cristina Tzintzun Ramirez             PRECINCT 1                                             01 
01270100002000005DEM       United States Senator                                   Cristina Tzintzun Ramirez             PRECINCT 2                                             01 
01270100003000001DEM       United States Senator                                   Cristina Tzintzun Ramirez             PRECINCT 3                                             01 
01270100004000001DEM       United States Senator                                   Cristina Tzintzun Ramirez             PRECINCT 4                                             01 
01270100005000002DEM       United States Senator                                   Cristina Tzintzun Ramirez             PRECINCT 6                                             01 
01270100006000001DEM       United States Senator                                   Cristina Tzintzun Ramirez             PRECINCT 7                                             01 
01270100007000000DEM       United States Senator                                   Cristina Tzintzun Ramirez             PRECINCT 9                                             01 
01270100008000002DEM       United States Senator                                   Cristina Tzintzun Ramirez             PRECINCT 11                                            01 
01270110001000002DEM       United States Senator                                   Mary (MJ) Hegar                       PRECINCT 1                                             01 
01270110002000005DEM       United States Senator                                   Mary (MJ) Hegar                       PRECINCT 2                                             01 
01270110003000004DEM       United States Senator                                   Mary (MJ) Hegar                       PRECINCT 3                                             01 
01270110004000002DEM       United States Senator                                   Mary (MJ) Hegar                       PRECINCT 4                                             01 
01270110005000001DEM       United States Senator                                   Mary (MJ) Hegar                       PRECINCT 6                                             01 
01270110006000003DEM       United States Senator                                   Mary (MJ) Hegar                       PRECINCT 7                                             01 
01270110007000001DEM       United States Senator                                   Mary (MJ) Hegar                       PRECINCT 9                                             01 
01270110008000001DEM       United States Senator                                   Mary (MJ) Hegar                       PRECINCT 11                                            01 
01270120001000001DEM       United States Senator                                   D. R. Hunter                          PRECINCT 1                                             01 
01270120002000003DEM       United States Senator                                   D. R. Hunter                          PRECINCT 2                                             01 
01270120003000002DEM       United States Senator                                   D. R. Hunter                          PRECINCT 3                                             01 
01270120004000000DEM       United States Senator                                   D. R. Hunter                          PRECINCT 4                                             01 
01270120005000000DEM       United States Senator                                   D. R. Hunter                          PRECINCT 6                                             01 
01270120006000000DEM       United States Senator                                   D. R. Hunter                          PRECINCT 7                                             01 
01270120007000000DEM       United States Senator                                   D. R. Hunter                          PRECINCT 9                                             01 
01270120008000001DEM       United States Senator                                   D. R. Hunter                          PRECINCT 11                                            01 
01270130001000000DEM       United States Senator                                   OVER VOTES                            PRECINCT 1                                             01 
01270130002000000DEM       United States Senator                                   OVER VOTES                            PRECINCT 2                                             01 
01270130003000000DEM       United States Senator                                   OVER VOTES                            PRECINCT 3                                             01 
01270130004000000DEM       United States Senator                                   OVER VOTES                            PRECINCT 4                                             01 
01270130005000000DEM       United States Senator                                   OVER VOTES                            PRECINCT 6                                             01 
01270130006000000DEM       United States Senator                                   OVER VOTES                            PRECINCT 7                                             01 
01270130007000000DEM       United States Senator                                   OVER VOTES                            PRECINCT 9                                             01 
01270130008000000DEM       United States Senator                                   OVER VOTES                            PRECINCT 11                                            01 
01270140001000002DEM       United States Senator                                   UNDER VOTES                           PRECINCT 1                                             01 
01270140002000006DEM       United States Senator                                   UNDER VOTES                           PRECINCT 2                                             01 
01270140003000001DEM       United States Senator                                   UNDER VOTES                           PRECINCT 3                                             01 
01270140004000002DEM       United States Senator                                   UNDER VOTES                           PRECINCT 4                                             01 
01270140005000000DEM       United States Senator                                   UNDER VOTES                           PRECINCT 6                                             01 
01270140006000000DEM       United States Senator                                   UNDER VOTES                           PRECINCT 7                                             01 
01270140007000000DEM       United States Senator                                   UNDER VOTES                           PRECINCT 9                                             01 
01270140008000001DEM       United States Senator                                   UNDER VOTES                           PRECINCT 11                                            01 
01280010001000010DEM       United States Rep, District 13                          Greg Sagan                            PRECINCT 1                                             01 
01280010002000025DEM       United States Rep, District 13                          Greg Sagan                            PRECINCT 2                                             01 
01280010003000016DEM       United States Rep, District 13                          Greg Sagan                            PRECINCT 3                                             01 
01280010004000012DEM       United States Rep, District 13                          Greg Sagan                            PRECINCT 4                                             01 
01280010005000001DEM       United States Rep, District 13                          Greg Sagan                            PRECINCT 6                                             01 
01280010006000007DEM       United States Rep, District 13                          Greg Sagan                            PRECINCT 7                                             01 
01280010007000001DEM       United States Rep, District 13                          Greg Sagan                            PRECINCT 9                                             01 
01280010008000004DEM       United States Rep, District 13                          Greg Sagan                            PRECINCT 11                                            01 
01280020001000008DEM       United States Rep, District 13                          Timothy W. Gassaway                   PRECINCT 1                                             01 
01280020002000006DEM       United States Rep, District 13                          Timothy W. Gassaway                   PRECINCT 2                                             01 
01280020003000009DEM       United States Rep, District 13                          Timothy W. Gassaway                   PRECINCT 3                                             01 
01280020004000004DEM       United States Rep, District 13                          Timothy W. Gassaway                   PRECINCT 4                                             01 
01280020005000001DEM       United States Rep, District 13                          Timothy W. Gassaway                   PRECINCT 6                                             01 
01280020006000004DEM       United States Rep, District 13                          Timothy W. Gassaway                   PRECINCT 7                                             01 
01280020007000002DEM       United States Rep, District 13                          Timothy W. Gassaway                   PRECINCT 9                                             01 
01280020008000001DEM       United States Rep, District 13                          Timothy W. Gassaway                   PRECINCT 11                                            01 
01280030001000013DEM       United States Rep, District 13                          Gus Trujillo                          PRECINCT 1                                             01 
01280030002000018DEM       United States Rep, District 13                          Gus Trujillo                          PRECINCT 2                                             01 
01280030003000009DEM       United States Rep, District 13                          Gus Trujillo                          PRECINCT 3                                             01 
01280030004000004DEM       United States Rep, District 13                          Gus Trujillo                          PRECINCT 4                                             01 
01280030005000007DEM       United States Rep, District 13                          Gus Trujillo                          PRECINCT 6                                             01 
01280030006000004DEM       United States Rep, District 13                          Gus Trujillo                          PRECINCT 7                                             01 
01280030007000000DEM       United States Rep, District 13                          Gus Trujillo                          PRECINCT 9                                             01 
01280030008000001DEM       United States Rep, District 13                          Gus Trujillo                          PRECINCT 11                                            01 
01280040001000000DEM       United States Rep, District 13                          OVER VOTES                            PRECINCT 1                                             01 
01280040002000000DEM       United States Rep, District 13                          OVER VOTES                            PRECINCT 2                                             01 
01280040003000000DEM       United States Rep, District 13                          OVER VOTES                            PRECINCT 3                                             01 
01280040004000000DEM       United States Rep, District 13                          OVER VOTES                            PRECINCT 4                                             01 
01280040005000000DEM       United States Rep, District 13                          OVER VOTES                            PRECINCT 6                                             01 
01280040006000000DEM       United States Rep, District 13                          OVER VOTES                            PRECINCT 7                                             01 
01280040007000000DEM       United States Rep, District 13                          OVER VOTES                            PRECINCT 9                                             01 
01280040008000000DEM       United States Rep, District 13                          OVER VOTES                            PRECINCT 11                                            01 
01280050001000007DEM       United States Rep, District 13                          UNDER VOTES                           PRECINCT 1                                             01 
01280050002000014DEM       United States Rep, District 13                          UNDER VOTES                           PRECINCT 2                                             01 
01280050003000011DEM       United States Rep, District 13                          UNDER VOTES                           PRECINCT 3                                             01 
01280050004000002DEM       United States Rep, District 13                          UNDER VOTES                           PRECINCT 4                                             01 
01280050005000002DEM       United States Rep, District 13                          UNDER VOTES                           PRECINCT 6                                             01 
01280050006000002DEM       United States Rep, District 13                          UNDER VOTES                           PRECINCT 7                                             01 
01280050007000003DEM       United States Rep, District 13                          UNDER VOTES                           PRECINCT 9                                             01 
01280050008000004DEM       United States Rep, District 13                          UNDER VOTES                           PRECINCT 11                                            01 
01290010001000006DEM       Railroad Commissioner                                   Kelly Stone                           PRECINCT 1                                             01 
01290010002000019DEM       Railroad Commissioner                                   Kelly Stone                           PRECINCT 2                                             01 
01290010003000016DEM       Railroad Commissioner                                   Kelly Stone                           PRECINCT 3                                             01 
01290010004000005DEM       Railroad Commissioner                                   Kelly Stone                           PRECINCT 4                                             01 
01290010005000001DEM       Railroad Commissioner                                   Kelly Stone                           PRECINCT 6                                             01 
01290010006000006DEM       Railroad Commissioner                                   Kelly Stone                           PRECINCT 7                                             01 
01290010007000003DEM       Railroad Commissioner                                   Kelly Stone                           PRECINCT 9                                             01 
01290010008000003DEM       Railroad Commissioner                                   Kelly Stone                           PRECINCT 11                                            01 
01290020001000014DEM       Railroad Commissioner                                   Mark Watson                           PRECINCT 1                                             01 
01290020002000010DEM       Railroad Commissioner                                   Mark Watson                           PRECINCT 2                                             01 
01290020003000015DEM       Railroad Commissioner                                   Mark Watson                           PRECINCT 3                                             01 
01290020004000005DEM       Railroad Commissioner                                   Mark Watson                           PRECINCT 4                                             01 
01290020005000000DEM       Railroad Commissioner                                   Mark Watson                           PRECINCT 6                                             01 
01290020006000002DEM       Railroad Commissioner                                   Mark Watson                           PRECINCT 7                                             01 
01290020007000001DEM       Railroad Commissioner                                   Mark Watson                           PRECINCT 9                                             01 
01290020008000001DEM       Railroad Commissioner                                   Mark Watson                           PRECINCT 11                                            01 
01290030001000006DEM       Railroad Commissioner                                   Chrysta Castaneda                     PRECINCT 1                                             01 
01290030002000011DEM       Railroad Commissioner                                   Chrysta Castaneda                     PRECINCT 2                                             01 
01290030003000006DEM       Railroad Commissioner                                   Chrysta Castaneda                     PRECINCT 3                                             01 
01290030004000005DEM       Railroad Commissioner                                   Chrysta Castaneda                     PRECINCT 4                                             01 
01290030005000003DEM       Railroad Commissioner                                   Chrysta Castaneda                     PRECINCT 6                                             01 
01290030006000008DEM       Railroad Commissioner                                   Chrysta Castaneda                     PRECINCT 7                                             01 
01290030007000001DEM       Railroad Commissioner                                   Chrysta Castaneda                     PRECINCT 9                                             01 
01290030008000002DEM       Railroad Commissioner                                   Chrysta Castaneda                     PRECINCT 11                                            01 
01290040001000007DEM       Railroad Commissioner                                   Roberto R. "Beto" Alonzo              PRECINCT 1                                             01 
01290040002000015DEM       Railroad Commissioner                                   Roberto R. "Beto" Alonzo              PRECINCT 2                                             01 
01290040003000001DEM       Railroad Commissioner                                   Roberto R. "Beto" Alonzo              PRECINCT 3                                             01 
01290040004000004DEM       Railroad Commissioner                                   Roberto R. "Beto" Alonzo              PRECINCT 4                                             01 
01290040005000007DEM       Railroad Commissioner                                   Roberto R. "Beto" Alonzo              PRECINCT 6                                             01 
01290040006000001DEM       Railroad Commissioner                                   Roberto R. "Beto" Alonzo              PRECINCT 7                                             01 
01290040007000000DEM       Railroad Commissioner                                   Roberto R. "Beto" Alonzo              PRECINCT 9                                             01 
01290040008000001DEM       Railroad Commissioner                                   Roberto R. "Beto" Alonzo              PRECINCT 11                                            01 
01290050001000000DEM       Railroad Commissioner                                   OVER VOTES                            PRECINCT 1                                             01 
01290050002000000DEM       Railroad Commissioner                                   OVER VOTES                            PRECINCT 2                                             01 
01290050003000000DEM       Railroad Commissioner                                   OVER VOTES                            PRECINCT 3                                             01 
01290050004000000DEM       Railroad Commissioner                                   OVER VOTES                            PRECINCT 4                                             01 
01290050005000000DEM       Railroad Commissioner                                   OVER VOTES                            PRECINCT 6                                             01 
01290050006000000DEM       Railroad Commissioner                                   OVER VOTES                            PRECINCT 7                                             01 
01290050007000000DEM       Railroad Commissioner                                   OVER VOTES                            PRECINCT 9                                             01 
01290050008000000DEM       Railroad Commissioner                                   OVER VOTES                            PRECINCT 11                                            01 
01290060001000005DEM       Railroad Commissioner                                   UNDER VOTES                           PRECINCT 1                                             01 
01290060002000008DEM       Railroad Commissioner                                   UNDER VOTES                           PRECINCT 2                                             01 
01290060003000007DEM       Railroad Commissioner                                   UNDER VOTES                           PRECINCT 3                                             01 
01290060004000003DEM       Railroad Commissioner                                   UNDER VOTES                           PRECINCT 4                                             01 
01290060005000000DEM       Railroad Commissioner                                   UNDER VOTES                           PRECINCT 6                                             01 
01290060006000000DEM       Railroad Commissioner                                   UNDER VOTES                           PRECINCT 7                                             01 
01290060007000001DEM       Railroad Commissioner                                   UNDER VOTES                           PRECINCT 9                                             01 
01290060008000003DEM       Railroad Commissioner                                   UNDER VOTES                           PRECINCT 11                                            01 
01300010001000009DEM       Chief Justice, Supreme Court                            Jerry Zimmerer                        PRECINCT 1                                             01 
01300010002000018DEM       Chief Justice, Supreme Court                            Jerry Zimmerer                        PRECINCT 2                                             01 
01300010003000011DEM       Chief Justice, Supreme Court                            Jerry Zimmerer                        PRECINCT 3                                             01 
01300010004000006DEM       Chief Justice, Supreme Court                            Jerry Zimmerer                        PRECINCT 4                                             01 
01300010005000004DEM       Chief Justice, Supreme Court                            Jerry Zimmerer                        PRECINCT 6                                             01 
01300010006000005DEM       Chief Justice, Supreme Court                            Jerry Zimmerer                        PRECINCT 7                                             01 
01300010007000002DEM       Chief Justice, Supreme Court                            Jerry Zimmerer                        PRECINCT 9                                             01 
01300010008000002DEM       Chief Justice, Supreme Court                            Jerry Zimmerer                        PRECINCT 11                                            01 
01300020001000023DEM       Chief Justice, Supreme Court                            Amy Clark Meachum                     PRECINCT 1                                             01 
01300020002000036DEM       Chief Justice, Supreme Court                            Amy Clark Meachum                     PRECINCT 2                                             01 
01300020003000027DEM       Chief Justice, Supreme Court                            Amy Clark Meachum                     PRECINCT 3                                             01 
01300020004000012DEM       Chief Justice, Supreme Court                            Amy Clark Meachum                     PRECINCT 4                                             01 
01300020005000007DEM       Chief Justice, Supreme Court                            Amy Clark Meachum                     PRECINCT 6                                             01 
01300020006000012DEM       Chief Justice, Supreme Court                            Amy Clark Meachum                     PRECINCT 7                                             01 
01300020007000003DEM       Chief Justice, Supreme Court                            Amy Clark Meachum                     PRECINCT 9                                             01 
01300020008000005DEM       Chief Justice, Supreme Court                            Amy Clark Meachum                     PRECINCT 11                                            01 
01300030001000000DEM       Chief Justice, Supreme Court                            OVER VOTES                            PRECINCT 1                                             01 
01300030002000000DEM       Chief Justice, Supreme Court                            OVER VOTES                            PRECINCT 2                                             01 
01300030003000000DEM       Chief Justice, Supreme Court                            OVER VOTES                            PRECINCT 3                                             01 
01300030004000000DEM       Chief Justice, Supreme Court                            OVER VOTES                            PRECINCT 4                                             01 
01300030005000000DEM       Chief Justice, Supreme Court                            OVER VOTES                            PRECINCT 6                                             01 
01300030006000000DEM       Chief Justice, Supreme Court                            OVER VOTES                            PRECINCT 7                                             01 
01300030007000000DEM       Chief Justice, Supreme Court                            OVER VOTES                            PRECINCT 9                                             01 
01300030008000000DEM       Chief Justice, Supreme Court                            OVER VOTES                            PRECINCT 11                                            01 
01300040001000006DEM       Chief Justice, Supreme Court                            UNDER VOTES                           PRECINCT 1                                             01 
01300040002000009DEM       Chief Justice, Supreme Court                            UNDER VOTES                           PRECINCT 2                                             01 
01300040003000007DEM       Chief Justice, Supreme Court                            UNDER VOTES                           PRECINCT 3                                             01 
01300040004000004DEM       Chief Justice, Supreme Court                            UNDER VOTES                           PRECINCT 4                                             01 
01300040005000000DEM       Chief Justice, Supreme Court                            UNDER VOTES                           PRECINCT 6                                             01 
01300040006000000DEM       Chief Justice, Supreme Court                            UNDER VOTES                           PRECINCT 7                                             01 
01300040007000001DEM       Chief Justice, Supreme Court                            UNDER VOTES                           PRECINCT 9                                             01 
01300040008000003DEM       Chief Justice, Supreme Court                            UNDER VOTES                           PRECINCT 11                                            01 
01310010001000025DEM       Justice, Supreme Court, Place 6, Unexpir                Kathy Cheng                           PRECINCT 1                                             01 
01310010002000034DEM       Justice, Supreme Court, Place 6, Unexpir                Kathy Cheng                           PRECINCT 2                                             01 
01310010003000024DEM       Justice, Supreme Court, Place 6, Unexpir                Kathy Cheng                           PRECINCT 3                                             01 
01310010004000009DEM       Justice, Supreme Court, Place 6, Unexpir                Kathy Cheng                           PRECINCT 4                                             01 
01310010005000009DEM       Justice, Supreme Court, Place 6, Unexpir                Kathy Cheng                           PRECINCT 6                                             01 
01310010006000011DEM       Justice, Supreme Court, Place 6, Unexpir                Kathy Cheng                           PRECINCT 7                                             01 
01310010007000003DEM       Justice, Supreme Court, Place 6, Unexpir                Kathy Cheng                           PRECINCT 9                                             01 
01310010008000006DEM       Justice, Supreme Court, Place 6, Unexpir                Kathy Cheng                           PRECINCT 11                                            01 
01310020001000008DEM       Justice, Supreme Court, Place 6, Unexpir                Larry Praeger                         PRECINCT 1                                             01 
01310020002000021DEM       Justice, Supreme Court, Place 6, Unexpir                Larry Praeger                         PRECINCT 2                                             01 
01310020003000015DEM       Justice, Supreme Court, Place 6, Unexpir                Larry Praeger                         PRECINCT 3                                             01 
01310020004000008DEM       Justice, Supreme Court, Place 6, Unexpir                Larry Praeger                         PRECINCT 4                                             01 
01310020005000002DEM       Justice, Supreme Court, Place 6, Unexpir                Larry Praeger                         PRECINCT 6                                             01 
01310020006000006DEM       Justice, Supreme Court, Place 6, Unexpir                Larry Praeger                         PRECINCT 7                                             01 
01310020007000001DEM       Justice, Supreme Court, Place 6, Unexpir                Larry Praeger                         PRECINCT 9                                             01 
01310020008000001DEM       Justice, Supreme Court, Place 6, Unexpir                Larry Praeger                         PRECINCT 11                                            01 
01310030001000000DEM       Justice, Supreme Court, Place 6, Unexpir                OVER VOTES                            PRECINCT 1                                             01 
01310030002000000DEM       Justice, Supreme Court, Place 6, Unexpir                OVER VOTES                            PRECINCT 2                                             01 
01310030003000000DEM       Justice, Supreme Court, Place 6, Unexpir                OVER VOTES                            PRECINCT 3                                             01 
01310030004000000DEM       Justice, Supreme Court, Place 6, Unexpir                OVER VOTES                            PRECINCT 4                                             01 
01310030005000000DEM       Justice, Supreme Court, Place 6, Unexpir                OVER VOTES                            PRECINCT 6                                             01 
01310030006000000DEM       Justice, Supreme Court, Place 6, Unexpir                OVER VOTES                            PRECINCT 7                                             01 
01310030007000000DEM       Justice, Supreme Court, Place 6, Unexpir                OVER VOTES                            PRECINCT 9                                             01 
01310030008000000DEM       Justice, Supreme Court, Place 6, Unexpir                OVER VOTES                            PRECINCT 11                                            01 
01310040001000005DEM       Justice, Supreme Court, Place 6, Unexpir                UNDER VOTES                           PRECINCT 1                                             01 
01310040002000008DEM       Justice, Supreme Court, Place 6, Unexpir                UNDER VOTES                           PRECINCT 2                                             01 
01310040003000006DEM       Justice, Supreme Court, Place 6, Unexpir                UNDER VOTES                           PRECINCT 3                                             01 
01310040004000005DEM       Justice, Supreme Court, Place 6, Unexpir                UNDER VOTES                           PRECINCT 4                                             01 
01310040005000000DEM       Justice, Supreme Court, Place 6, Unexpir                UNDER VOTES                           PRECINCT 6                                             01 
01310040006000000DEM       Justice, Supreme Court, Place 6, Unexpir                UNDER VOTES                           PRECINCT 7                                             01 
01310040007000002DEM       Justice, Supreme Court, Place 6, Unexpir                UNDER VOTES                           PRECINCT 9                                             01 
01310040008000003DEM       Justice, Supreme Court, Place 6, Unexpir                UNDER VOTES                           PRECINCT 11                                            01 
01320010001000027DEM       Justice, Supreme Court, Place 7                         Staci Williams                        PRECINCT 1                                             01 
01320010002000033DEM       Justice, Supreme Court, Place 7                         Staci Williams                        PRECINCT 2                                             01 
01320010003000027DEM       Justice, Supreme Court, Place 7                         Staci Williams                        PRECINCT 3                                             01 
01320010004000011DEM       Justice, Supreme Court, Place 7                         Staci Williams                        PRECINCT 4                                             01 
01320010005000008DEM       Justice, Supreme Court, Place 7                         Staci Williams                        PRECINCT 6                                             01 
01320010006000013DEM       Justice, Supreme Court, Place 7                         Staci Williams                        PRECINCT 7                                             01 
01320010007000003DEM       Justice, Supreme Court, Place 7                         Staci Williams                        PRECINCT 9                                             01 
01320010008000007DEM       Justice, Supreme Court, Place 7                         Staci Williams                        PRECINCT 11                                            01 
01320020001000005DEM       Justice, Supreme Court, Place 7                         Brandy Voss                           PRECINCT 1                                             01 
01320020002000023DEM       Justice, Supreme Court, Place 7                         Brandy Voss                           PRECINCT 2                                             01 
01320020003000011DEM       Justice, Supreme Court, Place 7                         Brandy Voss                           PRECINCT 3                                             01 
01320020004000007DEM       Justice, Supreme Court, Place 7                         Brandy Voss                           PRECINCT 4                                             01 
01320020005000002DEM       Justice, Supreme Court, Place 7                         Brandy Voss                           PRECINCT 6                                             01 
01320020006000004DEM       Justice, Supreme Court, Place 7                         Brandy Voss                           PRECINCT 7                                             01 
01320020007000000DEM       Justice, Supreme Court, Place 7                         Brandy Voss                           PRECINCT 9                                             01 
01320020008000001DEM       Justice, Supreme Court, Place 7                         Brandy Voss                           PRECINCT 11                                            01 
01320030001000000DEM       Justice, Supreme Court, Place 7                         OVER VOTES                            PRECINCT 1                                             01 
01320030002000000DEM       Justice, Supreme Court, Place 7                         OVER VOTES                            PRECINCT 2                                             01 
01320030003000000DEM       Justice, Supreme Court, Place 7                         OVER VOTES                            PRECINCT 3                                             01 
01320030004000000DEM       Justice, Supreme Court, Place 7                         OVER VOTES                            PRECINCT 4                                             01 
01320030005000000DEM       Justice, Supreme Court, Place 7                         OVER VOTES                            PRECINCT 6                                             01 
01320030006000000DEM       Justice, Supreme Court, Place 7                         OVER VOTES                            PRECINCT 7                                             01 
01320030007000000DEM       Justice, Supreme Court, Place 7                         OVER VOTES                            PRECINCT 9                                             01 
01320030008000000DEM       Justice, Supreme Court, Place 7                         OVER VOTES                            PRECINCT 11                                            01 
01320040001000006DEM       Justice, Supreme Court, Place 7                         UNDER VOTES                           PRECINCT 1                                             01 
01320040002000007DEM       Justice, Supreme Court, Place 7                         UNDER VOTES                           PRECINCT 2                                             01 
01320040003000007DEM       Justice, Supreme Court, Place 7                         UNDER VOTES                           PRECINCT 3                                             01 
01320040004000004DEM       Justice, Supreme Court, Place 7                         UNDER VOTES                           PRECINCT 4                                             01 
01320040005000001DEM       Justice, Supreme Court, Place 7                         UNDER VOTES                           PRECINCT 6                                             01 
01320040006000000DEM       Justice, Supreme Court, Place 7                         UNDER VOTES                           PRECINCT 7                                             01 
01320040007000003DEM       Justice, Supreme Court, Place 7                         UNDER VOTES                           PRECINCT 9                                             01 
01320040008000002DEM       Justice, Supreme Court, Place 7                         UNDER VOTES                           PRECINCT 11                                            01 
01330010001000018DEM       Justice, Supreme Court, Place 8                         Peter Kelly                           PRECINCT 1                                             01 
01330010002000023DEM       Justice, Supreme Court, Place 8                         Peter Kelly                           PRECINCT 2                                             01 
01330010003000022DEM       Justice, Supreme Court, Place 8                         Peter Kelly                           PRECINCT 3                                             01 
01330010004000011DEM       Justice, Supreme Court, Place 8                         Peter Kelly                           PRECINCT 4                                             01 
01330010005000003DEM       Justice, Supreme Court, Place 8                         Peter Kelly                           PRECINCT 6                                             01 
01330010006000009DEM       Justice, Supreme Court, Place 8                         Peter Kelly                           PRECINCT 7                                             01 
01330010007000001DEM       Justice, Supreme Court, Place 8                         Peter Kelly                           PRECINCT 9                                             01 
01330010008000002DEM       Justice, Supreme Court, Place 8                         Peter Kelly                           PRECINCT 11                                            01 
01330020001000015DEM       Justice, Supreme Court, Place 8                         Gisela D. Triana                      PRECINCT 1                                             01 
01330020002000030DEM       Justice, Supreme Court, Place 8                         Gisela D. Triana                      PRECINCT 2                                             01 
01330020003000018DEM       Justice, Supreme Court, Place 8                         Gisela D. Triana                      PRECINCT 3                                             01 
01330020004000006DEM       Justice, Supreme Court, Place 8                         Gisela D. Triana                      PRECINCT 4                                             01 
01330020005000008DEM       Justice, Supreme Court, Place 8                         Gisela D. Triana                      PRECINCT 6                                             01 
01330020006000007DEM       Justice, Supreme Court, Place 8                         Gisela D. Triana                      PRECINCT 7                                             01 
01330020007000002DEM       Justice, Supreme Court, Place 8                         Gisela D. Triana                      PRECINCT 9                                             01 
01330020008000007DEM       Justice, Supreme Court, Place 8                         Gisela D. Triana                      PRECINCT 11                                            01 
01330030001000000DEM       Justice, Supreme Court, Place 8                         OVER VOTES                            PRECINCT 1                                             01 
01330030002000000DEM       Justice, Supreme Court, Place 8                         OVER VOTES                            PRECINCT 2                                             01 
01330030003000000DEM       Justice, Supreme Court, Place 8                         OVER VOTES                            PRECINCT 3                                             01 
01330030004000000DEM       Justice, Supreme Court, Place 8                         OVER VOTES                            PRECINCT 4                                             01 
01330030005000000DEM       Justice, Supreme Court, Place 8                         OVER VOTES                            PRECINCT 6                                             01 
01330030006000000DEM       Justice, Supreme Court, Place 8                         OVER VOTES                            PRECINCT 7                                             01 
01330030007000000DEM       Justice, Supreme Court, Place 8                         OVER VOTES                            PRECINCT 9                                             01 
01330030008000000DEM       Justice, Supreme Court, Place 8                         OVER VOTES                            PRECINCT 11                                            01 
01330040001000005DEM       Justice, Supreme Court, Place 8                         UNDER VOTES                           PRECINCT 1                                             01 
01330040002000010DEM       Justice, Supreme Court, Place 8                         UNDER VOTES                           PRECINCT 2                                             01 
01330040003000005DEM       Justice, Supreme Court, Place 8                         UNDER VOTES                           PRECINCT 3                                             01 
01330040004000005DEM       Justice, Supreme Court, Place 8                         UNDER VOTES                           PRECINCT 4                                             01 
01330040005000000DEM       Justice, Supreme Court, Place 8                         UNDER VOTES                           PRECINCT 6                                             01 
01330040006000001DEM       Justice, Supreme Court, Place 8                         UNDER VOTES                           PRECINCT 7                                             01 
01330040007000003DEM       Justice, Supreme Court, Place 8                         UNDER VOTES                           PRECINCT 9                                             01 
01330040008000001DEM       Justice, Supreme Court, Place 8                         UNDER VOTES                           PRECINCT 11                                            01 
01340010001000020DEM       Judge, Court of Criminal Appeals, Pl 3                  Elizabeth Davis Frizell               PRECINCT 1                                             01 
01340010002000027DEM       Judge, Court of Criminal Appeals, Pl 3                  Elizabeth Davis Frizell               PRECINCT 2                                             01 
01340010003000025DEM       Judge, Court of Criminal Appeals, Pl 3                  Elizabeth Davis Frizell               PRECINCT 3                                             01 
01340010004000016DEM       Judge, Court of Criminal Appeals, Pl 3                  Elizabeth Davis Frizell               PRECINCT 4                                             01 
01340010005000008DEM       Judge, Court of Criminal Appeals, Pl 3                  Elizabeth Davis Frizell               PRECINCT 6                                             01 
01340010006000009DEM       Judge, Court of Criminal Appeals, Pl 3                  Elizabeth Davis Frizell               PRECINCT 7                                             01 
01340010007000003DEM       Judge, Court of Criminal Appeals, Pl 3                  Elizabeth Davis Frizell               PRECINCT 9                                             01 
01340010008000005DEM       Judge, Court of Criminal Appeals, Pl 3                  Elizabeth Davis Frizell               PRECINCT 11                                            01 
01340020001000005DEM       Judge, Court of Criminal Appeals, Pl 3                  William Pieratt Demond                PRECINCT 1                                             01 
01340020002000006DEM       Judge, Court of Criminal Appeals, Pl 3                  William Pieratt Demond                PRECINCT 2                                             01 
01340020003000001DEM       Judge, Court of Criminal Appeals, Pl 3                  William Pieratt Demond                PRECINCT 3                                             01 
01340020004000003DEM       Judge, Court of Criminal Appeals, Pl 3                  William Pieratt Demond                PRECINCT 4                                             01 
01340020005000001DEM       Judge, Court of Criminal Appeals, Pl 3                  William Pieratt Demond                PRECINCT 6                                             01 
01340020006000001DEM       Judge, Court of Criminal Appeals, Pl 3                  William Pieratt Demond                PRECINCT 7                                             01 
01340020007000000DEM       Judge, Court of Criminal Appeals, Pl 3                  William Pieratt Demond                PRECINCT 9                                             01 
01340020008000001DEM       Judge, Court of Criminal Appeals, Pl 3                  William Pieratt Demond                PRECINCT 11                                            01 
01340030001000008DEM       Judge, Court of Criminal Appeals, Pl 3                  Dan Wood                              PRECINCT 1                                             01 
01340030002000022DEM       Judge, Court of Criminal Appeals, Pl 3                  Dan Wood                              PRECINCT 2                                             01 
01340030003000012DEM       Judge, Court of Criminal Appeals, Pl 3                  Dan Wood                              PRECINCT 3                                             01 
01340030004000000DEM       Judge, Court of Criminal Appeals, Pl 3                  Dan Wood                              PRECINCT 4                                             01 
01340030005000002DEM       Judge, Court of Criminal Appeals, Pl 3                  Dan Wood                              PRECINCT 6                                             01 
01340030006000007DEM       Judge, Court of Criminal Appeals, Pl 3                  Dan Wood                              PRECINCT 7                                             01 
01340030007000000DEM       Judge, Court of Criminal Appeals, Pl 3                  Dan Wood                              PRECINCT 9                                             01 
01340030008000002DEM       Judge, Court of Criminal Appeals, Pl 3                  Dan Wood                              PRECINCT 11                                            01 
01340040001000000DEM       Judge, Court of Criminal Appeals, Pl 3                  OVER VOTES                            PRECINCT 1                                             01 
01340040002000000DEM       Judge, Court of Criminal Appeals, Pl 3                  OVER VOTES                            PRECINCT 2                                             01 
01340040003000000DEM       Judge, Court of Criminal Appeals, Pl 3                  OVER VOTES                            PRECINCT 3                                             01 
01340040004000000DEM       Judge, Court of Criminal Appeals, Pl 3                  OVER VOTES                            PRECINCT 4                                             01 
01340040005000000DEM       Judge, Court of Criminal Appeals, Pl 3                  OVER VOTES                            PRECINCT 6                                             01 
01340040006000000DEM       Judge, Court of Criminal Appeals, Pl 3                  OVER VOTES                            PRECINCT 7                                             01 
01340040007000000DEM       Judge, Court of Criminal Appeals, Pl 3                  OVER VOTES                            PRECINCT 9                                             01 
01340040008000000DEM       Judge, Court of Criminal Appeals, Pl 3                  OVER VOTES                            PRECINCT 11                                            01 
01340050001000005DEM       Judge, Court of Criminal Appeals, Pl 3                  UNDER VOTES                           PRECINCT 1                                             01 
01340050002000008DEM       Judge, Court of Criminal Appeals, Pl 3                  UNDER VOTES                           PRECINCT 2                                             01 
01340050003000007DEM       Judge, Court of Criminal Appeals, Pl 3                  UNDER VOTES                           PRECINCT 3                                             01 
01340050004000003DEM       Judge, Court of Criminal Appeals, Pl 3                  UNDER VOTES                           PRECINCT 4                                             01 
01340050005000000DEM       Judge, Court of Criminal Appeals, Pl 3                  UNDER VOTES                           PRECINCT 6                                             01 
01340050006000000DEM       Judge, Court of Criminal Appeals, Pl 3                  UNDER VOTES                           PRECINCT 7                                             01 
01340050007000003DEM       Judge, Court of Criminal Appeals, Pl 3                  UNDER VOTES                           PRECINCT 9                                             01 
01340050008000002DEM       Judge, Court of Criminal Appeals, Pl 3                  UNDER VOTES                           PRECINCT 11                                            01 
01350010001000015DEM       Judge, Court of Criminal Appeals, Pl 4                  Steven Miears                         PRECINCT 1                                             01 
01350010002000025DEM       Judge, Court of Criminal Appeals, Pl 4                  Steven Miears                         PRECINCT 2                                             01 
01350010003000016DEM       Judge, Court of Criminal Appeals, Pl 4                  Steven Miears                         PRECINCT 3                                             01 
01350010004000007DEM       Judge, Court of Criminal Appeals, Pl 4                  Steven Miears                         PRECINCT 4                                             01 
01350010005000003DEM       Judge, Court of Criminal Appeals, Pl 4                  Steven Miears                         PRECINCT 6                                             01 
01350010006000005DEM       Judge, Court of Criminal Appeals, Pl 4                  Steven Miears                         PRECINCT 7                                             01 
01350010007000000DEM       Judge, Court of Criminal Appeals, Pl 4                  Steven Miears                         PRECINCT 9                                             01 
01350010008000003DEM       Judge, Court of Criminal Appeals, Pl 4                  Steven Miears                         PRECINCT 11                                            01 
01350020001000018DEM       Judge, Court of Criminal Appeals, Pl 4                  Tina Clinton                          PRECINCT 1                                             01 
01350020002000029DEM       Judge, Court of Criminal Appeals, Pl 4                  Tina Clinton                          PRECINCT 2                                             01 
01350020003000022DEM       Judge, Court of Criminal Appeals, Pl 4                  Tina Clinton                          PRECINCT 3                                             01 
01350020004000010DEM       Judge, Court of Criminal Appeals, Pl 4                  Tina Clinton                          PRECINCT 4                                             01 
01350020005000008DEM       Judge, Court of Criminal Appeals, Pl 4                  Tina Clinton                          PRECINCT 6                                             01 
01350020006000011DEM       Judge, Court of Criminal Appeals, Pl 4                  Tina Clinton                          PRECINCT 7                                             01 
01350020007000003DEM       Judge, Court of Criminal Appeals, Pl 4                  Tina Clinton                          PRECINCT 9                                             01 
01350020008000005DEM       Judge, Court of Criminal Appeals, Pl 4                  Tina Clinton                          PRECINCT 11                                            01 
