00010010001000654000000000000000000000000000000000000000000000000000000000000000000000000000000000000          REGISTERED VOTERS - TOTAL                               REGISTERED VOTERS - TOTAL             Precinct 1                                             00 
00010010002001101000000000000000000000000000000000000000000000000000000000000000000000000000000000000          REGISTERED VOTERS - TOTAL                               REGISTERED VOTERS - TOTAL             Precinct 2                                             00 
00010010003001580000000000000000000000000000000000000000000000000000000000000000000000000000000000000          REGISTERED VOTERS - TOTAL                               REGISTERED VOTERS - TOTAL             Precinct 3                                             00 
00010010004001334000000000000000000000000000000000000000000000000000000000000000000000000000000000000          REGISTERED VOTERS - TOTAL                               REGISTERED VOTERS - TOTAL             Precinct 4                                             00 
00010010005000268000000000000000000000000000000000000000000000000000000000000000000000000000000000000          REGISTERED VOTERS - TOTAL                               REGISTERED VOTERS - TOTAL             Precinct 5                                             00 
00010010006000429000000000000000000000000000000000000000000000000000000000000000000000000000000000000          REGISTERED VOTERS - TOTAL                               REGISTERED VOTERS - TOTAL             Precinct 6                                             00 
00010010007000593000000000000000000000000000000000000000000000000000000000000000000000000000000000000          REGISTERED VOTERS - TOTAL                               REGISTERED VOTERS - TOTAL             Precinct 7                                             00 
00010010008000201000000000000000000000000000000000000000000000000000000000000000000000000000000000000          REGISTERED VOTERS - TOTAL                               REGISTERED VOTERS - TOTAL             Precinct 8                                             00 
00010010009000451000000000000000000000000000000000000000000000000000000000000000000000000000000000000          REGISTERED VOTERS - TOTAL                               REGISTERED VOTERS - TOTAL             Precinct 9                                             00 
00010010010001332000000000000000000000000000000000000000000000000000000000000000000000000000000000000          REGISTERED VOTERS - TOTAL                               REGISTERED VOTERS - TOTAL             Precinct 10                                            00 
00010010011000141000000000000000000000000000000000000000000000000000000000000000000000000000000000000          REGISTERED VOTERS - TOTAL                               REGISTERED VOTERS - TOTAL             Precinct 11                                            00 
00010010012000796000000000000000000000000000000000000000000000000000000000000000000000000000000000000          REGISTERED VOTERS - TOTAL                               REGISTERED VOTERS - TOTAL             Precinct 13                                            00 
00010010013001635000000000000000000000000000000000000000000000000000000000000000000000000000000000000          REGISTERED VOTERS - TOTAL                               REGISTERED VOTERS - TOTAL             Precinct 14                                            00 
00010010014001012000000000000000000000000000000000000000000000000000000000000000000000000000000000000          REGISTERED VOTERS - TOTAL                               REGISTERED VOTERS - TOTAL             Precinct 15                                            00 
00010010015000631000000000000000000000000000000000000000000000000000000000000000000000000000000000000          REGISTERED VOTERS - TOTAL                               REGISTERED VOTERS - TOTAL             Precinct 16                                            00 
00010010016000486000000000000000000000000000000000000000000000000000000000000000000000000000000000000          REGISTERED VOTERS - TOTAL                               REGISTERED VOTERS - TOTAL             Precinct 17                                            00 
00010010017001442000000000000000000000000000000000000000000000000000000000000000000000000000000000000          REGISTERED VOTERS - TOTAL                               REGISTERED VOTERS - TOTAL             Precinct 18                                            00 
00020010001000654000000000000000000000000000000000000000000000000000000000000000000000000000000000000NON       REGISTERED VOTERS - NONPARTISAN                         REGISTERED VOTERS - NONPARTISAN       Precinct 1                                             00 
00020010002001101000000000000000000000000000000000000000000000000000000000000000000000000000000000000NON       REGISTERED VOTERS - NONPARTISAN                         REGISTERED VOTERS - NONPARTISAN       Precinct 2                                             00 
00020010003001580000000000000000000000000000000000000000000000000000000000000000000000000000000000000NON       REGISTERED VOTERS - NONPARTISAN                         REGISTERED VOTERS - NONPARTISAN       Precinct 3                                             00 
00020010004001334000000000000000000000000000000000000000000000000000000000000000000000000000000000000NON       REGISTERED VOTERS - NONPARTISAN                         REGISTERED VOTERS - NONPARTISAN       Precinct 4                                             00 
00020010005000268000000000000000000000000000000000000000000000000000000000000000000000000000000000000NON       REGISTERED VOTERS - NONPARTISAN                         REGISTERED VOTERS - NONPARTISAN       Precinct 5                                             00 
00020010006000429000000000000000000000000000000000000000000000000000000000000000000000000000000000000NON       REGISTERED VOTERS - NONPARTISAN                         REGISTERED VOTERS - NONPARTISAN       Precinct 6                                             00 
00020010007000593000000000000000000000000000000000000000000000000000000000000000000000000000000000000NON       REGISTERED VOTERS - NONPARTISAN                         REGISTERED VOTERS - NONPARTISAN       Precinct 7                                             00 
00020010008000201000000000000000000000000000000000000000000000000000000000000000000000000000000000000NON       REGISTERED VOTERS - NONPARTISAN                         REGISTERED VOTERS - NONPARTISAN       Precinct 8                                             00 
00020010009000451000000000000000000000000000000000000000000000000000000000000000000000000000000000000NON       REGISTERED VOTERS - NONPARTISAN                         REGISTERED VOTERS - NONPARTISAN       Precinct 9                                             00 
00020010010001332000000000000000000000000000000000000000000000000000000000000000000000000000000000000NON       REGISTERED VOTERS - NONPARTISAN                         REGISTERED VOTERS - NONPARTISAN       Precinct 10                                            00 
00020010011000141000000000000000000000000000000000000000000000000000000000000000000000000000000000000NON       REGISTERED VOTERS - NONPARTISAN                         REGISTERED VOTERS - NONPARTISAN       Precinct 11                                            00 
00020010012000796000000000000000000000000000000000000000000000000000000000000000000000000000000000000NON       REGISTERED VOTERS - NONPARTISAN                         REGISTERED VOTERS - NONPARTISAN       Precinct 13                                            00 
00020010013001635000000000000000000000000000000000000000000000000000000000000000000000000000000000000NON       REGISTERED VOTERS - NONPARTISAN                         REGISTERED VOTERS - NONPARTISAN       Precinct 14                                            00 
00020010014001012000000000000000000000000000000000000000000000000000000000000000000000000000000000000NON       REGISTERED VOTERS - NONPARTISAN                         REGISTERED VOTERS - NONPARTISAN       Precinct 15                                            00 
00020010015000631000000000000000000000000000000000000000000000000000000000000000000000000000000000000NON       REGISTERED VOTERS - NONPARTISAN                         REGISTERED VOTERS - NONPARTISAN       Precinct 16                                            00 
00020010016000486000000000000000000000000000000000000000000000000000000000000000000000000000000000000NON       REGISTERED VOTERS - NONPARTISAN                         REGISTERED VOTERS - NONPARTISAN       Precinct 17                                            00 
00020010017001442000000000000000000000000000000000000000000000000000000000000000000000000000000000000NON       REGISTERED VOTERS - NONPARTISAN                         REGISTERED VOTERS - NONPARTISAN       Precinct 18                                            00 
00030010001000000000000000000000000000000000000000000000000000000000000000000000000000000000000000000REP       REGISTERED VOTERS - Republican Party                    REGISTERED VOTERS - Republican Party  Precinct 1                                             00 
00030010002000000000000000000000000000000000000000000000000000000000000000000000000000000000000000000REP       REGISTERED VOTERS - Republican Party                    REGISTERED VOTERS - Republican Party  Precinct 2                                             00 
00030010003000000000000000000000000000000000000000000000000000000000000000000000000000000000000000000REP       REGISTERED VOTERS - Republican Party                    REGISTERED VOTERS - Republican Party  Precinct 3                                             00 
00030010004000000000000000000000000000000000000000000000000000000000000000000000000000000000000000000REP       REGISTERED VOTERS - Republican Party                    REGISTERED VOTERS - Republican Party  Precinct 4                                             00 
00030010005000000000000000000000000000000000000000000000000000000000000000000000000000000000000000000REP       REGISTERED VOTERS - Republican Party                    REGISTERED VOTERS - Republican Party  Precinct 5                                             00 
00030010006000000000000000000000000000000000000000000000000000000000000000000000000000000000000000000REP       REGISTERED VOTERS - Republican Party                    REGISTERED VOTERS - Republican Party  Precinct 6                                             00 
00030010007000000000000000000000000000000000000000000000000000000000000000000000000000000000000000000REP       REGISTERED VOTERS - Republican Party                    REGISTERED VOTERS - Republican Party  Precinct 7                                             00 
00030010008000000000000000000000000000000000000000000000000000000000000000000000000000000000000000000REP       REGISTERED VOTERS - Republican Party                    REGISTERED VOTERS - Republican Party  Precinct 8                                             00 
00030010009000000000000000000000000000000000000000000000000000000000000000000000000000000000000000000REP       REGISTERED VOTERS - Republican Party                    REGISTERED VOTERS - Republican Party  Precinct 9                                             00 
00030010010000000000000000000000000000000000000000000000000000000000000000000000000000000000000000000REP       REGISTERED VOTERS - Republican Party                    REGISTERED VOTERS - Republican Party  Precinct 10                                            00 
00030010011000000000000000000000000000000000000000000000000000000000000000000000000000000000000000000REP       REGISTERED VOTERS - Republican Party                    REGISTERED VOTERS - Republican Party  Precinct 11                                            00 
00030010012000000000000000000000000000000000000000000000000000000000000000000000000000000000000000000REP       REGISTERED VOTERS - Republican Party                    REGISTERED VOTERS - Republican Party  Precinct 13                                            00 
00030010013000000000000000000000000000000000000000000000000000000000000000000000000000000000000000000REP       REGISTERED VOTERS - Republican Party                    REGISTERED VOTERS - Republican Party  Precinct 14                                            00 
00030010014000000000000000000000000000000000000000000000000000000000000000000000000000000000000000000REP       REGISTERED VOTERS - Republican Party                    REGISTERED VOTERS - Republican Party  Precinct 15                                            00 
00030010015000000000000000000000000000000000000000000000000000000000000000000000000000000000000000000REP       REGISTERED VOTERS - Republican Party                    REGISTERED VOTERS - Republican Party  Precinct 16                                            00 
00030010016000000000000000000000000000000000000000000000000000000000000000000000000000000000000000000REP       REGISTERED VOTERS - Republican Party                    REGISTERED VOTERS - Republican Party  Precinct 17                                            00 
00030010017000000000000000000000000000000000000000000000000000000000000000000000000000000000000000000REP       REGISTERED VOTERS - Republican Party                    REGISTERED VOTERS - Republican Party  Precinct 18                                            00 
00040010001000000000000000000000000000000000000000000000000000000000000000000000000000000000000000000DEM       REGISTERED VOTERS - Democratic Party                    REGISTERED VOTERS - Democratic Party  Precinct 1                                             00 
00040010002000000000000000000000000000000000000000000000000000000000000000000000000000000000000000000DEM       REGISTERED VOTERS - Democratic Party                    REGISTERED VOTERS - Democratic Party  Precinct 2                                             00 
00040010003000000000000000000000000000000000000000000000000000000000000000000000000000000000000000000DEM       REGISTERED VOTERS - Democratic Party                    REGISTERED VOTERS - Democratic Party  Precinct 3                                             00 
00040010004000000000000000000000000000000000000000000000000000000000000000000000000000000000000000000DEM       REGISTERED VOTERS - Democratic Party                    REGISTERED VOTERS - Democratic Party  Precinct 4                                             00 
00040010005000000000000000000000000000000000000000000000000000000000000000000000000000000000000000000DEM       REGISTERED VOTERS - Democratic Party                    REGISTERED VOTERS - Democratic Party  Precinct 5                                             00 
00040010006000000000000000000000000000000000000000000000000000000000000000000000000000000000000000000DEM       REGISTERED VOTERS - Democratic Party                    REGISTERED VOTERS - Democratic Party  Precinct 6                                             00 
00040010007000000000000000000000000000000000000000000000000000000000000000000000000000000000000000000DEM       REGISTERED VOTERS - Democratic Party                    REGISTERED VOTERS - Democratic Party  Precinct 7                                             00 
00040010008000000000000000000000000000000000000000000000000000000000000000000000000000000000000000000DEM       REGISTERED VOTERS - Democratic Party                    REGISTERED VOTERS - Democratic Party  Precinct 8                                             00 
00040010009000000000000000000000000000000000000000000000000000000000000000000000000000000000000000000DEM       REGISTERED VOTERS - Democratic Party                    REGISTERED VOTERS - Democratic Party  Precinct 9                                             00 
00040010010000000000000000000000000000000000000000000000000000000000000000000000000000000000000000000DEM       REGISTERED VOTERS - Democratic Party                    REGISTERED VOTERS - Democratic Party  Precinct 10                                            00 
00040010011000000000000000000000000000000000000000000000000000000000000000000000000000000000000000000DEM       REGISTERED VOTERS - Democratic Party                    REGISTERED VOTERS - Democratic Party  Precinct 11                                            00 
00040010012000000000000000000000000000000000000000000000000000000000000000000000000000000000000000000DEM       REGISTERED VOTERS - Democratic Party                    REGISTERED VOTERS - Democratic Party  Precinct 13                                            00 
00040010013000000000000000000000000000000000000000000000000000000000000000000000000000000000000000000DEM       REGISTERED VOTERS - Democratic Party                    REGISTERED VOTERS - Democratic Party  Precinct 14                                            00 
00040010014000000000000000000000000000000000000000000000000000000000000000000000000000000000000000000DEM       REGISTERED VOTERS - Democratic Party                    REGISTERED VOTERS - Democratic Party  Precinct 15                                            00 
00040010015000000000000000000000000000000000000000000000000000000000000000000000000000000000000000000DEM       REGISTERED VOTERS - Democratic Party                    REGISTERED VOTERS - Democratic Party  Precinct 16                                            00 
00040010016000000000000000000000000000000000000000000000000000000000000000000000000000000000000000000DEM       REGISTERED VOTERS - Democratic Party                    REGISTERED VOTERS - Democratic Party  Precinct 17                                            00 
00040010017000000000000000000000000000000000000000000000000000000000000000000000000000000000000000000DEM       REGISTERED VOTERS - Democratic Party                    REGISTERED VOTERS - Democratic Party  Precinct 18                                            00 
00050010001000323000023000190000110000000000000000000000000000000000000000000000000000000000000000000          BALLOTS CAST - TOTAL                                    BALLOTS CAST - TOTAL                  Precinct 1                                             00 
00050010002000275000023000143000109000000000000000000000000000000000000000000000000000000000000000000          BALLOTS CAST - TOTAL                                    BALLOTS CAST - TOTAL                  Precinct 2                                             00 
00050010003000562000064000264000234000000000000000000000000000000000000000000000000000000000000000000          BALLOTS CAST - TOTAL                                    BALLOTS CAST - TOTAL                  Precinct 3                                             00 
00050010004000572000036000223000313000000000000000000000000000000000000000000000000000000000000000000          BALLOTS CAST - TOTAL                                    BALLOTS CAST - TOTAL                  Precinct 4                                             00 
00050010005000067000003000029000035000000000000000000000000000000000000000000000000000000000000000000          BALLOTS CAST - TOTAL                                    BALLOTS CAST - TOTAL                  Precinct 5                                             00 
00050010006000165000036000020000109000000000000000000000000000000000000000000000000000000000000000000          BALLOTS CAST - TOTAL                                    BALLOTS CAST - TOTAL                  Precinct 6                                             00 
00050010007000255000023000059000173000000000000000000000000000000000000000000000000000000000000000000          BALLOTS CAST - TOTAL                                    BALLOTS CAST - TOTAL                  Precinct 7                                             00 
00050010008000099000007000043000049000000000000000000000000000000000000000000000000000000000000000000          BALLOTS CAST - TOTAL                                    BALLOTS CAST - TOTAL                  Precinct 8                                             00 
00050010009000157000012000073000072000000000000000000000000000000000000000000000000000000000000000000          BALLOTS CAST - TOTAL                                    BALLOTS CAST - TOTAL                  Precinct 9                                             00 
00050010010000493000050000178000265000000000000000000000000000000000000000000000000000000000000000000          BALLOTS CAST - TOTAL                                    BALLOTS CAST - TOTAL                  Precinct 10                                            00 
00050010011000042000005000013000024000000000000000000000000000000000000000000000000000000000000000000          BALLOTS CAST - TOTAL                                    BALLOTS CAST - TOTAL                  Precinct 11                                            00 
00050010012000205000019000075000111000000000000000000000000000000000000000000000000000000000000000000          BALLOTS CAST - TOTAL                                    BALLOTS CAST - TOTAL                  Precinct 13                                            00 
00050010013000612000036000197000379000000000000000000000000000000000000000000000000000000000000000000          BALLOTS CAST - TOTAL                                    BALLOTS CAST - TOTAL                  Precinct 14                                            00 
00050010014000287000023000036000228000000000000000000000000000000000000000000000000000000000000000000          BALLOTS CAST - TOTAL                                    BALLOTS CAST - TOTAL                  Precinct 15                                            00 
00050010015000192000020000069000103000000000000000000000000000000000000000000000000000000000000000000          BALLOTS CAST - TOTAL                                    BALLOTS CAST - TOTAL                  Precinct 16                                            00 
00050010016000177000020000078000079000000000000000000000000000000000000000000000000000000000000000000          BALLOTS CAST - TOTAL                                    BALLOTS CAST - TOTAL                  Precinct 17                                            00 
00050010017000510000046000286000178000000000000000000000000000000000000000000000000000000000000000000          BALLOTS CAST - TOTAL                                    BALLOTS CAST - TOTAL                  Precinct 18                                            00 
00060010001000000000000000000000000000000000000000000000000000000000000000000000000000000000000000000NON       BALLOTS CAST - NONPARTISAN                              BALLOTS CAST - NONPARTISAN            Precinct 1                                             00 
00060010002000000000000000000000000000000000000000000000000000000000000000000000000000000000000000000NON       BALLOTS CAST - NONPARTISAN                              BALLOTS CAST - NONPARTISAN            Precinct 2                                             00 
00060010003000000000000000000000000000000000000000000000000000000000000000000000000000000000000000000NON       BALLOTS CAST - NONPARTISAN                              BALLOTS CAST - NONPARTISAN            Precinct 3                                             00 
00060010004000000000000000000000000000000000000000000000000000000000000000000000000000000000000000000NON       BALLOTS CAST - NONPARTISAN                              BALLOTS CAST - NONPARTISAN            Precinct 4                                             00 
00060010005000000000000000000000000000000000000000000000000000000000000000000000000000000000000000000NON       BALLOTS CAST - NONPARTISAN                              BALLOTS CAST - NONPARTISAN            Precinct 5                                             00 
00060010006000000000000000000000000000000000000000000000000000000000000000000000000000000000000000000NON       BALLOTS CAST - NONPARTISAN                              BALLOTS CAST - NONPARTISAN            Precinct 6                                             00 
00060010007000000000000000000000000000000000000000000000000000000000000000000000000000000000000000000NON       BALLOTS CAST - NONPARTISAN                              BALLOTS CAST - NONPARTISAN            Precinct 7                                             00 
00060010008000000000000000000000000000000000000000000000000000000000000000000000000000000000000000000NON       BALLOTS CAST - NONPARTISAN                              BALLOTS CAST - NONPARTISAN            Precinct 8                                             00 
00060010009000000000000000000000000000000000000000000000000000000000000000000000000000000000000000000NON       BALLOTS CAST - NONPARTISAN                              BALLOTS CAST - NONPARTISAN            Precinct 9                                             00 
00060010010000000000000000000000000000000000000000000000000000000000000000000000000000000000000000000NON       BALLOTS CAST - NONPARTISAN                              BALLOTS CAST - NONPARTISAN            Precinct 10                                            00 
00060010011000000000000000000000000000000000000000000000000000000000000000000000000000000000000000000NON       BALLOTS CAST - NONPARTISAN                              BALLOTS CAST - NONPARTISAN            Precinct 11                                            00 
00060010012000000000000000000000000000000000000000000000000000000000000000000000000000000000000000000NON       BALLOTS CAST - NONPARTISAN                              BALLOTS CAST - NONPARTISAN            Precinct 13                                            00 
00060010013000000000000000000000000000000000000000000000000000000000000000000000000000000000000000000NON       BALLOTS CAST - NONPARTISAN                              BALLOTS CAST - NONPARTISAN            Precinct 14                                            00 
00060010014000000000000000000000000000000000000000000000000000000000000000000000000000000000000000000NON       BALLOTS CAST - NONPARTISAN                              BALLOTS CAST - NONPARTISAN            Precinct 15                                            00 
00060010015000000000000000000000000000000000000000000000000000000000000000000000000000000000000000000NON       BALLOTS CAST - NONPARTISAN                              BALLOTS CAST - NONPARTISAN            Precinct 16                                            00 
00060010016000000000000000000000000000000000000000000000000000000000000000000000000000000000000000000NON       BALLOTS CAST - NONPARTISAN                              BALLOTS CAST - NONPARTISAN            Precinct 17                                            00 
00060010017000000000000000000000000000000000000000000000000000000000000000000000000000000000000000000NON       BALLOTS CAST - NONPARTISAN                              BALLOTS CAST - NONPARTISAN            Precinct 18                                            00 
00070010001000289000020000181000088000000000000000000000000000000000000000000000000000000000000000000REP       BALLOTS CAST - Republican Party                         BALLOTS CAST - Republican Party       Precinct 1                                             00 
00070010002000207000018000116000073000000000000000000000000000000000000000000000000000000000000000000REP       BALLOTS CAST - Republican Party                         BALLOTS CAST - Republican Party       Precinct 2                                             00 
00070010003000462000050000241000171000000000000000000000000000000000000000000000000000000000000000000REP       BALLOTS CAST - Republican Party                         BALLOTS CAST - Republican Party       Precinct 3                                             00 
00070010004000513000025000208000280000000000000000000000000000000000000000000000000000000000000000000REP       BALLOTS CAST - Republican Party                         BALLOTS CAST - Republican Party       Precinct 4                                             00 
00070010005000049000001000027000021000000000000000000000000000000000000000000000000000000000000000000REP       BALLOTS CAST - Republican Party                         BALLOTS CAST - Republican Party       Precinct 5                                             00 
00070010006000146000031000020000095000000000000000000000000000000000000000000000000000000000000000000REP       BALLOTS CAST - Republican Party                         BALLOTS CAST - Republican Party       Precinct 6                                             00 
00070010007000249000023000056000170000000000000000000000000000000000000000000000000000000000000000000REP       BALLOTS CAST - Republican Party                         BALLOTS CAST - Republican Party       Precinct 7                                             00 
00070010008000088000007000041000040000000000000000000000000000000000000000000000000000000000000000000REP       BALLOTS CAST - Republican Party                         BALLOTS CAST - Republican Party       Precinct 8                                             00 
00070010009000139000010000064000065000000000000000000000000000000000000000000000000000000000000000000REP       BALLOTS CAST - Republican Party                         BALLOTS CAST - Republican Party       Precinct 9                                             00 
00070010010000439000041000164000234000000000000000000000000000000000000000000000000000000000000000000REP       BALLOTS CAST - Republican Party                         BALLOTS CAST - Republican Party       Precinct 10                                            00 
00070010011000040000005000013000022000000000000000000000000000000000000000000000000000000000000000000REP       BALLOTS CAST - Republican Party                         BALLOTS CAST - Republican Party       Precinct 11                                            00 
00070010012000178000014000069000095000000000000000000000000000000000000000000000000000000000000000000REP       BALLOTS CAST - Republican Party                         BALLOTS CAST - Republican Party       Precinct 13                                            00 
00070010013000556000032000177000347000000000000000000000000000000000000000000000000000000000000000000REP       BALLOTS CAST - Republican Party                         BALLOTS CAST - Republican Party       Precinct 14                                            00 
00070010014000254000019000032000203000000000000000000000000000000000000000000000000000000000000000000REP       BALLOTS CAST - Republican Party                         BALLOTS CAST - Republican Party       Precinct 15                                            00 
00070010015000169000017000065000087000000000000000000000000000000000000000000000000000000000000000000REP       BALLOTS CAST - Republican Party                         BALLOTS CAST - Republican Party       Precinct 16                                            00 
00070010016000137000015000061000061000000000000000000000000000000000000000000000000000000000000000000REP       BALLOTS CAST - Republican Party                         BALLOTS CAST - Republican Party       Precinct 17                                            00 
00070010017000448000030000265000153000000000000000000000000000000000000000000000000000000000000000000REP       BALLOTS CAST - Republican Party                         BALLOTS CAST - Republican Party       Precinct 18                                            00 
00080010001000034000003000009000022000000000000000000000000000000000000000000000000000000000000000000DEM       BALLOTS CAST - Democratic Party                         BALLOTS CAST - Democratic Party       Precinct 1                                             00 
00080010002000068000005000027000036000000000000000000000000000000000000000000000000000000000000000000DEM       BALLOTS CAST - Democratic Party                         BALLOTS CAST - Democratic Party       Precinct 2                                             00 
00080010003000100000014000023000063000000000000000000000000000000000000000000000000000000000000000000DEM       BALLOTS CAST - Democratic Party                         BALLOTS CAST - Democratic Party       Precinct 3                                             00 
00080010004000059000011000015000033000000000000000000000000000000000000000000000000000000000000000000DEM       BALLOTS CAST - Democratic Party                         BALLOTS CAST - Democratic Party       Precinct 4                                             00 
00080010005000018000002000002000014000000000000000000000000000000000000000000000000000000000000000000DEM       BALLOTS CAST - Democratic Party                         BALLOTS CAST - Democratic Party       Precinct 5                                             00 
00080010006000019000005000000000014000000000000000000000000000000000000000000000000000000000000000000DEM       BALLOTS CAST - Democratic Party                         BALLOTS CAST - Democratic Party       Precinct 6                                             00 
00080010007000006000000000003000003000000000000000000000000000000000000000000000000000000000000000000DEM       BALLOTS CAST - Democratic Party                         BALLOTS CAST - Democratic Party       Precinct 7                                             00 
00080010008000011000000000002000009000000000000000000000000000000000000000000000000000000000000000000DEM       BALLOTS CAST - Democratic Party                         BALLOTS CAST - Democratic Party       Precinct 8                                             00 
00080010009000018000002000009000007000000000000000000000000000000000000000000000000000000000000000000DEM       BALLOTS CAST - Democratic Party                         BALLOTS CAST - Democratic Party       Precinct 9                                             00 
00080010010000054000009000014000031000000000000000000000000000000000000000000000000000000000000000000DEM       BALLOTS CAST - Democratic Party                         BALLOTS CAST - Democratic Party       Precinct 10                                            00 
00080010011000002000000000000000002000000000000000000000000000000000000000000000000000000000000000000DEM       BALLOTS CAST - Democratic Party                         BALLOTS CAST - Democratic Party       Precinct 11                                            00 
00080010012000027000005000006000016000000000000000000000000000000000000000000000000000000000000000000DEM       BALLOTS CAST - Democratic Party                         BALLOTS CAST - Democratic Party       Precinct 13                                            00 
00080010013000056000004000020000032000000000000000000000000000000000000000000000000000000000000000000DEM       BALLOTS CAST - Democratic Party                         BALLOTS CAST - Democratic Party       Precinct 14                                            00 
00080010014000033000004000004000025000000000000000000000000000000000000000000000000000000000000000000DEM       BALLOTS CAST - Democratic Party                         BALLOTS CAST - Democratic Party       Precinct 15                                            00 
00080010015000023000003000004000016000000000000000000000000000000000000000000000000000000000000000000DEM       BALLOTS CAST - Democratic Party                         BALLOTS CAST - Democratic Party       Precinct 16                                            00 
00080010016000040000005000017000018000000000000000000000000000000000000000000000000000000000000000000DEM       BALLOTS CAST - Democratic Party                         BALLOTS CAST - Democratic Party       Precinct 17                                            00 
00080010017000062000016000021000025000000000000000000000000000000000000000000000000000000000000000000DEM       BALLOTS CAST - Democratic Party                         BALLOTS CAST - Democratic Party       Precinct 18                                            00 
00090010001000000000000000000000000000000000000000000000000000000000000000000000000000000000000000000          BALLOTS CAST - BLANK                                    BALLOTS CAST - BLANK                  Precinct 1                                             00 
00090010002000000000000000000000000000000000000000000000000000000000000000000000000000000000000000000          BALLOTS CAST - BLANK                                    BALLOTS CAST - BLANK                  Precinct 2                                             00 
00090010003000000000000000000000000000000000000000000000000000000000000000000000000000000000000000000          BALLOTS CAST - BLANK                                    BALLOTS CAST - BLANK                  Precinct 3                                             00 
00090010004000000000000000000000000000000000000000000000000000000000000000000000000000000000000000000          BALLOTS CAST - BLANK                                    BALLOTS CAST - BLANK                  Precinct 4                                             00 
00090010005000000000000000000000000000000000000000000000000000000000000000000000000000000000000000000          BALLOTS CAST - BLANK                                    BALLOTS CAST - BLANK                  Precinct 5                                             00 
00090010006000000000000000000000000000000000000000000000000000000000000000000000000000000000000000000          BALLOTS CAST - BLANK                                    BALLOTS CAST - BLANK                  Precinct 6                                             00 
00090010007000000000000000000000000000000000000000000000000000000000000000000000000000000000000000000          BALLOTS CAST - BLANK                                    BALLOTS CAST - BLANK                  Precinct 7                                             00 
00090010008000000000000000000000000000000000000000000000000000000000000000000000000000000000000000000          BALLOTS CAST - BLANK                                    BALLOTS CAST - BLANK                  Precinct 8                                             00 
00090010009000000000000000000000000000000000000000000000000000000000000000000000000000000000000000000          BALLOTS CAST - BLANK                                    BALLOTS CAST - BLANK                  Precinct 9                                             00 
00090010010000000000000000000000000000000000000000000000000000000000000000000000000000000000000000000          BALLOTS CAST - BLANK                                    BALLOTS CAST - BLANK                  Precinct 10                                            00 
00090010011000000000000000000000000000000000000000000000000000000000000000000000000000000000000000000          BALLOTS CAST - BLANK                                    BALLOTS CAST - BLANK                  Precinct 11                                            00 
00090010012000000000000000000000000000000000000000000000000000000000000000000000000000000000000000000          BALLOTS CAST - BLANK                                    BALLOTS CAST - BLANK                  Precinct 13                                            00 
00090010013000000000000000000000000000000000000000000000000000000000000000000000000000000000000000000          BALLOTS CAST - BLANK                                    BALLOTS CAST - BLANK                  Precinct 14                                            00 
00090010014000000000000000000000000000000000000000000000000000000000000000000000000000000000000000000          BALLOTS CAST - BLANK                                    BALLOTS CAST - BLANK                  Precinct 15                                            00 
00090010015000000000000000000000000000000000000000000000000000000000000000000000000000000000000000000          BALLOTS CAST - BLANK                                    BALLOTS CAST - BLANK                  Precinct 16                                            00 
00090010016000000000000000000000000000000000000000000000000000000000000000000000000000000000000000000          BALLOTS CAST - BLANK                                    BALLOTS CAST - BLANK                  Precinct 17                                            00 
00090010017000000000000000000000000000000000000000000000000000000000000000000000000000000000000000000          BALLOTS CAST - BLANK                                    BALLOTS CAST - BLANK                  Precinct 18                                            00 
00100010001000000000000000000000000000000000000000000000000000000000000000000000000000000000000000000REP       REP President                                           Roque Rocky DeLa Fuente Guerra        Precinct 1                                             01 
00100010002000001000000000001000000000000000000000000000000000000000000000000000000000000000000000000REP       REP President                                           Roque Rocky DeLa Fuente Guerra        Precinct 2                                             01 
00100010003000001000000000001000000000000000000000000000000000000000000000000000000000000000000000000REP       REP President                                           Roque Rocky DeLa Fuente Guerra        Precinct 3                                             01 
00100010004000000000000000000000000000000000000000000000000000000000000000000000000000000000000000000REP       REP President                                           Roque Rocky DeLa Fuente Guerra        Precinct 4                                             01 
00100010005000000000000000000000000000000000000000000000000000000000000000000000000000000000000000000REP       REP President                                           Roque Rocky DeLa Fuente Guerra        Precinct 5                                             01 
00100010006000000000000000000000000000000000000000000000000000000000000000000000000000000000000000000REP       REP President                                           Roque Rocky DeLa Fuente Guerra        Precinct 6                                             01 
00100010007000002000000000000000002000000000000000000000000000000000000000000000000000000000000000000REP       REP President                                           Roque Rocky DeLa Fuente Guerra        Precinct 7                                             01 
00100010008000000000000000000000000000000000000000000000000000000000000000000000000000000000000000000REP       REP President                                           Roque Rocky DeLa Fuente Guerra        Precinct 8                                             01 
00100010009000000000000000000000000000000000000000000000000000000000000000000000000000000000000000000REP       REP President                                           Roque Rocky DeLa Fuente Guerra        Precinct 9                                             01 
00100010010000000000000000000000000000000000000000000000000000000000000000000000000000000000000000000REP       REP President                                           Roque Rocky DeLa Fuente Guerra        Precinct 10                                            01 
00100010011000000000000000000000000000000000000000000000000000000000000000000000000000000000000000000REP       REP President                                           Roque Rocky DeLa Fuente Guerra        Precinct 11                                            01 
00100010012000001000000000000000001000000000000000000000000000000000000000000000000000000000000000000REP       REP President                                           Roque Rocky DeLa Fuente Guerra        Precinct 13                                            01 
00100010013000000000000000000000000000000000000000000000000000000000000000000000000000000000000000000REP       REP President                                           Roque Rocky DeLa Fuente Guerra        Precinct 14                                            01 
00100010014000002000000000000000002000000000000000000000000000000000000000000000000000000000000000000REP       REP President                                           Roque Rocky DeLa Fuente Guerra        Precinct 15                                            01 
00100010015000000000000000000000000000000000000000000000000000000000000000000000000000000000000000000REP       REP President                                           Roque Rocky DeLa Fuente Guerra        Precinct 16                                            01 
00100010016000000000000000000000000000000000000000000000000000000000000000000000000000000000000000000REP       REP President                                           Roque Rocky DeLa Fuente Guerra        Precinct 17                                            01 
00100010017000002000000000001000001000000000000000000000000000000000000000000000000000000000000000000REP       REP President                                           Roque Rocky DeLa Fuente Guerra        Precinct 18                                            01 
00100020001000263000019000165000079000000000000000000000000000000000000000000000000000000000000000000REP       REP President                                           Donald J. Trump                       Precinct 1                                             01 
00100020002000191000018000107000066000000000000000000000000000000000000000000000000000000000000000000REP       REP President                                           Donald J. Trump                       Precinct 2                                             01 
00100020003000434000049000225000160000000000000000000000000000000000000000000000000000000000000000000REP       REP President                                           Donald J. Trump                       Precinct 3                                             01 
00100020004000486000022000203000261000000000000000000000000000000000000000000000000000000000000000000REP       REP President                                           Donald J. Trump                       Precinct 4                                             01 
00100020005000046000001000024000021000000000000000000000000000000000000000000000000000000000000000000REP       REP President                                           Donald J. Trump                       Precinct 5                                             01 
00100020006000143000030000020000093000000000000000000000000000000000000000000000000000000000000000000REP       REP President                                           Donald J. Trump                       Precinct 6                                             01 
00100020007000239000022000052000165000000000000000000000000000000000000000000000000000000000000000000REP       REP President                                           Donald J. Trump                       Precinct 7                                             01 
00100020008000084000007000040000037000000000000000000000000000000000000000000000000000000000000000000REP       REP President                                           Donald J. Trump                       Precinct 8                                             01 
00100020009000136000010000064000062000000000000000000000000000000000000000000000000000000000000000000REP       REP President                                           Donald J. Trump                       Precinct 9                                             01 
00100020010000420000039000157000224000000000000000000000000000000000000000000000000000000000000000000REP       REP President                                           Donald J. Trump                       Precinct 10                                            01 
00100020011000040000005000013000022000000000000000000000000000000000000000000000000000000000000000000REP       REP President                                           Donald J. Trump                       Precinct 11                                            01 
00100020012000173000014000068000091000000000000000000000000000000000000000000000000000000000000000000REP       REP President                                           Donald J. Trump                       Precinct 13                                            01 
00100020013000539000030000174000335000000000000000000000000000000000000000000000000000000000000000000REP       REP President                                           Donald J. Trump                       Precinct 14                                            01 
00100020014000239000013000029000197000000000000000000000000000000000000000000000000000000000000000000REP       REP President                                           Donald J. Trump                       Precinct 15                                            01 
00100020015000160000013000064000083000000000000000000000000000000000000000000000000000000000000000000REP       REP President                                           Donald J. Trump                       Precinct 16                                            01 
00100020016000134000014000060000060000000000000000000000000000000000000000000000000000000000000000000REP       REP President                                           Donald J. Trump                       Precinct 17                                            01 
00100020017000420000028000248000144000000000000000000000000000000000000000000000000000000000000000000REP       REP President                                           Donald J. Trump                       Precinct 18                                            01 
00100030001000001000000000000000001000000000000000000000000000000000000000000000000000000000000000000REP       REP President                                           Zoltan G. Istvan                      Precinct 1                                             01 
00100030002000000000000000000000000000000000000000000000000000000000000000000000000000000000000000000REP       REP President                                           Zoltan G. Istvan                      Precinct 2                                             01 
00100030003000002000000000001000001000000000000000000000000000000000000000000000000000000000000000000REP       REP President                                           Zoltan G. Istvan                      Precinct 3                                             01 
00100030004000000000000000000000000000000000000000000000000000000000000000000000000000000000000000000REP       REP President                                           Zoltan G. Istvan                      Precinct 4                                             01 
00100030005000000000000000000000000000000000000000000000000000000000000000000000000000000000000000000REP       REP President                                           Zoltan G. Istvan                      Precinct 5                                             01 
00100030006000001000001000000000000000000000000000000000000000000000000000000000000000000000000000000REP       REP President                                           Zoltan G. Istvan                      Precinct 6                                             01 
00100030007000001000000000000000001000000000000000000000000000000000000000000000000000000000000000000REP       REP President                                           Zoltan G. Istvan                      Precinct 7                                             01 
00100030008000000000000000000000000000000000000000000000000000000000000000000000000000000000000000000REP       REP President                                           Zoltan G. Istvan                      Precinct 8                                             01 
00100030009000001000000000000000001000000000000000000000000000000000000000000000000000000000000000000REP       REP President                                           Zoltan G. Istvan                      Precinct 9                                             01 
00100030010000000000000000000000000000000000000000000000000000000000000000000000000000000000000000000REP       REP President                                           Zoltan G. Istvan                      Precinct 10                                            01 
00100030011000000000000000000000000000000000000000000000000000000000000000000000000000000000000000000REP       REP President                                           Zoltan G. Istvan                      Precinct 11                                            01 
00100030012000000000000000000000000000000000000000000000000000000000000000000000000000000000000000000REP       REP President                                           Zoltan G. Istvan                      Precinct 13                                            01 
00100030013000001000000000000000001000000000000000000000000000000000000000000000000000000000000000000REP       REP President                                           Zoltan G. Istvan                      Precinct 14                                            01 
00100030014000000000000000000000000000000000000000000000000000000000000000000000000000000000000000000REP       REP President                                           Zoltan G. Istvan                      Precinct 15                                            01 
00100030015000000000000000000000000000000000000000000000000000000000000000000000000000000000000000000REP       REP President                                           Zoltan G. Istvan                      Precinct 16                                            01 
00100030016000000000000000000000000000000000000000000000000000000000000000000000000000000000000000000REP       REP President                                           Zoltan G. Istvan                      Precinct 17                                            01 
00100030017000000000000000000000000000000000000000000000000000000000000000000000000000000000000000000REP       REP President                                           Zoltan G. Istvan                      Precinct 18                                            01 
00100040001000001000000000001000000000000000000000000000000000000000000000000000000000000000000000000REP       REP President                                           Bill Weld                             Precinct 1                                             01 
00100040002000000000000000000000000000000000000000000000000000000000000000000000000000000000000000000REP       REP President                                           Bill Weld                             Precinct 2                                             01 
00100040003000001000000000001000000000000000000000000000000000000000000000000000000000000000000000000REP       REP President                                           Bill Weld                             Precinct 3                                             01 
00100040004000003000000000001000002000000000000000000000000000000000000000000000000000000000000000000REP       REP President                                           Bill Weld                             Precinct 4                                             01 
00100040005000000000000000000000000000000000000000000000000000000000000000000000000000000000000000000REP       REP President                                           Bill Weld                             Precinct 5                                             01 
00100040006000000000000000000000000000000000000000000000000000000000000000000000000000000000000000000REP       REP President                                           Bill Weld                             Precinct 6                                             01 
00100040007000002000000000002000000000000000000000000000000000000000000000000000000000000000000000000REP       REP President                                           Bill Weld                             Precinct 7                                             01 
00100040008000001000000000000000001000000000000000000000000000000000000000000000000000000000000000000REP       REP President                                           Bill Weld                             Precinct 8                                             01 
00100040009000000000000000000000000000000000000000000000000000000000000000000000000000000000000000000REP       REP President                                           Bill Weld                             Precinct 9                                             01 
00100040010000002000000000002000000000000000000000000000000000000000000000000000000000000000000000000REP       REP President                                           Bill Weld                             Precinct 10                                            01 
00100040011000000000000000000000000000000000000000000000000000000000000000000000000000000000000000000REP       REP President                                           Bill Weld                             Precinct 11                                            01 
00100040012000000000000000000000000000000000000000000000000000000000000000000000000000000000000000000REP       REP President                                           Bill Weld                             Precinct 13                                            01 
00100040013000001000000000001000000000000000000000000000000000000000000000000000000000000000000000000REP       REP President                                           Bill Weld                             Precinct 14                                            01 
00100040014000000000000000000000000000000000000000000000000000000000000000000000000000000000000000000REP       REP President                                           Bill Weld                             Precinct 15                                            01 
00100040015000002000000000000000002000000000000000000000000000000000000000000000000000000000000000000REP       REP President                                           Bill Weld                             Precinct 16                                            01 
00100040016000000000000000000000000000000000000000000000000000000000000000000000000000000000000000000REP       REP President                                           Bill Weld                             Precinct 17                                            01 
00100040017000001000000000001000000000000000000000000000000000000000000000000000000000000000000000000REP       REP President                                           Bill Weld                             Precinct 18                                            01 
00100050001000001000000000001000000000000000000000000000000000000000000000000000000000000000000000000REP       REP President                                           Bob Ely                               Precinct 1                                             01 
00100050002000000000000000000000000000000000000000000000000000000000000000000000000000000000000000000REP       REP President                                           Bob Ely                               Precinct 2                                             01 
00100050003000002000000000001000001000000000000000000000000000000000000000000000000000000000000000000REP       REP President                                           Bob Ely                               Precinct 3                                             01 
00100050004000001000000000000000001000000000000000000000000000000000000000000000000000000000000000000REP       REP President                                           Bob Ely                               Precinct 4                                             01 
00100050005000000000000000000000000000000000000000000000000000000000000000000000000000000000000000000REP       REP President                                           Bob Ely                               Precinct 5                                             01 
00100050006000000000000000000000000000000000000000000000000000000000000000000000000000000000000000000REP       REP President                                           Bob Ely                               Precinct 6                                             01 
00100050007000000000000000000000000000000000000000000000000000000000000000000000000000000000000000000REP       REP President                                           Bob Ely                               Precinct 7                                             01 
00100050008000000000000000000000000000000000000000000000000000000000000000000000000000000000000000000REP       REP President                                           Bob Ely                               Precinct 8                                             01 
00100050009000000000000000000000000000000000000000000000000000000000000000000000000000000000000000000REP       REP President                                           Bob Ely                               Precinct 9                                             01 
00100050010000000000000000000000000000000000000000000000000000000000000000000000000000000000000000000REP       REP President                                           Bob Ely                               Precinct 10                                            01 
00100050011000000000000000000000000000000000000000000000000000000000000000000000000000000000000000000REP       REP President                                           Bob Ely                               Precinct 11                                            01 
00100050012000000000000000000000000000000000000000000000000000000000000000000000000000000000000000000REP       REP President                                           Bob Ely                               Precinct 13                                            01 
00100050013000000000000000000000000000000000000000000000000000000000000000000000000000000000000000000REP       REP President                                           Bob Ely                               Precinct 14                                            01 
00100050014000000000000000000000000000000000000000000000000000000000000000000000000000000000000000000REP       REP President                                           Bob Ely                               Precinct 15                                            01 
00100050015000000000000000000000000000000000000000000000000000000000000000000000000000000000000000000REP       REP President                                           Bob Ely                               Precinct 16                                            01 
00100050016000000000000000000000000000000000000000000000000000000000000000000000000000000000000000000REP       REP President                                           Bob Ely                               Precinct 17                                            01 
00100050017000000000000000000000000000000000000000000000000000000000000000000000000000000000000000000REP       REP President                                           Bob Ely                               Precinct 18                                            01 
00100060001000002000000000001000001000000000000000000000000000000000000000000000000000000000000000000REP       REP President                                           Joe Walsh                             Precinct 1                                             01 
00100060002000002000000000001000001000000000000000000000000000000000000000000000000000000000000000000REP       REP President                                           Joe Walsh                             Precinct 2                                             01 
00100060003000005000000000003000002000000000000000000000000000000000000000000000000000000000000000000REP       REP President                                           Joe Walsh                             Precinct 3                                             01 
00100060004000003000000000000000003000000000000000000000000000000000000000000000000000000000000000000REP       REP President                                           Joe Walsh                             Precinct 4                                             01 
00100060005000001000000000001000000000000000000000000000000000000000000000000000000000000000000000000REP       REP President                                           Joe Walsh                             Precinct 5                                             01 
00100060006000000000000000000000000000000000000000000000000000000000000000000000000000000000000000000REP       REP President                                           Joe Walsh                             Precinct 6                                             01 
00100060007000000000000000000000000000000000000000000000000000000000000000000000000000000000000000000REP       REP President                                           Joe Walsh                             Precinct 7                                             01 
00100060008000002000000000000000002000000000000000000000000000000000000000000000000000000000000000000REP       REP President                                           Joe Walsh                             Precinct 8                                             01 
00100060009000000000000000000000000000000000000000000000000000000000000000000000000000000000000000000REP       REP President                                           Joe Walsh                             Precinct 9                                             01 
00100060010000003000000000001000002000000000000000000000000000000000000000000000000000000000000000000REP       REP President                                           Joe Walsh                             Precinct 10                                            01 
00100060011000000000000000000000000000000000000000000000000000000000000000000000000000000000000000000REP       REP President                                           Joe Walsh                             Precinct 11                                            01 
00100060012000000000000000000000000000000000000000000000000000000000000000000000000000000000000000000REP       REP President                                           Joe Walsh                             Precinct 13                                            01 
00100060013000002000000000001000001000000000000000000000000000000000000000000000000000000000000000000REP       REP President                                           Joe Walsh                             Precinct 14                                            01 
00100060014000000000000000000000000000000000000000000000000000000000000000000000000000000000000000000REP       REP President                                           Joe Walsh                             Precinct 15                                            01 
00100060015000001000000000000000001000000000000000000000000000000000000000000000000000000000000000000REP       REP President                                           Joe Walsh                             Precinct 16                                            01 
00100060016000000000000000000000000000000000000000000000000000000000000000000000000000000000000000000REP       REP President                                           Joe Walsh                             Precinct 17                                            01 
00100060017000002000000000002000000000000000000000000000000000000000000000000000000000000000000000000REP       REP President                                           Joe Walsh                             Precinct 18                                            01 
00100070001000000000000000000000000000000000000000000000000000000000000000000000000000000000000000000REP       REP President                                           Matthew John Matern                   Precinct 1                                             01 
00100070002000000000000000000000000000000000000000000000000000000000000000000000000000000000000000000REP       REP President                                           Matthew John Matern                   Precinct 2                                             01 
00100070003000001000000000000000001000000000000000000000000000000000000000000000000000000000000000000REP       REP President                                           Matthew John Matern                   Precinct 3                                             01 
00100070004000001000000000001000000000000000000000000000000000000000000000000000000000000000000000000REP       REP President                                           Matthew John Matern                   Precinct 4                                             01 
00100070005000000000000000000000000000000000000000000000000000000000000000000000000000000000000000000REP       REP President                                           Matthew John Matern                   Precinct 5                                             01 
00100070006000000000000000000000000000000000000000000000000000000000000000000000000000000000000000000REP       REP President                                           Matthew John Matern                   Precinct 6                                             01 
00100070007000000000000000000000000000000000000000000000000000000000000000000000000000000000000000000REP       REP President                                           Matthew John Matern                   Precinct 7                                             01 
00100070008000000000000000000000000000000000000000000000000000000000000000000000000000000000000000000REP       REP President                                           Matthew John Matern                   Precinct 8                                             01 
00100070009000001000000000000000001000000000000000000000000000000000000000000000000000000000000000000REP       REP President                                           Matthew John Matern                   Precinct 9                                             01 
00100070010000001000000000000000001000000000000000000000000000000000000000000000000000000000000000000REP       REP President                                           Matthew John Matern                   Precinct 10                                            01 
00100070011000000000000000000000000000000000000000000000000000000000000000000000000000000000000000000REP       REP President                                           Matthew John Matern                   Precinct 11                                            01 
00100070012000002000000000001000001000000000000000000000000000000000000000000000000000000000000000000REP       REP President                                           Matthew John Matern                   Precinct 13                                            01 
00100070013000000000000000000000000000000000000000000000000000000000000000000000000000000000000000000REP       REP President                                           Matthew John Matern                   Precinct 14                                            01 
00100070014000000000000000000000000000000000000000000000000000000000000000000000000000000000000000000REP       REP President                                           Matthew John Matern                   Precinct 15                                            01 
00100070015000000000000000000000000000000000000000000000000000000000000000000000000000000000000000000REP       REP President                                           Matthew John Matern                   Precinct 16                                            01 
00100070016000000000000000000000000000000000000000000000000000000000000000000000000000000000000000000REP       REP President                                           Matthew John Matern                   Precinct 17                                            01 
00100070017000000000000000000000000000000000000000000000000000000000000000000000000000000000000000000REP       REP President                                           Matthew John Matern                   Precinct 18                                            01 
00100080001000011000001000007000003000000000000000000000000000000000000000000000000000000000000000000REP       REP President                                           Uncommitted                           Precinct 1                                             01 
00100080002000008000000000004000004000000000000000000000000000000000000000000000000000000000000000000REP       REP President                                           Uncommitted                           Precinct 2                                             01 
00100080003000013000001000008000004000000000000000000000000000000000000000000000000000000000000000000REP       REP President                                           Uncommitted                           Precinct 3                                             01 
00100080004000008000002000000000006000000000000000000000000000000000000000000000000000000000000000000REP       REP President                                           Uncommitted                           Precinct 4                                             01 
00100080005000001000000000001000000000000000000000000000000000000000000000000000000000000000000000000REP       REP President                                           Uncommitted                           Precinct 5                                             01 
00100080006000002000000000000000002000000000000000000000000000000000000000000000000000000000000000000REP       REP President                                           Uncommitted                           Precinct 6                                             01 
00100080007000005000001000002000002000000000000000000000000000000000000000000000000000000000000000000REP       REP President                                           Uncommitted                           Precinct 7                                             01 
00100080008000001000000000001000000000000000000000000000000000000000000000000000000000000000000000000REP       REP President                                           Uncommitted                           Precinct 8                                             01 
00100080009000001000000000000000001000000000000000000000000000000000000000000000000000000000000000000REP       REP President                                           Uncommitted                           Precinct 9                                             01 
00100080010000012000002000004000006000000000000000000000000000000000000000000000000000000000000000000REP       REP President                                           Uncommitted                           Precinct 10                                            01 
00100080011000000000000000000000000000000000000000000000000000000000000000000000000000000000000000000REP       REP President                                           Uncommitted                           Precinct 11                                            01 
00100080012000002000000000000000002000000000000000000000000000000000000000000000000000000000000000000REP       REP President                                           Uncommitted                           Precinct 13                                            01 
00100080013000007000000000001000006000000000000000000000000000000000000000000000000000000000000000000REP       REP President                                           Uncommitted                           Precinct 14                                            01 
00100080014000007000003000001000003000000000000000000000000000000000000000000000000000000000000000000REP       REP President                                           Uncommitted                           Precinct 15                                            01 
00100080015000004000002000001000001000000000000000000000000000000000000000000000000000000000000000000REP       REP President                                           Uncommitted                           Precinct 16                                            01 
00100080016000002000001000000000001000000000000000000000000000000000000000000000000000000000000000000REP       REP President                                           Uncommitted                           Precinct 17                                            01 
00100080017000011000001000008000002000000000000000000000000000000000000000000000000000000000000000000REP       REP President                                           Uncommitted                           Precinct 18                                            01 
00100090001000000000000000000000000000000000000000000000000000000000000000000000000000000000000000000          REP President                                           OVER VOTES                            Precinct 1                                             01 
00100090002000000000000000000000000000000000000000000000000000000000000000000000000000000000000000000          REP President                                           OVER VOTES                            Precinct 2                                             01 
00100090003000000000000000000000000000000000000000000000000000000000000000000000000000000000000000000          REP President                                           OVER VOTES                            Precinct 3                                             01 
00100090004000001000001000000000000000000000000000000000000000000000000000000000000000000000000000000          REP President                                           OVER VOTES                            Precinct 4                                             01 
00100090005000000000000000000000000000000000000000000000000000000000000000000000000000000000000000000          REP President                                           OVER VOTES                            Precinct 5                                             01 
00100090006000000000000000000000000000000000000000000000000000000000000000000000000000000000000000000          REP President                                           OVER VOTES                            Precinct 6                                             01 
00100090007000000000000000000000000000000000000000000000000000000000000000000000000000000000000000000          REP President                                           OVER VOTES                            Precinct 7                                             01 
00100090008000000000000000000000000000000000000000000000000000000000000000000000000000000000000000000          REP President                                           OVER VOTES                            Precinct 8                                             01 
00100090009000000000000000000000000000000000000000000000000000000000000000000000000000000000000000000          REP President                                           OVER VOTES                            Precinct 9                                             01 
00100090010000000000000000000000000000000000000000000000000000000000000000000000000000000000000000000          REP President                                           OVER VOTES                            Precinct 10                                            01 
00100090011000000000000000000000000000000000000000000000000000000000000000000000000000000000000000000          REP President                                           OVER VOTES                            Precinct 11                                            01 
00100090012000000000000000000000000000000000000000000000000000000000000000000000000000000000000000000          REP President                                           OVER VOTES                            Precinct 13                                            01 
00100090013000000000000000000000000000000000000000000000000000000000000000000000000000000000000000000          REP President                                           OVER VOTES                            Precinct 14                                            01 
00100090014000000000000000000000000000000000000000000000000000000000000000000000000000000000000000000          REP President                                           OVER VOTES                            Precinct 15                                            01 
00100090015000000000000000000000000000000000000000000000000000000000000000000000000000000000000000000          REP President                                           OVER VOTES                            Precinct 16                                            01 
00100090016000000000000000000000000000000000000000000000000000000000000000000000000000000000000000000          REP President                                           OVER VOTES                            Precinct 17                                            01 
00100090017000000000000000000000000000000000000000000000000000000000000000000000000000000000000000000          REP President                                           OVER VOTES                            Precinct 18                                            01 
00100100001000010000000000006000004000000000000000000000000000000000000000000000000000000000000000000          REP President                                           UNDER VOTES                           Precinct 1                                             01 
00100100002000005000000000003000002000000000000000000000000000000000000000000000000000000000000000000          REP President                                           UNDER VOTES                           Precinct 2                                             01 
00100100003000003000000000001000002000000000000000000000000000000000000000000000000000000000000000000          REP President                                           UNDER VOTES                           Precinct 3                                             01 
00100100004000010000000000003000007000000000000000000000000000000000000000000000000000000000000000000          REP President                                           UNDER VOTES                           Precinct 4                                             01 
00100100005000001000000000001000000000000000000000000000000000000000000000000000000000000000000000000          REP President                                           UNDER VOTES                           Precinct 5                                             01 
00100100006000000000000000000000000000000000000000000000000000000000000000000000000000000000000000000          REP President                                           UNDER VOTES                           Precinct 6                                             01 
00100100007000000000000000000000000000000000000000000000000000000000000000000000000000000000000000000          REP President                                           UNDER VOTES                           Precinct 7                                             01 
00100100008000000000000000000000000000000000000000000000000000000000000000000000000000000000000000000          REP President                                           UNDER VOTES                           Precinct 8                                             01 
00100100009000000000000000000000000000000000000000000000000000000000000000000000000000000000000000000          REP President                                           UNDER VOTES                           Precinct 9                                             01 
00100100010000001000000000000000001000000000000000000000000000000000000000000000000000000000000000000          REP President                                           UNDER VOTES                           Precinct 10                                            01 
00100100011000000000000000000000000000000000000000000000000000000000000000000000000000000000000000000          REP President                                           UNDER VOTES                           Precinct 11                                            01 
00100100012000000000000000000000000000000000000000000000000000000000000000000000000000000000000000000          REP President                                           UNDER VOTES                           Precinct 13                                            01 
00100100013000006000002000000000004000000000000000000000000000000000000000000000000000000000000000000          REP President                                           UNDER VOTES                           Precinct 14                                            01 
00100100014000006000003000002000001000000000000000000000000000000000000000000000000000000000000000000          REP President                                           UNDER VOTES                           Precinct 15                                            01 
00100100015000002000002000000000000000000000000000000000000000000000000000000000000000000000000000000          REP President                                           UNDER VOTES                           Precinct 16                                            01 
00100100016000001000000000001000000000000000000000000000000000000000000000000000000000000000000000000          REP President                                           UNDER VOTES                           Precinct 17                                            01 
00100100017000012000001000005000006000000000000000000000000000000000000000000000000000000000000000000          REP President                                           UNDER VOTES                           Precinct 18                                            01 
00110010001000027000000000019000008000000000000000000000000000000000000000000000000000000000000000000REP       REP US Senator                                          Mark Yancey                           Precinct 1                                             01 
00110010002000023000003000008000012000000000000000000000000000000000000000000000000000000000000000000REP       REP US Senator                                          Mark Yancey                           Precinct 2                                             01 
00110010003000047000003000022000022000000000000000000000000000000000000000000000000000000000000000000REP       REP US Senator                                          Mark Yancey                           Precinct 3                                             01 
00110010004000049000001000020000028000000000000000000000000000000000000000000000000000000000000000000REP       REP US Senator                                          Mark Yancey                           Precinct 4                                             01 
00110010005000013000000000007000006000000000000000000000000000000000000000000000000000000000000000000REP       REP US Senator                                          Mark Yancey                           Precinct 5                                             01 
00110010006000013000000000003000010000000000000000000000000000000000000000000000000000000000000000000REP       REP US Senator                                          Mark Yancey                           Precinct 6                                             01 
00110010007000029000000000006000023000000000000000000000000000000000000000000000000000000000000000000REP       REP US Senator                                          Mark Yancey                           Precinct 7                                             01 
00110010008000006000000000002000004000000000000000000000000000000000000000000000000000000000000000000REP       REP US Senator                                          Mark Yancey                           Precinct 8                                             01 
00110010009000014000001000004000009000000000000000000000000000000000000000000000000000000000000000000REP       REP US Senator                                          Mark Yancey                           Precinct 9                                             01 
00110010010000050000001000011000038000000000000000000000000000000000000000000000000000000000000000000REP       REP US Senator                                          Mark Yancey                           Precinct 10                                            01 
00110010011000006000000000004000002000000000000000000000000000000000000000000000000000000000000000000REP       REP US Senator                                          Mark Yancey                           Precinct 11                                            01 
00110010012000026000001000012000013000000000000000000000000000000000000000000000000000000000000000000REP       REP US Senator                                          Mark Yancey                           Precinct 13                                            01 
00110010013000067000002000018000047000000000000000000000000000000000000000000000000000000000000000000REP       REP US Senator                                          Mark Yancey                           Precinct 14                                            01 
00110010014000033000004000003000026000000000000000000000000000000000000000000000000000000000000000000REP       REP US Senator                                          Mark Yancey                           Precinct 15                                            01 
00110010015000021000000000004000017000000000000000000000000000000000000000000000000000000000000000000REP       REP US Senator                                          Mark Yancey                           Precinct 16                                            01 
00110010016000015000000000004000011000000000000000000000000000000000000000000000000000000000000000000REP       REP US Senator                                          Mark Yancey                           Precinct 17                                            01 
00110010017000036000001000018000017000000000000000000000000000000000000000000000000000000000000000000REP       REP US Senator                                          Mark Yancey                           Precinct 18                                            01 
00110020001000003000000000002000001000000000000000000000000000000000000000000000000000000000000000000REP       REP US Senator                                          Virgil Bierschwale                    Precinct 1                                             01 
00110020002000004000000000002000002000000000000000000000000000000000000000000000000000000000000000000REP       REP US Senator                                          Virgil Bierschwale                    Precinct 2                                             01 
00110020003000006000000000000000006000000000000000000000000000000000000000000000000000000000000000000REP       REP US Senator                                          Virgil Bierschwale                    Precinct 3                                             01 
00110020004000015000001000007000007000000000000000000000000000000000000000000000000000000000000000000REP       REP US Senator                                          Virgil Bierschwale                    Precinct 4                                             01 
00110020005000000000000000000000000000000000000000000000000000000000000000000000000000000000000000000REP       REP US Senator                                          Virgil Bierschwale                    Precinct 5                                             01 
00110020006000003000000000000000003000000000000000000000000000000000000000000000000000000000000000000REP       REP US Senator                                          Virgil Bierschwale                    Precinct 6                                             01 
00110020007000002000000000000000002000000000000000000000000000000000000000000000000000000000000000000REP       REP US Senator                                          Virgil Bierschwale                    Precinct 7                                             01 
00110020008000000000000000000000000000000000000000000000000000000000000000000000000000000000000000000REP       REP US Senator                                          Virgil Bierschwale                    Precinct 8                                             01 
00110020009000001000000000000000001000000000000000000000000000000000000000000000000000000000000000000REP       REP US Senator                                          Virgil Bierschwale                    Precinct 9                                             01 
00110020010000005000000000003000002000000000000000000000000000000000000000000000000000000000000000000REP       REP US Senator                                          Virgil Bierschwale                    Precinct 10                                            01 
00110020011000000000000000000000000000000000000000000000000000000000000000000000000000000000000000000REP       REP US Senator                                          Virgil Bierschwale                    Precinct 11                                            01 
00110020012000001000000000000000001000000000000000000000000000000000000000000000000000000000000000000REP       REP US Senator                                          Virgil Bierschwale                    Precinct 13                                            01 
00110020013000007000000000001000006000000000000000000000000000000000000000000000000000000000000000000REP       REP US Senator                                          Virgil Bierschwale                    Precinct 14                                            01 
00110020014000005000000000000000005000000000000000000000000000000000000000000000000000000000000000000REP       REP US Senator                                          Virgil Bierschwale                    Precinct 15                                            01 
00110020015000004000000000001000003000000000000000000000000000000000000000000000000000000000000000000REP       REP US Senator                                          Virgil Bierschwale                    Precinct 16                                            01 
00110020016000000000000000000000000000000000000000000000000000000000000000000000000000000000000000000REP       REP US Senator                                          Virgil Bierschwale                    Precinct 17                                            01 
00110020017000003000000000002000001000000000000000000000000000000000000000000000000000000000000000000REP       REP US Senator                                          Virgil Bierschwale                    Precinct 18                                            01 
00110030001000061000002000041000018000000000000000000000000000000000000000000000000000000000000000000REP       REP US Senator                                          Dwayne Stovall                        Precinct 1                                             01 
00110030002000035000003000019000013000000000000000000000000000000000000000000000000000000000000000000REP       REP US Senator                                          Dwayne Stovall                        Precinct 2                                             01 
00110030003000077000008000040000029000000000000000000000000000000000000000000000000000000000000000000REP       REP US Senator                                          Dwayne Stovall                        Precinct 3                                             01 
00110030004000085000000000032000053000000000000000000000000000000000000000000000000000000000000000000REP       REP US Senator                                          Dwayne Stovall                        Precinct 4                                             01 
00110030005000012000000000009000003000000000000000000000000000000000000000000000000000000000000000000REP       REP US Senator                                          Dwayne Stovall                        Precinct 5                                             01 
00110030006000014000002000001000011000000000000000000000000000000000000000000000000000000000000000000REP       REP US Senator                                          Dwayne Stovall                        Precinct 6                                             01 
00110030007000035000001000010000024000000000000000000000000000000000000000000000000000000000000000000REP       REP US Senator                                          Dwayne Stovall                        Precinct 7                                             01 
00110030008000018000002000011000005000000000000000000000000000000000000000000000000000000000000000000REP       REP US Senator                                          Dwayne Stovall                        Precinct 8                                             01 
00110030009000019000000000012000007000000000000000000000000000000000000000000000000000000000000000000REP       REP US Senator                                          Dwayne Stovall                        Precinct 9                                             01 
00110030010000089000006000037000046000000000000000000000000000000000000000000000000000000000000000000REP       REP US Senator                                          Dwayne Stovall                        Precinct 10                                            01 
00110030011000005000000000000000005000000000000000000000000000000000000000000000000000000000000000000REP       REP US Senator                                          Dwayne Stovall                        Precinct 11                                            01 
00110030012000022000001000009000012000000000000000000000000000000000000000000000000000000000000000000REP       REP US Senator                                          Dwayne Stovall                        Precinct 13                                            01 
00110030013000108000006000036000066000000000000000000000000000000000000000000000000000000000000000000REP       REP US Senator                                          Dwayne Stovall                        Precinct 14                                            01 
00110030014000047000002000009000036000000000000000000000000000000000000000000000000000000000000000000REP       REP US Senator                                          Dwayne Stovall                        Precinct 15                                            01 
00110030015000027000000000013000014000000000000000000000000000000000000000000000000000000000000000000REP       REP US Senator                                          Dwayne Stovall                        Precinct 16                                            01 
00110030016000027000003000011000013000000000000000000000000000000000000000000000000000000000000000000REP       REP US Senator                                          Dwayne Stovall                        Precinct 17                                            01 
00110030017000066000002000038000026000000000000000000000000000000000000000000000000000000000000000000REP       REP US Senator                                          Dwayne Stovall                        Precinct 18                                            01 
00110040001000005000000000002000003000000000000000000000000000000000000000000000000000000000000000000REP       REP US Senator                                          John Anthony Castro                   Precinct 1                                             01 
00110040002000007000000000005000002000000000000000000000000000000000000000000000000000000000000000000REP       REP US Senator                                          John Anthony Castro                   Precinct 2                                             01 
00110040003000020000001000012000007000000000000000000000000000000000000000000000000000000000000000000REP       REP US Senator                                          John Anthony Castro                   Precinct 3                                             01 
