00010010001000000000000000000000000000000000000000000000000000000000000000000000000000000000000000000          REGISTERED VOTERS - TOTAL                               REGISTERED VOTERS - TOTAL             Precinct 1, Voting Box 1                               00 
00010010002000000000000000000000000000000000000000000000000000000000000000000000000000000000000000000          REGISTERED VOTERS - TOTAL                               REGISTERED VOTERS - TOTAL             Precinct 2, Voting Box 2                               00 
00010010003000000000000000000000000000000000000000000000000000000000000000000000000000000000000000000          REGISTERED VOTERS - TOTAL                               REGISTERED VOTERS - TOTAL             Precinct 3, Voting Box 3                               00 
00010010004000000000000000000000000000000000000000000000000000000000000000000000000000000000000000000          REGISTERED VOTERS - TOTAL                               REGISTERED VOTERS - TOTAL             Precinct 4, Voting Box 4                               00 
00010010005000000000000000000000000000000000000000000000000000000000000000000000000000000000000000000          REGISTERED VOTERS - TOTAL                               REGISTERED VOTERS - TOTAL             Precinct 1, Voting Box 5                               00 
00010010006000000000000000000000000000000000000000000000000000000000000000000000000000000000000000000          REGISTERED VOTERS - TOTAL                               REGISTERED VOTERS - TOTAL             Precinct 2, Voting Box 6                               00 
00020010001000000000000000000000000000000000000000000000000000000000000000000000000000000000000000000NON       REGISTERED VOTERS - NONPARTISAN                         REGISTERED VOTERS - NONPARTISAN       Precinct 1, Voting Box 1                               00 
00020010002000000000000000000000000000000000000000000000000000000000000000000000000000000000000000000NON       REGISTERED VOTERS - NONPARTISAN                         REGISTERED VOTERS - NONPARTISAN       Precinct 2, Voting Box 2                               00 
00020010003000000000000000000000000000000000000000000000000000000000000000000000000000000000000000000NON       REGISTERED VOTERS - NONPARTISAN                         REGISTERED VOTERS - NONPARTISAN       Precinct 3, Voting Box 3                               00 
00020010004000000000000000000000000000000000000000000000000000000000000000000000000000000000000000000NON       REGISTERED VOTERS - NONPARTISAN                         REGISTERED VOTERS - NONPARTISAN       Precinct 4, Voting Box 4                               00 
00020010005000000000000000000000000000000000000000000000000000000000000000000000000000000000000000000NON       REGISTERED VOTERS - NONPARTISAN                         REGISTERED VOTERS - NONPARTISAN       Precinct 1, Voting Box 5                               00 
00020010006000000000000000000000000000000000000000000000000000000000000000000000000000000000000000000NON       REGISTERED VOTERS - NONPARTISAN                         REGISTERED VOTERS - NONPARTISAN       Precinct 2, Voting Box 6                               00 
00030010001000000000000000000000000000000000000000000000000000000000000000000000000000000000000000000REP       REGISTERED VOTERS - Republican Party                    REGISTERED VOTERS - Republican Party  Precinct 1, Voting Box 1                               00 
00030010002000000000000000000000000000000000000000000000000000000000000000000000000000000000000000000REP       REGISTERED VOTERS - Republican Party                    REGISTERED VOTERS - Republican Party  Precinct 2, Voting Box 2                               00 
00030010003000000000000000000000000000000000000000000000000000000000000000000000000000000000000000000REP       REGISTERED VOTERS - Republican Party                    REGISTERED VOTERS - Republican Party  Precinct 3, Voting Box 3                               00 
00030010004000000000000000000000000000000000000000000000000000000000000000000000000000000000000000000REP       REGISTERED VOTERS - Republican Party                    REGISTERED VOTERS - Republican Party  Precinct 4, Voting Box 4                               00 
00030010005000000000000000000000000000000000000000000000000000000000000000000000000000000000000000000REP       REGISTERED VOTERS - Republican Party                    REGISTERED VOTERS - Republican Party  Precinct 1, Voting Box 5                               00 
00030010006000000000000000000000000000000000000000000000000000000000000000000000000000000000000000000REP       REGISTERED VOTERS - Republican Party                    REGISTERED VOTERS - Republican Party  Precinct 2, Voting Box 6                               00 
00040010001000000000000000000000000000000000000000000000000000000000000000000000000000000000000000000DEM       REGISTERED VOTERS - Democratic Party                    REGISTERED VOTERS - Democratic Party  Precinct 1, Voting Box 1                               00 
00040010002000000000000000000000000000000000000000000000000000000000000000000000000000000000000000000DEM       REGISTERED VOTERS - Democratic Party                    REGISTERED VOTERS - Democratic Party  Precinct 2, Voting Box 2                               00 
00040010003000000000000000000000000000000000000000000000000000000000000000000000000000000000000000000DEM       REGISTERED VOTERS - Democratic Party                    REGISTERED VOTERS - Democratic Party  Precinct 3, Voting Box 3                               00 
00040010004000000000000000000000000000000000000000000000000000000000000000000000000000000000000000000DEM       REGISTERED VOTERS - Democratic Party                    REGISTERED VOTERS - Democratic Party  Precinct 4, Voting Box 4                               00 
00040010005000000000000000000000000000000000000000000000000000000000000000000000000000000000000000000DEM       REGISTERED VOTERS - Democratic Party                    REGISTERED VOTERS - Democratic Party  Precinct 1, Voting Box 5                               00 
00040010006000000000000000000000000000000000000000000000000000000000000000000000000000000000000000000DEM       REGISTERED VOTERS - Democratic Party                    REGISTERED VOTERS - Democratic Party  Precinct 2, Voting Box 6                               00 
00050010001000251000006000166000079000000000000000000000000000000000000000000000000000000000000000000          BALLOTS CAST - TOTAL                                    BALLOTS CAST - TOTAL                  Precinct 1, Voting Box 1                               00 
00050010002000085000002000039000044000000000000000000000000000000000000000000000000000000000000000000          BALLOTS CAST - TOTAL                                    BALLOTS CAST - TOTAL                  Precinct 2, Voting Box 2                               00 
00050010003000109000006000062000041000000000000000000000000000000000000000000000000000000000000000000          BALLOTS CAST - TOTAL                                    BALLOTS CAST - TOTAL                  Precinct 3, Voting Box 3                               00 
00050010004000165000006000085000074000000000000000000000000000000000000000000000000000000000000000000          BALLOTS CAST - TOTAL                                    BALLOTS CAST - TOTAL                  Precinct 4, Voting Box 4                               00 
00050010005000051000001000004000046000000000000000000000000000000000000000000000000000000000000000000          BALLOTS CAST - TOTAL                                    BALLOTS CAST - TOTAL                  Precinct 1, Voting Box 5                               00 
00050010006000077000005000042000030000000000000000000000000000000000000000000000000000000000000000000          BALLOTS CAST - TOTAL                                    BALLOTS CAST - TOTAL                  Precinct 2, Voting Box 6                               00 
00060010001000000000000000000000000000000000000000000000000000000000000000000000000000000000000000000NON       BALLOTS CAST - NONPARTISAN                              BALLOTS CAST - NONPARTISAN            Precinct 1, Voting Box 1                               00 
00060010002000000000000000000000000000000000000000000000000000000000000000000000000000000000000000000NON       BALLOTS CAST - NONPARTISAN                              BALLOTS CAST - NONPARTISAN            Precinct 2, Voting Box 2                               00 
00060010003000000000000000000000000000000000000000000000000000000000000000000000000000000000000000000NON       BALLOTS CAST - NONPARTISAN                              BALLOTS CAST - NONPARTISAN            Precinct 3, Voting Box 3                               00 
00060010004000000000000000000000000000000000000000000000000000000000000000000000000000000000000000000NON       BALLOTS CAST - NONPARTISAN                              BALLOTS CAST - NONPARTISAN            Precinct 4, Voting Box 4                               00 
00060010005000000000000000000000000000000000000000000000000000000000000000000000000000000000000000000NON       BALLOTS CAST - NONPARTISAN                              BALLOTS CAST - NONPARTISAN            Precinct 1, Voting Box 5                               00 
00060010006000000000000000000000000000000000000000000000000000000000000000000000000000000000000000000NON       BALLOTS CAST - NONPARTISAN                              BALLOTS CAST - NONPARTISAN            Precinct 2, Voting Box 6                               00 
00070010001000233000005000155000073000000000000000000000000000000000000000000000000000000000000000000REP       BALLOTS CAST - Republican Party                         BALLOTS CAST - Republican Party       Precinct 1, Voting Box 1                               00 
00070010002000077000000000038000039000000000000000000000000000000000000000000000000000000000000000000REP       BALLOTS CAST - Republican Party                         BALLOTS CAST - Republican Party       Precinct 2, Voting Box 2                               00 
00070010003000082000002000054000026000000000000000000000000000000000000000000000000000000000000000000REP       BALLOTS CAST - Republican Party                         BALLOTS CAST - Republican Party       Precinct 3, Voting Box 3                               00 
00070010004000139000002000072000065000000000000000000000000000000000000000000000000000000000000000000REP       BALLOTS CAST - Republican Party                         BALLOTS CAST - Republican Party       Precinct 4, Voting Box 4                               00 
00070010005000044000001000004000039000000000000000000000000000000000000000000000000000000000000000000REP       BALLOTS CAST - Republican Party                         BALLOTS CAST - Republican Party       Precinct 1, Voting Box 5                               00 
00070010006000067000004000040000023000000000000000000000000000000000000000000000000000000000000000000REP       BALLOTS CAST - Republican Party                         BALLOTS CAST - Republican Party       Precinct 2, Voting Box 6                               00 
00080010001000018000001000011000006000000000000000000000000000000000000000000000000000000000000000000DEM       BALLOTS CAST - Democratic Party                         BALLOTS CAST - Democratic Party       Precinct 1, Voting Box 1                               00 
00080010002000008000002000001000005000000000000000000000000000000000000000000000000000000000000000000DEM       BALLOTS CAST - Democratic Party                         BALLOTS CAST - Democratic Party       Precinct 2, Voting Box 2                               00 
00080010003000027000004000008000015000000000000000000000000000000000000000000000000000000000000000000DEM       BALLOTS CAST - Democratic Party                         BALLOTS CAST - Democratic Party       Precinct 3, Voting Box 3                               00 
00080010004000026000004000013000009000000000000000000000000000000000000000000000000000000000000000000DEM       BALLOTS CAST - Democratic Party                         BALLOTS CAST - Democratic Party       Precinct 4, Voting Box 4                               00 
00080010005000007000000000000000007000000000000000000000000000000000000000000000000000000000000000000DEM       BALLOTS CAST - Democratic Party                         BALLOTS CAST - Democratic Party       Precinct 1, Voting Box 5                               00 
00080010006000010000001000002000007000000000000000000000000000000000000000000000000000000000000000000DEM       BALLOTS CAST - Democratic Party                         BALLOTS CAST - Democratic Party       Precinct 2, Voting Box 6                               00 
00090010001000000000000000000000000000000000000000000000000000000000000000000000000000000000000000000          BALLOTS CAST - BLANK                                    BALLOTS CAST - BLANK                  Precinct 1, Voting Box 1                               00 
00090010002000000000000000000000000000000000000000000000000000000000000000000000000000000000000000000          BALLOTS CAST - BLANK                                    BALLOTS CAST - BLANK                  Precinct 2, Voting Box 2                               00 
00090010003000000000000000000000000000000000000000000000000000000000000000000000000000000000000000000          BALLOTS CAST - BLANK                                    BALLOTS CAST - BLANK                  Precinct 3, Voting Box 3                               00 
00090010004000000000000000000000000000000000000000000000000000000000000000000000000000000000000000000          BALLOTS CAST - BLANK                                    BALLOTS CAST - BLANK                  Precinct 4, Voting Box 4                               00 
00090010005000000000000000000000000000000000000000000000000000000000000000000000000000000000000000000          BALLOTS CAST - BLANK                                    BALLOTS CAST - BLANK                  Precinct 1, Voting Box 5                               00 
00090010006000000000000000000000000000000000000000000000000000000000000000000000000000000000000000000          BALLOTS CAST - BLANK                                    BALLOTS CAST - BLANK                  Precinct 2, Voting Box 6                               00 
00100010001000005000000000002000003000000000000000000000000000000000000000000000000000000000000000000REP       REP President                                           Roque Rocky DeLa Fuente Guerra        Precinct 1, Voting Box 1                               01 
00100010002000000000000000000000000000000000000000000000000000000000000000000000000000000000000000000REP       REP President                                           Roque Rocky DeLa Fuente Guerra        Precinct 2, Voting Box 2                               01 
00100010003000000000000000000000000000000000000000000000000000000000000000000000000000000000000000000REP       REP President                                           Roque Rocky DeLa Fuente Guerra        Precinct 3, Voting Box 3                               01 
00100010004000001000000000000000001000000000000000000000000000000000000000000000000000000000000000000REP       REP President                                           Roque Rocky DeLa Fuente Guerra        Precinct 4, Voting Box 4                               01 
00100010005000000000000000000000000000000000000000000000000000000000000000000000000000000000000000000REP       REP President                                           Roque Rocky DeLa Fuente Guerra        Precinct 1, Voting Box 5                               01 
00100010006000001000000000000000001000000000000000000000000000000000000000000000000000000000000000000REP       REP President                                           Roque Rocky DeLa Fuente Guerra        Precinct 2, Voting Box 6                               01 
00100020001000212000005000142000065000000000000000000000000000000000000000000000000000000000000000000REP       REP President                                           Donald J. Trump                       Precinct 1, Voting Box 1                               01 
00100020002000070000000000035000035000000000000000000000000000000000000000000000000000000000000000000REP       REP President                                           Donald J. Trump                       Precinct 2, Voting Box 2                               01 
00100020003000077000002000049000026000000000000000000000000000000000000000000000000000000000000000000REP       REP President                                           Donald J. Trump                       Precinct 3, Voting Box 3                               01 
00100020004000135000002000071000062000000000000000000000000000000000000000000000000000000000000000000REP       REP President                                           Donald J. Trump                       Precinct 4, Voting Box 4                               01 
00100020005000044000001000004000039000000000000000000000000000000000000000000000000000000000000000000REP       REP President                                           Donald J. Trump                       Precinct 1, Voting Box 5                               01 
00100020006000059000003000035000021000000000000000000000000000000000000000000000000000000000000000000REP       REP President                                           Donald J. Trump                       Precinct 2, Voting Box 6                               01 
00100030001000001000000000001000000000000000000000000000000000000000000000000000000000000000000000000REP       REP President                                           Joe Walsh                             Precinct 1, Voting Box 1                               01 
00100030002000000000000000000000000000000000000000000000000000000000000000000000000000000000000000000REP       REP President                                           Joe Walsh                             Precinct 2, Voting Box 2                               01 
00100030003000001000000000001000000000000000000000000000000000000000000000000000000000000000000000000REP       REP President                                           Joe Walsh                             Precinct 3, Voting Box 3                               01 
00100030004000000000000000000000000000000000000000000000000000000000000000000000000000000000000000000REP       REP President                                           Joe Walsh                             Precinct 4, Voting Box 4                               01 
00100030005000000000000000000000000000000000000000000000000000000000000000000000000000000000000000000REP       REP President                                           Joe Walsh                             Precinct 1, Voting Box 5                               01 
00100030006000000000000000000000000000000000000000000000000000000000000000000000000000000000000000000REP       REP President                                           Joe Walsh                             Precinct 2, Voting Box 6                               01 
00100040001000001000000000000000001000000000000000000000000000000000000000000000000000000000000000000REP       REP President                                           Bill Weld                             Precinct 1, Voting Box 1                               01 
00100040002000002000000000000000002000000000000000000000000000000000000000000000000000000000000000000REP       REP President                                           Bill Weld                             Precinct 2, Voting Box 2                               01 
00100040003000001000000000001000000000000000000000000000000000000000000000000000000000000000000000000REP       REP President                                           Bill Weld                             Precinct 3, Voting Box 3                               01 
00100040004000000000000000000000000000000000000000000000000000000000000000000000000000000000000000000REP       REP President                                           Bill Weld                             Precinct 4, Voting Box 4                               01 
00100040005000000000000000000000000000000000000000000000000000000000000000000000000000000000000000000REP       REP President                                           Bill Weld                             Precinct 1, Voting Box 5                               01 
00100040006000000000000000000000000000000000000000000000000000000000000000000000000000000000000000000REP       REP President                                           Bill Weld                             Precinct 2, Voting Box 6                               01 
00100050001000001000000000001000000000000000000000000000000000000000000000000000000000000000000000000REP       REP President                                           Matthew John Matern                   Precinct 1, Voting Box 1                               01 
00100050002000002000000000002000000000000000000000000000000000000000000000000000000000000000000000000REP       REP President                                           Matthew John Matern                   Precinct 2, Voting Box 2                               01 
00100050003000000000000000000000000000000000000000000000000000000000000000000000000000000000000000000REP       REP President                                           Matthew John Matern                   Precinct 3, Voting Box 3                               01 
00100050004000000000000000000000000000000000000000000000000000000000000000000000000000000000000000000REP       REP President                                           Matthew John Matern                   Precinct 4, Voting Box 4                               01 
00100050005000000000000000000000000000000000000000000000000000000000000000000000000000000000000000000REP       REP President                                           Matthew John Matern                   Precinct 1, Voting Box 5                               01 
00100050006000000000000000000000000000000000000000000000000000000000000000000000000000000000000000000REP       REP President                                           Matthew John Matern                   Precinct 2, Voting Box 6                               01 
00100060001000000000000000000000000000000000000000000000000000000000000000000000000000000000000000000REP       REP President                                           Bob Ely                               Precinct 1, Voting Box 1                               01 
00100060002000000000000000000000000000000000000000000000000000000000000000000000000000000000000000000REP       REP President                                           Bob Ely                               Precinct 2, Voting Box 2                               01 
00100060003000000000000000000000000000000000000000000000000000000000000000000000000000000000000000000REP       REP President                                           Bob Ely                               Precinct 3, Voting Box 3                               01 
00100060004000000000000000000000000000000000000000000000000000000000000000000000000000000000000000000REP       REP President                                           Bob Ely                               Precinct 4, Voting Box 4                               01 
00100060005000000000000000000000000000000000000000000000000000000000000000000000000000000000000000000REP       REP President                                           Bob Ely                               Precinct 1, Voting Box 5                               01 
00100060006000000000000000000000000000000000000000000000000000000000000000000000000000000000000000000REP       REP President                                           Bob Ely                               Precinct 2, Voting Box 6                               01 
00100070001000000000000000000000000000000000000000000000000000000000000000000000000000000000000000000REP       REP President                                           Zoltan G. Istvan                      Precinct 1, Voting Box 1                               01 
00100070002000000000000000000000000000000000000000000000000000000000000000000000000000000000000000000REP       REP President                                           Zoltan G. Istvan                      Precinct 2, Voting Box 2                               01 
00100070003000000000000000000000000000000000000000000000000000000000000000000000000000000000000000000REP       REP President                                           Zoltan G. Istvan                      Precinct 3, Voting Box 3                               01 
00100070004000000000000000000000000000000000000000000000000000000000000000000000000000000000000000000REP       REP President                                           Zoltan G. Istvan                      Precinct 4, Voting Box 4                               01 
00100070005000000000000000000000000000000000000000000000000000000000000000000000000000000000000000000REP       REP President                                           Zoltan G. Istvan                      Precinct 1, Voting Box 5                               01 
00100070006000001000001000000000000000000000000000000000000000000000000000000000000000000000000000000REP       REP President                                           Zoltan G. Istvan                      Precinct 2, Voting Box 6                               01 
00100080001000010000000000006000004000000000000000000000000000000000000000000000000000000000000000000REP       REP President                                           Uncommitted                           Precinct 1, Voting Box 1                               01 
00100080002000002000000000000000002000000000000000000000000000000000000000000000000000000000000000000REP       REP President                                           Uncommitted                           Precinct 2, Voting Box 2                               01 
00100080003000002000000000002000000000000000000000000000000000000000000000000000000000000000000000000REP       REP President                                           Uncommitted                           Precinct 3, Voting Box 3                               01 
00100080004000002000000000000000002000000000000000000000000000000000000000000000000000000000000000000REP       REP President                                           Uncommitted                           Precinct 4, Voting Box 4                               01 
00100080005000000000000000000000000000000000000000000000000000000000000000000000000000000000000000000REP       REP President                                           Uncommitted                           Precinct 1, Voting Box 5                               01 
00100080006000005000000000004000001000000000000000000000000000000000000000000000000000000000000000000REP       REP President                                           Uncommitted                           Precinct 2, Voting Box 6                               01 
00100090001000000000000000000000000000000000000000000000000000000000000000000000000000000000000000000          REP President                                           OVER VOTES                            Precinct 1, Voting Box 1                               01 
00100090002000000000000000000000000000000000000000000000000000000000000000000000000000000000000000000          REP President                                           OVER VOTES                            Precinct 2, Voting Box 2                               01 
00100090003000000000000000000000000000000000000000000000000000000000000000000000000000000000000000000          REP President                                           OVER VOTES                            Precinct 3, Voting Box 3                               01 
00100090004000000000000000000000000000000000000000000000000000000000000000000000000000000000000000000          REP President                                           OVER VOTES                            Precinct 4, Voting Box 4                               01 
00100090005000000000000000000000000000000000000000000000000000000000000000000000000000000000000000000          REP President                                           OVER VOTES                            Precinct 1, Voting Box 5                               01 
00100090006000000000000000000000000000000000000000000000000000000000000000000000000000000000000000000          REP President                                           OVER VOTES                            Precinct 2, Voting Box 6                               01 
00100100001000003000000000003000000000000000000000000000000000000000000000000000000000000000000000000          REP President                                           UNDER VOTES                           Precinct 1, Voting Box 1                               01 
00100100002000001000000000001000000000000000000000000000000000000000000000000000000000000000000000000          REP President                                           UNDER VOTES                           Precinct 2, Voting Box 2                               01 
00100100003000001000000000001000000000000000000000000000000000000000000000000000000000000000000000000          REP President                                           UNDER VOTES                           Precinct 3, Voting Box 3                               01 
00100100004000001000000000001000000000000000000000000000000000000000000000000000000000000000000000000          REP President                                           UNDER VOTES                           Precinct 4, Voting Box 4                               01 
00100100005000000000000000000000000000000000000000000000000000000000000000000000000000000000000000000          REP President                                           UNDER VOTES                           Precinct 1, Voting Box 5                               01 
00100100006000001000000000001000000000000000000000000000000000000000000000000000000000000000000000000          REP President                                           UNDER VOTES                           Precinct 2, Voting Box 6                               01 
00110010001000140000004000094000042000000000000000000000000000000000000000000000000000000000000000000REP       REP US Senator                                          John Cornyn                           Precinct 1, Voting Box 1                               01 
00110010002000044000000000020000024000000000000000000000000000000000000000000000000000000000000000000REP       REP US Senator                                          John Cornyn                           Precinct 2, Voting Box 2                               01 
00110010003000057000002000039000016000000000000000000000000000000000000000000000000000000000000000000REP       REP US Senator                                          John Cornyn                           Precinct 3, Voting Box 3                               01 
00110010004000091000002000047000042000000000000000000000000000000000000000000000000000000000000000000REP       REP US Senator                                          John Cornyn                           Precinct 4, Voting Box 4                               01 
00110010005000022000000000002000020000000000000000000000000000000000000000000000000000000000000000000REP       REP US Senator                                          John Cornyn                           Precinct 1, Voting Box 5                               01 
00110010006000050000004000031000015000000000000000000000000000000000000000000000000000000000000000000REP       REP US Senator                                          John Cornyn                           Precinct 2, Voting Box 6                               01 
00110020001000028000000000017000011000000000000000000000000000000000000000000000000000000000000000000REP       REP US Senator                                          John Anthony Castro                   Precinct 1, Voting Box 1                               01 
00110020002000014000000000007000007000000000000000000000000000000000000000000000000000000000000000000REP       REP US Senator                                          John Anthony Castro                   Precinct 2, Voting Box 2                               01 
00110020003000006000000000002000004000000000000000000000000000000000000000000000000000000000000000000REP       REP US Senator                                          John Anthony Castro                   Precinct 3, Voting Box 3                               01 
00110020004000016000000000007000009000000000000000000000000000000000000000000000000000000000000000000REP       REP US Senator                                          John Anthony Castro                   Precinct 4, Voting Box 4                               01 
00110020005000005000000000000000005000000000000000000000000000000000000000000000000000000000000000000REP       REP US Senator                                          John Anthony Castro                   Precinct 1, Voting Box 5                               01 
00110020006000004000000000001000003000000000000000000000000000000000000000000000000000000000000000000REP       REP US Senator                                          John Anthony Castro                   Precinct 2, Voting Box 6                               01 
00110030001000020000000000013000007000000000000000000000000000000000000000000000000000000000000000000REP       REP US Senator                                          Dwayne Stovall                        Precinct 1, Voting Box 1                               01 
00110030002000010000000000003000007000000000000000000000000000000000000000000000000000000000000000000REP       REP US Senator                                          Dwayne Stovall                        Precinct 2, Voting Box 2                               01 
00110030003000012000000000007000005000000000000000000000000000000000000000000000000000000000000000000REP       REP US Senator                                          Dwayne Stovall                        Precinct 3, Voting Box 3                               01 
00110030004000017000000000011000006000000000000000000000000000000000000000000000000000000000000000000REP       REP US Senator                                          Dwayne Stovall                        Precinct 4, Voting Box 4                               01 
00110030005000008000000000000000008000000000000000000000000000000000000000000000000000000000000000000REP       REP US Senator                                          Dwayne Stovall                        Precinct 1, Voting Box 5                               01 
00110030006000009000000000005000004000000000000000000000000000000000000000000000000000000000000000000REP       REP US Senator                                          Dwayne Stovall                        Precinct 2, Voting Box 6                               01 
00110040001000014000000000009000005000000000000000000000000000000000000000000000000000000000000000000REP       REP US Senator                                          Mark Yancey                           Precinct 1, Voting Box 1                               01 
00110040002000004000000000004000000000000000000000000000000000000000000000000000000000000000000000000REP       REP US Senator                                          Mark Yancey                           Precinct 2, Voting Box 2                               01 
00110040003000002000000000001000001000000000000000000000000000000000000000000000000000000000000000000REP       REP US Senator                                          Mark Yancey                           Precinct 3, Voting Box 3                               01 
00110040004000008000000000004000004000000000000000000000000000000000000000000000000000000000000000000REP       REP US Senator                                          Mark Yancey                           Precinct 4, Voting Box 4                               01 
00110040005000002000000000000000002000000000000000000000000000000000000000000000000000000000000000000REP       REP US Senator                                          Mark Yancey                           Precinct 1, Voting Box 5                               01 
00110040006000001000000000001000000000000000000000000000000000000000000000000000000000000000000000000REP       REP US Senator                                          Mark Yancey                           Precinct 2, Voting Box 6                               01 
00110050001000003000000000002000001000000000000000000000000000000000000000000000000000000000000000000REP       REP US Senator                                          Virgil Bierschwale                    Precinct 1, Voting Box 1                               01 
00110050002000000000000000000000000000000000000000000000000000000000000000000000000000000000000000000REP       REP US Senator                                          Virgil Bierschwale                    Precinct 2, Voting Box 2                               01 
00110050003000001000000000001000000000000000000000000000000000000000000000000000000000000000000000000REP       REP US Senator                                          Virgil Bierschwale                    Precinct 3, Voting Box 3                               01 
00110050004000002000000000001000001000000000000000000000000000000000000000000000000000000000000000000REP       REP US Senator                                          Virgil Bierschwale                    Precinct 4, Voting Box 4                               01 
00110050005000000000000000000000000000000000000000000000000000000000000000000000000000000000000000000REP       REP US Senator                                          Virgil Bierschwale                    Precinct 1, Voting Box 5                               01 
00110050006000000000000000000000000000000000000000000000000000000000000000000000000000000000000000000REP       REP US Senator                                          Virgil Bierschwale                    Precinct 2, Voting Box 6                               01 
00110060001000000000000000000000000000000000000000000000000000000000000000000000000000000000000000000          REP US Senator                                          OVER VOTES                            Precinct 1, Voting Box 1                               01 
00110060002000000000000000000000000000000000000000000000000000000000000000000000000000000000000000000          REP US Senator                                          OVER VOTES                            Precinct 2, Voting Box 2                               01 
00110060003000000000000000000000000000000000000000000000000000000000000000000000000000000000000000000          REP US Senator                                          OVER VOTES                            Precinct 3, Voting Box 3                               01 
00110060004000000000000000000000000000000000000000000000000000000000000000000000000000000000000000000          REP US Senator                                          OVER VOTES                            Precinct 4, Voting Box 4                               01 
00110060005000000000000000000000000000000000000000000000000000000000000000000000000000000000000000000          REP US Senator                                          OVER VOTES                            Precinct 1, Voting Box 5                               01 
00110060006000000000000000000000000000000000000000000000000000000000000000000000000000000000000000000          REP US Senator                                          OVER VOTES                            Precinct 2, Voting Box 6                               01 
00110070001000028000001000020000007000000000000000000000000000000000000000000000000000000000000000000          REP US Senator                                          UNDER VOTES                           Precinct 1, Voting Box 1                               01 
00110070002000005000000000004000001000000000000000000000000000000000000000000000000000000000000000000          REP US Senator                                          UNDER VOTES                           Precinct 2, Voting Box 2                               01 
00110070003000004000000000004000000000000000000000000000000000000000000000000000000000000000000000000          REP US Senator                                          UNDER VOTES                           Precinct 3, Voting Box 3                               01 
00110070004000005000000000002000003000000000000000000000000000000000000000000000000000000000000000000          REP US Senator                                          UNDER VOTES                           Precinct 4, Voting Box 4                               01 
00110070005000007000001000002000004000000000000000000000000000000000000000000000000000000000000000000          REP US Senator                                          UNDER VOTES                           Precinct 1, Voting Box 5                               01 
00110070006000003000000000002000001000000000000000000000000000000000000000000000000000000000000000000          REP US Senator                                          UNDER VOTES                           Precinct 2, Voting Box 6                               01 
00120010001000025000000000016000009000000000000000000000000000000000000000000000000000000000000000000REP       REP US Representative, Dist 23                          Raul Reyes                            Precinct 1, Voting Box 1                               01 
00120010002000009000000000004000005000000000000000000000000000000000000000000000000000000000000000000REP       REP US Representative, Dist 23                          Raul Reyes                            Precinct 2, Voting Box 2                               01 
00120010003000007000001000005000001000000000000000000000000000000000000000000000000000000000000000000REP       REP US Representative, Dist 23                          Raul Reyes                            Precinct 3, Voting Box 3                               01 
00120010004000013000001000005000007000000000000000000000000000000000000000000000000000000000000000000REP       REP US Representative, Dist 23                          Raul Reyes                            Precinct 4, Voting Box 4                               01 
00120010005000002000000000001000001000000000000000000000000000000000000000000000000000000000000000000REP       REP US Representative, Dist 23                          Raul Reyes                            Precinct 1, Voting Box 5                               01 
00120010006000004000000000002000002000000000000000000000000000000000000000000000000000000000000000000REP       REP US Representative, Dist 23                          Raul Reyes                            Precinct 2, Voting Box 6                               01 
00120020001000033000000000020000013000000000000000000000000000000000000000000000000000000000000000000REP       REP US Representative, Dist 23                          Tony Gonzales                         Precinct 1, Voting Box 1                               01 
00120020002000011000000000003000008000000000000000000000000000000000000000000000000000000000000000000REP       REP US Representative, Dist 23                          Tony Gonzales                         Precinct 2, Voting Box 2                               01 
00120020003000021000001000011000009000000000000000000000000000000000000000000000000000000000000000000REP       REP US Representative, Dist 23                          Tony Gonzales                         Precinct 3, Voting Box 3                               01 
00120020004000030000000000014000016000000000000000000000000000000000000000000000000000000000000000000REP       REP US Representative, Dist 23                          Tony Gonzales                         Precinct 4, Voting Box 4                               01 
00120020005000007000000000000000007000000000000000000000000000000000000000000000000000000000000000000REP       REP US Representative, Dist 23                          Tony Gonzales                         Precinct 1, Voting Box 5                               01 
00120020006000020000001000011000008000000000000000000000000000000000000000000000000000000000000000000REP       REP US Representative, Dist 23                          Tony Gonzales                         Precinct 2, Voting Box 6                               01 
00120030001000022000000000019000003000000000000000000000000000000000000000000000000000000000000000000REP       REP US Representative, Dist 23                          Cecil B. "Burt" Jones                 Precinct 1, Voting Box 1                               01 
00120030002000003000000000000000003000000000000000000000000000000000000000000000000000000000000000000REP       REP US Representative, Dist 23                          Cecil B. "Burt" Jones                 Precinct 2, Voting Box 2                               01 
00120030003000003000000000002000001000000000000000000000000000000000000000000000000000000000000000000REP       REP US Representative, Dist 23                          Cecil B. "Burt" Jones                 Precinct 3, Voting Box 3                               01 
00120030004000008000000000004000004000000000000000000000000000000000000000000000000000000000000000000REP       REP US Representative, Dist 23                          Cecil B. "Burt" Jones                 Precinct 4, Voting Box 4                               01 
00120030005000005000000000000000005000000000000000000000000000000000000000000000000000000000000000000REP       REP US Representative, Dist 23                          Cecil B. "Burt" Jones                 Precinct 1, Voting Box 5                               01 
00120030006000003000000000002000001000000000000000000000000000000000000000000000000000000000000000000REP       REP US Representative, Dist 23                          Cecil B. "Burt" Jones                 Precinct 2, Voting Box 6                               01 
00120040001000017000002000008000007000000000000000000000000000000000000000000000000000000000000000000REP       REP US Representative, Dist 23                          Jeff McFarlin                         Precinct 1, Voting Box 1                               01 
00120040002000008000000000004000004000000000000000000000000000000000000000000000000000000000000000000REP       REP US Representative, Dist 23                          Jeff McFarlin                         Precinct 2, Voting Box 2                               01 
00120040003000005000000000005000000000000000000000000000000000000000000000000000000000000000000000000REP       REP US Representative, Dist 23                          Jeff McFarlin                         Precinct 3, Voting Box 3                               01 
00120040004000007000000000005000002000000000000000000000000000000000000000000000000000000000000000000REP       REP US Representative, Dist 23                          Jeff McFarlin                         Precinct 4, Voting Box 4                               01 
00120040005000005000000000000000005000000000000000000000000000000000000000000000000000000000000000000REP       REP US Representative, Dist 23                          Jeff McFarlin                         Precinct 1, Voting Box 5                               01 
00120040006000004000000000002000002000000000000000000000000000000000000000000000000000000000000000000REP       REP US Representative, Dist 23                          Jeff McFarlin                         Precinct 2, Voting Box 6                               01 
00120050001000008000000000007000001000000000000000000000000000000000000000000000000000000000000000000REP       REP US Representative, Dist 23                          Darwin Boedeker                       Precinct 1, Voting Box 1                               01 
00120050002000001000000000001000000000000000000000000000000000000000000000000000000000000000000000000REP       REP US Representative, Dist 23                          Darwin Boedeker                       Precinct 2, Voting Box 2                               01 
00120050003000000000000000000000000000000000000000000000000000000000000000000000000000000000000000000REP       REP US Representative, Dist 23                          Darwin Boedeker                       Precinct 3, Voting Box 3                               01 
00120050004000002000000000000000002000000000000000000000000000000000000000000000000000000000000000000REP       REP US Representative, Dist 23                          Darwin Boedeker                       Precinct 4, Voting Box 4                               01 
00120050005000000000000000000000000000000000000000000000000000000000000000000000000000000000000000000REP       REP US Representative, Dist 23                          Darwin Boedeker                       Precinct 1, Voting Box 5                               01 
00120050006000000000000000000000000000000000000000000000000000000000000000000000000000000000000000000REP       REP US Representative, Dist 23                          Darwin Boedeker                       Precinct 2, Voting Box 6                               01 
00120060001000003000000000003000000000000000000000000000000000000000000000000000000000000000000000000REP       REP US Representative, Dist 23                          Alia Ureste                           Precinct 1, Voting Box 1                               01 
00120060002000000000000000000000000000000000000000000000000000000000000000000000000000000000000000000REP       REP US Representative, Dist 23                          Alia Ureste                           Precinct 2, Voting Box 2                               01 
00120060003000000000000000000000000000000000000000000000000000000000000000000000000000000000000000000REP       REP US Representative, Dist 23                          Alia Ureste                           Precinct 3, Voting Box 3                               01 
00120060004000000000000000000000000000000000000000000000000000000000000000000000000000000000000000000REP       REP US Representative, Dist 23                          Alia Ureste                           Precinct 4, Voting Box 4                               01 
00120060005000000000000000000000000000000000000000000000000000000000000000000000000000000000000000000REP       REP US Representative, Dist 23                          Alia Ureste                           Precinct 1, Voting Box 5                               01 
00120060006000000000000000000000000000000000000000000000000000000000000000000000000000000000000000000REP       REP US Representative, Dist 23                          Alia Ureste                           Precinct 2, Voting Box 6                               01 
00120070001000078000000000051000027000000000000000000000000000000000000000000000000000000000000000000REP       REP US Representative, Dist 23                          Alma Arredondo-Lynch                  Precinct 1, Voting Box 1                               01 
00120070002000036000000000020000016000000000000000000000000000000000000000000000000000000000000000000REP       REP US Representative, Dist 23                          Alma Arredondo-Lynch                  Precinct 2, Voting Box 2                               01 
00120070003000041000000000027000014000000000000000000000000000000000000000000000000000000000000000000REP       REP US Representative, Dist 23                          Alma Arredondo-Lynch                  Precinct 3, Voting Box 3                               01 
00120070004000058000000000031000027000000000000000000000000000000000000000000000000000000000000000000REP       REP US Representative, Dist 23                          Alma Arredondo-Lynch                  Precinct 4, Voting Box 4                               01 
00120070005000018000001000003000014000000000000000000000000000000000000000000000000000000000000000000REP       REP US Representative, Dist 23                          Alma Arredondo-Lynch                  Precinct 1, Voting Box 5                               01 
00120070006000030000003000020000007000000000000000000000000000000000000000000000000000000000000000000REP       REP US Representative, Dist 23                          Alma Arredondo-Lynch                  Precinct 2, Voting Box 6                               01 
00120080001000009000000000005000004000000000000000000000000000000000000000000000000000000000000000000REP       REP US Representative, Dist 23                          Ben Van Winkle                        Precinct 1, Voting Box 1                               01 
00120080002000000000000000000000000000000000000000000000000000000000000000000000000000000000000000000REP       REP US Representative, Dist 23                          Ben Van Winkle                        Precinct 2, Voting Box 2                               01 
00120080003000002000000000001000001000000000000000000000000000000000000000000000000000000000000000000REP       REP US Representative, Dist 23                          Ben Van Winkle                        Precinct 3, Voting Box 3                               01 
00120080004000013000000000009000004000000000000000000000000000000000000000000000000000000000000000000REP       REP US Representative, Dist 23                          Ben Van Winkle                        Precinct 4, Voting Box 4                               01 
00120080005000002000000000000000002000000000000000000000000000000000000000000000000000000000000000000REP       REP US Representative, Dist 23                          Ben Van Winkle                        Precinct 1, Voting Box 5                               01 
00120080006000000000000000000000000000000000000000000000000000000000000000000000000000000000000000000REP       REP US Representative, Dist 23                          Ben Van Winkle                        Precinct 2, Voting Box 6                               01 
00120090001000004000000000002000002000000000000000000000000000000000000000000000000000000000000000000REP       REP US Representative, Dist 23                          Sharon Breckenridge Thomas            Precinct 1, Voting Box 1                               01 
00120090002000001000000000001000000000000000000000000000000000000000000000000000000000000000000000000REP       REP US Representative, Dist 23                          Sharon Breckenridge Thomas            Precinct 2, Voting Box 2                               01 
00120090003000001000000000001000000000000000000000000000000000000000000000000000000000000000000000000REP       REP US Representative, Dist 23                          Sharon Breckenridge Thomas            Precinct 3, Voting Box 3                               01 
00120090004000003000001000002000000000000000000000000000000000000000000000000000000000000000000000000REP       REP US Representative, Dist 23                          Sharon Breckenridge Thomas            Precinct 4, Voting Box 4                               01 
00120090005000001000000000000000001000000000000000000000000000000000000000000000000000000000000000000REP       REP US Representative, Dist 23                          Sharon Breckenridge Thomas            Precinct 1, Voting Box 5                               01 
00120090006000002000000000001000001000000000000000000000000000000000000000000000000000000000000000000REP       REP US Representative, Dist 23                          Sharon Breckenridge Thomas            Precinct 2, Voting Box 6                               01 
00120100001000000000000000000000000000000000000000000000000000000000000000000000000000000000000000000          REP US Representative, Dist 23                          OVER VOTES                            Precinct 1, Voting Box 1                               01 
00120100002000000000000000000000000000000000000000000000000000000000000000000000000000000000000000000          REP US Representative, Dist 23                          OVER VOTES                            Precinct 2, Voting Box 2                               01 
00120100003000000000000000000000000000000000000000000000000000000000000000000000000000000000000000000          REP US Representative, Dist 23                          OVER VOTES                            Precinct 3, Voting Box 3                               01 
00120100004000000000000000000000000000000000000000000000000000000000000000000000000000000000000000000          REP US Representative, Dist 23                          OVER VOTES                            Precinct 4, Voting Box 4                               01 
00120100005000000000000000000000000000000000000000000000000000000000000000000000000000000000000000000          REP US Representative, Dist 23                          OVER VOTES                            Precinct 1, Voting Box 5                               01 
00120100006000000000000000000000000000000000000000000000000000000000000000000000000000000000000000000          REP US Representative, Dist 23                          OVER VOTES                            Precinct 2, Voting Box 6                               01 
00120110001000034000003000024000007000000000000000000000000000000000000000000000000000000000000000000          REP US Representative, Dist 23                          UNDER VOTES                           Precinct 1, Voting Box 1                               01 
00120110002000008000000000005000003000000000000000000000000000000000000000000000000000000000000000000          REP US Representative, Dist 23                          UNDER VOTES                           Precinct 2, Voting Box 2                               01 
00120110003000002000000000002000000000000000000000000000000000000000000000000000000000000000000000000          REP US Representative, Dist 23                          UNDER VOTES                           Precinct 3, Voting Box 3                               01 
00120110004000005000000000002000003000000000000000000000000000000000000000000000000000000000000000000          REP US Representative, Dist 23                          UNDER VOTES                           Precinct 4, Voting Box 4                               01 
00120110005000004000000000000000004000000000000000000000000000000000000000000000000000000000000000000          REP US Representative, Dist 23                          UNDER VOTES                           Precinct 1, Voting Box 5                               01 
00120110006000004000000000002000002000000000000000000000000000000000000000000000000000000000000000000          REP US Representative, Dist 23                          UNDER VOTES                           Precinct 2, Voting Box 6                               01 
00130010001000166000002000104000060000000000000000000000000000000000000000000000000000000000000000000REP       REP Railroad Commissioner                               James "Jim" Wright                    Precinct 1, Voting Box 1                               01 
00130010002000054000000000023000031000000000000000000000000000000000000000000000000000000000000000000REP       REP Railroad Commissioner                               James "Jim" Wright                    Precinct 2, Voting Box 2                               01 
00130010003000056000002000036000018000000000000000000000000000000000000000000000000000000000000000000REP       REP Railroad Commissioner                               James "Jim" Wright                    Precinct 3, Voting Box 3                               01 
00130010004000090000000000046000044000000000000000000000000000000000000000000000000000000000000000000REP       REP Railroad Commissioner                               James "Jim" Wright                    Precinct 4, Voting Box 4                               01 
00130010005000025000000000001000024000000000000000000000000000000000000000000000000000000000000000000REP       REP Railroad Commissioner                               James "Jim" Wright                    Precinct 1, Voting Box 5                               01 
00130010006000043000002000023000018000000000000000000000000000000000000000000000000000000000000000000REP       REP Railroad Commissioner                               James "Jim" Wright                    Precinct 2, Voting Box 6                               01 
00130020001000034000002000024000008000000000000000000000000000000000000000000000000000000000000000000REP       REP Railroad Commissioner                               Ryan Sitton                           Precinct 1, Voting Box 1                               01 
00130020002000012000000000006000006000000000000000000000000000000000000000000000000000000000000000000REP       REP Railroad Commissioner                               Ryan Sitton                           Precinct 2, Voting Box 2                               01 
00130020003000017000000000011000006000000000000000000000000000000000000000000000000000000000000000000REP       REP Railroad Commissioner                               Ryan Sitton                           Precinct 3, Voting Box 3                               01 
00130020004000038000002000020000016000000000000000000000000000000000000000000000000000000000000000000REP       REP Railroad Commissioner                               Ryan Sitton                           Precinct 4, Voting Box 4                               01 
00130020005000009000000000000000009000000000000000000000000000000000000000000000000000000000000000000REP       REP Railroad Commissioner                               Ryan Sitton                           Precinct 1, Voting Box 5                               01 
00130020006000019000000000016000003000000000000000000000000000000000000000000000000000000000000000000REP       REP Railroad Commissioner                               Ryan Sitton                           Precinct 2, Voting Box 6                               01 
00130030001000000000000000000000000000000000000000000000000000000000000000000000000000000000000000000          REP Railroad Commissioner                               OVER VOTES                            Precinct 1, Voting Box 1                               01 
00130030002000000000000000000000000000000000000000000000000000000000000000000000000000000000000000000          REP Railroad Commissioner                               OVER VOTES                            Precinct 2, Voting Box 2                               01 
00130030003000000000000000000000000000000000000000000000000000000000000000000000000000000000000000000          REP Railroad Commissioner                               OVER VOTES                            Precinct 3, Voting Box 3                               01 
00130030004000000000000000000000000000000000000000000000000000000000000000000000000000000000000000000          REP Railroad Commissioner                               OVER VOTES                            Precinct 4, Voting Box 4                               01 
00130030005000000000000000000000000000000000000000000000000000000000000000000000000000000000000000000          REP Railroad Commissioner                               OVER VOTES                            Precinct 1, Voting Box 5                               01 
00130030006000000000000000000000000000000000000000000000000000000000000000000000000000000000000000000          REP Railroad Commissioner                               OVER VOTES                            Precinct 2, Voting Box 6                               01 
00130040001000033000001000027000005000000000000000000000000000000000000000000000000000000000000000000          REP Railroad Commissioner                               UNDER VOTES                           Precinct 1, Voting Box 1                               01 
00130040002000011000000000009000002000000000000000000000000000000000000000000000000000000000000000000          REP Railroad Commissioner                               UNDER VOTES                           Precinct 2, Voting Box 2                               01 
00130040003000009000000000007000002000000000000000000000000000000000000000000000000000000000000000000          REP Railroad Commissioner                               UNDER VOTES                           Precinct 3, Voting Box 3                               01 
00130040004000011000000000006000005000000000000000000000000000000000000000000000000000000000000000000          REP Railroad Commissioner                               UNDER VOTES                           Precinct 4, Voting Box 4                               01 
00130040005000010000001000003000006000000000000000000000000000000000000000000000000000000000000000000          REP Railroad Commissioner                               UNDER VOTES                           Precinct 1, Voting Box 5                               01 
00130040006000005000002000001000002000000000000000000000000000000000000000000000000000000000000000000          REP Railroad Commissioner                               UNDER VOTES                           Precinct 2, Voting Box 6                               01 
00140010001000193000000000127000066000000000000000000000000000000000000000000000000000000000000000000REP       REP Chief Justice, Supreme Court                        Nathan Hecht                          Precinct 1, Voting Box 1                               01 
00140010002000061000000000027000034000000000000000000000000000000000000000000000000000000000000000000REP       REP Chief Justice, Supreme Court                        Nathan Hecht                          Precinct 2, Voting Box 2                               01 
00140010003000070000001000045000024000000000000000000000000000000000000000000000000000000000000000000REP       REP Chief Justice, Supreme Court                        Nathan Hecht                          Precinct 3, Voting Box 3                               01 
00140010004000122000002000061000059000000000000000000000000000000000000000000000000000000000000000000REP       REP Chief Justice, Supreme Court                        Nathan Hecht                          Precinct 4, Voting Box 4                               01 
00140010005000037000000000003000034000000000000000000000000000000000000000000000000000000000000000000REP       REP Chief Justice, Supreme Court                        Nathan Hecht                          Precinct 1, Voting Box 5                               01 
00140010006000061000002000038000021000000000000000000000000000000000000000000000000000000000000000000REP       REP Chief Justice, Supreme Court                        Nathan Hecht                          Precinct 2, Voting Box 6                               01 
00140020001000000000000000000000000000000000000000000000000000000000000000000000000000000000000000000          REP Chief Justice, Supreme Court                        OVER VOTES                            Precinct 1, Voting Box 1                               01 
00140020002000000000000000000000000000000000000000000000000000000000000000000000000000000000000000000          REP Chief Justice, Supreme Court                        OVER VOTES                            Precinct 2, Voting Box 2                               01 
00140020003000000000000000000000000000000000000000000000000000000000000000000000000000000000000000000          REP Chief Justice, Supreme Court                        OVER VOTES                            Precinct 3, Voting Box 3                               01 
00140020004000000000000000000000000000000000000000000000000000000000000000000000000000000000000000000          REP Chief Justice, Supreme Court                        OVER VOTES                            Precinct 4, Voting Box 4                               01 
00140020005000000000000000000000000000000000000000000000000000000000000000000000000000000000000000000          REP Chief Justice, Supreme Court                        OVER VOTES                            Precinct 1, Voting Box 5                               01 
00140020006000000000000000000000000000000000000000000000000000000000000000000000000000000000000000000          REP Chief Justice, Supreme Court                        OVER VOTES                            Precinct 2, Voting Box 6                               01 
00140030001000040000005000028000007000000000000000000000000000000000000000000000000000000000000000000          REP Chief Justice, Supreme Court                        UNDER VOTES                           Precinct 1, Voting Box 1                               01 
00140030002000016000000000011000005000000000000000000000000000000000000000000000000000000000000000000          REP Chief Justice, Supreme Court                        UNDER VOTES                           Precinct 2, Voting Box 2                               01 
00140030003000012000001000009000002000000000000000000000000000000000000000000000000000000000000000000          REP Chief Justice, Supreme Court                        UNDER VOTES                           Precinct 3, Voting Box 3                               01 
00140030004000017000000000011000006000000000000000000000000000000000000000000000000000000000000000000          REP Chief Justice, Supreme Court                        UNDER VOTES                           Precinct 4, Voting Box 4                               01 
00140030005000007000001000001000005000000000000000000000000000000000000000000000000000000000000000000          REP Chief Justice, Supreme Court                        UNDER VOTES                           Precinct 1, Voting Box 5                               01 
00140030006000006000002000002000002000000000000000000000000000000000000000000000000000000000000000000          REP Chief Justice, Supreme Court                        UNDER VOTES                           Precinct 2, Voting Box 6                               01 
00150010001000196000000000127000069000000000000000000000000000000000000000000000000000000000000000000REP       REP Justice, Supreme Court, Pl 6                        Jane Bland                            Precinct 1, Voting Box 1                               01 
00150010002000057000000000027000030000000000000000000000000000000000000000000000000000000000000000000REP       REP Justice, Supreme Court, Pl 6                        Jane Bland                            Precinct 2, Voting Box 2                               01 
00150010003000071000001000046000024000000000000000000000000000000000000000000000000000000000000000000REP       REP Justice, Supreme Court, Pl 6                        Jane Bland                            Precinct 3, Voting Box 3                               01 
00150010004000124000002000062000060000000000000000000000000000000000000000000000000000000000000000000REP       REP Justice, Supreme Court, Pl 6                        Jane Bland                            Precinct 4, Voting Box 4                               01 
00150010005000038000000000003000035000000000000000000000000000000000000000000000000000000000000000000REP       REP Justice, Supreme Court, Pl 6                        Jane Bland                            Precinct 1, Voting Box 5                               01 
00150010006000062000002000038000022000000000000000000000000000000000000000000000000000000000000000000REP       REP Justice, Supreme Court, Pl 6                        Jane Bland                            Precinct 2, Voting Box 6                               01 
00150020001000000000000000000000000000000000000000000000000000000000000000000000000000000000000000000          REP Justice, Supreme Court, Pl 6                        OVER VOTES                            Precinct 1, Voting Box 1                               01 
00150020002000000000000000000000000000000000000000000000000000000000000000000000000000000000000000000          REP Justice, Supreme Court, Pl 6                        OVER VOTES                            Precinct 2, Voting Box 2                               01 
00150020003000000000000000000000000000000000000000000000000000000000000000000000000000000000000000000          REP Justice, Supreme Court, Pl 6                        OVER VOTES                            Precinct 3, Voting Box 3                               01 
00150020004000000000000000000000000000000000000000000000000000000000000000000000000000000000000000000          REP Justice, Supreme Court, Pl 6                        OVER VOTES                            Precinct 4, Voting Box 4                               01 
00150020005000000000000000000000000000000000000000000000000000000000000000000000000000000000000000000          REP Justice, Supreme Court, Pl 6                        OVER VOTES                            Precinct 1, Voting Box 5                               01 
00150020006000000000000000000000000000000000000000000000000000000000000000000000000000000000000000000          REP Justice, Supreme Court, Pl 6                        OVER VOTES                            Precinct 2, Voting Box 6                               01 
00150030001000037000005000028000004000000000000000000000000000000000000000000000000000000000000000000          REP Justice, Supreme Court, Pl 6                        UNDER VOTES                           Precinct 1, Voting Box 1                               01 
00150030002000020000000000011000009000000000000000000000000000000000000000000000000000000000000000000          REP Justice, Supreme Court, Pl 6                        UNDER VOTES                           Precinct 2, Voting Box 2                               01 
00150030003000011000001000008000002000000000000000000000000000000000000000000000000000000000000000000          REP Justice, Supreme Court, Pl 6                        UNDER VOTES                           Precinct 3, Voting Box 3                               01 
00150030004000015000000000010000005000000000000000000000000000000000000000000000000000000000000000000          REP Justice, Supreme Court, Pl 6                        UNDER VOTES                           Precinct 4, Voting Box 4                               01 
00150030005000006000001000001000004000000000000000000000000000000000000000000000000000000000000000000          REP Justice, Supreme Court, Pl 6                        UNDER VOTES                           Precinct 1, Voting Box 5                               01 
00150030006000005000002000002000001000000000000000000000000000000000000000000000000000000000000000000          REP Justice, Supreme Court, Pl 6                        UNDER VOTES                           Precinct 2, Voting Box 6                               01 
00160010001000195000000000127000068000000000000000000000000000000000000000000000000000000000000000000REP       REP Justice, Supreme Court, Pl 7                        Jeff Boyd                             Precinct 1, Voting Box 1                               01 
00160010002000061000000000028000033000000000000000000000000000000000000000000000000000000000000000000REP       REP Justice, Supreme Court, Pl 7                        Jeff Boyd                             Precinct 2, Voting Box 2                               01 
00160010003000071000001000046000024000000000000000000000000000000000000000000000000000000000000000000REP       REP Justice, Supreme Court, Pl 7                        Jeff Boyd                             Precinct 3, Voting Box 3                               01 
00160010004000124000002000062000060000000000000000000000000000000000000000000000000000000000000000000REP       REP Justice, Supreme Court, Pl 7                        Jeff Boyd                             Precinct 4, Voting Box 4                               01 
00160010005000038000000000003000035000000000000000000000000000000000000000000000000000000000000000000REP       REP Justice, Supreme Court, Pl 7                        Jeff Boyd                             Precinct 1, Voting Box 5                               01 
00160010006000063000003000038000022000000000000000000000000000000000000000000000000000000000000000000REP       REP Justice, Supreme Court, Pl 7                        Jeff Boyd                             Precinct 2, Voting Box 6                               01 
00160020001000000000000000000000000000000000000000000000000000000000000000000000000000000000000000000          REP Justice, Supreme Court, Pl 7                        OVER VOTES                            Precinct 1, Voting Box 1                               01 
00160020002000000000000000000000000000000000000000000000000000000000000000000000000000000000000000000          REP Justice, Supreme Court, Pl 7                        OVER VOTES                            Precinct 2, Voting Box 2                               01 
00160020003000000000000000000000000000000000000000000000000000000000000000000000000000000000000000000          REP Justice, Supreme Court, Pl 7                        OVER VOTES                            Precinct 3, Voting Box 3                               01 
00160020004000000000000000000000000000000000000000000000000000000000000000000000000000000000000000000          REP Justice, Supreme Court, Pl 7                        OVER VOTES                            Precinct 4, Voting Box 4                               01 
00160020005000000000000000000000000000000000000000000000000000000000000000000000000000000000000000000          REP Justice, Supreme Court, Pl 7                        OVER VOTES                            Precinct 1, Voting Box 5                               01 
00160020006000000000000000000000000000000000000000000000000000000000000000000000000000000000000000000          REP Justice, Supreme Court, Pl 7                        OVER VOTES                            Precinct 2, Voting Box 6                               01 
00160030001000038000005000028000005000000000000000000000000000000000000000000000000000000000000000000          REP Justice, Supreme Court, Pl 7                        UNDER VOTES                           Precinct 1, Voting Box 1                               01 
00160030002000016000000000010000006000000000000000000000000000000000000000000000000000000000000000000          REP Justice, Supreme Court, Pl 7                        UNDER VOTES                           Precinct 2, Voting Box 2                               01 
00160030003000011000001000008000002000000000000000000000000000000000000000000000000000000000000000000          REP Justice, Supreme Court, Pl 7                        UNDER VOTES                           Precinct 3, Voting Box 3                               01 
00160030004000015000000000010000005000000000000000000000000000000000000000000000000000000000000000000          REP Justice, Supreme Court, Pl 7                        UNDER VOTES                           Precinct 4, Voting Box 4                               01 
00160030005000006000001000001000004000000000000000000000000000000000000000000000000000000000000000000          REP Justice, Supreme Court, Pl 7                        UNDER VOTES                           Precinct 1, Voting Box 5                               01 
00160030006000004000001000002000001000000000000000000000000000000000000000000000000000000000000000000          REP Justice, Supreme Court, Pl 7                        UNDER VOTES                           Precinct 2, Voting Box 6                               01 
00170010001000194000000000126000068000000000000000000000000000000000000000000000000000000000000000000REP       REP Justice, Supreme Court, Pl 8                        Brett Busby                           Precinct 1, Voting Box 1                               01 
00170010002000060000000000027000033000000000000000000000000000000000000000000000000000000000000000000REP       REP Justice, Supreme Court, Pl 8                        Brett Busby                           Precinct 2, Voting Box 2                               01 
00170010003000071000001000046000024000000000000000000000000000000000000000000000000000000000000000000REP       REP Justice, Supreme Court, Pl 8                        Brett Busby                           Precinct 3, Voting Box 3                               01 
00170010004000125000002000063000060000000000000000000000000000000000000000000000000000000000000000000REP       REP Justice, Supreme Court, Pl 8                        Brett Busby                           Precinct 4, Voting Box 4                               01 
00170010005000038000000000003000035000000000000000000000000000000000000000000000000000000000000000000REP       REP Justice, Supreme Court, Pl 8                        Brett Busby                           Precinct 1, Voting Box 5                               01 
00170010006000060000002000037000021000000000000000000000000000000000000000000000000000000000000000000REP       REP Justice, Supreme Court, Pl 8                        Brett Busby                           Precinct 2, Voting Box 6                               01 
00170020001000000000000000000000000000000000000000000000000000000000000000000000000000000000000000000          REP Justice, Supreme Court, Pl 8                        OVER VOTES                            Precinct 1, Voting Box 1                               01 
00170020002000000000000000000000000000000000000000000000000000000000000000000000000000000000000000000          REP Justice, Supreme Court, Pl 8                        OVER VOTES                            Precinct 2, Voting Box 2                               01 
00170020003000000000000000000000000000000000000000000000000000000000000000000000000000000000000000000          REP Justice, Supreme Court, Pl 8                        OVER VOTES                            Precinct 3, Voting Box 3                               01 
00170020004000000000000000000000000000000000000000000000000000000000000000000000000000000000000000000          REP Justice, Supreme Court, Pl 8                        OVER VOTES                            Precinct 4, Voting Box 4                               01 
00170020005000000000000000000000000000000000000000000000000000000000000000000000000000000000000000000          REP Justice, Supreme Court, Pl 8                        OVER VOTES                            Precinct 1, Voting Box 5                               01 
00170020006000000000000000000000000000000000000000000000000000000000000000000000000000000000000000000          REP Justice, Supreme Court, Pl 8                        OVER VOTES                            Precinct 2, Voting Box 6                               01 
00170030001000039000005000029000005000000000000000000000000000000000000000000000000000000000000000000          REP Justice, Supreme Court, Pl 8                        UNDER VOTES                           Precinct 1, Voting Box 1                               01 
00170030002000017000000000011000006000000000000000000000000000000000000000000000000000000000000000000          REP Justice, Supreme Court, Pl 8                        UNDER VOTES                           Precinct 2, Voting Box 2                               01 
00170030003000011000001000008000002000000000000000000000000000000000000000000000000000000000000000000          REP Justice, Supreme Court, Pl 8                        UNDER VOTES                           Precinct 3, Voting Box 3                               01 
00170030004000014000000000009000005000000000000000000000000000000000000000000000000000000000000000000          REP Justice, Supreme Court, Pl 8                        UNDER VOTES                           Precinct 4, Voting Box 4                               01 
00170030005000006000001000001000004000000000000000000000000000000000000000000000000000000000000000000          REP Justice, Supreme Court, Pl 8                        UNDER VOTES                           Precinct 1, Voting Box 5                               01 
00170030006000007000002000003000002000000000000000000000000000000000000000000000000000000000000000000          REP Justice, Supreme Court, Pl 8                        UNDER VOTES                           Precinct 2, Voting Box 6                               01 
00180010001000142000002000087000053000000000000000000000000000000000000000000000000000000000000000000REP       REP Judge, Ct of Crim App, Pl 3                         Bert Richardson                       Precinct 1, Voting Box 1                               01 
00180010002000038000000000015000023000000000000000000000000000000000000000000000000000000000000000000REP       REP Judge, Ct of Crim App, Pl 3                         Bert Richardson                       Precinct 2, Voting Box 2                               01 
00180010003000045000001000030000014000000000000000000000000000000000000000000000000000000000000000000REP       REP Judge, Ct of Crim App, Pl 3                         Bert Richardson                       Precinct 3, Voting Box 3                               01 
00180010004000086000000000045000041000000000000000000000000000000000000000000000000000000000000000000REP       REP Judge, Ct of Crim App, Pl 3                         Bert Richardson                       Precinct 4, Voting Box 4                               01 
00180010005000025000000000001000024000000000000000000000000000000000000000000000000000000000000000000REP       REP Judge, Ct of Crim App, Pl 3                         Bert Richardson                       Precinct 1, Voting Box 5                               01 
00180010006000038000001000022000015000000000000000000000000000000000000000000000000000000000000000000REP       REP Judge, Ct of Crim App, Pl 3                         Bert Richardson                       Precinct 2, Voting Box 6                               01 
00180020001000054000000000040000014000000000000000000000000000000000000000000000000000000000000000000REP       REP Judge, Ct of Crim App, Pl 3                         Gina Parker                           Precinct 1, Voting Box 1                               01 
00180020002000024000000000013000011000000000000000000000000000000000000000000000000000000000000000000REP       REP Judge, Ct of Crim App, Pl 3                         Gina Parker                           Precinct 2, Voting Box 2                               01 
00180020003000024000001000014000009000000000000000000000000000000000000000000000000000000000000000000REP       REP Judge, Ct of Crim App, Pl 3                         Gina Parker                           Precinct 3, Voting Box 3                               01 
00180020004000040000002000020000018000000000000000000000000000000000000000000000000000000000000000000REP       REP Judge, Ct of Crim App, Pl 3                         Gina Parker                           Precinct 4, Voting Box 4                               01 
00180020005000009000000000001000008000000000000000000000000000000000000000000000000000000000000000000REP       REP Judge, Ct of Crim App, Pl 3                         Gina Parker                           Precinct 1, Voting Box 5                               01 
00180020006000023000000000017000006000000000000000000000000000000000000000000000000000000000000000000REP       REP Judge, Ct of Crim App, Pl 3                         Gina Parker                           Precinct 2, Voting Box 6                               01 
00180030001000000000000000000000000000000000000000000000000000000000000000000000000000000000000000000          REP Judge, Ct of Crim App, Pl 3                         OVER VOTES                            Precinct 1, Voting Box 1                               01 
00180030002000000000000000000000000000000000000000000000000000000000000000000000000000000000000000000          REP Judge, Ct of Crim App, Pl 3                         OVER VOTES                            Precinct 2, Voting Box 2                               01 
00180030003000000000000000000000000000000000000000000000000000000000000000000000000000000000000000000          REP Judge, Ct of Crim App, Pl 3                         OVER VOTES                            Precinct 3, Voting Box 3                               01 
00180030004000000000000000000000000000000000000000000000000000000000000000000000000000000000000000000          REP Judge, Ct of Crim App, Pl 3                         OVER VOTES                            Precinct 4, Voting Box 4                               01 
00180030005000000000000000000000000000000000000000000000000000000000000000000000000000000000000000000          REP Judge, Ct of Crim App, Pl 3                         OVER VOTES                            Precinct 1, Voting Box 5                               01 
00180030006000000000000000000000000000000000000000000000000000000000000000000000000000000000000000000          REP Judge, Ct of Crim App, Pl 3                         OVER VOTES                            Precinct 2, Voting Box 6                               01 
00180040001000037000003000028000006000000000000000000000000000000000000000000000000000000000000000000          REP Judge, Ct of Crim App, Pl 3                         UNDER VOTES                           Precinct 1, Voting Box 1                               01 
00180040002000015000000000010000005000000000000000000000000000000000000000000000000000000000000000000          REP Judge, Ct of Crim App, Pl 3                         UNDER VOTES                           Precinct 2, Voting Box 2                               01 
00180040003000013000000000010000003000000000000000000000000000000000000000000000000000000000000000000          REP Judge, Ct of Crim App, Pl 3                         UNDER VOTES                           Precinct 3, Voting Box 3                               01 
00180040004000013000000000007000006000000000000000000000000000000000000000000000000000000000000000000          REP Judge, Ct of Crim App, Pl 3                         UNDER VOTES                           Precinct 4, Voting Box 4                               01 
00180040005000010000001000002000007000000000000000000000000000000000000000000000000000000000000000000          REP Judge, Ct of Crim App, Pl 3                         UNDER VOTES                           Precinct 1, Voting Box 5                               01 
00180040006000006000003000001000002000000000000000000000000000000000000000000000000000000000000000000          REP Judge, Ct of Crim App, Pl 3                         UNDER VOTES                           Precinct 2, Voting Box 6                               01 
00190010001000187000000000121000066000000000000000000000000000000000000000000000000000000000000000000REP       REP Judge, Ct of Crim App, Pl 4                         Kevin Patrick Yeary                   Precinct 1, Voting Box 1                               01 
00190010002000061000000000028000033000000000000000000000000000000000000000000000000000000000000000000REP       REP Judge, Ct of Crim App, Pl 4                         Kevin Patrick Yeary                   Precinct 2, Voting Box 2                               01 
00190010003000071000001000046000024000000000000000000000000000000000000000000000000000000000000000000REP       REP Judge, Ct of Crim App, Pl 4                         Kevin Patrick Yeary                   Precinct 3, Voting Box 3                               01 
00190010004000124000002000062000060000000000000000000000000000000000000000000000000000000000000000000REP       REP Judge, Ct of Crim App, Pl 4                         Kevin Patrick Yeary                   Precinct 4, Voting Box 4                               01 
00190010005000038000000000003000035000000000000000000000000000000000000000000000000000000000000000000REP       REP Judge, Ct of Crim App, Pl 4                         Kevin Patrick Yeary                   Precinct 1, Voting Box 5                               01 
00190010006000061000002000038000021000000000000000000000000000000000000000000000000000000000000000000REP       REP Judge, Ct of Crim App, Pl 4                         Kevin Patrick Yeary                   Precinct 2, Voting Box 6                               01 
00190020001000000000000000000000000000000000000000000000000000000000000000000000000000000000000000000          REP Judge, Ct of Crim App, Pl 4                         OVER VOTES                            Precinct 1, Voting Box 1                               01 
00190020002000000000000000000000000000000000000000000000000000000000000000000000000000000000000000000          REP Judge, Ct of Crim App, Pl 4                         OVER VOTES                            Precinct 2, Voting Box 2                               01 
00190020003000000000000000000000000000000000000000000000000000000000000000000000000000000000000000000          REP Judge, Ct of Crim App, Pl 4                         OVER VOTES                            Precinct 3, Voting Box 3                               01 
00190020004000000000000000000000000000000000000000000000000000000000000000000000000000000000000000000          REP Judge, Ct of Crim App, Pl 4                         OVER VOTES                            Precinct 4, Voting Box 4                               01 
00190020005000000000000000000000000000000000000000000000000000000000000000000000000000000000000000000          REP Judge, Ct of Crim App, Pl 4                         OVER VOTES                            Precinct 1, Voting Box 5                               01 
00190020006000000000000000000000000000000000000000000000000000000000000000000000000000000000000000000          REP Judge, Ct of Crim App, Pl 4                         OVER VOTES                            Precinct 2, Voting Box 6                               01 
00190030001000046000005000034000007000000000000000000000000000000000000000000000000000000000000000000          REP Judge, Ct of Crim App, Pl 4                         UNDER VOTES                           Precinct 1, Voting Box 1                               01 
00190030002000016000000000010000006000000000000000000000000000000000000000000000000000000000000000000          REP Judge, Ct of Crim App, Pl 4                         UNDER VOTES                           Precinct 2, Voting Box 2                               01 
00190030003000011000001000008000002000000000000000000000000000000000000000000000000000000000000000000          REP Judge, Ct of Crim App, Pl 4                         UNDER VOTES                           Precinct 3, Voting Box 3                               01 
00190030004000015000000000010000005000000000000000000000000000000000000000000000000000000000000000000          REP Judge, Ct of Crim App, Pl 4                         UNDER VOTES                           Precinct 4, Voting Box 4                               01 
00190030005000006000001000001000004000000000000000000000000000000000000000000000000000000000000000000          REP Judge, Ct of Crim App, Pl 4                         UNDER VOTES                           Precinct 1, Voting Box 5                               01 
00190030006000006000002000002000002000000000000000000000000000000000000000000000000000000000000000000          REP Judge, Ct of Crim App, Pl 4                         UNDER VOTES                           Precinct 2, Voting Box 6                               01 
00200010001000193000000000126000067000000000000000000000000000000000000000000000000000000000000000000REP       REP Judge, Ct of Crim App, Pl 9                         David Newell                          Precinct 1, Voting Box 1                               01 
00200010002000061000000000028000033000000000000000000000000000000000000000000000000000000000000000000REP       REP Judge, Ct of Crim App, Pl 9                         David Newell                          Precinct 2, Voting Box 2                               01 
00200010003000072000001000046000025000000000000000000000000000000000000000000000000000000000000000000REP       REP Judge, Ct of Crim App, Pl 9                         David Newell                          Precinct 3, Voting Box 3                               01 
00200010004000123000002000061000060000000000000000000000000000000000000000000000000000000000000000000REP       REP Judge, Ct of Crim App, Pl 9                         David Newell                          Precinct 4, Voting Box 4                               01 
00200010005000038000000000003000035000000000000000000000000000000000000000000000000000000000000000000REP       REP Judge, Ct of Crim App, Pl 9                         David Newell                          Precinct 1, Voting Box 5                               01 
00200010006000062000003000038000021000000000000000000000000000000000000000000000000000000000000000000REP       REP Judge, Ct of Crim App, Pl 9                         David Newell                          Precinct 2, Voting Box 6                               01 
00200020001000000000000000000000000000000000000000000000000000000000000000000000000000000000000000000          REP Judge, Ct of Crim App, Pl 9                         OVER VOTES                            Precinct 1, Voting Box 1                               01 
00200020002000000000000000000000000000000000000000000000000000000000000000000000000000000000000000000          REP Judge, Ct of Crim App, Pl 9                         OVER VOTES                            Precinct 2, Voting Box 2                               01 
00200020003000000000000000000000000000000000000000000000000000000000000000000000000000000000000000000          REP Judge, Ct of Crim App, Pl 9                         OVER VOTES                            Precinct 3, Voting Box 3                               01 
00200020004000000000000000000000000000000000000000000000000000000000000000000000000000000000000000000          REP Judge, Ct of Crim App, Pl 9                         OVER VOTES                            Precinct 4, Voting Box 4                               01 
00200020005000000000000000000000000000000000000000000000000000000000000000000000000000000000000000000          REP Judge, Ct of Crim App, Pl 9                         OVER VOTES                            Precinct 1, Voting Box 5                               01 
00200020006000000000000000000000000000000000000000000000000000000000000000000000000000000000000000000          REP Judge, Ct of Crim App, Pl 9                         OVER VOTES                            Precinct 2, Voting Box 6                               01 
00200030001000040000005000029000006000000000000000000000000000000000000000000000000000000000000000000          REP Judge, Ct of Crim App, Pl 9                         UNDER VOTES                           Precinct 1, Voting Box 1                               01 
00200030002000016000000000010000006000000000000000000000000000000000000000000000000000000000000000000          REP Judge, Ct of Crim App, Pl 9                         UNDER VOTES                           Precinct 2, Voting Box 2                               01 
00200030003000010000001000008000001000000000000000000000000000000000000000000000000000000000000000000          REP Judge, Ct of Crim App, Pl 9                         UNDER VOTES                           Precinct 3, Voting Box 3                               01 
00200030004000016000000000011000005000000000000000000000000000000000000000000000000000000000000000000          REP Judge, Ct of Crim App, Pl 9                         UNDER VOTES                           Precinct 4, Voting Box 4                               01 
00200030005000006000001000001000004000000000000000000000000000000000000000000000000000000000000000000          REP Judge, Ct of Crim App, Pl 9                         UNDER VOTES                           Precinct 1, Voting Box 5                               01 
