01010010001003061000000000000000000000000000000          REGISTERED VOTERS - TOTAL                               REGISTERED VOTERS - TOTAL             PRECINCT 1001                                          00 
01010010002002510000000000000000000000000000000          REGISTERED VOTERS - TOTAL                               REGISTERED VOTERS - TOTAL             PRECINCT 1002                                          00 
01010010003005927000000000000000000000000000000          REGISTERED VOTERS - TOTAL                               REGISTERED VOTERS - TOTAL             PRECINCT 1003                                          00 
01010010004002659000000000000000000000000000000          REGISTERED VOTERS - TOTAL                               REGISTERED VOTERS - TOTAL             PRECINCT 1004                                          00 
01010010005002714000000000000000000000000000000          REGISTERED VOTERS - TOTAL                               REGISTERED VOTERS - TOTAL             PRECINCT 2005                                          00 
01010010006001471000000000000000000000000000000          REGISTERED VOTERS - TOTAL                               REGISTERED VOTERS - TOTAL             PRECINCT 2006                                          00 
01010010007002101000000000000000000000000000000          REGISTERED VOTERS - TOTAL                               REGISTERED VOTERS - TOTAL             PRECINCT 2007                                          00 
01010010008000944000000000000000000000000000000          REGISTERED VOTERS - TOTAL                               REGISTERED VOTERS - TOTAL             PRECINCT 2008                                          00 
01010010009001312000000000000000000000000000000          REGISTERED VOTERS - TOTAL                               REGISTERED VOTERS - TOTAL             PRECINCT 2009                                          00 
01010010010001352000000000000000000000000000000          REGISTERED VOTERS - TOTAL                               REGISTERED VOTERS - TOTAL             PRECINCT 2010                                          00 
01010010011002378000000000000000000000000000000          REGISTERED VOTERS - TOTAL                               REGISTERED VOTERS - TOTAL             PRECINCT 2011                                          00 
01010010012000970000000000000000000000000000000          REGISTERED VOTERS - TOTAL                               REGISTERED VOTERS - TOTAL             PRECINCT 3012                                          00 
01010010013001507000000000000000000000000000000          REGISTERED VOTERS - TOTAL                               REGISTERED VOTERS - TOTAL             PRECINCT 3013                                          00 
01010010014002502000000000000000000000000000000          REGISTERED VOTERS - TOTAL                               REGISTERED VOTERS - TOTAL             PRECINCT 3014                                          00 
01010010015002612000000000000000000000000000000          REGISTERED VOTERS - TOTAL                               REGISTERED VOTERS - TOTAL             PRECINCT 3015                                          00 
01010010016002727000000000000000000000000000000          REGISTERED VOTERS - TOTAL                               REGISTERED VOTERS - TOTAL             PRECINCT 3016                                          00 
01010010017002678000000000000000000000000000000          REGISTERED VOTERS - TOTAL                               REGISTERED VOTERS - TOTAL             PRECINCT 4017                                          00 
01010010018000636000000000000000000000000000000          REGISTERED VOTERS - TOTAL                               REGISTERED VOTERS - TOTAL             PRECINCT 4018                                          00 
01010010019002443000000000000000000000000000000          REGISTERED VOTERS - TOTAL                               REGISTERED VOTERS - TOTAL             PRECINCT 4019                                          00 
01010010020003700000000000000000000000000000000          REGISTERED VOTERS - TOTAL                               REGISTERED VOTERS - TOTAL             PRECINCT 4020                                          00 
01010010021001315000000000000000000000000000000          REGISTERED VOTERS - TOTAL                               REGISTERED VOTERS - TOTAL             PRECINCT 4021                                          00 
01020010001002011001502000507000002000000000000          BALLOTS CAST - TOTAL                                    BALLOTS CAST - TOTAL                  PRECINCT 1001                                          00 
01020010002001418001135000283000000000000000000          BALLOTS CAST - TOTAL                                    BALLOTS CAST - TOTAL                  PRECINCT 1002                                          00 
01020010003003680002863000814000003000000000000          BALLOTS CAST - TOTAL                                    BALLOTS CAST - TOTAL                  PRECINCT 1003                                          00 
01020010004001204000826000376000002000000000000          BALLOTS CAST - TOTAL                                    BALLOTS CAST - TOTAL                  PRECINCT 1004                                          00 
01020010005001601001218000381000002000000000000          BALLOTS CAST - TOTAL                                    BALLOTS CAST - TOTAL                  PRECINCT 2005                                          00 
01020010006000892000633000258000001000000000000          BALLOTS CAST - TOTAL                                    BALLOTS CAST - TOTAL                  PRECINCT 2006                                          00 
01020010007001316000903000411000002000000000000          BALLOTS CAST - TOTAL                                    BALLOTS CAST - TOTAL                  PRECINCT 2007                                          00 
01020010008000623000502000121000000000000000000          BALLOTS CAST - TOTAL                                    BALLOTS CAST - TOTAL                  PRECINCT 2008                                          00 
01020010009000747000540000207000000000000000000          BALLOTS CAST - TOTAL                                    BALLOTS CAST - TOTAL                  PRECINCT 2009                                          00 
01020010010000817000505000312000000000000000000          BALLOTS CAST - TOTAL                                    BALLOTS CAST - TOTAL                  PRECINCT 2010                                          00 
01020010011001538001164000373000001000000000000          BALLOTS CAST - TOTAL                                    BALLOTS CAST - TOTAL                  PRECINCT 2011                                          00 
01020010012000565000387000177000001000000000000          BALLOTS CAST - TOTAL                                    BALLOTS CAST - TOTAL                  PRECINCT 3012                                          00 
01020010013000928000507000418000003000000000000          BALLOTS CAST - TOTAL                                    BALLOTS CAST - TOTAL                  PRECINCT 3013                                          00 
01020010014001245000939000305000001000000000000          BALLOTS CAST - TOTAL                                    BALLOTS CAST - TOTAL                  PRECINCT 3014                                          00 
01020010015001262000939000322000001000000000000          BALLOTS CAST - TOTAL                                    BALLOTS CAST - TOTAL                  PRECINCT 3015                                          00 
01020010016001525001093000430000002000000000000          BALLOTS CAST - TOTAL                                    BALLOTS CAST - TOTAL                  PRECINCT 3016                                          00 
01020010017001497001163000334000000000000000000          BALLOTS CAST - TOTAL                                    BALLOTS CAST - TOTAL                  PRECINCT 4017                                          00 
01020010018000420000337000082000001000000000000          BALLOTS CAST - TOTAL                                    BALLOTS CAST - TOTAL                  PRECINCT 4018                                          00 
01020010019001493001078000413000002000000000000          BALLOTS CAST - TOTAL                                    BALLOTS CAST - TOTAL                  PRECINCT 4019                                          00 
01020010020002051001585000462000004000000000000          BALLOTS CAST - TOTAL                                    BALLOTS CAST - TOTAL                  PRECINCT 4020                                          00 
01020010021000793000464000329000000000000000000          BALLOTS CAST - TOTAL                                    BALLOTS CAST - TOTAL                  PRECINCT 4021                                          00 
01030010001000621000459000161000001000000000000REP       Straight Party                                          Republican Party                      PRECINCT 1001                                          01 
01030010002000331000264000067000000000000000000REP       Straight Party                                          Republican Party                      PRECINCT 1002                                          01 
01030010003001141000872000268000001000000000000REP       Straight Party                                          Republican Party                      PRECINCT 1003                                          01 
01030010004000336000217000118000001000000000000REP       Straight Party                                          Republican Party                      PRECINCT 1004                                          01 
01030010005000478000357000120000001000000000000REP       Straight Party                                          Republican Party                      PRECINCT 2005                                          01 
01030010006000298000210000088000000000000000000REP       Straight Party                                          Republican Party                      PRECINCT 2006                                          01 
01030010007000535000364000169000002000000000000REP       Straight Party                                          Republican Party                      PRECINCT 2007                                          01 
01030010008000215000180000035000000000000000000REP       Straight Party                                          Republican Party                      PRECINCT 2008                                          01 
01030010009000226000172000054000000000000000000REP       Straight Party                                          Republican Party                      PRECINCT 2009                                          01 
01030010010000300000162000138000000000000000000REP       Straight Party                                          Republican Party                      PRECINCT 2010                                          01 
01030010011000467000360000107000000000000000000REP       Straight Party                                          Republican Party                      PRECINCT 2011                                          01 
01030010012000214000148000065000001000000000000REP       Straight Party                                          Republican Party                      PRECINCT 3012                                          01 
01030010013000276000149000126000001000000000000REP       Straight Party                                          Republican Party                      PRECINCT 3013                                          01 
01030010014000323000254000069000000000000000000REP       Straight Party                                          Republican Party                      PRECINCT 3014                                          01 
01030010015000262000214000048000000000000000000REP       Straight Party                                          Republican Party                      PRECINCT 3015                                          01 
01030010016000448000333000115000000000000000000REP       Straight Party                                          Republican Party                      PRECINCT 3016                                          01 
01030010017000311000241000070000000000000000000REP       Straight Party                                          Republican Party                      PRECINCT 4017                                          01 
01030010018000142000119000022000001000000000000REP       Straight Party                                          Republican Party                      PRECINCT 4018                                          01 
01030010019000439000315000123000001000000000000REP       Straight Party                                          Republican Party                      PRECINCT 4019                                          01 
01030010020000478000387000089000002000000000000REP       Straight Party                                          Republican Party                      PRECINCT 4020                                          01 
01030010021000219000141000078000000000000000000REP       Straight Party                                          Republican Party                      PRECINCT 4021                                          01 
01030020001000333000271000062000000000000000000DEM       Straight Party                                          Democratic Party                      PRECINCT 1001                                          01 
01030020002000347000291000056000000000000000000DEM       Straight Party                                          Democratic Party                      PRECINCT 1002                                          01 
01030020003000663000530000132000001000000000000DEM       Straight Party                                          Democratic Party                      PRECINCT 1003                                          01 
01030020004000328000216000112000000000000000000DEM       Straight Party                                          Democratic Party                      PRECINCT 1004                                          01 
01030020005000358000287000070000001000000000000DEM       Straight Party                                          Democratic Party                      PRECINCT 2005                                          01 
01030020006000141000106000034000001000000000000DEM       Straight Party                                          Democratic Party                      PRECINCT 2006                                          01 
01030020007000128000093000035000000000000000000DEM       Straight Party                                          Democratic Party                      PRECINCT 2007                                          01 
01030020008000086000068000018000000000000000000DEM       Straight Party                                          Democratic Party                      PRECINCT 2008                                          01 
01030020009000131000104000027000000000000000000DEM       Straight Party                                          Democratic Party                      PRECINCT 2009                                          01 
01030020010000106000085000021000000000000000000DEM       Straight Party                                          Democratic Party                      PRECINCT 2010                                          01 
01030020011000275000221000054000000000000000000DEM       Straight Party                                          Democratic Party                      PRECINCT 2011                                          01 
01030020012000068000046000022000000000000000000DEM       Straight Party                                          Democratic Party                      PRECINCT 3012                                          01 
01030020013000126000084000042000000000000000000DEM       Straight Party                                          Democratic Party                      PRECINCT 3013                                          01 
01030020014000320000235000084000001000000000000DEM       Straight Party                                          Democratic Party                      PRECINCT 3014                                          01 
01030020015000428000293000135000000000000000000DEM       Straight Party                                          Democratic Party                      PRECINCT 3015                                          01 
01030020016000335000230000105000000000000000000DEM       Straight Party                                          Democratic Party                      PRECINCT 3016                                          01 
01030020017000454000340000114000000000000000000DEM       Straight Party                                          Democratic Party                      PRECINCT 4017                                          01 
01030020018000062000053000009000000000000000000DEM       Straight Party                                          Democratic Party                      PRECINCT 4018                                          01 
01030020019000266000194000072000000000000000000DEM       Straight Party                                          Democratic Party                      PRECINCT 4019                                          01 
01030020020000621000470000149000002000000000000DEM       Straight Party                                          Democratic Party                      PRECINCT 4020                                          01 
01030020021000100000065000035000000000000000000DEM       Straight Party                                          Democratic Party                      PRECINCT 4021                                          01 
01030030001000002000002000000000000000000000000LIB       Straight Party                                          Libertarian Party                     PRECINCT 1001                                          01 
01030030002000004000002000002000000000000000000LIB       Straight Party                                          Libertarian Party                     PRECINCT 1002                                          01 
01030030003000008000004000004000000000000000000LIB       Straight Party                                          Libertarian Party                     PRECINCT 1003                                          01 
01030030004000005000002000003000000000000000000LIB       Straight Party                                          Libertarian Party                     PRECINCT 1004                                          01 
01030030005000007000004000003000000000000000000LIB       Straight Party                                          Libertarian Party                     PRECINCT 2005                                          01 
01030030006000000000000000000000000000000000000LIB       Straight Party                                          Libertarian Party                     PRECINCT 2006                                          01 
01030030007000004000002000002000000000000000000LIB       Straight Party                                          Libertarian Party                     PRECINCT 2007                                          01 
01030030008000001000001000000000000000000000000LIB       Straight Party                                          Libertarian Party                     PRECINCT 2008                                          01 
01030030009000004000001000003000000000000000000LIB       Straight Party                                          Libertarian Party                     PRECINCT 2009                                          01 
01030030010000007000002000005000000000000000000LIB       Straight Party                                          Libertarian Party                     PRECINCT 2010                                          01 
01030030011000005000004000001000000000000000000LIB       Straight Party                                          Libertarian Party                     PRECINCT 2011                                          01 
01030030012000002000001000001000000000000000000LIB       Straight Party                                          Libertarian Party                     PRECINCT 3012                                          01 
01030030013000004000002000002000000000000000000LIB       Straight Party                                          Libertarian Party                     PRECINCT 3013                                          01 
01030030014000011000004000007000000000000000000LIB       Straight Party                                          Libertarian Party                     PRECINCT 3014                                          01 
01030030015000009000005000004000000000000000000LIB       Straight Party                                          Libertarian Party                     PRECINCT 3015                                          01 
01030030016000007000003000004000000000000000000LIB       Straight Party                                          Libertarian Party                     PRECINCT 3016                                          01 
01030030017000005000002000003000000000000000000LIB       Straight Party                                          Libertarian Party                     PRECINCT 4017                                          01 
01030030018000002000002000000000000000000000000LIB       Straight Party                                          Libertarian Party                     PRECINCT 4018                                          01 
01030030019000003000002000001000000000000000000LIB       Straight Party                                          Libertarian Party                     PRECINCT 4019                                          01 
01030030020000014000008000006000000000000000000LIB       Straight Party                                          Libertarian Party                     PRECINCT 4020                                          01 
01030030021000005000003000002000000000000000000LIB       Straight Party                                          Libertarian Party                     PRECINCT 4021                                          01 
01030040001000014000014000000000000000000000000          Straight Party                                          OVER VOTES                            PRECINCT 1001                                          01 
01030040002000007000007000000000000000000000000          Straight Party                                          OVER VOTES                            PRECINCT 1002                                          01 
01030040003000021000021000000000000000000000000          Straight Party                                          OVER VOTES                            PRECINCT 1003                                          01 
01030040004000007000007000000000000000000000000          Straight Party                                          OVER VOTES                            PRECINCT 1004                                          01 
01030040005000003000003000000000000000000000000          Straight Party                                          OVER VOTES                            PRECINCT 2005                                          01 
01030040006000003000003000000000000000000000000          Straight Party                                          OVER VOTES                            PRECINCT 2006                                          01 
01030040007000006000006000000000000000000000000          Straight Party                                          OVER VOTES                            PRECINCT 2007                                          01 
01030040008000002000002000000000000000000000000          Straight Party                                          OVER VOTES                            PRECINCT 2008                                          01 
01030040009000003000003000000000000000000000000          Straight Party                                          OVER VOTES                            PRECINCT 2009                                          01 
01030040010000004000004000000000000000000000000          Straight Party                                          OVER VOTES                            PRECINCT 2010                                          01 
01030040011000012000012000000000000000000000000          Straight Party                                          OVER VOTES                            PRECINCT 2011                                          01 
01030040012000001000001000000000000000000000000          Straight Party                                          OVER VOTES                            PRECINCT 3012                                          01 
01030040013000001000001000000000000000000000000          Straight Party                                          OVER VOTES                            PRECINCT 3013                                          01 
01030040014000004000004000000000000000000000000          Straight Party                                          OVER VOTES                            PRECINCT 3014                                          01 
01030040015000003000003000000000000000000000000          Straight Party                                          OVER VOTES                            PRECINCT 3015                                          01 
01030040016000005000005000000000000000000000000          Straight Party                                          OVER VOTES                            PRECINCT 3016                                          01 
01030040017000007000007000000000000000000000000          Straight Party                                          OVER VOTES                            PRECINCT 4017                                          01 
01030040018000001000001000000000000000000000000          Straight Party                                          OVER VOTES                            PRECINCT 4018                                          01 
01030040019000007000007000000000000000000000000          Straight Party                                          OVER VOTES                            PRECINCT 4019                                          01 
01030040020000008000008000000000000000000000000          Straight Party                                          OVER VOTES                            PRECINCT 4020                                          01 
01030040021000004000004000000000000000000000000          Straight Party                                          OVER VOTES                            PRECINCT 4021                                          01 
01030050001001041000756000284000001000000000000          Straight Party                                          UNDER VOTES                           PRECINCT 1001                                          01 
01030050002000729000571000158000000000000000000          Straight Party                                          UNDER VOTES                           PRECINCT 1002                                          01 
01030050003001847001436000410000001000000000000          Straight Party                                          UNDER VOTES                           PRECINCT 1003                                          01 
01030050004000528000384000143000001000000000000          Straight Party                                          UNDER VOTES                           PRECINCT 1004                                          01 
01030050005000755000567000188000000000000000000          Straight Party                                          UNDER VOTES                           PRECINCT 2005                                          01 
01030050006000450000314000136000000000000000000          Straight Party                                          UNDER VOTES                           PRECINCT 2006                                          01 
01030050007000643000438000205000000000000000000          Straight Party                                          UNDER VOTES                           PRECINCT 2007                                          01 
01030050008000319000251000068000000000000000000          Straight Party                                          UNDER VOTES                           PRECINCT 2008                                          01 
01030050009000383000260000123000000000000000000          Straight Party                                          UNDER VOTES                           PRECINCT 2009                                          01 
01030050010000400000252000148000000000000000000          Straight Party                                          UNDER VOTES                           PRECINCT 2010                                          01 
01030050011000779000567000211000001000000000000          Straight Party                                          UNDER VOTES                           PRECINCT 2011                                          01 
01030050012000280000191000089000000000000000000          Straight Party                                          UNDER VOTES                           PRECINCT 3012                                          01 
01030050013000521000271000248000002000000000000          Straight Party                                          UNDER VOTES                           PRECINCT 3013                                          01 
01030050014000587000442000145000000000000000000          Straight Party                                          UNDER VOTES                           PRECINCT 3014                                          01 
01030050015000560000424000135000001000000000000          Straight Party                                          UNDER VOTES                           PRECINCT 3015                                          01 
01030050016000730000522000206000002000000000000          Straight Party                                          UNDER VOTES                           PRECINCT 3016                                          01 
01030050017000720000573000147000000000000000000          Straight Party                                          UNDER VOTES                           PRECINCT 4017                                          01 
01030050018000213000162000051000000000000000000          Straight Party                                          UNDER VOTES                           PRECINCT 4018                                          01 
01030050019000778000560000217000001000000000000          Straight Party                                          UNDER VOTES                           PRECINCT 4019                                          01 
01030050020000930000712000218000000000000000000          Straight Party                                          UNDER VOTES                           PRECINCT 4020                                          01 
01030050021000465000251000214000000000000000000          Straight Party                                          UNDER VOTES                           PRECINCT 4021                                          01 
01040010001001153000833000319000001000000000000REP       United States Senator                                   Ted Cruz                              PRECINCT 1001                                          01 
01040010002000665000518000147000000000000000000REP       United States Senator                                   Ted Cruz                              PRECINCT 1002                                          01 
01040010003002055001588000466000001000000000000REP       United States Senator                                   Ted Cruz                              PRECINCT 1003                                          01 
01040010004000594000400000192000002000000000000REP       United States Senator                                   Ted Cruz                              PRECINCT 1004                                          01 
01040010005000870000636000233000001000000000000REP       United States Senator                                   Ted Cruz                              PRECINCT 2005                                          01 
01040010006000564000390000174000000000000000000REP       United States Senator                                   Ted Cruz                              PRECINCT 2006                                          01 
01040010007000943000633000308000002000000000000REP       United States Senator                                   Ted Cruz                              PRECINCT 2007                                          01 
01040010008000409000328000081000000000000000000REP       United States Senator                                   Ted Cruz                              PRECINCT 2008                                          01 
01040010009000418000295000123000000000000000000REP       United States Senator                                   Ted Cruz                              PRECINCT 2009                                          01 
01040010010000550000303000247000000000000000000REP       United States Senator                                   Ted Cruz                              PRECINCT 2010                                          01 
01040010011000874000660000214000000000000000000REP       United States Senator                                   Ted Cruz                              PRECINCT 2011                                          01 
01040010012000398000276000121000001000000000000REP       United States Senator                                   Ted Cruz                              PRECINCT 3012                                          01 
01040010013000604000305000297000002000000000000REP       United States Senator                                   Ted Cruz                              PRECINCT 3013                                          01 
01040010014000613000472000141000000000000000000REP       United States Senator                                   Ted Cruz                              PRECINCT 3014                                          01 
01040010015000473000375000097000001000000000000REP       United States Senator                                   Ted Cruz                              PRECINCT 3015                                          01 
01040010016000810000581000229000000000000000000REP       United States Senator                                   Ted Cruz                              PRECINCT 3016                                          01 
01040010017000605000468000137000000000000000000REP       United States Senator                                   Ted Cruz                              PRECINCT 4017                                          01 
01040010018000262000209000052000001000000000000REP       United States Senator                                   Ted Cruz                              PRECINCT 4018                                          01 
01040010019000802000561000240000001000000000000REP       United States Senator                                   Ted Cruz                              PRECINCT 4019                                          01 
01040010020000913000712000199000002000000000000REP       United States Senator                                   Ted Cruz                              PRECINCT 4020                                          01 
01040010021000492000283000209000000000000000000REP       United States Senator                                   Ted Cruz                              PRECINCT 4021                                          01 
01040020001000824000648000175000001000000000000DEM       United States Senator                                   Beto O'Rourke                         PRECINCT 1001                                          01 
01040020002000728000596000132000000000000000000DEM       United States Senator                                   Beto O'Rourke                         PRECINCT 1002                                          01 
01040020003001575001245000328000002000000000000DEM       United States Senator                                   Beto O'Rourke                         PRECINCT 1003                                          01 
01040020004000597000421000176000000000000000000DEM       United States Senator                                   Beto O'Rourke                         PRECINCT 1004                                          01 
01040020005000696000557000138000001000000000000DEM       United States Senator                                   Beto O'Rourke                         PRECINCT 2005                                          01 
01040020006000310000232000077000001000000000000DEM       United States Senator                                   Beto O'Rourke                         PRECINCT 2006                                          01 
01040020007000352000256000096000000000000000000DEM       United States Senator                                   Beto O'Rourke                         PRECINCT 2007                                          01 
01040020008000202000165000037000000000000000000DEM       United States Senator                                   Beto O'Rourke                         PRECINCT 2008                                          01 
01040020009000310000236000074000000000000000000DEM       United States Senator                                   Beto O'Rourke                         PRECINCT 2009                                          01 
01040020010000257000201000056000000000000000000DEM       United States Senator                                   Beto O'Rourke                         PRECINCT 2010                                          01 
01040020011000635000487000147000001000000000000DEM       United States Senator                                   Beto O'Rourke                         PRECINCT 2011                                          01 
01040020012000156000108000048000000000000000000DEM       United States Senator                                   Beto O'Rourke                         PRECINCT 3012                                          01 
01040020013000306000196000109000001000000000000DEM       United States Senator                                   Beto O'Rourke                         PRECINCT 3013                                          01 
01040020014000616000459000156000001000000000000DEM       United States Senator                                   Beto O'Rourke                         PRECINCT 3014                                          01 
01040020015000771000557000214000000000000000000DEM       United States Senator                                   Beto O'Rourke                         PRECINCT 3015                                          01 
01040020016000686000494000191000001000000000000DEM       United States Senator                                   Beto O'Rourke                         PRECINCT 3016                                          01 
01040020017000863000678000185000000000000000000DEM       United States Senator                                   Beto O'Rourke                         PRECINCT 4017                                          01 
01040020018000149000122000027000000000000000000DEM       United States Senator                                   Beto O'Rourke                         PRECINCT 4018                                          01 
01040020019000673000504000168000001000000000000DEM       United States Senator                                   Beto O'Rourke                         PRECINCT 4019                                          01 
01040020020001094000848000244000002000000000000DEM       United States Senator                                   Beto O'Rourke                         PRECINCT 4020                                          01 
01040020021000282000174000108000000000000000000DEM       United States Senator                                   Beto O'Rourke                         PRECINCT 4021                                          01 
01040030001000019000008000011000000000000000000LIB       United States Senator                                   Neal M. Dikeman                       PRECINCT 1001                                          01 
01040030002000011000009000002000000000000000000LIB       United States Senator                                   Neal M. Dikeman                       PRECINCT 1002                                          01 
01040030003000028000015000013000000000000000000LIB       United States Senator                                   Neal M. Dikeman                       PRECINCT 1003                                          01 
01040030004000011000005000006000000000000000000LIB       United States Senator                                   Neal M. Dikeman                       PRECINCT 1004                                          01 
01040030005000021000014000007000000000000000000LIB       United States Senator                                   Neal M. Dikeman                       PRECINCT 2005                                          01 
01040030006000012000007000005000000000000000000LIB       United States Senator                                   Neal M. Dikeman                       PRECINCT 2006                                          01 
01040030007000014000011000003000000000000000000LIB       United States Senator                                   Neal M. Dikeman                       PRECINCT 2007                                          01 
01040030008000007000006000001000000000000000000LIB       United States Senator                                   Neal M. Dikeman                       PRECINCT 2008                                          01 
01040030009000016000008000008000000000000000000LIB       United States Senator                                   Neal M. Dikeman                       PRECINCT 2009                                          01 
01040030010000008000000000008000000000000000000LIB       United States Senator                                   Neal M. Dikeman                       PRECINCT 2010                                          01 
01040030011000024000012000012000000000000000000LIB       United States Senator                                   Neal M. Dikeman                       PRECINCT 2011                                          01 
01040030012000007000003000004000000000000000000LIB       United States Senator                                   Neal M. Dikeman                       PRECINCT 3012                                          01 
01040030013000012000003000009000000000000000000LIB       United States Senator                                   Neal M. Dikeman                       PRECINCT 3013                                          01 
01040030014000013000006000007000000000000000000LIB       United States Senator                                   Neal M. Dikeman                       PRECINCT 3014                                          01 
01040030015000012000005000007000000000000000000LIB       United States Senator                                   Neal M. Dikeman                       PRECINCT 3015                                          01 
01040030016000020000014000006000000000000000000LIB       United States Senator                                   Neal M. Dikeman                       PRECINCT 3016                                          01 
01040030017000018000007000011000000000000000000LIB       United States Senator                                   Neal M. Dikeman                       PRECINCT 4017                                          01 
01040030018000004000003000001000000000000000000LIB       United States Senator                                   Neal M. Dikeman                       PRECINCT 4018                                          01 
01040030019000011000008000003000000000000000000LIB       United States Senator                                   Neal M. Dikeman                       PRECINCT 4019                                          01 
01040030020000030000016000014000000000000000000LIB       United States Senator                                   Neal M. Dikeman                       PRECINCT 4020                                          01 
01040030021000014000006000008000000000000000000LIB       United States Senator                                   Neal M. Dikeman                       PRECINCT 4021                                          01 
01040040001000000000000000000000000000000000000          United States Senator                                   OVER VOTES                            PRECINCT 1001                                          01 
01040040002000000000000000000000000000000000000          United States Senator                                   OVER VOTES                            PRECINCT 1002                                          01 
01040040003000000000000000000000000000000000000          United States Senator                                   OVER VOTES                            PRECINCT 1003                                          01 
01040040004000000000000000000000000000000000000          United States Senator                                   OVER VOTES                            PRECINCT 1004                                          01 
01040040005000000000000000000000000000000000000          United States Senator                                   OVER VOTES                            PRECINCT 2005                                          01 
01040040006000000000000000000000000000000000000          United States Senator                                   OVER VOTES                            PRECINCT 2006                                          01 
01040040007000000000000000000000000000000000000          United States Senator                                   OVER VOTES                            PRECINCT 2007                                          01 
01040040008000000000000000000000000000000000000          United States Senator                                   OVER VOTES                            PRECINCT 2008                                          01 
01040040009000000000000000000000000000000000000          United States Senator                                   OVER VOTES                            PRECINCT 2009                                          01 
01040040010000000000000000000000000000000000000          United States Senator                                   OVER VOTES                            PRECINCT 2010                                          01 
01040040011000000000000000000000000000000000000          United States Senator                                   OVER VOTES                            PRECINCT 2011                                          01 
01040040012000000000000000000000000000000000000          United States Senator                                   OVER VOTES                            PRECINCT 3012                                          01 
01040040013000000000000000000000000000000000000          United States Senator                                   OVER VOTES                            PRECINCT 3013                                          01 
01040040014000000000000000000000000000000000000          United States Senator                                   OVER VOTES                            PRECINCT 3014                                          01 
01040040015000000000000000000000000000000000000          United States Senator                                   OVER VOTES                            PRECINCT 3015                                          01 
01040040016000000000000000000000000000000000000          United States Senator                                   OVER VOTES                            PRECINCT 3016                                          01 
01040040017000000000000000000000000000000000000          United States Senator                                   OVER VOTES                            PRECINCT 4017                                          01 
01040040018000000000000000000000000000000000000          United States Senator                                   OVER VOTES                            PRECINCT 4018                                          01 
01040040019000000000000000000000000000000000000          United States Senator                                   OVER VOTES                            PRECINCT 4019                                          01 
01040040020000000000000000000000000000000000000          United States Senator                                   OVER VOTES                            PRECINCT 4020                                          01 
01040040021000000000000000000000000000000000000          United States Senator                                   OVER VOTES                            PRECINCT 4021                                          01 
01040050001000015000013000002000000000000000000          United States Senator                                   UNDER VOTES                           PRECINCT 1001                                          01 
01040050002000014000012000002000000000000000000          United States Senator                                   UNDER VOTES                           PRECINCT 1002                                          01 
01040050003000022000015000007000000000000000000          United States Senator                                   UNDER VOTES                           PRECINCT 1003                                          01 
01040050004000002000000000002000000000000000000          United States Senator                                   UNDER VOTES                           PRECINCT 1004                                          01 
01040050005000014000011000003000000000000000000          United States Senator                                   UNDER VOTES                           PRECINCT 2005                                          01 
01040050006000006000004000002000000000000000000          United States Senator                                   UNDER VOTES                           PRECINCT 2006                                          01 
01040050007000007000003000004000000000000000000          United States Senator                                   UNDER VOTES                           PRECINCT 2007                                          01 
01040050008000005000003000002000000000000000000          United States Senator                                   UNDER VOTES                           PRECINCT 2008                                          01 
01040050009000003000001000002000000000000000000          United States Senator                                   UNDER VOTES                           PRECINCT 2009                                          01 
01040050010000002000001000001000000000000000000          United States Senator                                   UNDER VOTES                           PRECINCT 2010                                          01 
01040050011000005000005000000000000000000000000          United States Senator                                   UNDER VOTES                           PRECINCT 2011                                          01 
01040050012000004000000000004000000000000000000          United States Senator                                   UNDER VOTES                           PRECINCT 3012                                          01 
01040050013000006000003000003000000000000000000          United States Senator                                   UNDER VOTES                           PRECINCT 3013                                          01 
01040050014000003000002000001000000000000000000          United States Senator                                   UNDER VOTES                           PRECINCT 3014                                          01 
01040050015000006000002000004000000000000000000          United States Senator                                   UNDER VOTES                           PRECINCT 3015                                          01 
01040050016000009000004000004000001000000000000          United States Senator                                   UNDER VOTES                           PRECINCT 3016                                          01 
01040050017000011000010000001000000000000000000          United States Senator                                   UNDER VOTES                           PRECINCT 4017                                          01 
01040050018000005000003000002000000000000000000          United States Senator                                   UNDER VOTES                           PRECINCT 4018                                          01 
01040050019000007000005000002000000000000000000          United States Senator                                   UNDER VOTES                           PRECINCT 4019                                          01 
01040050020000014000009000005000000000000000000          United States Senator                                   UNDER VOTES                           PRECINCT 4020                                          01 
01040050021000005000001000004000000000000000000          United States Senator                                   UNDER VOTES                           PRECINCT 4021                                          01 
01050010001001144000832000311000001000000000000REPUSREP10United States Representative, Dist 10                   Michael T. McCaul                     PRECINCT 1001                                          01 
01050010002000662000516000146000000000000000000REPUSREP10United States Representative, Dist 10                   Michael T. McCaul                     PRECINCT 1002                                          01 
01050010004000592000405000185000002000000000000REPUSREP10United States Representative, Dist 10                   Michael T. McCaul                     PRECINCT 1004                                          01 
01050010005000859000617000241000001000000000000REPUSREP10United States Representative, Dist 10                   Michael T. McCaul                     PRECINCT 2005                                          01 
01050010006000560000388000172000000000000000000REPUSREP10United States Representative, Dist 10                   Michael T. McCaul                     PRECINCT 2006                                          01 
01050010009000408000288000120000000000000000000REPUSREP10United States Representative, Dist 10                   Michael T. McCaul                     PRECINCT 2009                                          01 
01050010010000541000294000247000000000000000000REPUSREP10United States Representative, Dist 10                   Michael T. McCaul                     PRECINCT 2010                                          01 
01050010011000889000669000220000000000000000000REPUSREP10United States Representative, Dist 10                   Michael T. McCaul                     PRECINCT 2011                                          01 
01050010017000599000464000135000000000000000000REPUSREP10United States Representative, Dist 10                   Michael T. McCaul                     PRECINCT 4017                                          01 
01050010019000810000569000240000001000000000000REPUSREP10United States Representative, Dist 10                   Michael T. McCaul                     PRECINCT 4019                                          01 
01050010020000906000714000190000002000000000000REPUSREP10United States Representative, Dist 10                   Michael T. McCaul                     PRECINCT 4020                                          01 
01050010021000484000286000198000000000000000000REPUSREP10United States Representative, Dist 10                   Michael T. McCaul                     PRECINCT 4021                                          01 
01050020001000752000601000150000001000000000000DEMUSREP10United States Representative, Dist 10                   Mike Siegel                           PRECINCT 1001                                          01 
01050020002000679000569000110000000000000000000DEMUSREP10United States Representative, Dist 10                   Mike Siegel                           PRECINCT 1002                                          01 
01050020004000550000385000165000000000000000000DEMUSREP10United States Representative, Dist 10                   Mike Siegel                           PRECINCT 1004                                          01 
01050020005000675000547000127000001000000000000DEMUSREP10United States Representative, Dist 10                   Mike Siegel                           PRECINCT 2005                                          01 
01050020006000295000224000070000001000000000000DEMUSREP10United States Representative, Dist 10                   Mike Siegel                           PRECINCT 2006                                          01 
01050020009000284000218000066000000000000000000DEMUSREP10United States Representative, Dist 10                   Mike Siegel                           PRECINCT 2009                                          01 
01050020010000236000189000047000000000000000000DEMUSREP10United States Representative, Dist 10                   Mike Siegel                           PRECINCT 2010                                          01 
01050020011000567000439000128000000000000000000DEMUSREP10United States Representative, Dist 10                   Mike Siegel                           PRECINCT 2011                                          01 
01050020017000826000654000172000000000000000000DEMUSREP10United States Representative, Dist 10                   Mike Siegel                           PRECINCT 4017                                          01 
01050020019000613000463000149000001000000000000DEMUSREP10United States Representative, Dist 10                   Mike Siegel                           PRECINCT 4019                                          01 
01050020020001031000799000230000002000000000000DEMUSREP10United States Representative, Dist 10                   Mike Siegel                           PRECINCT 4020                                          01 
01050020021000255000160000095000000000000000000DEMUSREP10United States Representative, Dist 10                   Mike Siegel                           PRECINCT 4021                                          01 
01050030001000064000032000032000000000000000000LIBUSREP10United States Representative, Dist 10                   Mike Ryan                             PRECINCT 1001                                          01 
01050030002000045000025000020000000000000000000LIBUSREP10United States Representative, Dist 10                   Mike Ryan                             PRECINCT 1002                                          01 
01050030004000047000027000020000000000000000000LIBUSREP10United States Representative, Dist 10                   Mike Ryan                             PRECINCT 1004                                          01 
01050030005000041000031000010000000000000000000LIBUSREP10United States Representative, Dist 10                   Mike Ryan                             PRECINCT 2005                                          01 
01050030006000020000011000009000000000000000000LIBUSREP10United States Representative, Dist 10                   Mike Ryan                             PRECINCT 2006                                          01 
01050030009000047000029000018000000000000000000LIBUSREP10United States Representative, Dist 10                   Mike Ryan                             PRECINCT 2009                                          01 
01050030010000030000015000015000000000000000000LIBUSREP10United States Representative, Dist 10                   Mike Ryan                             PRECINCT 2010                                          01 
01050030011000061000038000022000001000000000000LIBUSREP10United States Representative, Dist 10                   Mike Ryan                             PRECINCT 2011                                          01 
01050030017000043000024000019000000000000000000LIBUSREP10United States Representative, Dist 10                   Mike Ryan                             PRECINCT 4017                                          01 
01050030019000050000032000018000000000000000000LIBUSREP10United States Representative, Dist 10                   Mike Ryan                             PRECINCT 4019                                          01 
01050030020000073000047000026000000000000000000LIBUSREP10United States Representative, Dist 10                   Mike Ryan                             PRECINCT 4020                                          01 
01050030021000036000013000023000000000000000000LIBUSREP10United States Representative, Dist 10                   Mike Ryan                             PRECINCT 4021                                          01 
01050040001000009000009000000000000000000000000   USREP10United States Representative, Dist 10                   OVER VOTES                            PRECINCT 1001                                          01 
01050040002000005000005000000000000000000000000   USREP10United States Representative, Dist 10                   OVER VOTES                            PRECINCT 1002                                          01 
01050040004000004000004000000000000000000000000   USREP10United States Representative, Dist 10                   OVER VOTES                            PRECINCT 1004                                          01 
01050040005000002000002000000000000000000000000   USREP10United States Representative, Dist 10                   OVER VOTES                            PRECINCT 2005                                          01 
01050040006000003000003000000000000000000000000   USREP10United States Representative, Dist 10                   OVER VOTES                            PRECINCT 2006                                          01 
01050040009000002000002000000000000000000000000   USREP10United States Representative, Dist 10                   OVER VOTES                            PRECINCT 2009                                          01 
01050040010000003000003000000000000000000000000   USREP10United States Representative, Dist 10                   OVER VOTES                            PRECINCT 2010                                          01 
01050040011000005000005000000000000000000000000   USREP10United States Representative, Dist 10                   OVER VOTES                            PRECINCT 2011                                          01 
01050040017000003000003000000000000000000000000   USREP10United States Representative, Dist 10                   OVER VOTES                            PRECINCT 4017                                          01 
01050040019000003000003000000000000000000000000   USREP10United States Representative, Dist 10                   OVER VOTES                            PRECINCT 4019                                          01 
01050040020000001000001000000000000000000000000   USREP10United States Representative, Dist 10                   OVER VOTES                            PRECINCT 4020                                          01 
01050040021000003000003000000000000000000000000   USREP10United States Representative, Dist 10                   OVER VOTES                            PRECINCT 4021                                          01 
01050050001000042000028000014000000000000000000   USREP10United States Representative, Dist 10                   UNDER VOTES                           PRECINCT 1001                                          01 
01050050002000027000020000007000000000000000000   USREP10United States Representative, Dist 10                   UNDER VOTES                           PRECINCT 1002                                          01 
01050050004000011000005000006000000000000000000   USREP10United States Representative, Dist 10                   UNDER VOTES                           PRECINCT 1004                                          01 
01050050005000024000021000003000000000000000000   USREP10United States Representative, Dist 10                   UNDER VOTES                           PRECINCT 2005                                          01 
01050050006000014000007000007000000000000000000   USREP10United States Representative, Dist 10                   UNDER VOTES                           PRECINCT 2006                                          01 
01050050009000006000003000003000000000000000000   USREP10United States Representative, Dist 10                   UNDER VOTES                           PRECINCT 2009                                          01 
01050050010000007000004000003000000000000000000   USREP10United States Representative, Dist 10                   UNDER VOTES                           PRECINCT 2010                                          01 
01050050011000016000013000003000000000000000000   USREP10United States Representative, Dist 10                   UNDER VOTES                           PRECINCT 2011                                          01 
01050050017000026000018000008000000000000000000   USREP10United States Representative, Dist 10                   UNDER VOTES                           PRECINCT 4017                                          01 
01050050019000017000011000006000000000000000000   USREP10United States Representative, Dist 10                   UNDER VOTES                           PRECINCT 4019                                          01 
01050050020000040000024000016000000000000000000   USREP10United States Representative, Dist 10                   UNDER VOTES                           PRECINCT 4020                                          01 
01050050021000015000002000013000000000000000000   USREP10United States Representative, Dist 10                   UNDER VOTES                           PRECINCT 4021                                          01 
01060010018000269000214000054000001000000000000REPUSREP17United States Representative, Dist 17                   Bill Flores                           PRECINCT 4018                                          01 
01060020018000129000109000020000000000000000000DEMUSREP17United States Representative, Dist 17                   Rick Kennedy                          PRECINCT 4018                                          01 
01060030018000011000008000003000000000000000000LIBUSREP17United States Representative, Dist 17                   Peter Churchman                       PRECINCT 4018                                          01 
01060040018000001000001000000000000000000000000   USREP17United States Representative, Dist 17                   OVER VOTES                            PRECINCT 4018                                          01 
01060050018000010000005000005000000000000000000   USREP17United States Representative, Dist 17                   UNDER VOTES                           PRECINCT 4018                                          01 
01070010003002073001589000483000001000000000000REPUSREP27United States Representative, Dist 27                   Michael Cloud                         PRECINCT 1003                                          01 
01070010007000935000623000310000002000000000000REPUSREP27United States Representative, Dist 27                   Michael Cloud                         PRECINCT 2007                                          01 
01070010008000406000328000078000000000000000000REPUSREP27United States Representative, Dist 27                   Michael Cloud                         PRECINCT 2008                                          01 
01070010012000400000275000124000001000000000000REPUSREP27United States Representative, Dist 27                   Michael Cloud                         PRECINCT 3012                                          01 
01070010013000601000311000288000002000000000000REPUSREP27United States Representative, Dist 27                   Michael Cloud                         PRECINCT 3013                                          01 
01070010014000614000472000142000000000000000000REPUSREP27United States Representative, Dist 27                   Michael Cloud                         PRECINCT 3014                                          01 
01070010015000467000368000098000001000000000000REPUSREP27United States Representative, Dist 27                   Michael Cloud                         PRECINCT 3015                                          01 
01070010016000800000575000225000000000000000000REPUSREP27United States Representative, Dist 27                   Michael Cloud                         PRECINCT 3016                                          01 
01070020003001447001158000287000002000000000000DEMUSREP27United States Representative, Dist 27                   Eric Holguin                          PRECINCT 1003                                          01 
01070020007000318000237000081000000000000000000DEMUSREP27United States Representative, Dist 27                   Eric Holguin                          PRECINCT 2007                                          01 
01070020008000186000152000034000000000000000000DEMUSREP27United States Representative, Dist 27                   Eric Holguin                          PRECINCT 2008                                          01 
01070020012000132000092000040000000000000000000DEMUSREP27United States Representative, Dist 27                   Eric Holguin                          PRECINCT 3012                                          01 
01070020013000282000180000101000001000000000000DEMUSREP27United States Representative, Dist 27                   Eric Holguin                          PRECINCT 3013                                          01 
01070020014000576000434000141000001000000000000DEMUSREP27United States Representative, Dist 27                   Eric Holguin                          PRECINCT 3014                                          01 
01070020015000731000526000205000000000000000000DEMUSREP27United States Representative, Dist 27                   Eric Holguin                          PRECINCT 3015                                          01 
01070020016000638000468000169000001000000000000DEMUSREP27United States Representative, Dist 27                   Eric Holguin                          PRECINCT 3016                                          01 
01070030003000055000037000018000000000000000000LIBUSREP27United States Representative, Dist 27                   Daniel Tinus                          PRECINCT 1003                                          01 
01070030007000022000015000007000000000000000000LIBUSREP27United States Representative, Dist 27                   Daniel Tinus                          PRECINCT 2007                                          01 
01070030008000009000005000004000000000000000000LIBUSREP27United States Representative, Dist 27                   Daniel Tinus                          PRECINCT 2008                                          01 
01070030012000015000011000004000000000000000000LIBUSREP27United States Representative, Dist 27                   Daniel Tinus                          PRECINCT 3012                                          01 
01070030013000012000004000008000000000000000000LIBUSREP27United States Representative, Dist 27                   Daniel Tinus                          PRECINCT 3013                                          01 
01070030014000016000010000006000000000000000000LIBUSREP27United States Representative, Dist 27                   Daniel Tinus                          PRECINCT 3014                                          01 
01070030015000022000014000008000000000000000000LIBUSREP27United States Representative, Dist 27                   Daniel Tinus                          PRECINCT 3015                                          01 
01070030016000030000016000014000000000000000000LIBUSREP27United States Representative, Dist 27                   Daniel Tinus                          PRECINCT 3016                                          01 
01070040003000037000025000012000000000000000000INDUSREP27United States Representative, Dist 27                   James Duerr                           PRECINCT 1003                                          01 
01070040007000019000015000004000000000000000000INDUSREP27United States Representative, Dist 27                   James Duerr                           PRECINCT 2007                                          01 
01070040008000005000004000001000000000000000000INDUSREP27United States Representative, Dist 27                   James Duerr                           PRECINCT 2008                                          01 
01070040012000008000005000003000000000000000000INDUSREP27United States Representative, Dist 27                   James Duerr                           PRECINCT 3012                                          01 
01070040013000012000003000009000000000000000000INDUSREP27United States Representative, Dist 27                   James Duerr                           PRECINCT 3013                                          01 
01070040014000018000010000008000000000000000000INDUSREP27United States Representative, Dist 27                   James Duerr                           PRECINCT 3014                                          01 
01070040015000017000013000004000000000000000000INDUSREP27United States Representative, Dist 27                   James Duerr                           PRECINCT 3015                                          01 
01070040016000030000017000013000000000000000000INDUSREP27United States Representative, Dist 27                   James Duerr                           PRECINCT 3016                                          01 
01070050003000018000018000000000000000000000000   USREP27United States Representative, Dist 27                   OVER VOTES                            PRECINCT 1003                                          01 
01070050007000006000006000000000000000000000000   USREP27United States Representative, Dist 27                   OVER VOTES                            PRECINCT 2007                                          01 
01070050008000002000002000000000000000000000000   USREP27United States Representative, Dist 27                   OVER VOTES                            PRECINCT 2008                                          01 
01070050012000001000001000000000000000000000000   USREP27United States Representative, Dist 27                   OVER VOTES                            PRECINCT 3012                                          01 
01070050013000001000001000000000000000000000000   USREP27United States Representative, Dist 27                   OVER VOTES                            PRECINCT 3013                                          01 
01070050014000003000003000000000000000000000000   USREP27United States Representative, Dist 27                   OVER VOTES                            PRECINCT 3014                                          01 
01070050015000003000003000000000000000000000000   USREP27United States Representative, Dist 27                   OVER VOTES                            PRECINCT 3015                                          01 
01070050016000004000004000000000000000000000000   USREP27United States Representative, Dist 27                   OVER VOTES                            PRECINCT 3016                                          01 
01070060003000050000036000014000000000000000000   USREP27United States Representative, Dist 27                   UNDER VOTES                           PRECINCT 1003                                          01 
01070060007000016000007000009000000000000000000   USREP27United States Representative, Dist 27                   UNDER VOTES                           PRECINCT 2007                                          01 
01070060008000015000011000004000000000000000000   USREP27United States Representative, Dist 27                   UNDER VOTES                           PRECINCT 2008                                          01 
01070060012000009000003000006000000000000000000   USREP27United States Representative, Dist 27                   UNDER VOTES                           PRECINCT 3012                                          01 
01070060013000020000008000012000000000000000000   USREP27United States Representative, Dist 27                   UNDER VOTES                           PRECINCT 3013                                          01 
01070060014000018000010000008000000000000000000   USREP27United States Representative, Dist 27                   UNDER VOTES                           PRECINCT 3014                                          01 
01070060015000022000015000007000000000000000000   USREP27United States Representative, Dist 27                   UNDER VOTES                           PRECINCT 3015                                          01 
01070060016000023000013000009000001000000000000   USREP27United States Representative, Dist 27                   UNDER VOTES                           PRECINCT 3016                                          01 
01080010001001253000896000356000001000000000000REP       Governor                                                Greg Abbott                           PRECINCT 1001                                          01 
01080010002000738000561000177000000000000000000REP       Governor                                                Greg Abbott                           PRECINCT 1002                                          01 
01080010003002263001730000532000001000000000000REP       Governor                                                Greg Abbott                           PRECINCT 1003                                          01 
01080010004000644000436000206000002000000000000REP       Governor                                                Greg Abbott                           PRECINCT 1004                                          01 
01080010005000952000687000264000001000000000000REP       Governor                                                Greg Abbott                           PRECINCT 2005                                          01 
01080010006000602000412000190000000000000000000REP       Governor                                                Greg Abbott                           PRECINCT 2006                                          01 
01080010007000997000670000325000002000000000000REP       Governor                                                Greg Abbott                           PRECINCT 2007                                          01 
01080010008000437000348000089000000000000000000REP       Governor                                                Greg Abbott                           PRECINCT 2008                                          01 
01080010009000463000324000139000000000000000000REP       Governor                                                Greg Abbott                           PRECINCT 2009                                          01 
01080010010000578000315000263000000000000000000REP       Governor                                                Greg Abbott                           PRECINCT 2010                                          01 
01080010011000954000709000244000001000000000000REP       Governor                                                Greg Abbott                           PRECINCT 2011                                          01 
01080010012000432000293000138000001000000000000REP       Governor                                                Greg Abbott                           PRECINCT 3012                                          01 
01080010013000643000329000312000002000000000000REP       Governor                                                Greg Abbott                           PRECINCT 3013                                          01 
01080010014000673000512000161000000000000000000REP       Governor                                                Greg Abbott                           PRECINCT 3014                                          01 
01080010015000525000409000115000001000000000000REP       Governor                                                Greg Abbott                           PRECINCT 3015                                          01 
01080010016000872000623000248000001000000000000REP       Governor                                                Greg Abbott                           PRECINCT 3016                                          01 
01080010017000661000505000156000000000000000000REP       Governor                                                Greg Abbott                           PRECINCT 4017                                          01 
01080010018000282000224000057000001000000000000REP       Governor                                                Greg Abbott                           PRECINCT 4018                                          01 
01080010019000860000602000257000001000000000000REP       Governor                                                Greg Abbott                           PRECINCT 4019                                          01 
01080010020001002000774000226000002000000000000REP       Governor                                                Greg Abbott                           PRECINCT 4020                                          01 
01080010021000520000298000222000000000000000000REP       Governor                                                Greg Abbott                           PRECINCT 4021                                          01 
01080020001000693000558000134000001000000000000DEM       Governor                                                Lupe Valdez                           PRECINCT 1001                                          01 
01080020002000627000529000098000000000000000000DEM       Governor                                                Lupe Valdez                           PRECINCT 1002                                          01 
01080020003001319001062000255000002000000000000DEM       Governor                                                Lupe Valdez                           PRECINCT 1003                                          01 
01080020004000526000375000151000000000000000000DEM       Governor                                                Lupe Valdez                           PRECINCT 1004                                          01 
01080020005000595000489000105000001000000000000DEM       Governor                                                Lupe Valdez                           PRECINCT 2005                                          01 
01080020006000267000206000060000001000000000000DEM       Governor                                                Lupe Valdez                           PRECINCT 2006                                          01 
01080020007000276000206000070000000000000000000DEM       Governor                                                Lupe Valdez                           PRECINCT 2007                                          01 
01080020008000171000141000030000000000000000000DEM       Governor                                                Lupe Valdez                           PRECINCT 2008                                          01 
01080020009000260000202000058000000000000000000DEM       Governor                                                Lupe Valdez                           PRECINCT 2009                                          01 
01080020010000222000180000042000000000000000000DEM       Governor                                                Lupe Valdez                           PRECINCT 2010                                          01 
01080020011000531000421000110000000000000000000DEM       Governor                                                Lupe Valdez                           PRECINCT 2011                                          01 
01080020012000114000078000036000000000000000000DEM       Governor                                                Lupe Valdez                           PRECINCT 3012                                          01 
01080020013000257000167000089000001000000000000DEM       Governor                                                Lupe Valdez                           PRECINCT 3013                                          01 
01080020014000549000417000131000001000000000000DEM       Governor                                                Lupe Valdez                           PRECINCT 3014                                          01 
01080020015000693000498000195000000000000000000DEM       Governor                                                Lupe Valdez                           PRECINCT 3015                                          01 
01080020016000608000441000166000001000000000000DEM       Governor                                                Lupe Valdez                           PRECINCT 3016                                          01 
01080020017000786000621000165000000000000000000DEM       Governor                                                Lupe Valdez                           PRECINCT 4017                                          01 
01080020018000126000105000021000000000000000000DEM       Governor                                                Lupe Valdez                           PRECINCT 4018                                          01 
01080020019000575000439000135000001000000000000DEM       Governor                                                Lupe Valdez                           PRECINCT 4019                                          01 
01080020020000972000754000216000002000000000000DEM       Governor                                                Lupe Valdez                           PRECINCT 4020                                          01 
01080020021000240000157000083000000000000000000DEM       Governor                                                Lupe Valdez                           PRECINCT 4021                                          01 
01080030001000042000029000013000000000000000000LIB       Governor                                                Mark Jay Tippetts                     PRECINCT 1001                                          01 
01080030002000036000029000007000000000000000000LIB       Governor                                                Mark Jay Tippetts                     PRECINCT 1002                                          01 
01080030003000066000045000021000000000000000000LIB       Governor                                                Mark Jay Tippetts                     PRECINCT 1003                                          01 
01080030004000025000011000014000000000000000000LIB       Governor                                                Mark Jay Tippetts                     PRECINCT 1004                                          01 
01080030005000040000031000009000000000000000000LIB       Governor                                                Mark Jay Tippetts                     PRECINCT 2005                                          01 
01080030006000022000014000008000000000000000000LIB       Governor                                                Mark Jay Tippetts                     PRECINCT 2006                                          01 
01080030007000033000024000009000000000000000000LIB       Governor                                                Mark Jay Tippetts                     PRECINCT 2007                                          01 
01080030008000010000009000001000000000000000000LIB       Governor                                                Mark Jay Tippetts                     PRECINCT 2008                                          01 
01080030009000023000013000010000000000000000000LIB       Governor                                                Mark Jay Tippetts                     PRECINCT 2009                                          01 
01080030010000016000009000007000000000000000000LIB       Governor                                                Mark Jay Tippetts                     PRECINCT 2010                                          01 
01080030011000046000029000017000000000000000000LIB       Governor                                                Mark Jay Tippetts                     PRECINCT 2011                                          01 
01080030012000016000015000001000000000000000000LIB       Governor                                                Mark Jay Tippetts                     PRECINCT 3012                                          01 
01080030013000022000010000012000000000000000000LIB       Governor                                                Mark Jay Tippetts                     PRECINCT 3013                                          01 
01080030014000018000008000010000000000000000000LIB       Governor                                                Mark Jay Tippetts                     PRECINCT 3014                                          01 
01080030015000031000023000008000000000000000000LIB       Governor                                                Mark Jay Tippetts                     PRECINCT 3015                                          01 
01080030016000035000024000011000000000000000000LIB       Governor                                                Mark Jay Tippetts                     PRECINCT 3016                                          01 
01080030017000032000024000008000000000000000000LIB       Governor                                                Mark Jay Tippetts                     PRECINCT 4017                                          01 
01080030018000008000007000001000000000000000000LIB       Governor                                                Mark Jay Tippetts                     PRECINCT 4018                                          01 
01080030019000042000027000015000000000000000000LIB       Governor                                                Mark Jay Tippetts                     PRECINCT 4019                                          01 
01080030020000053000040000013000000000000000000LIB       Governor                                                Mark Jay Tippetts                     PRECINCT 4020                                          01 
01080030021000024000008000016000000000000000000LIB       Governor                                                Mark Jay Tippetts                     PRECINCT 4021                                          01 
01080040001000000000000000000000000000000000000          Governor                                                OVER VOTES                            PRECINCT 1001                                          01 
01080040002000001000001000000000000000000000000          Governor                                                OVER VOTES                            PRECINCT 1002                                          01 
01080040003000002000002000000000000000000000000          Governor                                                OVER VOTES                            PRECINCT 1003                                          01 
01080040004000000000000000000000000000000000000          Governor                                                OVER VOTES                            PRECINCT 1004                                          01 
01080040005000001000001000000000000000000000000          Governor                                                OVER VOTES                            PRECINCT 2005                                          01 
01080040006000000000000000000000000000000000000          Governor                                                OVER VOTES                            PRECINCT 2006                                          01 
01080040007000000000000000000000000000000000000          Governor                                                OVER VOTES                            PRECINCT 2007                                          01 
01080040008000000000000000000000000000000000000          Governor                                                OVER VOTES                            PRECINCT 2008                                          01 
01080040009000000000000000000000000000000000000          Governor                                                OVER VOTES                            PRECINCT 2009                                          01 
01080040010000000000000000000000000000000000000          Governor                                                OVER VOTES                            PRECINCT 2010                                          01 
01080040011000001000001000000000000000000000000          Governor                                                OVER VOTES                            PRECINCT 2011                                          01 
01080040012000000000000000000000000000000000000          Governor                                                OVER VOTES                            PRECINCT 3012                                          01 
01080040013000000000000000000000000000000000000          Governor                                                OVER VOTES                            PRECINCT 3013                                          01 
01080040014000000000000000000000000000000000000          Governor                                                OVER VOTES                            PRECINCT 3014                                          01 
01080040015000000000000000000000000000000000000          Governor                                                OVER VOTES                            PRECINCT 3015                                          01 
01080040016000000000000000000000000000000000000          Governor                                                OVER VOTES                            PRECINCT 3016                                          01 
01080040017000000000000000000000000000000000000          Governor                                                OVER VOTES                            PRECINCT 4017                                          01 
01080040018000000000000000000000000000000000000          Governor                                                OVER VOTES                            PRECINCT 4018                                          01 
01080040019000003000003000000000000000000000000          Governor                                                OVER VOTES                            PRECINCT 4019                                          01 
01080040020000001000001000000000000000000000000          Governor                                                OVER VOTES                            PRECINCT 4020                                          01 
01080040021000000000000000000000000000000000000          Governor                                                OVER VOTES                            PRECINCT 4021                                          01 
01080050001000023000019000004000000000000000000          Governor                                                UNDER VOTES                           PRECINCT 1001                                          01 
01080050002000016000015000001000000000000000000          Governor                                                UNDER VOTES                           PRECINCT 1002                                          01 
01080050003000030000024000006000000000000000000          Governor                                                UNDER VOTES                           PRECINCT 1003                                          01 
01080050004000009000004000005000000000000000000          Governor                                                UNDER VOTES                           PRECINCT 1004                                          01 
01080050005000013000010000003000000000000000000          Governor                                                UNDER VOTES                           PRECINCT 2005                                          01 
01080050006000001000001000000000000000000000000          Governor                                                UNDER VOTES                           PRECINCT 2006                                          01 
01080050007000010000003000007000000000000000000          Governor                                                UNDER VOTES                           PRECINCT 2007                                          01 
01080050008000005000004000001000000000000000000          Governor                                                UNDER VOTES                           PRECINCT 2008                                          01 
01080050009000001000001000000000000000000000000          Governor                                                UNDER VOTES                           PRECINCT 2009                                          01 
01080050010000001000001000000000000000000000000          Governor                                                UNDER VOTES                           PRECINCT 2010                                          01 
01080050011000006000004000002000000000000000000          Governor                                                UNDER VOTES                           PRECINCT 2011                                          01 
01080050012000003000001000002000000000000000000          Governor                                                UNDER VOTES                           PRECINCT 3012                                          01 
01080050013000006000001000005000000000000000000          Governor                                                UNDER VOTES                           PRECINCT 3013                                          01 
01080050014000005000002000003000000000000000000          Governor                                                UNDER VOTES                           PRECINCT 3014                                          01 
01080050015000013000009000004000000000000000000          Governor                                                UNDER VOTES                           PRECINCT 3015                                          01 
01080050016000010000005000005000000000000000000          Governor                                                UNDER VOTES                           PRECINCT 3016                                          01 
01080050017000018000013000005000000000000000000          Governor                                                UNDER VOTES                           PRECINCT 4017                                          01 
01080050018000004000001000003000000000000000000          Governor                                                UNDER VOTES                           PRECINCT 4018                                          01 
01080050019000013000007000006000000000000000000          Governor                                                UNDER VOTES                           PRECINCT 4019                                          01 
01080050020000023000016000007000000000000000000          Governor                                                UNDER VOTES                           PRECINCT 4020                                          01 
01080050021000009000001000008000000000000000000          Governor                                                UNDER VOTES                           PRECINCT 4021                                          01 
01090010001001134000818000315000001000000000000REP       Lieutenant Governor                                     Dan Patrick                           PRECINCT 1001                                          01 
01090010002000656000502000154000000000000000000REP       Lieutenant Governor                                     Dan Patrick                           PRECINCT 1002                                          01 
01090010003002020001547000472000001000000000000REP       Lieutenant Governor                                     Dan Patrick                           PRECINCT 1003                                          01 
