02130014050000265NONBCWCID Bexar WCID Directors                                    Eddie R. Guerrero                                                                            03 
02130014051000345NONBCWCID Bexar WCID Directors                                    Eddie R. Guerrero                                                                            03 
02130014107000268NONBCWCID Bexar WCID Directors                                    Eddie R. Guerrero                                                                            03 
02130014192000000NONBCWCID Bexar WCID Directors                                    Eddie R. Guerrero                                                                            03 
02130014195000000NONBCWCID Bexar WCID Directors                                    Eddie R. Guerrero                                                                            03 
02130024050000243NONBCWCID Bexar WCID Directors                                    Eugenia Snead                                                                                03 
02130024051000320NONBCWCID Bexar WCID Directors                                    Eugenia Snead                                                                                03 
02130024107000289NONBCWCID Bexar WCID Directors                                    Eugenia Snead                                                                                03 
02130024192000000NONBCWCID Bexar WCID Directors                                    Eugenia Snead                                                                                03 
02130024195000000NONBCWCID Bexar WCID Directors                                    Eugenia Snead                                                                                03 
02130034050000345NONBCWCID Bexar WCID Directors                                    Sue Alexander                                                                                03 
02130034051000452NONBCWCID Bexar WCID Directors                                    Sue Alexander                                                                                03 
02130034107000321NONBCWCID Bexar WCID Directors                                    Sue Alexander                                                                                03 
02130034192000000NONBCWCID Bexar WCID Directors                                    Sue Alexander                                                                                03 
02130034195000000NONBCWCID Bexar WCID Directors                                    Sue Alexander                                                                                03 
02130044050000213NONBCWCID Bexar WCID Directors                                    Robert Rohleder                                                                              03 
02130044051000254NONBCWCID Bexar WCID Directors                                    Robert Rohleder                                                                              03 
02130044107000122NONBCWCID Bexar WCID Directors                                    Robert Rohleder                                                                              03 
02130044192000000NONBCWCID Bexar WCID Directors                                    Robert Rohleder                                                                              03 
02130044195000000NONBCWCID Bexar WCID Directors                                    Robert Rohleder                                                                              03 
02130054050000271NONBCWCID Bexar WCID Directors                                    Matthew C. Halbert                                                                           03 
02130054051000331NONBCWCID Bexar WCID Directors                                    Matthew C. Halbert                                                                           03 
02130054107000158NONBCWCID Bexar WCID Directors                                    Matthew C. Halbert                                                                           03 
02130054192000000NONBCWCID Bexar WCID Directors                                    Matthew C. Halbert                                                                           03 
02130054195000000NONBCWCID Bexar WCID Directors                                    Matthew C. Halbert                                                                           03 
02130064050000199NONBCWCID Bexar WCID Directors                                    Rhonda Rowland                                                                               03 
02130064051000259NONBCWCID Bexar WCID Directors                                    Rhonda Rowland                                                                               03 
02130064107000115NONBCWCID Bexar WCID Directors                                    Rhonda Rowland                                                                               03 
02130064192000000NONBCWCID Bexar WCID Directors                                    Rhonda Rowland                                                                               03 
02130064195000000NONBCWCID Bexar WCID Directors                                    Rhonda Rowland                                                                               03 
02130074050000194NONBCWCID Bexar WCID Directors                                    Allan Thompson                                                                               03 
02130074051000263NONBCWCID Bexar WCID Directors                                    Allan Thompson                                                                               03 
02130074107000136NONBCWCID Bexar WCID Directors                                    Allan Thompson                                                                               03 
02130074192000000NONBCWCID Bexar WCID Directors                                    Allan Thompson                                                                               03 
02130074195000000NONBCWCID Bexar WCID Directors                                    Allan Thompson                                                                               03 
02130084050000000   BCWCID Bexar WCID Directors                                    OVER VOTES                                                                                   03 
02130084051000000   BCWCID Bexar WCID Directors                                    OVER VOTES                                                                                   03 
02130084107000000   BCWCID Bexar WCID Directors                                    OVER VOTES                                                                                   03 
02130084192000000   BCWCID Bexar WCID Directors                                    OVER VOTES                                                                                   03 
02130084195000000   BCWCID Bexar WCID Directors                                    OVER VOTES                                                                                   03 
02130094050001036   BCWCID Bexar WCID Directors                                    UNDER VOTES                                                                                  03 
02130094051001250   BCWCID Bexar WCID Directors                                    UNDER VOTES                                                                                  03 
02130094107000757   BCWCID Bexar WCID Directors                                    UNDER VOTES                                                                                  03 
02130094192000000   BCWCID Bexar WCID Directors                                    UNDER VOTES                                                                                  03 
02130094195000000   BCWCID Bexar WCID Directors                                    UNDER VOTES                                                                                  03 
