02130014050000202NONBCWCID Bexar WCID Directors                                    Eddie R. Guerrero                                                                            03 
02130014051000300NONBCWCID Bexar WCID Directors                                    Eddie R. Guerrero                                                                            03 
02130014107000229NONBCWCID Bexar WCID Directors                                    Eddie R. Guerrero                                                                            03 
02130014192000000NONBCWCID Bexar WCID Directors                                    Eddie R. Guerrero                                                                            03 
02130014195000000NONBCWCID Bexar WCID Directors                                    Eddie R. Guerrero                                                                            03 
02130024050000216NONBCWCID Bexar WCID Directors                                    Eugenia Snead                                                                                03 
02130024051000285NONBCWCID Bexar WCID Directors                                    Eugenia Snead                                                                                03 
02130024107000248NONBCWCID Bexar WCID Directors                                    Eugenia Snead                                                                                03 
02130024192000000NONBCWCID Bexar WCID Directors                                    Eugenia Snead                                                                                03 
02130024195000000NONBCWCID Bexar WCID Directors                                    Eugenia Snead                                                                                03 
02130034050000284NONBCWCID Bexar WCID Directors                                    Sue Alexander                                                                                03 
02130034051000397NONBCWCID Bexar WCID Directors                                    Sue Alexander                                                                                03 
02130034107000280NONBCWCID Bexar WCID Directors                                    Sue Alexander                                                                                03 
02130034192000000NONBCWCID Bexar WCID Directors                                    Sue Alexander                                                                                03 
02130034195000000NONBCWCID Bexar WCID Directors                                    Sue Alexander                                                                                03 
02130044050000191NONBCWCID Bexar WCID Directors                                    Robert Rohleder                                                                              03 
02130044051000231NONBCWCID Bexar WCID Directors                                    Robert Rohleder                                                                              03 
02130044107000103NONBCWCID Bexar WCID Directors                                    Robert Rohleder                                                                              03 
02130044192000000NONBCWCID Bexar WCID Directors                                    Robert Rohleder                                                                              03 
02130044195000000NONBCWCID Bexar WCID Directors                                    Robert Rohleder                                                                              03 
02130054050000242NONBCWCID Bexar WCID Directors                                    Matthew C. Halbert                                                                           03 
02130054051000303NONBCWCID Bexar WCID Directors                                    Matthew C. Halbert                                                                           03 
02130054107000137NONBCWCID Bexar WCID Directors                                    Matthew C. Halbert                                                                           03 
02130054192000000NONBCWCID Bexar WCID Directors                                    Matthew C. Halbert                                                                           03 
02130054195000000NONBCWCID Bexar WCID Directors                                    Matthew C. Halbert                                                                           03 
02130064050000162NONBCWCID Bexar WCID Directors                                    Rhonda Rowland                                                                               03 
02130064051000232NONBCWCID Bexar WCID Directors                                    Rhonda Rowland                                                                               03 
02130064107000095NONBCWCID Bexar WCID Directors                                    Rhonda Rowland                                                                               03 
02130064192000000NONBCWCID Bexar WCID Directors                                    Rhonda Rowland                                                                               03 
02130064195000000NONBCWCID Bexar WCID Directors                                    Rhonda Rowland                                                                               03 
02130074050000175NONBCWCID Bexar WCID Directors                                    Allan Thompson                                                                               03 
02130074051000240NONBCWCID Bexar WCID Directors                                    Allan Thompson                                                                               03 
02130074107000117NONBCWCID Bexar WCID Directors                                    Allan Thompson                                                                               03 
02130074192000000NONBCWCID Bexar WCID Directors                                    Allan Thompson                                                                               03 
02130074195000000NONBCWCID Bexar WCID Directors                                    Allan Thompson                                                                               03 
02130084050000000   BCWCID Bexar WCID Directors                                    OVER VOTES                                                                                   03 
02130084051000000   BCWCID Bexar WCID Directors                                    OVER VOTES                                                                                   03 
02130084107000000   BCWCID Bexar WCID Directors                                    OVER VOTES                                                                                   03 
02130084192000000   BCWCID Bexar WCID Directors                                    OVER VOTES                                                                                   03 
02130084195000000   BCWCID Bexar WCID Directors                                    OVER VOTES                                                                                   03 
02130094050000802   BCWCID Bexar WCID Directors                                    UNDER VOTES                                                                                  03 
02130094051001015   BCWCID Bexar WCID Directors                                    UNDER VOTES                                                                                  03 
02130094107000642   BCWCID Bexar WCID Directors                                    UNDER VOTES                                                                                  03 
02130094192000000   BCWCID Bexar WCID Directors                                    UNDER VOTES                                                                                  03 
02130094195000000   BCWCID Bexar WCID Directors                                    UNDER VOTES                                                                                  03 
