01010010001000167          REGISTERED VOTERS - TOTAL                               REGISTERED VOTERS - TOTAL             PRECINCT 1                                             00 
01010010002000275          REGISTERED VOTERS - TOTAL                               REGISTERED VOTERS - TOTAL             PRECINCT 2                                             00 
01010010003000258          REGISTERED VOTERS - TOTAL                               REGISTERED VOTERS - TOTAL             PRECINCT 3                                             00 
01010010004000292          REGISTERED VOTERS - TOTAL                               REGISTERED VOTERS - TOTAL             PRECINCT 4                                             00 
01010010005000088          REGISTERED VOTERS - TOTAL                               REGISTERED VOTERS - TOTAL             PRECINCT 6                                             00 
01020010001000084          BALLOTS CAST - TOTAL                                    BALLOTS CAST - TOTAL                  PRECINCT 1                                             00 
01020010002000160          BALLOTS CAST - TOTAL                                    BALLOTS CAST - TOTAL                  PRECINCT 2                                             00 
01020010003000150          BALLOTS CAST - TOTAL                                    BALLOTS CAST - TOTAL                  PRECINCT 3                                             00 
01020010004000201          BALLOTS CAST - TOTAL                                    BALLOTS CAST - TOTAL                  PRECINCT 4                                             00 
01020010005000037          BALLOTS CAST - TOTAL                                    BALLOTS CAST - TOTAL                  PRECINCT 6                                             00 
01030010001000044REP       Straight Party                                          Republican Party                      PRECINCT 1                                             01 
01030010002000081REP       Straight Party                                          Republican Party                      PRECINCT 2                                             01 
01030010003000076REP       Straight Party                                          Republican Party                      PRECINCT 3                                             01 
01030010004000113REP       Straight Party                                          Republican Party                      PRECINCT 4                                             01 
01030010005000014REP       Straight Party                                          Republican Party                      PRECINCT 6                                             01 
01030020001000006DEM       Straight Party                                          Democratic Party                      PRECINCT 1                                             01 
01030020002000014DEM       Straight Party                                          Democratic Party                      PRECINCT 2                                             01 
01030020003000003DEM       Straight Party                                          Democratic Party                      PRECINCT 3                                             01 
01030020004000008DEM       Straight Party                                          Democratic Party                      PRECINCT 4                                             01 
01030020005000004DEM       Straight Party                                          Democratic Party                      PRECINCT 6                                             01 
01030030001000000LIB       Straight Party                                          Libertarian Party                     PRECINCT 1                                             01 
01030030002000000LIB       Straight Party                                          Libertarian Party                     PRECINCT 2                                             01 
01030030003000001LIB       Straight Party                                          Libertarian Party                     PRECINCT 3                                             01 
01030030004000001LIB       Straight Party                                          Libertarian Party                     PRECINCT 4                                             01 
01030030005000000LIB       Straight Party                                          Libertarian Party                     PRECINCT 6                                             01 
01030040001000000          Straight Party                                          OVER VOTES                            PRECINCT 1                                             01 
01030040002000000          Straight Party                                          OVER VOTES                            PRECINCT 2                                             01 
01030040003000000          Straight Party                                          OVER VOTES                            PRECINCT 3                                             01 
01030040004000000          Straight Party                                          OVER VOTES                            PRECINCT 4                                             01 
01030040005000000          Straight Party                                          OVER VOTES                            PRECINCT 6                                             01 
01030050001000031          Straight Party                                          UNDER VOTES                           PRECINCT 1                                             01 
01030050002000061          Straight Party                                          UNDER VOTES                           PRECINCT 2                                             01 
01030050003000066          Straight Party                                          UNDER VOTES                           PRECINCT 3                                             01 
01030050004000073          Straight Party                                          UNDER VOTES                           PRECINCT 4                                             01 
01030050005000019          Straight Party                                          UNDER VOTES                           PRECINCT 6                                             01 
01040010001000075REP       United States Senator                                   Ted Cruz                              PRECINCT 1                                             01 
01040010002000142REP       United States Senator                                   Ted Cruz                              PRECINCT 2                                             01 
01040010003000136REP       United States Senator                                   Ted Cruz                              PRECINCT 3                                             01 
01040010004000174REP       United States Senator                                   Ted Cruz                              PRECINCT 4                                             01 
01040010005000026REP       United States Senator                                   Ted Cruz                              PRECINCT 6                                             01 
01040020001000008DEM       United States Senator                                   Beto O'Rourke                         PRECINCT 1                                             01 
01040020002000018DEM       United States Senator                                   Beto O'Rourke                         PRECINCT 2                                             01 
01040020003000012DEM       United States Senator                                   Beto O'Rourke                         PRECINCT 3                                             01 
01040020004000023DEM       United States Senator                                   Beto O'Rourke                         PRECINCT 4                                             01 
01040020005000008DEM       United States Senator                                   Beto O'Rourke                         PRECINCT 6                                             01 
01040030001000000LIB       United States Senator                                   Neal M. Dikeman                       PRECINCT 1                                             01 
01040030002000000LIB       United States Senator                                   Neal M. Dikeman                       PRECINCT 2                                             01 
01040030003000001LIB       United States Senator                                   Neal M. Dikeman                       PRECINCT 3                                             01 
01040030004000001LIB       United States Senator                                   Neal M. Dikeman                       PRECINCT 4                                             01 
01040030005000000LIB       United States Senator                                   Neal M. Dikeman                       PRECINCT 6                                             01 
01040040001000000          United States Senator                                   OVER VOTES                            PRECINCT 1                                             01 
01040040002000000          United States Senator                                   OVER VOTES                            PRECINCT 2                                             01 
01040040003000000          United States Senator                                   OVER VOTES                            PRECINCT 3                                             01 
01040040004000000          United States Senator                                   OVER VOTES                            PRECINCT 4                                             01 
01040040005000000          United States Senator                                   OVER VOTES                            PRECINCT 6                                             01 
01040050001000001          United States Senator                                   UNDER VOTES                           PRECINCT 1                                             01 
01040050002000000          United States Senator                                   UNDER VOTES                           PRECINCT 2                                             01 
01040050003000001          United States Senator                                   UNDER VOTES                           PRECINCT 3                                             01 
01040050004000003          United States Senator                                   UNDER VOTES                           PRECINCT 4                                             01 
01040050005000003          United States Senator                                   UNDER VOTES                           PRECINCT 6                                             01 
01050010001000075REP       United States Representative, Dist 13                   Mac Thornberry                        PRECINCT 1                                             01 
01050010002000142REP       United States Representative, Dist 13                   Mac Thornberry                        PRECINCT 2                                             01 
01050010003000135REP       United States Representative, Dist 13                   Mac Thornberry                        PRECINCT 3                                             01 
01050010004000176REP       United States Representative, Dist 13                   Mac Thornberry                        PRECINCT 4                                             01 
01050010005000030REP       United States Representative, Dist 13                   Mac Thornberry                        PRECINCT 6                                             01 
01050020001000007DEM       United States Representative, Dist 13                   Greg Sagan                            PRECINCT 1                                             01 
01050020002000017DEM       United States Representative, Dist 13                   Greg Sagan                            PRECINCT 2                                             01 
01050020003000009DEM       United States Representative, Dist 13                   Greg Sagan                            PRECINCT 3                                             01 
01050020004000017DEM       United States Representative, Dist 13                   Greg Sagan                            PRECINCT 4                                             01 
01050020005000007DEM       United States Representative, Dist 13                   Greg Sagan                            PRECINCT 6                                             01 
01050030001000000LIB       United States Representative, Dist 13                   Calvin DeWeese                        PRECINCT 1                                             01 
01050030002000001LIB       United States Representative, Dist 13                   Calvin DeWeese                        PRECINCT 2                                             01 
01050030003000004LIB       United States Representative, Dist 13                   Calvin DeWeese                        PRECINCT 3                                             01 
01050030004000002LIB       United States Representative, Dist 13                   Calvin DeWeese                        PRECINCT 4                                             01 
01050030005000000LIB       United States Representative, Dist 13                   Calvin DeWeese                        PRECINCT 6                                             01 
01050040001000000          United States Representative, Dist 13                   OVER VOTES                            PRECINCT 1                                             01 
01050040002000000          United States Representative, Dist 13                   OVER VOTES                            PRECINCT 2                                             01 
01050040003000000          United States Representative, Dist 13                   OVER VOTES                            PRECINCT 3                                             01 
01050040004000000          United States Representative, Dist 13                   OVER VOTES                            PRECINCT 4                                             01 
01050040005000000          United States Representative, Dist 13                   OVER VOTES                            PRECINCT 6                                             01 
01050050001000002          United States Representative, Dist 13                   UNDER VOTES                           PRECINCT 1                                             01 
01050050002000000          United States Representative, Dist 13                   UNDER VOTES                           PRECINCT 2                                             01 
01050050003000002          United States Representative, Dist 13                   UNDER VOTES                           PRECINCT 3                                             01 
01050050004000006          United States Representative, Dist 13                   UNDER VOTES                           PRECINCT 4                                             01 
01050050005000000          United States Representative, Dist 13                   UNDER VOTES                           PRECINCT 6                                             01 
01060010001000075REP       Governor                                                Greg Abbott                           PRECINCT 1                                             01 
01060010002000142REP       Governor                                                Greg Abbott                           PRECINCT 2                                             01 
01060010003000134REP       Governor                                                Greg Abbott                           PRECINCT 3                                             01 
01060010004000174REP       Governor                                                Greg Abbott                           PRECINCT 4                                             01 
01060010005000031REP       Governor                                                Greg Abbott                           PRECINCT 6                                             01 
01060020001000008DEM       Governor                                                Lupe Valdez                           PRECINCT 1                                             01 
01060020002000017DEM       Governor                                                Lupe Valdez                           PRECINCT 2                                             01 
01060020003000010DEM       Governor                                                Lupe Valdez                           PRECINCT 3                                             01 
01060020004000017DEM       Governor                                                Lupe Valdez                           PRECINCT 4                                             01 
01060020005000006DEM       Governor                                                Lupe Valdez                           PRECINCT 6                                             01 
01060030001000000LIB       Governor                                                Mark Jay Tippetts                     PRECINCT 1                                             01 
01060030002000001LIB       Governor                                                Mark Jay Tippetts                     PRECINCT 2                                             01 
01060030003000003LIB       Governor                                                Mark Jay Tippetts                     PRECINCT 3                                             01 
01060030004000005LIB       Governor                                                Mark Jay Tippetts                     PRECINCT 4                                             01 
01060030005000000LIB       Governor                                                Mark Jay Tippetts                     PRECINCT 6                                             01 
01060040001000000          Governor                                                OVER VOTES                            PRECINCT 1                                             01 
01060040002000000          Governor                                                OVER VOTES                            PRECINCT 2                                             01 
01060040003000000          Governor                                                OVER VOTES                            PRECINCT 3                                             01 
01060040004000000          Governor                                                OVER VOTES                            PRECINCT 4                                             01 
01060040005000000          Governor                                                OVER VOTES                            PRECINCT 6                                             01 
01060050001000001          Governor                                                UNDER VOTES                           PRECINCT 1                                             01 
01060050002000000          Governor                                                UNDER VOTES                           PRECINCT 2                                             01 
01060050003000003          Governor                                                UNDER VOTES                           PRECINCT 3                                             01 
01060050004000005          Governor                                                UNDER VOTES                           PRECINCT 4                                             01 
01060050005000000          Governor                                                UNDER VOTES                           PRECINCT 6                                             01 
01070010001000073REP       Lieutenant Governor                                     Dan Patrick                           PRECINCT 1                                             01 
01070010002000130REP       Lieutenant Governor                                     Dan Patrick                           PRECINCT 2                                             01 
01070010003000126REP       Lieutenant Governor                                     Dan Patrick                           PRECINCT 3                                             01 
01070010004000161REP       Lieutenant Governor                                     Dan Patrick                           PRECINCT 4                                             01 
01070010005000028REP       Lieutenant Governor                                     Dan Patrick                           PRECINCT 6                                             01 
01070020001000009DEM       Lieutenant Governor                                     Mike Collier                          PRECINCT 1                                             01 
01070020002000024DEM       Lieutenant Governor                                     Mike Collier                          PRECINCT 2                                             01 
01070020003000016DEM       Lieutenant Governor                                     Mike Collier                          PRECINCT 3                                             01 
01070020004000028DEM       Lieutenant Governor                                     Mike Collier                          PRECINCT 4                                             01 
01070020005000009DEM       Lieutenant Governor                                     Mike Collier                          PRECINCT 6                                             01 
01070030001000000LIB       Lieutenant Governor                                     Kerry Douglas McKennon                PRECINCT 1                                             01 
01070030002000004LIB       Lieutenant Governor                                     Kerry Douglas McKennon                PRECINCT 2                                             01 
01070030003000006LIB       Lieutenant Governor                                     Kerry Douglas McKennon                PRECINCT 3                                             01 
01070030004000005LIB       Lieutenant Governor                                     Kerry Douglas McKennon                PRECINCT 4                                             01 
01070030005000000LIB       Lieutenant Governor                                     Kerry Douglas McKennon                PRECINCT 6                                             01 
01070040001000000          Lieutenant Governor                                     OVER VOTES                            PRECINCT 1                                             01 
01070040002000000          Lieutenant Governor                                     OVER VOTES                            PRECINCT 2                                             01 
01070040003000000          Lieutenant Governor                                     OVER VOTES                            PRECINCT 3                                             01 
01070040004000000          Lieutenant Governor                                     OVER VOTES                            PRECINCT 4                                             01 
01070040005000000          Lieutenant Governor                                     OVER VOTES                            PRECINCT 6                                             01 
01070050001000002          Lieutenant Governor                                     UNDER VOTES                           PRECINCT 1                                             01 
01070050002000002          Lieutenant Governor                                     UNDER VOTES                           PRECINCT 2                                             01 
01070050003000002          Lieutenant Governor                                     UNDER VOTES                           PRECINCT 3                                             01 
01070050004000007          Lieutenant Governor                                     UNDER VOTES                           PRECINCT 4                                             01 
01070050005000000          Lieutenant Governor                                     UNDER VOTES                           PRECINCT 6                                             01 
01080010001000073REP       Attorney General                                        Ken Paxton                            PRECINCT 1                                             01 
01080010002000141REP       Attorney General                                        Ken Paxton                            PRECINCT 2                                             01 
01080010003000130REP       Attorney General                                        Ken Paxton                            PRECINCT 3                                             01 
01080010004000164REP       Attorney General                                        Ken Paxton                            PRECINCT 4                                             01 
01080010005000030REP       Attorney General                                        Ken Paxton                            PRECINCT 6                                             01 
01080020001000009DEM       Attorney General                                        Justin Nelson                         PRECINCT 1                                             01 
01080020002000017DEM       Attorney General                                        Justin Nelson                         PRECINCT 2                                             01 
01080020003000012DEM       Attorney General                                        Justin Nelson                         PRECINCT 3                                             01 
01080020004000026DEM       Attorney General                                        Justin Nelson                         PRECINCT 4                                             01 
01080020005000006DEM       Attorney General                                        Justin Nelson                         PRECINCT 6                                             01 
01080030001000000LIB       Attorney General                                        Michael Ray Harris                    PRECINCT 1                                             01 
01080030002000001LIB       Attorney General                                        Michael Ray Harris                    PRECINCT 2                                             01 
01080030003000005LIB       Attorney General                                        Michael Ray Harris                    PRECINCT 3                                             01 
01080030004000004LIB       Attorney General                                        Michael Ray Harris                    PRECINCT 4                                             01 
01080030005000000LIB       Attorney General                                        Michael Ray Harris                    PRECINCT 6                                             01 
01080040001000000          Attorney General                                        OVER VOTES                            PRECINCT 1                                             01 
01080040002000000          Attorney General                                        OVER VOTES                            PRECINCT 2                                             01 
01080040003000000          Attorney General                                        OVER VOTES                            PRECINCT 3                                             01 
01080040004000000          Attorney General                                        OVER VOTES                            PRECINCT 4                                             01 
01080040005000000          Attorney General                                        OVER VOTES                            PRECINCT 6                                             01 
01080050001000002          Attorney General                                        UNDER VOTES                           PRECINCT 1                                             01 
01080050002000001          Attorney General                                        UNDER VOTES                           PRECINCT 2                                             01 
01080050003000003          Attorney General                                        UNDER VOTES                           PRECINCT 3                                             01 
01080050004000007          Attorney General                                        UNDER VOTES                           PRECINCT 4                                             01 
01080050005000001          Attorney General                                        UNDER VOTES                           PRECINCT 6                                             01 
01090010001000071REP       Comptroller of Public Accounts                          Glenn Hegar                           PRECINCT 1                                             01 
01090010002000141REP       Comptroller of Public Accounts                          Glenn Hegar                           PRECINCT 2                                             01 
01090010003000129REP       Comptroller of Public Accounts                          Glenn Hegar                           PRECINCT 3                                             01 
01090010004000170REP       Comptroller of Public Accounts                          Glenn Hegar                           PRECINCT 4                                             01 
01090010005000030REP       Comptroller of Public Accounts                          Glenn Hegar                           PRECINCT 6                                             01 
01090020001000008DEM       Comptroller of Public Accounts                          Joi Chevalier                         PRECINCT 1                                             01 
01090020002000018DEM       Comptroller of Public Accounts                          Joi Chevalier                         PRECINCT 2                                             01 
01090020003000009DEM       Comptroller of Public Accounts                          Joi Chevalier                         PRECINCT 3                                             01 
01090020004000019DEM       Comptroller of Public Accounts                          Joi Chevalier                         PRECINCT 4                                             01 
01090020005000005DEM       Comptroller of Public Accounts                          Joi Chevalier                         PRECINCT 6                                             01 
01090030001000000LIB       Comptroller of Public Accounts                          Ben Sanders                           PRECINCT 1                                             01 
01090030002000001LIB       Comptroller of Public Accounts                          Ben Sanders                           PRECINCT 2                                             01 
01090030003000003LIB       Comptroller of Public Accounts                          Ben Sanders                           PRECINCT 3                                             01 
01090030004000003LIB       Comptroller of Public Accounts                          Ben Sanders                           PRECINCT 4                                             01 
01090030005000000LIB       Comptroller of Public Accounts                          Ben Sanders                           PRECINCT 6                                             01 
01090040001000000          Comptroller of Public Accounts                          OVER VOTES                            PRECINCT 1                                             01 
01090040002000000          Comptroller of Public Accounts                          OVER VOTES                            PRECINCT 2                                             01 
01090040003000000          Comptroller of Public Accounts                          OVER VOTES                            PRECINCT 3                                             01 
01090040004000000          Comptroller of Public Accounts                          OVER VOTES                            PRECINCT 4                                             01 
01090040005000000          Comptroller of Public Accounts                          OVER VOTES                            PRECINCT 6                                             01 
01090050001000005          Comptroller of Public Accounts                          UNDER VOTES                           PRECINCT 1                                             01 
01090050002000000          Comptroller of Public Accounts                          UNDER VOTES                           PRECINCT 2                                             01 
01090050003000009          Comptroller of Public Accounts                          UNDER VOTES                           PRECINCT 3                                             01 
01090050004000008          Comptroller of Public Accounts                          UNDER VOTES                           PRECINCT 4                                             01 
01090050005000002          Comptroller of Public Accounts                          UNDER VOTES                           PRECINCT 6                                             01 
01100010001000066REP       Commissioner of the General Land Office                 George P. Bush                        PRECINCT 1                                             01 
01100010002000135REP       Commissioner of the General Land Office                 George P. Bush                        PRECINCT 2                                             01 
01100010003000123REP       Commissioner of the General Land Office                 George P. Bush                        PRECINCT 3                                             01 
01100010004000164REP       Commissioner of the General Land Office                 George P. Bush                        PRECINCT 4                                             01 
01100010005000028REP       Commissioner of the General Land Office                 George P. Bush                        PRECINCT 6                                             01 
01100020001000010DEM       Commissioner of the General Land Office                 Miguel Suazo                          PRECINCT 1                                             01 
01100020002000020DEM       Commissioner of the General Land Office                 Miguel Suazo                          PRECINCT 2                                             01 
01100020003000011DEM       Commissioner of the General Land Office                 Miguel Suazo                          PRECINCT 3                                             01 
01100020004000022DEM       Commissioner of the General Land Office                 Miguel Suazo                          PRECINCT 4                                             01 
01100020005000006DEM       Commissioner of the General Land Office                 Miguel Suazo                          PRECINCT 6                                             01 
01100030001000003LIB       Commissioner of the General Land Office                 Matt Pina                             PRECINCT 1                                             01 
01100030002000004LIB       Commissioner of the General Land Office                 Matt Pina                             PRECINCT 2                                             01 
01100030003000011LIB       Commissioner of the General Land Office                 Matt Pina                             PRECINCT 3                                             01 
01100030004000004LIB       Commissioner of the General Land Office                 Matt Pina                             PRECINCT 4                                             01 
01100030005000001LIB       Commissioner of the General Land Office                 Matt Pina                             PRECINCT 6                                             01 
01100040001000000          Commissioner of the General Land Office                 OVER VOTES                            PRECINCT 1                                             01 
01100040002000000          Commissioner of the General Land Office                 OVER VOTES                            PRECINCT 2                                             01 
01100040003000000          Commissioner of the General Land Office                 OVER VOTES                            PRECINCT 3                                             01 
01100040004000000          Commissioner of the General Land Office                 OVER VOTES                            PRECINCT 4                                             01 
01100040005000000          Commissioner of the General Land Office                 OVER VOTES                            PRECINCT 6                                             01 
01100050001000004          Commissioner of the General Land Office                 UNDER VOTES                           PRECINCT 1                                             01 
01100050002000001          Commissioner of the General Land Office                 UNDER VOTES                           PRECINCT 2                                             01 
01100050003000005          Commissioner of the General Land Office                 UNDER VOTES                           PRECINCT 3                                             01 
01100050004000011          Commissioner of the General Land Office                 UNDER VOTES                           PRECINCT 4                                             01 
01100050005000002          Commissioner of the General Land Office                 UNDER VOTES                           PRECINCT 6                                             01 
01110010001000073REP       Commissioner of Agriculture                             Sid Miller                            PRECINCT 1                                             01 
01110010002000138REP       Commissioner of Agriculture                             Sid Miller                            PRECINCT 2                                             01 
01110010003000130REP       Commissioner of Agriculture                             Sid Miller                            PRECINCT 3                                             01 
01110010004000164REP       Commissioner of Agriculture                             Sid Miller                            PRECINCT 4                                             01 
01110010005000029REP       Commissioner of Agriculture                             Sid Miller                            PRECINCT 6                                             01 
01110020001000008DEM       Commissioner of Agriculture                             Kim Olson                             PRECINCT 1                                             01 
01110020002000021DEM       Commissioner of Agriculture                             Kim Olson                             PRECINCT 2                                             01 
01110020003000011DEM       Commissioner of Agriculture                             Kim Olson                             PRECINCT 3                                             01 
01110020004000024DEM       Commissioner of Agriculture                             Kim Olson                             PRECINCT 4                                             01 
01110020005000008DEM       Commissioner of Agriculture                             Kim Olson                             PRECINCT 6                                             01 
01110030001000000LIB       Commissioner of Agriculture                             Richard Carpenter                     PRECINCT 1                                             01 
01110030002000001LIB       Commissioner of Agriculture                             Richard Carpenter                     PRECINCT 2                                             01 
01110030003000005LIB       Commissioner of Agriculture                             Richard Carpenter                     PRECINCT 3                                             01 
01110030004000004LIB       Commissioner of Agriculture                             Richard Carpenter                     PRECINCT 4                                             01 
01110030005000000LIB       Commissioner of Agriculture                             Richard Carpenter                     PRECINCT 6                                             01 
01110040001000000          Commissioner of Agriculture                             OVER VOTES                            PRECINCT 1                                             01 
01110040002000000          Commissioner of Agriculture                             OVER VOTES                            PRECINCT 2                                             01 
01110040003000000          Commissioner of Agriculture                             OVER VOTES                            PRECINCT 3                                             01 
01110040004000000          Commissioner of Agriculture                             OVER VOTES                            PRECINCT 4                                             01 
01110040005000000          Commissioner of Agriculture                             OVER VOTES                            PRECINCT 6                                             01 
01110050001000003          Commissioner of Agriculture                             UNDER VOTES                           PRECINCT 1                                             01 
01110050002000000          Commissioner of Agriculture                             UNDER VOTES                           PRECINCT 2                                             01 
01110050003000004          Commissioner of Agriculture                             UNDER VOTES                           PRECINCT 3                                             01 
01110050004000008          Commissioner of Agriculture                             UNDER VOTES                           PRECINCT 4                                             01 
01110050005000000          Commissioner of Agriculture                             UNDER VOTES                           PRECINCT 6                                             01 
01120010001000073REP       Railroad Commissioner                                   Christi Craddick                      PRECINCT 1                                             01 
01120010002000141REP       Railroad Commissioner                                   Christi Craddick                      PRECINCT 2                                             01 
01120010003000130REP       Railroad Commissioner                                   Christi Craddick                      PRECINCT 3                                             01 
01120010004000171REP       Railroad Commissioner                                   Christi Craddick                      PRECINCT 4                                             01 
01120010005000031REP       Railroad Commissioner                                   Christi Craddick                      PRECINCT 6                                             01 
01120020001000008DEM       Railroad Commissioner                                   Roman McAllen                         PRECINCT 1                                             01 
01120020002000019DEM       Railroad Commissioner                                   Roman McAllen                         PRECINCT 2                                             01 
01120020003000011DEM       Railroad Commissioner                                   Roman McAllen                         PRECINCT 3                                             01 
01120020004000018DEM       Railroad Commissioner                                   Roman McAllen                         PRECINCT 4                                             01 
01120020005000006DEM       Railroad Commissioner                                   Roman McAllen                         PRECINCT 6                                             01 
01120030001000001LIB       Railroad Commissioner                                   Mike Wright                           PRECINCT 1                                             01 
01120030002000000LIB       Railroad Commissioner                                   Mike Wright                           PRECINCT 2                                             01 
01120030003000002LIB       Railroad Commissioner                                   Mike Wright                           PRECINCT 3                                             01 
01120030004000004LIB       Railroad Commissioner                                   Mike Wright                           PRECINCT 4                                             01 
01120030005000000LIB       Railroad Commissioner                                   Mike Wright                           PRECINCT 6                                             01 
01120040001000000          Railroad Commissioner                                   OVER VOTES                            PRECINCT 1                                             01 
01120040002000000          Railroad Commissioner                                   OVER VOTES                            PRECINCT 2                                             01 
01120040003000000          Railroad Commissioner                                   OVER VOTES                            PRECINCT 3                                             01 
01120040004000000          Railroad Commissioner                                   OVER VOTES                            PRECINCT 4                                             01 
01120040005000000          Railroad Commissioner                                   OVER VOTES                            PRECINCT 6                                             01 
01120050001000002          Railroad Commissioner                                   UNDER VOTES                           PRECINCT 1                                             01 
01120050002000000          Railroad Commissioner                                   UNDER VOTES                           PRECINCT 2                                             01 
01120050003000007          Railroad Commissioner                                   UNDER VOTES                           PRECINCT 3                                             01 
01120050004000007          Railroad Commissioner                                   UNDER VOTES                           PRECINCT 4                                             01 
01120050005000000          Railroad Commissioner                                   UNDER VOTES                           PRECINCT 6                                             01 
01130010001000071REP       Justice, Supreme Court, Place 2                         Jimmy Blacklock                       PRECINCT 1                                             01 
01130010002000141REP       Justice, Supreme Court, Place 2                         Jimmy Blacklock                       PRECINCT 2                                             01 
01130010003000133REP       Justice, Supreme Court, Place 2                         Jimmy Blacklock                       PRECINCT 3                                             01 
01130010004000173REP       Justice, Supreme Court, Place 2                         Jimmy Blacklock                       PRECINCT 4                                             01 
01130010005000029REP       Justice, Supreme Court, Place 2                         Jimmy Blacklock                       PRECINCT 6                                             01 
01130020001000008DEM       Justice, Supreme Court, Place 2                         Steven Kirkland                       PRECINCT 1                                             01 
01130020002000019DEM       Justice, Supreme Court, Place 2                         Steven Kirkland                       PRECINCT 2                                             01 
01130020003000012DEM       Justice, Supreme Court, Place 2                         Steven Kirkland                       PRECINCT 3                                             01 
01130020004000018DEM       Justice, Supreme Court, Place 2                         Steven Kirkland                       PRECINCT 4                                             01 
01130020005000006DEM       Justice, Supreme Court, Place 2                         Steven Kirkland                       PRECINCT 6                                             01 
01130030001000000          Justice, Supreme Court, Place 2                         OVER VOTES                            PRECINCT 1                                             01 
01130030002000000          Justice, Supreme Court, Place 2                         OVER VOTES                            PRECINCT 2                                             01 
01130030003000000          Justice, Supreme Court, Place 2                         OVER VOTES                            PRECINCT 3                                             01 
01130030004000000          Justice, Supreme Court, Place 2                         OVER VOTES                            PRECINCT 4                                             01 
01130030005000000          Justice, Supreme Court, Place 2                         OVER VOTES                            PRECINCT 6                                             01 
01130040001000005          Justice, Supreme Court, Place 2                         UNDER VOTES                           PRECINCT 1                                             01 
01130040002000000          Justice, Supreme Court, Place 2                         UNDER VOTES                           PRECINCT 2                                             01 
01130040003000005          Justice, Supreme Court, Place 2                         UNDER VOTES                           PRECINCT 3                                             01 
01130040004000009          Justice, Supreme Court, Place 2                         UNDER VOTES                           PRECINCT 4                                             01 
01130040005000002          Justice, Supreme Court, Place 2                         UNDER VOTES                           PRECINCT 6                                             01 
01140010001000071REP       Justice, Supreme Court, Place 4                         John Devine                           PRECINCT 1                                             01 
01140010002000143REP       Justice, Supreme Court, Place 4                         John Devine                           PRECINCT 2                                             01 
01140010003000134REP       Justice, Supreme Court, Place 4                         John Devine                           PRECINCT 3                                             01 
01140010004000170REP       Justice, Supreme Court, Place 4                         John Devine                           PRECINCT 4                                             01 
01140010005000029REP       Justice, Supreme Court, Place 4                         John Devine                           PRECINCT 6                                             01 
01140020001000008DEM       Justice, Supreme Court, Place 4                         R.K. Sandill                          PRECINCT 1                                             01 
01140020002000017DEM       Justice, Supreme Court, Place 4                         R.K. Sandill                          PRECINCT 2                                             01 
01140020003000010DEM       Justice, Supreme Court, Place 4                         R.K. Sandill                          PRECINCT 3                                             01 
01140020004000021DEM       Justice, Supreme Court, Place 4                         R.K. Sandill                          PRECINCT 4                                             01 
01140020005000006DEM       Justice, Supreme Court, Place 4                         R.K. Sandill                          PRECINCT 6                                             01 
01140030001000000          Justice, Supreme Court, Place 4                         OVER VOTES                            PRECINCT 1                                             01 
01140030002000000          Justice, Supreme Court, Place 4                         OVER VOTES                            PRECINCT 2                                             01 
01140030003000000          Justice, Supreme Court, Place 4                         OVER VOTES                            PRECINCT 3                                             01 
01140030004000000          Justice, Supreme Court, Place 4                         OVER VOTES                            PRECINCT 4                                             01 
01140030005000000          Justice, Supreme Court, Place 4                         OVER VOTES                            PRECINCT 6                                             01 
01140040001000005          Justice, Supreme Court, Place 4                         UNDER VOTES                           PRECINCT 1                                             01 
01140040002000000          Justice, Supreme Court, Place 4                         UNDER VOTES                           PRECINCT 2                                             01 
01140040003000006          Justice, Supreme Court, Place 4                         UNDER VOTES                           PRECINCT 3                                             01 
01140040004000009          Justice, Supreme Court, Place 4                         UNDER VOTES                           PRECINCT 4                                             01 
01140040005000002          Justice, Supreme Court, Place 4                         UNDER VOTES                           PRECINCT 6                                             01 
01150010001000070REP       Justice, Supreme Court, Place 6                         Jeff Brown                            PRECINCT 1                                             01 
01150010002000144REP       Justice, Supreme Court, Place 6                         Jeff Brown                            PRECINCT 2                                             01 
01150010003000132REP       Justice, Supreme Court, Place 6                         Jeff Brown                            PRECINCT 3                                             01 
01150010004000169REP       Justice, Supreme Court, Place 6                         Jeff Brown                            PRECINCT 4                                             01 
01150010005000029REP       Justice, Supreme Court, Place 6                         Jeff Brown                            PRECINCT 6                                             01 
01150020001000008DEM       Justice, Supreme Court, Place 6                         Kathy Cheng                           PRECINCT 1                                             01 
01150020002000016DEM       Justice, Supreme Court, Place 6                         Kathy Cheng                           PRECINCT 2                                             01 
01150020003000011DEM       Justice, Supreme Court, Place 6                         Kathy Cheng                           PRECINCT 3                                             01 
01150020004000022DEM       Justice, Supreme Court, Place 6                         Kathy Cheng                           PRECINCT 4                                             01 
01150020005000006DEM       Justice, Supreme Court, Place 6                         Kathy Cheng                           PRECINCT 6                                             01 
01150030001000000          Justice, Supreme Court, Place 6                         OVER VOTES                            PRECINCT 1                                             01 
01150030002000000          Justice, Supreme Court, Place 6                         OVER VOTES                            PRECINCT 2                                             01 
01150030003000000          Justice, Supreme Court, Place 6                         OVER VOTES                            PRECINCT 3                                             01 
01150030004000000          Justice, Supreme Court, Place 6                         OVER VOTES                            PRECINCT 4                                             01 
01150030005000000          Justice, Supreme Court, Place 6                         OVER VOTES                            PRECINCT 6                                             01 
01150040001000006          Justice, Supreme Court, Place 6                         UNDER VOTES                           PRECINCT 1                                             01 
01150040002000000          Justice, Supreme Court, Place 6                         UNDER VOTES                           PRECINCT 2                                             01 
01150040003000006          Justice, Supreme Court, Place 6                         UNDER VOTES                           PRECINCT 3                                             01 
01150040004000009          Justice, Supreme Court, Place 6                         UNDER VOTES                           PRECINCT 4                                             01 
01150040005000002          Justice, Supreme Court, Place 6                         UNDER VOTES                           PRECINCT 6                                             01 
01160010001000070REP       Presiding Judge, Court of Crim Appeals                  Sharon Keller                         PRECINCT 1                                             01 
01160010002000142REP       Presiding Judge, Court of Crim Appeals                  Sharon Keller                         PRECINCT 2                                             01 
01160010003000127REP       Presiding Judge, Court of Crim Appeals                  Sharon Keller                         PRECINCT 3                                             01 
01160010004000169REP       Presiding Judge, Court of Crim Appeals                  Sharon Keller                         PRECINCT 4                                             01 
01160010005000029REP       Presiding Judge, Court of Crim Appeals                  Sharon Keller                         PRECINCT 6                                             01 
01160020001000008DEM       Presiding Judge, Court of Crim Appeals                  Maria T. (Terri) Jackson              PRECINCT 1                                             01 
01160020002000018DEM       Presiding Judge, Court of Crim Appeals                  Maria T. (Terri) Jackson              PRECINCT 2                                             01 
01160020003000010DEM       Presiding Judge, Court of Crim Appeals                  Maria T. (Terri) Jackson              PRECINCT 3                                             01 
01160020004000021DEM       Presiding Judge, Court of Crim Appeals                  Maria T. (Terri) Jackson              PRECINCT 4                                             01 
01160020005000007DEM       Presiding Judge, Court of Crim Appeals                  Maria T. (Terri) Jackson              PRECINCT 6                                             01 
01160030001000001LIB       Presiding Judge, Court of Crim Appeals                  William Bryan Strange III             PRECINCT 1                                             01 
01160030002000000LIB       Presiding Judge, Court of Crim Appeals                  William Bryan Strange III             PRECINCT 2                                             01 
01160030003000006LIB       Presiding Judge, Court of Crim Appeals                  William Bryan Strange III             PRECINCT 3                                             01 
01160030004000003LIB       Presiding Judge, Court of Crim Appeals                  William Bryan Strange III             PRECINCT 4                                             01 
01160030005000000LIB       Presiding Judge, Court of Crim Appeals                  William Bryan Strange III             PRECINCT 6                                             01 
01160040001000000          Presiding Judge, Court of Crim Appeals                  OVER VOTES                            PRECINCT 1                                             01 
01160040002000000          Presiding Judge, Court of Crim Appeals                  OVER VOTES                            PRECINCT 2                                             01 
01160040003000000          Presiding Judge, Court of Crim Appeals                  OVER VOTES                            PRECINCT 3                                             01 
01160040004000000          Presiding Judge, Court of Crim Appeals                  OVER VOTES                            PRECINCT 4                                             01 
01160040005000000          Presiding Judge, Court of Crim Appeals                  OVER VOTES                            PRECINCT 6                                             01 
01160050001000005          Presiding Judge, Court of Crim Appeals                  UNDER VOTES                           PRECINCT 1                                             01 
01160050002000000          Presiding Judge, Court of Crim Appeals                  UNDER VOTES                           PRECINCT 2                                             01 
01160050003000007          Presiding Judge, Court of Crim Appeals                  UNDER VOTES                           PRECINCT 3                                             01 
01160050004000007          Presiding Judge, Court of Crim Appeals                  UNDER VOTES                           PRECINCT 4                                             01 
01160050005000001          Presiding Judge, Court of Crim Appeals                  UNDER VOTES                           PRECINCT 6                                             01 
01170010001000069REP       Judge, CT of Criminal AP, P7                            Barbara Parker Hervey                 PRECINCT 1                                             01 
01170010002000142REP       Judge, CT of Criminal AP, P7                            Barbara Parker Hervey                 PRECINCT 2                                             01 
01170010003000131REP       Judge, CT of Criminal AP, P7                            Barbara Parker Hervey                 PRECINCT 3                                             01 
01170010004000170REP       Judge, CT of Criminal AP, P7                            Barbara Parker Hervey                 PRECINCT 4                                             01 
01170010005000028REP       Judge, CT of Criminal AP, P7                            Barbara Parker Hervey                 PRECINCT 6                                             01 
01170020001000009DEM       Judge, CT of Criminal AP, P7                            Ramona Franklin                       PRECINCT 1                                             01 
01170020002000018DEM       Judge, CT of Criminal AP, P7                            Ramona Franklin                       PRECINCT 2                                             01 
01170020003000012DEM       Judge, CT of Criminal AP, P7                            Ramona Franklin                       PRECINCT 3                                             01 
01170020004000022DEM       Judge, CT of Criminal AP, P7                            Ramona Franklin                       PRECINCT 4                                             01 
01170020005000007DEM       Judge, CT of Criminal AP, P7                            Ramona Franklin                       PRECINCT 6                                             01 
01170030001000000          Judge, CT of Criminal AP, P7                            OVER VOTES                            PRECINCT 1                                             01 
01170030002000000          Judge, CT of Criminal AP, P7                            OVER VOTES                            PRECINCT 2                                             01 
01170030003000000          Judge, CT of Criminal AP, P7                            OVER VOTES                            PRECINCT 3                                             01 
01170030004000000          Judge, CT of Criminal AP, P7                            OVER VOTES                            PRECINCT 4                                             01 
01170030005000000          Judge, CT of Criminal AP, P7                            OVER VOTES                            PRECINCT 6                                             01 
01170040001000006          Judge, CT of Criminal AP, P7                            UNDER VOTES                           PRECINCT 1                                             01 
01170040002000000          Judge, CT of Criminal AP, P7                            UNDER VOTES                           PRECINCT 2                                             01 
01170040003000007          Judge, CT of Criminal AP, P7                            UNDER VOTES                           PRECINCT 3                                             01 
01170040004000008          Judge, CT of Criminal AP, P7                            UNDER VOTES                           PRECINCT 4                                             01 
01170040005000002          Judge, CT of Criminal AP, P7                            UNDER VOTES                           PRECINCT 6                                             01 
01180010001000070REP       Judge, CT of Criminal AP, P8                            Michelle Slaughter                    PRECINCT 1                                             01 
01180010002000142REP       Judge, CT of Criminal AP, P8                            Michelle Slaughter                    PRECINCT 2                                             01 
01180010003000131REP       Judge, CT of Criminal AP, P8                            Michelle Slaughter                    PRECINCT 3                                             01 
01180010004000176REP       Judge, CT of Criminal AP, P8                            Michelle Slaughter                    PRECINCT 4                                             01 
01180010005000029REP       Judge, CT of Criminal AP, P8                            Michelle Slaughter                    PRECINCT 6                                             01 
01180020001000005LIB       Judge, CT of Criminal AP, P8                            Mark Ash                              PRECINCT 1                                             01 
01180020002000008LIB       Judge, CT of Criminal AP, P8                            Mark Ash                              PRECINCT 2                                             01 
01180020003000009LIB       Judge, CT of Criminal AP, P8                            Mark Ash                              PRECINCT 3                                             01 
01180020004000013LIB       Judge, CT of Criminal AP, P8                            Mark Ash                              PRECINCT 4                                             01 
01180020005000002LIB       Judge, CT of Criminal AP, P8                            Mark Ash                              PRECINCT 6                                             01 
01180030001000000          Judge, CT of Criminal AP, P8                            OVER VOTES                            PRECINCT 1                                             01 
01180030002000000          Judge, CT of Criminal AP, P8                            OVER VOTES                            PRECINCT 2                                             01 
01180030003000000          Judge, CT of Criminal AP, P8                            OVER VOTES                            PRECINCT 3                                             01 
01180030004000000          Judge, CT of Criminal AP, P8                            OVER VOTES                            PRECINCT 4                                             01 
01180030005000000          Judge, CT of Criminal AP, P8                            OVER VOTES                            PRECINCT 6                                             01 
01180040001000009          Judge, CT of Criminal AP, P8                            UNDER VOTES                           PRECINCT 1                                             01 
01180040002000008          Judge, CT of Criminal AP, P8                            UNDER VOTES                           PRECINCT 2                                             01 
01180040003000009          Judge, CT of Criminal AP, P8                            UNDER VOTES                           PRECINCT 3                                             01 
01180040004000011          Judge, CT of Criminal AP, P8                            UNDER VOTES                           PRECINCT 4                                             01 
01180040005000004          Judge, CT of Criminal AP, P8                            UNDER VOTES                           PRECINCT 6                                             01 
01190010001000075REP       State Senator, District 31                              Kel Seliger                           PRECINCT 1                                             01 
01190010002000141REP       State Senator, District 31                              Kel Seliger                           PRECINCT 2                                             01 
01190010003000136REP       State Senator, District 31                              Kel Seliger                           PRECINCT 3                                             01 
01190010004000175REP       State Senator, District 31                              Kel Seliger                           PRECINCT 4                                             01 
01190010005000031REP       State Senator, District 31                              Kel Seliger                           PRECINCT 6                                             01 
01190020001000002LIB       State Senator, District 31                              Jack B. Westbrook                     PRECINCT 1                                             01 
01190020002000007LIB       State Senator, District 31                              Jack B. Westbrook                     PRECINCT 2                                             01 
01190020003000007LIB       State Senator, District 31                              Jack B. Westbrook                     PRECINCT 3                                             01 
01190020004000014LIB       State Senator, District 31                              Jack B. Westbrook                     PRECINCT 4                                             01 
01190020005000002LIB       State Senator, District 31                              Jack B. Westbrook                     PRECINCT 6                                             01 
01190030001000000          State Senator, District 31                              OVER VOTES                            PRECINCT 1                                             01 
01190030002000000          State Senator, District 31                              OVER VOTES                            PRECINCT 2                                             01 
01190030003000000          State Senator, District 31                              OVER VOTES                            PRECINCT 3                                             01 
01190030004000000          State Senator, District 31                              OVER VOTES                            PRECINCT 4                                             01 
01190030005000000          State Senator, District 31                              OVER VOTES                            PRECINCT 6                                             01 
01190040001000007          State Senator, District 31                              UNDER VOTES                           PRECINCT 1                                             01 
01190040002000010          State Senator, District 31                              UNDER VOTES                           PRECINCT 2                                             01 
01190040003000006          State Senator, District 31                              UNDER VOTES                           PRECINCT 3                                             01 
01190040004000011          State Senator, District 31                              UNDER VOTES                           PRECINCT 4                                             01 
01190040005000002          State Senator, District 31                              UNDER VOTES                           PRECINCT 6                                             01 
01200010001000073REP       State Representative, District 88                       Ken King                              PRECINCT 1                                             01 
01200010002000141REP       State Representative, District 88                       Ken King                              PRECINCT 2                                             01 
01200010003000134REP       State Representative, District 88                       Ken King                              PRECINCT 3                                             01 
01200010004000176REP       State Representative, District 88                       Ken King                              PRECINCT 4                                             01 
01200010005000030REP       State Representative, District 88                       Ken King                              PRECINCT 6                                             01 
01200020001000007DEM       State Representative, District 88                       Ezekiel Barron                        PRECINCT 1                                             01 
01200020002000019DEM       State Representative, District 88                       Ezekiel Barron                        PRECINCT 2                                             01 
01200020003000012DEM       State Representative, District 88                       Ezekiel Barron                        PRECINCT 3                                             01 
01200020004000017DEM       State Representative, District 88                       Ezekiel Barron                        PRECINCT 4                                             01 
01200020005000007DEM       State Representative, District 88                       Ezekiel Barron                        PRECINCT 6                                             01 
01200030001000000          State Representative, District 88                       OVER VOTES                            PRECINCT 1                                             01 
01200030002000000          State Representative, District 88                       OVER VOTES                            PRECINCT 2                                             01 
01200030003000000          State Representative, District 88                       OVER VOTES                            PRECINCT 3                                             01 
01200030004000000          State Representative, District 88                       OVER VOTES                            PRECINCT 4                                             01 
01200030005000000          State Representative, District 88                       OVER VOTES                            PRECINCT 6                                             01 
01200040001000004          State Representative, District 88                       UNDER VOTES                           PRECINCT 1                                             01 
01200040002000000          State Representative, District 88                       UNDER VOTES                           PRECINCT 2                                             01 
01200040003000004          State Representative, District 88                       UNDER VOTES                           PRECINCT 3                                             01 
01200040004000007          State Representative, District 88                       UNDER VOTES                           PRECINCT 4                                             01 
01200040005000000          State Representative, District 88                       UNDER VOTES                           PRECINCT 6                                             01 
01210010001000072REP       Appeals Court Justice DIST 7, P2                        Judy Parker                           PRECINCT 1                                             01 
01210010002000146REP       Appeals Court Justice DIST 7, P2                        Judy Parker                           PRECINCT 2                                             01 
01210010003000133REP       Appeals Court Justice DIST 7, P2                        Judy Parker                           PRECINCT 3                                             01 
01210010004000172REP       Appeals Court Justice DIST 7, P2                        Judy Parker                           PRECINCT 4                                             01 
01210010005000030REP       Appeals Court Justice DIST 7, P2                        Judy Parker                           PRECINCT 6                                             01 
01210020001000000          Appeals Court Justice DIST 7, P2                        OVER VOTES                            PRECINCT 1                                             01 
01210020002000000          Appeals Court Justice DIST 7, P2                        OVER VOTES                            PRECINCT 2                                             01 
01210020003000000          Appeals Court Justice DIST 7, P2                        OVER VOTES                            PRECINCT 3                                             01 
01210020004000000          Appeals Court Justice DIST 7, P2                        OVER VOTES                            PRECINCT 4                                             01 
01210020005000000          Appeals Court Justice DIST 7, P2                        OVER VOTES                            PRECINCT 6                                             01 
01210030001000012          Appeals Court Justice DIST 7, P2                        UNDER VOTES                           PRECINCT 1                                             01 
01210030002000012          Appeals Court Justice DIST 7, P2                        UNDER VOTES                           PRECINCT 2                                             01 
01210030003000015          Appeals Court Justice DIST 7, P2                        UNDER VOTES                           PRECINCT 3                                             01 
01210030004000025          Appeals Court Justice DIST 7, P2                        UNDER VOTES                           PRECINCT 4                                             01 
01210030005000005          Appeals Court Justice DIST 7, P2                        UNDER VOTES                           PRECINCT 6                                             01 
01220010001000073REP       Appeals Court Justice DIST 7, P3                        Pat Pirtle                            PRECINCT 1                                             01 
01220010002000146REP       Appeals Court Justice DIST 7, P3                        Pat Pirtle                            PRECINCT 2                                             01 
01220010003000130REP       Appeals Court Justice DIST 7, P3                        Pat Pirtle                            PRECINCT 3                                             01 
01220010004000169REP       Appeals Court Justice DIST 7, P3                        Pat Pirtle                            PRECINCT 4                                             01 
01220010005000029REP       Appeals Court Justice DIST 7, P3                        Pat Pirtle                            PRECINCT 6                                             01 
01220020001000000          Appeals Court Justice DIST 7, P3                        OVER VOTES                            PRECINCT 1                                             01 
01220020002000000          Appeals Court Justice DIST 7, P3                        OVER VOTES                            PRECINCT 2                                             01 
01220020003000000          Appeals Court Justice DIST 7, P3                        OVER VOTES                            PRECINCT 3                                             01 
01220020004000000          Appeals Court Justice DIST 7, P3                        OVER VOTES                            PRECINCT 4                                             01 
01220020005000000          Appeals Court Justice DIST 7, P3                        OVER VOTES                            PRECINCT 6                                             01 
01220030001000011          Appeals Court Justice DIST 7, P3                        UNDER VOTES                           PRECINCT 1                                             01 
01220030002000012          Appeals Court Justice DIST 7, P3                        UNDER VOTES                           PRECINCT 2                                             01 
01220030003000018          Appeals Court Justice DIST 7, P3                        UNDER VOTES                           PRECINCT 3                                             01 
01220030004000028          Appeals Court Justice DIST 7, P3                        UNDER VOTES                           PRECINCT 4                                             01 
01220030005000006          Appeals Court Justice DIST 7, P3                        UNDER VOTES                           PRECINCT 6                                             01 
01230010001000074REP       District Judge, 110th Judicial District                 William P. Smith                      PRECINCT 1                                             01 
01230010002000147REP       District Judge, 110th Judicial District                 William P. Smith                      PRECINCT 2                                             01 
01230010003000139REP       District Judge, 110th Judicial District                 William P. Smith                      PRECINCT 3                                             01 
01230010004000173REP       District Judge, 110th Judicial District                 William P. Smith                      PRECINCT 4                                             01 
01230010005000029REP       District Judge, 110th Judicial District                 William P. Smith                      PRECINCT 6                                             01 
01230020001000000          District Judge, 110th Judicial District                 OVER VOTES                            PRECINCT 1                                             01 
01230020002000000          District Judge, 110th Judicial District                 OVER VOTES                            PRECINCT 2                                             01 
01230020003000000          District Judge, 110th Judicial District                 OVER VOTES                            PRECINCT 3                                             01 
01230020004000000          District Judge, 110th Judicial District                 OVER VOTES                            PRECINCT 4                                             01 
01230020005000000          District Judge, 110th Judicial District                 OVER VOTES                            PRECINCT 6                                             01 
01230030001000010          District Judge, 110th Judicial District                 UNDER VOTES                           PRECINCT 1                                             01 
01230030002000011          District Judge, 110th Judicial District                 UNDER VOTES                           PRECINCT 2                                             01 
01230030003000009          District Judge, 110th Judicial District                 UNDER VOTES                           PRECINCT 3                                             01 
01230030004000026          District Judge, 110th Judicial District                 UNDER VOTES                           PRECINCT 4                                             01 
01230030005000006          District Judge, 110th Judicial District                 UNDER VOTES                           PRECINCT 6                                             01 
01240010001000073REP       County Judge                                            Wayne Nance                           PRECINCT 1                                             01 
01240010002000145REP       County Judge                                            Wayne Nance                           PRECINCT 2                                             01 
01240010003000134REP       County Judge                                            Wayne Nance                           PRECINCT 3                                             01 
01240010004000173REP       County Judge                                            Wayne Nance                           PRECINCT 4                                             01 
01240010005000031REP       County Judge                                            Wayne Nance                           PRECINCT 6                                             01 
01240020001000000          County Judge                                            OVER VOTES                            PRECINCT 1                                             01 
01240020002000000          County Judge                                            OVER VOTES                            PRECINCT 2                                             01 
01240020003000000          County Judge                                            OVER VOTES                            PRECINCT 3                                             01 
01240020004000000          County Judge                                            OVER VOTES                            PRECINCT 4                                             01 
01240020005000000          County Judge                                            OVER VOTES                            PRECINCT 6                                             01 
01240030001000011          County Judge                                            UNDER VOTES                           PRECINCT 1                                             01 
01240030002000012          County Judge                                            UNDER VOTES                           PRECINCT 2                                             01 
01240030003000014          County Judge                                            UNDER VOTES                           PRECINCT 3                                             01 
01240030004000024          County Judge                                            UNDER VOTES                           PRECINCT 4                                             01 
01240030005000004          County Judge                                            UNDER VOTES                           PRECINCT 6                                             01 
01250010001000078REP       District and County Clerk                               Bena Hester                           PRECINCT 1                                             01 
01250010002000149REP       District and County Clerk                               Bena Hester                           PRECINCT 2                                             01 
01250010003000142REP       District and County Clerk                               Bena Hester                           PRECINCT 3                                             01 
01250010004000185REP       District and County Clerk                               Bena Hester                           PRECINCT 4                                             01 
01250010005000031REP       District and County Clerk                               Bena Hester                           PRECINCT 6                                             01 
01250020001000000          District and County Clerk                               OVER VOTES                            PRECINCT 1                                             01 
01250020002000000          District and County Clerk                               OVER VOTES                            PRECINCT 2                                             01 
01250020003000000          District and County Clerk                               OVER VOTES                            PRECINCT 3                                             01 
01250020004000000          District and County Clerk                               OVER VOTES                            PRECINCT 4                                             01 
01250020005000000          District and County Clerk                               OVER VOTES                            PRECINCT 6                                             01 
01250030001000006          District and County Clerk                               UNDER VOTES                           PRECINCT 1                                             01 
01250030002000008          District and County Clerk                               UNDER VOTES                           PRECINCT 2                                             01 
01250030003000007          District and County Clerk                               UNDER VOTES                           PRECINCT 3                                             01 
01250030004000014          District and County Clerk                               UNDER VOTES                           PRECINCT 4                                             01 
01250030005000004          District and County Clerk                               UNDER VOTES                           PRECINCT 6                                             01 
01260010001000079REP       County Treasurer                                        Mary Jo Brannon                       PRECINCT 1                                             01 
01260010002000148REP       County Treasurer                                        Mary Jo Brannon                       PRECINCT 2                                             01 
01260010003000146REP       County Treasurer                                        Mary Jo Brannon                       PRECINCT 3                                             01 
01260010004000185REP       County Treasurer                                        Mary Jo Brannon                       PRECINCT 4                                             01 
01260010005000031REP       County Treasurer                                        Mary Jo Brannon                       PRECINCT 6                                             01 
01260020001000000          County Treasurer                                        OVER VOTES                            PRECINCT 1                                             01 
01260020002000000          County Treasurer                                        OVER VOTES                            PRECINCT 2                                             01 
01260020003000000          County Treasurer                                        OVER VOTES                            PRECINCT 3                                             01 
01260020004000000          County Treasurer                                        OVER VOTES                            PRECINCT 4                                             01 
01260020005000000          County Treasurer                                        OVER VOTES                            PRECINCT 6                                             01 
01260030001000005          County Treasurer                                        UNDER VOTES                           PRECINCT 1                                             01 
01260030002000009          County Treasurer                                        UNDER VOTES                           PRECINCT 2                                             01 
01260030003000003          County Treasurer                                        UNDER VOTES                           PRECINCT 3                                             01 
01260030004000014          County Treasurer                                        UNDER VOTES                           PRECINCT 4                                             01 
01260030005000004          County Treasurer                                        UNDER VOTES                           PRECINCT 6                                             01 
01270010002000147REPCOMM02 County Commissioner, Precinct No. 2                     Jack Wellman                          PRECINCT 2                                             01 
01270020002000000   COMM02 County Commissioner, Precinct No. 2                     OVER VOTES                            PRECINCT 2                                             01 
01270030002000010   COMM02 County Commissioner, Precinct No. 2                     UNDER VOTES                           PRECINCT 2                                             01 
01280010004000175REPCOMM04 County Commissioner, Precinct No. 4                     John Burson                           PRECINCT 4                                             01 
01280020004000000   COMM04 County Commissioner, Precinct No. 4                     OVER VOTES                            PRECINCT 4                                             01 
01280030004000024   COMM04 County Commissioner, Precinct No. 4                     UNDER VOTES                           PRECINCT 4                                             01 
01290010001000075REPJOP01  Justice of the Peace, Precinct No. 1                    H. B. Simpson                         PRECINCT 1                                             01 
01290010003000143REPJOP01  Justice of the Peace, Precinct No. 1                    H. B. Simpson                         PRECINCT 3                                             01 
01290010004000180REPJOP01  Justice of the Peace, Precinct No. 1                    H. B. Simpson                         PRECINCT 4                                             01 
01290020001000000   JOP01  Justice of the Peace, Precinct No. 1                    OVER VOTES                            PRECINCT 1                                             01 
01290020003000000   JOP01  Justice of the Peace, Precinct No. 1                    OVER VOTES                            PRECINCT 3                                             01 
01290020004000000   JOP01  Justice of the Peace, Precinct No. 1                    OVER VOTES                            PRECINCT 4                                             01 
01290030001000009   JOP01  Justice of the Peace, Precinct No. 1                    UNDER VOTES                           PRECINCT 1                                             01 
01290030003000006   JOP01  Justice of the Peace, Precinct No. 1                    UNDER VOTES                           PRECINCT 3                                             01 
01290030004000019   JOP01  Justice of the Peace, Precinct No. 1                    UNDER VOTES                           PRECINCT 4                                             01 
01300010002000146REPJOP002 Justice of the Peace, Precinct No. 2                    Dale Ramsey                           PRECINCT 2                                             01 
01300010005000031REPJOP002 Justice of the Peace, Precinct No. 2                    Dale Ramsey                           PRECINCT 6                                             01 
01300020002000000   JOP002 Justice of the Peace, Precinct No. 2                    OVER VOTES                            PRECINCT 2                                             01 
01300020005000000   JOP002 Justice of the Peace, Precinct No. 2                    OVER VOTES                            PRECINCT 6                                             01 
01300030002000011   JOP002 Justice of the Peace, Precinct No. 2                    UNDER VOTES                           PRECINCT 2                                             01 
01300030005000004   JOP002 Justice of the Peace, Precinct No. 2                    UNDER VOTES                           PRECINCT 6                                             01 
