01950014069000182NONCTYCHINCity of China Grove Proposition A                       For                                                                                          01Y
01950024069000270NONCTYCHINCity of China Grove Proposition A                       Against                                                                                      01Y
01950034069000000   CTYCHINCity of China Grove Proposition A                       OVER VOTES                                                                                   01Y
01950044069000025   CTYCHINCity of China Grove Proposition A                       UNDER VOTES                                                                                  01Y
01960014069000282NONCTYCHINCity of China Grove Proposition B                       For                                                                                          01Y
01960024069000180NONCTYCHINCity of China Grove Proposition B                       Against                                                                                      01Y
01960034069000000   CTYCHINCity of China Grove Proposition B                       OVER VOTES                                                                                   01Y
01960044069000015   CTYCHINCity of China Grove Proposition B                       UNDER VOTES                                                                                  01Y
