00010010001000000          REGISTERED VOTERS - TOTAL                               REGISTERED VOTERS - TOTAL             PCT 1 SE HENRIETTA                                     00 
00010010002000000          REGISTERED VOTERS - TOTAL                               REGISTERED VOTERS - TOTAL             PCT 6 BYERS                                            00 
00010010003000000          REGISTERED VOTERS - TOTAL                               REGISTERED VOTERS - TOTAL             PCT 8 NE HENRIETTA                                     00 
00010010004000000          REGISTERED VOTERS - TOTAL                               REGISTERED VOTERS - TOTAL             PCT 9 NW HENRIETTA                                     00 
00010010005000000          REGISTERED VOTERS - TOTAL                               REGISTERED VOTERS - TOTAL             PCT 10 VASHTI                                          00 
00010010006000000          REGISTERED VOTERS - TOTAL                               REGISTERED VOTERS - TOTAL             PCT 11 DEAN                                            00 
00010010007000000          REGISTERED VOTERS - TOTAL                               REGISTERED VOTERS - TOTAL             PCT 12 JOLLY                                           00 
00010010008000000          REGISTERED VOTERS - TOTAL                               REGISTERED VOTERS - TOTAL             PCT 13 THORNBERRY                                      00 
00010010009000000          REGISTERED VOTERS - TOTAL                               REGISTERED VOTERS - TOTAL             PCT 14 CHARLIE                                         00 
00010010010000000          REGISTERED VOTERS - TOTAL                               REGISTERED VOTERS - TOTAL             PCT 15 SW HENRIETTA                                    00 
00010010011000000          REGISTERED VOTERS - TOTAL                               REGISTERED VOTERS - TOTAL             PCT 17 ARROWHEAD                                       00 
00010010012000000          REGISTERED VOTERS - TOTAL                               REGISTERED VOTERS - TOTAL             PCT 20 MIDWAY                                          00 
00010010013000000          REGISTERED VOTERS - TOTAL                               REGISTERED VOTERS - TOTAL             PCT 24 BELLEVUE                                        00 
00010010014000000          REGISTERED VOTERS - TOTAL                               REGISTERED VOTERS - TOTAL             PCT 26 BUFFALO SPRINGS                                 00 
00010010015000000          REGISTERED VOTERS - TOTAL                               REGISTERED VOTERS - TOTAL             PCT 27 PETROLIA                                        00 
00010010016000000          REGISTERED VOTERS - TOTAL                               REGISTERED VOTERS - TOTAL             PCT 32 WINDTHORST                                      00 
00020010001000494          BALLOTS CAST - TOTAL                                    BALLOTS CAST - TOTAL                  PCT 1 SE HENRIETTA                                     00 
00020010002000248          BALLOTS CAST - TOTAL                                    BALLOTS CAST - TOTAL                  PCT 6 BYERS                                            00 
00020010003000463          BALLOTS CAST - TOTAL                                    BALLOTS CAST - TOTAL                  PCT 8 NE HENRIETTA                                     00 
00020010004000286          BALLOTS CAST - TOTAL                                    BALLOTS CAST - TOTAL                  PCT 9 NW HENRIETTA                                     00 
00020010005000176          BALLOTS CAST - TOTAL                                    BALLOTS CAST - TOTAL                  PCT 10 VASHTI                                          00 
00020010006000491          BALLOTS CAST - TOTAL                                    BALLOTS CAST - TOTAL                  PCT 11 DEAN                                            00 
00020010007000195          BALLOTS CAST - TOTAL                                    BALLOTS CAST - TOTAL                  PCT 12 JOLLY                                           00 
00020010008000091          BALLOTS CAST - TOTAL                                    BALLOTS CAST - TOTAL                  PCT 13 THORNBERRY                                      00 
00020010009000108          BALLOTS CAST - TOTAL                                    BALLOTS CAST - TOTAL                  PCT 14 CHARLIE                                         00 
00020010010000210          BALLOTS CAST - TOTAL                                    BALLOTS CAST - TOTAL                  PCT 15 SW HENRIETTA                                    00 
00020010011000601          BALLOTS CAST - TOTAL                                    BALLOTS CAST - TOTAL                  PCT 17 ARROWHEAD                                       00 
00020010012000265          BALLOTS CAST - TOTAL                                    BALLOTS CAST - TOTAL                  PCT 20 MIDWAY                                          00 
00020010013000188          BALLOTS CAST - TOTAL                                    BALLOTS CAST - TOTAL                  PCT 24 BELLEVUE                                        00 
00020010014000115          BALLOTS CAST - TOTAL                                    BALLOTS CAST - TOTAL                  PCT 26 BUFFALO SPRINGS                                 00 
00020010015000251          BALLOTS CAST - TOTAL                                    BALLOTS CAST - TOTAL                  PCT 27 PETROLIA                                        00 
00020010016000146          BALLOTS CAST - TOTAL                                    BALLOTS CAST - TOTAL                  PCT 32 WINDTHORST                                      00 
00030010001000007          BALLOTS CAST - BLANK                                    BALLOTS CAST - BLANK                  PCT 1 SE HENRIETTA                                     00 
00030010002000002          BALLOTS CAST - BLANK                                    BALLOTS CAST - BLANK                  PCT 6 BYERS                                            00 
00030010003000001          BALLOTS CAST - BLANK                                    BALLOTS CAST - BLANK                  PCT 8 NE HENRIETTA                                     00 
00030010004000000          BALLOTS CAST - BLANK                                    BALLOTS CAST - BLANK                  PCT 9 NW HENRIETTA                                     00 
00030010005000001          BALLOTS CAST - BLANK                                    BALLOTS CAST - BLANK                  PCT 10 VASHTI                                          00 
00030010006000002          BALLOTS CAST - BLANK                                    BALLOTS CAST - BLANK                  PCT 11 DEAN                                            00 
00030010007000000          BALLOTS CAST - BLANK                                    BALLOTS CAST - BLANK                  PCT 12 JOLLY                                           00 
00030010008000000          BALLOTS CAST - BLANK                                    BALLOTS CAST - BLANK                  PCT 13 THORNBERRY                                      00 
00030010009000000          BALLOTS CAST - BLANK                                    BALLOTS CAST - BLANK                  PCT 14 CHARLIE                                         00 
00030010010000000          BALLOTS CAST - BLANK                                    BALLOTS CAST - BLANK                  PCT 15 SW HENRIETTA                                    00 
00030010011000003          BALLOTS CAST - BLANK                                    BALLOTS CAST - BLANK                  PCT 17 ARROWHEAD                                       00 
00030010012000000          BALLOTS CAST - BLANK                                    BALLOTS CAST - BLANK                  PCT 20 MIDWAY                                          00 
00030010013000003          BALLOTS CAST - BLANK                                    BALLOTS CAST - BLANK                  PCT 24 BELLEVUE                                        00 
00030010014000001          BALLOTS CAST - BLANK                                    BALLOTS CAST - BLANK                  PCT 26 BUFFALO SPRINGS                                 00 
00030010015000000          BALLOTS CAST - BLANK                                    BALLOTS CAST - BLANK                  PCT 27 PETROLIA                                        00 
00030010016000000          BALLOTS CAST - BLANK                                    BALLOTS CAST - BLANK                  PCT 32 WINDTHORST                                      00 
03010010001000230REP       Straight Party                                          Republican Party                      PCT 1 SE HENRIETTA                                     01 
03010010002000109REP       Straight Party                                          Republican Party                      PCT 6 BYERS                                            01 
03010010003000192REP       Straight Party                                          Republican Party                      PCT 8 NE HENRIETTA                                     01 
03010010004000144REP       Straight Party                                          Republican Party                      PCT 9 NW HENRIETTA                                     01 
03010010005000093REP       Straight Party                                          Republican Party                      PCT 10 VASHTI                                          01 
03010010006000284REP       Straight Party                                          Republican Party                      PCT 11 DEAN                                            01 
03010010007000093REP       Straight Party                                          Republican Party                      PCT 12 JOLLY                                           01 
03010010008000047REP       Straight Party                                          Republican Party                      PCT 13 THORNBERRY                                      01 
03010010009000064REP       Straight Party                                          Republican Party                      PCT 14 CHARLIE                                         01 
03010010010000099REP       Straight Party                                          Republican Party                      PCT 15 SW HENRIETTA                                    01 
03010010011000325REP       Straight Party                                          Republican Party                      PCT 17 ARROWHEAD                                       01 
03010010012000152REP       Straight Party                                          Republican Party                      PCT 20 MIDWAY                                          01 
03010010013000090REP       Straight Party                                          Republican Party                      PCT 24 BELLEVUE                                        01 
03010010014000071REP       Straight Party                                          Republican Party                      PCT 26 BUFFALO SPRINGS                                 01 
03010010015000136REP       Straight Party                                          Republican Party                      PCT 27 PETROLIA                                        01 
03010010016000090REP       Straight Party                                          Republican Party                      PCT 32 WINDTHORST                                      01 
03010020001000033DEM       Straight Party                                          Democratic Party                      PCT 1 SE HENRIETTA                                     01 
03010020002000023DEM       Straight Party                                          Democratic Party                      PCT 6 BYERS                                            01 
03010020003000026DEM       Straight Party                                          Democratic Party                      PCT 8 NE HENRIETTA                                     01 
03010020004000016DEM       Straight Party                                          Democratic Party                      PCT 9 NW HENRIETTA                                     01 
03010020005000006DEM       Straight Party                                          Democratic Party                      PCT 10 VASHTI                                          01 
03010020006000014DEM       Straight Party                                          Democratic Party                      PCT 11 DEAN                                            01 
03010020007000012DEM       Straight Party                                          Democratic Party                      PCT 12 JOLLY                                           01 
03010020008000005DEM       Straight Party                                          Democratic Party                      PCT 13 THORNBERRY                                      01 
03010020009000010DEM       Straight Party                                          Democratic Party                      PCT 14 CHARLIE                                         01 
03010020010000013DEM       Straight Party                                          Democratic Party                      PCT 15 SW HENRIETTA                                    01 
03010020011000042DEM       Straight Party                                          Democratic Party                      PCT 17 ARROWHEAD                                       01 
03010020012000006DEM       Straight Party                                          Democratic Party                      PCT 20 MIDWAY                                          01 
03010020013000004DEM       Straight Party                                          Democratic Party                      PCT 24 BELLEVUE                                        01 
03010020014000007DEM       Straight Party                                          Democratic Party                      PCT 26 BUFFALO SPRINGS                                 01 
03010020015000011DEM       Straight Party                                          Democratic Party                      PCT 27 PETROLIA                                        01 
03010020016000005DEM       Straight Party                                          Democratic Party                      PCT 32 WINDTHORST                                      01 
03010030001000003LIB       Straight Party                                          Libertarian Party                     PCT 1 SE HENRIETTA                                     01 
03010030002000002LIB       Straight Party                                          Libertarian Party                     PCT 6 BYERS                                            01 
03010030003000000LIB       Straight Party                                          Libertarian Party                     PCT 8 NE HENRIETTA                                     01 
03010030004000001LIB       Straight Party                                          Libertarian Party                     PCT 9 NW HENRIETTA                                     01 
03010030005000000LIB       Straight Party                                          Libertarian Party                     PCT 10 VASHTI                                          01 
03010030006000002LIB       Straight Party                                          Libertarian Party                     PCT 11 DEAN                                            01 
03010030007000000LIB       Straight Party                                          Libertarian Party                     PCT 12 JOLLY                                           01 
03010030008000000LIB       Straight Party                                          Libertarian Party                     PCT 13 THORNBERRY                                      01 
03010030009000001LIB       Straight Party                                          Libertarian Party                     PCT 14 CHARLIE                                         01 
03010030010000000LIB       Straight Party                                          Libertarian Party                     PCT 15 SW HENRIETTA                                    01 
03010030011000000LIB       Straight Party                                          Libertarian Party                     PCT 17 ARROWHEAD                                       01 
03010030012000000LIB       Straight Party                                          Libertarian Party                     PCT 20 MIDWAY                                          01 
03010030013000001LIB       Straight Party                                          Libertarian Party                     PCT 24 BELLEVUE                                        01 
03010030014000000LIB       Straight Party                                          Libertarian Party                     PCT 26 BUFFALO SPRINGS                                 01 
03010030015000000LIB       Straight Party                                          Libertarian Party                     PCT 27 PETROLIA                                        01 
03010030016000000LIB       Straight Party                                          Libertarian Party                     PCT 32 WINDTHORST                                      01 
03010040001000000          Straight Party                                          OVER VOTES                            PCT 1 SE HENRIETTA                                     01 
03010040002000000          Straight Party                                          OVER VOTES                            PCT 6 BYERS                                            01 
03010040003000000          Straight Party                                          OVER VOTES                            PCT 8 NE HENRIETTA                                     01 
03010040004000000          Straight Party                                          OVER VOTES                            PCT 9 NW HENRIETTA                                     01 
03010040005000000          Straight Party                                          OVER VOTES                            PCT 10 VASHTI                                          01 
03010040006000000          Straight Party                                          OVER VOTES                            PCT 11 DEAN                                            01 
03010040007000000          Straight Party                                          OVER VOTES                            PCT 12 JOLLY                                           01 
03010040008000000          Straight Party                                          OVER VOTES                            PCT 13 THORNBERRY                                      01 
03010040009000000          Straight Party                                          OVER VOTES                            PCT 14 CHARLIE                                         01 
03010040010000000          Straight Party                                          OVER VOTES                            PCT 15 SW HENRIETTA                                    01 
03010040011000000          Straight Party                                          OVER VOTES                            PCT 17 ARROWHEAD                                       01 
03010040012000000          Straight Party                                          OVER VOTES                            PCT 20 MIDWAY                                          01 
03010040013000000          Straight Party                                          OVER VOTES                            PCT 24 BELLEVUE                                        01 
03010040014000000          Straight Party                                          OVER VOTES                            PCT 26 BUFFALO SPRINGS                                 01 
03010040015000000          Straight Party                                          OVER VOTES                            PCT 27 PETROLIA                                        01 
03010040016000000          Straight Party                                          OVER VOTES                            PCT 32 WINDTHORST                                      01 
03010050001000228          Straight Party                                          UNDER VOTES                           PCT 1 SE HENRIETTA                                     01 
03010050002000114          Straight Party                                          UNDER VOTES                           PCT 6 BYERS                                            01 
03010050003000245          Straight Party                                          UNDER VOTES                           PCT 8 NE HENRIETTA                                     01 
03010050004000125          Straight Party                                          UNDER VOTES                           PCT 9 NW HENRIETTA                                     01 
03010050005000077          Straight Party                                          UNDER VOTES                           PCT 10 VASHTI                                          01 
03010050006000191          Straight Party                                          UNDER VOTES                           PCT 11 DEAN                                            01 
03010050007000090          Straight Party                                          UNDER VOTES                           PCT 12 JOLLY                                           01 
03010050008000039          Straight Party                                          UNDER VOTES                           PCT 13 THORNBERRY                                      01 
03010050009000033          Straight Party                                          UNDER VOTES                           PCT 14 CHARLIE                                         01 
03010050010000098          Straight Party                                          UNDER VOTES                           PCT 15 SW HENRIETTA                                    01 
03010050011000234          Straight Party                                          UNDER VOTES                           PCT 17 ARROWHEAD                                       01 
03010050012000107          Straight Party                                          UNDER VOTES                           PCT 20 MIDWAY                                          01 
03010050013000093          Straight Party                                          UNDER VOTES                           PCT 24 BELLEVUE                                        01 
03010050014000037          Straight Party                                          UNDER VOTES                           PCT 26 BUFFALO SPRINGS                                 01 
03010050015000104          Straight Party                                          UNDER VOTES                           PCT 27 PETROLIA                                        01 
03010050016000051          Straight Party                                          UNDER VOTES                           PCT 32 WINDTHORST                                      01 
03020010001000402REP       US Senator                                              Ted Cruz                              PCT 1 SE HENRIETTA                                     01 
03020010002000194REP       US Senator                                              Ted Cruz                              PCT 6 BYERS                                            01 
03020010003000383REP       US Senator                                              Ted Cruz                              PCT 8 NE HENRIETTA                                     01 
03020010004000239REP       US Senator                                              Ted Cruz                              PCT 9 NW HENRIETTA                                     01 
03020010005000151REP       US Senator                                              Ted Cruz                              PCT 10 VASHTI                                          01 
03020010006000446REP       US Senator                                              Ted Cruz                              PCT 11 DEAN                                            01 
03020010007000164REP       US Senator                                              Ted Cruz                              PCT 12 JOLLY                                           01 
03020010008000076REP       US Senator                                              Ted Cruz                              PCT 13 THORNBERRY                                      01 
03020010009000095REP       US Senator                                              Ted Cruz                              PCT 14 CHARLIE                                         01 
03020010010000169REP       US Senator                                              Ted Cruz                              PCT 15 SW HENRIETTA                                    01 
03020010011000505REP       US Senator                                              Ted Cruz                              PCT 17 ARROWHEAD                                       01 
03020010012000254REP       US Senator                                              Ted Cruz                              PCT 20 MIDWAY                                          01 
03020010013000169REP       US Senator                                              Ted Cruz                              PCT 24 BELLEVUE                                        01 
03020010014000102REP       US Senator                                              Ted Cruz                              PCT 26 BUFFALO SPRINGS                                 01 
03020010015000222REP       US Senator                                              Ted Cruz                              PCT 27 PETROLIA                                        01 
03020010016000139REP       US Senator                                              Ted Cruz                              PCT 32 WINDTHORST                                      01 
03020020001000074DEM       US Senator                                              Beto O'Rourke                         PCT 1 SE HENRIETTA                                     01 
03020020002000045DEM       US Senator                                              Beto O'Rourke                         PCT 6 BYERS                                            01 
03020020003000068DEM       US Senator                                              Beto O'Rourke                         PCT 8 NE HENRIETTA                                     01 
03020020004000042DEM       US Senator                                              Beto O'Rourke                         PCT 9 NW HENRIETTA                                     01 
03020020005000021DEM       US Senator                                              Beto O'Rourke                         PCT 10 VASHTI                                          01 
03020020006000041DEM       US Senator                                              Beto O'Rourke                         PCT 11 DEAN                                            01 
03020020007000030DEM       US Senator                                              Beto O'Rourke                         PCT 12 JOLLY                                           01 
03020020008000014DEM       US Senator                                              Beto O'Rourke                         PCT 13 THORNBERRY                                      01 
03020020009000013DEM       US Senator                                              Beto O'Rourke                         PCT 14 CHARLIE                                         01 
03020020010000040DEM       US Senator                                              Beto O'Rourke                         PCT 15 SW HENRIETTA                                    01 
03020020011000088DEM       US Senator                                              Beto O'Rourke                         PCT 17 ARROWHEAD                                       01 
03020020012000011DEM       US Senator                                              Beto O'Rourke                         PCT 20 MIDWAY                                          01 
03020020013000014DEM       US Senator                                              Beto O'Rourke                         PCT 24 BELLEVUE                                        01 
03020020014000011DEM       US Senator                                              Beto O'Rourke                         PCT 26 BUFFALO SPRINGS                                 01 
03020020015000028DEM       US Senator                                              Beto O'Rourke                         PCT 27 PETROLIA                                        01 
03020020016000007DEM       US Senator                                              Beto O'Rourke                         PCT 32 WINDTHORST                                      01 
03020030001000010LIB       US Senator                                              Neal M. Dikeman                       PCT 1 SE HENRIETTA                                     01 
03020030002000002LIB       US Senator                                              Neal M. Dikeman                       PCT 6 BYERS                                            01 
03020030003000008LIB       US Senator                                              Neal M. Dikeman                       PCT 8 NE HENRIETTA                                     01 
03020030004000004LIB       US Senator                                              Neal M. Dikeman                       PCT 9 NW HENRIETTA                                     01 
03020030005000001LIB       US Senator                                              Neal M. Dikeman                       PCT 10 VASHTI                                          01 
03020030006000002LIB       US Senator                                              Neal M. Dikeman                       PCT 11 DEAN                                            01 
03020030007000000LIB       US Senator                                              Neal M. Dikeman                       PCT 12 JOLLY                                           01 
03020030008000001LIB       US Senator                                              Neal M. Dikeman                       PCT 13 THORNBERRY                                      01 
03020030009000000LIB       US Senator                                              Neal M. Dikeman                       PCT 14 CHARLIE                                         01 
03020030010000001LIB       US Senator                                              Neal M. Dikeman                       PCT 15 SW HENRIETTA                                    01 
03020030011000001LIB       US Senator                                              Neal M. Dikeman                       PCT 17 ARROWHEAD                                       01 
03020030012000000LIB       US Senator                                              Neal M. Dikeman                       PCT 20 MIDWAY                                          01 
03020030013000001LIB       US Senator                                              Neal M. Dikeman                       PCT 24 BELLEVUE                                        01 
03020030014000000LIB       US Senator                                              Neal M. Dikeman                       PCT 26 BUFFALO SPRINGS                                 01 
03020030015000000LIB       US Senator                                              Neal M. Dikeman                       PCT 27 PETROLIA                                        01 
03020030016000000LIB       US Senator                                              Neal M. Dikeman                       PCT 32 WINDTHORST                                      01 
03020040001000001          US Senator                                              OVER VOTES                            PCT 1 SE HENRIETTA                                     01 
03020040002000000          US Senator                                              OVER VOTES                            PCT 6 BYERS                                            01 
03020040003000000          US Senator                                              OVER VOTES                            PCT 8 NE HENRIETTA                                     01 
03020040004000000          US Senator                                              OVER VOTES                            PCT 9 NW HENRIETTA                                     01 
03020040005000000          US Senator                                              OVER VOTES                            PCT 10 VASHTI                                          01 
03020040006000000          US Senator                                              OVER VOTES                            PCT 11 DEAN                                            01 
03020040007000000          US Senator                                              OVER VOTES                            PCT 12 JOLLY                                           01 
03020040008000000          US Senator                                              OVER VOTES                            PCT 13 THORNBERRY                                      01 
03020040009000000          US Senator                                              OVER VOTES                            PCT 14 CHARLIE                                         01 
03020040010000000          US Senator                                              OVER VOTES                            PCT 15 SW HENRIETTA                                    01 
03020040011000001          US Senator                                              OVER VOTES                            PCT 17 ARROWHEAD                                       01 
03020040012000000          US Senator                                              OVER VOTES                            PCT 20 MIDWAY                                          01 
03020040013000000          US Senator                                              OVER VOTES                            PCT 24 BELLEVUE                                        01 
03020040014000000          US Senator                                              OVER VOTES                            PCT 26 BUFFALO SPRINGS                                 01 
03020040015000000          US Senator                                              OVER VOTES                            PCT 27 PETROLIA                                        01 
03020040016000000          US Senator                                              OVER VOTES                            PCT 32 WINDTHORST                                      01 
03020050001000007          US Senator                                              UNDER VOTES                           PCT 1 SE HENRIETTA                                     01 
03020050002000007          US Senator                                              UNDER VOTES                           PCT 6 BYERS                                            01 
03020050003000004          US Senator                                              UNDER VOTES                           PCT 8 NE HENRIETTA                                     01 
03020050004000001          US Senator                                              UNDER VOTES                           PCT 9 NW HENRIETTA                                     01 
03020050005000003          US Senator                                              UNDER VOTES                           PCT 10 VASHTI                                          01 
03020050006000002          US Senator                                              UNDER VOTES                           PCT 11 DEAN                                            01 
03020050007000001          US Senator                                              UNDER VOTES                           PCT 12 JOLLY                                           01 
03020050008000000          US Senator                                              UNDER VOTES                           PCT 13 THORNBERRY                                      01 
03020050009000000          US Senator                                              UNDER VOTES                           PCT 14 CHARLIE                                         01 
03020050010000000          US Senator                                              UNDER VOTES                           PCT 15 SW HENRIETTA                                    01 
03020050011000006          US Senator                                              UNDER VOTES                           PCT 17 ARROWHEAD                                       01 
03020050012000000          US Senator                                              UNDER VOTES                           PCT 20 MIDWAY                                          01 
03020050013000004          US Senator                                              UNDER VOTES                           PCT 24 BELLEVUE                                        01 
03020050014000002          US Senator                                              UNDER VOTES                           PCT 26 BUFFALO SPRINGS                                 01 
03020050015000001          US Senator                                              UNDER VOTES                           PCT 27 PETROLIA                                        01 
03020050016000000          US Senator                                              UNDER VOTES                           PCT 32 WINDTHORST                                      01 
03030010001000417REP       US Rep District 13                                      Mac Thornberry                        PCT 1 SE HENRIETTA                                     01 
03030010002000200REP       US Rep District 13                                      Mac Thornberry                        PCT 6 BYERS                                            01 
03030010003000402REP       US Rep District 13                                      Mac Thornberry                        PCT 8 NE HENRIETTA                                     01 
03030010004000251REP       US Rep District 13                                      Mac Thornberry                        PCT 9 NW HENRIETTA                                     01 
03030010005000152REP       US Rep District 13                                      Mac Thornberry                        PCT 10 VASHTI                                          01 
03030010006000453REP       US Rep District 13                                      Mac Thornberry                        PCT 11 DEAN                                            01 
03030010007000169REP       US Rep District 13                                      Mac Thornberry                        PCT 12 JOLLY                                           01 
03030010008000076REP       US Rep District 13                                      Mac Thornberry                        PCT 13 THORNBERRY                                      01 
03030010009000095REP       US Rep District 13                                      Mac Thornberry                        PCT 14 CHARLIE                                         01 
03030010010000173REP       US Rep District 13                                      Mac Thornberry                        PCT 15 SW HENRIETTA                                    01 
03030010011000498REP       US Rep District 13                                      Mac Thornberry                        PCT 17 ARROWHEAD                                       01 
03030010012000250REP       US Rep District 13                                      Mac Thornberry                        PCT 20 MIDWAY                                          01 
03030010013000170REP       US Rep District 13                                      Mac Thornberry                        PCT 24 BELLEVUE                                        01 
03030010014000103REP       US Rep District 13                                      Mac Thornberry                        PCT 26 BUFFALO SPRINGS                                 01 
03030010015000224REP       US Rep District 13                                      Mac Thornberry                        PCT 27 PETROLIA                                        01 
03030010016000137REP       US Rep District 13                                      Mac Thornberry                        PCT 32 WINDTHORST                                      01 
03030020001000060DEM       US Rep District 13                                      Greg Sagan                            PCT 1 SE HENRIETTA                                     01 
03030020002000042DEM       US Rep District 13                                      Greg Sagan                            PCT 6 BYERS                                            01 
03030020003000047DEM       US Rep District 13                                      Greg Sagan                            PCT 8 NE HENRIETTA                                     01 
03030020004000031DEM       US Rep District 13                                      Greg Sagan                            PCT 9 NW HENRIETTA                                     01 
03030020005000017DEM       US Rep District 13                                      Greg Sagan                            PCT 10 VASHTI                                          01 
03030020006000030DEM       US Rep District 13                                      Greg Sagan                            PCT 11 DEAN                                            01 
03030020007000023DEM       US Rep District 13                                      Greg Sagan                            PCT 12 JOLLY                                           01 
03030020008000013DEM       US Rep District 13                                      Greg Sagan                            PCT 13 THORNBERRY                                      01 
03030020009000011DEM       US Rep District 13                                      Greg Sagan                            PCT 14 CHARLIE                                         01 
03030020010000033DEM       US Rep District 13                                      Greg Sagan                            PCT 15 SW HENRIETTA                                    01 
03030020011000086DEM       US Rep District 13                                      Greg Sagan                            PCT 17 ARROWHEAD                                       01 
03030020012000011DEM       US Rep District 13                                      Greg Sagan                            PCT 20 MIDWAY                                          01 
03030020013000011DEM       US Rep District 13                                      Greg Sagan                            PCT 24 BELLEVUE                                        01 
03030020014000011DEM       US Rep District 13                                      Greg Sagan                            PCT 26 BUFFALO SPRINGS                                 01 
03030020015000025DEM       US Rep District 13                                      Greg Sagan                            PCT 27 PETROLIA                                        01 
03030020016000007DEM       US Rep District 13                                      Greg Sagan                            PCT 32 WINDTHORST                                      01 
03030030001000006LIB       US Rep District 13                                      Calvin Deweese                        PCT 1 SE HENRIETTA                                     01 
03030030002000002LIB       US Rep District 13                                      Calvin Deweese                        PCT 6 BYERS                                            01 
03030030003000009LIB       US Rep District 13                                      Calvin Deweese                        PCT 8 NE HENRIETTA                                     01 
03030030004000003LIB       US Rep District 13                                      Calvin Deweese                        PCT 9 NW HENRIETTA                                     01 
03030030005000005LIB       US Rep District 13                                      Calvin Deweese                        PCT 10 VASHTI                                          01 
03030030006000004LIB       US Rep District 13                                      Calvin Deweese                        PCT 11 DEAN                                            01 
03030030007000003LIB       US Rep District 13                                      Calvin Deweese                        PCT 12 JOLLY                                           01 
03030030008000002LIB       US Rep District 13                                      Calvin Deweese                        PCT 13 THORNBERRY                                      01 
03030030009000001LIB       US Rep District 13                                      Calvin Deweese                        PCT 14 CHARLIE                                         01 
03030030010000001LIB       US Rep District 13                                      Calvin Deweese                        PCT 15 SW HENRIETTA                                    01 
03030030011000008LIB       US Rep District 13                                      Calvin Deweese                        PCT 17 ARROWHEAD                                       01 
03030030012000003LIB       US Rep District 13                                      Calvin Deweese                        PCT 20 MIDWAY                                          01 
03030030013000002LIB       US Rep District 13                                      Calvin Deweese                        PCT 24 BELLEVUE                                        01 
03030030014000000LIB       US Rep District 13                                      Calvin Deweese                        PCT 26 BUFFALO SPRINGS                                 01 
03030030015000001LIB       US Rep District 13                                      Calvin Deweese                        PCT 27 PETROLIA                                        01 
03030030016000001LIB       US Rep District 13                                      Calvin Deweese                        PCT 32 WINDTHORST                                      01 
03030040001000000          US Rep District 13                                      OVER VOTES                            PCT 1 SE HENRIETTA                                     01 
03030040002000000          US Rep District 13                                      OVER VOTES                            PCT 6 BYERS                                            01 
03030040003000000          US Rep District 13                                      OVER VOTES                            PCT 8 NE HENRIETTA                                     01 
03030040004000000          US Rep District 13                                      OVER VOTES                            PCT 9 NW HENRIETTA                                     01 
03030040005000000          US Rep District 13                                      OVER VOTES                            PCT 10 VASHTI                                          01 
03030040006000000          US Rep District 13                                      OVER VOTES                            PCT 11 DEAN                                            01 
03030040007000000          US Rep District 13                                      OVER VOTES                            PCT 12 JOLLY                                           01 
03030040008000000          US Rep District 13                                      OVER VOTES                            PCT 13 THORNBERRY                                      01 
03030040009000000          US Rep District 13                                      OVER VOTES                            PCT 14 CHARLIE                                         01 
03030040010000000          US Rep District 13                                      OVER VOTES                            PCT 15 SW HENRIETTA                                    01 
03030040011000000          US Rep District 13                                      OVER VOTES                            PCT 17 ARROWHEAD                                       01 
03030040012000000          US Rep District 13                                      OVER VOTES                            PCT 20 MIDWAY                                          01 
03030040013000000          US Rep District 13                                      OVER VOTES                            PCT 24 BELLEVUE                                        01 
03030040014000000          US Rep District 13                                      OVER VOTES                            PCT 26 BUFFALO SPRINGS                                 01 
03030040015000000          US Rep District 13                                      OVER VOTES                            PCT 27 PETROLIA                                        01 
03030040016000000          US Rep District 13                                      OVER VOTES                            PCT 32 WINDTHORST                                      01 
03030050001000011          US Rep District 13                                      UNDER VOTES                           PCT 1 SE HENRIETTA                                     01 
03030050002000004          US Rep District 13                                      UNDER VOTES                           PCT 6 BYERS                                            01 
03030050003000005          US Rep District 13                                      UNDER VOTES                           PCT 8 NE HENRIETTA                                     01 
03030050004000001          US Rep District 13                                      UNDER VOTES                           PCT 9 NW HENRIETTA                                     01 
03030050005000002          US Rep District 13                                      UNDER VOTES                           PCT 10 VASHTI                                          01 
03030050006000004          US Rep District 13                                      UNDER VOTES                           PCT 11 DEAN                                            01 
03030050007000000          US Rep District 13                                      UNDER VOTES                           PCT 12 JOLLY                                           01 
03030050008000000          US Rep District 13                                      UNDER VOTES                           PCT 13 THORNBERRY                                      01 
03030050009000001          US Rep District 13                                      UNDER VOTES                           PCT 14 CHARLIE                                         01 
03030050010000003          US Rep District 13                                      UNDER VOTES                           PCT 15 SW HENRIETTA                                    01 
03030050011000009          US Rep District 13                                      UNDER VOTES                           PCT 17 ARROWHEAD                                       01 
03030050012000001          US Rep District 13                                      UNDER VOTES                           PCT 20 MIDWAY                                          01 
03030050013000005          US Rep District 13                                      UNDER VOTES                           PCT 24 BELLEVUE                                        01 
03030050014000001          US Rep District 13                                      UNDER VOTES                           PCT 26 BUFFALO SPRINGS                                 01 
03030050015000001          US Rep District 13                                      UNDER VOTES                           PCT 27 PETROLIA                                        01 
03030050016000001          US Rep District 13                                      UNDER VOTES                           PCT 32 WINDTHORST                                      01 
03040010001000413REP       Governor                                                Greg Abbott                           PCT 1 SE HENRIETTA                                     01 
03040010002000200REP       Governor                                                Greg Abbott                           PCT 6 BYERS                                            01 
03040010003000405REP       Governor                                                Greg Abbott                           PCT 8 NE HENRIETTA                                     01 
03040010004000248REP       Governor                                                Greg Abbott                           PCT 9 NW HENRIETTA                                     01 
03040010005000153REP       Governor                                                Greg Abbott                           PCT 10 VASHTI                                          01 
03040010006000455REP       Governor                                                Greg Abbott                           PCT 11 DEAN                                            01 
03040010007000169REP       Governor                                                Greg Abbott                           PCT 12 JOLLY                                           01 
03040010008000075REP       Governor                                                Greg Abbott                           PCT 13 THORNBERRY                                      01 
03040010009000096REP       Governor                                                Greg Abbott                           PCT 14 CHARLIE                                         01 
03040010010000178REP       Governor                                                Greg Abbott                           PCT 15 SW HENRIETTA                                    01 
03040010011000518REP       Governor                                                Greg Abbott                           PCT 17 ARROWHEAD                                       01 
03040010012000254REP       Governor                                                Greg Abbott                           PCT 20 MIDWAY                                          01 
03040010013000172REP       Governor                                                Greg Abbott                           PCT 24 BELLEVUE                                        01 
03040010014000104REP       Governor                                                Greg Abbott                           PCT 26 BUFFALO SPRINGS                                 01 
03040010015000229REP       Governor                                                Greg Abbott                           PCT 27 PETROLIA                                        01 
03040010016000138REP       Governor                                                Greg Abbott                           PCT 32 WINDTHORST                                      01 
03040020001000065DEM       Governor                                                Lupe Valdez                           PCT 1 SE HENRIETTA                                     01 
03040020002000042DEM       Governor                                                Lupe Valdez                           PCT 6 BYERS                                            01 
03040020003000048DEM       Governor                                                Lupe Valdez                           PCT 8 NE HENRIETTA                                     01 
03040020004000034DEM       Governor                                                Lupe Valdez                           PCT 9 NW HENRIETTA                                     01 
03040020005000018DEM       Governor                                                Lupe Valdez                           PCT 10 VASHTI                                          01 
03040020006000033DEM       Governor                                                Lupe Valdez                           PCT 11 DEAN                                            01 
03040020007000025DEM       Governor                                                Lupe Valdez                           PCT 12 JOLLY                                           01 
03040020008000015DEM       Governor                                                Lupe Valdez                           PCT 13 THORNBERRY                                      01 
03040020009000012DEM       Governor                                                Lupe Valdez                           PCT 14 CHARLIE                                         01 
03040020010000030DEM       Governor                                                Lupe Valdez                           PCT 15 SW HENRIETTA                                    01 
03040020011000068DEM       Governor                                                Lupe Valdez                           PCT 17 ARROWHEAD                                       01 
03040020012000010DEM       Governor                                                Lupe Valdez                           PCT 20 MIDWAY                                          01 
03040020013000011DEM       Governor                                                Lupe Valdez                           PCT 24 BELLEVUE                                        01 
03040020014000010DEM       Governor                                                Lupe Valdez                           PCT 26 BUFFALO SPRINGS                                 01 
03040020015000022DEM       Governor                                                Lupe Valdez                           PCT 27 PETROLIA                                        01 
03040020016000006DEM       Governor                                                Lupe Valdez                           PCT 32 WINDTHORST                                      01 
03040030001000005LIB       Governor                                                Mark Jay Tippetts                     PCT 1 SE HENRIETTA                                     01 
03040030002000002LIB       Governor                                                Mark Jay Tippetts                     PCT 6 BYERS                                            01 
03040030003000006LIB       Governor                                                Mark Jay Tippetts                     PCT 8 NE HENRIETTA                                     01 
03040030004000002LIB       Governor                                                Mark Jay Tippetts                     PCT 9 NW HENRIETTA                                     01 
03040030005000002LIB       Governor                                                Mark Jay Tippetts                     PCT 10 VASHTI                                          01 
03040030006000001LIB       Governor                                                Mark Jay Tippetts                     PCT 11 DEAN                                            01 
03040030007000001LIB       Governor                                                Mark Jay Tippetts                     PCT 12 JOLLY                                           01 
03040030008000001LIB       Governor                                                Mark Jay Tippetts                     PCT 13 THORNBERRY                                      01 
03040030009000000LIB       Governor                                                Mark Jay Tippetts                     PCT 14 CHARLIE                                         01 
03040030010000002LIB       Governor                                                Mark Jay Tippetts                     PCT 15 SW HENRIETTA                                    01 
03040030011000007LIB       Governor                                                Mark Jay Tippetts                     PCT 17 ARROWHEAD                                       01 
03040030012000001LIB       Governor                                                Mark Jay Tippetts                     PCT 20 MIDWAY                                          01 
03040030013000000LIB       Governor                                                Mark Jay Tippetts                     PCT 24 BELLEVUE                                        01 
03040030014000000LIB       Governor                                                Mark Jay Tippetts                     PCT 26 BUFFALO SPRINGS                                 01 
03040030015000000LIB       Governor                                                Mark Jay Tippetts                     PCT 27 PETROLIA                                        01 
03040030016000000LIB       Governor                                                Mark Jay Tippetts                     PCT 32 WINDTHORST                                      01 
03040040001000000          Governor                                                OVER VOTES                            PCT 1 SE HENRIETTA                                     01 
03040040002000000          Governor                                                OVER VOTES                            PCT 6 BYERS                                            01 
03040040003000000          Governor                                                OVER VOTES                            PCT 8 NE HENRIETTA                                     01 
03040040004000000          Governor                                                OVER VOTES                            PCT 9 NW HENRIETTA                                     01 
03040040005000000          Governor                                                OVER VOTES                            PCT 10 VASHTI                                          01 
03040040006000000          Governor                                                OVER VOTES                            PCT 11 DEAN                                            01 
03040040007000000          Governor                                                OVER VOTES                            PCT 12 JOLLY                                           01 
03040040008000000          Governor                                                OVER VOTES                            PCT 13 THORNBERRY                                      01 
03040040009000000          Governor                                                OVER VOTES                            PCT 14 CHARLIE                                         01 
03040040010000000          Governor                                                OVER VOTES                            PCT 15 SW HENRIETTA                                    01 
03040040011000000          Governor                                                OVER VOTES                            PCT 17 ARROWHEAD                                       01 
03040040012000000          Governor                                                OVER VOTES                            PCT 20 MIDWAY                                          01 
03040040013000000          Governor                                                OVER VOTES                            PCT 24 BELLEVUE                                        01 
03040040014000000          Governor                                                OVER VOTES                            PCT 26 BUFFALO SPRINGS                                 01 
03040040015000000          Governor                                                OVER VOTES                            PCT 27 PETROLIA                                        01 
03040040016000000          Governor                                                OVER VOTES                            PCT 32 WINDTHORST                                      01 
03040050001000011          Governor                                                UNDER VOTES                           PCT 1 SE HENRIETTA                                     01 
03040050002000004          Governor                                                UNDER VOTES                           PCT 6 BYERS                                            01 
03040050003000004          Governor                                                UNDER VOTES                           PCT 8 NE HENRIETTA                                     01 
03040050004000002          Governor                                                UNDER VOTES                           PCT 9 NW HENRIETTA                                     01 
03040050005000003          Governor                                                UNDER VOTES                           PCT 10 VASHTI                                          01 
03040050006000002          Governor                                                UNDER VOTES                           PCT 11 DEAN                                            01 
03040050007000000          Governor                                                UNDER VOTES                           PCT 12 JOLLY                                           01 
03040050008000000          Governor                                                UNDER VOTES                           PCT 13 THORNBERRY                                      01 
03040050009000000          Governor                                                UNDER VOTES                           PCT 14 CHARLIE                                         01 
03040050010000000          Governor                                                UNDER VOTES                           PCT 15 SW HENRIETTA                                    01 
03040050011000008          Governor                                                UNDER VOTES                           PCT 17 ARROWHEAD                                       01 
03040050012000000          Governor                                                UNDER VOTES                           PCT 20 MIDWAY                                          01 
03040050013000005          Governor                                                UNDER VOTES                           PCT 24 BELLEVUE                                        01 
03040050014000001          Governor                                                UNDER VOTES                           PCT 26 BUFFALO SPRINGS                                 01 
03040050015000000          Governor                                                UNDER VOTES                           PCT 27 PETROLIA                                        01 
03040050016000002          Governor                                                UNDER VOTES                           PCT 32 WINDTHORST                                      01 
03050010001000376REP       Lieutenant Governor                                     Dan Patrick                           PCT 1 SE HENRIETTA                                     01 
03050010002000187REP       Lieutenant Governor                                     Dan Patrick                           PCT 6 BYERS                                            01 
03050010003000323REP       Lieutenant Governor                                     Dan Patrick                           PCT 8 NE HENRIETTA                                     01 
03050010004000225REP       Lieutenant Governor                                     Dan Patrick                           PCT 9 NW HENRIETTA                                     01 
03050010005000144REP       Lieutenant Governor                                     Dan Patrick                           PCT 10 VASHTI                                          01 
03050010006000437REP       Lieutenant Governor                                     Dan Patrick                           PCT 11 DEAN                                            01 
03050010007000155REP       Lieutenant Governor                                     Dan Patrick                           PCT 12 JOLLY                                           01 
03050010008000074REP       Lieutenant Governor                                     Dan Patrick                           PCT 13 THORNBERRY                                      01 
03050010009000088REP       Lieutenant Governor                                     Dan Patrick                           PCT 14 CHARLIE                                         01 
03050010010000153REP       Lieutenant Governor                                     Dan Patrick                           PCT 15 SW HENRIETTA                                    01 
03050010011000491REP       Lieutenant Governor                                     Dan Patrick                           PCT 17 ARROWHEAD                                       01 
03050010012000237REP       Lieutenant Governor                                     Dan Patrick                           PCT 20 MIDWAY                                          01 
03050010013000150REP       Lieutenant Governor                                     Dan Patrick                           PCT 24 BELLEVUE                                        01 
03050010014000102REP       Lieutenant Governor                                     Dan Patrick                           PCT 26 BUFFALO SPRINGS                                 01 
03050010015000218REP       Lieutenant Governor                                     Dan Patrick                           PCT 27 PETROLIA                                        01 
03050010016000130REP       Lieutenant Governor                                     Dan Patrick                           PCT 32 WINDTHORST                                      01 
03050020001000095DEM       Lieutenant Governor                                     Mike Collier                          PCT 1 SE HENRIETTA                                     01 
03050020002000052DEM       Lieutenant Governor                                     Mike Collier                          PCT 6 BYERS                                            01 
03050020003000112DEM       Lieutenant Governor                                     Mike Collier                          PCT 8 NE HENRIETTA                                     01 
03050020004000052DEM       Lieutenant Governor                                     Mike Collier                          PCT 9 NW HENRIETTA                                     01 
03050020005000024DEM       Lieutenant Governor                                     Mike Collier                          PCT 10 VASHTI                                          01 
03050020006000044DEM       Lieutenant Governor                                     Mike Collier                          PCT 11 DEAN                                            01 
03050020007000034DEM       Lieutenant Governor                                     Mike Collier                          PCT 12 JOLLY                                           01 
03050020008000017DEM       Lieutenant Governor                                     Mike Collier                          PCT 13 THORNBERRY                                      01 
03050020009000016DEM       Lieutenant Governor                                     Mike Collier                          PCT 14 CHARLIE                                         01 
03050020010000049DEM       Lieutenant Governor                                     Mike Collier                          PCT 15 SW HENRIETTA                                    01 
03050020011000099DEM       Lieutenant Governor                                     Mike Collier                          PCT 17 ARROWHEAD                                       01 
03050020012000024DEM       Lieutenant Governor                                     Mike Collier                          PCT 20 MIDWAY                                          01 
03050020013000026DEM       Lieutenant Governor                                     Mike Collier                          PCT 24 BELLEVUE                                        01 
03050020014000011DEM       Lieutenant Governor                                     Mike Collier                          PCT 26 BUFFALO SPRINGS                                 01 
03050020015000031DEM       Lieutenant Governor                                     Mike Collier                          PCT 27 PETROLIA                                        01 
03050020016000012DEM       Lieutenant Governor                                     Mike Collier                          PCT 32 WINDTHORST                                      01 
03050030001000010LIB       Lieutenant Governor                                     Kerry Douglas McKennon                PCT 1 SE HENRIETTA                                     01 
03050030002000004LIB       Lieutenant Governor                                     Kerry Douglas McKennon                PCT 6 BYERS                                            01 
03050030003000019LIB       Lieutenant Governor                                     Kerry Douglas McKennon                PCT 8 NE HENRIETTA                                     01 
03050030004000005LIB       Lieutenant Governor                                     Kerry Douglas McKennon                PCT 9 NW HENRIETTA                                     01 
03050030005000002LIB       Lieutenant Governor                                     Kerry Douglas McKennon                PCT 10 VASHTI                                          01 
03050030006000005LIB       Lieutenant Governor                                     Kerry Douglas McKennon                PCT 11 DEAN                                            01 
03050030007000005LIB       Lieutenant Governor                                     Kerry Douglas McKennon                PCT 12 JOLLY                                           01 
03050030008000000LIB       Lieutenant Governor                                     Kerry Douglas McKennon                PCT 13 THORNBERRY                                      01 
03050030009000003LIB       Lieutenant Governor                                     Kerry Douglas McKennon                PCT 14 CHARLIE                                         01 
03050030010000003LIB       Lieutenant Governor                                     Kerry Douglas McKennon                PCT 15 SW HENRIETTA                                    01 
03050030011000003LIB       Lieutenant Governor                                     Kerry Douglas McKennon                PCT 17 ARROWHEAD                                       01 
03050030012000002LIB       Lieutenant Governor                                     Kerry Douglas McKennon                PCT 20 MIDWAY                                          01 
03050030013000002LIB       Lieutenant Governor                                     Kerry Douglas McKennon                PCT 24 BELLEVUE                                        01 
03050030014000001LIB       Lieutenant Governor                                     Kerry Douglas McKennon                PCT 26 BUFFALO SPRINGS                                 01 
03050030015000001LIB       Lieutenant Governor                                     Kerry Douglas McKennon                PCT 27 PETROLIA                                        01 
03050030016000000LIB       Lieutenant Governor                                     Kerry Douglas McKennon                PCT 32 WINDTHORST                                      01 
03050040001000000          Lieutenant Governor                                     OVER VOTES                            PCT 1 SE HENRIETTA                                     01 
03050040002000000          Lieutenant Governor                                     OVER VOTES                            PCT 6 BYERS                                            01 
03050040003000000          Lieutenant Governor                                     OVER VOTES                            PCT 8 NE HENRIETTA                                     01 
03050040004000000          Lieutenant Governor                                     OVER VOTES                            PCT 9 NW HENRIETTA                                     01 
03050040005000000          Lieutenant Governor                                     OVER VOTES                            PCT 10 VASHTI                                          01 
03050040006000000          Lieutenant Governor                                     OVER VOTES                            PCT 11 DEAN                                            01 
03050040007000000          Lieutenant Governor                                     OVER VOTES                            PCT 12 JOLLY                                           01 
03050040008000000          Lieutenant Governor                                     OVER VOTES                            PCT 13 THORNBERRY                                      01 
03050040009000000          Lieutenant Governor                                     OVER VOTES                            PCT 14 CHARLIE                                         01 
03050040010000000          Lieutenant Governor                                     OVER VOTES                            PCT 15 SW HENRIETTA                                    01 
03050040011000000          Lieutenant Governor                                     OVER VOTES                            PCT 17 ARROWHEAD                                       01 
03050040012000000          Lieutenant Governor                                     OVER VOTES                            PCT 20 MIDWAY                                          01 
03050040013000000          Lieutenant Governor                                     OVER VOTES                            PCT 24 BELLEVUE                                        01 
03050040014000000          Lieutenant Governor                                     OVER VOTES                            PCT 26 BUFFALO SPRINGS                                 01 
03050040015000000          Lieutenant Governor                                     OVER VOTES                            PCT 27 PETROLIA                                        01 
03050040016000001          Lieutenant Governor                                     OVER VOTES                            PCT 32 WINDTHORST                                      01 
03050050001000013          Lieutenant Governor                                     UNDER VOTES                           PCT 1 SE HENRIETTA                                     01 
03050050002000005          Lieutenant Governor                                     UNDER VOTES                           PCT 6 BYERS                                            01 
03050050003000009          Lieutenant Governor                                     UNDER VOTES                           PCT 8 NE HENRIETTA                                     01 
03050050004000004          Lieutenant Governor                                     UNDER VOTES                           PCT 9 NW HENRIETTA                                     01 
03050050005000006          Lieutenant Governor                                     UNDER VOTES                           PCT 10 VASHTI                                          01 
03050050006000005          Lieutenant Governor                                     UNDER VOTES                           PCT 11 DEAN                                            01 
03050050007000001          Lieutenant Governor                                     UNDER VOTES                           PCT 12 JOLLY                                           01 
03050050008000000          Lieutenant Governor                                     UNDER VOTES                           PCT 13 THORNBERRY                                      01 
03050050009000001          Lieutenant Governor                                     UNDER VOTES                           PCT 14 CHARLIE                                         01 
03050050010000005          Lieutenant Governor                                     UNDER VOTES                           PCT 15 SW HENRIETTA                                    01 
03050050011000008          Lieutenant Governor                                     UNDER VOTES                           PCT 17 ARROWHEAD                                       01 
03050050012000002          Lieutenant Governor                                     UNDER VOTES                           PCT 20 MIDWAY                                          01 
03050050013000010          Lieutenant Governor                                     UNDER VOTES                           PCT 24 BELLEVUE                                        01 
03050050014000001          Lieutenant Governor                                     UNDER VOTES                           PCT 26 BUFFALO SPRINGS                                 01 
03050050015000001          Lieutenant Governor                                     UNDER VOTES                           PCT 27 PETROLIA                                        01 
03050050016000003          Lieutenant Governor                                     UNDER VOTES                           PCT 32 WINDTHORST                                      01 
03060010001000384REP       Attorney General                                        Ken Paxton                            PCT 1 SE HENRIETTA                                     01 
03060010002000189REP       Attorney General                                        Ken Paxton                            PCT 6 BYERS                                            01 
03060010003000372REP       Attorney General                                        Ken Paxton                            PCT 8 NE HENRIETTA                                     01 
03060010004000232REP       Attorney General                                        Ken Paxton                            PCT 9 NW HENRIETTA                                     01 
03060010005000150REP       Attorney General                                        Ken Paxton                            PCT 10 VASHTI                                          01 
03060010006000444REP       Attorney General                                        Ken Paxton                            PCT 11 DEAN                                            01 
03060010007000161REP       Attorney General                                        Ken Paxton                            PCT 12 JOLLY                                           01 
03060010008000075REP       Attorney General                                        Ken Paxton                            PCT 13 THORNBERRY                                      01 
03060010009000092REP       Attorney General                                        Ken Paxton                            PCT 14 CHARLIE                                         01 
03060010010000164REP       Attorney General                                        Ken Paxton                            PCT 15 SW HENRIETTA                                    01 
03060010011000493REP       Attorney General                                        Ken Paxton                            PCT 17 ARROWHEAD                                       01 
03060010012000238REP       Attorney General                                        Ken Paxton                            PCT 20 MIDWAY                                          01 
03060010013000164REP       Attorney General                                        Ken Paxton                            PCT 24 BELLEVUE                                        01 
03060010014000102REP       Attorney General                                        Ken Paxton                            PCT 26 BUFFALO SPRINGS                                 01 
03060010015000216REP       Attorney General                                        Ken Paxton                            PCT 27 PETROLIA                                        01 
03060010016000131REP       Attorney General                                        Ken Paxton                            PCT 32 WINDTHORST                                      01 
03060020001000082DEM       Attorney General                                        Justin Nelson                         PCT 1 SE HENRIETTA                                     01 
03060020002000050DEM       Attorney General                                        Justin Nelson                         PCT 6 BYERS                                            01 
03060020003000070DEM       Attorney General                                        Justin Nelson                         PCT 8 NE HENRIETTA                                     01 
03060020004000045DEM       Attorney General                                        Justin Nelson                         PCT 9 NW HENRIETTA                                     01 
03060020005000020DEM       Attorney General                                        Justin Nelson                         PCT 10 VASHTI                                          01 
03060020006000037DEM       Attorney General                                        Justin Nelson                         PCT 11 DEAN                                            01 
03060020007000027DEM       Attorney General                                        Justin Nelson                         PCT 12 JOLLY                                           01 
03060020008000015DEM       Attorney General                                        Justin Nelson                         PCT 13 THORNBERRY                                      01 
03060020009000013DEM       Attorney General                                        Justin Nelson                         PCT 14 CHARLIE                                         01 
03060020010000039DEM       Attorney General                                        Justin Nelson                         PCT 15 SW HENRIETTA                                    01 
03060020011000094DEM       Attorney General                                        Justin Nelson                         PCT 17 ARROWHEAD                                       01 
03060020012000019DEM       Attorney General                                        Justin Nelson                         PCT 20 MIDWAY                                          01 
03060020013000014DEM       Attorney General                                        Justin Nelson                         PCT 24 BELLEVUE                                        01 
03060020014000011DEM       Attorney General                                        Justin Nelson                         PCT 26 BUFFALO SPRINGS                                 01 
03060020015000032DEM       Attorney General                                        Justin Nelson                         PCT 27 PETROLIA                                        01 
03060020016000011DEM       Attorney General                                        Justin Nelson                         PCT 32 WINDTHORST                                      01 
03060030001000010LIB       Attorney General                                        Michael Ray Harris                    PCT 1 SE HENRIETTA                                     01 
03060030002000003LIB       Attorney General                                        Michael Ray Harris                    PCT 6 BYERS                                            01 
03060030003000011LIB       Attorney General                                        Michael Ray Harris                    PCT 8 NE HENRIETTA                                     01 
03060030004000005LIB       Attorney General                                        Michael Ray Harris                    PCT 9 NW HENRIETTA                                     01 
03060030005000002LIB       Attorney General                                        Michael Ray Harris                    PCT 10 VASHTI                                          01 
03060030006000004LIB       Attorney General                                        Michael Ray Harris                    PCT 11 DEAN                                            01 
03060030007000006LIB       Attorney General                                        Michael Ray Harris                    PCT 12 JOLLY                                           01 
03060030008000001LIB       Attorney General                                        Michael Ray Harris                    PCT 13 THORNBERRY                                      01 
03060030009000002LIB       Attorney General                                        Michael Ray Harris                    PCT 14 CHARLIE                                         01 
03060030010000004LIB       Attorney General                                        Michael Ray Harris                    PCT 15 SW HENRIETTA                                    01 
03060030011000005LIB       Attorney General                                        Michael Ray Harris                    PCT 17 ARROWHEAD                                       01 
03060030012000007LIB       Attorney General                                        Michael Ray Harris                    PCT 20 MIDWAY                                          01 
03060030013000002LIB       Attorney General                                        Michael Ray Harris                    PCT 24 BELLEVUE                                        01 
03060030014000001LIB       Attorney General                                        Michael Ray Harris                    PCT 26 BUFFALO SPRINGS                                 01 
03060030015000002LIB       Attorney General                                        Michael Ray Harris                    PCT 27 PETROLIA                                        01 
03060030016000001LIB       Attorney General                                        Michael Ray Harris                    PCT 32 WINDTHORST                                      01 
03060040001000000          Attorney General                                        OVER VOTES                            PCT 1 SE HENRIETTA                                     01 
03060040002000000          Attorney General                                        OVER VOTES                            PCT 6 BYERS                                            01 
03060040003000000          Attorney General                                        OVER VOTES                            PCT 8 NE HENRIETTA                                     01 
03060040004000000          Attorney General                                        OVER VOTES                            PCT 9 NW HENRIETTA                                     01 
03060040005000000          Attorney General                                        OVER VOTES                            PCT 10 VASHTI                                          01 
03060040006000000          Attorney General                                        OVER VOTES                            PCT 11 DEAN                                            01 
03060040007000000          Attorney General                                        OVER VOTES                            PCT 12 JOLLY                                           01 
03060040008000000          Attorney General                                        OVER VOTES                            PCT 13 THORNBERRY                                      01 
03060040009000000          Attorney General                                        OVER VOTES                            PCT 14 CHARLIE                                         01 
03060040010000000          Attorney General                                        OVER VOTES                            PCT 15 SW HENRIETTA                                    01 
03060040011000000          Attorney General                                        OVER VOTES                            PCT 17 ARROWHEAD                                       01 
03060040012000000          Attorney General                                        OVER VOTES                            PCT 20 MIDWAY                                          01 
03060040013000001          Attorney General                                        OVER VOTES                            PCT 24 BELLEVUE                                        01 
03060040014000000          Attorney General                                        OVER VOTES                            PCT 26 BUFFALO SPRINGS                                 01 
03060040015000000          Attorney General                                        OVER VOTES                            PCT 27 PETROLIA                                        01 
03060040016000000          Attorney General                                        OVER VOTES                            PCT 32 WINDTHORST                                      01 
03060050001000018          Attorney General                                        UNDER VOTES                           PCT 1 SE HENRIETTA                                     01 
03060050002000006          Attorney General                                        UNDER VOTES                           PCT 6 BYERS                                            01 
03060050003000010          Attorney General                                        UNDER VOTES                           PCT 8 NE HENRIETTA                                     01 
03060050004000004          Attorney General                                        UNDER VOTES                           PCT 9 NW HENRIETTA                                     01 
03060050005000004          Attorney General                                        UNDER VOTES                           PCT 10 VASHTI                                          01 
03060050006000006          Attorney General                                        UNDER VOTES                           PCT 11 DEAN                                            01 
03060050007000001          Attorney General                                        UNDER VOTES                           PCT 12 JOLLY                                           01 
03060050008000000          Attorney General                                        UNDER VOTES                           PCT 13 THORNBERRY                                      01 
03060050009000001          Attorney General                                        UNDER VOTES                           PCT 14 CHARLIE                                         01 
03060050010000003          Attorney General                                        UNDER VOTES                           PCT 15 SW HENRIETTA                                    01 
03060050011000009          Attorney General                                        UNDER VOTES                           PCT 17 ARROWHEAD                                       01 
03060050012000001          Attorney General                                        UNDER VOTES                           PCT 20 MIDWAY                                          01 
03060050013000007          Attorney General                                        UNDER VOTES                           PCT 24 BELLEVUE                                        01 
03060050014000001          Attorney General                                        UNDER VOTES                           PCT 26 BUFFALO SPRINGS                                 01 
03060050015000001          Attorney General                                        UNDER VOTES                           PCT 27 PETROLIA                                        01 
03060050016000003          Attorney General                                        UNDER VOTES                           PCT 32 WINDTHORST                                      01 
03070010001000393REP       Comptroller of Public Accounts                          Glenn Hegar                           PCT 1 SE HENRIETTA                                     01 
03070010002000190REP       Comptroller of Public Accounts                          Glenn Hegar                           PCT 6 BYERS                                            01 
03070010003000372REP       Comptroller of Public Accounts                          Glenn Hegar                           PCT 8 NE HENRIETTA                                     01 
03070010004000232REP       Comptroller of Public Accounts                          Glenn Hegar                           PCT 9 NW HENRIETTA                                     01 
03070010005000150REP       Comptroller of Public Accounts                          Glenn Hegar                           PCT 10 VASHTI                                          01 
03070010006000442REP       Comptroller of Public Accounts                          Glenn Hegar                           PCT 11 DEAN                                            01 
03070010007000163REP       Comptroller of Public Accounts                          Glenn Hegar                           PCT 12 JOLLY                                           01 
03070010008000076REP       Comptroller of Public Accounts                          Glenn Hegar                           PCT 13 THORNBERRY                                      01 
03070010009000093REP       Comptroller of Public Accounts                          Glenn Hegar                           PCT 14 CHARLIE                                         01 
03070010010000163REP       Comptroller of Public Accounts                          Glenn Hegar                           PCT 15 SW HENRIETTA                                    01 
03070010011000495REP       Comptroller of Public Accounts                          Glenn Hegar                           PCT 17 ARROWHEAD                                       01 
03070010012000241REP       Comptroller of Public Accounts                          Glenn Hegar                           PCT 20 MIDWAY                                          01 
03070010013000161REP       Comptroller of Public Accounts                          Glenn Hegar                           PCT 24 BELLEVUE                                        01 
03070010014000101REP       Comptroller of Public Accounts                          Glenn Hegar                           PCT 26 BUFFALO SPRINGS                                 01 
03070010015000217REP       Comptroller of Public Accounts                          Glenn Hegar                           PCT 27 PETROLIA                                        01 
03070010016000129REP       Comptroller of Public Accounts                          Glenn Hegar                           PCT 32 WINDTHORST                                      01 
03070020001000068DEM       Comptroller of Public Accounts                          Joi Chevalier                         PCT 1 SE HENRIETTA                                     01 
03070020002000040DEM       Comptroller of Public Accounts                          Joi Chevalier                         PCT 6 BYERS                                            01 
03070020003000053DEM       Comptroller of Public Accounts                          Joi Chevalier                         PCT 8 NE HENRIETTA                                     01 
03070020004000033DEM       Comptroller of Public Accounts                          Joi Chevalier                         PCT 9 NW HENRIETTA                                     01 
03070020005000016DEM       Comptroller of Public Accounts                          Joi Chevalier                         PCT 10 VASHTI                                          01 
03070020006000028DEM       Comptroller of Public Accounts                          Joi Chevalier                         PCT 11 DEAN                                            01 
03070020007000026DEM       Comptroller of Public Accounts                          Joi Chevalier                         PCT 12 JOLLY                                           01 
03070020008000013DEM       Comptroller of Public Accounts                          Joi Chevalier                         PCT 13 THORNBERRY                                      01 
