01970014043000340NONCTYCONVCity of Converse Council, Place 2                       Nancy Droneburg                                                                              01 
01970014059000310NONCTYCONVCity of Converse Council, Place 2                       Nancy Droneburg                                                                              01 
01970014067000173NONCTYCONVCity of Converse Council, Place 2                       Nancy Droneburg                                                                              01 
01970014083000074NONCTYCONVCity of Converse Council, Place 2                       Nancy Droneburg                                                                              01 
01970014109000002NONCTYCONVCity of Converse Council, Place 2                       Nancy Droneburg                                                                              01 
01970014114000005NONCTYCONVCity of Converse Council, Place 2                       Nancy Droneburg                                                                              01 
01970014130000097NONCTYCONVCity of Converse Council, Place 2                       Nancy Droneburg                                                                              01 
01970014132000269NONCTYCONVCity of Converse Council, Place 2                       Nancy Droneburg                                                                              01 
01970014162000284NONCTYCONVCity of Converse Council, Place 2                       Nancy Droneburg                                                                              01 
01970014163000206NONCTYCONVCity of Converse Council, Place 2                       Nancy Droneburg                                                                              01 
01970014187000000NONCTYCONVCity of Converse Council, Place 2                       Nancy Droneburg                                                                              01 
01970014189000000NONCTYCONVCity of Converse Council, Place 2                       Nancy Droneburg                                                                              01 
01970014191000000NONCTYCONVCity of Converse Council, Place 2                       Nancy Droneburg                                                                              01 
01970014196000000NONCTYCONVCity of Converse Council, Place 2                       Nancy Droneburg                                                                              01 
01970014197000001NONCTYCONVCity of Converse Council, Place 2                       Nancy Droneburg                                                                              01 
01970014201000001NONCTYCONVCity of Converse Council, Place 2                       Nancy Droneburg                                                                              01 
01970024043000593NONCTYCONVCity of Converse Council, Place 2                       Deborah James                                                                                01 
01970024059000347NONCTYCONVCity of Converse Council, Place 2                       Deborah James                                                                                01 
01970024067000251NONCTYCONVCity of Converse Council, Place 2                       Deborah James                                                                                01 
01970024083000133NONCTYCONVCity of Converse Council, Place 2                       Deborah James                                                                                01 
01970024109000005NONCTYCONVCity of Converse Council, Place 2                       Deborah James                                                                                01 
01970024114000009NONCTYCONVCity of Converse Council, Place 2                       Deborah James                                                                                01 
01970024130000125NONCTYCONVCity of Converse Council, Place 2                       Deborah James                                                                                01 
01970024132000463NONCTYCONVCity of Converse Council, Place 2                       Deborah James                                                                                01 
01970024162000346NONCTYCONVCity of Converse Council, Place 2                       Deborah James                                                                                01 
01970024163000367NONCTYCONVCity of Converse Council, Place 2                       Deborah James                                                                                01 
01970024187000000NONCTYCONVCity of Converse Council, Place 2                       Deborah James                                                                                01 
01970024189000001NONCTYCONVCity of Converse Council, Place 2                       Deborah James                                                                                01 
01970024191000000NONCTYCONVCity of Converse Council, Place 2                       Deborah James                                                                                01 
01970024196000000NONCTYCONVCity of Converse Council, Place 2                       Deborah James                                                                                01 
01970024197000002NONCTYCONVCity of Converse Council, Place 2                       Deborah James                                                                                01 
01970024201000002NONCTYCONVCity of Converse Council, Place 2                       Deborah James                                                                                01 
01970034043000000   CTYCONVCity of Converse Council, Place 2                       OVER VOTES                                                                                   01 
01970034059000000   CTYCONVCity of Converse Council, Place 2                       OVER VOTES                                                                                   01 
01970034067000000   CTYCONVCity of Converse Council, Place 2                       OVER VOTES                                                                                   01 
01970034083000000   CTYCONVCity of Converse Council, Place 2                       OVER VOTES                                                                                   01 
01970034109000000   CTYCONVCity of Converse Council, Place 2                       OVER VOTES                                                                                   01 
01970034114000000   CTYCONVCity of Converse Council, Place 2                       OVER VOTES                                                                                   01 
01970034130000000   CTYCONVCity of Converse Council, Place 2                       OVER VOTES                                                                                   01 
01970034132000000   CTYCONVCity of Converse Council, Place 2                       OVER VOTES                                                                                   01 
01970034162000000   CTYCONVCity of Converse Council, Place 2                       OVER VOTES                                                                                   01 
01970034163000000   CTYCONVCity of Converse Council, Place 2                       OVER VOTES                                                                                   01 
01970034187000000   CTYCONVCity of Converse Council, Place 2                       OVER VOTES                                                                                   01 
01970034189000000   CTYCONVCity of Converse Council, Place 2                       OVER VOTES                                                                                   01 
01970034191000000   CTYCONVCity of Converse Council, Place 2                       OVER VOTES                                                                                   01 
01970034196000000   CTYCONVCity of Converse Council, Place 2                       OVER VOTES                                                                                   01 
01970034197000000   CTYCONVCity of Converse Council, Place 2                       OVER VOTES                                                                                   01 
01970034201000000   CTYCONVCity of Converse Council, Place 2                       OVER VOTES                                                                                   01 
01970044043000452   CTYCONVCity of Converse Council, Place 2                       UNDER VOTES                                                                                  01 
01970044059000491   CTYCONVCity of Converse Council, Place 2                       UNDER VOTES                                                                                  01 
01970044067000304   CTYCONVCity of Converse Council, Place 2                       UNDER VOTES                                                                                  01 
01970044083000134   CTYCONVCity of Converse Council, Place 2                       UNDER VOTES                                                                                  01 
01970044109000006   CTYCONVCity of Converse Council, Place 2                       UNDER VOTES                                                                                  01 
01970044114000009   CTYCONVCity of Converse Council, Place 2                       UNDER VOTES                                                                                  01 
01970044130000137   CTYCONVCity of Converse Council, Place 2                       UNDER VOTES                                                                                  01 
01970044132000393   CTYCONVCity of Converse Council, Place 2                       UNDER VOTES                                                                                  01 
01970044162000437   CTYCONVCity of Converse Council, Place 2                       UNDER VOTES                                                                                  01 
01970044163000413   CTYCONVCity of Converse Council, Place 2                       UNDER VOTES                                                                                  01 
01970044187000000   CTYCONVCity of Converse Council, Place 2                       UNDER VOTES                                                                                  01 
01970044189000000   CTYCONVCity of Converse Council, Place 2                       UNDER VOTES                                                                                  01 
01970044191000000   CTYCONVCity of Converse Council, Place 2                       UNDER VOTES                                                                                  01 
01970044196000000   CTYCONVCity of Converse Council, Place 2                       UNDER VOTES                                                                                  01 
01970044197000003   CTYCONVCity of Converse Council, Place 2                       UNDER VOTES                                                                                  01 
01970044201000006   CTYCONVCity of Converse Council, Place 2                       UNDER VOTES                                                                                  01 
01980014043000390NONCTYCONVCity of Converse Council, Place 4                       Joan Lindgren                                                                                01 
01980014059000283NONCTYCONVCity of Converse Council, Place 4                       Joan Lindgren                                                                                01 
01980014067000158NONCTYCONVCity of Converse Council, Place 4                       Joan Lindgren                                                                                01 
01980014083000066NONCTYCONVCity of Converse Council, Place 4                       Joan Lindgren                                                                                01 
01980014109000004NONCTYCONVCity of Converse Council, Place 4                       Joan Lindgren                                                                                01 
01980014114000006NONCTYCONVCity of Converse Council, Place 4                       Joan Lindgren                                                                                01 
01980014130000081NONCTYCONVCity of Converse Council, Place 4                       Joan Lindgren                                                                                01 
01980014132000322NONCTYCONVCity of Converse Council, Place 4                       Joan Lindgren                                                                                01 
01980014162000240NONCTYCONVCity of Converse Council, Place 4                       Joan Lindgren                                                                                01 
01980014163000227NONCTYCONVCity of Converse Council, Place 4                       Joan Lindgren                                                                                01 
01980014187000000NONCTYCONVCity of Converse Council, Place 4                       Joan Lindgren                                                                                01 
01980014189000000NONCTYCONVCity of Converse Council, Place 4                       Joan Lindgren                                                                                01 
01980014191000000NONCTYCONVCity of Converse Council, Place 4                       Joan Lindgren                                                                                01 
01980014196000000NONCTYCONVCity of Converse Council, Place 4                       Joan Lindgren                                                                                01 
01980014197000002NONCTYCONVCity of Converse Council, Place 4                       Joan Lindgren                                                                                01 
01980014201000001NONCTYCONVCity of Converse Council, Place 4                       Joan Lindgren                                                                                01 
01980024043000519NONCTYCONVCity of Converse Council, Place 4                       Kate Silvas                                                                                  01 
01980024059000407NONCTYCONVCity of Converse Council, Place 4                       Kate Silvas                                                                                  01 
01980024067000257NONCTYCONVCity of Converse Council, Place 4                       Kate Silvas                                                                                  01 
01980024083000138NONCTYCONVCity of Converse Council, Place 4                       Kate Silvas                                                                                  01 
01980024109000003NONCTYCONVCity of Converse Council, Place 4                       Kate Silvas                                                                                  01 
01980024114000011NONCTYCONVCity of Converse Council, Place 4                       Kate Silvas                                                                                  01 
01980024130000145NONCTYCONVCity of Converse Council, Place 4                       Kate Silvas                                                                                  01 
01980024132000425NONCTYCONVCity of Converse Council, Place 4                       Kate Silvas                                                                                  01 
01980024162000397NONCTYCONVCity of Converse Council, Place 4                       Kate Silvas                                                                                  01 
01980024163000370NONCTYCONVCity of Converse Council, Place 4                       Kate Silvas                                                                                  01 
01980024187000000NONCTYCONVCity of Converse Council, Place 4                       Kate Silvas                                                                                  01 
01980024189000001NONCTYCONVCity of Converse Council, Place 4                       Kate Silvas                                                                                  01 
01980024191000000NONCTYCONVCity of Converse Council, Place 4                       Kate Silvas                                                                                  01 
01980024196000000NONCTYCONVCity of Converse Council, Place 4                       Kate Silvas                                                                                  01 
01980024197000003NONCTYCONVCity of Converse Council, Place 4                       Kate Silvas                                                                                  01 
01980024201000001NONCTYCONVCity of Converse Council, Place 4                       Kate Silvas                                                                                  01 
01980034043000000   CTYCONVCity of Converse Council, Place 4                       OVER VOTES                                                                                   01 
01980034059000000   CTYCONVCity of Converse Council, Place 4                       OVER VOTES                                                                                   01 
01980034067000000   CTYCONVCity of Converse Council, Place 4                       OVER VOTES                                                                                   01 
01980034083000000   CTYCONVCity of Converse Council, Place 4                       OVER VOTES                                                                                   01 
01980034109000000   CTYCONVCity of Converse Council, Place 4                       OVER VOTES                                                                                   01 
01980034114000000   CTYCONVCity of Converse Council, Place 4                       OVER VOTES                                                                                   01 
01980034130000000   CTYCONVCity of Converse Council, Place 4                       OVER VOTES                                                                                   01 
01980034132000000   CTYCONVCity of Converse Council, Place 4                       OVER VOTES                                                                                   01 
01980034162000000   CTYCONVCity of Converse Council, Place 4                       OVER VOTES                                                                                   01 
01980034163000000   CTYCONVCity of Converse Council, Place 4                       OVER VOTES                                                                                   01 
01980034187000000   CTYCONVCity of Converse Council, Place 4                       OVER VOTES                                                                                   01 
01980034189000000   CTYCONVCity of Converse Council, Place 4                       OVER VOTES                                                                                   01 
01980034191000000   CTYCONVCity of Converse Council, Place 4                       OVER VOTES                                                                                   01 
01980034196000000   CTYCONVCity of Converse Council, Place 4                       OVER VOTES                                                                                   01 
01980034197000000   CTYCONVCity of Converse Council, Place 4                       OVER VOTES                                                                                   01 
01980034201000000   CTYCONVCity of Converse Council, Place 4                       OVER VOTES                                                                                   01 
01980044043000476   CTYCONVCity of Converse Council, Place 4                       UNDER VOTES                                                                                  01 
01980044059000458   CTYCONVCity of Converse Council, Place 4                       UNDER VOTES                                                                                  01 
01980044067000313   CTYCONVCity of Converse Council, Place 4                       UNDER VOTES                                                                                  01 
01980044083000137   CTYCONVCity of Converse Council, Place 4                       UNDER VOTES                                                                                  01 
01980044109000006   CTYCONVCity of Converse Council, Place 4                       UNDER VOTES                                                                                  01 
01980044114000006   CTYCONVCity of Converse Council, Place 4                       UNDER VOTES                                                                                  01 
01980044130000133   CTYCONVCity of Converse Council, Place 4                       UNDER VOTES                                                                                  01 
01980044132000378   CTYCONVCity of Converse Council, Place 4                       UNDER VOTES                                                                                  01 
01980044162000430   CTYCONVCity of Converse Council, Place 4                       UNDER VOTES                                                                                  01 
01980044163000389   CTYCONVCity of Converse Council, Place 4                       UNDER VOTES                                                                                  01 
01980044187000000   CTYCONVCity of Converse Council, Place 4                       UNDER VOTES                                                                                  01 
01980044189000000   CTYCONVCity of Converse Council, Place 4                       UNDER VOTES                                                                                  01 
01980044191000000   CTYCONVCity of Converse Council, Place 4                       UNDER VOTES                                                                                  01 
01980044196000000   CTYCONVCity of Converse Council, Place 4                       UNDER VOTES                                                                                  01 
01980044197000001   CTYCONVCity of Converse Council, Place 4                       UNDER VOTES                                                                                  01 
01980044201000007   CTYCONVCity of Converse Council, Place 4                       UNDER VOTES                                                                                  01 
01990014043000507NONCTYCONVCity of Converse Council, Place 6                       Marc Gilbert                                                                                 01 
01990014059000356NONCTYCONVCity of Converse Council, Place 6                       Marc Gilbert                                                                                 01 
01990014067000241NONCTYCONVCity of Converse Council, Place 6                       Marc Gilbert                                                                                 01 
01990014083000107NONCTYCONVCity of Converse Council, Place 6                       Marc Gilbert                                                                                 01 
01990014109000006NONCTYCONVCity of Converse Council, Place 6                       Marc Gilbert                                                                                 01 
01990014114000007NONCTYCONVCity of Converse Council, Place 6                       Marc Gilbert                                                                                 01 
01990014130000128NONCTYCONVCity of Converse Council, Place 6                       Marc Gilbert                                                                                 01 
01990014132000405NONCTYCONVCity of Converse Council, Place 6                       Marc Gilbert                                                                                 01 
01990014162000337NONCTYCONVCity of Converse Council, Place 6                       Marc Gilbert                                                                                 01 
01990014163000314NONCTYCONVCity of Converse Council, Place 6                       Marc Gilbert                                                                                 01 
01990014187000000NONCTYCONVCity of Converse Council, Place 6                       Marc Gilbert                                                                                 01 
01990014189000001NONCTYCONVCity of Converse Council, Place 6                       Marc Gilbert                                                                                 01 
01990014191000000NONCTYCONVCity of Converse Council, Place 6                       Marc Gilbert                                                                                 01 
01990014196000000NONCTYCONVCity of Converse Council, Place 6                       Marc Gilbert                                                                                 01 
01990014197000003NONCTYCONVCity of Converse Council, Place 6                       Marc Gilbert                                                                                 01 
01990014201000002NONCTYCONVCity of Converse Council, Place 6                       Marc Gilbert                                                                                 01 
01990024043000414NONCTYCONVCity of Converse Council, Place 6                       Billy Ortiz                                                                                  01 
01990024059000307NONCTYCONVCity of Converse Council, Place 6                       Billy Ortiz                                                                                  01 
01990024067000191NONCTYCONVCity of Converse Council, Place 6                       Billy Ortiz                                                                                  01 
01990024083000097NONCTYCONVCity of Converse Council, Place 6                       Billy Ortiz                                                                                  01 
01990024109000002NONCTYCONVCity of Converse Council, Place 6                       Billy Ortiz                                                                                  01 
01990024114000008NONCTYCONVCity of Converse Council, Place 6                       Billy Ortiz                                                                                  01 
01990024130000101NONCTYCONVCity of Converse Council, Place 6                       Billy Ortiz                                                                                  01 
01990024132000356NONCTYCONVCity of Converse Council, Place 6                       Billy Ortiz                                                                                  01 
01990024162000307NONCTYCONVCity of Converse Council, Place 6                       Billy Ortiz                                                                                  01 
01990024163000279NONCTYCONVCity of Converse Council, Place 6                       Billy Ortiz                                                                                  01 
01990024187000000NONCTYCONVCity of Converse Council, Place 6                       Billy Ortiz                                                                                  01 
01990024189000000NONCTYCONVCity of Converse Council, Place 6                       Billy Ortiz                                                                                  01 
01990024191000000NONCTYCONVCity of Converse Council, Place 6                       Billy Ortiz                                                                                  01 
01990024196000000NONCTYCONVCity of Converse Council, Place 6                       Billy Ortiz                                                                                  01 
01990024197000002NONCTYCONVCity of Converse Council, Place 6                       Billy Ortiz                                                                                  01 
01990024201000002NONCTYCONVCity of Converse Council, Place 6                       Billy Ortiz                                                                                  01 
01990034043000000   CTYCONVCity of Converse Council, Place 6                       OVER VOTES                                                                                   01 
01990034059000000   CTYCONVCity of Converse Council, Place 6                       OVER VOTES                                                                                   01 
01990034067000000   CTYCONVCity of Converse Council, Place 6                       OVER VOTES                                                                                   01 
01990034083000000   CTYCONVCity of Converse Council, Place 6                       OVER VOTES                                                                                   01 
01990034109000000   CTYCONVCity of Converse Council, Place 6                       OVER VOTES                                                                                   01 
01990034114000000   CTYCONVCity of Converse Council, Place 6                       OVER VOTES                                                                                   01 
01990034130000000   CTYCONVCity of Converse Council, Place 6                       OVER VOTES                                                                                   01 
01990034132000000   CTYCONVCity of Converse Council, Place 6                       OVER VOTES                                                                                   01 
01990034162000000   CTYCONVCity of Converse Council, Place 6                       OVER VOTES                                                                                   01 
01990034163000000   CTYCONVCity of Converse Council, Place 6                       OVER VOTES                                                                                   01 
01990034187000000   CTYCONVCity of Converse Council, Place 6                       OVER VOTES                                                                                   01 
01990034189000000   CTYCONVCity of Converse Council, Place 6                       OVER VOTES                                                                                   01 
01990034191000000   CTYCONVCity of Converse Council, Place 6                       OVER VOTES                                                                                   01 
01990034196000000   CTYCONVCity of Converse Council, Place 6                       OVER VOTES                                                                                   01 
01990034197000000   CTYCONVCity of Converse Council, Place 6                       OVER VOTES                                                                                   01 
01990034201000000   CTYCONVCity of Converse Council, Place 6                       OVER VOTES                                                                                   01 
01990044043000464   CTYCONVCity of Converse Council, Place 6                       UNDER VOTES                                                                                  01 
01990044059000485   CTYCONVCity of Converse Council, Place 6                       UNDER VOTES                                                                                  01 
01990044067000296   CTYCONVCity of Converse Council, Place 6                       UNDER VOTES                                                                                  01 
01990044083000137   CTYCONVCity of Converse Council, Place 6                       UNDER VOTES                                                                                  01 
01990044109000005   CTYCONVCity of Converse Council, Place 6                       UNDER VOTES                                                                                  01 
01990044114000008   CTYCONVCity of Converse Council, Place 6                       UNDER VOTES                                                                                  01 
01990044130000130   CTYCONVCity of Converse Council, Place 6                       UNDER VOTES                                                                                  01 
01990044132000364   CTYCONVCity of Converse Council, Place 6                       UNDER VOTES                                                                                  01 
01990044162000423   CTYCONVCity of Converse Council, Place 6                       UNDER VOTES                                                                                  01 
01990044163000393   CTYCONVCity of Converse Council, Place 6                       UNDER VOTES                                                                                  01 
01990044187000000   CTYCONVCity of Converse Council, Place 6                       UNDER VOTES                                                                                  01 
01990044189000000   CTYCONVCity of Converse Council, Place 6                       UNDER VOTES                                                                                  01 
01990044191000000   CTYCONVCity of Converse Council, Place 6                       UNDER VOTES                                                                                  01 
01990044196000000   CTYCONVCity of Converse Council, Place 6                       UNDER VOTES                                                                                  01 
01990044197000001   CTYCONVCity of Converse Council, Place 6                       UNDER VOTES                                                                                  01 
01990044201000005   CTYCONVCity of Converse Council, Place 6                       UNDER VOTES                                                                                  01 
02000014043000895NONCTYCONVCity of Converse Proposition A                          For                                                                                          01Y
02000014059000767NONCTYCONVCity of Converse Proposition A                          For                                                                                          01Y
02000014067000445NONCTYCONVCity of Converse Proposition A                          For                                                                                          01Y
02000014083000233NONCTYCONVCity of Converse Proposition A                          For                                                                                          01Y
02000014109000008NONCTYCONVCity of Converse Proposition A                          For                                                                                          01Y
02000014114000013NONCTYCONVCity of Converse Proposition A                          For                                                                                          01Y
02000014130000233NONCTYCONVCity of Converse Proposition A                          For                                                                                          01Y
02000014132000732NONCTYCONVCity of Converse Proposition A                          For                                                                                          01Y
02000014162000689NONCTYCONVCity of Converse Proposition A                          For                                                                                          01Y
02000014163000664NONCTYCONVCity of Converse Proposition A                          For                                                                                          01Y
02000014187000000NONCTYCONVCity of Converse Proposition A                          For                                                                                          01Y
02000014189000001NONCTYCONVCity of Converse Proposition A                          For                                                                                          01Y
02000014191000000NONCTYCONVCity of Converse Proposition A                          For                                                                                          01Y
02000014196000000NONCTYCONVCity of Converse Proposition A                          For                                                                                          01Y
02000014197000004NONCTYCONVCity of Converse Proposition A                          For                                                                                          01Y
02000014201000007NONCTYCONVCity of Converse Proposition A                          For                                                                                          01Y
02000024043000392NONCTYCONVCity of Converse Proposition A                          Against                                                                                      01Y
02000024059000266NONCTYCONVCity of Converse Proposition A                          Against                                                                                      01Y
02000024067000196NONCTYCONVCity of Converse Proposition A                          Against                                                                                      01Y
02000024083000077NONCTYCONVCity of Converse Proposition A                          Against                                                                                      01Y
02000024109000003NONCTYCONVCity of Converse Proposition A                          Against                                                                                      01Y
02000024114000009NONCTYCONVCity of Converse Proposition A                          Against                                                                                      01Y
02000024130000098NONCTYCONVCity of Converse Proposition A                          Against                                                                                      01Y
02000024132000314NONCTYCONVCity of Converse Proposition A                          Against                                                                                      01Y
02000024162000271NONCTYCONVCity of Converse Proposition A                          Against                                                                                      01Y
02000024163000240NONCTYCONVCity of Converse Proposition A                          Against                                                                                      01Y
02000024187000000NONCTYCONVCity of Converse Proposition A                          Against                                                                                      01Y
02000024189000000NONCTYCONVCity of Converse Proposition A                          Against                                                                                      01Y
02000024191000000NONCTYCONVCity of Converse Proposition A                          Against                                                                                      01Y
02000024196000000NONCTYCONVCity of Converse Proposition A                          Against                                                                                      01Y
02000024197000001NONCTYCONVCity of Converse Proposition A                          Against                                                                                      01Y
02000024201000001NONCTYCONVCity of Converse Proposition A                          Against                                                                                      01Y
02000034043000000   CTYCONVCity of Converse Proposition A                          OVER VOTES                                                                                   01Y
02000034059000000   CTYCONVCity of Converse Proposition A                          OVER VOTES                                                                                   01Y
02000034067000000   CTYCONVCity of Converse Proposition A                          OVER VOTES                                                                                   01Y
02000034083000000   CTYCONVCity of Converse Proposition A                          OVER VOTES                                                                                   01Y
02000034109000000   CTYCONVCity of Converse Proposition A                          OVER VOTES                                                                                   01Y
02000034114000000   CTYCONVCity of Converse Proposition A                          OVER VOTES                                                                                   01Y
02000034130000000   CTYCONVCity of Converse Proposition A                          OVER VOTES                                                                                   01Y
02000034132000000   CTYCONVCity of Converse Proposition A                          OVER VOTES                                                                                   01Y
02000034162000000   CTYCONVCity of Converse Proposition A                          OVER VOTES                                                                                   01Y
02000034163000000   CTYCONVCity of Converse Proposition A                          OVER VOTES                                                                                   01Y
02000034187000000   CTYCONVCity of Converse Proposition A                          OVER VOTES                                                                                   01Y
02000034189000000   CTYCONVCity of Converse Proposition A                          OVER VOTES                                                                                   01Y
02000034191000000   CTYCONVCity of Converse Proposition A                          OVER VOTES                                                                                   01Y
02000034196000000   CTYCONVCity of Converse Proposition A                          OVER VOTES                                                                                   01Y
02000034197000000   CTYCONVCity of Converse Proposition A                          OVER VOTES                                                                                   01Y
02000034201000000   CTYCONVCity of Converse Proposition A                          OVER VOTES                                                                                   01Y
02000044043000098   CTYCONVCity of Converse Proposition A                          UNDER VOTES                                                                                  01Y
02000044059000115   CTYCONVCity of Converse Proposition A                          UNDER VOTES                                                                                  01Y
02000044067000087   CTYCONVCity of Converse Proposition A                          UNDER VOTES                                                                                  01Y
02000044083000031   CTYCONVCity of Converse Proposition A                          UNDER VOTES                                                                                  01Y
02000044109000002   CTYCONVCity of Converse Proposition A                          UNDER VOTES                                                                                  01Y
02000044114000001   CTYCONVCity of Converse Proposition A                          UNDER VOTES                                                                                  01Y
02000044130000028   CTYCONVCity of Converse Proposition A                          UNDER VOTES                                                                                  01Y
02000044132000079   CTYCONVCity of Converse Proposition A                          UNDER VOTES                                                                                  01Y
02000044162000107   CTYCONVCity of Converse Proposition A                          UNDER VOTES                                                                                  01Y
02000044163000082   CTYCONVCity of Converse Proposition A                          UNDER VOTES                                                                                  01Y
02000044187000000   CTYCONVCity of Converse Proposition A                          UNDER VOTES                                                                                  01Y
02000044189000000   CTYCONVCity of Converse Proposition A                          UNDER VOTES                                                                                  01Y
02000044191000000   CTYCONVCity of Converse Proposition A                          UNDER VOTES                                                                                  01Y
02000044196000000   CTYCONVCity of Converse Proposition A                          UNDER VOTES                                                                                  01Y
02000044197000001   CTYCONVCity of Converse Proposition A                          UNDER VOTES                                                                                  01Y
02000044201000001   CTYCONVCity of Converse Proposition A                          UNDER VOTES                                                                                  01Y
