01970014043000247NONCTYCONVCity of Converse Council, Place 2                       Nancy Droneburg                                                                              01 
01970014059000228NONCTYCONVCity of Converse Council, Place 2                       Nancy Droneburg                                                                              01 
01970014067000135NONCTYCONVCity of Converse Council, Place 2                       Nancy Droneburg                                                                              01 
01970014083000053NONCTYCONVCity of Converse Council, Place 2                       Nancy Droneburg                                                                              01 
01970014109000001NONCTYCONVCity of Converse Council, Place 2                       Nancy Droneburg                                                                              01 
01970014114000004NONCTYCONVCity of Converse Council, Place 2                       Nancy Droneburg                                                                              01 
01970014130000073NONCTYCONVCity of Converse Council, Place 2                       Nancy Droneburg                                                                              01 
01970014132000213NONCTYCONVCity of Converse Council, Place 2                       Nancy Droneburg                                                                              01 
01970014162000215NONCTYCONVCity of Converse Council, Place 2                       Nancy Droneburg                                                                              01 
01970014163000153NONCTYCONVCity of Converse Council, Place 2                       Nancy Droneburg                                                                              01 
01970014187000000NONCTYCONVCity of Converse Council, Place 2                       Nancy Droneburg                                                                              01 
01970014189000000NONCTYCONVCity of Converse Council, Place 2                       Nancy Droneburg                                                                              01 
01970014191000000NONCTYCONVCity of Converse Council, Place 2                       Nancy Droneburg                                                                              01 
01970014196000000NONCTYCONVCity of Converse Council, Place 2                       Nancy Droneburg                                                                              01 
01970014197000001NONCTYCONVCity of Converse Council, Place 2                       Nancy Droneburg                                                                              01 
01970014201000001NONCTYCONVCity of Converse Council, Place 2                       Nancy Droneburg                                                                              01 
01970024043000390NONCTYCONVCity of Converse Council, Place 2                       Deborah James                                                                                01 
01970024059000242NONCTYCONVCity of Converse Council, Place 2                       Deborah James                                                                                01 
01970024067000162NONCTYCONVCity of Converse Council, Place 2                       Deborah James                                                                                01 
01970024083000088NONCTYCONVCity of Converse Council, Place 2                       Deborah James                                                                                01 
01970024109000005NONCTYCONVCity of Converse Council, Place 2                       Deborah James                                                                                01 
01970024114000006NONCTYCONVCity of Converse Council, Place 2                       Deborah James                                                                                01 
01970024130000091NONCTYCONVCity of Converse Council, Place 2                       Deborah James                                                                                01 
01970024132000327NONCTYCONVCity of Converse Council, Place 2                       Deborah James                                                                                01 
01970024162000248NONCTYCONVCity of Converse Council, Place 2                       Deborah James                                                                                01 
01970024163000263NONCTYCONVCity of Converse Council, Place 2                       Deborah James                                                                                01 
01970024187000000NONCTYCONVCity of Converse Council, Place 2                       Deborah James                                                                                01 
01970024189000001NONCTYCONVCity of Converse Council, Place 2                       Deborah James                                                                                01 
01970024191000000NONCTYCONVCity of Converse Council, Place 2                       Deborah James                                                                                01 
01970024196000000NONCTYCONVCity of Converse Council, Place 2                       Deborah James                                                                                01 
01970024197000002NONCTYCONVCity of Converse Council, Place 2                       Deborah James                                                                                01 
01970024201000001NONCTYCONVCity of Converse Council, Place 2                       Deborah James                                                                                01 
01970034043000000   CTYCONVCity of Converse Council, Place 2                       OVER VOTES                                                                                   01 
01970034059000000   CTYCONVCity of Converse Council, Place 2                       OVER VOTES                                                                                   01 
01970034067000000   CTYCONVCity of Converse Council, Place 2                       OVER VOTES                                                                                   01 
01970034083000000   CTYCONVCity of Converse Council, Place 2                       OVER VOTES                                                                                   01 
01970034109000000   CTYCONVCity of Converse Council, Place 2                       OVER VOTES                                                                                   01 
01970034114000000   CTYCONVCity of Converse Council, Place 2                       OVER VOTES                                                                                   01 
01970034130000000   CTYCONVCity of Converse Council, Place 2                       OVER VOTES                                                                                   01 
01970034132000000   CTYCONVCity of Converse Council, Place 2                       OVER VOTES                                                                                   01 
01970034162000000   CTYCONVCity of Converse Council, Place 2                       OVER VOTES                                                                                   01 
01970034163000000   CTYCONVCity of Converse Council, Place 2                       OVER VOTES                                                                                   01 
01970034187000000   CTYCONVCity of Converse Council, Place 2                       OVER VOTES                                                                                   01 
01970034189000000   CTYCONVCity of Converse Council, Place 2                       OVER VOTES                                                                                   01 
01970034191000000   CTYCONVCity of Converse Council, Place 2                       OVER VOTES                                                                                   01 
01970034196000000   CTYCONVCity of Converse Council, Place 2                       OVER VOTES                                                                                   01 
01970034197000000   CTYCONVCity of Converse Council, Place 2                       OVER VOTES                                                                                   01 
01970034201000000   CTYCONVCity of Converse Council, Place 2                       OVER VOTES                                                                                   01 
01970044043000338   CTYCONVCity of Converse Council, Place 2                       UNDER VOTES                                                                                  01 
01970044059000329   CTYCONVCity of Converse Council, Place 2                       UNDER VOTES                                                                                  01 
01970044067000214   CTYCONVCity of Converse Council, Place 2                       UNDER VOTES                                                                                  01 
01970044083000094   CTYCONVCity of Converse Council, Place 2                       UNDER VOTES                                                                                  01 
01970044109000006   CTYCONVCity of Converse Council, Place 2                       UNDER VOTES                                                                                  01 
01970044114000006   CTYCONVCity of Converse Council, Place 2                       UNDER VOTES                                                                                  01 
01970044130000104   CTYCONVCity of Converse Council, Place 2                       UNDER VOTES                                                                                  01 
01970044132000314   CTYCONVCity of Converse Council, Place 2                       UNDER VOTES                                                                                  01 
01970044162000287   CTYCONVCity of Converse Council, Place 2                       UNDER VOTES                                                                                  01 
01970044163000304   CTYCONVCity of Converse Council, Place 2                       UNDER VOTES                                                                                  01 
01970044187000000   CTYCONVCity of Converse Council, Place 2                       UNDER VOTES                                                                                  01 
01970044189000000   CTYCONVCity of Converse Council, Place 2                       UNDER VOTES                                                                                  01 
01970044191000000   CTYCONVCity of Converse Council, Place 2                       UNDER VOTES                                                                                  01 
01970044196000000   CTYCONVCity of Converse Council, Place 2                       UNDER VOTES                                                                                  01 
01970044197000003   CTYCONVCity of Converse Council, Place 2                       UNDER VOTES                                                                                  01 
01970044201000006   CTYCONVCity of Converse Council, Place 2                       UNDER VOTES                                                                                  01 
01980014043000245NONCTYCONVCity of Converse Council, Place 4                       Joan Lindgren                                                                                01 
01980014059000197NONCTYCONVCity of Converse Council, Place 4                       Joan Lindgren                                                                                01 
01980014067000107NONCTYCONVCity of Converse Council, Place 4                       Joan Lindgren                                                                                01 
01980014083000039NONCTYCONVCity of Converse Council, Place 4                       Joan Lindgren                                                                                01 
01980014109000003NONCTYCONVCity of Converse Council, Place 4                       Joan Lindgren                                                                                01 
01980014114000005NONCTYCONVCity of Converse Council, Place 4                       Joan Lindgren                                                                                01 
01980014130000061NONCTYCONVCity of Converse Council, Place 4                       Joan Lindgren                                                                                01 
01980014132000215NONCTYCONVCity of Converse Council, Place 4                       Joan Lindgren                                                                                01 
01980014162000175NONCTYCONVCity of Converse Council, Place 4                       Joan Lindgren                                                                                01 
01980014163000158NONCTYCONVCity of Converse Council, Place 4                       Joan Lindgren                                                                                01 
01980014187000000NONCTYCONVCity of Converse Council, Place 4                       Joan Lindgren                                                                                01 
01980014189000000NONCTYCONVCity of Converse Council, Place 4                       Joan Lindgren                                                                                01 
01980014191000000NONCTYCONVCity of Converse Council, Place 4                       Joan Lindgren                                                                                01 
01980014196000000NONCTYCONVCity of Converse Council, Place 4                       Joan Lindgren                                                                                01 
01980014197000002NONCTYCONVCity of Converse Council, Place 4                       Joan Lindgren                                                                                01 
01980014201000001NONCTYCONVCity of Converse Council, Place 4                       Joan Lindgren                                                                                01 
01980024043000370NONCTYCONVCity of Converse Council, Place 4                       Kate Silvas                                                                                  01 
01980024059000294NONCTYCONVCity of Converse Council, Place 4                       Kate Silvas                                                                                  01 
01980024067000182NONCTYCONVCity of Converse Council, Place 4                       Kate Silvas                                                                                  01 
01980024083000105NONCTYCONVCity of Converse Council, Place 4                       Kate Silvas                                                                                  01 
01980024109000003NONCTYCONVCity of Converse Council, Place 4                       Kate Silvas                                                                                  01 
01980024114000008NONCTYCONVCity of Converse Council, Place 4                       Kate Silvas                                                                                  01 
01980024130000108NONCTYCONVCity of Converse Council, Place 4                       Kate Silvas                                                                                  01 
01980024132000337NONCTYCONVCity of Converse Council, Place 4                       Kate Silvas                                                                                  01 
01980024162000288NONCTYCONVCity of Converse Council, Place 4                       Kate Silvas                                                                                  01 
01980024163000266NONCTYCONVCity of Converse Council, Place 4                       Kate Silvas                                                                                  01 
01980024187000000NONCTYCONVCity of Converse Council, Place 4                       Kate Silvas                                                                                  01 
01980024189000001NONCTYCONVCity of Converse Council, Place 4                       Kate Silvas                                                                                  01 
01980024191000000NONCTYCONVCity of Converse Council, Place 4                       Kate Silvas                                                                                  01 
01980024196000000NONCTYCONVCity of Converse Council, Place 4                       Kate Silvas                                                                                  01 
01980024197000003NONCTYCONVCity of Converse Council, Place 4                       Kate Silvas                                                                                  01 
01980024201000000NONCTYCONVCity of Converse Council, Place 4                       Kate Silvas                                                                                  01 
01980034043000000   CTYCONVCity of Converse Council, Place 4                       OVER VOTES                                                                                   01 
01980034059000000   CTYCONVCity of Converse Council, Place 4                       OVER VOTES                                                                                   01 
01980034067000000   CTYCONVCity of Converse Council, Place 4                       OVER VOTES                                                                                   01 
01980034083000000   CTYCONVCity of Converse Council, Place 4                       OVER VOTES                                                                                   01 
01980034109000000   CTYCONVCity of Converse Council, Place 4                       OVER VOTES                                                                                   01 
01980034114000000   CTYCONVCity of Converse Council, Place 4                       OVER VOTES                                                                                   01 
01980034130000000   CTYCONVCity of Converse Council, Place 4                       OVER VOTES                                                                                   01 
01980034132000000   CTYCONVCity of Converse Council, Place 4                       OVER VOTES                                                                                   01 
01980034162000000   CTYCONVCity of Converse Council, Place 4                       OVER VOTES                                                                                   01 
01980034163000000   CTYCONVCity of Converse Council, Place 4                       OVER VOTES                                                                                   01 
01980034187000000   CTYCONVCity of Converse Council, Place 4                       OVER VOTES                                                                                   01 
01980034189000000   CTYCONVCity of Converse Council, Place 4                       OVER VOTES                                                                                   01 
01980034191000000   CTYCONVCity of Converse Council, Place 4                       OVER VOTES                                                                                   01 
01980034196000000   CTYCONVCity of Converse Council, Place 4                       OVER VOTES                                                                                   01 
01980034197000000   CTYCONVCity of Converse Council, Place 4                       OVER VOTES                                                                                   01 
01980034201000000   CTYCONVCity of Converse Council, Place 4                       OVER VOTES                                                                                   01 
01980044043000360   CTYCONVCity of Converse Council, Place 4                       UNDER VOTES                                                                                  01 
01980044059000308   CTYCONVCity of Converse Council, Place 4                       UNDER VOTES                                                                                  01 
01980044067000222   CTYCONVCity of Converse Council, Place 4                       UNDER VOTES                                                                                  01 
01980044083000091   CTYCONVCity of Converse Council, Place 4                       UNDER VOTES                                                                                  01 
01980044109000006   CTYCONVCity of Converse Council, Place 4                       UNDER VOTES                                                                                  01 
01980044114000003   CTYCONVCity of Converse Council, Place 4                       UNDER VOTES                                                                                  01 
01980044130000099   CTYCONVCity of Converse Council, Place 4                       UNDER VOTES                                                                                  01 
01980044132000302   CTYCONVCity of Converse Council, Place 4                       UNDER VOTES                                                                                  01 
01980044162000287   CTYCONVCity of Converse Council, Place 4                       UNDER VOTES                                                                                  01 
01980044163000296   CTYCONVCity of Converse Council, Place 4                       UNDER VOTES                                                                                  01 
01980044187000000   CTYCONVCity of Converse Council, Place 4                       UNDER VOTES                                                                                  01 
01980044189000000   CTYCONVCity of Converse Council, Place 4                       UNDER VOTES                                                                                  01 
01980044191000000   CTYCONVCity of Converse Council, Place 4                       UNDER VOTES                                                                                  01 
01980044196000000   CTYCONVCity of Converse Council, Place 4                       UNDER VOTES                                                                                  01 
01980044197000001   CTYCONVCity of Converse Council, Place 4                       UNDER VOTES                                                                                  01 
01980044201000007   CTYCONVCity of Converse Council, Place 4                       UNDER VOTES                                                                                  01 
01990014043000339NONCTYCONVCity of Converse Council, Place 6                       Marc Gilbert                                                                                 01 
01990014059000254NONCTYCONVCity of Converse Council, Place 6                       Marc Gilbert                                                                                 01 
01990014067000180NONCTYCONVCity of Converse Council, Place 6                       Marc Gilbert                                                                                 01 
01990014083000071NONCTYCONVCity of Converse Council, Place 6                       Marc Gilbert                                                                                 01 
01990014109000005NONCTYCONVCity of Converse Council, Place 6                       Marc Gilbert                                                                                 01 
01990014114000005NONCTYCONVCity of Converse Council, Place 6                       Marc Gilbert                                                                                 01 
01990014130000097NONCTYCONVCity of Converse Council, Place 6                       Marc Gilbert                                                                                 01 
01990014132000296NONCTYCONVCity of Converse Council, Place 6                       Marc Gilbert                                                                                 01 
01990014162000243NONCTYCONVCity of Converse Council, Place 6                       Marc Gilbert                                                                                 01 
01990014163000226NONCTYCONVCity of Converse Council, Place 6                       Marc Gilbert                                                                                 01 
01990014187000000NONCTYCONVCity of Converse Council, Place 6                       Marc Gilbert                                                                                 01 
01990014189000001NONCTYCONVCity of Converse Council, Place 6                       Marc Gilbert                                                                                 01 
01990014191000000NONCTYCONVCity of Converse Council, Place 6                       Marc Gilbert                                                                                 01 
01990014196000000NONCTYCONVCity of Converse Council, Place 6                       Marc Gilbert                                                                                 01 
01990014197000003NONCTYCONVCity of Converse Council, Place 6                       Marc Gilbert                                                                                 01 
01990014201000002NONCTYCONVCity of Converse Council, Place 6                       Marc Gilbert                                                                                 01 
01990024043000294NONCTYCONVCity of Converse Council, Place 6                       Billy Ortiz                                                                                  01 
01990024059000218NONCTYCONVCity of Converse Council, Place 6                       Billy Ortiz                                                                                  01 
01990024067000119NONCTYCONVCity of Converse Council, Place 6                       Billy Ortiz                                                                                  01 
01990024083000068NONCTYCONVCity of Converse Council, Place 6                       Billy Ortiz                                                                                  01 
01990024109000002NONCTYCONVCity of Converse Council, Place 6                       Billy Ortiz                                                                                  01 
01990024114000006NONCTYCONVCity of Converse Council, Place 6                       Billy Ortiz                                                                                  01 
01990024130000075NONCTYCONVCity of Converse Council, Place 6                       Billy Ortiz                                                                                  01 
01990024132000258NONCTYCONVCity of Converse Council, Place 6                       Billy Ortiz                                                                                  01 
01990024162000224NONCTYCONVCity of Converse Council, Place 6                       Billy Ortiz                                                                                  01 
01990024163000201NONCTYCONVCity of Converse Council, Place 6                       Billy Ortiz                                                                                  01 
01990024187000000NONCTYCONVCity of Converse Council, Place 6                       Billy Ortiz                                                                                  01 
01990024189000000NONCTYCONVCity of Converse Council, Place 6                       Billy Ortiz                                                                                  01 
01990024191000000NONCTYCONVCity of Converse Council, Place 6                       Billy Ortiz                                                                                  01 
01990024196000000NONCTYCONVCity of Converse Council, Place 6                       Billy Ortiz                                                                                  01 
01990024197000002NONCTYCONVCity of Converse Council, Place 6                       Billy Ortiz                                                                                  01 
01990024201000001NONCTYCONVCity of Converse Council, Place 6                       Billy Ortiz                                                                                  01 
01990034043000000   CTYCONVCity of Converse Council, Place 6                       OVER VOTES                                                                                   01 
01990034059000000   CTYCONVCity of Converse Council, Place 6                       OVER VOTES                                                                                   01 
01990034067000000   CTYCONVCity of Converse Council, Place 6                       OVER VOTES                                                                                   01 
01990034083000000   CTYCONVCity of Converse Council, Place 6                       OVER VOTES                                                                                   01 
01990034109000000   CTYCONVCity of Converse Council, Place 6                       OVER VOTES                                                                                   01 
01990034114000000   CTYCONVCity of Converse Council, Place 6                       OVER VOTES                                                                                   01 
01990034130000000   CTYCONVCity of Converse Council, Place 6                       OVER VOTES                                                                                   01 
01990034132000000   CTYCONVCity of Converse Council, Place 6                       OVER VOTES                                                                                   01 
01990034162000000   CTYCONVCity of Converse Council, Place 6                       OVER VOTES                                                                                   01 
01990034163000000   CTYCONVCity of Converse Council, Place 6                       OVER VOTES                                                                                   01 
01990034187000000   CTYCONVCity of Converse Council, Place 6                       OVER VOTES                                                                                   01 
01990034189000000   CTYCONVCity of Converse Council, Place 6                       OVER VOTES                                                                                   01 
01990034191000000   CTYCONVCity of Converse Council, Place 6                       OVER VOTES                                                                                   01 
01990034196000000   CTYCONVCity of Converse Council, Place 6                       OVER VOTES                                                                                   01 
01990034197000000   CTYCONVCity of Converse Council, Place 6                       OVER VOTES                                                                                   01 
01990034201000000   CTYCONVCity of Converse Council, Place 6                       OVER VOTES                                                                                   01 
01990044043000342   CTYCONVCity of Converse Council, Place 6                       UNDER VOTES                                                                                  01 
01990044059000327   CTYCONVCity of Converse Council, Place 6                       UNDER VOTES                                                                                  01 
01990044067000212   CTYCONVCity of Converse Council, Place 6                       UNDER VOTES                                                                                  01 
01990044083000096   CTYCONVCity of Converse Council, Place 6                       UNDER VOTES                                                                                  01 
01990044109000005   CTYCONVCity of Converse Council, Place 6                       UNDER VOTES                                                                                  01 
01990044114000005   CTYCONVCity of Converse Council, Place 6                       UNDER VOTES                                                                                  01 
01990044130000096   CTYCONVCity of Converse Council, Place 6                       UNDER VOTES                                                                                  01 
01990044132000300   CTYCONVCity of Converse Council, Place 6                       UNDER VOTES                                                                                  01 
01990044162000283   CTYCONVCity of Converse Council, Place 6                       UNDER VOTES                                                                                  01 
01990044163000293   CTYCONVCity of Converse Council, Place 6                       UNDER VOTES                                                                                  01 
01990044187000000   CTYCONVCity of Converse Council, Place 6                       UNDER VOTES                                                                                  01 
01990044189000000   CTYCONVCity of Converse Council, Place 6                       UNDER VOTES                                                                                  01 
01990044191000000   CTYCONVCity of Converse Council, Place 6                       UNDER VOTES                                                                                  01 
01990044196000000   CTYCONVCity of Converse Council, Place 6                       UNDER VOTES                                                                                  01 
01990044197000001   CTYCONVCity of Converse Council, Place 6                       UNDER VOTES                                                                                  01 
01990044201000005   CTYCONVCity of Converse Council, Place 6                       UNDER VOTES                                                                                  01 
02000014043000639NONCTYCONVCity of Converse Proposition A                          For                                                                                          01Y
02000014059000550NONCTYCONVCity of Converse Proposition A                          For                                                                                          01Y
02000014067000320NONCTYCONVCity of Converse Proposition A                          For                                                                                          01Y
02000014083000165NONCTYCONVCity of Converse Proposition A                          For                                                                                          01Y
02000014109000008NONCTYCONVCity of Converse Proposition A                          For                                                                                          01Y
02000014114000009NONCTYCONVCity of Converse Proposition A                          For                                                                                          01Y
02000014130000177NONCTYCONVCity of Converse Proposition A                          For                                                                                          01Y
02000014132000543NONCTYCONVCity of Converse Proposition A                          For                                                                                          01Y
02000014162000493NONCTYCONVCity of Converse Proposition A                          For                                                                                          01Y
02000014163000492NONCTYCONVCity of Converse Proposition A                          For                                                                                          01Y
02000014187000000NONCTYCONVCity of Converse Proposition A                          For                                                                                          01Y
02000014189000001NONCTYCONVCity of Converse Proposition A                          For                                                                                          01Y
02000014191000000NONCTYCONVCity of Converse Proposition A                          For                                                                                          01Y
02000014196000000NONCTYCONVCity of Converse Proposition A                          For                                                                                          01Y
02000014197000004NONCTYCONVCity of Converse Proposition A                          For                                                                                          01Y
02000014201000006NONCTYCONVCity of Converse Proposition A                          For                                                                                          01Y
02000024043000260NONCTYCONVCity of Converse Proposition A                          Against                                                                                      01Y
02000024059000178NONCTYCONVCity of Converse Proposition A                          Against                                                                                      01Y
02000024067000132NONCTYCONVCity of Converse Proposition A                          Against                                                                                      01Y
02000024083000050NONCTYCONVCity of Converse Proposition A                          Against                                                                                      01Y
02000024109000002NONCTYCONVCity of Converse Proposition A                          Against                                                                                      01Y
02000024114000007NONCTYCONVCity of Converse Proposition A                          Against                                                                                      01Y
02000024130000071NONCTYCONVCity of Converse Proposition A                          Against                                                                                      01Y
02000024132000245NONCTYCONVCity of Converse Proposition A                          Against                                                                                      01Y
02000024162000186NONCTYCONVCity of Converse Proposition A                          Against                                                                                      01Y
02000024163000167NONCTYCONVCity of Converse Proposition A                          Against                                                                                      01Y
02000024187000000NONCTYCONVCity of Converse Proposition A                          Against                                                                                      01Y
02000024189000000NONCTYCONVCity of Converse Proposition A                          Against                                                                                      01Y
02000024191000000NONCTYCONVCity of Converse Proposition A                          Against                                                                                      01Y
02000024196000000NONCTYCONVCity of Converse Proposition A                          Against                                                                                      01Y
02000024197000001NONCTYCONVCity of Converse Proposition A                          Against                                                                                      01Y
02000024201000001NONCTYCONVCity of Converse Proposition A                          Against                                                                                      01Y
02000034043000000   CTYCONVCity of Converse Proposition A                          OVER VOTES                                                                                   01Y
02000034059000000   CTYCONVCity of Converse Proposition A                          OVER VOTES                                                                                   01Y
02000034067000000   CTYCONVCity of Converse Proposition A                          OVER VOTES                                                                                   01Y
02000034083000000   CTYCONVCity of Converse Proposition A                          OVER VOTES                                                                                   01Y
02000034109000000   CTYCONVCity of Converse Proposition A                          OVER VOTES                                                                                   01Y
02000034114000000   CTYCONVCity of Converse Proposition A                          OVER VOTES                                                                                   01Y
02000034130000000   CTYCONVCity of Converse Proposition A                          OVER VOTES                                                                                   01Y
02000034132000000   CTYCONVCity of Converse Proposition A                          OVER VOTES                                                                                   01Y
02000034162000000   CTYCONVCity of Converse Proposition A                          OVER VOTES                                                                                   01Y
02000034163000000   CTYCONVCity of Converse Proposition A                          OVER VOTES                                                                                   01Y
02000034187000000   CTYCONVCity of Converse Proposition A                          OVER VOTES                                                                                   01Y
02000034189000000   CTYCONVCity of Converse Proposition A                          OVER VOTES                                                                                   01Y
02000034191000000   CTYCONVCity of Converse Proposition A                          OVER VOTES                                                                                   01Y
02000034196000000   CTYCONVCity of Converse Proposition A                          OVER VOTES                                                                                   01Y
02000034197000000   CTYCONVCity of Converse Proposition A                          OVER VOTES                                                                                   01Y
02000034201000000   CTYCONVCity of Converse Proposition A                          OVER VOTES                                                                                   01Y
02000044043000076   CTYCONVCity of Converse Proposition A                          UNDER VOTES                                                                                  01Y
02000044059000071   CTYCONVCity of Converse Proposition A                          UNDER VOTES                                                                                  01Y
02000044067000059   CTYCONVCity of Converse Proposition A                          UNDER VOTES                                                                                  01Y
02000044083000020   CTYCONVCity of Converse Proposition A                          UNDER VOTES                                                                                  01Y
02000044109000002   CTYCONVCity of Converse Proposition A                          UNDER VOTES                                                                                  01Y
02000044114000000   CTYCONVCity of Converse Proposition A                          UNDER VOTES                                                                                  01Y
02000044130000020   CTYCONVCity of Converse Proposition A                          UNDER VOTES                                                                                  01Y
02000044132000066   CTYCONVCity of Converse Proposition A                          UNDER VOTES                                                                                  01Y
02000044162000071   CTYCONVCity of Converse Proposition A                          UNDER VOTES                                                                                  01Y
02000044163000061   CTYCONVCity of Converse Proposition A                          UNDER VOTES                                                                                  01Y
02000044187000000   CTYCONVCity of Converse Proposition A                          UNDER VOTES                                                                                  01Y
02000044189000000   CTYCONVCity of Converse Proposition A                          UNDER VOTES                                                                                  01Y
02000044191000000   CTYCONVCity of Converse Proposition A                          UNDER VOTES                                                                                  01Y
02000044196000000   CTYCONVCity of Converse Proposition A                          UNDER VOTES                                                                                  01Y
02000044197000001   CTYCONVCity of Converse Proposition A                          UNDER VOTES                                                                                  01Y
02000044201000001   CTYCONVCity of Converse Proposition A                          UNDER VOTES                                                                                  01Y
