01050010001000280REP       US Representative, District 23                          Will Hurd                             Precinct 1                                             01 
01050010002000223REP       US Representative, District 23                          Will Hurd                             Precinct 2                                             01 
01050010003000140REP       US Representative, District 23                          Will Hurd                             Precinct 3                                             01 
01050010004000144REP       US Representative, District 23                          Will Hurd                             Precinct 4                                             01 
01050020001000052DEM       US Representative, District 23                          Gina Ortiz Jones                      Precinct 1                                             01 
01050020002000060DEM       US Representative, District 23                          Gina Ortiz Jones                      Precinct 2                                             01 
01050020003000077DEM       US Representative, District 23                          Gina Ortiz Jones                      Precinct 3                                             01 
01050020004000045DEM       US Representative, District 23                          Gina Ortiz Jones                      Precinct 4                                             01 
01050030001000006LIB       US Representative, District 23                          Ruben Corvalan                        Precinct 1                                             01 
01050030002000005LIB       US Representative, District 23                          Ruben Corvalan                        Precinct 2                                             01 
01050030003000007LIB       US Representative, District 23                          Ruben Corvalan                        Precinct 3                                             01 
01050030004000006LIB       US Representative, District 23                          Ruben Corvalan                        Precinct 4                                             01 
01050040001000000          US Representative, District 23                          OVER VOTES                            Precinct 1                                             01 
01050040002000000          US Representative, District 23                          OVER VOTES                            Precinct 2                                             01 
01050040003000000          US Representative, District 23                          OVER VOTES                            Precinct 3                                             01 
01050040004000000          US Representative, District 23                          OVER VOTES                            Precinct 4                                             01 
01050050001000007          US Representative, District 23                          UNDER VOTES                           Precinct 1                                             01 
01050050002000004          US Representative, District 23                          UNDER VOTES                           Precinct 2                                             01 
01050050003000002          US Representative, District 23                          UNDER VOTES                           Precinct 3                                             01 
01050050004000003          US Representative, District 23                          UNDER VOTES                           Precinct 4                                             01 
01060010001000294REP       Governor                                                Greg Abbott                           Precinct 1                                             01 
01060010002000237REP       Governor                                                Greg Abbott                           Precinct 2                                             01 
01060010003000158REP       Governor                                                Greg Abbott                           Precinct 3                                             01 
01060010004000153REP       Governor                                                Greg Abbott                           Precinct 4                                             01 
01060020001000043DEM       Governor                                                Lupe Valdez                           Precinct 1                                             01 
01060020002000052DEM       Governor                                                Lupe Valdez                           Precinct 2                                             01 
01060020003000063DEM       Governor                                                Lupe Valdez                           Precinct 3                                             01 
01060020004000039DEM       Governor                                                Lupe Valdez                           Precinct 4                                             01 
01060030001000004LIB       Governor                                                Mark Jay Tippetts                     Precinct 1                                             01 
01060030002000002LIB       Governor                                                Mark Jay Tippetts                     Precinct 2                                             01 
01060030003000000LIB       Governor                                                Mark Jay Tippetts                     Precinct 3                                             01 
01060030004000002LIB       Governor                                                Mark Jay Tippetts                     Precinct 4                                             01 
01060040001000000          Governor                                                OVER VOTES                            Precinct 1                                             01 
01060040002000000          Governor                                                OVER VOTES                            Precinct 2                                             01 
01060040003000000          Governor                                                OVER VOTES                            Precinct 3                                             01 
01060040004000000          Governor                                                OVER VOTES                            Precinct 4                                             01 
01060050001000004          Governor                                                UNDER VOTES                           Precinct 1                                             01 
01060050002000001          Governor                                                UNDER VOTES                           Precinct 2                                             01 
01060050003000005          Governor                                                UNDER VOTES                           Precinct 3                                             01 
01060050004000004          Governor                                                UNDER VOTES                           Precinct 4                                             01 
01070010001000239REP       Lieutenant Governor                                     Dan Patrick                           Precinct 1                                             01 
01070010002000204REP       Lieutenant Governor                                     Dan Patrick                           Precinct 2                                             01 
01070010003000140REP       Lieutenant Governor                                     Dan Patrick                           Precinct 3                                             01 
01070010004000142REP       Lieutenant Governor                                     Dan Patrick                           Precinct 4                                             01 
01070020001000090DEM       Lieutenant Governor                                     Mike Collier                          Precinct 1                                             01 
01070020002000076DEM       Lieutenant Governor                                     Mike Collier                          Precinct 2                                             01 
01070020003000077DEM       Lieutenant Governor                                     Mike Collier                          Precinct 3                                             01 
01070020004000048DEM       Lieutenant Governor                                     Mike Collier                          Precinct 4                                             01 
01070030001000009LIB       Lieutenant Governor                                     Kerry Douglas McKennon                Precinct 1                                             01 
01070030002000006LIB       Lieutenant Governor                                     Kerry Douglas McKennon                Precinct 2                                             01 
01070030003000004LIB       Lieutenant Governor                                     Kerry Douglas McKennon                Precinct 3                                             01 
01070030004000003LIB       Lieutenant Governor                                     Kerry Douglas McKennon                Precinct 4                                             01 
01070040001000001          Lieutenant Governor                                     OVER VOTES                            Precinct 1                                             01 
01070040002000000          Lieutenant Governor                                     OVER VOTES                            Precinct 2                                             01 
01070040003000000          Lieutenant Governor                                     OVER VOTES                            Precinct 3                                             01 
01070040004000000          Lieutenant Governor                                     OVER VOTES                            Precinct 4                                             01 
01070050001000006          Lieutenant Governor                                     UNDER VOTES                           Precinct 1                                             01 
01070050002000006          Lieutenant Governor                                     UNDER VOTES                           Precinct 2                                             01 
01070050003000005          Lieutenant Governor                                     UNDER VOTES                           Precinct 3                                             01 
01070050004000005          Lieutenant Governor                                     UNDER VOTES                           Precinct 4                                             01 
01080010001000272REP       Attorney General                                        Ken Paxton                            Precinct 1                                             01 
01080010002000227REP       Attorney General                                        Ken Paxton                            Precinct 2                                             01 
01080010003000142REP       Attorney General                                        Ken Paxton                            Precinct 3                                             01 
01080010004000146REP       Attorney General                                        Ken Paxton                            Precinct 4                                             01 
01080020001000061DEM       Attorney General                                        Justin Nelson                         Precinct 1                                             01 
01080020002000057DEM       Attorney General                                        Justin Nelson                         Precinct 2                                             01 
01080020003000071DEM       Attorney General                                        Justin Nelson                         Precinct 3                                             01 
01080020004000046DEM       Attorney General                                        Justin Nelson                         Precinct 4                                             01 
01080030001000006LIB       Attorney General                                        Michael Ray Harris                    Precinct 1                                             01 
01080030002000003LIB       Attorney General                                        Michael Ray Harris                    Precinct 2                                             01 
01080030003000005LIB       Attorney General                                        Michael Ray Harris                    Precinct 3                                             01 
01080030004000003LIB       Attorney General                                        Michael Ray Harris                    Precinct 4                                             01 
01080040001000000          Attorney General                                        OVER VOTES                            Precinct 1                                             01 
01080040002000000          Attorney General                                        OVER VOTES                            Precinct 2                                             01 
01080040003000000          Attorney General                                        OVER VOTES                            Precinct 3                                             01 
01080040004000000          Attorney General                                        OVER VOTES                            Precinct 4                                             01 
01080050001000006          Attorney General                                        UNDER VOTES                           Precinct 1                                             01 
01080050002000005          Attorney General                                        UNDER VOTES                           Precinct 2                                             01 
01080050003000008          Attorney General                                        UNDER VOTES                           Precinct 3                                             01 
01080050004000003          Attorney General                                        UNDER VOTES                           Precinct 4                                             01 
01090010001000295REP       Comptroller of Public Accounts                          Glenn Hegar                           Precinct 1                                             01 
01090010002000233REP       Comptroller of Public Accounts                          Glenn Hegar                           Precinct 2                                             01 
01090010003000145REP       Comptroller of Public Accounts                          Glenn Hegar                           Precinct 3                                             01 
01090010004000147REP       Comptroller of Public Accounts                          Glenn Hegar                           Precinct 4                                             01 
01090020001000035DEM       Comptroller of Public Accounts                          Joi Chevalier                         Precinct 1                                             01 
01090020002000047DEM       Comptroller of Public Accounts                          Joi Chevalier                         Precinct 2                                             01 
01090020003000065DEM       Comptroller of Public Accounts                          Joi Chevalier                         Precinct 3                                             01 
01090020004000041DEM       Comptroller of Public Accounts                          Joi Chevalier                         Precinct 4                                             01 
01090030001000004LIB       Comptroller of Public Accounts                          Ben Sanders                           Precinct 1                                             01 
01090030002000007LIB       Comptroller of Public Accounts                          Ben Sanders                           Precinct 2                                             01 
01090030003000005LIB       Comptroller of Public Accounts                          Ben Sanders                           Precinct 3                                             01 
01090030004000004LIB       Comptroller of Public Accounts                          Ben Sanders                           Precinct 4                                             01 
01090040001000000          Comptroller of Public Accounts                          OVER VOTES                            Precinct 1                                             01 
01090040002000000          Comptroller of Public Accounts                          OVER VOTES                            Precinct 2                                             01 
01090040003000000          Comptroller of Public Accounts                          OVER VOTES                            Precinct 3                                             01 
01090040004000000          Comptroller of Public Accounts                          OVER VOTES                            Precinct 4                                             01 
01090050001000011          Comptroller of Public Accounts                          UNDER VOTES                           Precinct 1                                             01 
01090050002000005          Comptroller of Public Accounts                          UNDER VOTES                           Precinct 2                                             01 
01090050003000011          Comptroller of Public Accounts                          UNDER VOTES                           Precinct 3                                             01 
01090050004000006          Comptroller of Public Accounts                          UNDER VOTES                           Precinct 4                                             01 
01100010001000277REP       Commissioner of the General Land Office                 George P. Bush                        Precinct 1                                             01 
01100010002000218REP       Commissioner of the General Land Office                 George P. Bush                        Precinct 2                                             01 
01100010003000147REP       Commissioner of the General Land Office                 George P. Bush                        Precinct 3                                             01 
01100010004000146REP       Commissioner of the General Land Office                 George P. Bush                        Precinct 4                                             01 
01100020001000050DEM       Commissioner of the General Land Office                 Miguel Suazo                          Precinct 1                                             01 
01100020002000050DEM       Commissioner of the General Land Office                 Miguel Suazo                          Precinct 2                                             01 
01100020003000066DEM       Commissioner of the General Land Office                 Miguel Suazo                          Precinct 3                                             01 
01100020004000039DEM       Commissioner of the General Land Office                 Miguel Suazo                          Precinct 4                                             01 
01100030001000012LIB       Commissioner of the General Land Office                 Matt Pina                             Precinct 1                                             01 
01100030002000016LIB       Commissioner of the General Land Office                 Matt Pina                             Precinct 2                                             01 
01100030003000007LIB       Commissioner of the General Land Office                 Matt Pina                             Precinct 3                                             01 
01100030004000005LIB       Commissioner of the General Land Office                 Matt Pina                             Precinct 4                                             01 
01100040001000000          Commissioner of the General Land Office                 OVER VOTES                            Precinct 1                                             01 
01100040002000000          Commissioner of the General Land Office                 OVER VOTES                            Precinct 2                                             01 
01100040003000000          Commissioner of the General Land Office                 OVER VOTES                            Precinct 3                                             01 
01100040004000000          Commissioner of the General Land Office                 OVER VOTES                            Precinct 4                                             01 
01100050001000006          Commissioner of the General Land Office                 UNDER VOTES                           Precinct 1                                             01 
01100050002000008          Commissioner of the General Land Office                 UNDER VOTES                           Precinct 2                                             01 
01100050003000006          Commissioner of the General Land Office                 UNDER VOTES                           Precinct 3                                             01 
01100050004000008          Commissioner of the General Land Office                 UNDER VOTES                           Precinct 4                                             01 
01110010001000281REP       Commissioner of Agriculture                             Sid Miller                            Precinct 1                                             01 
01110010002000228REP       Commissioner of Agriculture                             Sid Miller                            Precinct 2                                             01 
01110010003000144REP       Commissioner of Agriculture                             Sid Miller                            Precinct 3                                             01 
01110010004000149REP       Commissioner of Agriculture                             Sid Miller                            Precinct 4                                             01 
01110020001000048DEM       Commissioner of Agriculture                             Kim Olson                             Precinct 1                                             01 
01110020002000049DEM       Commissioner of Agriculture                             Kim Olson                             Precinct 2                                             01 
01110020003000069DEM       Commissioner of Agriculture                             Kim Olson                             Precinct 3                                             01 
01110020004000038DEM       Commissioner of Agriculture                             Kim Olson                             Precinct 4                                             01 
01110030001000006LIB       Commissioner of Agriculture                             Richard Carpenter                     Precinct 1                                             01 
01110030002000006LIB       Commissioner of Agriculture                             Richard Carpenter                     Precinct 2                                             01 
01110030003000004LIB       Commissioner of Agriculture                             Richard Carpenter                     Precinct 3                                             01 
01110030004000003LIB       Commissioner of Agriculture                             Richard Carpenter                     Precinct 4                                             01 
01110040001000000          Commissioner of Agriculture                             OVER VOTES                            Precinct 1                                             01 
01110040002000000          Commissioner of Agriculture                             OVER VOTES                            Precinct 2                                             01 
01110040003000000          Commissioner of Agriculture                             OVER VOTES                            Precinct 3                                             01 
01110040004000000          Commissioner of Agriculture                             OVER VOTES                            Precinct 4                                             01 
01110050001000010          Commissioner of Agriculture                             UNDER VOTES                           Precinct 1                                             01 
01110050002000009          Commissioner of Agriculture                             UNDER VOTES                           Precinct 2                                             01 
01110050003000009          Commissioner of Agriculture                             UNDER VOTES                           Precinct 3                                             01 
01110050004000008          Commissioner of Agriculture                             UNDER VOTES                           Precinct 4                                             01 
01120010001000292REP       Railroad Commissioner                                   Christi Craddick                      Precinct 1                                             01 
01120010002000237REP       Railroad Commissioner                                   Christi Craddick                      Precinct 2                                             01 
01120010003000149REP       Railroad Commissioner                                   Christi Craddick                      Precinct 3                                             01 
01120010004000149REP       Railroad Commissioner                                   Christi Craddick                      Precinct 4                                             01 
01120020001000039DEM       Railroad Commissioner                                   Roman McAllen                         Precinct 1                                             01 
01120020002000047DEM       Railroad Commissioner                                   Roman McAllen                         Precinct 2                                             01 
01120020003000065DEM       Railroad Commissioner                                   Roman McAllen                         Precinct 3                                             01 
01120020004000039DEM       Railroad Commissioner                                   Roman McAllen                         Precinct 4                                             01 
01120030001000004LIB       Railroad Commissioner                                   Mike Wright                           Precinct 1                                             01 
01120030002000002LIB       Railroad Commissioner                                   Mike Wright                           Precinct 2                                             01 
01120030003000004LIB       Railroad Commissioner                                   Mike Wright                           Precinct 3                                             01 
01120030004000004LIB       Railroad Commissioner                                   Mike Wright                           Precinct 4                                             01 
01120040001000000          Railroad Commissioner                                   OVER VOTES                            Precinct 1                                             01 
01120040002000000          Railroad Commissioner                                   OVER VOTES                            Precinct 2                                             01 
01120040003000000          Railroad Commissioner                                   OVER VOTES                            Precinct 3                                             01 
01120040004000000          Railroad Commissioner                                   OVER VOTES                            Precinct 4                                             01 
01120050001000010          Railroad Commissioner                                   UNDER VOTES                           Precinct 1                                             01 
01120050002000006          Railroad Commissioner                                   UNDER VOTES                           Precinct 2                                             01 
01120050003000008          Railroad Commissioner                                   UNDER VOTES                           Precinct 3                                             01 
01120050004000006          Railroad Commissioner                                   UNDER VOTES                           Precinct 4                                             01 
01130010001000285REP       Justice, Supreme Court, Place 2                         Jimmy Blacklock                       Precinct 1                                             01 
01130010002000232REP       Justice, Supreme Court, Place 2                         Jimmy Blacklock                       Precinct 2                                             01 
01130010003000147REP       Justice, Supreme Court, Place 2                         Jimmy Blacklock                       Precinct 3                                             01 
01130010004000150REP       Justice, Supreme Court, Place 2                         Jimmy Blacklock                       Precinct 4                                             01 
01130020001000047DEM       Justice, Supreme Court, Place 2                         Steven Kirkland                       Precinct 1                                             01 
01130020002000050DEM       Justice, Supreme Court, Place 2                         Steven Kirkland                       Precinct 2                                             01 
01130020003000069DEM       Justice, Supreme Court, Place 2                         Steven Kirkland                       Precinct 3                                             01 
01130020004000041DEM       Justice, Supreme Court, Place 2                         Steven Kirkland                       Precinct 4                                             01 
01130030001000000          Justice, Supreme Court, Place 2                         OVER VOTES                            Precinct 1                                             01 
01130030002000000          Justice, Supreme Court, Place 2                         OVER VOTES                            Precinct 2                                             01 
01130030003000000          Justice, Supreme Court, Place 2                         OVER VOTES                            Precinct 3                                             01 
01130030004000000          Justice, Supreme Court, Place 2                         OVER VOTES                            Precinct 4                                             01 
01130040001000013          Justice, Supreme Court, Place 2                         UNDER VOTES                           Precinct 1                                             01 
01130040002000010          Justice, Supreme Court, Place 2                         UNDER VOTES                           Precinct 2                                             01 
01130040003000010          Justice, Supreme Court, Place 2                         UNDER VOTES                           Precinct 3                                             01 
01130040004000007          Justice, Supreme Court, Place 2                         UNDER VOTES                           Precinct 4                                             01 
01140010001000288REP       Justice, Supreme Court, Place 4                         John Devine                           Precinct 1                                             01 
01140010002000230REP       Justice, Supreme Court, Place 4                         John Devine                           Precinct 2                                             01 
01140010003000148REP       Justice, Supreme Court, Place 4                         John Devine                           Precinct 3                                             01 
01140010004000147REP       Justice, Supreme Court, Place 4                         John Devine                           Precinct 4                                             01 
01140020001000047DEM       Justice, Supreme Court, Place 4                         R.K. Sandill                          Precinct 1                                             01 
01140020002000051DEM       Justice, Supreme Court, Place 4                         R.K. Sandill                          Precinct 2                                             01 
01140020003000067DEM       Justice, Supreme Court, Place 4                         R.K. Sandill                          Precinct 3                                             01 
01140020004000042DEM       Justice, Supreme Court, Place 4                         R.K. Sandill                          Precinct 4                                             01 
01140030001000000          Justice, Supreme Court, Place 4                         OVER VOTES                            Precinct 1                                             01 
01140030002000000          Justice, Supreme Court, Place 4                         OVER VOTES                            Precinct 2                                             01 
01140030003000000          Justice, Supreme Court, Place 4                         OVER VOTES                            Precinct 3                                             01 
01140030004000000          Justice, Supreme Court, Place 4                         OVER VOTES                            Precinct 4                                             01 
01140040001000010          Justice, Supreme Court, Place 4                         UNDER VOTES                           Precinct 1                                             01 
01140040002000011          Justice, Supreme Court, Place 4                         UNDER VOTES                           Precinct 2                                             01 
01140040003000011          Justice, Supreme Court, Place 4                         UNDER VOTES                           Precinct 3                                             01 
01140040004000009          Justice, Supreme Court, Place 4                         UNDER VOTES                           Precinct 4                                             01 
01150010001000288REP       Justice, Supreme Court, Place 6                         Jeff Brown                            Precinct 1                                             01 
01150010002000233REP       Justice, Supreme Court, Place 6                         Jeff Brown                            Precinct 2                                             01 
01150010003000148REP       Justice, Supreme Court, Place 6                         Jeff Brown                            Precinct 3                                             01 
01150010004000148REP       Justice, Supreme Court, Place 6                         Jeff Brown                            Precinct 4                                             01 
01150020001000047DEM       Justice, Supreme Court, Place 6                         Kathy Cheng                           Precinct 1                                             01 
01150020002000049DEM       Justice, Supreme Court, Place 6                         Kathy Cheng                           Precinct 2                                             01 
01150020003000067DEM       Justice, Supreme Court, Place 6                         Kathy Cheng                           Precinct 3                                             01 
01150020004000041DEM       Justice, Supreme Court, Place 6                         Kathy Cheng                           Precinct 4                                             01 
01150030001000000          Justice, Supreme Court, Place 6                         OVER VOTES                            Precinct 1                                             01 
01150030002000000          Justice, Supreme Court, Place 6                         OVER VOTES                            Precinct 2                                             01 
01150030003000000          Justice, Supreme Court, Place 6                         OVER VOTES                            Precinct 3                                             01 
01150030004000000          Justice, Supreme Court, Place 6                         OVER VOTES                            Precinct 4                                             01 
01150040001000010          Justice, Supreme Court, Place 6                         UNDER VOTES                           Precinct 1                                             01 
01150040002000010          Justice, Supreme Court, Place 6                         UNDER VOTES                           Precinct 2                                             01 
01150040003000011          Justice, Supreme Court, Place 6                         UNDER VOTES                           Precinct 3                                             01 
01150040004000009          Justice, Supreme Court, Place 6                         UNDER VOTES                           Precinct 4                                             01 
01160010001000287REP       Presiding Judge, Court of Crim Appeals                  Sharon Keller                         Precinct 1                                             01 
01160010002000222REP       Presiding Judge, Court of Crim Appeals                  Sharon Keller                         Precinct 2                                             01 
01160010003000146REP       Presiding Judge, Court of Crim Appeals                  Sharon Keller                         Precinct 3                                             01 
01160010004000139REP       Presiding Judge, Court of Crim Appeals                  Sharon Keller                         Precinct 4                                             01 
01160020001000043DEM       Presiding Judge, Court of Crim Appeals                  Maria T. (Terri) Jackson              Precinct 1                                             01 
01160020002000052DEM       Presiding Judge, Court of Crim Appeals                  Maria T. (Terri) Jackson              Precinct 2                                             01 
01160020003000065DEM       Presiding Judge, Court of Crim Appeals                  Maria T. (Terri) Jackson              Precinct 3                                             01 
01160020004000044DEM       Presiding Judge, Court of Crim Appeals                  Maria T. (Terri) Jackson              Precinct 4                                             01 
01160030001000002LIB       Presiding Judge, Court of Crim Appeals                  William Bryan Strange III             Precinct 1                                             01 
01160030002000007LIB       Presiding Judge, Court of Crim Appeals                  William Bryan Strange III             Precinct 2                                             01 
01160030003000005LIB       Presiding Judge, Court of Crim Appeals                  William Bryan Strange III             Precinct 3                                             01 
01160030004000006LIB       Presiding Judge, Court of Crim Appeals                  William Bryan Strange III             Precinct 4                                             01 
01160040001000000          Presiding Judge, Court of Crim Appeals                  OVER VOTES                            Precinct 1                                             01 
01160040002000000          Presiding Judge, Court of Crim Appeals                  OVER VOTES                            Precinct 2                                             01 
01160040003000000          Presiding Judge, Court of Crim Appeals                  OVER VOTES                            Precinct 3                                             01 
01160040004000000          Presiding Judge, Court of Crim Appeals                  OVER VOTES                            Precinct 4                                             01 
01160050001000013          Presiding Judge, Court of Crim Appeals                  UNDER VOTES                           Precinct 1                                             01 
01160050002000011          Presiding Judge, Court of Crim Appeals                  UNDER VOTES                           Precinct 2                                             01 
01160050003000010          Presiding Judge, Court of Crim Appeals                  UNDER VOTES                           Precinct 3                                             01 
01160050004000009          Presiding Judge, Court of Crim Appeals                  UNDER VOTES                           Precinct 4                                             01 
01170010001000287REP       Judge, Court of Crim Appeals, Place 7                   Barbara Parker Hervey                 Precinct 1                                             01 
01170010002000232REP       Judge, Court of Crim Appeals, Place 7                   Barbara Parker Hervey                 Precinct 2                                             01 
01170010003000150REP       Judge, Court of Crim Appeals, Place 7                   Barbara Parker Hervey                 Precinct 3                                             01 
01170010004000146REP       Judge, Court of Crim Appeals, Place 7                   Barbara Parker Hervey                 Precinct 4                                             01 
01170020001000043DEM       Judge, Court of Crim Appeals, Place 7                   Ramona Franklin                       Precinct 1                                             01 
01170020002000048DEM       Judge, Court of Crim Appeals, Place 7                   Ramona Franklin                       Precinct 2                                             01 
01170020003000066DEM       Judge, Court of Crim Appeals, Place 7                   Ramona Franklin                       Precinct 3                                             01 
01170020004000044DEM       Judge, Court of Crim Appeals, Place 7                   Ramona Franklin                       Precinct 4                                             01 
01170030001000000          Judge, Court of Crim Appeals, Place 7                   OVER VOTES                            Precinct 1                                             01 
01170030002000000          Judge, Court of Crim Appeals, Place 7                   OVER VOTES                            Precinct 2                                             01 
01170030003000000          Judge, Court of Crim Appeals, Place 7                   OVER VOTES                            Precinct 3                                             01 
01170030004000000          Judge, Court of Crim Appeals, Place 7                   OVER VOTES                            Precinct 4                                             01 
01170040001000015          Judge, Court of Crim Appeals, Place 7                   UNDER VOTES                           Precinct 1                                             01 
01170040002000012          Judge, Court of Crim Appeals, Place 7                   UNDER VOTES                           Precinct 2                                             01 
01170040003000010          Judge, Court of Crim Appeals, Place 7                   UNDER VOTES                           Precinct 3                                             01 
01170040004000008          Judge, Court of Crim Appeals, Place 7                   UNDER VOTES                           Precinct 4                                             01 
01180010001000294REP       Judge, Court of Crim Appeals, Place 8                   Michelle Slaughter                    Precinct 1                                             01 
01180010002000231REP       Judge, Court of Crim Appeals, Place 8                   Michelle Slaughter                    Precinct 2                                             01 
01180010003000159REP       Judge, Court of Crim Appeals, Place 8                   Michelle Slaughter                    Precinct 3                                             01 
01180010004000152REP       Judge, Court of Crim Appeals, Place 8                   Michelle Slaughter                    Precinct 4                                             01 
01180020001000022LIB       Judge, Court of Crim Appeals, Place 8                   Mark Ash                              Precinct 1                                             01 
01180020002000023LIB       Judge, Court of Crim Appeals, Place 8                   Mark Ash                              Precinct 2                                             01 
01180020003000023LIB       Judge, Court of Crim Appeals, Place 8                   Mark Ash                              Precinct 3                                             01 
01180020004000013LIB       Judge, Court of Crim Appeals, Place 8                   Mark Ash                              Precinct 4                                             01 
01180030001000000          Judge, Court of Crim Appeals, Place 8                   OVER VOTES                            Precinct 1                                             01 
01180030002000000          Judge, Court of Crim Appeals, Place 8                   OVER VOTES                            Precinct 2                                             01 
01180030003000000          Judge, Court of Crim Appeals, Place 8                   OVER VOTES                            Precinct 3                                             01 
01180030004000000          Judge, Court of Crim Appeals, Place 8                   OVER VOTES                            Precinct 4                                             01 
01180040001000029          Judge, Court of Crim Appeals, Place 8                   UNDER VOTES                           Precinct 1                                             01 
01180040002000038          Judge, Court of Crim Appeals, Place 8                   UNDER VOTES                           Precinct 2                                             01 
01180040003000044          Judge, Court of Crim Appeals, Place 8                   UNDER VOTES                           Precinct 3                                             01 
01180040004000033          Judge, Court of Crim Appeals, Place 8                   UNDER VOTES                           Precinct 4                                             01 
01190010001000305REP       State Representative, District 82                       Tom Craddick                          Precinct 1                                             01 
01190010002000245REP       State Representative, District 82                       Tom Craddick                          Precinct 2                                             01 
01190010003000151REP       State Representative, District 82                       Tom Craddick                          Precinct 3                                             01 
01190010004000155REP       State Representative, District 82                       Tom Craddick                          Precinct 4                                             01 
01190020001000037DEM       State Representative, District 82                       Spencer Bounds                        Precinct 1                                             01 
01190020002000044DEM       State Representative, District 82                       Spencer Bounds                        Precinct 2                                             01 
01190020003000067DEM       State Representative, District 82                       Spencer Bounds                        Precinct 3                                             01 
01190020004000037DEM       State Representative, District 82                       Spencer Bounds                        Precinct 4                                             01 
01190030001000000          State Representative, District 82                       OVER VOTES                            Precinct 1                                             01 
01190030002000000          State Representative, District 82                       OVER VOTES                            Precinct 2                                             01 
01190030003000000          State Representative, District 82                       OVER VOTES                            Precinct 3                                             01 
01190030004000000          State Representative, District 82                       OVER VOTES                            Precinct 4                                             01 
01190040001000003          State Representative, District 82                       UNDER VOTES                           Precinct 1                                             01 
01190040002000003          State Representative, District 82                       UNDER VOTES                           Precinct 2                                             01 
01190040003000008          State Representative, District 82                       UNDER VOTES                           Precinct 3                                             01 
01190040004000006          State Representative, District 82                       UNDER VOTES                           Precinct 4                                             01 
01200010001000098DEM       Justice, 8th Court of Appeals Dist, Pl 2                Yvonne Rodriguez                      Precinct 1                                             01 
01200010002000088DEM       Justice, 8th Court of Appeals Dist, Pl 2                Yvonne Rodriguez                      Precinct 2                                             01 
01200010003000091DEM       Justice, 8th Court of Appeals Dist, Pl 2                Yvonne Rodriguez                      Precinct 3                                             01 
01200010004000063DEM       Justice, 8th Court of Appeals Dist, Pl 2                Yvonne Rodriguez                      Precinct 4                                             01 
01200020001000000          Justice, 8th Court of Appeals Dist, Pl 2                OVER VOTES                            Precinct 1                                             01 
01200020002000000          Justice, 8th Court of Appeals Dist, Pl 2                OVER VOTES                            Precinct 2                                             01 
01200020003000000          Justice, 8th Court of Appeals Dist, Pl 2                OVER VOTES                            Precinct 3                                             01 
01200020004000000          Justice, 8th Court of Appeals Dist, Pl 2                OVER VOTES                            Precinct 4                                             01 
01200030001000247          Justice, 8th Court of Appeals Dist, Pl 2                UNDER VOTES                           Precinct 1                                             01 
01200030002000204          Justice, 8th Court of Appeals Dist, Pl 2                UNDER VOTES                           Precinct 2                                             01 
01200030003000135          Justice, 8th Court of Appeals Dist, Pl 2                UNDER VOTES                           Precinct 3                                             01 
01200030004000135          Justice, 8th Court of Appeals Dist, Pl 2                UNDER VOTES                           Precinct 4                                             01 
01210010001000092DEM       Justice, 8th Court of Appeals Dist, Pl 3                Gina M. Palafox                       Precinct 1                                             01 
01210010002000087DEM       Justice, 8th Court of Appeals Dist, Pl 3                Gina M. Palafox                       Precinct 2                                             01 
01210010003000092DEM       Justice, 8th Court of Appeals Dist, Pl 3                Gina M. Palafox                       Precinct 3                                             01 
01210010004000062DEM       Justice, 8th Court of Appeals Dist, Pl 3                Gina M. Palafox                       Precinct 4                                             01 
01210020001000000          Justice, 8th Court of Appeals Dist, Pl 3                OVER VOTES                            Precinct 1                                             01 
01210020002000000          Justice, 8th Court of Appeals Dist, Pl 3                OVER VOTES                            Precinct 2                                             01 
01210020003000000          Justice, 8th Court of Appeals Dist, Pl 3                OVER VOTES                            Precinct 3                                             01 
01210020004000000          Justice, 8th Court of Appeals Dist, Pl 3                OVER VOTES                            Precinct 4                                             01 
01210030001000253          Justice, 8th Court of Appeals Dist, Pl 3                UNDER VOTES                           Precinct 1                                             01 
01210030002000205          Justice, 8th Court of Appeals Dist, Pl 3                UNDER VOTES                           Precinct 2                                             01 
01210030003000134          Justice, 8th Court of Appeals Dist, Pl 3                UNDER VOTES                           Precinct 3                                             01 
01210030004000136          Justice, 8th Court of Appeals Dist, Pl 3                UNDER VOTES                           Precinct 4                                             01 
01220010001000285REP       District Judge, 109th Judicial District                 John L. Pool                          Precinct 1                                             01 
01220010002000238REP       District Judge, 109th Judicial District                 John L. Pool                          Precinct 2                                             01 
01220010003000171REP       District Judge, 109th Judicial District                 John L. Pool                          Precinct 3                                             01 
01220010004000155REP       District Judge, 109th Judicial District                 John L. Pool                          Precinct 4                                             01 
01220020001000000          District Judge, 109th Judicial District                 OVER VOTES                            Precinct 1                                             01 
01220020002000000          District Judge, 109th Judicial District                 OVER VOTES                            Precinct 2                                             01 
01220020003000000          District Judge, 109th Judicial District                 OVER VOTES                            Precinct 3                                             01 
01220020004000000          District Judge, 109th Judicial District                 OVER VOTES                            Precinct 4                                             01 
01220030001000060          District Judge, 109th Judicial District                 UNDER VOTES                           Precinct 1                                             01 
01220030002000054          District Judge, 109th Judicial District                 UNDER VOTES                           Precinct 2                                             01 
01220030003000055          District Judge, 109th Judicial District                 UNDER VOTES                           Precinct 3                                             01 
01220030004000043          District Judge, 109th Judicial District                 UNDER VOTES                           Precinct 4                                             01 
01230010001000293REP       County Judge                                            Roy Hodges                            Precinct 1                                             01 
01230010002000238REP       County Judge                                            Roy Hodges                            Precinct 2                                             01 
01230010003000173REP       County Judge                                            Roy Hodges                            Precinct 3                                             01 
01230010004000159REP       County Judge                                            Roy Hodges                            Precinct 4                                             01 
01230020001000000          County Judge                                            OVER VOTES                            Precinct 1                                             01 
01230020002000000          County Judge                                            OVER VOTES                            Precinct 2                                             01 
01230020003000000          County Judge                                            OVER VOTES                            Precinct 3                                             01 
01230020004000000          County Judge                                            OVER VOTES                            Precinct 4                                             01 
01230030001000052          County Judge                                            UNDER VOTES                           Precinct 1                                             01 
01230030002000054          County Judge                                            UNDER VOTES                           Precinct 2                                             01 
01230030003000053          County Judge                                            UNDER VOTES                           Precinct 3                                             01 
01230030004000039          County Judge                                            UNDER VOTES                           Precinct 4                                             01 
01240010001000277REP       County Attorney, Unexpired Term                         Austin Rawls                          Precinct 1                                             01 
01240010002000233REP       County Attorney, Unexpired Term                         Austin Rawls                          Precinct 2                                             01 
01240010003000172REP       County Attorney, Unexpired Term                         Austin Rawls                          Precinct 3                                             01 
01240010004000163REP       County Attorney, Unexpired Term                         Austin Rawls                          Precinct 4                                             01 
01240020001000000          County Attorney, Unexpired Term                         OVER VOTES                            Precinct 1                                             01 
01240020002000000          County Attorney, Unexpired Term                         OVER VOTES                            Precinct 2                                             01 
01240020003000000          County Attorney, Unexpired Term                         OVER VOTES                            Precinct 3                                             01 
01240020004000000          County Attorney, Unexpired Term                         OVER VOTES                            Precinct 4                                             01 
01240030001000068          County Attorney, Unexpired Term                         UNDER VOTES                           Precinct 1                                             01 
01240030002000059          County Attorney, Unexpired Term                         UNDER VOTES                           Precinct 2                                             01 
01240030003000054          County Attorney, Unexpired Term                         UNDER VOTES                           Precinct 3                                             01 
01240030004000035          County Attorney, Unexpired Term                         UNDER VOTES                           Precinct 4                                             01 
01250010001000294REP       District and County Clerk                               Judy Crawford                         Precinct 1                                             01 
01250010002000245REP       District and County Clerk                               Judy Crawford                         Precinct 2                                             01 
01250010003000179REP       District and County Clerk                               Judy Crawford                         Precinct 3                                             01 
01250010004000167REP       District and County Clerk                               Judy Crawford                         Precinct 4                                             01 
01250020001000000          District and County Clerk                               OVER VOTES                            Precinct 1                                             01 
01250020002000000          District and County Clerk                               OVER VOTES                            Precinct 2                                             01 
01250020003000000          District and County Clerk                               OVER VOTES                            Precinct 3                                             01 
01250020004000000          District and County Clerk                               OVER VOTES                            Precinct 4                                             01 
01250030001000051          District and County Clerk                               UNDER VOTES                           Precinct 1                                             01 
01250030002000047          District and County Clerk                               UNDER VOTES                           Precinct 2                                             01 
01250030003000047          District and County Clerk                               UNDER VOTES                           Precinct 3                                             01 
01250030004000031          District and County Clerk                               UNDER VOTES                           Precinct 4                                             01 
01260010001000309REP       County Treasurer                                        Sheila Pahl                           Precinct 1                                             01 
01260010002000242REP       County Treasurer                                        Sheila Pahl                           Precinct 2                                             01 
01260010003000173REP       County Treasurer                                        Sheila Pahl                           Precinct 3                                             01 
01260010004000169REP       County Treasurer                                        Sheila Pahl                           Precinct 4                                             01 
01260020001000000          County Treasurer                                        OVER VOTES                            Precinct 1                                             01 
01260020002000000          County Treasurer                                        OVER VOTES                            Precinct 2                                             01 
01260020003000000          County Treasurer                                        OVER VOTES                            Precinct 3                                             01 
01260020004000000          County Treasurer                                        OVER VOTES                            Precinct 4                                             01 
01260030001000036          County Treasurer                                        UNDER VOTES                           Precinct 1                                             01 
01260030002000050          County Treasurer                                        UNDER VOTES                           Precinct 2                                             01 
01260030003000053          County Treasurer                                        UNDER VOTES                           Precinct 3                                             01 
01260030004000029          County Treasurer                                        UNDER VOTES                           Precinct 4                                             01 
01270010002000248REPCOMM002County Commissioner, Precinct No. 2                     Brian M. Brents                       Precinct 2                                             01 
01270020002000000   COMM002County Commissioner, Precinct No. 2                     OVER VOTES                            Precinct 2                                             01 
01270030002000044   COMM002County Commissioner, Precinct No. 2                     UNDER VOTES                           Precinct 2                                             01 
01280010004000160REPCOMM004County Commissioner, Precinct No. 4                     Cody Bob Harrelson                    Precinct 4                                             01 
01280020004000000   COMM004County Commissioner, Precinct No. 4                     OVER VOTES                            Precinct 4                                             01 
01280030004000038   COMM004County Commissioner, Precinct No. 4                     UNDER VOTES                           Precinct 4                                             01 
01290010001000312REP       Justice of the Peace                                    Twilah Ward                           Precinct 1                                             01 
01290010002000255REP       Justice of the Peace                                    Twilah Ward                           Precinct 2                                             01 
01290010003000179REP       Justice of the Peace                                    Twilah Ward                           Precinct 3                                             01 
01290010004000170REP       Justice of the Peace                                    Twilah Ward                           Precinct 4                                             01 
01290020001000000          Justice of the Peace                                    OVER VOTES                            Precinct 1                                             01 
01290020002000000          Justice of the Peace                                    OVER VOTES                            Precinct 2                                             01 
01290020003000000          Justice of the Peace                                    OVER VOTES                            Precinct 3                                             01 
01290020004000000          Justice of the Peace                                    OVER VOTES                            Precinct 4                                             01 
01290030001000033          Justice of the Peace                                    UNDER VOTES                           Precinct 1                                             01 
01290030002000037          Justice of the Peace                                    UNDER VOTES                           Precinct 2                                             01 
01290030003000047          Justice of the Peace                                    UNDER VOTES                           Precinct 3                                             01 
01290030004000028          Justice of the Peace                                    UNDER VOTES                           Precinct 4                                             01 
