01840011089000070NONEAST002East Central ISD Single Member District 2               Michael W. Feller                                                                            01 
01840011115000013NONEAST002East Central ISD Single Member District 2               Michael W. Feller                                                                            01 
01840014074000149NONEAST002East Central ISD Single Member District 2               Michael W. Feller                                                                            01 
01840014086000023NONEAST002East Central ISD Single Member District 2               Michael W. Feller                                                                            01 
01840014129000008NONEAST002East Central ISD Single Member District 2               Michael W. Feller                                                                            01 
01840014153000009NONEAST002East Central ISD Single Member District 2               Michael W. Feller                                                                            01 
01840014165000015NONEAST002East Central ISD Single Member District 2               Michael W. Feller                                                                            01 
01840014180000001NONEAST002East Central ISD Single Member District 2               Michael W. Feller                                                                            01 
01840014202000000NONEAST002East Central ISD Single Member District 2               Michael W. Feller                                                                            01 
01840021089000166NONEAST002East Central ISD Single Member District 2               Monique "Mo" Presas                                                                          01 
01840021115000029NONEAST002East Central ISD Single Member District 2               Monique "Mo" Presas                                                                          01 
01840024074000214NONEAST002East Central ISD Single Member District 2               Monique "Mo" Presas                                                                          01 
01840024086000030NONEAST002East Central ISD Single Member District 2               Monique "Mo" Presas                                                                          01 
01840024129000013NONEAST002East Central ISD Single Member District 2               Monique "Mo" Presas                                                                          01 
01840024153000009NONEAST002East Central ISD Single Member District 2               Monique "Mo" Presas                                                                          01 
01840024165000011NONEAST002East Central ISD Single Member District 2               Monique "Mo" Presas                                                                          01 
01840024180000000NONEAST002East Central ISD Single Member District 2               Monique "Mo" Presas                                                                          01 
01840024202000000NONEAST002East Central ISD Single Member District 2               Monique "Mo" Presas                                                                          01 
01840031089000000   EAST002East Central ISD Single Member District 2               OVER VOTES                                                                                   01 
01840031115000000   EAST002East Central ISD Single Member District 2               OVER VOTES                                                                                   01 
01840034074000000   EAST002East Central ISD Single Member District 2               OVER VOTES                                                                                   01 
01840034086000000   EAST002East Central ISD Single Member District 2               OVER VOTES                                                                                   01 
01840034129000000   EAST002East Central ISD Single Member District 2               OVER VOTES                                                                                   01 
01840034153000000   EAST002East Central ISD Single Member District 2               OVER VOTES                                                                                   01 
01840034165000000   EAST002East Central ISD Single Member District 2               OVER VOTES                                                                                   01 
01840034180000000   EAST002East Central ISD Single Member District 2               OVER VOTES                                                                                   01 
01840034202000000   EAST002East Central ISD Single Member District 2               OVER VOTES                                                                                   01 
01840041089000141   EAST002East Central ISD Single Member District 2               UNDER VOTES                                                                                  01 
01840041115000033   EAST002East Central ISD Single Member District 2               UNDER VOTES                                                                                  01 
01840044074000275   EAST002East Central ISD Single Member District 2               UNDER VOTES                                                                                  01 
01840044086000032   EAST002East Central ISD Single Member District 2               UNDER VOTES                                                                                  01 
01840044129000017   EAST002East Central ISD Single Member District 2               UNDER VOTES                                                                                  01 
01840044153000007   EAST002East Central ISD Single Member District 2               UNDER VOTES                                                                                  01 
01840044165000013   EAST002East Central ISD Single Member District 2               UNDER VOTES                                                                                  01 
01840044180000001   EAST002East Central ISD Single Member District 2               UNDER VOTES                                                                                  01 
01840044202000000   EAST002East Central ISD Single Member District 2               UNDER VOTES                                                                                  01 
01850014070000442NONEAST005East Central ISD Single Member District 5               James T. Mulkey                                                                              01 
01850014077000155NONEAST005East Central ISD Single Member District 5               James T. Mulkey                                                                              01 
01850014167000003NONEAST005East Central ISD Single Member District 5               James T. Mulkey                                                                              01 
01850024070000428NONEAST005East Central ISD Single Member District 5               Gloria Gutierrez                                                                             01 
01850024077000186NONEAST005East Central ISD Single Member District 5               Gloria Gutierrez                                                                             01 
01850024167000003NONEAST005East Central ISD Single Member District 5               Gloria Gutierrez                                                                             01 
01850034070000000   EAST005East Central ISD Single Member District 5               OVER VOTES                                                                                   01 
01850034077000000   EAST005East Central ISD Single Member District 5               OVER VOTES                                                                                   01 
01850034167000000   EAST005East Central ISD Single Member District 5               OVER VOTES                                                                                   01 
01850044070000314   EAST005East Central ISD Single Member District 5               UNDER VOTES                                                                                  01 
01850044077000100   EAST005East Central ISD Single Member District 5               UNDER VOTES                                                                                  01 
01850044167000004   EAST005East Central ISD Single Member District 5               UNDER VOTES                                                                                  01 
