01840011089000091NONEAST002East Central ISD Single Member District 2               Michael W. Feller                                                                            01 
01840011115000015NONEAST002East Central ISD Single Member District 2               Michael W. Feller                                                                            01 
01840014074000195NONEAST002East Central ISD Single Member District 2               Michael W. Feller                                                                            01 
01840014086000033NONEAST002East Central ISD Single Member District 2               Michael W. Feller                                                                            01 
01840014129000013NONEAST002East Central ISD Single Member District 2               Michael W. Feller                                                                            01 
01840014153000012NONEAST002East Central ISD Single Member District 2               Michael W. Feller                                                                            01 
01840014165000021NONEAST002East Central ISD Single Member District 2               Michael W. Feller                                                                            01 
01840014180000001NONEAST002East Central ISD Single Member District 2               Michael W. Feller                                                                            01 
01840014202000000NONEAST002East Central ISD Single Member District 2               Michael W. Feller                                                                            01 
01840021089000223NONEAST002East Central ISD Single Member District 2               Monique "Mo" Presas                                                                          01 
01840021115000037NONEAST002East Central ISD Single Member District 2               Monique "Mo" Presas                                                                          01 
01840024074000302NONEAST002East Central ISD Single Member District 2               Monique "Mo" Presas                                                                          01 
01840024086000040NONEAST002East Central ISD Single Member District 2               Monique "Mo" Presas                                                                          01 
01840024129000018NONEAST002East Central ISD Single Member District 2               Monique "Mo" Presas                                                                          01 
01840024153000018NONEAST002East Central ISD Single Member District 2               Monique "Mo" Presas                                                                          01 
01840024165000014NONEAST002East Central ISD Single Member District 2               Monique "Mo" Presas                                                                          01 
01840024180000000NONEAST002East Central ISD Single Member District 2               Monique "Mo" Presas                                                                          01 
01840024202000000NONEAST002East Central ISD Single Member District 2               Monique "Mo" Presas                                                                          01 
01840031089000000   EAST002East Central ISD Single Member District 2               OVER VOTES                                                                                   01 
01840031115000000   EAST002East Central ISD Single Member District 2               OVER VOTES                                                                                   01 
01840034074000000   EAST002East Central ISD Single Member District 2               OVER VOTES                                                                                   01 
01840034086000000   EAST002East Central ISD Single Member District 2               OVER VOTES                                                                                   01 
01840034129000000   EAST002East Central ISD Single Member District 2               OVER VOTES                                                                                   01 
01840034153000000   EAST002East Central ISD Single Member District 2               OVER VOTES                                                                                   01 
01840034165000000   EAST002East Central ISD Single Member District 2               OVER VOTES                                                                                   01 
01840034180000000   EAST002East Central ISD Single Member District 2               OVER VOTES                                                                                   01 
01840034202000000   EAST002East Central ISD Single Member District 2               OVER VOTES                                                                                   01 
01840041089000187   EAST002East Central ISD Single Member District 2               UNDER VOTES                                                                                  01 
01840041115000040   EAST002East Central ISD Single Member District 2               UNDER VOTES                                                                                  01 
01840044074000384   EAST002East Central ISD Single Member District 2               UNDER VOTES                                                                                  01 
01840044086000042   EAST002East Central ISD Single Member District 2               UNDER VOTES                                                                                  01 
01840044129000019   EAST002East Central ISD Single Member District 2               UNDER VOTES                                                                                  01 
01840044153000014   EAST002East Central ISD Single Member District 2               UNDER VOTES                                                                                  01 
01840044165000019   EAST002East Central ISD Single Member District 2               UNDER VOTES                                                                                  01 
01840044180000001   EAST002East Central ISD Single Member District 2               UNDER VOTES                                                                                  01 
01840044202000000   EAST002East Central ISD Single Member District 2               UNDER VOTES                                                                                  01 
01850014070000573NONEAST005East Central ISD Single Member District 5               James T. Mulkey                                                                              01 
01850014077000201NONEAST005East Central ISD Single Member District 5               James T. Mulkey                                                                              01 
01850014167000003NONEAST005East Central ISD Single Member District 5               James T. Mulkey                                                                              01 
01850024070000531NONEAST005East Central ISD Single Member District 5               Gloria Gutierrez                                                                             01 
01850024077000233NONEAST005East Central ISD Single Member District 5               Gloria Gutierrez                                                                             01 
01850024167000005NONEAST005East Central ISD Single Member District 5               Gloria Gutierrez                                                                             01 
01850034070000000   EAST005East Central ISD Single Member District 5               OVER VOTES                                                                                   01 
01850034077000000   EAST005East Central ISD Single Member District 5               OVER VOTES                                                                                   01 
01850034167000000   EAST005East Central ISD Single Member District 5               OVER VOTES                                                                                   01 
01850044070000397   EAST005East Central ISD Single Member District 5               UNDER VOTES                                                                                  01 
01850044077000128   EAST005East Central ISD Single Member District 5               UNDER VOTES                                                                                  01 
01850044167000004   EAST005East Central ISD Single Member District 5               UNDER VOTES                                                                                  01 
