01860011013000119NONISDEDGEEdgewood ISD Position 1                                 James Hernandez                                                                              01 
01860011026000000NONISDEDGEEdgewood ISD Position 1                                 James Hernandez                                                                              01 
01860011029000280NONISDEDGEEdgewood ISD Position 1                                 James Hernandez                                                                              01 
01860011030000005NONISDEDGEEdgewood ISD Position 1                                 James Hernandez                                                                              01 
01860011031000210NONISDEDGEEdgewood ISD Position 1                                 James Hernandez                                                                              01 
01860011032000321NONISDEDGEEdgewood ISD Position 1                                 James Hernandez                                                                              01 
01860011035000000NONISDEDGEEdgewood ISD Position 1                                 James Hernandez                                                                              01 
01860011088000139NONISDEDGEEdgewood ISD Position 1                                 James Hernandez                                                                              01 
01860011090000000NONISDEDGEEdgewood ISD Position 1                                 James Hernandez                                                                              01 
01860011096000004NONISDEDGEEdgewood ISD Position 1                                 James Hernandez                                                                              01 
01860012011000324NONISDEDGEEdgewood ISD Position 1                                 James Hernandez                                                                              01 
01860012012000192NONISDEDGEEdgewood ISD Position 1                                 James Hernandez                                                                              01 
01860012015000224NONISDEDGEEdgewood ISD Position 1                                 James Hernandez                                                                              01 
01860012016000151NONISDEDGEEdgewood ISD Position 1                                 James Hernandez                                                                              01 
01860012017000129NONISDEDGEEdgewood ISD Position 1                                 James Hernandez                                                                              01 
01860012019000223NONISDEDGEEdgewood ISD Position 1                                 James Hernandez                                                                              01 
01860012020000319NONISDEDGEEdgewood ISD Position 1                                 James Hernandez                                                                              01 
01860012021000354NONISDEDGEEdgewood ISD Position 1                                 James Hernandez                                                                              01 
01860012022000212NONISDEDGEEdgewood ISD Position 1                                 James Hernandez                                                                              01 
01860012030000068NONISDEDGEEdgewood ISD Position 1                                 James Hernandez                                                                              01 
01860012043000300NONISDEDGEEdgewood ISD Position 1                                 James Hernandez                                                                              01 
01860012074000119NONISDEDGEEdgewood ISD Position 1                                 James Hernandez                                                                              01 
01860012089000029NONISDEDGEEdgewood ISD Position 1                                 James Hernandez                                                                              01 
01860012128000097NONISDEDGEEdgewood ISD Position 1                                 James Hernandez                                                                              01 
01860021013000000   ISDEDGEEdgewood ISD Position 1                                 OVER VOTES                                                                                   01 
01860021026000000   ISDEDGEEdgewood ISD Position 1                                 OVER VOTES                                                                                   01 
01860021029000000   ISDEDGEEdgewood ISD Position 1                                 OVER VOTES                                                                                   01 
01860021030000000   ISDEDGEEdgewood ISD Position 1                                 OVER VOTES                                                                                   01 
01860021031000000   ISDEDGEEdgewood ISD Position 1                                 OVER VOTES                                                                                   01 
01860021032000000   ISDEDGEEdgewood ISD Position 1                                 OVER VOTES                                                                                   01 
01860021035000000   ISDEDGEEdgewood ISD Position 1                                 OVER VOTES                                                                                   01 
01860021088000000   ISDEDGEEdgewood ISD Position 1                                 OVER VOTES                                                                                   01 
01860021090000000   ISDEDGEEdgewood ISD Position 1                                 OVER VOTES                                                                                   01 
01860021096000000   ISDEDGEEdgewood ISD Position 1                                 OVER VOTES                                                                                   01 
01860022011000000   ISDEDGEEdgewood ISD Position 1                                 OVER VOTES                                                                                   01 
01860022012000000   ISDEDGEEdgewood ISD Position 1                                 OVER VOTES                                                                                   01 
01860022015000000   ISDEDGEEdgewood ISD Position 1                                 OVER VOTES                                                                                   01 
01860022016000000   ISDEDGEEdgewood ISD Position 1                                 OVER VOTES                                                                                   01 
01860022017000000   ISDEDGEEdgewood ISD Position 1                                 OVER VOTES                                                                                   01 
01860022019000000   ISDEDGEEdgewood ISD Position 1                                 OVER VOTES                                                                                   01 
01860022020000000   ISDEDGEEdgewood ISD Position 1                                 OVER VOTES                                                                                   01 
01860022021000000   ISDEDGEEdgewood ISD Position 1                                 OVER VOTES                                                                                   01 
01860022022000000   ISDEDGEEdgewood ISD Position 1                                 OVER VOTES                                                                                   01 
01860022030000000   ISDEDGEEdgewood ISD Position 1                                 OVER VOTES                                                                                   01 
01860022043000000   ISDEDGEEdgewood ISD Position 1                                 OVER VOTES                                                                                   01 
01860022074000000   ISDEDGEEdgewood ISD Position 1                                 OVER VOTES                                                                                   01 
01860022089000000   ISDEDGEEdgewood ISD Position 1                                 OVER VOTES                                                                                   01 
01860022128000000   ISDEDGEEdgewood ISD Position 1                                 OVER VOTES                                                                                   01 
01860031013000211   ISDEDGEEdgewood ISD Position 1                                 UNDER VOTES                                                                                  01 
01860031026000000   ISDEDGEEdgewood ISD Position 1                                 UNDER VOTES                                                                                  01 
01860031029000433   ISDEDGEEdgewood ISD Position 1                                 UNDER VOTES                                                                                  01 
01860031030000011   ISDEDGEEdgewood ISD Position 1                                 UNDER VOTES                                                                                  01 
01860031031000330   ISDEDGEEdgewood ISD Position 1                                 UNDER VOTES                                                                                  01 
01860031032000506   ISDEDGEEdgewood ISD Position 1                                 UNDER VOTES                                                                                  01 
01860031035000000   ISDEDGEEdgewood ISD Position 1                                 UNDER VOTES                                                                                  01 
01860031088000206   ISDEDGEEdgewood ISD Position 1                                 UNDER VOTES                                                                                  01 
01860031090000000   ISDEDGEEdgewood ISD Position 1                                 UNDER VOTES                                                                                  01 
01860031096000005   ISDEDGEEdgewood ISD Position 1                                 UNDER VOTES                                                                                  01 
01860032011000375   ISDEDGEEdgewood ISD Position 1                                 UNDER VOTES                                                                                  01 
01860032012000267   ISDEDGEEdgewood ISD Position 1                                 UNDER VOTES                                                                                  01 
01860032015000353   ISDEDGEEdgewood ISD Position 1                                 UNDER VOTES                                                                                  01 
01860032016000230   ISDEDGEEdgewood ISD Position 1                                 UNDER VOTES                                                                                  01 
01860032017000209   ISDEDGEEdgewood ISD Position 1                                 UNDER VOTES                                                                                  01 
01860032019000327   ISDEDGEEdgewood ISD Position 1                                 UNDER VOTES                                                                                  01 
01860032020000518   ISDEDGEEdgewood ISD Position 1                                 UNDER VOTES                                                                                  01 
01860032021000573   ISDEDGEEdgewood ISD Position 1                                 UNDER VOTES                                                                                  01 
01860032022000311   ISDEDGEEdgewood ISD Position 1                                 UNDER VOTES                                                                                  01 
01860032030000098   ISDEDGEEdgewood ISD Position 1                                 UNDER VOTES                                                                                  01 
01860032043000400   ISDEDGEEdgewood ISD Position 1                                 UNDER VOTES                                                                                  01 
01860032074000192   ISDEDGEEdgewood ISD Position 1                                 UNDER VOTES                                                                                  01 
01860032089000058   ISDEDGEEdgewood ISD Position 1                                 UNDER VOTES                                                                                  01 
01860032128000134   ISDEDGEEdgewood ISD Position 1                                 UNDER VOTES                                                                                  01 
01870011013000132NONISDEDGEEdgewood ISD Position 2                                 Stella D. Camacho                                                                            01 
01870011026000000NONISDEDGEEdgewood ISD Position 2                                 Stella D. Camacho                                                                            01 
01870011029000322NONISDEDGEEdgewood ISD Position 2                                 Stella D. Camacho                                                                            01 
01870011030000005NONISDEDGEEdgewood ISD Position 2                                 Stella D. Camacho                                                                            01 
01870011031000235NONISDEDGEEdgewood ISD Position 2                                 Stella D. Camacho                                                                            01 
01870011032000350NONISDEDGEEdgewood ISD Position 2                                 Stella D. Camacho                                                                            01 
01870011035000000NONISDEDGEEdgewood ISD Position 2                                 Stella D. Camacho                                                                            01 
01870011088000151NONISDEDGEEdgewood ISD Position 2                                 Stella D. Camacho                                                                            01 
01870011090000000NONISDEDGEEdgewood ISD Position 2                                 Stella D. Camacho                                                                            01 
01870011096000003NONISDEDGEEdgewood ISD Position 2                                 Stella D. Camacho                                                                            01 
01870012011000326NONISDEDGEEdgewood ISD Position 2                                 Stella D. Camacho                                                                            01 
01870012012000203NONISDEDGEEdgewood ISD Position 2                                 Stella D. Camacho                                                                            01 
01870012015000265NONISDEDGEEdgewood ISD Position 2                                 Stella D. Camacho                                                                            01 
01870012016000164NONISDEDGEEdgewood ISD Position 2                                 Stella D. Camacho                                                                            01 
01870012017000146NONISDEDGEEdgewood ISD Position 2                                 Stella D. Camacho                                                                            01 
01870012019000239NONISDEDGEEdgewood ISD Position 2                                 Stella D. Camacho                                                                            01 
01870012020000342NONISDEDGEEdgewood ISD Position 2                                 Stella D. Camacho                                                                            01 
01870012021000396NONISDEDGEEdgewood ISD Position 2                                 Stella D. Camacho                                                                            01 
01870012022000223NONISDEDGEEdgewood ISD Position 2                                 Stella D. Camacho                                                                            01 
01870012030000079NONISDEDGEEdgewood ISD Position 2                                 Stella D. Camacho                                                                            01 
01870012043000306NONISDEDGEEdgewood ISD Position 2                                 Stella D. Camacho                                                                            01 
01870012074000130NONISDEDGEEdgewood ISD Position 2                                 Stella D. Camacho                                                                            01 
01870012089000028NONISDEDGEEdgewood ISD Position 2                                 Stella D. Camacho                                                                            01 
01870012128000102NONISDEDGEEdgewood ISD Position 2                                 Stella D. Camacho                                                                            01 
01870021013000000   ISDEDGEEdgewood ISD Position 2                                 OVER VOTES                                                                                   01 
01870021026000000   ISDEDGEEdgewood ISD Position 2                                 OVER VOTES                                                                                   01 
01870021029000000   ISDEDGEEdgewood ISD Position 2                                 OVER VOTES                                                                                   01 
01870021030000000   ISDEDGEEdgewood ISD Position 2                                 OVER VOTES                                                                                   01 
01870021031000000   ISDEDGEEdgewood ISD Position 2                                 OVER VOTES                                                                                   01 
01870021032000000   ISDEDGEEdgewood ISD Position 2                                 OVER VOTES                                                                                   01 
01870021035000000   ISDEDGEEdgewood ISD Position 2                                 OVER VOTES                                                                                   01 
01870021088000000   ISDEDGEEdgewood ISD Position 2                                 OVER VOTES                                                                                   01 
01870021090000000   ISDEDGEEdgewood ISD Position 2                                 OVER VOTES                                                                                   01 
01870021096000000   ISDEDGEEdgewood ISD Position 2                                 OVER VOTES                                                                                   01 
01870022011000000   ISDEDGEEdgewood ISD Position 2                                 OVER VOTES                                                                                   01 
01870022012000000   ISDEDGEEdgewood ISD Position 2                                 OVER VOTES                                                                                   01 
01870022015000000   ISDEDGEEdgewood ISD Position 2                                 OVER VOTES                                                                                   01 
01870022016000000   ISDEDGEEdgewood ISD Position 2                                 OVER VOTES                                                                                   01 
01870022017000000   ISDEDGEEdgewood ISD Position 2                                 OVER VOTES                                                                                   01 
01870022019000000   ISDEDGEEdgewood ISD Position 2                                 OVER VOTES                                                                                   01 
01870022020000000   ISDEDGEEdgewood ISD Position 2                                 OVER VOTES                                                                                   01 
01870022021000000   ISDEDGEEdgewood ISD Position 2                                 OVER VOTES                                                                                   01 
01870022022000000   ISDEDGEEdgewood ISD Position 2                                 OVER VOTES                                                                                   01 
01870022030000000   ISDEDGEEdgewood ISD Position 2                                 OVER VOTES                                                                                   01 
01870022043000000   ISDEDGEEdgewood ISD Position 2                                 OVER VOTES                                                                                   01 
01870022074000000   ISDEDGEEdgewood ISD Position 2                                 OVER VOTES                                                                                   01 
01870022089000000   ISDEDGEEdgewood ISD Position 2                                 OVER VOTES                                                                                   01 
01870022128000000   ISDEDGEEdgewood ISD Position 2                                 OVER VOTES                                                                                   01 
01870031013000198   ISDEDGEEdgewood ISD Position 2                                 UNDER VOTES                                                                                  01 
01870031026000000   ISDEDGEEdgewood ISD Position 2                                 UNDER VOTES                                                                                  01 
01870031029000391   ISDEDGEEdgewood ISD Position 2                                 UNDER VOTES                                                                                  01 
01870031030000011   ISDEDGEEdgewood ISD Position 2                                 UNDER VOTES                                                                                  01 
01870031031000305   ISDEDGEEdgewood ISD Position 2                                 UNDER VOTES                                                                                  01 
01870031032000477   ISDEDGEEdgewood ISD Position 2                                 UNDER VOTES                                                                                  01 
01870031035000000   ISDEDGEEdgewood ISD Position 2                                 UNDER VOTES                                                                                  01 
01870031088000194   ISDEDGEEdgewood ISD Position 2                                 UNDER VOTES                                                                                  01 
01870031090000000   ISDEDGEEdgewood ISD Position 2                                 UNDER VOTES                                                                                  01 
01870031096000006   ISDEDGEEdgewood ISD Position 2                                 UNDER VOTES                                                                                  01 
01870032011000373   ISDEDGEEdgewood ISD Position 2                                 UNDER VOTES                                                                                  01 
01870032012000256   ISDEDGEEdgewood ISD Position 2                                 UNDER VOTES                                                                                  01 
01870032015000312   ISDEDGEEdgewood ISD Position 2                                 UNDER VOTES                                                                                  01 
01870032016000217   ISDEDGEEdgewood ISD Position 2                                 UNDER VOTES                                                                                  01 
01870032017000192   ISDEDGEEdgewood ISD Position 2                                 UNDER VOTES                                                                                  01 
01870032019000311   ISDEDGEEdgewood ISD Position 2                                 UNDER VOTES                                                                                  01 
01870032020000495   ISDEDGEEdgewood ISD Position 2                                 UNDER VOTES                                                                                  01 
01870032021000531   ISDEDGEEdgewood ISD Position 2                                 UNDER VOTES                                                                                  01 
01870032022000300   ISDEDGEEdgewood ISD Position 2                                 UNDER VOTES                                                                                  01 
01870032030000087   ISDEDGEEdgewood ISD Position 2                                 UNDER VOTES                                                                                  01 
01870032043000394   ISDEDGEEdgewood ISD Position 2                                 UNDER VOTES                                                                                  01 
01870032074000181   ISDEDGEEdgewood ISD Position 2                                 UNDER VOTES                                                                                  01 
01870032089000059   ISDEDGEEdgewood ISD Position 2                                 UNDER VOTES                                                                                  01 
01870032128000129   ISDEDGEEdgewood ISD Position 2                                 UNDER VOTES                                                                                  01 
01880011013000120NONISDEDGEEdgewood ISD Position 3                                 Luis "Louie" Gomez                                                                           01 
01880011026000000NONISDEDGEEdgewood ISD Position 3                                 Luis "Louie" Gomez                                                                           01 
01880011029000312NONISDEDGEEdgewood ISD Position 3                                 Luis "Louie" Gomez                                                                           01 
01880011030000004NONISDEDGEEdgewood ISD Position 3                                 Luis "Louie" Gomez                                                                           01 
01880011031000219NONISDEDGEEdgewood ISD Position 3                                 Luis "Louie" Gomez                                                                           01 
01880011032000315NONISDEDGEEdgewood ISD Position 3                                 Luis "Louie" Gomez                                                                           01 
01880011035000000NONISDEDGEEdgewood ISD Position 3                                 Luis "Louie" Gomez                                                                           01 
01880011088000134NONISDEDGEEdgewood ISD Position 3                                 Luis "Louie" Gomez                                                                           01 
01880011090000000NONISDEDGEEdgewood ISD Position 3                                 Luis "Louie" Gomez                                                                           01 
01880011096000003NONISDEDGEEdgewood ISD Position 3                                 Luis "Louie" Gomez                                                                           01 
01880012011000301NONISDEDGEEdgewood ISD Position 3                                 Luis "Louie" Gomez                                                                           01 
01880012012000185NONISDEDGEEdgewood ISD Position 3                                 Luis "Louie" Gomez                                                                           01 
01880012015000219NONISDEDGEEdgewood ISD Position 3                                 Luis "Louie" Gomez                                                                           01 
01880012016000156NONISDEDGEEdgewood ISD Position 3                                 Luis "Louie" Gomez                                                                           01 
01880012017000135NONISDEDGEEdgewood ISD Position 3                                 Luis "Louie" Gomez                                                                           01 
01880012019000226NONISDEDGEEdgewood ISD Position 3                                 Luis "Louie" Gomez                                                                           01 
01880012020000304NONISDEDGEEdgewood ISD Position 3                                 Luis "Louie" Gomez                                                                           01 
01880012021000354NONISDEDGEEdgewood ISD Position 3                                 Luis "Louie" Gomez                                                                           01 
01880012022000199NONISDEDGEEdgewood ISD Position 3                                 Luis "Louie" Gomez                                                                           01 
01880012030000068NONISDEDGEEdgewood ISD Position 3                                 Luis "Louie" Gomez                                                                           01 
01880012043000295NONISDEDGEEdgewood ISD Position 3                                 Luis "Louie" Gomez                                                                           01 
01880012074000119NONISDEDGEEdgewood ISD Position 3                                 Luis "Louie" Gomez                                                                           01 
01880012089000028NONISDEDGEEdgewood ISD Position 3                                 Luis "Louie" Gomez                                                                           01 
01880012128000095NONISDEDGEEdgewood ISD Position 3                                 Luis "Louie" Gomez                                                                           01 
01880021013000000   ISDEDGEEdgewood ISD Position 3                                 OVER VOTES                                                                                   01 
01880021026000000   ISDEDGEEdgewood ISD Position 3                                 OVER VOTES                                                                                   01 
01880021029000000   ISDEDGEEdgewood ISD Position 3                                 OVER VOTES                                                                                   01 
01880021030000000   ISDEDGEEdgewood ISD Position 3                                 OVER VOTES                                                                                   01 
01880021031000000   ISDEDGEEdgewood ISD Position 3                                 OVER VOTES                                                                                   01 
01880021032000000   ISDEDGEEdgewood ISD Position 3                                 OVER VOTES                                                                                   01 
01880021035000000   ISDEDGEEdgewood ISD Position 3                                 OVER VOTES                                                                                   01 
01880021088000000   ISDEDGEEdgewood ISD Position 3                                 OVER VOTES                                                                                   01 
01880021090000000   ISDEDGEEdgewood ISD Position 3                                 OVER VOTES                                                                                   01 
01880021096000000   ISDEDGEEdgewood ISD Position 3                                 OVER VOTES                                                                                   01 
01880022011000000   ISDEDGEEdgewood ISD Position 3                                 OVER VOTES                                                                                   01 
01880022012000000   ISDEDGEEdgewood ISD Position 3                                 OVER VOTES                                                                                   01 
01880022015000000   ISDEDGEEdgewood ISD Position 3                                 OVER VOTES                                                                                   01 
01880022016000000   ISDEDGEEdgewood ISD Position 3                                 OVER VOTES                                                                                   01 
01880022017000000   ISDEDGEEdgewood ISD Position 3                                 OVER VOTES                                                                                   01 
01880022019000000   ISDEDGEEdgewood ISD Position 3                                 OVER VOTES                                                                                   01 
01880022020000000   ISDEDGEEdgewood ISD Position 3                                 OVER VOTES                                                                                   01 
01880022021000000   ISDEDGEEdgewood ISD Position 3                                 OVER VOTES                                                                                   01 
01880022022000000   ISDEDGEEdgewood ISD Position 3                                 OVER VOTES                                                                                   01 
01880022030000000   ISDEDGEEdgewood ISD Position 3                                 OVER VOTES                                                                                   01 
01880022043000000   ISDEDGEEdgewood ISD Position 3                                 OVER VOTES                                                                                   01 
01880022074000000   ISDEDGEEdgewood ISD Position 3                                 OVER VOTES                                                                                   01 
01880022089000000   ISDEDGEEdgewood ISD Position 3                                 OVER VOTES                                                                                   01 
01880022128000000   ISDEDGEEdgewood ISD Position 3                                 OVER VOTES                                                                                   01 
01880031013000210   ISDEDGEEdgewood ISD Position 3                                 UNDER VOTES                                                                                  01 
01880031026000000   ISDEDGEEdgewood ISD Position 3                                 UNDER VOTES                                                                                  01 
01880031029000401   ISDEDGEEdgewood ISD Position 3                                 UNDER VOTES                                                                                  01 
01880031030000012   ISDEDGEEdgewood ISD Position 3                                 UNDER VOTES                                                                                  01 
01880031031000321   ISDEDGEEdgewood ISD Position 3                                 UNDER VOTES                                                                                  01 
01880031032000512   ISDEDGEEdgewood ISD Position 3                                 UNDER VOTES                                                                                  01 
01880031035000000   ISDEDGEEdgewood ISD Position 3                                 UNDER VOTES                                                                                  01 
01880031088000211   ISDEDGEEdgewood ISD Position 3                                 UNDER VOTES                                                                                  01 
01880031090000000   ISDEDGEEdgewood ISD Position 3                                 UNDER VOTES                                                                                  01 
01880031096000006   ISDEDGEEdgewood ISD Position 3                                 UNDER VOTES                                                                                  01 
01880032011000398   ISDEDGEEdgewood ISD Position 3                                 UNDER VOTES                                                                                  01 
01880032012000274   ISDEDGEEdgewood ISD Position 3                                 UNDER VOTES                                                                                  01 
01880032015000358   ISDEDGEEdgewood ISD Position 3                                 UNDER VOTES                                                                                  01 
01880032016000225   ISDEDGEEdgewood ISD Position 3                                 UNDER VOTES                                                                                  01 
01880032017000203   ISDEDGEEdgewood ISD Position 3                                 UNDER VOTES                                                                                  01 
01880032019000324   ISDEDGEEdgewood ISD Position 3                                 UNDER VOTES                                                                                  01 
01880032020000533   ISDEDGEEdgewood ISD Position 3                                 UNDER VOTES                                                                                  01 
01880032021000573   ISDEDGEEdgewood ISD Position 3                                 UNDER VOTES                                                                                  01 
01880032022000324   ISDEDGEEdgewood ISD Position 3                                 UNDER VOTES                                                                                  01 
01880032030000098   ISDEDGEEdgewood ISD Position 3                                 UNDER VOTES                                                                                  01 
01880032043000405   ISDEDGEEdgewood ISD Position 3                                 UNDER VOTES                                                                                  01 
01880032074000192   ISDEDGEEdgewood ISD Position 3                                 UNDER VOTES                                                                                  01 
01880032089000059   ISDEDGEEdgewood ISD Position 3                                 UNDER VOTES                                                                                  01 
01880032128000136   ISDEDGEEdgewood ISD Position 3                                 UNDER VOTES                                                                                  01 
01890011013000086NONISDEDGEEdgewood ISD Position 6                                 Dina Serrano                                                                                 01 
01890011026000000NONISDEDGEEdgewood ISD Position 6                                 Dina Serrano                                                                                 01 
01890011029000162NONISDEDGEEdgewood ISD Position 6                                 Dina Serrano                                                                                 01 
01890011030000001NONISDEDGEEdgewood ISD Position 6                                 Dina Serrano                                                                                 01 
01890011031000136NONISDEDGEEdgewood ISD Position 6                                 Dina Serrano                                                                                 01 
01890011032000238NONISDEDGEEdgewood ISD Position 6                                 Dina Serrano                                                                                 01 
01890011035000000NONISDEDGEEdgewood ISD Position 6                                 Dina Serrano                                                                                 01 
01890011088000107NONISDEDGEEdgewood ISD Position 6                                 Dina Serrano                                                                                 01 
01890011090000000NONISDEDGEEdgewood ISD Position 6                                 Dina Serrano                                                                                 01 
01890011096000003NONISDEDGEEdgewood ISD Position 6                                 Dina Serrano                                                                                 01 
01890012011000238NONISDEDGEEdgewood ISD Position 6                                 Dina Serrano                                                                                 01 
01890012012000152NONISDEDGEEdgewood ISD Position 6                                 Dina Serrano                                                                                 01 
01890012015000189NONISDEDGEEdgewood ISD Position 6                                 Dina Serrano                                                                                 01 
01890012016000112NONISDEDGEEdgewood ISD Position 6                                 Dina Serrano                                                                                 01 
01890012017000111NONISDEDGEEdgewood ISD Position 6                                 Dina Serrano                                                                                 01 
01890012019000161NONISDEDGEEdgewood ISD Position 6                                 Dina Serrano                                                                                 01 
01890012020000242NONISDEDGEEdgewood ISD Position 6                                 Dina Serrano                                                                                 01 
01890012021000278NONISDEDGEEdgewood ISD Position 6                                 Dina Serrano                                                                                 01 
01890012022000155NONISDEDGEEdgewood ISD Position 6                                 Dina Serrano                                                                                 01 
01890012030000047NONISDEDGEEdgewood ISD Position 6                                 Dina Serrano                                                                                 01 
01890012043000218NONISDEDGEEdgewood ISD Position 6                                 Dina Serrano                                                                                 01 
01890012074000115NONISDEDGEEdgewood ISD Position 6                                 Dina Serrano                                                                                 01 
01890012089000022NONISDEDGEEdgewood ISD Position 6                                 Dina Serrano                                                                                 01 
01890012128000075NONISDEDGEEdgewood ISD Position 6                                 Dina Serrano                                                                                 01 
01890021013000107NONISDEDGEEdgewood ISD Position 6                                 Richard Santoyo Jr.                                                                          01 
01890021026000000NONISDEDGEEdgewood ISD Position 6                                 Richard Santoyo Jr.                                                                          01 
01890021029000268NONISDEDGEEdgewood ISD Position 6                                 Richard Santoyo Jr.                                                                          01 
01890021030000006NONISDEDGEEdgewood ISD Position 6                                 Richard Santoyo Jr.                                                                          01 
01890021031000185NONISDEDGEEdgewood ISD Position 6                                 Richard Santoyo Jr.                                                                          01 
01890021032000217NONISDEDGEEdgewood ISD Position 6                                 Richard Santoyo Jr.                                                                          01 
01890021035000000NONISDEDGEEdgewood ISD Position 6                                 Richard Santoyo Jr.                                                                          01 
01890021088000077NONISDEDGEEdgewood ISD Position 6                                 Richard Santoyo Jr.                                                                          01 
01890021090000000NONISDEDGEEdgewood ISD Position 6                                 Richard Santoyo Jr.                                                                          01 
01890021096000002NONISDEDGEEdgewood ISD Position 6                                 Richard Santoyo Jr.                                                                          01 
01890022011000154NONISDEDGEEdgewood ISD Position 6                                 Richard Santoyo Jr.                                                                          01 
01890022012000086NONISDEDGEEdgewood ISD Position 6                                 Richard Santoyo Jr.                                                                          01 
01890022015000100NONISDEDGEEdgewood ISD Position 6                                 Richard Santoyo Jr.                                                                          01 
01890022016000084NONISDEDGEEdgewood ISD Position 6                                 Richard Santoyo Jr.                                                                          01 
01890022017000079NONISDEDGEEdgewood ISD Position 6                                 Richard Santoyo Jr.                                                                          01 
01890022019000128NONISDEDGEEdgewood ISD Position 6                                 Richard Santoyo Jr.                                                                          01 
01890022020000187NONISDEDGEEdgewood ISD Position 6                                 Richard Santoyo Jr.                                                                          01 
01890022021000174NONISDEDGEEdgewood ISD Position 6                                 Richard Santoyo Jr.                                                                          01 
01890022022000097NONISDEDGEEdgewood ISD Position 6                                 Richard Santoyo Jr.                                                                          01 
01890022030000038NONISDEDGEEdgewood ISD Position 6                                 Richard Santoyo Jr.                                                                          01 
01890022043000150NONISDEDGEEdgewood ISD Position 6                                 Richard Santoyo Jr.                                                                          01 
01890022074000056NONISDEDGEEdgewood ISD Position 6                                 Richard Santoyo Jr.                                                                          01 
01890022089000015NONISDEDGEEdgewood ISD Position 6                                 Richard Santoyo Jr.                                                                          01 
01890022128000049NONISDEDGEEdgewood ISD Position 6                                 Richard Santoyo Jr.                                                                          01 
01890031013000001   ISDEDGEEdgewood ISD Position 6                                 OVER VOTES                                                                                   01 
01890031026000000   ISDEDGEEdgewood ISD Position 6                                 OVER VOTES                                                                                   01 
01890031029000000   ISDEDGEEdgewood ISD Position 6                                 OVER VOTES                                                                                   01 
01890031030000000   ISDEDGEEdgewood ISD Position 6                                 OVER VOTES                                                                                   01 
01890031031000000   ISDEDGEEdgewood ISD Position 6                                 OVER VOTES                                                                                   01 
01890031032000000   ISDEDGEEdgewood ISD Position 6                                 OVER VOTES                                                                                   01 
01890031035000000   ISDEDGEEdgewood ISD Position 6                                 OVER VOTES                                                                                   01 
01890031088000000   ISDEDGEEdgewood ISD Position 6                                 OVER VOTES                                                                                   01 
01890031090000000   ISDEDGEEdgewood ISD Position 6                                 OVER VOTES                                                                                   01 
01890031096000000   ISDEDGEEdgewood ISD Position 6                                 OVER VOTES                                                                                   01 
01890032011000000   ISDEDGEEdgewood ISD Position 6                                 OVER VOTES                                                                                   01 
01890032012000000   ISDEDGEEdgewood ISD Position 6                                 OVER VOTES                                                                                   01 
01890032015000000   ISDEDGEEdgewood ISD Position 6                                 OVER VOTES                                                                                   01 
01890032016000000   ISDEDGEEdgewood ISD Position 6                                 OVER VOTES                                                                                   01 
01890032017000000   ISDEDGEEdgewood ISD Position 6                                 OVER VOTES                                                                                   01 
01890032019000000   ISDEDGEEdgewood ISD Position 6                                 OVER VOTES                                                                                   01 
01890032020000000   ISDEDGEEdgewood ISD Position 6                                 OVER VOTES                                                                                   01 
01890032021000000   ISDEDGEEdgewood ISD Position 6                                 OVER VOTES                                                                                   01 
01890032022000000   ISDEDGEEdgewood ISD Position 6                                 OVER VOTES                                                                                   01 
01890032030000000   ISDEDGEEdgewood ISD Position 6                                 OVER VOTES                                                                                   01 
01890032043000000   ISDEDGEEdgewood ISD Position 6                                 OVER VOTES                                                                                   01 
01890032074000000   ISDEDGEEdgewood ISD Position 6                                 OVER VOTES                                                                                   01 
01890032089000000   ISDEDGEEdgewood ISD Position 6                                 OVER VOTES                                                                                   01 
01890032128000000   ISDEDGEEdgewood ISD Position 6                                 OVER VOTES                                                                                   01 
01890041013000136   ISDEDGEEdgewood ISD Position 6                                 UNDER VOTES                                                                                  01 
01890041026000000   ISDEDGEEdgewood ISD Position 6                                 UNDER VOTES                                                                                  01 
01890041029000283   ISDEDGEEdgewood ISD Position 6                                 UNDER VOTES                                                                                  01 
01890041030000009   ISDEDGEEdgewood ISD Position 6                                 UNDER VOTES                                                                                  01 
01890041031000219   ISDEDGEEdgewood ISD Position 6                                 UNDER VOTES                                                                                  01 
01890041032000372   ISDEDGEEdgewood ISD Position 6                                 UNDER VOTES                                                                                  01 
01890041035000000   ISDEDGEEdgewood ISD Position 6                                 UNDER VOTES                                                                                  01 
01890041088000161   ISDEDGEEdgewood ISD Position 6                                 UNDER VOTES                                                                                  01 
01890041090000000   ISDEDGEEdgewood ISD Position 6                                 UNDER VOTES                                                                                  01 
01890041096000004   ISDEDGEEdgewood ISD Position 6                                 UNDER VOTES                                                                                  01 
01890042011000307   ISDEDGEEdgewood ISD Position 6                                 UNDER VOTES                                                                                  01 
01890042012000221   ISDEDGEEdgewood ISD Position 6                                 UNDER VOTES                                                                                  01 
01890042015000288   ISDEDGEEdgewood ISD Position 6                                 UNDER VOTES                                                                                  01 
01890042016000185   ISDEDGEEdgewood ISD Position 6                                 UNDER VOTES                                                                                  01 
01890042017000148   ISDEDGEEdgewood ISD Position 6                                 UNDER VOTES                                                                                  01 
01890042019000261   ISDEDGEEdgewood ISD Position 6                                 UNDER VOTES                                                                                  01 
01890042020000408   ISDEDGEEdgewood ISD Position 6                                 UNDER VOTES                                                                                  01 
01890042021000475   ISDEDGEEdgewood ISD Position 6                                 UNDER VOTES                                                                                  01 
01890042022000271   ISDEDGEEdgewood ISD Position 6                                 UNDER VOTES                                                                                  01 
01890042030000081   ISDEDGEEdgewood ISD Position 6                                 UNDER VOTES                                                                                  01 
01890042043000332   ISDEDGEEdgewood ISD Position 6                                 UNDER VOTES                                                                                  01 
01890042074000140   ISDEDGEEdgewood ISD Position 6                                 UNDER VOTES                                                                                  01 
01890042089000050   ISDEDGEEdgewood ISD Position 6                                 UNDER VOTES                                                                                  01 
01890042128000107   ISDEDGEEdgewood ISD Position 6                                 UNDER VOTES                                                                                  01 
