01860011013000088NONISDEDGEEdgewood ISD Position 1                                 James Hernandez                                                                              01 
01860011026000000NONISDEDGEEdgewood ISD Position 1                                 James Hernandez                                                                              01 
01860011029000193NONISDEDGEEdgewood ISD Position 1                                 James Hernandez                                                                              01 
01860011030000003NONISDEDGEEdgewood ISD Position 1                                 James Hernandez                                                                              01 
01860011031000153NONISDEDGEEdgewood ISD Position 1                                 James Hernandez                                                                              01 
01860011032000216NONISDEDGEEdgewood ISD Position 1                                 James Hernandez                                                                              01 
01860011035000000NONISDEDGEEdgewood ISD Position 1                                 James Hernandez                                                                              01 
01860011088000089NONISDEDGEEdgewood ISD Position 1                                 James Hernandez                                                                              01 
01860011090000000NONISDEDGEEdgewood ISD Position 1                                 James Hernandez                                                                              01 
01860011096000003NONISDEDGEEdgewood ISD Position 1                                 James Hernandez                                                                              01 
01860012011000238NONISDEDGEEdgewood ISD Position 1                                 James Hernandez                                                                              01 
01860012012000125NONISDEDGEEdgewood ISD Position 1                                 James Hernandez                                                                              01 
01860012015000164NONISDEDGEEdgewood ISD Position 1                                 James Hernandez                                                                              01 
01860012016000111NONISDEDGEEdgewood ISD Position 1                                 James Hernandez                                                                              01 
01860012017000091NONISDEDGEEdgewood ISD Position 1                                 James Hernandez                                                                              01 
01860012019000153NONISDEDGEEdgewood ISD Position 1                                 James Hernandez                                                                              01 
01860012020000216NONISDEDGEEdgewood ISD Position 1                                 James Hernandez                                                                              01 
01860012021000271NONISDEDGEEdgewood ISD Position 1                                 James Hernandez                                                                              01 
01860012022000162NONISDEDGEEdgewood ISD Position 1                                 James Hernandez                                                                              01 
01860012030000046NONISDEDGEEdgewood ISD Position 1                                 James Hernandez                                                                              01 
01860012043000212NONISDEDGEEdgewood ISD Position 1                                 James Hernandez                                                                              01 
01860012074000081NONISDEDGEEdgewood ISD Position 1                                 James Hernandez                                                                              01 
01860012089000023NONISDEDGEEdgewood ISD Position 1                                 James Hernandez                                                                              01 
01860012128000071NONISDEDGEEdgewood ISD Position 1                                 James Hernandez                                                                              01 
01860021013000000   ISDEDGEEdgewood ISD Position 1                                 OVER VOTES                                                                                   01 
01860021026000000   ISDEDGEEdgewood ISD Position 1                                 OVER VOTES                                                                                   01 
01860021029000000   ISDEDGEEdgewood ISD Position 1                                 OVER VOTES                                                                                   01 
01860021030000000   ISDEDGEEdgewood ISD Position 1                                 OVER VOTES                                                                                   01 
01860021031000000   ISDEDGEEdgewood ISD Position 1                                 OVER VOTES                                                                                   01 
01860021032000000   ISDEDGEEdgewood ISD Position 1                                 OVER VOTES                                                                                   01 
01860021035000000   ISDEDGEEdgewood ISD Position 1                                 OVER VOTES                                                                                   01 
01860021088000000   ISDEDGEEdgewood ISD Position 1                                 OVER VOTES                                                                                   01 
01860021090000000   ISDEDGEEdgewood ISD Position 1                                 OVER VOTES                                                                                   01 
01860021096000000   ISDEDGEEdgewood ISD Position 1                                 OVER VOTES                                                                                   01 
01860022011000000   ISDEDGEEdgewood ISD Position 1                                 OVER VOTES                                                                                   01 
01860022012000000   ISDEDGEEdgewood ISD Position 1                                 OVER VOTES                                                                                   01 
01860022015000000   ISDEDGEEdgewood ISD Position 1                                 OVER VOTES                                                                                   01 
01860022016000000   ISDEDGEEdgewood ISD Position 1                                 OVER VOTES                                                                                   01 
01860022017000000   ISDEDGEEdgewood ISD Position 1                                 OVER VOTES                                                                                   01 
01860022019000000   ISDEDGEEdgewood ISD Position 1                                 OVER VOTES                                                                                   01 
01860022020000000   ISDEDGEEdgewood ISD Position 1                                 OVER VOTES                                                                                   01 
01860022021000000   ISDEDGEEdgewood ISD Position 1                                 OVER VOTES                                                                                   01 
01860022022000000   ISDEDGEEdgewood ISD Position 1                                 OVER VOTES                                                                                   01 
01860022030000000   ISDEDGEEdgewood ISD Position 1                                 OVER VOTES                                                                                   01 
01860022043000000   ISDEDGEEdgewood ISD Position 1                                 OVER VOTES                                                                                   01 
01860022074000000   ISDEDGEEdgewood ISD Position 1                                 OVER VOTES                                                                                   01 
01860022089000000   ISDEDGEEdgewood ISD Position 1                                 OVER VOTES                                                                                   01 
01860022128000000   ISDEDGEEdgewood ISD Position 1                                 OVER VOTES                                                                                   01 
01860031013000162   ISDEDGEEdgewood ISD Position 1                                 UNDER VOTES                                                                                  01 
01860031026000000   ISDEDGEEdgewood ISD Position 1                                 UNDER VOTES                                                                                  01 
01860031029000305   ISDEDGEEdgewood ISD Position 1                                 UNDER VOTES                                                                                  01 
01860031030000005   ISDEDGEEdgewood ISD Position 1                                 UNDER VOTES                                                                                  01 
01860031031000240   ISDEDGEEdgewood ISD Position 1                                 UNDER VOTES                                                                                  01 
01860031032000326   ISDEDGEEdgewood ISD Position 1                                 UNDER VOTES                                                                                  01 
01860031035000000   ISDEDGEEdgewood ISD Position 1                                 UNDER VOTES                                                                                  01 
01860031088000127   ISDEDGEEdgewood ISD Position 1                                 UNDER VOTES                                                                                  01 
01860031090000000   ISDEDGEEdgewood ISD Position 1                                 UNDER VOTES                                                                                  01 
01860031096000003   ISDEDGEEdgewood ISD Position 1                                 UNDER VOTES                                                                                  01 
01860032011000269   ISDEDGEEdgewood ISD Position 1                                 UNDER VOTES                                                                                  01 
01860032012000165   ISDEDGEEdgewood ISD Position 1                                 UNDER VOTES                                                                                  01 
01860032015000249   ISDEDGEEdgewood ISD Position 1                                 UNDER VOTES                                                                                  01 
01860032016000162   ISDEDGEEdgewood ISD Position 1                                 UNDER VOTES                                                                                  01 
01860032017000146   ISDEDGEEdgewood ISD Position 1                                 UNDER VOTES                                                                                  01 
01860032019000198   ISDEDGEEdgewood ISD Position 1                                 UNDER VOTES                                                                                  01 
01860032020000366   ISDEDGEEdgewood ISD Position 1                                 UNDER VOTES                                                                                  01 
01860032021000426   ISDEDGEEdgewood ISD Position 1                                 UNDER VOTES                                                                                  01 
01860032022000217   ISDEDGEEdgewood ISD Position 1                                 UNDER VOTES                                                                                  01 
01860032030000073   ISDEDGEEdgewood ISD Position 1                                 UNDER VOTES                                                                                  01 
01860032043000263   ISDEDGEEdgewood ISD Position 1                                 UNDER VOTES                                                                                  01 
01860032074000122   ISDEDGEEdgewood ISD Position 1                                 UNDER VOTES                                                                                  01 
01860032089000043   ISDEDGEEdgewood ISD Position 1                                 UNDER VOTES                                                                                  01 
01860032128000086   ISDEDGEEdgewood ISD Position 1                                 UNDER VOTES                                                                                  01 
01870011013000099NONISDEDGEEdgewood ISD Position 2                                 Stella D. Camacho                                                                            01 
01870011026000000NONISDEDGEEdgewood ISD Position 2                                 Stella D. Camacho                                                                            01 
01870011029000226NONISDEDGEEdgewood ISD Position 2                                 Stella D. Camacho                                                                            01 
01870011030000003NONISDEDGEEdgewood ISD Position 2                                 Stella D. Camacho                                                                            01 
01870011031000176NONISDEDGEEdgewood ISD Position 2                                 Stella D. Camacho                                                                            01 
01870011032000228NONISDEDGEEdgewood ISD Position 2                                 Stella D. Camacho                                                                            01 
01870011035000000NONISDEDGEEdgewood ISD Position 2                                 Stella D. Camacho                                                                            01 
01870011088000098NONISDEDGEEdgewood ISD Position 2                                 Stella D. Camacho                                                                            01 
01870011090000000NONISDEDGEEdgewood ISD Position 2                                 Stella D. Camacho                                                                            01 
01870011096000003NONISDEDGEEdgewood ISD Position 2                                 Stella D. Camacho                                                                            01 
01870012011000240NONISDEDGEEdgewood ISD Position 2                                 Stella D. Camacho                                                                            01 
01870012012000132NONISDEDGEEdgewood ISD Position 2                                 Stella D. Camacho                                                                            01 
01870012015000195NONISDEDGEEdgewood ISD Position 2                                 Stella D. Camacho                                                                            01 
01870012016000121NONISDEDGEEdgewood ISD Position 2                                 Stella D. Camacho                                                                            01 
01870012017000101NONISDEDGEEdgewood ISD Position 2                                 Stella D. Camacho                                                                            01 
01870012019000159NONISDEDGEEdgewood ISD Position 2                                 Stella D. Camacho                                                                            01 
01870012020000235NONISDEDGEEdgewood ISD Position 2                                 Stella D. Camacho                                                                            01 
01870012021000306NONISDEDGEEdgewood ISD Position 2                                 Stella D. Camacho                                                                            01 
01870012022000164NONISDEDGEEdgewood ISD Position 2                                 Stella D. Camacho                                                                            01 
01870012030000054NONISDEDGEEdgewood ISD Position 2                                 Stella D. Camacho                                                                            01 
01870012043000223NONISDEDGEEdgewood ISD Position 2                                 Stella D. Camacho                                                                            01 
01870012074000089NONISDEDGEEdgewood ISD Position 2                                 Stella D. Camacho                                                                            01 
01870012089000024NONISDEDGEEdgewood ISD Position 2                                 Stella D. Camacho                                                                            01 
01870012128000069NONISDEDGEEdgewood ISD Position 2                                 Stella D. Camacho                                                                            01 
01870021013000000   ISDEDGEEdgewood ISD Position 2                                 OVER VOTES                                                                                   01 
01870021026000000   ISDEDGEEdgewood ISD Position 2                                 OVER VOTES                                                                                   01 
01870021029000000   ISDEDGEEdgewood ISD Position 2                                 OVER VOTES                                                                                   01 
01870021030000000   ISDEDGEEdgewood ISD Position 2                                 OVER VOTES                                                                                   01 
01870021031000000   ISDEDGEEdgewood ISD Position 2                                 OVER VOTES                                                                                   01 
01870021032000000   ISDEDGEEdgewood ISD Position 2                                 OVER VOTES                                                                                   01 
01870021035000000   ISDEDGEEdgewood ISD Position 2                                 OVER VOTES                                                                                   01 
01870021088000000   ISDEDGEEdgewood ISD Position 2                                 OVER VOTES                                                                                   01 
01870021090000000   ISDEDGEEdgewood ISD Position 2                                 OVER VOTES                                                                                   01 
01870021096000000   ISDEDGEEdgewood ISD Position 2                                 OVER VOTES                                                                                   01 
01870022011000000   ISDEDGEEdgewood ISD Position 2                                 OVER VOTES                                                                                   01 
01870022012000000   ISDEDGEEdgewood ISD Position 2                                 OVER VOTES                                                                                   01 
01870022015000000   ISDEDGEEdgewood ISD Position 2                                 OVER VOTES                                                                                   01 
01870022016000000   ISDEDGEEdgewood ISD Position 2                                 OVER VOTES                                                                                   01 
01870022017000000   ISDEDGEEdgewood ISD Position 2                                 OVER VOTES                                                                                   01 
01870022019000000   ISDEDGEEdgewood ISD Position 2                                 OVER VOTES                                                                                   01 
01870022020000000   ISDEDGEEdgewood ISD Position 2                                 OVER VOTES                                                                                   01 
01870022021000000   ISDEDGEEdgewood ISD Position 2                                 OVER VOTES                                                                                   01 
01870022022000000   ISDEDGEEdgewood ISD Position 2                                 OVER VOTES                                                                                   01 
01870022030000000   ISDEDGEEdgewood ISD Position 2                                 OVER VOTES                                                                                   01 
01870022043000000   ISDEDGEEdgewood ISD Position 2                                 OVER VOTES                                                                                   01 
01870022074000000   ISDEDGEEdgewood ISD Position 2                                 OVER VOTES                                                                                   01 
01870022089000000   ISDEDGEEdgewood ISD Position 2                                 OVER VOTES                                                                                   01 
01870022128000000   ISDEDGEEdgewood ISD Position 2                                 OVER VOTES                                                                                   01 
01870031013000151   ISDEDGEEdgewood ISD Position 2                                 UNDER VOTES                                                                                  01 
01870031026000000   ISDEDGEEdgewood ISD Position 2                                 UNDER VOTES                                                                                  01 
01870031029000272   ISDEDGEEdgewood ISD Position 2                                 UNDER VOTES                                                                                  01 
01870031030000005   ISDEDGEEdgewood ISD Position 2                                 UNDER VOTES                                                                                  01 
01870031031000217   ISDEDGEEdgewood ISD Position 2                                 UNDER VOTES                                                                                  01 
01870031032000314   ISDEDGEEdgewood ISD Position 2                                 UNDER VOTES                                                                                  01 
01870031035000000   ISDEDGEEdgewood ISD Position 2                                 UNDER VOTES                                                                                  01 
01870031088000118   ISDEDGEEdgewood ISD Position 2                                 UNDER VOTES                                                                                  01 
01870031090000000   ISDEDGEEdgewood ISD Position 2                                 UNDER VOTES                                                                                  01 
01870031096000003   ISDEDGEEdgewood ISD Position 2                                 UNDER VOTES                                                                                  01 
01870032011000267   ISDEDGEEdgewood ISD Position 2                                 UNDER VOTES                                                                                  01 
01870032012000158   ISDEDGEEdgewood ISD Position 2                                 UNDER VOTES                                                                                  01 
01870032015000218   ISDEDGEEdgewood ISD Position 2                                 UNDER VOTES                                                                                  01 
01870032016000152   ISDEDGEEdgewood ISD Position 2                                 UNDER VOTES                                                                                  01 
01870032017000136   ISDEDGEEdgewood ISD Position 2                                 UNDER VOTES                                                                                  01 
01870032019000192   ISDEDGEEdgewood ISD Position 2                                 UNDER VOTES                                                                                  01 
01870032020000347   ISDEDGEEdgewood ISD Position 2                                 UNDER VOTES                                                                                  01 
01870032021000391   ISDEDGEEdgewood ISD Position 2                                 UNDER VOTES                                                                                  01 
01870032022000215   ISDEDGEEdgewood ISD Position 2                                 UNDER VOTES                                                                                  01 
01870032030000065   ISDEDGEEdgewood ISD Position 2                                 UNDER VOTES                                                                                  01 
01870032043000252   ISDEDGEEdgewood ISD Position 2                                 UNDER VOTES                                                                                  01 
01870032074000114   ISDEDGEEdgewood ISD Position 2                                 UNDER VOTES                                                                                  01 
01870032089000042   ISDEDGEEdgewood ISD Position 2                                 UNDER VOTES                                                                                  01 
01870032128000088   ISDEDGEEdgewood ISD Position 2                                 UNDER VOTES                                                                                  01 
01880011013000088NONISDEDGEEdgewood ISD Position 3                                 Luis "Louie" Gomez                                                                           01 
01880011026000000NONISDEDGEEdgewood ISD Position 3                                 Luis "Louie" Gomez                                                                           01 
01880011029000214NONISDEDGEEdgewood ISD Position 3                                 Luis "Louie" Gomez                                                                           01 
01880011030000002NONISDEDGEEdgewood ISD Position 3                                 Luis "Louie" Gomez                                                                           01 
01880011031000156NONISDEDGEEdgewood ISD Position 3                                 Luis "Louie" Gomez                                                                           01 
01880011032000211NONISDEDGEEdgewood ISD Position 3                                 Luis "Louie" Gomez                                                                           01 
01880011035000000NONISDEDGEEdgewood ISD Position 3                                 Luis "Louie" Gomez                                                                           01 
01880011088000088NONISDEDGEEdgewood ISD Position 3                                 Luis "Louie" Gomez                                                                           01 
01880011090000000NONISDEDGEEdgewood ISD Position 3                                 Luis "Louie" Gomez                                                                           01 
01880011096000003NONISDEDGEEdgewood ISD Position 3                                 Luis "Louie" Gomez                                                                           01 
01880012011000224NONISDEDGEEdgewood ISD Position 3                                 Luis "Louie" Gomez                                                                           01 
01880012012000125NONISDEDGEEdgewood ISD Position 3                                 Luis "Louie" Gomez                                                                           01 
01880012015000162NONISDEDGEEdgewood ISD Position 3                                 Luis "Louie" Gomez                                                                           01 
01880012016000113NONISDEDGEEdgewood ISD Position 3                                 Luis "Louie" Gomez                                                                           01 
01880012017000095NONISDEDGEEdgewood ISD Position 3                                 Luis "Louie" Gomez                                                                           01 
01880012019000156NONISDEDGEEdgewood ISD Position 3                                 Luis "Louie" Gomez                                                                           01 
01880012020000202NONISDEDGEEdgewood ISD Position 3                                 Luis "Louie" Gomez                                                                           01 
01880012021000272NONISDEDGEEdgewood ISD Position 3                                 Luis "Louie" Gomez                                                                           01 
01880012022000155NONISDEDGEEdgewood ISD Position 3                                 Luis "Louie" Gomez                                                                           01 
01880012030000045NONISDEDGEEdgewood ISD Position 3                                 Luis "Louie" Gomez                                                                           01 
01880012043000205NONISDEDGEEdgewood ISD Position 3                                 Luis "Louie" Gomez                                                                           01 
01880012074000080NONISDEDGEEdgewood ISD Position 3                                 Luis "Louie" Gomez                                                                           01 
01880012089000022NONISDEDGEEdgewood ISD Position 3                                 Luis "Louie" Gomez                                                                           01 
01880012128000068NONISDEDGEEdgewood ISD Position 3                                 Luis "Louie" Gomez                                                                           01 
01880021013000000   ISDEDGEEdgewood ISD Position 3                                 OVER VOTES                                                                                   01 
01880021026000000   ISDEDGEEdgewood ISD Position 3                                 OVER VOTES                                                                                   01 
01880021029000000   ISDEDGEEdgewood ISD Position 3                                 OVER VOTES                                                                                   01 
01880021030000000   ISDEDGEEdgewood ISD Position 3                                 OVER VOTES                                                                                   01 
01880021031000000   ISDEDGEEdgewood ISD Position 3                                 OVER VOTES                                                                                   01 
01880021032000000   ISDEDGEEdgewood ISD Position 3                                 OVER VOTES                                                                                   01 
01880021035000000   ISDEDGEEdgewood ISD Position 3                                 OVER VOTES                                                                                   01 
01880021088000000   ISDEDGEEdgewood ISD Position 3                                 OVER VOTES                                                                                   01 
01880021090000000   ISDEDGEEdgewood ISD Position 3                                 OVER VOTES                                                                                   01 
01880021096000000   ISDEDGEEdgewood ISD Position 3                                 OVER VOTES                                                                                   01 
01880022011000000   ISDEDGEEdgewood ISD Position 3                                 OVER VOTES                                                                                   01 
01880022012000000   ISDEDGEEdgewood ISD Position 3                                 OVER VOTES                                                                                   01 
01880022015000000   ISDEDGEEdgewood ISD Position 3                                 OVER VOTES                                                                                   01 
01880022016000000   ISDEDGEEdgewood ISD Position 3                                 OVER VOTES                                                                                   01 
01880022017000000   ISDEDGEEdgewood ISD Position 3                                 OVER VOTES                                                                                   01 
01880022019000000   ISDEDGEEdgewood ISD Position 3                                 OVER VOTES                                                                                   01 
01880022020000000   ISDEDGEEdgewood ISD Position 3                                 OVER VOTES                                                                                   01 
01880022021000000   ISDEDGEEdgewood ISD Position 3                                 OVER VOTES                                                                                   01 
01880022022000000   ISDEDGEEdgewood ISD Position 3                                 OVER VOTES                                                                                   01 
01880022030000000   ISDEDGEEdgewood ISD Position 3                                 OVER VOTES                                                                                   01 
01880022043000000   ISDEDGEEdgewood ISD Position 3                                 OVER VOTES                                                                                   01 
01880022074000000   ISDEDGEEdgewood ISD Position 3                                 OVER VOTES                                                                                   01 
01880022089000000   ISDEDGEEdgewood ISD Position 3                                 OVER VOTES                                                                                   01 
01880022128000000   ISDEDGEEdgewood ISD Position 3                                 OVER VOTES                                                                                   01 
01880031013000162   ISDEDGEEdgewood ISD Position 3                                 UNDER VOTES                                                                                  01 
01880031026000000   ISDEDGEEdgewood ISD Position 3                                 UNDER VOTES                                                                                  01 
01880031029000284   ISDEDGEEdgewood ISD Position 3                                 UNDER VOTES                                                                                  01 
01880031030000006   ISDEDGEEdgewood ISD Position 3                                 UNDER VOTES                                                                                  01 
01880031031000237   ISDEDGEEdgewood ISD Position 3                                 UNDER VOTES                                                                                  01 
01880031032000331   ISDEDGEEdgewood ISD Position 3                                 UNDER VOTES                                                                                  01 
01880031035000000   ISDEDGEEdgewood ISD Position 3                                 UNDER VOTES                                                                                  01 
01880031088000128   ISDEDGEEdgewood ISD Position 3                                 UNDER VOTES                                                                                  01 
01880031090000000   ISDEDGEEdgewood ISD Position 3                                 UNDER VOTES                                                                                  01 
01880031096000003   ISDEDGEEdgewood ISD Position 3                                 UNDER VOTES                                                                                  01 
01880032011000283   ISDEDGEEdgewood ISD Position 3                                 UNDER VOTES                                                                                  01 
01880032012000165   ISDEDGEEdgewood ISD Position 3                                 UNDER VOTES                                                                                  01 
01880032015000251   ISDEDGEEdgewood ISD Position 3                                 UNDER VOTES                                                                                  01 
01880032016000160   ISDEDGEEdgewood ISD Position 3                                 UNDER VOTES                                                                                  01 
01880032017000142   ISDEDGEEdgewood ISD Position 3                                 UNDER VOTES                                                                                  01 
01880032019000195   ISDEDGEEdgewood ISD Position 3                                 UNDER VOTES                                                                                  01 
01880032020000380   ISDEDGEEdgewood ISD Position 3                                 UNDER VOTES                                                                                  01 
01880032021000425   ISDEDGEEdgewood ISD Position 3                                 UNDER VOTES                                                                                  01 
01880032022000224   ISDEDGEEdgewood ISD Position 3                                 UNDER VOTES                                                                                  01 
01880032030000074   ISDEDGEEdgewood ISD Position 3                                 UNDER VOTES                                                                                  01 
01880032043000270   ISDEDGEEdgewood ISD Position 3                                 UNDER VOTES                                                                                  01 
01880032074000123   ISDEDGEEdgewood ISD Position 3                                 UNDER VOTES                                                                                  01 
01880032089000044   ISDEDGEEdgewood ISD Position 3                                 UNDER VOTES                                                                                  01 
01880032128000089   ISDEDGEEdgewood ISD Position 3                                 UNDER VOTES                                                                                  01 
01890011013000069NONISDEDGEEdgewood ISD Position 6                                 Dina Serrano                                                                                 01 
01890011026000000NONISDEDGEEdgewood ISD Position 6                                 Dina Serrano                                                                                 01 
01890011029000129NONISDEDGEEdgewood ISD Position 6                                 Dina Serrano                                                                                 01 
01890011030000001NONISDEDGEEdgewood ISD Position 6                                 Dina Serrano                                                                                 01 
01890011031000110NONISDEDGEEdgewood ISD Position 6                                 Dina Serrano                                                                                 01 
01890011032000155NONISDEDGEEdgewood ISD Position 6                                 Dina Serrano                                                                                 01 
01890011035000000NONISDEDGEEdgewood ISD Position 6                                 Dina Serrano                                                                                 01 
01890011088000073NONISDEDGEEdgewood ISD Position 6                                 Dina Serrano                                                                                 01 
01890011090000000NONISDEDGEEdgewood ISD Position 6                                 Dina Serrano                                                                                 01 
01890011096000003NONISDEDGEEdgewood ISD Position 6                                 Dina Serrano                                                                                 01 
01890012011000177NONISDEDGEEdgewood ISD Position 6                                 Dina Serrano                                                                                 01 
01890012012000107NONISDEDGEEdgewood ISD Position 6                                 Dina Serrano                                                                                 01 
01890012015000139NONISDEDGEEdgewood ISD Position 6                                 Dina Serrano                                                                                 01 
01890012016000088NONISDEDGEEdgewood ISD Position 6                                 Dina Serrano                                                                                 01 
01890012017000076NONISDEDGEEdgewood ISD Position 6                                 Dina Serrano                                                                                 01 
01890012019000102NONISDEDGEEdgewood ISD Position 6                                 Dina Serrano                                                                                 01 
01890012020000178NONISDEDGEEdgewood ISD Position 6                                 Dina Serrano                                                                                 01 
01890012021000212NONISDEDGEEdgewood ISD Position 6                                 Dina Serrano                                                                                 01 
01890012022000117NONISDEDGEEdgewood ISD Position 6                                 Dina Serrano                                                                                 01 
01890012030000036NONISDEDGEEdgewood ISD Position 6                                 Dina Serrano                                                                                 01 
01890012043000166NONISDEDGEEdgewood ISD Position 6                                 Dina Serrano                                                                                 01 
01890012074000079NONISDEDGEEdgewood ISD Position 6                                 Dina Serrano                                                                                 01 
01890012089000016NONISDEDGEEdgewood ISD Position 6                                 Dina Serrano                                                                                 01 
01890012128000050NONISDEDGEEdgewood ISD Position 6                                 Dina Serrano                                                                                 01 
01890021013000076NONISDEDGEEdgewood ISD Position 6                                 Richard Santoyo Jr.                                                                          01 
01890021026000000NONISDEDGEEdgewood ISD Position 6                                 Richard Santoyo Jr.                                                                          01 
01890021029000167NONISDEDGEEdgewood ISD Position 6                                 Richard Santoyo Jr.                                                                          01 
01890021030000003NONISDEDGEEdgewood ISD Position 6                                 Richard Santoyo Jr.                                                                          01 
01890021031000116NONISDEDGEEdgewood ISD Position 6                                 Richard Santoyo Jr.                                                                          01 
01890021032000143NONISDEDGEEdgewood ISD Position 6                                 Richard Santoyo Jr.                                                                          01 
01890021035000000NONISDEDGEEdgewood ISD Position 6                                 Richard Santoyo Jr.                                                                          01 
01890021088000049NONISDEDGEEdgewood ISD Position 6                                 Richard Santoyo Jr.                                                                          01 
01890021090000000NONISDEDGEEdgewood ISD Position 6                                 Richard Santoyo Jr.                                                                          01 
01890021096000000NONISDEDGEEdgewood ISD Position 6                                 Richard Santoyo Jr.                                                                          01 
01890022011000107NONISDEDGEEdgewood ISD Position 6                                 Richard Santoyo Jr.                                                                          01 
01890022012000049NONISDEDGEEdgewood ISD Position 6                                 Richard Santoyo Jr.                                                                          01 
01890022015000075NONISDEDGEEdgewood ISD Position 6                                 Richard Santoyo Jr.                                                                          01 
01890022016000056NONISDEDGEEdgewood ISD Position 6                                 Richard Santoyo Jr.                                                                          01 
01890022017000053NONISDEDGEEdgewood ISD Position 6                                 Richard Santoyo Jr.                                                                          01 
01890022019000095NONISDEDGEEdgewood ISD Position 6                                 Richard Santoyo Jr.                                                                          01 
01890022020000108NONISDEDGEEdgewood ISD Position 6                                 Richard Santoyo Jr.                                                                          01 
01890022021000136NONISDEDGEEdgewood ISD Position 6                                 Richard Santoyo Jr.                                                                          01 
01890022022000071NONISDEDGEEdgewood ISD Position 6                                 Richard Santoyo Jr.                                                                          01 
01890022030000025NONISDEDGEEdgewood ISD Position 6                                 Richard Santoyo Jr.                                                                          01 
01890022043000097NONISDEDGEEdgewood ISD Position 6                                 Richard Santoyo Jr.                                                                          01 
01890022074000039NONISDEDGEEdgewood ISD Position 6                                 Richard Santoyo Jr.                                                                          01 
01890022089000013NONISDEDGEEdgewood ISD Position 6                                 Richard Santoyo Jr.                                                                          01 
01890022128000038NONISDEDGEEdgewood ISD Position 6                                 Richard Santoyo Jr.                                                                          01 
01890031013000001   ISDEDGEEdgewood ISD Position 6                                 OVER VOTES                                                                                   01 
01890031026000000   ISDEDGEEdgewood ISD Position 6                                 OVER VOTES                                                                                   01 
01890031029000000   ISDEDGEEdgewood ISD Position 6                                 OVER VOTES                                                                                   01 
01890031030000000   ISDEDGEEdgewood ISD Position 6                                 OVER VOTES                                                                                   01 
01890031031000000   ISDEDGEEdgewood ISD Position 6                                 OVER VOTES                                                                                   01 
01890031032000000   ISDEDGEEdgewood ISD Position 6                                 OVER VOTES                                                                                   01 
01890031035000000   ISDEDGEEdgewood ISD Position 6                                 OVER VOTES                                                                                   01 
01890031088000000   ISDEDGEEdgewood ISD Position 6                                 OVER VOTES                                                                                   01 
01890031090000000   ISDEDGEEdgewood ISD Position 6                                 OVER VOTES                                                                                   01 
01890031096000000   ISDEDGEEdgewood ISD Position 6                                 OVER VOTES                                                                                   01 
01890032011000000   ISDEDGEEdgewood ISD Position 6                                 OVER VOTES                                                                                   01 
01890032012000000   ISDEDGEEdgewood ISD Position 6                                 OVER VOTES                                                                                   01 
01890032015000000   ISDEDGEEdgewood ISD Position 6                                 OVER VOTES                                                                                   01 
01890032016000000   ISDEDGEEdgewood ISD Position 6                                 OVER VOTES                                                                                   01 
01890032017000000   ISDEDGEEdgewood ISD Position 6                                 OVER VOTES                                                                                   01 
01890032019000000   ISDEDGEEdgewood ISD Position 6                                 OVER VOTES                                                                                   01 
01890032020000000   ISDEDGEEdgewood ISD Position 6                                 OVER VOTES                                                                                   01 
01890032021000000   ISDEDGEEdgewood ISD Position 6                                 OVER VOTES                                                                                   01 
01890032022000000   ISDEDGEEdgewood ISD Position 6                                 OVER VOTES                                                                                   01 
01890032030000000   ISDEDGEEdgewood ISD Position 6                                 OVER VOTES                                                                                   01 
01890032043000000   ISDEDGEEdgewood ISD Position 6                                 OVER VOTES                                                                                   01 
01890032074000000   ISDEDGEEdgewood ISD Position 6                                 OVER VOTES                                                                                   01 
01890032089000000   ISDEDGEEdgewood ISD Position 6                                 OVER VOTES                                                                                   01 
01890032128000000   ISDEDGEEdgewood ISD Position 6                                 OVER VOTES                                                                                   01 
01890041013000104   ISDEDGEEdgewood ISD Position 6                                 UNDER VOTES                                                                                  01 
01890041026000000   ISDEDGEEdgewood ISD Position 6                                 UNDER VOTES                                                                                  01 
01890041029000202   ISDEDGEEdgewood ISD Position 6                                 UNDER VOTES                                                                                  01 
01890041030000004   ISDEDGEEdgewood ISD Position 6                                 UNDER VOTES                                                                                  01 
01890041031000167   ISDEDGEEdgewood ISD Position 6                                 UNDER VOTES                                                                                  01 
01890041032000244   ISDEDGEEdgewood ISD Position 6                                 UNDER VOTES                                                                                  01 
01890041035000000   ISDEDGEEdgewood ISD Position 6                                 UNDER VOTES                                                                                  01 
01890041088000094   ISDEDGEEdgewood ISD Position 6                                 UNDER VOTES                                                                                  01 
01890041090000000   ISDEDGEEdgewood ISD Position 6                                 UNDER VOTES                                                                                  01 
01890041096000003   ISDEDGEEdgewood ISD Position 6                                 UNDER VOTES                                                                                  01 
01890042011000223   ISDEDGEEdgewood ISD Position 6                                 UNDER VOTES                                                                                  01 
01890042012000134   ISDEDGEEdgewood ISD Position 6                                 UNDER VOTES                                                                                  01 
01890042015000199   ISDEDGEEdgewood ISD Position 6                                 UNDER VOTES                                                                                  01 
01890042016000129   ISDEDGEEdgewood ISD Position 6                                 UNDER VOTES                                                                                  01 
01890042017000108   ISDEDGEEdgewood ISD Position 6                                 UNDER VOTES                                                                                  01 
01890042019000154   ISDEDGEEdgewood ISD Position 6                                 UNDER VOTES                                                                                  01 
01890042020000296   ISDEDGEEdgewood ISD Position 6                                 UNDER VOTES                                                                                  01 
01890042021000349   ISDEDGEEdgewood ISD Position 6                                 UNDER VOTES                                                                                  01 
01890042022000191   ISDEDGEEdgewood ISD Position 6                                 UNDER VOTES                                                                                  01 
01890042030000058   ISDEDGEEdgewood ISD Position 6                                 UNDER VOTES                                                                                  01 
01890042043000212   ISDEDGEEdgewood ISD Position 6                                 UNDER VOTES                                                                                  01 
01890042074000085   ISDEDGEEdgewood ISD Position 6                                 UNDER VOTES                                                                                  01 
01890042089000037   ISDEDGEEdgewood ISD Position 6                                 UNDER VOTES                                                                                  01 
01890042128000069   ISDEDGEEdgewood ISD Position 6                                 UNDER VOTES                                                                                  01 
