01830011002000039NONEDWAQUIEdwards Aquifer Authority Director, District 7          Gilbert Stanley-Medford                                                                      01 
01830011009000107NONEDWAQUIEdwards Aquifer Authority Director, District 7          Gilbert Stanley-Medford                                                                      01 
01830011024000185NONEDWAQUIEdwards Aquifer Authority Director, District 7          Gilbert Stanley-Medford                                                                      01 
01830011027000016NONEDWAQUIEdwards Aquifer Authority Director, District 7          Gilbert Stanley-Medford                                                                      01 
01830011032000037NONEDWAQUIEdwards Aquifer Authority Director, District 7          Gilbert Stanley-Medford                                                                      01 
01830011055000132NONEDWAQUIEdwards Aquifer Authority Director, District 7          Gilbert Stanley-Medford                                                                      01 
01830011072000080NONEDWAQUIEdwards Aquifer Authority Director, District 7          Gilbert Stanley-Medford                                                                      01 
01830011076000149NONEDWAQUIEdwards Aquifer Authority Director, District 7          Gilbert Stanley-Medford                                                                      01 
01830011079000228NONEDWAQUIEdwards Aquifer Authority Director, District 7          Gilbert Stanley-Medford                                                                      01 
01830011080000159NONEDWAQUIEdwards Aquifer Authority Director, District 7          Gilbert Stanley-Medford                                                                      01 
01830011083000163NONEDWAQUIEdwards Aquifer Authority Director, District 7          Gilbert Stanley-Medford                                                                      01 
01830011088000011NONEDWAQUIEdwards Aquifer Authority Director, District 7          Gilbert Stanley-Medford                                                                      01 
01830011093000065NONEDWAQUIEdwards Aquifer Authority Director, District 7          Gilbert Stanley-Medford                                                                      01 
01830011099000294NONEDWAQUIEdwards Aquifer Authority Director, District 7          Gilbert Stanley-Medford                                                                      01 
01830011100000160NONEDWAQUIEdwards Aquifer Authority Director, District 7          Gilbert Stanley-Medford                                                                      01 
01830011104000238NONEDWAQUIEdwards Aquifer Authority Director, District 7          Gilbert Stanley-Medford                                                                      01 
01830011109000001NONEDWAQUIEdwards Aquifer Authority Director, District 7          Gilbert Stanley-Medford                                                                      01 
01830011111000347NONEDWAQUIEdwards Aquifer Authority Director, District 7          Gilbert Stanley-Medford                                                                      01 
01830011113000180NONEDWAQUIEdwards Aquifer Authority Director, District 7          Gilbert Stanley-Medford                                                                      01 
01830011138000023NONEDWAQUIEdwards Aquifer Authority Director, District 7          Gilbert Stanley-Medford                                                                      01 
01830011139000056NONEDWAQUIEdwards Aquifer Authority Director, District 7          Gilbert Stanley-Medford                                                                      01 
01830012006000000NONEDWAQUIEdwards Aquifer Authority Director, District 7          Gilbert Stanley-Medford                                                                      01 
01830012011000064NONEDWAQUIEdwards Aquifer Authority Director, District 7          Gilbert Stanley-Medford                                                                      01 
01830012012000026NONEDWAQUIEdwards Aquifer Authority Director, District 7          Gilbert Stanley-Medford                                                                      01 
01830012013000039NONEDWAQUIEdwards Aquifer Authority Director, District 7          Gilbert Stanley-Medford                                                                      01 
01830012014000044NONEDWAQUIEdwards Aquifer Authority Director, District 7          Gilbert Stanley-Medford                                                                      01 
01830012015000025NONEDWAQUIEdwards Aquifer Authority Director, District 7          Gilbert Stanley-Medford                                                                      01 
01830012016000019NONEDWAQUIEdwards Aquifer Authority Director, District 7          Gilbert Stanley-Medford                                                                      01 
01830012017000021NONEDWAQUIEdwards Aquifer Authority Director, District 7          Gilbert Stanley-Medford                                                                      01 
01830012019000026NONEDWAQUIEdwards Aquifer Authority Director, District 7          Gilbert Stanley-Medford                                                                      01 
01830012020000055NONEDWAQUIEdwards Aquifer Authority Director, District 7          Gilbert Stanley-Medford                                                                      01 
01830012021000075NONEDWAQUIEdwards Aquifer Authority Director, District 7          Gilbert Stanley-Medford                                                                      01 
01830012022000032NONEDWAQUIEdwards Aquifer Authority Director, District 7          Gilbert Stanley-Medford                                                                      01 
01830012023000093NONEDWAQUIEdwards Aquifer Authority Director, District 7          Gilbert Stanley-Medford                                                                      01 
01830012024000065NONEDWAQUIEdwards Aquifer Authority Director, District 7          Gilbert Stanley-Medford                                                                      01 
01830012025000095NONEDWAQUIEdwards Aquifer Authority Director, District 7          Gilbert Stanley-Medford                                                                      01 
01830012040000105NONEDWAQUIEdwards Aquifer Authority Director, District 7          Gilbert Stanley-Medford                                                                      01 
01830012041000084NONEDWAQUIEdwards Aquifer Authority Director, District 7          Gilbert Stanley-Medford                                                                      01 
01830012042000038NONEDWAQUIEdwards Aquifer Authority Director, District 7          Gilbert Stanley-Medford                                                                      01 
01830012043000042NONEDWAQUIEdwards Aquifer Authority Director, District 7          Gilbert Stanley-Medford                                                                      01 
01830012045000099NONEDWAQUIEdwards Aquifer Authority Director, District 7          Gilbert Stanley-Medford                                                                      01 
01830012046000128NONEDWAQUIEdwards Aquifer Authority Director, District 7          Gilbert Stanley-Medford                                                                      01 
01830012047000094NONEDWAQUIEdwards Aquifer Authority Director, District 7          Gilbert Stanley-Medford                                                                      01 
01830012049000124NONEDWAQUIEdwards Aquifer Authority Director, District 7          Gilbert Stanley-Medford                                                                      01 
01830012050000093NONEDWAQUIEdwards Aquifer Authority Director, District 7          Gilbert Stanley-Medford                                                                      01 
01830012061000095NONEDWAQUIEdwards Aquifer Authority Director, District 7          Gilbert Stanley-Medford                                                                      01 
01830012068000446NONEDWAQUIEdwards Aquifer Authority Director, District 7          Gilbert Stanley-Medford                                                                      01 
01830012069000178NONEDWAQUIEdwards Aquifer Authority Director, District 7          Gilbert Stanley-Medford                                                                      01 
01830012074000016NONEDWAQUIEdwards Aquifer Authority Director, District 7          Gilbert Stanley-Medford                                                                      01 
01830012077000225NONEDWAQUIEdwards Aquifer Authority Director, District 7          Gilbert Stanley-Medford                                                                      01 
01830012078000149NONEDWAQUIEdwards Aquifer Authority Director, District 7          Gilbert Stanley-Medford                                                                      01 
01830012083000048NONEDWAQUIEdwards Aquifer Authority Director, District 7          Gilbert Stanley-Medford                                                                      01 
01830012087000208NONEDWAQUIEdwards Aquifer Authority Director, District 7          Gilbert Stanley-Medford                                                                      01 
01830012088000321NONEDWAQUIEdwards Aquifer Authority Director, District 7          Gilbert Stanley-Medford                                                                      01 
01830012089000011NONEDWAQUIEdwards Aquifer Authority Director, District 7          Gilbert Stanley-Medford                                                                      01 
01830012090000073NONEDWAQUIEdwards Aquifer Authority Director, District 7          Gilbert Stanley-Medford                                                                      01 
01830012097000160NONEDWAQUIEdwards Aquifer Authority Director, District 7          Gilbert Stanley-Medford                                                                      01 
01830012098000099NONEDWAQUIEdwards Aquifer Authority Director, District 7          Gilbert Stanley-Medford                                                                      01 
01830012102000262NONEDWAQUIEdwards Aquifer Authority Director, District 7          Gilbert Stanley-Medford                                                                      01 
01830012106000027NONEDWAQUIEdwards Aquifer Authority Director, District 7          Gilbert Stanley-Medford                                                                      01 
01830012112000135NONEDWAQUIEdwards Aquifer Authority Director, District 7          Gilbert Stanley-Medford                                                                      01 
01830012126000082NONEDWAQUIEdwards Aquifer Authority Director, District 7          Gilbert Stanley-Medford                                                                      01 
01830012128000052NONEDWAQUIEdwards Aquifer Authority Director, District 7          Gilbert Stanley-Medford                                                                      01 
01830012140000092NONEDWAQUIEdwards Aquifer Authority Director, District 7          Gilbert Stanley-Medford                                                                      01 
01830012143000200NONEDWAQUIEdwards Aquifer Authority Director, District 7          Gilbert Stanley-Medford                                                                      01 
01830012145000032NONEDWAQUIEdwards Aquifer Authority Director, District 7          Gilbert Stanley-Medford                                                                      01 
01830012151000001NONEDWAQUIEdwards Aquifer Authority Director, District 7          Gilbert Stanley-Medford                                                                      01 
01830012157000000NONEDWAQUIEdwards Aquifer Authority Director, District 7          Gilbert Stanley-Medford                                                                      01 
01830013139000146NONEDWAQUIEdwards Aquifer Authority Director, District 7          Gilbert Stanley-Medford                                                                      01 
01830021002000074NONEDWAQUIEdwards Aquifer Authority Director, District 7          Enrique Valdivia                                                                             01 
01830021009000182NONEDWAQUIEdwards Aquifer Authority Director, District 7          Enrique Valdivia                                                                             01 
01830021024000359NONEDWAQUIEdwards Aquifer Authority Director, District 7          Enrique Valdivia                                                                             01 
01830021027000017NONEDWAQUIEdwards Aquifer Authority Director, District 7          Enrique Valdivia                                                                             01 
01830021032000203NONEDWAQUIEdwards Aquifer Authority Director, District 7          Enrique Valdivia                                                                             01 
01830021055000245NONEDWAQUIEdwards Aquifer Authority Director, District 7          Enrique Valdivia                                                                             01 
01830021072000234NONEDWAQUIEdwards Aquifer Authority Director, District 7          Enrique Valdivia                                                                             01 
01830021076000286NONEDWAQUIEdwards Aquifer Authority Director, District 7          Enrique Valdivia                                                                             01 
01830021079000566NONEDWAQUIEdwards Aquifer Authority Director, District 7          Enrique Valdivia                                                                             01 
01830021080000407NONEDWAQUIEdwards Aquifer Authority Director, District 7          Enrique Valdivia                                                                             01 
01830021083000361NONEDWAQUIEdwards Aquifer Authority Director, District 7          Enrique Valdivia                                                                             01 
01830021088000089NONEDWAQUIEdwards Aquifer Authority Director, District 7          Enrique Valdivia                                                                             01 
01830021093000101NONEDWAQUIEdwards Aquifer Authority Director, District 7          Enrique Valdivia                                                                             01 
01830021099000577NONEDWAQUIEdwards Aquifer Authority Director, District 7          Enrique Valdivia                                                                             01 
01830021100000319NONEDWAQUIEdwards Aquifer Authority Director, District 7          Enrique Valdivia                                                                             01 
01830021104000378NONEDWAQUIEdwards Aquifer Authority Director, District 7          Enrique Valdivia                                                                             01 
01830021109000001NONEDWAQUIEdwards Aquifer Authority Director, District 7          Enrique Valdivia                                                                             01 
01830021111000611NONEDWAQUIEdwards Aquifer Authority Director, District 7          Enrique Valdivia                                                                             01 
01830021113000328NONEDWAQUIEdwards Aquifer Authority Director, District 7          Enrique Valdivia                                                                             01 
01830021138000060NONEDWAQUIEdwards Aquifer Authority Director, District 7          Enrique Valdivia                                                                             01 
01830021139000107NONEDWAQUIEdwards Aquifer Authority Director, District 7          Enrique Valdivia                                                                             01 
01830022006000002NONEDWAQUIEdwards Aquifer Authority Director, District 7          Enrique Valdivia                                                                             01 
01830022011000209NONEDWAQUIEdwards Aquifer Authority Director, District 7          Enrique Valdivia                                                                             01 
01830022012000129NONEDWAQUIEdwards Aquifer Authority Director, District 7          Enrique Valdivia                                                                             01 
01830022013000156NONEDWAQUIEdwards Aquifer Authority Director, District 7          Enrique Valdivia                                                                             01 
01830022014000170NONEDWAQUIEdwards Aquifer Authority Director, District 7          Enrique Valdivia                                                                             01 
01830022015000164NONEDWAQUIEdwards Aquifer Authority Director, District 7          Enrique Valdivia                                                                             01 
01830022016000112NONEDWAQUIEdwards Aquifer Authority Director, District 7          Enrique Valdivia                                                                             01 
01830022017000095NONEDWAQUIEdwards Aquifer Authority Director, District 7          Enrique Valdivia                                                                             01 
01830022019000150NONEDWAQUIEdwards Aquifer Authority Director, District 7          Enrique Valdivia                                                                             01 
01830022020000221NONEDWAQUIEdwards Aquifer Authority Director, District 7          Enrique Valdivia                                                                             01 
01830022021000268NONEDWAQUIEdwards Aquifer Authority Director, District 7          Enrique Valdivia                                                                             01 
01830022022000167NONEDWAQUIEdwards Aquifer Authority Director, District 7          Enrique Valdivia                                                                             01 
01830022023000402NONEDWAQUIEdwards Aquifer Authority Director, District 7          Enrique Valdivia                                                                             01 
01830022024000222NONEDWAQUIEdwards Aquifer Authority Director, District 7          Enrique Valdivia                                                                             01 
01830022025000360NONEDWAQUIEdwards Aquifer Authority Director, District 7          Enrique Valdivia                                                                             01 
01830022040000323NONEDWAQUIEdwards Aquifer Authority Director, District 7          Enrique Valdivia                                                                             01 
01830022041000379NONEDWAQUIEdwards Aquifer Authority Director, District 7          Enrique Valdivia                                                                             01 
01830022042000164NONEDWAQUIEdwards Aquifer Authority Director, District 7          Enrique Valdivia                                                                             01 
01830022043000212NONEDWAQUIEdwards Aquifer Authority Director, District 7          Enrique Valdivia                                                                             01 
01830022045000446NONEDWAQUIEdwards Aquifer Authority Director, District 7          Enrique Valdivia                                                                             01 
01830022046000436NONEDWAQUIEdwards Aquifer Authority Director, District 7          Enrique Valdivia                                                                             01 
01830022047000289NONEDWAQUIEdwards Aquifer Authority Director, District 7          Enrique Valdivia                                                                             01 
01830022049000386NONEDWAQUIEdwards Aquifer Authority Director, District 7          Enrique Valdivia                                                                             01 
01830022050000254NONEDWAQUIEdwards Aquifer Authority Director, District 7          Enrique Valdivia                                                                             01 
01830022061000138NONEDWAQUIEdwards Aquifer Authority Director, District 7          Enrique Valdivia                                                                             01 
01830022068000572NONEDWAQUIEdwards Aquifer Authority Director, District 7          Enrique Valdivia                                                                             01 
01830022069000331NONEDWAQUIEdwards Aquifer Authority Director, District 7          Enrique Valdivia                                                                             01 
01830022074000083NONEDWAQUIEdwards Aquifer Authority Director, District 7          Enrique Valdivia                                                                             01 
01830022077000312NONEDWAQUIEdwards Aquifer Authority Director, District 7          Enrique Valdivia                                                                             01 
01830022078000293NONEDWAQUIEdwards Aquifer Authority Director, District 7          Enrique Valdivia                                                                             01 
01830022083000146NONEDWAQUIEdwards Aquifer Authority Director, District 7          Enrique Valdivia                                                                             01 
01830022087000241NONEDWAQUIEdwards Aquifer Authority Director, District 7          Enrique Valdivia                                                                             01 
01830022088000526NONEDWAQUIEdwards Aquifer Authority Director, District 7          Enrique Valdivia                                                                             01 
01830022089000047NONEDWAQUIEdwards Aquifer Authority Director, District 7          Enrique Valdivia                                                                             01 
01830022090000178NONEDWAQUIEdwards Aquifer Authority Director, District 7          Enrique Valdivia                                                                             01 
01830022097000309NONEDWAQUIEdwards Aquifer Authority Director, District 7          Enrique Valdivia                                                                             01 
01830022098000163NONEDWAQUIEdwards Aquifer Authority Director, District 7          Enrique Valdivia                                                                             01 
01830022102000329NONEDWAQUIEdwards Aquifer Authority Director, District 7          Enrique Valdivia                                                                             01 
01830022106000064NONEDWAQUIEdwards Aquifer Authority Director, District 7          Enrique Valdivia                                                                             01 
01830022112000225NONEDWAQUIEdwards Aquifer Authority Director, District 7          Enrique Valdivia                                                                             01 
01830022126000169NONEDWAQUIEdwards Aquifer Authority Director, District 7          Enrique Valdivia                                                                             01 
01830022128000231NONEDWAQUIEdwards Aquifer Authority Director, District 7          Enrique Valdivia                                                                             01 
01830022140000186NONEDWAQUIEdwards Aquifer Authority Director, District 7          Enrique Valdivia                                                                             01 
01830022143000278NONEDWAQUIEdwards Aquifer Authority Director, District 7          Enrique Valdivia                                                                             01 
01830022145000056NONEDWAQUIEdwards Aquifer Authority Director, District 7          Enrique Valdivia                                                                             01 
01830022151000002NONEDWAQUIEdwards Aquifer Authority Director, District 7          Enrique Valdivia                                                                             01 
01830022157000000NONEDWAQUIEdwards Aquifer Authority Director, District 7          Enrique Valdivia                                                                             01 
01830023139000192NONEDWAQUIEdwards Aquifer Authority Director, District 7          Enrique Valdivia                                                                             01 
01830031002000000   EDWAQUIEdwards Aquifer Authority Director, District 7          OVER VOTES                                                                                   01 
01830031009000000   EDWAQUIEdwards Aquifer Authority Director, District 7          OVER VOTES                                                                                   01 
01830031024000000   EDWAQUIEdwards Aquifer Authority Director, District 7          OVER VOTES                                                                                   01 
01830031027000000   EDWAQUIEdwards Aquifer Authority Director, District 7          OVER VOTES                                                                                   01 
01830031032000000   EDWAQUIEdwards Aquifer Authority Director, District 7          OVER VOTES                                                                                   01 
01830031055000000   EDWAQUIEdwards Aquifer Authority Director, District 7          OVER VOTES                                                                                   01 
01830031072000000   EDWAQUIEdwards Aquifer Authority Director, District 7          OVER VOTES                                                                                   01 
01830031076000000   EDWAQUIEdwards Aquifer Authority Director, District 7          OVER VOTES                                                                                   01 
01830031079000000   EDWAQUIEdwards Aquifer Authority Director, District 7          OVER VOTES                                                                                   01 
01830031080000001   EDWAQUIEdwards Aquifer Authority Director, District 7          OVER VOTES                                                                                   01 
01830031083000000   EDWAQUIEdwards Aquifer Authority Director, District 7          OVER VOTES                                                                                   01 
01830031088000000   EDWAQUIEdwards Aquifer Authority Director, District 7          OVER VOTES                                                                                   01 
01830031093000000   EDWAQUIEdwards Aquifer Authority Director, District 7          OVER VOTES                                                                                   01 
01830031099000000   EDWAQUIEdwards Aquifer Authority Director, District 7          OVER VOTES                                                                                   01 
01830031100000000   EDWAQUIEdwards Aquifer Authority Director, District 7          OVER VOTES                                                                                   01 
01830031104000000   EDWAQUIEdwards Aquifer Authority Director, District 7          OVER VOTES                                                                                   01 
01830031109000000   EDWAQUIEdwards Aquifer Authority Director, District 7          OVER VOTES                                                                                   01 
01830031111000000   EDWAQUIEdwards Aquifer Authority Director, District 7          OVER VOTES                                                                                   01 
01830031113000000   EDWAQUIEdwards Aquifer Authority Director, District 7          OVER VOTES                                                                                   01 
01830031138000000   EDWAQUIEdwards Aquifer Authority Director, District 7          OVER VOTES                                                                                   01 
01830031139000000   EDWAQUIEdwards Aquifer Authority Director, District 7          OVER VOTES                                                                                   01 
01830032006000000   EDWAQUIEdwards Aquifer Authority Director, District 7          OVER VOTES                                                                                   01 
01830032011000000   EDWAQUIEdwards Aquifer Authority Director, District 7          OVER VOTES                                                                                   01 
01830032012000000   EDWAQUIEdwards Aquifer Authority Director, District 7          OVER VOTES                                                                                   01 
01830032013000000   EDWAQUIEdwards Aquifer Authority Director, District 7          OVER VOTES                                                                                   01 
01830032014000000   EDWAQUIEdwards Aquifer Authority Director, District 7          OVER VOTES                                                                                   01 
01830032015000000   EDWAQUIEdwards Aquifer Authority Director, District 7          OVER VOTES                                                                                   01 
01830032016000000   EDWAQUIEdwards Aquifer Authority Director, District 7          OVER VOTES                                                                                   01 
01830032017000000   EDWAQUIEdwards Aquifer Authority Director, District 7          OVER VOTES                                                                                   01 
01830032019000000   EDWAQUIEdwards Aquifer Authority Director, District 7          OVER VOTES                                                                                   01 
01830032020000000   EDWAQUIEdwards Aquifer Authority Director, District 7          OVER VOTES                                                                                   01 
01830032021000000   EDWAQUIEdwards Aquifer Authority Director, District 7          OVER VOTES                                                                                   01 
01830032022000000   EDWAQUIEdwards Aquifer Authority Director, District 7          OVER VOTES                                                                                   01 
01830032023000000   EDWAQUIEdwards Aquifer Authority Director, District 7          OVER VOTES                                                                                   01 
01830032024000000   EDWAQUIEdwards Aquifer Authority Director, District 7          OVER VOTES                                                                                   01 
01830032025000000   EDWAQUIEdwards Aquifer Authority Director, District 7          OVER VOTES                                                                                   01 
01830032040000000   EDWAQUIEdwards Aquifer Authority Director, District 7          OVER VOTES                                                                                   01 
01830032041000000   EDWAQUIEdwards Aquifer Authority Director, District 7          OVER VOTES                                                                                   01 
01830032042000000   EDWAQUIEdwards Aquifer Authority Director, District 7          OVER VOTES                                                                                   01 
01830032043000000   EDWAQUIEdwards Aquifer Authority Director, District 7          OVER VOTES                                                                                   01 
01830032045000000   EDWAQUIEdwards Aquifer Authority Director, District 7          OVER VOTES                                                                                   01 
01830032046000000   EDWAQUIEdwards Aquifer Authority Director, District 7          OVER VOTES                                                                                   01 
01830032047000000   EDWAQUIEdwards Aquifer Authority Director, District 7          OVER VOTES                                                                                   01 
01830032049000000   EDWAQUIEdwards Aquifer Authority Director, District 7          OVER VOTES                                                                                   01 
01830032050000000   EDWAQUIEdwards Aquifer Authority Director, District 7          OVER VOTES                                                                                   01 
01830032061000000   EDWAQUIEdwards Aquifer Authority Director, District 7          OVER VOTES                                                                                   01 
01830032068000001   EDWAQUIEdwards Aquifer Authority Director, District 7          OVER VOTES                                                                                   01 
01830032069000000   EDWAQUIEdwards Aquifer Authority Director, District 7          OVER VOTES                                                                                   01 
01830032074000000   EDWAQUIEdwards Aquifer Authority Director, District 7          OVER VOTES                                                                                   01 
01830032077000000   EDWAQUIEdwards Aquifer Authority Director, District 7          OVER VOTES                                                                                   01 
01830032078000000   EDWAQUIEdwards Aquifer Authority Director, District 7          OVER VOTES                                                                                   01 
01830032083000000   EDWAQUIEdwards Aquifer Authority Director, District 7          OVER VOTES                                                                                   01 
01830032087000000   EDWAQUIEdwards Aquifer Authority Director, District 7          OVER VOTES                                                                                   01 
01830032088000000   EDWAQUIEdwards Aquifer Authority Director, District 7          OVER VOTES                                                                                   01 
01830032089000000   EDWAQUIEdwards Aquifer Authority Director, District 7          OVER VOTES                                                                                   01 
01830032090000000   EDWAQUIEdwards Aquifer Authority Director, District 7          OVER VOTES                                                                                   01 
01830032097000000   EDWAQUIEdwards Aquifer Authority Director, District 7          OVER VOTES                                                                                   01 
01830032098000000   EDWAQUIEdwards Aquifer Authority Director, District 7          OVER VOTES                                                                                   01 
01830032102000000   EDWAQUIEdwards Aquifer Authority Director, District 7          OVER VOTES                                                                                   01 
01830032106000000   EDWAQUIEdwards Aquifer Authority Director, District 7          OVER VOTES                                                                                   01 
01830032112000000   EDWAQUIEdwards Aquifer Authority Director, District 7          OVER VOTES                                                                                   01 
01830032126000000   EDWAQUIEdwards Aquifer Authority Director, District 7          OVER VOTES                                                                                   01 
01830032128000000   EDWAQUIEdwards Aquifer Authority Director, District 7          OVER VOTES                                                                                   01 
01830032140000000   EDWAQUIEdwards Aquifer Authority Director, District 7          OVER VOTES                                                                                   01 
01830032143000000   EDWAQUIEdwards Aquifer Authority Director, District 7          OVER VOTES                                                                                   01 
01830032145000000   EDWAQUIEdwards Aquifer Authority Director, District 7          OVER VOTES                                                                                   01 
01830032151000000   EDWAQUIEdwards Aquifer Authority Director, District 7          OVER VOTES                                                                                   01 
01830032157000000   EDWAQUIEdwards Aquifer Authority Director, District 7          OVER VOTES                                                                                   01 
01830033139000000   EDWAQUIEdwards Aquifer Authority Director, District 7          OVER VOTES                                                                                   01 
01830041002000155   EDWAQUIEdwards Aquifer Authority Director, District 7          UNDER VOTES                                                                                  01 
01830041009000272   EDWAQUIEdwards Aquifer Authority Director, District 7          UNDER VOTES                                                                                  01 
01830041024000537   EDWAQUIEdwards Aquifer Authority Director, District 7          UNDER VOTES                                                                                  01 
01830041027000050   EDWAQUIEdwards Aquifer Authority Director, District 7          UNDER VOTES                                                                                  01 
01830041032000302   EDWAQUIEdwards Aquifer Authority Director, District 7          UNDER VOTES                                                                                  01 
01830041055000372   EDWAQUIEdwards Aquifer Authority Director, District 7          UNDER VOTES                                                                                  01 
01830041072000356   EDWAQUIEdwards Aquifer Authority Director, District 7          UNDER VOTES                                                                                  01 
01830041076000529   EDWAQUIEdwards Aquifer Authority Director, District 7          UNDER VOTES                                                                                  01 
01830041079000807   EDWAQUIEdwards Aquifer Authority Director, District 7          UNDER VOTES                                                                                  01 
01830041080000577   EDWAQUIEdwards Aquifer Authority Director, District 7          UNDER VOTES                                                                                  01 
01830041083000542   EDWAQUIEdwards Aquifer Authority Director, District 7          UNDER VOTES                                                                                  01 
01830041088000116   EDWAQUIEdwards Aquifer Authority Director, District 7          UNDER VOTES                                                                                  01 
01830041093000174   EDWAQUIEdwards Aquifer Authority Director, District 7          UNDER VOTES                                                                                  01 
01830041099000947   EDWAQUIEdwards Aquifer Authority Director, District 7          UNDER VOTES                                                                                  01 
01830041100000463   EDWAQUIEdwards Aquifer Authority Director, District 7          UNDER VOTES                                                                                  01 
01830041104000670   EDWAQUIEdwards Aquifer Authority Director, District 7          UNDER VOTES                                                                                  01 
01830041109000001   EDWAQUIEdwards Aquifer Authority Director, District 7          UNDER VOTES                                                                                  01 
01830041111000964   EDWAQUIEdwards Aquifer Authority Director, District 7          UNDER VOTES                                                                                  01 
01830041113000578   EDWAQUIEdwards Aquifer Authority Director, District 7          UNDER VOTES                                                                                  01 
01830041138000065   EDWAQUIEdwards Aquifer Authority Director, District 7          UNDER VOTES                                                                                  01 
01830041139000156   EDWAQUIEdwards Aquifer Authority Director, District 7          UNDER VOTES                                                                                  01 
01830042006000002   EDWAQUIEdwards Aquifer Authority Director, District 7          UNDER VOTES                                                                                  01 
01830042011000244   EDWAQUIEdwards Aquifer Authority Director, District 7          UNDER VOTES                                                                                  01 
01830042012000158   EDWAQUIEdwards Aquifer Authority Director, District 7          UNDER VOTES                                                                                  01 
01830042013000160   EDWAQUIEdwards Aquifer Authority Director, District 7          UNDER VOTES                                                                                  01 
01830042014000177   EDWAQUIEdwards Aquifer Authority Director, District 7          UNDER VOTES                                                                                  01 
01830042015000224   EDWAQUIEdwards Aquifer Authority Director, District 7          UNDER VOTES                                                                                  01 
01830042016000142   EDWAQUIEdwards Aquifer Authority Director, District 7          UNDER VOTES                                                                                  01 
01830042017000121   EDWAQUIEdwards Aquifer Authority Director, District 7          UNDER VOTES                                                                                  01 
01830042019000175   EDWAQUIEdwards Aquifer Authority Director, District 7          UNDER VOTES                                                                                  01 
01830042020000306   EDWAQUIEdwards Aquifer Authority Director, District 7          UNDER VOTES                                                                                  01 
01830042021000363   EDWAQUIEdwards Aquifer Authority Director, District 7          UNDER VOTES                                                                                  01 
01830042022000180   EDWAQUIEdwards Aquifer Authority Director, District 7          UNDER VOTES                                                                                  01 
01830042023000432   EDWAQUIEdwards Aquifer Authority Director, District 7          UNDER VOTES                                                                                  01 
01830042024000216   EDWAQUIEdwards Aquifer Authority Director, District 7          UNDER VOTES                                                                                  01 
01830042025000355   EDWAQUIEdwards Aquifer Authority Director, District 7          UNDER VOTES                                                                                  01 
01830042040000378   EDWAQUIEdwards Aquifer Authority Director, District 7          UNDER VOTES                                                                                  01 
01830042041000425   EDWAQUIEdwards Aquifer Authority Director, District 7          UNDER VOTES                                                                                  01 
01830042042000225   EDWAQUIEdwards Aquifer Authority Director, District 7          UNDER VOTES                                                                                  01 
01830042043000221   EDWAQUIEdwards Aquifer Authority Director, District 7          UNDER VOTES                                                                                  01 
01830042045000356   EDWAQUIEdwards Aquifer Authority Director, District 7          UNDER VOTES                                                                                  01 
01830042046000366   EDWAQUIEdwards Aquifer Authority Director, District 7          UNDER VOTES                                                                                  01 
01830042047000333   EDWAQUIEdwards Aquifer Authority Director, District 7          UNDER VOTES                                                                                  01 
01830042049000399   EDWAQUIEdwards Aquifer Authority Director, District 7          UNDER VOTES                                                                                  01 
01830042050000281   EDWAQUIEdwards Aquifer Authority Director, District 7          UNDER VOTES                                                                                  01 
01830042061000222   EDWAQUIEdwards Aquifer Authority Director, District 7          UNDER VOTES                                                                                  01 
01830042068000878   EDWAQUIEdwards Aquifer Authority Director, District 7          UNDER VOTES                                                                                  01 
01830042069000481   EDWAQUIEdwards Aquifer Authority Director, District 7          UNDER VOTES                                                                                  01 
01830042074000104   EDWAQUIEdwards Aquifer Authority Director, District 7          UNDER VOTES                                                                                  01 
01830042077000521   EDWAQUIEdwards Aquifer Authority Director, District 7          UNDER VOTES                                                                                  01 
01830042078000372   EDWAQUIEdwards Aquifer Authority Director, District 7          UNDER VOTES                                                                                  01 
01830042083000122   EDWAQUIEdwards Aquifer Authority Director, District 7          UNDER VOTES                                                                                  01 
01830042087000434   EDWAQUIEdwards Aquifer Authority Director, District 7          UNDER VOTES                                                                                  01 
01830042088000703   EDWAQUIEdwards Aquifer Authority Director, District 7          UNDER VOTES                                                                                  01 
01830042089000062   EDWAQUIEdwards Aquifer Authority Director, District 7          UNDER VOTES                                                                                  01 
01830042090000308   EDWAQUIEdwards Aquifer Authority Director, District 7          UNDER VOTES                                                                                  01 
01830042097000367   EDWAQUIEdwards Aquifer Authority Director, District 7          UNDER VOTES                                                                                  01 
01830042098000171   EDWAQUIEdwards Aquifer Authority Director, District 7          UNDER VOTES                                                                                  01 
01830042102000524   EDWAQUIEdwards Aquifer Authority Director, District 7          UNDER VOTES                                                                                  01 
01830042106000079   EDWAQUIEdwards Aquifer Authority Director, District 7          UNDER VOTES                                                                                  01 
01830042112000416   EDWAQUIEdwards Aquifer Authority Director, District 7          UNDER VOTES                                                                                  01 
01830042126000239   EDWAQUIEdwards Aquifer Authority Director, District 7          UNDER VOTES                                                                                  01 
01830042128000248   EDWAQUIEdwards Aquifer Authority Director, District 7          UNDER VOTES                                                                                  01 
01830042140000226   EDWAQUIEdwards Aquifer Authority Director, District 7          UNDER VOTES                                                                                  01 
01830042143000432   EDWAQUIEdwards Aquifer Authority Director, District 7          UNDER VOTES                                                                                  01 
01830042145000081   EDWAQUIEdwards Aquifer Authority Director, District 7          UNDER VOTES                                                                                  01 
01830042151000003   EDWAQUIEdwards Aquifer Authority Director, District 7          UNDER VOTES                                                                                  01 
01830042157000000   EDWAQUIEdwards Aquifer Authority Director, District 7          UNDER VOTES                                                                                  01 
01830043139000311   EDWAQUIEdwards Aquifer Authority Director, District 7          UNDER VOTES                                                                                  01 
