01830011002000059NONEDWAQUIEdwards Aquifer Authority Director, District 7          Gilbert Stanley-Medford                                                                      01 
01830011009000148NONEDWAQUIEdwards Aquifer Authority Director, District 7          Gilbert Stanley-Medford                                                                      01 
01830011024000256NONEDWAQUIEdwards Aquifer Authority Director, District 7          Gilbert Stanley-Medford                                                                      01 
01830011027000021NONEDWAQUIEdwards Aquifer Authority Director, District 7          Gilbert Stanley-Medford                                                                      01 
01830011032000063NONEDWAQUIEdwards Aquifer Authority Director, District 7          Gilbert Stanley-Medford                                                                      01 
01830011055000192NONEDWAQUIEdwards Aquifer Authority Director, District 7          Gilbert Stanley-Medford                                                                      01 
01830011072000113NONEDWAQUIEdwards Aquifer Authority Director, District 7          Gilbert Stanley-Medford                                                                      01 
01830011076000186NONEDWAQUIEdwards Aquifer Authority Director, District 7          Gilbert Stanley-Medford                                                                      01 
01830011079000353NONEDWAQUIEdwards Aquifer Authority Director, District 7          Gilbert Stanley-Medford                                                                      01 
01830011080000236NONEDWAQUIEdwards Aquifer Authority Director, District 7          Gilbert Stanley-Medford                                                                      01 
01830011083000240NONEDWAQUIEdwards Aquifer Authority Director, District 7          Gilbert Stanley-Medford                                                                      01 
01830011088000017NONEDWAQUIEdwards Aquifer Authority Director, District 7          Gilbert Stanley-Medford                                                                      01 
01830011093000084NONEDWAQUIEdwards Aquifer Authority Director, District 7          Gilbert Stanley-Medford                                                                      01 
01830011099000406NONEDWAQUIEdwards Aquifer Authority Director, District 7          Gilbert Stanley-Medford                                                                      01 
01830011100000226NONEDWAQUIEdwards Aquifer Authority Director, District 7          Gilbert Stanley-Medford                                                                      01 
01830011104000305NONEDWAQUIEdwards Aquifer Authority Director, District 7          Gilbert Stanley-Medford                                                                      01 
01830011109000001NONEDWAQUIEdwards Aquifer Authority Director, District 7          Gilbert Stanley-Medford                                                                      01 
01830011111000451NONEDWAQUIEdwards Aquifer Authority Director, District 7          Gilbert Stanley-Medford                                                                      01 
01830011113000233NONEDWAQUIEdwards Aquifer Authority Director, District 7          Gilbert Stanley-Medford                                                                      01 
01830011138000033NONEDWAQUIEdwards Aquifer Authority Director, District 7          Gilbert Stanley-Medford                                                                      01 
01830011139000085NONEDWAQUIEdwards Aquifer Authority Director, District 7          Gilbert Stanley-Medford                                                                      01 
01830012006000000NONEDWAQUIEdwards Aquifer Authority Director, District 7          Gilbert Stanley-Medford                                                                      01 
01830012011000091NONEDWAQUIEdwards Aquifer Authority Director, District 7          Gilbert Stanley-Medford                                                                      01 
01830012012000038NONEDWAQUIEdwards Aquifer Authority Director, District 7          Gilbert Stanley-Medford                                                                      01 
01830012013000064NONEDWAQUIEdwards Aquifer Authority Director, District 7          Gilbert Stanley-Medford                                                                      01 
01830012014000060NONEDWAQUIEdwards Aquifer Authority Director, District 7          Gilbert Stanley-Medford                                                                      01 
01830012015000041NONEDWAQUIEdwards Aquifer Authority Director, District 7          Gilbert Stanley-Medford                                                                      01 
01830012016000026NONEDWAQUIEdwards Aquifer Authority Director, District 7          Gilbert Stanley-Medford                                                                      01 
01830012017000030NONEDWAQUIEdwards Aquifer Authority Director, District 7          Gilbert Stanley-Medford                                                                      01 
01830012019000051NONEDWAQUIEdwards Aquifer Authority Director, District 7          Gilbert Stanley-Medford                                                                      01 
01830012020000082NONEDWAQUIEdwards Aquifer Authority Director, District 7          Gilbert Stanley-Medford                                                                      01 
01830012021000091NONEDWAQUIEdwards Aquifer Authority Director, District 7          Gilbert Stanley-Medford                                                                      01 
01830012022000049NONEDWAQUIEdwards Aquifer Authority Director, District 7          Gilbert Stanley-Medford                                                                      01 
01830012023000129NONEDWAQUIEdwards Aquifer Authority Director, District 7          Gilbert Stanley-Medford                                                                      01 
01830012024000096NONEDWAQUIEdwards Aquifer Authority Director, District 7          Gilbert Stanley-Medford                                                                      01 
01830012025000142NONEDWAQUIEdwards Aquifer Authority Director, District 7          Gilbert Stanley-Medford                                                                      01 
01830012040000141NONEDWAQUIEdwards Aquifer Authority Director, District 7          Gilbert Stanley-Medford                                                                      01 
01830012041000123NONEDWAQUIEdwards Aquifer Authority Director, District 7          Gilbert Stanley-Medford                                                                      01 
01830012042000047NONEDWAQUIEdwards Aquifer Authority Director, District 7          Gilbert Stanley-Medford                                                                      01 
01830012043000067NONEDWAQUIEdwards Aquifer Authority Director, District 7          Gilbert Stanley-Medford                                                                      01 
01830012045000146NONEDWAQUIEdwards Aquifer Authority Director, District 7          Gilbert Stanley-Medford                                                                      01 
01830012046000186NONEDWAQUIEdwards Aquifer Authority Director, District 7          Gilbert Stanley-Medford                                                                      01 
01830012047000122NONEDWAQUIEdwards Aquifer Authority Director, District 7          Gilbert Stanley-Medford                                                                      01 
01830012049000165NONEDWAQUIEdwards Aquifer Authority Director, District 7          Gilbert Stanley-Medford                                                                      01 
01830012050000135NONEDWAQUIEdwards Aquifer Authority Director, District 7          Gilbert Stanley-Medford                                                                      01 
01830012061000109NONEDWAQUIEdwards Aquifer Authority Director, District 7          Gilbert Stanley-Medford                                                                      01 
01830012068000531NONEDWAQUIEdwards Aquifer Authority Director, District 7          Gilbert Stanley-Medford                                                                      01 
01830012069000249NONEDWAQUIEdwards Aquifer Authority Director, District 7          Gilbert Stanley-Medford                                                                      01 
01830012074000022NONEDWAQUIEdwards Aquifer Authority Director, District 7          Gilbert Stanley-Medford                                                                      01 
01830012077000283NONEDWAQUIEdwards Aquifer Authority Director, District 7          Gilbert Stanley-Medford                                                                      01 
01830012078000208NONEDWAQUIEdwards Aquifer Authority Director, District 7          Gilbert Stanley-Medford                                                                      01 
01830012083000067NONEDWAQUIEdwards Aquifer Authority Director, District 7          Gilbert Stanley-Medford                                                                      01 
01830012087000248NONEDWAQUIEdwards Aquifer Authority Director, District 7          Gilbert Stanley-Medford                                                                      01 
01830012088000391NONEDWAQUIEdwards Aquifer Authority Director, District 7          Gilbert Stanley-Medford                                                                      01 
01830012089000016NONEDWAQUIEdwards Aquifer Authority Director, District 7          Gilbert Stanley-Medford                                                                      01 
01830012090000115NONEDWAQUIEdwards Aquifer Authority Director, District 7          Gilbert Stanley-Medford                                                                      01 
01830012097000224NONEDWAQUIEdwards Aquifer Authority Director, District 7          Gilbert Stanley-Medford                                                                      01 
01830012098000131NONEDWAQUIEdwards Aquifer Authority Director, District 7          Gilbert Stanley-Medford                                                                      01 
01830012102000355NONEDWAQUIEdwards Aquifer Authority Director, District 7          Gilbert Stanley-Medford                                                                      01 
01830012106000040NONEDWAQUIEdwards Aquifer Authority Director, District 7          Gilbert Stanley-Medford                                                                      01 
01830012112000174NONEDWAQUIEdwards Aquifer Authority Director, District 7          Gilbert Stanley-Medford                                                                      01 
01830012126000104NONEDWAQUIEdwards Aquifer Authority Director, District 7          Gilbert Stanley-Medford                                                                      01 
01830012128000078NONEDWAQUIEdwards Aquifer Authority Director, District 7          Gilbert Stanley-Medford                                                                      01 
01830012140000130NONEDWAQUIEdwards Aquifer Authority Director, District 7          Gilbert Stanley-Medford                                                                      01 
01830012143000238NONEDWAQUIEdwards Aquifer Authority Director, District 7          Gilbert Stanley-Medford                                                                      01 
01830012145000037NONEDWAQUIEdwards Aquifer Authority Director, District 7          Gilbert Stanley-Medford                                                                      01 
01830012151000001NONEDWAQUIEdwards Aquifer Authority Director, District 7          Gilbert Stanley-Medford                                                                      01 
01830012157000000NONEDWAQUIEdwards Aquifer Authority Director, District 7          Gilbert Stanley-Medford                                                                      01 
01830013139000176NONEDWAQUIEdwards Aquifer Authority Director, District 7          Gilbert Stanley-Medford                                                                      01 
01830021002000100NONEDWAQUIEdwards Aquifer Authority Director, District 7          Enrique Valdivia                                                                             01 
01830021009000257NONEDWAQUIEdwards Aquifer Authority Director, District 7          Enrique Valdivia                                                                             01 
01830021024000481NONEDWAQUIEdwards Aquifer Authority Director, District 7          Enrique Valdivia                                                                             01 
01830021027000027NONEDWAQUIEdwards Aquifer Authority Director, District 7          Enrique Valdivia                                                                             01 
01830021032000305NONEDWAQUIEdwards Aquifer Authority Director, District 7          Enrique Valdivia                                                                             01 
01830021055000348NONEDWAQUIEdwards Aquifer Authority Director, District 7          Enrique Valdivia                                                                             01 
01830021072000299NONEDWAQUIEdwards Aquifer Authority Director, District 7          Enrique Valdivia                                                                             01 
01830021076000382NONEDWAQUIEdwards Aquifer Authority Director, District 7          Enrique Valdivia                                                                             01 
01830021079000806NONEDWAQUIEdwards Aquifer Authority Director, District 7          Enrique Valdivia                                                                             01 
01830021080000578NONEDWAQUIEdwards Aquifer Authority Director, District 7          Enrique Valdivia                                                                             01 
01830021083000508NONEDWAQUIEdwards Aquifer Authority Director, District 7          Enrique Valdivia                                                                             01 
01830021088000134NONEDWAQUIEdwards Aquifer Authority Director, District 7          Enrique Valdivia                                                                             01 
01830021093000134NONEDWAQUIEdwards Aquifer Authority Director, District 7          Enrique Valdivia                                                                             01 
01830021099000772NONEDWAQUIEdwards Aquifer Authority Director, District 7          Enrique Valdivia                                                                             01 
01830021100000440NONEDWAQUIEdwards Aquifer Authority Director, District 7          Enrique Valdivia                                                                             01 
01830021104000494NONEDWAQUIEdwards Aquifer Authority Director, District 7          Enrique Valdivia                                                                             01 
01830021109000001NONEDWAQUIEdwards Aquifer Authority Director, District 7          Enrique Valdivia                                                                             01 
01830021111000776NONEDWAQUIEdwards Aquifer Authority Director, District 7          Enrique Valdivia                                                                             01 
01830021113000425NONEDWAQUIEdwards Aquifer Authority Director, District 7          Enrique Valdivia                                                                             01 
01830021138000082NONEDWAQUIEdwards Aquifer Authority Director, District 7          Enrique Valdivia                                                                             01 
01830021139000151NONEDWAQUIEdwards Aquifer Authority Director, District 7          Enrique Valdivia                                                                             01 
01830022006000002NONEDWAQUIEdwards Aquifer Authority Director, District 7          Enrique Valdivia                                                                             01 
01830022011000283NONEDWAQUIEdwards Aquifer Authority Director, District 7          Enrique Valdivia                                                                             01 
01830022012000193NONEDWAQUIEdwards Aquifer Authority Director, District 7          Enrique Valdivia                                                                             01 
01830022013000224NONEDWAQUIEdwards Aquifer Authority Director, District 7          Enrique Valdivia                                                                             01 
01830022014000211NONEDWAQUIEdwards Aquifer Authority Director, District 7          Enrique Valdivia                                                                             01 
01830022015000224NONEDWAQUIEdwards Aquifer Authority Director, District 7          Enrique Valdivia                                                                             01 
01830022016000152NONEDWAQUIEdwards Aquifer Authority Director, District 7          Enrique Valdivia                                                                             01 
01830022017000135NONEDWAQUIEdwards Aquifer Authority Director, District 7          Enrique Valdivia                                                                             01 
01830022019000225NONEDWAQUIEdwards Aquifer Authority Director, District 7          Enrique Valdivia                                                                             01 
01830022020000313NONEDWAQUIEdwards Aquifer Authority Director, District 7          Enrique Valdivia                                                                             01 
01830022021000343NONEDWAQUIEdwards Aquifer Authority Director, District 7          Enrique Valdivia                                                                             01 
01830022022000228NONEDWAQUIEdwards Aquifer Authority Director, District 7          Enrique Valdivia                                                                             01 
01830022023000544NONEDWAQUIEdwards Aquifer Authority Director, District 7          Enrique Valdivia                                                                             01 
01830022024000313NONEDWAQUIEdwards Aquifer Authority Director, District 7          Enrique Valdivia                                                                             01 
01830022025000475NONEDWAQUIEdwards Aquifer Authority Director, District 7          Enrique Valdivia                                                                             01 
01830022040000429NONEDWAQUIEdwards Aquifer Authority Director, District 7          Enrique Valdivia                                                                             01 
01830022041000505NONEDWAQUIEdwards Aquifer Authority Director, District 7          Enrique Valdivia                                                                             01 
01830022042000235NONEDWAQUIEdwards Aquifer Authority Director, District 7          Enrique Valdivia                                                                             01 
01830022043000301NONEDWAQUIEdwards Aquifer Authority Director, District 7          Enrique Valdivia                                                                             01 
01830022045000566NONEDWAQUIEdwards Aquifer Authority Director, District 7          Enrique Valdivia                                                                             01 
01830022046000554NONEDWAQUIEdwards Aquifer Authority Director, District 7          Enrique Valdivia                                                                             01 
01830022047000366NONEDWAQUIEdwards Aquifer Authority Director, District 7          Enrique Valdivia                                                                             01 
01830022049000517NONEDWAQUIEdwards Aquifer Authority Director, District 7          Enrique Valdivia                                                                             01 
01830022050000363NONEDWAQUIEdwards Aquifer Authority Director, District 7          Enrique Valdivia                                                                             01 
01830022061000181NONEDWAQUIEdwards Aquifer Authority Director, District 7          Enrique Valdivia                                                                             01 
01830022068000677NONEDWAQUIEdwards Aquifer Authority Director, District 7          Enrique Valdivia                                                                             01 
01830022069000459NONEDWAQUIEdwards Aquifer Authority Director, District 7          Enrique Valdivia                                                                             01 
01830022074000122NONEDWAQUIEdwards Aquifer Authority Director, District 7          Enrique Valdivia                                                                             01 
01830022077000403NONEDWAQUIEdwards Aquifer Authority Director, District 7          Enrique Valdivia                                                                             01 
01830022078000421NONEDWAQUIEdwards Aquifer Authority Director, District 7          Enrique Valdivia                                                                             01 
01830022083000181NONEDWAQUIEdwards Aquifer Authority Director, District 7          Enrique Valdivia                                                                             01 
01830022087000294NONEDWAQUIEdwards Aquifer Authority Director, District 7          Enrique Valdivia                                                                             01 
01830022088000678NONEDWAQUIEdwards Aquifer Authority Director, District 7          Enrique Valdivia                                                                             01 
01830022089000061NONEDWAQUIEdwards Aquifer Authority Director, District 7          Enrique Valdivia                                                                             01 
01830022090000260NONEDWAQUIEdwards Aquifer Authority Director, District 7          Enrique Valdivia                                                                             01 
01830022097000447NONEDWAQUIEdwards Aquifer Authority Director, District 7          Enrique Valdivia                                                                             01 
01830022098000219NONEDWAQUIEdwards Aquifer Authority Director, District 7          Enrique Valdivia                                                                             01 
01830022102000438NONEDWAQUIEdwards Aquifer Authority Director, District 7          Enrique Valdivia                                                                             01 
01830022106000084NONEDWAQUIEdwards Aquifer Authority Director, District 7          Enrique Valdivia                                                                             01 
01830022112000281NONEDWAQUIEdwards Aquifer Authority Director, District 7          Enrique Valdivia                                                                             01 
01830022126000228NONEDWAQUIEdwards Aquifer Authority Director, District 7          Enrique Valdivia                                                                             01 
01830022128000335NONEDWAQUIEdwards Aquifer Authority Director, District 7          Enrique Valdivia                                                                             01 
01830022140000249NONEDWAQUIEdwards Aquifer Authority Director, District 7          Enrique Valdivia                                                                             01 
01830022143000339NONEDWAQUIEdwards Aquifer Authority Director, District 7          Enrique Valdivia                                                                             01 
01830022145000070NONEDWAQUIEdwards Aquifer Authority Director, District 7          Enrique Valdivia                                                                             01 
01830022151000003NONEDWAQUIEdwards Aquifer Authority Director, District 7          Enrique Valdivia                                                                             01 
01830022157000000NONEDWAQUIEdwards Aquifer Authority Director, District 7          Enrique Valdivia                                                                             01 
01830023139000235NONEDWAQUIEdwards Aquifer Authority Director, District 7          Enrique Valdivia                                                                             01 
01830031002000000   EDWAQUIEdwards Aquifer Authority Director, District 7          OVER VOTES                                                                                   01 
01830031009000000   EDWAQUIEdwards Aquifer Authority Director, District 7          OVER VOTES                                                                                   01 
01830031024000000   EDWAQUIEdwards Aquifer Authority Director, District 7          OVER VOTES                                                                                   01 
01830031027000000   EDWAQUIEdwards Aquifer Authority Director, District 7          OVER VOTES                                                                                   01 
01830031032000000   EDWAQUIEdwards Aquifer Authority Director, District 7          OVER VOTES                                                                                   01 
01830031055000000   EDWAQUIEdwards Aquifer Authority Director, District 7          OVER VOTES                                                                                   01 
01830031072000000   EDWAQUIEdwards Aquifer Authority Director, District 7          OVER VOTES                                                                                   01 
01830031076000000   EDWAQUIEdwards Aquifer Authority Director, District 7          OVER VOTES                                                                                   01 
01830031079000000   EDWAQUIEdwards Aquifer Authority Director, District 7          OVER VOTES                                                                                   01 
01830031080000001   EDWAQUIEdwards Aquifer Authority Director, District 7          OVER VOTES                                                                                   01 
01830031083000000   EDWAQUIEdwards Aquifer Authority Director, District 7          OVER VOTES                                                                                   01 
01830031088000000   EDWAQUIEdwards Aquifer Authority Director, District 7          OVER VOTES                                                                                   01 
01830031093000000   EDWAQUIEdwards Aquifer Authority Director, District 7          OVER VOTES                                                                                   01 
01830031099000000   EDWAQUIEdwards Aquifer Authority Director, District 7          OVER VOTES                                                                                   01 
01830031100000000   EDWAQUIEdwards Aquifer Authority Director, District 7          OVER VOTES                                                                                   01 
01830031104000000   EDWAQUIEdwards Aquifer Authority Director, District 7          OVER VOTES                                                                                   01 
01830031109000000   EDWAQUIEdwards Aquifer Authority Director, District 7          OVER VOTES                                                                                   01 
01830031111000000   EDWAQUIEdwards Aquifer Authority Director, District 7          OVER VOTES                                                                                   01 
01830031113000000   EDWAQUIEdwards Aquifer Authority Director, District 7          OVER VOTES                                                                                   01 
01830031138000000   EDWAQUIEdwards Aquifer Authority Director, District 7          OVER VOTES                                                                                   01 
01830031139000000   EDWAQUIEdwards Aquifer Authority Director, District 7          OVER VOTES                                                                                   01 
01830032006000000   EDWAQUIEdwards Aquifer Authority Director, District 7          OVER VOTES                                                                                   01 
01830032011000000   EDWAQUIEdwards Aquifer Authority Director, District 7          OVER VOTES                                                                                   01 
01830032012000000   EDWAQUIEdwards Aquifer Authority Director, District 7          OVER VOTES                                                                                   01 
01830032013000000   EDWAQUIEdwards Aquifer Authority Director, District 7          OVER VOTES                                                                                   01 
01830032014000000   EDWAQUIEdwards Aquifer Authority Director, District 7          OVER VOTES                                                                                   01 
01830032015000000   EDWAQUIEdwards Aquifer Authority Director, District 7          OVER VOTES                                                                                   01 
01830032016000000   EDWAQUIEdwards Aquifer Authority Director, District 7          OVER VOTES                                                                                   01 
01830032017000000   EDWAQUIEdwards Aquifer Authority Director, District 7          OVER VOTES                                                                                   01 
01830032019000000   EDWAQUIEdwards Aquifer Authority Director, District 7          OVER VOTES                                                                                   01 
01830032020000000   EDWAQUIEdwards Aquifer Authority Director, District 7          OVER VOTES                                                                                   01 
01830032021000000   EDWAQUIEdwards Aquifer Authority Director, District 7          OVER VOTES                                                                                   01 
01830032022000000   EDWAQUIEdwards Aquifer Authority Director, District 7          OVER VOTES                                                                                   01 
01830032023000000   EDWAQUIEdwards Aquifer Authority Director, District 7          OVER VOTES                                                                                   01 
01830032024000000   EDWAQUIEdwards Aquifer Authority Director, District 7          OVER VOTES                                                                                   01 
01830032025000000   EDWAQUIEdwards Aquifer Authority Director, District 7          OVER VOTES                                                                                   01 
01830032040000000   EDWAQUIEdwards Aquifer Authority Director, District 7          OVER VOTES                                                                                   01 
01830032041000000   EDWAQUIEdwards Aquifer Authority Director, District 7          OVER VOTES                                                                                   01 
01830032042000000   EDWAQUIEdwards Aquifer Authority Director, District 7          OVER VOTES                                                                                   01 
01830032043000000   EDWAQUIEdwards Aquifer Authority Director, District 7          OVER VOTES                                                                                   01 
01830032045000000   EDWAQUIEdwards Aquifer Authority Director, District 7          OVER VOTES                                                                                   01 
01830032046000000   EDWAQUIEdwards Aquifer Authority Director, District 7          OVER VOTES                                                                                   01 
01830032047000000   EDWAQUIEdwards Aquifer Authority Director, District 7          OVER VOTES                                                                                   01 
01830032049000000   EDWAQUIEdwards Aquifer Authority Director, District 7          OVER VOTES                                                                                   01 
01830032050000000   EDWAQUIEdwards Aquifer Authority Director, District 7          OVER VOTES                                                                                   01 
01830032061000000   EDWAQUIEdwards Aquifer Authority Director, District 7          OVER VOTES                                                                                   01 
01830032068000001   EDWAQUIEdwards Aquifer Authority Director, District 7          OVER VOTES                                                                                   01 
01830032069000000   EDWAQUIEdwards Aquifer Authority Director, District 7          OVER VOTES                                                                                   01 
01830032074000000   EDWAQUIEdwards Aquifer Authority Director, District 7          OVER VOTES                                                                                   01 
01830032077000000   EDWAQUIEdwards Aquifer Authority Director, District 7          OVER VOTES                                                                                   01 
01830032078000000   EDWAQUIEdwards Aquifer Authority Director, District 7          OVER VOTES                                                                                   01 
01830032083000000   EDWAQUIEdwards Aquifer Authority Director, District 7          OVER VOTES                                                                                   01 
01830032087000000   EDWAQUIEdwards Aquifer Authority Director, District 7          OVER VOTES                                                                                   01 
01830032088000000   EDWAQUIEdwards Aquifer Authority Director, District 7          OVER VOTES                                                                                   01 
01830032089000000   EDWAQUIEdwards Aquifer Authority Director, District 7          OVER VOTES                                                                                   01 
01830032090000000   EDWAQUIEdwards Aquifer Authority Director, District 7          OVER VOTES                                                                                   01 
01830032097000000   EDWAQUIEdwards Aquifer Authority Director, District 7          OVER VOTES                                                                                   01 
01830032098000000   EDWAQUIEdwards Aquifer Authority Director, District 7          OVER VOTES                                                                                   01 
01830032102000000   EDWAQUIEdwards Aquifer Authority Director, District 7          OVER VOTES                                                                                   01 
01830032106000000   EDWAQUIEdwards Aquifer Authority Director, District 7          OVER VOTES                                                                                   01 
01830032112000000   EDWAQUIEdwards Aquifer Authority Director, District 7          OVER VOTES                                                                                   01 
01830032126000000   EDWAQUIEdwards Aquifer Authority Director, District 7          OVER VOTES                                                                                   01 
01830032128000000   EDWAQUIEdwards Aquifer Authority Director, District 7          OVER VOTES                                                                                   01 
01830032140000000   EDWAQUIEdwards Aquifer Authority Director, District 7          OVER VOTES                                                                                   01 
01830032143000000   EDWAQUIEdwards Aquifer Authority Director, District 7          OVER VOTES                                                                                   01 
01830032145000000   EDWAQUIEdwards Aquifer Authority Director, District 7          OVER VOTES                                                                                   01 
01830032151000000   EDWAQUIEdwards Aquifer Authority Director, District 7          OVER VOTES                                                                                   01 
01830032157000000   EDWAQUIEdwards Aquifer Authority Director, District 7          OVER VOTES                                                                                   01 
01830033139000000   EDWAQUIEdwards Aquifer Authority Director, District 7          OVER VOTES                                                                                   01 
01830041002000202   EDWAQUIEdwards Aquifer Authority Director, District 7          UNDER VOTES                                                                                  01 
01830041009000384   EDWAQUIEdwards Aquifer Authority Director, District 7          UNDER VOTES                                                                                  01 
01830041024000732   EDWAQUIEdwards Aquifer Authority Director, District 7          UNDER VOTES                                                                                  01 
01830041027000070   EDWAQUIEdwards Aquifer Authority Director, District 7          UNDER VOTES                                                                                  01 
01830041032000459   EDWAQUIEdwards Aquifer Authority Director, District 7          UNDER VOTES                                                                                  01 
01830041055000525   EDWAQUIEdwards Aquifer Authority Director, District 7          UNDER VOTES                                                                                  01 
01830041072000455   EDWAQUIEdwards Aquifer Authority Director, District 7          UNDER VOTES                                                                                  01 
01830041076000711   EDWAQUIEdwards Aquifer Authority Director, District 7          UNDER VOTES                                                                                  01 
01830041079001185   EDWAQUIEdwards Aquifer Authority Director, District 7          UNDER VOTES                                                                                  01 
01830041080000927   EDWAQUIEdwards Aquifer Authority Director, District 7          UNDER VOTES                                                                                  01 
01830041083000766   EDWAQUIEdwards Aquifer Authority Director, District 7          UNDER VOTES                                                                                  01 
01830041088000194   EDWAQUIEdwards Aquifer Authority Director, District 7          UNDER VOTES                                                                                  01 
01830041093000233   EDWAQUIEdwards Aquifer Authority Director, District 7          UNDER VOTES                                                                                  01 
01830041099001266   EDWAQUIEdwards Aquifer Authority Director, District 7          UNDER VOTES                                                                                  01 
01830041100000667   EDWAQUIEdwards Aquifer Authority Director, District 7          UNDER VOTES                                                                                  01 
01830041104000855   EDWAQUIEdwards Aquifer Authority Director, District 7          UNDER VOTES                                                                                  01 
01830041109000001   EDWAQUIEdwards Aquifer Authority Director, District 7          UNDER VOTES                                                                                  01 
01830041111001270   EDWAQUIEdwards Aquifer Authority Director, District 7          UNDER VOTES                                                                                  01 
01830041113000762   EDWAQUIEdwards Aquifer Authority Director, District 7          UNDER VOTES                                                                                  01 
01830041138000109   EDWAQUIEdwards Aquifer Authority Director, District 7          UNDER VOTES                                                                                  01 
01830041139000217   EDWAQUIEdwards Aquifer Authority Director, District 7          UNDER VOTES                                                                                  01 
01830042006000003   EDWAQUIEdwards Aquifer Authority Director, District 7          UNDER VOTES                                                                                  01 
01830042011000335   EDWAQUIEdwards Aquifer Authority Director, District 7          UNDER VOTES                                                                                  01 
01830042012000255   EDWAQUIEdwards Aquifer Authority Director, District 7          UNDER VOTES                                                                                  01 
01830042013000232   EDWAQUIEdwards Aquifer Authority Director, District 7          UNDER VOTES                                                                                  01 
01830042014000253   EDWAQUIEdwards Aquifer Authority Director, District 7          UNDER VOTES                                                                                  01 
01830042015000312   EDWAQUIEdwards Aquifer Authority Director, District 7          UNDER VOTES                                                                                  01 
01830042016000203   EDWAQUIEdwards Aquifer Authority Director, District 7          UNDER VOTES                                                                                  01 
01830042017000173   EDWAQUIEdwards Aquifer Authority Director, District 7          UNDER VOTES                                                                                  01 
01830042019000274   EDWAQUIEdwards Aquifer Authority Director, District 7          UNDER VOTES                                                                                  01 
01830042020000442   EDWAQUIEdwards Aquifer Authority Director, District 7          UNDER VOTES                                                                                  01 
01830042021000504   EDWAQUIEdwards Aquifer Authority Director, District 7          UNDER VOTES                                                                                  01 
01830042022000246   EDWAQUIEdwards Aquifer Authority Director, District 7          UNDER VOTES                                                                                  01 
01830042023000611   EDWAQUIEdwards Aquifer Authority Director, District 7          UNDER VOTES                                                                                  01 
01830042024000334   EDWAQUIEdwards Aquifer Authority Director, District 7          UNDER VOTES                                                                                  01 
01830042025000517   EDWAQUIEdwards Aquifer Authority Director, District 7          UNDER VOTES                                                                                  01 
01830042040000539   EDWAQUIEdwards Aquifer Authority Director, District 7          UNDER VOTES                                                                                  01 
01830042041000630   EDWAQUIEdwards Aquifer Authority Director, District 7          UNDER VOTES                                                                                  01 
01830042042000318   EDWAQUIEdwards Aquifer Authority Director, District 7          UNDER VOTES                                                                                  01 
01830042043000332   EDWAQUIEdwards Aquifer Authority Director, District 7          UNDER VOTES                                                                                  01 
01830042045000496   EDWAQUIEdwards Aquifer Authority Director, District 7          UNDER VOTES                                                                                  01 
01830042046000498   EDWAQUIEdwards Aquifer Authority Director, District 7          UNDER VOTES                                                                                  01 
01830042047000420   EDWAQUIEdwards Aquifer Authority Director, District 7          UNDER VOTES                                                                                  01 
01830042049000555   EDWAQUIEdwards Aquifer Authority Director, District 7          UNDER VOTES                                                                                  01 
01830042050000390   EDWAQUIEdwards Aquifer Authority Director, District 7          UNDER VOTES                                                                                  01 
01830042061000270   EDWAQUIEdwards Aquifer Authority Director, District 7          UNDER VOTES                                                                                  01 
01830042068001093   EDWAQUIEdwards Aquifer Authority Director, District 7          UNDER VOTES                                                                                  01 
01830042069000669   EDWAQUIEdwards Aquifer Authority Director, District 7          UNDER VOTES                                                                                  01 
01830042074000167   EDWAQUIEdwards Aquifer Authority Director, District 7          UNDER VOTES                                                                                  01 
01830042077000650   EDWAQUIEdwards Aquifer Authority Director, District 7          UNDER VOTES                                                                                  01 
01830042078000523   EDWAQUIEdwards Aquifer Authority Director, District 7          UNDER VOTES                                                                                  01 
01830042083000161   EDWAQUIEdwards Aquifer Authority Director, District 7          UNDER VOTES                                                                                  01 
01830042087000543   EDWAQUIEdwards Aquifer Authority Director, District 7          UNDER VOTES                                                                                  01 
01830042088000911   EDWAQUIEdwards Aquifer Authority Director, District 7          UNDER VOTES                                                                                  01 
01830042089000081   EDWAQUIEdwards Aquifer Authority Director, District 7          UNDER VOTES                                                                                  01 
01830042090000437   EDWAQUIEdwards Aquifer Authority Director, District 7          UNDER VOTES                                                                                  01 
01830042097000547   EDWAQUIEdwards Aquifer Authority Director, District 7          UNDER VOTES                                                                                  01 
01830042098000253   EDWAQUIEdwards Aquifer Authority Director, District 7          UNDER VOTES                                                                                  01 
01830042102000669   EDWAQUIEdwards Aquifer Authority Director, District 7          UNDER VOTES                                                                                  01 
01830042106000103   EDWAQUIEdwards Aquifer Authority Director, District 7          UNDER VOTES                                                                                  01 
01830042112000484   EDWAQUIEdwards Aquifer Authority Director, District 7          UNDER VOTES                                                                                  01 
01830042126000316   EDWAQUIEdwards Aquifer Authority Director, District 7          UNDER VOTES                                                                                  01 
01830042128000359   EDWAQUIEdwards Aquifer Authority Director, District 7          UNDER VOTES                                                                                  01 
01830042140000331   EDWAQUIEdwards Aquifer Authority Director, District 7          UNDER VOTES                                                                                  01 
01830042143000512   EDWAQUIEdwards Aquifer Authority Director, District 7          UNDER VOTES                                                                                  01 
01830042145000103   EDWAQUIEdwards Aquifer Authority Director, District 7          UNDER VOTES                                                                                  01 
01830042151000005   EDWAQUIEdwards Aquifer Authority Director, District 7          UNDER VOTES                                                                                  01 
01830042157000000   EDWAQUIEdwards Aquifer Authority Director, District 7          UNDER VOTES                                                                                  01 
01830043139000385   EDWAQUIEdwards Aquifer Authority Director, District 7          UNDER VOTES                                                                                  01 
