03100010014000000NONCTYENNIEnnis City - Prop A                                     For                                   PRECINCT 114                                           01Y
03100010020000023NONCTYENNIEnnis City - Prop A                                     For                                   PRECINCT 120                                           01Y
03100010021000805NONCTYENNIEnnis City - Prop A                                     For                                   PRECINCT 121                                           01Y
03100010022000522NONCTYENNIEnnis City - Prop A                                     For                                   PRECINCT 122                                           01Y
03100010023000200NONCTYENNIEnnis City - Prop A                                     For                                   PRECINCT 123                                           01Y
03100010024000359NONCTYENNIEnnis City - Prop A                                     For                                   PRECINCT 124                                           01Y
03100010025000422NONCTYENNIEnnis City - Prop A                                     For                                   PRECINCT 125                                           01Y
03100010026000367NONCTYENNIEnnis City - Prop A                                     For                                   PRECINCT 126                                           01Y
03100010027000114NONCTYENNIEnnis City - Prop A                                     For                                   PRECINCT 127                                           01Y
03100010028000054NONCTYENNIEnnis City - Prop A                                     For                                   PRECINCT 128                                           01Y
03100010029000014NONCTYENNIEnnis City - Prop A                                     For                                   PRECINCT 129                                           01Y
03100010036000003NONCTYENNIEnnis City - Prop A                                     For                                   PRECINCT 136                                           01Y
03100010038000000NONCTYENNIEnnis City - Prop A                                     For                                   PRECINCT 138                                           01Y
03100020014000000NONCTYENNIEnnis City - Prop A                                     Against                               PRECINCT 114                                           01Y
03100020020000003NONCTYENNIEnnis City - Prop A                                     Against                               PRECINCT 120                                           01Y
03100020021000206NONCTYENNIEnnis City - Prop A                                     Against                               PRECINCT 121                                           01Y
03100020022000119NONCTYENNIEnnis City - Prop A                                     Against                               PRECINCT 122                                           01Y
03100020023000071NONCTYENNIEnnis City - Prop A                                     Against                               PRECINCT 123                                           01Y
03100020024000110NONCTYENNIEnnis City - Prop A                                     Against                               PRECINCT 124                                           01Y
03100020025000161NONCTYENNIEnnis City - Prop A                                     Against                               PRECINCT 125                                           01Y
03100020026000088NONCTYENNIEnnis City - Prop A                                     Against                               PRECINCT 126                                           01Y
03100020027000029NONCTYENNIEnnis City - Prop A                                     Against                               PRECINCT 127                                           01Y
03100020028000013NONCTYENNIEnnis City - Prop A                                     Against                               PRECINCT 128                                           01Y
03100020029000010NONCTYENNIEnnis City - Prop A                                     Against                               PRECINCT 129                                           01Y
03100020036000003NONCTYENNIEnnis City - Prop A                                     Against                               PRECINCT 136                                           01Y
03100020038000002NONCTYENNIEnnis City - Prop A                                     Against                               PRECINCT 138                                           01Y
