01010010001000000          REGISTERED VOTERS - TOTAL                               REGISTERED VOTERS - TOTAL             Precinct 101                                           00 
01010010002000000          REGISTERED VOTERS - TOTAL                               REGISTERED VOTERS - TOTAL             Precinct 102                                           00 
01010010003000000          REGISTERED VOTERS - TOTAL                               REGISTERED VOTERS - TOTAL             Precinct 201                                           00 
01010010004000000          REGISTERED VOTERS - TOTAL                               REGISTERED VOTERS - TOTAL             Precinct 202                                           00 
01010010005000000          REGISTERED VOTERS - TOTAL                               REGISTERED VOTERS - TOTAL             Precinct 301                                           00 
01010010006000000          REGISTERED VOTERS - TOTAL                               REGISTERED VOTERS - TOTAL             Precinct 401                                           00 
01020010001000179          BALLOTS CAST - TOTAL                                    BALLOTS CAST - TOTAL                  Precinct 101                                           00 
01020010002000105          BALLOTS CAST - TOTAL                                    BALLOTS CAST - TOTAL                  Precinct 102                                           00 
01020010003000148          BALLOTS CAST - TOTAL                                    BALLOTS CAST - TOTAL                  Precinct 201                                           00 
01020010004000304          BALLOTS CAST - TOTAL                                    BALLOTS CAST - TOTAL                  Precinct 202                                           00 
01020010005000483          BALLOTS CAST - TOTAL                                    BALLOTS CAST - TOTAL                  Precinct 301                                           00 
01020010006000392          BALLOTS CAST - TOTAL                                    BALLOTS CAST - TOTAL                  Precinct 401                                           00 
01030010001000103REP       Straight Party                                          Republican Party                      Precinct 101                                           01 
01030010002000065REP       Straight Party                                          Republican Party                      Precinct 102                                           01 
01030010003000092REP       Straight Party                                          Republican Party                      Precinct 201                                           01 
01030010004000183REP       Straight Party                                          Republican Party                      Precinct 202                                           01 
01030010005000263REP       Straight Party                                          Republican Party                      Precinct 301                                           01 
01030010006000225REP       Straight Party                                          Republican Party                      Precinct 401                                           01 
01030020001000011DEM       Straight Party                                          Democratic Party                      Precinct 101                                           01 
01030020002000001DEM       Straight Party                                          Democratic Party                      Precinct 102                                           01 
01030020003000007DEM       Straight Party                                          Democratic Party                      Precinct 201                                           01 
01030020004000010DEM       Straight Party                                          Democratic Party                      Precinct 202                                           01 
01030020005000015DEM       Straight Party                                          Democratic Party                      Precinct 301                                           01 
01030020006000016DEM       Straight Party                                          Democratic Party                      Precinct 401                                           01 
01030030001000000LIB       Straight Party                                          Libertarian Party                     Precinct 101                                           01 
01030030002000001LIB       Straight Party                                          Libertarian Party                     Precinct 102                                           01 
01030030003000000LIB       Straight Party                                          Libertarian Party                     Precinct 201                                           01 
01030030004000001LIB       Straight Party                                          Libertarian Party                     Precinct 202                                           01 
01030030005000000LIB       Straight Party                                          Libertarian Party                     Precinct 301                                           01 
01030030006000001LIB       Straight Party                                          Libertarian Party                     Precinct 401                                           01 
01040010001000159REP       United States Senator                                   Ted Cruz                              Precinct 101                                           01 
01040010002000100REP       United States Senator                                   Ted Cruz                              Precinct 102                                           01 
01040010003000135REP       United States Senator                                   Ted Cruz                              Precinct 201                                           01 
01040010004000279REP       United States Senator                                   Ted Cruz                              Precinct 202                                           01 
01040010005000437REP       United States Senator                                   Ted Cruz                              Precinct 301                                           01 
01040010006000341REP       United States Senator                                   Ted Cruz                              Precinct 401                                           01 
01040020001000019DEM       United States Senator                                   Beto O'Rourke                         Precinct 101                                           01 
01040020002000005DEM       United States Senator                                   Beto O'Rourke                         Precinct 102                                           01 
01040020003000012DEM       United States Senator                                   Beto O'Rourke                         Precinct 201                                           01 
01040020004000025DEM       United States Senator                                   Beto O'Rourke                         Precinct 202                                           01 
01040020005000045DEM       United States Senator                                   Beto O'Rourke                         Precinct 301                                           01 
01040020006000045DEM       United States Senator                                   Beto O'Rourke                         Precinct 401                                           01 
01040030001000000LIB       United States Senator                                   Neal M. Dikeman                       Precinct 101                                           01 
01040030002000000LIB       United States Senator                                   Neal M. Dikeman                       Precinct 102                                           01 
01040030003000000LIB       United States Senator                                   Neal M. Dikeman                       Precinct 201                                           01 
01040030004000000LIB       United States Senator                                   Neal M. Dikeman                       Precinct 202                                           01 
01040030005000000LIB       United States Senator                                   Neal M. Dikeman                       Precinct 301                                           01 
01040030006000004LIB       United States Senator                                   Neal M. Dikeman                       Precinct 401                                           01 
01050010001000158REP       US Representative, District 13                          Mac Thornberry                        Precinct 101                                           01 
01050010002000098REP       US Representative, District 13                          Mac Thornberry                        Precinct 102                                           01 
01050010003000136REP       US Representative, District 13                          Mac Thornberry                        Precinct 201                                           01 
01050010004000285REP       US Representative, District 13                          Mac Thornberry                        Precinct 202                                           01 
01050010005000445REP       US Representative, District 13                          Mac Thornberry                        Precinct 301                                           01 
01050010006000344REP       US Representative, District 13                          Mac Thornberry                        Precinct 401                                           01 
01050020001000018DEM       US Representative, District 13                          Greg Sagan                            Precinct 101                                           01 
01050020002000004DEM       US Representative, District 13                          Greg Sagan                            Precinct 102                                           01 
01050020003000010DEM       US Representative, District 13                          Greg Sagan                            Precinct 201                                           01 
01050020004000018DEM       US Representative, District 13                          Greg Sagan                            Precinct 202                                           01 
01050020005000030DEM       US Representative, District 13                          Greg Sagan                            Precinct 301                                           01 
01050020006000042DEM       US Representative, District 13                          Greg Sagan                            Precinct 401                                           01 
01050030001000002LIB       US Representative, District 13                          Calvin DeWeese                        Precinct 101                                           01 
01050030002000003LIB       US Representative, District 13                          Calvin DeWeese                        Precinct 102                                           01 
01050030003000001LIB       US Representative, District 13                          Calvin DeWeese                        Precinct 201                                           01 
01050030004000001LIB       US Representative, District 13                          Calvin DeWeese                        Precinct 202                                           01 
01050030005000003LIB       US Representative, District 13                          Calvin DeWeese                        Precinct 301                                           01 
01050030006000004LIB       US Representative, District 13                          Calvin DeWeese                        Precinct 401                                           01 
01060010001000160REP       Governor                                                Greg Abbott                           Precinct 101                                           01 
01060010002000101REP       Governor                                                Greg Abbott                           Precinct 102                                           01 
01060010003000135REP       Governor                                                Greg Abbott                           Precinct 201                                           01 
01060010004000285REP       Governor                                                Greg Abbott                           Precinct 202                                           01 
01060010005000443REP       Governor                                                Greg Abbott                           Precinct 301                                           01 
01060010006000350REP       Governor                                                Greg Abbott                           Precinct 401                                           01 
01060020001000019DEM       Governor                                                Lupe Valdez                           Precinct 101                                           01 
01060020002000004DEM       Governor                                                Lupe Valdez                           Precinct 102                                           01 
01060020003000011DEM       Governor                                                Lupe Valdez                           Precinct 201                                           01 
01060020004000016DEM       Governor                                                Lupe Valdez                           Precinct 202                                           01 
01060020005000037DEM       Governor                                                Lupe Valdez                           Precinct 301                                           01 
01060020006000037DEM       Governor                                                Lupe Valdez                           Precinct 401                                           01 
01060030001000000LIB       Governor                                                Mark Jay Tippetts                     Precinct 101                                           01 
01060030002000000LIB       Governor                                                Mark Jay Tippetts                     Precinct 102                                           01 
01060030003000002LIB       Governor                                                Mark Jay Tippetts                     Precinct 201                                           01 
01060030004000002LIB       Governor                                                Mark Jay Tippetts                     Precinct 202                                           01 
01060030005000001LIB       Governor                                                Mark Jay Tippetts                     Precinct 301                                           01 
01060030006000002LIB       Governor                                                Mark Jay Tippetts                     Precinct 401                                           01 
01070010001000154REP       Lieutenant Governor                                     Dan Patrick                           Precinct 101                                           01 
01070010002000097REP       Lieutenant Governor                                     Dan Patrick                           Precinct 102                                           01 
01070010003000111REP       Lieutenant Governor                                     Dan Patrick                           Precinct 201                                           01 
01070010004000271REP       Lieutenant Governor                                     Dan Patrick                           Precinct 202                                           01 
01070010005000418REP       Lieutenant Governor                                     Dan Patrick                           Precinct 301                                           01 
01070010006000330REP       Lieutenant Governor                                     Dan Patrick                           Precinct 401                                           01 
01070020001000021DEM       Lieutenant Governor                                     Mike Collier                          Precinct 101                                           01 
01070020002000005DEM       Lieutenant Governor                                     Mike Collier                          Precinct 102                                           01 
01070020003000029DEM       Lieutenant Governor                                     Mike Collier                          Precinct 201                                           01 
01070020004000028DEM       Lieutenant Governor                                     Mike Collier                          Precinct 202                                           01 
01070020005000057DEM       Lieutenant Governor                                     Mike Collier                          Precinct 301                                           01 
01070020006000050DEM       Lieutenant Governor                                     Mike Collier                          Precinct 401                                           01 
01070030001000001LIB       Lieutenant Governor                                     Kerry Douglas McKennon                Precinct 101                                           01 
01070030002000001LIB       Lieutenant Governor                                     Kerry Douglas McKennon                Precinct 102                                           01 
01070030003000007LIB       Lieutenant Governor                                     Kerry Douglas McKennon                Precinct 201                                           01 
01070030004000002LIB       Lieutenant Governor                                     Kerry Douglas McKennon                Precinct 202                                           01 
01070030005000004LIB       Lieutenant Governor                                     Kerry Douglas McKennon                Precinct 301                                           01 
01070030006000009LIB       Lieutenant Governor                                     Kerry Douglas McKennon                Precinct 401                                           01 
01080010001000159REP       Attorney General                                        Ken Paxton                            Precinct 101                                           01 
01080010002000098REP       Attorney General                                        Ken Paxton                            Precinct 102                                           01 
01080010003000126REP       Attorney General                                        Ken Paxton                            Precinct 201                                           01 
01080010004000272REP       Attorney General                                        Ken Paxton                            Precinct 202                                           01 
01080010005000427REP       Attorney General                                        Ken Paxton                            Precinct 301                                           01 
01080010006000329REP       Attorney General                                        Ken Paxton                            Precinct 401                                           01 
01080020001000019DEM       Attorney General                                        Justin Nelson                         Precinct 101                                           01 
01080020002000005DEM       Attorney General                                        Justin Nelson                         Precinct 102                                           01 
01080020003000017DEM       Attorney General                                        Justin Nelson                         Precinct 201                                           01 
01080020004000028DEM       Attorney General                                        Justin Nelson                         Precinct 202                                           01 
01080020005000045DEM       Attorney General                                        Justin Nelson                         Precinct 301                                           01 
01080020006000052DEM       Attorney General                                        Justin Nelson                         Precinct 401                                           01 
01080030001000001LIB       Attorney General                                        Michael Ray Harris                    Precinct 101                                           01 
01080030002000001LIB       Attorney General                                        Michael Ray Harris                    Precinct 102                                           01 
01080030003000005LIB       Attorney General                                        Michael Ray Harris                    Precinct 201                                           01 
01080030004000002LIB       Attorney General                                        Michael Ray Harris                    Precinct 202                                           01 
01080030005000004LIB       Attorney General                                        Michael Ray Harris                    Precinct 301                                           01 
01080030006000008LIB       Attorney General                                        Michael Ray Harris                    Precinct 401                                           01 
01090010001000160REP       Comptroller of Public Accounts                          Glenn Hegar                           Precinct 101                                           01 
01090010002000097REP       Comptroller of Public Accounts                          Glenn Hegar                           Precinct 102                                           01 
01090010003000133REP       Comptroller of Public Accounts                          Glenn Hegar                           Precinct 201                                           01 
01090010004000275REP       Comptroller of Public Accounts                          Glenn Hegar                           Precinct 202                                           01 
01090010005000419REP       Comptroller of Public Accounts                          Glenn Hegar                           Precinct 301                                           01 
01090010006000336REP       Comptroller of Public Accounts                          Glenn Hegar                           Precinct 401                                           01 
01090020001000017DEM       Comptroller of Public Accounts                          Joi Chevalier                         Precinct 101                                           01 
01090020002000004DEM       Comptroller of Public Accounts                          Joi Chevalier                         Precinct 102                                           01 
01090020003000011DEM       Comptroller of Public Accounts                          Joi Chevalier                         Precinct 201                                           01 
01090020004000020DEM       Comptroller of Public Accounts                          Joi Chevalier                         Precinct 202                                           01 
01090020005000034DEM       Comptroller of Public Accounts                          Joi Chevalier                         Precinct 301                                           01 
01090020006000042DEM       Comptroller of Public Accounts                          Joi Chevalier                         Precinct 401                                           01 
01090030001000002LIB       Comptroller of Public Accounts                          Ben Sanders                           Precinct 101                                           01 
01090030002000003LIB       Comptroller of Public Accounts                          Ben Sanders                           Precinct 102                                           01 
01090030003000003LIB       Comptroller of Public Accounts                          Ben Sanders                           Precinct 201                                           01 
01090030004000003LIB       Comptroller of Public Accounts                          Ben Sanders                           Precinct 202                                           01 
01090030005000014LIB       Comptroller of Public Accounts                          Ben Sanders                           Precinct 301                                           01 
01090030006000007LIB       Comptroller of Public Accounts                          Ben Sanders                           Precinct 401                                           01 
01100010001000156REP       Commissioner of the General Land Office                 George P. Bush                        Precinct 101                                           01 
01100010002000094REP       Commissioner of the General Land Office                 George P. Bush                        Precinct 102                                           01 
01100010003000133REP       Commissioner of the General Land Office                 George P. Bush                        Precinct 201                                           01 
01100010004000278REP       Commissioner of the General Land Office                 George P. Bush                        Precinct 202                                           01 
01100010005000427REP       Commissioner of the General Land Office                 George P. Bush                        Precinct 301                                           01 
01100010006000335REP       Commissioner of the General Land Office                 George P. Bush                        Precinct 401                                           01 
01100020001000017DEM       Commissioner of the General Land Office                 Miguel Suazo                          Precinct 101                                           01 
01100020002000004DEM       Commissioner of the General Land Office                 Miguel Suazo                          Precinct 102                                           01 
01100020003000011DEM       Commissioner of the General Land Office                 Miguel Suazo                          Precinct 201                                           01 
01100020004000017DEM       Commissioner of the General Land Office                 Miguel Suazo                          Precinct 202                                           01 
01100020005000034DEM       Commissioner of the General Land Office                 Miguel Suazo                          Precinct 301                                           01 
01100020006000044DEM       Commissioner of the General Land Office                 Miguel Suazo                          Precinct 401                                           01 
01100030001000005LIB       Commissioner of the General Land Office                 Matt Pina                             Precinct 101                                           01 
01100030002000004LIB       Commissioner of the General Land Office                 Matt Pina                             Precinct 102                                           01 
01100030003000004LIB       Commissioner of the General Land Office                 Matt Pina                             Precinct 201                                           01 
01100030004000003LIB       Commissioner of the General Land Office                 Matt Pina                             Precinct 202                                           01 
01100030005000011LIB       Commissioner of the General Land Office                 Matt Pina                             Precinct 301                                           01 
01100030006000006LIB       Commissioner of the General Land Office                 Matt Pina                             Precinct 401                                           01 
01110010001000160REP       Commissioner of Agriculture                             Sid Miller                            Precinct 101                                           01 
01110010002000099REP       Commissioner of Agriculture                             Sid Miller                            Precinct 102                                           01 
01110010003000135REP       Commissioner of Agriculture                             Sid Miller                            Precinct 201                                           01 
01110010004000271REP       Commissioner of Agriculture                             Sid Miller                            Precinct 202                                           01 
01110010005000421REP       Commissioner of Agriculture                             Sid Miller                            Precinct 301                                           01 
01110010006000331REP       Commissioner of Agriculture                             Sid Miller                            Precinct 401                                           01 
01110020001000017DEM       Commissioner of Agriculture                             Kim Olson                             Precinct 101                                           01 
01110020002000004DEM       Commissioner of Agriculture                             Kim Olson                             Precinct 102                                           01 
01110020003000012DEM       Commissioner of Agriculture                             Kim Olson                             Precinct 201                                           01 
01110020004000025DEM       Commissioner of Agriculture                             Kim Olson                             Precinct 202                                           01 
01110020005000040DEM       Commissioner of Agriculture                             Kim Olson                             Precinct 301                                           01 
01110020006000050DEM       Commissioner of Agriculture                             Kim Olson                             Precinct 401                                           01 
01110030001000001LIB       Commissioner of Agriculture                             Richard Carpenter                     Precinct 101                                           01 
01110030002000001LIB       Commissioner of Agriculture                             Richard Carpenter                     Precinct 102                                           01 
01110030003000000LIB       Commissioner of Agriculture                             Richard Carpenter                     Precinct 201                                           01 
01110030004000002LIB       Commissioner of Agriculture                             Richard Carpenter                     Precinct 202                                           01 
01110030005000005LIB       Commissioner of Agriculture                             Richard Carpenter                     Precinct 301                                           01 
01110030006000004LIB       Commissioner of Agriculture                             Richard Carpenter                     Precinct 401                                           01 
01120010001000162REP       Railroad Commissioner                                   Christi Craddick                      Precinct 101                                           01 
01120010002000095REP       Railroad Commissioner                                   Christi Craddick                      Precinct 102                                           01 
01120010003000136REP       Railroad Commissioner                                   Christi Craddick                      Precinct 201                                           01 
01120010004000273REP       Railroad Commissioner                                   Christi Craddick                      Precinct 202                                           01 
01120010005000425REP       Railroad Commissioner                                   Christi Craddick                      Precinct 301                                           01 
01120010006000336REP       Railroad Commissioner                                   Christi Craddick                      Precinct 401                                           01 
01120020001000015DEM       Railroad Commissioner                                   Roman McAllen                         Precinct 101                                           01 
01120020002000005DEM       Railroad Commissioner                                   Roman McAllen                         Precinct 102                                           01 
01120020003000009DEM       Railroad Commissioner                                   Roman McAllen                         Precinct 201                                           01 
01120020004000023DEM       Railroad Commissioner                                   Roman McAllen                         Precinct 202                                           01 
01120020005000031DEM       Railroad Commissioner                                   Roman McAllen                         Precinct 301                                           01 
01120020006000041DEM       Railroad Commissioner                                   Roman McAllen                         Precinct 401                                           01 
01120030001000002LIB       Railroad Commissioner                                   Mike Wright                           Precinct 101                                           01 
01120030002000004LIB       Railroad Commissioner                                   Mike Wright                           Precinct 102                                           01 
01120030003000002LIB       Railroad Commissioner                                   Mike Wright                           Precinct 201                                           01 
01120030004000003LIB       Railroad Commissioner                                   Mike Wright                           Precinct 202                                           01 
01120030005000011LIB       Railroad Commissioner                                   Mike Wright                           Precinct 301                                           01 
01120030006000008LIB       Railroad Commissioner                                   Mike Wright                           Precinct 401                                           01 
01130010001000160REP       Justice, Supreme Court, Place 2                         Jimmy Blacklock                       Precinct 101                                           01 
01130010002000098REP       Justice, Supreme Court, Place 2                         Jimmy Blacklock                       Precinct 102                                           01 
01130010003000135REP       Justice, Supreme Court, Place 2                         Jimmy Blacklock                       Precinct 201                                           01 
01130010004000273REP       Justice, Supreme Court, Place 2                         Jimmy Blacklock                       Precinct 202                                           01 
01130010005000427REP       Justice, Supreme Court, Place 2                         Jimmy Blacklock                       Precinct 301                                           01 
01130010006000332REP       Justice, Supreme Court, Place 2                         Jimmy Blacklock                       Precinct 401                                           01 
01130020001000019DEM       Justice, Supreme Court, Place 2                         Steven Kirkland                       Precinct 101                                           01 
01130020002000006DEM       Justice, Supreme Court, Place 2                         Steven Kirkland                       Precinct 102                                           01 
01130020003000012DEM       Justice, Supreme Court, Place 2                         Steven Kirkland                       Precinct 201                                           01 
01130020004000025DEM       Justice, Supreme Court, Place 2                         Steven Kirkland                       Precinct 202                                           01 
01130020005000036DEM       Justice, Supreme Court, Place 2                         Steven Kirkland                       Precinct 301                                           01 
01130020006000050DEM       Justice, Supreme Court, Place 2                         Steven Kirkland                       Precinct 401                                           01 
01140010001000160REP       Justice, Supreme Court, Place 4                         John Devine                           Precinct 101                                           01 
01140010002000097REP       Justice, Supreme Court, Place 4                         John Devine                           Precinct 102                                           01 
01140010003000135REP       Justice, Supreme Court, Place 4                         John Devine                           Precinct 201                                           01 
01140010004000273REP       Justice, Supreme Court, Place 4                         John Devine                           Precinct 202                                           01 
01140010005000427REP       Justice, Supreme Court, Place 4                         John Devine                           Precinct 301                                           01 
01140010006000339REP       Justice, Supreme Court, Place 4                         John Devine                           Precinct 401                                           01 
01140020001000019DEM       Justice, Supreme Court, Place 4                         R.K. Sandill                          Precinct 101                                           01 
01140020002000006DEM       Justice, Supreme Court, Place 4                         R.K. Sandill                          Precinct 102                                           01 
01140020003000011DEM       Justice, Supreme Court, Place 4                         R.K. Sandill                          Precinct 201                                           01 
01140020004000023DEM       Justice, Supreme Court, Place 4                         R.K. Sandill                          Precinct 202                                           01 
01140020005000035DEM       Justice, Supreme Court, Place 4                         R.K. Sandill                          Precinct 301                                           01 
01140020006000043DEM       Justice, Supreme Court, Place 4                         R.K. Sandill                          Precinct 401                                           01 
01150010001000161REP       Justice, Supreme Court, Place 6                         Jeff Brown                            Precinct 101                                           01 
01150010002000097REP       Justice, Supreme Court, Place 6                         Jeff Brown                            Precinct 102                                           01 
01150010003000134REP       Justice, Supreme Court, Place 6                         Jeff Brown                            Precinct 201                                           01 
01150010004000274REP       Justice, Supreme Court, Place 6                         Jeff Brown                            Precinct 202                                           01 
01150010005000429REP       Justice, Supreme Court, Place 6                         Jeff Brown                            Precinct 301                                           01 
01150010006000333REP       Justice, Supreme Court, Place 6                         Jeff Brown                            Precinct 401                                           01 
01150020001000017DEM       Justice, Supreme Court, Place 6                         Kathy Cheng                           Precinct 101                                           01 
01150020002000006DEM       Justice, Supreme Court, Place 6                         Kathy Cheng                           Precinct 102                                           01 
01150020003000013DEM       Justice, Supreme Court, Place 6                         Kathy Cheng                           Precinct 201                                           01 
01150020004000021DEM       Justice, Supreme Court, Place 6                         Kathy Cheng                           Precinct 202                                           01 
01150020005000038DEM       Justice, Supreme Court, Place 6                         Kathy Cheng                           Precinct 301                                           01 
01150020006000046DEM       Justice, Supreme Court, Place 6                         Kathy Cheng                           Precinct 401                                           01 
01160010001000160REP       Presiding Judge, Crt of Criminal Appeals                Sharon Keller                         Precinct 101                                           01 
01160010002000097REP       Presiding Judge, Crt of Criminal Appeals                Sharon Keller                         Precinct 102                                           01 
01160010003000135REP       Presiding Judge, Crt of Criminal Appeals                Sharon Keller                         Precinct 201                                           01 
01160010004000274REP       Presiding Judge, Crt of Criminal Appeals                Sharon Keller                         Precinct 202                                           01 
01160010005000426REP       Presiding Judge, Crt of Criminal Appeals                Sharon Keller                         Precinct 301                                           01 
01160010006000332REP       Presiding Judge, Crt of Criminal Appeals                Sharon Keller                         Precinct 401                                           01 
01160020001000018DEM       Presiding Judge, Crt of Criminal Appeals                Maria T. (Terri) Jackson              Precinct 101                                           01 
01160020002000005DEM       Presiding Judge, Crt of Criminal Appeals                Maria T. (Terri) Jackson              Precinct 102                                           01 
01160020003000010DEM       Presiding Judge, Crt of Criminal Appeals                Maria T. (Terri) Jackson              Precinct 201                                           01 
01160020004000020DEM       Presiding Judge, Crt of Criminal Appeals                Maria T. (Terri) Jackson              Precinct 202                                           01 
01160020005000034DEM       Presiding Judge, Crt of Criminal Appeals                Maria T. (Terri) Jackson              Precinct 301                                           01 
01160020006000043DEM       Presiding Judge, Crt of Criminal Appeals                Maria T. (Terri) Jackson              Precinct 401                                           01 
01160030001000001LIB       Presiding Judge, Crt of Criminal Appeals                William Bryan Strange III             Precinct 101                                           01 
01160030002000002LIB       Presiding Judge, Crt of Criminal Appeals                William Bryan Strange III             Precinct 102                                           01 
01160030003000001LIB       Presiding Judge, Crt of Criminal Appeals                William Bryan Strange III             Precinct 201                                           01 
01160030004000003LIB       Presiding Judge, Crt of Criminal Appeals                William Bryan Strange III             Precinct 202                                           01 
01160030005000006LIB       Presiding Judge, Crt of Criminal Appeals                William Bryan Strange III             Precinct 301                                           01 
01160030006000006LIB       Presiding Judge, Crt of Criminal Appeals                William Bryan Strange III             Precinct 401                                           01 
01170010001000162REP       Judge, Court of Criminal Appeals, Pl 7                  Barbara Parker Hervey                 Precinct 101                                           01 
01170010002000099REP       Judge, Court of Criminal Appeals, Pl 7                  Barbara Parker Hervey                 Precinct 102                                           01 
01170010003000136REP       Judge, Court of Criminal Appeals, Pl 7                  Barbara Parker Hervey                 Precinct 201                                           01 
01170010004000276REP       Judge, Court of Criminal Appeals, Pl 7                  Barbara Parker Hervey                 Precinct 202                                           01 
01170010005000435REP       Judge, Court of Criminal Appeals, Pl 7                  Barbara Parker Hervey                 Precinct 301                                           01 
01170010006000337REP       Judge, Court of Criminal Appeals, Pl 7                  Barbara Parker Hervey                 Precinct 401                                           01 
01170020001000017DEM       Judge, Court of Criminal Appeals, Pl 7                  Ramona Franklin                       Precinct 101                                           01 
01170020002000004DEM       Judge, Court of Criminal Appeals, Pl 7                  Ramona Franklin                       Precinct 102                                           01 
01170020003000010DEM       Judge, Court of Criminal Appeals, Pl 7                  Ramona Franklin                       Precinct 201                                           01 
01170020004000022DEM       Judge, Court of Criminal Appeals, Pl 7                  Ramona Franklin                       Precinct 202                                           01 
01170020005000031DEM       Judge, Court of Criminal Appeals, Pl 7                  Ramona Franklin                       Precinct 301                                           01 
01170020006000047DEM       Judge, Court of Criminal Appeals, Pl 7                  Ramona Franklin                       Precinct 401                                           01 
01180010001000163REP       Judge, Court of Criminal Appeals, Pl 8                  Michelle Slaughter                    Precinct 101                                           01 
01180010002000099REP       Judge, Court of Criminal Appeals, Pl 8                  Michelle Slaughter                    Precinct 102                                           01 
01180010003000136REP       Judge, Court of Criminal Appeals, Pl 8                  Michelle Slaughter                    Precinct 201                                           01 
01180010004000279REP       Judge, Court of Criminal Appeals, Pl 8                  Michelle Slaughter                    Precinct 202                                           01 
01180010005000428REP       Judge, Court of Criminal Appeals, Pl 8                  Michelle Slaughter                    Precinct 301                                           01 
01180010006000339REP       Judge, Court of Criminal Appeals, Pl 8                  Michelle Slaughter                    Precinct 401                                           01 
01180020001000008LIB       Judge, Court of Criminal Appeals, Pl 8                  Mark Ash                              Precinct 101                                           01 
01180020002000003LIB       Judge, Court of Criminal Appeals, Pl 8                  Mark Ash                              Precinct 102                                           01 
01180020003000005LIB       Judge, Court of Criminal Appeals, Pl 8                  Mark Ash                              Precinct 201                                           01 
01180020004000012LIB       Judge, Court of Criminal Appeals, Pl 8                  Mark Ash                              Precinct 202                                           01 
01180020005000020LIB       Judge, Court of Criminal Appeals, Pl 8                  Mark Ash                              Precinct 301                                           01 
01180020006000028LIB       Judge, Court of Criminal Appeals, Pl 8                  Mark Ash                              Precinct 401                                           01 
01190010001000158REP       State Senator, District 31                              Kel Seliger                           Precinct 101                                           01 
01190010002000093REP       State Senator, District 31                              Kel Seliger                           Precinct 102                                           01 
01190010003000134REP       State Senator, District 31                              Kel Seliger                           Precinct 201                                           01 
01190010004000286REP       State Senator, District 31                              Kel Seliger                           Precinct 202                                           01 
01190010005000427REP       State Senator, District 31                              Kel Seliger                           Precinct 301                                           01 
01190010006000347REP       State Senator, District 31                              Kel Seliger                           Precinct 401                                           01 
01190020001000012LIB       State Senator, District 31                              Jack B. Westbrook                     Precinct 101                                           01 
01190020002000007LIB       State Senator, District 31                              Jack B. Westbrook                     Precinct 102                                           01 
01190020003000008LIB       State Senator, District 31                              Jack B. Westbrook                     Precinct 201                                           01 
01190020004000010LIB       State Senator, District 31                              Jack B. Westbrook                     Precinct 202                                           01 
01190020005000029LIB       State Senator, District 31                              Jack B. Westbrook                     Precinct 301                                           01 
01190020006000026LIB       State Senator, District 31                              Jack B. Westbrook                     Precinct 401                                           01 
01200010001000159REP       State Representative, District 86                       John Smithee                          Precinct 101                                           01 
01200010002000100REP       State Representative, District 86                       John Smithee                          Precinct 102                                           01 
01200010003000134REP       State Representative, District 86                       John Smithee                          Precinct 201                                           01 
01200010004000278REP       State Representative, District 86                       John Smithee                          Precinct 202                                           01 
01200010005000430REP       State Representative, District 86                       John Smithee                          Precinct 301                                           01 
01200010006000338REP       State Representative, District 86                       John Smithee                          Precinct 401                                           01 
01200020001000016DEM       State Representative, District 86                       Mike Purcell                          Precinct 101                                           01 
01200020002000003DEM       State Representative, District 86                       Mike Purcell                          Precinct 102                                           01 
01200020003000012DEM       State Representative, District 86                       Mike Purcell                          Precinct 201                                           01 
01200020004000024DEM       State Representative, District 86                       Mike Purcell                          Precinct 202                                           01 
01200020005000040DEM       State Representative, District 86                       Mike Purcell                          Precinct 301                                           01 
01200020006000047DEM       State Representative, District 86                       Mike Purcell                          Precinct 401                                           01 
01210010001000165REP       Justice, 7th Crt of Appeals Dist, Pl 2                  Judy Parker                           Precinct 101                                           01 
01210010002000100REP       Justice, 7th Crt of Appeals Dist, Pl 2                  Judy Parker                           Precinct 102                                           01 
01210010003000139REP       Justice, 7th Crt of Appeals Dist, Pl 2                  Judy Parker                           Precinct 201                                           01 
01210010004000282REP       Justice, 7th Crt of Appeals Dist, Pl 2                  Judy Parker                           Precinct 202                                           01 
01210010005000433REP       Justice, 7th Crt of Appeals Dist, Pl 2                  Judy Parker                           Precinct 301                                           01 
01210010006000350REP       Justice, 7th Crt of Appeals Dist, Pl 2                  Judy Parker                           Precinct 401                                           01 
01220010001000164REP       Justice, 7th Crt of Appeals Dist, Pl 3                  Pat Pirtle                            Precinct 101                                           01 
01220010002000100REP       Justice, 7th Crt of Appeals Dist, Pl 3                  Pat Pirtle                            Precinct 102                                           01 
01220010003000138REP       Justice, 7th Crt of Appeals Dist, Pl 3                  Pat Pirtle                            Precinct 201                                           01 
01220010004000282REP       Justice, 7th Crt of Appeals Dist, Pl 3                  Pat Pirtle                            Precinct 202                                           01 
01220010005000429REP       Justice, 7th Crt of Appeals Dist, Pl 3                  Pat Pirtle                            Precinct 301                                           01 
01220010006000351REP       Justice, 7th Crt of Appeals Dist, Pl 3                  Pat Pirtle                            Precinct 401                                           01 
01230010001000168REP       District Judge, 69th Judicial District                  Ron Enns                              Precinct 101                                           01 
01230010002000101REP       District Judge, 69th Judicial District                  Ron Enns                              Precinct 102                                           01 
01230010003000141REP       District Judge, 69th Judicial District                  Ron Enns                              Precinct 201                                           01 
01230010004000291REP       District Judge, 69th Judicial District                  Ron Enns                              Precinct 202                                           01 
01230010005000442REP       District Judge, 69th Judicial District                  Ron Enns                              Precinct 301                                           01 
01230010006000357REP       District Judge, 69th Judicial District                  Ron Enns                              Precinct 401                                           01 
