03020010001000230REPCNTHCO US Senator Hemphill County                              Ted Cruz                              Precinct 101                  Hemphill County          01 
03020010002000243REPCNTHCO US Senator Hemphill County                              Ted Cruz                              Precinct 201                  Hemphill County          01 
03020010003000019REPCNTHCO US Senator Hemphill County                              Ted Cruz                              Precinct 202                  Hemphill County          01 
03020010004000355REPCNTHCO US Senator Hemphill County                              Ted Cruz                              Precinct 301                  Hemphill County          01 
03020010005000030REPCNTHCO US Senator Hemphill County                              Ted Cruz                              Precinct 302                  Hemphill County          01 
03020010006000068REPCNTHCO US Senator Hemphill County                              Ted Cruz                              Precinct 303                  Hemphill County          01 
03020010007000195REPCNTHCO US Senator Hemphill County                              Ted Cruz                              Precinct 401                  Hemphill County          01 
03020010008000069REPCNTHCO US Senator Hemphill County                              Ted Cruz                              Precinct 402                  Hemphill County          01 
03020020001000041DEMCNTHCO US Senator Hemphill County                              Beto O'Rourke                         Precinct 101                  Hemphill County          01 
03020020002000039DEMCNTHCO US Senator Hemphill County                              Beto O'Rourke                         Precinct 201                  Hemphill County          01 
03020020003000000DEMCNTHCO US Senator Hemphill County                              Beto O'Rourke                         Precinct 202                  Hemphill County          01 
03020020004000036DEMCNTHCO US Senator Hemphill County                              Beto O'Rourke                         Precinct 301                  Hemphill County          01 
03020020005000001DEMCNTHCO US Senator Hemphill County                              Beto O'Rourke                         Precinct 302                  Hemphill County          01 
03020020006000009DEMCNTHCO US Senator Hemphill County                              Beto O'Rourke                         Precinct 303                  Hemphill County          01 
03020020007000017DEMCNTHCO US Senator Hemphill County                              Beto O'Rourke                         Precinct 401                  Hemphill County          01 
03020020008000014DEMCNTHCO US Senator Hemphill County                              Beto O'Rourke                         Precinct 402                  Hemphill County          01 
03020030001000001LIBCNTHCO US Senator Hemphill County                              Neal M. Dikeman                       Precinct 101                  Hemphill County          01 
03020030002000003LIBCNTHCO US Senator Hemphill County                              Neal M. Dikeman                       Precinct 201                  Hemphill County          01 
03020030003000000LIBCNTHCO US Senator Hemphill County                              Neal M. Dikeman                       Precinct 202                  Hemphill County          01 
03020030004000003LIBCNTHCO US Senator Hemphill County                              Neal M. Dikeman                       Precinct 301                  Hemphill County          01 
03020030005000000LIBCNTHCO US Senator Hemphill County                              Neal M. Dikeman                       Precinct 302                  Hemphill County          01 
03020030006000001LIBCNTHCO US Senator Hemphill County                              Neal M. Dikeman                       Precinct 303                  Hemphill County          01 
03020030007000001LIBCNTHCO US Senator Hemphill County                              Neal M. Dikeman                       Precinct 401                  Hemphill County          01 
03020030008000000LIBCNTHCO US Senator Hemphill County                              Neal M. Dikeman                       Precinct 402                  Hemphill County          01 
03020040001000000   CNTHCO US Senator Hemphill County                              OVER VOTES                            Precinct 101                  Hemphill County          01 
03020040002000000   CNTHCO US Senator Hemphill County                              OVER VOTES                            Precinct 201                  Hemphill County          01 
03020040003000000   CNTHCO US Senator Hemphill County                              OVER VOTES                            Precinct 202                  Hemphill County          01 
03020040004000000   CNTHCO US Senator Hemphill County                              OVER VOTES                            Precinct 301                  Hemphill County          01 
03020040005000000   CNTHCO US Senator Hemphill County                              OVER VOTES                            Precinct 302                  Hemphill County          01 
03020040006000000   CNTHCO US Senator Hemphill County                              OVER VOTES                            Precinct 303                  Hemphill County          01 
03020040007000000   CNTHCO US Senator Hemphill County                              OVER VOTES                            Precinct 401                  Hemphill County          01 
03020040008000000   CNTHCO US Senator Hemphill County                              OVER VOTES                            Precinct 402                  Hemphill County          01 
03020050001000006   CNTHCO US Senator Hemphill County                              UNDER VOTES                           Precinct 101                  Hemphill County          01 
03020050002000005   CNTHCO US Senator Hemphill County                              UNDER VOTES                           Precinct 201                  Hemphill County          01 
03020050003000000   CNTHCO US Senator Hemphill County                              UNDER VOTES                           Precinct 202                  Hemphill County          01 
03020050004000004   CNTHCO US Senator Hemphill County                              UNDER VOTES                           Precinct 301                  Hemphill County          01 
03020050005000000   CNTHCO US Senator Hemphill County                              UNDER VOTES                           Precinct 302                  Hemphill County          01 
03020050006000000   CNTHCO US Senator Hemphill County                              UNDER VOTES                           Precinct 303                  Hemphill County          01 
03020050007000001   CNTHCO US Senator Hemphill County                              UNDER VOTES                           Precinct 401                  Hemphill County          01 
03020050008000003   CNTHCO US Senator Hemphill County                              UNDER VOTES                           Precinct 402                  Hemphill County          01 
03030010001000235REPCNTHCO US Representative, Dist 13 Hemphill County              Mac Thornberry                        Precinct 101                  Hemphill County          01 
03030010002000243REPCNTHCO US Representative, Dist 13 Hemphill County              Mac Thornberry                        Precinct 201                  Hemphill County          01 
03030010003000019REPCNTHCO US Representative, Dist 13 Hemphill County              Mac Thornberry                        Precinct 202                  Hemphill County          01 
03030010004000368REPCNTHCO US Representative, Dist 13 Hemphill County              Mac Thornberry                        Precinct 301                  Hemphill County          01 
03030010005000030REPCNTHCO US Representative, Dist 13 Hemphill County              Mac Thornberry                        Precinct 302                  Hemphill County          01 
03030010006000070REPCNTHCO US Representative, Dist 13 Hemphill County              Mac Thornberry                        Precinct 303                  Hemphill County          01 
03030010007000198REPCNTHCO US Representative, Dist 13 Hemphill County              Mac Thornberry                        Precinct 401                  Hemphill County          01 
03030010008000071REPCNTHCO US Representative, Dist 13 Hemphill County              Mac Thornberry                        Precinct 402                  Hemphill County          01 
03030020001000034DEMCNTHCO US Representative, Dist 13 Hemphill County              Greg Sagan                            Precinct 101                  Hemphill County          01 
03030020002000034DEMCNTHCO US Representative, Dist 13 Hemphill County              Greg Sagan                            Precinct 201                  Hemphill County          01 
03030020003000000DEMCNTHCO US Representative, Dist 13 Hemphill County              Greg Sagan                            Precinct 202                  Hemphill County          01 
03030020004000023DEMCNTHCO US Representative, Dist 13 Hemphill County              Greg Sagan                            Precinct 301                  Hemphill County          01 
03030020005000001DEMCNTHCO US Representative, Dist 13 Hemphill County              Greg Sagan                            Precinct 302                  Hemphill County          01 
03030020006000008DEMCNTHCO US Representative, Dist 13 Hemphill County              Greg Sagan                            Precinct 303                  Hemphill County          01 
03030020007000012DEMCNTHCO US Representative, Dist 13 Hemphill County              Greg Sagan                            Precinct 401                  Hemphill County          01 
03030020008000012DEMCNTHCO US Representative, Dist 13 Hemphill County              Greg Sagan                            Precinct 402                  Hemphill County          01 
03030030001000002LIBCNTHCO US Representative, Dist 13 Hemphill County              Calvin DeWeese                        Precinct 101                  Hemphill County          01 
03030030002000003LIBCNTHCO US Representative, Dist 13 Hemphill County              Calvin DeWeese                        Precinct 201                  Hemphill County          01 
03030030003000000LIBCNTHCO US Representative, Dist 13 Hemphill County              Calvin DeWeese                        Precinct 202                  Hemphill County          01 
03030030004000003LIBCNTHCO US Representative, Dist 13 Hemphill County              Calvin DeWeese                        Precinct 301                  Hemphill County          01 
03030030005000000LIBCNTHCO US Representative, Dist 13 Hemphill County              Calvin DeWeese                        Precinct 302                  Hemphill County          01 
03030030006000000LIBCNTHCO US Representative, Dist 13 Hemphill County              Calvin DeWeese                        Precinct 303                  Hemphill County          01 
03030030007000003LIBCNTHCO US Representative, Dist 13 Hemphill County              Calvin DeWeese                        Precinct 401                  Hemphill County          01 
03030030008000000LIBCNTHCO US Representative, Dist 13 Hemphill County              Calvin DeWeese                        Precinct 402                  Hemphill County          01 
03030040001000000   CNTHCO US Representative, Dist 13 Hemphill County              OVER VOTES                            Precinct 101                  Hemphill County          01 
03030040002000000   CNTHCO US Representative, Dist 13 Hemphill County              OVER VOTES                            Precinct 201                  Hemphill County          01 
03030040003000000   CNTHCO US Representative, Dist 13 Hemphill County              OVER VOTES                            Precinct 202                  Hemphill County          01 
03030040004000000   CNTHCO US Representative, Dist 13 Hemphill County              OVER VOTES                            Precinct 301                  Hemphill County          01 
03030040005000000   CNTHCO US Representative, Dist 13 Hemphill County              OVER VOTES                            Precinct 302                  Hemphill County          01 
03030040006000000   CNTHCO US Representative, Dist 13 Hemphill County              OVER VOTES                            Precinct 303                  Hemphill County          01 
03030040007000000   CNTHCO US Representative, Dist 13 Hemphill County              OVER VOTES                            Precinct 401                  Hemphill County          01 
03030040008000000   CNTHCO US Representative, Dist 13 Hemphill County              OVER VOTES                            Precinct 402                  Hemphill County          01 
03030050001000007   CNTHCO US Representative, Dist 13 Hemphill County              UNDER VOTES                           Precinct 101                  Hemphill County          01 
03030050002000010   CNTHCO US Representative, Dist 13 Hemphill County              UNDER VOTES                           Precinct 201                  Hemphill County          01 
03030050003000000   CNTHCO US Representative, Dist 13 Hemphill County              UNDER VOTES                           Precinct 202                  Hemphill County          01 
03030050004000004   CNTHCO US Representative, Dist 13 Hemphill County              UNDER VOTES                           Precinct 301                  Hemphill County          01 
03030050005000000   CNTHCO US Representative, Dist 13 Hemphill County              UNDER VOTES                           Precinct 302                  Hemphill County          01 
03030050006000000   CNTHCO US Representative, Dist 13 Hemphill County              UNDER VOTES                           Precinct 303                  Hemphill County          01 
03030050007000001   CNTHCO US Representative, Dist 13 Hemphill County              UNDER VOTES                           Precinct 401                  Hemphill County          01 
03030050008000003   CNTHCO US Representative, Dist 13 Hemphill County              UNDER VOTES                           Precinct 402                  Hemphill County          01 
03040010001000223REPCNTHCO Governor Hemphill County                                Greg Abbott                           Precinct 101                  Hemphill County          01 
03040010002000240REPCNTHCO Governor Hemphill County                                Greg Abbott                           Precinct 201                  Hemphill County          01 
03040010003000019REPCNTHCO Governor Hemphill County                                Greg Abbott                           Precinct 202                  Hemphill County          01 
03040010004000350REPCNTHCO Governor Hemphill County                                Greg Abbott                           Precinct 301                  Hemphill County          01 
03040010005000030REPCNTHCO Governor Hemphill County                                Greg Abbott                           Precinct 302                  Hemphill County          01 
03040010006000070REPCNTHCO Governor Hemphill County                                Greg Abbott                           Precinct 303                  Hemphill County          01 
03040010007000195REPCNTHCO Governor Hemphill County                                Greg Abbott                           Precinct 401                  Hemphill County          01 
03040010008000072REPCNTHCO Governor Hemphill County                                Greg Abbott                           Precinct 402                  Hemphill County          01 
03040020001000043DEMCNTHCO Governor Hemphill County                                Lupe Valdez                           Precinct 101                  Hemphill County          01 
03040020002000037DEMCNTHCO Governor Hemphill County                                Lupe Valdez                           Precinct 201                  Hemphill County          01 
03040020003000000DEMCNTHCO Governor Hemphill County                                Lupe Valdez                           Precinct 202                  Hemphill County          01 
03040020004000035DEMCNTHCO Governor Hemphill County                                Lupe Valdez                           Precinct 301                  Hemphill County          01 
03040020005000001DEMCNTHCO Governor Hemphill County                                Lupe Valdez                           Precinct 302                  Hemphill County          01 
03040020006000008DEMCNTHCO Governor Hemphill County                                Lupe Valdez                           Precinct 303                  Hemphill County          01 
03040020007000018DEMCNTHCO Governor Hemphill County                                Lupe Valdez                           Precinct 401                  Hemphill County          01 
03040020008000010DEMCNTHCO Governor Hemphill County                                Lupe Valdez                           Precinct 402                  Hemphill County          01 
03040030001000003LIBCNTHCO Governor Hemphill County                                Mark Jay Tippetts                     Precinct 101                  Hemphill County          01 
03040030002000002LIBCNTHCO Governor Hemphill County                                Mark Jay Tippetts                     Precinct 201                  Hemphill County          01 
03040030003000000LIBCNTHCO Governor Hemphill County                                Mark Jay Tippetts                     Precinct 202                  Hemphill County          01 
03040030004000007LIBCNTHCO Governor Hemphill County                                Mark Jay Tippetts                     Precinct 301                  Hemphill County          01 
03040030005000000LIBCNTHCO Governor Hemphill County                                Mark Jay Tippetts                     Precinct 302                  Hemphill County          01 
03040030006000000LIBCNTHCO Governor Hemphill County                                Mark Jay Tippetts                     Precinct 303                  Hemphill County          01 
03040030007000001LIBCNTHCO Governor Hemphill County                                Mark Jay Tippetts                     Precinct 401                  Hemphill County          01 
03040030008000001LIBCNTHCO Governor Hemphill County                                Mark Jay Tippetts                     Precinct 402                  Hemphill County          01 
03040040001000000   CNTHCO Governor Hemphill County                                OVER VOTES                            Precinct 101                  Hemphill County          01 
03040040002000000   CNTHCO Governor Hemphill County                                OVER VOTES                            Precinct 201                  Hemphill County          01 
03040040003000000   CNTHCO Governor Hemphill County                                OVER VOTES                            Precinct 202                  Hemphill County          01 
03040040004000000   CNTHCO Governor Hemphill County                                OVER VOTES                            Precinct 301                  Hemphill County          01 
03040040005000000   CNTHCO Governor Hemphill County                                OVER VOTES                            Precinct 302                  Hemphill County          01 
03040040006000000   CNTHCO Governor Hemphill County                                OVER VOTES                            Precinct 303                  Hemphill County          01 
03040040007000000   CNTHCO Governor Hemphill County                                OVER VOTES                            Precinct 401                  Hemphill County          01 
03040040008000000   CNTHCO Governor Hemphill County                                OVER VOTES                            Precinct 402                  Hemphill County          01 
03040050001000009   CNTHCO Governor Hemphill County                                UNDER VOTES                           Precinct 101                  Hemphill County          01 
03040050002000011   CNTHCO Governor Hemphill County                                UNDER VOTES                           Precinct 201                  Hemphill County          01 
03040050003000000   CNTHCO Governor Hemphill County                                UNDER VOTES                           Precinct 202                  Hemphill County          01 
03040050004000006   CNTHCO Governor Hemphill County                                UNDER VOTES                           Precinct 301                  Hemphill County          01 
03040050005000000   CNTHCO Governor Hemphill County                                UNDER VOTES                           Precinct 302                  Hemphill County          01 
03040050006000000   CNTHCO Governor Hemphill County                                UNDER VOTES                           Precinct 303                  Hemphill County          01 
03040050007000000   CNTHCO Governor Hemphill County                                UNDER VOTES                           Precinct 401                  Hemphill County          01 
03040050008000003   CNTHCO Governor Hemphill County                                UNDER VOTES                           Precinct 402                  Hemphill County          01 
03050010001000180REPCNTHCO Lieutenant Governor Hemphill County                     Dan Patrick                           Precinct 101                  Hemphill County          01 
03050010002000201REPCNTHCO Lieutenant Governor Hemphill County                     Dan Patrick                           Precinct 201                  Hemphill County          01 
03050010003000016REPCNTHCO Lieutenant Governor Hemphill County                     Dan Patrick                           Precinct 202                  Hemphill County          01 
03050010004000239REPCNTHCO Lieutenant Governor Hemphill County                     Dan Patrick                           Precinct 301                  Hemphill County          01 
03050010005000025REPCNTHCO Lieutenant Governor Hemphill County                     Dan Patrick                           Precinct 302                  Hemphill County          01 
03050010006000062REPCNTHCO Lieutenant Governor Hemphill County                     Dan Patrick                           Precinct 303                  Hemphill County          01 
03050010007000148REPCNTHCO Lieutenant Governor Hemphill County                     Dan Patrick                           Precinct 401                  Hemphill County          01 
03050010008000058REPCNTHCO Lieutenant Governor Hemphill County                     Dan Patrick                           Precinct 402                  Hemphill County          01 
03050020001000082DEMCNTHCO Lieutenant Governor Hemphill County                     Mike Collier                          Precinct 101                  Hemphill County          01 
03050020002000068DEMCNTHCO Lieutenant Governor Hemphill County                     Mike Collier                          Precinct 201                  Hemphill County          01 
03050020003000001DEMCNTHCO Lieutenant Governor Hemphill County                     Mike Collier                          Precinct 202                  Hemphill County          01 
03050020004000127DEMCNTHCO Lieutenant Governor Hemphill County                     Mike Collier                          Precinct 301                  Hemphill County          01 
03050020005000003DEMCNTHCO Lieutenant Governor Hemphill County                     Mike Collier                          Precinct 302                  Hemphill County          01 
03050020006000014DEMCNTHCO Lieutenant Governor Hemphill County                     Mike Collier                          Precinct 303                  Hemphill County          01 
03050020007000052DEMCNTHCO Lieutenant Governor Hemphill County                     Mike Collier                          Precinct 401                  Hemphill County          01 
03050020008000023DEMCNTHCO Lieutenant Governor Hemphill County                     Mike Collier                          Precinct 402                  Hemphill County          01 
03050030001000006LIBCNTHCO Lieutenant Governor Hemphill County                     Kerry Douglas McKennon                Precinct 101                  Hemphill County          01 
03050030002000010LIBCNTHCO Lieutenant Governor Hemphill County                     Kerry Douglas McKennon                Precinct 201                  Hemphill County          01 
03050030003000002LIBCNTHCO Lieutenant Governor Hemphill County                     Kerry Douglas McKennon                Precinct 202                  Hemphill County          01 
03050030004000019LIBCNTHCO Lieutenant Governor Hemphill County                     Kerry Douglas McKennon                Precinct 301                  Hemphill County          01 
03050030005000003LIBCNTHCO Lieutenant Governor Hemphill County                     Kerry Douglas McKennon                Precinct 302                  Hemphill County          01 
03050030006000001LIBCNTHCO Lieutenant Governor Hemphill County                     Kerry Douglas McKennon                Precinct 303                  Hemphill County          01 
03050030007000007LIBCNTHCO Lieutenant Governor Hemphill County                     Kerry Douglas McKennon                Precinct 401                  Hemphill County          01 
03050030008000002LIBCNTHCO Lieutenant Governor Hemphill County                     Kerry Douglas McKennon                Precinct 402                  Hemphill County          01 
03050040001000000   CNTHCO Lieutenant Governor Hemphill County                     OVER VOTES                            Precinct 101                  Hemphill County          01 
03050040002000000   CNTHCO Lieutenant Governor Hemphill County                     OVER VOTES                            Precinct 201                  Hemphill County          01 
03050040003000000   CNTHCO Lieutenant Governor Hemphill County                     OVER VOTES                            Precinct 202                  Hemphill County          01 
03050040004000000   CNTHCO Lieutenant Governor Hemphill County                     OVER VOTES                            Precinct 301                  Hemphill County          01 
03050040005000000   CNTHCO Lieutenant Governor Hemphill County                     OVER VOTES                            Precinct 302                  Hemphill County          01 
03050040006000000   CNTHCO Lieutenant Governor Hemphill County                     OVER VOTES                            Precinct 303                  Hemphill County          01 
03050040007000000   CNTHCO Lieutenant Governor Hemphill County                     OVER VOTES                            Precinct 401                  Hemphill County          01 
03050040008000000   CNTHCO Lieutenant Governor Hemphill County                     OVER VOTES                            Precinct 402                  Hemphill County          01 
03050050001000010   CNTHCO Lieutenant Governor Hemphill County                     UNDER VOTES                           Precinct 101                  Hemphill County          01 
03050050002000011   CNTHCO Lieutenant Governor Hemphill County                     UNDER VOTES                           Precinct 201                  Hemphill County          01 
03050050003000000   CNTHCO Lieutenant Governor Hemphill County                     UNDER VOTES                           Precinct 202                  Hemphill County          01 
03050050004000012   CNTHCO Lieutenant Governor Hemphill County                     UNDER VOTES                           Precinct 301                  Hemphill County          01 
03050050005000000   CNTHCO Lieutenant Governor Hemphill County                     UNDER VOTES                           Precinct 302                  Hemphill County          01 
03050050006000001   CNTHCO Lieutenant Governor Hemphill County                     UNDER VOTES                           Precinct 303                  Hemphill County          01 
03050050007000007   CNTHCO Lieutenant Governor Hemphill County                     UNDER VOTES                           Precinct 401                  Hemphill County          01 
03050050008000003   CNTHCO Lieutenant Governor Hemphill County                     UNDER VOTES                           Precinct 402                  Hemphill County          01 
03060010001000208REPCNTHCO Attorney General Hemphill County                        Ken Paxton                            Precinct 101                  Hemphill County          01 
03060010002000218REPCNTHCO Attorney General Hemphill County                        Ken Paxton                            Precinct 201                  Hemphill County          01 
03060010003000019REPCNTHCO Attorney General Hemphill County                        Ken Paxton                            Precinct 202                  Hemphill County          01 
03060010004000321REPCNTHCO Attorney General Hemphill County                        Ken Paxton                            Precinct 301                  Hemphill County          01 
03060010005000025REPCNTHCO Attorney General Hemphill County                        Ken Paxton                            Precinct 302                  Hemphill County          01 
03060010006000065REPCNTHCO Attorney General Hemphill County                        Ken Paxton                            Precinct 303                  Hemphill County          01 
03060010007000178REPCNTHCO Attorney General Hemphill County                        Ken Paxton                            Precinct 401                  Hemphill County          01 
03060010008000065REPCNTHCO Attorney General Hemphill County                        Ken Paxton                            Precinct 402                  Hemphill County          01 
03060020001000051DEMCNTHCO Attorney General Hemphill County                        Justin Nelson                         Precinct 101                  Hemphill County          01 
03060020002000050DEMCNTHCO Attorney General Hemphill County                        Justin Nelson                         Precinct 201                  Hemphill County          01 
03060020003000000DEMCNTHCO Attorney General Hemphill County                        Justin Nelson                         Precinct 202                  Hemphill County          01 
03060020004000055DEMCNTHCO Attorney General Hemphill County                        Justin Nelson                         Precinct 301                  Hemphill County          01 
03060020005000003DEMCNTHCO Attorney General Hemphill County                        Justin Nelson                         Precinct 302                  Hemphill County          01 
03060020006000010DEMCNTHCO Attorney General Hemphill County                        Justin Nelson                         Precinct 303                  Hemphill County          01 
03060020007000025DEMCNTHCO Attorney General Hemphill County                        Justin Nelson                         Precinct 401                  Hemphill County          01 
03060020008000015DEMCNTHCO Attorney General Hemphill County                        Justin Nelson                         Precinct 402                  Hemphill County          01 
03060030001000005LIBCNTHCO Attorney General Hemphill County                        Michael Ray Harris                    Precinct 101                  Hemphill County          01 
03060030002000007LIBCNTHCO Attorney General Hemphill County                        Michael Ray Harris                    Precinct 201                  Hemphill County          01 
03060030003000000LIBCNTHCO Attorney General Hemphill County                        Michael Ray Harris                    Precinct 202                  Hemphill County          01 
03060030004000009LIBCNTHCO Attorney General Hemphill County                        Michael Ray Harris                    Precinct 301                  Hemphill County          01 
03060030005000003LIBCNTHCO Attorney General Hemphill County                        Michael Ray Harris                    Precinct 302                  Hemphill County          01 
03060030006000001LIBCNTHCO Attorney General Hemphill County                        Michael Ray Harris                    Precinct 303                  Hemphill County          01 
03060030007000002LIBCNTHCO Attorney General Hemphill County                        Michael Ray Harris                    Precinct 401                  Hemphill County          01 
03060030008000002LIBCNTHCO Attorney General Hemphill County                        Michael Ray Harris                    Precinct 402                  Hemphill County          01 
03060040001000000   CNTHCO Attorney General Hemphill County                        OVER VOTES                            Precinct 101                  Hemphill County          01 
03060040002000000   CNTHCO Attorney General Hemphill County                        OVER VOTES                            Precinct 201                  Hemphill County          01 
03060040003000000   CNTHCO Attorney General Hemphill County                        OVER VOTES                            Precinct 202                  Hemphill County          01 
03060040004000000   CNTHCO Attorney General Hemphill County                        OVER VOTES                            Precinct 301                  Hemphill County          01 
03060040005000000   CNTHCO Attorney General Hemphill County                        OVER VOTES                            Precinct 302                  Hemphill County          01 
03060040006000000   CNTHCO Attorney General Hemphill County                        OVER VOTES                            Precinct 303                  Hemphill County          01 
03060040007000000   CNTHCO Attorney General Hemphill County                        OVER VOTES                            Precinct 401                  Hemphill County          01 
03060040008000000   CNTHCO Attorney General Hemphill County                        OVER VOTES                            Precinct 402                  Hemphill County          01 
03060050001000014   CNTHCO Attorney General Hemphill County                        UNDER VOTES                           Precinct 101                  Hemphill County          01 
03060050002000015   CNTHCO Attorney General Hemphill County                        UNDER VOTES                           Precinct 201                  Hemphill County          01 
03060050003000000   CNTHCO Attorney General Hemphill County                        UNDER VOTES                           Precinct 202                  Hemphill County          01 
03060050004000012   CNTHCO Attorney General Hemphill County                        UNDER VOTES                           Precinct 301                  Hemphill County          01 
03060050005000000   CNTHCO Attorney General Hemphill County                        UNDER VOTES                           Precinct 302                  Hemphill County          01 
03060050006000002   CNTHCO Attorney General Hemphill County                        UNDER VOTES                           Precinct 303                  Hemphill County          01 
03060050007000009   CNTHCO Attorney General Hemphill County                        UNDER VOTES                           Precinct 401                  Hemphill County          01 
03060050008000004   CNTHCO Attorney General Hemphill County                        UNDER VOTES                           Precinct 402                  Hemphill County          01 
03070010001000226REPCNTHCO Comptroller of Public Accounts Hemphill County          Glenn Hegar                           Precinct 101                  Hemphill County          01 
03070010002000230REPCNTHCO Comptroller of Public Accounts Hemphill County          Glenn Hegar                           Precinct 201                  Hemphill County          01 
03070010003000018REPCNTHCO Comptroller of Public Accounts Hemphill County          Glenn Hegar                           Precinct 202                  Hemphill County          01 
03070010004000340REPCNTHCO Comptroller of Public Accounts Hemphill County          Glenn Hegar                           Precinct 301                  Hemphill County          01 
03070010005000030REPCNTHCO Comptroller of Public Accounts Hemphill County          Glenn Hegar                           Precinct 302                  Hemphill County          01 
03070010006000065REPCNTHCO Comptroller of Public Accounts Hemphill County          Glenn Hegar                           Precinct 303                  Hemphill County          01 
03070010007000190REPCNTHCO Comptroller of Public Accounts Hemphill County          Glenn Hegar                           Precinct 401                  Hemphill County          01 
03070010008000067REPCNTHCO Comptroller of Public Accounts Hemphill County          Glenn Hegar                           Precinct 402                  Hemphill County          01 
03070020001000035DEMCNTHCO Comptroller of Public Accounts Hemphill County          Joi Chevalier                         Precinct 101                  Hemphill County          01 
03070020002000037DEMCNTHCO Comptroller of Public Accounts Hemphill County          Joi Chevalier                         Precinct 201                  Hemphill County          01 
03070020003000000DEMCNTHCO Comptroller of Public Accounts Hemphill County          Joi Chevalier                         Precinct 202                  Hemphill County          01 
03070020004000029DEMCNTHCO Comptroller of Public Accounts Hemphill County          Joi Chevalier                         Precinct 301                  Hemphill County          01 
03070020005000001DEMCNTHCO Comptroller of Public Accounts Hemphill County          Joi Chevalier                         Precinct 302                  Hemphill County          01 
03070020006000010DEMCNTHCO Comptroller of Public Accounts Hemphill County          Joi Chevalier                         Precinct 303                  Hemphill County          01 
03070020007000012DEMCNTHCO Comptroller of Public Accounts Hemphill County          Joi Chevalier                         Precinct 401                  Hemphill County          01 
03070020008000012DEMCNTHCO Comptroller of Public Accounts Hemphill County          Joi Chevalier                         Precinct 402                  Hemphill County          01 
03070030001000003LIBCNTHCO Comptroller of Public Accounts Hemphill County          Ben Sanders                           Precinct 101                  Hemphill County          01 
03070030002000002LIBCNTHCO Comptroller of Public Accounts Hemphill County          Ben Sanders                           Precinct 201                  Hemphill County          01 
03070030003000001LIBCNTHCO Comptroller of Public Accounts Hemphill County          Ben Sanders                           Precinct 202                  Hemphill County          01 
03070030004000009LIBCNTHCO Comptroller of Public Accounts Hemphill County          Ben Sanders                           Precinct 301                  Hemphill County          01 
03070030005000000LIBCNTHCO Comptroller of Public Accounts Hemphill County          Ben Sanders                           Precinct 302                  Hemphill County          01 
03070030006000001LIBCNTHCO Comptroller of Public Accounts Hemphill County          Ben Sanders                           Precinct 303                  Hemphill County          01 
03070030007000005LIBCNTHCO Comptroller of Public Accounts Hemphill County          Ben Sanders                           Precinct 401                  Hemphill County          01 
03070030008000001LIBCNTHCO Comptroller of Public Accounts Hemphill County          Ben Sanders                           Precinct 402                  Hemphill County          01 
03070040001000000   CNTHCO Comptroller of Public Accounts Hemphill County          OVER VOTES                            Precinct 101                  Hemphill County          01 
03070040002000000   CNTHCO Comptroller of Public Accounts Hemphill County          OVER VOTES                            Precinct 201                  Hemphill County          01 
03070040003000000   CNTHCO Comptroller of Public Accounts Hemphill County          OVER VOTES                            Precinct 202                  Hemphill County          01 
03070040004000000   CNTHCO Comptroller of Public Accounts Hemphill County          OVER VOTES                            Precinct 301                  Hemphill County          01 
03070040005000000   CNTHCO Comptroller of Public Accounts Hemphill County          OVER VOTES                            Precinct 302                  Hemphill County          01 
03070040006000000   CNTHCO Comptroller of Public Accounts Hemphill County          OVER VOTES                            Precinct 303                  Hemphill County          01 
03070040007000000   CNTHCO Comptroller of Public Accounts Hemphill County          OVER VOTES                            Precinct 401                  Hemphill County          01 
03070040008000000   CNTHCO Comptroller of Public Accounts Hemphill County          OVER VOTES                            Precinct 402                  Hemphill County          01 
03070050001000014   CNTHCO Comptroller of Public Accounts Hemphill County          UNDER VOTES                           Precinct 101                  Hemphill County          01 
03070050002000021   CNTHCO Comptroller of Public Accounts Hemphill County          UNDER VOTES                           Precinct 201                  Hemphill County          01 
03070050003000000   CNTHCO Comptroller of Public Accounts Hemphill County          UNDER VOTES                           Precinct 202                  Hemphill County          01 
03070050004000019   CNTHCO Comptroller of Public Accounts Hemphill County          UNDER VOTES                           Precinct 301                  Hemphill County          01 
03070050005000000   CNTHCO Comptroller of Public Accounts Hemphill County          UNDER VOTES                           Precinct 302                  Hemphill County          01 
03070050006000002   CNTHCO Comptroller of Public Accounts Hemphill County          UNDER VOTES                           Precinct 303                  Hemphill County          01 
03070050007000007   CNTHCO Comptroller of Public Accounts Hemphill County          UNDER VOTES                           Precinct 401                  Hemphill County          01 
03070050008000006   CNTHCO Comptroller of Public Accounts Hemphill County          UNDER VOTES                           Precinct 402                  Hemphill County          01 
03080010001000227REPCNTHCO Comm of the General Land Office Hemphill County         George P. Bush                        Precinct 101                  Hemphill County          01 
03080010002000235REPCNTHCO Comm of the General Land Office Hemphill County         George P. Bush                        Precinct 201                  Hemphill County          01 
03080010003000017REPCNTHCO Comm of the General Land Office Hemphill County         George P. Bush                        Precinct 202                  Hemphill County          01 
03080010004000352REPCNTHCO Comm of the General Land Office Hemphill County         George P. Bush                        Precinct 301                  Hemphill County          01 
03080010005000029REPCNTHCO Comm of the General Land Office Hemphill County         George P. Bush                        Precinct 302                  Hemphill County          01 
03080010006000066REPCNTHCO Comm of the General Land Office Hemphill County         George P. Bush                        Precinct 303                  Hemphill County          01 
03080010007000190REPCNTHCO Comm of the General Land Office Hemphill County         George P. Bush                        Precinct 401                  Hemphill County          01 
03080010008000070REPCNTHCO Comm of the General Land Office Hemphill County         George P. Bush                        Precinct 402                  Hemphill County          01 
03080020001000034DEMCNTHCO Comm of the General Land Office Hemphill County         Miguel Suazo                          Precinct 101                  Hemphill County          01 
03080020002000034DEMCNTHCO Comm of the General Land Office Hemphill County         Miguel Suazo                          Precinct 201                  Hemphill County          01 
03080020003000001DEMCNTHCO Comm of the General Land Office Hemphill County         Miguel Suazo                          Precinct 202                  Hemphill County          01 
03080020004000027DEMCNTHCO Comm of the General Land Office Hemphill County         Miguel Suazo                          Precinct 301                  Hemphill County          01 
03080020005000001DEMCNTHCO Comm of the General Land Office Hemphill County         Miguel Suazo                          Precinct 302                  Hemphill County          01 
03080020006000008DEMCNTHCO Comm of the General Land Office Hemphill County         Miguel Suazo                          Precinct 303                  Hemphill County          01 
03080020007000012DEMCNTHCO Comm of the General Land Office Hemphill County         Miguel Suazo                          Precinct 401                  Hemphill County          01 
03080020008000010DEMCNTHCO Comm of the General Land Office Hemphill County         Miguel Suazo                          Precinct 402                  Hemphill County          01 
03080030001000002LIBCNTHCO Comm of the General Land Office Hemphill County         Matt Pina                             Precinct 101                  Hemphill County          01 
03080030002000005LIBCNTHCO Comm of the General Land Office Hemphill County         Matt Pina                             Precinct 201                  Hemphill County          01 
03080030003000000LIBCNTHCO Comm of the General Land Office Hemphill County         Matt Pina                             Precinct 202                  Hemphill County          01 
03080030004000010LIBCNTHCO Comm of the General Land Office Hemphill County         Matt Pina                             Precinct 301                  Hemphill County          01 
03080030005000000LIBCNTHCO Comm of the General Land Office Hemphill County         Matt Pina                             Precinct 302                  Hemphill County          01 
03080030006000003LIBCNTHCO Comm of the General Land Office Hemphill County         Matt Pina                             Precinct 303                  Hemphill County          01 
03080030007000009LIBCNTHCO Comm of the General Land Office Hemphill County         Matt Pina                             Precinct 401                  Hemphill County          01 
03080030008000002LIBCNTHCO Comm of the General Land Office Hemphill County         Matt Pina                             Precinct 402                  Hemphill County          01 
03080040001000000   CNTHCO Comm of the General Land Office Hemphill County         OVER VOTES                            Precinct 101                  Hemphill County          01 
03080040002000000   CNTHCO Comm of the General Land Office Hemphill County         OVER VOTES                            Precinct 201                  Hemphill County          01 
03080040003000000   CNTHCO Comm of the General Land Office Hemphill County         OVER VOTES                            Precinct 202                  Hemphill County          01 
03080040004000000   CNTHCO Comm of the General Land Office Hemphill County         OVER VOTES                            Precinct 301                  Hemphill County          01 
03080040005000000   CNTHCO Comm of the General Land Office Hemphill County         OVER VOTES                            Precinct 302                  Hemphill County          01 
03080040006000000   CNTHCO Comm of the General Land Office Hemphill County         OVER VOTES                            Precinct 303                  Hemphill County          01 
03080040007000000   CNTHCO Comm of the General Land Office Hemphill County         OVER VOTES                            Precinct 401                  Hemphill County          01 
03080040008000000   CNTHCO Comm of the General Land Office Hemphill County         OVER VOTES                            Precinct 402                  Hemphill County          01 
03080050001000015   CNTHCO Comm of the General Land Office Hemphill County         UNDER VOTES                           Precinct 101                  Hemphill County          01 
03080050002000016   CNTHCO Comm of the General Land Office Hemphill County         UNDER VOTES                           Precinct 201                  Hemphill County          01 
03080050003000001   CNTHCO Comm of the General Land Office Hemphill County         UNDER VOTES                           Precinct 202                  Hemphill County          01 
03080050004000009   CNTHCO Comm of the General Land Office Hemphill County         UNDER VOTES                           Precinct 301                  Hemphill County          01 
03080050005000001   CNTHCO Comm of the General Land Office Hemphill County         UNDER VOTES                           Precinct 302                  Hemphill County          01 
03080050006000001   CNTHCO Comm of the General Land Office Hemphill County         UNDER VOTES                           Precinct 303                  Hemphill County          01 
03080050007000003   CNTHCO Comm of the General Land Office Hemphill County         UNDER VOTES                           Precinct 401                  Hemphill County          01 
03080050008000004   CNTHCO Comm of the General Land Office Hemphill County         UNDER VOTES                           Precinct 402                  Hemphill County          01 
03090010001000213REPCNTHCO Commissioner of Agriculture Hemphill County             Sid Miller                            Precinct 101                  Hemphill County          01 
03090010002000223REPCNTHCO Commissioner of Agriculture Hemphill County             Sid Miller                            Precinct 201                  Hemphill County          01 
03090010003000018REPCNTHCO Commissioner of Agriculture Hemphill County             Sid Miller                            Precinct 202                  Hemphill County          01 
03090010004000334REPCNTHCO Commissioner of Agriculture Hemphill County             Sid Miller                            Precinct 301                  Hemphill County          01 
03090010005000025REPCNTHCO Commissioner of Agriculture Hemphill County             Sid Miller                            Precinct 302                  Hemphill County          01 
03090010006000069REPCNTHCO Commissioner of Agriculture Hemphill County             Sid Miller                            Precinct 303                  Hemphill County          01 
03090010007000187REPCNTHCO Commissioner of Agriculture Hemphill County             Sid Miller                            Precinct 401                  Hemphill County          01 
03090010008000068REPCNTHCO Commissioner of Agriculture Hemphill County             Sid Miller                            Precinct 402                  Hemphill County          01 
03090020001000050DEMCNTHCO Commissioner of Agriculture Hemphill County             Kim Olson                             Precinct 101                  Hemphill County          01 
03090020002000040DEMCNTHCO Commissioner of Agriculture Hemphill County             Kim Olson                             Precinct 201                  Hemphill County          01 
03090020003000001DEMCNTHCO Commissioner of Agriculture Hemphill County             Kim Olson                             Precinct 202                  Hemphill County          01 
03090020004000044DEMCNTHCO Commissioner of Agriculture Hemphill County             Kim Olson                             Precinct 301                  Hemphill County          01 
03090020005000005DEMCNTHCO Commissioner of Agriculture Hemphill County             Kim Olson                             Precinct 302                  Hemphill County          01 
03090020006000008DEMCNTHCO Commissioner of Agriculture Hemphill County             Kim Olson                             Precinct 303                  Hemphill County          01 
03090020007000017DEMCNTHCO Commissioner of Agriculture Hemphill County             Kim Olson                             Precinct 401                  Hemphill County          01 
03090020008000014DEMCNTHCO Commissioner of Agriculture Hemphill County             Kim Olson                             Precinct 402                  Hemphill County          01 
03090030001000002LIBCNTHCO Commissioner of Agriculture Hemphill County             Richard Carpenter                     Precinct 101                  Hemphill County          01 
03090030002000008LIBCNTHCO Commissioner of Agriculture Hemphill County             Richard Carpenter                     Precinct 201                  Hemphill County          01 
03090030003000000LIBCNTHCO Commissioner of Agriculture Hemphill County             Richard Carpenter                     Precinct 202                  Hemphill County          01 
03090030004000004LIBCNTHCO Commissioner of Agriculture Hemphill County             Richard Carpenter                     Precinct 301                  Hemphill County          01 
03090030005000000LIBCNTHCO Commissioner of Agriculture Hemphill County             Richard Carpenter                     Precinct 302                  Hemphill County          01 
03090030006000000LIBCNTHCO Commissioner of Agriculture Hemphill County             Richard Carpenter                     Precinct 303                  Hemphill County          01 
03090030007000003LIBCNTHCO Commissioner of Agriculture Hemphill County             Richard Carpenter                     Precinct 401                  Hemphill County          01 
03090030008000000LIBCNTHCO Commissioner of Agriculture Hemphill County             Richard Carpenter                     Precinct 402                  Hemphill County          01 
03090040001000000   CNTHCO Commissioner of Agriculture Hemphill County             OVER VOTES                            Precinct 101                  Hemphill County          01 
03090040002000000   CNTHCO Commissioner of Agriculture Hemphill County             OVER VOTES                            Precinct 201                  Hemphill County          01 
03090040003000000   CNTHCO Commissioner of Agriculture Hemphill County             OVER VOTES                            Precinct 202                  Hemphill County          01 
03090040004000000   CNTHCO Commissioner of Agriculture Hemphill County             OVER VOTES                            Precinct 301                  Hemphill County          01 
03090040005000000   CNTHCO Commissioner of Agriculture Hemphill County             OVER VOTES                            Precinct 302                  Hemphill County          01 
03090040006000000   CNTHCO Commissioner of Agriculture Hemphill County             OVER VOTES                            Precinct 303                  Hemphill County          01 
03090040007000000   CNTHCO Commissioner of Agriculture Hemphill County             OVER VOTES                            Precinct 401                  Hemphill County          01 
03090040008000000   CNTHCO Commissioner of Agriculture Hemphill County             OVER VOTES                            Precinct 402                  Hemphill County          01 
03090050001000013   CNTHCO Commissioner of Agriculture Hemphill County             UNDER VOTES                           Precinct 101                  Hemphill County          01 
03090050002000019   CNTHCO Commissioner of Agriculture Hemphill County             UNDER VOTES                           Precinct 201                  Hemphill County          01 
03090050003000000   CNTHCO Commissioner of Agriculture Hemphill County             UNDER VOTES                           Precinct 202                  Hemphill County          01 
03090050004000015   CNTHCO Commissioner of Agriculture Hemphill County             UNDER VOTES                           Precinct 301                  Hemphill County          01 
03090050005000001   CNTHCO Commissioner of Agriculture Hemphill County             UNDER VOTES                           Precinct 302                  Hemphill County          01 
03090050006000001   CNTHCO Commissioner of Agriculture Hemphill County             UNDER VOTES                           Precinct 303                  Hemphill County          01 
03090050007000007   CNTHCO Commissioner of Agriculture Hemphill County             UNDER VOTES                           Precinct 401                  Hemphill County          01 
03090050008000004   CNTHCO Commissioner of Agriculture Hemphill County             UNDER VOTES                           Precinct 402                  Hemphill County          01 
03100010001000222REPCNTHCO Railroad Commissioner Hemphill County                   Christi Craddick                      Precinct 101                  Hemphill County          01 
03100010002000235REPCNTHCO Railroad Commissioner Hemphill County                   Christi Craddick                      Precinct 201                  Hemphill County          01 
03100010003000016REPCNTHCO Railroad Commissioner Hemphill County                   Christi Craddick                      Precinct 202                  Hemphill County          01 
03100010004000345REPCNTHCO Railroad Commissioner Hemphill County                   Christi Craddick                      Precinct 301                  Hemphill County          01 
03100010005000027REPCNTHCO Railroad Commissioner Hemphill County                   Christi Craddick                      Precinct 302                  Hemphill County          01 
03100010006000067REPCNTHCO Railroad Commissioner Hemphill County                   Christi Craddick                      Precinct 303                  Hemphill County          01 
03100010007000187REPCNTHCO Railroad Commissioner Hemphill County                   Christi Craddick                      Precinct 401                  Hemphill County          01 
03100010008000067REPCNTHCO Railroad Commissioner Hemphill County                   Christi Craddick                      Precinct 402                  Hemphill County          01 
03100020001000036DEMCNTHCO Railroad Commissioner Hemphill County                   Roman McAllen                         Precinct 101                  Hemphill County          01 
03100020002000027DEMCNTHCO Railroad Commissioner Hemphill County                   Roman McAllen                         Precinct 201                  Hemphill County          01 
03100020003000000DEMCNTHCO Railroad Commissioner Hemphill County                   Roman McAllen                         Precinct 202                  Hemphill County          01 
03100020004000031DEMCNTHCO Railroad Commissioner Hemphill County                   Roman McAllen                         Precinct 301                  Hemphill County          01 
03100020005000002DEMCNTHCO Railroad Commissioner Hemphill County                   Roman McAllen                         Precinct 302                  Hemphill County          01 
03100020006000008DEMCNTHCO Railroad Commissioner Hemphill County                   Roman McAllen                         Precinct 303                  Hemphill County          01 
03100020007000016DEMCNTHCO Railroad Commissioner Hemphill County                   Roman McAllen                         Precinct 401                  Hemphill County          01 
03100020008000012DEMCNTHCO Railroad Commissioner Hemphill County                   Roman McAllen                         Precinct 402                  Hemphill County          01 
03100030001000006LIBCNTHCO Railroad Commissioner Hemphill County                   Mike Wright                           Precinct 101                  Hemphill County          01 
03100030002000007LIBCNTHCO Railroad Commissioner Hemphill County                   Mike Wright                           Precinct 201                  Hemphill County          01 
03100030003000002LIBCNTHCO Railroad Commissioner Hemphill County                   Mike Wright                           Precinct 202                  Hemphill County          01 
03100030004000008LIBCNTHCO Railroad Commissioner Hemphill County                   Mike Wright                           Precinct 301                  Hemphill County          01 
03100030005000001LIBCNTHCO Railroad Commissioner Hemphill County                   Mike Wright                           Precinct 302                  Hemphill County          01 
03100030006000002LIBCNTHCO Railroad Commissioner Hemphill County                   Mike Wright                           Precinct 303                  Hemphill County          01 
03100030007000006LIBCNTHCO Railroad Commissioner Hemphill County                   Mike Wright                           Precinct 401                  Hemphill County          01 
03100030008000001LIBCNTHCO Railroad Commissioner Hemphill County                   Mike Wright                           Precinct 402                  Hemphill County          01 
03100040001000000   CNTHCO Railroad Commissioner Hemphill County                   OVER VOTES                            Precinct 101                  Hemphill County          01 
03100040002000000   CNTHCO Railroad Commissioner Hemphill County                   OVER VOTES                            Precinct 201                  Hemphill County          01 
03100040003000000   CNTHCO Railroad Commissioner Hemphill County                   OVER VOTES                            Precinct 202                  Hemphill County          01 
03100040004000000   CNTHCO Railroad Commissioner Hemphill County                   OVER VOTES                            Precinct 301                  Hemphill County          01 
03100040005000000   CNTHCO Railroad Commissioner Hemphill County                   OVER VOTES                            Precinct 302                  Hemphill County          01 
03100040006000000   CNTHCO Railroad Commissioner Hemphill County                   OVER VOTES                            Precinct 303                  Hemphill County          01 
03100040007000000   CNTHCO Railroad Commissioner Hemphill County                   OVER VOTES                            Precinct 401                  Hemphill County          01 
03100040008000000   CNTHCO Railroad Commissioner Hemphill County                   OVER VOTES                            Precinct 402                  Hemphill County          01 
03100050001000014   CNTHCO Railroad Commissioner Hemphill County                   UNDER VOTES                           Precinct 101                  Hemphill County          01 
03100050002000021   CNTHCO Railroad Commissioner Hemphill County                   UNDER VOTES                           Precinct 201                  Hemphill County          01 
03100050003000001   CNTHCO Railroad Commissioner Hemphill County                   UNDER VOTES                           Precinct 202                  Hemphill County          01 
03100050004000014   CNTHCO Railroad Commissioner Hemphill County                   UNDER VOTES                           Precinct 301                  Hemphill County          01 
03100050005000001   CNTHCO Railroad Commissioner Hemphill County                   UNDER VOTES                           Precinct 302                  Hemphill County          01 
03100050006000001   CNTHCO Railroad Commissioner Hemphill County                   UNDER VOTES                           Precinct 303                  Hemphill County          01 
03100050007000005   CNTHCO Railroad Commissioner Hemphill County                   UNDER VOTES                           Precinct 401                  Hemphill County          01 
03100050008000006   CNTHCO Railroad Commissioner Hemphill County                   UNDER VOTES                           Precinct 402                  Hemphill County          01 
03110010001000220REPCNTHCO Justice, Supreme Court, Pl 2 Hemphill County            Jimmy Blacklock                       Precinct 101                  Hemphill County          01 
03110010002000219REPCNTHCO Justice, Supreme Court, Pl 2 Hemphill County            Jimmy Blacklock                       Precinct 201                  Hemphill County          01 
03110010003000017REPCNTHCO Justice, Supreme Court, Pl 2 Hemphill County            Jimmy Blacklock                       Precinct 202                  Hemphill County          01 
03110010004000336REPCNTHCO Justice, Supreme Court, Pl 2 Hemphill County            Jimmy Blacklock                       Precinct 301                  Hemphill County          01 
03110010005000028REPCNTHCO Justice, Supreme Court, Pl 2 Hemphill County            Jimmy Blacklock                       Precinct 302                  Hemphill County          01 
03110010006000066REPCNTHCO Justice, Supreme Court, Pl 2 Hemphill County            Jimmy Blacklock                       Precinct 303                  Hemphill County          01 
03110010007000185REPCNTHCO Justice, Supreme Court, Pl 2 Hemphill County            Jimmy Blacklock                       Precinct 401                  Hemphill County          01 
03110010008000064REPCNTHCO Justice, Supreme Court, Pl 2 Hemphill County            Jimmy Blacklock                       Precinct 402                  Hemphill County          01 
03110020001000044DEMCNTHCO Justice, Supreme Court, Pl 2 Hemphill County            Steven Kirkland                       Precinct 101                  Hemphill County          01 
03110020002000042DEMCNTHCO Justice, Supreme Court, Pl 2 Hemphill County            Steven Kirkland                       Precinct 201                  Hemphill County          01 
03110020003000002DEMCNTHCO Justice, Supreme Court, Pl 2 Hemphill County            Steven Kirkland                       Precinct 202                  Hemphill County          01 
03110020004000043DEMCNTHCO Justice, Supreme Court, Pl 2 Hemphill County            Steven Kirkland                       Precinct 301                  Hemphill County          01 
03110020005000002DEMCNTHCO Justice, Supreme Court, Pl 2 Hemphill County            Steven Kirkland                       Precinct 302                  Hemphill County          01 
03110020006000009DEMCNTHCO Justice, Supreme Court, Pl 2 Hemphill County            Steven Kirkland                       Precinct 303                  Hemphill County          01 
03110020007000017DEMCNTHCO Justice, Supreme Court, Pl 2 Hemphill County            Steven Kirkland                       Precinct 401                  Hemphill County          01 
03110020008000014DEMCNTHCO Justice, Supreme Court, Pl 2 Hemphill County            Steven Kirkland                       Precinct 402                  Hemphill County          01 
03110030001000000   CNTHCO Justice, Supreme Court, Pl 2 Hemphill County            OVER VOTES                            Precinct 101                  Hemphill County          01 
03110030002000000   CNTHCO Justice, Supreme Court, Pl 2 Hemphill County            OVER VOTES                            Precinct 201                  Hemphill County          01 
03110030003000000   CNTHCO Justice, Supreme Court, Pl 2 Hemphill County            OVER VOTES                            Precinct 202                  Hemphill County          01 
03110030004000000   CNTHCO Justice, Supreme Court, Pl 2 Hemphill County            OVER VOTES                            Precinct 301                  Hemphill County          01 
03110030005000000   CNTHCO Justice, Supreme Court, Pl 2 Hemphill County            OVER VOTES                            Precinct 302                  Hemphill County          01 
03110030006000000   CNTHCO Justice, Supreme Court, Pl 2 Hemphill County            OVER VOTES                            Precinct 303                  Hemphill County          01 
03110030007000000   CNTHCO Justice, Supreme Court, Pl 2 Hemphill County            OVER VOTES                            Precinct 401                  Hemphill County          01 
03110030008000000   CNTHCO Justice, Supreme Court, Pl 2 Hemphill County            OVER VOTES                            Precinct 402                  Hemphill County          01 
03110040001000014   CNTHCO Justice, Supreme Court, Pl 2 Hemphill County            UNDER VOTES                           Precinct 101                  Hemphill County          01 
03110040002000030   CNTHCO Justice, Supreme Court, Pl 2 Hemphill County            UNDER VOTES                           Precinct 201                  Hemphill County          01 
03110040003000001   CNTHCO Justice, Supreme Court, Pl 2 Hemphill County            UNDER VOTES                           Precinct 202                  Hemphill County          01 
03110040004000020   CNTHCO Justice, Supreme Court, Pl 2 Hemphill County            UNDER VOTES                           Precinct 301                  Hemphill County          01 
03110040005000001   CNTHCO Justice, Supreme Court, Pl 2 Hemphill County            UNDER VOTES                           Precinct 302                  Hemphill County          01 
03110040006000003   CNTHCO Justice, Supreme Court, Pl 2 Hemphill County            UNDER VOTES                           Precinct 303                  Hemphill County          01 
03110040007000012   CNTHCO Justice, Supreme Court, Pl 2 Hemphill County            UNDER VOTES                           Precinct 401                  Hemphill County          01 
03110040008000009   CNTHCO Justice, Supreme Court, Pl 2 Hemphill County            UNDER VOTES                           Precinct 402                  Hemphill County          01 
03120010001000219REPCNTHCO Justice, Supreme Court, Pl 4 Hemphill County            John Devine                           Precinct 101                  Hemphill County          01 
03120010002000220REPCNTHCO Justice, Supreme Court, Pl 4 Hemphill County            John Devine                           Precinct 201                  Hemphill County          01 
03120010003000018REPCNTHCO Justice, Supreme Court, Pl 4 Hemphill County            John Devine                           Precinct 202                  Hemphill County          01 
03120010004000334REPCNTHCO Justice, Supreme Court, Pl 4 Hemphill County            John Devine                           Precinct 301                  Hemphill County          01 
03120010005000029REPCNTHCO Justice, Supreme Court, Pl 4 Hemphill County            John Devine                           Precinct 302                  Hemphill County          01 
03120010006000067REPCNTHCO Justice, Supreme Court, Pl 4 Hemphill County            John Devine                           Precinct 303                  Hemphill County          01 
03120010007000186REPCNTHCO Justice, Supreme Court, Pl 4 Hemphill County            John Devine                           Precinct 401                  Hemphill County          01 
03120010008000064REPCNTHCO Justice, Supreme Court, Pl 4 Hemphill County            John Devine                           Precinct 402                  Hemphill County          01 
03120020001000042DEMCNTHCO Justice, Supreme Court, Pl 4 Hemphill County            R.K. Sandill                          Precinct 101                  Hemphill County          01 
03120020002000040DEMCNTHCO Justice, Supreme Court, Pl 4 Hemphill County            R.K. Sandill                          Precinct 201                  Hemphill County          01 
03120020003000000DEMCNTHCO Justice, Supreme Court, Pl 4 Hemphill County            R.K. Sandill                          Precinct 202                  Hemphill County          01 
03120020004000041DEMCNTHCO Justice, Supreme Court, Pl 4 Hemphill County            R.K. Sandill                          Precinct 301                  Hemphill County          01 
03120020005000001DEMCNTHCO Justice, Supreme Court, Pl 4 Hemphill County            R.K. Sandill                          Precinct 302                  Hemphill County          01 
03120020006000009DEMCNTHCO Justice, Supreme Court, Pl 4 Hemphill County            R.K. Sandill                          Precinct 303                  Hemphill County          01 
03120020007000014DEMCNTHCO Justice, Supreme Court, Pl 4 Hemphill County            R.K. Sandill                          Precinct 401                  Hemphill County          01 
03120020008000014DEMCNTHCO Justice, Supreme Court, Pl 4 Hemphill County            R.K. Sandill                          Precinct 402                  Hemphill County          01 
03120030001000000   CNTHCO Justice, Supreme Court, Pl 4 Hemphill County            OVER VOTES                            Precinct 101                  Hemphill County          01 
03120030002000000   CNTHCO Justice, Supreme Court, Pl 4 Hemphill County            OVER VOTES                            Precinct 201                  Hemphill County          01 
03120030003000000   CNTHCO Justice, Supreme Court, Pl 4 Hemphill County            OVER VOTES                            Precinct 202                  Hemphill County          01 
03120030004000000   CNTHCO Justice, Supreme Court, Pl 4 Hemphill County            OVER VOTES                            Precinct 301                  Hemphill County          01 
03120030005000000   CNTHCO Justice, Supreme Court, Pl 4 Hemphill County            OVER VOTES                            Precinct 302                  Hemphill County          01 
03120030006000000   CNTHCO Justice, Supreme Court, Pl 4 Hemphill County            OVER VOTES                            Precinct 303                  Hemphill County          01 
03120030007000000   CNTHCO Justice, Supreme Court, Pl 4 Hemphill County            OVER VOTES                            Precinct 401                  Hemphill County          01 
03120030008000000   CNTHCO Justice, Supreme Court, Pl 4 Hemphill County            OVER VOTES                            Precinct 402                  Hemphill County          01 
03120040001000017   CNTHCO Justice, Supreme Court, Pl 4 Hemphill County            UNDER VOTES                           Precinct 101                  Hemphill County          01 
03120040002000030   CNTHCO Justice, Supreme Court, Pl 4 Hemphill County            UNDER VOTES                           Precinct 201                  Hemphill County          01 
03120040003000001   CNTHCO Justice, Supreme Court, Pl 4 Hemphill County            UNDER VOTES                           Precinct 202                  Hemphill County          01 
03120040004000022   CNTHCO Justice, Supreme Court, Pl 4 Hemphill County            UNDER VOTES                           Precinct 301                  Hemphill County          01 
03120040005000001   CNTHCO Justice, Supreme Court, Pl 4 Hemphill County            UNDER VOTES                           Precinct 302                  Hemphill County          01 
03120040006000002   CNTHCO Justice, Supreme Court, Pl 4 Hemphill County            UNDER VOTES                           Precinct 303                  Hemphill County          01 
03120040007000014   CNTHCO Justice, Supreme Court, Pl 4 Hemphill County            UNDER VOTES                           Precinct 401                  Hemphill County          01 
03120040008000008   CNTHCO Justice, Supreme Court, Pl 4 Hemphill County            UNDER VOTES                           Precinct 402                  Hemphill County          01 
03130010001000221REPCNTHCO Justice, Supreme Court, Pl 6 Hemphill County            Jeff Brown                            Precinct 101                  Hemphill County          01 
03130010002000221REPCNTHCO Justice, Supreme Court, Pl 6 Hemphill County            Jeff Brown                            Precinct 201                  Hemphill County          01 
03130010003000016REPCNTHCO Justice, Supreme Court, Pl 6 Hemphill County            Jeff Brown                            Precinct 202                  Hemphill County          01 
03130010004000341REPCNTHCO Justice, Supreme Court, Pl 6 Hemphill County            Jeff Brown                            Precinct 301                  Hemphill County          01 
03130010005000029REPCNTHCO Justice, Supreme Court, Pl 6 Hemphill County            Jeff Brown                            Precinct 302                  Hemphill County          01 
03130010006000068REPCNTHCO Justice, Supreme Court, Pl 6 Hemphill County            Jeff Brown                            Precinct 303                  Hemphill County          01 
03130010007000187REPCNTHCO Justice, Supreme Court, Pl 6 Hemphill County            Jeff Brown                            Precinct 401                  Hemphill County          01 
03130010008000065REPCNTHCO Justice, Supreme Court, Pl 6 Hemphill County            Jeff Brown                            Precinct 402                  Hemphill County          01 
03130020001000041DEMCNTHCO Justice, Supreme Court, Pl 6 Hemphill County            Kathy Cheng                           Precinct 101                  Hemphill County          01 
03130020002000040DEMCNTHCO Justice, Supreme Court, Pl 6 Hemphill County            Kathy Cheng                           Precinct 201                  Hemphill County          01 
03130020003000002DEMCNTHCO Justice, Supreme Court, Pl 6 Hemphill County            Kathy Cheng                           Precinct 202                  Hemphill County          01 
03130020004000035DEMCNTHCO Justice, Supreme Court, Pl 6 Hemphill County            Kathy Cheng                           Precinct 301                  Hemphill County          01 
03130020005000001DEMCNTHCO Justice, Supreme Court, Pl 6 Hemphill County            Kathy Cheng                           Precinct 302                  Hemphill County          01 
03130020006000008DEMCNTHCO Justice, Supreme Court, Pl 6 Hemphill County            Kathy Cheng                           Precinct 303                  Hemphill County          01 
03130020007000013DEMCNTHCO Justice, Supreme Court, Pl 6 Hemphill County            Kathy Cheng                           Precinct 401                  Hemphill County          01 
03130020008000013DEMCNTHCO Justice, Supreme Court, Pl 6 Hemphill County            Kathy Cheng                           Precinct 402                  Hemphill County          01 
03130030001000000   CNTHCO Justice, Supreme Court, Pl 6 Hemphill County            OVER VOTES                            Precinct 101                  Hemphill County          01 
03130030002000000   CNTHCO Justice, Supreme Court, Pl 6 Hemphill County            OVER VOTES                            Precinct 201                  Hemphill County          01 
03130030003000000   CNTHCO Justice, Supreme Court, Pl 6 Hemphill County            OVER VOTES                            Precinct 202                  Hemphill County          01 
03130030004000000   CNTHCO Justice, Supreme Court, Pl 6 Hemphill County            OVER VOTES                            Precinct 301                  Hemphill County          01 
03130030005000000   CNTHCO Justice, Supreme Court, Pl 6 Hemphill County            OVER VOTES                            Precinct 302                  Hemphill County          01 
03130030006000000   CNTHCO Justice, Supreme Court, Pl 6 Hemphill County            OVER VOTES                            Precinct 303                  Hemphill County          01 
03130030007000000   CNTHCO Justice, Supreme Court, Pl 6 Hemphill County            OVER VOTES                            Precinct 401                  Hemphill County          01 
03130030008000000   CNTHCO Justice, Supreme Court, Pl 6 Hemphill County            OVER VOTES                            Precinct 402                  Hemphill County          01 
03130040001000016   CNTHCO Justice, Supreme Court, Pl 6 Hemphill County            UNDER VOTES                           Precinct 101                  Hemphill County          01 
03130040002000029   CNTHCO Justice, Supreme Court, Pl 6 Hemphill County            UNDER VOTES                           Precinct 201                  Hemphill County          01 
03130040003000001   CNTHCO Justice, Supreme Court, Pl 6 Hemphill County            UNDER VOTES                           Precinct 202                  Hemphill County          01 
03130040004000021   CNTHCO Justice, Supreme Court, Pl 6 Hemphill County            UNDER VOTES                           Precinct 301                  Hemphill County          01 
03130040005000001   CNTHCO Justice, Supreme Court, Pl 6 Hemphill County            UNDER VOTES                           Precinct 302                  Hemphill County          01 
03130040006000002   CNTHCO Justice, Supreme Court, Pl 6 Hemphill County            UNDER VOTES                           Precinct 303                  Hemphill County          01 
03130040007000014   CNTHCO Justice, Supreme Court, Pl 6 Hemphill County            UNDER VOTES                           Precinct 401                  Hemphill County          01 
03130040008000008   CNTHCO Justice, Supreme Court, Pl 6 Hemphill County            UNDER VOTES                           Precinct 402                  Hemphill County          01 
03140010001000217REPCNTHCO Presiding Judge, Ct of Crim App Hemphill County         Sharon Keller                         Precinct 101                  Hemphill County          01 
03140010002000221REPCNTHCO Presiding Judge, Ct of Crim App Hemphill County         Sharon Keller                         Precinct 201                  Hemphill County          01 
03140010003000017REPCNTHCO Presiding Judge, Ct of Crim App Hemphill County         Sharon Keller                         Precinct 202                  Hemphill County          01 
03140010004000333REPCNTHCO Presiding Judge, Ct of Crim App Hemphill County         Sharon Keller                         Precinct 301                  Hemphill County          01 
03140010005000027REPCNTHCO Presiding Judge, Ct of Crim App Hemphill County         Sharon Keller                         Precinct 302                  Hemphill County          01 
03140010006000066REPCNTHCO Presiding Judge, Ct of Crim App Hemphill County         Sharon Keller                         Precinct 303                  Hemphill County          01 
03140010007000188REPCNTHCO Presiding Judge, Ct of Crim App Hemphill County         Sharon Keller                         Precinct 401                  Hemphill County          01 
03140010008000062REPCNTHCO Presiding Judge, Ct of Crim App Hemphill County         Sharon Keller                         Precinct 402                  Hemphill County          01 
03140020001000045DEMCNTHCO Presiding Judge, Ct of Crim App Hemphill County         Maria T. (Terri) Jackson              Precinct 101                  Hemphill County          01 
03140020002000036DEMCNTHCO Presiding Judge, Ct of Crim App Hemphill County         Maria T. (Terri) Jackson              Precinct 201                  Hemphill County          01 
03140020003000000DEMCNTHCO Presiding Judge, Ct of Crim App Hemphill County         Maria T. (Terri) Jackson              Precinct 202                  Hemphill County          01 
03140020004000038DEMCNTHCO Presiding Judge, Ct of Crim App Hemphill County         Maria T. (Terri) Jackson              Precinct 301                  Hemphill County          01 
03140020005000002DEMCNTHCO Presiding Judge, Ct of Crim App Hemphill County         Maria T. (Terri) Jackson              Precinct 302                  Hemphill County          01 
03140020006000010DEMCNTHCO Presiding Judge, Ct of Crim App Hemphill County         Maria T. (Terri) Jackson              Precinct 303                  Hemphill County          01 
03140020007000010DEMCNTHCO Presiding Judge, Ct of Crim App Hemphill County         Maria T. (Terri) Jackson              Precinct 401                  Hemphill County          01 
03140020008000012DEMCNTHCO Presiding Judge, Ct of Crim App Hemphill County         Maria T. (Terri) Jackson              Precinct 402                  Hemphill County          01 
03140030001000002LIBCNTHCO Presiding Judge, Ct of Crim App Hemphill County         William Bryan Strange III             Precinct 101                  Hemphill County          01 
03140030002000005LIBCNTHCO Presiding Judge, Ct of Crim App Hemphill County         William Bryan Strange III             Precinct 201                  Hemphill County          01 
03140030003000001LIBCNTHCO Presiding Judge, Ct of Crim App Hemphill County         William Bryan Strange III             Precinct 202                  Hemphill County          01 
03140030004000006LIBCNTHCO Presiding Judge, Ct of Crim App Hemphill County         William Bryan Strange III             Precinct 301                  Hemphill County          01 
03140030005000001LIBCNTHCO Presiding Judge, Ct of Crim App Hemphill County         William Bryan Strange III             Precinct 302                  Hemphill County          01 
03140030006000000LIBCNTHCO Presiding Judge, Ct of Crim App Hemphill County         William Bryan Strange III             Precinct 303                  Hemphill County          01 
03140030007000003LIBCNTHCO Presiding Judge, Ct of Crim App Hemphill County         William Bryan Strange III             Precinct 401                  Hemphill County          01 
03140030008000003LIBCNTHCO Presiding Judge, Ct of Crim App Hemphill County         William Bryan Strange III             Precinct 402                  Hemphill County          01 
03140040001000000   CNTHCO Presiding Judge, Ct of Crim App Hemphill County         OVER VOTES                            Precinct 101                  Hemphill County          01 
03140040002000000   CNTHCO Presiding Judge, Ct of Crim App Hemphill County         OVER VOTES                            Precinct 201                  Hemphill County          01 
03140040003000000   CNTHCO Presiding Judge, Ct of Crim App Hemphill County         OVER VOTES                            Precinct 202                  Hemphill County          01 
03140040004000000   CNTHCO Presiding Judge, Ct of Crim App Hemphill County         OVER VOTES                            Precinct 301                  Hemphill County          01 
03140040005000000   CNTHCO Presiding Judge, Ct of Crim App Hemphill County         OVER VOTES                            Precinct 302                  Hemphill County          01 
03140040006000000   CNTHCO Presiding Judge, Ct of Crim App Hemphill County         OVER VOTES                            Precinct 303                  Hemphill County          01 
03140040007000000   CNTHCO Presiding Judge, Ct of Crim App Hemphill County         OVER VOTES                            Precinct 401                  Hemphill County          01 
03140040008000000   CNTHCO Presiding Judge, Ct of Crim App Hemphill County         OVER VOTES                            Precinct 402                  Hemphill County          01 
03140050001000014   CNTHCO Presiding Judge, Ct of Crim App Hemphill County         UNDER VOTES                           Precinct 101                  Hemphill County          01 
03140050002000028   CNTHCO Presiding Judge, Ct of Crim App Hemphill County         UNDER VOTES                           Precinct 201                  Hemphill County          01 
03140050003000001   CNTHCO Presiding Judge, Ct of Crim App Hemphill County         UNDER VOTES                           Precinct 202                  Hemphill County          01 
03140050004000020   CNTHCO Presiding Judge, Ct of Crim App Hemphill County         UNDER VOTES                           Precinct 301                  Hemphill County          01 
03140050005000001   CNTHCO Presiding Judge, Ct of Crim App Hemphill County         UNDER VOTES                           Precinct 302                  Hemphill County          01 
03140050006000002   CNTHCO Presiding Judge, Ct of Crim App Hemphill County         UNDER VOTES                           Precinct 303                  Hemphill County          01 
03140050007000013   CNTHCO Presiding Judge, Ct of Crim App Hemphill County         UNDER VOTES                           Precinct 401                  Hemphill County          01 
03140050008000009   CNTHCO Presiding Judge, Ct of Crim App Hemphill County         UNDER VOTES                           Precinct 402                  Hemphill County          01 
03150010001000224REPCNTHCO Judge, Ct  of Crim Appeals, Pl 7 Hemphill County        Barbara Parker Hervey                 Precinct 101                  Hemphill County          01 
03150010002000225REPCNTHCO Judge, Ct  of Crim Appeals, Pl 7 Hemphill County        Barbara Parker Hervey                 Precinct 201                  Hemphill County          01 
03150010003000017REPCNTHCO Judge, Ct  of Crim Appeals, Pl 7 Hemphill County        Barbara Parker Hervey                 Precinct 202                  Hemphill County          01 
03150010004000339REPCNTHCO Judge, Ct  of Crim Appeals, Pl 7 Hemphill County        Barbara Parker Hervey                 Precinct 301                  Hemphill County          01 
03150010005000029REPCNTHCO Judge, Ct  of Crim Appeals, Pl 7 Hemphill County        Barbara Parker Hervey                 Precinct 302                  Hemphill County          01 
03150010006000068REPCNTHCO Judge, Ct  of Crim Appeals, Pl 7 Hemphill County        Barbara Parker Hervey                 Precinct 303                  Hemphill County          01 
03150010007000189REPCNTHCO Judge, Ct  of Crim Appeals, Pl 7 Hemphill County        Barbara Parker Hervey                 Precinct 401                  Hemphill County          01 
03150010008000065REPCNTHCO Judge, Ct  of Crim Appeals, Pl 7 Hemphill County        Barbara Parker Hervey                 Precinct 402                  Hemphill County          01 
03150020001000039DEMCNTHCO Judge, Ct  of Crim Appeals, Pl 7 Hemphill County        Ramona Franklin                       Precinct 101                  Hemphill County          01 
03150020002000037DEMCNTHCO Judge, Ct  of Crim Appeals, Pl 7 Hemphill County        Ramona Franklin                       Precinct 201                  Hemphill County          01 
03150020003000001DEMCNTHCO Judge, Ct  of Crim Appeals, Pl 7 Hemphill County        Ramona Franklin                       Precinct 202                  Hemphill County          01 
03150020004000036DEMCNTHCO Judge, Ct  of Crim Appeals, Pl 7 Hemphill County        Ramona Franklin                       Precinct 301                  Hemphill County          01 
03150020005000001DEMCNTHCO Judge, Ct  of Crim Appeals, Pl 7 Hemphill County        Ramona Franklin                       Precinct 302                  Hemphill County          01 
03150020006000008DEMCNTHCO Judge, Ct  of Crim Appeals, Pl 7 Hemphill County        Ramona Franklin                       Precinct 303                  Hemphill County          01 
03150020007000011DEMCNTHCO Judge, Ct  of Crim Appeals, Pl 7 Hemphill County        Ramona Franklin                       Precinct 401                  Hemphill County          01 
03150020008000012DEMCNTHCO Judge, Ct  of Crim Appeals, Pl 7 Hemphill County        Ramona Franklin                       Precinct 402                  Hemphill County          01 
03150030001000000   CNTHCO Judge, Ct  of Crim Appeals, Pl 7 Hemphill County        OVER VOTES                            Precinct 101                  Hemphill County          01 
03150030002000000   CNTHCO Judge, Ct  of Crim Appeals, Pl 7 Hemphill County        OVER VOTES                            Precinct 201                  Hemphill County          01 
03150030003000000   CNTHCO Judge, Ct  of Crim Appeals, Pl 7 Hemphill County        OVER VOTES                            Precinct 202                  Hemphill County          01 
03150030004000000   CNTHCO Judge, Ct  of Crim Appeals, Pl 7 Hemphill County        OVER VOTES                            Precinct 301                  Hemphill County          01 
03150030005000000   CNTHCO Judge, Ct  of Crim Appeals, Pl 7 Hemphill County        OVER VOTES                            Precinct 302                  Hemphill County          01 
03150030006000000   CNTHCO Judge, Ct  of Crim Appeals, Pl 7 Hemphill County        OVER VOTES                            Precinct 303                  Hemphill County          01 
03150030007000000   CNTHCO Judge, Ct  of Crim Appeals, Pl 7 Hemphill County        OVER VOTES                            Precinct 401                  Hemphill County          01 
03150030008000000   CNTHCO Judge, Ct  of Crim Appeals, Pl 7 Hemphill County        OVER VOTES                            Precinct 402                  Hemphill County          01 
03150040001000015   CNTHCO Judge, Ct  of Crim Appeals, Pl 7 Hemphill County        UNDER VOTES                           Precinct 101                  Hemphill County          01 
03150040002000028   CNTHCO Judge, Ct  of Crim Appeals, Pl 7 Hemphill County        UNDER VOTES                           Precinct 201                  Hemphill County          01 
03150040003000001   CNTHCO Judge, Ct  of Crim Appeals, Pl 7 Hemphill County        UNDER VOTES                           Precinct 202                  Hemphill County          01 
03150040004000021   CNTHCO Judge, Ct  of Crim Appeals, Pl 7 Hemphill County        UNDER VOTES                           Precinct 301                  Hemphill County          01 
03150040005000001   CNTHCO Judge, Ct  of Crim Appeals, Pl 7 Hemphill County        UNDER VOTES                           Precinct 302                  Hemphill County          01 
03150040006000002   CNTHCO Judge, Ct  of Crim Appeals, Pl 7 Hemphill County        UNDER VOTES                           Precinct 303                  Hemphill County          01 
03150040007000014   CNTHCO Judge, Ct  of Crim Appeals, Pl 7 Hemphill County        UNDER VOTES                           Precinct 401                  Hemphill County          01 
03150040008000009   CNTHCO Judge, Ct  of Crim Appeals, Pl 7 Hemphill County        UNDER VOTES                           Precinct 402                  Hemphill County          01 
03160010001000227REPCNTHCO Judge, Ct  of Crim Appeals, Pl 8 Hemphill County        Michelle Slaughter                    Precinct 101                  Hemphill County          01 
03160010002000233REPCNTHCO Judge, Ct  of Crim Appeals, Pl 8 Hemphill County        Michelle Slaughter                    Precinct 201                  Hemphill County          01 
03160010003000017REPCNTHCO Judge, Ct  of Crim Appeals, Pl 8 Hemphill County        Michelle Slaughter                    Precinct 202                  Hemphill County          01 
03160010004000349REPCNTHCO Judge, Ct  of Crim Appeals, Pl 8 Hemphill County        Michelle Slaughter                    Precinct 301                  Hemphill County          01 
03160010005000028REPCNTHCO Judge, Ct  of Crim Appeals, Pl 8 Hemphill County        Michelle Slaughter                    Precinct 302                  Hemphill County          01 
03160010006000067REPCNTHCO Judge, Ct  of Crim Appeals, Pl 8 Hemphill County        Michelle Slaughter                    Precinct 303                  Hemphill County          01 
03160010007000190REPCNTHCO Judge, Ct  of Crim Appeals, Pl 8 Hemphill County        Michelle Slaughter                    Precinct 401                  Hemphill County          01 
03160010008000069REPCNTHCO Judge, Ct  of Crim Appeals, Pl 8 Hemphill County        Michelle Slaughter                    Precinct 402                  Hemphill County          01 
03160020001000020LIBCNTHCO Judge, Ct  of Crim Appeals, Pl 8 Hemphill County        Mark Ash                              Precinct 101                  Hemphill County          01 
03160020002000020LIBCNTHCO Judge, Ct  of Crim Appeals, Pl 8 Hemphill County        Mark Ash                              Precinct 201                  Hemphill County          01 
03160020003000001LIBCNTHCO Judge, Ct  of Crim Appeals, Pl 8 Hemphill County        Mark Ash                              Precinct 202                  Hemphill County          01 
03160020004000022LIBCNTHCO Judge, Ct  of Crim Appeals, Pl 8 Hemphill County        Mark Ash                              Precinct 301                  Hemphill County          01 
03160020005000001LIBCNTHCO Judge, Ct  of Crim Appeals, Pl 8 Hemphill County        Mark Ash                              Precinct 302                  Hemphill County          01 
03160020006000001LIBCNTHCO Judge, Ct  of Crim Appeals, Pl 8 Hemphill County        Mark Ash                              Precinct 303                  Hemphill County          01 
03160020007000011LIBCNTHCO Judge, Ct  of Crim Appeals, Pl 8 Hemphill County        Mark Ash                              Precinct 401                  Hemphill County          01 
03160020008000007LIBCNTHCO Judge, Ct  of Crim Appeals, Pl 8 Hemphill County        Mark Ash                              Precinct 402                  Hemphill County          01 
03160030001000000   CNTHCO Judge, Ct  of Crim Appeals, Pl 8 Hemphill County        OVER VOTES                            Precinct 101                  Hemphill County          01 
03160030002000000   CNTHCO Judge, Ct  of Crim Appeals, Pl 8 Hemphill County        OVER VOTES                            Precinct 201                  Hemphill County          01 
03160030003000000   CNTHCO Judge, Ct  of Crim Appeals, Pl 8 Hemphill County        OVER VOTES                            Precinct 202                  Hemphill County          01 
03160030004000000   CNTHCO Judge, Ct  of Crim Appeals, Pl 8 Hemphill County        OVER VOTES                            Precinct 301                  Hemphill County          01 
03160030005000000   CNTHCO Judge, Ct  of Crim Appeals, Pl 8 Hemphill County        OVER VOTES                            Precinct 302                  Hemphill County          01 
03160030006000001   CNTHCO Judge, Ct  of Crim Appeals, Pl 8 Hemphill County        OVER VOTES                            Precinct 303                  Hemphill County          01 
03160030007000000   CNTHCO Judge, Ct  of Crim Appeals, Pl 8 Hemphill County        OVER VOTES                            Precinct 401                  Hemphill County          01 
03160030008000000   CNTHCO Judge, Ct  of Crim Appeals, Pl 8 Hemphill County        OVER VOTES                            Precinct 402                  Hemphill County          01 
