01010010001000000          REGISTERED VOTERS - TOTAL                               REGISTERED VOTERS - TOTAL             PRECINCT 101                                           00 
01010010002000000          REGISTERED VOTERS - TOTAL                               REGISTERED VOTERS - TOTAL             PRECINCT 102                                           00 
01010010003000000          REGISTERED VOTERS - TOTAL                               REGISTERED VOTERS - TOTAL             PRECINCT 103                                           00 
01010010004000000          REGISTERED VOTERS - TOTAL                               REGISTERED VOTERS - TOTAL             PRECINCT 201                                           00 
01010010005000000          REGISTERED VOTERS - TOTAL                               REGISTERED VOTERS - TOTAL             PRECINCT 202                                           00 
01010010006000000          REGISTERED VOTERS - TOTAL                               REGISTERED VOTERS - TOTAL             PRECINCT 203                                           00 
01010010007000000          REGISTERED VOTERS - TOTAL                               REGISTERED VOTERS - TOTAL             PRECINCT 301                                           00 
01010010008000000          REGISTERED VOTERS - TOTAL                               REGISTERED VOTERS - TOTAL             PRECINCT 302                                           00 
01010010009000000          REGISTERED VOTERS - TOTAL                               REGISTERED VOTERS - TOTAL             PRECINCT 303                                           00 
01010010010000000          REGISTERED VOTERS - TOTAL                               REGISTERED VOTERS - TOTAL             PRECINCT 401                                           00 
01010010011000000          REGISTERED VOTERS - TOTAL                               REGISTERED VOTERS - TOTAL             PRECINCT 402                                           00 
01020010001000644          BALLOTS CAST - TOTAL                                    BALLOTS CAST - TOTAL                  PRECINCT 101                                           00 
01020010002000080          BALLOTS CAST - TOTAL                                    BALLOTS CAST - TOTAL                  PRECINCT 102                                           00 
01020010003000227          BALLOTS CAST - TOTAL                                    BALLOTS CAST - TOTAL                  PRECINCT 103                                           00 
01020010004000851          BALLOTS CAST - TOTAL                                    BALLOTS CAST - TOTAL                  PRECINCT 201                                           00 
01020010005000142          BALLOTS CAST - TOTAL                                    BALLOTS CAST - TOTAL                  PRECINCT 202                                           00 
01020010006000160          BALLOTS CAST - TOTAL                                    BALLOTS CAST - TOTAL                  PRECINCT 203                                           00 
01020010007000146          BALLOTS CAST - TOTAL                                    BALLOTS CAST - TOTAL                  PRECINCT 301                                           00 
01020010008000576          BALLOTS CAST - TOTAL                                    BALLOTS CAST - TOTAL                  PRECINCT 302                                           00 
01020010009000688          BALLOTS CAST - TOTAL                                    BALLOTS CAST - TOTAL                  PRECINCT 303                                           00 
01020010010000789          BALLOTS CAST - TOTAL                                    BALLOTS CAST - TOTAL                  PRECINCT 401                                           00 
01020010011000693          BALLOTS CAST - TOTAL                                    BALLOTS CAST - TOTAL                  PRECINCT 402                                           00 
01030010001000324REP       Straight Party                                          Republican Party                      PRECINCT 101                                           01 
01030010002000025REP       Straight Party                                          Republican Party                      PRECINCT 102                                           01 
01030010003000102REP       Straight Party                                          Republican Party                      PRECINCT 103                                           01 
01030010004000326REP       Straight Party                                          Republican Party                      PRECINCT 201                                           01 
01030010005000054REP       Straight Party                                          Republican Party                      PRECINCT 202                                           01 
01030010006000082REP       Straight Party                                          Republican Party                      PRECINCT 203                                           01 
01030010007000079REP       Straight Party                                          Republican Party                      PRECINCT 301                                           01 
01030010008000349REP       Straight Party                                          Republican Party                      PRECINCT 302                                           01 
01030010009000387REP       Straight Party                                          Republican Party                      PRECINCT 303                                           01 
01030010010000446REP       Straight Party                                          Republican Party                      PRECINCT 401                                           01 
01030010011000288REP       Straight Party                                          Republican Party                      PRECINCT 402                                           01 
01030020001000055DEM       Straight Party                                          Democratic Party                      PRECINCT 101                                           01 
01030020002000023DEM       Straight Party                                          Democratic Party                      PRECINCT 102                                           01 
01030020003000029DEM       Straight Party                                          Democratic Party                      PRECINCT 103                                           01 
01030020004000130DEM       Straight Party                                          Democratic Party                      PRECINCT 201                                           01 
01030020005000015DEM       Straight Party                                          Democratic Party                      PRECINCT 202                                           01 
01030020006000010DEM       Straight Party                                          Democratic Party                      PRECINCT 203                                           01 
01030020007000010DEM       Straight Party                                          Democratic Party                      PRECINCT 301                                           01 
01030020008000032DEM       Straight Party                                          Democratic Party                      PRECINCT 302                                           01 
01030020009000034DEM       Straight Party                                          Democratic Party                      PRECINCT 303                                           01 
01030020010000042DEM       Straight Party                                          Democratic Party                      PRECINCT 401                                           01 
01030020011000081DEM       Straight Party                                          Democratic Party                      PRECINCT 402                                           01 
01030030001000001LIB       Straight Party                                          Libertarian Party                     PRECINCT 101                                           01 
01030030002000001LIB       Straight Party                                          Libertarian Party                     PRECINCT 102                                           01 
01030030003000000LIB       Straight Party                                          Libertarian Party                     PRECINCT 103                                           01 
01030030004000002LIB       Straight Party                                          Libertarian Party                     PRECINCT 201                                           01 
01030030005000001LIB       Straight Party                                          Libertarian Party                     PRECINCT 202                                           01 
01030030006000001LIB       Straight Party                                          Libertarian Party                     PRECINCT 203                                           01 
01030030007000001LIB       Straight Party                                          Libertarian Party                     PRECINCT 301                                           01 
01030030008000002LIB       Straight Party                                          Libertarian Party                     PRECINCT 302                                           01 
01030030009000001LIB       Straight Party                                          Libertarian Party                     PRECINCT 303                                           01 
01030030010000001LIB       Straight Party                                          Libertarian Party                     PRECINCT 401                                           01 
01030030011000001LIB       Straight Party                                          Libertarian Party                     PRECINCT 402                                           01 
01030040001000000          Straight Party                                          OVER VOTES                            PRECINCT 101                                           01 
01030040002000000          Straight Party                                          OVER VOTES                            PRECINCT 102                                           01 
01030040003000000          Straight Party                                          OVER VOTES                            PRECINCT 103                                           01 
01030040004000000          Straight Party                                          OVER VOTES                            PRECINCT 201                                           01 
01030040005000000          Straight Party                                          OVER VOTES                            PRECINCT 202                                           01 
01030040006000000          Straight Party                                          OVER VOTES                            PRECINCT 203                                           01 
01030040007000000          Straight Party                                          OVER VOTES                            PRECINCT 301                                           01 
01030040008000000          Straight Party                                          OVER VOTES                            PRECINCT 302                                           01 
01030040009000000          Straight Party                                          OVER VOTES                            PRECINCT 303                                           01 
01030040010000000          Straight Party                                          OVER VOTES                            PRECINCT 401                                           01 
01030040011000000          Straight Party                                          OVER VOTES                            PRECINCT 402                                           01 
01030050001000264          Straight Party                                          UNDER VOTES                           PRECINCT 101                                           01 
01030050002000031          Straight Party                                          UNDER VOTES                           PRECINCT 102                                           01 
01030050003000096          Straight Party                                          UNDER VOTES                           PRECINCT 103                                           01 
01030050004000393          Straight Party                                          UNDER VOTES                           PRECINCT 201                                           01 
01030050005000072          Straight Party                                          UNDER VOTES                           PRECINCT 202                                           01 
01030050006000067          Straight Party                                          UNDER VOTES                           PRECINCT 203                                           01 
01030050007000056          Straight Party                                          UNDER VOTES                           PRECINCT 301                                           01 
01030050008000193          Straight Party                                          UNDER VOTES                           PRECINCT 302                                           01 
01030050009000266          Straight Party                                          UNDER VOTES                           PRECINCT 303                                           01 
01030050010000300          Straight Party                                          UNDER VOTES                           PRECINCT 401                                           01 
01030050011000323          Straight Party                                          UNDER VOTES                           PRECINCT 402                                           01 
01040010001000531REP       US Senator                                              Ted Cruz                              PRECINCT 101                                           01 
01040010002000047REP       US Senator                                              Ted Cruz                              PRECINCT 102                                           01 
01040010003000168REP       US Senator                                              Ted Cruz                              PRECINCT 103                                           01 
01040010004000637REP       US Senator                                              Ted Cruz                              PRECINCT 201                                           01 
01040010005000114REP       US Senator                                              Ted Cruz                              PRECINCT 202                                           01 
01040010006000142REP       US Senator                                              Ted Cruz                              PRECINCT 203                                           01 
01040010007000133REP       US Senator                                              Ted Cruz                              PRECINCT 301                                           01 
01040010008000507REP       US Senator                                              Ted Cruz                              PRECINCT 302                                           01 
01040010009000607REP       US Senator                                              Ted Cruz                              PRECINCT 303                                           01 
01040010010000687REP       US Senator                                              Ted Cruz                              PRECINCT 401                                           01 
01040010011000542REP       US Senator                                              Ted Cruz                              PRECINCT 402                                           01 
01040020001000108DEM       US Senator                                              Beto O'Rourke                         PRECINCT 101                                           01 
01040020002000032DEM       US Senator                                              Beto O'Rourke                         PRECINCT 102                                           01 
01040020003000058DEM       US Senator                                              Beto O'Rourke                         PRECINCT 103                                           01 
01040020004000207DEM       US Senator                                              Beto O'Rourke                         PRECINCT 201                                           01 
01040020005000026DEM       US Senator                                              Beto O'Rourke                         PRECINCT 202                                           01 
01040020006000013DEM       US Senator                                              Beto O'Rourke                         PRECINCT 203                                           01 
01040020007000012DEM       US Senator                                              Beto O'Rourke                         PRECINCT 301                                           01 
01040020008000063DEM       US Senator                                              Beto O'Rourke                         PRECINCT 302                                           01 
01040020009000077DEM       US Senator                                              Beto O'Rourke                         PRECINCT 303                                           01 
01040020010000090DEM       US Senator                                              Beto O'Rourke                         PRECINCT 401                                           01 
01040020011000146DEM       US Senator                                              Beto O'Rourke                         PRECINCT 402                                           01 
01040030001000003LIB       US Senator                                              Neal M. Dikeman                       PRECINCT 101                                           01 
01040030002000000LIB       US Senator                                              Neal M. Dikeman                       PRECINCT 102                                           01 
01040030003000000LIB       US Senator                                              Neal M. Dikeman                       PRECINCT 103                                           01 
01040030004000003LIB       US Senator                                              Neal M. Dikeman                       PRECINCT 201                                           01 
01040030005000002LIB       US Senator                                              Neal M. Dikeman                       PRECINCT 202                                           01 
01040030006000005LIB       US Senator                                              Neal M. Dikeman                       PRECINCT 203                                           01 
01040030007000001LIB       US Senator                                              Neal M. Dikeman                       PRECINCT 301                                           01 
01040030008000005LIB       US Senator                                              Neal M. Dikeman                       PRECINCT 302                                           01 
01040030009000004LIB       US Senator                                              Neal M. Dikeman                       PRECINCT 303                                           01 
01040030010000010LIB       US Senator                                              Neal M. Dikeman                       PRECINCT 401                                           01 
01040030011000004LIB       US Senator                                              Neal M. Dikeman                       PRECINCT 402                                           01 
01040040001000000          US Senator                                              OVER VOTES                            PRECINCT 101                                           01 
01040040002000000          US Senator                                              OVER VOTES                            PRECINCT 102                                           01 
01040040003000000          US Senator                                              OVER VOTES                            PRECINCT 103                                           01 
01040040004000000          US Senator                                              OVER VOTES                            PRECINCT 201                                           01 
01040040005000000          US Senator                                              OVER VOTES                            PRECINCT 202                                           01 
01040040006000000          US Senator                                              OVER VOTES                            PRECINCT 203                                           01 
01040040007000000          US Senator                                              OVER VOTES                            PRECINCT 301                                           01 
01040040008000000          US Senator                                              OVER VOTES                            PRECINCT 302                                           01 
01040040009000000          US Senator                                              OVER VOTES                            PRECINCT 303                                           01 
01040040010000000          US Senator                                              OVER VOTES                            PRECINCT 401                                           01 
01040040011000000          US Senator                                              OVER VOTES                            PRECINCT 402                                           01 
01040050001000002          US Senator                                              UNDER VOTES                           PRECINCT 101                                           01 
01040050002000001          US Senator                                              UNDER VOTES                           PRECINCT 102                                           01 
01040050003000001          US Senator                                              UNDER VOTES                           PRECINCT 103                                           01 
01040050004000004          US Senator                                              UNDER VOTES                           PRECINCT 201                                           01 
01040050005000000          US Senator                                              UNDER VOTES                           PRECINCT 202                                           01 
01040050006000000          US Senator                                              UNDER VOTES                           PRECINCT 203                                           01 
01040050007000000          US Senator                                              UNDER VOTES                           PRECINCT 301                                           01 
01040050008000001          US Senator                                              UNDER VOTES                           PRECINCT 302                                           01 
01040050009000000          US Senator                                              UNDER VOTES                           PRECINCT 303                                           01 
01040050010000002          US Senator                                              UNDER VOTES                           PRECINCT 401                                           01 
01040050011000001          US Senator                                              UNDER VOTES                           PRECINCT 402                                           01 
01050010001000538REP       US Representative, District 19                          Jodey Arrington                       PRECINCT 101                                           01 
01050010002000049REP       US Representative, District 19                          Jodey Arrington                       PRECINCT 102                                           01 
01050010003000173REP       US Representative, District 19                          Jodey Arrington                       PRECINCT 103                                           01 
01050010004000666REP       US Representative, District 19                          Jodey Arrington                       PRECINCT 201                                           01 
01050010005000114REP       US Representative, District 19                          Jodey Arrington                       PRECINCT 202                                           01 
01050010006000147REP       US Representative, District 19                          Jodey Arrington                       PRECINCT 203                                           01 
01050010007000135REP       US Representative, District 19                          Jodey Arrington                       PRECINCT 301                                           01 
01050010008000515REP       US Representative, District 19                          Jodey Arrington                       PRECINCT 302                                           01 
01050010009000614REP       US Representative, District 19                          Jodey Arrington                       PRECINCT 303                                           01 
01050010010000700REP       US Representative, District 19                          Jodey Arrington                       PRECINCT 401                                           01 
01050010011000554REP       US Representative, District 19                          Jodey Arrington                       PRECINCT 402                                           01 
01050020001000103DEM       US Representative, District 19                          Miguel Levario                        PRECINCT 101                                           01 
01050020002000028DEM       US Representative, District 19                          Miguel Levario                        PRECINCT 102                                           01 
01050020003000052DEM       US Representative, District 19                          Miguel Levario                        PRECINCT 103                                           01 
01050020004000178DEM       US Representative, District 19                          Miguel Levario                        PRECINCT 201                                           01 
01050020005000027DEM       US Representative, District 19                          Miguel Levario                        PRECINCT 202                                           01 
01050020006000013DEM       US Representative, District 19                          Miguel Levario                        PRECINCT 203                                           01 
01050020007000011DEM       US Representative, District 19                          Miguel Levario                        PRECINCT 301                                           01 
01050020008000057DEM       US Representative, District 19                          Miguel Levario                        PRECINCT 302                                           01 
01050020009000069DEM       US Representative, District 19                          Miguel Levario                        PRECINCT 303                                           01 
01050020010000084DEM       US Representative, District 19                          Miguel Levario                        PRECINCT 401                                           01 
01050020011000136DEM       US Representative, District 19                          Miguel Levario                        PRECINCT 402                                           01 
01050030001000000          US Representative, District 19                          OVER VOTES                            PRECINCT 101                                           01 
01050030002000000          US Representative, District 19                          OVER VOTES                            PRECINCT 102                                           01 
01050030003000000          US Representative, District 19                          OVER VOTES                            PRECINCT 103                                           01 
01050030004000000          US Representative, District 19                          OVER VOTES                            PRECINCT 201                                           01 
01050030005000000          US Representative, District 19                          OVER VOTES                            PRECINCT 202                                           01 
01050030006000000          US Representative, District 19                          OVER VOTES                            PRECINCT 203                                           01 
01050030007000000          US Representative, District 19                          OVER VOTES                            PRECINCT 301                                           01 
01050030008000000          US Representative, District 19                          OVER VOTES                            PRECINCT 302                                           01 
01050030009000000          US Representative, District 19                          OVER VOTES                            PRECINCT 303                                           01 
01050030010000000          US Representative, District 19                          OVER VOTES                            PRECINCT 401                                           01 
01050030011000000          US Representative, District 19                          OVER VOTES                            PRECINCT 402                                           01 
01050040001000003          US Representative, District 19                          UNDER VOTES                           PRECINCT 101                                           01 
01050040002000003          US Representative, District 19                          UNDER VOTES                           PRECINCT 102                                           01 
01050040003000002          US Representative, District 19                          UNDER VOTES                           PRECINCT 103                                           01 
01050040004000007          US Representative, District 19                          UNDER VOTES                           PRECINCT 201                                           01 
01050040005000001          US Representative, District 19                          UNDER VOTES                           PRECINCT 202                                           01 
01050040006000000          US Representative, District 19                          UNDER VOTES                           PRECINCT 203                                           01 
01050040007000000          US Representative, District 19                          UNDER VOTES                           PRECINCT 301                                           01 
01050040008000004          US Representative, District 19                          UNDER VOTES                           PRECINCT 302                                           01 
01050040009000005          US Representative, District 19                          UNDER VOTES                           PRECINCT 303                                           01 
01050040010000005          US Representative, District 19                          UNDER VOTES                           PRECINCT 401                                           01 
01050040011000003          US Representative, District 19                          UNDER VOTES                           PRECINCT 402                                           01 
01060010001000530REP       Governor                                                Greg Abbott                           PRECINCT 101                                           01 
01060010002000047REP       Governor                                                Greg Abbott                           PRECINCT 102                                           01 
01060010003000174REP       Governor                                                Greg Abbott                           PRECINCT 103                                           01 
01060010004000641REP       Governor                                                Greg Abbott                           PRECINCT 201                                           01 
01060010005000115REP       Governor                                                Greg Abbott                           PRECINCT 202                                           01 
01060010006000143REP       Governor                                                Greg Abbott                           PRECINCT 203                                           01 
01060010007000134REP       Governor                                                Greg Abbott                           PRECINCT 301                                           01 
01060010008000515REP       Governor                                                Greg Abbott                           PRECINCT 302                                           01 
01060010009000620REP       Governor                                                Greg Abbott                           PRECINCT 303                                           01 
01060010010000701REP       Governor                                                Greg Abbott                           PRECINCT 401                                           01 
01060010011000547REP       Governor                                                Greg Abbott                           PRECINCT 402                                           01 
01060020001000109DEM       Governor                                                Lupe Valdez                           PRECINCT 101                                           01 
01060020002000031DEM       Governor                                                Lupe Valdez                           PRECINCT 102                                           01 
01060020003000051DEM       Governor                                                Lupe Valdez                           PRECINCT 103                                           01 
01060020004000194DEM       Governor                                                Lupe Valdez                           PRECINCT 201                                           01 
01060020005000023DEM       Governor                                                Lupe Valdez                           PRECINCT 202                                           01 
01060020006000016DEM       Governor                                                Lupe Valdez                           PRECINCT 203                                           01 
01060020007000011DEM       Governor                                                Lupe Valdez                           PRECINCT 301                                           01 
01060020008000055DEM       Governor                                                Lupe Valdez                           PRECINCT 302                                           01 
01060020009000060DEM       Governor                                                Lupe Valdez                           PRECINCT 303                                           01 
01060020010000071DEM       Governor                                                Lupe Valdez                           PRECINCT 401                                           01 
01060020011000136DEM       Governor                                                Lupe Valdez                           PRECINCT 402                                           01 
01060030001000005LIB       Governor                                                Mark Jay Tippetts                     PRECINCT 101                                           01 
01060030002000001LIB       Governor                                                Mark Jay Tippetts                     PRECINCT 102                                           01 
01060030003000001LIB       Governor                                                Mark Jay Tippetts                     PRECINCT 103                                           01 
01060030004000012LIB       Governor                                                Mark Jay Tippetts                     PRECINCT 201                                           01 
01060030005000002LIB       Governor                                                Mark Jay Tippetts                     PRECINCT 202                                           01 
01060030006000001LIB       Governor                                                Mark Jay Tippetts                     PRECINCT 203                                           01 
01060030007000001LIB       Governor                                                Mark Jay Tippetts                     PRECINCT 301                                           01 
01060030008000005LIB       Governor                                                Mark Jay Tippetts                     PRECINCT 302                                           01 
01060030009000008LIB       Governor                                                Mark Jay Tippetts                     PRECINCT 303                                           01 
01060030010000013LIB       Governor                                                Mark Jay Tippetts                     PRECINCT 401                                           01 
01060030011000008LIB       Governor                                                Mark Jay Tippetts                     PRECINCT 402                                           01 
01060040001000000          Governor                                                OVER VOTES                            PRECINCT 101                                           01 
01060040002000000          Governor                                                OVER VOTES                            PRECINCT 102                                           01 
01060040003000000          Governor                                                OVER VOTES                            PRECINCT 103                                           01 
01060040004000000          Governor                                                OVER VOTES                            PRECINCT 201                                           01 
01060040005000000          Governor                                                OVER VOTES                            PRECINCT 202                                           01 
01060040006000000          Governor                                                OVER VOTES                            PRECINCT 203                                           01 
01060040007000000          Governor                                                OVER VOTES                            PRECINCT 301                                           01 
01060040008000000          Governor                                                OVER VOTES                            PRECINCT 302                                           01 
01060040009000000          Governor                                                OVER VOTES                            PRECINCT 303                                           01 
01060040010000000          Governor                                                OVER VOTES                            PRECINCT 401                                           01 
01060040011000000          Governor                                                OVER VOTES                            PRECINCT 402                                           01 
01060050001000000          Governor                                                UNDER VOTES                           PRECINCT 101                                           01 
01060050002000001          Governor                                                UNDER VOTES                           PRECINCT 102                                           01 
01060050003000001          Governor                                                UNDER VOTES                           PRECINCT 103                                           01 
01060050004000004          Governor                                                UNDER VOTES                           PRECINCT 201                                           01 
01060050005000002          Governor                                                UNDER VOTES                           PRECINCT 202                                           01 
01060050006000000          Governor                                                UNDER VOTES                           PRECINCT 203                                           01 
01060050007000000          Governor                                                UNDER VOTES                           PRECINCT 301                                           01 
01060050008000001          Governor                                                UNDER VOTES                           PRECINCT 302                                           01 
01060050009000000          Governor                                                UNDER VOTES                           PRECINCT 303                                           01 
01060050010000004          Governor                                                UNDER VOTES                           PRECINCT 401                                           01 
01060050011000002          Governor                                                UNDER VOTES                           PRECINCT 402                                           01 
01070010001000460REP       Lieutenant Governor                                     Dan Patrick                           PRECINCT 101                                           01 
01070010002000043REP       Lieutenant Governor                                     Dan Patrick                           PRECINCT 102                                           01 
01070010003000161REP       Lieutenant Governor                                     Dan Patrick                           PRECINCT 103                                           01 
01070010004000514REP       Lieutenant Governor                                     Dan Patrick                           PRECINCT 201                                           01 
01070010005000110REP       Lieutenant Governor                                     Dan Patrick                           PRECINCT 202                                           01 
01070010006000132REP       Lieutenant Governor                                     Dan Patrick                           PRECINCT 203                                           01 
01070010007000129REP       Lieutenant Governor                                     Dan Patrick                           PRECINCT 301                                           01 
01070010008000505REP       Lieutenant Governor                                     Dan Patrick                           PRECINCT 302                                           01 
01070010009000592REP       Lieutenant Governor                                     Dan Patrick                           PRECINCT 303                                           01 
01070010010000656REP       Lieutenant Governor                                     Dan Patrick                           PRECINCT 401                                           01 
01070010011000517REP       Lieutenant Governor                                     Dan Patrick                           PRECINCT 402                                           01 
01070020001000159DEM       Lieutenant Governor                                     Mike Collier                          PRECINCT 101                                           01 
01070020002000033DEM       Lieutenant Governor                                     Mike Collier                          PRECINCT 102                                           01 
01070020003000060DEM       Lieutenant Governor                                     Mike Collier                          PRECINCT 103                                           01 
01070020004000311DEM       Lieutenant Governor                                     Mike Collier                          PRECINCT 201                                           01 
01070020005000028DEM       Lieutenant Governor                                     Mike Collier                          PRECINCT 202                                           01 
01070020006000025DEM       Lieutenant Governor                                     Mike Collier                          PRECINCT 203                                           01 
01070020007000015DEM       Lieutenant Governor                                     Mike Collier                          PRECINCT 301                                           01 
01070020008000062DEM       Lieutenant Governor                                     Mike Collier                          PRECINCT 302                                           01 
01070020009000077DEM       Lieutenant Governor                                     Mike Collier                          PRECINCT 303                                           01 
01070020010000110DEM       Lieutenant Governor                                     Mike Collier                          PRECINCT 401                                           01 
01070020011000159DEM       Lieutenant Governor                                     Mike Collier                          PRECINCT 402                                           01 
01070030001000020LIB       Lieutenant Governor                                     Kerry Douglas McKennon                PRECINCT 101                                           01 
01070030002000003LIB       Lieutenant Governor                                     Kerry Douglas McKennon                PRECINCT 102                                           01 
01070030003000003LIB       Lieutenant Governor                                     Kerry Douglas McKennon                PRECINCT 103                                           01 
01070030004000013LIB       Lieutenant Governor                                     Kerry Douglas McKennon                PRECINCT 201                                           01 
01070030005000001LIB       Lieutenant Governor                                     Kerry Douglas McKennon                PRECINCT 202                                           01 
01070030006000003LIB       Lieutenant Governor                                     Kerry Douglas McKennon                PRECINCT 203                                           01 
01070030007000002LIB       Lieutenant Governor                                     Kerry Douglas McKennon                PRECINCT 301                                           01 
01070030008000007LIB       Lieutenant Governor                                     Kerry Douglas McKennon                PRECINCT 302                                           01 
01070030009000012LIB       Lieutenant Governor                                     Kerry Douglas McKennon                PRECINCT 303                                           01 
01070030010000015LIB       Lieutenant Governor                                     Kerry Douglas McKennon                PRECINCT 401                                           01 
01070030011000012LIB       Lieutenant Governor                                     Kerry Douglas McKennon                PRECINCT 402                                           01 
01070040001000000          Lieutenant Governor                                     OVER VOTES                            PRECINCT 101                                           01 
01070040002000000          Lieutenant Governor                                     OVER VOTES                            PRECINCT 102                                           01 
01070040003000000          Lieutenant Governor                                     OVER VOTES                            PRECINCT 103                                           01 
01070040004000000          Lieutenant Governor                                     OVER VOTES                            PRECINCT 201                                           01 
01070040005000000          Lieutenant Governor                                     OVER VOTES                            PRECINCT 202                                           01 
01070040006000000          Lieutenant Governor                                     OVER VOTES                            PRECINCT 203                                           01 
01070040007000000          Lieutenant Governor                                     OVER VOTES                            PRECINCT 301                                           01 
01070040008000000          Lieutenant Governor                                     OVER VOTES                            PRECINCT 302                                           01 
01070040009000000          Lieutenant Governor                                     OVER VOTES                            PRECINCT 303                                           01 
01070040010000000          Lieutenant Governor                                     OVER VOTES                            PRECINCT 401                                           01 
01070040011000000          Lieutenant Governor                                     OVER VOTES                            PRECINCT 402                                           01 
01070050001000005          Lieutenant Governor                                     UNDER VOTES                           PRECINCT 101                                           01 
01070050002000001          Lieutenant Governor                                     UNDER VOTES                           PRECINCT 102                                           01 
01070050003000003          Lieutenant Governor                                     UNDER VOTES                           PRECINCT 103                                           01 
01070050004000013          Lieutenant Governor                                     UNDER VOTES                           PRECINCT 201                                           01 
01070050005000003          Lieutenant Governor                                     UNDER VOTES                           PRECINCT 202                                           01 
01070050006000000          Lieutenant Governor                                     UNDER VOTES                           PRECINCT 203                                           01 
01070050007000000          Lieutenant Governor                                     UNDER VOTES                           PRECINCT 301                                           01 
01070050008000002          Lieutenant Governor                                     UNDER VOTES                           PRECINCT 302                                           01 
01070050009000007          Lieutenant Governor                                     UNDER VOTES                           PRECINCT 303                                           01 
01070050010000008          Lieutenant Governor                                     UNDER VOTES                           PRECINCT 401                                           01 
01070050011000005          Lieutenant Governor                                     UNDER VOTES                           PRECINCT 402                                           01 
01080010001000515REP       Attorney General                                        Ken Paxton                            PRECINCT 101                                           01 
01080010002000043REP       Attorney General                                        Ken Paxton                            PRECINCT 102                                           01 
01080010003000165REP       Attorney General                                        Ken Paxton                            PRECINCT 103                                           01 
01080010004000588REP       Attorney General                                        Ken Paxton                            PRECINCT 201                                           01 
01080010005000105REP       Attorney General                                        Ken Paxton                            PRECINCT 202                                           01 
01080010006000133REP       Attorney General                                        Ken Paxton                            PRECINCT 203                                           01 
01080010007000132REP       Attorney General                                        Ken Paxton                            PRECINCT 301                                           01 
01080010008000503REP       Attorney General                                        Ken Paxton                            PRECINCT 302                                           01 
01080010009000605REP       Attorney General                                        Ken Paxton                            PRECINCT 303                                           01 
01080010010000678REP       Attorney General                                        Ken Paxton                            PRECINCT 401                                           01 
01080010011000518REP       Attorney General                                        Ken Paxton                            PRECINCT 402                                           01 
01080020001000115DEM       Attorney General                                        Justin Nelson                         PRECINCT 101                                           01 
01080020002000033DEM       Attorney General                                        Justin Nelson                         PRECINCT 102                                           01 
01080020003000056DEM       Attorney General                                        Justin Nelson                         PRECINCT 103                                           01 
01080020004000230DEM       Attorney General                                        Justin Nelson                         PRECINCT 201                                           01 
01080020005000031DEM       Attorney General                                        Justin Nelson                         PRECINCT 202                                           01 
01080020006000024DEM       Attorney General                                        Justin Nelson                         PRECINCT 203                                           01 
01080020007000013DEM       Attorney General                                        Justin Nelson                         PRECINCT 301                                           01 
01080020008000062DEM       Attorney General                                        Justin Nelson                         PRECINCT 302                                           01 
01080020009000069DEM       Attorney General                                        Justin Nelson                         PRECINCT 303                                           01 
01080020010000094DEM       Attorney General                                        Justin Nelson                         PRECINCT 401                                           01 
01080020011000154DEM       Attorney General                                        Justin Nelson                         PRECINCT 402                                           01 
01080030001000010LIB       Attorney General                                        Michael Ray Harris                    PRECINCT 101                                           01 
01080030002000003LIB       Attorney General                                        Michael Ray Harris                    PRECINCT 102                                           01 
01080030003000004LIB       Attorney General                                        Michael Ray Harris                    PRECINCT 103                                           01 
01080030004000013LIB       Attorney General                                        Michael Ray Harris                    PRECINCT 201                                           01 
01080030005000002LIB       Attorney General                                        Michael Ray Harris                    PRECINCT 202                                           01 
01080030006000003LIB       Attorney General                                        Michael Ray Harris                    PRECINCT 203                                           01 
01080030007000001LIB       Attorney General                                        Michael Ray Harris                    PRECINCT 301                                           01 
01080030008000008LIB       Attorney General                                        Michael Ray Harris                    PRECINCT 302                                           01 
01080030009000009LIB       Attorney General                                        Michael Ray Harris                    PRECINCT 303                                           01 
01080030010000013LIB       Attorney General                                        Michael Ray Harris                    PRECINCT 401                                           01 
01080030011000010LIB       Attorney General                                        Michael Ray Harris                    PRECINCT 402                                           01 
01080040001000000          Attorney General                                        OVER VOTES                            PRECINCT 101                                           01 
01080040002000000          Attorney General                                        OVER VOTES                            PRECINCT 102                                           01 
01080040003000000          Attorney General                                        OVER VOTES                            PRECINCT 103                                           01 
01080040004000000          Attorney General                                        OVER VOTES                            PRECINCT 201                                           01 
01080040005000000          Attorney General                                        OVER VOTES                            PRECINCT 202                                           01 
01080040006000000          Attorney General                                        OVER VOTES                            PRECINCT 203                                           01 
01080040007000000          Attorney General                                        OVER VOTES                            PRECINCT 301                                           01 
01080040008000000          Attorney General                                        OVER VOTES                            PRECINCT 302                                           01 
01080040009000000          Attorney General                                        OVER VOTES                            PRECINCT 303                                           01 
01080040010000000          Attorney General                                        OVER VOTES                            PRECINCT 401                                           01 
01080040011000000          Attorney General                                        OVER VOTES                            PRECINCT 402                                           01 
01080050001000004          Attorney General                                        UNDER VOTES                           PRECINCT 101                                           01 
01080050002000001          Attorney General                                        UNDER VOTES                           PRECINCT 102                                           01 
01080050003000002          Attorney General                                        UNDER VOTES                           PRECINCT 103                                           01 
01080050004000020          Attorney General                                        UNDER VOTES                           PRECINCT 201                                           01 
01080050005000004          Attorney General                                        UNDER VOTES                           PRECINCT 202                                           01 
01080050006000000          Attorney General                                        UNDER VOTES                           PRECINCT 203                                           01 
01080050007000000          Attorney General                                        UNDER VOTES                           PRECINCT 301                                           01 
01080050008000003          Attorney General                                        UNDER VOTES                           PRECINCT 302                                           01 
01080050009000005          Attorney General                                        UNDER VOTES                           PRECINCT 303                                           01 
01080050010000004          Attorney General                                        UNDER VOTES                           PRECINCT 401                                           01 
01080050011000011          Attorney General                                        UNDER VOTES                           PRECINCT 402                                           01 
01090010001000530REP       Comptroller of Public Accounts                          Glenn Hegar                           PRECINCT 101                                           01 
01090010002000047REP       Comptroller of Public Accounts                          Glenn Hegar                           PRECINCT 102                                           01 
01090010003000166REP       Comptroller of Public Accounts                          Glenn Hegar                           PRECINCT 103                                           01 
01090010004000623REP       Comptroller of Public Accounts                          Glenn Hegar                           PRECINCT 201                                           01 
01090010005000106REP       Comptroller of Public Accounts                          Glenn Hegar                           PRECINCT 202                                           01 
01090010006000139REP       Comptroller of Public Accounts                          Glenn Hegar                           PRECINCT 203                                           01 
01090010007000130REP       Comptroller of Public Accounts                          Glenn Hegar                           PRECINCT 301                                           01 
01090010008000506REP       Comptroller of Public Accounts                          Glenn Hegar                           PRECINCT 302                                           01 
01090010009000599REP       Comptroller of Public Accounts                          Glenn Hegar                           PRECINCT 303                                           01 
01090010010000688REP       Comptroller of Public Accounts                          Glenn Hegar                           PRECINCT 401                                           01 
01090010011000524REP       Comptroller of Public Accounts                          Glenn Hegar                           PRECINCT 402                                           01 
01090020001000099DEM       Comptroller of Public Accounts                          Joi Chevalier                         PRECINCT 101                                           01 
01090020002000030DEM       Comptroller of Public Accounts                          Joi Chevalier                         PRECINCT 102                                           01 
01090020003000054DEM       Comptroller of Public Accounts                          Joi Chevalier                         PRECINCT 103                                           01 
01090020004000195DEM       Comptroller of Public Accounts                          Joi Chevalier                         PRECINCT 201                                           01 
01090020005000025DEM       Comptroller of Public Accounts                          Joi Chevalier                         PRECINCT 202                                           01 
01090020006000014DEM       Comptroller of Public Accounts                          Joi Chevalier                         PRECINCT 203                                           01 
01090020007000012DEM       Comptroller of Public Accounts                          Joi Chevalier                         PRECINCT 301                                           01 
01090020008000054DEM       Comptroller of Public Accounts                          Joi Chevalier                         PRECINCT 302                                           01 
01090020009000065DEM       Comptroller of Public Accounts                          Joi Chevalier                         PRECINCT 303                                           01 
01090020010000083DEM       Comptroller of Public Accounts                          Joi Chevalier                         PRECINCT 401                                           01 
01090020011000135DEM       Comptroller of Public Accounts                          Joi Chevalier                         PRECINCT 402                                           01 
01090030001000009LIB       Comptroller of Public Accounts                          Ben Sanders                           PRECINCT 101                                           01 
01090030002000001LIB       Comptroller of Public Accounts                          Ben Sanders                           PRECINCT 102                                           01 
01090030003000003LIB       Comptroller of Public Accounts                          Ben Sanders                           PRECINCT 103                                           01 
01090030004000012LIB       Comptroller of Public Accounts                          Ben Sanders                           PRECINCT 201                                           01 
01090030005000003LIB       Comptroller of Public Accounts                          Ben Sanders                           PRECINCT 202                                           01 
01090030006000005LIB       Comptroller of Public Accounts                          Ben Sanders                           PRECINCT 203                                           01 
01090030007000003LIB       Comptroller of Public Accounts                          Ben Sanders                           PRECINCT 301                                           01 
01090030008000010LIB       Comptroller of Public Accounts                          Ben Sanders                           PRECINCT 302                                           01 
01090030009000014LIB       Comptroller of Public Accounts                          Ben Sanders                           PRECINCT 303                                           01 
01090030010000013LIB       Comptroller of Public Accounts                          Ben Sanders                           PRECINCT 401                                           01 
01090030011000017LIB       Comptroller of Public Accounts                          Ben Sanders                           PRECINCT 402                                           01 
01090040001000000          Comptroller of Public Accounts                          OVER VOTES                            PRECINCT 101                                           01 
01090040002000000          Comptroller of Public Accounts                          OVER VOTES                            PRECINCT 102                                           01 
01090040003000000          Comptroller of Public Accounts                          OVER VOTES                            PRECINCT 103                                           01 
01090040004000000          Comptroller of Public Accounts                          OVER VOTES                            PRECINCT 201                                           01 
01090040005000000          Comptroller of Public Accounts                          OVER VOTES                            PRECINCT 202                                           01 
01090040006000000          Comptroller of Public Accounts                          OVER VOTES                            PRECINCT 203                                           01 
01090040007000000          Comptroller of Public Accounts                          OVER VOTES                            PRECINCT 301                                           01 
01090040008000000          Comptroller of Public Accounts                          OVER VOTES                            PRECINCT 302                                           01 
01090040009000000          Comptroller of Public Accounts                          OVER VOTES                            PRECINCT 303                                           01 
01090040010000000          Comptroller of Public Accounts                          OVER VOTES                            PRECINCT 401                                           01 
01090040011000000          Comptroller of Public Accounts                          OVER VOTES                            PRECINCT 402                                           01 
01090050001000006          Comptroller of Public Accounts                          UNDER VOTES                           PRECINCT 101                                           01 
01090050002000002          Comptroller of Public Accounts                          UNDER VOTES                           PRECINCT 102                                           01 
01090050003000004          Comptroller of Public Accounts                          UNDER VOTES                           PRECINCT 103                                           01 
01090050004000021          Comptroller of Public Accounts                          UNDER VOTES                           PRECINCT 201                                           01 
01090050005000008          Comptroller of Public Accounts                          UNDER VOTES                           PRECINCT 202                                           01 
01090050006000002          Comptroller of Public Accounts                          UNDER VOTES                           PRECINCT 203                                           01 
01090050007000001          Comptroller of Public Accounts                          UNDER VOTES                           PRECINCT 301                                           01 
01090050008000006          Comptroller of Public Accounts                          UNDER VOTES                           PRECINCT 302                                           01 
01090050009000010          Comptroller of Public Accounts                          UNDER VOTES                           PRECINCT 303                                           01 
01090050010000005          Comptroller of Public Accounts                          UNDER VOTES                           PRECINCT 401                                           01 
01090050011000017          Comptroller of Public Accounts                          UNDER VOTES                           PRECINCT 402                                           01 
01100010001000507REP       Commissioner of the General Land Office                 George P. Bush                        PRECINCT 101                                           01 
01100010002000044REP       Commissioner of the General Land Office                 George P. Bush                        PRECINCT 102                                           01 
01100010003000164REP       Commissioner of the General Land Office                 George P. Bush                        PRECINCT 103                                           01 
01100010004000620REP       Commissioner of the General Land Office                 George P. Bush                        PRECINCT 201                                           01 
01100010005000106REP       Commissioner of the General Land Office                 George P. Bush                        PRECINCT 202                                           01 
01100010006000136REP       Commissioner of the General Land Office                 George P. Bush                        PRECINCT 203                                           01 
01100010007000128REP       Commissioner of the General Land Office                 George P. Bush                        PRECINCT 301                                           01 
01100010008000488REP       Commissioner of the General Land Office                 George P. Bush                        PRECINCT 302                                           01 
01100010009000561REP       Commissioner of the General Land Office                 George P. Bush                        PRECINCT 303                                           01 
01100010010000637REP       Commissioner of the General Land Office                 George P. Bush                        PRECINCT 401                                           01 
01100010011000519REP       Commissioner of the General Land Office                 George P. Bush                        PRECINCT 402                                           01 
01100020001000101DEM       Commissioner of the General Land Office                 Miguel Suazo                          PRECINCT 101                                           01 
01100020002000032DEM       Commissioner of the General Land Office                 Miguel Suazo                          PRECINCT 102                                           01 
01100020003000055DEM       Commissioner of the General Land Office                 Miguel Suazo                          PRECINCT 103                                           01 
01100020004000189DEM       Commissioner of the General Land Office                 Miguel Suazo                          PRECINCT 201                                           01 
01100020005000028DEM       Commissioner of the General Land Office                 Miguel Suazo                          PRECINCT 202                                           01 
01100020006000016DEM       Commissioner of the General Land Office                 Miguel Suazo                          PRECINCT 203                                           01 
01100020007000012DEM       Commissioner of the General Land Office                 Miguel Suazo                          PRECINCT 301                                           01 
01100020008000057DEM       Commissioner of the General Land Office                 Miguel Suazo                          PRECINCT 302                                           01 
01100020009000071DEM       Commissioner of the General Land Office                 Miguel Suazo                          PRECINCT 303                                           01 
01100020010000086DEM       Commissioner of the General Land Office                 Miguel Suazo                          PRECINCT 401                                           01 
01100020011000141DEM       Commissioner of the General Land Office                 Miguel Suazo                          PRECINCT 402                                           01 
01100030001000025LIB       Commissioner of the General Land Office                 Matt Pina                             PRECINCT 101                                           01 
01100030002000002LIB       Commissioner of the General Land Office                 Matt Pina                             PRECINCT 102                                           01 
01100030003000006LIB       Commissioner of the General Land Office                 Matt Pina                             PRECINCT 103                                           01 
01100030004000020LIB       Commissioner of the General Land Office                 Matt Pina                             PRECINCT 201                                           01 
01100030005000004LIB       Commissioner of the General Land Office                 Matt Pina                             PRECINCT 202                                           01 
01100030006000006LIB       Commissioner of the General Land Office                 Matt Pina                             PRECINCT 203                                           01 
01100030007000005LIB       Commissioner of the General Land Office                 Matt Pina                             PRECINCT 301                                           01 
01100030008000023LIB       Commissioner of the General Land Office                 Matt Pina                             PRECINCT 302                                           01 
01100030009000035LIB       Commissioner of the General Land Office                 Matt Pina                             PRECINCT 303                                           01 
01100030010000045LIB       Commissioner of the General Land Office                 Matt Pina                             PRECINCT 401                                           01 
01100030011000021LIB       Commissioner of the General Land Office                 Matt Pina                             PRECINCT 402                                           01 
01100040001000000          Commissioner of the General Land Office                 OVER VOTES                            PRECINCT 101                                           01 
01100040002000000          Commissioner of the General Land Office                 OVER VOTES                            PRECINCT 102                                           01 
01100040003000000          Commissioner of the General Land Office                 OVER VOTES                            PRECINCT 103                                           01 
01100040004000000          Commissioner of the General Land Office                 OVER VOTES                            PRECINCT 201                                           01 
01100040005000000          Commissioner of the General Land Office                 OVER VOTES                            PRECINCT 202                                           01 
01100040006000000          Commissioner of the General Land Office                 OVER VOTES                            PRECINCT 203                                           01 
01100040007000000          Commissioner of the General Land Office                 OVER VOTES                            PRECINCT 301                                           01 
01100040008000000          Commissioner of the General Land Office                 OVER VOTES                            PRECINCT 302                                           01 
01100040009000000          Commissioner of the General Land Office                 OVER VOTES                            PRECINCT 303                                           01 
01100040010000000          Commissioner of the General Land Office                 OVER VOTES                            PRECINCT 401                                           01 
01100040011000000          Commissioner of the General Land Office                 OVER VOTES                            PRECINCT 402                                           01 
01100050001000011          Commissioner of the General Land Office                 UNDER VOTES                           PRECINCT 101                                           01 
01100050002000002          Commissioner of the General Land Office                 UNDER VOTES                           PRECINCT 102                                           01 
01100050003000002          Commissioner of the General Land Office                 UNDER VOTES                           PRECINCT 103                                           01 
01100050004000022          Commissioner of the General Land Office                 UNDER VOTES                           PRECINCT 201                                           01 
01100050005000004          Commissioner of the General Land Office                 UNDER VOTES                           PRECINCT 202                                           01 
01100050006000002          Commissioner of the General Land Office                 UNDER VOTES                           PRECINCT 203                                           01 
01100050007000001          Commissioner of the General Land Office                 UNDER VOTES                           PRECINCT 301                                           01 
01100050008000008          Commissioner of the General Land Office                 UNDER VOTES                           PRECINCT 302                                           01 
01100050009000021          Commissioner of the General Land Office                 UNDER VOTES                           PRECINCT 303                                           01 
01100050010000021          Commissioner of the General Land Office                 UNDER VOTES                           PRECINCT 401                                           01 
01100050011000012          Commissioner of the General Land Office                 UNDER VOTES                           PRECINCT 402                                           01 
01110010001000524REP       Commissioner of Agriculture                             Sid Miller                            PRECINCT 101                                           01 
01110010002000045REP       Commissioner of Agriculture                             Sid Miller                            PRECINCT 102                                           01 
01110010003000162REP       Commissioner of Agriculture                             Sid Miller                            PRECINCT 103                                           01 
01110010004000610REP       Commissioner of Agriculture                             Sid Miller                            PRECINCT 201                                           01 
01110010005000108REP       Commissioner of Agriculture                             Sid Miller                            PRECINCT 202                                           01 
01110010006000137REP       Commissioner of Agriculture                             Sid Miller                            PRECINCT 203                                           01 
01110010007000128REP       Commissioner of Agriculture                             Sid Miller                            PRECINCT 301                                           01 
01110010008000502REP       Commissioner of Agriculture                             Sid Miller                            PRECINCT 302                                           01 
01110010009000598REP       Commissioner of Agriculture                             Sid Miller                            PRECINCT 303                                           01 
01110010010000678REP       Commissioner of Agriculture                             Sid Miller                            PRECINCT 401                                           01 
01110010011000522REP       Commissioner of Agriculture                             Sid Miller                            PRECINCT 402                                           01 
01110020001000109DEM       Commissioner of Agriculture                             Kim Olson                             PRECINCT 101                                           01 
01110020002000032DEM       Commissioner of Agriculture                             Kim Olson                             PRECINCT 102                                           01 
01110020003000057DEM       Commissioner of Agriculture                             Kim Olson                             PRECINCT 103                                           01 
01110020004000218DEM       Commissioner of Agriculture                             Kim Olson                             PRECINCT 201                                           01 
01110020005000031DEM       Commissioner of Agriculture                             Kim Olson                             PRECINCT 202                                           01 
01110020006000017DEM       Commissioner of Agriculture                             Kim Olson                             PRECINCT 203                                           01 
01110020007000016DEM       Commissioner of Agriculture                             Kim Olson                             PRECINCT 301                                           01 
01110020008000059DEM       Commissioner of Agriculture                             Kim Olson                             PRECINCT 302                                           01 
01110020009000070DEM       Commissioner of Agriculture                             Kim Olson                             PRECINCT 303                                           01 
01110020010000088DEM       Commissioner of Agriculture                             Kim Olson                             PRECINCT 401                                           01 
01110020011000148DEM       Commissioner of Agriculture                             Kim Olson                             PRECINCT 402                                           01 
01110030001000006LIB       Commissioner of Agriculture                             Richard Carpenter                     PRECINCT 101                                           01 
01110030002000001LIB       Commissioner of Agriculture                             Richard Carpenter                     PRECINCT 102                                           01 
01110030003000004LIB       Commissioner of Agriculture                             Richard Carpenter                     PRECINCT 103                                           01 
01110030004000009LIB       Commissioner of Agriculture                             Richard Carpenter                     PRECINCT 201                                           01 
01110030005000000LIB       Commissioner of Agriculture                             Richard Carpenter                     PRECINCT 202                                           01 
01110030006000005LIB       Commissioner of Agriculture                             Richard Carpenter                     PRECINCT 203                                           01 
01110030007000002LIB       Commissioner of Agriculture                             Richard Carpenter                     PRECINCT 301                                           01 
01110030008000013LIB       Commissioner of Agriculture                             Richard Carpenter                     PRECINCT 302                                           01 
01110030009000009LIB       Commissioner of Agriculture                             Richard Carpenter                     PRECINCT 303                                           01 
01110030010000015LIB       Commissioner of Agriculture                             Richard Carpenter                     PRECINCT 401                                           01 
01110030011000014LIB       Commissioner of Agriculture                             Richard Carpenter                     PRECINCT 402                                           01 
01110040001000000          Commissioner of Agriculture                             OVER VOTES                            PRECINCT 101                                           01 
01110040002000000          Commissioner of Agriculture                             OVER VOTES                            PRECINCT 102                                           01 
01110040003000000          Commissioner of Agriculture                             OVER VOTES                            PRECINCT 103                                           01 
01110040004000000          Commissioner of Agriculture                             OVER VOTES                            PRECINCT 201                                           01 
01110040005000000          Commissioner of Agriculture                             OVER VOTES                            PRECINCT 202                                           01 
01110040006000000          Commissioner of Agriculture                             OVER VOTES                            PRECINCT 203                                           01 
01110040007000000          Commissioner of Agriculture                             OVER VOTES                            PRECINCT 301                                           01 
01110040008000000          Commissioner of Agriculture                             OVER VOTES                            PRECINCT 302                                           01 
01110040009000000          Commissioner of Agriculture                             OVER VOTES                            PRECINCT 303                                           01 
01110040010000000          Commissioner of Agriculture                             OVER VOTES                            PRECINCT 401                                           01 
01110040011000000          Commissioner of Agriculture                             OVER VOTES                            PRECINCT 402                                           01 
01110050001000005          Commissioner of Agriculture                             UNDER VOTES                           PRECINCT 101                                           01 
01110050002000002          Commissioner of Agriculture                             UNDER VOTES                           PRECINCT 102                                           01 
01110050003000004          Commissioner of Agriculture                             UNDER VOTES                           PRECINCT 103                                           01 
01110050004000014          Commissioner of Agriculture                             UNDER VOTES                           PRECINCT 201                                           01 
01110050005000003          Commissioner of Agriculture                             UNDER VOTES                           PRECINCT 202                                           01 
01110050006000001          Commissioner of Agriculture                             UNDER VOTES                           PRECINCT 203                                           01 
01110050007000000          Commissioner of Agriculture                             UNDER VOTES                           PRECINCT 301                                           01 
01110050008000002          Commissioner of Agriculture                             UNDER VOTES                           PRECINCT 302                                           01 
01110050009000011          Commissioner of Agriculture                             UNDER VOTES                           PRECINCT 303                                           01 
01110050010000008          Commissioner of Agriculture                             UNDER VOTES                           PRECINCT 401                                           01 
01110050011000009          Commissioner of Agriculture                             UNDER VOTES                           PRECINCT 402                                           01 
01120010001000524REP       Railroad Commissioner                                   Christi Craddick                      PRECINCT 101                                           01 
01120010002000044REP       Railroad Commissioner                                   Christi Craddick                      PRECINCT 102                                           01 
01120010003000162REP       Railroad Commissioner                                   Christi Craddick                      PRECINCT 103                                           01 
01120010004000625REP       Railroad Commissioner                                   Christi Craddick                      PRECINCT 201                                           01 
01120010005000106REP       Railroad Commissioner                                   Christi Craddick                      PRECINCT 202                                           01 
01120010006000135REP       Railroad Commissioner                                   Christi Craddick                      PRECINCT 203                                           01 
01120010007000131REP       Railroad Commissioner                                   Christi Craddick                      PRECINCT 301                                           01 
01120010008000501REP       Railroad Commissioner                                   Christi Craddick                      PRECINCT 302                                           01 
01120010009000601REP       Railroad Commissioner                                   Christi Craddick                      PRECINCT 303                                           01 
01120010010000682REP       Railroad Commissioner                                   Christi Craddick                      PRECINCT 401                                           01 
01120010011000517REP       Railroad Commissioner                                   Christi Craddick                      PRECINCT 402                                           01 
01120020001000101DEM       Railroad Commissioner                                   Roman McAllen                         PRECINCT 101                                           01 
01120020002000033DEM       Railroad Commissioner                                   Roman McAllen                         PRECINCT 102                                           01 
01120020003000056DEM       Railroad Commissioner                                   Roman McAllen                         PRECINCT 103                                           01 
01120020004000195DEM       Railroad Commissioner                                   Roman McAllen                         PRECINCT 201                                           01 
01120020005000025DEM       Railroad Commissioner                                   Roman McAllen                         PRECINCT 202                                           01 
01120020006000017DEM       Railroad Commissioner                                   Roman McAllen                         PRECINCT 203                                           01 
01120020007000013DEM       Railroad Commissioner                                   Roman McAllen                         PRECINCT 301                                           01 
01120020008000059DEM       Railroad Commissioner                                   Roman McAllen                         PRECINCT 302                                           01 
01120020009000062DEM       Railroad Commissioner                                   Roman McAllen                         PRECINCT 303                                           01 
01120020010000089DEM       Railroad Commissioner                                   Roman McAllen                         PRECINCT 401                                           01 
01120020011000141DEM       Railroad Commissioner                                   Roman McAllen                         PRECINCT 402                                           01 
01120030001000012LIB       Railroad Commissioner                                   Mike Wright                           PRECINCT 101                                           01 
01120030002000001LIB       Railroad Commissioner                                   Mike Wright                           PRECINCT 102                                           01 
01120030003000006LIB       Railroad Commissioner                                   Mike Wright                           PRECINCT 103                                           01 
01120030004000011LIB       Railroad Commissioner                                   Mike Wright                           PRECINCT 201                                           01 
01120030005000005LIB       Railroad Commissioner                                   Mike Wright                           PRECINCT 202                                           01 
01120030006000006LIB       Railroad Commissioner                                   Mike Wright                           PRECINCT 203                                           01 
01120030007000001LIB       Railroad Commissioner                                   Mike Wright                           PRECINCT 301                                           01 
01120030008000013LIB       Railroad Commissioner                                   Mike Wright                           PRECINCT 302                                           01 
01120030009000015LIB       Railroad Commissioner                                   Mike Wright                           PRECINCT 303                                           01 
01120030010000011LIB       Railroad Commissioner                                   Mike Wright                           PRECINCT 401                                           01 
01120030011000022LIB       Railroad Commissioner                                   Mike Wright                           PRECINCT 402                                           01 
01120040001000000          Railroad Commissioner                                   OVER VOTES                            PRECINCT 101                                           01 
01120040002000000          Railroad Commissioner                                   OVER VOTES                            PRECINCT 102                                           01 
01120040003000000          Railroad Commissioner                                   OVER VOTES                            PRECINCT 103                                           01 
01120040004000000          Railroad Commissioner                                   OVER VOTES                            PRECINCT 201                                           01 
01120040005000000          Railroad Commissioner                                   OVER VOTES                            PRECINCT 202                                           01 
01120040006000000          Railroad Commissioner                                   OVER VOTES                            PRECINCT 203                                           01 
01120040007000000          Railroad Commissioner                                   OVER VOTES                            PRECINCT 301                                           01 
01120040008000000          Railroad Commissioner                                   OVER VOTES                            PRECINCT 302                                           01 
01120040009000000          Railroad Commissioner                                   OVER VOTES                            PRECINCT 303                                           01 
01120040010000000          Railroad Commissioner                                   OVER VOTES                            PRECINCT 401                                           01 
01120040011000000          Railroad Commissioner                                   OVER VOTES                            PRECINCT 402                                           01 
01120050001000007          Railroad Commissioner                                   UNDER VOTES                           PRECINCT 101                                           01 
01120050002000002          Railroad Commissioner                                   UNDER VOTES                           PRECINCT 102                                           01 
