01010010001000894000000000000000000000000000000          REGISTERED VOTERS - TOTAL                               REGISTERED VOTERS - TOTAL             PRECINCT 1A3B                                          00 
01010010002001792000000000000000000000000000000          REGISTERED VOTERS - TOTAL                               REGISTERED VOTERS - TOTAL             PRECINCT 1A5A                                          00 
01010010003000198000000000000000000000000000000          REGISTERED VOTERS - TOTAL                               REGISTERED VOTERS - TOTAL             PRECINCT 1B                                            00 
01010010004000295000000000000000000000000000000          REGISTERED VOTERS - TOTAL                               REGISTERED VOTERS - TOTAL             PRECINCT 1C                                            00 
01010010005000564000000000000000000000000000000          REGISTERED VOTERS - TOTAL                               REGISTERED VOTERS - TOTAL             PRECINCT 1D                                            00 
01010010006000789000000000000000000000000000000          REGISTERED VOTERS - TOTAL                               REGISTERED VOTERS - TOTAL             PRECINCT 1E                                            00 
01010010007001009000000000000000000000000000000          REGISTERED VOTERS - TOTAL                               REGISTERED VOTERS - TOTAL             PRECINCT 1E7C                                          00 
01010010008000804000000000000000000000000000000          REGISTERED VOTERS - TOTAL                               REGISTERED VOTERS - TOTAL             PRECINCT 1F                                            00 
01010010009000551000000000000000000000000000000          REGISTERED VOTERS - TOTAL                               REGISTERED VOTERS - TOTAL             PRECINCT 1G                                            00 
01010010010000552000000000000000000000000000000          REGISTERED VOTERS - TOTAL                               REGISTERED VOTERS - TOTAL             PRECINCT 1H                                            00 
01010010011000121000000000000000000000000000000          REGISTERED VOTERS - TOTAL                               REGISTERED VOTERS - TOTAL             PRECINCT 1I                                            00 
01010010012001321000000000000000000000000000000          REGISTERED VOTERS - TOTAL                               REGISTERED VOTERS - TOTAL             PRECINCT 2A1A                                          00 
01010010013001713000000000000000000000000000000          REGISTERED VOTERS - TOTAL                               REGISTERED VOTERS - TOTAL             PRECINCT 2B2A                                          00 
01010010014001688000000000000000000000000000000          REGISTERED VOTERS - TOTAL                               REGISTERED VOTERS - TOTAL             PRECINCT 2C3A                                          00 
01010010015000673000000000000000000000000000000          REGISTERED VOTERS - TOTAL                               REGISTERED VOTERS - TOTAL             PRECINCT 2D                                            00 
01010010016000592000000000000000000000000000000          REGISTERED VOTERS - TOTAL                               REGISTERED VOTERS - TOTAL             PRECINCT 2E                                            00 
01010010017000209000000000000000000000000000000          REGISTERED VOTERS - TOTAL                               REGISTERED VOTERS - TOTAL             PRECINCT 2F                                            00 
01010010018000671000000000000000000000000000000          REGISTERED VOTERS - TOTAL                               REGISTERED VOTERS - TOTAL             PRECINCT 2G                                            00 
01010010019002962000000000000000000000000000000          REGISTERED VOTERS - TOTAL                               REGISTERED VOTERS - TOTAL             PRECINCT 3C7G                                          00 
01010010020000816000000000000000000000000000000          REGISTERED VOTERS - TOTAL                               REGISTERED VOTERS - TOTAL             PRECINCT 3D                                            00 
01010010021001141000000000000000000000000000000          REGISTERED VOTERS - TOTAL                               REGISTERED VOTERS - TOTAL             PRECINCT 3E                                            00 
01010010022000529000000000000000000000000000000          REGISTERED VOTERS - TOTAL                               REGISTERED VOTERS - TOTAL             PRECINCT 3F                                            00 
01010010023000541000000000000000000000000000000          REGISTERED VOTERS - TOTAL                               REGISTERED VOTERS - TOTAL             PRECINCT 3G                                            00 
01010010024000851000000000000000000000000000000          REGISTERED VOTERS - TOTAL                               REGISTERED VOTERS - TOTAL             PRECINCT 3H3C                                          00 
01010010025001296000000000000000000000000000000          REGISTERED VOTERS - TOTAL                               REGISTERED VOTERS - TOTAL             PRECINCT 3I                                            00 
01010010026001382000000000000000000000000000000          REGISTERED VOTERS - TOTAL                               REGISTERED VOTERS - TOTAL             PRECINCT 4A6E                                          00 
01010010027001722000000000000000000000000000000          REGISTERED VOTERS - TOTAL                               REGISTERED VOTERS - TOTAL             PRECINCT 4B                                            00 
01010010028000322000000000000000000000000000000          REGISTERED VOTERS - TOTAL                               REGISTERED VOTERS - TOTAL             PRECINCT 4C                                            00 
01010010029001479000000000000000000000000000000          REGISTERED VOTERS - TOTAL                               REGISTERED VOTERS - TOTAL             PRECINCT 4D                                            00 
01010010030000675000000000000000000000000000000          REGISTERED VOTERS - TOTAL                               REGISTERED VOTERS - TOTAL             PRECINCT 4E                                            00 
01010010031001741000000000000000000000000000000          REGISTERED VOTERS - TOTAL                               REGISTERED VOTERS - TOTAL             PRECINCT 4F                                            00 
01010010032001759000000000000000000000000000000          REGISTERED VOTERS - TOTAL                               REGISTERED VOTERS - TOTAL             PRECINCT 4G                                            00 
01020010001000409000263000093000053000000000000          BALLOTS CAST - TOTAL                                    BALLOTS CAST - TOTAL                  PRECINCT 1A3B                                          00 
01020010002000654000450000151000053000000000000          BALLOTS CAST - TOTAL                                    BALLOTS CAST - TOTAL                  PRECINCT 1A5A                                          00 
01020010003000146000075000062000009000000000000          BALLOTS CAST - TOTAL                                    BALLOTS CAST - TOTAL                  PRECINCT 1B                                            00 
01020010004000173000102000060000011000000000000          BALLOTS CAST - TOTAL                                    BALLOTS CAST - TOTAL                  PRECINCT 1C                                            00 
01020010005000319000224000077000018000000000000          BALLOTS CAST - TOTAL                                    BALLOTS CAST - TOTAL                  PRECINCT 1D                                            00 
01020010006000453000219000206000028000000000000          BALLOTS CAST - TOTAL                                    BALLOTS CAST - TOTAL                  PRECINCT 1E                                            00 
01020010007000610000454000102000054000000000000          BALLOTS CAST - TOTAL                                    BALLOTS CAST - TOTAL                  PRECINCT 1E7C                                          00 
01020010008000495000244000229000022000000000000          BALLOTS CAST - TOTAL                                    BALLOTS CAST - TOTAL                  PRECINCT 1F                                            00 
01020010009000275000105000145000025000000000000          BALLOTS CAST - TOTAL                                    BALLOTS CAST - TOTAL                  PRECINCT 1G                                            00 
01020010010000325000168000147000010000000000000          BALLOTS CAST - TOTAL                                    BALLOTS CAST - TOTAL                  PRECINCT 1H                                            00 
01020010011000060000018000037000005000000000000          BALLOTS CAST - TOTAL                                    BALLOTS CAST - TOTAL                  PRECINCT 1I                                            00 
01020010012000465000294000128000043000000000000          BALLOTS CAST - TOTAL                                    BALLOTS CAST - TOTAL                  PRECINCT 2A1A                                          00 
01020010013000484000307000146000031000000000000          BALLOTS CAST - TOTAL                                    BALLOTS CAST - TOTAL                  PRECINCT 2B2A                                          00 
01020010014000640000375000192000073000000000000          BALLOTS CAST - TOTAL                                    BALLOTS CAST - TOTAL                  PRECINCT 2C3A                                          00 
01020010015000363000121000220000022000000000000          BALLOTS CAST - TOTAL                                    BALLOTS CAST - TOTAL                  PRECINCT 2D                                            00 
01020010016000340000170000153000017000000000000          BALLOTS CAST - TOTAL                                    BALLOTS CAST - TOTAL                  PRECINCT 2E                                            00 
01020010017000120000041000075000004000000000000          BALLOTS CAST - TOTAL                                    BALLOTS CAST - TOTAL                  PRECINCT 2F                                            00 
01020010018000379000218000138000023000000000000          BALLOTS CAST - TOTAL                                    BALLOTS CAST - TOTAL                  PRECINCT 2G                                            00 
01020010019001539001017000364000158000000000000          BALLOTS CAST - TOTAL                                    BALLOTS CAST - TOTAL                  PRECINCT 3C7G                                          00 
01020010020000460000240000195000025000000000000          BALLOTS CAST - TOTAL                                    BALLOTS CAST - TOTAL                  PRECINCT 3D                                            00 
01020010021000739000431000265000043000000000000          BALLOTS CAST - TOTAL                                    BALLOTS CAST - TOTAL                  PRECINCT 3E                                            00 
01020010022000314000141000154000019000000000000          BALLOTS CAST - TOTAL                                    BALLOTS CAST - TOTAL                  PRECINCT 3F                                            00 
01020010023000332000194000117000021000000000000          BALLOTS CAST - TOTAL                                    BALLOTS CAST - TOTAL                  PRECINCT 3G                                            00 
01020010024000358000231000068000059000000000000          BALLOTS CAST - TOTAL                                    BALLOTS CAST - TOTAL                  PRECINCT 3H3C                                          00 
01020010025000765000533000174000058000000000000          BALLOTS CAST - TOTAL                                    BALLOTS CAST - TOTAL                  PRECINCT 3I                                            00 
01020010026000842000605000137000100000000000000          BALLOTS CAST - TOTAL                                    BALLOTS CAST - TOTAL                  PRECINCT 4A6E                                          00 
01020010027000990000499000396000095000000000000          BALLOTS CAST - TOTAL                                    BALLOTS CAST - TOTAL                  PRECINCT 4B                                            00 
01020010028000180000095000081000004000000000000          BALLOTS CAST - TOTAL                                    BALLOTS CAST - TOTAL                  PRECINCT 4C                                            00 
01020010029000851000448000351000052000000000000          BALLOTS CAST - TOTAL                                    BALLOTS CAST - TOTAL                  PRECINCT 4D                                            00 
01020010030000408000220000169000019000000000000          BALLOTS CAST - TOTAL                                    BALLOTS CAST - TOTAL                  PRECINCT 4E                                            00 
01020010031000968000629000258000081000000000000          BALLOTS CAST - TOTAL                                    BALLOTS CAST - TOTAL                  PRECINCT 4F                                            00 
01020010032001183000800000307000076000000000000          BALLOTS CAST - TOTAL                                    BALLOTS CAST - TOTAL                  PRECINCT 4G                                            00 
01030010001000168000111000032000025000000000000REP       Straight Party                                          Republican Party                      PRECINCT 1A3B                                          01 
01030010002000220000156000044000020000000000000REP       Straight Party                                          Republican Party                      PRECINCT 1A5A                                          01 
01030010003000082000047000031000004000000000000REP       Straight Party                                          Republican Party                      PRECINCT 1B                                            01 
01030010004000081000044000034000003000000000000REP       Straight Party                                          Republican Party                      PRECINCT 1C                                            01 
01030010005000173000119000043000011000000000000REP       Straight Party                                          Republican Party                      PRECINCT 1D                                            01 
01030010006000227000102000114000011000000000000REP       Straight Party                                          Republican Party                      PRECINCT 1E                                            01 
01030010007000268000193000046000029000000000000REP       Straight Party                                          Republican Party                      PRECINCT 1E7C                                          01 
01030010008000266000133000120000013000000000000REP       Straight Party                                          Republican Party                      PRECINCT 1F                                            01 
01030010009000135000054000072000009000000000000REP       Straight Party                                          Republican Party                      PRECINCT 1G                                            01 
01030010010000176000088000081000007000000000000REP       Straight Party                                          Republican Party                      PRECINCT 1H                                            01 
01030010011000037000010000025000002000000000000REP       Straight Party                                          Republican Party                      PRECINCT 1I                                            01 
01030010012000092000066000017000009000000000000REP       Straight Party                                          Republican Party                      PRECINCT 2A1A                                          01 
01030010013000100000069000026000005000000000000REP       Straight Party                                          Republican Party                      PRECINCT 2B2A                                          01 
01030010014000242000136000067000039000000000000REP       Straight Party                                          Republican Party                      PRECINCT 2C3A                                          01 
01030010015000157000053000093000011000000000000REP       Straight Party                                          Republican Party                      PRECINCT 2D                                            01 
01030010016000152000082000060000010000000000000REP       Straight Party                                          Republican Party                      PRECINCT 2E                                            01 
01030010017000058000026000030000002000000000000REP       Straight Party                                          Republican Party                      PRECINCT 2F                                            01 
01030010018000186000110000067000009000000000000REP       Straight Party                                          Republican Party                      PRECINCT 2G                                            01 
01030010019000591000385000130000076000000000000REP       Straight Party                                          Republican Party                      PRECINCT 3C7G                                          01 
01030010020000262000128000115000019000000000000REP       Straight Party                                          Republican Party                      PRECINCT 3D                                            01 
01030010021000406000242000145000019000000000000REP       Straight Party                                          Republican Party                      PRECINCT 3E                                            01 
01030010022000170000076000083000011000000000000REP       Straight Party                                          Republican Party                      PRECINCT 3F                                            01 
01030010023000193000117000064000012000000000000REP       Straight Party                                          Republican Party                      PRECINCT 3G                                            01 
01030010024000185000109000039000037000000000000REP       Straight Party                                          Republican Party                      PRECINCT 3H3C                                          01 
01030010025000417000296000091000030000000000000REP       Straight Party                                          Republican Party                      PRECINCT 3I                                            01 
01030010026000374000258000058000058000000000000REP       Straight Party                                          Republican Party                      PRECINCT 4A6E                                          01 
01030010027000504000246000213000045000000000000REP       Straight Party                                          Republican Party                      PRECINCT 4B                                            01 
01030010028000093000049000044000000000000000000REP       Straight Party                                          Republican Party                      PRECINCT 4C                                            01 
01030010029000496000252000213000031000000000000REP       Straight Party                                          Republican Party                      PRECINCT 4D                                            01 
01030010030000204000125000072000007000000000000REP       Straight Party                                          Republican Party                      PRECINCT 4E                                            01 
01030010031000505000336000135000034000000000000REP       Straight Party                                          Republican Party                      PRECINCT 4F                                            01 
01030010032000571000381000151000039000000000000REP       Straight Party                                          Republican Party                      PRECINCT 4G                                            01 
01030020001000091000061000023000007000000000000DEM       Straight Party                                          Democratic Party                      PRECINCT 1A3B                                          01 
01030020002000174000115000042000017000000000000DEM       Straight Party                                          Democratic Party                      PRECINCT 1A5A                                          01 
01030020003000006000003000003000000000000000000DEM       Straight Party                                          Democratic Party                      PRECINCT 1B                                            01 
01030020004000012000009000003000000000000000000DEM       Straight Party                                          Democratic Party                      PRECINCT 1C                                            01 
01030020005000022000016000002000004000000000000DEM       Straight Party                                          Democratic Party                      PRECINCT 1D                                            01 
01030020006000038000021000011000006000000000000DEM       Straight Party                                          Democratic Party                      PRECINCT 1E                                            01 
01030020007000065000040000014000011000000000000DEM       Straight Party                                          Democratic Party                      PRECINCT 1E7C                                          01 
01030020008000019000010000007000002000000000000DEM       Straight Party                                          Democratic Party                      PRECINCT 1F                                            01 
01030020009000014000004000008000002000000000000DEM       Straight Party                                          Democratic Party                      PRECINCT 1G                                            01 
01030020010000014000011000003000000000000000000DEM       Straight Party                                          Democratic Party                      PRECINCT 1H                                            01 
01030020011000003000002000001000000000000000000DEM       Straight Party                                          Democratic Party                      PRECINCT 1I                                            01 
01030020012000246000143000080000023000000000000DEM       Straight Party                                          Democratic Party                      PRECINCT 2A1A                                          01 
01030020013000227000133000073000021000000000000DEM       Straight Party                                          Democratic Party                      PRECINCT 2B2A                                          01 
01030020014000177000104000063000010000000000000DEM       Straight Party                                          Democratic Party                      PRECINCT 2C3A                                          01 
01030020015000036000015000015000006000000000000DEM       Straight Party                                          Democratic Party                      PRECINCT 2D                                            01 
01030020016000025000012000010000003000000000000DEM       Straight Party                                          Democratic Party                      PRECINCT 2E                                            01 
01030020017000006000002000004000000000000000000DEM       Straight Party                                          Democratic Party                      PRECINCT 2F                                            01 
01030020018000049000023000018000008000000000000DEM       Straight Party                                          Democratic Party                      PRECINCT 2G                                            01 
01030020019000258000158000078000022000000000000DEM       Straight Party                                          Democratic Party                      PRECINCT 3C7G                                          01 
01030020020000023000018000003000002000000000000DEM       Straight Party                                          Democratic Party                      PRECINCT 3D                                            01 
01030020021000028000018000007000003000000000000DEM       Straight Party                                          Democratic Party                      PRECINCT 3E                                            01 
01030020022000011000005000006000000000000000000DEM       Straight Party                                          Democratic Party                      PRECINCT 3F                                            01 
01030020023000014000009000002000003000000000000DEM       Straight Party                                          Democratic Party                      PRECINCT 3G                                            01 
01030020024000065000037000016000012000000000000DEM       Straight Party                                          Democratic Party                      PRECINCT 3H3C                                          01 
01030020025000047000027000013000007000000000000DEM       Straight Party                                          Democratic Party                      PRECINCT 3I                                            01 
01030020026000114000081000020000013000000000000DEM       Straight Party                                          Democratic Party                      PRECINCT 4A6E                                          01 
01030020027000066000033000019000014000000000000DEM       Straight Party                                          Democratic Party                      PRECINCT 4B                                            01 
01030020028000015000007000008000000000000000000DEM       Straight Party                                          Democratic Party                      PRECINCT 4C                                            01 
01030020029000028000015000011000002000000000000DEM       Straight Party                                          Democratic Party                      PRECINCT 4D                                            01 
01030020030000019000007000011000001000000000000DEM       Straight Party                                          Democratic Party                      PRECINCT 4E                                            01 
01030020031000074000034000023000017000000000000DEM       Straight Party                                          Democratic Party                      PRECINCT 4F                                            01 
01030020032000069000035000020000014000000000000DEM       Straight Party                                          Democratic Party                      PRECINCT 4G                                            01 
01030030001000000000000000000000000000000000000LIB       Straight Party                                          Libertarian Party                     PRECINCT 1A3B                                          01 
01030030002000006000003000002000001000000000000LIB       Straight Party                                          Libertarian Party                     PRECINCT 1A5A                                          01 
01030030003000000000000000000000000000000000000LIB       Straight Party                                          Libertarian Party                     PRECINCT 1B                                            01 
01030030004000000000000000000000000000000000000LIB       Straight Party                                          Libertarian Party                     PRECINCT 1C                                            01 
01030030005000000000000000000000000000000000000LIB       Straight Party                                          Libertarian Party                     PRECINCT 1D                                            01 
01030030006000001000001000000000000000000000000LIB       Straight Party                                          Libertarian Party                     PRECINCT 1E                                            01 
01030030007000001000001000000000000000000000000LIB       Straight Party                                          Libertarian Party                     PRECINCT 1E7C                                          01 
01030030008000001000001000000000000000000000000LIB       Straight Party                                          Libertarian Party                     PRECINCT 1F                                            01 
01030030009000001000001000000000000000000000000LIB       Straight Party                                          Libertarian Party                     PRECINCT 1G                                            01 
01030030010000001000000000001000000000000000000LIB       Straight Party                                          Libertarian Party                     PRECINCT 1H                                            01 
01030030011000000000000000000000000000000000000LIB       Straight Party                                          Libertarian Party                     PRECINCT 1I                                            01 
01030030012000003000002000001000000000000000000LIB       Straight Party                                          Libertarian Party                     PRECINCT 2A1A                                          01 
01030030013000003000003000000000000000000000000LIB       Straight Party                                          Libertarian Party                     PRECINCT 2B2A                                          01 
01030030014000002000001000001000000000000000000LIB       Straight Party                                          Libertarian Party                     PRECINCT 2C3A                                          01 
01030030015000004000002000002000000000000000000LIB       Straight Party                                          Libertarian Party                     PRECINCT 2D                                            01 
01030030016000002000002000000000000000000000000LIB       Straight Party                                          Libertarian Party                     PRECINCT 2E                                            01 
01030030017000001000001000000000000000000000000LIB       Straight Party                                          Libertarian Party                     PRECINCT 2F                                            01 
01030030018000000000000000000000000000000000000LIB       Straight Party                                          Libertarian Party                     PRECINCT 2G                                            01 
01030030019000003000002000000000001000000000000LIB       Straight Party                                          Libertarian Party                     PRECINCT 3C7G                                          01 
01030030020000000000000000000000000000000000000LIB       Straight Party                                          Libertarian Party                     PRECINCT 3D                                            01 
01030030021000000000000000000000000000000000000LIB       Straight Party                                          Libertarian Party                     PRECINCT 3E                                            01 
01030030022000000000000000000000000000000000000LIB       Straight Party                                          Libertarian Party                     PRECINCT 3F                                            01 
01030030023000002000002000000000000000000000000LIB       Straight Party                                          Libertarian Party                     PRECINCT 3G                                            01 
01030030024000002000001000000000001000000000000LIB       Straight Party                                          Libertarian Party                     PRECINCT 3H3C                                          01 
01030030025000003000001000001000001000000000000LIB       Straight Party                                          Libertarian Party                     PRECINCT 3I                                            01 
01030030026000001000001000000000000000000000000LIB       Straight Party                                          Libertarian Party                     PRECINCT 4A6E                                          01 
01030030027000005000001000004000000000000000000LIB       Straight Party                                          Libertarian Party                     PRECINCT 4B                                            01 
01030030028000001000000000001000000000000000000LIB       Straight Party                                          Libertarian Party                     PRECINCT 4C                                            01 
01030030029000000000000000000000000000000000000LIB       Straight Party                                          Libertarian Party                     PRECINCT 4D                                            01 
01030030030000000000000000000000000000000000000LIB       Straight Party                                          Libertarian Party                     PRECINCT 4E                                            01 
01030030031000004000000000004000000000000000000LIB       Straight Party                                          Libertarian Party                     PRECINCT 4F                                            01 
01030030032000003000002000001000000000000000000LIB       Straight Party                                          Libertarian Party                     PRECINCT 4G                                            01 
01030040001000000000000000000000000000000000000          Straight Party                                          OVER VOTES                            PRECINCT 1A3B                                          01 
01030040002000001000001000000000000000000000000          Straight Party                                          OVER VOTES                            PRECINCT 1A5A                                          01 
01030040003000000000000000000000000000000000000          Straight Party                                          OVER VOTES                            PRECINCT 1B                                            01 
01030040004000000000000000000000000000000000000          Straight Party                                          OVER VOTES                            PRECINCT 1C                                            01 
01030040005000000000000000000000000000000000000          Straight Party                                          OVER VOTES                            PRECINCT 1D                                            01 
01030040006000000000000000000000000000000000000          Straight Party                                          OVER VOTES                            PRECINCT 1E                                            01 
01030040007000000000000000000000000000000000000          Straight Party                                          OVER VOTES                            PRECINCT 1E7C                                          01 
01030040008000000000000000000000000000000000000          Straight Party                                          OVER VOTES                            PRECINCT 1F                                            01 
01030040009000001000000000001000000000000000000          Straight Party                                          OVER VOTES                            PRECINCT 1G                                            01 
01030040010000000000000000000000000000000000000          Straight Party                                          OVER VOTES                            PRECINCT 1H                                            01 
01030040011000000000000000000000000000000000000          Straight Party                                          OVER VOTES                            PRECINCT 1I                                            01 
01030040012000000000000000000000000000000000000          Straight Party                                          OVER VOTES                            PRECINCT 2A1A                                          01 
01030040013000000000000000000000000000000000000          Straight Party                                          OVER VOTES                            PRECINCT 2B2A                                          01 
01030040014000001000001000000000000000000000000          Straight Party                                          OVER VOTES                            PRECINCT 2C3A                                          01 
01030040015000001000001000000000000000000000000          Straight Party                                          OVER VOTES                            PRECINCT 2D                                            01 
01030040016000000000000000000000000000000000000          Straight Party                                          OVER VOTES                            PRECINCT 2E                                            01 
01030040017000000000000000000000000000000000000          Straight Party                                          OVER VOTES                            PRECINCT 2F                                            01 
01030040018000000000000000000000000000000000000          Straight Party                                          OVER VOTES                            PRECINCT 2G                                            01 
01030040019000000000000000000000000000000000000          Straight Party                                          OVER VOTES                            PRECINCT 3C7G                                          01 
01030040020000000000000000000000000000000000000          Straight Party                                          OVER VOTES                            PRECINCT 3D                                            01 
01030040021000000000000000000000000000000000000          Straight Party                                          OVER VOTES                            PRECINCT 3E                                            01 
01030040022000000000000000000000000000000000000          Straight Party                                          OVER VOTES                            PRECINCT 3F                                            01 
01030040023000000000000000000000000000000000000          Straight Party                                          OVER VOTES                            PRECINCT 3G                                            01 
01030040024000000000000000000000000000000000000          Straight Party                                          OVER VOTES                            PRECINCT 3H3C                                          01 
01030040025000000000000000000000000000000000000          Straight Party                                          OVER VOTES                            PRECINCT 3I                                            01 
01030040026000000000000000000000000000000000000          Straight Party                                          OVER VOTES                            PRECINCT 4A6E                                          01 
01030040027000000000000000000000000000000000000          Straight Party                                          OVER VOTES                            PRECINCT 4B                                            01 
01030040028000000000000000000000000000000000000          Straight Party                                          OVER VOTES                            PRECINCT 4C                                            01 
01030040029000000000000000000000000000000000000          Straight Party                                          OVER VOTES                            PRECINCT 4D                                            01 
01030040030000000000000000000000000000000000000          Straight Party                                          OVER VOTES                            PRECINCT 4E                                            01 
01030040031000000000000000000000000000000000000          Straight Party                                          OVER VOTES                            PRECINCT 4F                                            01 
01030040032000000000000000000000000000000000000          Straight Party                                          OVER VOTES                            PRECINCT 4G                                            01 
01030050001000150000091000038000021000000000000          Straight Party                                          UNDER VOTES                           PRECINCT 1A3B                                          01 
01030050002000253000175000063000015000000000000          Straight Party                                          UNDER VOTES                           PRECINCT 1A5A                                          01 
01030050003000058000025000028000005000000000000          Straight Party                                          UNDER VOTES                           PRECINCT 1B                                            01 
01030050004000080000049000023000008000000000000          Straight Party                                          UNDER VOTES                           PRECINCT 1C                                            01 
01030050005000124000089000032000003000000000000          Straight Party                                          UNDER VOTES                           PRECINCT 1D                                            01 
01030050006000187000095000081000011000000000000          Straight Party                                          UNDER VOTES                           PRECINCT 1E                                            01 
01030050007000276000220000042000014000000000000          Straight Party                                          UNDER VOTES                           PRECINCT 1E7C                                          01 
01030050008000209000100000102000007000000000000          Straight Party                                          UNDER VOTES                           PRECINCT 1F                                            01 
01030050009000124000046000064000014000000000000          Straight Party                                          UNDER VOTES                           PRECINCT 1G                                            01 
01030050010000134000069000062000003000000000000          Straight Party                                          UNDER VOTES                           PRECINCT 1H                                            01 
01030050011000020000006000011000003000000000000          Straight Party                                          UNDER VOTES                           PRECINCT 1I                                            01 
01030050012000124000083000030000011000000000000          Straight Party                                          UNDER VOTES                           PRECINCT 2A1A                                          01 
01030050013000154000102000047000005000000000000          Straight Party                                          UNDER VOTES                           PRECINCT 2B2A                                          01 
01030050014000218000133000061000024000000000000          Straight Party                                          UNDER VOTES                           PRECINCT 2C3A                                          01 
01030050015000165000050000110000005000000000000          Straight Party                                          UNDER VOTES                           PRECINCT 2D                                            01 
01030050016000161000074000083000004000000000000          Straight Party                                          UNDER VOTES                           PRECINCT 2E                                            01 
01030050017000055000012000041000002000000000000          Straight Party                                          UNDER VOTES                           PRECINCT 2F                                            01 
01030050018000144000085000053000006000000000000          Straight Party                                          UNDER VOTES                           PRECINCT 2G                                            01 
01030050019000687000472000156000059000000000000          Straight Party                                          UNDER VOTES                           PRECINCT 3C7G                                          01 
01030050020000175000094000077000004000000000000          Straight Party                                          UNDER VOTES                           PRECINCT 3D                                            01 
01030050021000305000171000113000021000000000000          Straight Party                                          UNDER VOTES                           PRECINCT 3E                                            01 
01030050022000133000060000065000008000000000000          Straight Party                                          UNDER VOTES                           PRECINCT 3F                                            01 
01030050023000123000066000051000006000000000000          Straight Party                                          UNDER VOTES                           PRECINCT 3G                                            01 
01030050024000106000084000013000009000000000000          Straight Party                                          UNDER VOTES                           PRECINCT 3H3C                                          01 
01030050025000298000209000069000020000000000000          Straight Party                                          UNDER VOTES                           PRECINCT 3I                                            01 
01030050026000353000265000059000029000000000000          Straight Party                                          UNDER VOTES                           PRECINCT 4A6E                                          01 
01030050027000415000219000160000036000000000000          Straight Party                                          UNDER VOTES                           PRECINCT 4B                                            01 
01030050028000071000039000028000004000000000000          Straight Party                                          UNDER VOTES                           PRECINCT 4C                                            01 
01030050029000327000181000127000019000000000000          Straight Party                                          UNDER VOTES                           PRECINCT 4D                                            01 
01030050030000185000088000086000011000000000000          Straight Party                                          UNDER VOTES                           PRECINCT 4E                                            01 
01030050031000385000259000096000030000000000000          Straight Party                                          UNDER VOTES                           PRECINCT 4F                                            01 
01030050032000540000382000135000023000000000000          Straight Party                                          UNDER VOTES                           PRECINCT 4G                                            01 
01040010001000261000172000053000036000000000000REP       United States Senator                                   Ted Cruz                              PRECINCT 1A3B                                          01 
01040010002000366000263000077000026000000000000REP       United States Senator                                   Ted Cruz                              PRECINCT 1A5A                                          01 
01040010003000136000069000058000009000000000000REP       United States Senator                                   Ted Cruz                              PRECINCT 1B                                            01 
01040010004000148000084000054000010000000000000REP       United States Senator                                   Ted Cruz                              PRECINCT 1C                                            01 
01040010005000274000195000066000013000000000000REP       United States Senator                                   Ted Cruz                              PRECINCT 1D                                            01 
01040010006000366000179000169000018000000000000REP       United States Senator                                   Ted Cruz                              PRECINCT 1E                                            01 
01040010007000462000346000078000038000000000000REP       United States Senator                                   Ted Cruz                              PRECINCT 1E7C                                          01 
01040010008000442000221000205000016000000000000REP       United States Senator                                   Ted Cruz                              PRECINCT 1F                                            01 
01040010009000229000088000124000017000000000000REP       United States Senator                                   Ted Cruz                              PRECINCT 1G                                            01 
01040010010000291000146000135000010000000000000REP       United States Senator                                   Ted Cruz                              PRECINCT 1H                                            01 
01040010011000051000015000032000004000000000000REP       United States Senator                                   Ted Cruz                              PRECINCT 1I                                            01 
01040010012000134000086000033000015000000000000REP       United States Senator                                   Ted Cruz                              PRECINCT 2A1A                                          01 
01040010013000151000102000042000007000000000000REP       United States Senator                                   Ted Cruz                              PRECINCT 2B2A                                          01 
01040010014000365000209000104000052000000000000REP       United States Senator                                   Ted Cruz                              PRECINCT 2C3A                                          01 
01040010015000274000088000172000014000000000000REP       United States Senator                                   Ted Cruz                              PRECINCT 2D                                            01 
01040010016000284000142000128000014000000000000REP       United States Senator                                   Ted Cruz                              PRECINCT 2E                                            01 
01040010017000098000032000064000002000000000000REP       United States Senator                                   Ted Cruz                              PRECINCT 2F                                            01 
01040010018000294000174000107000013000000000000REP       United States Senator                                   Ted Cruz                              PRECINCT 2G                                            01 
01040010019001037000681000242000114000000000000REP       United States Senator                                   Ted Cruz                              PRECINCT 3C7G                                          01 
01040010020000405000208000175000022000000000000REP       United States Senator                                   Ted Cruz                              PRECINCT 3D                                            01 
01040010021000666000391000241000034000000000000REP       United States Senator                                   Ted Cruz                              PRECINCT 3E                                            01 
01040010022000270000118000137000015000000000000REP       United States Senator                                   Ted Cruz                              PRECINCT 3F                                            01 
01040010023000286000173000098000015000000000000REP       United States Senator                                   Ted Cruz                              PRECINCT 3G                                            01 
01040010024000254000166000043000045000000000000REP       United States Senator                                   Ted Cruz                              PRECINCT 3H3C                                          01 
01040010025000662000469000144000049000000000000REP       United States Senator                                   Ted Cruz                              PRECINCT 3I                                            01 
01040010026000594000425000095000074000000000000REP       United States Senator                                   Ted Cruz                              PRECINCT 4A6E                                          01 
01040010027000826000421000337000068000000000000REP       United States Senator                                   Ted Cruz                              PRECINCT 4B                                            01 
01040010028000151000080000067000004000000000000REP       United States Senator                                   Ted Cruz                              PRECINCT 4C                                            01 
01040010029000777000406000322000049000000000000REP       United States Senator                                   Ted Cruz                              PRECINCT 4D                                            01 
01040010030000346000196000132000018000000000000REP       United States Senator                                   Ted Cruz                              PRECINCT 4E                                            01 
01040010031000790000533000201000056000000000000REP       United States Senator                                   Ted Cruz                              PRECINCT 4F                                            01 
01040010032000998000691000250000057000000000000REP       United States Senator                                   Ted Cruz                              PRECINCT 4G                                            01 
01040020001000143000087000039000017000000000000DEM       United States Senator                                   Beto O'Rourke                         PRECINCT 1A3B                                          01 
01040020002000275000180000070000025000000000000DEM       United States Senator                                   Beto O'Rourke                         PRECINCT 1A5A                                          01 
01040020003000010000006000004000000000000000000DEM       United States Senator                                   Beto O'Rourke                         PRECINCT 1B                                            01 
01040020004000024000018000005000001000000000000DEM       United States Senator                                   Beto O'Rourke                         PRECINCT 1C                                            01 
01040020005000041000027000009000005000000000000DEM       United States Senator                                   Beto O'Rourke                         PRECINCT 1D                                            01 
01040020006000081000037000034000010000000000000DEM       United States Senator                                   Beto O'Rourke                         PRECINCT 1E                                            01 
01040020007000139000102000022000015000000000000DEM       United States Senator                                   Beto O'Rourke                         PRECINCT 1E7C                                          01 
01040020008000050000021000023000006000000000000DEM       United States Senator                                   Beto O'Rourke                         PRECINCT 1F                                            01 
01040020009000041000013000020000008000000000000DEM       United States Senator                                   Beto O'Rourke                         PRECINCT 1G                                            01 
01040020010000033000022000011000000000000000000DEM       United States Senator                                   Beto O'Rourke                         PRECINCT 1H                                            01 
01040020011000007000003000004000000000000000000DEM       United States Senator                                   Beto O'Rourke                         PRECINCT 1I                                            01 
01040020012000326000205000093000028000000000000DEM       United States Senator                                   Beto O'Rourke                         PRECINCT 2A1A                                          01 
01040020013000321000196000101000024000000000000DEM       United States Senator                                   Beto O'Rourke                         PRECINCT 2B2A                                          01 
01040020014000263000159000085000019000000000000DEM       United States Senator                                   Beto O'Rourke                         PRECINCT 2C3A                                          01 
01040020015000082000031000044000007000000000000DEM       United States Senator                                   Beto O'Rourke                         PRECINCT 2D                                            01 
01040020016000055000028000024000003000000000000DEM       United States Senator                                   Beto O'Rourke                         PRECINCT 2E                                            01 
01040020017000016000006000008000002000000000000DEM       United States Senator                                   Beto O'Rourke                         PRECINCT 2F                                            01 
01040020018000071000038000024000009000000000000DEM       United States Senator                                   Beto O'Rourke                         PRECINCT 2G                                            01 
01040020019000479000317000119000043000000000000DEM       United States Senator                                   Beto O'Rourke                         PRECINCT 3C7G                                          01 
01040020020000053000032000018000003000000000000DEM       United States Senator                                   Beto O'Rourke                         PRECINCT 3D                                            01 
01040020021000071000039000023000009000000000000DEM       United States Senator                                   Beto O'Rourke                         PRECINCT 3E                                            01 
01040020022000042000023000015000004000000000000DEM       United States Senator                                   Beto O'Rourke                         PRECINCT 3F                                            01 
01040020023000041000020000015000006000000000000DEM       United States Senator                                   Beto O'Rourke                         PRECINCT 3G                                            01 
01040020024000099000061000025000013000000000000DEM       United States Senator                                   Beto O'Rourke                         PRECINCT 3H3C                                          01 
01040020025000096000060000028000008000000000000DEM       United States Senator                                   Beto O'Rourke                         PRECINCT 3I                                            01 
01040020026000236000171000040000025000000000000DEM       United States Senator                                   Beto O'Rourke                         PRECINCT 4A6E                                          01 
01040020027000144000071000049000024000000000000DEM       United States Senator                                   Beto O'Rourke                         PRECINCT 4B                                            01 
01040020028000028000015000013000000000000000000DEM       United States Senator                                   Beto O'Rourke                         PRECINCT 4C                                            01 
01040020029000067000039000026000002000000000000DEM       United States Senator                                   Beto O'Rourke                         PRECINCT 4D                                            01 
01040020030000053000021000031000001000000000000DEM       United States Senator                                   Beto O'Rourke                         PRECINCT 4E                                            01 
01040020031000162000089000048000025000000000000DEM       United States Senator                                   Beto O'Rourke                         PRECINCT 4F                                            01 
01040020032000166000098000050000018000000000000DEM       United States Senator                                   Beto O'Rourke                         PRECINCT 4G                                            01 
01040030001000004000003000001000000000000000000LIB       United States Senator                                   Neal M. Dikeman                       PRECINCT 1A3B                                          01 
01040030002000006000003000002000001000000000000LIB       United States Senator                                   Neal M. Dikeman                       PRECINCT 1A5A                                          01 
01040030003000000000000000000000000000000000000LIB       United States Senator                                   Neal M. Dikeman                       PRECINCT 1B                                            01 
01040030004000000000000000000000000000000000000LIB       United States Senator                                   Neal M. Dikeman                       PRECINCT 1C                                            01 
01040030005000003000001000002000000000000000000LIB       United States Senator                                   Neal M. Dikeman                       PRECINCT 1D                                            01 
01040030006000003000001000002000000000000000000LIB       United States Senator                                   Neal M. Dikeman                       PRECINCT 1E                                            01 
01040030007000004000002000002000000000000000000LIB       United States Senator                                   Neal M. Dikeman                       PRECINCT 1E7C                                          01 
01040030008000000000000000000000000000000000000LIB       United States Senator                                   Neal M. Dikeman                       PRECINCT 1F                                            01 
01040030009000001000001000000000000000000000000LIB       United States Senator                                   Neal M. Dikeman                       PRECINCT 1G                                            01 
01040030010000001000000000001000000000000000000LIB       United States Senator                                   Neal M. Dikeman                       PRECINCT 1H                                            01 
01040030011000001000000000001000000000000000000LIB       United States Senator                                   Neal M. Dikeman                       PRECINCT 1I                                            01 
01040030012000001000000000001000000000000000000LIB       United States Senator                                   Neal M. Dikeman                       PRECINCT 2A1A                                          01 
01040030013000007000006000001000000000000000000LIB       United States Senator                                   Neal M. Dikeman                       PRECINCT 2B2A                                          01 
01040030014000007000004000002000001000000000000LIB       United States Senator                                   Neal M. Dikeman                       PRECINCT 2C3A                                          01 
01040030015000002000000000001000001000000000000LIB       United States Senator                                   Neal M. Dikeman                       PRECINCT 2D                                            01 
01040030016000001000000000001000000000000000000LIB       United States Senator                                   Neal M. Dikeman                       PRECINCT 2E                                            01 
01040030017000003000001000002000000000000000000LIB       United States Senator                                   Neal M. Dikeman                       PRECINCT 2F                                            01 
01040030018000011000005000005000001000000000000LIB       United States Senator                                   Neal M. Dikeman                       PRECINCT 2G                                            01 
01040030019000014000010000003000001000000000000LIB       United States Senator                                   Neal M. Dikeman                       PRECINCT 3C7G                                          01 
01040030020000001000000000001000000000000000000LIB       United States Senator                                   Neal M. Dikeman                       PRECINCT 3D                                            01 
01040030021000002000001000001000000000000000000LIB       United States Senator                                   Neal M. Dikeman                       PRECINCT 3E                                            01 
01040030022000001000000000001000000000000000000LIB       United States Senator                                   Neal M. Dikeman                       PRECINCT 3F                                            01 
01040030023000004000001000003000000000000000000LIB       United States Senator                                   Neal M. Dikeman                       PRECINCT 3G                                            01 
01040030024000002000001000000000001000000000000LIB       United States Senator                                   Neal M. Dikeman                       PRECINCT 3H3C                                          01 
01040030025000003000001000001000001000000000000LIB       United States Senator                                   Neal M. Dikeman                       PRECINCT 3I                                            01 
01040030026000003000002000001000000000000000000LIB       United States Senator                                   Neal M. Dikeman                       PRECINCT 4A6E                                          01 
01040030027000014000003000010000001000000000000LIB       United States Senator                                   Neal M. Dikeman                       PRECINCT 4B                                            01 
01040030028000001000000000001000000000000000000LIB       United States Senator                                   Neal M. Dikeman                       PRECINCT 4C                                            01 
01040030029000002000001000001000000000000000000LIB       United States Senator                                   Neal M. Dikeman                       PRECINCT 4D                                            01 
01040030030000003000000000003000000000000000000LIB       United States Senator                                   Neal M. Dikeman                       PRECINCT 4E                                            01 
01040030031000010000003000007000000000000000000LIB       United States Senator                                   Neal M. Dikeman                       PRECINCT 4F                                            01 
01040030032000011000007000004000000000000000000LIB       United States Senator                                   Neal M. Dikeman                       PRECINCT 4G                                            01 
01040040001000000000000000000000000000000000000          United States Senator                                   OVER VOTES                            PRECINCT 1A3B                                          01 
01040040002000000000000000000000000000000000000          United States Senator                                   OVER VOTES                            PRECINCT 1A5A                                          01 
01040040003000000000000000000000000000000000000          United States Senator                                   OVER VOTES                            PRECINCT 1B                                            01 
01040040004000000000000000000000000000000000000          United States Senator                                   OVER VOTES                            PRECINCT 1C                                            01 
01040040005000000000000000000000000000000000000          United States Senator                                   OVER VOTES                            PRECINCT 1D                                            01 
01040040006000000000000000000000000000000000000          United States Senator                                   OVER VOTES                            PRECINCT 1E                                            01 
01040040007000000000000000000000000000000000000          United States Senator                                   OVER VOTES                            PRECINCT 1E7C                                          01 
01040040008000000000000000000000000000000000000          United States Senator                                   OVER VOTES                            PRECINCT 1F                                            01 
01040040009000000000000000000000000000000000000          United States Senator                                   OVER VOTES                            PRECINCT 1G                                            01 
01040040010000000000000000000000000000000000000          United States Senator                                   OVER VOTES                            PRECINCT 1H                                            01 
01040040011000000000000000000000000000000000000          United States Senator                                   OVER VOTES                            PRECINCT 1I                                            01 
01040040012000000000000000000000000000000000000          United States Senator                                   OVER VOTES                            PRECINCT 2A1A                                          01 
01040040013000000000000000000000000000000000000          United States Senator                                   OVER VOTES                            PRECINCT 2B2A                                          01 
01040040014000000000000000000000000000000000000          United States Senator                                   OVER VOTES                            PRECINCT 2C3A                                          01 
01040040015000000000000000000000000000000000000          United States Senator                                   OVER VOTES                            PRECINCT 2D                                            01 
01040040016000000000000000000000000000000000000          United States Senator                                   OVER VOTES                            PRECINCT 2E                                            01 
01040040017000000000000000000000000000000000000          United States Senator                                   OVER VOTES                            PRECINCT 2F                                            01 
01040040018000000000000000000000000000000000000          United States Senator                                   OVER VOTES                            PRECINCT 2G                                            01 
01040040019000000000000000000000000000000000000          United States Senator                                   OVER VOTES                            PRECINCT 3C7G                                          01 
01040040020000000000000000000000000000000000000          United States Senator                                   OVER VOTES                            PRECINCT 3D                                            01 
01040040021000000000000000000000000000000000000          United States Senator                                   OVER VOTES                            PRECINCT 3E                                            01 
01040040022000000000000000000000000000000000000          United States Senator                                   OVER VOTES                            PRECINCT 3F                                            01 
01040040023000000000000000000000000000000000000          United States Senator                                   OVER VOTES                            PRECINCT 3G                                            01 
01040040024000000000000000000000000000000000000          United States Senator                                   OVER VOTES                            PRECINCT 3H3C                                          01 
01040040025000000000000000000000000000000000000          United States Senator                                   OVER VOTES                            PRECINCT 3I                                            01 
01040040026000000000000000000000000000000000000          United States Senator                                   OVER VOTES                            PRECINCT 4A6E                                          01 
01040040027000000000000000000000000000000000000          United States Senator                                   OVER VOTES                            PRECINCT 4B                                            01 
01040040028000000000000000000000000000000000000          United States Senator                                   OVER VOTES                            PRECINCT 4C                                            01 
01040040029000000000000000000000000000000000000          United States Senator                                   OVER VOTES                            PRECINCT 4D                                            01 
01040040030000000000000000000000000000000000000          United States Senator                                   OVER VOTES                            PRECINCT 4E                                            01 
01040040031000000000000000000000000000000000000          United States Senator                                   OVER VOTES                            PRECINCT 4F                                            01 
01040040032000000000000000000000000000000000000          United States Senator                                   OVER VOTES                            PRECINCT 4G                                            01 
01040050001000001000001000000000000000000000000          United States Senator                                   UNDER VOTES                           PRECINCT 1A3B                                          01 
01040050002000007000004000002000001000000000000          United States Senator                                   UNDER VOTES                           PRECINCT 1A5A                                          01 
01040050003000000000000000000000000000000000000          United States Senator                                   UNDER VOTES                           PRECINCT 1B                                            01 
01040050004000001000000000001000000000000000000          United States Senator                                   UNDER VOTES                           PRECINCT 1C                                            01 
01040050005000001000001000000000000000000000000          United States Senator                                   UNDER VOTES                           PRECINCT 1D                                            01 
01040050006000003000002000001000000000000000000          United States Senator                                   UNDER VOTES                           PRECINCT 1E                                            01 
01040050007000005000004000000000001000000000000          United States Senator                                   UNDER VOTES                           PRECINCT 1E7C                                          01 
01040050008000003000002000001000000000000000000          United States Senator                                   UNDER VOTES                           PRECINCT 1F                                            01 
01040050009000004000003000001000000000000000000          United States Senator                                   UNDER VOTES                           PRECINCT 1G                                            01 
01040050010000000000000000000000000000000000000          United States Senator                                   UNDER VOTES                           PRECINCT 1H                                            01 
01040050011000001000000000000000001000000000000          United States Senator                                   UNDER VOTES                           PRECINCT 1I                                            01 
01040050012000004000003000001000000000000000000          United States Senator                                   UNDER VOTES                           PRECINCT 2A1A                                          01 
01040050013000005000003000002000000000000000000          United States Senator                                   UNDER VOTES                           PRECINCT 2B2A                                          01 
01040050014000005000003000001000001000000000000          United States Senator                                   UNDER VOTES                           PRECINCT 2C3A                                          01 
01040050015000005000002000003000000000000000000          United States Senator                                   UNDER VOTES                           PRECINCT 2D                                            01 
01040050016000000000000000000000000000000000000          United States Senator                                   UNDER VOTES                           PRECINCT 2E                                            01 
01040050017000003000002000001000000000000000000          United States Senator                                   UNDER VOTES                           PRECINCT 2F                                            01 
01040050018000003000001000002000000000000000000          United States Senator                                   UNDER VOTES                           PRECINCT 2G                                            01 
01040050019000009000009000000000000000000000000          United States Senator                                   UNDER VOTES                           PRECINCT 3C7G                                          01 
01040050020000001000000000001000000000000000000          United States Senator                                   UNDER VOTES                           PRECINCT 3D                                            01 
01040050021000000000000000000000000000000000000          United States Senator                                   UNDER VOTES                           PRECINCT 3E                                            01 
01040050022000001000000000001000000000000000000          United States Senator                                   UNDER VOTES                           PRECINCT 3F                                            01 
01040050023000001000000000001000000000000000000          United States Senator                                   UNDER VOTES                           PRECINCT 3G                                            01 
01040050024000003000003000000000000000000000000          United States Senator                                   UNDER VOTES                           PRECINCT 3H3C                                          01 
01040050025000004000003000001000000000000000000          United States Senator                                   UNDER VOTES                           PRECINCT 3I                                            01 
01040050026000009000007000001000001000000000000          United States Senator                                   UNDER VOTES                           PRECINCT 4A6E                                          01 
01040050027000006000004000000000002000000000000          United States Senator                                   UNDER VOTES                           PRECINCT 4B                                            01 
01040050028000000000000000000000000000000000000          United States Senator                                   UNDER VOTES                           PRECINCT 4C                                            01 
01040050029000005000002000002000001000000000000          United States Senator                                   UNDER VOTES                           PRECINCT 4D                                            01 
01040050030000006000003000003000000000000000000          United States Senator                                   UNDER VOTES                           PRECINCT 4E                                            01 
01040050031000006000004000002000000000000000000          United States Senator                                   UNDER VOTES                           PRECINCT 4F                                            01 
01040050032000008000004000003000001000000000000          United States Senator                                   UNDER VOTES                           PRECINCT 4G                                            01 
01050010001000270000177000057000036000000000000REP       United States Representative, District 4                John Ratcliffe                        PRECINCT 1A3B                                          01 
01050010002000370000264000080000026000000000000REP       United States Representative, District 4                John Ratcliffe                        PRECINCT 1A5A                                          01 
01050010003000134000067000058000009000000000000REP       United States Representative, District 4                John Ratcliffe                        PRECINCT 1B                                            01 
01050010004000146000083000054000009000000000000REP       United States Representative, District 4                John Ratcliffe                        PRECINCT 1C                                            01 
01050010005000273000193000067000013000000000000REP       United States Representative, District 4                John Ratcliffe                        PRECINCT 1D                                            01 
01050010006000374000183000172000019000000000000REP       United States Representative, District 4                John Ratcliffe                        PRECINCT 1E                                            01 
01050010007000471000355000079000037000000000000REP       United States Representative, District 4                John Ratcliffe                        PRECINCT 1E7C                                          01 
01050010008000443000222000204000017000000000000REP       United States Representative, District 4                John Ratcliffe                        PRECINCT 1F                                            01 
01050010009000228000088000122000018000000000000REP       United States Representative, District 4                John Ratcliffe                        PRECINCT 1G                                            01 
01050010010000291000147000135000009000000000000REP       United States Representative, District 4                John Ratcliffe                        PRECINCT 1H                                            01 
01050010011000052000015000033000004000000000000REP       United States Representative, District 4                John Ratcliffe                        PRECINCT 1I                                            01 
01050010012000136000089000031000016000000000000REP       United States Representative, District 4                John Ratcliffe                        PRECINCT 2A1A                                          01 
01050010013000158000106000045000007000000000000REP       United States Representative, District 4                John Ratcliffe                        PRECINCT 2B2A                                          01 
01050010014000373000215000106000052000000000000REP       United States Representative, District 4                John Ratcliffe                        PRECINCT 2C3A                                          01 
01050010015000274000090000170000014000000000000REP       United States Representative, District 4                John Ratcliffe                        PRECINCT 2D                                            01 
01050010016000283000144000126000013000000000000REP       United States Representative, District 4                John Ratcliffe                        PRECINCT 2E                                            01 
01050010017000102000034000066000002000000000000REP       United States Representative, District 4                John Ratcliffe                        PRECINCT 2F                                            01 
01050010018000298000176000109000013000000000000REP       United States Representative, District 4                John Ratcliffe                        PRECINCT 2G                                            01 
01050010019001078000713000247000118000000000000REP       United States Representative, District 4                John Ratcliffe                        PRECINCT 3C7G                                          01 
01050010020000410000213000177000020000000000000REP       United States Representative, District 4                John Ratcliffe                        PRECINCT 3D                                            01 
01050010021000665000392000238000035000000000000REP       United States Representative, District 4                John Ratcliffe                        PRECINCT 3E                                            01 
01050010022000273000120000138000015000000000000REP       United States Representative, District 4                John Ratcliffe                        PRECINCT 3F                                            01 
01050010023000283000169000099000015000000000000REP       United States Representative, District 4                John Ratcliffe                        PRECINCT 3G                                            01 
01050010024000260000169000047000044000000000000REP       United States Representative, District 4                John Ratcliffe                        PRECINCT 3H3C                                          01 
01050010025000667000479000141000047000000000000REP       United States Representative, District 4                John Ratcliffe                        PRECINCT 3I                                            01 
01050010026000619000447000096000076000000000000REP       United States Representative, District 4                John Ratcliffe                        PRECINCT 4A6E                                          01 
01050010027000833000416000347000070000000000000REP       United States Representative, District 4                John Ratcliffe                        PRECINCT 4B                                            01 
01050010028000147000076000067000004000000000000REP       United States Representative, District 4                John Ratcliffe                        PRECINCT 4C                                            01 
01050010029000777000405000321000051000000000000REP       United States Representative, District 4                John Ratcliffe                        PRECINCT 4D                                            01 
01050010030000351000197000136000018000000000000REP       United States Representative, District 4                John Ratcliffe                        PRECINCT 4E                                            01 
01050010031000800000542000202000056000000000000REP       United States Representative, District 4                John Ratcliffe                        PRECINCT 4F                                            01 
01050010032001007000695000255000057000000000000REP       United States Representative, District 4                John Ratcliffe                        PRECINCT 4G                                            01 
01050020001000131000081000035000015000000000000DEM       United States Representative, District 4                Catherine Krantz                      PRECINCT 1A3B                                          01 
01050020002000261000173000063000025000000000000DEM       United States Representative, District 4                Catherine Krantz                      PRECINCT 1A5A                                          01 
01050020003000010000007000003000000000000000000DEM       United States Representative, District 4                Catherine Krantz                      PRECINCT 1B                                            01 
01050020004000020000016000003000001000000000000DEM       United States Representative, District 4                Catherine Krantz                      PRECINCT 1C                                            01 
01050020005000037000026000006000005000000000000DEM       United States Representative, District 4                Catherine Krantz                      PRECINCT 1D                                            01 
01050020006000066000033000024000009000000000000DEM       United States Representative, District 4                Catherine Krantz                      PRECINCT 1E                                            01 
01050020007000122000087000020000015000000000000DEM       United States Representative, District 4                Catherine Krantz                      PRECINCT 1E7C                                          01 
01050020008000044000018000021000005000000000000DEM       United States Representative, District 4                Catherine Krantz                      PRECINCT 1F                                            01 
01050020009000036000011000018000007000000000000DEM       United States Representative, District 4                Catherine Krantz                      PRECINCT 1G                                            01 
01050020010000031000021000010000000000000000000DEM       United States Representative, District 4                Catherine Krantz                      PRECINCT 1H                                            01 
01050020011000007000003000004000000000000000000DEM       United States Representative, District 4                Catherine Krantz                      PRECINCT 1I                                            01 
01050020012000317000198000093000026000000000000DEM       United States Representative, District 4                Catherine Krantz                      PRECINCT 2A1A                                          01 
01050020013000311000192000095000024000000000000DEM       United States Representative, District 4                Catherine Krantz                      PRECINCT 2B2A                                          01 
01050020014000252000151000081000020000000000000DEM       United States Representative, District 4                Catherine Krantz                      PRECINCT 2C3A                                          01 
01050020015000074000028000038000008000000000000DEM       United States Representative, District 4                Catherine Krantz                      PRECINCT 2D                                            01 
01050020016000050000024000023000003000000000000DEM       United States Representative, District 4                Catherine Krantz                      PRECINCT 2E                                            01 
01050020017000015000004000009000002000000000000DEM       United States Representative, District 4                Catherine Krantz                      PRECINCT 2F                                            01 
01050020018000071000037000025000009000000000000DEM       United States Representative, District 4                Catherine Krantz                      PRECINCT 2G                                            01 
01050020019000416000275000103000038000000000000DEM       United States Representative, District 4                Catherine Krantz                      PRECINCT 3C7G                                          01 
01050020020000044000027000014000003000000000000DEM       United States Representative, District 4                Catherine Krantz                      PRECINCT 3D                                            01 
01050020021000059000032000020000007000000000000DEM       United States Representative, District 4                Catherine Krantz                      PRECINCT 3E                                            01 
01050020022000036000017000015000004000000000000DEM       United States Representative, District 4                Catherine Krantz                      PRECINCT 3F                                            01 
01050020023000037000018000013000006000000000000DEM       United States Representative, District 4                Catherine Krantz                      PRECINCT 3G                                            01 
01050020024000093000059000020000014000000000000DEM       United States Representative, District 4                Catherine Krantz                      PRECINCT 3H3C                                          01 
01050020025000084000050000025000009000000000000DEM       United States Representative, District 4                Catherine Krantz                      PRECINCT 3I                                            01 
01050020026000203000143000038000022000000000000DEM       United States Representative, District 4                Catherine Krantz                      PRECINCT 4A6E                                          01 
01050020027000128000069000037000022000000000000DEM       United States Representative, District 4                Catherine Krantz                      PRECINCT 4B                                            01 
01050020028000027000015000012000000000000000000DEM       United States Representative, District 4                Catherine Krantz                      PRECINCT 4C                                            01 
01050020029000055000032000022000001000000000000DEM       United States Representative, District 4                Catherine Krantz                      PRECINCT 4D                                            01 
01050020030000045000019000025000001000000000000DEM       United States Representative, District 4                Catherine Krantz                      PRECINCT 4E                                            01 
01050020031000142000073000044000025000000000000DEM       United States Representative, District 4                Catherine Krantz                      PRECINCT 4F                                            01 
01050020032000146000088000040000018000000000000DEM       United States Representative, District 4                Catherine Krantz                      PRECINCT 4G                                            01 
01050030001000002000001000000000001000000000000LIB       United States Representative, District 4                Ken Ashby                             PRECINCT 1A3B                                          01 
01050030002000012000008000003000001000000000000LIB       United States Representative, District 4                Ken Ashby                             PRECINCT 1A5A                                          01 
01050030003000000000000000000000000000000000000LIB       United States Representative, District 4                Ken Ashby                             PRECINCT 1B                                            01 
01050030004000002000001000000000001000000000000LIB       United States Representative, District 4                Ken Ashby                             PRECINCT 1C                                            01 
01050030005000005000002000003000000000000000000LIB       United States Representative, District 4                Ken Ashby                             PRECINCT 1D                                            01 
01050030006000006000001000005000000000000000000LIB       United States Representative, District 4                Ken Ashby                             PRECINCT 1E                                            01 
01050030007000005000003000002000000000000000000LIB       United States Representative, District 4                Ken Ashby                             PRECINCT 1E7C                                          01 
01050030008000004000001000003000000000000000000LIB       United States Representative, District 4                Ken Ashby                             PRECINCT 1F                                            01 
01050030009000003000001000002000000000000000000LIB       United States Representative, District 4                Ken Ashby                             PRECINCT 1G                                            01 
01050030010000003000000000002000001000000000000LIB       United States Representative, District 4                Ken Ashby                             PRECINCT 1H                                            01 
01050030011000000000000000000000000000000000000LIB       United States Representative, District 4                Ken Ashby                             PRECINCT 1I                                            01 
01050030012000005000002000003000000000000000000LIB       United States Representative, District 4                Ken Ashby                             PRECINCT 2A1A                                          01 
01050030013000006000003000003000000000000000000LIB       United States Representative, District 4                Ken Ashby                             PRECINCT 2B2A                                          01 
01050030014000009000005000004000000000000000000LIB       United States Representative, District 4                Ken Ashby                             PRECINCT 2C3A                                          01 
01050030015000003000000000003000000000000000000LIB       United States Representative, District 4                Ken Ashby                             PRECINCT 2D                                            01 
01050030016000002000001000001000000000000000000LIB       United States Representative, District 4                Ken Ashby                             PRECINCT 2E                                            01 
01050030017000001000001000000000000000000000000LIB       United States Representative, District 4                Ken Ashby                             PRECINCT 2F                                            01 
01050030018000002000001000000000001000000000000LIB       United States Representative, District 4                Ken Ashby                             PRECINCT 2G                                            01 
01050030019000024000014000009000001000000000000LIB       United States Representative, District 4                Ken Ashby                             PRECINCT 3C7G                                          01 
01050030020000002000000000002000000000000000000LIB       United States Representative, District 4                Ken Ashby                             PRECINCT 3D                                            01 
01050030021000007000004000003000000000000000000LIB       United States Representative, District 4                Ken Ashby                             PRECINCT 3E                                            01 
01050030022000002000002000000000000000000000000LIB       United States Representative, District 4                Ken Ashby                             PRECINCT 3F                                            01 
01050030023000005000002000003000000000000000000LIB       United States Representative, District 4                Ken Ashby                             PRECINCT 3G                                            01 
01050030024000002000001000000000001000000000000LIB       United States Representative, District 4                Ken Ashby                             PRECINCT 3H3C                                          01 
01050030025000006000001000004000001000000000000LIB       United States Representative, District 4                Ken Ashby                             PRECINCT 3I                                            01 
