01010010001001528000000000000000000000000000000          REGISTERED VOTERS - TOTAL                               REGISTERED VOTERS - TOTAL             Precinct 1                                             00 
01010010002000201000000000000000000000000000000          REGISTERED VOTERS - TOTAL                               REGISTERED VOTERS - TOTAL             Precinct 1A                                            00 
01010010003000350000000000000000000000000000000          REGISTERED VOTERS - TOTAL                               REGISTERED VOTERS - TOTAL             Precinct 2                                             00 
01010010004000595000000000000000000000000000000          REGISTERED VOTERS - TOTAL                               REGISTERED VOTERS - TOTAL             Precinct 3                                             00 
01010010005000894000000000000000000000000000000          REGISTERED VOTERS - TOTAL                               REGISTERED VOTERS - TOTAL             Precinct 4                                             00 
01010010006000523000000000000000000000000000000          REGISTERED VOTERS - TOTAL                               REGISTERED VOTERS - TOTAL             Precinct 5                                             00 
01010010007000066000000000000000000000000000000          REGISTERED VOTERS - TOTAL                               REGISTERED VOTERS - TOTAL             Precinct 5A                                            00 
01010010008001088000000000000000000000000000000          REGISTERED VOTERS - TOTAL                               REGISTERED VOTERS - TOTAL             Precinct 6                                             00 
01010010009000636000000000000000000000000000000          REGISTERED VOTERS - TOTAL                               REGISTERED VOTERS - TOTAL             Precinct 7                                             00 
01010010010001042000000000000000000000000000000          REGISTERED VOTERS - TOTAL                               REGISTERED VOTERS - TOTAL             Precinct 8                                             00 
01010010011000336000000000000000000000000000000          REGISTERED VOTERS - TOTAL                               REGISTERED VOTERS - TOTAL             Precinct 9                                             00 
01010010012000999000000000000000000000000000000          REGISTERED VOTERS - TOTAL                               REGISTERED VOTERS - TOTAL             Precinct 10                                            00 
01010010013000985000000000000000000000000000000          REGISTERED VOTERS - TOTAL                               REGISTERED VOTERS - TOTAL             Precinct 11                                            00 
01010010014000826000000000000000000000000000000          REGISTERED VOTERS - TOTAL                               REGISTERED VOTERS - TOTAL             Precinct 12                                            00 
01010010015000667000000000000000000000000000000          REGISTERED VOTERS - TOTAL                               REGISTERED VOTERS - TOTAL             Precinct 13                                            00 
01010010016000208000000000000000000000000000000          REGISTERED VOTERS - TOTAL                               REGISTERED VOTERS - TOTAL             Precinct 14                                            00 
01010010017000198000000000000000000000000000000          REGISTERED VOTERS - TOTAL                               REGISTERED VOTERS - TOTAL             Precinct 14A                                           00 
01020010001000850000580000198000068000004000000          BALLOTS CAST - TOTAL                                    BALLOTS CAST - TOTAL                  Precinct 1                                             00 
01020010002000128000095000028000005000000000000          BALLOTS CAST - TOTAL                                    BALLOTS CAST - TOTAL                  Precinct 1A                                            00 
01020010003000228000093000120000014000001000000          BALLOTS CAST - TOTAL                                    BALLOTS CAST - TOTAL                  Precinct 2                                             00 
01020010004000362000187000122000052000001000000          BALLOTS CAST - TOTAL                                    BALLOTS CAST - TOTAL                  Precinct 3                                             00 
01020010005000521000112000346000063000000000000          BALLOTS CAST - TOTAL                                    BALLOTS CAST - TOTAL                  Precinct 4                                             00 
01020010006000350000154000168000024000004000000          BALLOTS CAST - TOTAL                                    BALLOTS CAST - TOTAL                  Precinct 5                                             00 
01020010007000032000016000014000002000000000000          BALLOTS CAST - TOTAL                                    BALLOTS CAST - TOTAL                  Precinct 5A                                            00 
01020010008000778000188000464000118000007000001          BALLOTS CAST - TOTAL                                    BALLOTS CAST - TOTAL                  Precinct 6                                             00 
01020010009000364000111000223000029000001000000          BALLOTS CAST - TOTAL                                    BALLOTS CAST - TOTAL                  Precinct 7                                             00 
01020010010000574000185000349000039000001000000          BALLOTS CAST - TOTAL                                    BALLOTS CAST - TOTAL                  Precinct 8                                             00 
01020010011000191000076000095000017000003000000          BALLOTS CAST - TOTAL                                    BALLOTS CAST - TOTAL                  Precinct 9                                             00 
01020010012000576000261000277000032000006000000          BALLOTS CAST - TOTAL                                    BALLOTS CAST - TOTAL                  Precinct 10                                            00 
01020010013000483000186000259000038000000000000          BALLOTS CAST - TOTAL                                    BALLOTS CAST - TOTAL                  Precinct 11                                            00 
01020010014000463000105000325000032000001000000          BALLOTS CAST - TOTAL                                    BALLOTS CAST - TOTAL                  Precinct 12                                            00 
01020010015000455000233000163000059000000000000          BALLOTS CAST - TOTAL                                    BALLOTS CAST - TOTAL                  Precinct 13                                            00 
01020010016000129000075000038000016000000000000          BALLOTS CAST - TOTAL                                    BALLOTS CAST - TOTAL                  Precinct 14                                            00 
01020010017000122000064000045000013000000000000          BALLOTS CAST - TOTAL                                    BALLOTS CAST - TOTAL                  Precinct 14A                                           00 
01030010001000492000337000108000047000000000000REP       Straight Party                                          Republican Party                      Precinct 1                                             01 
01030010002000082000060000018000004000000000000REP       Straight Party                                          Republican Party                      Precinct 1A                                            01 
01030010003000135000056000074000005000000000000REP       Straight Party                                          Republican Party                      Precinct 2                                             01 
01030010004000224000118000069000037000000000000REP       Straight Party                                          Republican Party                      Precinct 3                                             01 
01030010005000317000067000206000044000000000000REP       Straight Party                                          Republican Party                      Precinct 4                                             01 
01030010006000216000093000101000022000000000000REP       Straight Party                                          Republican Party                      Precinct 5                                             01 
01030010007000028000013000013000002000000000000REP       Straight Party                                          Republican Party                      Precinct 5A                                            01 
01030010008000526000129000300000096000000000001REP       Straight Party                                          Republican Party                      Precinct 6                                             01 
01030010009000217000071000124000022000000000000REP       Straight Party                                          Republican Party                      Precinct 7                                             01 
01030010010000353000129000201000023000000000000REP       Straight Party                                          Republican Party                      Precinct 8                                             01 
01030010011000117000045000062000009000001000000REP       Straight Party                                          Republican Party                      Precinct 9                                             01 
01030010012000382000184000179000019000000000000REP       Straight Party                                          Republican Party                      Precinct 10                                            01 
01030010013000276000104000144000028000000000000REP       Straight Party                                          Republican Party                      Precinct 11                                            01 
01030010014000247000056000169000022000000000000REP       Straight Party                                          Republican Party                      Precinct 12                                            01 
01030010015000300000148000110000042000000000000REP       Straight Party                                          Republican Party                      Precinct 13                                            01 
01030010016000076000040000024000012000000000000REP       Straight Party                                          Republican Party                      Precinct 14                                            01 
01030010017000080000046000028000006000000000000REP       Straight Party                                          Republican Party                      Precinct 14A                                           01 
01030020001000067000039000019000009000000000000DEM       Straight Party                                          Democratic Party                      Precinct 1                                             01 
01030020002000006000005000000000001000000000000DEM       Straight Party                                          Democratic Party                      Precinct 1A                                            01 
01030020003000010000003000004000003000000000000DEM       Straight Party                                          Democratic Party                      Precinct 2                                             01 
01030020004000030000012000016000002000000000000DEM       Straight Party                                          Democratic Party                      Precinct 3                                             01 
01030020005000057000010000039000008000000000000DEM       Straight Party                                          Democratic Party                      Precinct 4                                             01 
01030020006000021000009000012000000000000000000DEM       Straight Party                                          Democratic Party                      Precinct 5                                             01 
01030020007000000000000000000000000000000000000DEM       Straight Party                                          Democratic Party                      Precinct 5A                                            01 
01030020008000035000009000022000004000000000000DEM       Straight Party                                          Democratic Party                      Precinct 6                                             01 
01030020009000020000005000014000001000000000000DEM       Straight Party                                          Democratic Party                      Precinct 7                                             01 
01030020010000053000013000037000003000000000000DEM       Straight Party                                          Democratic Party                      Precinct 8                                             01 
01030020011000010000004000004000002000000000000DEM       Straight Party                                          Democratic Party                      Precinct 9                                             01 
01030020012000028000013000013000002000000000000DEM       Straight Party                                          Democratic Party                      Precinct 10                                            01 
01030020013000051000012000034000005000000000000DEM       Straight Party                                          Democratic Party                      Precinct 11                                            01 
01030020014000090000013000071000006000000000000DEM       Straight Party                                          Democratic Party                      Precinct 12                                            01 
01030020015000020000008000008000004000000000000DEM       Straight Party                                          Democratic Party                      Precinct 13                                            01 
01030020016000013000007000005000001000000000000DEM       Straight Party                                          Democratic Party                      Precinct 14                                            01 
01030020017000014000005000006000003000000000000DEM       Straight Party                                          Democratic Party                      Precinct 14A                                           01 
01030030001000000000000000000000000000000000000LIB       Straight Party                                          Libertarian Party                     Precinct 1                                             01 
01030030002000000000000000000000000000000000000LIB       Straight Party                                          Libertarian Party                     Precinct 1A                                            01 
01030030003000000000000000000000000000000000000LIB       Straight Party                                          Libertarian Party                     Precinct 2                                             01 
01030030004000000000000000000000000000000000000LIB       Straight Party                                          Libertarian Party                     Precinct 3                                             01 
01030030005000000000000000000000000000000000000LIB       Straight Party                                          Libertarian Party                     Precinct 4                                             01 
01030030006000001000000000001000000000000000000LIB       Straight Party                                          Libertarian Party                     Precinct 5                                             01 
01030030007000000000000000000000000000000000000LIB       Straight Party                                          Libertarian Party                     Precinct 5A                                            01 
01030030008000001000000000001000000000000000000LIB       Straight Party                                          Libertarian Party                     Precinct 6                                             01 
01030030009000000000000000000000000000000000000LIB       Straight Party                                          Libertarian Party                     Precinct 7                                             01 
01030030010000003000000000002000001000000000000LIB       Straight Party                                          Libertarian Party                     Precinct 8                                             01 
01030030011000000000000000000000000000000000000LIB       Straight Party                                          Libertarian Party                     Precinct 9                                             01 
01030030012000000000000000000000000000000000000LIB       Straight Party                                          Libertarian Party                     Precinct 10                                            01 
01030030013000004000000000004000000000000000000LIB       Straight Party                                          Libertarian Party                     Precinct 11                                            01 
01030030014000001000000000001000000000000000000LIB       Straight Party                                          Libertarian Party                     Precinct 12                                            01 
01030030015000000000000000000000000000000000000LIB       Straight Party                                          Libertarian Party                     Precinct 13                                            01 
01030030016000000000000000000000000000000000000LIB       Straight Party                                          Libertarian Party                     Precinct 14                                            01 
01030030017000000000000000000000000000000000000LIB       Straight Party                                          Libertarian Party                     Precinct 14A                                           01 
01030040001000000000000000000000000000000000000          Straight Party                                          OVER VOTES                            Precinct 1                                             01 
01030040002000000000000000000000000000000000000          Straight Party                                          OVER VOTES                            Precinct 1A                                            01 
01030040003000000000000000000000000000000000000          Straight Party                                          OVER VOTES                            Precinct 2                                             01 
01030040004000000000000000000000000000000000000          Straight Party                                          OVER VOTES                            Precinct 3                                             01 
01030040005000000000000000000000000000000000000          Straight Party                                          OVER VOTES                            Precinct 4                                             01 
01030040006000000000000000000000000000000000000          Straight Party                                          OVER VOTES                            Precinct 5                                             01 
01030040007000000000000000000000000000000000000          Straight Party                                          OVER VOTES                            Precinct 5A                                            01 
01030040008000000000000000000000000000000000000          Straight Party                                          OVER VOTES                            Precinct 6                                             01 
01030040009000000000000000000000000000000000000          Straight Party                                          OVER VOTES                            Precinct 7                                             01 
01030040010000000000000000000000000000000000000          Straight Party                                          OVER VOTES                            Precinct 8                                             01 
01030040011000000000000000000000000000000000000          Straight Party                                          OVER VOTES                            Precinct 9                                             01 
01030040012000000000000000000000000000000000000          Straight Party                                          OVER VOTES                            Precinct 10                                            01 
01030040013000000000000000000000000000000000000          Straight Party                                          OVER VOTES                            Precinct 11                                            01 
01030040014000000000000000000000000000000000000          Straight Party                                          OVER VOTES                            Precinct 12                                            01 
01030040015000000000000000000000000000000000000          Straight Party                                          OVER VOTES                            Precinct 13                                            01 
01030040016000000000000000000000000000000000000          Straight Party                                          OVER VOTES                            Precinct 14                                            01 
01030040017000000000000000000000000000000000000          Straight Party                                          OVER VOTES                            Precinct 14A                                           01 
01030050001000291000204000071000012000004000000          Straight Party                                          UNDER VOTES                           Precinct 1                                             01 
01030050002000040000030000010000000000000000000          Straight Party                                          UNDER VOTES                           Precinct 1A                                            01 
01030050003000083000034000042000006000001000000          Straight Party                                          UNDER VOTES                           Precinct 2                                             01 
01030050004000108000057000037000013000001000000          Straight Party                                          UNDER VOTES                           Precinct 3                                             01 
01030050005000147000035000101000011000000000000          Straight Party                                          UNDER VOTES                           Precinct 4                                             01 
01030050006000112000052000054000002000004000000          Straight Party                                          UNDER VOTES                           Precinct 5                                             01 
01030050007000004000003000001000000000000000000          Straight Party                                          UNDER VOTES                           Precinct 5A                                            01 
01030050008000216000050000141000018000007000000          Straight Party                                          UNDER VOTES                           Precinct 6                                             01 
01030050009000127000035000085000006000001000000          Straight Party                                          UNDER VOTES                           Precinct 7                                             01 
01030050010000165000043000109000012000001000000          Straight Party                                          UNDER VOTES                           Precinct 8                                             01 
01030050011000064000027000029000006000002000000          Straight Party                                          UNDER VOTES                           Precinct 9                                             01 
01030050012000165000064000085000010000006000000          Straight Party                                          UNDER VOTES                           Precinct 10                                            01 
01030050013000152000070000077000005000000000000          Straight Party                                          UNDER VOTES                           Precinct 11                                            01 
01030050014000125000036000084000004000001000000          Straight Party                                          UNDER VOTES                           Precinct 12                                            01 
01030050015000135000077000045000013000000000000          Straight Party                                          UNDER VOTES                           Precinct 13                                            01 
01030050016000040000028000009000003000000000000          Straight Party                                          UNDER VOTES                           Precinct 14                                            01 
01030050017000028000013000011000004000000000000          Straight Party                                          UNDER VOTES                           Precinct 14A                                           01 
01040010001000716000495000159000058000004000000REP       United States Senator                                   Ted Cruz                              Precinct 1                                             01 
01040010002000117000085000028000004000000000000REP       United States Senator                                   Ted Cruz                              Precinct 1A                                            01 
01040010003000198000080000111000006000001000000REP       United States Senator                                   Ted Cruz                              Precinct 2                                             01 
01040010004000317000170000101000046000000000000REP       United States Senator                                   Ted Cruz                              Precinct 3                                             01 
01040010005000443000098000290000055000000000000REP       United States Senator                                   Ted Cruz                              Precinct 4                                             01 
01040010006000303000135000140000024000004000000REP       United States Senator                                   Ted Cruz                              Precinct 5                                             01 
01040010007000031000016000013000002000000000000REP       United States Senator                                   Ted Cruz                              Precinct 5A                                            01 
01040010008000700000173000408000111000007000001REP       United States Senator                                   Ted Cruz                              Precinct 6                                             01 
01040010009000330000100000202000027000001000000REP       United States Senator                                   Ted Cruz                              Precinct 7                                             01 
01040010010000485000160000292000032000001000000REP       United States Senator                                   Ted Cruz                              Precinct 8                                             01 
01040010011000171000068000089000013000001000000REP       United States Senator                                   Ted Cruz                              Precinct 9                                             01 
01040010012000524000238000257000024000005000000REP       United States Senator                                   Ted Cruz                              Precinct 10                                            01 
01040010013000400000159000209000032000000000000REP       United States Senator                                   Ted Cruz                              Precinct 11                                            01 
01040010014000341000082000232000026000001000000REP       United States Senator                                   Ted Cruz                              Precinct 12                                            01 
01040010015000424000221000147000056000000000000REP       United States Senator                                   Ted Cruz                              Precinct 13                                            01 
01040010016000108000063000031000014000000000000REP       United States Senator                                   Ted Cruz                              Precinct 14                                            01 
01040010017000103000057000038000008000000000000REP       United States Senator                                   Ted Cruz                              Precinct 14A                                           01 
01040020001000129000082000037000010000000000000DEM       United States Senator                                   Beto O'Rourke                         Precinct 1                                             01 
01040020002000011000010000000000001000000000000DEM       United States Senator                                   Beto O'Rourke                         Precinct 1A                                            01 
01040020003000028000011000009000008000000000000DEM       United States Senator                                   Beto O'Rourke                         Precinct 2                                             01 
01040020004000042000015000021000005000001000000DEM       United States Senator                                   Beto O'Rourke                         Precinct 3                                             01 
01040020005000076000014000054000008000000000000DEM       United States Senator                                   Beto O'Rourke                         Precinct 4                                             01 
01040020006000045000019000026000000000000000000DEM       United States Senator                                   Beto O'Rourke                         Precinct 5                                             01 
01040020007000001000000000001000000000000000000DEM       United States Senator                                   Beto O'Rourke                         Precinct 5A                                            01 
01040020008000075000015000053000007000000000000DEM       United States Senator                                   Beto O'Rourke                         Precinct 6                                             01 
01040020009000029000009000018000002000000000000DEM       United States Senator                                   Beto O'Rourke                         Precinct 7                                             01 
01040020010000085000025000054000006000000000000DEM       United States Senator                                   Beto O'Rourke                         Precinct 8                                             01 
01040020011000020000008000006000004000002000000DEM       United States Senator                                   Beto O'Rourke                         Precinct 9                                             01 
01040020012000049000021000019000008000001000000DEM       United States Senator                                   Beto O'Rourke                         Precinct 10                                            01 
01040020013000078000025000047000006000000000000DEM       United States Senator                                   Beto O'Rourke                         Precinct 11                                            01 
01040020014000116000021000089000006000000000000DEM       United States Senator                                   Beto O'Rourke                         Precinct 12                                            01 
01040020015000031000012000016000003000000000000DEM       United States Senator                                   Beto O'Rourke                         Precinct 13                                            01 
01040020016000021000012000007000002000000000000DEM       United States Senator                                   Beto O'Rourke                         Precinct 14                                            01 
01040020017000019000007000007000005000000000000DEM       United States Senator                                   Beto O'Rourke                         Precinct 14A                                           01 
01040030001000003000002000001000000000000000000LIB       United States Senator                                   Neal M. Dikeman                       Precinct 1                                             01 
01040030002000000000000000000000000000000000000LIB       United States Senator                                   Neal M. Dikeman                       Precinct 1A                                            01 
01040030003000001000001000000000000000000000000LIB       United States Senator                                   Neal M. Dikeman                       Precinct 2                                             01 
01040030004000000000000000000000000000000000000LIB       United States Senator                                   Neal M. Dikeman                       Precinct 3                                             01 
01040030005000000000000000000000000000000000000LIB       United States Senator                                   Neal M. Dikeman                       Precinct 4                                             01 
01040030006000001000000000001000000000000000000LIB       United States Senator                                   Neal M. Dikeman                       Precinct 5                                             01 
01040030007000000000000000000000000000000000000LIB       United States Senator                                   Neal M. Dikeman                       Precinct 5A                                            01 
01040030008000002000000000002000000000000000000LIB       United States Senator                                   Neal M. Dikeman                       Precinct 6                                             01 
01040030009000003000001000002000000000000000000LIB       United States Senator                                   Neal M. Dikeman                       Precinct 7                                             01 
01040030010000003000000000002000001000000000000LIB       United States Senator                                   Neal M. Dikeman                       Precinct 8                                             01 
01040030011000000000000000000000000000000000000LIB       United States Senator                                   Neal M. Dikeman                       Precinct 9                                             01 
01040030012000002000002000000000000000000000000LIB       United States Senator                                   Neal M. Dikeman                       Precinct 10                                            01 
01040030013000002000000000002000000000000000000LIB       United States Senator                                   Neal M. Dikeman                       Precinct 11                                            01 
01040030014000006000002000004000000000000000000LIB       United States Senator                                   Neal M. Dikeman                       Precinct 12                                            01 
01040030015000000000000000000000000000000000000LIB       United States Senator                                   Neal M. Dikeman                       Precinct 13                                            01 
01040030016000000000000000000000000000000000000LIB       United States Senator                                   Neal M. Dikeman                       Precinct 14                                            01 
01040030017000000000000000000000000000000000000LIB       United States Senator                                   Neal M. Dikeman                       Precinct 14A                                           01 
01040040001000000000000000000000000000000000000          United States Senator                                   OVER VOTES                            Precinct 1                                             01 
01040040002000000000000000000000000000000000000          United States Senator                                   OVER VOTES                            Precinct 1A                                            01 
01040040003000000000000000000000000000000000000          United States Senator                                   OVER VOTES                            Precinct 2                                             01 
01040040004000000000000000000000000000000000000          United States Senator                                   OVER VOTES                            Precinct 3                                             01 
01040040005000000000000000000000000000000000000          United States Senator                                   OVER VOTES                            Precinct 4                                             01 
01040040006000000000000000000000000000000000000          United States Senator                                   OVER VOTES                            Precinct 5                                             01 
01040040007000000000000000000000000000000000000          United States Senator                                   OVER VOTES                            Precinct 5A                                            01 
01040040008000000000000000000000000000000000000          United States Senator                                   OVER VOTES                            Precinct 6                                             01 
01040040009000000000000000000000000000000000000          United States Senator                                   OVER VOTES                            Precinct 7                                             01 
01040040010000000000000000000000000000000000000          United States Senator                                   OVER VOTES                            Precinct 8                                             01 
01040040011000000000000000000000000000000000000          United States Senator                                   OVER VOTES                            Precinct 9                                             01 
01040040012000000000000000000000000000000000000          United States Senator                                   OVER VOTES                            Precinct 10                                            01 
01040040013000000000000000000000000000000000000          United States Senator                                   OVER VOTES                            Precinct 11                                            01 
01040040014000000000000000000000000000000000000          United States Senator                                   OVER VOTES                            Precinct 12                                            01 
01040040015000000000000000000000000000000000000          United States Senator                                   OVER VOTES                            Precinct 13                                            01 
01040040016000000000000000000000000000000000000          United States Senator                                   OVER VOTES                            Precinct 14                                            01 
01040040017000000000000000000000000000000000000          United States Senator                                   OVER VOTES                            Precinct 14A                                           01 
01040050001000002000001000001000000000000000000          United States Senator                                   UNDER VOTES                           Precinct 1                                             01 
01040050002000000000000000000000000000000000000          United States Senator                                   UNDER VOTES                           Precinct 1A                                            01 
01040050003000001000001000000000000000000000000          United States Senator                                   UNDER VOTES                           Precinct 2                                             01 
01040050004000003000002000000000001000000000000          United States Senator                                   UNDER VOTES                           Precinct 3                                             01 
01040050005000002000000000002000000000000000000          United States Senator                                   UNDER VOTES                           Precinct 4                                             01 
01040050006000001000000000001000000000000000000          United States Senator                                   UNDER VOTES                           Precinct 5                                             01 
01040050007000000000000000000000000000000000000          United States Senator                                   UNDER VOTES                           Precinct 5A                                            01 
01040050008000001000000000001000000000000000000          United States Senator                                   UNDER VOTES                           Precinct 6                                             01 
01040050009000002000001000001000000000000000000          United States Senator                                   UNDER VOTES                           Precinct 7                                             01 
01040050010000001000000000001000000000000000000          United States Senator                                   UNDER VOTES                           Precinct 8                                             01 
01040050011000000000000000000000000000000000000          United States Senator                                   UNDER VOTES                           Precinct 9                                             01 
01040050012000001000000000001000000000000000000          United States Senator                                   UNDER VOTES                           Precinct 10                                            01 
01040050013000003000002000001000000000000000000          United States Senator                                   UNDER VOTES                           Precinct 11                                            01 
01040050014000000000000000000000000000000000000          United States Senator                                   UNDER VOTES                           Precinct 12                                            01 
01040050015000000000000000000000000000000000000          United States Senator                                   UNDER VOTES                           Precinct 13                                            01 
01040050016000000000000000000000000000000000000          United States Senator                                   UNDER VOTES                           Precinct 14                                            01 
01040050017000000000000000000000000000000000000          United States Senator                                   UNDER VOTES                           Precinct 14A                                           01 
01050010001000724000502000161000058000003000000REPUSREP08US Representative, District 8                           Kevin Brady                           Precinct 1                                             01 
01050010003000201000082000110000009000000000000REPUSREP08US Representative, District 8                           Kevin Brady                           Precinct 2                                             01 
01050010004000318000170000102000046000000000000REPUSREP08US Representative, District 8                           Kevin Brady                           Precinct 3                                             01 
01050010005000447000101000291000055000000000000REPUSREP08US Representative, District 8                           Kevin Brady                           Precinct 4                                             01 
01050010006000302000133000141000024000004000000REPUSREP08US Representative, District 8                           Kevin Brady                           Precinct 5                                             01 
01050010008000705000172000415000111000006000001REPUSREP08US Representative, District 8                           Kevin Brady                           Precinct 6                                             01 
01050010016000106000062000031000013000000000000REPUSREP08US Representative, District 8                           Kevin Brady                           Precinct 14                                            01 
01050020001000112000072000031000009000000000000DEMUSREP08US Representative, District 8                           Steven David                          Precinct 1                                             01 
01050020003000022000008000009000005000000000000DEMUSREP08US Representative, District 8                           Steven David                          Precinct 2                                             01 
01050020004000039000014000020000005000000000000DEMUSREP08US Representative, District 8                           Steven David                          Precinct 3                                             01 
01050020005000072000011000053000008000000000000DEMUSREP08US Representative, District 8                           Steven David                          Precinct 4                                             01 
01050020006000041000017000024000000000000000000DEMUSREP08US Representative, District 8                           Steven David                          Precinct 5                                             01 
01050020008000066000014000045000007000000000000DEMUSREP08US Representative, District 8                           Steven David                          Precinct 6                                             01 
01050020016000019000010000007000002000000000000DEMUSREP08US Representative, District 8                           Steven David                          Precinct 14                                            01 
01050030001000006000003000002000001000000000000LIBUSREP08US Representative, District 8                           Chris Duncan                          Precinct 1                                             01 
01050030003000001000001000000000000000000000000LIBUSREP08US Representative, District 8                           Chris Duncan                          Precinct 2                                             01 
01050030004000002000002000000000000000000000000LIBUSREP08US Representative, District 8                           Chris Duncan                          Precinct 3                                             01 
01050030005000000000000000000000000000000000000LIBUSREP08US Representative, District 8                           Chris Duncan                          Precinct 4                                             01 
01050030006000006000004000002000000000000000000LIBUSREP08US Representative, District 8                           Chris Duncan                          Precinct 5                                             01 
01050030008000002000001000001000000000000000000LIBUSREP08US Representative, District 8                           Chris Duncan                          Precinct 6                                             01 
01050030016000004000003000000000001000000000000LIBUSREP08US Representative, District 8                           Chris Duncan                          Precinct 14                                            01 
01050040001000000000000000000000000000000000000   USREP08US Representative, District 8                           OVER VOTES                            Precinct 1                                             01 
01050040003000000000000000000000000000000000000   USREP08US Representative, District 8                           OVER VOTES                            Precinct 2                                             01 
01050040004000000000000000000000000000000000000   USREP08US Representative, District 8                           OVER VOTES                            Precinct 3                                             01 
01050040005000000000000000000000000000000000000   USREP08US Representative, District 8                           OVER VOTES                            Precinct 4                                             01 
01050040006000000000000000000000000000000000000   USREP08US Representative, District 8                           OVER VOTES                            Precinct 5                                             01 
01050040008000000000000000000000000000000000000   USREP08US Representative, District 8                           OVER VOTES                            Precinct 6                                             01 
01050040016000000000000000000000000000000000000   USREP08US Representative, District 8                           OVER VOTES                            Precinct 14                                            01 
01050050001000008000003000004000000000001000000   USREP08US Representative, District 8                           UNDER VOTES                           Precinct 1                                             01 
01050050003000004000002000001000000000001000000   USREP08US Representative, District 8                           UNDER VOTES                           Precinct 2                                             01 
01050050004000003000001000000000001000001000000   USREP08US Representative, District 8                           UNDER VOTES                           Precinct 3                                             01 
01050050005000002000000000002000000000000000000   USREP08US Representative, District 8                           UNDER VOTES                           Precinct 4                                             01 
01050050006000001000000000001000000000000000000   USREP08US Representative, District 8                           UNDER VOTES                           Precinct 5                                             01 
01050050008000005000001000003000000000001000000   USREP08US Representative, District 8                           UNDER VOTES                           Precinct 6                                             01 
01050050016000000000000000000000000000000000000   USREP08US Representative, District 8                           UNDER VOTES                           Precinct 14                                            01 
01060010002000116000084000028000004000000000000REPUSREP17US Representative, District 17                          Bill Flores                           Precinct 1A                                            01 
01060010007000031000016000013000002000000000000REPUSREP17US Representative, District 17                          Bill Flores                           Precinct 5A                                            01 
01060010009000333000100000206000027000000000000REPUSREP17US Representative, District 17                          Bill Flores                           Precinct 7                                             01 
01060010010000481000163000286000032000000000000REPUSREP17US Representative, District 17                          Bill Flores                           Precinct 8                                             01 
01060010011000171000069000088000013000001000000REPUSREP17US Representative, District 17                          Bill Flores                           Precinct 9                                             01 
01060010012000516000238000255000023000000000000REPUSREP17US Representative, District 17                          Bill Flores                           Precinct 10                                            01 
01060010013000404000163000209000032000000000000REPUSREP17US Representative, District 17                          Bill Flores                           Precinct 11                                            01 
01060010014000343000082000235000026000000000000REPUSREP17US Representative, District 17                          Bill Flores                           Precinct 12                                            01 
01060010015000419000218000146000055000000000000REPUSREP17US Representative, District 17                          Bill Flores                           Precinct 13                                            01 
01060010017000104000058000038000008000000000000REPUSREP17US Representative, District 17                          Bill Flores                           Precinct 14A                                           01 
01060020002000009000008000000000001000000000000DEMUSREP17US Representative, District 17                          Rick Kennedy                          Precinct 1A                                            01 
01060020007000001000000000001000000000000000000DEMUSREP17US Representative, District 17                          Rick Kennedy                          Precinct 5A                                            01 
01060020009000025000009000014000002000000000000DEMUSREP17US Representative, District 17                          Rick Kennedy                          Precinct 7                                             01 
01060020010000078000022000050000006000000000000DEMUSREP17US Representative, District 17                          Rick Kennedy                          Precinct 8                                             01 
01060020011000016000006000006000004000000000000DEMUSREP17US Representative, District 17                          Rick Kennedy                          Precinct 9                                             01 
01060020012000043000020000016000007000000000000DEMUSREP17US Representative, District 17                          Rick Kennedy                          Precinct 10                                            01 
01060020013000067000020000041000006000000000000DEMUSREP17US Representative, District 17                          Rick Kennedy                          Precinct 11                                            01 
01060020014000109000020000083000006000000000000DEMUSREP17US Representative, District 17                          Rick Kennedy                          Precinct 12                                            01 
01060020015000028000011000014000003000000000000DEMUSREP17US Representative, District 17                          Rick Kennedy                          Precinct 13                                            01 
01060020017000018000006000007000005000000000000DEMUSREP17US Representative, District 17                          Rick Kennedy                          Precinct 14A                                           01 
01060030002000003000003000000000000000000000000LIBUSREP17US Representative, District 17                          Peter Churchman                       Precinct 1A                                            01 
01060030007000000000000000000000000000000000000LIBUSREP17US Representative, District 17                          Peter Churchman                       Precinct 5A                                            01 
01060030009000001000000000001000000000000000000LIBUSREP17US Representative, District 17                          Peter Churchman                       Precinct 7                                             01 
01060030010000008000000000007000001000000000000LIBUSREP17US Representative, District 17                          Peter Churchman                       Precinct 8                                             01 
01060030011000002000001000001000000000000000000LIBUSREP17US Representative, District 17                          Peter Churchman                       Precinct 9                                             01 
01060030012000008000001000005000002000000000000LIBUSREP17US Representative, District 17                          Peter Churchman                       Precinct 10                                            01 
01060030013000007000001000006000000000000000000LIBUSREP17US Representative, District 17                          Peter Churchman                       Precinct 11                                            01 
01060030014000005000002000003000000000000000000LIBUSREP17US Representative, District 17                          Peter Churchman                       Precinct 12                                            01 
01060030015000004000001000003000000000000000000LIBUSREP17US Representative, District 17                          Peter Churchman                       Precinct 13                                            01 
01060030017000000000000000000000000000000000000LIBUSREP17US Representative, District 17                          Peter Churchman                       Precinct 14A                                           01 
01060040002000000000000000000000000000000000000   USREP17US Representative, District 17                          OVER VOTES                            Precinct 1A                                            01 
01060040007000000000000000000000000000000000000   USREP17US Representative, District 17                          OVER VOTES                            Precinct 5A                                            01 
01060040009000000000000000000000000000000000000   USREP17US Representative, District 17                          OVER VOTES                            Precinct 7                                             01 
01060040010000000000000000000000000000000000000   USREP17US Representative, District 17                          OVER VOTES                            Precinct 8                                             01 
01060040011000000000000000000000000000000000000   USREP17US Representative, District 17                          OVER VOTES                            Precinct 9                                             01 
01060040012000000000000000000000000000000000000   USREP17US Representative, District 17                          OVER VOTES                            Precinct 10                                            01 
01060040013000000000000000000000000000000000000   USREP17US Representative, District 17                          OVER VOTES                            Precinct 11                                            01 
01060040014000000000000000000000000000000000000   USREP17US Representative, District 17                          OVER VOTES                            Precinct 12                                            01 
01060040015000000000000000000000000000000000000   USREP17US Representative, District 17                          OVER VOTES                            Precinct 13                                            01 
01060040017000000000000000000000000000000000000   USREP17US Representative, District 17                          OVER VOTES                            Precinct 14A                                           01 
01060050002000000000000000000000000000000000000   USREP17US Representative, District 17                          UNDER VOTES                           Precinct 1A                                            01 
01060050007000000000000000000000000000000000000   USREP17US Representative, District 17                          UNDER VOTES                           Precinct 5A                                            01 
01060050009000005000002000002000000000001000000   USREP17US Representative, District 17                          UNDER VOTES                           Precinct 7                                             01 
01060050010000007000000000006000000000001000000   USREP17US Representative, District 17                          UNDER VOTES                           Precinct 8                                             01 
01060050011000002000000000000000000000002000000   USREP17US Representative, District 17                          UNDER VOTES                           Precinct 9                                             01 
01060050012000009000002000001000000000006000000   USREP17US Representative, District 17                          UNDER VOTES                           Precinct 10                                            01 
01060050013000005000002000003000000000000000000   USREP17US Representative, District 17                          UNDER VOTES                           Precinct 11                                            01 
01060050014000006000001000004000000000001000000   USREP17US Representative, District 17                          UNDER VOTES                           Precinct 12                                            01 
01060050015000004000003000000000001000000000000   USREP17US Representative, District 17                          UNDER VOTES                           Precinct 13                                            01 
01060050017000000000000000000000000000000000000   USREP17US Representative, District 17                          UNDER VOTES                           Precinct 14A                                           01 
01070010001000730000505000162000059000004000000REP       Governor                                                Greg Abbott                           Precinct 1                                             01 
01070010002000115000084000027000004000000000000REP       Governor                                                Greg Abbott                           Precinct 1A                                            01 
01070010003000203000083000112000007000001000000REP       Governor                                                Greg Abbott                           Precinct 2                                             01 
01070010004000324000172000104000048000000000000REP       Governor                                                Greg Abbott                           Precinct 3                                             01 
01070010005000445000100000292000053000000000000REP       Governor                                                Greg Abbott                           Precinct 4                                             01 
01070010006000308000135000145000024000004000000REP       Governor                                                Greg Abbott                           Precinct 5                                             01 
01070010007000031000016000013000002000000000000REP       Governor                                                Greg Abbott                           Precinct 5A                                            01 
01070010008000709000173000417000111000007000001REP       Governor                                                Greg Abbott                           Precinct 6                                             01 
01070010009000330000098000204000027000001000000REP       Governor                                                Greg Abbott                           Precinct 7                                             01 
01070010010000488000163000292000032000001000000REP       Governor                                                Greg Abbott                           Precinct 8                                             01 
01070010011000173000070000089000013000001000000REP       Governor                                                Greg Abbott                           Precinct 9                                             01 
01070010012000528000240000257000026000005000000REP       Governor                                                Greg Abbott                           Precinct 10                                            01 
01070010013000406000163000212000031000000000000REP       Governor                                                Greg Abbott                           Precinct 11                                            01 
01070010014000349000084000238000026000001000000REP       Governor                                                Greg Abbott                           Precinct 12                                            01 
01070010015000428000222000148000058000000000000REP       Governor                                                Greg Abbott                           Precinct 13                                            01 
01070010016000109000064000031000014000000000000REP       Governor                                                Greg Abbott                           Precinct 14                                            01 
01070010017000105000059000038000008000000000000REP       Governor                                                Greg Abbott                           Precinct 14A                                           01 
01070020001000108000069000031000008000000000000DEM       Governor                                                Lupe Valdez                           Precinct 1                                             01 
01070020002000008000007000000000001000000000000DEM       Governor                                                Lupe Valdez                           Precinct 1A                                            01 
01070020003000021000007000007000007000000000000DEM       Governor                                                Lupe Valdez                           Precinct 2                                             01 
01070020004000036000014000018000003000001000000DEM       Governor                                                Lupe Valdez                           Precinct 3                                             01 
01070020005000072000012000052000008000000000000DEM       Governor                                                Lupe Valdez                           Precinct 4                                             01 
01070020006000039000017000022000000000000000000DEM       Governor                                                Lupe Valdez                           Precinct 5                                             01 
01070020007000001000000000001000000000000000000DEM       Governor                                                Lupe Valdez                           Precinct 5A                                            01 
01070020008000064000014000043000007000000000000DEM       Governor                                                Lupe Valdez                           Precinct 6                                             01 
01070020009000025000009000014000002000000000000DEM       Governor                                                Lupe Valdez                           Precinct 7                                             01 
01070020010000078000021000051000006000000000000DEM       Governor                                                Lupe Valdez                           Precinct 8                                             01 
01070020011000018000006000006000004000002000000DEM       Governor                                                Lupe Valdez                           Precinct 9                                             01 
01070020012000044000019000018000006000001000000DEM       Governor                                                Lupe Valdez                           Precinct 10                                            01 
01070020013000070000020000043000007000000000000DEM       Governor                                                Lupe Valdez                           Precinct 11                                            01 
01070020014000107000020000081000006000000000000DEM       Governor                                                Lupe Valdez                           Precinct 12                                            01 
01070020015000023000010000012000001000000000000DEM       Governor                                                Lupe Valdez                           Precinct 13                                            01 
01070020016000020000011000007000002000000000000DEM       Governor                                                Lupe Valdez                           Precinct 14                                            01 
01070020017000017000005000007000005000000000000DEM       Governor                                                Lupe Valdez                           Precinct 14A                                           01 
01070030001000006000003000002000001000000000000LIB       Governor                                                Mark Jay Tippetts                     Precinct 1                                             01 
01070030002000004000003000001000000000000000000LIB       Governor                                                Mark Jay Tippetts                     Precinct 1A                                            01 
01070030003000003000002000001000000000000000000LIB       Governor                                                Mark Jay Tippetts                     Precinct 2                                             01 
01070030004000001000001000000000000000000000000LIB       Governor                                                Mark Jay Tippetts                     Precinct 3                                             01 
01070030005000002000000000001000001000000000000LIB       Governor                                                Mark Jay Tippetts                     Precinct 4                                             01 
01070030006000003000002000001000000000000000000LIB       Governor                                                Mark Jay Tippetts                     Precinct 5                                             01 
01070030007000000000000000000000000000000000000LIB       Governor                                                Mark Jay Tippetts                     Precinct 5A                                            01 
01070030008000004000001000003000000000000000000LIB       Governor                                                Mark Jay Tippetts                     Precinct 6                                             01 
01070030009000005000002000003000000000000000000LIB       Governor                                                Mark Jay Tippetts                     Precinct 7                                             01 
01070030010000006000001000004000001000000000000LIB       Governor                                                Mark Jay Tippetts                     Precinct 8                                             01 
01070030011000000000000000000000000000000000000LIB       Governor                                                Mark Jay Tippetts                     Precinct 9                                             01 
01070030012000003000002000001000000000000000000LIB       Governor                                                Mark Jay Tippetts                     Precinct 10                                            01 
01070030013000005000001000004000000000000000000LIB       Governor                                                Mark Jay Tippetts                     Precinct 11                                            01 
01070030014000005000001000004000000000000000000LIB       Governor                                                Mark Jay Tippetts                     Precinct 12                                            01 
01070030015000004000001000003000000000000000000LIB       Governor                                                Mark Jay Tippetts                     Precinct 13                                            01 
01070030016000000000000000000000000000000000000LIB       Governor                                                Mark Jay Tippetts                     Precinct 14                                            01 
01070030017000000000000000000000000000000000000LIB       Governor                                                Mark Jay Tippetts                     Precinct 14A                                           01 
01070040001000000000000000000000000000000000000          Governor                                                OVER VOTES                            Precinct 1                                             01 
01070040002000000000000000000000000000000000000          Governor                                                OVER VOTES                            Precinct 1A                                            01 
01070040003000000000000000000000000000000000000          Governor                                                OVER VOTES                            Precinct 2                                             01 
01070040004000000000000000000000000000000000000          Governor                                                OVER VOTES                            Precinct 3                                             01 
01070040005000000000000000000000000000000000000          Governor                                                OVER VOTES                            Precinct 4                                             01 
01070040006000000000000000000000000000000000000          Governor                                                OVER VOTES                            Precinct 5                                             01 
01070040007000000000000000000000000000000000000          Governor                                                OVER VOTES                            Precinct 5A                                            01 
01070040008000000000000000000000000000000000000          Governor                                                OVER VOTES                            Precinct 6                                             01 
01070040009000000000000000000000000000000000000          Governor                                                OVER VOTES                            Precinct 7                                             01 
01070040010000000000000000000000000000000000000          Governor                                                OVER VOTES                            Precinct 8                                             01 
01070040011000000000000000000000000000000000000          Governor                                                OVER VOTES                            Precinct 9                                             01 
01070040012000000000000000000000000000000000000          Governor                                                OVER VOTES                            Precinct 10                                            01 
01070040013000000000000000000000000000000000000          Governor                                                OVER VOTES                            Precinct 11                                            01 
01070040014000000000000000000000000000000000000          Governor                                                OVER VOTES                            Precinct 12                                            01 
01070040015000000000000000000000000000000000000          Governor                                                OVER VOTES                            Precinct 13                                            01 
01070040016000000000000000000000000000000000000          Governor                                                OVER VOTES                            Precinct 14                                            01 
01070040017000000000000000000000000000000000000          Governor                                                OVER VOTES                            Precinct 14A                                           01 
01070050001000006000003000003000000000000000000          Governor                                                UNDER VOTES                           Precinct 1                                             01 
01070050002000001000001000000000000000000000000          Governor                                                UNDER VOTES                           Precinct 1A                                            01 
01070050003000001000001000000000000000000000000          Governor                                                UNDER VOTES                           Precinct 2                                             01 
01070050004000001000000000000000001000000000000          Governor                                                UNDER VOTES                           Precinct 3                                             01 
01070050005000002000000000001000001000000000000          Governor                                                UNDER VOTES                           Precinct 4                                             01 
01070050006000000000000000000000000000000000000          Governor                                                UNDER VOTES                           Precinct 5                                             01 
01070050007000000000000000000000000000000000000          Governor                                                UNDER VOTES                           Precinct 5A                                            01 
01070050008000001000000000001000000000000000000          Governor                                                UNDER VOTES                           Precinct 6                                             01 
01070050009000004000002000002000000000000000000          Governor                                                UNDER VOTES                           Precinct 7                                             01 
01070050010000002000000000002000000000000000000          Governor                                                UNDER VOTES                           Precinct 8                                             01 
01070050011000000000000000000000000000000000000          Governor                                                UNDER VOTES                           Precinct 9                                             01 
01070050012000001000000000001000000000000000000          Governor                                                UNDER VOTES                           Precinct 10                                            01 
01070050013000002000002000000000000000000000000          Governor                                                UNDER VOTES                           Precinct 11                                            01 
01070050014000002000000000002000000000000000000          Governor                                                UNDER VOTES                           Precinct 12                                            01 
01070050015000000000000000000000000000000000000          Governor                                                UNDER VOTES                           Precinct 13                                            01 
01070050016000000000000000000000000000000000000          Governor                                                UNDER VOTES                           Precinct 14                                            01 
01070050017000000000000000000000000000000000000          Governor                                                UNDER VOTES                           Precinct 14A                                           01 
01080010001000669000466000141000058000004000000REP       Lieutenant Governor                                     Dan Patrick                           Precinct 1                                             01 
01080010002000107000079000024000004000000000000REP       Lieutenant Governor                                     Dan Patrick                           Precinct 1A                                            01 
01080010003000183000073000101000009000000000000REP       Lieutenant Governor                                     Dan Patrick                           Precinct 2                                             01 
01080010004000297000159000092000046000000000000REP       Lieutenant Governor                                     Dan Patrick                           Precinct 3                                             01 
01080010005000407000096000259000052000000000000REP       Lieutenant Governor                                     Dan Patrick                           Precinct 4                                             01 
01080010006000296000130000138000024000004000000REP       Lieutenant Governor                                     Dan Patrick                           Precinct 5                                             01 
01080010007000030000015000013000002000000000000REP       Lieutenant Governor                                     Dan Patrick                           Precinct 5A                                            01 
01080010008000674000168000386000112000007000001REP       Lieutenant Governor                                     Dan Patrick                           Precinct 6                                             01 
01080010009000301000094000179000027000001000000REP       Lieutenant Governor                                     Dan Patrick                           Precinct 7                                             01 
01080010010000454000159000263000032000000000000REP       Lieutenant Governor                                     Dan Patrick                           Precinct 8                                             01 
01080010011000162000067000082000012000001000000REP       Lieutenant Governor                                     Dan Patrick                           Precinct 9                                             01 
01080010012000509000239000240000025000005000000REP       Lieutenant Governor                                     Dan Patrick                           Precinct 10                                            01 
01080010013000378000150000197000031000000000000REP       Lieutenant Governor                                     Dan Patrick                           Precinct 11                                            01 
01080010014000333000080000227000025000001000000REP       Lieutenant Governor                                     Dan Patrick                           Precinct 12                                            01 
01080010015000413000216000140000057000000000000REP       Lieutenant Governor                                     Dan Patrick                           Precinct 13                                            01 
01080010016000104000058000032000014000000000000REP       Lieutenant Governor                                     Dan Patrick                           Precinct 14                                            01 
01080010017000103000057000038000008000000000000REP       Lieutenant Governor                                     Dan Patrick                           Precinct 14A                                           01 
01080020001000168000110000049000009000000000000DEM       Lieutenant Governor                                     Mike Collier                          Precinct 1                                             01 
01080020002000016000012000003000001000000000000DEM       Lieutenant Governor                                     Mike Collier                          Precinct 1A                                            01 
01080020003000041000018000018000005000000000000DEM       Lieutenant Governor                                     Mike Collier                          Precinct 2                                             01 
01080020004000063000026000030000006000001000000DEM       Lieutenant Governor                                     Mike Collier                          Precinct 3                                             01 
01080020005000104000016000078000010000000000000DEM       Lieutenant Governor                                     Mike Collier                          Precinct 4                                             01 
01080020006000047000022000025000000000000000000DEM       Lieutenant Governor                                     Mike Collier                          Precinct 5                                             01 
01080020007000001000000000001000000000000000000DEM       Lieutenant Governor                                     Mike Collier                          Precinct 5A                                            01 
01080020008000096000019000071000006000000000000DEM       Lieutenant Governor                                     Mike Collier                          Precinct 6                                             01 
01080020009000050000012000036000002000000000000DEM       Lieutenant Governor                                     Mike Collier                          Precinct 7                                             01 
01080020010000105000024000074000006000001000000DEM       Lieutenant Governor                                     Mike Collier                          Precinct 8                                             01 
01080020011000025000008000010000005000002000000DEM       Lieutenant Governor                                     Mike Collier                          Precinct 9                                             01 
01080020012000057000020000030000006000001000000DEM       Lieutenant Governor                                     Mike Collier                          Precinct 10                                            01 
01080020013000094000033000054000007000000000000DEM       Lieutenant Governor                                     Mike Collier                          Precinct 11                                            01 
01080020014000122000023000092000007000000000000DEM       Lieutenant Governor                                     Mike Collier                          Precinct 12                                            01 
01080020015000034000013000019000002000000000000DEM       Lieutenant Governor                                     Mike Collier                          Precinct 13                                            01 
01080020016000023000015000006000002000000000000DEM       Lieutenant Governor                                     Mike Collier                          Precinct 14                                            01 
01080020017000019000007000007000005000000000000DEM       Lieutenant Governor                                     Mike Collier                          Precinct 14A                                           01 
01080030001000008000003000004000001000000000000LIB       Lieutenant Governor                                     Kerry Douglas McKennon                Precinct 1                                             01 
01080030002000005000004000001000000000000000000LIB       Lieutenant Governor                                     Kerry Douglas McKennon                Precinct 1A                                            01 
01080030003000002000000000001000000000001000000LIB       Lieutenant Governor                                     Kerry Douglas McKennon                Precinct 2                                             01 
01080030004000002000002000000000000000000000000LIB       Lieutenant Governor                                     Kerry Douglas McKennon                Precinct 3                                             01 
01080030005000004000000000004000000000000000000LIB       Lieutenant Governor                                     Kerry Douglas McKennon                Precinct 4                                             01 
01080030006000005000002000003000000000000000000LIB       Lieutenant Governor                                     Kerry Douglas McKennon                Precinct 5                                             01 
01080030007000001000001000000000000000000000000LIB       Lieutenant Governor                                     Kerry Douglas McKennon                Precinct 5A                                            01 
01080030008000005000001000004000000000000000000LIB       Lieutenant Governor                                     Kerry Douglas McKennon                Precinct 6                                             01 
01080030009000004000001000003000000000000000000LIB       Lieutenant Governor                                     Kerry Douglas McKennon                Precinct 7                                             01 
01080030010000008000001000006000001000000000000LIB       Lieutenant Governor                                     Kerry Douglas McKennon                Precinct 8                                             01 
01080030011000002000001000001000000000000000000LIB       Lieutenant Governor                                     Kerry Douglas McKennon                Precinct 9                                             01 
01080030012000007000001000006000000000000000000LIB       Lieutenant Governor                                     Kerry Douglas McKennon                Precinct 10                                            01 
01080030013000008000001000007000000000000000000LIB       Lieutenant Governor                                     Kerry Douglas McKennon                Precinct 11                                            01 
01080030014000004000002000002000000000000000000LIB       Lieutenant Governor                                     Kerry Douglas McKennon                Precinct 12                                            01 
01080030015000006000003000003000000000000000000LIB       Lieutenant Governor                                     Kerry Douglas McKennon                Precinct 13                                            01 
01080030016000001000001000000000000000000000000LIB       Lieutenant Governor                                     Kerry Douglas McKennon                Precinct 14                                            01 
01080030017000000000000000000000000000000000000LIB       Lieutenant Governor                                     Kerry Douglas McKennon                Precinct 14A                                           01 
01080040001000000000000000000000000000000000000          Lieutenant Governor                                     OVER VOTES                            Precinct 1                                             01 
01080040002000000000000000000000000000000000000          Lieutenant Governor                                     OVER VOTES                            Precinct 1A                                            01 
01080040003000000000000000000000000000000000000          Lieutenant Governor                                     OVER VOTES                            Precinct 2                                             01 
01080040004000000000000000000000000000000000000          Lieutenant Governor                                     OVER VOTES                            Precinct 3                                             01 
01080040005000000000000000000000000000000000000          Lieutenant Governor                                     OVER VOTES                            Precinct 4                                             01 
01080040006000000000000000000000000000000000000          Lieutenant Governor                                     OVER VOTES                            Precinct 5                                             01 
01080040007000000000000000000000000000000000000          Lieutenant Governor                                     OVER VOTES                            Precinct 5A                                            01 
01080040008000000000000000000000000000000000000          Lieutenant Governor                                     OVER VOTES                            Precinct 6                                             01 
01080040009000000000000000000000000000000000000          Lieutenant Governor                                     OVER VOTES                            Precinct 7                                             01 
01080040010000000000000000000000000000000000000          Lieutenant Governor                                     OVER VOTES                            Precinct 8                                             01 
01080040011000000000000000000000000000000000000          Lieutenant Governor                                     OVER VOTES                            Precinct 9                                             01 
01080040012000000000000000000000000000000000000          Lieutenant Governor                                     OVER VOTES                            Precinct 10                                            01 
01080040013000000000000000000000000000000000000          Lieutenant Governor                                     OVER VOTES                            Precinct 11                                            01 
01080040014000000000000000000000000000000000000          Lieutenant Governor                                     OVER VOTES                            Precinct 12                                            01 
01080040015000000000000000000000000000000000000          Lieutenant Governor                                     OVER VOTES                            Precinct 13                                            01 
01080040016000000000000000000000000000000000000          Lieutenant Governor                                     OVER VOTES                            Precinct 14                                            01 
01080040017000000000000000000000000000000000000          Lieutenant Governor                                     OVER VOTES                            Precinct 14A                                           01 
01080050001000005000001000004000000000000000000          Lieutenant Governor                                     UNDER VOTES                           Precinct 1                                             01 
01080050002000000000000000000000000000000000000          Lieutenant Governor                                     UNDER VOTES                           Precinct 1A                                            01 
01080050003000002000002000000000000000000000000          Lieutenant Governor                                     UNDER VOTES                           Precinct 2                                             01 
01080050004000000000000000000000000000000000000          Lieutenant Governor                                     UNDER VOTES                           Precinct 3                                             01 
01080050005000006000000000005000001000000000000          Lieutenant Governor                                     UNDER VOTES                           Precinct 4                                             01 
01080050006000002000000000002000000000000000000          Lieutenant Governor                                     UNDER VOTES                           Precinct 5                                             01 
01080050007000000000000000000000000000000000000          Lieutenant Governor                                     UNDER VOTES                           Precinct 5A                                            01 
01080050008000003000000000003000000000000000000          Lieutenant Governor                                     UNDER VOTES                           Precinct 6                                             01 
01080050009000009000004000005000000000000000000          Lieutenant Governor                                     UNDER VOTES                           Precinct 7                                             01 
01080050010000007000001000006000000000000000000          Lieutenant Governor                                     UNDER VOTES                           Precinct 8                                             01 
01080050011000002000000000002000000000000000000          Lieutenant Governor                                     UNDER VOTES                           Precinct 9                                             01 
01080050012000002000001000001000000000000000000          Lieutenant Governor                                     UNDER VOTES                           Precinct 10                                            01 
01080050013000003000002000001000000000000000000          Lieutenant Governor                                     UNDER VOTES                           Precinct 11                                            01 
01080050014000004000000000004000000000000000000          Lieutenant Governor                                     UNDER VOTES                           Precinct 12                                            01 
01080050015000002000001000001000000000000000000          Lieutenant Governor                                     UNDER VOTES                           Precinct 13                                            01 
01080050016000001000001000000000000000000000000          Lieutenant Governor                                     UNDER VOTES                           Precinct 14                                            01 
01080050017000000000000000000000000000000000000          Lieutenant Governor                                     UNDER VOTES                           Precinct 14A                                           01 
01090010001000701000488000151000058000004000000REP       Attorney General                                        Ken Paxton                            Precinct 1                                             01 
01090010002000112000081000027000004000000000000REP       Attorney General                                        Ken Paxton                            Precinct 1A                                            01 
01090010003000189000078000102000008000001000000REP       Attorney General                                        Ken Paxton                            Precinct 2                                             01 
01090010004000304000160000098000046000000000000REP       Attorney General                                        Ken Paxton                            Precinct 3                                             01 
01090010005000435000098000285000052000000000000REP       Attorney General                                        Ken Paxton                            Precinct 4                                             01 
01090010006000294000128000139000023000004000000REP       Attorney General                                        Ken Paxton                            Precinct 5                                             01 
01090010007000031000016000013000002000000000000REP       Attorney General                                        Ken Paxton                            Precinct 5A                                            01 
01090010008000692000169000404000111000007000001REP       Attorney General                                        Ken Paxton                            Precinct 6                                             01 
01090010009000322000095000199000027000001000000REP       Attorney General                                        Ken Paxton                            Precinct 7                                             01 
01090010010000468000158000278000032000000000000REP       Attorney General                                        Ken Paxton                            Precinct 8                                             01 
01090010011000169000067000088000013000001000000REP       Attorney General                                        Ken Paxton                            Precinct 9                                             01 
01090010012000522000237000257000023000005000000REP       Attorney General                                        Ken Paxton                            Precinct 10                                            01 
01090010013000396000158000207000031000000000000REP       Attorney General                                        Ken Paxton                            Precinct 11                                            01 
01090010014000337000081000230000025000001000000REP       Attorney General                                        Ken Paxton                            Precinct 12                                            01 
