03370010192000324000259000008000056000001000000000000000000000000000000000000000000000000000000000000NONCTYLOSFPlace 3 City of Los Fresnos                             James E. Herrera                      Part 3 (CLO)                  City of Los Fresnos      01 
03370010193000087000050000007000030000000000000000000000000000000000000000000000000000000000000000000NONCTYLOSFPlace 3 City of Los Fresnos                             James E. Herrera                      Part 65 (CLO)                 City of Los Fresnos      01 
03370010194000307000231000008000067000001000000000000000000000000000000000000000000000000000000000000NONCTYLOSFPlace 3 City of Los Fresnos                             James E. Herrera                      Part 66 (CLO)                 City of Los Fresnos      01 
03370020192000355000256000006000093000000000000000000000000000000000000000000000000000000000000000000NONCTYLOSFPlace 3 City of Los Fresnos                             Javier Mendez                         Part 3 (CLO)                  City of Los Fresnos      01 
03370020193000109000076000002000030000001000000000000000000000000000000000000000000000000000000000000NONCTYLOSFPlace 3 City of Los Fresnos                             Javier Mendez                         Part 65 (CLO)                 City of Los Fresnos      01 
03370020194000241000170000005000064000002000000000000000000000000000000000000000000000000000000000000NONCTYLOSFPlace 3 City of Los Fresnos                             Javier Mendez                         Part 66 (CLO)                 City of Los Fresnos      01 
03370030192000003000002000000000001000000000000000000000000000000000000000000000000000000000000000000   CTYLOSFPlace 3 City of Los Fresnos                             OVER VOTES                            Part 3 (CLO)                  City of Los Fresnos      01 
03370030193000000000000000000000000000000000000000000000000000000000000000000000000000000000000000000   CTYLOSFPlace 3 City of Los Fresnos                             OVER VOTES                            Part 65 (CLO)                 City of Los Fresnos      01 
03370030194000000000000000000000000000000000000000000000000000000000000000000000000000000000000000000   CTYLOSFPlace 3 City of Los Fresnos                             OVER VOTES                            Part 66 (CLO)                 City of Los Fresnos      01 
03370040192000019000013000001000005000000000000000000000000000000000000000000000000000000000000000000   CTYLOSFPlace 3 City of Los Fresnos                             UNDER VOTES                           Part 3 (CLO)                  City of Los Fresnos      01 
03370040193000003000003000000000000000000000000000000000000000000000000000000000000000000000000000000   CTYLOSFPlace 3 City of Los Fresnos                             UNDER VOTES                           Part 65 (CLO)                 City of Los Fresnos      01 
03370040194000019000015000001000003000000000000000000000000000000000000000000000000000000000000000000   CTYLOSFPlace 3 City of Los Fresnos                             UNDER VOTES                           Part 66 (CLO)                 City of Los Fresnos      01 
03380010192000541000408000012000120000001000000000000000000000000000000000000000000000000000000000000NONCTYLOSFPlace 4 City of Los Fresnos                             Joe Collinsworth                      Part 3 (CLO)                  City of Los Fresnos      01 
03380010193000160000103000009000047000001000000000000000000000000000000000000000000000000000000000000NONCTYLOSFPlace 4 City of Los Fresnos                             Joe Collinsworth                      Part 65 (CLO)                 City of Los Fresnos      01 
03380010194000464000341000011000109000003000000000000000000000000000000000000000000000000000000000000NONCTYLOSFPlace 4 City of Los Fresnos                             Joe Collinsworth                      Part 66 (CLO)                 City of Los Fresnos      01 
03380020192000000000000000000000000000000000000000000000000000000000000000000000000000000000000000000   CTYLOSFPlace 4 City of Los Fresnos                             OVER VOTES                            Part 3 (CLO)                  City of Los Fresnos      01 
03380020193000000000000000000000000000000000000000000000000000000000000000000000000000000000000000000   CTYLOSFPlace 4 City of Los Fresnos                             OVER VOTES                            Part 65 (CLO)                 City of Los Fresnos      01 
03380020194000000000000000000000000000000000000000000000000000000000000000000000000000000000000000000   CTYLOSFPlace 4 City of Los Fresnos                             OVER VOTES                            Part 66 (CLO)                 City of Los Fresnos      01 
03380030192000160000122000003000035000000000000000000000000000000000000000000000000000000000000000000   CTYLOSFPlace 4 City of Los Fresnos                             UNDER VOTES                           Part 3 (CLO)                  City of Los Fresnos      01 
03380030193000039000026000000000013000000000000000000000000000000000000000000000000000000000000000000   CTYLOSFPlace 4 City of Los Fresnos                             UNDER VOTES                           Part 65 (CLO)                 City of Los Fresnos      01 
03380030194000103000075000003000025000000000000000000000000000000000000000000000000000000000000000000   CTYLOSFPlace 4 City of Los Fresnos                             UNDER VOTES                           Part 66 (CLO)                 City of Los Fresnos      01 
