01010010001001155000000000000000000000000000000          REGISTERED VOTERS - TOTAL                               REGISTERED VOTERS - TOTAL             Precinct 1                                             00 
01010010002000298000000000000000000000000000000          REGISTERED VOTERS - TOTAL                               REGISTERED VOTERS - TOTAL             Precinct 2                                             00 
01010010003000768000000000000000000000000000000          REGISTERED VOTERS - TOTAL                               REGISTERED VOTERS - TOTAL             Precinct 025                                           00 
01010010004001152000000000000000000000000000000          REGISTERED VOTERS - TOTAL                               REGISTERED VOTERS - TOTAL             Precinct 3                                             00 
01010010005000706000000000000000000000000000000          REGISTERED VOTERS - TOTAL                               REGISTERED VOTERS - TOTAL             Precinct 4                                             00 
01010010006000475000000000000000000000000000000          REGISTERED VOTERS - TOTAL                               REGISTERED VOTERS - TOTAL             Precinct 046                                           00 
01020010001000515000328000187000000000000000000          BALLOTS CAST - TOTAL                                    BALLOTS CAST - TOTAL                  Precinct 1                                             00 
01020010002000131000051000080000000000000000000          BALLOTS CAST - TOTAL                                    BALLOTS CAST - TOTAL                  Precinct 2                                             00 
01020010003000235000145000089000001000000000000          BALLOTS CAST - TOTAL                                    BALLOTS CAST - TOTAL                  Precinct 025                                           00 
01020010004000482000319000163000000000000000000          BALLOTS CAST - TOTAL                                    BALLOTS CAST - TOTAL                  Precinct 3                                             00 
01020010005000330000149000181000000000000000000          BALLOTS CAST - TOTAL                                    BALLOTS CAST - TOTAL                  Precinct 4                                             00 
01020010006000232000142000090000000000000000000          BALLOTS CAST - TOTAL                                    BALLOTS CAST - TOTAL                  Precinct 046                                           00 
01020010007000000000000000000000000000000000000          BALLOTS CAST - TOTAL                                    BALLOTS CAST - TOTAL                  District 1                                             00 
01020010008000000000000000000000000000000000000          BALLOTS CAST - TOTAL                                    BALLOTS CAST - TOTAL                  District 2                                             00 
01020010009000000000000000000000000000000000000          BALLOTS CAST - TOTAL                                    BALLOTS CAST - TOTAL                  District 3                                             00 
01020010010000000000000000000000000000000000000          BALLOTS CAST - TOTAL                                    BALLOTS CAST - TOTAL                  District 4                                             00 
01020010011000000000000000000000000000000000000          BALLOTS CAST - TOTAL                                    BALLOTS CAST - TOTAL                  District 5                                             00 
01020010012000000000000000000000000000000000000          BALLOTS CAST - TOTAL                                    BALLOTS CAST - TOTAL                  District 6                                             00 
01030010001000288000183000105000000000000000000REP       Straight Party                                          Republican Party                      Precinct 1                                             01 
01030010002000086000033000053000000000000000000REP       Straight Party                                          Republican Party                      Precinct 2                                             01 
01030010003000106000068000038000000000000000000REP       Straight Party                                          Republican Party                      Precinct 025                                           01 
01030010004000273000184000089000000000000000000REP       Straight Party                                          Republican Party                      Precinct 3                                             01 
01030010005000150000070000080000000000000000000REP       Straight Party                                          Republican Party                      Precinct 4                                             01 
01030010006000111000069000042000000000000000000REP       Straight Party                                          Republican Party                      Precinct 046                                           01 
01030020001000047000030000017000000000000000000DEM       Straight Party                                          Democratic Party                      Precinct 1                                             01 
01030020002000003000003000000000000000000000000DEM       Straight Party                                          Democratic Party                      Precinct 2                                             01 
01030020003000042000020000022000000000000000000DEM       Straight Party                                          Democratic Party                      Precinct 025                                           01 
01030020004000062000041000021000000000000000000DEM       Straight Party                                          Democratic Party                      Precinct 3                                             01 
01030020005000029000006000023000000000000000000DEM       Straight Party                                          Democratic Party                      Precinct 4                                             01 
01030020006000020000013000007000000000000000000DEM       Straight Party                                          Democratic Party                      Precinct 046                                           01 
01030030001000000000000000000000000000000000000LIB       Straight Party                                          Libertarian Party                     Precinct 1                                             01 
01030030002000000000000000000000000000000000000LIB       Straight Party                                          Libertarian Party                     Precinct 2                                             01 
01030030003000001000000000001000000000000000000LIB       Straight Party                                          Libertarian Party                     Precinct 025                                           01 
01030030004000003000003000000000000000000000000LIB       Straight Party                                          Libertarian Party                     Precinct 3                                             01 
01030030005000002000000000002000000000000000000LIB       Straight Party                                          Libertarian Party                     Precinct 4                                             01 
01030030006000002000000000002000000000000000000LIB       Straight Party                                          Libertarian Party                     Precinct 046                                           01 
01030040001000000000000000000000000000000000000          Straight Party                                          OVER VOTES                            Precinct 1                                             01 
01030040002000000000000000000000000000000000000          Straight Party                                          OVER VOTES                            Precinct 2                                             01 
01030040003000000000000000000000000000000000000          Straight Party                                          OVER VOTES                            Precinct 025                                           01 
01030040004000000000000000000000000000000000000          Straight Party                                          OVER VOTES                            Precinct 3                                             01 
01030040005000000000000000000000000000000000000          Straight Party                                          OVER VOTES                            Precinct 4                                             01 
01030040006000000000000000000000000000000000000          Straight Party                                          OVER VOTES                            Precinct 046                                           01 
01030050001000180000115000065000000000000000000          Straight Party                                          UNDER VOTES                           Precinct 1                                             01 
01030050002000042000015000027000000000000000000          Straight Party                                          UNDER VOTES                           Precinct 2                                             01 
01030050003000086000057000028000001000000000000          Straight Party                                          UNDER VOTES                           Precinct 025                                           01 
01030050004000144000091000053000000000000000000          Straight Party                                          UNDER VOTES                           Precinct 3                                             01 
01030050005000149000073000076000000000000000000          Straight Party                                          UNDER VOTES                           Precinct 4                                             01 
01030050006000099000060000039000000000000000000          Straight Party                                          UNDER VOTES                           Precinct 046                                           01 
01040010001000433000272000161000000000000000000REPMITCHELUnited States Senator                                   Ted Cruz                              Precinct 1                                             01 
01040010002000126000048000078000000000000000000REPMITCHELUnited States Senator                                   Ted Cruz                              Precinct 2                                             01 
01040010003000179000118000060000001000000000000REPMITCHELUnited States Senator                                   Ted Cruz                              Precinct 025                                           01 
01040010004000387000255000132000000000000000000REPMITCHELUnited States Senator                                   Ted Cruz                              Precinct 3                                             01 
01040010005000261000130000131000000000000000000REPMITCHELUnited States Senator                                   Ted Cruz                              Precinct 4                                             01 
01040010006000199000123000076000000000000000000REPMITCHELUnited States Senator                                   Ted Cruz                              Precinct 046                                           01 
01040020001000079000054000025000000000000000000DEMMITCHELUnited States Senator                                   Beto O'Rourke                         Precinct 1                                             01 
01040020002000004000003000001000000000000000000DEMMITCHELUnited States Senator                                   Beto O'Rourke                         Precinct 2                                             01 
01040020003000056000027000029000000000000000000DEMMITCHELUnited States Senator                                   Beto O'Rourke                         Precinct 025                                           01 
01040020004000093000063000030000000000000000000DEMMITCHELUnited States Senator                                   Beto O'Rourke                         Precinct 3                                             01 
01040020005000059000011000048000000000000000000DEMMITCHELUnited States Senator                                   Beto O'Rourke                         Precinct 4                                             01 
01040020006000032000019000013000000000000000000DEMMITCHELUnited States Senator                                   Beto O'Rourke                         Precinct 046                                           01 
01040030001000002000001000001000000000000000000LIBMITCHELUnited States Senator                                   Neal M. Dikeman                       Precinct 1                                             01 
01040030002000000000000000000000000000000000000LIBMITCHELUnited States Senator                                   Neal M. Dikeman                       Precinct 2                                             01 
01040030003000000000000000000000000000000000000LIBMITCHELUnited States Senator                                   Neal M. Dikeman                       Precinct 025                                           01 
01040030004000002000001000001000000000000000000LIBMITCHELUnited States Senator                                   Neal M. Dikeman                       Precinct 3                                             01 
01040030005000001000000000001000000000000000000LIBMITCHELUnited States Senator                                   Neal M. Dikeman                       Precinct 4                                             01 
01040030006000000000000000000000000000000000000LIBMITCHELUnited States Senator                                   Neal M. Dikeman                       Precinct 046                                           01 
01040040001000000000000000000000000000000000000   MITCHELUnited States Senator                                   OVER VOTES                            Precinct 1                                             01 
01040040002000000000000000000000000000000000000   MITCHELUnited States Senator                                   OVER VOTES                            Precinct 2                                             01 
01040040003000000000000000000000000000000000000   MITCHELUnited States Senator                                   OVER VOTES                            Precinct 025                                           01 
01040040004000000000000000000000000000000000000   MITCHELUnited States Senator                                   OVER VOTES                            Precinct 3                                             01 
01040040005000000000000000000000000000000000000   MITCHELUnited States Senator                                   OVER VOTES                            Precinct 4                                             01 
01040040006000000000000000000000000000000000000   MITCHELUnited States Senator                                   OVER VOTES                            Precinct 046                                           01 
01040050001000001000001000000000000000000000000   MITCHELUnited States Senator                                   UNDER VOTES                           Precinct 1                                             01 
01040050002000001000000000001000000000000000000   MITCHELUnited States Senator                                   UNDER VOTES                           Precinct 2                                             01 
01040050003000000000000000000000000000000000000   MITCHELUnited States Senator                                   UNDER VOTES                           Precinct 025                                           01 
01040050004000000000000000000000000000000000000   MITCHELUnited States Senator                                   UNDER VOTES                           Precinct 3                                             01 
01040050005000009000008000001000000000000000000   MITCHELUnited States Senator                                   UNDER VOTES                           Precinct 4                                             01 
01040050006000001000000000001000000000000000000   MITCHELUnited States Senator                                   UNDER VOTES                           Precinct 046                                           01 
01050010001000447000283000164000000000000000000REPMITCHELUnited States Representative, Dist 11                   Mike Conaway                          Precinct 1                                             01 
01050010002000127000049000078000000000000000000REPMITCHELUnited States Representative, Dist 11                   Mike Conaway                          Precinct 2                                             01 
01050010003000177000116000060000001000000000000REPMITCHELUnited States Representative, Dist 11                   Mike Conaway                          Precinct 025                                           01 
01050010004000394000256000138000000000000000000REPMITCHELUnited States Representative, Dist 11                   Mike Conaway                          Precinct 3                                             01 
01050010005000270000127000143000000000000000000REPMITCHELUnited States Representative, Dist 11                   Mike Conaway                          Precinct 4                                             01 
01050010006000199000121000078000000000000000000REPMITCHELUnited States Representative, Dist 11                   Mike Conaway                          Precinct 046                                           01 
01050020001000065000043000022000000000000000000DEMMITCHELUnited States Representative, Dist 11                   Jennie Lou Leeder                     Precinct 1                                             01 
01050020002000003000002000001000000000000000000DEMMITCHELUnited States Representative, Dist 11                   Jennie Lou Leeder                     Precinct 2                                             01 
01050020003000048000021000027000000000000000000DEMMITCHELUnited States Representative, Dist 11                   Jennie Lou Leeder                     Precinct 025                                           01 
01050020004000081000057000024000000000000000000DEMMITCHELUnited States Representative, Dist 11                   Jennie Lou Leeder                     Precinct 3                                             01 
01050020005000043000011000032000000000000000000DEMMITCHELUnited States Representative, Dist 11                   Jennie Lou Leeder                     Precinct 4                                             01 
01050020006000023000015000008000000000000000000DEMMITCHELUnited States Representative, Dist 11                   Jennie Lou Leeder                     Precinct 046                                           01 
01050030001000002000001000001000000000000000000LIBMITCHELUnited States Representative, Dist 11                   Rhett Rosenquest Smith                Precinct 1                                             01 
01050030002000000000000000000000000000000000000LIBMITCHELUnited States Representative, Dist 11                   Rhett Rosenquest Smith                Precinct 2                                             01 
01050030003000004000003000001000000000000000000LIBMITCHELUnited States Representative, Dist 11                   Rhett Rosenquest Smith                Precinct 025                                           01 
01050030004000005000004000001000000000000000000LIBMITCHELUnited States Representative, Dist 11                   Rhett Rosenquest Smith                Precinct 3                                             01 
01050030005000001000001000000000000000000000000LIBMITCHELUnited States Representative, Dist 11                   Rhett Rosenquest Smith                Precinct 4                                             01 
01050030006000007000004000003000000000000000000LIBMITCHELUnited States Representative, Dist 11                   Rhett Rosenquest Smith                Precinct 046                                           01 
01050040001000000000000000000000000000000000000   MITCHELUnited States Representative, Dist 11                   OVER VOTES                            Precinct 1                                             01 
01050040002000000000000000000000000000000000000   MITCHELUnited States Representative, Dist 11                   OVER VOTES                            Precinct 2                                             01 
01050040003000000000000000000000000000000000000   MITCHELUnited States Representative, Dist 11                   OVER VOTES                            Precinct 025                                           01 
01050040004000000000000000000000000000000000000   MITCHELUnited States Representative, Dist 11                   OVER VOTES                            Precinct 3                                             01 
01050040005000000000000000000000000000000000000   MITCHELUnited States Representative, Dist 11                   OVER VOTES                            Precinct 4                                             01 
01050040006000000000000000000000000000000000000   MITCHELUnited States Representative, Dist 11                   OVER VOTES                            Precinct 046                                           01 
01050050001000001000001000000000000000000000000   MITCHELUnited States Representative, Dist 11                   UNDER VOTES                           Precinct 1                                             01 
01050050002000001000000000001000000000000000000   MITCHELUnited States Representative, Dist 11                   UNDER VOTES                           Precinct 2                                             01 
01050050003000006000005000001000000000000000000   MITCHELUnited States Representative, Dist 11                   UNDER VOTES                           Precinct 025                                           01 
01050050004000002000002000000000000000000000000   MITCHELUnited States Representative, Dist 11                   UNDER VOTES                           Precinct 3                                             01 
01050050005000016000010000006000000000000000000   MITCHELUnited States Representative, Dist 11                   UNDER VOTES                           Precinct 4                                             01 
01050050006000003000002000001000000000000000000   MITCHELUnited States Representative, Dist 11                   UNDER VOTES                           Precinct 046                                           01 
01060010001000433000271000162000000000000000000REPMITCHELGovernor                                                Greg Abbott                           Precinct 1                                             01 
01060010002000124000048000076000000000000000000REPMITCHELGovernor                                                Greg Abbott                           Precinct 2                                             01 
01060010003000178000118000059000001000000000000REPMITCHELGovernor                                                Greg Abbott                           Precinct 025                                           01 
01060010004000390000256000134000000000000000000REPMITCHELGovernor                                                Greg Abbott                           Precinct 3                                             01 
01060010005000269000128000141000000000000000000REPMITCHELGovernor                                                Greg Abbott                           Precinct 4                                             01 
01060010006000201000122000079000000000000000000REPMITCHELGovernor                                                Greg Abbott                           Precinct 046                                           01 
01060020001000075000051000024000000000000000000DEMMITCHELGovernor                                                Lupe Valdez                           Precinct 1                                             01 
01060020002000005000003000002000000000000000000DEMMITCHELGovernor                                                Lupe Valdez                           Precinct 2                                             01 
01060020003000054000025000029000000000000000000DEMMITCHELGovernor                                                Lupe Valdez                           Precinct 025                                           01 
01060020004000081000053000028000000000000000000DEMMITCHELGovernor                                                Lupe Valdez                           Precinct 3                                             01 
01060020005000054000017000037000000000000000000DEMMITCHELGovernor                                                Lupe Valdez                           Precinct 4                                             01 
01060020006000029000019000010000000000000000000DEMMITCHELGovernor                                                Lupe Valdez                           Precinct 046                                           01 
01060030001000003000003000000000000000000000000LIBMITCHELGovernor                                                Mark Jay Tippetts                     Precinct 1                                             01 
01060030002000002000000000002000000000000000000LIBMITCHELGovernor                                                Mark Jay Tippetts                     Precinct 2                                             01 
01060030003000002000001000001000000000000000000LIBMITCHELGovernor                                                Mark Jay Tippetts                     Precinct 025                                           01 
01060030004000007000006000001000000000000000000LIBMITCHELGovernor                                                Mark Jay Tippetts                     Precinct 3                                             01 
01060030005000000000000000000000000000000000000LIBMITCHELGovernor                                                Mark Jay Tippetts                     Precinct 4                                             01 
01060030006000000000000000000000000000000000000LIBMITCHELGovernor                                                Mark Jay Tippetts                     Precinct 046                                           01 
01060040001000000000000000000000000000000000000   MITCHELGovernor                                                OVER VOTES                            Precinct 1                                             01 
01060040002000000000000000000000000000000000000   MITCHELGovernor                                                OVER VOTES                            Precinct 2                                             01 
01060040003000000000000000000000000000000000000   MITCHELGovernor                                                OVER VOTES                            Precinct 025                                           01 
01060040004000000000000000000000000000000000000   MITCHELGovernor                                                OVER VOTES                            Precinct 3                                             01 
01060040005000000000000000000000000000000000000   MITCHELGovernor                                                OVER VOTES                            Precinct 4                                             01 
01060040006000000000000000000000000000000000000   MITCHELGovernor                                                OVER VOTES                            Precinct 046                                           01 
01060050001000004000003000001000000000000000000   MITCHELGovernor                                                UNDER VOTES                           Precinct 1                                             01 
01060050002000000000000000000000000000000000000   MITCHELGovernor                                                UNDER VOTES                           Precinct 2                                             01 
01060050003000001000001000000000000000000000000   MITCHELGovernor                                                UNDER VOTES                           Precinct 025                                           01 
01060050004000004000004000000000000000000000000   MITCHELGovernor                                                UNDER VOTES                           Precinct 3                                             01 
01060050005000007000004000003000000000000000000   MITCHELGovernor                                                UNDER VOTES                           Precinct 4                                             01 
01060050006000002000001000001000000000000000000   MITCHELGovernor                                                UNDER VOTES                           Precinct 046                                           01 
01070010001000393000247000146000000000000000000REPMITCHELLieutenant Governor                                     Dan Patrick                           Precinct 1                                             01 
01070010002000113000040000073000000000000000000REPMITCHELLieutenant Governor                                     Dan Patrick                           Precinct 2                                             01 
01070010003000162000105000057000000000000000000REPMITCHELLieutenant Governor                                     Dan Patrick                           Precinct 025                                           01 
01070010004000368000244000124000000000000000000REPMITCHELLieutenant Governor                                     Dan Patrick                           Precinct 3                                             01 
01070010005000243000115000128000000000000000000REPMITCHELLieutenant Governor                                     Dan Patrick                           Precinct 4                                             01 
01070010006000176000109000067000000000000000000REPMITCHELLieutenant Governor                                     Dan Patrick                           Precinct 046                                           01 
01070020001000108000072000036000000000000000000DEMMITCHELLieutenant Governor                                     Mike Collier                          Precinct 1                                             01 
01070020002000015000009000006000000000000000000DEMMITCHELLieutenant Governor                                     Mike Collier                          Precinct 2                                             01 
01070020003000062000033000028000001000000000000DEMMITCHELLieutenant Governor                                     Mike Collier                          Precinct 025                                           01 
01070020004000099000066000033000000000000000000DEMMITCHELLieutenant Governor                                     Mike Collier                          Precinct 3                                             01 
01070020005000070000025000045000000000000000000DEMMITCHELLieutenant Governor                                     Mike Collier                          Precinct 4                                             01 
01070020006000048000028000020000000000000000000DEMMITCHELLieutenant Governor                                     Mike Collier                          Precinct 046                                           01 
01070030001000007000004000003000000000000000000LIBMITCHELLieutenant Governor                                     Kerry Douglas McKennon                Precinct 1                                             01 
01070030002000001000001000000000000000000000000LIBMITCHELLieutenant Governor                                     Kerry Douglas McKennon                Precinct 2                                             01 
01070030003000005000003000002000000000000000000LIBMITCHELLieutenant Governor                                     Kerry Douglas McKennon                Precinct 025                                           01 
01070030004000009000005000004000000000000000000LIBMITCHELLieutenant Governor                                     Kerry Douglas McKennon                Precinct 3                                             01 
01070030005000002000001000001000000000000000000LIBMITCHELLieutenant Governor                                     Kerry Douglas McKennon                Precinct 4                                             01 
01070030006000005000004000001000000000000000000LIBMITCHELLieutenant Governor                                     Kerry Douglas McKennon                Precinct 046                                           01 
01070040001000000000000000000000000000000000000   MITCHELLieutenant Governor                                     OVER VOTES                            Precinct 1                                             01 
01070040002000001000000000001000000000000000000   MITCHELLieutenant Governor                                     OVER VOTES                            Precinct 2                                             01 
01070040003000000000000000000000000000000000000   MITCHELLieutenant Governor                                     OVER VOTES                            Precinct 025                                           01 
01070040004000000000000000000000000000000000000   MITCHELLieutenant Governor                                     OVER VOTES                            Precinct 3                                             01 
01070040005000000000000000000000000000000000000   MITCHELLieutenant Governor                                     OVER VOTES                            Precinct 4                                             01 
01070040006000000000000000000000000000000000000   MITCHELLieutenant Governor                                     OVER VOTES                            Precinct 046                                           01 
01070050001000007000005000002000000000000000000   MITCHELLieutenant Governor                                     UNDER VOTES                           Precinct 1                                             01 
01070050002000001000001000000000000000000000000   MITCHELLieutenant Governor                                     UNDER VOTES                           Precinct 2                                             01 
01070050003000006000004000002000000000000000000   MITCHELLieutenant Governor                                     UNDER VOTES                           Precinct 025                                           01 
01070050004000006000004000002000000000000000000   MITCHELLieutenant Governor                                     UNDER VOTES                           Precinct 3                                             01 
01070050005000015000008000007000000000000000000   MITCHELLieutenant Governor                                     UNDER VOTES                           Precinct 4                                             01 
01070050006000003000001000002000000000000000000   MITCHELLieutenant Governor                                     UNDER VOTES                           Precinct 046                                           01 
01080010001000410000257000153000000000000000000REPMITCHELAttorney General                                        Ken Paxton                            Precinct 1                                             01 
01080010002000120000046000074000000000000000000REPMITCHELAttorney General                                        Ken Paxton                            Precinct 2                                             01 
01080010003000168000110000057000001000000000000REPMITCHELAttorney General                                        Ken Paxton                            Precinct 025                                           01 
01080010004000371000239000132000000000000000000REPMITCHELAttorney General                                        Ken Paxton                            Precinct 3                                             01 
01080010005000245000116000129000000000000000000REPMITCHELAttorney General                                        Ken Paxton                            Precinct 4                                             01 
01080010006000190000116000074000000000000000000REPMITCHELAttorney General                                        Ken Paxton                            Precinct 046                                           01 
01080020001000092000061000031000000000000000000DEMMITCHELAttorney General                                        Justin Nelson                         Precinct 1                                             01 
01080020002000008000004000004000000000000000000DEMMITCHELAttorney General                                        Justin Nelson                         Precinct 2                                             01 
01080020003000057000030000027000000000000000000DEMMITCHELAttorney General                                        Justin Nelson                         Precinct 025                                           01 
01080020004000095000067000028000000000000000000DEMMITCHELAttorney General                                        Justin Nelson                         Precinct 3                                             01 
01080020005000063000019000044000000000000000000DEMMITCHELAttorney General                                        Justin Nelson                         Precinct 4                                             01 
01080020006000037000024000013000000000000000000DEMMITCHELAttorney General                                        Justin Nelson                         Precinct 046                                           01 
01080030001000009000006000003000000000000000000LIBMITCHELAttorney General                                        Michael Ray Harris                    Precinct 1                                             01 
01080030002000001000000000001000000000000000000LIBMITCHELAttorney General                                        Michael Ray Harris                    Precinct 2                                             01 
01080030003000004000003000001000000000000000000LIBMITCHELAttorney General                                        Michael Ray Harris                    Precinct 025                                           01 
01080030004000006000005000001000000000000000000LIBMITCHELAttorney General                                        Michael Ray Harris                    Precinct 3                                             01 
01080030005000004000002000002000000000000000000LIBMITCHELAttorney General                                        Michael Ray Harris                    Precinct 4                                             01 
01080030006000002000001000001000000000000000000LIBMITCHELAttorney General                                        Michael Ray Harris                    Precinct 046                                           01 
01080040001000000000000000000000000000000000000   MITCHELAttorney General                                        OVER VOTES                            Precinct 1                                             01 
01080040002000000000000000000000000000000000000   MITCHELAttorney General                                        OVER VOTES                            Precinct 2                                             01 
01080040003000000000000000000000000000000000000   MITCHELAttorney General                                        OVER VOTES                            Precinct 025                                           01 
01080040004000000000000000000000000000000000000   MITCHELAttorney General                                        OVER VOTES                            Precinct 3                                             01 
01080040005000000000000000000000000000000000000   MITCHELAttorney General                                        OVER VOTES                            Precinct 4                                             01 
01080040006000000000000000000000000000000000000   MITCHELAttorney General                                        OVER VOTES                            Precinct 046                                           01 
01080050001000004000004000000000000000000000000   MITCHELAttorney General                                        UNDER VOTES                           Precinct 1                                             01 
01080050002000002000001000001000000000000000000   MITCHELAttorney General                                        UNDER VOTES                           Precinct 2                                             01 
01080050003000006000002000004000000000000000000   MITCHELAttorney General                                        UNDER VOTES                           Precinct 025                                           01 
01080050004000010000008000002000000000000000000   MITCHELAttorney General                                        UNDER VOTES                           Precinct 3                                             01 
01080050005000018000012000006000000000000000000   MITCHELAttorney General                                        UNDER VOTES                           Precinct 4                                             01 
01080050006000003000001000002000000000000000000   MITCHELAttorney General                                        UNDER VOTES                           Precinct 046                                           01 
01090010001000426000271000155000000000000000000REPMITCHELComptroller of Public Accounts                          Glenn Hegar                           Precinct 1                                             01 
01090010002000121000047000074000000000000000000REPMITCHELComptroller of Public Accounts                          Glenn Hegar                           Precinct 2                                             01 
01090010003000168000110000057000001000000000000REPMITCHELComptroller of Public Accounts                          Glenn Hegar                           Precinct 025                                           01 
01090010004000375000243000132000000000000000000REPMITCHELComptroller of Public Accounts                          Glenn Hegar                           Precinct 3                                             01 
01090010005000256000124000132000000000000000000REPMITCHELComptroller of Public Accounts                          Glenn Hegar                           Precinct 4                                             01 
01090010006000187000117000070000000000000000000REPMITCHELComptroller of Public Accounts                          Glenn Hegar                           Precinct 046                                           01 
01090020001000066000043000023000000000000000000DEMMITCHELComptroller of Public Accounts                          Joi Chevalier                         Precinct 1                                             01 
01090020002000005000003000002000000000000000000DEMMITCHELComptroller of Public Accounts                          Joi Chevalier                         Precinct 2                                             01 
01090020003000050000024000026000000000000000000DEMMITCHELComptroller of Public Accounts                          Joi Chevalier                         Precinct 025                                           01 
01090020004000083000057000026000000000000000000DEMMITCHELComptroller of Public Accounts                          Joi Chevalier                         Precinct 3                                             01 
01090020005000047000011000036000000000000000000DEMMITCHELComptroller of Public Accounts                          Joi Chevalier                         Precinct 4                                             01 
01090020006000032000019000013000000000000000000DEMMITCHELComptroller of Public Accounts                          Joi Chevalier                         Precinct 046                                           01 
01090030001000011000006000005000000000000000000LIBMITCHELComptroller of Public Accounts                          Ben Sanders                           Precinct 1                                             01 
01090030002000002000000000002000000000000000000LIBMITCHELComptroller of Public Accounts                          Ben Sanders                           Precinct 2                                             01 
01090030003000005000003000002000000000000000000LIBMITCHELComptroller of Public Accounts                          Ben Sanders                           Precinct 025                                           01 
01090030004000013000010000003000000000000000000LIBMITCHELComptroller of Public Accounts                          Ben Sanders                           Precinct 3                                             01 
01090030005000004000001000003000000000000000000LIBMITCHELComptroller of Public Accounts                          Ben Sanders                           Precinct 4                                             01 
01090030006000009000003000006000000000000000000LIBMITCHELComptroller of Public Accounts                          Ben Sanders                           Precinct 046                                           01 
01090040001000000000000000000000000000000000000   MITCHELComptroller of Public Accounts                          OVER VOTES                            Precinct 1                                             01 
01090040002000000000000000000000000000000000000   MITCHELComptroller of Public Accounts                          OVER VOTES                            Precinct 2                                             01 
01090040003000000000000000000000000000000000000   MITCHELComptroller of Public Accounts                          OVER VOTES                            Precinct 025                                           01 
01090040004000000000000000000000000000000000000   MITCHELComptroller of Public Accounts                          OVER VOTES                            Precinct 3                                             01 
01090040005000000000000000000000000000000000000   MITCHELComptroller of Public Accounts                          OVER VOTES                            Precinct 4                                             01 
01090040006000000000000000000000000000000000000   MITCHELComptroller of Public Accounts                          OVER VOTES                            Precinct 046                                           01 
01090050001000012000008000004000000000000000000   MITCHELComptroller of Public Accounts                          UNDER VOTES                           Precinct 1                                             01 
01090050002000003000001000002000000000000000000   MITCHELComptroller of Public Accounts                          UNDER VOTES                           Precinct 2                                             01 
01090050003000012000008000004000000000000000000   MITCHELComptroller of Public Accounts                          UNDER VOTES                           Precinct 025                                           01 
01090050004000011000009000002000000000000000000   MITCHELComptroller of Public Accounts                          UNDER VOTES                           Precinct 3                                             01 
01090050005000023000013000010000000000000000000   MITCHELComptroller of Public Accounts                          UNDER VOTES                           Precinct 4                                             01 
01090050006000004000003000001000000000000000000   MITCHELComptroller of Public Accounts                          UNDER VOTES                           Precinct 046                                           01 
01100010001000423000263000160000000000000000000REPMITCHELCommissioner of the General Land Office                 George P. Bush                        Precinct 1                                             01 
01100010002000112000041000071000000000000000000REPMITCHELCommissioner of the General Land Office                 George P. Bush                        Precinct 2                                             01 
01100010003000159000102000056000001000000000000REPMITCHELCommissioner of the General Land Office                 George P. Bush                        Precinct 025                                           01 
01100010004000377000246000131000000000000000000REPMITCHELCommissioner of the General Land Office                 George P. Bush                        Precinct 3                                             01 
01100010005000244000115000129000000000000000000REPMITCHELCommissioner of the General Land Office                 George P. Bush                        Precinct 4                                             01 
01100010006000175000103000072000000000000000000REPMITCHELCommissioner of the General Land Office                 George P. Bush                        Precinct 046                                           01 
01100020001000074000050000024000000000000000000DEMMITCHELCommissioner of the General Land Office                 Miguel Suazo                          Precinct 1                                             01 
01100020002000010000004000006000000000000000000DEMMITCHELCommissioner of the General Land Office                 Miguel Suazo                          Precinct 2                                             01 
01100020003000054000028000026000000000000000000DEMMITCHELCommissioner of the General Land Office                 Miguel Suazo                          Precinct 025                                           01 
01100020004000079000054000025000000000000000000DEMMITCHELCommissioner of the General Land Office                 Miguel Suazo                          Precinct 3                                             01 
01100020005000052000017000035000000000000000000DEMMITCHELCommissioner of the General Land Office                 Miguel Suazo                          Precinct 4                                             01 
01100020006000033000022000011000000000000000000DEMMITCHELCommissioner of the General Land Office                 Miguel Suazo                          Precinct 046                                           01 
01100030001000012000009000003000000000000000000LIBMITCHELCommissioner of the General Land Office                 Matt Pina                             Precinct 1                                             01 
01100030002000008000005000003000000000000000000LIBMITCHELCommissioner of the General Land Office                 Matt Pina                             Precinct 2                                             01 
01100030003000015000010000005000000000000000000LIBMITCHELCommissioner of the General Land Office                 Matt Pina                             Precinct 025                                           01 
01100030004000014000010000004000000000000000000LIBMITCHELCommissioner of the General Land Office                 Matt Pina                             Precinct 3                                             01 
01100030005000011000004000007000000000000000000LIBMITCHELCommissioner of the General Land Office                 Matt Pina                             Precinct 4                                             01 
01100030006000020000014000006000000000000000000LIBMITCHELCommissioner of the General Land Office                 Matt Pina                             Precinct 046                                           01 
01100040001000000000000000000000000000000000000   MITCHELCommissioner of the General Land Office                 OVER VOTES                            Precinct 1                                             01 
01100040002000000000000000000000000000000000000   MITCHELCommissioner of the General Land Office                 OVER VOTES                            Precinct 2                                             01 
01100040003000000000000000000000000000000000000   MITCHELCommissioner of the General Land Office                 OVER VOTES                            Precinct 025                                           01 
01100040004000000000000000000000000000000000000   MITCHELCommissioner of the General Land Office                 OVER VOTES                            Precinct 3                                             01 
01100040005000000000000000000000000000000000000   MITCHELCommissioner of the General Land Office                 OVER VOTES                            Precinct 4                                             01 
01100040006000000000000000000000000000000000000   MITCHELCommissioner of the General Land Office                 OVER VOTES                            Precinct 046                                           01 
01100050001000006000006000000000000000000000000   MITCHELCommissioner of the General Land Office                 UNDER VOTES                           Precinct 1                                             01 
01100050002000001000001000000000000000000000000   MITCHELCommissioner of the General Land Office                 UNDER VOTES                           Precinct 2                                             01 
01100050003000007000005000002000000000000000000   MITCHELCommissioner of the General Land Office                 UNDER VOTES                           Precinct 025                                           01 
01100050004000012000009000003000000000000000000   MITCHELCommissioner of the General Land Office                 UNDER VOTES                           Precinct 3                                             01 
01100050005000023000013000010000000000000000000   MITCHELCommissioner of the General Land Office                 UNDER VOTES                           Precinct 4                                             01 
01100050006000004000003000001000000000000000000   MITCHELCommissioner of the General Land Office                 UNDER VOTES                           Precinct 046                                           01 
01110010001000425000268000157000000000000000000REPMITCHELCommissioner of Agriculture                             Sid Miller                            Precinct 1                                             01 
01110010002000120000047000073000000000000000000REPMITCHELCommissioner of Agriculture                             Sid Miller                            Precinct 2                                             01 
01110010003000163000105000057000001000000000000REPMITCHELCommissioner of Agriculture                             Sid Miller                            Precinct 025                                           01 
01110010004000370000241000129000000000000000000REPMITCHELCommissioner of Agriculture                             Sid Miller                            Precinct 3                                             01 
01110010005000251000119000132000000000000000000REPMITCHELCommissioner of Agriculture                             Sid Miller                            Precinct 4                                             01 
01110010006000198000123000075000000000000000000REPMITCHELCommissioner of Agriculture                             Sid Miller                            Precinct 046                                           01 
01110020001000075000050000025000000000000000000DEMMITCHELCommissioner of Agriculture                             Kim Olson                             Precinct 1                                             01 
01110020002000008000004000004000000000000000000DEMMITCHELCommissioner of Agriculture                             Kim Olson                             Precinct 2                                             01 
01110020003000058000030000028000000000000000000DEMMITCHELCommissioner of Agriculture                             Kim Olson                             Precinct 025                                           01 
01110020004000092000063000029000000000000000000DEMMITCHELCommissioner of Agriculture                             Kim Olson                             Precinct 3                                             01 
01110020005000053000015000038000000000000000000DEMMITCHELCommissioner of Agriculture                             Kim Olson                             Precinct 4                                             01 
01110020006000027000017000010000000000000000000DEMMITCHELCommissioner of Agriculture                             Kim Olson                             Precinct 046                                           01 
01110030001000006000004000002000000000000000000LIBMITCHELCommissioner of Agriculture                             Richard Carpenter                     Precinct 1                                             01 
01110030002000001000000000001000000000000000000LIBMITCHELCommissioner of Agriculture                             Richard Carpenter                     Precinct 2                                             01 
01110030003000004000004000000000000000000000000LIBMITCHELCommissioner of Agriculture                             Richard Carpenter                     Precinct 025                                           01 
01110030004000009000007000002000000000000000000LIBMITCHELCommissioner of Agriculture                             Richard Carpenter                     Precinct 3                                             01 
01110030005000006000003000003000000000000000000LIBMITCHELCommissioner of Agriculture                             Richard Carpenter                     Precinct 4                                             01 
01110030006000005000001000004000000000000000000LIBMITCHELCommissioner of Agriculture                             Richard Carpenter                     Precinct 046                                           01 
01110040001000000000000000000000000000000000000   MITCHELCommissioner of Agriculture                             OVER VOTES                            Precinct 1                                             01 
01110040002000000000000000000000000000000000000   MITCHELCommissioner of Agriculture                             OVER VOTES                            Precinct 2                                             01 
01110040003000000000000000000000000000000000000   MITCHELCommissioner of Agriculture                             OVER VOTES                            Precinct 025                                           01 
01110040004000000000000000000000000000000000000   MITCHELCommissioner of Agriculture                             OVER VOTES                            Precinct 3                                             01 
01110040005000000000000000000000000000000000000   MITCHELCommissioner of Agriculture                             OVER VOTES                            Precinct 4                                             01 
01110040006000000000000000000000000000000000000   MITCHELCommissioner of Agriculture                             OVER VOTES                            Precinct 046                                           01 
01110050001000009000006000003000000000000000000   MITCHELCommissioner of Agriculture                             UNDER VOTES                           Precinct 1                                             01 
01110050002000002000000000002000000000000000000   MITCHELCommissioner of Agriculture                             UNDER VOTES                           Precinct 2                                             01 
01110050003000010000006000004000000000000000000   MITCHELCommissioner of Agriculture                             UNDER VOTES                           Precinct 025                                           01 
01110050004000011000008000003000000000000000000   MITCHELCommissioner of Agriculture                             UNDER VOTES                           Precinct 3                                             01 
01110050005000020000012000008000000000000000000   MITCHELCommissioner of Agriculture                             UNDER VOTES                           Precinct 4                                             01 
01110050006000002000001000001000000000000000000   MITCHELCommissioner of Agriculture                             UNDER VOTES                           Precinct 046                                           01 
01120010001000428000269000159000000000000000000REPMITCHELRailroad Commissioner                                   Christi Craddick                      Precinct 1                                             01 
01120010002000121000047000074000000000000000000REPMITCHELRailroad Commissioner                                   Christi Craddick                      Precinct 2                                             01 
01120010003000165000108000056000001000000000000REPMITCHELRailroad Commissioner                                   Christi Craddick                      Precinct 025                                           01 
01120010004000375000245000130000000000000000000REPMITCHELRailroad Commissioner                                   Christi Craddick                      Precinct 3                                             01 
01120010005000254000123000131000000000000000000REPMITCHELRailroad Commissioner                                   Christi Craddick                      Precinct 4                                             01 
01120010006000190000115000075000000000000000000REPMITCHELRailroad Commissioner                                   Christi Craddick                      Precinct 046                                           01 
01120020001000070000048000022000000000000000000DEMMITCHELRailroad Commissioner                                   Roman McAllen                         Precinct 1                                             01 
01120020002000006000003000003000000000000000000DEMMITCHELRailroad Commissioner                                   Roman McAllen                         Precinct 2                                             01 
01120020003000054000027000027000000000000000000DEMMITCHELRailroad Commissioner                                   Roman McAllen                         Precinct 025                                           01 
01120020004000083000057000026000000000000000000DEMMITCHELRailroad Commissioner                                   Roman McAllen                         Precinct 3                                             01 
01120020005000048000011000037000000000000000000DEMMITCHELRailroad Commissioner                                   Roman McAllen                         Precinct 4                                             01 
01120020006000028000018000010000000000000000000DEMMITCHELRailroad Commissioner                                   Roman McAllen                         Precinct 046                                           01 
01120030001000007000005000002000000000000000000LIBMITCHELRailroad Commissioner                                   Mike Wright                           Precinct 1                                             01 
01120030002000003000001000002000000000000000000LIBMITCHELRailroad Commissioner                                   Mike Wright                           Precinct 2                                             01 
01120030003000005000004000001000000000000000000LIBMITCHELRailroad Commissioner                                   Mike Wright                           Precinct 025                                           01 
01120030004000009000006000003000000000000000000LIBMITCHELRailroad Commissioner                                   Mike Wright                           Precinct 3                                             01 
01120030005000004000001000003000000000000000000LIBMITCHELRailroad Commissioner                                   Mike Wright                           Precinct 4                                             01 
01120030006000008000004000004000000000000000000LIBMITCHELRailroad Commissioner                                   Mike Wright                           Precinct 046                                           01 
01120040001000000000000000000000000000000000000   MITCHELRailroad Commissioner                                   OVER VOTES                            Precinct 1                                             01 
01120040002000000000000000000000000000000000000   MITCHELRailroad Commissioner                                   OVER VOTES                            Precinct 2                                             01 
01120040003000000000000000000000000000000000000   MITCHELRailroad Commissioner                                   OVER VOTES                            Precinct 025                                           01 
01120040004000000000000000000000000000000000000   MITCHELRailroad Commissioner                                   OVER VOTES                            Precinct 3                                             01 
01120040005000000000000000000000000000000000000   MITCHELRailroad Commissioner                                   OVER VOTES                            Precinct 4                                             01 
01120040006000000000000000000000000000000000000   MITCHELRailroad Commissioner                                   OVER VOTES                            Precinct 046                                           01 
01120050001000010000006000004000000000000000000   MITCHELRailroad Commissioner                                   UNDER VOTES                           Precinct 1                                             01 
01120050002000001000000000001000000000000000000   MITCHELRailroad Commissioner                                   UNDER VOTES                           Precinct 2                                             01 
01120050003000011000006000005000000000000000000   MITCHELRailroad Commissioner                                   UNDER VOTES                           Precinct 025                                           01 
01120050004000015000011000004000000000000000000   MITCHELRailroad Commissioner                                   UNDER VOTES                           Precinct 3                                             01 
01120050005000024000014000010000000000000000000   MITCHELRailroad Commissioner                                   UNDER VOTES                           Precinct 4                                             01 
01120050006000006000005000001000000000000000000   MITCHELRailroad Commissioner                                   UNDER VOTES                           Precinct 046                                           01 
01130010001000425000267000158000000000000000000REPMITCHELJustice, Supreme Court, Place 2                         Jimmy Blacklock                       Precinct 1                                             01 
01130010002000123000048000075000000000000000000REPMITCHELJustice, Supreme Court, Place 2                         Jimmy Blacklock                       Precinct 2                                             01 
01130010003000168000110000057000001000000000000REPMITCHELJustice, Supreme Court, Place 2                         Jimmy Blacklock                       Precinct 025                                           01 
01130010004000376000243000133000000000000000000REPMITCHELJustice, Supreme Court, Place 2                         Jimmy Blacklock                       Precinct 3                                             01 
01130010005000252000120000132000000000000000000REPMITCHELJustice, Supreme Court, Place 2                         Jimmy Blacklock                       Precinct 4                                             01 
01130010006000192000117000075000000000000000000REPMITCHELJustice, Supreme Court, Place 2                         Jimmy Blacklock                       Precinct 046                                           01 
01130020001000078000053000025000000000000000000DEMMITCHELJustice, Supreme Court, Place 2                         Steven Kirkland                       Precinct 1                                             01 
01130020002000007000003000004000000000000000000DEMMITCHELJustice, Supreme Court, Place 2                         Steven Kirkland                       Precinct 2                                             01 
01130020003000055000028000027000000000000000000DEMMITCHELJustice, Supreme Court, Place 2                         Steven Kirkland                       Precinct 025                                           01 
01130020004000093000064000029000000000000000000DEMMITCHELJustice, Supreme Court, Place 2                         Steven Kirkland                       Precinct 3                                             01 
01130020005000056000017000039000000000000000000DEMMITCHELJustice, Supreme Court, Place 2                         Steven Kirkland                       Precinct 4                                             01 
01130020006000033000020000013000000000000000000DEMMITCHELJustice, Supreme Court, Place 2                         Steven Kirkland                       Precinct 046                                           01 
01130030001000000000000000000000000000000000000   MITCHELJustice, Supreme Court, Place 2                         OVER VOTES                            Precinct 1                                             01 
01130030002000000000000000000000000000000000000   MITCHELJustice, Supreme Court, Place 2                         OVER VOTES                            Precinct 2                                             01 
01130030003000000000000000000000000000000000000   MITCHELJustice, Supreme Court, Place 2                         OVER VOTES                            Precinct 025                                           01 
01130030004000000000000000000000000000000000000   MITCHELJustice, Supreme Court, Place 2                         OVER VOTES                            Precinct 3                                             01 
01130030005000000000000000000000000000000000000   MITCHELJustice, Supreme Court, Place 2                         OVER VOTES                            Precinct 4                                             01 
01130030006000000000000000000000000000000000000   MITCHELJustice, Supreme Court, Place 2                         OVER VOTES                            Precinct 046                                           01 
01130040001000012000008000004000000000000000000   MITCHELJustice, Supreme Court, Place 2                         UNDER VOTES                           Precinct 1                                             01 
01130040002000001000000000001000000000000000000   MITCHELJustice, Supreme Court, Place 2                         UNDER VOTES                           Precinct 2                                             01 
01130040003000012000007000005000000000000000000   MITCHELJustice, Supreme Court, Place 2                         UNDER VOTES                           Precinct 025                                           01 
01130040004000013000012000001000000000000000000   MITCHELJustice, Supreme Court, Place 2                         UNDER VOTES                           Precinct 3                                             01 
01130040005000022000012000010000000000000000000   MITCHELJustice, Supreme Court, Place 2                         UNDER VOTES                           Precinct 4                                             01 
01130040006000007000005000002000000000000000000   MITCHELJustice, Supreme Court, Place 2                         UNDER VOTES                           Precinct 046                                           01 
01140010001000426000270000156000000000000000000REPMITCHELJustice, Supreme Court, Place 4                         John Devine                           Precinct 1                                             01 
01140010002000123000046000077000000000000000000REPMITCHELJustice, Supreme Court, Place 4                         John Devine                           Precinct 2                                             01 
01140010003000168000111000056000001000000000000REPMITCHELJustice, Supreme Court, Place 4                         John Devine                           Precinct 025                                           01 
01140010004000378000246000132000000000000000000REPMITCHELJustice, Supreme Court, Place 4                         John Devine                           Precinct 3                                             01 
01140010005000254000122000132000000000000000000REPMITCHELJustice, Supreme Court, Place 4                         John Devine                           Precinct 4                                             01 
01140010006000194000118000076000000000000000000REPMITCHELJustice, Supreme Court, Place 4                         John Devine                           Precinct 046                                           01 
01140020001000076000050000026000000000000000000DEMMITCHELJustice, Supreme Court, Place 4                         R.K. Sandill                          Precinct 1                                             01 
01140020002000005000003000002000000000000000000DEMMITCHELJustice, Supreme Court, Place 4                         R.K. Sandill                          Precinct 2                                             01 
01140020003000053000026000027000000000000000000DEMMITCHELJustice, Supreme Court, Place 4                         R.K. Sandill                          Precinct 025                                           01 
01140020004000089000060000029000000000000000000DEMMITCHELJustice, Supreme Court, Place 4                         R.K. Sandill                          Precinct 3                                             01 
01140020005000052000013000039000000000000000000DEMMITCHELJustice, Supreme Court, Place 4                         R.K. Sandill                          Precinct 4                                             01 
01140020006000030000019000011000000000000000000DEMMITCHELJustice, Supreme Court, Place 4                         R.K. Sandill                          Precinct 046                                           01 
01140030001000000000000000000000000000000000000   MITCHELJustice, Supreme Court, Place 4                         OVER VOTES                            Precinct 1                                             01 
01140030002000000000000000000000000000000000000   MITCHELJustice, Supreme Court, Place 4                         OVER VOTES                            Precinct 2                                             01 
01140030003000000000000000000000000000000000000   MITCHELJustice, Supreme Court, Place 4                         OVER VOTES                            Precinct 025                                           01 
01140030004000000000000000000000000000000000000   MITCHELJustice, Supreme Court, Place 4                         OVER VOTES                            Precinct 3                                             01 
01140030005000000000000000000000000000000000000   MITCHELJustice, Supreme Court, Place 4                         OVER VOTES                            Precinct 4                                             01 
01140030006000000000000000000000000000000000000   MITCHELJustice, Supreme Court, Place 4                         OVER VOTES                            Precinct 046                                           01 
01140040001000013000008000005000000000000000000   MITCHELJustice, Supreme Court, Place 4                         UNDER VOTES                           Precinct 1                                             01 
01140040002000003000002000001000000000000000000   MITCHELJustice, Supreme Court, Place 4                         UNDER VOTES                           Precinct 2                                             01 
01140040003000014000008000006000000000000000000   MITCHELJustice, Supreme Court, Place 4                         UNDER VOTES                           Precinct 025                                           01 
01140040004000015000013000002000000000000000000   MITCHELJustice, Supreme Court, Place 4                         UNDER VOTES                           Precinct 3                                             01 
01140040005000024000014000010000000000000000000   MITCHELJustice, Supreme Court, Place 4                         UNDER VOTES                           Precinct 4                                             01 
01140040006000008000005000003000000000000000000   MITCHELJustice, Supreme Court, Place 4                         UNDER VOTES                           Precinct 046                                           01 
01150010001000422000266000156000000000000000000REPMITCHELJustice, Supreme Court, Place 6                         Jeff Brown                            Precinct 1                                             01 
01150010002000123000047000076000000000000000000REPMITCHELJustice, Supreme Court, Place 6                         Jeff Brown                            Precinct 2                                             01 
01150010003000169000112000056000001000000000000REPMITCHELJustice, Supreme Court, Place 6                         Jeff Brown                            Precinct 025                                           01 
01150010004000375000244000131000000000000000000REPMITCHELJustice, Supreme Court, Place 6                         Jeff Brown                            Precinct 3                                             01 
01150010005000252000123000129000000000000000000REPMITCHELJustice, Supreme Court, Place 6                         Jeff Brown                            Precinct 4                                             01 
01150010006000191000116000075000000000000000000REPMITCHELJustice, Supreme Court, Place 6                         Jeff Brown                            Precinct 046                                           01 
01150020001000079000053000026000000000000000000DEMMITCHELJustice, Supreme Court, Place 6                         Kathy Cheng                           Precinct 1                                             01 
01150020002000006000003000003000000000000000000DEMMITCHELJustice, Supreme Court, Place 6                         Kathy Cheng                           Precinct 2                                             01 
01150020003000054000026000028000000000000000000DEMMITCHELJustice, Supreme Court, Place 6                         Kathy Cheng                           Precinct 025                                           01 
01150020004000095000063000032000000000000000000DEMMITCHELJustice, Supreme Court, Place 6                         Kathy Cheng                           Precinct 3                                             01 
01150020005000053000013000040000000000000000000DEMMITCHELJustice, Supreme Court, Place 6                         Kathy Cheng                           Precinct 4                                             01 
01150020006000034000020000014000000000000000000DEMMITCHELJustice, Supreme Court, Place 6                         Kathy Cheng                           Precinct 046                                           01 
01150030001000000000000000000000000000000000000   MITCHELJustice, Supreme Court, Place 6                         OVER VOTES                            Precinct 1                                             01 
01150030002000000000000000000000000000000000000   MITCHELJustice, Supreme Court, Place 6                         OVER VOTES                            Precinct 2                                             01 
01150030003000000000000000000000000000000000000   MITCHELJustice, Supreme Court, Place 6                         OVER VOTES                            Precinct 025                                           01 
01150030004000000000000000000000000000000000000   MITCHELJustice, Supreme Court, Place 6                         OVER VOTES                            Precinct 3                                             01 
01150030005000000000000000000000000000000000000   MITCHELJustice, Supreme Court, Place 6                         OVER VOTES                            Precinct 4                                             01 
01150030006000000000000000000000000000000000000   MITCHELJustice, Supreme Court, Place 6                         OVER VOTES                            Precinct 046                                           01 
01150040001000014000009000005000000000000000000   MITCHELJustice, Supreme Court, Place 6                         UNDER VOTES                           Precinct 1                                             01 
01150040002000002000001000001000000000000000000   MITCHELJustice, Supreme Court, Place 6                         UNDER VOTES                           Precinct 2                                             01 
01150040003000012000007000005000000000000000000   MITCHELJustice, Supreme Court, Place 6                         UNDER VOTES                           Precinct 025                                           01 
01150040004000012000012000000000000000000000000   MITCHELJustice, Supreme Court, Place 6                         UNDER VOTES                           Precinct 3                                             01 
01150040005000025000013000012000000000000000000   MITCHELJustice, Supreme Court, Place 6                         UNDER VOTES                           Precinct 4                                             01 
01150040006000007000006000001000000000000000000   MITCHELJustice, Supreme Court, Place 6                         UNDER VOTES                           Precinct 046                                           01 
01160010001000417000263000154000000000000000000REPMITCHELPresiding Judge, CT of Criminal Appeals                 Sharon Keller                         Precinct 1                                             01 
01160010002000124000047000077000000000000000000REPMITCHELPresiding Judge, CT of Criminal Appeals                 Sharon Keller                         Precinct 2                                             01 
01160010003000164000107000056000001000000000000REPMITCHELPresiding Judge, CT of Criminal Appeals                 Sharon Keller                         Precinct 025                                           01 
01160010004000376000242000134000000000000000000REPMITCHELPresiding Judge, CT of Criminal Appeals                 Sharon Keller                         Precinct 3                                             01 
01160010005000251000121000130000000000000000000REPMITCHELPresiding Judge, CT of Criminal Appeals                 Sharon Keller                         Precinct 4                                             01 
01160010006000194000116000078000000000000000000REPMITCHELPresiding Judge, CT of Criminal Appeals                 Sharon Keller                         Precinct 046                                           01 
01160020001000075000049000026000000000000000000DEMMITCHELPresiding Judge, CT of Criminal Appeals                 Maria T. (Terri) Jackson              Precinct 1                                             01 
01160020002000004000003000001000000000000000000DEMMITCHELPresiding Judge, CT of Criminal Appeals                 Maria T. (Terri) Jackson              Precinct 2                                             01 
01160020003000051000024000027000000000000000000DEMMITCHELPresiding Judge, CT of Criminal Appeals                 Maria T. (Terri) Jackson              Precinct 025                                           01 
01160020004000081000055000026000000000000000000DEMMITCHELPresiding Judge, CT of Criminal Appeals                 Maria T. (Terri) Jackson              Precinct 3                                             01 
01160020005000051000012000039000000000000000000DEMMITCHELPresiding Judge, CT of Criminal Appeals                 Maria T. (Terri) Jackson              Precinct 4                                             01 
01160020006000029000019000010000000000000000000DEMMITCHELPresiding Judge, CT of Criminal Appeals                 Maria T. (Terri) Jackson              Precinct 046                                           01 
01160030001000010000008000002000000000000000000LIBMITCHELPresiding Judge, CT of Criminal Appeals                 William Bryan Strange III             Precinct 1                                             01 
01160030002000001000000000001000000000000000000LIBMITCHELPresiding Judge, CT of Criminal Appeals                 William Bryan Strange III             Precinct 2                                             01 
01160030003000007000006000001000000000000000000LIBMITCHELPresiding Judge, CT of Criminal Appeals                 William Bryan Strange III             Precinct 025                                           01 
01160030004000013000012000001000000000000000000LIBMITCHELPresiding Judge, CT of Criminal Appeals                 William Bryan Strange III             Precinct 3                                             01 
01160030005000005000002000003000000000000000000LIBMITCHELPresiding Judge, CT of Criminal Appeals                 William Bryan Strange III             Precinct 4                                             01 
01160030006000002000001000001000000000000000000LIBMITCHELPresiding Judge, CT of Criminal Appeals                 William Bryan Strange III             Precinct 046                                           01 
01160040001000000000000000000000000000000000000   MITCHELPresiding Judge, CT of Criminal Appeals                 OVER VOTES                            Precinct 1                                             01 
01160040002000000000000000000000000000000000000   MITCHELPresiding Judge, CT of Criminal Appeals                 OVER VOTES                            Precinct 2                                             01 
01160040003000000000000000000000000000000000000   MITCHELPresiding Judge, CT of Criminal Appeals                 OVER VOTES                            Precinct 025                                           01 
01160040004000000000000000000000000000000000000   MITCHELPresiding Judge, CT of Criminal Appeals                 OVER VOTES                            Precinct 3                                             01 
01160040005000000000000000000000000000000000000   MITCHELPresiding Judge, CT of Criminal Appeals                 OVER VOTES                            Precinct 4                                             01 
01160040006000000000000000000000000000000000000   MITCHELPresiding Judge, CT of Criminal Appeals                 OVER VOTES                            Precinct 046                                           01 
01160050001000013000008000005000000000000000000   MITCHELPresiding Judge, CT of Criminal Appeals                 UNDER VOTES                           Precinct 1                                             01 
01160050002000002000001000001000000000000000000   MITCHELPresiding Judge, CT of Criminal Appeals                 UNDER VOTES                           Precinct 2                                             01 
01160050003000013000008000005000000000000000000   MITCHELPresiding Judge, CT of Criminal Appeals                 UNDER VOTES                           Precinct 025                                           01 
01160050004000012000010000002000000000000000000   MITCHELPresiding Judge, CT of Criminal Appeals                 UNDER VOTES                           Precinct 3                                             01 
01160050005000023000014000009000000000000000000   MITCHELPresiding Judge, CT of Criminal Appeals                 UNDER VOTES                           Precinct 4                                             01 
01160050006000007000006000001000000000000000000   MITCHELPresiding Judge, CT of Criminal Appeals                 UNDER VOTES                           Precinct 046                                           01 
01170010001000426000269000157000000000000000000REPMITCHELJudge, Court of Criminal Appeals, Pl 7                  Barbara Parker Hervey                 Precinct 1                                             01 
01170010002000125000047000078000000000000000000REPMITCHELJudge, Court of Criminal Appeals, Pl 7                  Barbara Parker Hervey                 Precinct 2                                             01 
01170010003000170000111000058000001000000000000REPMITCHELJudge, Court of Criminal Appeals, Pl 7                  Barbara Parker Hervey                 Precinct 025                                           01 
01170010004000381000248000133000000000000000000REPMITCHELJudge, Court of Criminal Appeals, Pl 7                  Barbara Parker Hervey                 Precinct 3                                             01 
01170010005000250000119000131000000000000000000REPMITCHELJudge, Court of Criminal Appeals, Pl 7                  Barbara Parker Hervey                 Precinct 4                                             01 
01170010006000196000119000077000000000000000000REPMITCHELJudge, Court of Criminal Appeals, Pl 7                  Barbara Parker Hervey                 Precinct 046                                           01 
01170020001000073000047000026000000000000000000DEMMITCHELJudge, Court of Criminal Appeals, Pl 7                  Ramona Franklin                       Precinct 1                                             01 
01170020002000005000003000002000000000000000000DEMMITCHELJudge, Court of Criminal Appeals, Pl 7                  Ramona Franklin                       Precinct 2                                             01 
01170020003000053000027000026000000000000000000DEMMITCHELJudge, Court of Criminal Appeals, Pl 7                  Ramona Franklin                       Precinct 025                                           01 
01170020004000088000059000029000000000000000000DEMMITCHELJudge, Court of Criminal Appeals, Pl 7                  Ramona Franklin                       Precinct 3                                             01 
01170020005000056000016000040000000000000000000DEMMITCHELJudge, Court of Criminal Appeals, Pl 7                  Ramona Franklin                       Precinct 4                                             01 
01170020006000030000018000012000000000000000000DEMMITCHELJudge, Court of Criminal Appeals, Pl 7                  Ramona Franklin                       Precinct 046                                           01 
01170030001000000000000000000000000000000000000   MITCHELJudge, Court of Criminal Appeals, Pl 7                  OVER VOTES                            Precinct 1                                             01 
01170030002000000000000000000000000000000000000   MITCHELJudge, Court of Criminal Appeals, Pl 7                  OVER VOTES                            Precinct 2                                             01 
01170030003000000000000000000000000000000000000   MITCHELJudge, Court of Criminal Appeals, Pl 7                  OVER VOTES                            Precinct 025                                           01 
01170030004000000000000000000000000000000000000   MITCHELJudge, Court of Criminal Appeals, Pl 7                  OVER VOTES                            Precinct 3                                             01 
01170030005000000000000000000000000000000000000   MITCHELJudge, Court of Criminal Appeals, Pl 7                  OVER VOTES                            Precinct 4                                             01 
01170030006000000000000000000000000000000000000   MITCHELJudge, Court of Criminal Appeals, Pl 7                  OVER VOTES                            Precinct 046                                           01 
01170040001000016000012000004000000000000000000   MITCHELJudge, Court of Criminal Appeals, Pl 7                  UNDER VOTES                           Precinct 1                                             01 
01170040002000001000001000000000000000000000000   MITCHELJudge, Court of Criminal Appeals, Pl 7                  UNDER VOTES                           Precinct 2                                             01 
01170040003000012000007000005000000000000000000   MITCHELJudge, Court of Criminal Appeals, Pl 7                  UNDER VOTES                           Precinct 025                                           01 
01170040004000013000012000001000000000000000000   MITCHELJudge, Court of Criminal Appeals, Pl 7                  UNDER VOTES                           Precinct 3                                             01 
01170040005000024000014000010000000000000000000   MITCHELJudge, Court of Criminal Appeals, Pl 7                  UNDER VOTES                           Precinct 4                                             01 
01170040006000006000005000001000000000000000000   MITCHELJudge, Court of Criminal Appeals, Pl 7                  UNDER VOTES                           Precinct 046                                           01 
01180010001000437000274000163000000000000000000REPMITCHELJudge, Court of Criminal Appeals, Pl 8                  Michelle Slaughter                    Precinct 1                                             01 
01180010002000124000047000077000000000000000000REPMITCHELJudge, Court of Criminal Appeals, Pl 8                  Michelle Slaughter                    Precinct 2                                             01 
01180010003000179000118000060000001000000000000REPMITCHELJudge, Court of Criminal Appeals, Pl 8                  Michelle Slaughter                    Precinct 025                                           01 
01180010004000382000250000132000000000000000000REPMITCHELJudge, Court of Criminal Appeals, Pl 8                  Michelle Slaughter                    Precinct 3                                             01 
01180010005000258000121000137000000000000000000REPMITCHELJudge, Court of Criminal Appeals, Pl 8                  Michelle Slaughter                    Precinct 4                                             01 
01180010006000203000119000084000000000000000000REPMITCHELJudge, Court of Criminal Appeals, Pl 8                  Michelle Slaughter                    Precinct 046                                           01 
01180020001000031000021000010000000000000000000LIBMITCHELJudge, Court of Criminal Appeals, Pl 8                  Mark Ash                              Precinct 1                                             01 
01180020002000005000002000003000000000000000000LIBMITCHELJudge, Court of Criminal Appeals, Pl 8                  Mark Ash                              Precinct 2                                             01 
01180020003000014000007000007000000000000000000LIBMITCHELJudge, Court of Criminal Appeals, Pl 8                  Mark Ash                              Precinct 025                                           01 
01180020004000051000034000017000000000000000000LIBMITCHELJudge, Court of Criminal Appeals, Pl 8                  Mark Ash                              Precinct 3                                             01 
01180020005000026000009000017000000000000000000LIBMITCHELJudge, Court of Criminal Appeals, Pl 8                  Mark Ash                              Precinct 4                                             01 
01180020006000007000004000003000000000000000000LIBMITCHELJudge, Court of Criminal Appeals, Pl 8                  Mark Ash                              Precinct 046                                           01 
01180030001000000000000000000000000000000000000   MITCHELJudge, Court of Criminal Appeals, Pl 8                  OVER VOTES                            Precinct 1                                             01 
01180030002000000000000000000000000000000000000   MITCHELJudge, Court of Criminal Appeals, Pl 8                  OVER VOTES                            Precinct 2                                             01 
01180030003000000000000000000000000000000000000   MITCHELJudge, Court of Criminal Appeals, Pl 8                  OVER VOTES                            Precinct 025                                           01 
01180030004000000000000000000000000000000000000   MITCHELJudge, Court of Criminal Appeals, Pl 8                  OVER VOTES                            Precinct 3                                             01 
01180030005000000000000000000000000000000000000   MITCHELJudge, Court of Criminal Appeals, Pl 8                  OVER VOTES                            Precinct 4                                             01 
01180030006000000000000000000000000000000000000   MITCHELJudge, Court of Criminal Appeals, Pl 8                  OVER VOTES                            Precinct 046                                           01 
01180040001000047000033000014000000000000000000   MITCHELJudge, Court of Criminal Appeals, Pl 8                  UNDER VOTES                           Precinct 1                                             01 
01180040002000002000002000000000000000000000000   MITCHELJudge, Court of Criminal Appeals, Pl 8                  UNDER VOTES                           Precinct 2                                             01 
01180040003000042000020000022000000000000000000   MITCHELJudge, Court of Criminal Appeals, Pl 8                  UNDER VOTES                           Precinct 025                                           01 
01180040004000049000035000014000000000000000000   MITCHELJudge, Court of Criminal Appeals, Pl 8                  UNDER VOTES                           Precinct 3                                             01 
01180040005000046000019000027000000000000000000   MITCHELJudge, Court of Criminal Appeals, Pl 8                  UNDER VOTES                           Precinct 4                                             01 
01180040006000022000019000003000000000000000000   MITCHELJudge, Court of Criminal Appeals, Pl 8                  UNDER VOTES                           Precinct 046                                           01 
01190010001000423000269000154000000000000000000REPMITCHELState Representative, District 83                       Dustin Burrows                        Precinct 1                                             01 
01190010002000125000048000077000000000000000000REPMITCHELState Representative, District 83                       Dustin Burrows                        Precinct 2                                             01 
01190010003000170000111000058000001000000000000REPMITCHELState Representative, District 83                       Dustin Burrows                        Precinct 025                                           01 
01190010004000378000243000135000000000000000000REPMITCHELState Representative, District 83                       Dustin Burrows                        Precinct 3                                             01 
01190010005000245000119000126000000000000000000REPMITCHELState Representative, District 83                       Dustin Burrows                        Precinct 4                                             01 
