01040010001000787REP       United States Senator                                   Ted Cruz                              Precinct 101                                           01 
01040010002000750REP       United States Senator                                   Ted Cruz                              Precinct 201                                           01 
01040010003000805REP       United States Senator                                   Ted Cruz                              Precinct 202                                           01 
01040010004000033REP       United States Senator                                   Ted Cruz                              Precinct 203                                           01 
01040010005000400REP       United States Senator                                   Ted Cruz                              Precinct 301                                           01 
01040010006000444REP       United States Senator                                   Ted Cruz                              Precinct 401                                           01 
01040010007000029REP       United States Senator                                   Ted Cruz                              Precinct 402                                           01 
01040020001000221DEM       United States Senator                                   Beto O'Rourke                         Precinct 101                                           01 
01040020002000140DEM       United States Senator                                   Beto O'Rourke                         Precinct 201                                           01 
01040020003000102DEM       United States Senator                                   Beto O'Rourke                         Precinct 202                                           01 
01040020004000008DEM       United States Senator                                   Beto O'Rourke                         Precinct 203                                           01 
01040020005000163DEM       United States Senator                                   Beto O'Rourke                         Precinct 301                                           01 
01040020006000060DEM       United States Senator                                   Beto O'Rourke                         Precinct 401                                           01 
01040020007000093DEM       United States Senator                                   Beto O'Rourke                         Precinct 402                                           01 
01040030001000002LIB       United States Senator                                   Neal M. Dikeman                       Precinct 101                                           01 
01040030002000008LIB       United States Senator                                   Neal M. Dikeman                       Precinct 201                                           01 
01040030003000007LIB       United States Senator                                   Neal M. Dikeman                       Precinct 202                                           01 
01040030004000000LIB       United States Senator                                   Neal M. Dikeman                       Precinct 203                                           01 
01040030005000005LIB       United States Senator                                   Neal M. Dikeman                       Precinct 301                                           01 
01040030006000001LIB       United States Senator                                   Neal M. Dikeman                       Precinct 401                                           01 
01040030007000002LIB       United States Senator                                   Neal M. Dikeman                       Precinct 402                                           01 
01040040001000000          United States Senator                                   OVER VOTES                            Precinct 101                                           01 
01040040002000000          United States Senator                                   OVER VOTES                            Precinct 201                                           01 
01040040003000000          United States Senator                                   OVER VOTES                            Precinct 202                                           01 
01040040004000000          United States Senator                                   OVER VOTES                            Precinct 203                                           01 
01040040005000000          United States Senator                                   OVER VOTES                            Precinct 301                                           01 
01040040006000000          United States Senator                                   OVER VOTES                            Precinct 401                                           01 
01040040007000000          United States Senator                                   OVER VOTES                            Precinct 402                                           01 
01040050001000005          United States Senator                                   UNDER VOTES                           Precinct 101                                           01 
01040050002000002          United States Senator                                   UNDER VOTES                           Precinct 201                                           01 
01040050003000003          United States Senator                                   UNDER VOTES                           Precinct 202                                           01 
01040050004000000          United States Senator                                   UNDER VOTES                           Precinct 203                                           01 
01040050005000003          United States Senator                                   UNDER VOTES                           Precinct 301                                           01 
01040050006000002          United States Senator                                   UNDER VOTES                           Precinct 401                                           01 
01040050007000000          United States Senator                                   UNDER VOTES                           Precinct 402                                           01 
01050010001000798REP       United States Rep, District 13                          Mac Thornberry                        Precinct 101                                           01 
01050010002000766REP       United States Rep, District 13                          Mac Thornberry                        Precinct 201                                           01 
01050010003000817REP       United States Rep, District 13                          Mac Thornberry                        Precinct 202                                           01 
01050010004000036REP       United States Rep, District 13                          Mac Thornberry                        Precinct 203                                           01 
01050010005000406REP       United States Rep, District 13                          Mac Thornberry                        Precinct 301                                           01 
01050010006000445REP       United States Rep, District 13                          Mac Thornberry                        Precinct 401                                           01 
01050010007000032REP       United States Rep, District 13                          Mac Thornberry                        Precinct 402                                           01 
01050020001000196DEM       United States Rep, District 13                          Greg Sagan                            Precinct 101                                           01 
01050020002000123DEM       United States Rep, District 13                          Greg Sagan                            Precinct 201                                           01 
01050020003000082DEM       United States Rep, District 13                          Greg Sagan                            Precinct 202                                           01 
01050020004000005DEM       United States Rep, District 13                          Greg Sagan                            Precinct 203                                           01 
01050020005000149DEM       United States Rep, District 13                          Greg Sagan                            Precinct 301                                           01 
01050020006000054DEM       United States Rep, District 13                          Greg Sagan                            Precinct 401                                           01 
01050020007000088DEM       United States Rep, District 13                          Greg Sagan                            Precinct 402                                           01 
01050030001000012LIB       United States Rep, District 13                          Calvin DeWeese                        Precinct 101                                           01 
01050030002000008LIB       United States Rep, District 13                          Calvin DeWeese                        Precinct 201                                           01 
01050030003000010LIB       United States Rep, District 13                          Calvin DeWeese                        Precinct 202                                           01 
01050030004000000LIB       United States Rep, District 13                          Calvin DeWeese                        Precinct 203                                           01 
01050030005000006LIB       United States Rep, District 13                          Calvin DeWeese                        Precinct 301                                           01 
01050030006000005LIB       United States Rep, District 13                          Calvin DeWeese                        Precinct 401                                           01 
01050030007000001LIB       United States Rep, District 13                          Calvin DeWeese                        Precinct 402                                           01 
01050040001000000          United States Rep, District 13                          OVER VOTES                            Precinct 101                                           01 
01050040002000000          United States Rep, District 13                          OVER VOTES                            Precinct 201                                           01 
01050040003000000          United States Rep, District 13                          OVER VOTES                            Precinct 202                                           01 
01050040004000000          United States Rep, District 13                          OVER VOTES                            Precinct 203                                           01 
01050040005000000          United States Rep, District 13                          OVER VOTES                            Precinct 301                                           01 
01050040006000000          United States Rep, District 13                          OVER VOTES                            Precinct 401                                           01 
01050040007000000          United States Rep, District 13                          OVER VOTES                            Precinct 402                                           01 
01050050001000009          United States Rep, District 13                          UNDER VOTES                           Precinct 101                                           01 
01050050002000003          United States Rep, District 13                          UNDER VOTES                           Precinct 201                                           01 
01050050003000008          United States Rep, District 13                          UNDER VOTES                           Precinct 202                                           01 
01050050004000000          United States Rep, District 13                          UNDER VOTES                           Precinct 203                                           01 
01050050005000010          United States Rep, District 13                          UNDER VOTES                           Precinct 301                                           01 
01050050006000003          United States Rep, District 13                          UNDER VOTES                           Precinct 401                                           01 
01050050007000003          United States Rep, District 13                          UNDER VOTES                           Precinct 402                                           01 
01060010001000787REP       Governor                                                Greg Abbott                           Precinct 101                                           01 
01060010002000758REP       Governor                                                Greg Abbott                           Precinct 201                                           01 
01060010003000807REP       Governor                                                Greg Abbott                           Precinct 202                                           01 
01060010004000035REP       Governor                                                Greg Abbott                           Precinct 203                                           01 
01060010005000411REP       Governor                                                Greg Abbott                           Precinct 301                                           01 
01060010006000442REP       Governor                                                Greg Abbott                           Precinct 401                                           01 
01060010007000028REP       Governor                                                Greg Abbott                           Precinct 402                                           01 
01060020001000213DEM       Governor                                                Lupe Valdez                           Precinct 101                                           01 
01060020002000134DEM       Governor                                                Lupe Valdez                           Precinct 201                                           01 
01060020003000098DEM       Governor                                                Lupe Valdez                           Precinct 202                                           01 
01060020004000006DEM       Governor                                                Lupe Valdez                           Precinct 203                                           01 
01060020005000153DEM       Governor                                                Lupe Valdez                           Precinct 301                                           01 
01060020006000052DEM       Governor                                                Lupe Valdez                           Precinct 401                                           01 
01060020007000094DEM       Governor                                                Lupe Valdez                           Precinct 402                                           01 
01060030001000010LIB       Governor                                                Mark Jay Tippetts                     Precinct 101                                           01 
01060030002000007LIB       Governor                                                Mark Jay Tippetts                     Precinct 201                                           01 
01060030003000008LIB       Governor                                                Mark Jay Tippetts                     Precinct 202                                           01 
01060030004000000LIB       Governor                                                Mark Jay Tippetts                     Precinct 203                                           01 
01060030005000006LIB       Governor                                                Mark Jay Tippetts                     Precinct 301                                           01 
01060030006000008LIB       Governor                                                Mark Jay Tippetts                     Precinct 401                                           01 
01060030007000001LIB       Governor                                                Mark Jay Tippetts                     Precinct 402                                           01 
01060040001000000          Governor                                                OVER VOTES                            Precinct 101                                           01 
01060040002000000          Governor                                                OVER VOTES                            Precinct 201                                           01 
01060040003000000          Governor                                                OVER VOTES                            Precinct 202                                           01 
01060040004000000          Governor                                                OVER VOTES                            Precinct 203                                           01 
01060040005000000          Governor                                                OVER VOTES                            Precinct 301                                           01 
01060040006000000          Governor                                                OVER VOTES                            Precinct 401                                           01 
01060040007000000          Governor                                                OVER VOTES                            Precinct 402                                           01 
01060050001000005          Governor                                                UNDER VOTES                           Precinct 101                                           01 
01060050002000001          Governor                                                UNDER VOTES                           Precinct 201                                           01 
01060050003000004          Governor                                                UNDER VOTES                           Precinct 202                                           01 
01060050004000000          Governor                                                UNDER VOTES                           Precinct 203                                           01 
01060050005000003          Governor                                                UNDER VOTES                           Precinct 301                                           01 
01060050006000005          Governor                                                UNDER VOTES                           Precinct 401                                           01 
01060050007000001          Governor                                                UNDER VOTES                           Precinct 402                                           01 
01070010001000732REP       Lieutenant Governor                                     Dan Patrick                           Precinct 101                                           01 
01070010002000684REP       Lieutenant Governor                                     Dan Patrick                           Precinct 201                                           01 
01070010003000727REP       Lieutenant Governor                                     Dan Patrick                           Precinct 202                                           01 
01070010004000032REP       Lieutenant Governor                                     Dan Patrick                           Precinct 203                                           01 
01070010005000391REP       Lieutenant Governor                                     Dan Patrick                           Precinct 301                                           01 
01070010006000406REP       Lieutenant Governor                                     Dan Patrick                           Precinct 401                                           01 
01070010007000031REP       Lieutenant Governor                                     Dan Patrick                           Precinct 402                                           01 
01070020001000256DEM       Lieutenant Governor                                     Mike Collier                          Precinct 101                                           01 
01070020002000194DEM       Lieutenant Governor                                     Mike Collier                          Precinct 201                                           01 
01070020003000164DEM       Lieutenant Governor                                     Mike Collier                          Precinct 202                                           01 
01070020004000008DEM       Lieutenant Governor                                     Mike Collier                          Precinct 203                                           01 
01070020005000163DEM       Lieutenant Governor                                     Mike Collier                          Precinct 301                                           01 
01070020006000079DEM       Lieutenant Governor                                     Mike Collier                          Precinct 401                                           01 
01070020007000087DEM       Lieutenant Governor                                     Mike Collier                          Precinct 402                                           01 
01070030001000019LIB       Lieutenant Governor                                     Kerry Douglas McKennon                Precinct 101                                           01 
01070030002000012LIB       Lieutenant Governor                                     Kerry Douglas McKennon                Precinct 201                                           01 
01070030003000016LIB       Lieutenant Governor                                     Kerry Douglas McKennon                Precinct 202                                           01 
01070030004000000LIB       Lieutenant Governor                                     Kerry Douglas McKennon                Precinct 203                                           01 
01070030005000011LIB       Lieutenant Governor                                     Kerry Douglas McKennon                Precinct 301                                           01 
01070030006000013LIB       Lieutenant Governor                                     Kerry Douglas McKennon                Precinct 401                                           01 
01070030007000001LIB       Lieutenant Governor                                     Kerry Douglas McKennon                Precinct 402                                           01 
01070040001000000          Lieutenant Governor                                     OVER VOTES                            Precinct 101                                           01 
01070040002000000          Lieutenant Governor                                     OVER VOTES                            Precinct 201                                           01 
01070040003000000          Lieutenant Governor                                     OVER VOTES                            Precinct 202                                           01 
01070040004000000          Lieutenant Governor                                     OVER VOTES                            Precinct 203                                           01 
01070040005000000          Lieutenant Governor                                     OVER VOTES                            Precinct 301                                           01 
01070040006000000          Lieutenant Governor                                     OVER VOTES                            Precinct 401                                           01 
01070040007000000          Lieutenant Governor                                     OVER VOTES                            Precinct 402                                           01 
01070050001000008          Lieutenant Governor                                     UNDER VOTES                           Precinct 101                                           01 
01070050002000010          Lieutenant Governor                                     UNDER VOTES                           Precinct 201                                           01 
01070050003000010          Lieutenant Governor                                     UNDER VOTES                           Precinct 202                                           01 
01070050004000001          Lieutenant Governor                                     UNDER VOTES                           Precinct 203                                           01 
01070050005000006          Lieutenant Governor                                     UNDER VOTES                           Precinct 301                                           01 
01070050006000009          Lieutenant Governor                                     UNDER VOTES                           Precinct 401                                           01 
01070050007000005          Lieutenant Governor                                     UNDER VOTES                           Precinct 402                                           01 
01080010001000762REP       Attorney General                                        Ken Paxton                            Precinct 101                                           01 
01080010002000732REP       Attorney General                                        Ken Paxton                            Precinct 201                                           01 
01080010003000786REP       Attorney General                                        Ken Paxton                            Precinct 202                                           01 
01080010004000033REP       Attorney General                                        Ken Paxton                            Precinct 203                                           01 
01080010005000385REP       Attorney General                                        Ken Paxton                            Precinct 301                                           01 
01080010006000433REP       Attorney General                                        Ken Paxton                            Precinct 401                                           01 
01080010007000029REP       Attorney General                                        Ken Paxton                            Precinct 402                                           01 
01080020001000231DEM       Attorney General                                        Justin Nelson                         Precinct 101                                           01 
01080020002000146DEM       Attorney General                                        Justin Nelson                         Precinct 201                                           01 
01080020003000107DEM       Attorney General                                        Justin Nelson                         Precinct 202                                           01 
01080020004000007DEM       Attorney General                                        Justin Nelson                         Precinct 203                                           01 
01080020005000170DEM       Attorney General                                        Justin Nelson                         Precinct 301                                           01 
01080020006000058DEM       Attorney General                                        Justin Nelson                         Precinct 401                                           01 
01080020007000089DEM       Attorney General                                        Justin Nelson                         Precinct 402                                           01 
01080030001000013LIB       Attorney General                                        Michael Ray Harris                    Precinct 101                                           01 
01080030002000010LIB       Attorney General                                        Michael Ray Harris                    Precinct 201                                           01 
01080030003000014LIB       Attorney General                                        Michael Ray Harris                    Precinct 202                                           01 
01080030004000001LIB       Attorney General                                        Michael Ray Harris                    Precinct 203                                           01 
01080030005000008LIB       Attorney General                                        Michael Ray Harris                    Precinct 301                                           01 
01080030006000010LIB       Attorney General                                        Michael Ray Harris                    Precinct 401                                           01 
01080030007000001LIB       Attorney General                                        Michael Ray Harris                    Precinct 402                                           01 
01080040001000000          Attorney General                                        OVER VOTES                            Precinct 101                                           01 
01080040002000000          Attorney General                                        OVER VOTES                            Precinct 201                                           01 
01080040003000000          Attorney General                                        OVER VOTES                            Precinct 202                                           01 
01080040004000000          Attorney General                                        OVER VOTES                            Precinct 203                                           01 
01080040005000000          Attorney General                                        OVER VOTES                            Precinct 301                                           01 
01080040006000000          Attorney General                                        OVER VOTES                            Precinct 401                                           01 
01080040007000000          Attorney General                                        OVER VOTES                            Precinct 402                                           01 
01080050001000009          Attorney General                                        UNDER VOTES                           Precinct 101                                           01 
01080050002000012          Attorney General                                        UNDER VOTES                           Precinct 201                                           01 
01080050003000010          Attorney General                                        UNDER VOTES                           Precinct 202                                           01 
01080050004000000          Attorney General                                        UNDER VOTES                           Precinct 203                                           01 
01080050005000008          Attorney General                                        UNDER VOTES                           Precinct 301                                           01 
01080050006000006          Attorney General                                        UNDER VOTES                           Precinct 401                                           01 
01080050007000005          Attorney General                                        UNDER VOTES                           Precinct 402                                           01 
01090010001000768REP       Comptroller of Public Accounts                          Glenn Hegar                           Precinct 101                                           01 
01090010002000741REP       Comptroller of Public Accounts                          Glenn Hegar                           Precinct 201                                           01 
01090010003000796REP       Comptroller of Public Accounts                          Glenn Hegar                           Precinct 202                                           01 
01090010004000034REP       Comptroller of Public Accounts                          Glenn Hegar                           Precinct 203                                           01 
01090010005000392REP       Comptroller of Public Accounts                          Glenn Hegar                           Precinct 301                                           01 
01090010006000431REP       Comptroller of Public Accounts                          Glenn Hegar                           Precinct 401                                           01 
01090010007000027REP       Comptroller of Public Accounts                          Glenn Hegar                           Precinct 402                                           01 
01090020001000207DEM       Comptroller of Public Accounts                          Joi Chevalier                         Precinct 101                                           01 
01090020002000129DEM       Comptroller of Public Accounts                          Joi Chevalier                         Precinct 201                                           01 
01090020003000090DEM       Comptroller of Public Accounts                          Joi Chevalier                         Precinct 202                                           01 
01090020004000005DEM       Comptroller of Public Accounts                          Joi Chevalier                         Precinct 203                                           01 
01090020005000151DEM       Comptroller of Public Accounts                          Joi Chevalier                         Precinct 301                                           01 
01090020006000053DEM       Comptroller of Public Accounts                          Joi Chevalier                         Precinct 401                                           01 
01090020007000088DEM       Comptroller of Public Accounts                          Joi Chevalier                         Precinct 402                                           01 
01090030001000023LIB       Comptroller of Public Accounts                          Ben Sanders                           Precinct 101                                           01 
01090030002000015LIB       Comptroller of Public Accounts                          Ben Sanders                           Precinct 201                                           01 
01090030003000020LIB       Comptroller of Public Accounts                          Ben Sanders                           Precinct 202                                           01 
01090030004000001LIB       Comptroller of Public Accounts                          Ben Sanders                           Precinct 203                                           01 
01090030005000016LIB       Comptroller of Public Accounts                          Ben Sanders                           Precinct 301                                           01 
01090030006000014LIB       Comptroller of Public Accounts                          Ben Sanders                           Precinct 401                                           01 
01090030007000003LIB       Comptroller of Public Accounts                          Ben Sanders                           Precinct 402                                           01 
01090040001000000          Comptroller of Public Accounts                          OVER VOTES                            Precinct 101                                           01 
01090040002000000          Comptroller of Public Accounts                          OVER VOTES                            Precinct 201                                           01 
01090040003000000          Comptroller of Public Accounts                          OVER VOTES                            Precinct 202                                           01 
01090040004000000          Comptroller of Public Accounts                          OVER VOTES                            Precinct 203                                           01 
01090040005000000          Comptroller of Public Accounts                          OVER VOTES                            Precinct 301                                           01 
01090040006000000          Comptroller of Public Accounts                          OVER VOTES                            Precinct 401                                           01 
01090040007000000          Comptroller of Public Accounts                          OVER VOTES                            Precinct 402                                           01 
01090050001000017          Comptroller of Public Accounts                          UNDER VOTES                           Precinct 101                                           01 
01090050002000015          Comptroller of Public Accounts                          UNDER VOTES                           Precinct 201                                           01 
01090050003000011          Comptroller of Public Accounts                          UNDER VOTES                           Precinct 202                                           01 
01090050004000001          Comptroller of Public Accounts                          UNDER VOTES                           Precinct 203                                           01 
01090050005000012          Comptroller of Public Accounts                          UNDER VOTES                           Precinct 301                                           01 
01090050006000009          Comptroller of Public Accounts                          UNDER VOTES                           Precinct 401                                           01 
01090050007000006          Comptroller of Public Accounts                          UNDER VOTES                           Precinct 402                                           01 
01100010001000754REP       Commissioner of the General Land Office                 George P. Bush                        Precinct 101                                           01 
01100010002000711REP       Commissioner of the General Land Office                 George P. Bush                        Precinct 201                                           01 
01100010003000792REP       Commissioner of the General Land Office                 George P. Bush                        Precinct 202                                           01 
01100010004000028REP       Commissioner of the General Land Office                 George P. Bush                        Precinct 203                                           01 
01100010005000394REP       Commissioner of the General Land Office                 George P. Bush                        Precinct 301                                           01 
01100010006000426REP       Commissioner of the General Land Office                 George P. Bush                        Precinct 401                                           01 
01100010007000027REP       Commissioner of the General Land Office                 George P. Bush                        Precinct 402                                           01 
01100020001000212DEM       Commissioner of the General Land Office                 Miguel Suazo                          Precinct 101                                           01 
01100020002000152DEM       Commissioner of the General Land Office                 Miguel Suazo                          Precinct 201                                           01 
01100020003000092DEM       Commissioner of the General Land Office                 Miguel Suazo                          Precinct 202                                           01 
01100020004000006DEM       Commissioner of the General Land Office                 Miguel Suazo                          Precinct 203                                           01 
01100020005000151DEM       Commissioner of the General Land Office                 Miguel Suazo                          Precinct 301                                           01 
01100020006000050DEM       Commissioner of the General Land Office                 Miguel Suazo                          Precinct 401                                           01 
01100020007000093DEM       Commissioner of the General Land Office                 Miguel Suazo                          Precinct 402                                           01 
01100030001000033LIB       Commissioner of the General Land Office                 Matt Pina                             Precinct 101                                           01 
01100030002000026LIB       Commissioner of the General Land Office                 Matt Pina                             Precinct 201                                           01 
01100030003000022LIB       Commissioner of the General Land Office                 Matt Pina                             Precinct 202                                           01 
01100030004000005LIB       Commissioner of the General Land Office                 Matt Pina                             Precinct 203                                           01 
01100030005000017LIB       Commissioner of the General Land Office                 Matt Pina                             Precinct 301                                           01 
01100030006000019LIB       Commissioner of the General Land Office                 Matt Pina                             Precinct 401                                           01 
01100030007000001LIB       Commissioner of the General Land Office                 Matt Pina                             Precinct 402                                           01 
01100040001000000          Commissioner of the General Land Office                 OVER VOTES                            Precinct 101                                           01 
01100040002000000          Commissioner of the General Land Office                 OVER VOTES                            Precinct 201                                           01 
01100040003000000          Commissioner of the General Land Office                 OVER VOTES                            Precinct 202                                           01 
01100040004000000          Commissioner of the General Land Office                 OVER VOTES                            Precinct 203                                           01 
01100040005000000          Commissioner of the General Land Office                 OVER VOTES                            Precinct 301                                           01 
01100040006000000          Commissioner of the General Land Office                 OVER VOTES                            Precinct 401                                           01 
01100040007000000          Commissioner of the General Land Office                 OVER VOTES                            Precinct 402                                           01 
01100050001000016          Commissioner of the General Land Office                 UNDER VOTES                           Precinct 101                                           01 
01100050002000011          Commissioner of the General Land Office                 UNDER VOTES                           Precinct 201                                           01 
01100050003000011          Commissioner of the General Land Office                 UNDER VOTES                           Precinct 202                                           01 
01100050004000002          Commissioner of the General Land Office                 UNDER VOTES                           Precinct 203                                           01 
01100050005000009          Commissioner of the General Land Office                 UNDER VOTES                           Precinct 301                                           01 
01100050006000012          Commissioner of the General Land Office                 UNDER VOTES                           Precinct 401                                           01 
01100050007000003          Commissioner of the General Land Office                 UNDER VOTES                           Precinct 402                                           01 
01110010001000770REP       Commissioner of Agriculture                             Sid Miller                            Precinct 101                                           01 
01110010002000744REP       Commissioner of Agriculture                             Sid Miller                            Precinct 201                                           01 
01110010003000799REP       Commissioner of Agriculture                             Sid Miller                            Precinct 202                                           01 
01110010004000033REP       Commissioner of Agriculture                             Sid Miller                            Precinct 203                                           01 
01110010005000397REP       Commissioner of Agriculture                             Sid Miller                            Precinct 301                                           01 
01110010006000429REP       Commissioner of Agriculture                             Sid Miller                            Precinct 401                                           01 
01110010007000028REP       Commissioner of Agriculture                             Sid Miller                            Precinct 402                                           01 
01110020001000214DEM       Commissioner of Agriculture                             Kim Olson                             Precinct 101                                           01 
01110020002000130DEM       Commissioner of Agriculture                             Kim Olson                             Precinct 201                                           01 
01110020003000093DEM       Commissioner of Agriculture                             Kim Olson                             Precinct 202                                           01 
01110020004000007DEM       Commissioner of Agriculture                             Kim Olson                             Precinct 203                                           01 
01110020005000155DEM       Commissioner of Agriculture                             Kim Olson                             Precinct 301                                           01 
01110020006000061DEM       Commissioner of Agriculture                             Kim Olson                             Precinct 401                                           01 
01110020007000090DEM       Commissioner of Agriculture                             Kim Olson                             Precinct 402                                           01 
01110030001000016LIB       Commissioner of Agriculture                             Richard Carpenter                     Precinct 101                                           01 
01110030002000015LIB       Commissioner of Agriculture                             Richard Carpenter                     Precinct 201                                           01 
01110030003000017LIB       Commissioner of Agriculture                             Richard Carpenter                     Precinct 202                                           01 
01110030004000001LIB       Commissioner of Agriculture                             Richard Carpenter                     Precinct 203                                           01 
01110030005000008LIB       Commissioner of Agriculture                             Richard Carpenter                     Precinct 301                                           01 
01110030006000008LIB       Commissioner of Agriculture                             Richard Carpenter                     Precinct 401                                           01 
01110030007000001LIB       Commissioner of Agriculture                             Richard Carpenter                     Precinct 402                                           01 
01110040001000000          Commissioner of Agriculture                             OVER VOTES                            Precinct 101                                           01 
01110040002000000          Commissioner of Agriculture                             OVER VOTES                            Precinct 201                                           01 
01110040003000000          Commissioner of Agriculture                             OVER VOTES                            Precinct 202                                           01 
01110040004000000          Commissioner of Agriculture                             OVER VOTES                            Precinct 203                                           01 
01110040005000000          Commissioner of Agriculture                             OVER VOTES                            Precinct 301                                           01 
01110040006000000          Commissioner of Agriculture                             OVER VOTES                            Precinct 401                                           01 
01110040007000000          Commissioner of Agriculture                             OVER VOTES                            Precinct 402                                           01 
01110050001000015          Commissioner of Agriculture                             UNDER VOTES                           Precinct 101                                           01 
01110050002000011          Commissioner of Agriculture                             UNDER VOTES                           Precinct 201                                           01 
01110050003000008          Commissioner of Agriculture                             UNDER VOTES                           Precinct 202                                           01 
01110050004000000          Commissioner of Agriculture                             UNDER VOTES                           Precinct 203                                           01 
01110050005000011          Commissioner of Agriculture                             UNDER VOTES                           Precinct 301                                           01 
01110050006000009          Commissioner of Agriculture                             UNDER VOTES                           Precinct 401                                           01 
01110050007000005          Commissioner of Agriculture                             UNDER VOTES                           Precinct 402                                           01 
01120010001000768REP       Railroad Commissioner                                   Christi Craddick                      Precinct 101                                           01 
01120010002000747REP       Railroad Commissioner                                   Christi Craddick                      Precinct 201                                           01 
01120010003000793REP       Railroad Commissioner                                   Christi Craddick                      Precinct 202                                           01 
01120010004000033REP       Railroad Commissioner                                   Christi Craddick                      Precinct 203                                           01 
01120010005000391REP       Railroad Commissioner                                   Christi Craddick                      Precinct 301                                           01 
01120010006000436REP       Railroad Commissioner                                   Christi Craddick                      Precinct 401                                           01 
01120010007000027REP       Railroad Commissioner                                   Christi Craddick                      Precinct 402                                           01 
01120020001000205DEM       Railroad Commissioner                                   Roman McAllen                         Precinct 101                                           01 
01120020002000130DEM       Railroad Commissioner                                   Roman McAllen                         Precinct 201                                           01 
01120020003000095DEM       Railroad Commissioner                                   Roman McAllen                         Precinct 202                                           01 
01120020004000007DEM       Railroad Commissioner                                   Roman McAllen                         Precinct 203                                           01 
01120020005000154DEM       Railroad Commissioner                                   Roman McAllen                         Precinct 301                                           01 
01120020006000051DEM       Railroad Commissioner                                   Roman McAllen                         Precinct 401                                           01 
01120020007000091DEM       Railroad Commissioner                                   Roman McAllen                         Precinct 402                                           01 
01120030001000026LIB       Railroad Commissioner                                   Mike Wright                           Precinct 101                                           01 
01120030002000015LIB       Railroad Commissioner                                   Mike Wright                           Precinct 201                                           01 
01120030003000018LIB       Railroad Commissioner                                   Mike Wright                           Precinct 202                                           01 
01120030004000000LIB       Railroad Commissioner                                   Mike Wright                           Precinct 203                                           01 
01120030005000015LIB       Railroad Commissioner                                   Mike Wright                           Precinct 301                                           01 
01120030006000011LIB       Railroad Commissioner                                   Mike Wright                           Precinct 401                                           01 
01120030007000002LIB       Railroad Commissioner                                   Mike Wright                           Precinct 402                                           01 
01120040001000000          Railroad Commissioner                                   OVER VOTES                            Precinct 101                                           01 
01120040002000000          Railroad Commissioner                                   OVER VOTES                            Precinct 201                                           01 
01120040003000000          Railroad Commissioner                                   OVER VOTES                            Precinct 202                                           01 
01120040004000000          Railroad Commissioner                                   OVER VOTES                            Precinct 203                                           01 
01120040005000000          Railroad Commissioner                                   OVER VOTES                            Precinct 301                                           01 
01120040006000000          Railroad Commissioner                                   OVER VOTES                            Precinct 401                                           01 
01120040007000000          Railroad Commissioner                                   OVER VOTES                            Precinct 402                                           01 
01120050001000016          Railroad Commissioner                                   UNDER VOTES                           Precinct 101                                           01 
01120050002000008          Railroad Commissioner                                   UNDER VOTES                           Precinct 201                                           01 
01120050003000011          Railroad Commissioner                                   UNDER VOTES                           Precinct 202                                           01 
01120050004000001          Railroad Commissioner                                   UNDER VOTES                           Precinct 203                                           01 
01120050005000011          Railroad Commissioner                                   UNDER VOTES                           Precinct 301                                           01 
01120050006000009          Railroad Commissioner                                   UNDER VOTES                           Precinct 401                                           01 
01120050007000004          Railroad Commissioner                                   UNDER VOTES                           Precinct 402                                           01 
01130010001000777REP       Justice, Supreme Court, Place 2                         Jimmy Blacklock                       Precinct 101                                           01 
01130010002000748REP       Justice, Supreme Court, Place 2                         Jimmy Blacklock                       Precinct 201                                           01 
01130010003000799REP       Justice, Supreme Court, Place 2                         Jimmy Blacklock                       Precinct 202                                           01 
01130010004000034REP       Justice, Supreme Court, Place 2                         Jimmy Blacklock                       Precinct 203                                           01 
01130010005000394REP       Justice, Supreme Court, Place 2                         Jimmy Blacklock                       Precinct 301                                           01 
01130010006000438REP       Justice, Supreme Court, Place 2                         Jimmy Blacklock                       Precinct 401                                           01 
01130010007000028REP       Justice, Supreme Court, Place 2                         Jimmy Blacklock                       Precinct 402                                           01 
01130020001000225DEM       Justice, Supreme Court, Place 2                         Steven Kirkland                       Precinct 101                                           01 
01130020002000137DEM       Justice, Supreme Court, Place 2                         Steven Kirkland                       Precinct 201                                           01 
01130020003000104DEM       Justice, Supreme Court, Place 2                         Steven Kirkland                       Precinct 202                                           01 
01130020004000007DEM       Justice, Supreme Court, Place 2                         Steven Kirkland                       Precinct 203                                           01 
01130020005000162DEM       Justice, Supreme Court, Place 2                         Steven Kirkland                       Precinct 301                                           01 
01130020006000058DEM       Justice, Supreme Court, Place 2                         Steven Kirkland                       Precinct 401                                           01 
01130020007000091DEM       Justice, Supreme Court, Place 2                         Steven Kirkland                       Precinct 402                                           01 
01130030001000000          Justice, Supreme Court, Place 2                         OVER VOTES                            Precinct 101                                           01 
01130030002000000          Justice, Supreme Court, Place 2                         OVER VOTES                            Precinct 201                                           01 
01130030003000000          Justice, Supreme Court, Place 2                         OVER VOTES                            Precinct 202                                           01 
01130030004000000          Justice, Supreme Court, Place 2                         OVER VOTES                            Precinct 203                                           01 
01130030005000001          Justice, Supreme Court, Place 2                         OVER VOTES                            Precinct 301                                           01 
01130030006000000          Justice, Supreme Court, Place 2                         OVER VOTES                            Precinct 401                                           01 
01130030007000000          Justice, Supreme Court, Place 2                         OVER VOTES                            Precinct 402                                           01 
01130040001000013          Justice, Supreme Court, Place 2                         UNDER VOTES                           Precinct 101                                           01 
01130040002000015          Justice, Supreme Court, Place 2                         UNDER VOTES                           Precinct 201                                           01 
01130040003000014          Justice, Supreme Court, Place 2                         UNDER VOTES                           Precinct 202                                           01 
01130040004000000          Justice, Supreme Court, Place 2                         UNDER VOTES                           Precinct 203                                           01 
01130040005000014          Justice, Supreme Court, Place 2                         UNDER VOTES                           Precinct 301                                           01 
01130040006000011          Justice, Supreme Court, Place 2                         UNDER VOTES                           Precinct 401                                           01 
01130040007000005          Justice, Supreme Court, Place 2                         UNDER VOTES                           Precinct 402                                           01 
01140010001000781REP       Justice, Supreme Court, Place 4                         John Devine                           Precinct 101                                           01 
01140010002000752REP       Justice, Supreme Court, Place 4                         John Devine                           Precinct 201                                           01 
01140010003000803REP       Justice, Supreme Court, Place 4                         John Devine                           Precinct 202                                           01 
01140010004000033REP       Justice, Supreme Court, Place 4                         John Devine                           Precinct 203                                           01 
01140010005000397REP       Justice, Supreme Court, Place 4                         John Devine                           Precinct 301                                           01 
01140010006000442REP       Justice, Supreme Court, Place 4                         John Devine                           Precinct 401                                           01 
01140010007000027REP       Justice, Supreme Court, Place 4                         John Devine                           Precinct 402                                           01 
01140020001000218DEM       Justice, Supreme Court, Place 4                         R.K. Sandill                          Precinct 101                                           01 
01140020002000132DEM       Justice, Supreme Court, Place 4                         R.K. Sandill                          Precinct 201                                           01 
01140020003000101DEM       Justice, Supreme Court, Place 4                         R.K. Sandill                          Precinct 202                                           01 
01140020004000007DEM       Justice, Supreme Court, Place 4                         R.K. Sandill                          Precinct 203                                           01 
01140020005000157DEM       Justice, Supreme Court, Place 4                         R.K. Sandill                          Precinct 301                                           01 
01140020006000055DEM       Justice, Supreme Court, Place 4                         R.K. Sandill                          Precinct 401                                           01 
01140020007000092DEM       Justice, Supreme Court, Place 4                         R.K. Sandill                          Precinct 402                                           01 
01140030001000000          Justice, Supreme Court, Place 4                         OVER VOTES                            Precinct 101                                           01 
01140030002000000          Justice, Supreme Court, Place 4                         OVER VOTES                            Precinct 201                                           01 
01140030003000000          Justice, Supreme Court, Place 4                         OVER VOTES                            Precinct 202                                           01 
01140030004000000          Justice, Supreme Court, Place 4                         OVER VOTES                            Precinct 203                                           01 
01140030005000001          Justice, Supreme Court, Place 4                         OVER VOTES                            Precinct 301                                           01 
01140030006000000          Justice, Supreme Court, Place 4                         OVER VOTES                            Precinct 401                                           01 
01140030007000000          Justice, Supreme Court, Place 4                         OVER VOTES                            Precinct 402                                           01 
01140040001000016          Justice, Supreme Court, Place 4                         UNDER VOTES                           Precinct 101                                           01 
01140040002000016          Justice, Supreme Court, Place 4                         UNDER VOTES                           Precinct 201                                           01 
01140040003000013          Justice, Supreme Court, Place 4                         UNDER VOTES                           Precinct 202                                           01 
01140040004000001          Justice, Supreme Court, Place 4                         UNDER VOTES                           Precinct 203                                           01 
01140040005000016          Justice, Supreme Court, Place 4                         UNDER VOTES                           Precinct 301                                           01 
01140040006000010          Justice, Supreme Court, Place 4                         UNDER VOTES                           Precinct 401                                           01 
01140040007000005          Justice, Supreme Court, Place 4                         UNDER VOTES                           Precinct 402                                           01 
01150010001000778REP       Justice, Supreme Court, Place 6                         Jeff Brown                            Precinct 101                                           01 
01150010002000747REP       Justice, Supreme Court, Place 6                         Jeff Brown                            Precinct 201                                           01 
01150010003000799REP       Justice, Supreme Court, Place 6                         Jeff Brown                            Precinct 202                                           01 
01150010004000033REP       Justice, Supreme Court, Place 6                         Jeff Brown                            Precinct 203                                           01 
01150010005000398REP       Justice, Supreme Court, Place 6                         Jeff Brown                            Precinct 301                                           01 
01150010006000438REP       Justice, Supreme Court, Place 6                         Jeff Brown                            Precinct 401                                           01 
01150010007000028REP       Justice, Supreme Court, Place 6                         Jeff Brown                            Precinct 402                                           01 
01150020001000221DEM       Justice, Supreme Court, Place 6                         Kathy Cheng                           Precinct 101                                           01 
01150020002000136DEM       Justice, Supreme Court, Place 6                         Kathy Cheng                           Precinct 201                                           01 
01150020003000105DEM       Justice, Supreme Court, Place 6                         Kathy Cheng                           Precinct 202                                           01 
01150020004000007DEM       Justice, Supreme Court, Place 6                         Kathy Cheng                           Precinct 203                                           01 
01150020005000157DEM       Justice, Supreme Court, Place 6                         Kathy Cheng                           Precinct 301                                           01 
01150020006000061DEM       Justice, Supreme Court, Place 6                         Kathy Cheng                           Precinct 401                                           01 
01150020007000090DEM       Justice, Supreme Court, Place 6                         Kathy Cheng                           Precinct 402                                           01 
01150030001000000          Justice, Supreme Court, Place 6                         OVER VOTES                            Precinct 101                                           01 
01150030002000000          Justice, Supreme Court, Place 6                         OVER VOTES                            Precinct 201                                           01 
01150030003000000          Justice, Supreme Court, Place 6                         OVER VOTES                            Precinct 202                                           01 
01150030004000000          Justice, Supreme Court, Place 6                         OVER VOTES                            Precinct 203                                           01 
01150030005000000          Justice, Supreme Court, Place 6                         OVER VOTES                            Precinct 301                                           01 
01150030006000000          Justice, Supreme Court, Place 6                         OVER VOTES                            Precinct 401                                           01 
01150030007000000          Justice, Supreme Court, Place 6                         OVER VOTES                            Precinct 402                                           01 
01150040001000016          Justice, Supreme Court, Place 6                         UNDER VOTES                           Precinct 101                                           01 
01150040002000017          Justice, Supreme Court, Place 6                         UNDER VOTES                           Precinct 201                                           01 
01150040003000013          Justice, Supreme Court, Place 6                         UNDER VOTES                           Precinct 202                                           01 
01150040004000001          Justice, Supreme Court, Place 6                         UNDER VOTES                           Precinct 203                                           01 
01150040005000016          Justice, Supreme Court, Place 6                         UNDER VOTES                           Precinct 301                                           01 
01150040006000008          Justice, Supreme Court, Place 6                         UNDER VOTES                           Precinct 401                                           01 
01150040007000006          Justice, Supreme Court, Place 6                         UNDER VOTES                           Precinct 402                                           01 
01160010001000764REP       Presiding Judge, Court of Crim Appeals                  Sharon Keller                         Precinct 101                                           01 
01160010002000731REP       Presiding Judge, Court of Crim Appeals                  Sharon Keller                         Precinct 201                                           01 
01160010003000787REP       Presiding Judge, Court of Crim Appeals                  Sharon Keller                         Precinct 202                                           01 
01160010004000033REP       Presiding Judge, Court of Crim Appeals                  Sharon Keller                         Precinct 203                                           01 
01160010005000395REP       Presiding Judge, Court of Crim Appeals                  Sharon Keller                         Precinct 301                                           01 
01160010006000432REP       Presiding Judge, Court of Crim Appeals                  Sharon Keller                         Precinct 401                                           01 
01160010007000026REP       Presiding Judge, Court of Crim Appeals                  Sharon Keller                         Precinct 402                                           01 
01160020001000219DEM       Presiding Judge, Court of Crim Appeals                  Maria T. (Terri) Jackson              Precinct 101                                           01 
01160020002000139DEM       Presiding Judge, Court of Crim Appeals                  Maria T. (Terri) Jackson              Precinct 201                                           01 
01160020003000097DEM       Presiding Judge, Court of Crim Appeals                  Maria T. (Terri) Jackson              Precinct 202                                           01 
01160020004000007DEM       Presiding Judge, Court of Crim Appeals                  Maria T. (Terri) Jackson              Precinct 203                                           01 
01160020005000156DEM       Presiding Judge, Court of Crim Appeals                  Maria T. (Terri) Jackson              Precinct 301                                           01 
01160020006000056DEM       Presiding Judge, Court of Crim Appeals                  Maria T. (Terri) Jackson              Precinct 401                                           01 
01160020007000090DEM       Presiding Judge, Court of Crim Appeals                  Maria T. (Terri) Jackson              Precinct 402                                           01 
01160030001000018LIB       Presiding Judge, Court of Crim Appeals                  William Bryan Strange III             Precinct 101                                           01 
01160030002000011LIB       Presiding Judge, Court of Crim Appeals                  William Bryan Strange III             Precinct 201                                           01 
01160030003000019LIB       Presiding Judge, Court of Crim Appeals                  William Bryan Strange III             Precinct 202                                           01 
01160030004000000LIB       Presiding Judge, Court of Crim Appeals                  William Bryan Strange III             Precinct 203                                           01 
01160030005000006LIB       Presiding Judge, Court of Crim Appeals                  William Bryan Strange III             Precinct 301                                           01 
01160030006000007LIB       Presiding Judge, Court of Crim Appeals                  William Bryan Strange III             Precinct 401                                           01 
01160030007000001LIB       Presiding Judge, Court of Crim Appeals                  William Bryan Strange III             Precinct 402                                           01 
01160040001000000          Presiding Judge, Court of Crim Appeals                  OVER VOTES                            Precinct 101                                           01 
01160040002000000          Presiding Judge, Court of Crim Appeals                  OVER VOTES                            Precinct 201                                           01 
01160040003000000          Presiding Judge, Court of Crim Appeals                  OVER VOTES                            Precinct 202                                           01 
01160040004000000          Presiding Judge, Court of Crim Appeals                  OVER VOTES                            Precinct 203                                           01 
01160040005000000          Presiding Judge, Court of Crim Appeals                  OVER VOTES                            Precinct 301                                           01 
01160040006000000          Presiding Judge, Court of Crim Appeals                  OVER VOTES                            Precinct 401                                           01 
01160040007000000          Presiding Judge, Court of Crim Appeals                  OVER VOTES                            Precinct 402                                           01 
01160050001000014          Presiding Judge, Court of Crim Appeals                  UNDER VOTES                           Precinct 101                                           01 
01160050002000019          Presiding Judge, Court of Crim Appeals                  UNDER VOTES                           Precinct 201                                           01 
01160050003000014          Presiding Judge, Court of Crim Appeals                  UNDER VOTES                           Precinct 202                                           01 
01160050004000001          Presiding Judge, Court of Crim Appeals                  UNDER VOTES                           Precinct 203                                           01 
01160050005000014          Presiding Judge, Court of Crim Appeals                  UNDER VOTES                           Precinct 301                                           01 
01160050006000012          Presiding Judge, Court of Crim Appeals                  UNDER VOTES                           Precinct 401                                           01 
01160050007000007          Presiding Judge, Court of Crim Appeals                  UNDER VOTES                           Precinct 402                                           01 
01170010001000786REP       Judge, Court of Criminal Appeals, Pl 7                  Barbara Parker Hervey                 Precinct 101                                           01 
01170010002000744REP       Judge, Court of Criminal Appeals, Pl 7                  Barbara Parker Hervey                 Precinct 201                                           01 
01170010003000807REP       Judge, Court of Criminal Appeals, Pl 7                  Barbara Parker Hervey                 Precinct 202                                           01 
01170010004000033REP       Judge, Court of Criminal Appeals, Pl 7                  Barbara Parker Hervey                 Precinct 203                                           01 
01170010005000395REP       Judge, Court of Criminal Appeals, Pl 7                  Barbara Parker Hervey                 Precinct 301                                           01 
01170010006000438REP       Judge, Court of Criminal Appeals, Pl 7                  Barbara Parker Hervey                 Precinct 401                                           01 
01170010007000027REP       Judge, Court of Criminal Appeals, Pl 7                  Barbara Parker Hervey                 Precinct 402                                           01 
01170020001000212DEM       Judge, Court of Criminal Appeals, Pl 7                  Ramona Franklin                       Precinct 101                                           01 
01170020002000134DEM       Judge, Court of Criminal Appeals, Pl 7                  Ramona Franklin                       Precinct 201                                           01 
01170020003000093DEM       Judge, Court of Criminal Appeals, Pl 7                  Ramona Franklin                       Precinct 202                                           01 
01170020004000007DEM       Judge, Court of Criminal Appeals, Pl 7                  Ramona Franklin                       Precinct 203                                           01 
01170020005000160DEM       Judge, Court of Criminal Appeals, Pl 7                  Ramona Franklin                       Precinct 301                                           01 
01170020006000056DEM       Judge, Court of Criminal Appeals, Pl 7                  Ramona Franklin                       Precinct 401                                           01 
01170020007000093DEM       Judge, Court of Criminal Appeals, Pl 7                  Ramona Franklin                       Precinct 402                                           01 
01170030001000000          Judge, Court of Criminal Appeals, Pl 7                  OVER VOTES                            Precinct 101                                           01 
01170030002000000          Judge, Court of Criminal Appeals, Pl 7                  OVER VOTES                            Precinct 201                                           01 
01170030003000000          Judge, Court of Criminal Appeals, Pl 7                  OVER VOTES                            Precinct 202                                           01 
01170030004000000          Judge, Court of Criminal Appeals, Pl 7                  OVER VOTES                            Precinct 203                                           01 
01170030005000000          Judge, Court of Criminal Appeals, Pl 7                  OVER VOTES                            Precinct 301                                           01 
01170030006000000          Judge, Court of Criminal Appeals, Pl 7                  OVER VOTES                            Precinct 401                                           01 
01170030007000000          Judge, Court of Criminal Appeals, Pl 7                  OVER VOTES                            Precinct 402                                           01 
01170040001000017          Judge, Court of Criminal Appeals, Pl 7                  UNDER VOTES                           Precinct 101                                           01 
01170040002000022          Judge, Court of Criminal Appeals, Pl 7                  UNDER VOTES                           Precinct 201                                           01 
01170040003000017          Judge, Court of Criminal Appeals, Pl 7                  UNDER VOTES                           Precinct 202                                           01 
01170040004000001          Judge, Court of Criminal Appeals, Pl 7                  UNDER VOTES                           Precinct 203                                           01 
01170040005000016          Judge, Court of Criminal Appeals, Pl 7                  UNDER VOTES                           Precinct 301                                           01 
01170040006000013          Judge, Court of Criminal Appeals, Pl 7                  UNDER VOTES                           Precinct 401                                           01 
01170040007000004          Judge, Court of Criminal Appeals, Pl 7                  UNDER VOTES                           Precinct 402                                           01 
01180010001000811REP       Judge, Court of Criminal Appeals, Pl 8                  Michelle Slaughter                    Precinct 101                                           01 
01180010002000764REP       Judge, Court of Criminal Appeals, Pl 8                  Michelle Slaughter                    Precinct 201                                           01 
01180010003000817REP       Judge, Court of Criminal Appeals, Pl 8                  Michelle Slaughter                    Precinct 202                                           01 
01180010004000035REP       Judge, Court of Criminal Appeals, Pl 8                  Michelle Slaughter                    Precinct 203                                           01 
01180010005000415REP       Judge, Court of Criminal Appeals, Pl 8                  Michelle Slaughter                    Precinct 301                                           01 
01180010006000447REP       Judge, Court of Criminal Appeals, Pl 8                  Michelle Slaughter                    Precinct 401                                           01 
01180010007000037REP       Judge, Court of Criminal Appeals, Pl 8                  Michelle Slaughter                    Precinct 402                                           01 
01180020001000093LIB       Judge, Court of Criminal Appeals, Pl 8                  Mark Ash                              Precinct 101                                           01 
01180020002000062LIB       Judge, Court of Criminal Appeals, Pl 8                  Mark Ash                              Precinct 201                                           01 
01180020003000053LIB       Judge, Court of Criminal Appeals, Pl 8                  Mark Ash                              Precinct 202                                           01 
01180020004000001LIB       Judge, Court of Criminal Appeals, Pl 8                  Mark Ash                              Precinct 203                                           01 
01180020005000067LIB       Judge, Court of Criminal Appeals, Pl 8                  Mark Ash                              Precinct 301                                           01 
01180020006000020LIB       Judge, Court of Criminal Appeals, Pl 8                  Mark Ash                              Precinct 401                                           01 
01180020007000017LIB       Judge, Court of Criminal Appeals, Pl 8                  Mark Ash                              Precinct 402                                           01 
01180030001000000          Judge, Court of Criminal Appeals, Pl 8                  OVER VOTES                            Precinct 101                                           01 
01180030002000000          Judge, Court of Criminal Appeals, Pl 8                  OVER VOTES                            Precinct 201                                           01 
01180030003000000          Judge, Court of Criminal Appeals, Pl 8                  OVER VOTES                            Precinct 202                                           01 
01180030004000000          Judge, Court of Criminal Appeals, Pl 8                  OVER VOTES                            Precinct 203                                           01 
01180030005000000          Judge, Court of Criminal Appeals, Pl 8                  OVER VOTES                            Precinct 301                                           01 
01180030006000000          Judge, Court of Criminal Appeals, Pl 8                  OVER VOTES                            Precinct 401                                           01 
01180030007000000          Judge, Court of Criminal Appeals, Pl 8                  OVER VOTES                            Precinct 402                                           01 
01180040001000111          Judge, Court of Criminal Appeals, Pl 8                  UNDER VOTES                           Precinct 101                                           01 
01180040002000074          Judge, Court of Criminal Appeals, Pl 8                  UNDER VOTES                           Precinct 201                                           01 
01180040003000047          Judge, Court of Criminal Appeals, Pl 8                  UNDER VOTES                           Precinct 202                                           01 
01180040004000005          Judge, Court of Criminal Appeals, Pl 8                  UNDER VOTES                           Precinct 203                                           01 
01180040005000089          Judge, Court of Criminal Appeals, Pl 8                  UNDER VOTES                           Precinct 301                                           01 
01180040006000040          Judge, Court of Criminal Appeals, Pl 8                  UNDER VOTES                           Precinct 401                                           01 
01180040007000070          Judge, Court of Criminal Appeals, Pl 8                  UNDER VOTES                           Precinct 402                                           01 
01190010001000814REP       State Senator, District 31                              Kel Seliger                           Precinct 101                                           01 
01190010002000772REP       State Senator, District 31                              Kel Seliger                           Precinct 201                                           01 
01190010003000823REP       State Senator, District 31                              Kel Seliger                           Precinct 202                                           01 
01190010004000035REP       State Senator, District 31                              Kel Seliger                           Precinct 203                                           01 
01190010005000420REP       State Senator, District 31                              Kel Seliger                           Precinct 301                                           01 
01190010006000432REP       State Senator, District 31                              Kel Seliger                           Precinct 401                                           01 
01190010007000037REP       State Senator, District 31                              Kel Seliger                           Precinct 402                                           01 
01190020001000098LIB       State Senator, District 31                              Jack B. Westbrook                     Precinct 101                                           01 
01190020002000065LIB       State Senator, District 31                              Jack B. Westbrook                     Precinct 201                                           01 
01190020003000058LIB       State Senator, District 31                              Jack B. Westbrook                     Precinct 202                                           01 
01190020004000002LIB       State Senator, District 31                              Jack B. Westbrook                     Precinct 203                                           01 
01190020005000067LIB       State Senator, District 31                              Jack B. Westbrook                     Precinct 301                                           01 
01190020006000039LIB       State Senator, District 31                              Jack B. Westbrook                     Precinct 401                                           01 
01190020007000016LIB       State Senator, District 31                              Jack B. Westbrook                     Precinct 402                                           01 
01190030001000000          State Senator, District 31                              OVER VOTES                            Precinct 101                                           01 
01190030002000000          State Senator, District 31                              OVER VOTES                            Precinct 201                                           01 
01190030003000000          State Senator, District 31                              OVER VOTES                            Precinct 202                                           01 
01190030004000000          State Senator, District 31                              OVER VOTES                            Precinct 203                                           01 
01190030005000000          State Senator, District 31                              OVER VOTES                            Precinct 301                                           01 
01190030006000000          State Senator, District 31                              OVER VOTES                            Precinct 401                                           01 
01190030007000000          State Senator, District 31                              OVER VOTES                            Precinct 402                                           01 
01190040001000103          State Senator, District 31                              UNDER VOTES                           Precinct 101                                           01 
01190040002000063          State Senator, District 31                              UNDER VOTES                           Precinct 201                                           01 
01190040003000036          State Senator, District 31                              UNDER VOTES                           Precinct 202                                           01 
01190040004000004          State Senator, District 31                              UNDER VOTES                           Precinct 203                                           01 
01190040005000084          State Senator, District 31                              UNDER VOTES                           Precinct 301                                           01 
01190040006000036          State Senator, District 31                              UNDER VOTES                           Precinct 401                                           01 
01190040007000071          State Senator, District 31                              UNDER VOTES                           Precinct 402                                           01 
01200010001000881REP       State Representative, District 87                       Four Price                            Precinct 101                                           01 
01200010002000815REP       State Representative, District 87                       Four Price                            Precinct 201                                           01 
01200010003000863REP       State Representative, District 87                       Four Price                            Precinct 202                                           01 
01200010004000037REP       State Representative, District 87                       Four Price                            Precinct 203                                           01 
01200010005000452REP       State Representative, District 87                       Four Price                            Precinct 301                                           01 
01200010006000461REP       State Representative, District 87                       Four Price                            Precinct 401                                           01 
01200010007000046REP       State Representative, District 87                       Four Price                            Precinct 402                                           01 
01200020001000000          State Representative, District 87                       OVER VOTES                            Precinct 101                                           01 
01200020002000000          State Representative, District 87                       OVER VOTES                            Precinct 201                                           01 
01200020003000000          State Representative, District 87                       OVER VOTES                            Precinct 202                                           01 
01200020004000000          State Representative, District 87                       OVER VOTES                            Precinct 203                                           01 
01200020005000000          State Representative, District 87                       OVER VOTES                            Precinct 301                                           01 
01200020006000000          State Representative, District 87                       OVER VOTES                            Precinct 401                                           01 
01200020007000000          State Representative, District 87                       OVER VOTES                            Precinct 402                                           01 
01200030001000133          State Representative, District 87                       UNDER VOTES                           Precinct 101                                           01 
01200030002000085          State Representative, District 87                       UNDER VOTES                           Precinct 201                                           01 
01200030003000054          State Representative, District 87                       UNDER VOTES                           Precinct 202                                           01 
01200030004000004          State Representative, District 87                       UNDER VOTES                           Precinct 203                                           01 
01200030005000119          State Representative, District 87                       UNDER VOTES                           Precinct 301                                           01 
01200030006000046          State Representative, District 87                       UNDER VOTES                           Precinct 401                                           01 
01200030007000078          State Representative, District 87                       UNDER VOTES                           Precinct 402                                           01 
01210010001000865REP       Justice, 7th Ct of Appeals Dist, Place 2                Judy Parker                           Precinct 101                                           01 
01210010002000794REP       Justice, 7th Ct of Appeals Dist, Place 2                Judy Parker                           Precinct 201                                           01 
01210010003000837REP       Justice, 7th Ct of Appeals Dist, Place 2                Judy Parker                           Precinct 202                                           01 
01210010004000035REP       Justice, 7th Ct of Appeals Dist, Place 2                Judy Parker                           Precinct 203                                           01 
01210010005000454REP       Justice, 7th Ct of Appeals Dist, Place 2                Judy Parker                           Precinct 301                                           01 
01210010006000453REP       Justice, 7th Ct of Appeals Dist, Place 2                Judy Parker                           Precinct 401                                           01 
01210010007000045REP       Justice, 7th Ct of Appeals Dist, Place 2                Judy Parker                           Precinct 402                                           01 
01210020001000000          Justice, 7th Ct of Appeals Dist, Place 2                OVER VOTES                            Precinct 101                                           01 
01210020002000000          Justice, 7th Ct of Appeals Dist, Place 2                OVER VOTES                            Precinct 201                                           01 
01210020003000000          Justice, 7th Ct of Appeals Dist, Place 2                OVER VOTES                            Precinct 202                                           01 
01210020004000000          Justice, 7th Ct of Appeals Dist, Place 2                OVER VOTES                            Precinct 203                                           01 
01210020005000000          Justice, 7th Ct of Appeals Dist, Place 2                OVER VOTES                            Precinct 301                                           01 
01210020006000000          Justice, 7th Ct of Appeals Dist, Place 2                OVER VOTES                            Precinct 401                                           01 
