000000000300000000003000000000000000000PRECINCTS COUNTED - TOTAL                               PRECINCTS COUNTED - TOTAL                                         
00010010030002860700300028607          REGISTERED VOTERS - TOTAL                               REGISTERED VOTERS - TOTAL                                      00 
0002001003000144530030000000           BALLOTS CAST - TOTAL                                    BALLOTS CAST - TOTAL                                           00 
0003001003000000090030000000           BALLOTS CAST - BLANK                                    BALLOTS CAST - BLANK                                           00 
0301001003000078150030000000 REP       Straight Party                                          Republican Party                                               01 
0301002003000026740030000000 DEM       Straight Party                                          Democratic Party                                               01 
0301003003000000490030000000 LIB       Straight Party                                          Libertarian Party                                              01 
0302001003000103910030000000 REP       United States Senator                                   Ted Cruz                                                       01 
0302002003000039180030000000 DEM       United States Senator                                   Beto O'Rourke                                                  01 
0302003003000001070030000000 LIB       United States Senator                                   Neal M. Dikeman                                                01 
0303001003000103630030000000 REP       US Representative, Dist 6                               Ron Wright                                                     01 
0303002003000037800030000000 DEM       US Representative, Dist 6                               Jana Lynne Sanchez                                             01 
0303003003000001470030000000 LIB       US Representative, Dist 6                               Jason Allen Harber                                             01 
0304001003000108180030000000 REP       Governor                                                Greg Abbott                                                    01 
0304002003000034110030000000 DEM       Governor                                                Lupe Valdez                                                    01 
0304003003000001790030000000 LIB       Governor                                                Mark Jay Tippetts                                              01 
0305001003000101100030000000 REP       Lieutenant Governor                                     Dan Patrick                                                    01 
0305002003000040070030000000 DEM       Lieutenant Governor                                     Mike Collier                                                   01 
0305003003000002560030000000 LIB       Lieutenant Governor                                     Kerry Douglas McKennon                                         01 
0306001003000100730030000000 REP       Attorney General                                        Ken Paxton                                                     01 
0306002003000039910030000000 DEM       Attorney General                                        Justin Nelson                                                  01 
0306003003000002860030000000 LIB       Attorney General                                        Michael Ray Harris                                             01 
0307001003000104940030000000 REP       Comptroller of Public Accounts                          Glenn Hegar                                                    01 
0307002003000034050030000000 DEM       Comptroller of Public Accounts                          Joi Chevalier                                                  01 
0307003003000003770030000000 LIB       Comptroller of Public Accounts                          Ben Sanders                                                    01 
0308001003000103970030000000 REP       Comm of the General Land Office                         George P. Bush                                                 01 
0308002003000034810030000000 DEM       Comm of the General Land Office                         Miguel Suazo                                                   01 
0308003003000004400030000000 LIB       Comm of the General Land Office                         Matt Pina                                                      01 
0309001003000102400030000000 REP       Commissioner of Agriculture                             Sid Miller                                                     01 
0309002003000038090030000000 DEM       Commissioner of Agriculture                             Kim Olson                                                      01 
0309003003000002460030000000 LIB       Commissioner of Agriculture                             Richard Carpenter                                              01 
0310001003000103990030000000 REP       Railroad Commissioner                                   Christi Craddick                                               01 
0310002003000035450030000000 DEM       Railroad Commissioner                                   Roman McAllen                                                  01 
0310003003000003420030000000 LIB       Railroad Commissioner                                   Mike Wright                                                    01 
0311001003000104530030000000 REP       Justice, Supreme Court, Pl 2                            Jimmy Blacklock                                                01 
0311002003000038150030000000 DEM       Justice, Supreme Court, Pl 2                            Steven Kirkland                                                01 
0312001003000105100030000000 REP       Justice, Supreme Court, Pl 4                            John Devine                                                    01 
0312002003000037280030000000 DEM       Justice, Supreme Court, Pl 4                            R.K. Sandill                                                   01 
0313001003000105230030000000 REP       Justice, Supreme Court, Pl 6                            Jeff Brown                                                     01 
0313002003000037160030000000 DEM       Justice, Supreme Court, Pl 6                            Kathy Cheng                                                    01 
0314001003000103430030000000 REP       Presiding Judge, Ct of Crim App                         Sharon Keller                                                  01 
0314002003000036350030000000 DEM       Presiding Judge, Ct of Crim App                         Maria T. (Terri) Jackson                                       01 
0314003003000002770030000000 LIB       Presiding Judge, Ct of Crim App                         William Bryan Strange III                                      01 
0315001003000105920030000000 REP       Judge, Ct of Crim App, Pl 7                             Barbara Parker Hervey                                          01 
0315002003000036210030000000 DEM       Judge, Ct of Crim App, Pl 7                             Ramona Franklin                                                01 
0316001003000110230030000000 REP       Judge, Ct of Crim App, Pl 8                             Michelle Slaughter                                             01 
0316002003000018250030000000 LIB       Judge, Ct of Crim App, Pl 8                             Mark Ash                                                       01 
0317001003000106640030000000 REP       State Representative, Dist 8                            Cody Harris                                                    01 
0317002003000036080030000000 DEM       State Representative, Dist 8                            Wesley D. Ratcliff                                             01 
0318001003000118380030000000 REP       Chief Justice, 10th Ct of App Dist                      Tom Gray                                                       01 
0319001003000116680030000000 REP       Criminal District Attorney                              R. Lowell Thompson                                             01 
0320001003000118660030000000 REP       County Judge                                            H.M. Davenport                                                 01 
0321001003000118600030000000 REP       District Clerk                                          Joshua B. Tackett                                              01 
0322001003000118890030000000 REP       County Clerk                                            Sherry Dowd                                                    01 
0323001003000117780030000000 REP       County Treasurer                                        Ryan Douglas                                                   01 
0324001000700024520007000000 REPCOM0002County Commissioner Precinct 2                          Eddie Perry                           Precinct 2               01 
0325001000700037470007000000 REPCOM0004County Commissioner Precinct 4                          James Olsen                           Precinct 4               01 
0326001000800030580008000000 REPJOP0001Justice of the Peace Precinct 1                         Greta Jordan                          Precinct 1               01 
0327001000700024420007000000 REPJOP0002Justice of the Peace Precinct 2                         Darrell R. Waller                     Precinct 2               01 
0328001000800025510008000000 REPJOP0003Justice of the Peace Precinct 3                         Jackie Freeland                       Precinct 3               01 
0329001000700037150007000000 REPJOP0004Justice of the Peace Precinct 4                         Connie Hickman                        Precinct 4               01 
