00010010001001061          REGISTERED VOTERS - TOTAL                               REGISTERED VOTERS - TOTAL             Precinct 1                                             00 
00010010002001062          REGISTERED VOTERS - TOTAL                               REGISTERED VOTERS - TOTAL             Precinct 2                                             00 
00010010003001775          REGISTERED VOTERS - TOTAL                               REGISTERED VOTERS - TOTAL             Precinct 3                                             00 
00010010004001724          REGISTERED VOTERS - TOTAL                               REGISTERED VOTERS - TOTAL             Precinct 4                                             00 
00010010005000149          REGISTERED VOTERS - TOTAL                               REGISTERED VOTERS - TOTAL             Precinct 5                                             00 
00010010006001100          REGISTERED VOTERS - TOTAL                               REGISTERED VOTERS - TOTAL             Precinct 6                                             00 
00010010007000294          REGISTERED VOTERS - TOTAL                               REGISTERED VOTERS - TOTAL             Precinct 7                                             00 
00010010008000163          REGISTERED VOTERS - TOTAL                               REGISTERED VOTERS - TOTAL             Precinct 8                                             00 
00010010009001461          REGISTERED VOTERS - TOTAL                               REGISTERED VOTERS - TOTAL             Precinct 9                                             00 
00020010001000456          BALLOTS CAST - TOTAL                                    BALLOTS CAST - TOTAL                  Precinct 1                                             00 
00020010002000592          BALLOTS CAST - TOTAL                                    BALLOTS CAST - TOTAL                  Precinct 2                                             00 
00020010003000718          BALLOTS CAST - TOTAL                                    BALLOTS CAST - TOTAL                  Precinct 3                                             00 
00020010004000607          BALLOTS CAST - TOTAL                                    BALLOTS CAST - TOTAL                  Precinct 4                                             00 
00020010005000104          BALLOTS CAST - TOTAL                                    BALLOTS CAST - TOTAL                  Precinct 5                                             00 
00020010006000537          BALLOTS CAST - TOTAL                                    BALLOTS CAST - TOTAL                  Precinct 6                                             00 
00020010007000179          BALLOTS CAST - TOTAL                                    BALLOTS CAST - TOTAL                  Precinct 7                                             00 
00020010008000112          BALLOTS CAST - TOTAL                                    BALLOTS CAST - TOTAL                  Precinct 8                                             00 
00020010009000787          BALLOTS CAST - TOTAL                                    BALLOTS CAST - TOTAL                  Precinct 9                                             00 
00030010001000000          BALLOTS CAST - BLANK                                    BALLOTS CAST - BLANK                  Precinct 1                                             00 
00030010002000000          BALLOTS CAST - BLANK                                    BALLOTS CAST - BLANK                  Precinct 2                                             00 
00030010003000000          BALLOTS CAST - BLANK                                    BALLOTS CAST - BLANK                  Precinct 3                                             00 
00030010004000002          BALLOTS CAST - BLANK                                    BALLOTS CAST - BLANK                  Precinct 4                                             00 
00030010005000000          BALLOTS CAST - BLANK                                    BALLOTS CAST - BLANK                  Precinct 5                                             00 
00030010006000000          BALLOTS CAST - BLANK                                    BALLOTS CAST - BLANK                  Precinct 6                                             00 
00030010007000000          BALLOTS CAST - BLANK                                    BALLOTS CAST - BLANK                  Precinct 7                                             00 
00030010008000000          BALLOTS CAST - BLANK                                    BALLOTS CAST - BLANK                  Precinct 8                                             00 
00030010009000001          BALLOTS CAST - BLANK                                    BALLOTS CAST - BLANK                  Precinct 9                                             00 
03010010001000206REP       Straight Party                                          Republican Party                      Precinct 1                                             01 
03010010002000295REP       Straight Party                                          Republican Party                      Precinct 2                                             01 
03010010003000328REP       Straight Party                                          Republican Party                      Precinct 3                                             01 
03010010004000242REP       Straight Party                                          Republican Party                      Precinct 4                                             01 
03010010005000041REP       Straight Party                                          Republican Party                      Precinct 5                                             01 
03010010006000226REP       Straight Party                                          Republican Party                      Precinct 6                                             01 
03010010007000097REP       Straight Party                                          Republican Party                      Precinct 7                                             01 
03010010008000060REP       Straight Party                                          Republican Party                      Precinct 8                                             01 
03010010009000404REP       Straight Party                                          Republican Party                      Precinct 9                                             01 
03010020001000063DEM       Straight Party                                          Democratic Party                      Precinct 1                                             01 
03010020002000050DEM       Straight Party                                          Democratic Party                      Precinct 2                                             01 
03010020003000106DEM       Straight Party                                          Democratic Party                      Precinct 3                                             01 
03010020004000167DEM       Straight Party                                          Democratic Party                      Precinct 4                                             01 
03010020005000009DEM       Straight Party                                          Democratic Party                      Precinct 5                                             01 
03010020006000046DEM       Straight Party                                          Democratic Party                      Precinct 6                                             01 
03010020007000006DEM       Straight Party                                          Democratic Party                      Precinct 7                                             01 
03010020008000004DEM       Straight Party                                          Democratic Party                      Precinct 8                                             01 
03010020009000068DEM       Straight Party                                          Democratic Party                      Precinct 9                                             01 
03010030001000008LIB       Straight Party                                          Libertarian Party                     Precinct 1                                             01 
03010030002000003LIB       Straight Party                                          Libertarian Party                     Precinct 2                                             01 
03010030003000003LIB       Straight Party                                          Libertarian Party                     Precinct 3                                             01 
03010030004000003LIB       Straight Party                                          Libertarian Party                     Precinct 4                                             01 
03010030005000001LIB       Straight Party                                          Libertarian Party                     Precinct 5                                             01 
03010030006000003LIB       Straight Party                                          Libertarian Party                     Precinct 6                                             01 
03010030007000002LIB       Straight Party                                          Libertarian Party                     Precinct 7                                             01 
03010030008000000LIB       Straight Party                                          Libertarian Party                     Precinct 8                                             01 
03010030009000001LIB       Straight Party                                          Libertarian Party                     Precinct 9                                             01 
03010040001000000          Straight Party                                          OVER VOTES                            Precinct 1                                             01 
03010040002000000          Straight Party                                          OVER VOTES                            Precinct 2                                             01 
03010040003000000          Straight Party                                          OVER VOTES                            Precinct 3                                             01 
03010040004000001          Straight Party                                          OVER VOTES                            Precinct 4                                             01 
03010040005000000          Straight Party                                          OVER VOTES                            Precinct 5                                             01 
03010040006000000          Straight Party                                          OVER VOTES                            Precinct 6                                             01 
03010040007000000          Straight Party                                          OVER VOTES                            Precinct 7                                             01 
03010040008000000          Straight Party                                          OVER VOTES                            Precinct 8                                             01 
03010040009000001          Straight Party                                          OVER VOTES                            Precinct 9                                             01 
03010050001000179          Straight Party                                          UNDER VOTES                           Precinct 1                                             01 
03010050002000244          Straight Party                                          UNDER VOTES                           Precinct 2                                             01 
03010050003000280          Straight Party                                          UNDER VOTES                           Precinct 3                                             01 
03010050004000194          Straight Party                                          UNDER VOTES                           Precinct 4                                             01 
03010050005000053          Straight Party                                          UNDER VOTES                           Precinct 5                                             01 
03010050006000262          Straight Party                                          UNDER VOTES                           Precinct 6                                             01 
03010050007000074          Straight Party                                          UNDER VOTES                           Precinct 7                                             01 
03010050008000048          Straight Party                                          UNDER VOTES                           Precinct 8                                             01 
03010050009000312          Straight Party                                          UNDER VOTES                           Precinct 9                                             01 
03020010001000328REP       U.S. Senator                                            Ted Cruz                              Precinct 1                                             01 
03020010002000489REP       U.S. Senator                                            Ted Cruz                              Precinct 2                                             01 
03020010003000524REP       U.S. Senator                                            Ted Cruz                              Precinct 3                                             01 
03020010004000351REP       U.S. Senator                                            Ted Cruz                              Precinct 4                                             01 
03020010005000078REP       U.S. Senator                                            Ted Cruz                              Precinct 5                                             01 
03020010006000442REP       U.S. Senator                                            Ted Cruz                              Precinct 6                                             01 
03020010007000168REP       U.S. Senator                                            Ted Cruz                              Precinct 7                                             01 
03020010008000097REP       U.S. Senator                                            Ted Cruz                              Precinct 8                                             01 
03020010009000643REP       U.S. Senator                                            Ted Cruz                              Precinct 9                                             01 
03020020001000122DEM       U.S. Senator                                            Beto O'Rourke                         Precinct 1                                             01 
03020020002000101DEM       U.S. Senator                                            Beto O'Rourke                         Precinct 2                                             01 
03020020003000187DEM       U.S. Senator                                            Beto O'Rourke                         Precinct 3                                             01 
03020020004000246DEM       U.S. Senator                                            Beto O'Rourke                         Precinct 4                                             01 
03020020005000025DEM       U.S. Senator                                            Beto O'Rourke                         Precinct 5                                             01 
03020020006000089DEM       U.S. Senator                                            Beto O'Rourke                         Precinct 6                                             01 
03020020007000009DEM       U.S. Senator                                            Beto O'Rourke                         Precinct 7                                             01 
03020020008000014DEM       U.S. Senator                                            Beto O'Rourke                         Precinct 8                                             01 
03020020009000135DEM       U.S. Senator                                            Beto O'Rourke                         Precinct 9                                             01 
03020030001000006LIB       U.S. Senator                                            Neal M. Dikeman                       Precinct 1                                             01 
03020030002000001LIB       U.S. Senator                                            Neal M. Dikeman                       Precinct 2                                             01 
03020030003000004LIB       U.S. Senator                                            Neal M. Dikeman                       Precinct 3                                             01 
03020030004000003LIB       U.S. Senator                                            Neal M. Dikeman                       Precinct 4                                             01 
03020030005000001LIB       U.S. Senator                                            Neal M. Dikeman                       Precinct 5                                             01 
03020030006000004LIB       U.S. Senator                                            Neal M. Dikeman                       Precinct 6                                             01 
03020030007000001LIB       U.S. Senator                                            Neal M. Dikeman                       Precinct 7                                             01 
03020030008000000LIB       U.S. Senator                                            Neal M. Dikeman                       Precinct 8                                             01 
03020030009000006LIB       U.S. Senator                                            Neal M. Dikeman                       Precinct 9                                             01 
03020040001000000          U.S. Senator                                            OVER VOTES                            Precinct 1                                             01 
03020040002000000          U.S. Senator                                            OVER VOTES                            Precinct 2                                             01 
03020040003000000          U.S. Senator                                            OVER VOTES                            Precinct 3                                             01 
03020040004000000          U.S. Senator                                            OVER VOTES                            Precinct 4                                             01 
03020040005000000          U.S. Senator                                            OVER VOTES                            Precinct 5                                             01 
03020040006000000          U.S. Senator                                            OVER VOTES                            Precinct 6                                             01 
03020040007000000          U.S. Senator                                            OVER VOTES                            Precinct 7                                             01 
03020040008000000          U.S. Senator                                            OVER VOTES                            Precinct 8                                             01 
03020040009000000          U.S. Senator                                            OVER VOTES                            Precinct 9                                             01 
03020050001000000          U.S. Senator                                            UNDER VOTES                           Precinct 1                                             01 
03020050002000001          U.S. Senator                                            UNDER VOTES                           Precinct 2                                             01 
03020050003000003          U.S. Senator                                            UNDER VOTES                           Precinct 3                                             01 
03020050004000007          U.S. Senator                                            UNDER VOTES                           Precinct 4                                             01 
03020050005000000          U.S. Senator                                            UNDER VOTES                           Precinct 5                                             01 
03020050006000002          U.S. Senator                                            UNDER VOTES                           Precinct 6                                             01 
03020050007000001          U.S. Senator                                            UNDER VOTES                           Precinct 7                                             01 
03020050008000001          U.S. Senator                                            UNDER VOTES                           Precinct 8                                             01 
03020050009000003          U.S. Senator                                            UNDER VOTES                           Precinct 9                                             01 
03030010001000341REP       U.S. Rep, District 19                                   Jodey Arrington                       Precinct 1                                             01 
03030010002000514REP       U.S. Rep, District 19                                   Jodey Arrington                       Precinct 2                                             01 
03030010003000536REP       U.S. Rep, District 19                                   Jodey Arrington                       Precinct 3                                             01 
03030010004000360REP       U.S. Rep, District 19                                   Jodey Arrington                       Precinct 4                                             01 
03030010005000084REP       U.S. Rep, District 19                                   Jodey Arrington                       Precinct 5                                             01 
03030010006000454REP       U.S. Rep, District 19                                   Jodey Arrington                       Precinct 6                                             01 
03030010007000166REP       U.S. Rep, District 19                                   Jodey Arrington                       Precinct 7                                             01 
03030010008000102REP       U.S. Rep, District 19                                   Jodey Arrington                       Precinct 8                                             01 
03030010009000666REP       U.S. Rep, District 19                                   Jodey Arrington                       Precinct 9                                             01 
03030020001000112DEM       U.S. Rep, District 19                                   Miguel Levario                        Precinct 1                                             01 
03030020002000075DEM       U.S. Rep, District 19                                   Miguel Levario                        Precinct 2                                             01 
03030020003000170DEM       U.S. Rep, District 19                                   Miguel Levario                        Precinct 3                                             01 
03030020004000230DEM       U.S. Rep, District 19                                   Miguel Levario                        Precinct 4                                             01 
03030020005000018DEM       U.S. Rep, District 19                                   Miguel Levario                        Precinct 5                                             01 
03030020006000077DEM       U.S. Rep, District 19                                   Miguel Levario                        Precinct 6                                             01 
03030020007000008DEM       U.S. Rep, District 19                                   Miguel Levario                        Precinct 7                                             01 
03030020008000010DEM       U.S. Rep, District 19                                   Miguel Levario                        Precinct 8                                             01 
03030020009000108DEM       U.S. Rep, District 19                                   Miguel Levario                        Precinct 9                                             01 
03030030001000001          U.S. Rep, District 19                                   OVER VOTES                            Precinct 1                                             01 
03030030002000000          U.S. Rep, District 19                                   OVER VOTES                            Precinct 2                                             01 
03030030003000000          U.S. Rep, District 19                                   OVER VOTES                            Precinct 3                                             01 
03030030004000000          U.S. Rep, District 19                                   OVER VOTES                            Precinct 4                                             01 
03030030005000000          U.S. Rep, District 19                                   OVER VOTES                            Precinct 5                                             01 
03030030006000000          U.S. Rep, District 19                                   OVER VOTES                            Precinct 6                                             01 
03030030007000000          U.S. Rep, District 19                                   OVER VOTES                            Precinct 7                                             01 
03030030008000000          U.S. Rep, District 19                                   OVER VOTES                            Precinct 8                                             01 
03030030009000000          U.S. Rep, District 19                                   OVER VOTES                            Precinct 9                                             01 
03030040001000002          U.S. Rep, District 19                                   UNDER VOTES                           Precinct 1                                             01 
03030040002000003          U.S. Rep, District 19                                   UNDER VOTES                           Precinct 2                                             01 
03030040003000012          U.S. Rep, District 19                                   UNDER VOTES                           Precinct 3                                             01 
03030040004000017          U.S. Rep, District 19                                   UNDER VOTES                           Precinct 4                                             01 
03030040005000002          U.S. Rep, District 19                                   UNDER VOTES                           Precinct 5                                             01 
03030040006000006          U.S. Rep, District 19                                   UNDER VOTES                           Precinct 6                                             01 
03030040007000005          U.S. Rep, District 19                                   UNDER VOTES                           Precinct 7                                             01 
03030040008000000          U.S. Rep, District 19                                   UNDER VOTES                           Precinct 8                                             01 
03030040009000013          U.S. Rep, District 19                                   UNDER VOTES                           Precinct 9                                             01 
03040010001000341REP       Governor                                                Greg Abbott                           Precinct 1                                             01 
03040010002000499REP       Governor                                                Greg Abbott                           Precinct 2                                             01 
03040010003000542REP       Governor                                                Greg Abbott                           Precinct 3                                             01 
03040010004000369REP       Governor                                                Greg Abbott                           Precinct 4                                             01 
03040010005000083REP       Governor                                                Greg Abbott                           Precinct 5                                             01 
03040010006000449REP       Governor                                                Greg Abbott                           Precinct 6                                             01 
03040010007000161REP       Governor                                                Greg Abbott                           Precinct 7                                             01 
03040010008000103REP       Governor                                                Greg Abbott                           Precinct 8                                             01 
03040010009000653REP       Governor                                                Greg Abbott                           Precinct 9                                             01 
03040020001000106DEM       Governor                                                Lupe Valdez                           Precinct 1                                             01 
03040020002000085DEM       Governor                                                Lupe Valdez                           Precinct 2                                             01 
03040020003000166DEM       Governor                                                Lupe Valdez                           Precinct 3                                             01 
03040020004000224DEM       Governor                                                Lupe Valdez                           Precinct 4                                             01 
03040020005000019DEM       Governor                                                Lupe Valdez                           Precinct 5                                             01 
03040020006000076DEM       Governor                                                Lupe Valdez                           Precinct 6                                             01 
03040020007000013DEM       Governor                                                Lupe Valdez                           Precinct 7                                             01 
03040020008000009DEM       Governor                                                Lupe Valdez                           Precinct 8                                             01 
03040020009000109DEM       Governor                                                Lupe Valdez                           Precinct 9                                             01 
03040030001000008LIB       Governor                                                Mark Jay Tippetts                     Precinct 1                                             01 
03040030002000003LIB       Governor                                                Mark Jay Tippetts                     Precinct 2                                             01 
03040030003000007LIB       Governor                                                Mark Jay Tippetts                     Precinct 3                                             01 
03040030004000004LIB       Governor                                                Mark Jay Tippetts                     Precinct 4                                             01 
03040030005000001LIB       Governor                                                Mark Jay Tippetts                     Precinct 5                                             01 
03040030006000008LIB       Governor                                                Mark Jay Tippetts                     Precinct 6                                             01 
03040030007000003LIB       Governor                                                Mark Jay Tippetts                     Precinct 7                                             01 
03040030008000000LIB       Governor                                                Mark Jay Tippetts                     Precinct 8                                             01 
03040030009000017LIB       Governor                                                Mark Jay Tippetts                     Precinct 9                                             01 
03040040001000000          Governor                                                OVER VOTES                            Precinct 1                                             01 
03040040002000001          Governor                                                OVER VOTES                            Precinct 2                                             01 
03040040003000000          Governor                                                OVER VOTES                            Precinct 3                                             01 
03040040004000001          Governor                                                OVER VOTES                            Precinct 4                                             01 
03040040005000000          Governor                                                OVER VOTES                            Precinct 5                                             01 
03040040006000001          Governor                                                OVER VOTES                            Precinct 6                                             01 
03040040007000000          Governor                                                OVER VOTES                            Precinct 7                                             01 
03040040008000000          Governor                                                OVER VOTES                            Precinct 8                                             01 
03040040009000000          Governor                                                OVER VOTES                            Precinct 9                                             01 
03040050001000001          Governor                                                UNDER VOTES                           Precinct 1                                             01 
03040050002000004          Governor                                                UNDER VOTES                           Precinct 2                                             01 
03040050003000003          Governor                                                UNDER VOTES                           Precinct 3                                             01 
03040050004000009          Governor                                                UNDER VOTES                           Precinct 4                                             01 
03040050005000001          Governor                                                UNDER VOTES                           Precinct 5                                             01 
03040050006000003          Governor                                                UNDER VOTES                           Precinct 6                                             01 
03040050007000002          Governor                                                UNDER VOTES                           Precinct 7                                             01 
03040050008000000          Governor                                                UNDER VOTES                           Precinct 8                                             01 
03040050009000008          Governor                                                UNDER VOTES                           Precinct 9                                             01 
03050010001000319REP       Lieutenant Governor                                     Dan Patrick                           Precinct 1                                             01 
03050010002000460REP       Lieutenant Governor                                     Dan Patrick                           Precinct 2                                             01 
03050010003000493REP       Lieutenant Governor                                     Dan Patrick                           Precinct 3                                             01 
03050010004000349REP       Lieutenant Governor                                     Dan Patrick                           Precinct 4                                             01 
03050010005000068REP       Lieutenant Governor                                     Dan Patrick                           Precinct 5                                             01 
03050010006000375REP       Lieutenant Governor                                     Dan Patrick                           Precinct 6                                             01 
03050010007000132REP       Lieutenant Governor                                     Dan Patrick                           Precinct 7                                             01 
03050010008000099REP       Lieutenant Governor                                     Dan Patrick                           Precinct 8                                             01 
03050010009000603REP       Lieutenant Governor                                     Dan Patrick                           Precinct 9                                             01 
03050020001000126DEM       Lieutenant Governor                                     Mike Collier                          Precinct 1                                             01 
03050020002000116DEM       Lieutenant Governor                                     Mike Collier                          Precinct 2                                             01 
03050020003000205DEM       Lieutenant Governor                                     Mike Collier                          Precinct 3                                             01 
03050020004000232DEM       Lieutenant Governor                                     Mike Collier                          Precinct 4                                             01 
03050020005000030DEM       Lieutenant Governor                                     Mike Collier                          Precinct 5                                             01 
03050020006000146DEM       Lieutenant Governor                                     Mike Collier                          Precinct 6                                             01 
03050020007000039DEM       Lieutenant Governor                                     Mike Collier                          Precinct 7                                             01 
03050020008000012DEM       Lieutenant Governor                                     Mike Collier                          Precinct 8                                             01 
03050020009000154DEM       Lieutenant Governor                                     Mike Collier                          Precinct 9                                             01 
03050030001000009LIB       Lieutenant Governor                                     Kerry Douglas McKennon                Precinct 1                                             01 
03050030002000009LIB       Lieutenant Governor                                     Kerry Douglas McKennon                Precinct 2                                             01 
03050030003000013LIB       Lieutenant Governor                                     Kerry Douglas McKennon                Precinct 3                                             01 
03050030004000011LIB       Lieutenant Governor                                     Kerry Douglas McKennon                Precinct 4                                             01 
03050030005000004LIB       Lieutenant Governor                                     Kerry Douglas McKennon                Precinct 5                                             01 
03050030006000013LIB       Lieutenant Governor                                     Kerry Douglas McKennon                Precinct 6                                             01 
03050030007000005LIB       Lieutenant Governor                                     Kerry Douglas McKennon                Precinct 7                                             01 
03050030008000001LIB       Lieutenant Governor                                     Kerry Douglas McKennon                Precinct 8                                             01 
03050030009000018LIB       Lieutenant Governor                                     Kerry Douglas McKennon                Precinct 9                                             01 
03050040001000000          Lieutenant Governor                                     OVER VOTES                            Precinct 1                                             01 
03050040002000000          Lieutenant Governor                                     OVER VOTES                            Precinct 2                                             01 
03050040003000000          Lieutenant Governor                                     OVER VOTES                            Precinct 3                                             01 
03050040004000000          Lieutenant Governor                                     OVER VOTES                            Precinct 4                                             01 
03050040005000000          Lieutenant Governor                                     OVER VOTES                            Precinct 5                                             01 
03050040006000000          Lieutenant Governor                                     OVER VOTES                            Precinct 6                                             01 
03050040007000000          Lieutenant Governor                                     OVER VOTES                            Precinct 7                                             01 
03050040008000000          Lieutenant Governor                                     OVER VOTES                            Precinct 8                                             01 
03050040009000000          Lieutenant Governor                                     OVER VOTES                            Precinct 9                                             01 
03050050001000002          Lieutenant Governor                                     UNDER VOTES                           Precinct 1                                             01 
03050050002000007          Lieutenant Governor                                     UNDER VOTES                           Precinct 2                                             01 
03050050003000007          Lieutenant Governor                                     UNDER VOTES                           Precinct 3                                             01 
03050050004000015          Lieutenant Governor                                     UNDER VOTES                           Precinct 4                                             01 
03050050005000002          Lieutenant Governor                                     UNDER VOTES                           Precinct 5                                             01 
03050050006000003          Lieutenant Governor                                     UNDER VOTES                           Precinct 6                                             01 
03050050007000003          Lieutenant Governor                                     UNDER VOTES                           Precinct 7                                             01 
03050050008000000          Lieutenant Governor                                     UNDER VOTES                           Precinct 8                                             01 
03050050009000012          Lieutenant Governor                                     UNDER VOTES                           Precinct 9                                             01 
03060010001000311REP       Attorney General                                        Ken Paxton                            Precinct 1                                             01 
03060010002000476REP       Attorney General                                        Ken Paxton                            Precinct 2                                             01 
03060010003000494REP       Attorney General                                        Ken Paxton                            Precinct 3                                             01 
03060010004000346REP       Attorney General                                        Ken Paxton                            Precinct 4                                             01 
03060010005000081REP       Attorney General                                        Ken Paxton                            Precinct 5                                             01 
03060010006000414REP       Attorney General                                        Ken Paxton                            Precinct 6                                             01 
03060010007000155REP       Attorney General                                        Ken Paxton                            Precinct 7                                             01 
03060010008000098REP       Attorney General                                        Ken Paxton                            Precinct 8                                             01 
03060010009000614REP       Attorney General                                        Ken Paxton                            Precinct 9                                             01 
03060020001000128DEM       Attorney General                                        Justin Nelson                         Precinct 1                                             01 
03060020002000104DEM       Attorney General                                        Justin Nelson                         Precinct 2                                             01 
03060020003000197DEM       Attorney General                                        Justin Nelson                         Precinct 3                                             01 
03060020004000235DEM       Attorney General                                        Justin Nelson                         Precinct 4                                             01 
03060020005000020DEM       Attorney General                                        Justin Nelson                         Precinct 5                                             01 
03060020006000108DEM       Attorney General                                        Justin Nelson                         Precinct 6                                             01 
03060020007000013DEM       Attorney General                                        Justin Nelson                         Precinct 7                                             01 
03060020008000013DEM       Attorney General                                        Justin Nelson                         Precinct 8                                             01 
03060020009000140DEM       Attorney General                                        Justin Nelson                         Precinct 9                                             01 
03060030001000012LIB       Attorney General                                        Michael Ray Harris                    Precinct 1                                             01 
03060030002000004LIB       Attorney General                                        Michael Ray Harris                    Precinct 2                                             01 
03060030003000018LIB       Attorney General                                        Michael Ray Harris                    Precinct 3                                             01 
03060030004000009LIB       Attorney General                                        Michael Ray Harris                    Precinct 4                                             01 
03060030005000002LIB       Attorney General                                        Michael Ray Harris                    Precinct 5                                             01 
03060030006000008LIB       Attorney General                                        Michael Ray Harris                    Precinct 6                                             01 
03060030007000005LIB       Attorney General                                        Michael Ray Harris                    Precinct 7                                             01 
03060030008000000LIB       Attorney General                                        Michael Ray Harris                    Precinct 8                                             01 
03060030009000021LIB       Attorney General                                        Michael Ray Harris                    Precinct 9                                             01 
03060040001000000          Attorney General                                        OVER VOTES                            Precinct 1                                             01 
03060040002000000          Attorney General                                        OVER VOTES                            Precinct 2                                             01 
03060040003000000          Attorney General                                        OVER VOTES                            Precinct 3                                             01 
03060040004000000          Attorney General                                        OVER VOTES                            Precinct 4                                             01 
03060040005000000          Attorney General                                        OVER VOTES                            Precinct 5                                             01 
03060040006000000          Attorney General                                        OVER VOTES                            Precinct 6                                             01 
03060040007000000          Attorney General                                        OVER VOTES                            Precinct 7                                             01 
03060040008000000          Attorney General                                        OVER VOTES                            Precinct 8                                             01 
03060040009000000          Attorney General                                        OVER VOTES                            Precinct 9                                             01 
03060050001000005          Attorney General                                        UNDER VOTES                           Precinct 1                                             01 
03060050002000008          Attorney General                                        UNDER VOTES                           Precinct 2                                             01 
03060050003000009          Attorney General                                        UNDER VOTES                           Precinct 3                                             01 
03060050004000017          Attorney General                                        UNDER VOTES                           Precinct 4                                             01 
03060050005000001          Attorney General                                        UNDER VOTES                           Precinct 5                                             01 
03060050006000007          Attorney General                                        UNDER VOTES                           Precinct 6                                             01 
03060050007000006          Attorney General                                        UNDER VOTES                           Precinct 7                                             01 
03060050008000001          Attorney General                                        UNDER VOTES                           Precinct 8                                             01 
03060050009000012          Attorney General                                        UNDER VOTES                           Precinct 9                                             01 
03070010001000327REP       Comptroller of Public Accounts                          Glenn Hegar                           Precinct 1                                             01 
03070010002000489REP       Comptroller of Public Accounts                          Glenn Hegar                           Precinct 2                                             01 
03070010003000516REP       Comptroller of Public Accounts                          Glenn Hegar                           Precinct 3                                             01 
03070010004000348REP       Comptroller of Public Accounts                          Glenn Hegar                           Precinct 4                                             01 
03070010005000080REP       Comptroller of Public Accounts                          Glenn Hegar                           Precinct 5                                             01 
03070010006000434REP       Comptroller of Public Accounts                          Glenn Hegar                           Precinct 6                                             01 
03070010007000156REP       Comptroller of Public Accounts                          Glenn Hegar                           Precinct 7                                             01 
03070010008000100REP       Comptroller of Public Accounts                          Glenn Hegar                           Precinct 8                                             01 
03070010009000638REP       Comptroller of Public Accounts                          Glenn Hegar                           Precinct 9                                             01 
03070020001000102DEM       Comptroller of Public Accounts                          Joi Chevalier                         Precinct 1                                             01 
03070020002000083DEM       Comptroller of Public Accounts                          Joi Chevalier                         Precinct 2                                             01 
03070020003000173DEM       Comptroller of Public Accounts                          Joi Chevalier                         Precinct 3                                             01 
03070020004000221DEM       Comptroller of Public Accounts                          Joi Chevalier                         Precinct 4                                             01 
03070020005000019DEM       Comptroller of Public Accounts                          Joi Chevalier                         Precinct 5                                             01 
03070020006000078DEM       Comptroller of Public Accounts                          Joi Chevalier                         Precinct 6                                             01 
03070020007000008DEM       Comptroller of Public Accounts                          Joi Chevalier                         Precinct 7                                             01 
03070020008000009DEM       Comptroller of Public Accounts                          Joi Chevalier                         Precinct 8                                             01 
03070020009000107DEM       Comptroller of Public Accounts                          Joi Chevalier                         Precinct 9                                             01 
03070030001000020LIB       Comptroller of Public Accounts                          Ben Sanders                           Precinct 1                                             01 
03070030002000008LIB       Comptroller of Public Accounts                          Ben Sanders                           Precinct 2                                             01 
03070030003000012LIB       Comptroller of Public Accounts                          Ben Sanders                           Precinct 3                                             01 
03070030004000020LIB       Comptroller of Public Accounts                          Ben Sanders                           Precinct 4                                             01 
03070030005000002LIB       Comptroller of Public Accounts                          Ben Sanders                           Precinct 5                                             01 
03070030006000016LIB       Comptroller of Public Accounts                          Ben Sanders                           Precinct 6                                             01 
03070030007000005LIB       Comptroller of Public Accounts                          Ben Sanders                           Precinct 7                                             01 
03070030008000001LIB       Comptroller of Public Accounts                          Ben Sanders                           Precinct 8                                             01 
03070030009000019LIB       Comptroller of Public Accounts                          Ben Sanders                           Precinct 9                                             01 
03070040001000000          Comptroller of Public Accounts                          OVER VOTES                            Precinct 1                                             01 
03070040002000000          Comptroller of Public Accounts                          OVER VOTES                            Precinct 2                                             01 
03070040003000000          Comptroller of Public Accounts                          OVER VOTES                            Precinct 3                                             01 
03070040004000000          Comptroller of Public Accounts                          OVER VOTES                            Precinct 4                                             01 
03070040005000000          Comptroller of Public Accounts                          OVER VOTES                            Precinct 5                                             01 
03070040006000000          Comptroller of Public Accounts                          OVER VOTES                            Precinct 6                                             01 
03070040007000000          Comptroller of Public Accounts                          OVER VOTES                            Precinct 7                                             01 
03070040008000000          Comptroller of Public Accounts                          OVER VOTES                            Precinct 8                                             01 
03070040009000000          Comptroller of Public Accounts                          OVER VOTES                            Precinct 9                                             01 
03070050001000007          Comptroller of Public Accounts                          UNDER VOTES                           Precinct 1                                             01 
03070050002000012          Comptroller of Public Accounts                          UNDER VOTES                           Precinct 2                                             01 
03070050003000017          Comptroller of Public Accounts                          UNDER VOTES                           Precinct 3                                             01 
03070050004000018          Comptroller of Public Accounts                          UNDER VOTES                           Precinct 4                                             01 
03070050005000003          Comptroller of Public Accounts                          UNDER VOTES                           Precinct 5                                             01 
03070050006000009          Comptroller of Public Accounts                          UNDER VOTES                           Precinct 6                                             01 
03070050007000010          Comptroller of Public Accounts                          UNDER VOTES                           Precinct 7                                             01 
03070050008000002          Comptroller of Public Accounts                          UNDER VOTES                           Precinct 8                                             01 
03070050009000023          Comptroller of Public Accounts                          UNDER VOTES                           Precinct 9                                             01 
03080010001000318REP       Comm of the General Land Office                         George P. Bush                        Precinct 1                                             01 
03080010002000490REP       Comm of the General Land Office                         George P. Bush                        Precinct 2                                             01 
03080010003000513REP       Comm of the General Land Office                         George P. Bush                        Precinct 3                                             01 
03080010004000357REP       Comm of the General Land Office                         George P. Bush                        Precinct 4                                             01 
03080010005000081REP       Comm of the General Land Office                         George P. Bush                        Precinct 5                                             01 
03080010006000420REP       Comm of the General Land Office                         George P. Bush                        Precinct 6                                             01 
03080010007000144REP       Comm of the General Land Office                         George P. Bush                        Precinct 7                                             01 
03080010008000095REP       Comm of the General Land Office                         George P. Bush                        Precinct 8                                             01 
03080010009000637REP       Comm of the General Land Office                         George P. Bush                        Precinct 9                                             01 
03080020001000110DEM       Comm of the General Land Office                         Miguel Suazo                          Precinct 1                                             01 
03080020002000084DEM       Comm of the General Land Office                         Miguel Suazo                          Precinct 2                                             01 
03080020003000171DEM       Comm of the General Land Office                         Miguel Suazo                          Precinct 3                                             01 
03080020004000215DEM       Comm of the General Land Office                         Miguel Suazo                          Precinct 4                                             01 
03080020005000017DEM       Comm of the General Land Office                         Miguel Suazo                          Precinct 5                                             01 
03080020006000082DEM       Comm of the General Land Office                         Miguel Suazo                          Precinct 6                                             01 
03080020007000014DEM       Comm of the General Land Office                         Miguel Suazo                          Precinct 7                                             01 
03080020008000008DEM       Comm of the General Land Office                         Miguel Suazo                          Precinct 8                                             01 
03080020009000109DEM       Comm of the General Land Office                         Miguel Suazo                          Precinct 9                                             01 
03080030001000024LIB       Comm of the General Land Office                         Matt Pina                             Precinct 1                                             01 
03080030002000011LIB       Comm of the General Land Office                         Matt Pina                             Precinct 2                                             01 
03080030003000024LIB       Comm of the General Land Office                         Matt Pina                             Precinct 3                                             01 
03080030004000019LIB       Comm of the General Land Office                         Matt Pina                             Precinct 4                                             01 
03080030005000001LIB       Comm of the General Land Office                         Matt Pina                             Precinct 5                                             01 
03080030006000026LIB       Comm of the General Land Office                         Matt Pina                             Precinct 6                                             01 
03080030007000013LIB       Comm of the General Land Office                         Matt Pina                             Precinct 7                                             01 
03080030008000004LIB       Comm of the General Land Office                         Matt Pina                             Precinct 8                                             01 
03080030009000024LIB       Comm of the General Land Office                         Matt Pina                             Precinct 9                                             01 
03080040001000000          Comm of the General Land Office                         OVER VOTES                            Precinct 1                                             01 
03080040002000000          Comm of the General Land Office                         OVER VOTES                            Precinct 2                                             01 
03080040003000000          Comm of the General Land Office                         OVER VOTES                            Precinct 3                                             01 
03080040004000000          Comm of the General Land Office                         OVER VOTES                            Precinct 4                                             01 
03080040005000000          Comm of the General Land Office                         OVER VOTES                            Precinct 5                                             01 
03080040006000000          Comm of the General Land Office                         OVER VOTES                            Precinct 6                                             01 
03080040007000000          Comm of the General Land Office                         OVER VOTES                            Precinct 7                                             01 
03080040008000000          Comm of the General Land Office                         OVER VOTES                            Precinct 8                                             01 
03080040009000000          Comm of the General Land Office                         OVER VOTES                            Precinct 9                                             01 
03080050001000004          Comm of the General Land Office                         UNDER VOTES                           Precinct 1                                             01 
03080050002000007          Comm of the General Land Office                         UNDER VOTES                           Precinct 2                                             01 
03080050003000010          Comm of the General Land Office                         UNDER VOTES                           Precinct 3                                             01 
03080050004000016          Comm of the General Land Office                         UNDER VOTES                           Precinct 4                                             01 
03080050005000005          Comm of the General Land Office                         UNDER VOTES                           Precinct 5                                             01 
03080050006000009          Comm of the General Land Office                         UNDER VOTES                           Precinct 6                                             01 
03080050007000008          Comm of the General Land Office                         UNDER VOTES                           Precinct 7                                             01 
03080050008000005          Comm of the General Land Office                         UNDER VOTES                           Precinct 8                                             01 
03080050009000017          Comm of the General Land Office                         UNDER VOTES                           Precinct 9                                             01 
03090010001000323REP       Commissioner of Agriculture                             Sid Miller                            Precinct 1                                             01 
03090010002000485REP       Commissioner of Agriculture                             Sid Miller                            Precinct 2                                             01 
03090010003000509REP       Commissioner of Agriculture                             Sid Miller                            Precinct 3                                             01 
03090010004000347REP       Commissioner of Agriculture                             Sid Miller                            Precinct 4                                             01 
03090010005000082REP       Commissioner of Agriculture                             Sid Miller                            Precinct 5                                             01 
03090010006000418REP       Commissioner of Agriculture                             Sid Miller                            Precinct 6                                             01 
03090010007000160REP       Commissioner of Agriculture                             Sid Miller                            Precinct 7                                             01 
03090010008000099REP       Commissioner of Agriculture                             Sid Miller                            Precinct 8                                             01 
03090010009000609REP       Commissioner of Agriculture                             Sid Miller                            Precinct 9                                             01 
03090020001000111DEM       Commissioner of Agriculture                             Kim Olson                             Precinct 1                                             01 
03090020002000095DEM       Commissioner of Agriculture                             Kim Olson                             Precinct 2                                             01 
03090020003000179DEM       Commissioner of Agriculture                             Kim Olson                             Precinct 3                                             01 
03090020004000232DEM       Commissioner of Agriculture                             Kim Olson                             Precinct 4                                             01 
03090020005000020DEM       Commissioner of Agriculture                             Kim Olson                             Precinct 5                                             01 
03090020006000102DEM       Commissioner of Agriculture                             Kim Olson                             Precinct 6                                             01 
03090020007000008DEM       Commissioner of Agriculture                             Kim Olson                             Precinct 7                                             01 
03090020008000010DEM       Commissioner of Agriculture                             Kim Olson                             Precinct 8                                             01 
03090020009000139DEM       Commissioner of Agriculture                             Kim Olson                             Precinct 9                                             01 
03090030001000016LIB       Commissioner of Agriculture                             Richard Carpenter                     Precinct 1                                             01 
03090030002000005LIB       Commissioner of Agriculture                             Richard Carpenter                     Precinct 2                                             01 
03090030003000020LIB       Commissioner of Agriculture                             Richard Carpenter                     Precinct 3                                             01 
03090030004000009LIB       Commissioner of Agriculture                             Richard Carpenter                     Precinct 4                                             01 
03090030005000002LIB       Commissioner of Agriculture                             Richard Carpenter                     Precinct 5                                             01 
03090030006000011LIB       Commissioner of Agriculture                             Richard Carpenter                     Precinct 6                                             01 
03090030007000003LIB       Commissioner of Agriculture                             Richard Carpenter                     Precinct 7                                             01 
03090030008000002LIB       Commissioner of Agriculture                             Richard Carpenter                     Precinct 8                                             01 
03090030009000017LIB       Commissioner of Agriculture                             Richard Carpenter                     Precinct 9                                             01 
03090040001000000          Commissioner of Agriculture                             OVER VOTES                            Precinct 1                                             01 
03090040002000000          Commissioner of Agriculture                             OVER VOTES                            Precinct 2                                             01 
03090040003000000          Commissioner of Agriculture                             OVER VOTES                            Precinct 3                                             01 
03090040004000000          Commissioner of Agriculture                             OVER VOTES                            Precinct 4                                             01 
03090040005000000          Commissioner of Agriculture                             OVER VOTES                            Precinct 5                                             01 
03090040006000000          Commissioner of Agriculture                             OVER VOTES                            Precinct 6                                             01 
03090040007000000          Commissioner of Agriculture                             OVER VOTES                            Precinct 7                                             01 
03090040008000000          Commissioner of Agriculture                             OVER VOTES                            Precinct 8                                             01 
03090040009000000          Commissioner of Agriculture                             OVER VOTES                            Precinct 9                                             01 
03090050001000006          Commissioner of Agriculture                             UNDER VOTES                           Precinct 1                                             01 
03090050002000007          Commissioner of Agriculture                             UNDER VOTES                           Precinct 2                                             01 
03090050003000010          Commissioner of Agriculture                             UNDER VOTES                           Precinct 3                                             01 
03090050004000019          Commissioner of Agriculture                             UNDER VOTES                           Precinct 4                                             01 
03090050005000000          Commissioner of Agriculture                             UNDER VOTES                           Precinct 5                                             01 
03090050006000006          Commissioner of Agriculture                             UNDER VOTES                           Precinct 6                                             01 
03090050007000008          Commissioner of Agriculture                             UNDER VOTES                           Precinct 7                                             01 
03090050008000001          Commissioner of Agriculture                             UNDER VOTES                           Precinct 8                                             01 
03090050009000022          Commissioner of Agriculture                             UNDER VOTES                           Precinct 9                                             01 
03100010001000328REP       Railroad Commissioner                                   Christi Craddick                      Precinct 1                                             01 
03100010002000494REP       Railroad Commissioner                                   Christi Craddick                      Precinct 2                                             01 
03100010003000516REP       Railroad Commissioner                                   Christi Craddick                      Precinct 3                                             01 
03100010004000347REP       Railroad Commissioner                                   Christi Craddick                      Precinct 4                                             01 
03100010005000078REP       Railroad Commissioner                                   Christi Craddick                      Precinct 5                                             01 
03100010006000415REP       Railroad Commissioner                                   Christi Craddick                      Precinct 6                                             01 
03100010007000160REP       Railroad Commissioner                                   Christi Craddick                      Precinct 7                                             01 
03100010008000098REP       Railroad Commissioner                                   Christi Craddick                      Precinct 8                                             01 
03100010009000632REP       Railroad Commissioner                                   Christi Craddick                      Precinct 9                                             01 
03100020001000108DEM       Railroad Commissioner                                   Roman McAllen                         Precinct 1                                             01 
03100020002000080DEM       Railroad Commissioner                                   Roman McAllen                         Precinct 2                                             01 
03100020003000168DEM       Railroad Commissioner                                   Roman McAllen                         Precinct 3                                             01 
03100020004000224DEM       Railroad Commissioner                                   Roman McAllen                         Precinct 4                                             01 
03100020005000021DEM       Railroad Commissioner                                   Roman McAllen                         Precinct 5                                             01 
03100020006000093DEM       Railroad Commissioner                                   Roman McAllen                         Precinct 6                                             01 
03100020007000008DEM       Railroad Commissioner                                   Roman McAllen                         Precinct 7                                             01 
03100020008000012DEM       Railroad Commissioner                                   Roman McAllen                         Precinct 8                                             01 
03100020009000113DEM       Railroad Commissioner                                   Roman McAllen                         Precinct 9                                             01 
03100030001000016LIB       Railroad Commissioner                                   Mike Wright                           Precinct 1                                             01 
03100030002000010LIB       Railroad Commissioner                                   Mike Wright                           Precinct 2                                             01 
03100030003000020LIB       Railroad Commissioner                                   Mike Wright                           Precinct 3                                             01 
03100030004000018LIB       Railroad Commissioner                                   Mike Wright                           Precinct 4                                             01 
03100030005000001LIB       Railroad Commissioner                                   Mike Wright                           Precinct 5                                             01 
03100030006000020LIB       Railroad Commissioner                                   Mike Wright                           Precinct 6                                             01 
03100030007000004LIB       Railroad Commissioner                                   Mike Wright                           Precinct 7                                             01 
03100030008000001LIB       Railroad Commissioner                                   Mike Wright                           Precinct 8                                             01 
03100030009000024LIB       Railroad Commissioner                                   Mike Wright                           Precinct 9                                             01 
03100040001000000          Railroad Commissioner                                   OVER VOTES                            Precinct 1                                             01 
03100040002000000          Railroad Commissioner                                   OVER VOTES                            Precinct 2                                             01 
03100040003000000          Railroad Commissioner                                   OVER VOTES                            Precinct 3                                             01 
03100040004000001          Railroad Commissioner                                   OVER VOTES                            Precinct 4                                             01 
03100040005000000          Railroad Commissioner                                   OVER VOTES                            Precinct 5                                             01 
03100040006000000          Railroad Commissioner                                   OVER VOTES                            Precinct 6                                             01 
03100040007000000          Railroad Commissioner                                   OVER VOTES                            Precinct 7                                             01 
03100040008000000          Railroad Commissioner                                   OVER VOTES                            Precinct 8                                             01 
03100040009000000          Railroad Commissioner                                   OVER VOTES                            Precinct 9                                             01 
03100050001000004          Railroad Commissioner                                   UNDER VOTES                           Precinct 1                                             01 
03100050002000008          Railroad Commissioner                                   UNDER VOTES                           Precinct 2                                             01 
03100050003000014          Railroad Commissioner                                   UNDER VOTES                           Precinct 3                                             01 
03100050004000017          Railroad Commissioner                                   UNDER VOTES                           Precinct 4                                             01 
03100050005000004          Railroad Commissioner                                   UNDER VOTES                           Precinct 5                                             01 
03100050006000009          Railroad Commissioner                                   UNDER VOTES                           Precinct 6                                             01 
03100050007000007          Railroad Commissioner                                   UNDER VOTES                           Precinct 7                                             01 
03100050008000001          Railroad Commissioner                                   UNDER VOTES                           Precinct 8                                             01 
03100050009000018          Railroad Commissioner                                   UNDER VOTES                           Precinct 9                                             01 
03110010001000332REP       Justice, Supreme Ct, Pl2                                Jimmy Blacklock                       Precinct 1                                             01 
03110010002000484REP       Justice, Supreme Ct, Pl2                                Jimmy Blacklock                       Precinct 2                                             01 
03110010003000508REP       Justice, Supreme Ct, Pl2                                Jimmy Blacklock                       Precinct 3                                             01 
03110010004000348REP       Justice, Supreme Ct, Pl2                                Jimmy Blacklock                       Precinct 4                                             01 
03110010005000076REP       Justice, Supreme Ct, Pl2                                Jimmy Blacklock                       Precinct 5                                             01 
03110010006000425REP       Justice, Supreme Ct, Pl2                                Jimmy Blacklock                       Precinct 6                                             01 
03110010007000163REP       Justice, Supreme Ct, Pl2                                Jimmy Blacklock                       Precinct 7                                             01 
03110010008000098REP       Justice, Supreme Ct, Pl2                                Jimmy Blacklock                       Precinct 8                                             01 
03110010009000634REP       Justice, Supreme Ct, Pl2                                Jimmy Blacklock                       Precinct 9                                             01 
03110020001000118DEM       Justice, Supreme Ct, Pl2                                Steven Kirkland                       Precinct 1                                             01 
03110020002000093DEM       Justice, Supreme Ct, Pl2                                Steven Kirkland                       Precinct 2                                             01 
03110020003000194DEM       Justice, Supreme Ct, Pl2                                Steven Kirkland                       Precinct 3                                             01 
03110020004000238DEM       Justice, Supreme Ct, Pl2                                Steven Kirkland                       Precinct 4                                             01 
03110020005000021DEM       Justice, Supreme Ct, Pl2                                Steven Kirkland                       Precinct 5                                             01 
03110020006000101DEM       Justice, Supreme Ct, Pl2                                Steven Kirkland                       Precinct 6                                             01 
03110020007000009DEM       Justice, Supreme Ct, Pl2                                Steven Kirkland                       Precinct 7                                             01 
03110020008000011DEM       Justice, Supreme Ct, Pl2                                Steven Kirkland                       Precinct 8                                             01 
03110020009000130DEM       Justice, Supreme Ct, Pl2                                Steven Kirkland                       Precinct 9                                             01 
03110030001000000          Justice, Supreme Ct, Pl2                                OVER VOTES                            Precinct 1                                             01 
03110030002000000          Justice, Supreme Ct, Pl2                                OVER VOTES                            Precinct 2                                             01 
03110030003000000          Justice, Supreme Ct, Pl2                                OVER VOTES                            Precinct 3                                             01 
03110030004000000          Justice, Supreme Ct, Pl2                                OVER VOTES                            Precinct 4                                             01 
03110030005000000          Justice, Supreme Ct, Pl2                                OVER VOTES                            Precinct 5                                             01 
03110030006000000          Justice, Supreme Ct, Pl2                                OVER VOTES                            Precinct 6                                             01 
03110030007000000          Justice, Supreme Ct, Pl2                                OVER VOTES                            Precinct 7                                             01 
03110030008000000          Justice, Supreme Ct, Pl2                                OVER VOTES                            Precinct 8                                             01 
03110030009000000          Justice, Supreme Ct, Pl2                                OVER VOTES                            Precinct 9                                             01 
03110040001000006          Justice, Supreme Ct, Pl2                                UNDER VOTES                           Precinct 1                                             01 
03110040002000015          Justice, Supreme Ct, Pl2                                UNDER VOTES                           Precinct 2                                             01 
03110040003000016          Justice, Supreme Ct, Pl2                                UNDER VOTES                           Precinct 3                                             01 
03110040004000021          Justice, Supreme Ct, Pl2                                UNDER VOTES                           Precinct 4                                             01 
03110040005000007          Justice, Supreme Ct, Pl2                                UNDER VOTES                           Precinct 5                                             01 
03110040006000011          Justice, Supreme Ct, Pl2                                UNDER VOTES                           Precinct 6                                             01 
03110040007000007          Justice, Supreme Ct, Pl2                                UNDER VOTES                           Precinct 7                                             01 
03110040008000003          Justice, Supreme Ct, Pl2                                UNDER VOTES                           Precinct 8                                             01 
03110040009000023          Justice, Supreme Ct, Pl2                                UNDER VOTES                           Precinct 9                                             01 
03120010001000341REP       Justice, Supreme Ct, Pl 4                               John Devine                           Precinct 1                                             01 
03120010002000481REP       Justice, Supreme Ct, Pl 4                               John Devine                           Precinct 2                                             01 
03120010003000517REP       Justice, Supreme Ct, Pl 4                               John Devine                           Precinct 3                                             01 
03120010004000358REP       Justice, Supreme Ct, Pl 4                               John Devine                           Precinct 4                                             01 
03120010005000075REP       Justice, Supreme Ct, Pl 4                               John Devine                           Precinct 5                                             01 
03120010006000432REP       Justice, Supreme Ct, Pl 4                               John Devine                           Precinct 6                                             01 
03120010007000162REP       Justice, Supreme Ct, Pl 4                               John Devine                           Precinct 7                                             01 
03120010008000098REP       Justice, Supreme Ct, Pl 4                               John Devine                           Precinct 8                                             01 
03120010009000636REP       Justice, Supreme Ct, Pl 4                               John Devine                           Precinct 9                                             01 
03120020001000109DEM       Justice, Supreme Ct, Pl 4                               R.K. Sandill                          Precinct 1                                             01 
03120020002000093DEM       Justice, Supreme Ct, Pl 4                               R.K. Sandill                          Precinct 2                                             01 
03120020003000184DEM       Justice, Supreme Ct, Pl 4                               R.K. Sandill                          Precinct 3                                             01 
03120020004000229DEM       Justice, Supreme Ct, Pl 4                               R.K. Sandill                          Precinct 4                                             01 
03120020005000020DEM       Justice, Supreme Ct, Pl 4                               R.K. Sandill                          Precinct 5                                             01 
03120020006000094DEM       Justice, Supreme Ct, Pl 4                               R.K. Sandill                          Precinct 6                                             01 
03120020007000009DEM       Justice, Supreme Ct, Pl 4                               R.K. Sandill                          Precinct 7                                             01 
03120020008000011DEM       Justice, Supreme Ct, Pl 4                               R.K. Sandill                          Precinct 8                                             01 
03120020009000127DEM       Justice, Supreme Ct, Pl 4                               R.K. Sandill                          Precinct 9                                             01 
03120030001000000          Justice, Supreme Ct, Pl 4                               OVER VOTES                            Precinct 1                                             01 
03120030002000000          Justice, Supreme Ct, Pl 4                               OVER VOTES                            Precinct 2                                             01 
03120030003000000          Justice, Supreme Ct, Pl 4                               OVER VOTES                            Precinct 3                                             01 
03120030004000000          Justice, Supreme Ct, Pl 4                               OVER VOTES                            Precinct 4                                             01 
03120030005000000          Justice, Supreme Ct, Pl 4                               OVER VOTES                            Precinct 5                                             01 
03120030006000000          Justice, Supreme Ct, Pl 4                               OVER VOTES                            Precinct 6                                             01 
03120030007000000          Justice, Supreme Ct, Pl 4                               OVER VOTES                            Precinct 7                                             01 
03120030008000000          Justice, Supreme Ct, Pl 4                               OVER VOTES                            Precinct 8                                             01 
03120030009000000          Justice, Supreme Ct, Pl 4                               OVER VOTES                            Precinct 9                                             01 
03120040001000006          Justice, Supreme Ct, Pl 4                               UNDER VOTES                           Precinct 1                                             01 
03120040002000018          Justice, Supreme Ct, Pl 4                               UNDER VOTES                           Precinct 2                                             01 
03120040003000017          Justice, Supreme Ct, Pl 4                               UNDER VOTES                           Precinct 3                                             01 
03120040004000020          Justice, Supreme Ct, Pl 4                               UNDER VOTES                           Precinct 4                                             01 
03120040005000009          Justice, Supreme Ct, Pl 4                               UNDER VOTES                           Precinct 5                                             01 
03120040006000011          Justice, Supreme Ct, Pl 4                               UNDER VOTES                           Precinct 6                                             01 
03120040007000008          Justice, Supreme Ct, Pl 4                               UNDER VOTES                           Precinct 7                                             01 
03120040008000003          Justice, Supreme Ct, Pl 4                               UNDER VOTES                           Precinct 8                                             01 
03120040009000024          Justice, Supreme Ct, Pl 4                               UNDER VOTES                           Precinct 9                                             01 
03130010001000333REP       Justice, Supreme Ct, Pl 6                               Jeff Brown                            Precinct 1                                             01 
03130010002000480REP       Justice, Supreme Ct, Pl 6                               Jeff Brown                            Precinct 2                                             01 
03130010003000512REP       Justice, Supreme Ct, Pl 6                               Jeff Brown                            Precinct 3                                             01 
03130010004000351REP       Justice, Supreme Ct, Pl 6                               Jeff Brown                            Precinct 4                                             01 
03130010005000074REP       Justice, Supreme Ct, Pl 6                               Jeff Brown                            Precinct 5                                             01 
03130010006000433REP       Justice, Supreme Ct, Pl 6                               Jeff Brown                            Precinct 6                                             01 
03130010007000161REP       Justice, Supreme Ct, Pl 6                               Jeff Brown                            Precinct 7                                             01 
03130010008000096REP       Justice, Supreme Ct, Pl 6                               Jeff Brown                            Precinct 8                                             01 
03130010009000636REP       Justice, Supreme Ct, Pl 6                               Jeff Brown                            Precinct 9                                             01 
03130020001000117DEM       Justice, Supreme Ct, Pl 6                               Kathy Cheng                           Precinct 1                                             01 
03130020002000093DEM       Justice, Supreme Ct, Pl 6                               Kathy Cheng                           Precinct 2                                             01 
03130020003000188DEM       Justice, Supreme Ct, Pl 6                               Kathy Cheng                           Precinct 3                                             01 
