01010010001000000          REGISTERED VOTERS - TOTAL                               REGISTERED VOTERS - TOTAL             PRECINCT 1                                             00 
01010010002000000          REGISTERED VOTERS - TOTAL                               REGISTERED VOTERS - TOTAL             PRECINCT 2                                             00 
01010010003000000          REGISTERED VOTERS - TOTAL                               REGISTERED VOTERS - TOTAL             PRECINCT 3                                             00 
01010010004000000          REGISTERED VOTERS - TOTAL                               REGISTERED VOTERS - TOTAL             PRECINCT 4                                             00 
01010010005000000          REGISTERED VOTERS - TOTAL                               REGISTERED VOTERS - TOTAL             PRECINCT 5                                             00 
01010010006000000          REGISTERED VOTERS - TOTAL                               REGISTERED VOTERS - TOTAL             PRECINCT 6                                             00 
01010010007000000          REGISTERED VOTERS - TOTAL                               REGISTERED VOTERS - TOTAL             PRECINCT 7                                             00 
01010010008000000          REGISTERED VOTERS - TOTAL                               REGISTERED VOTERS - TOTAL             PRECINCT 8                                             00 
01010010009000000          REGISTERED VOTERS - TOTAL                               REGISTERED VOTERS - TOTAL             PRECINCT 9                                             00 
01010010010000000          REGISTERED VOTERS - TOTAL                               REGISTERED VOTERS - TOTAL             PRECINCT 10                                            00 
01010010011000000          REGISTERED VOTERS - TOTAL                               REGISTERED VOTERS - TOTAL             PRECINCT 11                                            00 
01010010012000000          REGISTERED VOTERS - TOTAL                               REGISTERED VOTERS - TOTAL             PRECINCT 12                                            00 
01010010013000000          REGISTERED VOTERS - TOTAL                               REGISTERED VOTERS - TOTAL             PRECINCT 13                                            00 
01010010014000000          REGISTERED VOTERS - TOTAL                               REGISTERED VOTERS - TOTAL             PRECINCT 14                                            00 
01010010015000000          REGISTERED VOTERS - TOTAL                               REGISTERED VOTERS - TOTAL             PRECINCT 15                                            00 
01010010016000000          REGISTERED VOTERS - TOTAL                               REGISTERED VOTERS - TOTAL             PRECINCT 16                                            00 
01010010017000000          REGISTERED VOTERS - TOTAL                               REGISTERED VOTERS - TOTAL             PRECINCT 17                                            00 
01010010018000000          REGISTERED VOTERS - TOTAL                               REGISTERED VOTERS - TOTAL             PRECINCT 18                                            00 
01010010019000000          REGISTERED VOTERS - TOTAL                               REGISTERED VOTERS - TOTAL             PRECINCT 19                                            00 
01010010020000000          REGISTERED VOTERS - TOTAL                               REGISTERED VOTERS - TOTAL             PRECINCT 20                                            00 
01010010021000000          REGISTERED VOTERS - TOTAL                               REGISTERED VOTERS - TOTAL             PRECINCT 21                                            00 
01010010022000000          REGISTERED VOTERS - TOTAL                               REGISTERED VOTERS - TOTAL             PRECINCT 22                                            00 
01010010023000000          REGISTERED VOTERS - TOTAL                               REGISTERED VOTERS - TOTAL             PRECINCT 23                                            00 
01010010024000000          REGISTERED VOTERS - TOTAL                               REGISTERED VOTERS - TOTAL             PRECINCT 24                                            00 
01010010025000000          REGISTERED VOTERS - TOTAL                               REGISTERED VOTERS - TOTAL             PRECINCT 25                                            00 
01010010026000000          REGISTERED VOTERS - TOTAL                               REGISTERED VOTERS - TOTAL             PRECINCT 26                                            00 
01010010027000000          REGISTERED VOTERS - TOTAL                               REGISTERED VOTERS - TOTAL             PRECINCT 27                                            00 
01010010028000000          REGISTERED VOTERS - TOTAL                               REGISTERED VOTERS - TOTAL             PRECINCT 28                                            00 
01010010029000000          REGISTERED VOTERS - TOTAL                               REGISTERED VOTERS - TOTAL             PRECINCT 29                                            00 
01010010030000000          REGISTERED VOTERS - TOTAL                               REGISTERED VOTERS - TOTAL             PRECINCT 30                                            00 
01010010031000000          REGISTERED VOTERS - TOTAL                               REGISTERED VOTERS - TOTAL             PRECINCT 31                                            00 
01010010032000000          REGISTERED VOTERS - TOTAL                               REGISTERED VOTERS - TOTAL             PRECINCT 32                                            00 
01010010033000000          REGISTERED VOTERS - TOTAL                               REGISTERED VOTERS - TOTAL             PRECINCT 33                                            00 
01010010034000000          REGISTERED VOTERS - TOTAL                               REGISTERED VOTERS - TOTAL             PRECINCT 34                                            00 
01010010035000000          REGISTERED VOTERS - TOTAL                               REGISTERED VOTERS - TOTAL             WEST ORANGE COVE CISD                                  00 
01020010001000135          BALLOTS CAST - TOTAL                                    BALLOTS CAST - TOTAL                  PRECINCT 1                                             00 
01020010002000500          BALLOTS CAST - TOTAL                                    BALLOTS CAST - TOTAL                  PRECINCT 2                                             00 
01020010003000498          BALLOTS CAST - TOTAL                                    BALLOTS CAST - TOTAL                  PRECINCT 3                                             00 
01020010004000161          BALLOTS CAST - TOTAL                                    BALLOTS CAST - TOTAL                  PRECINCT 4                                             00 
01020010005000756          BALLOTS CAST - TOTAL                                    BALLOTS CAST - TOTAL                  PRECINCT 5                                             00 
01020010006000924          BALLOTS CAST - TOTAL                                    BALLOTS CAST - TOTAL                  PRECINCT 6                                             00 
01020010007000855          BALLOTS CAST - TOTAL                                    BALLOTS CAST - TOTAL                  PRECINCT 7                                             00 
01020010008001220          BALLOTS CAST - TOTAL                                    BALLOTS CAST - TOTAL                  PRECINCT 8                                             00 
01020010009001004          BALLOTS CAST - TOTAL                                    BALLOTS CAST - TOTAL                  PRECINCT 9                                             00 
01020010010000368          BALLOTS CAST - TOTAL                                    BALLOTS CAST - TOTAL                  PRECINCT 10                                            00 
01020010011000250          BALLOTS CAST - TOTAL                                    BALLOTS CAST - TOTAL                  PRECINCT 11                                            00 
01020010012000561          BALLOTS CAST - TOTAL                                    BALLOTS CAST - TOTAL                  PRECINCT 12                                            00 
01020010013000606          BALLOTS CAST - TOTAL                                    BALLOTS CAST - TOTAL                  PRECINCT 13                                            00 
01020010014000821          BALLOTS CAST - TOTAL                                    BALLOTS CAST - TOTAL                  PRECINCT 14                                            00 
01020010015000916          BALLOTS CAST - TOTAL                                    BALLOTS CAST - TOTAL                  PRECINCT 15                                            00 
01020010016001284          BALLOTS CAST - TOTAL                                    BALLOTS CAST - TOTAL                  PRECINCT 16                                            00 
01020010017000885          BALLOTS CAST - TOTAL                                    BALLOTS CAST - TOTAL                  PRECINCT 17                                            00 
01020010018000967          BALLOTS CAST - TOTAL                                    BALLOTS CAST - TOTAL                  PRECINCT 18                                            00 
01020010019000778          BALLOTS CAST - TOTAL                                    BALLOTS CAST - TOTAL                  PRECINCT 19                                            00 
01020010020000643          BALLOTS CAST - TOTAL                                    BALLOTS CAST - TOTAL                  PRECINCT 20                                            00 
01020010021000131          BALLOTS CAST - TOTAL                                    BALLOTS CAST - TOTAL                  PRECINCT 21                                            00 
01020010022000625          BALLOTS CAST - TOTAL                                    BALLOTS CAST - TOTAL                  PRECINCT 22                                            00 
01020010023001368          BALLOTS CAST - TOTAL                                    BALLOTS CAST - TOTAL                  PRECINCT 23                                            00 
01020010024000754          BALLOTS CAST - TOTAL                                    BALLOTS CAST - TOTAL                  PRECINCT 24                                            00 
01020010025000831          BALLOTS CAST - TOTAL                                    BALLOTS CAST - TOTAL                  PRECINCT 25                                            00 
01020010026001091          BALLOTS CAST - TOTAL                                    BALLOTS CAST - TOTAL                  PRECINCT 26                                            00 
01020010027001053          BALLOTS CAST - TOTAL                                    BALLOTS CAST - TOTAL                  PRECINCT 27                                            00 
01020010028001670          BALLOTS CAST - TOTAL                                    BALLOTS CAST - TOTAL                  PRECINCT 28                                            00 
01020010029000530          BALLOTS CAST - TOTAL                                    BALLOTS CAST - TOTAL                  PRECINCT 29                                            00 
01020010030000509          BALLOTS CAST - TOTAL                                    BALLOTS CAST - TOTAL                  PRECINCT 30                                            00 
01020010031001248          BALLOTS CAST - TOTAL                                    BALLOTS CAST - TOTAL                  PRECINCT 31                                            00 
01020010032001009          BALLOTS CAST - TOTAL                                    BALLOTS CAST - TOTAL                  PRECINCT 32                                            00 
01020010033000719          BALLOTS CAST - TOTAL                                    BALLOTS CAST - TOTAL                  PRECINCT 33                                            00 
01020010034000739          BALLOTS CAST - TOTAL                                    BALLOTS CAST - TOTAL                  PRECINCT 34                                            00 
01020010035003303          BALLOTS CAST - TOTAL                                    BALLOTS CAST - TOTAL                  WEST ORANGE COVE CISD                                  00 
01030010001000072REP       Straight Party                                          Republican Party                      PRECINCT 1                                             01 
01030010002000117REP       Straight Party                                          Republican Party                      PRECINCT 2                                             01 
01030010003000055REP       Straight Party                                          Republican Party                      PRECINCT 3                                             01 
01030010004000003REP       Straight Party                                          Republican Party                      PRECINCT 4                                             01 
01030010005000224REP       Straight Party                                          Republican Party                      PRECINCT 5                                             01 
01030010006000515REP       Straight Party                                          Republican Party                      PRECINCT 6                                             01 
01030010007000373REP       Straight Party                                          Republican Party                      PRECINCT 7                                             01 
01030010008000636REP       Straight Party                                          Republican Party                      PRECINCT 8                                             01 
01030010009000581REP       Straight Party                                          Republican Party                      PRECINCT 9                                             01 
01030010010000225REP       Straight Party                                          Republican Party                      PRECINCT 10                                            01 
01030010011000114REP       Straight Party                                          Republican Party                      PRECINCT 11                                            01 
01030010012000288REP       Straight Party                                          Republican Party                      PRECINCT 12                                            01 
01030010013000254REP       Straight Party                                          Republican Party                      PRECINCT 13                                            01 
01030010014000377REP       Straight Party                                          Republican Party                      PRECINCT 14                                            01 
01030010015000522REP       Straight Party                                          Republican Party                      PRECINCT 15                                            01 
01030010016000799REP       Straight Party                                          Republican Party                      PRECINCT 16                                            01 
01030010017000576REP       Straight Party                                          Republican Party                      PRECINCT 17                                            01 
01030010018000616REP       Straight Party                                          Republican Party                      PRECINCT 18                                            01 
01030010019000518REP       Straight Party                                          Republican Party                      PRECINCT 19                                            01 
01030010020000441REP       Straight Party                                          Republican Party                      PRECINCT 20                                            01 
01030010021000079REP       Straight Party                                          Republican Party                      PRECINCT 21                                            01 
01030010022000413REP       Straight Party                                          Republican Party                      PRECINCT 22                                            01 
01030010023000838REP       Straight Party                                          Republican Party                      PRECINCT 23                                            01 
01030010024000468REP       Straight Party                                          Republican Party                      PRECINCT 24                                            01 
01030010025000493REP       Straight Party                                          Republican Party                      PRECINCT 25                                            01 
01030010026000615REP       Straight Party                                          Republican Party                      PRECINCT 26                                            01 
01030010027000678REP       Straight Party                                          Republican Party                      PRECINCT 27                                            01 
01030010028001012REP       Straight Party                                          Republican Party                      PRECINCT 28                                            01 
01030010029000354REP       Straight Party                                          Republican Party                      PRECINCT 29                                            01 
01030010030000323REP       Straight Party                                          Republican Party                      PRECINCT 30                                            01 
01030010031000752REP       Straight Party                                          Republican Party                      PRECINCT 31                                            01 
01030010032000638REP       Straight Party                                          Republican Party                      PRECINCT 32                                            01 
01030010033000446REP       Straight Party                                          Republican Party                      PRECINCT 33                                            01 
01030010034000464REP       Straight Party                                          Republican Party                      PRECINCT 34                                            01 
01030020001000016DEM       Straight Party                                          Democratic Party                      PRECINCT 1                                             01 
01030020002000236DEM       Straight Party                                          Democratic Party                      PRECINCT 2                                             01 
01030020003000330DEM       Straight Party                                          Democratic Party                      PRECINCT 3                                             01 
01030020004000135DEM       Straight Party                                          Democratic Party                      PRECINCT 4                                             01 
01030020005000253DEM       Straight Party                                          Democratic Party                      PRECINCT 5                                             01 
01030020006000067DEM       Straight Party                                          Democratic Party                      PRECINCT 6                                             01 
01030020007000137DEM       Straight Party                                          Democratic Party                      PRECINCT 7                                             01 
01030020008000088DEM       Straight Party                                          Democratic Party                      PRECINCT 8                                             01 
01030020009000090DEM       Straight Party                                          Democratic Party                      PRECINCT 9                                             01 
01030020010000043DEM       Straight Party                                          Democratic Party                      PRECINCT 10                                            01 
01030020011000046DEM       Straight Party                                          Democratic Party                      PRECINCT 11                                            01 
01030020012000064DEM       Straight Party                                          Democratic Party                      PRECINCT 12                                            01 
01030020013000142DEM       Straight Party                                          Democratic Party                      PRECINCT 13                                            01 
01030020014000161DEM       Straight Party                                          Democratic Party                      PRECINCT 14                                            01 
01030020015000093DEM       Straight Party                                          Democratic Party                      PRECINCT 15                                            01 
01030020016000063DEM       Straight Party                                          Democratic Party                      PRECINCT 16                                            01 
01030020017000049DEM       Straight Party                                          Democratic Party                      PRECINCT 17                                            01 
01030020018000061DEM       Straight Party                                          Democratic Party                      PRECINCT 18                                            01 
01030020019000054DEM       Straight Party                                          Democratic Party                      PRECINCT 19                                            01 
01030020020000048DEM       Straight Party                                          Democratic Party                      PRECINCT 20                                            01 
01030020021000011DEM       Straight Party                                          Democratic Party                      PRECINCT 21                                            01 
01030020022000031DEM       Straight Party                                          Democratic Party                      PRECINCT 22                                            01 
01030020023000067DEM       Straight Party                                          Democratic Party                      PRECINCT 23                                            01 
01030020024000045DEM       Straight Party                                          Democratic Party                      PRECINCT 24                                            01 
01030020025000066DEM       Straight Party                                          Democratic Party                      PRECINCT 25                                            01 
01030020026000091DEM       Straight Party                                          Democratic Party                      PRECINCT 26                                            01 
01030020027000062DEM       Straight Party                                          Democratic Party                      PRECINCT 27                                            01 
01030020028000072DEM       Straight Party                                          Democratic Party                      PRECINCT 28                                            01 
01030020029000034DEM       Straight Party                                          Democratic Party                      PRECINCT 29                                            01 
01030020030000025DEM       Straight Party                                          Democratic Party                      PRECINCT 30                                            01 
01030020031000083DEM       Straight Party                                          Democratic Party                      PRECINCT 31                                            01 
01030020032000049DEM       Straight Party                                          Democratic Party                      PRECINCT 32                                            01 
01030020033000044DEM       Straight Party                                          Democratic Party                      PRECINCT 33                                            01 
01030020034000046DEM       Straight Party                                          Democratic Party                      PRECINCT 34                                            01 
01030030001000000LIB       Straight Party                                          Libertarian Party                     PRECINCT 1                                             01 
01030030002000001LIB       Straight Party                                          Libertarian Party                     PRECINCT 2                                             01 
01030030003000001LIB       Straight Party                                          Libertarian Party                     PRECINCT 3                                             01 
01030030004000000LIB       Straight Party                                          Libertarian Party                     PRECINCT 4                                             01 
01030030005000000LIB       Straight Party                                          Libertarian Party                     PRECINCT 5                                             01 
01030030006000000LIB       Straight Party                                          Libertarian Party                     PRECINCT 6                                             01 
01030030007000003LIB       Straight Party                                          Libertarian Party                     PRECINCT 7                                             01 
01030030008000000LIB       Straight Party                                          Libertarian Party                     PRECINCT 8                                             01 
01030030009000000LIB       Straight Party                                          Libertarian Party                     PRECINCT 9                                             01 
01030030010000001LIB       Straight Party                                          Libertarian Party                     PRECINCT 10                                            01 
01030030011000000LIB       Straight Party                                          Libertarian Party                     PRECINCT 11                                            01 
01030030012000001LIB       Straight Party                                          Libertarian Party                     PRECINCT 12                                            01 
01030030013000003LIB       Straight Party                                          Libertarian Party                     PRECINCT 13                                            01 
01030030014000001LIB       Straight Party                                          Libertarian Party                     PRECINCT 14                                            01 
01030030015000001LIB       Straight Party                                          Libertarian Party                     PRECINCT 15                                            01 
01030030016000002LIB       Straight Party                                          Libertarian Party                     PRECINCT 16                                            01 
01030030017000002LIB       Straight Party                                          Libertarian Party                     PRECINCT 17                                            01 
01030030018000000LIB       Straight Party                                          Libertarian Party                     PRECINCT 18                                            01 
01030030019000001LIB       Straight Party                                          Libertarian Party                     PRECINCT 19                                            01 
01030030020000004LIB       Straight Party                                          Libertarian Party                     PRECINCT 20                                            01 
01030030021000000LIB       Straight Party                                          Libertarian Party                     PRECINCT 21                                            01 
01030030022000000LIB       Straight Party                                          Libertarian Party                     PRECINCT 22                                            01 
01030030023000001LIB       Straight Party                                          Libertarian Party                     PRECINCT 23                                            01 
01030030024000000LIB       Straight Party                                          Libertarian Party                     PRECINCT 24                                            01 
01030030025000002LIB       Straight Party                                          Libertarian Party                     PRECINCT 25                                            01 
01030030026000003LIB       Straight Party                                          Libertarian Party                     PRECINCT 26                                            01 
01030030027000001LIB       Straight Party                                          Libertarian Party                     PRECINCT 27                                            01 
01030030028000006LIB       Straight Party                                          Libertarian Party                     PRECINCT 28                                            01 
01030030029000004LIB       Straight Party                                          Libertarian Party                     PRECINCT 29                                            01 
01030030030000000LIB       Straight Party                                          Libertarian Party                     PRECINCT 30                                            01 
01030030031000002LIB       Straight Party                                          Libertarian Party                     PRECINCT 31                                            01 
01030030032000001LIB       Straight Party                                          Libertarian Party                     PRECINCT 32                                            01 
01030030033000003LIB       Straight Party                                          Libertarian Party                     PRECINCT 33                                            01 
01030030034000003LIB       Straight Party                                          Libertarian Party                     PRECINCT 34                                            01 
01030040001000000          Straight Party                                          OVER VOTES                            PRECINCT 1                                             01 
01030040002000000          Straight Party                                          OVER VOTES                            PRECINCT 2                                             01 
01030040003000002          Straight Party                                          OVER VOTES                            PRECINCT 3                                             01 
01030040004000000          Straight Party                                          OVER VOTES                            PRECINCT 4                                             01 
01030040005000000          Straight Party                                          OVER VOTES                            PRECINCT 5                                             01 
01030040006000000          Straight Party                                          OVER VOTES                            PRECINCT 6                                             01 
01030040007000001          Straight Party                                          OVER VOTES                            PRECINCT 7                                             01 
01030040008000000          Straight Party                                          OVER VOTES                            PRECINCT 8                                             01 
01030040009000000          Straight Party                                          OVER VOTES                            PRECINCT 9                                             01 
01030040010000001          Straight Party                                          OVER VOTES                            PRECINCT 10                                            01 
01030040011000001          Straight Party                                          OVER VOTES                            PRECINCT 11                                            01 
01030040012000000          Straight Party                                          OVER VOTES                            PRECINCT 12                                            01 
01030040013000000          Straight Party                                          OVER VOTES                            PRECINCT 13                                            01 
01030040014000000          Straight Party                                          OVER VOTES                            PRECINCT 14                                            01 
01030040015000000          Straight Party                                          OVER VOTES                            PRECINCT 15                                            01 
01030040016000000          Straight Party                                          OVER VOTES                            PRECINCT 16                                            01 
01030040017000001          Straight Party                                          OVER VOTES                            PRECINCT 17                                            01 
01030040018000000          Straight Party                                          OVER VOTES                            PRECINCT 18                                            01 
01030040019000000          Straight Party                                          OVER VOTES                            PRECINCT 19                                            01 
01030040020000000          Straight Party                                          OVER VOTES                            PRECINCT 20                                            01 
01030040021000000          Straight Party                                          OVER VOTES                            PRECINCT 21                                            01 
01030040022000000          Straight Party                                          OVER VOTES                            PRECINCT 22                                            01 
01030040023000000          Straight Party                                          OVER VOTES                            PRECINCT 23                                            01 
01030040024000000          Straight Party                                          OVER VOTES                            PRECINCT 24                                            01 
01030040025000000          Straight Party                                          OVER VOTES                            PRECINCT 25                                            01 
01030040026000000          Straight Party                                          OVER VOTES                            PRECINCT 26                                            01 
01030040027000001          Straight Party                                          OVER VOTES                            PRECINCT 27                                            01 
01030040028000003          Straight Party                                          OVER VOTES                            PRECINCT 28                                            01 
01030040029000000          Straight Party                                          OVER VOTES                            PRECINCT 29                                            01 
01030040030000000          Straight Party                                          OVER VOTES                            PRECINCT 30                                            01 
01030040031000000          Straight Party                                          OVER VOTES                            PRECINCT 31                                            01 
01030040032000001          Straight Party                                          OVER VOTES                            PRECINCT 32                                            01 
01030040033000000          Straight Party                                          OVER VOTES                            PRECINCT 33                                            01 
01030040034000000          Straight Party                                          OVER VOTES                            PRECINCT 34                                            01 
01030050001000047          Straight Party                                          UNDER VOTES                           PRECINCT 1                                             01 
01030050002000146          Straight Party                                          UNDER VOTES                           PRECINCT 2                                             01 
01030050003000110          Straight Party                                          UNDER VOTES                           PRECINCT 3                                             01 
01030050004000023          Straight Party                                          UNDER VOTES                           PRECINCT 4                                             01 
01030050005000279          Straight Party                                          UNDER VOTES                           PRECINCT 5                                             01 
01030050006000342          Straight Party                                          UNDER VOTES                           PRECINCT 6                                             01 
01030050007000341          Straight Party                                          UNDER VOTES                           PRECINCT 7                                             01 
01030050008000496          Straight Party                                          UNDER VOTES                           PRECINCT 8                                             01 
01030050009000333          Straight Party                                          UNDER VOTES                           PRECINCT 9                                             01 
01030050010000098          Straight Party                                          UNDER VOTES                           PRECINCT 10                                            01 
01030050011000089          Straight Party                                          UNDER VOTES                           PRECINCT 11                                            01 
01030050012000208          Straight Party                                          UNDER VOTES                           PRECINCT 12                                            01 
01030050013000207          Straight Party                                          UNDER VOTES                           PRECINCT 13                                            01 
01030050014000282          Straight Party                                          UNDER VOTES                           PRECINCT 14                                            01 
01030050015000300          Straight Party                                          UNDER VOTES                           PRECINCT 15                                            01 
01030050016000420          Straight Party                                          UNDER VOTES                           PRECINCT 16                                            01 
01030050017000257          Straight Party                                          UNDER VOTES                           PRECINCT 17                                            01 
01030050018000290          Straight Party                                          UNDER VOTES                           PRECINCT 18                                            01 
01030050019000205          Straight Party                                          UNDER VOTES                           PRECINCT 19                                            01 
01030050020000150          Straight Party                                          UNDER VOTES                           PRECINCT 20                                            01 
01030050021000041          Straight Party                                          UNDER VOTES                           PRECINCT 21                                            01 
01030050022000181          Straight Party                                          UNDER VOTES                           PRECINCT 22                                            01 
01030050023000462          Straight Party                                          UNDER VOTES                           PRECINCT 23                                            01 
01030050024000241          Straight Party                                          UNDER VOTES                           PRECINCT 24                                            01 
01030050025000270          Straight Party                                          UNDER VOTES                           PRECINCT 25                                            01 
01030050026000382          Straight Party                                          UNDER VOTES                           PRECINCT 26                                            01 
01030050027000311          Straight Party                                          UNDER VOTES                           PRECINCT 27                                            01 
01030050028000577          Straight Party                                          UNDER VOTES                           PRECINCT 28                                            01 
01030050029000138          Straight Party                                          UNDER VOTES                           PRECINCT 29                                            01 
01030050030000161          Straight Party                                          UNDER VOTES                           PRECINCT 30                                            01 
01030050031000411          Straight Party                                          UNDER VOTES                           PRECINCT 31                                            01 
01030050032000320          Straight Party                                          UNDER VOTES                           PRECINCT 32                                            01 
01030050033000226          Straight Party                                          UNDER VOTES                           PRECINCT 33                                            01 
01030050034000226          Straight Party                                          UNDER VOTES                           PRECINCT 34                                            01 
01040010001000112REP       United States Senator                                   Ted Cruz                              PRECINCT 1                                             01 
01040010002000187REP       United States Senator                                   Ted Cruz                              PRECINCT 2                                             01 
01040010003000081REP       United States Senator                                   Ted Cruz                              PRECINCT 3                                             01 
01040010004000005REP       United States Senator                                   Ted Cruz                              PRECINCT 4                                             01 
01040010005000391REP       United States Senator                                   Ted Cruz                              PRECINCT 5                                             01 
01040010006000761REP       United States Senator                                   Ted Cruz                              PRECINCT 6                                             01 
01040010007000602REP       United States Senator                                   Ted Cruz                              PRECINCT 7                                             01 
01040010008000996REP       United States Senator                                   Ted Cruz                              PRECINCT 8                                             01 
01040010009000843REP       United States Senator                                   Ted Cruz                              PRECINCT 9                                             01 
01040010010000291REP       United States Senator                                   Ted Cruz                              PRECINCT 10                                            01 
01040010011000178REP       United States Senator                                   Ted Cruz                              PRECINCT 11                                            01 
01040010012000418REP       United States Senator                                   Ted Cruz                              PRECINCT 12                                            01 
01040010013000379REP       United States Senator                                   Ted Cruz                              PRECINCT 13                                            01 
01040010014000551REP       United States Senator                                   Ted Cruz                              PRECINCT 14                                            01 
01040010015000731REP       United States Senator                                   Ted Cruz                              PRECINCT 15                                            01 
01040010016001140REP       United States Senator                                   Ted Cruz                              PRECINCT 16                                            01 
01040010017000783REP       United States Senator                                   Ted Cruz                              PRECINCT 17                                            01 
01040010018000840REP       United States Senator                                   Ted Cruz                              PRECINCT 18                                            01 
01040010019000659REP       United States Senator                                   Ted Cruz                              PRECINCT 19                                            01 
01040010020000553REP       United States Senator                                   Ted Cruz                              PRECINCT 20                                            01 
01040010021000108REP       United States Senator                                   Ted Cruz                              PRECINCT 21                                            01 
01040010022000560REP       United States Senator                                   Ted Cruz                              PRECINCT 22                                            01 
01040010023001209REP       United States Senator                                   Ted Cruz                              PRECINCT 23                                            01 
01040010024000660REP       United States Senator                                   Ted Cruz                              PRECINCT 24                                            01 
01040010025000698REP       United States Senator                                   Ted Cruz                              PRECINCT 25                                            01 
01040010026000915REP       United States Senator                                   Ted Cruz                              PRECINCT 26                                            01 
01040010027000921REP       United States Senator                                   Ted Cruz                              PRECINCT 27                                            01 
01040010028001460REP       United States Senator                                   Ted Cruz                              PRECINCT 28                                            01 
01040010029000462REP       United States Senator                                   Ted Cruz                              PRECINCT 29                                            01 
01040010030000437REP       United States Senator                                   Ted Cruz                              PRECINCT 30                                            01 
01040010031001074REP       United States Senator                                   Ted Cruz                              PRECINCT 31                                            01 
01040010032000901REP       United States Senator                                   Ted Cruz                              PRECINCT 32                                            01 
01040010033000619REP       United States Senator                                   Ted Cruz                              PRECINCT 33                                            01 
01040010034000639REP       United States Senator                                   Ted Cruz                              PRECINCT 34                                            01 
01040020001000023DEM       United States Senator                                   Beto O' Rourke                        PRECINCT 1                                             01 
01040020002000306DEM       United States Senator                                   Beto O' Rourke                        PRECINCT 2                                             01 
01040020003000409DEM       United States Senator                                   Beto O' Rourke                        PRECINCT 3                                             01 
01040020004000154DEM       United States Senator                                   Beto O' Rourke                        PRECINCT 4                                             01 
01040020005000359DEM       United States Senator                                   Beto O' Rourke                        PRECINCT 5                                             01 
01040020006000154DEM       United States Senator                                   Beto O' Rourke                        PRECINCT 6                                             01 
01040020007000241DEM       United States Senator                                   Beto O' Rourke                        PRECINCT 7                                             01 
01040020008000214DEM       United States Senator                                   Beto O' Rourke                        PRECINCT 8                                             01 
01040020009000153DEM       United States Senator                                   Beto O' Rourke                        PRECINCT 9                                             01 
01040020010000075DEM       United States Senator                                   Beto O' Rourke                        PRECINCT 10                                            01 
01040020011000071DEM       United States Senator                                   Beto O' Rourke                        PRECINCT 11                                            01 
01040020012000137DEM       United States Senator                                   Beto O' Rourke                        PRECINCT 12                                            01 
01040020013000219DEM       United States Senator                                   Beto O' Rourke                        PRECINCT 13                                            01 
01040020014000264DEM       United States Senator                                   Beto O' Rourke                        PRECINCT 14                                            01 
01040020015000180DEM       United States Senator                                   Beto O' Rourke                        PRECINCT 15                                            01 
01040020016000140DEM       United States Senator                                   Beto O' Rourke                        PRECINCT 16                                            01 
01040020017000096DEM       United States Senator                                   Beto O' Rourke                        PRECINCT 17                                            01 
01040020018000126DEM       United States Senator                                   Beto O' Rourke                        PRECINCT 18                                            01 
01040020019000116DEM       United States Senator                                   Beto O' Rourke                        PRECINCT 19                                            01 
01040020020000086DEM       United States Senator                                   Beto O' Rourke                        PRECINCT 20                                            01 
01040020021000023DEM       United States Senator                                   Beto O' Rourke                        PRECINCT 21                                            01 
01040020022000064DEM       United States Senator                                   Beto O' Rourke                        PRECINCT 22                                            01 
01040020023000150DEM       United States Senator                                   Beto O' Rourke                        PRECINCT 23                                            01 
01040020024000090DEM       United States Senator                                   Beto O' Rourke                        PRECINCT 24                                            01 
01040020025000126DEM       United States Senator                                   Beto O' Rourke                        PRECINCT 25                                            01 
01040020026000168DEM       United States Senator                                   Beto O' Rourke                        PRECINCT 26                                            01 
01040020027000126DEM       United States Senator                                   Beto O' Rourke                        PRECINCT 27                                            01 
01040020028000204DEM       United States Senator                                   Beto O' Rourke                        PRECINCT 28                                            01 
01040020029000062DEM       United States Senator                                   Beto O' Rourke                        PRECINCT 29                                            01 
01040020030000067DEM       United States Senator                                   Beto O' Rourke                        PRECINCT 30                                            01 
01040020031000166DEM       United States Senator                                   Beto O' Rourke                        PRECINCT 31                                            01 
01040020032000100DEM       United States Senator                                   Beto O' Rourke                        PRECINCT 32                                            01 
01040020033000093DEM       United States Senator                                   Beto O' Rourke                        PRECINCT 33                                            01 
01040020034000088DEM       United States Senator                                   Beto O' Rourke                        PRECINCT 34                                            01 
01040030001000000LIB       United States Senator                                   Neal M. Dikeman                       PRECINCT 1                                             01 
01040030002000004LIB       United States Senator                                   Neal M. Dikeman                       PRECINCT 2                                             01 
01040030003000003LIB       United States Senator                                   Neal M. Dikeman                       PRECINCT 3                                             01 
01040030004000000LIB       United States Senator                                   Neal M. Dikeman                       PRECINCT 4                                             01 
01040030005000001LIB       United States Senator                                   Neal M. Dikeman                       PRECINCT 5                                             01 
01040030006000007LIB       United States Senator                                   Neal M. Dikeman                       PRECINCT 6                                             01 
01040030007000005LIB       United States Senator                                   Neal M. Dikeman                       PRECINCT 7                                             01 
01040030008000005LIB       United States Senator                                   Neal M. Dikeman                       PRECINCT 8                                             01 
01040030009000005LIB       United States Senator                                   Neal M. Dikeman                       PRECINCT 9                                             01 
01040030010000002LIB       United States Senator                                   Neal M. Dikeman                       PRECINCT 10                                            01 
01040030011000000LIB       United States Senator                                   Neal M. Dikeman                       PRECINCT 11                                            01 
01040030012000002LIB       United States Senator                                   Neal M. Dikeman                       PRECINCT 12                                            01 
01040030013000004LIB       United States Senator                                   Neal M. Dikeman                       PRECINCT 13                                            01 
01040030014000003LIB       United States Senator                                   Neal M. Dikeman                       PRECINCT 14                                            01 
01040030015000003LIB       United States Senator                                   Neal M. Dikeman                       PRECINCT 15                                            01 
01040030016000004LIB       United States Senator                                   Neal M. Dikeman                       PRECINCT 16                                            01 
01040030017000006LIB       United States Senator                                   Neal M. Dikeman                       PRECINCT 17                                            01 
01040030018000001LIB       United States Senator                                   Neal M. Dikeman                       PRECINCT 18                                            01 
01040030019000003LIB       United States Senator                                   Neal M. Dikeman                       PRECINCT 19                                            01 
01040030020000002LIB       United States Senator                                   Neal M. Dikeman                       PRECINCT 20                                            01 
01040030021000000LIB       United States Senator                                   Neal M. Dikeman                       PRECINCT 21                                            01 
01040030022000001LIB       United States Senator                                   Neal M. Dikeman                       PRECINCT 22                                            01 
01040030023000007LIB       United States Senator                                   Neal M. Dikeman                       PRECINCT 23                                            01 
01040030024000003LIB       United States Senator                                   Neal M. Dikeman                       PRECINCT 24                                            01 
01040030025000004LIB       United States Senator                                   Neal M. Dikeman                       PRECINCT 25                                            01 
01040030026000005LIB       United States Senator                                   Neal M. Dikeman                       PRECINCT 26                                            01 
01040030027000003LIB       United States Senator                                   Neal M. Dikeman                       PRECINCT 27                                            01 
01040030028000003LIB       United States Senator                                   Neal M. Dikeman                       PRECINCT 28                                            01 
01040030029000005LIB       United States Senator                                   Neal M. Dikeman                       PRECINCT 29                                            01 
01040030030000004LIB       United States Senator                                   Neal M. Dikeman                       PRECINCT 30                                            01 
01040030031000005LIB       United States Senator                                   Neal M. Dikeman                       PRECINCT 31                                            01 
01040030032000006LIB       United States Senator                                   Neal M. Dikeman                       PRECINCT 32                                            01 
01040030033000005LIB       United States Senator                                   Neal M. Dikeman                       PRECINCT 33                                            01 
01040030034000007LIB       United States Senator                                   Neal M. Dikeman                       PRECINCT 34                                            01 
01040040001000000          United States Senator                                   OVER VOTES                            PRECINCT 1                                             01 
01040040002000000          United States Senator                                   OVER VOTES                            PRECINCT 2                                             01 
01040040003000000          United States Senator                                   OVER VOTES                            PRECINCT 3                                             01 
01040040004000001          United States Senator                                   OVER VOTES                            PRECINCT 4                                             01 
01040040005000001          United States Senator                                   OVER VOTES                            PRECINCT 5                                             01 
01040040006000000          United States Senator                                   OVER VOTES                            PRECINCT 6                                             01 
01040040007000000          United States Senator                                   OVER VOTES                            PRECINCT 7                                             01 
01040040008000000          United States Senator                                   OVER VOTES                            PRECINCT 8                                             01 
01040040009000000          United States Senator                                   OVER VOTES                            PRECINCT 9                                             01 
01040040010000000          United States Senator                                   OVER VOTES                            PRECINCT 10                                            01 
01040040011000000          United States Senator                                   OVER VOTES                            PRECINCT 11                                            01 
01040040012000000          United States Senator                                   OVER VOTES                            PRECINCT 12                                            01 
01040040013000000          United States Senator                                   OVER VOTES                            PRECINCT 13                                            01 
01040040014000000          United States Senator                                   OVER VOTES                            PRECINCT 14                                            01 
01040040015000000          United States Senator                                   OVER VOTES                            PRECINCT 15                                            01 
01040040016000000          United States Senator                                   OVER VOTES                            PRECINCT 16                                            01 
01040040017000000          United States Senator                                   OVER VOTES                            PRECINCT 17                                            01 
01040040018000000          United States Senator                                   OVER VOTES                            PRECINCT 18                                            01 
01040040019000000          United States Senator                                   OVER VOTES                            PRECINCT 19                                            01 
01040040020000000          United States Senator                                   OVER VOTES                            PRECINCT 20                                            01 
01040040021000000          United States Senator                                   OVER VOTES                            PRECINCT 21                                            01 
01040040022000000          United States Senator                                   OVER VOTES                            PRECINCT 22                                            01 
01040040023000000          United States Senator                                   OVER VOTES                            PRECINCT 23                                            01 
01040040024000000          United States Senator                                   OVER VOTES                            PRECINCT 24                                            01 
01040040025000000          United States Senator                                   OVER VOTES                            PRECINCT 25                                            01 
01040040026000000          United States Senator                                   OVER VOTES                            PRECINCT 26                                            01 
01040040027000000          United States Senator                                   OVER VOTES                            PRECINCT 27                                            01 
01040040028000000          United States Senator                                   OVER VOTES                            PRECINCT 28                                            01 
01040040029000000          United States Senator                                   OVER VOTES                            PRECINCT 29                                            01 
01040040030000000          United States Senator                                   OVER VOTES                            PRECINCT 30                                            01 
01040040031000000          United States Senator                                   OVER VOTES                            PRECINCT 31                                            01 
01040040032000000          United States Senator                                   OVER VOTES                            PRECINCT 32                                            01 
01040040033000000          United States Senator                                   OVER VOTES                            PRECINCT 33                                            01 
01040040034000000          United States Senator                                   OVER VOTES                            PRECINCT 34                                            01 
01040050001000000          United States Senator                                   UNDER VOTES                           PRECINCT 1                                             01 
01040050002000003          United States Senator                                   UNDER VOTES                           PRECINCT 2                                             01 
01040050003000005          United States Senator                                   UNDER VOTES                           PRECINCT 3                                             01 
01040050004000001          United States Senator                                   UNDER VOTES                           PRECINCT 4                                             01 
01040050005000004          United States Senator                                   UNDER VOTES                           PRECINCT 5                                             01 
01040050006000002          United States Senator                                   UNDER VOTES                           PRECINCT 6                                             01 
01040050007000007          United States Senator                                   UNDER VOTES                           PRECINCT 7                                             01 
01040050008000005          United States Senator                                   UNDER VOTES                           PRECINCT 8                                             01 
01040050009000003          United States Senator                                   UNDER VOTES                           PRECINCT 9                                             01 
01040050010000000          United States Senator                                   UNDER VOTES                           PRECINCT 10                                            01 
01040050011000001          United States Senator                                   UNDER VOTES                           PRECINCT 11                                            01 
01040050012000004          United States Senator                                   UNDER VOTES                           PRECINCT 12                                            01 
01040050013000004          United States Senator                                   UNDER VOTES                           PRECINCT 13                                            01 
01040050014000003          United States Senator                                   UNDER VOTES                           PRECINCT 14                                            01 
01040050015000002          United States Senator                                   UNDER VOTES                           PRECINCT 15                                            01 
01040050016000000          United States Senator                                   UNDER VOTES                           PRECINCT 16                                            01 
01040050017000000          United States Senator                                   UNDER VOTES                           PRECINCT 17                                            01 
01040050018000000          United States Senator                                   UNDER VOTES                           PRECINCT 18                                            01 
01040050019000000          United States Senator                                   UNDER VOTES                           PRECINCT 19                                            01 
01040050020000002          United States Senator                                   UNDER VOTES                           PRECINCT 20                                            01 
01040050021000000          United States Senator                                   UNDER VOTES                           PRECINCT 21                                            01 
01040050022000000          United States Senator                                   UNDER VOTES                           PRECINCT 22                                            01 
01040050023000002          United States Senator                                   UNDER VOTES                           PRECINCT 23                                            01 
01040050024000001          United States Senator                                   UNDER VOTES                           PRECINCT 24                                            01 
01040050025000003          United States Senator                                   UNDER VOTES                           PRECINCT 25                                            01 
01040050026000003          United States Senator                                   UNDER VOTES                           PRECINCT 26                                            01 
01040050027000003          United States Senator                                   UNDER VOTES                           PRECINCT 27                                            01 
01040050028000003          United States Senator                                   UNDER VOTES                           PRECINCT 28                                            01 
01040050029000001          United States Senator                                   UNDER VOTES                           PRECINCT 29                                            01 
01040050030000001          United States Senator                                   UNDER VOTES                           PRECINCT 30                                            01 
01040050031000003          United States Senator                                   UNDER VOTES                           PRECINCT 31                                            01 
01040050032000002          United States Senator                                   UNDER VOTES                           PRECINCT 32                                            01 
01040050033000002          United States Senator                                   UNDER VOTES                           PRECINCT 33                                            01 
01040050034000005          United States Senator                                   UNDER VOTES                           PRECINCT 34                                            01 
01050010001000110REP       United States Representative, Dist 36                   Brian Babin                           PRECINCT 1                                             01 
01050010002000191REP       United States Representative, Dist 36                   Brian Babin                           PRECINCT 2                                             01 
01050010003000086REP       United States Representative, Dist 36                   Brian Babin                           PRECINCT 3                                             01 
01050010004000005REP       United States Representative, Dist 36                   Brian Babin                           PRECINCT 4                                             01 
01050010005000398REP       United States Representative, Dist 36                   Brian Babin                           PRECINCT 5                                             01 
01050010006000773REP       United States Representative, Dist 36                   Brian Babin                           PRECINCT 6                                             01 
01050010007000622REP       United States Representative, Dist 36                   Brian Babin                           PRECINCT 7                                             01 
01050010008001022REP       United States Representative, Dist 36                   Brian Babin                           PRECINCT 8                                             01 
01050010009000846REP       United States Representative, Dist 36                   Brian Babin                           PRECINCT 9                                             01 
01050010010000293REP       United States Representative, Dist 36                   Brian Babin                           PRECINCT 10                                            01 
01050010011000178REP       United States Representative, Dist 36                   Brian Babin                           PRECINCT 11                                            01 
01050010012000425REP       United States Representative, Dist 36                   Brian Babin                           PRECINCT 12                                            01 
01050010013000388REP       United States Representative, Dist 36                   Brian Babin                           PRECINCT 13                                            01 
01050010014000565REP       United States Representative, Dist 36                   Brian Babin                           PRECINCT 14                                            01 
01050010015000741REP       United States Representative, Dist 36                   Brian Babin                           PRECINCT 15                                            01 
01050010016001159REP       United States Representative, Dist 36                   Brian Babin                           PRECINCT 16                                            01 
01050010017000784REP       United States Representative, Dist 36                   Brian Babin                           PRECINCT 17                                            01 
01050010018000843REP       United States Representative, Dist 36                   Brian Babin                           PRECINCT 18                                            01 
01050010019000663REP       United States Representative, Dist 36                   Brian Babin                           PRECINCT 19                                            01 
01050010020000560REP       United States Representative, Dist 36                   Brian Babin                           PRECINCT 20                                            01 
01050010021000110REP       United States Representative, Dist 36                   Brian Babin                           PRECINCT 21                                            01 
01050010022000562REP       United States Representative, Dist 36                   Brian Babin                           PRECINCT 22                                            01 
01050010023001202REP       United States Representative, Dist 36                   Brian Babin                           PRECINCT 23                                            01 
01050010024000664REP       United States Representative, Dist 36                   Brian Babin                           PRECINCT 24                                            01 
01050010025000703REP       United States Representative, Dist 36                   Brian Babin                           PRECINCT 25                                            01 
01050010026000921REP       United States Representative, Dist 36                   Brian Babin                           PRECINCT 26                                            01 
01050010027000921REP       United States Representative, Dist 36                   Brian Babin                           PRECINCT 27                                            01 
01050010028001471REP       United States Representative, Dist 36                   Brian Babin                           PRECINCT 28                                            01 
01050010029000463REP       United States Representative, Dist 36                   Brian Babin                           PRECINCT 29                                            01 
01050010030000445REP       United States Representative, Dist 36                   Brian Babin                           PRECINCT 30                                            01 
01050010031001087REP       United States Representative, Dist 36                   Brian Babin                           PRECINCT 31                                            01 
01050010032000911REP       United States Representative, Dist 36                   Brian Babin                           PRECINCT 32                                            01 
01050010033000622REP       United States Representative, Dist 36                   Brian Babin                           PRECINCT 33                                            01 
01050010034000639REP       United States Representative, Dist 36                   Brian Babin                           PRECINCT 34                                            01 
01050020001000024DEM       United States Representative, Dist 36                   Dayna Steele                          PRECINCT 1                                             01 
01050020002000300DEM       United States Representative, Dist 36                   Dayna Steele                          PRECINCT 2                                             01 
01050020003000406DEM       United States Representative, Dist 36                   Dayna Steele                          PRECINCT 3                                             01 
01050020004000155DEM       United States Representative, Dist 36                   Dayna Steele                          PRECINCT 4                                             01 
01050020005000351DEM       United States Representative, Dist 36                   Dayna Steele                          PRECINCT 5                                             01 
01050020006000149DEM       United States Representative, Dist 36                   Dayna Steele                          PRECINCT 6                                             01 
01050020007000221DEM       United States Representative, Dist 36                   Dayna Steele                          PRECINCT 7                                             01 
01050020008000188DEM       United States Representative, Dist 36                   Dayna Steele                          PRECINCT 8                                             01 
01050020009000152DEM       United States Representative, Dist 36                   Dayna Steele                          PRECINCT 9                                             01 
01050020010000071DEM       United States Representative, Dist 36                   Dayna Steele                          PRECINCT 10                                            01 
01050020011000070DEM       United States Representative, Dist 36                   Dayna Steele                          PRECINCT 11                                            01 
01050020012000129DEM       United States Representative, Dist 36                   Dayna Steele                          PRECINCT 12                                            01 
01050020013000211DEM       United States Representative, Dist 36                   Dayna Steele                          PRECINCT 13                                            01 
01050020014000251DEM       United States Representative, Dist 36                   Dayna Steele                          PRECINCT 14                                            01 
01050020015000169DEM       United States Representative, Dist 36                   Dayna Steele                          PRECINCT 15                                            01 
01050020016000120DEM       United States Representative, Dist 36                   Dayna Steele                          PRECINCT 16                                            01 
01050020017000093DEM       United States Representative, Dist 36                   Dayna Steele                          PRECINCT 17                                            01 
01050020018000120DEM       United States Representative, Dist 36                   Dayna Steele                          PRECINCT 18                                            01 
01050020019000110DEM       United States Representative, Dist 36                   Dayna Steele                          PRECINCT 19                                            01 
01050020020000078DEM       United States Representative, Dist 36                   Dayna Steele                          PRECINCT 20                                            01 
01050020021000021DEM       United States Representative, Dist 36                   Dayna Steele                          PRECINCT 21                                            01 
01050020022000061DEM       United States Representative, Dist 36                   Dayna Steele                          PRECINCT 22                                            01 
01050020023000149DEM       United States Representative, Dist 36                   Dayna Steele                          PRECINCT 23                                            01 
01050020024000082DEM       United States Representative, Dist 36                   Dayna Steele                          PRECINCT 24                                            01 
01050020025000114DEM       United States Representative, Dist 36                   Dayna Steele                          PRECINCT 25                                            01 
01050020026000160DEM       United States Representative, Dist 36                   Dayna Steele                          PRECINCT 26                                            01 
01050020027000125DEM       United States Representative, Dist 36                   Dayna Steele                          PRECINCT 27                                            01 
01050020028000180DEM       United States Representative, Dist 36                   Dayna Steele                          PRECINCT 28                                            01 
01050020029000063DEM       United States Representative, Dist 36                   Dayna Steele                          PRECINCT 29                                            01 
01050020030000063DEM       United States Representative, Dist 36                   Dayna Steele                          PRECINCT 30                                            01 
01050020031000152DEM       United States Representative, Dist 36                   Dayna Steele                          PRECINCT 31                                            01 
01050020032000091DEM       United States Representative, Dist 36                   Dayna Steele                          PRECINCT 32                                            01 
01050020033000090DEM       United States Representative, Dist 36                   Dayna Steele                          PRECINCT 33                                            01 
01050020034000088DEM       United States Representative, Dist 36                   Dayna Steele                          PRECINCT 34                                            01 
01050030001000000          United States Representative, Dist 36                   OVER VOTES                            PRECINCT 1                                             01 
01050030002000000          United States Representative, Dist 36                   OVER VOTES                            PRECINCT 2                                             01 
01050030003000000          United States Representative, Dist 36                   OVER VOTES                            PRECINCT 3                                             01 
01050030004000000          United States Representative, Dist 36                   OVER VOTES                            PRECINCT 4                                             01 
01050030005000001          United States Representative, Dist 36                   OVER VOTES                            PRECINCT 5                                             01 
01050030006000000          United States Representative, Dist 36                   OVER VOTES                            PRECINCT 6                                             01 
01050030007000000          United States Representative, Dist 36                   OVER VOTES                            PRECINCT 7                                             01 
01050030008000000          United States Representative, Dist 36                   OVER VOTES                            PRECINCT 8                                             01 
01050030009000000          United States Representative, Dist 36                   OVER VOTES                            PRECINCT 9                                             01 
01050030010000000          United States Representative, Dist 36                   OVER VOTES                            PRECINCT 10                                            01 
01050030011000000          United States Representative, Dist 36                   OVER VOTES                            PRECINCT 11                                            01 
01050030012000000          United States Representative, Dist 36                   OVER VOTES                            PRECINCT 12                                            01 
01050030013000000          United States Representative, Dist 36                   OVER VOTES                            PRECINCT 13                                            01 
01050030014000000          United States Representative, Dist 36                   OVER VOTES                            PRECINCT 14                                            01 
01050030015000000          United States Representative, Dist 36                   OVER VOTES                            PRECINCT 15                                            01 
01050030016000000          United States Representative, Dist 36                   OVER VOTES                            PRECINCT 16                                            01 
01050030017000000          United States Representative, Dist 36                   OVER VOTES                            PRECINCT 17                                            01 
01050030018000000          United States Representative, Dist 36                   OVER VOTES                            PRECINCT 18                                            01 
01050030019000000          United States Representative, Dist 36                   OVER VOTES                            PRECINCT 19                                            01 
01050030020000000          United States Representative, Dist 36                   OVER VOTES                            PRECINCT 20                                            01 
01050030021000000          United States Representative, Dist 36                   OVER VOTES                            PRECINCT 21                                            01 
01050030022000000          United States Representative, Dist 36                   OVER VOTES                            PRECINCT 22                                            01 
01050030023000000          United States Representative, Dist 36                   OVER VOTES                            PRECINCT 23                                            01 
01050030024000000          United States Representative, Dist 36                   OVER VOTES                            PRECINCT 24                                            01 
01050030025000000          United States Representative, Dist 36                   OVER VOTES                            PRECINCT 25                                            01 
01050030026000000          United States Representative, Dist 36                   OVER VOTES                            PRECINCT 26                                            01 
01050030027000000          United States Representative, Dist 36                   OVER VOTES                            PRECINCT 27                                            01 
01050030028000000          United States Representative, Dist 36                   OVER VOTES                            PRECINCT 28                                            01 
01050030029000000          United States Representative, Dist 36                   OVER VOTES                            PRECINCT 29                                            01 
01050030030000000          United States Representative, Dist 36                   OVER VOTES                            PRECINCT 30                                            01 
01050030031000000          United States Representative, Dist 36                   OVER VOTES                            PRECINCT 31                                            01 
01050030032000000          United States Representative, Dist 36                   OVER VOTES                            PRECINCT 32                                            01 
01050030033000000          United States Representative, Dist 36                   OVER VOTES                            PRECINCT 33                                            01 
01050030034000000          United States Representative, Dist 36                   OVER VOTES                            PRECINCT 34                                            01 
01050040001000001          United States Representative, Dist 36                   UNDER VOTES                           PRECINCT 1                                             01 
01050040002000009          United States Representative, Dist 36                   UNDER VOTES                           PRECINCT 2                                             01 
01050040003000006          United States Representative, Dist 36                   UNDER VOTES                           PRECINCT 3                                             01 
01050040004000001          United States Representative, Dist 36                   UNDER VOTES                           PRECINCT 4                                             01 
01050040005000006          United States Representative, Dist 36                   UNDER VOTES                           PRECINCT 5                                             01 
01050040006000002          United States Representative, Dist 36                   UNDER VOTES                           PRECINCT 6                                             01 
01050040007000012          United States Representative, Dist 36                   UNDER VOTES                           PRECINCT 7                                             01 
01050040008000010          United States Representative, Dist 36                   UNDER VOTES                           PRECINCT 8                                             01 
01050040009000006          United States Representative, Dist 36                   UNDER VOTES                           PRECINCT 9                                             01 
01050040010000004          United States Representative, Dist 36                   UNDER VOTES                           PRECINCT 10                                            01 
01050040011000002          United States Representative, Dist 36                   UNDER VOTES                           PRECINCT 11                                            01 
01050040012000007          United States Representative, Dist 36                   UNDER VOTES                           PRECINCT 12                                            01 
01050040013000007          United States Representative, Dist 36                   UNDER VOTES                           PRECINCT 13                                            01 
01050040014000005          United States Representative, Dist 36                   UNDER VOTES                           PRECINCT 14                                            01 
01050040015000006          United States Representative, Dist 36                   UNDER VOTES                           PRECINCT 15                                            01 
01050040016000005          United States Representative, Dist 36                   UNDER VOTES                           PRECINCT 16                                            01 
01050040017000008          United States Representative, Dist 36                   UNDER VOTES                           PRECINCT 17                                            01 
01050040018000004          United States Representative, Dist 36                   UNDER VOTES                           PRECINCT 18                                            01 
01050040019000005          United States Representative, Dist 36                   UNDER VOTES                           PRECINCT 19                                            01 
01050040020000005          United States Representative, Dist 36                   UNDER VOTES                           PRECINCT 20                                            01 
01050040021000000          United States Representative, Dist 36                   UNDER VOTES                           PRECINCT 21                                            01 
01050040022000002          United States Representative, Dist 36                   UNDER VOTES                           PRECINCT 22                                            01 
01050040023000017          United States Representative, Dist 36                   UNDER VOTES                           PRECINCT 23                                            01 
01050040024000008          United States Representative, Dist 36                   UNDER VOTES                           PRECINCT 24                                            01 
01050040025000014          United States Representative, Dist 36                   UNDER VOTES                           PRECINCT 25                                            01 
01050040026000010          United States Representative, Dist 36                   UNDER VOTES                           PRECINCT 26                                            01 
01050040027000007          United States Representative, Dist 36                   UNDER VOTES                           PRECINCT 27                                            01 
01050040028000019          United States Representative, Dist 36                   UNDER VOTES                           PRECINCT 28                                            01 
01050040029000004          United States Representative, Dist 36                   UNDER VOTES                           PRECINCT 29                                            01 
01050040030000001          United States Representative, Dist 36                   UNDER VOTES                           PRECINCT 30                                            01 
01050040031000009          United States Representative, Dist 36                   UNDER VOTES                           PRECINCT 31                                            01 
01050040032000007          United States Representative, Dist 36                   UNDER VOTES                           PRECINCT 32                                            01 
01050040033000007          United States Representative, Dist 36                   UNDER VOTES                           PRECINCT 33                                            01 
01050040034000012          United States Representative, Dist 36                   UNDER VOTES                           PRECINCT 34                                            01 
01060010001000117REP       Governor                                                Greg Abbott                           PRECINCT 1                                             01 
01060010002000201REP       Governor                                                Greg Abbott                           PRECINCT 2                                             01 
01060010003000099REP       Governor                                                Greg Abbott                           PRECINCT 3                                             01 
01060010004000010REP       Governor                                                Greg Abbott                           PRECINCT 4                                             01 
01060010005000420REP       Governor                                                Greg Abbott                           PRECINCT 5                                             01 
01060010006000780REP       Governor                                                Greg Abbott                           PRECINCT 6                                             01 
